{
	"error.sol": {
		"ErrorTest": {
			"abi": [
				{
					"inputs": [],
					"name": "addNum",
					"outputs": [],
					"stateMutability": "nonpayable",
					"type": "function"
				},
				{
					"inputs": [],
					"name": "testAssert",
					"outputs": [],
					"stateMutability": "view",
					"type": "function"
				}
			],
			"devdoc": {
				"kind": "dev",
				"methods": {},
				"version": 1
			},
			"evm": {
				"assembly": "    /* \"error.sol\":132:532  contract ErrorTest {\r... */\n  mstore(0x40, 0x80)\n    /* \"error.sol\":389:392  123 */\n  0x7b\n    /* \"error.sol\":378:392  uint num = 123 */\n  0x00\n  sstore\n    /* \"error.sol\":132:532  contract ErrorTest {\r... */\n  callvalue\n  dup1\n  iszero\n  tag_1\n  jumpi\n  0x00\n  dup1\n  revert\ntag_1:\n  pop\n  dataSize(sub_0)\n  dup1\n  dataOffset(sub_0)\n  0x00\n  codecopy\n  0x00\n  return\nstop\n\nsub_0: assembly {\n        /* \"error.sol\":132:532  contract ErrorTest {\r... */\n      mstore(0x40, 0x80)\n      callvalue\n      dup1\n      iszero\n      tag_1\n      jumpi\n      0x00\n      dup1\n      revert\n    tag_1:\n      pop\n      jumpi(tag_2, lt(calldatasize, 0x04))\n      shr(0xe0, calldataload(0x00))\n      dup1\n      0x2b813bc0\n      eq\n      tag_3\n      jumpi\n      dup1\n      0xefcfe81a\n      eq\n      tag_4\n      jumpi\n    tag_2:\n      0x00\n      dup1\n      revert\n        /* \"error.sol\":399:470  function testAssert() public view {\r... */\n    tag_3:\n      tag_5\n      tag_6\n      jump\t// in\n    tag_5:\n      stop\n        /* \"error.sol\":478:529  function addNum() public {\r... */\n    tag_4:\n      tag_7\n      tag_8\n      jump\t// in\n    tag_7:\n      stop\n        /* \"error.sol\":399:470  function testAssert() public view {\r... */\n    tag_6:\n        /* \"error.sol\":458:461  123 */\n      0x7b\n        /* \"error.sol\":451:454  num */\n      sload(0x00)\n        /* \"error.sol\":451:461  num == 123 */\n      eq\n        /* \"error.sol\":444:462  assert(num == 123) */\n      tag_10\n      jumpi\n      tag_11\n      tag_12\n      jump\t// in\n    tag_11:\n    tag_10:\n        /* \"error.sol\":399:470  function testAssert() public view {\r... */\n      jump\t// out\n        /* \"error.sol\":478:529  function addNum() public {\r... */\n    tag_8:\n        /* \"error.sol\":520:521  1 */\n      0x01\n        /* \"error.sol\":514:517  num */\n      0x00\n      dup1\n        /* \"error.sol\":514:521  num +=1 */\n      dup3\n      dup3\n      sload\n      tag_14\n      swap2\n      swap1\n      tag_15\n      jump\t// in\n    tag_14:\n      swap3\n      pop\n      pop\n      dup2\n      swap1\n      sstore\n      pop\n        /* \"error.sol\":478:529  function addNum() public {\r... */\n      jump\t// out\n        /* \"#utility.yul\":7:312   */\n    tag_15:\n        /* \"#utility.yul\":47:50   */\n      0x00\n        /* \"#utility.yul\":66:86   */\n      tag_18\n        /* \"#utility.yul\":84:85   */\n      dup3\n        /* \"#utility.yul\":66:86   */\n      tag_19\n      jump\t// in\n    tag_18:\n        /* \"#utility.yul\":61:86   */\n      swap2\n      pop\n        /* \"#utility.yul\":100:120   */\n      tag_20\n        /* \"#utility.yul\":118:119   */\n      dup4\n        /* \"#utility.yul\":100:120   */\n      tag_19\n      jump\t// in\n    tag_20:\n        /* \"#utility.yul\":95:120   */\n      swap3\n      pop\n        /* \"#utility.yul\":254:255   */\n      dup3\n        /* \"#utility.yul\":186:252   */\n      0xffffffffffffffffffffffffffffffffffffffffffffffffffffffffffffffff\n        /* \"#utility.yul\":182:256   */\n      sub\n        /* \"#utility.yul\":179:180   */\n      dup3\n        /* \"#utility.yul\":176:257   */\n      gt\n        /* \"#utility.yul\":173:280   */\n      iszero\n      tag_21\n      jumpi\n        /* \"#utility.yul\":260:278   */\n      tag_22\n      tag_23\n      jump\t// in\n    tag_22:\n        /* \"#utility.yul\":173:280   */\n    tag_21:\n        /* \"#utility.yul\":304:305   */\n      dup3\n        /* \"#utility.yul\":301:302   */\n      dup3\n        /* \"#utility.yul\":297:306   */\n      add\n        /* \"#utility.yul\":290:306   */\n      swap1\n      pop\n        /* \"#utility.yul\":7:312   */\n      swap3\n      swap2\n      pop\n      pop\n      jump\t// out\n        /* \"#utility.yul\":318:395   */\n    tag_19:\n        /* \"#utility.yul\":355:362   */\n      0x00\n        /* \"#utility.yul\":384:389   */\n      dup2\n        /* \"#utility.yul\":373:389   */\n      swap1\n      pop\n        /* \"#utility.yul\":318:395   */\n      swap2\n      swap1\n      pop\n      jump\t// out\n        /* \"#utility.yul\":401:581   */\n    tag_12:\n        /* \"#utility.yul\":449:526   */\n      0x4e487b7100000000000000000000000000000000000000000000000000000000\n        /* \"#utility.yul\":446:447   */\n      0x00\n        /* \"#utility.yul\":439:527   */\n      mstore\n        /* \"#utility.yul\":546:550   */\n      0x01\n        /* \"#utility.yul\":543:544   */\n      0x04\n        /* \"#utility.yul\":536:551   */\n      mstore\n        /* \"#utility.yul\":570:574   */\n      0x24\n        /* \"#utility.yul\":567:568   */\n      0x00\n        /* \"#utility.yul\":560:575   */\n      revert\n        /* \"#utility.yul\":587:767   */\n    tag_23:\n        /* \"#utility.yul\":635:712   */\n      0x4e487b7100000000000000000000000000000000000000000000000000000000\n        /* \"#utility.yul\":632:633   */\n      0x00\n        /* \"#utility.yul\":625:713   */\n      mstore\n        /* \"#utility.yul\":732:736   */\n      0x11\n        /* \"#utility.yul\":729:730   */\n      0x04\n        /* \"#utility.yul\":722:737   */\n      mstore\n        /* \"#utility.yul\":756:760   */\n      0x24\n        /* \"#utility.yul\":753:754   */\n      0x00\n        /* \"#utility.yul\":746:761   */\n      revert\n\n    auxdata: 0xa2646970667358221220bb1f4d357afbb2d216f65cf918d66e2d520cd83672644e2db5dcf3b7089b50a764736f6c63430008070033\n}\n",
				"bytecode": {
					"linkReferences": {},
					"object": "6080604052607b60005534801561001557600080fd5b50610173806100256000396000f3fe608060405234801561001057600080fd5b50600436106100365760003560e01c80632b813bc01461003b578063efcfe81a14610045575b600080fd5b61004361004f565b005b61004d610064565b005b607b60005414610062576100616100df565b5b565b6001600080828254610076919061007f565b92505081905550565b600061008a826100d5565b9150610095836100d5565b9250827fffffffffffffffffffffffffffffffffffffffffffffffffffffffffffffffff038211156100ca576100c961010e565b5b828201905092915050565b6000819050919050565b7f4e487b7100000000000000000000000000000000000000000000000000000000600052600160045260246000fd5b7f4e487b7100000000000000000000000000000000000000000000000000000000600052601160045260246000fdfea2646970667358221220bb1f4d357afbb2d216f65cf918d66e2d520cd83672644e2db5dcf3b7089b50a764736f6c63430008070033",
					"opcodes": "PUSH1 0x80 PUSH1 0x40 MSTORE PUSH1 0x7B PUSH1 0x0 SSTORE CALLVALUE DUP1 ISZERO PUSH2 0x15 JUMPI PUSH1 0x0 DUP1 REVERT JUMPDEST POP PUSH2 0x173 DUP1 PUSH2 0x25 PUSH1 0x0 CODECOPY PUSH1 0x0 RETURN INVALID PUSH1 0x80 PUSH1 0x40 MSTORE CALLVALUE DUP1 ISZERO PUSH2 0x10 JUMPI PUSH1 0x0 DUP1 REVERT JUMPDEST POP PUSH1 0x4 CALLDATASIZE LT PUSH2 0x36 JUMPI PUSH1 0x0 CALLDATALOAD PUSH1 0xE0 SHR DUP1 PUSH4 0x2B813BC0 EQ PUSH2 0x3B JUMPI DUP1 PUSH4 0xEFCFE81A EQ PUSH2 0x45 JUMPI JUMPDEST PUSH1 0x0 DUP1 REVERT JUMPDEST PUSH2 0x43 PUSH2 0x4F JUMP JUMPDEST STOP JUMPDEST PUSH2 0x4D PUSH2 0x64 JUMP JUMPDEST STOP JUMPDEST PUSH1 0x7B PUSH1 0x0 SLOAD EQ PUSH2 0x62 JUMPI PUSH2 0x61 PUSH2 0xDF JUMP JUMPDEST JUMPDEST JUMP JUMPDEST PUSH1 0x1 PUSH1 0x0 DUP1 DUP3 DUP3 SLOAD PUSH2 0x76 SWAP2 SWAP1 PUSH2 0x7F JUMP JUMPDEST SWAP3 POP POP DUP2 SWAP1 SSTORE POP JUMP JUMPDEST PUSH1 0x0 PUSH2 0x8A DUP3 PUSH2 0xD5 JUMP JUMPDEST SWAP2 POP PUSH2 0x95 DUP4 PUSH2 0xD5 JUMP JUMPDEST SWAP3 POP DUP3 PUSH32 0xFFFFFFFFFFFFFFFFFFFFFFFFFFFFFFFFFFFFFFFFFFFFFFFFFFFFFFFFFFFFFFFF SUB DUP3 GT ISZERO PUSH2 0xCA JUMPI PUSH2 0xC9 PUSH2 0x10E JUMP JUMPDEST JUMPDEST DUP3 DUP3 ADD SWAP1 POP SWAP3 SWAP2 POP POP JUMP JUMPDEST PUSH1 0x0 DUP2 SWAP1 POP SWAP2 SWAP1 POP JUMP JUMPDEST PUSH32 0x4E487B7100000000000000000000000000000000000000000000000000000000 PUSH1 0x0 MSTORE PUSH1 0x1 PUSH1 0x4 MSTORE PUSH1 0x24 PUSH1 0x0 REVERT JUMPDEST PUSH32 0x4E487B7100000000000000000000000000000000000000000000000000000000 PUSH1 0x0 MSTORE PUSH1 0x11 PUSH1 0x4 MSTORE PUSH1 0x24 PUSH1 0x0 REVERT INVALID LOG2 PUSH5 0x6970667358 0x22 SLT KECCAK256 0xBB 0x1F 0x4D CALLDATALOAD PUSH27 0xFBB2D216F65CF918D66E2D520CD83672644E2DB5DCF3B7089B50A7 PUSH5 0x736F6C6343 STOP ADDMOD SMOD STOP CALLER "
				},
				"gasEstimates": {
					"creation": {
						"codeDepositCost": "74200",
						"executionCost": "22229",
						"totalCost": "96429"
					},
					"external": {
						"addNum()": "infinite",
						"testAssert()": "2274"
					}
				},
				"methodIdentifiers": {
					"addNum()": "efcfe81a",
					"testAssert()": "2b813bc0"
				}
			},
			"storageLayout": {
				"storage": [
					{
						"astId": 4,
						"contract": "error.sol:ErrorTest",
						"label": "num",
						"offset": 0,
						"slot": "0",
						"type": "t_uint256"
					}
				],
				"types": {
					"t_uint256": {
						"encoding": "inplace",
						"label": "uint256",
						"numberOfBytes": "32"
					}
				}
			},
			"userdoc": {
				"kind": "user",
				"methods": {},
				"version": 1
			}
		}
	}
}