{
	"safeMath.sol": {
		"SafeMath": {
			"abi": [
				{
					"inputs": [],
					"name": "test1",
					"outputs": [
						{
							"internalType": "uint256",
							"name": "",
							"type": "uint256"
						}
					],
					"stateMutability": "pure",
					"type": "function"
				},
				{
					"inputs": [],
					"name": "test2",
					"outputs": [
						{
							"internalType": "uint256",
							"name": "",
							"type": "uint256"
						}
					],
					"stateMutability": "pure",
					"type": "function"
				},
				{
					"inputs": [],
					"name": "test3",
					"outputs": [
						{
							"internalType": "address",
							"name": "",
							"type": "address"
						},
						{
							"internalType": "address",
							"name": "",
							"type": "address"
						}
					],
					"stateMutability": "view",
					"type": "function"
				}
			],
			"devdoc": {
				"kind": "dev",
				"methods": {},
				"version": 1
			},
			"evm": {
				"assembly": "    /* \"safeMath.sol\":61:511  contract SafeMath {\r... */\n  mstore(0x40, 0x80)\n    /* \"safeMath.sol\":358:368  msg.sender */\n  caller\n    /* \"safeMath.sol\":326:369  address payable owner = payable(msg.sender) */\n  0x00\n  dup1\n  0x0100\n  exp\n  dup2\n  sload\n  dup2\n  0xffffffffffffffffffffffffffffffffffffffff\n  mul\n  not\n  and\n  swap1\n  dup4\n  0xffffffffffffffffffffffffffffffffffffffff\n  and\n  mul\n  or\n  swap1\n  sstore\n  pop\n    /* \"safeMath.sol\":61:511  contract SafeMath {\r... */\n  callvalue\n  dup1\n  iszero\n  tag_1\n  jumpi\n  0x00\n  dup1\n  revert\ntag_1:\n  pop\n  dataSize(sub_0)\n  dup1\n  dataOffset(sub_0)\n  0x00\n  codecopy\n  0x00\n  return\nstop\n\nsub_0: assembly {\n        /* \"safeMath.sol\":61:511  contract SafeMath {\r... */\n      mstore(0x40, 0x80)\n      callvalue\n      dup1\n      iszero\n      tag_1\n      jumpi\n      0x00\n      dup1\n      revert\n    tag_1:\n      pop\n      jumpi(tag_2, lt(calldatasize, 0x04))\n      shr(0xe0, calldataload(0x00))\n      dup1\n      0x0a8e8e01\n      eq\n      tag_3\n      jumpi\n      dup1\n      0x66e41cb7\n      eq\n      tag_4\n      jumpi\n      dup1\n      0x6b59084d\n      eq\n      tag_5\n      jumpi\n    tag_2:\n      0x00\n      dup1\n      revert\n        /* \"safeMath.sol\":378:508  function test3 () public view returns (address,address){\r... */\n    tag_3:\n      tag_6\n      tag_7\n      jump\t// in\n    tag_6:\n      mload(0x40)\n      tag_8\n      swap3\n      swap2\n      swap1\n      tag_9\n      jump\t// in\n    tag_8:\n      mload(0x40)\n      dup1\n      swap2\n      sub\n      swap1\n      return\n        /* \"safeMath.sol\":199:318  function test2() public pure returns (uint){\r... */\n    tag_4:\n      tag_10\n      tag_11\n      jump\t// in\n    tag_10:\n      mload(0x40)\n      tag_12\n      swap2\n      swap1\n      tag_13\n      jump\t// in\n    tag_12:\n      mload(0x40)\n      dup1\n      swap2\n      sub\n      swap1\n      return\n        /* \"safeMath.sol\":86:191  function test1() public pure returns (uint){\r... */\n    tag_5:\n      tag_14\n      tag_15\n      jump\t// in\n    tag_14:\n      mload(0x40)\n      tag_16\n      swap2\n      swap1\n      tag_13\n      jump\t// in\n    tag_16:\n      mload(0x40)\n      dup1\n      swap2\n      sub\n      swap1\n      return\n        /* \"safeMath.sol\":378:508  function test3 () public view returns (address,address){\r... */\n    tag_7:\n        /* \"safeMath.sol\":417:424  address */\n      0x00\n        /* \"safeMath.sol\":425:432  address */\n      dup1\n        /* \"safeMath.sol\":452:457  owner */\n      0x00\n      dup1\n      sload\n      swap1\n      0x0100\n      exp\n      swap1\n      div\n      0xffffffffffffffffffffffffffffffffffffffff\n      and\n        /* \"safeMath.sol\":458:468  msg.sender */\n      caller\n        /* \"safeMath.sol\":444:469  return (owner,msg.sender) */\n      swap2\n      pop\n      swap2\n      pop\n        /* \"safeMath.sol\":378:508  function test3 () public view returns (address,address){\r... */\n      swap1\n      swap2\n      jump\t// out\n        /* \"safeMath.sol\":199:318  function test2() public pure returns (uint){\r... */\n    tag_11:\n        /* \"safeMath.sol\":237:241  uint */\n      0x00\n        /* \"safeMath.sol\":253:259  uint x */\n      dup1\n        /* \"safeMath.sol\":262:263  0 */\n      0x00\n        /* \"safeMath.sol\":253:263  uint x = 0 */\n      swap1\n      pop\n        /* \"safeMath.sol\":286:289  x-- */\n      dup1\n      dup1\n      0x01\n      swap1\n      sub\n      swap2\n      pop\n      pop\n        /* \"safeMath.sol\":309:310  x */\n      dup1\n        /* \"safeMath.sol\":302:310  return x */\n      swap2\n      pop\n      pop\n        /* \"safeMath.sol\":199:318  function test2() public pure returns (uint){\r... */\n      swap1\n      jump\t// out\n        /* \"safeMath.sol\":86:191  function test1() public pure returns (uint){\r... */\n    tag_15:\n        /* \"safeMath.sol\":124:128  uint */\n      0x00\n        /* \"safeMath.sol\":140:146  uint x */\n      dup1\n        /* \"safeMath.sol\":149:150  0 */\n      0x00\n        /* \"safeMath.sol\":140:150  uint x = 0 */\n      swap1\n      pop\n        /* \"safeMath.sol\":161:164  x-- */\n      dup1\n      dup1\n      tag_20\n      swap1\n      tag_21\n      jump\t// in\n    tag_20:\n      swap2\n      pop\n      pop\n        /* \"safeMath.sol\":182:183  x */\n      dup1\n        /* \"safeMath.sol\":175:183  return x */\n      swap2\n      pop\n      pop\n        /* \"safeMath.sol\":86:191  function test1() public pure returns (uint){\r... */\n      swap1\n      jump\t// out\n        /* \"#utility.yul\":7:125   */\n    tag_23:\n        /* \"#utility.yul\":94:118   */\n      tag_25\n        /* \"#utility.yul\":112:117   */\n      dup2\n        /* \"#utility.yul\":94:118   */\n      tag_26\n      jump\t// in\n    tag_25:\n        /* \"#utility.yul\":89:92   */\n      dup3\n        /* \"#utility.yul\":82:119   */\n      mstore\n        /* \"#utility.yul\":7:125   */\n      pop\n      pop\n      jump\t// out\n        /* \"#utility.yul\":131:249   */\n    tag_27:\n        /* \"#utility.yul\":218:242   */\n      tag_29\n        /* \"#utility.yul\":236:241   */\n      dup2\n        /* \"#utility.yul\":218:242   */\n      tag_30\n      jump\t// in\n    tag_29:\n        /* \"#utility.yul\":213:216   */\n      dup3\n        /* \"#utility.yul\":206:243   */\n      mstore\n        /* \"#utility.yul\":131:249   */\n      pop\n      pop\n      jump\t// out\n        /* \"#utility.yul\":255:587   */\n    tag_9:\n        /* \"#utility.yul\":376:380   */\n      0x00\n        /* \"#utility.yul\":414:416   */\n      0x40\n        /* \"#utility.yul\":403:412   */\n      dup3\n        /* \"#utility.yul\":399:417   */\n      add\n        /* \"#utility.yul\":391:417   */\n      swap1\n      pop\n        /* \"#utility.yul\":427:498   */\n      tag_32\n        /* \"#utility.yul\":495:496   */\n      0x00\n        /* \"#utility.yul\":484:493   */\n      dup4\n        /* \"#utility.yul\":480:497   */\n      add\n        /* \"#utility.yul\":471:477   */\n      dup6\n        /* \"#utility.yul\":427:498   */\n      tag_23\n      jump\t// in\n    tag_32:\n        /* \"#utility.yul\":508:580   */\n      tag_33\n        /* \"#utility.yul\":576:578   */\n      0x20\n        /* \"#utility.yul\":565:574   */\n      dup4\n        /* \"#utility.yul\":561:579   */\n      add\n        /* \"#utility.yul\":552:558   */\n      dup5\n        /* \"#utility.yul\":508:580   */\n      tag_23\n      jump\t// in\n    tag_33:\n        /* \"#utility.yul\":255:587   */\n      swap4\n      swap3\n      pop\n      pop\n      pop\n      jump\t// out\n        /* \"#utility.yul\":593:815   */\n    tag_13:\n        /* \"#utility.yul\":686:690   */\n      0x00\n        /* \"#utility.yul\":724:726   */\n      0x20\n        /* \"#utility.yul\":713:722   */\n      dup3\n        /* \"#utility.yul\":709:727   */\n      add\n        /* \"#utility.yul\":701:727   */\n      swap1\n      pop\n        /* \"#utility.yul\":737:808   */\n      tag_35\n        /* \"#utility.yul\":805:806   */\n      0x00\n        /* \"#utility.yul\":794:803   */\n      dup4\n        /* \"#utility.yul\":790:807   */\n      add\n        /* \"#utility.yul\":781:787   */\n      dup5\n        /* \"#utility.yul\":737:808   */\n      tag_27\n      jump\t// in\n    tag_35:\n        /* \"#utility.yul\":593:815   */\n      swap3\n      swap2\n      pop\n      pop\n      jump\t// out\n        /* \"#utility.yul\":821:917   */\n    tag_26:\n        /* \"#utility.yul\":858:865   */\n      0x00\n        /* \"#utility.yul\":887:911   */\n      tag_37\n        /* \"#utility.yul\":905:910   */\n      dup3\n        /* \"#utility.yul\":887:911   */\n      tag_38\n      jump\t// in\n    tag_37:\n        /* \"#utility.yul\":876:911   */\n      swap1\n      pop\n        /* \"#utility.yul\":821:917   */\n      swap2\n      swap1\n      pop\n      jump\t// out\n        /* \"#utility.yul\":923:1049   */\n    tag_38:\n        /* \"#utility.yul\":960:967   */\n      0x00\n        /* \"#utility.yul\":1000:1042   */\n      0xffffffffffffffffffffffffffffffffffffffff\n        /* \"#utility.yul\":993:998   */\n      dup3\n        /* \"#utility.yul\":989:1043   */\n      and\n        /* \"#utility.yul\":978:1043   */\n      swap1\n      pop\n        /* \"#utility.yul\":923:1049   */\n      swap2\n      swap1\n      pop\n      jump\t// out\n        /* \"#utility.yul\":1055:1132   */\n    tag_30:\n        /* \"#utility.yul\":1092:1099   */\n      0x00\n        /* \"#utility.yul\":1121:1126   */\n      dup2\n        /* \"#utility.yul\":1110:1126   */\n      swap1\n      pop\n        /* \"#utility.yul\":1055:1132   */\n      swap2\n      swap1\n      pop\n      jump\t// out\n        /* \"#utility.yul\":1138:1309   */\n    tag_21:\n        /* \"#utility.yul\":1177:1180   */\n      0x00\n        /* \"#utility.yul\":1200:1224   */\n      tag_42\n        /* \"#utility.yul\":1218:1223   */\n      dup3\n        /* \"#utility.yul\":1200:1224   */\n      tag_30\n      jump\t// in\n    tag_42:\n        /* \"#utility.yul\":1191:1224   */\n      swap2\n      pop\n        /* \"#utility.yul\":1246:1250   */\n      0x00\n        /* \"#utility.yul\":1239:1244   */\n      dup3\n        /* \"#utility.yul\":1236:1251   */\n      eq\n        /* \"#utility.yul\":1233:1274   */\n      iszero\n      tag_43\n      jumpi\n        /* \"#utility.yul\":1254:1272   */\n      tag_44\n      tag_45\n      jump\t// in\n    tag_44:\n        /* \"#utility.yul\":1233:1274   */\n    tag_43:\n        /* \"#utility.yul\":1301:1302   */\n      0x01\n        /* \"#utility.yul\":1294:1299   */\n      dup3\n        /* \"#utility.yul\":1290:1303   */\n      sub\n        /* \"#utility.yul\":1283:1303   */\n      swap1\n      pop\n        /* \"#utility.yul\":1138:1309   */\n      swap2\n      swap1\n      pop\n      jump\t// out\n        /* \"#utility.yul\":1315:1495   */\n    tag_45:\n        /* \"#utility.yul\":1363:1440   */\n      0x4e487b7100000000000000000000000000000000000000000000000000000000\n        /* \"#utility.yul\":1360:1361   */\n      0x00\n        /* \"#utility.yul\":1353:1441   */\n      mstore\n        /* \"#utility.yul\":1460:1464   */\n      0x11\n        /* \"#utility.yul\":1457:1458   */\n      0x04\n        /* \"#utility.yul\":1450:1465   */\n      mstore\n        /* \"#utility.yul\":1484:1488   */\n      0x24\n        /* \"#utility.yul\":1481:1482   */\n      0x00\n        /* \"#utility.yul\":1474:1489   */\n      revert\n\n    auxdata: 0xa264697066735822122037801843bf03a2d664af44f34d38f94c966804bfc1d600ec56a417b3f7e55f9e64736f6c63430008070033\n}\n",
				"bytecode": {
					"linkReferences": {},
					"object": "6080604052336000806101000a81548173ffffffffffffffffffffffffffffffffffffffff021916908373ffffffffffffffffffffffffffffffffffffffff16021790555034801561005057600080fd5b5061022e806100606000396000f3fe608060405234801561001057600080fd5b50600436106100415760003560e01c80630a8e8e011461004657806366e41cb7146100655780636b59084d14610083575b600080fd5b61004e6100a1565b60405161005c92919061011f565b60405180910390f35b61006d6100ce565b60405161007a9190610148565b60405180910390f35b61008b6100e5565b6040516100989190610148565b60405180910390f35b60008060008054906101000a900473ffffffffffffffffffffffffffffffffffffffff1633915091509091565b600080600090508080600190039150508091505090565b6000806000905080806100f79061019f565b9150508091505090565b61010a81610163565b82525050565b61011981610195565b82525050565b60006040820190506101346000830185610101565b6101416020830184610101565b9392505050565b600060208201905061015d6000830184610110565b92915050565b600061016e82610175565b9050919050565b600073ffffffffffffffffffffffffffffffffffffffff82169050919050565b6000819050919050565b60006101aa82610195565b915060008214156101be576101bd6101c9565b5b600182039050919050565b7f4e487b7100000000000000000000000000000000000000000000000000000000600052601160045260246000fdfea264697066735822122037801843bf03a2d664af44f34d38f94c966804bfc1d600ec56a417b3f7e55f9e64736f6c63430008070033",
					"opcodes": "PUSH1 0x80 PUSH1 0x40 MSTORE CALLER PUSH1 0x0 DUP1 PUSH2 0x100 EXP DUP2 SLOAD DUP2 PUSH20 0xFFFFFFFFFFFFFFFFFFFFFFFFFFFFFFFFFFFFFFFF MUL NOT AND SWAP1 DUP4 PUSH20 0xFFFFFFFFFFFFFFFFFFFFFFFFFFFFFFFFFFFFFFFF AND MUL OR SWAP1 SSTORE POP CALLVALUE DUP1 ISZERO PUSH2 0x50 JUMPI PUSH1 0x0 DUP1 REVERT JUMPDEST POP PUSH2 0x22E DUP1 PUSH2 0x60 PUSH1 0x0 CODECOPY PUSH1 0x0 RETURN INVALID PUSH1 0x80 PUSH1 0x40 MSTORE CALLVALUE DUP1 ISZERO PUSH2 0x10 JUMPI PUSH1 0x0 DUP1 REVERT JUMPDEST POP PUSH1 0x4 CALLDATASIZE LT PUSH2 0x41 JUMPI PUSH1 0x0 CALLDATALOAD PUSH1 0xE0 SHR DUP1 PUSH4 0xA8E8E01 EQ PUSH2 0x46 JUMPI DUP1 PUSH4 0x66E41CB7 EQ PUSH2 0x65 JUMPI DUP1 PUSH4 0x6B59084D EQ PUSH2 0x83 JUMPI JUMPDEST PUSH1 0x0 DUP1 REVERT JUMPDEST PUSH2 0x4E PUSH2 0xA1 JUMP JUMPDEST PUSH1 0x40 MLOAD PUSH2 0x5C SWAP3 SWAP2 SWAP1 PUSH2 0x11F JUMP JUMPDEST PUSH1 0x40 MLOAD DUP1 SWAP2 SUB SWAP1 RETURN JUMPDEST PUSH2 0x6D PUSH2 0xCE JUMP JUMPDEST PUSH1 0x40 MLOAD PUSH2 0x7A SWAP2 SWAP1 PUSH2 0x148 JUMP JUMPDEST PUSH1 0x40 MLOAD DUP1 SWAP2 SUB SWAP1 RETURN JUMPDEST PUSH2 0x8B PUSH2 0xE5 JUMP JUMPDEST PUSH1 0x40 MLOAD PUSH2 0x98 SWAP2 SWAP1 PUSH2 0x148 JUMP JUMPDEST PUSH1 0x40 MLOAD DUP1 SWAP2 SUB SWAP1 RETURN JUMPDEST PUSH1 0x0 DUP1 PUSH1 0x0 DUP1 SLOAD SWAP1 PUSH2 0x100 EXP SWAP1 DIV PUSH20 0xFFFFFFFFFFFFFFFFFFFFFFFFFFFFFFFFFFFFFFFF AND CALLER SWAP2 POP SWAP2 POP SWAP1 SWAP2 JUMP JUMPDEST PUSH1 0x0 DUP1 PUSH1 0x0 SWAP1 POP DUP1 DUP1 PUSH1 0x1 SWAP1 SUB SWAP2 POP POP DUP1 SWAP2 POP POP SWAP1 JUMP JUMPDEST PUSH1 0x0 DUP1 PUSH1 0x0 SWAP1 POP DUP1 DUP1 PUSH2 0xF7 SWAP1 PUSH2 0x19F JUMP JUMPDEST SWAP2 POP POP DUP1 SWAP2 POP POP SWAP1 JUMP JUMPDEST PUSH2 0x10A DUP2 PUSH2 0x163 JUMP JUMPDEST DUP3 MSTORE POP POP JUMP JUMPDEST PUSH2 0x119 DUP2 PUSH2 0x195 JUMP JUMPDEST DUP3 MSTORE POP POP JUMP JUMPDEST PUSH1 0x0 PUSH1 0x40 DUP3 ADD SWAP1 POP PUSH2 0x134 PUSH1 0x0 DUP4 ADD DUP6 PUSH2 0x101 JUMP JUMPDEST PUSH2 0x141 PUSH1 0x20 DUP4 ADD DUP5 PUSH2 0x101 JUMP JUMPDEST SWAP4 SWAP3 POP POP POP JUMP JUMPDEST PUSH1 0x0 PUSH1 0x20 DUP3 ADD SWAP1 POP PUSH2 0x15D PUSH1 0x0 DUP4 ADD DUP5 PUSH2 0x110 JUMP JUMPDEST SWAP3 SWAP2 POP POP JUMP JUMPDEST PUSH1 0x0 PUSH2 0x16E DUP3 PUSH2 0x175 JUMP JUMPDEST SWAP1 POP SWAP2 SWAP1 POP JUMP JUMPDEST PUSH1 0x0 PUSH20 0xFFFFFFFFFFFFFFFFFFFFFFFFFFFFFFFFFFFFFFFF DUP3 AND SWAP1 POP SWAP2 SWAP1 POP JUMP JUMPDEST PUSH1 0x0 DUP2 SWAP1 POP SWAP2 SWAP1 POP JUMP JUMPDEST PUSH1 0x0 PUSH2 0x1AA DUP3 PUSH2 0x195 JUMP JUMPDEST SWAP2 POP PUSH1 0x0 DUP3 EQ ISZERO PUSH2 0x1BE JUMPI PUSH2 0x1BD PUSH2 0x1C9 JUMP JUMPDEST JUMPDEST PUSH1 0x1 DUP3 SUB SWAP1 POP SWAP2 SWAP1 POP JUMP JUMPDEST PUSH32 0x4E487B7100000000000000000000000000000000000000000000000000000000 PUSH1 0x0 MSTORE PUSH1 0x11 PUSH1 0x4 MSTORE PUSH1 0x24 PUSH1 0x0 REVERT INVALID LOG2 PUSH5 0x6970667358 0x22 SLT KECCAK256 CALLDATACOPY DUP1 XOR NUMBER 0xBF SUB LOG2 0xD6 PUSH5 0xAF44F34D38 0xF9 0x4C SWAP7 PUSH9 0x4BFC1D600EC56A417 0xB3 0xF7 0xE5 0x5F SWAP15 PUSH5 0x736F6C6343 STOP ADDMOD SMOD STOP CALLER "
				},
				"gasEstimates": {
					"creation": {
						"codeDepositCost": "111600",
						"executionCost": "24425",
						"totalCost": "136025"
					},
					"external": {
						"test1()": "313",
						"test2()": "372",
						"test3()": "infinite"
					}
				},
				"methodIdentifiers": {
					"test1()": "6b59084d",
					"test2()": "66e41cb7",
					"test3()": "0a8e8e01"
				}
			},
			"storageLayout": {
				"storage": [
					{
						"astId": 39,
						"contract": "safeMath.sol:SafeMath",
						"label": "owner",
						"offset": 0,
						"slot": "0",
						"type": "t_address_payable"
					}
				],
				"types": {
					"t_address_payable": {
						"encoding": "inplace",
						"label": "address payable",
						"numberOfBytes": "20"
					}
				}
			},
			"userdoc": {
				"kind": "user",
				"methods": {},
				"version": 1
			}
		}
	}
}