{
	"array2.sol": {
		"ArrayTest": {
			"abi": [
				{
					"inputs": [
						{
							"internalType": "string",
							"name": "_name",
							"type": "string"
						},
						{
							"internalType": "uint256",
							"name": "_age",
							"type": "uint256"
						},
						{
							"internalType": "uint256",
							"name": "_gender",
							"type": "uint256"
						}
					],
					"name": "add",
					"outputs": [],
					"stateMutability": "nonpayable",
					"type": "function"
				},
				{
					"inputs": [],
					"name": "getAllUser",
					"outputs": [
						{
							"components": [
								{
									"internalType": "string",
									"name": "name",
									"type": "string"
								},
								{
									"internalType": "uint256",
									"name": "age",
									"type": "uint256"
								},
								{
									"internalType": "uint256",
									"name": "gender",
									"type": "uint256"
								}
							],
							"internalType": "struct ArrayTest.User[]",
							"name": "",
							"type": "tuple[]"
						}
					],
					"stateMutability": "view",
					"type": "function"
				}
			],
			"devdoc": {
				"kind": "dev",
				"methods": {},
				"version": 1
			},
			"evm": {
				"assembly": "    /* \"array2.sol\":152:596  contract ArrayTest {... */\n  mstore(0x40, 0x80)\n  callvalue\n  dup1\n  iszero\n  tag_1\n  jumpi\n  0x00\n  dup1\n  revert\ntag_1:\n  pop\n  dataSize(sub_0)\n  dup1\n  dataOffset(sub_0)\n  0x00\n  codecopy\n  0x00\n  return\nstop\n\nsub_0: assembly {\n        /* \"array2.sol\":152:596  contract ArrayTest {... */\n      mstore(0x40, 0x80)\n      callvalue\n      dup1\n      iszero\n      tag_1\n      jumpi\n      0x00\n      dup1\n      revert\n    tag_1:\n      pop\n      jumpi(tag_2, lt(calldatasize, 0x04))\n      shr(0xe0, calldataload(0x00))\n      dup1\n      0x47531df8\n      eq\n      tag_3\n      jumpi\n      dup1\n      0xc8616da5\n      eq\n      tag_4\n      jumpi\n    tag_2:\n      0x00\n      dup1\n      revert\n        /* \"array2.sol\":467:593  function getAllUser() public view returns (User[] memory) {... */\n    tag_3:\n      tag_5\n      tag_6\n      jump\t// in\n    tag_5:\n      mload(0x40)\n      tag_7\n      swap2\n      swap1\n      tag_8\n      jump\t// in\n    tag_7:\n      mload(0x40)\n      dup1\n      swap2\n      sub\n      swap1\n      return\n        /* \"array2.sol\":323:459  function add(string memory _name,uint _age,uint _gender) public {... */\n    tag_4:\n      tag_9\n      0x04\n      dup1\n      calldatasize\n      sub\n      dup2\n      add\n      swap1\n      tag_10\n      swap2\n      swap1\n      tag_11\n      jump\t// in\n    tag_10:\n      tag_12\n      jump\t// in\n    tag_9:\n      stop\n        /* \"array2.sol\":467:593  function getAllUser() public view returns (User[] memory) {... */\n    tag_6:\n        /* \"array2.sol\":510:523  User[] memory */\n      0x60\n        /* \"array2.sol\":581:585  list */\n      0x00\n        /* \"array2.sol\":574:585  return list */\n      dup1\n      sload\n      dup1\n      0x20\n      mul\n      0x20\n      add\n      mload(0x40)\n      swap1\n      dup2\n      add\n      0x40\n      mstore\n      dup1\n      swap3\n      swap2\n      swap1\n      dup2\n      dup2\n      mstore\n      0x20\n      add\n      0x00\n      swap1\n    tag_14:\n      dup3\n      dup3\n      lt\n      iszero\n      tag_15\n      jumpi\n      dup4\n      dup3\n      swap1\n      0x00\n      mstore\n      keccak256(0x00, 0x20)\n      swap1\n      0x03\n      mul\n      add\n      mload(0x40)\n      dup1\n      0x60\n      add\n      0x40\n      mstore\n      swap1\n      dup2\n      0x00\n      dup3\n      add\n      dup1\n      sload\n      tag_17\n      swap1\n      tag_18\n      jump\t// in\n    tag_17:\n      dup1\n      0x1f\n      add\n      0x20\n      dup1\n      swap2\n      div\n      mul\n      0x20\n      add\n      mload(0x40)\n      swap1\n      dup2\n      add\n      0x40\n      mstore\n      dup1\n      swap3\n      swap2\n      swap1\n      dup2\n      dup2\n      mstore\n      0x20\n      add\n      dup3\n      dup1\n      sload\n      tag_19\n      swap1\n      tag_18\n      jump\t// in\n    tag_19:\n      dup1\n      iszero\n      tag_20\n      jumpi\n      dup1\n      0x1f\n      lt\n      tag_21\n      jumpi\n      0x0100\n      dup1\n      dup4\n      sload\n      div\n      mul\n      dup4\n      mstore\n      swap2\n      0x20\n      add\n      swap2\n      jump(tag_20)\n    tag_21:\n      dup3\n      add\n      swap2\n      swap1\n      0x00\n      mstore\n      keccak256(0x00, 0x20)\n      swap1\n    tag_22:\n      dup2\n      sload\n      dup2\n      mstore\n      swap1\n      0x01\n      add\n      swap1\n      0x20\n      add\n      dup1\n      dup4\n      gt\n      tag_22\n      jumpi\n      dup3\n      swap1\n      sub\n      0x1f\n      and\n      dup3\n      add\n      swap2\n    tag_20:\n      pop\n      pop\n      pop\n      pop\n      pop\n      dup2\n      mstore\n      0x20\n      add\n      0x01\n      dup3\n      add\n      sload\n      dup2\n      mstore\n      0x20\n      add\n      0x02\n      dup3\n      add\n      sload\n      dup2\n      mstore\n      pop\n      pop\n      dup2\n      mstore\n      0x20\n      add\n      swap1\n      0x01\n      add\n      swap1\n      jump(tag_14)\n    tag_15:\n      pop\n      pop\n      pop\n      pop\n      swap1\n      pop\n        /* \"array2.sol\":467:593  function getAllUser() public view returns (User[] memory) {... */\n      swap1\n      jump\t// out\n        /* \"array2.sol\":323:459  function add(string memory _name,uint _age,uint _gender) public {... */\n    tag_12:\n        /* \"array2.sol\":398:402  list */\n      0x00\n        /* \"array2.sol\":408:450  User({name:_name,age:_age,gender:_gender}) */\n      mload(0x40)\n      dup1\n      0x60\n      add\n      0x40\n      mstore\n      dup1\n        /* \"array2.sol\":419:424  _name */\n      dup6\n        /* \"array2.sol\":408:450  User({name:_name,age:_age,gender:_gender}) */\n      dup2\n      mstore\n      0x20\n      add\n        /* \"array2.sol\":429:433  _age */\n      dup5\n        /* \"array2.sol\":408:450  User({name:_name,age:_age,gender:_gender}) */\n      dup2\n      mstore\n      0x20\n      add\n        /* \"array2.sol\":441:448  _gender */\n      dup4\n        /* \"array2.sol\":408:450  User({name:_name,age:_age,gender:_gender}) */\n      dup2\n      mstore\n      pop\n        /* \"array2.sol\":398:451  list.push(User({name:_name,age:_age,gender:_gender})) */\n      swap1\n      dup1\n      0x01\n      dup2\n      sload\n      add\n      dup1\n      dup3\n      sstore\n      dup1\n      swap2\n      pop\n      pop\n      0x01\n      swap1\n      sub\n      swap1\n      0x00\n      mstore\n      keccak256(0x00, 0x20)\n      swap1\n      0x03\n      mul\n      add\n      0x00\n      swap1\n      swap2\n      swap1\n      swap2\n      swap1\n      swap2\n      pop\n      0x00\n      dup3\n      add\n      mload\n      dup2\n      0x00\n      add\n      swap1\n      dup2\n      tag_25\n      swap2\n      swap1\n      tag_26\n      jump\t// in\n    tag_25:\n      pop\n      0x20\n      dup3\n      add\n      mload\n      dup2\n      0x01\n      add\n      sstore\n      0x40\n      dup3\n      add\n      mload\n      dup2\n      0x02\n      add\n      sstore\n      pop\n      pop\n        /* \"array2.sol\":323:459  function add(string memory _name,uint _age,uint _gender) public {... */\n      pop\n      pop\n      pop\n      jump\t// out\n        /* \"#utility.yul\":7:140   */\n    tag_27:\n        /* \"#utility.yul\":93:99   */\n      0x00\n        /* \"#utility.yul\":127:132   */\n      dup2\n        /* \"#utility.yul\":121:133   */\n      mload\n        /* \"#utility.yul\":111:133   */\n      swap1\n      pop\n        /* \"#utility.yul\":7:140   */\n      swap2\n      swap1\n      pop\n      jump\t// out\n        /* \"#utility.yul\":146:349   */\n    tag_28:\n        /* \"#utility.yul\":264:275   */\n      0x00\n        /* \"#utility.yul\":298:304   */\n      dup3\n        /* \"#utility.yul\":293:296   */\n      dup3\n        /* \"#utility.yul\":286:305   */\n      mstore\n        /* \"#utility.yul\":338:342   */\n      0x20\n        /* \"#utility.yul\":333:336   */\n      dup3\n        /* \"#utility.yul\":329:343   */\n      add\n        /* \"#utility.yul\":314:343   */\n      swap1\n      pop\n        /* \"#utility.yul\":146:349   */\n      swap3\n      swap2\n      pop\n      pop\n      jump\t// out\n        /* \"#utility.yul\":355:506   */\n    tag_29:\n        /* \"#utility.yul\":441:445   */\n      0x00\n        /* \"#utility.yul\":464:467   */\n      dup2\n        /* \"#utility.yul\":456:467   */\n      swap1\n      pop\n        /* \"#utility.yul\":494:498   */\n      0x20\n        /* \"#utility.yul\":489:492   */\n      dup3\n        /* \"#utility.yul\":485:499   */\n      add\n        /* \"#utility.yul\":477:499   */\n      swap1\n      pop\n        /* \"#utility.yul\":355:506   */\n      swap2\n      swap1\n      pop\n      jump\t// out\n        /* \"#utility.yul\":512:611   */\n    tag_30:\n        /* \"#utility.yul\":564:570   */\n      0x00\n        /* \"#utility.yul\":598:603   */\n      dup2\n        /* \"#utility.yul\":592:604   */\n      mload\n        /* \"#utility.yul\":582:604   */\n      swap1\n      pop\n        /* \"#utility.yul\":512:611   */\n      swap2\n      swap1\n      pop\n      jump\t// out\n        /* \"#utility.yul\":617:776   */\n    tag_31:\n        /* \"#utility.yul\":691:702   */\n      0x00\n        /* \"#utility.yul\":725:731   */\n      dup3\n        /* \"#utility.yul\":720:723   */\n      dup3\n        /* \"#utility.yul\":713:732   */\n      mstore\n        /* \"#utility.yul\":765:769   */\n      0x20\n        /* \"#utility.yul\":760:763   */\n      dup3\n        /* \"#utility.yul\":756:770   */\n      add\n        /* \"#utility.yul\":741:770   */\n      swap1\n      pop\n        /* \"#utility.yul\":617:776   */\n      swap3\n      swap2\n      pop\n      pop\n      jump\t// out\n        /* \"#utility.yul\":782:1089   */\n    tag_32:\n        /* \"#utility.yul\":850:851   */\n      0x00\n        /* \"#utility.yul\":860:973   */\n    tag_78:\n        /* \"#utility.yul\":874:880   */\n      dup4\n        /* \"#utility.yul\":871:872   */\n      dup2\n        /* \"#utility.yul\":868:881   */\n      lt\n        /* \"#utility.yul\":860:973   */\n      iszero\n      tag_80\n      jumpi\n        /* \"#utility.yul\":959:960   */\n      dup1\n        /* \"#utility.yul\":954:957   */\n      dup3\n        /* \"#utility.yul\":950:961   */\n      add\n        /* \"#utility.yul\":944:962   */\n      mload\n        /* \"#utility.yul\":940:941   */\n      dup2\n        /* \"#utility.yul\":935:938   */\n      dup5\n        /* \"#utility.yul\":931:942   */\n      add\n        /* \"#utility.yul\":924:963   */\n      mstore\n        /* \"#utility.yul\":896:898   */\n      0x20\n        /* \"#utility.yul\":893:894   */\n      dup2\n        /* \"#utility.yul\":889:899   */\n      add\n        /* \"#utility.yul\":884:899   */\n      swap1\n      pop\n        /* \"#utility.yul\":860:973   */\n      jump(tag_78)\n    tag_80:\n        /* \"#utility.yul\":991:997   */\n      dup4\n        /* \"#utility.yul\":988:989   */\n      dup2\n        /* \"#utility.yul\":985:998   */\n      gt\n        /* \"#utility.yul\":982:1083   */\n      iszero\n      tag_81\n      jumpi\n        /* \"#utility.yul\":1071:1072   */\n      0x00\n        /* \"#utility.yul\":1062:1068   */\n      dup5\n        /* \"#utility.yul\":1057:1060   */\n      dup5\n        /* \"#utility.yul\":1053:1069   */\n      add\n        /* \"#utility.yul\":1046:1073   */\n      mstore\n        /* \"#utility.yul\":982:1083   */\n    tag_81:\n        /* \"#utility.yul\":831:1089   */\n      pop\n        /* \"#utility.yul\":782:1089   */\n      pop\n      pop\n      pop\n      jump\t// out\n        /* \"#utility.yul\":1095:1197   */\n    tag_33:\n        /* \"#utility.yul\":1136:1142   */\n      0x00\n        /* \"#utility.yul\":1187:1189   */\n      0x1f\n        /* \"#utility.yul\":1183:1190   */\n      not\n        /* \"#utility.yul\":1178:1180   */\n      0x1f\n        /* \"#utility.yul\":1171:1176   */\n      dup4\n        /* \"#utility.yul\":1167:1181   */\n      add\n        /* \"#utility.yul\":1163:1191   */\n      and\n        /* \"#utility.yul\":1153:1191   */\n      swap1\n      pop\n        /* \"#utility.yul\":1095:1197   */\n      swap2\n      swap1\n      pop\n      jump\t// out\n        /* \"#utility.yul\":1203:1547   */\n    tag_34:\n        /* \"#utility.yul\":1281:1284   */\n      0x00\n        /* \"#utility.yul\":1309:1348   */\n      tag_84\n        /* \"#utility.yul\":1342:1347   */\n      dup3\n        /* \"#utility.yul\":1309:1348   */\n      tag_30\n      jump\t// in\n    tag_84:\n        /* \"#utility.yul\":1364:1425   */\n      tag_85\n        /* \"#utility.yul\":1418:1424   */\n      dup2\n        /* \"#utility.yul\":1413:1416   */\n      dup6\n        /* \"#utility.yul\":1364:1425   */\n      tag_31\n      jump\t// in\n    tag_85:\n        /* \"#utility.yul\":1357:1425   */\n      swap4\n      pop\n        /* \"#utility.yul\":1434:1486   */\n      tag_86\n        /* \"#utility.yul\":1479:1485   */\n      dup2\n        /* \"#utility.yul\":1474:1477   */\n      dup6\n        /* \"#utility.yul\":1467:1471   */\n      0x20\n        /* \"#utility.yul\":1460:1465   */\n      dup7\n        /* \"#utility.yul\":1456:1472   */\n      add\n        /* \"#utility.yul\":1434:1486   */\n      tag_32\n      jump\t// in\n    tag_86:\n        /* \"#utility.yul\":1511:1540   */\n      tag_87\n        /* \"#utility.yul\":1533:1539   */\n      dup2\n        /* \"#utility.yul\":1511:1540   */\n      tag_33\n      jump\t// in\n    tag_87:\n        /* \"#utility.yul\":1506:1509   */\n      dup5\n        /* \"#utility.yul\":1502:1541   */\n      add\n        /* \"#utility.yul\":1495:1541   */\n      swap2\n      pop\n        /* \"#utility.yul\":1285:1547   */\n      pop\n        /* \"#utility.yul\":1203:1547   */\n      swap3\n      swap2\n      pop\n      pop\n      jump\t// out\n        /* \"#utility.yul\":1553:1630   */\n    tag_35:\n        /* \"#utility.yul\":1590:1597   */\n      0x00\n        /* \"#utility.yul\":1619:1624   */\n      dup2\n        /* \"#utility.yul\":1608:1624   */\n      swap1\n      pop\n        /* \"#utility.yul\":1553:1630   */\n      swap2\n      swap1\n      pop\n      jump\t// out\n        /* \"#utility.yul\":1636:1744   */\n    tag_36:\n        /* \"#utility.yul\":1713:1737   */\n      tag_90\n        /* \"#utility.yul\":1731:1736   */\n      dup2\n        /* \"#utility.yul\":1713:1737   */\n      tag_35\n      jump\t// in\n    tag_90:\n        /* \"#utility.yul\":1708:1711   */\n      dup3\n        /* \"#utility.yul\":1701:1738   */\n      mstore\n        /* \"#utility.yul\":1636:1744   */\n      pop\n      pop\n      jump\t// out\n        /* \"#utility.yul\":1804:2563   */\n    tag_37:\n        /* \"#utility.yul\":1901:1904   */\n      0x00\n        /* \"#utility.yul\":1937:1941   */\n      0x60\n        /* \"#utility.yul\":1932:1935   */\n      dup4\n        /* \"#utility.yul\":1928:1942   */\n      add\n        /* \"#utility.yul\":2024:2028   */\n      0x00\n        /* \"#utility.yul\":2017:2022   */\n      dup4\n        /* \"#utility.yul\":2013:2029   */\n      add\n        /* \"#utility.yul\":2007:2030   */\n      mload\n        /* \"#utility.yul\":2077:2080   */\n      dup5\n        /* \"#utility.yul\":2071:2075   */\n      dup3\n        /* \"#utility.yul\":2067:2081   */\n      sub\n        /* \"#utility.yul\":2060:2064   */\n      0x00\n        /* \"#utility.yul\":2055:2058   */\n      dup7\n        /* \"#utility.yul\":2051:2065   */\n      add\n        /* \"#utility.yul\":2044:2082   */\n      mstore\n        /* \"#utility.yul\":2103:2176   */\n      tag_92\n        /* \"#utility.yul\":2171:2175   */\n      dup3\n        /* \"#utility.yul\":2157:2169   */\n      dup3\n        /* \"#utility.yul\":2103:2176   */\n      tag_34\n      jump\t// in\n    tag_92:\n        /* \"#utility.yul\":2095:2176   */\n      swap2\n      pop\n        /* \"#utility.yul\":1952:2187   */\n      pop\n        /* \"#utility.yul\":2268:2272   */\n      0x20\n        /* \"#utility.yul\":2261:2266   */\n      dup4\n        /* \"#utility.yul\":2257:2273   */\n      add\n        /* \"#utility.yul\":2251:2274   */\n      mload\n        /* \"#utility.yul\":2287:2350   */\n      tag_93\n        /* \"#utility.yul\":2344:2348   */\n      0x20\n        /* \"#utility.yul\":2339:2342   */\n      dup7\n        /* \"#utility.yul\":2335:2349   */\n      add\n        /* \"#utility.yul\":2321:2333   */\n      dup3\n        /* \"#utility.yul\":2287:2350   */\n      tag_36\n      jump\t// in\n    tag_93:\n        /* \"#utility.yul\":2197:2360   */\n      pop\n        /* \"#utility.yul\":2444:2448   */\n      0x40\n        /* \"#utility.yul\":2437:2442   */\n      dup4\n        /* \"#utility.yul\":2433:2449   */\n      add\n        /* \"#utility.yul\":2427:2450   */\n      mload\n        /* \"#utility.yul\":2463:2526   */\n      tag_94\n        /* \"#utility.yul\":2520:2524   */\n      0x40\n        /* \"#utility.yul\":2515:2518   */\n      dup7\n        /* \"#utility.yul\":2511:2525   */\n      add\n        /* \"#utility.yul\":2497:2509   */\n      dup3\n        /* \"#utility.yul\":2463:2526   */\n      tag_36\n      jump\t// in\n    tag_94:\n        /* \"#utility.yul\":2370:2536   */\n      pop\n        /* \"#utility.yul\":2553:2557   */\n      dup1\n        /* \"#utility.yul\":2546:2557   */\n      swap2\n      pop\n        /* \"#utility.yul\":1906:2563   */\n      pop\n        /* \"#utility.yul\":1804:2563   */\n      swap3\n      swap2\n      pop\n      pop\n      jump\t// out\n        /* \"#utility.yul\":2569:2801   */\n    tag_38:\n        /* \"#utility.yul\":2676:2686   */\n      0x00\n        /* \"#utility.yul\":2711:2795   */\n      tag_96\n        /* \"#utility.yul\":2791:2794   */\n      dup4\n        /* \"#utility.yul\":2783:2789   */\n      dup4\n        /* \"#utility.yul\":2711:2795   */\n      tag_37\n      jump\t// in\n    tag_96:\n        /* \"#utility.yul\":2697:2795   */\n      swap1\n      pop\n        /* \"#utility.yul\":2569:2801   */\n      swap3\n      swap2\n      pop\n      pop\n      jump\t// out\n        /* \"#utility.yul\":2807:2939   */\n    tag_39:\n        /* \"#utility.yul\":2896:2900   */\n      0x00\n        /* \"#utility.yul\":2928:2932   */\n      0x20\n        /* \"#utility.yul\":2923:2926   */\n      dup3\n        /* \"#utility.yul\":2919:2933   */\n      add\n        /* \"#utility.yul\":2911:2933   */\n      swap1\n      pop\n        /* \"#utility.yul\":2807:2939   */\n      swap2\n      swap1\n      pop\n      jump\t// out\n        /* \"#utility.yul\":3003:4066   */\n    tag_40:\n        /* \"#utility.yul\":3160:3163   */\n      0x00\n        /* \"#utility.yul\":3189:3262   */\n      tag_99\n        /* \"#utility.yul\":3256:3261   */\n      dup3\n        /* \"#utility.yul\":3189:3262   */\n      tag_27\n      jump\t// in\n    tag_99:\n        /* \"#utility.yul\":3278:3383   */\n      tag_100\n        /* \"#utility.yul\":3376:3382   */\n      dup2\n        /* \"#utility.yul\":3371:3374   */\n      dup6\n        /* \"#utility.yul\":3278:3383   */\n      tag_28\n      jump\t// in\n    tag_100:\n        /* \"#utility.yul\":3271:3383   */\n      swap4\n      pop\n        /* \"#utility.yul\":3409:3412   */\n      dup4\n        /* \"#utility.yul\":3454:3458   */\n      0x20\n        /* \"#utility.yul\":3446:3452   */\n      dup3\n        /* \"#utility.yul\":3442:3459   */\n      mul\n        /* \"#utility.yul\":3437:3440   */\n      dup6\n        /* \"#utility.yul\":3433:3460   */\n      add\n        /* \"#utility.yul\":3484:3559   */\n      tag_101\n        /* \"#utility.yul\":3553:3558   */\n      dup6\n        /* \"#utility.yul\":3484:3559   */\n      tag_29\n      jump\t// in\n    tag_101:\n        /* \"#utility.yul\":3582:3589   */\n      dup1\n        /* \"#utility.yul\":3613:3614   */\n      0x00\n        /* \"#utility.yul\":3598:4021   */\n    tag_102:\n        /* \"#utility.yul\":3623:3629   */\n      dup6\n        /* \"#utility.yul\":3620:3621   */\n      dup2\n        /* \"#utility.yul\":3617:3630   */\n      lt\n        /* \"#utility.yul\":3598:4021   */\n      iszero\n      tag_104\n      jumpi\n        /* \"#utility.yul\":3694:3703   */\n      dup5\n        /* \"#utility.yul\":3688:3692   */\n      dup5\n        /* \"#utility.yul\":3684:3704   */\n      sub\n        /* \"#utility.yul\":3679:3682   */\n      dup10\n        /* \"#utility.yul\":3672:3705   */\n      mstore\n        /* \"#utility.yul\":3745:3751   */\n      dup2\n        /* \"#utility.yul\":3739:3752   */\n      mload\n        /* \"#utility.yul\":3773:3875   */\n      tag_105\n        /* \"#utility.yul\":3870:3874   */\n      dup6\n        /* \"#utility.yul\":3855:3868   */\n      dup3\n        /* \"#utility.yul\":3773:3875   */\n      tag_38\n      jump\t// in\n    tag_105:\n        /* \"#utility.yul\":3765:3875   */\n      swap5\n      pop\n        /* \"#utility.yul\":3898:3977   */\n      tag_106\n        /* \"#utility.yul\":3970:3976   */\n      dup4\n        /* \"#utility.yul\":3898:3977   */\n      tag_39\n      jump\t// in\n    tag_106:\n        /* \"#utility.yul\":3888:3977   */\n      swap3\n      pop\n        /* \"#utility.yul\":4006:4010   */\n      0x20\n        /* \"#utility.yul\":4001:4004   */\n      dup11\n        /* \"#utility.yul\":3997:4011   */\n      add\n        /* \"#utility.yul\":3990:4011   */\n      swap10\n      pop\n        /* \"#utility.yul\":3658:4021   */\n      pop\n        /* \"#utility.yul\":3645:3646   */\n      0x01\n        /* \"#utility.yul\":3642:3643   */\n      dup2\n        /* \"#utility.yul\":3638:3647   */\n      add\n        /* \"#utility.yul\":3633:3647   */\n      swap1\n      pop\n        /* \"#utility.yul\":3598:4021   */\n      jump(tag_102)\n    tag_104:\n        /* \"#utility.yul\":3602:3616   */\n      pop\n        /* \"#utility.yul\":4037:4041   */\n      dup3\n        /* \"#utility.yul\":4030:4041   */\n      swap8\n      pop\n        /* \"#utility.yul\":4057:4060   */\n      dup8\n        /* \"#utility.yul\":4050:4060   */\n      swap6\n      pop\n        /* \"#utility.yul\":3165:4066   */\n      pop\n      pop\n      pop\n      pop\n      pop\n        /* \"#utility.yul\":3003:4066   */\n      swap3\n      swap2\n      pop\n      pop\n      jump\t// out\n        /* \"#utility.yul\":4072:4521   */\n    tag_8:\n        /* \"#utility.yul\":4253:4257   */\n      0x00\n        /* \"#utility.yul\":4291:4293   */\n      0x20\n        /* \"#utility.yul\":4280:4289   */\n      dup3\n        /* \"#utility.yul\":4276:4294   */\n      add\n        /* \"#utility.yul\":4268:4294   */\n      swap1\n      pop\n        /* \"#utility.yul\":4340:4349   */\n      dup2\n        /* \"#utility.yul\":4334:4338   */\n      dup2\n        /* \"#utility.yul\":4330:4350   */\n      sub\n        /* \"#utility.yul\":4326:4327   */\n      0x00\n        /* \"#utility.yul\":4315:4324   */\n      dup4\n        /* \"#utility.yul\":4311:4328   */\n      add\n        /* \"#utility.yul\":4304:4351   */\n      mstore\n        /* \"#utility.yul\":4368:4514   */\n      tag_108\n        /* \"#utility.yul\":4509:4513   */\n      dup2\n        /* \"#utility.yul\":4500:4506   */\n      dup5\n        /* \"#utility.yul\":4368:4514   */\n      tag_40\n      jump\t// in\n    tag_108:\n        /* \"#utility.yul\":4360:4514   */\n      swap1\n      pop\n        /* \"#utility.yul\":4072:4521   */\n      swap3\n      swap2\n      pop\n      pop\n      jump\t// out\n        /* \"#utility.yul\":4527:4602   */\n    tag_41:\n        /* \"#utility.yul\":4560:4566   */\n      0x00\n        /* \"#utility.yul\":4593:4595   */\n      0x40\n        /* \"#utility.yul\":4587:4596   */\n      mload\n        /* \"#utility.yul\":4577:4596   */\n      swap1\n      pop\n        /* \"#utility.yul\":4527:4602   */\n      swap1\n      jump\t// out\n        /* \"#utility.yul\":4608:4725   */\n    tag_42:\n        /* \"#utility.yul\":4717:4718   */\n      0x00\n        /* \"#utility.yul\":4714:4715   */\n      dup1\n        /* \"#utility.yul\":4707:4719   */\n      revert\n        /* \"#utility.yul\":4731:4848   */\n    tag_43:\n        /* \"#utility.yul\":4840:4841   */\n      0x00\n        /* \"#utility.yul\":4837:4838   */\n      dup1\n        /* \"#utility.yul\":4830:4842   */\n      revert\n        /* \"#utility.yul\":4854:4971   */\n    tag_44:\n        /* \"#utility.yul\":4963:4964   */\n      0x00\n        /* \"#utility.yul\":4960:4961   */\n      dup1\n        /* \"#utility.yul\":4953:4965   */\n      revert\n        /* \"#utility.yul\":4977:5094   */\n    tag_45:\n        /* \"#utility.yul\":5086:5087   */\n      0x00\n        /* \"#utility.yul\":5083:5084   */\n      dup1\n        /* \"#utility.yul\":5076:5088   */\n      revert\n        /* \"#utility.yul\":5100:5280   */\n    tag_46:\n        /* \"#utility.yul\":5148:5225   */\n      0x4e487b7100000000000000000000000000000000000000000000000000000000\n        /* \"#utility.yul\":5145:5146   */\n      0x00\n        /* \"#utility.yul\":5138:5226   */\n      mstore\n        /* \"#utility.yul\":5245:5249   */\n      0x41\n        /* \"#utility.yul\":5242:5243   */\n      0x04\n        /* \"#utility.yul\":5235:5250   */\n      mstore\n        /* \"#utility.yul\":5269:5273   */\n      0x24\n        /* \"#utility.yul\":5266:5267   */\n      0x00\n        /* \"#utility.yul\":5259:5274   */\n      revert\n        /* \"#utility.yul\":5286:5567   */\n    tag_47:\n        /* \"#utility.yul\":5369:5396   */\n      tag_116\n        /* \"#utility.yul\":5391:5395   */\n      dup3\n        /* \"#utility.yul\":5369:5396   */\n      tag_33\n      jump\t// in\n    tag_116:\n        /* \"#utility.yul\":5361:5367   */\n      dup2\n        /* \"#utility.yul\":5357:5397   */\n      add\n        /* \"#utility.yul\":5499:5505   */\n      dup2\n        /* \"#utility.yul\":5487:5497   */\n      dup2\n        /* \"#utility.yul\":5484:5506   */\n      lt\n        /* \"#utility.yul\":5463:5481   */\n      0xffffffffffffffff\n        /* \"#utility.yul\":5451:5461   */\n      dup3\n        /* \"#utility.yul\":5448:5482   */\n      gt\n        /* \"#utility.yul\":5445:5507   */\n      or\n        /* \"#utility.yul\":5442:5530   */\n      iszero\n      tag_117\n      jumpi\n        /* \"#utility.yul\":5510:5528   */\n      tag_118\n      tag_46\n      jump\t// in\n    tag_118:\n        /* \"#utility.yul\":5442:5530   */\n    tag_117:\n        /* \"#utility.yul\":5550:5560   */\n      dup1\n        /* \"#utility.yul\":5546:5548   */\n      0x40\n        /* \"#utility.yul\":5539:5561   */\n      mstore\n        /* \"#utility.yul\":5329:5567   */\n      pop\n        /* \"#utility.yul\":5286:5567   */\n      pop\n      pop\n      jump\t// out\n        /* \"#utility.yul\":5573:5702   */\n    tag_48:\n        /* \"#utility.yul\":5607:5613   */\n      0x00\n        /* \"#utility.yul\":5634:5654   */\n      tag_120\n      tag_41\n      jump\t// in\n    tag_120:\n        /* \"#utility.yul\":5624:5654   */\n      swap1\n      pop\n        /* \"#utility.yul\":5663:5696   */\n      tag_121\n        /* \"#utility.yul\":5691:5695   */\n      dup3\n        /* \"#utility.yul\":5683:5689   */\n      dup3\n        /* \"#utility.yul\":5663:5696   */\n      tag_47\n      jump\t// in\n    tag_121:\n        /* \"#utility.yul\":5573:5702   */\n      swap2\n      swap1\n      pop\n      jump\t// out\n        /* \"#utility.yul\":5708:6016   */\n    tag_49:\n        /* \"#utility.yul\":5770:5774   */\n      0x00\n        /* \"#utility.yul\":5860:5878   */\n      0xffffffffffffffff\n        /* \"#utility.yul\":5852:5858   */\n      dup3\n        /* \"#utility.yul\":5849:5879   */\n      gt\n        /* \"#utility.yul\":5846:5902   */\n      iszero\n      tag_123\n      jumpi\n        /* \"#utility.yul\":5882:5900   */\n      tag_124\n      tag_46\n      jump\t// in\n    tag_124:\n        /* \"#utility.yul\":5846:5902   */\n    tag_123:\n        /* \"#utility.yul\":5920:5949   */\n      tag_125\n        /* \"#utility.yul\":5942:5948   */\n      dup3\n        /* \"#utility.yul\":5920:5949   */\n      tag_33\n      jump\t// in\n    tag_125:\n        /* \"#utility.yul\":5912:5949   */\n      swap1\n      pop\n        /* \"#utility.yul\":6004:6008   */\n      0x20\n        /* \"#utility.yul\":5998:6002   */\n      dup2\n        /* \"#utility.yul\":5994:6009   */\n      add\n        /* \"#utility.yul\":5986:6009   */\n      swap1\n      pop\n        /* \"#utility.yul\":5708:6016   */\n      swap2\n      swap1\n      pop\n      jump\t// out\n        /* \"#utility.yul\":6022:6176   */\n    tag_50:\n        /* \"#utility.yul\":6106:6112   */\n      dup3\n        /* \"#utility.yul\":6101:6104   */\n      dup2\n        /* \"#utility.yul\":6096:6099   */\n      dup4\n        /* \"#utility.yul\":6083:6113   */\n      calldatacopy\n        /* \"#utility.yul\":6168:6169   */\n      0x00\n        /* \"#utility.yul\":6159:6165   */\n      dup4\n        /* \"#utility.yul\":6154:6157   */\n      dup4\n        /* \"#utility.yul\":6150:6166   */\n      add\n        /* \"#utility.yul\":6143:6170   */\n      mstore\n        /* \"#utility.yul\":6022:6176   */\n      pop\n      pop\n      pop\n      jump\t// out\n        /* \"#utility.yul\":6182:6594   */\n    tag_51:\n        /* \"#utility.yul\":6260:6265   */\n      0x00\n        /* \"#utility.yul\":6285:6351   */\n      tag_128\n        /* \"#utility.yul\":6301:6350   */\n      tag_129\n        /* \"#utility.yul\":6343:6349   */\n      dup5\n        /* \"#utility.yul\":6301:6350   */\n      tag_49\n      jump\t// in\n    tag_129:\n        /* \"#utility.yul\":6285:6351   */\n      tag_48\n      jump\t// in\n    tag_128:\n        /* \"#utility.yul\":6276:6351   */\n      swap1\n      pop\n        /* \"#utility.yul\":6374:6380   */\n      dup3\n        /* \"#utility.yul\":6367:6372   */\n      dup2\n        /* \"#utility.yul\":6360:6381   */\n      mstore\n        /* \"#utility.yul\":6412:6416   */\n      0x20\n        /* \"#utility.yul\":6405:6410   */\n      dup2\n        /* \"#utility.yul\":6401:6417   */\n      add\n        /* \"#utility.yul\":6450:6453   */\n      dup5\n        /* \"#utility.yul\":6441:6447   */\n      dup5\n        /* \"#utility.yul\":6436:6439   */\n      dup5\n        /* \"#utility.yul\":6432:6448   */\n      add\n        /* \"#utility.yul\":6429:6454   */\n      gt\n        /* \"#utility.yul\":6426:6538   */\n      iszero\n      tag_130\n      jumpi\n        /* \"#utility.yul\":6457:6536   */\n      tag_131\n      tag_45\n      jump\t// in\n    tag_131:\n        /* \"#utility.yul\":6426:6538   */\n    tag_130:\n        /* \"#utility.yul\":6547:6588   */\n      tag_132\n        /* \"#utility.yul\":6581:6587   */\n      dup5\n        /* \"#utility.yul\":6576:6579   */\n      dup3\n        /* \"#utility.yul\":6571:6574   */\n      dup6\n        /* \"#utility.yul\":6547:6588   */\n      tag_50\n      jump\t// in\n    tag_132:\n        /* \"#utility.yul\":6266:6594   */\n      pop\n        /* \"#utility.yul\":6182:6594   */\n      swap4\n      swap3\n      pop\n      pop\n      pop\n      jump\t// out\n        /* \"#utility.yul\":6614:6954   */\n    tag_52:\n        /* \"#utility.yul\":6670:6675   */\n      0x00\n        /* \"#utility.yul\":6719:6722   */\n      dup3\n        /* \"#utility.yul\":6712:6716   */\n      0x1f\n        /* \"#utility.yul\":6704:6710   */\n      dup4\n        /* \"#utility.yul\":6700:6717   */\n      add\n        /* \"#utility.yul\":6696:6723   */\n      slt\n        /* \"#utility.yul\":6686:6808   */\n      tag_134\n      jumpi\n        /* \"#utility.yul\":6727:6806   */\n      tag_135\n      tag_44\n      jump\t// in\n    tag_135:\n        /* \"#utility.yul\":6686:6808   */\n    tag_134:\n        /* \"#utility.yul\":6844:6850   */\n      dup2\n        /* \"#utility.yul\":6831:6851   */\n      calldataload\n        /* \"#utility.yul\":6869:6948   */\n      tag_136\n        /* \"#utility.yul\":6944:6947   */\n      dup5\n        /* \"#utility.yul\":6936:6942   */\n      dup3\n        /* \"#utility.yul\":6929:6933   */\n      0x20\n        /* \"#utility.yul\":6921:6927   */\n      dup7\n        /* \"#utility.yul\":6917:6934   */\n      add\n        /* \"#utility.yul\":6869:6948   */\n      tag_51\n      jump\t// in\n    tag_136:\n        /* \"#utility.yul\":6860:6948   */\n      swap2\n      pop\n        /* \"#utility.yul\":6676:6954   */\n      pop\n        /* \"#utility.yul\":6614:6954   */\n      swap3\n      swap2\n      pop\n      pop\n      jump\t// out\n        /* \"#utility.yul\":6960:7082   */\n    tag_53:\n        /* \"#utility.yul\":7033:7057   */\n      tag_138\n        /* \"#utility.yul\":7051:7056   */\n      dup2\n        /* \"#utility.yul\":7033:7057   */\n      tag_35\n      jump\t// in\n    tag_138:\n        /* \"#utility.yul\":7026:7031   */\n      dup2\n        /* \"#utility.yul\":7023:7058   */\n      eq\n        /* \"#utility.yul\":7013:7076   */\n      tag_139\n      jumpi\n        /* \"#utility.yul\":7072:7073   */\n      0x00\n        /* \"#utility.yul\":7069:7070   */\n      dup1\n        /* \"#utility.yul\":7062:7074   */\n      revert\n        /* \"#utility.yul\":7013:7076   */\n    tag_139:\n        /* \"#utility.yul\":6960:7082   */\n      pop\n      jump\t// out\n        /* \"#utility.yul\":7088:7227   */\n    tag_54:\n        /* \"#utility.yul\":7134:7139   */\n      0x00\n        /* \"#utility.yul\":7172:7178   */\n      dup2\n        /* \"#utility.yul\":7159:7179   */\n      calldataload\n        /* \"#utility.yul\":7150:7179   */\n      swap1\n      pop\n        /* \"#utility.yul\":7188:7221   */\n      tag_141\n        /* \"#utility.yul\":7215:7220   */\n      dup2\n        /* \"#utility.yul\":7188:7221   */\n      tag_53\n      jump\t// in\n    tag_141:\n        /* \"#utility.yul\":7088:7227   */\n      swap3\n      swap2\n      pop\n      pop\n      jump\t// out\n        /* \"#utility.yul\":7233:8032   */\n    tag_11:\n        /* \"#utility.yul\":7320:7326   */\n      0x00\n        /* \"#utility.yul\":7328:7334   */\n      dup1\n        /* \"#utility.yul\":7336:7342   */\n      0x00\n        /* \"#utility.yul\":7385:7387   */\n      0x60\n        /* \"#utility.yul\":7373:7382   */\n      dup5\n        /* \"#utility.yul\":7364:7371   */\n      dup7\n        /* \"#utility.yul\":7360:7383   */\n      sub\n        /* \"#utility.yul\":7356:7388   */\n      slt\n        /* \"#utility.yul\":7353:7472   */\n      iszero\n      tag_143\n      jumpi\n        /* \"#utility.yul\":7391:7470   */\n      tag_144\n      tag_42\n      jump\t// in\n    tag_144:\n        /* \"#utility.yul\":7353:7472   */\n    tag_143:\n        /* \"#utility.yul\":7539:7540   */\n      0x00\n        /* \"#utility.yul\":7528:7537   */\n      dup5\n        /* \"#utility.yul\":7524:7541   */\n      add\n        /* \"#utility.yul\":7511:7542   */\n      calldataload\n        /* \"#utility.yul\":7569:7587   */\n      0xffffffffffffffff\n        /* \"#utility.yul\":7561:7567   */\n      dup2\n        /* \"#utility.yul\":7558:7588   */\n      gt\n        /* \"#utility.yul\":7555:7672   */\n      iszero\n      tag_145\n      jumpi\n        /* \"#utility.yul\":7591:7670   */\n      tag_146\n      tag_43\n      jump\t// in\n    tag_146:\n        /* \"#utility.yul\":7555:7672   */\n    tag_145:\n        /* \"#utility.yul\":7696:7759   */\n      tag_147\n        /* \"#utility.yul\":7751:7758   */\n      dup7\n        /* \"#utility.yul\":7742:7748   */\n      dup3\n        /* \"#utility.yul\":7731:7740   */\n      dup8\n        /* \"#utility.yul\":7727:7749   */\n      add\n        /* \"#utility.yul\":7696:7759   */\n      tag_52\n      jump\t// in\n    tag_147:\n        /* \"#utility.yul\":7686:7759   */\n      swap4\n      pop\n        /* \"#utility.yul\":7482:7769   */\n      pop\n        /* \"#utility.yul\":7808:7810   */\n      0x20\n        /* \"#utility.yul\":7834:7887   */\n      tag_148\n        /* \"#utility.yul\":7879:7886   */\n      dup7\n        /* \"#utility.yul\":7870:7876   */\n      dup3\n        /* \"#utility.yul\":7859:7868   */\n      dup8\n        /* \"#utility.yul\":7855:7877   */\n      add\n        /* \"#utility.yul\":7834:7887   */\n      tag_54\n      jump\t// in\n    tag_148:\n        /* \"#utility.yul\":7824:7887   */\n      swap3\n      pop\n        /* \"#utility.yul\":7779:7897   */\n      pop\n        /* \"#utility.yul\":7936:7938   */\n      0x40\n        /* \"#utility.yul\":7962:8015   */\n      tag_149\n        /* \"#utility.yul\":8007:8014   */\n      dup7\n        /* \"#utility.yul\":7998:8004   */\n      dup3\n        /* \"#utility.yul\":7987:7996   */\n      dup8\n        /* \"#utility.yul\":7983:8005   */\n      add\n        /* \"#utility.yul\":7962:8015   */\n      tag_54\n      jump\t// in\n    tag_149:\n        /* \"#utility.yul\":7952:8015   */\n      swap2\n      pop\n        /* \"#utility.yul\":7907:8025   */\n      pop\n        /* \"#utility.yul\":7233:8032   */\n      swap3\n      pop\n      swap3\n      pop\n      swap3\n      jump\t// out\n        /* \"#utility.yul\":8038:8218   */\n    tag_55:\n        /* \"#utility.yul\":8086:8163   */\n      0x4e487b7100000000000000000000000000000000000000000000000000000000\n        /* \"#utility.yul\":8083:8084   */\n      0x00\n        /* \"#utility.yul\":8076:8164   */\n      mstore\n        /* \"#utility.yul\":8183:8187   */\n      0x22\n        /* \"#utility.yul\":8180:8181   */\n      0x04\n        /* \"#utility.yul\":8173:8188   */\n      mstore\n        /* \"#utility.yul\":8207:8211   */\n      0x24\n        /* \"#utility.yul\":8204:8205   */\n      0x00\n        /* \"#utility.yul\":8197:8212   */\n      revert\n        /* \"#utility.yul\":8224:8544   */\n    tag_18:\n        /* \"#utility.yul\":8268:8274   */\n      0x00\n        /* \"#utility.yul\":8305:8306   */\n      0x02\n        /* \"#utility.yul\":8299:8303   */\n      dup3\n        /* \"#utility.yul\":8295:8307   */\n      div\n        /* \"#utility.yul\":8285:8307   */\n      swap1\n      pop\n        /* \"#utility.yul\":8352:8353   */\n      0x01\n        /* \"#utility.yul\":8346:8350   */\n      dup3\n        /* \"#utility.yul\":8342:8354   */\n      and\n        /* \"#utility.yul\":8373:8391   */\n      dup1\n        /* \"#utility.yul\":8363:8444   */\n      tag_152\n      jumpi\n        /* \"#utility.yul\":8429:8433   */\n      0x7f\n        /* \"#utility.yul\":8421:8427   */\n      dup3\n        /* \"#utility.yul\":8417:8434   */\n      and\n        /* \"#utility.yul\":8407:8434   */\n      swap2\n      pop\n        /* \"#utility.yul\":8363:8444   */\n    tag_152:\n        /* \"#utility.yul\":8491:8493   */\n      0x20\n        /* \"#utility.yul\":8483:8489   */\n      dup3\n        /* \"#utility.yul\":8480:8494   */\n      lt\n        /* \"#utility.yul\":8460:8478   */\n      dup2\n        /* \"#utility.yul\":8457:8495   */\n      sub\n        /* \"#utility.yul\":8454:8538   */\n      tag_153\n      jumpi\n        /* \"#utility.yul\":8510:8528   */\n      tag_154\n      tag_55\n      jump\t// in\n    tag_154:\n        /* \"#utility.yul\":8454:8538   */\n    tag_153:\n        /* \"#utility.yul\":8275:8544   */\n      pop\n        /* \"#utility.yul\":8224:8544   */\n      swap2\n      swap1\n      pop\n      jump\t// out\n        /* \"#utility.yul\":8550:8691   */\n    tag_56:\n        /* \"#utility.yul\":8599:8603   */\n      0x00\n        /* \"#utility.yul\":8622:8625   */\n      dup2\n        /* \"#utility.yul\":8614:8625   */\n      swap1\n      pop\n        /* \"#utility.yul\":8645:8648   */\n      dup2\n        /* \"#utility.yul\":8642:8643   */\n      0x00\n        /* \"#utility.yul\":8635:8649   */\n      mstore\n        /* \"#utility.yul\":8679:8683   */\n      0x20\n        /* \"#utility.yul\":8676:8677   */\n      0x00\n        /* \"#utility.yul\":8666:8684   */\n      keccak256\n        /* \"#utility.yul\":8658:8684   */\n      swap1\n      pop\n        /* \"#utility.yul\":8550:8691   */\n      swap2\n      swap1\n      pop\n      jump\t// out\n        /* \"#utility.yul\":8697:8790   */\n    tag_57:\n        /* \"#utility.yul\":8734:8740   */\n      0x00\n        /* \"#utility.yul\":8781:8783   */\n      0x20\n        /* \"#utility.yul\":8776:8778   */\n      0x1f\n        /* \"#utility.yul\":8769:8774   */\n      dup4\n        /* \"#utility.yul\":8765:8779   */\n      add\n        /* \"#utility.yul\":8761:8784   */\n      div\n        /* \"#utility.yul\":8751:8784   */\n      swap1\n      pop\n        /* \"#utility.yul\":8697:8790   */\n      swap2\n      swap1\n      pop\n      jump\t// out\n        /* \"#utility.yul\":8796:8903   */\n    tag_58:\n        /* \"#utility.yul\":8840:8848   */\n      0x00\n        /* \"#utility.yul\":8890:8895   */\n      dup3\n        /* \"#utility.yul\":8884:8888   */\n      dup3\n        /* \"#utility.yul\":8880:8896   */\n      shl\n        /* \"#utility.yul\":8859:8896   */\n      swap1\n      pop\n        /* \"#utility.yul\":8796:8903   */\n      swap3\n      swap2\n      pop\n      pop\n      jump\t// out\n        /* \"#utility.yul\":8909:9302   */\n    tag_59:\n        /* \"#utility.yul\":8978:8984   */\n      0x00\n        /* \"#utility.yul\":9028:9029   */\n      0x08\n        /* \"#utility.yul\":9016:9026   */\n      dup4\n        /* \"#utility.yul\":9012:9030   */\n      mul\n        /* \"#utility.yul\":9051:9148   */\n      tag_159\n        /* \"#utility.yul\":9081:9147   */\n      0xffffffffffffffffffffffffffffffffffffffffffffffffffffffffffffffff\n        /* \"#utility.yul\":9070:9079   */\n      dup3\n        /* \"#utility.yul\":9051:9148   */\n      tag_58\n      jump\t// in\n    tag_159:\n        /* \"#utility.yul\":9169:9208   */\n      tag_160\n        /* \"#utility.yul\":9199:9207   */\n      dup7\n        /* \"#utility.yul\":9188:9197   */\n      dup4\n        /* \"#utility.yul\":9169:9208   */\n      tag_58\n      jump\t// in\n    tag_160:\n        /* \"#utility.yul\":9157:9208   */\n      swap6\n      pop\n        /* \"#utility.yul\":9241:9245   */\n      dup1\n        /* \"#utility.yul\":9237:9246   */\n      not\n        /* \"#utility.yul\":9230:9235   */\n      dup5\n        /* \"#utility.yul\":9226:9247   */\n      and\n        /* \"#utility.yul\":9217:9247   */\n      swap4\n      pop\n        /* \"#utility.yul\":9290:9294   */\n      dup1\n        /* \"#utility.yul\":9280:9288   */\n      dup7\n        /* \"#utility.yul\":9276:9295   */\n      and\n        /* \"#utility.yul\":9269:9274   */\n      dup5\n        /* \"#utility.yul\":9266:9296   */\n      or\n        /* \"#utility.yul\":9256:9296   */\n      swap3\n      pop\n        /* \"#utility.yul\":8985:9302   */\n      pop\n      pop\n        /* \"#utility.yul\":8909:9302   */\n      swap4\n      swap3\n      pop\n      pop\n      pop\n      jump\t// out\n        /* \"#utility.yul\":9308:9368   */\n    tag_60:\n        /* \"#utility.yul\":9336:9339   */\n      0x00\n        /* \"#utility.yul\":9357:9362   */\n      dup2\n        /* \"#utility.yul\":9350:9362   */\n      swap1\n      pop\n        /* \"#utility.yul\":9308:9368   */\n      swap2\n      swap1\n      pop\n      jump\t// out\n        /* \"#utility.yul\":9374:9516   */\n    tag_61:\n        /* \"#utility.yul\":9424:9433   */\n      0x00\n        /* \"#utility.yul\":9457:9510   */\n      tag_163\n        /* \"#utility.yul\":9475:9509   */\n      tag_164\n        /* \"#utility.yul\":9484:9508   */\n      tag_165\n        /* \"#utility.yul\":9502:9507   */\n      dup5\n        /* \"#utility.yul\":9484:9508   */\n      tag_35\n      jump\t// in\n    tag_165:\n        /* \"#utility.yul\":9475:9509   */\n      tag_60\n      jump\t// in\n    tag_164:\n        /* \"#utility.yul\":9457:9510   */\n      tag_35\n      jump\t// in\n    tag_163:\n        /* \"#utility.yul\":9444:9510   */\n      swap1\n      pop\n        /* \"#utility.yul\":9374:9516   */\n      swap2\n      swap1\n      pop\n      jump\t// out\n        /* \"#utility.yul\":9522:9597   */\n    tag_62:\n        /* \"#utility.yul\":9565:9568   */\n      0x00\n        /* \"#utility.yul\":9586:9591   */\n      dup2\n        /* \"#utility.yul\":9579:9591   */\n      swap1\n      pop\n        /* \"#utility.yul\":9522:9597   */\n      swap2\n      swap1\n      pop\n      jump\t// out\n        /* \"#utility.yul\":9603:9872   */\n    tag_63:\n        /* \"#utility.yul\":9713:9752   */\n      tag_168\n        /* \"#utility.yul\":9744:9751   */\n      dup4\n        /* \"#utility.yul\":9713:9752   */\n      tag_61\n      jump\t// in\n    tag_168:\n        /* \"#utility.yul\":9774:9865   */\n      tag_169\n        /* \"#utility.yul\":9823:9864   */\n      tag_170\n        /* \"#utility.yul\":9847:9863   */\n      dup3\n        /* \"#utility.yul\":9823:9864   */\n      tag_62\n      jump\t// in\n    tag_170:\n        /* \"#utility.yul\":9815:9821   */\n      dup5\n        /* \"#utility.yul\":9808:9812   */\n      dup5\n        /* \"#utility.yul\":9802:9813   */\n      sload\n        /* \"#utility.yul\":9774:9865   */\n      tag_59\n      jump\t// in\n    tag_169:\n        /* \"#utility.yul\":9768:9772   */\n      dup3\n        /* \"#utility.yul\":9761:9866   */\n      sstore\n        /* \"#utility.yul\":9679:9872   */\n      pop\n        /* \"#utility.yul\":9603:9872   */\n      pop\n      pop\n      pop\n      jump\t// out\n        /* \"#utility.yul\":9878:9951   */\n    tag_64:\n        /* \"#utility.yul\":9923:9926   */\n      0x00\n        /* \"#utility.yul\":9878:9951   */\n      swap1\n      jump\t// out\n        /* \"#utility.yul\":9957:10146   */\n    tag_65:\n        /* \"#utility.yul\":10034:10066   */\n      tag_173\n      tag_64\n      jump\t// in\n    tag_173:\n        /* \"#utility.yul\":10075:10140   */\n      tag_174\n        /* \"#utility.yul\":10133:10139   */\n      dup2\n        /* \"#utility.yul\":10125:10131   */\n      dup5\n        /* \"#utility.yul\":10119:10123   */\n      dup5\n        /* \"#utility.yul\":10075:10140   */\n      tag_63\n      jump\t// in\n    tag_174:\n        /* \"#utility.yul\":10010:10146   */\n      pop\n        /* \"#utility.yul\":9957:10146   */\n      pop\n      pop\n      jump\t// out\n        /* \"#utility.yul\":10152:10338   */\n    tag_66:\n        /* \"#utility.yul\":10212:10332   */\n    tag_176:\n        /* \"#utility.yul\":10229:10232   */\n      dup2\n        /* \"#utility.yul\":10222:10227   */\n      dup2\n        /* \"#utility.yul\":10219:10233   */\n      lt\n        /* \"#utility.yul\":10212:10332   */\n      iszero\n      tag_178\n      jumpi\n        /* \"#utility.yul\":10283:10322   */\n      tag_179\n        /* \"#utility.yul\":10320:10321   */\n      0x00\n        /* \"#utility.yul\":10313:10318   */\n      dup3\n        /* \"#utility.yul\":10283:10322   */\n      tag_65\n      jump\t// in\n    tag_179:\n        /* \"#utility.yul\":10256:10257   */\n      0x01\n        /* \"#utility.yul\":10249:10254   */\n      dup2\n        /* \"#utility.yul\":10245:10258   */\n      add\n        /* \"#utility.yul\":10236:10258   */\n      swap1\n      pop\n        /* \"#utility.yul\":10212:10332   */\n      jump(tag_176)\n    tag_178:\n        /* \"#utility.yul\":10152:10338   */\n      pop\n      pop\n      jump\t// out\n        /* \"#utility.yul\":10344:10887   */\n    tag_67:\n        /* \"#utility.yul\":10445:10447   */\n      0x1f\n        /* \"#utility.yul\":10440:10443   */\n      dup3\n        /* \"#utility.yul\":10437:10448   */\n      gt\n        /* \"#utility.yul\":10434:10880   */\n      iszero\n      tag_181\n      jumpi\n        /* \"#utility.yul\":10479:10517   */\n      tag_182\n        /* \"#utility.yul\":10511:10516   */\n      dup2\n        /* \"#utility.yul\":10479:10517   */\n      tag_56\n      jump\t// in\n    tag_182:\n        /* \"#utility.yul\":10563:10592   */\n      tag_183\n        /* \"#utility.yul\":10581:10591   */\n      dup5\n        /* \"#utility.yul\":10563:10592   */\n      tag_57\n      jump\t// in\n    tag_183:\n        /* \"#utility.yul\":10553:10561   */\n      dup2\n        /* \"#utility.yul\":10549:10593   */\n      add\n        /* \"#utility.yul\":10746:10748   */\n      0x20\n        /* \"#utility.yul\":10734:10744   */\n      dup6\n        /* \"#utility.yul\":10731:10749   */\n      lt\n        /* \"#utility.yul\":10728:10777   */\n      iszero\n      tag_184\n      jumpi\n        /* \"#utility.yul\":10767:10775   */\n      dup2\n        /* \"#utility.yul\":10752:10775   */\n      swap1\n      pop\n        /* \"#utility.yul\":10728:10777   */\n    tag_184:\n        /* \"#utility.yul\":10790:10870   */\n      tag_185\n        /* \"#utility.yul\":10846:10868   */\n      tag_186\n        /* \"#utility.yul\":10864:10867   */\n      dup6\n        /* \"#utility.yul\":10846:10868   */\n      tag_57\n      jump\t// in\n    tag_186:\n        /* \"#utility.yul\":10836:10844   */\n      dup4\n        /* \"#utility.yul\":10832:10869   */\n      add\n        /* \"#utility.yul\":10819:10830   */\n      dup3\n        /* \"#utility.yul\":10790:10870   */\n      tag_66\n      jump\t// in\n    tag_185:\n        /* \"#utility.yul\":10449:10880   */\n      pop\n      pop\n        /* \"#utility.yul\":10434:10880   */\n    tag_181:\n        /* \"#utility.yul\":10344:10887   */\n      pop\n      pop\n      pop\n      jump\t// out\n        /* \"#utility.yul\":10893:11010   */\n    tag_68:\n        /* \"#utility.yul\":10947:10955   */\n      0x00\n        /* \"#utility.yul\":10997:11002   */\n      dup3\n        /* \"#utility.yul\":10991:10995   */\n      dup3\n        /* \"#utility.yul\":10987:11003   */\n      shr\n        /* \"#utility.yul\":10966:11003   */\n      swap1\n      pop\n        /* \"#utility.yul\":10893:11010   */\n      swap3\n      swap2\n      pop\n      pop\n      jump\t// out\n        /* \"#utility.yul\":11016:11185   */\n    tag_69:\n        /* \"#utility.yul\":11060:11066   */\n      0x00\n        /* \"#utility.yul\":11093:11144   */\n      tag_189\n        /* \"#utility.yul\":11141:11142   */\n      0x00\n        /* \"#utility.yul\":11137:11143   */\n      not\n        /* \"#utility.yul\":11129:11134   */\n      dup5\n        /* \"#utility.yul\":11126:11127   */\n      0x08\n        /* \"#utility.yul\":11122:11135   */\n      mul\n        /* \"#utility.yul\":11093:11144   */\n      tag_68\n      jump\t// in\n    tag_189:\n        /* \"#utility.yul\":11089:11145   */\n      not\n        /* \"#utility.yul\":11174:11178   */\n      dup1\n        /* \"#utility.yul\":11168:11172   */\n      dup4\n        /* \"#utility.yul\":11164:11179   */\n      and\n        /* \"#utility.yul\":11154:11179   */\n      swap2\n      pop\n        /* \"#utility.yul\":11067:11185   */\n      pop\n        /* \"#utility.yul\":11016:11185   */\n      swap3\n      swap2\n      pop\n      pop\n      jump\t// out\n        /* \"#utility.yul\":11190:11485   */\n    tag_70:\n        /* \"#utility.yul\":11266:11270   */\n      0x00\n        /* \"#utility.yul\":11412:11441   */\n      tag_191\n        /* \"#utility.yul\":11437:11440   */\n      dup4\n        /* \"#utility.yul\":11431:11435   */\n      dup4\n        /* \"#utility.yul\":11412:11441   */\n      tag_69\n      jump\t// in\n    tag_191:\n        /* \"#utility.yul\":11404:11441   */\n      swap2\n      pop\n        /* \"#utility.yul\":11474:11477   */\n      dup3\n        /* \"#utility.yul\":11471:11472   */\n      0x02\n        /* \"#utility.yul\":11467:11478   */\n      mul\n        /* \"#utility.yul\":11461:11465   */\n      dup3\n        /* \"#utility.yul\":11458:11479   */\n      or\n        /* \"#utility.yul\":11450:11479   */\n      swap1\n      pop\n        /* \"#utility.yul\":11190:11485   */\n      swap3\n      swap2\n      pop\n      pop\n      jump\t// out\n        /* \"#utility.yul\":11490:12885   */\n    tag_26:\n        /* \"#utility.yul\":11607:11644   */\n      tag_193\n        /* \"#utility.yul\":11640:11643   */\n      dup3\n        /* \"#utility.yul\":11607:11644   */\n      tag_30\n      jump\t// in\n    tag_193:\n        /* \"#utility.yul\":11709:11727   */\n      0xffffffffffffffff\n        /* \"#utility.yul\":11701:11707   */\n      dup2\n        /* \"#utility.yul\":11698:11728   */\n      gt\n        /* \"#utility.yul\":11695:11751   */\n      iszero\n      tag_194\n      jumpi\n        /* \"#utility.yul\":11731:11749   */\n      tag_195\n      tag_46\n      jump\t// in\n    tag_195:\n        /* \"#utility.yul\":11695:11751   */\n    tag_194:\n        /* \"#utility.yul\":11775:11813   */\n      tag_196\n        /* \"#utility.yul\":11807:11811   */\n      dup3\n        /* \"#utility.yul\":11801:11812   */\n      sload\n        /* \"#utility.yul\":11775:11813   */\n      tag_18\n      jump\t// in\n    tag_196:\n        /* \"#utility.yul\":11860:11927   */\n      tag_197\n        /* \"#utility.yul\":11920:11926   */\n      dup3\n        /* \"#utility.yul\":11912:11918   */\n      dup3\n        /* \"#utility.yul\":11906:11910   */\n      dup6\n        /* \"#utility.yul\":11860:11927   */\n      tag_67\n      jump\t// in\n    tag_197:\n        /* \"#utility.yul\":11954:11955   */\n      0x00\n        /* \"#utility.yul\":11978:11982   */\n      0x20\n        /* \"#utility.yul\":11965:11982   */\n      swap1\n      pop\n        /* \"#utility.yul\":12010:12012   */\n      0x1f\n        /* \"#utility.yul\":12002:12008   */\n      dup4\n        /* \"#utility.yul\":11999:12013   */\n      gt\n        /* \"#utility.yul\":12027:12028   */\n      0x01\n        /* \"#utility.yul\":12022:12640   */\n      dup2\n      eq\n      tag_199\n      jumpi\n        /* \"#utility.yul\":12684:12685   */\n      0x00\n        /* \"#utility.yul\":12701:12707   */\n      dup5\n        /* \"#utility.yul\":12698:12775   */\n      iszero\n      tag_200\n      jumpi\n        /* \"#utility.yul\":12750:12759   */\n      dup3\n        /* \"#utility.yul\":12745:12748   */\n      dup8\n        /* \"#utility.yul\":12741:12760   */\n      add\n        /* \"#utility.yul\":12735:12761   */\n      mload\n        /* \"#utility.yul\":12726:12761   */\n      swap1\n      pop\n        /* \"#utility.yul\":12698:12775   */\n    tag_200:\n        /* \"#utility.yul\":12801:12868   */\n      tag_201\n        /* \"#utility.yul\":12861:12867   */\n      dup6\n        /* \"#utility.yul\":12854:12859   */\n      dup3\n        /* \"#utility.yul\":12801:12868   */\n      tag_70\n      jump\t// in\n    tag_201:\n        /* \"#utility.yul\":12795:12799   */\n      dup7\n        /* \"#utility.yul\":12788:12869   */\n      sstore\n        /* \"#utility.yul\":12657:12879   */\n      pop\n        /* \"#utility.yul\":11992:12879   */\n      jump(tag_198)\n        /* \"#utility.yul\":12022:12640   */\n    tag_199:\n        /* \"#utility.yul\":12074:12078   */\n      0x1f\n        /* \"#utility.yul\":12070:12079   */\n      not\n        /* \"#utility.yul\":12062:12068   */\n      dup5\n        /* \"#utility.yul\":12058:12080   */\n      and\n        /* \"#utility.yul\":12108:12145   */\n      tag_202\n        /* \"#utility.yul\":12140:12144   */\n      dup7\n        /* \"#utility.yul\":12108:12145   */\n      tag_56\n      jump\t// in\n    tag_202:\n        /* \"#utility.yul\":12167:12168   */\n      0x00\n        /* \"#utility.yul\":12181:12389   */\n    tag_203:\n        /* \"#utility.yul\":12195:12202   */\n      dup3\n        /* \"#utility.yul\":12192:12193   */\n      dup2\n        /* \"#utility.yul\":12189:12203   */\n      lt\n        /* \"#utility.yul\":12181:12389   */\n      iszero\n      tag_205\n      jumpi\n        /* \"#utility.yul\":12274:12283   */\n      dup5\n        /* \"#utility.yul\":12269:12272   */\n      dup10\n        /* \"#utility.yul\":12265:12284   */\n      add\n        /* \"#utility.yul\":12259:12285   */\n      mload\n        /* \"#utility.yul\":12251:12257   */\n      dup3\n        /* \"#utility.yul\":12244:12286   */\n      sstore\n        /* \"#utility.yul\":12325:12326   */\n      0x01\n        /* \"#utility.yul\":12317:12323   */\n      dup3\n        /* \"#utility.yul\":12313:12327   */\n      add\n        /* \"#utility.yul\":12303:12327   */\n      swap2\n      pop\n        /* \"#utility.yul\":12372:12374   */\n      0x20\n        /* \"#utility.yul\":12361:12370   */\n      dup6\n        /* \"#utility.yul\":12357:12375   */\n      add\n        /* \"#utility.yul\":12344:12375   */\n      swap5\n      pop\n        /* \"#utility.yul\":12218:12222   */\n      0x20\n        /* \"#utility.yul\":12215:12216   */\n      dup2\n        /* \"#utility.yul\":12211:12223   */\n      add\n        /* \"#utility.yul\":12206:12223   */\n      swap1\n      pop\n        /* \"#utility.yul\":12181:12389   */\n      jump(tag_203)\n    tag_205:\n        /* \"#utility.yul\":12417:12423   */\n      dup7\n        /* \"#utility.yul\":12408:12415   */\n      dup4\n        /* \"#utility.yul\":12405:12424   */\n      lt\n        /* \"#utility.yul\":12402:12581   */\n      iszero\n      tag_206\n      jumpi\n        /* \"#utility.yul\":12475:12484   */\n      dup5\n        /* \"#utility.yul\":12470:12473   */\n      dup10\n        /* \"#utility.yul\":12466:12485   */\n      add\n        /* \"#utility.yul\":12460:12486   */\n      mload\n        /* \"#utility.yul\":12518:12566   */\n      tag_207\n        /* \"#utility.yul\":12560:12564   */\n      0x1f\n        /* \"#utility.yul\":12552:12558   */\n      dup10\n        /* \"#utility.yul\":12548:12565   */\n      and\n        /* \"#utility.yul\":12537:12546   */\n      dup3\n        /* \"#utility.yul\":12518:12566   */\n      tag_69\n      jump\t// in\n    tag_207:\n        /* \"#utility.yul\":12510:12516   */\n      dup4\n        /* \"#utility.yul\":12503:12567   */\n      sstore\n        /* \"#utility.yul\":12425:12581   */\n      pop\n        /* \"#utility.yul\":12402:12581   */\n    tag_206:\n        /* \"#utility.yul\":12627:12628   */\n      0x01\n        /* \"#utility.yul\":12623:12624   */\n      0x02\n        /* \"#utility.yul\":12615:12621   */\n      dup9\n        /* \"#utility.yul\":12611:12625   */\n      mul\n        /* \"#utility.yul\":12607:12629   */\n      add\n        /* \"#utility.yul\":12601:12605   */\n      dup9\n        /* \"#utility.yul\":12594:12630   */\n      sstore\n        /* \"#utility.yul\":12029:12640   */\n      pop\n      pop\n      pop\n        /* \"#utility.yul\":11992:12879   */\n    tag_198:\n      pop\n        /* \"#utility.yul\":11582:12885   */\n      pop\n      pop\n      pop\n        /* \"#utility.yul\":11490:12885   */\n      pop\n      pop\n      jump\t// out\n\n    auxdata: 0xa26469706673582212200aaa387753e4702e39cf4da9a86fabb0447cd74760825421a504b18ba0a55ea264736f6c634300080f0033\n}\n",
				"bytecode": {
					"linkReferences": {},
					"object": "608060405234801561001057600080fd5b506108cf806100206000396000f3fe608060405234801561001057600080fd5b50600436106100365760003560e01c806347531df81461003b578063c8616da514610059575b600080fd5b610043610075565b60405161005091906103b5565b60405180910390f35b610073600480360381019061006e919061054c565b61017a565b005b60606000805480602002602001604051908101604052809291908181526020016000905b8282101561017157838290600052602060002090600302016040518060600160405290816000820180546100cc906105ea565b80601f01602080910402602001604051908101604052809291908181526020018280546100f8906105ea565b80156101455780601f1061011a57610100808354040283529160200191610145565b820191906000526020600020905b81548152906001019060200180831161012857829003601f168201915b505050505081526020016001820154815260200160028201548152505081526020019060010190610099565b50505050905090565b6000604051806060016040528085815260200184815260200183815250908060018154018082558091505060019003906000526020600020906003020160009091909190915060008201518160000190816101d591906107c7565b5060208201518160010155604082015181600201555050505050565b600081519050919050565b600082825260208201905092915050565b6000819050602082019050919050565b600081519050919050565b600082825260208201905092915050565b60005b8381101561025757808201518184015260208101905061023c565b83811115610266576000848401525b50505050565b6000601f19601f8301169050919050565b60006102888261021d565b6102928185610228565b93506102a2818560208601610239565b6102ab8161026c565b840191505092915050565b6000819050919050565b6102c9816102b6565b82525050565b600060608301600083015184820360008601526102ec828261027d565b915050602083015161030160208601826102c0565b50604083015161031460408601826102c0565b508091505092915050565b600061032b83836102cf565b905092915050565b6000602082019050919050565b600061034b826101f1565b61035581856101fc565b9350836020820285016103678561020d565b8060005b858110156103a35784840389528151610384858261031f565b945061038f83610333565b925060208a0199505060018101905061036b565b50829750879550505050505092915050565b600060208201905081810360008301526103cf8184610340565b905092915050565b6000604051905090565b600080fd5b600080fd5b600080fd5b600080fd5b7f4e487b7100000000000000000000000000000000000000000000000000000000600052604160045260246000fd5b61042d8261026c565b810181811067ffffffffffffffff8211171561044c5761044b6103f5565b5b80604052505050565b600061045f6103d7565b905061046b8282610424565b919050565b600067ffffffffffffffff82111561048b5761048a6103f5565b5b6104948261026c565b9050602081019050919050565b82818337600083830152505050565b60006104c36104be84610470565b610455565b9050828152602081018484840111156104df576104de6103f0565b5b6104ea8482856104a1565b509392505050565b600082601f830112610507576105066103eb565b5b81356105178482602086016104b0565b91505092915050565b610529816102b6565b811461053457600080fd5b50565b60008135905061054681610520565b92915050565b600080600060608486031215610565576105646103e1565b5b600084013567ffffffffffffffff811115610583576105826103e6565b5b61058f868287016104f2565b93505060206105a086828701610537565b92505060406105b186828701610537565b9150509250925092565b7f4e487b7100000000000000000000000000000000000000000000000000000000600052602260045260246000fd5b6000600282049050600182168061060257607f821691505b602082108103610615576106146105bb565b5b50919050565b60008190508160005260206000209050919050565b60006020601f8301049050919050565b600082821b905092915050565b60006008830261067d7fffffffffffffffffffffffffffffffffffffffffffffffffffffffffffffffff82610640565b6106878683610640565b95508019841693508086168417925050509392505050565b6000819050919050565b60006106c46106bf6106ba846102b6565b61069f565b6102b6565b9050919050565b6000819050919050565b6106de836106a9565b6106f26106ea826106cb565b84845461064d565b825550505050565b600090565b6107076106fa565b6107128184846106d5565b505050565b5b818110156107365761072b6000826106ff565b600181019050610718565b5050565b601f82111561077b5761074c8161061b565b61075584610630565b81016020851015610764578190505b61077861077085610630565b830182610717565b50505b505050565b600082821c905092915050565b600061079e60001984600802610780565b1980831691505092915050565b60006107b7838361078d565b9150826002028217905092915050565b6107d08261021d565b67ffffffffffffffff8111156107e9576107e86103f5565b5b6107f382546105ea565b6107fe82828561073a565b600060209050601f831160018114610831576000841561081f578287015190505b61082985826107ab565b865550610891565b601f19841661083f8661061b565b60005b8281101561086757848901518255600182019150602085019450602081019050610842565b868310156108845784890151610880601f89168261078d565b8355505b6001600288020188555050505b50505050505056fea26469706673582212200aaa387753e4702e39cf4da9a86fabb0447cd74760825421a504b18ba0a55ea264736f6c634300080f0033",
					"opcodes": "PUSH1 0x80 PUSH1 0x40 MSTORE CALLVALUE DUP1 ISZERO PUSH2 0x10 JUMPI PUSH1 0x0 DUP1 REVERT JUMPDEST POP PUSH2 0x8CF DUP1 PUSH2 0x20 PUSH1 0x0 CODECOPY PUSH1 0x0 RETURN INVALID PUSH1 0x80 PUSH1 0x40 MSTORE CALLVALUE DUP1 ISZERO PUSH2 0x10 JUMPI PUSH1 0x0 DUP1 REVERT JUMPDEST POP PUSH1 0x4 CALLDATASIZE LT PUSH2 0x36 JUMPI PUSH1 0x0 CALLDATALOAD PUSH1 0xE0 SHR DUP1 PUSH4 0x47531DF8 EQ PUSH2 0x3B JUMPI DUP1 PUSH4 0xC8616DA5 EQ PUSH2 0x59 JUMPI JUMPDEST PUSH1 0x0 DUP1 REVERT JUMPDEST PUSH2 0x43 PUSH2 0x75 JUMP JUMPDEST PUSH1 0x40 MLOAD PUSH2 0x50 SWAP2 SWAP1 PUSH2 0x3B5 JUMP JUMPDEST PUSH1 0x40 MLOAD DUP1 SWAP2 SUB SWAP1 RETURN JUMPDEST PUSH2 0x73 PUSH1 0x4 DUP1 CALLDATASIZE SUB DUP2 ADD SWAP1 PUSH2 0x6E SWAP2 SWAP1 PUSH2 0x54C JUMP JUMPDEST PUSH2 0x17A JUMP JUMPDEST STOP JUMPDEST PUSH1 0x60 PUSH1 0x0 DUP1 SLOAD DUP1 PUSH1 0x20 MUL PUSH1 0x20 ADD PUSH1 0x40 MLOAD SWAP1 DUP2 ADD PUSH1 0x40 MSTORE DUP1 SWAP3 SWAP2 SWAP1 DUP2 DUP2 MSTORE PUSH1 0x20 ADD PUSH1 0x0 SWAP1 JUMPDEST DUP3 DUP3 LT ISZERO PUSH2 0x171 JUMPI DUP4 DUP3 SWAP1 PUSH1 0x0 MSTORE PUSH1 0x20 PUSH1 0x0 KECCAK256 SWAP1 PUSH1 0x3 MUL ADD PUSH1 0x40 MLOAD DUP1 PUSH1 0x60 ADD PUSH1 0x40 MSTORE SWAP1 DUP2 PUSH1 0x0 DUP3 ADD DUP1 SLOAD PUSH2 0xCC SWAP1 PUSH2 0x5EA JUMP JUMPDEST DUP1 PUSH1 0x1F ADD PUSH1 0x20 DUP1 SWAP2 DIV MUL PUSH1 0x20 ADD PUSH1 0x40 MLOAD SWAP1 DUP2 ADD PUSH1 0x40 MSTORE DUP1 SWAP3 SWAP2 SWAP1 DUP2 DUP2 MSTORE PUSH1 0x20 ADD DUP3 DUP1 SLOAD PUSH2 0xF8 SWAP1 PUSH2 0x5EA JUMP JUMPDEST DUP1 ISZERO PUSH2 0x145 JUMPI DUP1 PUSH1 0x1F LT PUSH2 0x11A JUMPI PUSH2 0x100 DUP1 DUP4 SLOAD DIV MUL DUP4 MSTORE SWAP2 PUSH1 0x20 ADD SWAP2 PUSH2 0x145 JUMP JUMPDEST DUP3 ADD SWAP2 SWAP1 PUSH1 0x0 MSTORE PUSH1 0x20 PUSH1 0x0 KECCAK256 SWAP1 JUMPDEST DUP2 SLOAD DUP2 MSTORE SWAP1 PUSH1 0x1 ADD SWAP1 PUSH1 0x20 ADD DUP1 DUP4 GT PUSH2 0x128 JUMPI DUP3 SWAP1 SUB PUSH1 0x1F AND DUP3 ADD SWAP2 JUMPDEST POP POP POP POP POP DUP2 MSTORE PUSH1 0x20 ADD PUSH1 0x1 DUP3 ADD SLOAD DUP2 MSTORE PUSH1 0x20 ADD PUSH1 0x2 DUP3 ADD SLOAD DUP2 MSTORE POP POP DUP2 MSTORE PUSH1 0x20 ADD SWAP1 PUSH1 0x1 ADD SWAP1 PUSH2 0x99 JUMP JUMPDEST POP POP POP POP SWAP1 POP SWAP1 JUMP JUMPDEST PUSH1 0x0 PUSH1 0x40 MLOAD DUP1 PUSH1 0x60 ADD PUSH1 0x40 MSTORE DUP1 DUP6 DUP2 MSTORE PUSH1 0x20 ADD DUP5 DUP2 MSTORE PUSH1 0x20 ADD DUP4 DUP2 MSTORE POP SWAP1 DUP1 PUSH1 0x1 DUP2 SLOAD ADD DUP1 DUP3 SSTORE DUP1 SWAP2 POP POP PUSH1 0x1 SWAP1 SUB SWAP1 PUSH1 0x0 MSTORE PUSH1 0x20 PUSH1 0x0 KECCAK256 SWAP1 PUSH1 0x3 MUL ADD PUSH1 0x0 SWAP1 SWAP2 SWAP1 SWAP2 SWAP1 SWAP2 POP PUSH1 0x0 DUP3 ADD MLOAD DUP2 PUSH1 0x0 ADD SWAP1 DUP2 PUSH2 0x1D5 SWAP2 SWAP1 PUSH2 0x7C7 JUMP JUMPDEST POP PUSH1 0x20 DUP3 ADD MLOAD DUP2 PUSH1 0x1 ADD SSTORE PUSH1 0x40 DUP3 ADD MLOAD DUP2 PUSH1 0x2 ADD SSTORE POP POP POP POP POP JUMP JUMPDEST PUSH1 0x0 DUP2 MLOAD SWAP1 POP SWAP2 SWAP1 POP JUMP JUMPDEST PUSH1 0x0 DUP3 DUP3 MSTORE PUSH1 0x20 DUP3 ADD SWAP1 POP SWAP3 SWAP2 POP POP JUMP JUMPDEST PUSH1 0x0 DUP2 SWAP1 POP PUSH1 0x20 DUP3 ADD SWAP1 POP SWAP2 SWAP1 POP JUMP JUMPDEST PUSH1 0x0 DUP2 MLOAD SWAP1 POP SWAP2 SWAP1 POP JUMP JUMPDEST PUSH1 0x0 DUP3 DUP3 MSTORE PUSH1 0x20 DUP3 ADD SWAP1 POP SWAP3 SWAP2 POP POP JUMP JUMPDEST PUSH1 0x0 JUMPDEST DUP4 DUP2 LT ISZERO PUSH2 0x257 JUMPI DUP1 DUP3 ADD MLOAD DUP2 DUP5 ADD MSTORE PUSH1 0x20 DUP2 ADD SWAP1 POP PUSH2 0x23C JUMP JUMPDEST DUP4 DUP2 GT ISZERO PUSH2 0x266 JUMPI PUSH1 0x0 DUP5 DUP5 ADD MSTORE JUMPDEST POP POP POP POP JUMP JUMPDEST PUSH1 0x0 PUSH1 0x1F NOT PUSH1 0x1F DUP4 ADD AND SWAP1 POP SWAP2 SWAP1 POP JUMP JUMPDEST PUSH1 0x0 PUSH2 0x288 DUP3 PUSH2 0x21D JUMP JUMPDEST PUSH2 0x292 DUP2 DUP6 PUSH2 0x228 JUMP JUMPDEST SWAP4 POP PUSH2 0x2A2 DUP2 DUP6 PUSH1 0x20 DUP7 ADD PUSH2 0x239 JUMP JUMPDEST PUSH2 0x2AB DUP2 PUSH2 0x26C JUMP JUMPDEST DUP5 ADD SWAP2 POP POP SWAP3 SWAP2 POP POP JUMP JUMPDEST PUSH1 0x0 DUP2 SWAP1 POP SWAP2 SWAP1 POP JUMP JUMPDEST PUSH2 0x2C9 DUP2 PUSH2 0x2B6 JUMP JUMPDEST DUP3 MSTORE POP POP JUMP JUMPDEST PUSH1 0x0 PUSH1 0x60 DUP4 ADD PUSH1 0x0 DUP4 ADD MLOAD DUP5 DUP3 SUB PUSH1 0x0 DUP7 ADD MSTORE PUSH2 0x2EC DUP3 DUP3 PUSH2 0x27D JUMP JUMPDEST SWAP2 POP POP PUSH1 0x20 DUP4 ADD MLOAD PUSH2 0x301 PUSH1 0x20 DUP7 ADD DUP3 PUSH2 0x2C0 JUMP JUMPDEST POP PUSH1 0x40 DUP4 ADD MLOAD PUSH2 0x314 PUSH1 0x40 DUP7 ADD DUP3 PUSH2 0x2C0 JUMP JUMPDEST POP DUP1 SWAP2 POP POP SWAP3 SWAP2 POP POP JUMP JUMPDEST PUSH1 0x0 PUSH2 0x32B DUP4 DUP4 PUSH2 0x2CF JUMP JUMPDEST SWAP1 POP SWAP3 SWAP2 POP POP JUMP JUMPDEST PUSH1 0x0 PUSH1 0x20 DUP3 ADD SWAP1 POP SWAP2 SWAP1 POP JUMP JUMPDEST PUSH1 0x0 PUSH2 0x34B DUP3 PUSH2 0x1F1 JUMP JUMPDEST PUSH2 0x355 DUP2 DUP6 PUSH2 0x1FC JUMP JUMPDEST SWAP4 POP DUP4 PUSH1 0x20 DUP3 MUL DUP6 ADD PUSH2 0x367 DUP6 PUSH2 0x20D JUMP JUMPDEST DUP1 PUSH1 0x0 JUMPDEST DUP6 DUP2 LT ISZERO PUSH2 0x3A3 JUMPI DUP5 DUP5 SUB DUP10 MSTORE DUP2 MLOAD PUSH2 0x384 DUP6 DUP3 PUSH2 0x31F JUMP JUMPDEST SWAP5 POP PUSH2 0x38F DUP4 PUSH2 0x333 JUMP JUMPDEST SWAP3 POP PUSH1 0x20 DUP11 ADD SWAP10 POP POP PUSH1 0x1 DUP2 ADD SWAP1 POP PUSH2 0x36B JUMP JUMPDEST POP DUP3 SWAP8 POP DUP8 SWAP6 POP POP POP POP POP POP SWAP3 SWAP2 POP POP JUMP JUMPDEST PUSH1 0x0 PUSH1 0x20 DUP3 ADD SWAP1 POP DUP2 DUP2 SUB PUSH1 0x0 DUP4 ADD MSTORE PUSH2 0x3CF DUP2 DUP5 PUSH2 0x340 JUMP JUMPDEST SWAP1 POP SWAP3 SWAP2 POP POP JUMP JUMPDEST PUSH1 0x0 PUSH1 0x40 MLOAD SWAP1 POP SWAP1 JUMP JUMPDEST PUSH1 0x0 DUP1 REVERT JUMPDEST PUSH1 0x0 DUP1 REVERT JUMPDEST PUSH1 0x0 DUP1 REVERT JUMPDEST PUSH1 0x0 DUP1 REVERT JUMPDEST PUSH32 0x4E487B7100000000000000000000000000000000000000000000000000000000 PUSH1 0x0 MSTORE PUSH1 0x41 PUSH1 0x4 MSTORE PUSH1 0x24 PUSH1 0x0 REVERT JUMPDEST PUSH2 0x42D DUP3 PUSH2 0x26C JUMP JUMPDEST DUP2 ADD DUP2 DUP2 LT PUSH8 0xFFFFFFFFFFFFFFFF DUP3 GT OR ISZERO PUSH2 0x44C JUMPI PUSH2 0x44B PUSH2 0x3F5 JUMP JUMPDEST JUMPDEST DUP1 PUSH1 0x40 MSTORE POP POP POP JUMP JUMPDEST PUSH1 0x0 PUSH2 0x45F PUSH2 0x3D7 JUMP JUMPDEST SWAP1 POP PUSH2 0x46B DUP3 DUP3 PUSH2 0x424 JUMP JUMPDEST SWAP2 SWAP1 POP JUMP JUMPDEST PUSH1 0x0 PUSH8 0xFFFFFFFFFFFFFFFF DUP3 GT ISZERO PUSH2 0x48B JUMPI PUSH2 0x48A PUSH2 0x3F5 JUMP JUMPDEST JUMPDEST PUSH2 0x494 DUP3 PUSH2 0x26C JUMP JUMPDEST SWAP1 POP PUSH1 0x20 DUP2 ADD SWAP1 POP SWAP2 SWAP1 POP JUMP JUMPDEST DUP3 DUP2 DUP4 CALLDATACOPY PUSH1 0x0 DUP4 DUP4 ADD MSTORE POP POP POP JUMP JUMPDEST PUSH1 0x0 PUSH2 0x4C3 PUSH2 0x4BE DUP5 PUSH2 0x470 JUMP JUMPDEST PUSH2 0x455 JUMP JUMPDEST SWAP1 POP DUP3 DUP2 MSTORE PUSH1 0x20 DUP2 ADD DUP5 DUP5 DUP5 ADD GT ISZERO PUSH2 0x4DF JUMPI PUSH2 0x4DE PUSH2 0x3F0 JUMP JUMPDEST JUMPDEST PUSH2 0x4EA DUP5 DUP3 DUP6 PUSH2 0x4A1 JUMP JUMPDEST POP SWAP4 SWAP3 POP POP POP JUMP JUMPDEST PUSH1 0x0 DUP3 PUSH1 0x1F DUP4 ADD SLT PUSH2 0x507 JUMPI PUSH2 0x506 PUSH2 0x3EB JUMP JUMPDEST JUMPDEST DUP2 CALLDATALOAD PUSH2 0x517 DUP5 DUP3 PUSH1 0x20 DUP7 ADD PUSH2 0x4B0 JUMP JUMPDEST SWAP2 POP POP SWAP3 SWAP2 POP POP JUMP JUMPDEST PUSH2 0x529 DUP2 PUSH2 0x2B6 JUMP JUMPDEST DUP2 EQ PUSH2 0x534 JUMPI PUSH1 0x0 DUP1 REVERT JUMPDEST POP JUMP JUMPDEST PUSH1 0x0 DUP2 CALLDATALOAD SWAP1 POP PUSH2 0x546 DUP2 PUSH2 0x520 JUMP JUMPDEST SWAP3 SWAP2 POP POP JUMP JUMPDEST PUSH1 0x0 DUP1 PUSH1 0x0 PUSH1 0x60 DUP5 DUP7 SUB SLT ISZERO PUSH2 0x565 JUMPI PUSH2 0x564 PUSH2 0x3E1 JUMP JUMPDEST JUMPDEST PUSH1 0x0 DUP5 ADD CALLDATALOAD PUSH8 0xFFFFFFFFFFFFFFFF DUP2 GT ISZERO PUSH2 0x583 JUMPI PUSH2 0x582 PUSH2 0x3E6 JUMP JUMPDEST JUMPDEST PUSH2 0x58F DUP7 DUP3 DUP8 ADD PUSH2 0x4F2 JUMP JUMPDEST SWAP4 POP POP PUSH1 0x20 PUSH2 0x5A0 DUP7 DUP3 DUP8 ADD PUSH2 0x537 JUMP JUMPDEST SWAP3 POP POP PUSH1 0x40 PUSH2 0x5B1 DUP7 DUP3 DUP8 ADD PUSH2 0x537 JUMP JUMPDEST SWAP2 POP POP SWAP3 POP SWAP3 POP SWAP3 JUMP JUMPDEST PUSH32 0x4E487B7100000000000000000000000000000000000000000000000000000000 PUSH1 0x0 MSTORE PUSH1 0x22 PUSH1 0x4 MSTORE PUSH1 0x24 PUSH1 0x0 REVERT JUMPDEST PUSH1 0x0 PUSH1 0x2 DUP3 DIV SWAP1 POP PUSH1 0x1 DUP3 AND DUP1 PUSH2 0x602 JUMPI PUSH1 0x7F DUP3 AND SWAP2 POP JUMPDEST PUSH1 0x20 DUP3 LT DUP2 SUB PUSH2 0x615 JUMPI PUSH2 0x614 PUSH2 0x5BB JUMP JUMPDEST JUMPDEST POP SWAP2 SWAP1 POP JUMP JUMPDEST PUSH1 0x0 DUP2 SWAP1 POP DUP2 PUSH1 0x0 MSTORE PUSH1 0x20 PUSH1 0x0 KECCAK256 SWAP1 POP SWAP2 SWAP1 POP JUMP JUMPDEST PUSH1 0x0 PUSH1 0x20 PUSH1 0x1F DUP4 ADD DIV SWAP1 POP SWAP2 SWAP1 POP JUMP JUMPDEST PUSH1 0x0 DUP3 DUP3 SHL SWAP1 POP SWAP3 SWAP2 POP POP JUMP JUMPDEST PUSH1 0x0 PUSH1 0x8 DUP4 MUL PUSH2 0x67D PUSH32 0xFFFFFFFFFFFFFFFFFFFFFFFFFFFFFFFFFFFFFFFFFFFFFFFFFFFFFFFFFFFFFFFF DUP3 PUSH2 0x640 JUMP JUMPDEST PUSH2 0x687 DUP7 DUP4 PUSH2 0x640 JUMP JUMPDEST SWAP6 POP DUP1 NOT DUP5 AND SWAP4 POP DUP1 DUP7 AND DUP5 OR SWAP3 POP POP POP SWAP4 SWAP3 POP POP POP JUMP JUMPDEST PUSH1 0x0 DUP2 SWAP1 POP SWAP2 SWAP1 POP JUMP JUMPDEST PUSH1 0x0 PUSH2 0x6C4 PUSH2 0x6BF PUSH2 0x6BA DUP5 PUSH2 0x2B6 JUMP JUMPDEST PUSH2 0x69F JUMP JUMPDEST PUSH2 0x2B6 JUMP JUMPDEST SWAP1 POP SWAP2 SWAP1 POP JUMP JUMPDEST PUSH1 0x0 DUP2 SWAP1 POP SWAP2 SWAP1 POP JUMP JUMPDEST PUSH2 0x6DE DUP4 PUSH2 0x6A9 JUMP JUMPDEST PUSH2 0x6F2 PUSH2 0x6EA DUP3 PUSH2 0x6CB JUMP JUMPDEST DUP5 DUP5 SLOAD PUSH2 0x64D JUMP JUMPDEST DUP3 SSTORE POP POP POP POP JUMP JUMPDEST PUSH1 0x0 SWAP1 JUMP JUMPDEST PUSH2 0x707 PUSH2 0x6FA JUMP JUMPDEST PUSH2 0x712 DUP2 DUP5 DUP5 PUSH2 0x6D5 JUMP JUMPDEST POP POP POP JUMP JUMPDEST JUMPDEST DUP2 DUP2 LT ISZERO PUSH2 0x736 JUMPI PUSH2 0x72B PUSH1 0x0 DUP3 PUSH2 0x6FF JUMP JUMPDEST PUSH1 0x1 DUP2 ADD SWAP1 POP PUSH2 0x718 JUMP JUMPDEST POP POP JUMP JUMPDEST PUSH1 0x1F DUP3 GT ISZERO PUSH2 0x77B JUMPI PUSH2 0x74C DUP2 PUSH2 0x61B JUMP JUMPDEST PUSH2 0x755 DUP5 PUSH2 0x630 JUMP JUMPDEST DUP2 ADD PUSH1 0x20 DUP6 LT ISZERO PUSH2 0x764 JUMPI DUP2 SWAP1 POP JUMPDEST PUSH2 0x778 PUSH2 0x770 DUP6 PUSH2 0x630 JUMP JUMPDEST DUP4 ADD DUP3 PUSH2 0x717 JUMP JUMPDEST POP POP JUMPDEST POP POP POP JUMP JUMPDEST PUSH1 0x0 DUP3 DUP3 SHR SWAP1 POP SWAP3 SWAP2 POP POP JUMP JUMPDEST PUSH1 0x0 PUSH2 0x79E PUSH1 0x0 NOT DUP5 PUSH1 0x8 MUL PUSH2 0x780 JUMP JUMPDEST NOT DUP1 DUP4 AND SWAP2 POP POP SWAP3 SWAP2 POP POP JUMP JUMPDEST PUSH1 0x0 PUSH2 0x7B7 DUP4 DUP4 PUSH2 0x78D JUMP JUMPDEST SWAP2 POP DUP3 PUSH1 0x2 MUL DUP3 OR SWAP1 POP SWAP3 SWAP2 POP POP JUMP JUMPDEST PUSH2 0x7D0 DUP3 PUSH2 0x21D JUMP JUMPDEST PUSH8 0xFFFFFFFFFFFFFFFF DUP2 GT ISZERO PUSH2 0x7E9 JUMPI PUSH2 0x7E8 PUSH2 0x3F5 JUMP JUMPDEST JUMPDEST PUSH2 0x7F3 DUP3 SLOAD PUSH2 0x5EA JUMP JUMPDEST PUSH2 0x7FE DUP3 DUP3 DUP6 PUSH2 0x73A JUMP JUMPDEST PUSH1 0x0 PUSH1 0x20 SWAP1 POP PUSH1 0x1F DUP4 GT PUSH1 0x1 DUP2 EQ PUSH2 0x831 JUMPI PUSH1 0x0 DUP5 ISZERO PUSH2 0x81F JUMPI DUP3 DUP8 ADD MLOAD SWAP1 POP JUMPDEST PUSH2 0x829 DUP6 DUP3 PUSH2 0x7AB JUMP JUMPDEST DUP7 SSTORE POP PUSH2 0x891 JUMP JUMPDEST PUSH1 0x1F NOT DUP5 AND PUSH2 0x83F DUP7 PUSH2 0x61B JUMP JUMPDEST PUSH1 0x0 JUMPDEST DUP3 DUP2 LT ISZERO PUSH2 0x867 JUMPI DUP5 DUP10 ADD MLOAD DUP3 SSTORE PUSH1 0x1 DUP3 ADD SWAP2 POP PUSH1 0x20 DUP6 ADD SWAP5 POP PUSH1 0x20 DUP2 ADD SWAP1 POP PUSH2 0x842 JUMP JUMPDEST DUP7 DUP4 LT ISZERO PUSH2 0x884 JUMPI DUP5 DUP10 ADD MLOAD PUSH2 0x880 PUSH1 0x1F DUP10 AND DUP3 PUSH2 0x78D JUMP JUMPDEST DUP4 SSTORE POP JUMPDEST PUSH1 0x1 PUSH1 0x2 DUP9 MUL ADD DUP9 SSTORE POP POP POP JUMPDEST POP POP POP POP POP POP JUMP INVALID LOG2 PUSH5 0x6970667358 0x22 SLT KECCAK256 EXP 0xAA CODESIZE PUSH24 0x53E4702E39CF4DA9A86FABB0447CD74760825421A504B18B LOG0 0xA5 0x5E LOG2 PUSH5 0x736F6C6343 STOP ADDMOD 0xF STOP CALLER "
				},
				"gasEstimates": {
					"creation": {
						"codeDepositCost": "451000",
						"executionCost": "486",
						"totalCost": "451486"
					},
					"external": {
						"add(string,uint256,uint256)": "infinite",
						"getAllUser()": "infinite"
					}
				},
				"methodIdentifiers": {
					"add(string,uint256,uint256)": "c8616da5",
					"getAllUser()": "47531df8"
				}
			},
			"storageLayout": {
				"storage": [
					{
						"astId": 12,
						"contract": "array2.sol:ArrayTest",
						"label": "list",
						"offset": 0,
						"slot": "0",
						"type": "t_array(t_struct(User)8_storage)dyn_storage"
					},
					{
						"astId": 18,
						"contract": "array2.sol:ArrayTest",
						"label": "Obj",
						"offset": 0,
						"slot": "1",
						"type": "t_mapping(t_uint256,t_array(t_struct(User)8_storage)dyn_storage)"
					}
				],
				"types": {
					"t_array(t_struct(User)8_storage)dyn_storage": {
						"base": "t_struct(User)8_storage",
						"encoding": "dynamic_array",
						"label": "struct ArrayTest.User[]",
						"numberOfBytes": "32"
					},
					"t_mapping(t_uint256,t_array(t_struct(User)8_storage)dyn_storage)": {
						"encoding": "mapping",
						"key": "t_uint256",
						"label": "mapping(uint256 => struct ArrayTest.User[])",
						"numberOfBytes": "32",
						"value": "t_array(t_struct(User)8_storage)dyn_storage"
					},
					"t_string_storage": {
						"encoding": "bytes",
						"label": "string",
						"numberOfBytes": "32"
					},
					"t_struct(User)8_storage": {
						"encoding": "inplace",
						"label": "struct ArrayTest.User",
						"members": [
							{
								"astId": 3,
								"contract": "array2.sol:ArrayTest",
								"label": "name",
								"offset": 0,
								"slot": "0",
								"type": "t_string_storage"
							},
							{
								"astId": 5,
								"contract": "array2.sol:ArrayTest",
								"label": "age",
								"offset": 0,
								"slot": "1",
								"type": "t_uint256"
							},
							{
								"astId": 7,
								"contract": "array2.sol:ArrayTest",
								"label": "gender",
								"offset": 0,
								"slot": "2",
								"type": "t_uint256"
							}
						],
						"numberOfBytes": "96"
					},
					"t_uint256": {
						"encoding": "inplace",
						"label": "uint256",
						"numberOfBytes": "32"
					}
				}
			},
			"userdoc": {
				"kind": "user",
				"methods": {},
				"version": 1
			}
		}
	}
}