{
	"crowdfunding.sol": {
		"CrowdfundingContract": {
			"abi": [
				{
					"inputs": [
						{
							"internalType": "string",
							"name": "_title",
							"type": "string"
						},
						{
							"internalType": "address",
							"name": "_recipient",
							"type": "address"
						},
						{
							"internalType": "string",
							"name": "_expectAmout",
							"type": "string"
						}
					],
					"name": "createCrowdfunding",
					"outputs": [],
					"stateMutability": "nonpayable",
					"type": "function"
				},
				{
					"inputs": [
						{
							"internalType": "uint256",
							"name": "_status",
							"type": "uint256"
						}
					],
					"name": "getCrowdfundingByStatus",
					"outputs": [
						{
							"components": [
								{
									"internalType": "uint256",
									"name": "num",
									"type": "uint256"
								},
								{
									"internalType": "string",
									"name": "title",
									"type": "string"
								},
								{
									"internalType": "uint256",
									"name": "status",
									"type": "uint256"
								},
								{
									"internalType": "address",
									"name": "creator",
									"type": "address"
								},
								{
									"internalType": "address",
									"name": "recipient",
									"type": "address"
								},
								{
									"internalType": "uint256",
									"name": "joinNum",
									"type": "uint256"
								},
								{
									"internalType": "string",
									"name": "expectAmout",
									"type": "string"
								},
								{
									"internalType": "string",
									"name": "actualAmount",
									"type": "string"
								}
							],
							"internalType": "struct CrowdfundingContract.Crowdfunding[]",
							"name": "",
							"type": "tuple[]"
						}
					],
					"stateMutability": "view",
					"type": "function"
				},
				{
					"inputs": [],
					"name": "getList",
					"outputs": [
						{
							"components": [
								{
									"internalType": "uint256",
									"name": "num",
									"type": "uint256"
								},
								{
									"internalType": "string",
									"name": "title",
									"type": "string"
								},
								{
									"internalType": "uint256",
									"name": "status",
									"type": "uint256"
								},
								{
									"internalType": "address",
									"name": "creator",
									"type": "address"
								},
								{
									"internalType": "address",
									"name": "recipient",
									"type": "address"
								},
								{
									"internalType": "uint256",
									"name": "joinNum",
									"type": "uint256"
								},
								{
									"internalType": "string",
									"name": "expectAmout",
									"type": "string"
								},
								{
									"internalType": "string",
									"name": "actualAmount",
									"type": "string"
								}
							],
							"internalType": "struct CrowdfundingContract.Crowdfunding[]",
							"name": "",
							"type": "tuple[]"
						}
					],
					"stateMutability": "view",
					"type": "function"
				},
				{
					"inputs": [
						{
							"internalType": "uint256",
							"name": "",
							"type": "uint256"
						}
					],
					"name": "list",
					"outputs": [
						{
							"internalType": "uint256",
							"name": "num",
							"type": "uint256"
						},
						{
							"internalType": "string",
							"name": "title",
							"type": "string"
						},
						{
							"internalType": "uint256",
							"name": "status",
							"type": "uint256"
						},
						{
							"internalType": "address",
							"name": "creator",
							"type": "address"
						},
						{
							"internalType": "address",
							"name": "recipient",
							"type": "address"
						},
						{
							"internalType": "uint256",
							"name": "joinNum",
							"type": "uint256"
						},
						{
							"internalType": "string",
							"name": "expectAmout",
							"type": "string"
						},
						{
							"internalType": "string",
							"name": "actualAmount",
							"type": "string"
						}
					],
					"stateMutability": "view",
					"type": "function"
				},
				{
					"inputs": [
						{
							"internalType": "uint256",
							"name": "_status",
							"type": "uint256"
						}
					],
					"name": "setStatus",
					"outputs": [],
					"stateMutability": "view",
					"type": "function"
				}
			],
			"devdoc": {
				"kind": "dev",
				"methods": {},
				"version": 1
			},
			"evm": {
				"assembly": "    /* \"crowdfunding.sol\":60:1544  contract CrowdfundingContract {... */\n  mstore(0x40, 0x80)\n  callvalue\n  dup1\n  iszero\n  tag_1\n  jumpi\n  0x00\n  dup1\n  revert\ntag_1:\n  pop\n  dataSize(sub_0)\n  dup1\n  dataOffset(sub_0)\n  0x00\n  codecopy\n  0x00\n  return\nstop\n\nsub_0: assembly {\n        /* \"crowdfunding.sol\":60:1544  contract CrowdfundingContract {... */\n      mstore(0x40, 0x80)\n      callvalue\n      dup1\n      iszero\n      tag_1\n      jumpi\n      0x00\n      dup1\n      revert\n    tag_1:\n      pop\n      jumpi(tag_2, lt(calldatasize, 0x04))\n      shr(0xe0, calldataload(0x00))\n      dup1\n      0x69ba1a75\n      eq\n      tag_3\n      jumpi\n      dup1\n      0x80c9419e\n      eq\n      tag_4\n      jumpi\n      dup1\n      0x904cc175\n      eq\n      tag_5\n      jumpi\n      dup1\n      0x942b765a\n      eq\n      tag_6\n      jumpi\n      dup1\n      0xa97af4d5\n      eq\n      tag_7\n      jumpi\n    tag_2:\n      0x00\n      dup1\n      revert\n        /* \"crowdfunding.sol\":1232:1287  function setStatus(uint _status) public view {... */\n    tag_3:\n      tag_8\n      0x04\n      dup1\n      calldatasize\n      sub\n      dup2\n      add\n      swap1\n      tag_9\n      swap2\n      swap1\n      tag_10\n      jump\t// in\n    tag_9:\n      tag_11\n      jump\t// in\n    tag_8:\n      stop\n        /* \"crowdfunding.sol\":583:609  Crowdfunding[] public list */\n    tag_4:\n      tag_12\n      0x04\n      dup1\n      calldatasize\n      sub\n      dup2\n      add\n      swap1\n      tag_13\n      swap2\n      swap1\n      tag_10\n      jump\t// in\n    tag_13:\n      tag_14\n      jump\t// in\n    tag_12:\n      mload(0x40)\n      tag_15\n      swap9\n      swap8\n      swap7\n      swap6\n      swap5\n      swap4\n      swap3\n      swap2\n      swap1\n      tag_16\n      jump\t// in\n    tag_15:\n      mload(0x40)\n      dup1\n      swap2\n      sub\n      swap1\n      return\n        /* \"crowdfunding.sol\":1396:1539  function getCrowdfundingByStatus(uint _status) public view returns (Crowdfunding[] memory){... */\n    tag_5:\n      tag_17\n      0x04\n      dup1\n      calldatasize\n      sub\n      dup2\n      add\n      swap1\n      tag_18\n      swap2\n      swap1\n      tag_10\n      jump\t// in\n    tag_18:\n      tag_19\n      jump\t// in\n    tag_17:\n      mload(0x40)\n      tag_20\n      swap2\n      swap1\n      tag_21\n      jump\t// in\n    tag_20:\n      mload(0x40)\n      dup1\n      swap2\n      sub\n      swap1\n      return\n        /* \"crowdfunding.sol\":1295:1388  function getList() public view returns (Crowdfunding[] memory) {... */\n    tag_6:\n      tag_22\n      tag_23\n      jump\t// in\n    tag_22:\n      mload(0x40)\n      tag_24\n      swap2\n      swap1\n      tag_21\n      jump\t// in\n    tag_24:\n      mload(0x40)\n      dup1\n      swap2\n      sub\n      swap1\n      return\n        /* \"crowdfunding.sol\":726:1224  function createCrowdfunding(string memory _title,address _recipient, string memory _expectAmout) public {... */\n    tag_7:\n      tag_25\n      0x04\n      dup1\n      calldatasize\n      sub\n      dup2\n      add\n      swap1\n      tag_26\n      swap2\n      swap1\n      tag_27\n      jump\t// in\n    tag_26:\n      tag_28\n      jump\t// in\n    tag_25:\n      stop\n        /* \"crowdfunding.sol\":1232:1287  function setStatus(uint _status) public view {... */\n    tag_11:\n      pop\n      jump\t// out\n        /* \"crowdfunding.sol\":583:609  Crowdfunding[] public list */\n    tag_14:\n      0x01\n      dup2\n      dup2\n      sload\n      dup2\n      lt\n      tag_30\n      jumpi\n      0x00\n      dup1\n      revert\n    tag_30:\n      swap1\n      0x00\n      mstore\n      keccak256(0x00, 0x20)\n      swap1\n      0x08\n      mul\n      add\n      0x00\n      swap2\n      pop\n      swap1\n      pop\n      dup1\n      0x00\n      add\n      sload\n      swap1\n      dup1\n      0x01\n      add\n      dup1\n      sload\n      tag_32\n      swap1\n      tag_33\n      jump\t// in\n    tag_32:\n      dup1\n      0x1f\n      add\n      0x20\n      dup1\n      swap2\n      div\n      mul\n      0x20\n      add\n      mload(0x40)\n      swap1\n      dup2\n      add\n      0x40\n      mstore\n      dup1\n      swap3\n      swap2\n      swap1\n      dup2\n      dup2\n      mstore\n      0x20\n      add\n      dup3\n      dup1\n      sload\n      tag_34\n      swap1\n      tag_33\n      jump\t// in\n    tag_34:\n      dup1\n      iszero\n      tag_35\n      jumpi\n      dup1\n      0x1f\n      lt\n      tag_36\n      jumpi\n      0x0100\n      dup1\n      dup4\n      sload\n      div\n      mul\n      dup4\n      mstore\n      swap2\n      0x20\n      add\n      swap2\n      jump(tag_35)\n    tag_36:\n      dup3\n      add\n      swap2\n      swap1\n      0x00\n      mstore\n      keccak256(0x00, 0x20)\n      swap1\n    tag_37:\n      dup2\n      sload\n      dup2\n      mstore\n      swap1\n      0x01\n      add\n      swap1\n      0x20\n      add\n      dup1\n      dup4\n      gt\n      tag_37\n      jumpi\n      dup3\n      swap1\n      sub\n      0x1f\n      and\n      dup3\n      add\n      swap2\n    tag_35:\n      pop\n      pop\n      pop\n      pop\n      pop\n      swap1\n      dup1\n      0x02\n      add\n      sload\n      swap1\n      dup1\n      0x03\n      add\n      0x00\n      swap1\n      sload\n      swap1\n      0x0100\n      exp\n      swap1\n      div\n      0xffffffffffffffffffffffffffffffffffffffff\n      and\n      swap1\n      dup1\n      0x04\n      add\n      0x00\n      swap1\n      sload\n      swap1\n      0x0100\n      exp\n      swap1\n      div\n      0xffffffffffffffffffffffffffffffffffffffff\n      and\n      swap1\n      dup1\n      0x05\n      add\n      sload\n      swap1\n      dup1\n      0x06\n      add\n      dup1\n      sload\n      tag_38\n      swap1\n      tag_33\n      jump\t// in\n    tag_38:\n      dup1\n      0x1f\n      add\n      0x20\n      dup1\n      swap2\n      div\n      mul\n      0x20\n      add\n      mload(0x40)\n      swap1\n      dup2\n      add\n      0x40\n      mstore\n      dup1\n      swap3\n      swap2\n      swap1\n      dup2\n      dup2\n      mstore\n      0x20\n      add\n      dup3\n      dup1\n      sload\n      tag_39\n      swap1\n      tag_33\n      jump\t// in\n    tag_39:\n      dup1\n      iszero\n      tag_40\n      jumpi\n      dup1\n      0x1f\n      lt\n      tag_41\n      jumpi\n      0x0100\n      dup1\n      dup4\n      sload\n      div\n      mul\n      dup4\n      mstore\n      swap2\n      0x20\n      add\n      swap2\n      jump(tag_40)\n    tag_41:\n      dup3\n      add\n      swap2\n      swap1\n      0x00\n      mstore\n      keccak256(0x00, 0x20)\n      swap1\n    tag_42:\n      dup2\n      sload\n      dup2\n      mstore\n      swap1\n      0x01\n      add\n      swap1\n      0x20\n      add\n      dup1\n      dup4\n      gt\n      tag_42\n      jumpi\n      dup3\n      swap1\n      sub\n      0x1f\n      and\n      dup3\n      add\n      swap2\n    tag_40:\n      pop\n      pop\n      pop\n      pop\n      pop\n      swap1\n      dup1\n      0x07\n      add\n      dup1\n      sload\n      tag_43\n      swap1\n      tag_33\n      jump\t// in\n    tag_43:\n      dup1\n      0x1f\n      add\n      0x20\n      dup1\n      swap2\n      div\n      mul\n      0x20\n      add\n      mload(0x40)\n      swap1\n      dup2\n      add\n      0x40\n      mstore\n      dup1\n      swap3\n      swap2\n      swap1\n      dup2\n      dup2\n      mstore\n      0x20\n      add\n      dup3\n      dup1\n      sload\n      tag_44\n      swap1\n      tag_33\n      jump\t// in\n    tag_44:\n      dup1\n      iszero\n      tag_45\n      jumpi\n      dup1\n      0x1f\n      lt\n      tag_46\n      jumpi\n      0x0100\n      dup1\n      dup4\n      sload\n      div\n      mul\n      dup4\n      mstore\n      swap2\n      0x20\n      add\n      swap2\n      jump(tag_45)\n    tag_46:\n      dup3\n      add\n      swap2\n      swap1\n      0x00\n      mstore\n      keccak256(0x00, 0x20)\n      swap1\n    tag_47:\n      dup2\n      sload\n      dup2\n      mstore\n      swap1\n      0x01\n      add\n      swap1\n      0x20\n      add\n      dup1\n      dup4\n      gt\n      tag_47\n      jumpi\n      dup3\n      swap1\n      sub\n      0x1f\n      and\n      dup3\n      add\n      swap2\n    tag_45:\n      pop\n      pop\n      pop\n      pop\n      pop\n      swap1\n      pop\n      dup9\n      jump\t// out\n        /* \"crowdfunding.sol\":1396:1539  function getCrowdfundingByStatus(uint _status) public view returns (Crowdfunding[] memory){... */\n    tag_19:\n        /* \"crowdfunding.sol\":1464:1485  Crowdfunding[] memory */\n      0x60\n        /* \"crowdfunding.sol\":1504:1522  filterDataByStatus */\n      0x02\n        /* \"crowdfunding.sol\":1504:1531  filterDataByStatus[_status] */\n      0x00\n        /* \"crowdfunding.sol\":1523:1530  _status */\n      dup4\n        /* \"crowdfunding.sol\":1504:1531  filterDataByStatus[_status] */\n      dup2\n      mstore\n      0x20\n      add\n      swap1\n      dup2\n      mstore\n      0x20\n      add\n      0x00\n      keccak256\n        /* \"crowdfunding.sol\":1497:1531  return filterDataByStatus[_status] */\n      dup1\n      sload\n      dup1\n      0x20\n      mul\n      0x20\n      add\n      mload(0x40)\n      swap1\n      dup2\n      add\n      0x40\n      mstore\n      dup1\n      swap3\n      swap2\n      swap1\n      dup2\n      dup2\n      mstore\n      0x20\n      add\n      0x00\n      swap1\n    tag_49:\n      dup3\n      dup3\n      lt\n      iszero\n      tag_50\n      jumpi\n      dup4\n      dup3\n      swap1\n      0x00\n      mstore\n      keccak256(0x00, 0x20)\n      swap1\n      0x08\n      mul\n      add\n      mload(0x40)\n      dup1\n      0x0100\n      add\n      0x40\n      mstore\n      swap1\n      dup2\n      0x00\n      dup3\n      add\n      sload\n      dup2\n      mstore\n      0x20\n      add\n      0x01\n      dup3\n      add\n      dup1\n      sload\n      tag_52\n      swap1\n      tag_33\n      jump\t// in\n    tag_52:\n      dup1\n      0x1f\n      add\n      0x20\n      dup1\n      swap2\n      div\n      mul\n      0x20\n      add\n      mload(0x40)\n      swap1\n      dup2\n      add\n      0x40\n      mstore\n      dup1\n      swap3\n      swap2\n      swap1\n      dup2\n      dup2\n      mstore\n      0x20\n      add\n      dup3\n      dup1\n      sload\n      tag_53\n      swap1\n      tag_33\n      jump\t// in\n    tag_53:\n      dup1\n      iszero\n      tag_54\n      jumpi\n      dup1\n      0x1f\n      lt\n      tag_55\n      jumpi\n      0x0100\n      dup1\n      dup4\n      sload\n      div\n      mul\n      dup4\n      mstore\n      swap2\n      0x20\n      add\n      swap2\n      jump(tag_54)\n    tag_55:\n      dup3\n      add\n      swap2\n      swap1\n      0x00\n      mstore\n      keccak256(0x00, 0x20)\n      swap1\n    tag_56:\n      dup2\n      sload\n      dup2\n      mstore\n      swap1\n      0x01\n      add\n      swap1\n      0x20\n      add\n      dup1\n      dup4\n      gt\n      tag_56\n      jumpi\n      dup3\n      swap1\n      sub\n      0x1f\n      and\n      dup3\n      add\n      swap2\n    tag_54:\n      pop\n      pop\n      pop\n      pop\n      pop\n      dup2\n      mstore\n      0x20\n      add\n      0x02\n      dup3\n      add\n      sload\n      dup2\n      mstore\n      0x20\n      add\n      0x03\n      dup3\n      add\n      0x00\n      swap1\n      sload\n      swap1\n      0x0100\n      exp\n      swap1\n      div\n      0xffffffffffffffffffffffffffffffffffffffff\n      and\n      0xffffffffffffffffffffffffffffffffffffffff\n      and\n      0xffffffffffffffffffffffffffffffffffffffff\n      and\n      dup2\n      mstore\n      0x20\n      add\n      0x04\n      dup3\n      add\n      0x00\n      swap1\n      sload\n      swap1\n      0x0100\n      exp\n      swap1\n      div\n      0xffffffffffffffffffffffffffffffffffffffff\n      and\n      0xffffffffffffffffffffffffffffffffffffffff\n      and\n      0xffffffffffffffffffffffffffffffffffffffff\n      and\n      dup2\n      mstore\n      0x20\n      add\n      0x05\n      dup3\n      add\n      sload\n      dup2\n      mstore\n      0x20\n      add\n      0x06\n      dup3\n      add\n      dup1\n      sload\n      tag_57\n      swap1\n      tag_33\n      jump\t// in\n    tag_57:\n      dup1\n      0x1f\n      add\n      0x20\n      dup1\n      swap2\n      div\n      mul\n      0x20\n      add\n      mload(0x40)\n      swap1\n      dup2\n      add\n      0x40\n      mstore\n      dup1\n      swap3\n      swap2\n      swap1\n      dup2\n      dup2\n      mstore\n      0x20\n      add\n      dup3\n      dup1\n      sload\n      tag_58\n      swap1\n      tag_33\n      jump\t// in\n    tag_58:\n      dup1\n      iszero\n      tag_59\n      jumpi\n      dup1\n      0x1f\n      lt\n      tag_60\n      jumpi\n      0x0100\n      dup1\n      dup4\n      sload\n      div\n      mul\n      dup4\n      mstore\n      swap2\n      0x20\n      add\n      swap2\n      jump(tag_59)\n    tag_60:\n      dup3\n      add\n      swap2\n      swap1\n      0x00\n      mstore\n      keccak256(0x00, 0x20)\n      swap1\n    tag_61:\n      dup2\n      sload\n      dup2\n      mstore\n      swap1\n      0x01\n      add\n      swap1\n      0x20\n      add\n      dup1\n      dup4\n      gt\n      tag_61\n      jumpi\n      dup3\n      swap1\n      sub\n      0x1f\n      and\n      dup3\n      add\n      swap2\n    tag_59:\n      pop\n      pop\n      pop\n      pop\n      pop\n      dup2\n      mstore\n      0x20\n      add\n      0x07\n      dup3\n      add\n      dup1\n      sload\n      tag_62\n      swap1\n      tag_33\n      jump\t// in\n    tag_62:\n      dup1\n      0x1f\n      add\n      0x20\n      dup1\n      swap2\n      div\n      mul\n      0x20\n      add\n      mload(0x40)\n      swap1\n      dup2\n      add\n      0x40\n      mstore\n      dup1\n      swap3\n      swap2\n      swap1\n      dup2\n      dup2\n      mstore\n      0x20\n      add\n      dup3\n      dup1\n      sload\n      tag_63\n      swap1\n      tag_33\n      jump\t// in\n    tag_63:\n      dup1\n      iszero\n      tag_64\n      jumpi\n      dup1\n      0x1f\n      lt\n      tag_65\n      jumpi\n      0x0100\n      dup1\n      dup4\n      sload\n      div\n      mul\n      dup4\n      mstore\n      swap2\n      0x20\n      add\n      swap2\n      jump(tag_64)\n    tag_65:\n      dup3\n      add\n      swap2\n      swap1\n      0x00\n      mstore\n      keccak256(0x00, 0x20)\n      swap1\n    tag_66:\n      dup2\n      sload\n      dup2\n      mstore\n      swap1\n      0x01\n      add\n      swap1\n      0x20\n      add\n      dup1\n      dup4\n      gt\n      tag_66\n      jumpi\n      dup3\n      swap1\n      sub\n      0x1f\n      and\n      dup3\n      add\n      swap2\n    tag_64:\n      pop\n      pop\n      pop\n      pop\n      pop\n      dup2\n      mstore\n      pop\n      pop\n      dup2\n      mstore\n      0x20\n      add\n      swap1\n      0x01\n      add\n      swap1\n      jump(tag_49)\n    tag_50:\n      pop\n      pop\n      pop\n      pop\n      swap1\n      pop\n        /* \"crowdfunding.sol\":1396:1539  function getCrowdfundingByStatus(uint _status) public view returns (Crowdfunding[] memory){... */\n      swap2\n      swap1\n      pop\n      jump\t// out\n        /* \"crowdfunding.sol\":1295:1388  function getList() public view returns (Crowdfunding[] memory) {... */\n    tag_23:\n        /* \"crowdfunding.sol\":1335:1356  Crowdfunding[] memory */\n      0x60\n        /* \"crowdfunding.sol\":1376:1380  list */\n      0x01\n        /* \"crowdfunding.sol\":1369:1380  return list */\n      dup1\n      sload\n      dup1\n      0x20\n      mul\n      0x20\n      add\n      mload(0x40)\n      swap1\n      dup2\n      add\n      0x40\n      mstore\n      dup1\n      swap3\n      swap2\n      swap1\n      dup2\n      dup2\n      mstore\n      0x20\n      add\n      0x00\n      swap1\n    tag_68:\n      dup3\n      dup3\n      lt\n      iszero\n      tag_69\n      jumpi\n      dup4\n      dup3\n      swap1\n      0x00\n      mstore\n      keccak256(0x00, 0x20)\n      swap1\n      0x08\n      mul\n      add\n      mload(0x40)\n      dup1\n      0x0100\n      add\n      0x40\n      mstore\n      swap1\n      dup2\n      0x00\n      dup3\n      add\n      sload\n      dup2\n      mstore\n      0x20\n      add\n      0x01\n      dup3\n      add\n      dup1\n      sload\n      tag_71\n      swap1\n      tag_33\n      jump\t// in\n    tag_71:\n      dup1\n      0x1f\n      add\n      0x20\n      dup1\n      swap2\n      div\n      mul\n      0x20\n      add\n      mload(0x40)\n      swap1\n      dup2\n      add\n      0x40\n      mstore\n      dup1\n      swap3\n      swap2\n      swap1\n      dup2\n      dup2\n      mstore\n      0x20\n      add\n      dup3\n      dup1\n      sload\n      tag_72\n      swap1\n      tag_33\n      jump\t// in\n    tag_72:\n      dup1\n      iszero\n      tag_73\n      jumpi\n      dup1\n      0x1f\n      lt\n      tag_74\n      jumpi\n      0x0100\n      dup1\n      dup4\n      sload\n      div\n      mul\n      dup4\n      mstore\n      swap2\n      0x20\n      add\n      swap2\n      jump(tag_73)\n    tag_74:\n      dup3\n      add\n      swap2\n      swap1\n      0x00\n      mstore\n      keccak256(0x00, 0x20)\n      swap1\n    tag_75:\n      dup2\n      sload\n      dup2\n      mstore\n      swap1\n      0x01\n      add\n      swap1\n      0x20\n      add\n      dup1\n      dup4\n      gt\n      tag_75\n      jumpi\n      dup3\n      swap1\n      sub\n      0x1f\n      and\n      dup3\n      add\n      swap2\n    tag_73:\n      pop\n      pop\n      pop\n      pop\n      pop\n      dup2\n      mstore\n      0x20\n      add\n      0x02\n      dup3\n      add\n      sload\n      dup2\n      mstore\n      0x20\n      add\n      0x03\n      dup3\n      add\n      0x00\n      swap1\n      sload\n      swap1\n      0x0100\n      exp\n      swap1\n      div\n      0xffffffffffffffffffffffffffffffffffffffff\n      and\n      0xffffffffffffffffffffffffffffffffffffffff\n      and\n      0xffffffffffffffffffffffffffffffffffffffff\n      and\n      dup2\n      mstore\n      0x20\n      add\n      0x04\n      dup3\n      add\n      0x00\n      swap1\n      sload\n      swap1\n      0x0100\n      exp\n      swap1\n      div\n      0xffffffffffffffffffffffffffffffffffffffff\n      and\n      0xffffffffffffffffffffffffffffffffffffffff\n      and\n      0xffffffffffffffffffffffffffffffffffffffff\n      and\n      dup2\n      mstore\n      0x20\n      add\n      0x05\n      dup3\n      add\n      sload\n      dup2\n      mstore\n      0x20\n      add\n      0x06\n      dup3\n      add\n      dup1\n      sload\n      tag_76\n      swap1\n      tag_33\n      jump\t// in\n    tag_76:\n      dup1\n      0x1f\n      add\n      0x20\n      dup1\n      swap2\n      div\n      mul\n      0x20\n      add\n      mload(0x40)\n      swap1\n      dup2\n      add\n      0x40\n      mstore\n      dup1\n      swap3\n      swap2\n      swap1\n      dup2\n      dup2\n      mstore\n      0x20\n      add\n      dup3\n      dup1\n      sload\n      tag_77\n      swap1\n      tag_33\n      jump\t// in\n    tag_77:\n      dup1\n      iszero\n      tag_78\n      jumpi\n      dup1\n      0x1f\n      lt\n      tag_79\n      jumpi\n      0x0100\n      dup1\n      dup4\n      sload\n      div\n      mul\n      dup4\n      mstore\n      swap2\n      0x20\n      add\n      swap2\n      jump(tag_78)\n    tag_79:\n      dup3\n      add\n      swap2\n      swap1\n      0x00\n      mstore\n      keccak256(0x00, 0x20)\n      swap1\n    tag_80:\n      dup2\n      sload\n      dup2\n      mstore\n      swap1\n      0x01\n      add\n      swap1\n      0x20\n      add\n      dup1\n      dup4\n      gt\n      tag_80\n      jumpi\n      dup3\n      swap1\n      sub\n      0x1f\n      and\n      dup3\n      add\n      swap2\n    tag_78:\n      pop\n      pop\n      pop\n      pop\n      pop\n      dup2\n      mstore\n      0x20\n      add\n      0x07\n      dup3\n      add\n      dup1\n      sload\n      tag_81\n      swap1\n      tag_33\n      jump\t// in\n    tag_81:\n      dup1\n      0x1f\n      add\n      0x20\n      dup1\n      swap2\n      div\n      mul\n      0x20\n      add\n      mload(0x40)\n      swap1\n      dup2\n      add\n      0x40\n      mstore\n      dup1\n      swap3\n      swap2\n      swap1\n      dup2\n      dup2\n      mstore\n      0x20\n      add\n      dup3\n      dup1\n      sload\n      tag_82\n      swap1\n      tag_33\n      jump\t// in\n    tag_82:\n      dup1\n      iszero\n      tag_83\n      jumpi\n      dup1\n      0x1f\n      lt\n      tag_84\n      jumpi\n      0x0100\n      dup1\n      dup4\n      sload\n      div\n      mul\n      dup4\n      mstore\n      swap2\n      0x20\n      add\n      swap2\n      jump(tag_83)\n    tag_84:\n      dup3\n      add\n      swap2\n      swap1\n      0x00\n      mstore\n      keccak256(0x00, 0x20)\n      swap1\n    tag_85:\n      dup2\n      sload\n      dup2\n      mstore\n      swap1\n      0x01\n      add\n      swap1\n      0x20\n      add\n      dup1\n      dup4\n      gt\n      tag_85\n      jumpi\n      dup3\n      swap1\n      sub\n      0x1f\n      and\n      dup3\n      add\n      swap2\n    tag_83:\n      pop\n      pop\n      pop\n      pop\n      pop\n      dup2\n      mstore\n      pop\n      pop\n      dup2\n      mstore\n      0x20\n      add\n      swap1\n      0x01\n      add\n      swap1\n      jump(tag_68)\n    tag_69:\n      pop\n      pop\n      pop\n      pop\n      swap1\n      pop\n        /* \"crowdfunding.sol\":1295:1388  function getList() public view returns (Crowdfunding[] memory) {... */\n      swap1\n      jump\t// out\n        /* \"crowdfunding.sol\":726:1224  function createCrowdfunding(string memory _title,address _recipient, string memory _expectAmout) public {... */\n    tag_28:\n        /* \"crowdfunding.sol\":841:843  No */\n      0x00\n      dup1\n        /* \"crowdfunding.sol\":841:845  No++ */\n      dup2\n      sload\n      dup1\n      swap3\n      swap2\n      swap1\n      tag_87\n      swap1\n      tag_88\n      jump\t// in\n    tag_87:\n      swap2\n      swap1\n      pop\n      sstore\n      pop\n        /* \"crowdfunding.sol\":856:877  Crowdfunding memory c */\n      0x00\n        /* \"crowdfunding.sol\":880:1152  Crowdfunding({... */\n      mload(0x40)\n      dup1\n      0x0100\n      add\n      0x40\n      mstore\n      dup1\n        /* \"crowdfunding.sol\":913:915  No */\n      sload(0x00)\n        /* \"crowdfunding.sol\":880:1152  Crowdfunding({... */\n      dup2\n      mstore\n      0x20\n      add\n        /* \"crowdfunding.sol\":936:942  _title */\n      dup6\n        /* \"crowdfunding.sol\":880:1152  Crowdfunding({... */\n      dup2\n      mstore\n      0x20\n      add\n        /* \"crowdfunding.sol\":965:966  0 */\n      0x00\n        /* \"crowdfunding.sol\":880:1152  Crowdfunding({... */\n      dup2\n      mstore\n      0x20\n      add\n        /* \"crowdfunding.sol\":990:1000  msg.sender */\n      caller\n        /* \"crowdfunding.sol\":880:1152  Crowdfunding({... */\n      0xffffffffffffffffffffffffffffffffffffffff\n      and\n      dup2\n      mstore\n      0x20\n      add\n        /* \"crowdfunding.sol\":1026:1036  _recipient */\n      dup5\n        /* \"crowdfunding.sol\":880:1152  Crowdfunding({... */\n      0xffffffffffffffffffffffffffffffffffffffff\n      and\n      dup2\n      mstore\n      0x20\n      add\n        /* \"crowdfunding.sol\":1060:1061  0 */\n      0x00\n        /* \"crowdfunding.sol\":880:1152  Crowdfunding({... */\n      dup2\n      mstore\n      0x20\n      add\n        /* \"crowdfunding.sol\":1096:1108  _expectAmout */\n      dup4\n        /* \"crowdfunding.sol\":880:1152  Crowdfunding({... */\n      dup2\n      mstore\n      0x20\n      add\n      mload(0x40)\n      dup1\n      0x40\n      add\n      0x40\n      mstore\n      dup1\n      0x01\n      dup2\n      mstore\n      0x20\n      add\n      0x3000000000000000000000000000000000000000000000000000000000000000\n      dup2\n      mstore\n      pop\n      dup2\n      mstore\n      pop\n        /* \"crowdfunding.sol\":856:1152  Crowdfunding memory c = Crowdfunding({... */\n      swap1\n      pop\n        /* \"crowdfunding.sol\":1163:1167  list */\n      0x01\n        /* \"crowdfunding.sol\":1173:1174  c */\n      dup2\n        /* \"crowdfunding.sol\":1163:1175  list.push(c) */\n      swap1\n      dup1\n      0x01\n      dup2\n      sload\n      add\n      dup1\n      dup3\n      sstore\n      dup1\n      swap2\n      pop\n      pop\n      0x01\n      swap1\n      sub\n      swap1\n      0x00\n      mstore\n      keccak256(0x00, 0x20)\n      swap1\n      0x08\n      mul\n      add\n      0x00\n      swap1\n      swap2\n      swap1\n      swap2\n      swap1\n      swap2\n      pop\n      0x00\n      dup3\n      add\n      mload\n      dup2\n      0x00\n      add\n      sstore\n      0x20\n      dup3\n      add\n      mload\n      dup2\n      0x01\n      add\n      swap1\n      dup2\n      tag_90\n      swap2\n      swap1\n      tag_91\n      jump\t// in\n    tag_90:\n      pop\n      0x40\n      dup3\n      add\n      mload\n      dup2\n      0x02\n      add\n      sstore\n      0x60\n      dup3\n      add\n      mload\n      dup2\n      0x03\n      add\n      exp(0x0100, 0x00)\n      dup2\n      sload\n      dup2\n      0xffffffffffffffffffffffffffffffffffffffff\n      mul\n      not\n      and\n      swap1\n      dup4\n      0xffffffffffffffffffffffffffffffffffffffff\n      and\n      mul\n      or\n      swap1\n      sstore\n      pop\n      0x80\n      dup3\n      add\n      mload\n      dup2\n      0x04\n      add\n      exp(0x0100, 0x00)\n      dup2\n      sload\n      dup2\n      0xffffffffffffffffffffffffffffffffffffffff\n      mul\n      not\n      and\n      swap1\n      dup4\n      0xffffffffffffffffffffffffffffffffffffffff\n      and\n      mul\n      or\n      swap1\n      sstore\n      pop\n      0xa0\n      dup3\n      add\n      mload\n      dup2\n      0x05\n      add\n      sstore\n      0xc0\n      dup3\n      add\n      mload\n      dup2\n      0x06\n      add\n      swap1\n      dup2\n      tag_92\n      swap2\n      swap1\n      tag_91\n      jump\t// in\n    tag_92:\n      pop\n      0xe0\n      dup3\n      add\n      mload\n      dup2\n      0x07\n      add\n      swap1\n      dup2\n      tag_93\n      swap2\n      swap1\n      tag_91\n      jump\t// in\n    tag_93:\n      pop\n      pop\n      pop\n        /* \"crowdfunding.sol\":830:1224  {... */\n      pop\n        /* \"crowdfunding.sol\":726:1224  function createCrowdfunding(string memory _title,address _recipient, string memory _expectAmout) public {... */\n      pop\n      pop\n      pop\n      jump\t// out\n        /* \"#utility.yul\":7:82   */\n    tag_94:\n        /* \"#utility.yul\":40:46   */\n      0x00\n        /* \"#utility.yul\":73:75   */\n      0x40\n        /* \"#utility.yul\":67:76   */\n      mload\n        /* \"#utility.yul\":57:76   */\n      swap1\n      pop\n        /* \"#utility.yul\":7:82   */\n      swap1\n      jump\t// out\n        /* \"#utility.yul\":88:205   */\n    tag_95:\n        /* \"#utility.yul\":197:198   */\n      0x00\n        /* \"#utility.yul\":194:195   */\n      dup1\n        /* \"#utility.yul\":187:199   */\n      revert\n        /* \"#utility.yul\":211:328   */\n    tag_96:\n        /* \"#utility.yul\":320:321   */\n      0x00\n        /* \"#utility.yul\":317:318   */\n      dup1\n        /* \"#utility.yul\":310:322   */\n      revert\n        /* \"#utility.yul\":334:411   */\n    tag_97:\n        /* \"#utility.yul\":371:378   */\n      0x00\n        /* \"#utility.yul\":400:405   */\n      dup2\n        /* \"#utility.yul\":389:405   */\n      swap1\n      pop\n        /* \"#utility.yul\":334:411   */\n      swap2\n      swap1\n      pop\n      jump\t// out\n        /* \"#utility.yul\":417:539   */\n    tag_98:\n        /* \"#utility.yul\":490:514   */\n      tag_154\n        /* \"#utility.yul\":508:513   */\n      dup2\n        /* \"#utility.yul\":490:514   */\n      tag_97\n      jump\t// in\n    tag_154:\n        /* \"#utility.yul\":483:488   */\n      dup2\n        /* \"#utility.yul\":480:515   */\n      eq\n        /* \"#utility.yul\":470:533   */\n      tag_155\n      jumpi\n        /* \"#utility.yul\":529:530   */\n      0x00\n        /* \"#utility.yul\":526:527   */\n      dup1\n        /* \"#utility.yul\":519:531   */\n      revert\n        /* \"#utility.yul\":470:533   */\n    tag_155:\n        /* \"#utility.yul\":417:539   */\n      pop\n      jump\t// out\n        /* \"#utility.yul\":545:684   */\n    tag_99:\n        /* \"#utility.yul\":591:596   */\n      0x00\n        /* \"#utility.yul\":629:635   */\n      dup2\n        /* \"#utility.yul\":616:636   */\n      calldataload\n        /* \"#utility.yul\":607:636   */\n      swap1\n      pop\n        /* \"#utility.yul\":645:678   */\n      tag_157\n        /* \"#utility.yul\":672:677   */\n      dup2\n        /* \"#utility.yul\":645:678   */\n      tag_98\n      jump\t// in\n    tag_157:\n        /* \"#utility.yul\":545:684   */\n      swap3\n      swap2\n      pop\n      pop\n      jump\t// out\n        /* \"#utility.yul\":690:1019   */\n    tag_10:\n        /* \"#utility.yul\":749:755   */\n      0x00\n        /* \"#utility.yul\":798:800   */\n      0x20\n        /* \"#utility.yul\":786:795   */\n      dup3\n        /* \"#utility.yul\":777:784   */\n      dup5\n        /* \"#utility.yul\":773:796   */\n      sub\n        /* \"#utility.yul\":769:801   */\n      slt\n        /* \"#utility.yul\":766:885   */\n      iszero\n      tag_159\n      jumpi\n        /* \"#utility.yul\":804:883   */\n      tag_160\n      tag_95\n      jump\t// in\n    tag_160:\n        /* \"#utility.yul\":766:885   */\n    tag_159:\n        /* \"#utility.yul\":924:925   */\n      0x00\n        /* \"#utility.yul\":949:1002   */\n      tag_161\n        /* \"#utility.yul\":994:1001   */\n      dup5\n        /* \"#utility.yul\":985:991   */\n      dup3\n        /* \"#utility.yul\":974:983   */\n      dup6\n        /* \"#utility.yul\":970:992   */\n      add\n        /* \"#utility.yul\":949:1002   */\n      tag_99\n      jump\t// in\n    tag_161:\n        /* \"#utility.yul\":939:1002   */\n      swap2\n      pop\n        /* \"#utility.yul\":895:1012   */\n      pop\n        /* \"#utility.yul\":690:1019   */\n      swap3\n      swap2\n      pop\n      pop\n      jump\t// out\n        /* \"#utility.yul\":1025:1143   */\n    tag_100:\n        /* \"#utility.yul\":1112:1136   */\n      tag_163\n        /* \"#utility.yul\":1130:1135   */\n      dup2\n        /* \"#utility.yul\":1112:1136   */\n      tag_97\n      jump\t// in\n    tag_163:\n        /* \"#utility.yul\":1107:1110   */\n      dup3\n        /* \"#utility.yul\":1100:1137   */\n      mstore\n        /* \"#utility.yul\":1025:1143   */\n      pop\n      pop\n      jump\t// out\n        /* \"#utility.yul\":1149:1248   */\n    tag_101:\n        /* \"#utility.yul\":1201:1207   */\n      0x00\n        /* \"#utility.yul\":1235:1240   */\n      dup2\n        /* \"#utility.yul\":1229:1241   */\n      mload\n        /* \"#utility.yul\":1219:1241   */\n      swap1\n      pop\n        /* \"#utility.yul\":1149:1248   */\n      swap2\n      swap1\n      pop\n      jump\t// out\n        /* \"#utility.yul\":1254:1423   */\n    tag_102:\n        /* \"#utility.yul\":1338:1349   */\n      0x00\n        /* \"#utility.yul\":1372:1378   */\n      dup3\n        /* \"#utility.yul\":1367:1370   */\n      dup3\n        /* \"#utility.yul\":1360:1379   */\n      mstore\n        /* \"#utility.yul\":1412:1416   */\n      0x20\n        /* \"#utility.yul\":1407:1410   */\n      dup3\n        /* \"#utility.yul\":1403:1417   */\n      add\n        /* \"#utility.yul\":1388:1417   */\n      swap1\n      pop\n        /* \"#utility.yul\":1254:1423   */\n      swap3\n      swap2\n      pop\n      pop\n      jump\t// out\n        /* \"#utility.yul\":1429:1736   */\n    tag_103:\n        /* \"#utility.yul\":1497:1498   */\n      0x00\n        /* \"#utility.yul\":1507:1620   */\n    tag_167:\n        /* \"#utility.yul\":1521:1527   */\n      dup4\n        /* \"#utility.yul\":1518:1519   */\n      dup2\n        /* \"#utility.yul\":1515:1528   */\n      lt\n        /* \"#utility.yul\":1507:1620   */\n      iszero\n      tag_169\n      jumpi\n        /* \"#utility.yul\":1606:1607   */\n      dup1\n        /* \"#utility.yul\":1601:1604   */\n      dup3\n        /* \"#utility.yul\":1597:1608   */\n      add\n        /* \"#utility.yul\":1591:1609   */\n      mload\n        /* \"#utility.yul\":1587:1588   */\n      dup2\n        /* \"#utility.yul\":1582:1585   */\n      dup5\n        /* \"#utility.yul\":1578:1589   */\n      add\n        /* \"#utility.yul\":1571:1610   */\n      mstore\n        /* \"#utility.yul\":1543:1545   */\n      0x20\n        /* \"#utility.yul\":1540:1541   */\n      dup2\n        /* \"#utility.yul\":1536:1546   */\n      add\n        /* \"#utility.yul\":1531:1546   */\n      swap1\n      pop\n        /* \"#utility.yul\":1507:1620   */\n      jump(tag_167)\n    tag_169:\n        /* \"#utility.yul\":1638:1644   */\n      dup4\n        /* \"#utility.yul\":1635:1636   */\n      dup2\n        /* \"#utility.yul\":1632:1645   */\n      gt\n        /* \"#utility.yul\":1629:1730   */\n      iszero\n      tag_170\n      jumpi\n        /* \"#utility.yul\":1718:1719   */\n      0x00\n        /* \"#utility.yul\":1709:1715   */\n      dup5\n        /* \"#utility.yul\":1704:1707   */\n      dup5\n        /* \"#utility.yul\":1700:1716   */\n      add\n        /* \"#utility.yul\":1693:1720   */\n      mstore\n        /* \"#utility.yul\":1629:1730   */\n    tag_170:\n        /* \"#utility.yul\":1478:1736   */\n      pop\n        /* \"#utility.yul\":1429:1736   */\n      pop\n      pop\n      pop\n      jump\t// out\n        /* \"#utility.yul\":1742:1844   */\n    tag_104:\n        /* \"#utility.yul\":1783:1789   */\n      0x00\n        /* \"#utility.yul\":1834:1836   */\n      0x1f\n        /* \"#utility.yul\":1830:1837   */\n      not\n        /* \"#utility.yul\":1825:1827   */\n      0x1f\n        /* \"#utility.yul\":1818:1823   */\n      dup4\n        /* \"#utility.yul\":1814:1828   */\n      add\n        /* \"#utility.yul\":1810:1838   */\n      and\n        /* \"#utility.yul\":1800:1838   */\n      swap1\n      pop\n        /* \"#utility.yul\":1742:1844   */\n      swap2\n      swap1\n      pop\n      jump\t// out\n        /* \"#utility.yul\":1850:2214   */\n    tag_105:\n        /* \"#utility.yul\":1938:1941   */\n      0x00\n        /* \"#utility.yul\":1966:2005   */\n      tag_173\n        /* \"#utility.yul\":1999:2004   */\n      dup3\n        /* \"#utility.yul\":1966:2005   */\n      tag_101\n      jump\t// in\n    tag_173:\n        /* \"#utility.yul\":2021:2092   */\n      tag_174\n        /* \"#utility.yul\":2085:2091   */\n      dup2\n        /* \"#utility.yul\":2080:2083   */\n      dup6\n        /* \"#utility.yul\":2021:2092   */\n      tag_102\n      jump\t// in\n    tag_174:\n        /* \"#utility.yul\":2014:2092   */\n      swap4\n      pop\n        /* \"#utility.yul\":2101:2153   */\n      tag_175\n        /* \"#utility.yul\":2146:2152   */\n      dup2\n        /* \"#utility.yul\":2141:2144   */\n      dup6\n        /* \"#utility.yul\":2134:2138   */\n      0x20\n        /* \"#utility.yul\":2127:2132   */\n      dup7\n        /* \"#utility.yul\":2123:2139   */\n      add\n        /* \"#utility.yul\":2101:2153   */\n      tag_103\n      jump\t// in\n    tag_175:\n        /* \"#utility.yul\":2178:2207   */\n      tag_176\n        /* \"#utility.yul\":2200:2206   */\n      dup2\n        /* \"#utility.yul\":2178:2207   */\n      tag_104\n      jump\t// in\n    tag_176:\n        /* \"#utility.yul\":2173:2176   */\n      dup5\n        /* \"#utility.yul\":2169:2208   */\n      add\n        /* \"#utility.yul\":2162:2208   */\n      swap2\n      pop\n        /* \"#utility.yul\":1942:2214   */\n      pop\n        /* \"#utility.yul\":1850:2214   */\n      swap3\n      swap2\n      pop\n      pop\n      jump\t// out\n        /* \"#utility.yul\":2220:2346   */\n    tag_106:\n        /* \"#utility.yul\":2257:2264   */\n      0x00\n        /* \"#utility.yul\":2297:2339   */\n      0xffffffffffffffffffffffffffffffffffffffff\n        /* \"#utility.yul\":2290:2295   */\n      dup3\n        /* \"#utility.yul\":2286:2340   */\n      and\n        /* \"#utility.yul\":2275:2340   */\n      swap1\n      pop\n        /* \"#utility.yul\":2220:2346   */\n      swap2\n      swap1\n      pop\n      jump\t// out\n        /* \"#utility.yul\":2352:2448   */\n    tag_107:\n        /* \"#utility.yul\":2389:2396   */\n      0x00\n        /* \"#utility.yul\":2418:2442   */\n      tag_179\n        /* \"#utility.yul\":2436:2441   */\n      dup3\n        /* \"#utility.yul\":2418:2442   */\n      tag_106\n      jump\t// in\n    tag_179:\n        /* \"#utility.yul\":2407:2442   */\n      swap1\n      pop\n        /* \"#utility.yul\":2352:2448   */\n      swap2\n      swap1\n      pop\n      jump\t// out\n        /* \"#utility.yul\":2454:2572   */\n    tag_108:\n        /* \"#utility.yul\":2541:2565   */\n      tag_181\n        /* \"#utility.yul\":2559:2564   */\n      dup2\n        /* \"#utility.yul\":2541:2565   */\n      tag_107\n      jump\t// in\n    tag_181:\n        /* \"#utility.yul\":2536:2539   */\n      dup3\n        /* \"#utility.yul\":2529:2566   */\n      mstore\n        /* \"#utility.yul\":2454:2572   */\n      pop\n      pop\n      jump\t// out\n        /* \"#utility.yul\":2578:3848   */\n    tag_16:\n        /* \"#utility.yul\":2927:2931   */\n      0x00\n        /* \"#utility.yul\":2965:2968   */\n      0x0100\n        /* \"#utility.yul\":2954:2963   */\n      dup3\n        /* \"#utility.yul\":2950:2969   */\n      add\n        /* \"#utility.yul\":2942:2969   */\n      swap1\n      pop\n        /* \"#utility.yul\":2979:3050   */\n      tag_183\n        /* \"#utility.yul\":3047:3048   */\n      0x00\n        /* \"#utility.yul\":3036:3045   */\n      dup4\n        /* \"#utility.yul\":3032:3049   */\n      add\n        /* \"#utility.yul\":3023:3029   */\n      dup12\n        /* \"#utility.yul\":2979:3050   */\n      tag_100\n      jump\t// in\n    tag_183:\n        /* \"#utility.yul\":3097:3106   */\n      dup2\n        /* \"#utility.yul\":3091:3095   */\n      dup2\n        /* \"#utility.yul\":3087:3107   */\n      sub\n        /* \"#utility.yul\":3082:3084   */\n      0x20\n        /* \"#utility.yul\":3071:3080   */\n      dup4\n        /* \"#utility.yul\":3067:3085   */\n      add\n        /* \"#utility.yul\":3060:3108   */\n      mstore\n        /* \"#utility.yul\":3125:3203   */\n      tag_184\n        /* \"#utility.yul\":3198:3202   */\n      dup2\n        /* \"#utility.yul\":3189:3195   */\n      dup11\n        /* \"#utility.yul\":3125:3203   */\n      tag_105\n      jump\t// in\n    tag_184:\n        /* \"#utility.yul\":3117:3203   */\n      swap1\n      pop\n        /* \"#utility.yul\":3213:3285   */\n      tag_185\n        /* \"#utility.yul\":3281:3283   */\n      0x40\n        /* \"#utility.yul\":3270:3279   */\n      dup4\n        /* \"#utility.yul\":3266:3284   */\n      add\n        /* \"#utility.yul\":3257:3263   */\n      dup10\n        /* \"#utility.yul\":3213:3285   */\n      tag_100\n      jump\t// in\n    tag_185:\n        /* \"#utility.yul\":3295:3367   */\n      tag_186\n        /* \"#utility.yul\":3363:3365   */\n      0x60\n        /* \"#utility.yul\":3352:3361   */\n      dup4\n        /* \"#utility.yul\":3348:3366   */\n      add\n        /* \"#utility.yul\":3339:3345   */\n      dup9\n        /* \"#utility.yul\":3295:3367   */\n      tag_108\n      jump\t// in\n    tag_186:\n        /* \"#utility.yul\":3377:3450   */\n      tag_187\n        /* \"#utility.yul\":3445:3448   */\n      0x80\n        /* \"#utility.yul\":3434:3443   */\n      dup4\n        /* \"#utility.yul\":3430:3449   */\n      add\n        /* \"#utility.yul\":3421:3427   */\n      dup8\n        /* \"#utility.yul\":3377:3450   */\n      tag_108\n      jump\t// in\n    tag_187:\n        /* \"#utility.yul\":3460:3533   */\n      tag_188\n        /* \"#utility.yul\":3528:3531   */\n      0xa0\n        /* \"#utility.yul\":3517:3526   */\n      dup4\n        /* \"#utility.yul\":3513:3532   */\n      add\n        /* \"#utility.yul\":3504:3510   */\n      dup7\n        /* \"#utility.yul\":3460:3533   */\n      tag_100\n      jump\t// in\n    tag_188:\n        /* \"#utility.yul\":3581:3590   */\n      dup2\n        /* \"#utility.yul\":3575:3579   */\n      dup2\n        /* \"#utility.yul\":3571:3591   */\n      sub\n        /* \"#utility.yul\":3565:3568   */\n      0xc0\n        /* \"#utility.yul\":3554:3563   */\n      dup4\n        /* \"#utility.yul\":3550:3569   */\n      add\n        /* \"#utility.yul\":3543:3592   */\n      mstore\n        /* \"#utility.yul\":3609:3687   */\n      tag_189\n        /* \"#utility.yul\":3682:3686   */\n      dup2\n        /* \"#utility.yul\":3673:3679   */\n      dup6\n        /* \"#utility.yul\":3609:3687   */\n      tag_105\n      jump\t// in\n    tag_189:\n        /* \"#utility.yul\":3601:3687   */\n      swap1\n      pop\n        /* \"#utility.yul\":3735:3744   */\n      dup2\n        /* \"#utility.yul\":3729:3733   */\n      dup2\n        /* \"#utility.yul\":3725:3745   */\n      sub\n        /* \"#utility.yul\":3719:3722   */\n      0xe0\n        /* \"#utility.yul\":3708:3717   */\n      dup4\n        /* \"#utility.yul\":3704:3723   */\n      add\n        /* \"#utility.yul\":3697:3746   */\n      mstore\n        /* \"#utility.yul\":3763:3841   */\n      tag_190\n        /* \"#utility.yul\":3836:3840   */\n      dup2\n        /* \"#utility.yul\":3827:3833   */\n      dup5\n        /* \"#utility.yul\":3763:3841   */\n      tag_105\n      jump\t// in\n    tag_190:\n        /* \"#utility.yul\":3755:3841   */\n      swap1\n      pop\n        /* \"#utility.yul\":2578:3848   */\n      swap10\n      swap9\n      pop\n      pop\n      pop\n      pop\n      pop\n      pop\n      pop\n      pop\n      pop\n      jump\t// out\n        /* \"#utility.yul\":3854:3996   */\n    tag_109:\n        /* \"#utility.yul\":3949:3955   */\n      0x00\n        /* \"#utility.yul\":3983:3988   */\n      dup2\n        /* \"#utility.yul\":3977:3989   */\n      mload\n        /* \"#utility.yul\":3967:3989   */\n      swap1\n      pop\n        /* \"#utility.yul\":3854:3996   */\n      swap2\n      swap1\n      pop\n      jump\t// out\n        /* \"#utility.yul\":4002:4214   */\n    tag_110:\n        /* \"#utility.yul\":4129:4140   */\n      0x00\n        /* \"#utility.yul\":4163:4169   */\n      dup3\n        /* \"#utility.yul\":4158:4161   */\n      dup3\n        /* \"#utility.yul\":4151:4170   */\n      mstore\n        /* \"#utility.yul\":4203:4207   */\n      0x20\n        /* \"#utility.yul\":4198:4201   */\n      dup3\n        /* \"#utility.yul\":4194:4208   */\n      add\n        /* \"#utility.yul\":4179:4208   */\n      swap1\n      pop\n        /* \"#utility.yul\":4002:4214   */\n      swap3\n      swap2\n      pop\n      pop\n      jump\t// out\n        /* \"#utility.yul\":4220:4380   */\n    tag_111:\n        /* \"#utility.yul\":4315:4319   */\n      0x00\n        /* \"#utility.yul\":4338:4341   */\n      dup2\n        /* \"#utility.yul\":4330:4341   */\n      swap1\n      pop\n        /* \"#utility.yul\":4368:4372   */\n      0x20\n        /* \"#utility.yul\":4363:4366   */\n      dup3\n        /* \"#utility.yul\":4359:4373   */\n      add\n        /* \"#utility.yul\":4351:4373   */\n      swap1\n      pop\n        /* \"#utility.yul\":4220:4380   */\n      swap2\n      swap1\n      pop\n      jump\t// out\n        /* \"#utility.yul\":4386:4494   */\n    tag_112:\n        /* \"#utility.yul\":4463:4487   */\n      tag_195\n        /* \"#utility.yul\":4481:4486   */\n      dup2\n        /* \"#utility.yul\":4463:4487   */\n      tag_97\n      jump\t// in\n    tag_195:\n        /* \"#utility.yul\":4458:4461   */\n      dup3\n        /* \"#utility.yul\":4451:4488   */\n      mstore\n        /* \"#utility.yul\":4386:4494   */\n      pop\n      pop\n      jump\t// out\n        /* \"#utility.yul\":4500:4659   */\n    tag_113:\n        /* \"#utility.yul\":4574:4585   */\n      0x00\n        /* \"#utility.yul\":4608:4614   */\n      dup3\n        /* \"#utility.yul\":4603:4606   */\n      dup3\n        /* \"#utility.yul\":4596:4615   */\n      mstore\n        /* \"#utility.yul\":4648:4652   */\n      0x20\n        /* \"#utility.yul\":4643:4646   */\n      dup3\n        /* \"#utility.yul\":4639:4653   */\n      add\n        /* \"#utility.yul\":4624:4653   */\n      swap1\n      pop\n        /* \"#utility.yul\":4500:4659   */\n      swap3\n      swap2\n      pop\n      pop\n      jump\t// out\n        /* \"#utility.yul\":4665:5009   */\n    tag_114:\n        /* \"#utility.yul\":4743:4746   */\n      0x00\n        /* \"#utility.yul\":4771:4810   */\n      tag_198\n        /* \"#utility.yul\":4804:4809   */\n      dup3\n        /* \"#utility.yul\":4771:4810   */\n      tag_101\n      jump\t// in\n    tag_198:\n        /* \"#utility.yul\":4826:4887   */\n      tag_199\n        /* \"#utility.yul\":4880:4886   */\n      dup2\n        /* \"#utility.yul\":4875:4878   */\n      dup6\n        /* \"#utility.yul\":4826:4887   */\n      tag_113\n      jump\t// in\n    tag_199:\n        /* \"#utility.yul\":4819:4887   */\n      swap4\n      pop\n        /* \"#utility.yul\":4896:4948   */\n      tag_200\n        /* \"#utility.yul\":4941:4947   */\n      dup2\n        /* \"#utility.yul\":4936:4939   */\n      dup6\n        /* \"#utility.yul\":4929:4933   */\n      0x20\n        /* \"#utility.yul\":4922:4927   */\n      dup7\n        /* \"#utility.yul\":4918:4934   */\n      add\n        /* \"#utility.yul\":4896:4948   */\n      tag_103\n      jump\t// in\n    tag_200:\n        /* \"#utility.yul\":4973:5002   */\n      tag_201\n        /* \"#utility.yul\":4995:5001   */\n      dup2\n        /* \"#utility.yul\":4973:5002   */\n      tag_104\n      jump\t// in\n    tag_201:\n        /* \"#utility.yul\":4968:4971   */\n      dup5\n        /* \"#utility.yul\":4964:5003   */\n      add\n        /* \"#utility.yul\":4957:5003   */\n      swap2\n      pop\n        /* \"#utility.yul\":4747:5009   */\n      pop\n        /* \"#utility.yul\":4665:5009   */\n      swap3\n      swap2\n      pop\n      pop\n      jump\t// out\n        /* \"#utility.yul\":5015:5123   */\n    tag_115:\n        /* \"#utility.yul\":5092:5116   */\n      tag_203\n        /* \"#utility.yul\":5110:5115   */\n      dup2\n        /* \"#utility.yul\":5092:5116   */\n      tag_107\n      jump\t// in\n    tag_203:\n        /* \"#utility.yul\":5087:5090   */\n      dup3\n        /* \"#utility.yul\":5080:5117   */\n      mstore\n        /* \"#utility.yul\":5015:5123   */\n      pop\n      pop\n      jump\t// out\n        /* \"#utility.yul\":5221:7039   */\n    tag_116:\n        /* \"#utility.yul\":5336:5339   */\n      0x00\n        /* \"#utility.yul\":5372:5378   */\n      0x0100\n        /* \"#utility.yul\":5367:5370   */\n      dup4\n        /* \"#utility.yul\":5363:5379   */\n      add\n        /* \"#utility.yul\":5460:5464   */\n      0x00\n        /* \"#utility.yul\":5453:5458   */\n      dup4\n        /* \"#utility.yul\":5449:5465   */\n      add\n        /* \"#utility.yul\":5443:5466   */\n      mload\n        /* \"#utility.yul\":5479:5542   */\n      tag_205\n        /* \"#utility.yul\":5536:5540   */\n      0x00\n        /* \"#utility.yul\":5531:5534   */\n      dup7\n        /* \"#utility.yul\":5527:5541   */\n      add\n        /* \"#utility.yul\":5513:5525   */\n      dup3\n        /* \"#utility.yul\":5479:5542   */\n      tag_112\n      jump\t// in\n    tag_205:\n        /* \"#utility.yul\":5389:5552   */\n      pop\n        /* \"#utility.yul\":5635:5639   */\n      0x20\n        /* \"#utility.yul\":5628:5633   */\n      dup4\n        /* \"#utility.yul\":5624:5640   */\n      add\n        /* \"#utility.yul\":5618:5641   */\n      mload\n        /* \"#utility.yul\":5688:5691   */\n      dup5\n        /* \"#utility.yul\":5682:5686   */\n      dup3\n        /* \"#utility.yul\":5678:5692   */\n      sub\n        /* \"#utility.yul\":5671:5675   */\n      0x20\n        /* \"#utility.yul\":5666:5669   */\n      dup7\n        /* \"#utility.yul\":5662:5676   */\n      add\n        /* \"#utility.yul\":5655:5693   */\n      mstore\n        /* \"#utility.yul\":5714:5787   */\n      tag_206\n        /* \"#utility.yul\":5782:5786   */\n      dup3\n        /* \"#utility.yul\":5768:5780   */\n      dup3\n        /* \"#utility.yul\":5714:5787   */\n      tag_114\n      jump\t// in\n    tag_206:\n        /* \"#utility.yul\":5706:5787   */\n      swap2\n      pop\n        /* \"#utility.yul\":5562:5798   */\n      pop\n        /* \"#utility.yul\":5882:5886   */\n      0x40\n        /* \"#utility.yul\":5875:5880   */\n      dup4\n        /* \"#utility.yul\":5871:5887   */\n      add\n        /* \"#utility.yul\":5865:5888   */\n      mload\n        /* \"#utility.yul\":5901:5964   */\n      tag_207\n        /* \"#utility.yul\":5958:5962   */\n      0x40\n        /* \"#utility.yul\":5953:5956   */\n      dup7\n        /* \"#utility.yul\":5949:5963   */\n      add\n        /* \"#utility.yul\":5935:5947   */\n      dup3\n        /* \"#utility.yul\":5901:5964   */\n      tag_112\n      jump\t// in\n    tag_207:\n        /* \"#utility.yul\":5808:5974   */\n      pop\n        /* \"#utility.yul\":6059:6063   */\n      0x60\n        /* \"#utility.yul\":6052:6057   */\n      dup4\n        /* \"#utility.yul\":6048:6064   */\n      add\n        /* \"#utility.yul\":6042:6065   */\n      mload\n        /* \"#utility.yul\":6078:6141   */\n      tag_208\n        /* \"#utility.yul\":6135:6139   */\n      0x60\n        /* \"#utility.yul\":6130:6133   */\n      dup7\n        /* \"#utility.yul\":6126:6140   */\n      add\n        /* \"#utility.yul\":6112:6124   */\n      dup3\n        /* \"#utility.yul\":6078:6141   */\n      tag_115\n      jump\t// in\n    tag_208:\n        /* \"#utility.yul\":5984:6151   */\n      pop\n        /* \"#utility.yul\":6238:6242   */\n      0x80\n        /* \"#utility.yul\":6231:6236   */\n      dup4\n        /* \"#utility.yul\":6227:6243   */\n      add\n        /* \"#utility.yul\":6221:6244   */\n      mload\n        /* \"#utility.yul\":6257:6320   */\n      tag_209\n        /* \"#utility.yul\":6314:6318   */\n      0x80\n        /* \"#utility.yul\":6309:6312   */\n      dup7\n        /* \"#utility.yul\":6305:6319   */\n      add\n        /* \"#utility.yul\":6291:6303   */\n      dup3\n        /* \"#utility.yul\":6257:6320   */\n      tag_115\n      jump\t// in\n    tag_209:\n        /* \"#utility.yul\":6161:6330   */\n      pop\n        /* \"#utility.yul\":6415:6419   */\n      0xa0\n        /* \"#utility.yul\":6408:6413   */\n      dup4\n        /* \"#utility.yul\":6404:6420   */\n      add\n        /* \"#utility.yul\":6398:6421   */\n      mload\n        /* \"#utility.yul\":6434:6497   */\n      tag_210\n        /* \"#utility.yul\":6491:6495   */\n      0xa0\n        /* \"#utility.yul\":6486:6489   */\n      dup7\n        /* \"#utility.yul\":6482:6496   */\n      add\n        /* \"#utility.yul\":6468:6480   */\n      dup3\n        /* \"#utility.yul\":6434:6497   */\n      tag_112\n      jump\t// in\n    tag_210:\n        /* \"#utility.yul\":6340:6507   */\n      pop\n        /* \"#utility.yul\":6596:6600   */\n      0xc0\n        /* \"#utility.yul\":6589:6594   */\n      dup4\n        /* \"#utility.yul\":6585:6601   */\n      add\n        /* \"#utility.yul\":6579:6602   */\n      mload\n        /* \"#utility.yul\":6649:6652   */\n      dup5\n        /* \"#utility.yul\":6643:6647   */\n      dup3\n        /* \"#utility.yul\":6639:6653   */\n      sub\n        /* \"#utility.yul\":6632:6636   */\n      0xc0\n        /* \"#utility.yul\":6627:6630   */\n      dup7\n        /* \"#utility.yul\":6623:6637   */\n      add\n        /* \"#utility.yul\":6616:6654   */\n      mstore\n        /* \"#utility.yul\":6675:6748   */\n      tag_211\n        /* \"#utility.yul\":6743:6747   */\n      dup3\n        /* \"#utility.yul\":6729:6741   */\n      dup3\n        /* \"#utility.yul\":6675:6748   */\n      tag_114\n      jump\t// in\n    tag_211:\n        /* \"#utility.yul\":6667:6748   */\n      swap2\n      pop\n        /* \"#utility.yul\":6517:6759   */\n      pop\n        /* \"#utility.yul\":6849:6853   */\n      0xe0\n        /* \"#utility.yul\":6842:6847   */\n      dup4\n        /* \"#utility.yul\":6838:6854   */\n      add\n        /* \"#utility.yul\":6832:6855   */\n      mload\n        /* \"#utility.yul\":6902:6905   */\n      dup5\n        /* \"#utility.yul\":6896:6900   */\n      dup3\n        /* \"#utility.yul\":6892:6906   */\n      sub\n        /* \"#utility.yul\":6885:6889   */\n      0xe0\n        /* \"#utility.yul\":6880:6883   */\n      dup7\n        /* \"#utility.yul\":6876:6890   */\n      add\n        /* \"#utility.yul\":6869:6907   */\n      mstore\n        /* \"#utility.yul\":6928:7001   */\n      tag_212\n        /* \"#utility.yul\":6996:7000   */\n      dup3\n        /* \"#utility.yul\":6982:6994   */\n      dup3\n        /* \"#utility.yul\":6928:7001   */\n      tag_114\n      jump\t// in\n    tag_212:\n        /* \"#utility.yul\":6920:7001   */\n      swap2\n      pop\n        /* \"#utility.yul\":6769:7012   */\n      pop\n        /* \"#utility.yul\":7029:7033   */\n      dup1\n        /* \"#utility.yul\":7022:7033   */\n      swap2\n      pop\n        /* \"#utility.yul\":5341:7039   */\n      pop\n        /* \"#utility.yul\":5221:7039   */\n      swap3\n      swap2\n      pop\n      pop\n      jump\t// out\n        /* \"#utility.yul\":7045:7313   */\n    tag_117:\n        /* \"#utility.yul\":7170:7180   */\n      0x00\n        /* \"#utility.yul\":7205:7307   */\n      tag_214\n        /* \"#utility.yul\":7303:7306   */\n      dup4\n        /* \"#utility.yul\":7295:7301   */\n      dup4\n        /* \"#utility.yul\":7205:7307   */\n      tag_116\n      jump\t// in\n    tag_214:\n        /* \"#utility.yul\":7191:7307   */\n      swap1\n      pop\n        /* \"#utility.yul\":7045:7313   */\n      swap3\n      swap2\n      pop\n      pop\n      jump\t// out\n        /* \"#utility.yul\":7319:7460   */\n    tag_118:\n        /* \"#utility.yul\":7417:7421   */\n      0x00\n        /* \"#utility.yul\":7449:7453   */\n      0x20\n        /* \"#utility.yul\":7444:7447   */\n      dup3\n        /* \"#utility.yul\":7440:7454   */\n      add\n        /* \"#utility.yul\":7432:7454   */\n      swap1\n      pop\n        /* \"#utility.yul\":7319:7460   */\n      swap2\n      swap1\n      pop\n      jump\t// out\n        /* \"#utility.yul\":7562:8697   */\n    tag_119:\n        /* \"#utility.yul\":7737:7740   */\n      0x00\n        /* \"#utility.yul\":7766:7848   */\n      tag_217\n        /* \"#utility.yul\":7842:7847   */\n      dup3\n        /* \"#utility.yul\":7766:7848   */\n      tag_109\n      jump\t// in\n    tag_217:\n        /* \"#utility.yul\":7864:7978   */\n      tag_218\n        /* \"#utility.yul\":7971:7977   */\n      dup2\n        /* \"#utility.yul\":7966:7969   */\n      dup6\n        /* \"#utility.yul\":7864:7978   */\n      tag_110\n      jump\t// in\n    tag_218:\n        /* \"#utility.yul\":7857:7978   */\n      swap4\n      pop\n        /* \"#utility.yul\":8004:8007   */\n      dup4\n        /* \"#utility.yul\":8049:8053   */\n      0x20\n        /* \"#utility.yul\":8041:8047   */\n      dup3\n        /* \"#utility.yul\":8037:8054   */\n      mul\n        /* \"#utility.yul\":8032:8035   */\n      dup6\n        /* \"#utility.yul\":8028:8055   */\n      add\n        /* \"#utility.yul\":8079:8163   */\n      tag_219\n        /* \"#utility.yul\":8157:8162   */\n      dup6\n        /* \"#utility.yul\":8079:8163   */\n      tag_111\n      jump\t// in\n    tag_219:\n        /* \"#utility.yul\":8186:8193   */\n      dup1\n        /* \"#utility.yul\":8217:8218   */\n      0x00\n        /* \"#utility.yul\":8202:8652   */\n    tag_220:\n        /* \"#utility.yul\":8227:8233   */\n      dup6\n        /* \"#utility.yul\":8224:8225   */\n      dup2\n        /* \"#utility.yul\":8221:8234   */\n      lt\n        /* \"#utility.yul\":8202:8652   */\n      iszero\n      tag_222\n      jumpi\n        /* \"#utility.yul\":8298:8307   */\n      dup5\n        /* \"#utility.yul\":8292:8296   */\n      dup5\n        /* \"#utility.yul\":8288:8308   */\n      sub\n        /* \"#utility.yul\":8283:8286   */\n      dup10\n        /* \"#utility.yul\":8276:8309   */\n      mstore\n        /* \"#utility.yul\":8349:8355   */\n      dup2\n        /* \"#utility.yul\":8343:8356   */\n      mload\n        /* \"#utility.yul\":8377:8497   */\n      tag_223\n        /* \"#utility.yul\":8492:8496   */\n      dup6\n        /* \"#utility.yul\":8477:8490   */\n      dup3\n        /* \"#utility.yul\":8377:8497   */\n      tag_117\n      jump\t// in\n    tag_223:\n        /* \"#utility.yul\":8369:8497   */\n      swap5\n      pop\n        /* \"#utility.yul\":8520:8608   */\n      tag_224\n        /* \"#utility.yul\":8601:8607   */\n      dup4\n        /* \"#utility.yul\":8520:8608   */\n      tag_118\n      jump\t// in\n    tag_224:\n        /* \"#utility.yul\":8510:8608   */\n      swap3\n      pop\n        /* \"#utility.yul\":8637:8641   */\n      0x20\n        /* \"#utility.yul\":8632:8635   */\n      dup11\n        /* \"#utility.yul\":8628:8642   */\n      add\n        /* \"#utility.yul\":8621:8642   */\n      swap10\n      pop\n        /* \"#utility.yul\":8262:8652   */\n      pop\n        /* \"#utility.yul\":8249:8250   */\n      0x01\n        /* \"#utility.yul\":8246:8247   */\n      dup2\n        /* \"#utility.yul\":8242:8251   */\n      add\n        /* \"#utility.yul\":8237:8251   */\n      swap1\n      pop\n        /* \"#utility.yul\":8202:8652   */\n      jump(tag_220)\n    tag_222:\n        /* \"#utility.yul\":8206:8220   */\n      pop\n        /* \"#utility.yul\":8668:8672   */\n      dup3\n        /* \"#utility.yul\":8661:8672   */\n      swap8\n      pop\n        /* \"#utility.yul\":8688:8691   */\n      dup8\n        /* \"#utility.yul\":8681:8691   */\n      swap6\n      pop\n        /* \"#utility.yul\":7742:8697   */\n      pop\n      pop\n      pop\n      pop\n      pop\n        /* \"#utility.yul\":7562:8697   */\n      swap3\n      swap2\n      pop\n      pop\n      jump\t// out\n        /* \"#utility.yul\":8703:9188   */\n    tag_21:\n        /* \"#utility.yul\":8902:8906   */\n      0x00\n        /* \"#utility.yul\":8940:8942   */\n      0x20\n        /* \"#utility.yul\":8929:8938   */\n      dup3\n        /* \"#utility.yul\":8925:8943   */\n      add\n        /* \"#utility.yul\":8917:8943   */\n      swap1\n      pop\n        /* \"#utility.yul\":8989:8998   */\n      dup2\n        /* \"#utility.yul\":8983:8987   */\n      dup2\n        /* \"#utility.yul\":8979:8999   */\n      sub\n        /* \"#utility.yul\":8975:8976   */\n      0x00\n        /* \"#utility.yul\":8964:8973   */\n      dup4\n        /* \"#utility.yul\":8960:8977   */\n      add\n        /* \"#utility.yul\":8953:9000   */\n      mstore\n        /* \"#utility.yul\":9017:9181   */\n      tag_226\n        /* \"#utility.yul\":9176:9180   */\n      dup2\n        /* \"#utility.yul\":9167:9173   */\n      dup5\n        /* \"#utility.yul\":9017:9181   */\n      tag_119\n      jump\t// in\n    tag_226:\n        /* \"#utility.yul\":9009:9181   */\n      swap1\n      pop\n        /* \"#utility.yul\":8703:9188   */\n      swap3\n      swap2\n      pop\n      pop\n      jump\t// out\n        /* \"#utility.yul\":9194:9311   */\n    tag_120:\n        /* \"#utility.yul\":9303:9304   */\n      0x00\n        /* \"#utility.yul\":9300:9301   */\n      dup1\n        /* \"#utility.yul\":9293:9305   */\n      revert\n        /* \"#utility.yul\":9317:9434   */\n    tag_121:\n        /* \"#utility.yul\":9426:9427   */\n      0x00\n        /* \"#utility.yul\":9423:9424   */\n      dup1\n        /* \"#utility.yul\":9416:9428   */\n      revert\n        /* \"#utility.yul\":9440:9620   */\n    tag_122:\n        /* \"#utility.yul\":9488:9565   */\n      0x4e487b7100000000000000000000000000000000000000000000000000000000\n        /* \"#utility.yul\":9485:9486   */\n      0x00\n        /* \"#utility.yul\":9478:9566   */\n      mstore\n        /* \"#utility.yul\":9585:9589   */\n      0x41\n        /* \"#utility.yul\":9582:9583   */\n      0x04\n        /* \"#utility.yul\":9575:9590   */\n      mstore\n        /* \"#utility.yul\":9609:9613   */\n      0x24\n        /* \"#utility.yul\":9606:9607   */\n      0x00\n        /* \"#utility.yul\":9599:9614   */\n      revert\n        /* \"#utility.yul\":9626:9907   */\n    tag_123:\n        /* \"#utility.yul\":9709:9736   */\n      tag_231\n        /* \"#utility.yul\":9731:9735   */\n      dup3\n        /* \"#utility.yul\":9709:9736   */\n      tag_104\n      jump\t// in\n    tag_231:\n        /* \"#utility.yul\":9701:9707   */\n      dup2\n        /* \"#utility.yul\":9697:9737   */\n      add\n        /* \"#utility.yul\":9839:9845   */\n      dup2\n        /* \"#utility.yul\":9827:9837   */\n      dup2\n        /* \"#utility.yul\":9824:9846   */\n      lt\n        /* \"#utility.yul\":9803:9821   */\n      0xffffffffffffffff\n        /* \"#utility.yul\":9791:9801   */\n      dup3\n        /* \"#utility.yul\":9788:9822   */\n      gt\n        /* \"#utility.yul\":9785:9847   */\n      or\n        /* \"#utility.yul\":9782:9870   */\n      iszero\n      tag_232\n      jumpi\n        /* \"#utility.yul\":9850:9868   */\n      tag_233\n      tag_122\n      jump\t// in\n    tag_233:\n        /* \"#utility.yul\":9782:9870   */\n    tag_232:\n        /* \"#utility.yul\":9890:9900   */\n      dup1\n        /* \"#utility.yul\":9886:9888   */\n      0x40\n        /* \"#utility.yul\":9879:9901   */\n      mstore\n        /* \"#utility.yul\":9669:9907   */\n      pop\n        /* \"#utility.yul\":9626:9907   */\n      pop\n      pop\n      jump\t// out\n        /* \"#utility.yul\":9913:10042   */\n    tag_124:\n        /* \"#utility.yul\":9947:9953   */\n      0x00\n        /* \"#utility.yul\":9974:9994   */\n      tag_235\n      tag_94\n      jump\t// in\n    tag_235:\n        /* \"#utility.yul\":9964:9994   */\n      swap1\n      pop\n        /* \"#utility.yul\":10003:10036   */\n      tag_236\n        /* \"#utility.yul\":10031:10035   */\n      dup3\n        /* \"#utility.yul\":10023:10029   */\n      dup3\n        /* \"#utility.yul\":10003:10036   */\n      tag_123\n      jump\t// in\n    tag_236:\n        /* \"#utility.yul\":9913:10042   */\n      swap2\n      swap1\n      pop\n      jump\t// out\n        /* \"#utility.yul\":10048:10356   */\n    tag_125:\n        /* \"#utility.yul\":10110:10114   */\n      0x00\n        /* \"#utility.yul\":10200:10218   */\n      0xffffffffffffffff\n        /* \"#utility.yul\":10192:10198   */\n      dup3\n        /* \"#utility.yul\":10189:10219   */\n      gt\n        /* \"#utility.yul\":10186:10242   */\n      iszero\n      tag_238\n      jumpi\n        /* \"#utility.yul\":10222:10240   */\n      tag_239\n      tag_122\n      jump\t// in\n    tag_239:\n        /* \"#utility.yul\":10186:10242   */\n    tag_238:\n        /* \"#utility.yul\":10260:10289   */\n      tag_240\n        /* \"#utility.yul\":10282:10288   */\n      dup3\n        /* \"#utility.yul\":10260:10289   */\n      tag_104\n      jump\t// in\n    tag_240:\n        /* \"#utility.yul\":10252:10289   */\n      swap1\n      pop\n        /* \"#utility.yul\":10344:10348   */\n      0x20\n        /* \"#utility.yul\":10338:10342   */\n      dup2\n        /* \"#utility.yul\":10334:10349   */\n      add\n        /* \"#utility.yul\":10326:10349   */\n      swap1\n      pop\n        /* \"#utility.yul\":10048:10356   */\n      swap2\n      swap1\n      pop\n      jump\t// out\n        /* \"#utility.yul\":10362:10516   */\n    tag_126:\n        /* \"#utility.yul\":10446:10452   */\n      dup3\n        /* \"#utility.yul\":10441:10444   */\n      dup2\n        /* \"#utility.yul\":10436:10439   */\n      dup4\n        /* \"#utility.yul\":10423:10453   */\n      calldatacopy\n        /* \"#utility.yul\":10508:10509   */\n      0x00\n        /* \"#utility.yul\":10499:10505   */\n      dup4\n        /* \"#utility.yul\":10494:10497   */\n      dup4\n        /* \"#utility.yul\":10490:10506   */\n      add\n        /* \"#utility.yul\":10483:10510   */\n      mstore\n        /* \"#utility.yul\":10362:10516   */\n      pop\n      pop\n      pop\n      jump\t// out\n        /* \"#utility.yul\":10522:10934   */\n    tag_127:\n        /* \"#utility.yul\":10600:10605   */\n      0x00\n        /* \"#utility.yul\":10625:10691   */\n      tag_243\n        /* \"#utility.yul\":10641:10690   */\n      tag_244\n        /* \"#utility.yul\":10683:10689   */\n      dup5\n        /* \"#utility.yul\":10641:10690   */\n      tag_125\n      jump\t// in\n    tag_244:\n        /* \"#utility.yul\":10625:10691   */\n      tag_124\n      jump\t// in\n    tag_243:\n        /* \"#utility.yul\":10616:10691   */\n      swap1\n      pop\n        /* \"#utility.yul\":10714:10720   */\n      dup3\n        /* \"#utility.yul\":10707:10712   */\n      dup2\n        /* \"#utility.yul\":10700:10721   */\n      mstore\n        /* \"#utility.yul\":10752:10756   */\n      0x20\n        /* \"#utility.yul\":10745:10750   */\n      dup2\n        /* \"#utility.yul\":10741:10757   */\n      add\n        /* \"#utility.yul\":10790:10793   */\n      dup5\n        /* \"#utility.yul\":10781:10787   */\n      dup5\n        /* \"#utility.yul\":10776:10779   */\n      dup5\n        /* \"#utility.yul\":10772:10788   */\n      add\n        /* \"#utility.yul\":10769:10794   */\n      gt\n        /* \"#utility.yul\":10766:10878   */\n      iszero\n      tag_245\n      jumpi\n        /* \"#utility.yul\":10797:10876   */\n      tag_246\n      tag_121\n      jump\t// in\n    tag_246:\n        /* \"#utility.yul\":10766:10878   */\n    tag_245:\n        /* \"#utility.yul\":10887:10928   */\n      tag_247\n        /* \"#utility.yul\":10921:10927   */\n      dup5\n        /* \"#utility.yul\":10916:10919   */\n      dup3\n        /* \"#utility.yul\":10911:10914   */\n      dup6\n        /* \"#utility.yul\":10887:10928   */\n      tag_126\n      jump\t// in\n    tag_247:\n        /* \"#utility.yul\":10606:10934   */\n      pop\n        /* \"#utility.yul\":10522:10934   */\n      swap4\n      swap3\n      pop\n      pop\n      pop\n      jump\t// out\n        /* \"#utility.yul\":10954:11294   */\n    tag_128:\n        /* \"#utility.yul\":11010:11015   */\n      0x00\n        /* \"#utility.yul\":11059:11062   */\n      dup3\n        /* \"#utility.yul\":11052:11056   */\n      0x1f\n        /* \"#utility.yul\":11044:11050   */\n      dup4\n        /* \"#utility.yul\":11040:11057   */\n      add\n        /* \"#utility.yul\":11036:11063   */\n      slt\n        /* \"#utility.yul\":11026:11148   */\n      tag_249\n      jumpi\n        /* \"#utility.yul\":11067:11146   */\n      tag_250\n      tag_120\n      jump\t// in\n    tag_250:\n        /* \"#utility.yul\":11026:11148   */\n    tag_249:\n        /* \"#utility.yul\":11184:11190   */\n      dup2\n        /* \"#utility.yul\":11171:11191   */\n      calldataload\n        /* \"#utility.yul\":11209:11288   */\n      tag_251\n        /* \"#utility.yul\":11284:11287   */\n      dup5\n        /* \"#utility.yul\":11276:11282   */\n      dup3\n        /* \"#utility.yul\":11269:11273   */\n      0x20\n        /* \"#utility.yul\":11261:11267   */\n      dup7\n        /* \"#utility.yul\":11257:11274   */\n      add\n        /* \"#utility.yul\":11209:11288   */\n      tag_127\n      jump\t// in\n    tag_251:\n        /* \"#utility.yul\":11200:11288   */\n      swap2\n      pop\n        /* \"#utility.yul\":11016:11294   */\n      pop\n        /* \"#utility.yul\":10954:11294   */\n      swap3\n      swap2\n      pop\n      pop\n      jump\t// out\n        /* \"#utility.yul\":11300:11422   */\n    tag_129:\n        /* \"#utility.yul\":11373:11397   */\n      tag_253\n        /* \"#utility.yul\":11391:11396   */\n      dup2\n        /* \"#utility.yul\":11373:11397   */\n      tag_107\n      jump\t// in\n    tag_253:\n        /* \"#utility.yul\":11366:11371   */\n      dup2\n        /* \"#utility.yul\":11363:11398   */\n      eq\n        /* \"#utility.yul\":11353:11416   */\n      tag_254\n      jumpi\n        /* \"#utility.yul\":11412:11413   */\n      0x00\n        /* \"#utility.yul\":11409:11410   */\n      dup1\n        /* \"#utility.yul\":11402:11414   */\n      revert\n        /* \"#utility.yul\":11353:11416   */\n    tag_254:\n        /* \"#utility.yul\":11300:11422   */\n      pop\n      jump\t// out\n        /* \"#utility.yul\":11428:11567   */\n    tag_130:\n        /* \"#utility.yul\":11474:11479   */\n      0x00\n        /* \"#utility.yul\":11512:11518   */\n      dup2\n        /* \"#utility.yul\":11499:11519   */\n      calldataload\n        /* \"#utility.yul\":11490:11519   */\n      swap1\n      pop\n        /* \"#utility.yul\":11528:11561   */\n      tag_256\n        /* \"#utility.yul\":11555:11560   */\n      dup2\n        /* \"#utility.yul\":11528:11561   */\n      tag_129\n      jump\t// in\n    tag_256:\n        /* \"#utility.yul\":11428:11567   */\n      swap3\n      swap2\n      pop\n      pop\n      jump\t// out\n        /* \"#utility.yul\":11573:12552   */\n    tag_27:\n        /* \"#utility.yul\":11670:11676   */\n      0x00\n        /* \"#utility.yul\":11678:11684   */\n      dup1\n        /* \"#utility.yul\":11686:11692   */\n      0x00\n        /* \"#utility.yul\":11735:11737   */\n      0x60\n        /* \"#utility.yul\":11723:11732   */\n      dup5\n        /* \"#utility.yul\":11714:11721   */\n      dup7\n        /* \"#utility.yul\":11710:11733   */\n      sub\n        /* \"#utility.yul\":11706:11738   */\n      slt\n        /* \"#utility.yul\":11703:11822   */\n      iszero\n      tag_258\n      jumpi\n        /* \"#utility.yul\":11741:11820   */\n      tag_259\n      tag_95\n      jump\t// in\n    tag_259:\n        /* \"#utility.yul\":11703:11822   */\n    tag_258:\n        /* \"#utility.yul\":11889:11890   */\n      0x00\n        /* \"#utility.yul\":11878:11887   */\n      dup5\n        /* \"#utility.yul\":11874:11891   */\n      add\n        /* \"#utility.yul\":11861:11892   */\n      calldataload\n        /* \"#utility.yul\":11919:11937   */\n      0xffffffffffffffff\n        /* \"#utility.yul\":11911:11917   */\n      dup2\n        /* \"#utility.yul\":11908:11938   */\n      gt\n        /* \"#utility.yul\":11905:12022   */\n      iszero\n      tag_260\n      jumpi\n        /* \"#utility.yul\":11941:12020   */\n      tag_261\n      tag_96\n      jump\t// in\n    tag_261:\n        /* \"#utility.yul\":11905:12022   */\n    tag_260:\n        /* \"#utility.yul\":12046:12109   */\n      tag_262\n        /* \"#utility.yul\":12101:12108   */\n      dup7\n        /* \"#utility.yul\":12092:12098   */\n      dup3\n        /* \"#utility.yul\":12081:12090   */\n      dup8\n        /* \"#utility.yul\":12077:12099   */\n      add\n        /* \"#utility.yul\":12046:12109   */\n      tag_128\n      jump\t// in\n    tag_262:\n        /* \"#utility.yul\":12036:12109   */\n      swap4\n      pop\n        /* \"#utility.yul\":11832:12119   */\n      pop\n        /* \"#utility.yul\":12158:12160   */\n      0x20\n        /* \"#utility.yul\":12184:12237   */\n      tag_263\n        /* \"#utility.yul\":12229:12236   */\n      dup7\n        /* \"#utility.yul\":12220:12226   */\n      dup3\n        /* \"#utility.yul\":12209:12218   */\n      dup8\n        /* \"#utility.yul\":12205:12227   */\n      add\n        /* \"#utility.yul\":12184:12237   */\n      tag_130\n      jump\t// in\n    tag_263:\n        /* \"#utility.yul\":12174:12237   */\n      swap3\n      pop\n        /* \"#utility.yul\":12129:12247   */\n      pop\n        /* \"#utility.yul\":12314:12316   */\n      0x40\n        /* \"#utility.yul\":12303:12312   */\n      dup5\n        /* \"#utility.yul\":12299:12317   */\n      add\n        /* \"#utility.yul\":12286:12318   */\n      calldataload\n        /* \"#utility.yul\":12345:12363   */\n      0xffffffffffffffff\n        /* \"#utility.yul\":12337:12343   */\n      dup2\n        /* \"#utility.yul\":12334:12364   */\n      gt\n        /* \"#utility.yul\":12331:12448   */\n      iszero\n      tag_264\n      jumpi\n        /* \"#utility.yul\":12367:12446   */\n      tag_265\n      tag_96\n      jump\t// in\n    tag_265:\n        /* \"#utility.yul\":12331:12448   */\n    tag_264:\n        /* \"#utility.yul\":12472:12535   */\n      tag_266\n        /* \"#utility.yul\":12527:12534   */\n      dup7\n        /* \"#utility.yul\":12518:12524   */\n      dup3\n        /* \"#utility.yul\":12507:12516   */\n      dup8\n        /* \"#utility.yul\":12503:12525   */\n      add\n        /* \"#utility.yul\":12472:12535   */\n      tag_128\n      jump\t// in\n    tag_266:\n        /* \"#utility.yul\":12462:12535   */\n      swap2\n      pop\n        /* \"#utility.yul\":12257:12545   */\n      pop\n        /* \"#utility.yul\":11573:12552   */\n      swap3\n      pop\n      swap3\n      pop\n      swap3\n      jump\t// out\n        /* \"#utility.yul\":12558:12738   */\n    tag_131:\n        /* \"#utility.yul\":12606:12683   */\n      0x4e487b7100000000000000000000000000000000000000000000000000000000\n        /* \"#utility.yul\":12603:12604   */\n      0x00\n        /* \"#utility.yul\":12596:12684   */\n      mstore\n        /* \"#utility.yul\":12703:12707   */\n      0x22\n        /* \"#utility.yul\":12700:12701   */\n      0x04\n        /* \"#utility.yul\":12693:12708   */\n      mstore\n        /* \"#utility.yul\":12727:12731   */\n      0x24\n        /* \"#utility.yul\":12724:12725   */\n      0x00\n        /* \"#utility.yul\":12717:12732   */\n      revert\n        /* \"#utility.yul\":12744:13064   */\n    tag_33:\n        /* \"#utility.yul\":12788:12794   */\n      0x00\n        /* \"#utility.yul\":12825:12826   */\n      0x02\n        /* \"#utility.yul\":12819:12823   */\n      dup3\n        /* \"#utility.yul\":12815:12827   */\n      div\n        /* \"#utility.yul\":12805:12827   */\n      swap1\n      pop\n        /* \"#utility.yul\":12872:12873   */\n      0x01\n        /* \"#utility.yul\":12866:12870   */\n      dup3\n        /* \"#utility.yul\":12862:12874   */\n      and\n        /* \"#utility.yul\":12893:12911   */\n      dup1\n        /* \"#utility.yul\":12883:12964   */\n      tag_269\n      jumpi\n        /* \"#utility.yul\":12949:12953   */\n      0x7f\n        /* \"#utility.yul\":12941:12947   */\n      dup3\n        /* \"#utility.yul\":12937:12954   */\n      and\n        /* \"#utility.yul\":12927:12954   */\n      swap2\n      pop\n        /* \"#utility.yul\":12883:12964   */\n    tag_269:\n        /* \"#utility.yul\":13011:13013   */\n      0x20\n        /* \"#utility.yul\":13003:13009   */\n      dup3\n        /* \"#utility.yul\":13000:13014   */\n      lt\n        /* \"#utility.yul\":12980:12998   */\n      dup2\n        /* \"#utility.yul\":12977:13015   */\n      sub\n        /* \"#utility.yul\":12974:13058   */\n      tag_270\n      jumpi\n        /* \"#utility.yul\":13030:13048   */\n      tag_271\n      tag_131\n      jump\t// in\n    tag_271:\n        /* \"#utility.yul\":12974:13058   */\n    tag_270:\n        /* \"#utility.yul\":12795:13064   */\n      pop\n        /* \"#utility.yul\":12744:13064   */\n      swap2\n      swap1\n      pop\n      jump\t// out\n        /* \"#utility.yul\":13070:13250   */\n    tag_132:\n        /* \"#utility.yul\":13118:13195   */\n      0x4e487b7100000000000000000000000000000000000000000000000000000000\n        /* \"#utility.yul\":13115:13116   */\n      0x00\n        /* \"#utility.yul\":13108:13196   */\n      mstore\n        /* \"#utility.yul\":13215:13219   */\n      0x11\n        /* \"#utility.yul\":13212:13213   */\n      0x04\n        /* \"#utility.yul\":13205:13220   */\n      mstore\n        /* \"#utility.yul\":13239:13243   */\n      0x24\n        /* \"#utility.yul\":13236:13237   */\n      0x00\n        /* \"#utility.yul\":13229:13244   */\n      revert\n        /* \"#utility.yul\":13256:13489   */\n    tag_88:\n        /* \"#utility.yul\":13295:13298   */\n      0x00\n        /* \"#utility.yul\":13318:13342   */\n      tag_274\n        /* \"#utility.yul\":13336:13341   */\n      dup3\n        /* \"#utility.yul\":13318:13342   */\n      tag_97\n      jump\t// in\n    tag_274:\n        /* \"#utility.yul\":13309:13342   */\n      swap2\n      pop\n        /* \"#utility.yul\":13364:13430   */\n      0xffffffffffffffffffffffffffffffffffffffffffffffffffffffffffffffff\n        /* \"#utility.yul\":13357:13362   */\n      dup3\n        /* \"#utility.yul\":13354:13431   */\n      sub\n        /* \"#utility.yul\":13351:13454   */\n      tag_275\n      jumpi\n        /* \"#utility.yul\":13434:13452   */\n      tag_276\n      tag_132\n      jump\t// in\n    tag_276:\n        /* \"#utility.yul\":13351:13454   */\n    tag_275:\n        /* \"#utility.yul\":13481:13482   */\n      0x01\n        /* \"#utility.yul\":13474:13479   */\n      dup3\n        /* \"#utility.yul\":13470:13483   */\n      add\n        /* \"#utility.yul\":13463:13483   */\n      swap1\n      pop\n        /* \"#utility.yul\":13256:13489   */\n      swap2\n      swap1\n      pop\n      jump\t// out\n        /* \"#utility.yul\":13495:13636   */\n    tag_133:\n        /* \"#utility.yul\":13544:13548   */\n      0x00\n        /* \"#utility.yul\":13567:13570   */\n      dup2\n        /* \"#utility.yul\":13559:13570   */\n      swap1\n      pop\n        /* \"#utility.yul\":13590:13593   */\n      dup2\n        /* \"#utility.yul\":13587:13588   */\n      0x00\n        /* \"#utility.yul\":13580:13594   */\n      mstore\n        /* \"#utility.yul\":13624:13628   */\n      0x20\n        /* \"#utility.yul\":13621:13622   */\n      0x00\n        /* \"#utility.yul\":13611:13629   */\n      keccak256\n        /* \"#utility.yul\":13603:13629   */\n      swap1\n      pop\n        /* \"#utility.yul\":13495:13636   */\n      swap2\n      swap1\n      pop\n      jump\t// out\n        /* \"#utility.yul\":13642:13735   */\n    tag_134:\n        /* \"#utility.yul\":13679:13685   */\n      0x00\n        /* \"#utility.yul\":13726:13728   */\n      0x20\n        /* \"#utility.yul\":13721:13723   */\n      0x1f\n        /* \"#utility.yul\":13714:13719   */\n      dup4\n        /* \"#utility.yul\":13710:13724   */\n      add\n        /* \"#utility.yul\":13706:13729   */\n      div\n        /* \"#utility.yul\":13696:13729   */\n      swap1\n      pop\n        /* \"#utility.yul\":13642:13735   */\n      swap2\n      swap1\n      pop\n      jump\t// out\n        /* \"#utility.yul\":13741:13848   */\n    tag_135:\n        /* \"#utility.yul\":13785:13793   */\n      0x00\n        /* \"#utility.yul\":13835:13840   */\n      dup3\n        /* \"#utility.yul\":13829:13833   */\n      dup3\n        /* \"#utility.yul\":13825:13841   */\n      shl\n        /* \"#utility.yul\":13804:13841   */\n      swap1\n      pop\n        /* \"#utility.yul\":13741:13848   */\n      swap3\n      swap2\n      pop\n      pop\n      jump\t// out\n        /* \"#utility.yul\":13854:14247   */\n    tag_136:\n        /* \"#utility.yul\":13923:13929   */\n      0x00\n        /* \"#utility.yul\":13973:13974   */\n      0x08\n        /* \"#utility.yul\":13961:13971   */\n      dup4\n        /* \"#utility.yul\":13957:13975   */\n      mul\n        /* \"#utility.yul\":13996:14093   */\n      tag_281\n        /* \"#utility.yul\":14026:14092   */\n      0xffffffffffffffffffffffffffffffffffffffffffffffffffffffffffffffff\n        /* \"#utility.yul\":14015:14024   */\n      dup3\n        /* \"#utility.yul\":13996:14093   */\n      tag_135\n      jump\t// in\n    tag_281:\n        /* \"#utility.yul\":14114:14153   */\n      tag_282\n        /* \"#utility.yul\":14144:14152   */\n      dup7\n        /* \"#utility.yul\":14133:14142   */\n      dup4\n        /* \"#utility.yul\":14114:14153   */\n      tag_135\n      jump\t// in\n    tag_282:\n        /* \"#utility.yul\":14102:14153   */\n      swap6\n      pop\n        /* \"#utility.yul\":14186:14190   */\n      dup1\n        /* \"#utility.yul\":14182:14191   */\n      not\n        /* \"#utility.yul\":14175:14180   */\n      dup5\n        /* \"#utility.yul\":14171:14192   */\n      and\n        /* \"#utility.yul\":14162:14192   */\n      swap4\n      pop\n        /* \"#utility.yul\":14235:14239   */\n      dup1\n        /* \"#utility.yul\":14225:14233   */\n      dup7\n        /* \"#utility.yul\":14221:14240   */\n      and\n        /* \"#utility.yul\":14214:14219   */\n      dup5\n        /* \"#utility.yul\":14211:14241   */\n      or\n        /* \"#utility.yul\":14201:14241   */\n      swap3\n      pop\n        /* \"#utility.yul\":13930:14247   */\n      pop\n      pop\n        /* \"#utility.yul\":13854:14247   */\n      swap4\n      swap3\n      pop\n      pop\n      pop\n      jump\t// out\n        /* \"#utility.yul\":14253:14313   */\n    tag_137:\n        /* \"#utility.yul\":14281:14284   */\n      0x00\n        /* \"#utility.yul\":14302:14307   */\n      dup2\n        /* \"#utility.yul\":14295:14307   */\n      swap1\n      pop\n        /* \"#utility.yul\":14253:14313   */\n      swap2\n      swap1\n      pop\n      jump\t// out\n        /* \"#utility.yul\":14319:14461   */\n    tag_138:\n        /* \"#utility.yul\":14369:14378   */\n      0x00\n        /* \"#utility.yul\":14402:14455   */\n      tag_285\n        /* \"#utility.yul\":14420:14454   */\n      tag_286\n        /* \"#utility.yul\":14429:14453   */\n      tag_287\n        /* \"#utility.yul\":14447:14452   */\n      dup5\n        /* \"#utility.yul\":14429:14453   */\n      tag_97\n      jump\t// in\n    tag_287:\n        /* \"#utility.yul\":14420:14454   */\n      tag_137\n      jump\t// in\n    tag_286:\n        /* \"#utility.yul\":14402:14455   */\n      tag_97\n      jump\t// in\n    tag_285:\n        /* \"#utility.yul\":14389:14455   */\n      swap1\n      pop\n        /* \"#utility.yul\":14319:14461   */\n      swap2\n      swap1\n      pop\n      jump\t// out\n        /* \"#utility.yul\":14467:14542   */\n    tag_139:\n        /* \"#utility.yul\":14510:14513   */\n      0x00\n        /* \"#utility.yul\":14531:14536   */\n      dup2\n        /* \"#utility.yul\":14524:14536   */\n      swap1\n      pop\n        /* \"#utility.yul\":14467:14542   */\n      swap2\n      swap1\n      pop\n      jump\t// out\n        /* \"#utility.yul\":14548:14817   */\n    tag_140:\n        /* \"#utility.yul\":14658:14697   */\n      tag_290\n        /* \"#utility.yul\":14689:14696   */\n      dup4\n        /* \"#utility.yul\":14658:14697   */\n      tag_138\n      jump\t// in\n    tag_290:\n        /* \"#utility.yul\":14719:14810   */\n      tag_291\n        /* \"#utility.yul\":14768:14809   */\n      tag_292\n        /* \"#utility.yul\":14792:14808   */\n      dup3\n        /* \"#utility.yul\":14768:14809   */\n      tag_139\n      jump\t// in\n    tag_292:\n        /* \"#utility.yul\":14760:14766   */\n      dup5\n        /* \"#utility.yul\":14753:14757   */\n      dup5\n        /* \"#utility.yul\":14747:14758   */\n      sload\n        /* \"#utility.yul\":14719:14810   */\n      tag_136\n      jump\t// in\n    tag_291:\n        /* \"#utility.yul\":14713:14717   */\n      dup3\n        /* \"#utility.yul\":14706:14811   */\n      sstore\n        /* \"#utility.yul\":14624:14817   */\n      pop\n        /* \"#utility.yul\":14548:14817   */\n      pop\n      pop\n      pop\n      jump\t// out\n        /* \"#utility.yul\":14823:14896   */\n    tag_141:\n        /* \"#utility.yul\":14868:14871   */\n      0x00\n        /* \"#utility.yul\":14823:14896   */\n      swap1\n      jump\t// out\n        /* \"#utility.yul\":14902:15091   */\n    tag_142:\n        /* \"#utility.yul\":14979:15011   */\n      tag_295\n      tag_141\n      jump\t// in\n    tag_295:\n        /* \"#utility.yul\":15020:15085   */\n      tag_296\n        /* \"#utility.yul\":15078:15084   */\n      dup2\n        /* \"#utility.yul\":15070:15076   */\n      dup5\n        /* \"#utility.yul\":15064:15068   */\n      dup5\n        /* \"#utility.yul\":15020:15085   */\n      tag_140\n      jump\t// in\n    tag_296:\n        /* \"#utility.yul\":14955:15091   */\n      pop\n        /* \"#utility.yul\":14902:15091   */\n      pop\n      pop\n      jump\t// out\n        /* \"#utility.yul\":15097:15283   */\n    tag_143:\n        /* \"#utility.yul\":15157:15277   */\n    tag_298:\n        /* \"#utility.yul\":15174:15177   */\n      dup2\n        /* \"#utility.yul\":15167:15172   */\n      dup2\n        /* \"#utility.yul\":15164:15178   */\n      lt\n        /* \"#utility.yul\":15157:15277   */\n      iszero\n      tag_300\n      jumpi\n        /* \"#utility.yul\":15228:15267   */\n      tag_301\n        /* \"#utility.yul\":15265:15266   */\n      0x00\n        /* \"#utility.yul\":15258:15263   */\n      dup3\n        /* \"#utility.yul\":15228:15267   */\n      tag_142\n      jump\t// in\n    tag_301:\n        /* \"#utility.yul\":15201:15202   */\n      0x01\n        /* \"#utility.yul\":15194:15199   */\n      dup2\n        /* \"#utility.yul\":15190:15203   */\n      add\n        /* \"#utility.yul\":15181:15203   */\n      swap1\n      pop\n        /* \"#utility.yul\":15157:15277   */\n      jump(tag_298)\n    tag_300:\n        /* \"#utility.yul\":15097:15283   */\n      pop\n      pop\n      jump\t// out\n        /* \"#utility.yul\":15289:15832   */\n    tag_144:\n        /* \"#utility.yul\":15390:15392   */\n      0x1f\n        /* \"#utility.yul\":15385:15388   */\n      dup3\n        /* \"#utility.yul\":15382:15393   */\n      gt\n        /* \"#utility.yul\":15379:15825   */\n      iszero\n      tag_303\n      jumpi\n        /* \"#utility.yul\":15424:15462   */\n      tag_304\n        /* \"#utility.yul\":15456:15461   */\n      dup2\n        /* \"#utility.yul\":15424:15462   */\n      tag_133\n      jump\t// in\n    tag_304:\n        /* \"#utility.yul\":15508:15537   */\n      tag_305\n        /* \"#utility.yul\":15526:15536   */\n      dup5\n        /* \"#utility.yul\":15508:15537   */\n      tag_134\n      jump\t// in\n    tag_305:\n        /* \"#utility.yul\":15498:15506   */\n      dup2\n        /* \"#utility.yul\":15494:15538   */\n      add\n        /* \"#utility.yul\":15691:15693   */\n      0x20\n        /* \"#utility.yul\":15679:15689   */\n      dup6\n        /* \"#utility.yul\":15676:15694   */\n      lt\n        /* \"#utility.yul\":15673:15722   */\n      iszero\n      tag_306\n      jumpi\n        /* \"#utility.yul\":15712:15720   */\n      dup2\n        /* \"#utility.yul\":15697:15720   */\n      swap1\n      pop\n        /* \"#utility.yul\":15673:15722   */\n    tag_306:\n        /* \"#utility.yul\":15735:15815   */\n      tag_307\n        /* \"#utility.yul\":15791:15813   */\n      tag_308\n        /* \"#utility.yul\":15809:15812   */\n      dup6\n        /* \"#utility.yul\":15791:15813   */\n      tag_134\n      jump\t// in\n    tag_308:\n        /* \"#utility.yul\":15781:15789   */\n      dup4\n        /* \"#utility.yul\":15777:15814   */\n      add\n        /* \"#utility.yul\":15764:15775   */\n      dup3\n        /* \"#utility.yul\":15735:15815   */\n      tag_143\n      jump\t// in\n    tag_307:\n        /* \"#utility.yul\":15394:15825   */\n      pop\n      pop\n        /* \"#utility.yul\":15379:15825   */\n    tag_303:\n        /* \"#utility.yul\":15289:15832   */\n      pop\n      pop\n      pop\n      jump\t// out\n        /* \"#utility.yul\":15838:15955   */\n    tag_145:\n        /* \"#utility.yul\":15892:15900   */\n      0x00\n        /* \"#utility.yul\":15942:15947   */\n      dup3\n        /* \"#utility.yul\":15936:15940   */\n      dup3\n        /* \"#utility.yul\":15932:15948   */\n      shr\n        /* \"#utility.yul\":15911:15948   */\n      swap1\n      pop\n        /* \"#utility.yul\":15838:15955   */\n      swap3\n      swap2\n      pop\n      pop\n      jump\t// out\n        /* \"#utility.yul\":15961:16130   */\n    tag_146:\n        /* \"#utility.yul\":16005:16011   */\n      0x00\n        /* \"#utility.yul\":16038:16089   */\n      tag_311\n        /* \"#utility.yul\":16086:16087   */\n      0x00\n        /* \"#utility.yul\":16082:16088   */\n      not\n        /* \"#utility.yul\":16074:16079   */\n      dup5\n        /* \"#utility.yul\":16071:16072   */\n      0x08\n        /* \"#utility.yul\":16067:16080   */\n      mul\n        /* \"#utility.yul\":16038:16089   */\n      tag_145\n      jump\t// in\n    tag_311:\n        /* \"#utility.yul\":16034:16090   */\n      not\n        /* \"#utility.yul\":16119:16123   */\n      dup1\n        /* \"#utility.yul\":16113:16117   */\n      dup4\n        /* \"#utility.yul\":16109:16124   */\n      and\n        /* \"#utility.yul\":16099:16124   */\n      swap2\n      pop\n        /* \"#utility.yul\":16012:16130   */\n      pop\n        /* \"#utility.yul\":15961:16130   */\n      swap3\n      swap2\n      pop\n      pop\n      jump\t// out\n        /* \"#utility.yul\":16135:16430   */\n    tag_147:\n        /* \"#utility.yul\":16211:16215   */\n      0x00\n        /* \"#utility.yul\":16357:16386   */\n      tag_313\n        /* \"#utility.yul\":16382:16385   */\n      dup4\n        /* \"#utility.yul\":16376:16380   */\n      dup4\n        /* \"#utility.yul\":16357:16386   */\n      tag_146\n      jump\t// in\n    tag_313:\n        /* \"#utility.yul\":16349:16386   */\n      swap2\n      pop\n        /* \"#utility.yul\":16419:16422   */\n      dup3\n        /* \"#utility.yul\":16416:16417   */\n      0x02\n        /* \"#utility.yul\":16412:16423   */\n      mul\n        /* \"#utility.yul\":16406:16410   */\n      dup3\n        /* \"#utility.yul\":16403:16424   */\n      or\n        /* \"#utility.yul\":16395:16424   */\n      swap1\n      pop\n        /* \"#utility.yul\":16135:16430   */\n      swap3\n      swap2\n      pop\n      pop\n      jump\t// out\n        /* \"#utility.yul\":16435:17830   */\n    tag_91:\n        /* \"#utility.yul\":16552:16589   */\n      tag_315\n        /* \"#utility.yul\":16585:16588   */\n      dup3\n        /* \"#utility.yul\":16552:16589   */\n      tag_101\n      jump\t// in\n    tag_315:\n        /* \"#utility.yul\":16654:16672   */\n      0xffffffffffffffff\n        /* \"#utility.yul\":16646:16652   */\n      dup2\n        /* \"#utility.yul\":16643:16673   */\n      gt\n        /* \"#utility.yul\":16640:16696   */\n      iszero\n      tag_316\n      jumpi\n        /* \"#utility.yul\":16676:16694   */\n      tag_317\n      tag_122\n      jump\t// in\n    tag_317:\n        /* \"#utility.yul\":16640:16696   */\n    tag_316:\n        /* \"#utility.yul\":16720:16758   */\n      tag_318\n        /* \"#utility.yul\":16752:16756   */\n      dup3\n        /* \"#utility.yul\":16746:16757   */\n      sload\n        /* \"#utility.yul\":16720:16758   */\n      tag_33\n      jump\t// in\n    tag_318:\n        /* \"#utility.yul\":16805:16872   */\n      tag_319\n        /* \"#utility.yul\":16865:16871   */\n      dup3\n        /* \"#utility.yul\":16857:16863   */\n      dup3\n        /* \"#utility.yul\":16851:16855   */\n      dup6\n        /* \"#utility.yul\":16805:16872   */\n      tag_144\n      jump\t// in\n    tag_319:\n        /* \"#utility.yul\":16899:16900   */\n      0x00\n        /* \"#utility.yul\":16923:16927   */\n      0x20\n        /* \"#utility.yul\":16910:16927   */\n      swap1\n      pop\n        /* \"#utility.yul\":16955:16957   */\n      0x1f\n        /* \"#utility.yul\":16947:16953   */\n      dup4\n        /* \"#utility.yul\":16944:16958   */\n      gt\n        /* \"#utility.yul\":16972:16973   */\n      0x01\n        /* \"#utility.yul\":16967:17585   */\n      dup2\n      eq\n      tag_321\n      jumpi\n        /* \"#utility.yul\":17629:17630   */\n      0x00\n        /* \"#utility.yul\":17646:17652   */\n      dup5\n        /* \"#utility.yul\":17643:17720   */\n      iszero\n      tag_322\n      jumpi\n        /* \"#utility.yul\":17695:17704   */\n      dup3\n        /* \"#utility.yul\":17690:17693   */\n      dup8\n        /* \"#utility.yul\":17686:17705   */\n      add\n        /* \"#utility.yul\":17680:17706   */\n      mload\n        /* \"#utility.yul\":17671:17706   */\n      swap1\n      pop\n        /* \"#utility.yul\":17643:17720   */\n    tag_322:\n        /* \"#utility.yul\":17746:17813   */\n      tag_323\n        /* \"#utility.yul\":17806:17812   */\n      dup6\n        /* \"#utility.yul\":17799:17804   */\n      dup3\n        /* \"#utility.yul\":17746:17813   */\n      tag_147\n      jump\t// in\n    tag_323:\n        /* \"#utility.yul\":17740:17744   */\n      dup7\n        /* \"#utility.yul\":17733:17814   */\n      sstore\n        /* \"#utility.yul\":17602:17824   */\n      pop\n        /* \"#utility.yul\":16937:17824   */\n      jump(tag_320)\n        /* \"#utility.yul\":16967:17585   */\n    tag_321:\n        /* \"#utility.yul\":17019:17023   */\n      0x1f\n        /* \"#utility.yul\":17015:17024   */\n      not\n        /* \"#utility.yul\":17007:17013   */\n      dup5\n        /* \"#utility.yul\":17003:17025   */\n      and\n        /* \"#utility.yul\":17053:17090   */\n      tag_324\n        /* \"#utility.yul\":17085:17089   */\n      dup7\n        /* \"#utility.yul\":17053:17090   */\n      tag_133\n      jump\t// in\n    tag_324:\n        /* \"#utility.yul\":17112:17113   */\n      0x00\n        /* \"#utility.yul\":17126:17334   */\n    tag_325:\n        /* \"#utility.yul\":17140:17147   */\n      dup3\n        /* \"#utility.yul\":17137:17138   */\n      dup2\n        /* \"#utility.yul\":17134:17148   */\n      lt\n        /* \"#utility.yul\":17126:17334   */\n      iszero\n      tag_327\n      jumpi\n        /* \"#utility.yul\":17219:17228   */\n      dup5\n        /* \"#utility.yul\":17214:17217   */\n      dup10\n        /* \"#utility.yul\":17210:17229   */\n      add\n        /* \"#utility.yul\":17204:17230   */\n      mload\n        /* \"#utility.yul\":17196:17202   */\n      dup3\n        /* \"#utility.yul\":17189:17231   */\n      sstore\n        /* \"#utility.yul\":17270:17271   */\n      0x01\n        /* \"#utility.yul\":17262:17268   */\n      dup3\n        /* \"#utility.yul\":17258:17272   */\n      add\n        /* \"#utility.yul\":17248:17272   */\n      swap2\n      pop\n        /* \"#utility.yul\":17317:17319   */\n      0x20\n        /* \"#utility.yul\":17306:17315   */\n      dup6\n        /* \"#utility.yul\":17302:17320   */\n      add\n        /* \"#utility.yul\":17289:17320   */\n      swap5\n      pop\n        /* \"#utility.yul\":17163:17167   */\n      0x20\n        /* \"#utility.yul\":17160:17161   */\n      dup2\n        /* \"#utility.yul\":17156:17168   */\n      add\n        /* \"#utility.yul\":17151:17168   */\n      swap1\n      pop\n        /* \"#utility.yul\":17126:17334   */\n      jump(tag_325)\n    tag_327:\n        /* \"#utility.yul\":17362:17368   */\n      dup7\n        /* \"#utility.yul\":17353:17360   */\n      dup4\n        /* \"#utility.yul\":17350:17369   */\n      lt\n        /* \"#utility.yul\":17347:17526   */\n      iszero\n      tag_328\n      jumpi\n        /* \"#utility.yul\":17420:17429   */\n      dup5\n        /* \"#utility.yul\":17415:17418   */\n      dup10\n        /* \"#utility.yul\":17411:17430   */\n      add\n        /* \"#utility.yul\":17405:17431   */\n      mload\n        /* \"#utility.yul\":17463:17511   */\n      tag_329\n        /* \"#utility.yul\":17505:17509   */\n      0x1f\n        /* \"#utility.yul\":17497:17503   */\n      dup10\n        /* \"#utility.yul\":17493:17510   */\n      and\n        /* \"#utility.yul\":17482:17491   */\n      dup3\n        /* \"#utility.yul\":17463:17511   */\n      tag_146\n      jump\t// in\n    tag_329:\n        /* \"#utility.yul\":17455:17461   */\n      dup4\n        /* \"#utility.yul\":17448:17512   */\n      sstore\n        /* \"#utility.yul\":17370:17526   */\n      pop\n        /* \"#utility.yul\":17347:17526   */\n    tag_328:\n        /* \"#utility.yul\":17572:17573   */\n      0x01\n        /* \"#utility.yul\":17568:17569   */\n      0x02\n        /* \"#utility.yul\":17560:17566   */\n      dup9\n        /* \"#utility.yul\":17556:17570   */\n      mul\n        /* \"#utility.yul\":17552:17574   */\n      add\n        /* \"#utility.yul\":17546:17550   */\n      dup9\n        /* \"#utility.yul\":17539:17575   */\n      sstore\n        /* \"#utility.yul\":16974:17585   */\n      pop\n      pop\n      pop\n        /* \"#utility.yul\":16937:17824   */\n    tag_320:\n      pop\n        /* \"#utility.yul\":16527:17830   */\n      pop\n      pop\n      pop\n        /* \"#utility.yul\":16435:17830   */\n      pop\n      pop\n      jump\t// out\n\n    auxdata: 0xa264697066735822122022cb2fdbbb2c07a1f7acdead1773179d33bdac118831725d1e78060c28ab24f664736f6c634300080f0033\n}\n",
				"bytecode": {
					"linkReferences": {},
					"object": "608060405234801561001057600080fd5b5061146f806100206000396000f3fe608060405234801561001057600080fd5b50600436106100575760003560e01c806369ba1a751461005c57806380c9419e14610078578063904cc175146100af578063942b765a146100df578063a97af4d5146100fd575b600080fd5b61007660048036038101906100719190610b45565b610119565b005b610092600480360381019061008d9190610b45565b61011c565b6040516100a6989796959493929190610c5b565b60405180910390f35b6100c960048036038101906100c49190610b45565b61034c565b6040516100d69190610ed6565b60405180910390f35b6100e761063f565b6040516100f49190610ed6565b60405180910390f35b61011760048036038101906101129190611059565b61091f565b005b50565b6001818154811061012c57600080fd5b906000526020600020906008020160009150905080600001549080600101805461015590611113565b80601f016020809104026020016040519081016040528092919081815260200182805461018190611113565b80156101ce5780601f106101a3576101008083540402835291602001916101ce565b820191906000526020600020905b8154815290600101906020018083116101b157829003601f168201915b5050505050908060020154908060030160009054906101000a900473ffffffffffffffffffffffffffffffffffffffff16908060040160009054906101000a900473ffffffffffffffffffffffffffffffffffffffff169080600501549080600601805461023b90611113565b80601f016020809104026020016040519081016040528092919081815260200182805461026790611113565b80156102b45780601f10610289576101008083540402835291602001916102b4565b820191906000526020600020905b81548152906001019060200180831161029757829003601f168201915b5050505050908060070180546102c990611113565b80601f01602080910402602001604051908101604052809291908181526020018280546102f590611113565b80156103425780601f1061031757610100808354040283529160200191610342565b820191906000526020600020905b81548152906001019060200180831161032557829003601f168201915b5050505050905088565b606060026000838152602001908152602001600020805480602002602001604051908101604052809291908181526020016000905b82821015610634578382906000526020600020906008020160405180610100016040529081600082015481526020016001820180546103bf90611113565b80601f01602080910402602001604051908101604052809291908181526020018280546103eb90611113565b80156104385780601f1061040d57610100808354040283529160200191610438565b820191906000526020600020905b81548152906001019060200180831161041b57829003601f168201915b50505050508152602001600282015481526020016003820160009054906101000a900473ffffffffffffffffffffffffffffffffffffffff1673ffffffffffffffffffffffffffffffffffffffff1673ffffffffffffffffffffffffffffffffffffffff1681526020016004820160009054906101000a900473ffffffffffffffffffffffffffffffffffffffff1673ffffffffffffffffffffffffffffffffffffffff1673ffffffffffffffffffffffffffffffffffffffff1681526020016005820154815260200160068201805461051190611113565b80601f016020809104026020016040519081016040528092919081815260200182805461053d90611113565b801561058a5780601f1061055f5761010080835404028352916020019161058a565b820191906000526020600020905b81548152906001019060200180831161056d57829003601f168201915b505050505081526020016007820180546105a390611113565b80601f01602080910402602001604051908101604052809291908181526020018280546105cf90611113565b801561061c5780601f106105f15761010080835404028352916020019161061c565b820191906000526020600020905b8154815290600101906020018083116105ff57829003601f168201915b50505050508152505081526020019060010190610381565b505050509050919050565b60606001805480602002602001604051908101604052809291908181526020016000905b82821015610916578382906000526020600020906008020160405180610100016040529081600082015481526020016001820180546106a190611113565b80601f01602080910402602001604051908101604052809291908181526020018280546106cd90611113565b801561071a5780601f106106ef5761010080835404028352916020019161071a565b820191906000526020600020905b8154815290600101906020018083116106fd57829003601f168201915b50505050508152602001600282015481526020016003820160009054906101000a900473ffffffffffffffffffffffffffffffffffffffff1673ffffffffffffffffffffffffffffffffffffffff1673ffffffffffffffffffffffffffffffffffffffff1681526020016004820160009054906101000a900473ffffffffffffffffffffffffffffffffffffffff1673ffffffffffffffffffffffffffffffffffffffff1673ffffffffffffffffffffffffffffffffffffffff168152602001600582015481526020016006820180546107f390611113565b80601f016020809104026020016040519081016040528092919081815260200182805461081f90611113565b801561086c5780601f106108415761010080835404028352916020019161086c565b820191906000526020600020905b81548152906001019060200180831161084f57829003601f168201915b5050505050815260200160078201805461088590611113565b80601f01602080910402602001604051908101604052809291908181526020018280546108b190611113565b80156108fe5780601f106108d3576101008083540402835291602001916108fe565b820191906000526020600020905b8154815290600101906020018083116108e157829003601f168201915b50505050508152505081526020019060010190610663565b50505050905090565b60008081548092919061093190611173565b919050555060006040518061010001604052806000548152602001858152602001600081526020013373ffffffffffffffffffffffffffffffffffffffff1681526020018473ffffffffffffffffffffffffffffffffffffffff168152602001600081526020018381526020016040518060400160405280600181526020017f300000000000000000000000000000000000000000000000000000000000000081525081525090506001819080600181540180825580915050600190039060005260206000209060080201600090919091909150600082015181600001556020820151816001019081610a249190611367565b506040820151816002015560608201518160030160006101000a81548173ffffffffffffffffffffffffffffffffffffffff021916908373ffffffffffffffffffffffffffffffffffffffff16021790555060808201518160040160006101000a81548173ffffffffffffffffffffffffffffffffffffffff021916908373ffffffffffffffffffffffffffffffffffffffff16021790555060a0820151816005015560c0820151816006019081610adc9190611367565b5060e0820151816007019081610af29190611367565b50505050505050565b6000604051905090565b600080fd5b600080fd5b6000819050919050565b610b2281610b0f565b8114610b2d57600080fd5b50565b600081359050610b3f81610b19565b92915050565b600060208284031215610b5b57610b5a610b05565b5b6000610b6984828501610b30565b91505092915050565b610b7b81610b0f565b82525050565b600081519050919050565b600082825260208201905092915050565b60005b83811015610bbb578082015181840152602081019050610ba0565b83811115610bca576000848401525b50505050565b6000601f19601f8301169050919050565b6000610bec82610b81565b610bf68185610b8c565b9350610c06818560208601610b9d565b610c0f81610bd0565b840191505092915050565b600073ffffffffffffffffffffffffffffffffffffffff82169050919050565b6000610c4582610c1a565b9050919050565b610c5581610c3a565b82525050565b600061010082019050610c71600083018b610b72565b8181036020830152610c83818a610be1565b9050610c926040830189610b72565b610c9f6060830188610c4c565b610cac6080830187610c4c565b610cb960a0830186610b72565b81810360c0830152610ccb8185610be1565b905081810360e0830152610cdf8184610be1565b90509998505050505050505050565b600081519050919050565b600082825260208201905092915050565b6000819050602082019050919050565b610d2381610b0f565b82525050565b600082825260208201905092915050565b6000610d4582610b81565b610d4f8185610d29565b9350610d5f818560208601610b9d565b610d6881610bd0565b840191505092915050565b610d7c81610c3a565b82525050565b600061010083016000830151610d9b6000860182610d1a565b5060208301518482036020860152610db38282610d3a565b9150506040830151610dc86040860182610d1a565b506060830151610ddb6060860182610d73565b506080830151610dee6080860182610d73565b5060a0830151610e0160a0860182610d1a565b5060c083015184820360c0860152610e198282610d3a565b91505060e083015184820360e0860152610e338282610d3a565b9150508091505092915050565b6000610e4c8383610d82565b905092915050565b6000602082019050919050565b6000610e6c82610cee565b610e768185610cf9565b935083602082028501610e8885610d0a565b8060005b85811015610ec45784840389528151610ea58582610e40565b9450610eb083610e54565b925060208a01995050600181019050610e8c565b50829750879550505050505092915050565b60006020820190508181036000830152610ef08184610e61565b905092915050565b600080fd5b600080fd5b7f4e487b7100000000000000000000000000000000000000000000000000000000600052604160045260246000fd5b610f3a82610bd0565b810181811067ffffffffffffffff82111715610f5957610f58610f02565b5b80604052505050565b6000610f6c610afb565b9050610f788282610f31565b919050565b600067ffffffffffffffff821115610f9857610f97610f02565b5b610fa182610bd0565b9050602081019050919050565b82818337600083830152505050565b6000610fd0610fcb84610f7d565b610f62565b905082815260208101848484011115610fec57610feb610efd565b5b610ff7848285610fae565b509392505050565b600082601f83011261101457611013610ef8565b5b8135611024848260208601610fbd565b91505092915050565b61103681610c3a565b811461104157600080fd5b50565b6000813590506110538161102d565b92915050565b60008060006060848603121561107257611071610b05565b5b600084013567ffffffffffffffff8111156110905761108f610b0a565b5b61109c86828701610fff565b93505060206110ad86828701611044565b925050604084013567ffffffffffffffff8111156110ce576110cd610b0a565b5b6110da86828701610fff565b9150509250925092565b7f4e487b7100000000000000000000000000000000000000000000000000000000600052602260045260246000fd5b6000600282049050600182168061112b57607f821691505b60208210810361113e5761113d6110e4565b5b50919050565b7f4e487b7100000000000000000000000000000000000000000000000000000000600052601160045260246000fd5b600061117e82610b0f565b91507fffffffffffffffffffffffffffffffffffffffffffffffffffffffffffffffff82036111b0576111af611144565b5b600182019050919050565b60008190508160005260206000209050919050565b60006020601f8301049050919050565b600082821b905092915050565b60006008830261121d7fffffffffffffffffffffffffffffffffffffffffffffffffffffffffffffffff826111e0565b61122786836111e0565b95508019841693508086168417925050509392505050565b6000819050919050565b600061126461125f61125a84610b0f565b61123f565b610b0f565b9050919050565b6000819050919050565b61127e83611249565b61129261128a8261126b565b8484546111ed565b825550505050565b600090565b6112a761129a565b6112b2818484611275565b505050565b5b818110156112d6576112cb60008261129f565b6001810190506112b8565b5050565b601f82111561131b576112ec816111bb565b6112f5846111d0565b81016020851015611304578190505b611318611310856111d0565b8301826112b7565b50505b505050565b600082821c905092915050565b600061133e60001984600802611320565b1980831691505092915050565b6000611357838361132d565b9150826002028217905092915050565b61137082610b81565b67ffffffffffffffff81111561138957611388610f02565b5b6113938254611113565b61139e8282856112da565b600060209050601f8311600181146113d157600084156113bf578287015190505b6113c9858261134b565b865550611431565b601f1984166113df866111bb565b60005b82811015611407578489015182556001820191506020850194506020810190506113e2565b868310156114245784890151611420601f89168261132d565b8355505b6001600288020188555050505b50505050505056fea264697066735822122022cb2fdbbb2c07a1f7acdead1773179d33bdac118831725d1e78060c28ab24f664736f6c634300080f0033",
					"opcodes": "PUSH1 0x80 PUSH1 0x40 MSTORE CALLVALUE DUP1 ISZERO PUSH2 0x10 JUMPI PUSH1 0x0 DUP1 REVERT JUMPDEST POP PUSH2 0x146F DUP1 PUSH2 0x20 PUSH1 0x0 CODECOPY PUSH1 0x0 RETURN INVALID PUSH1 0x80 PUSH1 0x40 MSTORE CALLVALUE DUP1 ISZERO PUSH2 0x10 JUMPI PUSH1 0x0 DUP1 REVERT JUMPDEST POP PUSH1 0x4 CALLDATASIZE LT PUSH2 0x57 JUMPI PUSH1 0x0 CALLDATALOAD PUSH1 0xE0 SHR DUP1 PUSH4 0x69BA1A75 EQ PUSH2 0x5C JUMPI DUP1 PUSH4 0x80C9419E EQ PUSH2 0x78 JUMPI DUP1 PUSH4 0x904CC175 EQ PUSH2 0xAF JUMPI DUP1 PUSH4 0x942B765A EQ PUSH2 0xDF JUMPI DUP1 PUSH4 0xA97AF4D5 EQ PUSH2 0xFD JUMPI JUMPDEST PUSH1 0x0 DUP1 REVERT JUMPDEST PUSH2 0x76 PUSH1 0x4 DUP1 CALLDATASIZE SUB DUP2 ADD SWAP1 PUSH2 0x71 SWAP2 SWAP1 PUSH2 0xB45 JUMP JUMPDEST PUSH2 0x119 JUMP JUMPDEST STOP JUMPDEST PUSH2 0x92 PUSH1 0x4 DUP1 CALLDATASIZE SUB DUP2 ADD SWAP1 PUSH2 0x8D SWAP2 SWAP1 PUSH2 0xB45 JUMP JUMPDEST PUSH2 0x11C JUMP JUMPDEST PUSH1 0x40 MLOAD PUSH2 0xA6 SWAP9 SWAP8 SWAP7 SWAP6 SWAP5 SWAP4 SWAP3 SWAP2 SWAP1 PUSH2 0xC5B JUMP JUMPDEST PUSH1 0x40 MLOAD DUP1 SWAP2 SUB SWAP1 RETURN JUMPDEST PUSH2 0xC9 PUSH1 0x4 DUP1 CALLDATASIZE SUB DUP2 ADD SWAP1 PUSH2 0xC4 SWAP2 SWAP1 PUSH2 0xB45 JUMP JUMPDEST PUSH2 0x34C JUMP JUMPDEST PUSH1 0x40 MLOAD PUSH2 0xD6 SWAP2 SWAP1 PUSH2 0xED6 JUMP JUMPDEST PUSH1 0x40 MLOAD DUP1 SWAP2 SUB SWAP1 RETURN JUMPDEST PUSH2 0xE7 PUSH2 0x63F JUMP JUMPDEST PUSH1 0x40 MLOAD PUSH2 0xF4 SWAP2 SWAP1 PUSH2 0xED6 JUMP JUMPDEST PUSH1 0x40 MLOAD DUP1 SWAP2 SUB SWAP1 RETURN JUMPDEST PUSH2 0x117 PUSH1 0x4 DUP1 CALLDATASIZE SUB DUP2 ADD SWAP1 PUSH2 0x112 SWAP2 SWAP1 PUSH2 0x1059 JUMP JUMPDEST PUSH2 0x91F JUMP JUMPDEST STOP JUMPDEST POP JUMP JUMPDEST PUSH1 0x1 DUP2 DUP2 SLOAD DUP2 LT PUSH2 0x12C JUMPI PUSH1 0x0 DUP1 REVERT JUMPDEST SWAP1 PUSH1 0x0 MSTORE PUSH1 0x20 PUSH1 0x0 KECCAK256 SWAP1 PUSH1 0x8 MUL ADD PUSH1 0x0 SWAP2 POP SWAP1 POP DUP1 PUSH1 0x0 ADD SLOAD SWAP1 DUP1 PUSH1 0x1 ADD DUP1 SLOAD PUSH2 0x155 SWAP1 PUSH2 0x1113 JUMP JUMPDEST DUP1 PUSH1 0x1F ADD PUSH1 0x20 DUP1 SWAP2 DIV MUL PUSH1 0x20 ADD PUSH1 0x40 MLOAD SWAP1 DUP2 ADD PUSH1 0x40 MSTORE DUP1 SWAP3 SWAP2 SWAP1 DUP2 DUP2 MSTORE PUSH1 0x20 ADD DUP3 DUP1 SLOAD PUSH2 0x181 SWAP1 PUSH2 0x1113 JUMP JUMPDEST DUP1 ISZERO PUSH2 0x1CE JUMPI DUP1 PUSH1 0x1F LT PUSH2 0x1A3 JUMPI PUSH2 0x100 DUP1 DUP4 SLOAD DIV MUL DUP4 MSTORE SWAP2 PUSH1 0x20 ADD SWAP2 PUSH2 0x1CE JUMP JUMPDEST DUP3 ADD SWAP2 SWAP1 PUSH1 0x0 MSTORE PUSH1 0x20 PUSH1 0x0 KECCAK256 SWAP1 JUMPDEST DUP2 SLOAD DUP2 MSTORE SWAP1 PUSH1 0x1 ADD SWAP1 PUSH1 0x20 ADD DUP1 DUP4 GT PUSH2 0x1B1 JUMPI DUP3 SWAP1 SUB PUSH1 0x1F AND DUP3 ADD SWAP2 JUMPDEST POP POP POP POP POP SWAP1 DUP1 PUSH1 0x2 ADD SLOAD SWAP1 DUP1 PUSH1 0x3 ADD PUSH1 0x0 SWAP1 SLOAD SWAP1 PUSH2 0x100 EXP SWAP1 DIV PUSH20 0xFFFFFFFFFFFFFFFFFFFFFFFFFFFFFFFFFFFFFFFF AND SWAP1 DUP1 PUSH1 0x4 ADD PUSH1 0x0 SWAP1 SLOAD SWAP1 PUSH2 0x100 EXP SWAP1 DIV PUSH20 0xFFFFFFFFFFFFFFFFFFFFFFFFFFFFFFFFFFFFFFFF AND SWAP1 DUP1 PUSH1 0x5 ADD SLOAD SWAP1 DUP1 PUSH1 0x6 ADD DUP1 SLOAD PUSH2 0x23B SWAP1 PUSH2 0x1113 JUMP JUMPDEST DUP1 PUSH1 0x1F ADD PUSH1 0x20 DUP1 SWAP2 DIV MUL PUSH1 0x20 ADD PUSH1 0x40 MLOAD SWAP1 DUP2 ADD PUSH1 0x40 MSTORE DUP1 SWAP3 SWAP2 SWAP1 DUP2 DUP2 MSTORE PUSH1 0x20 ADD DUP3 DUP1 SLOAD PUSH2 0x267 SWAP1 PUSH2 0x1113 JUMP JUMPDEST DUP1 ISZERO PUSH2 0x2B4 JUMPI DUP1 PUSH1 0x1F LT PUSH2 0x289 JUMPI PUSH2 0x100 DUP1 DUP4 SLOAD DIV MUL DUP4 MSTORE SWAP2 PUSH1 0x20 ADD SWAP2 PUSH2 0x2B4 JUMP JUMPDEST DUP3 ADD SWAP2 SWAP1 PUSH1 0x0 MSTORE PUSH1 0x20 PUSH1 0x0 KECCAK256 SWAP1 JUMPDEST DUP2 SLOAD DUP2 MSTORE SWAP1 PUSH1 0x1 ADD SWAP1 PUSH1 0x20 ADD DUP1 DUP4 GT PUSH2 0x297 JUMPI DUP3 SWAP1 SUB PUSH1 0x1F AND DUP3 ADD SWAP2 JUMPDEST POP POP POP POP POP SWAP1 DUP1 PUSH1 0x7 ADD DUP1 SLOAD PUSH2 0x2C9 SWAP1 PUSH2 0x1113 JUMP JUMPDEST DUP1 PUSH1 0x1F ADD PUSH1 0x20 DUP1 SWAP2 DIV MUL PUSH1 0x20 ADD PUSH1 0x40 MLOAD SWAP1 DUP2 ADD PUSH1 0x40 MSTORE DUP1 SWAP3 SWAP2 SWAP1 DUP2 DUP2 MSTORE PUSH1 0x20 ADD DUP3 DUP1 SLOAD PUSH2 0x2F5 SWAP1 PUSH2 0x1113 JUMP JUMPDEST DUP1 ISZERO PUSH2 0x342 JUMPI DUP1 PUSH1 0x1F LT PUSH2 0x317 JUMPI PUSH2 0x100 DUP1 DUP4 SLOAD DIV MUL DUP4 MSTORE SWAP2 PUSH1 0x20 ADD SWAP2 PUSH2 0x342 JUMP JUMPDEST DUP3 ADD SWAP2 SWAP1 PUSH1 0x0 MSTORE PUSH1 0x20 PUSH1 0x0 KECCAK256 SWAP1 JUMPDEST DUP2 SLOAD DUP2 MSTORE SWAP1 PUSH1 0x1 ADD SWAP1 PUSH1 0x20 ADD DUP1 DUP4 GT PUSH2 0x325 JUMPI DUP3 SWAP1 SUB PUSH1 0x1F AND DUP3 ADD SWAP2 JUMPDEST POP POP POP POP POP SWAP1 POP DUP9 JUMP JUMPDEST PUSH1 0x60 PUSH1 0x2 PUSH1 0x0 DUP4 DUP2 MSTORE PUSH1 0x20 ADD SWAP1 DUP2 MSTORE PUSH1 0x20 ADD PUSH1 0x0 KECCAK256 DUP1 SLOAD DUP1 PUSH1 0x20 MUL PUSH1 0x20 ADD PUSH1 0x40 MLOAD SWAP1 DUP2 ADD PUSH1 0x40 MSTORE DUP1 SWAP3 SWAP2 SWAP1 DUP2 DUP2 MSTORE PUSH1 0x20 ADD PUSH1 0x0 SWAP1 JUMPDEST DUP3 DUP3 LT ISZERO PUSH2 0x634 JUMPI DUP4 DUP3 SWAP1 PUSH1 0x0 MSTORE PUSH1 0x20 PUSH1 0x0 KECCAK256 SWAP1 PUSH1 0x8 MUL ADD PUSH1 0x40 MLOAD DUP1 PUSH2 0x100 ADD PUSH1 0x40 MSTORE SWAP1 DUP2 PUSH1 0x0 DUP3 ADD SLOAD DUP2 MSTORE PUSH1 0x20 ADD PUSH1 0x1 DUP3 ADD DUP1 SLOAD PUSH2 0x3BF SWAP1 PUSH2 0x1113 JUMP JUMPDEST DUP1 PUSH1 0x1F ADD PUSH1 0x20 DUP1 SWAP2 DIV MUL PUSH1 0x20 ADD PUSH1 0x40 MLOAD SWAP1 DUP2 ADD PUSH1 0x40 MSTORE DUP1 SWAP3 SWAP2 SWAP1 DUP2 DUP2 MSTORE PUSH1 0x20 ADD DUP3 DUP1 SLOAD PUSH2 0x3EB SWAP1 PUSH2 0x1113 JUMP JUMPDEST DUP1 ISZERO PUSH2 0x438 JUMPI DUP1 PUSH1 0x1F LT PUSH2 0x40D JUMPI PUSH2 0x100 DUP1 DUP4 SLOAD DIV MUL DUP4 MSTORE SWAP2 PUSH1 0x20 ADD SWAP2 PUSH2 0x438 JUMP JUMPDEST DUP3 ADD SWAP2 SWAP1 PUSH1 0x0 MSTORE PUSH1 0x20 PUSH1 0x0 KECCAK256 SWAP1 JUMPDEST DUP2 SLOAD DUP2 MSTORE SWAP1 PUSH1 0x1 ADD SWAP1 PUSH1 0x20 ADD DUP1 DUP4 GT PUSH2 0x41B JUMPI DUP3 SWAP1 SUB PUSH1 0x1F AND DUP3 ADD SWAP2 JUMPDEST POP POP POP POP POP DUP2 MSTORE PUSH1 0x20 ADD PUSH1 0x2 DUP3 ADD SLOAD DUP2 MSTORE PUSH1 0x20 ADD PUSH1 0x3 DUP3 ADD PUSH1 0x0 SWAP1 SLOAD SWAP1 PUSH2 0x100 EXP SWAP1 DIV PUSH20 0xFFFFFFFFFFFFFFFFFFFFFFFFFFFFFFFFFFFFFFFF AND PUSH20 0xFFFFFFFFFFFFFFFFFFFFFFFFFFFFFFFFFFFFFFFF AND PUSH20 0xFFFFFFFFFFFFFFFFFFFFFFFFFFFFFFFFFFFFFFFF AND DUP2 MSTORE PUSH1 0x20 ADD PUSH1 0x4 DUP3 ADD PUSH1 0x0 SWAP1 SLOAD SWAP1 PUSH2 0x100 EXP SWAP1 DIV PUSH20 0xFFFFFFFFFFFFFFFFFFFFFFFFFFFFFFFFFFFFFFFF AND PUSH20 0xFFFFFFFFFFFFFFFFFFFFFFFFFFFFFFFFFFFFFFFF AND PUSH20 0xFFFFFFFFFFFFFFFFFFFFFFFFFFFFFFFFFFFFFFFF AND DUP2 MSTORE PUSH1 0x20 ADD PUSH1 0x5 DUP3 ADD SLOAD DUP2 MSTORE PUSH1 0x20 ADD PUSH1 0x6 DUP3 ADD DUP1 SLOAD PUSH2 0x511 SWAP1 PUSH2 0x1113 JUMP JUMPDEST DUP1 PUSH1 0x1F ADD PUSH1 0x20 DUP1 SWAP2 DIV MUL PUSH1 0x20 ADD PUSH1 0x40 MLOAD SWAP1 DUP2 ADD PUSH1 0x40 MSTORE DUP1 SWAP3 SWAP2 SWAP1 DUP2 DUP2 MSTORE PUSH1 0x20 ADD DUP3 DUP1 SLOAD PUSH2 0x53D SWAP1 PUSH2 0x1113 JUMP JUMPDEST DUP1 ISZERO PUSH2 0x58A JUMPI DUP1 PUSH1 0x1F LT PUSH2 0x55F JUMPI PUSH2 0x100 DUP1 DUP4 SLOAD DIV MUL DUP4 MSTORE SWAP2 PUSH1 0x20 ADD SWAP2 PUSH2 0x58A JUMP JUMPDEST DUP3 ADD SWAP2 SWAP1 PUSH1 0x0 MSTORE PUSH1 0x20 PUSH1 0x0 KECCAK256 SWAP1 JUMPDEST DUP2 SLOAD DUP2 MSTORE SWAP1 PUSH1 0x1 ADD SWAP1 PUSH1 0x20 ADD DUP1 DUP4 GT PUSH2 0x56D JUMPI DUP3 SWAP1 SUB PUSH1 0x1F AND DUP3 ADD SWAP2 JUMPDEST POP POP POP POP POP DUP2 MSTORE PUSH1 0x20 ADD PUSH1 0x7 DUP3 ADD DUP1 SLOAD PUSH2 0x5A3 SWAP1 PUSH2 0x1113 JUMP JUMPDEST DUP1 PUSH1 0x1F ADD PUSH1 0x20 DUP1 SWAP2 DIV MUL PUSH1 0x20 ADD PUSH1 0x40 MLOAD SWAP1 DUP2 ADD PUSH1 0x40 MSTORE DUP1 SWAP3 SWAP2 SWAP1 DUP2 DUP2 MSTORE PUSH1 0x20 ADD DUP3 DUP1 SLOAD PUSH2 0x5CF SWAP1 PUSH2 0x1113 JUMP JUMPDEST DUP1 ISZERO PUSH2 0x61C JUMPI DUP1 PUSH1 0x1F LT PUSH2 0x5F1 JUMPI PUSH2 0x100 DUP1 DUP4 SLOAD DIV MUL DUP4 MSTORE SWAP2 PUSH1 0x20 ADD SWAP2 PUSH2 0x61C JUMP JUMPDEST DUP3 ADD SWAP2 SWAP1 PUSH1 0x0 MSTORE PUSH1 0x20 PUSH1 0x0 KECCAK256 SWAP1 JUMPDEST DUP2 SLOAD DUP2 MSTORE SWAP1 PUSH1 0x1 ADD SWAP1 PUSH1 0x20 ADD DUP1 DUP4 GT PUSH2 0x5FF JUMPI DUP3 SWAP1 SUB PUSH1 0x1F AND DUP3 ADD SWAP2 JUMPDEST POP POP POP POP POP DUP2 MSTORE POP POP DUP2 MSTORE PUSH1 0x20 ADD SWAP1 PUSH1 0x1 ADD SWAP1 PUSH2 0x381 JUMP JUMPDEST POP POP POP POP SWAP1 POP SWAP2 SWAP1 POP JUMP JUMPDEST PUSH1 0x60 PUSH1 0x1 DUP1 SLOAD DUP1 PUSH1 0x20 MUL PUSH1 0x20 ADD PUSH1 0x40 MLOAD SWAP1 DUP2 ADD PUSH1 0x40 MSTORE DUP1 SWAP3 SWAP2 SWAP1 DUP2 DUP2 MSTORE PUSH1 0x20 ADD PUSH1 0x0 SWAP1 JUMPDEST DUP3 DUP3 LT ISZERO PUSH2 0x916 JUMPI DUP4 DUP3 SWAP1 PUSH1 0x0 MSTORE PUSH1 0x20 PUSH1 0x0 KECCAK256 SWAP1 PUSH1 0x8 MUL ADD PUSH1 0x40 MLOAD DUP1 PUSH2 0x100 ADD PUSH1 0x40 MSTORE SWAP1 DUP2 PUSH1 0x0 DUP3 ADD SLOAD DUP2 MSTORE PUSH1 0x20 ADD PUSH1 0x1 DUP3 ADD DUP1 SLOAD PUSH2 0x6A1 SWAP1 PUSH2 0x1113 JUMP JUMPDEST DUP1 PUSH1 0x1F ADD PUSH1 0x20 DUP1 SWAP2 DIV MUL PUSH1 0x20 ADD PUSH1 0x40 MLOAD SWAP1 DUP2 ADD PUSH1 0x40 MSTORE DUP1 SWAP3 SWAP2 SWAP1 DUP2 DUP2 MSTORE PUSH1 0x20 ADD DUP3 DUP1 SLOAD PUSH2 0x6CD SWAP1 PUSH2 0x1113 JUMP JUMPDEST DUP1 ISZERO PUSH2 0x71A JUMPI DUP1 PUSH1 0x1F LT PUSH2 0x6EF JUMPI PUSH2 0x100 DUP1 DUP4 SLOAD DIV MUL DUP4 MSTORE SWAP2 PUSH1 0x20 ADD SWAP2 PUSH2 0x71A JUMP JUMPDEST DUP3 ADD SWAP2 SWAP1 PUSH1 0x0 MSTORE PUSH1 0x20 PUSH1 0x0 KECCAK256 SWAP1 JUMPDEST DUP2 SLOAD DUP2 MSTORE SWAP1 PUSH1 0x1 ADD SWAP1 PUSH1 0x20 ADD DUP1 DUP4 GT PUSH2 0x6FD JUMPI DUP3 SWAP1 SUB PUSH1 0x1F AND DUP3 ADD SWAP2 JUMPDEST POP POP POP POP POP DUP2 MSTORE PUSH1 0x20 ADD PUSH1 0x2 DUP3 ADD SLOAD DUP2 MSTORE PUSH1 0x20 ADD PUSH1 0x3 DUP3 ADD PUSH1 0x0 SWAP1 SLOAD SWAP1 PUSH2 0x100 EXP SWAP1 DIV PUSH20 0xFFFFFFFFFFFFFFFFFFFFFFFFFFFFFFFFFFFFFFFF AND PUSH20 0xFFFFFFFFFFFFFFFFFFFFFFFFFFFFFFFFFFFFFFFF AND PUSH20 0xFFFFFFFFFFFFFFFFFFFFFFFFFFFFFFFFFFFFFFFF AND DUP2 MSTORE PUSH1 0x20 ADD PUSH1 0x4 DUP3 ADD PUSH1 0x0 SWAP1 SLOAD SWAP1 PUSH2 0x100 EXP SWAP1 DIV PUSH20 0xFFFFFFFFFFFFFFFFFFFFFFFFFFFFFFFFFFFFFFFF AND PUSH20 0xFFFFFFFFFFFFFFFFFFFFFFFFFFFFFFFFFFFFFFFF AND PUSH20 0xFFFFFFFFFFFFFFFFFFFFFFFFFFFFFFFFFFFFFFFF AND DUP2 MSTORE PUSH1 0x20 ADD PUSH1 0x5 DUP3 ADD SLOAD DUP2 MSTORE PUSH1 0x20 ADD PUSH1 0x6 DUP3 ADD DUP1 SLOAD PUSH2 0x7F3 SWAP1 PUSH2 0x1113 JUMP JUMPDEST DUP1 PUSH1 0x1F ADD PUSH1 0x20 DUP1 SWAP2 DIV MUL PUSH1 0x20 ADD PUSH1 0x40 MLOAD SWAP1 DUP2 ADD PUSH1 0x40 MSTORE DUP1 SWAP3 SWAP2 SWAP1 DUP2 DUP2 MSTORE PUSH1 0x20 ADD DUP3 DUP1 SLOAD PUSH2 0x81F SWAP1 PUSH2 0x1113 JUMP JUMPDEST DUP1 ISZERO PUSH2 0x86C JUMPI DUP1 PUSH1 0x1F LT PUSH2 0x841 JUMPI PUSH2 0x100 DUP1 DUP4 SLOAD DIV MUL DUP4 MSTORE SWAP2 PUSH1 0x20 ADD SWAP2 PUSH2 0x86C JUMP JUMPDEST DUP3 ADD SWAP2 SWAP1 PUSH1 0x0 MSTORE PUSH1 0x20 PUSH1 0x0 KECCAK256 SWAP1 JUMPDEST DUP2 SLOAD DUP2 MSTORE SWAP1 PUSH1 0x1 ADD SWAP1 PUSH1 0x20 ADD DUP1 DUP4 GT PUSH2 0x84F JUMPI DUP3 SWAP1 SUB PUSH1 0x1F AND DUP3 ADD SWAP2 JUMPDEST POP POP POP POP POP DUP2 MSTORE PUSH1 0x20 ADD PUSH1 0x7 DUP3 ADD DUP1 SLOAD PUSH2 0x885 SWAP1 PUSH2 0x1113 JUMP JUMPDEST DUP1 PUSH1 0x1F ADD PUSH1 0x20 DUP1 SWAP2 DIV MUL PUSH1 0x20 ADD PUSH1 0x40 MLOAD SWAP1 DUP2 ADD PUSH1 0x40 MSTORE DUP1 SWAP3 SWAP2 SWAP1 DUP2 DUP2 MSTORE PUSH1 0x20 ADD DUP3 DUP1 SLOAD PUSH2 0x8B1 SWAP1 PUSH2 0x1113 JUMP JUMPDEST DUP1 ISZERO PUSH2 0x8FE JUMPI DUP1 PUSH1 0x1F LT PUSH2 0x8D3 JUMPI PUSH2 0x100 DUP1 DUP4 SLOAD DIV MUL DUP4 MSTORE SWAP2 PUSH1 0x20 ADD SWAP2 PUSH2 0x8FE JUMP JUMPDEST DUP3 ADD SWAP2 SWAP1 PUSH1 0x0 MSTORE PUSH1 0x20 PUSH1 0x0 KECCAK256 SWAP1 JUMPDEST DUP2 SLOAD DUP2 MSTORE SWAP1 PUSH1 0x1 ADD SWAP1 PUSH1 0x20 ADD DUP1 DUP4 GT PUSH2 0x8E1 JUMPI DUP3 SWAP1 SUB PUSH1 0x1F AND DUP3 ADD SWAP2 JUMPDEST POP POP POP POP POP DUP2 MSTORE POP POP DUP2 MSTORE PUSH1 0x20 ADD SWAP1 PUSH1 0x1 ADD SWAP1 PUSH2 0x663 JUMP JUMPDEST POP POP POP POP SWAP1 POP SWAP1 JUMP JUMPDEST PUSH1 0x0 DUP1 DUP2 SLOAD DUP1 SWAP3 SWAP2 SWAP1 PUSH2 0x931 SWAP1 PUSH2 0x1173 JUMP JUMPDEST SWAP2 SWAP1 POP SSTORE POP PUSH1 0x0 PUSH1 0x40 MLOAD DUP1 PUSH2 0x100 ADD PUSH1 0x40 MSTORE DUP1 PUSH1 0x0 SLOAD DUP2 MSTORE PUSH1 0x20 ADD DUP6 DUP2 MSTORE PUSH1 0x20 ADD PUSH1 0x0 DUP2 MSTORE PUSH1 0x20 ADD CALLER PUSH20 0xFFFFFFFFFFFFFFFFFFFFFFFFFFFFFFFFFFFFFFFF AND DUP2 MSTORE PUSH1 0x20 ADD DUP5 PUSH20 0xFFFFFFFFFFFFFFFFFFFFFFFFFFFFFFFFFFFFFFFF AND DUP2 MSTORE PUSH1 0x20 ADD PUSH1 0x0 DUP2 MSTORE PUSH1 0x20 ADD DUP4 DUP2 MSTORE PUSH1 0x20 ADD PUSH1 0x40 MLOAD DUP1 PUSH1 0x40 ADD PUSH1 0x40 MSTORE DUP1 PUSH1 0x1 DUP2 MSTORE PUSH1 0x20 ADD PUSH32 0x3000000000000000000000000000000000000000000000000000000000000000 DUP2 MSTORE POP DUP2 MSTORE POP SWAP1 POP PUSH1 0x1 DUP2 SWAP1 DUP1 PUSH1 0x1 DUP2 SLOAD ADD DUP1 DUP3 SSTORE DUP1 SWAP2 POP POP PUSH1 0x1 SWAP1 SUB SWAP1 PUSH1 0x0 MSTORE PUSH1 0x20 PUSH1 0x0 KECCAK256 SWAP1 PUSH1 0x8 MUL ADD PUSH1 0x0 SWAP1 SWAP2 SWAP1 SWAP2 SWAP1 SWAP2 POP PUSH1 0x0 DUP3 ADD MLOAD DUP2 PUSH1 0x0 ADD SSTORE PUSH1 0x20 DUP3 ADD MLOAD DUP2 PUSH1 0x1 ADD SWAP1 DUP2 PUSH2 0xA24 SWAP2 SWAP1 PUSH2 0x1367 JUMP JUMPDEST POP PUSH1 0x40 DUP3 ADD MLOAD DUP2 PUSH1 0x2 ADD SSTORE PUSH1 0x60 DUP3 ADD MLOAD DUP2 PUSH1 0x3 ADD PUSH1 0x0 PUSH2 0x100 EXP DUP2 SLOAD DUP2 PUSH20 0xFFFFFFFFFFFFFFFFFFFFFFFFFFFFFFFFFFFFFFFF MUL NOT AND SWAP1 DUP4 PUSH20 0xFFFFFFFFFFFFFFFFFFFFFFFFFFFFFFFFFFFFFFFF AND MUL OR SWAP1 SSTORE POP PUSH1 0x80 DUP3 ADD MLOAD DUP2 PUSH1 0x4 ADD PUSH1 0x0 PUSH2 0x100 EXP DUP2 SLOAD DUP2 PUSH20 0xFFFFFFFFFFFFFFFFFFFFFFFFFFFFFFFFFFFFFFFF MUL NOT AND SWAP1 DUP4 PUSH20 0xFFFFFFFFFFFFFFFFFFFFFFFFFFFFFFFFFFFFFFFF AND MUL OR SWAP1 SSTORE POP PUSH1 0xA0 DUP3 ADD MLOAD DUP2 PUSH1 0x5 ADD SSTORE PUSH1 0xC0 DUP3 ADD MLOAD DUP2 PUSH1 0x6 ADD SWAP1 DUP2 PUSH2 0xADC SWAP2 SWAP1 PUSH2 0x1367 JUMP JUMPDEST POP PUSH1 0xE0 DUP3 ADD MLOAD DUP2 PUSH1 0x7 ADD SWAP1 DUP2 PUSH2 0xAF2 SWAP2 SWAP1 PUSH2 0x1367 JUMP JUMPDEST POP POP POP POP POP POP POP JUMP JUMPDEST PUSH1 0x0 PUSH1 0x40 MLOAD SWAP1 POP SWAP1 JUMP JUMPDEST PUSH1 0x0 DUP1 REVERT JUMPDEST PUSH1 0x0 DUP1 REVERT JUMPDEST PUSH1 0x0 DUP2 SWAP1 POP SWAP2 SWAP1 POP JUMP JUMPDEST PUSH2 0xB22 DUP2 PUSH2 0xB0F JUMP JUMPDEST DUP2 EQ PUSH2 0xB2D JUMPI PUSH1 0x0 DUP1 REVERT JUMPDEST POP JUMP JUMPDEST PUSH1 0x0 DUP2 CALLDATALOAD SWAP1 POP PUSH2 0xB3F DUP2 PUSH2 0xB19 JUMP JUMPDEST SWAP3 SWAP2 POP POP JUMP JUMPDEST PUSH1 0x0 PUSH1 0x20 DUP3 DUP5 SUB SLT ISZERO PUSH2 0xB5B JUMPI PUSH2 0xB5A PUSH2 0xB05 JUMP JUMPDEST JUMPDEST PUSH1 0x0 PUSH2 0xB69 DUP5 DUP3 DUP6 ADD PUSH2 0xB30 JUMP JUMPDEST SWAP2 POP POP SWAP3 SWAP2 POP POP JUMP JUMPDEST PUSH2 0xB7B DUP2 PUSH2 0xB0F JUMP JUMPDEST DUP3 MSTORE POP POP JUMP JUMPDEST PUSH1 0x0 DUP2 MLOAD SWAP1 POP SWAP2 SWAP1 POP JUMP JUMPDEST PUSH1 0x0 DUP3 DUP3 MSTORE PUSH1 0x20 DUP3 ADD SWAP1 POP SWAP3 SWAP2 POP POP JUMP JUMPDEST PUSH1 0x0 JUMPDEST DUP4 DUP2 LT ISZERO PUSH2 0xBBB JUMPI DUP1 DUP3 ADD MLOAD DUP2 DUP5 ADD MSTORE PUSH1 0x20 DUP2 ADD SWAP1 POP PUSH2 0xBA0 JUMP JUMPDEST DUP4 DUP2 GT ISZERO PUSH2 0xBCA JUMPI PUSH1 0x0 DUP5 DUP5 ADD MSTORE JUMPDEST POP POP POP POP JUMP JUMPDEST PUSH1 0x0 PUSH1 0x1F NOT PUSH1 0x1F DUP4 ADD AND SWAP1 POP SWAP2 SWAP1 POP JUMP JUMPDEST PUSH1 0x0 PUSH2 0xBEC DUP3 PUSH2 0xB81 JUMP JUMPDEST PUSH2 0xBF6 DUP2 DUP6 PUSH2 0xB8C JUMP JUMPDEST SWAP4 POP PUSH2 0xC06 DUP2 DUP6 PUSH1 0x20 DUP7 ADD PUSH2 0xB9D JUMP JUMPDEST PUSH2 0xC0F DUP2 PUSH2 0xBD0 JUMP JUMPDEST DUP5 ADD SWAP2 POP POP SWAP3 SWAP2 POP POP JUMP JUMPDEST PUSH1 0x0 PUSH20 0xFFFFFFFFFFFFFFFFFFFFFFFFFFFFFFFFFFFFFFFF DUP3 AND SWAP1 POP SWAP2 SWAP1 POP JUMP JUMPDEST PUSH1 0x0 PUSH2 0xC45 DUP3 PUSH2 0xC1A JUMP JUMPDEST SWAP1 POP SWAP2 SWAP1 POP JUMP JUMPDEST PUSH2 0xC55 DUP2 PUSH2 0xC3A JUMP JUMPDEST DUP3 MSTORE POP POP JUMP JUMPDEST PUSH1 0x0 PUSH2 0x100 DUP3 ADD SWAP1 POP PUSH2 0xC71 PUSH1 0x0 DUP4 ADD DUP12 PUSH2 0xB72 JUMP JUMPDEST DUP2 DUP2 SUB PUSH1 0x20 DUP4 ADD MSTORE PUSH2 0xC83 DUP2 DUP11 PUSH2 0xBE1 JUMP JUMPDEST SWAP1 POP PUSH2 0xC92 PUSH1 0x40 DUP4 ADD DUP10 PUSH2 0xB72 JUMP JUMPDEST PUSH2 0xC9F PUSH1 0x60 DUP4 ADD DUP9 PUSH2 0xC4C JUMP JUMPDEST PUSH2 0xCAC PUSH1 0x80 DUP4 ADD DUP8 PUSH2 0xC4C JUMP JUMPDEST PUSH2 0xCB9 PUSH1 0xA0 DUP4 ADD DUP7 PUSH2 0xB72 JUMP JUMPDEST DUP2 DUP2 SUB PUSH1 0xC0 DUP4 ADD MSTORE PUSH2 0xCCB DUP2 DUP6 PUSH2 0xBE1 JUMP JUMPDEST SWAP1 POP DUP2 DUP2 SUB PUSH1 0xE0 DUP4 ADD MSTORE PUSH2 0xCDF DUP2 DUP5 PUSH2 0xBE1 JUMP JUMPDEST SWAP1 POP SWAP10 SWAP9 POP POP POP POP POP POP POP POP POP JUMP JUMPDEST PUSH1 0x0 DUP2 MLOAD SWAP1 POP SWAP2 SWAP1 POP JUMP JUMPDEST PUSH1 0x0 DUP3 DUP3 MSTORE PUSH1 0x20 DUP3 ADD SWAP1 POP SWAP3 SWAP2 POP POP JUMP JUMPDEST PUSH1 0x0 DUP2 SWAP1 POP PUSH1 0x20 DUP3 ADD SWAP1 POP SWAP2 SWAP1 POP JUMP JUMPDEST PUSH2 0xD23 DUP2 PUSH2 0xB0F JUMP JUMPDEST DUP3 MSTORE POP POP JUMP JUMPDEST PUSH1 0x0 DUP3 DUP3 MSTORE PUSH1 0x20 DUP3 ADD SWAP1 POP SWAP3 SWAP2 POP POP JUMP JUMPDEST PUSH1 0x0 PUSH2 0xD45 DUP3 PUSH2 0xB81 JUMP JUMPDEST PUSH2 0xD4F DUP2 DUP6 PUSH2 0xD29 JUMP JUMPDEST SWAP4 POP PUSH2 0xD5F DUP2 DUP6 PUSH1 0x20 DUP7 ADD PUSH2 0xB9D JUMP JUMPDEST PUSH2 0xD68 DUP2 PUSH2 0xBD0 JUMP JUMPDEST DUP5 ADD SWAP2 POP POP SWAP3 SWAP2 POP POP JUMP JUMPDEST PUSH2 0xD7C DUP2 PUSH2 0xC3A JUMP JUMPDEST DUP3 MSTORE POP POP JUMP JUMPDEST PUSH1 0x0 PUSH2 0x100 DUP4 ADD PUSH1 0x0 DUP4 ADD MLOAD PUSH2 0xD9B PUSH1 0x0 DUP7 ADD DUP3 PUSH2 0xD1A JUMP JUMPDEST POP PUSH1 0x20 DUP4 ADD MLOAD DUP5 DUP3 SUB PUSH1 0x20 DUP7 ADD MSTORE PUSH2 0xDB3 DUP3 DUP3 PUSH2 0xD3A JUMP JUMPDEST SWAP2 POP POP PUSH1 0x40 DUP4 ADD MLOAD PUSH2 0xDC8 PUSH1 0x40 DUP7 ADD DUP3 PUSH2 0xD1A JUMP JUMPDEST POP PUSH1 0x60 DUP4 ADD MLOAD PUSH2 0xDDB PUSH1 0x60 DUP7 ADD DUP3 PUSH2 0xD73 JUMP JUMPDEST POP PUSH1 0x80 DUP4 ADD MLOAD PUSH2 0xDEE PUSH1 0x80 DUP7 ADD DUP3 PUSH2 0xD73 JUMP JUMPDEST POP PUSH1 0xA0 DUP4 ADD MLOAD PUSH2 0xE01 PUSH1 0xA0 DUP7 ADD DUP3 PUSH2 0xD1A JUMP JUMPDEST POP PUSH1 0xC0 DUP4 ADD MLOAD DUP5 DUP3 SUB PUSH1 0xC0 DUP7 ADD MSTORE PUSH2 0xE19 DUP3 DUP3 PUSH2 0xD3A JUMP JUMPDEST SWAP2 POP POP PUSH1 0xE0 DUP4 ADD MLOAD DUP5 DUP3 SUB PUSH1 0xE0 DUP7 ADD MSTORE PUSH2 0xE33 DUP3 DUP3 PUSH2 0xD3A JUMP JUMPDEST SWAP2 POP POP DUP1 SWAP2 POP POP SWAP3 SWAP2 POP POP JUMP JUMPDEST PUSH1 0x0 PUSH2 0xE4C DUP4 DUP4 PUSH2 0xD82 JUMP JUMPDEST SWAP1 POP SWAP3 SWAP2 POP POP JUMP JUMPDEST PUSH1 0x0 PUSH1 0x20 DUP3 ADD SWAP1 POP SWAP2 SWAP1 POP JUMP JUMPDEST PUSH1 0x0 PUSH2 0xE6C DUP3 PUSH2 0xCEE JUMP JUMPDEST PUSH2 0xE76 DUP2 DUP6 PUSH2 0xCF9 JUMP JUMPDEST SWAP4 POP DUP4 PUSH1 0x20 DUP3 MUL DUP6 ADD PUSH2 0xE88 DUP6 PUSH2 0xD0A JUMP JUMPDEST DUP1 PUSH1 0x0 JUMPDEST DUP6 DUP2 LT ISZERO PUSH2 0xEC4 JUMPI DUP5 DUP5 SUB DUP10 MSTORE DUP2 MLOAD PUSH2 0xEA5 DUP6 DUP3 PUSH2 0xE40 JUMP JUMPDEST SWAP5 POP PUSH2 0xEB0 DUP4 PUSH2 0xE54 JUMP JUMPDEST SWAP3 POP PUSH1 0x20 DUP11 ADD SWAP10 POP POP PUSH1 0x1 DUP2 ADD SWAP1 POP PUSH2 0xE8C JUMP JUMPDEST POP DUP3 SWAP8 POP DUP8 SWAP6 POP POP POP POP POP POP SWAP3 SWAP2 POP POP JUMP JUMPDEST PUSH1 0x0 PUSH1 0x20 DUP3 ADD SWAP1 POP DUP2 DUP2 SUB PUSH1 0x0 DUP4 ADD MSTORE PUSH2 0xEF0 DUP2 DUP5 PUSH2 0xE61 JUMP JUMPDEST SWAP1 POP SWAP3 SWAP2 POP POP JUMP JUMPDEST PUSH1 0x0 DUP1 REVERT JUMPDEST PUSH1 0x0 DUP1 REVERT JUMPDEST PUSH32 0x4E487B7100000000000000000000000000000000000000000000000000000000 PUSH1 0x0 MSTORE PUSH1 0x41 PUSH1 0x4 MSTORE PUSH1 0x24 PUSH1 0x0 REVERT JUMPDEST PUSH2 0xF3A DUP3 PUSH2 0xBD0 JUMP JUMPDEST DUP2 ADD DUP2 DUP2 LT PUSH8 0xFFFFFFFFFFFFFFFF DUP3 GT OR ISZERO PUSH2 0xF59 JUMPI PUSH2 0xF58 PUSH2 0xF02 JUMP JUMPDEST JUMPDEST DUP1 PUSH1 0x40 MSTORE POP POP POP JUMP JUMPDEST PUSH1 0x0 PUSH2 0xF6C PUSH2 0xAFB JUMP JUMPDEST SWAP1 POP PUSH2 0xF78 DUP3 DUP3 PUSH2 0xF31 JUMP JUMPDEST SWAP2 SWAP1 POP JUMP JUMPDEST PUSH1 0x0 PUSH8 0xFFFFFFFFFFFFFFFF DUP3 GT ISZERO PUSH2 0xF98 JUMPI PUSH2 0xF97 PUSH2 0xF02 JUMP JUMPDEST JUMPDEST PUSH2 0xFA1 DUP3 PUSH2 0xBD0 JUMP JUMPDEST SWAP1 POP PUSH1 0x20 DUP2 ADD SWAP1 POP SWAP2 SWAP1 POP JUMP JUMPDEST DUP3 DUP2 DUP4 CALLDATACOPY PUSH1 0x0 DUP4 DUP4 ADD MSTORE POP POP POP JUMP JUMPDEST PUSH1 0x0 PUSH2 0xFD0 PUSH2 0xFCB DUP5 PUSH2 0xF7D JUMP JUMPDEST PUSH2 0xF62 JUMP JUMPDEST SWAP1 POP DUP3 DUP2 MSTORE PUSH1 0x20 DUP2 ADD DUP5 DUP5 DUP5 ADD GT ISZERO PUSH2 0xFEC JUMPI PUSH2 0xFEB PUSH2 0xEFD JUMP JUMPDEST JUMPDEST PUSH2 0xFF7 DUP5 DUP3 DUP6 PUSH2 0xFAE JUMP JUMPDEST POP SWAP4 SWAP3 POP POP POP JUMP JUMPDEST PUSH1 0x0 DUP3 PUSH1 0x1F DUP4 ADD SLT PUSH2 0x1014 JUMPI PUSH2 0x1013 PUSH2 0xEF8 JUMP JUMPDEST JUMPDEST DUP2 CALLDATALOAD PUSH2 0x1024 DUP5 DUP3 PUSH1 0x20 DUP7 ADD PUSH2 0xFBD JUMP JUMPDEST SWAP2 POP POP SWAP3 SWAP2 POP POP JUMP JUMPDEST PUSH2 0x1036 DUP2 PUSH2 0xC3A JUMP JUMPDEST DUP2 EQ PUSH2 0x1041 JUMPI PUSH1 0x0 DUP1 REVERT JUMPDEST POP JUMP JUMPDEST PUSH1 0x0 DUP2 CALLDATALOAD SWAP1 POP PUSH2 0x1053 DUP2 PUSH2 0x102D JUMP JUMPDEST SWAP3 SWAP2 POP POP JUMP JUMPDEST PUSH1 0x0 DUP1 PUSH1 0x0 PUSH1 0x60 DUP5 DUP7 SUB SLT ISZERO PUSH2 0x1072 JUMPI PUSH2 0x1071 PUSH2 0xB05 JUMP JUMPDEST JUMPDEST PUSH1 0x0 DUP5 ADD CALLDATALOAD PUSH8 0xFFFFFFFFFFFFFFFF DUP2 GT ISZERO PUSH2 0x1090 JUMPI PUSH2 0x108F PUSH2 0xB0A JUMP JUMPDEST JUMPDEST PUSH2 0x109C DUP7 DUP3 DUP8 ADD PUSH2 0xFFF JUMP JUMPDEST SWAP4 POP POP PUSH1 0x20 PUSH2 0x10AD DUP7 DUP3 DUP8 ADD PUSH2 0x1044 JUMP JUMPDEST SWAP3 POP POP PUSH1 0x40 DUP5 ADD CALLDATALOAD PUSH8 0xFFFFFFFFFFFFFFFF DUP2 GT ISZERO PUSH2 0x10CE JUMPI PUSH2 0x10CD PUSH2 0xB0A JUMP JUMPDEST JUMPDEST PUSH2 0x10DA DUP7 DUP3 DUP8 ADD PUSH2 0xFFF JUMP JUMPDEST SWAP2 POP POP SWAP3 POP SWAP3 POP SWAP3 JUMP JUMPDEST PUSH32 0x4E487B7100000000000000000000000000000000000000000000000000000000 PUSH1 0x0 MSTORE PUSH1 0x22 PUSH1 0x4 MSTORE PUSH1 0x24 PUSH1 0x0 REVERT JUMPDEST PUSH1 0x0 PUSH1 0x2 DUP3 DIV SWAP1 POP PUSH1 0x1 DUP3 AND DUP1 PUSH2 0x112B JUMPI PUSH1 0x7F DUP3 AND SWAP2 POP JUMPDEST PUSH1 0x20 DUP3 LT DUP2 SUB PUSH2 0x113E JUMPI PUSH2 0x113D PUSH2 0x10E4 JUMP JUMPDEST JUMPDEST POP SWAP2 SWAP1 POP JUMP JUMPDEST PUSH32 0x4E487B7100000000000000000000000000000000000000000000000000000000 PUSH1 0x0 MSTORE PUSH1 0x11 PUSH1 0x4 MSTORE PUSH1 0x24 PUSH1 0x0 REVERT JUMPDEST PUSH1 0x0 PUSH2 0x117E DUP3 PUSH2 0xB0F JUMP JUMPDEST SWAP2 POP PUSH32 0xFFFFFFFFFFFFFFFFFFFFFFFFFFFFFFFFFFFFFFFFFFFFFFFFFFFFFFFFFFFFFFFF DUP3 SUB PUSH2 0x11B0 JUMPI PUSH2 0x11AF PUSH2 0x1144 JUMP JUMPDEST JUMPDEST PUSH1 0x1 DUP3 ADD SWAP1 POP SWAP2 SWAP1 POP JUMP JUMPDEST PUSH1 0x0 DUP2 SWAP1 POP DUP2 PUSH1 0x0 MSTORE PUSH1 0x20 PUSH1 0x0 KECCAK256 SWAP1 POP SWAP2 SWAP1 POP JUMP JUMPDEST PUSH1 0x0 PUSH1 0x20 PUSH1 0x1F DUP4 ADD DIV SWAP1 POP SWAP2 SWAP1 POP JUMP JUMPDEST PUSH1 0x0 DUP3 DUP3 SHL SWAP1 POP SWAP3 SWAP2 POP POP JUMP JUMPDEST PUSH1 0x0 PUSH1 0x8 DUP4 MUL PUSH2 0x121D PUSH32 0xFFFFFFFFFFFFFFFFFFFFFFFFFFFFFFFFFFFFFFFFFFFFFFFFFFFFFFFFFFFFFFFF DUP3 PUSH2 0x11E0 JUMP JUMPDEST PUSH2 0x1227 DUP7 DUP4 PUSH2 0x11E0 JUMP JUMPDEST SWAP6 POP DUP1 NOT DUP5 AND SWAP4 POP DUP1 DUP7 AND DUP5 OR SWAP3 POP POP POP SWAP4 SWAP3 POP POP POP JUMP JUMPDEST PUSH1 0x0 DUP2 SWAP1 POP SWAP2 SWAP1 POP JUMP JUMPDEST PUSH1 0x0 PUSH2 0x1264 PUSH2 0x125F PUSH2 0x125A DUP5 PUSH2 0xB0F JUMP JUMPDEST PUSH2 0x123F JUMP JUMPDEST PUSH2 0xB0F JUMP JUMPDEST SWAP1 POP SWAP2 SWAP1 POP JUMP JUMPDEST PUSH1 0x0 DUP2 SWAP1 POP SWAP2 SWAP1 POP JUMP JUMPDEST PUSH2 0x127E DUP4 PUSH2 0x1249 JUMP JUMPDEST PUSH2 0x1292 PUSH2 0x128A DUP3 PUSH2 0x126B JUMP JUMPDEST DUP5 DUP5 SLOAD PUSH2 0x11ED JUMP JUMPDEST DUP3 SSTORE POP POP POP POP JUMP JUMPDEST PUSH1 0x0 SWAP1 JUMP JUMPDEST PUSH2 0x12A7 PUSH2 0x129A JUMP JUMPDEST PUSH2 0x12B2 DUP2 DUP5 DUP5 PUSH2 0x1275 JUMP JUMPDEST POP POP POP JUMP JUMPDEST JUMPDEST DUP2 DUP2 LT ISZERO PUSH2 0x12D6 JUMPI PUSH2 0x12CB PUSH1 0x0 DUP3 PUSH2 0x129F JUMP JUMPDEST PUSH1 0x1 DUP2 ADD SWAP1 POP PUSH2 0x12B8 JUMP JUMPDEST POP POP JUMP JUMPDEST PUSH1 0x1F DUP3 GT ISZERO PUSH2 0x131B JUMPI PUSH2 0x12EC DUP2 PUSH2 0x11BB JUMP JUMPDEST PUSH2 0x12F5 DUP5 PUSH2 0x11D0 JUMP JUMPDEST DUP2 ADD PUSH1 0x20 DUP6 LT ISZERO PUSH2 0x1304 JUMPI DUP2 SWAP1 POP JUMPDEST PUSH2 0x1318 PUSH2 0x1310 DUP6 PUSH2 0x11D0 JUMP JUMPDEST DUP4 ADD DUP3 PUSH2 0x12B7 JUMP JUMPDEST POP POP JUMPDEST POP POP POP JUMP JUMPDEST PUSH1 0x0 DUP3 DUP3 SHR SWAP1 POP SWAP3 SWAP2 POP POP JUMP JUMPDEST PUSH1 0x0 PUSH2 0x133E PUSH1 0x0 NOT DUP5 PUSH1 0x8 MUL PUSH2 0x1320 JUMP JUMPDEST NOT DUP1 DUP4 AND SWAP2 POP POP SWAP3 SWAP2 POP POP JUMP JUMPDEST PUSH1 0x0 PUSH2 0x1357 DUP4 DUP4 PUSH2 0x132D JUMP JUMPDEST SWAP2 POP DUP3 PUSH1 0x2 MUL DUP3 OR SWAP1 POP SWAP3 SWAP2 POP POP JUMP JUMPDEST PUSH2 0x1370 DUP3 PUSH2 0xB81 JUMP JUMPDEST PUSH8 0xFFFFFFFFFFFFFFFF DUP2 GT ISZERO PUSH2 0x1389 JUMPI PUSH2 0x1388 PUSH2 0xF02 JUMP JUMPDEST JUMPDEST PUSH2 0x1393 DUP3 SLOAD PUSH2 0x1113 JUMP JUMPDEST PUSH2 0x139E DUP3 DUP3 DUP6 PUSH2 0x12DA JUMP JUMPDEST PUSH1 0x0 PUSH1 0x20 SWAP1 POP PUSH1 0x1F DUP4 GT PUSH1 0x1 DUP2 EQ PUSH2 0x13D1 JUMPI PUSH1 0x0 DUP5 ISZERO PUSH2 0x13BF JUMPI DUP3 DUP8 ADD MLOAD SWAP1 POP JUMPDEST PUSH2 0x13C9 DUP6 DUP3 PUSH2 0x134B JUMP JUMPDEST DUP7 SSTORE POP PUSH2 0x1431 JUMP JUMPDEST PUSH1 0x1F NOT DUP5 AND PUSH2 0x13DF DUP7 PUSH2 0x11BB JUMP JUMPDEST PUSH1 0x0 JUMPDEST DUP3 DUP2 LT ISZERO PUSH2 0x1407 JUMPI DUP5 DUP10 ADD MLOAD DUP3 SSTORE PUSH1 0x1 DUP3 ADD SWAP2 POP PUSH1 0x20 DUP6 ADD SWAP5 POP PUSH1 0x20 DUP2 ADD SWAP1 POP PUSH2 0x13E2 JUMP JUMPDEST DUP7 DUP4 LT ISZERO PUSH2 0x1424 JUMPI DUP5 DUP10 ADD MLOAD PUSH2 0x1420 PUSH1 0x1F DUP10 AND DUP3 PUSH2 0x132D JUMP JUMPDEST DUP4 SSTORE POP JUMPDEST PUSH1 0x1 PUSH1 0x2 DUP9 MUL ADD DUP9 SSTORE POP POP POP JUMPDEST POP POP POP POP POP POP JUMP INVALID LOG2 PUSH5 0x6970667358 0x22 SLT KECCAK256 0x22 0xCB 0x2F 0xDB 0xBB 0x2C SMOD LOG1 0xF7 0xAC 0xDE 0xAD OR PUSH20 0x179D33BDAC118831725D1E78060C28AB24F66473 PUSH16 0x6C634300080F00330000000000000000 "
				},
				"gasEstimates": {
					"creation": {
						"codeDepositCost": "1046200",
						"executionCost": "1087",
						"totalCost": "1047287"
					},
					"external": {
						"createCrowdfunding(string,address,string)": "infinite",
						"getCrowdfundingByStatus(uint256)": "infinite",
						"getList()": "infinite",
						"list(uint256)": "infinite",
						"setStatus(uint256)": "384"
					}
				},
				"methodIdentifiers": {
					"createCrowdfunding(string,address,string)": "a97af4d5",
					"getCrowdfundingByStatus(uint256)": "904cc175",
					"getList()": "942b765a",
					"list(uint256)": "80c9419e",
					"setStatus(uint256)": "69ba1a75"
				}
			},
			"storageLayout": {
				"storage": [
					{
						"astId": 3,
						"contract": "crowdfunding.sol:CrowdfundingContract",
						"label": "No",
						"offset": 0,
						"slot": "0",
						"type": "t_uint256"
					},
					{
						"astId": 24,
						"contract": "crowdfunding.sol:CrowdfundingContract",
						"label": "list",
						"offset": 0,
						"slot": "1",
						"type": "t_array(t_struct(Crowdfunding)20_storage)dyn_storage"
					},
					{
						"astId": 30,
						"contract": "crowdfunding.sol:CrowdfundingContract",
						"label": "filterDataByStatus",
						"offset": 0,
						"slot": "2",
						"type": "t_mapping(t_uint256,t_array(t_struct(Crowdfunding)20_storage)dyn_storage)"
					},
					{
						"astId": 36,
						"contract": "crowdfunding.sol:CrowdfundingContract",
						"label": "filterDataByNo",
						"offset": 0,
						"slot": "3",
						"type": "t_mapping(t_uint256,t_array(t_struct(Crowdfunding)20_storage)dyn_storage)"
					}
				],
				"types": {
					"t_address": {
						"encoding": "inplace",
						"label": "address",
						"numberOfBytes": "20"
					},
					"t_array(t_struct(Crowdfunding)20_storage)dyn_storage": {
						"base": "t_struct(Crowdfunding)20_storage",
						"encoding": "dynamic_array",
						"label": "struct CrowdfundingContract.Crowdfunding[]",
						"numberOfBytes": "32"
					},
					"t_mapping(t_uint256,t_array(t_struct(Crowdfunding)20_storage)dyn_storage)": {
						"encoding": "mapping",
						"key": "t_uint256",
						"label": "mapping(uint256 => struct CrowdfundingContract.Crowdfunding[])",
						"numberOfBytes": "32",
						"value": "t_array(t_struct(Crowdfunding)20_storage)dyn_storage"
					},
					"t_string_storage": {
						"encoding": "bytes",
						"label": "string",
						"numberOfBytes": "32"
					},
					"t_struct(Crowdfunding)20_storage": {
						"encoding": "inplace",
						"label": "struct CrowdfundingContract.Crowdfunding",
						"members": [
							{
								"astId": 5,
								"contract": "crowdfunding.sol:CrowdfundingContract",
								"label": "num",
								"offset": 0,
								"slot": "0",
								"type": "t_uint256"
							},
							{
								"astId": 7,
								"contract": "crowdfunding.sol:CrowdfundingContract",
								"label": "title",
								"offset": 0,
								"slot": "1",
								"type": "t_string_storage"
							},
							{
								"astId": 9,
								"contract": "crowdfunding.sol:CrowdfundingContract",
								"label": "status",
								"offset": 0,
								"slot": "2",
								"type": "t_uint256"
							},
							{
								"astId": 11,
								"contract": "crowdfunding.sol:CrowdfundingContract",
								"label": "creator",
								"offset": 0,
								"slot": "3",
								"type": "t_address"
							},
							{
								"astId": 13,
								"contract": "crowdfunding.sol:CrowdfundingContract",
								"label": "recipient",
								"offset": 0,
								"slot": "4",
								"type": "t_address"
							},
							{
								"astId": 15,
								"contract": "crowdfunding.sol:CrowdfundingContract",
								"label": "joinNum",
								"offset": 0,
								"slot": "5",
								"type": "t_uint256"
							},
							{
								"astId": 17,
								"contract": "crowdfunding.sol:CrowdfundingContract",
								"label": "expectAmout",
								"offset": 0,
								"slot": "6",
								"type": "t_string_storage"
							},
							{
								"astId": 19,
								"contract": "crowdfunding.sol:CrowdfundingContract",
								"label": "actualAmount",
								"offset": 0,
								"slot": "7",
								"type": "t_string_storage"
							}
						],
						"numberOfBytes": "256"
					},
					"t_uint256": {
						"encoding": "inplace",
						"label": "uint256",
						"numberOfBytes": "32"
					}
				}
			},
			"userdoc": {
				"kind": "user",
				"methods": {},
				"version": 1
			}
		}
	}
}