{
	"crowdfunding.sol": {
		"CrowdfundingContract": {
			"abi": [
				{
					"inputs": [
						{
							"internalType": "string",
							"name": "_title",
							"type": "string"
						},
						{
							"internalType": "address",
							"name": "_recipient",
							"type": "address"
						},
						{
							"internalType": "uint256",
							"name": "_expectAmout",
							"type": "uint256"
						}
					],
					"name": "createCrowdfunding",
					"outputs": [],
					"stateMutability": "nonpayable",
					"type": "function"
				},
				{
					"inputs": [
						{
							"internalType": "uint256",
							"name": "_status",
							"type": "uint256"
						}
					],
					"name": "getCrowdfundingByStatus",
					"outputs": [
						{
							"components": [
								{
									"internalType": "uint256",
									"name": "num",
									"type": "uint256"
								},
								{
									"internalType": "string",
									"name": "title",
									"type": "string"
								},
								{
									"internalType": "uint256",
									"name": "status",
									"type": "uint256"
								},
								{
									"internalType": "address",
									"name": "creator",
									"type": "address"
								},
								{
									"internalType": "address",
									"name": "recipient",
									"type": "address"
								},
								{
									"internalType": "uint256",
									"name": "joinNum",
									"type": "uint256"
								},
								{
									"internalType": "uint256",
									"name": "expectAmout",
									"type": "uint256"
								},
								{
									"internalType": "uint256",
									"name": "actualAmount",
									"type": "uint256"
								}
							],
							"internalType": "struct CrowdfundingContract.Crowdfunding[]",
							"name": "",
							"type": "tuple[]"
						}
					],
					"stateMutability": "view",
					"type": "function"
				},
				{
					"inputs": [
						{
							"internalType": "address",
							"name": "addr",
							"type": "address"
						}
					],
					"name": "getMyCrowdfunding",
					"outputs": [
						{
							"components": [
								{
									"internalType": "uint256",
									"name": "num",
									"type": "uint256"
								},
								{
									"internalType": "string",
									"name": "title",
									"type": "string"
								},
								{
									"internalType": "uint256",
									"name": "status",
									"type": "uint256"
								},
								{
									"internalType": "address",
									"name": "creator",
									"type": "address"
								},
								{
									"internalType": "address",
									"name": "recipient",
									"type": "address"
								},
								{
									"internalType": "uint256",
									"name": "joinNum",
									"type": "uint256"
								},
								{
									"internalType": "uint256",
									"name": "expectAmout",
									"type": "uint256"
								},
								{
									"internalType": "uint256",
									"name": "actualAmount",
									"type": "uint256"
								}
							],
							"internalType": "struct CrowdfundingContract.Crowdfunding[]",
							"name": "",
							"type": "tuple[]"
						}
					],
					"stateMutability": "view",
					"type": "function"
				},
				{
					"inputs": [
						{
							"internalType": "uint256",
							"name": "num",
							"type": "uint256"
						},
						{
							"internalType": "uint256",
							"name": "amount",
							"type": "uint256"
						},
						{
							"internalType": "address",
							"name": "addr",
							"type": "address"
						}
					],
					"name": "join",
					"outputs": [],
					"stateMutability": "nonpayable",
					"type": "function"
				},
				{
					"inputs": [
						{
							"internalType": "uint256",
							"name": "",
							"type": "uint256"
						}
					],
					"name": "list",
					"outputs": [
						{
							"internalType": "uint256",
							"name": "num",
							"type": "uint256"
						},
						{
							"internalType": "string",
							"name": "title",
							"type": "string"
						},
						{
							"internalType": "uint256",
							"name": "status",
							"type": "uint256"
						},
						{
							"internalType": "address",
							"name": "creator",
							"type": "address"
						},
						{
							"internalType": "address",
							"name": "recipient",
							"type": "address"
						},
						{
							"internalType": "uint256",
							"name": "joinNum",
							"type": "uint256"
						},
						{
							"internalType": "uint256",
							"name": "expectAmout",
							"type": "uint256"
						},
						{
							"internalType": "uint256",
							"name": "actualAmount",
							"type": "uint256"
						}
					],
					"stateMutability": "view",
					"type": "function"
				},
				{
					"inputs": [
						{
							"internalType": "uint256",
							"name": "num",
							"type": "uint256"
						}
					],
					"name": "setStatus",
					"outputs": [],
					"stateMutability": "nonpayable",
					"type": "function"
				},
				{
					"inputs": [
						{
							"internalType": "uint256",
							"name": "num",
							"type": "uint256"
						},
						{
							"internalType": "string",
							"name": "title",
							"type": "string"
						}
					],
					"name": "setTitle",
					"outputs": [],
					"stateMutability": "nonpayable",
					"type": "function"
				}
			],
			"devdoc": {
				"kind": "dev",
				"methods": {},
				"version": 1
			},
			"evm": {
				"assembly": "    /* \"crowdfunding.sol\":290:3385  contract CrowdfundingContract {\r... */\n  mstore(0x40, 0x80)\n  callvalue\n  dup1\n  iszero\n  tag_1\n  jumpi\n  0x00\n  dup1\n  revert\ntag_1:\n  pop\n  dataSize(sub_0)\n  dup1\n  dataOffset(sub_0)\n  0x00\n  codecopy\n  0x00\n  return\nstop\n\nsub_0: assembly {\n        /* \"crowdfunding.sol\":290:3385  contract CrowdfundingContract {\r... */\n      mstore(0x40, 0x80)\n      callvalue\n      dup1\n      iszero\n      tag_1\n      jumpi\n      0x00\n      dup1\n      revert\n    tag_1:\n      pop\n      jumpi(tag_2, lt(calldatasize, 0x04))\n      shr(0xe0, calldataload(0x00))\n      dup1\n      0x69ba1a75\n      gt\n      tag_10\n      jumpi\n      dup1\n      0x69ba1a75\n      eq\n      tag_6\n      jumpi\n      dup1\n      0x80c9419e\n      eq\n      tag_7\n      jumpi\n      dup1\n      0x904cc175\n      eq\n      tag_8\n      jumpi\n      dup1\n      0xac8b1300\n      eq\n      tag_9\n      jumpi\n      jump(tag_2)\n    tag_10:\n      dup1\n      0x377e6ff7\n      eq\n      tag_3\n      jumpi\n      dup1\n      0x5102bc9d\n      eq\n      tag_4\n      jumpi\n      dup1\n      0x575b70d0\n      eq\n      tag_5\n      jumpi\n    tag_2:\n      0x00\n      dup1\n      revert\n        /* \"crowdfunding.sol\":3251:3382  function getMyCrowdfunding(address addr) public view returns (Crowdfunding[] memory) {\r... */\n    tag_3:\n      tag_11\n      0x04\n      dup1\n      calldatasize\n      sub\n      dup2\n      add\n      swap1\n      tag_12\n      swap2\n      swap1\n      tag_13\n      jump\t// in\n    tag_12:\n      tag_14\n      jump\t// in\n    tag_11:\n      mload(0x40)\n      tag_15\n      swap2\n      swap1\n      tag_16\n      jump\t// in\n    tag_15:\n      mload(0x40)\n      dup1\n      swap2\n      sub\n      swap1\n      return\n        /* \"crowdfunding.sol\":2450:2549  function setTitle(uint num,string memory title) public {\r... */\n    tag_4:\n      tag_17\n      0x04\n      dup1\n      calldatasize\n      sub\n      dup2\n      add\n      swap1\n      tag_18\n      swap2\n      swap1\n      tag_19\n      jump\t// in\n    tag_18:\n      tag_20\n      jump\t// in\n    tag_17:\n      stop\n        /* \"crowdfunding.sol\":2581:2966  function join(uint num,uint amount,address addr) public {\r... */\n    tag_5:\n      tag_21\n      0x04\n      dup1\n      calldatasize\n      sub\n      dup2\n      add\n      swap1\n      tag_22\n      swap2\n      swap1\n      tag_23\n      jump\t// in\n    tag_22:\n      tag_24\n      jump\t// in\n    tag_21:\n      stop\n        /* \"crowdfunding.sol\":1775:2367  function setStatus(uint num) public {\r... */\n    tag_6:\n      tag_25\n      0x04\n      dup1\n      calldatasize\n      sub\n      dup2\n      add\n      swap1\n      tag_26\n      swap2\n      swap1\n      tag_27\n      jump\t// in\n    tag_26:\n      tag_28\n      jump\t// in\n    tag_25:\n      stop\n        /* \"crowdfunding.sol\":809:835  Crowdfunding[] public list */\n    tag_7:\n      tag_29\n      0x04\n      dup1\n      calldatasize\n      sub\n      dup2\n      add\n      swap1\n      tag_30\n      swap2\n      swap1\n      tag_27\n      jump\t// in\n    tag_30:\n      tag_31\n      jump\t// in\n    tag_29:\n      mload(0x40)\n      tag_32\n      swap9\n      swap8\n      swap7\n      swap6\n      swap5\n      swap4\n      swap3\n      swap2\n      swap1\n      tag_33\n      jump\t// in\n    tag_32:\n      mload(0x40)\n      dup1\n      swap2\n      sub\n      swap1\n      return\n        /* \"crowdfunding.sol\":3018:3201  function getCrowdfundingByStatus(uint _status) public view returns (Crowdfunding[] memory) {\r... */\n    tag_8:\n      tag_34\n      0x04\n      dup1\n      calldatasize\n      sub\n      dup2\n      add\n      swap1\n      tag_35\n      swap2\n      swap1\n      tag_27\n      jump\t// in\n    tag_35:\n      tag_36\n      jump\t// in\n    tag_34:\n      mload(0x40)\n      tag_37\n      swap2\n      swap1\n      tag_16\n      jump\t// in\n    tag_37:\n      mload(0x40)\n      dup1\n      swap2\n      sub\n      swap1\n      return\n        /* \"crowdfunding.sol\":1091:1696  function createCrowdfunding(string memory _title,address _recipient, uint _expectAmout) public {\r... */\n    tag_9:\n      tag_38\n      0x04\n      dup1\n      calldatasize\n      sub\n      dup2\n      add\n      swap1\n      tag_39\n      swap2\n      swap1\n      tag_40\n      jump\t// in\n    tag_39:\n      tag_41\n      jump\t// in\n    tag_38:\n      stop\n        /* \"crowdfunding.sol\":3251:3382  function getMyCrowdfunding(address addr) public view returns (Crowdfunding[] memory) {\r... */\n    tag_14:\n        /* \"crowdfunding.sol\":3313:3334  Crowdfunding[] memory */\n      0x60\n        /* \"crowdfunding.sol\":3354:3368  myCrowdfunding */\n      0x03\n        /* \"crowdfunding.sol\":3354:3374  myCrowdfunding[addr] */\n      0x00\n        /* \"crowdfunding.sol\":3369:3373  addr */\n      dup4\n        /* \"crowdfunding.sol\":3354:3374  myCrowdfunding[addr] */\n      0xffffffffffffffffffffffffffffffffffffffff\n      and\n      0xffffffffffffffffffffffffffffffffffffffff\n      and\n      dup2\n      mstore\n      0x20\n      add\n      swap1\n      dup2\n      mstore\n      0x20\n      add\n      0x00\n      keccak256\n        /* \"crowdfunding.sol\":3347:3374  return myCrowdfunding[addr] */\n      dup1\n      sload\n      dup1\n      0x20\n      mul\n      0x20\n      add\n      mload(0x40)\n      swap1\n      dup2\n      add\n      0x40\n      mstore\n      dup1\n      swap3\n      swap2\n      swap1\n      dup2\n      dup2\n      mstore\n      0x20\n      add\n      0x00\n      swap1\n    tag_43:\n      dup3\n      dup3\n      lt\n      iszero\n      tag_44\n      jumpi\n      dup4\n      dup3\n      swap1\n      0x00\n      mstore\n      keccak256(0x00, 0x20)\n      swap1\n      0x08\n      mul\n      add\n      mload(0x40)\n      dup1\n      0x0100\n      add\n      0x40\n      mstore\n      swap1\n      dup2\n      0x00\n      dup3\n      add\n      sload\n      dup2\n      mstore\n      0x20\n      add\n      0x01\n      dup3\n      add\n      dup1\n      sload\n      tag_46\n      swap1\n      tag_47\n      jump\t// in\n    tag_46:\n      dup1\n      0x1f\n      add\n      0x20\n      dup1\n      swap2\n      div\n      mul\n      0x20\n      add\n      mload(0x40)\n      swap1\n      dup2\n      add\n      0x40\n      mstore\n      dup1\n      swap3\n      swap2\n      swap1\n      dup2\n      dup2\n      mstore\n      0x20\n      add\n      dup3\n      dup1\n      sload\n      tag_48\n      swap1\n      tag_47\n      jump\t// in\n    tag_48:\n      dup1\n      iszero\n      tag_49\n      jumpi\n      dup1\n      0x1f\n      lt\n      tag_50\n      jumpi\n      0x0100\n      dup1\n      dup4\n      sload\n      div\n      mul\n      dup4\n      mstore\n      swap2\n      0x20\n      add\n      swap2\n      jump(tag_49)\n    tag_50:\n      dup3\n      add\n      swap2\n      swap1\n      0x00\n      mstore\n      keccak256(0x00, 0x20)\n      swap1\n    tag_51:\n      dup2\n      sload\n      dup2\n      mstore\n      swap1\n      0x01\n      add\n      swap1\n      0x20\n      add\n      dup1\n      dup4\n      gt\n      tag_51\n      jumpi\n      dup3\n      swap1\n      sub\n      0x1f\n      and\n      dup3\n      add\n      swap2\n    tag_49:\n      pop\n      pop\n      pop\n      pop\n      pop\n      dup2\n      mstore\n      0x20\n      add\n      0x02\n      dup3\n      add\n      sload\n      dup2\n      mstore\n      0x20\n      add\n      0x03\n      dup3\n      add\n      0x00\n      swap1\n      sload\n      swap1\n      0x0100\n      exp\n      swap1\n      div\n      0xffffffffffffffffffffffffffffffffffffffff\n      and\n      0xffffffffffffffffffffffffffffffffffffffff\n      and\n      0xffffffffffffffffffffffffffffffffffffffff\n      and\n      dup2\n      mstore\n      0x20\n      add\n      0x04\n      dup3\n      add\n      0x00\n      swap1\n      sload\n      swap1\n      0x0100\n      exp\n      swap1\n      div\n      0xffffffffffffffffffffffffffffffffffffffff\n      and\n      0xffffffffffffffffffffffffffffffffffffffff\n      and\n      0xffffffffffffffffffffffffffffffffffffffff\n      and\n      dup2\n      mstore\n      0x20\n      add\n      0x05\n      dup3\n      add\n      sload\n      dup2\n      mstore\n      0x20\n      add\n      0x06\n      dup3\n      add\n      sload\n      dup2\n      mstore\n      0x20\n      add\n      0x07\n      dup3\n      add\n      sload\n      dup2\n      mstore\n      pop\n      pop\n      dup2\n      mstore\n      0x20\n      add\n      swap1\n      0x01\n      add\n      swap1\n      jump(tag_43)\n    tag_44:\n      pop\n      pop\n      pop\n      pop\n      swap1\n      pop\n        /* \"crowdfunding.sol\":3251:3382  function getMyCrowdfunding(address addr) public view returns (Crowdfunding[] memory) {\r... */\n      swap2\n      swap1\n      pop\n      jump\t// out\n        /* \"crowdfunding.sol\":2450:2549  function setTitle(uint num,string memory title) public {\r... */\n    tag_20:\n        /* \"crowdfunding.sol\":2536:2541  title */\n      dup1\n        /* \"crowdfunding.sol\":2516:2520  list */\n      0x01\n        /* \"crowdfunding.sol\":2525:2526  1 */\n      dup1\n        /* \"crowdfunding.sol\":2521:2524  num */\n      dup5\n        /* \"crowdfunding.sol\":2521:2526  num-1 */\n      tag_53\n      swap2\n      swap1\n      tag_54\n      jump\t// in\n    tag_53:\n        /* \"crowdfunding.sol\":2516:2527  list[num-1] */\n      dup2\n      sload\n      dup2\n      lt\n      tag_55\n      jumpi\n      tag_56\n      tag_57\n      jump\t// in\n    tag_56:\n    tag_55:\n      swap1\n      0x00\n      mstore\n      keccak256(0x00, 0x20)\n      swap1\n      0x08\n      mul\n      add\n        /* \"crowdfunding.sol\":2516:2533  list[num-1].title */\n      0x01\n      add\n        /* \"crowdfunding.sol\":2516:2541  list[num-1].title = title */\n      swap1\n      dup1\n      mload\n      swap1\n      0x20\n      add\n      swap1\n      tag_59\n      swap3\n      swap2\n      swap1\n      tag_60\n      jump\t// in\n    tag_59:\n      pop\n        /* \"crowdfunding.sol\":2450:2549  function setTitle(uint num,string memory title) public {\r... */\n      pop\n      pop\n      jump\t// out\n        /* \"crowdfunding.sol\":2581:2966  function join(uint num,uint amount,address addr) public {\r... */\n    tag_24:\n        /* \"crowdfunding.sol\":2652:2658  uint i */\n      0x00\n        /* \"crowdfunding.sol\":2648:2957  for(uint i = 0; i < calcJoinNum[num].length;i++){\r... */\n    tag_62:\n        /* \"crowdfunding.sol\":2668:2679  calcJoinNum */\n      0x04\n        /* \"crowdfunding.sol\":2668:2684  calcJoinNum[num] */\n      0x00\n        /* \"crowdfunding.sol\":2680:2683  num */\n      dup6\n        /* \"crowdfunding.sol\":2668:2684  calcJoinNum[num] */\n      dup2\n      mstore\n      0x20\n      add\n      swap1\n      dup2\n      mstore\n      0x20\n      add\n      0x00\n      keccak256\n        /* \"crowdfunding.sol\":2668:2691  calcJoinNum[num].length */\n      dup1\n      sload\n      swap1\n      pop\n        /* \"crowdfunding.sol\":2664:2665  i */\n      dup2\n        /* \"crowdfunding.sol\":2664:2691  i < calcJoinNum[num].length */\n      lt\n        /* \"crowdfunding.sol\":2648:2957  for(uint i = 0; i < calcJoinNum[num].length;i++){\r... */\n      iszero\n      tag_63\n      jumpi\n        /* \"crowdfunding.sol\":2739:2743  addr */\n      dup2\n        /* \"crowdfunding.sol\":2714:2743  calcJoinNum[num-1][i] == addr */\n      0xffffffffffffffffffffffffffffffffffffffff\n      and\n        /* \"crowdfunding.sol\":2714:2725  calcJoinNum */\n      0x04\n        /* \"crowdfunding.sol\":2714:2732  calcJoinNum[num-1] */\n      0x00\n        /* \"crowdfunding.sol\":2730:2731  1 */\n      0x01\n        /* \"crowdfunding.sol\":2726:2729  num */\n      dup8\n        /* \"crowdfunding.sol\":2726:2731  num-1 */\n      tag_65\n      swap2\n      swap1\n      tag_54\n      jump\t// in\n    tag_65:\n        /* \"crowdfunding.sol\":2714:2732  calcJoinNum[num-1] */\n      dup2\n      mstore\n      0x20\n      add\n      swap1\n      dup2\n      mstore\n      0x20\n      add\n      0x00\n      keccak256\n        /* \"crowdfunding.sol\":2733:2734  i */\n      dup3\n        /* \"crowdfunding.sol\":2714:2735  calcJoinNum[num-1][i] */\n      dup2\n      sload\n      dup2\n      lt\n      tag_66\n      jumpi\n      tag_67\n      tag_57\n      jump\t// in\n    tag_67:\n    tag_66:\n      swap1\n      0x00\n      mstore\n      keccak256(0x00, 0x20)\n      add\n      0x00\n      swap1\n      sload\n      swap1\n      0x0100\n      exp\n      swap1\n      div\n      0xffffffffffffffffffffffffffffffffffffffff\n      and\n        /* \"crowdfunding.sol\":2714:2743  calcJoinNum[num-1][i] == addr */\n      0xffffffffffffffffffffffffffffffffffffffff\n      and\n      eq\n        /* \"crowdfunding.sol\":2711:2871  if(calcJoinNum[num-1][i] == addr){\r... */\n      iszero\n      tag_69\n      jumpi\n      jump(tag_70)\n    tag_69:\n        /* \"crowdfunding.sol\":2806:2807  1 */\n      0x01\n        /* \"crowdfunding.sol\":2783:2787  list */\n      dup1\n        /* \"crowdfunding.sol\":2792:2793  1 */\n      0x01\n        /* \"crowdfunding.sol\":2788:2791  num */\n      dup7\n        /* \"crowdfunding.sol\":2788:2793  num-1 */\n      tag_71\n      swap2\n      swap1\n      tag_54\n      jump\t// in\n    tag_71:\n        /* \"crowdfunding.sol\":2783:2794  list[num-1] */\n      dup2\n      sload\n      dup2\n      lt\n      tag_72\n      jumpi\n      tag_73\n      tag_57\n      jump\t// in\n    tag_73:\n    tag_72:\n      swap1\n      0x00\n      mstore\n      keccak256(0x00, 0x20)\n      swap1\n      0x08\n      mul\n      add\n        /* \"crowdfunding.sol\":2783:2802  list[num-1].joinNum */\n      0x05\n      add\n      0x00\n        /* \"crowdfunding.sol\":2783:2807  list[num-1].joinNum += 1 */\n      dup3\n      dup3\n      sload\n      tag_75\n      swap2\n      swap1\n      tag_76\n      jump\t// in\n    tag_75:\n      swap3\n      pop\n      pop\n      dup2\n      swap1\n      sstore\n      pop\n        /* \"crowdfunding.sol\":2826:2837  calcJoinNum */\n      0x04\n        /* \"crowdfunding.sol\":2826:2844  calcJoinNum[num-1] */\n      0x00\n        /* \"crowdfunding.sol\":2842:2843  1 */\n      0x01\n        /* \"crowdfunding.sol\":2838:2841  num */\n      dup7\n        /* \"crowdfunding.sol\":2838:2843  num-1 */\n      tag_77\n      swap2\n      swap1\n      tag_54\n      jump\t// in\n    tag_77:\n        /* \"crowdfunding.sol\":2826:2844  calcJoinNum[num-1] */\n      dup2\n      mstore\n      0x20\n      add\n      swap1\n      dup2\n      mstore\n      0x20\n      add\n      0x00\n      keccak256\n        /* \"crowdfunding.sol\":2850:2854  addr */\n      dup3\n        /* \"crowdfunding.sol\":2826:2855  calcJoinNum[num-1].push(addr) */\n      swap1\n      dup1\n      0x01\n      dup2\n      sload\n      add\n      dup1\n      dup3\n      sstore\n      dup1\n      swap2\n      pop\n      pop\n      0x01\n      swap1\n      sub\n      swap1\n      0x00\n      mstore\n      keccak256(0x00, 0x20)\n      add\n      0x00\n      swap1\n      swap2\n      swap1\n      swap2\n      swap1\n      swap2\n      0x0100\n      exp\n      dup2\n      sload\n      dup2\n      0xffffffffffffffffffffffffffffffffffffffff\n      mul\n      not\n      and\n      swap1\n      dup4\n      0xffffffffffffffffffffffffffffffffffffffff\n      and\n      mul\n      or\n      swap1\n      sstore\n      pop\n        /* \"crowdfunding.sol\":2711:2871  if(calcJoinNum[num-1][i] == addr){\r... */\n    tag_70:\n        /* \"crowdfunding.sol\":2939:2945  amount */\n      dup3\n        /* \"crowdfunding.sol\":2912:2916  list */\n      0x01\n        /* \"crowdfunding.sol\":2921:2922  1 */\n      dup1\n        /* \"crowdfunding.sol\":2917:2920  num */\n      dup7\n        /* \"crowdfunding.sol\":2917:2922  num-1 */\n      tag_79\n      swap2\n      swap1\n      tag_54\n      jump\t// in\n    tag_79:\n        /* \"crowdfunding.sol\":2912:2923  list[num-1] */\n      dup2\n      sload\n      dup2\n      lt\n      tag_80\n      jumpi\n      tag_81\n      tag_57\n      jump\t// in\n    tag_81:\n    tag_80:\n      swap1\n      0x00\n      mstore\n      keccak256(0x00, 0x20)\n      swap1\n      0x08\n      mul\n      add\n        /* \"crowdfunding.sol\":2912:2936  list[num-1].actualAmount */\n      0x07\n      add\n      sload\n        /* \"crowdfunding.sol\":2912:2945  list[num-1].actualAmount + amount */\n      tag_83\n      swap2\n      swap1\n      tag_76\n      jump\t// in\n    tag_83:\n        /* \"crowdfunding.sol\":2885:2889  list */\n      0x01\n        /* \"crowdfunding.sol\":2894:2895  1 */\n      dup1\n        /* \"crowdfunding.sol\":2890:2893  num */\n      dup7\n        /* \"crowdfunding.sol\":2890:2895  num-1 */\n      tag_84\n      swap2\n      swap1\n      tag_54\n      jump\t// in\n    tag_84:\n        /* \"crowdfunding.sol\":2885:2896  list[num-1] */\n      dup2\n      sload\n      dup2\n      lt\n      tag_85\n      jumpi\n      tag_86\n      tag_57\n      jump\t// in\n    tag_86:\n    tag_85:\n      swap1\n      0x00\n      mstore\n      keccak256(0x00, 0x20)\n      swap1\n      0x08\n      mul\n      add\n        /* \"crowdfunding.sol\":2885:2909  list[num-1].actualAmount */\n      0x07\n      add\n        /* \"crowdfunding.sol\":2885:2945  list[num-1].actualAmount = list[num-1].actualAmount + amount */\n      dup2\n      swap1\n      sstore\n      pop\n        /* \"crowdfunding.sol\":2692:2695  i++ */\n      dup1\n      dup1\n      tag_88\n      swap1\n      tag_89\n      jump\t// in\n    tag_88:\n      swap2\n      pop\n      pop\n        /* \"crowdfunding.sol\":2648:2957  for(uint i = 0; i < calcJoinNum[num].length;i++){\r... */\n      jump(tag_62)\n    tag_63:\n      pop\n        /* \"crowdfunding.sol\":2581:2966  function join(uint num,uint amount,address addr) public {\r... */\n      pop\n      pop\n      pop\n      jump\t// out\n        /* \"crowdfunding.sol\":1775:2367  function setStatus(uint num) public {\r... */\n    tag_28:\n        /* \"crowdfunding.sol\":1843:1844  3 */\n      0x03\n        /* \"crowdfunding.sol\":1822:1826  list */\n      0x01\n        /* \"crowdfunding.sol\":1831:1832  1 */\n      dup1\n        /* \"crowdfunding.sol\":1827:1830  num */\n      dup4\n        /* \"crowdfunding.sol\":1827:1832  num-1 */\n      tag_91\n      swap2\n      swap1\n      tag_54\n      jump\t// in\n    tag_91:\n        /* \"crowdfunding.sol\":1822:1833  list[num-1] */\n      dup2\n      sload\n      dup2\n      lt\n      tag_92\n      jumpi\n      tag_93\n      tag_57\n      jump\t// in\n    tag_93:\n    tag_92:\n      swap1\n      0x00\n      mstore\n      keccak256(0x00, 0x20)\n      swap1\n      0x08\n      mul\n      add\n        /* \"crowdfunding.sol\":1822:1840  list[num-1].status */\n      0x02\n      add\n        /* \"crowdfunding.sol\":1822:1844  list[num-1].status = 3 */\n      dup2\n      swap1\n      sstore\n      pop\n        /* \"crowdfunding.sol\":1953:1954  1 */\n      0x01\n        /* \"crowdfunding.sol\":1921:1939  filterDataByStatus */\n      0x02\n        /* \"crowdfunding.sol\":1921:1942  filterDataByStatus[1] */\n      0x00\n        /* \"crowdfunding.sol\":1940:1941  1 */\n      0x01\n        /* \"crowdfunding.sol\":1921:1942  filterDataByStatus[1] */\n      dup2\n      mstore\n      0x20\n      add\n      swap1\n      dup2\n      mstore\n      0x20\n      add\n      0x00\n      keccak256\n        /* \"crowdfunding.sol\":1921:1949  filterDataByStatus[1].length */\n      dup1\n      sload\n      swap1\n      pop\n        /* \"crowdfunding.sol\":1921:1954  filterDataByStatus[1].length == 1 */\n      eq\n        /* \"crowdfunding.sol\":1918:2310  if(filterDataByStatus[1].length == 1){\r... */\n      iszero\n      tag_95\n      jumpi\n        /* \"crowdfunding.sol\":1970:1988  filterDataByStatus */\n      0x02\n        /* \"crowdfunding.sol\":1970:1991  filterDataByStatus[1] */\n      0x00\n        /* \"crowdfunding.sol\":1989:1990  1 */\n      0x01\n        /* \"crowdfunding.sol\":1970:1991  filterDataByStatus[1] */\n      dup2\n      mstore\n      0x20\n      add\n      swap1\n      dup2\n      mstore\n      0x20\n      add\n      0x00\n      keccak256\n        /* \"crowdfunding.sol\":1970:1997  filterDataByStatus[1].pop() */\n      dup1\n      sload\n      dup1\n      tag_96\n      jumpi\n      tag_97\n      tag_98\n      jump\t// in\n    tag_97:\n    tag_96:\n      0x01\n      swap1\n      sub\n      dup2\n      dup2\n      swap1\n      0x00\n      mstore\n      keccak256(0x00, 0x20)\n      swap1\n      0x08\n      mul\n      add\n      0x00\n      dup1\n      dup3\n      add\n      0x00\n      swap1\n      sstore\n      0x01\n      dup3\n      add\n      0x00\n      tag_100\n      swap2\n      swap1\n      tag_101\n      jump\t// in\n    tag_100:\n      0x02\n      dup3\n      add\n      0x00\n      swap1\n      sstore\n      0x03\n      dup3\n      add\n      exp(0x0100, 0x00)\n      dup2\n      sload\n      swap1\n      0xffffffffffffffffffffffffffffffffffffffff\n      mul\n      not\n      and\n      swap1\n      sstore\n      0x04\n      dup3\n      add\n      exp(0x0100, 0x00)\n      dup2\n      sload\n      swap1\n      0xffffffffffffffffffffffffffffffffffffffff\n      mul\n      not\n      and\n      swap1\n      sstore\n      0x05\n      dup3\n      add\n      0x00\n      swap1\n      sstore\n      0x06\n      dup3\n      add\n      0x00\n      swap1\n      sstore\n      0x07\n      dup3\n      add\n      0x00\n      swap1\n      sstore\n      pop\n      pop\n      swap1\n      sstore\n        /* \"crowdfunding.sol\":1918:2310  if(filterDataByStatus[1].length == 1){\r... */\n      jump(tag_102)\n    tag_95:\n        /* \"crowdfunding.sol\":2032:2038  uint i */\n      0x00\n        /* \"crowdfunding.sol\":2028:2257  for(uint i = 0; i < filterDataByStatus[1].length - 1; i++) {\r... */\n    tag_103:\n        /* \"crowdfunding.sol\":2079:2080  1 */\n      0x01\n        /* \"crowdfunding.sol\":2048:2066  filterDataByStatus */\n      0x02\n        /* \"crowdfunding.sol\":2048:2069  filterDataByStatus[1] */\n      0x00\n        /* \"crowdfunding.sol\":2067:2068  1 */\n      0x01\n        /* \"crowdfunding.sol\":2048:2069  filterDataByStatus[1] */\n      dup2\n      mstore\n      0x20\n      add\n      swap1\n      dup2\n      mstore\n      0x20\n      add\n      0x00\n      keccak256\n        /* \"crowdfunding.sol\":2048:2076  filterDataByStatus[1].length */\n      dup1\n      sload\n      swap1\n      pop\n        /* \"crowdfunding.sol\":2048:2080  filterDataByStatus[1].length - 1 */\n      tag_106\n      swap2\n      swap1\n      tag_54\n      jump\t// in\n    tag_106:\n        /* \"crowdfunding.sol\":2044:2045  i */\n      dup2\n        /* \"crowdfunding.sol\":2044:2080  i < filterDataByStatus[1].length - 1 */\n      lt\n        /* \"crowdfunding.sol\":2028:2257  for(uint i = 0; i < filterDataByStatus[1].length - 1; i++) {\r... */\n      iszero\n      tag_104\n      jumpi\n        /* \"crowdfunding.sol\":2141:2144  num */\n      dup2\n        /* \"crowdfunding.sol\":2109:2127  filterDataByStatus */\n      0x02\n        /* \"crowdfunding.sol\":2109:2130  filterDataByStatus[1] */\n      0x00\n        /* \"crowdfunding.sol\":2128:2129  1 */\n      0x01\n        /* \"crowdfunding.sol\":2109:2130  filterDataByStatus[1] */\n      dup2\n      mstore\n      0x20\n      add\n      swap1\n      dup2\n      mstore\n      0x20\n      add\n      0x00\n      keccak256\n        /* \"crowdfunding.sol\":2131:2132  i */\n      dup3\n        /* \"crowdfunding.sol\":2109:2133  filterDataByStatus[1][i] */\n      dup2\n      sload\n      dup2\n      lt\n      tag_107\n      jumpi\n      tag_108\n      tag_57\n      jump\t// in\n    tag_108:\n    tag_107:\n      swap1\n      0x00\n      mstore\n      keccak256(0x00, 0x20)\n      swap1\n      0x08\n      mul\n      add\n        /* \"crowdfunding.sol\":2109:2137  filterDataByStatus[1][i].num */\n      0x00\n      add\n      sload\n        /* \"crowdfunding.sol\":2109:2144  filterDataByStatus[1][i].num == num */\n      eq\n        /* \"crowdfunding.sol\":2106:2242  if(filterDataByStatus[1][i].num == num) {\r... */\n      iszero\n      tag_110\n      jumpi\n        /* \"crowdfunding.sol\":2196:2214  filterDataByStatus */\n      0x02\n        /* \"crowdfunding.sol\":2196:2217  filterDataByStatus[1] */\n      0x00\n        /* \"crowdfunding.sol\":2215:2216  1 */\n      0x01\n        /* \"crowdfunding.sol\":2196:2217  filterDataByStatus[1] */\n      dup2\n      mstore\n      0x20\n      add\n      swap1\n      dup2\n      mstore\n      0x20\n      add\n      0x00\n      keccak256\n        /* \"crowdfunding.sol\":2220:2221  1 */\n      0x01\n        /* \"crowdfunding.sol\":2218:2219  i */\n      dup3\n        /* \"crowdfunding.sol\":2218:2221  i+1 */\n      tag_111\n      swap2\n      swap1\n      tag_76\n      jump\t// in\n    tag_111:\n        /* \"crowdfunding.sol\":2196:2222  filterDataByStatus[1][i+1] */\n      dup2\n      sload\n      dup2\n      lt\n      tag_112\n      jumpi\n      tag_113\n      tag_57\n      jump\t// in\n    tag_113:\n    tag_112:\n      swap1\n      0x00\n      mstore\n      keccak256(0x00, 0x20)\n      swap1\n      0x08\n      mul\n      add\n        /* \"crowdfunding.sol\":2169:2187  filterDataByStatus */\n      0x02\n        /* \"crowdfunding.sol\":2169:2190  filterDataByStatus[1] */\n      0x00\n        /* \"crowdfunding.sol\":2188:2189  1 */\n      0x01\n        /* \"crowdfunding.sol\":2169:2190  filterDataByStatus[1] */\n      dup2\n      mstore\n      0x20\n      add\n      swap1\n      dup2\n      mstore\n      0x20\n      add\n      0x00\n      keccak256\n        /* \"crowdfunding.sol\":2191:2192  i */\n      dup3\n        /* \"crowdfunding.sol\":2169:2193  filterDataByStatus[1][i] */\n      dup2\n      sload\n      dup2\n      lt\n      tag_115\n      jumpi\n      tag_116\n      tag_57\n      jump\t// in\n    tag_116:\n    tag_115:\n      swap1\n      0x00\n      mstore\n      keccak256(0x00, 0x20)\n      swap1\n      0x08\n      mul\n      add\n        /* \"crowdfunding.sol\":2169:2222  filterDataByStatus[1][i] = filterDataByStatus[1][i+1] */\n      0x00\n      dup3\n      add\n      sload\n      dup2\n      0x00\n      add\n      sstore\n      0x01\n      dup3\n      add\n      dup2\n      0x01\n      add\n      swap1\n      dup1\n      sload\n      tag_118\n      swap1\n      tag_47\n      jump\t// in\n    tag_118:\n      tag_119\n      swap3\n      swap2\n      swap1\n      tag_120\n      jump\t// in\n    tag_119:\n      pop\n      0x02\n      dup3\n      add\n      sload\n      dup2\n      0x02\n      add\n      sstore\n      0x03\n      dup3\n      add\n      0x00\n      swap1\n      sload\n      swap1\n      0x0100\n      exp\n      swap1\n      div\n      0xffffffffffffffffffffffffffffffffffffffff\n      and\n      dup2\n      0x03\n      add\n      exp(0x0100, 0x00)\n      dup2\n      sload\n      dup2\n      0xffffffffffffffffffffffffffffffffffffffff\n      mul\n      not\n      and\n      swap1\n      dup4\n      0xffffffffffffffffffffffffffffffffffffffff\n      and\n      mul\n      or\n      swap1\n      sstore\n      pop\n      0x04\n      dup3\n      add\n      0x00\n      swap1\n      sload\n      swap1\n      0x0100\n      exp\n      swap1\n      div\n      0xffffffffffffffffffffffffffffffffffffffff\n      and\n      dup2\n      0x04\n      add\n      exp(0x0100, 0x00)\n      dup2\n      sload\n      dup2\n      0xffffffffffffffffffffffffffffffffffffffff\n      mul\n      not\n      and\n      swap1\n      dup4\n      0xffffffffffffffffffffffffffffffffffffffff\n      and\n      mul\n      or\n      swap1\n      sstore\n      pop\n      0x05\n      dup3\n      add\n      sload\n      dup2\n      0x05\n      add\n      sstore\n      0x06\n      dup3\n      add\n      sload\n      dup2\n      0x06\n      add\n      sstore\n      0x07\n      dup3\n      add\n      sload\n      dup2\n      0x07\n      add\n      sstore\n      swap1\n      pop\n      pop\n        /* \"crowdfunding.sol\":2106:2242  if(filterDataByStatus[1][i].num == num) {\r... */\n    tag_110:\n        /* \"crowdfunding.sol\":2082:2085  i++ */\n      dup1\n      dup1\n      tag_121\n      swap1\n      tag_89\n      jump\t// in\n    tag_121:\n      swap2\n      pop\n      pop\n        /* \"crowdfunding.sol\":2028:2257  for(uint i = 0; i < filterDataByStatus[1].length - 1; i++) {\r... */\n      jump(tag_103)\n    tag_104:\n      pop\n        /* \"crowdfunding.sol\":2271:2289  filterDataByStatus */\n      0x02\n        /* \"crowdfunding.sol\":2271:2292  filterDataByStatus[1] */\n      0x00\n        /* \"crowdfunding.sol\":2290:2291  1 */\n      0x01\n        /* \"crowdfunding.sol\":2271:2292  filterDataByStatus[1] */\n      dup2\n      mstore\n      0x20\n      add\n      swap1\n      dup2\n      mstore\n      0x20\n      add\n      0x00\n      keccak256\n        /* \"crowdfunding.sol\":2271:2298  filterDataByStatus[1].pop() */\n      dup1\n      sload\n      dup1\n      tag_122\n      jumpi\n      tag_123\n      tag_98\n      jump\t// in\n    tag_123:\n    tag_122:\n      0x01\n      swap1\n      sub\n      dup2\n      dup2\n      swap1\n      0x00\n      mstore\n      keccak256(0x00, 0x20)\n      swap1\n      0x08\n      mul\n      add\n      0x00\n      dup1\n      dup3\n      add\n      0x00\n      swap1\n      sstore\n      0x01\n      dup3\n      add\n      0x00\n      tag_125\n      swap2\n      swap1\n      tag_101\n      jump\t// in\n    tag_125:\n      0x02\n      dup3\n      add\n      0x00\n      swap1\n      sstore\n      0x03\n      dup3\n      add\n      exp(0x0100, 0x00)\n      dup2\n      sload\n      swap1\n      0xffffffffffffffffffffffffffffffffffffffff\n      mul\n      not\n      and\n      swap1\n      sstore\n      0x04\n      dup3\n      add\n      exp(0x0100, 0x00)\n      dup2\n      sload\n      swap1\n      0xffffffffffffffffffffffffffffffffffffffff\n      mul\n      not\n      and\n      swap1\n      sstore\n      0x05\n      dup3\n      add\n      0x00\n      swap1\n      sstore\n      0x06\n      dup3\n      add\n      0x00\n      swap1\n      sstore\n      0x07\n      dup3\n      add\n      0x00\n      swap1\n      sstore\n      pop\n      pop\n      swap1\n      sstore\n        /* \"crowdfunding.sol\":1918:2310  if(filterDataByStatus[1].length == 1){\r... */\n    tag_102:\n        /* \"crowdfunding.sol\":2320:2338  filterDataByStatus */\n      0x02\n        /* \"crowdfunding.sol\":2320:2341  filterDataByStatus[3] */\n      0x00\n        /* \"crowdfunding.sol\":2339:2340  3 */\n      0x03\n        /* \"crowdfunding.sol\":2320:2341  filterDataByStatus[3] */\n      dup2\n      mstore\n      0x20\n      add\n      swap1\n      dup2\n      mstore\n      0x20\n      add\n      0x00\n      keccak256\n        /* \"crowdfunding.sol\":2347:2351  list */\n      0x01\n        /* \"crowdfunding.sol\":2356:2357  1 */\n      dup1\n        /* \"crowdfunding.sol\":2352:2355  num */\n      dup4\n        /* \"crowdfunding.sol\":2352:2357  num-1 */\n      tag_126\n      swap2\n      swap1\n      tag_54\n      jump\t// in\n    tag_126:\n        /* \"crowdfunding.sol\":2347:2358  list[num-1] */\n      dup2\n      sload\n      dup2\n      lt\n      tag_127\n      jumpi\n      tag_128\n      tag_57\n      jump\t// in\n    tag_128:\n    tag_127:\n      swap1\n      0x00\n      mstore\n      keccak256(0x00, 0x20)\n      swap1\n      0x08\n      mul\n      add\n        /* \"crowdfunding.sol\":2320:2359  filterDataByStatus[3].push(list[num-1]) */\n      swap1\n      dup1\n      0x01\n      dup2\n      sload\n      add\n      dup1\n      dup3\n      sstore\n      dup1\n      swap2\n      pop\n      pop\n      0x01\n      swap1\n      sub\n      swap1\n      0x00\n      mstore\n      keccak256(0x00, 0x20)\n      swap1\n      0x08\n      mul\n      add\n      0x00\n      swap1\n      swap2\n      swap1\n      swap2\n      swap1\n      swap2\n      pop\n      0x00\n      dup3\n      add\n      sload\n      dup2\n      0x00\n      add\n      sstore\n      0x01\n      dup3\n      add\n      dup2\n      0x01\n      add\n      swap1\n      dup1\n      sload\n      tag_131\n      swap1\n      tag_47\n      jump\t// in\n    tag_131:\n      tag_132\n      swap3\n      swap2\n      swap1\n      tag_120\n      jump\t// in\n    tag_132:\n      pop\n      0x02\n      dup3\n      add\n      sload\n      dup2\n      0x02\n      add\n      sstore\n      0x03\n      dup3\n      add\n      0x00\n      swap1\n      sload\n      swap1\n      0x0100\n      exp\n      swap1\n      div\n      0xffffffffffffffffffffffffffffffffffffffff\n      and\n      dup2\n      0x03\n      add\n      exp(0x0100, 0x00)\n      dup2\n      sload\n      dup2\n      0xffffffffffffffffffffffffffffffffffffffff\n      mul\n      not\n      and\n      swap1\n      dup4\n      0xffffffffffffffffffffffffffffffffffffffff\n      and\n      mul\n      or\n      swap1\n      sstore\n      pop\n      0x04\n      dup3\n      add\n      0x00\n      swap1\n      sload\n      swap1\n      0x0100\n      exp\n      swap1\n      div\n      0xffffffffffffffffffffffffffffffffffffffff\n      and\n      dup2\n      0x04\n      add\n      exp(0x0100, 0x00)\n      dup2\n      sload\n      dup2\n      0xffffffffffffffffffffffffffffffffffffffff\n      mul\n      not\n      and\n      swap1\n      dup4\n      0xffffffffffffffffffffffffffffffffffffffff\n      and\n      mul\n      or\n      swap1\n      sstore\n      pop\n      0x05\n      dup3\n      add\n      sload\n      dup2\n      0x05\n      add\n      sstore\n      0x06\n      dup3\n      add\n      sload\n      dup2\n      0x06\n      add\n      sstore\n      0x07\n      dup3\n      add\n      sload\n      dup2\n      0x07\n      add\n      sstore\n      pop\n      pop\n        /* \"crowdfunding.sol\":1775:2367  function setStatus(uint num) public {\r... */\n      pop\n      jump\t// out\n        /* \"crowdfunding.sol\":809:835  Crowdfunding[] public list */\n    tag_31:\n      0x01\n      dup2\n      dup2\n      sload\n      dup2\n      lt\n      tag_133\n      jumpi\n      0x00\n      dup1\n      revert\n    tag_133:\n      swap1\n      0x00\n      mstore\n      keccak256(0x00, 0x20)\n      swap1\n      0x08\n      mul\n      add\n      0x00\n      swap2\n      pop\n      swap1\n      pop\n      dup1\n      0x00\n      add\n      sload\n      swap1\n      dup1\n      0x01\n      add\n      dup1\n      sload\n      tag_135\n      swap1\n      tag_47\n      jump\t// in\n    tag_135:\n      dup1\n      0x1f\n      add\n      0x20\n      dup1\n      swap2\n      div\n      mul\n      0x20\n      add\n      mload(0x40)\n      swap1\n      dup2\n      add\n      0x40\n      mstore\n      dup1\n      swap3\n      swap2\n      swap1\n      dup2\n      dup2\n      mstore\n      0x20\n      add\n      dup3\n      dup1\n      sload\n      tag_136\n      swap1\n      tag_47\n      jump\t// in\n    tag_136:\n      dup1\n      iszero\n      tag_137\n      jumpi\n      dup1\n      0x1f\n      lt\n      tag_138\n      jumpi\n      0x0100\n      dup1\n      dup4\n      sload\n      div\n      mul\n      dup4\n      mstore\n      swap2\n      0x20\n      add\n      swap2\n      jump(tag_137)\n    tag_138:\n      dup3\n      add\n      swap2\n      swap1\n      0x00\n      mstore\n      keccak256(0x00, 0x20)\n      swap1\n    tag_139:\n      dup2\n      sload\n      dup2\n      mstore\n      swap1\n      0x01\n      add\n      swap1\n      0x20\n      add\n      dup1\n      dup4\n      gt\n      tag_139\n      jumpi\n      dup3\n      swap1\n      sub\n      0x1f\n      and\n      dup3\n      add\n      swap2\n    tag_137:\n      pop\n      pop\n      pop\n      pop\n      pop\n      swap1\n      dup1\n      0x02\n      add\n      sload\n      swap1\n      dup1\n      0x03\n      add\n      0x00\n      swap1\n      sload\n      swap1\n      0x0100\n      exp\n      swap1\n      div\n      0xffffffffffffffffffffffffffffffffffffffff\n      and\n      swap1\n      dup1\n      0x04\n      add\n      0x00\n      swap1\n      sload\n      swap1\n      0x0100\n      exp\n      swap1\n      div\n      0xffffffffffffffffffffffffffffffffffffffff\n      and\n      swap1\n      dup1\n      0x05\n      add\n      sload\n      swap1\n      dup1\n      0x06\n      add\n      sload\n      swap1\n      dup1\n      0x07\n      add\n      sload\n      swap1\n      pop\n      dup9\n      jump\t// out\n        /* \"crowdfunding.sol\":3018:3201  function getCrowdfundingByStatus(uint _status) public view returns (Crowdfunding[] memory) {\r... */\n    tag_36:\n        /* \"crowdfunding.sol\":3086:3107  Crowdfunding[] memory */\n      0x60\n        /* \"crowdfunding.sol\":3134:3135  0 */\n      0x00\n        /* \"crowdfunding.sol\":3123:3130  _status */\n      dup3\n        /* \"crowdfunding.sol\":3123:3135  _status == 0 */\n      eq\n        /* \"crowdfunding.sol\":3120:3148  if(_status == 0) return list */\n      iszero\n      tag_141\n      jumpi\n        /* \"crowdfunding.sol\":3144:3148  list */\n      0x01\n        /* \"crowdfunding.sol\":3137:3148  return list */\n      dup1\n      sload\n      dup1\n      0x20\n      mul\n      0x20\n      add\n      mload(0x40)\n      swap1\n      dup2\n      add\n      0x40\n      mstore\n      dup1\n      swap3\n      swap2\n      swap1\n      dup2\n      dup2\n      mstore\n      0x20\n      add\n      0x00\n      swap1\n    tag_142:\n      dup3\n      dup3\n      lt\n      iszero\n      tag_143\n      jumpi\n      dup4\n      dup3\n      swap1\n      0x00\n      mstore\n      keccak256(0x00, 0x20)\n      swap1\n      0x08\n      mul\n      add\n      mload(0x40)\n      dup1\n      0x0100\n      add\n      0x40\n      mstore\n      swap1\n      dup2\n      0x00\n      dup3\n      add\n      sload\n      dup2\n      mstore\n      0x20\n      add\n      0x01\n      dup3\n      add\n      dup1\n      sload\n      tag_145\n      swap1\n      tag_47\n      jump\t// in\n    tag_145:\n      dup1\n      0x1f\n      add\n      0x20\n      dup1\n      swap2\n      div\n      mul\n      0x20\n      add\n      mload(0x40)\n      swap1\n      dup2\n      add\n      0x40\n      mstore\n      dup1\n      swap3\n      swap2\n      swap1\n      dup2\n      dup2\n      mstore\n      0x20\n      add\n      dup3\n      dup1\n      sload\n      tag_146\n      swap1\n      tag_47\n      jump\t// in\n    tag_146:\n      dup1\n      iszero\n      tag_147\n      jumpi\n      dup1\n      0x1f\n      lt\n      tag_148\n      jumpi\n      0x0100\n      dup1\n      dup4\n      sload\n      div\n      mul\n      dup4\n      mstore\n      swap2\n      0x20\n      add\n      swap2\n      jump(tag_147)\n    tag_148:\n      dup3\n      add\n      swap2\n      swap1\n      0x00\n      mstore\n      keccak256(0x00, 0x20)\n      swap1\n    tag_149:\n      dup2\n      sload\n      dup2\n      mstore\n      swap1\n      0x01\n      add\n      swap1\n      0x20\n      add\n      dup1\n      dup4\n      gt\n      tag_149\n      jumpi\n      dup3\n      swap1\n      sub\n      0x1f\n      and\n      dup3\n      add\n      swap2\n    tag_147:\n      pop\n      pop\n      pop\n      pop\n      pop\n      dup2\n      mstore\n      0x20\n      add\n      0x02\n      dup3\n      add\n      sload\n      dup2\n      mstore\n      0x20\n      add\n      0x03\n      dup3\n      add\n      0x00\n      swap1\n      sload\n      swap1\n      0x0100\n      exp\n      swap1\n      div\n      0xffffffffffffffffffffffffffffffffffffffff\n      and\n      0xffffffffffffffffffffffffffffffffffffffff\n      and\n      0xffffffffffffffffffffffffffffffffffffffff\n      and\n      dup2\n      mstore\n      0x20\n      add\n      0x04\n      dup3\n      add\n      0x00\n      swap1\n      sload\n      swap1\n      0x0100\n      exp\n      swap1\n      div\n      0xffffffffffffffffffffffffffffffffffffffff\n      and\n      0xffffffffffffffffffffffffffffffffffffffff\n      and\n      0xffffffffffffffffffffffffffffffffffffffff\n      and\n      dup2\n      mstore\n      0x20\n      add\n      0x05\n      dup3\n      add\n      sload\n      dup2\n      mstore\n      0x20\n      add\n      0x06\n      dup3\n      add\n      sload\n      dup2\n      mstore\n      0x20\n      add\n      0x07\n      dup3\n      add\n      sload\n      dup2\n      mstore\n      pop\n      pop\n      dup2\n      mstore\n      0x20\n      add\n      swap1\n      0x01\n      add\n      swap1\n      jump(tag_142)\n    tag_143:\n      pop\n      pop\n      pop\n      pop\n      swap1\n      pop\n      jump(tag_140)\n        /* \"crowdfunding.sol\":3120:3148  if(_status == 0) return list */\n    tag_141:\n        /* \"crowdfunding.sol\":3166:3184  filterDataByStatus */\n      0x02\n        /* \"crowdfunding.sol\":3166:3193  filterDataByStatus[_status] */\n      0x00\n        /* \"crowdfunding.sol\":3185:3192  _status */\n      dup4\n        /* \"crowdfunding.sol\":3166:3193  filterDataByStatus[_status] */\n      dup2\n      mstore\n      0x20\n      add\n      swap1\n      dup2\n      mstore\n      0x20\n      add\n      0x00\n      keccak256\n        /* \"crowdfunding.sol\":3159:3193  return filterDataByStatus[_status] */\n      dup1\n      sload\n      dup1\n      0x20\n      mul\n      0x20\n      add\n      mload(0x40)\n      swap1\n      dup2\n      add\n      0x40\n      mstore\n      dup1\n      swap3\n      swap2\n      swap1\n      dup2\n      dup2\n      mstore\n      0x20\n      add\n      0x00\n      swap1\n    tag_150:\n      dup3\n      dup3\n      lt\n      iszero\n      tag_151\n      jumpi\n      dup4\n      dup3\n      swap1\n      0x00\n      mstore\n      keccak256(0x00, 0x20)\n      swap1\n      0x08\n      mul\n      add\n      mload(0x40)\n      dup1\n      0x0100\n      add\n      0x40\n      mstore\n      swap1\n      dup2\n      0x00\n      dup3\n      add\n      sload\n      dup2\n      mstore\n      0x20\n      add\n      0x01\n      dup3\n      add\n      dup1\n      sload\n      tag_153\n      swap1\n      tag_47\n      jump\t// in\n    tag_153:\n      dup1\n      0x1f\n      add\n      0x20\n      dup1\n      swap2\n      div\n      mul\n      0x20\n      add\n      mload(0x40)\n      swap1\n      dup2\n      add\n      0x40\n      mstore\n      dup1\n      swap3\n      swap2\n      swap1\n      dup2\n      dup2\n      mstore\n      0x20\n      add\n      dup3\n      dup1\n      sload\n      tag_154\n      swap1\n      tag_47\n      jump\t// in\n    tag_154:\n      dup1\n      iszero\n      tag_155\n      jumpi\n      dup1\n      0x1f\n      lt\n      tag_156\n      jumpi\n      0x0100\n      dup1\n      dup4\n      sload\n      div\n      mul\n      dup4\n      mstore\n      swap2\n      0x20\n      add\n      swap2\n      jump(tag_155)\n    tag_156:\n      dup3\n      add\n      swap2\n      swap1\n      0x00\n      mstore\n      keccak256(0x00, 0x20)\n      swap1\n    tag_157:\n      dup2\n      sload\n      dup2\n      mstore\n      swap1\n      0x01\n      add\n      swap1\n      0x20\n      add\n      dup1\n      dup4\n      gt\n      tag_157\n      jumpi\n      dup3\n      swap1\n      sub\n      0x1f\n      and\n      dup3\n      add\n      swap2\n    tag_155:\n      pop\n      pop\n      pop\n      pop\n      pop\n      dup2\n      mstore\n      0x20\n      add\n      0x02\n      dup3\n      add\n      sload\n      dup2\n      mstore\n      0x20\n      add\n      0x03\n      dup3\n      add\n      0x00\n      swap1\n      sload\n      swap1\n      0x0100\n      exp\n      swap1\n      div\n      0xffffffffffffffffffffffffffffffffffffffff\n      and\n      0xffffffffffffffffffffffffffffffffffffffff\n      and\n      0xffffffffffffffffffffffffffffffffffffffff\n      and\n      dup2\n      mstore\n      0x20\n      add\n      0x04\n      dup3\n      add\n      0x00\n      swap1\n      sload\n      swap1\n      0x0100\n      exp\n      swap1\n      div\n      0xffffffffffffffffffffffffffffffffffffffff\n      and\n      0xffffffffffffffffffffffffffffffffffffffff\n      and\n      0xffffffffffffffffffffffffffffffffffffffff\n      and\n      dup2\n      mstore\n      0x20\n      add\n      0x05\n      dup3\n      add\n      sload\n      dup2\n      mstore\n      0x20\n      add\n      0x06\n      dup3\n      add\n      sload\n      dup2\n      mstore\n      0x20\n      add\n      0x07\n      dup3\n      add\n      sload\n      dup2\n      mstore\n      pop\n      pop\n      dup2\n      mstore\n      0x20\n      add\n      swap1\n      0x01\n      add\n      swap1\n      jump(tag_150)\n    tag_151:\n      pop\n      pop\n      pop\n      pop\n      swap1\n      pop\n        /* \"crowdfunding.sol\":3018:3201  function getCrowdfundingByStatus(uint _status) public view returns (Crowdfunding[] memory) {\r... */\n    tag_140:\n      swap2\n      swap1\n      pop\n      jump\t// out\n        /* \"crowdfunding.sol\":1091:1696  function createCrowdfunding(string memory _title,address _recipient, uint _expectAmout) public {\r... */\n    tag_41:\n        /* \"crowdfunding.sol\":1197:1199  No */\n      0x00\n      dup1\n        /* \"crowdfunding.sol\":1197:1201  No++ */\n      dup2\n      sload\n      dup1\n      swap3\n      swap2\n      swap1\n      tag_159\n      swap1\n      tag_89\n      jump\t// in\n    tag_159:\n      swap2\n      swap1\n      pop\n      sstore\n      pop\n        /* \"crowdfunding.sol\":1212:1233  Crowdfunding memory c */\n      0x00\n        /* \"crowdfunding.sol\":1236:1506  Crowdfunding({\r... */\n      mload(0x40)\n      dup1\n      0x0100\n      add\n      0x40\n      mstore\n      dup1\n        /* \"crowdfunding.sol\":1269:1271  No */\n      sload(0x00)\n        /* \"crowdfunding.sol\":1236:1506  Crowdfunding({\r... */\n      dup2\n      mstore\n      0x20\n      add\n        /* \"crowdfunding.sol\":1292:1298  _title */\n      dup6\n        /* \"crowdfunding.sol\":1236:1506  Crowdfunding({\r... */\n      dup2\n      mstore\n      0x20\n      add\n        /* \"crowdfunding.sol\":1321:1322  1 */\n      0x01\n        /* \"crowdfunding.sol\":1236:1506  Crowdfunding({\r... */\n      dup2\n      mstore\n      0x20\n      add\n        /* \"crowdfunding.sol\":1346:1356  msg.sender */\n      caller\n        /* \"crowdfunding.sol\":1236:1506  Crowdfunding({\r... */\n      0xffffffffffffffffffffffffffffffffffffffff\n      and\n      dup2\n      mstore\n      0x20\n      add\n        /* \"crowdfunding.sol\":1382:1392  _recipient */\n      dup5\n        /* \"crowdfunding.sol\":1236:1506  Crowdfunding({\r... */\n      0xffffffffffffffffffffffffffffffffffffffff\n      and\n      dup2\n      mstore\n      0x20\n      add\n        /* \"crowdfunding.sol\":1416:1417  0 */\n      0x00\n        /* \"crowdfunding.sol\":1236:1506  Crowdfunding({\r... */\n      dup2\n      mstore\n      0x20\n      add\n        /* \"crowdfunding.sol\":1452:1464  _expectAmout */\n      dup4\n        /* \"crowdfunding.sol\":1236:1506  Crowdfunding({\r... */\n      dup2\n      mstore\n      0x20\n      add\n        /* \"crowdfunding.sol\":1493:1494  0 */\n      0x00\n        /* \"crowdfunding.sol\":1236:1506  Crowdfunding({\r... */\n      dup2\n      mstore\n      pop\n        /* \"crowdfunding.sol\":1212:1506  Crowdfunding memory c = Crowdfunding({\r... */\n      swap1\n      pop\n        /* \"crowdfunding.sol\":1517:1521  list */\n      0x01\n        /* \"crowdfunding.sol\":1527:1528  c */\n      dup2\n        /* \"crowdfunding.sol\":1517:1529  list.push(c) */\n      swap1\n      dup1\n      0x01\n      dup2\n      sload\n      add\n      dup1\n      dup3\n      sstore\n      dup1\n      swap2\n      pop\n      pop\n      0x01\n      swap1\n      sub\n      swap1\n      0x00\n      mstore\n      keccak256(0x00, 0x20)\n      swap1\n      0x08\n      mul\n      add\n      0x00\n      swap1\n      swap2\n      swap1\n      swap2\n      swap1\n      swap2\n      pop\n      0x00\n      dup3\n      add\n      mload\n      dup2\n      0x00\n      add\n      sstore\n      0x20\n      dup3\n      add\n      mload\n      dup2\n      0x01\n      add\n      swap1\n      dup1\n      mload\n      swap1\n      0x20\n      add\n      swap1\n      tag_161\n      swap3\n      swap2\n      swap1\n      tag_60\n      jump\t// in\n    tag_161:\n      pop\n      0x40\n      dup3\n      add\n      mload\n      dup2\n      0x02\n      add\n      sstore\n      0x60\n      dup3\n      add\n      mload\n      dup2\n      0x03\n      add\n      exp(0x0100, 0x00)\n      dup2\n      sload\n      dup2\n      0xffffffffffffffffffffffffffffffffffffffff\n      mul\n      not\n      and\n      swap1\n      dup4\n      0xffffffffffffffffffffffffffffffffffffffff\n      and\n      mul\n      or\n      swap1\n      sstore\n      pop\n      0x80\n      dup3\n      add\n      mload\n      dup2\n      0x04\n      add\n      exp(0x0100, 0x00)\n      dup2\n      sload\n      dup2\n      0xffffffffffffffffffffffffffffffffffffffff\n      mul\n      not\n      and\n      swap1\n      dup4\n      0xffffffffffffffffffffffffffffffffffffffff\n      and\n      mul\n      or\n      swap1\n      sstore\n      pop\n      0xa0\n      dup3\n      add\n      mload\n      dup2\n      0x05\n      add\n      sstore\n      0xc0\n      dup3\n      add\n      mload\n      dup2\n      0x06\n      add\n      sstore\n      0xe0\n      dup3\n      add\n      mload\n      dup2\n      0x07\n      add\n      sstore\n      pop\n      pop\n        /* \"crowdfunding.sol\":1614:1632  filterDataByStatus */\n      0x02\n        /* \"crowdfunding.sol\":1614:1635  filterDataByStatus[1] */\n      0x00\n        /* \"crowdfunding.sol\":1633:1634  1 */\n      0x01\n        /* \"crowdfunding.sol\":1614:1635  filterDataByStatus[1] */\n      dup2\n      mstore\n      0x20\n      add\n      swap1\n      dup2\n      mstore\n      0x20\n      add\n      0x00\n      keccak256\n        /* \"crowdfunding.sol\":1641:1642  c */\n      dup2\n        /* \"crowdfunding.sol\":1614:1643  filterDataByStatus[1].push(c) */\n      swap1\n      dup1\n      0x01\n      dup2\n      sload\n      add\n      dup1\n      dup3\n      sstore\n      dup1\n      swap2\n      pop\n      pop\n      0x01\n      swap1\n      sub\n      swap1\n      0x00\n      mstore\n      keccak256(0x00, 0x20)\n      swap1\n      0x08\n      mul\n      add\n      0x00\n      swap1\n      swap2\n      swap1\n      swap2\n      swap1\n      swap2\n      pop\n      0x00\n      dup3\n      add\n      mload\n      dup2\n      0x00\n      add\n      sstore\n      0x20\n      dup3\n      add\n      mload\n      dup2\n      0x01\n      add\n      swap1\n      dup1\n      mload\n      swap1\n      0x20\n      add\n      swap1\n      tag_163\n      swap3\n      swap2\n      swap1\n      tag_60\n      jump\t// in\n    tag_163:\n      pop\n      0x40\n      dup3\n      add\n      mload\n      dup2\n      0x02\n      add\n      sstore\n      0x60\n      dup3\n      add\n      mload\n      dup2\n      0x03\n      add\n      exp(0x0100, 0x00)\n      dup2\n      sload\n      dup2\n      0xffffffffffffffffffffffffffffffffffffffff\n      mul\n      not\n      and\n      swap1\n      dup4\n      0xffffffffffffffffffffffffffffffffffffffff\n      and\n      mul\n      or\n      swap1\n      sstore\n      pop\n      0x80\n      dup3\n      add\n      mload\n      dup2\n      0x04\n      add\n      exp(0x0100, 0x00)\n      dup2\n      sload\n      dup2\n      0xffffffffffffffffffffffffffffffffffffffff\n      mul\n      not\n      and\n      swap1\n      dup4\n      0xffffffffffffffffffffffffffffffffffffffff\n      and\n      mul\n      or\n      swap1\n      sstore\n      pop\n      0xa0\n      dup3\n      add\n      mload\n      dup2\n      0x05\n      add\n      sstore\n      0xc0\n      dup3\n      add\n      mload\n      dup2\n      0x06\n      add\n      sstore\n      0xe0\n      dup3\n      add\n      mload\n      dup2\n      0x07\n      add\n      sstore\n      pop\n      pop\n        /* \"crowdfunding.sol\":1654:1668  myCrowdfunding */\n      0x03\n        /* \"crowdfunding.sol\":1654:1680  myCrowdfunding[msg.sender] */\n      0x00\n        /* \"crowdfunding.sol\":1669:1679  msg.sender */\n      caller\n        /* \"crowdfunding.sol\":1654:1680  myCrowdfunding[msg.sender] */\n      0xffffffffffffffffffffffffffffffffffffffff\n      and\n      0xffffffffffffffffffffffffffffffffffffffff\n      and\n      dup2\n      mstore\n      0x20\n      add\n      swap1\n      dup2\n      mstore\n      0x20\n      add\n      0x00\n      keccak256\n        /* \"crowdfunding.sol\":1686:1687  c */\n      dup2\n        /* \"crowdfunding.sol\":1654:1688  myCrowdfunding[msg.sender].push(c) */\n      swap1\n      dup1\n      0x01\n      dup2\n      sload\n      add\n      dup1\n      dup3\n      sstore\n      dup1\n      swap2\n      pop\n      pop\n      0x01\n      swap1\n      sub\n      swap1\n      0x00\n      mstore\n      keccak256(0x00, 0x20)\n      swap1\n      0x08\n      mul\n      add\n      0x00\n      swap1\n      swap2\n      swap1\n      swap2\n      swap1\n      swap2\n      pop\n      0x00\n      dup3\n      add\n      mload\n      dup2\n      0x00\n      add\n      sstore\n      0x20\n      dup3\n      add\n      mload\n      dup2\n      0x01\n      add\n      swap1\n      dup1\n      mload\n      swap1\n      0x20\n      add\n      swap1\n      tag_165\n      swap3\n      swap2\n      swap1\n      tag_60\n      jump\t// in\n    tag_165:\n      pop\n      0x40\n      dup3\n      add\n      mload\n      dup2\n      0x02\n      add\n      sstore\n      0x60\n      dup3\n      add\n      mload\n      dup2\n      0x03\n      add\n      exp(0x0100, 0x00)\n      dup2\n      sload\n      dup2\n      0xffffffffffffffffffffffffffffffffffffffff\n      mul\n      not\n      and\n      swap1\n      dup4\n      0xffffffffffffffffffffffffffffffffffffffff\n      and\n      mul\n      or\n      swap1\n      sstore\n      pop\n      0x80\n      dup3\n      add\n      mload\n      dup2\n      0x04\n      add\n      exp(0x0100, 0x00)\n      dup2\n      sload\n      dup2\n      0xffffffffffffffffffffffffffffffffffffffff\n      mul\n      not\n      and\n      swap1\n      dup4\n      0xffffffffffffffffffffffffffffffffffffffff\n      and\n      mul\n      or\n      swap1\n      sstore\n      pop\n      0xa0\n      dup3\n      add\n      mload\n      dup2\n      0x05\n      add\n      sstore\n      0xc0\n      dup3\n      add\n      mload\n      dup2\n      0x06\n      add\n      sstore\n      0xe0\n      dup3\n      add\n      mload\n      dup2\n      0x07\n      add\n      sstore\n      pop\n      pop\n        /* \"crowdfunding.sol\":1186:1696  {\r... */\n      pop\n        /* \"crowdfunding.sol\":1091:1696  function createCrowdfunding(string memory _title,address _recipient, uint _expectAmout) public {\r... */\n      pop\n      pop\n      pop\n      jump\t// out\n    tag_60:\n      dup3\n      dup1\n      sload\n      tag_166\n      swap1\n      tag_47\n      jump\t// in\n    tag_166:\n      swap1\n      0x00\n      mstore\n      keccak256(0x00, 0x20)\n      swap1\n      0x1f\n      add\n      0x20\n      swap1\n      div\n      dup2\n      add\n      swap3\n      dup3\n      tag_168\n      jumpi\n      0x00\n      dup6\n      sstore\n      jump(tag_167)\n    tag_168:\n      dup3\n      0x1f\n      lt\n      tag_169\n      jumpi\n      dup1\n      mload\n      not(0xff)\n      and\n      dup4\n      dup1\n      add\n      or\n      dup6\n      sstore\n      jump(tag_167)\n    tag_169:\n      dup3\n      dup1\n      add\n      0x01\n      add\n      dup6\n      sstore\n      dup3\n      iszero\n      tag_167\n      jumpi\n      swap2\n      dup3\n      add\n    tag_170:\n      dup3\n      dup2\n      gt\n      iszero\n      tag_171\n      jumpi\n      dup3\n      mload\n      dup3\n      sstore\n      swap2\n      0x20\n      add\n      swap2\n      swap1\n      0x01\n      add\n      swap1\n      jump(tag_170)\n    tag_171:\n    tag_167:\n      pop\n      swap1\n      pop\n      tag_172\n      swap2\n      swap1\n      tag_173\n      jump\t// in\n    tag_172:\n      pop\n      swap1\n      jump\t// out\n    tag_101:\n      pop\n      dup1\n      sload\n      tag_174\n      swap1\n      tag_47\n      jump\t// in\n    tag_174:\n      0x00\n      dup3\n      sstore\n      dup1\n      0x1f\n      lt\n      tag_176\n      jumpi\n      pop\n      jump(tag_175)\n    tag_176:\n      0x1f\n      add\n      0x20\n      swap1\n      div\n      swap1\n      0x00\n      mstore\n      keccak256(0x00, 0x20)\n      swap1\n      dup2\n      add\n      swap1\n      tag_177\n      swap2\n      swap1\n      tag_173\n      jump\t// in\n    tag_177:\n    tag_175:\n      pop\n      jump\t// out\n    tag_120:\n      dup3\n      dup1\n      sload\n      tag_178\n      swap1\n      tag_47\n      jump\t// in\n    tag_178:\n      swap1\n      0x00\n      mstore\n      keccak256(0x00, 0x20)\n      swap1\n      0x1f\n      add\n      0x20\n      swap1\n      div\n      dup2\n      add\n      swap3\n      dup3\n      tag_180\n      jumpi\n      0x00\n      dup6\n      sstore\n      jump(tag_179)\n    tag_180:\n      dup3\n      0x1f\n      lt\n      tag_181\n      jumpi\n      dup1\n      sload\n      dup6\n      sstore\n      jump(tag_179)\n    tag_181:\n      dup3\n      dup1\n      add\n      0x01\n      add\n      dup6\n      sstore\n      dup3\n      iszero\n      tag_179\n      jumpi\n      0x00\n      mstore\n      keccak256(0x00, 0x20)\n      swap2\n      0x1f\n      add\n      0x20\n      swap1\n      div\n      dup3\n      add\n    tag_182:\n      dup3\n      dup2\n      gt\n      iszero\n      tag_183\n      jumpi\n      dup3\n      sload\n      dup3\n      sstore\n      swap2\n      0x01\n      add\n      swap2\n      swap1\n      0x01\n      add\n      swap1\n      jump(tag_182)\n    tag_183:\n    tag_179:\n      pop\n      swap1\n      pop\n      tag_184\n      swap2\n      swap1\n      tag_173\n      jump\t// in\n    tag_184:\n      pop\n      swap1\n      jump\t// out\n    tag_173:\n    tag_185:\n      dup1\n      dup3\n      gt\n      iszero\n      tag_186\n      jumpi\n      0x00\n      dup2\n      0x00\n      swap1\n      sstore\n      pop\n      0x01\n      add\n      jump(tag_185)\n    tag_186:\n      pop\n      swap1\n      jump\t// out\n        /* \"#utility.yul\":7:419   */\n    tag_188:\n        /* \"#utility.yul\":85:90   */\n      0x00\n        /* \"#utility.yul\":110:176   */\n      tag_190\n        /* \"#utility.yul\":126:175   */\n      tag_191\n        /* \"#utility.yul\":168:174   */\n      dup5\n        /* \"#utility.yul\":126:175   */\n      tag_192\n      jump\t// in\n    tag_191:\n        /* \"#utility.yul\":110:176   */\n      tag_193\n      jump\t// in\n    tag_190:\n        /* \"#utility.yul\":101:176   */\n      swap1\n      pop\n        /* \"#utility.yul\":199:205   */\n      dup3\n        /* \"#utility.yul\":192:197   */\n      dup2\n        /* \"#utility.yul\":185:206   */\n      mstore\n        /* \"#utility.yul\":237:241   */\n      0x20\n        /* \"#utility.yul\":230:235   */\n      dup2\n        /* \"#utility.yul\":226:242   */\n      add\n        /* \"#utility.yul\":275:278   */\n      dup5\n        /* \"#utility.yul\":266:272   */\n      dup5\n        /* \"#utility.yul\":261:264   */\n      dup5\n        /* \"#utility.yul\":257:273   */\n      add\n        /* \"#utility.yul\":254:279   */\n      gt\n        /* \"#utility.yul\":251:363   */\n      iszero\n      tag_194\n      jumpi\n        /* \"#utility.yul\":282:361   */\n      tag_195\n      tag_196\n      jump\t// in\n    tag_195:\n        /* \"#utility.yul\":251:363   */\n    tag_194:\n        /* \"#utility.yul\":372:413   */\n      tag_197\n        /* \"#utility.yul\":406:412   */\n      dup5\n        /* \"#utility.yul\":401:404   */\n      dup3\n        /* \"#utility.yul\":396:399   */\n      dup6\n        /* \"#utility.yul\":372:413   */\n      tag_198\n      jump\t// in\n    tag_197:\n        /* \"#utility.yul\":91:419   */\n      pop\n        /* \"#utility.yul\":7:419   */\n      swap4\n      swap3\n      pop\n      pop\n      pop\n      jump\t// out\n        /* \"#utility.yul\":425:564   */\n    tag_199:\n        /* \"#utility.yul\":471:476   */\n      0x00\n        /* \"#utility.yul\":509:515   */\n      dup2\n        /* \"#utility.yul\":496:516   */\n      calldataload\n        /* \"#utility.yul\":487:516   */\n      swap1\n      pop\n        /* \"#utility.yul\":525:558   */\n      tag_201\n        /* \"#utility.yul\":552:557   */\n      dup2\n        /* \"#utility.yul\":525:558   */\n      tag_202\n      jump\t// in\n    tag_201:\n        /* \"#utility.yul\":425:564   */\n      swap3\n      swap2\n      pop\n      pop\n      jump\t// out\n        /* \"#utility.yul\":584:924   */\n    tag_203:\n        /* \"#utility.yul\":640:645   */\n      0x00\n        /* \"#utility.yul\":689:692   */\n      dup3\n        /* \"#utility.yul\":682:686   */\n      0x1f\n        /* \"#utility.yul\":674:680   */\n      dup4\n        /* \"#utility.yul\":670:687   */\n      add\n        /* \"#utility.yul\":666:693   */\n      slt\n        /* \"#utility.yul\":656:778   */\n      tag_205\n      jumpi\n        /* \"#utility.yul\":697:776   */\n      tag_206\n      tag_207\n      jump\t// in\n    tag_206:\n        /* \"#utility.yul\":656:778   */\n    tag_205:\n        /* \"#utility.yul\":814:820   */\n      dup2\n        /* \"#utility.yul\":801:821   */\n      calldataload\n        /* \"#utility.yul\":839:918   */\n      tag_208\n        /* \"#utility.yul\":914:917   */\n      dup5\n        /* \"#utility.yul\":906:912   */\n      dup3\n        /* \"#utility.yul\":899:903   */\n      0x20\n        /* \"#utility.yul\":891:897   */\n      dup7\n        /* \"#utility.yul\":887:904   */\n      add\n        /* \"#utility.yul\":839:918   */\n      tag_188\n      jump\t// in\n    tag_208:\n        /* \"#utility.yul\":830:918   */\n      swap2\n      pop\n        /* \"#utility.yul\":646:924   */\n      pop\n        /* \"#utility.yul\":584:924   */\n      swap3\n      swap2\n      pop\n      pop\n      jump\t// out\n        /* \"#utility.yul\":930:1069   */\n    tag_209:\n        /* \"#utility.yul\":976:981   */\n      0x00\n        /* \"#utility.yul\":1014:1020   */\n      dup2\n        /* \"#utility.yul\":1001:1021   */\n      calldataload\n        /* \"#utility.yul\":992:1021   */\n      swap1\n      pop\n        /* \"#utility.yul\":1030:1063   */\n      tag_211\n        /* \"#utility.yul\":1057:1062   */\n      dup2\n        /* \"#utility.yul\":1030:1063   */\n      tag_212\n      jump\t// in\n    tag_211:\n        /* \"#utility.yul\":930:1069   */\n      swap3\n      swap2\n      pop\n      pop\n      jump\t// out\n        /* \"#utility.yul\":1075:1404   */\n    tag_13:\n        /* \"#utility.yul\":1134:1140   */\n      0x00\n        /* \"#utility.yul\":1183:1185   */\n      0x20\n        /* \"#utility.yul\":1171:1180   */\n      dup3\n        /* \"#utility.yul\":1162:1169   */\n      dup5\n        /* \"#utility.yul\":1158:1181   */\n      sub\n        /* \"#utility.yul\":1154:1186   */\n      slt\n        /* \"#utility.yul\":1151:1270   */\n      iszero\n      tag_214\n      jumpi\n        /* \"#utility.yul\":1189:1268   */\n      tag_215\n      tag_216\n      jump\t// in\n    tag_215:\n        /* \"#utility.yul\":1151:1270   */\n    tag_214:\n        /* \"#utility.yul\":1309:1310   */\n      0x00\n        /* \"#utility.yul\":1334:1387   */\n      tag_217\n        /* \"#utility.yul\":1379:1386   */\n      dup5\n        /* \"#utility.yul\":1370:1376   */\n      dup3\n        /* \"#utility.yul\":1359:1368   */\n      dup6\n        /* \"#utility.yul\":1355:1377   */\n      add\n        /* \"#utility.yul\":1334:1387   */\n      tag_199\n      jump\t// in\n    tag_217:\n        /* \"#utility.yul\":1324:1387   */\n      swap2\n      pop\n        /* \"#utility.yul\":1280:1397   */\n      pop\n        /* \"#utility.yul\":1075:1404   */\n      swap3\n      swap2\n      pop\n      pop\n      jump\t// out\n        /* \"#utility.yul\":1410:2209   */\n    tag_40:\n        /* \"#utility.yul\":1497:1503   */\n      0x00\n        /* \"#utility.yul\":1505:1511   */\n      dup1\n        /* \"#utility.yul\":1513:1519   */\n      0x00\n        /* \"#utility.yul\":1562:1564   */\n      0x60\n        /* \"#utility.yul\":1550:1559   */\n      dup5\n        /* \"#utility.yul\":1541:1548   */\n      dup7\n        /* \"#utility.yul\":1537:1560   */\n      sub\n        /* \"#utility.yul\":1533:1565   */\n      slt\n        /* \"#utility.yul\":1530:1649   */\n      iszero\n      tag_219\n      jumpi\n        /* \"#utility.yul\":1568:1647   */\n      tag_220\n      tag_216\n      jump\t// in\n    tag_220:\n        /* \"#utility.yul\":1530:1649   */\n    tag_219:\n        /* \"#utility.yul\":1716:1717   */\n      0x00\n        /* \"#utility.yul\":1705:1714   */\n      dup5\n        /* \"#utility.yul\":1701:1718   */\n      add\n        /* \"#utility.yul\":1688:1719   */\n      calldataload\n        /* \"#utility.yul\":1746:1764   */\n      0xffffffffffffffff\n        /* \"#utility.yul\":1738:1744   */\n      dup2\n        /* \"#utility.yul\":1735:1765   */\n      gt\n        /* \"#utility.yul\":1732:1849   */\n      iszero\n      tag_221\n      jumpi\n        /* \"#utility.yul\":1768:1847   */\n      tag_222\n      tag_223\n      jump\t// in\n    tag_222:\n        /* \"#utility.yul\":1732:1849   */\n    tag_221:\n        /* \"#utility.yul\":1873:1936   */\n      tag_224\n        /* \"#utility.yul\":1928:1935   */\n      dup7\n        /* \"#utility.yul\":1919:1925   */\n      dup3\n        /* \"#utility.yul\":1908:1917   */\n      dup8\n        /* \"#utility.yul\":1904:1926   */\n      add\n        /* \"#utility.yul\":1873:1936   */\n      tag_203\n      jump\t// in\n    tag_224:\n        /* \"#utility.yul\":1863:1936   */\n      swap4\n      pop\n        /* \"#utility.yul\":1659:1946   */\n      pop\n        /* \"#utility.yul\":1985:1987   */\n      0x20\n        /* \"#utility.yul\":2011:2064   */\n      tag_225\n        /* \"#utility.yul\":2056:2063   */\n      dup7\n        /* \"#utility.yul\":2047:2053   */\n      dup3\n        /* \"#utility.yul\":2036:2045   */\n      dup8\n        /* \"#utility.yul\":2032:2054   */\n      add\n        /* \"#utility.yul\":2011:2064   */\n      tag_199\n      jump\t// in\n    tag_225:\n        /* \"#utility.yul\":2001:2064   */\n      swap3\n      pop\n        /* \"#utility.yul\":1956:2074   */\n      pop\n        /* \"#utility.yul\":2113:2115   */\n      0x40\n        /* \"#utility.yul\":2139:2192   */\n      tag_226\n        /* \"#utility.yul\":2184:2191   */\n      dup7\n        /* \"#utility.yul\":2175:2181   */\n      dup3\n        /* \"#utility.yul\":2164:2173   */\n      dup8\n        /* \"#utility.yul\":2160:2182   */\n      add\n        /* \"#utility.yul\":2139:2192   */\n      tag_209\n      jump\t// in\n    tag_226:\n        /* \"#utility.yul\":2129:2192   */\n      swap2\n      pop\n        /* \"#utility.yul\":2084:2202   */\n      pop\n        /* \"#utility.yul\":1410:2209   */\n      swap3\n      pop\n      swap3\n      pop\n      swap3\n      jump\t// out\n        /* \"#utility.yul\":2215:2544   */\n    tag_27:\n        /* \"#utility.yul\":2274:2280   */\n      0x00\n        /* \"#utility.yul\":2323:2325   */\n      0x20\n        /* \"#utility.yul\":2311:2320   */\n      dup3\n        /* \"#utility.yul\":2302:2309   */\n      dup5\n        /* \"#utility.yul\":2298:2321   */\n      sub\n        /* \"#utility.yul\":2294:2326   */\n      slt\n        /* \"#utility.yul\":2291:2410   */\n      iszero\n      tag_228\n      jumpi\n        /* \"#utility.yul\":2329:2408   */\n      tag_229\n      tag_216\n      jump\t// in\n    tag_229:\n        /* \"#utility.yul\":2291:2410   */\n    tag_228:\n        /* \"#utility.yul\":2449:2450   */\n      0x00\n        /* \"#utility.yul\":2474:2527   */\n      tag_230\n        /* \"#utility.yul\":2519:2526   */\n      dup5\n        /* \"#utility.yul\":2510:2516   */\n      dup3\n        /* \"#utility.yul\":2499:2508   */\n      dup6\n        /* \"#utility.yul\":2495:2517   */\n      add\n        /* \"#utility.yul\":2474:2527   */\n      tag_209\n      jump\t// in\n    tag_230:\n        /* \"#utility.yul\":2464:2527   */\n      swap2\n      pop\n        /* \"#utility.yul\":2420:2537   */\n      pop\n        /* \"#utility.yul\":2215:2544   */\n      swap3\n      swap2\n      pop\n      pop\n      jump\t// out\n        /* \"#utility.yul\":2550:3204   */\n    tag_19:\n        /* \"#utility.yul\":2628:2634   */\n      0x00\n        /* \"#utility.yul\":2636:2642   */\n      dup1\n        /* \"#utility.yul\":2685:2687   */\n      0x40\n        /* \"#utility.yul\":2673:2682   */\n      dup4\n        /* \"#utility.yul\":2664:2671   */\n      dup6\n        /* \"#utility.yul\":2660:2683   */\n      sub\n        /* \"#utility.yul\":2656:2688   */\n      slt\n        /* \"#utility.yul\":2653:2772   */\n      iszero\n      tag_232\n      jumpi\n        /* \"#utility.yul\":2691:2770   */\n      tag_233\n      tag_216\n      jump\t// in\n    tag_233:\n        /* \"#utility.yul\":2653:2772   */\n    tag_232:\n        /* \"#utility.yul\":2811:2812   */\n      0x00\n        /* \"#utility.yul\":2836:2889   */\n      tag_234\n        /* \"#utility.yul\":2881:2888   */\n      dup6\n        /* \"#utility.yul\":2872:2878   */\n      dup3\n        /* \"#utility.yul\":2861:2870   */\n      dup7\n        /* \"#utility.yul\":2857:2879   */\n      add\n        /* \"#utility.yul\":2836:2889   */\n      tag_209\n      jump\t// in\n    tag_234:\n        /* \"#utility.yul\":2826:2889   */\n      swap3\n      pop\n        /* \"#utility.yul\":2782:2899   */\n      pop\n        /* \"#utility.yul\":2966:2968   */\n      0x20\n        /* \"#utility.yul\":2955:2964   */\n      dup4\n        /* \"#utility.yul\":2951:2969   */\n      add\n        /* \"#utility.yul\":2938:2970   */\n      calldataload\n        /* \"#utility.yul\":2997:3015   */\n      0xffffffffffffffff\n        /* \"#utility.yul\":2989:2995   */\n      dup2\n        /* \"#utility.yul\":2986:3016   */\n      gt\n        /* \"#utility.yul\":2983:3100   */\n      iszero\n      tag_235\n      jumpi\n        /* \"#utility.yul\":3019:3098   */\n      tag_236\n      tag_223\n      jump\t// in\n    tag_236:\n        /* \"#utility.yul\":2983:3100   */\n    tag_235:\n        /* \"#utility.yul\":3124:3187   */\n      tag_237\n        /* \"#utility.yul\":3179:3186   */\n      dup6\n        /* \"#utility.yul\":3170:3176   */\n      dup3\n        /* \"#utility.yul\":3159:3168   */\n      dup7\n        /* \"#utility.yul\":3155:3177   */\n      add\n        /* \"#utility.yul\":3124:3187   */\n      tag_203\n      jump\t// in\n    tag_237:\n        /* \"#utility.yul\":3114:3187   */\n      swap2\n      pop\n        /* \"#utility.yul\":2909:3197   */\n      pop\n        /* \"#utility.yul\":2550:3204   */\n      swap3\n      pop\n      swap3\n      swap1\n      pop\n      jump\t// out\n        /* \"#utility.yul\":3210:3829   */\n    tag_23:\n        /* \"#utility.yul\":3287:3293   */\n      0x00\n        /* \"#utility.yul\":3295:3301   */\n      dup1\n        /* \"#utility.yul\":3303:3309   */\n      0x00\n        /* \"#utility.yul\":3352:3354   */\n      0x60\n        /* \"#utility.yul\":3340:3349   */\n      dup5\n        /* \"#utility.yul\":3331:3338   */\n      dup7\n        /* \"#utility.yul\":3327:3350   */\n      sub\n        /* \"#utility.yul\":3323:3355   */\n      slt\n        /* \"#utility.yul\":3320:3439   */\n      iszero\n      tag_239\n      jumpi\n        /* \"#utility.yul\":3358:3437   */\n      tag_240\n      tag_216\n      jump\t// in\n    tag_240:\n        /* \"#utility.yul\":3320:3439   */\n    tag_239:\n        /* \"#utility.yul\":3478:3479   */\n      0x00\n        /* \"#utility.yul\":3503:3556   */\n      tag_241\n        /* \"#utility.yul\":3548:3555   */\n      dup7\n        /* \"#utility.yul\":3539:3545   */\n      dup3\n        /* \"#utility.yul\":3528:3537   */\n      dup8\n        /* \"#utility.yul\":3524:3546   */\n      add\n        /* \"#utility.yul\":3503:3556   */\n      tag_209\n      jump\t// in\n    tag_241:\n        /* \"#utility.yul\":3493:3556   */\n      swap4\n      pop\n        /* \"#utility.yul\":3449:3566   */\n      pop\n        /* \"#utility.yul\":3605:3607   */\n      0x20\n        /* \"#utility.yul\":3631:3684   */\n      tag_242\n        /* \"#utility.yul\":3676:3683   */\n      dup7\n        /* \"#utility.yul\":3667:3673   */\n      dup3\n        /* \"#utility.yul\":3656:3665   */\n      dup8\n        /* \"#utility.yul\":3652:3674   */\n      add\n        /* \"#utility.yul\":3631:3684   */\n      tag_209\n      jump\t// in\n    tag_242:\n        /* \"#utility.yul\":3621:3684   */\n      swap3\n      pop\n        /* \"#utility.yul\":3576:3694   */\n      pop\n        /* \"#utility.yul\":3733:3735   */\n      0x40\n        /* \"#utility.yul\":3759:3812   */\n      tag_243\n        /* \"#utility.yul\":3804:3811   */\n      dup7\n        /* \"#utility.yul\":3795:3801   */\n      dup3\n        /* \"#utility.yul\":3784:3793   */\n      dup8\n        /* \"#utility.yul\":3780:3802   */\n      add\n        /* \"#utility.yul\":3759:3812   */\n      tag_199\n      jump\t// in\n    tag_243:\n        /* \"#utility.yul\":3749:3812   */\n      swap2\n      pop\n        /* \"#utility.yul\":3704:3822   */\n      pop\n        /* \"#utility.yul\":3210:3829   */\n      swap3\n      pop\n      swap3\n      pop\n      swap3\n      jump\t// out\n        /* \"#utility.yul\":3835:4103   */\n    tag_244:\n        /* \"#utility.yul\":3960:3970   */\n      0x00\n        /* \"#utility.yul\":3995:4097   */\n      tag_246\n        /* \"#utility.yul\":4093:4096   */\n      dup4\n        /* \"#utility.yul\":4085:4091   */\n      dup4\n        /* \"#utility.yul\":3995:4097   */\n      tag_247\n      jump\t// in\n    tag_246:\n        /* \"#utility.yul\":3981:4097   */\n      swap1\n      pop\n        /* \"#utility.yul\":3835:4103   */\n      swap3\n      swap2\n      pop\n      pop\n      jump\t// out\n        /* \"#utility.yul\":4109:4217   */\n    tag_248:\n        /* \"#utility.yul\":4186:4210   */\n      tag_250\n        /* \"#utility.yul\":4204:4209   */\n      dup2\n        /* \"#utility.yul\":4186:4210   */\n      tag_251\n      jump\t// in\n    tag_250:\n        /* \"#utility.yul\":4181:4184   */\n      dup3\n        /* \"#utility.yul\":4174:4211   */\n      mstore\n        /* \"#utility.yul\":4109:4217   */\n      pop\n      pop\n      jump\t// out\n        /* \"#utility.yul\":4223:4341   */\n    tag_252:\n        /* \"#utility.yul\":4310:4334   */\n      tag_254\n        /* \"#utility.yul\":4328:4333   */\n      dup2\n        /* \"#utility.yul\":4310:4334   */\n      tag_251\n      jump\t// in\n    tag_254:\n        /* \"#utility.yul\":4305:4308   */\n      dup3\n        /* \"#utility.yul\":4298:4335   */\n      mstore\n        /* \"#utility.yul\":4223:4341   */\n      pop\n      pop\n      jump\t// out\n        /* \"#utility.yul\":4443:5578   */\n    tag_255:\n        /* \"#utility.yul\":4618:4621   */\n      0x00\n        /* \"#utility.yul\":4647:4729   */\n      tag_257\n        /* \"#utility.yul\":4723:4728   */\n      dup3\n        /* \"#utility.yul\":4647:4729   */\n      tag_258\n      jump\t// in\n    tag_257:\n        /* \"#utility.yul\":4745:4859   */\n      tag_259\n        /* \"#utility.yul\":4852:4858   */\n      dup2\n        /* \"#utility.yul\":4847:4850   */\n      dup6\n        /* \"#utility.yul\":4745:4859   */\n      tag_260\n      jump\t// in\n    tag_259:\n        /* \"#utility.yul\":4738:4859   */\n      swap4\n      pop\n        /* \"#utility.yul\":4885:4888   */\n      dup4\n        /* \"#utility.yul\":4930:4934   */\n      0x20\n        /* \"#utility.yul\":4922:4928   */\n      dup3\n        /* \"#utility.yul\":4918:4935   */\n      mul\n        /* \"#utility.yul\":4913:4916   */\n      dup6\n        /* \"#utility.yul\":4909:4936   */\n      add\n        /* \"#utility.yul\":4960:5044   */\n      tag_261\n        /* \"#utility.yul\":5038:5043   */\n      dup6\n        /* \"#utility.yul\":4960:5044   */\n      tag_262\n      jump\t// in\n    tag_261:\n        /* \"#utility.yul\":5067:5074   */\n      dup1\n        /* \"#utility.yul\":5098:5099   */\n      0x00\n        /* \"#utility.yul\":5083:5533   */\n    tag_263:\n        /* \"#utility.yul\":5108:5114   */\n      dup6\n        /* \"#utility.yul\":5105:5106   */\n      dup2\n        /* \"#utility.yul\":5102:5115   */\n      lt\n        /* \"#utility.yul\":5083:5533   */\n      iszero\n      tag_265\n      jumpi\n        /* \"#utility.yul\":5179:5188   */\n      dup5\n        /* \"#utility.yul\":5173:5177   */\n      dup5\n        /* \"#utility.yul\":5169:5189   */\n      sub\n        /* \"#utility.yul\":5164:5167   */\n      dup10\n        /* \"#utility.yul\":5157:5190   */\n      mstore\n        /* \"#utility.yul\":5230:5236   */\n      dup2\n        /* \"#utility.yul\":5224:5237   */\n      mload\n        /* \"#utility.yul\":5258:5378   */\n      tag_266\n        /* \"#utility.yul\":5373:5377   */\n      dup6\n        /* \"#utility.yul\":5358:5371   */\n      dup3\n        /* \"#utility.yul\":5258:5378   */\n      tag_244\n      jump\t// in\n    tag_266:\n        /* \"#utility.yul\":5250:5378   */\n      swap5\n      pop\n        /* \"#utility.yul\":5401:5489   */\n      tag_267\n        /* \"#utility.yul\":5482:5488   */\n      dup4\n        /* \"#utility.yul\":5401:5489   */\n      tag_268\n      jump\t// in\n    tag_267:\n        /* \"#utility.yul\":5391:5489   */\n      swap3\n      pop\n        /* \"#utility.yul\":5518:5522   */\n      0x20\n        /* \"#utility.yul\":5513:5516   */\n      dup11\n        /* \"#utility.yul\":5509:5523   */\n      add\n        /* \"#utility.yul\":5502:5523   */\n      swap10\n      pop\n        /* \"#utility.yul\":5143:5533   */\n      pop\n        /* \"#utility.yul\":5130:5131   */\n      0x01\n        /* \"#utility.yul\":5127:5128   */\n      dup2\n        /* \"#utility.yul\":5123:5132   */\n      add\n        /* \"#utility.yul\":5118:5132   */\n      swap1\n      pop\n        /* \"#utility.yul\":5083:5533   */\n      jump(tag_263)\n    tag_265:\n        /* \"#utility.yul\":5087:5101   */\n      pop\n        /* \"#utility.yul\":5549:5553   */\n      dup3\n        /* \"#utility.yul\":5542:5553   */\n      swap8\n      pop\n        /* \"#utility.yul\":5569:5572   */\n      dup8\n        /* \"#utility.yul\":5562:5572   */\n      swap6\n      pop\n        /* \"#utility.yul\":4623:5578   */\n      pop\n      pop\n      pop\n      pop\n      pop\n        /* \"#utility.yul\":4443:5578   */\n      swap3\n      swap2\n      pop\n      pop\n      jump\t// out\n        /* \"#utility.yul\":5584:5928   */\n    tag_269:\n        /* \"#utility.yul\":5662:5665   */\n      0x00\n        /* \"#utility.yul\":5690:5729   */\n      tag_271\n        /* \"#utility.yul\":5723:5728   */\n      dup3\n        /* \"#utility.yul\":5690:5729   */\n      tag_272\n      jump\t// in\n    tag_271:\n        /* \"#utility.yul\":5745:5806   */\n      tag_273\n        /* \"#utility.yul\":5799:5805   */\n      dup2\n        /* \"#utility.yul\":5794:5797   */\n      dup6\n        /* \"#utility.yul\":5745:5806   */\n      tag_274\n      jump\t// in\n    tag_273:\n        /* \"#utility.yul\":5738:5806   */\n      swap4\n      pop\n        /* \"#utility.yul\":5815:5867   */\n      tag_275\n        /* \"#utility.yul\":5860:5866   */\n      dup2\n        /* \"#utility.yul\":5855:5858   */\n      dup6\n        /* \"#utility.yul\":5848:5852   */\n      0x20\n        /* \"#utility.yul\":5841:5846   */\n      dup7\n        /* \"#utility.yul\":5837:5853   */\n      add\n        /* \"#utility.yul\":5815:5867   */\n      tag_276\n      jump\t// in\n    tag_275:\n        /* \"#utility.yul\":5892:5921   */\n      tag_277\n        /* \"#utility.yul\":5914:5920   */\n      dup2\n        /* \"#utility.yul\":5892:5921   */\n      tag_278\n      jump\t// in\n    tag_277:\n        /* \"#utility.yul\":5887:5890   */\n      dup5\n        /* \"#utility.yul\":5883:5922   */\n      add\n        /* \"#utility.yul\":5876:5922   */\n      swap2\n      pop\n        /* \"#utility.yul\":5666:5928   */\n      pop\n        /* \"#utility.yul\":5584:5928   */\n      swap3\n      swap2\n      pop\n      pop\n      jump\t// out\n        /* \"#utility.yul\":5934:6298   */\n    tag_279:\n        /* \"#utility.yul\":6022:6025   */\n      0x00\n        /* \"#utility.yul\":6050:6089   */\n      tag_281\n        /* \"#utility.yul\":6083:6088   */\n      dup3\n        /* \"#utility.yul\":6050:6089   */\n      tag_272\n      jump\t// in\n    tag_281:\n        /* \"#utility.yul\":6105:6176   */\n      tag_282\n        /* \"#utility.yul\":6169:6175   */\n      dup2\n        /* \"#utility.yul\":6164:6167   */\n      dup6\n        /* \"#utility.yul\":6105:6176   */\n      tag_283\n      jump\t// in\n    tag_282:\n        /* \"#utility.yul\":6098:6176   */\n      swap4\n      pop\n        /* \"#utility.yul\":6185:6237   */\n      tag_284\n        /* \"#utility.yul\":6230:6236   */\n      dup2\n        /* \"#utility.yul\":6225:6228   */\n      dup6\n        /* \"#utility.yul\":6218:6222   */\n      0x20\n        /* \"#utility.yul\":6211:6216   */\n      dup7\n        /* \"#utility.yul\":6207:6223   */\n      add\n        /* \"#utility.yul\":6185:6237   */\n      tag_276\n      jump\t// in\n    tag_284:\n        /* \"#utility.yul\":6262:6291   */\n      tag_285\n        /* \"#utility.yul\":6284:6290   */\n      dup2\n        /* \"#utility.yul\":6262:6291   */\n      tag_278\n      jump\t// in\n    tag_285:\n        /* \"#utility.yul\":6257:6260   */\n      dup5\n        /* \"#utility.yul\":6253:6292   */\n      add\n        /* \"#utility.yul\":6246:6292   */\n      swap2\n      pop\n        /* \"#utility.yul\":6026:6298   */\n      pop\n        /* \"#utility.yul\":5934:6298   */\n      swap3\n      swap2\n      pop\n      pop\n      jump\t// out\n        /* \"#utility.yul\":6396:8072   */\n    tag_247:\n        /* \"#utility.yul\":6511:6514   */\n      0x00\n        /* \"#utility.yul\":6547:6553   */\n      0x0100\n        /* \"#utility.yul\":6542:6545   */\n      dup4\n        /* \"#utility.yul\":6538:6554   */\n      add\n        /* \"#utility.yul\":6635:6639   */\n      0x00\n        /* \"#utility.yul\":6628:6633   */\n      dup4\n        /* \"#utility.yul\":6624:6640   */\n      add\n        /* \"#utility.yul\":6618:6641   */\n      mload\n        /* \"#utility.yul\":6654:6717   */\n      tag_287\n        /* \"#utility.yul\":6711:6715   */\n      0x00\n        /* \"#utility.yul\":6706:6709   */\n      dup7\n        /* \"#utility.yul\":6702:6716   */\n      add\n        /* \"#utility.yul\":6688:6700   */\n      dup3\n        /* \"#utility.yul\":6654:6717   */\n      tag_288\n      jump\t// in\n    tag_287:\n        /* \"#utility.yul\":6564:6727   */\n      pop\n        /* \"#utility.yul\":6810:6814   */\n      0x20\n        /* \"#utility.yul\":6803:6808   */\n      dup4\n        /* \"#utility.yul\":6799:6815   */\n      add\n        /* \"#utility.yul\":6793:6816   */\n      mload\n        /* \"#utility.yul\":6863:6866   */\n      dup5\n        /* \"#utility.yul\":6857:6861   */\n      dup3\n        /* \"#utility.yul\":6853:6867   */\n      sub\n        /* \"#utility.yul\":6846:6850   */\n      0x20\n        /* \"#utility.yul\":6841:6844   */\n      dup7\n        /* \"#utility.yul\":6837:6851   */\n      add\n        /* \"#utility.yul\":6830:6868   */\n      mstore\n        /* \"#utility.yul\":6889:6962   */\n      tag_289\n        /* \"#utility.yul\":6957:6961   */\n      dup3\n        /* \"#utility.yul\":6943:6955   */\n      dup3\n        /* \"#utility.yul\":6889:6962   */\n      tag_269\n      jump\t// in\n    tag_289:\n        /* \"#utility.yul\":6881:6962   */\n      swap2\n      pop\n        /* \"#utility.yul\":6737:6973   */\n      pop\n        /* \"#utility.yul\":7057:7061   */\n      0x40\n        /* \"#utility.yul\":7050:7055   */\n      dup4\n        /* \"#utility.yul\":7046:7062   */\n      add\n        /* \"#utility.yul\":7040:7063   */\n      mload\n        /* \"#utility.yul\":7076:7139   */\n      tag_290\n        /* \"#utility.yul\":7133:7137   */\n      0x40\n        /* \"#utility.yul\":7128:7131   */\n      dup7\n        /* \"#utility.yul\":7124:7138   */\n      add\n        /* \"#utility.yul\":7110:7122   */\n      dup3\n        /* \"#utility.yul\":7076:7139   */\n      tag_288\n      jump\t// in\n    tag_290:\n        /* \"#utility.yul\":6983:7149   */\n      pop\n        /* \"#utility.yul\":7234:7238   */\n      0x60\n        /* \"#utility.yul\":7227:7232   */\n      dup4\n        /* \"#utility.yul\":7223:7239   */\n      add\n        /* \"#utility.yul\":7217:7240   */\n      mload\n        /* \"#utility.yul\":7253:7316   */\n      tag_291\n        /* \"#utility.yul\":7310:7314   */\n      0x60\n        /* \"#utility.yul\":7305:7308   */\n      dup7\n        /* \"#utility.yul\":7301:7315   */\n      add\n        /* \"#utility.yul\":7287:7299   */\n      dup3\n        /* \"#utility.yul\":7253:7316   */\n      tag_248\n      jump\t// in\n    tag_291:\n        /* \"#utility.yul\":7159:7326   */\n      pop\n        /* \"#utility.yul\":7413:7417   */\n      0x80\n        /* \"#utility.yul\":7406:7411   */\n      dup4\n        /* \"#utility.yul\":7402:7418   */\n      add\n        /* \"#utility.yul\":7396:7419   */\n      mload\n        /* \"#utility.yul\":7432:7495   */\n      tag_292\n        /* \"#utility.yul\":7489:7493   */\n      0x80\n        /* \"#utility.yul\":7484:7487   */\n      dup7\n        /* \"#utility.yul\":7480:7494   */\n      add\n        /* \"#utility.yul\":7466:7478   */\n      dup3\n        /* \"#utility.yul\":7432:7495   */\n      tag_248\n      jump\t// in\n    tag_292:\n        /* \"#utility.yul\":7336:7505   */\n      pop\n        /* \"#utility.yul\":7590:7594   */\n      0xa0\n        /* \"#utility.yul\":7583:7588   */\n      dup4\n        /* \"#utility.yul\":7579:7595   */\n      add\n        /* \"#utility.yul\":7573:7596   */\n      mload\n        /* \"#utility.yul\":7609:7672   */\n      tag_293\n        /* \"#utility.yul\":7666:7670   */\n      0xa0\n        /* \"#utility.yul\":7661:7664   */\n      dup7\n        /* \"#utility.yul\":7657:7671   */\n      add\n        /* \"#utility.yul\":7643:7655   */\n      dup3\n        /* \"#utility.yul\":7609:7672   */\n      tag_288\n      jump\t// in\n    tag_293:\n        /* \"#utility.yul\":7515:7682   */\n      pop\n        /* \"#utility.yul\":7771:7775   */\n      0xc0\n        /* \"#utility.yul\":7764:7769   */\n      dup4\n        /* \"#utility.yul\":7760:7776   */\n      add\n        /* \"#utility.yul\":7754:7777   */\n      mload\n        /* \"#utility.yul\":7790:7853   */\n      tag_294\n        /* \"#utility.yul\":7847:7851   */\n      0xc0\n        /* \"#utility.yul\":7842:7845   */\n      dup7\n        /* \"#utility.yul\":7838:7852   */\n      add\n        /* \"#utility.yul\":7824:7836   */\n      dup3\n        /* \"#utility.yul\":7790:7853   */\n      tag_288\n      jump\t// in\n    tag_294:\n        /* \"#utility.yul\":7692:7863   */\n      pop\n        /* \"#utility.yul\":7953:7957   */\n      0xe0\n        /* \"#utility.yul\":7946:7951   */\n      dup4\n        /* \"#utility.yul\":7942:7958   */\n      add\n        /* \"#utility.yul\":7936:7959   */\n      mload\n        /* \"#utility.yul\":7972:8035   */\n      tag_295\n        /* \"#utility.yul\":8029:8033   */\n      0xe0\n        /* \"#utility.yul\":8024:8027   */\n      dup7\n        /* \"#utility.yul\":8020:8034   */\n      add\n        /* \"#utility.yul\":8006:8018   */\n      dup3\n        /* \"#utility.yul\":7972:8035   */\n      tag_288\n      jump\t// in\n    tag_295:\n        /* \"#utility.yul\":7873:8045   */\n      pop\n        /* \"#utility.yul\":8062:8066   */\n      dup1\n        /* \"#utility.yul\":8055:8066   */\n      swap2\n      pop\n        /* \"#utility.yul\":6516:8072   */\n      pop\n        /* \"#utility.yul\":6396:8072   */\n      swap3\n      swap2\n      pop\n      pop\n      jump\t// out\n        /* \"#utility.yul\":8078:8186   */\n    tag_288:\n        /* \"#utility.yul\":8155:8179   */\n      tag_297\n        /* \"#utility.yul\":8173:8178   */\n      dup2\n        /* \"#utility.yul\":8155:8179   */\n      tag_298\n      jump\t// in\n    tag_297:\n        /* \"#utility.yul\":8150:8153   */\n      dup3\n        /* \"#utility.yul\":8143:8180   */\n      mstore\n        /* \"#utility.yul\":8078:8186   */\n      pop\n      pop\n      jump\t// out\n        /* \"#utility.yul\":8192:8310   */\n    tag_299:\n        /* \"#utility.yul\":8279:8303   */\n      tag_301\n        /* \"#utility.yul\":8297:8302   */\n      dup2\n        /* \"#utility.yul\":8279:8303   */\n      tag_298\n      jump\t// in\n    tag_301:\n        /* \"#utility.yul\":8274:8277   */\n      dup3\n        /* \"#utility.yul\":8267:8304   */\n      mstore\n        /* \"#utility.yul\":8192:8310   */\n      pop\n      pop\n      jump\t// out\n        /* \"#utility.yul\":8316:8801   */\n    tag_16:\n        /* \"#utility.yul\":8515:8519   */\n      0x00\n        /* \"#utility.yul\":8553:8555   */\n      0x20\n        /* \"#utility.yul\":8542:8551   */\n      dup3\n        /* \"#utility.yul\":8538:8556   */\n      add\n        /* \"#utility.yul\":8530:8556   */\n      swap1\n      pop\n        /* \"#utility.yul\":8602:8611   */\n      dup2\n        /* \"#utility.yul\":8596:8600   */\n      dup2\n        /* \"#utility.yul\":8592:8612   */\n      sub\n        /* \"#utility.yul\":8588:8589   */\n      0x00\n        /* \"#utility.yul\":8577:8586   */\n      dup4\n        /* \"#utility.yul\":8573:8590   */\n      add\n        /* \"#utility.yul\":8566:8613   */\n      mstore\n        /* \"#utility.yul\":8630:8794   */\n      tag_303\n        /* \"#utility.yul\":8789:8793   */\n      dup2\n        /* \"#utility.yul\":8780:8786   */\n      dup5\n        /* \"#utility.yul\":8630:8794   */\n      tag_255\n      jump\t// in\n    tag_303:\n        /* \"#utility.yul\":8622:8794   */\n      swap1\n      pop\n        /* \"#utility.yul\":8316:8801   */\n      swap3\n      swap2\n      pop\n      pop\n      jump\t// out\n        /* \"#utility.yul\":8807:9895   */\n    tag_33:\n        /* \"#utility.yul\":9116:9120   */\n      0x00\n        /* \"#utility.yul\":9154:9157   */\n      0x0100\n        /* \"#utility.yul\":9143:9152   */\n      dup3\n        /* \"#utility.yul\":9139:9158   */\n      add\n        /* \"#utility.yul\":9131:9158   */\n      swap1\n      pop\n        /* \"#utility.yul\":9168:9239   */\n      tag_305\n        /* \"#utility.yul\":9236:9237   */\n      0x00\n        /* \"#utility.yul\":9225:9234   */\n      dup4\n        /* \"#utility.yul\":9221:9238   */\n      add\n        /* \"#utility.yul\":9212:9218   */\n      dup12\n        /* \"#utility.yul\":9168:9239   */\n      tag_299\n      jump\t// in\n    tag_305:\n        /* \"#utility.yul\":9286:9295   */\n      dup2\n        /* \"#utility.yul\":9280:9284   */\n      dup2\n        /* \"#utility.yul\":9276:9296   */\n      sub\n        /* \"#utility.yul\":9271:9273   */\n      0x20\n        /* \"#utility.yul\":9260:9269   */\n      dup4\n        /* \"#utility.yul\":9256:9274   */\n      add\n        /* \"#utility.yul\":9249:9297   */\n      mstore\n        /* \"#utility.yul\":9314:9392   */\n      tag_306\n        /* \"#utility.yul\":9387:9391   */\n      dup2\n        /* \"#utility.yul\":9378:9384   */\n      dup11\n        /* \"#utility.yul\":9314:9392   */\n      tag_279\n      jump\t// in\n    tag_306:\n        /* \"#utility.yul\":9306:9392   */\n      swap1\n      pop\n        /* \"#utility.yul\":9402:9474   */\n      tag_307\n        /* \"#utility.yul\":9470:9472   */\n      0x40\n        /* \"#utility.yul\":9459:9468   */\n      dup4\n        /* \"#utility.yul\":9455:9473   */\n      add\n        /* \"#utility.yul\":9446:9452   */\n      dup10\n        /* \"#utility.yul\":9402:9474   */\n      tag_299\n      jump\t// in\n    tag_307:\n        /* \"#utility.yul\":9484:9556   */\n      tag_308\n        /* \"#utility.yul\":9552:9554   */\n      0x60\n        /* \"#utility.yul\":9541:9550   */\n      dup4\n        /* \"#utility.yul\":9537:9555   */\n      add\n        /* \"#utility.yul\":9528:9534   */\n      dup9\n        /* \"#utility.yul\":9484:9556   */\n      tag_252\n      jump\t// in\n    tag_308:\n        /* \"#utility.yul\":9566:9639   */\n      tag_309\n        /* \"#utility.yul\":9634:9637   */\n      0x80\n        /* \"#utility.yul\":9623:9632   */\n      dup4\n        /* \"#utility.yul\":9619:9638   */\n      add\n        /* \"#utility.yul\":9610:9616   */\n      dup8\n        /* \"#utility.yul\":9566:9639   */\n      tag_252\n      jump\t// in\n    tag_309:\n        /* \"#utility.yul\":9649:9722   */\n      tag_310\n        /* \"#utility.yul\":9717:9720   */\n      0xa0\n        /* \"#utility.yul\":9706:9715   */\n      dup4\n        /* \"#utility.yul\":9702:9721   */\n      add\n        /* \"#utility.yul\":9693:9699   */\n      dup7\n        /* \"#utility.yul\":9649:9722   */\n      tag_299\n      jump\t// in\n    tag_310:\n        /* \"#utility.yul\":9732:9805   */\n      tag_311\n        /* \"#utility.yul\":9800:9803   */\n      0xc0\n        /* \"#utility.yul\":9789:9798   */\n      dup4\n        /* \"#utility.yul\":9785:9804   */\n      add\n        /* \"#utility.yul\":9776:9782   */\n      dup6\n        /* \"#utility.yul\":9732:9805   */\n      tag_299\n      jump\t// in\n    tag_311:\n        /* \"#utility.yul\":9815:9888   */\n      tag_312\n        /* \"#utility.yul\":9883:9886   */\n      0xe0\n        /* \"#utility.yul\":9872:9881   */\n      dup4\n        /* \"#utility.yul\":9868:9887   */\n      add\n        /* \"#utility.yul\":9859:9865   */\n      dup5\n        /* \"#utility.yul\":9815:9888   */\n      tag_299\n      jump\t// in\n    tag_312:\n        /* \"#utility.yul\":8807:9895   */\n      swap10\n      swap9\n      pop\n      pop\n      pop\n      pop\n      pop\n      pop\n      pop\n      pop\n      pop\n      jump\t// out\n        /* \"#utility.yul\":9901:10030   */\n    tag_193:\n        /* \"#utility.yul\":9935:9941   */\n      0x00\n        /* \"#utility.yul\":9962:9982   */\n      tag_314\n      tag_315\n      jump\t// in\n    tag_314:\n        /* \"#utility.yul\":9952:9982   */\n      swap1\n      pop\n        /* \"#utility.yul\":9991:10024   */\n      tag_316\n        /* \"#utility.yul\":10019:10023   */\n      dup3\n        /* \"#utility.yul\":10011:10017   */\n      dup3\n        /* \"#utility.yul\":9991:10024   */\n      tag_317\n      jump\t// in\n    tag_316:\n        /* \"#utility.yul\":9901:10030   */\n      swap2\n      swap1\n      pop\n      jump\t// out\n        /* \"#utility.yul\":10036:10111   */\n    tag_315:\n        /* \"#utility.yul\":10069:10075   */\n      0x00\n        /* \"#utility.yul\":10102:10104   */\n      0x40\n        /* \"#utility.yul\":10096:10105   */\n      mload\n        /* \"#utility.yul\":10086:10105   */\n      swap1\n      pop\n        /* \"#utility.yul\":10036:10111   */\n      swap1\n      jump\t// out\n        /* \"#utility.yul\":10117:10425   */\n    tag_192:\n        /* \"#utility.yul\":10179:10183   */\n      0x00\n        /* \"#utility.yul\":10269:10287   */\n      0xffffffffffffffff\n        /* \"#utility.yul\":10261:10267   */\n      dup3\n        /* \"#utility.yul\":10258:10288   */\n      gt\n        /* \"#utility.yul\":10255:10311   */\n      iszero\n      tag_320\n      jumpi\n        /* \"#utility.yul\":10291:10309   */\n      tag_321\n      tag_322\n      jump\t// in\n    tag_321:\n        /* \"#utility.yul\":10255:10311   */\n    tag_320:\n        /* \"#utility.yul\":10329:10358   */\n      tag_323\n        /* \"#utility.yul\":10351:10357   */\n      dup3\n        /* \"#utility.yul\":10329:10358   */\n      tag_278\n      jump\t// in\n    tag_323:\n        /* \"#utility.yul\":10321:10358   */\n      swap1\n      pop\n        /* \"#utility.yul\":10413:10417   */\n      0x20\n        /* \"#utility.yul\":10407:10411   */\n      dup2\n        /* \"#utility.yul\":10403:10418   */\n      add\n        /* \"#utility.yul\":10395:10418   */\n      swap1\n      pop\n        /* \"#utility.yul\":10117:10425   */\n      swap2\n      swap1\n      pop\n      jump\t// out\n        /* \"#utility.yul\":10431:10591   */\n    tag_262:\n        /* \"#utility.yul\":10526:10530   */\n      0x00\n        /* \"#utility.yul\":10549:10552   */\n      dup2\n        /* \"#utility.yul\":10541:10552   */\n      swap1\n      pop\n        /* \"#utility.yul\":10579:10583   */\n      0x20\n        /* \"#utility.yul\":10574:10577   */\n      dup3\n        /* \"#utility.yul\":10570:10584   */\n      add\n        /* \"#utility.yul\":10562:10584   */\n      swap1\n      pop\n        /* \"#utility.yul\":10431:10591   */\n      swap2\n      swap1\n      pop\n      jump\t// out\n        /* \"#utility.yul\":10597:10739   */\n    tag_258:\n        /* \"#utility.yul\":10692:10698   */\n      0x00\n        /* \"#utility.yul\":10726:10731   */\n      dup2\n        /* \"#utility.yul\":10720:10732   */\n      mload\n        /* \"#utility.yul\":10710:10732   */\n      swap1\n      pop\n        /* \"#utility.yul\":10597:10739   */\n      swap2\n      swap1\n      pop\n      jump\t// out\n        /* \"#utility.yul\":10745:10844   */\n    tag_272:\n        /* \"#utility.yul\":10797:10803   */\n      0x00\n        /* \"#utility.yul\":10831:10836   */\n      dup2\n        /* \"#utility.yul\":10825:10837   */\n      mload\n        /* \"#utility.yul\":10815:10837   */\n      swap1\n      pop\n        /* \"#utility.yul\":10745:10844   */\n      swap2\n      swap1\n      pop\n      jump\t// out\n        /* \"#utility.yul\":10850:10991   */\n    tag_268:\n        /* \"#utility.yul\":10948:10952   */\n      0x00\n        /* \"#utility.yul\":10980:10984   */\n      0x20\n        /* \"#utility.yul\":10975:10978   */\n      dup3\n        /* \"#utility.yul\":10971:10985   */\n      add\n        /* \"#utility.yul\":10963:10985   */\n      swap1\n      pop\n        /* \"#utility.yul\":10850:10991   */\n      swap2\n      swap1\n      pop\n      jump\t// out\n        /* \"#utility.yul\":10997:11209   */\n    tag_260:\n        /* \"#utility.yul\":11124:11135   */\n      0x00\n        /* \"#utility.yul\":11158:11164   */\n      dup3\n        /* \"#utility.yul\":11153:11156   */\n      dup3\n        /* \"#utility.yul\":11146:11165   */\n      mstore\n        /* \"#utility.yul\":11198:11202   */\n      0x20\n        /* \"#utility.yul\":11193:11196   */\n      dup3\n        /* \"#utility.yul\":11189:11203   */\n      add\n        /* \"#utility.yul\":11174:11203   */\n      swap1\n      pop\n        /* \"#utility.yul\":10997:11209   */\n      swap3\n      swap2\n      pop\n      pop\n      jump\t// out\n        /* \"#utility.yul\":11215:11374   */\n    tag_274:\n        /* \"#utility.yul\":11289:11300   */\n      0x00\n        /* \"#utility.yul\":11323:11329   */\n      dup3\n        /* \"#utility.yul\":11318:11321   */\n      dup3\n        /* \"#utility.yul\":11311:11330   */\n      mstore\n        /* \"#utility.yul\":11363:11367   */\n      0x20\n        /* \"#utility.yul\":11358:11361   */\n      dup3\n        /* \"#utility.yul\":11354:11368   */\n      add\n        /* \"#utility.yul\":11339:11368   */\n      swap1\n      pop\n        /* \"#utility.yul\":11215:11374   */\n      swap3\n      swap2\n      pop\n      pop\n      jump\t// out\n        /* \"#utility.yul\":11380:11549   */\n    tag_283:\n        /* \"#utility.yul\":11464:11475   */\n      0x00\n        /* \"#utility.yul\":11498:11504   */\n      dup3\n        /* \"#utility.yul\":11493:11496   */\n      dup3\n        /* \"#utility.yul\":11486:11505   */\n      mstore\n        /* \"#utility.yul\":11538:11542   */\n      0x20\n        /* \"#utility.yul\":11533:11536   */\n      dup3\n        /* \"#utility.yul\":11529:11543   */\n      add\n        /* \"#utility.yul\":11514:11543   */\n      swap1\n      pop\n        /* \"#utility.yul\":11380:11549   */\n      swap3\n      swap2\n      pop\n      pop\n      jump\t// out\n        /* \"#utility.yul\":11555:11860   */\n    tag_76:\n        /* \"#utility.yul\":11595:11598   */\n      0x00\n        /* \"#utility.yul\":11614:11634   */\n      tag_332\n        /* \"#utility.yul\":11632:11633   */\n      dup3\n        /* \"#utility.yul\":11614:11634   */\n      tag_298\n      jump\t// in\n    tag_332:\n        /* \"#utility.yul\":11609:11634   */\n      swap2\n      pop\n        /* \"#utility.yul\":11648:11668   */\n      tag_333\n        /* \"#utility.yul\":11666:11667   */\n      dup4\n        /* \"#utility.yul\":11648:11668   */\n      tag_298\n      jump\t// in\n    tag_333:\n        /* \"#utility.yul\":11643:11668   */\n      swap3\n      pop\n        /* \"#utility.yul\":11802:11803   */\n      dup3\n        /* \"#utility.yul\":11734:11800   */\n      0xffffffffffffffffffffffffffffffffffffffffffffffffffffffffffffffff\n        /* \"#utility.yul\":11730:11804   */\n      sub\n        /* \"#utility.yul\":11727:11728   */\n      dup3\n        /* \"#utility.yul\":11724:11805   */\n      gt\n        /* \"#utility.yul\":11721:11828   */\n      iszero\n      tag_334\n      jumpi\n        /* \"#utility.yul\":11808:11826   */\n      tag_335\n      tag_336\n      jump\t// in\n    tag_335:\n        /* \"#utility.yul\":11721:11828   */\n    tag_334:\n        /* \"#utility.yul\":11852:11853   */\n      dup3\n        /* \"#utility.yul\":11849:11850   */\n      dup3\n        /* \"#utility.yul\":11845:11854   */\n      add\n        /* \"#utility.yul\":11838:11854   */\n      swap1\n      pop\n        /* \"#utility.yul\":11555:11860   */\n      swap3\n      swap2\n      pop\n      pop\n      jump\t// out\n        /* \"#utility.yul\":11866:12057   */\n    tag_54:\n        /* \"#utility.yul\":11906:11910   */\n      0x00\n        /* \"#utility.yul\":11926:11946   */\n      tag_338\n        /* \"#utility.yul\":11944:11945   */\n      dup3\n        /* \"#utility.yul\":11926:11946   */\n      tag_298\n      jump\t// in\n    tag_338:\n        /* \"#utility.yul\":11921:11946   */\n      swap2\n      pop\n        /* \"#utility.yul\":11960:11980   */\n      tag_339\n        /* \"#utility.yul\":11978:11979   */\n      dup4\n        /* \"#utility.yul\":11960:11980   */\n      tag_298\n      jump\t// in\n    tag_339:\n        /* \"#utility.yul\":11955:11980   */\n      swap3\n      pop\n        /* \"#utility.yul\":11999:12000   */\n      dup3\n        /* \"#utility.yul\":11996:11997   */\n      dup3\n        /* \"#utility.yul\":11993:12001   */\n      lt\n        /* \"#utility.yul\":11990:12024   */\n      iszero\n      tag_340\n      jumpi\n        /* \"#utility.yul\":12004:12022   */\n      tag_341\n      tag_336\n      jump\t// in\n    tag_341:\n        /* \"#utility.yul\":11990:12024   */\n    tag_340:\n        /* \"#utility.yul\":12049:12050   */\n      dup3\n        /* \"#utility.yul\":12046:12047   */\n      dup3\n        /* \"#utility.yul\":12042:12051   */\n      sub\n        /* \"#utility.yul\":12034:12051   */\n      swap1\n      pop\n        /* \"#utility.yul\":11866:12057   */\n      swap3\n      swap2\n      pop\n      pop\n      jump\t// out\n        /* \"#utility.yul\":12063:12159   */\n    tag_251:\n        /* \"#utility.yul\":12100:12107   */\n      0x00\n        /* \"#utility.yul\":12129:12153   */\n      tag_343\n        /* \"#utility.yul\":12147:12152   */\n      dup3\n        /* \"#utility.yul\":12129:12153   */\n      tag_344\n      jump\t// in\n    tag_343:\n        /* \"#utility.yul\":12118:12153   */\n      swap1\n      pop\n        /* \"#utility.yul\":12063:12159   */\n      swap2\n      swap1\n      pop\n      jump\t// out\n        /* \"#utility.yul\":12165:12291   */\n    tag_344:\n        /* \"#utility.yul\":12202:12209   */\n      0x00\n        /* \"#utility.yul\":12242:12284   */\n      0xffffffffffffffffffffffffffffffffffffffff\n        /* \"#utility.yul\":12235:12240   */\n      dup3\n        /* \"#utility.yul\":12231:12285   */\n      and\n        /* \"#utility.yul\":12220:12285   */\n      swap1\n      pop\n        /* \"#utility.yul\":12165:12291   */\n      swap2\n      swap1\n      pop\n      jump\t// out\n        /* \"#utility.yul\":12297:12374   */\n    tag_298:\n        /* \"#utility.yul\":12334:12341   */\n      0x00\n        /* \"#utility.yul\":12363:12368   */\n      dup2\n        /* \"#utility.yul\":12352:12368   */\n      swap1\n      pop\n        /* \"#utility.yul\":12297:12374   */\n      swap2\n      swap1\n      pop\n      jump\t// out\n        /* \"#utility.yul\":12380:12534   */\n    tag_198:\n        /* \"#utility.yul\":12464:12470   */\n      dup3\n        /* \"#utility.yul\":12459:12462   */\n      dup2\n        /* \"#utility.yul\":12454:12457   */\n      dup4\n        /* \"#utility.yul\":12441:12471   */\n      calldatacopy\n        /* \"#utility.yul\":12526:12527   */\n      0x00\n        /* \"#utility.yul\":12517:12523   */\n      dup4\n        /* \"#utility.yul\":12512:12515   */\n      dup4\n        /* \"#utility.yul\":12508:12524   */\n      add\n        /* \"#utility.yul\":12501:12528   */\n      mstore\n        /* \"#utility.yul\":12380:12534   */\n      pop\n      pop\n      pop\n      jump\t// out\n        /* \"#utility.yul\":12540:12847   */\n    tag_276:\n        /* \"#utility.yul\":12608:12609   */\n      0x00\n        /* \"#utility.yul\":12618:12731   */\n    tag_349:\n        /* \"#utility.yul\":12632:12638   */\n      dup4\n        /* \"#utility.yul\":12629:12630   */\n      dup2\n        /* \"#utility.yul\":12626:12639   */\n      lt\n        /* \"#utility.yul\":12618:12731   */\n      iszero\n      tag_351\n      jumpi\n        /* \"#utility.yul\":12717:12718   */\n      dup1\n        /* \"#utility.yul\":12712:12715   */\n      dup3\n        /* \"#utility.yul\":12708:12719   */\n      add\n        /* \"#utility.yul\":12702:12720   */\n      mload\n        /* \"#utility.yul\":12698:12699   */\n      dup2\n        /* \"#utility.yul\":12693:12696   */\n      dup5\n        /* \"#utility.yul\":12689:12700   */\n      add\n        /* \"#utility.yul\":12682:12721   */\n      mstore\n        /* \"#utility.yul\":12654:12656   */\n      0x20\n        /* \"#utility.yul\":12651:12652   */\n      dup2\n        /* \"#utility.yul\":12647:12657   */\n      add\n        /* \"#utility.yul\":12642:12657   */\n      swap1\n      pop\n        /* \"#utility.yul\":12618:12731   */\n      jump(tag_349)\n    tag_351:\n        /* \"#utility.yul\":12749:12755   */\n      dup4\n        /* \"#utility.yul\":12746:12747   */\n      dup2\n        /* \"#utility.yul\":12743:12756   */\n      gt\n        /* \"#utility.yul\":12740:12841   */\n      iszero\n      tag_352\n      jumpi\n        /* \"#utility.yul\":12829:12830   */\n      0x00\n        /* \"#utility.yul\":12820:12826   */\n      dup5\n        /* \"#utility.yul\":12815:12818   */\n      dup5\n        /* \"#utility.yul\":12811:12827   */\n      add\n        /* \"#utility.yul\":12804:12831   */\n      mstore\n        /* \"#utility.yul\":12740:12841   */\n    tag_352:\n        /* \"#utility.yul\":12589:12847   */\n      pop\n        /* \"#utility.yul\":12540:12847   */\n      pop\n      pop\n      pop\n      jump\t// out\n        /* \"#utility.yul\":12853:13173   */\n    tag_47:\n        /* \"#utility.yul\":12897:12903   */\n      0x00\n        /* \"#utility.yul\":12934:12935   */\n      0x02\n        /* \"#utility.yul\":12928:12932   */\n      dup3\n        /* \"#utility.yul\":12924:12936   */\n      div\n        /* \"#utility.yul\":12914:12936   */\n      swap1\n      pop\n        /* \"#utility.yul\":12981:12982   */\n      0x01\n        /* \"#utility.yul\":12975:12979   */\n      dup3\n        /* \"#utility.yul\":12971:12983   */\n      and\n        /* \"#utility.yul\":13002:13020   */\n      dup1\n        /* \"#utility.yul\":12992:13073   */\n      tag_354\n      jumpi\n        /* \"#utility.yul\":13058:13062   */\n      0x7f\n        /* \"#utility.yul\":13050:13056   */\n      dup3\n        /* \"#utility.yul\":13046:13063   */\n      and\n        /* \"#utility.yul\":13036:13063   */\n      swap2\n      pop\n        /* \"#utility.yul\":12992:13073   */\n    tag_354:\n        /* \"#utility.yul\":13120:13122   */\n      0x20\n        /* \"#utility.yul\":13112:13118   */\n      dup3\n        /* \"#utility.yul\":13109:13123   */\n      lt\n        /* \"#utility.yul\":13089:13107   */\n      dup2\n        /* \"#utility.yul\":13086:13124   */\n      eq\n        /* \"#utility.yul\":13083:13167   */\n      iszero\n      tag_355\n      jumpi\n        /* \"#utility.yul\":13139:13157   */\n      tag_356\n      tag_357\n      jump\t// in\n    tag_356:\n        /* \"#utility.yul\":13083:13167   */\n    tag_355:\n        /* \"#utility.yul\":12904:13173   */\n      pop\n        /* \"#utility.yul\":12853:13173   */\n      swap2\n      swap1\n      pop\n      jump\t// out\n        /* \"#utility.yul\":13179:13460   */\n    tag_317:\n        /* \"#utility.yul\":13262:13289   */\n      tag_359\n        /* \"#utility.yul\":13284:13288   */\n      dup3\n        /* \"#utility.yul\":13262:13289   */\n      tag_278\n      jump\t// in\n    tag_359:\n        /* \"#utility.yul\":13254:13260   */\n      dup2\n        /* \"#utility.yul\":13250:13290   */\n      add\n        /* \"#utility.yul\":13392:13398   */\n      dup2\n        /* \"#utility.yul\":13380:13390   */\n      dup2\n        /* \"#utility.yul\":13377:13399   */\n      lt\n        /* \"#utility.yul\":13356:13374   */\n      0xffffffffffffffff\n        /* \"#utility.yul\":13344:13354   */\n      dup3\n        /* \"#utility.yul\":13341:13375   */\n      gt\n        /* \"#utility.yul\":13338:13400   */\n      or\n        /* \"#utility.yul\":13335:13423   */\n      iszero\n      tag_360\n      jumpi\n        /* \"#utility.yul\":13403:13421   */\n      tag_361\n      tag_322\n      jump\t// in\n    tag_361:\n        /* \"#utility.yul\":13335:13423   */\n    tag_360:\n        /* \"#utility.yul\":13443:13453   */\n      dup1\n        /* \"#utility.yul\":13439:13441   */\n      0x40\n        /* \"#utility.yul\":13432:13454   */\n      mstore\n        /* \"#utility.yul\":13222:13460   */\n      pop\n        /* \"#utility.yul\":13179:13460   */\n      pop\n      pop\n      jump\t// out\n        /* \"#utility.yul\":13466:13699   */\n    tag_89:\n        /* \"#utility.yul\":13505:13508   */\n      0x00\n        /* \"#utility.yul\":13528:13552   */\n      tag_363\n        /* \"#utility.yul\":13546:13551   */\n      dup3\n        /* \"#utility.yul\":13528:13552   */\n      tag_298\n      jump\t// in\n    tag_363:\n        /* \"#utility.yul\":13519:13552   */\n      swap2\n      pop\n        /* \"#utility.yul\":13574:13640   */\n      0xffffffffffffffffffffffffffffffffffffffffffffffffffffffffffffffff\n        /* \"#utility.yul\":13567:13572   */\n      dup3\n        /* \"#utility.yul\":13564:13641   */\n      eq\n        /* \"#utility.yul\":13561:13664   */\n      iszero\n      tag_364\n      jumpi\n        /* \"#utility.yul\":13644:13662   */\n      tag_365\n      tag_336\n      jump\t// in\n    tag_365:\n        /* \"#utility.yul\":13561:13664   */\n    tag_364:\n        /* \"#utility.yul\":13691:13692   */\n      0x01\n        /* \"#utility.yul\":13684:13689   */\n      dup3\n        /* \"#utility.yul\":13680:13693   */\n      add\n        /* \"#utility.yul\":13673:13693   */\n      swap1\n      pop\n        /* \"#utility.yul\":13466:13699   */\n      swap2\n      swap1\n      pop\n      jump\t// out\n        /* \"#utility.yul\":13705:13885   */\n    tag_336:\n        /* \"#utility.yul\":13753:13830   */\n      0x4e487b7100000000000000000000000000000000000000000000000000000000\n        /* \"#utility.yul\":13750:13751   */\n      0x00\n        /* \"#utility.yul\":13743:13831   */\n      mstore\n        /* \"#utility.yul\":13850:13854   */\n      0x11\n        /* \"#utility.yul\":13847:13848   */\n      0x04\n        /* \"#utility.yul\":13840:13855   */\n      mstore\n        /* \"#utility.yul\":13874:13878   */\n      0x24\n        /* \"#utility.yul\":13871:13872   */\n      0x00\n        /* \"#utility.yul\":13864:13879   */\n      revert\n        /* \"#utility.yul\":13891:14071   */\n    tag_357:\n        /* \"#utility.yul\":13939:14016   */\n      0x4e487b7100000000000000000000000000000000000000000000000000000000\n        /* \"#utility.yul\":13936:13937   */\n      0x00\n        /* \"#utility.yul\":13929:14017   */\n      mstore\n        /* \"#utility.yul\":14036:14040   */\n      0x22\n        /* \"#utility.yul\":14033:14034   */\n      0x04\n        /* \"#utility.yul\":14026:14041   */\n      mstore\n        /* \"#utility.yul\":14060:14064   */\n      0x24\n        /* \"#utility.yul\":14057:14058   */\n      0x00\n        /* \"#utility.yul\":14050:14065   */\n      revert\n        /* \"#utility.yul\":14077:14257   */\n    tag_98:\n        /* \"#utility.yul\":14125:14202   */\n      0x4e487b7100000000000000000000000000000000000000000000000000000000\n        /* \"#utility.yul\":14122:14123   */\n      0x00\n        /* \"#utility.yul\":14115:14203   */\n      mstore\n        /* \"#utility.yul\":14222:14226   */\n      0x31\n        /* \"#utility.yul\":14219:14220   */\n      0x04\n        /* \"#utility.yul\":14212:14227   */\n      mstore\n        /* \"#utility.yul\":14246:14250   */\n      0x24\n        /* \"#utility.yul\":14243:14244   */\n      0x00\n        /* \"#utility.yul\":14236:14251   */\n      revert\n        /* \"#utility.yul\":14263:14443   */\n    tag_57:\n        /* \"#utility.yul\":14311:14388   */\n      0x4e487b7100000000000000000000000000000000000000000000000000000000\n        /* \"#utility.yul\":14308:14309   */\n      0x00\n        /* \"#utility.yul\":14301:14389   */\n      mstore\n        /* \"#utility.yul\":14408:14412   */\n      0x32\n        /* \"#utility.yul\":14405:14406   */\n      0x04\n        /* \"#utility.yul\":14398:14413   */\n      mstore\n        /* \"#utility.yul\":14432:14436   */\n      0x24\n        /* \"#utility.yul\":14429:14430   */\n      0x00\n        /* \"#utility.yul\":14422:14437   */\n      revert\n        /* \"#utility.yul\":14449:14629   */\n    tag_322:\n        /* \"#utility.yul\":14497:14574   */\n      0x4e487b7100000000000000000000000000000000000000000000000000000000\n        /* \"#utility.yul\":14494:14495   */\n      0x00\n        /* \"#utility.yul\":14487:14575   */\n      mstore\n        /* \"#utility.yul\":14594:14598   */\n      0x41\n        /* \"#utility.yul\":14591:14592   */\n      0x04\n        /* \"#utility.yul\":14584:14599   */\n      mstore\n        /* \"#utility.yul\":14618:14622   */\n      0x24\n        /* \"#utility.yul\":14615:14616   */\n      0x00\n        /* \"#utility.yul\":14608:14623   */\n      revert\n        /* \"#utility.yul\":14635:14752   */\n    tag_207:\n        /* \"#utility.yul\":14744:14745   */\n      0x00\n        /* \"#utility.yul\":14741:14742   */\n      dup1\n        /* \"#utility.yul\":14734:14746   */\n      revert\n        /* \"#utility.yul\":14758:14875   */\n    tag_196:\n        /* \"#utility.yul\":14867:14868   */\n      0x00\n        /* \"#utility.yul\":14864:14865   */\n      dup1\n        /* \"#utility.yul\":14857:14869   */\n      revert\n        /* \"#utility.yul\":14881:14998   */\n    tag_223:\n        /* \"#utility.yul\":14990:14991   */\n      0x00\n        /* \"#utility.yul\":14987:14988   */\n      dup1\n        /* \"#utility.yul\":14980:14992   */\n      revert\n        /* \"#utility.yul\":15004:15121   */\n    tag_216:\n        /* \"#utility.yul\":15113:15114   */\n      0x00\n        /* \"#utility.yul\":15110:15111   */\n      dup1\n        /* \"#utility.yul\":15103:15115   */\n      revert\n        /* \"#utility.yul\":15127:15229   */\n    tag_278:\n        /* \"#utility.yul\":15168:15174   */\n      0x00\n        /* \"#utility.yul\":15219:15221   */\n      0x1f\n        /* \"#utility.yul\":15215:15222   */\n      not\n        /* \"#utility.yul\":15210:15212   */\n      0x1f\n        /* \"#utility.yul\":15203:15208   */\n      dup4\n        /* \"#utility.yul\":15199:15213   */\n      add\n        /* \"#utility.yul\":15195:15223   */\n      and\n        /* \"#utility.yul\":15185:15223   */\n      swap1\n      pop\n        /* \"#utility.yul\":15127:15229   */\n      swap2\n      swap1\n      pop\n      jump\t// out\n        /* \"#utility.yul\":15235:15357   */\n    tag_202:\n        /* \"#utility.yul\":15308:15332   */\n      tag_377\n        /* \"#utility.yul\":15326:15331   */\n      dup2\n        /* \"#utility.yul\":15308:15332   */\n      tag_251\n      jump\t// in\n    tag_377:\n        /* \"#utility.yul\":15301:15306   */\n      dup2\n        /* \"#utility.yul\":15298:15333   */\n      eq\n        /* \"#utility.yul\":15288:15351   */\n      tag_378\n      jumpi\n        /* \"#utility.yul\":15347:15348   */\n      0x00\n        /* \"#utility.yul\":15344:15345   */\n      dup1\n        /* \"#utility.yul\":15337:15349   */\n      revert\n        /* \"#utility.yul\":15288:15351   */\n    tag_378:\n        /* \"#utility.yul\":15235:15357   */\n      pop\n      jump\t// out\n        /* \"#utility.yul\":15363:15485   */\n    tag_212:\n        /* \"#utility.yul\":15436:15460   */\n      tag_380\n        /* \"#utility.yul\":15454:15459   */\n      dup2\n        /* \"#utility.yul\":15436:15460   */\n      tag_298\n      jump\t// in\n    tag_380:\n        /* \"#utility.yul\":15429:15434   */\n      dup2\n        /* \"#utility.yul\":15426:15461   */\n      eq\n        /* \"#utility.yul\":15416:15479   */\n      tag_381\n      jumpi\n        /* \"#utility.yul\":15475:15476   */\n      0x00\n        /* \"#utility.yul\":15472:15473   */\n      dup1\n        /* \"#utility.yul\":15465:15477   */\n      revert\n        /* \"#utility.yul\":15416:15479   */\n    tag_381:\n        /* \"#utility.yul\":15363:15485   */\n      pop\n      jump\t// out\n\n    auxdata: 0xa2646970667358221220edbeadb6ff1b3e5d7dfb63f424caca6be844f579c6cbcd85e73c205e97a0c89164736f6c63430008070033\n}\n",
				"bytecode": {
					"linkReferences": {},
					"object": "608060405234801561001057600080fd5b50611e3f806100206000396000f3fe608060405234801561001057600080fd5b506004361061007d5760003560e01c806369ba1a751161005b57806369ba1a75146100ea57806380c9419e14610106578063904cc1751461013d578063ac8b13001461016d5761007d565b8063377e6ff7146100825780635102bc9d146100b2578063575b70d0146100ce575b600080fd5b61009c60048036038101906100979190611655565b610189565b6040516100a991906119b4565b60405180910390f35b6100cc60048036038101906100c7919061171e565b610398565b005b6100e860048036038101906100e3919061177a565b6103e1565b005b61010460048036038101906100ff91906116f1565b6105e8565b005b610120600480360381019061011b91906116f1565b610b72565b6040516101349897969594939291906119d6565b60405180910390f35b610157600480360381019061015291906116f1565b610c92565b60405161016491906119b4565b60405180910390f35b61018760048036038101906101829190611682565b61104f565b005b6060600360008373ffffffffffffffffffffffffffffffffffffffff1673ffffffffffffffffffffffffffffffffffffffff168152602001908152602001600020805480602002602001604051908101604052809291908181526020016000905b8282101561038d5783829060005260206000209060080201604051806101000160405290816000820154815260200160018201805461022890611c1f565b80601f016020809104026020016040519081016040528092919081815260200182805461025490611c1f565b80156102a15780601f10610276576101008083540402835291602001916102a1565b820191906000526020600020905b81548152906001019060200180831161028457829003601f168201915b50505050508152602001600282015481526020016003820160009054906101000a900473ffffffffffffffffffffffffffffffffffffffff1673ffffffffffffffffffffffffffffffffffffffff1673ffffffffffffffffffffffffffffffffffffffff1681526020016004820160009054906101000a900473ffffffffffffffffffffffffffffffffffffffff1673ffffffffffffffffffffffffffffffffffffffff1673ffffffffffffffffffffffffffffffffffffffff1681526020016005820154815260200160068201548152602001600782015481525050815260200190600101906101ea565b505050509050919050565b80600180846103a79190611b6d565b815481106103b8576103b7611d58565b5b906000526020600020906008020160010190805190602001906103dc92919061144b565b505050565b60005b60046000858152602001908152602001600020805490508110156105e2578173ffffffffffffffffffffffffffffffffffffffff166004600060018761042a9190611b6d565b8152602001908152602001600020828154811061044a57610449611d58565b5b9060005260206000200160009054906101000a900473ffffffffffffffffffffffffffffffffffffffff1673ffffffffffffffffffffffffffffffffffffffff1614156104965761055f565b6001806001866104a69190611b6d565b815481106104b7576104b6611d58565b5b906000526020600020906008020160050160008282546104d79190611b17565b92505081905550600460006001866104ef9190611b6d565b8152602001908152602001600020829080600181540180825580915050600190039060005260206000200160009091909190916101000a81548173ffffffffffffffffffffffffffffffffffffffff021916908373ffffffffffffffffffffffffffffffffffffffff1602179055505b826001808661056e9190611b6d565b8154811061057f5761057e611d58565b5b90600052602060002090600802016007015461059b9190611b17565b600180866105a99190611b6d565b815481106105ba576105b9611d58565b5b90600052602060002090600802016007018190555080806105da90611c82565b9150506103e4565b50505050565b6003600180836105f89190611b6d565b8154811061060957610608611d58565b5b9060005260206000209060080201600201819055506001600260006001815260200190815260200160002080549050141561070657600260006001815260200190815260200160002080548061066257610661611d29565b5b600190038181906000526020600020906008020160008082016000905560018201600061068f91906114d1565b60028201600090556003820160006101000a81549073ffffffffffffffffffffffffffffffffffffffff02191690556004820160006101000a81549073ffffffffffffffffffffffffffffffffffffffff0219169055600582016000905560068201600090556007820160009055505090556109e3565b60005b600160026000600181526020019081526020016000208054905061072d9190611b6d565b81101561091e57816002600060018152602001908152602001600020828154811061075b5761075a611d58565b5b906000526020600020906008020160000154141561090b5760026000600181526020019081526020016000206001826107949190611b17565b815481106107a5576107a4611d58565b5b9060005260206000209060080201600260006001815260200190815260200160002082815481106107d9576107d8611d58565b5b906000526020600020906008020160008201548160000155600182018160010190805461080590611c1f565b610810929190611511565b50600282015481600201556003820160009054906101000a900473ffffffffffffffffffffffffffffffffffffffff168160030160006101000a81548173ffffffffffffffffffffffffffffffffffffffff021916908373ffffffffffffffffffffffffffffffffffffffff1602179055506004820160009054906101000a900473ffffffffffffffffffffffffffffffffffffffff168160040160006101000a81548173ffffffffffffffffffffffffffffffffffffffff021916908373ffffffffffffffffffffffffffffffffffffffff1602179055506005820154816005015560068201548160060155600782015481600701559050505b808061091690611c82565b915050610709565b50600260006001815260200190815260200160002080548061094357610942611d29565b5b600190038181906000526020600020906008020160008082016000905560018201600061097091906114d1565b60028201600090556003820160006101000a81549073ffffffffffffffffffffffffffffffffffffffff02191690556004820160006101000a81549073ffffffffffffffffffffffffffffffffffffffff0219169055600582016000905560068201600090556007820160009055505090555b600260006003815260200190815260200160002060018083610a059190611b6d565b81548110610a1657610a15611d58565b5b90600052602060002090600802019080600181540180825580915050600190039060005260206000209060080201600090919091909150600082015481600001556001820181600101908054610a6b90611c1f565b610a76929190611511565b50600282015481600201556003820160009054906101000a900473ffffffffffffffffffffffffffffffffffffffff168160030160006101000a81548173ffffffffffffffffffffffffffffffffffffffff021916908373ffffffffffffffffffffffffffffffffffffffff1602179055506004820160009054906101000a900473ffffffffffffffffffffffffffffffffffffffff168160040160006101000a81548173ffffffffffffffffffffffffffffffffffffffff021916908373ffffffffffffffffffffffffffffffffffffffff160217905550600582015481600501556006820154816006015560078201548160070155505050565b60018181548110610b8257600080fd5b9060005260206000209060080201600091509050806000015490806001018054610bab90611c1f565b80601f0160208091040260200160405190810160405280929190818152602001828054610bd790611c1f565b8015610c245780601f10610bf957610100808354040283529160200191610c24565b820191906000526020600020905b815481529060010190602001808311610c0757829003601f168201915b5050505050908060020154908060030160009054906101000a900473ffffffffffffffffffffffffffffffffffffffff16908060040160009054906101000a900473ffffffffffffffffffffffffffffffffffffffff16908060050154908060060154908060070154905088565b60606000821415610e6d576001805480602002602001604051908101604052809291908181526020016000905b82821015610e6257838290600052602060002090600802016040518061010001604052908160008201548152602001600182018054610cfd90611c1f565b80601f0160208091040260200160405190810160405280929190818152602001828054610d2990611c1f565b8015610d765780601f10610d4b57610100808354040283529160200191610d76565b820191906000526020600020905b815481529060010190602001808311610d5957829003601f168201915b50505050508152602001600282015481526020016003820160009054906101000a900473ffffffffffffffffffffffffffffffffffffffff1673ffffffffffffffffffffffffffffffffffffffff1673ffffffffffffffffffffffffffffffffffffffff1681526020016004820160009054906101000a900473ffffffffffffffffffffffffffffffffffffffff1673ffffffffffffffffffffffffffffffffffffffff1673ffffffffffffffffffffffffffffffffffffffff168152602001600582015481526020016006820154815260200160078201548152505081526020019060010190610cbf565b50505050905061104a565b60026000838152602001908152602001600020805480602002602001604051908101604052809291908181526020016000905b8282101561104357838290600052602060002090600802016040518061010001604052908160008201548152602001600182018054610ede90611c1f565b80601f0160208091040260200160405190810160405280929190818152602001828054610f0a90611c1f565b8015610f575780601f10610f2c57610100808354040283529160200191610f57565b820191906000526020600020905b815481529060010190602001808311610f3a57829003601f168201915b50505050508152602001600282015481526020016003820160009054906101000a900473ffffffffffffffffffffffffffffffffffffffff1673ffffffffffffffffffffffffffffffffffffffff1673ffffffffffffffffffffffffffffffffffffffff1681526020016004820160009054906101000a900473ffffffffffffffffffffffffffffffffffffffff1673ffffffffffffffffffffffffffffffffffffffff1673ffffffffffffffffffffffffffffffffffffffff168152602001600582015481526020016006820154815260200160078201548152505081526020019060010190610ea0565b5050505090505b919050565b60008081548092919061106190611c82565b919050555060006040518061010001604052806000548152602001858152602001600181526020013373ffffffffffffffffffffffffffffffffffffffff1681526020018473ffffffffffffffffffffffffffffffffffffffff1681526020016000815260200183815260200160008152509050600181908060018154018082558091505060019003906000526020600020906008020160009091909190915060008201518160000155602082015181600101908051906020019061112792919061144b565b506040820151816002015560608201518160030160006101000a81548173ffffffffffffffffffffffffffffffffffffffff021916908373ffffffffffffffffffffffffffffffffffffffff16021790555060808201518160040160006101000a81548173ffffffffffffffffffffffffffffffffffffffff021916908373ffffffffffffffffffffffffffffffffffffffff16021790555060a0820151816005015560c0820151816006015560e082015181600701555050600260006001815260200190815260200160002081908060018154018082558091505060019003906000526020600020906008020160009091909190915060008201518160000155602082015181600101908051906020019061124492919061144b565b506040820151816002015560608201518160030160006101000a81548173ffffffffffffffffffffffffffffffffffffffff021916908373ffffffffffffffffffffffffffffffffffffffff16021790555060808201518160040160006101000a81548173ffffffffffffffffffffffffffffffffffffffff021916908373ffffffffffffffffffffffffffffffffffffffff16021790555060a0820151816005015560c0820151816006015560e082015181600701555050600360003373ffffffffffffffffffffffffffffffffffffffff1673ffffffffffffffffffffffffffffffffffffffff16815260200190815260200160002081908060018154018082558091505060019003906000526020600020906008020160009091909190915060008201518160000155602082015181600101908051906020019061138c92919061144b565b506040820151816002015560608201518160030160006101000a81548173ffffffffffffffffffffffffffffffffffffffff021916908373ffffffffffffffffffffffffffffffffffffffff16021790555060808201518160040160006101000a81548173ffffffffffffffffffffffffffffffffffffffff021916908373ffffffffffffffffffffffffffffffffffffffff16021790555060a0820151816005015560c0820151816006015560e08201518160070155505050505050565b82805461145790611c1f565b90600052602060002090601f01602090048101928261147957600085556114c0565b82601f1061149257805160ff19168380011785556114c0565b828001600101855582156114c0579182015b828111156114bf5782518255916020019190600101906114a4565b5b5090506114cd919061159e565b5090565b5080546114dd90611c1f565b6000825580601f106114ef575061150e565b601f01602090049060005260206000209081019061150d919061159e565b5b50565b82805461151d90611c1f565b90600052602060002090601f01602090048101928261153f576000855561158d565b82601f10611550578054855561158d565b8280016001018555821561158d57600052602060002091601f016020900482015b8281111561158c578254825591600101919060010190611571565b5b50905061159a919061159e565b5090565b5b808211156115b757600081600090555060010161159f565b5090565b60006115ce6115c984611a80565b611a5b565b9050828152602081018484840111156115ea576115e9611dbb565b5b6115f5848285611bdd565b509392505050565b60008135905061160c81611ddb565b92915050565b600082601f83011261162757611626611db6565b5b81356116378482602086016115bb565b91505092915050565b60008135905061164f81611df2565b92915050565b60006020828403121561166b5761166a611dc5565b5b6000611679848285016115fd565b91505092915050565b60008060006060848603121561169b5761169a611dc5565b5b600084013567ffffffffffffffff8111156116b9576116b8611dc0565b5b6116c586828701611612565b93505060206116d6868287016115fd565b92505060406116e786828701611640565b9150509250925092565b60006020828403121561170757611706611dc5565b5b600061171584828501611640565b91505092915050565b6000806040838503121561173557611734611dc5565b5b600061174385828601611640565b925050602083013567ffffffffffffffff81111561176457611763611dc0565b5b61177085828601611612565b9150509250929050565b60008060006060848603121561179357611792611dc5565b5b60006117a186828701611640565b93505060206117b286828701611640565b92505060406117c3868287016115fd565b9150509250925092565b60006117d983836118e6565b905092915050565b6117ea81611ba1565b82525050565b6117f981611ba1565b82525050565b600061180a82611ac1565b6118148185611ae4565b93508360208202850161182685611ab1565b8060005b85811015611862578484038952815161184385826117cd565b945061184e83611ad7565b925060208a0199505060018101905061182a565b50829750879550505050505092915050565b600061187f82611acc565b6118898185611af5565b9350611899818560208601611bec565b6118a281611dca565b840191505092915050565b60006118b882611acc565b6118c28185611b06565b93506118d2818560208601611bec565b6118db81611dca565b840191505092915050565b6000610100830160008301516118ff6000860182611996565b50602083015184820360208601526119178282611874565b915050604083015161192c6040860182611996565b50606083015161193f60608601826117e1565b50608083015161195260808601826117e1565b5060a083015161196560a0860182611996565b5060c083015161197860c0860182611996565b5060e083015161198b60e0860182611996565b508091505092915050565b61199f81611bd3565b82525050565b6119ae81611bd3565b82525050565b600060208201905081810360008301526119ce81846117ff565b905092915050565b6000610100820190506119ec600083018b6119a5565b81810360208301526119fe818a6118ad565b9050611a0d60408301896119a5565b611a1a60608301886117f0565b611a2760808301876117f0565b611a3460a08301866119a5565b611a4160c08301856119a5565b611a4e60e08301846119a5565b9998505050505050505050565b6000611a65611a76565b9050611a718282611c51565b919050565b6000604051905090565b600067ffffffffffffffff821115611a9b57611a9a611d87565b5b611aa482611dca565b9050602081019050919050565b6000819050602082019050919050565b600081519050919050565b600081519050919050565b6000602082019050919050565b600082825260208201905092915050565b600082825260208201905092915050565b600082825260208201905092915050565b6000611b2282611bd3565b9150611b2d83611bd3565b9250827fffffffffffffffffffffffffffffffffffffffffffffffffffffffffffffffff03821115611b6257611b61611ccb565b5b828201905092915050565b6000611b7882611bd3565b9150611b8383611bd3565b925082821015611b9657611b95611ccb565b5b828203905092915050565b6000611bac82611bb3565b9050919050565b600073ffffffffffffffffffffffffffffffffffffffff82169050919050565b6000819050919050565b82818337600083830152505050565b60005b83811015611c0a578082015181840152602081019050611bef565b83811115611c19576000848401525b50505050565b60006002820490506001821680611c3757607f821691505b60208210811415611c4b57611c4a611cfa565b5b50919050565b611c5a82611dca565b810181811067ffffffffffffffff82111715611c7957611c78611d87565b5b80604052505050565b6000611c8d82611bd3565b91507fffffffffffffffffffffffffffffffffffffffffffffffffffffffffffffffff821415611cc057611cbf611ccb565b5b600182019050919050565b7f4e487b7100000000000000000000000000000000000000000000000000000000600052601160045260246000fd5b7f4e487b7100000000000000000000000000000000000000000000000000000000600052602260045260246000fd5b7f4e487b7100000000000000000000000000000000000000000000000000000000600052603160045260246000fd5b7f4e487b7100000000000000000000000000000000000000000000000000000000600052603260045260246000fd5b7f4e487b7100000000000000000000000000000000000000000000000000000000600052604160045260246000fd5b600080fd5b600080fd5b600080fd5b600080fd5b6000601f19601f8301169050919050565b611de481611ba1565b8114611def57600080fd5b50565b611dfb81611bd3565b8114611e0657600080fd5b5056fea2646970667358221220edbeadb6ff1b3e5d7dfb63f424caca6be844f579c6cbcd85e73c205e97a0c89164736f6c63430008070033",
					"opcodes": "PUSH1 0x80 PUSH1 0x40 MSTORE CALLVALUE DUP1 ISZERO PUSH2 0x10 JUMPI PUSH1 0x0 DUP1 REVERT JUMPDEST POP PUSH2 0x1E3F DUP1 PUSH2 0x20 PUSH1 0x0 CODECOPY PUSH1 0x0 RETURN INVALID PUSH1 0x80 PUSH1 0x40 MSTORE CALLVALUE DUP1 ISZERO PUSH2 0x10 JUMPI PUSH1 0x0 DUP1 REVERT JUMPDEST POP PUSH1 0x4 CALLDATASIZE LT PUSH2 0x7D JUMPI PUSH1 0x0 CALLDATALOAD PUSH1 0xE0 SHR DUP1 PUSH4 0x69BA1A75 GT PUSH2 0x5B JUMPI DUP1 PUSH4 0x69BA1A75 EQ PUSH2 0xEA JUMPI DUP1 PUSH4 0x80C9419E EQ PUSH2 0x106 JUMPI DUP1 PUSH4 0x904CC175 EQ PUSH2 0x13D JUMPI DUP1 PUSH4 0xAC8B1300 EQ PUSH2 0x16D JUMPI PUSH2 0x7D JUMP JUMPDEST DUP1 PUSH4 0x377E6FF7 EQ PUSH2 0x82 JUMPI DUP1 PUSH4 0x5102BC9D EQ PUSH2 0xB2 JUMPI DUP1 PUSH4 0x575B70D0 EQ PUSH2 0xCE JUMPI JUMPDEST PUSH1 0x0 DUP1 REVERT JUMPDEST PUSH2 0x9C PUSH1 0x4 DUP1 CALLDATASIZE SUB DUP2 ADD SWAP1 PUSH2 0x97 SWAP2 SWAP1 PUSH2 0x1655 JUMP JUMPDEST PUSH2 0x189 JUMP JUMPDEST PUSH1 0x40 MLOAD PUSH2 0xA9 SWAP2 SWAP1 PUSH2 0x19B4 JUMP JUMPDEST PUSH1 0x40 MLOAD DUP1 SWAP2 SUB SWAP1 RETURN JUMPDEST PUSH2 0xCC PUSH1 0x4 DUP1 CALLDATASIZE SUB DUP2 ADD SWAP1 PUSH2 0xC7 SWAP2 SWAP1 PUSH2 0x171E JUMP JUMPDEST PUSH2 0x398 JUMP JUMPDEST STOP JUMPDEST PUSH2 0xE8 PUSH1 0x4 DUP1 CALLDATASIZE SUB DUP2 ADD SWAP1 PUSH2 0xE3 SWAP2 SWAP1 PUSH2 0x177A JUMP JUMPDEST PUSH2 0x3E1 JUMP JUMPDEST STOP JUMPDEST PUSH2 0x104 PUSH1 0x4 DUP1 CALLDATASIZE SUB DUP2 ADD SWAP1 PUSH2 0xFF SWAP2 SWAP1 PUSH2 0x16F1 JUMP JUMPDEST PUSH2 0x5E8 JUMP JUMPDEST STOP JUMPDEST PUSH2 0x120 PUSH1 0x4 DUP1 CALLDATASIZE SUB DUP2 ADD SWAP1 PUSH2 0x11B SWAP2 SWAP1 PUSH2 0x16F1 JUMP JUMPDEST PUSH2 0xB72 JUMP JUMPDEST PUSH1 0x40 MLOAD PUSH2 0x134 SWAP9 SWAP8 SWAP7 SWAP6 SWAP5 SWAP4 SWAP3 SWAP2 SWAP1 PUSH2 0x19D6 JUMP JUMPDEST PUSH1 0x40 MLOAD DUP1 SWAP2 SUB SWAP1 RETURN JUMPDEST PUSH2 0x157 PUSH1 0x4 DUP1 CALLDATASIZE SUB DUP2 ADD SWAP1 PUSH2 0x152 SWAP2 SWAP1 PUSH2 0x16F1 JUMP JUMPDEST PUSH2 0xC92 JUMP JUMPDEST PUSH1 0x40 MLOAD PUSH2 0x164 SWAP2 SWAP1 PUSH2 0x19B4 JUMP JUMPDEST PUSH1 0x40 MLOAD DUP1 SWAP2 SUB SWAP1 RETURN JUMPDEST PUSH2 0x187 PUSH1 0x4 DUP1 CALLDATASIZE SUB DUP2 ADD SWAP1 PUSH2 0x182 SWAP2 SWAP1 PUSH2 0x1682 JUMP JUMPDEST PUSH2 0x104F JUMP JUMPDEST STOP JUMPDEST PUSH1 0x60 PUSH1 0x3 PUSH1 0x0 DUP4 PUSH20 0xFFFFFFFFFFFFFFFFFFFFFFFFFFFFFFFFFFFFFFFF AND PUSH20 0xFFFFFFFFFFFFFFFFFFFFFFFFFFFFFFFFFFFFFFFF AND DUP2 MSTORE PUSH1 0x20 ADD SWAP1 DUP2 MSTORE PUSH1 0x20 ADD PUSH1 0x0 KECCAK256 DUP1 SLOAD DUP1 PUSH1 0x20 MUL PUSH1 0x20 ADD PUSH1 0x40 MLOAD SWAP1 DUP2 ADD PUSH1 0x40 MSTORE DUP1 SWAP3 SWAP2 SWAP1 DUP2 DUP2 MSTORE PUSH1 0x20 ADD PUSH1 0x0 SWAP1 JUMPDEST DUP3 DUP3 LT ISZERO PUSH2 0x38D JUMPI DUP4 DUP3 SWAP1 PUSH1 0x0 MSTORE PUSH1 0x20 PUSH1 0x0 KECCAK256 SWAP1 PUSH1 0x8 MUL ADD PUSH1 0x40 MLOAD DUP1 PUSH2 0x100 ADD PUSH1 0x40 MSTORE SWAP1 DUP2 PUSH1 0x0 DUP3 ADD SLOAD DUP2 MSTORE PUSH1 0x20 ADD PUSH1 0x1 DUP3 ADD DUP1 SLOAD PUSH2 0x228 SWAP1 PUSH2 0x1C1F JUMP JUMPDEST DUP1 PUSH1 0x1F ADD PUSH1 0x20 DUP1 SWAP2 DIV MUL PUSH1 0x20 ADD PUSH1 0x40 MLOAD SWAP1 DUP2 ADD PUSH1 0x40 MSTORE DUP1 SWAP3 SWAP2 SWAP1 DUP2 DUP2 MSTORE PUSH1 0x20 ADD DUP3 DUP1 SLOAD PUSH2 0x254 SWAP1 PUSH2 0x1C1F JUMP JUMPDEST DUP1 ISZERO PUSH2 0x2A1 JUMPI DUP1 PUSH1 0x1F LT PUSH2 0x276 JUMPI PUSH2 0x100 DUP1 DUP4 SLOAD DIV MUL DUP4 MSTORE SWAP2 PUSH1 0x20 ADD SWAP2 PUSH2 0x2A1 JUMP JUMPDEST DUP3 ADD SWAP2 SWAP1 PUSH1 0x0 MSTORE PUSH1 0x20 PUSH1 0x0 KECCAK256 SWAP1 JUMPDEST DUP2 SLOAD DUP2 MSTORE SWAP1 PUSH1 0x1 ADD SWAP1 PUSH1 0x20 ADD DUP1 DUP4 GT PUSH2 0x284 JUMPI DUP3 SWAP1 SUB PUSH1 0x1F AND DUP3 ADD SWAP2 JUMPDEST POP POP POP POP POP DUP2 MSTORE PUSH1 0x20 ADD PUSH1 0x2 DUP3 ADD SLOAD DUP2 MSTORE PUSH1 0x20 ADD PUSH1 0x3 DUP3 ADD PUSH1 0x0 SWAP1 SLOAD SWAP1 PUSH2 0x100 EXP SWAP1 DIV PUSH20 0xFFFFFFFFFFFFFFFFFFFFFFFFFFFFFFFFFFFFFFFF AND PUSH20 0xFFFFFFFFFFFFFFFFFFFFFFFFFFFFFFFFFFFFFFFF AND PUSH20 0xFFFFFFFFFFFFFFFFFFFFFFFFFFFFFFFFFFFFFFFF AND DUP2 MSTORE PUSH1 0x20 ADD PUSH1 0x4 DUP3 ADD PUSH1 0x0 SWAP1 SLOAD SWAP1 PUSH2 0x100 EXP SWAP1 DIV PUSH20 0xFFFFFFFFFFFFFFFFFFFFFFFFFFFFFFFFFFFFFFFF AND PUSH20 0xFFFFFFFFFFFFFFFFFFFFFFFFFFFFFFFFFFFFFFFF AND PUSH20 0xFFFFFFFFFFFFFFFFFFFFFFFFFFFFFFFFFFFFFFFF AND DUP2 MSTORE PUSH1 0x20 ADD PUSH1 0x5 DUP3 ADD SLOAD DUP2 MSTORE PUSH1 0x20 ADD PUSH1 0x6 DUP3 ADD SLOAD DUP2 MSTORE PUSH1 0x20 ADD PUSH1 0x7 DUP3 ADD SLOAD DUP2 MSTORE POP POP DUP2 MSTORE PUSH1 0x20 ADD SWAP1 PUSH1 0x1 ADD SWAP1 PUSH2 0x1EA JUMP JUMPDEST POP POP POP POP SWAP1 POP SWAP2 SWAP1 POP JUMP JUMPDEST DUP1 PUSH1 0x1 DUP1 DUP5 PUSH2 0x3A7 SWAP2 SWAP1 PUSH2 0x1B6D JUMP JUMPDEST DUP2 SLOAD DUP2 LT PUSH2 0x3B8 JUMPI PUSH2 0x3B7 PUSH2 0x1D58 JUMP JUMPDEST JUMPDEST SWAP1 PUSH1 0x0 MSTORE PUSH1 0x20 PUSH1 0x0 KECCAK256 SWAP1 PUSH1 0x8 MUL ADD PUSH1 0x1 ADD SWAP1 DUP1 MLOAD SWAP1 PUSH1 0x20 ADD SWAP1 PUSH2 0x3DC SWAP3 SWAP2 SWAP1 PUSH2 0x144B JUMP JUMPDEST POP POP POP JUMP JUMPDEST PUSH1 0x0 JUMPDEST PUSH1 0x4 PUSH1 0x0 DUP6 DUP2 MSTORE PUSH1 0x20 ADD SWAP1 DUP2 MSTORE PUSH1 0x20 ADD PUSH1 0x0 KECCAK256 DUP1 SLOAD SWAP1 POP DUP2 LT ISZERO PUSH2 0x5E2 JUMPI DUP2 PUSH20 0xFFFFFFFFFFFFFFFFFFFFFFFFFFFFFFFFFFFFFFFF AND PUSH1 0x4 PUSH1 0x0 PUSH1 0x1 DUP8 PUSH2 0x42A SWAP2 SWAP1 PUSH2 0x1B6D JUMP JUMPDEST DUP2 MSTORE PUSH1 0x20 ADD SWAP1 DUP2 MSTORE PUSH1 0x20 ADD PUSH1 0x0 KECCAK256 DUP3 DUP2 SLOAD DUP2 LT PUSH2 0x44A JUMPI PUSH2 0x449 PUSH2 0x1D58 JUMP JUMPDEST JUMPDEST SWAP1 PUSH1 0x0 MSTORE PUSH1 0x20 PUSH1 0x0 KECCAK256 ADD PUSH1 0x0 SWAP1 SLOAD SWAP1 PUSH2 0x100 EXP SWAP1 DIV PUSH20 0xFFFFFFFFFFFFFFFFFFFFFFFFFFFFFFFFFFFFFFFF AND PUSH20 0xFFFFFFFFFFFFFFFFFFFFFFFFFFFFFFFFFFFFFFFF AND EQ ISZERO PUSH2 0x496 JUMPI PUSH2 0x55F JUMP JUMPDEST PUSH1 0x1 DUP1 PUSH1 0x1 DUP7 PUSH2 0x4A6 SWAP2 SWAP1 PUSH2 0x1B6D JUMP JUMPDEST DUP2 SLOAD DUP2 LT PUSH2 0x4B7 JUMPI PUSH2 0x4B6 PUSH2 0x1D58 JUMP JUMPDEST JUMPDEST SWAP1 PUSH1 0x0 MSTORE PUSH1 0x20 PUSH1 0x0 KECCAK256 SWAP1 PUSH1 0x8 MUL ADD PUSH1 0x5 ADD PUSH1 0x0 DUP3 DUP3 SLOAD PUSH2 0x4D7 SWAP2 SWAP1 PUSH2 0x1B17 JUMP JUMPDEST SWAP3 POP POP DUP2 SWAP1 SSTORE POP PUSH1 0x4 PUSH1 0x0 PUSH1 0x1 DUP7 PUSH2 0x4EF SWAP2 SWAP1 PUSH2 0x1B6D JUMP JUMPDEST DUP2 MSTORE PUSH1 0x20 ADD SWAP1 DUP2 MSTORE PUSH1 0x20 ADD PUSH1 0x0 KECCAK256 DUP3 SWAP1 DUP1 PUSH1 0x1 DUP2 SLOAD ADD DUP1 DUP3 SSTORE DUP1 SWAP2 POP POP PUSH1 0x1 SWAP1 SUB SWAP1 PUSH1 0x0 MSTORE PUSH1 0x20 PUSH1 0x0 KECCAK256 ADD PUSH1 0x0 SWAP1 SWAP2 SWAP1 SWAP2 SWAP1 SWAP2 PUSH2 0x100 EXP DUP2 SLOAD DUP2 PUSH20 0xFFFFFFFFFFFFFFFFFFFFFFFFFFFFFFFFFFFFFFFF MUL NOT AND SWAP1 DUP4 PUSH20 0xFFFFFFFFFFFFFFFFFFFFFFFFFFFFFFFFFFFFFFFF AND MUL OR SWAP1 SSTORE POP JUMPDEST DUP3 PUSH1 0x1 DUP1 DUP7 PUSH2 0x56E SWAP2 SWAP1 PUSH2 0x1B6D JUMP JUMPDEST DUP2 SLOAD DUP2 LT PUSH2 0x57F JUMPI PUSH2 0x57E PUSH2 0x1D58 JUMP JUMPDEST JUMPDEST SWAP1 PUSH1 0x0 MSTORE PUSH1 0x20 PUSH1 0x0 KECCAK256 SWAP1 PUSH1 0x8 MUL ADD PUSH1 0x7 ADD SLOAD PUSH2 0x59B SWAP2 SWAP1 PUSH2 0x1B17 JUMP JUMPDEST PUSH1 0x1 DUP1 DUP7 PUSH2 0x5A9 SWAP2 SWAP1 PUSH2 0x1B6D JUMP JUMPDEST DUP2 SLOAD DUP2 LT PUSH2 0x5BA JUMPI PUSH2 0x5B9 PUSH2 0x1D58 JUMP JUMPDEST JUMPDEST SWAP1 PUSH1 0x0 MSTORE PUSH1 0x20 PUSH1 0x0 KECCAK256 SWAP1 PUSH1 0x8 MUL ADD PUSH1 0x7 ADD DUP2 SWAP1 SSTORE POP DUP1 DUP1 PUSH2 0x5DA SWAP1 PUSH2 0x1C82 JUMP JUMPDEST SWAP2 POP POP PUSH2 0x3E4 JUMP JUMPDEST POP POP POP POP JUMP JUMPDEST PUSH1 0x3 PUSH1 0x1 DUP1 DUP4 PUSH2 0x5F8 SWAP2 SWAP1 PUSH2 0x1B6D JUMP JUMPDEST DUP2 SLOAD DUP2 LT PUSH2 0x609 JUMPI PUSH2 0x608 PUSH2 0x1D58 JUMP JUMPDEST JUMPDEST SWAP1 PUSH1 0x0 MSTORE PUSH1 0x20 PUSH1 0x0 KECCAK256 SWAP1 PUSH1 0x8 MUL ADD PUSH1 0x2 ADD DUP2 SWAP1 SSTORE POP PUSH1 0x1 PUSH1 0x2 PUSH1 0x0 PUSH1 0x1 DUP2 MSTORE PUSH1 0x20 ADD SWAP1 DUP2 MSTORE PUSH1 0x20 ADD PUSH1 0x0 KECCAK256 DUP1 SLOAD SWAP1 POP EQ ISZERO PUSH2 0x706 JUMPI PUSH1 0x2 PUSH1 0x0 PUSH1 0x1 DUP2 MSTORE PUSH1 0x20 ADD SWAP1 DUP2 MSTORE PUSH1 0x20 ADD PUSH1 0x0 KECCAK256 DUP1 SLOAD DUP1 PUSH2 0x662 JUMPI PUSH2 0x661 PUSH2 0x1D29 JUMP JUMPDEST JUMPDEST PUSH1 0x1 SWAP1 SUB DUP2 DUP2 SWAP1 PUSH1 0x0 MSTORE PUSH1 0x20 PUSH1 0x0 KECCAK256 SWAP1 PUSH1 0x8 MUL ADD PUSH1 0x0 DUP1 DUP3 ADD PUSH1 0x0 SWAP1 SSTORE PUSH1 0x1 DUP3 ADD PUSH1 0x0 PUSH2 0x68F SWAP2 SWAP1 PUSH2 0x14D1 JUMP JUMPDEST PUSH1 0x2 DUP3 ADD PUSH1 0x0 SWAP1 SSTORE PUSH1 0x3 DUP3 ADD PUSH1 0x0 PUSH2 0x100 EXP DUP2 SLOAD SWAP1 PUSH20 0xFFFFFFFFFFFFFFFFFFFFFFFFFFFFFFFFFFFFFFFF MUL NOT AND SWAP1 SSTORE PUSH1 0x4 DUP3 ADD PUSH1 0x0 PUSH2 0x100 EXP DUP2 SLOAD SWAP1 PUSH20 0xFFFFFFFFFFFFFFFFFFFFFFFFFFFFFFFFFFFFFFFF MUL NOT AND SWAP1 SSTORE PUSH1 0x5 DUP3 ADD PUSH1 0x0 SWAP1 SSTORE PUSH1 0x6 DUP3 ADD PUSH1 0x0 SWAP1 SSTORE PUSH1 0x7 DUP3 ADD PUSH1 0x0 SWAP1 SSTORE POP POP SWAP1 SSTORE PUSH2 0x9E3 JUMP JUMPDEST PUSH1 0x0 JUMPDEST PUSH1 0x1 PUSH1 0x2 PUSH1 0x0 PUSH1 0x1 DUP2 MSTORE PUSH1 0x20 ADD SWAP1 DUP2 MSTORE PUSH1 0x20 ADD PUSH1 0x0 KECCAK256 DUP1 SLOAD SWAP1 POP PUSH2 0x72D SWAP2 SWAP1 PUSH2 0x1B6D JUMP JUMPDEST DUP2 LT ISZERO PUSH2 0x91E JUMPI DUP2 PUSH1 0x2 PUSH1 0x0 PUSH1 0x1 DUP2 MSTORE PUSH1 0x20 ADD SWAP1 DUP2 MSTORE PUSH1 0x20 ADD PUSH1 0x0 KECCAK256 DUP3 DUP2 SLOAD DUP2 LT PUSH2 0x75B JUMPI PUSH2 0x75A PUSH2 0x1D58 JUMP JUMPDEST JUMPDEST SWAP1 PUSH1 0x0 MSTORE PUSH1 0x20 PUSH1 0x0 KECCAK256 SWAP1 PUSH1 0x8 MUL ADD PUSH1 0x0 ADD SLOAD EQ ISZERO PUSH2 0x90B JUMPI PUSH1 0x2 PUSH1 0x0 PUSH1 0x1 DUP2 MSTORE PUSH1 0x20 ADD SWAP1 DUP2 MSTORE PUSH1 0x20 ADD PUSH1 0x0 KECCAK256 PUSH1 0x1 DUP3 PUSH2 0x794 SWAP2 SWAP1 PUSH2 0x1B17 JUMP JUMPDEST DUP2 SLOAD DUP2 LT PUSH2 0x7A5 JUMPI PUSH2 0x7A4 PUSH2 0x1D58 JUMP JUMPDEST JUMPDEST SWAP1 PUSH1 0x0 MSTORE PUSH1 0x20 PUSH1 0x0 KECCAK256 SWAP1 PUSH1 0x8 MUL ADD PUSH1 0x2 PUSH1 0x0 PUSH1 0x1 DUP2 MSTORE PUSH1 0x20 ADD SWAP1 DUP2 MSTORE PUSH1 0x20 ADD PUSH1 0x0 KECCAK256 DUP3 DUP2 SLOAD DUP2 LT PUSH2 0x7D9 JUMPI PUSH2 0x7D8 PUSH2 0x1D58 JUMP JUMPDEST JUMPDEST SWAP1 PUSH1 0x0 MSTORE PUSH1 0x20 PUSH1 0x0 KECCAK256 SWAP1 PUSH1 0x8 MUL ADD PUSH1 0x0 DUP3 ADD SLOAD DUP2 PUSH1 0x0 ADD SSTORE PUSH1 0x1 DUP3 ADD DUP2 PUSH1 0x1 ADD SWAP1 DUP1 SLOAD PUSH2 0x805 SWAP1 PUSH2 0x1C1F JUMP JUMPDEST PUSH2 0x810 SWAP3 SWAP2 SWAP1 PUSH2 0x1511 JUMP JUMPDEST POP PUSH1 0x2 DUP3 ADD SLOAD DUP2 PUSH1 0x2 ADD SSTORE PUSH1 0x3 DUP3 ADD PUSH1 0x0 SWAP1 SLOAD SWAP1 PUSH2 0x100 EXP SWAP1 DIV PUSH20 0xFFFFFFFFFFFFFFFFFFFFFFFFFFFFFFFFFFFFFFFF AND DUP2 PUSH1 0x3 ADD PUSH1 0x0 PUSH2 0x100 EXP DUP2 SLOAD DUP2 PUSH20 0xFFFFFFFFFFFFFFFFFFFFFFFFFFFFFFFFFFFFFFFF MUL NOT AND SWAP1 DUP4 PUSH20 0xFFFFFFFFFFFFFFFFFFFFFFFFFFFFFFFFFFFFFFFF AND MUL OR SWAP1 SSTORE POP PUSH1 0x4 DUP3 ADD PUSH1 0x0 SWAP1 SLOAD SWAP1 PUSH2 0x100 EXP SWAP1 DIV PUSH20 0xFFFFFFFFFFFFFFFFFFFFFFFFFFFFFFFFFFFFFFFF AND DUP2 PUSH1 0x4 ADD PUSH1 0x0 PUSH2 0x100 EXP DUP2 SLOAD DUP2 PUSH20 0xFFFFFFFFFFFFFFFFFFFFFFFFFFFFFFFFFFFFFFFF MUL NOT AND SWAP1 DUP4 PUSH20 0xFFFFFFFFFFFFFFFFFFFFFFFFFFFFFFFFFFFFFFFF AND MUL OR SWAP1 SSTORE POP PUSH1 0x5 DUP3 ADD SLOAD DUP2 PUSH1 0x5 ADD SSTORE PUSH1 0x6 DUP3 ADD SLOAD DUP2 PUSH1 0x6 ADD SSTORE PUSH1 0x7 DUP3 ADD SLOAD DUP2 PUSH1 0x7 ADD SSTORE SWAP1 POP POP JUMPDEST DUP1 DUP1 PUSH2 0x916 SWAP1 PUSH2 0x1C82 JUMP JUMPDEST SWAP2 POP POP PUSH2 0x709 JUMP JUMPDEST POP PUSH1 0x2 PUSH1 0x0 PUSH1 0x1 DUP2 MSTORE PUSH1 0x20 ADD SWAP1 DUP2 MSTORE PUSH1 0x20 ADD PUSH1 0x0 KECCAK256 DUP1 SLOAD DUP1 PUSH2 0x943 JUMPI PUSH2 0x942 PUSH2 0x1D29 JUMP JUMPDEST JUMPDEST PUSH1 0x1 SWAP1 SUB DUP2 DUP2 SWAP1 PUSH1 0x0 MSTORE PUSH1 0x20 PUSH1 0x0 KECCAK256 SWAP1 PUSH1 0x8 MUL ADD PUSH1 0x0 DUP1 DUP3 ADD PUSH1 0x0 SWAP1 SSTORE PUSH1 0x1 DUP3 ADD PUSH1 0x0 PUSH2 0x970 SWAP2 SWAP1 PUSH2 0x14D1 JUMP JUMPDEST PUSH1 0x2 DUP3 ADD PUSH1 0x0 SWAP1 SSTORE PUSH1 0x3 DUP3 ADD PUSH1 0x0 PUSH2 0x100 EXP DUP2 SLOAD SWAP1 PUSH20 0xFFFFFFFFFFFFFFFFFFFFFFFFFFFFFFFFFFFFFFFF MUL NOT AND SWAP1 SSTORE PUSH1 0x4 DUP3 ADD PUSH1 0x0 PUSH2 0x100 EXP DUP2 SLOAD SWAP1 PUSH20 0xFFFFFFFFFFFFFFFFFFFFFFFFFFFFFFFFFFFFFFFF MUL NOT AND SWAP1 SSTORE PUSH1 0x5 DUP3 ADD PUSH1 0x0 SWAP1 SSTORE PUSH1 0x6 DUP3 ADD PUSH1 0x0 SWAP1 SSTORE PUSH1 0x7 DUP3 ADD PUSH1 0x0 SWAP1 SSTORE POP POP SWAP1 SSTORE JUMPDEST PUSH1 0x2 PUSH1 0x0 PUSH1 0x3 DUP2 MSTORE PUSH1 0x20 ADD SWAP1 DUP2 MSTORE PUSH1 0x20 ADD PUSH1 0x0 KECCAK256 PUSH1 0x1 DUP1 DUP4 PUSH2 0xA05 SWAP2 SWAP1 PUSH2 0x1B6D JUMP JUMPDEST DUP2 SLOAD DUP2 LT PUSH2 0xA16 JUMPI PUSH2 0xA15 PUSH2 0x1D58 JUMP JUMPDEST JUMPDEST SWAP1 PUSH1 0x0 MSTORE PUSH1 0x20 PUSH1 0x0 KECCAK256 SWAP1 PUSH1 0x8 MUL ADD SWAP1 DUP1 PUSH1 0x1 DUP2 SLOAD ADD DUP1 DUP3 SSTORE DUP1 SWAP2 POP POP PUSH1 0x1 SWAP1 SUB SWAP1 PUSH1 0x0 MSTORE PUSH1 0x20 PUSH1 0x0 KECCAK256 SWAP1 PUSH1 0x8 MUL ADD PUSH1 0x0 SWAP1 SWAP2 SWAP1 SWAP2 SWAP1 SWAP2 POP PUSH1 0x0 DUP3 ADD SLOAD DUP2 PUSH1 0x0 ADD SSTORE PUSH1 0x1 DUP3 ADD DUP2 PUSH1 0x1 ADD SWAP1 DUP1 SLOAD PUSH2 0xA6B SWAP1 PUSH2 0x1C1F JUMP JUMPDEST PUSH2 0xA76 SWAP3 SWAP2 SWAP1 PUSH2 0x1511 JUMP JUMPDEST POP PUSH1 0x2 DUP3 ADD SLOAD DUP2 PUSH1 0x2 ADD SSTORE PUSH1 0x3 DUP3 ADD PUSH1 0x0 SWAP1 SLOAD SWAP1 PUSH2 0x100 EXP SWAP1 DIV PUSH20 0xFFFFFFFFFFFFFFFFFFFFFFFFFFFFFFFFFFFFFFFF AND DUP2 PUSH1 0x3 ADD PUSH1 0x0 PUSH2 0x100 EXP DUP2 SLOAD DUP2 PUSH20 0xFFFFFFFFFFFFFFFFFFFFFFFFFFFFFFFFFFFFFFFF MUL NOT AND SWAP1 DUP4 PUSH20 0xFFFFFFFFFFFFFFFFFFFFFFFFFFFFFFFFFFFFFFFF AND MUL OR SWAP1 SSTORE POP PUSH1 0x4 DUP3 ADD PUSH1 0x0 SWAP1 SLOAD SWAP1 PUSH2 0x100 EXP SWAP1 DIV PUSH20 0xFFFFFFFFFFFFFFFFFFFFFFFFFFFFFFFFFFFFFFFF AND DUP2 PUSH1 0x4 ADD PUSH1 0x0 PUSH2 0x100 EXP DUP2 SLOAD DUP2 PUSH20 0xFFFFFFFFFFFFFFFFFFFFFFFFFFFFFFFFFFFFFFFF MUL NOT AND SWAP1 DUP4 PUSH20 0xFFFFFFFFFFFFFFFFFFFFFFFFFFFFFFFFFFFFFFFF AND MUL OR SWAP1 SSTORE POP PUSH1 0x5 DUP3 ADD SLOAD DUP2 PUSH1 0x5 ADD SSTORE PUSH1 0x6 DUP3 ADD SLOAD DUP2 PUSH1 0x6 ADD SSTORE PUSH1 0x7 DUP3 ADD SLOAD DUP2 PUSH1 0x7 ADD SSTORE POP POP POP JUMP JUMPDEST PUSH1 0x1 DUP2 DUP2 SLOAD DUP2 LT PUSH2 0xB82 JUMPI PUSH1 0x0 DUP1 REVERT JUMPDEST SWAP1 PUSH1 0x0 MSTORE PUSH1 0x20 PUSH1 0x0 KECCAK256 SWAP1 PUSH1 0x8 MUL ADD PUSH1 0x0 SWAP2 POP SWAP1 POP DUP1 PUSH1 0x0 ADD SLOAD SWAP1 DUP1 PUSH1 0x1 ADD DUP1 SLOAD PUSH2 0xBAB SWAP1 PUSH2 0x1C1F JUMP JUMPDEST DUP1 PUSH1 0x1F ADD PUSH1 0x20 DUP1 SWAP2 DIV MUL PUSH1 0x20 ADD PUSH1 0x40 MLOAD SWAP1 DUP2 ADD PUSH1 0x40 MSTORE DUP1 SWAP3 SWAP2 SWAP1 DUP2 DUP2 MSTORE PUSH1 0x20 ADD DUP3 DUP1 SLOAD PUSH2 0xBD7 SWAP1 PUSH2 0x1C1F JUMP JUMPDEST DUP1 ISZERO PUSH2 0xC24 JUMPI DUP1 PUSH1 0x1F LT PUSH2 0xBF9 JUMPI PUSH2 0x100 DUP1 DUP4 SLOAD DIV MUL DUP4 MSTORE SWAP2 PUSH1 0x20 ADD SWAP2 PUSH2 0xC24 JUMP JUMPDEST DUP3 ADD SWAP2 SWAP1 PUSH1 0x0 MSTORE PUSH1 0x20 PUSH1 0x0 KECCAK256 SWAP1 JUMPDEST DUP2 SLOAD DUP2 MSTORE SWAP1 PUSH1 0x1 ADD SWAP1 PUSH1 0x20 ADD DUP1 DUP4 GT PUSH2 0xC07 JUMPI DUP3 SWAP1 SUB PUSH1 0x1F AND DUP3 ADD SWAP2 JUMPDEST POP POP POP POP POP SWAP1 DUP1 PUSH1 0x2 ADD SLOAD SWAP1 DUP1 PUSH1 0x3 ADD PUSH1 0x0 SWAP1 SLOAD SWAP1 PUSH2 0x100 EXP SWAP1 DIV PUSH20 0xFFFFFFFFFFFFFFFFFFFFFFFFFFFFFFFFFFFFFFFF AND SWAP1 DUP1 PUSH1 0x4 ADD PUSH1 0x0 SWAP1 SLOAD SWAP1 PUSH2 0x100 EXP SWAP1 DIV PUSH20 0xFFFFFFFFFFFFFFFFFFFFFFFFFFFFFFFFFFFFFFFF AND SWAP1 DUP1 PUSH1 0x5 ADD SLOAD SWAP1 DUP1 PUSH1 0x6 ADD SLOAD SWAP1 DUP1 PUSH1 0x7 ADD SLOAD SWAP1 POP DUP9 JUMP JUMPDEST PUSH1 0x60 PUSH1 0x0 DUP3 EQ ISZERO PUSH2 0xE6D JUMPI PUSH1 0x1 DUP1 SLOAD DUP1 PUSH1 0x20 MUL PUSH1 0x20 ADD PUSH1 0x40 MLOAD SWAP1 DUP2 ADD PUSH1 0x40 MSTORE DUP1 SWAP3 SWAP2 SWAP1 DUP2 DUP2 MSTORE PUSH1 0x20 ADD PUSH1 0x0 SWAP1 JUMPDEST DUP3 DUP3 LT ISZERO PUSH2 0xE62 JUMPI DUP4 DUP3 SWAP1 PUSH1 0x0 MSTORE PUSH1 0x20 PUSH1 0x0 KECCAK256 SWAP1 PUSH1 0x8 MUL ADD PUSH1 0x40 MLOAD DUP1 PUSH2 0x100 ADD PUSH1 0x40 MSTORE SWAP1 DUP2 PUSH1 0x0 DUP3 ADD SLOAD DUP2 MSTORE PUSH1 0x20 ADD PUSH1 0x1 DUP3 ADD DUP1 SLOAD PUSH2 0xCFD SWAP1 PUSH2 0x1C1F JUMP JUMPDEST DUP1 PUSH1 0x1F ADD PUSH1 0x20 DUP1 SWAP2 DIV MUL PUSH1 0x20 ADD PUSH1 0x40 MLOAD SWAP1 DUP2 ADD PUSH1 0x40 MSTORE DUP1 SWAP3 SWAP2 SWAP1 DUP2 DUP2 MSTORE PUSH1 0x20 ADD DUP3 DUP1 SLOAD PUSH2 0xD29 SWAP1 PUSH2 0x1C1F JUMP JUMPDEST DUP1 ISZERO PUSH2 0xD76 JUMPI DUP1 PUSH1 0x1F LT PUSH2 0xD4B JUMPI PUSH2 0x100 DUP1 DUP4 SLOAD DIV MUL DUP4 MSTORE SWAP2 PUSH1 0x20 ADD SWAP2 PUSH2 0xD76 JUMP JUMPDEST DUP3 ADD SWAP2 SWAP1 PUSH1 0x0 MSTORE PUSH1 0x20 PUSH1 0x0 KECCAK256 SWAP1 JUMPDEST DUP2 SLOAD DUP2 MSTORE SWAP1 PUSH1 0x1 ADD SWAP1 PUSH1 0x20 ADD DUP1 DUP4 GT PUSH2 0xD59 JUMPI DUP3 SWAP1 SUB PUSH1 0x1F AND DUP3 ADD SWAP2 JUMPDEST POP POP POP POP POP DUP2 MSTORE PUSH1 0x20 ADD PUSH1 0x2 DUP3 ADD SLOAD DUP2 MSTORE PUSH1 0x20 ADD PUSH1 0x3 DUP3 ADD PUSH1 0x0 SWAP1 SLOAD SWAP1 PUSH2 0x100 EXP SWAP1 DIV PUSH20 0xFFFFFFFFFFFFFFFFFFFFFFFFFFFFFFFFFFFFFFFF AND PUSH20 0xFFFFFFFFFFFFFFFFFFFFFFFFFFFFFFFFFFFFFFFF AND PUSH20 0xFFFFFFFFFFFFFFFFFFFFFFFFFFFFFFFFFFFFFFFF AND DUP2 MSTORE PUSH1 0x20 ADD PUSH1 0x4 DUP3 ADD PUSH1 0x0 SWAP1 SLOAD SWAP1 PUSH2 0x100 EXP SWAP1 DIV PUSH20 0xFFFFFFFFFFFFFFFFFFFFFFFFFFFFFFFFFFFFFFFF AND PUSH20 0xFFFFFFFFFFFFFFFFFFFFFFFFFFFFFFFFFFFFFFFF AND PUSH20 0xFFFFFFFFFFFFFFFFFFFFFFFFFFFFFFFFFFFFFFFF AND DUP2 MSTORE PUSH1 0x20 ADD PUSH1 0x5 DUP3 ADD SLOAD DUP2 MSTORE PUSH1 0x20 ADD PUSH1 0x6 DUP3 ADD SLOAD DUP2 MSTORE PUSH1 0x20 ADD PUSH1 0x7 DUP3 ADD SLOAD DUP2 MSTORE POP POP DUP2 MSTORE PUSH1 0x20 ADD SWAP1 PUSH1 0x1 ADD SWAP1 PUSH2 0xCBF JUMP JUMPDEST POP POP POP POP SWAP1 POP PUSH2 0x104A JUMP JUMPDEST PUSH1 0x2 PUSH1 0x0 DUP4 DUP2 MSTORE PUSH1 0x20 ADD SWAP1 DUP2 MSTORE PUSH1 0x20 ADD PUSH1 0x0 KECCAK256 DUP1 SLOAD DUP1 PUSH1 0x20 MUL PUSH1 0x20 ADD PUSH1 0x40 MLOAD SWAP1 DUP2 ADD PUSH1 0x40 MSTORE DUP1 SWAP3 SWAP2 SWAP1 DUP2 DUP2 MSTORE PUSH1 0x20 ADD PUSH1 0x0 SWAP1 JUMPDEST DUP3 DUP3 LT ISZERO PUSH2 0x1043 JUMPI DUP4 DUP3 SWAP1 PUSH1 0x0 MSTORE PUSH1 0x20 PUSH1 0x0 KECCAK256 SWAP1 PUSH1 0x8 MUL ADD PUSH1 0x40 MLOAD DUP1 PUSH2 0x100 ADD PUSH1 0x40 MSTORE SWAP1 DUP2 PUSH1 0x0 DUP3 ADD SLOAD DUP2 MSTORE PUSH1 0x20 ADD PUSH1 0x1 DUP3 ADD DUP1 SLOAD PUSH2 0xEDE SWAP1 PUSH2 0x1C1F JUMP JUMPDEST DUP1 PUSH1 0x1F ADD PUSH1 0x20 DUP1 SWAP2 DIV MUL PUSH1 0x20 ADD PUSH1 0x40 MLOAD SWAP1 DUP2 ADD PUSH1 0x40 MSTORE DUP1 SWAP3 SWAP2 SWAP1 DUP2 DUP2 MSTORE PUSH1 0x20 ADD DUP3 DUP1 SLOAD PUSH2 0xF0A SWAP1 PUSH2 0x1C1F JUMP JUMPDEST DUP1 ISZERO PUSH2 0xF57 JUMPI DUP1 PUSH1 0x1F LT PUSH2 0xF2C JUMPI PUSH2 0x100 DUP1 DUP4 SLOAD DIV MUL DUP4 MSTORE SWAP2 PUSH1 0x20 ADD SWAP2 PUSH2 0xF57 JUMP JUMPDEST DUP3 ADD SWAP2 SWAP1 PUSH1 0x0 MSTORE PUSH1 0x20 PUSH1 0x0 KECCAK256 SWAP1 JUMPDEST DUP2 SLOAD DUP2 MSTORE SWAP1 PUSH1 0x1 ADD SWAP1 PUSH1 0x20 ADD DUP1 DUP4 GT PUSH2 0xF3A JUMPI DUP3 SWAP1 SUB PUSH1 0x1F AND DUP3 ADD SWAP2 JUMPDEST POP POP POP POP POP DUP2 MSTORE PUSH1 0x20 ADD PUSH1 0x2 DUP3 ADD SLOAD DUP2 MSTORE PUSH1 0x20 ADD PUSH1 0x3 DUP3 ADD PUSH1 0x0 SWAP1 SLOAD SWAP1 PUSH2 0x100 EXP SWAP1 DIV PUSH20 0xFFFFFFFFFFFFFFFFFFFFFFFFFFFFFFFFFFFFFFFF AND PUSH20 0xFFFFFFFFFFFFFFFFFFFFFFFFFFFFFFFFFFFFFFFF AND PUSH20 0xFFFFFFFFFFFFFFFFFFFFFFFFFFFFFFFFFFFFFFFF AND DUP2 MSTORE PUSH1 0x20 ADD PUSH1 0x4 DUP3 ADD PUSH1 0x0 SWAP1 SLOAD SWAP1 PUSH2 0x100 EXP SWAP1 DIV PUSH20 0xFFFFFFFFFFFFFFFFFFFFFFFFFFFFFFFFFFFFFFFF AND PUSH20 0xFFFFFFFFFFFFFFFFFFFFFFFFFFFFFFFFFFFFFFFF AND PUSH20 0xFFFFFFFFFFFFFFFFFFFFFFFFFFFFFFFFFFFFFFFF AND DUP2 MSTORE PUSH1 0x20 ADD PUSH1 0x5 DUP3 ADD SLOAD DUP2 MSTORE PUSH1 0x20 ADD PUSH1 0x6 DUP3 ADD SLOAD DUP2 MSTORE PUSH1 0x20 ADD PUSH1 0x7 DUP3 ADD SLOAD DUP2 MSTORE POP POP DUP2 MSTORE PUSH1 0x20 ADD SWAP1 PUSH1 0x1 ADD SWAP1 PUSH2 0xEA0 JUMP JUMPDEST POP POP POP POP SWAP1 POP JUMPDEST SWAP2 SWAP1 POP JUMP JUMPDEST PUSH1 0x0 DUP1 DUP2 SLOAD DUP1 SWAP3 SWAP2 SWAP1 PUSH2 0x1061 SWAP1 PUSH2 0x1C82 JUMP JUMPDEST SWAP2 SWAP1 POP SSTORE POP PUSH1 0x0 PUSH1 0x40 MLOAD DUP1 PUSH2 0x100 ADD PUSH1 0x40 MSTORE DUP1 PUSH1 0x0 SLOAD DUP2 MSTORE PUSH1 0x20 ADD DUP6 DUP2 MSTORE PUSH1 0x20 ADD PUSH1 0x1 DUP2 MSTORE PUSH1 0x20 ADD CALLER PUSH20 0xFFFFFFFFFFFFFFFFFFFFFFFFFFFFFFFFFFFFFFFF AND DUP2 MSTORE PUSH1 0x20 ADD DUP5 PUSH20 0xFFFFFFFFFFFFFFFFFFFFFFFFFFFFFFFFFFFFFFFF AND DUP2 MSTORE PUSH1 0x20 ADD PUSH1 0x0 DUP2 MSTORE PUSH1 0x20 ADD DUP4 DUP2 MSTORE PUSH1 0x20 ADD PUSH1 0x0 DUP2 MSTORE POP SWAP1 POP PUSH1 0x1 DUP2 SWAP1 DUP1 PUSH1 0x1 DUP2 SLOAD ADD DUP1 DUP3 SSTORE DUP1 SWAP2 POP POP PUSH1 0x1 SWAP1 SUB SWAP1 PUSH1 0x0 MSTORE PUSH1 0x20 PUSH1 0x0 KECCAK256 SWAP1 PUSH1 0x8 MUL ADD PUSH1 0x0 SWAP1 SWAP2 SWAP1 SWAP2 SWAP1 SWAP2 POP PUSH1 0x0 DUP3 ADD MLOAD DUP2 PUSH1 0x0 ADD SSTORE PUSH1 0x20 DUP3 ADD MLOAD DUP2 PUSH1 0x1 ADD SWAP1 DUP1 MLOAD SWAP1 PUSH1 0x20 ADD SWAP1 PUSH2 0x1127 SWAP3 SWAP2 SWAP1 PUSH2 0x144B JUMP JUMPDEST POP PUSH1 0x40 DUP3 ADD MLOAD DUP2 PUSH1 0x2 ADD SSTORE PUSH1 0x60 DUP3 ADD MLOAD DUP2 PUSH1 0x3 ADD PUSH1 0x0 PUSH2 0x100 EXP DUP2 SLOAD DUP2 PUSH20 0xFFFFFFFFFFFFFFFFFFFFFFFFFFFFFFFFFFFFFFFF MUL NOT AND SWAP1 DUP4 PUSH20 0xFFFFFFFFFFFFFFFFFFFFFFFFFFFFFFFFFFFFFFFF AND MUL OR SWAP1 SSTORE POP PUSH1 0x80 DUP3 ADD MLOAD DUP2 PUSH1 0x4 ADD PUSH1 0x0 PUSH2 0x100 EXP DUP2 SLOAD DUP2 PUSH20 0xFFFFFFFFFFFFFFFFFFFFFFFFFFFFFFFFFFFFFFFF MUL NOT AND SWAP1 DUP4 PUSH20 0xFFFFFFFFFFFFFFFFFFFFFFFFFFFFFFFFFFFFFFFF AND MUL OR SWAP1 SSTORE POP PUSH1 0xA0 DUP3 ADD MLOAD DUP2 PUSH1 0x5 ADD SSTORE PUSH1 0xC0 DUP3 ADD MLOAD DUP2 PUSH1 0x6 ADD SSTORE PUSH1 0xE0 DUP3 ADD MLOAD DUP2 PUSH1 0x7 ADD SSTORE POP POP PUSH1 0x2 PUSH1 0x0 PUSH1 0x1 DUP2 MSTORE PUSH1 0x20 ADD SWAP1 DUP2 MSTORE PUSH1 0x20 ADD PUSH1 0x0 KECCAK256 DUP2 SWAP1 DUP1 PUSH1 0x1 DUP2 SLOAD ADD DUP1 DUP3 SSTORE DUP1 SWAP2 POP POP PUSH1 0x1 SWAP1 SUB SWAP1 PUSH1 0x0 MSTORE PUSH1 0x20 PUSH1 0x0 KECCAK256 SWAP1 PUSH1 0x8 MUL ADD PUSH1 0x0 SWAP1 SWAP2 SWAP1 SWAP2 SWAP1 SWAP2 POP PUSH1 0x0 DUP3 ADD MLOAD DUP2 PUSH1 0x0 ADD SSTORE PUSH1 0x20 DUP3 ADD MLOAD DUP2 PUSH1 0x1 ADD SWAP1 DUP1 MLOAD SWAP1 PUSH1 0x20 ADD SWAP1 PUSH2 0x1244 SWAP3 SWAP2 SWAP1 PUSH2 0x144B JUMP JUMPDEST POP PUSH1 0x40 DUP3 ADD MLOAD DUP2 PUSH1 0x2 ADD SSTORE PUSH1 0x60 DUP3 ADD MLOAD DUP2 PUSH1 0x3 ADD PUSH1 0x0 PUSH2 0x100 EXP DUP2 SLOAD DUP2 PUSH20 0xFFFFFFFFFFFFFFFFFFFFFFFFFFFFFFFFFFFFFFFF MUL NOT AND SWAP1 DUP4 PUSH20 0xFFFFFFFFFFFFFFFFFFFFFFFFFFFFFFFFFFFFFFFF AND MUL OR SWAP1 SSTORE POP PUSH1 0x80 DUP3 ADD MLOAD DUP2 PUSH1 0x4 ADD PUSH1 0x0 PUSH2 0x100 EXP DUP2 SLOAD DUP2 PUSH20 0xFFFFFFFFFFFFFFFFFFFFFFFFFFFFFFFFFFFFFFFF MUL NOT AND SWAP1 DUP4 PUSH20 0xFFFFFFFFFFFFFFFFFFFFFFFFFFFFFFFFFFFFFFFF AND MUL OR SWAP1 SSTORE POP PUSH1 0xA0 DUP3 ADD MLOAD DUP2 PUSH1 0x5 ADD SSTORE PUSH1 0xC0 DUP3 ADD MLOAD DUP2 PUSH1 0x6 ADD SSTORE PUSH1 0xE0 DUP3 ADD MLOAD DUP2 PUSH1 0x7 ADD SSTORE POP POP PUSH1 0x3 PUSH1 0x0 CALLER PUSH20 0xFFFFFFFFFFFFFFFFFFFFFFFFFFFFFFFFFFFFFFFF AND PUSH20 0xFFFFFFFFFFFFFFFFFFFFFFFFFFFFFFFFFFFFFFFF AND DUP2 MSTORE PUSH1 0x20 ADD SWAP1 DUP2 MSTORE PUSH1 0x20 ADD PUSH1 0x0 KECCAK256 DUP2 SWAP1 DUP1 PUSH1 0x1 DUP2 SLOAD ADD DUP1 DUP3 SSTORE DUP1 SWAP2 POP POP PUSH1 0x1 SWAP1 SUB SWAP1 PUSH1 0x0 MSTORE PUSH1 0x20 PUSH1 0x0 KECCAK256 SWAP1 PUSH1 0x8 MUL ADD PUSH1 0x0 SWAP1 SWAP2 SWAP1 SWAP2 SWAP1 SWAP2 POP PUSH1 0x0 DUP3 ADD MLOAD DUP2 PUSH1 0x0 ADD SSTORE PUSH1 0x20 DUP3 ADD MLOAD DUP2 PUSH1 0x1 ADD SWAP1 DUP1 MLOAD SWAP1 PUSH1 0x20 ADD SWAP1 PUSH2 0x138C SWAP3 SWAP2 SWAP1 PUSH2 0x144B JUMP JUMPDEST POP PUSH1 0x40 DUP3 ADD MLOAD DUP2 PUSH1 0x2 ADD SSTORE PUSH1 0x60 DUP3 ADD MLOAD DUP2 PUSH1 0x3 ADD PUSH1 0x0 PUSH2 0x100 EXP DUP2 SLOAD DUP2 PUSH20 0xFFFFFFFFFFFFFFFFFFFFFFFFFFFFFFFFFFFFFFFF MUL NOT AND SWAP1 DUP4 PUSH20 0xFFFFFFFFFFFFFFFFFFFFFFFFFFFFFFFFFFFFFFFF AND MUL OR SWAP1 SSTORE POP PUSH1 0x80 DUP3 ADD MLOAD DUP2 PUSH1 0x4 ADD PUSH1 0x0 PUSH2 0x100 EXP DUP2 SLOAD DUP2 PUSH20 0xFFFFFFFFFFFFFFFFFFFFFFFFFFFFFFFFFFFFFFFF MUL NOT AND SWAP1 DUP4 PUSH20 0xFFFFFFFFFFFFFFFFFFFFFFFFFFFFFFFFFFFFFFFF AND MUL OR SWAP1 SSTORE POP PUSH1 0xA0 DUP3 ADD MLOAD DUP2 PUSH1 0x5 ADD SSTORE PUSH1 0xC0 DUP3 ADD MLOAD DUP2 PUSH1 0x6 ADD SSTORE PUSH1 0xE0 DUP3 ADD MLOAD DUP2 PUSH1 0x7 ADD SSTORE POP POP POP POP POP POP JUMP JUMPDEST DUP3 DUP1 SLOAD PUSH2 0x1457 SWAP1 PUSH2 0x1C1F JUMP JUMPDEST SWAP1 PUSH1 0x0 MSTORE PUSH1 0x20 PUSH1 0x0 KECCAK256 SWAP1 PUSH1 0x1F ADD PUSH1 0x20 SWAP1 DIV DUP2 ADD SWAP3 DUP3 PUSH2 0x1479 JUMPI PUSH1 0x0 DUP6 SSTORE PUSH2 0x14C0 JUMP JUMPDEST DUP3 PUSH1 0x1F LT PUSH2 0x1492 JUMPI DUP1 MLOAD PUSH1 0xFF NOT AND DUP4 DUP1 ADD OR DUP6 SSTORE PUSH2 0x14C0 JUMP JUMPDEST DUP3 DUP1 ADD PUSH1 0x1 ADD DUP6 SSTORE DUP3 ISZERO PUSH2 0x14C0 JUMPI SWAP2 DUP3 ADD JUMPDEST DUP3 DUP2 GT ISZERO PUSH2 0x14BF JUMPI DUP3 MLOAD DUP3 SSTORE SWAP2 PUSH1 0x20 ADD SWAP2 SWAP1 PUSH1 0x1 ADD SWAP1 PUSH2 0x14A4 JUMP JUMPDEST JUMPDEST POP SWAP1 POP PUSH2 0x14CD SWAP2 SWAP1 PUSH2 0x159E JUMP JUMPDEST POP SWAP1 JUMP JUMPDEST POP DUP1 SLOAD PUSH2 0x14DD SWAP1 PUSH2 0x1C1F JUMP JUMPDEST PUSH1 0x0 DUP3 SSTORE DUP1 PUSH1 0x1F LT PUSH2 0x14EF JUMPI POP PUSH2 0x150E JUMP JUMPDEST PUSH1 0x1F ADD PUSH1 0x20 SWAP1 DIV SWAP1 PUSH1 0x0 MSTORE PUSH1 0x20 PUSH1 0x0 KECCAK256 SWAP1 DUP2 ADD SWAP1 PUSH2 0x150D SWAP2 SWAP1 PUSH2 0x159E JUMP JUMPDEST JUMPDEST POP JUMP JUMPDEST DUP3 DUP1 SLOAD PUSH2 0x151D SWAP1 PUSH2 0x1C1F JUMP JUMPDEST SWAP1 PUSH1 0x0 MSTORE PUSH1 0x20 PUSH1 0x0 KECCAK256 SWAP1 PUSH1 0x1F ADD PUSH1 0x20 SWAP1 DIV DUP2 ADD SWAP3 DUP3 PUSH2 0x153F JUMPI PUSH1 0x0 DUP6 SSTORE PUSH2 0x158D JUMP JUMPDEST DUP3 PUSH1 0x1F LT PUSH2 0x1550 JUMPI DUP1 SLOAD DUP6 SSTORE PUSH2 0x158D JUMP JUMPDEST DUP3 DUP1 ADD PUSH1 0x1 ADD DUP6 SSTORE DUP3 ISZERO PUSH2 0x158D JUMPI PUSH1 0x0 MSTORE PUSH1 0x20 PUSH1 0x0 KECCAK256 SWAP2 PUSH1 0x1F ADD PUSH1 0x20 SWAP1 DIV DUP3 ADD JUMPDEST DUP3 DUP2 GT ISZERO PUSH2 0x158C JUMPI DUP3 SLOAD DUP3 SSTORE SWAP2 PUSH1 0x1 ADD SWAP2 SWAP1 PUSH1 0x1 ADD SWAP1 PUSH2 0x1571 JUMP JUMPDEST JUMPDEST POP SWAP1 POP PUSH2 0x159A SWAP2 SWAP1 PUSH2 0x159E JUMP JUMPDEST POP SWAP1 JUMP JUMPDEST JUMPDEST DUP1 DUP3 GT ISZERO PUSH2 0x15B7 JUMPI PUSH1 0x0 DUP2 PUSH1 0x0 SWAP1 SSTORE POP PUSH1 0x1 ADD PUSH2 0x159F JUMP JUMPDEST POP SWAP1 JUMP JUMPDEST PUSH1 0x0 PUSH2 0x15CE PUSH2 0x15C9 DUP5 PUSH2 0x1A80 JUMP JUMPDEST PUSH2 0x1A5B JUMP JUMPDEST SWAP1 POP DUP3 DUP2 MSTORE PUSH1 0x20 DUP2 ADD DUP5 DUP5 DUP5 ADD GT ISZERO PUSH2 0x15EA JUMPI PUSH2 0x15E9 PUSH2 0x1DBB JUMP JUMPDEST JUMPDEST PUSH2 0x15F5 DUP5 DUP3 DUP6 PUSH2 0x1BDD JUMP JUMPDEST POP SWAP4 SWAP3 POP POP POP JUMP JUMPDEST PUSH1 0x0 DUP2 CALLDATALOAD SWAP1 POP PUSH2 0x160C DUP2 PUSH2 0x1DDB JUMP JUMPDEST SWAP3 SWAP2 POP POP JUMP JUMPDEST PUSH1 0x0 DUP3 PUSH1 0x1F DUP4 ADD SLT PUSH2 0x1627 JUMPI PUSH2 0x1626 PUSH2 0x1DB6 JUMP JUMPDEST JUMPDEST DUP2 CALLDATALOAD PUSH2 0x1637 DUP5 DUP3 PUSH1 0x20 DUP7 ADD PUSH2 0x15BB JUMP JUMPDEST SWAP2 POP POP SWAP3 SWAP2 POP POP JUMP JUMPDEST PUSH1 0x0 DUP2 CALLDATALOAD SWAP1 POP PUSH2 0x164F DUP2 PUSH2 0x1DF2 JUMP JUMPDEST SWAP3 SWAP2 POP POP JUMP JUMPDEST PUSH1 0x0 PUSH1 0x20 DUP3 DUP5 SUB SLT ISZERO PUSH2 0x166B JUMPI PUSH2 0x166A PUSH2 0x1DC5 JUMP JUMPDEST JUMPDEST PUSH1 0x0 PUSH2 0x1679 DUP5 DUP3 DUP6 ADD PUSH2 0x15FD JUMP JUMPDEST SWAP2 POP POP SWAP3 SWAP2 POP POP JUMP JUMPDEST PUSH1 0x0 DUP1 PUSH1 0x0 PUSH1 0x60 DUP5 DUP7 SUB SLT ISZERO PUSH2 0x169B JUMPI PUSH2 0x169A PUSH2 0x1DC5 JUMP JUMPDEST JUMPDEST PUSH1 0x0 DUP5 ADD CALLDATALOAD PUSH8 0xFFFFFFFFFFFFFFFF DUP2 GT ISZERO PUSH2 0x16B9 JUMPI PUSH2 0x16B8 PUSH2 0x1DC0 JUMP JUMPDEST JUMPDEST PUSH2 0x16C5 DUP7 DUP3 DUP8 ADD PUSH2 0x1612 JUMP JUMPDEST SWAP4 POP POP PUSH1 0x20 PUSH2 0x16D6 DUP7 DUP3 DUP8 ADD PUSH2 0x15FD JUMP JUMPDEST SWAP3 POP POP PUSH1 0x40 PUSH2 0x16E7 DUP7 DUP3 DUP8 ADD PUSH2 0x1640 JUMP JUMPDEST SWAP2 POP POP SWAP3 POP SWAP3 POP SWAP3 JUMP JUMPDEST PUSH1 0x0 PUSH1 0x20 DUP3 DUP5 SUB SLT ISZERO PUSH2 0x1707 JUMPI PUSH2 0x1706 PUSH2 0x1DC5 JUMP JUMPDEST JUMPDEST PUSH1 0x0 PUSH2 0x1715 DUP5 DUP3 DUP6 ADD PUSH2 0x1640 JUMP JUMPDEST SWAP2 POP POP SWAP3 SWAP2 POP POP JUMP JUMPDEST PUSH1 0x0 DUP1 PUSH1 0x40 DUP4 DUP6 SUB SLT ISZERO PUSH2 0x1735 JUMPI PUSH2 0x1734 PUSH2 0x1DC5 JUMP JUMPDEST JUMPDEST PUSH1 0x0 PUSH2 0x1743 DUP6 DUP3 DUP7 ADD PUSH2 0x1640 JUMP JUMPDEST SWAP3 POP POP PUSH1 0x20 DUP4 ADD CALLDATALOAD PUSH8 0xFFFFFFFFFFFFFFFF DUP2 GT ISZERO PUSH2 0x1764 JUMPI PUSH2 0x1763 PUSH2 0x1DC0 JUMP JUMPDEST JUMPDEST PUSH2 0x1770 DUP6 DUP3 DUP7 ADD PUSH2 0x1612 JUMP JUMPDEST SWAP2 POP POP SWAP3 POP SWAP3 SWAP1 POP JUMP JUMPDEST PUSH1 0x0 DUP1 PUSH1 0x0 PUSH1 0x60 DUP5 DUP7 SUB SLT ISZERO PUSH2 0x1793 JUMPI PUSH2 0x1792 PUSH2 0x1DC5 JUMP JUMPDEST JUMPDEST PUSH1 0x0 PUSH2 0x17A1 DUP7 DUP3 DUP8 ADD PUSH2 0x1640 JUMP JUMPDEST SWAP4 POP POP PUSH1 0x20 PUSH2 0x17B2 DUP7 DUP3 DUP8 ADD PUSH2 0x1640 JUMP JUMPDEST SWAP3 POP POP PUSH1 0x40 PUSH2 0x17C3 DUP7 DUP3 DUP8 ADD PUSH2 0x15FD JUMP JUMPDEST SWAP2 POP POP SWAP3 POP SWAP3 POP SWAP3 JUMP JUMPDEST PUSH1 0x0 PUSH2 0x17D9 DUP4 DUP4 PUSH2 0x18E6 JUMP JUMPDEST SWAP1 POP SWAP3 SWAP2 POP POP JUMP JUMPDEST PUSH2 0x17EA DUP2 PUSH2 0x1BA1 JUMP JUMPDEST DUP3 MSTORE POP POP JUMP JUMPDEST PUSH2 0x17F9 DUP2 PUSH2 0x1BA1 JUMP JUMPDEST DUP3 MSTORE POP POP JUMP JUMPDEST PUSH1 0x0 PUSH2 0x180A DUP3 PUSH2 0x1AC1 JUMP JUMPDEST PUSH2 0x1814 DUP2 DUP6 PUSH2 0x1AE4 JUMP JUMPDEST SWAP4 POP DUP4 PUSH1 0x20 DUP3 MUL DUP6 ADD PUSH2 0x1826 DUP6 PUSH2 0x1AB1 JUMP JUMPDEST DUP1 PUSH1 0x0 JUMPDEST DUP6 DUP2 LT ISZERO PUSH2 0x1862 JUMPI DUP5 DUP5 SUB DUP10 MSTORE DUP2 MLOAD PUSH2 0x1843 DUP6 DUP3 PUSH2 0x17CD JUMP JUMPDEST SWAP5 POP PUSH2 0x184E DUP4 PUSH2 0x1AD7 JUMP JUMPDEST SWAP3 POP PUSH1 0x20 DUP11 ADD SWAP10 POP POP PUSH1 0x1 DUP2 ADD SWAP1 POP PUSH2 0x182A JUMP JUMPDEST POP DUP3 SWAP8 POP DUP8 SWAP6 POP POP POP POP POP POP SWAP3 SWAP2 POP POP JUMP JUMPDEST PUSH1 0x0 PUSH2 0x187F DUP3 PUSH2 0x1ACC JUMP JUMPDEST PUSH2 0x1889 DUP2 DUP6 PUSH2 0x1AF5 JUMP JUMPDEST SWAP4 POP PUSH2 0x1899 DUP2 DUP6 PUSH1 0x20 DUP7 ADD PUSH2 0x1BEC JUMP JUMPDEST PUSH2 0x18A2 DUP2 PUSH2 0x1DCA JUMP JUMPDEST DUP5 ADD SWAP2 POP POP SWAP3 SWAP2 POP POP JUMP JUMPDEST PUSH1 0x0 PUSH2 0x18B8 DUP3 PUSH2 0x1ACC JUMP JUMPDEST PUSH2 0x18C2 DUP2 DUP6 PUSH2 0x1B06 JUMP JUMPDEST SWAP4 POP PUSH2 0x18D2 DUP2 DUP6 PUSH1 0x20 DUP7 ADD PUSH2 0x1BEC JUMP JUMPDEST PUSH2 0x18DB DUP2 PUSH2 0x1DCA JUMP JUMPDEST DUP5 ADD SWAP2 POP POP SWAP3 SWAP2 POP POP JUMP JUMPDEST PUSH1 0x0 PUSH2 0x100 DUP4 ADD PUSH1 0x0 DUP4 ADD MLOAD PUSH2 0x18FF PUSH1 0x0 DUP7 ADD DUP3 PUSH2 0x1996 JUMP JUMPDEST POP PUSH1 0x20 DUP4 ADD MLOAD DUP5 DUP3 SUB PUSH1 0x20 DUP7 ADD MSTORE PUSH2 0x1917 DUP3 DUP3 PUSH2 0x1874 JUMP JUMPDEST SWAP2 POP POP PUSH1 0x40 DUP4 ADD MLOAD PUSH2 0x192C PUSH1 0x40 DUP7 ADD DUP3 PUSH2 0x1996 JUMP JUMPDEST POP PUSH1 0x60 DUP4 ADD MLOAD PUSH2 0x193F PUSH1 0x60 DUP7 ADD DUP3 PUSH2 0x17E1 JUMP JUMPDEST POP PUSH1 0x80 DUP4 ADD MLOAD PUSH2 0x1952 PUSH1 0x80 DUP7 ADD DUP3 PUSH2 0x17E1 JUMP JUMPDEST POP PUSH1 0xA0 DUP4 ADD MLOAD PUSH2 0x1965 PUSH1 0xA0 DUP7 ADD DUP3 PUSH2 0x1996 JUMP JUMPDEST POP PUSH1 0xC0 DUP4 ADD MLOAD PUSH2 0x1978 PUSH1 0xC0 DUP7 ADD DUP3 PUSH2 0x1996 JUMP JUMPDEST POP PUSH1 0xE0 DUP4 ADD MLOAD PUSH2 0x198B PUSH1 0xE0 DUP7 ADD DUP3 PUSH2 0x1996 JUMP JUMPDEST POP DUP1 SWAP2 POP POP SWAP3 SWAP2 POP POP JUMP JUMPDEST PUSH2 0x199F DUP2 PUSH2 0x1BD3 JUMP JUMPDEST DUP3 MSTORE POP POP JUMP JUMPDEST PUSH2 0x19AE DUP2 PUSH2 0x1BD3 JUMP JUMPDEST DUP3 MSTORE POP POP JUMP JUMPDEST PUSH1 0x0 PUSH1 0x20 DUP3 ADD SWAP1 POP DUP2 DUP2 SUB PUSH1 0x0 DUP4 ADD MSTORE PUSH2 0x19CE DUP2 DUP5 PUSH2 0x17FF JUMP JUMPDEST SWAP1 POP SWAP3 SWAP2 POP POP JUMP JUMPDEST PUSH1 0x0 PUSH2 0x100 DUP3 ADD SWAP1 POP PUSH2 0x19EC PUSH1 0x0 DUP4 ADD DUP12 PUSH2 0x19A5 JUMP JUMPDEST DUP2 DUP2 SUB PUSH1 0x20 DUP4 ADD MSTORE PUSH2 0x19FE DUP2 DUP11 PUSH2 0x18AD JUMP JUMPDEST SWAP1 POP PUSH2 0x1A0D PUSH1 0x40 DUP4 ADD DUP10 PUSH2 0x19A5 JUMP JUMPDEST PUSH2 0x1A1A PUSH1 0x60 DUP4 ADD DUP9 PUSH2 0x17F0 JUMP JUMPDEST PUSH2 0x1A27 PUSH1 0x80 DUP4 ADD DUP8 PUSH2 0x17F0 JUMP JUMPDEST PUSH2 0x1A34 PUSH1 0xA0 DUP4 ADD DUP7 PUSH2 0x19A5 JUMP JUMPDEST PUSH2 0x1A41 PUSH1 0xC0 DUP4 ADD DUP6 PUSH2 0x19A5 JUMP JUMPDEST PUSH2 0x1A4E PUSH1 0xE0 DUP4 ADD DUP5 PUSH2 0x19A5 JUMP JUMPDEST SWAP10 SWAP9 POP POP POP POP POP POP POP POP POP JUMP JUMPDEST PUSH1 0x0 PUSH2 0x1A65 PUSH2 0x1A76 JUMP JUMPDEST SWAP1 POP PUSH2 0x1A71 DUP3 DUP3 PUSH2 0x1C51 JUMP JUMPDEST SWAP2 SWAP1 POP JUMP JUMPDEST PUSH1 0x0 PUSH1 0x40 MLOAD SWAP1 POP SWAP1 JUMP JUMPDEST PUSH1 0x0 PUSH8 0xFFFFFFFFFFFFFFFF DUP3 GT ISZERO PUSH2 0x1A9B JUMPI PUSH2 0x1A9A PUSH2 0x1D87 JUMP JUMPDEST JUMPDEST PUSH2 0x1AA4 DUP3 PUSH2 0x1DCA JUMP JUMPDEST SWAP1 POP PUSH1 0x20 DUP2 ADD SWAP1 POP SWAP2 SWAP1 POP JUMP JUMPDEST PUSH1 0x0 DUP2 SWAP1 POP PUSH1 0x20 DUP3 ADD SWAP1 POP SWAP2 SWAP1 POP JUMP JUMPDEST PUSH1 0x0 DUP2 MLOAD SWAP1 POP SWAP2 SWAP1 POP JUMP JUMPDEST PUSH1 0x0 DUP2 MLOAD SWAP1 POP SWAP2 SWAP1 POP JUMP JUMPDEST PUSH1 0x0 PUSH1 0x20 DUP3 ADD SWAP1 POP SWAP2 SWAP1 POP JUMP JUMPDEST PUSH1 0x0 DUP3 DUP3 MSTORE PUSH1 0x20 DUP3 ADD SWAP1 POP SWAP3 SWAP2 POP POP JUMP JUMPDEST PUSH1 0x0 DUP3 DUP3 MSTORE PUSH1 0x20 DUP3 ADD SWAP1 POP SWAP3 SWAP2 POP POP JUMP JUMPDEST PUSH1 0x0 DUP3 DUP3 MSTORE PUSH1 0x20 DUP3 ADD SWAP1 POP SWAP3 SWAP2 POP POP JUMP JUMPDEST PUSH1 0x0 PUSH2 0x1B22 DUP3 PUSH2 0x1BD3 JUMP JUMPDEST SWAP2 POP PUSH2 0x1B2D DUP4 PUSH2 0x1BD3 JUMP JUMPDEST SWAP3 POP DUP3 PUSH32 0xFFFFFFFFFFFFFFFFFFFFFFFFFFFFFFFFFFFFFFFFFFFFFFFFFFFFFFFFFFFFFFFF SUB DUP3 GT ISZERO PUSH2 0x1B62 JUMPI PUSH2 0x1B61 PUSH2 0x1CCB JUMP JUMPDEST JUMPDEST DUP3 DUP3 ADD SWAP1 POP SWAP3 SWAP2 POP POP JUMP JUMPDEST PUSH1 0x0 PUSH2 0x1B78 DUP3 PUSH2 0x1BD3 JUMP JUMPDEST SWAP2 POP PUSH2 0x1B83 DUP4 PUSH2 0x1BD3 JUMP JUMPDEST SWAP3 POP DUP3 DUP3 LT ISZERO PUSH2 0x1B96 JUMPI PUSH2 0x1B95 PUSH2 0x1CCB JUMP JUMPDEST JUMPDEST DUP3 DUP3 SUB SWAP1 POP SWAP3 SWAP2 POP POP JUMP JUMPDEST PUSH1 0x0 PUSH2 0x1BAC DUP3 PUSH2 0x1BB3 JUMP JUMPDEST SWAP1 POP SWAP2 SWAP1 POP JUMP JUMPDEST PUSH1 0x0 PUSH20 0xFFFFFFFFFFFFFFFFFFFFFFFFFFFFFFFFFFFFFFFF DUP3 AND SWAP1 POP SWAP2 SWAP1 POP JUMP JUMPDEST PUSH1 0x0 DUP2 SWAP1 POP SWAP2 SWAP1 POP JUMP JUMPDEST DUP3 DUP2 DUP4 CALLDATACOPY PUSH1 0x0 DUP4 DUP4 ADD MSTORE POP POP POP JUMP JUMPDEST PUSH1 0x0 JUMPDEST DUP4 DUP2 LT ISZERO PUSH2 0x1C0A JUMPI DUP1 DUP3 ADD MLOAD DUP2 DUP5 ADD MSTORE PUSH1 0x20 DUP2 ADD SWAP1 POP PUSH2 0x1BEF JUMP JUMPDEST DUP4 DUP2 GT ISZERO PUSH2 0x1C19 JUMPI PUSH1 0x0 DUP5 DUP5 ADD MSTORE JUMPDEST POP POP POP POP JUMP JUMPDEST PUSH1 0x0 PUSH1 0x2 DUP3 DIV SWAP1 POP PUSH1 0x1 DUP3 AND DUP1 PUSH2 0x1C37 JUMPI PUSH1 0x7F DUP3 AND SWAP2 POP JUMPDEST PUSH1 0x20 DUP3 LT DUP2 EQ ISZERO PUSH2 0x1C4B JUMPI PUSH2 0x1C4A PUSH2 0x1CFA JUMP JUMPDEST JUMPDEST POP SWAP2 SWAP1 POP JUMP JUMPDEST PUSH2 0x1C5A DUP3 PUSH2 0x1DCA JUMP JUMPDEST DUP2 ADD DUP2 DUP2 LT PUSH8 0xFFFFFFFFFFFFFFFF DUP3 GT OR ISZERO PUSH2 0x1C79 JUMPI PUSH2 0x1C78 PUSH2 0x1D87 JUMP JUMPDEST JUMPDEST DUP1 PUSH1 0x40 MSTORE POP POP POP JUMP JUMPDEST PUSH1 0x0 PUSH2 0x1C8D DUP3 PUSH2 0x1BD3 JUMP JUMPDEST SWAP2 POP PUSH32 0xFFFFFFFFFFFFFFFFFFFFFFFFFFFFFFFFFFFFFFFFFFFFFFFFFFFFFFFFFFFFFFFF DUP3 EQ ISZERO PUSH2 0x1CC0 JUMPI PUSH2 0x1CBF PUSH2 0x1CCB JUMP JUMPDEST JUMPDEST PUSH1 0x1 DUP3 ADD SWAP1 POP SWAP2 SWAP1 POP JUMP JUMPDEST PUSH32 0x4E487B7100000000000000000000000000000000000000000000000000000000 PUSH1 0x0 MSTORE PUSH1 0x11 PUSH1 0x4 MSTORE PUSH1 0x24 PUSH1 0x0 REVERT JUMPDEST PUSH32 0x4E487B7100000000000000000000000000000000000000000000000000000000 PUSH1 0x0 MSTORE PUSH1 0x22 PUSH1 0x4 MSTORE PUSH1 0x24 PUSH1 0x0 REVERT JUMPDEST PUSH32 0x4E487B7100000000000000000000000000000000000000000000000000000000 PUSH1 0x0 MSTORE PUSH1 0x31 PUSH1 0x4 MSTORE PUSH1 0x24 PUSH1 0x0 REVERT JUMPDEST PUSH32 0x4E487B7100000000000000000000000000000000000000000000000000000000 PUSH1 0x0 MSTORE PUSH1 0x32 PUSH1 0x4 MSTORE PUSH1 0x24 PUSH1 0x0 REVERT JUMPDEST PUSH32 0x4E487B7100000000000000000000000000000000000000000000000000000000 PUSH1 0x0 MSTORE PUSH1 0x41 PUSH1 0x4 MSTORE PUSH1 0x24 PUSH1 0x0 REVERT JUMPDEST PUSH1 0x0 DUP1 REVERT JUMPDEST PUSH1 0x0 DUP1 REVERT JUMPDEST PUSH1 0x0 DUP1 REVERT JUMPDEST PUSH1 0x0 DUP1 REVERT JUMPDEST PUSH1 0x0 PUSH1 0x1F NOT PUSH1 0x1F DUP4 ADD AND SWAP1 POP SWAP2 SWAP1 POP JUMP JUMPDEST PUSH2 0x1DE4 DUP2 PUSH2 0x1BA1 JUMP JUMPDEST DUP2 EQ PUSH2 0x1DEF JUMPI PUSH1 0x0 DUP1 REVERT JUMPDEST POP JUMP JUMPDEST PUSH2 0x1DFB DUP2 PUSH2 0x1BD3 JUMP JUMPDEST DUP2 EQ PUSH2 0x1E06 JUMPI PUSH1 0x0 DUP1 REVERT JUMPDEST POP JUMP INVALID LOG2 PUSH5 0x6970667358 0x22 SLT KECCAK256 0xED 0xBE 0xAD 0xB6 SELFDESTRUCT SHL RETURNDATACOPY 0x5D PUSH30 0xFB63F424CACA6BE844F579C6CBCD85E73C205E97A0C89164736F6C634300 ADDMOD SMOD STOP CALLER "
				},
				"gasEstimates": {
					"creation": {
						"codeDepositCost": "1548600",
						"executionCost": "1617",
						"totalCost": "1550217"
					},
					"external": {
						"createCrowdfunding(string,address,uint256)": "infinite",
						"getCrowdfundingByStatus(uint256)": "infinite",
						"getMyCrowdfunding(address)": "infinite",
						"join(uint256,uint256,address)": "infinite",
						"list(uint256)": "infinite",
						"setStatus(uint256)": "infinite",
						"setTitle(uint256,string)": "infinite"
					}
				},
				"methodIdentifiers": {
					"createCrowdfunding(string,address,uint256)": "ac8b1300",
					"getCrowdfundingByStatus(uint256)": "904cc175",
					"getMyCrowdfunding(address)": "377e6ff7",
					"join(uint256,uint256,address)": "575b70d0",
					"list(uint256)": "80c9419e",
					"setStatus(uint256)": "69ba1a75",
					"setTitle(uint256,string)": "5102bc9d"
				}
			},
			"storageLayout": {
				"storage": [
					{
						"astId": 3,
						"contract": "crowdfunding.sol:CrowdfundingContract",
						"label": "No",
						"offset": 0,
						"slot": "0",
						"type": "t_uint256"
					},
					{
						"astId": 24,
						"contract": "crowdfunding.sol:CrowdfundingContract",
						"label": "list",
						"offset": 0,
						"slot": "1",
						"type": "t_array(t_struct(Crowdfunding)20_storage)dyn_storage"
					},
					{
						"astId": 30,
						"contract": "crowdfunding.sol:CrowdfundingContract",
						"label": "filterDataByStatus",
						"offset": 0,
						"slot": "2",
						"type": "t_mapping(t_uint256,t_array(t_struct(Crowdfunding)20_storage)dyn_storage)"
					},
					{
						"astId": 36,
						"contract": "crowdfunding.sol:CrowdfundingContract",
						"label": "myCrowdfunding",
						"offset": 0,
						"slot": "3",
						"type": "t_mapping(t_address,t_array(t_struct(Crowdfunding)20_storage)dyn_storage)"
					},
					{
						"astId": 41,
						"contract": "crowdfunding.sol:CrowdfundingContract",
						"label": "calcJoinNum",
						"offset": 0,
						"slot": "4",
						"type": "t_mapping(t_uint256,t_array(t_address)dyn_storage)"
					}
				],
				"types": {
					"t_address": {
						"encoding": "inplace",
						"label": "address",
						"numberOfBytes": "20"
					},
					"t_array(t_address)dyn_storage": {
						"base": "t_address",
						"encoding": "dynamic_array",
						"label": "address[]",
						"numberOfBytes": "32"
					},
					"t_array(t_struct(Crowdfunding)20_storage)dyn_storage": {
						"base": "t_struct(Crowdfunding)20_storage",
						"encoding": "dynamic_array",
						"label": "struct CrowdfundingContract.Crowdfunding[]",
						"numberOfBytes": "32"
					},
					"t_mapping(t_address,t_array(t_struct(Crowdfunding)20_storage)dyn_storage)": {
						"encoding": "mapping",
						"key": "t_address",
						"label": "mapping(address => struct CrowdfundingContract.Crowdfunding[])",
						"numberOfBytes": "32",
						"value": "t_array(t_struct(Crowdfunding)20_storage)dyn_storage"
					},
					"t_mapping(t_uint256,t_array(t_address)dyn_storage)": {
						"encoding": "mapping",
						"key": "t_uint256",
						"label": "mapping(uint256 => address[])",
						"numberOfBytes": "32",
						"value": "t_array(t_address)dyn_storage"
					},
					"t_mapping(t_uint256,t_array(t_struct(Crowdfunding)20_storage)dyn_storage)": {
						"encoding": "mapping",
						"key": "t_uint256",
						"label": "mapping(uint256 => struct CrowdfundingContract.Crowdfunding[])",
						"numberOfBytes": "32",
						"value": "t_array(t_struct(Crowdfunding)20_storage)dyn_storage"
					},
					"t_string_storage": {
						"encoding": "bytes",
						"label": "string",
						"numberOfBytes": "32"
					},
					"t_struct(Crowdfunding)20_storage": {
						"encoding": "inplace",
						"label": "struct CrowdfundingContract.Crowdfunding",
						"members": [
							{
								"astId": 5,
								"contract": "crowdfunding.sol:CrowdfundingContract",
								"label": "num",
								"offset": 0,
								"slot": "0",
								"type": "t_uint256"
							},
							{
								"astId": 7,
								"contract": "crowdfunding.sol:CrowdfundingContract",
								"label": "title",
								"offset": 0,
								"slot": "1",
								"type": "t_string_storage"
							},
							{
								"astId": 9,
								"contract": "crowdfunding.sol:CrowdfundingContract",
								"label": "status",
								"offset": 0,
								"slot": "2",
								"type": "t_uint256"
							},
							{
								"astId": 11,
								"contract": "crowdfunding.sol:CrowdfundingContract",
								"label": "creator",
								"offset": 0,
								"slot": "3",
								"type": "t_address"
							},
							{
								"astId": 13,
								"contract": "crowdfunding.sol:CrowdfundingContract",
								"label": "recipient",
								"offset": 0,
								"slot": "4",
								"type": "t_address"
							},
							{
								"astId": 15,
								"contract": "crowdfunding.sol:CrowdfundingContract",
								"label": "joinNum",
								"offset": 0,
								"slot": "5",
								"type": "t_uint256"
							},
							{
								"astId": 17,
								"contract": "crowdfunding.sol:CrowdfundingContract",
								"label": "expectAmout",
								"offset": 0,
								"slot": "6",
								"type": "t_uint256"
							},
							{
								"astId": 19,
								"contract": "crowdfunding.sol:CrowdfundingContract",
								"label": "actualAmount",
								"offset": 0,
								"slot": "7",
								"type": "t_uint256"
							}
						],
						"numberOfBytes": "256"
					},
					"t_uint256": {
						"encoding": "inplace",
						"label": "uint256",
						"numberOfBytes": "32"
					}
				}
			},
			"userdoc": {
				"kind": "user",
				"methods": {},
				"version": 1
			}
		}
	}
}