{
	"crowdfunding.sol": {
		"CrowdfundingContract": {
			"abi": [
				{
					"inputs": [
						{
							"internalType": "address",
							"name": "_recipient",
							"type": "address"
						},
						{
							"internalType": "uint256",
							"name": "_joinLimitNum",
							"type": "uint256"
						},
						{
							"internalType": "string",
							"name": "_expectAmout",
							"type": "string"
						}
					],
					"name": "createCrowdfunding",
					"outputs": [],
					"stateMutability": "nonpayable",
					"type": "function"
				},
				{
					"inputs": [
						{
							"internalType": "uint256",
							"name": "_status",
							"type": "uint256"
						}
					],
					"name": "getCrowdfundingByStatus",
					"outputs": [
						{
							"components": [
								{
									"internalType": "uint256",
									"name": "num",
									"type": "uint256"
								},
								{
									"internalType": "uint256",
									"name": "status",
									"type": "uint256"
								},
								{
									"internalType": "address",
									"name": "creator",
									"type": "address"
								},
								{
									"internalType": "address",
									"name": "recipient",
									"type": "address"
								},
								{
									"internalType": "uint256",
									"name": "joinNum",
									"type": "uint256"
								},
								{
									"internalType": "uint256",
									"name": "joinLimitNum",
									"type": "uint256"
								},
								{
									"internalType": "string",
									"name": "expectAmout",
									"type": "string"
								},
								{
									"internalType": "string",
									"name": "actualAmount",
									"type": "string"
								}
							],
							"internalType": "struct CrowdfundingContract.Crowdfunding[]",
							"name": "",
							"type": "tuple[]"
						}
					],
					"stateMutability": "view",
					"type": "function"
				}
			],
			"devdoc": {
				"kind": "dev",
				"methods": {},
				"version": 1
			},
			"evm": {
				"assembly": "    /* \"crowdfunding.sol\":60:1405  contract CrowdfundingContract {... */\n  mstore(0x40, 0x80)\n  callvalue\n  dup1\n  iszero\n  tag_1\n  jumpi\n  0x00\n  dup1\n  revert\ntag_1:\n  pop\n  dataSize(sub_0)\n  dup1\n  dataOffset(sub_0)\n  0x00\n  codecopy\n  0x00\n  return\nstop\n\nsub_0: assembly {\n        /* \"crowdfunding.sol\":60:1405  contract CrowdfundingContract {... */\n      mstore(0x40, 0x80)\n      callvalue\n      dup1\n      iszero\n      tag_1\n      jumpi\n      0x00\n      dup1\n      revert\n    tag_1:\n      pop\n      jumpi(tag_2, lt(calldatasize, 0x04))\n      shr(0xe0, calldataload(0x00))\n      dup1\n      0x4ed2f7ee\n      eq\n      tag_3\n      jumpi\n      dup1\n      0x904cc175\n      eq\n      tag_4\n      jumpi\n    tag_2:\n      0x00\n      dup1\n      revert\n        /* \"crowdfunding.sol\":617:1044  function createCrowdfunding(address _recipient,uint _joinLimitNum, string memory _expectAmout) public {... */\n    tag_3:\n      tag_5\n      0x04\n      dup1\n      calldatasize\n      sub\n      dup2\n      add\n      swap1\n      tag_6\n      swap2\n      swap1\n      tag_7\n      jump\t// in\n    tag_6:\n      tag_8\n      jump\t// in\n    tag_5:\n      stop\n        /* \"crowdfunding.sol\":1052:1400  function getCrowdfundingByStatus(uint _status) public view returns (Crowdfunding[] memory){... */\n    tag_4:\n      tag_9\n      0x04\n      dup1\n      calldatasize\n      sub\n      dup2\n      add\n      swap1\n      tag_10\n      swap2\n      swap1\n      tag_11\n      jump\t// in\n    tag_10:\n      tag_12\n      jump\t// in\n    tag_9:\n      mload(0x40)\n      tag_13\n      swap2\n      swap1\n      tag_14\n      jump\t// in\n    tag_13:\n      mload(0x40)\n      dup1\n      swap2\n      sub\n      swap1\n      return\n        /* \"crowdfunding.sol\":617:1044  function createCrowdfunding(address _recipient,uint _joinLimitNum, string memory _expectAmout) public {... */\n    tag_8:\n        /* \"crowdfunding.sol\":730:732  No */\n      0x00\n      dup1\n        /* \"crowdfunding.sol\":730:734  No++ */\n      dup2\n      sload\n      dup1\n      swap3\n      swap2\n      swap1\n      tag_16\n      swap1\n      tag_17\n      jump\t// in\n    tag_16:\n      swap2\n      swap1\n      pop\n      sstore\n      pop\n        /* \"crowdfunding.sol\":745:749  list */\n      0x01\n        /* \"crowdfunding.sol\":755:1035  Crowdfunding({... */\n      mload(0x40)\n      dup1\n      0x0100\n      add\n      0x40\n      mstore\n      dup1\n        /* \"crowdfunding.sol\":788:790  No */\n      sload(0x00)\n        /* \"crowdfunding.sol\":755:1035  Crowdfunding({... */\n      dup2\n      mstore\n      0x20\n      add\n        /* \"crowdfunding.sol\":813:814  0 */\n      0x00\n        /* \"crowdfunding.sol\":755:1035  Crowdfunding({... */\n      dup2\n      mstore\n      0x20\n      add\n        /* \"crowdfunding.sol\":838:848  msg.sender */\n      caller\n        /* \"crowdfunding.sol\":755:1035  Crowdfunding({... */\n      0xffffffffffffffffffffffffffffffffffffffff\n      and\n      dup2\n      mstore\n      0x20\n      add\n        /* \"crowdfunding.sol\":874:884  _recipient */\n      dup6\n        /* \"crowdfunding.sol\":755:1035  Crowdfunding({... */\n      0xffffffffffffffffffffffffffffffffffffffff\n      and\n      dup2\n      mstore\n      0x20\n      add\n        /* \"crowdfunding.sol\":908:909  0 */\n      0x00\n        /* \"crowdfunding.sol\":755:1035  Crowdfunding({... */\n      dup2\n      mstore\n      0x20\n      add\n        /* \"crowdfunding.sol\":938:951  _joinLimitNum */\n      dup5\n        /* \"crowdfunding.sol\":755:1035  Crowdfunding({... */\n      dup2\n      mstore\n      0x20\n      add\n        /* \"crowdfunding.sol\":979:991  _expectAmout */\n      dup4\n        /* \"crowdfunding.sol\":755:1035  Crowdfunding({... */\n      dup2\n      mstore\n      0x20\n      add\n      mload(0x40)\n      dup1\n      0x40\n      add\n      0x40\n      mstore\n      dup1\n      0x01\n      dup2\n      mstore\n      0x20\n      add\n      0x3000000000000000000000000000000000000000000000000000000000000000\n      dup2\n      mstore\n      pop\n      dup2\n      mstore\n      pop\n        /* \"crowdfunding.sol\":745:1036  list.push(Crowdfunding({... */\n      swap1\n      dup1\n      0x01\n      dup2\n      sload\n      add\n      dup1\n      dup3\n      sstore\n      dup1\n      swap2\n      pop\n      pop\n      0x01\n      swap1\n      sub\n      swap1\n      0x00\n      mstore\n      keccak256(0x00, 0x20)\n      swap1\n      0x08\n      mul\n      add\n      0x00\n      swap1\n      swap2\n      swap1\n      swap2\n      swap1\n      swap2\n      pop\n      0x00\n      dup3\n      add\n      mload\n      dup2\n      0x00\n      add\n      sstore\n      0x20\n      dup3\n      add\n      mload\n      dup2\n      0x01\n      add\n      sstore\n      0x40\n      dup3\n      add\n      mload\n      dup2\n      0x02\n      add\n      exp(0x0100, 0x00)\n      dup2\n      sload\n      dup2\n      0xffffffffffffffffffffffffffffffffffffffff\n      mul\n      not\n      and\n      swap1\n      dup4\n      0xffffffffffffffffffffffffffffffffffffffff\n      and\n      mul\n      or\n      swap1\n      sstore\n      pop\n      0x60\n      dup3\n      add\n      mload\n      dup2\n      0x03\n      add\n      exp(0x0100, 0x00)\n      dup2\n      sload\n      dup2\n      0xffffffffffffffffffffffffffffffffffffffff\n      mul\n      not\n      and\n      swap1\n      dup4\n      0xffffffffffffffffffffffffffffffffffffffff\n      and\n      mul\n      or\n      swap1\n      sstore\n      pop\n      0x80\n      dup3\n      add\n      mload\n      dup2\n      0x04\n      add\n      sstore\n      0xa0\n      dup3\n      add\n      mload\n      dup2\n      0x05\n      add\n      sstore\n      0xc0\n      dup3\n      add\n      mload\n      dup2\n      0x06\n      add\n      swap1\n      dup2\n      tag_19\n      swap2\n      swap1\n      tag_20\n      jump\t// in\n    tag_19:\n      pop\n      0xe0\n      dup3\n      add\n      mload\n      dup2\n      0x07\n      add\n      swap1\n      dup2\n      tag_21\n      swap2\n      swap1\n      tag_20\n      jump\t// in\n    tag_21:\n      pop\n      pop\n      pop\n        /* \"crowdfunding.sol\":617:1044  function createCrowdfunding(address _recipient,uint _joinLimitNum, string memory _expectAmout) public {... */\n      pop\n      pop\n      pop\n      jump\t// out\n        /* \"crowdfunding.sol\":1052:1400  function getCrowdfundingByStatus(uint _status) public view returns (Crowdfunding[] memory){... */\n    tag_12:\n        /* \"crowdfunding.sol\":1120:1141  Crowdfunding[] memory */\n      0x60\n        /* \"crowdfunding.sol\":1153:1178  Crowdfunding[] memory arr */\n      0x00\n        /* \"crowdfunding.sol\":1200:1204  list */\n      0x01\n        /* \"crowdfunding.sol\":1200:1211  list.length */\n      dup1\n      sload\n      swap1\n      pop\n        /* \"crowdfunding.sol\":1181:1212  new Crowdfunding[](list.length) */\n      0xffffffffffffffff\n      dup2\n      gt\n      iszero\n      tag_23\n      jumpi\n      tag_24\n      tag_25\n      jump\t// in\n    tag_24:\n    tag_23:\n      mload(0x40)\n      swap1\n      dup1\n      dup3\n      mstore\n      dup1\n      0x20\n      mul\n      0x20\n      add\n      dup3\n      add\n      0x40\n      mstore\n      dup1\n      iszero\n      tag_26\n      jumpi\n      dup2\n      0x20\n      add\n    tag_27:\n      tag_28\n      tag_29\n      jump\t// in\n    tag_28:\n      dup2\n      mstore\n      0x20\n      add\n      swap1\n      0x01\n      swap1\n      sub\n      swap1\n      dup2\n      tag_27\n      jumpi\n      swap1\n      pop\n    tag_26:\n      pop\n        /* \"crowdfunding.sol\":1153:1212  Crowdfunding[] memory arr = new Crowdfunding[](list.length) */\n      swap1\n      pop\n        /* \"crowdfunding.sol\":1229:1235  uint i */\n      0x00\n        /* \"crowdfunding.sol\":1225:1370  for(uint i = 0; i < list.length ; i++){... */\n    tag_30:\n        /* \"crowdfunding.sol\":1245:1249  list */\n      0x01\n        /* \"crowdfunding.sol\":1245:1256  list.length */\n      dup1\n      sload\n      swap1\n      pop\n        /* \"crowdfunding.sol\":1241:1242  i */\n      dup2\n        /* \"crowdfunding.sol\":1241:1256  i < list.length */\n      lt\n        /* \"crowdfunding.sol\":1225:1370  for(uint i = 0; i < list.length ; i++){... */\n      iszero\n      tag_31\n      jumpi\n        /* \"crowdfunding.sol\":1299:1306  _status */\n      dup4\n        /* \"crowdfunding.sol\":1281:1285  list */\n      0x01\n        /* \"crowdfunding.sol\":1286:1287  i */\n      dup3\n        /* \"crowdfunding.sol\":1281:1288  list[i] */\n      dup2\n      sload\n      dup2\n      lt\n      tag_33\n      jumpi\n      tag_34\n      tag_35\n      jump\t// in\n    tag_34:\n    tag_33:\n      swap1\n      0x00\n      mstore\n      keccak256(0x00, 0x20)\n      swap1\n      0x08\n      mul\n      add\n        /* \"crowdfunding.sol\":1281:1295  list[i].status */\n      0x01\n      add\n      sload\n        /* \"crowdfunding.sol\":1281:1306  list[i].status == _status */\n      sub\n        /* \"crowdfunding.sol\":1278:1359  if(list[i].status == _status) {... */\n      tag_37\n      jumpi\n        /* \"crowdfunding.sol\":1336:1340  list */\n      0x01\n        /* \"crowdfunding.sol\":1341:1342  i */\n      dup2\n        /* \"crowdfunding.sol\":1336:1343  list[i] */\n      dup2\n      sload\n      dup2\n      lt\n      tag_38\n      jumpi\n      tag_39\n      tag_35\n      jump\t// in\n    tag_39:\n    tag_38:\n      swap1\n      0x00\n      mstore\n      keccak256(0x00, 0x20)\n      swap1\n      0x08\n      mul\n      add\n        /* \"crowdfunding.sol\":1327:1343  arr[i] = list[i] */\n      mload(0x40)\n      dup1\n      0x0100\n      add\n      0x40\n      mstore\n      swap1\n      dup2\n      0x00\n      dup3\n      add\n      sload\n      dup2\n      mstore\n      0x20\n      add\n      0x01\n      dup3\n      add\n      sload\n      dup2\n      mstore\n      0x20\n      add\n      0x02\n      dup3\n      add\n      0x00\n      swap1\n      sload\n      swap1\n      0x0100\n      exp\n      swap1\n      div\n      0xffffffffffffffffffffffffffffffffffffffff\n      and\n      0xffffffffffffffffffffffffffffffffffffffff\n      and\n      0xffffffffffffffffffffffffffffffffffffffff\n      and\n      dup2\n      mstore\n      0x20\n      add\n      0x03\n      dup3\n      add\n      0x00\n      swap1\n      sload\n      swap1\n      0x0100\n      exp\n      swap1\n      div\n      0xffffffffffffffffffffffffffffffffffffffff\n      and\n      0xffffffffffffffffffffffffffffffffffffffff\n      and\n      0xffffffffffffffffffffffffffffffffffffffff\n      and\n      dup2\n      mstore\n      0x20\n      add\n      0x04\n      dup3\n      add\n      sload\n      dup2\n      mstore\n      0x20\n      add\n      0x05\n      dup3\n      add\n      sload\n      dup2\n      mstore\n      0x20\n      add\n      0x06\n      dup3\n      add\n      dup1\n      sload\n      tag_41\n      swap1\n      tag_42\n      jump\t// in\n    tag_41:\n      dup1\n      0x1f\n      add\n      0x20\n      dup1\n      swap2\n      div\n      mul\n      0x20\n      add\n      mload(0x40)\n      swap1\n      dup2\n      add\n      0x40\n      mstore\n      dup1\n      swap3\n      swap2\n      swap1\n      dup2\n      dup2\n      mstore\n      0x20\n      add\n      dup3\n      dup1\n      sload\n      tag_43\n      swap1\n      tag_42\n      jump\t// in\n    tag_43:\n      dup1\n      iszero\n      tag_44\n      jumpi\n      dup1\n      0x1f\n      lt\n      tag_45\n      jumpi\n      0x0100\n      dup1\n      dup4\n      sload\n      div\n      mul\n      dup4\n      mstore\n      swap2\n      0x20\n      add\n      swap2\n      jump(tag_44)\n    tag_45:\n      dup3\n      add\n      swap2\n      swap1\n      0x00\n      mstore\n      keccak256(0x00, 0x20)\n      swap1\n    tag_46:\n      dup2\n      sload\n      dup2\n      mstore\n      swap1\n      0x01\n      add\n      swap1\n      0x20\n      add\n      dup1\n      dup4\n      gt\n      tag_46\n      jumpi\n      dup3\n      swap1\n      sub\n      0x1f\n      and\n      dup3\n      add\n      swap2\n    tag_44:\n      pop\n      pop\n      pop\n      pop\n      pop\n      dup2\n      mstore\n      0x20\n      add\n      0x07\n      dup3\n      add\n      dup1\n      sload\n      tag_47\n      swap1\n      tag_42\n      jump\t// in\n    tag_47:\n      dup1\n      0x1f\n      add\n      0x20\n      dup1\n      swap2\n      div\n      mul\n      0x20\n      add\n      mload(0x40)\n      swap1\n      dup2\n      add\n      0x40\n      mstore\n      dup1\n      swap3\n      swap2\n      swap1\n      dup2\n      dup2\n      mstore\n      0x20\n      add\n      dup3\n      dup1\n      sload\n      tag_48\n      swap1\n      tag_42\n      jump\t// in\n    tag_48:\n      dup1\n      iszero\n      tag_49\n      jumpi\n      dup1\n      0x1f\n      lt\n      tag_50\n      jumpi\n      0x0100\n      dup1\n      dup4\n      sload\n      div\n      mul\n      dup4\n      mstore\n      swap2\n      0x20\n      add\n      swap2\n      jump(tag_49)\n    tag_50:\n      dup3\n      add\n      swap2\n      swap1\n      0x00\n      mstore\n      keccak256(0x00, 0x20)\n      swap1\n    tag_51:\n      dup2\n      sload\n      dup2\n      mstore\n      swap1\n      0x01\n      add\n      swap1\n      0x20\n      add\n      dup1\n      dup4\n      gt\n      tag_51\n      jumpi\n      dup3\n      swap1\n      sub\n      0x1f\n      and\n      dup3\n      add\n      swap2\n    tag_49:\n      pop\n      pop\n      pop\n      pop\n      pop\n      dup2\n      mstore\n      pop\n      pop\n        /* \"crowdfunding.sol\":1327:1330  arr */\n      dup3\n        /* \"crowdfunding.sol\":1331:1332  i */\n      dup3\n        /* \"crowdfunding.sol\":1327:1333  arr[i] */\n      dup2\n      mload\n      dup2\n      lt\n      tag_52\n      jumpi\n      tag_53\n      tag_35\n      jump\t// in\n    tag_53:\n    tag_52:\n      0x20\n      mul\n      0x20\n      add\n      add\n        /* \"crowdfunding.sol\":1327:1343  arr[i] = list[i] */\n      dup2\n      swap1\n      mstore\n      pop\n        /* \"crowdfunding.sol\":1278:1359  if(list[i].status == _status) {... */\n    tag_37:\n        /* \"crowdfunding.sol\":1259:1262  i++ */\n      dup1\n      dup1\n      tag_54\n      swap1\n      tag_17\n      jump\t// in\n    tag_54:\n      swap2\n      pop\n      pop\n        /* \"crowdfunding.sol\":1225:1370  for(uint i = 0; i < list.length ; i++){... */\n      jump(tag_30)\n    tag_31:\n      pop\n        /* \"crowdfunding.sol\":1389:1392  arr */\n      dup1\n        /* \"crowdfunding.sol\":1382:1392  return arr */\n      swap2\n      pop\n      pop\n        /* \"crowdfunding.sol\":1052:1400  function getCrowdfundingByStatus(uint _status) public view returns (Crowdfunding[] memory){... */\n      swap2\n      swap1\n      pop\n      jump\t// out\n    tag_29:\n      mload(0x40)\n      dup1\n      0x0100\n      add\n      0x40\n      mstore\n      dup1\n      0x00\n      dup2\n      mstore\n      0x20\n      add\n      0x00\n      dup2\n      mstore\n      0x20\n      add\n      and(0xffffffffffffffffffffffffffffffffffffffff, 0x00)\n      dup2\n      mstore\n      0x20\n      add\n      and(0xffffffffffffffffffffffffffffffffffffffff, 0x00)\n      dup2\n      mstore\n      0x20\n      add\n      0x00\n      dup2\n      mstore\n      0x20\n      add\n      0x00\n      dup2\n      mstore\n      0x20\n      add\n      0x60\n      dup2\n      mstore\n      0x20\n      add\n      0x60\n      dup2\n      mstore\n      pop\n      swap1\n      jump\t// out\n        /* \"#utility.yul\":7:82   */\n    tag_55:\n        /* \"#utility.yul\":40:46   */\n      0x00\n        /* \"#utility.yul\":73:75   */\n      0x40\n        /* \"#utility.yul\":67:76   */\n      mload\n        /* \"#utility.yul\":57:76   */\n      swap1\n      pop\n        /* \"#utility.yul\":7:82   */\n      swap1\n      jump\t// out\n        /* \"#utility.yul\":88:205   */\n    tag_56:\n        /* \"#utility.yul\":197:198   */\n      0x00\n        /* \"#utility.yul\":194:195   */\n      dup1\n        /* \"#utility.yul\":187:199   */\n      revert\n        /* \"#utility.yul\":211:328   */\n    tag_57:\n        /* \"#utility.yul\":320:321   */\n      0x00\n        /* \"#utility.yul\":317:318   */\n      dup1\n        /* \"#utility.yul\":310:322   */\n      revert\n        /* \"#utility.yul\":334:460   */\n    tag_58:\n        /* \"#utility.yul\":371:378   */\n      0x00\n        /* \"#utility.yul\":411:453   */\n      0xffffffffffffffffffffffffffffffffffffffff\n        /* \"#utility.yul\":404:409   */\n      dup3\n        /* \"#utility.yul\":400:454   */\n      and\n        /* \"#utility.yul\":389:454   */\n      swap1\n      pop\n        /* \"#utility.yul\":334:460   */\n      swap2\n      swap1\n      pop\n      jump\t// out\n        /* \"#utility.yul\":466:562   */\n    tag_59:\n        /* \"#utility.yul\":503:510   */\n      0x00\n        /* \"#utility.yul\":532:556   */\n      tag_110\n        /* \"#utility.yul\":550:555   */\n      dup3\n        /* \"#utility.yul\":532:556   */\n      tag_58\n      jump\t// in\n    tag_110:\n        /* \"#utility.yul\":521:556   */\n      swap1\n      pop\n        /* \"#utility.yul\":466:562   */\n      swap2\n      swap1\n      pop\n      jump\t// out\n        /* \"#utility.yul\":568:690   */\n    tag_60:\n        /* \"#utility.yul\":641:665   */\n      tag_112\n        /* \"#utility.yul\":659:664   */\n      dup2\n        /* \"#utility.yul\":641:665   */\n      tag_59\n      jump\t// in\n    tag_112:\n        /* \"#utility.yul\":634:639   */\n      dup2\n        /* \"#utility.yul\":631:666   */\n      eq\n        /* \"#utility.yul\":621:684   */\n      tag_113\n      jumpi\n        /* \"#utility.yul\":680:681   */\n      0x00\n        /* \"#utility.yul\":677:678   */\n      dup1\n        /* \"#utility.yul\":670:682   */\n      revert\n        /* \"#utility.yul\":621:684   */\n    tag_113:\n        /* \"#utility.yul\":568:690   */\n      pop\n      jump\t// out\n        /* \"#utility.yul\":696:835   */\n    tag_61:\n        /* \"#utility.yul\":742:747   */\n      0x00\n        /* \"#utility.yul\":780:786   */\n      dup2\n        /* \"#utility.yul\":767:787   */\n      calldataload\n        /* \"#utility.yul\":758:787   */\n      swap1\n      pop\n        /* \"#utility.yul\":796:829   */\n      tag_115\n        /* \"#utility.yul\":823:828   */\n      dup2\n        /* \"#utility.yul\":796:829   */\n      tag_60\n      jump\t// in\n    tag_115:\n        /* \"#utility.yul\":696:835   */\n      swap3\n      swap2\n      pop\n      pop\n      jump\t// out\n        /* \"#utility.yul\":841:918   */\n    tag_62:\n        /* \"#utility.yul\":878:885   */\n      0x00\n        /* \"#utility.yul\":907:912   */\n      dup2\n        /* \"#utility.yul\":896:912   */\n      swap1\n      pop\n        /* \"#utility.yul\":841:918   */\n      swap2\n      swap1\n      pop\n      jump\t// out\n        /* \"#utility.yul\":924:1046   */\n    tag_63:\n        /* \"#utility.yul\":997:1021   */\n      tag_118\n        /* \"#utility.yul\":1015:1020   */\n      dup2\n        /* \"#utility.yul\":997:1021   */\n      tag_62\n      jump\t// in\n    tag_118:\n        /* \"#utility.yul\":990:995   */\n      dup2\n        /* \"#utility.yul\":987:1022   */\n      eq\n        /* \"#utility.yul\":977:1040   */\n      tag_119\n      jumpi\n        /* \"#utility.yul\":1036:1037   */\n      0x00\n        /* \"#utility.yul\":1033:1034   */\n      dup1\n        /* \"#utility.yul\":1026:1038   */\n      revert\n        /* \"#utility.yul\":977:1040   */\n    tag_119:\n        /* \"#utility.yul\":924:1046   */\n      pop\n      jump\t// out\n        /* \"#utility.yul\":1052:1191   */\n    tag_64:\n        /* \"#utility.yul\":1098:1103   */\n      0x00\n        /* \"#utility.yul\":1136:1142   */\n      dup2\n        /* \"#utility.yul\":1123:1143   */\n      calldataload\n        /* \"#utility.yul\":1114:1143   */\n      swap1\n      pop\n        /* \"#utility.yul\":1152:1185   */\n      tag_121\n        /* \"#utility.yul\":1179:1184   */\n      dup2\n        /* \"#utility.yul\":1152:1185   */\n      tag_63\n      jump\t// in\n    tag_121:\n        /* \"#utility.yul\":1052:1191   */\n      swap3\n      swap2\n      pop\n      pop\n      jump\t// out\n        /* \"#utility.yul\":1197:1314   */\n    tag_65:\n        /* \"#utility.yul\":1306:1307   */\n      0x00\n        /* \"#utility.yul\":1303:1304   */\n      dup1\n        /* \"#utility.yul\":1296:1308   */\n      revert\n        /* \"#utility.yul\":1320:1437   */\n    tag_66:\n        /* \"#utility.yul\":1429:1430   */\n      0x00\n        /* \"#utility.yul\":1426:1427   */\n      dup1\n        /* \"#utility.yul\":1419:1431   */\n      revert\n        /* \"#utility.yul\":1443:1545   */\n    tag_67:\n        /* \"#utility.yul\":1484:1490   */\n      0x00\n        /* \"#utility.yul\":1535:1537   */\n      0x1f\n        /* \"#utility.yul\":1531:1538   */\n      not\n        /* \"#utility.yul\":1526:1528   */\n      0x1f\n        /* \"#utility.yul\":1519:1524   */\n      dup4\n        /* \"#utility.yul\":1515:1529   */\n      add\n        /* \"#utility.yul\":1511:1539   */\n      and\n        /* \"#utility.yul\":1501:1539   */\n      swap1\n      pop\n        /* \"#utility.yul\":1443:1545   */\n      swap2\n      swap1\n      pop\n      jump\t// out\n        /* \"#utility.yul\":1551:1731   */\n    tag_25:\n        /* \"#utility.yul\":1599:1676   */\n      0x4e487b7100000000000000000000000000000000000000000000000000000000\n        /* \"#utility.yul\":1596:1597   */\n      0x00\n        /* \"#utility.yul\":1589:1677   */\n      mstore\n        /* \"#utility.yul\":1696:1700   */\n      0x41\n        /* \"#utility.yul\":1693:1694   */\n      0x04\n        /* \"#utility.yul\":1686:1701   */\n      mstore\n        /* \"#utility.yul\":1720:1724   */\n      0x24\n        /* \"#utility.yul\":1717:1718   */\n      0x00\n        /* \"#utility.yul\":1710:1725   */\n      revert\n        /* \"#utility.yul\":1737:2018   */\n    tag_68:\n        /* \"#utility.yul\":1820:1847   */\n      tag_127\n        /* \"#utility.yul\":1842:1846   */\n      dup3\n        /* \"#utility.yul\":1820:1847   */\n      tag_67\n      jump\t// in\n    tag_127:\n        /* \"#utility.yul\":1812:1818   */\n      dup2\n        /* \"#utility.yul\":1808:1848   */\n      add\n        /* \"#utility.yul\":1950:1956   */\n      dup2\n        /* \"#utility.yul\":1938:1948   */\n      dup2\n        /* \"#utility.yul\":1935:1957   */\n      lt\n        /* \"#utility.yul\":1914:1932   */\n      0xffffffffffffffff\n        /* \"#utility.yul\":1902:1912   */\n      dup3\n        /* \"#utility.yul\":1899:1933   */\n      gt\n        /* \"#utility.yul\":1896:1958   */\n      or\n        /* \"#utility.yul\":1893:1981   */\n      iszero\n      tag_128\n      jumpi\n        /* \"#utility.yul\":1961:1979   */\n      tag_129\n      tag_25\n      jump\t// in\n    tag_129:\n        /* \"#utility.yul\":1893:1981   */\n    tag_128:\n        /* \"#utility.yul\":2001:2011   */\n      dup1\n        /* \"#utility.yul\":1997:1999   */\n      0x40\n        /* \"#utility.yul\":1990:2012   */\n      mstore\n        /* \"#utility.yul\":1780:2018   */\n      pop\n        /* \"#utility.yul\":1737:2018   */\n      pop\n      pop\n      jump\t// out\n        /* \"#utility.yul\":2024:2153   */\n    tag_69:\n        /* \"#utility.yul\":2058:2064   */\n      0x00\n        /* \"#utility.yul\":2085:2105   */\n      tag_131\n      tag_55\n      jump\t// in\n    tag_131:\n        /* \"#utility.yul\":2075:2105   */\n      swap1\n      pop\n        /* \"#utility.yul\":2114:2147   */\n      tag_132\n        /* \"#utility.yul\":2142:2146   */\n      dup3\n        /* \"#utility.yul\":2134:2140   */\n      dup3\n        /* \"#utility.yul\":2114:2147   */\n      tag_68\n      jump\t// in\n    tag_132:\n        /* \"#utility.yul\":2024:2153   */\n      swap2\n      swap1\n      pop\n      jump\t// out\n        /* \"#utility.yul\":2159:2467   */\n    tag_70:\n        /* \"#utility.yul\":2221:2225   */\n      0x00\n        /* \"#utility.yul\":2311:2329   */\n      0xffffffffffffffff\n        /* \"#utility.yul\":2303:2309   */\n      dup3\n        /* \"#utility.yul\":2300:2330   */\n      gt\n        /* \"#utility.yul\":2297:2353   */\n      iszero\n      tag_134\n      jumpi\n        /* \"#utility.yul\":2333:2351   */\n      tag_135\n      tag_25\n      jump\t// in\n    tag_135:\n        /* \"#utility.yul\":2297:2353   */\n    tag_134:\n        /* \"#utility.yul\":2371:2400   */\n      tag_136\n        /* \"#utility.yul\":2393:2399   */\n      dup3\n        /* \"#utility.yul\":2371:2400   */\n      tag_67\n      jump\t// in\n    tag_136:\n        /* \"#utility.yul\":2363:2400   */\n      swap1\n      pop\n        /* \"#utility.yul\":2455:2459   */\n      0x20\n        /* \"#utility.yul\":2449:2453   */\n      dup2\n        /* \"#utility.yul\":2445:2460   */\n      add\n        /* \"#utility.yul\":2437:2460   */\n      swap1\n      pop\n        /* \"#utility.yul\":2159:2467   */\n      swap2\n      swap1\n      pop\n      jump\t// out\n        /* \"#utility.yul\":2473:2627   */\n    tag_71:\n        /* \"#utility.yul\":2557:2563   */\n      dup3\n        /* \"#utility.yul\":2552:2555   */\n      dup2\n        /* \"#utility.yul\":2547:2550   */\n      dup4\n        /* \"#utility.yul\":2534:2564   */\n      calldatacopy\n        /* \"#utility.yul\":2619:2620   */\n      0x00\n        /* \"#utility.yul\":2610:2616   */\n      dup4\n        /* \"#utility.yul\":2605:2608   */\n      dup4\n        /* \"#utility.yul\":2601:2617   */\n      add\n        /* \"#utility.yul\":2594:2621   */\n      mstore\n        /* \"#utility.yul\":2473:2627   */\n      pop\n      pop\n      pop\n      jump\t// out\n        /* \"#utility.yul\":2633:3045   */\n    tag_72:\n        /* \"#utility.yul\":2711:2716   */\n      0x00\n        /* \"#utility.yul\":2736:2802   */\n      tag_139\n        /* \"#utility.yul\":2752:2801   */\n      tag_140\n        /* \"#utility.yul\":2794:2800   */\n      dup5\n        /* \"#utility.yul\":2752:2801   */\n      tag_70\n      jump\t// in\n    tag_140:\n        /* \"#utility.yul\":2736:2802   */\n      tag_69\n      jump\t// in\n    tag_139:\n        /* \"#utility.yul\":2727:2802   */\n      swap1\n      pop\n        /* \"#utility.yul\":2825:2831   */\n      dup3\n        /* \"#utility.yul\":2818:2823   */\n      dup2\n        /* \"#utility.yul\":2811:2832   */\n      mstore\n        /* \"#utility.yul\":2863:2867   */\n      0x20\n        /* \"#utility.yul\":2856:2861   */\n      dup2\n        /* \"#utility.yul\":2852:2868   */\n      add\n        /* \"#utility.yul\":2901:2904   */\n      dup5\n        /* \"#utility.yul\":2892:2898   */\n      dup5\n        /* \"#utility.yul\":2887:2890   */\n      dup5\n        /* \"#utility.yul\":2883:2899   */\n      add\n        /* \"#utility.yul\":2880:2905   */\n      gt\n        /* \"#utility.yul\":2877:2989   */\n      iszero\n      tag_141\n      jumpi\n        /* \"#utility.yul\":2908:2987   */\n      tag_142\n      tag_66\n      jump\t// in\n    tag_142:\n        /* \"#utility.yul\":2877:2989   */\n    tag_141:\n        /* \"#utility.yul\":2998:3039   */\n      tag_143\n        /* \"#utility.yul\":3032:3038   */\n      dup5\n        /* \"#utility.yul\":3027:3030   */\n      dup3\n        /* \"#utility.yul\":3022:3025   */\n      dup6\n        /* \"#utility.yul\":2998:3039   */\n      tag_71\n      jump\t// in\n    tag_143:\n        /* \"#utility.yul\":2717:3045   */\n      pop\n        /* \"#utility.yul\":2633:3045   */\n      swap4\n      swap3\n      pop\n      pop\n      pop\n      jump\t// out\n        /* \"#utility.yul\":3065:3405   */\n    tag_73:\n        /* \"#utility.yul\":3121:3126   */\n      0x00\n        /* \"#utility.yul\":3170:3173   */\n      dup3\n        /* \"#utility.yul\":3163:3167   */\n      0x1f\n        /* \"#utility.yul\":3155:3161   */\n      dup4\n        /* \"#utility.yul\":3151:3168   */\n      add\n        /* \"#utility.yul\":3147:3174   */\n      slt\n        /* \"#utility.yul\":3137:3259   */\n      tag_145\n      jumpi\n        /* \"#utility.yul\":3178:3257   */\n      tag_146\n      tag_65\n      jump\t// in\n    tag_146:\n        /* \"#utility.yul\":3137:3259   */\n    tag_145:\n        /* \"#utility.yul\":3295:3301   */\n      dup2\n        /* \"#utility.yul\":3282:3302   */\n      calldataload\n        /* \"#utility.yul\":3320:3399   */\n      tag_147\n        /* \"#utility.yul\":3395:3398   */\n      dup5\n        /* \"#utility.yul\":3387:3393   */\n      dup3\n        /* \"#utility.yul\":3380:3384   */\n      0x20\n        /* \"#utility.yul\":3372:3378   */\n      dup7\n        /* \"#utility.yul\":3368:3385   */\n      add\n        /* \"#utility.yul\":3320:3399   */\n      tag_72\n      jump\t// in\n    tag_147:\n        /* \"#utility.yul\":3311:3399   */\n      swap2\n      pop\n        /* \"#utility.yul\":3127:3405   */\n      pop\n        /* \"#utility.yul\":3065:3405   */\n      swap3\n      swap2\n      pop\n      pop\n      jump\t// out\n        /* \"#utility.yul\":3411:4210   */\n    tag_7:\n        /* \"#utility.yul\":3498:3504   */\n      0x00\n        /* \"#utility.yul\":3506:3512   */\n      dup1\n        /* \"#utility.yul\":3514:3520   */\n      0x00\n        /* \"#utility.yul\":3563:3565   */\n      0x60\n        /* \"#utility.yul\":3551:3560   */\n      dup5\n        /* \"#utility.yul\":3542:3549   */\n      dup7\n        /* \"#utility.yul\":3538:3561   */\n      sub\n        /* \"#utility.yul\":3534:3566   */\n      slt\n        /* \"#utility.yul\":3531:3650   */\n      iszero\n      tag_149\n      jumpi\n        /* \"#utility.yul\":3569:3648   */\n      tag_150\n      tag_56\n      jump\t// in\n    tag_150:\n        /* \"#utility.yul\":3531:3650   */\n    tag_149:\n        /* \"#utility.yul\":3689:3690   */\n      0x00\n        /* \"#utility.yul\":3714:3767   */\n      tag_151\n        /* \"#utility.yul\":3759:3766   */\n      dup7\n        /* \"#utility.yul\":3750:3756   */\n      dup3\n        /* \"#utility.yul\":3739:3748   */\n      dup8\n        /* \"#utility.yul\":3735:3757   */\n      add\n        /* \"#utility.yul\":3714:3767   */\n      tag_61\n      jump\t// in\n    tag_151:\n        /* \"#utility.yul\":3704:3767   */\n      swap4\n      pop\n        /* \"#utility.yul\":3660:3777   */\n      pop\n        /* \"#utility.yul\":3816:3818   */\n      0x20\n        /* \"#utility.yul\":3842:3895   */\n      tag_152\n        /* \"#utility.yul\":3887:3894   */\n      dup7\n        /* \"#utility.yul\":3878:3884   */\n      dup3\n        /* \"#utility.yul\":3867:3876   */\n      dup8\n        /* \"#utility.yul\":3863:3885   */\n      add\n        /* \"#utility.yul\":3842:3895   */\n      tag_64\n      jump\t// in\n    tag_152:\n        /* \"#utility.yul\":3832:3895   */\n      swap3\n      pop\n        /* \"#utility.yul\":3787:3905   */\n      pop\n        /* \"#utility.yul\":3972:3974   */\n      0x40\n        /* \"#utility.yul\":3961:3970   */\n      dup5\n        /* \"#utility.yul\":3957:3975   */\n      add\n        /* \"#utility.yul\":3944:3976   */\n      calldataload\n        /* \"#utility.yul\":4003:4021   */\n      0xffffffffffffffff\n        /* \"#utility.yul\":3995:4001   */\n      dup2\n        /* \"#utility.yul\":3992:4022   */\n      gt\n        /* \"#utility.yul\":3989:4106   */\n      iszero\n      tag_153\n      jumpi\n        /* \"#utility.yul\":4025:4104   */\n      tag_154\n      tag_57\n      jump\t// in\n    tag_154:\n        /* \"#utility.yul\":3989:4106   */\n    tag_153:\n        /* \"#utility.yul\":4130:4193   */\n      tag_155\n        /* \"#utility.yul\":4185:4192   */\n      dup7\n        /* \"#utility.yul\":4176:4182   */\n      dup3\n        /* \"#utility.yul\":4165:4174   */\n      dup8\n        /* \"#utility.yul\":4161:4183   */\n      add\n        /* \"#utility.yul\":4130:4193   */\n      tag_73\n      jump\t// in\n    tag_155:\n        /* \"#utility.yul\":4120:4193   */\n      swap2\n      pop\n        /* \"#utility.yul\":3915:4203   */\n      pop\n        /* \"#utility.yul\":3411:4210   */\n      swap3\n      pop\n      swap3\n      pop\n      swap3\n      jump\t// out\n        /* \"#utility.yul\":4216:4545   */\n    tag_11:\n        /* \"#utility.yul\":4275:4281   */\n      0x00\n        /* \"#utility.yul\":4324:4326   */\n      0x20\n        /* \"#utility.yul\":4312:4321   */\n      dup3\n        /* \"#utility.yul\":4303:4310   */\n      dup5\n        /* \"#utility.yul\":4299:4322   */\n      sub\n        /* \"#utility.yul\":4295:4327   */\n      slt\n        /* \"#utility.yul\":4292:4411   */\n      iszero\n      tag_157\n      jumpi\n        /* \"#utility.yul\":4330:4409   */\n      tag_158\n      tag_56\n      jump\t// in\n    tag_158:\n        /* \"#utility.yul\":4292:4411   */\n    tag_157:\n        /* \"#utility.yul\":4450:4451   */\n      0x00\n        /* \"#utility.yul\":4475:4528   */\n      tag_159\n        /* \"#utility.yul\":4520:4527   */\n      dup5\n        /* \"#utility.yul\":4511:4517   */\n      dup3\n        /* \"#utility.yul\":4500:4509   */\n      dup6\n        /* \"#utility.yul\":4496:4518   */\n      add\n        /* \"#utility.yul\":4475:4528   */\n      tag_64\n      jump\t// in\n    tag_159:\n        /* \"#utility.yul\":4465:4528   */\n      swap2\n      pop\n        /* \"#utility.yul\":4421:4538   */\n      pop\n        /* \"#utility.yul\":4216:4545   */\n      swap3\n      swap2\n      pop\n      pop\n      jump\t// out\n        /* \"#utility.yul\":4551:4693   */\n    tag_74:\n        /* \"#utility.yul\":4646:4652   */\n      0x00\n        /* \"#utility.yul\":4680:4685   */\n      dup2\n        /* \"#utility.yul\":4674:4686   */\n      mload\n        /* \"#utility.yul\":4664:4686   */\n      swap1\n      pop\n        /* \"#utility.yul\":4551:4693   */\n      swap2\n      swap1\n      pop\n      jump\t// out\n        /* \"#utility.yul\":4699:4911   */\n    tag_75:\n        /* \"#utility.yul\":4826:4837   */\n      0x00\n        /* \"#utility.yul\":4860:4866   */\n      dup3\n        /* \"#utility.yul\":4855:4858   */\n      dup3\n        /* \"#utility.yul\":4848:4867   */\n      mstore\n        /* \"#utility.yul\":4900:4904   */\n      0x20\n        /* \"#utility.yul\":4895:4898   */\n      dup3\n        /* \"#utility.yul\":4891:4905   */\n      add\n        /* \"#utility.yul\":4876:4905   */\n      swap1\n      pop\n        /* \"#utility.yul\":4699:4911   */\n      swap3\n      swap2\n      pop\n      pop\n      jump\t// out\n        /* \"#utility.yul\":4917:5077   */\n    tag_76:\n        /* \"#utility.yul\":5012:5016   */\n      0x00\n        /* \"#utility.yul\":5035:5038   */\n      dup2\n        /* \"#utility.yul\":5027:5038   */\n      swap1\n      pop\n        /* \"#utility.yul\":5065:5069   */\n      0x20\n        /* \"#utility.yul\":5060:5063   */\n      dup3\n        /* \"#utility.yul\":5056:5070   */\n      add\n        /* \"#utility.yul\":5048:5070   */\n      swap1\n      pop\n        /* \"#utility.yul\":4917:5077   */\n      swap2\n      swap1\n      pop\n      jump\t// out\n        /* \"#utility.yul\":5083:5191   */\n    tag_77:\n        /* \"#utility.yul\":5160:5184   */\n      tag_164\n        /* \"#utility.yul\":5178:5183   */\n      dup2\n        /* \"#utility.yul\":5160:5184   */\n      tag_62\n      jump\t// in\n    tag_164:\n        /* \"#utility.yul\":5155:5158   */\n      dup3\n        /* \"#utility.yul\":5148:5185   */\n      mstore\n        /* \"#utility.yul\":5083:5191   */\n      pop\n      pop\n      jump\t// out\n        /* \"#utility.yul\":5197:5305   */\n    tag_78:\n        /* \"#utility.yul\":5274:5298   */\n      tag_166\n        /* \"#utility.yul\":5292:5297   */\n      dup2\n        /* \"#utility.yul\":5274:5298   */\n      tag_59\n      jump\t// in\n    tag_166:\n        /* \"#utility.yul\":5269:5272   */\n      dup3\n        /* \"#utility.yul\":5262:5299   */\n      mstore\n        /* \"#utility.yul\":5197:5305   */\n      pop\n      pop\n      jump\t// out\n        /* \"#utility.yul\":5311:5410   */\n    tag_79:\n        /* \"#utility.yul\":5363:5369   */\n      0x00\n        /* \"#utility.yul\":5397:5402   */\n      dup2\n        /* \"#utility.yul\":5391:5403   */\n      mload\n        /* \"#utility.yul\":5381:5403   */\n      swap1\n      pop\n        /* \"#utility.yul\":5311:5410   */\n      swap2\n      swap1\n      pop\n      jump\t// out\n        /* \"#utility.yul\":5416:5575   */\n    tag_80:\n        /* \"#utility.yul\":5490:5501   */\n      0x00\n        /* \"#utility.yul\":5524:5530   */\n      dup3\n        /* \"#utility.yul\":5519:5522   */\n      dup3\n        /* \"#utility.yul\":5512:5531   */\n      mstore\n        /* \"#utility.yul\":5564:5568   */\n      0x20\n        /* \"#utility.yul\":5559:5562   */\n      dup3\n        /* \"#utility.yul\":5555:5569   */\n      add\n        /* \"#utility.yul\":5540:5569   */\n      swap1\n      pop\n        /* \"#utility.yul\":5416:5575   */\n      swap3\n      swap2\n      pop\n      pop\n      jump\t// out\n        /* \"#utility.yul\":5581:5888   */\n    tag_81:\n        /* \"#utility.yul\":5649:5650   */\n      0x00\n        /* \"#utility.yul\":5659:5772   */\n    tag_170:\n        /* \"#utility.yul\":5673:5679   */\n      dup4\n        /* \"#utility.yul\":5670:5671   */\n      dup2\n        /* \"#utility.yul\":5667:5680   */\n      lt\n        /* \"#utility.yul\":5659:5772   */\n      iszero\n      tag_172\n      jumpi\n        /* \"#utility.yul\":5758:5759   */\n      dup1\n        /* \"#utility.yul\":5753:5756   */\n      dup3\n        /* \"#utility.yul\":5749:5760   */\n      add\n        /* \"#utility.yul\":5743:5761   */\n      mload\n        /* \"#utility.yul\":5739:5740   */\n      dup2\n        /* \"#utility.yul\":5734:5737   */\n      dup5\n        /* \"#utility.yul\":5730:5741   */\n      add\n        /* \"#utility.yul\":5723:5762   */\n      mstore\n        /* \"#utility.yul\":5695:5697   */\n      0x20\n        /* \"#utility.yul\":5692:5693   */\n      dup2\n        /* \"#utility.yul\":5688:5698   */\n      add\n        /* \"#utility.yul\":5683:5698   */\n      swap1\n      pop\n        /* \"#utility.yul\":5659:5772   */\n      jump(tag_170)\n    tag_172:\n        /* \"#utility.yul\":5790:5796   */\n      dup4\n        /* \"#utility.yul\":5787:5788   */\n      dup2\n        /* \"#utility.yul\":5784:5797   */\n      gt\n        /* \"#utility.yul\":5781:5882   */\n      iszero\n      tag_173\n      jumpi\n        /* \"#utility.yul\":5870:5871   */\n      0x00\n        /* \"#utility.yul\":5861:5867   */\n      dup5\n        /* \"#utility.yul\":5856:5859   */\n      dup5\n        /* \"#utility.yul\":5852:5868   */\n      add\n        /* \"#utility.yul\":5845:5872   */\n      mstore\n        /* \"#utility.yul\":5781:5882   */\n    tag_173:\n        /* \"#utility.yul\":5630:5888   */\n      pop\n        /* \"#utility.yul\":5581:5888   */\n      pop\n      pop\n      pop\n      jump\t// out\n        /* \"#utility.yul\":5894:6238   */\n    tag_82:\n        /* \"#utility.yul\":5972:5975   */\n      0x00\n        /* \"#utility.yul\":6000:6039   */\n      tag_175\n        /* \"#utility.yul\":6033:6038   */\n      dup3\n        /* \"#utility.yul\":6000:6039   */\n      tag_79\n      jump\t// in\n    tag_175:\n        /* \"#utility.yul\":6055:6116   */\n      tag_176\n        /* \"#utility.yul\":6109:6115   */\n      dup2\n        /* \"#utility.yul\":6104:6107   */\n      dup6\n        /* \"#utility.yul\":6055:6116   */\n      tag_80\n      jump\t// in\n    tag_176:\n        /* \"#utility.yul\":6048:6116   */\n      swap4\n      pop\n        /* \"#utility.yul\":6125:6177   */\n      tag_177\n        /* \"#utility.yul\":6170:6176   */\n      dup2\n        /* \"#utility.yul\":6165:6168   */\n      dup6\n        /* \"#utility.yul\":6158:6162   */\n      0x20\n        /* \"#utility.yul\":6151:6156   */\n      dup7\n        /* \"#utility.yul\":6147:6163   */\n      add\n        /* \"#utility.yul\":6125:6177   */\n      tag_81\n      jump\t// in\n    tag_177:\n        /* \"#utility.yul\":6202:6231   */\n      tag_178\n        /* \"#utility.yul\":6224:6230   */\n      dup2\n        /* \"#utility.yul\":6202:6231   */\n      tag_67\n      jump\t// in\n    tag_178:\n        /* \"#utility.yul\":6197:6200   */\n      dup5\n        /* \"#utility.yul\":6193:6232   */\n      add\n        /* \"#utility.yul\":6186:6232   */\n      swap2\n      pop\n        /* \"#utility.yul\":5976:6238   */\n      pop\n        /* \"#utility.yul\":5894:6238   */\n      swap3\n      swap2\n      pop\n      pop\n      jump\t// out\n        /* \"#utility.yul\":6336:8090   */\n    tag_83:\n        /* \"#utility.yul\":6451:6454   */\n      0x00\n        /* \"#utility.yul\":6487:6493   */\n      0x0100\n        /* \"#utility.yul\":6482:6485   */\n      dup4\n        /* \"#utility.yul\":6478:6494   */\n      add\n        /* \"#utility.yul\":6575:6579   */\n      0x00\n        /* \"#utility.yul\":6568:6573   */\n      dup4\n        /* \"#utility.yul\":6564:6580   */\n      add\n        /* \"#utility.yul\":6558:6581   */\n      mload\n        /* \"#utility.yul\":6594:6657   */\n      tag_180\n        /* \"#utility.yul\":6651:6655   */\n      0x00\n        /* \"#utility.yul\":6646:6649   */\n      dup7\n        /* \"#utility.yul\":6642:6656   */\n      add\n        /* \"#utility.yul\":6628:6640   */\n      dup3\n        /* \"#utility.yul\":6594:6657   */\n      tag_77\n      jump\t// in\n    tag_180:\n        /* \"#utility.yul\":6504:6667   */\n      pop\n        /* \"#utility.yul\":6751:6755   */\n      0x20\n        /* \"#utility.yul\":6744:6749   */\n      dup4\n        /* \"#utility.yul\":6740:6756   */\n      add\n        /* \"#utility.yul\":6734:6757   */\n      mload\n        /* \"#utility.yul\":6770:6833   */\n      tag_181\n        /* \"#utility.yul\":6827:6831   */\n      0x20\n        /* \"#utility.yul\":6822:6825   */\n      dup7\n        /* \"#utility.yul\":6818:6832   */\n      add\n        /* \"#utility.yul\":6804:6816   */\n      dup3\n        /* \"#utility.yul\":6770:6833   */\n      tag_77\n      jump\t// in\n    tag_181:\n        /* \"#utility.yul\":6677:6843   */\n      pop\n        /* \"#utility.yul\":6928:6932   */\n      0x40\n        /* \"#utility.yul\":6921:6926   */\n      dup4\n        /* \"#utility.yul\":6917:6933   */\n      add\n        /* \"#utility.yul\":6911:6934   */\n      mload\n        /* \"#utility.yul\":6947:7010   */\n      tag_182\n        /* \"#utility.yul\":7004:7008   */\n      0x40\n        /* \"#utility.yul\":6999:7002   */\n      dup7\n        /* \"#utility.yul\":6995:7009   */\n      add\n        /* \"#utility.yul\":6981:6993   */\n      dup3\n        /* \"#utility.yul\":6947:7010   */\n      tag_78\n      jump\t// in\n    tag_182:\n        /* \"#utility.yul\":6853:7020   */\n      pop\n        /* \"#utility.yul\":7107:7111   */\n      0x60\n        /* \"#utility.yul\":7100:7105   */\n      dup4\n        /* \"#utility.yul\":7096:7112   */\n      add\n        /* \"#utility.yul\":7090:7113   */\n      mload\n        /* \"#utility.yul\":7126:7189   */\n      tag_183\n        /* \"#utility.yul\":7183:7187   */\n      0x60\n        /* \"#utility.yul\":7178:7181   */\n      dup7\n        /* \"#utility.yul\":7174:7188   */\n      add\n        /* \"#utility.yul\":7160:7172   */\n      dup3\n        /* \"#utility.yul\":7126:7189   */\n      tag_78\n      jump\t// in\n    tag_183:\n        /* \"#utility.yul\":7030:7199   */\n      pop\n        /* \"#utility.yul\":7284:7288   */\n      0x80\n        /* \"#utility.yul\":7277:7282   */\n      dup4\n        /* \"#utility.yul\":7273:7289   */\n      add\n        /* \"#utility.yul\":7267:7290   */\n      mload\n        /* \"#utility.yul\":7303:7366   */\n      tag_184\n        /* \"#utility.yul\":7360:7364   */\n      0x80\n        /* \"#utility.yul\":7355:7358   */\n      dup7\n        /* \"#utility.yul\":7351:7365   */\n      add\n        /* \"#utility.yul\":7337:7349   */\n      dup3\n        /* \"#utility.yul\":7303:7366   */\n      tag_77\n      jump\t// in\n    tag_184:\n        /* \"#utility.yul\":7209:7376   */\n      pop\n        /* \"#utility.yul\":7466:7470   */\n      0xa0\n        /* \"#utility.yul\":7459:7464   */\n      dup4\n        /* \"#utility.yul\":7455:7471   */\n      add\n        /* \"#utility.yul\":7449:7472   */\n      mload\n        /* \"#utility.yul\":7485:7548   */\n      tag_185\n        /* \"#utility.yul\":7542:7546   */\n      0xa0\n        /* \"#utility.yul\":7537:7540   */\n      dup7\n        /* \"#utility.yul\":7533:7547   */\n      add\n        /* \"#utility.yul\":7519:7531   */\n      dup3\n        /* \"#utility.yul\":7485:7548   */\n      tag_77\n      jump\t// in\n    tag_185:\n        /* \"#utility.yul\":7386:7558   */\n      pop\n        /* \"#utility.yul\":7647:7651   */\n      0xc0\n        /* \"#utility.yul\":7640:7645   */\n      dup4\n        /* \"#utility.yul\":7636:7652   */\n      add\n        /* \"#utility.yul\":7630:7653   */\n      mload\n        /* \"#utility.yul\":7700:7703   */\n      dup5\n        /* \"#utility.yul\":7694:7698   */\n      dup3\n        /* \"#utility.yul\":7690:7704   */\n      sub\n        /* \"#utility.yul\":7683:7687   */\n      0xc0\n        /* \"#utility.yul\":7678:7681   */\n      dup7\n        /* \"#utility.yul\":7674:7688   */\n      add\n        /* \"#utility.yul\":7667:7705   */\n      mstore\n        /* \"#utility.yul\":7726:7799   */\n      tag_186\n        /* \"#utility.yul\":7794:7798   */\n      dup3\n        /* \"#utility.yul\":7780:7792   */\n      dup3\n        /* \"#utility.yul\":7726:7799   */\n      tag_82\n      jump\t// in\n    tag_186:\n        /* \"#utility.yul\":7718:7799   */\n      swap2\n      pop\n        /* \"#utility.yul\":7568:7810   */\n      pop\n        /* \"#utility.yul\":7900:7904   */\n      0xe0\n        /* \"#utility.yul\":7893:7898   */\n      dup4\n        /* \"#utility.yul\":7889:7905   */\n      add\n        /* \"#utility.yul\":7883:7906   */\n      mload\n        /* \"#utility.yul\":7953:7956   */\n      dup5\n        /* \"#utility.yul\":7947:7951   */\n      dup3\n        /* \"#utility.yul\":7943:7957   */\n      sub\n        /* \"#utility.yul\":7936:7940   */\n      0xe0\n        /* \"#utility.yul\":7931:7934   */\n      dup7\n        /* \"#utility.yul\":7927:7941   */\n      add\n        /* \"#utility.yul\":7920:7958   */\n      mstore\n        /* \"#utility.yul\":7979:8052   */\n      tag_187\n        /* \"#utility.yul\":8047:8051   */\n      dup3\n        /* \"#utility.yul\":8033:8045   */\n      dup3\n        /* \"#utility.yul\":7979:8052   */\n      tag_82\n      jump\t// in\n    tag_187:\n        /* \"#utility.yul\":7971:8052   */\n      swap2\n      pop\n        /* \"#utility.yul\":7820:8063   */\n      pop\n        /* \"#utility.yul\":8080:8084   */\n      dup1\n        /* \"#utility.yul\":8073:8084   */\n      swap2\n      pop\n        /* \"#utility.yul\":6456:8090   */\n      pop\n        /* \"#utility.yul\":6336:8090   */\n      swap3\n      swap2\n      pop\n      pop\n      jump\t// out\n        /* \"#utility.yul\":8096:8364   */\n    tag_84:\n        /* \"#utility.yul\":8221:8231   */\n      0x00\n        /* \"#utility.yul\":8256:8358   */\n      tag_189\n        /* \"#utility.yul\":8354:8357   */\n      dup4\n        /* \"#utility.yul\":8346:8352   */\n      dup4\n        /* \"#utility.yul\":8256:8358   */\n      tag_83\n      jump\t// in\n    tag_189:\n        /* \"#utility.yul\":8242:8358   */\n      swap1\n      pop\n        /* \"#utility.yul\":8096:8364   */\n      swap3\n      swap2\n      pop\n      pop\n      jump\t// out\n        /* \"#utility.yul\":8370:8511   */\n    tag_85:\n        /* \"#utility.yul\":8468:8472   */\n      0x00\n        /* \"#utility.yul\":8500:8504   */\n      0x20\n        /* \"#utility.yul\":8495:8498   */\n      dup3\n        /* \"#utility.yul\":8491:8505   */\n      add\n        /* \"#utility.yul\":8483:8505   */\n      swap1\n      pop\n        /* \"#utility.yul\":8370:8511   */\n      swap2\n      swap1\n      pop\n      jump\t// out\n        /* \"#utility.yul\":8613:9748   */\n    tag_86:\n        /* \"#utility.yul\":8788:8791   */\n      0x00\n        /* \"#utility.yul\":8817:8899   */\n      tag_192\n        /* \"#utility.yul\":8893:8898   */\n      dup3\n        /* \"#utility.yul\":8817:8899   */\n      tag_74\n      jump\t// in\n    tag_192:\n        /* \"#utility.yul\":8915:9029   */\n      tag_193\n        /* \"#utility.yul\":9022:9028   */\n      dup2\n        /* \"#utility.yul\":9017:9020   */\n      dup6\n        /* \"#utility.yul\":8915:9029   */\n      tag_75\n      jump\t// in\n    tag_193:\n        /* \"#utility.yul\":8908:9029   */\n      swap4\n      pop\n        /* \"#utility.yul\":9055:9058   */\n      dup4\n        /* \"#utility.yul\":9100:9104   */\n      0x20\n        /* \"#utility.yul\":9092:9098   */\n      dup3\n        /* \"#utility.yul\":9088:9105   */\n      mul\n        /* \"#utility.yul\":9083:9086   */\n      dup6\n        /* \"#utility.yul\":9079:9106   */\n      add\n        /* \"#utility.yul\":9130:9214   */\n      tag_194\n        /* \"#utility.yul\":9208:9213   */\n      dup6\n        /* \"#utility.yul\":9130:9214   */\n      tag_76\n      jump\t// in\n    tag_194:\n        /* \"#utility.yul\":9237:9244   */\n      dup1\n        /* \"#utility.yul\":9268:9269   */\n      0x00\n        /* \"#utility.yul\":9253:9703   */\n    tag_195:\n        /* \"#utility.yul\":9278:9284   */\n      dup6\n        /* \"#utility.yul\":9275:9276   */\n      dup2\n        /* \"#utility.yul\":9272:9285   */\n      lt\n        /* \"#utility.yul\":9253:9703   */\n      iszero\n      tag_197\n      jumpi\n        /* \"#utility.yul\":9349:9358   */\n      dup5\n        /* \"#utility.yul\":9343:9347   */\n      dup5\n        /* \"#utility.yul\":9339:9359   */\n      sub\n        /* \"#utility.yul\":9334:9337   */\n      dup10\n        /* \"#utility.yul\":9327:9360   */\n      mstore\n        /* \"#utility.yul\":9400:9406   */\n      dup2\n        /* \"#utility.yul\":9394:9407   */\n      mload\n        /* \"#utility.yul\":9428:9548   */\n      tag_198\n        /* \"#utility.yul\":9543:9547   */\n      dup6\n        /* \"#utility.yul\":9528:9541   */\n      dup3\n        /* \"#utility.yul\":9428:9548   */\n      tag_84\n      jump\t// in\n    tag_198:\n        /* \"#utility.yul\":9420:9548   */\n      swap5\n      pop\n        /* \"#utility.yul\":9571:9659   */\n      tag_199\n        /* \"#utility.yul\":9652:9658   */\n      dup4\n        /* \"#utility.yul\":9571:9659   */\n      tag_85\n      jump\t// in\n    tag_199:\n        /* \"#utility.yul\":9561:9659   */\n      swap3\n      pop\n        /* \"#utility.yul\":9688:9692   */\n      0x20\n        /* \"#utility.yul\":9683:9686   */\n      dup11\n        /* \"#utility.yul\":9679:9693   */\n      add\n        /* \"#utility.yul\":9672:9693   */\n      swap10\n      pop\n        /* \"#utility.yul\":9313:9703   */\n      pop\n        /* \"#utility.yul\":9300:9301   */\n      0x01\n        /* \"#utility.yul\":9297:9298   */\n      dup2\n        /* \"#utility.yul\":9293:9302   */\n      add\n        /* \"#utility.yul\":9288:9302   */\n      swap1\n      pop\n        /* \"#utility.yul\":9253:9703   */\n      jump(tag_195)\n    tag_197:\n        /* \"#utility.yul\":9257:9271   */\n      pop\n        /* \"#utility.yul\":9719:9723   */\n      dup3\n        /* \"#utility.yul\":9712:9723   */\n      swap8\n      pop\n        /* \"#utility.yul\":9739:9742   */\n      dup8\n        /* \"#utility.yul\":9732:9742   */\n      swap6\n      pop\n        /* \"#utility.yul\":8793:9748   */\n      pop\n      pop\n      pop\n      pop\n      pop\n        /* \"#utility.yul\":8613:9748   */\n      swap3\n      swap2\n      pop\n      pop\n      jump\t// out\n        /* \"#utility.yul\":9754:10239   */\n    tag_14:\n        /* \"#utility.yul\":9953:9957   */\n      0x00\n        /* \"#utility.yul\":9991:9993   */\n      0x20\n        /* \"#utility.yul\":9980:9989   */\n      dup3\n        /* \"#utility.yul\":9976:9994   */\n      add\n        /* \"#utility.yul\":9968:9994   */\n      swap1\n      pop\n        /* \"#utility.yul\":10040:10049   */\n      dup2\n        /* \"#utility.yul\":10034:10038   */\n      dup2\n        /* \"#utility.yul\":10030:10050   */\n      sub\n        /* \"#utility.yul\":10026:10027   */\n      0x00\n        /* \"#utility.yul\":10015:10024   */\n      dup4\n        /* \"#utility.yul\":10011:10028   */\n      add\n        /* \"#utility.yul\":10004:10051   */\n      mstore\n        /* \"#utility.yul\":10068:10232   */\n      tag_201\n        /* \"#utility.yul\":10227:10231   */\n      dup2\n        /* \"#utility.yul\":10218:10224   */\n      dup5\n        /* \"#utility.yul\":10068:10232   */\n      tag_86\n      jump\t// in\n    tag_201:\n        /* \"#utility.yul\":10060:10232   */\n      swap1\n      pop\n        /* \"#utility.yul\":9754:10239   */\n      swap3\n      swap2\n      pop\n      pop\n      jump\t// out\n        /* \"#utility.yul\":10245:10425   */\n    tag_87:\n        /* \"#utility.yul\":10293:10370   */\n      0x4e487b7100000000000000000000000000000000000000000000000000000000\n        /* \"#utility.yul\":10290:10291   */\n      0x00\n        /* \"#utility.yul\":10283:10371   */\n      mstore\n        /* \"#utility.yul\":10390:10394   */\n      0x11\n        /* \"#utility.yul\":10387:10388   */\n      0x04\n        /* \"#utility.yul\":10380:10395   */\n      mstore\n        /* \"#utility.yul\":10414:10418   */\n      0x24\n        /* \"#utility.yul\":10411:10412   */\n      0x00\n        /* \"#utility.yul\":10404:10419   */\n      revert\n        /* \"#utility.yul\":10431:10664   */\n    tag_17:\n        /* \"#utility.yul\":10470:10473   */\n      0x00\n        /* \"#utility.yul\":10493:10517   */\n      tag_204\n        /* \"#utility.yul\":10511:10516   */\n      dup3\n        /* \"#utility.yul\":10493:10517   */\n      tag_62\n      jump\t// in\n    tag_204:\n        /* \"#utility.yul\":10484:10517   */\n      swap2\n      pop\n        /* \"#utility.yul\":10539:10605   */\n      0xffffffffffffffffffffffffffffffffffffffffffffffffffffffffffffffff\n        /* \"#utility.yul\":10532:10537   */\n      dup3\n        /* \"#utility.yul\":10529:10606   */\n      sub\n        /* \"#utility.yul\":10526:10629   */\n      tag_205\n      jumpi\n        /* \"#utility.yul\":10609:10627   */\n      tag_206\n      tag_87\n      jump\t// in\n    tag_206:\n        /* \"#utility.yul\":10526:10629   */\n    tag_205:\n        /* \"#utility.yul\":10656:10657   */\n      0x01\n        /* \"#utility.yul\":10649:10654   */\n      dup3\n        /* \"#utility.yul\":10645:10658   */\n      add\n        /* \"#utility.yul\":10638:10658   */\n      swap1\n      pop\n        /* \"#utility.yul\":10431:10664   */\n      swap2\n      swap1\n      pop\n      jump\t// out\n        /* \"#utility.yul\":10670:10850   */\n    tag_88:\n        /* \"#utility.yul\":10718:10795   */\n      0x4e487b7100000000000000000000000000000000000000000000000000000000\n        /* \"#utility.yul\":10715:10716   */\n      0x00\n        /* \"#utility.yul\":10708:10796   */\n      mstore\n        /* \"#utility.yul\":10815:10819   */\n      0x22\n        /* \"#utility.yul\":10812:10813   */\n      0x04\n        /* \"#utility.yul\":10805:10820   */\n      mstore\n        /* \"#utility.yul\":10839:10843   */\n      0x24\n        /* \"#utility.yul\":10836:10837   */\n      0x00\n        /* \"#utility.yul\":10829:10844   */\n      revert\n        /* \"#utility.yul\":10856:11176   */\n    tag_42:\n        /* \"#utility.yul\":10900:10906   */\n      0x00\n        /* \"#utility.yul\":10937:10938   */\n      0x02\n        /* \"#utility.yul\":10931:10935   */\n      dup3\n        /* \"#utility.yul\":10927:10939   */\n      div\n        /* \"#utility.yul\":10917:10939   */\n      swap1\n      pop\n        /* \"#utility.yul\":10984:10985   */\n      0x01\n        /* \"#utility.yul\":10978:10982   */\n      dup3\n        /* \"#utility.yul\":10974:10986   */\n      and\n        /* \"#utility.yul\":11005:11023   */\n      dup1\n        /* \"#utility.yul\":10995:11076   */\n      tag_209\n      jumpi\n        /* \"#utility.yul\":11061:11065   */\n      0x7f\n        /* \"#utility.yul\":11053:11059   */\n      dup3\n        /* \"#utility.yul\":11049:11066   */\n      and\n        /* \"#utility.yul\":11039:11066   */\n      swap2\n      pop\n        /* \"#utility.yul\":10995:11076   */\n    tag_209:\n        /* \"#utility.yul\":11123:11125   */\n      0x20\n        /* \"#utility.yul\":11115:11121   */\n      dup3\n        /* \"#utility.yul\":11112:11126   */\n      lt\n        /* \"#utility.yul\":11092:11110   */\n      dup2\n        /* \"#utility.yul\":11089:11127   */\n      sub\n        /* \"#utility.yul\":11086:11170   */\n      tag_210\n      jumpi\n        /* \"#utility.yul\":11142:11160   */\n      tag_211\n      tag_88\n      jump\t// in\n    tag_211:\n        /* \"#utility.yul\":11086:11170   */\n    tag_210:\n        /* \"#utility.yul\":10907:11176   */\n      pop\n        /* \"#utility.yul\":10856:11176   */\n      swap2\n      swap1\n      pop\n      jump\t// out\n        /* \"#utility.yul\":11182:11323   */\n    tag_89:\n        /* \"#utility.yul\":11231:11235   */\n      0x00\n        /* \"#utility.yul\":11254:11257   */\n      dup2\n        /* \"#utility.yul\":11246:11257   */\n      swap1\n      pop\n        /* \"#utility.yul\":11277:11280   */\n      dup2\n        /* \"#utility.yul\":11274:11275   */\n      0x00\n        /* \"#utility.yul\":11267:11281   */\n      mstore\n        /* \"#utility.yul\":11311:11315   */\n      0x20\n        /* \"#utility.yul\":11308:11309   */\n      0x00\n        /* \"#utility.yul\":11298:11316   */\n      keccak256\n        /* \"#utility.yul\":11290:11316   */\n      swap1\n      pop\n        /* \"#utility.yul\":11182:11323   */\n      swap2\n      swap1\n      pop\n      jump\t// out\n        /* \"#utility.yul\":11329:11422   */\n    tag_90:\n        /* \"#utility.yul\":11366:11372   */\n      0x00\n        /* \"#utility.yul\":11413:11415   */\n      0x20\n        /* \"#utility.yul\":11408:11410   */\n      0x1f\n        /* \"#utility.yul\":11401:11406   */\n      dup4\n        /* \"#utility.yul\":11397:11411   */\n      add\n        /* \"#utility.yul\":11393:11416   */\n      div\n        /* \"#utility.yul\":11383:11416   */\n      swap1\n      pop\n        /* \"#utility.yul\":11329:11422   */\n      swap2\n      swap1\n      pop\n      jump\t// out\n        /* \"#utility.yul\":11428:11535   */\n    tag_91:\n        /* \"#utility.yul\":11472:11480   */\n      0x00\n        /* \"#utility.yul\":11522:11527   */\n      dup3\n        /* \"#utility.yul\":11516:11520   */\n      dup3\n        /* \"#utility.yul\":11512:11528   */\n      shl\n        /* \"#utility.yul\":11491:11528   */\n      swap1\n      pop\n        /* \"#utility.yul\":11428:11535   */\n      swap3\n      swap2\n      pop\n      pop\n      jump\t// out\n        /* \"#utility.yul\":11541:11934   */\n    tag_92:\n        /* \"#utility.yul\":11610:11616   */\n      0x00\n        /* \"#utility.yul\":11660:11661   */\n      0x08\n        /* \"#utility.yul\":11648:11658   */\n      dup4\n        /* \"#utility.yul\":11644:11662   */\n      mul\n        /* \"#utility.yul\":11683:11780   */\n      tag_216\n        /* \"#utility.yul\":11713:11779   */\n      0xffffffffffffffffffffffffffffffffffffffffffffffffffffffffffffffff\n        /* \"#utility.yul\":11702:11711   */\n      dup3\n        /* \"#utility.yul\":11683:11780   */\n      tag_91\n      jump\t// in\n    tag_216:\n        /* \"#utility.yul\":11801:11840   */\n      tag_217\n        /* \"#utility.yul\":11831:11839   */\n      dup7\n        /* \"#utility.yul\":11820:11829   */\n      dup4\n        /* \"#utility.yul\":11801:11840   */\n      tag_91\n      jump\t// in\n    tag_217:\n        /* \"#utility.yul\":11789:11840   */\n      swap6\n      pop\n        /* \"#utility.yul\":11873:11877   */\n      dup1\n        /* \"#utility.yul\":11869:11878   */\n      not\n        /* \"#utility.yul\":11862:11867   */\n      dup5\n        /* \"#utility.yul\":11858:11879   */\n      and\n        /* \"#utility.yul\":11849:11879   */\n      swap4\n      pop\n        /* \"#utility.yul\":11922:11926   */\n      dup1\n        /* \"#utility.yul\":11912:11920   */\n      dup7\n        /* \"#utility.yul\":11908:11927   */\n      and\n        /* \"#utility.yul\":11901:11906   */\n      dup5\n        /* \"#utility.yul\":11898:11928   */\n      or\n        /* \"#utility.yul\":11888:11928   */\n      swap3\n      pop\n        /* \"#utility.yul\":11617:11934   */\n      pop\n      pop\n        /* \"#utility.yul\":11541:11934   */\n      swap4\n      swap3\n      pop\n      pop\n      pop\n      jump\t// out\n        /* \"#utility.yul\":11940:12000   */\n    tag_93:\n        /* \"#utility.yul\":11968:11971   */\n      0x00\n        /* \"#utility.yul\":11989:11994   */\n      dup2\n        /* \"#utility.yul\":11982:11994   */\n      swap1\n      pop\n        /* \"#utility.yul\":11940:12000   */\n      swap2\n      swap1\n      pop\n      jump\t// out\n        /* \"#utility.yul\":12006:12148   */\n    tag_94:\n        /* \"#utility.yul\":12056:12065   */\n      0x00\n        /* \"#utility.yul\":12089:12142   */\n      tag_220\n        /* \"#utility.yul\":12107:12141   */\n      tag_221\n        /* \"#utility.yul\":12116:12140   */\n      tag_222\n        /* \"#utility.yul\":12134:12139   */\n      dup5\n        /* \"#utility.yul\":12116:12140   */\n      tag_62\n      jump\t// in\n    tag_222:\n        /* \"#utility.yul\":12107:12141   */\n      tag_93\n      jump\t// in\n    tag_221:\n        /* \"#utility.yul\":12089:12142   */\n      tag_62\n      jump\t// in\n    tag_220:\n        /* \"#utility.yul\":12076:12142   */\n      swap1\n      pop\n        /* \"#utility.yul\":12006:12148   */\n      swap2\n      swap1\n      pop\n      jump\t// out\n        /* \"#utility.yul\":12154:12229   */\n    tag_95:\n        /* \"#utility.yul\":12197:12200   */\n      0x00\n        /* \"#utility.yul\":12218:12223   */\n      dup2\n        /* \"#utility.yul\":12211:12223   */\n      swap1\n      pop\n        /* \"#utility.yul\":12154:12229   */\n      swap2\n      swap1\n      pop\n      jump\t// out\n        /* \"#utility.yul\":12235:12504   */\n    tag_96:\n        /* \"#utility.yul\":12345:12384   */\n      tag_225\n        /* \"#utility.yul\":12376:12383   */\n      dup4\n        /* \"#utility.yul\":12345:12384   */\n      tag_94\n      jump\t// in\n    tag_225:\n        /* \"#utility.yul\":12406:12497   */\n      tag_226\n        /* \"#utility.yul\":12455:12496   */\n      tag_227\n        /* \"#utility.yul\":12479:12495   */\n      dup3\n        /* \"#utility.yul\":12455:12496   */\n      tag_95\n      jump\t// in\n    tag_227:\n        /* \"#utility.yul\":12447:12453   */\n      dup5\n        /* \"#utility.yul\":12440:12444   */\n      dup5\n        /* \"#utility.yul\":12434:12445   */\n      sload\n        /* \"#utility.yul\":12406:12497   */\n      tag_92\n      jump\t// in\n    tag_226:\n        /* \"#utility.yul\":12400:12404   */\n      dup3\n        /* \"#utility.yul\":12393:12498   */\n      sstore\n        /* \"#utility.yul\":12311:12504   */\n      pop\n        /* \"#utility.yul\":12235:12504   */\n      pop\n      pop\n      pop\n      jump\t// out\n        /* \"#utility.yul\":12510:12583   */\n    tag_97:\n        /* \"#utility.yul\":12555:12558   */\n      0x00\n        /* \"#utility.yul\":12510:12583   */\n      swap1\n      jump\t// out\n        /* \"#utility.yul\":12589:12778   */\n    tag_98:\n        /* \"#utility.yul\":12666:12698   */\n      tag_230\n      tag_97\n      jump\t// in\n    tag_230:\n        /* \"#utility.yul\":12707:12772   */\n      tag_231\n        /* \"#utility.yul\":12765:12771   */\n      dup2\n        /* \"#utility.yul\":12757:12763   */\n      dup5\n        /* \"#utility.yul\":12751:12755   */\n      dup5\n        /* \"#utility.yul\":12707:12772   */\n      tag_96\n      jump\t// in\n    tag_231:\n        /* \"#utility.yul\":12642:12778   */\n      pop\n        /* \"#utility.yul\":12589:12778   */\n      pop\n      pop\n      jump\t// out\n        /* \"#utility.yul\":12784:12970   */\n    tag_99:\n        /* \"#utility.yul\":12844:12964   */\n    tag_233:\n        /* \"#utility.yul\":12861:12864   */\n      dup2\n        /* \"#utility.yul\":12854:12859   */\n      dup2\n        /* \"#utility.yul\":12851:12865   */\n      lt\n        /* \"#utility.yul\":12844:12964   */\n      iszero\n      tag_235\n      jumpi\n        /* \"#utility.yul\":12915:12954   */\n      tag_236\n        /* \"#utility.yul\":12952:12953   */\n      0x00\n        /* \"#utility.yul\":12945:12950   */\n      dup3\n        /* \"#utility.yul\":12915:12954   */\n      tag_98\n      jump\t// in\n    tag_236:\n        /* \"#utility.yul\":12888:12889   */\n      0x01\n        /* \"#utility.yul\":12881:12886   */\n      dup2\n        /* \"#utility.yul\":12877:12890   */\n      add\n        /* \"#utility.yul\":12868:12890   */\n      swap1\n      pop\n        /* \"#utility.yul\":12844:12964   */\n      jump(tag_233)\n    tag_235:\n        /* \"#utility.yul\":12784:12970   */\n      pop\n      pop\n      jump\t// out\n        /* \"#utility.yul\":12976:13519   */\n    tag_100:\n        /* \"#utility.yul\":13077:13079   */\n      0x1f\n        /* \"#utility.yul\":13072:13075   */\n      dup3\n        /* \"#utility.yul\":13069:13080   */\n      gt\n        /* \"#utility.yul\":13066:13512   */\n      iszero\n      tag_238\n      jumpi\n        /* \"#utility.yul\":13111:13149   */\n      tag_239\n        /* \"#utility.yul\":13143:13148   */\n      dup2\n        /* \"#utility.yul\":13111:13149   */\n      tag_89\n      jump\t// in\n    tag_239:\n        /* \"#utility.yul\":13195:13224   */\n      tag_240\n        /* \"#utility.yul\":13213:13223   */\n      dup5\n        /* \"#utility.yul\":13195:13224   */\n      tag_90\n      jump\t// in\n    tag_240:\n        /* \"#utility.yul\":13185:13193   */\n      dup2\n        /* \"#utility.yul\":13181:13225   */\n      add\n        /* \"#utility.yul\":13378:13380   */\n      0x20\n        /* \"#utility.yul\":13366:13376   */\n      dup6\n        /* \"#utility.yul\":13363:13381   */\n      lt\n        /* \"#utility.yul\":13360:13409   */\n      iszero\n      tag_241\n      jumpi\n        /* \"#utility.yul\":13399:13407   */\n      dup2\n        /* \"#utility.yul\":13384:13407   */\n      swap1\n      pop\n        /* \"#utility.yul\":13360:13409   */\n    tag_241:\n        /* \"#utility.yul\":13422:13502   */\n      tag_242\n        /* \"#utility.yul\":13478:13500   */\n      tag_243\n        /* \"#utility.yul\":13496:13499   */\n      dup6\n        /* \"#utility.yul\":13478:13500   */\n      tag_90\n      jump\t// in\n    tag_243:\n        /* \"#utility.yul\":13468:13476   */\n      dup4\n        /* \"#utility.yul\":13464:13501   */\n      add\n        /* \"#utility.yul\":13451:13462   */\n      dup3\n        /* \"#utility.yul\":13422:13502   */\n      tag_99\n      jump\t// in\n    tag_242:\n        /* \"#utility.yul\":13081:13512   */\n      pop\n      pop\n        /* \"#utility.yul\":13066:13512   */\n    tag_238:\n        /* \"#utility.yul\":12976:13519   */\n      pop\n      pop\n      pop\n      jump\t// out\n        /* \"#utility.yul\":13525:13642   */\n    tag_101:\n        /* \"#utility.yul\":13579:13587   */\n      0x00\n        /* \"#utility.yul\":13629:13634   */\n      dup3\n        /* \"#utility.yul\":13623:13627   */\n      dup3\n        /* \"#utility.yul\":13619:13635   */\n      shr\n        /* \"#utility.yul\":13598:13635   */\n      swap1\n      pop\n        /* \"#utility.yul\":13525:13642   */\n      swap3\n      swap2\n      pop\n      pop\n      jump\t// out\n        /* \"#utility.yul\":13648:13817   */\n    tag_102:\n        /* \"#utility.yul\":13692:13698   */\n      0x00\n        /* \"#utility.yul\":13725:13776   */\n      tag_246\n        /* \"#utility.yul\":13773:13774   */\n      0x00\n        /* \"#utility.yul\":13769:13775   */\n      not\n        /* \"#utility.yul\":13761:13766   */\n      dup5\n        /* \"#utility.yul\":13758:13759   */\n      0x08\n        /* \"#utility.yul\":13754:13767   */\n      mul\n        /* \"#utility.yul\":13725:13776   */\n      tag_101\n      jump\t// in\n    tag_246:\n        /* \"#utility.yul\":13721:13777   */\n      not\n        /* \"#utility.yul\":13806:13810   */\n      dup1\n        /* \"#utility.yul\":13800:13804   */\n      dup4\n        /* \"#utility.yul\":13796:13811   */\n      and\n        /* \"#utility.yul\":13786:13811   */\n      swap2\n      pop\n        /* \"#utility.yul\":13699:13817   */\n      pop\n        /* \"#utility.yul\":13648:13817   */\n      swap3\n      swap2\n      pop\n      pop\n      jump\t// out\n        /* \"#utility.yul\":13822:14117   */\n    tag_103:\n        /* \"#utility.yul\":13898:13902   */\n      0x00\n        /* \"#utility.yul\":14044:14073   */\n      tag_248\n        /* \"#utility.yul\":14069:14072   */\n      dup4\n        /* \"#utility.yul\":14063:14067   */\n      dup4\n        /* \"#utility.yul\":14044:14073   */\n      tag_102\n      jump\t// in\n    tag_248:\n        /* \"#utility.yul\":14036:14073   */\n      swap2\n      pop\n        /* \"#utility.yul\":14106:14109   */\n      dup3\n        /* \"#utility.yul\":14103:14104   */\n      0x02\n        /* \"#utility.yul\":14099:14110   */\n      mul\n        /* \"#utility.yul\":14093:14097   */\n      dup3\n        /* \"#utility.yul\":14090:14111   */\n      or\n        /* \"#utility.yul\":14082:14111   */\n      swap1\n      pop\n        /* \"#utility.yul\":13822:14117   */\n      swap3\n      swap2\n      pop\n      pop\n      jump\t// out\n        /* \"#utility.yul\":14122:15517   */\n    tag_20:\n        /* \"#utility.yul\":14239:14276   */\n      tag_250\n        /* \"#utility.yul\":14272:14275   */\n      dup3\n        /* \"#utility.yul\":14239:14276   */\n      tag_79\n      jump\t// in\n    tag_250:\n        /* \"#utility.yul\":14341:14359   */\n      0xffffffffffffffff\n        /* \"#utility.yul\":14333:14339   */\n      dup2\n        /* \"#utility.yul\":14330:14360   */\n      gt\n        /* \"#utility.yul\":14327:14383   */\n      iszero\n      tag_251\n      jumpi\n        /* \"#utility.yul\":14363:14381   */\n      tag_252\n      tag_25\n      jump\t// in\n    tag_252:\n        /* \"#utility.yul\":14327:14383   */\n    tag_251:\n        /* \"#utility.yul\":14407:14445   */\n      tag_253\n        /* \"#utility.yul\":14439:14443   */\n      dup3\n        /* \"#utility.yul\":14433:14444   */\n      sload\n        /* \"#utility.yul\":14407:14445   */\n      tag_42\n      jump\t// in\n    tag_253:\n        /* \"#utility.yul\":14492:14559   */\n      tag_254\n        /* \"#utility.yul\":14552:14558   */\n      dup3\n        /* \"#utility.yul\":14544:14550   */\n      dup3\n        /* \"#utility.yul\":14538:14542   */\n      dup6\n        /* \"#utility.yul\":14492:14559   */\n      tag_100\n      jump\t// in\n    tag_254:\n        /* \"#utility.yul\":14586:14587   */\n      0x00\n        /* \"#utility.yul\":14610:14614   */\n      0x20\n        /* \"#utility.yul\":14597:14614   */\n      swap1\n      pop\n        /* \"#utility.yul\":14642:14644   */\n      0x1f\n        /* \"#utility.yul\":14634:14640   */\n      dup4\n        /* \"#utility.yul\":14631:14645   */\n      gt\n        /* \"#utility.yul\":14659:14660   */\n      0x01\n        /* \"#utility.yul\":14654:15272   */\n      dup2\n      eq\n      tag_256\n      jumpi\n        /* \"#utility.yul\":15316:15317   */\n      0x00\n        /* \"#utility.yul\":15333:15339   */\n      dup5\n        /* \"#utility.yul\":15330:15407   */\n      iszero\n      tag_257\n      jumpi\n        /* \"#utility.yul\":15382:15391   */\n      dup3\n        /* \"#utility.yul\":15377:15380   */\n      dup8\n        /* \"#utility.yul\":15373:15392   */\n      add\n        /* \"#utility.yul\":15367:15393   */\n      mload\n        /* \"#utility.yul\":15358:15393   */\n      swap1\n      pop\n        /* \"#utility.yul\":15330:15407   */\n    tag_257:\n        /* \"#utility.yul\":15433:15500   */\n      tag_258\n        /* \"#utility.yul\":15493:15499   */\n      dup6\n        /* \"#utility.yul\":15486:15491   */\n      dup3\n        /* \"#utility.yul\":15433:15500   */\n      tag_103\n      jump\t// in\n    tag_258:\n        /* \"#utility.yul\":15427:15431   */\n      dup7\n        /* \"#utility.yul\":15420:15501   */\n      sstore\n        /* \"#utility.yul\":15289:15511   */\n      pop\n        /* \"#utility.yul\":14624:15511   */\n      jump(tag_255)\n        /* \"#utility.yul\":14654:15272   */\n    tag_256:\n        /* \"#utility.yul\":14706:14710   */\n      0x1f\n        /* \"#utility.yul\":14702:14711   */\n      not\n        /* \"#utility.yul\":14694:14700   */\n      dup5\n        /* \"#utility.yul\":14690:14712   */\n      and\n        /* \"#utility.yul\":14740:14777   */\n      tag_259\n        /* \"#utility.yul\":14772:14776   */\n      dup7\n        /* \"#utility.yul\":14740:14777   */\n      tag_89\n      jump\t// in\n    tag_259:\n        /* \"#utility.yul\":14799:14800   */\n      0x00\n        /* \"#utility.yul\":14813:15021   */\n    tag_260:\n        /* \"#utility.yul\":14827:14834   */\n      dup3\n        /* \"#utility.yul\":14824:14825   */\n      dup2\n        /* \"#utility.yul\":14821:14835   */\n      lt\n        /* \"#utility.yul\":14813:15021   */\n      iszero\n      tag_262\n      jumpi\n        /* \"#utility.yul\":14906:14915   */\n      dup5\n        /* \"#utility.yul\":14901:14904   */\n      dup10\n        /* \"#utility.yul\":14897:14916   */\n      add\n        /* \"#utility.yul\":14891:14917   */\n      mload\n        /* \"#utility.yul\":14883:14889   */\n      dup3\n        /* \"#utility.yul\":14876:14918   */\n      sstore\n        /* \"#utility.yul\":14957:14958   */\n      0x01\n        /* \"#utility.yul\":14949:14955   */\n      dup3\n        /* \"#utility.yul\":14945:14959   */\n      add\n        /* \"#utility.yul\":14935:14959   */\n      swap2\n      pop\n        /* \"#utility.yul\":15004:15006   */\n      0x20\n        /* \"#utility.yul\":14993:15002   */\n      dup6\n        /* \"#utility.yul\":14989:15007   */\n      add\n        /* \"#utility.yul\":14976:15007   */\n      swap5\n      pop\n        /* \"#utility.yul\":14850:14854   */\n      0x20\n        /* \"#utility.yul\":14847:14848   */\n      dup2\n        /* \"#utility.yul\":14843:14855   */\n      add\n        /* \"#utility.yul\":14838:14855   */\n      swap1\n      pop\n        /* \"#utility.yul\":14813:15021   */\n      jump(tag_260)\n    tag_262:\n        /* \"#utility.yul\":15049:15055   */\n      dup7\n        /* \"#utility.yul\":15040:15047   */\n      dup4\n        /* \"#utility.yul\":15037:15056   */\n      lt\n        /* \"#utility.yul\":15034:15213   */\n      iszero\n      tag_263\n      jumpi\n        /* \"#utility.yul\":15107:15116   */\n      dup5\n        /* \"#utility.yul\":15102:15105   */\n      dup10\n        /* \"#utility.yul\":15098:15117   */\n      add\n        /* \"#utility.yul\":15092:15118   */\n      mload\n        /* \"#utility.yul\":15150:15198   */\n      tag_264\n        /* \"#utility.yul\":15192:15196   */\n      0x1f\n        /* \"#utility.yul\":15184:15190   */\n      dup10\n        /* \"#utility.yul\":15180:15197   */\n      and\n        /* \"#utility.yul\":15169:15178   */\n      dup3\n        /* \"#utility.yul\":15150:15198   */\n      tag_102\n      jump\t// in\n    tag_264:\n        /* \"#utility.yul\":15142:15148   */\n      dup4\n        /* \"#utility.yul\":15135:15199   */\n      sstore\n        /* \"#utility.yul\":15057:15213   */\n      pop\n        /* \"#utility.yul\":15034:15213   */\n    tag_263:\n        /* \"#utility.yul\":15259:15260   */\n      0x01\n        /* \"#utility.yul\":15255:15256   */\n      0x02\n        /* \"#utility.yul\":15247:15253   */\n      dup9\n        /* \"#utility.yul\":15243:15257   */\n      mul\n        /* \"#utility.yul\":15239:15261   */\n      add\n        /* \"#utility.yul\":15233:15237   */\n      dup9\n        /* \"#utility.yul\":15226:15262   */\n      sstore\n        /* \"#utility.yul\":14661:15272   */\n      pop\n      pop\n      pop\n        /* \"#utility.yul\":14624:15511   */\n    tag_255:\n      pop\n        /* \"#utility.yul\":14214:15517   */\n      pop\n      pop\n      pop\n        /* \"#utility.yul\":14122:15517   */\n      pop\n      pop\n      jump\t// out\n        /* \"#utility.yul\":15523:15703   */\n    tag_35:\n        /* \"#utility.yul\":15571:15648   */\n      0x4e487b7100000000000000000000000000000000000000000000000000000000\n        /* \"#utility.yul\":15568:15569   */\n      0x00\n        /* \"#utility.yul\":15561:15649   */\n      mstore\n        /* \"#utility.yul\":15668:15672   */\n      0x32\n        /* \"#utility.yul\":15665:15666   */\n      0x04\n        /* \"#utility.yul\":15658:15673   */\n      mstore\n        /* \"#utility.yul\":15692:15696   */\n      0x24\n        /* \"#utility.yul\":15689:15690   */\n      0x00\n        /* \"#utility.yul\":15682:15697   */\n      revert\n\n    auxdata: 0xa26469706673582212208d4ed7d8b3634bf1132fed9be1392c6166780da2ac0edfca7a98ed0cb07d7d6564736f6c634300080f0033\n}\n",
				"bytecode": {
					"linkReferences": {},
					"object": "608060405234801561001057600080fd5b50610e44806100206000396000f3fe608060405234801561001057600080fd5b50600436106100365760003560e01c80634ed2f7ee1461003b578063904cc17514610057575b600080fd5b610055600480360381019061005091906107ad565b610087565b005b610071600480360381019061006c919061081c565b610251565b60405161007e9190610a68565b60405180910390f35b60008081548092919061009990610ab9565b919050555060016040518061010001604052806000548152602001600081526020013373ffffffffffffffffffffffffffffffffffffffff1681526020018573ffffffffffffffffffffffffffffffffffffffff168152602001600081526020018481526020018381526020016040518060400160405280600181526020017f30000000000000000000000000000000000000000000000000000000000000008152508152509080600181540180825580915050600190039060005260206000209060080201600090919091909150600082015181600001556020820151816001015560408201518160020160006101000a81548173ffffffffffffffffffffffffffffffffffffffff021916908373ffffffffffffffffffffffffffffffffffffffff16021790555060608201518160030160006101000a81548173ffffffffffffffffffffffffffffffffffffffff021916908373ffffffffffffffffffffffffffffffffffffffff1602179055506080820151816004015560a0820151816005015560c08201518160060190816102339190610d0d565b5060e08201518160070190816102499190610d0d565b505050505050565b6060600060018054905067ffffffffffffffff81111561027457610273610682565b5b6040519080825280602002602001820160405280156102ad57816020015b61029a61054e565b8152602001906001900390816102925790505b50905060005b6001805490508110156105445783600182815481106102d5576102d4610ddf565b5b906000526020600020906008020160010154036105315760018181548110610300576102ff610ddf565b5b90600052602060002090600802016040518061010001604052908160008201548152602001600182015481526020016002820160009054906101000a900473ffffffffffffffffffffffffffffffffffffffff1673ffffffffffffffffffffffffffffffffffffffff1673ffffffffffffffffffffffffffffffffffffffff1681526020016003820160009054906101000a900473ffffffffffffffffffffffffffffffffffffffff1673ffffffffffffffffffffffffffffffffffffffff1673ffffffffffffffffffffffffffffffffffffffff16815260200160048201548152602001600582015481526020016006820180546103fe90610b30565b80601f016020809104026020016040519081016040528092919081815260200182805461042a90610b30565b80156104775780601f1061044c57610100808354040283529160200191610477565b820191906000526020600020905b81548152906001019060200180831161045a57829003601f168201915b5050505050815260200160078201805461049090610b30565b80601f01602080910402602001604051908101604052809291908181526020018280546104bc90610b30565b80156105095780601f106104de57610100808354040283529160200191610509565b820191906000526020600020905b8154815290600101906020018083116104ec57829003601f168201915b50505050508152505082828151811061052557610524610ddf565b5b60200260200101819052505b808061053c90610ab9565b9150506102b3565b5080915050919050565b6040518061010001604052806000815260200160008152602001600073ffffffffffffffffffffffffffffffffffffffff168152602001600073ffffffffffffffffffffffffffffffffffffffff168152602001600081526020016000815260200160608152602001606081525090565b6000604051905090565b600080fd5b600080fd5b600073ffffffffffffffffffffffffffffffffffffffff82169050919050565b60006105fe826105d3565b9050919050565b61060e816105f3565b811461061957600080fd5b50565b60008135905061062b81610605565b92915050565b6000819050919050565b61064481610631565b811461064f57600080fd5b50565b6000813590506106618161063b565b92915050565b600080fd5b600080fd5b6000601f19601f8301169050919050565b7f4e487b7100000000000000000000000000000000000000000000000000000000600052604160045260246000fd5b6106ba82610671565b810181811067ffffffffffffffff821117156106d9576106d8610682565b5b80604052505050565b60006106ec6105bf565b90506106f882826106b1565b919050565b600067ffffffffffffffff82111561071857610717610682565b5b61072182610671565b9050602081019050919050565b82818337600083830152505050565b600061075061074b846106fd565b6106e2565b90508281526020810184848401111561076c5761076b61066c565b5b61077784828561072e565b509392505050565b600082601f83011261079457610793610667565b5b81356107a484826020860161073d565b91505092915050565b6000806000606084860312156107c6576107c56105c9565b5b60006107d48682870161061c565b93505060206107e586828701610652565b925050604084013567ffffffffffffffff811115610806576108056105ce565b5b6108128682870161077f565b9150509250925092565b600060208284031215610832576108316105c9565b5b600061084084828501610652565b91505092915050565b600081519050919050565b600082825260208201905092915050565b6000819050602082019050919050565b61087e81610631565b82525050565b61088d816105f3565b82525050565b600081519050919050565b600082825260208201905092915050565b60005b838110156108cd5780820151818401526020810190506108b2565b838111156108dc576000848401525b50505050565b60006108ed82610893565b6108f7818561089e565b93506109078185602086016108af565b61091081610671565b840191505092915050565b6000610100830160008301516109346000860182610875565b5060208301516109476020860182610875565b50604083015161095a6040860182610884565b50606083015161096d6060860182610884565b5060808301516109806080860182610875565b5060a083015161099360a0860182610875565b5060c083015184820360c08601526109ab82826108e2565b91505060e083015184820360e08601526109c582826108e2565b9150508091505092915050565b60006109de838361091b565b905092915050565b6000602082019050919050565b60006109fe82610849565b610a088185610854565b935083602082028501610a1a85610865565b8060005b85811015610a565784840389528151610a3785826109d2565b9450610a42836109e6565b925060208a01995050600181019050610a1e565b50829750879550505050505092915050565b60006020820190508181036000830152610a8281846109f3565b905092915050565b7f4e487b7100000000000000000000000000000000000000000000000000000000600052601160045260246000fd5b6000610ac482610631565b91507fffffffffffffffffffffffffffffffffffffffffffffffffffffffffffffffff8203610af657610af5610a8a565b5b600182019050919050565b7f4e487b7100000000000000000000000000000000000000000000000000000000600052602260045260246000fd5b60006002820490506001821680610b4857607f821691505b602082108103610b5b57610b5a610b01565b5b50919050565b60008190508160005260206000209050919050565b60006020601f8301049050919050565b600082821b905092915050565b600060088302610bc37fffffffffffffffffffffffffffffffffffffffffffffffffffffffffffffffff82610b86565b610bcd8683610b86565b95508019841693508086168417925050509392505050565b6000819050919050565b6000610c0a610c05610c0084610631565b610be5565b610631565b9050919050565b6000819050919050565b610c2483610bef565b610c38610c3082610c11565b848454610b93565b825550505050565b600090565b610c4d610c40565b610c58818484610c1b565b505050565b5b81811015610c7c57610c71600082610c45565b600181019050610c5e565b5050565b601f821115610cc157610c9281610b61565b610c9b84610b76565b81016020851015610caa578190505b610cbe610cb685610b76565b830182610c5d565b50505b505050565b600082821c905092915050565b6000610ce460001984600802610cc6565b1980831691505092915050565b6000610cfd8383610cd3565b9150826002028217905092915050565b610d1682610893565b67ffffffffffffffff811115610d2f57610d2e610682565b5b610d398254610b30565b610d44828285610c80565b600060209050601f831160018114610d775760008415610d65578287015190505b610d6f8582610cf1565b865550610dd7565b601f198416610d8586610b61565b60005b82811015610dad57848901518255600182019150602085019450602081019050610d88565b86831015610dca5784890151610dc6601f891682610cd3565b8355505b6001600288020188555050505b505050505050565b7f4e487b7100000000000000000000000000000000000000000000000000000000600052603260045260246000fdfea26469706673582212208d4ed7d8b3634bf1132fed9be1392c6166780da2ac0edfca7a98ed0cb07d7d6564736f6c634300080f0033",
					"opcodes": "PUSH1 0x80 PUSH1 0x40 MSTORE CALLVALUE DUP1 ISZERO PUSH2 0x10 JUMPI PUSH1 0x0 DUP1 REVERT JUMPDEST POP PUSH2 0xE44 DUP1 PUSH2 0x20 PUSH1 0x0 CODECOPY PUSH1 0x0 RETURN INVALID PUSH1 0x80 PUSH1 0x40 MSTORE CALLVALUE DUP1 ISZERO PUSH2 0x10 JUMPI PUSH1 0x0 DUP1 REVERT JUMPDEST POP PUSH1 0x4 CALLDATASIZE LT PUSH2 0x36 JUMPI PUSH1 0x0 CALLDATALOAD PUSH1 0xE0 SHR DUP1 PUSH4 0x4ED2F7EE EQ PUSH2 0x3B JUMPI DUP1 PUSH4 0x904CC175 EQ PUSH2 0x57 JUMPI JUMPDEST PUSH1 0x0 DUP1 REVERT JUMPDEST PUSH2 0x55 PUSH1 0x4 DUP1 CALLDATASIZE SUB DUP2 ADD SWAP1 PUSH2 0x50 SWAP2 SWAP1 PUSH2 0x7AD JUMP JUMPDEST PUSH2 0x87 JUMP JUMPDEST STOP JUMPDEST PUSH2 0x71 PUSH1 0x4 DUP1 CALLDATASIZE SUB DUP2 ADD SWAP1 PUSH2 0x6C SWAP2 SWAP1 PUSH2 0x81C JUMP JUMPDEST PUSH2 0x251 JUMP JUMPDEST PUSH1 0x40 MLOAD PUSH2 0x7E SWAP2 SWAP1 PUSH2 0xA68 JUMP JUMPDEST PUSH1 0x40 MLOAD DUP1 SWAP2 SUB SWAP1 RETURN JUMPDEST PUSH1 0x0 DUP1 DUP2 SLOAD DUP1 SWAP3 SWAP2 SWAP1 PUSH2 0x99 SWAP1 PUSH2 0xAB9 JUMP JUMPDEST SWAP2 SWAP1 POP SSTORE POP PUSH1 0x1 PUSH1 0x40 MLOAD DUP1 PUSH2 0x100 ADD PUSH1 0x40 MSTORE DUP1 PUSH1 0x0 SLOAD DUP2 MSTORE PUSH1 0x20 ADD PUSH1 0x0 DUP2 MSTORE PUSH1 0x20 ADD CALLER PUSH20 0xFFFFFFFFFFFFFFFFFFFFFFFFFFFFFFFFFFFFFFFF AND DUP2 MSTORE PUSH1 0x20 ADD DUP6 PUSH20 0xFFFFFFFFFFFFFFFFFFFFFFFFFFFFFFFFFFFFFFFF AND DUP2 MSTORE PUSH1 0x20 ADD PUSH1 0x0 DUP2 MSTORE PUSH1 0x20 ADD DUP5 DUP2 MSTORE PUSH1 0x20 ADD DUP4 DUP2 MSTORE PUSH1 0x20 ADD PUSH1 0x40 MLOAD DUP1 PUSH1 0x40 ADD PUSH1 0x40 MSTORE DUP1 PUSH1 0x1 DUP2 MSTORE PUSH1 0x20 ADD PUSH32 0x3000000000000000000000000000000000000000000000000000000000000000 DUP2 MSTORE POP DUP2 MSTORE POP SWAP1 DUP1 PUSH1 0x1 DUP2 SLOAD ADD DUP1 DUP3 SSTORE DUP1 SWAP2 POP POP PUSH1 0x1 SWAP1 SUB SWAP1 PUSH1 0x0 MSTORE PUSH1 0x20 PUSH1 0x0 KECCAK256 SWAP1 PUSH1 0x8 MUL ADD PUSH1 0x0 SWAP1 SWAP2 SWAP1 SWAP2 SWAP1 SWAP2 POP PUSH1 0x0 DUP3 ADD MLOAD DUP2 PUSH1 0x0 ADD SSTORE PUSH1 0x20 DUP3 ADD MLOAD DUP2 PUSH1 0x1 ADD SSTORE PUSH1 0x40 DUP3 ADD MLOAD DUP2 PUSH1 0x2 ADD PUSH1 0x0 PUSH2 0x100 EXP DUP2 SLOAD DUP2 PUSH20 0xFFFFFFFFFFFFFFFFFFFFFFFFFFFFFFFFFFFFFFFF MUL NOT AND SWAP1 DUP4 PUSH20 0xFFFFFFFFFFFFFFFFFFFFFFFFFFFFFFFFFFFFFFFF AND MUL OR SWAP1 SSTORE POP PUSH1 0x60 DUP3 ADD MLOAD DUP2 PUSH1 0x3 ADD PUSH1 0x0 PUSH2 0x100 EXP DUP2 SLOAD DUP2 PUSH20 0xFFFFFFFFFFFFFFFFFFFFFFFFFFFFFFFFFFFFFFFF MUL NOT AND SWAP1 DUP4 PUSH20 0xFFFFFFFFFFFFFFFFFFFFFFFFFFFFFFFFFFFFFFFF AND MUL OR SWAP1 SSTORE POP PUSH1 0x80 DUP3 ADD MLOAD DUP2 PUSH1 0x4 ADD SSTORE PUSH1 0xA0 DUP3 ADD MLOAD DUP2 PUSH1 0x5 ADD SSTORE PUSH1 0xC0 DUP3 ADD MLOAD DUP2 PUSH1 0x6 ADD SWAP1 DUP2 PUSH2 0x233 SWAP2 SWAP1 PUSH2 0xD0D JUMP JUMPDEST POP PUSH1 0xE0 DUP3 ADD MLOAD DUP2 PUSH1 0x7 ADD SWAP1 DUP2 PUSH2 0x249 SWAP2 SWAP1 PUSH2 0xD0D JUMP JUMPDEST POP POP POP POP POP POP JUMP JUMPDEST PUSH1 0x60 PUSH1 0x0 PUSH1 0x1 DUP1 SLOAD SWAP1 POP PUSH8 0xFFFFFFFFFFFFFFFF DUP2 GT ISZERO PUSH2 0x274 JUMPI PUSH2 0x273 PUSH2 0x682 JUMP JUMPDEST JUMPDEST PUSH1 0x40 MLOAD SWAP1 DUP1 DUP3 MSTORE DUP1 PUSH1 0x20 MUL PUSH1 0x20 ADD DUP3 ADD PUSH1 0x40 MSTORE DUP1 ISZERO PUSH2 0x2AD JUMPI DUP2 PUSH1 0x20 ADD JUMPDEST PUSH2 0x29A PUSH2 0x54E JUMP JUMPDEST DUP2 MSTORE PUSH1 0x20 ADD SWAP1 PUSH1 0x1 SWAP1 SUB SWAP1 DUP2 PUSH2 0x292 JUMPI SWAP1 POP JUMPDEST POP SWAP1 POP PUSH1 0x0 JUMPDEST PUSH1 0x1 DUP1 SLOAD SWAP1 POP DUP2 LT ISZERO PUSH2 0x544 JUMPI DUP4 PUSH1 0x1 DUP3 DUP2 SLOAD DUP2 LT PUSH2 0x2D5 JUMPI PUSH2 0x2D4 PUSH2 0xDDF JUMP JUMPDEST JUMPDEST SWAP1 PUSH1 0x0 MSTORE PUSH1 0x20 PUSH1 0x0 KECCAK256 SWAP1 PUSH1 0x8 MUL ADD PUSH1 0x1 ADD SLOAD SUB PUSH2 0x531 JUMPI PUSH1 0x1 DUP2 DUP2 SLOAD DUP2 LT PUSH2 0x300 JUMPI PUSH2 0x2FF PUSH2 0xDDF JUMP JUMPDEST JUMPDEST SWAP1 PUSH1 0x0 MSTORE PUSH1 0x20 PUSH1 0x0 KECCAK256 SWAP1 PUSH1 0x8 MUL ADD PUSH1 0x40 MLOAD DUP1 PUSH2 0x100 ADD PUSH1 0x40 MSTORE SWAP1 DUP2 PUSH1 0x0 DUP3 ADD SLOAD DUP2 MSTORE PUSH1 0x20 ADD PUSH1 0x1 DUP3 ADD SLOAD DUP2 MSTORE PUSH1 0x20 ADD PUSH1 0x2 DUP3 ADD PUSH1 0x0 SWAP1 SLOAD SWAP1 PUSH2 0x100 EXP SWAP1 DIV PUSH20 0xFFFFFFFFFFFFFFFFFFFFFFFFFFFFFFFFFFFFFFFF AND PUSH20 0xFFFFFFFFFFFFFFFFFFFFFFFFFFFFFFFFFFFFFFFF AND PUSH20 0xFFFFFFFFFFFFFFFFFFFFFFFFFFFFFFFFFFFFFFFF AND DUP2 MSTORE PUSH1 0x20 ADD PUSH1 0x3 DUP3 ADD PUSH1 0x0 SWAP1 SLOAD SWAP1 PUSH2 0x100 EXP SWAP1 DIV PUSH20 0xFFFFFFFFFFFFFFFFFFFFFFFFFFFFFFFFFFFFFFFF AND PUSH20 0xFFFFFFFFFFFFFFFFFFFFFFFFFFFFFFFFFFFFFFFF AND PUSH20 0xFFFFFFFFFFFFFFFFFFFFFFFFFFFFFFFFFFFFFFFF AND DUP2 MSTORE PUSH1 0x20 ADD PUSH1 0x4 DUP3 ADD SLOAD DUP2 MSTORE PUSH1 0x20 ADD PUSH1 0x5 DUP3 ADD SLOAD DUP2 MSTORE PUSH1 0x20 ADD PUSH1 0x6 DUP3 ADD DUP1 SLOAD PUSH2 0x3FE SWAP1 PUSH2 0xB30 JUMP JUMPDEST DUP1 PUSH1 0x1F ADD PUSH1 0x20 DUP1 SWAP2 DIV MUL PUSH1 0x20 ADD PUSH1 0x40 MLOAD SWAP1 DUP2 ADD PUSH1 0x40 MSTORE DUP1 SWAP3 SWAP2 SWAP1 DUP2 DUP2 MSTORE PUSH1 0x20 ADD DUP3 DUP1 SLOAD PUSH2 0x42A SWAP1 PUSH2 0xB30 JUMP JUMPDEST DUP1 ISZERO PUSH2 0x477 JUMPI DUP1 PUSH1 0x1F LT PUSH2 0x44C JUMPI PUSH2 0x100 DUP1 DUP4 SLOAD DIV MUL DUP4 MSTORE SWAP2 PUSH1 0x20 ADD SWAP2 PUSH2 0x477 JUMP JUMPDEST DUP3 ADD SWAP2 SWAP1 PUSH1 0x0 MSTORE PUSH1 0x20 PUSH1 0x0 KECCAK256 SWAP1 JUMPDEST DUP2 SLOAD DUP2 MSTORE SWAP1 PUSH1 0x1 ADD SWAP1 PUSH1 0x20 ADD DUP1 DUP4 GT PUSH2 0x45A JUMPI DUP3 SWAP1 SUB PUSH1 0x1F AND DUP3 ADD SWAP2 JUMPDEST POP POP POP POP POP DUP2 MSTORE PUSH1 0x20 ADD PUSH1 0x7 DUP3 ADD DUP1 SLOAD PUSH2 0x490 SWAP1 PUSH2 0xB30 JUMP JUMPDEST DUP1 PUSH1 0x1F ADD PUSH1 0x20 DUP1 SWAP2 DIV MUL PUSH1 0x20 ADD PUSH1 0x40 MLOAD SWAP1 DUP2 ADD PUSH1 0x40 MSTORE DUP1 SWAP3 SWAP2 SWAP1 DUP2 DUP2 MSTORE PUSH1 0x20 ADD DUP3 DUP1 SLOAD PUSH2 0x4BC SWAP1 PUSH2 0xB30 JUMP JUMPDEST DUP1 ISZERO PUSH2 0x509 JUMPI DUP1 PUSH1 0x1F LT PUSH2 0x4DE JUMPI PUSH2 0x100 DUP1 DUP4 SLOAD DIV MUL DUP4 MSTORE SWAP2 PUSH1 0x20 ADD SWAP2 PUSH2 0x509 JUMP JUMPDEST DUP3 ADD SWAP2 SWAP1 PUSH1 0x0 MSTORE PUSH1 0x20 PUSH1 0x0 KECCAK256 SWAP1 JUMPDEST DUP2 SLOAD DUP2 MSTORE SWAP1 PUSH1 0x1 ADD SWAP1 PUSH1 0x20 ADD DUP1 DUP4 GT PUSH2 0x4EC JUMPI DUP3 SWAP1 SUB PUSH1 0x1F AND DUP3 ADD SWAP2 JUMPDEST POP POP POP POP POP DUP2 MSTORE POP POP DUP3 DUP3 DUP2 MLOAD DUP2 LT PUSH2 0x525 JUMPI PUSH2 0x524 PUSH2 0xDDF JUMP JUMPDEST JUMPDEST PUSH1 0x20 MUL PUSH1 0x20 ADD ADD DUP2 SWAP1 MSTORE POP JUMPDEST DUP1 DUP1 PUSH2 0x53C SWAP1 PUSH2 0xAB9 JUMP JUMPDEST SWAP2 POP POP PUSH2 0x2B3 JUMP JUMPDEST POP DUP1 SWAP2 POP POP SWAP2 SWAP1 POP JUMP JUMPDEST PUSH1 0x40 MLOAD DUP1 PUSH2 0x100 ADD PUSH1 0x40 MSTORE DUP1 PUSH1 0x0 DUP2 MSTORE PUSH1 0x20 ADD PUSH1 0x0 DUP2 MSTORE PUSH1 0x20 ADD PUSH1 0x0 PUSH20 0xFFFFFFFFFFFFFFFFFFFFFFFFFFFFFFFFFFFFFFFF AND DUP2 MSTORE PUSH1 0x20 ADD PUSH1 0x0 PUSH20 0xFFFFFFFFFFFFFFFFFFFFFFFFFFFFFFFFFFFFFFFF AND DUP2 MSTORE PUSH1 0x20 ADD PUSH1 0x0 DUP2 MSTORE PUSH1 0x20 ADD PUSH1 0x0 DUP2 MSTORE PUSH1 0x20 ADD PUSH1 0x60 DUP2 MSTORE PUSH1 0x20 ADD PUSH1 0x60 DUP2 MSTORE POP SWAP1 JUMP JUMPDEST PUSH1 0x0 PUSH1 0x40 MLOAD SWAP1 POP SWAP1 JUMP JUMPDEST PUSH1 0x0 DUP1 REVERT JUMPDEST PUSH1 0x0 DUP1 REVERT JUMPDEST PUSH1 0x0 PUSH20 0xFFFFFFFFFFFFFFFFFFFFFFFFFFFFFFFFFFFFFFFF DUP3 AND SWAP1 POP SWAP2 SWAP1 POP JUMP JUMPDEST PUSH1 0x0 PUSH2 0x5FE DUP3 PUSH2 0x5D3 JUMP JUMPDEST SWAP1 POP SWAP2 SWAP1 POP JUMP JUMPDEST PUSH2 0x60E DUP2 PUSH2 0x5F3 JUMP JUMPDEST DUP2 EQ PUSH2 0x619 JUMPI PUSH1 0x0 DUP1 REVERT JUMPDEST POP JUMP JUMPDEST PUSH1 0x0 DUP2 CALLDATALOAD SWAP1 POP PUSH2 0x62B DUP2 PUSH2 0x605 JUMP JUMPDEST SWAP3 SWAP2 POP POP JUMP JUMPDEST PUSH1 0x0 DUP2 SWAP1 POP SWAP2 SWAP1 POP JUMP JUMPDEST PUSH2 0x644 DUP2 PUSH2 0x631 JUMP JUMPDEST DUP2 EQ PUSH2 0x64F JUMPI PUSH1 0x0 DUP1 REVERT JUMPDEST POP JUMP JUMPDEST PUSH1 0x0 DUP2 CALLDATALOAD SWAP1 POP PUSH2 0x661 DUP2 PUSH2 0x63B JUMP JUMPDEST SWAP3 SWAP2 POP POP JUMP JUMPDEST PUSH1 0x0 DUP1 REVERT JUMPDEST PUSH1 0x0 DUP1 REVERT JUMPDEST PUSH1 0x0 PUSH1 0x1F NOT PUSH1 0x1F DUP4 ADD AND SWAP1 POP SWAP2 SWAP1 POP JUMP JUMPDEST PUSH32 0x4E487B7100000000000000000000000000000000000000000000000000000000 PUSH1 0x0 MSTORE PUSH1 0x41 PUSH1 0x4 MSTORE PUSH1 0x24 PUSH1 0x0 REVERT JUMPDEST PUSH2 0x6BA DUP3 PUSH2 0x671 JUMP JUMPDEST DUP2 ADD DUP2 DUP2 LT PUSH8 0xFFFFFFFFFFFFFFFF DUP3 GT OR ISZERO PUSH2 0x6D9 JUMPI PUSH2 0x6D8 PUSH2 0x682 JUMP JUMPDEST JUMPDEST DUP1 PUSH1 0x40 MSTORE POP POP POP JUMP JUMPDEST PUSH1 0x0 PUSH2 0x6EC PUSH2 0x5BF JUMP JUMPDEST SWAP1 POP PUSH2 0x6F8 DUP3 DUP3 PUSH2 0x6B1 JUMP JUMPDEST SWAP2 SWAP1 POP JUMP JUMPDEST PUSH1 0x0 PUSH8 0xFFFFFFFFFFFFFFFF DUP3 GT ISZERO PUSH2 0x718 JUMPI PUSH2 0x717 PUSH2 0x682 JUMP JUMPDEST JUMPDEST PUSH2 0x721 DUP3 PUSH2 0x671 JUMP JUMPDEST SWAP1 POP PUSH1 0x20 DUP2 ADD SWAP1 POP SWAP2 SWAP1 POP JUMP JUMPDEST DUP3 DUP2 DUP4 CALLDATACOPY PUSH1 0x0 DUP4 DUP4 ADD MSTORE POP POP POP JUMP JUMPDEST PUSH1 0x0 PUSH2 0x750 PUSH2 0x74B DUP5 PUSH2 0x6FD JUMP JUMPDEST PUSH2 0x6E2 JUMP JUMPDEST SWAP1 POP DUP3 DUP2 MSTORE PUSH1 0x20 DUP2 ADD DUP5 DUP5 DUP5 ADD GT ISZERO PUSH2 0x76C JUMPI PUSH2 0x76B PUSH2 0x66C JUMP JUMPDEST JUMPDEST PUSH2 0x777 DUP5 DUP3 DUP6 PUSH2 0x72E JUMP JUMPDEST POP SWAP4 SWAP3 POP POP POP JUMP JUMPDEST PUSH1 0x0 DUP3 PUSH1 0x1F DUP4 ADD SLT PUSH2 0x794 JUMPI PUSH2 0x793 PUSH2 0x667 JUMP JUMPDEST JUMPDEST DUP2 CALLDATALOAD PUSH2 0x7A4 DUP5 DUP3 PUSH1 0x20 DUP7 ADD PUSH2 0x73D JUMP JUMPDEST SWAP2 POP POP SWAP3 SWAP2 POP POP JUMP JUMPDEST PUSH1 0x0 DUP1 PUSH1 0x0 PUSH1 0x60 DUP5 DUP7 SUB SLT ISZERO PUSH2 0x7C6 JUMPI PUSH2 0x7C5 PUSH2 0x5C9 JUMP JUMPDEST JUMPDEST PUSH1 0x0 PUSH2 0x7D4 DUP7 DUP3 DUP8 ADD PUSH2 0x61C JUMP JUMPDEST SWAP4 POP POP PUSH1 0x20 PUSH2 0x7E5 DUP7 DUP3 DUP8 ADD PUSH2 0x652 JUMP JUMPDEST SWAP3 POP POP PUSH1 0x40 DUP5 ADD CALLDATALOAD PUSH8 0xFFFFFFFFFFFFFFFF DUP2 GT ISZERO PUSH2 0x806 JUMPI PUSH2 0x805 PUSH2 0x5CE JUMP JUMPDEST JUMPDEST PUSH2 0x812 DUP7 DUP3 DUP8 ADD PUSH2 0x77F JUMP JUMPDEST SWAP2 POP POP SWAP3 POP SWAP3 POP SWAP3 JUMP JUMPDEST PUSH1 0x0 PUSH1 0x20 DUP3 DUP5 SUB SLT ISZERO PUSH2 0x832 JUMPI PUSH2 0x831 PUSH2 0x5C9 JUMP JUMPDEST JUMPDEST PUSH1 0x0 PUSH2 0x840 DUP5 DUP3 DUP6 ADD PUSH2 0x652 JUMP JUMPDEST SWAP2 POP POP SWAP3 SWAP2 POP POP JUMP JUMPDEST PUSH1 0x0 DUP2 MLOAD SWAP1 POP SWAP2 SWAP1 POP JUMP JUMPDEST PUSH1 0x0 DUP3 DUP3 MSTORE PUSH1 0x20 DUP3 ADD SWAP1 POP SWAP3 SWAP2 POP POP JUMP JUMPDEST PUSH1 0x0 DUP2 SWAP1 POP PUSH1 0x20 DUP3 ADD SWAP1 POP SWAP2 SWAP1 POP JUMP JUMPDEST PUSH2 0x87E DUP2 PUSH2 0x631 JUMP JUMPDEST DUP3 MSTORE POP POP JUMP JUMPDEST PUSH2 0x88D DUP2 PUSH2 0x5F3 JUMP JUMPDEST DUP3 MSTORE POP POP JUMP JUMPDEST PUSH1 0x0 DUP2 MLOAD SWAP1 POP SWAP2 SWAP1 POP JUMP JUMPDEST PUSH1 0x0 DUP3 DUP3 MSTORE PUSH1 0x20 DUP3 ADD SWAP1 POP SWAP3 SWAP2 POP POP JUMP JUMPDEST PUSH1 0x0 JUMPDEST DUP4 DUP2 LT ISZERO PUSH2 0x8CD JUMPI DUP1 DUP3 ADD MLOAD DUP2 DUP5 ADD MSTORE PUSH1 0x20 DUP2 ADD SWAP1 POP PUSH2 0x8B2 JUMP JUMPDEST DUP4 DUP2 GT ISZERO PUSH2 0x8DC JUMPI PUSH1 0x0 DUP5 DUP5 ADD MSTORE JUMPDEST POP POP POP POP JUMP JUMPDEST PUSH1 0x0 PUSH2 0x8ED DUP3 PUSH2 0x893 JUMP JUMPDEST PUSH2 0x8F7 DUP2 DUP6 PUSH2 0x89E JUMP JUMPDEST SWAP4 POP PUSH2 0x907 DUP2 DUP6 PUSH1 0x20 DUP7 ADD PUSH2 0x8AF JUMP JUMPDEST PUSH2 0x910 DUP2 PUSH2 0x671 JUMP JUMPDEST DUP5 ADD SWAP2 POP POP SWAP3 SWAP2 POP POP JUMP JUMPDEST PUSH1 0x0 PUSH2 0x100 DUP4 ADD PUSH1 0x0 DUP4 ADD MLOAD PUSH2 0x934 PUSH1 0x0 DUP7 ADD DUP3 PUSH2 0x875 JUMP JUMPDEST POP PUSH1 0x20 DUP4 ADD MLOAD PUSH2 0x947 PUSH1 0x20 DUP7 ADD DUP3 PUSH2 0x875 JUMP JUMPDEST POP PUSH1 0x40 DUP4 ADD MLOAD PUSH2 0x95A PUSH1 0x40 DUP7 ADD DUP3 PUSH2 0x884 JUMP JUMPDEST POP PUSH1 0x60 DUP4 ADD MLOAD PUSH2 0x96D PUSH1 0x60 DUP7 ADD DUP3 PUSH2 0x884 JUMP JUMPDEST POP PUSH1 0x80 DUP4 ADD MLOAD PUSH2 0x980 PUSH1 0x80 DUP7 ADD DUP3 PUSH2 0x875 JUMP JUMPDEST POP PUSH1 0xA0 DUP4 ADD MLOAD PUSH2 0x993 PUSH1 0xA0 DUP7 ADD DUP3 PUSH2 0x875 JUMP JUMPDEST POP PUSH1 0xC0 DUP4 ADD MLOAD DUP5 DUP3 SUB PUSH1 0xC0 DUP7 ADD MSTORE PUSH2 0x9AB DUP3 DUP3 PUSH2 0x8E2 JUMP JUMPDEST SWAP2 POP POP PUSH1 0xE0 DUP4 ADD MLOAD DUP5 DUP3 SUB PUSH1 0xE0 DUP7 ADD MSTORE PUSH2 0x9C5 DUP3 DUP3 PUSH2 0x8E2 JUMP JUMPDEST SWAP2 POP POP DUP1 SWAP2 POP POP SWAP3 SWAP2 POP POP JUMP JUMPDEST PUSH1 0x0 PUSH2 0x9DE DUP4 DUP4 PUSH2 0x91B JUMP JUMPDEST SWAP1 POP SWAP3 SWAP2 POP POP JUMP JUMPDEST PUSH1 0x0 PUSH1 0x20 DUP3 ADD SWAP1 POP SWAP2 SWAP1 POP JUMP JUMPDEST PUSH1 0x0 PUSH2 0x9FE DUP3 PUSH2 0x849 JUMP JUMPDEST PUSH2 0xA08 DUP2 DUP6 PUSH2 0x854 JUMP JUMPDEST SWAP4 POP DUP4 PUSH1 0x20 DUP3 MUL DUP6 ADD PUSH2 0xA1A DUP6 PUSH2 0x865 JUMP JUMPDEST DUP1 PUSH1 0x0 JUMPDEST DUP6 DUP2 LT ISZERO PUSH2 0xA56 JUMPI DUP5 DUP5 SUB DUP10 MSTORE DUP2 MLOAD PUSH2 0xA37 DUP6 DUP3 PUSH2 0x9D2 JUMP JUMPDEST SWAP5 POP PUSH2 0xA42 DUP4 PUSH2 0x9E6 JUMP JUMPDEST SWAP3 POP PUSH1 0x20 DUP11 ADD SWAP10 POP POP PUSH1 0x1 DUP2 ADD SWAP1 POP PUSH2 0xA1E JUMP JUMPDEST POP DUP3 SWAP8 POP DUP8 SWAP6 POP POP POP POP POP POP SWAP3 SWAP2 POP POP JUMP JUMPDEST PUSH1 0x0 PUSH1 0x20 DUP3 ADD SWAP1 POP DUP2 DUP2 SUB PUSH1 0x0 DUP4 ADD MSTORE PUSH2 0xA82 DUP2 DUP5 PUSH2 0x9F3 JUMP JUMPDEST SWAP1 POP SWAP3 SWAP2 POP POP JUMP JUMPDEST PUSH32 0x4E487B7100000000000000000000000000000000000000000000000000000000 PUSH1 0x0 MSTORE PUSH1 0x11 PUSH1 0x4 MSTORE PUSH1 0x24 PUSH1 0x0 REVERT JUMPDEST PUSH1 0x0 PUSH2 0xAC4 DUP3 PUSH2 0x631 JUMP JUMPDEST SWAP2 POP PUSH32 0xFFFFFFFFFFFFFFFFFFFFFFFFFFFFFFFFFFFFFFFFFFFFFFFFFFFFFFFFFFFFFFFF DUP3 SUB PUSH2 0xAF6 JUMPI PUSH2 0xAF5 PUSH2 0xA8A JUMP JUMPDEST JUMPDEST PUSH1 0x1 DUP3 ADD SWAP1 POP SWAP2 SWAP1 POP JUMP JUMPDEST PUSH32 0x4E487B7100000000000000000000000000000000000000000000000000000000 PUSH1 0x0 MSTORE PUSH1 0x22 PUSH1 0x4 MSTORE PUSH1 0x24 PUSH1 0x0 REVERT JUMPDEST PUSH1 0x0 PUSH1 0x2 DUP3 DIV SWAP1 POP PUSH1 0x1 DUP3 AND DUP1 PUSH2 0xB48 JUMPI PUSH1 0x7F DUP3 AND SWAP2 POP JUMPDEST PUSH1 0x20 DUP3 LT DUP2 SUB PUSH2 0xB5B JUMPI PUSH2 0xB5A PUSH2 0xB01 JUMP JUMPDEST JUMPDEST POP SWAP2 SWAP1 POP JUMP JUMPDEST PUSH1 0x0 DUP2 SWAP1 POP DUP2 PUSH1 0x0 MSTORE PUSH1 0x20 PUSH1 0x0 KECCAK256 SWAP1 POP SWAP2 SWAP1 POP JUMP JUMPDEST PUSH1 0x0 PUSH1 0x20 PUSH1 0x1F DUP4 ADD DIV SWAP1 POP SWAP2 SWAP1 POP JUMP JUMPDEST PUSH1 0x0 DUP3 DUP3 SHL SWAP1 POP SWAP3 SWAP2 POP POP JUMP JUMPDEST PUSH1 0x0 PUSH1 0x8 DUP4 MUL PUSH2 0xBC3 PUSH32 0xFFFFFFFFFFFFFFFFFFFFFFFFFFFFFFFFFFFFFFFFFFFFFFFFFFFFFFFFFFFFFFFF DUP3 PUSH2 0xB86 JUMP JUMPDEST PUSH2 0xBCD DUP7 DUP4 PUSH2 0xB86 JUMP JUMPDEST SWAP6 POP DUP1 NOT DUP5 AND SWAP4 POP DUP1 DUP7 AND DUP5 OR SWAP3 POP POP POP SWAP4 SWAP3 POP POP POP JUMP JUMPDEST PUSH1 0x0 DUP2 SWAP1 POP SWAP2 SWAP1 POP JUMP JUMPDEST PUSH1 0x0 PUSH2 0xC0A PUSH2 0xC05 PUSH2 0xC00 DUP5 PUSH2 0x631 JUMP JUMPDEST PUSH2 0xBE5 JUMP JUMPDEST PUSH2 0x631 JUMP JUMPDEST SWAP1 POP SWAP2 SWAP1 POP JUMP JUMPDEST PUSH1 0x0 DUP2 SWAP1 POP SWAP2 SWAP1 POP JUMP JUMPDEST PUSH2 0xC24 DUP4 PUSH2 0xBEF JUMP JUMPDEST PUSH2 0xC38 PUSH2 0xC30 DUP3 PUSH2 0xC11 JUMP JUMPDEST DUP5 DUP5 SLOAD PUSH2 0xB93 JUMP JUMPDEST DUP3 SSTORE POP POP POP POP JUMP JUMPDEST PUSH1 0x0 SWAP1 JUMP JUMPDEST PUSH2 0xC4D PUSH2 0xC40 JUMP JUMPDEST PUSH2 0xC58 DUP2 DUP5 DUP5 PUSH2 0xC1B JUMP JUMPDEST POP POP POP JUMP JUMPDEST JUMPDEST DUP2 DUP2 LT ISZERO PUSH2 0xC7C JUMPI PUSH2 0xC71 PUSH1 0x0 DUP3 PUSH2 0xC45 JUMP JUMPDEST PUSH1 0x1 DUP2 ADD SWAP1 POP PUSH2 0xC5E JUMP JUMPDEST POP POP JUMP JUMPDEST PUSH1 0x1F DUP3 GT ISZERO PUSH2 0xCC1 JUMPI PUSH2 0xC92 DUP2 PUSH2 0xB61 JUMP JUMPDEST PUSH2 0xC9B DUP5 PUSH2 0xB76 JUMP JUMPDEST DUP2 ADD PUSH1 0x20 DUP6 LT ISZERO PUSH2 0xCAA JUMPI DUP2 SWAP1 POP JUMPDEST PUSH2 0xCBE PUSH2 0xCB6 DUP6 PUSH2 0xB76 JUMP JUMPDEST DUP4 ADD DUP3 PUSH2 0xC5D JUMP JUMPDEST POP POP JUMPDEST POP POP POP JUMP JUMPDEST PUSH1 0x0 DUP3 DUP3 SHR SWAP1 POP SWAP3 SWAP2 POP POP JUMP JUMPDEST PUSH1 0x0 PUSH2 0xCE4 PUSH1 0x0 NOT DUP5 PUSH1 0x8 MUL PUSH2 0xCC6 JUMP JUMPDEST NOT DUP1 DUP4 AND SWAP2 POP POP SWAP3 SWAP2 POP POP JUMP JUMPDEST PUSH1 0x0 PUSH2 0xCFD DUP4 DUP4 PUSH2 0xCD3 JUMP JUMPDEST SWAP2 POP DUP3 PUSH1 0x2 MUL DUP3 OR SWAP1 POP SWAP3 SWAP2 POP POP JUMP JUMPDEST PUSH2 0xD16 DUP3 PUSH2 0x893 JUMP JUMPDEST PUSH8 0xFFFFFFFFFFFFFFFF DUP2 GT ISZERO PUSH2 0xD2F JUMPI PUSH2 0xD2E PUSH2 0x682 JUMP JUMPDEST JUMPDEST PUSH2 0xD39 DUP3 SLOAD PUSH2 0xB30 JUMP JUMPDEST PUSH2 0xD44 DUP3 DUP3 DUP6 PUSH2 0xC80 JUMP JUMPDEST PUSH1 0x0 PUSH1 0x20 SWAP1 POP PUSH1 0x1F DUP4 GT PUSH1 0x1 DUP2 EQ PUSH2 0xD77 JUMPI PUSH1 0x0 DUP5 ISZERO PUSH2 0xD65 JUMPI DUP3 DUP8 ADD MLOAD SWAP1 POP JUMPDEST PUSH2 0xD6F DUP6 DUP3 PUSH2 0xCF1 JUMP JUMPDEST DUP7 SSTORE POP PUSH2 0xDD7 JUMP JUMPDEST PUSH1 0x1F NOT DUP5 AND PUSH2 0xD85 DUP7 PUSH2 0xB61 JUMP JUMPDEST PUSH1 0x0 JUMPDEST DUP3 DUP2 LT ISZERO PUSH2 0xDAD JUMPI DUP5 DUP10 ADD MLOAD DUP3 SSTORE PUSH1 0x1 DUP3 ADD SWAP2 POP PUSH1 0x20 DUP6 ADD SWAP5 POP PUSH1 0x20 DUP2 ADD SWAP1 POP PUSH2 0xD88 JUMP JUMPDEST DUP7 DUP4 LT ISZERO PUSH2 0xDCA JUMPI DUP5 DUP10 ADD MLOAD PUSH2 0xDC6 PUSH1 0x1F DUP10 AND DUP3 PUSH2 0xCD3 JUMP JUMPDEST DUP4 SSTORE POP JUMPDEST PUSH1 0x1 PUSH1 0x2 DUP9 MUL ADD DUP9 SSTORE POP POP POP JUMPDEST POP POP POP POP POP POP JUMP JUMPDEST PUSH32 0x4E487B7100000000000000000000000000000000000000000000000000000000 PUSH1 0x0 MSTORE PUSH1 0x32 PUSH1 0x4 MSTORE PUSH1 0x24 PUSH1 0x0 REVERT INVALID LOG2 PUSH5 0x6970667358 0x22 SLT KECCAK256 DUP14 0x4E 0xD7 0xD8 0xB3 PUSH4 0x4BF1132F 0xED SWAP12 0xE1 CODECOPY 0x2C PUSH2 0x6678 0xD LOG2 0xAC 0xE 0xDF 0xCA PUSH27 0x98ED0CB07D7D6564736F6C634300080F0033000000000000000000 "
				},
				"gasEstimates": {
					"creation": {
						"codeDepositCost": "730400",
						"executionCost": "766",
						"totalCost": "731166"
					},
					"external": {
						"createCrowdfunding(address,uint256,string)": "infinite",
						"getCrowdfundingByStatus(uint256)": "infinite"
					}
				},
				"methodIdentifiers": {
					"createCrowdfunding(address,uint256,string)": "4ed2f7ee",
					"getCrowdfundingByStatus(uint256)": "904cc175"
				}
			},
			"storageLayout": {
				"storage": [
					{
						"astId": 3,
						"contract": "crowdfunding.sol:CrowdfundingContract",
						"label": "No",
						"offset": 0,
						"slot": "0",
						"type": "t_uint256"
					},
					{
						"astId": 24,
						"contract": "crowdfunding.sol:CrowdfundingContract",
						"label": "list",
						"offset": 0,
						"slot": "1",
						"type": "t_array(t_struct(Crowdfunding)20_storage)dyn_storage"
					}
				],
				"types": {
					"t_address": {
						"encoding": "inplace",
						"label": "address",
						"numberOfBytes": "20"
					},
					"t_array(t_struct(Crowdfunding)20_storage)dyn_storage": {
						"base": "t_struct(Crowdfunding)20_storage",
						"encoding": "dynamic_array",
						"label": "struct CrowdfundingContract.Crowdfunding[]",
						"numberOfBytes": "32"
					},
					"t_string_storage": {
						"encoding": "bytes",
						"label": "string",
						"numberOfBytes": "32"
					},
					"t_struct(Crowdfunding)20_storage": {
						"encoding": "inplace",
						"label": "struct CrowdfundingContract.Crowdfunding",
						"members": [
							{
								"astId": 5,
								"contract": "crowdfunding.sol:CrowdfundingContract",
								"label": "num",
								"offset": 0,
								"slot": "0",
								"type": "t_uint256"
							},
							{
								"astId": 7,
								"contract": "crowdfunding.sol:CrowdfundingContract",
								"label": "status",
								"offset": 0,
								"slot": "1",
								"type": "t_uint256"
							},
							{
								"astId": 9,
								"contract": "crowdfunding.sol:CrowdfundingContract",
								"label": "creator",
								"offset": 0,
								"slot": "2",
								"type": "t_address"
							},
							{
								"astId": 11,
								"contract": "crowdfunding.sol:CrowdfundingContract",
								"label": "recipient",
								"offset": 0,
								"slot": "3",
								"type": "t_address"
							},
							{
								"astId": 13,
								"contract": "crowdfunding.sol:CrowdfundingContract",
								"label": "joinNum",
								"offset": 0,
								"slot": "4",
								"type": "t_uint256"
							},
							{
								"astId": 15,
								"contract": "crowdfunding.sol:CrowdfundingContract",
								"label": "joinLimitNum",
								"offset": 0,
								"slot": "5",
								"type": "t_uint256"
							},
							{
								"astId": 17,
								"contract": "crowdfunding.sol:CrowdfundingContract",
								"label": "expectAmout",
								"offset": 0,
								"slot": "6",
								"type": "t_string_storage"
							},
							{
								"astId": 19,
								"contract": "crowdfunding.sol:CrowdfundingContract",
								"label": "actualAmount",
								"offset": 0,
								"slot": "7",
								"type": "t_string_storage"
							}
						],
						"numberOfBytes": "256"
					},
					"t_uint256": {
						"encoding": "inplace",
						"label": "uint256",
						"numberOfBytes": "32"
					}
				}
			},
			"userdoc": {
				"kind": "user",
				"methods": {},
				"version": 1
			}
		}
	}
}