{
	"array.sol": {
		"ArrayTest": {
			"abi": [
				{
					"inputs": [
						{
							"internalType": "string",
							"name": "_bookName",
							"type": "string"
						}
					],
					"name": "createReadList",
					"outputs": [],
					"stateMutability": "nonpayable",
					"type": "function"
				},
				{
					"inputs": [
						{
							"internalType": "uint256",
							"name": "_status",
							"type": "uint256"
						}
					],
					"name": "getFilterReadList",
					"outputs": [
						{
							"components": [
								{
									"internalType": "uint256",
									"name": "status",
									"type": "uint256"
								},
								{
									"internalType": "string",
									"name": "bookName",
									"type": "string"
								}
							],
							"internalType": "struct ArrayTest.Book[]",
							"name": "",
							"type": "tuple[]"
						}
					],
					"stateMutability": "view",
					"type": "function"
				},
				{
					"inputs": [],
					"name": "getList",
					"outputs": [
						{
							"components": [
								{
									"internalType": "uint256",
									"name": "status",
									"type": "uint256"
								},
								{
									"internalType": "string",
									"name": "bookName",
									"type": "string"
								}
							],
							"internalType": "struct ArrayTest.Book[]",
							"name": "",
							"type": "tuple[]"
						}
					],
					"stateMutability": "view",
					"type": "function"
				}
			],
			"devdoc": {
				"kind": "dev",
				"methods": {},
				"version": 1
			},
			"evm": {
				"assembly": "    /* \"array.sol\":61:940  contract ArrayTest {\r... */\n  mstore(0x40, 0x80)\n  callvalue\n  dup1\n  iszero\n  tag_1\n  jumpi\n  0x00\n  dup1\n  revert\ntag_1:\n  pop\n  dataSize(sub_0)\n  dup1\n  dataOffset(sub_0)\n  0x00\n  codecopy\n  0x00\n  return\nstop\n\nsub_0: assembly {\n        /* \"array.sol\":61:940  contract ArrayTest {\r... */\n      mstore(0x40, 0x80)\n      callvalue\n      dup1\n      iszero\n      tag_1\n      jumpi\n      0x00\n      dup1\n      revert\n    tag_1:\n      pop\n      jumpi(tag_2, lt(calldatasize, 0x04))\n      shr(0xe0, calldataload(0x00))\n      dup1\n      0x234c6686\n      eq\n      tag_3\n      jumpi\n      dup1\n      0x942b765a\n      eq\n      tag_4\n      jumpi\n      dup1\n      0xb868ef57\n      eq\n      tag_5\n      jumpi\n    tag_2:\n      0x00\n      dup1\n      revert\n        /* \"array.sol\":250:409  function createReadList(string memory _bookName) public {\r... */\n    tag_3:\n      tag_6\n      0x04\n      dup1\n      calldatasize\n      sub\n      dup2\n      add\n      swap1\n      tag_7\n      swap2\n      swap1\n      tag_8\n      jump\t// in\n    tag_7:\n      tag_9\n      jump\t// in\n    tag_6:\n      stop\n        /* \"array.sol\":852:937  function getList() public view returns (Book[] memory) {\r... */\n    tag_4:\n      tag_10\n      tag_11\n      jump\t// in\n    tag_10:\n      mload(0x40)\n      tag_12\n      swap2\n      swap1\n      tag_13\n      jump\t// in\n    tag_12:\n      mload(0x40)\n      dup1\n      swap2\n      sub\n      swap1\n      return\n        /* \"array.sol\":554:844  function getFilterReadList(uint _status) public view returns (Book[] memory) {\r... */\n    tag_5:\n      tag_14\n      0x04\n      dup1\n      calldatasize\n      sub\n      dup2\n      add\n      swap1\n      tag_15\n      swap2\n      swap1\n      tag_16\n      jump\t// in\n    tag_15:\n      tag_17\n      jump\t// in\n    tag_14:\n      mload(0x40)\n      tag_18\n      swap2\n      swap1\n      tag_13\n      jump\t// in\n    tag_18:\n      mload(0x40)\n      dup1\n      swap2\n      sub\n      swap1\n      return\n        /* \"array.sol\":250:409  function createReadList(string memory _bookName) public {\r... */\n    tag_9:\n        /* \"array.sol\":317:321  list */\n      0x00\n        /* \"array.sol\":327:400  Book({\r... */\n      mload(0x40)\n      dup1\n      0x40\n      add\n      0x40\n      mstore\n      dup1\n        /* \"array.sol\":354:355  0 */\n      0x00\n        /* \"array.sol\":327:400  Book({\r... */\n      dup2\n      mstore\n      0x20\n      add\n        /* \"array.sol\":379:388  _bookName */\n      dup4\n        /* \"array.sol\":327:400  Book({\r... */\n      dup2\n      mstore\n      pop\n        /* \"array.sol\":317:401  list.push(Book({\r... */\n      swap1\n      dup1\n      0x01\n      dup2\n      sload\n      add\n      dup1\n      dup3\n      sstore\n      dup1\n      swap2\n      pop\n      pop\n      0x01\n      swap1\n      sub\n      swap1\n      0x00\n      mstore\n      keccak256(0x00, 0x20)\n      swap1\n      0x02\n      mul\n      add\n      0x00\n      swap1\n      swap2\n      swap1\n      swap2\n      swap1\n      swap2\n      pop\n      0x00\n      dup3\n      add\n      mload\n      dup2\n      0x00\n      add\n      sstore\n      0x20\n      dup3\n      add\n      mload\n      dup2\n      0x01\n      add\n      swap1\n      dup1\n      mload\n      swap1\n      0x20\n      add\n      swap1\n      tag_21\n      swap3\n      swap2\n      swap1\n      tag_22\n      jump\t// in\n    tag_21:\n      pop\n      pop\n      pop\n        /* \"array.sol\":250:409  function createReadList(string memory _bookName) public {\r... */\n      pop\n      jump\t// out\n        /* \"array.sol\":852:937  function getList() public view returns (Book[] memory) {\r... */\n    tag_11:\n        /* \"array.sol\":892:905  Book[] memory */\n      0x60\n        /* \"array.sol\":925:929  list */\n      0x00\n        /* \"array.sol\":918:929  return list */\n      dup1\n      sload\n      dup1\n      0x20\n      mul\n      0x20\n      add\n      mload(0x40)\n      swap1\n      dup2\n      add\n      0x40\n      mstore\n      dup1\n      swap3\n      swap2\n      swap1\n      dup2\n      dup2\n      mstore\n      0x20\n      add\n      0x00\n      swap1\n    tag_24:\n      dup3\n      dup3\n      lt\n      iszero\n      tag_25\n      jumpi\n      dup4\n      dup3\n      swap1\n      0x00\n      mstore\n      keccak256(0x00, 0x20)\n      swap1\n      0x02\n      mul\n      add\n      mload(0x40)\n      dup1\n      0x40\n      add\n      0x40\n      mstore\n      swap1\n      dup2\n      0x00\n      dup3\n      add\n      sload\n      dup2\n      mstore\n      0x20\n      add\n      0x01\n      dup3\n      add\n      dup1\n      sload\n      tag_27\n      swap1\n      tag_28\n      jump\t// in\n    tag_27:\n      dup1\n      0x1f\n      add\n      0x20\n      dup1\n      swap2\n      div\n      mul\n      0x20\n      add\n      mload(0x40)\n      swap1\n      dup2\n      add\n      0x40\n      mstore\n      dup1\n      swap3\n      swap2\n      swap1\n      dup2\n      dup2\n      mstore\n      0x20\n      add\n      dup3\n      dup1\n      sload\n      tag_29\n      swap1\n      tag_28\n      jump\t// in\n    tag_29:\n      dup1\n      iszero\n      tag_30\n      jumpi\n      dup1\n      0x1f\n      lt\n      tag_31\n      jumpi\n      0x0100\n      dup1\n      dup4\n      sload\n      div\n      mul\n      dup4\n      mstore\n      swap2\n      0x20\n      add\n      swap2\n      jump(tag_30)\n    tag_31:\n      dup3\n      add\n      swap2\n      swap1\n      0x00\n      mstore\n      keccak256(0x00, 0x20)\n      swap1\n    tag_32:\n      dup2\n      sload\n      dup2\n      mstore\n      swap1\n      0x01\n      add\n      swap1\n      0x20\n      add\n      dup1\n      dup4\n      gt\n      tag_32\n      jumpi\n      dup3\n      swap1\n      sub\n      0x1f\n      and\n      dup3\n      add\n      swap2\n    tag_30:\n      pop\n      pop\n      pop\n      pop\n      pop\n      dup2\n      mstore\n      pop\n      pop\n      dup2\n      mstore\n      0x20\n      add\n      swap1\n      0x01\n      add\n      swap1\n      jump(tag_24)\n    tag_25:\n      pop\n      pop\n      pop\n      pop\n      swap1\n      pop\n        /* \"array.sol\":852:937  function getList() public view returns (Book[] memory) {\r... */\n      swap1\n      jump\t// out\n        /* \"array.sol\":554:844  function getFilterReadList(uint _status) public view returns (Book[] memory) {\r... */\n    tag_17:\n        /* \"array.sol\":616:629  Book[] memory */\n      0x60\n        /* \"array.sol\":554:844  function getFilterReadList(uint _status) public view returns (Book[] memory) {\r... */\n      swap2\n      swap1\n      pop\n      jump\t// out\n    tag_22:\n      dup3\n      dup1\n      sload\n      tag_34\n      swap1\n      tag_28\n      jump\t// in\n    tag_34:\n      swap1\n      0x00\n      mstore\n      keccak256(0x00, 0x20)\n      swap1\n      0x1f\n      add\n      0x20\n      swap1\n      div\n      dup2\n      add\n      swap3\n      dup3\n      tag_36\n      jumpi\n      0x00\n      dup6\n      sstore\n      jump(tag_35)\n    tag_36:\n      dup3\n      0x1f\n      lt\n      tag_37\n      jumpi\n      dup1\n      mload\n      not(0xff)\n      and\n      dup4\n      dup1\n      add\n      or\n      dup6\n      sstore\n      jump(tag_35)\n    tag_37:\n      dup3\n      dup1\n      add\n      0x01\n      add\n      dup6\n      sstore\n      dup3\n      iszero\n      tag_35\n      jumpi\n      swap2\n      dup3\n      add\n    tag_38:\n      dup3\n      dup2\n      gt\n      iszero\n      tag_39\n      jumpi\n      dup3\n      mload\n      dup3\n      sstore\n      swap2\n      0x20\n      add\n      swap2\n      swap1\n      0x01\n      add\n      swap1\n      jump(tag_38)\n    tag_39:\n    tag_35:\n      pop\n      swap1\n      pop\n      tag_40\n      swap2\n      swap1\n      tag_41\n      jump\t// in\n    tag_40:\n      pop\n      swap1\n      jump\t// out\n    tag_41:\n    tag_42:\n      dup1\n      dup3\n      gt\n      iszero\n      tag_43\n      jumpi\n      0x00\n      dup2\n      0x00\n      swap1\n      sstore\n      pop\n      0x01\n      add\n      jump(tag_42)\n    tag_43:\n      pop\n      swap1\n      jump\t// out\n        /* \"#utility.yul\":7:419   */\n    tag_45:\n        /* \"#utility.yul\":85:90   */\n      0x00\n        /* \"#utility.yul\":110:176   */\n      tag_47\n        /* \"#utility.yul\":126:175   */\n      tag_48\n        /* \"#utility.yul\":168:174   */\n      dup5\n        /* \"#utility.yul\":126:175   */\n      tag_49\n      jump\t// in\n    tag_48:\n        /* \"#utility.yul\":110:176   */\n      tag_50\n      jump\t// in\n    tag_47:\n        /* \"#utility.yul\":101:176   */\n      swap1\n      pop\n        /* \"#utility.yul\":199:205   */\n      dup3\n        /* \"#utility.yul\":192:197   */\n      dup2\n        /* \"#utility.yul\":185:206   */\n      mstore\n        /* \"#utility.yul\":237:241   */\n      0x20\n        /* \"#utility.yul\":230:235   */\n      dup2\n        /* \"#utility.yul\":226:242   */\n      add\n        /* \"#utility.yul\":275:278   */\n      dup5\n        /* \"#utility.yul\":266:272   */\n      dup5\n        /* \"#utility.yul\":261:264   */\n      dup5\n        /* \"#utility.yul\":257:273   */\n      add\n        /* \"#utility.yul\":254:279   */\n      gt\n        /* \"#utility.yul\":251:363   */\n      iszero\n      tag_51\n      jumpi\n        /* \"#utility.yul\":282:361   */\n      tag_52\n      tag_53\n      jump\t// in\n    tag_52:\n        /* \"#utility.yul\":251:363   */\n    tag_51:\n        /* \"#utility.yul\":372:413   */\n      tag_54\n        /* \"#utility.yul\":406:412   */\n      dup5\n        /* \"#utility.yul\":401:404   */\n      dup3\n        /* \"#utility.yul\":396:399   */\n      dup6\n        /* \"#utility.yul\":372:413   */\n      tag_55\n      jump\t// in\n    tag_54:\n        /* \"#utility.yul\":91:419   */\n      pop\n        /* \"#utility.yul\":7:419   */\n      swap4\n      swap3\n      pop\n      pop\n      pop\n      jump\t// out\n        /* \"#utility.yul\":439:779   */\n    tag_56:\n        /* \"#utility.yul\":495:500   */\n      0x00\n        /* \"#utility.yul\":544:547   */\n      dup3\n        /* \"#utility.yul\":537:541   */\n      0x1f\n        /* \"#utility.yul\":529:535   */\n      dup4\n        /* \"#utility.yul\":525:542   */\n      add\n        /* \"#utility.yul\":521:548   */\n      slt\n        /* \"#utility.yul\":511:633   */\n      tag_58\n      jumpi\n        /* \"#utility.yul\":552:631   */\n      tag_59\n      tag_60\n      jump\t// in\n    tag_59:\n        /* \"#utility.yul\":511:633   */\n    tag_58:\n        /* \"#utility.yul\":669:675   */\n      dup2\n        /* \"#utility.yul\":656:676   */\n      calldataload\n        /* \"#utility.yul\":694:773   */\n      tag_61\n        /* \"#utility.yul\":769:772   */\n      dup5\n        /* \"#utility.yul\":761:767   */\n      dup3\n        /* \"#utility.yul\":754:758   */\n      0x20\n        /* \"#utility.yul\":746:752   */\n      dup7\n        /* \"#utility.yul\":742:759   */\n      add\n        /* \"#utility.yul\":694:773   */\n      tag_45\n      jump\t// in\n    tag_61:\n        /* \"#utility.yul\":685:773   */\n      swap2\n      pop\n        /* \"#utility.yul\":501:779   */\n      pop\n        /* \"#utility.yul\":439:779   */\n      swap3\n      swap2\n      pop\n      pop\n      jump\t// out\n        /* \"#utility.yul\":785:924   */\n    tag_62:\n        /* \"#utility.yul\":831:836   */\n      0x00\n        /* \"#utility.yul\":869:875   */\n      dup2\n        /* \"#utility.yul\":856:876   */\n      calldataload\n        /* \"#utility.yul\":847:876   */\n      swap1\n      pop\n        /* \"#utility.yul\":885:918   */\n      tag_64\n        /* \"#utility.yul\":912:917   */\n      dup2\n        /* \"#utility.yul\":885:918   */\n      tag_65\n      jump\t// in\n    tag_64:\n        /* \"#utility.yul\":785:924   */\n      swap3\n      swap2\n      pop\n      pop\n      jump\t// out\n        /* \"#utility.yul\":930:1439   */\n    tag_8:\n        /* \"#utility.yul\":999:1005   */\n      0x00\n        /* \"#utility.yul\":1048:1050   */\n      0x20\n        /* \"#utility.yul\":1036:1045   */\n      dup3\n        /* \"#utility.yul\":1027:1034   */\n      dup5\n        /* \"#utility.yul\":1023:1046   */\n      sub\n        /* \"#utility.yul\":1019:1051   */\n      slt\n        /* \"#utility.yul\":1016:1135   */\n      iszero\n      tag_67\n      jumpi\n        /* \"#utility.yul\":1054:1133   */\n      tag_68\n      tag_69\n      jump\t// in\n    tag_68:\n        /* \"#utility.yul\":1016:1135   */\n    tag_67:\n        /* \"#utility.yul\":1202:1203   */\n      0x00\n        /* \"#utility.yul\":1191:1200   */\n      dup3\n        /* \"#utility.yul\":1187:1204   */\n      add\n        /* \"#utility.yul\":1174:1205   */\n      calldataload\n        /* \"#utility.yul\":1232:1250   */\n      0xffffffffffffffff\n        /* \"#utility.yul\":1224:1230   */\n      dup2\n        /* \"#utility.yul\":1221:1251   */\n      gt\n        /* \"#utility.yul\":1218:1335   */\n      iszero\n      tag_70\n      jumpi\n        /* \"#utility.yul\":1254:1333   */\n      tag_71\n      tag_72\n      jump\t// in\n    tag_71:\n        /* \"#utility.yul\":1218:1335   */\n    tag_70:\n        /* \"#utility.yul\":1359:1422   */\n      tag_73\n        /* \"#utility.yul\":1414:1421   */\n      dup5\n        /* \"#utility.yul\":1405:1411   */\n      dup3\n        /* \"#utility.yul\":1394:1403   */\n      dup6\n        /* \"#utility.yul\":1390:1412   */\n      add\n        /* \"#utility.yul\":1359:1422   */\n      tag_56\n      jump\t// in\n    tag_73:\n        /* \"#utility.yul\":1349:1422   */\n      swap2\n      pop\n        /* \"#utility.yul\":1145:1432   */\n      pop\n        /* \"#utility.yul\":930:1439   */\n      swap3\n      swap2\n      pop\n      pop\n      jump\t// out\n        /* \"#utility.yul\":1445:1774   */\n    tag_16:\n        /* \"#utility.yul\":1504:1510   */\n      0x00\n        /* \"#utility.yul\":1553:1555   */\n      0x20\n        /* \"#utility.yul\":1541:1550   */\n      dup3\n        /* \"#utility.yul\":1532:1539   */\n      dup5\n        /* \"#utility.yul\":1528:1551   */\n      sub\n        /* \"#utility.yul\":1524:1556   */\n      slt\n        /* \"#utility.yul\":1521:1640   */\n      iszero\n      tag_75\n      jumpi\n        /* \"#utility.yul\":1559:1638   */\n      tag_76\n      tag_69\n      jump\t// in\n    tag_76:\n        /* \"#utility.yul\":1521:1640   */\n    tag_75:\n        /* \"#utility.yul\":1679:1680   */\n      0x00\n        /* \"#utility.yul\":1704:1757   */\n      tag_77\n        /* \"#utility.yul\":1749:1756   */\n      dup5\n        /* \"#utility.yul\":1740:1746   */\n      dup3\n        /* \"#utility.yul\":1729:1738   */\n      dup6\n        /* \"#utility.yul\":1725:1747   */\n      add\n        /* \"#utility.yul\":1704:1757   */\n      tag_62\n      jump\t// in\n    tag_77:\n        /* \"#utility.yul\":1694:1757   */\n      swap2\n      pop\n        /* \"#utility.yul\":1650:1767   */\n      pop\n        /* \"#utility.yul\":1445:1774   */\n      swap3\n      swap2\n      pop\n      pop\n      jump\t// out\n        /* \"#utility.yul\":1780:2012   */\n    tag_78:\n        /* \"#utility.yul\":1887:1897   */\n      0x00\n        /* \"#utility.yul\":1922:2006   */\n      tag_80\n        /* \"#utility.yul\":2002:2005   */\n      dup4\n        /* \"#utility.yul\":1994:2000   */\n      dup4\n        /* \"#utility.yul\":1922:2006   */\n      tag_81\n      jump\t// in\n    tag_80:\n        /* \"#utility.yul\":1908:2006   */\n      swap1\n      pop\n        /* \"#utility.yul\":1780:2012   */\n      swap3\n      swap2\n      pop\n      pop\n      jump\t// out\n        /* \"#utility.yul\":2076:3139   */\n    tag_82:\n        /* \"#utility.yul\":2233:2236   */\n      0x00\n        /* \"#utility.yul\":2262:2335   */\n      tag_84\n        /* \"#utility.yul\":2329:2334   */\n      dup3\n        /* \"#utility.yul\":2262:2335   */\n      tag_85\n      jump\t// in\n    tag_84:\n        /* \"#utility.yul\":2351:2456   */\n      tag_86\n        /* \"#utility.yul\":2449:2455   */\n      dup2\n        /* \"#utility.yul\":2444:2447   */\n      dup6\n        /* \"#utility.yul\":2351:2456   */\n      tag_87\n      jump\t// in\n    tag_86:\n        /* \"#utility.yul\":2344:2456   */\n      swap4\n      pop\n        /* \"#utility.yul\":2482:2485   */\n      dup4\n        /* \"#utility.yul\":2527:2531   */\n      0x20\n        /* \"#utility.yul\":2519:2525   */\n      dup3\n        /* \"#utility.yul\":2515:2532   */\n      mul\n        /* \"#utility.yul\":2510:2513   */\n      dup6\n        /* \"#utility.yul\":2506:2533   */\n      add\n        /* \"#utility.yul\":2557:2632   */\n      tag_88\n        /* \"#utility.yul\":2626:2631   */\n      dup6\n        /* \"#utility.yul\":2557:2632   */\n      tag_89\n      jump\t// in\n    tag_88:\n        /* \"#utility.yul\":2655:2662   */\n      dup1\n        /* \"#utility.yul\":2686:2687   */\n      0x00\n        /* \"#utility.yul\":2671:3094   */\n    tag_90:\n        /* \"#utility.yul\":2696:2702   */\n      dup6\n        /* \"#utility.yul\":2693:2694   */\n      dup2\n        /* \"#utility.yul\":2690:2703   */\n      lt\n        /* \"#utility.yul\":2671:3094   */\n      iszero\n      tag_92\n      jumpi\n        /* \"#utility.yul\":2767:2776   */\n      dup5\n        /* \"#utility.yul\":2761:2765   */\n      dup5\n        /* \"#utility.yul\":2757:2777   */\n      sub\n        /* \"#utility.yul\":2752:2755   */\n      dup10\n        /* \"#utility.yul\":2745:2778   */\n      mstore\n        /* \"#utility.yul\":2818:2824   */\n      dup2\n        /* \"#utility.yul\":2812:2825   */\n      mload\n        /* \"#utility.yul\":2846:2948   */\n      tag_93\n        /* \"#utility.yul\":2943:2947   */\n      dup6\n        /* \"#utility.yul\":2928:2941   */\n      dup3\n        /* \"#utility.yul\":2846:2948   */\n      tag_78\n      jump\t// in\n    tag_93:\n        /* \"#utility.yul\":2838:2948   */\n      swap5\n      pop\n        /* \"#utility.yul\":2971:3050   */\n      tag_94\n        /* \"#utility.yul\":3043:3049   */\n      dup4\n        /* \"#utility.yul\":2971:3050   */\n      tag_95\n      jump\t// in\n    tag_94:\n        /* \"#utility.yul\":2961:3050   */\n      swap3\n      pop\n        /* \"#utility.yul\":3079:3083   */\n      0x20\n        /* \"#utility.yul\":3074:3077   */\n      dup11\n        /* \"#utility.yul\":3070:3084   */\n      add\n        /* \"#utility.yul\":3063:3084   */\n      swap10\n      pop\n        /* \"#utility.yul\":2731:3094   */\n      pop\n        /* \"#utility.yul\":2718:2719   */\n      0x01\n        /* \"#utility.yul\":2715:2716   */\n      dup2\n        /* \"#utility.yul\":2711:2720   */\n      add\n        /* \"#utility.yul\":2706:2720   */\n      swap1\n      pop\n        /* \"#utility.yul\":2671:3094   */\n      jump(tag_90)\n    tag_92:\n        /* \"#utility.yul\":2675:2689   */\n      pop\n        /* \"#utility.yul\":3110:3114   */\n      dup3\n        /* \"#utility.yul\":3103:3114   */\n      swap8\n      pop\n        /* \"#utility.yul\":3130:3133   */\n      dup8\n        /* \"#utility.yul\":3123:3133   */\n      swap6\n      pop\n        /* \"#utility.yul\":2238:3139   */\n      pop\n      pop\n      pop\n      pop\n      pop\n        /* \"#utility.yul\":2076:3139   */\n      swap3\n      swap2\n      pop\n      pop\n      jump\t// out\n        /* \"#utility.yul\":3145:3489   */\n    tag_96:\n        /* \"#utility.yul\":3223:3226   */\n      0x00\n        /* \"#utility.yul\":3251:3290   */\n      tag_98\n        /* \"#utility.yul\":3284:3289   */\n      dup3\n        /* \"#utility.yul\":3251:3290   */\n      tag_99\n      jump\t// in\n    tag_98:\n        /* \"#utility.yul\":3306:3367   */\n      tag_100\n        /* \"#utility.yul\":3360:3366   */\n      dup2\n        /* \"#utility.yul\":3355:3358   */\n      dup6\n        /* \"#utility.yul\":3306:3367   */\n      tag_101\n      jump\t// in\n    tag_100:\n        /* \"#utility.yul\":3299:3367   */\n      swap4\n      pop\n        /* \"#utility.yul\":3376:3428   */\n      tag_102\n        /* \"#utility.yul\":3421:3427   */\n      dup2\n        /* \"#utility.yul\":3416:3419   */\n      dup6\n        /* \"#utility.yul\":3409:3413   */\n      0x20\n        /* \"#utility.yul\":3402:3407   */\n      dup7\n        /* \"#utility.yul\":3398:3414   */\n      add\n        /* \"#utility.yul\":3376:3428   */\n      tag_103\n      jump\t// in\n    tag_102:\n        /* \"#utility.yul\":3453:3482   */\n      tag_104\n        /* \"#utility.yul\":3475:3481   */\n      dup2\n        /* \"#utility.yul\":3453:3482   */\n      tag_105\n      jump\t// in\n    tag_104:\n        /* \"#utility.yul\":3448:3451   */\n      dup5\n        /* \"#utility.yul\":3444:3483   */\n      add\n        /* \"#utility.yul\":3437:3483   */\n      swap2\n      pop\n        /* \"#utility.yul\":3227:3489   */\n      pop\n        /* \"#utility.yul\":3145:3489   */\n      swap3\n      swap2\n      pop\n      pop\n      jump\t// out\n        /* \"#utility.yul\":3549:4139   */\n    tag_81:\n        /* \"#utility.yul\":3646:3649   */\n      0x00\n        /* \"#utility.yul\":3682:3686   */\n      0x40\n        /* \"#utility.yul\":3677:3680   */\n      dup4\n        /* \"#utility.yul\":3673:3687   */\n      add\n        /* \"#utility.yul\":3771:3775   */\n      0x00\n        /* \"#utility.yul\":3764:3769   */\n      dup4\n        /* \"#utility.yul\":3760:3776   */\n      add\n        /* \"#utility.yul\":3754:3777   */\n      mload\n        /* \"#utility.yul\":3790:3853   */\n      tag_107\n        /* \"#utility.yul\":3847:3851   */\n      0x00\n        /* \"#utility.yul\":3842:3845   */\n      dup7\n        /* \"#utility.yul\":3838:3852   */\n      add\n        /* \"#utility.yul\":3824:3836   */\n      dup3\n        /* \"#utility.yul\":3790:3853   */\n      tag_108\n      jump\t// in\n    tag_107:\n        /* \"#utility.yul\":3697:3863   */\n      pop\n        /* \"#utility.yul\":3949:3953   */\n      0x20\n        /* \"#utility.yul\":3942:3947   */\n      dup4\n        /* \"#utility.yul\":3938:3954   */\n      add\n        /* \"#utility.yul\":3932:3955   */\n      mload\n        /* \"#utility.yul\":4002:4005   */\n      dup5\n        /* \"#utility.yul\":3996:4000   */\n      dup3\n        /* \"#utility.yul\":3992:4006   */\n      sub\n        /* \"#utility.yul\":3985:3989   */\n      0x20\n        /* \"#utility.yul\":3980:3983   */\n      dup7\n        /* \"#utility.yul\":3976:3990   */\n      add\n        /* \"#utility.yul\":3969:4007   */\n      mstore\n        /* \"#utility.yul\":4028:4101   */\n      tag_109\n        /* \"#utility.yul\":4096:4100   */\n      dup3\n        /* \"#utility.yul\":4082:4094   */\n      dup3\n        /* \"#utility.yul\":4028:4101   */\n      tag_96\n      jump\t// in\n    tag_109:\n        /* \"#utility.yul\":4020:4101   */\n      swap2\n      pop\n        /* \"#utility.yul\":3873:4112   */\n      pop\n        /* \"#utility.yul\":4129:4133   */\n      dup1\n        /* \"#utility.yul\":4122:4133   */\n      swap2\n      pop\n        /* \"#utility.yul\":3651:4139   */\n      pop\n        /* \"#utility.yul\":3549:4139   */\n      swap3\n      swap2\n      pop\n      pop\n      jump\t// out\n        /* \"#utility.yul\":4145:4253   */\n    tag_108:\n        /* \"#utility.yul\":4222:4246   */\n      tag_111\n        /* \"#utility.yul\":4240:4245   */\n      dup2\n        /* \"#utility.yul\":4222:4246   */\n      tag_112\n      jump\t// in\n    tag_111:\n        /* \"#utility.yul\":4217:4220   */\n      dup3\n        /* \"#utility.yul\":4210:4247   */\n      mstore\n        /* \"#utility.yul\":4145:4253   */\n      pop\n      pop\n      jump\t// out\n        /* \"#utility.yul\":4259:4708   */\n    tag_13:\n        /* \"#utility.yul\":4440:4444   */\n      0x00\n        /* \"#utility.yul\":4478:4480   */\n      0x20\n        /* \"#utility.yul\":4467:4476   */\n      dup3\n        /* \"#utility.yul\":4463:4481   */\n      add\n        /* \"#utility.yul\":4455:4481   */\n      swap1\n      pop\n        /* \"#utility.yul\":4527:4536   */\n      dup2\n        /* \"#utility.yul\":4521:4525   */\n      dup2\n        /* \"#utility.yul\":4517:4537   */\n      sub\n        /* \"#utility.yul\":4513:4514   */\n      0x00\n        /* \"#utility.yul\":4502:4511   */\n      dup4\n        /* \"#utility.yul\":4498:4515   */\n      add\n        /* \"#utility.yul\":4491:4538   */\n      mstore\n        /* \"#utility.yul\":4555:4701   */\n      tag_114\n        /* \"#utility.yul\":4696:4700   */\n      dup2\n        /* \"#utility.yul\":4687:4693   */\n      dup5\n        /* \"#utility.yul\":4555:4701   */\n      tag_82\n      jump\t// in\n    tag_114:\n        /* \"#utility.yul\":4547:4701   */\n      swap1\n      pop\n        /* \"#utility.yul\":4259:4708   */\n      swap3\n      swap2\n      pop\n      pop\n      jump\t// out\n        /* \"#utility.yul\":4714:4843   */\n    tag_50:\n        /* \"#utility.yul\":4748:4754   */\n      0x00\n        /* \"#utility.yul\":4775:4795   */\n      tag_116\n      tag_117\n      jump\t// in\n    tag_116:\n        /* \"#utility.yul\":4765:4795   */\n      swap1\n      pop\n        /* \"#utility.yul\":4804:4837   */\n      tag_118\n        /* \"#utility.yul\":4832:4836   */\n      dup3\n        /* \"#utility.yul\":4824:4830   */\n      dup3\n        /* \"#utility.yul\":4804:4837   */\n      tag_119\n      jump\t// in\n    tag_118:\n        /* \"#utility.yul\":4714:4843   */\n      swap2\n      swap1\n      pop\n      jump\t// out\n        /* \"#utility.yul\":4849:4924   */\n    tag_117:\n        /* \"#utility.yul\":4882:4888   */\n      0x00\n        /* \"#utility.yul\":4915:4917   */\n      0x40\n        /* \"#utility.yul\":4909:4918   */\n      mload\n        /* \"#utility.yul\":4899:4918   */\n      swap1\n      pop\n        /* \"#utility.yul\":4849:4924   */\n      swap1\n      jump\t// out\n        /* \"#utility.yul\":4930:5238   */\n    tag_49:\n        /* \"#utility.yul\":4992:4996   */\n      0x00\n        /* \"#utility.yul\":5082:5100   */\n      0xffffffffffffffff\n        /* \"#utility.yul\":5074:5080   */\n      dup3\n        /* \"#utility.yul\":5071:5101   */\n      gt\n        /* \"#utility.yul\":5068:5124   */\n      iszero\n      tag_122\n      jumpi\n        /* \"#utility.yul\":5104:5122   */\n      tag_123\n      tag_124\n      jump\t// in\n    tag_123:\n        /* \"#utility.yul\":5068:5124   */\n    tag_122:\n        /* \"#utility.yul\":5142:5171   */\n      tag_125\n        /* \"#utility.yul\":5164:5170   */\n      dup3\n        /* \"#utility.yul\":5142:5171   */\n      tag_105\n      jump\t// in\n    tag_125:\n        /* \"#utility.yul\":5134:5171   */\n      swap1\n      pop\n        /* \"#utility.yul\":5226:5230   */\n      0x20\n        /* \"#utility.yul\":5220:5224   */\n      dup2\n        /* \"#utility.yul\":5216:5231   */\n      add\n        /* \"#utility.yul\":5208:5231   */\n      swap1\n      pop\n        /* \"#utility.yul\":4930:5238   */\n      swap2\n      swap1\n      pop\n      jump\t// out\n        /* \"#utility.yul\":5244:5395   */\n    tag_89:\n        /* \"#utility.yul\":5330:5334   */\n      0x00\n        /* \"#utility.yul\":5353:5356   */\n      dup2\n        /* \"#utility.yul\":5345:5356   */\n      swap1\n      pop\n        /* \"#utility.yul\":5383:5387   */\n      0x20\n        /* \"#utility.yul\":5378:5381   */\n      dup3\n        /* \"#utility.yul\":5374:5388   */\n      add\n        /* \"#utility.yul\":5366:5388   */\n      swap1\n      pop\n        /* \"#utility.yul\":5244:5395   */\n      swap2\n      swap1\n      pop\n      jump\t// out\n        /* \"#utility.yul\":5401:5534   */\n    tag_85:\n        /* \"#utility.yul\":5487:5493   */\n      0x00\n        /* \"#utility.yul\":5521:5526   */\n      dup2\n        /* \"#utility.yul\":5515:5527   */\n      mload\n        /* \"#utility.yul\":5505:5527   */\n      swap1\n      pop\n        /* \"#utility.yul\":5401:5534   */\n      swap2\n      swap1\n      pop\n      jump\t// out\n        /* \"#utility.yul\":5540:5639   */\n    tag_99:\n        /* \"#utility.yul\":5592:5598   */\n      0x00\n        /* \"#utility.yul\":5626:5631   */\n      dup2\n        /* \"#utility.yul\":5620:5632   */\n      mload\n        /* \"#utility.yul\":5610:5632   */\n      swap1\n      pop\n        /* \"#utility.yul\":5540:5639   */\n      swap2\n      swap1\n      pop\n      jump\t// out\n        /* \"#utility.yul\":5645:5777   */\n    tag_95:\n        /* \"#utility.yul\":5734:5738   */\n      0x00\n        /* \"#utility.yul\":5766:5770   */\n      0x20\n        /* \"#utility.yul\":5761:5764   */\n      dup3\n        /* \"#utility.yul\":5757:5771   */\n      add\n        /* \"#utility.yul\":5749:5771   */\n      swap1\n      pop\n        /* \"#utility.yul\":5645:5777   */\n      swap2\n      swap1\n      pop\n      jump\t// out\n        /* \"#utility.yul\":5783:5986   */\n    tag_87:\n        /* \"#utility.yul\":5901:5912   */\n      0x00\n        /* \"#utility.yul\":5935:5941   */\n      dup3\n        /* \"#utility.yul\":5930:5933   */\n      dup3\n        /* \"#utility.yul\":5923:5942   */\n      mstore\n        /* \"#utility.yul\":5975:5979   */\n      0x20\n        /* \"#utility.yul\":5970:5973   */\n      dup3\n        /* \"#utility.yul\":5966:5980   */\n      add\n        /* \"#utility.yul\":5951:5980   */\n      swap1\n      pop\n        /* \"#utility.yul\":5783:5986   */\n      swap3\n      swap2\n      pop\n      pop\n      jump\t// out\n        /* \"#utility.yul\":5992:6151   */\n    tag_101:\n        /* \"#utility.yul\":6066:6077   */\n      0x00\n        /* \"#utility.yul\":6100:6106   */\n      dup3\n        /* \"#utility.yul\":6095:6098   */\n      dup3\n        /* \"#utility.yul\":6088:6107   */\n      mstore\n        /* \"#utility.yul\":6140:6144   */\n      0x20\n        /* \"#utility.yul\":6135:6138   */\n      dup3\n        /* \"#utility.yul\":6131:6145   */\n      add\n        /* \"#utility.yul\":6116:6145   */\n      swap1\n      pop\n        /* \"#utility.yul\":5992:6151   */\n      swap3\n      swap2\n      pop\n      pop\n      jump\t// out\n        /* \"#utility.yul\":6157:6234   */\n    tag_112:\n        /* \"#utility.yul\":6194:6201   */\n      0x00\n        /* \"#utility.yul\":6223:6228   */\n      dup2\n        /* \"#utility.yul\":6212:6228   */\n      swap1\n      pop\n        /* \"#utility.yul\":6157:6234   */\n      swap2\n      swap1\n      pop\n      jump\t// out\n        /* \"#utility.yul\":6240:6394   */\n    tag_55:\n        /* \"#utility.yul\":6324:6330   */\n      dup3\n        /* \"#utility.yul\":6319:6322   */\n      dup2\n        /* \"#utility.yul\":6314:6317   */\n      dup4\n        /* \"#utility.yul\":6301:6331   */\n      calldatacopy\n        /* \"#utility.yul\":6386:6387   */\n      0x00\n        /* \"#utility.yul\":6377:6383   */\n      dup4\n        /* \"#utility.yul\":6372:6375   */\n      dup4\n        /* \"#utility.yul\":6368:6384   */\n      add\n        /* \"#utility.yul\":6361:6388   */\n      mstore\n        /* \"#utility.yul\":6240:6394   */\n      pop\n      pop\n      pop\n      jump\t// out\n        /* \"#utility.yul\":6400:6707   */\n    tag_103:\n        /* \"#utility.yul\":6468:6469   */\n      0x00\n        /* \"#utility.yul\":6478:6591   */\n    tag_135:\n        /* \"#utility.yul\":6492:6498   */\n      dup4\n        /* \"#utility.yul\":6489:6490   */\n      dup2\n        /* \"#utility.yul\":6486:6499   */\n      lt\n        /* \"#utility.yul\":6478:6591   */\n      iszero\n      tag_137\n      jumpi\n        /* \"#utility.yul\":6577:6578   */\n      dup1\n        /* \"#utility.yul\":6572:6575   */\n      dup3\n        /* \"#utility.yul\":6568:6579   */\n      add\n        /* \"#utility.yul\":6562:6580   */\n      mload\n        /* \"#utility.yul\":6558:6559   */\n      dup2\n        /* \"#utility.yul\":6553:6556   */\n      dup5\n        /* \"#utility.yul\":6549:6560   */\n      add\n        /* \"#utility.yul\":6542:6581   */\n      mstore\n        /* \"#utility.yul\":6514:6516   */\n      0x20\n        /* \"#utility.yul\":6511:6512   */\n      dup2\n        /* \"#utility.yul\":6507:6517   */\n      add\n        /* \"#utility.yul\":6502:6517   */\n      swap1\n      pop\n        /* \"#utility.yul\":6478:6591   */\n      jump(tag_135)\n    tag_137:\n        /* \"#utility.yul\":6609:6615   */\n      dup4\n        /* \"#utility.yul\":6606:6607   */\n      dup2\n        /* \"#utility.yul\":6603:6616   */\n      gt\n        /* \"#utility.yul\":6600:6701   */\n      iszero\n      tag_138\n      jumpi\n        /* \"#utility.yul\":6689:6690   */\n      0x00\n        /* \"#utility.yul\":6680:6686   */\n      dup5\n        /* \"#utility.yul\":6675:6678   */\n      dup5\n        /* \"#utility.yul\":6671:6687   */\n      add\n        /* \"#utility.yul\":6664:6691   */\n      mstore\n        /* \"#utility.yul\":6600:6701   */\n    tag_138:\n        /* \"#utility.yul\":6449:6707   */\n      pop\n        /* \"#utility.yul\":6400:6707   */\n      pop\n      pop\n      pop\n      jump\t// out\n        /* \"#utility.yul\":6713:7033   */\n    tag_28:\n        /* \"#utility.yul\":6757:6763   */\n      0x00\n        /* \"#utility.yul\":6794:6795   */\n      0x02\n        /* \"#utility.yul\":6788:6792   */\n      dup3\n        /* \"#utility.yul\":6784:6796   */\n      div\n        /* \"#utility.yul\":6774:6796   */\n      swap1\n      pop\n        /* \"#utility.yul\":6841:6842   */\n      0x01\n        /* \"#utility.yul\":6835:6839   */\n      dup3\n        /* \"#utility.yul\":6831:6843   */\n      and\n        /* \"#utility.yul\":6862:6880   */\n      dup1\n        /* \"#utility.yul\":6852:6933   */\n      tag_140\n      jumpi\n        /* \"#utility.yul\":6918:6922   */\n      0x7f\n        /* \"#utility.yul\":6910:6916   */\n      dup3\n        /* \"#utility.yul\":6906:6923   */\n      and\n        /* \"#utility.yul\":6896:6923   */\n      swap2\n      pop\n        /* \"#utility.yul\":6852:6933   */\n    tag_140:\n        /* \"#utility.yul\":6980:6982   */\n      0x20\n        /* \"#utility.yul\":6972:6978   */\n      dup3\n        /* \"#utility.yul\":6969:6983   */\n      lt\n        /* \"#utility.yul\":6949:6967   */\n      dup2\n        /* \"#utility.yul\":6946:6984   */\n      eq\n        /* \"#utility.yul\":6943:7027   */\n      iszero\n      tag_141\n      jumpi\n        /* \"#utility.yul\":6999:7017   */\n      tag_142\n      tag_143\n      jump\t// in\n    tag_142:\n        /* \"#utility.yul\":6943:7027   */\n    tag_141:\n        /* \"#utility.yul\":6764:7033   */\n      pop\n        /* \"#utility.yul\":6713:7033   */\n      swap2\n      swap1\n      pop\n      jump\t// out\n        /* \"#utility.yul\":7039:7320   */\n    tag_119:\n        /* \"#utility.yul\":7122:7149   */\n      tag_145\n        /* \"#utility.yul\":7144:7148   */\n      dup3\n        /* \"#utility.yul\":7122:7149   */\n      tag_105\n      jump\t// in\n    tag_145:\n        /* \"#utility.yul\":7114:7120   */\n      dup2\n        /* \"#utility.yul\":7110:7150   */\n      add\n        /* \"#utility.yul\":7252:7258   */\n      dup2\n        /* \"#utility.yul\":7240:7250   */\n      dup2\n        /* \"#utility.yul\":7237:7259   */\n      lt\n        /* \"#utility.yul\":7216:7234   */\n      0xffffffffffffffff\n        /* \"#utility.yul\":7204:7214   */\n      dup3\n        /* \"#utility.yul\":7201:7235   */\n      gt\n        /* \"#utility.yul\":7198:7260   */\n      or\n        /* \"#utility.yul\":7195:7283   */\n      iszero\n      tag_146\n      jumpi\n        /* \"#utility.yul\":7263:7281   */\n      tag_147\n      tag_124\n      jump\t// in\n    tag_147:\n        /* \"#utility.yul\":7195:7283   */\n    tag_146:\n        /* \"#utility.yul\":7303:7313   */\n      dup1\n        /* \"#utility.yul\":7299:7301   */\n      0x40\n        /* \"#utility.yul\":7292:7314   */\n      mstore\n        /* \"#utility.yul\":7082:7320   */\n      pop\n        /* \"#utility.yul\":7039:7320   */\n      pop\n      pop\n      jump\t// out\n        /* \"#utility.yul\":7326:7506   */\n    tag_143:\n        /* \"#utility.yul\":7374:7451   */\n      0x4e487b7100000000000000000000000000000000000000000000000000000000\n        /* \"#utility.yul\":7371:7372   */\n      0x00\n        /* \"#utility.yul\":7364:7452   */\n      mstore\n        /* \"#utility.yul\":7471:7475   */\n      0x22\n        /* \"#utility.yul\":7468:7469   */\n      0x04\n        /* \"#utility.yul\":7461:7476   */\n      mstore\n        /* \"#utility.yul\":7495:7499   */\n      0x24\n        /* \"#utility.yul\":7492:7493   */\n      0x00\n        /* \"#utility.yul\":7485:7500   */\n      revert\n        /* \"#utility.yul\":7512:7692   */\n    tag_124:\n        /* \"#utility.yul\":7560:7637   */\n      0x4e487b7100000000000000000000000000000000000000000000000000000000\n        /* \"#utility.yul\":7557:7558   */\n      0x00\n        /* \"#utility.yul\":7550:7638   */\n      mstore\n        /* \"#utility.yul\":7657:7661   */\n      0x41\n        /* \"#utility.yul\":7654:7655   */\n      0x04\n        /* \"#utility.yul\":7647:7662   */\n      mstore\n        /* \"#utility.yul\":7681:7685   */\n      0x24\n        /* \"#utility.yul\":7678:7679   */\n      0x00\n        /* \"#utility.yul\":7671:7686   */\n      revert\n        /* \"#utility.yul\":7698:7815   */\n    tag_60:\n        /* \"#utility.yul\":7807:7808   */\n      0x00\n        /* \"#utility.yul\":7804:7805   */\n      dup1\n        /* \"#utility.yul\":7797:7809   */\n      revert\n        /* \"#utility.yul\":7821:7938   */\n    tag_53:\n        /* \"#utility.yul\":7930:7931   */\n      0x00\n        /* \"#utility.yul\":7927:7928   */\n      dup1\n        /* \"#utility.yul\":7920:7932   */\n      revert\n        /* \"#utility.yul\":7944:8061   */\n    tag_72:\n        /* \"#utility.yul\":8053:8054   */\n      0x00\n        /* \"#utility.yul\":8050:8051   */\n      dup1\n        /* \"#utility.yul\":8043:8055   */\n      revert\n        /* \"#utility.yul\":8067:8184   */\n    tag_69:\n        /* \"#utility.yul\":8176:8177   */\n      0x00\n        /* \"#utility.yul\":8173:8174   */\n      dup1\n        /* \"#utility.yul\":8166:8178   */\n      revert\n        /* \"#utility.yul\":8190:8292   */\n    tag_105:\n        /* \"#utility.yul\":8231:8237   */\n      0x00\n        /* \"#utility.yul\":8282:8284   */\n      0x1f\n        /* \"#utility.yul\":8278:8285   */\n      not\n        /* \"#utility.yul\":8273:8275   */\n      0x1f\n        /* \"#utility.yul\":8266:8271   */\n      dup4\n        /* \"#utility.yul\":8262:8276   */\n      add\n        /* \"#utility.yul\":8258:8286   */\n      and\n        /* \"#utility.yul\":8248:8286   */\n      swap1\n      pop\n        /* \"#utility.yul\":8190:8292   */\n      swap2\n      swap1\n      pop\n      jump\t// out\n        /* \"#utility.yul\":8298:8420   */\n    tag_65:\n        /* \"#utility.yul\":8371:8395   */\n      tag_156\n        /* \"#utility.yul\":8389:8394   */\n      dup2\n        /* \"#utility.yul\":8371:8395   */\n      tag_112\n      jump\t// in\n    tag_156:\n        /* \"#utility.yul\":8364:8369   */\n      dup2\n        /* \"#utility.yul\":8361:8396   */\n      eq\n        /* \"#utility.yul\":8351:8414   */\n      tag_157\n      jumpi\n        /* \"#utility.yul\":8410:8411   */\n      0x00\n        /* \"#utility.yul\":8407:8408   */\n      dup1\n        /* \"#utility.yul\":8400:8412   */\n      revert\n        /* \"#utility.yul\":8351:8414   */\n    tag_157:\n        /* \"#utility.yul\":8298:8420   */\n      pop\n      jump\t// out\n\n    auxdata: 0xa26469706673582212201af588d4fa800926ddc89d5811f743f95701191c960af9e194095f72adb93ee464736f6c63430008070033\n}\n",
				"bytecode": {
					"linkReferences": {},
					"object": "608060405234801561001057600080fd5b50610717806100206000396000f3fe608060405234801561001057600080fd5b50600436106100415760003560e01c8063234c668614610046578063942b765a14610062578063b868ef5714610080575b600080fd5b610060600480360381019061005b9190610347565b6100b0565b005b61006a61011d565b60405161007791906104cb565b60405180910390f35b61009a60048036038101906100959190610390565b610218565b6040516100a791906104cb565b60405180910390f35b600060405180604001604052806000815260200183815250908060018154018082558091505060019003906000526020600020906002020160009091909190915060008201518160000155602082015181600101908051906020019061011792919061021f565b50505050565b60606000805480602002602001604051908101604052809291908181526020016000905b8282101561020f57838290600052602060002090600202016040518060400160405290816000820154815260200160018201805461017e906105e4565b80601f01602080910402602001604051908101604052809291908181526020018280546101aa906105e4565b80156101f75780601f106101cc576101008083540402835291602001916101f7565b820191906000526020600020905b8154815290600101906020018083116101da57829003601f168201915b50505050508152505081526020019060010190610141565b50505050905090565b6060919050565b82805461022b906105e4565b90600052602060002090601f01602090048101928261024d5760008555610294565b82601f1061026657805160ff1916838001178555610294565b82800160010185558215610294579182015b82811115610293578251825591602001919060010190610278565b5b5090506102a191906102a5565b5090565b5b808211156102be5760008160009055506001016102a6565b5090565b60006102d56102d084610512565b6104ed565b9050828152602081018484840111156102f1576102f06106aa565b5b6102fc8482856105a2565b509392505050565b600082601f830112610319576103186106a5565b5b81356103298482602086016102c2565b91505092915050565b600081359050610341816106ca565b92915050565b60006020828403121561035d5761035c6106b4565b5b600082013567ffffffffffffffff81111561037b5761037a6106af565b5b61038784828501610304565b91505092915050565b6000602082840312156103a6576103a56106b4565b5b60006103b484828501610332565b91505092915050565b60006103c9838361047f565b905092915050565b60006103dc82610553565b6103e68185610576565b9350836020820285016103f885610543565b8060005b85811015610434578484038952815161041585826103bd565b945061042083610569565b925060208a019950506001810190506103fc565b50829750879550505050505092915050565b60006104518261055e565b61045b8185610587565b935061046b8185602086016105b1565b610474816106b9565b840191505092915050565b600060408301600083015161049760008601826104bc565b50602083015184820360208601526104af8282610446565b9150508091505092915050565b6104c581610598565b82525050565b600060208201905081810360008301526104e581846103d1565b905092915050565b60006104f7610508565b90506105038282610616565b919050565b6000604051905090565b600067ffffffffffffffff82111561052d5761052c610676565b5b610536826106b9565b9050602081019050919050565b6000819050602082019050919050565b600081519050919050565b600081519050919050565b6000602082019050919050565b600082825260208201905092915050565b600082825260208201905092915050565b6000819050919050565b82818337600083830152505050565b60005b838110156105cf5780820151818401526020810190506105b4565b838111156105de576000848401525b50505050565b600060028204905060018216806105fc57607f821691505b602082108114156106105761060f610647565b5b50919050565b61061f826106b9565b810181811067ffffffffffffffff8211171561063e5761063d610676565b5b80604052505050565b7f4e487b7100000000000000000000000000000000000000000000000000000000600052602260045260246000fd5b7f4e487b7100000000000000000000000000000000000000000000000000000000600052604160045260246000fd5b600080fd5b600080fd5b600080fd5b600080fd5b6000601f19601f8301169050919050565b6106d381610598565b81146106de57600080fd5b5056fea26469706673582212201af588d4fa800926ddc89d5811f743f95701191c960af9e194095f72adb93ee464736f6c63430008070033",
					"opcodes": "PUSH1 0x80 PUSH1 0x40 MSTORE CALLVALUE DUP1 ISZERO PUSH2 0x10 JUMPI PUSH1 0x0 DUP1 REVERT JUMPDEST POP PUSH2 0x717 DUP1 PUSH2 0x20 PUSH1 0x0 CODECOPY PUSH1 0x0 RETURN INVALID PUSH1 0x80 PUSH1 0x40 MSTORE CALLVALUE DUP1 ISZERO PUSH2 0x10 JUMPI PUSH1 0x0 DUP1 REVERT JUMPDEST POP PUSH1 0x4 CALLDATASIZE LT PUSH2 0x41 JUMPI PUSH1 0x0 CALLDATALOAD PUSH1 0xE0 SHR DUP1 PUSH4 0x234C6686 EQ PUSH2 0x46 JUMPI DUP1 PUSH4 0x942B765A EQ PUSH2 0x62 JUMPI DUP1 PUSH4 0xB868EF57 EQ PUSH2 0x80 JUMPI JUMPDEST PUSH1 0x0 DUP1 REVERT JUMPDEST PUSH2 0x60 PUSH1 0x4 DUP1 CALLDATASIZE SUB DUP2 ADD SWAP1 PUSH2 0x5B SWAP2 SWAP1 PUSH2 0x347 JUMP JUMPDEST PUSH2 0xB0 JUMP JUMPDEST STOP JUMPDEST PUSH2 0x6A PUSH2 0x11D JUMP JUMPDEST PUSH1 0x40 MLOAD PUSH2 0x77 SWAP2 SWAP1 PUSH2 0x4CB JUMP JUMPDEST PUSH1 0x40 MLOAD DUP1 SWAP2 SUB SWAP1 RETURN JUMPDEST PUSH2 0x9A PUSH1 0x4 DUP1 CALLDATASIZE SUB DUP2 ADD SWAP1 PUSH2 0x95 SWAP2 SWAP1 PUSH2 0x390 JUMP JUMPDEST PUSH2 0x218 JUMP JUMPDEST PUSH1 0x40 MLOAD PUSH2 0xA7 SWAP2 SWAP1 PUSH2 0x4CB JUMP JUMPDEST PUSH1 0x40 MLOAD DUP1 SWAP2 SUB SWAP1 RETURN JUMPDEST PUSH1 0x0 PUSH1 0x40 MLOAD DUP1 PUSH1 0x40 ADD PUSH1 0x40 MSTORE DUP1 PUSH1 0x0 DUP2 MSTORE PUSH1 0x20 ADD DUP4 DUP2 MSTORE POP SWAP1 DUP1 PUSH1 0x1 DUP2 SLOAD ADD DUP1 DUP3 SSTORE DUP1 SWAP2 POP POP PUSH1 0x1 SWAP1 SUB SWAP1 PUSH1 0x0 MSTORE PUSH1 0x20 PUSH1 0x0 KECCAK256 SWAP1 PUSH1 0x2 MUL ADD PUSH1 0x0 SWAP1 SWAP2 SWAP1 SWAP2 SWAP1 SWAP2 POP PUSH1 0x0 DUP3 ADD MLOAD DUP2 PUSH1 0x0 ADD SSTORE PUSH1 0x20 DUP3 ADD MLOAD DUP2 PUSH1 0x1 ADD SWAP1 DUP1 MLOAD SWAP1 PUSH1 0x20 ADD SWAP1 PUSH2 0x117 SWAP3 SWAP2 SWAP1 PUSH2 0x21F JUMP JUMPDEST POP POP POP POP JUMP JUMPDEST PUSH1 0x60 PUSH1 0x0 DUP1 SLOAD DUP1 PUSH1 0x20 MUL PUSH1 0x20 ADD PUSH1 0x40 MLOAD SWAP1 DUP2 ADD PUSH1 0x40 MSTORE DUP1 SWAP3 SWAP2 SWAP1 DUP2 DUP2 MSTORE PUSH1 0x20 ADD PUSH1 0x0 SWAP1 JUMPDEST DUP3 DUP3 LT ISZERO PUSH2 0x20F JUMPI DUP4 DUP3 SWAP1 PUSH1 0x0 MSTORE PUSH1 0x20 PUSH1 0x0 KECCAK256 SWAP1 PUSH1 0x2 MUL ADD PUSH1 0x40 MLOAD DUP1 PUSH1 0x40 ADD PUSH1 0x40 MSTORE SWAP1 DUP2 PUSH1 0x0 DUP3 ADD SLOAD DUP2 MSTORE PUSH1 0x20 ADD PUSH1 0x1 DUP3 ADD DUP1 SLOAD PUSH2 0x17E SWAP1 PUSH2 0x5E4 JUMP JUMPDEST DUP1 PUSH1 0x1F ADD PUSH1 0x20 DUP1 SWAP2 DIV MUL PUSH1 0x20 ADD PUSH1 0x40 MLOAD SWAP1 DUP2 ADD PUSH1 0x40 MSTORE DUP1 SWAP3 SWAP2 SWAP1 DUP2 DUP2 MSTORE PUSH1 0x20 ADD DUP3 DUP1 SLOAD PUSH2 0x1AA SWAP1 PUSH2 0x5E4 JUMP JUMPDEST DUP1 ISZERO PUSH2 0x1F7 JUMPI DUP1 PUSH1 0x1F LT PUSH2 0x1CC JUMPI PUSH2 0x100 DUP1 DUP4 SLOAD DIV MUL DUP4 MSTORE SWAP2 PUSH1 0x20 ADD SWAP2 PUSH2 0x1F7 JUMP JUMPDEST DUP3 ADD SWAP2 SWAP1 PUSH1 0x0 MSTORE PUSH1 0x20 PUSH1 0x0 KECCAK256 SWAP1 JUMPDEST DUP2 SLOAD DUP2 MSTORE SWAP1 PUSH1 0x1 ADD SWAP1 PUSH1 0x20 ADD DUP1 DUP4 GT PUSH2 0x1DA JUMPI DUP3 SWAP1 SUB PUSH1 0x1F AND DUP3 ADD SWAP2 JUMPDEST POP POP POP POP POP DUP2 MSTORE POP POP DUP2 MSTORE PUSH1 0x20 ADD SWAP1 PUSH1 0x1 ADD SWAP1 PUSH2 0x141 JUMP JUMPDEST POP POP POP POP SWAP1 POP SWAP1 JUMP JUMPDEST PUSH1 0x60 SWAP2 SWAP1 POP JUMP JUMPDEST DUP3 DUP1 SLOAD PUSH2 0x22B SWAP1 PUSH2 0x5E4 JUMP JUMPDEST SWAP1 PUSH1 0x0 MSTORE PUSH1 0x20 PUSH1 0x0 KECCAK256 SWAP1 PUSH1 0x1F ADD PUSH1 0x20 SWAP1 DIV DUP2 ADD SWAP3 DUP3 PUSH2 0x24D JUMPI PUSH1 0x0 DUP6 SSTORE PUSH2 0x294 JUMP JUMPDEST DUP3 PUSH1 0x1F LT PUSH2 0x266 JUMPI DUP1 MLOAD PUSH1 0xFF NOT AND DUP4 DUP1 ADD OR DUP6 SSTORE PUSH2 0x294 JUMP JUMPDEST DUP3 DUP1 ADD PUSH1 0x1 ADD DUP6 SSTORE DUP3 ISZERO PUSH2 0x294 JUMPI SWAP2 DUP3 ADD JUMPDEST DUP3 DUP2 GT ISZERO PUSH2 0x293 JUMPI DUP3 MLOAD DUP3 SSTORE SWAP2 PUSH1 0x20 ADD SWAP2 SWAP1 PUSH1 0x1 ADD SWAP1 PUSH2 0x278 JUMP JUMPDEST JUMPDEST POP SWAP1 POP PUSH2 0x2A1 SWAP2 SWAP1 PUSH2 0x2A5 JUMP JUMPDEST POP SWAP1 JUMP JUMPDEST JUMPDEST DUP1 DUP3 GT ISZERO PUSH2 0x2BE JUMPI PUSH1 0x0 DUP2 PUSH1 0x0 SWAP1 SSTORE POP PUSH1 0x1 ADD PUSH2 0x2A6 JUMP JUMPDEST POP SWAP1 JUMP JUMPDEST PUSH1 0x0 PUSH2 0x2D5 PUSH2 0x2D0 DUP5 PUSH2 0x512 JUMP JUMPDEST PUSH2 0x4ED JUMP JUMPDEST SWAP1 POP DUP3 DUP2 MSTORE PUSH1 0x20 DUP2 ADD DUP5 DUP5 DUP5 ADD GT ISZERO PUSH2 0x2F1 JUMPI PUSH2 0x2F0 PUSH2 0x6AA JUMP JUMPDEST JUMPDEST PUSH2 0x2FC DUP5 DUP3 DUP6 PUSH2 0x5A2 JUMP JUMPDEST POP SWAP4 SWAP3 POP POP POP JUMP JUMPDEST PUSH1 0x0 DUP3 PUSH1 0x1F DUP4 ADD SLT PUSH2 0x319 JUMPI PUSH2 0x318 PUSH2 0x6A5 JUMP JUMPDEST JUMPDEST DUP2 CALLDATALOAD PUSH2 0x329 DUP5 DUP3 PUSH1 0x20 DUP7 ADD PUSH2 0x2C2 JUMP JUMPDEST SWAP2 POP POP SWAP3 SWAP2 POP POP JUMP JUMPDEST PUSH1 0x0 DUP2 CALLDATALOAD SWAP1 POP PUSH2 0x341 DUP2 PUSH2 0x6CA JUMP JUMPDEST SWAP3 SWAP2 POP POP JUMP JUMPDEST PUSH1 0x0 PUSH1 0x20 DUP3 DUP5 SUB SLT ISZERO PUSH2 0x35D JUMPI PUSH2 0x35C PUSH2 0x6B4 JUMP JUMPDEST JUMPDEST PUSH1 0x0 DUP3 ADD CALLDATALOAD PUSH8 0xFFFFFFFFFFFFFFFF DUP2 GT ISZERO PUSH2 0x37B JUMPI PUSH2 0x37A PUSH2 0x6AF JUMP JUMPDEST JUMPDEST PUSH2 0x387 DUP5 DUP3 DUP6 ADD PUSH2 0x304 JUMP JUMPDEST SWAP2 POP POP SWAP3 SWAP2 POP POP JUMP JUMPDEST PUSH1 0x0 PUSH1 0x20 DUP3 DUP5 SUB SLT ISZERO PUSH2 0x3A6 JUMPI PUSH2 0x3A5 PUSH2 0x6B4 JUMP JUMPDEST JUMPDEST PUSH1 0x0 PUSH2 0x3B4 DUP5 DUP3 DUP6 ADD PUSH2 0x332 JUMP JUMPDEST SWAP2 POP POP SWAP3 SWAP2 POP POP JUMP JUMPDEST PUSH1 0x0 PUSH2 0x3C9 DUP4 DUP4 PUSH2 0x47F JUMP JUMPDEST SWAP1 POP SWAP3 SWAP2 POP POP JUMP JUMPDEST PUSH1 0x0 PUSH2 0x3DC DUP3 PUSH2 0x553 JUMP JUMPDEST PUSH2 0x3E6 DUP2 DUP6 PUSH2 0x576 JUMP JUMPDEST SWAP4 POP DUP4 PUSH1 0x20 DUP3 MUL DUP6 ADD PUSH2 0x3F8 DUP6 PUSH2 0x543 JUMP JUMPDEST DUP1 PUSH1 0x0 JUMPDEST DUP6 DUP2 LT ISZERO PUSH2 0x434 JUMPI DUP5 DUP5 SUB DUP10 MSTORE DUP2 MLOAD PUSH2 0x415 DUP6 DUP3 PUSH2 0x3BD JUMP JUMPDEST SWAP5 POP PUSH2 0x420 DUP4 PUSH2 0x569 JUMP JUMPDEST SWAP3 POP PUSH1 0x20 DUP11 ADD SWAP10 POP POP PUSH1 0x1 DUP2 ADD SWAP1 POP PUSH2 0x3FC JUMP JUMPDEST POP DUP3 SWAP8 POP DUP8 SWAP6 POP POP POP POP POP POP SWAP3 SWAP2 POP POP JUMP JUMPDEST PUSH1 0x0 PUSH2 0x451 DUP3 PUSH2 0x55E JUMP JUMPDEST PUSH2 0x45B DUP2 DUP6 PUSH2 0x587 JUMP JUMPDEST SWAP4 POP PUSH2 0x46B DUP2 DUP6 PUSH1 0x20 DUP7 ADD PUSH2 0x5B1 JUMP JUMPDEST PUSH2 0x474 DUP2 PUSH2 0x6B9 JUMP JUMPDEST DUP5 ADD SWAP2 POP POP SWAP3 SWAP2 POP POP JUMP JUMPDEST PUSH1 0x0 PUSH1 0x40 DUP4 ADD PUSH1 0x0 DUP4 ADD MLOAD PUSH2 0x497 PUSH1 0x0 DUP7 ADD DUP3 PUSH2 0x4BC JUMP JUMPDEST POP PUSH1 0x20 DUP4 ADD MLOAD DUP5 DUP3 SUB PUSH1 0x20 DUP7 ADD MSTORE PUSH2 0x4AF DUP3 DUP3 PUSH2 0x446 JUMP JUMPDEST SWAP2 POP POP DUP1 SWAP2 POP POP SWAP3 SWAP2 POP POP JUMP JUMPDEST PUSH2 0x4C5 DUP2 PUSH2 0x598 JUMP JUMPDEST DUP3 MSTORE POP POP JUMP JUMPDEST PUSH1 0x0 PUSH1 0x20 DUP3 ADD SWAP1 POP DUP2 DUP2 SUB PUSH1 0x0 DUP4 ADD MSTORE PUSH2 0x4E5 DUP2 DUP5 PUSH2 0x3D1 JUMP JUMPDEST SWAP1 POP SWAP3 SWAP2 POP POP JUMP JUMPDEST PUSH1 0x0 PUSH2 0x4F7 PUSH2 0x508 JUMP JUMPDEST SWAP1 POP PUSH2 0x503 DUP3 DUP3 PUSH2 0x616 JUMP JUMPDEST SWAP2 SWAP1 POP JUMP JUMPDEST PUSH1 0x0 PUSH1 0x40 MLOAD SWAP1 POP SWAP1 JUMP JUMPDEST PUSH1 0x0 PUSH8 0xFFFFFFFFFFFFFFFF DUP3 GT ISZERO PUSH2 0x52D JUMPI PUSH2 0x52C PUSH2 0x676 JUMP JUMPDEST JUMPDEST PUSH2 0x536 DUP3 PUSH2 0x6B9 JUMP JUMPDEST SWAP1 POP PUSH1 0x20 DUP2 ADD SWAP1 POP SWAP2 SWAP1 POP JUMP JUMPDEST PUSH1 0x0 DUP2 SWAP1 POP PUSH1 0x20 DUP3 ADD SWAP1 POP SWAP2 SWAP1 POP JUMP JUMPDEST PUSH1 0x0 DUP2 MLOAD SWAP1 POP SWAP2 SWAP1 POP JUMP JUMPDEST PUSH1 0x0 DUP2 MLOAD SWAP1 POP SWAP2 SWAP1 POP JUMP JUMPDEST PUSH1 0x0 PUSH1 0x20 DUP3 ADD SWAP1 POP SWAP2 SWAP1 POP JUMP JUMPDEST PUSH1 0x0 DUP3 DUP3 MSTORE PUSH1 0x20 DUP3 ADD SWAP1 POP SWAP3 SWAP2 POP POP JUMP JUMPDEST PUSH1 0x0 DUP3 DUP3 MSTORE PUSH1 0x20 DUP3 ADD SWAP1 POP SWAP3 SWAP2 POP POP JUMP JUMPDEST PUSH1 0x0 DUP2 SWAP1 POP SWAP2 SWAP1 POP JUMP JUMPDEST DUP3 DUP2 DUP4 CALLDATACOPY PUSH1 0x0 DUP4 DUP4 ADD MSTORE POP POP POP JUMP JUMPDEST PUSH1 0x0 JUMPDEST DUP4 DUP2 LT ISZERO PUSH2 0x5CF JUMPI DUP1 DUP3 ADD MLOAD DUP2 DUP5 ADD MSTORE PUSH1 0x20 DUP2 ADD SWAP1 POP PUSH2 0x5B4 JUMP JUMPDEST DUP4 DUP2 GT ISZERO PUSH2 0x5DE JUMPI PUSH1 0x0 DUP5 DUP5 ADD MSTORE JUMPDEST POP POP POP POP JUMP JUMPDEST PUSH1 0x0 PUSH1 0x2 DUP3 DIV SWAP1 POP PUSH1 0x1 DUP3 AND DUP1 PUSH2 0x5FC JUMPI PUSH1 0x7F DUP3 AND SWAP2 POP JUMPDEST PUSH1 0x20 DUP3 LT DUP2 EQ ISZERO PUSH2 0x610 JUMPI PUSH2 0x60F PUSH2 0x647 JUMP JUMPDEST JUMPDEST POP SWAP2 SWAP1 POP JUMP JUMPDEST PUSH2 0x61F DUP3 PUSH2 0x6B9 JUMP JUMPDEST DUP2 ADD DUP2 DUP2 LT PUSH8 0xFFFFFFFFFFFFFFFF DUP3 GT OR ISZERO PUSH2 0x63E JUMPI PUSH2 0x63D PUSH2 0x676 JUMP JUMPDEST JUMPDEST DUP1 PUSH1 0x40 MSTORE POP POP POP JUMP JUMPDEST PUSH32 0x4E487B7100000000000000000000000000000000000000000000000000000000 PUSH1 0x0 MSTORE PUSH1 0x22 PUSH1 0x4 MSTORE PUSH1 0x24 PUSH1 0x0 REVERT JUMPDEST PUSH32 0x4E487B7100000000000000000000000000000000000000000000000000000000 PUSH1 0x0 MSTORE PUSH1 0x41 PUSH1 0x4 MSTORE PUSH1 0x24 PUSH1 0x0 REVERT JUMPDEST PUSH1 0x0 DUP1 REVERT JUMPDEST PUSH1 0x0 DUP1 REVERT JUMPDEST PUSH1 0x0 DUP1 REVERT JUMPDEST PUSH1 0x0 DUP1 REVERT JUMPDEST PUSH1 0x0 PUSH1 0x1F NOT PUSH1 0x1F DUP4 ADD AND SWAP1 POP SWAP2 SWAP1 POP JUMP JUMPDEST PUSH2 0x6D3 DUP2 PUSH2 0x598 JUMP JUMPDEST DUP2 EQ PUSH2 0x6DE JUMPI PUSH1 0x0 DUP1 REVERT JUMPDEST POP JUMP INVALID LOG2 PUSH5 0x6970667358 0x22 SLT KECCAK256 BYTE CREATE2 DUP9 0xD4 STATICCALL DUP1 MULMOD 0x26 0xDD 0xC8 SWAP14 PC GT 0xF7 NUMBER 0xF9 JUMPI ADD NOT SHR SWAP7 EXP 0xF9 0xE1 SWAP5 MULMOD 0x5F PUSH19 0xADB93EE464736F6C6343000807003300000000 "
				},
				"gasEstimates": {
					"creation": {
						"codeDepositCost": "363000",
						"executionCost": "399",
						"totalCost": "363399"
					},
					"external": {
						"createReadList(string)": "infinite",
						"getFilterReadList(uint256)": "infinite",
						"getList()": "infinite"
					}
				},
				"methodIdentifiers": {
					"createReadList(string)": "234c6686",
					"getFilterReadList(uint256)": "b868ef57",
					"getList()": "942b765a"
				}
			},
			"storageLayout": {
				"storage": [
					{
						"astId": 10,
						"contract": "array.sol:ArrayTest",
						"label": "list",
						"offset": 0,
						"slot": "0",
						"type": "t_array(t_struct(Book)6_storage)dyn_storage"
					}
				],
				"types": {
					"t_array(t_struct(Book)6_storage)dyn_storage": {
						"base": "t_struct(Book)6_storage",
						"encoding": "dynamic_array",
						"label": "struct ArrayTest.Book[]",
						"numberOfBytes": "32"
					},
					"t_string_storage": {
						"encoding": "bytes",
						"label": "string",
						"numberOfBytes": "32"
					},
					"t_struct(Book)6_storage": {
						"encoding": "inplace",
						"label": "struct ArrayTest.Book",
						"members": [
							{
								"astId": 3,
								"contract": "array.sol:ArrayTest",
								"label": "status",
								"offset": 0,
								"slot": "0",
								"type": "t_uint256"
							},
							{
								"astId": 5,
								"contract": "array.sol:ArrayTest",
								"label": "bookName",
								"offset": 0,
								"slot": "1",
								"type": "t_string_storage"
							}
						],
						"numberOfBytes": "64"
					},
					"t_uint256": {
						"encoding": "inplace",
						"label": "uint256",
						"numberOfBytes": "32"
					}
				}
			},
			"userdoc": {
				"kind": "user",
				"methods": {},
				"version": 1
			}
		}
	}
}