{
	"functionReturns.sol": {
		"testFunctionReturns": {
			"abi": [
				{
					"inputs": [],
					"name": "f1",
					"outputs": [
						{
							"internalType": "uint256",
							"name": "",
							"type": "uint256"
						},
						{
							"internalType": "bool",
							"name": "",
							"type": "bool"
						}
					],
					"stateMutability": "pure",
					"type": "function"
				},
				{
					"inputs": [],
					"name": "f2",
					"outputs": [
						{
							"internalType": "uint256",
							"name": "u",
							"type": "uint256"
						},
						{
							"internalType": "bool",
							"name": "b",
							"type": "bool"
						},
						{
							"internalType": "string",
							"name": "s",
							"type": "string"
						}
					],
					"stateMutability": "pure",
					"type": "function"
				},
				{
					"inputs": [],
					"name": "f3",
					"outputs": [
						{
							"internalType": "uint256",
							"name": "u",
							"type": "uint256"
						},
						{
							"internalType": "bool",
							"name": "b",
							"type": "bool"
						}
					],
					"stateMutability": "pure",
					"type": "function"
				},
				{
					"inputs": [],
					"name": "f4",
					"outputs": [
						{
							"internalType": "uint256",
							"name": "",
							"type": "uint256"
						},
						{
							"internalType": "bool",
							"name": "",
							"type": "bool"
						}
					],
					"stateMutability": "pure",
					"type": "function"
				},
				{
					"inputs": [],
					"name": "f5",
					"outputs": [
						{
							"internalType": "uint256",
							"name": "",
							"type": "uint256"
						},
						{
							"internalType": "bool",
							"name": "",
							"type": "bool"
						}
					],
					"stateMutability": "pure",
					"type": "function"
				}
			],
			"devdoc": {
				"kind": "dev",
				"methods": {},
				"version": 1
			},
			"evm": {
				"assembly": "    /* \"functionReturns.sol\":93:767  contract testFunctionReturns {... */\n  mstore(0x40, 0x80)\n  callvalue\n  dup1\n  iszero\n  tag_1\n  jumpi\n  0x00\n  dup1\n  revert\ntag_1:\n  pop\n  dataSize(sub_0)\n  dup1\n  dataOffset(sub_0)\n  0x00\n  codecopy\n  0x00\n  return\nstop\n\nsub_0: assembly {\n        /* \"functionReturns.sol\":93:767  contract testFunctionReturns {... */\n      mstore(0x40, 0x80)\n      callvalue\n      dup1\n      iszero\n      tag_1\n      jumpi\n      0x00\n      dup1\n      revert\n    tag_1:\n      pop\n      jumpi(tag_2, lt(calldatasize, 0x04))\n      shr(0xe0, calldataload(0x00))\n      dup1\n      0x3c9d377d\n      eq\n      tag_3\n      jumpi\n      dup1\n      0x9942ec6f\n      eq\n      tag_4\n      jumpi\n      dup1\n      0xaaf05f3d\n      eq\n      tag_5\n      jumpi\n      dup1\n      0xc27fc305\n      eq\n      tag_6\n      jumpi\n      dup1\n      0xc3f90202\n      eq\n      tag_7\n      jumpi\n    tag_2:\n      0x00\n      dup1\n      revert\n        /* \"functionReturns.sol\":625:764  function f5() public pure returns (uint,bool){... */\n    tag_3:\n      tag_8\n      tag_9\n      jump\t// in\n    tag_8:\n      mload(0x40)\n      tag_10\n      swap3\n      swap2\n      swap1\n      tag_11\n      jump\t// in\n    tag_10:\n      mload(0x40)\n      dup1\n      swap2\n      sub\n      swap1\n      return\n        /* \"functionReturns.sol\":216:324  function f2() public pure returns (uint u,bool b,string memory s){... */\n    tag_4:\n      tag_12\n      tag_13\n      jump\t// in\n    tag_12:\n      mload(0x40)\n      tag_14\n      swap4\n      swap3\n      swap2\n      swap1\n      tag_15\n      jump\t// in\n    tag_14:\n      mload(0x40)\n      dup1\n      swap2\n      sub\n      swap1\n      return\n        /* \"functionReturns.sol\":332:424  function f3() public pure returns (uint u,bool b){... */\n    tag_5:\n      tag_16\n      tag_17\n      jump\t// in\n    tag_16:\n      mload(0x40)\n      tag_18\n      swap3\n      swap2\n      swap1\n      tag_11\n      jump\t// in\n    tag_18:\n      mload(0x40)\n      dup1\n      swap2\n      sub\n      swap1\n      return\n        /* \"functionReturns.sol\":129:208  function f1() public pure returns (uint,bool){... */\n    tag_6:\n      tag_19\n      tag_20\n      jump\t// in\n    tag_19:\n      mload(0x40)\n      tag_21\n      swap3\n      swap2\n      swap1\n      tag_11\n      jump\t// in\n    tag_21:\n      mload(0x40)\n      dup1\n      swap2\n      sub\n      swap1\n      return\n        /* \"functionReturns.sol\":455:594  function f4() public pure returns (uint,bool){... */\n    tag_7:\n      tag_22\n      tag_23\n      jump\t// in\n    tag_22:\n      mload(0x40)\n      tag_24\n      swap3\n      swap2\n      swap1\n      tag_11\n      jump\t// in\n    tag_24:\n      mload(0x40)\n      dup1\n      swap2\n      sub\n      swap1\n      return\n        /* \"functionReturns.sol\":625:764  function f5() public pure returns (uint,bool){... */\n    tag_9:\n        /* \"functionReturns.sol\":660:664  uint */\n      0x00\n        /* \"functionReturns.sol\":665:669  bool */\n      dup1\n        /* \"functionReturns.sol\":681:688  uint n1 */\n      0x00\n        /* \"functionReturns.sol\":699:706  bool b1 */\n      dup1\n        /* \"functionReturns.sol\":727:731  f1() */\n      tag_26\n        /* \"functionReturns.sol\":727:729  f1 */\n      tag_20\n        /* \"functionReturns.sol\":727:731  f1() */\n      jump\t// in\n    tag_26:\n        /* \"functionReturns.sol\":717:731  (n1,b1) = f1() */\n      dup1\n      swap3\n      pop\n      dup2\n      swap4\n      pop\n      pop\n      pop\n        /* \"functionReturns.sol\":750:752  n1 */\n      dup2\n        /* \"functionReturns.sol\":753:755  b1 */\n      dup2\n        /* \"functionReturns.sol\":742:756  return (n1,b1) */\n      swap4\n      pop\n      swap4\n      pop\n      pop\n      pop\n        /* \"functionReturns.sol\":625:764  function f5() public pure returns (uint,bool){... */\n      swap1\n      swap2\n      jump\t// out\n        /* \"functionReturns.sol\":216:324  function f2() public pure returns (uint u,bool b,string memory s){... */\n    tag_13:\n        /* \"functionReturns.sol\":251:257  uint u */\n      0x00\n        /* \"functionReturns.sol\":258:264  bool b */\n      dup1\n        /* \"functionReturns.sol\":265:280  string memory s */\n      0x60\n        /* \"functionReturns.sol\":300:301  2 */\n      0x02\n        /* \"functionReturns.sol\":302:307  false */\n      0x00\n        /* \"functionReturns.sol\":292:316  return (2,false,'qingh') */\n      mload(0x40)\n      dup1\n      0x40\n      add\n      0x40\n      mstore\n      dup1\n      0x05\n      dup2\n      mstore\n      0x20\n      add\n      0x71696e6768000000000000000000000000000000000000000000000000000000\n      dup2\n      mstore\n      pop\n      swap3\n      pop\n      swap3\n      pop\n      swap3\n      pop\n        /* \"functionReturns.sol\":216:324  function f2() public pure returns (uint u,bool b,string memory s){... */\n      swap1\n      swap2\n      swap3\n      jump\t// out\n        /* \"functionReturns.sol\":332:424  function f3() public pure returns (uint u,bool b){... */\n    tag_17:\n        /* \"functionReturns.sol\":367:373  uint u */\n      0x00\n        /* \"functionReturns.sol\":374:380  bool b */\n      dup1\n        /* \"functionReturns.sol\":396:397  3 */\n      0x03\n        /* \"functionReturns.sol\":392:397  u = 3 */\n      swap2\n      pop\n        /* \"functionReturns.sol\":412:416  true */\n      0x01\n        /* \"functionReturns.sol\":408:416  b = true */\n      swap1\n      pop\n        /* \"functionReturns.sol\":332:424  function f3() public pure returns (uint u,bool b){... */\n      swap1\n      swap2\n      jump\t// out\n        /* \"functionReturns.sol\":129:208  function f1() public pure returns (uint,bool){... */\n    tag_20:\n        /* \"functionReturns.sol\":164:168  uint */\n      0x00\n        /* \"functionReturns.sol\":169:173  bool */\n      dup1\n        /* \"functionReturns.sol\":193:194  1 */\n      0x01\n        /* \"functionReturns.sol\":195:199  true */\n      dup1\n        /* \"functionReturns.sol\":185:200  return (1,true) */\n      swap2\n      pop\n      swap2\n      pop\n        /* \"functionReturns.sol\":129:208  function f1() public pure returns (uint,bool){... */\n      swap1\n      swap2\n      jump\t// out\n        /* \"functionReturns.sol\":455:594  function f4() public pure returns (uint,bool){... */\n    tag_23:\n        /* \"functionReturns.sol\":490:494  uint */\n      0x00\n        /* \"functionReturns.sol\":495:499  bool */\n      dup1\n        /* \"functionReturns.sol\":511:518  uint n1 */\n      0x00\n        /* \"functionReturns.sol\":529:536  bool b1 */\n      dup1\n        /* \"functionReturns.sol\":557:561  f1() */\n      tag_31\n        /* \"functionReturns.sol\":557:559  f1 */\n      tag_20\n        /* \"functionReturns.sol\":557:561  f1() */\n      jump\t// in\n    tag_31:\n        /* \"functionReturns.sol\":547:561  (n1,b1) = f1() */\n      dup1\n      swap3\n      pop\n      dup2\n      swap4\n      pop\n      pop\n      pop\n        /* \"functionReturns.sol\":580:582  n1 */\n      dup2\n        /* \"functionReturns.sol\":583:585  b1 */\n      dup2\n        /* \"functionReturns.sol\":572:586  return (n1,b1) */\n      swap4\n      pop\n      swap4\n      pop\n      pop\n      pop\n        /* \"functionReturns.sol\":455:594  function f4() public pure returns (uint,bool){... */\n      swap1\n      swap2\n      jump\t// out\n        /* \"#utility.yul\":7:84   */\n    tag_32:\n        /* \"#utility.yul\":44:51   */\n      0x00\n        /* \"#utility.yul\":73:78   */\n      dup2\n        /* \"#utility.yul\":62:78   */\n      swap1\n      pop\n        /* \"#utility.yul\":7:84   */\n      swap2\n      swap1\n      pop\n      jump\t// out\n        /* \"#utility.yul\":90:208   */\n    tag_33:\n        /* \"#utility.yul\":177:201   */\n      tag_44\n        /* \"#utility.yul\":195:200   */\n      dup2\n        /* \"#utility.yul\":177:201   */\n      tag_32\n      jump\t// in\n    tag_44:\n        /* \"#utility.yul\":172:175   */\n      dup3\n        /* \"#utility.yul\":165:202   */\n      mstore\n        /* \"#utility.yul\":90:208   */\n      pop\n      pop\n      jump\t// out\n        /* \"#utility.yul\":214:304   */\n    tag_34:\n        /* \"#utility.yul\":248:255   */\n      0x00\n        /* \"#utility.yul\":291:296   */\n      dup2\n        /* \"#utility.yul\":284:297   */\n      iszero\n        /* \"#utility.yul\":277:298   */\n      iszero\n        /* \"#utility.yul\":266:298   */\n      swap1\n      pop\n        /* \"#utility.yul\":214:304   */\n      swap2\n      swap1\n      pop\n      jump\t// out\n        /* \"#utility.yul\":310:419   */\n    tag_35:\n        /* \"#utility.yul\":391:412   */\n      tag_47\n        /* \"#utility.yul\":406:411   */\n      dup2\n        /* \"#utility.yul\":391:412   */\n      tag_34\n      jump\t// in\n    tag_47:\n        /* \"#utility.yul\":386:389   */\n      dup3\n        /* \"#utility.yul\":379:413   */\n      mstore\n        /* \"#utility.yul\":310:419   */\n      pop\n      pop\n      jump\t// out\n        /* \"#utility.yul\":425:745   */\n    tag_11:\n        /* \"#utility.yul\":540:544   */\n      0x00\n        /* \"#utility.yul\":578:580   */\n      0x40\n        /* \"#utility.yul\":567:576   */\n      dup3\n        /* \"#utility.yul\":563:581   */\n      add\n        /* \"#utility.yul\":555:581   */\n      swap1\n      pop\n        /* \"#utility.yul\":591:662   */\n      tag_49\n        /* \"#utility.yul\":659:660   */\n      0x00\n        /* \"#utility.yul\":648:657   */\n      dup4\n        /* \"#utility.yul\":644:661   */\n      add\n        /* \"#utility.yul\":635:641   */\n      dup6\n        /* \"#utility.yul\":591:662   */\n      tag_33\n      jump\t// in\n    tag_49:\n        /* \"#utility.yul\":672:738   */\n      tag_50\n        /* \"#utility.yul\":734:736   */\n      0x20\n        /* \"#utility.yul\":723:732   */\n      dup4\n        /* \"#utility.yul\":719:737   */\n      add\n        /* \"#utility.yul\":710:716   */\n      dup5\n        /* \"#utility.yul\":672:738   */\n      tag_35\n      jump\t// in\n    tag_50:\n        /* \"#utility.yul\":425:745   */\n      swap4\n      swap3\n      pop\n      pop\n      pop\n      jump\t// out\n        /* \"#utility.yul\":751:850   */\n    tag_36:\n        /* \"#utility.yul\":803:809   */\n      0x00\n        /* \"#utility.yul\":837:842   */\n      dup2\n        /* \"#utility.yul\":831:843   */\n      mload\n        /* \"#utility.yul\":821:843   */\n      swap1\n      pop\n        /* \"#utility.yul\":751:850   */\n      swap2\n      swap1\n      pop\n      jump\t// out\n        /* \"#utility.yul\":856:1025   */\n    tag_37:\n        /* \"#utility.yul\":940:951   */\n      0x00\n        /* \"#utility.yul\":974:980   */\n      dup3\n        /* \"#utility.yul\":969:972   */\n      dup3\n        /* \"#utility.yul\":962:981   */\n      mstore\n        /* \"#utility.yul\":1014:1018   */\n      0x20\n        /* \"#utility.yul\":1009:1012   */\n      dup3\n        /* \"#utility.yul\":1005:1019   */\n      add\n        /* \"#utility.yul\":990:1019   */\n      swap1\n      pop\n        /* \"#utility.yul\":856:1025   */\n      swap3\n      swap2\n      pop\n      pop\n      jump\t// out\n        /* \"#utility.yul\":1031:1338   */\n    tag_38:\n        /* \"#utility.yul\":1099:1100   */\n      0x00\n        /* \"#utility.yul\":1109:1222   */\n    tag_54:\n        /* \"#utility.yul\":1123:1129   */\n      dup4\n        /* \"#utility.yul\":1120:1121   */\n      dup2\n        /* \"#utility.yul\":1117:1130   */\n      lt\n        /* \"#utility.yul\":1109:1222   */\n      iszero\n      tag_56\n      jumpi\n        /* \"#utility.yul\":1208:1209   */\n      dup1\n        /* \"#utility.yul\":1203:1206   */\n      dup3\n        /* \"#utility.yul\":1199:1210   */\n      add\n        /* \"#utility.yul\":1193:1211   */\n      mload\n        /* \"#utility.yul\":1189:1190   */\n      dup2\n        /* \"#utility.yul\":1184:1187   */\n      dup5\n        /* \"#utility.yul\":1180:1191   */\n      add\n        /* \"#utility.yul\":1173:1212   */\n      mstore\n        /* \"#utility.yul\":1145:1147   */\n      0x20\n        /* \"#utility.yul\":1142:1143   */\n      dup2\n        /* \"#utility.yul\":1138:1148   */\n      add\n        /* \"#utility.yul\":1133:1148   */\n      swap1\n      pop\n        /* \"#utility.yul\":1109:1222   */\n      jump(tag_54)\n    tag_56:\n        /* \"#utility.yul\":1240:1246   */\n      dup4\n        /* \"#utility.yul\":1237:1238   */\n      dup2\n        /* \"#utility.yul\":1234:1247   */\n      gt\n        /* \"#utility.yul\":1231:1332   */\n      iszero\n      tag_57\n      jumpi\n        /* \"#utility.yul\":1320:1321   */\n      0x00\n        /* \"#utility.yul\":1311:1317   */\n      dup5\n        /* \"#utility.yul\":1306:1309   */\n      dup5\n        /* \"#utility.yul\":1302:1318   */\n      add\n        /* \"#utility.yul\":1295:1322   */\n      mstore\n        /* \"#utility.yul\":1231:1332   */\n    tag_57:\n        /* \"#utility.yul\":1080:1338   */\n      pop\n        /* \"#utility.yul\":1031:1338   */\n      pop\n      pop\n      pop\n      jump\t// out\n        /* \"#utility.yul\":1344:1446   */\n    tag_39:\n        /* \"#utility.yul\":1385:1391   */\n      0x00\n        /* \"#utility.yul\":1436:1438   */\n      0x1f\n        /* \"#utility.yul\":1432:1439   */\n      not\n        /* \"#utility.yul\":1427:1429   */\n      0x1f\n        /* \"#utility.yul\":1420:1425   */\n      dup4\n        /* \"#utility.yul\":1416:1430   */\n      add\n        /* \"#utility.yul\":1412:1440   */\n      and\n        /* \"#utility.yul\":1402:1440   */\n      swap1\n      pop\n        /* \"#utility.yul\":1344:1446   */\n      swap2\n      swap1\n      pop\n      jump\t// out\n        /* \"#utility.yul\":1452:1816   */\n    tag_40:\n        /* \"#utility.yul\":1540:1543   */\n      0x00\n        /* \"#utility.yul\":1568:1607   */\n      tag_60\n        /* \"#utility.yul\":1601:1606   */\n      dup3\n        /* \"#utility.yul\":1568:1607   */\n      tag_36\n      jump\t// in\n    tag_60:\n        /* \"#utility.yul\":1623:1694   */\n      tag_61\n        /* \"#utility.yul\":1687:1693   */\n      dup2\n        /* \"#utility.yul\":1682:1685   */\n      dup6\n        /* \"#utility.yul\":1623:1694   */\n      tag_37\n      jump\t// in\n    tag_61:\n        /* \"#utility.yul\":1616:1694   */\n      swap4\n      pop\n        /* \"#utility.yul\":1703:1755   */\n      tag_62\n        /* \"#utility.yul\":1748:1754   */\n      dup2\n        /* \"#utility.yul\":1743:1746   */\n      dup6\n        /* \"#utility.yul\":1736:1740   */\n      0x20\n        /* \"#utility.yul\":1729:1734   */\n      dup7\n        /* \"#utility.yul\":1725:1741   */\n      add\n        /* \"#utility.yul\":1703:1755   */\n      tag_38\n      jump\t// in\n    tag_62:\n        /* \"#utility.yul\":1780:1809   */\n      tag_63\n        /* \"#utility.yul\":1802:1808   */\n      dup2\n        /* \"#utility.yul\":1780:1809   */\n      tag_39\n      jump\t// in\n    tag_63:\n        /* \"#utility.yul\":1775:1778   */\n      dup5\n        /* \"#utility.yul\":1771:1810   */\n      add\n        /* \"#utility.yul\":1764:1810   */\n      swap2\n      pop\n        /* \"#utility.yul\":1544:1816   */\n      pop\n        /* \"#utility.yul\":1452:1816   */\n      swap3\n      swap2\n      pop\n      pop\n      jump\t// out\n        /* \"#utility.yul\":1822:2343   */\n    tag_15:\n        /* \"#utility.yul\":1985:1989   */\n      0x00\n        /* \"#utility.yul\":2023:2025   */\n      0x60\n        /* \"#utility.yul\":2012:2021   */\n      dup3\n        /* \"#utility.yul\":2008:2026   */\n      add\n        /* \"#utility.yul\":2000:2026   */\n      swap1\n      pop\n        /* \"#utility.yul\":2036:2107   */\n      tag_65\n        /* \"#utility.yul\":2104:2105   */\n      0x00\n        /* \"#utility.yul\":2093:2102   */\n      dup4\n        /* \"#utility.yul\":2089:2106   */\n      add\n        /* \"#utility.yul\":2080:2086   */\n      dup7\n        /* \"#utility.yul\":2036:2107   */\n      tag_33\n      jump\t// in\n    tag_65:\n        /* \"#utility.yul\":2117:2183   */\n      tag_66\n        /* \"#utility.yul\":2179:2181   */\n      0x20\n        /* \"#utility.yul\":2168:2177   */\n      dup4\n        /* \"#utility.yul\":2164:2182   */\n      add\n        /* \"#utility.yul\":2155:2161   */\n      dup6\n        /* \"#utility.yul\":2117:2183   */\n      tag_35\n      jump\t// in\n    tag_66:\n        /* \"#utility.yul\":2230:2239   */\n      dup2\n        /* \"#utility.yul\":2224:2228   */\n      dup2\n        /* \"#utility.yul\":2220:2240   */\n      sub\n        /* \"#utility.yul\":2215:2217   */\n      0x40\n        /* \"#utility.yul\":2204:2213   */\n      dup4\n        /* \"#utility.yul\":2200:2218   */\n      add\n        /* \"#utility.yul\":2193:2241   */\n      mstore\n        /* \"#utility.yul\":2258:2336   */\n      tag_67\n        /* \"#utility.yul\":2331:2335   */\n      dup2\n        /* \"#utility.yul\":2322:2328   */\n      dup5\n        /* \"#utility.yul\":2258:2336   */\n      tag_40\n      jump\t// in\n    tag_67:\n        /* \"#utility.yul\":2250:2336   */\n      swap1\n      pop\n        /* \"#utility.yul\":1822:2343   */\n      swap5\n      swap4\n      pop\n      pop\n      pop\n      pop\n      jump\t// out\n\n    auxdata: 0xa264697066735822122000b6f784314e736b007fb5cf7dae020e466da4928d650f43310d230db4bdf29b64736f6c634300080f0033\n}\n",
				"bytecode": {
					"linkReferences": {},
					"object": "608060405234801561001057600080fd5b5061030d806100206000396000f3fe608060405234801561001057600080fd5b50600436106100575760003560e01c80633c9d377d1461005c5780639942ec6f1461007b578063aaf05f3d1461009b578063c27fc305146100ba578063c3f90202146100d9575b600080fd5b6100646100f8565b6040516100729291906101d7565b60405180910390f35b61008361011a565b60405161009293929190610299565b60405180910390f35b6100a3610164565b6040516100b19291906101d7565b60405180910390f35b6100c2610173565b6040516100d09291906101d7565b60405180910390f35b6100e1610181565b6040516100ef9291906101d7565b60405180910390f35b600080600080610106610173565b809250819350505081819350935050509091565b6000806060600260006040518060400160405280600581526020017f71696e6768000000000000000000000000000000000000000000000000000000815250925092509250909192565b60008060039150600190509091565b600080600180915091509091565b60008060008061018f610173565b809250819350505081819350935050509091565b6000819050919050565b6101b6816101a3565b82525050565b60008115159050919050565b6101d1816101bc565b82525050565b60006040820190506101ec60008301856101ad565b6101f960208301846101c8565b9392505050565b600081519050919050565b600082825260208201905092915050565b60005b8381101561023a57808201518184015260208101905061021f565b83811115610249576000848401525b50505050565b6000601f19601f8301169050919050565b600061026b82610200565b610275818561020b565b935061028581856020860161021c565b61028e8161024f565b840191505092915050565b60006060820190506102ae60008301866101ad565b6102bb60208301856101c8565b81810360408301526102cd8184610260565b905094935050505056fea264697066735822122000b6f784314e736b007fb5cf7dae020e466da4928d650f43310d230db4bdf29b64736f6c634300080f0033",
					"opcodes": "PUSH1 0x80 PUSH1 0x40 MSTORE CALLVALUE DUP1 ISZERO PUSH2 0x10 JUMPI PUSH1 0x0 DUP1 REVERT JUMPDEST POP PUSH2 0x30D DUP1 PUSH2 0x20 PUSH1 0x0 CODECOPY PUSH1 0x0 RETURN INVALID PUSH1 0x80 PUSH1 0x40 MSTORE CALLVALUE DUP1 ISZERO PUSH2 0x10 JUMPI PUSH1 0x0 DUP1 REVERT JUMPDEST POP PUSH1 0x4 CALLDATASIZE LT PUSH2 0x57 JUMPI PUSH1 0x0 CALLDATALOAD PUSH1 0xE0 SHR DUP1 PUSH4 0x3C9D377D EQ PUSH2 0x5C JUMPI DUP1 PUSH4 0x9942EC6F EQ PUSH2 0x7B JUMPI DUP1 PUSH4 0xAAF05F3D EQ PUSH2 0x9B JUMPI DUP1 PUSH4 0xC27FC305 EQ PUSH2 0xBA JUMPI DUP1 PUSH4 0xC3F90202 EQ PUSH2 0xD9 JUMPI JUMPDEST PUSH1 0x0 DUP1 REVERT JUMPDEST PUSH2 0x64 PUSH2 0xF8 JUMP JUMPDEST PUSH1 0x40 MLOAD PUSH2 0x72 SWAP3 SWAP2 SWAP1 PUSH2 0x1D7 JUMP JUMPDEST PUSH1 0x40 MLOAD DUP1 SWAP2 SUB SWAP1 RETURN JUMPDEST PUSH2 0x83 PUSH2 0x11A JUMP JUMPDEST PUSH1 0x40 MLOAD PUSH2 0x92 SWAP4 SWAP3 SWAP2 SWAP1 PUSH2 0x299 JUMP JUMPDEST PUSH1 0x40 MLOAD DUP1 SWAP2 SUB SWAP1 RETURN JUMPDEST PUSH2 0xA3 PUSH2 0x164 JUMP JUMPDEST PUSH1 0x40 MLOAD PUSH2 0xB1 SWAP3 SWAP2 SWAP1 PUSH2 0x1D7 JUMP JUMPDEST PUSH1 0x40 MLOAD DUP1 SWAP2 SUB SWAP1 RETURN JUMPDEST PUSH2 0xC2 PUSH2 0x173 JUMP JUMPDEST PUSH1 0x40 MLOAD PUSH2 0xD0 SWAP3 SWAP2 SWAP1 PUSH2 0x1D7 JUMP JUMPDEST PUSH1 0x40 MLOAD DUP1 SWAP2 SUB SWAP1 RETURN JUMPDEST PUSH2 0xE1 PUSH2 0x181 JUMP JUMPDEST PUSH1 0x40 MLOAD PUSH2 0xEF SWAP3 SWAP2 SWAP1 PUSH2 0x1D7 JUMP JUMPDEST PUSH1 0x40 MLOAD DUP1 SWAP2 SUB SWAP1 RETURN JUMPDEST PUSH1 0x0 DUP1 PUSH1 0x0 DUP1 PUSH2 0x106 PUSH2 0x173 JUMP JUMPDEST DUP1 SWAP3 POP DUP2 SWAP4 POP POP POP DUP2 DUP2 SWAP4 POP SWAP4 POP POP POP SWAP1 SWAP2 JUMP JUMPDEST PUSH1 0x0 DUP1 PUSH1 0x60 PUSH1 0x2 PUSH1 0x0 PUSH1 0x40 MLOAD DUP1 PUSH1 0x40 ADD PUSH1 0x40 MSTORE DUP1 PUSH1 0x5 DUP2 MSTORE PUSH1 0x20 ADD PUSH32 0x71696E6768000000000000000000000000000000000000000000000000000000 DUP2 MSTORE POP SWAP3 POP SWAP3 POP SWAP3 POP SWAP1 SWAP2 SWAP3 JUMP JUMPDEST PUSH1 0x0 DUP1 PUSH1 0x3 SWAP2 POP PUSH1 0x1 SWAP1 POP SWAP1 SWAP2 JUMP JUMPDEST PUSH1 0x0 DUP1 PUSH1 0x1 DUP1 SWAP2 POP SWAP2 POP SWAP1 SWAP2 JUMP JUMPDEST PUSH1 0x0 DUP1 PUSH1 0x0 DUP1 PUSH2 0x18F PUSH2 0x173 JUMP JUMPDEST DUP1 SWAP3 POP DUP2 SWAP4 POP POP POP DUP2 DUP2 SWAP4 POP SWAP4 POP POP POP SWAP1 SWAP2 JUMP JUMPDEST PUSH1 0x0 DUP2 SWAP1 POP SWAP2 SWAP1 POP JUMP JUMPDEST PUSH2 0x1B6 DUP2 PUSH2 0x1A3 JUMP JUMPDEST DUP3 MSTORE POP POP JUMP JUMPDEST PUSH1 0x0 DUP2 ISZERO ISZERO SWAP1 POP SWAP2 SWAP1 POP JUMP JUMPDEST PUSH2 0x1D1 DUP2 PUSH2 0x1BC JUMP JUMPDEST DUP3 MSTORE POP POP JUMP JUMPDEST PUSH1 0x0 PUSH1 0x40 DUP3 ADD SWAP1 POP PUSH2 0x1EC PUSH1 0x0 DUP4 ADD DUP6 PUSH2 0x1AD JUMP JUMPDEST PUSH2 0x1F9 PUSH1 0x20 DUP4 ADD DUP5 PUSH2 0x1C8 JUMP JUMPDEST SWAP4 SWAP3 POP POP POP JUMP JUMPDEST PUSH1 0x0 DUP2 MLOAD SWAP1 POP SWAP2 SWAP1 POP JUMP JUMPDEST PUSH1 0x0 DUP3 DUP3 MSTORE PUSH1 0x20 DUP3 ADD SWAP1 POP SWAP3 SWAP2 POP POP JUMP JUMPDEST PUSH1 0x0 JUMPDEST DUP4 DUP2 LT ISZERO PUSH2 0x23A JUMPI DUP1 DUP3 ADD MLOAD DUP2 DUP5 ADD MSTORE PUSH1 0x20 DUP2 ADD SWAP1 POP PUSH2 0x21F JUMP JUMPDEST DUP4 DUP2 GT ISZERO PUSH2 0x249 JUMPI PUSH1 0x0 DUP5 DUP5 ADD MSTORE JUMPDEST POP POP POP POP JUMP JUMPDEST PUSH1 0x0 PUSH1 0x1F NOT PUSH1 0x1F DUP4 ADD AND SWAP1 POP SWAP2 SWAP1 POP JUMP JUMPDEST PUSH1 0x0 PUSH2 0x26B DUP3 PUSH2 0x200 JUMP JUMPDEST PUSH2 0x275 DUP2 DUP6 PUSH2 0x20B JUMP JUMPDEST SWAP4 POP PUSH2 0x285 DUP2 DUP6 PUSH1 0x20 DUP7 ADD PUSH2 0x21C JUMP JUMPDEST PUSH2 0x28E DUP2 PUSH2 0x24F JUMP JUMPDEST DUP5 ADD SWAP2 POP POP SWAP3 SWAP2 POP POP JUMP JUMPDEST PUSH1 0x0 PUSH1 0x60 DUP3 ADD SWAP1 POP PUSH2 0x2AE PUSH1 0x0 DUP4 ADD DUP7 PUSH2 0x1AD JUMP JUMPDEST PUSH2 0x2BB PUSH1 0x20 DUP4 ADD DUP6 PUSH2 0x1C8 JUMP JUMPDEST DUP2 DUP2 SUB PUSH1 0x40 DUP4 ADD MSTORE PUSH2 0x2CD DUP2 DUP5 PUSH2 0x260 JUMP JUMPDEST SWAP1 POP SWAP5 SWAP4 POP POP POP POP JUMP INVALID LOG2 PUSH5 0x6970667358 0x22 SLT KECCAK256 STOP 0xB6 0xF7 DUP5 BALANCE 0x4E PUSH20 0x6B007FB5CF7DAE020E466DA4928D650F43310D23 0xD 0xB4 0xBD CALLCODE SWAP12 PUSH5 0x736F6C6343 STOP ADDMOD 0xF STOP CALLER "
				},
				"gasEstimates": {
					"creation": {
						"codeDepositCost": "156200",
						"executionCost": "202",
						"totalCost": "156402"
					},
					"external": {
						"f1()": "501",
						"f2()": "infinite",
						"f3()": "479",
						"f4()": "605",
						"f5()": "517"
					}
				},
				"methodIdentifiers": {
					"f1()": "c27fc305",
					"f2()": "9942ec6f",
					"f3()": "aaf05f3d",
					"f4()": "c3f90202",
					"f5()": "3c9d377d"
				}
			},
			"storageLayout": {
				"storage": [],
				"types": null
			},
			"userdoc": {
				"kind": "user",
				"methods": {},
				"version": 1
			}
		}
	}
}