{
	"function.sol": {
		"Function": {
			"abi": [
				{
					"inputs": [],
					"name": "callExternal",
					"outputs": [
						{
							"internalType": "uint256",
							"name": "",
							"type": "uint256"
						}
					],
					"stateMutability": "pure",
					"type": "function"
				},
				{
					"inputs": [],
					"name": "callInternal",
					"outputs": [
						{
							"internalType": "bool",
							"name": "",
							"type": "bool"
						}
					],
					"stateMutability": "pure",
					"type": "function"
				}
			],
			"devdoc": {
				"kind": "dev",
				"methods": {},
				"version": 1
			},
			"evm": {
				"assembly": "    /* \"function.sol\":136:441  contract Function {\r... */\n  mstore(0x40, 0x80)\n  callvalue\n  dup1\n  iszero\n  tag_1\n  jumpi\n  0x00\n  dup1\n  revert\ntag_1:\n  pop\n  dataSize(sub_0)\n  dup1\n  dataOffset(sub_0)\n  0x00\n  codecopy\n  0x00\n  return\nstop\n\nsub_0: assembly {\n        /* \"function.sol\":136:441  contract Function {\r... */\n      mstore(0x40, 0x80)\n      callvalue\n      dup1\n      iszero\n      tag_1\n      jumpi\n      0x00\n      dup1\n      revert\n    tag_1:\n      pop\n      jumpi(tag_2, lt(calldatasize, 0x04))\n      shr(0xe0, calldataload(0x00))\n      dup1\n      0x5f431992\n      eq\n      tag_3\n      jumpi\n      dup1\n      0x8aa573c6\n      eq\n      tag_4\n      jumpi\n    tag_2:\n      0x00\n      dup1\n      revert\n        /* \"function.sol\":357:438  function callExternal() public pure returns (uint) {\r... */\n    tag_3:\n      tag_5\n      tag_6\n      jump\t// in\n    tag_5:\n      mload(0x40)\n      tag_7\n      swap2\n      swap1\n      tag_8\n      jump\t// in\n    tag_7:\n      mload(0x40)\n      dup1\n      swap2\n      sub\n      swap1\n      return\n        /* \"function.sol\":266:347  function callInternal() public pure returns (bool) {\r... */\n    tag_4:\n      tag_9\n      tag_10\n      jump\t// in\n    tag_9:\n      mload(0x40)\n      tag_11\n      swap2\n      swap1\n      tag_12\n      jump\t// in\n    tag_11:\n      mload(0x40)\n      dup1\n      swap2\n      sub\n      swap1\n      return\n        /* \"function.sol\":357:438  function callExternal() public pure returns (uint) {\r... */\n    tag_6:\n        /* \"function.sol\":402:406  uint */\n      0x00\n        /* \"function.sol\":426:430  f2() */\n      tag_14\n        /* \"function.sol\":426:428  f2 */\n      tag_15\n        /* \"function.sol\":426:430  f2() */\n      jump\t// in\n    tag_14:\n        /* \"function.sol\":419:430  return f2() */\n      swap1\n      pop\n        /* \"function.sol\":357:438  function callExternal() public pure returns (uint) {\r... */\n      swap1\n      jump\t// out\n        /* \"function.sol\":266:347  function callInternal() public pure returns (bool) {\r... */\n    tag_10:\n        /* \"function.sol\":311:315  bool */\n      0x00\n        /* \"function.sol\":335:339  f1() */\n      tag_17\n        /* \"function.sol\":335:337  f1 */\n      tag_18\n        /* \"function.sol\":335:339  f1() */\n      jump\t// in\n    tag_17:\n        /* \"function.sol\":328:339  return f1() */\n      swap1\n      pop\n        /* \"function.sol\":266:347  function callInternal() public pure returns (bool) {\r... */\n      swap1\n      jump\t// out\n        /* \"function.sol\":61:132  function f2() pure returns(uint) {\r... */\n    tag_15:\n        /* \"function.sol\":88:92  uint */\n      0x00\n        /* \"function.sol\":101:107  uint u */\n      dup1\n        /* \"function.sol\":110:113  120 */\n      0x78\n        /* \"function.sol\":101:113  uint u = 120 */\n      swap1\n      pop\n        /* \"function.sol\":127:128  u */\n      dup1\n        /* \"function.sol\":120:128  return u */\n      swap2\n      pop\n      pop\n        /* \"function.sol\":61:132  function f2() pure returns(uint) {\r... */\n      swap1\n      jump\t// out\n        /* \"function.sol\":163:256  function f1() internal pure returns(bool) {\r... */\n    tag_18:\n        /* \"function.sol\":199:203  bool */\n      0x00\n        /* \"function.sol\":216:222  bool b */\n      dup1\n        /* \"function.sol\":225:229  true */\n      0x01\n        /* \"function.sol\":216:229  bool b = true */\n      swap1\n      pop\n        /* \"function.sol\":247:248  b */\n      dup1\n        /* \"function.sol\":240:248  return b */\n      swap2\n      pop\n      pop\n        /* \"function.sol\":163:256  function f1() internal pure returns(bool) {\r... */\n      swap1\n      jump\t// out\n        /* \"#utility.yul\":7:116   */\n    tag_22:\n        /* \"#utility.yul\":88:109   */\n      tag_24\n        /* \"#utility.yul\":103:108   */\n      dup2\n        /* \"#utility.yul\":88:109   */\n      tag_25\n      jump\t// in\n    tag_24:\n        /* \"#utility.yul\":83:86   */\n      dup3\n        /* \"#utility.yul\":76:110   */\n      mstore\n        /* \"#utility.yul\":7:116   */\n      pop\n      pop\n      jump\t// out\n        /* \"#utility.yul\":122:240   */\n    tag_26:\n        /* \"#utility.yul\":209:233   */\n      tag_28\n        /* \"#utility.yul\":227:232   */\n      dup2\n        /* \"#utility.yul\":209:233   */\n      tag_29\n      jump\t// in\n    tag_28:\n        /* \"#utility.yul\":204:207   */\n      dup3\n        /* \"#utility.yul\":197:234   */\n      mstore\n        /* \"#utility.yul\":122:240   */\n      pop\n      pop\n      jump\t// out\n        /* \"#utility.yul\":246:456   */\n    tag_12:\n        /* \"#utility.yul\":333:337   */\n      0x00\n        /* \"#utility.yul\":371:373   */\n      0x20\n        /* \"#utility.yul\":360:369   */\n      dup3\n        /* \"#utility.yul\":356:374   */\n      add\n        /* \"#utility.yul\":348:374   */\n      swap1\n      pop\n        /* \"#utility.yul\":384:449   */\n      tag_31\n        /* \"#utility.yul\":446:447   */\n      0x00\n        /* \"#utility.yul\":435:444   */\n      dup4\n        /* \"#utility.yul\":431:448   */\n      add\n        /* \"#utility.yul\":422:428   */\n      dup5\n        /* \"#utility.yul\":384:449   */\n      tag_22\n      jump\t// in\n    tag_31:\n        /* \"#utility.yul\":246:456   */\n      swap3\n      swap2\n      pop\n      pop\n      jump\t// out\n        /* \"#utility.yul\":462:684   */\n    tag_8:\n        /* \"#utility.yul\":555:559   */\n      0x00\n        /* \"#utility.yul\":593:595   */\n      0x20\n        /* \"#utility.yul\":582:591   */\n      dup3\n        /* \"#utility.yul\":578:596   */\n      add\n        /* \"#utility.yul\":570:596   */\n      swap1\n      pop\n        /* \"#utility.yul\":606:677   */\n      tag_33\n        /* \"#utility.yul\":674:675   */\n      0x00\n        /* \"#utility.yul\":663:672   */\n      dup4\n        /* \"#utility.yul\":659:676   */\n      add\n        /* \"#utility.yul\":650:656   */\n      dup5\n        /* \"#utility.yul\":606:677   */\n      tag_26\n      jump\t// in\n    tag_33:\n        /* \"#utility.yul\":462:684   */\n      swap3\n      swap2\n      pop\n      pop\n      jump\t// out\n        /* \"#utility.yul\":690:780   */\n    tag_25:\n        /* \"#utility.yul\":724:731   */\n      0x00\n        /* \"#utility.yul\":767:772   */\n      dup2\n        /* \"#utility.yul\":760:773   */\n      iszero\n        /* \"#utility.yul\":753:774   */\n      iszero\n        /* \"#utility.yul\":742:774   */\n      swap1\n      pop\n        /* \"#utility.yul\":690:780   */\n      swap2\n      swap1\n      pop\n      jump\t// out\n        /* \"#utility.yul\":786:863   */\n    tag_29:\n        /* \"#utility.yul\":823:830   */\n      0x00\n        /* \"#utility.yul\":852:857   */\n      dup2\n        /* \"#utility.yul\":841:857   */\n      swap1\n      pop\n        /* \"#utility.yul\":786:863   */\n      swap2\n      swap1\n      pop\n      jump\t// out\n\n    auxdata: 0xa26469706673582212207beb0e3657f0893bb1d9aa8436fad79671f5134973602c802c81d054239a047e64736f6c63430008070033\n}\n",
				"bytecode": {
					"linkReferences": {},
					"object": "608060405234801561001057600080fd5b50610151806100206000396000f3fe608060405234801561001057600080fd5b50600436106100365760003560e01c80635f4319921461003b5780638aa573c614610059575b600080fd5b610043610077565b60405161005091906100ea565b60405180910390f35b610061610086565b60405161006e91906100cf565b60405180910390f35b6000610081610095565b905090565b60006100906100a3565b905090565b600080607890508091505090565b600080600190508091505090565b6100ba81610105565b82525050565b6100c981610111565b82525050565b60006020820190506100e460008301846100b1565b92915050565b60006020820190506100ff60008301846100c0565b92915050565b60008115159050919050565b600081905091905056fea26469706673582212207beb0e3657f0893bb1d9aa8436fad79671f5134973602c802c81d054239a047e64736f6c63430008070033",
					"opcodes": "PUSH1 0x80 PUSH1 0x40 MSTORE CALLVALUE DUP1 ISZERO PUSH2 0x10 JUMPI PUSH1 0x0 DUP1 REVERT JUMPDEST POP PUSH2 0x151 DUP1 PUSH2 0x20 PUSH1 0x0 CODECOPY PUSH1 0x0 RETURN INVALID PUSH1 0x80 PUSH1 0x40 MSTORE CALLVALUE DUP1 ISZERO PUSH2 0x10 JUMPI PUSH1 0x0 DUP1 REVERT JUMPDEST POP PUSH1 0x4 CALLDATASIZE LT PUSH2 0x36 JUMPI PUSH1 0x0 CALLDATALOAD PUSH1 0xE0 SHR DUP1 PUSH4 0x5F431992 EQ PUSH2 0x3B JUMPI DUP1 PUSH4 0x8AA573C6 EQ PUSH2 0x59 JUMPI JUMPDEST PUSH1 0x0 DUP1 REVERT JUMPDEST PUSH2 0x43 PUSH2 0x77 JUMP JUMPDEST PUSH1 0x40 MLOAD PUSH2 0x50 SWAP2 SWAP1 PUSH2 0xEA JUMP JUMPDEST PUSH1 0x40 MLOAD DUP1 SWAP2 SUB SWAP1 RETURN JUMPDEST PUSH2 0x61 PUSH2 0x86 JUMP JUMPDEST PUSH1 0x40 MLOAD PUSH2 0x6E SWAP2 SWAP1 PUSH2 0xCF JUMP JUMPDEST PUSH1 0x40 MLOAD DUP1 SWAP2 SUB SWAP1 RETURN JUMPDEST PUSH1 0x0 PUSH2 0x81 PUSH2 0x95 JUMP JUMPDEST SWAP1 POP SWAP1 JUMP JUMPDEST PUSH1 0x0 PUSH2 0x90 PUSH2 0xA3 JUMP JUMPDEST SWAP1 POP SWAP1 JUMP JUMPDEST PUSH1 0x0 DUP1 PUSH1 0x78 SWAP1 POP DUP1 SWAP2 POP POP SWAP1 JUMP JUMPDEST PUSH1 0x0 DUP1 PUSH1 0x1 SWAP1 POP DUP1 SWAP2 POP POP SWAP1 JUMP JUMPDEST PUSH2 0xBA DUP2 PUSH2 0x105 JUMP JUMPDEST DUP3 MSTORE POP POP JUMP JUMPDEST PUSH2 0xC9 DUP2 PUSH2 0x111 JUMP JUMPDEST DUP3 MSTORE POP POP JUMP JUMPDEST PUSH1 0x0 PUSH1 0x20 DUP3 ADD SWAP1 POP PUSH2 0xE4 PUSH1 0x0 DUP4 ADD DUP5 PUSH2 0xB1 JUMP JUMPDEST SWAP3 SWAP2 POP POP JUMP JUMPDEST PUSH1 0x0 PUSH1 0x20 DUP3 ADD SWAP1 POP PUSH2 0xFF PUSH1 0x0 DUP4 ADD DUP5 PUSH2 0xC0 JUMP JUMPDEST SWAP3 SWAP2 POP POP JUMP JUMPDEST PUSH1 0x0 DUP2 ISZERO ISZERO SWAP1 POP SWAP2 SWAP1 POP JUMP JUMPDEST PUSH1 0x0 DUP2 SWAP1 POP SWAP2 SWAP1 POP JUMP INVALID LOG2 PUSH5 0x6970667358 0x22 SLT KECCAK256 PUSH28 0xEB0E3657F0893BB1D9AA8436FAD79671F5134973602C802C81D05423 SWAP11 DIV PUSH31 0x64736F6C634300080700330000000000000000000000000000000000000000 "
				},
				"gasEstimates": {
					"creation": {
						"codeDepositCost": "67400",
						"executionCost": "117",
						"totalCost": "67517"
					},
					"external": {
						"callExternal()": "363",
						"callInternal()": "391"
					},
					"internal": {
						"f1()": "36"
					}
				},
				"methodIdentifiers": {
					"callExternal()": "5f431992",
					"callInternal()": "8aa573c6"
				}
			},
			"storageLayout": {
				"storage": [],
				"types": null
			},
			"userdoc": {
				"kind": "user",
				"methods": {},
				"version": 1
			}
		}
	}
}