{
	"login.sol": {
		"Login": {
			"abi": [
				{
					"inputs": [],
					"name": "getUserList",
					"outputs": [
						{
							"components": [
								{
									"internalType": "string",
									"name": "name",
									"type": "string"
								},
								{
									"internalType": "string",
									"name": "password",
									"type": "string"
								}
							],
							"internalType": "struct Login.User[]",
							"name": "",
							"type": "tuple[]"
						}
					],
					"stateMutability": "view",
					"type": "function"
				},
				{
					"inputs": [
						{
							"internalType": "string",
							"name": "_name",
							"type": "string"
						},
						{
							"internalType": "string",
							"name": "_password",
							"type": "string"
						}
					],
					"name": "reg",
					"outputs": [],
					"stateMutability": "nonpayable",
					"type": "function"
				},
				{
					"inputs": [
						{
							"internalType": "uint256",
							"name": "",
							"type": "uint256"
						}
					],
					"name": "userList",
					"outputs": [
						{
							"internalType": "string",
							"name": "name",
							"type": "string"
						},
						{
							"internalType": "string",
							"name": "password",
							"type": "string"
						}
					],
					"stateMutability": "view",
					"type": "function"
				}
			],
			"devdoc": {
				"kind": "dev",
				"methods": {},
				"version": 1
			},
			"evm": {
				"assembly": "    /* \"login.sol\":61:414  contract Login {\r... */\n  mstore(0x40, 0x80)\n  callvalue\n  dup1\n  iszero\n  tag_1\n  jumpi\n  0x00\n  dup1\n  revert\ntag_1:\n  pop\n  dataSize(sub_0)\n  dup1\n  dataOffset(sub_0)\n  0x00\n  codecopy\n  0x00\n  return\nstop\n\nsub_0: assembly {\n        /* \"login.sol\":61:414  contract Login {\r... */\n      mstore(0x40, 0x80)\n      callvalue\n      dup1\n      iszero\n      tag_1\n      jumpi\n      0x00\n      dup1\n      revert\n    tag_1:\n      pop\n      jumpi(tag_2, lt(calldatasize, 0x04))\n      shr(0xe0, calldataload(0x00))\n      dup1\n      0x73a4e4c3\n      eq\n      tag_3\n      jumpi\n      dup1\n      0x9f4216e8\n      eq\n      tag_4\n      jumpi\n      dup1\n      0xb8522043\n      eq\n      tag_5\n      jumpi\n    tag_2:\n      0x00\n      dup1\n      revert\n        /* \"login.sol\":190:311  function reg (string memory _name,string memory _password) public {\r... */\n    tag_3:\n      tag_6\n      0x04\n      dup1\n      calldatasize\n      sub\n      dup2\n      add\n      swap1\n      tag_7\n      swap2\n      swap1\n      tag_8\n      jump\t// in\n    tag_7:\n      tag_9\n      jump\t// in\n    tag_6:\n      stop\n        /* \"login.sol\":159:181  User[] public userList */\n    tag_4:\n      tag_10\n      0x04\n      dup1\n      calldatasize\n      sub\n      dup2\n      add\n      swap1\n      tag_11\n      swap2\n      swap1\n      tag_12\n      jump\t// in\n    tag_11:\n      tag_13\n      jump\t// in\n    tag_10:\n      mload(0x40)\n      tag_14\n      swap3\n      swap2\n      swap1\n      tag_15\n      jump\t// in\n    tag_14:\n      mload(0x40)\n      dup1\n      swap2\n      sub\n      swap1\n      return\n        /* \"login.sol\":319:411  function getUserList() public view returns (User[] memory){\r... */\n    tag_5:\n      tag_16\n      tag_17\n      jump\t// in\n    tag_16:\n      mload(0x40)\n      tag_18\n      swap2\n      swap1\n      tag_19\n      jump\t// in\n    tag_18:\n      mload(0x40)\n      dup1\n      swap2\n      sub\n      swap1\n      return\n        /* \"login.sol\":190:311  function reg (string memory _name,string memory _password) public {\r... */\n    tag_9:\n        /* \"login.sol\":267:275  userList */\n      0x00\n        /* \"login.sol\":281:302  User(_name,_password) */\n      mload(0x40)\n      dup1\n      0x40\n      add\n      0x40\n      mstore\n      dup1\n        /* \"login.sol\":286:291  _name */\n      dup5\n        /* \"login.sol\":281:302  User(_name,_password) */\n      dup2\n      mstore\n      0x20\n      add\n        /* \"login.sol\":292:301  _password */\n      dup4\n        /* \"login.sol\":281:302  User(_name,_password) */\n      dup2\n      mstore\n      pop\n        /* \"login.sol\":267:303  userList.push(User(_name,_password)) */\n      swap1\n      dup1\n      0x01\n      dup2\n      sload\n      add\n      dup1\n      dup3\n      sstore\n      dup1\n      swap2\n      pop\n      pop\n      0x01\n      swap1\n      sub\n      swap1\n      0x00\n      mstore\n      keccak256(0x00, 0x20)\n      swap1\n      0x02\n      mul\n      add\n      0x00\n      swap1\n      swap2\n      swap1\n      swap2\n      swap1\n      swap2\n      pop\n      0x00\n      dup3\n      add\n      mload\n      dup2\n      0x00\n      add\n      swap1\n      dup1\n      mload\n      swap1\n      0x20\n      add\n      swap1\n      tag_22\n      swap3\n      swap2\n      swap1\n      tag_23\n      jump\t// in\n    tag_22:\n      pop\n      0x20\n      dup3\n      add\n      mload\n      dup2\n      0x01\n      add\n      swap1\n      dup1\n      mload\n      swap1\n      0x20\n      add\n      swap1\n      tag_24\n      swap3\n      swap2\n      swap1\n      tag_23\n      jump\t// in\n    tag_24:\n      pop\n      pop\n      pop\n        /* \"login.sol\":190:311  function reg (string memory _name,string memory _password) public {\r... */\n      pop\n      pop\n      jump\t// out\n        /* \"login.sol\":159:181  User[] public userList */\n    tag_13:\n      0x00\n      dup2\n      dup2\n      sload\n      dup2\n      lt\n      tag_25\n      jumpi\n      0x00\n      dup1\n      revert\n    tag_25:\n      swap1\n      0x00\n      mstore\n      keccak256(0x00, 0x20)\n      swap1\n      0x02\n      mul\n      add\n      0x00\n      swap2\n      pop\n      swap1\n      pop\n      dup1\n      0x00\n      add\n      dup1\n      sload\n      tag_27\n      swap1\n      tag_28\n      jump\t// in\n    tag_27:\n      dup1\n      0x1f\n      add\n      0x20\n      dup1\n      swap2\n      div\n      mul\n      0x20\n      add\n      mload(0x40)\n      swap1\n      dup2\n      add\n      0x40\n      mstore\n      dup1\n      swap3\n      swap2\n      swap1\n      dup2\n      dup2\n      mstore\n      0x20\n      add\n      dup3\n      dup1\n      sload\n      tag_29\n      swap1\n      tag_28\n      jump\t// in\n    tag_29:\n      dup1\n      iszero\n      tag_30\n      jumpi\n      dup1\n      0x1f\n      lt\n      tag_31\n      jumpi\n      0x0100\n      dup1\n      dup4\n      sload\n      div\n      mul\n      dup4\n      mstore\n      swap2\n      0x20\n      add\n      swap2\n      jump(tag_30)\n    tag_31:\n      dup3\n      add\n      swap2\n      swap1\n      0x00\n      mstore\n      keccak256(0x00, 0x20)\n      swap1\n    tag_32:\n      dup2\n      sload\n      dup2\n      mstore\n      swap1\n      0x01\n      add\n      swap1\n      0x20\n      add\n      dup1\n      dup4\n      gt\n      tag_32\n      jumpi\n      dup3\n      swap1\n      sub\n      0x1f\n      and\n      dup3\n      add\n      swap2\n    tag_30:\n      pop\n      pop\n      pop\n      pop\n      pop\n      swap1\n      dup1\n      0x01\n      add\n      dup1\n      sload\n      tag_33\n      swap1\n      tag_28\n      jump\t// in\n    tag_33:\n      dup1\n      0x1f\n      add\n      0x20\n      dup1\n      swap2\n      div\n      mul\n      0x20\n      add\n      mload(0x40)\n      swap1\n      dup2\n      add\n      0x40\n      mstore\n      dup1\n      swap3\n      swap2\n      swap1\n      dup2\n      dup2\n      mstore\n      0x20\n      add\n      dup3\n      dup1\n      sload\n      tag_34\n      swap1\n      tag_28\n      jump\t// in\n    tag_34:\n      dup1\n      iszero\n      tag_35\n      jumpi\n      dup1\n      0x1f\n      lt\n      tag_36\n      jumpi\n      0x0100\n      dup1\n      dup4\n      sload\n      div\n      mul\n      dup4\n      mstore\n      swap2\n      0x20\n      add\n      swap2\n      jump(tag_35)\n    tag_36:\n      dup3\n      add\n      swap2\n      swap1\n      0x00\n      mstore\n      keccak256(0x00, 0x20)\n      swap1\n    tag_37:\n      dup2\n      sload\n      dup2\n      mstore\n      swap1\n      0x01\n      add\n      swap1\n      0x20\n      add\n      dup1\n      dup4\n      gt\n      tag_37\n      jumpi\n      dup3\n      swap1\n      sub\n      0x1f\n      and\n      dup3\n      add\n      swap2\n    tag_35:\n      pop\n      pop\n      pop\n      pop\n      pop\n      swap1\n      pop\n      dup3\n      jump\t// out\n        /* \"login.sol\":319:411  function getUserList() public view returns (User[] memory){\r... */\n    tag_17:\n        /* \"login.sol\":363:376  User[] memory */\n      0x60\n        /* \"login.sol\":395:403  userList */\n      0x00\n        /* \"login.sol\":388:403  return userList */\n      dup1\n      sload\n      dup1\n      0x20\n      mul\n      0x20\n      add\n      mload(0x40)\n      swap1\n      dup2\n      add\n      0x40\n      mstore\n      dup1\n      swap3\n      swap2\n      swap1\n      dup2\n      dup2\n      mstore\n      0x20\n      add\n      0x00\n      swap1\n    tag_39:\n      dup3\n      dup3\n      lt\n      iszero\n      tag_40\n      jumpi\n      dup4\n      dup3\n      swap1\n      0x00\n      mstore\n      keccak256(0x00, 0x20)\n      swap1\n      0x02\n      mul\n      add\n      mload(0x40)\n      dup1\n      0x40\n      add\n      0x40\n      mstore\n      swap1\n      dup2\n      0x00\n      dup3\n      add\n      dup1\n      sload\n      tag_42\n      swap1\n      tag_28\n      jump\t// in\n    tag_42:\n      dup1\n      0x1f\n      add\n      0x20\n      dup1\n      swap2\n      div\n      mul\n      0x20\n      add\n      mload(0x40)\n      swap1\n      dup2\n      add\n      0x40\n      mstore\n      dup1\n      swap3\n      swap2\n      swap1\n      dup2\n      dup2\n      mstore\n      0x20\n      add\n      dup3\n      dup1\n      sload\n      tag_43\n      swap1\n      tag_28\n      jump\t// in\n    tag_43:\n      dup1\n      iszero\n      tag_44\n      jumpi\n      dup1\n      0x1f\n      lt\n      tag_45\n      jumpi\n      0x0100\n      dup1\n      dup4\n      sload\n      div\n      mul\n      dup4\n      mstore\n      swap2\n      0x20\n      add\n      swap2\n      jump(tag_44)\n    tag_45:\n      dup3\n      add\n      swap2\n      swap1\n      0x00\n      mstore\n      keccak256(0x00, 0x20)\n      swap1\n    tag_46:\n      dup2\n      sload\n      dup2\n      mstore\n      swap1\n      0x01\n      add\n      swap1\n      0x20\n      add\n      dup1\n      dup4\n      gt\n      tag_46\n      jumpi\n      dup3\n      swap1\n      sub\n      0x1f\n      and\n      dup3\n      add\n      swap2\n    tag_44:\n      pop\n      pop\n      pop\n      pop\n      pop\n      dup2\n      mstore\n      0x20\n      add\n      0x01\n      dup3\n      add\n      dup1\n      sload\n      tag_47\n      swap1\n      tag_28\n      jump\t// in\n    tag_47:\n      dup1\n      0x1f\n      add\n      0x20\n      dup1\n      swap2\n      div\n      mul\n      0x20\n      add\n      mload(0x40)\n      swap1\n      dup2\n      add\n      0x40\n      mstore\n      dup1\n      swap3\n      swap2\n      swap1\n      dup2\n      dup2\n      mstore\n      0x20\n      add\n      dup3\n      dup1\n      sload\n      tag_48\n      swap1\n      tag_28\n      jump\t// in\n    tag_48:\n      dup1\n      iszero\n      tag_49\n      jumpi\n      dup1\n      0x1f\n      lt\n      tag_50\n      jumpi\n      0x0100\n      dup1\n      dup4\n      sload\n      div\n      mul\n      dup4\n      mstore\n      swap2\n      0x20\n      add\n      swap2\n      jump(tag_49)\n    tag_50:\n      dup3\n      add\n      swap2\n      swap1\n      0x00\n      mstore\n      keccak256(0x00, 0x20)\n      swap1\n    tag_51:\n      dup2\n      sload\n      dup2\n      mstore\n      swap1\n      0x01\n      add\n      swap1\n      0x20\n      add\n      dup1\n      dup4\n      gt\n      tag_51\n      jumpi\n      dup3\n      swap1\n      sub\n      0x1f\n      and\n      dup3\n      add\n      swap2\n    tag_49:\n      pop\n      pop\n      pop\n      pop\n      pop\n      dup2\n      mstore\n      pop\n      pop\n      dup2\n      mstore\n      0x20\n      add\n      swap1\n      0x01\n      add\n      swap1\n      jump(tag_39)\n    tag_40:\n      pop\n      pop\n      pop\n      pop\n      swap1\n      pop\n        /* \"login.sol\":319:411  function getUserList() public view returns (User[] memory){\r... */\n      swap1\n      jump\t// out\n    tag_23:\n      dup3\n      dup1\n      sload\n      tag_52\n      swap1\n      tag_28\n      jump\t// in\n    tag_52:\n      swap1\n      0x00\n      mstore\n      keccak256(0x00, 0x20)\n      swap1\n      0x1f\n      add\n      0x20\n      swap1\n      div\n      dup2\n      add\n      swap3\n      dup3\n      tag_54\n      jumpi\n      0x00\n      dup6\n      sstore\n      jump(tag_53)\n    tag_54:\n      dup3\n      0x1f\n      lt\n      tag_55\n      jumpi\n      dup1\n      mload\n      not(0xff)\n      and\n      dup4\n      dup1\n      add\n      or\n      dup6\n      sstore\n      jump(tag_53)\n    tag_55:\n      dup3\n      dup1\n      add\n      0x01\n      add\n      dup6\n      sstore\n      dup3\n      iszero\n      tag_53\n      jumpi\n      swap2\n      dup3\n      add\n    tag_56:\n      dup3\n      dup2\n      gt\n      iszero\n      tag_57\n      jumpi\n      dup3\n      mload\n      dup3\n      sstore\n      swap2\n      0x20\n      add\n      swap2\n      swap1\n      0x01\n      add\n      swap1\n      jump(tag_56)\n    tag_57:\n    tag_53:\n      pop\n      swap1\n      pop\n      tag_58\n      swap2\n      swap1\n      tag_59\n      jump\t// in\n    tag_58:\n      pop\n      swap1\n      jump\t// out\n    tag_59:\n    tag_60:\n      dup1\n      dup3\n      gt\n      iszero\n      tag_61\n      jumpi\n      0x00\n      dup2\n      0x00\n      swap1\n      sstore\n      pop\n      0x01\n      add\n      jump(tag_60)\n    tag_61:\n      pop\n      swap1\n      jump\t// out\n        /* \"#utility.yul\":7:419   */\n    tag_63:\n        /* \"#utility.yul\":85:90   */\n      0x00\n        /* \"#utility.yul\":110:176   */\n      tag_65\n        /* \"#utility.yul\":126:175   */\n      tag_66\n        /* \"#utility.yul\":168:174   */\n      dup5\n        /* \"#utility.yul\":126:175   */\n      tag_67\n      jump\t// in\n    tag_66:\n        /* \"#utility.yul\":110:176   */\n      tag_68\n      jump\t// in\n    tag_65:\n        /* \"#utility.yul\":101:176   */\n      swap1\n      pop\n        /* \"#utility.yul\":199:205   */\n      dup3\n        /* \"#utility.yul\":192:197   */\n      dup2\n        /* \"#utility.yul\":185:206   */\n      mstore\n        /* \"#utility.yul\":237:241   */\n      0x20\n        /* \"#utility.yul\":230:235   */\n      dup2\n        /* \"#utility.yul\":226:242   */\n      add\n        /* \"#utility.yul\":275:278   */\n      dup5\n        /* \"#utility.yul\":266:272   */\n      dup5\n        /* \"#utility.yul\":261:264   */\n      dup5\n        /* \"#utility.yul\":257:273   */\n      add\n        /* \"#utility.yul\":254:279   */\n      gt\n        /* \"#utility.yul\":251:363   */\n      iszero\n      tag_69\n      jumpi\n        /* \"#utility.yul\":282:361   */\n      tag_70\n      tag_71\n      jump\t// in\n    tag_70:\n        /* \"#utility.yul\":251:363   */\n    tag_69:\n        /* \"#utility.yul\":372:413   */\n      tag_72\n        /* \"#utility.yul\":406:412   */\n      dup5\n        /* \"#utility.yul\":401:404   */\n      dup3\n        /* \"#utility.yul\":396:399   */\n      dup6\n        /* \"#utility.yul\":372:413   */\n      tag_73\n      jump\t// in\n    tag_72:\n        /* \"#utility.yul\":91:419   */\n      pop\n        /* \"#utility.yul\":7:419   */\n      swap4\n      swap3\n      pop\n      pop\n      pop\n      jump\t// out\n        /* \"#utility.yul\":439:779   */\n    tag_74:\n        /* \"#utility.yul\":495:500   */\n      0x00\n        /* \"#utility.yul\":544:547   */\n      dup3\n        /* \"#utility.yul\":537:541   */\n      0x1f\n        /* \"#utility.yul\":529:535   */\n      dup4\n        /* \"#utility.yul\":525:542   */\n      add\n        /* \"#utility.yul\":521:548   */\n      slt\n        /* \"#utility.yul\":511:633   */\n      tag_76\n      jumpi\n        /* \"#utility.yul\":552:631   */\n      tag_77\n      tag_78\n      jump\t// in\n    tag_77:\n        /* \"#utility.yul\":511:633   */\n    tag_76:\n        /* \"#utility.yul\":669:675   */\n      dup2\n        /* \"#utility.yul\":656:676   */\n      calldataload\n        /* \"#utility.yul\":694:773   */\n      tag_79\n        /* \"#utility.yul\":769:772   */\n      dup5\n        /* \"#utility.yul\":761:767   */\n      dup3\n        /* \"#utility.yul\":754:758   */\n      0x20\n        /* \"#utility.yul\":746:752   */\n      dup7\n        /* \"#utility.yul\":742:759   */\n      add\n        /* \"#utility.yul\":694:773   */\n      tag_63\n      jump\t// in\n    tag_79:\n        /* \"#utility.yul\":685:773   */\n      swap2\n      pop\n        /* \"#utility.yul\":501:779   */\n      pop\n        /* \"#utility.yul\":439:779   */\n      swap3\n      swap2\n      pop\n      pop\n      jump\t// out\n        /* \"#utility.yul\":785:924   */\n    tag_80:\n        /* \"#utility.yul\":831:836   */\n      0x00\n        /* \"#utility.yul\":869:875   */\n      dup2\n        /* \"#utility.yul\":856:876   */\n      calldataload\n        /* \"#utility.yul\":847:876   */\n      swap1\n      pop\n        /* \"#utility.yul\":885:918   */\n      tag_82\n        /* \"#utility.yul\":912:917   */\n      dup2\n        /* \"#utility.yul\":885:918   */\n      tag_83\n      jump\t// in\n    tag_82:\n        /* \"#utility.yul\":785:924   */\n      swap3\n      swap2\n      pop\n      pop\n      jump\t// out\n        /* \"#utility.yul\":930:1764   */\n    tag_8:\n        /* \"#utility.yul\":1018:1024   */\n      0x00\n        /* \"#utility.yul\":1026:1032   */\n      dup1\n        /* \"#utility.yul\":1075:1077   */\n      0x40\n        /* \"#utility.yul\":1063:1072   */\n      dup4\n        /* \"#utility.yul\":1054:1061   */\n      dup6\n        /* \"#utility.yul\":1050:1073   */\n      sub\n        /* \"#utility.yul\":1046:1078   */\n      slt\n        /* \"#utility.yul\":1043:1162   */\n      iszero\n      tag_85\n      jumpi\n        /* \"#utility.yul\":1081:1160   */\n      tag_86\n      tag_87\n      jump\t// in\n    tag_86:\n        /* \"#utility.yul\":1043:1162   */\n    tag_85:\n        /* \"#utility.yul\":1229:1230   */\n      0x00\n        /* \"#utility.yul\":1218:1227   */\n      dup4\n        /* \"#utility.yul\":1214:1231   */\n      add\n        /* \"#utility.yul\":1201:1232   */\n      calldataload\n        /* \"#utility.yul\":1259:1277   */\n      0xffffffffffffffff\n        /* \"#utility.yul\":1251:1257   */\n      dup2\n        /* \"#utility.yul\":1248:1278   */\n      gt\n        /* \"#utility.yul\":1245:1362   */\n      iszero\n      tag_88\n      jumpi\n        /* \"#utility.yul\":1281:1360   */\n      tag_89\n      tag_90\n      jump\t// in\n    tag_89:\n        /* \"#utility.yul\":1245:1362   */\n    tag_88:\n        /* \"#utility.yul\":1386:1449   */\n      tag_91\n        /* \"#utility.yul\":1441:1448   */\n      dup6\n        /* \"#utility.yul\":1432:1438   */\n      dup3\n        /* \"#utility.yul\":1421:1430   */\n      dup7\n        /* \"#utility.yul\":1417:1439   */\n      add\n        /* \"#utility.yul\":1386:1449   */\n      tag_74\n      jump\t// in\n    tag_91:\n        /* \"#utility.yul\":1376:1449   */\n      swap3\n      pop\n        /* \"#utility.yul\":1172:1459   */\n      pop\n        /* \"#utility.yul\":1526:1528   */\n      0x20\n        /* \"#utility.yul\":1515:1524   */\n      dup4\n        /* \"#utility.yul\":1511:1529   */\n      add\n        /* \"#utility.yul\":1498:1530   */\n      calldataload\n        /* \"#utility.yul\":1557:1575   */\n      0xffffffffffffffff\n        /* \"#utility.yul\":1549:1555   */\n      dup2\n        /* \"#utility.yul\":1546:1576   */\n      gt\n        /* \"#utility.yul\":1543:1660   */\n      iszero\n      tag_92\n      jumpi\n        /* \"#utility.yul\":1579:1658   */\n      tag_93\n      tag_90\n      jump\t// in\n    tag_93:\n        /* \"#utility.yul\":1543:1660   */\n    tag_92:\n        /* \"#utility.yul\":1684:1747   */\n      tag_94\n        /* \"#utility.yul\":1739:1746   */\n      dup6\n        /* \"#utility.yul\":1730:1736   */\n      dup3\n        /* \"#utility.yul\":1719:1728   */\n      dup7\n        /* \"#utility.yul\":1715:1737   */\n      add\n        /* \"#utility.yul\":1684:1747   */\n      tag_74\n      jump\t// in\n    tag_94:\n        /* \"#utility.yul\":1674:1747   */\n      swap2\n      pop\n        /* \"#utility.yul\":1469:1757   */\n      pop\n        /* \"#utility.yul\":930:1764   */\n      swap3\n      pop\n      swap3\n      swap1\n      pop\n      jump\t// out\n        /* \"#utility.yul\":1770:2099   */\n    tag_12:\n        /* \"#utility.yul\":1829:1835   */\n      0x00\n        /* \"#utility.yul\":1878:1880   */\n      0x20\n        /* \"#utility.yul\":1866:1875   */\n      dup3\n        /* \"#utility.yul\":1857:1864   */\n      dup5\n        /* \"#utility.yul\":1853:1876   */\n      sub\n        /* \"#utility.yul\":1849:1881   */\n      slt\n        /* \"#utility.yul\":1846:1965   */\n      iszero\n      tag_96\n      jumpi\n        /* \"#utility.yul\":1884:1963   */\n      tag_97\n      tag_87\n      jump\t// in\n    tag_97:\n        /* \"#utility.yul\":1846:1965   */\n    tag_96:\n        /* \"#utility.yul\":2004:2005   */\n      0x00\n        /* \"#utility.yul\":2029:2082   */\n      tag_98\n        /* \"#utility.yul\":2074:2081   */\n      dup5\n        /* \"#utility.yul\":2065:2071   */\n      dup3\n        /* \"#utility.yul\":2054:2063   */\n      dup6\n        /* \"#utility.yul\":2050:2072   */\n      add\n        /* \"#utility.yul\":2029:2082   */\n      tag_80\n      jump\t// in\n    tag_98:\n        /* \"#utility.yul\":2019:2082   */\n      swap2\n      pop\n        /* \"#utility.yul\":1975:2092   */\n      pop\n        /* \"#utility.yul\":1770:2099   */\n      swap3\n      swap2\n      pop\n      pop\n      jump\t// out\n        /* \"#utility.yul\":2105:2337   */\n    tag_99:\n        /* \"#utility.yul\":2212:2222   */\n      0x00\n        /* \"#utility.yul\":2247:2331   */\n      tag_101\n        /* \"#utility.yul\":2327:2330   */\n      dup4\n        /* \"#utility.yul\":2319:2325   */\n      dup4\n        /* \"#utility.yul\":2247:2331   */\n      tag_102\n      jump\t// in\n    tag_101:\n        /* \"#utility.yul\":2233:2331   */\n      swap1\n      pop\n        /* \"#utility.yul\":2105:2337   */\n      swap3\n      swap2\n      pop\n      pop\n      jump\t// out\n        /* \"#utility.yul\":2393:3456   */\n    tag_103:\n        /* \"#utility.yul\":2550:2553   */\n      0x00\n        /* \"#utility.yul\":2579:2652   */\n      tag_105\n        /* \"#utility.yul\":2646:2651   */\n      dup3\n        /* \"#utility.yul\":2579:2652   */\n      tag_106\n      jump\t// in\n    tag_105:\n        /* \"#utility.yul\":2668:2773   */\n      tag_107\n        /* \"#utility.yul\":2766:2772   */\n      dup2\n        /* \"#utility.yul\":2761:2764   */\n      dup6\n        /* \"#utility.yul\":2668:2773   */\n      tag_108\n      jump\t// in\n    tag_107:\n        /* \"#utility.yul\":2661:2773   */\n      swap4\n      pop\n        /* \"#utility.yul\":2799:2802   */\n      dup4\n        /* \"#utility.yul\":2844:2848   */\n      0x20\n        /* \"#utility.yul\":2836:2842   */\n      dup3\n        /* \"#utility.yul\":2832:2849   */\n      mul\n        /* \"#utility.yul\":2827:2830   */\n      dup6\n        /* \"#utility.yul\":2823:2850   */\n      add\n        /* \"#utility.yul\":2874:2949   */\n      tag_109\n        /* \"#utility.yul\":2943:2948   */\n      dup6\n        /* \"#utility.yul\":2874:2949   */\n      tag_110\n      jump\t// in\n    tag_109:\n        /* \"#utility.yul\":2972:2979   */\n      dup1\n        /* \"#utility.yul\":3003:3004   */\n      0x00\n        /* \"#utility.yul\":2988:3411   */\n    tag_111:\n        /* \"#utility.yul\":3013:3019   */\n      dup6\n        /* \"#utility.yul\":3010:3011   */\n      dup2\n        /* \"#utility.yul\":3007:3020   */\n      lt\n        /* \"#utility.yul\":2988:3411   */\n      iszero\n      tag_113\n      jumpi\n        /* \"#utility.yul\":3084:3093   */\n      dup5\n        /* \"#utility.yul\":3078:3082   */\n      dup5\n        /* \"#utility.yul\":3074:3094   */\n      sub\n        /* \"#utility.yul\":3069:3072   */\n      dup10\n        /* \"#utility.yul\":3062:3095   */\n      mstore\n        /* \"#utility.yul\":3135:3141   */\n      dup2\n        /* \"#utility.yul\":3129:3142   */\n      mload\n        /* \"#utility.yul\":3163:3265   */\n      tag_114\n        /* \"#utility.yul\":3260:3264   */\n      dup6\n        /* \"#utility.yul\":3245:3258   */\n      dup3\n        /* \"#utility.yul\":3163:3265   */\n      tag_99\n      jump\t// in\n    tag_114:\n        /* \"#utility.yul\":3155:3265   */\n      swap5\n      pop\n        /* \"#utility.yul\":3288:3367   */\n      tag_115\n        /* \"#utility.yul\":3360:3366   */\n      dup4\n        /* \"#utility.yul\":3288:3367   */\n      tag_116\n      jump\t// in\n    tag_115:\n        /* \"#utility.yul\":3278:3367   */\n      swap3\n      pop\n        /* \"#utility.yul\":3396:3400   */\n      0x20\n        /* \"#utility.yul\":3391:3394   */\n      dup11\n        /* \"#utility.yul\":3387:3401   */\n      add\n        /* \"#utility.yul\":3380:3401   */\n      swap10\n      pop\n        /* \"#utility.yul\":3048:3411   */\n      pop\n        /* \"#utility.yul\":3035:3036   */\n      0x01\n        /* \"#utility.yul\":3032:3033   */\n      dup2\n        /* \"#utility.yul\":3028:3037   */\n      add\n        /* \"#utility.yul\":3023:3037   */\n      swap1\n      pop\n        /* \"#utility.yul\":2988:3411   */\n      jump(tag_111)\n    tag_113:\n        /* \"#utility.yul\":2992:3006   */\n      pop\n        /* \"#utility.yul\":3427:3431   */\n      dup3\n        /* \"#utility.yul\":3420:3431   */\n      swap8\n      pop\n        /* \"#utility.yul\":3447:3450   */\n      dup8\n        /* \"#utility.yul\":3440:3450   */\n      swap6\n      pop\n        /* \"#utility.yul\":2555:3456   */\n      pop\n      pop\n      pop\n      pop\n      pop\n        /* \"#utility.yul\":2393:3456   */\n      swap3\n      swap2\n      pop\n      pop\n      jump\t// out\n        /* \"#utility.yul\":3462:3806   */\n    tag_117:\n        /* \"#utility.yul\":3540:3543   */\n      0x00\n        /* \"#utility.yul\":3568:3607   */\n      tag_119\n        /* \"#utility.yul\":3601:3606   */\n      dup3\n        /* \"#utility.yul\":3568:3607   */\n      tag_120\n      jump\t// in\n    tag_119:\n        /* \"#utility.yul\":3623:3684   */\n      tag_121\n        /* \"#utility.yul\":3677:3683   */\n      dup2\n        /* \"#utility.yul\":3672:3675   */\n      dup6\n        /* \"#utility.yul\":3623:3684   */\n      tag_122\n      jump\t// in\n    tag_121:\n        /* \"#utility.yul\":3616:3684   */\n      swap4\n      pop\n        /* \"#utility.yul\":3693:3745   */\n      tag_123\n        /* \"#utility.yul\":3738:3744   */\n      dup2\n        /* \"#utility.yul\":3733:3736   */\n      dup6\n        /* \"#utility.yul\":3726:3730   */\n      0x20\n        /* \"#utility.yul\":3719:3724   */\n      dup7\n        /* \"#utility.yul\":3715:3731   */\n      add\n        /* \"#utility.yul\":3693:3745   */\n      tag_124\n      jump\t// in\n    tag_123:\n        /* \"#utility.yul\":3770:3799   */\n      tag_125\n        /* \"#utility.yul\":3792:3798   */\n      dup2\n        /* \"#utility.yul\":3770:3799   */\n      tag_126\n      jump\t// in\n    tag_125:\n        /* \"#utility.yul\":3765:3768   */\n      dup5\n        /* \"#utility.yul\":3761:3800   */\n      add\n        /* \"#utility.yul\":3754:3800   */\n      swap2\n      pop\n        /* \"#utility.yul\":3544:3806   */\n      pop\n        /* \"#utility.yul\":3462:3806   */\n      swap3\n      swap2\n      pop\n      pop\n      jump\t// out\n        /* \"#utility.yul\":3812:4176   */\n    tag_127:\n        /* \"#utility.yul\":3900:3903   */\n      0x00\n        /* \"#utility.yul\":3928:3967   */\n      tag_129\n        /* \"#utility.yul\":3961:3966   */\n      dup3\n        /* \"#utility.yul\":3928:3967   */\n      tag_120\n      jump\t// in\n    tag_129:\n        /* \"#utility.yul\":3983:4054   */\n      tag_130\n        /* \"#utility.yul\":4047:4053   */\n      dup2\n        /* \"#utility.yul\":4042:4045   */\n      dup6\n        /* \"#utility.yul\":3983:4054   */\n      tag_131\n      jump\t// in\n    tag_130:\n        /* \"#utility.yul\":3976:4054   */\n      swap4\n      pop\n        /* \"#utility.yul\":4063:4115   */\n      tag_132\n        /* \"#utility.yul\":4108:4114   */\n      dup2\n        /* \"#utility.yul\":4103:4106   */\n      dup6\n        /* \"#utility.yul\":4096:4100   */\n      0x20\n        /* \"#utility.yul\":4089:4094   */\n      dup7\n        /* \"#utility.yul\":4085:4101   */\n      add\n        /* \"#utility.yul\":4063:4115   */\n      tag_124\n      jump\t// in\n    tag_132:\n        /* \"#utility.yul\":4140:4169   */\n      tag_133\n        /* \"#utility.yul\":4162:4168   */\n      dup2\n        /* \"#utility.yul\":4140:4169   */\n      tag_126\n      jump\t// in\n    tag_133:\n        /* \"#utility.yul\":4135:4138   */\n      dup5\n        /* \"#utility.yul\":4131:4170   */\n      add\n        /* \"#utility.yul\":4124:4170   */\n      swap2\n      pop\n        /* \"#utility.yul\":3904:4176   */\n      pop\n        /* \"#utility.yul\":3812:4176   */\n      swap3\n      swap2\n      pop\n      pop\n      jump\t// out\n        /* \"#utility.yul\":4228:4887   */\n    tag_102:\n        /* \"#utility.yul\":4325:4328   */\n      0x00\n        /* \"#utility.yul\":4361:4365   */\n      0x40\n        /* \"#utility.yul\":4356:4359   */\n      dup4\n        /* \"#utility.yul\":4352:4366   */\n      add\n        /* \"#utility.yul\":4448:4452   */\n      0x00\n        /* \"#utility.yul\":4441:4446   */\n      dup4\n        /* \"#utility.yul\":4437:4453   */\n      add\n        /* \"#utility.yul\":4431:4454   */\n      mload\n        /* \"#utility.yul\":4501:4504   */\n      dup5\n        /* \"#utility.yul\":4495:4499   */\n      dup3\n        /* \"#utility.yul\":4491:4505   */\n      sub\n        /* \"#utility.yul\":4484:4488   */\n      0x00\n        /* \"#utility.yul\":4479:4482   */\n      dup7\n        /* \"#utility.yul\":4475:4489   */\n      add\n        /* \"#utility.yul\":4468:4506   */\n      mstore\n        /* \"#utility.yul\":4527:4600   */\n      tag_135\n        /* \"#utility.yul\":4595:4599   */\n      dup3\n        /* \"#utility.yul\":4581:4593   */\n      dup3\n        /* \"#utility.yul\":4527:4600   */\n      tag_117\n      jump\t// in\n    tag_135:\n        /* \"#utility.yul\":4519:4600   */\n      swap2\n      pop\n        /* \"#utility.yul\":4376:4611   */\n      pop\n        /* \"#utility.yul\":4697:4701   */\n      0x20\n        /* \"#utility.yul\":4690:4695   */\n      dup4\n        /* \"#utility.yul\":4686:4702   */\n      add\n        /* \"#utility.yul\":4680:4703   */\n      mload\n        /* \"#utility.yul\":4750:4753   */\n      dup5\n        /* \"#utility.yul\":4744:4748   */\n      dup3\n        /* \"#utility.yul\":4740:4754   */\n      sub\n        /* \"#utility.yul\":4733:4737   */\n      0x20\n        /* \"#utility.yul\":4728:4731   */\n      dup7\n        /* \"#utility.yul\":4724:4738   */\n      add\n        /* \"#utility.yul\":4717:4755   */\n      mstore\n        /* \"#utility.yul\":4776:4849   */\n      tag_136\n        /* \"#utility.yul\":4844:4848   */\n      dup3\n        /* \"#utility.yul\":4830:4842   */\n      dup3\n        /* \"#utility.yul\":4776:4849   */\n      tag_117\n      jump\t// in\n    tag_136:\n        /* \"#utility.yul\":4768:4849   */\n      swap2\n      pop\n        /* \"#utility.yul\":4621:4860   */\n      pop\n        /* \"#utility.yul\":4877:4881   */\n      dup1\n        /* \"#utility.yul\":4870:4881   */\n      swap2\n      pop\n        /* \"#utility.yul\":4330:4887   */\n      pop\n        /* \"#utility.yul\":4228:4887   */\n      swap3\n      swap2\n      pop\n      pop\n      jump\t// out\n        /* \"#utility.yul\":4893:5342   */\n    tag_19:\n        /* \"#utility.yul\":5074:5078   */\n      0x00\n        /* \"#utility.yul\":5112:5114   */\n      0x20\n        /* \"#utility.yul\":5101:5110   */\n      dup3\n        /* \"#utility.yul\":5097:5115   */\n      add\n        /* \"#utility.yul\":5089:5115   */\n      swap1\n      pop\n        /* \"#utility.yul\":5161:5170   */\n      dup2\n        /* \"#utility.yul\":5155:5159   */\n      dup2\n        /* \"#utility.yul\":5151:5171   */\n      sub\n        /* \"#utility.yul\":5147:5148   */\n      0x00\n        /* \"#utility.yul\":5136:5145   */\n      dup4\n        /* \"#utility.yul\":5132:5149   */\n      add\n        /* \"#utility.yul\":5125:5172   */\n      mstore\n        /* \"#utility.yul\":5189:5335   */\n      tag_138\n        /* \"#utility.yul\":5330:5334   */\n      dup2\n        /* \"#utility.yul\":5321:5327   */\n      dup5\n        /* \"#utility.yul\":5189:5335   */\n      tag_103\n      jump\t// in\n    tag_138:\n        /* \"#utility.yul\":5181:5335   */\n      swap1\n      pop\n        /* \"#utility.yul\":4893:5342   */\n      swap3\n      swap2\n      pop\n      pop\n      jump\t// out\n        /* \"#utility.yul\":5348:5862   */\n    tag_15:\n        /* \"#utility.yul\":5509:5513   */\n      0x00\n        /* \"#utility.yul\":5547:5549   */\n      0x40\n        /* \"#utility.yul\":5536:5545   */\n      dup3\n        /* \"#utility.yul\":5532:5550   */\n      add\n        /* \"#utility.yul\":5524:5550   */\n      swap1\n      pop\n        /* \"#utility.yul\":5596:5605   */\n      dup2\n        /* \"#utility.yul\":5590:5594   */\n      dup2\n        /* \"#utility.yul\":5586:5606   */\n      sub\n        /* \"#utility.yul\":5582:5583   */\n      0x00\n        /* \"#utility.yul\":5571:5580   */\n      dup4\n        /* \"#utility.yul\":5567:5584   */\n      add\n        /* \"#utility.yul\":5560:5607   */\n      mstore\n        /* \"#utility.yul\":5624:5702   */\n      tag_140\n        /* \"#utility.yul\":5697:5701   */\n      dup2\n        /* \"#utility.yul\":5688:5694   */\n      dup6\n        /* \"#utility.yul\":5624:5702   */\n      tag_127\n      jump\t// in\n    tag_140:\n        /* \"#utility.yul\":5616:5702   */\n      swap1\n      pop\n        /* \"#utility.yul\":5749:5758   */\n      dup2\n        /* \"#utility.yul\":5743:5747   */\n      dup2\n        /* \"#utility.yul\":5739:5759   */\n      sub\n        /* \"#utility.yul\":5734:5736   */\n      0x20\n        /* \"#utility.yul\":5723:5732   */\n      dup4\n        /* \"#utility.yul\":5719:5737   */\n      add\n        /* \"#utility.yul\":5712:5760   */\n      mstore\n        /* \"#utility.yul\":5777:5855   */\n      tag_141\n        /* \"#utility.yul\":5850:5854   */\n      dup2\n        /* \"#utility.yul\":5841:5847   */\n      dup5\n        /* \"#utility.yul\":5777:5855   */\n      tag_127\n      jump\t// in\n    tag_141:\n        /* \"#utility.yul\":5769:5855   */\n      swap1\n      pop\n        /* \"#utility.yul\":5348:5862   */\n      swap4\n      swap3\n      pop\n      pop\n      pop\n      jump\t// out\n        /* \"#utility.yul\":5868:5997   */\n    tag_68:\n        /* \"#utility.yul\":5902:5908   */\n      0x00\n        /* \"#utility.yul\":5929:5949   */\n      tag_143\n      tag_144\n      jump\t// in\n    tag_143:\n        /* \"#utility.yul\":5919:5949   */\n      swap1\n      pop\n        /* \"#utility.yul\":5958:5991   */\n      tag_145\n        /* \"#utility.yul\":5986:5990   */\n      dup3\n        /* \"#utility.yul\":5978:5984   */\n      dup3\n        /* \"#utility.yul\":5958:5991   */\n      tag_146\n      jump\t// in\n    tag_145:\n        /* \"#utility.yul\":5868:5997   */\n      swap2\n      swap1\n      pop\n      jump\t// out\n        /* \"#utility.yul\":6003:6078   */\n    tag_144:\n        /* \"#utility.yul\":6036:6042   */\n      0x00\n        /* \"#utility.yul\":6069:6071   */\n      0x40\n        /* \"#utility.yul\":6063:6072   */\n      mload\n        /* \"#utility.yul\":6053:6072   */\n      swap1\n      pop\n        /* \"#utility.yul\":6003:6078   */\n      swap1\n      jump\t// out\n        /* \"#utility.yul\":6084:6392   */\n    tag_67:\n        /* \"#utility.yul\":6146:6150   */\n      0x00\n        /* \"#utility.yul\":6236:6254   */\n      0xffffffffffffffff\n        /* \"#utility.yul\":6228:6234   */\n      dup3\n        /* \"#utility.yul\":6225:6255   */\n      gt\n        /* \"#utility.yul\":6222:6278   */\n      iszero\n      tag_149\n      jumpi\n        /* \"#utility.yul\":6258:6276   */\n      tag_150\n      tag_151\n      jump\t// in\n    tag_150:\n        /* \"#utility.yul\":6222:6278   */\n    tag_149:\n        /* \"#utility.yul\":6296:6325   */\n      tag_152\n        /* \"#utility.yul\":6318:6324   */\n      dup3\n        /* \"#utility.yul\":6296:6325   */\n      tag_126\n      jump\t// in\n    tag_152:\n        /* \"#utility.yul\":6288:6325   */\n      swap1\n      pop\n        /* \"#utility.yul\":6380:6384   */\n      0x20\n        /* \"#utility.yul\":6374:6378   */\n      dup2\n        /* \"#utility.yul\":6370:6385   */\n      add\n        /* \"#utility.yul\":6362:6385   */\n      swap1\n      pop\n        /* \"#utility.yul\":6084:6392   */\n      swap2\n      swap1\n      pop\n      jump\t// out\n        /* \"#utility.yul\":6398:6549   */\n    tag_110:\n        /* \"#utility.yul\":6484:6488   */\n      0x00\n        /* \"#utility.yul\":6507:6510   */\n      dup2\n        /* \"#utility.yul\":6499:6510   */\n      swap1\n      pop\n        /* \"#utility.yul\":6537:6541   */\n      0x20\n        /* \"#utility.yul\":6532:6535   */\n      dup3\n        /* \"#utility.yul\":6528:6542   */\n      add\n        /* \"#utility.yul\":6520:6542   */\n      swap1\n      pop\n        /* \"#utility.yul\":6398:6549   */\n      swap2\n      swap1\n      pop\n      jump\t// out\n        /* \"#utility.yul\":6555:6688   */\n    tag_106:\n        /* \"#utility.yul\":6641:6647   */\n      0x00\n        /* \"#utility.yul\":6675:6680   */\n      dup2\n        /* \"#utility.yul\":6669:6681   */\n      mload\n        /* \"#utility.yul\":6659:6681   */\n      swap1\n      pop\n        /* \"#utility.yul\":6555:6688   */\n      swap2\n      swap1\n      pop\n      jump\t// out\n        /* \"#utility.yul\":6694:6793   */\n    tag_120:\n        /* \"#utility.yul\":6746:6752   */\n      0x00\n        /* \"#utility.yul\":6780:6785   */\n      dup2\n        /* \"#utility.yul\":6774:6786   */\n      mload\n        /* \"#utility.yul\":6764:6786   */\n      swap1\n      pop\n        /* \"#utility.yul\":6694:6793   */\n      swap2\n      swap1\n      pop\n      jump\t// out\n        /* \"#utility.yul\":6799:6931   */\n    tag_116:\n        /* \"#utility.yul\":6888:6892   */\n      0x00\n        /* \"#utility.yul\":6920:6924   */\n      0x20\n        /* \"#utility.yul\":6915:6918   */\n      dup3\n        /* \"#utility.yul\":6911:6925   */\n      add\n        /* \"#utility.yul\":6903:6925   */\n      swap1\n      pop\n        /* \"#utility.yul\":6799:6931   */\n      swap2\n      swap1\n      pop\n      jump\t// out\n        /* \"#utility.yul\":6937:7140   */\n    tag_108:\n        /* \"#utility.yul\":7055:7066   */\n      0x00\n        /* \"#utility.yul\":7089:7095   */\n      dup3\n        /* \"#utility.yul\":7084:7087   */\n      dup3\n        /* \"#utility.yul\":7077:7096   */\n      mstore\n        /* \"#utility.yul\":7129:7133   */\n      0x20\n        /* \"#utility.yul\":7124:7127   */\n      dup3\n        /* \"#utility.yul\":7120:7134   */\n      add\n        /* \"#utility.yul\":7105:7134   */\n      swap1\n      pop\n        /* \"#utility.yul\":6937:7140   */\n      swap3\n      swap2\n      pop\n      pop\n      jump\t// out\n        /* \"#utility.yul\":7146:7305   */\n    tag_122:\n        /* \"#utility.yul\":7220:7231   */\n      0x00\n        /* \"#utility.yul\":7254:7260   */\n      dup3\n        /* \"#utility.yul\":7249:7252   */\n      dup3\n        /* \"#utility.yul\":7242:7261   */\n      mstore\n        /* \"#utility.yul\":7294:7298   */\n      0x20\n        /* \"#utility.yul\":7289:7292   */\n      dup3\n        /* \"#utility.yul\":7285:7299   */\n      add\n        /* \"#utility.yul\":7270:7299   */\n      swap1\n      pop\n        /* \"#utility.yul\":7146:7305   */\n      swap3\n      swap2\n      pop\n      pop\n      jump\t// out\n        /* \"#utility.yul\":7311:7480   */\n    tag_131:\n        /* \"#utility.yul\":7395:7406   */\n      0x00\n        /* \"#utility.yul\":7429:7435   */\n      dup3\n        /* \"#utility.yul\":7424:7427   */\n      dup3\n        /* \"#utility.yul\":7417:7436   */\n      mstore\n        /* \"#utility.yul\":7469:7473   */\n      0x20\n        /* \"#utility.yul\":7464:7467   */\n      dup3\n        /* \"#utility.yul\":7460:7474   */\n      add\n        /* \"#utility.yul\":7445:7474   */\n      swap1\n      pop\n        /* \"#utility.yul\":7311:7480   */\n      swap3\n      swap2\n      pop\n      pop\n      jump\t// out\n        /* \"#utility.yul\":7486:7563   */\n    tag_160:\n        /* \"#utility.yul\":7523:7530   */\n      0x00\n        /* \"#utility.yul\":7552:7557   */\n      dup2\n        /* \"#utility.yul\":7541:7557   */\n      swap1\n      pop\n        /* \"#utility.yul\":7486:7563   */\n      swap2\n      swap1\n      pop\n      jump\t// out\n        /* \"#utility.yul\":7569:7723   */\n    tag_73:\n        /* \"#utility.yul\":7653:7659   */\n      dup3\n        /* \"#utility.yul\":7648:7651   */\n      dup2\n        /* \"#utility.yul\":7643:7646   */\n      dup4\n        /* \"#utility.yul\":7630:7660   */\n      calldatacopy\n        /* \"#utility.yul\":7715:7716   */\n      0x00\n        /* \"#utility.yul\":7706:7712   */\n      dup4\n        /* \"#utility.yul\":7701:7704   */\n      dup4\n        /* \"#utility.yul\":7697:7713   */\n      add\n        /* \"#utility.yul\":7690:7717   */\n      mstore\n        /* \"#utility.yul\":7569:7723   */\n      pop\n      pop\n      pop\n      jump\t// out\n        /* \"#utility.yul\":7729:8036   */\n    tag_124:\n        /* \"#utility.yul\":7797:7798   */\n      0x00\n        /* \"#utility.yul\":7807:7920   */\n    tag_164:\n        /* \"#utility.yul\":7821:7827   */\n      dup4\n        /* \"#utility.yul\":7818:7819   */\n      dup2\n        /* \"#utility.yul\":7815:7828   */\n      lt\n        /* \"#utility.yul\":7807:7920   */\n      iszero\n      tag_166\n      jumpi\n        /* \"#utility.yul\":7906:7907   */\n      dup1\n        /* \"#utility.yul\":7901:7904   */\n      dup3\n        /* \"#utility.yul\":7897:7908   */\n      add\n        /* \"#utility.yul\":7891:7909   */\n      mload\n        /* \"#utility.yul\":7887:7888   */\n      dup2\n        /* \"#utility.yul\":7882:7885   */\n      dup5\n        /* \"#utility.yul\":7878:7889   */\n      add\n        /* \"#utility.yul\":7871:7910   */\n      mstore\n        /* \"#utility.yul\":7843:7845   */\n      0x20\n        /* \"#utility.yul\":7840:7841   */\n      dup2\n        /* \"#utility.yul\":7836:7846   */\n      add\n        /* \"#utility.yul\":7831:7846   */\n      swap1\n      pop\n        /* \"#utility.yul\":7807:7920   */\n      jump(tag_164)\n    tag_166:\n        /* \"#utility.yul\":7938:7944   */\n      dup4\n        /* \"#utility.yul\":7935:7936   */\n      dup2\n        /* \"#utility.yul\":7932:7945   */\n      gt\n        /* \"#utility.yul\":7929:8030   */\n      iszero\n      tag_167\n      jumpi\n        /* \"#utility.yul\":8018:8019   */\n      0x00\n        /* \"#utility.yul\":8009:8015   */\n      dup5\n        /* \"#utility.yul\":8004:8007   */\n      dup5\n        /* \"#utility.yul\":8000:8016   */\n      add\n        /* \"#utility.yul\":7993:8020   */\n      mstore\n        /* \"#utility.yul\":7929:8030   */\n    tag_167:\n        /* \"#utility.yul\":7778:8036   */\n      pop\n        /* \"#utility.yul\":7729:8036   */\n      pop\n      pop\n      pop\n      jump\t// out\n        /* \"#utility.yul\":8042:8362   */\n    tag_28:\n        /* \"#utility.yul\":8086:8092   */\n      0x00\n        /* \"#utility.yul\":8123:8124   */\n      0x02\n        /* \"#utility.yul\":8117:8121   */\n      dup3\n        /* \"#utility.yul\":8113:8125   */\n      div\n        /* \"#utility.yul\":8103:8125   */\n      swap1\n      pop\n        /* \"#utility.yul\":8170:8171   */\n      0x01\n        /* \"#utility.yul\":8164:8168   */\n      dup3\n        /* \"#utility.yul\":8160:8172   */\n      and\n        /* \"#utility.yul\":8191:8209   */\n      dup1\n        /* \"#utility.yul\":8181:8262   */\n      tag_169\n      jumpi\n        /* \"#utility.yul\":8247:8251   */\n      0x7f\n        /* \"#utility.yul\":8239:8245   */\n      dup3\n        /* \"#utility.yul\":8235:8252   */\n      and\n        /* \"#utility.yul\":8225:8252   */\n      swap2\n      pop\n        /* \"#utility.yul\":8181:8262   */\n    tag_169:\n        /* \"#utility.yul\":8309:8311   */\n      0x20\n        /* \"#utility.yul\":8301:8307   */\n      dup3\n        /* \"#utility.yul\":8298:8312   */\n      lt\n        /* \"#utility.yul\":8278:8296   */\n      dup2\n        /* \"#utility.yul\":8275:8313   */\n      eq\n        /* \"#utility.yul\":8272:8356   */\n      iszero\n      tag_170\n      jumpi\n        /* \"#utility.yul\":8328:8346   */\n      tag_171\n      tag_172\n      jump\t// in\n    tag_171:\n        /* \"#utility.yul\":8272:8356   */\n    tag_170:\n        /* \"#utility.yul\":8093:8362   */\n      pop\n        /* \"#utility.yul\":8042:8362   */\n      swap2\n      swap1\n      pop\n      jump\t// out\n        /* \"#utility.yul\":8368:8649   */\n    tag_146:\n        /* \"#utility.yul\":8451:8478   */\n      tag_174\n        /* \"#utility.yul\":8473:8477   */\n      dup3\n        /* \"#utility.yul\":8451:8478   */\n      tag_126\n      jump\t// in\n    tag_174:\n        /* \"#utility.yul\":8443:8449   */\n      dup2\n        /* \"#utility.yul\":8439:8479   */\n      add\n        /* \"#utility.yul\":8581:8587   */\n      dup2\n        /* \"#utility.yul\":8569:8579   */\n      dup2\n        /* \"#utility.yul\":8566:8588   */\n      lt\n        /* \"#utility.yul\":8545:8563   */\n      0xffffffffffffffff\n        /* \"#utility.yul\":8533:8543   */\n      dup3\n        /* \"#utility.yul\":8530:8564   */\n      gt\n        /* \"#utility.yul\":8527:8589   */\n      or\n        /* \"#utility.yul\":8524:8612   */\n      iszero\n      tag_175\n      jumpi\n        /* \"#utility.yul\":8592:8610   */\n      tag_176\n      tag_151\n      jump\t// in\n    tag_176:\n        /* \"#utility.yul\":8524:8612   */\n    tag_175:\n        /* \"#utility.yul\":8632:8642   */\n      dup1\n        /* \"#utility.yul\":8628:8630   */\n      0x40\n        /* \"#utility.yul\":8621:8643   */\n      mstore\n        /* \"#utility.yul\":8411:8649   */\n      pop\n        /* \"#utility.yul\":8368:8649   */\n      pop\n      pop\n      jump\t// out\n        /* \"#utility.yul\":8655:8835   */\n    tag_172:\n        /* \"#utility.yul\":8703:8780   */\n      0x4e487b7100000000000000000000000000000000000000000000000000000000\n        /* \"#utility.yul\":8700:8701   */\n      0x00\n        /* \"#utility.yul\":8693:8781   */\n      mstore\n        /* \"#utility.yul\":8800:8804   */\n      0x22\n        /* \"#utility.yul\":8797:8798   */\n      0x04\n        /* \"#utility.yul\":8790:8805   */\n      mstore\n        /* \"#utility.yul\":8824:8828   */\n      0x24\n        /* \"#utility.yul\":8821:8822   */\n      0x00\n        /* \"#utility.yul\":8814:8829   */\n      revert\n        /* \"#utility.yul\":8841:9021   */\n    tag_151:\n        /* \"#utility.yul\":8889:8966   */\n      0x4e487b7100000000000000000000000000000000000000000000000000000000\n        /* \"#utility.yul\":8886:8887   */\n      0x00\n        /* \"#utility.yul\":8879:8967   */\n      mstore\n        /* \"#utility.yul\":8986:8990   */\n      0x41\n        /* \"#utility.yul\":8983:8984   */\n      0x04\n        /* \"#utility.yul\":8976:8991   */\n      mstore\n        /* \"#utility.yul\":9010:9014   */\n      0x24\n        /* \"#utility.yul\":9007:9008   */\n      0x00\n        /* \"#utility.yul\":9000:9015   */\n      revert\n        /* \"#utility.yul\":9027:9144   */\n    tag_78:\n        /* \"#utility.yul\":9136:9137   */\n      0x00\n        /* \"#utility.yul\":9133:9134   */\n      dup1\n        /* \"#utility.yul\":9126:9138   */\n      revert\n        /* \"#utility.yul\":9150:9267   */\n    tag_71:\n        /* \"#utility.yul\":9259:9260   */\n      0x00\n        /* \"#utility.yul\":9256:9257   */\n      dup1\n        /* \"#utility.yul\":9249:9261   */\n      revert\n        /* \"#utility.yul\":9273:9390   */\n    tag_90:\n        /* \"#utility.yul\":9382:9383   */\n      0x00\n        /* \"#utility.yul\":9379:9380   */\n      dup1\n        /* \"#utility.yul\":9372:9384   */\n      revert\n        /* \"#utility.yul\":9396:9513   */\n    tag_87:\n        /* \"#utility.yul\":9505:9506   */\n      0x00\n        /* \"#utility.yul\":9502:9503   */\n      dup1\n        /* \"#utility.yul\":9495:9507   */\n      revert\n        /* \"#utility.yul\":9519:9621   */\n    tag_126:\n        /* \"#utility.yul\":9560:9566   */\n      0x00\n        /* \"#utility.yul\":9611:9613   */\n      0x1f\n        /* \"#utility.yul\":9607:9614   */\n      not\n        /* \"#utility.yul\":9602:9604   */\n      0x1f\n        /* \"#utility.yul\":9595:9600   */\n      dup4\n        /* \"#utility.yul\":9591:9605   */\n      add\n        /* \"#utility.yul\":9587:9615   */\n      and\n        /* \"#utility.yul\":9577:9615   */\n      swap1\n      pop\n        /* \"#utility.yul\":9519:9621   */\n      swap2\n      swap1\n      pop\n      jump\t// out\n        /* \"#utility.yul\":9627:9749   */\n    tag_83:\n        /* \"#utility.yul\":9700:9724   */\n      tag_185\n        /* \"#utility.yul\":9718:9723   */\n      dup2\n        /* \"#utility.yul\":9700:9724   */\n      tag_160\n      jump\t// in\n    tag_185:\n        /* \"#utility.yul\":9693:9698   */\n      dup2\n        /* \"#utility.yul\":9690:9725   */\n      eq\n        /* \"#utility.yul\":9680:9743   */\n      tag_186\n      jumpi\n        /* \"#utility.yul\":9739:9740   */\n      0x00\n        /* \"#utility.yul\":9736:9737   */\n      dup1\n        /* \"#utility.yul\":9729:9741   */\n      revert\n        /* \"#utility.yul\":9680:9743   */\n    tag_186:\n        /* \"#utility.yul\":9627:9749   */\n      pop\n      jump\t// out\n\n    auxdata: 0xa2646970667358221220492f4cf627bbe6475ed3f4608271578615b3920e47c3001319f0e591acf69a7f64736f6c63430008070033\n}\n",
				"bytecode": {
					"linkReferences": {},
					"object": "608060405234801561001057600080fd5b50610998806100206000396000f3fe608060405234801561001057600080fd5b50600436106100415760003560e01c806373a4e4c3146100465780639f4216e814610062578063b852204314610093575b600080fd5b610060600480360381019061005b9190610520565b6100b1565b005b61007c60048036038101906100779190610598565b610131565b60405161008a929190610726565b60405180910390f35b61009b610275565b6040516100a89190610704565b60405180910390f35b60006040518060400160405280848152602001838152509080600181540180825580915050600190039060005260206000209060020201600090919091909150600082015181600001908051906020019061010d9291906103f8565b50602082015181600101908051906020019061012a9291906103f8565b5050505050565b6000818154811061014157600080fd5b906000526020600020906002020160009150905080600001805461016490610865565b80601f016020809104026020016040519081016040528092919081815260200182805461019090610865565b80156101dd5780601f106101b2576101008083540402835291602001916101dd565b820191906000526020600020905b8154815290600101906020018083116101c057829003601f168201915b5050505050908060010180546101f290610865565b80601f016020809104026020016040519081016040528092919081815260200182805461021e90610865565b801561026b5780601f106102405761010080835404028352916020019161026b565b820191906000526020600020905b81548152906001019060200180831161024e57829003601f168201915b5050505050905082565b60606000805480602002602001604051908101604052809291908181526020016000905b828210156103ef57838290600052602060002090600202016040518060400160405290816000820180546102cc90610865565b80601f01602080910402602001604051908101604052809291908181526020018280546102f890610865565b80156103455780601f1061031a57610100808354040283529160200191610345565b820191906000526020600020905b81548152906001019060200180831161032857829003601f168201915b5050505050815260200160018201805461035e90610865565b80601f016020809104026020016040519081016040528092919081815260200182805461038a90610865565b80156103d75780601f106103ac576101008083540402835291602001916103d7565b820191906000526020600020905b8154815290600101906020018083116103ba57829003601f168201915b50505050508152505081526020019060010190610299565b50505050905090565b82805461040490610865565b90600052602060002090601f016020900481019282610426576000855561046d565b82601f1061043f57805160ff191683800117855561046d565b8280016001018555821561046d579182015b8281111561046c578251825591602001919060010190610451565b5b50905061047a919061047e565b5090565b5b8082111561049757600081600090555060010161047f565b5090565b60006104ae6104a984610782565b61075d565b9050828152602081018484840111156104ca576104c961092b565b5b6104d5848285610823565b509392505050565b600082601f8301126104f2576104f1610926565b5b813561050284826020860161049b565b91505092915050565b60008135905061051a8161094b565b92915050565b6000806040838503121561053757610536610935565b5b600083013567ffffffffffffffff81111561055557610554610930565b5b610561858286016104dd565b925050602083013567ffffffffffffffff81111561058257610581610930565b5b61058e858286016104dd565b9150509250929050565b6000602082840312156105ae576105ad610935565b5b60006105bc8482850161050b565b91505092915050565b60006105d183836106c0565b905092915050565b60006105e4826107c3565b6105ee81856107e6565b935083602082028501610600856107b3565b8060005b8581101561063c578484038952815161061d85826105c5565b9450610628836107d9565b925060208a01995050600181019050610604565b50829750879550505050505092915050565b6000610659826107ce565b61066381856107f7565b9350610673818560208601610832565b61067c8161093a565b840191505092915050565b6000610692826107ce565b61069c8185610808565b93506106ac818560208601610832565b6106b58161093a565b840191505092915050565b600060408301600083015184820360008601526106dd828261064e565b915050602083015184820360208601526106f7828261064e565b9150508091505092915050565b6000602082019050818103600083015261071e81846105d9565b905092915050565b600060408201905081810360008301526107408185610687565b905081810360208301526107548184610687565b90509392505050565b6000610767610778565b90506107738282610897565b919050565b6000604051905090565b600067ffffffffffffffff82111561079d5761079c6108f7565b5b6107a68261093a565b9050602081019050919050565b6000819050602082019050919050565b600081519050919050565b600081519050919050565b6000602082019050919050565b600082825260208201905092915050565b600082825260208201905092915050565b600082825260208201905092915050565b6000819050919050565b82818337600083830152505050565b60005b83811015610850578082015181840152602081019050610835565b8381111561085f576000848401525b50505050565b6000600282049050600182168061087d57607f821691505b60208210811415610891576108906108c8565b5b50919050565b6108a08261093a565b810181811067ffffffffffffffff821117156108bf576108be6108f7565b5b80604052505050565b7f4e487b7100000000000000000000000000000000000000000000000000000000600052602260045260246000fd5b7f4e487b7100000000000000000000000000000000000000000000000000000000600052604160045260246000fd5b600080fd5b600080fd5b600080fd5b600080fd5b6000601f19601f8301169050919050565b61095481610819565b811461095f57600080fd5b5056fea2646970667358221220492f4cf627bbe6475ed3f4608271578615b3920e47c3001319f0e591acf69a7f64736f6c63430008070033",
					"opcodes": "PUSH1 0x80 PUSH1 0x40 MSTORE CALLVALUE DUP1 ISZERO PUSH2 0x10 JUMPI PUSH1 0x0 DUP1 REVERT JUMPDEST POP PUSH2 0x998 DUP1 PUSH2 0x20 PUSH1 0x0 CODECOPY PUSH1 0x0 RETURN INVALID PUSH1 0x80 PUSH1 0x40 MSTORE CALLVALUE DUP1 ISZERO PUSH2 0x10 JUMPI PUSH1 0x0 DUP1 REVERT JUMPDEST POP PUSH1 0x4 CALLDATASIZE LT PUSH2 0x41 JUMPI PUSH1 0x0 CALLDATALOAD PUSH1 0xE0 SHR DUP1 PUSH4 0x73A4E4C3 EQ PUSH2 0x46 JUMPI DUP1 PUSH4 0x9F4216E8 EQ PUSH2 0x62 JUMPI DUP1 PUSH4 0xB8522043 EQ PUSH2 0x93 JUMPI JUMPDEST PUSH1 0x0 DUP1 REVERT JUMPDEST PUSH2 0x60 PUSH1 0x4 DUP1 CALLDATASIZE SUB DUP2 ADD SWAP1 PUSH2 0x5B SWAP2 SWAP1 PUSH2 0x520 JUMP JUMPDEST PUSH2 0xB1 JUMP JUMPDEST STOP JUMPDEST PUSH2 0x7C PUSH1 0x4 DUP1 CALLDATASIZE SUB DUP2 ADD SWAP1 PUSH2 0x77 SWAP2 SWAP1 PUSH2 0x598 JUMP JUMPDEST PUSH2 0x131 JUMP JUMPDEST PUSH1 0x40 MLOAD PUSH2 0x8A SWAP3 SWAP2 SWAP1 PUSH2 0x726 JUMP JUMPDEST PUSH1 0x40 MLOAD DUP1 SWAP2 SUB SWAP1 RETURN JUMPDEST PUSH2 0x9B PUSH2 0x275 JUMP JUMPDEST PUSH1 0x40 MLOAD PUSH2 0xA8 SWAP2 SWAP1 PUSH2 0x704 JUMP JUMPDEST PUSH1 0x40 MLOAD DUP1 SWAP2 SUB SWAP1 RETURN JUMPDEST PUSH1 0x0 PUSH1 0x40 MLOAD DUP1 PUSH1 0x40 ADD PUSH1 0x40 MSTORE DUP1 DUP5 DUP2 MSTORE PUSH1 0x20 ADD DUP4 DUP2 MSTORE POP SWAP1 DUP1 PUSH1 0x1 DUP2 SLOAD ADD DUP1 DUP3 SSTORE DUP1 SWAP2 POP POP PUSH1 0x1 SWAP1 SUB SWAP1 PUSH1 0x0 MSTORE PUSH1 0x20 PUSH1 0x0 KECCAK256 SWAP1 PUSH1 0x2 MUL ADD PUSH1 0x0 SWAP1 SWAP2 SWAP1 SWAP2 SWAP1 SWAP2 POP PUSH1 0x0 DUP3 ADD MLOAD DUP2 PUSH1 0x0 ADD SWAP1 DUP1 MLOAD SWAP1 PUSH1 0x20 ADD SWAP1 PUSH2 0x10D SWAP3 SWAP2 SWAP1 PUSH2 0x3F8 JUMP JUMPDEST POP PUSH1 0x20 DUP3 ADD MLOAD DUP2 PUSH1 0x1 ADD SWAP1 DUP1 MLOAD SWAP1 PUSH1 0x20 ADD SWAP1 PUSH2 0x12A SWAP3 SWAP2 SWAP1 PUSH2 0x3F8 JUMP JUMPDEST POP POP POP POP POP JUMP JUMPDEST PUSH1 0x0 DUP2 DUP2 SLOAD DUP2 LT PUSH2 0x141 JUMPI PUSH1 0x0 DUP1 REVERT JUMPDEST SWAP1 PUSH1 0x0 MSTORE PUSH1 0x20 PUSH1 0x0 KECCAK256 SWAP1 PUSH1 0x2 MUL ADD PUSH1 0x0 SWAP2 POP SWAP1 POP DUP1 PUSH1 0x0 ADD DUP1 SLOAD PUSH2 0x164 SWAP1 PUSH2 0x865 JUMP JUMPDEST DUP1 PUSH1 0x1F ADD PUSH1 0x20 DUP1 SWAP2 DIV MUL PUSH1 0x20 ADD PUSH1 0x40 MLOAD SWAP1 DUP2 ADD PUSH1 0x40 MSTORE DUP1 SWAP3 SWAP2 SWAP1 DUP2 DUP2 MSTORE PUSH1 0x20 ADD DUP3 DUP1 SLOAD PUSH2 0x190 SWAP1 PUSH2 0x865 JUMP JUMPDEST DUP1 ISZERO PUSH2 0x1DD JUMPI DUP1 PUSH1 0x1F LT PUSH2 0x1B2 JUMPI PUSH2 0x100 DUP1 DUP4 SLOAD DIV MUL DUP4 MSTORE SWAP2 PUSH1 0x20 ADD SWAP2 PUSH2 0x1DD JUMP JUMPDEST DUP3 ADD SWAP2 SWAP1 PUSH1 0x0 MSTORE PUSH1 0x20 PUSH1 0x0 KECCAK256 SWAP1 JUMPDEST DUP2 SLOAD DUP2 MSTORE SWAP1 PUSH1 0x1 ADD SWAP1 PUSH1 0x20 ADD DUP1 DUP4 GT PUSH2 0x1C0 JUMPI DUP3 SWAP1 SUB PUSH1 0x1F AND DUP3 ADD SWAP2 JUMPDEST POP POP POP POP POP SWAP1 DUP1 PUSH1 0x1 ADD DUP1 SLOAD PUSH2 0x1F2 SWAP1 PUSH2 0x865 JUMP JUMPDEST DUP1 PUSH1 0x1F ADD PUSH1 0x20 DUP1 SWAP2 DIV MUL PUSH1 0x20 ADD PUSH1 0x40 MLOAD SWAP1 DUP2 ADD PUSH1 0x40 MSTORE DUP1 SWAP3 SWAP2 SWAP1 DUP2 DUP2 MSTORE PUSH1 0x20 ADD DUP3 DUP1 SLOAD PUSH2 0x21E SWAP1 PUSH2 0x865 JUMP JUMPDEST DUP1 ISZERO PUSH2 0x26B JUMPI DUP1 PUSH1 0x1F LT PUSH2 0x240 JUMPI PUSH2 0x100 DUP1 DUP4 SLOAD DIV MUL DUP4 MSTORE SWAP2 PUSH1 0x20 ADD SWAP2 PUSH2 0x26B JUMP JUMPDEST DUP3 ADD SWAP2 SWAP1 PUSH1 0x0 MSTORE PUSH1 0x20 PUSH1 0x0 KECCAK256 SWAP1 JUMPDEST DUP2 SLOAD DUP2 MSTORE SWAP1 PUSH1 0x1 ADD SWAP1 PUSH1 0x20 ADD DUP1 DUP4 GT PUSH2 0x24E JUMPI DUP3 SWAP1 SUB PUSH1 0x1F AND DUP3 ADD SWAP2 JUMPDEST POP POP POP POP POP SWAP1 POP DUP3 JUMP JUMPDEST PUSH1 0x60 PUSH1 0x0 DUP1 SLOAD DUP1 PUSH1 0x20 MUL PUSH1 0x20 ADD PUSH1 0x40 MLOAD SWAP1 DUP2 ADD PUSH1 0x40 MSTORE DUP1 SWAP3 SWAP2 SWAP1 DUP2 DUP2 MSTORE PUSH1 0x20 ADD PUSH1 0x0 SWAP1 JUMPDEST DUP3 DUP3 LT ISZERO PUSH2 0x3EF JUMPI DUP4 DUP3 SWAP1 PUSH1 0x0 MSTORE PUSH1 0x20 PUSH1 0x0 KECCAK256 SWAP1 PUSH1 0x2 MUL ADD PUSH1 0x40 MLOAD DUP1 PUSH1 0x40 ADD PUSH1 0x40 MSTORE SWAP1 DUP2 PUSH1 0x0 DUP3 ADD DUP1 SLOAD PUSH2 0x2CC SWAP1 PUSH2 0x865 JUMP JUMPDEST DUP1 PUSH1 0x1F ADD PUSH1 0x20 DUP1 SWAP2 DIV MUL PUSH1 0x20 ADD PUSH1 0x40 MLOAD SWAP1 DUP2 ADD PUSH1 0x40 MSTORE DUP1 SWAP3 SWAP2 SWAP1 DUP2 DUP2 MSTORE PUSH1 0x20 ADD DUP3 DUP1 SLOAD PUSH2 0x2F8 SWAP1 PUSH2 0x865 JUMP JUMPDEST DUP1 ISZERO PUSH2 0x345 JUMPI DUP1 PUSH1 0x1F LT PUSH2 0x31A JUMPI PUSH2 0x100 DUP1 DUP4 SLOAD DIV MUL DUP4 MSTORE SWAP2 PUSH1 0x20 ADD SWAP2 PUSH2 0x345 JUMP JUMPDEST DUP3 ADD SWAP2 SWAP1 PUSH1 0x0 MSTORE PUSH1 0x20 PUSH1 0x0 KECCAK256 SWAP1 JUMPDEST DUP2 SLOAD DUP2 MSTORE SWAP1 PUSH1 0x1 ADD SWAP1 PUSH1 0x20 ADD DUP1 DUP4 GT PUSH2 0x328 JUMPI DUP3 SWAP1 SUB PUSH1 0x1F AND DUP3 ADD SWAP2 JUMPDEST POP POP POP POP POP DUP2 MSTORE PUSH1 0x20 ADD PUSH1 0x1 DUP3 ADD DUP1 SLOAD PUSH2 0x35E SWAP1 PUSH2 0x865 JUMP JUMPDEST DUP1 PUSH1 0x1F ADD PUSH1 0x20 DUP1 SWAP2 DIV MUL PUSH1 0x20 ADD PUSH1 0x40 MLOAD SWAP1 DUP2 ADD PUSH1 0x40 MSTORE DUP1 SWAP3 SWAP2 SWAP1 DUP2 DUP2 MSTORE PUSH1 0x20 ADD DUP3 DUP1 SLOAD PUSH2 0x38A SWAP1 PUSH2 0x865 JUMP JUMPDEST DUP1 ISZERO PUSH2 0x3D7 JUMPI DUP1 PUSH1 0x1F LT PUSH2 0x3AC JUMPI PUSH2 0x100 DUP1 DUP4 SLOAD DIV MUL DUP4 MSTORE SWAP2 PUSH1 0x20 ADD SWAP2 PUSH2 0x3D7 JUMP JUMPDEST DUP3 ADD SWAP2 SWAP1 PUSH1 0x0 MSTORE PUSH1 0x20 PUSH1 0x0 KECCAK256 SWAP1 JUMPDEST DUP2 SLOAD DUP2 MSTORE SWAP1 PUSH1 0x1 ADD SWAP1 PUSH1 0x20 ADD DUP1 DUP4 GT PUSH2 0x3BA JUMPI DUP3 SWAP1 SUB PUSH1 0x1F AND DUP3 ADD SWAP2 JUMPDEST POP POP POP POP POP DUP2 MSTORE POP POP DUP2 MSTORE PUSH1 0x20 ADD SWAP1 PUSH1 0x1 ADD SWAP1 PUSH2 0x299 JUMP JUMPDEST POP POP POP POP SWAP1 POP SWAP1 JUMP JUMPDEST DUP3 DUP1 SLOAD PUSH2 0x404 SWAP1 PUSH2 0x865 JUMP JUMPDEST SWAP1 PUSH1 0x0 MSTORE PUSH1 0x20 PUSH1 0x0 KECCAK256 SWAP1 PUSH1 0x1F ADD PUSH1 0x20 SWAP1 DIV DUP2 ADD SWAP3 DUP3 PUSH2 0x426 JUMPI PUSH1 0x0 DUP6 SSTORE PUSH2 0x46D JUMP JUMPDEST DUP3 PUSH1 0x1F LT PUSH2 0x43F JUMPI DUP1 MLOAD PUSH1 0xFF NOT AND DUP4 DUP1 ADD OR DUP6 SSTORE PUSH2 0x46D JUMP JUMPDEST DUP3 DUP1 ADD PUSH1 0x1 ADD DUP6 SSTORE DUP3 ISZERO PUSH2 0x46D JUMPI SWAP2 DUP3 ADD JUMPDEST DUP3 DUP2 GT ISZERO PUSH2 0x46C JUMPI DUP3 MLOAD DUP3 SSTORE SWAP2 PUSH1 0x20 ADD SWAP2 SWAP1 PUSH1 0x1 ADD SWAP1 PUSH2 0x451 JUMP JUMPDEST JUMPDEST POP SWAP1 POP PUSH2 0x47A SWAP2 SWAP1 PUSH2 0x47E JUMP JUMPDEST POP SWAP1 JUMP JUMPDEST JUMPDEST DUP1 DUP3 GT ISZERO PUSH2 0x497 JUMPI PUSH1 0x0 DUP2 PUSH1 0x0 SWAP1 SSTORE POP PUSH1 0x1 ADD PUSH2 0x47F JUMP JUMPDEST POP SWAP1 JUMP JUMPDEST PUSH1 0x0 PUSH2 0x4AE PUSH2 0x4A9 DUP5 PUSH2 0x782 JUMP JUMPDEST PUSH2 0x75D JUMP JUMPDEST SWAP1 POP DUP3 DUP2 MSTORE PUSH1 0x20 DUP2 ADD DUP5 DUP5 DUP5 ADD GT ISZERO PUSH2 0x4CA JUMPI PUSH2 0x4C9 PUSH2 0x92B JUMP JUMPDEST JUMPDEST PUSH2 0x4D5 DUP5 DUP3 DUP6 PUSH2 0x823 JUMP JUMPDEST POP SWAP4 SWAP3 POP POP POP JUMP JUMPDEST PUSH1 0x0 DUP3 PUSH1 0x1F DUP4 ADD SLT PUSH2 0x4F2 JUMPI PUSH2 0x4F1 PUSH2 0x926 JUMP JUMPDEST JUMPDEST DUP2 CALLDATALOAD PUSH2 0x502 DUP5 DUP3 PUSH1 0x20 DUP7 ADD PUSH2 0x49B JUMP JUMPDEST SWAP2 POP POP SWAP3 SWAP2 POP POP JUMP JUMPDEST PUSH1 0x0 DUP2 CALLDATALOAD SWAP1 POP PUSH2 0x51A DUP2 PUSH2 0x94B JUMP JUMPDEST SWAP3 SWAP2 POP POP JUMP JUMPDEST PUSH1 0x0 DUP1 PUSH1 0x40 DUP4 DUP6 SUB SLT ISZERO PUSH2 0x537 JUMPI PUSH2 0x536 PUSH2 0x935 JUMP JUMPDEST JUMPDEST PUSH1 0x0 DUP4 ADD CALLDATALOAD PUSH8 0xFFFFFFFFFFFFFFFF DUP2 GT ISZERO PUSH2 0x555 JUMPI PUSH2 0x554 PUSH2 0x930 JUMP JUMPDEST JUMPDEST PUSH2 0x561 DUP6 DUP3 DUP7 ADD PUSH2 0x4DD JUMP JUMPDEST SWAP3 POP POP PUSH1 0x20 DUP4 ADD CALLDATALOAD PUSH8 0xFFFFFFFFFFFFFFFF DUP2 GT ISZERO PUSH2 0x582 JUMPI PUSH2 0x581 PUSH2 0x930 JUMP JUMPDEST JUMPDEST PUSH2 0x58E DUP6 DUP3 DUP7 ADD PUSH2 0x4DD JUMP JUMPDEST SWAP2 POP POP SWAP3 POP SWAP3 SWAP1 POP JUMP JUMPDEST PUSH1 0x0 PUSH1 0x20 DUP3 DUP5 SUB SLT ISZERO PUSH2 0x5AE JUMPI PUSH2 0x5AD PUSH2 0x935 JUMP JUMPDEST JUMPDEST PUSH1 0x0 PUSH2 0x5BC DUP5 DUP3 DUP6 ADD PUSH2 0x50B JUMP JUMPDEST SWAP2 POP POP SWAP3 SWAP2 POP POP JUMP JUMPDEST PUSH1 0x0 PUSH2 0x5D1 DUP4 DUP4 PUSH2 0x6C0 JUMP JUMPDEST SWAP1 POP SWAP3 SWAP2 POP POP JUMP JUMPDEST PUSH1 0x0 PUSH2 0x5E4 DUP3 PUSH2 0x7C3 JUMP JUMPDEST PUSH2 0x5EE DUP2 DUP6 PUSH2 0x7E6 JUMP JUMPDEST SWAP4 POP DUP4 PUSH1 0x20 DUP3 MUL DUP6 ADD PUSH2 0x600 DUP6 PUSH2 0x7B3 JUMP JUMPDEST DUP1 PUSH1 0x0 JUMPDEST DUP6 DUP2 LT ISZERO PUSH2 0x63C JUMPI DUP5 DUP5 SUB DUP10 MSTORE DUP2 MLOAD PUSH2 0x61D DUP6 DUP3 PUSH2 0x5C5 JUMP JUMPDEST SWAP5 POP PUSH2 0x628 DUP4 PUSH2 0x7D9 JUMP JUMPDEST SWAP3 POP PUSH1 0x20 DUP11 ADD SWAP10 POP POP PUSH1 0x1 DUP2 ADD SWAP1 POP PUSH2 0x604 JUMP JUMPDEST POP DUP3 SWAP8 POP DUP8 SWAP6 POP POP POP POP POP POP SWAP3 SWAP2 POP POP JUMP JUMPDEST PUSH1 0x0 PUSH2 0x659 DUP3 PUSH2 0x7CE JUMP JUMPDEST PUSH2 0x663 DUP2 DUP6 PUSH2 0x7F7 JUMP JUMPDEST SWAP4 POP PUSH2 0x673 DUP2 DUP6 PUSH1 0x20 DUP7 ADD PUSH2 0x832 JUMP JUMPDEST PUSH2 0x67C DUP2 PUSH2 0x93A JUMP JUMPDEST DUP5 ADD SWAP2 POP POP SWAP3 SWAP2 POP POP JUMP JUMPDEST PUSH1 0x0 PUSH2 0x692 DUP3 PUSH2 0x7CE JUMP JUMPDEST PUSH2 0x69C DUP2 DUP6 PUSH2 0x808 JUMP JUMPDEST SWAP4 POP PUSH2 0x6AC DUP2 DUP6 PUSH1 0x20 DUP7 ADD PUSH2 0x832 JUMP JUMPDEST PUSH2 0x6B5 DUP2 PUSH2 0x93A JUMP JUMPDEST DUP5 ADD SWAP2 POP POP SWAP3 SWAP2 POP POP JUMP JUMPDEST PUSH1 0x0 PUSH1 0x40 DUP4 ADD PUSH1 0x0 DUP4 ADD MLOAD DUP5 DUP3 SUB PUSH1 0x0 DUP7 ADD MSTORE PUSH2 0x6DD DUP3 DUP3 PUSH2 0x64E JUMP JUMPDEST SWAP2 POP POP PUSH1 0x20 DUP4 ADD MLOAD DUP5 DUP3 SUB PUSH1 0x20 DUP7 ADD MSTORE PUSH2 0x6F7 DUP3 DUP3 PUSH2 0x64E JUMP JUMPDEST SWAP2 POP POP DUP1 SWAP2 POP POP SWAP3 SWAP2 POP POP JUMP JUMPDEST PUSH1 0x0 PUSH1 0x20 DUP3 ADD SWAP1 POP DUP2 DUP2 SUB PUSH1 0x0 DUP4 ADD MSTORE PUSH2 0x71E DUP2 DUP5 PUSH2 0x5D9 JUMP JUMPDEST SWAP1 POP SWAP3 SWAP2 POP POP JUMP JUMPDEST PUSH1 0x0 PUSH1 0x40 DUP3 ADD SWAP1 POP DUP2 DUP2 SUB PUSH1 0x0 DUP4 ADD MSTORE PUSH2 0x740 DUP2 DUP6 PUSH2 0x687 JUMP JUMPDEST SWAP1 POP DUP2 DUP2 SUB PUSH1 0x20 DUP4 ADD MSTORE PUSH2 0x754 DUP2 DUP5 PUSH2 0x687 JUMP JUMPDEST SWAP1 POP SWAP4 SWAP3 POP POP POP JUMP JUMPDEST PUSH1 0x0 PUSH2 0x767 PUSH2 0x778 JUMP JUMPDEST SWAP1 POP PUSH2 0x773 DUP3 DUP3 PUSH2 0x897 JUMP JUMPDEST SWAP2 SWAP1 POP JUMP JUMPDEST PUSH1 0x0 PUSH1 0x40 MLOAD SWAP1 POP SWAP1 JUMP JUMPDEST PUSH1 0x0 PUSH8 0xFFFFFFFFFFFFFFFF DUP3 GT ISZERO PUSH2 0x79D JUMPI PUSH2 0x79C PUSH2 0x8F7 JUMP JUMPDEST JUMPDEST PUSH2 0x7A6 DUP3 PUSH2 0x93A JUMP JUMPDEST SWAP1 POP PUSH1 0x20 DUP2 ADD SWAP1 POP SWAP2 SWAP1 POP JUMP JUMPDEST PUSH1 0x0 DUP2 SWAP1 POP PUSH1 0x20 DUP3 ADD SWAP1 POP SWAP2 SWAP1 POP JUMP JUMPDEST PUSH1 0x0 DUP2 MLOAD SWAP1 POP SWAP2 SWAP1 POP JUMP JUMPDEST PUSH1 0x0 DUP2 MLOAD SWAP1 POP SWAP2 SWAP1 POP JUMP JUMPDEST PUSH1 0x0 PUSH1 0x20 DUP3 ADD SWAP1 POP SWAP2 SWAP1 POP JUMP JUMPDEST PUSH1 0x0 DUP3 DUP3 MSTORE PUSH1 0x20 DUP3 ADD SWAP1 POP SWAP3 SWAP2 POP POP JUMP JUMPDEST PUSH1 0x0 DUP3 DUP3 MSTORE PUSH1 0x20 DUP3 ADD SWAP1 POP SWAP3 SWAP2 POP POP JUMP JUMPDEST PUSH1 0x0 DUP3 DUP3 MSTORE PUSH1 0x20 DUP3 ADD SWAP1 POP SWAP3 SWAP2 POP POP JUMP JUMPDEST PUSH1 0x0 DUP2 SWAP1 POP SWAP2 SWAP1 POP JUMP JUMPDEST DUP3 DUP2 DUP4 CALLDATACOPY PUSH1 0x0 DUP4 DUP4 ADD MSTORE POP POP POP JUMP JUMPDEST PUSH1 0x0 JUMPDEST DUP4 DUP2 LT ISZERO PUSH2 0x850 JUMPI DUP1 DUP3 ADD MLOAD DUP2 DUP5 ADD MSTORE PUSH1 0x20 DUP2 ADD SWAP1 POP PUSH2 0x835 JUMP JUMPDEST DUP4 DUP2 GT ISZERO PUSH2 0x85F JUMPI PUSH1 0x0 DUP5 DUP5 ADD MSTORE JUMPDEST POP POP POP POP JUMP JUMPDEST PUSH1 0x0 PUSH1 0x2 DUP3 DIV SWAP1 POP PUSH1 0x1 DUP3 AND DUP1 PUSH2 0x87D JUMPI PUSH1 0x7F DUP3 AND SWAP2 POP JUMPDEST PUSH1 0x20 DUP3 LT DUP2 EQ ISZERO PUSH2 0x891 JUMPI PUSH2 0x890 PUSH2 0x8C8 JUMP JUMPDEST JUMPDEST POP SWAP2 SWAP1 POP JUMP JUMPDEST PUSH2 0x8A0 DUP3 PUSH2 0x93A JUMP JUMPDEST DUP2 ADD DUP2 DUP2 LT PUSH8 0xFFFFFFFFFFFFFFFF DUP3 GT OR ISZERO PUSH2 0x8BF JUMPI PUSH2 0x8BE PUSH2 0x8F7 JUMP JUMPDEST JUMPDEST DUP1 PUSH1 0x40 MSTORE POP POP POP JUMP JUMPDEST PUSH32 0x4E487B7100000000000000000000000000000000000000000000000000000000 PUSH1 0x0 MSTORE PUSH1 0x22 PUSH1 0x4 MSTORE PUSH1 0x24 PUSH1 0x0 REVERT JUMPDEST PUSH32 0x4E487B7100000000000000000000000000000000000000000000000000000000 PUSH1 0x0 MSTORE PUSH1 0x41 PUSH1 0x4 MSTORE PUSH1 0x24 PUSH1 0x0 REVERT JUMPDEST PUSH1 0x0 DUP1 REVERT JUMPDEST PUSH1 0x0 DUP1 REVERT JUMPDEST PUSH1 0x0 DUP1 REVERT JUMPDEST PUSH1 0x0 DUP1 REVERT JUMPDEST PUSH1 0x0 PUSH1 0x1F NOT PUSH1 0x1F DUP4 ADD AND SWAP1 POP SWAP2 SWAP1 POP JUMP JUMPDEST PUSH2 0x954 DUP2 PUSH2 0x819 JUMP JUMPDEST DUP2 EQ PUSH2 0x95F JUMPI PUSH1 0x0 DUP1 REVERT JUMPDEST POP JUMP INVALID LOG2 PUSH5 0x6970667358 0x22 SLT KECCAK256 0x49 0x2F 0x4C 0xF6 0x27 0xBB 0xE6 SELFBALANCE 0x5E 0xD3 DELEGATECALL PUSH1 0x82 PUSH18 0x578615B3920E47C3001319F0E591ACF69A7F PUSH5 0x736F6C6343 STOP ADDMOD SMOD STOP CALLER "
				},
				"gasEstimates": {
					"creation": {
						"codeDepositCost": "491200",
						"executionCost": "524",
						"totalCost": "491724"
					},
					"external": {
						"getUserList()": "infinite",
						"reg(string,string)": "infinite",
						"userList(uint256)": "infinite"
					}
				},
				"methodIdentifiers": {
					"getUserList()": "b8522043",
					"reg(string,string)": "73a4e4c3",
					"userList(uint256)": "9f4216e8"
				}
			},
			"storageLayout": {
				"storage": [
					{
						"astId": 10,
						"contract": "login.sol:Login",
						"label": "userList",
						"offset": 0,
						"slot": "0",
						"type": "t_array(t_struct(User)6_storage)dyn_storage"
					}
				],
				"types": {
					"t_array(t_struct(User)6_storage)dyn_storage": {
						"base": "t_struct(User)6_storage",
						"encoding": "dynamic_array",
						"label": "struct Login.User[]",
						"numberOfBytes": "32"
					},
					"t_string_storage": {
						"encoding": "bytes",
						"label": "string",
						"numberOfBytes": "32"
					},
					"t_struct(User)6_storage": {
						"encoding": "inplace",
						"label": "struct Login.User",
						"members": [
							{
								"astId": 3,
								"contract": "login.sol:Login",
								"label": "name",
								"offset": 0,
								"slot": "0",
								"type": "t_string_storage"
							},
							{
								"astId": 5,
								"contract": "login.sol:Login",
								"label": "password",
								"offset": 0,
								"slot": "1",
								"type": "t_string_storage"
							}
						],
						"numberOfBytes": "64"
					}
				}
			},
			"userdoc": {
				"kind": "user",
				"methods": {},
				"version": 1
			}
		}
	}
}