{
	"crowdfunding.sol": {
		"CrowdfundingContract": {
			"abi": [
				{
					"inputs": [
						{
							"internalType": "address",
							"name": "_recipient",
							"type": "address"
						},
						{
							"internalType": "string",
							"name": "_expectAmout",
							"type": "string"
						}
					],
					"name": "createCrowdfunding",
					"outputs": [],
					"stateMutability": "nonpayable",
					"type": "function"
				},
				{
					"inputs": [
						{
							"internalType": "uint256",
							"name": "_status",
							"type": "uint256"
						}
					],
					"name": "getCrowdfundingByStatus",
					"outputs": [
						{
							"components": [
								{
									"internalType": "uint256",
									"name": "num",
									"type": "uint256"
								},
								{
									"internalType": "uint256",
									"name": "status",
									"type": "uint256"
								},
								{
									"internalType": "address",
									"name": "creator",
									"type": "address"
								},
								{
									"internalType": "address",
									"name": "recipient",
									"type": "address"
								},
								{
									"internalType": "uint256",
									"name": "joinNum",
									"type": "uint256"
								},
								{
									"internalType": "string",
									"name": "expectAmout",
									"type": "string"
								},
								{
									"internalType": "string",
									"name": "actualAmount",
									"type": "string"
								}
							],
							"internalType": "struct CrowdfundingContract.Crowdfunding[]",
							"name": "",
							"type": "tuple[]"
						}
					],
					"stateMutability": "view",
					"type": "function"
				},
				{
					"inputs": [
						{
							"internalType": "uint256",
							"name": "",
							"type": "uint256"
						}
					],
					"name": "list",
					"outputs": [
						{
							"internalType": "uint256",
							"name": "num",
							"type": "uint256"
						},
						{
							"internalType": "uint256",
							"name": "status",
							"type": "uint256"
						},
						{
							"internalType": "address",
							"name": "creator",
							"type": "address"
						},
						{
							"internalType": "address",
							"name": "recipient",
							"type": "address"
						},
						{
							"internalType": "uint256",
							"name": "joinNum",
							"type": "uint256"
						},
						{
							"internalType": "string",
							"name": "expectAmout",
							"type": "string"
						},
						{
							"internalType": "string",
							"name": "actualAmount",
							"type": "string"
						}
					],
					"stateMutability": "view",
					"type": "function"
				}
			],
			"devdoc": {
				"kind": "dev",
				"methods": {},
				"version": 1
			},
			"evm": {
				"assembly": "    /* \"crowdfunding.sol\":60:1308  contract CrowdfundingContract {... */\n  mstore(0x40, 0x80)\n  callvalue\n  dup1\n  iszero\n  tag_1\n  jumpi\n  0x00\n  dup1\n  revert\ntag_1:\n  pop\n  dataSize(sub_0)\n  dup1\n  dataOffset(sub_0)\n  0x00\n  codecopy\n  0x00\n  return\nstop\n\nsub_0: assembly {\n        /* \"crowdfunding.sol\":60:1308  contract CrowdfundingContract {... */\n      mstore(0x40, 0x80)\n      callvalue\n      dup1\n      iszero\n      tag_1\n      jumpi\n      0x00\n      dup1\n      revert\n    tag_1:\n      pop\n      jumpi(tag_2, lt(calldatasize, 0x04))\n      shr(0xe0, calldataload(0x00))\n      dup1\n      0x80c9419e\n      eq\n      tag_3\n      jumpi\n      dup1\n      0x904cc175\n      eq\n      tag_4\n      jumpi\n      dup1\n      0xfd668907\n      eq\n      tag_5\n      jumpi\n    tag_2:\n      0x00\n      dup1\n      revert\n        /* \"crowdfunding.sol\":539:565  Crowdfunding[] public list */\n    tag_3:\n      tag_6\n      0x04\n      dup1\n      calldatasize\n      sub\n      dup2\n      add\n      swap1\n      tag_7\n      swap2\n      swap1\n      tag_8\n      jump\t// in\n    tag_7:\n      tag_9\n      jump\t// in\n    tag_6:\n      mload(0x40)\n      tag_10\n      swap8\n      swap7\n      swap6\n      swap5\n      swap4\n      swap3\n      swap2\n      swap1\n      tag_11\n      jump\t// in\n    tag_10:\n      mload(0x40)\n      dup1\n      swap2\n      sub\n      swap1\n      return\n        /* \"crowdfunding.sol\":955:1303  function getCrowdfundingByStatus(uint _status) public view returns (Crowdfunding[] memory){... */\n    tag_4:\n      tag_12\n      0x04\n      dup1\n      calldatasize\n      sub\n      dup2\n      add\n      swap1\n      tag_13\n      swap2\n      swap1\n      tag_8\n      jump\t// in\n    tag_13:\n      tag_14\n      jump\t// in\n    tag_12:\n      mload(0x40)\n      tag_15\n      swap2\n      swap1\n      tag_16\n      jump\t// in\n    tag_15:\n      mload(0x40)\n      dup1\n      swap2\n      sub\n      swap1\n      return\n        /* \"crowdfunding.sol\":574:947  function createCrowdfunding(address _recipient, string memory _expectAmout) public {... */\n    tag_5:\n      tag_17\n      0x04\n      dup1\n      calldatasize\n      sub\n      dup2\n      add\n      swap1\n      tag_18\n      swap2\n      swap1\n      tag_19\n      jump\t// in\n    tag_18:\n      tag_20\n      jump\t// in\n    tag_17:\n      stop\n        /* \"crowdfunding.sol\":539:565  Crowdfunding[] public list */\n    tag_9:\n      0x01\n      dup2\n      dup2\n      sload\n      dup2\n      lt\n      tag_21\n      jumpi\n      0x00\n      dup1\n      revert\n    tag_21:\n      swap1\n      0x00\n      mstore\n      keccak256(0x00, 0x20)\n      swap1\n      0x07\n      mul\n      add\n      0x00\n      swap2\n      pop\n      swap1\n      pop\n      dup1\n      0x00\n      add\n      sload\n      swap1\n      dup1\n      0x01\n      add\n      sload\n      swap1\n      dup1\n      0x02\n      add\n      0x00\n      swap1\n      sload\n      swap1\n      0x0100\n      exp\n      swap1\n      div\n      0xffffffffffffffffffffffffffffffffffffffff\n      and\n      swap1\n      dup1\n      0x03\n      add\n      0x00\n      swap1\n      sload\n      swap1\n      0x0100\n      exp\n      swap1\n      div\n      0xffffffffffffffffffffffffffffffffffffffff\n      and\n      swap1\n      dup1\n      0x04\n      add\n      sload\n      swap1\n      dup1\n      0x05\n      add\n      dup1\n      sload\n      tag_23\n      swap1\n      tag_24\n      jump\t// in\n    tag_23:\n      dup1\n      0x1f\n      add\n      0x20\n      dup1\n      swap2\n      div\n      mul\n      0x20\n      add\n      mload(0x40)\n      swap1\n      dup2\n      add\n      0x40\n      mstore\n      dup1\n      swap3\n      swap2\n      swap1\n      dup2\n      dup2\n      mstore\n      0x20\n      add\n      dup3\n      dup1\n      sload\n      tag_25\n      swap1\n      tag_24\n      jump\t// in\n    tag_25:\n      dup1\n      iszero\n      tag_26\n      jumpi\n      dup1\n      0x1f\n      lt\n      tag_27\n      jumpi\n      0x0100\n      dup1\n      dup4\n      sload\n      div\n      mul\n      dup4\n      mstore\n      swap2\n      0x20\n      add\n      swap2\n      jump(tag_26)\n    tag_27:\n      dup3\n      add\n      swap2\n      swap1\n      0x00\n      mstore\n      keccak256(0x00, 0x20)\n      swap1\n    tag_28:\n      dup2\n      sload\n      dup2\n      mstore\n      swap1\n      0x01\n      add\n      swap1\n      0x20\n      add\n      dup1\n      dup4\n      gt\n      tag_28\n      jumpi\n      dup3\n      swap1\n      sub\n      0x1f\n      and\n      dup3\n      add\n      swap2\n    tag_26:\n      pop\n      pop\n      pop\n      pop\n      pop\n      swap1\n      dup1\n      0x06\n      add\n      dup1\n      sload\n      tag_29\n      swap1\n      tag_24\n      jump\t// in\n    tag_29:\n      dup1\n      0x1f\n      add\n      0x20\n      dup1\n      swap2\n      div\n      mul\n      0x20\n      add\n      mload(0x40)\n      swap1\n      dup2\n      add\n      0x40\n      mstore\n      dup1\n      swap3\n      swap2\n      swap1\n      dup2\n      dup2\n      mstore\n      0x20\n      add\n      dup3\n      dup1\n      sload\n      tag_30\n      swap1\n      tag_24\n      jump\t// in\n    tag_30:\n      dup1\n      iszero\n      tag_31\n      jumpi\n      dup1\n      0x1f\n      lt\n      tag_32\n      jumpi\n      0x0100\n      dup1\n      dup4\n      sload\n      div\n      mul\n      dup4\n      mstore\n      swap2\n      0x20\n      add\n      swap2\n      jump(tag_31)\n    tag_32:\n      dup3\n      add\n      swap2\n      swap1\n      0x00\n      mstore\n      keccak256(0x00, 0x20)\n      swap1\n    tag_33:\n      dup2\n      sload\n      dup2\n      mstore\n      swap1\n      0x01\n      add\n      swap1\n      0x20\n      add\n      dup1\n      dup4\n      gt\n      tag_33\n      jumpi\n      dup3\n      swap1\n      sub\n      0x1f\n      and\n      dup3\n      add\n      swap2\n    tag_31:\n      pop\n      pop\n      pop\n      pop\n      pop\n      swap1\n      pop\n      dup8\n      jump\t// out\n        /* \"crowdfunding.sol\":955:1303  function getCrowdfundingByStatus(uint _status) public view returns (Crowdfunding[] memory){... */\n    tag_14:\n        /* \"crowdfunding.sol\":1023:1044  Crowdfunding[] memory */\n      0x60\n        /* \"crowdfunding.sol\":1056:1081  Crowdfunding[] memory arr */\n      0x00\n        /* \"crowdfunding.sol\":1103:1107  list */\n      0x01\n        /* \"crowdfunding.sol\":1103:1114  list.length */\n      dup1\n      sload\n      swap1\n      pop\n        /* \"crowdfunding.sol\":1084:1115  new Crowdfunding[](list.length) */\n      0xffffffffffffffff\n      dup2\n      gt\n      iszero\n      tag_35\n      jumpi\n      tag_36\n      tag_37\n      jump\t// in\n    tag_36:\n    tag_35:\n      mload(0x40)\n      swap1\n      dup1\n      dup3\n      mstore\n      dup1\n      0x20\n      mul\n      0x20\n      add\n      dup3\n      add\n      0x40\n      mstore\n      dup1\n      iszero\n      tag_38\n      jumpi\n      dup2\n      0x20\n      add\n    tag_39:\n      tag_40\n      tag_41\n      jump\t// in\n    tag_40:\n      dup2\n      mstore\n      0x20\n      add\n      swap1\n      0x01\n      swap1\n      sub\n      swap1\n      dup2\n      tag_39\n      jumpi\n      swap1\n      pop\n    tag_38:\n      pop\n        /* \"crowdfunding.sol\":1056:1115  Crowdfunding[] memory arr = new Crowdfunding[](list.length) */\n      swap1\n      pop\n        /* \"crowdfunding.sol\":1132:1138  uint i */\n      0x00\n        /* \"crowdfunding.sol\":1128:1273  for(uint i = 0; i < list.length ; i++){... */\n    tag_42:\n        /* \"crowdfunding.sol\":1148:1152  list */\n      0x01\n        /* \"crowdfunding.sol\":1148:1159  list.length */\n      dup1\n      sload\n      swap1\n      pop\n        /* \"crowdfunding.sol\":1144:1145  i */\n      dup2\n        /* \"crowdfunding.sol\":1144:1159  i < list.length */\n      lt\n        /* \"crowdfunding.sol\":1128:1273  for(uint i = 0; i < list.length ; i++){... */\n      iszero\n      tag_43\n      jumpi\n        /* \"crowdfunding.sol\":1202:1209  _status */\n      dup4\n        /* \"crowdfunding.sol\":1184:1188  list */\n      0x01\n        /* \"crowdfunding.sol\":1189:1190  i */\n      dup3\n        /* \"crowdfunding.sol\":1184:1191  list[i] */\n      dup2\n      sload\n      dup2\n      lt\n      tag_45\n      jumpi\n      tag_46\n      tag_47\n      jump\t// in\n    tag_46:\n    tag_45:\n      swap1\n      0x00\n      mstore\n      keccak256(0x00, 0x20)\n      swap1\n      0x07\n      mul\n      add\n        /* \"crowdfunding.sol\":1184:1198  list[i].status */\n      0x01\n      add\n      sload\n        /* \"crowdfunding.sol\":1184:1209  list[i].status == _status */\n      sub\n        /* \"crowdfunding.sol\":1181:1262  if(list[i].status == _status) {... */\n      tag_49\n      jumpi\n        /* \"crowdfunding.sol\":1239:1243  list */\n      0x01\n        /* \"crowdfunding.sol\":1244:1245  i */\n      dup2\n        /* \"crowdfunding.sol\":1239:1246  list[i] */\n      dup2\n      sload\n      dup2\n      lt\n      tag_50\n      jumpi\n      tag_51\n      tag_47\n      jump\t// in\n    tag_51:\n    tag_50:\n      swap1\n      0x00\n      mstore\n      keccak256(0x00, 0x20)\n      swap1\n      0x07\n      mul\n      add\n        /* \"crowdfunding.sol\":1230:1246  arr[i] = list[i] */\n      mload(0x40)\n      dup1\n      0xe0\n      add\n      0x40\n      mstore\n      swap1\n      dup2\n      0x00\n      dup3\n      add\n      sload\n      dup2\n      mstore\n      0x20\n      add\n      0x01\n      dup3\n      add\n      sload\n      dup2\n      mstore\n      0x20\n      add\n      0x02\n      dup3\n      add\n      0x00\n      swap1\n      sload\n      swap1\n      0x0100\n      exp\n      swap1\n      div\n      0xffffffffffffffffffffffffffffffffffffffff\n      and\n      0xffffffffffffffffffffffffffffffffffffffff\n      and\n      0xffffffffffffffffffffffffffffffffffffffff\n      and\n      dup2\n      mstore\n      0x20\n      add\n      0x03\n      dup3\n      add\n      0x00\n      swap1\n      sload\n      swap1\n      0x0100\n      exp\n      swap1\n      div\n      0xffffffffffffffffffffffffffffffffffffffff\n      and\n      0xffffffffffffffffffffffffffffffffffffffff\n      and\n      0xffffffffffffffffffffffffffffffffffffffff\n      and\n      dup2\n      mstore\n      0x20\n      add\n      0x04\n      dup3\n      add\n      sload\n      dup2\n      mstore\n      0x20\n      add\n      0x05\n      dup3\n      add\n      dup1\n      sload\n      tag_53\n      swap1\n      tag_24\n      jump\t// in\n    tag_53:\n      dup1\n      0x1f\n      add\n      0x20\n      dup1\n      swap2\n      div\n      mul\n      0x20\n      add\n      mload(0x40)\n      swap1\n      dup2\n      add\n      0x40\n      mstore\n      dup1\n      swap3\n      swap2\n      swap1\n      dup2\n      dup2\n      mstore\n      0x20\n      add\n      dup3\n      dup1\n      sload\n      tag_54\n      swap1\n      tag_24\n      jump\t// in\n    tag_54:\n      dup1\n      iszero\n      tag_55\n      jumpi\n      dup1\n      0x1f\n      lt\n      tag_56\n      jumpi\n      0x0100\n      dup1\n      dup4\n      sload\n      div\n      mul\n      dup4\n      mstore\n      swap2\n      0x20\n      add\n      swap2\n      jump(tag_55)\n    tag_56:\n      dup3\n      add\n      swap2\n      swap1\n      0x00\n      mstore\n      keccak256(0x00, 0x20)\n      swap1\n    tag_57:\n      dup2\n      sload\n      dup2\n      mstore\n      swap1\n      0x01\n      add\n      swap1\n      0x20\n      add\n      dup1\n      dup4\n      gt\n      tag_57\n      jumpi\n      dup3\n      swap1\n      sub\n      0x1f\n      and\n      dup3\n      add\n      swap2\n    tag_55:\n      pop\n      pop\n      pop\n      pop\n      pop\n      dup2\n      mstore\n      0x20\n      add\n      0x06\n      dup3\n      add\n      dup1\n      sload\n      tag_58\n      swap1\n      tag_24\n      jump\t// in\n    tag_58:\n      dup1\n      0x1f\n      add\n      0x20\n      dup1\n      swap2\n      div\n      mul\n      0x20\n      add\n      mload(0x40)\n      swap1\n      dup2\n      add\n      0x40\n      mstore\n      dup1\n      swap3\n      swap2\n      swap1\n      dup2\n      dup2\n      mstore\n      0x20\n      add\n      dup3\n      dup1\n      sload\n      tag_59\n      swap1\n      tag_24\n      jump\t// in\n    tag_59:\n      dup1\n      iszero\n      tag_60\n      jumpi\n      dup1\n      0x1f\n      lt\n      tag_61\n      jumpi\n      0x0100\n      dup1\n      dup4\n      sload\n      div\n      mul\n      dup4\n      mstore\n      swap2\n      0x20\n      add\n      swap2\n      jump(tag_60)\n    tag_61:\n      dup3\n      add\n      swap2\n      swap1\n      0x00\n      mstore\n      keccak256(0x00, 0x20)\n      swap1\n    tag_62:\n      dup2\n      sload\n      dup2\n      mstore\n      swap1\n      0x01\n      add\n      swap1\n      0x20\n      add\n      dup1\n      dup4\n      gt\n      tag_62\n      jumpi\n      dup3\n      swap1\n      sub\n      0x1f\n      and\n      dup3\n      add\n      swap2\n    tag_60:\n      pop\n      pop\n      pop\n      pop\n      pop\n      dup2\n      mstore\n      pop\n      pop\n        /* \"crowdfunding.sol\":1230:1233  arr */\n      dup3\n        /* \"crowdfunding.sol\":1234:1235  i */\n      dup3\n        /* \"crowdfunding.sol\":1230:1236  arr[i] */\n      dup2\n      mload\n      dup2\n      lt\n      tag_63\n      jumpi\n      tag_64\n      tag_47\n      jump\t// in\n    tag_64:\n    tag_63:\n      0x20\n      mul\n      0x20\n      add\n      add\n        /* \"crowdfunding.sol\":1230:1246  arr[i] = list[i] */\n      dup2\n      swap1\n      mstore\n      pop\n        /* \"crowdfunding.sol\":1181:1262  if(list[i].status == _status) {... */\n    tag_49:\n        /* \"crowdfunding.sol\":1162:1165  i++ */\n      dup1\n      dup1\n      tag_65\n      swap1\n      tag_66\n      jump\t// in\n    tag_65:\n      swap2\n      pop\n      pop\n        /* \"crowdfunding.sol\":1128:1273  for(uint i = 0; i < list.length ; i++){... */\n      jump(tag_42)\n    tag_43:\n      pop\n        /* \"crowdfunding.sol\":1292:1295  arr */\n      dup1\n        /* \"crowdfunding.sol\":1285:1295  return arr */\n      swap2\n      pop\n      pop\n        /* \"crowdfunding.sol\":955:1303  function getCrowdfundingByStatus(uint _status) public view returns (Crowdfunding[] memory){... */\n      swap2\n      swap1\n      pop\n      jump\t// out\n        /* \"crowdfunding.sol\":574:947  function createCrowdfunding(address _recipient, string memory _expectAmout) public {... */\n    tag_20:\n        /* \"crowdfunding.sol\":668:670  No */\n      0x00\n      dup1\n        /* \"crowdfunding.sol\":668:672  No++ */\n      dup2\n      sload\n      dup1\n      swap3\n      swap2\n      swap1\n      tag_68\n      swap1\n      tag_66\n      jump\t// in\n    tag_68:\n      swap2\n      swap1\n      pop\n      sstore\n      pop\n        /* \"crowdfunding.sol\":683:687  list */\n      0x01\n        /* \"crowdfunding.sol\":693:938  Crowdfunding({... */\n      mload(0x40)\n      dup1\n      0xe0\n      add\n      0x40\n      mstore\n      dup1\n        /* \"crowdfunding.sol\":726:728  No */\n      sload(0x00)\n        /* \"crowdfunding.sol\":693:938  Crowdfunding({... */\n      dup2\n      mstore\n      0x20\n      add\n        /* \"crowdfunding.sol\":751:752  0 */\n      0x00\n        /* \"crowdfunding.sol\":693:938  Crowdfunding({... */\n      dup2\n      mstore\n      0x20\n      add\n        /* \"crowdfunding.sol\":776:786  msg.sender */\n      caller\n        /* \"crowdfunding.sol\":693:938  Crowdfunding({... */\n      0xffffffffffffffffffffffffffffffffffffffff\n      and\n      dup2\n      mstore\n      0x20\n      add\n        /* \"crowdfunding.sol\":812:822  _recipient */\n      dup5\n        /* \"crowdfunding.sol\":693:938  Crowdfunding({... */\n      0xffffffffffffffffffffffffffffffffffffffff\n      and\n      dup2\n      mstore\n      0x20\n      add\n        /* \"crowdfunding.sol\":846:847  0 */\n      0x00\n        /* \"crowdfunding.sol\":693:938  Crowdfunding({... */\n      dup2\n      mstore\n      0x20\n      add\n        /* \"crowdfunding.sol\":882:894  _expectAmout */\n      dup4\n        /* \"crowdfunding.sol\":693:938  Crowdfunding({... */\n      dup2\n      mstore\n      0x20\n      add\n      mload(0x40)\n      dup1\n      0x40\n      add\n      0x40\n      mstore\n      dup1\n      0x01\n      dup2\n      mstore\n      0x20\n      add\n      0x3000000000000000000000000000000000000000000000000000000000000000\n      dup2\n      mstore\n      pop\n      dup2\n      mstore\n      pop\n        /* \"crowdfunding.sol\":683:939  list.push(Crowdfunding({... */\n      swap1\n      dup1\n      0x01\n      dup2\n      sload\n      add\n      dup1\n      dup3\n      sstore\n      dup1\n      swap2\n      pop\n      pop\n      0x01\n      swap1\n      sub\n      swap1\n      0x00\n      mstore\n      keccak256(0x00, 0x20)\n      swap1\n      0x07\n      mul\n      add\n      0x00\n      swap1\n      swap2\n      swap1\n      swap2\n      swap1\n      swap2\n      pop\n      0x00\n      dup3\n      add\n      mload\n      dup2\n      0x00\n      add\n      sstore\n      0x20\n      dup3\n      add\n      mload\n      dup2\n      0x01\n      add\n      sstore\n      0x40\n      dup3\n      add\n      mload\n      dup2\n      0x02\n      add\n      exp(0x0100, 0x00)\n      dup2\n      sload\n      dup2\n      0xffffffffffffffffffffffffffffffffffffffff\n      mul\n      not\n      and\n      swap1\n      dup4\n      0xffffffffffffffffffffffffffffffffffffffff\n      and\n      mul\n      or\n      swap1\n      sstore\n      pop\n      0x60\n      dup3\n      add\n      mload\n      dup2\n      0x03\n      add\n      exp(0x0100, 0x00)\n      dup2\n      sload\n      dup2\n      0xffffffffffffffffffffffffffffffffffffffff\n      mul\n      not\n      and\n      swap1\n      dup4\n      0xffffffffffffffffffffffffffffffffffffffff\n      and\n      mul\n      or\n      swap1\n      sstore\n      pop\n      0x80\n      dup3\n      add\n      mload\n      dup2\n      0x04\n      add\n      sstore\n      0xa0\n      dup3\n      add\n      mload\n      dup2\n      0x05\n      add\n      swap1\n      dup2\n      tag_70\n      swap2\n      swap1\n      tag_71\n      jump\t// in\n    tag_70:\n      pop\n      0xc0\n      dup3\n      add\n      mload\n      dup2\n      0x06\n      add\n      swap1\n      dup2\n      tag_72\n      swap2\n      swap1\n      tag_71\n      jump\t// in\n    tag_72:\n      pop\n      pop\n      pop\n        /* \"crowdfunding.sol\":574:947  function createCrowdfunding(address _recipient, string memory _expectAmout) public {... */\n      pop\n      pop\n      jump\t// out\n    tag_41:\n      mload(0x40)\n      dup1\n      0xe0\n      add\n      0x40\n      mstore\n      dup1\n      0x00\n      dup2\n      mstore\n      0x20\n      add\n      0x00\n      dup2\n      mstore\n      0x20\n      add\n      and(0xffffffffffffffffffffffffffffffffffffffff, 0x00)\n      dup2\n      mstore\n      0x20\n      add\n      and(0xffffffffffffffffffffffffffffffffffffffff, 0x00)\n      dup2\n      mstore\n      0x20\n      add\n      0x00\n      dup2\n      mstore\n      0x20\n      add\n      0x60\n      dup2\n      mstore\n      0x20\n      add\n      0x60\n      dup2\n      mstore\n      pop\n      swap1\n      jump\t// out\n        /* \"#utility.yul\":7:82   */\n    tag_73:\n        /* \"#utility.yul\":40:46   */\n      0x00\n        /* \"#utility.yul\":73:75   */\n      0x40\n        /* \"#utility.yul\":67:76   */\n      mload\n        /* \"#utility.yul\":57:76   */\n      swap1\n      pop\n        /* \"#utility.yul\":7:82   */\n      swap1\n      jump\t// out\n        /* \"#utility.yul\":88:205   */\n    tag_74:\n        /* \"#utility.yul\":197:198   */\n      0x00\n        /* \"#utility.yul\":194:195   */\n      dup1\n        /* \"#utility.yul\":187:199   */\n      revert\n        /* \"#utility.yul\":211:328   */\n    tag_75:\n        /* \"#utility.yul\":320:321   */\n      0x00\n        /* \"#utility.yul\":317:318   */\n      dup1\n        /* \"#utility.yul\":310:322   */\n      revert\n        /* \"#utility.yul\":334:411   */\n    tag_76:\n        /* \"#utility.yul\":371:378   */\n      0x00\n        /* \"#utility.yul\":400:405   */\n      dup2\n        /* \"#utility.yul\":389:405   */\n      swap1\n      pop\n        /* \"#utility.yul\":334:411   */\n      swap2\n      swap1\n      pop\n      jump\t// out\n        /* \"#utility.yul\":417:539   */\n    tag_77:\n        /* \"#utility.yul\":490:514   */\n      tag_132\n        /* \"#utility.yul\":508:513   */\n      dup2\n        /* \"#utility.yul\":490:514   */\n      tag_76\n      jump\t// in\n    tag_132:\n        /* \"#utility.yul\":483:488   */\n      dup2\n        /* \"#utility.yul\":480:515   */\n      eq\n        /* \"#utility.yul\":470:533   */\n      tag_133\n      jumpi\n        /* \"#utility.yul\":529:530   */\n      0x00\n        /* \"#utility.yul\":526:527   */\n      dup1\n        /* \"#utility.yul\":519:531   */\n      revert\n        /* \"#utility.yul\":470:533   */\n    tag_133:\n        /* \"#utility.yul\":417:539   */\n      pop\n      jump\t// out\n        /* \"#utility.yul\":545:684   */\n    tag_78:\n        /* \"#utility.yul\":591:596   */\n      0x00\n        /* \"#utility.yul\":629:635   */\n      dup2\n        /* \"#utility.yul\":616:636   */\n      calldataload\n        /* \"#utility.yul\":607:636   */\n      swap1\n      pop\n        /* \"#utility.yul\":645:678   */\n      tag_135\n        /* \"#utility.yul\":672:677   */\n      dup2\n        /* \"#utility.yul\":645:678   */\n      tag_77\n      jump\t// in\n    tag_135:\n        /* \"#utility.yul\":545:684   */\n      swap3\n      swap2\n      pop\n      pop\n      jump\t// out\n        /* \"#utility.yul\":690:1019   */\n    tag_8:\n        /* \"#utility.yul\":749:755   */\n      0x00\n        /* \"#utility.yul\":798:800   */\n      0x20\n        /* \"#utility.yul\":786:795   */\n      dup3\n        /* \"#utility.yul\":777:784   */\n      dup5\n        /* \"#utility.yul\":773:796   */\n      sub\n        /* \"#utility.yul\":769:801   */\n      slt\n        /* \"#utility.yul\":766:885   */\n      iszero\n      tag_137\n      jumpi\n        /* \"#utility.yul\":804:883   */\n      tag_138\n      tag_74\n      jump\t// in\n    tag_138:\n        /* \"#utility.yul\":766:885   */\n    tag_137:\n        /* \"#utility.yul\":924:925   */\n      0x00\n        /* \"#utility.yul\":949:1002   */\n      tag_139\n        /* \"#utility.yul\":994:1001   */\n      dup5\n        /* \"#utility.yul\":985:991   */\n      dup3\n        /* \"#utility.yul\":974:983   */\n      dup6\n        /* \"#utility.yul\":970:992   */\n      add\n        /* \"#utility.yul\":949:1002   */\n      tag_78\n      jump\t// in\n    tag_139:\n        /* \"#utility.yul\":939:1002   */\n      swap2\n      pop\n        /* \"#utility.yul\":895:1012   */\n      pop\n        /* \"#utility.yul\":690:1019   */\n      swap3\n      swap2\n      pop\n      pop\n      jump\t// out\n        /* \"#utility.yul\":1025:1143   */\n    tag_79:\n        /* \"#utility.yul\":1112:1136   */\n      tag_141\n        /* \"#utility.yul\":1130:1135   */\n      dup2\n        /* \"#utility.yul\":1112:1136   */\n      tag_76\n      jump\t// in\n    tag_141:\n        /* \"#utility.yul\":1107:1110   */\n      dup3\n        /* \"#utility.yul\":1100:1137   */\n      mstore\n        /* \"#utility.yul\":1025:1143   */\n      pop\n      pop\n      jump\t// out\n        /* \"#utility.yul\":1149:1275   */\n    tag_80:\n        /* \"#utility.yul\":1186:1193   */\n      0x00\n        /* \"#utility.yul\":1226:1268   */\n      0xffffffffffffffffffffffffffffffffffffffff\n        /* \"#utility.yul\":1219:1224   */\n      dup3\n        /* \"#utility.yul\":1215:1269   */\n      and\n        /* \"#utility.yul\":1204:1269   */\n      swap1\n      pop\n        /* \"#utility.yul\":1149:1275   */\n      swap2\n      swap1\n      pop\n      jump\t// out\n        /* \"#utility.yul\":1281:1377   */\n    tag_81:\n        /* \"#utility.yul\":1318:1325   */\n      0x00\n        /* \"#utility.yul\":1347:1371   */\n      tag_144\n        /* \"#utility.yul\":1365:1370   */\n      dup3\n        /* \"#utility.yul\":1347:1371   */\n      tag_80\n      jump\t// in\n    tag_144:\n        /* \"#utility.yul\":1336:1371   */\n      swap1\n      pop\n        /* \"#utility.yul\":1281:1377   */\n      swap2\n      swap1\n      pop\n      jump\t// out\n        /* \"#utility.yul\":1383:1501   */\n    tag_82:\n        /* \"#utility.yul\":1470:1494   */\n      tag_146\n        /* \"#utility.yul\":1488:1493   */\n      dup2\n        /* \"#utility.yul\":1470:1494   */\n      tag_81\n      jump\t// in\n    tag_146:\n        /* \"#utility.yul\":1465:1468   */\n      dup3\n        /* \"#utility.yul\":1458:1495   */\n      mstore\n        /* \"#utility.yul\":1383:1501   */\n      pop\n      pop\n      jump\t// out\n        /* \"#utility.yul\":1507:1606   */\n    tag_83:\n        /* \"#utility.yul\":1559:1565   */\n      0x00\n        /* \"#utility.yul\":1593:1598   */\n      dup2\n        /* \"#utility.yul\":1587:1599   */\n      mload\n        /* \"#utility.yul\":1577:1599   */\n      swap1\n      pop\n        /* \"#utility.yul\":1507:1606   */\n      swap2\n      swap1\n      pop\n      jump\t// out\n        /* \"#utility.yul\":1612:1781   */\n    tag_84:\n        /* \"#utility.yul\":1696:1707   */\n      0x00\n        /* \"#utility.yul\":1730:1736   */\n      dup3\n        /* \"#utility.yul\":1725:1728   */\n      dup3\n        /* \"#utility.yul\":1718:1737   */\n      mstore\n        /* \"#utility.yul\":1770:1774   */\n      0x20\n        /* \"#utility.yul\":1765:1768   */\n      dup3\n        /* \"#utility.yul\":1761:1775   */\n      add\n        /* \"#utility.yul\":1746:1775   */\n      swap1\n      pop\n        /* \"#utility.yul\":1612:1781   */\n      swap3\n      swap2\n      pop\n      pop\n      jump\t// out\n        /* \"#utility.yul\":1787:2094   */\n    tag_85:\n        /* \"#utility.yul\":1855:1856   */\n      0x00\n        /* \"#utility.yul\":1865:1978   */\n    tag_150:\n        /* \"#utility.yul\":1879:1885   */\n      dup4\n        /* \"#utility.yul\":1876:1877   */\n      dup2\n        /* \"#utility.yul\":1873:1886   */\n      lt\n        /* \"#utility.yul\":1865:1978   */\n      iszero\n      tag_152\n      jumpi\n        /* \"#utility.yul\":1964:1965   */\n      dup1\n        /* \"#utility.yul\":1959:1962   */\n      dup3\n        /* \"#utility.yul\":1955:1966   */\n      add\n        /* \"#utility.yul\":1949:1967   */\n      mload\n        /* \"#utility.yul\":1945:1946   */\n      dup2\n        /* \"#utility.yul\":1940:1943   */\n      dup5\n        /* \"#utility.yul\":1936:1947   */\n      add\n        /* \"#utility.yul\":1929:1968   */\n      mstore\n        /* \"#utility.yul\":1901:1903   */\n      0x20\n        /* \"#utility.yul\":1898:1899   */\n      dup2\n        /* \"#utility.yul\":1894:1904   */\n      add\n        /* \"#utility.yul\":1889:1904   */\n      swap1\n      pop\n        /* \"#utility.yul\":1865:1978   */\n      jump(tag_150)\n    tag_152:\n        /* \"#utility.yul\":1996:2002   */\n      dup4\n        /* \"#utility.yul\":1993:1994   */\n      dup2\n        /* \"#utility.yul\":1990:2003   */\n      gt\n        /* \"#utility.yul\":1987:2088   */\n      iszero\n      tag_153\n      jumpi\n        /* \"#utility.yul\":2076:2077   */\n      0x00\n        /* \"#utility.yul\":2067:2073   */\n      dup5\n        /* \"#utility.yul\":2062:2065   */\n      dup5\n        /* \"#utility.yul\":2058:2074   */\n      add\n        /* \"#utility.yul\":2051:2078   */\n      mstore\n        /* \"#utility.yul\":1987:2088   */\n    tag_153:\n        /* \"#utility.yul\":1836:2094   */\n      pop\n        /* \"#utility.yul\":1787:2094   */\n      pop\n      pop\n      pop\n      jump\t// out\n        /* \"#utility.yul\":2100:2202   */\n    tag_86:\n        /* \"#utility.yul\":2141:2147   */\n      0x00\n        /* \"#utility.yul\":2192:2194   */\n      0x1f\n        /* \"#utility.yul\":2188:2195   */\n      not\n        /* \"#utility.yul\":2183:2185   */\n      0x1f\n        /* \"#utility.yul\":2176:2181   */\n      dup4\n        /* \"#utility.yul\":2172:2186   */\n      add\n        /* \"#utility.yul\":2168:2196   */\n      and\n        /* \"#utility.yul\":2158:2196   */\n      swap1\n      pop\n        /* \"#utility.yul\":2100:2202   */\n      swap2\n      swap1\n      pop\n      jump\t// out\n        /* \"#utility.yul\":2208:2572   */\n    tag_87:\n        /* \"#utility.yul\":2296:2299   */\n      0x00\n        /* \"#utility.yul\":2324:2363   */\n      tag_156\n        /* \"#utility.yul\":2357:2362   */\n      dup3\n        /* \"#utility.yul\":2324:2363   */\n      tag_83\n      jump\t// in\n    tag_156:\n        /* \"#utility.yul\":2379:2450   */\n      tag_157\n        /* \"#utility.yul\":2443:2449   */\n      dup2\n        /* \"#utility.yul\":2438:2441   */\n      dup6\n        /* \"#utility.yul\":2379:2450   */\n      tag_84\n      jump\t// in\n    tag_157:\n        /* \"#utility.yul\":2372:2450   */\n      swap4\n      pop\n        /* \"#utility.yul\":2459:2511   */\n      tag_158\n        /* \"#utility.yul\":2504:2510   */\n      dup2\n        /* \"#utility.yul\":2499:2502   */\n      dup6\n        /* \"#utility.yul\":2492:2496   */\n      0x20\n        /* \"#utility.yul\":2485:2490   */\n      dup7\n        /* \"#utility.yul\":2481:2497   */\n      add\n        /* \"#utility.yul\":2459:2511   */\n      tag_85\n      jump\t// in\n    tag_158:\n        /* \"#utility.yul\":2536:2565   */\n      tag_159\n        /* \"#utility.yul\":2558:2564   */\n      dup2\n        /* \"#utility.yul\":2536:2565   */\n      tag_86\n      jump\t// in\n    tag_159:\n        /* \"#utility.yul\":2531:2534   */\n      dup5\n        /* \"#utility.yul\":2527:2566   */\n      add\n        /* \"#utility.yul\":2520:2566   */\n      swap2\n      pop\n        /* \"#utility.yul\":2300:2572   */\n      pop\n        /* \"#utility.yul\":2208:2572   */\n      swap3\n      swap2\n      pop\n      pop\n      jump\t// out\n        /* \"#utility.yul\":2578:3646   */\n    tag_11:\n        /* \"#utility.yul\":2879:2883   */\n      0x00\n        /* \"#utility.yul\":2917:2920   */\n      0xe0\n        /* \"#utility.yul\":2906:2915   */\n      dup3\n        /* \"#utility.yul\":2902:2921   */\n      add\n        /* \"#utility.yul\":2894:2921   */\n      swap1\n      pop\n        /* \"#utility.yul\":2931:3002   */\n      tag_161\n        /* \"#utility.yul\":2999:3000   */\n      0x00\n        /* \"#utility.yul\":2988:2997   */\n      dup4\n        /* \"#utility.yul\":2984:3001   */\n      add\n        /* \"#utility.yul\":2975:2981   */\n      dup11\n        /* \"#utility.yul\":2931:3002   */\n      tag_79\n      jump\t// in\n    tag_161:\n        /* \"#utility.yul\":3012:3084   */\n      tag_162\n        /* \"#utility.yul\":3080:3082   */\n      0x20\n        /* \"#utility.yul\":3069:3078   */\n      dup4\n        /* \"#utility.yul\":3065:3083   */\n      add\n        /* \"#utility.yul\":3056:3062   */\n      dup10\n        /* \"#utility.yul\":3012:3084   */\n      tag_79\n      jump\t// in\n    tag_162:\n        /* \"#utility.yul\":3094:3166   */\n      tag_163\n        /* \"#utility.yul\":3162:3164   */\n      0x40\n        /* \"#utility.yul\":3151:3160   */\n      dup4\n        /* \"#utility.yul\":3147:3165   */\n      add\n        /* \"#utility.yul\":3138:3144   */\n      dup9\n        /* \"#utility.yul\":3094:3166   */\n      tag_82\n      jump\t// in\n    tag_163:\n        /* \"#utility.yul\":3176:3248   */\n      tag_164\n        /* \"#utility.yul\":3244:3246   */\n      0x60\n        /* \"#utility.yul\":3233:3242   */\n      dup4\n        /* \"#utility.yul\":3229:3247   */\n      add\n        /* \"#utility.yul\":3220:3226   */\n      dup8\n        /* \"#utility.yul\":3176:3248   */\n      tag_82\n      jump\t// in\n    tag_164:\n        /* \"#utility.yul\":3258:3331   */\n      tag_165\n        /* \"#utility.yul\":3326:3329   */\n      0x80\n        /* \"#utility.yul\":3315:3324   */\n      dup4\n        /* \"#utility.yul\":3311:3330   */\n      add\n        /* \"#utility.yul\":3302:3308   */\n      dup7\n        /* \"#utility.yul\":3258:3331   */\n      tag_79\n      jump\t// in\n    tag_165:\n        /* \"#utility.yul\":3379:3388   */\n      dup2\n        /* \"#utility.yul\":3373:3377   */\n      dup2\n        /* \"#utility.yul\":3369:3389   */\n      sub\n        /* \"#utility.yul\":3363:3366   */\n      0xa0\n        /* \"#utility.yul\":3352:3361   */\n      dup4\n        /* \"#utility.yul\":3348:3367   */\n      add\n        /* \"#utility.yul\":3341:3390   */\n      mstore\n        /* \"#utility.yul\":3407:3485   */\n      tag_166\n        /* \"#utility.yul\":3480:3484   */\n      dup2\n        /* \"#utility.yul\":3471:3477   */\n      dup6\n        /* \"#utility.yul\":3407:3485   */\n      tag_87\n      jump\t// in\n    tag_166:\n        /* \"#utility.yul\":3399:3485   */\n      swap1\n      pop\n        /* \"#utility.yul\":3533:3542   */\n      dup2\n        /* \"#utility.yul\":3527:3531   */\n      dup2\n        /* \"#utility.yul\":3523:3543   */\n      sub\n        /* \"#utility.yul\":3517:3520   */\n      0xc0\n        /* \"#utility.yul\":3506:3515   */\n      dup4\n        /* \"#utility.yul\":3502:3521   */\n      add\n        /* \"#utility.yul\":3495:3544   */\n      mstore\n        /* \"#utility.yul\":3561:3639   */\n      tag_167\n        /* \"#utility.yul\":3634:3638   */\n      dup2\n        /* \"#utility.yul\":3625:3631   */\n      dup5\n        /* \"#utility.yul\":3561:3639   */\n      tag_87\n      jump\t// in\n    tag_167:\n        /* \"#utility.yul\":3553:3639   */\n      swap1\n      pop\n        /* \"#utility.yul\":2578:3646   */\n      swap9\n      swap8\n      pop\n      pop\n      pop\n      pop\n      pop\n      pop\n      pop\n      pop\n      jump\t// out\n        /* \"#utility.yul\":3652:3794   */\n    tag_88:\n        /* \"#utility.yul\":3747:3753   */\n      0x00\n        /* \"#utility.yul\":3781:3786   */\n      dup2\n        /* \"#utility.yul\":3775:3787   */\n      mload\n        /* \"#utility.yul\":3765:3787   */\n      swap1\n      pop\n        /* \"#utility.yul\":3652:3794   */\n      swap2\n      swap1\n      pop\n      jump\t// out\n        /* \"#utility.yul\":3800:4012   */\n    tag_89:\n        /* \"#utility.yul\":3927:3938   */\n      0x00\n        /* \"#utility.yul\":3961:3967   */\n      dup3\n        /* \"#utility.yul\":3956:3959   */\n      dup3\n        /* \"#utility.yul\":3949:3968   */\n      mstore\n        /* \"#utility.yul\":4001:4005   */\n      0x20\n        /* \"#utility.yul\":3996:3999   */\n      dup3\n        /* \"#utility.yul\":3992:4006   */\n      add\n        /* \"#utility.yul\":3977:4006   */\n      swap1\n      pop\n        /* \"#utility.yul\":3800:4012   */\n      swap3\n      swap2\n      pop\n      pop\n      jump\t// out\n        /* \"#utility.yul\":4018:4178   */\n    tag_90:\n        /* \"#utility.yul\":4113:4117   */\n      0x00\n        /* \"#utility.yul\":4136:4139   */\n      dup2\n        /* \"#utility.yul\":4128:4139   */\n      swap1\n      pop\n        /* \"#utility.yul\":4166:4170   */\n      0x20\n        /* \"#utility.yul\":4161:4164   */\n      dup3\n        /* \"#utility.yul\":4157:4171   */\n      add\n        /* \"#utility.yul\":4149:4171   */\n      swap1\n      pop\n        /* \"#utility.yul\":4018:4178   */\n      swap2\n      swap1\n      pop\n      jump\t// out\n        /* \"#utility.yul\":4184:4292   */\n    tag_91:\n        /* \"#utility.yul\":4261:4285   */\n      tag_172\n        /* \"#utility.yul\":4279:4284   */\n      dup2\n        /* \"#utility.yul\":4261:4285   */\n      tag_76\n      jump\t// in\n    tag_172:\n        /* \"#utility.yul\":4256:4259   */\n      dup3\n        /* \"#utility.yul\":4249:4286   */\n      mstore\n        /* \"#utility.yul\":4184:4292   */\n      pop\n      pop\n      jump\t// out\n        /* \"#utility.yul\":4298:4406   */\n    tag_92:\n        /* \"#utility.yul\":4375:4399   */\n      tag_174\n        /* \"#utility.yul\":4393:4398   */\n      dup2\n        /* \"#utility.yul\":4375:4399   */\n      tag_81\n      jump\t// in\n    tag_174:\n        /* \"#utility.yul\":4370:4373   */\n      dup3\n        /* \"#utility.yul\":4363:4400   */\n      mstore\n        /* \"#utility.yul\":4298:4406   */\n      pop\n      pop\n      jump\t// out\n        /* \"#utility.yul\":4412:4571   */\n    tag_93:\n        /* \"#utility.yul\":4486:4497   */\n      0x00\n        /* \"#utility.yul\":4520:4526   */\n      dup3\n        /* \"#utility.yul\":4515:4518   */\n      dup3\n        /* \"#utility.yul\":4508:4527   */\n      mstore\n        /* \"#utility.yul\":4560:4564   */\n      0x20\n        /* \"#utility.yul\":4555:4558   */\n      dup3\n        /* \"#utility.yul\":4551:4565   */\n      add\n        /* \"#utility.yul\":4536:4565   */\n      swap1\n      pop\n        /* \"#utility.yul\":4412:4571   */\n      swap3\n      swap2\n      pop\n      pop\n      jump\t// out\n        /* \"#utility.yul\":4577:4921   */\n    tag_94:\n        /* \"#utility.yul\":4655:4658   */\n      0x00\n        /* \"#utility.yul\":4683:4722   */\n      tag_177\n        /* \"#utility.yul\":4716:4721   */\n      dup3\n        /* \"#utility.yul\":4683:4722   */\n      tag_83\n      jump\t// in\n    tag_177:\n        /* \"#utility.yul\":4738:4799   */\n      tag_178\n        /* \"#utility.yul\":4792:4798   */\n      dup2\n        /* \"#utility.yul\":4787:4790   */\n      dup6\n        /* \"#utility.yul\":4738:4799   */\n      tag_93\n      jump\t// in\n    tag_178:\n        /* \"#utility.yul\":4731:4799   */\n      swap4\n      pop\n        /* \"#utility.yul\":4808:4860   */\n      tag_179\n        /* \"#utility.yul\":4853:4859   */\n      dup2\n        /* \"#utility.yul\":4848:4851   */\n      dup6\n        /* \"#utility.yul\":4841:4845   */\n      0x20\n        /* \"#utility.yul\":4834:4839   */\n      dup7\n        /* \"#utility.yul\":4830:4846   */\n      add\n        /* \"#utility.yul\":4808:4860   */\n      tag_85\n      jump\t// in\n    tag_179:\n        /* \"#utility.yul\":4885:4914   */\n      tag_180\n        /* \"#utility.yul\":4907:4913   */\n      dup2\n        /* \"#utility.yul\":4885:4914   */\n      tag_86\n      jump\t// in\n    tag_180:\n        /* \"#utility.yul\":4880:4883   */\n      dup5\n        /* \"#utility.yul\":4876:4915   */\n      add\n        /* \"#utility.yul\":4869:4915   */\n      swap2\n      pop\n        /* \"#utility.yul\":4659:4921   */\n      pop\n        /* \"#utility.yul\":4577:4921   */\n      swap3\n      swap2\n      pop\n      pop\n      jump\t// out\n        /* \"#utility.yul\":5019:6589   */\n    tag_95:\n        /* \"#utility.yul\":5134:5137   */\n      0x00\n        /* \"#utility.yul\":5170:5174   */\n      0xe0\n        /* \"#utility.yul\":5165:5168   */\n      dup4\n        /* \"#utility.yul\":5161:5175   */\n      add\n        /* \"#utility.yul\":5256:5260   */\n      0x00\n        /* \"#utility.yul\":5249:5254   */\n      dup4\n        /* \"#utility.yul\":5245:5261   */\n      add\n        /* \"#utility.yul\":5239:5262   */\n      mload\n        /* \"#utility.yul\":5275:5338   */\n      tag_182\n        /* \"#utility.yul\":5332:5336   */\n      0x00\n        /* \"#utility.yul\":5327:5330   */\n      dup7\n        /* \"#utility.yul\":5323:5337   */\n      add\n        /* \"#utility.yul\":5309:5321   */\n      dup3\n        /* \"#utility.yul\":5275:5338   */\n      tag_91\n      jump\t// in\n    tag_182:\n        /* \"#utility.yul\":5185:5348   */\n      pop\n        /* \"#utility.yul\":5432:5436   */\n      0x20\n        /* \"#utility.yul\":5425:5430   */\n      dup4\n        /* \"#utility.yul\":5421:5437   */\n      add\n        /* \"#utility.yul\":5415:5438   */\n      mload\n        /* \"#utility.yul\":5451:5514   */\n      tag_183\n        /* \"#utility.yul\":5508:5512   */\n      0x20\n        /* \"#utility.yul\":5503:5506   */\n      dup7\n        /* \"#utility.yul\":5499:5513   */\n      add\n        /* \"#utility.yul\":5485:5497   */\n      dup3\n        /* \"#utility.yul\":5451:5514   */\n      tag_91\n      jump\t// in\n    tag_183:\n        /* \"#utility.yul\":5358:5524   */\n      pop\n        /* \"#utility.yul\":5609:5613   */\n      0x40\n        /* \"#utility.yul\":5602:5607   */\n      dup4\n        /* \"#utility.yul\":5598:5614   */\n      add\n        /* \"#utility.yul\":5592:5615   */\n      mload\n        /* \"#utility.yul\":5628:5691   */\n      tag_184\n        /* \"#utility.yul\":5685:5689   */\n      0x40\n        /* \"#utility.yul\":5680:5683   */\n      dup7\n        /* \"#utility.yul\":5676:5690   */\n      add\n        /* \"#utility.yul\":5662:5674   */\n      dup3\n        /* \"#utility.yul\":5628:5691   */\n      tag_92\n      jump\t// in\n    tag_184:\n        /* \"#utility.yul\":5534:5701   */\n      pop\n        /* \"#utility.yul\":5788:5792   */\n      0x60\n        /* \"#utility.yul\":5781:5786   */\n      dup4\n        /* \"#utility.yul\":5777:5793   */\n      add\n        /* \"#utility.yul\":5771:5794   */\n      mload\n        /* \"#utility.yul\":5807:5870   */\n      tag_185\n        /* \"#utility.yul\":5864:5868   */\n      0x60\n        /* \"#utility.yul\":5859:5862   */\n      dup7\n        /* \"#utility.yul\":5855:5869   */\n      add\n        /* \"#utility.yul\":5841:5853   */\n      dup3\n        /* \"#utility.yul\":5807:5870   */\n      tag_92\n      jump\t// in\n    tag_185:\n        /* \"#utility.yul\":5711:5880   */\n      pop\n        /* \"#utility.yul\":5965:5969   */\n      0x80\n        /* \"#utility.yul\":5958:5963   */\n      dup4\n        /* \"#utility.yul\":5954:5970   */\n      add\n        /* \"#utility.yul\":5948:5971   */\n      mload\n        /* \"#utility.yul\":5984:6047   */\n      tag_186\n        /* \"#utility.yul\":6041:6045   */\n      0x80\n        /* \"#utility.yul\":6036:6039   */\n      dup7\n        /* \"#utility.yul\":6032:6046   */\n      add\n        /* \"#utility.yul\":6018:6030   */\n      dup3\n        /* \"#utility.yul\":5984:6047   */\n      tag_91\n      jump\t// in\n    tag_186:\n        /* \"#utility.yul\":5890:6057   */\n      pop\n        /* \"#utility.yul\":6146:6150   */\n      0xa0\n        /* \"#utility.yul\":6139:6144   */\n      dup4\n        /* \"#utility.yul\":6135:6151   */\n      add\n        /* \"#utility.yul\":6129:6152   */\n      mload\n        /* \"#utility.yul\":6199:6202   */\n      dup5\n        /* \"#utility.yul\":6193:6197   */\n      dup3\n        /* \"#utility.yul\":6189:6203   */\n      sub\n        /* \"#utility.yul\":6182:6186   */\n      0xa0\n        /* \"#utility.yul\":6177:6180   */\n      dup7\n        /* \"#utility.yul\":6173:6187   */\n      add\n        /* \"#utility.yul\":6166:6204   */\n      mstore\n        /* \"#utility.yul\":6225:6298   */\n      tag_187\n        /* \"#utility.yul\":6293:6297   */\n      dup3\n        /* \"#utility.yul\":6279:6291   */\n      dup3\n        /* \"#utility.yul\":6225:6298   */\n      tag_94\n      jump\t// in\n    tag_187:\n        /* \"#utility.yul\":6217:6298   */\n      swap2\n      pop\n        /* \"#utility.yul\":6067:6309   */\n      pop\n        /* \"#utility.yul\":6399:6403   */\n      0xc0\n        /* \"#utility.yul\":6392:6397   */\n      dup4\n        /* \"#utility.yul\":6388:6404   */\n      add\n        /* \"#utility.yul\":6382:6405   */\n      mload\n        /* \"#utility.yul\":6452:6455   */\n      dup5\n        /* \"#utility.yul\":6446:6450   */\n      dup3\n        /* \"#utility.yul\":6442:6456   */\n      sub\n        /* \"#utility.yul\":6435:6439   */\n      0xc0\n        /* \"#utility.yul\":6430:6433   */\n      dup7\n        /* \"#utility.yul\":6426:6440   */\n      add\n        /* \"#utility.yul\":6419:6457   */\n      mstore\n        /* \"#utility.yul\":6478:6551   */\n      tag_188\n        /* \"#utility.yul\":6546:6550   */\n      dup3\n        /* \"#utility.yul\":6532:6544   */\n      dup3\n        /* \"#utility.yul\":6478:6551   */\n      tag_94\n      jump\t// in\n    tag_188:\n        /* \"#utility.yul\":6470:6551   */\n      swap2\n      pop\n        /* \"#utility.yul\":6319:6562   */\n      pop\n        /* \"#utility.yul\":6579:6583   */\n      dup1\n        /* \"#utility.yul\":6572:6583   */\n      swap2\n      pop\n        /* \"#utility.yul\":5139:6589   */\n      pop\n        /* \"#utility.yul\":5019:6589   */\n      swap3\n      swap2\n      pop\n      pop\n      jump\t// out\n        /* \"#utility.yul\":6595:6863   */\n    tag_96:\n        /* \"#utility.yul\":6720:6730   */\n      0x00\n        /* \"#utility.yul\":6755:6857   */\n      tag_190\n        /* \"#utility.yul\":6853:6856   */\n      dup4\n        /* \"#utility.yul\":6845:6851   */\n      dup4\n        /* \"#utility.yul\":6755:6857   */\n      tag_95\n      jump\t// in\n    tag_190:\n        /* \"#utility.yul\":6741:6857   */\n      swap1\n      pop\n        /* \"#utility.yul\":6595:6863   */\n      swap3\n      swap2\n      pop\n      pop\n      jump\t// out\n        /* \"#utility.yul\":6869:7010   */\n    tag_97:\n        /* \"#utility.yul\":6967:6971   */\n      0x00\n        /* \"#utility.yul\":6999:7003   */\n      0x20\n        /* \"#utility.yul\":6994:6997   */\n      dup3\n        /* \"#utility.yul\":6990:7004   */\n      add\n        /* \"#utility.yul\":6982:7004   */\n      swap1\n      pop\n        /* \"#utility.yul\":6869:7010   */\n      swap2\n      swap1\n      pop\n      jump\t// out\n        /* \"#utility.yul\":7112:8247   */\n    tag_98:\n        /* \"#utility.yul\":7287:7290   */\n      0x00\n        /* \"#utility.yul\":7316:7398   */\n      tag_193\n        /* \"#utility.yul\":7392:7397   */\n      dup3\n        /* \"#utility.yul\":7316:7398   */\n      tag_88\n      jump\t// in\n    tag_193:\n        /* \"#utility.yul\":7414:7528   */\n      tag_194\n        /* \"#utility.yul\":7521:7527   */\n      dup2\n        /* \"#utility.yul\":7516:7519   */\n      dup6\n        /* \"#utility.yul\":7414:7528   */\n      tag_89\n      jump\t// in\n    tag_194:\n        /* \"#utility.yul\":7407:7528   */\n      swap4\n      pop\n        /* \"#utility.yul\":7554:7557   */\n      dup4\n        /* \"#utility.yul\":7599:7603   */\n      0x20\n        /* \"#utility.yul\":7591:7597   */\n      dup3\n        /* \"#utility.yul\":7587:7604   */\n      mul\n        /* \"#utility.yul\":7582:7585   */\n      dup6\n        /* \"#utility.yul\":7578:7605   */\n      add\n        /* \"#utility.yul\":7629:7713   */\n      tag_195\n        /* \"#utility.yul\":7707:7712   */\n      dup6\n        /* \"#utility.yul\":7629:7713   */\n      tag_90\n      jump\t// in\n    tag_195:\n        /* \"#utility.yul\":7736:7743   */\n      dup1\n        /* \"#utility.yul\":7767:7768   */\n      0x00\n        /* \"#utility.yul\":7752:8202   */\n    tag_196:\n        /* \"#utility.yul\":7777:7783   */\n      dup6\n        /* \"#utility.yul\":7774:7775   */\n      dup2\n        /* \"#utility.yul\":7771:7784   */\n      lt\n        /* \"#utility.yul\":7752:8202   */\n      iszero\n      tag_198\n      jumpi\n        /* \"#utility.yul\":7848:7857   */\n      dup5\n        /* \"#utility.yul\":7842:7846   */\n      dup5\n        /* \"#utility.yul\":7838:7858   */\n      sub\n        /* \"#utility.yul\":7833:7836   */\n      dup10\n        /* \"#utility.yul\":7826:7859   */\n      mstore\n        /* \"#utility.yul\":7899:7905   */\n      dup2\n        /* \"#utility.yul\":7893:7906   */\n      mload\n        /* \"#utility.yul\":7927:8047   */\n      tag_199\n        /* \"#utility.yul\":8042:8046   */\n      dup6\n        /* \"#utility.yul\":8027:8040   */\n      dup3\n        /* \"#utility.yul\":7927:8047   */\n      tag_96\n      jump\t// in\n    tag_199:\n        /* \"#utility.yul\":7919:8047   */\n      swap5\n      pop\n        /* \"#utility.yul\":8070:8158   */\n      tag_200\n        /* \"#utility.yul\":8151:8157   */\n      dup4\n        /* \"#utility.yul\":8070:8158   */\n      tag_97\n      jump\t// in\n    tag_200:\n        /* \"#utility.yul\":8060:8158   */\n      swap3\n      pop\n        /* \"#utility.yul\":8187:8191   */\n      0x20\n        /* \"#utility.yul\":8182:8185   */\n      dup11\n        /* \"#utility.yul\":8178:8192   */\n      add\n        /* \"#utility.yul\":8171:8192   */\n      swap10\n      pop\n        /* \"#utility.yul\":7812:8202   */\n      pop\n        /* \"#utility.yul\":7799:7800   */\n      0x01\n        /* \"#utility.yul\":7796:7797   */\n      dup2\n        /* \"#utility.yul\":7792:7801   */\n      add\n        /* \"#utility.yul\":7787:7801   */\n      swap1\n      pop\n        /* \"#utility.yul\":7752:8202   */\n      jump(tag_196)\n    tag_198:\n        /* \"#utility.yul\":7756:7770   */\n      pop\n        /* \"#utility.yul\":8218:8222   */\n      dup3\n        /* \"#utility.yul\":8211:8222   */\n      swap8\n      pop\n        /* \"#utility.yul\":8238:8241   */\n      dup8\n        /* \"#utility.yul\":8231:8241   */\n      swap6\n      pop\n        /* \"#utility.yul\":7292:8247   */\n      pop\n      pop\n      pop\n      pop\n      pop\n        /* \"#utility.yul\":7112:8247   */\n      swap3\n      swap2\n      pop\n      pop\n      jump\t// out\n        /* \"#utility.yul\":8253:8738   */\n    tag_16:\n        /* \"#utility.yul\":8452:8456   */\n      0x00\n        /* \"#utility.yul\":8490:8492   */\n      0x20\n        /* \"#utility.yul\":8479:8488   */\n      dup3\n        /* \"#utility.yul\":8475:8493   */\n      add\n        /* \"#utility.yul\":8467:8493   */\n      swap1\n      pop\n        /* \"#utility.yul\":8539:8548   */\n      dup2\n        /* \"#utility.yul\":8533:8537   */\n      dup2\n        /* \"#utility.yul\":8529:8549   */\n      sub\n        /* \"#utility.yul\":8525:8526   */\n      0x00\n        /* \"#utility.yul\":8514:8523   */\n      dup4\n        /* \"#utility.yul\":8510:8527   */\n      add\n        /* \"#utility.yul\":8503:8550   */\n      mstore\n        /* \"#utility.yul\":8567:8731   */\n      tag_202\n        /* \"#utility.yul\":8726:8730   */\n      dup2\n        /* \"#utility.yul\":8717:8723   */\n      dup5\n        /* \"#utility.yul\":8567:8731   */\n      tag_98\n      jump\t// in\n    tag_202:\n        /* \"#utility.yul\":8559:8731   */\n      swap1\n      pop\n        /* \"#utility.yul\":8253:8738   */\n      swap3\n      swap2\n      pop\n      pop\n      jump\t// out\n        /* \"#utility.yul\":8744:8866   */\n    tag_99:\n        /* \"#utility.yul\":8817:8841   */\n      tag_204\n        /* \"#utility.yul\":8835:8840   */\n      dup2\n        /* \"#utility.yul\":8817:8841   */\n      tag_81\n      jump\t// in\n    tag_204:\n        /* \"#utility.yul\":8810:8815   */\n      dup2\n        /* \"#utility.yul\":8807:8842   */\n      eq\n        /* \"#utility.yul\":8797:8860   */\n      tag_205\n      jumpi\n        /* \"#utility.yul\":8856:8857   */\n      0x00\n        /* \"#utility.yul\":8853:8854   */\n      dup1\n        /* \"#utility.yul\":8846:8858   */\n      revert\n        /* \"#utility.yul\":8797:8860   */\n    tag_205:\n        /* \"#utility.yul\":8744:8866   */\n      pop\n      jump\t// out\n        /* \"#utility.yul\":8872:9011   */\n    tag_100:\n        /* \"#utility.yul\":8918:8923   */\n      0x00\n        /* \"#utility.yul\":8956:8962   */\n      dup2\n        /* \"#utility.yul\":8943:8963   */\n      calldataload\n        /* \"#utility.yul\":8934:8963   */\n      swap1\n      pop\n        /* \"#utility.yul\":8972:9005   */\n      tag_207\n        /* \"#utility.yul\":8999:9004   */\n      dup2\n        /* \"#utility.yul\":8972:9005   */\n      tag_99\n      jump\t// in\n    tag_207:\n        /* \"#utility.yul\":8872:9011   */\n      swap3\n      swap2\n      pop\n      pop\n      jump\t// out\n        /* \"#utility.yul\":9017:9134   */\n    tag_101:\n        /* \"#utility.yul\":9126:9127   */\n      0x00\n        /* \"#utility.yul\":9123:9124   */\n      dup1\n        /* \"#utility.yul\":9116:9128   */\n      revert\n        /* \"#utility.yul\":9140:9257   */\n    tag_102:\n        /* \"#utility.yul\":9249:9250   */\n      0x00\n        /* \"#utility.yul\":9246:9247   */\n      dup1\n        /* \"#utility.yul\":9239:9251   */\n      revert\n        /* \"#utility.yul\":9263:9443   */\n    tag_37:\n        /* \"#utility.yul\":9311:9388   */\n      0x4e487b7100000000000000000000000000000000000000000000000000000000\n        /* \"#utility.yul\":9308:9309   */\n      0x00\n        /* \"#utility.yul\":9301:9389   */\n      mstore\n        /* \"#utility.yul\":9408:9412   */\n      0x41\n        /* \"#utility.yul\":9405:9406   */\n      0x04\n        /* \"#utility.yul\":9398:9413   */\n      mstore\n        /* \"#utility.yul\":9432:9436   */\n      0x24\n        /* \"#utility.yul\":9429:9430   */\n      0x00\n        /* \"#utility.yul\":9422:9437   */\n      revert\n        /* \"#utility.yul\":9449:9730   */\n    tag_103:\n        /* \"#utility.yul\":9532:9559   */\n      tag_212\n        /* \"#utility.yul\":9554:9558   */\n      dup3\n        /* \"#utility.yul\":9532:9559   */\n      tag_86\n      jump\t// in\n    tag_212:\n        /* \"#utility.yul\":9524:9530   */\n      dup2\n        /* \"#utility.yul\":9520:9560   */\n      add\n        /* \"#utility.yul\":9662:9668   */\n      dup2\n        /* \"#utility.yul\":9650:9660   */\n      dup2\n        /* \"#utility.yul\":9647:9669   */\n      lt\n        /* \"#utility.yul\":9626:9644   */\n      0xffffffffffffffff\n        /* \"#utility.yul\":9614:9624   */\n      dup3\n        /* \"#utility.yul\":9611:9645   */\n      gt\n        /* \"#utility.yul\":9608:9670   */\n      or\n        /* \"#utility.yul\":9605:9693   */\n      iszero\n      tag_213\n      jumpi\n        /* \"#utility.yul\":9673:9691   */\n      tag_214\n      tag_37\n      jump\t// in\n    tag_214:\n        /* \"#utility.yul\":9605:9693   */\n    tag_213:\n        /* \"#utility.yul\":9713:9723   */\n      dup1\n        /* \"#utility.yul\":9709:9711   */\n      0x40\n        /* \"#utility.yul\":9702:9724   */\n      mstore\n        /* \"#utility.yul\":9492:9730   */\n      pop\n        /* \"#utility.yul\":9449:9730   */\n      pop\n      pop\n      jump\t// out\n        /* \"#utility.yul\":9736:9865   */\n    tag_104:\n        /* \"#utility.yul\":9770:9776   */\n      0x00\n        /* \"#utility.yul\":9797:9817   */\n      tag_216\n      tag_73\n      jump\t// in\n    tag_216:\n        /* \"#utility.yul\":9787:9817   */\n      swap1\n      pop\n        /* \"#utility.yul\":9826:9859   */\n      tag_217\n        /* \"#utility.yul\":9854:9858   */\n      dup3\n        /* \"#utility.yul\":9846:9852   */\n      dup3\n        /* \"#utility.yul\":9826:9859   */\n      tag_103\n      jump\t// in\n    tag_217:\n        /* \"#utility.yul\":9736:9865   */\n      swap2\n      swap1\n      pop\n      jump\t// out\n        /* \"#utility.yul\":9871:10179   */\n    tag_105:\n        /* \"#utility.yul\":9933:9937   */\n      0x00\n        /* \"#utility.yul\":10023:10041   */\n      0xffffffffffffffff\n        /* \"#utility.yul\":10015:10021   */\n      dup3\n        /* \"#utility.yul\":10012:10042   */\n      gt\n        /* \"#utility.yul\":10009:10065   */\n      iszero\n      tag_219\n      jumpi\n        /* \"#utility.yul\":10045:10063   */\n      tag_220\n      tag_37\n      jump\t// in\n    tag_220:\n        /* \"#utility.yul\":10009:10065   */\n    tag_219:\n        /* \"#utility.yul\":10083:10112   */\n      tag_221\n        /* \"#utility.yul\":10105:10111   */\n      dup3\n        /* \"#utility.yul\":10083:10112   */\n      tag_86\n      jump\t// in\n    tag_221:\n        /* \"#utility.yul\":10075:10112   */\n      swap1\n      pop\n        /* \"#utility.yul\":10167:10171   */\n      0x20\n        /* \"#utility.yul\":10161:10165   */\n      dup2\n        /* \"#utility.yul\":10157:10172   */\n      add\n        /* \"#utility.yul\":10149:10172   */\n      swap1\n      pop\n        /* \"#utility.yul\":9871:10179   */\n      swap2\n      swap1\n      pop\n      jump\t// out\n        /* \"#utility.yul\":10185:10339   */\n    tag_106:\n        /* \"#utility.yul\":10269:10275   */\n      dup3\n        /* \"#utility.yul\":10264:10267   */\n      dup2\n        /* \"#utility.yul\":10259:10262   */\n      dup4\n        /* \"#utility.yul\":10246:10276   */\n      calldatacopy\n        /* \"#utility.yul\":10331:10332   */\n      0x00\n        /* \"#utility.yul\":10322:10328   */\n      dup4\n        /* \"#utility.yul\":10317:10320   */\n      dup4\n        /* \"#utility.yul\":10313:10329   */\n      add\n        /* \"#utility.yul\":10306:10333   */\n      mstore\n        /* \"#utility.yul\":10185:10339   */\n      pop\n      pop\n      pop\n      jump\t// out\n        /* \"#utility.yul\":10345:10757   */\n    tag_107:\n        /* \"#utility.yul\":10423:10428   */\n      0x00\n        /* \"#utility.yul\":10448:10514   */\n      tag_224\n        /* \"#utility.yul\":10464:10513   */\n      tag_225\n        /* \"#utility.yul\":10506:10512   */\n      dup5\n        /* \"#utility.yul\":10464:10513   */\n      tag_105\n      jump\t// in\n    tag_225:\n        /* \"#utility.yul\":10448:10514   */\n      tag_104\n      jump\t// in\n    tag_224:\n        /* \"#utility.yul\":10439:10514   */\n      swap1\n      pop\n        /* \"#utility.yul\":10537:10543   */\n      dup3\n        /* \"#utility.yul\":10530:10535   */\n      dup2\n        /* \"#utility.yul\":10523:10544   */\n      mstore\n        /* \"#utility.yul\":10575:10579   */\n      0x20\n        /* \"#utility.yul\":10568:10573   */\n      dup2\n        /* \"#utility.yul\":10564:10580   */\n      add\n        /* \"#utility.yul\":10613:10616   */\n      dup5\n        /* \"#utility.yul\":10604:10610   */\n      dup5\n        /* \"#utility.yul\":10599:10602   */\n      dup5\n        /* \"#utility.yul\":10595:10611   */\n      add\n        /* \"#utility.yul\":10592:10617   */\n      gt\n        /* \"#utility.yul\":10589:10701   */\n      iszero\n      tag_226\n      jumpi\n        /* \"#utility.yul\":10620:10699   */\n      tag_227\n      tag_102\n      jump\t// in\n    tag_227:\n        /* \"#utility.yul\":10589:10701   */\n    tag_226:\n        /* \"#utility.yul\":10710:10751   */\n      tag_228\n        /* \"#utility.yul\":10744:10750   */\n      dup5\n        /* \"#utility.yul\":10739:10742   */\n      dup3\n        /* \"#utility.yul\":10734:10737   */\n      dup6\n        /* \"#utility.yul\":10710:10751   */\n      tag_106\n      jump\t// in\n    tag_228:\n        /* \"#utility.yul\":10429:10757   */\n      pop\n        /* \"#utility.yul\":10345:10757   */\n      swap4\n      swap3\n      pop\n      pop\n      pop\n      jump\t// out\n        /* \"#utility.yul\":10777:11117   */\n    tag_108:\n        /* \"#utility.yul\":10833:10838   */\n      0x00\n        /* \"#utility.yul\":10882:10885   */\n      dup3\n        /* \"#utility.yul\":10875:10879   */\n      0x1f\n        /* \"#utility.yul\":10867:10873   */\n      dup4\n        /* \"#utility.yul\":10863:10880   */\n      add\n        /* \"#utility.yul\":10859:10886   */\n      slt\n        /* \"#utility.yul\":10849:10971   */\n      tag_230\n      jumpi\n        /* \"#utility.yul\":10890:10969   */\n      tag_231\n      tag_101\n      jump\t// in\n    tag_231:\n        /* \"#utility.yul\":10849:10971   */\n    tag_230:\n        /* \"#utility.yul\":11007:11013   */\n      dup2\n        /* \"#utility.yul\":10994:11014   */\n      calldataload\n        /* \"#utility.yul\":11032:11111   */\n      tag_232\n        /* \"#utility.yul\":11107:11110   */\n      dup5\n        /* \"#utility.yul\":11099:11105   */\n      dup3\n        /* \"#utility.yul\":11092:11096   */\n      0x20\n        /* \"#utility.yul\":11084:11090   */\n      dup7\n        /* \"#utility.yul\":11080:11097   */\n      add\n        /* \"#utility.yul\":11032:11111   */\n      tag_107\n      jump\t// in\n    tag_232:\n        /* \"#utility.yul\":11023:11111   */\n      swap2\n      pop\n        /* \"#utility.yul\":10839:11117   */\n      pop\n        /* \"#utility.yul\":10777:11117   */\n      swap3\n      swap2\n      pop\n      pop\n      jump\t// out\n        /* \"#utility.yul\":11123:11777   */\n    tag_19:\n        /* \"#utility.yul\":11201:11207   */\n      0x00\n        /* \"#utility.yul\":11209:11215   */\n      dup1\n        /* \"#utility.yul\":11258:11260   */\n      0x40\n        /* \"#utility.yul\":11246:11255   */\n      dup4\n        /* \"#utility.yul\":11237:11244   */\n      dup6\n        /* \"#utility.yul\":11233:11256   */\n      sub\n        /* \"#utility.yul\":11229:11261   */\n      slt\n        /* \"#utility.yul\":11226:11345   */\n      iszero\n      tag_234\n      jumpi\n        /* \"#utility.yul\":11264:11343   */\n      tag_235\n      tag_74\n      jump\t// in\n    tag_235:\n        /* \"#utility.yul\":11226:11345   */\n    tag_234:\n        /* \"#utility.yul\":11384:11385   */\n      0x00\n        /* \"#utility.yul\":11409:11462   */\n      tag_236\n        /* \"#utility.yul\":11454:11461   */\n      dup6\n        /* \"#utility.yul\":11445:11451   */\n      dup3\n        /* \"#utility.yul\":11434:11443   */\n      dup7\n        /* \"#utility.yul\":11430:11452   */\n      add\n        /* \"#utility.yul\":11409:11462   */\n      tag_100\n      jump\t// in\n    tag_236:\n        /* \"#utility.yul\":11399:11462   */\n      swap3\n      pop\n        /* \"#utility.yul\":11355:11472   */\n      pop\n        /* \"#utility.yul\":11539:11541   */\n      0x20\n        /* \"#utility.yul\":11528:11537   */\n      dup4\n        /* \"#utility.yul\":11524:11542   */\n      add\n        /* \"#utility.yul\":11511:11543   */\n      calldataload\n        /* \"#utility.yul\":11570:11588   */\n      0xffffffffffffffff\n        /* \"#utility.yul\":11562:11568   */\n      dup2\n        /* \"#utility.yul\":11559:11589   */\n      gt\n        /* \"#utility.yul\":11556:11673   */\n      iszero\n      tag_237\n      jumpi\n        /* \"#utility.yul\":11592:11671   */\n      tag_238\n      tag_75\n      jump\t// in\n    tag_238:\n        /* \"#utility.yul\":11556:11673   */\n    tag_237:\n        /* \"#utility.yul\":11697:11760   */\n      tag_239\n        /* \"#utility.yul\":11752:11759   */\n      dup6\n        /* \"#utility.yul\":11743:11749   */\n      dup3\n        /* \"#utility.yul\":11732:11741   */\n      dup7\n        /* \"#utility.yul\":11728:11750   */\n      add\n        /* \"#utility.yul\":11697:11760   */\n      tag_108\n      jump\t// in\n    tag_239:\n        /* \"#utility.yul\":11687:11760   */\n      swap2\n      pop\n        /* \"#utility.yul\":11482:11770   */\n      pop\n        /* \"#utility.yul\":11123:11777   */\n      swap3\n      pop\n      swap3\n      swap1\n      pop\n      jump\t// out\n        /* \"#utility.yul\":11783:11963   */\n    tag_109:\n        /* \"#utility.yul\":11831:11908   */\n      0x4e487b7100000000000000000000000000000000000000000000000000000000\n        /* \"#utility.yul\":11828:11829   */\n      0x00\n        /* \"#utility.yul\":11821:11909   */\n      mstore\n        /* \"#utility.yul\":11928:11932   */\n      0x22\n        /* \"#utility.yul\":11925:11926   */\n      0x04\n        /* \"#utility.yul\":11918:11933   */\n      mstore\n        /* \"#utility.yul\":11952:11956   */\n      0x24\n        /* \"#utility.yul\":11949:11950   */\n      0x00\n        /* \"#utility.yul\":11942:11957   */\n      revert\n        /* \"#utility.yul\":11969:12289   */\n    tag_24:\n        /* \"#utility.yul\":12013:12019   */\n      0x00\n        /* \"#utility.yul\":12050:12051   */\n      0x02\n        /* \"#utility.yul\":12044:12048   */\n      dup3\n        /* \"#utility.yul\":12040:12052   */\n      div\n        /* \"#utility.yul\":12030:12052   */\n      swap1\n      pop\n        /* \"#utility.yul\":12097:12098   */\n      0x01\n        /* \"#utility.yul\":12091:12095   */\n      dup3\n        /* \"#utility.yul\":12087:12099   */\n      and\n        /* \"#utility.yul\":12118:12136   */\n      dup1\n        /* \"#utility.yul\":12108:12189   */\n      tag_242\n      jumpi\n        /* \"#utility.yul\":12174:12178   */\n      0x7f\n        /* \"#utility.yul\":12166:12172   */\n      dup3\n        /* \"#utility.yul\":12162:12179   */\n      and\n        /* \"#utility.yul\":12152:12179   */\n      swap2\n      pop\n        /* \"#utility.yul\":12108:12189   */\n    tag_242:\n        /* \"#utility.yul\":12236:12238   */\n      0x20\n        /* \"#utility.yul\":12228:12234   */\n      dup3\n        /* \"#utility.yul\":12225:12239   */\n      lt\n        /* \"#utility.yul\":12205:12223   */\n      dup2\n        /* \"#utility.yul\":12202:12240   */\n      sub\n        /* \"#utility.yul\":12199:12283   */\n      tag_243\n      jumpi\n        /* \"#utility.yul\":12255:12273   */\n      tag_244\n      tag_109\n      jump\t// in\n    tag_244:\n        /* \"#utility.yul\":12199:12283   */\n    tag_243:\n        /* \"#utility.yul\":12020:12289   */\n      pop\n        /* \"#utility.yul\":11969:12289   */\n      swap2\n      swap1\n      pop\n      jump\t// out\n        /* \"#utility.yul\":12295:12475   */\n    tag_47:\n        /* \"#utility.yul\":12343:12420   */\n      0x4e487b7100000000000000000000000000000000000000000000000000000000\n        /* \"#utility.yul\":12340:12341   */\n      0x00\n        /* \"#utility.yul\":12333:12421   */\n      mstore\n        /* \"#utility.yul\":12440:12444   */\n      0x32\n        /* \"#utility.yul\":12437:12438   */\n      0x04\n        /* \"#utility.yul\":12430:12445   */\n      mstore\n        /* \"#utility.yul\":12464:12468   */\n      0x24\n        /* \"#utility.yul\":12461:12462   */\n      0x00\n        /* \"#utility.yul\":12454:12469   */\n      revert\n        /* \"#utility.yul\":12481:12661   */\n    tag_110:\n        /* \"#utility.yul\":12529:12606   */\n      0x4e487b7100000000000000000000000000000000000000000000000000000000\n        /* \"#utility.yul\":12526:12527   */\n      0x00\n        /* \"#utility.yul\":12519:12607   */\n      mstore\n        /* \"#utility.yul\":12626:12630   */\n      0x11\n        /* \"#utility.yul\":12623:12624   */\n      0x04\n        /* \"#utility.yul\":12616:12631   */\n      mstore\n        /* \"#utility.yul\":12650:12654   */\n      0x24\n        /* \"#utility.yul\":12647:12648   */\n      0x00\n        /* \"#utility.yul\":12640:12655   */\n      revert\n        /* \"#utility.yul\":12667:12900   */\n    tag_66:\n        /* \"#utility.yul\":12706:12709   */\n      0x00\n        /* \"#utility.yul\":12729:12753   */\n      tag_248\n        /* \"#utility.yul\":12747:12752   */\n      dup3\n        /* \"#utility.yul\":12729:12753   */\n      tag_76\n      jump\t// in\n    tag_248:\n        /* \"#utility.yul\":12720:12753   */\n      swap2\n      pop\n        /* \"#utility.yul\":12775:12841   */\n      0xffffffffffffffffffffffffffffffffffffffffffffffffffffffffffffffff\n        /* \"#utility.yul\":12768:12773   */\n      dup3\n        /* \"#utility.yul\":12765:12842   */\n      sub\n        /* \"#utility.yul\":12762:12865   */\n      tag_249\n      jumpi\n        /* \"#utility.yul\":12845:12863   */\n      tag_250\n      tag_110\n      jump\t// in\n    tag_250:\n        /* \"#utility.yul\":12762:12865   */\n    tag_249:\n        /* \"#utility.yul\":12892:12893   */\n      0x01\n        /* \"#utility.yul\":12885:12890   */\n      dup3\n        /* \"#utility.yul\":12881:12894   */\n      add\n        /* \"#utility.yul\":12874:12894   */\n      swap1\n      pop\n        /* \"#utility.yul\":12667:12900   */\n      swap2\n      swap1\n      pop\n      jump\t// out\n        /* \"#utility.yul\":12906:13047   */\n    tag_111:\n        /* \"#utility.yul\":12955:12959   */\n      0x00\n        /* \"#utility.yul\":12978:12981   */\n      dup2\n        /* \"#utility.yul\":12970:12981   */\n      swap1\n      pop\n        /* \"#utility.yul\":13001:13004   */\n      dup2\n        /* \"#utility.yul\":12998:12999   */\n      0x00\n        /* \"#utility.yul\":12991:13005   */\n      mstore\n        /* \"#utility.yul\":13035:13039   */\n      0x20\n        /* \"#utility.yul\":13032:13033   */\n      0x00\n        /* \"#utility.yul\":13022:13040   */\n      keccak256\n        /* \"#utility.yul\":13014:13040   */\n      swap1\n      pop\n        /* \"#utility.yul\":12906:13047   */\n      swap2\n      swap1\n      pop\n      jump\t// out\n        /* \"#utility.yul\":13053:13146   */\n    tag_112:\n        /* \"#utility.yul\":13090:13096   */\n      0x00\n        /* \"#utility.yul\":13137:13139   */\n      0x20\n        /* \"#utility.yul\":13132:13134   */\n      0x1f\n        /* \"#utility.yul\":13125:13130   */\n      dup4\n        /* \"#utility.yul\":13121:13135   */\n      add\n        /* \"#utility.yul\":13117:13140   */\n      div\n        /* \"#utility.yul\":13107:13140   */\n      swap1\n      pop\n        /* \"#utility.yul\":13053:13146   */\n      swap2\n      swap1\n      pop\n      jump\t// out\n        /* \"#utility.yul\":13152:13259   */\n    tag_113:\n        /* \"#utility.yul\":13196:13204   */\n      0x00\n        /* \"#utility.yul\":13246:13251   */\n      dup3\n        /* \"#utility.yul\":13240:13244   */\n      dup3\n        /* \"#utility.yul\":13236:13252   */\n      shl\n        /* \"#utility.yul\":13215:13252   */\n      swap1\n      pop\n        /* \"#utility.yul\":13152:13259   */\n      swap3\n      swap2\n      pop\n      pop\n      jump\t// out\n        /* \"#utility.yul\":13265:13658   */\n    tag_114:\n        /* \"#utility.yul\":13334:13340   */\n      0x00\n        /* \"#utility.yul\":13384:13385   */\n      0x08\n        /* \"#utility.yul\":13372:13382   */\n      dup4\n        /* \"#utility.yul\":13368:13386   */\n      mul\n        /* \"#utility.yul\":13407:13504   */\n      tag_255\n        /* \"#utility.yul\":13437:13503   */\n      0xffffffffffffffffffffffffffffffffffffffffffffffffffffffffffffffff\n        /* \"#utility.yul\":13426:13435   */\n      dup3\n        /* \"#utility.yul\":13407:13504   */\n      tag_113\n      jump\t// in\n    tag_255:\n        /* \"#utility.yul\":13525:13564   */\n      tag_256\n        /* \"#utility.yul\":13555:13563   */\n      dup7\n        /* \"#utility.yul\":13544:13553   */\n      dup4\n        /* \"#utility.yul\":13525:13564   */\n      tag_113\n      jump\t// in\n    tag_256:\n        /* \"#utility.yul\":13513:13564   */\n      swap6\n      pop\n        /* \"#utility.yul\":13597:13601   */\n      dup1\n        /* \"#utility.yul\":13593:13602   */\n      not\n        /* \"#utility.yul\":13586:13591   */\n      dup5\n        /* \"#utility.yul\":13582:13603   */\n      and\n        /* \"#utility.yul\":13573:13603   */\n      swap4\n      pop\n        /* \"#utility.yul\":13646:13650   */\n      dup1\n        /* \"#utility.yul\":13636:13644   */\n      dup7\n        /* \"#utility.yul\":13632:13651   */\n      and\n        /* \"#utility.yul\":13625:13630   */\n      dup5\n        /* \"#utility.yul\":13622:13652   */\n      or\n        /* \"#utility.yul\":13612:13652   */\n      swap3\n      pop\n        /* \"#utility.yul\":13341:13658   */\n      pop\n      pop\n        /* \"#utility.yul\":13265:13658   */\n      swap4\n      swap3\n      pop\n      pop\n      pop\n      jump\t// out\n        /* \"#utility.yul\":13664:13724   */\n    tag_115:\n        /* \"#utility.yul\":13692:13695   */\n      0x00\n        /* \"#utility.yul\":13713:13718   */\n      dup2\n        /* \"#utility.yul\":13706:13718   */\n      swap1\n      pop\n        /* \"#utility.yul\":13664:13724   */\n      swap2\n      swap1\n      pop\n      jump\t// out\n        /* \"#utility.yul\":13730:13872   */\n    tag_116:\n        /* \"#utility.yul\":13780:13789   */\n      0x00\n        /* \"#utility.yul\":13813:13866   */\n      tag_259\n        /* \"#utility.yul\":13831:13865   */\n      tag_260\n        /* \"#utility.yul\":13840:13864   */\n      tag_261\n        /* \"#utility.yul\":13858:13863   */\n      dup5\n        /* \"#utility.yul\":13840:13864   */\n      tag_76\n      jump\t// in\n    tag_261:\n        /* \"#utility.yul\":13831:13865   */\n      tag_115\n      jump\t// in\n    tag_260:\n        /* \"#utility.yul\":13813:13866   */\n      tag_76\n      jump\t// in\n    tag_259:\n        /* \"#utility.yul\":13800:13866   */\n      swap1\n      pop\n        /* \"#utility.yul\":13730:13872   */\n      swap2\n      swap1\n      pop\n      jump\t// out\n        /* \"#utility.yul\":13878:13953   */\n    tag_117:\n        /* \"#utility.yul\":13921:13924   */\n      0x00\n        /* \"#utility.yul\":13942:13947   */\n      dup2\n        /* \"#utility.yul\":13935:13947   */\n      swap1\n      pop\n        /* \"#utility.yul\":13878:13953   */\n      swap2\n      swap1\n      pop\n      jump\t// out\n        /* \"#utility.yul\":13959:14228   */\n    tag_118:\n        /* \"#utility.yul\":14069:14108   */\n      tag_264\n        /* \"#utility.yul\":14100:14107   */\n      dup4\n        /* \"#utility.yul\":14069:14108   */\n      tag_116\n      jump\t// in\n    tag_264:\n        /* \"#utility.yul\":14130:14221   */\n      tag_265\n        /* \"#utility.yul\":14179:14220   */\n      tag_266\n        /* \"#utility.yul\":14203:14219   */\n      dup3\n        /* \"#utility.yul\":14179:14220   */\n      tag_117\n      jump\t// in\n    tag_266:\n        /* \"#utility.yul\":14171:14177   */\n      dup5\n        /* \"#utility.yul\":14164:14168   */\n      dup5\n        /* \"#utility.yul\":14158:14169   */\n      sload\n        /* \"#utility.yul\":14130:14221   */\n      tag_114\n      jump\t// in\n    tag_265:\n        /* \"#utility.yul\":14124:14128   */\n      dup3\n        /* \"#utility.yul\":14117:14222   */\n      sstore\n        /* \"#utility.yul\":14035:14228   */\n      pop\n        /* \"#utility.yul\":13959:14228   */\n      pop\n      pop\n      pop\n      jump\t// out\n        /* \"#utility.yul\":14234:14307   */\n    tag_119:\n        /* \"#utility.yul\":14279:14282   */\n      0x00\n        /* \"#utility.yul\":14234:14307   */\n      swap1\n      jump\t// out\n        /* \"#utility.yul\":14313:14502   */\n    tag_120:\n        /* \"#utility.yul\":14390:14422   */\n      tag_269\n      tag_119\n      jump\t// in\n    tag_269:\n        /* \"#utility.yul\":14431:14496   */\n      tag_270\n        /* \"#utility.yul\":14489:14495   */\n      dup2\n        /* \"#utility.yul\":14481:14487   */\n      dup5\n        /* \"#utility.yul\":14475:14479   */\n      dup5\n        /* \"#utility.yul\":14431:14496   */\n      tag_118\n      jump\t// in\n    tag_270:\n        /* \"#utility.yul\":14366:14502   */\n      pop\n        /* \"#utility.yul\":14313:14502   */\n      pop\n      pop\n      jump\t// out\n        /* \"#utility.yul\":14508:14694   */\n    tag_121:\n        /* \"#utility.yul\":14568:14688   */\n    tag_272:\n        /* \"#utility.yul\":14585:14588   */\n      dup2\n        /* \"#utility.yul\":14578:14583   */\n      dup2\n        /* \"#utility.yul\":14575:14589   */\n      lt\n        /* \"#utility.yul\":14568:14688   */\n      iszero\n      tag_274\n      jumpi\n        /* \"#utility.yul\":14639:14678   */\n      tag_275\n        /* \"#utility.yul\":14676:14677   */\n      0x00\n        /* \"#utility.yul\":14669:14674   */\n      dup3\n        /* \"#utility.yul\":14639:14678   */\n      tag_120\n      jump\t// in\n    tag_275:\n        /* \"#utility.yul\":14612:14613   */\n      0x01\n        /* \"#utility.yul\":14605:14610   */\n      dup2\n        /* \"#utility.yul\":14601:14614   */\n      add\n        /* \"#utility.yul\":14592:14614   */\n      swap1\n      pop\n        /* \"#utility.yul\":14568:14688   */\n      jump(tag_272)\n    tag_274:\n        /* \"#utility.yul\":14508:14694   */\n      pop\n      pop\n      jump\t// out\n        /* \"#utility.yul\":14700:15243   */\n    tag_122:\n        /* \"#utility.yul\":14801:14803   */\n      0x1f\n        /* \"#utility.yul\":14796:14799   */\n      dup3\n        /* \"#utility.yul\":14793:14804   */\n      gt\n        /* \"#utility.yul\":14790:15236   */\n      iszero\n      tag_277\n      jumpi\n        /* \"#utility.yul\":14835:14873   */\n      tag_278\n        /* \"#utility.yul\":14867:14872   */\n      dup2\n        /* \"#utility.yul\":14835:14873   */\n      tag_111\n      jump\t// in\n    tag_278:\n        /* \"#utility.yul\":14919:14948   */\n      tag_279\n        /* \"#utility.yul\":14937:14947   */\n      dup5\n        /* \"#utility.yul\":14919:14948   */\n      tag_112\n      jump\t// in\n    tag_279:\n        /* \"#utility.yul\":14909:14917   */\n      dup2\n        /* \"#utility.yul\":14905:14949   */\n      add\n        /* \"#utility.yul\":15102:15104   */\n      0x20\n        /* \"#utility.yul\":15090:15100   */\n      dup6\n        /* \"#utility.yul\":15087:15105   */\n      lt\n        /* \"#utility.yul\":15084:15133   */\n      iszero\n      tag_280\n      jumpi\n        /* \"#utility.yul\":15123:15131   */\n      dup2\n        /* \"#utility.yul\":15108:15131   */\n      swap1\n      pop\n        /* \"#utility.yul\":15084:15133   */\n    tag_280:\n        /* \"#utility.yul\":15146:15226   */\n      tag_281\n        /* \"#utility.yul\":15202:15224   */\n      tag_282\n        /* \"#utility.yul\":15220:15223   */\n      dup6\n        /* \"#utility.yul\":15202:15224   */\n      tag_112\n      jump\t// in\n    tag_282:\n        /* \"#utility.yul\":15192:15200   */\n      dup4\n        /* \"#utility.yul\":15188:15225   */\n      add\n        /* \"#utility.yul\":15175:15186   */\n      dup3\n        /* \"#utility.yul\":15146:15226   */\n      tag_121\n      jump\t// in\n    tag_281:\n        /* \"#utility.yul\":14805:15236   */\n      pop\n      pop\n        /* \"#utility.yul\":14790:15236   */\n    tag_277:\n        /* \"#utility.yul\":14700:15243   */\n      pop\n      pop\n      pop\n      jump\t// out\n        /* \"#utility.yul\":15249:15366   */\n    tag_123:\n        /* \"#utility.yul\":15303:15311   */\n      0x00\n        /* \"#utility.yul\":15353:15358   */\n      dup3\n        /* \"#utility.yul\":15347:15351   */\n      dup3\n        /* \"#utility.yul\":15343:15359   */\n      shr\n        /* \"#utility.yul\":15322:15359   */\n      swap1\n      pop\n        /* \"#utility.yul\":15249:15366   */\n      swap3\n      swap2\n      pop\n      pop\n      jump\t// out\n        /* \"#utility.yul\":15372:15541   */\n    tag_124:\n        /* \"#utility.yul\":15416:15422   */\n      0x00\n        /* \"#utility.yul\":15449:15500   */\n      tag_285\n        /* \"#utility.yul\":15497:15498   */\n      0x00\n        /* \"#utility.yul\":15493:15499   */\n      not\n        /* \"#utility.yul\":15485:15490   */\n      dup5\n        /* \"#utility.yul\":15482:15483   */\n      0x08\n        /* \"#utility.yul\":15478:15491   */\n      mul\n        /* \"#utility.yul\":15449:15500   */\n      tag_123\n      jump\t// in\n    tag_285:\n        /* \"#utility.yul\":15445:15501   */\n      not\n        /* \"#utility.yul\":15530:15534   */\n      dup1\n        /* \"#utility.yul\":15524:15528   */\n      dup4\n        /* \"#utility.yul\":15520:15535   */\n      and\n        /* \"#utility.yul\":15510:15535   */\n      swap2\n      pop\n        /* \"#utility.yul\":15423:15541   */\n      pop\n        /* \"#utility.yul\":15372:15541   */\n      swap3\n      swap2\n      pop\n      pop\n      jump\t// out\n        /* \"#utility.yul\":15546:15841   */\n    tag_125:\n        /* \"#utility.yul\":15622:15626   */\n      0x00\n        /* \"#utility.yul\":15768:15797   */\n      tag_287\n        /* \"#utility.yul\":15793:15796   */\n      dup4\n        /* \"#utility.yul\":15787:15791   */\n      dup4\n        /* \"#utility.yul\":15768:15797   */\n      tag_124\n      jump\t// in\n    tag_287:\n        /* \"#utility.yul\":15760:15797   */\n      swap2\n      pop\n        /* \"#utility.yul\":15830:15833   */\n      dup3\n        /* \"#utility.yul\":15827:15828   */\n      0x02\n        /* \"#utility.yul\":15823:15834   */\n      mul\n        /* \"#utility.yul\":15817:15821   */\n      dup3\n        /* \"#utility.yul\":15814:15835   */\n      or\n        /* \"#utility.yul\":15806:15835   */\n      swap1\n      pop\n        /* \"#utility.yul\":15546:15841   */\n      swap3\n      swap2\n      pop\n      pop\n      jump\t// out\n        /* \"#utility.yul\":15846:17241   */\n    tag_71:\n        /* \"#utility.yul\":15963:16000   */\n      tag_289\n        /* \"#utility.yul\":15996:15999   */\n      dup3\n        /* \"#utility.yul\":15963:16000   */\n      tag_83\n      jump\t// in\n    tag_289:\n        /* \"#utility.yul\":16065:16083   */\n      0xffffffffffffffff\n        /* \"#utility.yul\":16057:16063   */\n      dup2\n        /* \"#utility.yul\":16054:16084   */\n      gt\n        /* \"#utility.yul\":16051:16107   */\n      iszero\n      tag_290\n      jumpi\n        /* \"#utility.yul\":16087:16105   */\n      tag_291\n      tag_37\n      jump\t// in\n    tag_291:\n        /* \"#utility.yul\":16051:16107   */\n    tag_290:\n        /* \"#utility.yul\":16131:16169   */\n      tag_292\n        /* \"#utility.yul\":16163:16167   */\n      dup3\n        /* \"#utility.yul\":16157:16168   */\n      sload\n        /* \"#utility.yul\":16131:16169   */\n      tag_24\n      jump\t// in\n    tag_292:\n        /* \"#utility.yul\":16216:16283   */\n      tag_293\n        /* \"#utility.yul\":16276:16282   */\n      dup3\n        /* \"#utility.yul\":16268:16274   */\n      dup3\n        /* \"#utility.yul\":16262:16266   */\n      dup6\n        /* \"#utility.yul\":16216:16283   */\n      tag_122\n      jump\t// in\n    tag_293:\n        /* \"#utility.yul\":16310:16311   */\n      0x00\n        /* \"#utility.yul\":16334:16338   */\n      0x20\n        /* \"#utility.yul\":16321:16338   */\n      swap1\n      pop\n        /* \"#utility.yul\":16366:16368   */\n      0x1f\n        /* \"#utility.yul\":16358:16364   */\n      dup4\n        /* \"#utility.yul\":16355:16369   */\n      gt\n        /* \"#utility.yul\":16383:16384   */\n      0x01\n        /* \"#utility.yul\":16378:16996   */\n      dup2\n      eq\n      tag_295\n      jumpi\n        /* \"#utility.yul\":17040:17041   */\n      0x00\n        /* \"#utility.yul\":17057:17063   */\n      dup5\n        /* \"#utility.yul\":17054:17131   */\n      iszero\n      tag_296\n      jumpi\n        /* \"#utility.yul\":17106:17115   */\n      dup3\n        /* \"#utility.yul\":17101:17104   */\n      dup8\n        /* \"#utility.yul\":17097:17116   */\n      add\n        /* \"#utility.yul\":17091:17117   */\n      mload\n        /* \"#utility.yul\":17082:17117   */\n      swap1\n      pop\n        /* \"#utility.yul\":17054:17131   */\n    tag_296:\n        /* \"#utility.yul\":17157:17224   */\n      tag_297\n        /* \"#utility.yul\":17217:17223   */\n      dup6\n        /* \"#utility.yul\":17210:17215   */\n      dup3\n        /* \"#utility.yul\":17157:17224   */\n      tag_125\n      jump\t// in\n    tag_297:\n        /* \"#utility.yul\":17151:17155   */\n      dup7\n        /* \"#utility.yul\":17144:17225   */\n      sstore\n        /* \"#utility.yul\":17013:17235   */\n      pop\n        /* \"#utility.yul\":16348:17235   */\n      jump(tag_294)\n        /* \"#utility.yul\":16378:16996   */\n    tag_295:\n        /* \"#utility.yul\":16430:16434   */\n      0x1f\n        /* \"#utility.yul\":16426:16435   */\n      not\n        /* \"#utility.yul\":16418:16424   */\n      dup5\n        /* \"#utility.yul\":16414:16436   */\n      and\n        /* \"#utility.yul\":16464:16501   */\n      tag_298\n        /* \"#utility.yul\":16496:16500   */\n      dup7\n        /* \"#utility.yul\":16464:16501   */\n      tag_111\n      jump\t// in\n    tag_298:\n        /* \"#utility.yul\":16523:16524   */\n      0x00\n        /* \"#utility.yul\":16537:16745   */\n    tag_299:\n        /* \"#utility.yul\":16551:16558   */\n      dup3\n        /* \"#utility.yul\":16548:16549   */\n      dup2\n        /* \"#utility.yul\":16545:16559   */\n      lt\n        /* \"#utility.yul\":16537:16745   */\n      iszero\n      tag_301\n      jumpi\n        /* \"#utility.yul\":16630:16639   */\n      dup5\n        /* \"#utility.yul\":16625:16628   */\n      dup10\n        /* \"#utility.yul\":16621:16640   */\n      add\n        /* \"#utility.yul\":16615:16641   */\n      mload\n        /* \"#utility.yul\":16607:16613   */\n      dup3\n        /* \"#utility.yul\":16600:16642   */\n      sstore\n        /* \"#utility.yul\":16681:16682   */\n      0x01\n        /* \"#utility.yul\":16673:16679   */\n      dup3\n        /* \"#utility.yul\":16669:16683   */\n      add\n        /* \"#utility.yul\":16659:16683   */\n      swap2\n      pop\n        /* \"#utility.yul\":16728:16730   */\n      0x20\n        /* \"#utility.yul\":16717:16726   */\n      dup6\n        /* \"#utility.yul\":16713:16731   */\n      add\n        /* \"#utility.yul\":16700:16731   */\n      swap5\n      pop\n        /* \"#utility.yul\":16574:16578   */\n      0x20\n        /* \"#utility.yul\":16571:16572   */\n      dup2\n        /* \"#utility.yul\":16567:16579   */\n      add\n        /* \"#utility.yul\":16562:16579   */\n      swap1\n      pop\n        /* \"#utility.yul\":16537:16745   */\n      jump(tag_299)\n    tag_301:\n        /* \"#utility.yul\":16773:16779   */\n      dup7\n        /* \"#utility.yul\":16764:16771   */\n      dup4\n        /* \"#utility.yul\":16761:16780   */\n      lt\n        /* \"#utility.yul\":16758:16937   */\n      iszero\n      tag_302\n      jumpi\n        /* \"#utility.yul\":16831:16840   */\n      dup5\n        /* \"#utility.yul\":16826:16829   */\n      dup10\n        /* \"#utility.yul\":16822:16841   */\n      add\n        /* \"#utility.yul\":16816:16842   */\n      mload\n        /* \"#utility.yul\":16874:16922   */\n      tag_303\n        /* \"#utility.yul\":16916:16920   */\n      0x1f\n        /* \"#utility.yul\":16908:16914   */\n      dup10\n        /* \"#utility.yul\":16904:16921   */\n      and\n        /* \"#utility.yul\":16893:16902   */\n      dup3\n        /* \"#utility.yul\":16874:16922   */\n      tag_124\n      jump\t// in\n    tag_303:\n        /* \"#utility.yul\":16866:16872   */\n      dup4\n        /* \"#utility.yul\":16859:16923   */\n      sstore\n        /* \"#utility.yul\":16781:16937   */\n      pop\n        /* \"#utility.yul\":16758:16937   */\n    tag_302:\n        /* \"#utility.yul\":16983:16984   */\n      0x01\n        /* \"#utility.yul\":16979:16980   */\n      0x02\n        /* \"#utility.yul\":16971:16977   */\n      dup9\n        /* \"#utility.yul\":16967:16981   */\n      mul\n        /* \"#utility.yul\":16963:16985   */\n      add\n        /* \"#utility.yul\":16957:16961   */\n      dup9\n        /* \"#utility.yul\":16950:16986   */\n      sstore\n        /* \"#utility.yul\":16385:16996   */\n      pop\n      pop\n      pop\n        /* \"#utility.yul\":16348:17235   */\n    tag_294:\n      pop\n        /* \"#utility.yul\":15938:17241   */\n      pop\n      pop\n      pop\n        /* \"#utility.yul\":15846:17241   */\n      pop\n      pop\n      jump\t// out\n\n    auxdata: 0xa26469706673582212207a5641681cfe3ef899218c9153cade9ce3ddf3b7686d4793a1e431f9e8e068e364736f6c634300080f0033\n}\n",
				"bytecode": {
					"linkReferences": {},
					"object": "608060405234801561001057600080fd5b506110c0806100206000396000f3fe608060405234801561001057600080fd5b50600436106100415760003560e01c806380c9419e14610046578063904cc1751461007c578063fd668907146100ac575b600080fd5b610060600480360381019061005b91906107c7565b6100c8565b60405161007397969594939291906108dd565b60405180910390f35b610096600480360381019061009191906107c7565b61026a565b6040516100a39190610b27565b60405180910390f35b6100c660048036038101906100c19190610caa565b61055c565b005b600181815481106100d857600080fd5b90600052602060002090600702016000915090508060000154908060010154908060020160009054906101000a900473ffffffffffffffffffffffffffffffffffffffff16908060030160009054906101000a900473ffffffffffffffffffffffffffffffffffffffff169080600401549080600501805461015990610d35565b80601f016020809104026020016040519081016040528092919081815260200182805461018590610d35565b80156101d25780601f106101a7576101008083540402835291602001916101d2565b820191906000526020600020905b8154815290600101906020018083116101b557829003601f168201915b5050505050908060060180546101e790610d35565b80601f016020809104026020016040519081016040528092919081815260200182805461021390610d35565b80156102605780601f1061023557610100808354040283529160200191610260565b820191906000526020600020905b81548152906001019060200180831161024357829003601f168201915b5050505050905087565b6060600060018054905067ffffffffffffffff81111561028d5761028c610b7f565b5b6040519080825280602002602001820160405280156102c657816020015b6102b3610714565b8152602001906001900390816102ab5790505b50905060005b6001805490508110156105525783600182815481106102ee576102ed610d66565b5b9060005260206000209060070201600101540361053f576001818154811061031957610318610d66565b5b90600052602060002090600702016040518060e001604052908160008201548152602001600182015481526020016002820160009054906101000a900473ffffffffffffffffffffffffffffffffffffffff1673ffffffffffffffffffffffffffffffffffffffff1673ffffffffffffffffffffffffffffffffffffffff1681526020016003820160009054906101000a900473ffffffffffffffffffffffffffffffffffffffff1673ffffffffffffffffffffffffffffffffffffffff1673ffffffffffffffffffffffffffffffffffffffff1681526020016004820154815260200160058201805461040c90610d35565b80601f016020809104026020016040519081016040528092919081815260200182805461043890610d35565b80156104855780601f1061045a57610100808354040283529160200191610485565b820191906000526020600020905b81548152906001019060200180831161046857829003601f168201915b5050505050815260200160068201805461049e90610d35565b80601f01602080910402602001604051908101604052809291908181526020018280546104ca90610d35565b80156105175780601f106104ec57610100808354040283529160200191610517565b820191906000526020600020905b8154815290600101906020018083116104fa57829003601f168201915b50505050508152505082828151811061053357610532610d66565b5b60200260200101819052505b808061054a90610dc4565b9150506102cc565b5080915050919050565b60008081548092919061056e90610dc4565b919050555060016040518060e001604052806000548152602001600081526020013373ffffffffffffffffffffffffffffffffffffffff1681526020018473ffffffffffffffffffffffffffffffffffffffff168152602001600081526020018381526020016040518060400160405280600181526020017f30000000000000000000000000000000000000000000000000000000000000008152508152509080600181540180825580915050600190039060005260206000209060070201600090919091909150600082015181600001556020820151816001015560408201518160020160006101000a81548173ffffffffffffffffffffffffffffffffffffffff021916908373ffffffffffffffffffffffffffffffffffffffff16021790555060608201518160030160006101000a81548173ffffffffffffffffffffffffffffffffffffffff021916908373ffffffffffffffffffffffffffffffffffffffff1602179055506080820151816004015560a08201518160050190816106f79190610fb8565b5060c082015181600601908161070d9190610fb8565b5050505050565b6040518060e001604052806000815260200160008152602001600073ffffffffffffffffffffffffffffffffffffffff168152602001600073ffffffffffffffffffffffffffffffffffffffff1681526020016000815260200160608152602001606081525090565b6000604051905090565b600080fd5b600080fd5b6000819050919050565b6107a481610791565b81146107af57600080fd5b50565b6000813590506107c18161079b565b92915050565b6000602082840312156107dd576107dc610787565b5b60006107eb848285016107b2565b91505092915050565b6107fd81610791565b82525050565b600073ffffffffffffffffffffffffffffffffffffffff82169050919050565b600061082e82610803565b9050919050565b61083e81610823565b82525050565b600081519050919050565b600082825260208201905092915050565b60005b8381101561087e578082015181840152602081019050610863565b8381111561088d576000848401525b50505050565b6000601f19601f8301169050919050565b60006108af82610844565b6108b9818561084f565b93506108c9818560208601610860565b6108d281610893565b840191505092915050565b600060e0820190506108f2600083018a6107f4565b6108ff60208301896107f4565b61090c6040830188610835565b6109196060830187610835565b61092660808301866107f4565b81810360a083015261093881856108a4565b905081810360c083015261094c81846108a4565b905098975050505050505050565b600081519050919050565b600082825260208201905092915050565b6000819050602082019050919050565b61098f81610791565b82525050565b61099e81610823565b82525050565b600082825260208201905092915050565b60006109c082610844565b6109ca81856109a4565b93506109da818560208601610860565b6109e381610893565b840191505092915050565b600060e083016000830151610a066000860182610986565b506020830151610a196020860182610986565b506040830151610a2c6040860182610995565b506060830151610a3f6060860182610995565b506080830151610a526080860182610986565b5060a083015184820360a0860152610a6a82826109b5565b91505060c083015184820360c0860152610a8482826109b5565b9150508091505092915050565b6000610a9d83836109ee565b905092915050565b6000602082019050919050565b6000610abd8261095a565b610ac78185610965565b935083602082028501610ad985610976565b8060005b85811015610b155784840389528151610af68582610a91565b9450610b0183610aa5565b925060208a01995050600181019050610add565b50829750879550505050505092915050565b60006020820190508181036000830152610b418184610ab2565b905092915050565b610b5281610823565b8114610b5d57600080fd5b50565b600081359050610b6f81610b49565b92915050565b600080fd5b600080fd5b7f4e487b7100000000000000000000000000000000000000000000000000000000600052604160045260246000fd5b610bb782610893565b810181811067ffffffffffffffff82111715610bd657610bd5610b7f565b5b80604052505050565b6000610be961077d565b9050610bf58282610bae565b919050565b600067ffffffffffffffff821115610c1557610c14610b7f565b5b610c1e82610893565b9050602081019050919050565b82818337600083830152505050565b6000610c4d610c4884610bfa565b610bdf565b905082815260208101848484011115610c6957610c68610b7a565b5b610c74848285610c2b565b509392505050565b600082601f830112610c9157610c90610b75565b5b8135610ca1848260208601610c3a565b91505092915050565b60008060408385031215610cc157610cc0610787565b5b6000610ccf85828601610b60565b925050602083013567ffffffffffffffff811115610cf057610cef61078c565b5b610cfc85828601610c7c565b9150509250929050565b7f4e487b7100000000000000000000000000000000000000000000000000000000600052602260045260246000fd5b60006002820490506001821680610d4d57607f821691505b602082108103610d6057610d5f610d06565b5b50919050565b7f4e487b7100000000000000000000000000000000000000000000000000000000600052603260045260246000fd5b7f4e487b7100000000000000000000000000000000000000000000000000000000600052601160045260246000fd5b6000610dcf82610791565b91507fffffffffffffffffffffffffffffffffffffffffffffffffffffffffffffffff8203610e0157610e00610d95565b5b600182019050919050565b60008190508160005260206000209050919050565b60006020601f8301049050919050565b600082821b905092915050565b600060088302610e6e7fffffffffffffffffffffffffffffffffffffffffffffffffffffffffffffffff82610e31565b610e788683610e31565b95508019841693508086168417925050509392505050565b6000819050919050565b6000610eb5610eb0610eab84610791565b610e90565b610791565b9050919050565b6000819050919050565b610ecf83610e9a565b610ee3610edb82610ebc565b848454610e3e565b825550505050565b600090565b610ef8610eeb565b610f03818484610ec6565b505050565b5b81811015610f2757610f1c600082610ef0565b600181019050610f09565b5050565b601f821115610f6c57610f3d81610e0c565b610f4684610e21565b81016020851015610f55578190505b610f69610f6185610e21565b830182610f08565b50505b505050565b600082821c905092915050565b6000610f8f60001984600802610f71565b1980831691505092915050565b6000610fa88383610f7e565b9150826002028217905092915050565b610fc182610844565b67ffffffffffffffff811115610fda57610fd9610b7f565b5b610fe48254610d35565b610fef828285610f2b565b600060209050601f8311600181146110225760008415611010578287015190505b61101a8582610f9c565b865550611082565b601f19841661103086610e0c565b60005b8281101561105857848901518255600182019150602085019450602081019050611033565b868310156110755784890151611071601f891682610f7e565b8355505b6001600288020188555050505b50505050505056fea26469706673582212207a5641681cfe3ef899218c9153cade9ce3ddf3b7686d4793a1e431f9e8e068e364736f6c634300080f0033",
					"opcodes": "PUSH1 0x80 PUSH1 0x40 MSTORE CALLVALUE DUP1 ISZERO PUSH2 0x10 JUMPI PUSH1 0x0 DUP1 REVERT JUMPDEST POP PUSH2 0x10C0 DUP1 PUSH2 0x20 PUSH1 0x0 CODECOPY PUSH1 0x0 RETURN INVALID PUSH1 0x80 PUSH1 0x40 MSTORE CALLVALUE DUP1 ISZERO PUSH2 0x10 JUMPI PUSH1 0x0 DUP1 REVERT JUMPDEST POP PUSH1 0x4 CALLDATASIZE LT PUSH2 0x41 JUMPI PUSH1 0x0 CALLDATALOAD PUSH1 0xE0 SHR DUP1 PUSH4 0x80C9419E EQ PUSH2 0x46 JUMPI DUP1 PUSH4 0x904CC175 EQ PUSH2 0x7C JUMPI DUP1 PUSH4 0xFD668907 EQ PUSH2 0xAC JUMPI JUMPDEST PUSH1 0x0 DUP1 REVERT JUMPDEST PUSH2 0x60 PUSH1 0x4 DUP1 CALLDATASIZE SUB DUP2 ADD SWAP1 PUSH2 0x5B SWAP2 SWAP1 PUSH2 0x7C7 JUMP JUMPDEST PUSH2 0xC8 JUMP JUMPDEST PUSH1 0x40 MLOAD PUSH2 0x73 SWAP8 SWAP7 SWAP6 SWAP5 SWAP4 SWAP3 SWAP2 SWAP1 PUSH2 0x8DD JUMP JUMPDEST PUSH1 0x40 MLOAD DUP1 SWAP2 SUB SWAP1 RETURN JUMPDEST PUSH2 0x96 PUSH1 0x4 DUP1 CALLDATASIZE SUB DUP2 ADD SWAP1 PUSH2 0x91 SWAP2 SWAP1 PUSH2 0x7C7 JUMP JUMPDEST PUSH2 0x26A JUMP JUMPDEST PUSH1 0x40 MLOAD PUSH2 0xA3 SWAP2 SWAP1 PUSH2 0xB27 JUMP JUMPDEST PUSH1 0x40 MLOAD DUP1 SWAP2 SUB SWAP1 RETURN JUMPDEST PUSH2 0xC6 PUSH1 0x4 DUP1 CALLDATASIZE SUB DUP2 ADD SWAP1 PUSH2 0xC1 SWAP2 SWAP1 PUSH2 0xCAA JUMP JUMPDEST PUSH2 0x55C JUMP JUMPDEST STOP JUMPDEST PUSH1 0x1 DUP2 DUP2 SLOAD DUP2 LT PUSH2 0xD8 JUMPI PUSH1 0x0 DUP1 REVERT JUMPDEST SWAP1 PUSH1 0x0 MSTORE PUSH1 0x20 PUSH1 0x0 KECCAK256 SWAP1 PUSH1 0x7 MUL ADD PUSH1 0x0 SWAP2 POP SWAP1 POP DUP1 PUSH1 0x0 ADD SLOAD SWAP1 DUP1 PUSH1 0x1 ADD SLOAD SWAP1 DUP1 PUSH1 0x2 ADD PUSH1 0x0 SWAP1 SLOAD SWAP1 PUSH2 0x100 EXP SWAP1 DIV PUSH20 0xFFFFFFFFFFFFFFFFFFFFFFFFFFFFFFFFFFFFFFFF AND SWAP1 DUP1 PUSH1 0x3 ADD PUSH1 0x0 SWAP1 SLOAD SWAP1 PUSH2 0x100 EXP SWAP1 DIV PUSH20 0xFFFFFFFFFFFFFFFFFFFFFFFFFFFFFFFFFFFFFFFF AND SWAP1 DUP1 PUSH1 0x4 ADD SLOAD SWAP1 DUP1 PUSH1 0x5 ADD DUP1 SLOAD PUSH2 0x159 SWAP1 PUSH2 0xD35 JUMP JUMPDEST DUP1 PUSH1 0x1F ADD PUSH1 0x20 DUP1 SWAP2 DIV MUL PUSH1 0x20 ADD PUSH1 0x40 MLOAD SWAP1 DUP2 ADD PUSH1 0x40 MSTORE DUP1 SWAP3 SWAP2 SWAP1 DUP2 DUP2 MSTORE PUSH1 0x20 ADD DUP3 DUP1 SLOAD PUSH2 0x185 SWAP1 PUSH2 0xD35 JUMP JUMPDEST DUP1 ISZERO PUSH2 0x1D2 JUMPI DUP1 PUSH1 0x1F LT PUSH2 0x1A7 JUMPI PUSH2 0x100 DUP1 DUP4 SLOAD DIV MUL DUP4 MSTORE SWAP2 PUSH1 0x20 ADD SWAP2 PUSH2 0x1D2 JUMP JUMPDEST DUP3 ADD SWAP2 SWAP1 PUSH1 0x0 MSTORE PUSH1 0x20 PUSH1 0x0 KECCAK256 SWAP1 JUMPDEST DUP2 SLOAD DUP2 MSTORE SWAP1 PUSH1 0x1 ADD SWAP1 PUSH1 0x20 ADD DUP1 DUP4 GT PUSH2 0x1B5 JUMPI DUP3 SWAP1 SUB PUSH1 0x1F AND DUP3 ADD SWAP2 JUMPDEST POP POP POP POP POP SWAP1 DUP1 PUSH1 0x6 ADD DUP1 SLOAD PUSH2 0x1E7 SWAP1 PUSH2 0xD35 JUMP JUMPDEST DUP1 PUSH1 0x1F ADD PUSH1 0x20 DUP1 SWAP2 DIV MUL PUSH1 0x20 ADD PUSH1 0x40 MLOAD SWAP1 DUP2 ADD PUSH1 0x40 MSTORE DUP1 SWAP3 SWAP2 SWAP1 DUP2 DUP2 MSTORE PUSH1 0x20 ADD DUP3 DUP1 SLOAD PUSH2 0x213 SWAP1 PUSH2 0xD35 JUMP JUMPDEST DUP1 ISZERO PUSH2 0x260 JUMPI DUP1 PUSH1 0x1F LT PUSH2 0x235 JUMPI PUSH2 0x100 DUP1 DUP4 SLOAD DIV MUL DUP4 MSTORE SWAP2 PUSH1 0x20 ADD SWAP2 PUSH2 0x260 JUMP JUMPDEST DUP3 ADD SWAP2 SWAP1 PUSH1 0x0 MSTORE PUSH1 0x20 PUSH1 0x0 KECCAK256 SWAP1 JUMPDEST DUP2 SLOAD DUP2 MSTORE SWAP1 PUSH1 0x1 ADD SWAP1 PUSH1 0x20 ADD DUP1 DUP4 GT PUSH2 0x243 JUMPI DUP3 SWAP1 SUB PUSH1 0x1F AND DUP3 ADD SWAP2 JUMPDEST POP POP POP POP POP SWAP1 POP DUP8 JUMP JUMPDEST PUSH1 0x60 PUSH1 0x0 PUSH1 0x1 DUP1 SLOAD SWAP1 POP PUSH8 0xFFFFFFFFFFFFFFFF DUP2 GT ISZERO PUSH2 0x28D JUMPI PUSH2 0x28C PUSH2 0xB7F JUMP JUMPDEST JUMPDEST PUSH1 0x40 MLOAD SWAP1 DUP1 DUP3 MSTORE DUP1 PUSH1 0x20 MUL PUSH1 0x20 ADD DUP3 ADD PUSH1 0x40 MSTORE DUP1 ISZERO PUSH2 0x2C6 JUMPI DUP2 PUSH1 0x20 ADD JUMPDEST PUSH2 0x2B3 PUSH2 0x714 JUMP JUMPDEST DUP2 MSTORE PUSH1 0x20 ADD SWAP1 PUSH1 0x1 SWAP1 SUB SWAP1 DUP2 PUSH2 0x2AB JUMPI SWAP1 POP JUMPDEST POP SWAP1 POP PUSH1 0x0 JUMPDEST PUSH1 0x1 DUP1 SLOAD SWAP1 POP DUP2 LT ISZERO PUSH2 0x552 JUMPI DUP4 PUSH1 0x1 DUP3 DUP2 SLOAD DUP2 LT PUSH2 0x2EE JUMPI PUSH2 0x2ED PUSH2 0xD66 JUMP JUMPDEST JUMPDEST SWAP1 PUSH1 0x0 MSTORE PUSH1 0x20 PUSH1 0x0 KECCAK256 SWAP1 PUSH1 0x7 MUL ADD PUSH1 0x1 ADD SLOAD SUB PUSH2 0x53F JUMPI PUSH1 0x1 DUP2 DUP2 SLOAD DUP2 LT PUSH2 0x319 JUMPI PUSH2 0x318 PUSH2 0xD66 JUMP JUMPDEST JUMPDEST SWAP1 PUSH1 0x0 MSTORE PUSH1 0x20 PUSH1 0x0 KECCAK256 SWAP1 PUSH1 0x7 MUL ADD PUSH1 0x40 MLOAD DUP1 PUSH1 0xE0 ADD PUSH1 0x40 MSTORE SWAP1 DUP2 PUSH1 0x0 DUP3 ADD SLOAD DUP2 MSTORE PUSH1 0x20 ADD PUSH1 0x1 DUP3 ADD SLOAD DUP2 MSTORE PUSH1 0x20 ADD PUSH1 0x2 DUP3 ADD PUSH1 0x0 SWAP1 SLOAD SWAP1 PUSH2 0x100 EXP SWAP1 DIV PUSH20 0xFFFFFFFFFFFFFFFFFFFFFFFFFFFFFFFFFFFFFFFF AND PUSH20 0xFFFFFFFFFFFFFFFFFFFFFFFFFFFFFFFFFFFFFFFF AND PUSH20 0xFFFFFFFFFFFFFFFFFFFFFFFFFFFFFFFFFFFFFFFF AND DUP2 MSTORE PUSH1 0x20 ADD PUSH1 0x3 DUP3 ADD PUSH1 0x0 SWAP1 SLOAD SWAP1 PUSH2 0x100 EXP SWAP1 DIV PUSH20 0xFFFFFFFFFFFFFFFFFFFFFFFFFFFFFFFFFFFFFFFF AND PUSH20 0xFFFFFFFFFFFFFFFFFFFFFFFFFFFFFFFFFFFFFFFF AND PUSH20 0xFFFFFFFFFFFFFFFFFFFFFFFFFFFFFFFFFFFFFFFF AND DUP2 MSTORE PUSH1 0x20 ADD PUSH1 0x4 DUP3 ADD SLOAD DUP2 MSTORE PUSH1 0x20 ADD PUSH1 0x5 DUP3 ADD DUP1 SLOAD PUSH2 0x40C SWAP1 PUSH2 0xD35 JUMP JUMPDEST DUP1 PUSH1 0x1F ADD PUSH1 0x20 DUP1 SWAP2 DIV MUL PUSH1 0x20 ADD PUSH1 0x40 MLOAD SWAP1 DUP2 ADD PUSH1 0x40 MSTORE DUP1 SWAP3 SWAP2 SWAP1 DUP2 DUP2 MSTORE PUSH1 0x20 ADD DUP3 DUP1 SLOAD PUSH2 0x438 SWAP1 PUSH2 0xD35 JUMP JUMPDEST DUP1 ISZERO PUSH2 0x485 JUMPI DUP1 PUSH1 0x1F LT PUSH2 0x45A JUMPI PUSH2 0x100 DUP1 DUP4 SLOAD DIV MUL DUP4 MSTORE SWAP2 PUSH1 0x20 ADD SWAP2 PUSH2 0x485 JUMP JUMPDEST DUP3 ADD SWAP2 SWAP1 PUSH1 0x0 MSTORE PUSH1 0x20 PUSH1 0x0 KECCAK256 SWAP1 JUMPDEST DUP2 SLOAD DUP2 MSTORE SWAP1 PUSH1 0x1 ADD SWAP1 PUSH1 0x20 ADD DUP1 DUP4 GT PUSH2 0x468 JUMPI DUP3 SWAP1 SUB PUSH1 0x1F AND DUP3 ADD SWAP2 JUMPDEST POP POP POP POP POP DUP2 MSTORE PUSH1 0x20 ADD PUSH1 0x6 DUP3 ADD DUP1 SLOAD PUSH2 0x49E SWAP1 PUSH2 0xD35 JUMP JUMPDEST DUP1 PUSH1 0x1F ADD PUSH1 0x20 DUP1 SWAP2 DIV MUL PUSH1 0x20 ADD PUSH1 0x40 MLOAD SWAP1 DUP2 ADD PUSH1 0x40 MSTORE DUP1 SWAP3 SWAP2 SWAP1 DUP2 DUP2 MSTORE PUSH1 0x20 ADD DUP3 DUP1 SLOAD PUSH2 0x4CA SWAP1 PUSH2 0xD35 JUMP JUMPDEST DUP1 ISZERO PUSH2 0x517 JUMPI DUP1 PUSH1 0x1F LT PUSH2 0x4EC JUMPI PUSH2 0x100 DUP1 DUP4 SLOAD DIV MUL DUP4 MSTORE SWAP2 PUSH1 0x20 ADD SWAP2 PUSH2 0x517 JUMP JUMPDEST DUP3 ADD SWAP2 SWAP1 PUSH1 0x0 MSTORE PUSH1 0x20 PUSH1 0x0 KECCAK256 SWAP1 JUMPDEST DUP2 SLOAD DUP2 MSTORE SWAP1 PUSH1 0x1 ADD SWAP1 PUSH1 0x20 ADD DUP1 DUP4 GT PUSH2 0x4FA JUMPI DUP3 SWAP1 SUB PUSH1 0x1F AND DUP3 ADD SWAP2 JUMPDEST POP POP POP POP POP DUP2 MSTORE POP POP DUP3 DUP3 DUP2 MLOAD DUP2 LT PUSH2 0x533 JUMPI PUSH2 0x532 PUSH2 0xD66 JUMP JUMPDEST JUMPDEST PUSH1 0x20 MUL PUSH1 0x20 ADD ADD DUP2 SWAP1 MSTORE POP JUMPDEST DUP1 DUP1 PUSH2 0x54A SWAP1 PUSH2 0xDC4 JUMP JUMPDEST SWAP2 POP POP PUSH2 0x2CC JUMP JUMPDEST POP DUP1 SWAP2 POP POP SWAP2 SWAP1 POP JUMP JUMPDEST PUSH1 0x0 DUP1 DUP2 SLOAD DUP1 SWAP3 SWAP2 SWAP1 PUSH2 0x56E SWAP1 PUSH2 0xDC4 JUMP JUMPDEST SWAP2 SWAP1 POP SSTORE POP PUSH1 0x1 PUSH1 0x40 MLOAD DUP1 PUSH1 0xE0 ADD PUSH1 0x40 MSTORE DUP1 PUSH1 0x0 SLOAD DUP2 MSTORE PUSH1 0x20 ADD PUSH1 0x0 DUP2 MSTORE PUSH1 0x20 ADD CALLER PUSH20 0xFFFFFFFFFFFFFFFFFFFFFFFFFFFFFFFFFFFFFFFF AND DUP2 MSTORE PUSH1 0x20 ADD DUP5 PUSH20 0xFFFFFFFFFFFFFFFFFFFFFFFFFFFFFFFFFFFFFFFF AND DUP2 MSTORE PUSH1 0x20 ADD PUSH1 0x0 DUP2 MSTORE PUSH1 0x20 ADD DUP4 DUP2 MSTORE PUSH1 0x20 ADD PUSH1 0x40 MLOAD DUP1 PUSH1 0x40 ADD PUSH1 0x40 MSTORE DUP1 PUSH1 0x1 DUP2 MSTORE PUSH1 0x20 ADD PUSH32 0x3000000000000000000000000000000000000000000000000000000000000000 DUP2 MSTORE POP DUP2 MSTORE POP SWAP1 DUP1 PUSH1 0x1 DUP2 SLOAD ADD DUP1 DUP3 SSTORE DUP1 SWAP2 POP POP PUSH1 0x1 SWAP1 SUB SWAP1 PUSH1 0x0 MSTORE PUSH1 0x20 PUSH1 0x0 KECCAK256 SWAP1 PUSH1 0x7 MUL ADD PUSH1 0x0 SWAP1 SWAP2 SWAP1 SWAP2 SWAP1 SWAP2 POP PUSH1 0x0 DUP3 ADD MLOAD DUP2 PUSH1 0x0 ADD SSTORE PUSH1 0x20 DUP3 ADD MLOAD DUP2 PUSH1 0x1 ADD SSTORE PUSH1 0x40 DUP3 ADD MLOAD DUP2 PUSH1 0x2 ADD PUSH1 0x0 PUSH2 0x100 EXP DUP2 SLOAD DUP2 PUSH20 0xFFFFFFFFFFFFFFFFFFFFFFFFFFFFFFFFFFFFFFFF MUL NOT AND SWAP1 DUP4 PUSH20 0xFFFFFFFFFFFFFFFFFFFFFFFFFFFFFFFFFFFFFFFF AND MUL OR SWAP1 SSTORE POP PUSH1 0x60 DUP3 ADD MLOAD DUP2 PUSH1 0x3 ADD PUSH1 0x0 PUSH2 0x100 EXP DUP2 SLOAD DUP2 PUSH20 0xFFFFFFFFFFFFFFFFFFFFFFFFFFFFFFFFFFFFFFFF MUL NOT AND SWAP1 DUP4 PUSH20 0xFFFFFFFFFFFFFFFFFFFFFFFFFFFFFFFFFFFFFFFF AND MUL OR SWAP1 SSTORE POP PUSH1 0x80 DUP3 ADD MLOAD DUP2 PUSH1 0x4 ADD SSTORE PUSH1 0xA0 DUP3 ADD MLOAD DUP2 PUSH1 0x5 ADD SWAP1 DUP2 PUSH2 0x6F7 SWAP2 SWAP1 PUSH2 0xFB8 JUMP JUMPDEST POP PUSH1 0xC0 DUP3 ADD MLOAD DUP2 PUSH1 0x6 ADD SWAP1 DUP2 PUSH2 0x70D SWAP2 SWAP1 PUSH2 0xFB8 JUMP JUMPDEST POP POP POP POP POP JUMP JUMPDEST PUSH1 0x40 MLOAD DUP1 PUSH1 0xE0 ADD PUSH1 0x40 MSTORE DUP1 PUSH1 0x0 DUP2 MSTORE PUSH1 0x20 ADD PUSH1 0x0 DUP2 MSTORE PUSH1 0x20 ADD PUSH1 0x0 PUSH20 0xFFFFFFFFFFFFFFFFFFFFFFFFFFFFFFFFFFFFFFFF AND DUP2 MSTORE PUSH1 0x20 ADD PUSH1 0x0 PUSH20 0xFFFFFFFFFFFFFFFFFFFFFFFFFFFFFFFFFFFFFFFF AND DUP2 MSTORE PUSH1 0x20 ADD PUSH1 0x0 DUP2 MSTORE PUSH1 0x20 ADD PUSH1 0x60 DUP2 MSTORE PUSH1 0x20 ADD PUSH1 0x60 DUP2 MSTORE POP SWAP1 JUMP JUMPDEST PUSH1 0x0 PUSH1 0x40 MLOAD SWAP1 POP SWAP1 JUMP JUMPDEST PUSH1 0x0 DUP1 REVERT JUMPDEST PUSH1 0x0 DUP1 REVERT JUMPDEST PUSH1 0x0 DUP2 SWAP1 POP SWAP2 SWAP1 POP JUMP JUMPDEST PUSH2 0x7A4 DUP2 PUSH2 0x791 JUMP JUMPDEST DUP2 EQ PUSH2 0x7AF JUMPI PUSH1 0x0 DUP1 REVERT JUMPDEST POP JUMP JUMPDEST PUSH1 0x0 DUP2 CALLDATALOAD SWAP1 POP PUSH2 0x7C1 DUP2 PUSH2 0x79B JUMP JUMPDEST SWAP3 SWAP2 POP POP JUMP JUMPDEST PUSH1 0x0 PUSH1 0x20 DUP3 DUP5 SUB SLT ISZERO PUSH2 0x7DD JUMPI PUSH2 0x7DC PUSH2 0x787 JUMP JUMPDEST JUMPDEST PUSH1 0x0 PUSH2 0x7EB DUP5 DUP3 DUP6 ADD PUSH2 0x7B2 JUMP JUMPDEST SWAP2 POP POP SWAP3 SWAP2 POP POP JUMP JUMPDEST PUSH2 0x7FD DUP2 PUSH2 0x791 JUMP JUMPDEST DUP3 MSTORE POP POP JUMP JUMPDEST PUSH1 0x0 PUSH20 0xFFFFFFFFFFFFFFFFFFFFFFFFFFFFFFFFFFFFFFFF DUP3 AND SWAP1 POP SWAP2 SWAP1 POP JUMP JUMPDEST PUSH1 0x0 PUSH2 0x82E DUP3 PUSH2 0x803 JUMP JUMPDEST SWAP1 POP SWAP2 SWAP1 POP JUMP JUMPDEST PUSH2 0x83E DUP2 PUSH2 0x823 JUMP JUMPDEST DUP3 MSTORE POP POP JUMP JUMPDEST PUSH1 0x0 DUP2 MLOAD SWAP1 POP SWAP2 SWAP1 POP JUMP JUMPDEST PUSH1 0x0 DUP3 DUP3 MSTORE PUSH1 0x20 DUP3 ADD SWAP1 POP SWAP3 SWAP2 POP POP JUMP JUMPDEST PUSH1 0x0 JUMPDEST DUP4 DUP2 LT ISZERO PUSH2 0x87E JUMPI DUP1 DUP3 ADD MLOAD DUP2 DUP5 ADD MSTORE PUSH1 0x20 DUP2 ADD SWAP1 POP PUSH2 0x863 JUMP JUMPDEST DUP4 DUP2 GT ISZERO PUSH2 0x88D JUMPI PUSH1 0x0 DUP5 DUP5 ADD MSTORE JUMPDEST POP POP POP POP JUMP JUMPDEST PUSH1 0x0 PUSH1 0x1F NOT PUSH1 0x1F DUP4 ADD AND SWAP1 POP SWAP2 SWAP1 POP JUMP JUMPDEST PUSH1 0x0 PUSH2 0x8AF DUP3 PUSH2 0x844 JUMP JUMPDEST PUSH2 0x8B9 DUP2 DUP6 PUSH2 0x84F JUMP JUMPDEST SWAP4 POP PUSH2 0x8C9 DUP2 DUP6 PUSH1 0x20 DUP7 ADD PUSH2 0x860 JUMP JUMPDEST PUSH2 0x8D2 DUP2 PUSH2 0x893 JUMP JUMPDEST DUP5 ADD SWAP2 POP POP SWAP3 SWAP2 POP POP JUMP JUMPDEST PUSH1 0x0 PUSH1 0xE0 DUP3 ADD SWAP1 POP PUSH2 0x8F2 PUSH1 0x0 DUP4 ADD DUP11 PUSH2 0x7F4 JUMP JUMPDEST PUSH2 0x8FF PUSH1 0x20 DUP4 ADD DUP10 PUSH2 0x7F4 JUMP JUMPDEST PUSH2 0x90C PUSH1 0x40 DUP4 ADD DUP9 PUSH2 0x835 JUMP JUMPDEST PUSH2 0x919 PUSH1 0x60 DUP4 ADD DUP8 PUSH2 0x835 JUMP JUMPDEST PUSH2 0x926 PUSH1 0x80 DUP4 ADD DUP7 PUSH2 0x7F4 JUMP JUMPDEST DUP2 DUP2 SUB PUSH1 0xA0 DUP4 ADD MSTORE PUSH2 0x938 DUP2 DUP6 PUSH2 0x8A4 JUMP JUMPDEST SWAP1 POP DUP2 DUP2 SUB PUSH1 0xC0 DUP4 ADD MSTORE PUSH2 0x94C DUP2 DUP5 PUSH2 0x8A4 JUMP JUMPDEST SWAP1 POP SWAP9 SWAP8 POP POP POP POP POP POP POP POP JUMP JUMPDEST PUSH1 0x0 DUP2 MLOAD SWAP1 POP SWAP2 SWAP1 POP JUMP JUMPDEST PUSH1 0x0 DUP3 DUP3 MSTORE PUSH1 0x20 DUP3 ADD SWAP1 POP SWAP3 SWAP2 POP POP JUMP JUMPDEST PUSH1 0x0 DUP2 SWAP1 POP PUSH1 0x20 DUP3 ADD SWAP1 POP SWAP2 SWAP1 POP JUMP JUMPDEST PUSH2 0x98F DUP2 PUSH2 0x791 JUMP JUMPDEST DUP3 MSTORE POP POP JUMP JUMPDEST PUSH2 0x99E DUP2 PUSH2 0x823 JUMP JUMPDEST DUP3 MSTORE POP POP JUMP JUMPDEST PUSH1 0x0 DUP3 DUP3 MSTORE PUSH1 0x20 DUP3 ADD SWAP1 POP SWAP3 SWAP2 POP POP JUMP JUMPDEST PUSH1 0x0 PUSH2 0x9C0 DUP3 PUSH2 0x844 JUMP JUMPDEST PUSH2 0x9CA DUP2 DUP6 PUSH2 0x9A4 JUMP JUMPDEST SWAP4 POP PUSH2 0x9DA DUP2 DUP6 PUSH1 0x20 DUP7 ADD PUSH2 0x860 JUMP JUMPDEST PUSH2 0x9E3 DUP2 PUSH2 0x893 JUMP JUMPDEST DUP5 ADD SWAP2 POP POP SWAP3 SWAP2 POP POP JUMP JUMPDEST PUSH1 0x0 PUSH1 0xE0 DUP4 ADD PUSH1 0x0 DUP4 ADD MLOAD PUSH2 0xA06 PUSH1 0x0 DUP7 ADD DUP3 PUSH2 0x986 JUMP JUMPDEST POP PUSH1 0x20 DUP4 ADD MLOAD PUSH2 0xA19 PUSH1 0x20 DUP7 ADD DUP3 PUSH2 0x986 JUMP JUMPDEST POP PUSH1 0x40 DUP4 ADD MLOAD PUSH2 0xA2C PUSH1 0x40 DUP7 ADD DUP3 PUSH2 0x995 JUMP JUMPDEST POP PUSH1 0x60 DUP4 ADD MLOAD PUSH2 0xA3F PUSH1 0x60 DUP7 ADD DUP3 PUSH2 0x995 JUMP JUMPDEST POP PUSH1 0x80 DUP4 ADD MLOAD PUSH2 0xA52 PUSH1 0x80 DUP7 ADD DUP3 PUSH2 0x986 JUMP JUMPDEST POP PUSH1 0xA0 DUP4 ADD MLOAD DUP5 DUP3 SUB PUSH1 0xA0 DUP7 ADD MSTORE PUSH2 0xA6A DUP3 DUP3 PUSH2 0x9B5 JUMP JUMPDEST SWAP2 POP POP PUSH1 0xC0 DUP4 ADD MLOAD DUP5 DUP3 SUB PUSH1 0xC0 DUP7 ADD MSTORE PUSH2 0xA84 DUP3 DUP3 PUSH2 0x9B5 JUMP JUMPDEST SWAP2 POP POP DUP1 SWAP2 POP POP SWAP3 SWAP2 POP POP JUMP JUMPDEST PUSH1 0x0 PUSH2 0xA9D DUP4 DUP4 PUSH2 0x9EE JUMP JUMPDEST SWAP1 POP SWAP3 SWAP2 POP POP JUMP JUMPDEST PUSH1 0x0 PUSH1 0x20 DUP3 ADD SWAP1 POP SWAP2 SWAP1 POP JUMP JUMPDEST PUSH1 0x0 PUSH2 0xABD DUP3 PUSH2 0x95A JUMP JUMPDEST PUSH2 0xAC7 DUP2 DUP6 PUSH2 0x965 JUMP JUMPDEST SWAP4 POP DUP4 PUSH1 0x20 DUP3 MUL DUP6 ADD PUSH2 0xAD9 DUP6 PUSH2 0x976 JUMP JUMPDEST DUP1 PUSH1 0x0 JUMPDEST DUP6 DUP2 LT ISZERO PUSH2 0xB15 JUMPI DUP5 DUP5 SUB DUP10 MSTORE DUP2 MLOAD PUSH2 0xAF6 DUP6 DUP3 PUSH2 0xA91 JUMP JUMPDEST SWAP5 POP PUSH2 0xB01 DUP4 PUSH2 0xAA5 JUMP JUMPDEST SWAP3 POP PUSH1 0x20 DUP11 ADD SWAP10 POP POP PUSH1 0x1 DUP2 ADD SWAP1 POP PUSH2 0xADD JUMP JUMPDEST POP DUP3 SWAP8 POP DUP8 SWAP6 POP POP POP POP POP POP SWAP3 SWAP2 POP POP JUMP JUMPDEST PUSH1 0x0 PUSH1 0x20 DUP3 ADD SWAP1 POP DUP2 DUP2 SUB PUSH1 0x0 DUP4 ADD MSTORE PUSH2 0xB41 DUP2 DUP5 PUSH2 0xAB2 JUMP JUMPDEST SWAP1 POP SWAP3 SWAP2 POP POP JUMP JUMPDEST PUSH2 0xB52 DUP2 PUSH2 0x823 JUMP JUMPDEST DUP2 EQ PUSH2 0xB5D JUMPI PUSH1 0x0 DUP1 REVERT JUMPDEST POP JUMP JUMPDEST PUSH1 0x0 DUP2 CALLDATALOAD SWAP1 POP PUSH2 0xB6F DUP2 PUSH2 0xB49 JUMP JUMPDEST SWAP3 SWAP2 POP POP JUMP JUMPDEST PUSH1 0x0 DUP1 REVERT JUMPDEST PUSH1 0x0 DUP1 REVERT JUMPDEST PUSH32 0x4E487B7100000000000000000000000000000000000000000000000000000000 PUSH1 0x0 MSTORE PUSH1 0x41 PUSH1 0x4 MSTORE PUSH1 0x24 PUSH1 0x0 REVERT JUMPDEST PUSH2 0xBB7 DUP3 PUSH2 0x893 JUMP JUMPDEST DUP2 ADD DUP2 DUP2 LT PUSH8 0xFFFFFFFFFFFFFFFF DUP3 GT OR ISZERO PUSH2 0xBD6 JUMPI PUSH2 0xBD5 PUSH2 0xB7F JUMP JUMPDEST JUMPDEST DUP1 PUSH1 0x40 MSTORE POP POP POP JUMP JUMPDEST PUSH1 0x0 PUSH2 0xBE9 PUSH2 0x77D JUMP JUMPDEST SWAP1 POP PUSH2 0xBF5 DUP3 DUP3 PUSH2 0xBAE JUMP JUMPDEST SWAP2 SWAP1 POP JUMP JUMPDEST PUSH1 0x0 PUSH8 0xFFFFFFFFFFFFFFFF DUP3 GT ISZERO PUSH2 0xC15 JUMPI PUSH2 0xC14 PUSH2 0xB7F JUMP JUMPDEST JUMPDEST PUSH2 0xC1E DUP3 PUSH2 0x893 JUMP JUMPDEST SWAP1 POP PUSH1 0x20 DUP2 ADD SWAP1 POP SWAP2 SWAP1 POP JUMP JUMPDEST DUP3 DUP2 DUP4 CALLDATACOPY PUSH1 0x0 DUP4 DUP4 ADD MSTORE POP POP POP JUMP JUMPDEST PUSH1 0x0 PUSH2 0xC4D PUSH2 0xC48 DUP5 PUSH2 0xBFA JUMP JUMPDEST PUSH2 0xBDF JUMP JUMPDEST SWAP1 POP DUP3 DUP2 MSTORE PUSH1 0x20 DUP2 ADD DUP5 DUP5 DUP5 ADD GT ISZERO PUSH2 0xC69 JUMPI PUSH2 0xC68 PUSH2 0xB7A JUMP JUMPDEST JUMPDEST PUSH2 0xC74 DUP5 DUP3 DUP6 PUSH2 0xC2B JUMP JUMPDEST POP SWAP4 SWAP3 POP POP POP JUMP JUMPDEST PUSH1 0x0 DUP3 PUSH1 0x1F DUP4 ADD SLT PUSH2 0xC91 JUMPI PUSH2 0xC90 PUSH2 0xB75 JUMP JUMPDEST JUMPDEST DUP2 CALLDATALOAD PUSH2 0xCA1 DUP5 DUP3 PUSH1 0x20 DUP7 ADD PUSH2 0xC3A JUMP JUMPDEST SWAP2 POP POP SWAP3 SWAP2 POP POP JUMP JUMPDEST PUSH1 0x0 DUP1 PUSH1 0x40 DUP4 DUP6 SUB SLT ISZERO PUSH2 0xCC1 JUMPI PUSH2 0xCC0 PUSH2 0x787 JUMP JUMPDEST JUMPDEST PUSH1 0x0 PUSH2 0xCCF DUP6 DUP3 DUP7 ADD PUSH2 0xB60 JUMP JUMPDEST SWAP3 POP POP PUSH1 0x20 DUP4 ADD CALLDATALOAD PUSH8 0xFFFFFFFFFFFFFFFF DUP2 GT ISZERO PUSH2 0xCF0 JUMPI PUSH2 0xCEF PUSH2 0x78C JUMP JUMPDEST JUMPDEST PUSH2 0xCFC DUP6 DUP3 DUP7 ADD PUSH2 0xC7C JUMP JUMPDEST SWAP2 POP POP SWAP3 POP SWAP3 SWAP1 POP JUMP JUMPDEST PUSH32 0x4E487B7100000000000000000000000000000000000000000000000000000000 PUSH1 0x0 MSTORE PUSH1 0x22 PUSH1 0x4 MSTORE PUSH1 0x24 PUSH1 0x0 REVERT JUMPDEST PUSH1 0x0 PUSH1 0x2 DUP3 DIV SWAP1 POP PUSH1 0x1 DUP3 AND DUP1 PUSH2 0xD4D JUMPI PUSH1 0x7F DUP3 AND SWAP2 POP JUMPDEST PUSH1 0x20 DUP3 LT DUP2 SUB PUSH2 0xD60 JUMPI PUSH2 0xD5F PUSH2 0xD06 JUMP JUMPDEST JUMPDEST POP SWAP2 SWAP1 POP JUMP JUMPDEST PUSH32 0x4E487B7100000000000000000000000000000000000000000000000000000000 PUSH1 0x0 MSTORE PUSH1 0x32 PUSH1 0x4 MSTORE PUSH1 0x24 PUSH1 0x0 REVERT JUMPDEST PUSH32 0x4E487B7100000000000000000000000000000000000000000000000000000000 PUSH1 0x0 MSTORE PUSH1 0x11 PUSH1 0x4 MSTORE PUSH1 0x24 PUSH1 0x0 REVERT JUMPDEST PUSH1 0x0 PUSH2 0xDCF DUP3 PUSH2 0x791 JUMP JUMPDEST SWAP2 POP PUSH32 0xFFFFFFFFFFFFFFFFFFFFFFFFFFFFFFFFFFFFFFFFFFFFFFFFFFFFFFFFFFFFFFFF DUP3 SUB PUSH2 0xE01 JUMPI PUSH2 0xE00 PUSH2 0xD95 JUMP JUMPDEST JUMPDEST PUSH1 0x1 DUP3 ADD SWAP1 POP SWAP2 SWAP1 POP JUMP JUMPDEST PUSH1 0x0 DUP2 SWAP1 POP DUP2 PUSH1 0x0 MSTORE PUSH1 0x20 PUSH1 0x0 KECCAK256 SWAP1 POP SWAP2 SWAP1 POP JUMP JUMPDEST PUSH1 0x0 PUSH1 0x20 PUSH1 0x1F DUP4 ADD DIV SWAP1 POP SWAP2 SWAP1 POP JUMP JUMPDEST PUSH1 0x0 DUP3 DUP3 SHL SWAP1 POP SWAP3 SWAP2 POP POP JUMP JUMPDEST PUSH1 0x0 PUSH1 0x8 DUP4 MUL PUSH2 0xE6E PUSH32 0xFFFFFFFFFFFFFFFFFFFFFFFFFFFFFFFFFFFFFFFFFFFFFFFFFFFFFFFFFFFFFFFF DUP3 PUSH2 0xE31 JUMP JUMPDEST PUSH2 0xE78 DUP7 DUP4 PUSH2 0xE31 JUMP JUMPDEST SWAP6 POP DUP1 NOT DUP5 AND SWAP4 POP DUP1 DUP7 AND DUP5 OR SWAP3 POP POP POP SWAP4 SWAP3 POP POP POP JUMP JUMPDEST PUSH1 0x0 DUP2 SWAP1 POP SWAP2 SWAP1 POP JUMP JUMPDEST PUSH1 0x0 PUSH2 0xEB5 PUSH2 0xEB0 PUSH2 0xEAB DUP5 PUSH2 0x791 JUMP JUMPDEST PUSH2 0xE90 JUMP JUMPDEST PUSH2 0x791 JUMP JUMPDEST SWAP1 POP SWAP2 SWAP1 POP JUMP JUMPDEST PUSH1 0x0 DUP2 SWAP1 POP SWAP2 SWAP1 POP JUMP JUMPDEST PUSH2 0xECF DUP4 PUSH2 0xE9A JUMP JUMPDEST PUSH2 0xEE3 PUSH2 0xEDB DUP3 PUSH2 0xEBC JUMP JUMPDEST DUP5 DUP5 SLOAD PUSH2 0xE3E JUMP JUMPDEST DUP3 SSTORE POP POP POP POP JUMP JUMPDEST PUSH1 0x0 SWAP1 JUMP JUMPDEST PUSH2 0xEF8 PUSH2 0xEEB JUMP JUMPDEST PUSH2 0xF03 DUP2 DUP5 DUP5 PUSH2 0xEC6 JUMP JUMPDEST POP POP POP JUMP JUMPDEST JUMPDEST DUP2 DUP2 LT ISZERO PUSH2 0xF27 JUMPI PUSH2 0xF1C PUSH1 0x0 DUP3 PUSH2 0xEF0 JUMP JUMPDEST PUSH1 0x1 DUP2 ADD SWAP1 POP PUSH2 0xF09 JUMP JUMPDEST POP POP JUMP JUMPDEST PUSH1 0x1F DUP3 GT ISZERO PUSH2 0xF6C JUMPI PUSH2 0xF3D DUP2 PUSH2 0xE0C JUMP JUMPDEST PUSH2 0xF46 DUP5 PUSH2 0xE21 JUMP JUMPDEST DUP2 ADD PUSH1 0x20 DUP6 LT ISZERO PUSH2 0xF55 JUMPI DUP2 SWAP1 POP JUMPDEST PUSH2 0xF69 PUSH2 0xF61 DUP6 PUSH2 0xE21 JUMP JUMPDEST DUP4 ADD DUP3 PUSH2 0xF08 JUMP JUMPDEST POP POP JUMPDEST POP POP POP JUMP JUMPDEST PUSH1 0x0 DUP3 DUP3 SHR SWAP1 POP SWAP3 SWAP2 POP POP JUMP JUMPDEST PUSH1 0x0 PUSH2 0xF8F PUSH1 0x0 NOT DUP5 PUSH1 0x8 MUL PUSH2 0xF71 JUMP JUMPDEST NOT DUP1 DUP4 AND SWAP2 POP POP SWAP3 SWAP2 POP POP JUMP JUMPDEST PUSH1 0x0 PUSH2 0xFA8 DUP4 DUP4 PUSH2 0xF7E JUMP JUMPDEST SWAP2 POP DUP3 PUSH1 0x2 MUL DUP3 OR SWAP1 POP SWAP3 SWAP2 POP POP JUMP JUMPDEST PUSH2 0xFC1 DUP3 PUSH2 0x844 JUMP JUMPDEST PUSH8 0xFFFFFFFFFFFFFFFF DUP2 GT ISZERO PUSH2 0xFDA JUMPI PUSH2 0xFD9 PUSH2 0xB7F JUMP JUMPDEST JUMPDEST PUSH2 0xFE4 DUP3 SLOAD PUSH2 0xD35 JUMP JUMPDEST PUSH2 0xFEF DUP3 DUP3 DUP6 PUSH2 0xF2B JUMP JUMPDEST PUSH1 0x0 PUSH1 0x20 SWAP1 POP PUSH1 0x1F DUP4 GT PUSH1 0x1 DUP2 EQ PUSH2 0x1022 JUMPI PUSH1 0x0 DUP5 ISZERO PUSH2 0x1010 JUMPI DUP3 DUP8 ADD MLOAD SWAP1 POP JUMPDEST PUSH2 0x101A DUP6 DUP3 PUSH2 0xF9C JUMP JUMPDEST DUP7 SSTORE POP PUSH2 0x1082 JUMP JUMPDEST PUSH1 0x1F NOT DUP5 AND PUSH2 0x1030 DUP7 PUSH2 0xE0C JUMP JUMPDEST PUSH1 0x0 JUMPDEST DUP3 DUP2 LT ISZERO PUSH2 0x1058 JUMPI DUP5 DUP10 ADD MLOAD DUP3 SSTORE PUSH1 0x1 DUP3 ADD SWAP2 POP PUSH1 0x20 DUP6 ADD SWAP5 POP PUSH1 0x20 DUP2 ADD SWAP1 POP PUSH2 0x1033 JUMP JUMPDEST DUP7 DUP4 LT ISZERO PUSH2 0x1075 JUMPI DUP5 DUP10 ADD MLOAD PUSH2 0x1071 PUSH1 0x1F DUP10 AND DUP3 PUSH2 0xF7E JUMP JUMPDEST DUP4 SSTORE POP JUMPDEST PUSH1 0x1 PUSH1 0x2 DUP9 MUL ADD DUP9 SSTORE POP POP POP JUMPDEST POP POP POP POP POP POP JUMP INVALID LOG2 PUSH5 0x6970667358 0x22 SLT KECCAK256 PUSH27 0x5641681CFE3EF899218C9153CADE9CE3DDF3B7686D4793A1E431F9 0xE8 0xE0 PUSH9 0xE364736F6C63430008 0xF STOP CALLER "
				},
				"gasEstimates": {
					"creation": {
						"codeDepositCost": "857600",
						"executionCost": "890",
						"totalCost": "858490"
					},
					"external": {
						"createCrowdfunding(address,string)": "infinite",
						"getCrowdfundingByStatus(uint256)": "infinite",
						"list(uint256)": "infinite"
					}
				},
				"methodIdentifiers": {
					"createCrowdfunding(address,string)": "fd668907",
					"getCrowdfundingByStatus(uint256)": "904cc175",
					"list(uint256)": "80c9419e"
				}
			},
			"storageLayout": {
				"storage": [
					{
						"astId": 3,
						"contract": "crowdfunding.sol:CrowdfundingContract",
						"label": "No",
						"offset": 0,
						"slot": "0",
						"type": "t_uint256"
					},
					{
						"astId": 22,
						"contract": "crowdfunding.sol:CrowdfundingContract",
						"label": "list",
						"offset": 0,
						"slot": "1",
						"type": "t_array(t_struct(Crowdfunding)18_storage)dyn_storage"
					}
				],
				"types": {
					"t_address": {
						"encoding": "inplace",
						"label": "address",
						"numberOfBytes": "20"
					},
					"t_array(t_struct(Crowdfunding)18_storage)dyn_storage": {
						"base": "t_struct(Crowdfunding)18_storage",
						"encoding": "dynamic_array",
						"label": "struct CrowdfundingContract.Crowdfunding[]",
						"numberOfBytes": "32"
					},
					"t_string_storage": {
						"encoding": "bytes",
						"label": "string",
						"numberOfBytes": "32"
					},
					"t_struct(Crowdfunding)18_storage": {
						"encoding": "inplace",
						"label": "struct CrowdfundingContract.Crowdfunding",
						"members": [
							{
								"astId": 5,
								"contract": "crowdfunding.sol:CrowdfundingContract",
								"label": "num",
								"offset": 0,
								"slot": "0",
								"type": "t_uint256"
							},
							{
								"astId": 7,
								"contract": "crowdfunding.sol:CrowdfundingContract",
								"label": "status",
								"offset": 0,
								"slot": "1",
								"type": "t_uint256"
							},
							{
								"astId": 9,
								"contract": "crowdfunding.sol:CrowdfundingContract",
								"label": "creator",
								"offset": 0,
								"slot": "2",
								"type": "t_address"
							},
							{
								"astId": 11,
								"contract": "crowdfunding.sol:CrowdfundingContract",
								"label": "recipient",
								"offset": 0,
								"slot": "3",
								"type": "t_address"
							},
							{
								"astId": 13,
								"contract": "crowdfunding.sol:CrowdfundingContract",
								"label": "joinNum",
								"offset": 0,
								"slot": "4",
								"type": "t_uint256"
							},
							{
								"astId": 15,
								"contract": "crowdfunding.sol:CrowdfundingContract",
								"label": "expectAmout",
								"offset": 0,
								"slot": "5",
								"type": "t_string_storage"
							},
							{
								"astId": 17,
								"contract": "crowdfunding.sol:CrowdfundingContract",
								"label": "actualAmount",
								"offset": 0,
								"slot": "6",
								"type": "t_string_storage"
							}
						],
						"numberOfBytes": "224"
					},
					"t_uint256": {
						"encoding": "inplace",
						"label": "uint256",
						"numberOfBytes": "32"
					}
				}
			},
			"userdoc": {
				"kind": "user",
				"methods": {},
				"version": 1
			}
		}
	}
}