{
	"crowdfunding.sol": {
		"CrowdfundingContract": {
			"abi": [
				{
					"anonymous": false,
					"inputs": [
						{
							"indexed": false,
							"internalType": "address",
							"name": "msg",
							"type": "address"
						}
					],
					"name": "Log",
					"type": "event"
				},
				{
					"inputs": [
						{
							"internalType": "string",
							"name": "_title",
							"type": "string"
						},
						{
							"internalType": "address",
							"name": "_recipient",
							"type": "address"
						},
						{
							"internalType": "uint256",
							"name": "_expectAmout",
							"type": "uint256"
						}
					],
					"name": "createCrowdfunding",
					"outputs": [],
					"stateMutability": "nonpayable",
					"type": "function"
				},
				{
					"inputs": [
						{
							"internalType": "uint256",
							"name": "_status",
							"type": "uint256"
						}
					],
					"name": "getCrowdfundingByStatus",
					"outputs": [
						{
							"components": [
								{
									"internalType": "uint256",
									"name": "num",
									"type": "uint256"
								},
								{
									"internalType": "string",
									"name": "title",
									"type": "string"
								},
								{
									"internalType": "uint256",
									"name": "status",
									"type": "uint256"
								},
								{
									"internalType": "address",
									"name": "creator",
									"type": "address"
								},
								{
									"internalType": "address",
									"name": "recipient",
									"type": "address"
								},
								{
									"internalType": "uint256",
									"name": "joinNum",
									"type": "uint256"
								},
								{
									"internalType": "uint256",
									"name": "expectAmout",
									"type": "uint256"
								},
								{
									"internalType": "uint256",
									"name": "actualAmount",
									"type": "uint256"
								}
							],
							"internalType": "struct CrowdfundingContract.Crowdfunding[]",
							"name": "",
							"type": "tuple[]"
						}
					],
					"stateMutability": "view",
					"type": "function"
				},
				{
					"inputs": [
						{
							"internalType": "address",
							"name": "addr",
							"type": "address"
						}
					],
					"name": "getMyCrowdfunding",
					"outputs": [
						{
							"components": [
								{
									"internalType": "uint256",
									"name": "num",
									"type": "uint256"
								},
								{
									"internalType": "string",
									"name": "title",
									"type": "string"
								},
								{
									"internalType": "uint256",
									"name": "status",
									"type": "uint256"
								},
								{
									"internalType": "address",
									"name": "creator",
									"type": "address"
								},
								{
									"internalType": "address",
									"name": "recipient",
									"type": "address"
								},
								{
									"internalType": "uint256",
									"name": "joinNum",
									"type": "uint256"
								},
								{
									"internalType": "uint256",
									"name": "expectAmout",
									"type": "uint256"
								},
								{
									"internalType": "uint256",
									"name": "actualAmount",
									"type": "uint256"
								}
							],
							"internalType": "struct CrowdfundingContract.Crowdfunding[]",
							"name": "",
							"type": "tuple[]"
						}
					],
					"stateMutability": "view",
					"type": "function"
				},
				{
					"inputs": [
						{
							"internalType": "uint256",
							"name": "num",
							"type": "uint256"
						},
						{
							"internalType": "uint256",
							"name": "amount",
							"type": "uint256"
						},
						{
							"internalType": "address",
							"name": "addr",
							"type": "address"
						}
					],
					"name": "join",
					"outputs": [],
					"stateMutability": "nonpayable",
					"type": "function"
				},
				{
					"inputs": [
						{
							"internalType": "uint256",
							"name": "",
							"type": "uint256"
						}
					],
					"name": "list",
					"outputs": [
						{
							"internalType": "uint256",
							"name": "num",
							"type": "uint256"
						},
						{
							"internalType": "string",
							"name": "title",
							"type": "string"
						},
						{
							"internalType": "uint256",
							"name": "status",
							"type": "uint256"
						},
						{
							"internalType": "address",
							"name": "creator",
							"type": "address"
						},
						{
							"internalType": "address",
							"name": "recipient",
							"type": "address"
						},
						{
							"internalType": "uint256",
							"name": "joinNum",
							"type": "uint256"
						},
						{
							"internalType": "uint256",
							"name": "expectAmout",
							"type": "uint256"
						},
						{
							"internalType": "uint256",
							"name": "actualAmount",
							"type": "uint256"
						}
					],
					"stateMutability": "view",
					"type": "function"
				},
				{
					"inputs": [
						{
							"internalType": "uint256",
							"name": "num",
							"type": "uint256"
						}
					],
					"name": "setStatus",
					"outputs": [],
					"stateMutability": "nonpayable",
					"type": "function"
				},
				{
					"inputs": [
						{
							"internalType": "uint256",
							"name": "num",
							"type": "uint256"
						},
						{
							"internalType": "string",
							"name": "title",
							"type": "string"
						}
					],
					"name": "setTitle",
					"outputs": [],
					"stateMutability": "nonpayable",
					"type": "function"
				},
				{
					"inputs": [
						{
							"internalType": "string",
							"name": "s",
							"type": "string"
						}
					],
					"name": "stringToInt",
					"outputs": [
						{
							"internalType": "uint256",
							"name": "",
							"type": "uint256"
						}
					],
					"stateMutability": "pure",
					"type": "function"
				}
			],
			"devdoc": {
				"kind": "dev",
				"methods": {},
				"version": 1
			},
			"evm": {
				"assembly": "    /* \"crowdfunding.sol\":290:4321  contract CrowdfundingContract {\r... */\n  mstore(0x40, 0x80)\n  callvalue\n  dup1\n  iszero\n  tag_1\n  jumpi\n  0x00\n  dup1\n  revert\ntag_1:\n  pop\n  dataSize(sub_0)\n  dup1\n  dataOffset(sub_0)\n  0x00\n  codecopy\n  0x00\n  return\nstop\n\nsub_0: assembly {\n        /* \"crowdfunding.sol\":290:4321  contract CrowdfundingContract {\r... */\n      mstore(0x40, 0x80)\n      callvalue\n      dup1\n      iszero\n      tag_1\n      jumpi\n      0x00\n      dup1\n      revert\n    tag_1:\n      pop\n      jumpi(tag_2, lt(calldatasize, 0x04))\n      shr(0xe0, calldataload(0x00))\n      dup1\n      0x80c9419e\n      gt\n      tag_11\n      jumpi\n      dup1\n      0x80c9419e\n      eq\n      tag_7\n      jumpi\n      dup1\n      0x904cc175\n      eq\n      tag_8\n      jumpi\n      dup1\n      0xac8b1300\n      eq\n      tag_9\n      jumpi\n      dup1\n      0xf8a02d84\n      eq\n      tag_10\n      jumpi\n      jump(tag_2)\n    tag_11:\n      dup1\n      0x377e6ff7\n      eq\n      tag_3\n      jumpi\n      dup1\n      0x5102bc9d\n      eq\n      tag_4\n      jumpi\n      dup1\n      0x575b70d0\n      eq\n      tag_5\n      jumpi\n      dup1\n      0x69ba1a75\n      eq\n      tag_6\n      jumpi\n    tag_2:\n      0x00\n      dup1\n      revert\n        /* \"crowdfunding.sol\":4187:4318  function getMyCrowdfunding(address addr) public view returns (Crowdfunding[] memory) {\r... */\n    tag_3:\n      tag_12\n      0x04\n      dup1\n      calldatasize\n      sub\n      dup2\n      add\n      swap1\n      tag_13\n      swap2\n      swap1\n      tag_14\n      jump\t// in\n    tag_13:\n      tag_15\n      jump\t// in\n    tag_12:\n      mload(0x40)\n      tag_16\n      swap2\n      swap1\n      tag_17\n      jump\t// in\n    tag_16:\n      mload(0x40)\n      dup1\n      swap2\n      sub\n      swap1\n      return\n        /* \"crowdfunding.sol\":2867:2966  function setTitle(uint num,string memory title) public {\r... */\n    tag_4:\n      tag_18\n      0x04\n      dup1\n      calldatasize\n      sub\n      dup2\n      add\n      swap1\n      tag_19\n      swap2\n      swap1\n      tag_20\n      jump\t// in\n    tag_19:\n      tag_21\n      jump\t// in\n    tag_18:\n      stop\n        /* \"crowdfunding.sol\":3067:3902  function join(uint num,uint amount,address addr) public {\r... */\n    tag_5:\n      tag_22\n      0x04\n      dup1\n      calldatasize\n      sub\n      dup2\n      add\n      swap1\n      tag_23\n      swap2\n      swap1\n      tag_24\n      jump\t// in\n    tag_23:\n      tag_25\n      jump\t// in\n    tag_22:\n      stop\n        /* \"crowdfunding.sol\":2192:2784  function setStatus(uint num) public {\r... */\n    tag_6:\n      tag_26\n      0x04\n      dup1\n      calldatasize\n      sub\n      dup2\n      add\n      swap1\n      tag_27\n      swap2\n      swap1\n      tag_28\n      jump\t// in\n    tag_27:\n      tag_29\n      jump\t// in\n    tag_26:\n      stop\n        /* \"crowdfunding.sol\":814:840  Crowdfunding[] public list */\n    tag_7:\n      tag_30\n      0x04\n      dup1\n      calldatasize\n      sub\n      dup2\n      add\n      swap1\n      tag_31\n      swap2\n      swap1\n      tag_28\n      jump\t// in\n    tag_31:\n      tag_32\n      jump\t// in\n    tag_30:\n      mload(0x40)\n      tag_33\n      swap9\n      swap8\n      swap7\n      swap6\n      swap5\n      swap4\n      swap3\n      swap2\n      swap1\n      tag_34\n      jump\t// in\n    tag_33:\n      mload(0x40)\n      dup1\n      swap2\n      sub\n      swap1\n      return\n        /* \"crowdfunding.sol\":3954:4137  function getCrowdfundingByStatus(uint _status) public view returns (Crowdfunding[] memory) {\r... */\n    tag_8:\n      tag_35\n      0x04\n      dup1\n      calldatasize\n      sub\n      dup2\n      add\n      swap1\n      tag_36\n      swap2\n      swap1\n      tag_28\n      jump\t// in\n    tag_36:\n      tag_37\n      jump\t// in\n    tag_35:\n      mload(0x40)\n      tag_38\n      swap2\n      swap1\n      tag_17\n      jump\t// in\n    tag_38:\n      mload(0x40)\n      dup1\n      swap2\n      sub\n      swap1\n      return\n        /* \"crowdfunding.sol\":1508:2113  function createCrowdfunding(string memory _title,address _recipient, uint _expectAmout) public {\r... */\n    tag_9:\n      tag_39\n      0x04\n      dup1\n      calldatasize\n      sub\n      dup2\n      add\n      swap1\n      tag_40\n      swap2\n      swap1\n      tag_41\n      jump\t// in\n    tag_40:\n      tag_42\n      jump\t// in\n    tag_39:\n      stop\n        /* \"crowdfunding.sol\":1130:1500  function stringToInt(string memory s) public pure returns (uint){\r... */\n    tag_10:\n      tag_43\n      0x04\n      dup1\n      calldatasize\n      sub\n      dup2\n      add\n      swap1\n      tag_44\n      swap2\n      swap1\n      tag_45\n      jump\t// in\n    tag_44:\n      tag_46\n      jump\t// in\n    tag_43:\n      mload(0x40)\n      tag_47\n      swap2\n      swap1\n      tag_48\n      jump\t// in\n    tag_47:\n      mload(0x40)\n      dup1\n      swap2\n      sub\n      swap1\n      return\n        /* \"crowdfunding.sol\":4187:4318  function getMyCrowdfunding(address addr) public view returns (Crowdfunding[] memory) {\r... */\n    tag_15:\n        /* \"crowdfunding.sol\":4249:4270  Crowdfunding[] memory */\n      0x60\n        /* \"crowdfunding.sol\":4290:4304  myCrowdfunding */\n      0x03\n        /* \"crowdfunding.sol\":4290:4310  myCrowdfunding[addr] */\n      0x00\n        /* \"crowdfunding.sol\":4305:4309  addr */\n      dup4\n        /* \"crowdfunding.sol\":4290:4310  myCrowdfunding[addr] */\n      0xffffffffffffffffffffffffffffffffffffffff\n      and\n      0xffffffffffffffffffffffffffffffffffffffff\n      and\n      dup2\n      mstore\n      0x20\n      add\n      swap1\n      dup2\n      mstore\n      0x20\n      add\n      0x00\n      keccak256\n        /* \"crowdfunding.sol\":4283:4310  return myCrowdfunding[addr] */\n      dup1\n      sload\n      dup1\n      0x20\n      mul\n      0x20\n      add\n      mload(0x40)\n      swap1\n      dup2\n      add\n      0x40\n      mstore\n      dup1\n      swap3\n      swap2\n      swap1\n      dup2\n      dup2\n      mstore\n      0x20\n      add\n      0x00\n      swap1\n    tag_50:\n      dup3\n      dup3\n      lt\n      iszero\n      tag_51\n      jumpi\n      dup4\n      dup3\n      swap1\n      0x00\n      mstore\n      keccak256(0x00, 0x20)\n      swap1\n      0x08\n      mul\n      add\n      mload(0x40)\n      dup1\n      0x0100\n      add\n      0x40\n      mstore\n      swap1\n      dup2\n      0x00\n      dup3\n      add\n      sload\n      dup2\n      mstore\n      0x20\n      add\n      0x01\n      dup3\n      add\n      dup1\n      sload\n      tag_53\n      swap1\n      tag_54\n      jump\t// in\n    tag_53:\n      dup1\n      0x1f\n      add\n      0x20\n      dup1\n      swap2\n      div\n      mul\n      0x20\n      add\n      mload(0x40)\n      swap1\n      dup2\n      add\n      0x40\n      mstore\n      dup1\n      swap3\n      swap2\n      swap1\n      dup2\n      dup2\n      mstore\n      0x20\n      add\n      dup3\n      dup1\n      sload\n      tag_55\n      swap1\n      tag_54\n      jump\t// in\n    tag_55:\n      dup1\n      iszero\n      tag_56\n      jumpi\n      dup1\n      0x1f\n      lt\n      tag_57\n      jumpi\n      0x0100\n      dup1\n      dup4\n      sload\n      div\n      mul\n      dup4\n      mstore\n      swap2\n      0x20\n      add\n      swap2\n      jump(tag_56)\n    tag_57:\n      dup3\n      add\n      swap2\n      swap1\n      0x00\n      mstore\n      keccak256(0x00, 0x20)\n      swap1\n    tag_58:\n      dup2\n      sload\n      dup2\n      mstore\n      swap1\n      0x01\n      add\n      swap1\n      0x20\n      add\n      dup1\n      dup4\n      gt\n      tag_58\n      jumpi\n      dup3\n      swap1\n      sub\n      0x1f\n      and\n      dup3\n      add\n      swap2\n    tag_56:\n      pop\n      pop\n      pop\n      pop\n      pop\n      dup2\n      mstore\n      0x20\n      add\n      0x02\n      dup3\n      add\n      sload\n      dup2\n      mstore\n      0x20\n      add\n      0x03\n      dup3\n      add\n      0x00\n      swap1\n      sload\n      swap1\n      0x0100\n      exp\n      swap1\n      div\n      0xffffffffffffffffffffffffffffffffffffffff\n      and\n      0xffffffffffffffffffffffffffffffffffffffff\n      and\n      0xffffffffffffffffffffffffffffffffffffffff\n      and\n      dup2\n      mstore\n      0x20\n      add\n      0x04\n      dup3\n      add\n      0x00\n      swap1\n      sload\n      swap1\n      0x0100\n      exp\n      swap1\n      div\n      0xffffffffffffffffffffffffffffffffffffffff\n      and\n      0xffffffffffffffffffffffffffffffffffffffff\n      and\n      0xffffffffffffffffffffffffffffffffffffffff\n      and\n      dup2\n      mstore\n      0x20\n      add\n      0x05\n      dup3\n      add\n      sload\n      dup2\n      mstore\n      0x20\n      add\n      0x06\n      dup3\n      add\n      sload\n      dup2\n      mstore\n      0x20\n      add\n      0x07\n      dup3\n      add\n      sload\n      dup2\n      mstore\n      pop\n      pop\n      dup2\n      mstore\n      0x20\n      add\n      swap1\n      0x01\n      add\n      swap1\n      jump(tag_50)\n    tag_51:\n      pop\n      pop\n      pop\n      pop\n      swap1\n      pop\n        /* \"crowdfunding.sol\":4187:4318  function getMyCrowdfunding(address addr) public view returns (Crowdfunding[] memory) {\r... */\n      swap2\n      swap1\n      pop\n      jump\t// out\n        /* \"crowdfunding.sol\":2867:2966  function setTitle(uint num,string memory title) public {\r... */\n    tag_21:\n        /* \"crowdfunding.sol\":2953:2958  title */\n      dup1\n        /* \"crowdfunding.sol\":2933:2937  list */\n      0x01\n        /* \"crowdfunding.sol\":2942:2943  1 */\n      dup1\n        /* \"crowdfunding.sol\":2938:2941  num */\n      dup5\n        /* \"crowdfunding.sol\":2938:2943  num-1 */\n      tag_60\n      swap2\n      swap1\n      tag_61\n      jump\t// in\n    tag_60:\n        /* \"crowdfunding.sol\":2933:2944  list[num-1] */\n      dup2\n      sload\n      dup2\n      lt\n      tag_62\n      jumpi\n      tag_63\n      tag_64\n      jump\t// in\n    tag_63:\n    tag_62:\n      swap1\n      0x00\n      mstore\n      keccak256(0x00, 0x20)\n      swap1\n      0x08\n      mul\n      add\n        /* \"crowdfunding.sol\":2933:2950  list[num-1].title */\n      0x01\n      add\n        /* \"crowdfunding.sol\":2933:2958  list[num-1].title = title */\n      swap1\n      dup1\n      mload\n      swap1\n      0x20\n      add\n      swap1\n      tag_66\n      swap3\n      swap2\n      swap1\n      tag_67\n      jump\t// in\n    tag_66:\n      pop\n        /* \"crowdfunding.sol\":2867:2966  function setTitle(uint num,string memory title) public {\r... */\n      pop\n      pop\n      jump\t// out\n        /* \"crowdfunding.sol\":3067:3902  function join(uint num,uint amount,address addr) public {\r... */\n    tag_25:\n        /* \"crowdfunding.sol\":3134:3150  bool isFirstJoin */\n      0x00\n        /* \"crowdfunding.sol\":3174:3180  uint i */\n      dup1\n        /* \"crowdfunding.sol\":3170:3391  for(uint i = 0; i < calcJoinNum[num].length;i++) {\r... */\n    tag_69:\n        /* \"crowdfunding.sol\":3190:3201  calcJoinNum */\n      0x04\n        /* \"crowdfunding.sol\":3190:3206  calcJoinNum[num] */\n      0x00\n        /* \"crowdfunding.sol\":3202:3205  num */\n      dup7\n        /* \"crowdfunding.sol\":3190:3206  calcJoinNum[num] */\n      dup2\n      mstore\n      0x20\n      add\n      swap1\n      dup2\n      mstore\n      0x20\n      add\n      0x00\n      keccak256\n        /* \"crowdfunding.sol\":3190:3213  calcJoinNum[num].length */\n      dup1\n      sload\n      swap1\n      pop\n        /* \"crowdfunding.sol\":3186:3187  i */\n      dup2\n        /* \"crowdfunding.sol\":3186:3213  i < calcJoinNum[num].length */\n      lt\n        /* \"crowdfunding.sol\":3170:3391  for(uint i = 0; i < calcJoinNum[num].length;i++) {\r... */\n      iszero\n      tag_70\n      jumpi\n        /* \"crowdfunding.sol\":3297:3301  addr */\n      dup3\n        /* \"crowdfunding.sol\":3272:3301  calcJoinNum[num-1][i] != addr */\n      0xffffffffffffffffffffffffffffffffffffffff\n      and\n        /* \"crowdfunding.sol\":3272:3283  calcJoinNum */\n      0x04\n        /* \"crowdfunding.sol\":3272:3290  calcJoinNum[num-1] */\n      0x00\n        /* \"crowdfunding.sol\":3288:3289  1 */\n      0x01\n        /* \"crowdfunding.sol\":3284:3287  num */\n      dup9\n        /* \"crowdfunding.sol\":3284:3289  num-1 */\n      tag_72\n      swap2\n      swap1\n      tag_61\n      jump\t// in\n    tag_72:\n        /* \"crowdfunding.sol\":3272:3290  calcJoinNum[num-1] */\n      dup2\n      mstore\n      0x20\n      add\n      swap1\n      dup2\n      mstore\n      0x20\n      add\n      0x00\n      keccak256\n        /* \"crowdfunding.sol\":3291:3292  i */\n      dup3\n        /* \"crowdfunding.sol\":3272:3293  calcJoinNum[num-1][i] */\n      dup2\n      sload\n      dup2\n      lt\n      tag_73\n      jumpi\n      tag_74\n      tag_64\n      jump\t// in\n    tag_74:\n    tag_73:\n      swap1\n      0x00\n      mstore\n      keccak256(0x00, 0x20)\n      add\n      0x00\n      swap1\n      sload\n      swap1\n      0x0100\n      exp\n      swap1\n      div\n      0xffffffffffffffffffffffffffffffffffffffff\n      and\n        /* \"crowdfunding.sol\":3272:3301  calcJoinNum[num-1][i] != addr */\n      0xffffffffffffffffffffffffffffffffffffffff\n      and\n      eq\n        /* \"crowdfunding.sol\":3269:3380  if(calcJoinNum[num-1][i] != addr) {\r... */\n      tag_76\n      jumpi\n        /* \"crowdfunding.sol\":3336:3340  true */\n      0x01\n        /* \"crowdfunding.sol\":3322:3340  isFirstJoin = true */\n      swap2\n      pop\n        /* \"crowdfunding.sol\":3359:3364  break */\n      jump(tag_70)\n        /* \"crowdfunding.sol\":3269:3380  if(calcJoinNum[num-1][i] != addr) {\r... */\n    tag_76:\n        /* \"crowdfunding.sol\":3214:3217  i++ */\n      dup1\n      dup1\n      tag_77\n      swap1\n      tag_78\n      jump\t// in\n    tag_77:\n      swap2\n      pop\n      pop\n        /* \"crowdfunding.sol\":3170:3391  for(uint i = 0; i < calcJoinNum[num].length;i++) {\r... */\n      jump(tag_69)\n    tag_70:\n      pop\n        /* \"crowdfunding.sol\":3406:3417  isFirstJoin */\n      dup1\n        /* \"crowdfunding.sol\":3403:3527  if(isFirstJoin) {\r... */\n      iszero\n      tag_79\n      jumpi\n        /* \"crowdfunding.sol\":3457:3458  1 */\n      0x01\n        /* \"crowdfunding.sol\":3434:3438  list */\n      dup1\n        /* \"crowdfunding.sol\":3443:3444  1 */\n      0x01\n        /* \"crowdfunding.sol\":3439:3442  num */\n      dup7\n        /* \"crowdfunding.sol\":3439:3444  num-1 */\n      tag_80\n      swap2\n      swap1\n      tag_61\n      jump\t// in\n    tag_80:\n        /* \"crowdfunding.sol\":3434:3445  list[num-1] */\n      dup2\n      sload\n      dup2\n      lt\n      tag_81\n      jumpi\n      tag_82\n      tag_64\n      jump\t// in\n    tag_82:\n    tag_81:\n      swap1\n      0x00\n      mstore\n      keccak256(0x00, 0x20)\n      swap1\n      0x08\n      mul\n      add\n        /* \"crowdfunding.sol\":3434:3453  list[num-1].joinNum */\n      0x05\n      add\n      0x00\n        /* \"crowdfunding.sol\":3434:3458  list[num-1].joinNum += 1 */\n      dup3\n      dup3\n      sload\n      tag_84\n      swap2\n      swap1\n      tag_85\n      jump\t// in\n    tag_84:\n      swap3\n      pop\n      pop\n      dup2\n      swap1\n      sstore\n      pop\n        /* \"crowdfunding.sol\":3403:3527  if(isFirstJoin) {\r... */\n      jump(tag_86)\n    tag_79:\n        /* \"crowdfunding.sol\":3513:3515  10 */\n      0x0a\n        /* \"crowdfunding.sol\":3490:3494  list */\n      0x01\n        /* \"crowdfunding.sol\":3499:3500  1 */\n      dup1\n        /* \"crowdfunding.sol\":3495:3498  num */\n      dup7\n        /* \"crowdfunding.sol\":3495:3500  num-1 */\n      tag_87\n      swap2\n      swap1\n      tag_61\n      jump\t// in\n    tag_87:\n        /* \"crowdfunding.sol\":3490:3501  list[num-1] */\n      dup2\n      sload\n      dup2\n      lt\n      tag_88\n      jumpi\n      tag_89\n      tag_64\n      jump\t// in\n    tag_89:\n    tag_88:\n      swap1\n      0x00\n      mstore\n      keccak256(0x00, 0x20)\n      swap1\n      0x08\n      mul\n      add\n        /* \"crowdfunding.sol\":3490:3509  list[num-1].joinNum */\n      0x05\n      add\n      0x00\n        /* \"crowdfunding.sol\":3490:3515  list[num-1].joinNum += 10 */\n      dup3\n      dup3\n      sload\n      tag_91\n      swap2\n      swap1\n      tag_85\n      jump\t// in\n    tag_91:\n      swap3\n      pop\n      pop\n      dup2\n      swap1\n      sstore\n      pop\n        /* \"crowdfunding.sol\":3403:3527  if(isFirstJoin) {\r... */\n    tag_86:\n        /* \"crowdfunding.sol\":3539:3550  calcJoinNum */\n      0x04\n        /* \"crowdfunding.sol\":3539:3557  calcJoinNum[num-1] */\n      0x00\n        /* \"crowdfunding.sol\":3555:3556  1 */\n      0x01\n        /* \"crowdfunding.sol\":3551:3554  num */\n      dup7\n        /* \"crowdfunding.sol\":3551:3556  num-1 */\n      tag_92\n      swap2\n      swap1\n      tag_61\n      jump\t// in\n    tag_92:\n        /* \"crowdfunding.sol\":3539:3557  calcJoinNum[num-1] */\n      dup2\n      mstore\n      0x20\n      add\n      swap1\n      dup2\n      mstore\n      0x20\n      add\n      0x00\n      keccak256\n        /* \"crowdfunding.sol\":3563:3567  addr */\n      dup3\n        /* \"crowdfunding.sol\":3539:3568  calcJoinNum[num-1].push(addr) */\n      swap1\n      dup1\n      0x01\n      dup2\n      sload\n      add\n      dup1\n      dup3\n      sstore\n      dup1\n      swap2\n      pop\n      pop\n      0x01\n      swap1\n      sub\n      swap1\n      0x00\n      mstore\n      keccak256(0x00, 0x20)\n      add\n      0x00\n      swap1\n      swap2\n      swap1\n      swap2\n      swap1\n      swap2\n      0x0100\n      exp\n      dup2\n      sload\n      dup2\n      0xffffffffffffffffffffffffffffffffffffffff\n      mul\n      not\n      and\n      swap1\n      dup4\n      0xffffffffffffffffffffffffffffffffffffffff\n      and\n      mul\n      or\n      swap1\n      sstore\n      pop\n        /* \"crowdfunding.sol\":3668:3674  amount */\n      dup3\n        /* \"crowdfunding.sol\":3641:3645  list */\n      0x01\n        /* \"crowdfunding.sol\":3650:3651  1 */\n      dup1\n        /* \"crowdfunding.sol\":3646:3649  num */\n      dup7\n        /* \"crowdfunding.sol\":3646:3651  num-1 */\n      tag_94\n      swap2\n      swap1\n      tag_61\n      jump\t// in\n    tag_94:\n        /* \"crowdfunding.sol\":3641:3652  list[num-1] */\n      dup2\n      sload\n      dup2\n      lt\n      tag_95\n      jumpi\n      tag_96\n      tag_64\n      jump\t// in\n    tag_96:\n    tag_95:\n      swap1\n      0x00\n      mstore\n      keccak256(0x00, 0x20)\n      swap1\n      0x08\n      mul\n      add\n        /* \"crowdfunding.sol\":3641:3665  list[num-1].actualAmount */\n      0x07\n      add\n      sload\n        /* \"crowdfunding.sol\":3641:3674  list[num-1].actualAmount + amount */\n      tag_98\n      swap2\n      swap1\n      tag_85\n      jump\t// in\n    tag_98:\n        /* \"crowdfunding.sol\":3614:3618  list */\n      0x01\n        /* \"crowdfunding.sol\":3623:3624  1 */\n      dup1\n        /* \"crowdfunding.sol\":3619:3622  num */\n      dup7\n        /* \"crowdfunding.sol\":3619:3624  num-1 */\n      tag_99\n      swap2\n      swap1\n      tag_61\n      jump\t// in\n    tag_99:\n        /* \"crowdfunding.sol\":3614:3625  list[num-1] */\n      dup2\n      sload\n      dup2\n      lt\n      tag_100\n      jumpi\n      tag_101\n      tag_64\n      jump\t// in\n    tag_101:\n    tag_100:\n      swap1\n      0x00\n      mstore\n      keccak256(0x00, 0x20)\n      swap1\n      0x08\n      mul\n      add\n        /* \"crowdfunding.sol\":3614:3638  list[num-1].actualAmount */\n      0x07\n      add\n        /* \"crowdfunding.sol\":3614:3674  list[num-1].actualAmount = list[num-1].actualAmount + amount */\n      dup2\n      swap1\n      sstore\n      pop\n        /* \"crowdfunding.sol\":3716:3720  list */\n      0x01\n        /* \"crowdfunding.sol\":3725:3726  1 */\n      dup1\n        /* \"crowdfunding.sol\":3721:3724  num */\n      dup6\n        /* \"crowdfunding.sol\":3721:3726  num-1 */\n      tag_103\n      swap2\n      swap1\n      tag_61\n      jump\t// in\n    tag_103:\n        /* \"crowdfunding.sol\":3716:3727  list[num-1] */\n      dup2\n      sload\n      dup2\n      lt\n      tag_104\n      jumpi\n      tag_105\n      tag_64\n      jump\t// in\n    tag_105:\n    tag_104:\n      swap1\n      0x00\n      mstore\n      keccak256(0x00, 0x20)\n      swap1\n      0x08\n      mul\n      add\n        /* \"crowdfunding.sol\":3716:3739  list[num-1].expectAmout */\n      0x06\n      add\n      sload\n        /* \"crowdfunding.sol\":3688:3692  list */\n      0x01\n        /* \"crowdfunding.sol\":3697:3698  1 */\n      dup1\n        /* \"crowdfunding.sol\":3693:3696  num */\n      dup7\n        /* \"crowdfunding.sol\":3693:3698  num-1 */\n      tag_107\n      swap2\n      swap1\n      tag_61\n      jump\t// in\n    tag_107:\n        /* \"crowdfunding.sol\":3688:3699  list[num-1] */\n      dup2\n      sload\n      dup2\n      lt\n      tag_108\n      jumpi\n      tag_109\n      tag_64\n      jump\t// in\n    tag_109:\n    tag_108:\n      swap1\n      0x00\n      mstore\n      keccak256(0x00, 0x20)\n      swap1\n      0x08\n      mul\n      add\n        /* \"crowdfunding.sol\":3688:3712  list[num-1].actualAmount */\n      0x07\n      add\n      sload\n        /* \"crowdfunding.sol\":3688:3739  list[num-1].actualAmount >= list[num-1].expectAmout */\n      lt\n        /* \"crowdfunding.sol\":3685:3895  if(list[num-1].actualAmount >= list[num-1].expectAmout){\r... */\n      tag_111\n      jumpi\n        /* \"crowdfunding.sol\":3843:3844  2 */\n      0x02\n        /* \"crowdfunding.sol\":3822:3826  list */\n      0x01\n        /* \"crowdfunding.sol\":3831:3832  1 */\n      dup1\n        /* \"crowdfunding.sol\":3827:3830  num */\n      dup7\n        /* \"crowdfunding.sol\":3827:3832  num-1 */\n      tag_112\n      swap2\n      swap1\n      tag_61\n      jump\t// in\n    tag_112:\n        /* \"crowdfunding.sol\":3822:3833  list[num-1] */\n      dup2\n      sload\n      dup2\n      lt\n      tag_113\n      jumpi\n      tag_114\n      tag_64\n      jump\t// in\n    tag_114:\n    tag_113:\n      swap1\n      0x00\n      mstore\n      keccak256(0x00, 0x20)\n      swap1\n      0x08\n      mul\n      add\n        /* \"crowdfunding.sol\":3822:3840  list[num-1].status */\n      0x02\n      add\n        /* \"crowdfunding.sol\":3822:3844  list[num-1].status = 2 */\n      dup2\n      swap1\n      sstore\n      pop\n        /* \"crowdfunding.sol\":3685:3895  if(list[num-1].actualAmount >= list[num-1].expectAmout){\r... */\n    tag_111:\n        /* \"crowdfunding.sol\":3123:3902  {\r... */\n      pop\n        /* \"crowdfunding.sol\":3067:3902  function join(uint num,uint amount,address addr) public {\r... */\n      pop\n      pop\n      pop\n      jump\t// out\n        /* \"crowdfunding.sol\":2192:2784  function setStatus(uint num) public {\r... */\n    tag_29:\n        /* \"crowdfunding.sol\":2260:2261  3 */\n      0x03\n        /* \"crowdfunding.sol\":2239:2243  list */\n      0x01\n        /* \"crowdfunding.sol\":2248:2249  1 */\n      dup1\n        /* \"crowdfunding.sol\":2244:2247  num */\n      dup4\n        /* \"crowdfunding.sol\":2244:2249  num-1 */\n      tag_117\n      swap2\n      swap1\n      tag_61\n      jump\t// in\n    tag_117:\n        /* \"crowdfunding.sol\":2239:2250  list[num-1] */\n      dup2\n      sload\n      dup2\n      lt\n      tag_118\n      jumpi\n      tag_119\n      tag_64\n      jump\t// in\n    tag_119:\n    tag_118:\n      swap1\n      0x00\n      mstore\n      keccak256(0x00, 0x20)\n      swap1\n      0x08\n      mul\n      add\n        /* \"crowdfunding.sol\":2239:2257  list[num-1].status */\n      0x02\n      add\n        /* \"crowdfunding.sol\":2239:2261  list[num-1].status = 3 */\n      dup2\n      swap1\n      sstore\n      pop\n        /* \"crowdfunding.sol\":2370:2371  1 */\n      0x01\n        /* \"crowdfunding.sol\":2338:2356  filterDataByStatus */\n      0x02\n        /* \"crowdfunding.sol\":2338:2359  filterDataByStatus[1] */\n      0x00\n        /* \"crowdfunding.sol\":2357:2358  1 */\n      0x01\n        /* \"crowdfunding.sol\":2338:2359  filterDataByStatus[1] */\n      dup2\n      mstore\n      0x20\n      add\n      swap1\n      dup2\n      mstore\n      0x20\n      add\n      0x00\n      keccak256\n        /* \"crowdfunding.sol\":2338:2366  filterDataByStatus[1].length */\n      dup1\n      sload\n      swap1\n      pop\n        /* \"crowdfunding.sol\":2338:2371  filterDataByStatus[1].length == 1 */\n      eq\n        /* \"crowdfunding.sol\":2335:2727  if(filterDataByStatus[1].length == 1){\r... */\n      iszero\n      tag_121\n      jumpi\n        /* \"crowdfunding.sol\":2387:2405  filterDataByStatus */\n      0x02\n        /* \"crowdfunding.sol\":2387:2408  filterDataByStatus[1] */\n      0x00\n        /* \"crowdfunding.sol\":2406:2407  1 */\n      0x01\n        /* \"crowdfunding.sol\":2387:2408  filterDataByStatus[1] */\n      dup2\n      mstore\n      0x20\n      add\n      swap1\n      dup2\n      mstore\n      0x20\n      add\n      0x00\n      keccak256\n        /* \"crowdfunding.sol\":2387:2414  filterDataByStatus[1].pop() */\n      dup1\n      sload\n      dup1\n      tag_122\n      jumpi\n      tag_123\n      tag_124\n      jump\t// in\n    tag_123:\n    tag_122:\n      0x01\n      swap1\n      sub\n      dup2\n      dup2\n      swap1\n      0x00\n      mstore\n      keccak256(0x00, 0x20)\n      swap1\n      0x08\n      mul\n      add\n      0x00\n      dup1\n      dup3\n      add\n      0x00\n      swap1\n      sstore\n      0x01\n      dup3\n      add\n      0x00\n      tag_126\n      swap2\n      swap1\n      tag_127\n      jump\t// in\n    tag_126:\n      0x02\n      dup3\n      add\n      0x00\n      swap1\n      sstore\n      0x03\n      dup3\n      add\n      exp(0x0100, 0x00)\n      dup2\n      sload\n      swap1\n      0xffffffffffffffffffffffffffffffffffffffff\n      mul\n      not\n      and\n      swap1\n      sstore\n      0x04\n      dup3\n      add\n      exp(0x0100, 0x00)\n      dup2\n      sload\n      swap1\n      0xffffffffffffffffffffffffffffffffffffffff\n      mul\n      not\n      and\n      swap1\n      sstore\n      0x05\n      dup3\n      add\n      0x00\n      swap1\n      sstore\n      0x06\n      dup3\n      add\n      0x00\n      swap1\n      sstore\n      0x07\n      dup3\n      add\n      0x00\n      swap1\n      sstore\n      pop\n      pop\n      swap1\n      sstore\n        /* \"crowdfunding.sol\":2335:2727  if(filterDataByStatus[1].length == 1){\r... */\n      jump(tag_128)\n    tag_121:\n        /* \"crowdfunding.sol\":2449:2455  uint i */\n      0x00\n        /* \"crowdfunding.sol\":2445:2674  for(uint i = 0; i < filterDataByStatus[1].length - 1; i++) {\r... */\n    tag_129:\n        /* \"crowdfunding.sol\":2496:2497  1 */\n      0x01\n        /* \"crowdfunding.sol\":2465:2483  filterDataByStatus */\n      0x02\n        /* \"crowdfunding.sol\":2465:2486  filterDataByStatus[1] */\n      0x00\n        /* \"crowdfunding.sol\":2484:2485  1 */\n      0x01\n        /* \"crowdfunding.sol\":2465:2486  filterDataByStatus[1] */\n      dup2\n      mstore\n      0x20\n      add\n      swap1\n      dup2\n      mstore\n      0x20\n      add\n      0x00\n      keccak256\n        /* \"crowdfunding.sol\":2465:2493  filterDataByStatus[1].length */\n      dup1\n      sload\n      swap1\n      pop\n        /* \"crowdfunding.sol\":2465:2497  filterDataByStatus[1].length - 1 */\n      tag_132\n      swap2\n      swap1\n      tag_61\n      jump\t// in\n    tag_132:\n        /* \"crowdfunding.sol\":2461:2462  i */\n      dup2\n        /* \"crowdfunding.sol\":2461:2497  i < filterDataByStatus[1].length - 1 */\n      lt\n        /* \"crowdfunding.sol\":2445:2674  for(uint i = 0; i < filterDataByStatus[1].length - 1; i++) {\r... */\n      iszero\n      tag_130\n      jumpi\n        /* \"crowdfunding.sol\":2558:2561  num */\n      dup2\n        /* \"crowdfunding.sol\":2526:2544  filterDataByStatus */\n      0x02\n        /* \"crowdfunding.sol\":2526:2547  filterDataByStatus[1] */\n      0x00\n        /* \"crowdfunding.sol\":2545:2546  1 */\n      0x01\n        /* \"crowdfunding.sol\":2526:2547  filterDataByStatus[1] */\n      dup2\n      mstore\n      0x20\n      add\n      swap1\n      dup2\n      mstore\n      0x20\n      add\n      0x00\n      keccak256\n        /* \"crowdfunding.sol\":2548:2549  i */\n      dup3\n        /* \"crowdfunding.sol\":2526:2550  filterDataByStatus[1][i] */\n      dup2\n      sload\n      dup2\n      lt\n      tag_133\n      jumpi\n      tag_134\n      tag_64\n      jump\t// in\n    tag_134:\n    tag_133:\n      swap1\n      0x00\n      mstore\n      keccak256(0x00, 0x20)\n      swap1\n      0x08\n      mul\n      add\n        /* \"crowdfunding.sol\":2526:2554  filterDataByStatus[1][i].num */\n      0x00\n      add\n      sload\n        /* \"crowdfunding.sol\":2526:2561  filterDataByStatus[1][i].num == num */\n      eq\n        /* \"crowdfunding.sol\":2523:2659  if(filterDataByStatus[1][i].num == num) {\r... */\n      iszero\n      tag_136\n      jumpi\n        /* \"crowdfunding.sol\":2613:2631  filterDataByStatus */\n      0x02\n        /* \"crowdfunding.sol\":2613:2634  filterDataByStatus[1] */\n      0x00\n        /* \"crowdfunding.sol\":2632:2633  1 */\n      0x01\n        /* \"crowdfunding.sol\":2613:2634  filterDataByStatus[1] */\n      dup2\n      mstore\n      0x20\n      add\n      swap1\n      dup2\n      mstore\n      0x20\n      add\n      0x00\n      keccak256\n        /* \"crowdfunding.sol\":2637:2638  1 */\n      0x01\n        /* \"crowdfunding.sol\":2635:2636  i */\n      dup3\n        /* \"crowdfunding.sol\":2635:2638  i+1 */\n      tag_137\n      swap2\n      swap1\n      tag_85\n      jump\t// in\n    tag_137:\n        /* \"crowdfunding.sol\":2613:2639  filterDataByStatus[1][i+1] */\n      dup2\n      sload\n      dup2\n      lt\n      tag_138\n      jumpi\n      tag_139\n      tag_64\n      jump\t// in\n    tag_139:\n    tag_138:\n      swap1\n      0x00\n      mstore\n      keccak256(0x00, 0x20)\n      swap1\n      0x08\n      mul\n      add\n        /* \"crowdfunding.sol\":2586:2604  filterDataByStatus */\n      0x02\n        /* \"crowdfunding.sol\":2586:2607  filterDataByStatus[1] */\n      0x00\n        /* \"crowdfunding.sol\":2605:2606  1 */\n      0x01\n        /* \"crowdfunding.sol\":2586:2607  filterDataByStatus[1] */\n      dup2\n      mstore\n      0x20\n      add\n      swap1\n      dup2\n      mstore\n      0x20\n      add\n      0x00\n      keccak256\n        /* \"crowdfunding.sol\":2608:2609  i */\n      dup3\n        /* \"crowdfunding.sol\":2586:2610  filterDataByStatus[1][i] */\n      dup2\n      sload\n      dup2\n      lt\n      tag_141\n      jumpi\n      tag_142\n      tag_64\n      jump\t// in\n    tag_142:\n    tag_141:\n      swap1\n      0x00\n      mstore\n      keccak256(0x00, 0x20)\n      swap1\n      0x08\n      mul\n      add\n        /* \"crowdfunding.sol\":2586:2639  filterDataByStatus[1][i] = filterDataByStatus[1][i+1] */\n      0x00\n      dup3\n      add\n      sload\n      dup2\n      0x00\n      add\n      sstore\n      0x01\n      dup3\n      add\n      dup2\n      0x01\n      add\n      swap1\n      dup1\n      sload\n      tag_144\n      swap1\n      tag_54\n      jump\t// in\n    tag_144:\n      tag_145\n      swap3\n      swap2\n      swap1\n      tag_146\n      jump\t// in\n    tag_145:\n      pop\n      0x02\n      dup3\n      add\n      sload\n      dup2\n      0x02\n      add\n      sstore\n      0x03\n      dup3\n      add\n      0x00\n      swap1\n      sload\n      swap1\n      0x0100\n      exp\n      swap1\n      div\n      0xffffffffffffffffffffffffffffffffffffffff\n      and\n      dup2\n      0x03\n      add\n      exp(0x0100, 0x00)\n      dup2\n      sload\n      dup2\n      0xffffffffffffffffffffffffffffffffffffffff\n      mul\n      not\n      and\n      swap1\n      dup4\n      0xffffffffffffffffffffffffffffffffffffffff\n      and\n      mul\n      or\n      swap1\n      sstore\n      pop\n      0x04\n      dup3\n      add\n      0x00\n      swap1\n      sload\n      swap1\n      0x0100\n      exp\n      swap1\n      div\n      0xffffffffffffffffffffffffffffffffffffffff\n      and\n      dup2\n      0x04\n      add\n      exp(0x0100, 0x00)\n      dup2\n      sload\n      dup2\n      0xffffffffffffffffffffffffffffffffffffffff\n      mul\n      not\n      and\n      swap1\n      dup4\n      0xffffffffffffffffffffffffffffffffffffffff\n      and\n      mul\n      or\n      swap1\n      sstore\n      pop\n      0x05\n      dup3\n      add\n      sload\n      dup2\n      0x05\n      add\n      sstore\n      0x06\n      dup3\n      add\n      sload\n      dup2\n      0x06\n      add\n      sstore\n      0x07\n      dup3\n      add\n      sload\n      dup2\n      0x07\n      add\n      sstore\n      swap1\n      pop\n      pop\n        /* \"crowdfunding.sol\":2523:2659  if(filterDataByStatus[1][i].num == num) {\r... */\n    tag_136:\n        /* \"crowdfunding.sol\":2499:2502  i++ */\n      dup1\n      dup1\n      tag_147\n      swap1\n      tag_78\n      jump\t// in\n    tag_147:\n      swap2\n      pop\n      pop\n        /* \"crowdfunding.sol\":2445:2674  for(uint i = 0; i < filterDataByStatus[1].length - 1; i++) {\r... */\n      jump(tag_129)\n    tag_130:\n      pop\n        /* \"crowdfunding.sol\":2688:2706  filterDataByStatus */\n      0x02\n        /* \"crowdfunding.sol\":2688:2709  filterDataByStatus[1] */\n      0x00\n        /* \"crowdfunding.sol\":2707:2708  1 */\n      0x01\n        /* \"crowdfunding.sol\":2688:2709  filterDataByStatus[1] */\n      dup2\n      mstore\n      0x20\n      add\n      swap1\n      dup2\n      mstore\n      0x20\n      add\n      0x00\n      keccak256\n        /* \"crowdfunding.sol\":2688:2715  filterDataByStatus[1].pop() */\n      dup1\n      sload\n      dup1\n      tag_148\n      jumpi\n      tag_149\n      tag_124\n      jump\t// in\n    tag_149:\n    tag_148:\n      0x01\n      swap1\n      sub\n      dup2\n      dup2\n      swap1\n      0x00\n      mstore\n      keccak256(0x00, 0x20)\n      swap1\n      0x08\n      mul\n      add\n      0x00\n      dup1\n      dup3\n      add\n      0x00\n      swap1\n      sstore\n      0x01\n      dup3\n      add\n      0x00\n      tag_151\n      swap2\n      swap1\n      tag_127\n      jump\t// in\n    tag_151:\n      0x02\n      dup3\n      add\n      0x00\n      swap1\n      sstore\n      0x03\n      dup3\n      add\n      exp(0x0100, 0x00)\n      dup2\n      sload\n      swap1\n      0xffffffffffffffffffffffffffffffffffffffff\n      mul\n      not\n      and\n      swap1\n      sstore\n      0x04\n      dup3\n      add\n      exp(0x0100, 0x00)\n      dup2\n      sload\n      swap1\n      0xffffffffffffffffffffffffffffffffffffffff\n      mul\n      not\n      and\n      swap1\n      sstore\n      0x05\n      dup3\n      add\n      0x00\n      swap1\n      sstore\n      0x06\n      dup3\n      add\n      0x00\n      swap1\n      sstore\n      0x07\n      dup3\n      add\n      0x00\n      swap1\n      sstore\n      pop\n      pop\n      swap1\n      sstore\n        /* \"crowdfunding.sol\":2335:2727  if(filterDataByStatus[1].length == 1){\r... */\n    tag_128:\n        /* \"crowdfunding.sol\":2737:2755  filterDataByStatus */\n      0x02\n        /* \"crowdfunding.sol\":2737:2758  filterDataByStatus[3] */\n      0x00\n        /* \"crowdfunding.sol\":2756:2757  3 */\n      0x03\n        /* \"crowdfunding.sol\":2737:2758  filterDataByStatus[3] */\n      dup2\n      mstore\n      0x20\n      add\n      swap1\n      dup2\n      mstore\n      0x20\n      add\n      0x00\n      keccak256\n        /* \"crowdfunding.sol\":2764:2768  list */\n      0x01\n        /* \"crowdfunding.sol\":2773:2774  1 */\n      dup1\n        /* \"crowdfunding.sol\":2769:2772  num */\n      dup4\n        /* \"crowdfunding.sol\":2769:2774  num-1 */\n      tag_152\n      swap2\n      swap1\n      tag_61\n      jump\t// in\n    tag_152:\n        /* \"crowdfunding.sol\":2764:2775  list[num-1] */\n      dup2\n      sload\n      dup2\n      lt\n      tag_153\n      jumpi\n      tag_154\n      tag_64\n      jump\t// in\n    tag_154:\n    tag_153:\n      swap1\n      0x00\n      mstore\n      keccak256(0x00, 0x20)\n      swap1\n      0x08\n      mul\n      add\n        /* \"crowdfunding.sol\":2737:2776  filterDataByStatus[3].push(list[num-1]) */\n      swap1\n      dup1\n      0x01\n      dup2\n      sload\n      add\n      dup1\n      dup3\n      sstore\n      dup1\n      swap2\n      pop\n      pop\n      0x01\n      swap1\n      sub\n      swap1\n      0x00\n      mstore\n      keccak256(0x00, 0x20)\n      swap1\n      0x08\n      mul\n      add\n      0x00\n      swap1\n      swap2\n      swap1\n      swap2\n      swap1\n      swap2\n      pop\n      0x00\n      dup3\n      add\n      sload\n      dup2\n      0x00\n      add\n      sstore\n      0x01\n      dup3\n      add\n      dup2\n      0x01\n      add\n      swap1\n      dup1\n      sload\n      tag_157\n      swap1\n      tag_54\n      jump\t// in\n    tag_157:\n      tag_158\n      swap3\n      swap2\n      swap1\n      tag_146\n      jump\t// in\n    tag_158:\n      pop\n      0x02\n      dup3\n      add\n      sload\n      dup2\n      0x02\n      add\n      sstore\n      0x03\n      dup3\n      add\n      0x00\n      swap1\n      sload\n      swap1\n      0x0100\n      exp\n      swap1\n      div\n      0xffffffffffffffffffffffffffffffffffffffff\n      and\n      dup2\n      0x03\n      add\n      exp(0x0100, 0x00)\n      dup2\n      sload\n      dup2\n      0xffffffffffffffffffffffffffffffffffffffff\n      mul\n      not\n      and\n      swap1\n      dup4\n      0xffffffffffffffffffffffffffffffffffffffff\n      and\n      mul\n      or\n      swap1\n      sstore\n      pop\n      0x04\n      dup3\n      add\n      0x00\n      swap1\n      sload\n      swap1\n      0x0100\n      exp\n      swap1\n      div\n      0xffffffffffffffffffffffffffffffffffffffff\n      and\n      dup2\n      0x04\n      add\n      exp(0x0100, 0x00)\n      dup2\n      sload\n      dup2\n      0xffffffffffffffffffffffffffffffffffffffff\n      mul\n      not\n      and\n      swap1\n      dup4\n      0xffffffffffffffffffffffffffffffffffffffff\n      and\n      mul\n      or\n      swap1\n      sstore\n      pop\n      0x05\n      dup3\n      add\n      sload\n      dup2\n      0x05\n      add\n      sstore\n      0x06\n      dup3\n      add\n      sload\n      dup2\n      0x06\n      add\n      sstore\n      0x07\n      dup3\n      add\n      sload\n      dup2\n      0x07\n      add\n      sstore\n      pop\n      pop\n        /* \"crowdfunding.sol\":2192:2784  function setStatus(uint num) public {\r... */\n      pop\n      jump\t// out\n        /* \"crowdfunding.sol\":814:840  Crowdfunding[] public list */\n    tag_32:\n      0x01\n      dup2\n      dup2\n      sload\n      dup2\n      lt\n      tag_159\n      jumpi\n      0x00\n      dup1\n      revert\n    tag_159:\n      swap1\n      0x00\n      mstore\n      keccak256(0x00, 0x20)\n      swap1\n      0x08\n      mul\n      add\n      0x00\n      swap2\n      pop\n      swap1\n      pop\n      dup1\n      0x00\n      add\n      sload\n      swap1\n      dup1\n      0x01\n      add\n      dup1\n      sload\n      tag_161\n      swap1\n      tag_54\n      jump\t// in\n    tag_161:\n      dup1\n      0x1f\n      add\n      0x20\n      dup1\n      swap2\n      div\n      mul\n      0x20\n      add\n      mload(0x40)\n      swap1\n      dup2\n      add\n      0x40\n      mstore\n      dup1\n      swap3\n      swap2\n      swap1\n      dup2\n      dup2\n      mstore\n      0x20\n      add\n      dup3\n      dup1\n      sload\n      tag_162\n      swap1\n      tag_54\n      jump\t// in\n    tag_162:\n      dup1\n      iszero\n      tag_163\n      jumpi\n      dup1\n      0x1f\n      lt\n      tag_164\n      jumpi\n      0x0100\n      dup1\n      dup4\n      sload\n      div\n      mul\n      dup4\n      mstore\n      swap2\n      0x20\n      add\n      swap2\n      jump(tag_163)\n    tag_164:\n      dup3\n      add\n      swap2\n      swap1\n      0x00\n      mstore\n      keccak256(0x00, 0x20)\n      swap1\n    tag_165:\n      dup2\n      sload\n      dup2\n      mstore\n      swap1\n      0x01\n      add\n      swap1\n      0x20\n      add\n      dup1\n      dup4\n      gt\n      tag_165\n      jumpi\n      dup3\n      swap1\n      sub\n      0x1f\n      and\n      dup3\n      add\n      swap2\n    tag_163:\n      pop\n      pop\n      pop\n      pop\n      pop\n      swap1\n      dup1\n      0x02\n      add\n      sload\n      swap1\n      dup1\n      0x03\n      add\n      0x00\n      swap1\n      sload\n      swap1\n      0x0100\n      exp\n      swap1\n      div\n      0xffffffffffffffffffffffffffffffffffffffff\n      and\n      swap1\n      dup1\n      0x04\n      add\n      0x00\n      swap1\n      sload\n      swap1\n      0x0100\n      exp\n      swap1\n      div\n      0xffffffffffffffffffffffffffffffffffffffff\n      and\n      swap1\n      dup1\n      0x05\n      add\n      sload\n      swap1\n      dup1\n      0x06\n      add\n      sload\n      swap1\n      dup1\n      0x07\n      add\n      sload\n      swap1\n      pop\n      dup9\n      jump\t// out\n        /* \"crowdfunding.sol\":3954:4137  function getCrowdfundingByStatus(uint _status) public view returns (Crowdfunding[] memory) {\r... */\n    tag_37:\n        /* \"crowdfunding.sol\":4022:4043  Crowdfunding[] memory */\n      0x60\n        /* \"crowdfunding.sol\":4070:4071  0 */\n      0x00\n        /* \"crowdfunding.sol\":4059:4066  _status */\n      dup3\n        /* \"crowdfunding.sol\":4059:4071  _status == 0 */\n      eq\n        /* \"crowdfunding.sol\":4056:4084  if(_status == 0) return list */\n      iszero\n      tag_167\n      jumpi\n        /* \"crowdfunding.sol\":4080:4084  list */\n      0x01\n        /* \"crowdfunding.sol\":4073:4084  return list */\n      dup1\n      sload\n      dup1\n      0x20\n      mul\n      0x20\n      add\n      mload(0x40)\n      swap1\n      dup2\n      add\n      0x40\n      mstore\n      dup1\n      swap3\n      swap2\n      swap1\n      dup2\n      dup2\n      mstore\n      0x20\n      add\n      0x00\n      swap1\n    tag_168:\n      dup3\n      dup3\n      lt\n      iszero\n      tag_169\n      jumpi\n      dup4\n      dup3\n      swap1\n      0x00\n      mstore\n      keccak256(0x00, 0x20)\n      swap1\n      0x08\n      mul\n      add\n      mload(0x40)\n      dup1\n      0x0100\n      add\n      0x40\n      mstore\n      swap1\n      dup2\n      0x00\n      dup3\n      add\n      sload\n      dup2\n      mstore\n      0x20\n      add\n      0x01\n      dup3\n      add\n      dup1\n      sload\n      tag_171\n      swap1\n      tag_54\n      jump\t// in\n    tag_171:\n      dup1\n      0x1f\n      add\n      0x20\n      dup1\n      swap2\n      div\n      mul\n      0x20\n      add\n      mload(0x40)\n      swap1\n      dup2\n      add\n      0x40\n      mstore\n      dup1\n      swap3\n      swap2\n      swap1\n      dup2\n      dup2\n      mstore\n      0x20\n      add\n      dup3\n      dup1\n      sload\n      tag_172\n      swap1\n      tag_54\n      jump\t// in\n    tag_172:\n      dup1\n      iszero\n      tag_173\n      jumpi\n      dup1\n      0x1f\n      lt\n      tag_174\n      jumpi\n      0x0100\n      dup1\n      dup4\n      sload\n      div\n      mul\n      dup4\n      mstore\n      swap2\n      0x20\n      add\n      swap2\n      jump(tag_173)\n    tag_174:\n      dup3\n      add\n      swap2\n      swap1\n      0x00\n      mstore\n      keccak256(0x00, 0x20)\n      swap1\n    tag_175:\n      dup2\n      sload\n      dup2\n      mstore\n      swap1\n      0x01\n      add\n      swap1\n      0x20\n      add\n      dup1\n      dup4\n      gt\n      tag_175\n      jumpi\n      dup3\n      swap1\n      sub\n      0x1f\n      and\n      dup3\n      add\n      swap2\n    tag_173:\n      pop\n      pop\n      pop\n      pop\n      pop\n      dup2\n      mstore\n      0x20\n      add\n      0x02\n      dup3\n      add\n      sload\n      dup2\n      mstore\n      0x20\n      add\n      0x03\n      dup3\n      add\n      0x00\n      swap1\n      sload\n      swap1\n      0x0100\n      exp\n      swap1\n      div\n      0xffffffffffffffffffffffffffffffffffffffff\n      and\n      0xffffffffffffffffffffffffffffffffffffffff\n      and\n      0xffffffffffffffffffffffffffffffffffffffff\n      and\n      dup2\n      mstore\n      0x20\n      add\n      0x04\n      dup3\n      add\n      0x00\n      swap1\n      sload\n      swap1\n      0x0100\n      exp\n      swap1\n      div\n      0xffffffffffffffffffffffffffffffffffffffff\n      and\n      0xffffffffffffffffffffffffffffffffffffffff\n      and\n      0xffffffffffffffffffffffffffffffffffffffff\n      and\n      dup2\n      mstore\n      0x20\n      add\n      0x05\n      dup3\n      add\n      sload\n      dup2\n      mstore\n      0x20\n      add\n      0x06\n      dup3\n      add\n      sload\n      dup2\n      mstore\n      0x20\n      add\n      0x07\n      dup3\n      add\n      sload\n      dup2\n      mstore\n      pop\n      pop\n      dup2\n      mstore\n      0x20\n      add\n      swap1\n      0x01\n      add\n      swap1\n      jump(tag_168)\n    tag_169:\n      pop\n      pop\n      pop\n      pop\n      swap1\n      pop\n      jump(tag_166)\n        /* \"crowdfunding.sol\":4056:4084  if(_status == 0) return list */\n    tag_167:\n        /* \"crowdfunding.sol\":4102:4120  filterDataByStatus */\n      0x02\n        /* \"crowdfunding.sol\":4102:4129  filterDataByStatus[_status] */\n      0x00\n        /* \"crowdfunding.sol\":4121:4128  _status */\n      dup4\n        /* \"crowdfunding.sol\":4102:4129  filterDataByStatus[_status] */\n      dup2\n      mstore\n      0x20\n      add\n      swap1\n      dup2\n      mstore\n      0x20\n      add\n      0x00\n      keccak256\n        /* \"crowdfunding.sol\":4095:4129  return filterDataByStatus[_status] */\n      dup1\n      sload\n      dup1\n      0x20\n      mul\n      0x20\n      add\n      mload(0x40)\n      swap1\n      dup2\n      add\n      0x40\n      mstore\n      dup1\n      swap3\n      swap2\n      swap1\n      dup2\n      dup2\n      mstore\n      0x20\n      add\n      0x00\n      swap1\n    tag_176:\n      dup3\n      dup3\n      lt\n      iszero\n      tag_177\n      jumpi\n      dup4\n      dup3\n      swap1\n      0x00\n      mstore\n      keccak256(0x00, 0x20)\n      swap1\n      0x08\n      mul\n      add\n      mload(0x40)\n      dup1\n      0x0100\n      add\n      0x40\n      mstore\n      swap1\n      dup2\n      0x00\n      dup3\n      add\n      sload\n      dup2\n      mstore\n      0x20\n      add\n      0x01\n      dup3\n      add\n      dup1\n      sload\n      tag_179\n      swap1\n      tag_54\n      jump\t// in\n    tag_179:\n      dup1\n      0x1f\n      add\n      0x20\n      dup1\n      swap2\n      div\n      mul\n      0x20\n      add\n      mload(0x40)\n      swap1\n      dup2\n      add\n      0x40\n      mstore\n      dup1\n      swap3\n      swap2\n      swap1\n      dup2\n      dup2\n      mstore\n      0x20\n      add\n      dup3\n      dup1\n      sload\n      tag_180\n      swap1\n      tag_54\n      jump\t// in\n    tag_180:\n      dup1\n      iszero\n      tag_181\n      jumpi\n      dup1\n      0x1f\n      lt\n      tag_182\n      jumpi\n      0x0100\n      dup1\n      dup4\n      sload\n      div\n      mul\n      dup4\n      mstore\n      swap2\n      0x20\n      add\n      swap2\n      jump(tag_181)\n    tag_182:\n      dup3\n      add\n      swap2\n      swap1\n      0x00\n      mstore\n      keccak256(0x00, 0x20)\n      swap1\n    tag_183:\n      dup2\n      sload\n      dup2\n      mstore\n      swap1\n      0x01\n      add\n      swap1\n      0x20\n      add\n      dup1\n      dup4\n      gt\n      tag_183\n      jumpi\n      dup3\n      swap1\n      sub\n      0x1f\n      and\n      dup3\n      add\n      swap2\n    tag_181:\n      pop\n      pop\n      pop\n      pop\n      pop\n      dup2\n      mstore\n      0x20\n      add\n      0x02\n      dup3\n      add\n      sload\n      dup2\n      mstore\n      0x20\n      add\n      0x03\n      dup3\n      add\n      0x00\n      swap1\n      sload\n      swap1\n      0x0100\n      exp\n      swap1\n      div\n      0xffffffffffffffffffffffffffffffffffffffff\n      and\n      0xffffffffffffffffffffffffffffffffffffffff\n      and\n      0xffffffffffffffffffffffffffffffffffffffff\n      and\n      dup2\n      mstore\n      0x20\n      add\n      0x04\n      dup3\n      add\n      0x00\n      swap1\n      sload\n      swap1\n      0x0100\n      exp\n      swap1\n      div\n      0xffffffffffffffffffffffffffffffffffffffff\n      and\n      0xffffffffffffffffffffffffffffffffffffffff\n      and\n      0xffffffffffffffffffffffffffffffffffffffff\n      and\n      dup2\n      mstore\n      0x20\n      add\n      0x05\n      dup3\n      add\n      sload\n      dup2\n      mstore\n      0x20\n      add\n      0x06\n      dup3\n      add\n      sload\n      dup2\n      mstore\n      0x20\n      add\n      0x07\n      dup3\n      add\n      sload\n      dup2\n      mstore\n      pop\n      pop\n      dup2\n      mstore\n      0x20\n      add\n      swap1\n      0x01\n      add\n      swap1\n      jump(tag_176)\n    tag_177:\n      pop\n      pop\n      pop\n      pop\n      swap1\n      pop\n        /* \"crowdfunding.sol\":3954:4137  function getCrowdfundingByStatus(uint _status) public view returns (Crowdfunding[] memory) {\r... */\n    tag_166:\n      swap2\n      swap1\n      pop\n      jump\t// out\n        /* \"crowdfunding.sol\":1508:2113  function createCrowdfunding(string memory _title,address _recipient, uint _expectAmout) public {\r... */\n    tag_42:\n        /* \"crowdfunding.sol\":1614:1616  No */\n      0x00\n      dup1\n        /* \"crowdfunding.sol\":1614:1618  No++ */\n      dup2\n      sload\n      dup1\n      swap3\n      swap2\n      swap1\n      tag_185\n      swap1\n      tag_78\n      jump\t// in\n    tag_185:\n      swap2\n      swap1\n      pop\n      sstore\n      pop\n        /* \"crowdfunding.sol\":1629:1650  Crowdfunding memory c */\n      0x00\n        /* \"crowdfunding.sol\":1653:1923  Crowdfunding({\r... */\n      mload(0x40)\n      dup1\n      0x0100\n      add\n      0x40\n      mstore\n      dup1\n        /* \"crowdfunding.sol\":1686:1688  No */\n      sload(0x00)\n        /* \"crowdfunding.sol\":1653:1923  Crowdfunding({\r... */\n      dup2\n      mstore\n      0x20\n      add\n        /* \"crowdfunding.sol\":1709:1715  _title */\n      dup6\n        /* \"crowdfunding.sol\":1653:1923  Crowdfunding({\r... */\n      dup2\n      mstore\n      0x20\n      add\n        /* \"crowdfunding.sol\":1738:1739  1 */\n      0x01\n        /* \"crowdfunding.sol\":1653:1923  Crowdfunding({\r... */\n      dup2\n      mstore\n      0x20\n      add\n        /* \"crowdfunding.sol\":1763:1773  msg.sender */\n      caller\n        /* \"crowdfunding.sol\":1653:1923  Crowdfunding({\r... */\n      0xffffffffffffffffffffffffffffffffffffffff\n      and\n      dup2\n      mstore\n      0x20\n      add\n        /* \"crowdfunding.sol\":1799:1809  _recipient */\n      dup5\n        /* \"crowdfunding.sol\":1653:1923  Crowdfunding({\r... */\n      0xffffffffffffffffffffffffffffffffffffffff\n      and\n      dup2\n      mstore\n      0x20\n      add\n        /* \"crowdfunding.sol\":1833:1834  0 */\n      0x00\n        /* \"crowdfunding.sol\":1653:1923  Crowdfunding({\r... */\n      dup2\n      mstore\n      0x20\n      add\n        /* \"crowdfunding.sol\":1869:1881  _expectAmout */\n      dup4\n        /* \"crowdfunding.sol\":1653:1923  Crowdfunding({\r... */\n      dup2\n      mstore\n      0x20\n      add\n        /* \"crowdfunding.sol\":1910:1911  0 */\n      0x00\n        /* \"crowdfunding.sol\":1653:1923  Crowdfunding({\r... */\n      dup2\n      mstore\n      pop\n        /* \"crowdfunding.sol\":1629:1923  Crowdfunding memory c = Crowdfunding({\r... */\n      swap1\n      pop\n        /* \"crowdfunding.sol\":1934:1938  list */\n      0x01\n        /* \"crowdfunding.sol\":1944:1945  c */\n      dup2\n        /* \"crowdfunding.sol\":1934:1946  list.push(c) */\n      swap1\n      dup1\n      0x01\n      dup2\n      sload\n      add\n      dup1\n      dup3\n      sstore\n      dup1\n      swap2\n      pop\n      pop\n      0x01\n      swap1\n      sub\n      swap1\n      0x00\n      mstore\n      keccak256(0x00, 0x20)\n      swap1\n      0x08\n      mul\n      add\n      0x00\n      swap1\n      swap2\n      swap1\n      swap2\n      swap1\n      swap2\n      pop\n      0x00\n      dup3\n      add\n      mload\n      dup2\n      0x00\n      add\n      sstore\n      0x20\n      dup3\n      add\n      mload\n      dup2\n      0x01\n      add\n      swap1\n      dup1\n      mload\n      swap1\n      0x20\n      add\n      swap1\n      tag_187\n      swap3\n      swap2\n      swap1\n      tag_67\n      jump\t// in\n    tag_187:\n      pop\n      0x40\n      dup3\n      add\n      mload\n      dup2\n      0x02\n      add\n      sstore\n      0x60\n      dup3\n      add\n      mload\n      dup2\n      0x03\n      add\n      exp(0x0100, 0x00)\n      dup2\n      sload\n      dup2\n      0xffffffffffffffffffffffffffffffffffffffff\n      mul\n      not\n      and\n      swap1\n      dup4\n      0xffffffffffffffffffffffffffffffffffffffff\n      and\n      mul\n      or\n      swap1\n      sstore\n      pop\n      0x80\n      dup3\n      add\n      mload\n      dup2\n      0x04\n      add\n      exp(0x0100, 0x00)\n      dup2\n      sload\n      dup2\n      0xffffffffffffffffffffffffffffffffffffffff\n      mul\n      not\n      and\n      swap1\n      dup4\n      0xffffffffffffffffffffffffffffffffffffffff\n      and\n      mul\n      or\n      swap1\n      sstore\n      pop\n      0xa0\n      dup3\n      add\n      mload\n      dup2\n      0x05\n      add\n      sstore\n      0xc0\n      dup3\n      add\n      mload\n      dup2\n      0x06\n      add\n      sstore\n      0xe0\n      dup3\n      add\n      mload\n      dup2\n      0x07\n      add\n      sstore\n      pop\n      pop\n        /* \"crowdfunding.sol\":2031:2049  filterDataByStatus */\n      0x02\n        /* \"crowdfunding.sol\":2031:2052  filterDataByStatus[1] */\n      0x00\n        /* \"crowdfunding.sol\":2050:2051  1 */\n      0x01\n        /* \"crowdfunding.sol\":2031:2052  filterDataByStatus[1] */\n      dup2\n      mstore\n      0x20\n      add\n      swap1\n      dup2\n      mstore\n      0x20\n      add\n      0x00\n      keccak256\n        /* \"crowdfunding.sol\":2058:2059  c */\n      dup2\n        /* \"crowdfunding.sol\":2031:2060  filterDataByStatus[1].push(c) */\n      swap1\n      dup1\n      0x01\n      dup2\n      sload\n      add\n      dup1\n      dup3\n      sstore\n      dup1\n      swap2\n      pop\n      pop\n      0x01\n      swap1\n      sub\n      swap1\n      0x00\n      mstore\n      keccak256(0x00, 0x20)\n      swap1\n      0x08\n      mul\n      add\n      0x00\n      swap1\n      swap2\n      swap1\n      swap2\n      swap1\n      swap2\n      pop\n      0x00\n      dup3\n      add\n      mload\n      dup2\n      0x00\n      add\n      sstore\n      0x20\n      dup3\n      add\n      mload\n      dup2\n      0x01\n      add\n      swap1\n      dup1\n      mload\n      swap1\n      0x20\n      add\n      swap1\n      tag_189\n      swap3\n      swap2\n      swap1\n      tag_67\n      jump\t// in\n    tag_189:\n      pop\n      0x40\n      dup3\n      add\n      mload\n      dup2\n      0x02\n      add\n      sstore\n      0x60\n      dup3\n      add\n      mload\n      dup2\n      0x03\n      add\n      exp(0x0100, 0x00)\n      dup2\n      sload\n      dup2\n      0xffffffffffffffffffffffffffffffffffffffff\n      mul\n      not\n      and\n      swap1\n      dup4\n      0xffffffffffffffffffffffffffffffffffffffff\n      and\n      mul\n      or\n      swap1\n      sstore\n      pop\n      0x80\n      dup3\n      add\n      mload\n      dup2\n      0x04\n      add\n      exp(0x0100, 0x00)\n      dup2\n      sload\n      dup2\n      0xffffffffffffffffffffffffffffffffffffffff\n      mul\n      not\n      and\n      swap1\n      dup4\n      0xffffffffffffffffffffffffffffffffffffffff\n      and\n      mul\n      or\n      swap1\n      sstore\n      pop\n      0xa0\n      dup3\n      add\n      mload\n      dup2\n      0x05\n      add\n      sstore\n      0xc0\n      dup3\n      add\n      mload\n      dup2\n      0x06\n      add\n      sstore\n      0xe0\n      dup3\n      add\n      mload\n      dup2\n      0x07\n      add\n      sstore\n      pop\n      pop\n        /* \"crowdfunding.sol\":2071:2085  myCrowdfunding */\n      0x03\n        /* \"crowdfunding.sol\":2071:2097  myCrowdfunding[msg.sender] */\n      0x00\n        /* \"crowdfunding.sol\":2086:2096  msg.sender */\n      caller\n        /* \"crowdfunding.sol\":2071:2097  myCrowdfunding[msg.sender] */\n      0xffffffffffffffffffffffffffffffffffffffff\n      and\n      0xffffffffffffffffffffffffffffffffffffffff\n      and\n      dup2\n      mstore\n      0x20\n      add\n      swap1\n      dup2\n      mstore\n      0x20\n      add\n      0x00\n      keccak256\n        /* \"crowdfunding.sol\":2103:2104  c */\n      dup2\n        /* \"crowdfunding.sol\":2071:2105  myCrowdfunding[msg.sender].push(c) */\n      swap1\n      dup1\n      0x01\n      dup2\n      sload\n      add\n      dup1\n      dup3\n      sstore\n      dup1\n      swap2\n      pop\n      pop\n      0x01\n      swap1\n      sub\n      swap1\n      0x00\n      mstore\n      keccak256(0x00, 0x20)\n      swap1\n      0x08\n      mul\n      add\n      0x00\n      swap1\n      swap2\n      swap1\n      swap2\n      swap1\n      swap2\n      pop\n      0x00\n      dup3\n      add\n      mload\n      dup2\n      0x00\n      add\n      sstore\n      0x20\n      dup3\n      add\n      mload\n      dup2\n      0x01\n      add\n      swap1\n      dup1\n      mload\n      swap1\n      0x20\n      add\n      swap1\n      tag_191\n      swap3\n      swap2\n      swap1\n      tag_67\n      jump\t// in\n    tag_191:\n      pop\n      0x40\n      dup3\n      add\n      mload\n      dup2\n      0x02\n      add\n      sstore\n      0x60\n      dup3\n      add\n      mload\n      dup2\n      0x03\n      add\n      exp(0x0100, 0x00)\n      dup2\n      sload\n      dup2\n      0xffffffffffffffffffffffffffffffffffffffff\n      mul\n      not\n      and\n      swap1\n      dup4\n      0xffffffffffffffffffffffffffffffffffffffff\n      and\n      mul\n      or\n      swap1\n      sstore\n      pop\n      0x80\n      dup3\n      add\n      mload\n      dup2\n      0x04\n      add\n      exp(0x0100, 0x00)\n      dup2\n      sload\n      dup2\n      0xffffffffffffffffffffffffffffffffffffffff\n      mul\n      not\n      and\n      swap1\n      dup4\n      0xffffffffffffffffffffffffffffffffffffffff\n      and\n      mul\n      or\n      swap1\n      sstore\n      pop\n      0xa0\n      dup3\n      add\n      mload\n      dup2\n      0x05\n      add\n      sstore\n      0xc0\n      dup3\n      add\n      mload\n      dup2\n      0x06\n      add\n      sstore\n      0xe0\n      dup3\n      add\n      mload\n      dup2\n      0x07\n      add\n      sstore\n      pop\n      pop\n        /* \"crowdfunding.sol\":1603:2113  {\r... */\n      pop\n        /* \"crowdfunding.sol\":1508:2113  function createCrowdfunding(string memory _title,address _recipient, uint _expectAmout) public {\r... */\n      pop\n      pop\n      pop\n      jump\t// out\n        /* \"crowdfunding.sol\":1130:1500  function stringToInt(string memory s) public pure returns (uint){\r... */\n    tag_46:\n        /* \"crowdfunding.sol\":1189:1193  uint */\n      0x00\n        /* \"crowdfunding.sol\":1205:1219  bytes memory b */\n      dup1\n        /* \"crowdfunding.sol\":1228:1229  s */\n      dup3\n        /* \"crowdfunding.sol\":1205:1230  bytes memory b = bytes(s) */\n      swap1\n      pop\n        /* \"crowdfunding.sol\":1241:1252  uint result */\n      0x00\n        /* \"crowdfunding.sol\":1272:1281  uint256 i */\n      dup1\n        /* \"crowdfunding.sol\":1267:1469  for (uint256 i = 0; i < b.length; i++) {\r... */\n    tag_193:\n        /* \"crowdfunding.sol\":1291:1292  b */\n      dup3\n        /* \"crowdfunding.sol\":1291:1299  b.length */\n      mload\n        /* \"crowdfunding.sol\":1287:1288  i */\n      dup2\n        /* \"crowdfunding.sol\":1287:1299  i < b.length */\n      lt\n        /* \"crowdfunding.sol\":1267:1469  for (uint256 i = 0; i < b.length; i++) {\r... */\n      iszero\n      tag_194\n      jumpi\n        /* \"crowdfunding.sol\":1321:1330  uint256 c */\n      0x00\n        /* \"crowdfunding.sol\":1347:1348  b */\n      dup4\n        /* \"crowdfunding.sol\":1349:1350  i */\n      dup3\n        /* \"crowdfunding.sol\":1347:1351  b[i] */\n      dup2\n      mload\n      dup2\n      lt\n      tag_196\n      jumpi\n      tag_197\n      tag_64\n      jump\t// in\n    tag_197:\n    tag_196:\n      0x20\n      add\n      add\n      mload\n      0xf8\n      shr\n      0xf8\n      shl\n        /* \"crowdfunding.sol\":1341:1352  uint8(b[i]) */\n      0xf8\n      shr\n        /* \"crowdfunding.sol\":1333:1353  uint256(uint8(b[i])) */\n      0xff\n      and\n        /* \"crowdfunding.sol\":1321:1353  uint256 c = uint256(uint8(b[i])) */\n      swap1\n      pop\n        /* \"crowdfunding.sol\":1377:1379  48 */\n      0x30\n        /* \"crowdfunding.sol\":1372:1373  c */\n      dup2\n        /* \"crowdfunding.sol\":1372:1379  c >= 48 */\n      lt\n      iszero\n        /* \"crowdfunding.sol\":1372:1390  c >= 48 && c <= 57 */\n      dup1\n      iszero\n      tag_198\n      jumpi\n      pop\n        /* \"crowdfunding.sol\":1388:1390  57 */\n      0x39\n        /* \"crowdfunding.sol\":1383:1384  c */\n      dup2\n        /* \"crowdfunding.sol\":1383:1390  c <= 57 */\n      gt\n      iszero\n        /* \"crowdfunding.sol\":1372:1390  c >= 48 && c <= 57 */\n    tag_198:\n        /* \"crowdfunding.sol\":1368:1458  if (c >= 48 && c <= 57) {\r... */\n      iszero\n      tag_199\n      jumpi\n        /* \"crowdfunding.sol\":1439:1441  48 */\n      0x30\n        /* \"crowdfunding.sol\":1435:1436  c */\n      dup2\n        /* \"crowdfunding.sol\":1435:1441  c - 48 */\n      tag_200\n      swap2\n      swap1\n      tag_61\n      jump\t// in\n    tag_200:\n        /* \"crowdfunding.sol\":1429:1431  10 */\n      0x0a\n        /* \"crowdfunding.sol\":1420:1426  result */\n      dup5\n        /* \"crowdfunding.sol\":1420:1431  result * 10 */\n      tag_201\n      swap2\n      swap1\n      tag_202\n      jump\t// in\n    tag_201:\n        /* \"crowdfunding.sol\":1420:1442  result * 10 + (c - 48) */\n      tag_203\n      swap2\n      swap1\n      tag_85\n      jump\t// in\n    tag_203:\n        /* \"crowdfunding.sol\":1411:1442  result = result * 10 + (c - 48) */\n      swap3\n      pop\n        /* \"crowdfunding.sol\":1368:1458  if (c >= 48 && c <= 57) {\r... */\n    tag_199:\n        /* \"crowdfunding.sol\":1306:1469  {\r... */\n      pop\n        /* \"crowdfunding.sol\":1301:1304  i++ */\n      dup1\n      dup1\n      tag_204\n      swap1\n      tag_78\n      jump\t// in\n    tag_204:\n      swap2\n      pop\n      pop\n        /* \"crowdfunding.sol\":1267:1469  for (uint256 i = 0; i < b.length; i++) {\r... */\n      jump(tag_193)\n    tag_194:\n      pop\n        /* \"crowdfunding.sol\":1486:1492  result */\n      dup1\n        /* \"crowdfunding.sol\":1479:1492  return result */\n      swap3\n      pop\n      pop\n      pop\n        /* \"crowdfunding.sol\":1130:1500  function stringToInt(string memory s) public pure returns (uint){\r... */\n      swap2\n      swap1\n      pop\n      jump\t// out\n    tag_67:\n      dup3\n      dup1\n      sload\n      tag_205\n      swap1\n      tag_54\n      jump\t// in\n    tag_205:\n      swap1\n      0x00\n      mstore\n      keccak256(0x00, 0x20)\n      swap1\n      0x1f\n      add\n      0x20\n      swap1\n      div\n      dup2\n      add\n      swap3\n      dup3\n      tag_207\n      jumpi\n      0x00\n      dup6\n      sstore\n      jump(tag_206)\n    tag_207:\n      dup3\n      0x1f\n      lt\n      tag_208\n      jumpi\n      dup1\n      mload\n      not(0xff)\n      and\n      dup4\n      dup1\n      add\n      or\n      dup6\n      sstore\n      jump(tag_206)\n    tag_208:\n      dup3\n      dup1\n      add\n      0x01\n      add\n      dup6\n      sstore\n      dup3\n      iszero\n      tag_206\n      jumpi\n      swap2\n      dup3\n      add\n    tag_209:\n      dup3\n      dup2\n      gt\n      iszero\n      tag_210\n      jumpi\n      dup3\n      mload\n      dup3\n      sstore\n      swap2\n      0x20\n      add\n      swap2\n      swap1\n      0x01\n      add\n      swap1\n      jump(tag_209)\n    tag_210:\n    tag_206:\n      pop\n      swap1\n      pop\n      tag_211\n      swap2\n      swap1\n      tag_212\n      jump\t// in\n    tag_211:\n      pop\n      swap1\n      jump\t// out\n    tag_127:\n      pop\n      dup1\n      sload\n      tag_213\n      swap1\n      tag_54\n      jump\t// in\n    tag_213:\n      0x00\n      dup3\n      sstore\n      dup1\n      0x1f\n      lt\n      tag_215\n      jumpi\n      pop\n      jump(tag_214)\n    tag_215:\n      0x1f\n      add\n      0x20\n      swap1\n      div\n      swap1\n      0x00\n      mstore\n      keccak256(0x00, 0x20)\n      swap1\n      dup2\n      add\n      swap1\n      tag_216\n      swap2\n      swap1\n      tag_212\n      jump\t// in\n    tag_216:\n    tag_214:\n      pop\n      jump\t// out\n    tag_146:\n      dup3\n      dup1\n      sload\n      tag_217\n      swap1\n      tag_54\n      jump\t// in\n    tag_217:\n      swap1\n      0x00\n      mstore\n      keccak256(0x00, 0x20)\n      swap1\n      0x1f\n      add\n      0x20\n      swap1\n      div\n      dup2\n      add\n      swap3\n      dup3\n      tag_219\n      jumpi\n      0x00\n      dup6\n      sstore\n      jump(tag_218)\n    tag_219:\n      dup3\n      0x1f\n      lt\n      tag_220\n      jumpi\n      dup1\n      sload\n      dup6\n      sstore\n      jump(tag_218)\n    tag_220:\n      dup3\n      dup1\n      add\n      0x01\n      add\n      dup6\n      sstore\n      dup3\n      iszero\n      tag_218\n      jumpi\n      0x00\n      mstore\n      keccak256(0x00, 0x20)\n      swap2\n      0x1f\n      add\n      0x20\n      swap1\n      div\n      dup3\n      add\n    tag_221:\n      dup3\n      dup2\n      gt\n      iszero\n      tag_222\n      jumpi\n      dup3\n      sload\n      dup3\n      sstore\n      swap2\n      0x01\n      add\n      swap2\n      swap1\n      0x01\n      add\n      swap1\n      jump(tag_221)\n    tag_222:\n    tag_218:\n      pop\n      swap1\n      pop\n      tag_223\n      swap2\n      swap1\n      tag_212\n      jump\t// in\n    tag_223:\n      pop\n      swap1\n      jump\t// out\n    tag_212:\n    tag_224:\n      dup1\n      dup3\n      gt\n      iszero\n      tag_225\n      jumpi\n      0x00\n      dup2\n      0x00\n      swap1\n      sstore\n      pop\n      0x01\n      add\n      jump(tag_224)\n    tag_225:\n      pop\n      swap1\n      jump\t// out\n        /* \"#utility.yul\":7:419   */\n    tag_227:\n        /* \"#utility.yul\":85:90   */\n      0x00\n        /* \"#utility.yul\":110:176   */\n      tag_229\n        /* \"#utility.yul\":126:175   */\n      tag_230\n        /* \"#utility.yul\":168:174   */\n      dup5\n        /* \"#utility.yul\":126:175   */\n      tag_231\n      jump\t// in\n    tag_230:\n        /* \"#utility.yul\":110:176   */\n      tag_232\n      jump\t// in\n    tag_229:\n        /* \"#utility.yul\":101:176   */\n      swap1\n      pop\n        /* \"#utility.yul\":199:205   */\n      dup3\n        /* \"#utility.yul\":192:197   */\n      dup2\n        /* \"#utility.yul\":185:206   */\n      mstore\n        /* \"#utility.yul\":237:241   */\n      0x20\n        /* \"#utility.yul\":230:235   */\n      dup2\n        /* \"#utility.yul\":226:242   */\n      add\n        /* \"#utility.yul\":275:278   */\n      dup5\n        /* \"#utility.yul\":266:272   */\n      dup5\n        /* \"#utility.yul\":261:264   */\n      dup5\n        /* \"#utility.yul\":257:273   */\n      add\n        /* \"#utility.yul\":254:279   */\n      gt\n        /* \"#utility.yul\":251:363   */\n      iszero\n      tag_233\n      jumpi\n        /* \"#utility.yul\":282:361   */\n      tag_234\n      tag_235\n      jump\t// in\n    tag_234:\n        /* \"#utility.yul\":251:363   */\n    tag_233:\n        /* \"#utility.yul\":372:413   */\n      tag_236\n        /* \"#utility.yul\":406:412   */\n      dup5\n        /* \"#utility.yul\":401:404   */\n      dup3\n        /* \"#utility.yul\":396:399   */\n      dup6\n        /* \"#utility.yul\":372:413   */\n      tag_237\n      jump\t// in\n    tag_236:\n        /* \"#utility.yul\":91:419   */\n      pop\n        /* \"#utility.yul\":7:419   */\n      swap4\n      swap3\n      pop\n      pop\n      pop\n      jump\t// out\n        /* \"#utility.yul\":425:564   */\n    tag_238:\n        /* \"#utility.yul\":471:476   */\n      0x00\n        /* \"#utility.yul\":509:515   */\n      dup2\n        /* \"#utility.yul\":496:516   */\n      calldataload\n        /* \"#utility.yul\":487:516   */\n      swap1\n      pop\n        /* \"#utility.yul\":525:558   */\n      tag_240\n        /* \"#utility.yul\":552:557   */\n      dup2\n        /* \"#utility.yul\":525:558   */\n      tag_241\n      jump\t// in\n    tag_240:\n        /* \"#utility.yul\":425:564   */\n      swap3\n      swap2\n      pop\n      pop\n      jump\t// out\n        /* \"#utility.yul\":584:924   */\n    tag_242:\n        /* \"#utility.yul\":640:645   */\n      0x00\n        /* \"#utility.yul\":689:692   */\n      dup3\n        /* \"#utility.yul\":682:686   */\n      0x1f\n        /* \"#utility.yul\":674:680   */\n      dup4\n        /* \"#utility.yul\":670:687   */\n      add\n        /* \"#utility.yul\":666:693   */\n      slt\n        /* \"#utility.yul\":656:778   */\n      tag_244\n      jumpi\n        /* \"#utility.yul\":697:776   */\n      tag_245\n      tag_246\n      jump\t// in\n    tag_245:\n        /* \"#utility.yul\":656:778   */\n    tag_244:\n        /* \"#utility.yul\":814:820   */\n      dup2\n        /* \"#utility.yul\":801:821   */\n      calldataload\n        /* \"#utility.yul\":839:918   */\n      tag_247\n        /* \"#utility.yul\":914:917   */\n      dup5\n        /* \"#utility.yul\":906:912   */\n      dup3\n        /* \"#utility.yul\":899:903   */\n      0x20\n        /* \"#utility.yul\":891:897   */\n      dup7\n        /* \"#utility.yul\":887:904   */\n      add\n        /* \"#utility.yul\":839:918   */\n      tag_227\n      jump\t// in\n    tag_247:\n        /* \"#utility.yul\":830:918   */\n      swap2\n      pop\n        /* \"#utility.yul\":646:924   */\n      pop\n        /* \"#utility.yul\":584:924   */\n      swap3\n      swap2\n      pop\n      pop\n      jump\t// out\n        /* \"#utility.yul\":930:1069   */\n    tag_248:\n        /* \"#utility.yul\":976:981   */\n      0x00\n        /* \"#utility.yul\":1014:1020   */\n      dup2\n        /* \"#utility.yul\":1001:1021   */\n      calldataload\n        /* \"#utility.yul\":992:1021   */\n      swap1\n      pop\n        /* \"#utility.yul\":1030:1063   */\n      tag_250\n        /* \"#utility.yul\":1057:1062   */\n      dup2\n        /* \"#utility.yul\":1030:1063   */\n      tag_251\n      jump\t// in\n    tag_250:\n        /* \"#utility.yul\":930:1069   */\n      swap3\n      swap2\n      pop\n      pop\n      jump\t// out\n        /* \"#utility.yul\":1075:1404   */\n    tag_14:\n        /* \"#utility.yul\":1134:1140   */\n      0x00\n        /* \"#utility.yul\":1183:1185   */\n      0x20\n        /* \"#utility.yul\":1171:1180   */\n      dup3\n        /* \"#utility.yul\":1162:1169   */\n      dup5\n        /* \"#utility.yul\":1158:1181   */\n      sub\n        /* \"#utility.yul\":1154:1186   */\n      slt\n        /* \"#utility.yul\":1151:1270   */\n      iszero\n      tag_253\n      jumpi\n        /* \"#utility.yul\":1189:1268   */\n      tag_254\n      tag_255\n      jump\t// in\n    tag_254:\n        /* \"#utility.yul\":1151:1270   */\n    tag_253:\n        /* \"#utility.yul\":1309:1310   */\n      0x00\n        /* \"#utility.yul\":1334:1387   */\n      tag_256\n        /* \"#utility.yul\":1379:1386   */\n      dup5\n        /* \"#utility.yul\":1370:1376   */\n      dup3\n        /* \"#utility.yul\":1359:1368   */\n      dup6\n        /* \"#utility.yul\":1355:1377   */\n      add\n        /* \"#utility.yul\":1334:1387   */\n      tag_238\n      jump\t// in\n    tag_256:\n        /* \"#utility.yul\":1324:1387   */\n      swap2\n      pop\n        /* \"#utility.yul\":1280:1397   */\n      pop\n        /* \"#utility.yul\":1075:1404   */\n      swap3\n      swap2\n      pop\n      pop\n      jump\t// out\n        /* \"#utility.yul\":1410:1919   */\n    tag_45:\n        /* \"#utility.yul\":1479:1485   */\n      0x00\n        /* \"#utility.yul\":1528:1530   */\n      0x20\n        /* \"#utility.yul\":1516:1525   */\n      dup3\n        /* \"#utility.yul\":1507:1514   */\n      dup5\n        /* \"#utility.yul\":1503:1526   */\n      sub\n        /* \"#utility.yul\":1499:1531   */\n      slt\n        /* \"#utility.yul\":1496:1615   */\n      iszero\n      tag_258\n      jumpi\n        /* \"#utility.yul\":1534:1613   */\n      tag_259\n      tag_255\n      jump\t// in\n    tag_259:\n        /* \"#utility.yul\":1496:1615   */\n    tag_258:\n        /* \"#utility.yul\":1682:1683   */\n      0x00\n        /* \"#utility.yul\":1671:1680   */\n      dup3\n        /* \"#utility.yul\":1667:1684   */\n      add\n        /* \"#utility.yul\":1654:1685   */\n      calldataload\n        /* \"#utility.yul\":1712:1730   */\n      0xffffffffffffffff\n        /* \"#utility.yul\":1704:1710   */\n      dup2\n        /* \"#utility.yul\":1701:1731   */\n      gt\n        /* \"#utility.yul\":1698:1815   */\n      iszero\n      tag_260\n      jumpi\n        /* \"#utility.yul\":1734:1813   */\n      tag_261\n      tag_262\n      jump\t// in\n    tag_261:\n        /* \"#utility.yul\":1698:1815   */\n    tag_260:\n        /* \"#utility.yul\":1839:1902   */\n      tag_263\n        /* \"#utility.yul\":1894:1901   */\n      dup5\n        /* \"#utility.yul\":1885:1891   */\n      dup3\n        /* \"#utility.yul\":1874:1883   */\n      dup6\n        /* \"#utility.yul\":1870:1892   */\n      add\n        /* \"#utility.yul\":1839:1902   */\n      tag_242\n      jump\t// in\n    tag_263:\n        /* \"#utility.yul\":1829:1902   */\n      swap2\n      pop\n        /* \"#utility.yul\":1625:1912   */\n      pop\n        /* \"#utility.yul\":1410:1919   */\n      swap3\n      swap2\n      pop\n      pop\n      jump\t// out\n        /* \"#utility.yul\":1925:2724   */\n    tag_41:\n        /* \"#utility.yul\":2012:2018   */\n      0x00\n        /* \"#utility.yul\":2020:2026   */\n      dup1\n        /* \"#utility.yul\":2028:2034   */\n      0x00\n        /* \"#utility.yul\":2077:2079   */\n      0x60\n        /* \"#utility.yul\":2065:2074   */\n      dup5\n        /* \"#utility.yul\":2056:2063   */\n      dup7\n        /* \"#utility.yul\":2052:2075   */\n      sub\n        /* \"#utility.yul\":2048:2080   */\n      slt\n        /* \"#utility.yul\":2045:2164   */\n      iszero\n      tag_265\n      jumpi\n        /* \"#utility.yul\":2083:2162   */\n      tag_266\n      tag_255\n      jump\t// in\n    tag_266:\n        /* \"#utility.yul\":2045:2164   */\n    tag_265:\n        /* \"#utility.yul\":2231:2232   */\n      0x00\n        /* \"#utility.yul\":2220:2229   */\n      dup5\n        /* \"#utility.yul\":2216:2233   */\n      add\n        /* \"#utility.yul\":2203:2234   */\n      calldataload\n        /* \"#utility.yul\":2261:2279   */\n      0xffffffffffffffff\n        /* \"#utility.yul\":2253:2259   */\n      dup2\n        /* \"#utility.yul\":2250:2280   */\n      gt\n        /* \"#utility.yul\":2247:2364   */\n      iszero\n      tag_267\n      jumpi\n        /* \"#utility.yul\":2283:2362   */\n      tag_268\n      tag_262\n      jump\t// in\n    tag_268:\n        /* \"#utility.yul\":2247:2364   */\n    tag_267:\n        /* \"#utility.yul\":2388:2451   */\n      tag_269\n        /* \"#utility.yul\":2443:2450   */\n      dup7\n        /* \"#utility.yul\":2434:2440   */\n      dup3\n        /* \"#utility.yul\":2423:2432   */\n      dup8\n        /* \"#utility.yul\":2419:2441   */\n      add\n        /* \"#utility.yul\":2388:2451   */\n      tag_242\n      jump\t// in\n    tag_269:\n        /* \"#utility.yul\":2378:2451   */\n      swap4\n      pop\n        /* \"#utility.yul\":2174:2461   */\n      pop\n        /* \"#utility.yul\":2500:2502   */\n      0x20\n        /* \"#utility.yul\":2526:2579   */\n      tag_270\n        /* \"#utility.yul\":2571:2578   */\n      dup7\n        /* \"#utility.yul\":2562:2568   */\n      dup3\n        /* \"#utility.yul\":2551:2560   */\n      dup8\n        /* \"#utility.yul\":2547:2569   */\n      add\n        /* \"#utility.yul\":2526:2579   */\n      tag_238\n      jump\t// in\n    tag_270:\n        /* \"#utility.yul\":2516:2579   */\n      swap3\n      pop\n        /* \"#utility.yul\":2471:2589   */\n      pop\n        /* \"#utility.yul\":2628:2630   */\n      0x40\n        /* \"#utility.yul\":2654:2707   */\n      tag_271\n        /* \"#utility.yul\":2699:2706   */\n      dup7\n        /* \"#utility.yul\":2690:2696   */\n      dup3\n        /* \"#utility.yul\":2679:2688   */\n      dup8\n        /* \"#utility.yul\":2675:2697   */\n      add\n        /* \"#utility.yul\":2654:2707   */\n      tag_248\n      jump\t// in\n    tag_271:\n        /* \"#utility.yul\":2644:2707   */\n      swap2\n      pop\n        /* \"#utility.yul\":2599:2717   */\n      pop\n        /* \"#utility.yul\":1925:2724   */\n      swap3\n      pop\n      swap3\n      pop\n      swap3\n      jump\t// out\n        /* \"#utility.yul\":2730:3059   */\n    tag_28:\n        /* \"#utility.yul\":2789:2795   */\n      0x00\n        /* \"#utility.yul\":2838:2840   */\n      0x20\n        /* \"#utility.yul\":2826:2835   */\n      dup3\n        /* \"#utility.yul\":2817:2824   */\n      dup5\n        /* \"#utility.yul\":2813:2836   */\n      sub\n        /* \"#utility.yul\":2809:2841   */\n      slt\n        /* \"#utility.yul\":2806:2925   */\n      iszero\n      tag_273\n      jumpi\n        /* \"#utility.yul\":2844:2923   */\n      tag_274\n      tag_255\n      jump\t// in\n    tag_274:\n        /* \"#utility.yul\":2806:2925   */\n    tag_273:\n        /* \"#utility.yul\":2964:2965   */\n      0x00\n        /* \"#utility.yul\":2989:3042   */\n      tag_275\n        /* \"#utility.yul\":3034:3041   */\n      dup5\n        /* \"#utility.yul\":3025:3031   */\n      dup3\n        /* \"#utility.yul\":3014:3023   */\n      dup6\n        /* \"#utility.yul\":3010:3032   */\n      add\n        /* \"#utility.yul\":2989:3042   */\n      tag_248\n      jump\t// in\n    tag_275:\n        /* \"#utility.yul\":2979:3042   */\n      swap2\n      pop\n        /* \"#utility.yul\":2935:3052   */\n      pop\n        /* \"#utility.yul\":2730:3059   */\n      swap3\n      swap2\n      pop\n      pop\n      jump\t// out\n        /* \"#utility.yul\":3065:3719   */\n    tag_20:\n        /* \"#utility.yul\":3143:3149   */\n      0x00\n        /* \"#utility.yul\":3151:3157   */\n      dup1\n        /* \"#utility.yul\":3200:3202   */\n      0x40\n        /* \"#utility.yul\":3188:3197   */\n      dup4\n        /* \"#utility.yul\":3179:3186   */\n      dup6\n        /* \"#utility.yul\":3175:3198   */\n      sub\n        /* \"#utility.yul\":3171:3203   */\n      slt\n        /* \"#utility.yul\":3168:3287   */\n      iszero\n      tag_277\n      jumpi\n        /* \"#utility.yul\":3206:3285   */\n      tag_278\n      tag_255\n      jump\t// in\n    tag_278:\n        /* \"#utility.yul\":3168:3287   */\n    tag_277:\n        /* \"#utility.yul\":3326:3327   */\n      0x00\n        /* \"#utility.yul\":3351:3404   */\n      tag_279\n        /* \"#utility.yul\":3396:3403   */\n      dup6\n        /* \"#utility.yul\":3387:3393   */\n      dup3\n        /* \"#utility.yul\":3376:3385   */\n      dup7\n        /* \"#utility.yul\":3372:3394   */\n      add\n        /* \"#utility.yul\":3351:3404   */\n      tag_248\n      jump\t// in\n    tag_279:\n        /* \"#utility.yul\":3341:3404   */\n      swap3\n      pop\n        /* \"#utility.yul\":3297:3414   */\n      pop\n        /* \"#utility.yul\":3481:3483   */\n      0x20\n        /* \"#utility.yul\":3470:3479   */\n      dup4\n        /* \"#utility.yul\":3466:3484   */\n      add\n        /* \"#utility.yul\":3453:3485   */\n      calldataload\n        /* \"#utility.yul\":3512:3530   */\n      0xffffffffffffffff\n        /* \"#utility.yul\":3504:3510   */\n      dup2\n        /* \"#utility.yul\":3501:3531   */\n      gt\n        /* \"#utility.yul\":3498:3615   */\n      iszero\n      tag_280\n      jumpi\n        /* \"#utility.yul\":3534:3613   */\n      tag_281\n      tag_262\n      jump\t// in\n    tag_281:\n        /* \"#utility.yul\":3498:3615   */\n    tag_280:\n        /* \"#utility.yul\":3639:3702   */\n      tag_282\n        /* \"#utility.yul\":3694:3701   */\n      dup6\n        /* \"#utility.yul\":3685:3691   */\n      dup3\n        /* \"#utility.yul\":3674:3683   */\n      dup7\n        /* \"#utility.yul\":3670:3692   */\n      add\n        /* \"#utility.yul\":3639:3702   */\n      tag_242\n      jump\t// in\n    tag_282:\n        /* \"#utility.yul\":3629:3702   */\n      swap2\n      pop\n        /* \"#utility.yul\":3424:3712   */\n      pop\n        /* \"#utility.yul\":3065:3719   */\n      swap3\n      pop\n      swap3\n      swap1\n      pop\n      jump\t// out\n        /* \"#utility.yul\":3725:4344   */\n    tag_24:\n        /* \"#utility.yul\":3802:3808   */\n      0x00\n        /* \"#utility.yul\":3810:3816   */\n      dup1\n        /* \"#utility.yul\":3818:3824   */\n      0x00\n        /* \"#utility.yul\":3867:3869   */\n      0x60\n        /* \"#utility.yul\":3855:3864   */\n      dup5\n        /* \"#utility.yul\":3846:3853   */\n      dup7\n        /* \"#utility.yul\":3842:3865   */\n      sub\n        /* \"#utility.yul\":3838:3870   */\n      slt\n        /* \"#utility.yul\":3835:3954   */\n      iszero\n      tag_284\n      jumpi\n        /* \"#utility.yul\":3873:3952   */\n      tag_285\n      tag_255\n      jump\t// in\n    tag_285:\n        /* \"#utility.yul\":3835:3954   */\n    tag_284:\n        /* \"#utility.yul\":3993:3994   */\n      0x00\n        /* \"#utility.yul\":4018:4071   */\n      tag_286\n        /* \"#utility.yul\":4063:4070   */\n      dup7\n        /* \"#utility.yul\":4054:4060   */\n      dup3\n        /* \"#utility.yul\":4043:4052   */\n      dup8\n        /* \"#utility.yul\":4039:4061   */\n      add\n        /* \"#utility.yul\":4018:4071   */\n      tag_248\n      jump\t// in\n    tag_286:\n        /* \"#utility.yul\":4008:4071   */\n      swap4\n      pop\n        /* \"#utility.yul\":3964:4081   */\n      pop\n        /* \"#utility.yul\":4120:4122   */\n      0x20\n        /* \"#utility.yul\":4146:4199   */\n      tag_287\n        /* \"#utility.yul\":4191:4198   */\n      dup7\n        /* \"#utility.yul\":4182:4188   */\n      dup3\n        /* \"#utility.yul\":4171:4180   */\n      dup8\n        /* \"#utility.yul\":4167:4189   */\n      add\n        /* \"#utility.yul\":4146:4199   */\n      tag_248\n      jump\t// in\n    tag_287:\n        /* \"#utility.yul\":4136:4199   */\n      swap3\n      pop\n        /* \"#utility.yul\":4091:4209   */\n      pop\n        /* \"#utility.yul\":4248:4250   */\n      0x40\n        /* \"#utility.yul\":4274:4327   */\n      tag_288\n        /* \"#utility.yul\":4319:4326   */\n      dup7\n        /* \"#utility.yul\":4310:4316   */\n      dup3\n        /* \"#utility.yul\":4299:4308   */\n      dup8\n        /* \"#utility.yul\":4295:4317   */\n      add\n        /* \"#utility.yul\":4274:4327   */\n      tag_238\n      jump\t// in\n    tag_288:\n        /* \"#utility.yul\":4264:4327   */\n      swap2\n      pop\n        /* \"#utility.yul\":4219:4337   */\n      pop\n        /* \"#utility.yul\":3725:4344   */\n      swap3\n      pop\n      swap3\n      pop\n      swap3\n      jump\t// out\n        /* \"#utility.yul\":4350:4618   */\n    tag_289:\n        /* \"#utility.yul\":4475:4485   */\n      0x00\n        /* \"#utility.yul\":4510:4612   */\n      tag_291\n        /* \"#utility.yul\":4608:4611   */\n      dup4\n        /* \"#utility.yul\":4600:4606   */\n      dup4\n        /* \"#utility.yul\":4510:4612   */\n      tag_292\n      jump\t// in\n    tag_291:\n        /* \"#utility.yul\":4496:4612   */\n      swap1\n      pop\n        /* \"#utility.yul\":4350:4618   */\n      swap3\n      swap2\n      pop\n      pop\n      jump\t// out\n        /* \"#utility.yul\":4624:4732   */\n    tag_293:\n        /* \"#utility.yul\":4701:4725   */\n      tag_295\n        /* \"#utility.yul\":4719:4724   */\n      dup2\n        /* \"#utility.yul\":4701:4725   */\n      tag_296\n      jump\t// in\n    tag_295:\n        /* \"#utility.yul\":4696:4699   */\n      dup3\n        /* \"#utility.yul\":4689:4726   */\n      mstore\n        /* \"#utility.yul\":4624:4732   */\n      pop\n      pop\n      jump\t// out\n        /* \"#utility.yul\":4738:4856   */\n    tag_297:\n        /* \"#utility.yul\":4825:4849   */\n      tag_299\n        /* \"#utility.yul\":4843:4848   */\n      dup2\n        /* \"#utility.yul\":4825:4849   */\n      tag_296\n      jump\t// in\n    tag_299:\n        /* \"#utility.yul\":4820:4823   */\n      dup3\n        /* \"#utility.yul\":4813:4850   */\n      mstore\n        /* \"#utility.yul\":4738:4856   */\n      pop\n      pop\n      jump\t// out\n        /* \"#utility.yul\":4958:6093   */\n    tag_300:\n        /* \"#utility.yul\":5133:5136   */\n      0x00\n        /* \"#utility.yul\":5162:5244   */\n      tag_302\n        /* \"#utility.yul\":5238:5243   */\n      dup3\n        /* \"#utility.yul\":5162:5244   */\n      tag_303\n      jump\t// in\n    tag_302:\n        /* \"#utility.yul\":5260:5374   */\n      tag_304\n        /* \"#utility.yul\":5367:5373   */\n      dup2\n        /* \"#utility.yul\":5362:5365   */\n      dup6\n        /* \"#utility.yul\":5260:5374   */\n      tag_305\n      jump\t// in\n    tag_304:\n        /* \"#utility.yul\":5253:5374   */\n      swap4\n      pop\n        /* \"#utility.yul\":5400:5403   */\n      dup4\n        /* \"#utility.yul\":5445:5449   */\n      0x20\n        /* \"#utility.yul\":5437:5443   */\n      dup3\n        /* \"#utility.yul\":5433:5450   */\n      mul\n        /* \"#utility.yul\":5428:5431   */\n      dup6\n        /* \"#utility.yul\":5424:5451   */\n      add\n        /* \"#utility.yul\":5475:5559   */\n      tag_306\n        /* \"#utility.yul\":5553:5558   */\n      dup6\n        /* \"#utility.yul\":5475:5559   */\n      tag_307\n      jump\t// in\n    tag_306:\n        /* \"#utility.yul\":5582:5589   */\n      dup1\n        /* \"#utility.yul\":5613:5614   */\n      0x00\n        /* \"#utility.yul\":5598:6048   */\n    tag_308:\n        /* \"#utility.yul\":5623:5629   */\n      dup6\n        /* \"#utility.yul\":5620:5621   */\n      dup2\n        /* \"#utility.yul\":5617:5630   */\n      lt\n        /* \"#utility.yul\":5598:6048   */\n      iszero\n      tag_310\n      jumpi\n        /* \"#utility.yul\":5694:5703   */\n      dup5\n        /* \"#utility.yul\":5688:5692   */\n      dup5\n        /* \"#utility.yul\":5684:5704   */\n      sub\n        /* \"#utility.yul\":5679:5682   */\n      dup10\n        /* \"#utility.yul\":5672:5705   */\n      mstore\n        /* \"#utility.yul\":5745:5751   */\n      dup2\n        /* \"#utility.yul\":5739:5752   */\n      mload\n        /* \"#utility.yul\":5773:5893   */\n      tag_311\n        /* \"#utility.yul\":5888:5892   */\n      dup6\n        /* \"#utility.yul\":5873:5886   */\n      dup3\n        /* \"#utility.yul\":5773:5893   */\n      tag_289\n      jump\t// in\n    tag_311:\n        /* \"#utility.yul\":5765:5893   */\n      swap5\n      pop\n        /* \"#utility.yul\":5916:6004   */\n      tag_312\n        /* \"#utility.yul\":5997:6003   */\n      dup4\n        /* \"#utility.yul\":5916:6004   */\n      tag_313\n      jump\t// in\n    tag_312:\n        /* \"#utility.yul\":5906:6004   */\n      swap3\n      pop\n        /* \"#utility.yul\":6033:6037   */\n      0x20\n        /* \"#utility.yul\":6028:6031   */\n      dup11\n        /* \"#utility.yul\":6024:6038   */\n      add\n        /* \"#utility.yul\":6017:6038   */\n      swap10\n      pop\n        /* \"#utility.yul\":5658:6048   */\n      pop\n        /* \"#utility.yul\":5645:5646   */\n      0x01\n        /* \"#utility.yul\":5642:5643   */\n      dup2\n        /* \"#utility.yul\":5638:5647   */\n      add\n        /* \"#utility.yul\":5633:5647   */\n      swap1\n      pop\n        /* \"#utility.yul\":5598:6048   */\n      jump(tag_308)\n    tag_310:\n        /* \"#utility.yul\":5602:5616   */\n      pop\n        /* \"#utility.yul\":6064:6068   */\n      dup3\n        /* \"#utility.yul\":6057:6068   */\n      swap8\n      pop\n        /* \"#utility.yul\":6084:6087   */\n      dup8\n        /* \"#utility.yul\":6077:6087   */\n      swap6\n      pop\n        /* \"#utility.yul\":5138:6093   */\n      pop\n      pop\n      pop\n      pop\n      pop\n        /* \"#utility.yul\":4958:6093   */\n      swap3\n      swap2\n      pop\n      pop\n      jump\t// out\n        /* \"#utility.yul\":6099:6443   */\n    tag_314:\n        /* \"#utility.yul\":6177:6180   */\n      0x00\n        /* \"#utility.yul\":6205:6244   */\n      tag_316\n        /* \"#utility.yul\":6238:6243   */\n      dup3\n        /* \"#utility.yul\":6205:6244   */\n      tag_317\n      jump\t// in\n    tag_316:\n        /* \"#utility.yul\":6260:6321   */\n      tag_318\n        /* \"#utility.yul\":6314:6320   */\n      dup2\n        /* \"#utility.yul\":6309:6312   */\n      dup6\n        /* \"#utility.yul\":6260:6321   */\n      tag_319\n      jump\t// in\n    tag_318:\n        /* \"#utility.yul\":6253:6321   */\n      swap4\n      pop\n        /* \"#utility.yul\":6330:6382   */\n      tag_320\n        /* \"#utility.yul\":6375:6381   */\n      dup2\n        /* \"#utility.yul\":6370:6373   */\n      dup6\n        /* \"#utility.yul\":6363:6367   */\n      0x20\n        /* \"#utility.yul\":6356:6361   */\n      dup7\n        /* \"#utility.yul\":6352:6368   */\n      add\n        /* \"#utility.yul\":6330:6382   */\n      tag_321\n      jump\t// in\n    tag_320:\n        /* \"#utility.yul\":6407:6436   */\n      tag_322\n        /* \"#utility.yul\":6429:6435   */\n      dup2\n        /* \"#utility.yul\":6407:6436   */\n      tag_323\n      jump\t// in\n    tag_322:\n        /* \"#utility.yul\":6402:6405   */\n      dup5\n        /* \"#utility.yul\":6398:6437   */\n      add\n        /* \"#utility.yul\":6391:6437   */\n      swap2\n      pop\n        /* \"#utility.yul\":6181:6443   */\n      pop\n        /* \"#utility.yul\":6099:6443   */\n      swap3\n      swap2\n      pop\n      pop\n      jump\t// out\n        /* \"#utility.yul\":6449:6813   */\n    tag_324:\n        /* \"#utility.yul\":6537:6540   */\n      0x00\n        /* \"#utility.yul\":6565:6604   */\n      tag_326\n        /* \"#utility.yul\":6598:6603   */\n      dup3\n        /* \"#utility.yul\":6565:6604   */\n      tag_317\n      jump\t// in\n    tag_326:\n        /* \"#utility.yul\":6620:6691   */\n      tag_327\n        /* \"#utility.yul\":6684:6690   */\n      dup2\n        /* \"#utility.yul\":6679:6682   */\n      dup6\n        /* \"#utility.yul\":6620:6691   */\n      tag_328\n      jump\t// in\n    tag_327:\n        /* \"#utility.yul\":6613:6691   */\n      swap4\n      pop\n        /* \"#utility.yul\":6700:6752   */\n      tag_329\n        /* \"#utility.yul\":6745:6751   */\n      dup2\n        /* \"#utility.yul\":6740:6743   */\n      dup6\n        /* \"#utility.yul\":6733:6737   */\n      0x20\n        /* \"#utility.yul\":6726:6731   */\n      dup7\n        /* \"#utility.yul\":6722:6738   */\n      add\n        /* \"#utility.yul\":6700:6752   */\n      tag_321\n      jump\t// in\n    tag_329:\n        /* \"#utility.yul\":6777:6806   */\n      tag_330\n        /* \"#utility.yul\":6799:6805   */\n      dup2\n        /* \"#utility.yul\":6777:6806   */\n      tag_323\n      jump\t// in\n    tag_330:\n        /* \"#utility.yul\":6772:6775   */\n      dup5\n        /* \"#utility.yul\":6768:6807   */\n      add\n        /* \"#utility.yul\":6761:6807   */\n      swap2\n      pop\n        /* \"#utility.yul\":6541:6813   */\n      pop\n        /* \"#utility.yul\":6449:6813   */\n      swap3\n      swap2\n      pop\n      pop\n      jump\t// out\n        /* \"#utility.yul\":6911:8587   */\n    tag_292:\n        /* \"#utility.yul\":7026:7029   */\n      0x00\n        /* \"#utility.yul\":7062:7068   */\n      0x0100\n        /* \"#utility.yul\":7057:7060   */\n      dup4\n        /* \"#utility.yul\":7053:7069   */\n      add\n        /* \"#utility.yul\":7150:7154   */\n      0x00\n        /* \"#utility.yul\":7143:7148   */\n      dup4\n        /* \"#utility.yul\":7139:7155   */\n      add\n        /* \"#utility.yul\":7133:7156   */\n      mload\n        /* \"#utility.yul\":7169:7232   */\n      tag_332\n        /* \"#utility.yul\":7226:7230   */\n      0x00\n        /* \"#utility.yul\":7221:7224   */\n      dup7\n        /* \"#utility.yul\":7217:7231   */\n      add\n        /* \"#utility.yul\":7203:7215   */\n      dup3\n        /* \"#utility.yul\":7169:7232   */\n      tag_333\n      jump\t// in\n    tag_332:\n        /* \"#utility.yul\":7079:7242   */\n      pop\n        /* \"#utility.yul\":7325:7329   */\n      0x20\n        /* \"#utility.yul\":7318:7323   */\n      dup4\n        /* \"#utility.yul\":7314:7330   */\n      add\n        /* \"#utility.yul\":7308:7331   */\n      mload\n        /* \"#utility.yul\":7378:7381   */\n      dup5\n        /* \"#utility.yul\":7372:7376   */\n      dup3\n        /* \"#utility.yul\":7368:7382   */\n      sub\n        /* \"#utility.yul\":7361:7365   */\n      0x20\n        /* \"#utility.yul\":7356:7359   */\n      dup7\n        /* \"#utility.yul\":7352:7366   */\n      add\n        /* \"#utility.yul\":7345:7383   */\n      mstore\n        /* \"#utility.yul\":7404:7477   */\n      tag_334\n        /* \"#utility.yul\":7472:7476   */\n      dup3\n        /* \"#utility.yul\":7458:7470   */\n      dup3\n        /* \"#utility.yul\":7404:7477   */\n      tag_314\n      jump\t// in\n    tag_334:\n        /* \"#utility.yul\":7396:7477   */\n      swap2\n      pop\n        /* \"#utility.yul\":7252:7488   */\n      pop\n        /* \"#utility.yul\":7572:7576   */\n      0x40\n        /* \"#utility.yul\":7565:7570   */\n      dup4\n        /* \"#utility.yul\":7561:7577   */\n      add\n        /* \"#utility.yul\":7555:7578   */\n      mload\n        /* \"#utility.yul\":7591:7654   */\n      tag_335\n        /* \"#utility.yul\":7648:7652   */\n      0x40\n        /* \"#utility.yul\":7643:7646   */\n      dup7\n        /* \"#utility.yul\":7639:7653   */\n      add\n        /* \"#utility.yul\":7625:7637   */\n      dup3\n        /* \"#utility.yul\":7591:7654   */\n      tag_333\n      jump\t// in\n    tag_335:\n        /* \"#utility.yul\":7498:7664   */\n      pop\n        /* \"#utility.yul\":7749:7753   */\n      0x60\n        /* \"#utility.yul\":7742:7747   */\n      dup4\n        /* \"#utility.yul\":7738:7754   */\n      add\n        /* \"#utility.yul\":7732:7755   */\n      mload\n        /* \"#utility.yul\":7768:7831   */\n      tag_336\n        /* \"#utility.yul\":7825:7829   */\n      0x60\n        /* \"#utility.yul\":7820:7823   */\n      dup7\n        /* \"#utility.yul\":7816:7830   */\n      add\n        /* \"#utility.yul\":7802:7814   */\n      dup3\n        /* \"#utility.yul\":7768:7831   */\n      tag_293\n      jump\t// in\n    tag_336:\n        /* \"#utility.yul\":7674:7841   */\n      pop\n        /* \"#utility.yul\":7928:7932   */\n      0x80\n        /* \"#utility.yul\":7921:7926   */\n      dup4\n        /* \"#utility.yul\":7917:7933   */\n      add\n        /* \"#utility.yul\":7911:7934   */\n      mload\n        /* \"#utility.yul\":7947:8010   */\n      tag_337\n        /* \"#utility.yul\":8004:8008   */\n      0x80\n        /* \"#utility.yul\":7999:8002   */\n      dup7\n        /* \"#utility.yul\":7995:8009   */\n      add\n        /* \"#utility.yul\":7981:7993   */\n      dup3\n        /* \"#utility.yul\":7947:8010   */\n      tag_293\n      jump\t// in\n    tag_337:\n        /* \"#utility.yul\":7851:8020   */\n      pop\n        /* \"#utility.yul\":8105:8109   */\n      0xa0\n        /* \"#utility.yul\":8098:8103   */\n      dup4\n        /* \"#utility.yul\":8094:8110   */\n      add\n        /* \"#utility.yul\":8088:8111   */\n      mload\n        /* \"#utility.yul\":8124:8187   */\n      tag_338\n        /* \"#utility.yul\":8181:8185   */\n      0xa0\n        /* \"#utility.yul\":8176:8179   */\n      dup7\n        /* \"#utility.yul\":8172:8186   */\n      add\n        /* \"#utility.yul\":8158:8170   */\n      dup3\n        /* \"#utility.yul\":8124:8187   */\n      tag_333\n      jump\t// in\n    tag_338:\n        /* \"#utility.yul\":8030:8197   */\n      pop\n        /* \"#utility.yul\":8286:8290   */\n      0xc0\n        /* \"#utility.yul\":8279:8284   */\n      dup4\n        /* \"#utility.yul\":8275:8291   */\n      add\n        /* \"#utility.yul\":8269:8292   */\n      mload\n        /* \"#utility.yul\":8305:8368   */\n      tag_339\n        /* \"#utility.yul\":8362:8366   */\n      0xc0\n        /* \"#utility.yul\":8357:8360   */\n      dup7\n        /* \"#utility.yul\":8353:8367   */\n      add\n        /* \"#utility.yul\":8339:8351   */\n      dup3\n        /* \"#utility.yul\":8305:8368   */\n      tag_333\n      jump\t// in\n    tag_339:\n        /* \"#utility.yul\":8207:8378   */\n      pop\n        /* \"#utility.yul\":8468:8472   */\n      0xe0\n        /* \"#utility.yul\":8461:8466   */\n      dup4\n        /* \"#utility.yul\":8457:8473   */\n      add\n        /* \"#utility.yul\":8451:8474   */\n      mload\n        /* \"#utility.yul\":8487:8550   */\n      tag_340\n        /* \"#utility.yul\":8544:8548   */\n      0xe0\n        /* \"#utility.yul\":8539:8542   */\n      dup7\n        /* \"#utility.yul\":8535:8549   */\n      add\n        /* \"#utility.yul\":8521:8533   */\n      dup3\n        /* \"#utility.yul\":8487:8550   */\n      tag_333\n      jump\t// in\n    tag_340:\n        /* \"#utility.yul\":8388:8560   */\n      pop\n        /* \"#utility.yul\":8577:8581   */\n      dup1\n        /* \"#utility.yul\":8570:8581   */\n      swap2\n      pop\n        /* \"#utility.yul\":7031:8587   */\n      pop\n        /* \"#utility.yul\":6911:8587   */\n      swap3\n      swap2\n      pop\n      pop\n      jump\t// out\n        /* \"#utility.yul\":8593:8701   */\n    tag_333:\n        /* \"#utility.yul\":8670:8694   */\n      tag_342\n        /* \"#utility.yul\":8688:8693   */\n      dup2\n        /* \"#utility.yul\":8670:8694   */\n      tag_343\n      jump\t// in\n    tag_342:\n        /* \"#utility.yul\":8665:8668   */\n      dup3\n        /* \"#utility.yul\":8658:8695   */\n      mstore\n        /* \"#utility.yul\":8593:8701   */\n      pop\n      pop\n      jump\t// out\n        /* \"#utility.yul\":8707:8825   */\n    tag_344:\n        /* \"#utility.yul\":8794:8818   */\n      tag_346\n        /* \"#utility.yul\":8812:8817   */\n      dup2\n        /* \"#utility.yul\":8794:8818   */\n      tag_343\n      jump\t// in\n    tag_346:\n        /* \"#utility.yul\":8789:8792   */\n      dup3\n        /* \"#utility.yul\":8782:8819   */\n      mstore\n        /* \"#utility.yul\":8707:8825   */\n      pop\n      pop\n      jump\t// out\n        /* \"#utility.yul\":8831:9316   */\n    tag_17:\n        /* \"#utility.yul\":9030:9034   */\n      0x00\n        /* \"#utility.yul\":9068:9070   */\n      0x20\n        /* \"#utility.yul\":9057:9066   */\n      dup3\n        /* \"#utility.yul\":9053:9071   */\n      add\n        /* \"#utility.yul\":9045:9071   */\n      swap1\n      pop\n        /* \"#utility.yul\":9117:9126   */\n      dup2\n        /* \"#utility.yul\":9111:9115   */\n      dup2\n        /* \"#utility.yul\":9107:9127   */\n      sub\n        /* \"#utility.yul\":9103:9104   */\n      0x00\n        /* \"#utility.yul\":9092:9101   */\n      dup4\n        /* \"#utility.yul\":9088:9105   */\n      add\n        /* \"#utility.yul\":9081:9128   */\n      mstore\n        /* \"#utility.yul\":9145:9309   */\n      tag_348\n        /* \"#utility.yul\":9304:9308   */\n      dup2\n        /* \"#utility.yul\":9295:9301   */\n      dup5\n        /* \"#utility.yul\":9145:9309   */\n      tag_300\n      jump\t// in\n    tag_348:\n        /* \"#utility.yul\":9137:9309   */\n      swap1\n      pop\n        /* \"#utility.yul\":8831:9316   */\n      swap3\n      swap2\n      pop\n      pop\n      jump\t// out\n        /* \"#utility.yul\":9322:9544   */\n    tag_48:\n        /* \"#utility.yul\":9415:9419   */\n      0x00\n        /* \"#utility.yul\":9453:9455   */\n      0x20\n        /* \"#utility.yul\":9442:9451   */\n      dup3\n        /* \"#utility.yul\":9438:9456   */\n      add\n        /* \"#utility.yul\":9430:9456   */\n      swap1\n      pop\n        /* \"#utility.yul\":9466:9537   */\n      tag_350\n        /* \"#utility.yul\":9534:9535   */\n      0x00\n        /* \"#utility.yul\":9523:9532   */\n      dup4\n        /* \"#utility.yul\":9519:9536   */\n      add\n        /* \"#utility.yul\":9510:9516   */\n      dup5\n        /* \"#utility.yul\":9466:9537   */\n      tag_344\n      jump\t// in\n    tag_350:\n        /* \"#utility.yul\":9322:9544   */\n      swap3\n      swap2\n      pop\n      pop\n      jump\t// out\n        /* \"#utility.yul\":9550:10638   */\n    tag_34:\n        /* \"#utility.yul\":9859:9863   */\n      0x00\n        /* \"#utility.yul\":9897:9900   */\n      0x0100\n        /* \"#utility.yul\":9886:9895   */\n      dup3\n        /* \"#utility.yul\":9882:9901   */\n      add\n        /* \"#utility.yul\":9874:9901   */\n      swap1\n      pop\n        /* \"#utility.yul\":9911:9982   */\n      tag_352\n        /* \"#utility.yul\":9979:9980   */\n      0x00\n        /* \"#utility.yul\":9968:9977   */\n      dup4\n        /* \"#utility.yul\":9964:9981   */\n      add\n        /* \"#utility.yul\":9955:9961   */\n      dup12\n        /* \"#utility.yul\":9911:9982   */\n      tag_344\n      jump\t// in\n    tag_352:\n        /* \"#utility.yul\":10029:10038   */\n      dup2\n        /* \"#utility.yul\":10023:10027   */\n      dup2\n        /* \"#utility.yul\":10019:10039   */\n      sub\n        /* \"#utility.yul\":10014:10016   */\n      0x20\n        /* \"#utility.yul\":10003:10012   */\n      dup4\n        /* \"#utility.yul\":9999:10017   */\n      add\n        /* \"#utility.yul\":9992:10040   */\n      mstore\n        /* \"#utility.yul\":10057:10135   */\n      tag_353\n        /* \"#utility.yul\":10130:10134   */\n      dup2\n        /* \"#utility.yul\":10121:10127   */\n      dup11\n        /* \"#utility.yul\":10057:10135   */\n      tag_324\n      jump\t// in\n    tag_353:\n        /* \"#utility.yul\":10049:10135   */\n      swap1\n      pop\n        /* \"#utility.yul\":10145:10217   */\n      tag_354\n        /* \"#utility.yul\":10213:10215   */\n      0x40\n        /* \"#utility.yul\":10202:10211   */\n      dup4\n        /* \"#utility.yul\":10198:10216   */\n      add\n        /* \"#utility.yul\":10189:10195   */\n      dup10\n        /* \"#utility.yul\":10145:10217   */\n      tag_344\n      jump\t// in\n    tag_354:\n        /* \"#utility.yul\":10227:10299   */\n      tag_355\n        /* \"#utility.yul\":10295:10297   */\n      0x60\n        /* \"#utility.yul\":10284:10293   */\n      dup4\n        /* \"#utility.yul\":10280:10298   */\n      add\n        /* \"#utility.yul\":10271:10277   */\n      dup9\n        /* \"#utility.yul\":10227:10299   */\n      tag_297\n      jump\t// in\n    tag_355:\n        /* \"#utility.yul\":10309:10382   */\n      tag_356\n        /* \"#utility.yul\":10377:10380   */\n      0x80\n        /* \"#utility.yul\":10366:10375   */\n      dup4\n        /* \"#utility.yul\":10362:10381   */\n      add\n        /* \"#utility.yul\":10353:10359   */\n      dup8\n        /* \"#utility.yul\":10309:10382   */\n      tag_297\n      jump\t// in\n    tag_356:\n        /* \"#utility.yul\":10392:10465   */\n      tag_357\n        /* \"#utility.yul\":10460:10463   */\n      0xa0\n        /* \"#utility.yul\":10449:10458   */\n      dup4\n        /* \"#utility.yul\":10445:10464   */\n      add\n        /* \"#utility.yul\":10436:10442   */\n      dup7\n        /* \"#utility.yul\":10392:10465   */\n      tag_344\n      jump\t// in\n    tag_357:\n        /* \"#utility.yul\":10475:10548   */\n      tag_358\n        /* \"#utility.yul\":10543:10546   */\n      0xc0\n        /* \"#utility.yul\":10532:10541   */\n      dup4\n        /* \"#utility.yul\":10528:10547   */\n      add\n        /* \"#utility.yul\":10519:10525   */\n      dup6\n        /* \"#utility.yul\":10475:10548   */\n      tag_344\n      jump\t// in\n    tag_358:\n        /* \"#utility.yul\":10558:10631   */\n      tag_359\n        /* \"#utility.yul\":10626:10629   */\n      0xe0\n        /* \"#utility.yul\":10615:10624   */\n      dup4\n        /* \"#utility.yul\":10611:10630   */\n      add\n        /* \"#utility.yul\":10602:10608   */\n      dup5\n        /* \"#utility.yul\":10558:10631   */\n      tag_344\n      jump\t// in\n    tag_359:\n        /* \"#utility.yul\":9550:10638   */\n      swap10\n      swap9\n      pop\n      pop\n      pop\n      pop\n      pop\n      pop\n      pop\n      pop\n      pop\n      jump\t// out\n        /* \"#utility.yul\":10644:10773   */\n    tag_232:\n        /* \"#utility.yul\":10678:10684   */\n      0x00\n        /* \"#utility.yul\":10705:10725   */\n      tag_361\n      tag_362\n      jump\t// in\n    tag_361:\n        /* \"#utility.yul\":10695:10725   */\n      swap1\n      pop\n        /* \"#utility.yul\":10734:10767   */\n      tag_363\n        /* \"#utility.yul\":10762:10766   */\n      dup3\n        /* \"#utility.yul\":10754:10760   */\n      dup3\n        /* \"#utility.yul\":10734:10767   */\n      tag_364\n      jump\t// in\n    tag_363:\n        /* \"#utility.yul\":10644:10773   */\n      swap2\n      swap1\n      pop\n      jump\t// out\n        /* \"#utility.yul\":10779:10854   */\n    tag_362:\n        /* \"#utility.yul\":10812:10818   */\n      0x00\n        /* \"#utility.yul\":10845:10847   */\n      0x40\n        /* \"#utility.yul\":10839:10848   */\n      mload\n        /* \"#utility.yul\":10829:10848   */\n      swap1\n      pop\n        /* \"#utility.yul\":10779:10854   */\n      swap1\n      jump\t// out\n        /* \"#utility.yul\":10860:11168   */\n    tag_231:\n        /* \"#utility.yul\":10922:10926   */\n      0x00\n        /* \"#utility.yul\":11012:11030   */\n      0xffffffffffffffff\n        /* \"#utility.yul\":11004:11010   */\n      dup3\n        /* \"#utility.yul\":11001:11031   */\n      gt\n        /* \"#utility.yul\":10998:11054   */\n      iszero\n      tag_367\n      jumpi\n        /* \"#utility.yul\":11034:11052   */\n      tag_368\n      tag_369\n      jump\t// in\n    tag_368:\n        /* \"#utility.yul\":10998:11054   */\n    tag_367:\n        /* \"#utility.yul\":11072:11101   */\n      tag_370\n        /* \"#utility.yul\":11094:11100   */\n      dup3\n        /* \"#utility.yul\":11072:11101   */\n      tag_323\n      jump\t// in\n    tag_370:\n        /* \"#utility.yul\":11064:11101   */\n      swap1\n      pop\n        /* \"#utility.yul\":11156:11160   */\n      0x20\n        /* \"#utility.yul\":11150:11154   */\n      dup2\n        /* \"#utility.yul\":11146:11161   */\n      add\n        /* \"#utility.yul\":11138:11161   */\n      swap1\n      pop\n        /* \"#utility.yul\":10860:11168   */\n      swap2\n      swap1\n      pop\n      jump\t// out\n        /* \"#utility.yul\":11174:11334   */\n    tag_307:\n        /* \"#utility.yul\":11269:11273   */\n      0x00\n        /* \"#utility.yul\":11292:11295   */\n      dup2\n        /* \"#utility.yul\":11284:11295   */\n      swap1\n      pop\n        /* \"#utility.yul\":11322:11326   */\n      0x20\n        /* \"#utility.yul\":11317:11320   */\n      dup3\n        /* \"#utility.yul\":11313:11327   */\n      add\n        /* \"#utility.yul\":11305:11327   */\n      swap1\n      pop\n        /* \"#utility.yul\":11174:11334   */\n      swap2\n      swap1\n      pop\n      jump\t// out\n        /* \"#utility.yul\":11340:11482   */\n    tag_303:\n        /* \"#utility.yul\":11435:11441   */\n      0x00\n        /* \"#utility.yul\":11469:11474   */\n      dup2\n        /* \"#utility.yul\":11463:11475   */\n      mload\n        /* \"#utility.yul\":11453:11475   */\n      swap1\n      pop\n        /* \"#utility.yul\":11340:11482   */\n      swap2\n      swap1\n      pop\n      jump\t// out\n        /* \"#utility.yul\":11488:11587   */\n    tag_317:\n        /* \"#utility.yul\":11540:11546   */\n      0x00\n        /* \"#utility.yul\":11574:11579   */\n      dup2\n        /* \"#utility.yul\":11568:11580   */\n      mload\n        /* \"#utility.yul\":11558:11580   */\n      swap1\n      pop\n        /* \"#utility.yul\":11488:11587   */\n      swap2\n      swap1\n      pop\n      jump\t// out\n        /* \"#utility.yul\":11593:11734   */\n    tag_313:\n        /* \"#utility.yul\":11691:11695   */\n      0x00\n        /* \"#utility.yul\":11723:11727   */\n      0x20\n        /* \"#utility.yul\":11718:11721   */\n      dup3\n        /* \"#utility.yul\":11714:11728   */\n      add\n        /* \"#utility.yul\":11706:11728   */\n      swap1\n      pop\n        /* \"#utility.yul\":11593:11734   */\n      swap2\n      swap1\n      pop\n      jump\t// out\n        /* \"#utility.yul\":11740:11952   */\n    tag_305:\n        /* \"#utility.yul\":11867:11878   */\n      0x00\n        /* \"#utility.yul\":11901:11907   */\n      dup3\n        /* \"#utility.yul\":11896:11899   */\n      dup3\n        /* \"#utility.yul\":11889:11908   */\n      mstore\n        /* \"#utility.yul\":11941:11945   */\n      0x20\n        /* \"#utility.yul\":11936:11939   */\n      dup3\n        /* \"#utility.yul\":11932:11946   */\n      add\n        /* \"#utility.yul\":11917:11946   */\n      swap1\n      pop\n        /* \"#utility.yul\":11740:11952   */\n      swap3\n      swap2\n      pop\n      pop\n      jump\t// out\n        /* \"#utility.yul\":11958:12117   */\n    tag_319:\n        /* \"#utility.yul\":12032:12043   */\n      0x00\n        /* \"#utility.yul\":12066:12072   */\n      dup3\n        /* \"#utility.yul\":12061:12064   */\n      dup3\n        /* \"#utility.yul\":12054:12073   */\n      mstore\n        /* \"#utility.yul\":12106:12110   */\n      0x20\n        /* \"#utility.yul\":12101:12104   */\n      dup3\n        /* \"#utility.yul\":12097:12111   */\n      add\n        /* \"#utility.yul\":12082:12111   */\n      swap1\n      pop\n        /* \"#utility.yul\":11958:12117   */\n      swap3\n      swap2\n      pop\n      pop\n      jump\t// out\n        /* \"#utility.yul\":12123:12292   */\n    tag_328:\n        /* \"#utility.yul\":12207:12218   */\n      0x00\n        /* \"#utility.yul\":12241:12247   */\n      dup3\n        /* \"#utility.yul\":12236:12239   */\n      dup3\n        /* \"#utility.yul\":12229:12248   */\n      mstore\n        /* \"#utility.yul\":12281:12285   */\n      0x20\n        /* \"#utility.yul\":12276:12279   */\n      dup3\n        /* \"#utility.yul\":12272:12286   */\n      add\n        /* \"#utility.yul\":12257:12286   */\n      swap1\n      pop\n        /* \"#utility.yul\":12123:12292   */\n      swap3\n      swap2\n      pop\n      pop\n      jump\t// out\n        /* \"#utility.yul\":12298:12603   */\n    tag_85:\n        /* \"#utility.yul\":12338:12341   */\n      0x00\n        /* \"#utility.yul\":12357:12377   */\n      tag_379\n        /* \"#utility.yul\":12375:12376   */\n      dup3\n        /* \"#utility.yul\":12357:12377   */\n      tag_343\n      jump\t// in\n    tag_379:\n        /* \"#utility.yul\":12352:12377   */\n      swap2\n      pop\n        /* \"#utility.yul\":12391:12411   */\n      tag_380\n        /* \"#utility.yul\":12409:12410   */\n      dup4\n        /* \"#utility.yul\":12391:12411   */\n      tag_343\n      jump\t// in\n    tag_380:\n        /* \"#utility.yul\":12386:12411   */\n      swap3\n      pop\n        /* \"#utility.yul\":12545:12546   */\n      dup3\n        /* \"#utility.yul\":12477:12543   */\n      0xffffffffffffffffffffffffffffffffffffffffffffffffffffffffffffffff\n        /* \"#utility.yul\":12473:12547   */\n      sub\n        /* \"#utility.yul\":12470:12471   */\n      dup3\n        /* \"#utility.yul\":12467:12548   */\n      gt\n        /* \"#utility.yul\":12464:12571   */\n      iszero\n      tag_381\n      jumpi\n        /* \"#utility.yul\":12551:12569   */\n      tag_382\n      tag_383\n      jump\t// in\n    tag_382:\n        /* \"#utility.yul\":12464:12571   */\n    tag_381:\n        /* \"#utility.yul\":12595:12596   */\n      dup3\n        /* \"#utility.yul\":12592:12593   */\n      dup3\n        /* \"#utility.yul\":12588:12597   */\n      add\n        /* \"#utility.yul\":12581:12597   */\n      swap1\n      pop\n        /* \"#utility.yul\":12298:12603   */\n      swap3\n      swap2\n      pop\n      pop\n      jump\t// out\n        /* \"#utility.yul\":12609:12957   */\n    tag_202:\n        /* \"#utility.yul\":12649:12656   */\n      0x00\n        /* \"#utility.yul\":12672:12692   */\n      tag_385\n        /* \"#utility.yul\":12690:12691   */\n      dup3\n        /* \"#utility.yul\":12672:12692   */\n      tag_343\n      jump\t// in\n    tag_385:\n        /* \"#utility.yul\":12667:12692   */\n      swap2\n      pop\n        /* \"#utility.yul\":12706:12726   */\n      tag_386\n        /* \"#utility.yul\":12724:12725   */\n      dup4\n        /* \"#utility.yul\":12706:12726   */\n      tag_343\n      jump\t// in\n    tag_386:\n        /* \"#utility.yul\":12701:12726   */\n      swap3\n      pop\n        /* \"#utility.yul\":12894:12895   */\n      dup2\n        /* \"#utility.yul\":12826:12892   */\n      0xffffffffffffffffffffffffffffffffffffffffffffffffffffffffffffffff\n        /* \"#utility.yul\":12822:12896   */\n      div\n        /* \"#utility.yul\":12819:12820   */\n      dup4\n        /* \"#utility.yul\":12816:12897   */\n      gt\n        /* \"#utility.yul\":12811:12812   */\n      dup3\n        /* \"#utility.yul\":12804:12813   */\n      iszero\n        /* \"#utility.yul\":12797:12814   */\n      iszero\n        /* \"#utility.yul\":12793:12898   */\n      and\n        /* \"#utility.yul\":12790:12921   */\n      iszero\n      tag_387\n      jumpi\n        /* \"#utility.yul\":12901:12919   */\n      tag_388\n      tag_383\n      jump\t// in\n    tag_388:\n        /* \"#utility.yul\":12790:12921   */\n    tag_387:\n        /* \"#utility.yul\":12949:12950   */\n      dup3\n        /* \"#utility.yul\":12946:12947   */\n      dup3\n        /* \"#utility.yul\":12942:12951   */\n      mul\n        /* \"#utility.yul\":12931:12951   */\n      swap1\n      pop\n        /* \"#utility.yul\":12609:12957   */\n      swap3\n      swap2\n      pop\n      pop\n      jump\t// out\n        /* \"#utility.yul\":12963:13154   */\n    tag_61:\n        /* \"#utility.yul\":13003:13007   */\n      0x00\n        /* \"#utility.yul\":13023:13043   */\n      tag_390\n        /* \"#utility.yul\":13041:13042   */\n      dup3\n        /* \"#utility.yul\":13023:13043   */\n      tag_343\n      jump\t// in\n    tag_390:\n        /* \"#utility.yul\":13018:13043   */\n      swap2\n      pop\n        /* \"#utility.yul\":13057:13077   */\n      tag_391\n        /* \"#utility.yul\":13075:13076   */\n      dup4\n        /* \"#utility.yul\":13057:13077   */\n      tag_343\n      jump\t// in\n    tag_391:\n        /* \"#utility.yul\":13052:13077   */\n      swap3\n      pop\n        /* \"#utility.yul\":13096:13097   */\n      dup3\n        /* \"#utility.yul\":13093:13094   */\n      dup3\n        /* \"#utility.yul\":13090:13098   */\n      lt\n        /* \"#utility.yul\":13087:13121   */\n      iszero\n      tag_392\n      jumpi\n        /* \"#utility.yul\":13101:13119   */\n      tag_393\n      tag_383\n      jump\t// in\n    tag_393:\n        /* \"#utility.yul\":13087:13121   */\n    tag_392:\n        /* \"#utility.yul\":13146:13147   */\n      dup3\n        /* \"#utility.yul\":13143:13144   */\n      dup3\n        /* \"#utility.yul\":13139:13148   */\n      sub\n        /* \"#utility.yul\":13131:13148   */\n      swap1\n      pop\n        /* \"#utility.yul\":12963:13154   */\n      swap3\n      swap2\n      pop\n      pop\n      jump\t// out\n        /* \"#utility.yul\":13160:13256   */\n    tag_296:\n        /* \"#utility.yul\":13197:13204   */\n      0x00\n        /* \"#utility.yul\":13226:13250   */\n      tag_395\n        /* \"#utility.yul\":13244:13249   */\n      dup3\n        /* \"#utility.yul\":13226:13250   */\n      tag_396\n      jump\t// in\n    tag_395:\n        /* \"#utility.yul\":13215:13250   */\n      swap1\n      pop\n        /* \"#utility.yul\":13160:13256   */\n      swap2\n      swap1\n      pop\n      jump\t// out\n        /* \"#utility.yul\":13262:13388   */\n    tag_396:\n        /* \"#utility.yul\":13299:13306   */\n      0x00\n        /* \"#utility.yul\":13339:13381   */\n      0xffffffffffffffffffffffffffffffffffffffff\n        /* \"#utility.yul\":13332:13337   */\n      dup3\n        /* \"#utility.yul\":13328:13382   */\n      and\n        /* \"#utility.yul\":13317:13382   */\n      swap1\n      pop\n        /* \"#utility.yul\":13262:13388   */\n      swap2\n      swap1\n      pop\n      jump\t// out\n        /* \"#utility.yul\":13394:13471   */\n    tag_343:\n        /* \"#utility.yul\":13431:13438   */\n      0x00\n        /* \"#utility.yul\":13460:13465   */\n      dup2\n        /* \"#utility.yul\":13449:13465   */\n      swap1\n      pop\n        /* \"#utility.yul\":13394:13471   */\n      swap2\n      swap1\n      pop\n      jump\t// out\n        /* \"#utility.yul\":13477:13631   */\n    tag_237:\n        /* \"#utility.yul\":13561:13567   */\n      dup3\n        /* \"#utility.yul\":13556:13559   */\n      dup2\n        /* \"#utility.yul\":13551:13554   */\n      dup4\n        /* \"#utility.yul\":13538:13568   */\n      calldatacopy\n        /* \"#utility.yul\":13623:13624   */\n      0x00\n        /* \"#utility.yul\":13614:13620   */\n      dup4\n        /* \"#utility.yul\":13609:13612   */\n      dup4\n        /* \"#utility.yul\":13605:13621   */\n      add\n        /* \"#utility.yul\":13598:13625   */\n      mstore\n        /* \"#utility.yul\":13477:13631   */\n      pop\n      pop\n      pop\n      jump\t// out\n        /* \"#utility.yul\":13637:13944   */\n    tag_321:\n        /* \"#utility.yul\":13705:13706   */\n      0x00\n        /* \"#utility.yul\":13715:13828   */\n    tag_401:\n        /* \"#utility.yul\":13729:13735   */\n      dup4\n        /* \"#utility.yul\":13726:13727   */\n      dup2\n        /* \"#utility.yul\":13723:13736   */\n      lt\n        /* \"#utility.yul\":13715:13828   */\n      iszero\n      tag_403\n      jumpi\n        /* \"#utility.yul\":13814:13815   */\n      dup1\n        /* \"#utility.yul\":13809:13812   */\n      dup3\n        /* \"#utility.yul\":13805:13816   */\n      add\n        /* \"#utility.yul\":13799:13817   */\n      mload\n        /* \"#utility.yul\":13795:13796   */\n      dup2\n        /* \"#utility.yul\":13790:13793   */\n      dup5\n        /* \"#utility.yul\":13786:13797   */\n      add\n        /* \"#utility.yul\":13779:13818   */\n      mstore\n        /* \"#utility.yul\":13751:13753   */\n      0x20\n        /* \"#utility.yul\":13748:13749   */\n      dup2\n        /* \"#utility.yul\":13744:13754   */\n      add\n        /* \"#utility.yul\":13739:13754   */\n      swap1\n      pop\n        /* \"#utility.yul\":13715:13828   */\n      jump(tag_401)\n    tag_403:\n        /* \"#utility.yul\":13846:13852   */\n      dup4\n        /* \"#utility.yul\":13843:13844   */\n      dup2\n        /* \"#utility.yul\":13840:13853   */\n      gt\n        /* \"#utility.yul\":13837:13938   */\n      iszero\n      tag_404\n      jumpi\n        /* \"#utility.yul\":13926:13927   */\n      0x00\n        /* \"#utility.yul\":13917:13923   */\n      dup5\n        /* \"#utility.yul\":13912:13915   */\n      dup5\n        /* \"#utility.yul\":13908:13924   */\n      add\n        /* \"#utility.yul\":13901:13928   */\n      mstore\n        /* \"#utility.yul\":13837:13938   */\n    tag_404:\n        /* \"#utility.yul\":13686:13944   */\n      pop\n        /* \"#utility.yul\":13637:13944   */\n      pop\n      pop\n      pop\n      jump\t// out\n        /* \"#utility.yul\":13950:14270   */\n    tag_54:\n        /* \"#utility.yul\":13994:14000   */\n      0x00\n        /* \"#utility.yul\":14031:14032   */\n      0x02\n        /* \"#utility.yul\":14025:14029   */\n      dup3\n        /* \"#utility.yul\":14021:14033   */\n      div\n        /* \"#utility.yul\":14011:14033   */\n      swap1\n      pop\n        /* \"#utility.yul\":14078:14079   */\n      0x01\n        /* \"#utility.yul\":14072:14076   */\n      dup3\n        /* \"#utility.yul\":14068:14080   */\n      and\n        /* \"#utility.yul\":14099:14117   */\n      dup1\n        /* \"#utility.yul\":14089:14170   */\n      tag_406\n      jumpi\n        /* \"#utility.yul\":14155:14159   */\n      0x7f\n        /* \"#utility.yul\":14147:14153   */\n      dup3\n        /* \"#utility.yul\":14143:14160   */\n      and\n        /* \"#utility.yul\":14133:14160   */\n      swap2\n      pop\n        /* \"#utility.yul\":14089:14170   */\n    tag_406:\n        /* \"#utility.yul\":14217:14219   */\n      0x20\n        /* \"#utility.yul\":14209:14215   */\n      dup3\n        /* \"#utility.yul\":14206:14220   */\n      lt\n        /* \"#utility.yul\":14186:14204   */\n      dup2\n        /* \"#utility.yul\":14183:14221   */\n      eq\n        /* \"#utility.yul\":14180:14264   */\n      iszero\n      tag_407\n      jumpi\n        /* \"#utility.yul\":14236:14254   */\n      tag_408\n      tag_409\n      jump\t// in\n    tag_408:\n        /* \"#utility.yul\":14180:14264   */\n    tag_407:\n        /* \"#utility.yul\":14001:14270   */\n      pop\n        /* \"#utility.yul\":13950:14270   */\n      swap2\n      swap1\n      pop\n      jump\t// out\n        /* \"#utility.yul\":14276:14557   */\n    tag_364:\n        /* \"#utility.yul\":14359:14386   */\n      tag_411\n        /* \"#utility.yul\":14381:14385   */\n      dup3\n        /* \"#utility.yul\":14359:14386   */\n      tag_323\n      jump\t// in\n    tag_411:\n        /* \"#utility.yul\":14351:14357   */\n      dup2\n        /* \"#utility.yul\":14347:14387   */\n      add\n        /* \"#utility.yul\":14489:14495   */\n      dup2\n        /* \"#utility.yul\":14477:14487   */\n      dup2\n        /* \"#utility.yul\":14474:14496   */\n      lt\n        /* \"#utility.yul\":14453:14471   */\n      0xffffffffffffffff\n        /* \"#utility.yul\":14441:14451   */\n      dup3\n        /* \"#utility.yul\":14438:14472   */\n      gt\n        /* \"#utility.yul\":14435:14497   */\n      or\n        /* \"#utility.yul\":14432:14520   */\n      iszero\n      tag_412\n      jumpi\n        /* \"#utility.yul\":14500:14518   */\n      tag_413\n      tag_369\n      jump\t// in\n    tag_413:\n        /* \"#utility.yul\":14432:14520   */\n    tag_412:\n        /* \"#utility.yul\":14540:14550   */\n      dup1\n        /* \"#utility.yul\":14536:14538   */\n      0x40\n        /* \"#utility.yul\":14529:14551   */\n      mstore\n        /* \"#utility.yul\":14319:14557   */\n      pop\n        /* \"#utility.yul\":14276:14557   */\n      pop\n      pop\n      jump\t// out\n        /* \"#utility.yul\":14563:14796   */\n    tag_78:\n        /* \"#utility.yul\":14602:14605   */\n      0x00\n        /* \"#utility.yul\":14625:14649   */\n      tag_415\n        /* \"#utility.yul\":14643:14648   */\n      dup3\n        /* \"#utility.yul\":14625:14649   */\n      tag_343\n      jump\t// in\n    tag_415:\n        /* \"#utility.yul\":14616:14649   */\n      swap2\n      pop\n        /* \"#utility.yul\":14671:14737   */\n      0xffffffffffffffffffffffffffffffffffffffffffffffffffffffffffffffff\n        /* \"#utility.yul\":14664:14669   */\n      dup3\n        /* \"#utility.yul\":14661:14738   */\n      eq\n        /* \"#utility.yul\":14658:14761   */\n      iszero\n      tag_416\n      jumpi\n        /* \"#utility.yul\":14741:14759   */\n      tag_417\n      tag_383\n      jump\t// in\n    tag_417:\n        /* \"#utility.yul\":14658:14761   */\n    tag_416:\n        /* \"#utility.yul\":14788:14789   */\n      0x01\n        /* \"#utility.yul\":14781:14786   */\n      dup3\n        /* \"#utility.yul\":14777:14790   */\n      add\n        /* \"#utility.yul\":14770:14790   */\n      swap1\n      pop\n        /* \"#utility.yul\":14563:14796   */\n      swap2\n      swap1\n      pop\n      jump\t// out\n        /* \"#utility.yul\":14802:14982   */\n    tag_383:\n        /* \"#utility.yul\":14850:14927   */\n      0x4e487b7100000000000000000000000000000000000000000000000000000000\n        /* \"#utility.yul\":14847:14848   */\n      0x00\n        /* \"#utility.yul\":14840:14928   */\n      mstore\n        /* \"#utility.yul\":14947:14951   */\n      0x11\n        /* \"#utility.yul\":14944:14945   */\n      0x04\n        /* \"#utility.yul\":14937:14952   */\n      mstore\n        /* \"#utility.yul\":14971:14975   */\n      0x24\n        /* \"#utility.yul\":14968:14969   */\n      0x00\n        /* \"#utility.yul\":14961:14976   */\n      revert\n        /* \"#utility.yul\":14988:15168   */\n    tag_409:\n        /* \"#utility.yul\":15036:15113   */\n      0x4e487b7100000000000000000000000000000000000000000000000000000000\n        /* \"#utility.yul\":15033:15034   */\n      0x00\n        /* \"#utility.yul\":15026:15114   */\n      mstore\n        /* \"#utility.yul\":15133:15137   */\n      0x22\n        /* \"#utility.yul\":15130:15131   */\n      0x04\n        /* \"#utility.yul\":15123:15138   */\n      mstore\n        /* \"#utility.yul\":15157:15161   */\n      0x24\n        /* \"#utility.yul\":15154:15155   */\n      0x00\n        /* \"#utility.yul\":15147:15162   */\n      revert\n        /* \"#utility.yul\":15174:15354   */\n    tag_124:\n        /* \"#utility.yul\":15222:15299   */\n      0x4e487b7100000000000000000000000000000000000000000000000000000000\n        /* \"#utility.yul\":15219:15220   */\n      0x00\n        /* \"#utility.yul\":15212:15300   */\n      mstore\n        /* \"#utility.yul\":15319:15323   */\n      0x31\n        /* \"#utility.yul\":15316:15317   */\n      0x04\n        /* \"#utility.yul\":15309:15324   */\n      mstore\n        /* \"#utility.yul\":15343:15347   */\n      0x24\n        /* \"#utility.yul\":15340:15341   */\n      0x00\n        /* \"#utility.yul\":15333:15348   */\n      revert\n        /* \"#utility.yul\":15360:15540   */\n    tag_64:\n        /* \"#utility.yul\":15408:15485   */\n      0x4e487b7100000000000000000000000000000000000000000000000000000000\n        /* \"#utility.yul\":15405:15406   */\n      0x00\n        /* \"#utility.yul\":15398:15486   */\n      mstore\n        /* \"#utility.yul\":15505:15509   */\n      0x32\n        /* \"#utility.yul\":15502:15503   */\n      0x04\n        /* \"#utility.yul\":15495:15510   */\n      mstore\n        /* \"#utility.yul\":15529:15533   */\n      0x24\n        /* \"#utility.yul\":15526:15527   */\n      0x00\n        /* \"#utility.yul\":15519:15534   */\n      revert\n        /* \"#utility.yul\":15546:15726   */\n    tag_369:\n        /* \"#utility.yul\":15594:15671   */\n      0x4e487b7100000000000000000000000000000000000000000000000000000000\n        /* \"#utility.yul\":15591:15592   */\n      0x00\n        /* \"#utility.yul\":15584:15672   */\n      mstore\n        /* \"#utility.yul\":15691:15695   */\n      0x41\n        /* \"#utility.yul\":15688:15689   */\n      0x04\n        /* \"#utility.yul\":15681:15696   */\n      mstore\n        /* \"#utility.yul\":15715:15719   */\n      0x24\n        /* \"#utility.yul\":15712:15713   */\n      0x00\n        /* \"#utility.yul\":15705:15720   */\n      revert\n        /* \"#utility.yul\":15732:15849   */\n    tag_246:\n        /* \"#utility.yul\":15841:15842   */\n      0x00\n        /* \"#utility.yul\":15838:15839   */\n      dup1\n        /* \"#utility.yul\":15831:15843   */\n      revert\n        /* \"#utility.yul\":15855:15972   */\n    tag_235:\n        /* \"#utility.yul\":15964:15965   */\n      0x00\n        /* \"#utility.yul\":15961:15962   */\n      dup1\n        /* \"#utility.yul\":15954:15966   */\n      revert\n        /* \"#utility.yul\":15978:16095   */\n    tag_262:\n        /* \"#utility.yul\":16087:16088   */\n      0x00\n        /* \"#utility.yul\":16084:16085   */\n      dup1\n        /* \"#utility.yul\":16077:16089   */\n      revert\n        /* \"#utility.yul\":16101:16218   */\n    tag_255:\n        /* \"#utility.yul\":16210:16211   */\n      0x00\n        /* \"#utility.yul\":16207:16208   */\n      dup1\n        /* \"#utility.yul\":16200:16212   */\n      revert\n        /* \"#utility.yul\":16224:16326   */\n    tag_323:\n        /* \"#utility.yul\":16265:16271   */\n      0x00\n        /* \"#utility.yul\":16316:16318   */\n      0x1f\n        /* \"#utility.yul\":16312:16319   */\n      not\n        /* \"#utility.yul\":16307:16309   */\n      0x1f\n        /* \"#utility.yul\":16300:16305   */\n      dup4\n        /* \"#utility.yul\":16296:16310   */\n      add\n        /* \"#utility.yul\":16292:16320   */\n      and\n        /* \"#utility.yul\":16282:16320   */\n      swap1\n      pop\n        /* \"#utility.yul\":16224:16326   */\n      swap2\n      swap1\n      pop\n      jump\t// out\n        /* \"#utility.yul\":16332:16454   */\n    tag_241:\n        /* \"#utility.yul\":16405:16429   */\n      tag_429\n        /* \"#utility.yul\":16423:16428   */\n      dup2\n        /* \"#utility.yul\":16405:16429   */\n      tag_296\n      jump\t// in\n    tag_429:\n        /* \"#utility.yul\":16398:16403   */\n      dup2\n        /* \"#utility.yul\":16395:16430   */\n      eq\n        /* \"#utility.yul\":16385:16448   */\n      tag_430\n      jumpi\n        /* \"#utility.yul\":16444:16445   */\n      0x00\n        /* \"#utility.yul\":16441:16442   */\n      dup1\n        /* \"#utility.yul\":16434:16446   */\n      revert\n        /* \"#utility.yul\":16385:16448   */\n    tag_430:\n        /* \"#utility.yul\":16332:16454   */\n      pop\n      jump\t// out\n        /* \"#utility.yul\":16460:16582   */\n    tag_251:\n        /* \"#utility.yul\":16533:16557   */\n      tag_432\n        /* \"#utility.yul\":16551:16556   */\n      dup2\n        /* \"#utility.yul\":16533:16557   */\n      tag_343\n      jump\t// in\n    tag_432:\n        /* \"#utility.yul\":16526:16531   */\n      dup2\n        /* \"#utility.yul\":16523:16558   */\n      eq\n        /* \"#utility.yul\":16513:16576   */\n      tag_433\n      jumpi\n        /* \"#utility.yul\":16572:16573   */\n      0x00\n        /* \"#utility.yul\":16569:16570   */\n      dup1\n        /* \"#utility.yul\":16562:16574   */\n      revert\n        /* \"#utility.yul\":16513:16576   */\n    tag_433:\n        /* \"#utility.yul\":16460:16582   */\n      pop\n      jump\t// out\n\n    auxdata: 0xa264697066735822122090a7adae18625655acbfff573c1a5747346216ebb193be048969721efb512ca864736f6c63430008070033\n}\n",
				"bytecode": {
					"linkReferences": {},
					"object": "608060405234801561001057600080fd5b506120c6806100206000396000f3fe608060405234801561001057600080fd5b50600436106100885760003560e01c806380c9419e1161005b57806380c9419e14610111578063904cc17514610148578063ac8b130014610178578063f8a02d841461019457610088565b8063377e6ff71461008d5780635102bc9d146100bd578063575b70d0146100d957806369ba1a75146100f5575b600080fd5b6100a760048036038101906100a2919061181e565b6101c4565b6040516100b49190611bc6565b60405180910390f35b6100d760048036038101906100d29190611930565b6103d3565b005b6100f360048036038101906100ee919061198c565b61041c565b005b61010f600480360381019061010a9190611903565b610719565b005b61012b60048036038101906101269190611903565b610ca3565b60405161013f989796959493929190611c03565b60405180910390f35b610162600480360381019061015d9190611903565b610dc3565b60405161016f9190611bc6565b60405180910390f35b610192600480360381019061018d9190611894565b611180565b005b6101ae60048036038101906101a9919061184b565b61157c565b6040516101bb9190611be8565b60405180910390f35b6060600360008373ffffffffffffffffffffffffffffffffffffffff1673ffffffffffffffffffffffffffffffffffffffff168152602001908152602001600020805480602002602001604051908101604052809291908181526020016000905b828210156103c85783829060005260206000209060080201604051806101000160405290816000820154815260200160018201805461026390611ea6565b80601f016020809104026020016040519081016040528092919081815260200182805461028f90611ea6565b80156102dc5780601f106102b1576101008083540402835291602001916102dc565b820191906000526020600020905b8154815290600101906020018083116102bf57829003601f168201915b50505050508152602001600282015481526020016003820160009054906101000a900473ffffffffffffffffffffffffffffffffffffffff1673ffffffffffffffffffffffffffffffffffffffff1673ffffffffffffffffffffffffffffffffffffffff1681526020016004820160009054906101000a900473ffffffffffffffffffffffffffffffffffffffff1673ffffffffffffffffffffffffffffffffffffffff1673ffffffffffffffffffffffffffffffffffffffff168152602001600582015481526020016006820154815260200160078201548152505081526020019060010190610225565b505050509050919050565b80600180846103e29190611df4565b815481106103f3576103f2611fdf565b5b90600052602060002090600802016001019080519060200190610417929190611614565b505050565b6000805b60046000868152602001908152602001600020805490508110156104e8578273ffffffffffffffffffffffffffffffffffffffff16600460006001886104669190611df4565b8152602001908152602001600020828154811061048657610485611fdf565b5b9060005260206000200160009054906101000a900473ffffffffffffffffffffffffffffffffffffffff1673ffffffffffffffffffffffffffffffffffffffff16146104d557600191506104e8565b80806104e090611f09565b915050610420565b50801561053c576001806001866104ff9190611df4565b815481106105105761050f611fdf565b5b906000526020600020906008020160050160008282546105309190611d44565b92505081905550610585565b600a6001808661054c9190611df4565b8154811061055d5761055c611fdf565b5b9060005260206000209060080201600501600082825461057d9190611d44565b925050819055505b600460006001866105969190611df4565b8152602001908152602001600020829080600181540180825580915050600190039060005260206000200160009091909190916101000a81548173ffffffffffffffffffffffffffffffffffffffff021916908373ffffffffffffffffffffffffffffffffffffffff16021790555082600180866106149190611df4565b8154811061062557610624611fdf565b5b9060005260206000209060080201600701546106419190611d44565b6001808661064f9190611df4565b815481106106605761065f611fdf565b5b906000526020600020906008020160070181905550600180856106839190611df4565b8154811061069457610693611fdf565b5b906000526020600020906008020160060154600180866106b49190611df4565b815481106106c5576106c4611fdf565b5b90600052602060002090600802016007015410610713576002600180866106ec9190611df4565b815481106106fd576106fc611fdf565b5b9060005260206000209060080201600201819055505b50505050565b6003600180836107299190611df4565b8154811061073a57610739611fdf565b5b9060005260206000209060080201600201819055506001600260006001815260200190815260200160002080549050141561083757600260006001815260200190815260200160002080548061079357610792611fb0565b5b60019003818190600052602060002090600802016000808201600090556001820160006107c0919061169a565b60028201600090556003820160006101000a81549073ffffffffffffffffffffffffffffffffffffffff02191690556004820160006101000a81549073ffffffffffffffffffffffffffffffffffffffff021916905560058201600090556006820160009055600782016000905550509055610b14565b60005b600160026000600181526020019081526020016000208054905061085e9190611df4565b811015610a4f57816002600060018152602001908152602001600020828154811061088c5761088b611fdf565b5b9060005260206000209060080201600001541415610a3c5760026000600181526020019081526020016000206001826108c59190611d44565b815481106108d6576108d5611fdf565b5b90600052602060002090600802016002600060018152602001908152602001600020828154811061090a57610909611fdf565b5b906000526020600020906008020160008201548160000155600182018160010190805461093690611ea6565b6109419291906116da565b50600282015481600201556003820160009054906101000a900473ffffffffffffffffffffffffffffffffffffffff168160030160006101000a81548173ffffffffffffffffffffffffffffffffffffffff021916908373ffffffffffffffffffffffffffffffffffffffff1602179055506004820160009054906101000a900473ffffffffffffffffffffffffffffffffffffffff168160040160006101000a81548173ffffffffffffffffffffffffffffffffffffffff021916908373ffffffffffffffffffffffffffffffffffffffff1602179055506005820154816005015560068201548160060155600782015481600701559050505b8080610a4790611f09565b91505061083a565b506002600060018152602001908152602001600020805480610a7457610a73611fb0565b5b6001900381819060005260206000209060080201600080820160009055600182016000610aa1919061169a565b60028201600090556003820160006101000a81549073ffffffffffffffffffffffffffffffffffffffff02191690556004820160006101000a81549073ffffffffffffffffffffffffffffffffffffffff0219169055600582016000905560068201600090556007820160009055505090555b600260006003815260200190815260200160002060018083610b369190611df4565b81548110610b4757610b46611fdf565b5b90600052602060002090600802019080600181540180825580915050600190039060005260206000209060080201600090919091909150600082015481600001556001820181600101908054610b9c90611ea6565b610ba79291906116da565b50600282015481600201556003820160009054906101000a900473ffffffffffffffffffffffffffffffffffffffff168160030160006101000a81548173ffffffffffffffffffffffffffffffffffffffff021916908373ffffffffffffffffffffffffffffffffffffffff1602179055506004820160009054906101000a900473ffffffffffffffffffffffffffffffffffffffff168160040160006101000a81548173ffffffffffffffffffffffffffffffffffffffff021916908373ffffffffffffffffffffffffffffffffffffffff160217905550600582015481600501556006820154816006015560078201548160070155505050565b60018181548110610cb357600080fd5b9060005260206000209060080201600091509050806000015490806001018054610cdc90611ea6565b80601f0160208091040260200160405190810160405280929190818152602001828054610d0890611ea6565b8015610d555780601f10610d2a57610100808354040283529160200191610d55565b820191906000526020600020905b815481529060010190602001808311610d3857829003601f168201915b5050505050908060020154908060030160009054906101000a900473ffffffffffffffffffffffffffffffffffffffff16908060040160009054906101000a900473ffffffffffffffffffffffffffffffffffffffff16908060050154908060060154908060070154905088565b60606000821415610f9e576001805480602002602001604051908101604052809291908181526020016000905b82821015610f9357838290600052602060002090600802016040518061010001604052908160008201548152602001600182018054610e2e90611ea6565b80601f0160208091040260200160405190810160405280929190818152602001828054610e5a90611ea6565b8015610ea75780601f10610e7c57610100808354040283529160200191610ea7565b820191906000526020600020905b815481529060010190602001808311610e8a57829003601f168201915b50505050508152602001600282015481526020016003820160009054906101000a900473ffffffffffffffffffffffffffffffffffffffff1673ffffffffffffffffffffffffffffffffffffffff1673ffffffffffffffffffffffffffffffffffffffff1681526020016004820160009054906101000a900473ffffffffffffffffffffffffffffffffffffffff1673ffffffffffffffffffffffffffffffffffffffff1673ffffffffffffffffffffffffffffffffffffffff168152602001600582015481526020016006820154815260200160078201548152505081526020019060010190610df0565b50505050905061117b565b60026000838152602001908152602001600020805480602002602001604051908101604052809291908181526020016000905b828210156111745783829060005260206000209060080201604051806101000160405290816000820154815260200160018201805461100f90611ea6565b80601f016020809104026020016040519081016040528092919081815260200182805461103b90611ea6565b80156110885780601f1061105d57610100808354040283529160200191611088565b820191906000526020600020905b81548152906001019060200180831161106b57829003601f168201915b50505050508152602001600282015481526020016003820160009054906101000a900473ffffffffffffffffffffffffffffffffffffffff1673ffffffffffffffffffffffffffffffffffffffff1673ffffffffffffffffffffffffffffffffffffffff1681526020016004820160009054906101000a900473ffffffffffffffffffffffffffffffffffffffff1673ffffffffffffffffffffffffffffffffffffffff1673ffffffffffffffffffffffffffffffffffffffff168152602001600582015481526020016006820154815260200160078201548152505081526020019060010190610fd1565b5050505090505b919050565b60008081548092919061119290611f09565b919050555060006040518061010001604052806000548152602001858152602001600181526020013373ffffffffffffffffffffffffffffffffffffffff1681526020018473ffffffffffffffffffffffffffffffffffffffff16815260200160008152602001838152602001600081525090506001819080600181540180825580915050600190039060005260206000209060080201600090919091909150600082015181600001556020820151816001019080519060200190611258929190611614565b506040820151816002015560608201518160030160006101000a81548173ffffffffffffffffffffffffffffffffffffffff021916908373ffffffffffffffffffffffffffffffffffffffff16021790555060808201518160040160006101000a81548173ffffffffffffffffffffffffffffffffffffffff021916908373ffffffffffffffffffffffffffffffffffffffff16021790555060a0820151816005015560c0820151816006015560e0820151816007015550506002600060018152602001908152602001600020819080600181540180825580915050600190039060005260206000209060080201600090919091909150600082015181600001556020820151816001019080519060200190611375929190611614565b506040820151816002015560608201518160030160006101000a81548173ffffffffffffffffffffffffffffffffffffffff021916908373ffffffffffffffffffffffffffffffffffffffff16021790555060808201518160040160006101000a81548173ffffffffffffffffffffffffffffffffffffffff021916908373ffffffffffffffffffffffffffffffffffffffff16021790555060a0820151816005015560c0820151816006015560e082015181600701555050600360003373ffffffffffffffffffffffffffffffffffffffff1673ffffffffffffffffffffffffffffffffffffffff1681526020019081526020016000208190806001815401808255809150506001900390600052602060002090600802016000909190919091506000820151816000015560208201518160010190805190602001906114bd929190611614565b506040820151816002015560608201518160030160006101000a81548173ffffffffffffffffffffffffffffffffffffffff021916908373ffffffffffffffffffffffffffffffffffffffff16021790555060808201518160040160006101000a81548173ffffffffffffffffffffffffffffffffffffffff021916908373ffffffffffffffffffffffffffffffffffffffff16021790555060a0820151816005015560c0820151816006015560e08201518160070155505050505050565b6000808290506000805b82518110156116095760008382815181106115a4576115a3611fdf565b5b602001015160f81c60f81b60f81c60ff169050603081101580156115c9575060398111155b156115f5576030816115db9190611df4565b600a846115e89190611d9a565b6115f29190611d44565b92505b50808061160190611f09565b915050611586565b508092505050919050565b82805461162090611ea6565b90600052602060002090601f0160209004810192826116425760008555611689565b82601f1061165b57805160ff1916838001178555611689565b82800160010185558215611689579182015b8281111561168857825182559160200191906001019061166d565b5b5090506116969190611767565b5090565b5080546116a690611ea6565b6000825580601f106116b857506116d7565b601f0160209004906000526020600020908101906116d69190611767565b5b50565b8280546116e690611ea6565b90600052602060002090601f0160209004810192826117085760008555611756565b82601f106117195780548555611756565b8280016001018555821561175657600052602060002091601f016020900482015b8281111561175557825482559160010191906001019061173a565b5b5090506117639190611767565b5090565b5b80821115611780576000816000905550600101611768565b5090565b600061179761179284611cad565b611c88565b9050828152602081018484840111156117b3576117b2612042565b5b6117be848285611e64565b509392505050565b6000813590506117d581612062565b92915050565b600082601f8301126117f0576117ef61203d565b5b8135611800848260208601611784565b91505092915050565b60008135905061181881612079565b92915050565b6000602082840312156118345761183361204c565b5b6000611842848285016117c6565b91505092915050565b6000602082840312156118615761186061204c565b5b600082013567ffffffffffffffff81111561187f5761187e612047565b5b61188b848285016117db565b91505092915050565b6000806000606084860312156118ad576118ac61204c565b5b600084013567ffffffffffffffff8111156118cb576118ca612047565b5b6118d7868287016117db565b93505060206118e8868287016117c6565b92505060406118f986828701611809565b9150509250925092565b6000602082840312156119195761191861204c565b5b600061192784828501611809565b91505092915050565b600080604083850312156119475761194661204c565b5b600061195585828601611809565b925050602083013567ffffffffffffffff81111561197657611975612047565b5b611982858286016117db565b9150509250929050565b6000806000606084860312156119a5576119a461204c565b5b60006119b386828701611809565b93505060206119c486828701611809565b92505060406119d5868287016117c6565b9150509250925092565b60006119eb8383611af8565b905092915050565b6119fc81611e28565b82525050565b611a0b81611e28565b82525050565b6000611a1c82611cee565b611a268185611d11565b935083602082028501611a3885611cde565b8060005b85811015611a745784840389528151611a5585826119df565b9450611a6083611d04565b925060208a01995050600181019050611a3c565b50829750879550505050505092915050565b6000611a9182611cf9565b611a9b8185611d22565b9350611aab818560208601611e73565b611ab481612051565b840191505092915050565b6000611aca82611cf9565b611ad48185611d33565b9350611ae4818560208601611e73565b611aed81612051565b840191505092915050565b600061010083016000830151611b116000860182611ba8565b5060208301518482036020860152611b298282611a86565b9150506040830151611b3e6040860182611ba8565b506060830151611b5160608601826119f3565b506080830151611b6460808601826119f3565b5060a0830151611b7760a0860182611ba8565b5060c0830151611b8a60c0860182611ba8565b5060e0830151611b9d60e0860182611ba8565b508091505092915050565b611bb181611e5a565b82525050565b611bc081611e5a565b82525050565b60006020820190508181036000830152611be08184611a11565b905092915050565b6000602082019050611bfd6000830184611bb7565b92915050565b600061010082019050611c19600083018b611bb7565b8181036020830152611c2b818a611abf565b9050611c3a6040830189611bb7565b611c476060830188611a02565b611c546080830187611a02565b611c6160a0830186611bb7565b611c6e60c0830185611bb7565b611c7b60e0830184611bb7565b9998505050505050505050565b6000611c92611ca3565b9050611c9e8282611ed8565b919050565b6000604051905090565b600067ffffffffffffffff821115611cc857611cc761200e565b5b611cd182612051565b9050602081019050919050565b6000819050602082019050919050565b600081519050919050565b600081519050919050565b6000602082019050919050565b600082825260208201905092915050565b600082825260208201905092915050565b600082825260208201905092915050565b6000611d4f82611e5a565b9150611d5a83611e5a565b9250827fffffffffffffffffffffffffffffffffffffffffffffffffffffffffffffffff03821115611d8f57611d8e611f52565b5b828201905092915050565b6000611da582611e5a565b9150611db083611e5a565b9250817fffffffffffffffffffffffffffffffffffffffffffffffffffffffffffffffff0483118215151615611de957611de8611f52565b5b828202905092915050565b6000611dff82611e5a565b9150611e0a83611e5a565b925082821015611e1d57611e1c611f52565b5b828203905092915050565b6000611e3382611e3a565b9050919050565b600073ffffffffffffffffffffffffffffffffffffffff82169050919050565b6000819050919050565b82818337600083830152505050565b60005b83811015611e91578082015181840152602081019050611e76565b83811115611ea0576000848401525b50505050565b60006002820490506001821680611ebe57607f821691505b60208210811415611ed257611ed1611f81565b5b50919050565b611ee182612051565b810181811067ffffffffffffffff82111715611f0057611eff61200e565b5b80604052505050565b6000611f1482611e5a565b91507fffffffffffffffffffffffffffffffffffffffffffffffffffffffffffffffff821415611f4757611f46611f52565b5b600182019050919050565b7f4e487b7100000000000000000000000000000000000000000000000000000000600052601160045260246000fd5b7f4e487b7100000000000000000000000000000000000000000000000000000000600052602260045260246000fd5b7f4e487b7100000000000000000000000000000000000000000000000000000000600052603160045260246000fd5b7f4e487b7100000000000000000000000000000000000000000000000000000000600052603260045260246000fd5b7f4e487b7100000000000000000000000000000000000000000000000000000000600052604160045260246000fd5b600080fd5b600080fd5b600080fd5b600080fd5b6000601f19601f8301169050919050565b61206b81611e28565b811461207657600080fd5b50565b61208281611e5a565b811461208d57600080fd5b5056fea264697066735822122090a7adae18625655acbfff573c1a5747346216ebb193be048969721efb512ca864736f6c63430008070033",
					"opcodes": "PUSH1 0x80 PUSH1 0x40 MSTORE CALLVALUE DUP1 ISZERO PUSH2 0x10 JUMPI PUSH1 0x0 DUP1 REVERT JUMPDEST POP PUSH2 0x20C6 DUP1 PUSH2 0x20 PUSH1 0x0 CODECOPY PUSH1 0x0 RETURN INVALID PUSH1 0x80 PUSH1 0x40 MSTORE CALLVALUE DUP1 ISZERO PUSH2 0x10 JUMPI PUSH1 0x0 DUP1 REVERT JUMPDEST POP PUSH1 0x4 CALLDATASIZE LT PUSH2 0x88 JUMPI PUSH1 0x0 CALLDATALOAD PUSH1 0xE0 SHR DUP1 PUSH4 0x80C9419E GT PUSH2 0x5B JUMPI DUP1 PUSH4 0x80C9419E EQ PUSH2 0x111 JUMPI DUP1 PUSH4 0x904CC175 EQ PUSH2 0x148 JUMPI DUP1 PUSH4 0xAC8B1300 EQ PUSH2 0x178 JUMPI DUP1 PUSH4 0xF8A02D84 EQ PUSH2 0x194 JUMPI PUSH2 0x88 JUMP JUMPDEST DUP1 PUSH4 0x377E6FF7 EQ PUSH2 0x8D JUMPI DUP1 PUSH4 0x5102BC9D EQ PUSH2 0xBD JUMPI DUP1 PUSH4 0x575B70D0 EQ PUSH2 0xD9 JUMPI DUP1 PUSH4 0x69BA1A75 EQ PUSH2 0xF5 JUMPI JUMPDEST PUSH1 0x0 DUP1 REVERT JUMPDEST PUSH2 0xA7 PUSH1 0x4 DUP1 CALLDATASIZE SUB DUP2 ADD SWAP1 PUSH2 0xA2 SWAP2 SWAP1 PUSH2 0x181E JUMP JUMPDEST PUSH2 0x1C4 JUMP JUMPDEST PUSH1 0x40 MLOAD PUSH2 0xB4 SWAP2 SWAP1 PUSH2 0x1BC6 JUMP JUMPDEST PUSH1 0x40 MLOAD DUP1 SWAP2 SUB SWAP1 RETURN JUMPDEST PUSH2 0xD7 PUSH1 0x4 DUP1 CALLDATASIZE SUB DUP2 ADD SWAP1 PUSH2 0xD2 SWAP2 SWAP1 PUSH2 0x1930 JUMP JUMPDEST PUSH2 0x3D3 JUMP JUMPDEST STOP JUMPDEST PUSH2 0xF3 PUSH1 0x4 DUP1 CALLDATASIZE SUB DUP2 ADD SWAP1 PUSH2 0xEE SWAP2 SWAP1 PUSH2 0x198C JUMP JUMPDEST PUSH2 0x41C JUMP JUMPDEST STOP JUMPDEST PUSH2 0x10F PUSH1 0x4 DUP1 CALLDATASIZE SUB DUP2 ADD SWAP1 PUSH2 0x10A SWAP2 SWAP1 PUSH2 0x1903 JUMP JUMPDEST PUSH2 0x719 JUMP JUMPDEST STOP JUMPDEST PUSH2 0x12B PUSH1 0x4 DUP1 CALLDATASIZE SUB DUP2 ADD SWAP1 PUSH2 0x126 SWAP2 SWAP1 PUSH2 0x1903 JUMP JUMPDEST PUSH2 0xCA3 JUMP JUMPDEST PUSH1 0x40 MLOAD PUSH2 0x13F SWAP9 SWAP8 SWAP7 SWAP6 SWAP5 SWAP4 SWAP3 SWAP2 SWAP1 PUSH2 0x1C03 JUMP JUMPDEST PUSH1 0x40 MLOAD DUP1 SWAP2 SUB SWAP1 RETURN JUMPDEST PUSH2 0x162 PUSH1 0x4 DUP1 CALLDATASIZE SUB DUP2 ADD SWAP1 PUSH2 0x15D SWAP2 SWAP1 PUSH2 0x1903 JUMP JUMPDEST PUSH2 0xDC3 JUMP JUMPDEST PUSH1 0x40 MLOAD PUSH2 0x16F SWAP2 SWAP1 PUSH2 0x1BC6 JUMP JUMPDEST PUSH1 0x40 MLOAD DUP1 SWAP2 SUB SWAP1 RETURN JUMPDEST PUSH2 0x192 PUSH1 0x4 DUP1 CALLDATASIZE SUB DUP2 ADD SWAP1 PUSH2 0x18D SWAP2 SWAP1 PUSH2 0x1894 JUMP JUMPDEST PUSH2 0x1180 JUMP JUMPDEST STOP JUMPDEST PUSH2 0x1AE PUSH1 0x4 DUP1 CALLDATASIZE SUB DUP2 ADD SWAP1 PUSH2 0x1A9 SWAP2 SWAP1 PUSH2 0x184B JUMP JUMPDEST PUSH2 0x157C JUMP JUMPDEST PUSH1 0x40 MLOAD PUSH2 0x1BB SWAP2 SWAP1 PUSH2 0x1BE8 JUMP JUMPDEST PUSH1 0x40 MLOAD DUP1 SWAP2 SUB SWAP1 RETURN JUMPDEST PUSH1 0x60 PUSH1 0x3 PUSH1 0x0 DUP4 PUSH20 0xFFFFFFFFFFFFFFFFFFFFFFFFFFFFFFFFFFFFFFFF AND PUSH20 0xFFFFFFFFFFFFFFFFFFFFFFFFFFFFFFFFFFFFFFFF AND DUP2 MSTORE PUSH1 0x20 ADD SWAP1 DUP2 MSTORE PUSH1 0x20 ADD PUSH1 0x0 KECCAK256 DUP1 SLOAD DUP1 PUSH1 0x20 MUL PUSH1 0x20 ADD PUSH1 0x40 MLOAD SWAP1 DUP2 ADD PUSH1 0x40 MSTORE DUP1 SWAP3 SWAP2 SWAP1 DUP2 DUP2 MSTORE PUSH1 0x20 ADD PUSH1 0x0 SWAP1 JUMPDEST DUP3 DUP3 LT ISZERO PUSH2 0x3C8 JUMPI DUP4 DUP3 SWAP1 PUSH1 0x0 MSTORE PUSH1 0x20 PUSH1 0x0 KECCAK256 SWAP1 PUSH1 0x8 MUL ADD PUSH1 0x40 MLOAD DUP1 PUSH2 0x100 ADD PUSH1 0x40 MSTORE SWAP1 DUP2 PUSH1 0x0 DUP3 ADD SLOAD DUP2 MSTORE PUSH1 0x20 ADD PUSH1 0x1 DUP3 ADD DUP1 SLOAD PUSH2 0x263 SWAP1 PUSH2 0x1EA6 JUMP JUMPDEST DUP1 PUSH1 0x1F ADD PUSH1 0x20 DUP1 SWAP2 DIV MUL PUSH1 0x20 ADD PUSH1 0x40 MLOAD SWAP1 DUP2 ADD PUSH1 0x40 MSTORE DUP1 SWAP3 SWAP2 SWAP1 DUP2 DUP2 MSTORE PUSH1 0x20 ADD DUP3 DUP1 SLOAD PUSH2 0x28F SWAP1 PUSH2 0x1EA6 JUMP JUMPDEST DUP1 ISZERO PUSH2 0x2DC JUMPI DUP1 PUSH1 0x1F LT PUSH2 0x2B1 JUMPI PUSH2 0x100 DUP1 DUP4 SLOAD DIV MUL DUP4 MSTORE SWAP2 PUSH1 0x20 ADD SWAP2 PUSH2 0x2DC JUMP JUMPDEST DUP3 ADD SWAP2 SWAP1 PUSH1 0x0 MSTORE PUSH1 0x20 PUSH1 0x0 KECCAK256 SWAP1 JUMPDEST DUP2 SLOAD DUP2 MSTORE SWAP1 PUSH1 0x1 ADD SWAP1 PUSH1 0x20 ADD DUP1 DUP4 GT PUSH2 0x2BF JUMPI DUP3 SWAP1 SUB PUSH1 0x1F AND DUP3 ADD SWAP2 JUMPDEST POP POP POP POP POP DUP2 MSTORE PUSH1 0x20 ADD PUSH1 0x2 DUP3 ADD SLOAD DUP2 MSTORE PUSH1 0x20 ADD PUSH1 0x3 DUP3 ADD PUSH1 0x0 SWAP1 SLOAD SWAP1 PUSH2 0x100 EXP SWAP1 DIV PUSH20 0xFFFFFFFFFFFFFFFFFFFFFFFFFFFFFFFFFFFFFFFF AND PUSH20 0xFFFFFFFFFFFFFFFFFFFFFFFFFFFFFFFFFFFFFFFF AND PUSH20 0xFFFFFFFFFFFFFFFFFFFFFFFFFFFFFFFFFFFFFFFF AND DUP2 MSTORE PUSH1 0x20 ADD PUSH1 0x4 DUP3 ADD PUSH1 0x0 SWAP1 SLOAD SWAP1 PUSH2 0x100 EXP SWAP1 DIV PUSH20 0xFFFFFFFFFFFFFFFFFFFFFFFFFFFFFFFFFFFFFFFF AND PUSH20 0xFFFFFFFFFFFFFFFFFFFFFFFFFFFFFFFFFFFFFFFF AND PUSH20 0xFFFFFFFFFFFFFFFFFFFFFFFFFFFFFFFFFFFFFFFF AND DUP2 MSTORE PUSH1 0x20 ADD PUSH1 0x5 DUP3 ADD SLOAD DUP2 MSTORE PUSH1 0x20 ADD PUSH1 0x6 DUP3 ADD SLOAD DUP2 MSTORE PUSH1 0x20 ADD PUSH1 0x7 DUP3 ADD SLOAD DUP2 MSTORE POP POP DUP2 MSTORE PUSH1 0x20 ADD SWAP1 PUSH1 0x1 ADD SWAP1 PUSH2 0x225 JUMP JUMPDEST POP POP POP POP SWAP1 POP SWAP2 SWAP1 POP JUMP JUMPDEST DUP1 PUSH1 0x1 DUP1 DUP5 PUSH2 0x3E2 SWAP2 SWAP1 PUSH2 0x1DF4 JUMP JUMPDEST DUP2 SLOAD DUP2 LT PUSH2 0x3F3 JUMPI PUSH2 0x3F2 PUSH2 0x1FDF JUMP JUMPDEST JUMPDEST SWAP1 PUSH1 0x0 MSTORE PUSH1 0x20 PUSH1 0x0 KECCAK256 SWAP1 PUSH1 0x8 MUL ADD PUSH1 0x1 ADD SWAP1 DUP1 MLOAD SWAP1 PUSH1 0x20 ADD SWAP1 PUSH2 0x417 SWAP3 SWAP2 SWAP1 PUSH2 0x1614 JUMP JUMPDEST POP POP POP JUMP JUMPDEST PUSH1 0x0 DUP1 JUMPDEST PUSH1 0x4 PUSH1 0x0 DUP7 DUP2 MSTORE PUSH1 0x20 ADD SWAP1 DUP2 MSTORE PUSH1 0x20 ADD PUSH1 0x0 KECCAK256 DUP1 SLOAD SWAP1 POP DUP2 LT ISZERO PUSH2 0x4E8 JUMPI DUP3 PUSH20 0xFFFFFFFFFFFFFFFFFFFFFFFFFFFFFFFFFFFFFFFF AND PUSH1 0x4 PUSH1 0x0 PUSH1 0x1 DUP9 PUSH2 0x466 SWAP2 SWAP1 PUSH2 0x1DF4 JUMP JUMPDEST DUP2 MSTORE PUSH1 0x20 ADD SWAP1 DUP2 MSTORE PUSH1 0x20 ADD PUSH1 0x0 KECCAK256 DUP3 DUP2 SLOAD DUP2 LT PUSH2 0x486 JUMPI PUSH2 0x485 PUSH2 0x1FDF JUMP JUMPDEST JUMPDEST SWAP1 PUSH1 0x0 MSTORE PUSH1 0x20 PUSH1 0x0 KECCAK256 ADD PUSH1 0x0 SWAP1 SLOAD SWAP1 PUSH2 0x100 EXP SWAP1 DIV PUSH20 0xFFFFFFFFFFFFFFFFFFFFFFFFFFFFFFFFFFFFFFFF AND PUSH20 0xFFFFFFFFFFFFFFFFFFFFFFFFFFFFFFFFFFFFFFFF AND EQ PUSH2 0x4D5 JUMPI PUSH1 0x1 SWAP2 POP PUSH2 0x4E8 JUMP JUMPDEST DUP1 DUP1 PUSH2 0x4E0 SWAP1 PUSH2 0x1F09 JUMP JUMPDEST SWAP2 POP POP PUSH2 0x420 JUMP JUMPDEST POP DUP1 ISZERO PUSH2 0x53C JUMPI PUSH1 0x1 DUP1 PUSH1 0x1 DUP7 PUSH2 0x4FF SWAP2 SWAP1 PUSH2 0x1DF4 JUMP JUMPDEST DUP2 SLOAD DUP2 LT PUSH2 0x510 JUMPI PUSH2 0x50F PUSH2 0x1FDF JUMP JUMPDEST JUMPDEST SWAP1 PUSH1 0x0 MSTORE PUSH1 0x20 PUSH1 0x0 KECCAK256 SWAP1 PUSH1 0x8 MUL ADD PUSH1 0x5 ADD PUSH1 0x0 DUP3 DUP3 SLOAD PUSH2 0x530 SWAP2 SWAP1 PUSH2 0x1D44 JUMP JUMPDEST SWAP3 POP POP DUP2 SWAP1 SSTORE POP PUSH2 0x585 JUMP JUMPDEST PUSH1 0xA PUSH1 0x1 DUP1 DUP7 PUSH2 0x54C SWAP2 SWAP1 PUSH2 0x1DF4 JUMP JUMPDEST DUP2 SLOAD DUP2 LT PUSH2 0x55D JUMPI PUSH2 0x55C PUSH2 0x1FDF JUMP JUMPDEST JUMPDEST SWAP1 PUSH1 0x0 MSTORE PUSH1 0x20 PUSH1 0x0 KECCAK256 SWAP1 PUSH1 0x8 MUL ADD PUSH1 0x5 ADD PUSH1 0x0 DUP3 DUP3 SLOAD PUSH2 0x57D SWAP2 SWAP1 PUSH2 0x1D44 JUMP JUMPDEST SWAP3 POP POP DUP2 SWAP1 SSTORE POP JUMPDEST PUSH1 0x4 PUSH1 0x0 PUSH1 0x1 DUP7 PUSH2 0x596 SWAP2 SWAP1 PUSH2 0x1DF4 JUMP JUMPDEST DUP2 MSTORE PUSH1 0x20 ADD SWAP1 DUP2 MSTORE PUSH1 0x20 ADD PUSH1 0x0 KECCAK256 DUP3 SWAP1 DUP1 PUSH1 0x1 DUP2 SLOAD ADD DUP1 DUP3 SSTORE DUP1 SWAP2 POP POP PUSH1 0x1 SWAP1 SUB SWAP1 PUSH1 0x0 MSTORE PUSH1 0x20 PUSH1 0x0 KECCAK256 ADD PUSH1 0x0 SWAP1 SWAP2 SWAP1 SWAP2 SWAP1 SWAP2 PUSH2 0x100 EXP DUP2 SLOAD DUP2 PUSH20 0xFFFFFFFFFFFFFFFFFFFFFFFFFFFFFFFFFFFFFFFF MUL NOT AND SWAP1 DUP4 PUSH20 0xFFFFFFFFFFFFFFFFFFFFFFFFFFFFFFFFFFFFFFFF AND MUL OR SWAP1 SSTORE POP DUP3 PUSH1 0x1 DUP1 DUP7 PUSH2 0x614 SWAP2 SWAP1 PUSH2 0x1DF4 JUMP JUMPDEST DUP2 SLOAD DUP2 LT PUSH2 0x625 JUMPI PUSH2 0x624 PUSH2 0x1FDF JUMP JUMPDEST JUMPDEST SWAP1 PUSH1 0x0 MSTORE PUSH1 0x20 PUSH1 0x0 KECCAK256 SWAP1 PUSH1 0x8 MUL ADD PUSH1 0x7 ADD SLOAD PUSH2 0x641 SWAP2 SWAP1 PUSH2 0x1D44 JUMP JUMPDEST PUSH1 0x1 DUP1 DUP7 PUSH2 0x64F SWAP2 SWAP1 PUSH2 0x1DF4 JUMP JUMPDEST DUP2 SLOAD DUP2 LT PUSH2 0x660 JUMPI PUSH2 0x65F PUSH2 0x1FDF JUMP JUMPDEST JUMPDEST SWAP1 PUSH1 0x0 MSTORE PUSH1 0x20 PUSH1 0x0 KECCAK256 SWAP1 PUSH1 0x8 MUL ADD PUSH1 0x7 ADD DUP2 SWAP1 SSTORE POP PUSH1 0x1 DUP1 DUP6 PUSH2 0x683 SWAP2 SWAP1 PUSH2 0x1DF4 JUMP JUMPDEST DUP2 SLOAD DUP2 LT PUSH2 0x694 JUMPI PUSH2 0x693 PUSH2 0x1FDF JUMP JUMPDEST JUMPDEST SWAP1 PUSH1 0x0 MSTORE PUSH1 0x20 PUSH1 0x0 KECCAK256 SWAP1 PUSH1 0x8 MUL ADD PUSH1 0x6 ADD SLOAD PUSH1 0x1 DUP1 DUP7 PUSH2 0x6B4 SWAP2 SWAP1 PUSH2 0x1DF4 JUMP JUMPDEST DUP2 SLOAD DUP2 LT PUSH2 0x6C5 JUMPI PUSH2 0x6C4 PUSH2 0x1FDF JUMP JUMPDEST JUMPDEST SWAP1 PUSH1 0x0 MSTORE PUSH1 0x20 PUSH1 0x0 KECCAK256 SWAP1 PUSH1 0x8 MUL ADD PUSH1 0x7 ADD SLOAD LT PUSH2 0x713 JUMPI PUSH1 0x2 PUSH1 0x1 DUP1 DUP7 PUSH2 0x6EC SWAP2 SWAP1 PUSH2 0x1DF4 JUMP JUMPDEST DUP2 SLOAD DUP2 LT PUSH2 0x6FD JUMPI PUSH2 0x6FC PUSH2 0x1FDF JUMP JUMPDEST JUMPDEST SWAP1 PUSH1 0x0 MSTORE PUSH1 0x20 PUSH1 0x0 KECCAK256 SWAP1 PUSH1 0x8 MUL ADD PUSH1 0x2 ADD DUP2 SWAP1 SSTORE POP JUMPDEST POP POP POP POP JUMP JUMPDEST PUSH1 0x3 PUSH1 0x1 DUP1 DUP4 PUSH2 0x729 SWAP2 SWAP1 PUSH2 0x1DF4 JUMP JUMPDEST DUP2 SLOAD DUP2 LT PUSH2 0x73A JUMPI PUSH2 0x739 PUSH2 0x1FDF JUMP JUMPDEST JUMPDEST SWAP1 PUSH1 0x0 MSTORE PUSH1 0x20 PUSH1 0x0 KECCAK256 SWAP1 PUSH1 0x8 MUL ADD PUSH1 0x2 ADD DUP2 SWAP1 SSTORE POP PUSH1 0x1 PUSH1 0x2 PUSH1 0x0 PUSH1 0x1 DUP2 MSTORE PUSH1 0x20 ADD SWAP1 DUP2 MSTORE PUSH1 0x20 ADD PUSH1 0x0 KECCAK256 DUP1 SLOAD SWAP1 POP EQ ISZERO PUSH2 0x837 JUMPI PUSH1 0x2 PUSH1 0x0 PUSH1 0x1 DUP2 MSTORE PUSH1 0x20 ADD SWAP1 DUP2 MSTORE PUSH1 0x20 ADD PUSH1 0x0 KECCAK256 DUP1 SLOAD DUP1 PUSH2 0x793 JUMPI PUSH2 0x792 PUSH2 0x1FB0 JUMP JUMPDEST JUMPDEST PUSH1 0x1 SWAP1 SUB DUP2 DUP2 SWAP1 PUSH1 0x0 MSTORE PUSH1 0x20 PUSH1 0x0 KECCAK256 SWAP1 PUSH1 0x8 MUL ADD PUSH1 0x0 DUP1 DUP3 ADD PUSH1 0x0 SWAP1 SSTORE PUSH1 0x1 DUP3 ADD PUSH1 0x0 PUSH2 0x7C0 SWAP2 SWAP1 PUSH2 0x169A JUMP JUMPDEST PUSH1 0x2 DUP3 ADD PUSH1 0x0 SWAP1 SSTORE PUSH1 0x3 DUP3 ADD PUSH1 0x0 PUSH2 0x100 EXP DUP2 SLOAD SWAP1 PUSH20 0xFFFFFFFFFFFFFFFFFFFFFFFFFFFFFFFFFFFFFFFF MUL NOT AND SWAP1 SSTORE PUSH1 0x4 DUP3 ADD PUSH1 0x0 PUSH2 0x100 EXP DUP2 SLOAD SWAP1 PUSH20 0xFFFFFFFFFFFFFFFFFFFFFFFFFFFFFFFFFFFFFFFF MUL NOT AND SWAP1 SSTORE PUSH1 0x5 DUP3 ADD PUSH1 0x0 SWAP1 SSTORE PUSH1 0x6 DUP3 ADD PUSH1 0x0 SWAP1 SSTORE PUSH1 0x7 DUP3 ADD PUSH1 0x0 SWAP1 SSTORE POP POP SWAP1 SSTORE PUSH2 0xB14 JUMP JUMPDEST PUSH1 0x0 JUMPDEST PUSH1 0x1 PUSH1 0x2 PUSH1 0x0 PUSH1 0x1 DUP2 MSTORE PUSH1 0x20 ADD SWAP1 DUP2 MSTORE PUSH1 0x20 ADD PUSH1 0x0 KECCAK256 DUP1 SLOAD SWAP1 POP PUSH2 0x85E SWAP2 SWAP1 PUSH2 0x1DF4 JUMP JUMPDEST DUP2 LT ISZERO PUSH2 0xA4F JUMPI DUP2 PUSH1 0x2 PUSH1 0x0 PUSH1 0x1 DUP2 MSTORE PUSH1 0x20 ADD SWAP1 DUP2 MSTORE PUSH1 0x20 ADD PUSH1 0x0 KECCAK256 DUP3 DUP2 SLOAD DUP2 LT PUSH2 0x88C JUMPI PUSH2 0x88B PUSH2 0x1FDF JUMP JUMPDEST JUMPDEST SWAP1 PUSH1 0x0 MSTORE PUSH1 0x20 PUSH1 0x0 KECCAK256 SWAP1 PUSH1 0x8 MUL ADD PUSH1 0x0 ADD SLOAD EQ ISZERO PUSH2 0xA3C JUMPI PUSH1 0x2 PUSH1 0x0 PUSH1 0x1 DUP2 MSTORE PUSH1 0x20 ADD SWAP1 DUP2 MSTORE PUSH1 0x20 ADD PUSH1 0x0 KECCAK256 PUSH1 0x1 DUP3 PUSH2 0x8C5 SWAP2 SWAP1 PUSH2 0x1D44 JUMP JUMPDEST DUP2 SLOAD DUP2 LT PUSH2 0x8D6 JUMPI PUSH2 0x8D5 PUSH2 0x1FDF JUMP JUMPDEST JUMPDEST SWAP1 PUSH1 0x0 MSTORE PUSH1 0x20 PUSH1 0x0 KECCAK256 SWAP1 PUSH1 0x8 MUL ADD PUSH1 0x2 PUSH1 0x0 PUSH1 0x1 DUP2 MSTORE PUSH1 0x20 ADD SWAP1 DUP2 MSTORE PUSH1 0x20 ADD PUSH1 0x0 KECCAK256 DUP3 DUP2 SLOAD DUP2 LT PUSH2 0x90A JUMPI PUSH2 0x909 PUSH2 0x1FDF JUMP JUMPDEST JUMPDEST SWAP1 PUSH1 0x0 MSTORE PUSH1 0x20 PUSH1 0x0 KECCAK256 SWAP1 PUSH1 0x8 MUL ADD PUSH1 0x0 DUP3 ADD SLOAD DUP2 PUSH1 0x0 ADD SSTORE PUSH1 0x1 DUP3 ADD DUP2 PUSH1 0x1 ADD SWAP1 DUP1 SLOAD PUSH2 0x936 SWAP1 PUSH2 0x1EA6 JUMP JUMPDEST PUSH2 0x941 SWAP3 SWAP2 SWAP1 PUSH2 0x16DA JUMP JUMPDEST POP PUSH1 0x2 DUP3 ADD SLOAD DUP2 PUSH1 0x2 ADD SSTORE PUSH1 0x3 DUP3 ADD PUSH1 0x0 SWAP1 SLOAD SWAP1 PUSH2 0x100 EXP SWAP1 DIV PUSH20 0xFFFFFFFFFFFFFFFFFFFFFFFFFFFFFFFFFFFFFFFF AND DUP2 PUSH1 0x3 ADD PUSH1 0x0 PUSH2 0x100 EXP DUP2 SLOAD DUP2 PUSH20 0xFFFFFFFFFFFFFFFFFFFFFFFFFFFFFFFFFFFFFFFF MUL NOT AND SWAP1 DUP4 PUSH20 0xFFFFFFFFFFFFFFFFFFFFFFFFFFFFFFFFFFFFFFFF AND MUL OR SWAP1 SSTORE POP PUSH1 0x4 DUP3 ADD PUSH1 0x0 SWAP1 SLOAD SWAP1 PUSH2 0x100 EXP SWAP1 DIV PUSH20 0xFFFFFFFFFFFFFFFFFFFFFFFFFFFFFFFFFFFFFFFF AND DUP2 PUSH1 0x4 ADD PUSH1 0x0 PUSH2 0x100 EXP DUP2 SLOAD DUP2 PUSH20 0xFFFFFFFFFFFFFFFFFFFFFFFFFFFFFFFFFFFFFFFF MUL NOT AND SWAP1 DUP4 PUSH20 0xFFFFFFFFFFFFFFFFFFFFFFFFFFFFFFFFFFFFFFFF AND MUL OR SWAP1 SSTORE POP PUSH1 0x5 DUP3 ADD SLOAD DUP2 PUSH1 0x5 ADD SSTORE PUSH1 0x6 DUP3 ADD SLOAD DUP2 PUSH1 0x6 ADD SSTORE PUSH1 0x7 DUP3 ADD SLOAD DUP2 PUSH1 0x7 ADD SSTORE SWAP1 POP POP JUMPDEST DUP1 DUP1 PUSH2 0xA47 SWAP1 PUSH2 0x1F09 JUMP JUMPDEST SWAP2 POP POP PUSH2 0x83A JUMP JUMPDEST POP PUSH1 0x2 PUSH1 0x0 PUSH1 0x1 DUP2 MSTORE PUSH1 0x20 ADD SWAP1 DUP2 MSTORE PUSH1 0x20 ADD PUSH1 0x0 KECCAK256 DUP1 SLOAD DUP1 PUSH2 0xA74 JUMPI PUSH2 0xA73 PUSH2 0x1FB0 JUMP JUMPDEST JUMPDEST PUSH1 0x1 SWAP1 SUB DUP2 DUP2 SWAP1 PUSH1 0x0 MSTORE PUSH1 0x20 PUSH1 0x0 KECCAK256 SWAP1 PUSH1 0x8 MUL ADD PUSH1 0x0 DUP1 DUP3 ADD PUSH1 0x0 SWAP1 SSTORE PUSH1 0x1 DUP3 ADD PUSH1 0x0 PUSH2 0xAA1 SWAP2 SWAP1 PUSH2 0x169A JUMP JUMPDEST PUSH1 0x2 DUP3 ADD PUSH1 0x0 SWAP1 SSTORE PUSH1 0x3 DUP3 ADD PUSH1 0x0 PUSH2 0x100 EXP DUP2 SLOAD SWAP1 PUSH20 0xFFFFFFFFFFFFFFFFFFFFFFFFFFFFFFFFFFFFFFFF MUL NOT AND SWAP1 SSTORE PUSH1 0x4 DUP3 ADD PUSH1 0x0 PUSH2 0x100 EXP DUP2 SLOAD SWAP1 PUSH20 0xFFFFFFFFFFFFFFFFFFFFFFFFFFFFFFFFFFFFFFFF MUL NOT AND SWAP1 SSTORE PUSH1 0x5 DUP3 ADD PUSH1 0x0 SWAP1 SSTORE PUSH1 0x6 DUP3 ADD PUSH1 0x0 SWAP1 SSTORE PUSH1 0x7 DUP3 ADD PUSH1 0x0 SWAP1 SSTORE POP POP SWAP1 SSTORE JUMPDEST PUSH1 0x2 PUSH1 0x0 PUSH1 0x3 DUP2 MSTORE PUSH1 0x20 ADD SWAP1 DUP2 MSTORE PUSH1 0x20 ADD PUSH1 0x0 KECCAK256 PUSH1 0x1 DUP1 DUP4 PUSH2 0xB36 SWAP2 SWAP1 PUSH2 0x1DF4 JUMP JUMPDEST DUP2 SLOAD DUP2 LT PUSH2 0xB47 JUMPI PUSH2 0xB46 PUSH2 0x1FDF JUMP JUMPDEST JUMPDEST SWAP1 PUSH1 0x0 MSTORE PUSH1 0x20 PUSH1 0x0 KECCAK256 SWAP1 PUSH1 0x8 MUL ADD SWAP1 DUP1 PUSH1 0x1 DUP2 SLOAD ADD DUP1 DUP3 SSTORE DUP1 SWAP2 POP POP PUSH1 0x1 SWAP1 SUB SWAP1 PUSH1 0x0 MSTORE PUSH1 0x20 PUSH1 0x0 KECCAK256 SWAP1 PUSH1 0x8 MUL ADD PUSH1 0x0 SWAP1 SWAP2 SWAP1 SWAP2 SWAP1 SWAP2 POP PUSH1 0x0 DUP3 ADD SLOAD DUP2 PUSH1 0x0 ADD SSTORE PUSH1 0x1 DUP3 ADD DUP2 PUSH1 0x1 ADD SWAP1 DUP1 SLOAD PUSH2 0xB9C SWAP1 PUSH2 0x1EA6 JUMP JUMPDEST PUSH2 0xBA7 SWAP3 SWAP2 SWAP1 PUSH2 0x16DA JUMP JUMPDEST POP PUSH1 0x2 DUP3 ADD SLOAD DUP2 PUSH1 0x2 ADD SSTORE PUSH1 0x3 DUP3 ADD PUSH1 0x0 SWAP1 SLOAD SWAP1 PUSH2 0x100 EXP SWAP1 DIV PUSH20 0xFFFFFFFFFFFFFFFFFFFFFFFFFFFFFFFFFFFFFFFF AND DUP2 PUSH1 0x3 ADD PUSH1 0x0 PUSH2 0x100 EXP DUP2 SLOAD DUP2 PUSH20 0xFFFFFFFFFFFFFFFFFFFFFFFFFFFFFFFFFFFFFFFF MUL NOT AND SWAP1 DUP4 PUSH20 0xFFFFFFFFFFFFFFFFFFFFFFFFFFFFFFFFFFFFFFFF AND MUL OR SWAP1 SSTORE POP PUSH1 0x4 DUP3 ADD PUSH1 0x0 SWAP1 SLOAD SWAP1 PUSH2 0x100 EXP SWAP1 DIV PUSH20 0xFFFFFFFFFFFFFFFFFFFFFFFFFFFFFFFFFFFFFFFF AND DUP2 PUSH1 0x4 ADD PUSH1 0x0 PUSH2 0x100 EXP DUP2 SLOAD DUP2 PUSH20 0xFFFFFFFFFFFFFFFFFFFFFFFFFFFFFFFFFFFFFFFF MUL NOT AND SWAP1 DUP4 PUSH20 0xFFFFFFFFFFFFFFFFFFFFFFFFFFFFFFFFFFFFFFFF AND MUL OR SWAP1 SSTORE POP PUSH1 0x5 DUP3 ADD SLOAD DUP2 PUSH1 0x5 ADD SSTORE PUSH1 0x6 DUP3 ADD SLOAD DUP2 PUSH1 0x6 ADD SSTORE PUSH1 0x7 DUP3 ADD SLOAD DUP2 PUSH1 0x7 ADD SSTORE POP POP POP JUMP JUMPDEST PUSH1 0x1 DUP2 DUP2 SLOAD DUP2 LT PUSH2 0xCB3 JUMPI PUSH1 0x0 DUP1 REVERT JUMPDEST SWAP1 PUSH1 0x0 MSTORE PUSH1 0x20 PUSH1 0x0 KECCAK256 SWAP1 PUSH1 0x8 MUL ADD PUSH1 0x0 SWAP2 POP SWAP1 POP DUP1 PUSH1 0x0 ADD SLOAD SWAP1 DUP1 PUSH1 0x1 ADD DUP1 SLOAD PUSH2 0xCDC SWAP1 PUSH2 0x1EA6 JUMP JUMPDEST DUP1 PUSH1 0x1F ADD PUSH1 0x20 DUP1 SWAP2 DIV MUL PUSH1 0x20 ADD PUSH1 0x40 MLOAD SWAP1 DUP2 ADD PUSH1 0x40 MSTORE DUP1 SWAP3 SWAP2 SWAP1 DUP2 DUP2 MSTORE PUSH1 0x20 ADD DUP3 DUP1 SLOAD PUSH2 0xD08 SWAP1 PUSH2 0x1EA6 JUMP JUMPDEST DUP1 ISZERO PUSH2 0xD55 JUMPI DUP1 PUSH1 0x1F LT PUSH2 0xD2A JUMPI PUSH2 0x100 DUP1 DUP4 SLOAD DIV MUL DUP4 MSTORE SWAP2 PUSH1 0x20 ADD SWAP2 PUSH2 0xD55 JUMP JUMPDEST DUP3 ADD SWAP2 SWAP1 PUSH1 0x0 MSTORE PUSH1 0x20 PUSH1 0x0 KECCAK256 SWAP1 JUMPDEST DUP2 SLOAD DUP2 MSTORE SWAP1 PUSH1 0x1 ADD SWAP1 PUSH1 0x20 ADD DUP1 DUP4 GT PUSH2 0xD38 JUMPI DUP3 SWAP1 SUB PUSH1 0x1F AND DUP3 ADD SWAP2 JUMPDEST POP POP POP POP POP SWAP1 DUP1 PUSH1 0x2 ADD SLOAD SWAP1 DUP1 PUSH1 0x3 ADD PUSH1 0x0 SWAP1 SLOAD SWAP1 PUSH2 0x100 EXP SWAP1 DIV PUSH20 0xFFFFFFFFFFFFFFFFFFFFFFFFFFFFFFFFFFFFFFFF AND SWAP1 DUP1 PUSH1 0x4 ADD PUSH1 0x0 SWAP1 SLOAD SWAP1 PUSH2 0x100 EXP SWAP1 DIV PUSH20 0xFFFFFFFFFFFFFFFFFFFFFFFFFFFFFFFFFFFFFFFF AND SWAP1 DUP1 PUSH1 0x5 ADD SLOAD SWAP1 DUP1 PUSH1 0x6 ADD SLOAD SWAP1 DUP1 PUSH1 0x7 ADD SLOAD SWAP1 POP DUP9 JUMP JUMPDEST PUSH1 0x60 PUSH1 0x0 DUP3 EQ ISZERO PUSH2 0xF9E JUMPI PUSH1 0x1 DUP1 SLOAD DUP1 PUSH1 0x20 MUL PUSH1 0x20 ADD PUSH1 0x40 MLOAD SWAP1 DUP2 ADD PUSH1 0x40 MSTORE DUP1 SWAP3 SWAP2 SWAP1 DUP2 DUP2 MSTORE PUSH1 0x20 ADD PUSH1 0x0 SWAP1 JUMPDEST DUP3 DUP3 LT ISZERO PUSH2 0xF93 JUMPI DUP4 DUP3 SWAP1 PUSH1 0x0 MSTORE PUSH1 0x20 PUSH1 0x0 KECCAK256 SWAP1 PUSH1 0x8 MUL ADD PUSH1 0x40 MLOAD DUP1 PUSH2 0x100 ADD PUSH1 0x40 MSTORE SWAP1 DUP2 PUSH1 0x0 DUP3 ADD SLOAD DUP2 MSTORE PUSH1 0x20 ADD PUSH1 0x1 DUP3 ADD DUP1 SLOAD PUSH2 0xE2E SWAP1 PUSH2 0x1EA6 JUMP JUMPDEST DUP1 PUSH1 0x1F ADD PUSH1 0x20 DUP1 SWAP2 DIV MUL PUSH1 0x20 ADD PUSH1 0x40 MLOAD SWAP1 DUP2 ADD PUSH1 0x40 MSTORE DUP1 SWAP3 SWAP2 SWAP1 DUP2 DUP2 MSTORE PUSH1 0x20 ADD DUP3 DUP1 SLOAD PUSH2 0xE5A SWAP1 PUSH2 0x1EA6 JUMP JUMPDEST DUP1 ISZERO PUSH2 0xEA7 JUMPI DUP1 PUSH1 0x1F LT PUSH2 0xE7C JUMPI PUSH2 0x100 DUP1 DUP4 SLOAD DIV MUL DUP4 MSTORE SWAP2 PUSH1 0x20 ADD SWAP2 PUSH2 0xEA7 JUMP JUMPDEST DUP3 ADD SWAP2 SWAP1 PUSH1 0x0 MSTORE PUSH1 0x20 PUSH1 0x0 KECCAK256 SWAP1 JUMPDEST DUP2 SLOAD DUP2 MSTORE SWAP1 PUSH1 0x1 ADD SWAP1 PUSH1 0x20 ADD DUP1 DUP4 GT PUSH2 0xE8A JUMPI DUP3 SWAP1 SUB PUSH1 0x1F AND DUP3 ADD SWAP2 JUMPDEST POP POP POP POP POP DUP2 MSTORE PUSH1 0x20 ADD PUSH1 0x2 DUP3 ADD SLOAD DUP2 MSTORE PUSH1 0x20 ADD PUSH1 0x3 DUP3 ADD PUSH1 0x0 SWAP1 SLOAD SWAP1 PUSH2 0x100 EXP SWAP1 DIV PUSH20 0xFFFFFFFFFFFFFFFFFFFFFFFFFFFFFFFFFFFFFFFF AND PUSH20 0xFFFFFFFFFFFFFFFFFFFFFFFFFFFFFFFFFFFFFFFF AND PUSH20 0xFFFFFFFFFFFFFFFFFFFFFFFFFFFFFFFFFFFFFFFF AND DUP2 MSTORE PUSH1 0x20 ADD PUSH1 0x4 DUP3 ADD PUSH1 0x0 SWAP1 SLOAD SWAP1 PUSH2 0x100 EXP SWAP1 DIV PUSH20 0xFFFFFFFFFFFFFFFFFFFFFFFFFFFFFFFFFFFFFFFF AND PUSH20 0xFFFFFFFFFFFFFFFFFFFFFFFFFFFFFFFFFFFFFFFF AND PUSH20 0xFFFFFFFFFFFFFFFFFFFFFFFFFFFFFFFFFFFFFFFF AND DUP2 MSTORE PUSH1 0x20 ADD PUSH1 0x5 DUP3 ADD SLOAD DUP2 MSTORE PUSH1 0x20 ADD PUSH1 0x6 DUP3 ADD SLOAD DUP2 MSTORE PUSH1 0x20 ADD PUSH1 0x7 DUP3 ADD SLOAD DUP2 MSTORE POP POP DUP2 MSTORE PUSH1 0x20 ADD SWAP1 PUSH1 0x1 ADD SWAP1 PUSH2 0xDF0 JUMP JUMPDEST POP POP POP POP SWAP1 POP PUSH2 0x117B JUMP JUMPDEST PUSH1 0x2 PUSH1 0x0 DUP4 DUP2 MSTORE PUSH1 0x20 ADD SWAP1 DUP2 MSTORE PUSH1 0x20 ADD PUSH1 0x0 KECCAK256 DUP1 SLOAD DUP1 PUSH1 0x20 MUL PUSH1 0x20 ADD PUSH1 0x40 MLOAD SWAP1 DUP2 ADD PUSH1 0x40 MSTORE DUP1 SWAP3 SWAP2 SWAP1 DUP2 DUP2 MSTORE PUSH1 0x20 ADD PUSH1 0x0 SWAP1 JUMPDEST DUP3 DUP3 LT ISZERO PUSH2 0x1174 JUMPI DUP4 DUP3 SWAP1 PUSH1 0x0 MSTORE PUSH1 0x20 PUSH1 0x0 KECCAK256 SWAP1 PUSH1 0x8 MUL ADD PUSH1 0x40 MLOAD DUP1 PUSH2 0x100 ADD PUSH1 0x40 MSTORE SWAP1 DUP2 PUSH1 0x0 DUP3 ADD SLOAD DUP2 MSTORE PUSH1 0x20 ADD PUSH1 0x1 DUP3 ADD DUP1 SLOAD PUSH2 0x100F SWAP1 PUSH2 0x1EA6 JUMP JUMPDEST DUP1 PUSH1 0x1F ADD PUSH1 0x20 DUP1 SWAP2 DIV MUL PUSH1 0x20 ADD PUSH1 0x40 MLOAD SWAP1 DUP2 ADD PUSH1 0x40 MSTORE DUP1 SWAP3 SWAP2 SWAP1 DUP2 DUP2 MSTORE PUSH1 0x20 ADD DUP3 DUP1 SLOAD PUSH2 0x103B SWAP1 PUSH2 0x1EA6 JUMP JUMPDEST DUP1 ISZERO PUSH2 0x1088 JUMPI DUP1 PUSH1 0x1F LT PUSH2 0x105D JUMPI PUSH2 0x100 DUP1 DUP4 SLOAD DIV MUL DUP4 MSTORE SWAP2 PUSH1 0x20 ADD SWAP2 PUSH2 0x1088 JUMP JUMPDEST DUP3 ADD SWAP2 SWAP1 PUSH1 0x0 MSTORE PUSH1 0x20 PUSH1 0x0 KECCAK256 SWAP1 JUMPDEST DUP2 SLOAD DUP2 MSTORE SWAP1 PUSH1 0x1 ADD SWAP1 PUSH1 0x20 ADD DUP1 DUP4 GT PUSH2 0x106B JUMPI DUP3 SWAP1 SUB PUSH1 0x1F AND DUP3 ADD SWAP2 JUMPDEST POP POP POP POP POP DUP2 MSTORE PUSH1 0x20 ADD PUSH1 0x2 DUP3 ADD SLOAD DUP2 MSTORE PUSH1 0x20 ADD PUSH1 0x3 DUP3 ADD PUSH1 0x0 SWAP1 SLOAD SWAP1 PUSH2 0x100 EXP SWAP1 DIV PUSH20 0xFFFFFFFFFFFFFFFFFFFFFFFFFFFFFFFFFFFFFFFF AND PUSH20 0xFFFFFFFFFFFFFFFFFFFFFFFFFFFFFFFFFFFFFFFF AND PUSH20 0xFFFFFFFFFFFFFFFFFFFFFFFFFFFFFFFFFFFFFFFF AND DUP2 MSTORE PUSH1 0x20 ADD PUSH1 0x4 DUP3 ADD PUSH1 0x0 SWAP1 SLOAD SWAP1 PUSH2 0x100 EXP SWAP1 DIV PUSH20 0xFFFFFFFFFFFFFFFFFFFFFFFFFFFFFFFFFFFFFFFF AND PUSH20 0xFFFFFFFFFFFFFFFFFFFFFFFFFFFFFFFFFFFFFFFF AND PUSH20 0xFFFFFFFFFFFFFFFFFFFFFFFFFFFFFFFFFFFFFFFF AND DUP2 MSTORE PUSH1 0x20 ADD PUSH1 0x5 DUP3 ADD SLOAD DUP2 MSTORE PUSH1 0x20 ADD PUSH1 0x6 DUP3 ADD SLOAD DUP2 MSTORE PUSH1 0x20 ADD PUSH1 0x7 DUP3 ADD SLOAD DUP2 MSTORE POP POP DUP2 MSTORE PUSH1 0x20 ADD SWAP1 PUSH1 0x1 ADD SWAP1 PUSH2 0xFD1 JUMP JUMPDEST POP POP POP POP SWAP1 POP JUMPDEST SWAP2 SWAP1 POP JUMP JUMPDEST PUSH1 0x0 DUP1 DUP2 SLOAD DUP1 SWAP3 SWAP2 SWAP1 PUSH2 0x1192 SWAP1 PUSH2 0x1F09 JUMP JUMPDEST SWAP2 SWAP1 POP SSTORE POP PUSH1 0x0 PUSH1 0x40 MLOAD DUP1 PUSH2 0x100 ADD PUSH1 0x40 MSTORE DUP1 PUSH1 0x0 SLOAD DUP2 MSTORE PUSH1 0x20 ADD DUP6 DUP2 MSTORE PUSH1 0x20 ADD PUSH1 0x1 DUP2 MSTORE PUSH1 0x20 ADD CALLER PUSH20 0xFFFFFFFFFFFFFFFFFFFFFFFFFFFFFFFFFFFFFFFF AND DUP2 MSTORE PUSH1 0x20 ADD DUP5 PUSH20 0xFFFFFFFFFFFFFFFFFFFFFFFFFFFFFFFFFFFFFFFF AND DUP2 MSTORE PUSH1 0x20 ADD PUSH1 0x0 DUP2 MSTORE PUSH1 0x20 ADD DUP4 DUP2 MSTORE PUSH1 0x20 ADD PUSH1 0x0 DUP2 MSTORE POP SWAP1 POP PUSH1 0x1 DUP2 SWAP1 DUP1 PUSH1 0x1 DUP2 SLOAD ADD DUP1 DUP3 SSTORE DUP1 SWAP2 POP POP PUSH1 0x1 SWAP1 SUB SWAP1 PUSH1 0x0 MSTORE PUSH1 0x20 PUSH1 0x0 KECCAK256 SWAP1 PUSH1 0x8 MUL ADD PUSH1 0x0 SWAP1 SWAP2 SWAP1 SWAP2 SWAP1 SWAP2 POP PUSH1 0x0 DUP3 ADD MLOAD DUP2 PUSH1 0x0 ADD SSTORE PUSH1 0x20 DUP3 ADD MLOAD DUP2 PUSH1 0x1 ADD SWAP1 DUP1 MLOAD SWAP1 PUSH1 0x20 ADD SWAP1 PUSH2 0x1258 SWAP3 SWAP2 SWAP1 PUSH2 0x1614 JUMP JUMPDEST POP PUSH1 0x40 DUP3 ADD MLOAD DUP2 PUSH1 0x2 ADD SSTORE PUSH1 0x60 DUP3 ADD MLOAD DUP2 PUSH1 0x3 ADD PUSH1 0x0 PUSH2 0x100 EXP DUP2 SLOAD DUP2 PUSH20 0xFFFFFFFFFFFFFFFFFFFFFFFFFFFFFFFFFFFFFFFF MUL NOT AND SWAP1 DUP4 PUSH20 0xFFFFFFFFFFFFFFFFFFFFFFFFFFFFFFFFFFFFFFFF AND MUL OR SWAP1 SSTORE POP PUSH1 0x80 DUP3 ADD MLOAD DUP2 PUSH1 0x4 ADD PUSH1 0x0 PUSH2 0x100 EXP DUP2 SLOAD DUP2 PUSH20 0xFFFFFFFFFFFFFFFFFFFFFFFFFFFFFFFFFFFFFFFF MUL NOT AND SWAP1 DUP4 PUSH20 0xFFFFFFFFFFFFFFFFFFFFFFFFFFFFFFFFFFFFFFFF AND MUL OR SWAP1 SSTORE POP PUSH1 0xA0 DUP3 ADD MLOAD DUP2 PUSH1 0x5 ADD SSTORE PUSH1 0xC0 DUP3 ADD MLOAD DUP2 PUSH1 0x6 ADD SSTORE PUSH1 0xE0 DUP3 ADD MLOAD DUP2 PUSH1 0x7 ADD SSTORE POP POP PUSH1 0x2 PUSH1 0x0 PUSH1 0x1 DUP2 MSTORE PUSH1 0x20 ADD SWAP1 DUP2 MSTORE PUSH1 0x20 ADD PUSH1 0x0 KECCAK256 DUP2 SWAP1 DUP1 PUSH1 0x1 DUP2 SLOAD ADD DUP1 DUP3 SSTORE DUP1 SWAP2 POP POP PUSH1 0x1 SWAP1 SUB SWAP1 PUSH1 0x0 MSTORE PUSH1 0x20 PUSH1 0x0 KECCAK256 SWAP1 PUSH1 0x8 MUL ADD PUSH1 0x0 SWAP1 SWAP2 SWAP1 SWAP2 SWAP1 SWAP2 POP PUSH1 0x0 DUP3 ADD MLOAD DUP2 PUSH1 0x0 ADD SSTORE PUSH1 0x20 DUP3 ADD MLOAD DUP2 PUSH1 0x1 ADD SWAP1 DUP1 MLOAD SWAP1 PUSH1 0x20 ADD SWAP1 PUSH2 0x1375 SWAP3 SWAP2 SWAP1 PUSH2 0x1614 JUMP JUMPDEST POP PUSH1 0x40 DUP3 ADD MLOAD DUP2 PUSH1 0x2 ADD SSTORE PUSH1 0x60 DUP3 ADD MLOAD DUP2 PUSH1 0x3 ADD PUSH1 0x0 PUSH2 0x100 EXP DUP2 SLOAD DUP2 PUSH20 0xFFFFFFFFFFFFFFFFFFFFFFFFFFFFFFFFFFFFFFFF MUL NOT AND SWAP1 DUP4 PUSH20 0xFFFFFFFFFFFFFFFFFFFFFFFFFFFFFFFFFFFFFFFF AND MUL OR SWAP1 SSTORE POP PUSH1 0x80 DUP3 ADD MLOAD DUP2 PUSH1 0x4 ADD PUSH1 0x0 PUSH2 0x100 EXP DUP2 SLOAD DUP2 PUSH20 0xFFFFFFFFFFFFFFFFFFFFFFFFFFFFFFFFFFFFFFFF MUL NOT AND SWAP1 DUP4 PUSH20 0xFFFFFFFFFFFFFFFFFFFFFFFFFFFFFFFFFFFFFFFF AND MUL OR SWAP1 SSTORE POP PUSH1 0xA0 DUP3 ADD MLOAD DUP2 PUSH1 0x5 ADD SSTORE PUSH1 0xC0 DUP3 ADD MLOAD DUP2 PUSH1 0x6 ADD SSTORE PUSH1 0xE0 DUP3 ADD MLOAD DUP2 PUSH1 0x7 ADD SSTORE POP POP PUSH1 0x3 PUSH1 0x0 CALLER PUSH20 0xFFFFFFFFFFFFFFFFFFFFFFFFFFFFFFFFFFFFFFFF AND PUSH20 0xFFFFFFFFFFFFFFFFFFFFFFFFFFFFFFFFFFFFFFFF AND DUP2 MSTORE PUSH1 0x20 ADD SWAP1 DUP2 MSTORE PUSH1 0x20 ADD PUSH1 0x0 KECCAK256 DUP2 SWAP1 DUP1 PUSH1 0x1 DUP2 SLOAD ADD DUP1 DUP3 SSTORE DUP1 SWAP2 POP POP PUSH1 0x1 SWAP1 SUB SWAP1 PUSH1 0x0 MSTORE PUSH1 0x20 PUSH1 0x0 KECCAK256 SWAP1 PUSH1 0x8 MUL ADD PUSH1 0x0 SWAP1 SWAP2 SWAP1 SWAP2 SWAP1 SWAP2 POP PUSH1 0x0 DUP3 ADD MLOAD DUP2 PUSH1 0x0 ADD SSTORE PUSH1 0x20 DUP3 ADD MLOAD DUP2 PUSH1 0x1 ADD SWAP1 DUP1 MLOAD SWAP1 PUSH1 0x20 ADD SWAP1 PUSH2 0x14BD SWAP3 SWAP2 SWAP1 PUSH2 0x1614 JUMP JUMPDEST POP PUSH1 0x40 DUP3 ADD MLOAD DUP2 PUSH1 0x2 ADD SSTORE PUSH1 0x60 DUP3 ADD MLOAD DUP2 PUSH1 0x3 ADD PUSH1 0x0 PUSH2 0x100 EXP DUP2 SLOAD DUP2 PUSH20 0xFFFFFFFFFFFFFFFFFFFFFFFFFFFFFFFFFFFFFFFF MUL NOT AND SWAP1 DUP4 PUSH20 0xFFFFFFFFFFFFFFFFFFFFFFFFFFFFFFFFFFFFFFFF AND MUL OR SWAP1 SSTORE POP PUSH1 0x80 DUP3 ADD MLOAD DUP2 PUSH1 0x4 ADD PUSH1 0x0 PUSH2 0x100 EXP DUP2 SLOAD DUP2 PUSH20 0xFFFFFFFFFFFFFFFFFFFFFFFFFFFFFFFFFFFFFFFF MUL NOT AND SWAP1 DUP4 PUSH20 0xFFFFFFFFFFFFFFFFFFFFFFFFFFFFFFFFFFFFFFFF AND MUL OR SWAP1 SSTORE POP PUSH1 0xA0 DUP3 ADD MLOAD DUP2 PUSH1 0x5 ADD SSTORE PUSH1 0xC0 DUP3 ADD MLOAD DUP2 PUSH1 0x6 ADD SSTORE PUSH1 0xE0 DUP3 ADD MLOAD DUP2 PUSH1 0x7 ADD SSTORE POP POP POP POP POP POP JUMP JUMPDEST PUSH1 0x0 DUP1 DUP3 SWAP1 POP PUSH1 0x0 DUP1 JUMPDEST DUP3 MLOAD DUP2 LT ISZERO PUSH2 0x1609 JUMPI PUSH1 0x0 DUP4 DUP3 DUP2 MLOAD DUP2 LT PUSH2 0x15A4 JUMPI PUSH2 0x15A3 PUSH2 0x1FDF JUMP JUMPDEST JUMPDEST PUSH1 0x20 ADD ADD MLOAD PUSH1 0xF8 SHR PUSH1 0xF8 SHL PUSH1 0xF8 SHR PUSH1 0xFF AND SWAP1 POP PUSH1 0x30 DUP2 LT ISZERO DUP1 ISZERO PUSH2 0x15C9 JUMPI POP PUSH1 0x39 DUP2 GT ISZERO JUMPDEST ISZERO PUSH2 0x15F5 JUMPI PUSH1 0x30 DUP2 PUSH2 0x15DB SWAP2 SWAP1 PUSH2 0x1DF4 JUMP JUMPDEST PUSH1 0xA DUP5 PUSH2 0x15E8 SWAP2 SWAP1 PUSH2 0x1D9A JUMP JUMPDEST PUSH2 0x15F2 SWAP2 SWAP1 PUSH2 0x1D44 JUMP JUMPDEST SWAP3 POP JUMPDEST POP DUP1 DUP1 PUSH2 0x1601 SWAP1 PUSH2 0x1F09 JUMP JUMPDEST SWAP2 POP POP PUSH2 0x1586 JUMP JUMPDEST POP DUP1 SWAP3 POP POP POP SWAP2 SWAP1 POP JUMP JUMPDEST DUP3 DUP1 SLOAD PUSH2 0x1620 SWAP1 PUSH2 0x1EA6 JUMP JUMPDEST SWAP1 PUSH1 0x0 MSTORE PUSH1 0x20 PUSH1 0x0 KECCAK256 SWAP1 PUSH1 0x1F ADD PUSH1 0x20 SWAP1 DIV DUP2 ADD SWAP3 DUP3 PUSH2 0x1642 JUMPI PUSH1 0x0 DUP6 SSTORE PUSH2 0x1689 JUMP JUMPDEST DUP3 PUSH1 0x1F LT PUSH2 0x165B JUMPI DUP1 MLOAD PUSH1 0xFF NOT AND DUP4 DUP1 ADD OR DUP6 SSTORE PUSH2 0x1689 JUMP JUMPDEST DUP3 DUP1 ADD PUSH1 0x1 ADD DUP6 SSTORE DUP3 ISZERO PUSH2 0x1689 JUMPI SWAP2 DUP3 ADD JUMPDEST DUP3 DUP2 GT ISZERO PUSH2 0x1688 JUMPI DUP3 MLOAD DUP3 SSTORE SWAP2 PUSH1 0x20 ADD SWAP2 SWAP1 PUSH1 0x1 ADD SWAP1 PUSH2 0x166D JUMP JUMPDEST JUMPDEST POP SWAP1 POP PUSH2 0x1696 SWAP2 SWAP1 PUSH2 0x1767 JUMP JUMPDEST POP SWAP1 JUMP JUMPDEST POP DUP1 SLOAD PUSH2 0x16A6 SWAP1 PUSH2 0x1EA6 JUMP JUMPDEST PUSH1 0x0 DUP3 SSTORE DUP1 PUSH1 0x1F LT PUSH2 0x16B8 JUMPI POP PUSH2 0x16D7 JUMP JUMPDEST PUSH1 0x1F ADD PUSH1 0x20 SWAP1 DIV SWAP1 PUSH1 0x0 MSTORE PUSH1 0x20 PUSH1 0x0 KECCAK256 SWAP1 DUP2 ADD SWAP1 PUSH2 0x16D6 SWAP2 SWAP1 PUSH2 0x1767 JUMP JUMPDEST JUMPDEST POP JUMP JUMPDEST DUP3 DUP1 SLOAD PUSH2 0x16E6 SWAP1 PUSH2 0x1EA6 JUMP JUMPDEST SWAP1 PUSH1 0x0 MSTORE PUSH1 0x20 PUSH1 0x0 KECCAK256 SWAP1 PUSH1 0x1F ADD PUSH1 0x20 SWAP1 DIV DUP2 ADD SWAP3 DUP3 PUSH2 0x1708 JUMPI PUSH1 0x0 DUP6 SSTORE PUSH2 0x1756 JUMP JUMPDEST DUP3 PUSH1 0x1F LT PUSH2 0x1719 JUMPI DUP1 SLOAD DUP6 SSTORE PUSH2 0x1756 JUMP JUMPDEST DUP3 DUP1 ADD PUSH1 0x1 ADD DUP6 SSTORE DUP3 ISZERO PUSH2 0x1756 JUMPI PUSH1 0x0 MSTORE PUSH1 0x20 PUSH1 0x0 KECCAK256 SWAP2 PUSH1 0x1F ADD PUSH1 0x20 SWAP1 DIV DUP3 ADD JUMPDEST DUP3 DUP2 GT ISZERO PUSH2 0x1755 JUMPI DUP3 SLOAD DUP3 SSTORE SWAP2 PUSH1 0x1 ADD SWAP2 SWAP1 PUSH1 0x1 ADD SWAP1 PUSH2 0x173A JUMP JUMPDEST JUMPDEST POP SWAP1 POP PUSH2 0x1763 SWAP2 SWAP1 PUSH2 0x1767 JUMP JUMPDEST POP SWAP1 JUMP JUMPDEST JUMPDEST DUP1 DUP3 GT ISZERO PUSH2 0x1780 JUMPI PUSH1 0x0 DUP2 PUSH1 0x0 SWAP1 SSTORE POP PUSH1 0x1 ADD PUSH2 0x1768 JUMP JUMPDEST POP SWAP1 JUMP JUMPDEST PUSH1 0x0 PUSH2 0x1797 PUSH2 0x1792 DUP5 PUSH2 0x1CAD JUMP JUMPDEST PUSH2 0x1C88 JUMP JUMPDEST SWAP1 POP DUP3 DUP2 MSTORE PUSH1 0x20 DUP2 ADD DUP5 DUP5 DUP5 ADD GT ISZERO PUSH2 0x17B3 JUMPI PUSH2 0x17B2 PUSH2 0x2042 JUMP JUMPDEST JUMPDEST PUSH2 0x17BE DUP5 DUP3 DUP6 PUSH2 0x1E64 JUMP JUMPDEST POP SWAP4 SWAP3 POP POP POP JUMP JUMPDEST PUSH1 0x0 DUP2 CALLDATALOAD SWAP1 POP PUSH2 0x17D5 DUP2 PUSH2 0x2062 JUMP JUMPDEST SWAP3 SWAP2 POP POP JUMP JUMPDEST PUSH1 0x0 DUP3 PUSH1 0x1F DUP4 ADD SLT PUSH2 0x17F0 JUMPI PUSH2 0x17EF PUSH2 0x203D JUMP JUMPDEST JUMPDEST DUP2 CALLDATALOAD PUSH2 0x1800 DUP5 DUP3 PUSH1 0x20 DUP7 ADD PUSH2 0x1784 JUMP JUMPDEST SWAP2 POP POP SWAP3 SWAP2 POP POP JUMP JUMPDEST PUSH1 0x0 DUP2 CALLDATALOAD SWAP1 POP PUSH2 0x1818 DUP2 PUSH2 0x2079 JUMP JUMPDEST SWAP3 SWAP2 POP POP JUMP JUMPDEST PUSH1 0x0 PUSH1 0x20 DUP3 DUP5 SUB SLT ISZERO PUSH2 0x1834 JUMPI PUSH2 0x1833 PUSH2 0x204C JUMP JUMPDEST JUMPDEST PUSH1 0x0 PUSH2 0x1842 DUP5 DUP3 DUP6 ADD PUSH2 0x17C6 JUMP JUMPDEST SWAP2 POP POP SWAP3 SWAP2 POP POP JUMP JUMPDEST PUSH1 0x0 PUSH1 0x20 DUP3 DUP5 SUB SLT ISZERO PUSH2 0x1861 JUMPI PUSH2 0x1860 PUSH2 0x204C JUMP JUMPDEST JUMPDEST PUSH1 0x0 DUP3 ADD CALLDATALOAD PUSH8 0xFFFFFFFFFFFFFFFF DUP2 GT ISZERO PUSH2 0x187F JUMPI PUSH2 0x187E PUSH2 0x2047 JUMP JUMPDEST JUMPDEST PUSH2 0x188B DUP5 DUP3 DUP6 ADD PUSH2 0x17DB JUMP JUMPDEST SWAP2 POP POP SWAP3 SWAP2 POP POP JUMP JUMPDEST PUSH1 0x0 DUP1 PUSH1 0x0 PUSH1 0x60 DUP5 DUP7 SUB SLT ISZERO PUSH2 0x18AD JUMPI PUSH2 0x18AC PUSH2 0x204C JUMP JUMPDEST JUMPDEST PUSH1 0x0 DUP5 ADD CALLDATALOAD PUSH8 0xFFFFFFFFFFFFFFFF DUP2 GT ISZERO PUSH2 0x18CB JUMPI PUSH2 0x18CA PUSH2 0x2047 JUMP JUMPDEST JUMPDEST PUSH2 0x18D7 DUP7 DUP3 DUP8 ADD PUSH2 0x17DB JUMP JUMPDEST SWAP4 POP POP PUSH1 0x20 PUSH2 0x18E8 DUP7 DUP3 DUP8 ADD PUSH2 0x17C6 JUMP JUMPDEST SWAP3 POP POP PUSH1 0x40 PUSH2 0x18F9 DUP7 DUP3 DUP8 ADD PUSH2 0x1809 JUMP JUMPDEST SWAP2 POP POP SWAP3 POP SWAP3 POP SWAP3 JUMP JUMPDEST PUSH1 0x0 PUSH1 0x20 DUP3 DUP5 SUB SLT ISZERO PUSH2 0x1919 JUMPI PUSH2 0x1918 PUSH2 0x204C JUMP JUMPDEST JUMPDEST PUSH1 0x0 PUSH2 0x1927 DUP5 DUP3 DUP6 ADD PUSH2 0x1809 JUMP JUMPDEST SWAP2 POP POP SWAP3 SWAP2 POP POP JUMP JUMPDEST PUSH1 0x0 DUP1 PUSH1 0x40 DUP4 DUP6 SUB SLT ISZERO PUSH2 0x1947 JUMPI PUSH2 0x1946 PUSH2 0x204C JUMP JUMPDEST JUMPDEST PUSH1 0x0 PUSH2 0x1955 DUP6 DUP3 DUP7 ADD PUSH2 0x1809 JUMP JUMPDEST SWAP3 POP POP PUSH1 0x20 DUP4 ADD CALLDATALOAD PUSH8 0xFFFFFFFFFFFFFFFF DUP2 GT ISZERO PUSH2 0x1976 JUMPI PUSH2 0x1975 PUSH2 0x2047 JUMP JUMPDEST JUMPDEST PUSH2 0x1982 DUP6 DUP3 DUP7 ADD PUSH2 0x17DB JUMP JUMPDEST SWAP2 POP POP SWAP3 POP SWAP3 SWAP1 POP JUMP JUMPDEST PUSH1 0x0 DUP1 PUSH1 0x0 PUSH1 0x60 DUP5 DUP7 SUB SLT ISZERO PUSH2 0x19A5 JUMPI PUSH2 0x19A4 PUSH2 0x204C JUMP JUMPDEST JUMPDEST PUSH1 0x0 PUSH2 0x19B3 DUP7 DUP3 DUP8 ADD PUSH2 0x1809 JUMP JUMPDEST SWAP4 POP POP PUSH1 0x20 PUSH2 0x19C4 DUP7 DUP3 DUP8 ADD PUSH2 0x1809 JUMP JUMPDEST SWAP3 POP POP PUSH1 0x40 PUSH2 0x19D5 DUP7 DUP3 DUP8 ADD PUSH2 0x17C6 JUMP JUMPDEST SWAP2 POP POP SWAP3 POP SWAP3 POP SWAP3 JUMP JUMPDEST PUSH1 0x0 PUSH2 0x19EB DUP4 DUP4 PUSH2 0x1AF8 JUMP JUMPDEST SWAP1 POP SWAP3 SWAP2 POP POP JUMP JUMPDEST PUSH2 0x19FC DUP2 PUSH2 0x1E28 JUMP JUMPDEST DUP3 MSTORE POP POP JUMP JUMPDEST PUSH2 0x1A0B DUP2 PUSH2 0x1E28 JUMP JUMPDEST DUP3 MSTORE POP POP JUMP JUMPDEST PUSH1 0x0 PUSH2 0x1A1C DUP3 PUSH2 0x1CEE JUMP JUMPDEST PUSH2 0x1A26 DUP2 DUP6 PUSH2 0x1D11 JUMP JUMPDEST SWAP4 POP DUP4 PUSH1 0x20 DUP3 MUL DUP6 ADD PUSH2 0x1A38 DUP6 PUSH2 0x1CDE JUMP JUMPDEST DUP1 PUSH1 0x0 JUMPDEST DUP6 DUP2 LT ISZERO PUSH2 0x1A74 JUMPI DUP5 DUP5 SUB DUP10 MSTORE DUP2 MLOAD PUSH2 0x1A55 DUP6 DUP3 PUSH2 0x19DF JUMP JUMPDEST SWAP5 POP PUSH2 0x1A60 DUP4 PUSH2 0x1D04 JUMP JUMPDEST SWAP3 POP PUSH1 0x20 DUP11 ADD SWAP10 POP POP PUSH1 0x1 DUP2 ADD SWAP1 POP PUSH2 0x1A3C JUMP JUMPDEST POP DUP3 SWAP8 POP DUP8 SWAP6 POP POP POP POP POP POP SWAP3 SWAP2 POP POP JUMP JUMPDEST PUSH1 0x0 PUSH2 0x1A91 DUP3 PUSH2 0x1CF9 JUMP JUMPDEST PUSH2 0x1A9B DUP2 DUP6 PUSH2 0x1D22 JUMP JUMPDEST SWAP4 POP PUSH2 0x1AAB DUP2 DUP6 PUSH1 0x20 DUP7 ADD PUSH2 0x1E73 JUMP JUMPDEST PUSH2 0x1AB4 DUP2 PUSH2 0x2051 JUMP JUMPDEST DUP5 ADD SWAP2 POP POP SWAP3 SWAP2 POP POP JUMP JUMPDEST PUSH1 0x0 PUSH2 0x1ACA DUP3 PUSH2 0x1CF9 JUMP JUMPDEST PUSH2 0x1AD4 DUP2 DUP6 PUSH2 0x1D33 JUMP JUMPDEST SWAP4 POP PUSH2 0x1AE4 DUP2 DUP6 PUSH1 0x20 DUP7 ADD PUSH2 0x1E73 JUMP JUMPDEST PUSH2 0x1AED DUP2 PUSH2 0x2051 JUMP JUMPDEST DUP5 ADD SWAP2 POP POP SWAP3 SWAP2 POP POP JUMP JUMPDEST PUSH1 0x0 PUSH2 0x100 DUP4 ADD PUSH1 0x0 DUP4 ADD MLOAD PUSH2 0x1B11 PUSH1 0x0 DUP7 ADD DUP3 PUSH2 0x1BA8 JUMP JUMPDEST POP PUSH1 0x20 DUP4 ADD MLOAD DUP5 DUP3 SUB PUSH1 0x20 DUP7 ADD MSTORE PUSH2 0x1B29 DUP3 DUP3 PUSH2 0x1A86 JUMP JUMPDEST SWAP2 POP POP PUSH1 0x40 DUP4 ADD MLOAD PUSH2 0x1B3E PUSH1 0x40 DUP7 ADD DUP3 PUSH2 0x1BA8 JUMP JUMPDEST POP PUSH1 0x60 DUP4 ADD MLOAD PUSH2 0x1B51 PUSH1 0x60 DUP7 ADD DUP3 PUSH2 0x19F3 JUMP JUMPDEST POP PUSH1 0x80 DUP4 ADD MLOAD PUSH2 0x1B64 PUSH1 0x80 DUP7 ADD DUP3 PUSH2 0x19F3 JUMP JUMPDEST POP PUSH1 0xA0 DUP4 ADD MLOAD PUSH2 0x1B77 PUSH1 0xA0 DUP7 ADD DUP3 PUSH2 0x1BA8 JUMP JUMPDEST POP PUSH1 0xC0 DUP4 ADD MLOAD PUSH2 0x1B8A PUSH1 0xC0 DUP7 ADD DUP3 PUSH2 0x1BA8 JUMP JUMPDEST POP PUSH1 0xE0 DUP4 ADD MLOAD PUSH2 0x1B9D PUSH1 0xE0 DUP7 ADD DUP3 PUSH2 0x1BA8 JUMP JUMPDEST POP DUP1 SWAP2 POP POP SWAP3 SWAP2 POP POP JUMP JUMPDEST PUSH2 0x1BB1 DUP2 PUSH2 0x1E5A JUMP JUMPDEST DUP3 MSTORE POP POP JUMP JUMPDEST PUSH2 0x1BC0 DUP2 PUSH2 0x1E5A JUMP JUMPDEST DUP3 MSTORE POP POP JUMP JUMPDEST PUSH1 0x0 PUSH1 0x20 DUP3 ADD SWAP1 POP DUP2 DUP2 SUB PUSH1 0x0 DUP4 ADD MSTORE PUSH2 0x1BE0 DUP2 DUP5 PUSH2 0x1A11 JUMP JUMPDEST SWAP1 POP SWAP3 SWAP2 POP POP JUMP JUMPDEST PUSH1 0x0 PUSH1 0x20 DUP3 ADD SWAP1 POP PUSH2 0x1BFD PUSH1 0x0 DUP4 ADD DUP5 PUSH2 0x1BB7 JUMP JUMPDEST SWAP3 SWAP2 POP POP JUMP JUMPDEST PUSH1 0x0 PUSH2 0x100 DUP3 ADD SWAP1 POP PUSH2 0x1C19 PUSH1 0x0 DUP4 ADD DUP12 PUSH2 0x1BB7 JUMP JUMPDEST DUP2 DUP2 SUB PUSH1 0x20 DUP4 ADD MSTORE PUSH2 0x1C2B DUP2 DUP11 PUSH2 0x1ABF JUMP JUMPDEST SWAP1 POP PUSH2 0x1C3A PUSH1 0x40 DUP4 ADD DUP10 PUSH2 0x1BB7 JUMP JUMPDEST PUSH2 0x1C47 PUSH1 0x60 DUP4 ADD DUP9 PUSH2 0x1A02 JUMP JUMPDEST PUSH2 0x1C54 PUSH1 0x80 DUP4 ADD DUP8 PUSH2 0x1A02 JUMP JUMPDEST PUSH2 0x1C61 PUSH1 0xA0 DUP4 ADD DUP7 PUSH2 0x1BB7 JUMP JUMPDEST PUSH2 0x1C6E PUSH1 0xC0 DUP4 ADD DUP6 PUSH2 0x1BB7 JUMP JUMPDEST PUSH2 0x1C7B PUSH1 0xE0 DUP4 ADD DUP5 PUSH2 0x1BB7 JUMP JUMPDEST SWAP10 SWAP9 POP POP POP POP POP POP POP POP POP JUMP JUMPDEST PUSH1 0x0 PUSH2 0x1C92 PUSH2 0x1CA3 JUMP JUMPDEST SWAP1 POP PUSH2 0x1C9E DUP3 DUP3 PUSH2 0x1ED8 JUMP JUMPDEST SWAP2 SWAP1 POP JUMP JUMPDEST PUSH1 0x0 PUSH1 0x40 MLOAD SWAP1 POP SWAP1 JUMP JUMPDEST PUSH1 0x0 PUSH8 0xFFFFFFFFFFFFFFFF DUP3 GT ISZERO PUSH2 0x1CC8 JUMPI PUSH2 0x1CC7 PUSH2 0x200E JUMP JUMPDEST JUMPDEST PUSH2 0x1CD1 DUP3 PUSH2 0x2051 JUMP JUMPDEST SWAP1 POP PUSH1 0x20 DUP2 ADD SWAP1 POP SWAP2 SWAP1 POP JUMP JUMPDEST PUSH1 0x0 DUP2 SWAP1 POP PUSH1 0x20 DUP3 ADD SWAP1 POP SWAP2 SWAP1 POP JUMP JUMPDEST PUSH1 0x0 DUP2 MLOAD SWAP1 POP SWAP2 SWAP1 POP JUMP JUMPDEST PUSH1 0x0 DUP2 MLOAD SWAP1 POP SWAP2 SWAP1 POP JUMP JUMPDEST PUSH1 0x0 PUSH1 0x20 DUP3 ADD SWAP1 POP SWAP2 SWAP1 POP JUMP JUMPDEST PUSH1 0x0 DUP3 DUP3 MSTORE PUSH1 0x20 DUP3 ADD SWAP1 POP SWAP3 SWAP2 POP POP JUMP JUMPDEST PUSH1 0x0 DUP3 DUP3 MSTORE PUSH1 0x20 DUP3 ADD SWAP1 POP SWAP3 SWAP2 POP POP JUMP JUMPDEST PUSH1 0x0 DUP3 DUP3 MSTORE PUSH1 0x20 DUP3 ADD SWAP1 POP SWAP3 SWAP2 POP POP JUMP JUMPDEST PUSH1 0x0 PUSH2 0x1D4F DUP3 PUSH2 0x1E5A JUMP JUMPDEST SWAP2 POP PUSH2 0x1D5A DUP4 PUSH2 0x1E5A JUMP JUMPDEST SWAP3 POP DUP3 PUSH32 0xFFFFFFFFFFFFFFFFFFFFFFFFFFFFFFFFFFFFFFFFFFFFFFFFFFFFFFFFFFFFFFFF SUB DUP3 GT ISZERO PUSH2 0x1D8F JUMPI PUSH2 0x1D8E PUSH2 0x1F52 JUMP JUMPDEST JUMPDEST DUP3 DUP3 ADD SWAP1 POP SWAP3 SWAP2 POP POP JUMP JUMPDEST PUSH1 0x0 PUSH2 0x1DA5 DUP3 PUSH2 0x1E5A JUMP JUMPDEST SWAP2 POP PUSH2 0x1DB0 DUP4 PUSH2 0x1E5A JUMP JUMPDEST SWAP3 POP DUP2 PUSH32 0xFFFFFFFFFFFFFFFFFFFFFFFFFFFFFFFFFFFFFFFFFFFFFFFFFFFFFFFFFFFFFFFF DIV DUP4 GT DUP3 ISZERO ISZERO AND ISZERO PUSH2 0x1DE9 JUMPI PUSH2 0x1DE8 PUSH2 0x1F52 JUMP JUMPDEST JUMPDEST DUP3 DUP3 MUL SWAP1 POP SWAP3 SWAP2 POP POP JUMP JUMPDEST PUSH1 0x0 PUSH2 0x1DFF DUP3 PUSH2 0x1E5A JUMP JUMPDEST SWAP2 POP PUSH2 0x1E0A DUP4 PUSH2 0x1E5A JUMP JUMPDEST SWAP3 POP DUP3 DUP3 LT ISZERO PUSH2 0x1E1D JUMPI PUSH2 0x1E1C PUSH2 0x1F52 JUMP JUMPDEST JUMPDEST DUP3 DUP3 SUB SWAP1 POP SWAP3 SWAP2 POP POP JUMP JUMPDEST PUSH1 0x0 PUSH2 0x1E33 DUP3 PUSH2 0x1E3A JUMP JUMPDEST SWAP1 POP SWAP2 SWAP1 POP JUMP JUMPDEST PUSH1 0x0 PUSH20 0xFFFFFFFFFFFFFFFFFFFFFFFFFFFFFFFFFFFFFFFF DUP3 AND SWAP1 POP SWAP2 SWAP1 POP JUMP JUMPDEST PUSH1 0x0 DUP2 SWAP1 POP SWAP2 SWAP1 POP JUMP JUMPDEST DUP3 DUP2 DUP4 CALLDATACOPY PUSH1 0x0 DUP4 DUP4 ADD MSTORE POP POP POP JUMP JUMPDEST PUSH1 0x0 JUMPDEST DUP4 DUP2 LT ISZERO PUSH2 0x1E91 JUMPI DUP1 DUP3 ADD MLOAD DUP2 DUP5 ADD MSTORE PUSH1 0x20 DUP2 ADD SWAP1 POP PUSH2 0x1E76 JUMP JUMPDEST DUP4 DUP2 GT ISZERO PUSH2 0x1EA0 JUMPI PUSH1 0x0 DUP5 DUP5 ADD MSTORE JUMPDEST POP POP POP POP JUMP JUMPDEST PUSH1 0x0 PUSH1 0x2 DUP3 DIV SWAP1 POP PUSH1 0x1 DUP3 AND DUP1 PUSH2 0x1EBE JUMPI PUSH1 0x7F DUP3 AND SWAP2 POP JUMPDEST PUSH1 0x20 DUP3 LT DUP2 EQ ISZERO PUSH2 0x1ED2 JUMPI PUSH2 0x1ED1 PUSH2 0x1F81 JUMP JUMPDEST JUMPDEST POP SWAP2 SWAP1 POP JUMP JUMPDEST PUSH2 0x1EE1 DUP3 PUSH2 0x2051 JUMP JUMPDEST DUP2 ADD DUP2 DUP2 LT PUSH8 0xFFFFFFFFFFFFFFFF DUP3 GT OR ISZERO PUSH2 0x1F00 JUMPI PUSH2 0x1EFF PUSH2 0x200E JUMP JUMPDEST JUMPDEST DUP1 PUSH1 0x40 MSTORE POP POP POP JUMP JUMPDEST PUSH1 0x0 PUSH2 0x1F14 DUP3 PUSH2 0x1E5A JUMP JUMPDEST SWAP2 POP PUSH32 0xFFFFFFFFFFFFFFFFFFFFFFFFFFFFFFFFFFFFFFFFFFFFFFFFFFFFFFFFFFFFFFFF DUP3 EQ ISZERO PUSH2 0x1F47 JUMPI PUSH2 0x1F46 PUSH2 0x1F52 JUMP JUMPDEST JUMPDEST PUSH1 0x1 DUP3 ADD SWAP1 POP SWAP2 SWAP1 POP JUMP JUMPDEST PUSH32 0x4E487B7100000000000000000000000000000000000000000000000000000000 PUSH1 0x0 MSTORE PUSH1 0x11 PUSH1 0x4 MSTORE PUSH1 0x24 PUSH1 0x0 REVERT JUMPDEST PUSH32 0x4E487B7100000000000000000000000000000000000000000000000000000000 PUSH1 0x0 MSTORE PUSH1 0x22 PUSH1 0x4 MSTORE PUSH1 0x24 PUSH1 0x0 REVERT JUMPDEST PUSH32 0x4E487B7100000000000000000000000000000000000000000000000000000000 PUSH1 0x0 MSTORE PUSH1 0x31 PUSH1 0x4 MSTORE PUSH1 0x24 PUSH1 0x0 REVERT JUMPDEST PUSH32 0x4E487B7100000000000000000000000000000000000000000000000000000000 PUSH1 0x0 MSTORE PUSH1 0x32 PUSH1 0x4 MSTORE PUSH1 0x24 PUSH1 0x0 REVERT JUMPDEST PUSH32 0x4E487B7100000000000000000000000000000000000000000000000000000000 PUSH1 0x0 MSTORE PUSH1 0x41 PUSH1 0x4 MSTORE PUSH1 0x24 PUSH1 0x0 REVERT JUMPDEST PUSH1 0x0 DUP1 REVERT JUMPDEST PUSH1 0x0 DUP1 REVERT JUMPDEST PUSH1 0x0 DUP1 REVERT JUMPDEST PUSH1 0x0 DUP1 REVERT JUMPDEST PUSH1 0x0 PUSH1 0x1F NOT PUSH1 0x1F DUP4 ADD AND SWAP1 POP SWAP2 SWAP1 POP JUMP JUMPDEST PUSH2 0x206B DUP2 PUSH2 0x1E28 JUMP JUMPDEST DUP2 EQ PUSH2 0x2076 JUMPI PUSH1 0x0 DUP1 REVERT JUMPDEST POP JUMP JUMPDEST PUSH2 0x2082 DUP2 PUSH2 0x1E5A JUMP JUMPDEST DUP2 EQ PUSH2 0x208D JUMPI PUSH1 0x0 DUP1 REVERT JUMPDEST POP JUMP INVALID LOG2 PUSH5 0x6970667358 0x22 SLT KECCAK256 SWAP1 0xA7 0xAD 0xAE XOR PUSH3 0x5655AC 0xBF SELFDESTRUCT JUMPI EXTCODECOPY BYTE JUMPI SELFBALANCE CALLVALUE PUSH3 0x16EBB1 SWAP4 0xBE DIV DUP10 PUSH10 0x721EFB512CA864736F6C PUSH4 0x43000807 STOP CALLER "
				},
				"gasEstimates": {
					"creation": {
						"codeDepositCost": "1678000",
						"executionCost": "1764",
						"totalCost": "1679764"
					},
					"external": {
						"createCrowdfunding(string,address,uint256)": "infinite",
						"getCrowdfundingByStatus(uint256)": "infinite",
						"getMyCrowdfunding(address)": "infinite",
						"join(uint256,uint256,address)": "infinite",
						"list(uint256)": "infinite",
						"setStatus(uint256)": "infinite",
						"setTitle(uint256,string)": "infinite",
						"stringToInt(string)": "infinite"
					}
				},
				"methodIdentifiers": {
					"createCrowdfunding(string,address,uint256)": "ac8b1300",
					"getCrowdfundingByStatus(uint256)": "904cc175",
					"getMyCrowdfunding(address)": "377e6ff7",
					"join(uint256,uint256,address)": "575b70d0",
					"list(uint256)": "80c9419e",
					"setStatus(uint256)": "69ba1a75",
					"setTitle(uint256,string)": "5102bc9d",
					"stringToInt(string)": "f8a02d84"
				}
			},
			"storageLayout": {
				"storage": [
					{
						"astId": 3,
						"contract": "crowdfunding.sol:CrowdfundingContract",
						"label": "No",
						"offset": 0,
						"slot": "0",
						"type": "t_uint256"
					},
					{
						"astId": 24,
						"contract": "crowdfunding.sol:CrowdfundingContract",
						"label": "list",
						"offset": 0,
						"slot": "1",
						"type": "t_array(t_struct(Crowdfunding)20_storage)dyn_storage"
					},
					{
						"astId": 30,
						"contract": "crowdfunding.sol:CrowdfundingContract",
						"label": "filterDataByStatus",
						"offset": 0,
						"slot": "2",
						"type": "t_mapping(t_uint256,t_array(t_struct(Crowdfunding)20_storage)dyn_storage)"
					},
					{
						"astId": 36,
						"contract": "crowdfunding.sol:CrowdfundingContract",
						"label": "myCrowdfunding",
						"offset": 0,
						"slot": "3",
						"type": "t_mapping(t_address,t_array(t_struct(Crowdfunding)20_storage)dyn_storage)"
					},
					{
						"astId": 41,
						"contract": "crowdfunding.sol:CrowdfundingContract",
						"label": "calcJoinNum",
						"offset": 0,
						"slot": "4",
						"type": "t_mapping(t_uint256,t_array(t_address)dyn_storage)"
					}
				],
				"types": {
					"t_address": {
						"encoding": "inplace",
						"label": "address",
						"numberOfBytes": "20"
					},
					"t_array(t_address)dyn_storage": {
						"base": "t_address",
						"encoding": "dynamic_array",
						"label": "address[]",
						"numberOfBytes": "32"
					},
					"t_array(t_struct(Crowdfunding)20_storage)dyn_storage": {
						"base": "t_struct(Crowdfunding)20_storage",
						"encoding": "dynamic_array",
						"label": "struct CrowdfundingContract.Crowdfunding[]",
						"numberOfBytes": "32"
					},
					"t_mapping(t_address,t_array(t_struct(Crowdfunding)20_storage)dyn_storage)": {
						"encoding": "mapping",
						"key": "t_address",
						"label": "mapping(address => struct CrowdfundingContract.Crowdfunding[])",
						"numberOfBytes": "32",
						"value": "t_array(t_struct(Crowdfunding)20_storage)dyn_storage"
					},
					"t_mapping(t_uint256,t_array(t_address)dyn_storage)": {
						"encoding": "mapping",
						"key": "t_uint256",
						"label": "mapping(uint256 => address[])",
						"numberOfBytes": "32",
						"value": "t_array(t_address)dyn_storage"
					},
					"t_mapping(t_uint256,t_array(t_struct(Crowdfunding)20_storage)dyn_storage)": {
						"encoding": "mapping",
						"key": "t_uint256",
						"label": "mapping(uint256 => struct CrowdfundingContract.Crowdfunding[])",
						"numberOfBytes": "32",
						"value": "t_array(t_struct(Crowdfunding)20_storage)dyn_storage"
					},
					"t_string_storage": {
						"encoding": "bytes",
						"label": "string",
						"numberOfBytes": "32"
					},
					"t_struct(Crowdfunding)20_storage": {
						"encoding": "inplace",
						"label": "struct CrowdfundingContract.Crowdfunding",
						"members": [
							{
								"astId": 5,
								"contract": "crowdfunding.sol:CrowdfundingContract",
								"label": "num",
								"offset": 0,
								"slot": "0",
								"type": "t_uint256"
							},
							{
								"astId": 7,
								"contract": "crowdfunding.sol:CrowdfundingContract",
								"label": "title",
								"offset": 0,
								"slot": "1",
								"type": "t_string_storage"
							},
							{
								"astId": 9,
								"contract": "crowdfunding.sol:CrowdfundingContract",
								"label": "status",
								"offset": 0,
								"slot": "2",
								"type": "t_uint256"
							},
							{
								"astId": 11,
								"contract": "crowdfunding.sol:CrowdfundingContract",
								"label": "creator",
								"offset": 0,
								"slot": "3",
								"type": "t_address"
							},
							{
								"astId": 13,
								"contract": "crowdfunding.sol:CrowdfundingContract",
								"label": "recipient",
								"offset": 0,
								"slot": "4",
								"type": "t_address"
							},
							{
								"astId": 15,
								"contract": "crowdfunding.sol:CrowdfundingContract",
								"label": "joinNum",
								"offset": 0,
								"slot": "5",
								"type": "t_uint256"
							},
							{
								"astId": 17,
								"contract": "crowdfunding.sol:CrowdfundingContract",
								"label": "expectAmout",
								"offset": 0,
								"slot": "6",
								"type": "t_uint256"
							},
							{
								"astId": 19,
								"contract": "crowdfunding.sol:CrowdfundingContract",
								"label": "actualAmount",
								"offset": 0,
								"slot": "7",
								"type": "t_uint256"
							}
						],
						"numberOfBytes": "256"
					},
					"t_uint256": {
						"encoding": "inplace",
						"label": "uint256",
						"numberOfBytes": "32"
					}
				}
			},
			"userdoc": {
				"kind": "user",
				"methods": {},
				"version": 1
			}
		}
	}
}