{
	"crowdfunding.sol": {
		"CrowdfundingContract": {
			"abi": [
				{
					"inputs": [
						{
							"internalType": "string",
							"name": "_title",
							"type": "string"
						},
						{
							"internalType": "address",
							"name": "_recipient",
							"type": "address"
						},
						{
							"internalType": "string",
							"name": "_expectAmout",
							"type": "string"
						}
					],
					"name": "createCrowdfunding",
					"outputs": [],
					"stateMutability": "nonpayable",
					"type": "function"
				},
				{
					"inputs": [
						{
							"internalType": "uint256",
							"name": "_status",
							"type": "uint256"
						}
					],
					"name": "getCrowdfundingByStatus",
					"outputs": [
						{
							"components": [
								{
									"internalType": "uint256",
									"name": "num",
									"type": "uint256"
								},
								{
									"internalType": "string",
									"name": "title",
									"type": "string"
								},
								{
									"internalType": "uint256",
									"name": "status",
									"type": "uint256"
								},
								{
									"internalType": "address",
									"name": "creator",
									"type": "address"
								},
								{
									"internalType": "address",
									"name": "recipient",
									"type": "address"
								},
								{
									"internalType": "uint256",
									"name": "joinNum",
									"type": "uint256"
								},
								{
									"internalType": "uint256",
									"name": "expectAmout",
									"type": "uint256"
								},
								{
									"internalType": "uint256",
									"name": "actualAmount",
									"type": "uint256"
								}
							],
							"internalType": "struct CrowdfundingContract.Crowdfunding[]",
							"name": "",
							"type": "tuple[]"
						}
					],
					"stateMutability": "view",
					"type": "function"
				},
				{
					"inputs": [
						{
							"internalType": "address",
							"name": "addr",
							"type": "address"
						}
					],
					"name": "getMyCrowdfunding",
					"outputs": [
						{
							"components": [
								{
									"internalType": "uint256",
									"name": "num",
									"type": "uint256"
								},
								{
									"internalType": "string",
									"name": "title",
									"type": "string"
								},
								{
									"internalType": "uint256",
									"name": "status",
									"type": "uint256"
								},
								{
									"internalType": "address",
									"name": "creator",
									"type": "address"
								},
								{
									"internalType": "address",
									"name": "recipient",
									"type": "address"
								},
								{
									"internalType": "uint256",
									"name": "joinNum",
									"type": "uint256"
								},
								{
									"internalType": "uint256",
									"name": "expectAmout",
									"type": "uint256"
								},
								{
									"internalType": "uint256",
									"name": "actualAmount",
									"type": "uint256"
								}
							],
							"internalType": "struct CrowdfundingContract.Crowdfunding[]",
							"name": "",
							"type": "tuple[]"
						}
					],
					"stateMutability": "view",
					"type": "function"
				},
				{
					"inputs": [
						{
							"internalType": "uint256",
							"name": "num",
							"type": "uint256"
						},
						{
							"internalType": "uint256",
							"name": "amount",
							"type": "uint256"
						},
						{
							"internalType": "address",
							"name": "addr",
							"type": "address"
						}
					],
					"name": "join",
					"outputs": [],
					"stateMutability": "nonpayable",
					"type": "function"
				},
				{
					"inputs": [
						{
							"internalType": "uint256",
							"name": "",
							"type": "uint256"
						}
					],
					"name": "list",
					"outputs": [
						{
							"internalType": "uint256",
							"name": "num",
							"type": "uint256"
						},
						{
							"internalType": "string",
							"name": "title",
							"type": "string"
						},
						{
							"internalType": "uint256",
							"name": "status",
							"type": "uint256"
						},
						{
							"internalType": "address",
							"name": "creator",
							"type": "address"
						},
						{
							"internalType": "address",
							"name": "recipient",
							"type": "address"
						},
						{
							"internalType": "uint256",
							"name": "joinNum",
							"type": "uint256"
						},
						{
							"internalType": "uint256",
							"name": "expectAmout",
							"type": "uint256"
						},
						{
							"internalType": "uint256",
							"name": "actualAmount",
							"type": "uint256"
						}
					],
					"stateMutability": "view",
					"type": "function"
				},
				{
					"inputs": [
						{
							"internalType": "uint256",
							"name": "num",
							"type": "uint256"
						}
					],
					"name": "setStatus",
					"outputs": [],
					"stateMutability": "nonpayable",
					"type": "function"
				},
				{
					"inputs": [
						{
							"internalType": "uint256",
							"name": "num",
							"type": "uint256"
						},
						{
							"internalType": "string",
							"name": "title",
							"type": "string"
						}
					],
					"name": "setTitle",
					"outputs": [],
					"stateMutability": "nonpayable",
					"type": "function"
				},
				{
					"inputs": [
						{
							"internalType": "string",
							"name": "s",
							"type": "string"
						}
					],
					"name": "stringToInt",
					"outputs": [
						{
							"internalType": "uint256",
							"name": "",
							"type": "uint256"
						}
					],
					"stateMutability": "pure",
					"type": "function"
				}
			],
			"devdoc": {
				"kind": "dev",
				"methods": {},
				"version": 1
			},
			"evm": {
				"assembly": "    /* \"crowdfunding.sol\":290:4003  contract CrowdfundingContract {\r... */\n  mstore(0x40, 0x80)\n  callvalue\n  dup1\n  iszero\n  tag_1\n  jumpi\n  0x00\n  dup1\n  revert\ntag_1:\n  pop\n  dataSize(sub_0)\n  dup1\n  dataOffset(sub_0)\n  0x00\n  codecopy\n  0x00\n  return\nstop\n\nsub_0: assembly {\n        /* \"crowdfunding.sol\":290:4003  contract CrowdfundingContract {\r... */\n      mstore(0x40, 0x80)\n      callvalue\n      dup1\n      iszero\n      tag_1\n      jumpi\n      0x00\n      dup1\n      revert\n    tag_1:\n      pop\n      jumpi(tag_2, lt(calldatasize, 0x04))\n      shr(0xe0, calldataload(0x00))\n      dup1\n      0x80c9419e\n      gt\n      tag_11\n      jumpi\n      dup1\n      0x80c9419e\n      eq\n      tag_7\n      jumpi\n      dup1\n      0x904cc175\n      eq\n      tag_8\n      jumpi\n      dup1\n      0xa97af4d5\n      eq\n      tag_9\n      jumpi\n      dup1\n      0xf8a02d84\n      eq\n      tag_10\n      jumpi\n      jump(tag_2)\n    tag_11:\n      dup1\n      0x377e6ff7\n      eq\n      tag_3\n      jumpi\n      dup1\n      0x5102bc9d\n      eq\n      tag_4\n      jumpi\n      dup1\n      0x575b70d0\n      eq\n      tag_5\n      jumpi\n      dup1\n      0x69ba1a75\n      eq\n      tag_6\n      jumpi\n    tag_2:\n      0x00\n      dup1\n      revert\n        /* \"crowdfunding.sol\":3869:4000  function getMyCrowdfunding(address addr) public view returns (Crowdfunding[] memory) {\r... */\n    tag_3:\n      tag_12\n      0x04\n      dup1\n      calldatasize\n      sub\n      dup2\n      add\n      swap1\n      tag_13\n      swap2\n      swap1\n      tag_14\n      jump\t// in\n    tag_13:\n      tag_15\n      jump\t// in\n    tag_12:\n      mload(0x40)\n      tag_16\n      swap2\n      swap1\n      tag_17\n      jump\t// in\n    tag_16:\n      mload(0x40)\n      dup1\n      swap2\n      sub\n      swap1\n      return\n        /* \"crowdfunding.sol\":2850:2949  function setTitle(uint num,string memory title) public {\r... */\n    tag_4:\n      tag_18\n      0x04\n      dup1\n      calldatasize\n      sub\n      dup2\n      add\n      swap1\n      tag_19\n      swap2\n      swap1\n      tag_20\n      jump\t// in\n    tag_19:\n      tag_21\n      jump\t// in\n    tag_18:\n      stop\n        /* \"crowdfunding.sol\":2981:3584  function join(uint num,uint amount,address addr) public {\r... */\n    tag_5:\n      tag_22\n      0x04\n      dup1\n      calldatasize\n      sub\n      dup2\n      add\n      swap1\n      tag_23\n      swap2\n      swap1\n      tag_24\n      jump\t// in\n    tag_23:\n      tag_25\n      jump\t// in\n    tag_22:\n      stop\n        /* \"crowdfunding.sol\":2175:2767  function setStatus(uint num) public {\r... */\n    tag_6:\n      tag_26\n      0x04\n      dup1\n      calldatasize\n      sub\n      dup2\n      add\n      swap1\n      tag_27\n      swap2\n      swap1\n      tag_28\n      jump\t// in\n    tag_27:\n      tag_29\n      jump\t// in\n    tag_26:\n      stop\n        /* \"crowdfunding.sol\":809:835  Crowdfunding[] public list */\n    tag_7:\n      tag_30\n      0x04\n      dup1\n      calldatasize\n      sub\n      dup2\n      add\n      swap1\n      tag_31\n      swap2\n      swap1\n      tag_28\n      jump\t// in\n    tag_31:\n      tag_32\n      jump\t// in\n    tag_30:\n      mload(0x40)\n      tag_33\n      swap9\n      swap8\n      swap7\n      swap6\n      swap5\n      swap4\n      swap3\n      swap2\n      swap1\n      tag_34\n      jump\t// in\n    tag_33:\n      mload(0x40)\n      dup1\n      swap2\n      sub\n      swap1\n      return\n        /* \"crowdfunding.sol\":3636:3819  function getCrowdfundingByStatus(uint _status) public view returns (Crowdfunding[] memory) {\r... */\n    tag_8:\n      tag_35\n      0x04\n      dup1\n      calldatasize\n      sub\n      dup2\n      add\n      swap1\n      tag_36\n      swap2\n      swap1\n      tag_28\n      jump\t// in\n    tag_36:\n      tag_37\n      jump\t// in\n    tag_35:\n      mload(0x40)\n      tag_38\n      swap2\n      swap1\n      tag_17\n      jump\t// in\n    tag_38:\n      mload(0x40)\n      dup1\n      swap2\n      sub\n      swap1\n      return\n        /* \"crowdfunding.sol\":1469:2096  function createCrowdfunding(string memory _title,address _recipient, string memory _expectAmout) public {\r... */\n    tag_9:\n      tag_39\n      0x04\n      dup1\n      calldatasize\n      sub\n      dup2\n      add\n      swap1\n      tag_40\n      swap2\n      swap1\n      tag_41\n      jump\t// in\n    tag_40:\n      tag_42\n      jump\t// in\n    tag_39:\n      stop\n        /* \"crowdfunding.sol\":1091:1461  function stringToInt(string memory s) public pure returns (uint){\r... */\n    tag_10:\n      tag_43\n      0x04\n      dup1\n      calldatasize\n      sub\n      dup2\n      add\n      swap1\n      tag_44\n      swap2\n      swap1\n      tag_45\n      jump\t// in\n    tag_44:\n      tag_46\n      jump\t// in\n    tag_43:\n      mload(0x40)\n      tag_47\n      swap2\n      swap1\n      tag_48\n      jump\t// in\n    tag_47:\n      mload(0x40)\n      dup1\n      swap2\n      sub\n      swap1\n      return\n        /* \"crowdfunding.sol\":3869:4000  function getMyCrowdfunding(address addr) public view returns (Crowdfunding[] memory) {\r... */\n    tag_15:\n        /* \"crowdfunding.sol\":3931:3952  Crowdfunding[] memory */\n      0x60\n        /* \"crowdfunding.sol\":3972:3986  myCrowdfunding */\n      0x03\n        /* \"crowdfunding.sol\":3972:3992  myCrowdfunding[addr] */\n      0x00\n        /* \"crowdfunding.sol\":3987:3991  addr */\n      dup4\n        /* \"crowdfunding.sol\":3972:3992  myCrowdfunding[addr] */\n      0xffffffffffffffffffffffffffffffffffffffff\n      and\n      0xffffffffffffffffffffffffffffffffffffffff\n      and\n      dup2\n      mstore\n      0x20\n      add\n      swap1\n      dup2\n      mstore\n      0x20\n      add\n      0x00\n      keccak256\n        /* \"crowdfunding.sol\":3965:3992  return myCrowdfunding[addr] */\n      dup1\n      sload\n      dup1\n      0x20\n      mul\n      0x20\n      add\n      mload(0x40)\n      swap1\n      dup2\n      add\n      0x40\n      mstore\n      dup1\n      swap3\n      swap2\n      swap1\n      dup2\n      dup2\n      mstore\n      0x20\n      add\n      0x00\n      swap1\n    tag_50:\n      dup3\n      dup3\n      lt\n      iszero\n      tag_51\n      jumpi\n      dup4\n      dup3\n      swap1\n      0x00\n      mstore\n      keccak256(0x00, 0x20)\n      swap1\n      0x08\n      mul\n      add\n      mload(0x40)\n      dup1\n      0x0100\n      add\n      0x40\n      mstore\n      swap1\n      dup2\n      0x00\n      dup3\n      add\n      sload\n      dup2\n      mstore\n      0x20\n      add\n      0x01\n      dup3\n      add\n      dup1\n      sload\n      tag_53\n      swap1\n      tag_54\n      jump\t// in\n    tag_53:\n      dup1\n      0x1f\n      add\n      0x20\n      dup1\n      swap2\n      div\n      mul\n      0x20\n      add\n      mload(0x40)\n      swap1\n      dup2\n      add\n      0x40\n      mstore\n      dup1\n      swap3\n      swap2\n      swap1\n      dup2\n      dup2\n      mstore\n      0x20\n      add\n      dup3\n      dup1\n      sload\n      tag_55\n      swap1\n      tag_54\n      jump\t// in\n    tag_55:\n      dup1\n      iszero\n      tag_56\n      jumpi\n      dup1\n      0x1f\n      lt\n      tag_57\n      jumpi\n      0x0100\n      dup1\n      dup4\n      sload\n      div\n      mul\n      dup4\n      mstore\n      swap2\n      0x20\n      add\n      swap2\n      jump(tag_56)\n    tag_57:\n      dup3\n      add\n      swap2\n      swap1\n      0x00\n      mstore\n      keccak256(0x00, 0x20)\n      swap1\n    tag_58:\n      dup2\n      sload\n      dup2\n      mstore\n      swap1\n      0x01\n      add\n      swap1\n      0x20\n      add\n      dup1\n      dup4\n      gt\n      tag_58\n      jumpi\n      dup3\n      swap1\n      sub\n      0x1f\n      and\n      dup3\n      add\n      swap2\n    tag_56:\n      pop\n      pop\n      pop\n      pop\n      pop\n      dup2\n      mstore\n      0x20\n      add\n      0x02\n      dup3\n      add\n      sload\n      dup2\n      mstore\n      0x20\n      add\n      0x03\n      dup3\n      add\n      0x00\n      swap1\n      sload\n      swap1\n      0x0100\n      exp\n      swap1\n      div\n      0xffffffffffffffffffffffffffffffffffffffff\n      and\n      0xffffffffffffffffffffffffffffffffffffffff\n      and\n      0xffffffffffffffffffffffffffffffffffffffff\n      and\n      dup2\n      mstore\n      0x20\n      add\n      0x04\n      dup3\n      add\n      0x00\n      swap1\n      sload\n      swap1\n      0x0100\n      exp\n      swap1\n      div\n      0xffffffffffffffffffffffffffffffffffffffff\n      and\n      0xffffffffffffffffffffffffffffffffffffffff\n      and\n      0xffffffffffffffffffffffffffffffffffffffff\n      and\n      dup2\n      mstore\n      0x20\n      add\n      0x05\n      dup3\n      add\n      sload\n      dup2\n      mstore\n      0x20\n      add\n      0x06\n      dup3\n      add\n      sload\n      dup2\n      mstore\n      0x20\n      add\n      0x07\n      dup3\n      add\n      sload\n      dup2\n      mstore\n      pop\n      pop\n      dup2\n      mstore\n      0x20\n      add\n      swap1\n      0x01\n      add\n      swap1\n      jump(tag_50)\n    tag_51:\n      pop\n      pop\n      pop\n      pop\n      swap1\n      pop\n        /* \"crowdfunding.sol\":3869:4000  function getMyCrowdfunding(address addr) public view returns (Crowdfunding[] memory) {\r... */\n      swap2\n      swap1\n      pop\n      jump\t// out\n        /* \"crowdfunding.sol\":2850:2949  function setTitle(uint num,string memory title) public {\r... */\n    tag_21:\n        /* \"crowdfunding.sol\":2936:2941  title */\n      dup1\n        /* \"crowdfunding.sol\":2916:2920  list */\n      0x01\n        /* \"crowdfunding.sol\":2925:2926  1 */\n      dup1\n        /* \"crowdfunding.sol\":2921:2924  num */\n      dup5\n        /* \"crowdfunding.sol\":2921:2926  num-1 */\n      tag_60\n      swap2\n      swap1\n      tag_61\n      jump\t// in\n    tag_60:\n        /* \"crowdfunding.sol\":2916:2927  list[num-1] */\n      dup2\n      sload\n      dup2\n      lt\n      tag_62\n      jumpi\n      tag_63\n      tag_64\n      jump\t// in\n    tag_63:\n    tag_62:\n      swap1\n      0x00\n      mstore\n      keccak256(0x00, 0x20)\n      swap1\n      0x08\n      mul\n      add\n        /* \"crowdfunding.sol\":2916:2933  list[num-1].title */\n      0x01\n      add\n        /* \"crowdfunding.sol\":2916:2941  list[num-1].title = title */\n      swap1\n      dup1\n      mload\n      swap1\n      0x20\n      add\n      swap1\n      tag_66\n      swap3\n      swap2\n      swap1\n      tag_67\n      jump\t// in\n    tag_66:\n      pop\n        /* \"crowdfunding.sol\":2850:2949  function setTitle(uint num,string memory title) public {\r... */\n      pop\n      pop\n      jump\t// out\n        /* \"crowdfunding.sol\":2981:3584  function join(uint num,uint amount,address addr) public {\r... */\n    tag_25:\n        /* \"crowdfunding.sol\":3052:3058  uint i */\n      0x00\n        /* \"crowdfunding.sol\":3048:3357  for(uint i = 0; i < calcJoinNum[num].length;i++){\r... */\n    tag_69:\n        /* \"crowdfunding.sol\":3068:3079  calcJoinNum */\n      0x04\n        /* \"crowdfunding.sol\":3068:3084  calcJoinNum[num] */\n      0x00\n        /* \"crowdfunding.sol\":3080:3083  num */\n      dup6\n        /* \"crowdfunding.sol\":3068:3084  calcJoinNum[num] */\n      dup2\n      mstore\n      0x20\n      add\n      swap1\n      dup2\n      mstore\n      0x20\n      add\n      0x00\n      keccak256\n        /* \"crowdfunding.sol\":3068:3091  calcJoinNum[num].length */\n      dup1\n      sload\n      swap1\n      pop\n        /* \"crowdfunding.sol\":3064:3065  i */\n      dup2\n        /* \"crowdfunding.sol\":3064:3091  i < calcJoinNum[num].length */\n      lt\n        /* \"crowdfunding.sol\":3048:3357  for(uint i = 0; i < calcJoinNum[num].length;i++){\r... */\n      iszero\n      tag_70\n      jumpi\n        /* \"crowdfunding.sol\":3139:3143  addr */\n      dup2\n        /* \"crowdfunding.sol\":3114:3143  calcJoinNum[num-1][i] == addr */\n      0xffffffffffffffffffffffffffffffffffffffff\n      and\n        /* \"crowdfunding.sol\":3114:3125  calcJoinNum */\n      0x04\n        /* \"crowdfunding.sol\":3114:3132  calcJoinNum[num-1] */\n      0x00\n        /* \"crowdfunding.sol\":3130:3131  1 */\n      0x01\n        /* \"crowdfunding.sol\":3126:3129  num */\n      dup8\n        /* \"crowdfunding.sol\":3126:3131  num-1 */\n      tag_72\n      swap2\n      swap1\n      tag_61\n      jump\t// in\n    tag_72:\n        /* \"crowdfunding.sol\":3114:3132  calcJoinNum[num-1] */\n      dup2\n      mstore\n      0x20\n      add\n      swap1\n      dup2\n      mstore\n      0x20\n      add\n      0x00\n      keccak256\n        /* \"crowdfunding.sol\":3133:3134  i */\n      dup3\n        /* \"crowdfunding.sol\":3114:3135  calcJoinNum[num-1][i] */\n      dup2\n      sload\n      dup2\n      lt\n      tag_73\n      jumpi\n      tag_74\n      tag_64\n      jump\t// in\n    tag_74:\n    tag_73:\n      swap1\n      0x00\n      mstore\n      keccak256(0x00, 0x20)\n      add\n      0x00\n      swap1\n      sload\n      swap1\n      0x0100\n      exp\n      swap1\n      div\n      0xffffffffffffffffffffffffffffffffffffffff\n      and\n        /* \"crowdfunding.sol\":3114:3143  calcJoinNum[num-1][i] == addr */\n      0xffffffffffffffffffffffffffffffffffffffff\n      and\n      eq\n        /* \"crowdfunding.sol\":3111:3271  if(calcJoinNum[num-1][i] == addr){\r... */\n      iszero\n      tag_76\n      jumpi\n      jump(tag_77)\n    tag_76:\n        /* \"crowdfunding.sol\":3206:3207  1 */\n      0x01\n        /* \"crowdfunding.sol\":3183:3187  list */\n      dup1\n        /* \"crowdfunding.sol\":3192:3193  1 */\n      0x01\n        /* \"crowdfunding.sol\":3188:3191  num */\n      dup7\n        /* \"crowdfunding.sol\":3188:3193  num-1 */\n      tag_78\n      swap2\n      swap1\n      tag_61\n      jump\t// in\n    tag_78:\n        /* \"crowdfunding.sol\":3183:3194  list[num-1] */\n      dup2\n      sload\n      dup2\n      lt\n      tag_79\n      jumpi\n      tag_80\n      tag_64\n      jump\t// in\n    tag_80:\n    tag_79:\n      swap1\n      0x00\n      mstore\n      keccak256(0x00, 0x20)\n      swap1\n      0x08\n      mul\n      add\n        /* \"crowdfunding.sol\":3183:3202  list[num-1].joinNum */\n      0x05\n      add\n      0x00\n        /* \"crowdfunding.sol\":3183:3207  list[num-1].joinNum += 1 */\n      dup3\n      dup3\n      sload\n      tag_82\n      swap2\n      swap1\n      tag_83\n      jump\t// in\n    tag_82:\n      swap3\n      pop\n      pop\n      dup2\n      swap1\n      sstore\n      pop\n        /* \"crowdfunding.sol\":3226:3237  calcJoinNum */\n      0x04\n        /* \"crowdfunding.sol\":3226:3244  calcJoinNum[num-1] */\n      0x00\n        /* \"crowdfunding.sol\":3242:3243  1 */\n      0x01\n        /* \"crowdfunding.sol\":3238:3241  num */\n      dup7\n        /* \"crowdfunding.sol\":3238:3243  num-1 */\n      tag_84\n      swap2\n      swap1\n      tag_61\n      jump\t// in\n    tag_84:\n        /* \"crowdfunding.sol\":3226:3244  calcJoinNum[num-1] */\n      dup2\n      mstore\n      0x20\n      add\n      swap1\n      dup2\n      mstore\n      0x20\n      add\n      0x00\n      keccak256\n        /* \"crowdfunding.sol\":3250:3254  addr */\n      dup3\n        /* \"crowdfunding.sol\":3226:3255  calcJoinNum[num-1].push(addr) */\n      swap1\n      dup1\n      0x01\n      dup2\n      sload\n      add\n      dup1\n      dup3\n      sstore\n      dup1\n      swap2\n      pop\n      pop\n      0x01\n      swap1\n      sub\n      swap1\n      0x00\n      mstore\n      keccak256(0x00, 0x20)\n      add\n      0x00\n      swap1\n      swap2\n      swap1\n      swap2\n      swap1\n      swap2\n      0x0100\n      exp\n      dup2\n      sload\n      dup2\n      0xffffffffffffffffffffffffffffffffffffffff\n      mul\n      not\n      and\n      swap1\n      dup4\n      0xffffffffffffffffffffffffffffffffffffffff\n      and\n      mul\n      or\n      swap1\n      sstore\n      pop\n        /* \"crowdfunding.sol\":3111:3271  if(calcJoinNum[num-1][i] == addr){\r... */\n    tag_77:\n        /* \"crowdfunding.sol\":3339:3345  amount */\n      dup3\n        /* \"crowdfunding.sol\":3312:3316  list */\n      0x01\n        /* \"crowdfunding.sol\":3321:3322  1 */\n      dup1\n        /* \"crowdfunding.sol\":3317:3320  num */\n      dup7\n        /* \"crowdfunding.sol\":3317:3322  num-1 */\n      tag_86\n      swap2\n      swap1\n      tag_61\n      jump\t// in\n    tag_86:\n        /* \"crowdfunding.sol\":3312:3323  list[num-1] */\n      dup2\n      sload\n      dup2\n      lt\n      tag_87\n      jumpi\n      tag_88\n      tag_64\n      jump\t// in\n    tag_88:\n    tag_87:\n      swap1\n      0x00\n      mstore\n      keccak256(0x00, 0x20)\n      swap1\n      0x08\n      mul\n      add\n        /* \"crowdfunding.sol\":3312:3336  list[num-1].actualAmount */\n      0x07\n      add\n      sload\n        /* \"crowdfunding.sol\":3312:3345  list[num-1].actualAmount + amount */\n      tag_90\n      swap2\n      swap1\n      tag_83\n      jump\t// in\n    tag_90:\n        /* \"crowdfunding.sol\":3285:3289  list */\n      0x01\n        /* \"crowdfunding.sol\":3294:3295  1 */\n      dup1\n        /* \"crowdfunding.sol\":3290:3293  num */\n      dup7\n        /* \"crowdfunding.sol\":3290:3295  num-1 */\n      tag_91\n      swap2\n      swap1\n      tag_61\n      jump\t// in\n    tag_91:\n        /* \"crowdfunding.sol\":3285:3296  list[num-1] */\n      dup2\n      sload\n      dup2\n      lt\n      tag_92\n      jumpi\n      tag_93\n      tag_64\n      jump\t// in\n    tag_93:\n    tag_92:\n      swap1\n      0x00\n      mstore\n      keccak256(0x00, 0x20)\n      swap1\n      0x08\n      mul\n      add\n        /* \"crowdfunding.sol\":3285:3309  list[num-1].actualAmount */\n      0x07\n      add\n        /* \"crowdfunding.sol\":3285:3345  list[num-1].actualAmount = list[num-1].actualAmount + amount */\n      dup2\n      swap1\n      sstore\n      pop\n        /* \"crowdfunding.sol\":3092:3095  i++ */\n      dup1\n      dup1\n      tag_95\n      swap1\n      tag_96\n      jump\t// in\n    tag_95:\n      swap2\n      pop\n      pop\n        /* \"crowdfunding.sol\":3048:3357  for(uint i = 0; i < calcJoinNum[num].length;i++){\r... */\n      jump(tag_69)\n    tag_70:\n      pop\n        /* \"crowdfunding.sol\":3398:3402  list */\n      0x01\n        /* \"crowdfunding.sol\":3407:3408  1 */\n      dup1\n        /* \"crowdfunding.sol\":3403:3406  num */\n      dup5\n        /* \"crowdfunding.sol\":3403:3408  num-1 */\n      tag_97\n      swap2\n      swap1\n      tag_61\n      jump\t// in\n    tag_97:\n        /* \"crowdfunding.sol\":3398:3409  list[num-1] */\n      dup2\n      sload\n      dup2\n      lt\n      tag_98\n      jumpi\n      tag_99\n      tag_64\n      jump\t// in\n    tag_99:\n    tag_98:\n      swap1\n      0x00\n      mstore\n      keccak256(0x00, 0x20)\n      swap1\n      0x08\n      mul\n      add\n        /* \"crowdfunding.sol\":3398:3421  list[num-1].expectAmout */\n      0x06\n      add\n      sload\n        /* \"crowdfunding.sol\":3370:3374  list */\n      0x01\n        /* \"crowdfunding.sol\":3379:3380  1 */\n      dup1\n        /* \"crowdfunding.sol\":3375:3378  num */\n      dup6\n        /* \"crowdfunding.sol\":3375:3380  num-1 */\n      tag_101\n      swap2\n      swap1\n      tag_61\n      jump\t// in\n    tag_101:\n        /* \"crowdfunding.sol\":3370:3381  list[num-1] */\n      dup2\n      sload\n      dup2\n      lt\n      tag_102\n      jumpi\n      tag_103\n      tag_64\n      jump\t// in\n    tag_103:\n    tag_102:\n      swap1\n      0x00\n      mstore\n      keccak256(0x00, 0x20)\n      swap1\n      0x08\n      mul\n      add\n        /* \"crowdfunding.sol\":3370:3394  list[num-1].actualAmount */\n      0x07\n      add\n      sload\n        /* \"crowdfunding.sol\":3370:3421  list[num-1].actualAmount >= list[num-1].expectAmout */\n      lt\n        /* \"crowdfunding.sol\":3367:3577  if(list[num-1].actualAmount >= list[num-1].expectAmout){\r... */\n      tag_105\n      jumpi\n        /* \"crowdfunding.sol\":3525:3526  2 */\n      0x02\n        /* \"crowdfunding.sol\":3504:3508  list */\n      0x01\n        /* \"crowdfunding.sol\":3513:3514  1 */\n      dup1\n        /* \"crowdfunding.sol\":3509:3512  num */\n      dup6\n        /* \"crowdfunding.sol\":3509:3514  num-1 */\n      tag_106\n      swap2\n      swap1\n      tag_61\n      jump\t// in\n    tag_106:\n        /* \"crowdfunding.sol\":3504:3515  list[num-1] */\n      dup2\n      sload\n      dup2\n      lt\n      tag_107\n      jumpi\n      tag_108\n      tag_64\n      jump\t// in\n    tag_108:\n    tag_107:\n      swap1\n      0x00\n      mstore\n      keccak256(0x00, 0x20)\n      swap1\n      0x08\n      mul\n      add\n        /* \"crowdfunding.sol\":3504:3522  list[num-1].status */\n      0x02\n      add\n        /* \"crowdfunding.sol\":3504:3526  list[num-1].status = 2 */\n      dup2\n      swap1\n      sstore\n      pop\n        /* \"crowdfunding.sol\":3367:3577  if(list[num-1].actualAmount >= list[num-1].expectAmout){\r... */\n    tag_105:\n        /* \"crowdfunding.sol\":2981:3584  function join(uint num,uint amount,address addr) public {\r... */\n      pop\n      pop\n      pop\n      jump\t// out\n        /* \"crowdfunding.sol\":2175:2767  function setStatus(uint num) public {\r... */\n    tag_29:\n        /* \"crowdfunding.sol\":2243:2244  3 */\n      0x03\n        /* \"crowdfunding.sol\":2222:2226  list */\n      0x01\n        /* \"crowdfunding.sol\":2231:2232  1 */\n      dup1\n        /* \"crowdfunding.sol\":2227:2230  num */\n      dup4\n        /* \"crowdfunding.sol\":2227:2232  num-1 */\n      tag_111\n      swap2\n      swap1\n      tag_61\n      jump\t// in\n    tag_111:\n        /* \"crowdfunding.sol\":2222:2233  list[num-1] */\n      dup2\n      sload\n      dup2\n      lt\n      tag_112\n      jumpi\n      tag_113\n      tag_64\n      jump\t// in\n    tag_113:\n    tag_112:\n      swap1\n      0x00\n      mstore\n      keccak256(0x00, 0x20)\n      swap1\n      0x08\n      mul\n      add\n        /* \"crowdfunding.sol\":2222:2240  list[num-1].status */\n      0x02\n      add\n        /* \"crowdfunding.sol\":2222:2244  list[num-1].status = 3 */\n      dup2\n      swap1\n      sstore\n      pop\n        /* \"crowdfunding.sol\":2353:2354  1 */\n      0x01\n        /* \"crowdfunding.sol\":2321:2339  filterDataByStatus */\n      0x02\n        /* \"crowdfunding.sol\":2321:2342  filterDataByStatus[1] */\n      0x00\n        /* \"crowdfunding.sol\":2340:2341  1 */\n      0x01\n        /* \"crowdfunding.sol\":2321:2342  filterDataByStatus[1] */\n      dup2\n      mstore\n      0x20\n      add\n      swap1\n      dup2\n      mstore\n      0x20\n      add\n      0x00\n      keccak256\n        /* \"crowdfunding.sol\":2321:2349  filterDataByStatus[1].length */\n      dup1\n      sload\n      swap1\n      pop\n        /* \"crowdfunding.sol\":2321:2354  filterDataByStatus[1].length == 1 */\n      eq\n        /* \"crowdfunding.sol\":2318:2710  if(filterDataByStatus[1].length == 1){\r... */\n      iszero\n      tag_115\n      jumpi\n        /* \"crowdfunding.sol\":2370:2388  filterDataByStatus */\n      0x02\n        /* \"crowdfunding.sol\":2370:2391  filterDataByStatus[1] */\n      0x00\n        /* \"crowdfunding.sol\":2389:2390  1 */\n      0x01\n        /* \"crowdfunding.sol\":2370:2391  filterDataByStatus[1] */\n      dup2\n      mstore\n      0x20\n      add\n      swap1\n      dup2\n      mstore\n      0x20\n      add\n      0x00\n      keccak256\n        /* \"crowdfunding.sol\":2370:2397  filterDataByStatus[1].pop() */\n      dup1\n      sload\n      dup1\n      tag_116\n      jumpi\n      tag_117\n      tag_118\n      jump\t// in\n    tag_117:\n    tag_116:\n      0x01\n      swap1\n      sub\n      dup2\n      dup2\n      swap1\n      0x00\n      mstore\n      keccak256(0x00, 0x20)\n      swap1\n      0x08\n      mul\n      add\n      0x00\n      dup1\n      dup3\n      add\n      0x00\n      swap1\n      sstore\n      0x01\n      dup3\n      add\n      0x00\n      tag_120\n      swap2\n      swap1\n      tag_121\n      jump\t// in\n    tag_120:\n      0x02\n      dup3\n      add\n      0x00\n      swap1\n      sstore\n      0x03\n      dup3\n      add\n      exp(0x0100, 0x00)\n      dup2\n      sload\n      swap1\n      0xffffffffffffffffffffffffffffffffffffffff\n      mul\n      not\n      and\n      swap1\n      sstore\n      0x04\n      dup3\n      add\n      exp(0x0100, 0x00)\n      dup2\n      sload\n      swap1\n      0xffffffffffffffffffffffffffffffffffffffff\n      mul\n      not\n      and\n      swap1\n      sstore\n      0x05\n      dup3\n      add\n      0x00\n      swap1\n      sstore\n      0x06\n      dup3\n      add\n      0x00\n      swap1\n      sstore\n      0x07\n      dup3\n      add\n      0x00\n      swap1\n      sstore\n      pop\n      pop\n      swap1\n      sstore\n        /* \"crowdfunding.sol\":2318:2710  if(filterDataByStatus[1].length == 1){\r... */\n      jump(tag_122)\n    tag_115:\n        /* \"crowdfunding.sol\":2432:2438  uint i */\n      0x00\n        /* \"crowdfunding.sol\":2428:2657  for(uint i = 0; i < filterDataByStatus[1].length - 1; i++) {\r... */\n    tag_123:\n        /* \"crowdfunding.sol\":2479:2480  1 */\n      0x01\n        /* \"crowdfunding.sol\":2448:2466  filterDataByStatus */\n      0x02\n        /* \"crowdfunding.sol\":2448:2469  filterDataByStatus[1] */\n      0x00\n        /* \"crowdfunding.sol\":2467:2468  1 */\n      0x01\n        /* \"crowdfunding.sol\":2448:2469  filterDataByStatus[1] */\n      dup2\n      mstore\n      0x20\n      add\n      swap1\n      dup2\n      mstore\n      0x20\n      add\n      0x00\n      keccak256\n        /* \"crowdfunding.sol\":2448:2476  filterDataByStatus[1].length */\n      dup1\n      sload\n      swap1\n      pop\n        /* \"crowdfunding.sol\":2448:2480  filterDataByStatus[1].length - 1 */\n      tag_126\n      swap2\n      swap1\n      tag_61\n      jump\t// in\n    tag_126:\n        /* \"crowdfunding.sol\":2444:2445  i */\n      dup2\n        /* \"crowdfunding.sol\":2444:2480  i < filterDataByStatus[1].length - 1 */\n      lt\n        /* \"crowdfunding.sol\":2428:2657  for(uint i = 0; i < filterDataByStatus[1].length - 1; i++) {\r... */\n      iszero\n      tag_124\n      jumpi\n        /* \"crowdfunding.sol\":2541:2544  num */\n      dup2\n        /* \"crowdfunding.sol\":2509:2527  filterDataByStatus */\n      0x02\n        /* \"crowdfunding.sol\":2509:2530  filterDataByStatus[1] */\n      0x00\n        /* \"crowdfunding.sol\":2528:2529  1 */\n      0x01\n        /* \"crowdfunding.sol\":2509:2530  filterDataByStatus[1] */\n      dup2\n      mstore\n      0x20\n      add\n      swap1\n      dup2\n      mstore\n      0x20\n      add\n      0x00\n      keccak256\n        /* \"crowdfunding.sol\":2531:2532  i */\n      dup3\n        /* \"crowdfunding.sol\":2509:2533  filterDataByStatus[1][i] */\n      dup2\n      sload\n      dup2\n      lt\n      tag_127\n      jumpi\n      tag_128\n      tag_64\n      jump\t// in\n    tag_128:\n    tag_127:\n      swap1\n      0x00\n      mstore\n      keccak256(0x00, 0x20)\n      swap1\n      0x08\n      mul\n      add\n        /* \"crowdfunding.sol\":2509:2537  filterDataByStatus[1][i].num */\n      0x00\n      add\n      sload\n        /* \"crowdfunding.sol\":2509:2544  filterDataByStatus[1][i].num == num */\n      eq\n        /* \"crowdfunding.sol\":2506:2642  if(filterDataByStatus[1][i].num == num) {\r... */\n      iszero\n      tag_130\n      jumpi\n        /* \"crowdfunding.sol\":2596:2614  filterDataByStatus */\n      0x02\n        /* \"crowdfunding.sol\":2596:2617  filterDataByStatus[1] */\n      0x00\n        /* \"crowdfunding.sol\":2615:2616  1 */\n      0x01\n        /* \"crowdfunding.sol\":2596:2617  filterDataByStatus[1] */\n      dup2\n      mstore\n      0x20\n      add\n      swap1\n      dup2\n      mstore\n      0x20\n      add\n      0x00\n      keccak256\n        /* \"crowdfunding.sol\":2620:2621  1 */\n      0x01\n        /* \"crowdfunding.sol\":2618:2619  i */\n      dup3\n        /* \"crowdfunding.sol\":2618:2621  i+1 */\n      tag_131\n      swap2\n      swap1\n      tag_83\n      jump\t// in\n    tag_131:\n        /* \"crowdfunding.sol\":2596:2622  filterDataByStatus[1][i+1] */\n      dup2\n      sload\n      dup2\n      lt\n      tag_132\n      jumpi\n      tag_133\n      tag_64\n      jump\t// in\n    tag_133:\n    tag_132:\n      swap1\n      0x00\n      mstore\n      keccak256(0x00, 0x20)\n      swap1\n      0x08\n      mul\n      add\n        /* \"crowdfunding.sol\":2569:2587  filterDataByStatus */\n      0x02\n        /* \"crowdfunding.sol\":2569:2590  filterDataByStatus[1] */\n      0x00\n        /* \"crowdfunding.sol\":2588:2589  1 */\n      0x01\n        /* \"crowdfunding.sol\":2569:2590  filterDataByStatus[1] */\n      dup2\n      mstore\n      0x20\n      add\n      swap1\n      dup2\n      mstore\n      0x20\n      add\n      0x00\n      keccak256\n        /* \"crowdfunding.sol\":2591:2592  i */\n      dup3\n        /* \"crowdfunding.sol\":2569:2593  filterDataByStatus[1][i] */\n      dup2\n      sload\n      dup2\n      lt\n      tag_135\n      jumpi\n      tag_136\n      tag_64\n      jump\t// in\n    tag_136:\n    tag_135:\n      swap1\n      0x00\n      mstore\n      keccak256(0x00, 0x20)\n      swap1\n      0x08\n      mul\n      add\n        /* \"crowdfunding.sol\":2569:2622  filterDataByStatus[1][i] = filterDataByStatus[1][i+1] */\n      0x00\n      dup3\n      add\n      sload\n      dup2\n      0x00\n      add\n      sstore\n      0x01\n      dup3\n      add\n      dup2\n      0x01\n      add\n      swap1\n      dup1\n      sload\n      tag_138\n      swap1\n      tag_54\n      jump\t// in\n    tag_138:\n      tag_139\n      swap3\n      swap2\n      swap1\n      tag_140\n      jump\t// in\n    tag_139:\n      pop\n      0x02\n      dup3\n      add\n      sload\n      dup2\n      0x02\n      add\n      sstore\n      0x03\n      dup3\n      add\n      0x00\n      swap1\n      sload\n      swap1\n      0x0100\n      exp\n      swap1\n      div\n      0xffffffffffffffffffffffffffffffffffffffff\n      and\n      dup2\n      0x03\n      add\n      exp(0x0100, 0x00)\n      dup2\n      sload\n      dup2\n      0xffffffffffffffffffffffffffffffffffffffff\n      mul\n      not\n      and\n      swap1\n      dup4\n      0xffffffffffffffffffffffffffffffffffffffff\n      and\n      mul\n      or\n      swap1\n      sstore\n      pop\n      0x04\n      dup3\n      add\n      0x00\n      swap1\n      sload\n      swap1\n      0x0100\n      exp\n      swap1\n      div\n      0xffffffffffffffffffffffffffffffffffffffff\n      and\n      dup2\n      0x04\n      add\n      exp(0x0100, 0x00)\n      dup2\n      sload\n      dup2\n      0xffffffffffffffffffffffffffffffffffffffff\n      mul\n      not\n      and\n      swap1\n      dup4\n      0xffffffffffffffffffffffffffffffffffffffff\n      and\n      mul\n      or\n      swap1\n      sstore\n      pop\n      0x05\n      dup3\n      add\n      sload\n      dup2\n      0x05\n      add\n      sstore\n      0x06\n      dup3\n      add\n      sload\n      dup2\n      0x06\n      add\n      sstore\n      0x07\n      dup3\n      add\n      sload\n      dup2\n      0x07\n      add\n      sstore\n      swap1\n      pop\n      pop\n        /* \"crowdfunding.sol\":2506:2642  if(filterDataByStatus[1][i].num == num) {\r... */\n    tag_130:\n        /* \"crowdfunding.sol\":2482:2485  i++ */\n      dup1\n      dup1\n      tag_141\n      swap1\n      tag_96\n      jump\t// in\n    tag_141:\n      swap2\n      pop\n      pop\n        /* \"crowdfunding.sol\":2428:2657  for(uint i = 0; i < filterDataByStatus[1].length - 1; i++) {\r... */\n      jump(tag_123)\n    tag_124:\n      pop\n        /* \"crowdfunding.sol\":2671:2689  filterDataByStatus */\n      0x02\n        /* \"crowdfunding.sol\":2671:2692  filterDataByStatus[1] */\n      0x00\n        /* \"crowdfunding.sol\":2690:2691  1 */\n      0x01\n        /* \"crowdfunding.sol\":2671:2692  filterDataByStatus[1] */\n      dup2\n      mstore\n      0x20\n      add\n      swap1\n      dup2\n      mstore\n      0x20\n      add\n      0x00\n      keccak256\n        /* \"crowdfunding.sol\":2671:2698  filterDataByStatus[1].pop() */\n      dup1\n      sload\n      dup1\n      tag_142\n      jumpi\n      tag_143\n      tag_118\n      jump\t// in\n    tag_143:\n    tag_142:\n      0x01\n      swap1\n      sub\n      dup2\n      dup2\n      swap1\n      0x00\n      mstore\n      keccak256(0x00, 0x20)\n      swap1\n      0x08\n      mul\n      add\n      0x00\n      dup1\n      dup3\n      add\n      0x00\n      swap1\n      sstore\n      0x01\n      dup3\n      add\n      0x00\n      tag_145\n      swap2\n      swap1\n      tag_121\n      jump\t// in\n    tag_145:\n      0x02\n      dup3\n      add\n      0x00\n      swap1\n      sstore\n      0x03\n      dup3\n      add\n      exp(0x0100, 0x00)\n      dup2\n      sload\n      swap1\n      0xffffffffffffffffffffffffffffffffffffffff\n      mul\n      not\n      and\n      swap1\n      sstore\n      0x04\n      dup3\n      add\n      exp(0x0100, 0x00)\n      dup2\n      sload\n      swap1\n      0xffffffffffffffffffffffffffffffffffffffff\n      mul\n      not\n      and\n      swap1\n      sstore\n      0x05\n      dup3\n      add\n      0x00\n      swap1\n      sstore\n      0x06\n      dup3\n      add\n      0x00\n      swap1\n      sstore\n      0x07\n      dup3\n      add\n      0x00\n      swap1\n      sstore\n      pop\n      pop\n      swap1\n      sstore\n        /* \"crowdfunding.sol\":2318:2710  if(filterDataByStatus[1].length == 1){\r... */\n    tag_122:\n        /* \"crowdfunding.sol\":2720:2738  filterDataByStatus */\n      0x02\n        /* \"crowdfunding.sol\":2720:2741  filterDataByStatus[3] */\n      0x00\n        /* \"crowdfunding.sol\":2739:2740  3 */\n      0x03\n        /* \"crowdfunding.sol\":2720:2741  filterDataByStatus[3] */\n      dup2\n      mstore\n      0x20\n      add\n      swap1\n      dup2\n      mstore\n      0x20\n      add\n      0x00\n      keccak256\n        /* \"crowdfunding.sol\":2747:2751  list */\n      0x01\n        /* \"crowdfunding.sol\":2756:2757  1 */\n      dup1\n        /* \"crowdfunding.sol\":2752:2755  num */\n      dup4\n        /* \"crowdfunding.sol\":2752:2757  num-1 */\n      tag_146\n      swap2\n      swap1\n      tag_61\n      jump\t// in\n    tag_146:\n        /* \"crowdfunding.sol\":2747:2758  list[num-1] */\n      dup2\n      sload\n      dup2\n      lt\n      tag_147\n      jumpi\n      tag_148\n      tag_64\n      jump\t// in\n    tag_148:\n    tag_147:\n      swap1\n      0x00\n      mstore\n      keccak256(0x00, 0x20)\n      swap1\n      0x08\n      mul\n      add\n        /* \"crowdfunding.sol\":2720:2759  filterDataByStatus[3].push(list[num-1]) */\n      swap1\n      dup1\n      0x01\n      dup2\n      sload\n      add\n      dup1\n      dup3\n      sstore\n      dup1\n      swap2\n      pop\n      pop\n      0x01\n      swap1\n      sub\n      swap1\n      0x00\n      mstore\n      keccak256(0x00, 0x20)\n      swap1\n      0x08\n      mul\n      add\n      0x00\n      swap1\n      swap2\n      swap1\n      swap2\n      swap1\n      swap2\n      pop\n      0x00\n      dup3\n      add\n      sload\n      dup2\n      0x00\n      add\n      sstore\n      0x01\n      dup3\n      add\n      dup2\n      0x01\n      add\n      swap1\n      dup1\n      sload\n      tag_151\n      swap1\n      tag_54\n      jump\t// in\n    tag_151:\n      tag_152\n      swap3\n      swap2\n      swap1\n      tag_140\n      jump\t// in\n    tag_152:\n      pop\n      0x02\n      dup3\n      add\n      sload\n      dup2\n      0x02\n      add\n      sstore\n      0x03\n      dup3\n      add\n      0x00\n      swap1\n      sload\n      swap1\n      0x0100\n      exp\n      swap1\n      div\n      0xffffffffffffffffffffffffffffffffffffffff\n      and\n      dup2\n      0x03\n      add\n      exp(0x0100, 0x00)\n      dup2\n      sload\n      dup2\n      0xffffffffffffffffffffffffffffffffffffffff\n      mul\n      not\n      and\n      swap1\n      dup4\n      0xffffffffffffffffffffffffffffffffffffffff\n      and\n      mul\n      or\n      swap1\n      sstore\n      pop\n      0x04\n      dup3\n      add\n      0x00\n      swap1\n      sload\n      swap1\n      0x0100\n      exp\n      swap1\n      div\n      0xffffffffffffffffffffffffffffffffffffffff\n      and\n      dup2\n      0x04\n      add\n      exp(0x0100, 0x00)\n      dup2\n      sload\n      dup2\n      0xffffffffffffffffffffffffffffffffffffffff\n      mul\n      not\n      and\n      swap1\n      dup4\n      0xffffffffffffffffffffffffffffffffffffffff\n      and\n      mul\n      or\n      swap1\n      sstore\n      pop\n      0x05\n      dup3\n      add\n      sload\n      dup2\n      0x05\n      add\n      sstore\n      0x06\n      dup3\n      add\n      sload\n      dup2\n      0x06\n      add\n      sstore\n      0x07\n      dup3\n      add\n      sload\n      dup2\n      0x07\n      add\n      sstore\n      pop\n      pop\n        /* \"crowdfunding.sol\":2175:2767  function setStatus(uint num) public {\r... */\n      pop\n      jump\t// out\n        /* \"crowdfunding.sol\":809:835  Crowdfunding[] public list */\n    tag_32:\n      0x01\n      dup2\n      dup2\n      sload\n      dup2\n      lt\n      tag_153\n      jumpi\n      0x00\n      dup1\n      revert\n    tag_153:\n      swap1\n      0x00\n      mstore\n      keccak256(0x00, 0x20)\n      swap1\n      0x08\n      mul\n      add\n      0x00\n      swap2\n      pop\n      swap1\n      pop\n      dup1\n      0x00\n      add\n      sload\n      swap1\n      dup1\n      0x01\n      add\n      dup1\n      sload\n      tag_155\n      swap1\n      tag_54\n      jump\t// in\n    tag_155:\n      dup1\n      0x1f\n      add\n      0x20\n      dup1\n      swap2\n      div\n      mul\n      0x20\n      add\n      mload(0x40)\n      swap1\n      dup2\n      add\n      0x40\n      mstore\n      dup1\n      swap3\n      swap2\n      swap1\n      dup2\n      dup2\n      mstore\n      0x20\n      add\n      dup3\n      dup1\n      sload\n      tag_156\n      swap1\n      tag_54\n      jump\t// in\n    tag_156:\n      dup1\n      iszero\n      tag_157\n      jumpi\n      dup1\n      0x1f\n      lt\n      tag_158\n      jumpi\n      0x0100\n      dup1\n      dup4\n      sload\n      div\n      mul\n      dup4\n      mstore\n      swap2\n      0x20\n      add\n      swap2\n      jump(tag_157)\n    tag_158:\n      dup3\n      add\n      swap2\n      swap1\n      0x00\n      mstore\n      keccak256(0x00, 0x20)\n      swap1\n    tag_159:\n      dup2\n      sload\n      dup2\n      mstore\n      swap1\n      0x01\n      add\n      swap1\n      0x20\n      add\n      dup1\n      dup4\n      gt\n      tag_159\n      jumpi\n      dup3\n      swap1\n      sub\n      0x1f\n      and\n      dup3\n      add\n      swap2\n    tag_157:\n      pop\n      pop\n      pop\n      pop\n      pop\n      swap1\n      dup1\n      0x02\n      add\n      sload\n      swap1\n      dup1\n      0x03\n      add\n      0x00\n      swap1\n      sload\n      swap1\n      0x0100\n      exp\n      swap1\n      div\n      0xffffffffffffffffffffffffffffffffffffffff\n      and\n      swap1\n      dup1\n      0x04\n      add\n      0x00\n      swap1\n      sload\n      swap1\n      0x0100\n      exp\n      swap1\n      div\n      0xffffffffffffffffffffffffffffffffffffffff\n      and\n      swap1\n      dup1\n      0x05\n      add\n      sload\n      swap1\n      dup1\n      0x06\n      add\n      sload\n      swap1\n      dup1\n      0x07\n      add\n      sload\n      swap1\n      pop\n      dup9\n      jump\t// out\n        /* \"crowdfunding.sol\":3636:3819  function getCrowdfundingByStatus(uint _status) public view returns (Crowdfunding[] memory) {\r... */\n    tag_37:\n        /* \"crowdfunding.sol\":3704:3725  Crowdfunding[] memory */\n      0x60\n        /* \"crowdfunding.sol\":3752:3753  0 */\n      0x00\n        /* \"crowdfunding.sol\":3741:3748  _status */\n      dup3\n        /* \"crowdfunding.sol\":3741:3753  _status == 0 */\n      eq\n        /* \"crowdfunding.sol\":3738:3766  if(_status == 0) return list */\n      iszero\n      tag_161\n      jumpi\n        /* \"crowdfunding.sol\":3762:3766  list */\n      0x01\n        /* \"crowdfunding.sol\":3755:3766  return list */\n      dup1\n      sload\n      dup1\n      0x20\n      mul\n      0x20\n      add\n      mload(0x40)\n      swap1\n      dup2\n      add\n      0x40\n      mstore\n      dup1\n      swap3\n      swap2\n      swap1\n      dup2\n      dup2\n      mstore\n      0x20\n      add\n      0x00\n      swap1\n    tag_162:\n      dup3\n      dup3\n      lt\n      iszero\n      tag_163\n      jumpi\n      dup4\n      dup3\n      swap1\n      0x00\n      mstore\n      keccak256(0x00, 0x20)\n      swap1\n      0x08\n      mul\n      add\n      mload(0x40)\n      dup1\n      0x0100\n      add\n      0x40\n      mstore\n      swap1\n      dup2\n      0x00\n      dup3\n      add\n      sload\n      dup2\n      mstore\n      0x20\n      add\n      0x01\n      dup3\n      add\n      dup1\n      sload\n      tag_165\n      swap1\n      tag_54\n      jump\t// in\n    tag_165:\n      dup1\n      0x1f\n      add\n      0x20\n      dup1\n      swap2\n      div\n      mul\n      0x20\n      add\n      mload(0x40)\n      swap1\n      dup2\n      add\n      0x40\n      mstore\n      dup1\n      swap3\n      swap2\n      swap1\n      dup2\n      dup2\n      mstore\n      0x20\n      add\n      dup3\n      dup1\n      sload\n      tag_166\n      swap1\n      tag_54\n      jump\t// in\n    tag_166:\n      dup1\n      iszero\n      tag_167\n      jumpi\n      dup1\n      0x1f\n      lt\n      tag_168\n      jumpi\n      0x0100\n      dup1\n      dup4\n      sload\n      div\n      mul\n      dup4\n      mstore\n      swap2\n      0x20\n      add\n      swap2\n      jump(tag_167)\n    tag_168:\n      dup3\n      add\n      swap2\n      swap1\n      0x00\n      mstore\n      keccak256(0x00, 0x20)\n      swap1\n    tag_169:\n      dup2\n      sload\n      dup2\n      mstore\n      swap1\n      0x01\n      add\n      swap1\n      0x20\n      add\n      dup1\n      dup4\n      gt\n      tag_169\n      jumpi\n      dup3\n      swap1\n      sub\n      0x1f\n      and\n      dup3\n      add\n      swap2\n    tag_167:\n      pop\n      pop\n      pop\n      pop\n      pop\n      dup2\n      mstore\n      0x20\n      add\n      0x02\n      dup3\n      add\n      sload\n      dup2\n      mstore\n      0x20\n      add\n      0x03\n      dup3\n      add\n      0x00\n      swap1\n      sload\n      swap1\n      0x0100\n      exp\n      swap1\n      div\n      0xffffffffffffffffffffffffffffffffffffffff\n      and\n      0xffffffffffffffffffffffffffffffffffffffff\n      and\n      0xffffffffffffffffffffffffffffffffffffffff\n      and\n      dup2\n      mstore\n      0x20\n      add\n      0x04\n      dup3\n      add\n      0x00\n      swap1\n      sload\n      swap1\n      0x0100\n      exp\n      swap1\n      div\n      0xffffffffffffffffffffffffffffffffffffffff\n      and\n      0xffffffffffffffffffffffffffffffffffffffff\n      and\n      0xffffffffffffffffffffffffffffffffffffffff\n      and\n      dup2\n      mstore\n      0x20\n      add\n      0x05\n      dup3\n      add\n      sload\n      dup2\n      mstore\n      0x20\n      add\n      0x06\n      dup3\n      add\n      sload\n      dup2\n      mstore\n      0x20\n      add\n      0x07\n      dup3\n      add\n      sload\n      dup2\n      mstore\n      pop\n      pop\n      dup2\n      mstore\n      0x20\n      add\n      swap1\n      0x01\n      add\n      swap1\n      jump(tag_162)\n    tag_163:\n      pop\n      pop\n      pop\n      pop\n      swap1\n      pop\n      jump(tag_160)\n        /* \"crowdfunding.sol\":3738:3766  if(_status == 0) return list */\n    tag_161:\n        /* \"crowdfunding.sol\":3784:3802  filterDataByStatus */\n      0x02\n        /* \"crowdfunding.sol\":3784:3811  filterDataByStatus[_status] */\n      0x00\n        /* \"crowdfunding.sol\":3803:3810  _status */\n      dup4\n        /* \"crowdfunding.sol\":3784:3811  filterDataByStatus[_status] */\n      dup2\n      mstore\n      0x20\n      add\n      swap1\n      dup2\n      mstore\n      0x20\n      add\n      0x00\n      keccak256\n        /* \"crowdfunding.sol\":3777:3811  return filterDataByStatus[_status] */\n      dup1\n      sload\n      dup1\n      0x20\n      mul\n      0x20\n      add\n      mload(0x40)\n      swap1\n      dup2\n      add\n      0x40\n      mstore\n      dup1\n      swap3\n      swap2\n      swap1\n      dup2\n      dup2\n      mstore\n      0x20\n      add\n      0x00\n      swap1\n    tag_170:\n      dup3\n      dup3\n      lt\n      iszero\n      tag_171\n      jumpi\n      dup4\n      dup3\n      swap1\n      0x00\n      mstore\n      keccak256(0x00, 0x20)\n      swap1\n      0x08\n      mul\n      add\n      mload(0x40)\n      dup1\n      0x0100\n      add\n      0x40\n      mstore\n      swap1\n      dup2\n      0x00\n      dup3\n      add\n      sload\n      dup2\n      mstore\n      0x20\n      add\n      0x01\n      dup3\n      add\n      dup1\n      sload\n      tag_173\n      swap1\n      tag_54\n      jump\t// in\n    tag_173:\n      dup1\n      0x1f\n      add\n      0x20\n      dup1\n      swap2\n      div\n      mul\n      0x20\n      add\n      mload(0x40)\n      swap1\n      dup2\n      add\n      0x40\n      mstore\n      dup1\n      swap3\n      swap2\n      swap1\n      dup2\n      dup2\n      mstore\n      0x20\n      add\n      dup3\n      dup1\n      sload\n      tag_174\n      swap1\n      tag_54\n      jump\t// in\n    tag_174:\n      dup1\n      iszero\n      tag_175\n      jumpi\n      dup1\n      0x1f\n      lt\n      tag_176\n      jumpi\n      0x0100\n      dup1\n      dup4\n      sload\n      div\n      mul\n      dup4\n      mstore\n      swap2\n      0x20\n      add\n      swap2\n      jump(tag_175)\n    tag_176:\n      dup3\n      add\n      swap2\n      swap1\n      0x00\n      mstore\n      keccak256(0x00, 0x20)\n      swap1\n    tag_177:\n      dup2\n      sload\n      dup2\n      mstore\n      swap1\n      0x01\n      add\n      swap1\n      0x20\n      add\n      dup1\n      dup4\n      gt\n      tag_177\n      jumpi\n      dup3\n      swap1\n      sub\n      0x1f\n      and\n      dup3\n      add\n      swap2\n    tag_175:\n      pop\n      pop\n      pop\n      pop\n      pop\n      dup2\n      mstore\n      0x20\n      add\n      0x02\n      dup3\n      add\n      sload\n      dup2\n      mstore\n      0x20\n      add\n      0x03\n      dup3\n      add\n      0x00\n      swap1\n      sload\n      swap1\n      0x0100\n      exp\n      swap1\n      div\n      0xffffffffffffffffffffffffffffffffffffffff\n      and\n      0xffffffffffffffffffffffffffffffffffffffff\n      and\n      0xffffffffffffffffffffffffffffffffffffffff\n      and\n      dup2\n      mstore\n      0x20\n      add\n      0x04\n      dup3\n      add\n      0x00\n      swap1\n      sload\n      swap1\n      0x0100\n      exp\n      swap1\n      div\n      0xffffffffffffffffffffffffffffffffffffffff\n      and\n      0xffffffffffffffffffffffffffffffffffffffff\n      and\n      0xffffffffffffffffffffffffffffffffffffffff\n      and\n      dup2\n      mstore\n      0x20\n      add\n      0x05\n      dup3\n      add\n      sload\n      dup2\n      mstore\n      0x20\n      add\n      0x06\n      dup3\n      add\n      sload\n      dup2\n      mstore\n      0x20\n      add\n      0x07\n      dup3\n      add\n      sload\n      dup2\n      mstore\n      pop\n      pop\n      dup2\n      mstore\n      0x20\n      add\n      swap1\n      0x01\n      add\n      swap1\n      jump(tag_170)\n    tag_171:\n      pop\n      pop\n      pop\n      pop\n      swap1\n      pop\n        /* \"crowdfunding.sol\":3636:3819  function getCrowdfundingByStatus(uint _status) public view returns (Crowdfunding[] memory) {\r... */\n    tag_160:\n      swap2\n      swap1\n      pop\n      jump\t// out\n        /* \"crowdfunding.sol\":1469:2096  function createCrowdfunding(string memory _title,address _recipient, string memory _expectAmout) public {\r... */\n    tag_42:\n        /* \"crowdfunding.sol\":1584:1586  No */\n      0x00\n      dup1\n        /* \"crowdfunding.sol\":1584:1588  No++ */\n      dup2\n      sload\n      dup1\n      swap3\n      swap2\n      swap1\n      tag_179\n      swap1\n      tag_96\n      jump\t// in\n    tag_179:\n      swap2\n      swap1\n      pop\n      sstore\n      pop\n        /* \"crowdfunding.sol\":1599:1620  Crowdfunding memory c */\n      0x00\n        /* \"crowdfunding.sol\":1623:1906  Crowdfunding({\r... */\n      mload(0x40)\n      dup1\n      0x0100\n      add\n      0x40\n      mstore\n      dup1\n        /* \"crowdfunding.sol\":1656:1658  No */\n      sload(0x00)\n        /* \"crowdfunding.sol\":1623:1906  Crowdfunding({\r... */\n      dup2\n      mstore\n      0x20\n      add\n        /* \"crowdfunding.sol\":1679:1685  _title */\n      dup6\n        /* \"crowdfunding.sol\":1623:1906  Crowdfunding({\r... */\n      dup2\n      mstore\n      0x20\n      add\n        /* \"crowdfunding.sol\":1708:1709  1 */\n      0x01\n        /* \"crowdfunding.sol\":1623:1906  Crowdfunding({\r... */\n      dup2\n      mstore\n      0x20\n      add\n        /* \"crowdfunding.sol\":1733:1743  msg.sender */\n      caller\n        /* \"crowdfunding.sol\":1623:1906  Crowdfunding({\r... */\n      0xffffffffffffffffffffffffffffffffffffffff\n      and\n      dup2\n      mstore\n      0x20\n      add\n        /* \"crowdfunding.sol\":1769:1779  _recipient */\n      dup5\n        /* \"crowdfunding.sol\":1623:1906  Crowdfunding({\r... */\n      0xffffffffffffffffffffffffffffffffffffffff\n      and\n      dup2\n      mstore\n      0x20\n      add\n        /* \"crowdfunding.sol\":1803:1804  0 */\n      0x00\n        /* \"crowdfunding.sol\":1623:1906  Crowdfunding({\r... */\n      dup2\n      mstore\n      0x20\n      add\n        /* \"crowdfunding.sol\":1839:1864  stringToInt(_expectAmout) */\n      tag_180\n        /* \"crowdfunding.sol\":1851:1863  _expectAmout */\n      dup5\n        /* \"crowdfunding.sol\":1839:1850  stringToInt */\n      tag_46\n        /* \"crowdfunding.sol\":1839:1864  stringToInt(_expectAmout) */\n      jump\t// in\n    tag_180:\n        /* \"crowdfunding.sol\":1623:1906  Crowdfunding({\r... */\n      dup2\n      mstore\n      0x20\n      add\n        /* \"crowdfunding.sol\":1893:1894  0 */\n      0x00\n        /* \"crowdfunding.sol\":1623:1906  Crowdfunding({\r... */\n      dup2\n      mstore\n      pop\n        /* \"crowdfunding.sol\":1599:1906  Crowdfunding memory c = Crowdfunding({\r... */\n      swap1\n      pop\n        /* \"crowdfunding.sol\":1917:1921  list */\n      0x01\n        /* \"crowdfunding.sol\":1927:1928  c */\n      dup2\n        /* \"crowdfunding.sol\":1917:1929  list.push(c) */\n      swap1\n      dup1\n      0x01\n      dup2\n      sload\n      add\n      dup1\n      dup3\n      sstore\n      dup1\n      swap2\n      pop\n      pop\n      0x01\n      swap1\n      sub\n      swap1\n      0x00\n      mstore\n      keccak256(0x00, 0x20)\n      swap1\n      0x08\n      mul\n      add\n      0x00\n      swap1\n      swap2\n      swap1\n      swap2\n      swap1\n      swap2\n      pop\n      0x00\n      dup3\n      add\n      mload\n      dup2\n      0x00\n      add\n      sstore\n      0x20\n      dup3\n      add\n      mload\n      dup2\n      0x01\n      add\n      swap1\n      dup1\n      mload\n      swap1\n      0x20\n      add\n      swap1\n      tag_182\n      swap3\n      swap2\n      swap1\n      tag_67\n      jump\t// in\n    tag_182:\n      pop\n      0x40\n      dup3\n      add\n      mload\n      dup2\n      0x02\n      add\n      sstore\n      0x60\n      dup3\n      add\n      mload\n      dup2\n      0x03\n      add\n      exp(0x0100, 0x00)\n      dup2\n      sload\n      dup2\n      0xffffffffffffffffffffffffffffffffffffffff\n      mul\n      not\n      and\n      swap1\n      dup4\n      0xffffffffffffffffffffffffffffffffffffffff\n      and\n      mul\n      or\n      swap1\n      sstore\n      pop\n      0x80\n      dup3\n      add\n      mload\n      dup2\n      0x04\n      add\n      exp(0x0100, 0x00)\n      dup2\n      sload\n      dup2\n      0xffffffffffffffffffffffffffffffffffffffff\n      mul\n      not\n      and\n      swap1\n      dup4\n      0xffffffffffffffffffffffffffffffffffffffff\n      and\n      mul\n      or\n      swap1\n      sstore\n      pop\n      0xa0\n      dup3\n      add\n      mload\n      dup2\n      0x05\n      add\n      sstore\n      0xc0\n      dup3\n      add\n      mload\n      dup2\n      0x06\n      add\n      sstore\n      0xe0\n      dup3\n      add\n      mload\n      dup2\n      0x07\n      add\n      sstore\n      pop\n      pop\n        /* \"crowdfunding.sol\":2014:2032  filterDataByStatus */\n      0x02\n        /* \"crowdfunding.sol\":2014:2035  filterDataByStatus[1] */\n      0x00\n        /* \"crowdfunding.sol\":2033:2034  1 */\n      0x01\n        /* \"crowdfunding.sol\":2014:2035  filterDataByStatus[1] */\n      dup2\n      mstore\n      0x20\n      add\n      swap1\n      dup2\n      mstore\n      0x20\n      add\n      0x00\n      keccak256\n        /* \"crowdfunding.sol\":2041:2042  c */\n      dup2\n        /* \"crowdfunding.sol\":2014:2043  filterDataByStatus[1].push(c) */\n      swap1\n      dup1\n      0x01\n      dup2\n      sload\n      add\n      dup1\n      dup3\n      sstore\n      dup1\n      swap2\n      pop\n      pop\n      0x01\n      swap1\n      sub\n      swap1\n      0x00\n      mstore\n      keccak256(0x00, 0x20)\n      swap1\n      0x08\n      mul\n      add\n      0x00\n      swap1\n      swap2\n      swap1\n      swap2\n      swap1\n      swap2\n      pop\n      0x00\n      dup3\n      add\n      mload\n      dup2\n      0x00\n      add\n      sstore\n      0x20\n      dup3\n      add\n      mload\n      dup2\n      0x01\n      add\n      swap1\n      dup1\n      mload\n      swap1\n      0x20\n      add\n      swap1\n      tag_184\n      swap3\n      swap2\n      swap1\n      tag_67\n      jump\t// in\n    tag_184:\n      pop\n      0x40\n      dup3\n      add\n      mload\n      dup2\n      0x02\n      add\n      sstore\n      0x60\n      dup3\n      add\n      mload\n      dup2\n      0x03\n      add\n      exp(0x0100, 0x00)\n      dup2\n      sload\n      dup2\n      0xffffffffffffffffffffffffffffffffffffffff\n      mul\n      not\n      and\n      swap1\n      dup4\n      0xffffffffffffffffffffffffffffffffffffffff\n      and\n      mul\n      or\n      swap1\n      sstore\n      pop\n      0x80\n      dup3\n      add\n      mload\n      dup2\n      0x04\n      add\n      exp(0x0100, 0x00)\n      dup2\n      sload\n      dup2\n      0xffffffffffffffffffffffffffffffffffffffff\n      mul\n      not\n      and\n      swap1\n      dup4\n      0xffffffffffffffffffffffffffffffffffffffff\n      and\n      mul\n      or\n      swap1\n      sstore\n      pop\n      0xa0\n      dup3\n      add\n      mload\n      dup2\n      0x05\n      add\n      sstore\n      0xc0\n      dup3\n      add\n      mload\n      dup2\n      0x06\n      add\n      sstore\n      0xe0\n      dup3\n      add\n      mload\n      dup2\n      0x07\n      add\n      sstore\n      pop\n      pop\n        /* \"crowdfunding.sol\":2054:2068  myCrowdfunding */\n      0x03\n        /* \"crowdfunding.sol\":2054:2080  myCrowdfunding[msg.sender] */\n      0x00\n        /* \"crowdfunding.sol\":2069:2079  msg.sender */\n      caller\n        /* \"crowdfunding.sol\":2054:2080  myCrowdfunding[msg.sender] */\n      0xffffffffffffffffffffffffffffffffffffffff\n      and\n      0xffffffffffffffffffffffffffffffffffffffff\n      and\n      dup2\n      mstore\n      0x20\n      add\n      swap1\n      dup2\n      mstore\n      0x20\n      add\n      0x00\n      keccak256\n        /* \"crowdfunding.sol\":2086:2087  c */\n      dup2\n        /* \"crowdfunding.sol\":2054:2088  myCrowdfunding[msg.sender].push(c) */\n      swap1\n      dup1\n      0x01\n      dup2\n      sload\n      add\n      dup1\n      dup3\n      sstore\n      dup1\n      swap2\n      pop\n      pop\n      0x01\n      swap1\n      sub\n      swap1\n      0x00\n      mstore\n      keccak256(0x00, 0x20)\n      swap1\n      0x08\n      mul\n      add\n      0x00\n      swap1\n      swap2\n      swap1\n      swap2\n      swap1\n      swap2\n      pop\n      0x00\n      dup3\n      add\n      mload\n      dup2\n      0x00\n      add\n      sstore\n      0x20\n      dup3\n      add\n      mload\n      dup2\n      0x01\n      add\n      swap1\n      dup1\n      mload\n      swap1\n      0x20\n      add\n      swap1\n      tag_186\n      swap3\n      swap2\n      swap1\n      tag_67\n      jump\t// in\n    tag_186:\n      pop\n      0x40\n      dup3\n      add\n      mload\n      dup2\n      0x02\n      add\n      sstore\n      0x60\n      dup3\n      add\n      mload\n      dup2\n      0x03\n      add\n      exp(0x0100, 0x00)\n      dup2\n      sload\n      dup2\n      0xffffffffffffffffffffffffffffffffffffffff\n      mul\n      not\n      and\n      swap1\n      dup4\n      0xffffffffffffffffffffffffffffffffffffffff\n      and\n      mul\n      or\n      swap1\n      sstore\n      pop\n      0x80\n      dup3\n      add\n      mload\n      dup2\n      0x04\n      add\n      exp(0x0100, 0x00)\n      dup2\n      sload\n      dup2\n      0xffffffffffffffffffffffffffffffffffffffff\n      mul\n      not\n      and\n      swap1\n      dup4\n      0xffffffffffffffffffffffffffffffffffffffff\n      and\n      mul\n      or\n      swap1\n      sstore\n      pop\n      0xa0\n      dup3\n      add\n      mload\n      dup2\n      0x05\n      add\n      sstore\n      0xc0\n      dup3\n      add\n      mload\n      dup2\n      0x06\n      add\n      sstore\n      0xe0\n      dup3\n      add\n      mload\n      dup2\n      0x07\n      add\n      sstore\n      pop\n      pop\n        /* \"crowdfunding.sol\":1573:2096  {\r... */\n      pop\n        /* \"crowdfunding.sol\":1469:2096  function createCrowdfunding(string memory _title,address _recipient, string memory _expectAmout) public {\r... */\n      pop\n      pop\n      pop\n      jump\t// out\n        /* \"crowdfunding.sol\":1091:1461  function stringToInt(string memory s) public pure returns (uint){\r... */\n    tag_46:\n        /* \"crowdfunding.sol\":1150:1154  uint */\n      0x00\n        /* \"crowdfunding.sol\":1166:1180  bytes memory b */\n      dup1\n        /* \"crowdfunding.sol\":1189:1190  s */\n      dup3\n        /* \"crowdfunding.sol\":1166:1191  bytes memory b = bytes(s) */\n      swap1\n      pop\n        /* \"crowdfunding.sol\":1202:1213  uint result */\n      0x00\n        /* \"crowdfunding.sol\":1233:1242  uint256 i */\n      dup1\n        /* \"crowdfunding.sol\":1228:1430  for (uint256 i = 0; i < b.length; i++) {\r... */\n    tag_188:\n        /* \"crowdfunding.sol\":1252:1253  b */\n      dup3\n        /* \"crowdfunding.sol\":1252:1260  b.length */\n      mload\n        /* \"crowdfunding.sol\":1248:1249  i */\n      dup2\n        /* \"crowdfunding.sol\":1248:1260  i < b.length */\n      lt\n        /* \"crowdfunding.sol\":1228:1430  for (uint256 i = 0; i < b.length; i++) {\r... */\n      iszero\n      tag_189\n      jumpi\n        /* \"crowdfunding.sol\":1282:1291  uint256 c */\n      0x00\n        /* \"crowdfunding.sol\":1308:1309  b */\n      dup4\n        /* \"crowdfunding.sol\":1310:1311  i */\n      dup3\n        /* \"crowdfunding.sol\":1308:1312  b[i] */\n      dup2\n      mload\n      dup2\n      lt\n      tag_191\n      jumpi\n      tag_192\n      tag_64\n      jump\t// in\n    tag_192:\n    tag_191:\n      0x20\n      add\n      add\n      mload\n      0xf8\n      shr\n      0xf8\n      shl\n        /* \"crowdfunding.sol\":1302:1313  uint8(b[i]) */\n      0xf8\n      shr\n        /* \"crowdfunding.sol\":1294:1314  uint256(uint8(b[i])) */\n      0xff\n      and\n        /* \"crowdfunding.sol\":1282:1314  uint256 c = uint256(uint8(b[i])) */\n      swap1\n      pop\n        /* \"crowdfunding.sol\":1338:1340  48 */\n      0x30\n        /* \"crowdfunding.sol\":1333:1334  c */\n      dup2\n        /* \"crowdfunding.sol\":1333:1340  c >= 48 */\n      lt\n      iszero\n        /* \"crowdfunding.sol\":1333:1351  c >= 48 && c <= 57 */\n      dup1\n      iszero\n      tag_193\n      jumpi\n      pop\n        /* \"crowdfunding.sol\":1349:1351  57 */\n      0x39\n        /* \"crowdfunding.sol\":1344:1345  c */\n      dup2\n        /* \"crowdfunding.sol\":1344:1351  c <= 57 */\n      gt\n      iszero\n        /* \"crowdfunding.sol\":1333:1351  c >= 48 && c <= 57 */\n    tag_193:\n        /* \"crowdfunding.sol\":1329:1419  if (c >= 48 && c <= 57) {\r... */\n      iszero\n      tag_194\n      jumpi\n        /* \"crowdfunding.sol\":1400:1402  48 */\n      0x30\n        /* \"crowdfunding.sol\":1396:1397  c */\n      dup2\n        /* \"crowdfunding.sol\":1396:1402  c - 48 */\n      tag_195\n      swap2\n      swap1\n      tag_61\n      jump\t// in\n    tag_195:\n        /* \"crowdfunding.sol\":1390:1392  10 */\n      0x0a\n        /* \"crowdfunding.sol\":1381:1387  result */\n      dup5\n        /* \"crowdfunding.sol\":1381:1392  result * 10 */\n      tag_196\n      swap2\n      swap1\n      tag_197\n      jump\t// in\n    tag_196:\n        /* \"crowdfunding.sol\":1381:1403  result * 10 + (c - 48) */\n      tag_198\n      swap2\n      swap1\n      tag_83\n      jump\t// in\n    tag_198:\n        /* \"crowdfunding.sol\":1372:1403  result = result * 10 + (c - 48) */\n      swap3\n      pop\n        /* \"crowdfunding.sol\":1329:1419  if (c >= 48 && c <= 57) {\r... */\n    tag_194:\n        /* \"crowdfunding.sol\":1267:1430  {\r... */\n      pop\n        /* \"crowdfunding.sol\":1262:1265  i++ */\n      dup1\n      dup1\n      tag_199\n      swap1\n      tag_96\n      jump\t// in\n    tag_199:\n      swap2\n      pop\n      pop\n        /* \"crowdfunding.sol\":1228:1430  for (uint256 i = 0; i < b.length; i++) {\r... */\n      jump(tag_188)\n    tag_189:\n      pop\n        /* \"crowdfunding.sol\":1447:1453  result */\n      dup1\n        /* \"crowdfunding.sol\":1440:1453  return result */\n      swap3\n      pop\n      pop\n      pop\n        /* \"crowdfunding.sol\":1091:1461  function stringToInt(string memory s) public pure returns (uint){\r... */\n      swap2\n      swap1\n      pop\n      jump\t// out\n    tag_67:\n      dup3\n      dup1\n      sload\n      tag_200\n      swap1\n      tag_54\n      jump\t// in\n    tag_200:\n      swap1\n      0x00\n      mstore\n      keccak256(0x00, 0x20)\n      swap1\n      0x1f\n      add\n      0x20\n      swap1\n      div\n      dup2\n      add\n      swap3\n      dup3\n      tag_202\n      jumpi\n      0x00\n      dup6\n      sstore\n      jump(tag_201)\n    tag_202:\n      dup3\n      0x1f\n      lt\n      tag_203\n      jumpi\n      dup1\n      mload\n      not(0xff)\n      and\n      dup4\n      dup1\n      add\n      or\n      dup6\n      sstore\n      jump(tag_201)\n    tag_203:\n      dup3\n      dup1\n      add\n      0x01\n      add\n      dup6\n      sstore\n      dup3\n      iszero\n      tag_201\n      jumpi\n      swap2\n      dup3\n      add\n    tag_204:\n      dup3\n      dup2\n      gt\n      iszero\n      tag_205\n      jumpi\n      dup3\n      mload\n      dup3\n      sstore\n      swap2\n      0x20\n      add\n      swap2\n      swap1\n      0x01\n      add\n      swap1\n      jump(tag_204)\n    tag_205:\n    tag_201:\n      pop\n      swap1\n      pop\n      tag_206\n      swap2\n      swap1\n      tag_207\n      jump\t// in\n    tag_206:\n      pop\n      swap1\n      jump\t// out\n    tag_121:\n      pop\n      dup1\n      sload\n      tag_208\n      swap1\n      tag_54\n      jump\t// in\n    tag_208:\n      0x00\n      dup3\n      sstore\n      dup1\n      0x1f\n      lt\n      tag_210\n      jumpi\n      pop\n      jump(tag_209)\n    tag_210:\n      0x1f\n      add\n      0x20\n      swap1\n      div\n      swap1\n      0x00\n      mstore\n      keccak256(0x00, 0x20)\n      swap1\n      dup2\n      add\n      swap1\n      tag_211\n      swap2\n      swap1\n      tag_207\n      jump\t// in\n    tag_211:\n    tag_209:\n      pop\n      jump\t// out\n    tag_140:\n      dup3\n      dup1\n      sload\n      tag_212\n      swap1\n      tag_54\n      jump\t// in\n    tag_212:\n      swap1\n      0x00\n      mstore\n      keccak256(0x00, 0x20)\n      swap1\n      0x1f\n      add\n      0x20\n      swap1\n      div\n      dup2\n      add\n      swap3\n      dup3\n      tag_214\n      jumpi\n      0x00\n      dup6\n      sstore\n      jump(tag_213)\n    tag_214:\n      dup3\n      0x1f\n      lt\n      tag_215\n      jumpi\n      dup1\n      sload\n      dup6\n      sstore\n      jump(tag_213)\n    tag_215:\n      dup3\n      dup1\n      add\n      0x01\n      add\n      dup6\n      sstore\n      dup3\n      iszero\n      tag_213\n      jumpi\n      0x00\n      mstore\n      keccak256(0x00, 0x20)\n      swap2\n      0x1f\n      add\n      0x20\n      swap1\n      div\n      dup3\n      add\n    tag_216:\n      dup3\n      dup2\n      gt\n      iszero\n      tag_217\n      jumpi\n      dup3\n      sload\n      dup3\n      sstore\n      swap2\n      0x01\n      add\n      swap2\n      swap1\n      0x01\n      add\n      swap1\n      jump(tag_216)\n    tag_217:\n    tag_213:\n      pop\n      swap1\n      pop\n      tag_218\n      swap2\n      swap1\n      tag_207\n      jump\t// in\n    tag_218:\n      pop\n      swap1\n      jump\t// out\n    tag_207:\n    tag_219:\n      dup1\n      dup3\n      gt\n      iszero\n      tag_220\n      jumpi\n      0x00\n      dup2\n      0x00\n      swap1\n      sstore\n      pop\n      0x01\n      add\n      jump(tag_219)\n    tag_220:\n      pop\n      swap1\n      jump\t// out\n        /* \"#utility.yul\":7:419   */\n    tag_222:\n        /* \"#utility.yul\":85:90   */\n      0x00\n        /* \"#utility.yul\":110:176   */\n      tag_224\n        /* \"#utility.yul\":126:175   */\n      tag_225\n        /* \"#utility.yul\":168:174   */\n      dup5\n        /* \"#utility.yul\":126:175   */\n      tag_226\n      jump\t// in\n    tag_225:\n        /* \"#utility.yul\":110:176   */\n      tag_227\n      jump\t// in\n    tag_224:\n        /* \"#utility.yul\":101:176   */\n      swap1\n      pop\n        /* \"#utility.yul\":199:205   */\n      dup3\n        /* \"#utility.yul\":192:197   */\n      dup2\n        /* \"#utility.yul\":185:206   */\n      mstore\n        /* \"#utility.yul\":237:241   */\n      0x20\n        /* \"#utility.yul\":230:235   */\n      dup2\n        /* \"#utility.yul\":226:242   */\n      add\n        /* \"#utility.yul\":275:278   */\n      dup5\n        /* \"#utility.yul\":266:272   */\n      dup5\n        /* \"#utility.yul\":261:264   */\n      dup5\n        /* \"#utility.yul\":257:273   */\n      add\n        /* \"#utility.yul\":254:279   */\n      gt\n        /* \"#utility.yul\":251:363   */\n      iszero\n      tag_228\n      jumpi\n        /* \"#utility.yul\":282:361   */\n      tag_229\n      tag_230\n      jump\t// in\n    tag_229:\n        /* \"#utility.yul\":251:363   */\n    tag_228:\n        /* \"#utility.yul\":372:413   */\n      tag_231\n        /* \"#utility.yul\":406:412   */\n      dup5\n        /* \"#utility.yul\":401:404   */\n      dup3\n        /* \"#utility.yul\":396:399   */\n      dup6\n        /* \"#utility.yul\":372:413   */\n      tag_232\n      jump\t// in\n    tag_231:\n        /* \"#utility.yul\":91:419   */\n      pop\n        /* \"#utility.yul\":7:419   */\n      swap4\n      swap3\n      pop\n      pop\n      pop\n      jump\t// out\n        /* \"#utility.yul\":425:564   */\n    tag_233:\n        /* \"#utility.yul\":471:476   */\n      0x00\n        /* \"#utility.yul\":509:515   */\n      dup2\n        /* \"#utility.yul\":496:516   */\n      calldataload\n        /* \"#utility.yul\":487:516   */\n      swap1\n      pop\n        /* \"#utility.yul\":525:558   */\n      tag_235\n        /* \"#utility.yul\":552:557   */\n      dup2\n        /* \"#utility.yul\":525:558   */\n      tag_236\n      jump\t// in\n    tag_235:\n        /* \"#utility.yul\":425:564   */\n      swap3\n      swap2\n      pop\n      pop\n      jump\t// out\n        /* \"#utility.yul\":584:924   */\n    tag_237:\n        /* \"#utility.yul\":640:645   */\n      0x00\n        /* \"#utility.yul\":689:692   */\n      dup3\n        /* \"#utility.yul\":682:686   */\n      0x1f\n        /* \"#utility.yul\":674:680   */\n      dup4\n        /* \"#utility.yul\":670:687   */\n      add\n        /* \"#utility.yul\":666:693   */\n      slt\n        /* \"#utility.yul\":656:778   */\n      tag_239\n      jumpi\n        /* \"#utility.yul\":697:776   */\n      tag_240\n      tag_241\n      jump\t// in\n    tag_240:\n        /* \"#utility.yul\":656:778   */\n    tag_239:\n        /* \"#utility.yul\":814:820   */\n      dup2\n        /* \"#utility.yul\":801:821   */\n      calldataload\n        /* \"#utility.yul\":839:918   */\n      tag_242\n        /* \"#utility.yul\":914:917   */\n      dup5\n        /* \"#utility.yul\":906:912   */\n      dup3\n        /* \"#utility.yul\":899:903   */\n      0x20\n        /* \"#utility.yul\":891:897   */\n      dup7\n        /* \"#utility.yul\":887:904   */\n      add\n        /* \"#utility.yul\":839:918   */\n      tag_222\n      jump\t// in\n    tag_242:\n        /* \"#utility.yul\":830:918   */\n      swap2\n      pop\n        /* \"#utility.yul\":646:924   */\n      pop\n        /* \"#utility.yul\":584:924   */\n      swap3\n      swap2\n      pop\n      pop\n      jump\t// out\n        /* \"#utility.yul\":930:1069   */\n    tag_243:\n        /* \"#utility.yul\":976:981   */\n      0x00\n        /* \"#utility.yul\":1014:1020   */\n      dup2\n        /* \"#utility.yul\":1001:1021   */\n      calldataload\n        /* \"#utility.yul\":992:1021   */\n      swap1\n      pop\n        /* \"#utility.yul\":1030:1063   */\n      tag_245\n        /* \"#utility.yul\":1057:1062   */\n      dup2\n        /* \"#utility.yul\":1030:1063   */\n      tag_246\n      jump\t// in\n    tag_245:\n        /* \"#utility.yul\":930:1069   */\n      swap3\n      swap2\n      pop\n      pop\n      jump\t// out\n        /* \"#utility.yul\":1075:1404   */\n    tag_14:\n        /* \"#utility.yul\":1134:1140   */\n      0x00\n        /* \"#utility.yul\":1183:1185   */\n      0x20\n        /* \"#utility.yul\":1171:1180   */\n      dup3\n        /* \"#utility.yul\":1162:1169   */\n      dup5\n        /* \"#utility.yul\":1158:1181   */\n      sub\n        /* \"#utility.yul\":1154:1186   */\n      slt\n        /* \"#utility.yul\":1151:1270   */\n      iszero\n      tag_248\n      jumpi\n        /* \"#utility.yul\":1189:1268   */\n      tag_249\n      tag_250\n      jump\t// in\n    tag_249:\n        /* \"#utility.yul\":1151:1270   */\n    tag_248:\n        /* \"#utility.yul\":1309:1310   */\n      0x00\n        /* \"#utility.yul\":1334:1387   */\n      tag_251\n        /* \"#utility.yul\":1379:1386   */\n      dup5\n        /* \"#utility.yul\":1370:1376   */\n      dup3\n        /* \"#utility.yul\":1359:1368   */\n      dup6\n        /* \"#utility.yul\":1355:1377   */\n      add\n        /* \"#utility.yul\":1334:1387   */\n      tag_233\n      jump\t// in\n    tag_251:\n        /* \"#utility.yul\":1324:1387   */\n      swap2\n      pop\n        /* \"#utility.yul\":1280:1397   */\n      pop\n        /* \"#utility.yul\":1075:1404   */\n      swap3\n      swap2\n      pop\n      pop\n      jump\t// out\n        /* \"#utility.yul\":1410:1919   */\n    tag_45:\n        /* \"#utility.yul\":1479:1485   */\n      0x00\n        /* \"#utility.yul\":1528:1530   */\n      0x20\n        /* \"#utility.yul\":1516:1525   */\n      dup3\n        /* \"#utility.yul\":1507:1514   */\n      dup5\n        /* \"#utility.yul\":1503:1526   */\n      sub\n        /* \"#utility.yul\":1499:1531   */\n      slt\n        /* \"#utility.yul\":1496:1615   */\n      iszero\n      tag_253\n      jumpi\n        /* \"#utility.yul\":1534:1613   */\n      tag_254\n      tag_250\n      jump\t// in\n    tag_254:\n        /* \"#utility.yul\":1496:1615   */\n    tag_253:\n        /* \"#utility.yul\":1682:1683   */\n      0x00\n        /* \"#utility.yul\":1671:1680   */\n      dup3\n        /* \"#utility.yul\":1667:1684   */\n      add\n        /* \"#utility.yul\":1654:1685   */\n      calldataload\n        /* \"#utility.yul\":1712:1730   */\n      0xffffffffffffffff\n        /* \"#utility.yul\":1704:1710   */\n      dup2\n        /* \"#utility.yul\":1701:1731   */\n      gt\n        /* \"#utility.yul\":1698:1815   */\n      iszero\n      tag_255\n      jumpi\n        /* \"#utility.yul\":1734:1813   */\n      tag_256\n      tag_257\n      jump\t// in\n    tag_256:\n        /* \"#utility.yul\":1698:1815   */\n    tag_255:\n        /* \"#utility.yul\":1839:1902   */\n      tag_258\n        /* \"#utility.yul\":1894:1901   */\n      dup5\n        /* \"#utility.yul\":1885:1891   */\n      dup3\n        /* \"#utility.yul\":1874:1883   */\n      dup6\n        /* \"#utility.yul\":1870:1892   */\n      add\n        /* \"#utility.yul\":1839:1902   */\n      tag_237\n      jump\t// in\n    tag_258:\n        /* \"#utility.yul\":1829:1902   */\n      swap2\n      pop\n        /* \"#utility.yul\":1625:1912   */\n      pop\n        /* \"#utility.yul\":1410:1919   */\n      swap3\n      swap2\n      pop\n      pop\n      jump\t// out\n        /* \"#utility.yul\":1925:2904   */\n    tag_41:\n        /* \"#utility.yul\":2022:2028   */\n      0x00\n        /* \"#utility.yul\":2030:2036   */\n      dup1\n        /* \"#utility.yul\":2038:2044   */\n      0x00\n        /* \"#utility.yul\":2087:2089   */\n      0x60\n        /* \"#utility.yul\":2075:2084   */\n      dup5\n        /* \"#utility.yul\":2066:2073   */\n      dup7\n        /* \"#utility.yul\":2062:2085   */\n      sub\n        /* \"#utility.yul\":2058:2090   */\n      slt\n        /* \"#utility.yul\":2055:2174   */\n      iszero\n      tag_260\n      jumpi\n        /* \"#utility.yul\":2093:2172   */\n      tag_261\n      tag_250\n      jump\t// in\n    tag_261:\n        /* \"#utility.yul\":2055:2174   */\n    tag_260:\n        /* \"#utility.yul\":2241:2242   */\n      0x00\n        /* \"#utility.yul\":2230:2239   */\n      dup5\n        /* \"#utility.yul\":2226:2243   */\n      add\n        /* \"#utility.yul\":2213:2244   */\n      calldataload\n        /* \"#utility.yul\":2271:2289   */\n      0xffffffffffffffff\n        /* \"#utility.yul\":2263:2269   */\n      dup2\n        /* \"#utility.yul\":2260:2290   */\n      gt\n        /* \"#utility.yul\":2257:2374   */\n      iszero\n      tag_262\n      jumpi\n        /* \"#utility.yul\":2293:2372   */\n      tag_263\n      tag_257\n      jump\t// in\n    tag_263:\n        /* \"#utility.yul\":2257:2374   */\n    tag_262:\n        /* \"#utility.yul\":2398:2461   */\n      tag_264\n        /* \"#utility.yul\":2453:2460   */\n      dup7\n        /* \"#utility.yul\":2444:2450   */\n      dup3\n        /* \"#utility.yul\":2433:2442   */\n      dup8\n        /* \"#utility.yul\":2429:2451   */\n      add\n        /* \"#utility.yul\":2398:2461   */\n      tag_237\n      jump\t// in\n    tag_264:\n        /* \"#utility.yul\":2388:2461   */\n      swap4\n      pop\n        /* \"#utility.yul\":2184:2471   */\n      pop\n        /* \"#utility.yul\":2510:2512   */\n      0x20\n        /* \"#utility.yul\":2536:2589   */\n      tag_265\n        /* \"#utility.yul\":2581:2588   */\n      dup7\n        /* \"#utility.yul\":2572:2578   */\n      dup3\n        /* \"#utility.yul\":2561:2570   */\n      dup8\n        /* \"#utility.yul\":2557:2579   */\n      add\n        /* \"#utility.yul\":2536:2589   */\n      tag_233\n      jump\t// in\n    tag_265:\n        /* \"#utility.yul\":2526:2589   */\n      swap3\n      pop\n        /* \"#utility.yul\":2481:2599   */\n      pop\n        /* \"#utility.yul\":2666:2668   */\n      0x40\n        /* \"#utility.yul\":2655:2664   */\n      dup5\n        /* \"#utility.yul\":2651:2669   */\n      add\n        /* \"#utility.yul\":2638:2670   */\n      calldataload\n        /* \"#utility.yul\":2697:2715   */\n      0xffffffffffffffff\n        /* \"#utility.yul\":2689:2695   */\n      dup2\n        /* \"#utility.yul\":2686:2716   */\n      gt\n        /* \"#utility.yul\":2683:2800   */\n      iszero\n      tag_266\n      jumpi\n        /* \"#utility.yul\":2719:2798   */\n      tag_267\n      tag_257\n      jump\t// in\n    tag_267:\n        /* \"#utility.yul\":2683:2800   */\n    tag_266:\n        /* \"#utility.yul\":2824:2887   */\n      tag_268\n        /* \"#utility.yul\":2879:2886   */\n      dup7\n        /* \"#utility.yul\":2870:2876   */\n      dup3\n        /* \"#utility.yul\":2859:2868   */\n      dup8\n        /* \"#utility.yul\":2855:2877   */\n      add\n        /* \"#utility.yul\":2824:2887   */\n      tag_237\n      jump\t// in\n    tag_268:\n        /* \"#utility.yul\":2814:2887   */\n      swap2\n      pop\n        /* \"#utility.yul\":2609:2897   */\n      pop\n        /* \"#utility.yul\":1925:2904   */\n      swap3\n      pop\n      swap3\n      pop\n      swap3\n      jump\t// out\n        /* \"#utility.yul\":2910:3239   */\n    tag_28:\n        /* \"#utility.yul\":2969:2975   */\n      0x00\n        /* \"#utility.yul\":3018:3020   */\n      0x20\n        /* \"#utility.yul\":3006:3015   */\n      dup3\n        /* \"#utility.yul\":2997:3004   */\n      dup5\n        /* \"#utility.yul\":2993:3016   */\n      sub\n        /* \"#utility.yul\":2989:3021   */\n      slt\n        /* \"#utility.yul\":2986:3105   */\n      iszero\n      tag_270\n      jumpi\n        /* \"#utility.yul\":3024:3103   */\n      tag_271\n      tag_250\n      jump\t// in\n    tag_271:\n        /* \"#utility.yul\":2986:3105   */\n    tag_270:\n        /* \"#utility.yul\":3144:3145   */\n      0x00\n        /* \"#utility.yul\":3169:3222   */\n      tag_272\n        /* \"#utility.yul\":3214:3221   */\n      dup5\n        /* \"#utility.yul\":3205:3211   */\n      dup3\n        /* \"#utility.yul\":3194:3203   */\n      dup6\n        /* \"#utility.yul\":3190:3212   */\n      add\n        /* \"#utility.yul\":3169:3222   */\n      tag_243\n      jump\t// in\n    tag_272:\n        /* \"#utility.yul\":3159:3222   */\n      swap2\n      pop\n        /* \"#utility.yul\":3115:3232   */\n      pop\n        /* \"#utility.yul\":2910:3239   */\n      swap3\n      swap2\n      pop\n      pop\n      jump\t// out\n        /* \"#utility.yul\":3245:3899   */\n    tag_20:\n        /* \"#utility.yul\":3323:3329   */\n      0x00\n        /* \"#utility.yul\":3331:3337   */\n      dup1\n        /* \"#utility.yul\":3380:3382   */\n      0x40\n        /* \"#utility.yul\":3368:3377   */\n      dup4\n        /* \"#utility.yul\":3359:3366   */\n      dup6\n        /* \"#utility.yul\":3355:3378   */\n      sub\n        /* \"#utility.yul\":3351:3383   */\n      slt\n        /* \"#utility.yul\":3348:3467   */\n      iszero\n      tag_274\n      jumpi\n        /* \"#utility.yul\":3386:3465   */\n      tag_275\n      tag_250\n      jump\t// in\n    tag_275:\n        /* \"#utility.yul\":3348:3467   */\n    tag_274:\n        /* \"#utility.yul\":3506:3507   */\n      0x00\n        /* \"#utility.yul\":3531:3584   */\n      tag_276\n        /* \"#utility.yul\":3576:3583   */\n      dup6\n        /* \"#utility.yul\":3567:3573   */\n      dup3\n        /* \"#utility.yul\":3556:3565   */\n      dup7\n        /* \"#utility.yul\":3552:3574   */\n      add\n        /* \"#utility.yul\":3531:3584   */\n      tag_243\n      jump\t// in\n    tag_276:\n        /* \"#utility.yul\":3521:3584   */\n      swap3\n      pop\n        /* \"#utility.yul\":3477:3594   */\n      pop\n        /* \"#utility.yul\":3661:3663   */\n      0x20\n        /* \"#utility.yul\":3650:3659   */\n      dup4\n        /* \"#utility.yul\":3646:3664   */\n      add\n        /* \"#utility.yul\":3633:3665   */\n      calldataload\n        /* \"#utility.yul\":3692:3710   */\n      0xffffffffffffffff\n        /* \"#utility.yul\":3684:3690   */\n      dup2\n        /* \"#utility.yul\":3681:3711   */\n      gt\n        /* \"#utility.yul\":3678:3795   */\n      iszero\n      tag_277\n      jumpi\n        /* \"#utility.yul\":3714:3793   */\n      tag_278\n      tag_257\n      jump\t// in\n    tag_278:\n        /* \"#utility.yul\":3678:3795   */\n    tag_277:\n        /* \"#utility.yul\":3819:3882   */\n      tag_279\n        /* \"#utility.yul\":3874:3881   */\n      dup6\n        /* \"#utility.yul\":3865:3871   */\n      dup3\n        /* \"#utility.yul\":3854:3863   */\n      dup7\n        /* \"#utility.yul\":3850:3872   */\n      add\n        /* \"#utility.yul\":3819:3882   */\n      tag_237\n      jump\t// in\n    tag_279:\n        /* \"#utility.yul\":3809:3882   */\n      swap2\n      pop\n        /* \"#utility.yul\":3604:3892   */\n      pop\n        /* \"#utility.yul\":3245:3899   */\n      swap3\n      pop\n      swap3\n      swap1\n      pop\n      jump\t// out\n        /* \"#utility.yul\":3905:4524   */\n    tag_24:\n        /* \"#utility.yul\":3982:3988   */\n      0x00\n        /* \"#utility.yul\":3990:3996   */\n      dup1\n        /* \"#utility.yul\":3998:4004   */\n      0x00\n        /* \"#utility.yul\":4047:4049   */\n      0x60\n        /* \"#utility.yul\":4035:4044   */\n      dup5\n        /* \"#utility.yul\":4026:4033   */\n      dup7\n        /* \"#utility.yul\":4022:4045   */\n      sub\n        /* \"#utility.yul\":4018:4050   */\n      slt\n        /* \"#utility.yul\":4015:4134   */\n      iszero\n      tag_281\n      jumpi\n        /* \"#utility.yul\":4053:4132   */\n      tag_282\n      tag_250\n      jump\t// in\n    tag_282:\n        /* \"#utility.yul\":4015:4134   */\n    tag_281:\n        /* \"#utility.yul\":4173:4174   */\n      0x00\n        /* \"#utility.yul\":4198:4251   */\n      tag_283\n        /* \"#utility.yul\":4243:4250   */\n      dup7\n        /* \"#utility.yul\":4234:4240   */\n      dup3\n        /* \"#utility.yul\":4223:4232   */\n      dup8\n        /* \"#utility.yul\":4219:4241   */\n      add\n        /* \"#utility.yul\":4198:4251   */\n      tag_243\n      jump\t// in\n    tag_283:\n        /* \"#utility.yul\":4188:4251   */\n      swap4\n      pop\n        /* \"#utility.yul\":4144:4261   */\n      pop\n        /* \"#utility.yul\":4300:4302   */\n      0x20\n        /* \"#utility.yul\":4326:4379   */\n      tag_284\n        /* \"#utility.yul\":4371:4378   */\n      dup7\n        /* \"#utility.yul\":4362:4368   */\n      dup3\n        /* \"#utility.yul\":4351:4360   */\n      dup8\n        /* \"#utility.yul\":4347:4369   */\n      add\n        /* \"#utility.yul\":4326:4379   */\n      tag_243\n      jump\t// in\n    tag_284:\n        /* \"#utility.yul\":4316:4379   */\n      swap3\n      pop\n        /* \"#utility.yul\":4271:4389   */\n      pop\n        /* \"#utility.yul\":4428:4430   */\n      0x40\n        /* \"#utility.yul\":4454:4507   */\n      tag_285\n        /* \"#utility.yul\":4499:4506   */\n      dup7\n        /* \"#utility.yul\":4490:4496   */\n      dup3\n        /* \"#utility.yul\":4479:4488   */\n      dup8\n        /* \"#utility.yul\":4475:4497   */\n      add\n        /* \"#utility.yul\":4454:4507   */\n      tag_233\n      jump\t// in\n    tag_285:\n        /* \"#utility.yul\":4444:4507   */\n      swap2\n      pop\n        /* \"#utility.yul\":4399:4517   */\n      pop\n        /* \"#utility.yul\":3905:4524   */\n      swap3\n      pop\n      swap3\n      pop\n      swap3\n      jump\t// out\n        /* \"#utility.yul\":4530:4798   */\n    tag_286:\n        /* \"#utility.yul\":4655:4665   */\n      0x00\n        /* \"#utility.yul\":4690:4792   */\n      tag_288\n        /* \"#utility.yul\":4788:4791   */\n      dup4\n        /* \"#utility.yul\":4780:4786   */\n      dup4\n        /* \"#utility.yul\":4690:4792   */\n      tag_289\n      jump\t// in\n    tag_288:\n        /* \"#utility.yul\":4676:4792   */\n      swap1\n      pop\n        /* \"#utility.yul\":4530:4798   */\n      swap3\n      swap2\n      pop\n      pop\n      jump\t// out\n        /* \"#utility.yul\":4804:4912   */\n    tag_290:\n        /* \"#utility.yul\":4881:4905   */\n      tag_292\n        /* \"#utility.yul\":4899:4904   */\n      dup2\n        /* \"#utility.yul\":4881:4905   */\n      tag_293\n      jump\t// in\n    tag_292:\n        /* \"#utility.yul\":4876:4879   */\n      dup3\n        /* \"#utility.yul\":4869:4906   */\n      mstore\n        /* \"#utility.yul\":4804:4912   */\n      pop\n      pop\n      jump\t// out\n        /* \"#utility.yul\":4918:5036   */\n    tag_294:\n        /* \"#utility.yul\":5005:5029   */\n      tag_296\n        /* \"#utility.yul\":5023:5028   */\n      dup2\n        /* \"#utility.yul\":5005:5029   */\n      tag_293\n      jump\t// in\n    tag_296:\n        /* \"#utility.yul\":5000:5003   */\n      dup3\n        /* \"#utility.yul\":4993:5030   */\n      mstore\n        /* \"#utility.yul\":4918:5036   */\n      pop\n      pop\n      jump\t// out\n        /* \"#utility.yul\":5138:6273   */\n    tag_297:\n        /* \"#utility.yul\":5313:5316   */\n      0x00\n        /* \"#utility.yul\":5342:5424   */\n      tag_299\n        /* \"#utility.yul\":5418:5423   */\n      dup3\n        /* \"#utility.yul\":5342:5424   */\n      tag_300\n      jump\t// in\n    tag_299:\n        /* \"#utility.yul\":5440:5554   */\n      tag_301\n        /* \"#utility.yul\":5547:5553   */\n      dup2\n        /* \"#utility.yul\":5542:5545   */\n      dup6\n        /* \"#utility.yul\":5440:5554   */\n      tag_302\n      jump\t// in\n    tag_301:\n        /* \"#utility.yul\":5433:5554   */\n      swap4\n      pop\n        /* \"#utility.yul\":5580:5583   */\n      dup4\n        /* \"#utility.yul\":5625:5629   */\n      0x20\n        /* \"#utility.yul\":5617:5623   */\n      dup3\n        /* \"#utility.yul\":5613:5630   */\n      mul\n        /* \"#utility.yul\":5608:5611   */\n      dup6\n        /* \"#utility.yul\":5604:5631   */\n      add\n        /* \"#utility.yul\":5655:5739   */\n      tag_303\n        /* \"#utility.yul\":5733:5738   */\n      dup6\n        /* \"#utility.yul\":5655:5739   */\n      tag_304\n      jump\t// in\n    tag_303:\n        /* \"#utility.yul\":5762:5769   */\n      dup1\n        /* \"#utility.yul\":5793:5794   */\n      0x00\n        /* \"#utility.yul\":5778:6228   */\n    tag_305:\n        /* \"#utility.yul\":5803:5809   */\n      dup6\n        /* \"#utility.yul\":5800:5801   */\n      dup2\n        /* \"#utility.yul\":5797:5810   */\n      lt\n        /* \"#utility.yul\":5778:6228   */\n      iszero\n      tag_307\n      jumpi\n        /* \"#utility.yul\":5874:5883   */\n      dup5\n        /* \"#utility.yul\":5868:5872   */\n      dup5\n        /* \"#utility.yul\":5864:5884   */\n      sub\n        /* \"#utility.yul\":5859:5862   */\n      dup10\n        /* \"#utility.yul\":5852:5885   */\n      mstore\n        /* \"#utility.yul\":5925:5931   */\n      dup2\n        /* \"#utility.yul\":5919:5932   */\n      mload\n        /* \"#utility.yul\":5953:6073   */\n      tag_308\n        /* \"#utility.yul\":6068:6072   */\n      dup6\n        /* \"#utility.yul\":6053:6066   */\n      dup3\n        /* \"#utility.yul\":5953:6073   */\n      tag_286\n      jump\t// in\n    tag_308:\n        /* \"#utility.yul\":5945:6073   */\n      swap5\n      pop\n        /* \"#utility.yul\":6096:6184   */\n      tag_309\n        /* \"#utility.yul\":6177:6183   */\n      dup4\n        /* \"#utility.yul\":6096:6184   */\n      tag_310\n      jump\t// in\n    tag_309:\n        /* \"#utility.yul\":6086:6184   */\n      swap3\n      pop\n        /* \"#utility.yul\":6213:6217   */\n      0x20\n        /* \"#utility.yul\":6208:6211   */\n      dup11\n        /* \"#utility.yul\":6204:6218   */\n      add\n        /* \"#utility.yul\":6197:6218   */\n      swap10\n      pop\n        /* \"#utility.yul\":5838:6228   */\n      pop\n        /* \"#utility.yul\":5825:5826   */\n      0x01\n        /* \"#utility.yul\":5822:5823   */\n      dup2\n        /* \"#utility.yul\":5818:5827   */\n      add\n        /* \"#utility.yul\":5813:5827   */\n      swap1\n      pop\n        /* \"#utility.yul\":5778:6228   */\n      jump(tag_305)\n    tag_307:\n        /* \"#utility.yul\":5782:5796   */\n      pop\n        /* \"#utility.yul\":6244:6248   */\n      dup3\n        /* \"#utility.yul\":6237:6248   */\n      swap8\n      pop\n        /* \"#utility.yul\":6264:6267   */\n      dup8\n        /* \"#utility.yul\":6257:6267   */\n      swap6\n      pop\n        /* \"#utility.yul\":5318:6273   */\n      pop\n      pop\n      pop\n      pop\n      pop\n        /* \"#utility.yul\":5138:6273   */\n      swap3\n      swap2\n      pop\n      pop\n      jump\t// out\n        /* \"#utility.yul\":6279:6623   */\n    tag_311:\n        /* \"#utility.yul\":6357:6360   */\n      0x00\n        /* \"#utility.yul\":6385:6424   */\n      tag_313\n        /* \"#utility.yul\":6418:6423   */\n      dup3\n        /* \"#utility.yul\":6385:6424   */\n      tag_314\n      jump\t// in\n    tag_313:\n        /* \"#utility.yul\":6440:6501   */\n      tag_315\n        /* \"#utility.yul\":6494:6500   */\n      dup2\n        /* \"#utility.yul\":6489:6492   */\n      dup6\n        /* \"#utility.yul\":6440:6501   */\n      tag_316\n      jump\t// in\n    tag_315:\n        /* \"#utility.yul\":6433:6501   */\n      swap4\n      pop\n        /* \"#utility.yul\":6510:6562   */\n      tag_317\n        /* \"#utility.yul\":6555:6561   */\n      dup2\n        /* \"#utility.yul\":6550:6553   */\n      dup6\n        /* \"#utility.yul\":6543:6547   */\n      0x20\n        /* \"#utility.yul\":6536:6541   */\n      dup7\n        /* \"#utility.yul\":6532:6548   */\n      add\n        /* \"#utility.yul\":6510:6562   */\n      tag_318\n      jump\t// in\n    tag_317:\n        /* \"#utility.yul\":6587:6616   */\n      tag_319\n        /* \"#utility.yul\":6609:6615   */\n      dup2\n        /* \"#utility.yul\":6587:6616   */\n      tag_320\n      jump\t// in\n    tag_319:\n        /* \"#utility.yul\":6582:6585   */\n      dup5\n        /* \"#utility.yul\":6578:6617   */\n      add\n        /* \"#utility.yul\":6571:6617   */\n      swap2\n      pop\n        /* \"#utility.yul\":6361:6623   */\n      pop\n        /* \"#utility.yul\":6279:6623   */\n      swap3\n      swap2\n      pop\n      pop\n      jump\t// out\n        /* \"#utility.yul\":6629:6993   */\n    tag_321:\n        /* \"#utility.yul\":6717:6720   */\n      0x00\n        /* \"#utility.yul\":6745:6784   */\n      tag_323\n        /* \"#utility.yul\":6778:6783   */\n      dup3\n        /* \"#utility.yul\":6745:6784   */\n      tag_314\n      jump\t// in\n    tag_323:\n        /* \"#utility.yul\":6800:6871   */\n      tag_324\n        /* \"#utility.yul\":6864:6870   */\n      dup2\n        /* \"#utility.yul\":6859:6862   */\n      dup6\n        /* \"#utility.yul\":6800:6871   */\n      tag_325\n      jump\t// in\n    tag_324:\n        /* \"#utility.yul\":6793:6871   */\n      swap4\n      pop\n        /* \"#utility.yul\":6880:6932   */\n      tag_326\n        /* \"#utility.yul\":6925:6931   */\n      dup2\n        /* \"#utility.yul\":6920:6923   */\n      dup6\n        /* \"#utility.yul\":6913:6917   */\n      0x20\n        /* \"#utility.yul\":6906:6911   */\n      dup7\n        /* \"#utility.yul\":6902:6918   */\n      add\n        /* \"#utility.yul\":6880:6932   */\n      tag_318\n      jump\t// in\n    tag_326:\n        /* \"#utility.yul\":6957:6986   */\n      tag_327\n        /* \"#utility.yul\":6979:6985   */\n      dup2\n        /* \"#utility.yul\":6957:6986   */\n      tag_320\n      jump\t// in\n    tag_327:\n        /* \"#utility.yul\":6952:6955   */\n      dup5\n        /* \"#utility.yul\":6948:6987   */\n      add\n        /* \"#utility.yul\":6941:6987   */\n      swap2\n      pop\n        /* \"#utility.yul\":6721:6993   */\n      pop\n        /* \"#utility.yul\":6629:6993   */\n      swap3\n      swap2\n      pop\n      pop\n      jump\t// out\n        /* \"#utility.yul\":7091:8767   */\n    tag_289:\n        /* \"#utility.yul\":7206:7209   */\n      0x00\n        /* \"#utility.yul\":7242:7248   */\n      0x0100\n        /* \"#utility.yul\":7237:7240   */\n      dup4\n        /* \"#utility.yul\":7233:7249   */\n      add\n        /* \"#utility.yul\":7330:7334   */\n      0x00\n        /* \"#utility.yul\":7323:7328   */\n      dup4\n        /* \"#utility.yul\":7319:7335   */\n      add\n        /* \"#utility.yul\":7313:7336   */\n      mload\n        /* \"#utility.yul\":7349:7412   */\n      tag_329\n        /* \"#utility.yul\":7406:7410   */\n      0x00\n        /* \"#utility.yul\":7401:7404   */\n      dup7\n        /* \"#utility.yul\":7397:7411   */\n      add\n        /* \"#utility.yul\":7383:7395   */\n      dup3\n        /* \"#utility.yul\":7349:7412   */\n      tag_330\n      jump\t// in\n    tag_329:\n        /* \"#utility.yul\":7259:7422   */\n      pop\n        /* \"#utility.yul\":7505:7509   */\n      0x20\n        /* \"#utility.yul\":7498:7503   */\n      dup4\n        /* \"#utility.yul\":7494:7510   */\n      add\n        /* \"#utility.yul\":7488:7511   */\n      mload\n        /* \"#utility.yul\":7558:7561   */\n      dup5\n        /* \"#utility.yul\":7552:7556   */\n      dup3\n        /* \"#utility.yul\":7548:7562   */\n      sub\n        /* \"#utility.yul\":7541:7545   */\n      0x20\n        /* \"#utility.yul\":7536:7539   */\n      dup7\n        /* \"#utility.yul\":7532:7546   */\n      add\n        /* \"#utility.yul\":7525:7563   */\n      mstore\n        /* \"#utility.yul\":7584:7657   */\n      tag_331\n        /* \"#utility.yul\":7652:7656   */\n      dup3\n        /* \"#utility.yul\":7638:7650   */\n      dup3\n        /* \"#utility.yul\":7584:7657   */\n      tag_311\n      jump\t// in\n    tag_331:\n        /* \"#utility.yul\":7576:7657   */\n      swap2\n      pop\n        /* \"#utility.yul\":7432:7668   */\n      pop\n        /* \"#utility.yul\":7752:7756   */\n      0x40\n        /* \"#utility.yul\":7745:7750   */\n      dup4\n        /* \"#utility.yul\":7741:7757   */\n      add\n        /* \"#utility.yul\":7735:7758   */\n      mload\n        /* \"#utility.yul\":7771:7834   */\n      tag_332\n        /* \"#utility.yul\":7828:7832   */\n      0x40\n        /* \"#utility.yul\":7823:7826   */\n      dup7\n        /* \"#utility.yul\":7819:7833   */\n      add\n        /* \"#utility.yul\":7805:7817   */\n      dup3\n        /* \"#utility.yul\":7771:7834   */\n      tag_330\n      jump\t// in\n    tag_332:\n        /* \"#utility.yul\":7678:7844   */\n      pop\n        /* \"#utility.yul\":7929:7933   */\n      0x60\n        /* \"#utility.yul\":7922:7927   */\n      dup4\n        /* \"#utility.yul\":7918:7934   */\n      add\n        /* \"#utility.yul\":7912:7935   */\n      mload\n        /* \"#utility.yul\":7948:8011   */\n      tag_333\n        /* \"#utility.yul\":8005:8009   */\n      0x60\n        /* \"#utility.yul\":8000:8003   */\n      dup7\n        /* \"#utility.yul\":7996:8010   */\n      add\n        /* \"#utility.yul\":7982:7994   */\n      dup3\n        /* \"#utility.yul\":7948:8011   */\n      tag_290\n      jump\t// in\n    tag_333:\n        /* \"#utility.yul\":7854:8021   */\n      pop\n        /* \"#utility.yul\":8108:8112   */\n      0x80\n        /* \"#utility.yul\":8101:8106   */\n      dup4\n        /* \"#utility.yul\":8097:8113   */\n      add\n        /* \"#utility.yul\":8091:8114   */\n      mload\n        /* \"#utility.yul\":8127:8190   */\n      tag_334\n        /* \"#utility.yul\":8184:8188   */\n      0x80\n        /* \"#utility.yul\":8179:8182   */\n      dup7\n        /* \"#utility.yul\":8175:8189   */\n      add\n        /* \"#utility.yul\":8161:8173   */\n      dup3\n        /* \"#utility.yul\":8127:8190   */\n      tag_290\n      jump\t// in\n    tag_334:\n        /* \"#utility.yul\":8031:8200   */\n      pop\n        /* \"#utility.yul\":8285:8289   */\n      0xa0\n        /* \"#utility.yul\":8278:8283   */\n      dup4\n        /* \"#utility.yul\":8274:8290   */\n      add\n        /* \"#utility.yul\":8268:8291   */\n      mload\n        /* \"#utility.yul\":8304:8367   */\n      tag_335\n        /* \"#utility.yul\":8361:8365   */\n      0xa0\n        /* \"#utility.yul\":8356:8359   */\n      dup7\n        /* \"#utility.yul\":8352:8366   */\n      add\n        /* \"#utility.yul\":8338:8350   */\n      dup3\n        /* \"#utility.yul\":8304:8367   */\n      tag_330\n      jump\t// in\n    tag_335:\n        /* \"#utility.yul\":8210:8377   */\n      pop\n        /* \"#utility.yul\":8466:8470   */\n      0xc0\n        /* \"#utility.yul\":8459:8464   */\n      dup4\n        /* \"#utility.yul\":8455:8471   */\n      add\n        /* \"#utility.yul\":8449:8472   */\n      mload\n        /* \"#utility.yul\":8485:8548   */\n      tag_336\n        /* \"#utility.yul\":8542:8546   */\n      0xc0\n        /* \"#utility.yul\":8537:8540   */\n      dup7\n        /* \"#utility.yul\":8533:8547   */\n      add\n        /* \"#utility.yul\":8519:8531   */\n      dup3\n        /* \"#utility.yul\":8485:8548   */\n      tag_330\n      jump\t// in\n    tag_336:\n        /* \"#utility.yul\":8387:8558   */\n      pop\n        /* \"#utility.yul\":8648:8652   */\n      0xe0\n        /* \"#utility.yul\":8641:8646   */\n      dup4\n        /* \"#utility.yul\":8637:8653   */\n      add\n        /* \"#utility.yul\":8631:8654   */\n      mload\n        /* \"#utility.yul\":8667:8730   */\n      tag_337\n        /* \"#utility.yul\":8724:8728   */\n      0xe0\n        /* \"#utility.yul\":8719:8722   */\n      dup7\n        /* \"#utility.yul\":8715:8729   */\n      add\n        /* \"#utility.yul\":8701:8713   */\n      dup3\n        /* \"#utility.yul\":8667:8730   */\n      tag_330\n      jump\t// in\n    tag_337:\n        /* \"#utility.yul\":8568:8740   */\n      pop\n        /* \"#utility.yul\":8757:8761   */\n      dup1\n        /* \"#utility.yul\":8750:8761   */\n      swap2\n      pop\n        /* \"#utility.yul\":7211:8767   */\n      pop\n        /* \"#utility.yul\":7091:8767   */\n      swap3\n      swap2\n      pop\n      pop\n      jump\t// out\n        /* \"#utility.yul\":8773:8881   */\n    tag_330:\n        /* \"#utility.yul\":8850:8874   */\n      tag_339\n        /* \"#utility.yul\":8868:8873   */\n      dup2\n        /* \"#utility.yul\":8850:8874   */\n      tag_340\n      jump\t// in\n    tag_339:\n        /* \"#utility.yul\":8845:8848   */\n      dup3\n        /* \"#utility.yul\":8838:8875   */\n      mstore\n        /* \"#utility.yul\":8773:8881   */\n      pop\n      pop\n      jump\t// out\n        /* \"#utility.yul\":8887:9005   */\n    tag_341:\n        /* \"#utility.yul\":8974:8998   */\n      tag_343\n        /* \"#utility.yul\":8992:8997   */\n      dup2\n        /* \"#utility.yul\":8974:8998   */\n      tag_340\n      jump\t// in\n    tag_343:\n        /* \"#utility.yul\":8969:8972   */\n      dup3\n        /* \"#utility.yul\":8962:8999   */\n      mstore\n        /* \"#utility.yul\":8887:9005   */\n      pop\n      pop\n      jump\t// out\n        /* \"#utility.yul\":9011:9496   */\n    tag_17:\n        /* \"#utility.yul\":9210:9214   */\n      0x00\n        /* \"#utility.yul\":9248:9250   */\n      0x20\n        /* \"#utility.yul\":9237:9246   */\n      dup3\n        /* \"#utility.yul\":9233:9251   */\n      add\n        /* \"#utility.yul\":9225:9251   */\n      swap1\n      pop\n        /* \"#utility.yul\":9297:9306   */\n      dup2\n        /* \"#utility.yul\":9291:9295   */\n      dup2\n        /* \"#utility.yul\":9287:9307   */\n      sub\n        /* \"#utility.yul\":9283:9284   */\n      0x00\n        /* \"#utility.yul\":9272:9281   */\n      dup4\n        /* \"#utility.yul\":9268:9285   */\n      add\n        /* \"#utility.yul\":9261:9308   */\n      mstore\n        /* \"#utility.yul\":9325:9489   */\n      tag_345\n        /* \"#utility.yul\":9484:9488   */\n      dup2\n        /* \"#utility.yul\":9475:9481   */\n      dup5\n        /* \"#utility.yul\":9325:9489   */\n      tag_297\n      jump\t// in\n    tag_345:\n        /* \"#utility.yul\":9317:9489   */\n      swap1\n      pop\n        /* \"#utility.yul\":9011:9496   */\n      swap3\n      swap2\n      pop\n      pop\n      jump\t// out\n        /* \"#utility.yul\":9502:9724   */\n    tag_48:\n        /* \"#utility.yul\":9595:9599   */\n      0x00\n        /* \"#utility.yul\":9633:9635   */\n      0x20\n        /* \"#utility.yul\":9622:9631   */\n      dup3\n        /* \"#utility.yul\":9618:9636   */\n      add\n        /* \"#utility.yul\":9610:9636   */\n      swap1\n      pop\n        /* \"#utility.yul\":9646:9717   */\n      tag_347\n        /* \"#utility.yul\":9714:9715   */\n      0x00\n        /* \"#utility.yul\":9703:9712   */\n      dup4\n        /* \"#utility.yul\":9699:9716   */\n      add\n        /* \"#utility.yul\":9690:9696   */\n      dup5\n        /* \"#utility.yul\":9646:9717   */\n      tag_341\n      jump\t// in\n    tag_347:\n        /* \"#utility.yul\":9502:9724   */\n      swap3\n      swap2\n      pop\n      pop\n      jump\t// out\n        /* \"#utility.yul\":9730:10818   */\n    tag_34:\n        /* \"#utility.yul\":10039:10043   */\n      0x00\n        /* \"#utility.yul\":10077:10080   */\n      0x0100\n        /* \"#utility.yul\":10066:10075   */\n      dup3\n        /* \"#utility.yul\":10062:10081   */\n      add\n        /* \"#utility.yul\":10054:10081   */\n      swap1\n      pop\n        /* \"#utility.yul\":10091:10162   */\n      tag_349\n        /* \"#utility.yul\":10159:10160   */\n      0x00\n        /* \"#utility.yul\":10148:10157   */\n      dup4\n        /* \"#utility.yul\":10144:10161   */\n      add\n        /* \"#utility.yul\":10135:10141   */\n      dup12\n        /* \"#utility.yul\":10091:10162   */\n      tag_341\n      jump\t// in\n    tag_349:\n        /* \"#utility.yul\":10209:10218   */\n      dup2\n        /* \"#utility.yul\":10203:10207   */\n      dup2\n        /* \"#utility.yul\":10199:10219   */\n      sub\n        /* \"#utility.yul\":10194:10196   */\n      0x20\n        /* \"#utility.yul\":10183:10192   */\n      dup4\n        /* \"#utility.yul\":10179:10197   */\n      add\n        /* \"#utility.yul\":10172:10220   */\n      mstore\n        /* \"#utility.yul\":10237:10315   */\n      tag_350\n        /* \"#utility.yul\":10310:10314   */\n      dup2\n        /* \"#utility.yul\":10301:10307   */\n      dup11\n        /* \"#utility.yul\":10237:10315   */\n      tag_321\n      jump\t// in\n    tag_350:\n        /* \"#utility.yul\":10229:10315   */\n      swap1\n      pop\n        /* \"#utility.yul\":10325:10397   */\n      tag_351\n        /* \"#utility.yul\":10393:10395   */\n      0x40\n        /* \"#utility.yul\":10382:10391   */\n      dup4\n        /* \"#utility.yul\":10378:10396   */\n      add\n        /* \"#utility.yul\":10369:10375   */\n      dup10\n        /* \"#utility.yul\":10325:10397   */\n      tag_341\n      jump\t// in\n    tag_351:\n        /* \"#utility.yul\":10407:10479   */\n      tag_352\n        /* \"#utility.yul\":10475:10477   */\n      0x60\n        /* \"#utility.yul\":10464:10473   */\n      dup4\n        /* \"#utility.yul\":10460:10478   */\n      add\n        /* \"#utility.yul\":10451:10457   */\n      dup9\n        /* \"#utility.yul\":10407:10479   */\n      tag_294\n      jump\t// in\n    tag_352:\n        /* \"#utility.yul\":10489:10562   */\n      tag_353\n        /* \"#utility.yul\":10557:10560   */\n      0x80\n        /* \"#utility.yul\":10546:10555   */\n      dup4\n        /* \"#utility.yul\":10542:10561   */\n      add\n        /* \"#utility.yul\":10533:10539   */\n      dup8\n        /* \"#utility.yul\":10489:10562   */\n      tag_294\n      jump\t// in\n    tag_353:\n        /* \"#utility.yul\":10572:10645   */\n      tag_354\n        /* \"#utility.yul\":10640:10643   */\n      0xa0\n        /* \"#utility.yul\":10629:10638   */\n      dup4\n        /* \"#utility.yul\":10625:10644   */\n      add\n        /* \"#utility.yul\":10616:10622   */\n      dup7\n        /* \"#utility.yul\":10572:10645   */\n      tag_341\n      jump\t// in\n    tag_354:\n        /* \"#utility.yul\":10655:10728   */\n      tag_355\n        /* \"#utility.yul\":10723:10726   */\n      0xc0\n        /* \"#utility.yul\":10712:10721   */\n      dup4\n        /* \"#utility.yul\":10708:10727   */\n      add\n        /* \"#utility.yul\":10699:10705   */\n      dup6\n        /* \"#utility.yul\":10655:10728   */\n      tag_341\n      jump\t// in\n    tag_355:\n        /* \"#utility.yul\":10738:10811   */\n      tag_356\n        /* \"#utility.yul\":10806:10809   */\n      0xe0\n        /* \"#utility.yul\":10795:10804   */\n      dup4\n        /* \"#utility.yul\":10791:10810   */\n      add\n        /* \"#utility.yul\":10782:10788   */\n      dup5\n        /* \"#utility.yul\":10738:10811   */\n      tag_341\n      jump\t// in\n    tag_356:\n        /* \"#utility.yul\":9730:10818   */\n      swap10\n      swap9\n      pop\n      pop\n      pop\n      pop\n      pop\n      pop\n      pop\n      pop\n      pop\n      jump\t// out\n        /* \"#utility.yul\":10824:10953   */\n    tag_227:\n        /* \"#utility.yul\":10858:10864   */\n      0x00\n        /* \"#utility.yul\":10885:10905   */\n      tag_358\n      tag_359\n      jump\t// in\n    tag_358:\n        /* \"#utility.yul\":10875:10905   */\n      swap1\n      pop\n        /* \"#utility.yul\":10914:10947   */\n      tag_360\n        /* \"#utility.yul\":10942:10946   */\n      dup3\n        /* \"#utility.yul\":10934:10940   */\n      dup3\n        /* \"#utility.yul\":10914:10947   */\n      tag_361\n      jump\t// in\n    tag_360:\n        /* \"#utility.yul\":10824:10953   */\n      swap2\n      swap1\n      pop\n      jump\t// out\n        /* \"#utility.yul\":10959:11034   */\n    tag_359:\n        /* \"#utility.yul\":10992:10998   */\n      0x00\n        /* \"#utility.yul\":11025:11027   */\n      0x40\n        /* \"#utility.yul\":11019:11028   */\n      mload\n        /* \"#utility.yul\":11009:11028   */\n      swap1\n      pop\n        /* \"#utility.yul\":10959:11034   */\n      swap1\n      jump\t// out\n        /* \"#utility.yul\":11040:11348   */\n    tag_226:\n        /* \"#utility.yul\":11102:11106   */\n      0x00\n        /* \"#utility.yul\":11192:11210   */\n      0xffffffffffffffff\n        /* \"#utility.yul\":11184:11190   */\n      dup3\n        /* \"#utility.yul\":11181:11211   */\n      gt\n        /* \"#utility.yul\":11178:11234   */\n      iszero\n      tag_364\n      jumpi\n        /* \"#utility.yul\":11214:11232   */\n      tag_365\n      tag_366\n      jump\t// in\n    tag_365:\n        /* \"#utility.yul\":11178:11234   */\n    tag_364:\n        /* \"#utility.yul\":11252:11281   */\n      tag_367\n        /* \"#utility.yul\":11274:11280   */\n      dup3\n        /* \"#utility.yul\":11252:11281   */\n      tag_320\n      jump\t// in\n    tag_367:\n        /* \"#utility.yul\":11244:11281   */\n      swap1\n      pop\n        /* \"#utility.yul\":11336:11340   */\n      0x20\n        /* \"#utility.yul\":11330:11334   */\n      dup2\n        /* \"#utility.yul\":11326:11341   */\n      add\n        /* \"#utility.yul\":11318:11341   */\n      swap1\n      pop\n        /* \"#utility.yul\":11040:11348   */\n      swap2\n      swap1\n      pop\n      jump\t// out\n        /* \"#utility.yul\":11354:11514   */\n    tag_304:\n        /* \"#utility.yul\":11449:11453   */\n      0x00\n        /* \"#utility.yul\":11472:11475   */\n      dup2\n        /* \"#utility.yul\":11464:11475   */\n      swap1\n      pop\n        /* \"#utility.yul\":11502:11506   */\n      0x20\n        /* \"#utility.yul\":11497:11500   */\n      dup3\n        /* \"#utility.yul\":11493:11507   */\n      add\n        /* \"#utility.yul\":11485:11507   */\n      swap1\n      pop\n        /* \"#utility.yul\":11354:11514   */\n      swap2\n      swap1\n      pop\n      jump\t// out\n        /* \"#utility.yul\":11520:11662   */\n    tag_300:\n        /* \"#utility.yul\":11615:11621   */\n      0x00\n        /* \"#utility.yul\":11649:11654   */\n      dup2\n        /* \"#utility.yul\":11643:11655   */\n      mload\n        /* \"#utility.yul\":11633:11655   */\n      swap1\n      pop\n        /* \"#utility.yul\":11520:11662   */\n      swap2\n      swap1\n      pop\n      jump\t// out\n        /* \"#utility.yul\":11668:11767   */\n    tag_314:\n        /* \"#utility.yul\":11720:11726   */\n      0x00\n        /* \"#utility.yul\":11754:11759   */\n      dup2\n        /* \"#utility.yul\":11748:11760   */\n      mload\n        /* \"#utility.yul\":11738:11760   */\n      swap1\n      pop\n        /* \"#utility.yul\":11668:11767   */\n      swap2\n      swap1\n      pop\n      jump\t// out\n        /* \"#utility.yul\":11773:11914   */\n    tag_310:\n        /* \"#utility.yul\":11871:11875   */\n      0x00\n        /* \"#utility.yul\":11903:11907   */\n      0x20\n        /* \"#utility.yul\":11898:11901   */\n      dup3\n        /* \"#utility.yul\":11894:11908   */\n      add\n        /* \"#utility.yul\":11886:11908   */\n      swap1\n      pop\n        /* \"#utility.yul\":11773:11914   */\n      swap2\n      swap1\n      pop\n      jump\t// out\n        /* \"#utility.yul\":11920:12132   */\n    tag_302:\n        /* \"#utility.yul\":12047:12058   */\n      0x00\n        /* \"#utility.yul\":12081:12087   */\n      dup3\n        /* \"#utility.yul\":12076:12079   */\n      dup3\n        /* \"#utility.yul\":12069:12088   */\n      mstore\n        /* \"#utility.yul\":12121:12125   */\n      0x20\n        /* \"#utility.yul\":12116:12119   */\n      dup3\n        /* \"#utility.yul\":12112:12126   */\n      add\n        /* \"#utility.yul\":12097:12126   */\n      swap1\n      pop\n        /* \"#utility.yul\":11920:12132   */\n      swap3\n      swap2\n      pop\n      pop\n      jump\t// out\n        /* \"#utility.yul\":12138:12297   */\n    tag_316:\n        /* \"#utility.yul\":12212:12223   */\n      0x00\n        /* \"#utility.yul\":12246:12252   */\n      dup3\n        /* \"#utility.yul\":12241:12244   */\n      dup3\n        /* \"#utility.yul\":12234:12253   */\n      mstore\n        /* \"#utility.yul\":12286:12290   */\n      0x20\n        /* \"#utility.yul\":12281:12284   */\n      dup3\n        /* \"#utility.yul\":12277:12291   */\n      add\n        /* \"#utility.yul\":12262:12291   */\n      swap1\n      pop\n        /* \"#utility.yul\":12138:12297   */\n      swap3\n      swap2\n      pop\n      pop\n      jump\t// out\n        /* \"#utility.yul\":12303:12472   */\n    tag_325:\n        /* \"#utility.yul\":12387:12398   */\n      0x00\n        /* \"#utility.yul\":12421:12427   */\n      dup3\n        /* \"#utility.yul\":12416:12419   */\n      dup3\n        /* \"#utility.yul\":12409:12428   */\n      mstore\n        /* \"#utility.yul\":12461:12465   */\n      0x20\n        /* \"#utility.yul\":12456:12459   */\n      dup3\n        /* \"#utility.yul\":12452:12466   */\n      add\n        /* \"#utility.yul\":12437:12466   */\n      swap1\n      pop\n        /* \"#utility.yul\":12303:12472   */\n      swap3\n      swap2\n      pop\n      pop\n      jump\t// out\n        /* \"#utility.yul\":12478:12783   */\n    tag_83:\n        /* \"#utility.yul\":12518:12521   */\n      0x00\n        /* \"#utility.yul\":12537:12557   */\n      tag_376\n        /* \"#utility.yul\":12555:12556   */\n      dup3\n        /* \"#utility.yul\":12537:12557   */\n      tag_340\n      jump\t// in\n    tag_376:\n        /* \"#utility.yul\":12532:12557   */\n      swap2\n      pop\n        /* \"#utility.yul\":12571:12591   */\n      tag_377\n        /* \"#utility.yul\":12589:12590   */\n      dup4\n        /* \"#utility.yul\":12571:12591   */\n      tag_340\n      jump\t// in\n    tag_377:\n        /* \"#utility.yul\":12566:12591   */\n      swap3\n      pop\n        /* \"#utility.yul\":12725:12726   */\n      dup3\n        /* \"#utility.yul\":12657:12723   */\n      0xffffffffffffffffffffffffffffffffffffffffffffffffffffffffffffffff\n        /* \"#utility.yul\":12653:12727   */\n      sub\n        /* \"#utility.yul\":12650:12651   */\n      dup3\n        /* \"#utility.yul\":12647:12728   */\n      gt\n        /* \"#utility.yul\":12644:12751   */\n      iszero\n      tag_378\n      jumpi\n        /* \"#utility.yul\":12731:12749   */\n      tag_379\n      tag_380\n      jump\t// in\n    tag_379:\n        /* \"#utility.yul\":12644:12751   */\n    tag_378:\n        /* \"#utility.yul\":12775:12776   */\n      dup3\n        /* \"#utility.yul\":12772:12773   */\n      dup3\n        /* \"#utility.yul\":12768:12777   */\n      add\n        /* \"#utility.yul\":12761:12777   */\n      swap1\n      pop\n        /* \"#utility.yul\":12478:12783   */\n      swap3\n      swap2\n      pop\n      pop\n      jump\t// out\n        /* \"#utility.yul\":12789:13137   */\n    tag_197:\n        /* \"#utility.yul\":12829:12836   */\n      0x00\n        /* \"#utility.yul\":12852:12872   */\n      tag_382\n        /* \"#utility.yul\":12870:12871   */\n      dup3\n        /* \"#utility.yul\":12852:12872   */\n      tag_340\n      jump\t// in\n    tag_382:\n        /* \"#utility.yul\":12847:12872   */\n      swap2\n      pop\n        /* \"#utility.yul\":12886:12906   */\n      tag_383\n        /* \"#utility.yul\":12904:12905   */\n      dup4\n        /* \"#utility.yul\":12886:12906   */\n      tag_340\n      jump\t// in\n    tag_383:\n        /* \"#utility.yul\":12881:12906   */\n      swap3\n      pop\n        /* \"#utility.yul\":13074:13075   */\n      dup2\n        /* \"#utility.yul\":13006:13072   */\n      0xffffffffffffffffffffffffffffffffffffffffffffffffffffffffffffffff\n        /* \"#utility.yul\":13002:13076   */\n      div\n        /* \"#utility.yul\":12999:13000   */\n      dup4\n        /* \"#utility.yul\":12996:13077   */\n      gt\n        /* \"#utility.yul\":12991:12992   */\n      dup3\n        /* \"#utility.yul\":12984:12993   */\n      iszero\n        /* \"#utility.yul\":12977:12994   */\n      iszero\n        /* \"#utility.yul\":12973:13078   */\n      and\n        /* \"#utility.yul\":12970:13101   */\n      iszero\n      tag_384\n      jumpi\n        /* \"#utility.yul\":13081:13099   */\n      tag_385\n      tag_380\n      jump\t// in\n    tag_385:\n        /* \"#utility.yul\":12970:13101   */\n    tag_384:\n        /* \"#utility.yul\":13129:13130   */\n      dup3\n        /* \"#utility.yul\":13126:13127   */\n      dup3\n        /* \"#utility.yul\":13122:13131   */\n      mul\n        /* \"#utility.yul\":13111:13131   */\n      swap1\n      pop\n        /* \"#utility.yul\":12789:13137   */\n      swap3\n      swap2\n      pop\n      pop\n      jump\t// out\n        /* \"#utility.yul\":13143:13334   */\n    tag_61:\n        /* \"#utility.yul\":13183:13187   */\n      0x00\n        /* \"#utility.yul\":13203:13223   */\n      tag_387\n        /* \"#utility.yul\":13221:13222   */\n      dup3\n        /* \"#utility.yul\":13203:13223   */\n      tag_340\n      jump\t// in\n    tag_387:\n        /* \"#utility.yul\":13198:13223   */\n      swap2\n      pop\n        /* \"#utility.yul\":13237:13257   */\n      tag_388\n        /* \"#utility.yul\":13255:13256   */\n      dup4\n        /* \"#utility.yul\":13237:13257   */\n      tag_340\n      jump\t// in\n    tag_388:\n        /* \"#utility.yul\":13232:13257   */\n      swap3\n      pop\n        /* \"#utility.yul\":13276:13277   */\n      dup3\n        /* \"#utility.yul\":13273:13274   */\n      dup3\n        /* \"#utility.yul\":13270:13278   */\n      lt\n        /* \"#utility.yul\":13267:13301   */\n      iszero\n      tag_389\n      jumpi\n        /* \"#utility.yul\":13281:13299   */\n      tag_390\n      tag_380\n      jump\t// in\n    tag_390:\n        /* \"#utility.yul\":13267:13301   */\n    tag_389:\n        /* \"#utility.yul\":13326:13327   */\n      dup3\n        /* \"#utility.yul\":13323:13324   */\n      dup3\n        /* \"#utility.yul\":13319:13328   */\n      sub\n        /* \"#utility.yul\":13311:13328   */\n      swap1\n      pop\n        /* \"#utility.yul\":13143:13334   */\n      swap3\n      swap2\n      pop\n      pop\n      jump\t// out\n        /* \"#utility.yul\":13340:13436   */\n    tag_293:\n        /* \"#utility.yul\":13377:13384   */\n      0x00\n        /* \"#utility.yul\":13406:13430   */\n      tag_392\n        /* \"#utility.yul\":13424:13429   */\n      dup3\n        /* \"#utility.yul\":13406:13430   */\n      tag_393\n      jump\t// in\n    tag_392:\n        /* \"#utility.yul\":13395:13430   */\n      swap1\n      pop\n        /* \"#utility.yul\":13340:13436   */\n      swap2\n      swap1\n      pop\n      jump\t// out\n        /* \"#utility.yul\":13442:13568   */\n    tag_393:\n        /* \"#utility.yul\":13479:13486   */\n      0x00\n        /* \"#utility.yul\":13519:13561   */\n      0xffffffffffffffffffffffffffffffffffffffff\n        /* \"#utility.yul\":13512:13517   */\n      dup3\n        /* \"#utility.yul\":13508:13562   */\n      and\n        /* \"#utility.yul\":13497:13562   */\n      swap1\n      pop\n        /* \"#utility.yul\":13442:13568   */\n      swap2\n      swap1\n      pop\n      jump\t// out\n        /* \"#utility.yul\":13574:13651   */\n    tag_340:\n        /* \"#utility.yul\":13611:13618   */\n      0x00\n        /* \"#utility.yul\":13640:13645   */\n      dup2\n        /* \"#utility.yul\":13629:13645   */\n      swap1\n      pop\n        /* \"#utility.yul\":13574:13651   */\n      swap2\n      swap1\n      pop\n      jump\t// out\n        /* \"#utility.yul\":13657:13811   */\n    tag_232:\n        /* \"#utility.yul\":13741:13747   */\n      dup3\n        /* \"#utility.yul\":13736:13739   */\n      dup2\n        /* \"#utility.yul\":13731:13734   */\n      dup4\n        /* \"#utility.yul\":13718:13748   */\n      calldatacopy\n        /* \"#utility.yul\":13803:13804   */\n      0x00\n        /* \"#utility.yul\":13794:13800   */\n      dup4\n        /* \"#utility.yul\":13789:13792   */\n      dup4\n        /* \"#utility.yul\":13785:13801   */\n      add\n        /* \"#utility.yul\":13778:13805   */\n      mstore\n        /* \"#utility.yul\":13657:13811   */\n      pop\n      pop\n      pop\n      jump\t// out\n        /* \"#utility.yul\":13817:14124   */\n    tag_318:\n        /* \"#utility.yul\":13885:13886   */\n      0x00\n        /* \"#utility.yul\":13895:14008   */\n    tag_398:\n        /* \"#utility.yul\":13909:13915   */\n      dup4\n        /* \"#utility.yul\":13906:13907   */\n      dup2\n        /* \"#utility.yul\":13903:13916   */\n      lt\n        /* \"#utility.yul\":13895:14008   */\n      iszero\n      tag_400\n      jumpi\n        /* \"#utility.yul\":13994:13995   */\n      dup1\n        /* \"#utility.yul\":13989:13992   */\n      dup3\n        /* \"#utility.yul\":13985:13996   */\n      add\n        /* \"#utility.yul\":13979:13997   */\n      mload\n        /* \"#utility.yul\":13975:13976   */\n      dup2\n        /* \"#utility.yul\":13970:13973   */\n      dup5\n        /* \"#utility.yul\":13966:13977   */\n      add\n        /* \"#utility.yul\":13959:13998   */\n      mstore\n        /* \"#utility.yul\":13931:13933   */\n      0x20\n        /* \"#utility.yul\":13928:13929   */\n      dup2\n        /* \"#utility.yul\":13924:13934   */\n      add\n        /* \"#utility.yul\":13919:13934   */\n      swap1\n      pop\n        /* \"#utility.yul\":13895:14008   */\n      jump(tag_398)\n    tag_400:\n        /* \"#utility.yul\":14026:14032   */\n      dup4\n        /* \"#utility.yul\":14023:14024   */\n      dup2\n        /* \"#utility.yul\":14020:14033   */\n      gt\n        /* \"#utility.yul\":14017:14118   */\n      iszero\n      tag_401\n      jumpi\n        /* \"#utility.yul\":14106:14107   */\n      0x00\n        /* \"#utility.yul\":14097:14103   */\n      dup5\n        /* \"#utility.yul\":14092:14095   */\n      dup5\n        /* \"#utility.yul\":14088:14104   */\n      add\n        /* \"#utility.yul\":14081:14108   */\n      mstore\n        /* \"#utility.yul\":14017:14118   */\n    tag_401:\n        /* \"#utility.yul\":13866:14124   */\n      pop\n        /* \"#utility.yul\":13817:14124   */\n      pop\n      pop\n      pop\n      jump\t// out\n        /* \"#utility.yul\":14130:14450   */\n    tag_54:\n        /* \"#utility.yul\":14174:14180   */\n      0x00\n        /* \"#utility.yul\":14211:14212   */\n      0x02\n        /* \"#utility.yul\":14205:14209   */\n      dup3\n        /* \"#utility.yul\":14201:14213   */\n      div\n        /* \"#utility.yul\":14191:14213   */\n      swap1\n      pop\n        /* \"#utility.yul\":14258:14259   */\n      0x01\n        /* \"#utility.yul\":14252:14256   */\n      dup3\n        /* \"#utility.yul\":14248:14260   */\n      and\n        /* \"#utility.yul\":14279:14297   */\n      dup1\n        /* \"#utility.yul\":14269:14350   */\n      tag_403\n      jumpi\n        /* \"#utility.yul\":14335:14339   */\n      0x7f\n        /* \"#utility.yul\":14327:14333   */\n      dup3\n        /* \"#utility.yul\":14323:14340   */\n      and\n        /* \"#utility.yul\":14313:14340   */\n      swap2\n      pop\n        /* \"#utility.yul\":14269:14350   */\n    tag_403:\n        /* \"#utility.yul\":14397:14399   */\n      0x20\n        /* \"#utility.yul\":14389:14395   */\n      dup3\n        /* \"#utility.yul\":14386:14400   */\n      lt\n        /* \"#utility.yul\":14366:14384   */\n      dup2\n        /* \"#utility.yul\":14363:14401   */\n      eq\n        /* \"#utility.yul\":14360:14444   */\n      iszero\n      tag_404\n      jumpi\n        /* \"#utility.yul\":14416:14434   */\n      tag_405\n      tag_406\n      jump\t// in\n    tag_405:\n        /* \"#utility.yul\":14360:14444   */\n    tag_404:\n        /* \"#utility.yul\":14181:14450   */\n      pop\n        /* \"#utility.yul\":14130:14450   */\n      swap2\n      swap1\n      pop\n      jump\t// out\n        /* \"#utility.yul\":14456:14737   */\n    tag_361:\n        /* \"#utility.yul\":14539:14566   */\n      tag_408\n        /* \"#utility.yul\":14561:14565   */\n      dup3\n        /* \"#utility.yul\":14539:14566   */\n      tag_320\n      jump\t// in\n    tag_408:\n        /* \"#utility.yul\":14531:14537   */\n      dup2\n        /* \"#utility.yul\":14527:14567   */\n      add\n        /* \"#utility.yul\":14669:14675   */\n      dup2\n        /* \"#utility.yul\":14657:14667   */\n      dup2\n        /* \"#utility.yul\":14654:14676   */\n      lt\n        /* \"#utility.yul\":14633:14651   */\n      0xffffffffffffffff\n        /* \"#utility.yul\":14621:14631   */\n      dup3\n        /* \"#utility.yul\":14618:14652   */\n      gt\n        /* \"#utility.yul\":14615:14677   */\n      or\n        /* \"#utility.yul\":14612:14700   */\n      iszero\n      tag_409\n      jumpi\n        /* \"#utility.yul\":14680:14698   */\n      tag_410\n      tag_366\n      jump\t// in\n    tag_410:\n        /* \"#utility.yul\":14612:14700   */\n    tag_409:\n        /* \"#utility.yul\":14720:14730   */\n      dup1\n        /* \"#utility.yul\":14716:14718   */\n      0x40\n        /* \"#utility.yul\":14709:14731   */\n      mstore\n        /* \"#utility.yul\":14499:14737   */\n      pop\n        /* \"#utility.yul\":14456:14737   */\n      pop\n      pop\n      jump\t// out\n        /* \"#utility.yul\":14743:14976   */\n    tag_96:\n        /* \"#utility.yul\":14782:14785   */\n      0x00\n        /* \"#utility.yul\":14805:14829   */\n      tag_412\n        /* \"#utility.yul\":14823:14828   */\n      dup3\n        /* \"#utility.yul\":14805:14829   */\n      tag_340\n      jump\t// in\n    tag_412:\n        /* \"#utility.yul\":14796:14829   */\n      swap2\n      pop\n        /* \"#utility.yul\":14851:14917   */\n      0xffffffffffffffffffffffffffffffffffffffffffffffffffffffffffffffff\n        /* \"#utility.yul\":14844:14849   */\n      dup3\n        /* \"#utility.yul\":14841:14918   */\n      eq\n        /* \"#utility.yul\":14838:14941   */\n      iszero\n      tag_413\n      jumpi\n        /* \"#utility.yul\":14921:14939   */\n      tag_414\n      tag_380\n      jump\t// in\n    tag_414:\n        /* \"#utility.yul\":14838:14941   */\n    tag_413:\n        /* \"#utility.yul\":14968:14969   */\n      0x01\n        /* \"#utility.yul\":14961:14966   */\n      dup3\n        /* \"#utility.yul\":14957:14970   */\n      add\n        /* \"#utility.yul\":14950:14970   */\n      swap1\n      pop\n        /* \"#utility.yul\":14743:14976   */\n      swap2\n      swap1\n      pop\n      jump\t// out\n        /* \"#utility.yul\":14982:15162   */\n    tag_380:\n        /* \"#utility.yul\":15030:15107   */\n      0x4e487b7100000000000000000000000000000000000000000000000000000000\n        /* \"#utility.yul\":15027:15028   */\n      0x00\n        /* \"#utility.yul\":15020:15108   */\n      mstore\n        /* \"#utility.yul\":15127:15131   */\n      0x11\n        /* \"#utility.yul\":15124:15125   */\n      0x04\n        /* \"#utility.yul\":15117:15132   */\n      mstore\n        /* \"#utility.yul\":15151:15155   */\n      0x24\n        /* \"#utility.yul\":15148:15149   */\n      0x00\n        /* \"#utility.yul\":15141:15156   */\n      revert\n        /* \"#utility.yul\":15168:15348   */\n    tag_406:\n        /* \"#utility.yul\":15216:15293   */\n      0x4e487b7100000000000000000000000000000000000000000000000000000000\n        /* \"#utility.yul\":15213:15214   */\n      0x00\n        /* \"#utility.yul\":15206:15294   */\n      mstore\n        /* \"#utility.yul\":15313:15317   */\n      0x22\n        /* \"#utility.yul\":15310:15311   */\n      0x04\n        /* \"#utility.yul\":15303:15318   */\n      mstore\n        /* \"#utility.yul\":15337:15341   */\n      0x24\n        /* \"#utility.yul\":15334:15335   */\n      0x00\n        /* \"#utility.yul\":15327:15342   */\n      revert\n        /* \"#utility.yul\":15354:15534   */\n    tag_118:\n        /* \"#utility.yul\":15402:15479   */\n      0x4e487b7100000000000000000000000000000000000000000000000000000000\n        /* \"#utility.yul\":15399:15400   */\n      0x00\n        /* \"#utility.yul\":15392:15480   */\n      mstore\n        /* \"#utility.yul\":15499:15503   */\n      0x31\n        /* \"#utility.yul\":15496:15497   */\n      0x04\n        /* \"#utility.yul\":15489:15504   */\n      mstore\n        /* \"#utility.yul\":15523:15527   */\n      0x24\n        /* \"#utility.yul\":15520:15521   */\n      0x00\n        /* \"#utility.yul\":15513:15528   */\n      revert\n        /* \"#utility.yul\":15540:15720   */\n    tag_64:\n        /* \"#utility.yul\":15588:15665   */\n      0x4e487b7100000000000000000000000000000000000000000000000000000000\n        /* \"#utility.yul\":15585:15586   */\n      0x00\n        /* \"#utility.yul\":15578:15666   */\n      mstore\n        /* \"#utility.yul\":15685:15689   */\n      0x32\n        /* \"#utility.yul\":15682:15683   */\n      0x04\n        /* \"#utility.yul\":15675:15690   */\n      mstore\n        /* \"#utility.yul\":15709:15713   */\n      0x24\n        /* \"#utility.yul\":15706:15707   */\n      0x00\n        /* \"#utility.yul\":15699:15714   */\n      revert\n        /* \"#utility.yul\":15726:15906   */\n    tag_366:\n        /* \"#utility.yul\":15774:15851   */\n      0x4e487b7100000000000000000000000000000000000000000000000000000000\n        /* \"#utility.yul\":15771:15772   */\n      0x00\n        /* \"#utility.yul\":15764:15852   */\n      mstore\n        /* \"#utility.yul\":15871:15875   */\n      0x41\n        /* \"#utility.yul\":15868:15869   */\n      0x04\n        /* \"#utility.yul\":15861:15876   */\n      mstore\n        /* \"#utility.yul\":15895:15899   */\n      0x24\n        /* \"#utility.yul\":15892:15893   */\n      0x00\n        /* \"#utility.yul\":15885:15900   */\n      revert\n        /* \"#utility.yul\":15912:16029   */\n    tag_241:\n        /* \"#utility.yul\":16021:16022   */\n      0x00\n        /* \"#utility.yul\":16018:16019   */\n      dup1\n        /* \"#utility.yul\":16011:16023   */\n      revert\n        /* \"#utility.yul\":16035:16152   */\n    tag_230:\n        /* \"#utility.yul\":16144:16145   */\n      0x00\n        /* \"#utility.yul\":16141:16142   */\n      dup1\n        /* \"#utility.yul\":16134:16146   */\n      revert\n        /* \"#utility.yul\":16158:16275   */\n    tag_257:\n        /* \"#utility.yul\":16267:16268   */\n      0x00\n        /* \"#utility.yul\":16264:16265   */\n      dup1\n        /* \"#utility.yul\":16257:16269   */\n      revert\n        /* \"#utility.yul\":16281:16398   */\n    tag_250:\n        /* \"#utility.yul\":16390:16391   */\n      0x00\n        /* \"#utility.yul\":16387:16388   */\n      dup1\n        /* \"#utility.yul\":16380:16392   */\n      revert\n        /* \"#utility.yul\":16404:16506   */\n    tag_320:\n        /* \"#utility.yul\":16445:16451   */\n      0x00\n        /* \"#utility.yul\":16496:16498   */\n      0x1f\n        /* \"#utility.yul\":16492:16499   */\n      not\n        /* \"#utility.yul\":16487:16489   */\n      0x1f\n        /* \"#utility.yul\":16480:16485   */\n      dup4\n        /* \"#utility.yul\":16476:16490   */\n      add\n        /* \"#utility.yul\":16472:16500   */\n      and\n        /* \"#utility.yul\":16462:16500   */\n      swap1\n      pop\n        /* \"#utility.yul\":16404:16506   */\n      swap2\n      swap1\n      pop\n      jump\t// out\n        /* \"#utility.yul\":16512:16634   */\n    tag_236:\n        /* \"#utility.yul\":16585:16609   */\n      tag_426\n        /* \"#utility.yul\":16603:16608   */\n      dup2\n        /* \"#utility.yul\":16585:16609   */\n      tag_293\n      jump\t// in\n    tag_426:\n        /* \"#utility.yul\":16578:16583   */\n      dup2\n        /* \"#utility.yul\":16575:16610   */\n      eq\n        /* \"#utility.yul\":16565:16628   */\n      tag_427\n      jumpi\n        /* \"#utility.yul\":16624:16625   */\n      0x00\n        /* \"#utility.yul\":16621:16622   */\n      dup1\n        /* \"#utility.yul\":16614:16626   */\n      revert\n        /* \"#utility.yul\":16565:16628   */\n    tag_427:\n        /* \"#utility.yul\":16512:16634   */\n      pop\n      jump\t// out\n        /* \"#utility.yul\":16640:16762   */\n    tag_246:\n        /* \"#utility.yul\":16713:16737   */\n      tag_429\n        /* \"#utility.yul\":16731:16736   */\n      dup2\n        /* \"#utility.yul\":16713:16737   */\n      tag_340\n      jump\t// in\n    tag_429:\n        /* \"#utility.yul\":16706:16711   */\n      dup2\n        /* \"#utility.yul\":16703:16738   */\n      eq\n        /* \"#utility.yul\":16693:16756   */\n      tag_430\n      jumpi\n        /* \"#utility.yul\":16752:16753   */\n      0x00\n        /* \"#utility.yul\":16749:16750   */\n      dup1\n        /* \"#utility.yul\":16742:16754   */\n      revert\n        /* \"#utility.yul\":16693:16756   */\n    tag_430:\n        /* \"#utility.yul\":16640:16762   */\n      pop\n      jump\t// out\n\n    auxdata: 0xa2646970667358221220776e073d4215b388cf2dea7fd9e3a03ada20084904c81858f644d9b7a9c092e264736f6c63430008070033\n}\n",
				"bytecode": {
					"linkReferences": {},
					"object": "608060405234801561001057600080fd5b50612092806100206000396000f3fe608060405234801561001057600080fd5b50600436106100885760003560e01c806380c9419e1161005b57806380c9419e14610111578063904cc17514610148578063a97af4d514610178578063f8a02d841461019457610088565b8063377e6ff71461008d5780635102bc9d146100bd578063575b70d0146100d957806369ba1a75146100f5575b600080fd5b6100a760048036038101906100a291906117ce565b6101c4565b6040516100b49190611b92565b60405180910390f35b6100d760048036038101906100d291906118fc565b6103d3565b005b6100f360048036038101906100ee9190611958565b61041c565b005b61010f600480360381019061010a91906118cf565b6106c1565b005b61012b600480360381019061012691906118cf565b610c4b565b60405161013f989796959493929190611bcf565b60405180910390f35b610162600480360381019061015d91906118cf565b610d6b565b60405161016f9190611b92565b60405180910390f35b610192600480360381019061018d9190611844565b611128565b005b6101ae60048036038101906101a991906117fb565b61152c565b6040516101bb9190611bb4565b60405180910390f35b6060600360008373ffffffffffffffffffffffffffffffffffffffff1673ffffffffffffffffffffffffffffffffffffffff168152602001908152602001600020805480602002602001604051908101604052809291908181526020016000905b828210156103c85783829060005260206000209060080201604051806101000160405290816000820154815260200160018201805461026390611e72565b80601f016020809104026020016040519081016040528092919081815260200182805461028f90611e72565b80156102dc5780601f106102b1576101008083540402835291602001916102dc565b820191906000526020600020905b8154815290600101906020018083116102bf57829003601f168201915b50505050508152602001600282015481526020016003820160009054906101000a900473ffffffffffffffffffffffffffffffffffffffff1673ffffffffffffffffffffffffffffffffffffffff1673ffffffffffffffffffffffffffffffffffffffff1681526020016004820160009054906101000a900473ffffffffffffffffffffffffffffffffffffffff1673ffffffffffffffffffffffffffffffffffffffff1673ffffffffffffffffffffffffffffffffffffffff168152602001600582015481526020016006820154815260200160078201548152505081526020019060010190610225565b505050509050919050565b80600180846103e29190611dc0565b815481106103f3576103f2611fab565b5b906000526020600020906008020160010190805190602001906104179291906115c4565b505050565b60005b600460008581526020019081526020016000208054905081101561061d578173ffffffffffffffffffffffffffffffffffffffff16600460006001876104659190611dc0565b8152602001908152602001600020828154811061048557610484611fab565b5b9060005260206000200160009054906101000a900473ffffffffffffffffffffffffffffffffffffffff1673ffffffffffffffffffffffffffffffffffffffff1614156104d15761059a565b6001806001866104e19190611dc0565b815481106104f2576104f1611fab565b5b906000526020600020906008020160050160008282546105129190611d10565b925050819055506004600060018661052a9190611dc0565b8152602001908152602001600020829080600181540180825580915050600190039060005260206000200160009091909190916101000a81548173ffffffffffffffffffffffffffffffffffffffff021916908373ffffffffffffffffffffffffffffffffffffffff1602179055505b82600180866105a99190611dc0565b815481106105ba576105b9611fab565b5b9060005260206000209060080201600701546105d69190611d10565b600180866105e49190611dc0565b815481106105f5576105f4611fab565b5b906000526020600020906008020160070181905550808061061590611ed5565b91505061041f565b506001808461062c9190611dc0565b8154811061063d5761063c611fab565b5b9060005260206000209060080201600601546001808561065d9190611dc0565b8154811061066e5761066d611fab565b5b906000526020600020906008020160070154106106bc576002600180856106959190611dc0565b815481106106a6576106a5611fab565b5b9060005260206000209060080201600201819055505b505050565b6003600180836106d19190611dc0565b815481106106e2576106e1611fab565b5b906000526020600020906008020160020181905550600160026000600181526020019081526020016000208054905014156107df57600260006001815260200190815260200160002080548061073b5761073a611f7c565b5b6001900381819060005260206000209060080201600080820160009055600182016000610768919061164a565b60028201600090556003820160006101000a81549073ffffffffffffffffffffffffffffffffffffffff02191690556004820160006101000a81549073ffffffffffffffffffffffffffffffffffffffff021916905560058201600090556006820160009055600782016000905550509055610abc565b60005b60016002600060018152602001908152602001600020805490506108069190611dc0565b8110156109f757816002600060018152602001908152602001600020828154811061083457610833611fab565b5b90600052602060002090600802016000015414156109e457600260006001815260200190815260200160002060018261086d9190611d10565b8154811061087e5761087d611fab565b5b9060005260206000209060080201600260006001815260200190815260200160002082815481106108b2576108b1611fab565b5b90600052602060002090600802016000820154816000015560018201816001019080546108de90611e72565b6108e992919061168a565b50600282015481600201556003820160009054906101000a900473ffffffffffffffffffffffffffffffffffffffff168160030160006101000a81548173ffffffffffffffffffffffffffffffffffffffff021916908373ffffffffffffffffffffffffffffffffffffffff1602179055506004820160009054906101000a900473ffffffffffffffffffffffffffffffffffffffff168160040160006101000a81548173ffffffffffffffffffffffffffffffffffffffff021916908373ffffffffffffffffffffffffffffffffffffffff1602179055506005820154816005015560068201548160060155600782015481600701559050505b80806109ef90611ed5565b9150506107e2565b506002600060018152602001908152602001600020805480610a1c57610a1b611f7c565b5b6001900381819060005260206000209060080201600080820160009055600182016000610a49919061164a565b60028201600090556003820160006101000a81549073ffffffffffffffffffffffffffffffffffffffff02191690556004820160006101000a81549073ffffffffffffffffffffffffffffffffffffffff0219169055600582016000905560068201600090556007820160009055505090555b600260006003815260200190815260200160002060018083610ade9190611dc0565b81548110610aef57610aee611fab565b5b90600052602060002090600802019080600181540180825580915050600190039060005260206000209060080201600090919091909150600082015481600001556001820181600101908054610b4490611e72565b610b4f92919061168a565b50600282015481600201556003820160009054906101000a900473ffffffffffffffffffffffffffffffffffffffff168160030160006101000a81548173ffffffffffffffffffffffffffffffffffffffff021916908373ffffffffffffffffffffffffffffffffffffffff1602179055506004820160009054906101000a900473ffffffffffffffffffffffffffffffffffffffff168160040160006101000a81548173ffffffffffffffffffffffffffffffffffffffff021916908373ffffffffffffffffffffffffffffffffffffffff160217905550600582015481600501556006820154816006015560078201548160070155505050565b60018181548110610c5b57600080fd5b9060005260206000209060080201600091509050806000015490806001018054610c8490611e72565b80601f0160208091040260200160405190810160405280929190818152602001828054610cb090611e72565b8015610cfd5780601f10610cd257610100808354040283529160200191610cfd565b820191906000526020600020905b815481529060010190602001808311610ce057829003601f168201915b5050505050908060020154908060030160009054906101000a900473ffffffffffffffffffffffffffffffffffffffff16908060040160009054906101000a900473ffffffffffffffffffffffffffffffffffffffff16908060050154908060060154908060070154905088565b60606000821415610f46576001805480602002602001604051908101604052809291908181526020016000905b82821015610f3b57838290600052602060002090600802016040518061010001604052908160008201548152602001600182018054610dd690611e72565b80601f0160208091040260200160405190810160405280929190818152602001828054610e0290611e72565b8015610e4f5780601f10610e2457610100808354040283529160200191610e4f565b820191906000526020600020905b815481529060010190602001808311610e3257829003601f168201915b50505050508152602001600282015481526020016003820160009054906101000a900473ffffffffffffffffffffffffffffffffffffffff1673ffffffffffffffffffffffffffffffffffffffff1673ffffffffffffffffffffffffffffffffffffffff1681526020016004820160009054906101000a900473ffffffffffffffffffffffffffffffffffffffff1673ffffffffffffffffffffffffffffffffffffffff1673ffffffffffffffffffffffffffffffffffffffff168152602001600582015481526020016006820154815260200160078201548152505081526020019060010190610d98565b505050509050611123565b60026000838152602001908152602001600020805480602002602001604051908101604052809291908181526020016000905b8282101561111c57838290600052602060002090600802016040518061010001604052908160008201548152602001600182018054610fb790611e72565b80601f0160208091040260200160405190810160405280929190818152602001828054610fe390611e72565b80156110305780601f1061100557610100808354040283529160200191611030565b820191906000526020600020905b81548152906001019060200180831161101357829003601f168201915b50505050508152602001600282015481526020016003820160009054906101000a900473ffffffffffffffffffffffffffffffffffffffff1673ffffffffffffffffffffffffffffffffffffffff1673ffffffffffffffffffffffffffffffffffffffff1681526020016004820160009054906101000a900473ffffffffffffffffffffffffffffffffffffffff1673ffffffffffffffffffffffffffffffffffffffff1673ffffffffffffffffffffffffffffffffffffffff168152602001600582015481526020016006820154815260200160078201548152505081526020019060010190610f79565b5050505090505b919050565b60008081548092919061113a90611ed5565b919050555060006040518061010001604052806000548152602001858152602001600181526020013373ffffffffffffffffffffffffffffffffffffffff1681526020018473ffffffffffffffffffffffffffffffffffffffff168152602001600081526020016111aa8461152c565b81526020016000815250905060018190806001815401808255809150506001900390600052602060002090600802016000909190919091506000820151816000015560208201518160010190805190602001906112089291906115c4565b506040820151816002015560608201518160030160006101000a81548173ffffffffffffffffffffffffffffffffffffffff021916908373ffffffffffffffffffffffffffffffffffffffff16021790555060808201518160040160006101000a81548173ffffffffffffffffffffffffffffffffffffffff021916908373ffffffffffffffffffffffffffffffffffffffff16021790555060a0820151816005015560c0820151816006015560e08201518160070155505060026000600181526020019081526020016000208190806001815401808255809150506001900390600052602060002090600802016000909190919091506000820151816000015560208201518160010190805190602001906113259291906115c4565b506040820151816002015560608201518160030160006101000a81548173ffffffffffffffffffffffffffffffffffffffff021916908373ffffffffffffffffffffffffffffffffffffffff16021790555060808201518160040160006101000a81548173ffffffffffffffffffffffffffffffffffffffff021916908373ffffffffffffffffffffffffffffffffffffffff16021790555060a0820151816005015560c0820151816006015560e082015181600701555050600360003373ffffffffffffffffffffffffffffffffffffffff1673ffffffffffffffffffffffffffffffffffffffff16815260200190815260200160002081908060018154018082558091505060019003906000526020600020906008020160009091909190915060008201518160000155602082015181600101908051906020019061146d9291906115c4565b506040820151816002015560608201518160030160006101000a81548173ffffffffffffffffffffffffffffffffffffffff021916908373ffffffffffffffffffffffffffffffffffffffff16021790555060808201518160040160006101000a81548173ffffffffffffffffffffffffffffffffffffffff021916908373ffffffffffffffffffffffffffffffffffffffff16021790555060a0820151816005015560c0820151816006015560e08201518160070155505050505050565b6000808290506000805b82518110156115b957600083828151811061155457611553611fab565b5b602001015160f81c60f81b60f81c60ff16905060308110158015611579575060398111155b156115a55760308161158b9190611dc0565b600a846115989190611d66565b6115a29190611d10565b92505b5080806115b190611ed5565b915050611536565b508092505050919050565b8280546115d090611e72565b90600052602060002090601f0160209004810192826115f25760008555611639565b82601f1061160b57805160ff1916838001178555611639565b82800160010185558215611639579182015b8281111561163857825182559160200191906001019061161d565b5b5090506116469190611717565b5090565b50805461165690611e72565b6000825580601f106116685750611687565b601f0160209004906000526020600020908101906116869190611717565b5b50565b82805461169690611e72565b90600052602060002090601f0160209004810192826116b85760008555611706565b82601f106116c95780548555611706565b8280016001018555821561170657600052602060002091601f016020900482015b828111156117055782548255916001019190600101906116ea565b5b5090506117139190611717565b5090565b5b80821115611730576000816000905550600101611718565b5090565b600061174761174284611c79565b611c54565b9050828152602081018484840111156117635761176261200e565b5b61176e848285611e30565b509392505050565b6000813590506117858161202e565b92915050565b600082601f8301126117a05761179f612009565b5b81356117b0848260208601611734565b91505092915050565b6000813590506117c881612045565b92915050565b6000602082840312156117e4576117e3612018565b5b60006117f284828501611776565b91505092915050565b60006020828403121561181157611810612018565b5b600082013567ffffffffffffffff81111561182f5761182e612013565b5b61183b8482850161178b565b91505092915050565b60008060006060848603121561185d5761185c612018565b5b600084013567ffffffffffffffff81111561187b5761187a612013565b5b6118878682870161178b565b935050602061189886828701611776565b925050604084013567ffffffffffffffff8111156118b9576118b8612013565b5b6118c58682870161178b565b9150509250925092565b6000602082840312156118e5576118e4612018565b5b60006118f3848285016117b9565b91505092915050565b6000806040838503121561191357611912612018565b5b6000611921858286016117b9565b925050602083013567ffffffffffffffff81111561194257611941612013565b5b61194e8582860161178b565b9150509250929050565b60008060006060848603121561197157611970612018565b5b600061197f868287016117b9565b9350506020611990868287016117b9565b92505060406119a186828701611776565b9150509250925092565b60006119b78383611ac4565b905092915050565b6119c881611df4565b82525050565b6119d781611df4565b82525050565b60006119e882611cba565b6119f28185611cdd565b935083602082028501611a0485611caa565b8060005b85811015611a405784840389528151611a2185826119ab565b9450611a2c83611cd0565b925060208a01995050600181019050611a08565b50829750879550505050505092915050565b6000611a5d82611cc5565b611a678185611cee565b9350611a77818560208601611e3f565b611a808161201d565b840191505092915050565b6000611a9682611cc5565b611aa08185611cff565b9350611ab0818560208601611e3f565b611ab98161201d565b840191505092915050565b600061010083016000830151611add6000860182611b74565b5060208301518482036020860152611af58282611a52565b9150506040830151611b0a6040860182611b74565b506060830151611b1d60608601826119bf565b506080830151611b3060808601826119bf565b5060a0830151611b4360a0860182611b74565b5060c0830151611b5660c0860182611b74565b5060e0830151611b6960e0860182611b74565b508091505092915050565b611b7d81611e26565b82525050565b611b8c81611e26565b82525050565b60006020820190508181036000830152611bac81846119dd565b905092915050565b6000602082019050611bc96000830184611b83565b92915050565b600061010082019050611be5600083018b611b83565b8181036020830152611bf7818a611a8b565b9050611c066040830189611b83565b611c1360608301886119ce565b611c2060808301876119ce565b611c2d60a0830186611b83565b611c3a60c0830185611b83565b611c4760e0830184611b83565b9998505050505050505050565b6000611c5e611c6f565b9050611c6a8282611ea4565b919050565b6000604051905090565b600067ffffffffffffffff821115611c9457611c93611fda565b5b611c9d8261201d565b9050602081019050919050565b6000819050602082019050919050565b600081519050919050565b600081519050919050565b6000602082019050919050565b600082825260208201905092915050565b600082825260208201905092915050565b600082825260208201905092915050565b6000611d1b82611e26565b9150611d2683611e26565b9250827fffffffffffffffffffffffffffffffffffffffffffffffffffffffffffffffff03821115611d5b57611d5a611f1e565b5b828201905092915050565b6000611d7182611e26565b9150611d7c83611e26565b9250817fffffffffffffffffffffffffffffffffffffffffffffffffffffffffffffffff0483118215151615611db557611db4611f1e565b5b828202905092915050565b6000611dcb82611e26565b9150611dd683611e26565b925082821015611de957611de8611f1e565b5b828203905092915050565b6000611dff82611e06565b9050919050565b600073ffffffffffffffffffffffffffffffffffffffff82169050919050565b6000819050919050565b82818337600083830152505050565b60005b83811015611e5d578082015181840152602081019050611e42565b83811115611e6c576000848401525b50505050565b60006002820490506001821680611e8a57607f821691505b60208210811415611e9e57611e9d611f4d565b5b50919050565b611ead8261201d565b810181811067ffffffffffffffff82111715611ecc57611ecb611fda565b5b80604052505050565b6000611ee082611e26565b91507fffffffffffffffffffffffffffffffffffffffffffffffffffffffffffffffff821415611f1357611f12611f1e565b5b600182019050919050565b7f4e487b7100000000000000000000000000000000000000000000000000000000600052601160045260246000fd5b7f4e487b7100000000000000000000000000000000000000000000000000000000600052602260045260246000fd5b7f4e487b7100000000000000000000000000000000000000000000000000000000600052603160045260246000fd5b7f4e487b7100000000000000000000000000000000000000000000000000000000600052603260045260246000fd5b7f4e487b7100000000000000000000000000000000000000000000000000000000600052604160045260246000fd5b600080fd5b600080fd5b600080fd5b600080fd5b6000601f19601f8301169050919050565b61203781611df4565b811461204257600080fd5b50565b61204e81611e26565b811461205957600080fd5b5056fea2646970667358221220776e073d4215b388cf2dea7fd9e3a03ada20084904c81858f644d9b7a9c092e264736f6c63430008070033",
					"opcodes": "PUSH1 0x80 PUSH1 0x40 MSTORE CALLVALUE DUP1 ISZERO PUSH2 0x10 JUMPI PUSH1 0x0 DUP1 REVERT JUMPDEST POP PUSH2 0x2092 DUP1 PUSH2 0x20 PUSH1 0x0 CODECOPY PUSH1 0x0 RETURN INVALID PUSH1 0x80 PUSH1 0x40 MSTORE CALLVALUE DUP1 ISZERO PUSH2 0x10 JUMPI PUSH1 0x0 DUP1 REVERT JUMPDEST POP PUSH1 0x4 CALLDATASIZE LT PUSH2 0x88 JUMPI PUSH1 0x0 CALLDATALOAD PUSH1 0xE0 SHR DUP1 PUSH4 0x80C9419E GT PUSH2 0x5B JUMPI DUP1 PUSH4 0x80C9419E EQ PUSH2 0x111 JUMPI DUP1 PUSH4 0x904CC175 EQ PUSH2 0x148 JUMPI DUP1 PUSH4 0xA97AF4D5 EQ PUSH2 0x178 JUMPI DUP1 PUSH4 0xF8A02D84 EQ PUSH2 0x194 JUMPI PUSH2 0x88 JUMP JUMPDEST DUP1 PUSH4 0x377E6FF7 EQ PUSH2 0x8D JUMPI DUP1 PUSH4 0x5102BC9D EQ PUSH2 0xBD JUMPI DUP1 PUSH4 0x575B70D0 EQ PUSH2 0xD9 JUMPI DUP1 PUSH4 0x69BA1A75 EQ PUSH2 0xF5 JUMPI JUMPDEST PUSH1 0x0 DUP1 REVERT JUMPDEST PUSH2 0xA7 PUSH1 0x4 DUP1 CALLDATASIZE SUB DUP2 ADD SWAP1 PUSH2 0xA2 SWAP2 SWAP1 PUSH2 0x17CE JUMP JUMPDEST PUSH2 0x1C4 JUMP JUMPDEST PUSH1 0x40 MLOAD PUSH2 0xB4 SWAP2 SWAP1 PUSH2 0x1B92 JUMP JUMPDEST PUSH1 0x40 MLOAD DUP1 SWAP2 SUB SWAP1 RETURN JUMPDEST PUSH2 0xD7 PUSH1 0x4 DUP1 CALLDATASIZE SUB DUP2 ADD SWAP1 PUSH2 0xD2 SWAP2 SWAP1 PUSH2 0x18FC JUMP JUMPDEST PUSH2 0x3D3 JUMP JUMPDEST STOP JUMPDEST PUSH2 0xF3 PUSH1 0x4 DUP1 CALLDATASIZE SUB DUP2 ADD SWAP1 PUSH2 0xEE SWAP2 SWAP1 PUSH2 0x1958 JUMP JUMPDEST PUSH2 0x41C JUMP JUMPDEST STOP JUMPDEST PUSH2 0x10F PUSH1 0x4 DUP1 CALLDATASIZE SUB DUP2 ADD SWAP1 PUSH2 0x10A SWAP2 SWAP1 PUSH2 0x18CF JUMP JUMPDEST PUSH2 0x6C1 JUMP JUMPDEST STOP JUMPDEST PUSH2 0x12B PUSH1 0x4 DUP1 CALLDATASIZE SUB DUP2 ADD SWAP1 PUSH2 0x126 SWAP2 SWAP1 PUSH2 0x18CF JUMP JUMPDEST PUSH2 0xC4B JUMP JUMPDEST PUSH1 0x40 MLOAD PUSH2 0x13F SWAP9 SWAP8 SWAP7 SWAP6 SWAP5 SWAP4 SWAP3 SWAP2 SWAP1 PUSH2 0x1BCF JUMP JUMPDEST PUSH1 0x40 MLOAD DUP1 SWAP2 SUB SWAP1 RETURN JUMPDEST PUSH2 0x162 PUSH1 0x4 DUP1 CALLDATASIZE SUB DUP2 ADD SWAP1 PUSH2 0x15D SWAP2 SWAP1 PUSH2 0x18CF JUMP JUMPDEST PUSH2 0xD6B JUMP JUMPDEST PUSH1 0x40 MLOAD PUSH2 0x16F SWAP2 SWAP1 PUSH2 0x1B92 JUMP JUMPDEST PUSH1 0x40 MLOAD DUP1 SWAP2 SUB SWAP1 RETURN JUMPDEST PUSH2 0x192 PUSH1 0x4 DUP1 CALLDATASIZE SUB DUP2 ADD SWAP1 PUSH2 0x18D SWAP2 SWAP1 PUSH2 0x1844 JUMP JUMPDEST PUSH2 0x1128 JUMP JUMPDEST STOP JUMPDEST PUSH2 0x1AE PUSH1 0x4 DUP1 CALLDATASIZE SUB DUP2 ADD SWAP1 PUSH2 0x1A9 SWAP2 SWAP1 PUSH2 0x17FB JUMP JUMPDEST PUSH2 0x152C JUMP JUMPDEST PUSH1 0x40 MLOAD PUSH2 0x1BB SWAP2 SWAP1 PUSH2 0x1BB4 JUMP JUMPDEST PUSH1 0x40 MLOAD DUP1 SWAP2 SUB SWAP1 RETURN JUMPDEST PUSH1 0x60 PUSH1 0x3 PUSH1 0x0 DUP4 PUSH20 0xFFFFFFFFFFFFFFFFFFFFFFFFFFFFFFFFFFFFFFFF AND PUSH20 0xFFFFFFFFFFFFFFFFFFFFFFFFFFFFFFFFFFFFFFFF AND DUP2 MSTORE PUSH1 0x20 ADD SWAP1 DUP2 MSTORE PUSH1 0x20 ADD PUSH1 0x0 KECCAK256 DUP1 SLOAD DUP1 PUSH1 0x20 MUL PUSH1 0x20 ADD PUSH1 0x40 MLOAD SWAP1 DUP2 ADD PUSH1 0x40 MSTORE DUP1 SWAP3 SWAP2 SWAP1 DUP2 DUP2 MSTORE PUSH1 0x20 ADD PUSH1 0x0 SWAP1 JUMPDEST DUP3 DUP3 LT ISZERO PUSH2 0x3C8 JUMPI DUP4 DUP3 SWAP1 PUSH1 0x0 MSTORE PUSH1 0x20 PUSH1 0x0 KECCAK256 SWAP1 PUSH1 0x8 MUL ADD PUSH1 0x40 MLOAD DUP1 PUSH2 0x100 ADD PUSH1 0x40 MSTORE SWAP1 DUP2 PUSH1 0x0 DUP3 ADD SLOAD DUP2 MSTORE PUSH1 0x20 ADD PUSH1 0x1 DUP3 ADD DUP1 SLOAD PUSH2 0x263 SWAP1 PUSH2 0x1E72 JUMP JUMPDEST DUP1 PUSH1 0x1F ADD PUSH1 0x20 DUP1 SWAP2 DIV MUL PUSH1 0x20 ADD PUSH1 0x40 MLOAD SWAP1 DUP2 ADD PUSH1 0x40 MSTORE DUP1 SWAP3 SWAP2 SWAP1 DUP2 DUP2 MSTORE PUSH1 0x20 ADD DUP3 DUP1 SLOAD PUSH2 0x28F SWAP1 PUSH2 0x1E72 JUMP JUMPDEST DUP1 ISZERO PUSH2 0x2DC JUMPI DUP1 PUSH1 0x1F LT PUSH2 0x2B1 JUMPI PUSH2 0x100 DUP1 DUP4 SLOAD DIV MUL DUP4 MSTORE SWAP2 PUSH1 0x20 ADD SWAP2 PUSH2 0x2DC JUMP JUMPDEST DUP3 ADD SWAP2 SWAP1 PUSH1 0x0 MSTORE PUSH1 0x20 PUSH1 0x0 KECCAK256 SWAP1 JUMPDEST DUP2 SLOAD DUP2 MSTORE SWAP1 PUSH1 0x1 ADD SWAP1 PUSH1 0x20 ADD DUP1 DUP4 GT PUSH2 0x2BF JUMPI DUP3 SWAP1 SUB PUSH1 0x1F AND DUP3 ADD SWAP2 JUMPDEST POP POP POP POP POP DUP2 MSTORE PUSH1 0x20 ADD PUSH1 0x2 DUP3 ADD SLOAD DUP2 MSTORE PUSH1 0x20 ADD PUSH1 0x3 DUP3 ADD PUSH1 0x0 SWAP1 SLOAD SWAP1 PUSH2 0x100 EXP SWAP1 DIV PUSH20 0xFFFFFFFFFFFFFFFFFFFFFFFFFFFFFFFFFFFFFFFF AND PUSH20 0xFFFFFFFFFFFFFFFFFFFFFFFFFFFFFFFFFFFFFFFF AND PUSH20 0xFFFFFFFFFFFFFFFFFFFFFFFFFFFFFFFFFFFFFFFF AND DUP2 MSTORE PUSH1 0x20 ADD PUSH1 0x4 DUP3 ADD PUSH1 0x0 SWAP1 SLOAD SWAP1 PUSH2 0x100 EXP SWAP1 DIV PUSH20 0xFFFFFFFFFFFFFFFFFFFFFFFFFFFFFFFFFFFFFFFF AND PUSH20 0xFFFFFFFFFFFFFFFFFFFFFFFFFFFFFFFFFFFFFFFF AND PUSH20 0xFFFFFFFFFFFFFFFFFFFFFFFFFFFFFFFFFFFFFFFF AND DUP2 MSTORE PUSH1 0x20 ADD PUSH1 0x5 DUP3 ADD SLOAD DUP2 MSTORE PUSH1 0x20 ADD PUSH1 0x6 DUP3 ADD SLOAD DUP2 MSTORE PUSH1 0x20 ADD PUSH1 0x7 DUP3 ADD SLOAD DUP2 MSTORE POP POP DUP2 MSTORE PUSH1 0x20 ADD SWAP1 PUSH1 0x1 ADD SWAP1 PUSH2 0x225 JUMP JUMPDEST POP POP POP POP SWAP1 POP SWAP2 SWAP1 POP JUMP JUMPDEST DUP1 PUSH1 0x1 DUP1 DUP5 PUSH2 0x3E2 SWAP2 SWAP1 PUSH2 0x1DC0 JUMP JUMPDEST DUP2 SLOAD DUP2 LT PUSH2 0x3F3 JUMPI PUSH2 0x3F2 PUSH2 0x1FAB JUMP JUMPDEST JUMPDEST SWAP1 PUSH1 0x0 MSTORE PUSH1 0x20 PUSH1 0x0 KECCAK256 SWAP1 PUSH1 0x8 MUL ADD PUSH1 0x1 ADD SWAP1 DUP1 MLOAD SWAP1 PUSH1 0x20 ADD SWAP1 PUSH2 0x417 SWAP3 SWAP2 SWAP1 PUSH2 0x15C4 JUMP JUMPDEST POP POP POP JUMP JUMPDEST PUSH1 0x0 JUMPDEST PUSH1 0x4 PUSH1 0x0 DUP6 DUP2 MSTORE PUSH1 0x20 ADD SWAP1 DUP2 MSTORE PUSH1 0x20 ADD PUSH1 0x0 KECCAK256 DUP1 SLOAD SWAP1 POP DUP2 LT ISZERO PUSH2 0x61D JUMPI DUP2 PUSH20 0xFFFFFFFFFFFFFFFFFFFFFFFFFFFFFFFFFFFFFFFF AND PUSH1 0x4 PUSH1 0x0 PUSH1 0x1 DUP8 PUSH2 0x465 SWAP2 SWAP1 PUSH2 0x1DC0 JUMP JUMPDEST DUP2 MSTORE PUSH1 0x20 ADD SWAP1 DUP2 MSTORE PUSH1 0x20 ADD PUSH1 0x0 KECCAK256 DUP3 DUP2 SLOAD DUP2 LT PUSH2 0x485 JUMPI PUSH2 0x484 PUSH2 0x1FAB JUMP JUMPDEST JUMPDEST SWAP1 PUSH1 0x0 MSTORE PUSH1 0x20 PUSH1 0x0 KECCAK256 ADD PUSH1 0x0 SWAP1 SLOAD SWAP1 PUSH2 0x100 EXP SWAP1 DIV PUSH20 0xFFFFFFFFFFFFFFFFFFFFFFFFFFFFFFFFFFFFFFFF AND PUSH20 0xFFFFFFFFFFFFFFFFFFFFFFFFFFFFFFFFFFFFFFFF AND EQ ISZERO PUSH2 0x4D1 JUMPI PUSH2 0x59A JUMP JUMPDEST PUSH1 0x1 DUP1 PUSH1 0x1 DUP7 PUSH2 0x4E1 SWAP2 SWAP1 PUSH2 0x1DC0 JUMP JUMPDEST DUP2 SLOAD DUP2 LT PUSH2 0x4F2 JUMPI PUSH2 0x4F1 PUSH2 0x1FAB JUMP JUMPDEST JUMPDEST SWAP1 PUSH1 0x0 MSTORE PUSH1 0x20 PUSH1 0x0 KECCAK256 SWAP1 PUSH1 0x8 MUL ADD PUSH1 0x5 ADD PUSH1 0x0 DUP3 DUP3 SLOAD PUSH2 0x512 SWAP2 SWAP1 PUSH2 0x1D10 JUMP JUMPDEST SWAP3 POP POP DUP2 SWAP1 SSTORE POP PUSH1 0x4 PUSH1 0x0 PUSH1 0x1 DUP7 PUSH2 0x52A SWAP2 SWAP1 PUSH2 0x1DC0 JUMP JUMPDEST DUP2 MSTORE PUSH1 0x20 ADD SWAP1 DUP2 MSTORE PUSH1 0x20 ADD PUSH1 0x0 KECCAK256 DUP3 SWAP1 DUP1 PUSH1 0x1 DUP2 SLOAD ADD DUP1 DUP3 SSTORE DUP1 SWAP2 POP POP PUSH1 0x1 SWAP1 SUB SWAP1 PUSH1 0x0 MSTORE PUSH1 0x20 PUSH1 0x0 KECCAK256 ADD PUSH1 0x0 SWAP1 SWAP2 SWAP1 SWAP2 SWAP1 SWAP2 PUSH2 0x100 EXP DUP2 SLOAD DUP2 PUSH20 0xFFFFFFFFFFFFFFFFFFFFFFFFFFFFFFFFFFFFFFFF MUL NOT AND SWAP1 DUP4 PUSH20 0xFFFFFFFFFFFFFFFFFFFFFFFFFFFFFFFFFFFFFFFF AND MUL OR SWAP1 SSTORE POP JUMPDEST DUP3 PUSH1 0x1 DUP1 DUP7 PUSH2 0x5A9 SWAP2 SWAP1 PUSH2 0x1DC0 JUMP JUMPDEST DUP2 SLOAD DUP2 LT PUSH2 0x5BA JUMPI PUSH2 0x5B9 PUSH2 0x1FAB JUMP JUMPDEST JUMPDEST SWAP1 PUSH1 0x0 MSTORE PUSH1 0x20 PUSH1 0x0 KECCAK256 SWAP1 PUSH1 0x8 MUL ADD PUSH1 0x7 ADD SLOAD PUSH2 0x5D6 SWAP2 SWAP1 PUSH2 0x1D10 JUMP JUMPDEST PUSH1 0x1 DUP1 DUP7 PUSH2 0x5E4 SWAP2 SWAP1 PUSH2 0x1DC0 JUMP JUMPDEST DUP2 SLOAD DUP2 LT PUSH2 0x5F5 JUMPI PUSH2 0x5F4 PUSH2 0x1FAB JUMP JUMPDEST JUMPDEST SWAP1 PUSH1 0x0 MSTORE PUSH1 0x20 PUSH1 0x0 KECCAK256 SWAP1 PUSH1 0x8 MUL ADD PUSH1 0x7 ADD DUP2 SWAP1 SSTORE POP DUP1 DUP1 PUSH2 0x615 SWAP1 PUSH2 0x1ED5 JUMP JUMPDEST SWAP2 POP POP PUSH2 0x41F JUMP JUMPDEST POP PUSH1 0x1 DUP1 DUP5 PUSH2 0x62C SWAP2 SWAP1 PUSH2 0x1DC0 JUMP JUMPDEST DUP2 SLOAD DUP2 LT PUSH2 0x63D JUMPI PUSH2 0x63C PUSH2 0x1FAB JUMP JUMPDEST JUMPDEST SWAP1 PUSH1 0x0 MSTORE PUSH1 0x20 PUSH1 0x0 KECCAK256 SWAP1 PUSH1 0x8 MUL ADD PUSH1 0x6 ADD SLOAD PUSH1 0x1 DUP1 DUP6 PUSH2 0x65D SWAP2 SWAP1 PUSH2 0x1DC0 JUMP JUMPDEST DUP2 SLOAD DUP2 LT PUSH2 0x66E JUMPI PUSH2 0x66D PUSH2 0x1FAB JUMP JUMPDEST JUMPDEST SWAP1 PUSH1 0x0 MSTORE PUSH1 0x20 PUSH1 0x0 KECCAK256 SWAP1 PUSH1 0x8 MUL ADD PUSH1 0x7 ADD SLOAD LT PUSH2 0x6BC JUMPI PUSH1 0x2 PUSH1 0x1 DUP1 DUP6 PUSH2 0x695 SWAP2 SWAP1 PUSH2 0x1DC0 JUMP JUMPDEST DUP2 SLOAD DUP2 LT PUSH2 0x6A6 JUMPI PUSH2 0x6A5 PUSH2 0x1FAB JUMP JUMPDEST JUMPDEST SWAP1 PUSH1 0x0 MSTORE PUSH1 0x20 PUSH1 0x0 KECCAK256 SWAP1 PUSH1 0x8 MUL ADD PUSH1 0x2 ADD DUP2 SWAP1 SSTORE POP JUMPDEST POP POP POP JUMP JUMPDEST PUSH1 0x3 PUSH1 0x1 DUP1 DUP4 PUSH2 0x6D1 SWAP2 SWAP1 PUSH2 0x1DC0 JUMP JUMPDEST DUP2 SLOAD DUP2 LT PUSH2 0x6E2 JUMPI PUSH2 0x6E1 PUSH2 0x1FAB JUMP JUMPDEST JUMPDEST SWAP1 PUSH1 0x0 MSTORE PUSH1 0x20 PUSH1 0x0 KECCAK256 SWAP1 PUSH1 0x8 MUL ADD PUSH1 0x2 ADD DUP2 SWAP1 SSTORE POP PUSH1 0x1 PUSH1 0x2 PUSH1 0x0 PUSH1 0x1 DUP2 MSTORE PUSH1 0x20 ADD SWAP1 DUP2 MSTORE PUSH1 0x20 ADD PUSH1 0x0 KECCAK256 DUP1 SLOAD SWAP1 POP EQ ISZERO PUSH2 0x7DF JUMPI PUSH1 0x2 PUSH1 0x0 PUSH1 0x1 DUP2 MSTORE PUSH1 0x20 ADD SWAP1 DUP2 MSTORE PUSH1 0x20 ADD PUSH1 0x0 KECCAK256 DUP1 SLOAD DUP1 PUSH2 0x73B JUMPI PUSH2 0x73A PUSH2 0x1F7C JUMP JUMPDEST JUMPDEST PUSH1 0x1 SWAP1 SUB DUP2 DUP2 SWAP1 PUSH1 0x0 MSTORE PUSH1 0x20 PUSH1 0x0 KECCAK256 SWAP1 PUSH1 0x8 MUL ADD PUSH1 0x0 DUP1 DUP3 ADD PUSH1 0x0 SWAP1 SSTORE PUSH1 0x1 DUP3 ADD PUSH1 0x0 PUSH2 0x768 SWAP2 SWAP1 PUSH2 0x164A JUMP JUMPDEST PUSH1 0x2 DUP3 ADD PUSH1 0x0 SWAP1 SSTORE PUSH1 0x3 DUP3 ADD PUSH1 0x0 PUSH2 0x100 EXP DUP2 SLOAD SWAP1 PUSH20 0xFFFFFFFFFFFFFFFFFFFFFFFFFFFFFFFFFFFFFFFF MUL NOT AND SWAP1 SSTORE PUSH1 0x4 DUP3 ADD PUSH1 0x0 PUSH2 0x100 EXP DUP2 SLOAD SWAP1 PUSH20 0xFFFFFFFFFFFFFFFFFFFFFFFFFFFFFFFFFFFFFFFF MUL NOT AND SWAP1 SSTORE PUSH1 0x5 DUP3 ADD PUSH1 0x0 SWAP1 SSTORE PUSH1 0x6 DUP3 ADD PUSH1 0x0 SWAP1 SSTORE PUSH1 0x7 DUP3 ADD PUSH1 0x0 SWAP1 SSTORE POP POP SWAP1 SSTORE PUSH2 0xABC JUMP JUMPDEST PUSH1 0x0 JUMPDEST PUSH1 0x1 PUSH1 0x2 PUSH1 0x0 PUSH1 0x1 DUP2 MSTORE PUSH1 0x20 ADD SWAP1 DUP2 MSTORE PUSH1 0x20 ADD PUSH1 0x0 KECCAK256 DUP1 SLOAD SWAP1 POP PUSH2 0x806 SWAP2 SWAP1 PUSH2 0x1DC0 JUMP JUMPDEST DUP2 LT ISZERO PUSH2 0x9F7 JUMPI DUP2 PUSH1 0x2 PUSH1 0x0 PUSH1 0x1 DUP2 MSTORE PUSH1 0x20 ADD SWAP1 DUP2 MSTORE PUSH1 0x20 ADD PUSH1 0x0 KECCAK256 DUP3 DUP2 SLOAD DUP2 LT PUSH2 0x834 JUMPI PUSH2 0x833 PUSH2 0x1FAB JUMP JUMPDEST JUMPDEST SWAP1 PUSH1 0x0 MSTORE PUSH1 0x20 PUSH1 0x0 KECCAK256 SWAP1 PUSH1 0x8 MUL ADD PUSH1 0x0 ADD SLOAD EQ ISZERO PUSH2 0x9E4 JUMPI PUSH1 0x2 PUSH1 0x0 PUSH1 0x1 DUP2 MSTORE PUSH1 0x20 ADD SWAP1 DUP2 MSTORE PUSH1 0x20 ADD PUSH1 0x0 KECCAK256 PUSH1 0x1 DUP3 PUSH2 0x86D SWAP2 SWAP1 PUSH2 0x1D10 JUMP JUMPDEST DUP2 SLOAD DUP2 LT PUSH2 0x87E JUMPI PUSH2 0x87D PUSH2 0x1FAB JUMP JUMPDEST JUMPDEST SWAP1 PUSH1 0x0 MSTORE PUSH1 0x20 PUSH1 0x0 KECCAK256 SWAP1 PUSH1 0x8 MUL ADD PUSH1 0x2 PUSH1 0x0 PUSH1 0x1 DUP2 MSTORE PUSH1 0x20 ADD SWAP1 DUP2 MSTORE PUSH1 0x20 ADD PUSH1 0x0 KECCAK256 DUP3 DUP2 SLOAD DUP2 LT PUSH2 0x8B2 JUMPI PUSH2 0x8B1 PUSH2 0x1FAB JUMP JUMPDEST JUMPDEST SWAP1 PUSH1 0x0 MSTORE PUSH1 0x20 PUSH1 0x0 KECCAK256 SWAP1 PUSH1 0x8 MUL ADD PUSH1 0x0 DUP3 ADD SLOAD DUP2 PUSH1 0x0 ADD SSTORE PUSH1 0x1 DUP3 ADD DUP2 PUSH1 0x1 ADD SWAP1 DUP1 SLOAD PUSH2 0x8DE SWAP1 PUSH2 0x1E72 JUMP JUMPDEST PUSH2 0x8E9 SWAP3 SWAP2 SWAP1 PUSH2 0x168A JUMP JUMPDEST POP PUSH1 0x2 DUP3 ADD SLOAD DUP2 PUSH1 0x2 ADD SSTORE PUSH1 0x3 DUP3 ADD PUSH1 0x0 SWAP1 SLOAD SWAP1 PUSH2 0x100 EXP SWAP1 DIV PUSH20 0xFFFFFFFFFFFFFFFFFFFFFFFFFFFFFFFFFFFFFFFF AND DUP2 PUSH1 0x3 ADD PUSH1 0x0 PUSH2 0x100 EXP DUP2 SLOAD DUP2 PUSH20 0xFFFFFFFFFFFFFFFFFFFFFFFFFFFFFFFFFFFFFFFF MUL NOT AND SWAP1 DUP4 PUSH20 0xFFFFFFFFFFFFFFFFFFFFFFFFFFFFFFFFFFFFFFFF AND MUL OR SWAP1 SSTORE POP PUSH1 0x4 DUP3 ADD PUSH1 0x0 SWAP1 SLOAD SWAP1 PUSH2 0x100 EXP SWAP1 DIV PUSH20 0xFFFFFFFFFFFFFFFFFFFFFFFFFFFFFFFFFFFFFFFF AND DUP2 PUSH1 0x4 ADD PUSH1 0x0 PUSH2 0x100 EXP DUP2 SLOAD DUP2 PUSH20 0xFFFFFFFFFFFFFFFFFFFFFFFFFFFFFFFFFFFFFFFF MUL NOT AND SWAP1 DUP4 PUSH20 0xFFFFFFFFFFFFFFFFFFFFFFFFFFFFFFFFFFFFFFFF AND MUL OR SWAP1 SSTORE POP PUSH1 0x5 DUP3 ADD SLOAD DUP2 PUSH1 0x5 ADD SSTORE PUSH1 0x6 DUP3 ADD SLOAD DUP2 PUSH1 0x6 ADD SSTORE PUSH1 0x7 DUP3 ADD SLOAD DUP2 PUSH1 0x7 ADD SSTORE SWAP1 POP POP JUMPDEST DUP1 DUP1 PUSH2 0x9EF SWAP1 PUSH2 0x1ED5 JUMP JUMPDEST SWAP2 POP POP PUSH2 0x7E2 JUMP JUMPDEST POP PUSH1 0x2 PUSH1 0x0 PUSH1 0x1 DUP2 MSTORE PUSH1 0x20 ADD SWAP1 DUP2 MSTORE PUSH1 0x20 ADD PUSH1 0x0 KECCAK256 DUP1 SLOAD DUP1 PUSH2 0xA1C JUMPI PUSH2 0xA1B PUSH2 0x1F7C JUMP JUMPDEST JUMPDEST PUSH1 0x1 SWAP1 SUB DUP2 DUP2 SWAP1 PUSH1 0x0 MSTORE PUSH1 0x20 PUSH1 0x0 KECCAK256 SWAP1 PUSH1 0x8 MUL ADD PUSH1 0x0 DUP1 DUP3 ADD PUSH1 0x0 SWAP1 SSTORE PUSH1 0x1 DUP3 ADD PUSH1 0x0 PUSH2 0xA49 SWAP2 SWAP1 PUSH2 0x164A JUMP JUMPDEST PUSH1 0x2 DUP3 ADD PUSH1 0x0 SWAP1 SSTORE PUSH1 0x3 DUP3 ADD PUSH1 0x0 PUSH2 0x100 EXP DUP2 SLOAD SWAP1 PUSH20 0xFFFFFFFFFFFFFFFFFFFFFFFFFFFFFFFFFFFFFFFF MUL NOT AND SWAP1 SSTORE PUSH1 0x4 DUP3 ADD PUSH1 0x0 PUSH2 0x100 EXP DUP2 SLOAD SWAP1 PUSH20 0xFFFFFFFFFFFFFFFFFFFFFFFFFFFFFFFFFFFFFFFF MUL NOT AND SWAP1 SSTORE PUSH1 0x5 DUP3 ADD PUSH1 0x0 SWAP1 SSTORE PUSH1 0x6 DUP3 ADD PUSH1 0x0 SWAP1 SSTORE PUSH1 0x7 DUP3 ADD PUSH1 0x0 SWAP1 SSTORE POP POP SWAP1 SSTORE JUMPDEST PUSH1 0x2 PUSH1 0x0 PUSH1 0x3 DUP2 MSTORE PUSH1 0x20 ADD SWAP1 DUP2 MSTORE PUSH1 0x20 ADD PUSH1 0x0 KECCAK256 PUSH1 0x1 DUP1 DUP4 PUSH2 0xADE SWAP2 SWAP1 PUSH2 0x1DC0 JUMP JUMPDEST DUP2 SLOAD DUP2 LT PUSH2 0xAEF JUMPI PUSH2 0xAEE PUSH2 0x1FAB JUMP JUMPDEST JUMPDEST SWAP1 PUSH1 0x0 MSTORE PUSH1 0x20 PUSH1 0x0 KECCAK256 SWAP1 PUSH1 0x8 MUL ADD SWAP1 DUP1 PUSH1 0x1 DUP2 SLOAD ADD DUP1 DUP3 SSTORE DUP1 SWAP2 POP POP PUSH1 0x1 SWAP1 SUB SWAP1 PUSH1 0x0 MSTORE PUSH1 0x20 PUSH1 0x0 KECCAK256 SWAP1 PUSH1 0x8 MUL ADD PUSH1 0x0 SWAP1 SWAP2 SWAP1 SWAP2 SWAP1 SWAP2 POP PUSH1 0x0 DUP3 ADD SLOAD DUP2 PUSH1 0x0 ADD SSTORE PUSH1 0x1 DUP3 ADD DUP2 PUSH1 0x1 ADD SWAP1 DUP1 SLOAD PUSH2 0xB44 SWAP1 PUSH2 0x1E72 JUMP JUMPDEST PUSH2 0xB4F SWAP3 SWAP2 SWAP1 PUSH2 0x168A JUMP JUMPDEST POP PUSH1 0x2 DUP3 ADD SLOAD DUP2 PUSH1 0x2 ADD SSTORE PUSH1 0x3 DUP3 ADD PUSH1 0x0 SWAP1 SLOAD SWAP1 PUSH2 0x100 EXP SWAP1 DIV PUSH20 0xFFFFFFFFFFFFFFFFFFFFFFFFFFFFFFFFFFFFFFFF AND DUP2 PUSH1 0x3 ADD PUSH1 0x0 PUSH2 0x100 EXP DUP2 SLOAD DUP2 PUSH20 0xFFFFFFFFFFFFFFFFFFFFFFFFFFFFFFFFFFFFFFFF MUL NOT AND SWAP1 DUP4 PUSH20 0xFFFFFFFFFFFFFFFFFFFFFFFFFFFFFFFFFFFFFFFF AND MUL OR SWAP1 SSTORE POP PUSH1 0x4 DUP3 ADD PUSH1 0x0 SWAP1 SLOAD SWAP1 PUSH2 0x100 EXP SWAP1 DIV PUSH20 0xFFFFFFFFFFFFFFFFFFFFFFFFFFFFFFFFFFFFFFFF AND DUP2 PUSH1 0x4 ADD PUSH1 0x0 PUSH2 0x100 EXP DUP2 SLOAD DUP2 PUSH20 0xFFFFFFFFFFFFFFFFFFFFFFFFFFFFFFFFFFFFFFFF MUL NOT AND SWAP1 DUP4 PUSH20 0xFFFFFFFFFFFFFFFFFFFFFFFFFFFFFFFFFFFFFFFF AND MUL OR SWAP1 SSTORE POP PUSH1 0x5 DUP3 ADD SLOAD DUP2 PUSH1 0x5 ADD SSTORE PUSH1 0x6 DUP3 ADD SLOAD DUP2 PUSH1 0x6 ADD SSTORE PUSH1 0x7 DUP3 ADD SLOAD DUP2 PUSH1 0x7 ADD SSTORE POP POP POP JUMP JUMPDEST PUSH1 0x1 DUP2 DUP2 SLOAD DUP2 LT PUSH2 0xC5B JUMPI PUSH1 0x0 DUP1 REVERT JUMPDEST SWAP1 PUSH1 0x0 MSTORE PUSH1 0x20 PUSH1 0x0 KECCAK256 SWAP1 PUSH1 0x8 MUL ADD PUSH1 0x0 SWAP2 POP SWAP1 POP DUP1 PUSH1 0x0 ADD SLOAD SWAP1 DUP1 PUSH1 0x1 ADD DUP1 SLOAD PUSH2 0xC84 SWAP1 PUSH2 0x1E72 JUMP JUMPDEST DUP1 PUSH1 0x1F ADD PUSH1 0x20 DUP1 SWAP2 DIV MUL PUSH1 0x20 ADD PUSH1 0x40 MLOAD SWAP1 DUP2 ADD PUSH1 0x40 MSTORE DUP1 SWAP3 SWAP2 SWAP1 DUP2 DUP2 MSTORE PUSH1 0x20 ADD DUP3 DUP1 SLOAD PUSH2 0xCB0 SWAP1 PUSH2 0x1E72 JUMP JUMPDEST DUP1 ISZERO PUSH2 0xCFD JUMPI DUP1 PUSH1 0x1F LT PUSH2 0xCD2 JUMPI PUSH2 0x100 DUP1 DUP4 SLOAD DIV MUL DUP4 MSTORE SWAP2 PUSH1 0x20 ADD SWAP2 PUSH2 0xCFD JUMP JUMPDEST DUP3 ADD SWAP2 SWAP1 PUSH1 0x0 MSTORE PUSH1 0x20 PUSH1 0x0 KECCAK256 SWAP1 JUMPDEST DUP2 SLOAD DUP2 MSTORE SWAP1 PUSH1 0x1 ADD SWAP1 PUSH1 0x20 ADD DUP1 DUP4 GT PUSH2 0xCE0 JUMPI DUP3 SWAP1 SUB PUSH1 0x1F AND DUP3 ADD SWAP2 JUMPDEST POP POP POP POP POP SWAP1 DUP1 PUSH1 0x2 ADD SLOAD SWAP1 DUP1 PUSH1 0x3 ADD PUSH1 0x0 SWAP1 SLOAD SWAP1 PUSH2 0x100 EXP SWAP1 DIV PUSH20 0xFFFFFFFFFFFFFFFFFFFFFFFFFFFFFFFFFFFFFFFF AND SWAP1 DUP1 PUSH1 0x4 ADD PUSH1 0x0 SWAP1 SLOAD SWAP1 PUSH2 0x100 EXP SWAP1 DIV PUSH20 0xFFFFFFFFFFFFFFFFFFFFFFFFFFFFFFFFFFFFFFFF AND SWAP1 DUP1 PUSH1 0x5 ADD SLOAD SWAP1 DUP1 PUSH1 0x6 ADD SLOAD SWAP1 DUP1 PUSH1 0x7 ADD SLOAD SWAP1 POP DUP9 JUMP JUMPDEST PUSH1 0x60 PUSH1 0x0 DUP3 EQ ISZERO PUSH2 0xF46 JUMPI PUSH1 0x1 DUP1 SLOAD DUP1 PUSH1 0x20 MUL PUSH1 0x20 ADD PUSH1 0x40 MLOAD SWAP1 DUP2 ADD PUSH1 0x40 MSTORE DUP1 SWAP3 SWAP2 SWAP1 DUP2 DUP2 MSTORE PUSH1 0x20 ADD PUSH1 0x0 SWAP1 JUMPDEST DUP3 DUP3 LT ISZERO PUSH2 0xF3B JUMPI DUP4 DUP3 SWAP1 PUSH1 0x0 MSTORE PUSH1 0x20 PUSH1 0x0 KECCAK256 SWAP1 PUSH1 0x8 MUL ADD PUSH1 0x40 MLOAD DUP1 PUSH2 0x100 ADD PUSH1 0x40 MSTORE SWAP1 DUP2 PUSH1 0x0 DUP3 ADD SLOAD DUP2 MSTORE PUSH1 0x20 ADD PUSH1 0x1 DUP3 ADD DUP1 SLOAD PUSH2 0xDD6 SWAP1 PUSH2 0x1E72 JUMP JUMPDEST DUP1 PUSH1 0x1F ADD PUSH1 0x20 DUP1 SWAP2 DIV MUL PUSH1 0x20 ADD PUSH1 0x40 MLOAD SWAP1 DUP2 ADD PUSH1 0x40 MSTORE DUP1 SWAP3 SWAP2 SWAP1 DUP2 DUP2 MSTORE PUSH1 0x20 ADD DUP3 DUP1 SLOAD PUSH2 0xE02 SWAP1 PUSH2 0x1E72 JUMP JUMPDEST DUP1 ISZERO PUSH2 0xE4F JUMPI DUP1 PUSH1 0x1F LT PUSH2 0xE24 JUMPI PUSH2 0x100 DUP1 DUP4 SLOAD DIV MUL DUP4 MSTORE SWAP2 PUSH1 0x20 ADD SWAP2 PUSH2 0xE4F JUMP JUMPDEST DUP3 ADD SWAP2 SWAP1 PUSH1 0x0 MSTORE PUSH1 0x20 PUSH1 0x0 KECCAK256 SWAP1 JUMPDEST DUP2 SLOAD DUP2 MSTORE SWAP1 PUSH1 0x1 ADD SWAP1 PUSH1 0x20 ADD DUP1 DUP4 GT PUSH2 0xE32 JUMPI DUP3 SWAP1 SUB PUSH1 0x1F AND DUP3 ADD SWAP2 JUMPDEST POP POP POP POP POP DUP2 MSTORE PUSH1 0x20 ADD PUSH1 0x2 DUP3 ADD SLOAD DUP2 MSTORE PUSH1 0x20 ADD PUSH1 0x3 DUP3 ADD PUSH1 0x0 SWAP1 SLOAD SWAP1 PUSH2 0x100 EXP SWAP1 DIV PUSH20 0xFFFFFFFFFFFFFFFFFFFFFFFFFFFFFFFFFFFFFFFF AND PUSH20 0xFFFFFFFFFFFFFFFFFFFFFFFFFFFFFFFFFFFFFFFF AND PUSH20 0xFFFFFFFFFFFFFFFFFFFFFFFFFFFFFFFFFFFFFFFF AND DUP2 MSTORE PUSH1 0x20 ADD PUSH1 0x4 DUP3 ADD PUSH1 0x0 SWAP1 SLOAD SWAP1 PUSH2 0x100 EXP SWAP1 DIV PUSH20 0xFFFFFFFFFFFFFFFFFFFFFFFFFFFFFFFFFFFFFFFF AND PUSH20 0xFFFFFFFFFFFFFFFFFFFFFFFFFFFFFFFFFFFFFFFF AND PUSH20 0xFFFFFFFFFFFFFFFFFFFFFFFFFFFFFFFFFFFFFFFF AND DUP2 MSTORE PUSH1 0x20 ADD PUSH1 0x5 DUP3 ADD SLOAD DUP2 MSTORE PUSH1 0x20 ADD PUSH1 0x6 DUP3 ADD SLOAD DUP2 MSTORE PUSH1 0x20 ADD PUSH1 0x7 DUP3 ADD SLOAD DUP2 MSTORE POP POP DUP2 MSTORE PUSH1 0x20 ADD SWAP1 PUSH1 0x1 ADD SWAP1 PUSH2 0xD98 JUMP JUMPDEST POP POP POP POP SWAP1 POP PUSH2 0x1123 JUMP JUMPDEST PUSH1 0x2 PUSH1 0x0 DUP4 DUP2 MSTORE PUSH1 0x20 ADD SWAP1 DUP2 MSTORE PUSH1 0x20 ADD PUSH1 0x0 KECCAK256 DUP1 SLOAD DUP1 PUSH1 0x20 MUL PUSH1 0x20 ADD PUSH1 0x40 MLOAD SWAP1 DUP2 ADD PUSH1 0x40 MSTORE DUP1 SWAP3 SWAP2 SWAP1 DUP2 DUP2 MSTORE PUSH1 0x20 ADD PUSH1 0x0 SWAP1 JUMPDEST DUP3 DUP3 LT ISZERO PUSH2 0x111C JUMPI DUP4 DUP3 SWAP1 PUSH1 0x0 MSTORE PUSH1 0x20 PUSH1 0x0 KECCAK256 SWAP1 PUSH1 0x8 MUL ADD PUSH1 0x40 MLOAD DUP1 PUSH2 0x100 ADD PUSH1 0x40 MSTORE SWAP1 DUP2 PUSH1 0x0 DUP3 ADD SLOAD DUP2 MSTORE PUSH1 0x20 ADD PUSH1 0x1 DUP3 ADD DUP1 SLOAD PUSH2 0xFB7 SWAP1 PUSH2 0x1E72 JUMP JUMPDEST DUP1 PUSH1 0x1F ADD PUSH1 0x20 DUP1 SWAP2 DIV MUL PUSH1 0x20 ADD PUSH1 0x40 MLOAD SWAP1 DUP2 ADD PUSH1 0x40 MSTORE DUP1 SWAP3 SWAP2 SWAP1 DUP2 DUP2 MSTORE PUSH1 0x20 ADD DUP3 DUP1 SLOAD PUSH2 0xFE3 SWAP1 PUSH2 0x1E72 JUMP JUMPDEST DUP1 ISZERO PUSH2 0x1030 JUMPI DUP1 PUSH1 0x1F LT PUSH2 0x1005 JUMPI PUSH2 0x100 DUP1 DUP4 SLOAD DIV MUL DUP4 MSTORE SWAP2 PUSH1 0x20 ADD SWAP2 PUSH2 0x1030 JUMP JUMPDEST DUP3 ADD SWAP2 SWAP1 PUSH1 0x0 MSTORE PUSH1 0x20 PUSH1 0x0 KECCAK256 SWAP1 JUMPDEST DUP2 SLOAD DUP2 MSTORE SWAP1 PUSH1 0x1 ADD SWAP1 PUSH1 0x20 ADD DUP1 DUP4 GT PUSH2 0x1013 JUMPI DUP3 SWAP1 SUB PUSH1 0x1F AND DUP3 ADD SWAP2 JUMPDEST POP POP POP POP POP DUP2 MSTORE PUSH1 0x20 ADD PUSH1 0x2 DUP3 ADD SLOAD DUP2 MSTORE PUSH1 0x20 ADD PUSH1 0x3 DUP3 ADD PUSH1 0x0 SWAP1 SLOAD SWAP1 PUSH2 0x100 EXP SWAP1 DIV PUSH20 0xFFFFFFFFFFFFFFFFFFFFFFFFFFFFFFFFFFFFFFFF AND PUSH20 0xFFFFFFFFFFFFFFFFFFFFFFFFFFFFFFFFFFFFFFFF AND PUSH20 0xFFFFFFFFFFFFFFFFFFFFFFFFFFFFFFFFFFFFFFFF AND DUP2 MSTORE PUSH1 0x20 ADD PUSH1 0x4 DUP3 ADD PUSH1 0x0 SWAP1 SLOAD SWAP1 PUSH2 0x100 EXP SWAP1 DIV PUSH20 0xFFFFFFFFFFFFFFFFFFFFFFFFFFFFFFFFFFFFFFFF AND PUSH20 0xFFFFFFFFFFFFFFFFFFFFFFFFFFFFFFFFFFFFFFFF AND PUSH20 0xFFFFFFFFFFFFFFFFFFFFFFFFFFFFFFFFFFFFFFFF AND DUP2 MSTORE PUSH1 0x20 ADD PUSH1 0x5 DUP3 ADD SLOAD DUP2 MSTORE PUSH1 0x20 ADD PUSH1 0x6 DUP3 ADD SLOAD DUP2 MSTORE PUSH1 0x20 ADD PUSH1 0x7 DUP3 ADD SLOAD DUP2 MSTORE POP POP DUP2 MSTORE PUSH1 0x20 ADD SWAP1 PUSH1 0x1 ADD SWAP1 PUSH2 0xF79 JUMP JUMPDEST POP POP POP POP SWAP1 POP JUMPDEST SWAP2 SWAP1 POP JUMP JUMPDEST PUSH1 0x0 DUP1 DUP2 SLOAD DUP1 SWAP3 SWAP2 SWAP1 PUSH2 0x113A SWAP1 PUSH2 0x1ED5 JUMP JUMPDEST SWAP2 SWAP1 POP SSTORE POP PUSH1 0x0 PUSH1 0x40 MLOAD DUP1 PUSH2 0x100 ADD PUSH1 0x40 MSTORE DUP1 PUSH1 0x0 SLOAD DUP2 MSTORE PUSH1 0x20 ADD DUP6 DUP2 MSTORE PUSH1 0x20 ADD PUSH1 0x1 DUP2 MSTORE PUSH1 0x20 ADD CALLER PUSH20 0xFFFFFFFFFFFFFFFFFFFFFFFFFFFFFFFFFFFFFFFF AND DUP2 MSTORE PUSH1 0x20 ADD DUP5 PUSH20 0xFFFFFFFFFFFFFFFFFFFFFFFFFFFFFFFFFFFFFFFF AND DUP2 MSTORE PUSH1 0x20 ADD PUSH1 0x0 DUP2 MSTORE PUSH1 0x20 ADD PUSH2 0x11AA DUP5 PUSH2 0x152C JUMP JUMPDEST DUP2 MSTORE PUSH1 0x20 ADD PUSH1 0x0 DUP2 MSTORE POP SWAP1 POP PUSH1 0x1 DUP2 SWAP1 DUP1 PUSH1 0x1 DUP2 SLOAD ADD DUP1 DUP3 SSTORE DUP1 SWAP2 POP POP PUSH1 0x1 SWAP1 SUB SWAP1 PUSH1 0x0 MSTORE PUSH1 0x20 PUSH1 0x0 KECCAK256 SWAP1 PUSH1 0x8 MUL ADD PUSH1 0x0 SWAP1 SWAP2 SWAP1 SWAP2 SWAP1 SWAP2 POP PUSH1 0x0 DUP3 ADD MLOAD DUP2 PUSH1 0x0 ADD SSTORE PUSH1 0x20 DUP3 ADD MLOAD DUP2 PUSH1 0x1 ADD SWAP1 DUP1 MLOAD SWAP1 PUSH1 0x20 ADD SWAP1 PUSH2 0x1208 SWAP3 SWAP2 SWAP1 PUSH2 0x15C4 JUMP JUMPDEST POP PUSH1 0x40 DUP3 ADD MLOAD DUP2 PUSH1 0x2 ADD SSTORE PUSH1 0x60 DUP3 ADD MLOAD DUP2 PUSH1 0x3 ADD PUSH1 0x0 PUSH2 0x100 EXP DUP2 SLOAD DUP2 PUSH20 0xFFFFFFFFFFFFFFFFFFFFFFFFFFFFFFFFFFFFFFFF MUL NOT AND SWAP1 DUP4 PUSH20 0xFFFFFFFFFFFFFFFFFFFFFFFFFFFFFFFFFFFFFFFF AND MUL OR SWAP1 SSTORE POP PUSH1 0x80 DUP3 ADD MLOAD DUP2 PUSH1 0x4 ADD PUSH1 0x0 PUSH2 0x100 EXP DUP2 SLOAD DUP2 PUSH20 0xFFFFFFFFFFFFFFFFFFFFFFFFFFFFFFFFFFFFFFFF MUL NOT AND SWAP1 DUP4 PUSH20 0xFFFFFFFFFFFFFFFFFFFFFFFFFFFFFFFFFFFFFFFF AND MUL OR SWAP1 SSTORE POP PUSH1 0xA0 DUP3 ADD MLOAD DUP2 PUSH1 0x5 ADD SSTORE PUSH1 0xC0 DUP3 ADD MLOAD DUP2 PUSH1 0x6 ADD SSTORE PUSH1 0xE0 DUP3 ADD MLOAD DUP2 PUSH1 0x7 ADD SSTORE POP POP PUSH1 0x2 PUSH1 0x0 PUSH1 0x1 DUP2 MSTORE PUSH1 0x20 ADD SWAP1 DUP2 MSTORE PUSH1 0x20 ADD PUSH1 0x0 KECCAK256 DUP2 SWAP1 DUP1 PUSH1 0x1 DUP2 SLOAD ADD DUP1 DUP3 SSTORE DUP1 SWAP2 POP POP PUSH1 0x1 SWAP1 SUB SWAP1 PUSH1 0x0 MSTORE PUSH1 0x20 PUSH1 0x0 KECCAK256 SWAP1 PUSH1 0x8 MUL ADD PUSH1 0x0 SWAP1 SWAP2 SWAP1 SWAP2 SWAP1 SWAP2 POP PUSH1 0x0 DUP3 ADD MLOAD DUP2 PUSH1 0x0 ADD SSTORE PUSH1 0x20 DUP3 ADD MLOAD DUP2 PUSH1 0x1 ADD SWAP1 DUP1 MLOAD SWAP1 PUSH1 0x20 ADD SWAP1 PUSH2 0x1325 SWAP3 SWAP2 SWAP1 PUSH2 0x15C4 JUMP JUMPDEST POP PUSH1 0x40 DUP3 ADD MLOAD DUP2 PUSH1 0x2 ADD SSTORE PUSH1 0x60 DUP3 ADD MLOAD DUP2 PUSH1 0x3 ADD PUSH1 0x0 PUSH2 0x100 EXP DUP2 SLOAD DUP2 PUSH20 0xFFFFFFFFFFFFFFFFFFFFFFFFFFFFFFFFFFFFFFFF MUL NOT AND SWAP1 DUP4 PUSH20 0xFFFFFFFFFFFFFFFFFFFFFFFFFFFFFFFFFFFFFFFF AND MUL OR SWAP1 SSTORE POP PUSH1 0x80 DUP3 ADD MLOAD DUP2 PUSH1 0x4 ADD PUSH1 0x0 PUSH2 0x100 EXP DUP2 SLOAD DUP2 PUSH20 0xFFFFFFFFFFFFFFFFFFFFFFFFFFFFFFFFFFFFFFFF MUL NOT AND SWAP1 DUP4 PUSH20 0xFFFFFFFFFFFFFFFFFFFFFFFFFFFFFFFFFFFFFFFF AND MUL OR SWAP1 SSTORE POP PUSH1 0xA0 DUP3 ADD MLOAD DUP2 PUSH1 0x5 ADD SSTORE PUSH1 0xC0 DUP3 ADD MLOAD DUP2 PUSH1 0x6 ADD SSTORE PUSH1 0xE0 DUP3 ADD MLOAD DUP2 PUSH1 0x7 ADD SSTORE POP POP PUSH1 0x3 PUSH1 0x0 CALLER PUSH20 0xFFFFFFFFFFFFFFFFFFFFFFFFFFFFFFFFFFFFFFFF AND PUSH20 0xFFFFFFFFFFFFFFFFFFFFFFFFFFFFFFFFFFFFFFFF AND DUP2 MSTORE PUSH1 0x20 ADD SWAP1 DUP2 MSTORE PUSH1 0x20 ADD PUSH1 0x0 KECCAK256 DUP2 SWAP1 DUP1 PUSH1 0x1 DUP2 SLOAD ADD DUP1 DUP3 SSTORE DUP1 SWAP2 POP POP PUSH1 0x1 SWAP1 SUB SWAP1 PUSH1 0x0 MSTORE PUSH1 0x20 PUSH1 0x0 KECCAK256 SWAP1 PUSH1 0x8 MUL ADD PUSH1 0x0 SWAP1 SWAP2 SWAP1 SWAP2 SWAP1 SWAP2 POP PUSH1 0x0 DUP3 ADD MLOAD DUP2 PUSH1 0x0 ADD SSTORE PUSH1 0x20 DUP3 ADD MLOAD DUP2 PUSH1 0x1 ADD SWAP1 DUP1 MLOAD SWAP1 PUSH1 0x20 ADD SWAP1 PUSH2 0x146D SWAP3 SWAP2 SWAP1 PUSH2 0x15C4 JUMP JUMPDEST POP PUSH1 0x40 DUP3 ADD MLOAD DUP2 PUSH1 0x2 ADD SSTORE PUSH1 0x60 DUP3 ADD MLOAD DUP2 PUSH1 0x3 ADD PUSH1 0x0 PUSH2 0x100 EXP DUP2 SLOAD DUP2 PUSH20 0xFFFFFFFFFFFFFFFFFFFFFFFFFFFFFFFFFFFFFFFF MUL NOT AND SWAP1 DUP4 PUSH20 0xFFFFFFFFFFFFFFFFFFFFFFFFFFFFFFFFFFFFFFFF AND MUL OR SWAP1 SSTORE POP PUSH1 0x80 DUP3 ADD MLOAD DUP2 PUSH1 0x4 ADD PUSH1 0x0 PUSH2 0x100 EXP DUP2 SLOAD DUP2 PUSH20 0xFFFFFFFFFFFFFFFFFFFFFFFFFFFFFFFFFFFFFFFF MUL NOT AND SWAP1 DUP4 PUSH20 0xFFFFFFFFFFFFFFFFFFFFFFFFFFFFFFFFFFFFFFFF AND MUL OR SWAP1 SSTORE POP PUSH1 0xA0 DUP3 ADD MLOAD DUP2 PUSH1 0x5 ADD SSTORE PUSH1 0xC0 DUP3 ADD MLOAD DUP2 PUSH1 0x6 ADD SSTORE PUSH1 0xE0 DUP3 ADD MLOAD DUP2 PUSH1 0x7 ADD SSTORE POP POP POP POP POP POP JUMP JUMPDEST PUSH1 0x0 DUP1 DUP3 SWAP1 POP PUSH1 0x0 DUP1 JUMPDEST DUP3 MLOAD DUP2 LT ISZERO PUSH2 0x15B9 JUMPI PUSH1 0x0 DUP4 DUP3 DUP2 MLOAD DUP2 LT PUSH2 0x1554 JUMPI PUSH2 0x1553 PUSH2 0x1FAB JUMP JUMPDEST JUMPDEST PUSH1 0x20 ADD ADD MLOAD PUSH1 0xF8 SHR PUSH1 0xF8 SHL PUSH1 0xF8 SHR PUSH1 0xFF AND SWAP1 POP PUSH1 0x30 DUP2 LT ISZERO DUP1 ISZERO PUSH2 0x1579 JUMPI POP PUSH1 0x39 DUP2 GT ISZERO JUMPDEST ISZERO PUSH2 0x15A5 JUMPI PUSH1 0x30 DUP2 PUSH2 0x158B SWAP2 SWAP1 PUSH2 0x1DC0 JUMP JUMPDEST PUSH1 0xA DUP5 PUSH2 0x1598 SWAP2 SWAP1 PUSH2 0x1D66 JUMP JUMPDEST PUSH2 0x15A2 SWAP2 SWAP1 PUSH2 0x1D10 JUMP JUMPDEST SWAP3 POP JUMPDEST POP DUP1 DUP1 PUSH2 0x15B1 SWAP1 PUSH2 0x1ED5 JUMP JUMPDEST SWAP2 POP POP PUSH2 0x1536 JUMP JUMPDEST POP DUP1 SWAP3 POP POP POP SWAP2 SWAP1 POP JUMP JUMPDEST DUP3 DUP1 SLOAD PUSH2 0x15D0 SWAP1 PUSH2 0x1E72 JUMP JUMPDEST SWAP1 PUSH1 0x0 MSTORE PUSH1 0x20 PUSH1 0x0 KECCAK256 SWAP1 PUSH1 0x1F ADD PUSH1 0x20 SWAP1 DIV DUP2 ADD SWAP3 DUP3 PUSH2 0x15F2 JUMPI PUSH1 0x0 DUP6 SSTORE PUSH2 0x1639 JUMP JUMPDEST DUP3 PUSH1 0x1F LT PUSH2 0x160B JUMPI DUP1 MLOAD PUSH1 0xFF NOT AND DUP4 DUP1 ADD OR DUP6 SSTORE PUSH2 0x1639 JUMP JUMPDEST DUP3 DUP1 ADD PUSH1 0x1 ADD DUP6 SSTORE DUP3 ISZERO PUSH2 0x1639 JUMPI SWAP2 DUP3 ADD JUMPDEST DUP3 DUP2 GT ISZERO PUSH2 0x1638 JUMPI DUP3 MLOAD DUP3 SSTORE SWAP2 PUSH1 0x20 ADD SWAP2 SWAP1 PUSH1 0x1 ADD SWAP1 PUSH2 0x161D JUMP JUMPDEST JUMPDEST POP SWAP1 POP PUSH2 0x1646 SWAP2 SWAP1 PUSH2 0x1717 JUMP JUMPDEST POP SWAP1 JUMP JUMPDEST POP DUP1 SLOAD PUSH2 0x1656 SWAP1 PUSH2 0x1E72 JUMP JUMPDEST PUSH1 0x0 DUP3 SSTORE DUP1 PUSH1 0x1F LT PUSH2 0x1668 JUMPI POP PUSH2 0x1687 JUMP JUMPDEST PUSH1 0x1F ADD PUSH1 0x20 SWAP1 DIV SWAP1 PUSH1 0x0 MSTORE PUSH1 0x20 PUSH1 0x0 KECCAK256 SWAP1 DUP2 ADD SWAP1 PUSH2 0x1686 SWAP2 SWAP1 PUSH2 0x1717 JUMP JUMPDEST JUMPDEST POP JUMP JUMPDEST DUP3 DUP1 SLOAD PUSH2 0x1696 SWAP1 PUSH2 0x1E72 JUMP JUMPDEST SWAP1 PUSH1 0x0 MSTORE PUSH1 0x20 PUSH1 0x0 KECCAK256 SWAP1 PUSH1 0x1F ADD PUSH1 0x20 SWAP1 DIV DUP2 ADD SWAP3 DUP3 PUSH2 0x16B8 JUMPI PUSH1 0x0 DUP6 SSTORE PUSH2 0x1706 JUMP JUMPDEST DUP3 PUSH1 0x1F LT PUSH2 0x16C9 JUMPI DUP1 SLOAD DUP6 SSTORE PUSH2 0x1706 JUMP JUMPDEST DUP3 DUP1 ADD PUSH1 0x1 ADD DUP6 SSTORE DUP3 ISZERO PUSH2 0x1706 JUMPI PUSH1 0x0 MSTORE PUSH1 0x20 PUSH1 0x0 KECCAK256 SWAP2 PUSH1 0x1F ADD PUSH1 0x20 SWAP1 DIV DUP3 ADD JUMPDEST DUP3 DUP2 GT ISZERO PUSH2 0x1705 JUMPI DUP3 SLOAD DUP3 SSTORE SWAP2 PUSH1 0x1 ADD SWAP2 SWAP1 PUSH1 0x1 ADD SWAP1 PUSH2 0x16EA JUMP JUMPDEST JUMPDEST POP SWAP1 POP PUSH2 0x1713 SWAP2 SWAP1 PUSH2 0x1717 JUMP JUMPDEST POP SWAP1 JUMP JUMPDEST JUMPDEST DUP1 DUP3 GT ISZERO PUSH2 0x1730 JUMPI PUSH1 0x0 DUP2 PUSH1 0x0 SWAP1 SSTORE POP PUSH1 0x1 ADD PUSH2 0x1718 JUMP JUMPDEST POP SWAP1 JUMP JUMPDEST PUSH1 0x0 PUSH2 0x1747 PUSH2 0x1742 DUP5 PUSH2 0x1C79 JUMP JUMPDEST PUSH2 0x1C54 JUMP JUMPDEST SWAP1 POP DUP3 DUP2 MSTORE PUSH1 0x20 DUP2 ADD DUP5 DUP5 DUP5 ADD GT ISZERO PUSH2 0x1763 JUMPI PUSH2 0x1762 PUSH2 0x200E JUMP JUMPDEST JUMPDEST PUSH2 0x176E DUP5 DUP3 DUP6 PUSH2 0x1E30 JUMP JUMPDEST POP SWAP4 SWAP3 POP POP POP JUMP JUMPDEST PUSH1 0x0 DUP2 CALLDATALOAD SWAP1 POP PUSH2 0x1785 DUP2 PUSH2 0x202E JUMP JUMPDEST SWAP3 SWAP2 POP POP JUMP JUMPDEST PUSH1 0x0 DUP3 PUSH1 0x1F DUP4 ADD SLT PUSH2 0x17A0 JUMPI PUSH2 0x179F PUSH2 0x2009 JUMP JUMPDEST JUMPDEST DUP2 CALLDATALOAD PUSH2 0x17B0 DUP5 DUP3 PUSH1 0x20 DUP7 ADD PUSH2 0x1734 JUMP JUMPDEST SWAP2 POP POP SWAP3 SWAP2 POP POP JUMP JUMPDEST PUSH1 0x0 DUP2 CALLDATALOAD SWAP1 POP PUSH2 0x17C8 DUP2 PUSH2 0x2045 JUMP JUMPDEST SWAP3 SWAP2 POP POP JUMP JUMPDEST PUSH1 0x0 PUSH1 0x20 DUP3 DUP5 SUB SLT ISZERO PUSH2 0x17E4 JUMPI PUSH2 0x17E3 PUSH2 0x2018 JUMP JUMPDEST JUMPDEST PUSH1 0x0 PUSH2 0x17F2 DUP5 DUP3 DUP6 ADD PUSH2 0x1776 JUMP JUMPDEST SWAP2 POP POP SWAP3 SWAP2 POP POP JUMP JUMPDEST PUSH1 0x0 PUSH1 0x20 DUP3 DUP5 SUB SLT ISZERO PUSH2 0x1811 JUMPI PUSH2 0x1810 PUSH2 0x2018 JUMP JUMPDEST JUMPDEST PUSH1 0x0 DUP3 ADD CALLDATALOAD PUSH8 0xFFFFFFFFFFFFFFFF DUP2 GT ISZERO PUSH2 0x182F JUMPI PUSH2 0x182E PUSH2 0x2013 JUMP JUMPDEST JUMPDEST PUSH2 0x183B DUP5 DUP3 DUP6 ADD PUSH2 0x178B JUMP JUMPDEST SWAP2 POP POP SWAP3 SWAP2 POP POP JUMP JUMPDEST PUSH1 0x0 DUP1 PUSH1 0x0 PUSH1 0x60 DUP5 DUP7 SUB SLT ISZERO PUSH2 0x185D JUMPI PUSH2 0x185C PUSH2 0x2018 JUMP JUMPDEST JUMPDEST PUSH1 0x0 DUP5 ADD CALLDATALOAD PUSH8 0xFFFFFFFFFFFFFFFF DUP2 GT ISZERO PUSH2 0x187B JUMPI PUSH2 0x187A PUSH2 0x2013 JUMP JUMPDEST JUMPDEST PUSH2 0x1887 DUP7 DUP3 DUP8 ADD PUSH2 0x178B JUMP JUMPDEST SWAP4 POP POP PUSH1 0x20 PUSH2 0x1898 DUP7 DUP3 DUP8 ADD PUSH2 0x1776 JUMP JUMPDEST SWAP3 POP POP PUSH1 0x40 DUP5 ADD CALLDATALOAD PUSH8 0xFFFFFFFFFFFFFFFF DUP2 GT ISZERO PUSH2 0x18B9 JUMPI PUSH2 0x18B8 PUSH2 0x2013 JUMP JUMPDEST JUMPDEST PUSH2 0x18C5 DUP7 DUP3 DUP8 ADD PUSH2 0x178B JUMP JUMPDEST SWAP2 POP POP SWAP3 POP SWAP3 POP SWAP3 JUMP JUMPDEST PUSH1 0x0 PUSH1 0x20 DUP3 DUP5 SUB SLT ISZERO PUSH2 0x18E5 JUMPI PUSH2 0x18E4 PUSH2 0x2018 JUMP JUMPDEST JUMPDEST PUSH1 0x0 PUSH2 0x18F3 DUP5 DUP3 DUP6 ADD PUSH2 0x17B9 JUMP JUMPDEST SWAP2 POP POP SWAP3 SWAP2 POP POP JUMP JUMPDEST PUSH1 0x0 DUP1 PUSH1 0x40 DUP4 DUP6 SUB SLT ISZERO PUSH2 0x1913 JUMPI PUSH2 0x1912 PUSH2 0x2018 JUMP JUMPDEST JUMPDEST PUSH1 0x0 PUSH2 0x1921 DUP6 DUP3 DUP7 ADD PUSH2 0x17B9 JUMP JUMPDEST SWAP3 POP POP PUSH1 0x20 DUP4 ADD CALLDATALOAD PUSH8 0xFFFFFFFFFFFFFFFF DUP2 GT ISZERO PUSH2 0x1942 JUMPI PUSH2 0x1941 PUSH2 0x2013 JUMP JUMPDEST JUMPDEST PUSH2 0x194E DUP6 DUP3 DUP7 ADD PUSH2 0x178B JUMP JUMPDEST SWAP2 POP POP SWAP3 POP SWAP3 SWAP1 POP JUMP JUMPDEST PUSH1 0x0 DUP1 PUSH1 0x0 PUSH1 0x60 DUP5 DUP7 SUB SLT ISZERO PUSH2 0x1971 JUMPI PUSH2 0x1970 PUSH2 0x2018 JUMP JUMPDEST JUMPDEST PUSH1 0x0 PUSH2 0x197F DUP7 DUP3 DUP8 ADD PUSH2 0x17B9 JUMP JUMPDEST SWAP4 POP POP PUSH1 0x20 PUSH2 0x1990 DUP7 DUP3 DUP8 ADD PUSH2 0x17B9 JUMP JUMPDEST SWAP3 POP POP PUSH1 0x40 PUSH2 0x19A1 DUP7 DUP3 DUP8 ADD PUSH2 0x1776 JUMP JUMPDEST SWAP2 POP POP SWAP3 POP SWAP3 POP SWAP3 JUMP JUMPDEST PUSH1 0x0 PUSH2 0x19B7 DUP4 DUP4 PUSH2 0x1AC4 JUMP JUMPDEST SWAP1 POP SWAP3 SWAP2 POP POP JUMP JUMPDEST PUSH2 0x19C8 DUP2 PUSH2 0x1DF4 JUMP JUMPDEST DUP3 MSTORE POP POP JUMP JUMPDEST PUSH2 0x19D7 DUP2 PUSH2 0x1DF4 JUMP JUMPDEST DUP3 MSTORE POP POP JUMP JUMPDEST PUSH1 0x0 PUSH2 0x19E8 DUP3 PUSH2 0x1CBA JUMP JUMPDEST PUSH2 0x19F2 DUP2 DUP6 PUSH2 0x1CDD JUMP JUMPDEST SWAP4 POP DUP4 PUSH1 0x20 DUP3 MUL DUP6 ADD PUSH2 0x1A04 DUP6 PUSH2 0x1CAA JUMP JUMPDEST DUP1 PUSH1 0x0 JUMPDEST DUP6 DUP2 LT ISZERO PUSH2 0x1A40 JUMPI DUP5 DUP5 SUB DUP10 MSTORE DUP2 MLOAD PUSH2 0x1A21 DUP6 DUP3 PUSH2 0x19AB JUMP JUMPDEST SWAP5 POP PUSH2 0x1A2C DUP4 PUSH2 0x1CD0 JUMP JUMPDEST SWAP3 POP PUSH1 0x20 DUP11 ADD SWAP10 POP POP PUSH1 0x1 DUP2 ADD SWAP1 POP PUSH2 0x1A08 JUMP JUMPDEST POP DUP3 SWAP8 POP DUP8 SWAP6 POP POP POP POP POP POP SWAP3 SWAP2 POP POP JUMP JUMPDEST PUSH1 0x0 PUSH2 0x1A5D DUP3 PUSH2 0x1CC5 JUMP JUMPDEST PUSH2 0x1A67 DUP2 DUP6 PUSH2 0x1CEE JUMP JUMPDEST SWAP4 POP PUSH2 0x1A77 DUP2 DUP6 PUSH1 0x20 DUP7 ADD PUSH2 0x1E3F JUMP JUMPDEST PUSH2 0x1A80 DUP2 PUSH2 0x201D JUMP JUMPDEST DUP5 ADD SWAP2 POP POP SWAP3 SWAP2 POP POP JUMP JUMPDEST PUSH1 0x0 PUSH2 0x1A96 DUP3 PUSH2 0x1CC5 JUMP JUMPDEST PUSH2 0x1AA0 DUP2 DUP6 PUSH2 0x1CFF JUMP JUMPDEST SWAP4 POP PUSH2 0x1AB0 DUP2 DUP6 PUSH1 0x20 DUP7 ADD PUSH2 0x1E3F JUMP JUMPDEST PUSH2 0x1AB9 DUP2 PUSH2 0x201D JUMP JUMPDEST DUP5 ADD SWAP2 POP POP SWAP3 SWAP2 POP POP JUMP JUMPDEST PUSH1 0x0 PUSH2 0x100 DUP4 ADD PUSH1 0x0 DUP4 ADD MLOAD PUSH2 0x1ADD PUSH1 0x0 DUP7 ADD DUP3 PUSH2 0x1B74 JUMP JUMPDEST POP PUSH1 0x20 DUP4 ADD MLOAD DUP5 DUP3 SUB PUSH1 0x20 DUP7 ADD MSTORE PUSH2 0x1AF5 DUP3 DUP3 PUSH2 0x1A52 JUMP JUMPDEST SWAP2 POP POP PUSH1 0x40 DUP4 ADD MLOAD PUSH2 0x1B0A PUSH1 0x40 DUP7 ADD DUP3 PUSH2 0x1B74 JUMP JUMPDEST POP PUSH1 0x60 DUP4 ADD MLOAD PUSH2 0x1B1D PUSH1 0x60 DUP7 ADD DUP3 PUSH2 0x19BF JUMP JUMPDEST POP PUSH1 0x80 DUP4 ADD MLOAD PUSH2 0x1B30 PUSH1 0x80 DUP7 ADD DUP3 PUSH2 0x19BF JUMP JUMPDEST POP PUSH1 0xA0 DUP4 ADD MLOAD PUSH2 0x1B43 PUSH1 0xA0 DUP7 ADD DUP3 PUSH2 0x1B74 JUMP JUMPDEST POP PUSH1 0xC0 DUP4 ADD MLOAD PUSH2 0x1B56 PUSH1 0xC0 DUP7 ADD DUP3 PUSH2 0x1B74 JUMP JUMPDEST POP PUSH1 0xE0 DUP4 ADD MLOAD PUSH2 0x1B69 PUSH1 0xE0 DUP7 ADD DUP3 PUSH2 0x1B74 JUMP JUMPDEST POP DUP1 SWAP2 POP POP SWAP3 SWAP2 POP POP JUMP JUMPDEST PUSH2 0x1B7D DUP2 PUSH2 0x1E26 JUMP JUMPDEST DUP3 MSTORE POP POP JUMP JUMPDEST PUSH2 0x1B8C DUP2 PUSH2 0x1E26 JUMP JUMPDEST DUP3 MSTORE POP POP JUMP JUMPDEST PUSH1 0x0 PUSH1 0x20 DUP3 ADD SWAP1 POP DUP2 DUP2 SUB PUSH1 0x0 DUP4 ADD MSTORE PUSH2 0x1BAC DUP2 DUP5 PUSH2 0x19DD JUMP JUMPDEST SWAP1 POP SWAP3 SWAP2 POP POP JUMP JUMPDEST PUSH1 0x0 PUSH1 0x20 DUP3 ADD SWAP1 POP PUSH2 0x1BC9 PUSH1 0x0 DUP4 ADD DUP5 PUSH2 0x1B83 JUMP JUMPDEST SWAP3 SWAP2 POP POP JUMP JUMPDEST PUSH1 0x0 PUSH2 0x100 DUP3 ADD SWAP1 POP PUSH2 0x1BE5 PUSH1 0x0 DUP4 ADD DUP12 PUSH2 0x1B83 JUMP JUMPDEST DUP2 DUP2 SUB PUSH1 0x20 DUP4 ADD MSTORE PUSH2 0x1BF7 DUP2 DUP11 PUSH2 0x1A8B JUMP JUMPDEST SWAP1 POP PUSH2 0x1C06 PUSH1 0x40 DUP4 ADD DUP10 PUSH2 0x1B83 JUMP JUMPDEST PUSH2 0x1C13 PUSH1 0x60 DUP4 ADD DUP9 PUSH2 0x19CE JUMP JUMPDEST PUSH2 0x1C20 PUSH1 0x80 DUP4 ADD DUP8 PUSH2 0x19CE JUMP JUMPDEST PUSH2 0x1C2D PUSH1 0xA0 DUP4 ADD DUP7 PUSH2 0x1B83 JUMP JUMPDEST PUSH2 0x1C3A PUSH1 0xC0 DUP4 ADD DUP6 PUSH2 0x1B83 JUMP JUMPDEST PUSH2 0x1C47 PUSH1 0xE0 DUP4 ADD DUP5 PUSH2 0x1B83 JUMP JUMPDEST SWAP10 SWAP9 POP POP POP POP POP POP POP POP POP JUMP JUMPDEST PUSH1 0x0 PUSH2 0x1C5E PUSH2 0x1C6F JUMP JUMPDEST SWAP1 POP PUSH2 0x1C6A DUP3 DUP3 PUSH2 0x1EA4 JUMP JUMPDEST SWAP2 SWAP1 POP JUMP JUMPDEST PUSH1 0x0 PUSH1 0x40 MLOAD SWAP1 POP SWAP1 JUMP JUMPDEST PUSH1 0x0 PUSH8 0xFFFFFFFFFFFFFFFF DUP3 GT ISZERO PUSH2 0x1C94 JUMPI PUSH2 0x1C93 PUSH2 0x1FDA JUMP JUMPDEST JUMPDEST PUSH2 0x1C9D DUP3 PUSH2 0x201D JUMP JUMPDEST SWAP1 POP PUSH1 0x20 DUP2 ADD SWAP1 POP SWAP2 SWAP1 POP JUMP JUMPDEST PUSH1 0x0 DUP2 SWAP1 POP PUSH1 0x20 DUP3 ADD SWAP1 POP SWAP2 SWAP1 POP JUMP JUMPDEST PUSH1 0x0 DUP2 MLOAD SWAP1 POP SWAP2 SWAP1 POP JUMP JUMPDEST PUSH1 0x0 DUP2 MLOAD SWAP1 POP SWAP2 SWAP1 POP JUMP JUMPDEST PUSH1 0x0 PUSH1 0x20 DUP3 ADD SWAP1 POP SWAP2 SWAP1 POP JUMP JUMPDEST PUSH1 0x0 DUP3 DUP3 MSTORE PUSH1 0x20 DUP3 ADD SWAP1 POP SWAP3 SWAP2 POP POP JUMP JUMPDEST PUSH1 0x0 DUP3 DUP3 MSTORE PUSH1 0x20 DUP3 ADD SWAP1 POP SWAP3 SWAP2 POP POP JUMP JUMPDEST PUSH1 0x0 DUP3 DUP3 MSTORE PUSH1 0x20 DUP3 ADD SWAP1 POP SWAP3 SWAP2 POP POP JUMP JUMPDEST PUSH1 0x0 PUSH2 0x1D1B DUP3 PUSH2 0x1E26 JUMP JUMPDEST SWAP2 POP PUSH2 0x1D26 DUP4 PUSH2 0x1E26 JUMP JUMPDEST SWAP3 POP DUP3 PUSH32 0xFFFFFFFFFFFFFFFFFFFFFFFFFFFFFFFFFFFFFFFFFFFFFFFFFFFFFFFFFFFFFFFF SUB DUP3 GT ISZERO PUSH2 0x1D5B JUMPI PUSH2 0x1D5A PUSH2 0x1F1E JUMP JUMPDEST JUMPDEST DUP3 DUP3 ADD SWAP1 POP SWAP3 SWAP2 POP POP JUMP JUMPDEST PUSH1 0x0 PUSH2 0x1D71 DUP3 PUSH2 0x1E26 JUMP JUMPDEST SWAP2 POP PUSH2 0x1D7C DUP4 PUSH2 0x1E26 JUMP JUMPDEST SWAP3 POP DUP2 PUSH32 0xFFFFFFFFFFFFFFFFFFFFFFFFFFFFFFFFFFFFFFFFFFFFFFFFFFFFFFFFFFFFFFFF DIV DUP4 GT DUP3 ISZERO ISZERO AND ISZERO PUSH2 0x1DB5 JUMPI PUSH2 0x1DB4 PUSH2 0x1F1E JUMP JUMPDEST JUMPDEST DUP3 DUP3 MUL SWAP1 POP SWAP3 SWAP2 POP POP JUMP JUMPDEST PUSH1 0x0 PUSH2 0x1DCB DUP3 PUSH2 0x1E26 JUMP JUMPDEST SWAP2 POP PUSH2 0x1DD6 DUP4 PUSH2 0x1E26 JUMP JUMPDEST SWAP3 POP DUP3 DUP3 LT ISZERO PUSH2 0x1DE9 JUMPI PUSH2 0x1DE8 PUSH2 0x1F1E JUMP JUMPDEST JUMPDEST DUP3 DUP3 SUB SWAP1 POP SWAP3 SWAP2 POP POP JUMP JUMPDEST PUSH1 0x0 PUSH2 0x1DFF DUP3 PUSH2 0x1E06 JUMP JUMPDEST SWAP1 POP SWAP2 SWAP1 POP JUMP JUMPDEST PUSH1 0x0 PUSH20 0xFFFFFFFFFFFFFFFFFFFFFFFFFFFFFFFFFFFFFFFF DUP3 AND SWAP1 POP SWAP2 SWAP1 POP JUMP JUMPDEST PUSH1 0x0 DUP2 SWAP1 POP SWAP2 SWAP1 POP JUMP JUMPDEST DUP3 DUP2 DUP4 CALLDATACOPY PUSH1 0x0 DUP4 DUP4 ADD MSTORE POP POP POP JUMP JUMPDEST PUSH1 0x0 JUMPDEST DUP4 DUP2 LT ISZERO PUSH2 0x1E5D JUMPI DUP1 DUP3 ADD MLOAD DUP2 DUP5 ADD MSTORE PUSH1 0x20 DUP2 ADD SWAP1 POP PUSH2 0x1E42 JUMP JUMPDEST DUP4 DUP2 GT ISZERO PUSH2 0x1E6C JUMPI PUSH1 0x0 DUP5 DUP5 ADD MSTORE JUMPDEST POP POP POP POP JUMP JUMPDEST PUSH1 0x0 PUSH1 0x2 DUP3 DIV SWAP1 POP PUSH1 0x1 DUP3 AND DUP1 PUSH2 0x1E8A JUMPI PUSH1 0x7F DUP3 AND SWAP2 POP JUMPDEST PUSH1 0x20 DUP3 LT DUP2 EQ ISZERO PUSH2 0x1E9E JUMPI PUSH2 0x1E9D PUSH2 0x1F4D JUMP JUMPDEST JUMPDEST POP SWAP2 SWAP1 POP JUMP JUMPDEST PUSH2 0x1EAD DUP3 PUSH2 0x201D JUMP JUMPDEST DUP2 ADD DUP2 DUP2 LT PUSH8 0xFFFFFFFFFFFFFFFF DUP3 GT OR ISZERO PUSH2 0x1ECC JUMPI PUSH2 0x1ECB PUSH2 0x1FDA JUMP JUMPDEST JUMPDEST DUP1 PUSH1 0x40 MSTORE POP POP POP JUMP JUMPDEST PUSH1 0x0 PUSH2 0x1EE0 DUP3 PUSH2 0x1E26 JUMP JUMPDEST SWAP2 POP PUSH32 0xFFFFFFFFFFFFFFFFFFFFFFFFFFFFFFFFFFFFFFFFFFFFFFFFFFFFFFFFFFFFFFFF DUP3 EQ ISZERO PUSH2 0x1F13 JUMPI PUSH2 0x1F12 PUSH2 0x1F1E JUMP JUMPDEST JUMPDEST PUSH1 0x1 DUP3 ADD SWAP1 POP SWAP2 SWAP1 POP JUMP JUMPDEST PUSH32 0x4E487B7100000000000000000000000000000000000000000000000000000000 PUSH1 0x0 MSTORE PUSH1 0x11 PUSH1 0x4 MSTORE PUSH1 0x24 PUSH1 0x0 REVERT JUMPDEST PUSH32 0x4E487B7100000000000000000000000000000000000000000000000000000000 PUSH1 0x0 MSTORE PUSH1 0x22 PUSH1 0x4 MSTORE PUSH1 0x24 PUSH1 0x0 REVERT JUMPDEST PUSH32 0x4E487B7100000000000000000000000000000000000000000000000000000000 PUSH1 0x0 MSTORE PUSH1 0x31 PUSH1 0x4 MSTORE PUSH1 0x24 PUSH1 0x0 REVERT JUMPDEST PUSH32 0x4E487B7100000000000000000000000000000000000000000000000000000000 PUSH1 0x0 MSTORE PUSH1 0x32 PUSH1 0x4 MSTORE PUSH1 0x24 PUSH1 0x0 REVERT JUMPDEST PUSH32 0x4E487B7100000000000000000000000000000000000000000000000000000000 PUSH1 0x0 MSTORE PUSH1 0x41 PUSH1 0x4 MSTORE PUSH1 0x24 PUSH1 0x0 REVERT JUMPDEST PUSH1 0x0 DUP1 REVERT JUMPDEST PUSH1 0x0 DUP1 REVERT JUMPDEST PUSH1 0x0 DUP1 REVERT JUMPDEST PUSH1 0x0 DUP1 REVERT JUMPDEST PUSH1 0x0 PUSH1 0x1F NOT PUSH1 0x1F DUP4 ADD AND SWAP1 POP SWAP2 SWAP1 POP JUMP JUMPDEST PUSH2 0x2037 DUP2 PUSH2 0x1DF4 JUMP JUMPDEST DUP2 EQ PUSH2 0x2042 JUMPI PUSH1 0x0 DUP1 REVERT JUMPDEST POP JUMP JUMPDEST PUSH2 0x204E DUP2 PUSH2 0x1E26 JUMP JUMPDEST DUP2 EQ PUSH2 0x2059 JUMPI PUSH1 0x0 DUP1 REVERT JUMPDEST POP JUMP INVALID LOG2 PUSH5 0x6970667358 0x22 SLT KECCAK256 PUSH24 0x6E073D4215B388CF2DEA7FD9E3A03ADA20084904C81858F6 DIFFICULTY 0xD9 0xB7 0xA9 0xC0 SWAP3 0xE2 PUSH5 0x736F6C6343 STOP ADDMOD SMOD STOP CALLER "
				},
				"gasEstimates": {
					"creation": {
						"codeDepositCost": "1667600",
						"executionCost": "1750",
						"totalCost": "1669350"
					},
					"external": {
						"createCrowdfunding(string,address,string)": "infinite",
						"getCrowdfundingByStatus(uint256)": "infinite",
						"getMyCrowdfunding(address)": "infinite",
						"join(uint256,uint256,address)": "infinite",
						"list(uint256)": "infinite",
						"setStatus(uint256)": "infinite",
						"setTitle(uint256,string)": "infinite",
						"stringToInt(string)": "infinite"
					}
				},
				"methodIdentifiers": {
					"createCrowdfunding(string,address,string)": "a97af4d5",
					"getCrowdfundingByStatus(uint256)": "904cc175",
					"getMyCrowdfunding(address)": "377e6ff7",
					"join(uint256,uint256,address)": "575b70d0",
					"list(uint256)": "80c9419e",
					"setStatus(uint256)": "69ba1a75",
					"setTitle(uint256,string)": "5102bc9d",
					"stringToInt(string)": "f8a02d84"
				}
			},
			"storageLayout": {
				"storage": [
					{
						"astId": 3,
						"contract": "crowdfunding.sol:CrowdfundingContract",
						"label": "No",
						"offset": 0,
						"slot": "0",
						"type": "t_uint256"
					},
					{
						"astId": 24,
						"contract": "crowdfunding.sol:CrowdfundingContract",
						"label": "list",
						"offset": 0,
						"slot": "1",
						"type": "t_array(t_struct(Crowdfunding)20_storage)dyn_storage"
					},
					{
						"astId": 30,
						"contract": "crowdfunding.sol:CrowdfundingContract",
						"label": "filterDataByStatus",
						"offset": 0,
						"slot": "2",
						"type": "t_mapping(t_uint256,t_array(t_struct(Crowdfunding)20_storage)dyn_storage)"
					},
					{
						"astId": 36,
						"contract": "crowdfunding.sol:CrowdfundingContract",
						"label": "myCrowdfunding",
						"offset": 0,
						"slot": "3",
						"type": "t_mapping(t_address,t_array(t_struct(Crowdfunding)20_storage)dyn_storage)"
					},
					{
						"astId": 41,
						"contract": "crowdfunding.sol:CrowdfundingContract",
						"label": "calcJoinNum",
						"offset": 0,
						"slot": "4",
						"type": "t_mapping(t_uint256,t_array(t_address)dyn_storage)"
					}
				],
				"types": {
					"t_address": {
						"encoding": "inplace",
						"label": "address",
						"numberOfBytes": "20"
					},
					"t_array(t_address)dyn_storage": {
						"base": "t_address",
						"encoding": "dynamic_array",
						"label": "address[]",
						"numberOfBytes": "32"
					},
					"t_array(t_struct(Crowdfunding)20_storage)dyn_storage": {
						"base": "t_struct(Crowdfunding)20_storage",
						"encoding": "dynamic_array",
						"label": "struct CrowdfundingContract.Crowdfunding[]",
						"numberOfBytes": "32"
					},
					"t_mapping(t_address,t_array(t_struct(Crowdfunding)20_storage)dyn_storage)": {
						"encoding": "mapping",
						"key": "t_address",
						"label": "mapping(address => struct CrowdfundingContract.Crowdfunding[])",
						"numberOfBytes": "32",
						"value": "t_array(t_struct(Crowdfunding)20_storage)dyn_storage"
					},
					"t_mapping(t_uint256,t_array(t_address)dyn_storage)": {
						"encoding": "mapping",
						"key": "t_uint256",
						"label": "mapping(uint256 => address[])",
						"numberOfBytes": "32",
						"value": "t_array(t_address)dyn_storage"
					},
					"t_mapping(t_uint256,t_array(t_struct(Crowdfunding)20_storage)dyn_storage)": {
						"encoding": "mapping",
						"key": "t_uint256",
						"label": "mapping(uint256 => struct CrowdfundingContract.Crowdfunding[])",
						"numberOfBytes": "32",
						"value": "t_array(t_struct(Crowdfunding)20_storage)dyn_storage"
					},
					"t_string_storage": {
						"encoding": "bytes",
						"label": "string",
						"numberOfBytes": "32"
					},
					"t_struct(Crowdfunding)20_storage": {
						"encoding": "inplace",
						"label": "struct CrowdfundingContract.Crowdfunding",
						"members": [
							{
								"astId": 5,
								"contract": "crowdfunding.sol:CrowdfundingContract",
								"label": "num",
								"offset": 0,
								"slot": "0",
								"type": "t_uint256"
							},
							{
								"astId": 7,
								"contract": "crowdfunding.sol:CrowdfundingContract",
								"label": "title",
								"offset": 0,
								"slot": "1",
								"type": "t_string_storage"
							},
							{
								"astId": 9,
								"contract": "crowdfunding.sol:CrowdfundingContract",
								"label": "status",
								"offset": 0,
								"slot": "2",
								"type": "t_uint256"
							},
							{
								"astId": 11,
								"contract": "crowdfunding.sol:CrowdfundingContract",
								"label": "creator",
								"offset": 0,
								"slot": "3",
								"type": "t_address"
							},
							{
								"astId": 13,
								"contract": "crowdfunding.sol:CrowdfundingContract",
								"label": "recipient",
								"offset": 0,
								"slot": "4",
								"type": "t_address"
							},
							{
								"astId": 15,
								"contract": "crowdfunding.sol:CrowdfundingContract",
								"label": "joinNum",
								"offset": 0,
								"slot": "5",
								"type": "t_uint256"
							},
							{
								"astId": 17,
								"contract": "crowdfunding.sol:CrowdfundingContract",
								"label": "expectAmout",
								"offset": 0,
								"slot": "6",
								"type": "t_uint256"
							},
							{
								"astId": 19,
								"contract": "crowdfunding.sol:CrowdfundingContract",
								"label": "actualAmount",
								"offset": 0,
								"slot": "7",
								"type": "t_uint256"
							}
						],
						"numberOfBytes": "256"
					},
					"t_uint256": {
						"encoding": "inplace",
						"label": "uint256",
						"numberOfBytes": "32"
					}
				}
			},
			"userdoc": {
				"kind": "user",
				"methods": {},
				"version": 1
			}
		}
	}
}