{
	"variable.sol": {
		"Variable": {
			"abi": [
				{
					"inputs": [
						{
							"internalType": "string",
							"name": "val",
							"type": "string"
						}
					],
					"name": "addTask",
					"outputs": [],
					"stateMutability": "nonpayable",
					"type": "function"
				},
				{
					"inputs": [
						{
							"internalType": "uint256",
							"name": "",
							"type": "uint256"
						}
					],
					"name": "list",
					"outputs": [
						{
							"internalType": "string",
							"name": "",
							"type": "string"
						}
					],
					"stateMutability": "view",
					"type": "function"
				},
				{
					"inputs": [],
					"name": "taskList",
					"outputs": [
						{
							"internalType": "string[]",
							"name": "",
							"type": "string[]"
						}
					],
					"stateMutability": "view",
					"type": "function"
				}
			],
			"devdoc": {
				"kind": "dev",
				"methods": {},
				"version": 1
			},
			"evm": {
				"assembly": "    /* \"variable.sol\":63:447  contract Variable {\r... */\n  mstore(0x40, 0x80)\n  callvalue\n  dup1\n  iszero\n  tag_1\n  jumpi\n  0x00\n  dup1\n  revert\ntag_1:\n  pop\n  dataSize(sub_0)\n  dup1\n  dataOffset(sub_0)\n  0x00\n  codecopy\n  0x00\n  return\nstop\n\nsub_0: assembly {\n        /* \"variable.sol\":63:447  contract Variable {\r... */\n      mstore(0x40, 0x80)\n      callvalue\n      dup1\n      iszero\n      tag_1\n      jumpi\n      0x00\n      dup1\n      revert\n    tag_1:\n      pop\n      jumpi(tag_2, lt(calldatasize, 0x04))\n      shr(0xe0, calldataload(0x00))\n      dup1\n      0x67238562\n      eq\n      tag_3\n      jumpi\n      dup1\n      0x80c9419e\n      eq\n      tag_4\n      jumpi\n      dup1\n      0xeb7e7f1a\n      eq\n      tag_5\n      jumpi\n    tag_2:\n      0x00\n      dup1\n      revert\n        /* \"variable.sol\":264:340  function addTask(string memory val) public {\r... */\n    tag_3:\n      tag_6\n      0x04\n      dup1\n      calldatasize\n      sub\n      dup2\n      add\n      swap1\n      tag_7\n      swap2\n      swap1\n      tag_8\n      jump\t// in\n    tag_7:\n      tag_9\n      jump\t// in\n    tag_6:\n      stop\n        /* \"variable.sol\":237:257  string[] public list */\n    tag_4:\n      tag_10\n      0x04\n      dup1\n      calldatasize\n      sub\n      dup2\n      add\n      swap1\n      tag_11\n      swap2\n      swap1\n      tag_12\n      jump\t// in\n    tag_11:\n      tag_13\n      jump\t// in\n    tag_10:\n      mload(0x40)\n      tag_14\n      swap2\n      swap1\n      tag_15\n      jump\t// in\n    tag_14:\n      mload(0x40)\n      dup1\n      swap2\n      sub\n      swap1\n      return\n        /* \"variable.sol\":348:436  function taskList() public view returns (string[] memory) {\r... */\n    tag_5:\n      tag_16\n      tag_17\n      jump\t// in\n    tag_16:\n      mload(0x40)\n      tag_18\n      swap2\n      swap1\n      tag_19\n      jump\t// in\n    tag_18:\n      mload(0x40)\n      dup1\n      swap2\n      sub\n      swap1\n      return\n        /* \"variable.sol\":264:340  function addTask(string memory val) public {\r... */\n    tag_9:\n        /* \"variable.sol\":318:322  list */\n      0x00\n        /* \"variable.sol\":328:331  val */\n      dup2\n        /* \"variable.sol\":318:332  list.push(val) */\n      swap1\n      dup1\n      0x01\n      dup2\n      sload\n      add\n      dup1\n      dup3\n      sstore\n      dup1\n      swap2\n      pop\n      pop\n      0x01\n      swap1\n      sub\n      swap1\n      0x00\n      mstore\n      keccak256(0x00, 0x20)\n      add\n      0x00\n      swap1\n      swap2\n      swap1\n      swap2\n      swap1\n      swap2\n      pop\n      swap1\n      dup1\n      mload\n      swap1\n      0x20\n      add\n      swap1\n      tag_22\n      swap3\n      swap2\n      swap1\n      tag_23\n      jump\t// in\n    tag_22:\n      pop\n        /* \"variable.sol\":264:340  function addTask(string memory val) public {\r... */\n      pop\n      jump\t// out\n        /* \"variable.sol\":237:257  string[] public list */\n    tag_13:\n      0x00\n      dup2\n      dup2\n      sload\n      dup2\n      lt\n      tag_24\n      jumpi\n      0x00\n      dup1\n      revert\n    tag_24:\n      swap1\n      0x00\n      mstore\n      keccak256(0x00, 0x20)\n      add\n      0x00\n      swap2\n      pop\n      swap1\n      pop\n      dup1\n      sload\n      tag_26\n      swap1\n      tag_27\n      jump\t// in\n    tag_26:\n      dup1\n      0x1f\n      add\n      0x20\n      dup1\n      swap2\n      div\n      mul\n      0x20\n      add\n      mload(0x40)\n      swap1\n      dup2\n      add\n      0x40\n      mstore\n      dup1\n      swap3\n      swap2\n      swap1\n      dup2\n      dup2\n      mstore\n      0x20\n      add\n      dup3\n      dup1\n      sload\n      tag_28\n      swap1\n      tag_27\n      jump\t// in\n    tag_28:\n      dup1\n      iszero\n      tag_29\n      jumpi\n      dup1\n      0x1f\n      lt\n      tag_30\n      jumpi\n      0x0100\n      dup1\n      dup4\n      sload\n      div\n      mul\n      dup4\n      mstore\n      swap2\n      0x20\n      add\n      swap2\n      jump(tag_29)\n    tag_30:\n      dup3\n      add\n      swap2\n      swap1\n      0x00\n      mstore\n      keccak256(0x00, 0x20)\n      swap1\n    tag_31:\n      dup2\n      sload\n      dup2\n      mstore\n      swap1\n      0x01\n      add\n      swap1\n      0x20\n      add\n      dup1\n      dup4\n      gt\n      tag_31\n      jumpi\n      dup3\n      swap1\n      sub\n      0x1f\n      and\n      dup3\n      add\n      swap2\n    tag_29:\n      pop\n      pop\n      pop\n      pop\n      pop\n      dup2\n      jump\t// out\n        /* \"variable.sol\":348:436  function taskList() public view returns (string[] memory) {\r... */\n    tag_17:\n        /* \"variable.sol\":389:404  string[] memory */\n      0x60\n        /* \"variable.sol\":424:428  list */\n      0x00\n        /* \"variable.sol\":417:428  return list */\n      dup1\n      sload\n      dup1\n      0x20\n      mul\n      0x20\n      add\n      mload(0x40)\n      swap1\n      dup2\n      add\n      0x40\n      mstore\n      dup1\n      swap3\n      swap2\n      swap1\n      dup2\n      dup2\n      mstore\n      0x20\n      add\n      0x00\n      swap1\n    tag_33:\n      dup3\n      dup3\n      lt\n      iszero\n      tag_34\n      jumpi\n      dup4\n      dup3\n      swap1\n      0x00\n      mstore\n      keccak256(0x00, 0x20)\n      add\n      dup1\n      sload\n      tag_36\n      swap1\n      tag_27\n      jump\t// in\n    tag_36:\n      dup1\n      0x1f\n      add\n      0x20\n      dup1\n      swap2\n      div\n      mul\n      0x20\n      add\n      mload(0x40)\n      swap1\n      dup2\n      add\n      0x40\n      mstore\n      dup1\n      swap3\n      swap2\n      swap1\n      dup2\n      dup2\n      mstore\n      0x20\n      add\n      dup3\n      dup1\n      sload\n      tag_37\n      swap1\n      tag_27\n      jump\t// in\n    tag_37:\n      dup1\n      iszero\n      tag_38\n      jumpi\n      dup1\n      0x1f\n      lt\n      tag_39\n      jumpi\n      0x0100\n      dup1\n      dup4\n      sload\n      div\n      mul\n      dup4\n      mstore\n      swap2\n      0x20\n      add\n      swap2\n      jump(tag_38)\n    tag_39:\n      dup3\n      add\n      swap2\n      swap1\n      0x00\n      mstore\n      keccak256(0x00, 0x20)\n      swap1\n    tag_40:\n      dup2\n      sload\n      dup2\n      mstore\n      swap1\n      0x01\n      add\n      swap1\n      0x20\n      add\n      dup1\n      dup4\n      gt\n      tag_40\n      jumpi\n      dup3\n      swap1\n      sub\n      0x1f\n      and\n      dup3\n      add\n      swap2\n    tag_38:\n      pop\n      pop\n      pop\n      pop\n      pop\n      dup2\n      mstore\n      0x20\n      add\n      swap1\n      0x01\n      add\n      swap1\n      jump(tag_33)\n    tag_34:\n      pop\n      pop\n      pop\n      pop\n      swap1\n      pop\n        /* \"variable.sol\":348:436  function taskList() public view returns (string[] memory) {\r... */\n      swap1\n      jump\t// out\n    tag_23:\n      dup3\n      dup1\n      sload\n      tag_41\n      swap1\n      tag_27\n      jump\t// in\n    tag_41:\n      swap1\n      0x00\n      mstore\n      keccak256(0x00, 0x20)\n      swap1\n      0x1f\n      add\n      0x20\n      swap1\n      div\n      dup2\n      add\n      swap3\n      dup3\n      tag_43\n      jumpi\n      0x00\n      dup6\n      sstore\n      jump(tag_42)\n    tag_43:\n      dup3\n      0x1f\n      lt\n      tag_44\n      jumpi\n      dup1\n      mload\n      not(0xff)\n      and\n      dup4\n      dup1\n      add\n      or\n      dup6\n      sstore\n      jump(tag_42)\n    tag_44:\n      dup3\n      dup1\n      add\n      0x01\n      add\n      dup6\n      sstore\n      dup3\n      iszero\n      tag_42\n      jumpi\n      swap2\n      dup3\n      add\n    tag_45:\n      dup3\n      dup2\n      gt\n      iszero\n      tag_46\n      jumpi\n      dup3\n      mload\n      dup3\n      sstore\n      swap2\n      0x20\n      add\n      swap2\n      swap1\n      0x01\n      add\n      swap1\n      jump(tag_45)\n    tag_46:\n    tag_42:\n      pop\n      swap1\n      pop\n      tag_47\n      swap2\n      swap1\n      tag_48\n      jump\t// in\n    tag_47:\n      pop\n      swap1\n      jump\t// out\n    tag_48:\n    tag_49:\n      dup1\n      dup3\n      gt\n      iszero\n      tag_50\n      jumpi\n      0x00\n      dup2\n      0x00\n      swap1\n      sstore\n      pop\n      0x01\n      add\n      jump(tag_49)\n    tag_50:\n      pop\n      swap1\n      jump\t// out\n        /* \"#utility.yul\":7:419   */\n    tag_52:\n        /* \"#utility.yul\":85:90   */\n      0x00\n        /* \"#utility.yul\":110:176   */\n      tag_54\n        /* \"#utility.yul\":126:175   */\n      tag_55\n        /* \"#utility.yul\":168:174   */\n      dup5\n        /* \"#utility.yul\":126:175   */\n      tag_56\n      jump\t// in\n    tag_55:\n        /* \"#utility.yul\":110:176   */\n      tag_57\n      jump\t// in\n    tag_54:\n        /* \"#utility.yul\":101:176   */\n      swap1\n      pop\n        /* \"#utility.yul\":199:205   */\n      dup3\n        /* \"#utility.yul\":192:197   */\n      dup2\n        /* \"#utility.yul\":185:206   */\n      mstore\n        /* \"#utility.yul\":237:241   */\n      0x20\n        /* \"#utility.yul\":230:235   */\n      dup2\n        /* \"#utility.yul\":226:242   */\n      add\n        /* \"#utility.yul\":275:278   */\n      dup5\n        /* \"#utility.yul\":266:272   */\n      dup5\n        /* \"#utility.yul\":261:264   */\n      dup5\n        /* \"#utility.yul\":257:273   */\n      add\n        /* \"#utility.yul\":254:279   */\n      gt\n        /* \"#utility.yul\":251:363   */\n      iszero\n      tag_58\n      jumpi\n        /* \"#utility.yul\":282:361   */\n      tag_59\n      tag_60\n      jump\t// in\n    tag_59:\n        /* \"#utility.yul\":251:363   */\n    tag_58:\n        /* \"#utility.yul\":372:413   */\n      tag_61\n        /* \"#utility.yul\":406:412   */\n      dup5\n        /* \"#utility.yul\":401:404   */\n      dup3\n        /* \"#utility.yul\":396:399   */\n      dup6\n        /* \"#utility.yul\":372:413   */\n      tag_62\n      jump\t// in\n    tag_61:\n        /* \"#utility.yul\":91:419   */\n      pop\n        /* \"#utility.yul\":7:419   */\n      swap4\n      swap3\n      pop\n      pop\n      pop\n      jump\t// out\n        /* \"#utility.yul\":439:779   */\n    tag_63:\n        /* \"#utility.yul\":495:500   */\n      0x00\n        /* \"#utility.yul\":544:547   */\n      dup3\n        /* \"#utility.yul\":537:541   */\n      0x1f\n        /* \"#utility.yul\":529:535   */\n      dup4\n        /* \"#utility.yul\":525:542   */\n      add\n        /* \"#utility.yul\":521:548   */\n      slt\n        /* \"#utility.yul\":511:633   */\n      tag_65\n      jumpi\n        /* \"#utility.yul\":552:631   */\n      tag_66\n      tag_67\n      jump\t// in\n    tag_66:\n        /* \"#utility.yul\":511:633   */\n    tag_65:\n        /* \"#utility.yul\":669:675   */\n      dup2\n        /* \"#utility.yul\":656:676   */\n      calldataload\n        /* \"#utility.yul\":694:773   */\n      tag_68\n        /* \"#utility.yul\":769:772   */\n      dup5\n        /* \"#utility.yul\":761:767   */\n      dup3\n        /* \"#utility.yul\":754:758   */\n      0x20\n        /* \"#utility.yul\":746:752   */\n      dup7\n        /* \"#utility.yul\":742:759   */\n      add\n        /* \"#utility.yul\":694:773   */\n      tag_52\n      jump\t// in\n    tag_68:\n        /* \"#utility.yul\":685:773   */\n      swap2\n      pop\n        /* \"#utility.yul\":501:779   */\n      pop\n        /* \"#utility.yul\":439:779   */\n      swap3\n      swap2\n      pop\n      pop\n      jump\t// out\n        /* \"#utility.yul\":785:924   */\n    tag_69:\n        /* \"#utility.yul\":831:836   */\n      0x00\n        /* \"#utility.yul\":869:875   */\n      dup2\n        /* \"#utility.yul\":856:876   */\n      calldataload\n        /* \"#utility.yul\":847:876   */\n      swap1\n      pop\n        /* \"#utility.yul\":885:918   */\n      tag_71\n        /* \"#utility.yul\":912:917   */\n      dup2\n        /* \"#utility.yul\":885:918   */\n      tag_72\n      jump\t// in\n    tag_71:\n        /* \"#utility.yul\":785:924   */\n      swap3\n      swap2\n      pop\n      pop\n      jump\t// out\n        /* \"#utility.yul\":930:1439   */\n    tag_8:\n        /* \"#utility.yul\":999:1005   */\n      0x00\n        /* \"#utility.yul\":1048:1050   */\n      0x20\n        /* \"#utility.yul\":1036:1045   */\n      dup3\n        /* \"#utility.yul\":1027:1034   */\n      dup5\n        /* \"#utility.yul\":1023:1046   */\n      sub\n        /* \"#utility.yul\":1019:1051   */\n      slt\n        /* \"#utility.yul\":1016:1135   */\n      iszero\n      tag_74\n      jumpi\n        /* \"#utility.yul\":1054:1133   */\n      tag_75\n      tag_76\n      jump\t// in\n    tag_75:\n        /* \"#utility.yul\":1016:1135   */\n    tag_74:\n        /* \"#utility.yul\":1202:1203   */\n      0x00\n        /* \"#utility.yul\":1191:1200   */\n      dup3\n        /* \"#utility.yul\":1187:1204   */\n      add\n        /* \"#utility.yul\":1174:1205   */\n      calldataload\n        /* \"#utility.yul\":1232:1250   */\n      0xffffffffffffffff\n        /* \"#utility.yul\":1224:1230   */\n      dup2\n        /* \"#utility.yul\":1221:1251   */\n      gt\n        /* \"#utility.yul\":1218:1335   */\n      iszero\n      tag_77\n      jumpi\n        /* \"#utility.yul\":1254:1333   */\n      tag_78\n      tag_79\n      jump\t// in\n    tag_78:\n        /* \"#utility.yul\":1218:1335   */\n    tag_77:\n        /* \"#utility.yul\":1359:1422   */\n      tag_80\n        /* \"#utility.yul\":1414:1421   */\n      dup5\n        /* \"#utility.yul\":1405:1411   */\n      dup3\n        /* \"#utility.yul\":1394:1403   */\n      dup6\n        /* \"#utility.yul\":1390:1412   */\n      add\n        /* \"#utility.yul\":1359:1422   */\n      tag_63\n      jump\t// in\n    tag_80:\n        /* \"#utility.yul\":1349:1422   */\n      swap2\n      pop\n        /* \"#utility.yul\":1145:1432   */\n      pop\n        /* \"#utility.yul\":930:1439   */\n      swap3\n      swap2\n      pop\n      pop\n      jump\t// out\n        /* \"#utility.yul\":1445:1774   */\n    tag_12:\n        /* \"#utility.yul\":1504:1510   */\n      0x00\n        /* \"#utility.yul\":1553:1555   */\n      0x20\n        /* \"#utility.yul\":1541:1550   */\n      dup3\n        /* \"#utility.yul\":1532:1539   */\n      dup5\n        /* \"#utility.yul\":1528:1551   */\n      sub\n        /* \"#utility.yul\":1524:1556   */\n      slt\n        /* \"#utility.yul\":1521:1640   */\n      iszero\n      tag_82\n      jumpi\n        /* \"#utility.yul\":1559:1638   */\n      tag_83\n      tag_76\n      jump\t// in\n    tag_83:\n        /* \"#utility.yul\":1521:1640   */\n    tag_82:\n        /* \"#utility.yul\":1679:1680   */\n      0x00\n        /* \"#utility.yul\":1704:1757   */\n      tag_84\n        /* \"#utility.yul\":1749:1756   */\n      dup5\n        /* \"#utility.yul\":1740:1746   */\n      dup3\n        /* \"#utility.yul\":1729:1738   */\n      dup6\n        /* \"#utility.yul\":1725:1747   */\n      add\n        /* \"#utility.yul\":1704:1757   */\n      tag_69\n      jump\t// in\n    tag_84:\n        /* \"#utility.yul\":1694:1757   */\n      swap2\n      pop\n        /* \"#utility.yul\":1650:1767   */\n      pop\n        /* \"#utility.yul\":1445:1774   */\n      swap3\n      swap2\n      pop\n      pop\n      jump\t// out\n        /* \"#utility.yul\":1780:1976   */\n    tag_85:\n        /* \"#utility.yul\":1869:1879   */\n      0x00\n        /* \"#utility.yul\":1904:1970   */\n      tag_87\n        /* \"#utility.yul\":1966:1969   */\n      dup4\n        /* \"#utility.yul\":1958:1964   */\n      dup4\n        /* \"#utility.yul\":1904:1970   */\n      tag_88\n      jump\t// in\n    tag_87:\n        /* \"#utility.yul\":1890:1970   */\n      swap1\n      pop\n        /* \"#utility.yul\":1780:1976   */\n      swap3\n      swap2\n      pop\n      pop\n      jump\t// out\n        /* \"#utility.yul\":2010:3001   */\n    tag_89:\n        /* \"#utility.yul\":2149:2152   */\n      0x00\n        /* \"#utility.yul\":2178:2242   */\n      tag_91\n        /* \"#utility.yul\":2236:2241   */\n      dup3\n        /* \"#utility.yul\":2178:2242   */\n      tag_92\n      jump\t// in\n    tag_91:\n        /* \"#utility.yul\":2258:2354   */\n      tag_93\n        /* \"#utility.yul\":2347:2353   */\n      dup2\n        /* \"#utility.yul\":2342:2345   */\n      dup6\n        /* \"#utility.yul\":2258:2354   */\n      tag_94\n      jump\t// in\n    tag_93:\n        /* \"#utility.yul\":2251:2354   */\n      swap4\n      pop\n        /* \"#utility.yul\":2380:2383   */\n      dup4\n        /* \"#utility.yul\":2425:2429   */\n      0x20\n        /* \"#utility.yul\":2417:2423   */\n      dup3\n        /* \"#utility.yul\":2413:2430   */\n      mul\n        /* \"#utility.yul\":2408:2411   */\n      dup6\n        /* \"#utility.yul\":2404:2431   */\n      add\n        /* \"#utility.yul\":2455:2521   */\n      tag_95\n        /* \"#utility.yul\":2515:2520   */\n      dup6\n        /* \"#utility.yul\":2455:2521   */\n      tag_96\n      jump\t// in\n    tag_95:\n        /* \"#utility.yul\":2544:2551   */\n      dup1\n        /* \"#utility.yul\":2575:2576   */\n      0x00\n        /* \"#utility.yul\":2560:2956   */\n    tag_97:\n        /* \"#utility.yul\":2585:2591   */\n      dup6\n        /* \"#utility.yul\":2582:2583   */\n      dup2\n        /* \"#utility.yul\":2579:2592   */\n      lt\n        /* \"#utility.yul\":2560:2956   */\n      iszero\n      tag_99\n      jumpi\n        /* \"#utility.yul\":2656:2665   */\n      dup5\n        /* \"#utility.yul\":2650:2654   */\n      dup5\n        /* \"#utility.yul\":2646:2666   */\n      sub\n        /* \"#utility.yul\":2641:2644   */\n      dup10\n        /* \"#utility.yul\":2634:2667   */\n      mstore\n        /* \"#utility.yul\":2707:2713   */\n      dup2\n        /* \"#utility.yul\":2701:2714   */\n      mload\n        /* \"#utility.yul\":2735:2819   */\n      tag_100\n        /* \"#utility.yul\":2814:2818   */\n      dup6\n        /* \"#utility.yul\":2799:2812   */\n      dup3\n        /* \"#utility.yul\":2735:2819   */\n      tag_85\n      jump\t// in\n    tag_100:\n        /* \"#utility.yul\":2727:2819   */\n      swap5\n      pop\n        /* \"#utility.yul\":2842:2912   */\n      tag_101\n        /* \"#utility.yul\":2905:2911   */\n      dup4\n        /* \"#utility.yul\":2842:2912   */\n      tag_102\n      jump\t// in\n    tag_101:\n        /* \"#utility.yul\":2832:2912   */\n      swap3\n      pop\n        /* \"#utility.yul\":2941:2945   */\n      0x20\n        /* \"#utility.yul\":2936:2939   */\n      dup11\n        /* \"#utility.yul\":2932:2946   */\n      add\n        /* \"#utility.yul\":2925:2946   */\n      swap10\n      pop\n        /* \"#utility.yul\":2620:2956   */\n      pop\n        /* \"#utility.yul\":2607:2608   */\n      0x01\n        /* \"#utility.yul\":2604:2605   */\n      dup2\n        /* \"#utility.yul\":2600:2609   */\n      add\n        /* \"#utility.yul\":2595:2609   */\n      swap1\n      pop\n        /* \"#utility.yul\":2560:2956   */\n      jump(tag_97)\n    tag_99:\n        /* \"#utility.yul\":2564:2578   */\n      pop\n        /* \"#utility.yul\":2972:2976   */\n      dup3\n        /* \"#utility.yul\":2965:2976   */\n      swap8\n      pop\n        /* \"#utility.yul\":2992:2995   */\n      dup8\n        /* \"#utility.yul\":2985:2995   */\n      swap6\n      pop\n        /* \"#utility.yul\":2154:3001   */\n      pop\n      pop\n      pop\n      pop\n      pop\n        /* \"#utility.yul\":2010:3001   */\n      swap3\n      swap2\n      pop\n      pop\n      jump\t// out\n        /* \"#utility.yul\":3007:3351   */\n    tag_88:\n        /* \"#utility.yul\":3085:3088   */\n      0x00\n        /* \"#utility.yul\":3113:3152   */\n      tag_104\n        /* \"#utility.yul\":3146:3151   */\n      dup3\n        /* \"#utility.yul\":3113:3152   */\n      tag_105\n      jump\t// in\n    tag_104:\n        /* \"#utility.yul\":3168:3229   */\n      tag_106\n        /* \"#utility.yul\":3222:3228   */\n      dup2\n        /* \"#utility.yul\":3217:3220   */\n      dup6\n        /* \"#utility.yul\":3168:3229   */\n      tag_107\n      jump\t// in\n    tag_106:\n        /* \"#utility.yul\":3161:3229   */\n      swap4\n      pop\n        /* \"#utility.yul\":3238:3290   */\n      tag_108\n        /* \"#utility.yul\":3283:3289   */\n      dup2\n        /* \"#utility.yul\":3278:3281   */\n      dup6\n        /* \"#utility.yul\":3271:3275   */\n      0x20\n        /* \"#utility.yul\":3264:3269   */\n      dup7\n        /* \"#utility.yul\":3260:3276   */\n      add\n        /* \"#utility.yul\":3238:3290   */\n      tag_109\n      jump\t// in\n    tag_108:\n        /* \"#utility.yul\":3315:3344   */\n      tag_110\n        /* \"#utility.yul\":3337:3343   */\n      dup2\n        /* \"#utility.yul\":3315:3344   */\n      tag_111\n      jump\t// in\n    tag_110:\n        /* \"#utility.yul\":3310:3313   */\n      dup5\n        /* \"#utility.yul\":3306:3345   */\n      add\n        /* \"#utility.yul\":3299:3345   */\n      swap2\n      pop\n        /* \"#utility.yul\":3089:3351   */\n      pop\n        /* \"#utility.yul\":3007:3351   */\n      swap3\n      swap2\n      pop\n      pop\n      jump\t// out\n        /* \"#utility.yul\":3357:3721   */\n    tag_112:\n        /* \"#utility.yul\":3445:3448   */\n      0x00\n        /* \"#utility.yul\":3473:3512   */\n      tag_114\n        /* \"#utility.yul\":3506:3511   */\n      dup3\n        /* \"#utility.yul\":3473:3512   */\n      tag_105\n      jump\t// in\n    tag_114:\n        /* \"#utility.yul\":3528:3599   */\n      tag_115\n        /* \"#utility.yul\":3592:3598   */\n      dup2\n        /* \"#utility.yul\":3587:3590   */\n      dup6\n        /* \"#utility.yul\":3528:3599   */\n      tag_116\n      jump\t// in\n    tag_115:\n        /* \"#utility.yul\":3521:3599   */\n      swap4\n      pop\n        /* \"#utility.yul\":3608:3660   */\n      tag_117\n        /* \"#utility.yul\":3653:3659   */\n      dup2\n        /* \"#utility.yul\":3648:3651   */\n      dup6\n        /* \"#utility.yul\":3641:3645   */\n      0x20\n        /* \"#utility.yul\":3634:3639   */\n      dup7\n        /* \"#utility.yul\":3630:3646   */\n      add\n        /* \"#utility.yul\":3608:3660   */\n      tag_109\n      jump\t// in\n    tag_117:\n        /* \"#utility.yul\":3685:3714   */\n      tag_118\n        /* \"#utility.yul\":3707:3713   */\n      dup2\n        /* \"#utility.yul\":3685:3714   */\n      tag_111\n      jump\t// in\n    tag_118:\n        /* \"#utility.yul\":3680:3683   */\n      dup5\n        /* \"#utility.yul\":3676:3715   */\n      add\n        /* \"#utility.yul\":3669:3715   */\n      swap2\n      pop\n        /* \"#utility.yul\":3449:3721   */\n      pop\n        /* \"#utility.yul\":3357:3721   */\n      swap3\n      swap2\n      pop\n      pop\n      jump\t// out\n        /* \"#utility.yul\":3727:4140   */\n    tag_19:\n        /* \"#utility.yul\":3890:3894   */\n      0x00\n        /* \"#utility.yul\":3928:3930   */\n      0x20\n        /* \"#utility.yul\":3917:3926   */\n      dup3\n        /* \"#utility.yul\":3913:3931   */\n      add\n        /* \"#utility.yul\":3905:3931   */\n      swap1\n      pop\n        /* \"#utility.yul\":3977:3986   */\n      dup2\n        /* \"#utility.yul\":3971:3975   */\n      dup2\n        /* \"#utility.yul\":3967:3987   */\n      sub\n        /* \"#utility.yul\":3963:3964   */\n      0x00\n        /* \"#utility.yul\":3952:3961   */\n      dup4\n        /* \"#utility.yul\":3948:3965   */\n      add\n        /* \"#utility.yul\":3941:3988   */\n      mstore\n        /* \"#utility.yul\":4005:4133   */\n      tag_120\n        /* \"#utility.yul\":4128:4132   */\n      dup2\n        /* \"#utility.yul\":4119:4125   */\n      dup5\n        /* \"#utility.yul\":4005:4133   */\n      tag_89\n      jump\t// in\n    tag_120:\n        /* \"#utility.yul\":3997:4133   */\n      swap1\n      pop\n        /* \"#utility.yul\":3727:4140   */\n      swap3\n      swap2\n      pop\n      pop\n      jump\t// out\n        /* \"#utility.yul\":4146:4459   */\n    tag_15:\n        /* \"#utility.yul\":4259:4263   */\n      0x00\n        /* \"#utility.yul\":4297:4299   */\n      0x20\n        /* \"#utility.yul\":4286:4295   */\n      dup3\n        /* \"#utility.yul\":4282:4300   */\n      add\n        /* \"#utility.yul\":4274:4300   */\n      swap1\n      pop\n        /* \"#utility.yul\":4346:4355   */\n      dup2\n        /* \"#utility.yul\":4340:4344   */\n      dup2\n        /* \"#utility.yul\":4336:4356   */\n      sub\n        /* \"#utility.yul\":4332:4333   */\n      0x00\n        /* \"#utility.yul\":4321:4330   */\n      dup4\n        /* \"#utility.yul\":4317:4334   */\n      add\n        /* \"#utility.yul\":4310:4357   */\n      mstore\n        /* \"#utility.yul\":4374:4452   */\n      tag_122\n        /* \"#utility.yul\":4447:4451   */\n      dup2\n        /* \"#utility.yul\":4438:4444   */\n      dup5\n        /* \"#utility.yul\":4374:4452   */\n      tag_112\n      jump\t// in\n    tag_122:\n        /* \"#utility.yul\":4366:4452   */\n      swap1\n      pop\n        /* \"#utility.yul\":4146:4459   */\n      swap3\n      swap2\n      pop\n      pop\n      jump\t// out\n        /* \"#utility.yul\":4465:4594   */\n    tag_57:\n        /* \"#utility.yul\":4499:4505   */\n      0x00\n        /* \"#utility.yul\":4526:4546   */\n      tag_124\n      tag_125\n      jump\t// in\n    tag_124:\n        /* \"#utility.yul\":4516:4546   */\n      swap1\n      pop\n        /* \"#utility.yul\":4555:4588   */\n      tag_126\n        /* \"#utility.yul\":4583:4587   */\n      dup3\n        /* \"#utility.yul\":4575:4581   */\n      dup3\n        /* \"#utility.yul\":4555:4588   */\n      tag_127\n      jump\t// in\n    tag_126:\n        /* \"#utility.yul\":4465:4594   */\n      swap2\n      swap1\n      pop\n      jump\t// out\n        /* \"#utility.yul\":4600:4675   */\n    tag_125:\n        /* \"#utility.yul\":4633:4639   */\n      0x00\n        /* \"#utility.yul\":4666:4668   */\n      0x40\n        /* \"#utility.yul\":4660:4669   */\n      mload\n        /* \"#utility.yul\":4650:4669   */\n      swap1\n      pop\n        /* \"#utility.yul\":4600:4675   */\n      swap1\n      jump\t// out\n        /* \"#utility.yul\":4681:4989   */\n    tag_56:\n        /* \"#utility.yul\":4743:4747   */\n      0x00\n        /* \"#utility.yul\":4833:4851   */\n      0xffffffffffffffff\n        /* \"#utility.yul\":4825:4831   */\n      dup3\n        /* \"#utility.yul\":4822:4852   */\n      gt\n        /* \"#utility.yul\":4819:4875   */\n      iszero\n      tag_130\n      jumpi\n        /* \"#utility.yul\":4855:4873   */\n      tag_131\n      tag_132\n      jump\t// in\n    tag_131:\n        /* \"#utility.yul\":4819:4875   */\n    tag_130:\n        /* \"#utility.yul\":4893:4922   */\n      tag_133\n        /* \"#utility.yul\":4915:4921   */\n      dup3\n        /* \"#utility.yul\":4893:4922   */\n      tag_111\n      jump\t// in\n    tag_133:\n        /* \"#utility.yul\":4885:4922   */\n      swap1\n      pop\n        /* \"#utility.yul\":4977:4981   */\n      0x20\n        /* \"#utility.yul\":4971:4975   */\n      dup2\n        /* \"#utility.yul\":4967:4982   */\n      add\n        /* \"#utility.yul\":4959:4982   */\n      swap1\n      pop\n        /* \"#utility.yul\":4681:4989   */\n      swap2\n      swap1\n      pop\n      jump\t// out\n        /* \"#utility.yul\":4995:5137   */\n    tag_96:\n        /* \"#utility.yul\":5072:5076   */\n      0x00\n        /* \"#utility.yul\":5095:5098   */\n      dup2\n        /* \"#utility.yul\":5087:5098   */\n      swap1\n      pop\n        /* \"#utility.yul\":5125:5129   */\n      0x20\n        /* \"#utility.yul\":5120:5123   */\n      dup3\n        /* \"#utility.yul\":5116:5130   */\n      add\n        /* \"#utility.yul\":5108:5130   */\n      swap1\n      pop\n        /* \"#utility.yul\":4995:5137   */\n      swap2\n      swap1\n      pop\n      jump\t// out\n        /* \"#utility.yul\":5143:5267   */\n    tag_92:\n        /* \"#utility.yul\":5220:5226   */\n      0x00\n        /* \"#utility.yul\":5254:5259   */\n      dup2\n        /* \"#utility.yul\":5248:5260   */\n      mload\n        /* \"#utility.yul\":5238:5260   */\n      swap1\n      pop\n        /* \"#utility.yul\":5143:5267   */\n      swap2\n      swap1\n      pop\n      jump\t// out\n        /* \"#utility.yul\":5273:5372   */\n    tag_105:\n        /* \"#utility.yul\":5325:5331   */\n      0x00\n        /* \"#utility.yul\":5359:5364   */\n      dup2\n        /* \"#utility.yul\":5353:5365   */\n      mload\n        /* \"#utility.yul\":5343:5365   */\n      swap1\n      pop\n        /* \"#utility.yul\":5273:5372   */\n      swap2\n      swap1\n      pop\n      jump\t// out\n        /* \"#utility.yul\":5378:5501   */\n    tag_102:\n        /* \"#utility.yul\":5458:5462   */\n      0x00\n        /* \"#utility.yul\":5490:5494   */\n      0x20\n        /* \"#utility.yul\":5485:5488   */\n      dup3\n        /* \"#utility.yul\":5481:5495   */\n      add\n        /* \"#utility.yul\":5473:5495   */\n      swap1\n      pop\n        /* \"#utility.yul\":5378:5501   */\n      swap2\n      swap1\n      pop\n      jump\t// out\n        /* \"#utility.yul\":5507:5701   */\n    tag_94:\n        /* \"#utility.yul\":5616:5627   */\n      0x00\n        /* \"#utility.yul\":5650:5656   */\n      dup3\n        /* \"#utility.yul\":5645:5648   */\n      dup3\n        /* \"#utility.yul\":5638:5657   */\n      mstore\n        /* \"#utility.yul\":5690:5694   */\n      0x20\n        /* \"#utility.yul\":5685:5688   */\n      dup3\n        /* \"#utility.yul\":5681:5695   */\n      add\n        /* \"#utility.yul\":5666:5695   */\n      swap1\n      pop\n        /* \"#utility.yul\":5507:5701   */\n      swap3\n      swap2\n      pop\n      pop\n      jump\t// out\n        /* \"#utility.yul\":5707:5866   */\n    tag_107:\n        /* \"#utility.yul\":5781:5792   */\n      0x00\n        /* \"#utility.yul\":5815:5821   */\n      dup3\n        /* \"#utility.yul\":5810:5813   */\n      dup3\n        /* \"#utility.yul\":5803:5822   */\n      mstore\n        /* \"#utility.yul\":5855:5859   */\n      0x20\n        /* \"#utility.yul\":5850:5853   */\n      dup3\n        /* \"#utility.yul\":5846:5860   */\n      add\n        /* \"#utility.yul\":5831:5860   */\n      swap1\n      pop\n        /* \"#utility.yul\":5707:5866   */\n      swap3\n      swap2\n      pop\n      pop\n      jump\t// out\n        /* \"#utility.yul\":5872:6041   */\n    tag_116:\n        /* \"#utility.yul\":5956:5967   */\n      0x00\n        /* \"#utility.yul\":5990:5996   */\n      dup3\n        /* \"#utility.yul\":5985:5988   */\n      dup3\n        /* \"#utility.yul\":5978:5997   */\n      mstore\n        /* \"#utility.yul\":6030:6034   */\n      0x20\n        /* \"#utility.yul\":6025:6028   */\n      dup3\n        /* \"#utility.yul\":6021:6035   */\n      add\n        /* \"#utility.yul\":6006:6035   */\n      swap1\n      pop\n        /* \"#utility.yul\":5872:6041   */\n      swap3\n      swap2\n      pop\n      pop\n      jump\t// out\n        /* \"#utility.yul\":6047:6124   */\n    tag_141:\n        /* \"#utility.yul\":6084:6091   */\n      0x00\n        /* \"#utility.yul\":6113:6118   */\n      dup2\n        /* \"#utility.yul\":6102:6118   */\n      swap1\n      pop\n        /* \"#utility.yul\":6047:6124   */\n      swap2\n      swap1\n      pop\n      jump\t// out\n        /* \"#utility.yul\":6130:6284   */\n    tag_62:\n        /* \"#utility.yul\":6214:6220   */\n      dup3\n        /* \"#utility.yul\":6209:6212   */\n      dup2\n        /* \"#utility.yul\":6204:6207   */\n      dup4\n        /* \"#utility.yul\":6191:6221   */\n      calldatacopy\n        /* \"#utility.yul\":6276:6277   */\n      0x00\n        /* \"#utility.yul\":6267:6273   */\n      dup4\n        /* \"#utility.yul\":6262:6265   */\n      dup4\n        /* \"#utility.yul\":6258:6274   */\n      add\n        /* \"#utility.yul\":6251:6278   */\n      mstore\n        /* \"#utility.yul\":6130:6284   */\n      pop\n      pop\n      pop\n      jump\t// out\n        /* \"#utility.yul\":6290:6597   */\n    tag_109:\n        /* \"#utility.yul\":6358:6359   */\n      0x00\n        /* \"#utility.yul\":6368:6481   */\n    tag_145:\n        /* \"#utility.yul\":6382:6388   */\n      dup4\n        /* \"#utility.yul\":6379:6380   */\n      dup2\n        /* \"#utility.yul\":6376:6389   */\n      lt\n        /* \"#utility.yul\":6368:6481   */\n      iszero\n      tag_147\n      jumpi\n        /* \"#utility.yul\":6467:6468   */\n      dup1\n        /* \"#utility.yul\":6462:6465   */\n      dup3\n        /* \"#utility.yul\":6458:6469   */\n      add\n        /* \"#utility.yul\":6452:6470   */\n      mload\n        /* \"#utility.yul\":6448:6449   */\n      dup2\n        /* \"#utility.yul\":6443:6446   */\n      dup5\n        /* \"#utility.yul\":6439:6450   */\n      add\n        /* \"#utility.yul\":6432:6471   */\n      mstore\n        /* \"#utility.yul\":6404:6406   */\n      0x20\n        /* \"#utility.yul\":6401:6402   */\n      dup2\n        /* \"#utility.yul\":6397:6407   */\n      add\n        /* \"#utility.yul\":6392:6407   */\n      swap1\n      pop\n        /* \"#utility.yul\":6368:6481   */\n      jump(tag_145)\n    tag_147:\n        /* \"#utility.yul\":6499:6505   */\n      dup4\n        /* \"#utility.yul\":6496:6497   */\n      dup2\n        /* \"#utility.yul\":6493:6506   */\n      gt\n        /* \"#utility.yul\":6490:6591   */\n      iszero\n      tag_148\n      jumpi\n        /* \"#utility.yul\":6579:6580   */\n      0x00\n        /* \"#utility.yul\":6570:6576   */\n      dup5\n        /* \"#utility.yul\":6565:6568   */\n      dup5\n        /* \"#utility.yul\":6561:6577   */\n      add\n        /* \"#utility.yul\":6554:6581   */\n      mstore\n        /* \"#utility.yul\":6490:6591   */\n    tag_148:\n        /* \"#utility.yul\":6339:6597   */\n      pop\n        /* \"#utility.yul\":6290:6597   */\n      pop\n      pop\n      pop\n      jump\t// out\n        /* \"#utility.yul\":6603:6923   */\n    tag_27:\n        /* \"#utility.yul\":6647:6653   */\n      0x00\n        /* \"#utility.yul\":6684:6685   */\n      0x02\n        /* \"#utility.yul\":6678:6682   */\n      dup3\n        /* \"#utility.yul\":6674:6686   */\n      div\n        /* \"#utility.yul\":6664:6686   */\n      swap1\n      pop\n        /* \"#utility.yul\":6731:6732   */\n      0x01\n        /* \"#utility.yul\":6725:6729   */\n      dup3\n        /* \"#utility.yul\":6721:6733   */\n      and\n        /* \"#utility.yul\":6752:6770   */\n      dup1\n        /* \"#utility.yul\":6742:6823   */\n      tag_150\n      jumpi\n        /* \"#utility.yul\":6808:6812   */\n      0x7f\n        /* \"#utility.yul\":6800:6806   */\n      dup3\n        /* \"#utility.yul\":6796:6813   */\n      and\n        /* \"#utility.yul\":6786:6813   */\n      swap2\n      pop\n        /* \"#utility.yul\":6742:6823   */\n    tag_150:\n        /* \"#utility.yul\":6870:6872   */\n      0x20\n        /* \"#utility.yul\":6862:6868   */\n      dup3\n        /* \"#utility.yul\":6859:6873   */\n      lt\n        /* \"#utility.yul\":6839:6857   */\n      dup2\n        /* \"#utility.yul\":6836:6874   */\n      eq\n        /* \"#utility.yul\":6833:6917   */\n      iszero\n      tag_151\n      jumpi\n        /* \"#utility.yul\":6889:6907   */\n      tag_152\n      tag_153\n      jump\t// in\n    tag_152:\n        /* \"#utility.yul\":6833:6917   */\n    tag_151:\n        /* \"#utility.yul\":6654:6923   */\n      pop\n        /* \"#utility.yul\":6603:6923   */\n      swap2\n      swap1\n      pop\n      jump\t// out\n        /* \"#utility.yul\":6929:7210   */\n    tag_127:\n        /* \"#utility.yul\":7012:7039   */\n      tag_155\n        /* \"#utility.yul\":7034:7038   */\n      dup3\n        /* \"#utility.yul\":7012:7039   */\n      tag_111\n      jump\t// in\n    tag_155:\n        /* \"#utility.yul\":7004:7010   */\n      dup2\n        /* \"#utility.yul\":7000:7040   */\n      add\n        /* \"#utility.yul\":7142:7148   */\n      dup2\n        /* \"#utility.yul\":7130:7140   */\n      dup2\n        /* \"#utility.yul\":7127:7149   */\n      lt\n        /* \"#utility.yul\":7106:7124   */\n      0xffffffffffffffff\n        /* \"#utility.yul\":7094:7104   */\n      dup3\n        /* \"#utility.yul\":7091:7125   */\n      gt\n        /* \"#utility.yul\":7088:7150   */\n      or\n        /* \"#utility.yul\":7085:7173   */\n      iszero\n      tag_156\n      jumpi\n        /* \"#utility.yul\":7153:7171   */\n      tag_157\n      tag_132\n      jump\t// in\n    tag_157:\n        /* \"#utility.yul\":7085:7173   */\n    tag_156:\n        /* \"#utility.yul\":7193:7203   */\n      dup1\n        /* \"#utility.yul\":7189:7191   */\n      0x40\n        /* \"#utility.yul\":7182:7204   */\n      mstore\n        /* \"#utility.yul\":6972:7210   */\n      pop\n        /* \"#utility.yul\":6929:7210   */\n      pop\n      pop\n      jump\t// out\n        /* \"#utility.yul\":7216:7396   */\n    tag_153:\n        /* \"#utility.yul\":7264:7341   */\n      0x4e487b7100000000000000000000000000000000000000000000000000000000\n        /* \"#utility.yul\":7261:7262   */\n      0x00\n        /* \"#utility.yul\":7254:7342   */\n      mstore\n        /* \"#utility.yul\":7361:7365   */\n      0x22\n        /* \"#utility.yul\":7358:7359   */\n      0x04\n        /* \"#utility.yul\":7351:7366   */\n      mstore\n        /* \"#utility.yul\":7385:7389   */\n      0x24\n        /* \"#utility.yul\":7382:7383   */\n      0x00\n        /* \"#utility.yul\":7375:7390   */\n      revert\n        /* \"#utility.yul\":7402:7582   */\n    tag_132:\n        /* \"#utility.yul\":7450:7527   */\n      0x4e487b7100000000000000000000000000000000000000000000000000000000\n        /* \"#utility.yul\":7447:7448   */\n      0x00\n        /* \"#utility.yul\":7440:7528   */\n      mstore\n        /* \"#utility.yul\":7547:7551   */\n      0x41\n        /* \"#utility.yul\":7544:7545   */\n      0x04\n        /* \"#utility.yul\":7537:7552   */\n      mstore\n        /* \"#utility.yul\":7571:7575   */\n      0x24\n        /* \"#utility.yul\":7568:7569   */\n      0x00\n        /* \"#utility.yul\":7561:7576   */\n      revert\n        /* \"#utility.yul\":7588:7705   */\n    tag_67:\n        /* \"#utility.yul\":7697:7698   */\n      0x00\n        /* \"#utility.yul\":7694:7695   */\n      dup1\n        /* \"#utility.yul\":7687:7699   */\n      revert\n        /* \"#utility.yul\":7711:7828   */\n    tag_60:\n        /* \"#utility.yul\":7820:7821   */\n      0x00\n        /* \"#utility.yul\":7817:7818   */\n      dup1\n        /* \"#utility.yul\":7810:7822   */\n      revert\n        /* \"#utility.yul\":7834:7951   */\n    tag_79:\n        /* \"#utility.yul\":7943:7944   */\n      0x00\n        /* \"#utility.yul\":7940:7941   */\n      dup1\n        /* \"#utility.yul\":7933:7945   */\n      revert\n        /* \"#utility.yul\":7957:8074   */\n    tag_76:\n        /* \"#utility.yul\":8066:8067   */\n      0x00\n        /* \"#utility.yul\":8063:8064   */\n      dup1\n        /* \"#utility.yul\":8056:8068   */\n      revert\n        /* \"#utility.yul\":8080:8182   */\n    tag_111:\n        /* \"#utility.yul\":8121:8127   */\n      0x00\n        /* \"#utility.yul\":8172:8174   */\n      0x1f\n        /* \"#utility.yul\":8168:8175   */\n      not\n        /* \"#utility.yul\":8163:8165   */\n      0x1f\n        /* \"#utility.yul\":8156:8161   */\n      dup4\n        /* \"#utility.yul\":8152:8166   */\n      add\n        /* \"#utility.yul\":8148:8176   */\n      and\n        /* \"#utility.yul\":8138:8176   */\n      swap1\n      pop\n        /* \"#utility.yul\":8080:8182   */\n      swap2\n      swap1\n      pop\n      jump\t// out\n        /* \"#utility.yul\":8188:8310   */\n    tag_72:\n        /* \"#utility.yul\":8261:8285   */\n      tag_166\n        /* \"#utility.yul\":8279:8284   */\n      dup2\n        /* \"#utility.yul\":8261:8285   */\n      tag_141\n      jump\t// in\n    tag_166:\n        /* \"#utility.yul\":8254:8259   */\n      dup2\n        /* \"#utility.yul\":8251:8286   */\n      eq\n        /* \"#utility.yul\":8241:8304   */\n      tag_167\n      jumpi\n        /* \"#utility.yul\":8300:8301   */\n      0x00\n        /* \"#utility.yul\":8297:8298   */\n      dup1\n        /* \"#utility.yul\":8290:8302   */\n      revert\n        /* \"#utility.yul\":8241:8304   */\n    tag_167:\n        /* \"#utility.yul\":8188:8310   */\n      pop\n      jump\t// out\n\n    auxdata: 0xa26469706673582212209559d6c2fa0303b40c1cfde49700047bcaca5d5131bf1cb6a3643001922d203364736f6c63430008070033\n}\n",
				"bytecode": {
					"linkReferences": {},
					"object": "608060405234801561001057600080fd5b5061078c806100206000396000f3fe608060405234801561001057600080fd5b50600436106100415760003560e01c8063672385621461004657806380c9419e14610062578063eb7e7f1a14610092575b600080fd5b610060600480360381019061005b919061039c565b6100b0565b005b61007c600480360381019061007791906103e5565b6100ef565b604051610089919061052f565b60405180910390f35b61009a61019b565b6040516100a7919061050d565b60405180910390f35b6000819080600181540180825580915050600190039060005260206000200160009091909190915090805190602001906100eb929190610274565b5050565b600081815481106100ff57600080fd5b90600052602060002001600091509050805461011a90610659565b80601f016020809104026020016040519081016040528092919081815260200182805461014690610659565b80156101935780601f1061016857610100808354040283529160200191610193565b820191906000526020600020905b81548152906001019060200180831161017657829003601f168201915b505050505081565b60606000805480602002602001604051908101604052809291908181526020016000905b8282101561026b5783829060005260206000200180546101de90610659565b80601f016020809104026020016040519081016040528092919081815260200182805461020a90610659565b80156102575780601f1061022c57610100808354040283529160200191610257565b820191906000526020600020905b81548152906001019060200180831161023a57829003601f168201915b5050505050815260200190600101906101bf565b50505050905090565b82805461028090610659565b90600052602060002090601f0160209004810192826102a257600085556102e9565b82601f106102bb57805160ff19168380011785556102e9565b828001600101855582156102e9579182015b828111156102e85782518255916020019190600101906102cd565b5b5090506102f691906102fa565b5090565b5b808211156103135760008160009055506001016102fb565b5090565b600061032a61032584610576565b610551565b9050828152602081018484840111156103465761034561071f565b5b610351848285610617565b509392505050565b600082601f83011261036e5761036d61071a565b5b813561037e848260208601610317565b91505092915050565b6000813590506103968161073f565b92915050565b6000602082840312156103b2576103b1610729565b5b600082013567ffffffffffffffff8111156103d0576103cf610724565b5b6103dc84828501610359565b91505092915050565b6000602082840312156103fb576103fa610729565b5b600061040984828501610387565b91505092915050565b600061041e838361049b565b905092915050565b6000610431826105b7565b61043b81856105da565b93508360208202850161044d856105a7565b8060005b85811015610489578484038952815161046a8582610412565b9450610475836105cd565b925060208a01995050600181019050610451565b50829750879550505050505092915050565b60006104a6826105c2565b6104b081856105eb565b93506104c0818560208601610626565b6104c98161072e565b840191505092915050565b60006104df826105c2565b6104e981856105fc565b93506104f9818560208601610626565b6105028161072e565b840191505092915050565b600060208201905081810360008301526105278184610426565b905092915050565b6000602082019050818103600083015261054981846104d4565b905092915050565b600061055b61056c565b9050610567828261068b565b919050565b6000604051905090565b600067ffffffffffffffff821115610591576105906106eb565b5b61059a8261072e565b9050602081019050919050565b6000819050602082019050919050565b600081519050919050565b600081519050919050565b6000602082019050919050565b600082825260208201905092915050565b600082825260208201905092915050565b600082825260208201905092915050565b6000819050919050565b82818337600083830152505050565b60005b83811015610644578082015181840152602081019050610629565b83811115610653576000848401525b50505050565b6000600282049050600182168061067157607f821691505b60208210811415610685576106846106bc565b5b50919050565b6106948261072e565b810181811067ffffffffffffffff821117156106b3576106b26106eb565b5b80604052505050565b7f4e487b7100000000000000000000000000000000000000000000000000000000600052602260045260246000fd5b7f4e487b7100000000000000000000000000000000000000000000000000000000600052604160045260246000fd5b600080fd5b600080fd5b600080fd5b600080fd5b6000601f19601f8301169050919050565b6107488161060d565b811461075357600080fd5b5056fea26469706673582212209559d6c2fa0303b40c1cfde49700047bcaca5d5131bf1cb6a3643001922d203364736f6c63430008070033",
					"opcodes": "PUSH1 0x80 PUSH1 0x40 MSTORE CALLVALUE DUP1 ISZERO PUSH2 0x10 JUMPI PUSH1 0x0 DUP1 REVERT JUMPDEST POP PUSH2 0x78C DUP1 PUSH2 0x20 PUSH1 0x0 CODECOPY PUSH1 0x0 RETURN INVALID PUSH1 0x80 PUSH1 0x40 MSTORE CALLVALUE DUP1 ISZERO PUSH2 0x10 JUMPI PUSH1 0x0 DUP1 REVERT JUMPDEST POP PUSH1 0x4 CALLDATASIZE LT PUSH2 0x41 JUMPI PUSH1 0x0 CALLDATALOAD PUSH1 0xE0 SHR DUP1 PUSH4 0x67238562 EQ PUSH2 0x46 JUMPI DUP1 PUSH4 0x80C9419E EQ PUSH2 0x62 JUMPI DUP1 PUSH4 0xEB7E7F1A EQ PUSH2 0x92 JUMPI JUMPDEST PUSH1 0x0 DUP1 REVERT JUMPDEST PUSH2 0x60 PUSH1 0x4 DUP1 CALLDATASIZE SUB DUP2 ADD SWAP1 PUSH2 0x5B SWAP2 SWAP1 PUSH2 0x39C JUMP JUMPDEST PUSH2 0xB0 JUMP JUMPDEST STOP JUMPDEST PUSH2 0x7C PUSH1 0x4 DUP1 CALLDATASIZE SUB DUP2 ADD SWAP1 PUSH2 0x77 SWAP2 SWAP1 PUSH2 0x3E5 JUMP JUMPDEST PUSH2 0xEF JUMP JUMPDEST PUSH1 0x40 MLOAD PUSH2 0x89 SWAP2 SWAP1 PUSH2 0x52F JUMP JUMPDEST PUSH1 0x40 MLOAD DUP1 SWAP2 SUB SWAP1 RETURN JUMPDEST PUSH2 0x9A PUSH2 0x19B JUMP JUMPDEST PUSH1 0x40 MLOAD PUSH2 0xA7 SWAP2 SWAP1 PUSH2 0x50D JUMP JUMPDEST PUSH1 0x40 MLOAD DUP1 SWAP2 SUB SWAP1 RETURN JUMPDEST PUSH1 0x0 DUP2 SWAP1 DUP1 PUSH1 0x1 DUP2 SLOAD ADD DUP1 DUP3 SSTORE DUP1 SWAP2 POP POP PUSH1 0x1 SWAP1 SUB SWAP1 PUSH1 0x0 MSTORE PUSH1 0x20 PUSH1 0x0 KECCAK256 ADD PUSH1 0x0 SWAP1 SWAP2 SWAP1 SWAP2 SWAP1 SWAP2 POP SWAP1 DUP1 MLOAD SWAP1 PUSH1 0x20 ADD SWAP1 PUSH2 0xEB SWAP3 SWAP2 SWAP1 PUSH2 0x274 JUMP JUMPDEST POP POP JUMP JUMPDEST PUSH1 0x0 DUP2 DUP2 SLOAD DUP2 LT PUSH2 0xFF JUMPI PUSH1 0x0 DUP1 REVERT JUMPDEST SWAP1 PUSH1 0x0 MSTORE PUSH1 0x20 PUSH1 0x0 KECCAK256 ADD PUSH1 0x0 SWAP2 POP SWAP1 POP DUP1 SLOAD PUSH2 0x11A SWAP1 PUSH2 0x659 JUMP JUMPDEST DUP1 PUSH1 0x1F ADD PUSH1 0x20 DUP1 SWAP2 DIV MUL PUSH1 0x20 ADD PUSH1 0x40 MLOAD SWAP1 DUP2 ADD PUSH1 0x40 MSTORE DUP1 SWAP3 SWAP2 SWAP1 DUP2 DUP2 MSTORE PUSH1 0x20 ADD DUP3 DUP1 SLOAD PUSH2 0x146 SWAP1 PUSH2 0x659 JUMP JUMPDEST DUP1 ISZERO PUSH2 0x193 JUMPI DUP1 PUSH1 0x1F LT PUSH2 0x168 JUMPI PUSH2 0x100 DUP1 DUP4 SLOAD DIV MUL DUP4 MSTORE SWAP2 PUSH1 0x20 ADD SWAP2 PUSH2 0x193 JUMP JUMPDEST DUP3 ADD SWAP2 SWAP1 PUSH1 0x0 MSTORE PUSH1 0x20 PUSH1 0x0 KECCAK256 SWAP1 JUMPDEST DUP2 SLOAD DUP2 MSTORE SWAP1 PUSH1 0x1 ADD SWAP1 PUSH1 0x20 ADD DUP1 DUP4 GT PUSH2 0x176 JUMPI DUP3 SWAP1 SUB PUSH1 0x1F AND DUP3 ADD SWAP2 JUMPDEST POP POP POP POP POP DUP2 JUMP JUMPDEST PUSH1 0x60 PUSH1 0x0 DUP1 SLOAD DUP1 PUSH1 0x20 MUL PUSH1 0x20 ADD PUSH1 0x40 MLOAD SWAP1 DUP2 ADD PUSH1 0x40 MSTORE DUP1 SWAP3 SWAP2 SWAP1 DUP2 DUP2 MSTORE PUSH1 0x20 ADD PUSH1 0x0 SWAP1 JUMPDEST DUP3 DUP3 LT ISZERO PUSH2 0x26B JUMPI DUP4 DUP3 SWAP1 PUSH1 0x0 MSTORE PUSH1 0x20 PUSH1 0x0 KECCAK256 ADD DUP1 SLOAD PUSH2 0x1DE SWAP1 PUSH2 0x659 JUMP JUMPDEST DUP1 PUSH1 0x1F ADD PUSH1 0x20 DUP1 SWAP2 DIV MUL PUSH1 0x20 ADD PUSH1 0x40 MLOAD SWAP1 DUP2 ADD PUSH1 0x40 MSTORE DUP1 SWAP3 SWAP2 SWAP1 DUP2 DUP2 MSTORE PUSH1 0x20 ADD DUP3 DUP1 SLOAD PUSH2 0x20A SWAP1 PUSH2 0x659 JUMP JUMPDEST DUP1 ISZERO PUSH2 0x257 JUMPI DUP1 PUSH1 0x1F LT PUSH2 0x22C JUMPI PUSH2 0x100 DUP1 DUP4 SLOAD DIV MUL DUP4 MSTORE SWAP2 PUSH1 0x20 ADD SWAP2 PUSH2 0x257 JUMP JUMPDEST DUP3 ADD SWAP2 SWAP1 PUSH1 0x0 MSTORE PUSH1 0x20 PUSH1 0x0 KECCAK256 SWAP1 JUMPDEST DUP2 SLOAD DUP2 MSTORE SWAP1 PUSH1 0x1 ADD SWAP1 PUSH1 0x20 ADD DUP1 DUP4 GT PUSH2 0x23A JUMPI DUP3 SWAP1 SUB PUSH1 0x1F AND DUP3 ADD SWAP2 JUMPDEST POP POP POP POP POP DUP2 MSTORE PUSH1 0x20 ADD SWAP1 PUSH1 0x1 ADD SWAP1 PUSH2 0x1BF JUMP JUMPDEST POP POP POP POP SWAP1 POP SWAP1 JUMP JUMPDEST DUP3 DUP1 SLOAD PUSH2 0x280 SWAP1 PUSH2 0x659 JUMP JUMPDEST SWAP1 PUSH1 0x0 MSTORE PUSH1 0x20 PUSH1 0x0 KECCAK256 SWAP1 PUSH1 0x1F ADD PUSH1 0x20 SWAP1 DIV DUP2 ADD SWAP3 DUP3 PUSH2 0x2A2 JUMPI PUSH1 0x0 DUP6 SSTORE PUSH2 0x2E9 JUMP JUMPDEST DUP3 PUSH1 0x1F LT PUSH2 0x2BB JUMPI DUP1 MLOAD PUSH1 0xFF NOT AND DUP4 DUP1 ADD OR DUP6 SSTORE PUSH2 0x2E9 JUMP JUMPDEST DUP3 DUP1 ADD PUSH1 0x1 ADD DUP6 SSTORE DUP3 ISZERO PUSH2 0x2E9 JUMPI SWAP2 DUP3 ADD JUMPDEST DUP3 DUP2 GT ISZERO PUSH2 0x2E8 JUMPI DUP3 MLOAD DUP3 SSTORE SWAP2 PUSH1 0x20 ADD SWAP2 SWAP1 PUSH1 0x1 ADD SWAP1 PUSH2 0x2CD JUMP JUMPDEST JUMPDEST POP SWAP1 POP PUSH2 0x2F6 SWAP2 SWAP1 PUSH2 0x2FA JUMP JUMPDEST POP SWAP1 JUMP JUMPDEST JUMPDEST DUP1 DUP3 GT ISZERO PUSH2 0x313 JUMPI PUSH1 0x0 DUP2 PUSH1 0x0 SWAP1 SSTORE POP PUSH1 0x1 ADD PUSH2 0x2FB JUMP JUMPDEST POP SWAP1 JUMP JUMPDEST PUSH1 0x0 PUSH2 0x32A PUSH2 0x325 DUP5 PUSH2 0x576 JUMP JUMPDEST PUSH2 0x551 JUMP JUMPDEST SWAP1 POP DUP3 DUP2 MSTORE PUSH1 0x20 DUP2 ADD DUP5 DUP5 DUP5 ADD GT ISZERO PUSH2 0x346 JUMPI PUSH2 0x345 PUSH2 0x71F JUMP JUMPDEST JUMPDEST PUSH2 0x351 DUP5 DUP3 DUP6 PUSH2 0x617 JUMP JUMPDEST POP SWAP4 SWAP3 POP POP POP JUMP JUMPDEST PUSH1 0x0 DUP3 PUSH1 0x1F DUP4 ADD SLT PUSH2 0x36E JUMPI PUSH2 0x36D PUSH2 0x71A JUMP JUMPDEST JUMPDEST DUP2 CALLDATALOAD PUSH2 0x37E DUP5 DUP3 PUSH1 0x20 DUP7 ADD PUSH2 0x317 JUMP JUMPDEST SWAP2 POP POP SWAP3 SWAP2 POP POP JUMP JUMPDEST PUSH1 0x0 DUP2 CALLDATALOAD SWAP1 POP PUSH2 0x396 DUP2 PUSH2 0x73F JUMP JUMPDEST SWAP3 SWAP2 POP POP JUMP JUMPDEST PUSH1 0x0 PUSH1 0x20 DUP3 DUP5 SUB SLT ISZERO PUSH2 0x3B2 JUMPI PUSH2 0x3B1 PUSH2 0x729 JUMP JUMPDEST JUMPDEST PUSH1 0x0 DUP3 ADD CALLDATALOAD PUSH8 0xFFFFFFFFFFFFFFFF DUP2 GT ISZERO PUSH2 0x3D0 JUMPI PUSH2 0x3CF PUSH2 0x724 JUMP JUMPDEST JUMPDEST PUSH2 0x3DC DUP5 DUP3 DUP6 ADD PUSH2 0x359 JUMP JUMPDEST SWAP2 POP POP SWAP3 SWAP2 POP POP JUMP JUMPDEST PUSH1 0x0 PUSH1 0x20 DUP3 DUP5 SUB SLT ISZERO PUSH2 0x3FB JUMPI PUSH2 0x3FA PUSH2 0x729 JUMP JUMPDEST JUMPDEST PUSH1 0x0 PUSH2 0x409 DUP5 DUP3 DUP6 ADD PUSH2 0x387 JUMP JUMPDEST SWAP2 POP POP SWAP3 SWAP2 POP POP JUMP JUMPDEST PUSH1 0x0 PUSH2 0x41E DUP4 DUP4 PUSH2 0x49B JUMP JUMPDEST SWAP1 POP SWAP3 SWAP2 POP POP JUMP JUMPDEST PUSH1 0x0 PUSH2 0x431 DUP3 PUSH2 0x5B7 JUMP JUMPDEST PUSH2 0x43B DUP2 DUP6 PUSH2 0x5DA JUMP JUMPDEST SWAP4 POP DUP4 PUSH1 0x20 DUP3 MUL DUP6 ADD PUSH2 0x44D DUP6 PUSH2 0x5A7 JUMP JUMPDEST DUP1 PUSH1 0x0 JUMPDEST DUP6 DUP2 LT ISZERO PUSH2 0x489 JUMPI DUP5 DUP5 SUB DUP10 MSTORE DUP2 MLOAD PUSH2 0x46A DUP6 DUP3 PUSH2 0x412 JUMP JUMPDEST SWAP5 POP PUSH2 0x475 DUP4 PUSH2 0x5CD JUMP JUMPDEST SWAP3 POP PUSH1 0x20 DUP11 ADD SWAP10 POP POP PUSH1 0x1 DUP2 ADD SWAP1 POP PUSH2 0x451 JUMP JUMPDEST POP DUP3 SWAP8 POP DUP8 SWAP6 POP POP POP POP POP POP SWAP3 SWAP2 POP POP JUMP JUMPDEST PUSH1 0x0 PUSH2 0x4A6 DUP3 PUSH2 0x5C2 JUMP JUMPDEST PUSH2 0x4B0 DUP2 DUP6 PUSH2 0x5EB JUMP JUMPDEST SWAP4 POP PUSH2 0x4C0 DUP2 DUP6 PUSH1 0x20 DUP7 ADD PUSH2 0x626 JUMP JUMPDEST PUSH2 0x4C9 DUP2 PUSH2 0x72E JUMP JUMPDEST DUP5 ADD SWAP2 POP POP SWAP3 SWAP2 POP POP JUMP JUMPDEST PUSH1 0x0 PUSH2 0x4DF DUP3 PUSH2 0x5C2 JUMP JUMPDEST PUSH2 0x4E9 DUP2 DUP6 PUSH2 0x5FC JUMP JUMPDEST SWAP4 POP PUSH2 0x4F9 DUP2 DUP6 PUSH1 0x20 DUP7 ADD PUSH2 0x626 JUMP JUMPDEST PUSH2 0x502 DUP2 PUSH2 0x72E JUMP JUMPDEST DUP5 ADD SWAP2 POP POP SWAP3 SWAP2 POP POP JUMP JUMPDEST PUSH1 0x0 PUSH1 0x20 DUP3 ADD SWAP1 POP DUP2 DUP2 SUB PUSH1 0x0 DUP4 ADD MSTORE PUSH2 0x527 DUP2 DUP5 PUSH2 0x426 JUMP JUMPDEST SWAP1 POP SWAP3 SWAP2 POP POP JUMP JUMPDEST PUSH1 0x0 PUSH1 0x20 DUP3 ADD SWAP1 POP DUP2 DUP2 SUB PUSH1 0x0 DUP4 ADD MSTORE PUSH2 0x549 DUP2 DUP5 PUSH2 0x4D4 JUMP JUMPDEST SWAP1 POP SWAP3 SWAP2 POP POP JUMP JUMPDEST PUSH1 0x0 PUSH2 0x55B PUSH2 0x56C JUMP JUMPDEST SWAP1 POP PUSH2 0x567 DUP3 DUP3 PUSH2 0x68B JUMP JUMPDEST SWAP2 SWAP1 POP JUMP JUMPDEST PUSH1 0x0 PUSH1 0x40 MLOAD SWAP1 POP SWAP1 JUMP JUMPDEST PUSH1 0x0 PUSH8 0xFFFFFFFFFFFFFFFF DUP3 GT ISZERO PUSH2 0x591 JUMPI PUSH2 0x590 PUSH2 0x6EB JUMP JUMPDEST JUMPDEST PUSH2 0x59A DUP3 PUSH2 0x72E JUMP JUMPDEST SWAP1 POP PUSH1 0x20 DUP2 ADD SWAP1 POP SWAP2 SWAP1 POP JUMP JUMPDEST PUSH1 0x0 DUP2 SWAP1 POP PUSH1 0x20 DUP3 ADD SWAP1 POP SWAP2 SWAP1 POP JUMP JUMPDEST PUSH1 0x0 DUP2 MLOAD SWAP1 POP SWAP2 SWAP1 POP JUMP JUMPDEST PUSH1 0x0 DUP2 MLOAD SWAP1 POP SWAP2 SWAP1 POP JUMP JUMPDEST PUSH1 0x0 PUSH1 0x20 DUP3 ADD SWAP1 POP SWAP2 SWAP1 POP JUMP JUMPDEST PUSH1 0x0 DUP3 DUP3 MSTORE PUSH1 0x20 DUP3 ADD SWAP1 POP SWAP3 SWAP2 POP POP JUMP JUMPDEST PUSH1 0x0 DUP3 DUP3 MSTORE PUSH1 0x20 DUP3 ADD SWAP1 POP SWAP3 SWAP2 POP POP JUMP JUMPDEST PUSH1 0x0 DUP3 DUP3 MSTORE PUSH1 0x20 DUP3 ADD SWAP1 POP SWAP3 SWAP2 POP POP JUMP JUMPDEST PUSH1 0x0 DUP2 SWAP1 POP SWAP2 SWAP1 POP JUMP JUMPDEST DUP3 DUP2 DUP4 CALLDATACOPY PUSH1 0x0 DUP4 DUP4 ADD MSTORE POP POP POP JUMP JUMPDEST PUSH1 0x0 JUMPDEST DUP4 DUP2 LT ISZERO PUSH2 0x644 JUMPI DUP1 DUP3 ADD MLOAD DUP2 DUP5 ADD MSTORE PUSH1 0x20 DUP2 ADD SWAP1 POP PUSH2 0x629 JUMP JUMPDEST DUP4 DUP2 GT ISZERO PUSH2 0x653 JUMPI PUSH1 0x0 DUP5 DUP5 ADD MSTORE JUMPDEST POP POP POP POP JUMP JUMPDEST PUSH1 0x0 PUSH1 0x2 DUP3 DIV SWAP1 POP PUSH1 0x1 DUP3 AND DUP1 PUSH2 0x671 JUMPI PUSH1 0x7F DUP3 AND SWAP2 POP JUMPDEST PUSH1 0x20 DUP3 LT DUP2 EQ ISZERO PUSH2 0x685 JUMPI PUSH2 0x684 PUSH2 0x6BC JUMP JUMPDEST JUMPDEST POP SWAP2 SWAP1 POP JUMP JUMPDEST PUSH2 0x694 DUP3 PUSH2 0x72E JUMP JUMPDEST DUP2 ADD DUP2 DUP2 LT PUSH8 0xFFFFFFFFFFFFFFFF DUP3 GT OR ISZERO PUSH2 0x6B3 JUMPI PUSH2 0x6B2 PUSH2 0x6EB JUMP JUMPDEST JUMPDEST DUP1 PUSH1 0x40 MSTORE POP POP POP JUMP JUMPDEST PUSH32 0x4E487B7100000000000000000000000000000000000000000000000000000000 PUSH1 0x0 MSTORE PUSH1 0x22 PUSH1 0x4 MSTORE PUSH1 0x24 PUSH1 0x0 REVERT JUMPDEST PUSH32 0x4E487B7100000000000000000000000000000000000000000000000000000000 PUSH1 0x0 MSTORE PUSH1 0x41 PUSH1 0x4 MSTORE PUSH1 0x24 PUSH1 0x0 REVERT JUMPDEST PUSH1 0x0 DUP1 REVERT JUMPDEST PUSH1 0x0 DUP1 REVERT JUMPDEST PUSH1 0x0 DUP1 REVERT JUMPDEST PUSH1 0x0 DUP1 REVERT JUMPDEST PUSH1 0x0 PUSH1 0x1F NOT PUSH1 0x1F DUP4 ADD AND SWAP1 POP SWAP2 SWAP1 POP JUMP JUMPDEST PUSH2 0x748 DUP2 PUSH2 0x60D JUMP JUMPDEST DUP2 EQ PUSH2 0x753 JUMPI PUSH1 0x0 DUP1 REVERT JUMPDEST POP JUMP INVALID LOG2 PUSH5 0x6970667358 0x22 SLT KECCAK256 SWAP6 MSIZE 0xD6 0xC2 STATICCALL SUB SUB 0xB4 0xC SHR REVERT 0xE4 SWAP8 STOP DIV PUSH28 0xCACA5D5131BF1CB6A3643001922D203364736F6C6343000807003300 "
				},
				"gasEstimates": {
					"creation": {
						"codeDepositCost": "386400",
						"executionCost": "424",
						"totalCost": "386824"
					},
					"external": {
						"addTask(string)": "infinite",
						"list(uint256)": "infinite",
						"taskList()": "infinite"
					}
				},
				"methodIdentifiers": {
					"addTask(string)": "67238562",
					"list(uint256)": "80c9419e",
					"taskList()": "eb7e7f1a"
				}
			},
			"storageLayout": {
				"storage": [
					{
						"astId": 4,
						"contract": "variable.sol:Variable",
						"label": "list",
						"offset": 0,
						"slot": "0",
						"type": "t_array(t_string_storage)dyn_storage"
					}
				],
				"types": {
					"t_array(t_string_storage)dyn_storage": {
						"base": "t_string_storage",
						"encoding": "dynamic_array",
						"label": "string[]",
						"numberOfBytes": "32"
					},
					"t_string_storage": {
						"encoding": "bytes",
						"label": "string",
						"numberOfBytes": "32"
					}
				}
			},
			"userdoc": {
				"kind": "user",
				"methods": {},
				"version": 1
			}
		}
	}
}