{
	"login.sol": {
		"Login": {
			"abi": [
				{
					"inputs": [],
					"name": "getUserList",
					"outputs": [
						{
							"components": [
								{
									"internalType": "string",
									"name": "name",
									"type": "string"
								},
								{
									"internalType": "string",
									"name": "password",
									"type": "string"
								}
							],
							"internalType": "struct Login.User[]",
							"name": "",
							"type": "tuple[]"
						}
					],
					"stateMutability": "view",
					"type": "function"
				},
				{
					"inputs": [
						{
							"internalType": "string",
							"name": "_name",
							"type": "string"
						},
						{
							"internalType": "string",
							"name": "_password",
							"type": "string"
						}
					],
					"name": "reg",
					"outputs": [],
					"stateMutability": "nonpayable",
					"type": "function"
				}
			],
			"devdoc": {
				"kind": "dev",
				"methods": {},
				"version": 1
			},
			"evm": {
				"assembly": "    /* \"login.sol\":61:407  contract Login {\r... */\n  mstore(0x40, 0x80)\n  callvalue\n  dup1\n  iszero\n  tag_1\n  jumpi\n  0x00\n  dup1\n  revert\ntag_1:\n  pop\n  dataSize(sub_0)\n  dup1\n  dataOffset(sub_0)\n  0x00\n  codecopy\n  0x00\n  return\nstop\n\nsub_0: assembly {\n        /* \"login.sol\":61:407  contract Login {\r... */\n      mstore(0x40, 0x80)\n      callvalue\n      dup1\n      iszero\n      tag_1\n      jumpi\n      0x00\n      dup1\n      revert\n    tag_1:\n      pop\n      jumpi(tag_2, lt(calldatasize, 0x04))\n      shr(0xe0, calldataload(0x00))\n      dup1\n      0x73a4e4c3\n      eq\n      tag_3\n      jumpi\n      dup1\n      0xb8522043\n      eq\n      tag_4\n      jumpi\n    tag_2:\n      0x00\n      dup1\n      revert\n        /* \"login.sol\":183:304  function reg (string memory _name,string memory _password) public {\r... */\n    tag_3:\n      tag_5\n      0x04\n      dup1\n      calldatasize\n      sub\n      dup2\n      add\n      swap1\n      tag_6\n      swap2\n      swap1\n      tag_7\n      jump\t// in\n    tag_6:\n      tag_8\n      jump\t// in\n    tag_5:\n      stop\n        /* \"login.sol\":312:404  function getUserList() public view returns (User[] memory){\r... */\n    tag_4:\n      tag_9\n      tag_10\n      jump\t// in\n    tag_9:\n      mload(0x40)\n      tag_11\n      swap2\n      swap1\n      tag_12\n      jump\t// in\n    tag_11:\n      mload(0x40)\n      dup1\n      swap2\n      sub\n      swap1\n      return\n        /* \"login.sol\":183:304  function reg (string memory _name,string memory _password) public {\r... */\n    tag_8:\n        /* \"login.sol\":260:268  userList */\n      0x00\n        /* \"login.sol\":274:295  User(_name,_password) */\n      mload(0x40)\n      dup1\n      0x40\n      add\n      0x40\n      mstore\n      dup1\n        /* \"login.sol\":279:284  _name */\n      dup5\n        /* \"login.sol\":274:295  User(_name,_password) */\n      dup2\n      mstore\n      0x20\n      add\n        /* \"login.sol\":285:294  _password */\n      dup4\n        /* \"login.sol\":274:295  User(_name,_password) */\n      dup2\n      mstore\n      pop\n        /* \"login.sol\":260:296  userList.push(User(_name,_password)) */\n      swap1\n      dup1\n      0x01\n      dup2\n      sload\n      add\n      dup1\n      dup3\n      sstore\n      dup1\n      swap2\n      pop\n      pop\n      0x01\n      swap1\n      sub\n      swap1\n      0x00\n      mstore\n      keccak256(0x00, 0x20)\n      swap1\n      0x02\n      mul\n      add\n      0x00\n      swap1\n      swap2\n      swap1\n      swap2\n      swap1\n      swap2\n      pop\n      0x00\n      dup3\n      add\n      mload\n      dup2\n      0x00\n      add\n      swap1\n      dup1\n      mload\n      swap1\n      0x20\n      add\n      swap1\n      tag_15\n      swap3\n      swap2\n      swap1\n      tag_16\n      jump\t// in\n    tag_15:\n      pop\n      0x20\n      dup3\n      add\n      mload\n      dup2\n      0x01\n      add\n      swap1\n      dup1\n      mload\n      swap1\n      0x20\n      add\n      swap1\n      tag_17\n      swap3\n      swap2\n      swap1\n      tag_16\n      jump\t// in\n    tag_17:\n      pop\n      pop\n      pop\n        /* \"login.sol\":183:304  function reg (string memory _name,string memory _password) public {\r... */\n      pop\n      pop\n      jump\t// out\n        /* \"login.sol\":312:404  function getUserList() public view returns (User[] memory){\r... */\n    tag_10:\n        /* \"login.sol\":356:369  User[] memory */\n      0x60\n        /* \"login.sol\":388:396  userList */\n      0x00\n        /* \"login.sol\":381:396  return userList */\n      dup1\n      sload\n      dup1\n      0x20\n      mul\n      0x20\n      add\n      mload(0x40)\n      swap1\n      dup2\n      add\n      0x40\n      mstore\n      dup1\n      swap3\n      swap2\n      swap1\n      dup2\n      dup2\n      mstore\n      0x20\n      add\n      0x00\n      swap1\n    tag_19:\n      dup3\n      dup3\n      lt\n      iszero\n      tag_20\n      jumpi\n      dup4\n      dup3\n      swap1\n      0x00\n      mstore\n      keccak256(0x00, 0x20)\n      swap1\n      0x02\n      mul\n      add\n      mload(0x40)\n      dup1\n      0x40\n      add\n      0x40\n      mstore\n      swap1\n      dup2\n      0x00\n      dup3\n      add\n      dup1\n      sload\n      tag_22\n      swap1\n      tag_23\n      jump\t// in\n    tag_22:\n      dup1\n      0x1f\n      add\n      0x20\n      dup1\n      swap2\n      div\n      mul\n      0x20\n      add\n      mload(0x40)\n      swap1\n      dup2\n      add\n      0x40\n      mstore\n      dup1\n      swap3\n      swap2\n      swap1\n      dup2\n      dup2\n      mstore\n      0x20\n      add\n      dup3\n      dup1\n      sload\n      tag_24\n      swap1\n      tag_23\n      jump\t// in\n    tag_24:\n      dup1\n      iszero\n      tag_25\n      jumpi\n      dup1\n      0x1f\n      lt\n      tag_26\n      jumpi\n      0x0100\n      dup1\n      dup4\n      sload\n      div\n      mul\n      dup4\n      mstore\n      swap2\n      0x20\n      add\n      swap2\n      jump(tag_25)\n    tag_26:\n      dup3\n      add\n      swap2\n      swap1\n      0x00\n      mstore\n      keccak256(0x00, 0x20)\n      swap1\n    tag_27:\n      dup2\n      sload\n      dup2\n      mstore\n      swap1\n      0x01\n      add\n      swap1\n      0x20\n      add\n      dup1\n      dup4\n      gt\n      tag_27\n      jumpi\n      dup3\n      swap1\n      sub\n      0x1f\n      and\n      dup3\n      add\n      swap2\n    tag_25:\n      pop\n      pop\n      pop\n      pop\n      pop\n      dup2\n      mstore\n      0x20\n      add\n      0x01\n      dup3\n      add\n      dup1\n      sload\n      tag_28\n      swap1\n      tag_23\n      jump\t// in\n    tag_28:\n      dup1\n      0x1f\n      add\n      0x20\n      dup1\n      swap2\n      div\n      mul\n      0x20\n      add\n      mload(0x40)\n      swap1\n      dup2\n      add\n      0x40\n      mstore\n      dup1\n      swap3\n      swap2\n      swap1\n      dup2\n      dup2\n      mstore\n      0x20\n      add\n      dup3\n      dup1\n      sload\n      tag_29\n      swap1\n      tag_23\n      jump\t// in\n    tag_29:\n      dup1\n      iszero\n      tag_30\n      jumpi\n      dup1\n      0x1f\n      lt\n      tag_31\n      jumpi\n      0x0100\n      dup1\n      dup4\n      sload\n      div\n      mul\n      dup4\n      mstore\n      swap2\n      0x20\n      add\n      swap2\n      jump(tag_30)\n    tag_31:\n      dup3\n      add\n      swap2\n      swap1\n      0x00\n      mstore\n      keccak256(0x00, 0x20)\n      swap1\n    tag_32:\n      dup2\n      sload\n      dup2\n      mstore\n      swap1\n      0x01\n      add\n      swap1\n      0x20\n      add\n      dup1\n      dup4\n      gt\n      tag_32\n      jumpi\n      dup3\n      swap1\n      sub\n      0x1f\n      and\n      dup3\n      add\n      swap2\n    tag_30:\n      pop\n      pop\n      pop\n      pop\n      pop\n      dup2\n      mstore\n      pop\n      pop\n      dup2\n      mstore\n      0x20\n      add\n      swap1\n      0x01\n      add\n      swap1\n      jump(tag_19)\n    tag_20:\n      pop\n      pop\n      pop\n      pop\n      swap1\n      pop\n        /* \"login.sol\":312:404  function getUserList() public view returns (User[] memory){\r... */\n      swap1\n      jump\t// out\n    tag_16:\n      dup3\n      dup1\n      sload\n      tag_33\n      swap1\n      tag_23\n      jump\t// in\n    tag_33:\n      swap1\n      0x00\n      mstore\n      keccak256(0x00, 0x20)\n      swap1\n      0x1f\n      add\n      0x20\n      swap1\n      div\n      dup2\n      add\n      swap3\n      dup3\n      tag_35\n      jumpi\n      0x00\n      dup6\n      sstore\n      jump(tag_34)\n    tag_35:\n      dup3\n      0x1f\n      lt\n      tag_36\n      jumpi\n      dup1\n      mload\n      not(0xff)\n      and\n      dup4\n      dup1\n      add\n      or\n      dup6\n      sstore\n      jump(tag_34)\n    tag_36:\n      dup3\n      dup1\n      add\n      0x01\n      add\n      dup6\n      sstore\n      dup3\n      iszero\n      tag_34\n      jumpi\n      swap2\n      dup3\n      add\n    tag_37:\n      dup3\n      dup2\n      gt\n      iszero\n      tag_38\n      jumpi\n      dup3\n      mload\n      dup3\n      sstore\n      swap2\n      0x20\n      add\n      swap2\n      swap1\n      0x01\n      add\n      swap1\n      jump(tag_37)\n    tag_38:\n    tag_34:\n      pop\n      swap1\n      pop\n      tag_39\n      swap2\n      swap1\n      tag_40\n      jump\t// in\n    tag_39:\n      pop\n      swap1\n      jump\t// out\n    tag_40:\n    tag_41:\n      dup1\n      dup3\n      gt\n      iszero\n      tag_42\n      jumpi\n      0x00\n      dup2\n      0x00\n      swap1\n      sstore\n      pop\n      0x01\n      add\n      jump(tag_41)\n    tag_42:\n      pop\n      swap1\n      jump\t// out\n        /* \"#utility.yul\":7:419   */\n    tag_44:\n        /* \"#utility.yul\":85:90   */\n      0x00\n        /* \"#utility.yul\":110:176   */\n      tag_46\n        /* \"#utility.yul\":126:175   */\n      tag_47\n        /* \"#utility.yul\":168:174   */\n      dup5\n        /* \"#utility.yul\":126:175   */\n      tag_48\n      jump\t// in\n    tag_47:\n        /* \"#utility.yul\":110:176   */\n      tag_49\n      jump\t// in\n    tag_46:\n        /* \"#utility.yul\":101:176   */\n      swap1\n      pop\n        /* \"#utility.yul\":199:205   */\n      dup3\n        /* \"#utility.yul\":192:197   */\n      dup2\n        /* \"#utility.yul\":185:206   */\n      mstore\n        /* \"#utility.yul\":237:241   */\n      0x20\n        /* \"#utility.yul\":230:235   */\n      dup2\n        /* \"#utility.yul\":226:242   */\n      add\n        /* \"#utility.yul\":275:278   */\n      dup5\n        /* \"#utility.yul\":266:272   */\n      dup5\n        /* \"#utility.yul\":261:264   */\n      dup5\n        /* \"#utility.yul\":257:273   */\n      add\n        /* \"#utility.yul\":254:279   */\n      gt\n        /* \"#utility.yul\":251:363   */\n      iszero\n      tag_50\n      jumpi\n        /* \"#utility.yul\":282:361   */\n      tag_51\n      tag_52\n      jump\t// in\n    tag_51:\n        /* \"#utility.yul\":251:363   */\n    tag_50:\n        /* \"#utility.yul\":372:413   */\n      tag_53\n        /* \"#utility.yul\":406:412   */\n      dup5\n        /* \"#utility.yul\":401:404   */\n      dup3\n        /* \"#utility.yul\":396:399   */\n      dup6\n        /* \"#utility.yul\":372:413   */\n      tag_54\n      jump\t// in\n    tag_53:\n        /* \"#utility.yul\":91:419   */\n      pop\n        /* \"#utility.yul\":7:419   */\n      swap4\n      swap3\n      pop\n      pop\n      pop\n      jump\t// out\n        /* \"#utility.yul\":439:779   */\n    tag_55:\n        /* \"#utility.yul\":495:500   */\n      0x00\n        /* \"#utility.yul\":544:547   */\n      dup3\n        /* \"#utility.yul\":537:541   */\n      0x1f\n        /* \"#utility.yul\":529:535   */\n      dup4\n        /* \"#utility.yul\":525:542   */\n      add\n        /* \"#utility.yul\":521:548   */\n      slt\n        /* \"#utility.yul\":511:633   */\n      tag_57\n      jumpi\n        /* \"#utility.yul\":552:631   */\n      tag_58\n      tag_59\n      jump\t// in\n    tag_58:\n        /* \"#utility.yul\":511:633   */\n    tag_57:\n        /* \"#utility.yul\":669:675   */\n      dup2\n        /* \"#utility.yul\":656:676   */\n      calldataload\n        /* \"#utility.yul\":694:773   */\n      tag_60\n        /* \"#utility.yul\":769:772   */\n      dup5\n        /* \"#utility.yul\":761:767   */\n      dup3\n        /* \"#utility.yul\":754:758   */\n      0x20\n        /* \"#utility.yul\":746:752   */\n      dup7\n        /* \"#utility.yul\":742:759   */\n      add\n        /* \"#utility.yul\":694:773   */\n      tag_44\n      jump\t// in\n    tag_60:\n        /* \"#utility.yul\":685:773   */\n      swap2\n      pop\n        /* \"#utility.yul\":501:779   */\n      pop\n        /* \"#utility.yul\":439:779   */\n      swap3\n      swap2\n      pop\n      pop\n      jump\t// out\n        /* \"#utility.yul\":785:1619   */\n    tag_7:\n        /* \"#utility.yul\":873:879   */\n      0x00\n        /* \"#utility.yul\":881:887   */\n      dup1\n        /* \"#utility.yul\":930:932   */\n      0x40\n        /* \"#utility.yul\":918:927   */\n      dup4\n        /* \"#utility.yul\":909:916   */\n      dup6\n        /* \"#utility.yul\":905:928   */\n      sub\n        /* \"#utility.yul\":901:933   */\n      slt\n        /* \"#utility.yul\":898:1017   */\n      iszero\n      tag_62\n      jumpi\n        /* \"#utility.yul\":936:1015   */\n      tag_63\n      tag_64\n      jump\t// in\n    tag_63:\n        /* \"#utility.yul\":898:1017   */\n    tag_62:\n        /* \"#utility.yul\":1084:1085   */\n      0x00\n        /* \"#utility.yul\":1073:1082   */\n      dup4\n        /* \"#utility.yul\":1069:1086   */\n      add\n        /* \"#utility.yul\":1056:1087   */\n      calldataload\n        /* \"#utility.yul\":1114:1132   */\n      0xffffffffffffffff\n        /* \"#utility.yul\":1106:1112   */\n      dup2\n        /* \"#utility.yul\":1103:1133   */\n      gt\n        /* \"#utility.yul\":1100:1217   */\n      iszero\n      tag_65\n      jumpi\n        /* \"#utility.yul\":1136:1215   */\n      tag_66\n      tag_67\n      jump\t// in\n    tag_66:\n        /* \"#utility.yul\":1100:1217   */\n    tag_65:\n        /* \"#utility.yul\":1241:1304   */\n      tag_68\n        /* \"#utility.yul\":1296:1303   */\n      dup6\n        /* \"#utility.yul\":1287:1293   */\n      dup3\n        /* \"#utility.yul\":1276:1285   */\n      dup7\n        /* \"#utility.yul\":1272:1294   */\n      add\n        /* \"#utility.yul\":1241:1304   */\n      tag_55\n      jump\t// in\n    tag_68:\n        /* \"#utility.yul\":1231:1304   */\n      swap3\n      pop\n        /* \"#utility.yul\":1027:1314   */\n      pop\n        /* \"#utility.yul\":1381:1383   */\n      0x20\n        /* \"#utility.yul\":1370:1379   */\n      dup4\n        /* \"#utility.yul\":1366:1384   */\n      add\n        /* \"#utility.yul\":1353:1385   */\n      calldataload\n        /* \"#utility.yul\":1412:1430   */\n      0xffffffffffffffff\n        /* \"#utility.yul\":1404:1410   */\n      dup2\n        /* \"#utility.yul\":1401:1431   */\n      gt\n        /* \"#utility.yul\":1398:1515   */\n      iszero\n      tag_69\n      jumpi\n        /* \"#utility.yul\":1434:1513   */\n      tag_70\n      tag_67\n      jump\t// in\n    tag_70:\n        /* \"#utility.yul\":1398:1515   */\n    tag_69:\n        /* \"#utility.yul\":1539:1602   */\n      tag_71\n        /* \"#utility.yul\":1594:1601   */\n      dup6\n        /* \"#utility.yul\":1585:1591   */\n      dup3\n        /* \"#utility.yul\":1574:1583   */\n      dup7\n        /* \"#utility.yul\":1570:1592   */\n      add\n        /* \"#utility.yul\":1539:1602   */\n      tag_55\n      jump\t// in\n    tag_71:\n        /* \"#utility.yul\":1529:1602   */\n      swap2\n      pop\n        /* \"#utility.yul\":1324:1612   */\n      pop\n        /* \"#utility.yul\":785:1619   */\n      swap3\n      pop\n      swap3\n      swap1\n      pop\n      jump\t// out\n        /* \"#utility.yul\":1625:1857   */\n    tag_72:\n        /* \"#utility.yul\":1732:1742   */\n      0x00\n        /* \"#utility.yul\":1767:1851   */\n      tag_74\n        /* \"#utility.yul\":1847:1850   */\n      dup4\n        /* \"#utility.yul\":1839:1845   */\n      dup4\n        /* \"#utility.yul\":1767:1851   */\n      tag_75\n      jump\t// in\n    tag_74:\n        /* \"#utility.yul\":1753:1851   */\n      swap1\n      pop\n        /* \"#utility.yul\":1625:1857   */\n      swap3\n      swap2\n      pop\n      pop\n      jump\t// out\n        /* \"#utility.yul\":1913:2976   */\n    tag_76:\n        /* \"#utility.yul\":2070:2073   */\n      0x00\n        /* \"#utility.yul\":2099:2172   */\n      tag_78\n        /* \"#utility.yul\":2166:2171   */\n      dup3\n        /* \"#utility.yul\":2099:2172   */\n      tag_79\n      jump\t// in\n    tag_78:\n        /* \"#utility.yul\":2188:2293   */\n      tag_80\n        /* \"#utility.yul\":2286:2292   */\n      dup2\n        /* \"#utility.yul\":2281:2284   */\n      dup6\n        /* \"#utility.yul\":2188:2293   */\n      tag_81\n      jump\t// in\n    tag_80:\n        /* \"#utility.yul\":2181:2293   */\n      swap4\n      pop\n        /* \"#utility.yul\":2319:2322   */\n      dup4\n        /* \"#utility.yul\":2364:2368   */\n      0x20\n        /* \"#utility.yul\":2356:2362   */\n      dup3\n        /* \"#utility.yul\":2352:2369   */\n      mul\n        /* \"#utility.yul\":2347:2350   */\n      dup6\n        /* \"#utility.yul\":2343:2370   */\n      add\n        /* \"#utility.yul\":2394:2469   */\n      tag_82\n        /* \"#utility.yul\":2463:2468   */\n      dup6\n        /* \"#utility.yul\":2394:2469   */\n      tag_83\n      jump\t// in\n    tag_82:\n        /* \"#utility.yul\":2492:2499   */\n      dup1\n        /* \"#utility.yul\":2523:2524   */\n      0x00\n        /* \"#utility.yul\":2508:2931   */\n    tag_84:\n        /* \"#utility.yul\":2533:2539   */\n      dup6\n        /* \"#utility.yul\":2530:2531   */\n      dup2\n        /* \"#utility.yul\":2527:2540   */\n      lt\n        /* \"#utility.yul\":2508:2931   */\n      iszero\n      tag_86\n      jumpi\n        /* \"#utility.yul\":2604:2613   */\n      dup5\n        /* \"#utility.yul\":2598:2602   */\n      dup5\n        /* \"#utility.yul\":2594:2614   */\n      sub\n        /* \"#utility.yul\":2589:2592   */\n      dup10\n        /* \"#utility.yul\":2582:2615   */\n      mstore\n        /* \"#utility.yul\":2655:2661   */\n      dup2\n        /* \"#utility.yul\":2649:2662   */\n      mload\n        /* \"#utility.yul\":2683:2785   */\n      tag_87\n        /* \"#utility.yul\":2780:2784   */\n      dup6\n        /* \"#utility.yul\":2765:2778   */\n      dup3\n        /* \"#utility.yul\":2683:2785   */\n      tag_72\n      jump\t// in\n    tag_87:\n        /* \"#utility.yul\":2675:2785   */\n      swap5\n      pop\n        /* \"#utility.yul\":2808:2887   */\n      tag_88\n        /* \"#utility.yul\":2880:2886   */\n      dup4\n        /* \"#utility.yul\":2808:2887   */\n      tag_89\n      jump\t// in\n    tag_88:\n        /* \"#utility.yul\":2798:2887   */\n      swap3\n      pop\n        /* \"#utility.yul\":2916:2920   */\n      0x20\n        /* \"#utility.yul\":2911:2914   */\n      dup11\n        /* \"#utility.yul\":2907:2921   */\n      add\n        /* \"#utility.yul\":2900:2921   */\n      swap10\n      pop\n        /* \"#utility.yul\":2568:2931   */\n      pop\n        /* \"#utility.yul\":2555:2556   */\n      0x01\n        /* \"#utility.yul\":2552:2553   */\n      dup2\n        /* \"#utility.yul\":2548:2557   */\n      add\n        /* \"#utility.yul\":2543:2557   */\n      swap1\n      pop\n        /* \"#utility.yul\":2508:2931   */\n      jump(tag_84)\n    tag_86:\n        /* \"#utility.yul\":2512:2526   */\n      pop\n        /* \"#utility.yul\":2947:2951   */\n      dup3\n        /* \"#utility.yul\":2940:2951   */\n      swap8\n      pop\n        /* \"#utility.yul\":2967:2970   */\n      dup8\n        /* \"#utility.yul\":2960:2970   */\n      swap6\n      pop\n        /* \"#utility.yul\":2075:2976   */\n      pop\n      pop\n      pop\n      pop\n      pop\n        /* \"#utility.yul\":1913:2976   */\n      swap3\n      swap2\n      pop\n      pop\n      jump\t// out\n        /* \"#utility.yul\":2982:3326   */\n    tag_90:\n        /* \"#utility.yul\":3060:3063   */\n      0x00\n        /* \"#utility.yul\":3088:3127   */\n      tag_92\n        /* \"#utility.yul\":3121:3126   */\n      dup3\n        /* \"#utility.yul\":3088:3127   */\n      tag_93\n      jump\t// in\n    tag_92:\n        /* \"#utility.yul\":3143:3204   */\n      tag_94\n        /* \"#utility.yul\":3197:3203   */\n      dup2\n        /* \"#utility.yul\":3192:3195   */\n      dup6\n        /* \"#utility.yul\":3143:3204   */\n      tag_95\n      jump\t// in\n    tag_94:\n        /* \"#utility.yul\":3136:3204   */\n      swap4\n      pop\n        /* \"#utility.yul\":3213:3265   */\n      tag_96\n        /* \"#utility.yul\":3258:3264   */\n      dup2\n        /* \"#utility.yul\":3253:3256   */\n      dup6\n        /* \"#utility.yul\":3246:3250   */\n      0x20\n        /* \"#utility.yul\":3239:3244   */\n      dup7\n        /* \"#utility.yul\":3235:3251   */\n      add\n        /* \"#utility.yul\":3213:3265   */\n      tag_97\n      jump\t// in\n    tag_96:\n        /* \"#utility.yul\":3290:3319   */\n      tag_98\n        /* \"#utility.yul\":3312:3318   */\n      dup2\n        /* \"#utility.yul\":3290:3319   */\n      tag_99\n      jump\t// in\n    tag_98:\n        /* \"#utility.yul\":3285:3288   */\n      dup5\n        /* \"#utility.yul\":3281:3320   */\n      add\n        /* \"#utility.yul\":3274:3320   */\n      swap2\n      pop\n        /* \"#utility.yul\":3064:3326   */\n      pop\n        /* \"#utility.yul\":2982:3326   */\n      swap3\n      swap2\n      pop\n      pop\n      jump\t// out\n        /* \"#utility.yul\":3378:4037   */\n    tag_75:\n        /* \"#utility.yul\":3475:3478   */\n      0x00\n        /* \"#utility.yul\":3511:3515   */\n      0x40\n        /* \"#utility.yul\":3506:3509   */\n      dup4\n        /* \"#utility.yul\":3502:3516   */\n      add\n        /* \"#utility.yul\":3598:3602   */\n      0x00\n        /* \"#utility.yul\":3591:3596   */\n      dup4\n        /* \"#utility.yul\":3587:3603   */\n      add\n        /* \"#utility.yul\":3581:3604   */\n      mload\n        /* \"#utility.yul\":3651:3654   */\n      dup5\n        /* \"#utility.yul\":3645:3649   */\n      dup3\n        /* \"#utility.yul\":3641:3655   */\n      sub\n        /* \"#utility.yul\":3634:3638   */\n      0x00\n        /* \"#utility.yul\":3629:3632   */\n      dup7\n        /* \"#utility.yul\":3625:3639   */\n      add\n        /* \"#utility.yul\":3618:3656   */\n      mstore\n        /* \"#utility.yul\":3677:3750   */\n      tag_101\n        /* \"#utility.yul\":3745:3749   */\n      dup3\n        /* \"#utility.yul\":3731:3743   */\n      dup3\n        /* \"#utility.yul\":3677:3750   */\n      tag_90\n      jump\t// in\n    tag_101:\n        /* \"#utility.yul\":3669:3750   */\n      swap2\n      pop\n        /* \"#utility.yul\":3526:3761   */\n      pop\n        /* \"#utility.yul\":3847:3851   */\n      0x20\n        /* \"#utility.yul\":3840:3845   */\n      dup4\n        /* \"#utility.yul\":3836:3852   */\n      add\n        /* \"#utility.yul\":3830:3853   */\n      mload\n        /* \"#utility.yul\":3900:3903   */\n      dup5\n        /* \"#utility.yul\":3894:3898   */\n      dup3\n        /* \"#utility.yul\":3890:3904   */\n      sub\n        /* \"#utility.yul\":3883:3887   */\n      0x20\n        /* \"#utility.yul\":3878:3881   */\n      dup7\n        /* \"#utility.yul\":3874:3888   */\n      add\n        /* \"#utility.yul\":3867:3905   */\n      mstore\n        /* \"#utility.yul\":3926:3999   */\n      tag_102\n        /* \"#utility.yul\":3994:3998   */\n      dup3\n        /* \"#utility.yul\":3980:3992   */\n      dup3\n        /* \"#utility.yul\":3926:3999   */\n      tag_90\n      jump\t// in\n    tag_102:\n        /* \"#utility.yul\":3918:3999   */\n      swap2\n      pop\n        /* \"#utility.yul\":3771:4010   */\n      pop\n        /* \"#utility.yul\":4027:4031   */\n      dup1\n        /* \"#utility.yul\":4020:4031   */\n      swap2\n      pop\n        /* \"#utility.yul\":3480:4037   */\n      pop\n        /* \"#utility.yul\":3378:4037   */\n      swap3\n      swap2\n      pop\n      pop\n      jump\t// out\n        /* \"#utility.yul\":4043:4492   */\n    tag_12:\n        /* \"#utility.yul\":4224:4228   */\n      0x00\n        /* \"#utility.yul\":4262:4264   */\n      0x20\n        /* \"#utility.yul\":4251:4260   */\n      dup3\n        /* \"#utility.yul\":4247:4265   */\n      add\n        /* \"#utility.yul\":4239:4265   */\n      swap1\n      pop\n        /* \"#utility.yul\":4311:4320   */\n      dup2\n        /* \"#utility.yul\":4305:4309   */\n      dup2\n        /* \"#utility.yul\":4301:4321   */\n      sub\n        /* \"#utility.yul\":4297:4298   */\n      0x00\n        /* \"#utility.yul\":4286:4295   */\n      dup4\n        /* \"#utility.yul\":4282:4299   */\n      add\n        /* \"#utility.yul\":4275:4322   */\n      mstore\n        /* \"#utility.yul\":4339:4485   */\n      tag_104\n        /* \"#utility.yul\":4480:4484   */\n      dup2\n        /* \"#utility.yul\":4471:4477   */\n      dup5\n        /* \"#utility.yul\":4339:4485   */\n      tag_76\n      jump\t// in\n    tag_104:\n        /* \"#utility.yul\":4331:4485   */\n      swap1\n      pop\n        /* \"#utility.yul\":4043:4492   */\n      swap3\n      swap2\n      pop\n      pop\n      jump\t// out\n        /* \"#utility.yul\":4498:4627   */\n    tag_49:\n        /* \"#utility.yul\":4532:4538   */\n      0x00\n        /* \"#utility.yul\":4559:4579   */\n      tag_106\n      tag_107\n      jump\t// in\n    tag_106:\n        /* \"#utility.yul\":4549:4579   */\n      swap1\n      pop\n        /* \"#utility.yul\":4588:4621   */\n      tag_108\n        /* \"#utility.yul\":4616:4620   */\n      dup3\n        /* \"#utility.yul\":4608:4614   */\n      dup3\n        /* \"#utility.yul\":4588:4621   */\n      tag_109\n      jump\t// in\n    tag_108:\n        /* \"#utility.yul\":4498:4627   */\n      swap2\n      swap1\n      pop\n      jump\t// out\n        /* \"#utility.yul\":4633:4708   */\n    tag_107:\n        /* \"#utility.yul\":4666:4672   */\n      0x00\n        /* \"#utility.yul\":4699:4701   */\n      0x40\n        /* \"#utility.yul\":4693:4702   */\n      mload\n        /* \"#utility.yul\":4683:4702   */\n      swap1\n      pop\n        /* \"#utility.yul\":4633:4708   */\n      swap1\n      jump\t// out\n        /* \"#utility.yul\":4714:5022   */\n    tag_48:\n        /* \"#utility.yul\":4776:4780   */\n      0x00\n        /* \"#utility.yul\":4866:4884   */\n      0xffffffffffffffff\n        /* \"#utility.yul\":4858:4864   */\n      dup3\n        /* \"#utility.yul\":4855:4885   */\n      gt\n        /* \"#utility.yul\":4852:4908   */\n      iszero\n      tag_112\n      jumpi\n        /* \"#utility.yul\":4888:4906   */\n      tag_113\n      tag_114\n      jump\t// in\n    tag_113:\n        /* \"#utility.yul\":4852:4908   */\n    tag_112:\n        /* \"#utility.yul\":4926:4955   */\n      tag_115\n        /* \"#utility.yul\":4948:4954   */\n      dup3\n        /* \"#utility.yul\":4926:4955   */\n      tag_99\n      jump\t// in\n    tag_115:\n        /* \"#utility.yul\":4918:4955   */\n      swap1\n      pop\n        /* \"#utility.yul\":5010:5014   */\n      0x20\n        /* \"#utility.yul\":5004:5008   */\n      dup2\n        /* \"#utility.yul\":5000:5015   */\n      add\n        /* \"#utility.yul\":4992:5015   */\n      swap1\n      pop\n        /* \"#utility.yul\":4714:5022   */\n      swap2\n      swap1\n      pop\n      jump\t// out\n        /* \"#utility.yul\":5028:5179   */\n    tag_83:\n        /* \"#utility.yul\":5114:5118   */\n      0x00\n        /* \"#utility.yul\":5137:5140   */\n      dup2\n        /* \"#utility.yul\":5129:5140   */\n      swap1\n      pop\n        /* \"#utility.yul\":5167:5171   */\n      0x20\n        /* \"#utility.yul\":5162:5165   */\n      dup3\n        /* \"#utility.yul\":5158:5172   */\n      add\n        /* \"#utility.yul\":5150:5172   */\n      swap1\n      pop\n        /* \"#utility.yul\":5028:5179   */\n      swap2\n      swap1\n      pop\n      jump\t// out\n        /* \"#utility.yul\":5185:5318   */\n    tag_79:\n        /* \"#utility.yul\":5271:5277   */\n      0x00\n        /* \"#utility.yul\":5305:5310   */\n      dup2\n        /* \"#utility.yul\":5299:5311   */\n      mload\n        /* \"#utility.yul\":5289:5311   */\n      swap1\n      pop\n        /* \"#utility.yul\":5185:5318   */\n      swap2\n      swap1\n      pop\n      jump\t// out\n        /* \"#utility.yul\":5324:5423   */\n    tag_93:\n        /* \"#utility.yul\":5376:5382   */\n      0x00\n        /* \"#utility.yul\":5410:5415   */\n      dup2\n        /* \"#utility.yul\":5404:5416   */\n      mload\n        /* \"#utility.yul\":5394:5416   */\n      swap1\n      pop\n        /* \"#utility.yul\":5324:5423   */\n      swap2\n      swap1\n      pop\n      jump\t// out\n        /* \"#utility.yul\":5429:5561   */\n    tag_89:\n        /* \"#utility.yul\":5518:5522   */\n      0x00\n        /* \"#utility.yul\":5550:5554   */\n      0x20\n        /* \"#utility.yul\":5545:5548   */\n      dup3\n        /* \"#utility.yul\":5541:5555   */\n      add\n        /* \"#utility.yul\":5533:5555   */\n      swap1\n      pop\n        /* \"#utility.yul\":5429:5561   */\n      swap2\n      swap1\n      pop\n      jump\t// out\n        /* \"#utility.yul\":5567:5770   */\n    tag_81:\n        /* \"#utility.yul\":5685:5696   */\n      0x00\n        /* \"#utility.yul\":5719:5725   */\n      dup3\n        /* \"#utility.yul\":5714:5717   */\n      dup3\n        /* \"#utility.yul\":5707:5726   */\n      mstore\n        /* \"#utility.yul\":5759:5763   */\n      0x20\n        /* \"#utility.yul\":5754:5757   */\n      dup3\n        /* \"#utility.yul\":5750:5764   */\n      add\n        /* \"#utility.yul\":5735:5764   */\n      swap1\n      pop\n        /* \"#utility.yul\":5567:5770   */\n      swap3\n      swap2\n      pop\n      pop\n      jump\t// out\n        /* \"#utility.yul\":5776:5935   */\n    tag_95:\n        /* \"#utility.yul\":5850:5861   */\n      0x00\n        /* \"#utility.yul\":5884:5890   */\n      dup3\n        /* \"#utility.yul\":5879:5882   */\n      dup3\n        /* \"#utility.yul\":5872:5891   */\n      mstore\n        /* \"#utility.yul\":5924:5928   */\n      0x20\n        /* \"#utility.yul\":5919:5922   */\n      dup3\n        /* \"#utility.yul\":5915:5929   */\n      add\n        /* \"#utility.yul\":5900:5929   */\n      swap1\n      pop\n        /* \"#utility.yul\":5776:5935   */\n      swap3\n      swap2\n      pop\n      pop\n      jump\t// out\n        /* \"#utility.yul\":5941:6095   */\n    tag_54:\n        /* \"#utility.yul\":6025:6031   */\n      dup3\n        /* \"#utility.yul\":6020:6023   */\n      dup2\n        /* \"#utility.yul\":6015:6018   */\n      dup4\n        /* \"#utility.yul\":6002:6032   */\n      calldatacopy\n        /* \"#utility.yul\":6087:6088   */\n      0x00\n        /* \"#utility.yul\":6078:6084   */\n      dup4\n        /* \"#utility.yul\":6073:6076   */\n      dup4\n        /* \"#utility.yul\":6069:6085   */\n      add\n        /* \"#utility.yul\":6062:6089   */\n      mstore\n        /* \"#utility.yul\":5941:6095   */\n      pop\n      pop\n      pop\n      jump\t// out\n        /* \"#utility.yul\":6101:6408   */\n    tag_97:\n        /* \"#utility.yul\":6169:6170   */\n      0x00\n        /* \"#utility.yul\":6179:6292   */\n    tag_124:\n        /* \"#utility.yul\":6193:6199   */\n      dup4\n        /* \"#utility.yul\":6190:6191   */\n      dup2\n        /* \"#utility.yul\":6187:6200   */\n      lt\n        /* \"#utility.yul\":6179:6292   */\n      iszero\n      tag_126\n      jumpi\n        /* \"#utility.yul\":6278:6279   */\n      dup1\n        /* \"#utility.yul\":6273:6276   */\n      dup3\n        /* \"#utility.yul\":6269:6280   */\n      add\n        /* \"#utility.yul\":6263:6281   */\n      mload\n        /* \"#utility.yul\":6259:6260   */\n      dup2\n        /* \"#utility.yul\":6254:6257   */\n      dup5\n        /* \"#utility.yul\":6250:6261   */\n      add\n        /* \"#utility.yul\":6243:6282   */\n      mstore\n        /* \"#utility.yul\":6215:6217   */\n      0x20\n        /* \"#utility.yul\":6212:6213   */\n      dup2\n        /* \"#utility.yul\":6208:6218   */\n      add\n        /* \"#utility.yul\":6203:6218   */\n      swap1\n      pop\n        /* \"#utility.yul\":6179:6292   */\n      jump(tag_124)\n    tag_126:\n        /* \"#utility.yul\":6310:6316   */\n      dup4\n        /* \"#utility.yul\":6307:6308   */\n      dup2\n        /* \"#utility.yul\":6304:6317   */\n      gt\n        /* \"#utility.yul\":6301:6402   */\n      iszero\n      tag_127\n      jumpi\n        /* \"#utility.yul\":6390:6391   */\n      0x00\n        /* \"#utility.yul\":6381:6387   */\n      dup5\n        /* \"#utility.yul\":6376:6379   */\n      dup5\n        /* \"#utility.yul\":6372:6388   */\n      add\n        /* \"#utility.yul\":6365:6392   */\n      mstore\n        /* \"#utility.yul\":6301:6402   */\n    tag_127:\n        /* \"#utility.yul\":6150:6408   */\n      pop\n        /* \"#utility.yul\":6101:6408   */\n      pop\n      pop\n      pop\n      jump\t// out\n        /* \"#utility.yul\":6414:6734   */\n    tag_23:\n        /* \"#utility.yul\":6458:6464   */\n      0x00\n        /* \"#utility.yul\":6495:6496   */\n      0x02\n        /* \"#utility.yul\":6489:6493   */\n      dup3\n        /* \"#utility.yul\":6485:6497   */\n      div\n        /* \"#utility.yul\":6475:6497   */\n      swap1\n      pop\n        /* \"#utility.yul\":6542:6543   */\n      0x01\n        /* \"#utility.yul\":6536:6540   */\n      dup3\n        /* \"#utility.yul\":6532:6544   */\n      and\n        /* \"#utility.yul\":6563:6581   */\n      dup1\n        /* \"#utility.yul\":6553:6634   */\n      tag_129\n      jumpi\n        /* \"#utility.yul\":6619:6623   */\n      0x7f\n        /* \"#utility.yul\":6611:6617   */\n      dup3\n        /* \"#utility.yul\":6607:6624   */\n      and\n        /* \"#utility.yul\":6597:6624   */\n      swap2\n      pop\n        /* \"#utility.yul\":6553:6634   */\n    tag_129:\n        /* \"#utility.yul\":6681:6683   */\n      0x20\n        /* \"#utility.yul\":6673:6679   */\n      dup3\n        /* \"#utility.yul\":6670:6684   */\n      lt\n        /* \"#utility.yul\":6650:6668   */\n      dup2\n        /* \"#utility.yul\":6647:6685   */\n      eq\n        /* \"#utility.yul\":6644:6728   */\n      iszero\n      tag_130\n      jumpi\n        /* \"#utility.yul\":6700:6718   */\n      tag_131\n      tag_132\n      jump\t// in\n    tag_131:\n        /* \"#utility.yul\":6644:6728   */\n    tag_130:\n        /* \"#utility.yul\":6465:6734   */\n      pop\n        /* \"#utility.yul\":6414:6734   */\n      swap2\n      swap1\n      pop\n      jump\t// out\n        /* \"#utility.yul\":6740:7021   */\n    tag_109:\n        /* \"#utility.yul\":6823:6850   */\n      tag_134\n        /* \"#utility.yul\":6845:6849   */\n      dup3\n        /* \"#utility.yul\":6823:6850   */\n      tag_99\n      jump\t// in\n    tag_134:\n        /* \"#utility.yul\":6815:6821   */\n      dup2\n        /* \"#utility.yul\":6811:6851   */\n      add\n        /* \"#utility.yul\":6953:6959   */\n      dup2\n        /* \"#utility.yul\":6941:6951   */\n      dup2\n        /* \"#utility.yul\":6938:6960   */\n      lt\n        /* \"#utility.yul\":6917:6935   */\n      0xffffffffffffffff\n        /* \"#utility.yul\":6905:6915   */\n      dup3\n        /* \"#utility.yul\":6902:6936   */\n      gt\n        /* \"#utility.yul\":6899:6961   */\n      or\n        /* \"#utility.yul\":6896:6984   */\n      iszero\n      tag_135\n      jumpi\n        /* \"#utility.yul\":6964:6982   */\n      tag_136\n      tag_114\n      jump\t// in\n    tag_136:\n        /* \"#utility.yul\":6896:6984   */\n    tag_135:\n        /* \"#utility.yul\":7004:7014   */\n      dup1\n        /* \"#utility.yul\":7000:7002   */\n      0x40\n        /* \"#utility.yul\":6993:7015   */\n      mstore\n        /* \"#utility.yul\":6783:7021   */\n      pop\n        /* \"#utility.yul\":6740:7021   */\n      pop\n      pop\n      jump\t// out\n        /* \"#utility.yul\":7027:7207   */\n    tag_132:\n        /* \"#utility.yul\":7075:7152   */\n      0x4e487b7100000000000000000000000000000000000000000000000000000000\n        /* \"#utility.yul\":7072:7073   */\n      0x00\n        /* \"#utility.yul\":7065:7153   */\n      mstore\n        /* \"#utility.yul\":7172:7176   */\n      0x22\n        /* \"#utility.yul\":7169:7170   */\n      0x04\n        /* \"#utility.yul\":7162:7177   */\n      mstore\n        /* \"#utility.yul\":7196:7200   */\n      0x24\n        /* \"#utility.yul\":7193:7194   */\n      0x00\n        /* \"#utility.yul\":7186:7201   */\n      revert\n        /* \"#utility.yul\":7213:7393   */\n    tag_114:\n        /* \"#utility.yul\":7261:7338   */\n      0x4e487b7100000000000000000000000000000000000000000000000000000000\n        /* \"#utility.yul\":7258:7259   */\n      0x00\n        /* \"#utility.yul\":7251:7339   */\n      mstore\n        /* \"#utility.yul\":7358:7362   */\n      0x41\n        /* \"#utility.yul\":7355:7356   */\n      0x04\n        /* \"#utility.yul\":7348:7363   */\n      mstore\n        /* \"#utility.yul\":7382:7386   */\n      0x24\n        /* \"#utility.yul\":7379:7380   */\n      0x00\n        /* \"#utility.yul\":7372:7387   */\n      revert\n        /* \"#utility.yul\":7399:7516   */\n    tag_59:\n        /* \"#utility.yul\":7508:7509   */\n      0x00\n        /* \"#utility.yul\":7505:7506   */\n      dup1\n        /* \"#utility.yul\":7498:7510   */\n      revert\n        /* \"#utility.yul\":7522:7639   */\n    tag_52:\n        /* \"#utility.yul\":7631:7632   */\n      0x00\n        /* \"#utility.yul\":7628:7629   */\n      dup1\n        /* \"#utility.yul\":7621:7633   */\n      revert\n        /* \"#utility.yul\":7645:7762   */\n    tag_67:\n        /* \"#utility.yul\":7754:7755   */\n      0x00\n        /* \"#utility.yul\":7751:7752   */\n      dup1\n        /* \"#utility.yul\":7744:7756   */\n      revert\n        /* \"#utility.yul\":7768:7885   */\n    tag_64:\n        /* \"#utility.yul\":7877:7878   */\n      0x00\n        /* \"#utility.yul\":7874:7875   */\n      dup1\n        /* \"#utility.yul\":7867:7879   */\n      revert\n        /* \"#utility.yul\":7891:7993   */\n    tag_99:\n        /* \"#utility.yul\":7932:7938   */\n      0x00\n        /* \"#utility.yul\":7983:7985   */\n      0x1f\n        /* \"#utility.yul\":7979:7986   */\n      not\n        /* \"#utility.yul\":7974:7976   */\n      0x1f\n        /* \"#utility.yul\":7967:7972   */\n      dup4\n        /* \"#utility.yul\":7963:7977   */\n      add\n        /* \"#utility.yul\":7959:7987   */\n      and\n        /* \"#utility.yul\":7949:7987   */\n      swap1\n      pop\n        /* \"#utility.yul\":7891:7993   */\n      swap2\n      swap1\n      pop\n      jump\t// out\n\n    auxdata: 0xa2646970667358221220fd038367eb69b99c55499d97f46c47fa1403c15401d43e528e78e2356072cdce64736f6c63430008070033\n}\n",
				"bytecode": {
					"linkReferences": {},
					"object": "608060405234801561001057600080fd5b50610734806100206000396000f3fe608060405234801561001057600080fd5b50600436106100365760003560e01c806373a4e4c31461003b578063b852204314610057575b600080fd5b6100556004803603810190610050919061038b565b610075565b005b61005f6100f5565b60405161006c9190610509565b60405180910390f35b6000604051806040016040528084815260200183815250908060018154018082558091505060019003906000526020600020906002020160009091909190915060008201518160000190805190602001906100d1929190610278565b5060208201518160010190805190602001906100ee929190610278565b5050505050565b60606000805480602002602001604051908101604052809291908181526020016000905b8282101561026f578382906000526020600020906002020160405180604001604052908160008201805461014c90610618565b80601f016020809104026020016040519081016040528092919081815260200182805461017890610618565b80156101c55780601f1061019a576101008083540402835291602001916101c5565b820191906000526020600020905b8154815290600101906020018083116101a857829003601f168201915b505050505081526020016001820180546101de90610618565b80601f016020809104026020016040519081016040528092919081815260200182805461020a90610618565b80156102575780601f1061022c57610100808354040283529160200191610257565b820191906000526020600020905b81548152906001019060200180831161023a57829003601f168201915b50505050508152505081526020019060010190610119565b50505050905090565b82805461028490610618565b90600052602060002090601f0160209004810192826102a657600085556102ed565b82601f106102bf57805160ff19168380011785556102ed565b828001600101855582156102ed579182015b828111156102ec5782518255916020019190600101906102d1565b5b5090506102fa91906102fe565b5090565b5b808211156103175760008160009055506001016102ff565b5090565b600061032e61032984610550565b61052b565b90508281526020810184848401111561034a576103496106de565b5b6103558482856105d6565b509392505050565b600082601f830112610372576103716106d9565b5b813561038284826020860161031b565b91505092915050565b600080604083850312156103a2576103a16106e8565b5b600083013567ffffffffffffffff8111156103c0576103bf6106e3565b5b6103cc8582860161035d565b925050602083013567ffffffffffffffff8111156103ed576103ec6106e3565b5b6103f98582860161035d565b9150509250929050565b600061040f83836104c5565b905092915050565b600061042282610591565b61042c81856105b4565b93508360208202850161043e85610581565b8060005b8581101561047a578484038952815161045b8582610403565b9450610466836105a7565b925060208a01995050600181019050610442565b50829750879550505050505092915050565b60006104978261059c565b6104a181856105c5565b93506104b18185602086016105e5565b6104ba816106ed565b840191505092915050565b600060408301600083015184820360008601526104e2828261048c565b915050602083015184820360208601526104fc828261048c565b9150508091505092915050565b600060208201905081810360008301526105238184610417565b905092915050565b6000610535610546565b9050610541828261064a565b919050565b6000604051905090565b600067ffffffffffffffff82111561056b5761056a6106aa565b5b610574826106ed565b9050602081019050919050565b6000819050602082019050919050565b600081519050919050565b600081519050919050565b6000602082019050919050565b600082825260208201905092915050565b600082825260208201905092915050565b82818337600083830152505050565b60005b838110156106035780820151818401526020810190506105e8565b83811115610612576000848401525b50505050565b6000600282049050600182168061063057607f821691505b602082108114156106445761064361067b565b5b50919050565b610653826106ed565b810181811067ffffffffffffffff82111715610672576106716106aa565b5b80604052505050565b7f4e487b7100000000000000000000000000000000000000000000000000000000600052602260045260246000fd5b7f4e487b7100000000000000000000000000000000000000000000000000000000600052604160045260246000fd5b600080fd5b600080fd5b600080fd5b600080fd5b6000601f19601f830116905091905056fea2646970667358221220fd038367eb69b99c55499d97f46c47fa1403c15401d43e528e78e2356072cdce64736f6c63430008070033",
					"opcodes": "PUSH1 0x80 PUSH1 0x40 MSTORE CALLVALUE DUP1 ISZERO PUSH2 0x10 JUMPI PUSH1 0x0 DUP1 REVERT JUMPDEST POP PUSH2 0x734 DUP1 PUSH2 0x20 PUSH1 0x0 CODECOPY PUSH1 0x0 RETURN INVALID PUSH1 0x80 PUSH1 0x40 MSTORE CALLVALUE DUP1 ISZERO PUSH2 0x10 JUMPI PUSH1 0x0 DUP1 REVERT JUMPDEST POP PUSH1 0x4 CALLDATASIZE LT PUSH2 0x36 JUMPI PUSH1 0x0 CALLDATALOAD PUSH1 0xE0 SHR DUP1 PUSH4 0x73A4E4C3 EQ PUSH2 0x3B JUMPI DUP1 PUSH4 0xB8522043 EQ PUSH2 0x57 JUMPI JUMPDEST PUSH1 0x0 DUP1 REVERT JUMPDEST PUSH2 0x55 PUSH1 0x4 DUP1 CALLDATASIZE SUB DUP2 ADD SWAP1 PUSH2 0x50 SWAP2 SWAP1 PUSH2 0x38B JUMP JUMPDEST PUSH2 0x75 JUMP JUMPDEST STOP JUMPDEST PUSH2 0x5F PUSH2 0xF5 JUMP JUMPDEST PUSH1 0x40 MLOAD PUSH2 0x6C SWAP2 SWAP1 PUSH2 0x509 JUMP JUMPDEST PUSH1 0x40 MLOAD DUP1 SWAP2 SUB SWAP1 RETURN JUMPDEST PUSH1 0x0 PUSH1 0x40 MLOAD DUP1 PUSH1 0x40 ADD PUSH1 0x40 MSTORE DUP1 DUP5 DUP2 MSTORE PUSH1 0x20 ADD DUP4 DUP2 MSTORE POP SWAP1 DUP1 PUSH1 0x1 DUP2 SLOAD ADD DUP1 DUP3 SSTORE DUP1 SWAP2 POP POP PUSH1 0x1 SWAP1 SUB SWAP1 PUSH1 0x0 MSTORE PUSH1 0x20 PUSH1 0x0 KECCAK256 SWAP1 PUSH1 0x2 MUL ADD PUSH1 0x0 SWAP1 SWAP2 SWAP1 SWAP2 SWAP1 SWAP2 POP PUSH1 0x0 DUP3 ADD MLOAD DUP2 PUSH1 0x0 ADD SWAP1 DUP1 MLOAD SWAP1 PUSH1 0x20 ADD SWAP1 PUSH2 0xD1 SWAP3 SWAP2 SWAP1 PUSH2 0x278 JUMP JUMPDEST POP PUSH1 0x20 DUP3 ADD MLOAD DUP2 PUSH1 0x1 ADD SWAP1 DUP1 MLOAD SWAP1 PUSH1 0x20 ADD SWAP1 PUSH2 0xEE SWAP3 SWAP2 SWAP1 PUSH2 0x278 JUMP JUMPDEST POP POP POP POP POP JUMP JUMPDEST PUSH1 0x60 PUSH1 0x0 DUP1 SLOAD DUP1 PUSH1 0x20 MUL PUSH1 0x20 ADD PUSH1 0x40 MLOAD SWAP1 DUP2 ADD PUSH1 0x40 MSTORE DUP1 SWAP3 SWAP2 SWAP1 DUP2 DUP2 MSTORE PUSH1 0x20 ADD PUSH1 0x0 SWAP1 JUMPDEST DUP3 DUP3 LT ISZERO PUSH2 0x26F JUMPI DUP4 DUP3 SWAP1 PUSH1 0x0 MSTORE PUSH1 0x20 PUSH1 0x0 KECCAK256 SWAP1 PUSH1 0x2 MUL ADD PUSH1 0x40 MLOAD DUP1 PUSH1 0x40 ADD PUSH1 0x40 MSTORE SWAP1 DUP2 PUSH1 0x0 DUP3 ADD DUP1 SLOAD PUSH2 0x14C SWAP1 PUSH2 0x618 JUMP JUMPDEST DUP1 PUSH1 0x1F ADD PUSH1 0x20 DUP1 SWAP2 DIV MUL PUSH1 0x20 ADD PUSH1 0x40 MLOAD SWAP1 DUP2 ADD PUSH1 0x40 MSTORE DUP1 SWAP3 SWAP2 SWAP1 DUP2 DUP2 MSTORE PUSH1 0x20 ADD DUP3 DUP1 SLOAD PUSH2 0x178 SWAP1 PUSH2 0x618 JUMP JUMPDEST DUP1 ISZERO PUSH2 0x1C5 JUMPI DUP1 PUSH1 0x1F LT PUSH2 0x19A JUMPI PUSH2 0x100 DUP1 DUP4 SLOAD DIV MUL DUP4 MSTORE SWAP2 PUSH1 0x20 ADD SWAP2 PUSH2 0x1C5 JUMP JUMPDEST DUP3 ADD SWAP2 SWAP1 PUSH1 0x0 MSTORE PUSH1 0x20 PUSH1 0x0 KECCAK256 SWAP1 JUMPDEST DUP2 SLOAD DUP2 MSTORE SWAP1 PUSH1 0x1 ADD SWAP1 PUSH1 0x20 ADD DUP1 DUP4 GT PUSH2 0x1A8 JUMPI DUP3 SWAP1 SUB PUSH1 0x1F AND DUP3 ADD SWAP2 JUMPDEST POP POP POP POP POP DUP2 MSTORE PUSH1 0x20 ADD PUSH1 0x1 DUP3 ADD DUP1 SLOAD PUSH2 0x1DE SWAP1 PUSH2 0x618 JUMP JUMPDEST DUP1 PUSH1 0x1F ADD PUSH1 0x20 DUP1 SWAP2 DIV MUL PUSH1 0x20 ADD PUSH1 0x40 MLOAD SWAP1 DUP2 ADD PUSH1 0x40 MSTORE DUP1 SWAP3 SWAP2 SWAP1 DUP2 DUP2 MSTORE PUSH1 0x20 ADD DUP3 DUP1 SLOAD PUSH2 0x20A SWAP1 PUSH2 0x618 JUMP JUMPDEST DUP1 ISZERO PUSH2 0x257 JUMPI DUP1 PUSH1 0x1F LT PUSH2 0x22C JUMPI PUSH2 0x100 DUP1 DUP4 SLOAD DIV MUL DUP4 MSTORE SWAP2 PUSH1 0x20 ADD SWAP2 PUSH2 0x257 JUMP JUMPDEST DUP3 ADD SWAP2 SWAP1 PUSH1 0x0 MSTORE PUSH1 0x20 PUSH1 0x0 KECCAK256 SWAP1 JUMPDEST DUP2 SLOAD DUP2 MSTORE SWAP1 PUSH1 0x1 ADD SWAP1 PUSH1 0x20 ADD DUP1 DUP4 GT PUSH2 0x23A JUMPI DUP3 SWAP1 SUB PUSH1 0x1F AND DUP3 ADD SWAP2 JUMPDEST POP POP POP POP POP DUP2 MSTORE POP POP DUP2 MSTORE PUSH1 0x20 ADD SWAP1 PUSH1 0x1 ADD SWAP1 PUSH2 0x119 JUMP JUMPDEST POP POP POP POP SWAP1 POP SWAP1 JUMP JUMPDEST DUP3 DUP1 SLOAD PUSH2 0x284 SWAP1 PUSH2 0x618 JUMP JUMPDEST SWAP1 PUSH1 0x0 MSTORE PUSH1 0x20 PUSH1 0x0 KECCAK256 SWAP1 PUSH1 0x1F ADD PUSH1 0x20 SWAP1 DIV DUP2 ADD SWAP3 DUP3 PUSH2 0x2A6 JUMPI PUSH1 0x0 DUP6 SSTORE PUSH2 0x2ED JUMP JUMPDEST DUP3 PUSH1 0x1F LT PUSH2 0x2BF JUMPI DUP1 MLOAD PUSH1 0xFF NOT AND DUP4 DUP1 ADD OR DUP6 SSTORE PUSH2 0x2ED JUMP JUMPDEST DUP3 DUP1 ADD PUSH1 0x1 ADD DUP6 SSTORE DUP3 ISZERO PUSH2 0x2ED JUMPI SWAP2 DUP3 ADD JUMPDEST DUP3 DUP2 GT ISZERO PUSH2 0x2EC JUMPI DUP3 MLOAD DUP3 SSTORE SWAP2 PUSH1 0x20 ADD SWAP2 SWAP1 PUSH1 0x1 ADD SWAP1 PUSH2 0x2D1 JUMP JUMPDEST JUMPDEST POP SWAP1 POP PUSH2 0x2FA SWAP2 SWAP1 PUSH2 0x2FE JUMP JUMPDEST POP SWAP1 JUMP JUMPDEST JUMPDEST DUP1 DUP3 GT ISZERO PUSH2 0x317 JUMPI PUSH1 0x0 DUP2 PUSH1 0x0 SWAP1 SSTORE POP PUSH1 0x1 ADD PUSH2 0x2FF JUMP JUMPDEST POP SWAP1 JUMP JUMPDEST PUSH1 0x0 PUSH2 0x32E PUSH2 0x329 DUP5 PUSH2 0x550 JUMP JUMPDEST PUSH2 0x52B JUMP JUMPDEST SWAP1 POP DUP3 DUP2 MSTORE PUSH1 0x20 DUP2 ADD DUP5 DUP5 DUP5 ADD GT ISZERO PUSH2 0x34A JUMPI PUSH2 0x349 PUSH2 0x6DE JUMP JUMPDEST JUMPDEST PUSH2 0x355 DUP5 DUP3 DUP6 PUSH2 0x5D6 JUMP JUMPDEST POP SWAP4 SWAP3 POP POP POP JUMP JUMPDEST PUSH1 0x0 DUP3 PUSH1 0x1F DUP4 ADD SLT PUSH2 0x372 JUMPI PUSH2 0x371 PUSH2 0x6D9 JUMP JUMPDEST JUMPDEST DUP2 CALLDATALOAD PUSH2 0x382 DUP5 DUP3 PUSH1 0x20 DUP7 ADD PUSH2 0x31B JUMP JUMPDEST SWAP2 POP POP SWAP3 SWAP2 POP POP JUMP JUMPDEST PUSH1 0x0 DUP1 PUSH1 0x40 DUP4 DUP6 SUB SLT ISZERO PUSH2 0x3A2 JUMPI PUSH2 0x3A1 PUSH2 0x6E8 JUMP JUMPDEST JUMPDEST PUSH1 0x0 DUP4 ADD CALLDATALOAD PUSH8 0xFFFFFFFFFFFFFFFF DUP2 GT ISZERO PUSH2 0x3C0 JUMPI PUSH2 0x3BF PUSH2 0x6E3 JUMP JUMPDEST JUMPDEST PUSH2 0x3CC DUP6 DUP3 DUP7 ADD PUSH2 0x35D JUMP JUMPDEST SWAP3 POP POP PUSH1 0x20 DUP4 ADD CALLDATALOAD PUSH8 0xFFFFFFFFFFFFFFFF DUP2 GT ISZERO PUSH2 0x3ED JUMPI PUSH2 0x3EC PUSH2 0x6E3 JUMP JUMPDEST JUMPDEST PUSH2 0x3F9 DUP6 DUP3 DUP7 ADD PUSH2 0x35D JUMP JUMPDEST SWAP2 POP POP SWAP3 POP SWAP3 SWAP1 POP JUMP JUMPDEST PUSH1 0x0 PUSH2 0x40F DUP4 DUP4 PUSH2 0x4C5 JUMP JUMPDEST SWAP1 POP SWAP3 SWAP2 POP POP JUMP JUMPDEST PUSH1 0x0 PUSH2 0x422 DUP3 PUSH2 0x591 JUMP JUMPDEST PUSH2 0x42C DUP2 DUP6 PUSH2 0x5B4 JUMP JUMPDEST SWAP4 POP DUP4 PUSH1 0x20 DUP3 MUL DUP6 ADD PUSH2 0x43E DUP6 PUSH2 0x581 JUMP JUMPDEST DUP1 PUSH1 0x0 JUMPDEST DUP6 DUP2 LT ISZERO PUSH2 0x47A JUMPI DUP5 DUP5 SUB DUP10 MSTORE DUP2 MLOAD PUSH2 0x45B DUP6 DUP3 PUSH2 0x403 JUMP JUMPDEST SWAP5 POP PUSH2 0x466 DUP4 PUSH2 0x5A7 JUMP JUMPDEST SWAP3 POP PUSH1 0x20 DUP11 ADD SWAP10 POP POP PUSH1 0x1 DUP2 ADD SWAP1 POP PUSH2 0x442 JUMP JUMPDEST POP DUP3 SWAP8 POP DUP8 SWAP6 POP POP POP POP POP POP SWAP3 SWAP2 POP POP JUMP JUMPDEST PUSH1 0x0 PUSH2 0x497 DUP3 PUSH2 0x59C JUMP JUMPDEST PUSH2 0x4A1 DUP2 DUP6 PUSH2 0x5C5 JUMP JUMPDEST SWAP4 POP PUSH2 0x4B1 DUP2 DUP6 PUSH1 0x20 DUP7 ADD PUSH2 0x5E5 JUMP JUMPDEST PUSH2 0x4BA DUP2 PUSH2 0x6ED JUMP JUMPDEST DUP5 ADD SWAP2 POP POP SWAP3 SWAP2 POP POP JUMP JUMPDEST PUSH1 0x0 PUSH1 0x40 DUP4 ADD PUSH1 0x0 DUP4 ADD MLOAD DUP5 DUP3 SUB PUSH1 0x0 DUP7 ADD MSTORE PUSH2 0x4E2 DUP3 DUP3 PUSH2 0x48C JUMP JUMPDEST SWAP2 POP POP PUSH1 0x20 DUP4 ADD MLOAD DUP5 DUP3 SUB PUSH1 0x20 DUP7 ADD MSTORE PUSH2 0x4FC DUP3 DUP3 PUSH2 0x48C JUMP JUMPDEST SWAP2 POP POP DUP1 SWAP2 POP POP SWAP3 SWAP2 POP POP JUMP JUMPDEST PUSH1 0x0 PUSH1 0x20 DUP3 ADD SWAP1 POP DUP2 DUP2 SUB PUSH1 0x0 DUP4 ADD MSTORE PUSH2 0x523 DUP2 DUP5 PUSH2 0x417 JUMP JUMPDEST SWAP1 POP SWAP3 SWAP2 POP POP JUMP JUMPDEST PUSH1 0x0 PUSH2 0x535 PUSH2 0x546 JUMP JUMPDEST SWAP1 POP PUSH2 0x541 DUP3 DUP3 PUSH2 0x64A JUMP JUMPDEST SWAP2 SWAP1 POP JUMP JUMPDEST PUSH1 0x0 PUSH1 0x40 MLOAD SWAP1 POP SWAP1 JUMP JUMPDEST PUSH1 0x0 PUSH8 0xFFFFFFFFFFFFFFFF DUP3 GT ISZERO PUSH2 0x56B JUMPI PUSH2 0x56A PUSH2 0x6AA JUMP JUMPDEST JUMPDEST PUSH2 0x574 DUP3 PUSH2 0x6ED JUMP JUMPDEST SWAP1 POP PUSH1 0x20 DUP2 ADD SWAP1 POP SWAP2 SWAP1 POP JUMP JUMPDEST PUSH1 0x0 DUP2 SWAP1 POP PUSH1 0x20 DUP3 ADD SWAP1 POP SWAP2 SWAP1 POP JUMP JUMPDEST PUSH1 0x0 DUP2 MLOAD SWAP1 POP SWAP2 SWAP1 POP JUMP JUMPDEST PUSH1 0x0 DUP2 MLOAD SWAP1 POP SWAP2 SWAP1 POP JUMP JUMPDEST PUSH1 0x0 PUSH1 0x20 DUP3 ADD SWAP1 POP SWAP2 SWAP1 POP JUMP JUMPDEST PUSH1 0x0 DUP3 DUP3 MSTORE PUSH1 0x20 DUP3 ADD SWAP1 POP SWAP3 SWAP2 POP POP JUMP JUMPDEST PUSH1 0x0 DUP3 DUP3 MSTORE PUSH1 0x20 DUP3 ADD SWAP1 POP SWAP3 SWAP2 POP POP JUMP JUMPDEST DUP3 DUP2 DUP4 CALLDATACOPY PUSH1 0x0 DUP4 DUP4 ADD MSTORE POP POP POP JUMP JUMPDEST PUSH1 0x0 JUMPDEST DUP4 DUP2 LT ISZERO PUSH2 0x603 JUMPI DUP1 DUP3 ADD MLOAD DUP2 DUP5 ADD MSTORE PUSH1 0x20 DUP2 ADD SWAP1 POP PUSH2 0x5E8 JUMP JUMPDEST DUP4 DUP2 GT ISZERO PUSH2 0x612 JUMPI PUSH1 0x0 DUP5 DUP5 ADD MSTORE JUMPDEST POP POP POP POP JUMP JUMPDEST PUSH1 0x0 PUSH1 0x2 DUP3 DIV SWAP1 POP PUSH1 0x1 DUP3 AND DUP1 PUSH2 0x630 JUMPI PUSH1 0x7F DUP3 AND SWAP2 POP JUMPDEST PUSH1 0x20 DUP3 LT DUP2 EQ ISZERO PUSH2 0x644 JUMPI PUSH2 0x643 PUSH2 0x67B JUMP JUMPDEST JUMPDEST POP SWAP2 SWAP1 POP JUMP JUMPDEST PUSH2 0x653 DUP3 PUSH2 0x6ED JUMP JUMPDEST DUP2 ADD DUP2 DUP2 LT PUSH8 0xFFFFFFFFFFFFFFFF DUP3 GT OR ISZERO PUSH2 0x672 JUMPI PUSH2 0x671 PUSH2 0x6AA JUMP JUMPDEST JUMPDEST DUP1 PUSH1 0x40 MSTORE POP POP POP JUMP JUMPDEST PUSH32 0x4E487B7100000000000000000000000000000000000000000000000000000000 PUSH1 0x0 MSTORE PUSH1 0x22 PUSH1 0x4 MSTORE PUSH1 0x24 PUSH1 0x0 REVERT JUMPDEST PUSH32 0x4E487B7100000000000000000000000000000000000000000000000000000000 PUSH1 0x0 MSTORE PUSH1 0x41 PUSH1 0x4 MSTORE PUSH1 0x24 PUSH1 0x0 REVERT JUMPDEST PUSH1 0x0 DUP1 REVERT JUMPDEST PUSH1 0x0 DUP1 REVERT JUMPDEST PUSH1 0x0 DUP1 REVERT JUMPDEST PUSH1 0x0 DUP1 REVERT JUMPDEST PUSH1 0x0 PUSH1 0x1F NOT PUSH1 0x1F DUP4 ADD AND SWAP1 POP SWAP2 SWAP1 POP JUMP INVALID LOG2 PUSH5 0x6970667358 0x22 SLT KECCAK256 REVERT SUB DUP4 PUSH8 0xEB69B99C55499D97 DELEGATECALL PUSH13 0x47FA1403C15401D43E528E78E2 CALLDATALOAD PUSH1 0x72 0xCD 0xCE PUSH5 0x736F6C6343 STOP ADDMOD SMOD STOP CALLER "
				},
				"gasEstimates": {
					"creation": {
						"codeDepositCost": "368800",
						"executionCost": "405",
						"totalCost": "369205"
					},
					"external": {
						"getUserList()": "infinite",
						"reg(string,string)": "infinite"
					}
				},
				"methodIdentifiers": {
					"getUserList()": "b8522043",
					"reg(string,string)": "73a4e4c3"
				}
			},
			"storageLayout": {
				"storage": [
					{
						"astId": 10,
						"contract": "login.sol:Login",
						"label": "userList",
						"offset": 0,
						"slot": "0",
						"type": "t_array(t_struct(User)6_storage)dyn_storage"
					}
				],
				"types": {
					"t_array(t_struct(User)6_storage)dyn_storage": {
						"base": "t_struct(User)6_storage",
						"encoding": "dynamic_array",
						"label": "struct Login.User[]",
						"numberOfBytes": "32"
					},
					"t_string_storage": {
						"encoding": "bytes",
						"label": "string",
						"numberOfBytes": "32"
					},
					"t_struct(User)6_storage": {
						"encoding": "inplace",
						"label": "struct Login.User",
						"members": [
							{
								"astId": 3,
								"contract": "login.sol:Login",
								"label": "name",
								"offset": 0,
								"slot": "0",
								"type": "t_string_storage"
							},
							{
								"astId": 5,
								"contract": "login.sol:Login",
								"label": "password",
								"offset": 0,
								"slot": "1",
								"type": "t_string_storage"
							}
						],
						"numberOfBytes": "64"
					}
				}
			},
			"userdoc": {
				"kind": "user",
				"methods": {},
				"version": 1
			}
		}
	}
}