{
	"crowdfunding.sol": {
		"CrowdfundingContract": {
			"abi": [
				{
					"inputs": [
						{
							"internalType": "address",
							"name": "_recipient",
							"type": "address"
						},
						{
							"internalType": "string",
							"name": "_expectAmout",
							"type": "string"
						}
					],
					"name": "createCrowdfunding",
					"outputs": [],
					"stateMutability": "nonpayable",
					"type": "function"
				},
				{
					"inputs": [
						{
							"internalType": "uint256",
							"name": "_status",
							"type": "uint256"
						}
					],
					"name": "getCrowdfundingByStatus",
					"outputs": [
						{
							"components": [
								{
									"internalType": "uint256",
									"name": "num",
									"type": "uint256"
								},
								{
									"internalType": "uint256",
									"name": "status",
									"type": "uint256"
								},
								{
									"internalType": "address",
									"name": "creator",
									"type": "address"
								},
								{
									"internalType": "address",
									"name": "recipient",
									"type": "address"
								},
								{
									"internalType": "uint256",
									"name": "joinNum",
									"type": "uint256"
								},
								{
									"internalType": "string",
									"name": "expectAmout",
									"type": "string"
								},
								{
									"internalType": "string",
									"name": "actualAmount",
									"type": "string"
								}
							],
							"internalType": "struct CrowdfundingContract.Crowdfunding[]",
							"name": "",
							"type": "tuple[]"
						}
					],
					"stateMutability": "view",
					"type": "function"
				}
			],
			"devdoc": {
				"kind": "dev",
				"methods": {},
				"version": 1
			},
			"evm": {
				"assembly": "    /* \"crowdfunding.sol\":60:1301  contract CrowdfundingContract {... */\n  mstore(0x40, 0x80)\n  callvalue\n  dup1\n  iszero\n  tag_1\n  jumpi\n  0x00\n  dup1\n  revert\ntag_1:\n  pop\n  dataSize(sub_0)\n  dup1\n  dataOffset(sub_0)\n  0x00\n  codecopy\n  0x00\n  return\nstop\n\nsub_0: assembly {\n        /* \"crowdfunding.sol\":60:1301  contract CrowdfundingContract {... */\n      mstore(0x40, 0x80)\n      callvalue\n      dup1\n      iszero\n      tag_1\n      jumpi\n      0x00\n      dup1\n      revert\n    tag_1:\n      pop\n      jumpi(tag_2, lt(calldatasize, 0x04))\n      shr(0xe0, calldataload(0x00))\n      dup1\n      0x904cc175\n      eq\n      tag_3\n      jumpi\n      dup1\n      0xfd668907\n      eq\n      tag_4\n      jumpi\n    tag_2:\n      0x00\n      dup1\n      revert\n        /* \"crowdfunding.sol\":948:1296  function getCrowdfundingByStatus(uint _status) public view returns (Crowdfunding[] memory){... */\n    tag_3:\n      tag_5\n      0x04\n      dup1\n      calldatasize\n      sub\n      dup2\n      add\n      swap1\n      tag_6\n      swap2\n      swap1\n      tag_7\n      jump\t// in\n    tag_6:\n      tag_8\n      jump\t// in\n    tag_5:\n      mload(0x40)\n      tag_9\n      swap2\n      swap1\n      tag_10\n      jump\t// in\n    tag_9:\n      mload(0x40)\n      dup1\n      swap2\n      sub\n      swap1\n      return\n        /* \"crowdfunding.sol\":567:940  function createCrowdfunding(address _recipient, string memory _expectAmout) public {... */\n    tag_4:\n      tag_11\n      0x04\n      dup1\n      calldatasize\n      sub\n      dup2\n      add\n      swap1\n      tag_12\n      swap2\n      swap1\n      tag_13\n      jump\t// in\n    tag_12:\n      tag_14\n      jump\t// in\n    tag_11:\n      stop\n        /* \"crowdfunding.sol\":948:1296  function getCrowdfundingByStatus(uint _status) public view returns (Crowdfunding[] memory){... */\n    tag_8:\n        /* \"crowdfunding.sol\":1016:1037  Crowdfunding[] memory */\n      0x60\n        /* \"crowdfunding.sol\":1049:1074  Crowdfunding[] memory arr */\n      0x00\n        /* \"crowdfunding.sol\":1096:1100  list */\n      0x01\n        /* \"crowdfunding.sol\":1096:1107  list.length */\n      dup1\n      sload\n      swap1\n      pop\n        /* \"crowdfunding.sol\":1077:1108  new Crowdfunding[](list.length) */\n      0xffffffffffffffff\n      dup2\n      gt\n      iszero\n      tag_16\n      jumpi\n      tag_17\n      tag_18\n      jump\t// in\n    tag_17:\n    tag_16:\n      mload(0x40)\n      swap1\n      dup1\n      dup3\n      mstore\n      dup1\n      0x20\n      mul\n      0x20\n      add\n      dup3\n      add\n      0x40\n      mstore\n      dup1\n      iszero\n      tag_19\n      jumpi\n      dup2\n      0x20\n      add\n    tag_20:\n      tag_21\n      tag_22\n      jump\t// in\n    tag_21:\n      dup2\n      mstore\n      0x20\n      add\n      swap1\n      0x01\n      swap1\n      sub\n      swap1\n      dup2\n      tag_20\n      jumpi\n      swap1\n      pop\n    tag_19:\n      pop\n        /* \"crowdfunding.sol\":1049:1108  Crowdfunding[] memory arr = new Crowdfunding[](list.length) */\n      swap1\n      pop\n        /* \"crowdfunding.sol\":1125:1131  uint i */\n      0x00\n        /* \"crowdfunding.sol\":1121:1266  for(uint i = 0; i < list.length ; i++){... */\n    tag_23:\n        /* \"crowdfunding.sol\":1141:1145  list */\n      0x01\n        /* \"crowdfunding.sol\":1141:1152  list.length */\n      dup1\n      sload\n      swap1\n      pop\n        /* \"crowdfunding.sol\":1137:1138  i */\n      dup2\n        /* \"crowdfunding.sol\":1137:1152  i < list.length */\n      lt\n        /* \"crowdfunding.sol\":1121:1266  for(uint i = 0; i < list.length ; i++){... */\n      iszero\n      tag_24\n      jumpi\n        /* \"crowdfunding.sol\":1195:1202  _status */\n      dup4\n        /* \"crowdfunding.sol\":1177:1181  list */\n      0x01\n        /* \"crowdfunding.sol\":1182:1183  i */\n      dup3\n        /* \"crowdfunding.sol\":1177:1184  list[i] */\n      dup2\n      sload\n      dup2\n      lt\n      tag_26\n      jumpi\n      tag_27\n      tag_28\n      jump\t// in\n    tag_27:\n    tag_26:\n      swap1\n      0x00\n      mstore\n      keccak256(0x00, 0x20)\n      swap1\n      0x07\n      mul\n      add\n        /* \"crowdfunding.sol\":1177:1191  list[i].status */\n      0x01\n      add\n      sload\n        /* \"crowdfunding.sol\":1177:1202  list[i].status == _status */\n      sub\n        /* \"crowdfunding.sol\":1174:1255  if(list[i].status == _status) {... */\n      tag_30\n      jumpi\n        /* \"crowdfunding.sol\":1232:1236  list */\n      0x01\n        /* \"crowdfunding.sol\":1237:1238  i */\n      dup2\n        /* \"crowdfunding.sol\":1232:1239  list[i] */\n      dup2\n      sload\n      dup2\n      lt\n      tag_31\n      jumpi\n      tag_32\n      tag_28\n      jump\t// in\n    tag_32:\n    tag_31:\n      swap1\n      0x00\n      mstore\n      keccak256(0x00, 0x20)\n      swap1\n      0x07\n      mul\n      add\n        /* \"crowdfunding.sol\":1223:1239  arr[i] = list[i] */\n      mload(0x40)\n      dup1\n      0xe0\n      add\n      0x40\n      mstore\n      swap1\n      dup2\n      0x00\n      dup3\n      add\n      sload\n      dup2\n      mstore\n      0x20\n      add\n      0x01\n      dup3\n      add\n      sload\n      dup2\n      mstore\n      0x20\n      add\n      0x02\n      dup3\n      add\n      0x00\n      swap1\n      sload\n      swap1\n      0x0100\n      exp\n      swap1\n      div\n      0xffffffffffffffffffffffffffffffffffffffff\n      and\n      0xffffffffffffffffffffffffffffffffffffffff\n      and\n      0xffffffffffffffffffffffffffffffffffffffff\n      and\n      dup2\n      mstore\n      0x20\n      add\n      0x03\n      dup3\n      add\n      0x00\n      swap1\n      sload\n      swap1\n      0x0100\n      exp\n      swap1\n      div\n      0xffffffffffffffffffffffffffffffffffffffff\n      and\n      0xffffffffffffffffffffffffffffffffffffffff\n      and\n      0xffffffffffffffffffffffffffffffffffffffff\n      and\n      dup2\n      mstore\n      0x20\n      add\n      0x04\n      dup3\n      add\n      sload\n      dup2\n      mstore\n      0x20\n      add\n      0x05\n      dup3\n      add\n      dup1\n      sload\n      tag_34\n      swap1\n      tag_35\n      jump\t// in\n    tag_34:\n      dup1\n      0x1f\n      add\n      0x20\n      dup1\n      swap2\n      div\n      mul\n      0x20\n      add\n      mload(0x40)\n      swap1\n      dup2\n      add\n      0x40\n      mstore\n      dup1\n      swap3\n      swap2\n      swap1\n      dup2\n      dup2\n      mstore\n      0x20\n      add\n      dup3\n      dup1\n      sload\n      tag_36\n      swap1\n      tag_35\n      jump\t// in\n    tag_36:\n      dup1\n      iszero\n      tag_37\n      jumpi\n      dup1\n      0x1f\n      lt\n      tag_38\n      jumpi\n      0x0100\n      dup1\n      dup4\n      sload\n      div\n      mul\n      dup4\n      mstore\n      swap2\n      0x20\n      add\n      swap2\n      jump(tag_37)\n    tag_38:\n      dup3\n      add\n      swap2\n      swap1\n      0x00\n      mstore\n      keccak256(0x00, 0x20)\n      swap1\n    tag_39:\n      dup2\n      sload\n      dup2\n      mstore\n      swap1\n      0x01\n      add\n      swap1\n      0x20\n      add\n      dup1\n      dup4\n      gt\n      tag_39\n      jumpi\n      dup3\n      swap1\n      sub\n      0x1f\n      and\n      dup3\n      add\n      swap2\n    tag_37:\n      pop\n      pop\n      pop\n      pop\n      pop\n      dup2\n      mstore\n      0x20\n      add\n      0x06\n      dup3\n      add\n      dup1\n      sload\n      tag_40\n      swap1\n      tag_35\n      jump\t// in\n    tag_40:\n      dup1\n      0x1f\n      add\n      0x20\n      dup1\n      swap2\n      div\n      mul\n      0x20\n      add\n      mload(0x40)\n      swap1\n      dup2\n      add\n      0x40\n      mstore\n      dup1\n      swap3\n      swap2\n      swap1\n      dup2\n      dup2\n      mstore\n      0x20\n      add\n      dup3\n      dup1\n      sload\n      tag_41\n      swap1\n      tag_35\n      jump\t// in\n    tag_41:\n      dup1\n      iszero\n      tag_42\n      jumpi\n      dup1\n      0x1f\n      lt\n      tag_43\n      jumpi\n      0x0100\n      dup1\n      dup4\n      sload\n      div\n      mul\n      dup4\n      mstore\n      swap2\n      0x20\n      add\n      swap2\n      jump(tag_42)\n    tag_43:\n      dup3\n      add\n      swap2\n      swap1\n      0x00\n      mstore\n      keccak256(0x00, 0x20)\n      swap1\n    tag_44:\n      dup2\n      sload\n      dup2\n      mstore\n      swap1\n      0x01\n      add\n      swap1\n      0x20\n      add\n      dup1\n      dup4\n      gt\n      tag_44\n      jumpi\n      dup3\n      swap1\n      sub\n      0x1f\n      and\n      dup3\n      add\n      swap2\n    tag_42:\n      pop\n      pop\n      pop\n      pop\n      pop\n      dup2\n      mstore\n      pop\n      pop\n        /* \"crowdfunding.sol\":1223:1226  arr */\n      dup3\n        /* \"crowdfunding.sol\":1227:1228  i */\n      dup3\n        /* \"crowdfunding.sol\":1223:1229  arr[i] */\n      dup2\n      mload\n      dup2\n      lt\n      tag_45\n      jumpi\n      tag_46\n      tag_28\n      jump\t// in\n    tag_46:\n    tag_45:\n      0x20\n      mul\n      0x20\n      add\n      add\n        /* \"crowdfunding.sol\":1223:1239  arr[i] = list[i] */\n      dup2\n      swap1\n      mstore\n      pop\n        /* \"crowdfunding.sol\":1174:1255  if(list[i].status == _status) {... */\n    tag_30:\n        /* \"crowdfunding.sol\":1155:1158  i++ */\n      dup1\n      dup1\n      tag_47\n      swap1\n      tag_48\n      jump\t// in\n    tag_47:\n      swap2\n      pop\n      pop\n        /* \"crowdfunding.sol\":1121:1266  for(uint i = 0; i < list.length ; i++){... */\n      jump(tag_23)\n    tag_24:\n      pop\n        /* \"crowdfunding.sol\":1285:1288  arr */\n      dup1\n        /* \"crowdfunding.sol\":1278:1288  return arr */\n      swap2\n      pop\n      pop\n        /* \"crowdfunding.sol\":948:1296  function getCrowdfundingByStatus(uint _status) public view returns (Crowdfunding[] memory){... */\n      swap2\n      swap1\n      pop\n      jump\t// out\n        /* \"crowdfunding.sol\":567:940  function createCrowdfunding(address _recipient, string memory _expectAmout) public {... */\n    tag_14:\n        /* \"crowdfunding.sol\":661:663  No */\n      0x00\n      dup1\n        /* \"crowdfunding.sol\":661:665  No++ */\n      dup2\n      sload\n      dup1\n      swap3\n      swap2\n      swap1\n      tag_50\n      swap1\n      tag_48\n      jump\t// in\n    tag_50:\n      swap2\n      swap1\n      pop\n      sstore\n      pop\n        /* \"crowdfunding.sol\":676:680  list */\n      0x01\n        /* \"crowdfunding.sol\":686:931  Crowdfunding({... */\n      mload(0x40)\n      dup1\n      0xe0\n      add\n      0x40\n      mstore\n      dup1\n        /* \"crowdfunding.sol\":719:721  No */\n      sload(0x00)\n        /* \"crowdfunding.sol\":686:931  Crowdfunding({... */\n      dup2\n      mstore\n      0x20\n      add\n        /* \"crowdfunding.sol\":744:745  0 */\n      0x00\n        /* \"crowdfunding.sol\":686:931  Crowdfunding({... */\n      dup2\n      mstore\n      0x20\n      add\n        /* \"crowdfunding.sol\":769:779  msg.sender */\n      caller\n        /* \"crowdfunding.sol\":686:931  Crowdfunding({... */\n      0xffffffffffffffffffffffffffffffffffffffff\n      and\n      dup2\n      mstore\n      0x20\n      add\n        /* \"crowdfunding.sol\":805:815  _recipient */\n      dup5\n        /* \"crowdfunding.sol\":686:931  Crowdfunding({... */\n      0xffffffffffffffffffffffffffffffffffffffff\n      and\n      dup2\n      mstore\n      0x20\n      add\n        /* \"crowdfunding.sol\":839:840  0 */\n      0x00\n        /* \"crowdfunding.sol\":686:931  Crowdfunding({... */\n      dup2\n      mstore\n      0x20\n      add\n        /* \"crowdfunding.sol\":875:887  _expectAmout */\n      dup4\n        /* \"crowdfunding.sol\":686:931  Crowdfunding({... */\n      dup2\n      mstore\n      0x20\n      add\n      mload(0x40)\n      dup1\n      0x40\n      add\n      0x40\n      mstore\n      dup1\n      0x01\n      dup2\n      mstore\n      0x20\n      add\n      0x3000000000000000000000000000000000000000000000000000000000000000\n      dup2\n      mstore\n      pop\n      dup2\n      mstore\n      pop\n        /* \"crowdfunding.sol\":676:932  list.push(Crowdfunding({... */\n      swap1\n      dup1\n      0x01\n      dup2\n      sload\n      add\n      dup1\n      dup3\n      sstore\n      dup1\n      swap2\n      pop\n      pop\n      0x01\n      swap1\n      sub\n      swap1\n      0x00\n      mstore\n      keccak256(0x00, 0x20)\n      swap1\n      0x07\n      mul\n      add\n      0x00\n      swap1\n      swap2\n      swap1\n      swap2\n      swap1\n      swap2\n      pop\n      0x00\n      dup3\n      add\n      mload\n      dup2\n      0x00\n      add\n      sstore\n      0x20\n      dup3\n      add\n      mload\n      dup2\n      0x01\n      add\n      sstore\n      0x40\n      dup3\n      add\n      mload\n      dup2\n      0x02\n      add\n      exp(0x0100, 0x00)\n      dup2\n      sload\n      dup2\n      0xffffffffffffffffffffffffffffffffffffffff\n      mul\n      not\n      and\n      swap1\n      dup4\n      0xffffffffffffffffffffffffffffffffffffffff\n      and\n      mul\n      or\n      swap1\n      sstore\n      pop\n      0x60\n      dup3\n      add\n      mload\n      dup2\n      0x03\n      add\n      exp(0x0100, 0x00)\n      dup2\n      sload\n      dup2\n      0xffffffffffffffffffffffffffffffffffffffff\n      mul\n      not\n      and\n      swap1\n      dup4\n      0xffffffffffffffffffffffffffffffffffffffff\n      and\n      mul\n      or\n      swap1\n      sstore\n      pop\n      0x80\n      dup3\n      add\n      mload\n      dup2\n      0x04\n      add\n      sstore\n      0xa0\n      dup3\n      add\n      mload\n      dup2\n      0x05\n      add\n      swap1\n      dup2\n      tag_52\n      swap2\n      swap1\n      tag_53\n      jump\t// in\n    tag_52:\n      pop\n      0xc0\n      dup3\n      add\n      mload\n      dup2\n      0x06\n      add\n      swap1\n      dup2\n      tag_54\n      swap2\n      swap1\n      tag_53\n      jump\t// in\n    tag_54:\n      pop\n      pop\n      pop\n        /* \"crowdfunding.sol\":567:940  function createCrowdfunding(address _recipient, string memory _expectAmout) public {... */\n      pop\n      pop\n      jump\t// out\n    tag_22:\n      mload(0x40)\n      dup1\n      0xe0\n      add\n      0x40\n      mstore\n      dup1\n      0x00\n      dup2\n      mstore\n      0x20\n      add\n      0x00\n      dup2\n      mstore\n      0x20\n      add\n      and(0xffffffffffffffffffffffffffffffffffffffff, 0x00)\n      dup2\n      mstore\n      0x20\n      add\n      and(0xffffffffffffffffffffffffffffffffffffffff, 0x00)\n      dup2\n      mstore\n      0x20\n      add\n      0x00\n      dup2\n      mstore\n      0x20\n      add\n      0x60\n      dup2\n      mstore\n      0x20\n      add\n      0x60\n      dup2\n      mstore\n      pop\n      swap1\n      jump\t// out\n        /* \"#utility.yul\":7:82   */\n    tag_55:\n        /* \"#utility.yul\":40:46   */\n      0x00\n        /* \"#utility.yul\":73:75   */\n      0x40\n        /* \"#utility.yul\":67:76   */\n      mload\n        /* \"#utility.yul\":57:76   */\n      swap1\n      pop\n        /* \"#utility.yul\":7:82   */\n      swap1\n      jump\t// out\n        /* \"#utility.yul\":88:205   */\n    tag_56:\n        /* \"#utility.yul\":197:198   */\n      0x00\n        /* \"#utility.yul\":194:195   */\n      dup1\n        /* \"#utility.yul\":187:199   */\n      revert\n        /* \"#utility.yul\":211:328   */\n    tag_57:\n        /* \"#utility.yul\":320:321   */\n      0x00\n        /* \"#utility.yul\":317:318   */\n      dup1\n        /* \"#utility.yul\":310:322   */\n      revert\n        /* \"#utility.yul\":334:411   */\n    tag_58:\n        /* \"#utility.yul\":371:378   */\n      0x00\n        /* \"#utility.yul\":400:405   */\n      dup2\n        /* \"#utility.yul\":389:405   */\n      swap1\n      pop\n        /* \"#utility.yul\":334:411   */\n      swap2\n      swap1\n      pop\n      jump\t// out\n        /* \"#utility.yul\":417:539   */\n    tag_59:\n        /* \"#utility.yul\":490:514   */\n      tag_110\n        /* \"#utility.yul\":508:513   */\n      dup2\n        /* \"#utility.yul\":490:514   */\n      tag_58\n      jump\t// in\n    tag_110:\n        /* \"#utility.yul\":483:488   */\n      dup2\n        /* \"#utility.yul\":480:515   */\n      eq\n        /* \"#utility.yul\":470:533   */\n      tag_111\n      jumpi\n        /* \"#utility.yul\":529:530   */\n      0x00\n        /* \"#utility.yul\":526:527   */\n      dup1\n        /* \"#utility.yul\":519:531   */\n      revert\n        /* \"#utility.yul\":470:533   */\n    tag_111:\n        /* \"#utility.yul\":417:539   */\n      pop\n      jump\t// out\n        /* \"#utility.yul\":545:684   */\n    tag_60:\n        /* \"#utility.yul\":591:596   */\n      0x00\n        /* \"#utility.yul\":629:635   */\n      dup2\n        /* \"#utility.yul\":616:636   */\n      calldataload\n        /* \"#utility.yul\":607:636   */\n      swap1\n      pop\n        /* \"#utility.yul\":645:678   */\n      tag_113\n        /* \"#utility.yul\":672:677   */\n      dup2\n        /* \"#utility.yul\":645:678   */\n      tag_59\n      jump\t// in\n    tag_113:\n        /* \"#utility.yul\":545:684   */\n      swap3\n      swap2\n      pop\n      pop\n      jump\t// out\n        /* \"#utility.yul\":690:1019   */\n    tag_7:\n        /* \"#utility.yul\":749:755   */\n      0x00\n        /* \"#utility.yul\":798:800   */\n      0x20\n        /* \"#utility.yul\":786:795   */\n      dup3\n        /* \"#utility.yul\":777:784   */\n      dup5\n        /* \"#utility.yul\":773:796   */\n      sub\n        /* \"#utility.yul\":769:801   */\n      slt\n        /* \"#utility.yul\":766:885   */\n      iszero\n      tag_115\n      jumpi\n        /* \"#utility.yul\":804:883   */\n      tag_116\n      tag_56\n      jump\t// in\n    tag_116:\n        /* \"#utility.yul\":766:885   */\n    tag_115:\n        /* \"#utility.yul\":924:925   */\n      0x00\n        /* \"#utility.yul\":949:1002   */\n      tag_117\n        /* \"#utility.yul\":994:1001   */\n      dup5\n        /* \"#utility.yul\":985:991   */\n      dup3\n        /* \"#utility.yul\":974:983   */\n      dup6\n        /* \"#utility.yul\":970:992   */\n      add\n        /* \"#utility.yul\":949:1002   */\n      tag_60\n      jump\t// in\n    tag_117:\n        /* \"#utility.yul\":939:1002   */\n      swap2\n      pop\n        /* \"#utility.yul\":895:1012   */\n      pop\n        /* \"#utility.yul\":690:1019   */\n      swap3\n      swap2\n      pop\n      pop\n      jump\t// out\n        /* \"#utility.yul\":1025:1167   */\n    tag_61:\n        /* \"#utility.yul\":1120:1126   */\n      0x00\n        /* \"#utility.yul\":1154:1159   */\n      dup2\n        /* \"#utility.yul\":1148:1160   */\n      mload\n        /* \"#utility.yul\":1138:1160   */\n      swap1\n      pop\n        /* \"#utility.yul\":1025:1167   */\n      swap2\n      swap1\n      pop\n      jump\t// out\n        /* \"#utility.yul\":1173:1385   */\n    tag_62:\n        /* \"#utility.yul\":1300:1311   */\n      0x00\n        /* \"#utility.yul\":1334:1340   */\n      dup3\n        /* \"#utility.yul\":1329:1332   */\n      dup3\n        /* \"#utility.yul\":1322:1341   */\n      mstore\n        /* \"#utility.yul\":1374:1378   */\n      0x20\n        /* \"#utility.yul\":1369:1372   */\n      dup3\n        /* \"#utility.yul\":1365:1379   */\n      add\n        /* \"#utility.yul\":1350:1379   */\n      swap1\n      pop\n        /* \"#utility.yul\":1173:1385   */\n      swap3\n      swap2\n      pop\n      pop\n      jump\t// out\n        /* \"#utility.yul\":1391:1551   */\n    tag_63:\n        /* \"#utility.yul\":1486:1490   */\n      0x00\n        /* \"#utility.yul\":1509:1512   */\n      dup2\n        /* \"#utility.yul\":1501:1512   */\n      swap1\n      pop\n        /* \"#utility.yul\":1539:1543   */\n      0x20\n        /* \"#utility.yul\":1534:1537   */\n      dup3\n        /* \"#utility.yul\":1530:1544   */\n      add\n        /* \"#utility.yul\":1522:1544   */\n      swap1\n      pop\n        /* \"#utility.yul\":1391:1551   */\n      swap2\n      swap1\n      pop\n      jump\t// out\n        /* \"#utility.yul\":1557:1665   */\n    tag_64:\n        /* \"#utility.yul\":1634:1658   */\n      tag_122\n        /* \"#utility.yul\":1652:1657   */\n      dup2\n        /* \"#utility.yul\":1634:1658   */\n      tag_58\n      jump\t// in\n    tag_122:\n        /* \"#utility.yul\":1629:1632   */\n      dup3\n        /* \"#utility.yul\":1622:1659   */\n      mstore\n        /* \"#utility.yul\":1557:1665   */\n      pop\n      pop\n      jump\t// out\n        /* \"#utility.yul\":1671:1797   */\n    tag_65:\n        /* \"#utility.yul\":1708:1715   */\n      0x00\n        /* \"#utility.yul\":1748:1790   */\n      0xffffffffffffffffffffffffffffffffffffffff\n        /* \"#utility.yul\":1741:1746   */\n      dup3\n        /* \"#utility.yul\":1737:1791   */\n      and\n        /* \"#utility.yul\":1726:1791   */\n      swap1\n      pop\n        /* \"#utility.yul\":1671:1797   */\n      swap2\n      swap1\n      pop\n      jump\t// out\n        /* \"#utility.yul\":1803:1899   */\n    tag_66:\n        /* \"#utility.yul\":1840:1847   */\n      0x00\n        /* \"#utility.yul\":1869:1893   */\n      tag_125\n        /* \"#utility.yul\":1887:1892   */\n      dup3\n        /* \"#utility.yul\":1869:1893   */\n      tag_65\n      jump\t// in\n    tag_125:\n        /* \"#utility.yul\":1858:1893   */\n      swap1\n      pop\n        /* \"#utility.yul\":1803:1899   */\n      swap2\n      swap1\n      pop\n      jump\t// out\n        /* \"#utility.yul\":1905:2013   */\n    tag_67:\n        /* \"#utility.yul\":1982:2006   */\n      tag_127\n        /* \"#utility.yul\":2000:2005   */\n      dup2\n        /* \"#utility.yul\":1982:2006   */\n      tag_66\n      jump\t// in\n    tag_127:\n        /* \"#utility.yul\":1977:1980   */\n      dup3\n        /* \"#utility.yul\":1970:2007   */\n      mstore\n        /* \"#utility.yul\":1905:2013   */\n      pop\n      pop\n      jump\t// out\n        /* \"#utility.yul\":2019:2118   */\n    tag_68:\n        /* \"#utility.yul\":2071:2077   */\n      0x00\n        /* \"#utility.yul\":2105:2110   */\n      dup2\n        /* \"#utility.yul\":2099:2111   */\n      mload\n        /* \"#utility.yul\":2089:2111   */\n      swap1\n      pop\n        /* \"#utility.yul\":2019:2118   */\n      swap2\n      swap1\n      pop\n      jump\t// out\n        /* \"#utility.yul\":2124:2283   */\n    tag_69:\n        /* \"#utility.yul\":2198:2209   */\n      0x00\n        /* \"#utility.yul\":2232:2238   */\n      dup3\n        /* \"#utility.yul\":2227:2230   */\n      dup3\n        /* \"#utility.yul\":2220:2239   */\n      mstore\n        /* \"#utility.yul\":2272:2276   */\n      0x20\n        /* \"#utility.yul\":2267:2270   */\n      dup3\n        /* \"#utility.yul\":2263:2277   */\n      add\n        /* \"#utility.yul\":2248:2277   */\n      swap1\n      pop\n        /* \"#utility.yul\":2124:2283   */\n      swap3\n      swap2\n      pop\n      pop\n      jump\t// out\n        /* \"#utility.yul\":2289:2596   */\n    tag_70:\n        /* \"#utility.yul\":2357:2358   */\n      0x00\n        /* \"#utility.yul\":2367:2480   */\n    tag_131:\n        /* \"#utility.yul\":2381:2387   */\n      dup4\n        /* \"#utility.yul\":2378:2379   */\n      dup2\n        /* \"#utility.yul\":2375:2388   */\n      lt\n        /* \"#utility.yul\":2367:2480   */\n      iszero\n      tag_133\n      jumpi\n        /* \"#utility.yul\":2466:2467   */\n      dup1\n        /* \"#utility.yul\":2461:2464   */\n      dup3\n        /* \"#utility.yul\":2457:2468   */\n      add\n        /* \"#utility.yul\":2451:2469   */\n      mload\n        /* \"#utility.yul\":2447:2448   */\n      dup2\n        /* \"#utility.yul\":2442:2445   */\n      dup5\n        /* \"#utility.yul\":2438:2449   */\n      add\n        /* \"#utility.yul\":2431:2470   */\n      mstore\n        /* \"#utility.yul\":2403:2405   */\n      0x20\n        /* \"#utility.yul\":2400:2401   */\n      dup2\n        /* \"#utility.yul\":2396:2406   */\n      add\n        /* \"#utility.yul\":2391:2406   */\n      swap1\n      pop\n        /* \"#utility.yul\":2367:2480   */\n      jump(tag_131)\n    tag_133:\n        /* \"#utility.yul\":2498:2504   */\n      dup4\n        /* \"#utility.yul\":2495:2496   */\n      dup2\n        /* \"#utility.yul\":2492:2505   */\n      gt\n        /* \"#utility.yul\":2489:2590   */\n      iszero\n      tag_134\n      jumpi\n        /* \"#utility.yul\":2578:2579   */\n      0x00\n        /* \"#utility.yul\":2569:2575   */\n      dup5\n        /* \"#utility.yul\":2564:2567   */\n      dup5\n        /* \"#utility.yul\":2560:2576   */\n      add\n        /* \"#utility.yul\":2553:2580   */\n      mstore\n        /* \"#utility.yul\":2489:2590   */\n    tag_134:\n        /* \"#utility.yul\":2338:2596   */\n      pop\n        /* \"#utility.yul\":2289:2596   */\n      pop\n      pop\n      pop\n      jump\t// out\n        /* \"#utility.yul\":2602:2704   */\n    tag_71:\n        /* \"#utility.yul\":2643:2649   */\n      0x00\n        /* \"#utility.yul\":2694:2696   */\n      0x1f\n        /* \"#utility.yul\":2690:2697   */\n      not\n        /* \"#utility.yul\":2685:2687   */\n      0x1f\n        /* \"#utility.yul\":2678:2683   */\n      dup4\n        /* \"#utility.yul\":2674:2688   */\n      add\n        /* \"#utility.yul\":2670:2698   */\n      and\n        /* \"#utility.yul\":2660:2698   */\n      swap1\n      pop\n        /* \"#utility.yul\":2602:2704   */\n      swap2\n      swap1\n      pop\n      jump\t// out\n        /* \"#utility.yul\":2710:3054   */\n    tag_72:\n        /* \"#utility.yul\":2788:2791   */\n      0x00\n        /* \"#utility.yul\":2816:2855   */\n      tag_137\n        /* \"#utility.yul\":2849:2854   */\n      dup3\n        /* \"#utility.yul\":2816:2855   */\n      tag_68\n      jump\t// in\n    tag_137:\n        /* \"#utility.yul\":2871:2932   */\n      tag_138\n        /* \"#utility.yul\":2925:2931   */\n      dup2\n        /* \"#utility.yul\":2920:2923   */\n      dup6\n        /* \"#utility.yul\":2871:2932   */\n      tag_69\n      jump\t// in\n    tag_138:\n        /* \"#utility.yul\":2864:2932   */\n      swap4\n      pop\n        /* \"#utility.yul\":2941:2993   */\n      tag_139\n        /* \"#utility.yul\":2986:2992   */\n      dup2\n        /* \"#utility.yul\":2981:2984   */\n      dup6\n        /* \"#utility.yul\":2974:2978   */\n      0x20\n        /* \"#utility.yul\":2967:2972   */\n      dup7\n        /* \"#utility.yul\":2963:2979   */\n      add\n        /* \"#utility.yul\":2941:2993   */\n      tag_70\n      jump\t// in\n    tag_139:\n        /* \"#utility.yul\":3018:3047   */\n      tag_140\n        /* \"#utility.yul\":3040:3046   */\n      dup2\n        /* \"#utility.yul\":3018:3047   */\n      tag_71\n      jump\t// in\n    tag_140:\n        /* \"#utility.yul\":3013:3016   */\n      dup5\n        /* \"#utility.yul\":3009:3048   */\n      add\n        /* \"#utility.yul\":3002:3048   */\n      swap2\n      pop\n        /* \"#utility.yul\":2792:3054   */\n      pop\n        /* \"#utility.yul\":2710:3054   */\n      swap3\n      swap2\n      pop\n      pop\n      jump\t// out\n        /* \"#utility.yul\":3152:4722   */\n    tag_73:\n        /* \"#utility.yul\":3267:3270   */\n      0x00\n        /* \"#utility.yul\":3303:3307   */\n      0xe0\n        /* \"#utility.yul\":3298:3301   */\n      dup4\n        /* \"#utility.yul\":3294:3308   */\n      add\n        /* \"#utility.yul\":3389:3393   */\n      0x00\n        /* \"#utility.yul\":3382:3387   */\n      dup4\n        /* \"#utility.yul\":3378:3394   */\n      add\n        /* \"#utility.yul\":3372:3395   */\n      mload\n        /* \"#utility.yul\":3408:3471   */\n      tag_142\n        /* \"#utility.yul\":3465:3469   */\n      0x00\n        /* \"#utility.yul\":3460:3463   */\n      dup7\n        /* \"#utility.yul\":3456:3470   */\n      add\n        /* \"#utility.yul\":3442:3454   */\n      dup3\n        /* \"#utility.yul\":3408:3471   */\n      tag_64\n      jump\t// in\n    tag_142:\n        /* \"#utility.yul\":3318:3481   */\n      pop\n        /* \"#utility.yul\":3565:3569   */\n      0x20\n        /* \"#utility.yul\":3558:3563   */\n      dup4\n        /* \"#utility.yul\":3554:3570   */\n      add\n        /* \"#utility.yul\":3548:3571   */\n      mload\n        /* \"#utility.yul\":3584:3647   */\n      tag_143\n        /* \"#utility.yul\":3641:3645   */\n      0x20\n        /* \"#utility.yul\":3636:3639   */\n      dup7\n        /* \"#utility.yul\":3632:3646   */\n      add\n        /* \"#utility.yul\":3618:3630   */\n      dup3\n        /* \"#utility.yul\":3584:3647   */\n      tag_64\n      jump\t// in\n    tag_143:\n        /* \"#utility.yul\":3491:3657   */\n      pop\n        /* \"#utility.yul\":3742:3746   */\n      0x40\n        /* \"#utility.yul\":3735:3740   */\n      dup4\n        /* \"#utility.yul\":3731:3747   */\n      add\n        /* \"#utility.yul\":3725:3748   */\n      mload\n        /* \"#utility.yul\":3761:3824   */\n      tag_144\n        /* \"#utility.yul\":3818:3822   */\n      0x40\n        /* \"#utility.yul\":3813:3816   */\n      dup7\n        /* \"#utility.yul\":3809:3823   */\n      add\n        /* \"#utility.yul\":3795:3807   */\n      dup3\n        /* \"#utility.yul\":3761:3824   */\n      tag_67\n      jump\t// in\n    tag_144:\n        /* \"#utility.yul\":3667:3834   */\n      pop\n        /* \"#utility.yul\":3921:3925   */\n      0x60\n        /* \"#utility.yul\":3914:3919   */\n      dup4\n        /* \"#utility.yul\":3910:3926   */\n      add\n        /* \"#utility.yul\":3904:3927   */\n      mload\n        /* \"#utility.yul\":3940:4003   */\n      tag_145\n        /* \"#utility.yul\":3997:4001   */\n      0x60\n        /* \"#utility.yul\":3992:3995   */\n      dup7\n        /* \"#utility.yul\":3988:4002   */\n      add\n        /* \"#utility.yul\":3974:3986   */\n      dup3\n        /* \"#utility.yul\":3940:4003   */\n      tag_67\n      jump\t// in\n    tag_145:\n        /* \"#utility.yul\":3844:4013   */\n      pop\n        /* \"#utility.yul\":4098:4102   */\n      0x80\n        /* \"#utility.yul\":4091:4096   */\n      dup4\n        /* \"#utility.yul\":4087:4103   */\n      add\n        /* \"#utility.yul\":4081:4104   */\n      mload\n        /* \"#utility.yul\":4117:4180   */\n      tag_146\n        /* \"#utility.yul\":4174:4178   */\n      0x80\n        /* \"#utility.yul\":4169:4172   */\n      dup7\n        /* \"#utility.yul\":4165:4179   */\n      add\n        /* \"#utility.yul\":4151:4163   */\n      dup3\n        /* \"#utility.yul\":4117:4180   */\n      tag_64\n      jump\t// in\n    tag_146:\n        /* \"#utility.yul\":4023:4190   */\n      pop\n        /* \"#utility.yul\":4279:4283   */\n      0xa0\n        /* \"#utility.yul\":4272:4277   */\n      dup4\n        /* \"#utility.yul\":4268:4284   */\n      add\n        /* \"#utility.yul\":4262:4285   */\n      mload\n        /* \"#utility.yul\":4332:4335   */\n      dup5\n        /* \"#utility.yul\":4326:4330   */\n      dup3\n        /* \"#utility.yul\":4322:4336   */\n      sub\n        /* \"#utility.yul\":4315:4319   */\n      0xa0\n        /* \"#utility.yul\":4310:4313   */\n      dup7\n        /* \"#utility.yul\":4306:4320   */\n      add\n        /* \"#utility.yul\":4299:4337   */\n      mstore\n        /* \"#utility.yul\":4358:4431   */\n      tag_147\n        /* \"#utility.yul\":4426:4430   */\n      dup3\n        /* \"#utility.yul\":4412:4424   */\n      dup3\n        /* \"#utility.yul\":4358:4431   */\n      tag_72\n      jump\t// in\n    tag_147:\n        /* \"#utility.yul\":4350:4431   */\n      swap2\n      pop\n        /* \"#utility.yul\":4200:4442   */\n      pop\n        /* \"#utility.yul\":4532:4536   */\n      0xc0\n        /* \"#utility.yul\":4525:4530   */\n      dup4\n        /* \"#utility.yul\":4521:4537   */\n      add\n        /* \"#utility.yul\":4515:4538   */\n      mload\n        /* \"#utility.yul\":4585:4588   */\n      dup5\n        /* \"#utility.yul\":4579:4583   */\n      dup3\n        /* \"#utility.yul\":4575:4589   */\n      sub\n        /* \"#utility.yul\":4568:4572   */\n      0xc0\n        /* \"#utility.yul\":4563:4566   */\n      dup7\n        /* \"#utility.yul\":4559:4573   */\n      add\n        /* \"#utility.yul\":4552:4590   */\n      mstore\n        /* \"#utility.yul\":4611:4684   */\n      tag_148\n        /* \"#utility.yul\":4679:4683   */\n      dup3\n        /* \"#utility.yul\":4665:4677   */\n      dup3\n        /* \"#utility.yul\":4611:4684   */\n      tag_72\n      jump\t// in\n    tag_148:\n        /* \"#utility.yul\":4603:4684   */\n      swap2\n      pop\n        /* \"#utility.yul\":4452:4695   */\n      pop\n        /* \"#utility.yul\":4712:4716   */\n      dup1\n        /* \"#utility.yul\":4705:4716   */\n      swap2\n      pop\n        /* \"#utility.yul\":3272:4722   */\n      pop\n        /* \"#utility.yul\":3152:4722   */\n      swap3\n      swap2\n      pop\n      pop\n      jump\t// out\n        /* \"#utility.yul\":4728:4996   */\n    tag_74:\n        /* \"#utility.yul\":4853:4863   */\n      0x00\n        /* \"#utility.yul\":4888:4990   */\n      tag_150\n        /* \"#utility.yul\":4986:4989   */\n      dup4\n        /* \"#utility.yul\":4978:4984   */\n      dup4\n        /* \"#utility.yul\":4888:4990   */\n      tag_73\n      jump\t// in\n    tag_150:\n        /* \"#utility.yul\":4874:4990   */\n      swap1\n      pop\n        /* \"#utility.yul\":4728:4996   */\n      swap3\n      swap2\n      pop\n      pop\n      jump\t// out\n        /* \"#utility.yul\":5002:5143   */\n    tag_75:\n        /* \"#utility.yul\":5100:5104   */\n      0x00\n        /* \"#utility.yul\":5132:5136   */\n      0x20\n        /* \"#utility.yul\":5127:5130   */\n      dup3\n        /* \"#utility.yul\":5123:5137   */\n      add\n        /* \"#utility.yul\":5115:5137   */\n      swap1\n      pop\n        /* \"#utility.yul\":5002:5143   */\n      swap2\n      swap1\n      pop\n      jump\t// out\n        /* \"#utility.yul\":5245:6380   */\n    tag_76:\n        /* \"#utility.yul\":5420:5423   */\n      0x00\n        /* \"#utility.yul\":5449:5531   */\n      tag_153\n        /* \"#utility.yul\":5525:5530   */\n      dup3\n        /* \"#utility.yul\":5449:5531   */\n      tag_61\n      jump\t// in\n    tag_153:\n        /* \"#utility.yul\":5547:5661   */\n      tag_154\n        /* \"#utility.yul\":5654:5660   */\n      dup2\n        /* \"#utility.yul\":5649:5652   */\n      dup6\n        /* \"#utility.yul\":5547:5661   */\n      tag_62\n      jump\t// in\n    tag_154:\n        /* \"#utility.yul\":5540:5661   */\n      swap4\n      pop\n        /* \"#utility.yul\":5687:5690   */\n      dup4\n        /* \"#utility.yul\":5732:5736   */\n      0x20\n        /* \"#utility.yul\":5724:5730   */\n      dup3\n        /* \"#utility.yul\":5720:5737   */\n      mul\n        /* \"#utility.yul\":5715:5718   */\n      dup6\n        /* \"#utility.yul\":5711:5738   */\n      add\n        /* \"#utility.yul\":5762:5846   */\n      tag_155\n        /* \"#utility.yul\":5840:5845   */\n      dup6\n        /* \"#utility.yul\":5762:5846   */\n      tag_63\n      jump\t// in\n    tag_155:\n        /* \"#utility.yul\":5869:5876   */\n      dup1\n        /* \"#utility.yul\":5900:5901   */\n      0x00\n        /* \"#utility.yul\":5885:6335   */\n    tag_156:\n        /* \"#utility.yul\":5910:5916   */\n      dup6\n        /* \"#utility.yul\":5907:5908   */\n      dup2\n        /* \"#utility.yul\":5904:5917   */\n      lt\n        /* \"#utility.yul\":5885:6335   */\n      iszero\n      tag_158\n      jumpi\n        /* \"#utility.yul\":5981:5990   */\n      dup5\n        /* \"#utility.yul\":5975:5979   */\n      dup5\n        /* \"#utility.yul\":5971:5991   */\n      sub\n        /* \"#utility.yul\":5966:5969   */\n      dup10\n        /* \"#utility.yul\":5959:5992   */\n      mstore\n        /* \"#utility.yul\":6032:6038   */\n      dup2\n        /* \"#utility.yul\":6026:6039   */\n      mload\n        /* \"#utility.yul\":6060:6180   */\n      tag_159\n        /* \"#utility.yul\":6175:6179   */\n      dup6\n        /* \"#utility.yul\":6160:6173   */\n      dup3\n        /* \"#utility.yul\":6060:6180   */\n      tag_74\n      jump\t// in\n    tag_159:\n        /* \"#utility.yul\":6052:6180   */\n      swap5\n      pop\n        /* \"#utility.yul\":6203:6291   */\n      tag_160\n        /* \"#utility.yul\":6284:6290   */\n      dup4\n        /* \"#utility.yul\":6203:6291   */\n      tag_75\n      jump\t// in\n    tag_160:\n        /* \"#utility.yul\":6193:6291   */\n      swap3\n      pop\n        /* \"#utility.yul\":6320:6324   */\n      0x20\n        /* \"#utility.yul\":6315:6318   */\n      dup11\n        /* \"#utility.yul\":6311:6325   */\n      add\n        /* \"#utility.yul\":6304:6325   */\n      swap10\n      pop\n        /* \"#utility.yul\":5945:6335   */\n      pop\n        /* \"#utility.yul\":5932:5933   */\n      0x01\n        /* \"#utility.yul\":5929:5930   */\n      dup2\n        /* \"#utility.yul\":5925:5934   */\n      add\n        /* \"#utility.yul\":5920:5934   */\n      swap1\n      pop\n        /* \"#utility.yul\":5885:6335   */\n      jump(tag_156)\n    tag_158:\n        /* \"#utility.yul\":5889:5903   */\n      pop\n        /* \"#utility.yul\":6351:6355   */\n      dup3\n        /* \"#utility.yul\":6344:6355   */\n      swap8\n      pop\n        /* \"#utility.yul\":6371:6374   */\n      dup8\n        /* \"#utility.yul\":6364:6374   */\n      swap6\n      pop\n        /* \"#utility.yul\":5425:6380   */\n      pop\n      pop\n      pop\n      pop\n      pop\n        /* \"#utility.yul\":5245:6380   */\n      swap3\n      swap2\n      pop\n      pop\n      jump\t// out\n        /* \"#utility.yul\":6386:6871   */\n    tag_10:\n        /* \"#utility.yul\":6585:6589   */\n      0x00\n        /* \"#utility.yul\":6623:6625   */\n      0x20\n        /* \"#utility.yul\":6612:6621   */\n      dup3\n        /* \"#utility.yul\":6608:6626   */\n      add\n        /* \"#utility.yul\":6600:6626   */\n      swap1\n      pop\n        /* \"#utility.yul\":6672:6681   */\n      dup2\n        /* \"#utility.yul\":6666:6670   */\n      dup2\n        /* \"#utility.yul\":6662:6682   */\n      sub\n        /* \"#utility.yul\":6658:6659   */\n      0x00\n        /* \"#utility.yul\":6647:6656   */\n      dup4\n        /* \"#utility.yul\":6643:6660   */\n      add\n        /* \"#utility.yul\":6636:6683   */\n      mstore\n        /* \"#utility.yul\":6700:6864   */\n      tag_162\n        /* \"#utility.yul\":6859:6863   */\n      dup2\n        /* \"#utility.yul\":6850:6856   */\n      dup5\n        /* \"#utility.yul\":6700:6864   */\n      tag_76\n      jump\t// in\n    tag_162:\n        /* \"#utility.yul\":6692:6864   */\n      swap1\n      pop\n        /* \"#utility.yul\":6386:6871   */\n      swap3\n      swap2\n      pop\n      pop\n      jump\t// out\n        /* \"#utility.yul\":6877:6999   */\n    tag_77:\n        /* \"#utility.yul\":6950:6974   */\n      tag_164\n        /* \"#utility.yul\":6968:6973   */\n      dup2\n        /* \"#utility.yul\":6950:6974   */\n      tag_66\n      jump\t// in\n    tag_164:\n        /* \"#utility.yul\":6943:6948   */\n      dup2\n        /* \"#utility.yul\":6940:6975   */\n      eq\n        /* \"#utility.yul\":6930:6993   */\n      tag_165\n      jumpi\n        /* \"#utility.yul\":6989:6990   */\n      0x00\n        /* \"#utility.yul\":6986:6987   */\n      dup1\n        /* \"#utility.yul\":6979:6991   */\n      revert\n        /* \"#utility.yul\":6930:6993   */\n    tag_165:\n        /* \"#utility.yul\":6877:6999   */\n      pop\n      jump\t// out\n        /* \"#utility.yul\":7005:7144   */\n    tag_78:\n        /* \"#utility.yul\":7051:7056   */\n      0x00\n        /* \"#utility.yul\":7089:7095   */\n      dup2\n        /* \"#utility.yul\":7076:7096   */\n      calldataload\n        /* \"#utility.yul\":7067:7096   */\n      swap1\n      pop\n        /* \"#utility.yul\":7105:7138   */\n      tag_167\n        /* \"#utility.yul\":7132:7137   */\n      dup2\n        /* \"#utility.yul\":7105:7138   */\n      tag_77\n      jump\t// in\n    tag_167:\n        /* \"#utility.yul\":7005:7144   */\n      swap3\n      swap2\n      pop\n      pop\n      jump\t// out\n        /* \"#utility.yul\":7150:7267   */\n    tag_79:\n        /* \"#utility.yul\":7259:7260   */\n      0x00\n        /* \"#utility.yul\":7256:7257   */\n      dup1\n        /* \"#utility.yul\":7249:7261   */\n      revert\n        /* \"#utility.yul\":7273:7390   */\n    tag_80:\n        /* \"#utility.yul\":7382:7383   */\n      0x00\n        /* \"#utility.yul\":7379:7380   */\n      dup1\n        /* \"#utility.yul\":7372:7384   */\n      revert\n        /* \"#utility.yul\":7396:7576   */\n    tag_18:\n        /* \"#utility.yul\":7444:7521   */\n      0x4e487b7100000000000000000000000000000000000000000000000000000000\n        /* \"#utility.yul\":7441:7442   */\n      0x00\n        /* \"#utility.yul\":7434:7522   */\n      mstore\n        /* \"#utility.yul\":7541:7545   */\n      0x41\n        /* \"#utility.yul\":7538:7539   */\n      0x04\n        /* \"#utility.yul\":7531:7546   */\n      mstore\n        /* \"#utility.yul\":7565:7569   */\n      0x24\n        /* \"#utility.yul\":7562:7563   */\n      0x00\n        /* \"#utility.yul\":7555:7570   */\n      revert\n        /* \"#utility.yul\":7582:7863   */\n    tag_81:\n        /* \"#utility.yul\":7665:7692   */\n      tag_172\n        /* \"#utility.yul\":7687:7691   */\n      dup3\n        /* \"#utility.yul\":7665:7692   */\n      tag_71\n      jump\t// in\n    tag_172:\n        /* \"#utility.yul\":7657:7663   */\n      dup2\n        /* \"#utility.yul\":7653:7693   */\n      add\n        /* \"#utility.yul\":7795:7801   */\n      dup2\n        /* \"#utility.yul\":7783:7793   */\n      dup2\n        /* \"#utility.yul\":7780:7802   */\n      lt\n        /* \"#utility.yul\":7759:7777   */\n      0xffffffffffffffff\n        /* \"#utility.yul\":7747:7757   */\n      dup3\n        /* \"#utility.yul\":7744:7778   */\n      gt\n        /* \"#utility.yul\":7741:7803   */\n      or\n        /* \"#utility.yul\":7738:7826   */\n      iszero\n      tag_173\n      jumpi\n        /* \"#utility.yul\":7806:7824   */\n      tag_174\n      tag_18\n      jump\t// in\n    tag_174:\n        /* \"#utility.yul\":7738:7826   */\n    tag_173:\n        /* \"#utility.yul\":7846:7856   */\n      dup1\n        /* \"#utility.yul\":7842:7844   */\n      0x40\n        /* \"#utility.yul\":7835:7857   */\n      mstore\n        /* \"#utility.yul\":7625:7863   */\n      pop\n        /* \"#utility.yul\":7582:7863   */\n      pop\n      pop\n      jump\t// out\n        /* \"#utility.yul\":7869:7998   */\n    tag_82:\n        /* \"#utility.yul\":7903:7909   */\n      0x00\n        /* \"#utility.yul\":7930:7950   */\n      tag_176\n      tag_55\n      jump\t// in\n    tag_176:\n        /* \"#utility.yul\":7920:7950   */\n      swap1\n      pop\n        /* \"#utility.yul\":7959:7992   */\n      tag_177\n        /* \"#utility.yul\":7987:7991   */\n      dup3\n        /* \"#utility.yul\":7979:7985   */\n      dup3\n        /* \"#utility.yul\":7959:7992   */\n      tag_81\n      jump\t// in\n    tag_177:\n        /* \"#utility.yul\":7869:7998   */\n      swap2\n      swap1\n      pop\n      jump\t// out\n        /* \"#utility.yul\":8004:8312   */\n    tag_83:\n        /* \"#utility.yul\":8066:8070   */\n      0x00\n        /* \"#utility.yul\":8156:8174   */\n      0xffffffffffffffff\n        /* \"#utility.yul\":8148:8154   */\n      dup3\n        /* \"#utility.yul\":8145:8175   */\n      gt\n        /* \"#utility.yul\":8142:8198   */\n      iszero\n      tag_179\n      jumpi\n        /* \"#utility.yul\":8178:8196   */\n      tag_180\n      tag_18\n      jump\t// in\n    tag_180:\n        /* \"#utility.yul\":8142:8198   */\n    tag_179:\n        /* \"#utility.yul\":8216:8245   */\n      tag_181\n        /* \"#utility.yul\":8238:8244   */\n      dup3\n        /* \"#utility.yul\":8216:8245   */\n      tag_71\n      jump\t// in\n    tag_181:\n        /* \"#utility.yul\":8208:8245   */\n      swap1\n      pop\n        /* \"#utility.yul\":8300:8304   */\n      0x20\n        /* \"#utility.yul\":8294:8298   */\n      dup2\n        /* \"#utility.yul\":8290:8305   */\n      add\n        /* \"#utility.yul\":8282:8305   */\n      swap1\n      pop\n        /* \"#utility.yul\":8004:8312   */\n      swap2\n      swap1\n      pop\n      jump\t// out\n        /* \"#utility.yul\":8318:8472   */\n    tag_84:\n        /* \"#utility.yul\":8402:8408   */\n      dup3\n        /* \"#utility.yul\":8397:8400   */\n      dup2\n        /* \"#utility.yul\":8392:8395   */\n      dup4\n        /* \"#utility.yul\":8379:8409   */\n      calldatacopy\n        /* \"#utility.yul\":8464:8465   */\n      0x00\n        /* \"#utility.yul\":8455:8461   */\n      dup4\n        /* \"#utility.yul\":8450:8453   */\n      dup4\n        /* \"#utility.yul\":8446:8462   */\n      add\n        /* \"#utility.yul\":8439:8466   */\n      mstore\n        /* \"#utility.yul\":8318:8472   */\n      pop\n      pop\n      pop\n      jump\t// out\n        /* \"#utility.yul\":8478:8890   */\n    tag_85:\n        /* \"#utility.yul\":8556:8561   */\n      0x00\n        /* \"#utility.yul\":8581:8647   */\n      tag_184\n        /* \"#utility.yul\":8597:8646   */\n      tag_185\n        /* \"#utility.yul\":8639:8645   */\n      dup5\n        /* \"#utility.yul\":8597:8646   */\n      tag_83\n      jump\t// in\n    tag_185:\n        /* \"#utility.yul\":8581:8647   */\n      tag_82\n      jump\t// in\n    tag_184:\n        /* \"#utility.yul\":8572:8647   */\n      swap1\n      pop\n        /* \"#utility.yul\":8670:8676   */\n      dup3\n        /* \"#utility.yul\":8663:8668   */\n      dup2\n        /* \"#utility.yul\":8656:8677   */\n      mstore\n        /* \"#utility.yul\":8708:8712   */\n      0x20\n        /* \"#utility.yul\":8701:8706   */\n      dup2\n        /* \"#utility.yul\":8697:8713   */\n      add\n        /* \"#utility.yul\":8746:8749   */\n      dup5\n        /* \"#utility.yul\":8737:8743   */\n      dup5\n        /* \"#utility.yul\":8732:8735   */\n      dup5\n        /* \"#utility.yul\":8728:8744   */\n      add\n        /* \"#utility.yul\":8725:8750   */\n      gt\n        /* \"#utility.yul\":8722:8834   */\n      iszero\n      tag_186\n      jumpi\n        /* \"#utility.yul\":8753:8832   */\n      tag_187\n      tag_80\n      jump\t// in\n    tag_187:\n        /* \"#utility.yul\":8722:8834   */\n    tag_186:\n        /* \"#utility.yul\":8843:8884   */\n      tag_188\n        /* \"#utility.yul\":8877:8883   */\n      dup5\n        /* \"#utility.yul\":8872:8875   */\n      dup3\n        /* \"#utility.yul\":8867:8870   */\n      dup6\n        /* \"#utility.yul\":8843:8884   */\n      tag_84\n      jump\t// in\n    tag_188:\n        /* \"#utility.yul\":8562:8890   */\n      pop\n        /* \"#utility.yul\":8478:8890   */\n      swap4\n      swap3\n      pop\n      pop\n      pop\n      jump\t// out\n        /* \"#utility.yul\":8910:9250   */\n    tag_86:\n        /* \"#utility.yul\":8966:8971   */\n      0x00\n        /* \"#utility.yul\":9015:9018   */\n      dup3\n        /* \"#utility.yul\":9008:9012   */\n      0x1f\n        /* \"#utility.yul\":9000:9006   */\n      dup4\n        /* \"#utility.yul\":8996:9013   */\n      add\n        /* \"#utility.yul\":8992:9019   */\n      slt\n        /* \"#utility.yul\":8982:9104   */\n      tag_190\n      jumpi\n        /* \"#utility.yul\":9023:9102   */\n      tag_191\n      tag_79\n      jump\t// in\n    tag_191:\n        /* \"#utility.yul\":8982:9104   */\n    tag_190:\n        /* \"#utility.yul\":9140:9146   */\n      dup2\n        /* \"#utility.yul\":9127:9147   */\n      calldataload\n        /* \"#utility.yul\":9165:9244   */\n      tag_192\n        /* \"#utility.yul\":9240:9243   */\n      dup5\n        /* \"#utility.yul\":9232:9238   */\n      dup3\n        /* \"#utility.yul\":9225:9229   */\n      0x20\n        /* \"#utility.yul\":9217:9223   */\n      dup7\n        /* \"#utility.yul\":9213:9230   */\n      add\n        /* \"#utility.yul\":9165:9244   */\n      tag_85\n      jump\t// in\n    tag_192:\n        /* \"#utility.yul\":9156:9244   */\n      swap2\n      pop\n        /* \"#utility.yul\":8972:9250   */\n      pop\n        /* \"#utility.yul\":8910:9250   */\n      swap3\n      swap2\n      pop\n      pop\n      jump\t// out\n        /* \"#utility.yul\":9256:9910   */\n    tag_13:\n        /* \"#utility.yul\":9334:9340   */\n      0x00\n        /* \"#utility.yul\":9342:9348   */\n      dup1\n        /* \"#utility.yul\":9391:9393   */\n      0x40\n        /* \"#utility.yul\":9379:9388   */\n      dup4\n        /* \"#utility.yul\":9370:9377   */\n      dup6\n        /* \"#utility.yul\":9366:9389   */\n      sub\n        /* \"#utility.yul\":9362:9394   */\n      slt\n        /* \"#utility.yul\":9359:9478   */\n      iszero\n      tag_194\n      jumpi\n        /* \"#utility.yul\":9397:9476   */\n      tag_195\n      tag_56\n      jump\t// in\n    tag_195:\n        /* \"#utility.yul\":9359:9478   */\n    tag_194:\n        /* \"#utility.yul\":9517:9518   */\n      0x00\n        /* \"#utility.yul\":9542:9595   */\n      tag_196\n        /* \"#utility.yul\":9587:9594   */\n      dup6\n        /* \"#utility.yul\":9578:9584   */\n      dup3\n        /* \"#utility.yul\":9567:9576   */\n      dup7\n        /* \"#utility.yul\":9563:9585   */\n      add\n        /* \"#utility.yul\":9542:9595   */\n      tag_78\n      jump\t// in\n    tag_196:\n        /* \"#utility.yul\":9532:9595   */\n      swap3\n      pop\n        /* \"#utility.yul\":9488:9605   */\n      pop\n        /* \"#utility.yul\":9672:9674   */\n      0x20\n        /* \"#utility.yul\":9661:9670   */\n      dup4\n        /* \"#utility.yul\":9657:9675   */\n      add\n        /* \"#utility.yul\":9644:9676   */\n      calldataload\n        /* \"#utility.yul\":9703:9721   */\n      0xffffffffffffffff\n        /* \"#utility.yul\":9695:9701   */\n      dup2\n        /* \"#utility.yul\":9692:9722   */\n      gt\n        /* \"#utility.yul\":9689:9806   */\n      iszero\n      tag_197\n      jumpi\n        /* \"#utility.yul\":9725:9804   */\n      tag_198\n      tag_57\n      jump\t// in\n    tag_198:\n        /* \"#utility.yul\":9689:9806   */\n    tag_197:\n        /* \"#utility.yul\":9830:9893   */\n      tag_199\n        /* \"#utility.yul\":9885:9892   */\n      dup6\n        /* \"#utility.yul\":9876:9882   */\n      dup3\n        /* \"#utility.yul\":9865:9874   */\n      dup7\n        /* \"#utility.yul\":9861:9883   */\n      add\n        /* \"#utility.yul\":9830:9893   */\n      tag_86\n      jump\t// in\n    tag_199:\n        /* \"#utility.yul\":9820:9893   */\n      swap2\n      pop\n        /* \"#utility.yul\":9615:9903   */\n      pop\n        /* \"#utility.yul\":9256:9910   */\n      swap3\n      pop\n      swap3\n      swap1\n      pop\n      jump\t// out\n        /* \"#utility.yul\":9916:10096   */\n    tag_28:\n        /* \"#utility.yul\":9964:10041   */\n      0x4e487b7100000000000000000000000000000000000000000000000000000000\n        /* \"#utility.yul\":9961:9962   */\n      0x00\n        /* \"#utility.yul\":9954:10042   */\n      mstore\n        /* \"#utility.yul\":10061:10065   */\n      0x32\n        /* \"#utility.yul\":10058:10059   */\n      0x04\n        /* \"#utility.yul\":10051:10066   */\n      mstore\n        /* \"#utility.yul\":10085:10089   */\n      0x24\n        /* \"#utility.yul\":10082:10083   */\n      0x00\n        /* \"#utility.yul\":10075:10090   */\n      revert\n        /* \"#utility.yul\":10102:10282   */\n    tag_87:\n        /* \"#utility.yul\":10150:10227   */\n      0x4e487b7100000000000000000000000000000000000000000000000000000000\n        /* \"#utility.yul\":10147:10148   */\n      0x00\n        /* \"#utility.yul\":10140:10228   */\n      mstore\n        /* \"#utility.yul\":10247:10251   */\n      0x22\n        /* \"#utility.yul\":10244:10245   */\n      0x04\n        /* \"#utility.yul\":10237:10252   */\n      mstore\n        /* \"#utility.yul\":10271:10275   */\n      0x24\n        /* \"#utility.yul\":10268:10269   */\n      0x00\n        /* \"#utility.yul\":10261:10276   */\n      revert\n        /* \"#utility.yul\":10288:10608   */\n    tag_35:\n        /* \"#utility.yul\":10332:10338   */\n      0x00\n        /* \"#utility.yul\":10369:10370   */\n      0x02\n        /* \"#utility.yul\":10363:10367   */\n      dup3\n        /* \"#utility.yul\":10359:10371   */\n      div\n        /* \"#utility.yul\":10349:10371   */\n      swap1\n      pop\n        /* \"#utility.yul\":10416:10417   */\n      0x01\n        /* \"#utility.yul\":10410:10414   */\n      dup3\n        /* \"#utility.yul\":10406:10418   */\n      and\n        /* \"#utility.yul\":10437:10455   */\n      dup1\n        /* \"#utility.yul\":10427:10508   */\n      tag_203\n      jumpi\n        /* \"#utility.yul\":10493:10497   */\n      0x7f\n        /* \"#utility.yul\":10485:10491   */\n      dup3\n        /* \"#utility.yul\":10481:10498   */\n      and\n        /* \"#utility.yul\":10471:10498   */\n      swap2\n      pop\n        /* \"#utility.yul\":10427:10508   */\n    tag_203:\n        /* \"#utility.yul\":10555:10557   */\n      0x20\n        /* \"#utility.yul\":10547:10553   */\n      dup3\n        /* \"#utility.yul\":10544:10558   */\n      lt\n        /* \"#utility.yul\":10524:10542   */\n      dup2\n        /* \"#utility.yul\":10521:10559   */\n      sub\n        /* \"#utility.yul\":10518:10602   */\n      tag_204\n      jumpi\n        /* \"#utility.yul\":10574:10592   */\n      tag_205\n      tag_87\n      jump\t// in\n    tag_205:\n        /* \"#utility.yul\":10518:10602   */\n    tag_204:\n        /* \"#utility.yul\":10339:10608   */\n      pop\n        /* \"#utility.yul\":10288:10608   */\n      swap2\n      swap1\n      pop\n      jump\t// out\n        /* \"#utility.yul\":10614:10794   */\n    tag_88:\n        /* \"#utility.yul\":10662:10739   */\n      0x4e487b7100000000000000000000000000000000000000000000000000000000\n        /* \"#utility.yul\":10659:10660   */\n      0x00\n        /* \"#utility.yul\":10652:10740   */\n      mstore\n        /* \"#utility.yul\":10759:10763   */\n      0x11\n        /* \"#utility.yul\":10756:10757   */\n      0x04\n        /* \"#utility.yul\":10749:10764   */\n      mstore\n        /* \"#utility.yul\":10783:10787   */\n      0x24\n        /* \"#utility.yul\":10780:10781   */\n      0x00\n        /* \"#utility.yul\":10773:10788   */\n      revert\n        /* \"#utility.yul\":10800:11033   */\n    tag_48:\n        /* \"#utility.yul\":10839:10842   */\n      0x00\n        /* \"#utility.yul\":10862:10886   */\n      tag_208\n        /* \"#utility.yul\":10880:10885   */\n      dup3\n        /* \"#utility.yul\":10862:10886   */\n      tag_58\n      jump\t// in\n    tag_208:\n        /* \"#utility.yul\":10853:10886   */\n      swap2\n      pop\n        /* \"#utility.yul\":10908:10974   */\n      0xffffffffffffffffffffffffffffffffffffffffffffffffffffffffffffffff\n        /* \"#utility.yul\":10901:10906   */\n      dup3\n        /* \"#utility.yul\":10898:10975   */\n      sub\n        /* \"#utility.yul\":10895:10998   */\n      tag_209\n      jumpi\n        /* \"#utility.yul\":10978:10996   */\n      tag_210\n      tag_88\n      jump\t// in\n    tag_210:\n        /* \"#utility.yul\":10895:10998   */\n    tag_209:\n        /* \"#utility.yul\":11025:11026   */\n      0x01\n        /* \"#utility.yul\":11018:11023   */\n      dup3\n        /* \"#utility.yul\":11014:11027   */\n      add\n        /* \"#utility.yul\":11007:11027   */\n      swap1\n      pop\n        /* \"#utility.yul\":10800:11033   */\n      swap2\n      swap1\n      pop\n      jump\t// out\n        /* \"#utility.yul\":11039:11180   */\n    tag_89:\n        /* \"#utility.yul\":11088:11092   */\n      0x00\n        /* \"#utility.yul\":11111:11114   */\n      dup2\n        /* \"#utility.yul\":11103:11114   */\n      swap1\n      pop\n        /* \"#utility.yul\":11134:11137   */\n      dup2\n        /* \"#utility.yul\":11131:11132   */\n      0x00\n        /* \"#utility.yul\":11124:11138   */\n      mstore\n        /* \"#utility.yul\":11168:11172   */\n      0x20\n        /* \"#utility.yul\":11165:11166   */\n      0x00\n        /* \"#utility.yul\":11155:11173   */\n      keccak256\n        /* \"#utility.yul\":11147:11173   */\n      swap1\n      pop\n        /* \"#utility.yul\":11039:11180   */\n      swap2\n      swap1\n      pop\n      jump\t// out\n        /* \"#utility.yul\":11186:11279   */\n    tag_90:\n        /* \"#utility.yul\":11223:11229   */\n      0x00\n        /* \"#utility.yul\":11270:11272   */\n      0x20\n        /* \"#utility.yul\":11265:11267   */\n      0x1f\n        /* \"#utility.yul\":11258:11263   */\n      dup4\n        /* \"#utility.yul\":11254:11268   */\n      add\n        /* \"#utility.yul\":11250:11273   */\n      div\n        /* \"#utility.yul\":11240:11273   */\n      swap1\n      pop\n        /* \"#utility.yul\":11186:11279   */\n      swap2\n      swap1\n      pop\n      jump\t// out\n        /* \"#utility.yul\":11285:11392   */\n    tag_91:\n        /* \"#utility.yul\":11329:11337   */\n      0x00\n        /* \"#utility.yul\":11379:11384   */\n      dup3\n        /* \"#utility.yul\":11373:11377   */\n      dup3\n        /* \"#utility.yul\":11369:11385   */\n      shl\n        /* \"#utility.yul\":11348:11385   */\n      swap1\n      pop\n        /* \"#utility.yul\":11285:11392   */\n      swap3\n      swap2\n      pop\n      pop\n      jump\t// out\n        /* \"#utility.yul\":11398:11791   */\n    tag_92:\n        /* \"#utility.yul\":11467:11473   */\n      0x00\n        /* \"#utility.yul\":11517:11518   */\n      0x08\n        /* \"#utility.yul\":11505:11515   */\n      dup4\n        /* \"#utility.yul\":11501:11519   */\n      mul\n        /* \"#utility.yul\":11540:11637   */\n      tag_215\n        /* \"#utility.yul\":11570:11636   */\n      0xffffffffffffffffffffffffffffffffffffffffffffffffffffffffffffffff\n        /* \"#utility.yul\":11559:11568   */\n      dup3\n        /* \"#utility.yul\":11540:11637   */\n      tag_91\n      jump\t// in\n    tag_215:\n        /* \"#utility.yul\":11658:11697   */\n      tag_216\n        /* \"#utility.yul\":11688:11696   */\n      dup7\n        /* \"#utility.yul\":11677:11686   */\n      dup4\n        /* \"#utility.yul\":11658:11697   */\n      tag_91\n      jump\t// in\n    tag_216:\n        /* \"#utility.yul\":11646:11697   */\n      swap6\n      pop\n        /* \"#utility.yul\":11730:11734   */\n      dup1\n        /* \"#utility.yul\":11726:11735   */\n      not\n        /* \"#utility.yul\":11719:11724   */\n      dup5\n        /* \"#utility.yul\":11715:11736   */\n      and\n        /* \"#utility.yul\":11706:11736   */\n      swap4\n      pop\n        /* \"#utility.yul\":11779:11783   */\n      dup1\n        /* \"#utility.yul\":11769:11777   */\n      dup7\n        /* \"#utility.yul\":11765:11784   */\n      and\n        /* \"#utility.yul\":11758:11763   */\n      dup5\n        /* \"#utility.yul\":11755:11785   */\n      or\n        /* \"#utility.yul\":11745:11785   */\n      swap3\n      pop\n        /* \"#utility.yul\":11474:11791   */\n      pop\n      pop\n        /* \"#utility.yul\":11398:11791   */\n      swap4\n      swap3\n      pop\n      pop\n      pop\n      jump\t// out\n        /* \"#utility.yul\":11797:11857   */\n    tag_93:\n        /* \"#utility.yul\":11825:11828   */\n      0x00\n        /* \"#utility.yul\":11846:11851   */\n      dup2\n        /* \"#utility.yul\":11839:11851   */\n      swap1\n      pop\n        /* \"#utility.yul\":11797:11857   */\n      swap2\n      swap1\n      pop\n      jump\t// out\n        /* \"#utility.yul\":11863:12005   */\n    tag_94:\n        /* \"#utility.yul\":11913:11922   */\n      0x00\n        /* \"#utility.yul\":11946:11999   */\n      tag_219\n        /* \"#utility.yul\":11964:11998   */\n      tag_220\n        /* \"#utility.yul\":11973:11997   */\n      tag_221\n        /* \"#utility.yul\":11991:11996   */\n      dup5\n        /* \"#utility.yul\":11973:11997   */\n      tag_58\n      jump\t// in\n    tag_221:\n        /* \"#utility.yul\":11964:11998   */\n      tag_93\n      jump\t// in\n    tag_220:\n        /* \"#utility.yul\":11946:11999   */\n      tag_58\n      jump\t// in\n    tag_219:\n        /* \"#utility.yul\":11933:11999   */\n      swap1\n      pop\n        /* \"#utility.yul\":11863:12005   */\n      swap2\n      swap1\n      pop\n      jump\t// out\n        /* \"#utility.yul\":12011:12086   */\n    tag_95:\n        /* \"#utility.yul\":12054:12057   */\n      0x00\n        /* \"#utility.yul\":12075:12080   */\n      dup2\n        /* \"#utility.yul\":12068:12080   */\n      swap1\n      pop\n        /* \"#utility.yul\":12011:12086   */\n      swap2\n      swap1\n      pop\n      jump\t// out\n        /* \"#utility.yul\":12092:12361   */\n    tag_96:\n        /* \"#utility.yul\":12202:12241   */\n      tag_224\n        /* \"#utility.yul\":12233:12240   */\n      dup4\n        /* \"#utility.yul\":12202:12241   */\n      tag_94\n      jump\t// in\n    tag_224:\n        /* \"#utility.yul\":12263:12354   */\n      tag_225\n        /* \"#utility.yul\":12312:12353   */\n      tag_226\n        /* \"#utility.yul\":12336:12352   */\n      dup3\n        /* \"#utility.yul\":12312:12353   */\n      tag_95\n      jump\t// in\n    tag_226:\n        /* \"#utility.yul\":12304:12310   */\n      dup5\n        /* \"#utility.yul\":12297:12301   */\n      dup5\n        /* \"#utility.yul\":12291:12302   */\n      sload\n        /* \"#utility.yul\":12263:12354   */\n      tag_92\n      jump\t// in\n    tag_225:\n        /* \"#utility.yul\":12257:12261   */\n      dup3\n        /* \"#utility.yul\":12250:12355   */\n      sstore\n        /* \"#utility.yul\":12168:12361   */\n      pop\n        /* \"#utility.yul\":12092:12361   */\n      pop\n      pop\n      pop\n      jump\t// out\n        /* \"#utility.yul\":12367:12440   */\n    tag_97:\n        /* \"#utility.yul\":12412:12415   */\n      0x00\n        /* \"#utility.yul\":12367:12440   */\n      swap1\n      jump\t// out\n        /* \"#utility.yul\":12446:12635   */\n    tag_98:\n        /* \"#utility.yul\":12523:12555   */\n      tag_229\n      tag_97\n      jump\t// in\n    tag_229:\n        /* \"#utility.yul\":12564:12629   */\n      tag_230\n        /* \"#utility.yul\":12622:12628   */\n      dup2\n        /* \"#utility.yul\":12614:12620   */\n      dup5\n        /* \"#utility.yul\":12608:12612   */\n      dup5\n        /* \"#utility.yul\":12564:12629   */\n      tag_96\n      jump\t// in\n    tag_230:\n        /* \"#utility.yul\":12499:12635   */\n      pop\n        /* \"#utility.yul\":12446:12635   */\n      pop\n      pop\n      jump\t// out\n        /* \"#utility.yul\":12641:12827   */\n    tag_99:\n        /* \"#utility.yul\":12701:12821   */\n    tag_232:\n        /* \"#utility.yul\":12718:12721   */\n      dup2\n        /* \"#utility.yul\":12711:12716   */\n      dup2\n        /* \"#utility.yul\":12708:12722   */\n      lt\n        /* \"#utility.yul\":12701:12821   */\n      iszero\n      tag_234\n      jumpi\n        /* \"#utility.yul\":12772:12811   */\n      tag_235\n        /* \"#utility.yul\":12809:12810   */\n      0x00\n        /* \"#utility.yul\":12802:12807   */\n      dup3\n        /* \"#utility.yul\":12772:12811   */\n      tag_98\n      jump\t// in\n    tag_235:\n        /* \"#utility.yul\":12745:12746   */\n      0x01\n        /* \"#utility.yul\":12738:12743   */\n      dup2\n        /* \"#utility.yul\":12734:12747   */\n      add\n        /* \"#utility.yul\":12725:12747   */\n      swap1\n      pop\n        /* \"#utility.yul\":12701:12821   */\n      jump(tag_232)\n    tag_234:\n        /* \"#utility.yul\":12641:12827   */\n      pop\n      pop\n      jump\t// out\n        /* \"#utility.yul\":12833:13376   */\n    tag_100:\n        /* \"#utility.yul\":12934:12936   */\n      0x1f\n        /* \"#utility.yul\":12929:12932   */\n      dup3\n        /* \"#utility.yul\":12926:12937   */\n      gt\n        /* \"#utility.yul\":12923:13369   */\n      iszero\n      tag_237\n      jumpi\n        /* \"#utility.yul\":12968:13006   */\n      tag_238\n        /* \"#utility.yul\":13000:13005   */\n      dup2\n        /* \"#utility.yul\":12968:13006   */\n      tag_89\n      jump\t// in\n    tag_238:\n        /* \"#utility.yul\":13052:13081   */\n      tag_239\n        /* \"#utility.yul\":13070:13080   */\n      dup5\n        /* \"#utility.yul\":13052:13081   */\n      tag_90\n      jump\t// in\n    tag_239:\n        /* \"#utility.yul\":13042:13050   */\n      dup2\n        /* \"#utility.yul\":13038:13082   */\n      add\n        /* \"#utility.yul\":13235:13237   */\n      0x20\n        /* \"#utility.yul\":13223:13233   */\n      dup6\n        /* \"#utility.yul\":13220:13238   */\n      lt\n        /* \"#utility.yul\":13217:13266   */\n      iszero\n      tag_240\n      jumpi\n        /* \"#utility.yul\":13256:13264   */\n      dup2\n        /* \"#utility.yul\":13241:13264   */\n      swap1\n      pop\n        /* \"#utility.yul\":13217:13266   */\n    tag_240:\n        /* \"#utility.yul\":13279:13359   */\n      tag_241\n        /* \"#utility.yul\":13335:13357   */\n      tag_242\n        /* \"#utility.yul\":13353:13356   */\n      dup6\n        /* \"#utility.yul\":13335:13357   */\n      tag_90\n      jump\t// in\n    tag_242:\n        /* \"#utility.yul\":13325:13333   */\n      dup4\n        /* \"#utility.yul\":13321:13358   */\n      add\n        /* \"#utility.yul\":13308:13319   */\n      dup3\n        /* \"#utility.yul\":13279:13359   */\n      tag_99\n      jump\t// in\n    tag_241:\n        /* \"#utility.yul\":12938:13369   */\n      pop\n      pop\n        /* \"#utility.yul\":12923:13369   */\n    tag_237:\n        /* \"#utility.yul\":12833:13376   */\n      pop\n      pop\n      pop\n      jump\t// out\n        /* \"#utility.yul\":13382:13499   */\n    tag_101:\n        /* \"#utility.yul\":13436:13444   */\n      0x00\n        /* \"#utility.yul\":13486:13491   */\n      dup3\n        /* \"#utility.yul\":13480:13484   */\n      dup3\n        /* \"#utility.yul\":13476:13492   */\n      shr\n        /* \"#utility.yul\":13455:13492   */\n      swap1\n      pop\n        /* \"#utility.yul\":13382:13499   */\n      swap3\n      swap2\n      pop\n      pop\n      jump\t// out\n        /* \"#utility.yul\":13505:13674   */\n    tag_102:\n        /* \"#utility.yul\":13549:13555   */\n      0x00\n        /* \"#utility.yul\":13582:13633   */\n      tag_245\n        /* \"#utility.yul\":13630:13631   */\n      0x00\n        /* \"#utility.yul\":13626:13632   */\n      not\n        /* \"#utility.yul\":13618:13623   */\n      dup5\n        /* \"#utility.yul\":13615:13616   */\n      0x08\n        /* \"#utility.yul\":13611:13624   */\n      mul\n        /* \"#utility.yul\":13582:13633   */\n      tag_101\n      jump\t// in\n    tag_245:\n        /* \"#utility.yul\":13578:13634   */\n      not\n        /* \"#utility.yul\":13663:13667   */\n      dup1\n        /* \"#utility.yul\":13657:13661   */\n      dup4\n        /* \"#utility.yul\":13653:13668   */\n      and\n        /* \"#utility.yul\":13643:13668   */\n      swap2\n      pop\n        /* \"#utility.yul\":13556:13674   */\n      pop\n        /* \"#utility.yul\":13505:13674   */\n      swap3\n      swap2\n      pop\n      pop\n      jump\t// out\n        /* \"#utility.yul\":13679:13974   */\n    tag_103:\n        /* \"#utility.yul\":13755:13759   */\n      0x00\n        /* \"#utility.yul\":13901:13930   */\n      tag_247\n        /* \"#utility.yul\":13926:13929   */\n      dup4\n        /* \"#utility.yul\":13920:13924   */\n      dup4\n        /* \"#utility.yul\":13901:13930   */\n      tag_102\n      jump\t// in\n    tag_247:\n        /* \"#utility.yul\":13893:13930   */\n      swap2\n      pop\n        /* \"#utility.yul\":13963:13966   */\n      dup3\n        /* \"#utility.yul\":13960:13961   */\n      0x02\n        /* \"#utility.yul\":13956:13967   */\n      mul\n        /* \"#utility.yul\":13950:13954   */\n      dup3\n        /* \"#utility.yul\":13947:13968   */\n      or\n        /* \"#utility.yul\":13939:13968   */\n      swap1\n      pop\n        /* \"#utility.yul\":13679:13974   */\n      swap3\n      swap2\n      pop\n      pop\n      jump\t// out\n        /* \"#utility.yul\":13979:15374   */\n    tag_53:\n        /* \"#utility.yul\":14096:14133   */\n      tag_249\n        /* \"#utility.yul\":14129:14132   */\n      dup3\n        /* \"#utility.yul\":14096:14133   */\n      tag_68\n      jump\t// in\n    tag_249:\n        /* \"#utility.yul\":14198:14216   */\n      0xffffffffffffffff\n        /* \"#utility.yul\":14190:14196   */\n      dup2\n        /* \"#utility.yul\":14187:14217   */\n      gt\n        /* \"#utility.yul\":14184:14240   */\n      iszero\n      tag_250\n      jumpi\n        /* \"#utility.yul\":14220:14238   */\n      tag_251\n      tag_18\n      jump\t// in\n    tag_251:\n        /* \"#utility.yul\":14184:14240   */\n    tag_250:\n        /* \"#utility.yul\":14264:14302   */\n      tag_252\n        /* \"#utility.yul\":14296:14300   */\n      dup3\n        /* \"#utility.yul\":14290:14301   */\n      sload\n        /* \"#utility.yul\":14264:14302   */\n      tag_35\n      jump\t// in\n    tag_252:\n        /* \"#utility.yul\":14349:14416   */\n      tag_253\n        /* \"#utility.yul\":14409:14415   */\n      dup3\n        /* \"#utility.yul\":14401:14407   */\n      dup3\n        /* \"#utility.yul\":14395:14399   */\n      dup6\n        /* \"#utility.yul\":14349:14416   */\n      tag_100\n      jump\t// in\n    tag_253:\n        /* \"#utility.yul\":14443:14444   */\n      0x00\n        /* \"#utility.yul\":14467:14471   */\n      0x20\n        /* \"#utility.yul\":14454:14471   */\n      swap1\n      pop\n        /* \"#utility.yul\":14499:14501   */\n      0x1f\n        /* \"#utility.yul\":14491:14497   */\n      dup4\n        /* \"#utility.yul\":14488:14502   */\n      gt\n        /* \"#utility.yul\":14516:14517   */\n      0x01\n        /* \"#utility.yul\":14511:15129   */\n      dup2\n      eq\n      tag_255\n      jumpi\n        /* \"#utility.yul\":15173:15174   */\n      0x00\n        /* \"#utility.yul\":15190:15196   */\n      dup5\n        /* \"#utility.yul\":15187:15264   */\n      iszero\n      tag_256\n      jumpi\n        /* \"#utility.yul\":15239:15248   */\n      dup3\n        /* \"#utility.yul\":15234:15237   */\n      dup8\n        /* \"#utility.yul\":15230:15249   */\n      add\n        /* \"#utility.yul\":15224:15250   */\n      mload\n        /* \"#utility.yul\":15215:15250   */\n      swap1\n      pop\n        /* \"#utility.yul\":15187:15264   */\n    tag_256:\n        /* \"#utility.yul\":15290:15357   */\n      tag_257\n        /* \"#utility.yul\":15350:15356   */\n      dup6\n        /* \"#utility.yul\":15343:15348   */\n      dup3\n        /* \"#utility.yul\":15290:15357   */\n      tag_103\n      jump\t// in\n    tag_257:\n        /* \"#utility.yul\":15284:15288   */\n      dup7\n        /* \"#utility.yul\":15277:15358   */\n      sstore\n        /* \"#utility.yul\":15146:15368   */\n      pop\n        /* \"#utility.yul\":14481:15368   */\n      jump(tag_254)\n        /* \"#utility.yul\":14511:15129   */\n    tag_255:\n        /* \"#utility.yul\":14563:14567   */\n      0x1f\n        /* \"#utility.yul\":14559:14568   */\n      not\n        /* \"#utility.yul\":14551:14557   */\n      dup5\n        /* \"#utility.yul\":14547:14569   */\n      and\n        /* \"#utility.yul\":14597:14634   */\n      tag_258\n        /* \"#utility.yul\":14629:14633   */\n      dup7\n        /* \"#utility.yul\":14597:14634   */\n      tag_89\n      jump\t// in\n    tag_258:\n        /* \"#utility.yul\":14656:14657   */\n      0x00\n        /* \"#utility.yul\":14670:14878   */\n    tag_259:\n        /* \"#utility.yul\":14684:14691   */\n      dup3\n        /* \"#utility.yul\":14681:14682   */\n      dup2\n        /* \"#utility.yul\":14678:14692   */\n      lt\n        /* \"#utility.yul\":14670:14878   */\n      iszero\n      tag_261\n      jumpi\n        /* \"#utility.yul\":14763:14772   */\n      dup5\n        /* \"#utility.yul\":14758:14761   */\n      dup10\n        /* \"#utility.yul\":14754:14773   */\n      add\n        /* \"#utility.yul\":14748:14774   */\n      mload\n        /* \"#utility.yul\":14740:14746   */\n      dup3\n        /* \"#utility.yul\":14733:14775   */\n      sstore\n        /* \"#utility.yul\":14814:14815   */\n      0x01\n        /* \"#utility.yul\":14806:14812   */\n      dup3\n        /* \"#utility.yul\":14802:14816   */\n      add\n        /* \"#utility.yul\":14792:14816   */\n      swap2\n      pop\n        /* \"#utility.yul\":14861:14863   */\n      0x20\n        /* \"#utility.yul\":14850:14859   */\n      dup6\n        /* \"#utility.yul\":14846:14864   */\n      add\n        /* \"#utility.yul\":14833:14864   */\n      swap5\n      pop\n        /* \"#utility.yul\":14707:14711   */\n      0x20\n        /* \"#utility.yul\":14704:14705   */\n      dup2\n        /* \"#utility.yul\":14700:14712   */\n      add\n        /* \"#utility.yul\":14695:14712   */\n      swap1\n      pop\n        /* \"#utility.yul\":14670:14878   */\n      jump(tag_259)\n    tag_261:\n        /* \"#utility.yul\":14906:14912   */\n      dup7\n        /* \"#utility.yul\":14897:14904   */\n      dup4\n        /* \"#utility.yul\":14894:14913   */\n      lt\n        /* \"#utility.yul\":14891:15070   */\n      iszero\n      tag_262\n      jumpi\n        /* \"#utility.yul\":14964:14973   */\n      dup5\n        /* \"#utility.yul\":14959:14962   */\n      dup10\n        /* \"#utility.yul\":14955:14974   */\n      add\n        /* \"#utility.yul\":14949:14975   */\n      mload\n        /* \"#utility.yul\":15007:15055   */\n      tag_263\n        /* \"#utility.yul\":15049:15053   */\n      0x1f\n        /* \"#utility.yul\":15041:15047   */\n      dup10\n        /* \"#utility.yul\":15037:15054   */\n      and\n        /* \"#utility.yul\":15026:15035   */\n      dup3\n        /* \"#utility.yul\":15007:15055   */\n      tag_102\n      jump\t// in\n    tag_263:\n        /* \"#utility.yul\":14999:15005   */\n      dup4\n        /* \"#utility.yul\":14992:15056   */\n      sstore\n        /* \"#utility.yul\":14914:15070   */\n      pop\n        /* \"#utility.yul\":14891:15070   */\n    tag_262:\n        /* \"#utility.yul\":15116:15117   */\n      0x01\n        /* \"#utility.yul\":15112:15113   */\n      0x02\n        /* \"#utility.yul\":15104:15110   */\n      dup9\n        /* \"#utility.yul\":15100:15114   */\n      mul\n        /* \"#utility.yul\":15096:15118   */\n      add\n        /* \"#utility.yul\":15090:15094   */\n      dup9\n        /* \"#utility.yul\":15083:15119   */\n      sstore\n        /* \"#utility.yul\":14518:15129   */\n      pop\n      pop\n      pop\n        /* \"#utility.yul\":14481:15368   */\n    tag_254:\n      pop\n        /* \"#utility.yul\":14071:15374   */\n      pop\n      pop\n      pop\n        /* \"#utility.yul\":13979:15374   */\n      pop\n      pop\n      jump\t// out\n\n    auxdata: 0xa2646970667358221220a17034e419c428fdaa9131d8676aeba3c7585fa385638af03b744864127c9d6964736f6c634300080f0033\n}\n",
				"bytecode": {
					"linkReferences": {},
					"object": "608060405234801561001057600080fd5b50610df8806100206000396000f3fe608060405234801561001057600080fd5b50600436106100365760003560e01c8063904cc1751461003b578063fd6689071461006b575b600080fd5b610055600480360381019061005091906105e4565b610087565b604051610062919061085f565b60405180910390f35b610085600480360381019061008091906109e2565b610379565b005b6060600060018054905067ffffffffffffffff8111156100aa576100a96108b7565b5b6040519080825280602002602001820160405280156100e357816020015b6100d0610531565b8152602001906001900390816100c85790505b50905060005b60018054905081101561036f57836001828154811061010b5761010a610a3e565b5b9060005260206000209060070201600101540361035c576001818154811061013657610135610a3e565b5b90600052602060002090600702016040518060e001604052908160008201548152602001600182015481526020016002820160009054906101000a900473ffffffffffffffffffffffffffffffffffffffff1673ffffffffffffffffffffffffffffffffffffffff1673ffffffffffffffffffffffffffffffffffffffff1681526020016003820160009054906101000a900473ffffffffffffffffffffffffffffffffffffffff1673ffffffffffffffffffffffffffffffffffffffff1673ffffffffffffffffffffffffffffffffffffffff1681526020016004820154815260200160058201805461022990610a9c565b80601f016020809104026020016040519081016040528092919081815260200182805461025590610a9c565b80156102a25780601f10610277576101008083540402835291602001916102a2565b820191906000526020600020905b81548152906001019060200180831161028557829003601f168201915b505050505081526020016006820180546102bb90610a9c565b80601f01602080910402602001604051908101604052809291908181526020018280546102e790610a9c565b80156103345780601f1061030957610100808354040283529160200191610334565b820191906000526020600020905b81548152906001019060200180831161031757829003601f168201915b5050505050815250508282815181106103505761034f610a3e565b5b60200260200101819052505b808061036790610afc565b9150506100e9565b5080915050919050565b60008081548092919061038b90610afc565b919050555060016040518060e001604052806000548152602001600081526020013373ffffffffffffffffffffffffffffffffffffffff1681526020018473ffffffffffffffffffffffffffffffffffffffff168152602001600081526020018381526020016040518060400160405280600181526020017f30000000000000000000000000000000000000000000000000000000000000008152508152509080600181540180825580915050600190039060005260206000209060070201600090919091909150600082015181600001556020820151816001015560408201518160020160006101000a81548173ffffffffffffffffffffffffffffffffffffffff021916908373ffffffffffffffffffffffffffffffffffffffff16021790555060608201518160030160006101000a81548173ffffffffffffffffffffffffffffffffffffffff021916908373ffffffffffffffffffffffffffffffffffffffff1602179055506080820151816004015560a08201518160050190816105149190610cf0565b5060c082015181600601908161052a9190610cf0565b5050505050565b6040518060e001604052806000815260200160008152602001600073ffffffffffffffffffffffffffffffffffffffff168152602001600073ffffffffffffffffffffffffffffffffffffffff1681526020016000815260200160608152602001606081525090565b6000604051905090565b600080fd5b600080fd5b6000819050919050565b6105c1816105ae565b81146105cc57600080fd5b50565b6000813590506105de816105b8565b92915050565b6000602082840312156105fa576105f96105a4565b5b6000610608848285016105cf565b91505092915050565b600081519050919050565b600082825260208201905092915050565b6000819050602082019050919050565b610646816105ae565b82525050565b600073ffffffffffffffffffffffffffffffffffffffff82169050919050565b60006106778261064c565b9050919050565b6106878161066c565b82525050565b600081519050919050565b600082825260208201905092915050565b60005b838110156106c75780820151818401526020810190506106ac565b838111156106d6576000848401525b50505050565b6000601f19601f8301169050919050565b60006106f88261068d565b6107028185610698565b93506107128185602086016106a9565b61071b816106dc565b840191505092915050565b600060e08301600083015161073e600086018261063d565b506020830151610751602086018261063d565b506040830151610764604086018261067e565b506060830151610777606086018261067e565b50608083015161078a608086018261063d565b5060a083015184820360a08601526107a282826106ed565b91505060c083015184820360c08601526107bc82826106ed565b9150508091505092915050565b60006107d58383610726565b905092915050565b6000602082019050919050565b60006107f582610611565b6107ff818561061c565b9350836020820285016108118561062d565b8060005b8581101561084d578484038952815161082e85826107c9565b9450610839836107dd565b925060208a01995050600181019050610815565b50829750879550505050505092915050565b6000602082019050818103600083015261087981846107ea565b905092915050565b61088a8161066c565b811461089557600080fd5b50565b6000813590506108a781610881565b92915050565b600080fd5b600080fd5b7f4e487b7100000000000000000000000000000000000000000000000000000000600052604160045260246000fd5b6108ef826106dc565b810181811067ffffffffffffffff8211171561090e5761090d6108b7565b5b80604052505050565b600061092161059a565b905061092d82826108e6565b919050565b600067ffffffffffffffff82111561094d5761094c6108b7565b5b610956826106dc565b9050602081019050919050565b82818337600083830152505050565b600061098561098084610932565b610917565b9050828152602081018484840111156109a1576109a06108b2565b5b6109ac848285610963565b509392505050565b600082601f8301126109c9576109c86108ad565b5b81356109d9848260208601610972565b91505092915050565b600080604083850312156109f9576109f86105a4565b5b6000610a0785828601610898565b925050602083013567ffffffffffffffff811115610a2857610a276105a9565b5b610a34858286016109b4565b9150509250929050565b7f4e487b7100000000000000000000000000000000000000000000000000000000600052603260045260246000fd5b7f4e487b7100000000000000000000000000000000000000000000000000000000600052602260045260246000fd5b60006002820490506001821680610ab457607f821691505b602082108103610ac757610ac6610a6d565b5b50919050565b7f4e487b7100000000000000000000000000000000000000000000000000000000600052601160045260246000fd5b6000610b07826105ae565b91507fffffffffffffffffffffffffffffffffffffffffffffffffffffffffffffffff8203610b3957610b38610acd565b5b600182019050919050565b60008190508160005260206000209050919050565b60006020601f8301049050919050565b600082821b905092915050565b600060088302610ba67fffffffffffffffffffffffffffffffffffffffffffffffffffffffffffffffff82610b69565b610bb08683610b69565b95508019841693508086168417925050509392505050565b6000819050919050565b6000610bed610be8610be3846105ae565b610bc8565b6105ae565b9050919050565b6000819050919050565b610c0783610bd2565b610c1b610c1382610bf4565b848454610b76565b825550505050565b600090565b610c30610c23565b610c3b818484610bfe565b505050565b5b81811015610c5f57610c54600082610c28565b600181019050610c41565b5050565b601f821115610ca457610c7581610b44565b610c7e84610b59565b81016020851015610c8d578190505b610ca1610c9985610b59565b830182610c40565b50505b505050565b600082821c905092915050565b6000610cc760001984600802610ca9565b1980831691505092915050565b6000610ce08383610cb6565b9150826002028217905092915050565b610cf98261068d565b67ffffffffffffffff811115610d1257610d116108b7565b5b610d1c8254610a9c565b610d27828285610c63565b600060209050601f831160018114610d5a5760008415610d48578287015190505b610d528582610cd4565b865550610dba565b601f198416610d6886610b44565b60005b82811015610d9057848901518255600182019150602085019450602081019050610d6b565b86831015610dad5784890151610da9601f891682610cb6565b8355505b6001600288020188555050505b50505050505056fea2646970667358221220a17034e419c428fdaa9131d8676aeba3c7585fa385638af03b744864127c9d6964736f6c634300080f0033",
					"opcodes": "PUSH1 0x80 PUSH1 0x40 MSTORE CALLVALUE DUP1 ISZERO PUSH2 0x10 JUMPI PUSH1 0x0 DUP1 REVERT JUMPDEST POP PUSH2 0xDF8 DUP1 PUSH2 0x20 PUSH1 0x0 CODECOPY PUSH1 0x0 RETURN INVALID PUSH1 0x80 PUSH1 0x40 MSTORE CALLVALUE DUP1 ISZERO PUSH2 0x10 JUMPI PUSH1 0x0 DUP1 REVERT JUMPDEST POP PUSH1 0x4 CALLDATASIZE LT PUSH2 0x36 JUMPI PUSH1 0x0 CALLDATALOAD PUSH1 0xE0 SHR DUP1 PUSH4 0x904CC175 EQ PUSH2 0x3B JUMPI DUP1 PUSH4 0xFD668907 EQ PUSH2 0x6B JUMPI JUMPDEST PUSH1 0x0 DUP1 REVERT JUMPDEST PUSH2 0x55 PUSH1 0x4 DUP1 CALLDATASIZE SUB DUP2 ADD SWAP1 PUSH2 0x50 SWAP2 SWAP1 PUSH2 0x5E4 JUMP JUMPDEST PUSH2 0x87 JUMP JUMPDEST PUSH1 0x40 MLOAD PUSH2 0x62 SWAP2 SWAP1 PUSH2 0x85F JUMP JUMPDEST PUSH1 0x40 MLOAD DUP1 SWAP2 SUB SWAP1 RETURN JUMPDEST PUSH2 0x85 PUSH1 0x4 DUP1 CALLDATASIZE SUB DUP2 ADD SWAP1 PUSH2 0x80 SWAP2 SWAP1 PUSH2 0x9E2 JUMP JUMPDEST PUSH2 0x379 JUMP JUMPDEST STOP JUMPDEST PUSH1 0x60 PUSH1 0x0 PUSH1 0x1 DUP1 SLOAD SWAP1 POP PUSH8 0xFFFFFFFFFFFFFFFF DUP2 GT ISZERO PUSH2 0xAA JUMPI PUSH2 0xA9 PUSH2 0x8B7 JUMP JUMPDEST JUMPDEST PUSH1 0x40 MLOAD SWAP1 DUP1 DUP3 MSTORE DUP1 PUSH1 0x20 MUL PUSH1 0x20 ADD DUP3 ADD PUSH1 0x40 MSTORE DUP1 ISZERO PUSH2 0xE3 JUMPI DUP2 PUSH1 0x20 ADD JUMPDEST PUSH2 0xD0 PUSH2 0x531 JUMP JUMPDEST DUP2 MSTORE PUSH1 0x20 ADD SWAP1 PUSH1 0x1 SWAP1 SUB SWAP1 DUP2 PUSH2 0xC8 JUMPI SWAP1 POP JUMPDEST POP SWAP1 POP PUSH1 0x0 JUMPDEST PUSH1 0x1 DUP1 SLOAD SWAP1 POP DUP2 LT ISZERO PUSH2 0x36F JUMPI DUP4 PUSH1 0x1 DUP3 DUP2 SLOAD DUP2 LT PUSH2 0x10B JUMPI PUSH2 0x10A PUSH2 0xA3E JUMP JUMPDEST JUMPDEST SWAP1 PUSH1 0x0 MSTORE PUSH1 0x20 PUSH1 0x0 KECCAK256 SWAP1 PUSH1 0x7 MUL ADD PUSH1 0x1 ADD SLOAD SUB PUSH2 0x35C JUMPI PUSH1 0x1 DUP2 DUP2 SLOAD DUP2 LT PUSH2 0x136 JUMPI PUSH2 0x135 PUSH2 0xA3E JUMP JUMPDEST JUMPDEST SWAP1 PUSH1 0x0 MSTORE PUSH1 0x20 PUSH1 0x0 KECCAK256 SWAP1 PUSH1 0x7 MUL ADD PUSH1 0x40 MLOAD DUP1 PUSH1 0xE0 ADD PUSH1 0x40 MSTORE SWAP1 DUP2 PUSH1 0x0 DUP3 ADD SLOAD DUP2 MSTORE PUSH1 0x20 ADD PUSH1 0x1 DUP3 ADD SLOAD DUP2 MSTORE PUSH1 0x20 ADD PUSH1 0x2 DUP3 ADD PUSH1 0x0 SWAP1 SLOAD SWAP1 PUSH2 0x100 EXP SWAP1 DIV PUSH20 0xFFFFFFFFFFFFFFFFFFFFFFFFFFFFFFFFFFFFFFFF AND PUSH20 0xFFFFFFFFFFFFFFFFFFFFFFFFFFFFFFFFFFFFFFFF AND PUSH20 0xFFFFFFFFFFFFFFFFFFFFFFFFFFFFFFFFFFFFFFFF AND DUP2 MSTORE PUSH1 0x20 ADD PUSH1 0x3 DUP3 ADD PUSH1 0x0 SWAP1 SLOAD SWAP1 PUSH2 0x100 EXP SWAP1 DIV PUSH20 0xFFFFFFFFFFFFFFFFFFFFFFFFFFFFFFFFFFFFFFFF AND PUSH20 0xFFFFFFFFFFFFFFFFFFFFFFFFFFFFFFFFFFFFFFFF AND PUSH20 0xFFFFFFFFFFFFFFFFFFFFFFFFFFFFFFFFFFFFFFFF AND DUP2 MSTORE PUSH1 0x20 ADD PUSH1 0x4 DUP3 ADD SLOAD DUP2 MSTORE PUSH1 0x20 ADD PUSH1 0x5 DUP3 ADD DUP1 SLOAD PUSH2 0x229 SWAP1 PUSH2 0xA9C JUMP JUMPDEST DUP1 PUSH1 0x1F ADD PUSH1 0x20 DUP1 SWAP2 DIV MUL PUSH1 0x20 ADD PUSH1 0x40 MLOAD SWAP1 DUP2 ADD PUSH1 0x40 MSTORE DUP1 SWAP3 SWAP2 SWAP1 DUP2 DUP2 MSTORE PUSH1 0x20 ADD DUP3 DUP1 SLOAD PUSH2 0x255 SWAP1 PUSH2 0xA9C JUMP JUMPDEST DUP1 ISZERO PUSH2 0x2A2 JUMPI DUP1 PUSH1 0x1F LT PUSH2 0x277 JUMPI PUSH2 0x100 DUP1 DUP4 SLOAD DIV MUL DUP4 MSTORE SWAP2 PUSH1 0x20 ADD SWAP2 PUSH2 0x2A2 JUMP JUMPDEST DUP3 ADD SWAP2 SWAP1 PUSH1 0x0 MSTORE PUSH1 0x20 PUSH1 0x0 KECCAK256 SWAP1 JUMPDEST DUP2 SLOAD DUP2 MSTORE SWAP1 PUSH1 0x1 ADD SWAP1 PUSH1 0x20 ADD DUP1 DUP4 GT PUSH2 0x285 JUMPI DUP3 SWAP1 SUB PUSH1 0x1F AND DUP3 ADD SWAP2 JUMPDEST POP POP POP POP POP DUP2 MSTORE PUSH1 0x20 ADD PUSH1 0x6 DUP3 ADD DUP1 SLOAD PUSH2 0x2BB SWAP1 PUSH2 0xA9C JUMP JUMPDEST DUP1 PUSH1 0x1F ADD PUSH1 0x20 DUP1 SWAP2 DIV MUL PUSH1 0x20 ADD PUSH1 0x40 MLOAD SWAP1 DUP2 ADD PUSH1 0x40 MSTORE DUP1 SWAP3 SWAP2 SWAP1 DUP2 DUP2 MSTORE PUSH1 0x20 ADD DUP3 DUP1 SLOAD PUSH2 0x2E7 SWAP1 PUSH2 0xA9C JUMP JUMPDEST DUP1 ISZERO PUSH2 0x334 JUMPI DUP1 PUSH1 0x1F LT PUSH2 0x309 JUMPI PUSH2 0x100 DUP1 DUP4 SLOAD DIV MUL DUP4 MSTORE SWAP2 PUSH1 0x20 ADD SWAP2 PUSH2 0x334 JUMP JUMPDEST DUP3 ADD SWAP2 SWAP1 PUSH1 0x0 MSTORE PUSH1 0x20 PUSH1 0x0 KECCAK256 SWAP1 JUMPDEST DUP2 SLOAD DUP2 MSTORE SWAP1 PUSH1 0x1 ADD SWAP1 PUSH1 0x20 ADD DUP1 DUP4 GT PUSH2 0x317 JUMPI DUP3 SWAP1 SUB PUSH1 0x1F AND DUP3 ADD SWAP2 JUMPDEST POP POP POP POP POP DUP2 MSTORE POP POP DUP3 DUP3 DUP2 MLOAD DUP2 LT PUSH2 0x350 JUMPI PUSH2 0x34F PUSH2 0xA3E JUMP JUMPDEST JUMPDEST PUSH1 0x20 MUL PUSH1 0x20 ADD ADD DUP2 SWAP1 MSTORE POP JUMPDEST DUP1 DUP1 PUSH2 0x367 SWAP1 PUSH2 0xAFC JUMP JUMPDEST SWAP2 POP POP PUSH2 0xE9 JUMP JUMPDEST POP DUP1 SWAP2 POP POP SWAP2 SWAP1 POP JUMP JUMPDEST PUSH1 0x0 DUP1 DUP2 SLOAD DUP1 SWAP3 SWAP2 SWAP1 PUSH2 0x38B SWAP1 PUSH2 0xAFC JUMP JUMPDEST SWAP2 SWAP1 POP SSTORE POP PUSH1 0x1 PUSH1 0x40 MLOAD DUP1 PUSH1 0xE0 ADD PUSH1 0x40 MSTORE DUP1 PUSH1 0x0 SLOAD DUP2 MSTORE PUSH1 0x20 ADD PUSH1 0x0 DUP2 MSTORE PUSH1 0x20 ADD CALLER PUSH20 0xFFFFFFFFFFFFFFFFFFFFFFFFFFFFFFFFFFFFFFFF AND DUP2 MSTORE PUSH1 0x20 ADD DUP5 PUSH20 0xFFFFFFFFFFFFFFFFFFFFFFFFFFFFFFFFFFFFFFFF AND DUP2 MSTORE PUSH1 0x20 ADD PUSH1 0x0 DUP2 MSTORE PUSH1 0x20 ADD DUP4 DUP2 MSTORE PUSH1 0x20 ADD PUSH1 0x40 MLOAD DUP1 PUSH1 0x40 ADD PUSH1 0x40 MSTORE DUP1 PUSH1 0x1 DUP2 MSTORE PUSH1 0x20 ADD PUSH32 0x3000000000000000000000000000000000000000000000000000000000000000 DUP2 MSTORE POP DUP2 MSTORE POP SWAP1 DUP1 PUSH1 0x1 DUP2 SLOAD ADD DUP1 DUP3 SSTORE DUP1 SWAP2 POP POP PUSH1 0x1 SWAP1 SUB SWAP1 PUSH1 0x0 MSTORE PUSH1 0x20 PUSH1 0x0 KECCAK256 SWAP1 PUSH1 0x7 MUL ADD PUSH1 0x0 SWAP1 SWAP2 SWAP1 SWAP2 SWAP1 SWAP2 POP PUSH1 0x0 DUP3 ADD MLOAD DUP2 PUSH1 0x0 ADD SSTORE PUSH1 0x20 DUP3 ADD MLOAD DUP2 PUSH1 0x1 ADD SSTORE PUSH1 0x40 DUP3 ADD MLOAD DUP2 PUSH1 0x2 ADD PUSH1 0x0 PUSH2 0x100 EXP DUP2 SLOAD DUP2 PUSH20 0xFFFFFFFFFFFFFFFFFFFFFFFFFFFFFFFFFFFFFFFF MUL NOT AND SWAP1 DUP4 PUSH20 0xFFFFFFFFFFFFFFFFFFFFFFFFFFFFFFFFFFFFFFFF AND MUL OR SWAP1 SSTORE POP PUSH1 0x60 DUP3 ADD MLOAD DUP2 PUSH1 0x3 ADD PUSH1 0x0 PUSH2 0x100 EXP DUP2 SLOAD DUP2 PUSH20 0xFFFFFFFFFFFFFFFFFFFFFFFFFFFFFFFFFFFFFFFF MUL NOT AND SWAP1 DUP4 PUSH20 0xFFFFFFFFFFFFFFFFFFFFFFFFFFFFFFFFFFFFFFFF AND MUL OR SWAP1 SSTORE POP PUSH1 0x80 DUP3 ADD MLOAD DUP2 PUSH1 0x4 ADD SSTORE PUSH1 0xA0 DUP3 ADD MLOAD DUP2 PUSH1 0x5 ADD SWAP1 DUP2 PUSH2 0x514 SWAP2 SWAP1 PUSH2 0xCF0 JUMP JUMPDEST POP PUSH1 0xC0 DUP3 ADD MLOAD DUP2 PUSH1 0x6 ADD SWAP1 DUP2 PUSH2 0x52A SWAP2 SWAP1 PUSH2 0xCF0 JUMP JUMPDEST POP POP POP POP POP JUMP JUMPDEST PUSH1 0x40 MLOAD DUP1 PUSH1 0xE0 ADD PUSH1 0x40 MSTORE DUP1 PUSH1 0x0 DUP2 MSTORE PUSH1 0x20 ADD PUSH1 0x0 DUP2 MSTORE PUSH1 0x20 ADD PUSH1 0x0 PUSH20 0xFFFFFFFFFFFFFFFFFFFFFFFFFFFFFFFFFFFFFFFF AND DUP2 MSTORE PUSH1 0x20 ADD PUSH1 0x0 PUSH20 0xFFFFFFFFFFFFFFFFFFFFFFFFFFFFFFFFFFFFFFFF AND DUP2 MSTORE PUSH1 0x20 ADD PUSH1 0x0 DUP2 MSTORE PUSH1 0x20 ADD PUSH1 0x60 DUP2 MSTORE PUSH1 0x20 ADD PUSH1 0x60 DUP2 MSTORE POP SWAP1 JUMP JUMPDEST PUSH1 0x0 PUSH1 0x40 MLOAD SWAP1 POP SWAP1 JUMP JUMPDEST PUSH1 0x0 DUP1 REVERT JUMPDEST PUSH1 0x0 DUP1 REVERT JUMPDEST PUSH1 0x0 DUP2 SWAP1 POP SWAP2 SWAP1 POP JUMP JUMPDEST PUSH2 0x5C1 DUP2 PUSH2 0x5AE JUMP JUMPDEST DUP2 EQ PUSH2 0x5CC JUMPI PUSH1 0x0 DUP1 REVERT JUMPDEST POP JUMP JUMPDEST PUSH1 0x0 DUP2 CALLDATALOAD SWAP1 POP PUSH2 0x5DE DUP2 PUSH2 0x5B8 JUMP JUMPDEST SWAP3 SWAP2 POP POP JUMP JUMPDEST PUSH1 0x0 PUSH1 0x20 DUP3 DUP5 SUB SLT ISZERO PUSH2 0x5FA JUMPI PUSH2 0x5F9 PUSH2 0x5A4 JUMP JUMPDEST JUMPDEST PUSH1 0x0 PUSH2 0x608 DUP5 DUP3 DUP6 ADD PUSH2 0x5CF JUMP JUMPDEST SWAP2 POP POP SWAP3 SWAP2 POP POP JUMP JUMPDEST PUSH1 0x0 DUP2 MLOAD SWAP1 POP SWAP2 SWAP1 POP JUMP JUMPDEST PUSH1 0x0 DUP3 DUP3 MSTORE PUSH1 0x20 DUP3 ADD SWAP1 POP SWAP3 SWAP2 POP POP JUMP JUMPDEST PUSH1 0x0 DUP2 SWAP1 POP PUSH1 0x20 DUP3 ADD SWAP1 POP SWAP2 SWAP1 POP JUMP JUMPDEST PUSH2 0x646 DUP2 PUSH2 0x5AE JUMP JUMPDEST DUP3 MSTORE POP POP JUMP JUMPDEST PUSH1 0x0 PUSH20 0xFFFFFFFFFFFFFFFFFFFFFFFFFFFFFFFFFFFFFFFF DUP3 AND SWAP1 POP SWAP2 SWAP1 POP JUMP JUMPDEST PUSH1 0x0 PUSH2 0x677 DUP3 PUSH2 0x64C JUMP JUMPDEST SWAP1 POP SWAP2 SWAP1 POP JUMP JUMPDEST PUSH2 0x687 DUP2 PUSH2 0x66C JUMP JUMPDEST DUP3 MSTORE POP POP JUMP JUMPDEST PUSH1 0x0 DUP2 MLOAD SWAP1 POP SWAP2 SWAP1 POP JUMP JUMPDEST PUSH1 0x0 DUP3 DUP3 MSTORE PUSH1 0x20 DUP3 ADD SWAP1 POP SWAP3 SWAP2 POP POP JUMP JUMPDEST PUSH1 0x0 JUMPDEST DUP4 DUP2 LT ISZERO PUSH2 0x6C7 JUMPI DUP1 DUP3 ADD MLOAD DUP2 DUP5 ADD MSTORE PUSH1 0x20 DUP2 ADD SWAP1 POP PUSH2 0x6AC JUMP JUMPDEST DUP4 DUP2 GT ISZERO PUSH2 0x6D6 JUMPI PUSH1 0x0 DUP5 DUP5 ADD MSTORE JUMPDEST POP POP POP POP JUMP JUMPDEST PUSH1 0x0 PUSH1 0x1F NOT PUSH1 0x1F DUP4 ADD AND SWAP1 POP SWAP2 SWAP1 POP JUMP JUMPDEST PUSH1 0x0 PUSH2 0x6F8 DUP3 PUSH2 0x68D JUMP JUMPDEST PUSH2 0x702 DUP2 DUP6 PUSH2 0x698 JUMP JUMPDEST SWAP4 POP PUSH2 0x712 DUP2 DUP6 PUSH1 0x20 DUP7 ADD PUSH2 0x6A9 JUMP JUMPDEST PUSH2 0x71B DUP2 PUSH2 0x6DC JUMP JUMPDEST DUP5 ADD SWAP2 POP POP SWAP3 SWAP2 POP POP JUMP JUMPDEST PUSH1 0x0 PUSH1 0xE0 DUP4 ADD PUSH1 0x0 DUP4 ADD MLOAD PUSH2 0x73E PUSH1 0x0 DUP7 ADD DUP3 PUSH2 0x63D JUMP JUMPDEST POP PUSH1 0x20 DUP4 ADD MLOAD PUSH2 0x751 PUSH1 0x20 DUP7 ADD DUP3 PUSH2 0x63D JUMP JUMPDEST POP PUSH1 0x40 DUP4 ADD MLOAD PUSH2 0x764 PUSH1 0x40 DUP7 ADD DUP3 PUSH2 0x67E JUMP JUMPDEST POP PUSH1 0x60 DUP4 ADD MLOAD PUSH2 0x777 PUSH1 0x60 DUP7 ADD DUP3 PUSH2 0x67E JUMP JUMPDEST POP PUSH1 0x80 DUP4 ADD MLOAD PUSH2 0x78A PUSH1 0x80 DUP7 ADD DUP3 PUSH2 0x63D JUMP JUMPDEST POP PUSH1 0xA0 DUP4 ADD MLOAD DUP5 DUP3 SUB PUSH1 0xA0 DUP7 ADD MSTORE PUSH2 0x7A2 DUP3 DUP3 PUSH2 0x6ED JUMP JUMPDEST SWAP2 POP POP PUSH1 0xC0 DUP4 ADD MLOAD DUP5 DUP3 SUB PUSH1 0xC0 DUP7 ADD MSTORE PUSH2 0x7BC DUP3 DUP3 PUSH2 0x6ED JUMP JUMPDEST SWAP2 POP POP DUP1 SWAP2 POP POP SWAP3 SWAP2 POP POP JUMP JUMPDEST PUSH1 0x0 PUSH2 0x7D5 DUP4 DUP4 PUSH2 0x726 JUMP JUMPDEST SWAP1 POP SWAP3 SWAP2 POP POP JUMP JUMPDEST PUSH1 0x0 PUSH1 0x20 DUP3 ADD SWAP1 POP SWAP2 SWAP1 POP JUMP JUMPDEST PUSH1 0x0 PUSH2 0x7F5 DUP3 PUSH2 0x611 JUMP JUMPDEST PUSH2 0x7FF DUP2 DUP6 PUSH2 0x61C JUMP JUMPDEST SWAP4 POP DUP4 PUSH1 0x20 DUP3 MUL DUP6 ADD PUSH2 0x811 DUP6 PUSH2 0x62D JUMP JUMPDEST DUP1 PUSH1 0x0 JUMPDEST DUP6 DUP2 LT ISZERO PUSH2 0x84D JUMPI DUP5 DUP5 SUB DUP10 MSTORE DUP2 MLOAD PUSH2 0x82E DUP6 DUP3 PUSH2 0x7C9 JUMP JUMPDEST SWAP5 POP PUSH2 0x839 DUP4 PUSH2 0x7DD JUMP JUMPDEST SWAP3 POP PUSH1 0x20 DUP11 ADD SWAP10 POP POP PUSH1 0x1 DUP2 ADD SWAP1 POP PUSH2 0x815 JUMP JUMPDEST POP DUP3 SWAP8 POP DUP8 SWAP6 POP POP POP POP POP POP SWAP3 SWAP2 POP POP JUMP JUMPDEST PUSH1 0x0 PUSH1 0x20 DUP3 ADD SWAP1 POP DUP2 DUP2 SUB PUSH1 0x0 DUP4 ADD MSTORE PUSH2 0x879 DUP2 DUP5 PUSH2 0x7EA JUMP JUMPDEST SWAP1 POP SWAP3 SWAP2 POP POP JUMP JUMPDEST PUSH2 0x88A DUP2 PUSH2 0x66C JUMP JUMPDEST DUP2 EQ PUSH2 0x895 JUMPI PUSH1 0x0 DUP1 REVERT JUMPDEST POP JUMP JUMPDEST PUSH1 0x0 DUP2 CALLDATALOAD SWAP1 POP PUSH2 0x8A7 DUP2 PUSH2 0x881 JUMP JUMPDEST SWAP3 SWAP2 POP POP JUMP JUMPDEST PUSH1 0x0 DUP1 REVERT JUMPDEST PUSH1 0x0 DUP1 REVERT JUMPDEST PUSH32 0x4E487B7100000000000000000000000000000000000000000000000000000000 PUSH1 0x0 MSTORE PUSH1 0x41 PUSH1 0x4 MSTORE PUSH1 0x24 PUSH1 0x0 REVERT JUMPDEST PUSH2 0x8EF DUP3 PUSH2 0x6DC JUMP JUMPDEST DUP2 ADD DUP2 DUP2 LT PUSH8 0xFFFFFFFFFFFFFFFF DUP3 GT OR ISZERO PUSH2 0x90E JUMPI PUSH2 0x90D PUSH2 0x8B7 JUMP JUMPDEST JUMPDEST DUP1 PUSH1 0x40 MSTORE POP POP POP JUMP JUMPDEST PUSH1 0x0 PUSH2 0x921 PUSH2 0x59A JUMP JUMPDEST SWAP1 POP PUSH2 0x92D DUP3 DUP3 PUSH2 0x8E6 JUMP JUMPDEST SWAP2 SWAP1 POP JUMP JUMPDEST PUSH1 0x0 PUSH8 0xFFFFFFFFFFFFFFFF DUP3 GT ISZERO PUSH2 0x94D JUMPI PUSH2 0x94C PUSH2 0x8B7 JUMP JUMPDEST JUMPDEST PUSH2 0x956 DUP3 PUSH2 0x6DC JUMP JUMPDEST SWAP1 POP PUSH1 0x20 DUP2 ADD SWAP1 POP SWAP2 SWAP1 POP JUMP JUMPDEST DUP3 DUP2 DUP4 CALLDATACOPY PUSH1 0x0 DUP4 DUP4 ADD MSTORE POP POP POP JUMP JUMPDEST PUSH1 0x0 PUSH2 0x985 PUSH2 0x980 DUP5 PUSH2 0x932 JUMP JUMPDEST PUSH2 0x917 JUMP JUMPDEST SWAP1 POP DUP3 DUP2 MSTORE PUSH1 0x20 DUP2 ADD DUP5 DUP5 DUP5 ADD GT ISZERO PUSH2 0x9A1 JUMPI PUSH2 0x9A0 PUSH2 0x8B2 JUMP JUMPDEST JUMPDEST PUSH2 0x9AC DUP5 DUP3 DUP6 PUSH2 0x963 JUMP JUMPDEST POP SWAP4 SWAP3 POP POP POP JUMP JUMPDEST PUSH1 0x0 DUP3 PUSH1 0x1F DUP4 ADD SLT PUSH2 0x9C9 JUMPI PUSH2 0x9C8 PUSH2 0x8AD JUMP JUMPDEST JUMPDEST DUP2 CALLDATALOAD PUSH2 0x9D9 DUP5 DUP3 PUSH1 0x20 DUP7 ADD PUSH2 0x972 JUMP JUMPDEST SWAP2 POP POP SWAP3 SWAP2 POP POP JUMP JUMPDEST PUSH1 0x0 DUP1 PUSH1 0x40 DUP4 DUP6 SUB SLT ISZERO PUSH2 0x9F9 JUMPI PUSH2 0x9F8 PUSH2 0x5A4 JUMP JUMPDEST JUMPDEST PUSH1 0x0 PUSH2 0xA07 DUP6 DUP3 DUP7 ADD PUSH2 0x898 JUMP JUMPDEST SWAP3 POP POP PUSH1 0x20 DUP4 ADD CALLDATALOAD PUSH8 0xFFFFFFFFFFFFFFFF DUP2 GT ISZERO PUSH2 0xA28 JUMPI PUSH2 0xA27 PUSH2 0x5A9 JUMP JUMPDEST JUMPDEST PUSH2 0xA34 DUP6 DUP3 DUP7 ADD PUSH2 0x9B4 JUMP JUMPDEST SWAP2 POP POP SWAP3 POP SWAP3 SWAP1 POP JUMP JUMPDEST PUSH32 0x4E487B7100000000000000000000000000000000000000000000000000000000 PUSH1 0x0 MSTORE PUSH1 0x32 PUSH1 0x4 MSTORE PUSH1 0x24 PUSH1 0x0 REVERT JUMPDEST PUSH32 0x4E487B7100000000000000000000000000000000000000000000000000000000 PUSH1 0x0 MSTORE PUSH1 0x22 PUSH1 0x4 MSTORE PUSH1 0x24 PUSH1 0x0 REVERT JUMPDEST PUSH1 0x0 PUSH1 0x2 DUP3 DIV SWAP1 POP PUSH1 0x1 DUP3 AND DUP1 PUSH2 0xAB4 JUMPI PUSH1 0x7F DUP3 AND SWAP2 POP JUMPDEST PUSH1 0x20 DUP3 LT DUP2 SUB PUSH2 0xAC7 JUMPI PUSH2 0xAC6 PUSH2 0xA6D JUMP JUMPDEST JUMPDEST POP SWAP2 SWAP1 POP JUMP JUMPDEST PUSH32 0x4E487B7100000000000000000000000000000000000000000000000000000000 PUSH1 0x0 MSTORE PUSH1 0x11 PUSH1 0x4 MSTORE PUSH1 0x24 PUSH1 0x0 REVERT JUMPDEST PUSH1 0x0 PUSH2 0xB07 DUP3 PUSH2 0x5AE JUMP JUMPDEST SWAP2 POP PUSH32 0xFFFFFFFFFFFFFFFFFFFFFFFFFFFFFFFFFFFFFFFFFFFFFFFFFFFFFFFFFFFFFFFF DUP3 SUB PUSH2 0xB39 JUMPI PUSH2 0xB38 PUSH2 0xACD JUMP JUMPDEST JUMPDEST PUSH1 0x1 DUP3 ADD SWAP1 POP SWAP2 SWAP1 POP JUMP JUMPDEST PUSH1 0x0 DUP2 SWAP1 POP DUP2 PUSH1 0x0 MSTORE PUSH1 0x20 PUSH1 0x0 KECCAK256 SWAP1 POP SWAP2 SWAP1 POP JUMP JUMPDEST PUSH1 0x0 PUSH1 0x20 PUSH1 0x1F DUP4 ADD DIV SWAP1 POP SWAP2 SWAP1 POP JUMP JUMPDEST PUSH1 0x0 DUP3 DUP3 SHL SWAP1 POP SWAP3 SWAP2 POP POP JUMP JUMPDEST PUSH1 0x0 PUSH1 0x8 DUP4 MUL PUSH2 0xBA6 PUSH32 0xFFFFFFFFFFFFFFFFFFFFFFFFFFFFFFFFFFFFFFFFFFFFFFFFFFFFFFFFFFFFFFFF DUP3 PUSH2 0xB69 JUMP JUMPDEST PUSH2 0xBB0 DUP7 DUP4 PUSH2 0xB69 JUMP JUMPDEST SWAP6 POP DUP1 NOT DUP5 AND SWAP4 POP DUP1 DUP7 AND DUP5 OR SWAP3 POP POP POP SWAP4 SWAP3 POP POP POP JUMP JUMPDEST PUSH1 0x0 DUP2 SWAP1 POP SWAP2 SWAP1 POP JUMP JUMPDEST PUSH1 0x0 PUSH2 0xBED PUSH2 0xBE8 PUSH2 0xBE3 DUP5 PUSH2 0x5AE JUMP JUMPDEST PUSH2 0xBC8 JUMP JUMPDEST PUSH2 0x5AE JUMP JUMPDEST SWAP1 POP SWAP2 SWAP1 POP JUMP JUMPDEST PUSH1 0x0 DUP2 SWAP1 POP SWAP2 SWAP1 POP JUMP JUMPDEST PUSH2 0xC07 DUP4 PUSH2 0xBD2 JUMP JUMPDEST PUSH2 0xC1B PUSH2 0xC13 DUP3 PUSH2 0xBF4 JUMP JUMPDEST DUP5 DUP5 SLOAD PUSH2 0xB76 JUMP JUMPDEST DUP3 SSTORE POP POP POP POP JUMP JUMPDEST PUSH1 0x0 SWAP1 JUMP JUMPDEST PUSH2 0xC30 PUSH2 0xC23 JUMP JUMPDEST PUSH2 0xC3B DUP2 DUP5 DUP5 PUSH2 0xBFE JUMP JUMPDEST POP POP POP JUMP JUMPDEST JUMPDEST DUP2 DUP2 LT ISZERO PUSH2 0xC5F JUMPI PUSH2 0xC54 PUSH1 0x0 DUP3 PUSH2 0xC28 JUMP JUMPDEST PUSH1 0x1 DUP2 ADD SWAP1 POP PUSH2 0xC41 JUMP JUMPDEST POP POP JUMP JUMPDEST PUSH1 0x1F DUP3 GT ISZERO PUSH2 0xCA4 JUMPI PUSH2 0xC75 DUP2 PUSH2 0xB44 JUMP JUMPDEST PUSH2 0xC7E DUP5 PUSH2 0xB59 JUMP JUMPDEST DUP2 ADD PUSH1 0x20 DUP6 LT ISZERO PUSH2 0xC8D JUMPI DUP2 SWAP1 POP JUMPDEST PUSH2 0xCA1 PUSH2 0xC99 DUP6 PUSH2 0xB59 JUMP JUMPDEST DUP4 ADD DUP3 PUSH2 0xC40 JUMP JUMPDEST POP POP JUMPDEST POP POP POP JUMP JUMPDEST PUSH1 0x0 DUP3 DUP3 SHR SWAP1 POP SWAP3 SWAP2 POP POP JUMP JUMPDEST PUSH1 0x0 PUSH2 0xCC7 PUSH1 0x0 NOT DUP5 PUSH1 0x8 MUL PUSH2 0xCA9 JUMP JUMPDEST NOT DUP1 DUP4 AND SWAP2 POP POP SWAP3 SWAP2 POP POP JUMP JUMPDEST PUSH1 0x0 PUSH2 0xCE0 DUP4 DUP4 PUSH2 0xCB6 JUMP JUMPDEST SWAP2 POP DUP3 PUSH1 0x2 MUL DUP3 OR SWAP1 POP SWAP3 SWAP2 POP POP JUMP JUMPDEST PUSH2 0xCF9 DUP3 PUSH2 0x68D JUMP JUMPDEST PUSH8 0xFFFFFFFFFFFFFFFF DUP2 GT ISZERO PUSH2 0xD12 JUMPI PUSH2 0xD11 PUSH2 0x8B7 JUMP JUMPDEST JUMPDEST PUSH2 0xD1C DUP3 SLOAD PUSH2 0xA9C JUMP JUMPDEST PUSH2 0xD27 DUP3 DUP3 DUP6 PUSH2 0xC63 JUMP JUMPDEST PUSH1 0x0 PUSH1 0x20 SWAP1 POP PUSH1 0x1F DUP4 GT PUSH1 0x1 DUP2 EQ PUSH2 0xD5A JUMPI PUSH1 0x0 DUP5 ISZERO PUSH2 0xD48 JUMPI DUP3 DUP8 ADD MLOAD SWAP1 POP JUMPDEST PUSH2 0xD52 DUP6 DUP3 PUSH2 0xCD4 JUMP JUMPDEST DUP7 SSTORE POP PUSH2 0xDBA JUMP JUMPDEST PUSH1 0x1F NOT DUP5 AND PUSH2 0xD68 DUP7 PUSH2 0xB44 JUMP JUMPDEST PUSH1 0x0 JUMPDEST DUP3 DUP2 LT ISZERO PUSH2 0xD90 JUMPI DUP5 DUP10 ADD MLOAD DUP3 SSTORE PUSH1 0x1 DUP3 ADD SWAP2 POP PUSH1 0x20 DUP6 ADD SWAP5 POP PUSH1 0x20 DUP2 ADD SWAP1 POP PUSH2 0xD6B JUMP JUMPDEST DUP7 DUP4 LT ISZERO PUSH2 0xDAD JUMPI DUP5 DUP10 ADD MLOAD PUSH2 0xDA9 PUSH1 0x1F DUP10 AND DUP3 PUSH2 0xCB6 JUMP JUMPDEST DUP4 SSTORE POP JUMPDEST PUSH1 0x1 PUSH1 0x2 DUP9 MUL ADD DUP9 SSTORE POP POP POP JUMPDEST POP POP POP POP POP POP JUMP INVALID LOG2 PUSH5 0x6970667358 0x22 SLT KECCAK256 LOG1 PUSH17 0x34E419C428FDAA9131D8676AEBA3C7585F LOG3 DUP6 PUSH4 0x8AF03B74 BASEFEE PUSH5 0x127C9D6964 PUSH20 0x6F6C634300080F00330000000000000000000000 "
				},
				"gasEstimates": {
					"creation": {
						"codeDepositCost": "715200",
						"executionCost": "747",
						"totalCost": "715947"
					},
					"external": {
						"createCrowdfunding(address,string)": "infinite",
						"getCrowdfundingByStatus(uint256)": "infinite"
					}
				},
				"methodIdentifiers": {
					"createCrowdfunding(address,string)": "fd668907",
					"getCrowdfundingByStatus(uint256)": "904cc175"
				}
			},
			"storageLayout": {
				"storage": [
					{
						"astId": 3,
						"contract": "crowdfunding.sol:CrowdfundingContract",
						"label": "No",
						"offset": 0,
						"slot": "0",
						"type": "t_uint256"
					},
					{
						"astId": 22,
						"contract": "crowdfunding.sol:CrowdfundingContract",
						"label": "list",
						"offset": 0,
						"slot": "1",
						"type": "t_array(t_struct(Crowdfunding)18_storage)dyn_storage"
					}
				],
				"types": {
					"t_address": {
						"encoding": "inplace",
						"label": "address",
						"numberOfBytes": "20"
					},
					"t_array(t_struct(Crowdfunding)18_storage)dyn_storage": {
						"base": "t_struct(Crowdfunding)18_storage",
						"encoding": "dynamic_array",
						"label": "struct CrowdfundingContract.Crowdfunding[]",
						"numberOfBytes": "32"
					},
					"t_string_storage": {
						"encoding": "bytes",
						"label": "string",
						"numberOfBytes": "32"
					},
					"t_struct(Crowdfunding)18_storage": {
						"encoding": "inplace",
						"label": "struct CrowdfundingContract.Crowdfunding",
						"members": [
							{
								"astId": 5,
								"contract": "crowdfunding.sol:CrowdfundingContract",
								"label": "num",
								"offset": 0,
								"slot": "0",
								"type": "t_uint256"
							},
							{
								"astId": 7,
								"contract": "crowdfunding.sol:CrowdfundingContract",
								"label": "status",
								"offset": 0,
								"slot": "1",
								"type": "t_uint256"
							},
							{
								"astId": 9,
								"contract": "crowdfunding.sol:CrowdfundingContract",
								"label": "creator",
								"offset": 0,
								"slot": "2",
								"type": "t_address"
							},
							{
								"astId": 11,
								"contract": "crowdfunding.sol:CrowdfundingContract",
								"label": "recipient",
								"offset": 0,
								"slot": "3",
								"type": "t_address"
							},
							{
								"astId": 13,
								"contract": "crowdfunding.sol:CrowdfundingContract",
								"label": "joinNum",
								"offset": 0,
								"slot": "4",
								"type": "t_uint256"
							},
							{
								"astId": 15,
								"contract": "crowdfunding.sol:CrowdfundingContract",
								"label": "expectAmout",
								"offset": 0,
								"slot": "5",
								"type": "t_string_storage"
							},
							{
								"astId": 17,
								"contract": "crowdfunding.sol:CrowdfundingContract",
								"label": "actualAmount",
								"offset": 0,
								"slot": "6",
								"type": "t_string_storage"
							}
						],
						"numberOfBytes": "224"
					},
					"t_uint256": {
						"encoding": "inplace",
						"label": "uint256",
						"numberOfBytes": "32"
					}
				}
			},
			"userdoc": {
				"kind": "user",
				"methods": {},
				"version": 1
			}
		}
	}
}