{
	"array.sol": {
		"ArrayTest": {
			"abi": [
				{
					"inputs": [
						{
							"internalType": "string",
							"name": "_bookName",
							"type": "string"
						}
					],
					"name": "createReadList",
					"outputs": [],
					"stateMutability": "nonpayable",
					"type": "function"
				},
				{
					"inputs": [],
					"name": "fn",
					"outputs": [
						{
							"internalType": "uint256",
							"name": "",
							"type": "uint256"
						}
					],
					"stateMutability": "view",
					"type": "function"
				},
				{
					"inputs": [
						{
							"internalType": "uint256",
							"name": "_status",
							"type": "uint256"
						}
					],
					"name": "getFilterReadList",
					"outputs": [
						{
							"components": [
								{
									"internalType": "uint256",
									"name": "status",
									"type": "uint256"
								},
								{
									"internalType": "string",
									"name": "bookName",
									"type": "string"
								}
							],
							"internalType": "struct ArrayTest.Book[]",
							"name": "",
							"type": "tuple[]"
						}
					],
					"stateMutability": "view",
					"type": "function"
				},
				{
					"inputs": [],
					"name": "getList",
					"outputs": [
						{
							"components": [
								{
									"internalType": "uint256",
									"name": "status",
									"type": "uint256"
								},
								{
									"internalType": "string",
									"name": "bookName",
									"type": "string"
								}
							],
							"internalType": "struct ArrayTest.Book[]",
							"name": "",
							"type": "tuple[]"
						}
					],
					"stateMutability": "view",
					"type": "function"
				}
			],
			"devdoc": {
				"kind": "dev",
				"methods": {},
				"version": 1
			},
			"evm": {
				"assembly": "    /* \"array.sol\":61:988  contract ArrayTest {\r... */\n  mstore(0x40, 0x80)\n  callvalue\n  dup1\n  iszero\n  tag_1\n  jumpi\n  0x00\n  dup1\n  revert\ntag_1:\n  pop\n  dataSize(sub_0)\n  dup1\n  dataOffset(sub_0)\n  0x00\n  codecopy\n  0x00\n  return\nstop\n\nsub_0: assembly {\n        /* \"array.sol\":61:988  contract ArrayTest {\r... */\n      mstore(0x40, 0x80)\n      callvalue\n      dup1\n      iszero\n      tag_1\n      jumpi\n      0x00\n      dup1\n      revert\n    tag_1:\n      pop\n      jumpi(tag_2, lt(calldatasize, 0x04))\n      shr(0xe0, calldataload(0x00))\n      dup1\n      0x234c6686\n      eq\n      tag_3\n      jumpi\n      dup1\n      0x942b765a\n      eq\n      tag_4\n      jumpi\n      dup1\n      0xa4a2c40b\n      eq\n      tag_5\n      jumpi\n      dup1\n      0xb868ef57\n      eq\n      tag_6\n      jumpi\n    tag_2:\n      0x00\n      dup1\n      revert\n        /* \"array.sol\":267:426  function createReadList(string memory _bookName) public {\r... */\n    tag_3:\n      tag_7\n      0x04\n      dup1\n      calldatasize\n      sub\n      dup2\n      add\n      swap1\n      tag_8\n      swap2\n      swap1\n      tag_9\n      jump\t// in\n    tag_8:\n      tag_10\n      jump\t// in\n    tag_7:\n      stop\n        /* \"array.sol\":900:985  function getList() public view returns (Book[] memory) {\r... */\n    tag_4:\n      tag_11\n      tag_12\n      jump\t// in\n    tag_11:\n      mload(0x40)\n      tag_13\n      swap2\n      swap1\n      tag_14\n      jump\t// in\n    tag_13:\n      mload(0x40)\n      dup1\n      swap2\n      sub\n      swap1\n      return\n        /* \"array.sol\":434:597  function fn() public view returns (uint) {\r... */\n    tag_5:\n      tag_15\n      tag_16\n      jump\t// in\n    tag_15:\n      mload(0x40)\n      tag_17\n      swap2\n      swap1\n      tag_18\n      jump\t// in\n    tag_17:\n      mload(0x40)\n      dup1\n      swap2\n      sub\n      swap1\n      return\n        /* \"array.sol\":605:892  function getFilterReadList(uint _status) public view returns (Book[] memory) {\r... */\n    tag_6:\n      tag_19\n      0x04\n      dup1\n      calldatasize\n      sub\n      dup2\n      add\n      swap1\n      tag_20\n      swap2\n      swap1\n      tag_21\n      jump\t// in\n    tag_20:\n      tag_22\n      jump\t// in\n    tag_19:\n      mload(0x40)\n      tag_23\n      swap2\n      swap1\n      tag_14\n      jump\t// in\n    tag_23:\n      mload(0x40)\n      dup1\n      swap2\n      sub\n      swap1\n      return\n        /* \"array.sol\":267:426  function createReadList(string memory _bookName) public {\r... */\n    tag_10:\n        /* \"array.sol\":334:338  list */\n      0x00\n        /* \"array.sol\":344:417  Book({\r... */\n      mload(0x40)\n      dup1\n      0x40\n      add\n      0x40\n      mstore\n      dup1\n        /* \"array.sol\":371:372  0 */\n      0x00\n        /* \"array.sol\":344:417  Book({\r... */\n      dup2\n      mstore\n      0x20\n      add\n        /* \"array.sol\":396:405  _bookName */\n      dup4\n        /* \"array.sol\":344:417  Book({\r... */\n      dup2\n      mstore\n      pop\n        /* \"array.sol\":334:418  list.push(Book({\r... */\n      swap1\n      dup1\n      0x01\n      dup2\n      sload\n      add\n      dup1\n      dup3\n      sstore\n      dup1\n      swap2\n      pop\n      pop\n      0x01\n      swap1\n      sub\n      swap1\n      0x00\n      mstore\n      keccak256(0x00, 0x20)\n      swap1\n      0x02\n      mul\n      add\n      0x00\n      swap1\n      swap2\n      swap1\n      swap2\n      swap1\n      swap2\n      pop\n      0x00\n      dup3\n      add\n      mload\n      dup2\n      0x00\n      add\n      sstore\n      0x20\n      dup3\n      add\n      mload\n      dup2\n      0x01\n      add\n      swap1\n      dup1\n      mload\n      swap1\n      0x20\n      add\n      swap1\n      tag_26\n      swap3\n      swap2\n      swap1\n      tag_27\n      jump\t// in\n    tag_26:\n      pop\n      pop\n      pop\n        /* \"array.sol\":267:426  function createReadList(string memory _bookName) public {\r... */\n      pop\n      jump\t// out\n        /* \"array.sol\":900:985  function getList() public view returns (Book[] memory) {\r... */\n    tag_12:\n        /* \"array.sol\":940:953  Book[] memory */\n      0x60\n        /* \"array.sol\":973:977  list */\n      0x00\n        /* \"array.sol\":966:977  return list */\n      dup1\n      sload\n      dup1\n      0x20\n      mul\n      0x20\n      add\n      mload(0x40)\n      swap1\n      dup2\n      add\n      0x40\n      mstore\n      dup1\n      swap3\n      swap2\n      swap1\n      dup2\n      dup2\n      mstore\n      0x20\n      add\n      0x00\n      swap1\n    tag_29:\n      dup3\n      dup3\n      lt\n      iszero\n      tag_30\n      jumpi\n      dup4\n      dup3\n      swap1\n      0x00\n      mstore\n      keccak256(0x00, 0x20)\n      swap1\n      0x02\n      mul\n      add\n      mload(0x40)\n      dup1\n      0x40\n      add\n      0x40\n      mstore\n      swap1\n      dup2\n      0x00\n      dup3\n      add\n      sload\n      dup2\n      mstore\n      0x20\n      add\n      0x01\n      dup3\n      add\n      dup1\n      sload\n      tag_32\n      swap1\n      tag_33\n      jump\t// in\n    tag_32:\n      dup1\n      0x1f\n      add\n      0x20\n      dup1\n      swap2\n      div\n      mul\n      0x20\n      add\n      mload(0x40)\n      swap1\n      dup2\n      add\n      0x40\n      mstore\n      dup1\n      swap3\n      swap2\n      swap1\n      dup2\n      dup2\n      mstore\n      0x20\n      add\n      dup3\n      dup1\n      sload\n      tag_34\n      swap1\n      tag_33\n      jump\t// in\n    tag_34:\n      dup1\n      iszero\n      tag_35\n      jumpi\n      dup1\n      0x1f\n      lt\n      tag_36\n      jumpi\n      0x0100\n      dup1\n      dup4\n      sload\n      div\n      mul\n      dup4\n      mstore\n      swap2\n      0x20\n      add\n      swap2\n      jump(tag_35)\n    tag_36:\n      dup3\n      add\n      swap2\n      swap1\n      0x00\n      mstore\n      keccak256(0x00, 0x20)\n      swap1\n    tag_37:\n      dup2\n      sload\n      dup2\n      mstore\n      swap1\n      0x01\n      add\n      swap1\n      0x20\n      add\n      dup1\n      dup4\n      gt\n      tag_37\n      jumpi\n      dup3\n      swap1\n      sub\n      0x1f\n      and\n      dup3\n      add\n      swap2\n    tag_35:\n      pop\n      pop\n      pop\n      pop\n      pop\n      dup2\n      mstore\n      pop\n      pop\n      dup2\n      mstore\n      0x20\n      add\n      swap1\n      0x01\n      add\n      swap1\n      jump(tag_29)\n    tag_30:\n      pop\n      pop\n      pop\n      pop\n      swap1\n      pop\n        /* \"array.sol\":900:985  function getList() public view returns (Book[] memory) {\r... */\n      swap1\n      jump\t// out\n        /* \"array.sol\":434:597  function fn() public view returns (uint) {\r... */\n    tag_16:\n        /* \"array.sol\":469:473  uint */\n      0x00\n        /* \"array.sol\":486:503  uint[] memory tmp */\n      0x60\n        /* \"array.sol\":518:524  uint i */\n      0x00\n        /* \"array.sol\":514:590  for(uint i = 0;i < arr.length;i++){\r... */\n    tag_39:\n        /* \"array.sol\":533:536  arr */\n      0x01\n        /* \"array.sol\":533:543  arr.length */\n      dup1\n      sload\n      swap1\n      pop\n        /* \"array.sol\":529:530  i */\n      dup2\n        /* \"array.sol\":529:543  i < arr.length */\n      lt\n        /* \"array.sol\":514:590  for(uint i = 0;i < arr.length;i++){\r... */\n      iszero\n      tag_40\n      jumpi\n        /* \"array.sol\":572:575  arr */\n      0x01\n        /* \"array.sol\":576:577  i */\n      dup2\n        /* \"array.sol\":572:578  arr[i] */\n      dup2\n      sload\n      dup2\n      lt\n      tag_42\n      jumpi\n      tag_43\n      tag_44\n      jump\t// in\n    tag_43:\n    tag_42:\n      swap1\n      0x00\n      mstore\n      keccak256(0x00, 0x20)\n      add\n      sload\n        /* \"array.sol\":563:566  tmp */\n      dup3\n        /* \"array.sol\":567:568  i */\n      dup3\n        /* \"array.sol\":563:569  tmp[i] */\n      dup2\n      mload\n      dup2\n      lt\n      tag_46\n      jumpi\n      tag_47\n      tag_44\n      jump\t// in\n    tag_47:\n    tag_46:\n      0x20\n      mul\n      0x20\n      add\n      add\n        /* \"array.sol\":563:578  tmp[i] = arr[i] */\n      dup2\n      dup2\n      mstore\n      pop\n      pop\n        /* \"array.sol\":544:547  i++ */\n      dup1\n      dup1\n      tag_48\n      swap1\n      tag_49\n      jump\t// in\n    tag_48:\n      swap2\n      pop\n      pop\n        /* \"array.sol\":514:590  for(uint i = 0;i < arr.length;i++){\r... */\n      jump(tag_39)\n    tag_40:\n      pop\n        /* \"array.sol\":475:597  {\r... */\n      pop\n        /* \"array.sol\":434:597  function fn() public view returns (uint) {\r... */\n      swap1\n      jump\t// out\n        /* \"array.sol\":605:892  function getFilterReadList(uint _status) public view returns (Book[] memory) {\r... */\n    tag_22:\n        /* \"array.sol\":667:680  Book[] memory */\n      0x60\n        /* \"array.sol\":693:710  Book[] memory tmp */\n      dup1\n        /* \"array.sol\":725:731  uint i */\n      0x00\n        /* \"array.sol\":721:864  for(uint i = 0;i<list.length;i++){\r... */\n    tag_51:\n        /* \"array.sol\":738:742  list */\n      0x00\n        /* \"array.sol\":738:749  list.length */\n      dup1\n      sload\n      swap1\n      pop\n        /* \"array.sol\":736:737  i */\n      dup2\n        /* \"array.sol\":736:749  i<list.length */\n      lt\n        /* \"array.sol\":721:864  for(uint i = 0;i<list.length;i++){\r... */\n      iszero\n      tag_52\n      jumpi\n        /* \"array.sol\":790:797  _status */\n      dup4\n        /* \"array.sol\":772:776  list */\n      0x00\n        /* \"array.sol\":777:778  i */\n      dup3\n        /* \"array.sol\":772:779  list[i] */\n      dup2\n      sload\n      dup2\n      lt\n      tag_54\n      jumpi\n      tag_55\n      tag_44\n      jump\t// in\n    tag_55:\n    tag_54:\n      swap1\n      0x00\n      mstore\n      keccak256(0x00, 0x20)\n      swap1\n      pop\n      pop\n        /* \"array.sol\":772:797  list[i].status == _status */\n      pop\n        /* \"array.sol\":750:753  i++ */\n      dup1\n      dup1\n      tag_58\n      swap1\n      tag_49\n      jump\t// in\n    tag_58:\n      swap2\n      pop\n      pop\n        /* \"array.sol\":721:864  for(uint i = 0;i<list.length;i++){\r... */\n      jump(tag_51)\n    tag_52:\n      pop\n        /* \"array.sol\":881:884  tmp */\n      dup1\n        /* \"array.sol\":874:884  return tmp */\n      swap2\n      pop\n      pop\n        /* \"array.sol\":605:892  function getFilterReadList(uint _status) public view returns (Book[] memory) {\r... */\n      swap2\n      swap1\n      pop\n      jump\t// out\n    tag_27:\n      dup3\n      dup1\n      sload\n      tag_59\n      swap1\n      tag_33\n      jump\t// in\n    tag_59:\n      swap1\n      0x00\n      mstore\n      keccak256(0x00, 0x20)\n      swap1\n      0x1f\n      add\n      0x20\n      swap1\n      div\n      dup2\n      add\n      swap3\n      dup3\n      tag_61\n      jumpi\n      0x00\n      dup6\n      sstore\n      jump(tag_60)\n    tag_61:\n      dup3\n      0x1f\n      lt\n      tag_62\n      jumpi\n      dup1\n      mload\n      not(0xff)\n      and\n      dup4\n      dup1\n      add\n      or\n      dup6\n      sstore\n      jump(tag_60)\n    tag_62:\n      dup3\n      dup1\n      add\n      0x01\n      add\n      dup6\n      sstore\n      dup3\n      iszero\n      tag_60\n      jumpi\n      swap2\n      dup3\n      add\n    tag_63:\n      dup3\n      dup2\n      gt\n      iszero\n      tag_64\n      jumpi\n      dup3\n      mload\n      dup3\n      sstore\n      swap2\n      0x20\n      add\n      swap2\n      swap1\n      0x01\n      add\n      swap1\n      jump(tag_63)\n    tag_64:\n    tag_60:\n      pop\n      swap1\n      pop\n      tag_65\n      swap2\n      swap1\n      tag_66\n      jump\t// in\n    tag_65:\n      pop\n      swap1\n      jump\t// out\n    tag_66:\n    tag_67:\n      dup1\n      dup3\n      gt\n      iszero\n      tag_68\n      jumpi\n      0x00\n      dup2\n      0x00\n      swap1\n      sstore\n      pop\n      0x01\n      add\n      jump(tag_67)\n    tag_68:\n      pop\n      swap1\n      jump\t// out\n        /* \"#utility.yul\":7:419   */\n    tag_70:\n        /* \"#utility.yul\":85:90   */\n      0x00\n        /* \"#utility.yul\":110:176   */\n      tag_72\n        /* \"#utility.yul\":126:175   */\n      tag_73\n        /* \"#utility.yul\":168:174   */\n      dup5\n        /* \"#utility.yul\":126:175   */\n      tag_74\n      jump\t// in\n    tag_73:\n        /* \"#utility.yul\":110:176   */\n      tag_75\n      jump\t// in\n    tag_72:\n        /* \"#utility.yul\":101:176   */\n      swap1\n      pop\n        /* \"#utility.yul\":199:205   */\n      dup3\n        /* \"#utility.yul\":192:197   */\n      dup2\n        /* \"#utility.yul\":185:206   */\n      mstore\n        /* \"#utility.yul\":237:241   */\n      0x20\n        /* \"#utility.yul\":230:235   */\n      dup2\n        /* \"#utility.yul\":226:242   */\n      add\n        /* \"#utility.yul\":275:278   */\n      dup5\n        /* \"#utility.yul\":266:272   */\n      dup5\n        /* \"#utility.yul\":261:264   */\n      dup5\n        /* \"#utility.yul\":257:273   */\n      add\n        /* \"#utility.yul\":254:279   */\n      gt\n        /* \"#utility.yul\":251:363   */\n      iszero\n      tag_76\n      jumpi\n        /* \"#utility.yul\":282:361   */\n      tag_77\n      tag_78\n      jump\t// in\n    tag_77:\n        /* \"#utility.yul\":251:363   */\n    tag_76:\n        /* \"#utility.yul\":372:413   */\n      tag_79\n        /* \"#utility.yul\":406:412   */\n      dup5\n        /* \"#utility.yul\":401:404   */\n      dup3\n        /* \"#utility.yul\":396:399   */\n      dup6\n        /* \"#utility.yul\":372:413   */\n      tag_80\n      jump\t// in\n    tag_79:\n        /* \"#utility.yul\":91:419   */\n      pop\n        /* \"#utility.yul\":7:419   */\n      swap4\n      swap3\n      pop\n      pop\n      pop\n      jump\t// out\n        /* \"#utility.yul\":439:779   */\n    tag_81:\n        /* \"#utility.yul\":495:500   */\n      0x00\n        /* \"#utility.yul\":544:547   */\n      dup3\n        /* \"#utility.yul\":537:541   */\n      0x1f\n        /* \"#utility.yul\":529:535   */\n      dup4\n        /* \"#utility.yul\":525:542   */\n      add\n        /* \"#utility.yul\":521:548   */\n      slt\n        /* \"#utility.yul\":511:633   */\n      tag_83\n      jumpi\n        /* \"#utility.yul\":552:631   */\n      tag_84\n      tag_85\n      jump\t// in\n    tag_84:\n        /* \"#utility.yul\":511:633   */\n    tag_83:\n        /* \"#utility.yul\":669:675   */\n      dup2\n        /* \"#utility.yul\":656:676   */\n      calldataload\n        /* \"#utility.yul\":694:773   */\n      tag_86\n        /* \"#utility.yul\":769:772   */\n      dup5\n        /* \"#utility.yul\":761:767   */\n      dup3\n        /* \"#utility.yul\":754:758   */\n      0x20\n        /* \"#utility.yul\":746:752   */\n      dup7\n        /* \"#utility.yul\":742:759   */\n      add\n        /* \"#utility.yul\":694:773   */\n      tag_70\n      jump\t// in\n    tag_86:\n        /* \"#utility.yul\":685:773   */\n      swap2\n      pop\n        /* \"#utility.yul\":501:779   */\n      pop\n        /* \"#utility.yul\":439:779   */\n      swap3\n      swap2\n      pop\n      pop\n      jump\t// out\n        /* \"#utility.yul\":785:924   */\n    tag_87:\n        /* \"#utility.yul\":831:836   */\n      0x00\n        /* \"#utility.yul\":869:875   */\n      dup2\n        /* \"#utility.yul\":856:876   */\n      calldataload\n        /* \"#utility.yul\":847:876   */\n      swap1\n      pop\n        /* \"#utility.yul\":885:918   */\n      tag_89\n        /* \"#utility.yul\":912:917   */\n      dup2\n        /* \"#utility.yul\":885:918   */\n      tag_90\n      jump\t// in\n    tag_89:\n        /* \"#utility.yul\":785:924   */\n      swap3\n      swap2\n      pop\n      pop\n      jump\t// out\n        /* \"#utility.yul\":930:1439   */\n    tag_9:\n        /* \"#utility.yul\":999:1005   */\n      0x00\n        /* \"#utility.yul\":1048:1050   */\n      0x20\n        /* \"#utility.yul\":1036:1045   */\n      dup3\n        /* \"#utility.yul\":1027:1034   */\n      dup5\n        /* \"#utility.yul\":1023:1046   */\n      sub\n        /* \"#utility.yul\":1019:1051   */\n      slt\n        /* \"#utility.yul\":1016:1135   */\n      iszero\n      tag_92\n      jumpi\n        /* \"#utility.yul\":1054:1133   */\n      tag_93\n      tag_94\n      jump\t// in\n    tag_93:\n        /* \"#utility.yul\":1016:1135   */\n    tag_92:\n        /* \"#utility.yul\":1202:1203   */\n      0x00\n        /* \"#utility.yul\":1191:1200   */\n      dup3\n        /* \"#utility.yul\":1187:1204   */\n      add\n        /* \"#utility.yul\":1174:1205   */\n      calldataload\n        /* \"#utility.yul\":1232:1250   */\n      0xffffffffffffffff\n        /* \"#utility.yul\":1224:1230   */\n      dup2\n        /* \"#utility.yul\":1221:1251   */\n      gt\n        /* \"#utility.yul\":1218:1335   */\n      iszero\n      tag_95\n      jumpi\n        /* \"#utility.yul\":1254:1333   */\n      tag_96\n      tag_97\n      jump\t// in\n    tag_96:\n        /* \"#utility.yul\":1218:1335   */\n    tag_95:\n        /* \"#utility.yul\":1359:1422   */\n      tag_98\n        /* \"#utility.yul\":1414:1421   */\n      dup5\n        /* \"#utility.yul\":1405:1411   */\n      dup3\n        /* \"#utility.yul\":1394:1403   */\n      dup6\n        /* \"#utility.yul\":1390:1412   */\n      add\n        /* \"#utility.yul\":1359:1422   */\n      tag_81\n      jump\t// in\n    tag_98:\n        /* \"#utility.yul\":1349:1422   */\n      swap2\n      pop\n        /* \"#utility.yul\":1145:1432   */\n      pop\n        /* \"#utility.yul\":930:1439   */\n      swap3\n      swap2\n      pop\n      pop\n      jump\t// out\n        /* \"#utility.yul\":1445:1774   */\n    tag_21:\n        /* \"#utility.yul\":1504:1510   */\n      0x00\n        /* \"#utility.yul\":1553:1555   */\n      0x20\n        /* \"#utility.yul\":1541:1550   */\n      dup3\n        /* \"#utility.yul\":1532:1539   */\n      dup5\n        /* \"#utility.yul\":1528:1551   */\n      sub\n        /* \"#utility.yul\":1524:1556   */\n      slt\n        /* \"#utility.yul\":1521:1640   */\n      iszero\n      tag_100\n      jumpi\n        /* \"#utility.yul\":1559:1638   */\n      tag_101\n      tag_94\n      jump\t// in\n    tag_101:\n        /* \"#utility.yul\":1521:1640   */\n    tag_100:\n        /* \"#utility.yul\":1679:1680   */\n      0x00\n        /* \"#utility.yul\":1704:1757   */\n      tag_102\n        /* \"#utility.yul\":1749:1756   */\n      dup5\n        /* \"#utility.yul\":1740:1746   */\n      dup3\n        /* \"#utility.yul\":1729:1738   */\n      dup6\n        /* \"#utility.yul\":1725:1747   */\n      add\n        /* \"#utility.yul\":1704:1757   */\n      tag_87\n      jump\t// in\n    tag_102:\n        /* \"#utility.yul\":1694:1757   */\n      swap2\n      pop\n        /* \"#utility.yul\":1650:1767   */\n      pop\n        /* \"#utility.yul\":1445:1774   */\n      swap3\n      swap2\n      pop\n      pop\n      jump\t// out\n        /* \"#utility.yul\":1780:2012   */\n    tag_103:\n        /* \"#utility.yul\":1887:1897   */\n      0x00\n        /* \"#utility.yul\":1922:2006   */\n      tag_105\n        /* \"#utility.yul\":2002:2005   */\n      dup4\n        /* \"#utility.yul\":1994:2000   */\n      dup4\n        /* \"#utility.yul\":1922:2006   */\n      tag_106\n      jump\t// in\n    tag_105:\n        /* \"#utility.yul\":1908:2006   */\n      swap1\n      pop\n        /* \"#utility.yul\":1780:2012   */\n      swap3\n      swap2\n      pop\n      pop\n      jump\t// out\n        /* \"#utility.yul\":2076:3139   */\n    tag_107:\n        /* \"#utility.yul\":2233:2236   */\n      0x00\n        /* \"#utility.yul\":2262:2335   */\n      tag_109\n        /* \"#utility.yul\":2329:2334   */\n      dup3\n        /* \"#utility.yul\":2262:2335   */\n      tag_110\n      jump\t// in\n    tag_109:\n        /* \"#utility.yul\":2351:2456   */\n      tag_111\n        /* \"#utility.yul\":2449:2455   */\n      dup2\n        /* \"#utility.yul\":2444:2447   */\n      dup6\n        /* \"#utility.yul\":2351:2456   */\n      tag_112\n      jump\t// in\n    tag_111:\n        /* \"#utility.yul\":2344:2456   */\n      swap4\n      pop\n        /* \"#utility.yul\":2482:2485   */\n      dup4\n        /* \"#utility.yul\":2527:2531   */\n      0x20\n        /* \"#utility.yul\":2519:2525   */\n      dup3\n        /* \"#utility.yul\":2515:2532   */\n      mul\n        /* \"#utility.yul\":2510:2513   */\n      dup6\n        /* \"#utility.yul\":2506:2533   */\n      add\n        /* \"#utility.yul\":2557:2632   */\n      tag_113\n        /* \"#utility.yul\":2626:2631   */\n      dup6\n        /* \"#utility.yul\":2557:2632   */\n      tag_114\n      jump\t// in\n    tag_113:\n        /* \"#utility.yul\":2655:2662   */\n      dup1\n        /* \"#utility.yul\":2686:2687   */\n      0x00\n        /* \"#utility.yul\":2671:3094   */\n    tag_115:\n        /* \"#utility.yul\":2696:2702   */\n      dup6\n        /* \"#utility.yul\":2693:2694   */\n      dup2\n        /* \"#utility.yul\":2690:2703   */\n      lt\n        /* \"#utility.yul\":2671:3094   */\n      iszero\n      tag_117\n      jumpi\n        /* \"#utility.yul\":2767:2776   */\n      dup5\n        /* \"#utility.yul\":2761:2765   */\n      dup5\n        /* \"#utility.yul\":2757:2777   */\n      sub\n        /* \"#utility.yul\":2752:2755   */\n      dup10\n        /* \"#utility.yul\":2745:2778   */\n      mstore\n        /* \"#utility.yul\":2818:2824   */\n      dup2\n        /* \"#utility.yul\":2812:2825   */\n      mload\n        /* \"#utility.yul\":2846:2948   */\n      tag_118\n        /* \"#utility.yul\":2943:2947   */\n      dup6\n        /* \"#utility.yul\":2928:2941   */\n      dup3\n        /* \"#utility.yul\":2846:2948   */\n      tag_103\n      jump\t// in\n    tag_118:\n        /* \"#utility.yul\":2838:2948   */\n      swap5\n      pop\n        /* \"#utility.yul\":2971:3050   */\n      tag_119\n        /* \"#utility.yul\":3043:3049   */\n      dup4\n        /* \"#utility.yul\":2971:3050   */\n      tag_120\n      jump\t// in\n    tag_119:\n        /* \"#utility.yul\":2961:3050   */\n      swap3\n      pop\n        /* \"#utility.yul\":3079:3083   */\n      0x20\n        /* \"#utility.yul\":3074:3077   */\n      dup11\n        /* \"#utility.yul\":3070:3084   */\n      add\n        /* \"#utility.yul\":3063:3084   */\n      swap10\n      pop\n        /* \"#utility.yul\":2731:3094   */\n      pop\n        /* \"#utility.yul\":2718:2719   */\n      0x01\n        /* \"#utility.yul\":2715:2716   */\n      dup2\n        /* \"#utility.yul\":2711:2720   */\n      add\n        /* \"#utility.yul\":2706:2720   */\n      swap1\n      pop\n        /* \"#utility.yul\":2671:3094   */\n      jump(tag_115)\n    tag_117:\n        /* \"#utility.yul\":2675:2689   */\n      pop\n        /* \"#utility.yul\":3110:3114   */\n      dup3\n        /* \"#utility.yul\":3103:3114   */\n      swap8\n      pop\n        /* \"#utility.yul\":3130:3133   */\n      dup8\n        /* \"#utility.yul\":3123:3133   */\n      swap6\n      pop\n        /* \"#utility.yul\":2238:3139   */\n      pop\n      pop\n      pop\n      pop\n      pop\n        /* \"#utility.yul\":2076:3139   */\n      swap3\n      swap2\n      pop\n      pop\n      jump\t// out\n        /* \"#utility.yul\":3145:3489   */\n    tag_121:\n        /* \"#utility.yul\":3223:3226   */\n      0x00\n        /* \"#utility.yul\":3251:3290   */\n      tag_123\n        /* \"#utility.yul\":3284:3289   */\n      dup3\n        /* \"#utility.yul\":3251:3290   */\n      tag_124\n      jump\t// in\n    tag_123:\n        /* \"#utility.yul\":3306:3367   */\n      tag_125\n        /* \"#utility.yul\":3360:3366   */\n      dup2\n        /* \"#utility.yul\":3355:3358   */\n      dup6\n        /* \"#utility.yul\":3306:3367   */\n      tag_126\n      jump\t// in\n    tag_125:\n        /* \"#utility.yul\":3299:3367   */\n      swap4\n      pop\n        /* \"#utility.yul\":3376:3428   */\n      tag_127\n        /* \"#utility.yul\":3421:3427   */\n      dup2\n        /* \"#utility.yul\":3416:3419   */\n      dup6\n        /* \"#utility.yul\":3409:3413   */\n      0x20\n        /* \"#utility.yul\":3402:3407   */\n      dup7\n        /* \"#utility.yul\":3398:3414   */\n      add\n        /* \"#utility.yul\":3376:3428   */\n      tag_128\n      jump\t// in\n    tag_127:\n        /* \"#utility.yul\":3453:3482   */\n      tag_129\n        /* \"#utility.yul\":3475:3481   */\n      dup2\n        /* \"#utility.yul\":3453:3482   */\n      tag_130\n      jump\t// in\n    tag_129:\n        /* \"#utility.yul\":3448:3451   */\n      dup5\n        /* \"#utility.yul\":3444:3483   */\n      add\n        /* \"#utility.yul\":3437:3483   */\n      swap2\n      pop\n        /* \"#utility.yul\":3227:3489   */\n      pop\n        /* \"#utility.yul\":3145:3489   */\n      swap3\n      swap2\n      pop\n      pop\n      jump\t// out\n        /* \"#utility.yul\":3549:4139   */\n    tag_106:\n        /* \"#utility.yul\":3646:3649   */\n      0x00\n        /* \"#utility.yul\":3682:3686   */\n      0x40\n        /* \"#utility.yul\":3677:3680   */\n      dup4\n        /* \"#utility.yul\":3673:3687   */\n      add\n        /* \"#utility.yul\":3771:3775   */\n      0x00\n        /* \"#utility.yul\":3764:3769   */\n      dup4\n        /* \"#utility.yul\":3760:3776   */\n      add\n        /* \"#utility.yul\":3754:3777   */\n      mload\n        /* \"#utility.yul\":3790:3853   */\n      tag_132\n        /* \"#utility.yul\":3847:3851   */\n      0x00\n        /* \"#utility.yul\":3842:3845   */\n      dup7\n        /* \"#utility.yul\":3838:3852   */\n      add\n        /* \"#utility.yul\":3824:3836   */\n      dup3\n        /* \"#utility.yul\":3790:3853   */\n      tag_133\n      jump\t// in\n    tag_132:\n        /* \"#utility.yul\":3697:3863   */\n      pop\n        /* \"#utility.yul\":3949:3953   */\n      0x20\n        /* \"#utility.yul\":3942:3947   */\n      dup4\n        /* \"#utility.yul\":3938:3954   */\n      add\n        /* \"#utility.yul\":3932:3955   */\n      mload\n        /* \"#utility.yul\":4002:4005   */\n      dup5\n        /* \"#utility.yul\":3996:4000   */\n      dup3\n        /* \"#utility.yul\":3992:4006   */\n      sub\n        /* \"#utility.yul\":3985:3989   */\n      0x20\n        /* \"#utility.yul\":3980:3983   */\n      dup7\n        /* \"#utility.yul\":3976:3990   */\n      add\n        /* \"#utility.yul\":3969:4007   */\n      mstore\n        /* \"#utility.yul\":4028:4101   */\n      tag_134\n        /* \"#utility.yul\":4096:4100   */\n      dup3\n        /* \"#utility.yul\":4082:4094   */\n      dup3\n        /* \"#utility.yul\":4028:4101   */\n      tag_121\n      jump\t// in\n    tag_134:\n        /* \"#utility.yul\":4020:4101   */\n      swap2\n      pop\n        /* \"#utility.yul\":3873:4112   */\n      pop\n        /* \"#utility.yul\":4129:4133   */\n      dup1\n        /* \"#utility.yul\":4122:4133   */\n      swap2\n      pop\n        /* \"#utility.yul\":3651:4139   */\n      pop\n        /* \"#utility.yul\":3549:4139   */\n      swap3\n      swap2\n      pop\n      pop\n      jump\t// out\n        /* \"#utility.yul\":4145:4253   */\n    tag_133:\n        /* \"#utility.yul\":4222:4246   */\n      tag_136\n        /* \"#utility.yul\":4240:4245   */\n      dup2\n        /* \"#utility.yul\":4222:4246   */\n      tag_137\n      jump\t// in\n    tag_136:\n        /* \"#utility.yul\":4217:4220   */\n      dup3\n        /* \"#utility.yul\":4210:4247   */\n      mstore\n        /* \"#utility.yul\":4145:4253   */\n      pop\n      pop\n      jump\t// out\n        /* \"#utility.yul\":4259:4377   */\n    tag_138:\n        /* \"#utility.yul\":4346:4370   */\n      tag_140\n        /* \"#utility.yul\":4364:4369   */\n      dup2\n        /* \"#utility.yul\":4346:4370   */\n      tag_137\n      jump\t// in\n    tag_140:\n        /* \"#utility.yul\":4341:4344   */\n      dup3\n        /* \"#utility.yul\":4334:4371   */\n      mstore\n        /* \"#utility.yul\":4259:4377   */\n      pop\n      pop\n      jump\t// out\n        /* \"#utility.yul\":4383:4832   */\n    tag_14:\n        /* \"#utility.yul\":4564:4568   */\n      0x00\n        /* \"#utility.yul\":4602:4604   */\n      0x20\n        /* \"#utility.yul\":4591:4600   */\n      dup3\n        /* \"#utility.yul\":4587:4605   */\n      add\n        /* \"#utility.yul\":4579:4605   */\n      swap1\n      pop\n        /* \"#utility.yul\":4651:4660   */\n      dup2\n        /* \"#utility.yul\":4645:4649   */\n      dup2\n        /* \"#utility.yul\":4641:4661   */\n      sub\n        /* \"#utility.yul\":4637:4638   */\n      0x00\n        /* \"#utility.yul\":4626:4635   */\n      dup4\n        /* \"#utility.yul\":4622:4639   */\n      add\n        /* \"#utility.yul\":4615:4662   */\n      mstore\n        /* \"#utility.yul\":4679:4825   */\n      tag_142\n        /* \"#utility.yul\":4820:4824   */\n      dup2\n        /* \"#utility.yul\":4811:4817   */\n      dup5\n        /* \"#utility.yul\":4679:4825   */\n      tag_107\n      jump\t// in\n    tag_142:\n        /* \"#utility.yul\":4671:4825   */\n      swap1\n      pop\n        /* \"#utility.yul\":4383:4832   */\n      swap3\n      swap2\n      pop\n      pop\n      jump\t// out\n        /* \"#utility.yul\":4838:5060   */\n    tag_18:\n        /* \"#utility.yul\":4931:4935   */\n      0x00\n        /* \"#utility.yul\":4969:4971   */\n      0x20\n        /* \"#utility.yul\":4958:4967   */\n      dup3\n        /* \"#utility.yul\":4954:4972   */\n      add\n        /* \"#utility.yul\":4946:4972   */\n      swap1\n      pop\n        /* \"#utility.yul\":4982:5053   */\n      tag_144\n        /* \"#utility.yul\":5050:5051   */\n      0x00\n        /* \"#utility.yul\":5039:5048   */\n      dup4\n        /* \"#utility.yul\":5035:5052   */\n      add\n        /* \"#utility.yul\":5026:5032   */\n      dup5\n        /* \"#utility.yul\":4982:5053   */\n      tag_138\n      jump\t// in\n    tag_144:\n        /* \"#utility.yul\":4838:5060   */\n      swap3\n      swap2\n      pop\n      pop\n      jump\t// out\n        /* \"#utility.yul\":5066:5195   */\n    tag_75:\n        /* \"#utility.yul\":5100:5106   */\n      0x00\n        /* \"#utility.yul\":5127:5147   */\n      tag_146\n      tag_147\n      jump\t// in\n    tag_146:\n        /* \"#utility.yul\":5117:5147   */\n      swap1\n      pop\n        /* \"#utility.yul\":5156:5189   */\n      tag_148\n        /* \"#utility.yul\":5184:5188   */\n      dup3\n        /* \"#utility.yul\":5176:5182   */\n      dup3\n        /* \"#utility.yul\":5156:5189   */\n      tag_149\n      jump\t// in\n    tag_148:\n        /* \"#utility.yul\":5066:5195   */\n      swap2\n      swap1\n      pop\n      jump\t// out\n        /* \"#utility.yul\":5201:5276   */\n    tag_147:\n        /* \"#utility.yul\":5234:5240   */\n      0x00\n        /* \"#utility.yul\":5267:5269   */\n      0x40\n        /* \"#utility.yul\":5261:5270   */\n      mload\n        /* \"#utility.yul\":5251:5270   */\n      swap1\n      pop\n        /* \"#utility.yul\":5201:5276   */\n      swap1\n      jump\t// out\n        /* \"#utility.yul\":5282:5590   */\n    tag_74:\n        /* \"#utility.yul\":5344:5348   */\n      0x00\n        /* \"#utility.yul\":5434:5452   */\n      0xffffffffffffffff\n        /* \"#utility.yul\":5426:5432   */\n      dup3\n        /* \"#utility.yul\":5423:5453   */\n      gt\n        /* \"#utility.yul\":5420:5476   */\n      iszero\n      tag_152\n      jumpi\n        /* \"#utility.yul\":5456:5474   */\n      tag_153\n      tag_154\n      jump\t// in\n    tag_153:\n        /* \"#utility.yul\":5420:5476   */\n    tag_152:\n        /* \"#utility.yul\":5494:5523   */\n      tag_155\n        /* \"#utility.yul\":5516:5522   */\n      dup3\n        /* \"#utility.yul\":5494:5523   */\n      tag_130\n      jump\t// in\n    tag_155:\n        /* \"#utility.yul\":5486:5523   */\n      swap1\n      pop\n        /* \"#utility.yul\":5578:5582   */\n      0x20\n        /* \"#utility.yul\":5572:5576   */\n      dup2\n        /* \"#utility.yul\":5568:5583   */\n      add\n        /* \"#utility.yul\":5560:5583   */\n      swap1\n      pop\n        /* \"#utility.yul\":5282:5590   */\n      swap2\n      swap1\n      pop\n      jump\t// out\n        /* \"#utility.yul\":5596:5747   */\n    tag_114:\n        /* \"#utility.yul\":5682:5686   */\n      0x00\n        /* \"#utility.yul\":5705:5708   */\n      dup2\n        /* \"#utility.yul\":5697:5708   */\n      swap1\n      pop\n        /* \"#utility.yul\":5735:5739   */\n      0x20\n        /* \"#utility.yul\":5730:5733   */\n      dup3\n        /* \"#utility.yul\":5726:5740   */\n      add\n        /* \"#utility.yul\":5718:5740   */\n      swap1\n      pop\n        /* \"#utility.yul\":5596:5747   */\n      swap2\n      swap1\n      pop\n      jump\t// out\n        /* \"#utility.yul\":5753:5886   */\n    tag_110:\n        /* \"#utility.yul\":5839:5845   */\n      0x00\n        /* \"#utility.yul\":5873:5878   */\n      dup2\n        /* \"#utility.yul\":5867:5879   */\n      mload\n        /* \"#utility.yul\":5857:5879   */\n      swap1\n      pop\n        /* \"#utility.yul\":5753:5886   */\n      swap2\n      swap1\n      pop\n      jump\t// out\n        /* \"#utility.yul\":5892:5991   */\n    tag_124:\n        /* \"#utility.yul\":5944:5950   */\n      0x00\n        /* \"#utility.yul\":5978:5983   */\n      dup2\n        /* \"#utility.yul\":5972:5984   */\n      mload\n        /* \"#utility.yul\":5962:5984   */\n      swap1\n      pop\n        /* \"#utility.yul\":5892:5991   */\n      swap2\n      swap1\n      pop\n      jump\t// out\n        /* \"#utility.yul\":5997:6129   */\n    tag_120:\n        /* \"#utility.yul\":6086:6090   */\n      0x00\n        /* \"#utility.yul\":6118:6122   */\n      0x20\n        /* \"#utility.yul\":6113:6116   */\n      dup3\n        /* \"#utility.yul\":6109:6123   */\n      add\n        /* \"#utility.yul\":6101:6123   */\n      swap1\n      pop\n        /* \"#utility.yul\":5997:6129   */\n      swap2\n      swap1\n      pop\n      jump\t// out\n        /* \"#utility.yul\":6135:6338   */\n    tag_112:\n        /* \"#utility.yul\":6253:6264   */\n      0x00\n        /* \"#utility.yul\":6287:6293   */\n      dup3\n        /* \"#utility.yul\":6282:6285   */\n      dup3\n        /* \"#utility.yul\":6275:6294   */\n      mstore\n        /* \"#utility.yul\":6327:6331   */\n      0x20\n        /* \"#utility.yul\":6322:6325   */\n      dup3\n        /* \"#utility.yul\":6318:6332   */\n      add\n        /* \"#utility.yul\":6303:6332   */\n      swap1\n      pop\n        /* \"#utility.yul\":6135:6338   */\n      swap3\n      swap2\n      pop\n      pop\n      jump\t// out\n        /* \"#utility.yul\":6344:6503   */\n    tag_126:\n        /* \"#utility.yul\":6418:6429   */\n      0x00\n        /* \"#utility.yul\":6452:6458   */\n      dup3\n        /* \"#utility.yul\":6447:6450   */\n      dup3\n        /* \"#utility.yul\":6440:6459   */\n      mstore\n        /* \"#utility.yul\":6492:6496   */\n      0x20\n        /* \"#utility.yul\":6487:6490   */\n      dup3\n        /* \"#utility.yul\":6483:6497   */\n      add\n        /* \"#utility.yul\":6468:6497   */\n      swap1\n      pop\n        /* \"#utility.yul\":6344:6503   */\n      swap3\n      swap2\n      pop\n      pop\n      jump\t// out\n        /* \"#utility.yul\":6509:6586   */\n    tag_137:\n        /* \"#utility.yul\":6546:6553   */\n      0x00\n        /* \"#utility.yul\":6575:6580   */\n      dup2\n        /* \"#utility.yul\":6564:6580   */\n      swap1\n      pop\n        /* \"#utility.yul\":6509:6586   */\n      swap2\n      swap1\n      pop\n      jump\t// out\n        /* \"#utility.yul\":6592:6746   */\n    tag_80:\n        /* \"#utility.yul\":6676:6682   */\n      dup3\n        /* \"#utility.yul\":6671:6674   */\n      dup2\n        /* \"#utility.yul\":6666:6669   */\n      dup4\n        /* \"#utility.yul\":6653:6683   */\n      calldatacopy\n        /* \"#utility.yul\":6738:6739   */\n      0x00\n        /* \"#utility.yul\":6729:6735   */\n      dup4\n        /* \"#utility.yul\":6724:6727   */\n      dup4\n        /* \"#utility.yul\":6720:6736   */\n      add\n        /* \"#utility.yul\":6713:6740   */\n      mstore\n        /* \"#utility.yul\":6592:6746   */\n      pop\n      pop\n      pop\n      jump\t// out\n        /* \"#utility.yul\":6752:7059   */\n    tag_128:\n        /* \"#utility.yul\":6820:6821   */\n      0x00\n        /* \"#utility.yul\":6830:6943   */\n    tag_165:\n        /* \"#utility.yul\":6844:6850   */\n      dup4\n        /* \"#utility.yul\":6841:6842   */\n      dup2\n        /* \"#utility.yul\":6838:6851   */\n      lt\n        /* \"#utility.yul\":6830:6943   */\n      iszero\n      tag_167\n      jumpi\n        /* \"#utility.yul\":6929:6930   */\n      dup1\n        /* \"#utility.yul\":6924:6927   */\n      dup3\n        /* \"#utility.yul\":6920:6931   */\n      add\n        /* \"#utility.yul\":6914:6932   */\n      mload\n        /* \"#utility.yul\":6910:6911   */\n      dup2\n        /* \"#utility.yul\":6905:6908   */\n      dup5\n        /* \"#utility.yul\":6901:6912   */\n      add\n        /* \"#utility.yul\":6894:6933   */\n      mstore\n        /* \"#utility.yul\":6866:6868   */\n      0x20\n        /* \"#utility.yul\":6863:6864   */\n      dup2\n        /* \"#utility.yul\":6859:6869   */\n      add\n        /* \"#utility.yul\":6854:6869   */\n      swap1\n      pop\n        /* \"#utility.yul\":6830:6943   */\n      jump(tag_165)\n    tag_167:\n        /* \"#utility.yul\":6961:6967   */\n      dup4\n        /* \"#utility.yul\":6958:6959   */\n      dup2\n        /* \"#utility.yul\":6955:6968   */\n      gt\n        /* \"#utility.yul\":6952:7053   */\n      iszero\n      tag_168\n      jumpi\n        /* \"#utility.yul\":7041:7042   */\n      0x00\n        /* \"#utility.yul\":7032:7038   */\n      dup5\n        /* \"#utility.yul\":7027:7030   */\n      dup5\n        /* \"#utility.yul\":7023:7039   */\n      add\n        /* \"#utility.yul\":7016:7043   */\n      mstore\n        /* \"#utility.yul\":6952:7053   */\n    tag_168:\n        /* \"#utility.yul\":6801:7059   */\n      pop\n        /* \"#utility.yul\":6752:7059   */\n      pop\n      pop\n      pop\n      jump\t// out\n        /* \"#utility.yul\":7065:7385   */\n    tag_33:\n        /* \"#utility.yul\":7109:7115   */\n      0x00\n        /* \"#utility.yul\":7146:7147   */\n      0x02\n        /* \"#utility.yul\":7140:7144   */\n      dup3\n        /* \"#utility.yul\":7136:7148   */\n      div\n        /* \"#utility.yul\":7126:7148   */\n      swap1\n      pop\n        /* \"#utility.yul\":7193:7194   */\n      0x01\n        /* \"#utility.yul\":7187:7191   */\n      dup3\n        /* \"#utility.yul\":7183:7195   */\n      and\n        /* \"#utility.yul\":7214:7232   */\n      dup1\n        /* \"#utility.yul\":7204:7285   */\n      tag_170\n      jumpi\n        /* \"#utility.yul\":7270:7274   */\n      0x7f\n        /* \"#utility.yul\":7262:7268   */\n      dup3\n        /* \"#utility.yul\":7258:7275   */\n      and\n        /* \"#utility.yul\":7248:7275   */\n      swap2\n      pop\n        /* \"#utility.yul\":7204:7285   */\n    tag_170:\n        /* \"#utility.yul\":7332:7334   */\n      0x20\n        /* \"#utility.yul\":7324:7330   */\n      dup3\n        /* \"#utility.yul\":7321:7335   */\n      lt\n        /* \"#utility.yul\":7301:7319   */\n      dup2\n        /* \"#utility.yul\":7298:7336   */\n      eq\n        /* \"#utility.yul\":7295:7379   */\n      iszero\n      tag_171\n      jumpi\n        /* \"#utility.yul\":7351:7369   */\n      tag_172\n      tag_173\n      jump\t// in\n    tag_172:\n        /* \"#utility.yul\":7295:7379   */\n    tag_171:\n        /* \"#utility.yul\":7116:7385   */\n      pop\n        /* \"#utility.yul\":7065:7385   */\n      swap2\n      swap1\n      pop\n      jump\t// out\n        /* \"#utility.yul\":7391:7672   */\n    tag_149:\n        /* \"#utility.yul\":7474:7501   */\n      tag_175\n        /* \"#utility.yul\":7496:7500   */\n      dup3\n        /* \"#utility.yul\":7474:7501   */\n      tag_130\n      jump\t// in\n    tag_175:\n        /* \"#utility.yul\":7466:7472   */\n      dup2\n        /* \"#utility.yul\":7462:7502   */\n      add\n        /* \"#utility.yul\":7604:7610   */\n      dup2\n        /* \"#utility.yul\":7592:7602   */\n      dup2\n        /* \"#utility.yul\":7589:7611   */\n      lt\n        /* \"#utility.yul\":7568:7586   */\n      0xffffffffffffffff\n        /* \"#utility.yul\":7556:7566   */\n      dup3\n        /* \"#utility.yul\":7553:7587   */\n      gt\n        /* \"#utility.yul\":7550:7612   */\n      or\n        /* \"#utility.yul\":7547:7635   */\n      iszero\n      tag_176\n      jumpi\n        /* \"#utility.yul\":7615:7633   */\n      tag_177\n      tag_154\n      jump\t// in\n    tag_177:\n        /* \"#utility.yul\":7547:7635   */\n    tag_176:\n        /* \"#utility.yul\":7655:7665   */\n      dup1\n        /* \"#utility.yul\":7651:7653   */\n      0x40\n        /* \"#utility.yul\":7644:7666   */\n      mstore\n        /* \"#utility.yul\":7434:7672   */\n      pop\n        /* \"#utility.yul\":7391:7672   */\n      pop\n      pop\n      jump\t// out\n        /* \"#utility.yul\":7678:7911   */\n    tag_49:\n        /* \"#utility.yul\":7717:7720   */\n      0x00\n        /* \"#utility.yul\":7740:7764   */\n      tag_179\n        /* \"#utility.yul\":7758:7763   */\n      dup3\n        /* \"#utility.yul\":7740:7764   */\n      tag_137\n      jump\t// in\n    tag_179:\n        /* \"#utility.yul\":7731:7764   */\n      swap2\n      pop\n        /* \"#utility.yul\":7786:7852   */\n      0xffffffffffffffffffffffffffffffffffffffffffffffffffffffffffffffff\n        /* \"#utility.yul\":7779:7784   */\n      dup3\n        /* \"#utility.yul\":7776:7853   */\n      eq\n        /* \"#utility.yul\":7773:7876   */\n      iszero\n      tag_180\n      jumpi\n        /* \"#utility.yul\":7856:7874   */\n      tag_181\n      tag_182\n      jump\t// in\n    tag_181:\n        /* \"#utility.yul\":7773:7876   */\n    tag_180:\n        /* \"#utility.yul\":7903:7904   */\n      0x01\n        /* \"#utility.yul\":7896:7901   */\n      dup3\n        /* \"#utility.yul\":7892:7905   */\n      add\n        /* \"#utility.yul\":7885:7905   */\n      swap1\n      pop\n        /* \"#utility.yul\":7678:7911   */\n      swap2\n      swap1\n      pop\n      jump\t// out\n        /* \"#utility.yul\":7917:8097   */\n    tag_182:\n        /* \"#utility.yul\":7965:8042   */\n      0x4e487b7100000000000000000000000000000000000000000000000000000000\n        /* \"#utility.yul\":7962:7963   */\n      0x00\n        /* \"#utility.yul\":7955:8043   */\n      mstore\n        /* \"#utility.yul\":8062:8066   */\n      0x11\n        /* \"#utility.yul\":8059:8060   */\n      0x04\n        /* \"#utility.yul\":8052:8067   */\n      mstore\n        /* \"#utility.yul\":8086:8090   */\n      0x24\n        /* \"#utility.yul\":8083:8084   */\n      0x00\n        /* \"#utility.yul\":8076:8091   */\n      revert\n        /* \"#utility.yul\":8103:8283   */\n    tag_173:\n        /* \"#utility.yul\":8151:8228   */\n      0x4e487b7100000000000000000000000000000000000000000000000000000000\n        /* \"#utility.yul\":8148:8149   */\n      0x00\n        /* \"#utility.yul\":8141:8229   */\n      mstore\n        /* \"#utility.yul\":8248:8252   */\n      0x22\n        /* \"#utility.yul\":8245:8246   */\n      0x04\n        /* \"#utility.yul\":8238:8253   */\n      mstore\n        /* \"#utility.yul\":8272:8276   */\n      0x24\n        /* \"#utility.yul\":8269:8270   */\n      0x00\n        /* \"#utility.yul\":8262:8277   */\n      revert\n        /* \"#utility.yul\":8289:8469   */\n    tag_44:\n        /* \"#utility.yul\":8337:8414   */\n      0x4e487b7100000000000000000000000000000000000000000000000000000000\n        /* \"#utility.yul\":8334:8335   */\n      0x00\n        /* \"#utility.yul\":8327:8415   */\n      mstore\n        /* \"#utility.yul\":8434:8438   */\n      0x32\n        /* \"#utility.yul\":8431:8432   */\n      0x04\n        /* \"#utility.yul\":8424:8439   */\n      mstore\n        /* \"#utility.yul\":8458:8462   */\n      0x24\n        /* \"#utility.yul\":8455:8456   */\n      0x00\n        /* \"#utility.yul\":8448:8463   */\n      revert\n        /* \"#utility.yul\":8475:8655   */\n    tag_154:\n        /* \"#utility.yul\":8523:8600   */\n      0x4e487b7100000000000000000000000000000000000000000000000000000000\n        /* \"#utility.yul\":8520:8521   */\n      0x00\n        /* \"#utility.yul\":8513:8601   */\n      mstore\n        /* \"#utility.yul\":8620:8624   */\n      0x41\n        /* \"#utility.yul\":8617:8618   */\n      0x04\n        /* \"#utility.yul\":8610:8625   */\n      mstore\n        /* \"#utility.yul\":8644:8648   */\n      0x24\n        /* \"#utility.yul\":8641:8642   */\n      0x00\n        /* \"#utility.yul\":8634:8649   */\n      revert\n        /* \"#utility.yul\":8661:8778   */\n    tag_85:\n        /* \"#utility.yul\":8770:8771   */\n      0x00\n        /* \"#utility.yul\":8767:8768   */\n      dup1\n        /* \"#utility.yul\":8760:8772   */\n      revert\n        /* \"#utility.yul\":8784:8901   */\n    tag_78:\n        /* \"#utility.yul\":8893:8894   */\n      0x00\n        /* \"#utility.yul\":8890:8891   */\n      dup1\n        /* \"#utility.yul\":8883:8895   */\n      revert\n        /* \"#utility.yul\":8907:9024   */\n    tag_97:\n        /* \"#utility.yul\":9016:9017   */\n      0x00\n        /* \"#utility.yul\":9013:9014   */\n      dup1\n        /* \"#utility.yul\":9006:9018   */\n      revert\n        /* \"#utility.yul\":9030:9147   */\n    tag_94:\n        /* \"#utility.yul\":9139:9140   */\n      0x00\n        /* \"#utility.yul\":9136:9137   */\n      dup1\n        /* \"#utility.yul\":9129:9141   */\n      revert\n        /* \"#utility.yul\":9153:9255   */\n    tag_130:\n        /* \"#utility.yul\":9194:9200   */\n      0x00\n        /* \"#utility.yul\":9245:9247   */\n      0x1f\n        /* \"#utility.yul\":9241:9248   */\n      not\n        /* \"#utility.yul\":9236:9238   */\n      0x1f\n        /* \"#utility.yul\":9229:9234   */\n      dup4\n        /* \"#utility.yul\":9225:9239   */\n      add\n        /* \"#utility.yul\":9221:9249   */\n      and\n        /* \"#utility.yul\":9211:9249   */\n      swap1\n      pop\n        /* \"#utility.yul\":9153:9255   */\n      swap2\n      swap1\n      pop\n      jump\t// out\n        /* \"#utility.yul\":9261:9383   */\n    tag_90:\n        /* \"#utility.yul\":9334:9358   */\n      tag_193\n        /* \"#utility.yul\":9352:9357   */\n      dup2\n        /* \"#utility.yul\":9334:9358   */\n      tag_137\n      jump\t// in\n    tag_193:\n        /* \"#utility.yul\":9327:9332   */\n      dup2\n        /* \"#utility.yul\":9324:9359   */\n      eq\n        /* \"#utility.yul\":9314:9377   */\n      tag_194\n      jumpi\n        /* \"#utility.yul\":9373:9374   */\n      0x00\n        /* \"#utility.yul\":9370:9371   */\n      dup1\n        /* \"#utility.yul\":9363:9375   */\n      revert\n        /* \"#utility.yul\":9314:9377   */\n    tag_194:\n        /* \"#utility.yul\":9261:9383   */\n      pop\n      jump\t// out\n\n    auxdata: 0xa26469706673582212202aa0665fc5fbe812e01566db96a32e55353174aded271b1a7436aaf41b3ab89164736f6c63430008070033\n}\n",
				"bytecode": {
					"linkReferences": {},
					"object": "608060405234801561001057600080fd5b506108c6806100206000396000f3fe608060405234801561001057600080fd5b506004361061004c5760003560e01c8063234c668614610051578063942b765a1461006d578063a4a2c40b1461008b578063b868ef57146100a9575b600080fd5b61006b60048036038101906100669190610425565b6100d9565b005b610075610146565b60405161008291906105b8565b60405180910390f35b610093610241565b6040516100a091906105da565b60405180910390f35b6100c360048036038101906100be919061046e565b6102ab565b6040516100d091906105b8565b60405180910390f35b60006040518060400160405280600081526020018381525090806001815401808255809150506001900390600052602060002090600202016000909190919091506000820151816000015560208201518160010190805190602001906101409291906102fd565b50505050565b60606000805480602002602001604051908101604052809291908181526020016000905b828210156102385783829060005260206000209060020201604051806040016040529081600082015481526020016001820180546101a7906106ec565b80601f01602080910402602001604051908101604052809291908181526020018280546101d3906106ec565b80156102205780601f106101f557610100808354040283529160200191610220565b820191906000526020600020905b81548152906001019060200180831161020357829003601f168201915b5050505050815250508152602001906001019061016a565b50505050905090565b6000606060005b6001805490508110156102a65760018181548110610269576102686107f6565b5b9060005260206000200154828281518110610287576102866107f6565b5b602002602001018181525050808061029e9061074f565b915050610248565b505090565b60608060005b6000805490508110156102f35783600082815481106102d3576102d26107f6565b5b9060005260206000209050505080806102eb9061074f565b9150506102b1565b5080915050919050565b828054610309906106ec565b90600052602060002090601f01602090048101928261032b5760008555610372565b82601f1061034457805160ff1916838001178555610372565b82800160010185558215610372579182015b82811115610371578251825591602001919060010190610356565b5b50905061037f9190610383565b5090565b5b8082111561039c576000816000905550600101610384565b5090565b60006103b36103ae8461061a565b6105f5565b9050828152602081018484840111156103cf576103ce610859565b5b6103da8482856106aa565b509392505050565b600082601f8301126103f7576103f6610854565b5b81356104078482602086016103a0565b91505092915050565b60008135905061041f81610879565b92915050565b60006020828403121561043b5761043a610863565b5b600082013567ffffffffffffffff8111156104595761045861085e565b5b610465848285016103e2565b91505092915050565b60006020828403121561048457610483610863565b5b600061049284828501610410565b91505092915050565b60006104a7838361055d565b905092915050565b60006104ba8261065b565b6104c4818561067e565b9350836020820285016104d68561064b565b8060005b8581101561051257848403895281516104f3858261049b565b94506104fe83610671565b925060208a019950506001810190506104da565b50829750879550505050505092915050565b600061052f82610666565b610539818561068f565b93506105498185602086016106b9565b61055281610868565b840191505092915050565b6000604083016000830151610575600086018261059a565b506020830151848203602086015261058d8282610524565b9150508091505092915050565b6105a3816106a0565b82525050565b6105b2816106a0565b82525050565b600060208201905081810360008301526105d281846104af565b905092915050565b60006020820190506105ef60008301846105a9565b92915050565b60006105ff610610565b905061060b828261071e565b919050565b6000604051905090565b600067ffffffffffffffff82111561063557610634610825565b5b61063e82610868565b9050602081019050919050565b6000819050602082019050919050565b600081519050919050565b600081519050919050565b6000602082019050919050565b600082825260208201905092915050565b600082825260208201905092915050565b6000819050919050565b82818337600083830152505050565b60005b838110156106d75780820151818401526020810190506106bc565b838111156106e6576000848401525b50505050565b6000600282049050600182168061070457607f821691505b60208210811415610718576107176107c7565b5b50919050565b61072782610868565b810181811067ffffffffffffffff8211171561074657610745610825565b5b80604052505050565b600061075a826106a0565b91507fffffffffffffffffffffffffffffffffffffffffffffffffffffffffffffffff82141561078d5761078c610798565b5b600182019050919050565b7f4e487b7100000000000000000000000000000000000000000000000000000000600052601160045260246000fd5b7f4e487b7100000000000000000000000000000000000000000000000000000000600052602260045260246000fd5b7f4e487b7100000000000000000000000000000000000000000000000000000000600052603260045260246000fd5b7f4e487b7100000000000000000000000000000000000000000000000000000000600052604160045260246000fd5b600080fd5b600080fd5b600080fd5b600080fd5b6000601f19601f8301169050919050565b610882816106a0565b811461088d57600080fd5b5056fea26469706673582212202aa0665fc5fbe812e01566db96a32e55353174aded271b1a7436aaf41b3ab89164736f6c63430008070033",
					"opcodes": "PUSH1 0x80 PUSH1 0x40 MSTORE CALLVALUE DUP1 ISZERO PUSH2 0x10 JUMPI PUSH1 0x0 DUP1 REVERT JUMPDEST POP PUSH2 0x8C6 DUP1 PUSH2 0x20 PUSH1 0x0 CODECOPY PUSH1 0x0 RETURN INVALID PUSH1 0x80 PUSH1 0x40 MSTORE CALLVALUE DUP1 ISZERO PUSH2 0x10 JUMPI PUSH1 0x0 DUP1 REVERT JUMPDEST POP PUSH1 0x4 CALLDATASIZE LT PUSH2 0x4C JUMPI PUSH1 0x0 CALLDATALOAD PUSH1 0xE0 SHR DUP1 PUSH4 0x234C6686 EQ PUSH2 0x51 JUMPI DUP1 PUSH4 0x942B765A EQ PUSH2 0x6D JUMPI DUP1 PUSH4 0xA4A2C40B EQ PUSH2 0x8B JUMPI DUP1 PUSH4 0xB868EF57 EQ PUSH2 0xA9 JUMPI JUMPDEST PUSH1 0x0 DUP1 REVERT JUMPDEST PUSH2 0x6B PUSH1 0x4 DUP1 CALLDATASIZE SUB DUP2 ADD SWAP1 PUSH2 0x66 SWAP2 SWAP1 PUSH2 0x425 JUMP JUMPDEST PUSH2 0xD9 JUMP JUMPDEST STOP JUMPDEST PUSH2 0x75 PUSH2 0x146 JUMP JUMPDEST PUSH1 0x40 MLOAD PUSH2 0x82 SWAP2 SWAP1 PUSH2 0x5B8 JUMP JUMPDEST PUSH1 0x40 MLOAD DUP1 SWAP2 SUB SWAP1 RETURN JUMPDEST PUSH2 0x93 PUSH2 0x241 JUMP JUMPDEST PUSH1 0x40 MLOAD PUSH2 0xA0 SWAP2 SWAP1 PUSH2 0x5DA JUMP JUMPDEST PUSH1 0x40 MLOAD DUP1 SWAP2 SUB SWAP1 RETURN JUMPDEST PUSH2 0xC3 PUSH1 0x4 DUP1 CALLDATASIZE SUB DUP2 ADD SWAP1 PUSH2 0xBE SWAP2 SWAP1 PUSH2 0x46E JUMP JUMPDEST PUSH2 0x2AB JUMP JUMPDEST PUSH1 0x40 MLOAD PUSH2 0xD0 SWAP2 SWAP1 PUSH2 0x5B8 JUMP JUMPDEST PUSH1 0x40 MLOAD DUP1 SWAP2 SUB SWAP1 RETURN JUMPDEST PUSH1 0x0 PUSH1 0x40 MLOAD DUP1 PUSH1 0x40 ADD PUSH1 0x40 MSTORE DUP1 PUSH1 0x0 DUP2 MSTORE PUSH1 0x20 ADD DUP4 DUP2 MSTORE POP SWAP1 DUP1 PUSH1 0x1 DUP2 SLOAD ADD DUP1 DUP3 SSTORE DUP1 SWAP2 POP POP PUSH1 0x1 SWAP1 SUB SWAP1 PUSH1 0x0 MSTORE PUSH1 0x20 PUSH1 0x0 KECCAK256 SWAP1 PUSH1 0x2 MUL ADD PUSH1 0x0 SWAP1 SWAP2 SWAP1 SWAP2 SWAP1 SWAP2 POP PUSH1 0x0 DUP3 ADD MLOAD DUP2 PUSH1 0x0 ADD SSTORE PUSH1 0x20 DUP3 ADD MLOAD DUP2 PUSH1 0x1 ADD SWAP1 DUP1 MLOAD SWAP1 PUSH1 0x20 ADD SWAP1 PUSH2 0x140 SWAP3 SWAP2 SWAP1 PUSH2 0x2FD JUMP JUMPDEST POP POP POP POP JUMP JUMPDEST PUSH1 0x60 PUSH1 0x0 DUP1 SLOAD DUP1 PUSH1 0x20 MUL PUSH1 0x20 ADD PUSH1 0x40 MLOAD SWAP1 DUP2 ADD PUSH1 0x40 MSTORE DUP1 SWAP3 SWAP2 SWAP1 DUP2 DUP2 MSTORE PUSH1 0x20 ADD PUSH1 0x0 SWAP1 JUMPDEST DUP3 DUP3 LT ISZERO PUSH2 0x238 JUMPI DUP4 DUP3 SWAP1 PUSH1 0x0 MSTORE PUSH1 0x20 PUSH1 0x0 KECCAK256 SWAP1 PUSH1 0x2 MUL ADD PUSH1 0x40 MLOAD DUP1 PUSH1 0x40 ADD PUSH1 0x40 MSTORE SWAP1 DUP2 PUSH1 0x0 DUP3 ADD SLOAD DUP2 MSTORE PUSH1 0x20 ADD PUSH1 0x1 DUP3 ADD DUP1 SLOAD PUSH2 0x1A7 SWAP1 PUSH2 0x6EC JUMP JUMPDEST DUP1 PUSH1 0x1F ADD PUSH1 0x20 DUP1 SWAP2 DIV MUL PUSH1 0x20 ADD PUSH1 0x40 MLOAD SWAP1 DUP2 ADD PUSH1 0x40 MSTORE DUP1 SWAP3 SWAP2 SWAP1 DUP2 DUP2 MSTORE PUSH1 0x20 ADD DUP3 DUP1 SLOAD PUSH2 0x1D3 SWAP1 PUSH2 0x6EC JUMP JUMPDEST DUP1 ISZERO PUSH2 0x220 JUMPI DUP1 PUSH1 0x1F LT PUSH2 0x1F5 JUMPI PUSH2 0x100 DUP1 DUP4 SLOAD DIV MUL DUP4 MSTORE SWAP2 PUSH1 0x20 ADD SWAP2 PUSH2 0x220 JUMP JUMPDEST DUP3 ADD SWAP2 SWAP1 PUSH1 0x0 MSTORE PUSH1 0x20 PUSH1 0x0 KECCAK256 SWAP1 JUMPDEST DUP2 SLOAD DUP2 MSTORE SWAP1 PUSH1 0x1 ADD SWAP1 PUSH1 0x20 ADD DUP1 DUP4 GT PUSH2 0x203 JUMPI DUP3 SWAP1 SUB PUSH1 0x1F AND DUP3 ADD SWAP2 JUMPDEST POP POP POP POP POP DUP2 MSTORE POP POP DUP2 MSTORE PUSH1 0x20 ADD SWAP1 PUSH1 0x1 ADD SWAP1 PUSH2 0x16A JUMP JUMPDEST POP POP POP POP SWAP1 POP SWAP1 JUMP JUMPDEST PUSH1 0x0 PUSH1 0x60 PUSH1 0x0 JUMPDEST PUSH1 0x1 DUP1 SLOAD SWAP1 POP DUP2 LT ISZERO PUSH2 0x2A6 JUMPI PUSH1 0x1 DUP2 DUP2 SLOAD DUP2 LT PUSH2 0x269 JUMPI PUSH2 0x268 PUSH2 0x7F6 JUMP JUMPDEST JUMPDEST SWAP1 PUSH1 0x0 MSTORE PUSH1 0x20 PUSH1 0x0 KECCAK256 ADD SLOAD DUP3 DUP3 DUP2 MLOAD DUP2 LT PUSH2 0x287 JUMPI PUSH2 0x286 PUSH2 0x7F6 JUMP JUMPDEST JUMPDEST PUSH1 0x20 MUL PUSH1 0x20 ADD ADD DUP2 DUP2 MSTORE POP POP DUP1 DUP1 PUSH2 0x29E SWAP1 PUSH2 0x74F JUMP JUMPDEST SWAP2 POP POP PUSH2 0x248 JUMP JUMPDEST POP POP SWAP1 JUMP JUMPDEST PUSH1 0x60 DUP1 PUSH1 0x0 JUMPDEST PUSH1 0x0 DUP1 SLOAD SWAP1 POP DUP2 LT ISZERO PUSH2 0x2F3 JUMPI DUP4 PUSH1 0x0 DUP3 DUP2 SLOAD DUP2 LT PUSH2 0x2D3 JUMPI PUSH2 0x2D2 PUSH2 0x7F6 JUMP JUMPDEST JUMPDEST SWAP1 PUSH1 0x0 MSTORE PUSH1 0x20 PUSH1 0x0 KECCAK256 SWAP1 POP POP POP DUP1 DUP1 PUSH2 0x2EB SWAP1 PUSH2 0x74F JUMP JUMPDEST SWAP2 POP POP PUSH2 0x2B1 JUMP JUMPDEST POP DUP1 SWAP2 POP POP SWAP2 SWAP1 POP JUMP JUMPDEST DUP3 DUP1 SLOAD PUSH2 0x309 SWAP1 PUSH2 0x6EC JUMP JUMPDEST SWAP1 PUSH1 0x0 MSTORE PUSH1 0x20 PUSH1 0x0 KECCAK256 SWAP1 PUSH1 0x1F ADD PUSH1 0x20 SWAP1 DIV DUP2 ADD SWAP3 DUP3 PUSH2 0x32B JUMPI PUSH1 0x0 DUP6 SSTORE PUSH2 0x372 JUMP JUMPDEST DUP3 PUSH1 0x1F LT PUSH2 0x344 JUMPI DUP1 MLOAD PUSH1 0xFF NOT AND DUP4 DUP1 ADD OR DUP6 SSTORE PUSH2 0x372 JUMP JUMPDEST DUP3 DUP1 ADD PUSH1 0x1 ADD DUP6 SSTORE DUP3 ISZERO PUSH2 0x372 JUMPI SWAP2 DUP3 ADD JUMPDEST DUP3 DUP2 GT ISZERO PUSH2 0x371 JUMPI DUP3 MLOAD DUP3 SSTORE SWAP2 PUSH1 0x20 ADD SWAP2 SWAP1 PUSH1 0x1 ADD SWAP1 PUSH2 0x356 JUMP JUMPDEST JUMPDEST POP SWAP1 POP PUSH2 0x37F SWAP2 SWAP1 PUSH2 0x383 JUMP JUMPDEST POP SWAP1 JUMP JUMPDEST JUMPDEST DUP1 DUP3 GT ISZERO PUSH2 0x39C JUMPI PUSH1 0x0 DUP2 PUSH1 0x0 SWAP1 SSTORE POP PUSH1 0x1 ADD PUSH2 0x384 JUMP JUMPDEST POP SWAP1 JUMP JUMPDEST PUSH1 0x0 PUSH2 0x3B3 PUSH2 0x3AE DUP5 PUSH2 0x61A JUMP JUMPDEST PUSH2 0x5F5 JUMP JUMPDEST SWAP1 POP DUP3 DUP2 MSTORE PUSH1 0x20 DUP2 ADD DUP5 DUP5 DUP5 ADD GT ISZERO PUSH2 0x3CF JUMPI PUSH2 0x3CE PUSH2 0x859 JUMP JUMPDEST JUMPDEST PUSH2 0x3DA DUP5 DUP3 DUP6 PUSH2 0x6AA JUMP JUMPDEST POP SWAP4 SWAP3 POP POP POP JUMP JUMPDEST PUSH1 0x0 DUP3 PUSH1 0x1F DUP4 ADD SLT PUSH2 0x3F7 JUMPI PUSH2 0x3F6 PUSH2 0x854 JUMP JUMPDEST JUMPDEST DUP2 CALLDATALOAD PUSH2 0x407 DUP5 DUP3 PUSH1 0x20 DUP7 ADD PUSH2 0x3A0 JUMP JUMPDEST SWAP2 POP POP SWAP3 SWAP2 POP POP JUMP JUMPDEST PUSH1 0x0 DUP2 CALLDATALOAD SWAP1 POP PUSH2 0x41F DUP2 PUSH2 0x879 JUMP JUMPDEST SWAP3 SWAP2 POP POP JUMP JUMPDEST PUSH1 0x0 PUSH1 0x20 DUP3 DUP5 SUB SLT ISZERO PUSH2 0x43B JUMPI PUSH2 0x43A PUSH2 0x863 JUMP JUMPDEST JUMPDEST PUSH1 0x0 DUP3 ADD CALLDATALOAD PUSH8 0xFFFFFFFFFFFFFFFF DUP2 GT ISZERO PUSH2 0x459 JUMPI PUSH2 0x458 PUSH2 0x85E JUMP JUMPDEST JUMPDEST PUSH2 0x465 DUP5 DUP3 DUP6 ADD PUSH2 0x3E2 JUMP JUMPDEST SWAP2 POP POP SWAP3 SWAP2 POP POP JUMP JUMPDEST PUSH1 0x0 PUSH1 0x20 DUP3 DUP5 SUB SLT ISZERO PUSH2 0x484 JUMPI PUSH2 0x483 PUSH2 0x863 JUMP JUMPDEST JUMPDEST PUSH1 0x0 PUSH2 0x492 DUP5 DUP3 DUP6 ADD PUSH2 0x410 JUMP JUMPDEST SWAP2 POP POP SWAP3 SWAP2 POP POP JUMP JUMPDEST PUSH1 0x0 PUSH2 0x4A7 DUP4 DUP4 PUSH2 0x55D JUMP JUMPDEST SWAP1 POP SWAP3 SWAP2 POP POP JUMP JUMPDEST PUSH1 0x0 PUSH2 0x4BA DUP3 PUSH2 0x65B JUMP JUMPDEST PUSH2 0x4C4 DUP2 DUP6 PUSH2 0x67E JUMP JUMPDEST SWAP4 POP DUP4 PUSH1 0x20 DUP3 MUL DUP6 ADD PUSH2 0x4D6 DUP6 PUSH2 0x64B JUMP JUMPDEST DUP1 PUSH1 0x0 JUMPDEST DUP6 DUP2 LT ISZERO PUSH2 0x512 JUMPI DUP5 DUP5 SUB DUP10 MSTORE DUP2 MLOAD PUSH2 0x4F3 DUP6 DUP3 PUSH2 0x49B JUMP JUMPDEST SWAP5 POP PUSH2 0x4FE DUP4 PUSH2 0x671 JUMP JUMPDEST SWAP3 POP PUSH1 0x20 DUP11 ADD SWAP10 POP POP PUSH1 0x1 DUP2 ADD SWAP1 POP PUSH2 0x4DA JUMP JUMPDEST POP DUP3 SWAP8 POP DUP8 SWAP6 POP POP POP POP POP POP SWAP3 SWAP2 POP POP JUMP JUMPDEST PUSH1 0x0 PUSH2 0x52F DUP3 PUSH2 0x666 JUMP JUMPDEST PUSH2 0x539 DUP2 DUP6 PUSH2 0x68F JUMP JUMPDEST SWAP4 POP PUSH2 0x549 DUP2 DUP6 PUSH1 0x20 DUP7 ADD PUSH2 0x6B9 JUMP JUMPDEST PUSH2 0x552 DUP2 PUSH2 0x868 JUMP JUMPDEST DUP5 ADD SWAP2 POP POP SWAP3 SWAP2 POP POP JUMP JUMPDEST PUSH1 0x0 PUSH1 0x40 DUP4 ADD PUSH1 0x0 DUP4 ADD MLOAD PUSH2 0x575 PUSH1 0x0 DUP7 ADD DUP3 PUSH2 0x59A JUMP JUMPDEST POP PUSH1 0x20 DUP4 ADD MLOAD DUP5 DUP3 SUB PUSH1 0x20 DUP7 ADD MSTORE PUSH2 0x58D DUP3 DUP3 PUSH2 0x524 JUMP JUMPDEST SWAP2 POP POP DUP1 SWAP2 POP POP SWAP3 SWAP2 POP POP JUMP JUMPDEST PUSH2 0x5A3 DUP2 PUSH2 0x6A0 JUMP JUMPDEST DUP3 MSTORE POP POP JUMP JUMPDEST PUSH2 0x5B2 DUP2 PUSH2 0x6A0 JUMP JUMPDEST DUP3 MSTORE POP POP JUMP JUMPDEST PUSH1 0x0 PUSH1 0x20 DUP3 ADD SWAP1 POP DUP2 DUP2 SUB PUSH1 0x0 DUP4 ADD MSTORE PUSH2 0x5D2 DUP2 DUP5 PUSH2 0x4AF JUMP JUMPDEST SWAP1 POP SWAP3 SWAP2 POP POP JUMP JUMPDEST PUSH1 0x0 PUSH1 0x20 DUP3 ADD SWAP1 POP PUSH2 0x5EF PUSH1 0x0 DUP4 ADD DUP5 PUSH2 0x5A9 JUMP JUMPDEST SWAP3 SWAP2 POP POP JUMP JUMPDEST PUSH1 0x0 PUSH2 0x5FF PUSH2 0x610 JUMP JUMPDEST SWAP1 POP PUSH2 0x60B DUP3 DUP3 PUSH2 0x71E JUMP JUMPDEST SWAP2 SWAP1 POP JUMP JUMPDEST PUSH1 0x0 PUSH1 0x40 MLOAD SWAP1 POP SWAP1 JUMP JUMPDEST PUSH1 0x0 PUSH8 0xFFFFFFFFFFFFFFFF DUP3 GT ISZERO PUSH2 0x635 JUMPI PUSH2 0x634 PUSH2 0x825 JUMP JUMPDEST JUMPDEST PUSH2 0x63E DUP3 PUSH2 0x868 JUMP JUMPDEST SWAP1 POP PUSH1 0x20 DUP2 ADD SWAP1 POP SWAP2 SWAP1 POP JUMP JUMPDEST PUSH1 0x0 DUP2 SWAP1 POP PUSH1 0x20 DUP3 ADD SWAP1 POP SWAP2 SWAP1 POP JUMP JUMPDEST PUSH1 0x0 DUP2 MLOAD SWAP1 POP SWAP2 SWAP1 POP JUMP JUMPDEST PUSH1 0x0 DUP2 MLOAD SWAP1 POP SWAP2 SWAP1 POP JUMP JUMPDEST PUSH1 0x0 PUSH1 0x20 DUP3 ADD SWAP1 POP SWAP2 SWAP1 POP JUMP JUMPDEST PUSH1 0x0 DUP3 DUP3 MSTORE PUSH1 0x20 DUP3 ADD SWAP1 POP SWAP3 SWAP2 POP POP JUMP JUMPDEST PUSH1 0x0 DUP3 DUP3 MSTORE PUSH1 0x20 DUP3 ADD SWAP1 POP SWAP3 SWAP2 POP POP JUMP JUMPDEST PUSH1 0x0 DUP2 SWAP1 POP SWAP2 SWAP1 POP JUMP JUMPDEST DUP3 DUP2 DUP4 CALLDATACOPY PUSH1 0x0 DUP4 DUP4 ADD MSTORE POP POP POP JUMP JUMPDEST PUSH1 0x0 JUMPDEST DUP4 DUP2 LT ISZERO PUSH2 0x6D7 JUMPI DUP1 DUP3 ADD MLOAD DUP2 DUP5 ADD MSTORE PUSH1 0x20 DUP2 ADD SWAP1 POP PUSH2 0x6BC JUMP JUMPDEST DUP4 DUP2 GT ISZERO PUSH2 0x6E6 JUMPI PUSH1 0x0 DUP5 DUP5 ADD MSTORE JUMPDEST POP POP POP POP JUMP JUMPDEST PUSH1 0x0 PUSH1 0x2 DUP3 DIV SWAP1 POP PUSH1 0x1 DUP3 AND DUP1 PUSH2 0x704 JUMPI PUSH1 0x7F DUP3 AND SWAP2 POP JUMPDEST PUSH1 0x20 DUP3 LT DUP2 EQ ISZERO PUSH2 0x718 JUMPI PUSH2 0x717 PUSH2 0x7C7 JUMP JUMPDEST JUMPDEST POP SWAP2 SWAP1 POP JUMP JUMPDEST PUSH2 0x727 DUP3 PUSH2 0x868 JUMP JUMPDEST DUP2 ADD DUP2 DUP2 LT PUSH8 0xFFFFFFFFFFFFFFFF DUP3 GT OR ISZERO PUSH2 0x746 JUMPI PUSH2 0x745 PUSH2 0x825 JUMP JUMPDEST JUMPDEST DUP1 PUSH1 0x40 MSTORE POP POP POP JUMP JUMPDEST PUSH1 0x0 PUSH2 0x75A DUP3 PUSH2 0x6A0 JUMP JUMPDEST SWAP2 POP PUSH32 0xFFFFFFFFFFFFFFFFFFFFFFFFFFFFFFFFFFFFFFFFFFFFFFFFFFFFFFFFFFFFFFFF DUP3 EQ ISZERO PUSH2 0x78D JUMPI PUSH2 0x78C PUSH2 0x798 JUMP JUMPDEST JUMPDEST PUSH1 0x1 DUP3 ADD SWAP1 POP SWAP2 SWAP1 POP JUMP JUMPDEST PUSH32 0x4E487B7100000000000000000000000000000000000000000000000000000000 PUSH1 0x0 MSTORE PUSH1 0x11 PUSH1 0x4 MSTORE PUSH1 0x24 PUSH1 0x0 REVERT JUMPDEST PUSH32 0x4E487B7100000000000000000000000000000000000000000000000000000000 PUSH1 0x0 MSTORE PUSH1 0x22 PUSH1 0x4 MSTORE PUSH1 0x24 PUSH1 0x0 REVERT JUMPDEST PUSH32 0x4E487B7100000000000000000000000000000000000000000000000000000000 PUSH1 0x0 MSTORE PUSH1 0x32 PUSH1 0x4 MSTORE PUSH1 0x24 PUSH1 0x0 REVERT JUMPDEST PUSH32 0x4E487B7100000000000000000000000000000000000000000000000000000000 PUSH1 0x0 MSTORE PUSH1 0x41 PUSH1 0x4 MSTORE PUSH1 0x24 PUSH1 0x0 REVERT JUMPDEST PUSH1 0x0 DUP1 REVERT JUMPDEST PUSH1 0x0 DUP1 REVERT JUMPDEST PUSH1 0x0 DUP1 REVERT JUMPDEST PUSH1 0x0 DUP1 REVERT JUMPDEST PUSH1 0x0 PUSH1 0x1F NOT PUSH1 0x1F DUP4 ADD AND SWAP1 POP SWAP2 SWAP1 POP JUMP JUMPDEST PUSH2 0x882 DUP2 PUSH2 0x6A0 JUMP JUMPDEST DUP2 EQ PUSH2 0x88D JUMPI PUSH1 0x0 DUP1 REVERT JUMPDEST POP JUMP INVALID LOG2 PUSH5 0x6970667358 0x22 SLT KECCAK256 0x2A LOG0 PUSH7 0x5FC5FBE812E015 PUSH7 0xDB96A32E553531 PUSH21 0xADED271B1A7436AAF41B3AB89164736F6C63430008 SMOD STOP CALLER "
				},
				"gasEstimates": {
					"creation": {
						"codeDepositCost": "449200",
						"executionCost": "486",
						"totalCost": "449686"
					},
					"external": {
						"createReadList(string)": "infinite",
						"fn()": "infinite",
						"getFilterReadList(uint256)": "infinite",
						"getList()": "infinite"
					}
				},
				"methodIdentifiers": {
					"createReadList(string)": "234c6686",
					"fn()": "a4a2c40b",
					"getFilterReadList(uint256)": "b868ef57",
					"getList()": "942b765a"
				}
			},
			"storageLayout": {
				"storage": [
					{
						"astId": 10,
						"contract": "array.sol:ArrayTest",
						"label": "list",
						"offset": 0,
						"slot": "0",
						"type": "t_array(t_struct(Book)6_storage)dyn_storage"
					},
					{
						"astId": 13,
						"contract": "array.sol:ArrayTest",
						"label": "arr",
						"offset": 0,
						"slot": "1",
						"type": "t_array(t_uint256)dyn_storage"
					}
				],
				"types": {
					"t_array(t_struct(Book)6_storage)dyn_storage": {
						"base": "t_struct(Book)6_storage",
						"encoding": "dynamic_array",
						"label": "struct ArrayTest.Book[]",
						"numberOfBytes": "32"
					},
					"t_array(t_uint256)dyn_storage": {
						"base": "t_uint256",
						"encoding": "dynamic_array",
						"label": "uint256[]",
						"numberOfBytes": "32"
					},
					"t_string_storage": {
						"encoding": "bytes",
						"label": "string",
						"numberOfBytes": "32"
					},
					"t_struct(Book)6_storage": {
						"encoding": "inplace",
						"label": "struct ArrayTest.Book",
						"members": [
							{
								"astId": 3,
								"contract": "array.sol:ArrayTest",
								"label": "status",
								"offset": 0,
								"slot": "0",
								"type": "t_uint256"
							},
							{
								"astId": 5,
								"contract": "array.sol:ArrayTest",
								"label": "bookName",
								"offset": 0,
								"slot": "1",
								"type": "t_string_storage"
							}
						],
						"numberOfBytes": "64"
					},
					"t_uint256": {
						"encoding": "inplace",
						"label": "uint256",
						"numberOfBytes": "32"
					}
				}
			},
			"userdoc": {
				"kind": "user",
				"methods": {},
				"version": 1
			}
		}
	}
}