{
	"error.sol": {
		"ErrorTest": {
			"abi": [
				{
					"inputs": [],
					"name": "addNum",
					"outputs": [],
					"stateMutability": "nonpayable",
					"type": "function"
				},
				{
					"inputs": [],
					"name": "miusNum",
					"outputs": [],
					"stateMutability": "nonpayable",
					"type": "function"
				},
				{
					"inputs": [],
					"name": "testAssert",
					"outputs": [],
					"stateMutability": "view",
					"type": "function"
				}
			],
			"devdoc": {
				"kind": "dev",
				"methods": {},
				"version": 1
			},
			"evm": {
				"assembly": "    /* \"error.sol\":132:590  contract ErrorTest {\r... */\n  mstore(0x40, 0x80)\n    /* \"error.sol\":389:392  123 */\n  0x7b\n    /* \"error.sol\":378:392  uint num = 123 */\n  0x00\n  sstore\n    /* \"error.sol\":132:590  contract ErrorTest {\r... */\n  callvalue\n  dup1\n  iszero\n  tag_1\n  jumpi\n  0x00\n  dup1\n  revert\ntag_1:\n  pop\n  dataSize(sub_0)\n  dup1\n  dataOffset(sub_0)\n  0x00\n  codecopy\n  0x00\n  return\nstop\n\nsub_0: assembly {\n        /* \"error.sol\":132:590  contract ErrorTest {\r... */\n      mstore(0x40, 0x80)\n      callvalue\n      dup1\n      iszero\n      tag_1\n      jumpi\n      0x00\n      dup1\n      revert\n    tag_1:\n      pop\n      jumpi(tag_2, lt(calldatasize, 0x04))\n      shr(0xe0, calldataload(0x00))\n      dup1\n      0x2b813bc0\n      eq\n      tag_3\n      jumpi\n      dup1\n      0xa6948847\n      eq\n      tag_4\n      jumpi\n      dup1\n      0xefcfe81a\n      eq\n      tag_5\n      jumpi\n    tag_2:\n      0x00\n      dup1\n      revert\n        /* \"error.sol\":399:470  function testAssert() public view {\r... */\n    tag_3:\n      tag_6\n      tag_7\n      jump\t// in\n    tag_6:\n      stop\n        /* \"error.sol\":535:587  function miusNum() public {\r... */\n    tag_4:\n      tag_8\n      tag_9\n      jump\t// in\n    tag_8:\n      stop\n        /* \"error.sol\":478:529  function addNum() public {\r... */\n    tag_5:\n      tag_10\n      tag_11\n      jump\t// in\n    tag_10:\n      stop\n        /* \"error.sol\":399:470  function testAssert() public view {\r... */\n    tag_7:\n        /* \"error.sol\":458:461  123 */\n      0x7b\n        /* \"error.sol\":451:454  num */\n      sload(0x00)\n        /* \"error.sol\":451:461  num == 123 */\n      eq\n        /* \"error.sol\":444:462  assert(num == 123) */\n      tag_13\n      jumpi\n      tag_14\n      tag_15\n      jump\t// in\n    tag_14:\n    tag_13:\n        /* \"error.sol\":399:470  function testAssert() public view {\r... */\n      jump\t// out\n        /* \"error.sol\":535:587  function miusNum() public {\r... */\n    tag_9:\n        /* \"error.sol\":578:579  1 */\n      0x01\n        /* \"error.sol\":572:575  num */\n      0x00\n      dup1\n        /* \"error.sol\":572:579  num -=1 */\n      dup3\n      dup3\n      sload\n      tag_17\n      swap2\n      swap1\n      tag_18\n      jump\t// in\n    tag_17:\n      swap3\n      pop\n      pop\n      dup2\n      swap1\n      sstore\n      pop\n        /* \"error.sol\":535:587  function miusNum() public {\r... */\n      jump\t// out\n        /* \"error.sol\":478:529  function addNum() public {\r... */\n    tag_11:\n        /* \"error.sol\":520:521  1 */\n      0x01\n        /* \"error.sol\":514:517  num */\n      0x00\n      dup1\n        /* \"error.sol\":514:521  num +=1 */\n      dup3\n      dup3\n      sload\n      tag_20\n      swap2\n      swap1\n      tag_21\n      jump\t// in\n    tag_20:\n      swap3\n      pop\n      pop\n      dup2\n      swap1\n      sstore\n      pop\n        /* \"error.sol\":478:529  function addNum() public {\r... */\n      jump\t// out\n        /* \"#utility.yul\":7:312   */\n    tag_21:\n        /* \"#utility.yul\":47:50   */\n      0x00\n        /* \"#utility.yul\":66:86   */\n      tag_24\n        /* \"#utility.yul\":84:85   */\n      dup3\n        /* \"#utility.yul\":66:86   */\n      tag_25\n      jump\t// in\n    tag_24:\n        /* \"#utility.yul\":61:86   */\n      swap2\n      pop\n        /* \"#utility.yul\":100:120   */\n      tag_26\n        /* \"#utility.yul\":118:119   */\n      dup4\n        /* \"#utility.yul\":100:120   */\n      tag_25\n      jump\t// in\n    tag_26:\n        /* \"#utility.yul\":95:120   */\n      swap3\n      pop\n        /* \"#utility.yul\":254:255   */\n      dup3\n        /* \"#utility.yul\":186:252   */\n      0xffffffffffffffffffffffffffffffffffffffffffffffffffffffffffffffff\n        /* \"#utility.yul\":182:256   */\n      sub\n        /* \"#utility.yul\":179:180   */\n      dup3\n        /* \"#utility.yul\":176:257   */\n      gt\n        /* \"#utility.yul\":173:280   */\n      iszero\n      tag_27\n      jumpi\n        /* \"#utility.yul\":260:278   */\n      tag_28\n      tag_29\n      jump\t// in\n    tag_28:\n        /* \"#utility.yul\":173:280   */\n    tag_27:\n        /* \"#utility.yul\":304:305   */\n      dup3\n        /* \"#utility.yul\":301:302   */\n      dup3\n        /* \"#utility.yul\":297:306   */\n      add\n        /* \"#utility.yul\":290:306   */\n      swap1\n      pop\n        /* \"#utility.yul\":7:312   */\n      swap3\n      swap2\n      pop\n      pop\n      jump\t// out\n        /* \"#utility.yul\":318:509   */\n    tag_18:\n        /* \"#utility.yul\":358:362   */\n      0x00\n        /* \"#utility.yul\":378:398   */\n      tag_31\n        /* \"#utility.yul\":396:397   */\n      dup3\n        /* \"#utility.yul\":378:398   */\n      tag_25\n      jump\t// in\n    tag_31:\n        /* \"#utility.yul\":373:398   */\n      swap2\n      pop\n        /* \"#utility.yul\":412:432   */\n      tag_32\n        /* \"#utility.yul\":430:431   */\n      dup4\n        /* \"#utility.yul\":412:432   */\n      tag_25\n      jump\t// in\n    tag_32:\n        /* \"#utility.yul\":407:432   */\n      swap3\n      pop\n        /* \"#utility.yul\":451:452   */\n      dup3\n        /* \"#utility.yul\":448:449   */\n      dup3\n        /* \"#utility.yul\":445:453   */\n      lt\n        /* \"#utility.yul\":442:476   */\n      iszero\n      tag_33\n      jumpi\n        /* \"#utility.yul\":456:474   */\n      tag_34\n      tag_29\n      jump\t// in\n    tag_34:\n        /* \"#utility.yul\":442:476   */\n    tag_33:\n        /* \"#utility.yul\":501:502   */\n      dup3\n        /* \"#utility.yul\":498:499   */\n      dup3\n        /* \"#utility.yul\":494:503   */\n      sub\n        /* \"#utility.yul\":486:503   */\n      swap1\n      pop\n        /* \"#utility.yul\":318:509   */\n      swap3\n      swap2\n      pop\n      pop\n      jump\t// out\n        /* \"#utility.yul\":515:592   */\n    tag_25:\n        /* \"#utility.yul\":552:559   */\n      0x00\n        /* \"#utility.yul\":581:586   */\n      dup2\n        /* \"#utility.yul\":570:586   */\n      swap1\n      pop\n        /* \"#utility.yul\":515:592   */\n      swap2\n      swap1\n      pop\n      jump\t// out\n        /* \"#utility.yul\":598:778   */\n    tag_15:\n        /* \"#utility.yul\":646:723   */\n      0x4e487b7100000000000000000000000000000000000000000000000000000000\n        /* \"#utility.yul\":643:644   */\n      0x00\n        /* \"#utility.yul\":636:724   */\n      mstore\n        /* \"#utility.yul\":743:747   */\n      0x01\n        /* \"#utility.yul\":740:741   */\n      0x04\n        /* \"#utility.yul\":733:748   */\n      mstore\n        /* \"#utility.yul\":767:771   */\n      0x24\n        /* \"#utility.yul\":764:765   */\n      0x00\n        /* \"#utility.yul\":757:772   */\n      revert\n        /* \"#utility.yul\":784:964   */\n    tag_29:\n        /* \"#utility.yul\":832:909   */\n      0x4e487b7100000000000000000000000000000000000000000000000000000000\n        /* \"#utility.yul\":829:830   */\n      0x00\n        /* \"#utility.yul\":822:910   */\n      mstore\n        /* \"#utility.yul\":929:933   */\n      0x11\n        /* \"#utility.yul\":926:927   */\n      0x04\n        /* \"#utility.yul\":919:934   */\n      mstore\n        /* \"#utility.yul\":953:957   */\n      0x24\n        /* \"#utility.yul\":950:951   */\n      0x00\n        /* \"#utility.yul\":943:958   */\n      revert\n\n    auxdata: 0xa2646970667358221220d20ac3e95a5ba5c79586e16ae040eba9662d15ef6f0cd9e698ca866a9b81133764736f6c63430008070033\n}\n",
				"bytecode": {
					"linkReferences": {},
					"object": "6080604052607b60005534801561001557600080fd5b506101d7806100256000396000f3fe608060405234801561001057600080fd5b50600436106100415760003560e01c80632b813bc014610046578063a694884714610050578063efcfe81a1461005a575b600080fd5b61004e610064565b005b610058610079565b005b610062610094565b005b607b6000541461007757610076610143565b5b565b600160008082825461008b9190610105565b92505081905550565b60016000808282546100a691906100af565b92505081905550565b60006100ba82610139565b91506100c583610139565b9250827fffffffffffffffffffffffffffffffffffffffffffffffffffffffffffffffff038211156100fa576100f9610172565b5b828201905092915050565b600061011082610139565b915061011b83610139565b92508282101561012e5761012d610172565b5b828203905092915050565b6000819050919050565b7f4e487b7100000000000000000000000000000000000000000000000000000000600052600160045260246000fd5b7f4e487b7100000000000000000000000000000000000000000000000000000000600052601160045260246000fdfea2646970667358221220d20ac3e95a5ba5c79586e16ae040eba9662d15ef6f0cd9e698ca866a9b81133764736f6c63430008070033",
					"opcodes": "PUSH1 0x80 PUSH1 0x40 MSTORE PUSH1 0x7B PUSH1 0x0 SSTORE CALLVALUE DUP1 ISZERO PUSH2 0x15 JUMPI PUSH1 0x0 DUP1 REVERT JUMPDEST POP PUSH2 0x1D7 DUP1 PUSH2 0x25 PUSH1 0x0 CODECOPY PUSH1 0x0 RETURN INVALID PUSH1 0x80 PUSH1 0x40 MSTORE CALLVALUE DUP1 ISZERO PUSH2 0x10 JUMPI PUSH1 0x0 DUP1 REVERT JUMPDEST POP PUSH1 0x4 CALLDATASIZE LT PUSH2 0x41 JUMPI PUSH1 0x0 CALLDATALOAD PUSH1 0xE0 SHR DUP1 PUSH4 0x2B813BC0 EQ PUSH2 0x46 JUMPI DUP1 PUSH4 0xA6948847 EQ PUSH2 0x50 JUMPI DUP1 PUSH4 0xEFCFE81A EQ PUSH2 0x5A JUMPI JUMPDEST PUSH1 0x0 DUP1 REVERT JUMPDEST PUSH2 0x4E PUSH2 0x64 JUMP JUMPDEST STOP JUMPDEST PUSH2 0x58 PUSH2 0x79 JUMP JUMPDEST STOP JUMPDEST PUSH2 0x62 PUSH2 0x94 JUMP JUMPDEST STOP JUMPDEST PUSH1 0x7B PUSH1 0x0 SLOAD EQ PUSH2 0x77 JUMPI PUSH2 0x76 PUSH2 0x143 JUMP JUMPDEST JUMPDEST JUMP JUMPDEST PUSH1 0x1 PUSH1 0x0 DUP1 DUP3 DUP3 SLOAD PUSH2 0x8B SWAP2 SWAP1 PUSH2 0x105 JUMP JUMPDEST SWAP3 POP POP DUP2 SWAP1 SSTORE POP JUMP JUMPDEST PUSH1 0x1 PUSH1 0x0 DUP1 DUP3 DUP3 SLOAD PUSH2 0xA6 SWAP2 SWAP1 PUSH2 0xAF JUMP JUMPDEST SWAP3 POP POP DUP2 SWAP1 SSTORE POP JUMP JUMPDEST PUSH1 0x0 PUSH2 0xBA DUP3 PUSH2 0x139 JUMP JUMPDEST SWAP2 POP PUSH2 0xC5 DUP4 PUSH2 0x139 JUMP JUMPDEST SWAP3 POP DUP3 PUSH32 0xFFFFFFFFFFFFFFFFFFFFFFFFFFFFFFFFFFFFFFFFFFFFFFFFFFFFFFFFFFFFFFFF SUB DUP3 GT ISZERO PUSH2 0xFA JUMPI PUSH2 0xF9 PUSH2 0x172 JUMP JUMPDEST JUMPDEST DUP3 DUP3 ADD SWAP1 POP SWAP3 SWAP2 POP POP JUMP JUMPDEST PUSH1 0x0 PUSH2 0x110 DUP3 PUSH2 0x139 JUMP JUMPDEST SWAP2 POP PUSH2 0x11B DUP4 PUSH2 0x139 JUMP JUMPDEST SWAP3 POP DUP3 DUP3 LT ISZERO PUSH2 0x12E JUMPI PUSH2 0x12D PUSH2 0x172 JUMP JUMPDEST JUMPDEST DUP3 DUP3 SUB SWAP1 POP SWAP3 SWAP2 POP POP JUMP JUMPDEST PUSH1 0x0 DUP2 SWAP1 POP SWAP2 SWAP1 POP JUMP JUMPDEST PUSH32 0x4E487B7100000000000000000000000000000000000000000000000000000000 PUSH1 0x0 MSTORE PUSH1 0x1 PUSH1 0x4 MSTORE PUSH1 0x24 PUSH1 0x0 REVERT JUMPDEST PUSH32 0x4E487B7100000000000000000000000000000000000000000000000000000000 PUSH1 0x0 MSTORE PUSH1 0x11 PUSH1 0x4 MSTORE PUSH1 0x24 PUSH1 0x0 REVERT INVALID LOG2 PUSH5 0x6970667358 0x22 SLT KECCAK256 0xD2 EXP 0xC3 0xE9 GAS JUMPDEST 0xA5 0xC7 SWAP6 DUP7 0xE1 PUSH11 0xE040EBA9662D15EF6F0CD9 0xE6 SWAP9 0xCA DUP7 PUSH11 0x9B81133764736F6C634300 ADDMOD SMOD STOP CALLER "
				},
				"gasEstimates": {
					"creation": {
						"codeDepositCost": "94200",
						"executionCost": "22247",
						"totalCost": "116447"
					},
					"external": {
						"addNum()": "infinite",
						"miusNum()": "infinite",
						"testAssert()": "2274"
					}
				},
				"methodIdentifiers": {
					"addNum()": "efcfe81a",
					"miusNum()": "a6948847",
					"testAssert()": "2b813bc0"
				}
			},
			"storageLayout": {
				"storage": [
					{
						"astId": 4,
						"contract": "error.sol:ErrorTest",
						"label": "num",
						"offset": 0,
						"slot": "0",
						"type": "t_uint256"
					}
				],
				"types": {
					"t_uint256": {
						"encoding": "inplace",
						"label": "uint256",
						"numberOfBytes": "32"
					}
				}
			},
			"userdoc": {
				"kind": "user",
				"methods": {},
				"version": 1
			}
		}
	}
}