{
	"crowdfunding.sol": {
		"CrowdfundingContract": {
			"abi": [
				{
					"inputs": [
						{
							"internalType": "string",
							"name": "_title",
							"type": "string"
						},
						{
							"internalType": "address",
							"name": "_recipient",
							"type": "address"
						},
						{
							"internalType": "string",
							"name": "_expectAmout",
							"type": "string"
						}
					],
					"name": "createCrowdfunding",
					"outputs": [],
					"stateMutability": "nonpayable",
					"type": "function"
				},
				{
					"inputs": [
						{
							"internalType": "uint256",
							"name": "_status",
							"type": "uint256"
						}
					],
					"name": "getCrowdfundingByStatus",
					"outputs": [
						{
							"components": [
								{
									"internalType": "uint256",
									"name": "num",
									"type": "uint256"
								},
								{
									"internalType": "string",
									"name": "title",
									"type": "string"
								},
								{
									"internalType": "uint256",
									"name": "status",
									"type": "uint256"
								},
								{
									"internalType": "address",
									"name": "creator",
									"type": "address"
								},
								{
									"internalType": "address",
									"name": "recipient",
									"type": "address"
								},
								{
									"internalType": "uint256",
									"name": "joinNum",
									"type": "uint256"
								},
								{
									"internalType": "string",
									"name": "expectAmout",
									"type": "string"
								},
								{
									"internalType": "string",
									"name": "actualAmount",
									"type": "string"
								}
							],
							"internalType": "struct CrowdfundingContract.Crowdfunding[]",
							"name": "",
							"type": "tuple[]"
						}
					],
					"stateMutability": "view",
					"type": "function"
				},
				{
					"inputs": [
						{
							"internalType": "address",
							"name": "addr",
							"type": "address"
						}
					],
					"name": "getMyCrowdfunding",
					"outputs": [
						{
							"components": [
								{
									"internalType": "uint256",
									"name": "num",
									"type": "uint256"
								},
								{
									"internalType": "string",
									"name": "title",
									"type": "string"
								},
								{
									"internalType": "uint256",
									"name": "status",
									"type": "uint256"
								},
								{
									"internalType": "address",
									"name": "creator",
									"type": "address"
								},
								{
									"internalType": "address",
									"name": "recipient",
									"type": "address"
								},
								{
									"internalType": "uint256",
									"name": "joinNum",
									"type": "uint256"
								},
								{
									"internalType": "string",
									"name": "expectAmout",
									"type": "string"
								},
								{
									"internalType": "string",
									"name": "actualAmount",
									"type": "string"
								}
							],
							"internalType": "struct CrowdfundingContract.Crowdfunding[]",
							"name": "",
							"type": "tuple[]"
						}
					],
					"stateMutability": "view",
					"type": "function"
				},
				{
					"inputs": [
						{
							"internalType": "uint256",
							"name": "",
							"type": "uint256"
						}
					],
					"name": "list",
					"outputs": [
						{
							"internalType": "uint256",
							"name": "num",
							"type": "uint256"
						},
						{
							"internalType": "string",
							"name": "title",
							"type": "string"
						},
						{
							"internalType": "uint256",
							"name": "status",
							"type": "uint256"
						},
						{
							"internalType": "address",
							"name": "creator",
							"type": "address"
						},
						{
							"internalType": "address",
							"name": "recipient",
							"type": "address"
						},
						{
							"internalType": "uint256",
							"name": "joinNum",
							"type": "uint256"
						},
						{
							"internalType": "string",
							"name": "expectAmout",
							"type": "string"
						},
						{
							"internalType": "string",
							"name": "actualAmount",
							"type": "string"
						}
					],
					"stateMutability": "view",
					"type": "function"
				},
				{
					"inputs": [
						{
							"internalType": "uint256",
							"name": "num",
							"type": "uint256"
						},
						{
							"internalType": "uint256",
							"name": "val",
							"type": "uint256"
						}
					],
					"name": "setStatus",
					"outputs": [],
					"stateMutability": "nonpayable",
					"type": "function"
				}
			],
			"devdoc": {
				"kind": "dev",
				"methods": {},
				"version": 1
			},
			"evm": {
				"assembly": "    /* \"crowdfunding.sol\":290:2432  contract CrowdfundingContract {... */\n  mstore(0x40, 0x80)\n  callvalue\n  dup1\n  iszero\n  tag_1\n  jumpi\n  0x00\n  dup1\n  revert\ntag_1:\n  pop\n  dataSize(sub_0)\n  dup1\n  dataOffset(sub_0)\n  0x00\n  codecopy\n  0x00\n  return\nstop\n\nsub_0: assembly {\n        /* \"crowdfunding.sol\":290:2432  contract CrowdfundingContract {... */\n      mstore(0x40, 0x80)\n      callvalue\n      dup1\n      iszero\n      tag_1\n      jumpi\n      0x00\n      dup1\n      revert\n    tag_1:\n      pop\n      jumpi(tag_2, lt(calldatasize, 0x04))\n      shr(0xe0, calldataload(0x00))\n      dup1\n      0x377e6ff7\n      eq\n      tag_3\n      jumpi\n      dup1\n      0x80c9419e\n      eq\n      tag_4\n      jumpi\n      dup1\n      0x82e40813\n      eq\n      tag_5\n      jumpi\n      dup1\n      0x904cc175\n      eq\n      tag_6\n      jumpi\n      dup1\n      0xa97af4d5\n      eq\n      tag_7\n      jumpi\n    tag_2:\n      0x00\n      dup1\n      revert\n        /* \"crowdfunding.sol\":2298:2429  function getMyCrowdfunding(address addr) public view returns (Crowdfunding[] memory) {... */\n    tag_3:\n      tag_8\n      0x04\n      dup1\n      calldatasize\n      sub\n      dup2\n      add\n      swap1\n      tag_9\n      swap2\n      swap1\n      tag_10\n      jump\t// in\n    tag_9:\n      tag_11\n      jump\t// in\n    tag_8:\n      mload(0x40)\n      tag_12\n      swap2\n      swap1\n      tag_13\n      jump\t// in\n    tag_12:\n      mload(0x40)\n      dup1\n      swap2\n      sub\n      swap1\n      return\n        /* \"crowdfunding.sol\":813:839  Crowdfunding[] public list */\n    tag_4:\n      tag_14\n      0x04\n      dup1\n      calldatasize\n      sub\n      dup2\n      add\n      swap1\n      tag_15\n      swap2\n      swap1\n      tag_16\n      jump\t// in\n    tag_15:\n      tag_17\n      jump\t// in\n    tag_14:\n      mload(0x40)\n      tag_18\n      swap9\n      swap8\n      swap7\n      swap6\n      swap5\n      swap4\n      swap3\n      swap2\n      swap1\n      tag_19\n      jump\t// in\n    tag_18:\n      mload(0x40)\n      dup1\n      swap2\n      sub\n      swap1\n      return\n        /* \"crowdfunding.sol\":1654:2015  function setStatus(uint num,uint val) public {... */\n    tag_5:\n      tag_20\n      0x04\n      dup1\n      calldatasize\n      sub\n      dup2\n      add\n      swap1\n      tag_21\n      swap2\n      swap1\n      tag_22\n      jump\t// in\n    tag_21:\n      tag_23\n      jump\t// in\n    tag_20:\n      stop\n        /* \"crowdfunding.sol\":2065:2248  function getCrowdfundingByStatus(uint _status) public view returns (Crowdfunding[] memory) {... */\n    tag_6:\n      tag_24\n      0x04\n      dup1\n      calldatasize\n      sub\n      dup2\n      add\n      swap1\n      tag_25\n      swap2\n      swap1\n      tag_16\n      jump\t// in\n    tag_25:\n      tag_26\n      jump\t// in\n    tag_24:\n      mload(0x40)\n      tag_27\n      swap2\n      swap1\n      tag_13\n      jump\t// in\n    tag_27:\n      mload(0x40)\n      dup1\n      swap2\n      sub\n      swap1\n      return\n        /* \"crowdfunding.sol\":959:1575  function createCrowdfunding(string memory _title,address _recipient, string memory _expectAmout) public {... */\n    tag_7:\n      tag_28\n      0x04\n      dup1\n      calldatasize\n      sub\n      dup2\n      add\n      swap1\n      tag_29\n      swap2\n      swap1\n      tag_30\n      jump\t// in\n    tag_29:\n      tag_31\n      jump\t// in\n    tag_28:\n      stop\n        /* \"crowdfunding.sol\":2298:2429  function getMyCrowdfunding(address addr) public view returns (Crowdfunding[] memory) {... */\n    tag_11:\n        /* \"crowdfunding.sol\":2360:2381  Crowdfunding[] memory */\n      0x60\n        /* \"crowdfunding.sol\":2401:2415  myCrowdfunding */\n      0x03\n        /* \"crowdfunding.sol\":2401:2421  myCrowdfunding[addr] */\n      0x00\n        /* \"crowdfunding.sol\":2416:2420  addr */\n      dup4\n        /* \"crowdfunding.sol\":2401:2421  myCrowdfunding[addr] */\n      0xffffffffffffffffffffffffffffffffffffffff\n      and\n      0xffffffffffffffffffffffffffffffffffffffff\n      and\n      dup2\n      mstore\n      0x20\n      add\n      swap1\n      dup2\n      mstore\n      0x20\n      add\n      0x00\n      keccak256\n        /* \"crowdfunding.sol\":2394:2421  return myCrowdfunding[addr] */\n      dup1\n      sload\n      dup1\n      0x20\n      mul\n      0x20\n      add\n      mload(0x40)\n      swap1\n      dup2\n      add\n      0x40\n      mstore\n      dup1\n      swap3\n      swap2\n      swap1\n      dup2\n      dup2\n      mstore\n      0x20\n      add\n      0x00\n      swap1\n    tag_33:\n      dup3\n      dup3\n      lt\n      iszero\n      tag_34\n      jumpi\n      dup4\n      dup3\n      swap1\n      0x00\n      mstore\n      keccak256(0x00, 0x20)\n      swap1\n      0x08\n      mul\n      add\n      mload(0x40)\n      dup1\n      0x0100\n      add\n      0x40\n      mstore\n      swap1\n      dup2\n      0x00\n      dup3\n      add\n      sload\n      dup2\n      mstore\n      0x20\n      add\n      0x01\n      dup3\n      add\n      dup1\n      sload\n      tag_36\n      swap1\n      tag_37\n      jump\t// in\n    tag_36:\n      dup1\n      0x1f\n      add\n      0x20\n      dup1\n      swap2\n      div\n      mul\n      0x20\n      add\n      mload(0x40)\n      swap1\n      dup2\n      add\n      0x40\n      mstore\n      dup1\n      swap3\n      swap2\n      swap1\n      dup2\n      dup2\n      mstore\n      0x20\n      add\n      dup3\n      dup1\n      sload\n      tag_38\n      swap1\n      tag_37\n      jump\t// in\n    tag_38:\n      dup1\n      iszero\n      tag_39\n      jumpi\n      dup1\n      0x1f\n      lt\n      tag_40\n      jumpi\n      0x0100\n      dup1\n      dup4\n      sload\n      div\n      mul\n      dup4\n      mstore\n      swap2\n      0x20\n      add\n      swap2\n      jump(tag_39)\n    tag_40:\n      dup3\n      add\n      swap2\n      swap1\n      0x00\n      mstore\n      keccak256(0x00, 0x20)\n      swap1\n    tag_41:\n      dup2\n      sload\n      dup2\n      mstore\n      swap1\n      0x01\n      add\n      swap1\n      0x20\n      add\n      dup1\n      dup4\n      gt\n      tag_41\n      jumpi\n      dup3\n      swap1\n      sub\n      0x1f\n      and\n      dup3\n      add\n      swap2\n    tag_39:\n      pop\n      pop\n      pop\n      pop\n      pop\n      dup2\n      mstore\n      0x20\n      add\n      0x02\n      dup3\n      add\n      sload\n      dup2\n      mstore\n      0x20\n      add\n      0x03\n      dup3\n      add\n      0x00\n      swap1\n      sload\n      swap1\n      0x0100\n      exp\n      swap1\n      div\n      0xffffffffffffffffffffffffffffffffffffffff\n      and\n      0xffffffffffffffffffffffffffffffffffffffff\n      and\n      0xffffffffffffffffffffffffffffffffffffffff\n      and\n      dup2\n      mstore\n      0x20\n      add\n      0x04\n      dup3\n      add\n      0x00\n      swap1\n      sload\n      swap1\n      0x0100\n      exp\n      swap1\n      div\n      0xffffffffffffffffffffffffffffffffffffffff\n      and\n      0xffffffffffffffffffffffffffffffffffffffff\n      and\n      0xffffffffffffffffffffffffffffffffffffffff\n      and\n      dup2\n      mstore\n      0x20\n      add\n      0x05\n      dup3\n      add\n      sload\n      dup2\n      mstore\n      0x20\n      add\n      0x06\n      dup3\n      add\n      dup1\n      sload\n      tag_42\n      swap1\n      tag_37\n      jump\t// in\n    tag_42:\n      dup1\n      0x1f\n      add\n      0x20\n      dup1\n      swap2\n      div\n      mul\n      0x20\n      add\n      mload(0x40)\n      swap1\n      dup2\n      add\n      0x40\n      mstore\n      dup1\n      swap3\n      swap2\n      swap1\n      dup2\n      dup2\n      mstore\n      0x20\n      add\n      dup3\n      dup1\n      sload\n      tag_43\n      swap1\n      tag_37\n      jump\t// in\n    tag_43:\n      dup1\n      iszero\n      tag_44\n      jumpi\n      dup1\n      0x1f\n      lt\n      tag_45\n      jumpi\n      0x0100\n      dup1\n      dup4\n      sload\n      div\n      mul\n      dup4\n      mstore\n      swap2\n      0x20\n      add\n      swap2\n      jump(tag_44)\n    tag_45:\n      dup3\n      add\n      swap2\n      swap1\n      0x00\n      mstore\n      keccak256(0x00, 0x20)\n      swap1\n    tag_46:\n      dup2\n      sload\n      dup2\n      mstore\n      swap1\n      0x01\n      add\n      swap1\n      0x20\n      add\n      dup1\n      dup4\n      gt\n      tag_46\n      jumpi\n      dup3\n      swap1\n      sub\n      0x1f\n      and\n      dup3\n      add\n      swap2\n    tag_44:\n      pop\n      pop\n      pop\n      pop\n      pop\n      dup2\n      mstore\n      0x20\n      add\n      0x07\n      dup3\n      add\n      dup1\n      sload\n      tag_47\n      swap1\n      tag_37\n      jump\t// in\n    tag_47:\n      dup1\n      0x1f\n      add\n      0x20\n      dup1\n      swap2\n      div\n      mul\n      0x20\n      add\n      mload(0x40)\n      swap1\n      dup2\n      add\n      0x40\n      mstore\n      dup1\n      swap3\n      swap2\n      swap1\n      dup2\n      dup2\n      mstore\n      0x20\n      add\n      dup3\n      dup1\n      sload\n      tag_48\n      swap1\n      tag_37\n      jump\t// in\n    tag_48:\n      dup1\n      iszero\n      tag_49\n      jumpi\n      dup1\n      0x1f\n      lt\n      tag_50\n      jumpi\n      0x0100\n      dup1\n      dup4\n      sload\n      div\n      mul\n      dup4\n      mstore\n      swap2\n      0x20\n      add\n      swap2\n      jump(tag_49)\n    tag_50:\n      dup3\n      add\n      swap2\n      swap1\n      0x00\n      mstore\n      keccak256(0x00, 0x20)\n      swap1\n    tag_51:\n      dup2\n      sload\n      dup2\n      mstore\n      swap1\n      0x01\n      add\n      swap1\n      0x20\n      add\n      dup1\n      dup4\n      gt\n      tag_51\n      jumpi\n      dup3\n      swap1\n      sub\n      0x1f\n      and\n      dup3\n      add\n      swap2\n    tag_49:\n      pop\n      pop\n      pop\n      pop\n      pop\n      dup2\n      mstore\n      pop\n      pop\n      dup2\n      mstore\n      0x20\n      add\n      swap1\n      0x01\n      add\n      swap1\n      jump(tag_33)\n    tag_34:\n      pop\n      pop\n      pop\n      pop\n      swap1\n      pop\n        /* \"crowdfunding.sol\":2298:2429  function getMyCrowdfunding(address addr) public view returns (Crowdfunding[] memory) {... */\n      swap2\n      swap1\n      pop\n      jump\t// out\n        /* \"crowdfunding.sol\":813:839  Crowdfunding[] public list */\n    tag_17:\n      0x01\n      dup2\n      dup2\n      sload\n      dup2\n      lt\n      tag_52\n      jumpi\n      0x00\n      dup1\n      revert\n    tag_52:\n      swap1\n      0x00\n      mstore\n      keccak256(0x00, 0x20)\n      swap1\n      0x08\n      mul\n      add\n      0x00\n      swap2\n      pop\n      swap1\n      pop\n      dup1\n      0x00\n      add\n      sload\n      swap1\n      dup1\n      0x01\n      add\n      dup1\n      sload\n      tag_54\n      swap1\n      tag_37\n      jump\t// in\n    tag_54:\n      dup1\n      0x1f\n      add\n      0x20\n      dup1\n      swap2\n      div\n      mul\n      0x20\n      add\n      mload(0x40)\n      swap1\n      dup2\n      add\n      0x40\n      mstore\n      dup1\n      swap3\n      swap2\n      swap1\n      dup2\n      dup2\n      mstore\n      0x20\n      add\n      dup3\n      dup1\n      sload\n      tag_55\n      swap1\n      tag_37\n      jump\t// in\n    tag_55:\n      dup1\n      iszero\n      tag_56\n      jumpi\n      dup1\n      0x1f\n      lt\n      tag_57\n      jumpi\n      0x0100\n      dup1\n      dup4\n      sload\n      div\n      mul\n      dup4\n      mstore\n      swap2\n      0x20\n      add\n      swap2\n      jump(tag_56)\n    tag_57:\n      dup3\n      add\n      swap2\n      swap1\n      0x00\n      mstore\n      keccak256(0x00, 0x20)\n      swap1\n    tag_58:\n      dup2\n      sload\n      dup2\n      mstore\n      swap1\n      0x01\n      add\n      swap1\n      0x20\n      add\n      dup1\n      dup4\n      gt\n      tag_58\n      jumpi\n      dup3\n      swap1\n      sub\n      0x1f\n      and\n      dup3\n      add\n      swap2\n    tag_56:\n      pop\n      pop\n      pop\n      pop\n      pop\n      swap1\n      dup1\n      0x02\n      add\n      sload\n      swap1\n      dup1\n      0x03\n      add\n      0x00\n      swap1\n      sload\n      swap1\n      0x0100\n      exp\n      swap1\n      div\n      0xffffffffffffffffffffffffffffffffffffffff\n      and\n      swap1\n      dup1\n      0x04\n      add\n      0x00\n      swap1\n      sload\n      swap1\n      0x0100\n      exp\n      swap1\n      div\n      0xffffffffffffffffffffffffffffffffffffffff\n      and\n      swap1\n      dup1\n      0x05\n      add\n      sload\n      swap1\n      dup1\n      0x06\n      add\n      dup1\n      sload\n      tag_59\n      swap1\n      tag_37\n      jump\t// in\n    tag_59:\n      dup1\n      0x1f\n      add\n      0x20\n      dup1\n      swap2\n      div\n      mul\n      0x20\n      add\n      mload(0x40)\n      swap1\n      dup2\n      add\n      0x40\n      mstore\n      dup1\n      swap3\n      swap2\n      swap1\n      dup2\n      dup2\n      mstore\n      0x20\n      add\n      dup3\n      dup1\n      sload\n      tag_60\n      swap1\n      tag_37\n      jump\t// in\n    tag_60:\n      dup1\n      iszero\n      tag_61\n      jumpi\n      dup1\n      0x1f\n      lt\n      tag_62\n      jumpi\n      0x0100\n      dup1\n      dup4\n      sload\n      div\n      mul\n      dup4\n      mstore\n      swap2\n      0x20\n      add\n      swap2\n      jump(tag_61)\n    tag_62:\n      dup3\n      add\n      swap2\n      swap1\n      0x00\n      mstore\n      keccak256(0x00, 0x20)\n      swap1\n    tag_63:\n      dup2\n      sload\n      dup2\n      mstore\n      swap1\n      0x01\n      add\n      swap1\n      0x20\n      add\n      dup1\n      dup4\n      gt\n      tag_63\n      jumpi\n      dup3\n      swap1\n      sub\n      0x1f\n      and\n      dup3\n      add\n      swap2\n    tag_61:\n      pop\n      pop\n      pop\n      pop\n      pop\n      swap1\n      dup1\n      0x07\n      add\n      dup1\n      sload\n      tag_64\n      swap1\n      tag_37\n      jump\t// in\n    tag_64:\n      dup1\n      0x1f\n      add\n      0x20\n      dup1\n      swap2\n      div\n      mul\n      0x20\n      add\n      mload(0x40)\n      swap1\n      dup2\n      add\n      0x40\n      mstore\n      dup1\n      swap3\n      swap2\n      swap1\n      dup2\n      dup2\n      mstore\n      0x20\n      add\n      dup3\n      dup1\n      sload\n      tag_65\n      swap1\n      tag_37\n      jump\t// in\n    tag_65:\n      dup1\n      iszero\n      tag_66\n      jumpi\n      dup1\n      0x1f\n      lt\n      tag_67\n      jumpi\n      0x0100\n      dup1\n      dup4\n      sload\n      div\n      mul\n      dup4\n      mstore\n      swap2\n      0x20\n      add\n      swap2\n      jump(tag_66)\n    tag_67:\n      dup3\n      add\n      swap2\n      swap1\n      0x00\n      mstore\n      keccak256(0x00, 0x20)\n      swap1\n    tag_68:\n      dup2\n      sload\n      dup2\n      mstore\n      swap1\n      0x01\n      add\n      swap1\n      0x20\n      add\n      dup1\n      dup4\n      gt\n      tag_68\n      jumpi\n      dup3\n      swap1\n      sub\n      0x1f\n      and\n      dup3\n      add\n      swap2\n    tag_66:\n      pop\n      pop\n      pop\n      pop\n      pop\n      swap1\n      pop\n      dup9\n      jump\t// out\n        /* \"crowdfunding.sol\":1654:2015  function setStatus(uint num,uint val) public {... */\n    tag_23:\n        /* \"crowdfunding.sol\":1729:1732  val */\n      dup1\n        /* \"crowdfunding.sol\":1710:1714  list */\n      0x01\n        /* \"crowdfunding.sol\":1715:1718  num */\n      dup4\n        /* \"crowdfunding.sol\":1710:1719  list[num] */\n      dup2\n      sload\n      dup2\n      lt\n      tag_70\n      jumpi\n      tag_71\n      tag_72\n      jump\t// in\n    tag_71:\n    tag_70:\n      swap1\n      0x00\n      mstore\n      keccak256(0x00, 0x20)\n      swap1\n      0x08\n      mul\n      add\n        /* \"crowdfunding.sol\":1710:1726  list[num].status */\n      0x02\n      add\n        /* \"crowdfunding.sol\":1710:1732  list[num].status = val */\n      dup2\n      swap1\n      sstore\n      pop\n        /* \"crowdfunding.sol\":1810:1816  uint i */\n      0x00\n        /* \"crowdfunding.sol\":1806:1960  for(uint i = 0; i < filterDataByStatus[1].length; i++) {... */\n    tag_74:\n        /* \"crowdfunding.sol\":1826:1844  filterDataByStatus */\n      0x02\n        /* \"crowdfunding.sol\":1826:1847  filterDataByStatus[1] */\n      0x00\n        /* \"crowdfunding.sol\":1845:1846  1 */\n      0x01\n        /* \"crowdfunding.sol\":1826:1847  filterDataByStatus[1] */\n      dup2\n      mstore\n      0x20\n      add\n      swap1\n      dup2\n      mstore\n      0x20\n      add\n      0x00\n      keccak256\n        /* \"crowdfunding.sol\":1826:1854  filterDataByStatus[1].length */\n      dup1\n      sload\n      swap1\n      pop\n        /* \"crowdfunding.sol\":1822:1823  i */\n      dup2\n        /* \"crowdfunding.sol\":1822:1854  i < filterDataByStatus[1].length */\n      lt\n        /* \"crowdfunding.sol\":1806:1960  for(uint i = 0; i < filterDataByStatus[1].length; i++) {... */\n      iszero\n      tag_75\n      jumpi\n        /* \"crowdfunding.sol\":1911:1914  num */\n      dup3\n        /* \"crowdfunding.sol\":1879:1897  filterDataByStatus */\n      0x02\n        /* \"crowdfunding.sol\":1879:1900  filterDataByStatus[1] */\n      0x00\n        /* \"crowdfunding.sol\":1898:1899  1 */\n      0x01\n        /* \"crowdfunding.sol\":1879:1900  filterDataByStatus[1] */\n      dup2\n      mstore\n      0x20\n      add\n      swap1\n      dup2\n      mstore\n      0x20\n      add\n      0x00\n      keccak256\n        /* \"crowdfunding.sol\":1901:1902  i */\n      dup3\n        /* \"crowdfunding.sol\":1879:1903  filterDataByStatus[1][i] */\n      dup2\n      sload\n      dup2\n      lt\n      tag_77\n      jumpi\n      tag_78\n      tag_72\n      jump\t// in\n    tag_78:\n    tag_77:\n      swap1\n      0x00\n      mstore\n      keccak256(0x00, 0x20)\n      swap1\n      pop\n      pop\n        /* \"crowdfunding.sol\":1879:1914  filterDataByStatus[1][i].num == num */\n      pop\n        /* \"crowdfunding.sol\":1856:1859  i++ */\n      dup1\n      dup1\n      tag_81\n      swap1\n      tag_82\n      jump\t// in\n    tag_81:\n      swap2\n      pop\n      pop\n        /* \"crowdfunding.sol\":1806:1960  for(uint i = 0; i < filterDataByStatus[1].length; i++) {... */\n      jump(tag_74)\n    tag_75:\n      pop\n        /* \"crowdfunding.sol\":1970:1988  filterDataByStatus */\n      0x02\n        /* \"crowdfunding.sol\":1970:1991  filterDataByStatus[3] */\n      0x00\n        /* \"crowdfunding.sol\":1989:1990  3 */\n      0x03\n        /* \"crowdfunding.sol\":1970:1991  filterDataByStatus[3] */\n      dup2\n      mstore\n      0x20\n      add\n      swap1\n      dup2\n      mstore\n      0x20\n      add\n      0x00\n      keccak256\n        /* \"crowdfunding.sol\":1997:2001  list */\n      0x01\n        /* \"crowdfunding.sol\":2002:2005  num */\n      dup4\n        /* \"crowdfunding.sol\":1997:2006  list[num] */\n      dup2\n      sload\n      dup2\n      lt\n      tag_83\n      jumpi\n      tag_84\n      tag_72\n      jump\t// in\n    tag_84:\n    tag_83:\n      swap1\n      0x00\n      mstore\n      keccak256(0x00, 0x20)\n      swap1\n      0x08\n      mul\n      add\n        /* \"crowdfunding.sol\":1970:2007  filterDataByStatus[3].push(list[num]) */\n      swap1\n      dup1\n      0x01\n      dup2\n      sload\n      add\n      dup1\n      dup3\n      sstore\n      dup1\n      swap2\n      pop\n      pop\n      0x01\n      swap1\n      sub\n      swap1\n      0x00\n      mstore\n      keccak256(0x00, 0x20)\n      swap1\n      0x08\n      mul\n      add\n      0x00\n      swap1\n      swap2\n      swap1\n      swap2\n      swap1\n      swap2\n      pop\n      0x00\n      dup3\n      add\n      sload\n      dup2\n      0x00\n      add\n      sstore\n      0x01\n      dup3\n      add\n      dup2\n      0x01\n      add\n      swap1\n      dup2\n      tag_87\n      swap2\n      swap1\n      tag_88\n      jump\t// in\n    tag_87:\n      pop\n      0x02\n      dup3\n      add\n      sload\n      dup2\n      0x02\n      add\n      sstore\n      0x03\n      dup3\n      add\n      0x00\n      swap1\n      sload\n      swap1\n      0x0100\n      exp\n      swap1\n      div\n      0xffffffffffffffffffffffffffffffffffffffff\n      and\n      dup2\n      0x03\n      add\n      exp(0x0100, 0x00)\n      dup2\n      sload\n      dup2\n      0xffffffffffffffffffffffffffffffffffffffff\n      mul\n      not\n      and\n      swap1\n      dup4\n      0xffffffffffffffffffffffffffffffffffffffff\n      and\n      mul\n      or\n      swap1\n      sstore\n      pop\n      0x04\n      dup3\n      add\n      0x00\n      swap1\n      sload\n      swap1\n      0x0100\n      exp\n      swap1\n      div\n      0xffffffffffffffffffffffffffffffffffffffff\n      and\n      dup2\n      0x04\n      add\n      exp(0x0100, 0x00)\n      dup2\n      sload\n      dup2\n      0xffffffffffffffffffffffffffffffffffffffff\n      mul\n      not\n      and\n      swap1\n      dup4\n      0xffffffffffffffffffffffffffffffffffffffff\n      and\n      mul\n      or\n      swap1\n      sstore\n      pop\n      0x05\n      dup3\n      add\n      sload\n      dup2\n      0x05\n      add\n      sstore\n      0x06\n      dup3\n      add\n      dup2\n      0x06\n      add\n      swap1\n      dup2\n      tag_89\n      swap2\n      swap1\n      tag_88\n      jump\t// in\n    tag_89:\n      pop\n      0x07\n      dup3\n      add\n      dup2\n      0x07\n      add\n      swap1\n      dup2\n      tag_90\n      swap2\n      swap1\n      tag_88\n      jump\t// in\n    tag_90:\n      pop\n      pop\n      pop\n        /* \"crowdfunding.sol\":1654:2015  function setStatus(uint num,uint val) public {... */\n      pop\n      pop\n      jump\t// out\n        /* \"crowdfunding.sol\":2065:2248  function getCrowdfundingByStatus(uint _status) public view returns (Crowdfunding[] memory) {... */\n    tag_26:\n        /* \"crowdfunding.sol\":2133:2154  Crowdfunding[] memory */\n      0x60\n        /* \"crowdfunding.sol\":2181:2182  0 */\n      0x00\n        /* \"crowdfunding.sol\":2170:2177  _status */\n      dup3\n        /* \"crowdfunding.sol\":2170:2182  _status == 0 */\n      sub\n        /* \"crowdfunding.sol\":2167:2195  if(_status == 0) return list */\n      tag_92\n      jumpi\n        /* \"crowdfunding.sol\":2191:2195  list */\n      0x01\n        /* \"crowdfunding.sol\":2184:2195  return list */\n      dup1\n      sload\n      dup1\n      0x20\n      mul\n      0x20\n      add\n      mload(0x40)\n      swap1\n      dup2\n      add\n      0x40\n      mstore\n      dup1\n      swap3\n      swap2\n      swap1\n      dup2\n      dup2\n      mstore\n      0x20\n      add\n      0x00\n      swap1\n    tag_93:\n      dup3\n      dup3\n      lt\n      iszero\n      tag_94\n      jumpi\n      dup4\n      dup3\n      swap1\n      0x00\n      mstore\n      keccak256(0x00, 0x20)\n      swap1\n      0x08\n      mul\n      add\n      mload(0x40)\n      dup1\n      0x0100\n      add\n      0x40\n      mstore\n      swap1\n      dup2\n      0x00\n      dup3\n      add\n      sload\n      dup2\n      mstore\n      0x20\n      add\n      0x01\n      dup3\n      add\n      dup1\n      sload\n      tag_96\n      swap1\n      tag_37\n      jump\t// in\n    tag_96:\n      dup1\n      0x1f\n      add\n      0x20\n      dup1\n      swap2\n      div\n      mul\n      0x20\n      add\n      mload(0x40)\n      swap1\n      dup2\n      add\n      0x40\n      mstore\n      dup1\n      swap3\n      swap2\n      swap1\n      dup2\n      dup2\n      mstore\n      0x20\n      add\n      dup3\n      dup1\n      sload\n      tag_97\n      swap1\n      tag_37\n      jump\t// in\n    tag_97:\n      dup1\n      iszero\n      tag_98\n      jumpi\n      dup1\n      0x1f\n      lt\n      tag_99\n      jumpi\n      0x0100\n      dup1\n      dup4\n      sload\n      div\n      mul\n      dup4\n      mstore\n      swap2\n      0x20\n      add\n      swap2\n      jump(tag_98)\n    tag_99:\n      dup3\n      add\n      swap2\n      swap1\n      0x00\n      mstore\n      keccak256(0x00, 0x20)\n      swap1\n    tag_100:\n      dup2\n      sload\n      dup2\n      mstore\n      swap1\n      0x01\n      add\n      swap1\n      0x20\n      add\n      dup1\n      dup4\n      gt\n      tag_100\n      jumpi\n      dup3\n      swap1\n      sub\n      0x1f\n      and\n      dup3\n      add\n      swap2\n    tag_98:\n      pop\n      pop\n      pop\n      pop\n      pop\n      dup2\n      mstore\n      0x20\n      add\n      0x02\n      dup3\n      add\n      sload\n      dup2\n      mstore\n      0x20\n      add\n      0x03\n      dup3\n      add\n      0x00\n      swap1\n      sload\n      swap1\n      0x0100\n      exp\n      swap1\n      div\n      0xffffffffffffffffffffffffffffffffffffffff\n      and\n      0xffffffffffffffffffffffffffffffffffffffff\n      and\n      0xffffffffffffffffffffffffffffffffffffffff\n      and\n      dup2\n      mstore\n      0x20\n      add\n      0x04\n      dup3\n      add\n      0x00\n      swap1\n      sload\n      swap1\n      0x0100\n      exp\n      swap1\n      div\n      0xffffffffffffffffffffffffffffffffffffffff\n      and\n      0xffffffffffffffffffffffffffffffffffffffff\n      and\n      0xffffffffffffffffffffffffffffffffffffffff\n      and\n      dup2\n      mstore\n      0x20\n      add\n      0x05\n      dup3\n      add\n      sload\n      dup2\n      mstore\n      0x20\n      add\n      0x06\n      dup3\n      add\n      dup1\n      sload\n      tag_101\n      swap1\n      tag_37\n      jump\t// in\n    tag_101:\n      dup1\n      0x1f\n      add\n      0x20\n      dup1\n      swap2\n      div\n      mul\n      0x20\n      add\n      mload(0x40)\n      swap1\n      dup2\n      add\n      0x40\n      mstore\n      dup1\n      swap3\n      swap2\n      swap1\n      dup2\n      dup2\n      mstore\n      0x20\n      add\n      dup3\n      dup1\n      sload\n      tag_102\n      swap1\n      tag_37\n      jump\t// in\n    tag_102:\n      dup1\n      iszero\n      tag_103\n      jumpi\n      dup1\n      0x1f\n      lt\n      tag_104\n      jumpi\n      0x0100\n      dup1\n      dup4\n      sload\n      div\n      mul\n      dup4\n      mstore\n      swap2\n      0x20\n      add\n      swap2\n      jump(tag_103)\n    tag_104:\n      dup3\n      add\n      swap2\n      swap1\n      0x00\n      mstore\n      keccak256(0x00, 0x20)\n      swap1\n    tag_105:\n      dup2\n      sload\n      dup2\n      mstore\n      swap1\n      0x01\n      add\n      swap1\n      0x20\n      add\n      dup1\n      dup4\n      gt\n      tag_105\n      jumpi\n      dup3\n      swap1\n      sub\n      0x1f\n      and\n      dup3\n      add\n      swap2\n    tag_103:\n      pop\n      pop\n      pop\n      pop\n      pop\n      dup2\n      mstore\n      0x20\n      add\n      0x07\n      dup3\n      add\n      dup1\n      sload\n      tag_106\n      swap1\n      tag_37\n      jump\t// in\n    tag_106:\n      dup1\n      0x1f\n      add\n      0x20\n      dup1\n      swap2\n      div\n      mul\n      0x20\n      add\n      mload(0x40)\n      swap1\n      dup2\n      add\n      0x40\n      mstore\n      dup1\n      swap3\n      swap2\n      swap1\n      dup2\n      dup2\n      mstore\n      0x20\n      add\n      dup3\n      dup1\n      sload\n      tag_107\n      swap1\n      tag_37\n      jump\t// in\n    tag_107:\n      dup1\n      iszero\n      tag_108\n      jumpi\n      dup1\n      0x1f\n      lt\n      tag_109\n      jumpi\n      0x0100\n      dup1\n      dup4\n      sload\n      div\n      mul\n      dup4\n      mstore\n      swap2\n      0x20\n      add\n      swap2\n      jump(tag_108)\n    tag_109:\n      dup3\n      add\n      swap2\n      swap1\n      0x00\n      mstore\n      keccak256(0x00, 0x20)\n      swap1\n    tag_110:\n      dup2\n      sload\n      dup2\n      mstore\n      swap1\n      0x01\n      add\n      swap1\n      0x20\n      add\n      dup1\n      dup4\n      gt\n      tag_110\n      jumpi\n      dup3\n      swap1\n      sub\n      0x1f\n      and\n      dup3\n      add\n      swap2\n    tag_108:\n      pop\n      pop\n      pop\n      pop\n      pop\n      dup2\n      mstore\n      pop\n      pop\n      dup2\n      mstore\n      0x20\n      add\n      swap1\n      0x01\n      add\n      swap1\n      jump(tag_93)\n    tag_94:\n      pop\n      pop\n      pop\n      pop\n      swap1\n      pop\n      jump(tag_91)\n        /* \"crowdfunding.sol\":2167:2195  if(_status == 0) return list */\n    tag_92:\n        /* \"crowdfunding.sol\":2213:2231  filterDataByStatus */\n      0x02\n        /* \"crowdfunding.sol\":2213:2240  filterDataByStatus[_status] */\n      0x00\n        /* \"crowdfunding.sol\":2232:2239  _status */\n      dup4\n        /* \"crowdfunding.sol\":2213:2240  filterDataByStatus[_status] */\n      dup2\n      mstore\n      0x20\n      add\n      swap1\n      dup2\n      mstore\n      0x20\n      add\n      0x00\n      keccak256\n        /* \"crowdfunding.sol\":2206:2240  return filterDataByStatus[_status] */\n      dup1\n      sload\n      dup1\n      0x20\n      mul\n      0x20\n      add\n      mload(0x40)\n      swap1\n      dup2\n      add\n      0x40\n      mstore\n      dup1\n      swap3\n      swap2\n      swap1\n      dup2\n      dup2\n      mstore\n      0x20\n      add\n      0x00\n      swap1\n    tag_111:\n      dup3\n      dup3\n      lt\n      iszero\n      tag_112\n      jumpi\n      dup4\n      dup3\n      swap1\n      0x00\n      mstore\n      keccak256(0x00, 0x20)\n      swap1\n      0x08\n      mul\n      add\n      mload(0x40)\n      dup1\n      0x0100\n      add\n      0x40\n      mstore\n      swap1\n      dup2\n      0x00\n      dup3\n      add\n      sload\n      dup2\n      mstore\n      0x20\n      add\n      0x01\n      dup3\n      add\n      dup1\n      sload\n      tag_114\n      swap1\n      tag_37\n      jump\t// in\n    tag_114:\n      dup1\n      0x1f\n      add\n      0x20\n      dup1\n      swap2\n      div\n      mul\n      0x20\n      add\n      mload(0x40)\n      swap1\n      dup2\n      add\n      0x40\n      mstore\n      dup1\n      swap3\n      swap2\n      swap1\n      dup2\n      dup2\n      mstore\n      0x20\n      add\n      dup3\n      dup1\n      sload\n      tag_115\n      swap1\n      tag_37\n      jump\t// in\n    tag_115:\n      dup1\n      iszero\n      tag_116\n      jumpi\n      dup1\n      0x1f\n      lt\n      tag_117\n      jumpi\n      0x0100\n      dup1\n      dup4\n      sload\n      div\n      mul\n      dup4\n      mstore\n      swap2\n      0x20\n      add\n      swap2\n      jump(tag_116)\n    tag_117:\n      dup3\n      add\n      swap2\n      swap1\n      0x00\n      mstore\n      keccak256(0x00, 0x20)\n      swap1\n    tag_118:\n      dup2\n      sload\n      dup2\n      mstore\n      swap1\n      0x01\n      add\n      swap1\n      0x20\n      add\n      dup1\n      dup4\n      gt\n      tag_118\n      jumpi\n      dup3\n      swap1\n      sub\n      0x1f\n      and\n      dup3\n      add\n      swap2\n    tag_116:\n      pop\n      pop\n      pop\n      pop\n      pop\n      dup2\n      mstore\n      0x20\n      add\n      0x02\n      dup3\n      add\n      sload\n      dup2\n      mstore\n      0x20\n      add\n      0x03\n      dup3\n      add\n      0x00\n      swap1\n      sload\n      swap1\n      0x0100\n      exp\n      swap1\n      div\n      0xffffffffffffffffffffffffffffffffffffffff\n      and\n      0xffffffffffffffffffffffffffffffffffffffff\n      and\n      0xffffffffffffffffffffffffffffffffffffffff\n      and\n      dup2\n      mstore\n      0x20\n      add\n      0x04\n      dup3\n      add\n      0x00\n      swap1\n      sload\n      swap1\n      0x0100\n      exp\n      swap1\n      div\n      0xffffffffffffffffffffffffffffffffffffffff\n      and\n      0xffffffffffffffffffffffffffffffffffffffff\n      and\n      0xffffffffffffffffffffffffffffffffffffffff\n      and\n      dup2\n      mstore\n      0x20\n      add\n      0x05\n      dup3\n      add\n      sload\n      dup2\n      mstore\n      0x20\n      add\n      0x06\n      dup3\n      add\n      dup1\n      sload\n      tag_119\n      swap1\n      tag_37\n      jump\t// in\n    tag_119:\n      dup1\n      0x1f\n      add\n      0x20\n      dup1\n      swap2\n      div\n      mul\n      0x20\n      add\n      mload(0x40)\n      swap1\n      dup2\n      add\n      0x40\n      mstore\n      dup1\n      swap3\n      swap2\n      swap1\n      dup2\n      dup2\n      mstore\n      0x20\n      add\n      dup3\n      dup1\n      sload\n      tag_120\n      swap1\n      tag_37\n      jump\t// in\n    tag_120:\n      dup1\n      iszero\n      tag_121\n      jumpi\n      dup1\n      0x1f\n      lt\n      tag_122\n      jumpi\n      0x0100\n      dup1\n      dup4\n      sload\n      div\n      mul\n      dup4\n      mstore\n      swap2\n      0x20\n      add\n      swap2\n      jump(tag_121)\n    tag_122:\n      dup3\n      add\n      swap2\n      swap1\n      0x00\n      mstore\n      keccak256(0x00, 0x20)\n      swap1\n    tag_123:\n      dup2\n      sload\n      dup2\n      mstore\n      swap1\n      0x01\n      add\n      swap1\n      0x20\n      add\n      dup1\n      dup4\n      gt\n      tag_123\n      jumpi\n      dup3\n      swap1\n      sub\n      0x1f\n      and\n      dup3\n      add\n      swap2\n    tag_121:\n      pop\n      pop\n      pop\n      pop\n      pop\n      dup2\n      mstore\n      0x20\n      add\n      0x07\n      dup3\n      add\n      dup1\n      sload\n      tag_124\n      swap1\n      tag_37\n      jump\t// in\n    tag_124:\n      dup1\n      0x1f\n      add\n      0x20\n      dup1\n      swap2\n      div\n      mul\n      0x20\n      add\n      mload(0x40)\n      swap1\n      dup2\n      add\n      0x40\n      mstore\n      dup1\n      swap3\n      swap2\n      swap1\n      dup2\n      dup2\n      mstore\n      0x20\n      add\n      dup3\n      dup1\n      sload\n      tag_125\n      swap1\n      tag_37\n      jump\t// in\n    tag_125:\n      dup1\n      iszero\n      tag_126\n      jumpi\n      dup1\n      0x1f\n      lt\n      tag_127\n      jumpi\n      0x0100\n      dup1\n      dup4\n      sload\n      div\n      mul\n      dup4\n      mstore\n      swap2\n      0x20\n      add\n      swap2\n      jump(tag_126)\n    tag_127:\n      dup3\n      add\n      swap2\n      swap1\n      0x00\n      mstore\n      keccak256(0x00, 0x20)\n      swap1\n    tag_128:\n      dup2\n      sload\n      dup2\n      mstore\n      swap1\n      0x01\n      add\n      swap1\n      0x20\n      add\n      dup1\n      dup4\n      gt\n      tag_128\n      jumpi\n      dup3\n      swap1\n      sub\n      0x1f\n      and\n      dup3\n      add\n      swap2\n    tag_126:\n      pop\n      pop\n      pop\n      pop\n      pop\n      dup2\n      mstore\n      pop\n      pop\n      dup2\n      mstore\n      0x20\n      add\n      swap1\n      0x01\n      add\n      swap1\n      jump(tag_111)\n    tag_112:\n      pop\n      pop\n      pop\n      pop\n      swap1\n      pop\n        /* \"crowdfunding.sol\":2065:2248  function getCrowdfundingByStatus(uint _status) public view returns (Crowdfunding[] memory) {... */\n    tag_91:\n      swap2\n      swap1\n      pop\n      jump\t// out\n        /* \"crowdfunding.sol\":959:1575  function createCrowdfunding(string memory _title,address _recipient, string memory _expectAmout) public {... */\n    tag_31:\n        /* \"crowdfunding.sol\":1074:1076  No */\n      0x00\n      dup1\n        /* \"crowdfunding.sol\":1074:1078  No++ */\n      dup2\n      sload\n      dup1\n      swap3\n      swap2\n      swap1\n      tag_130\n      swap1\n      tag_82\n      jump\t// in\n    tag_130:\n      swap2\n      swap1\n      pop\n      sstore\n      pop\n        /* \"crowdfunding.sol\":1089:1110  Crowdfunding memory c */\n      0x00\n        /* \"crowdfunding.sol\":1113:1385  Crowdfunding({... */\n      mload(0x40)\n      dup1\n      0x0100\n      add\n      0x40\n      mstore\n      dup1\n        /* \"crowdfunding.sol\":1146:1148  No */\n      sload(0x00)\n        /* \"crowdfunding.sol\":1113:1385  Crowdfunding({... */\n      dup2\n      mstore\n      0x20\n      add\n        /* \"crowdfunding.sol\":1169:1175  _title */\n      dup6\n        /* \"crowdfunding.sol\":1113:1385  Crowdfunding({... */\n      dup2\n      mstore\n      0x20\n      add\n        /* \"crowdfunding.sol\":1198:1199  0 */\n      0x00\n        /* \"crowdfunding.sol\":1113:1385  Crowdfunding({... */\n      dup2\n      mstore\n      0x20\n      add\n        /* \"crowdfunding.sol\":1223:1233  msg.sender */\n      caller\n        /* \"crowdfunding.sol\":1113:1385  Crowdfunding({... */\n      0xffffffffffffffffffffffffffffffffffffffff\n      and\n      dup2\n      mstore\n      0x20\n      add\n        /* \"crowdfunding.sol\":1259:1269  _recipient */\n      dup5\n        /* \"crowdfunding.sol\":1113:1385  Crowdfunding({... */\n      0xffffffffffffffffffffffffffffffffffffffff\n      and\n      dup2\n      mstore\n      0x20\n      add\n        /* \"crowdfunding.sol\":1293:1294  0 */\n      0x00\n        /* \"crowdfunding.sol\":1113:1385  Crowdfunding({... */\n      dup2\n      mstore\n      0x20\n      add\n        /* \"crowdfunding.sol\":1329:1341  _expectAmout */\n      dup4\n        /* \"crowdfunding.sol\":1113:1385  Crowdfunding({... */\n      dup2\n      mstore\n      0x20\n      add\n      mload(0x40)\n      dup1\n      0x40\n      add\n      0x40\n      mstore\n      dup1\n      0x01\n      dup2\n      mstore\n      0x20\n      add\n      0x3000000000000000000000000000000000000000000000000000000000000000\n      dup2\n      mstore\n      pop\n      dup2\n      mstore\n      pop\n        /* \"crowdfunding.sol\":1089:1385  Crowdfunding memory c = Crowdfunding({... */\n      swap1\n      pop\n        /* \"crowdfunding.sol\":1396:1400  list */\n      0x01\n        /* \"crowdfunding.sol\":1406:1407  c */\n      dup2\n        /* \"crowdfunding.sol\":1396:1408  list.push(c) */\n      swap1\n      dup1\n      0x01\n      dup2\n      sload\n      add\n      dup1\n      dup3\n      sstore\n      dup1\n      swap2\n      pop\n      pop\n      0x01\n      swap1\n      sub\n      swap1\n      0x00\n      mstore\n      keccak256(0x00, 0x20)\n      swap1\n      0x08\n      mul\n      add\n      0x00\n      swap1\n      swap2\n      swap1\n      swap2\n      swap1\n      swap2\n      pop\n      0x00\n      dup3\n      add\n      mload\n      dup2\n      0x00\n      add\n      sstore\n      0x20\n      dup3\n      add\n      mload\n      dup2\n      0x01\n      add\n      swap1\n      dup2\n      tag_132\n      swap2\n      swap1\n      tag_133\n      jump\t// in\n    tag_132:\n      pop\n      0x40\n      dup3\n      add\n      mload\n      dup2\n      0x02\n      add\n      sstore\n      0x60\n      dup3\n      add\n      mload\n      dup2\n      0x03\n      add\n      exp(0x0100, 0x00)\n      dup2\n      sload\n      dup2\n      0xffffffffffffffffffffffffffffffffffffffff\n      mul\n      not\n      and\n      swap1\n      dup4\n      0xffffffffffffffffffffffffffffffffffffffff\n      and\n      mul\n      or\n      swap1\n      sstore\n      pop\n      0x80\n      dup3\n      add\n      mload\n      dup2\n      0x04\n      add\n      exp(0x0100, 0x00)\n      dup2\n      sload\n      dup2\n      0xffffffffffffffffffffffffffffffffffffffff\n      mul\n      not\n      and\n      swap1\n      dup4\n      0xffffffffffffffffffffffffffffffffffffffff\n      and\n      mul\n      or\n      swap1\n      sstore\n      pop\n      0xa0\n      dup3\n      add\n      mload\n      dup2\n      0x05\n      add\n      sstore\n      0xc0\n      dup3\n      add\n      mload\n      dup2\n      0x06\n      add\n      swap1\n      dup2\n      tag_134\n      swap2\n      swap1\n      tag_133\n      jump\t// in\n    tag_134:\n      pop\n      0xe0\n      dup3\n      add\n      mload\n      dup2\n      0x07\n      add\n      swap1\n      dup2\n      tag_135\n      swap2\n      swap1\n      tag_133\n      jump\t// in\n    tag_135:\n      pop\n      pop\n      pop\n        /* \"crowdfunding.sol\":1493:1511  filterDataByStatus */\n      0x02\n        /* \"crowdfunding.sol\":1493:1514  filterDataByStatus[1] */\n      0x00\n        /* \"crowdfunding.sol\":1512:1513  1 */\n      0x01\n        /* \"crowdfunding.sol\":1493:1514  filterDataByStatus[1] */\n      dup2\n      mstore\n      0x20\n      add\n      swap1\n      dup2\n      mstore\n      0x20\n      add\n      0x00\n      keccak256\n        /* \"crowdfunding.sol\":1520:1521  c */\n      dup2\n        /* \"crowdfunding.sol\":1493:1522  filterDataByStatus[1].push(c) */\n      swap1\n      dup1\n      0x01\n      dup2\n      sload\n      add\n      dup1\n      dup3\n      sstore\n      dup1\n      swap2\n      pop\n      pop\n      0x01\n      swap1\n      sub\n      swap1\n      0x00\n      mstore\n      keccak256(0x00, 0x20)\n      swap1\n      0x08\n      mul\n      add\n      0x00\n      swap1\n      swap2\n      swap1\n      swap2\n      swap1\n      swap2\n      pop\n      0x00\n      dup3\n      add\n      mload\n      dup2\n      0x00\n      add\n      sstore\n      0x20\n      dup3\n      add\n      mload\n      dup2\n      0x01\n      add\n      swap1\n      dup2\n      tag_137\n      swap2\n      swap1\n      tag_133\n      jump\t// in\n    tag_137:\n      pop\n      0x40\n      dup3\n      add\n      mload\n      dup2\n      0x02\n      add\n      sstore\n      0x60\n      dup3\n      add\n      mload\n      dup2\n      0x03\n      add\n      exp(0x0100, 0x00)\n      dup2\n      sload\n      dup2\n      0xffffffffffffffffffffffffffffffffffffffff\n      mul\n      not\n      and\n      swap1\n      dup4\n      0xffffffffffffffffffffffffffffffffffffffff\n      and\n      mul\n      or\n      swap1\n      sstore\n      pop\n      0x80\n      dup3\n      add\n      mload\n      dup2\n      0x04\n      add\n      exp(0x0100, 0x00)\n      dup2\n      sload\n      dup2\n      0xffffffffffffffffffffffffffffffffffffffff\n      mul\n      not\n      and\n      swap1\n      dup4\n      0xffffffffffffffffffffffffffffffffffffffff\n      and\n      mul\n      or\n      swap1\n      sstore\n      pop\n      0xa0\n      dup3\n      add\n      mload\n      dup2\n      0x05\n      add\n      sstore\n      0xc0\n      dup3\n      add\n      mload\n      dup2\n      0x06\n      add\n      swap1\n      dup2\n      tag_138\n      swap2\n      swap1\n      tag_133\n      jump\t// in\n    tag_138:\n      pop\n      0xe0\n      dup3\n      add\n      mload\n      dup2\n      0x07\n      add\n      swap1\n      dup2\n      tag_139\n      swap2\n      swap1\n      tag_133\n      jump\t// in\n    tag_139:\n      pop\n      pop\n      pop\n        /* \"crowdfunding.sol\":1533:1547  myCrowdfunding */\n      0x03\n        /* \"crowdfunding.sol\":1533:1559  myCrowdfunding[msg.sender] */\n      0x00\n        /* \"crowdfunding.sol\":1548:1558  msg.sender */\n      caller\n        /* \"crowdfunding.sol\":1533:1559  myCrowdfunding[msg.sender] */\n      0xffffffffffffffffffffffffffffffffffffffff\n      and\n      0xffffffffffffffffffffffffffffffffffffffff\n      and\n      dup2\n      mstore\n      0x20\n      add\n      swap1\n      dup2\n      mstore\n      0x20\n      add\n      0x00\n      keccak256\n        /* \"crowdfunding.sol\":1565:1566  c */\n      dup2\n        /* \"crowdfunding.sol\":1533:1567  myCrowdfunding[msg.sender].push(c) */\n      swap1\n      dup1\n      0x01\n      dup2\n      sload\n      add\n      dup1\n      dup3\n      sstore\n      dup1\n      swap2\n      pop\n      pop\n      0x01\n      swap1\n      sub\n      swap1\n      0x00\n      mstore\n      keccak256(0x00, 0x20)\n      swap1\n      0x08\n      mul\n      add\n      0x00\n      swap1\n      swap2\n      swap1\n      swap2\n      swap1\n      swap2\n      pop\n      0x00\n      dup3\n      add\n      mload\n      dup2\n      0x00\n      add\n      sstore\n      0x20\n      dup3\n      add\n      mload\n      dup2\n      0x01\n      add\n      swap1\n      dup2\n      tag_141\n      swap2\n      swap1\n      tag_133\n      jump\t// in\n    tag_141:\n      pop\n      0x40\n      dup3\n      add\n      mload\n      dup2\n      0x02\n      add\n      sstore\n      0x60\n      dup3\n      add\n      mload\n      dup2\n      0x03\n      add\n      exp(0x0100, 0x00)\n      dup2\n      sload\n      dup2\n      0xffffffffffffffffffffffffffffffffffffffff\n      mul\n      not\n      and\n      swap1\n      dup4\n      0xffffffffffffffffffffffffffffffffffffffff\n      and\n      mul\n      or\n      swap1\n      sstore\n      pop\n      0x80\n      dup3\n      add\n      mload\n      dup2\n      0x04\n      add\n      exp(0x0100, 0x00)\n      dup2\n      sload\n      dup2\n      0xffffffffffffffffffffffffffffffffffffffff\n      mul\n      not\n      and\n      swap1\n      dup4\n      0xffffffffffffffffffffffffffffffffffffffff\n      and\n      mul\n      or\n      swap1\n      sstore\n      pop\n      0xa0\n      dup3\n      add\n      mload\n      dup2\n      0x05\n      add\n      sstore\n      0xc0\n      dup3\n      add\n      mload\n      dup2\n      0x06\n      add\n      swap1\n      dup2\n      tag_142\n      swap2\n      swap1\n      tag_133\n      jump\t// in\n    tag_142:\n      pop\n      0xe0\n      dup3\n      add\n      mload\n      dup2\n      0x07\n      add\n      swap1\n      dup2\n      tag_143\n      swap2\n      swap1\n      tag_133\n      jump\t// in\n    tag_143:\n      pop\n      pop\n      pop\n        /* \"crowdfunding.sol\":1063:1575  {... */\n      pop\n        /* \"crowdfunding.sol\":959:1575  function createCrowdfunding(string memory _title,address _recipient, string memory _expectAmout) public {... */\n      pop\n      pop\n      pop\n      jump\t// out\n        /* \"#utility.yul\":7:82   */\n    tag_144:\n        /* \"#utility.yul\":40:46   */\n      0x00\n        /* \"#utility.yul\":73:75   */\n      0x40\n        /* \"#utility.yul\":67:76   */\n      mload\n        /* \"#utility.yul\":57:76   */\n      swap1\n      pop\n        /* \"#utility.yul\":7:82   */\n      swap1\n      jump\t// out\n        /* \"#utility.yul\":88:205   */\n    tag_145:\n        /* \"#utility.yul\":197:198   */\n      0x00\n        /* \"#utility.yul\":194:195   */\n      dup1\n        /* \"#utility.yul\":187:199   */\n      revert\n        /* \"#utility.yul\":211:328   */\n    tag_146:\n        /* \"#utility.yul\":320:321   */\n      0x00\n        /* \"#utility.yul\":317:318   */\n      dup1\n        /* \"#utility.yul\":310:322   */\n      revert\n        /* \"#utility.yul\":334:460   */\n    tag_147:\n        /* \"#utility.yul\":371:378   */\n      0x00\n        /* \"#utility.yul\":411:453   */\n      0xffffffffffffffffffffffffffffffffffffffff\n        /* \"#utility.yul\":404:409   */\n      dup3\n        /* \"#utility.yul\":400:454   */\n      and\n        /* \"#utility.yul\":389:454   */\n      swap1\n      pop\n        /* \"#utility.yul\":334:460   */\n      swap2\n      swap1\n      pop\n      jump\t// out\n        /* \"#utility.yul\":466:562   */\n    tag_148:\n        /* \"#utility.yul\":503:510   */\n      0x00\n        /* \"#utility.yul\":532:556   */\n      tag_205\n        /* \"#utility.yul\":550:555   */\n      dup3\n        /* \"#utility.yul\":532:556   */\n      tag_147\n      jump\t// in\n    tag_205:\n        /* \"#utility.yul\":521:556   */\n      swap1\n      pop\n        /* \"#utility.yul\":466:562   */\n      swap2\n      swap1\n      pop\n      jump\t// out\n        /* \"#utility.yul\":568:690   */\n    tag_149:\n        /* \"#utility.yul\":641:665   */\n      tag_207\n        /* \"#utility.yul\":659:664   */\n      dup2\n        /* \"#utility.yul\":641:665   */\n      tag_148\n      jump\t// in\n    tag_207:\n        /* \"#utility.yul\":634:639   */\n      dup2\n        /* \"#utility.yul\":631:666   */\n      eq\n        /* \"#utility.yul\":621:684   */\n      tag_208\n      jumpi\n        /* \"#utility.yul\":680:681   */\n      0x00\n        /* \"#utility.yul\":677:678   */\n      dup1\n        /* \"#utility.yul\":670:682   */\n      revert\n        /* \"#utility.yul\":621:684   */\n    tag_208:\n        /* \"#utility.yul\":568:690   */\n      pop\n      jump\t// out\n        /* \"#utility.yul\":696:835   */\n    tag_150:\n        /* \"#utility.yul\":742:747   */\n      0x00\n        /* \"#utility.yul\":780:786   */\n      dup2\n        /* \"#utility.yul\":767:787   */\n      calldataload\n        /* \"#utility.yul\":758:787   */\n      swap1\n      pop\n        /* \"#utility.yul\":796:829   */\n      tag_210\n        /* \"#utility.yul\":823:828   */\n      dup2\n        /* \"#utility.yul\":796:829   */\n      tag_149\n      jump\t// in\n    tag_210:\n        /* \"#utility.yul\":696:835   */\n      swap3\n      swap2\n      pop\n      pop\n      jump\t// out\n        /* \"#utility.yul\":841:1170   */\n    tag_10:\n        /* \"#utility.yul\":900:906   */\n      0x00\n        /* \"#utility.yul\":949:951   */\n      0x20\n        /* \"#utility.yul\":937:946   */\n      dup3\n        /* \"#utility.yul\":928:935   */\n      dup5\n        /* \"#utility.yul\":924:947   */\n      sub\n        /* \"#utility.yul\":920:952   */\n      slt\n        /* \"#utility.yul\":917:1036   */\n      iszero\n      tag_212\n      jumpi\n        /* \"#utility.yul\":955:1034   */\n      tag_213\n      tag_145\n      jump\t// in\n    tag_213:\n        /* \"#utility.yul\":917:1036   */\n    tag_212:\n        /* \"#utility.yul\":1075:1076   */\n      0x00\n        /* \"#utility.yul\":1100:1153   */\n      tag_214\n        /* \"#utility.yul\":1145:1152   */\n      dup5\n        /* \"#utility.yul\":1136:1142   */\n      dup3\n        /* \"#utility.yul\":1125:1134   */\n      dup6\n        /* \"#utility.yul\":1121:1143   */\n      add\n        /* \"#utility.yul\":1100:1153   */\n      tag_150\n      jump\t// in\n    tag_214:\n        /* \"#utility.yul\":1090:1153   */\n      swap2\n      pop\n        /* \"#utility.yul\":1046:1163   */\n      pop\n        /* \"#utility.yul\":841:1170   */\n      swap3\n      swap2\n      pop\n      pop\n      jump\t// out\n        /* \"#utility.yul\":1176:1318   */\n    tag_151:\n        /* \"#utility.yul\":1271:1277   */\n      0x00\n        /* \"#utility.yul\":1305:1310   */\n      dup2\n        /* \"#utility.yul\":1299:1311   */\n      mload\n        /* \"#utility.yul\":1289:1311   */\n      swap1\n      pop\n        /* \"#utility.yul\":1176:1318   */\n      swap2\n      swap1\n      pop\n      jump\t// out\n        /* \"#utility.yul\":1324:1536   */\n    tag_152:\n        /* \"#utility.yul\":1451:1462   */\n      0x00\n        /* \"#utility.yul\":1485:1491   */\n      dup3\n        /* \"#utility.yul\":1480:1483   */\n      dup3\n        /* \"#utility.yul\":1473:1492   */\n      mstore\n        /* \"#utility.yul\":1525:1529   */\n      0x20\n        /* \"#utility.yul\":1520:1523   */\n      dup3\n        /* \"#utility.yul\":1516:1530   */\n      add\n        /* \"#utility.yul\":1501:1530   */\n      swap1\n      pop\n        /* \"#utility.yul\":1324:1536   */\n      swap3\n      swap2\n      pop\n      pop\n      jump\t// out\n        /* \"#utility.yul\":1542:1702   */\n    tag_153:\n        /* \"#utility.yul\":1637:1641   */\n      0x00\n        /* \"#utility.yul\":1660:1663   */\n      dup2\n        /* \"#utility.yul\":1652:1663   */\n      swap1\n      pop\n        /* \"#utility.yul\":1690:1694   */\n      0x20\n        /* \"#utility.yul\":1685:1688   */\n      dup3\n        /* \"#utility.yul\":1681:1695   */\n      add\n        /* \"#utility.yul\":1673:1695   */\n      swap1\n      pop\n        /* \"#utility.yul\":1542:1702   */\n      swap2\n      swap1\n      pop\n      jump\t// out\n        /* \"#utility.yul\":1708:1785   */\n    tag_154:\n        /* \"#utility.yul\":1745:1752   */\n      0x00\n        /* \"#utility.yul\":1774:1779   */\n      dup2\n        /* \"#utility.yul\":1763:1779   */\n      swap1\n      pop\n        /* \"#utility.yul\":1708:1785   */\n      swap2\n      swap1\n      pop\n      jump\t// out\n        /* \"#utility.yul\":1791:1899   */\n    tag_155:\n        /* \"#utility.yul\":1868:1892   */\n      tag_220\n        /* \"#utility.yul\":1886:1891   */\n      dup2\n        /* \"#utility.yul\":1868:1892   */\n      tag_154\n      jump\t// in\n    tag_220:\n        /* \"#utility.yul\":1863:1866   */\n      dup3\n        /* \"#utility.yul\":1856:1893   */\n      mstore\n        /* \"#utility.yul\":1791:1899   */\n      pop\n      pop\n      jump\t// out\n        /* \"#utility.yul\":1905:2004   */\n    tag_156:\n        /* \"#utility.yul\":1957:1963   */\n      0x00\n        /* \"#utility.yul\":1991:1996   */\n      dup2\n        /* \"#utility.yul\":1985:1997   */\n      mload\n        /* \"#utility.yul\":1975:1997   */\n      swap1\n      pop\n        /* \"#utility.yul\":1905:2004   */\n      swap2\n      swap1\n      pop\n      jump\t// out\n        /* \"#utility.yul\":2010:2169   */\n    tag_157:\n        /* \"#utility.yul\":2084:2095   */\n      0x00\n        /* \"#utility.yul\":2118:2124   */\n      dup3\n        /* \"#utility.yul\":2113:2116   */\n      dup3\n        /* \"#utility.yul\":2106:2125   */\n      mstore\n        /* \"#utility.yul\":2158:2162   */\n      0x20\n        /* \"#utility.yul\":2153:2156   */\n      dup3\n        /* \"#utility.yul\":2149:2163   */\n      add\n        /* \"#utility.yul\":2134:2163   */\n      swap1\n      pop\n        /* \"#utility.yul\":2010:2169   */\n      swap3\n      swap2\n      pop\n      pop\n      jump\t// out\n        /* \"#utility.yul\":2175:2482   */\n    tag_158:\n        /* \"#utility.yul\":2243:2244   */\n      0x00\n        /* \"#utility.yul\":2253:2366   */\n    tag_224:\n        /* \"#utility.yul\":2267:2273   */\n      dup4\n        /* \"#utility.yul\":2264:2265   */\n      dup2\n        /* \"#utility.yul\":2261:2274   */\n      lt\n        /* \"#utility.yul\":2253:2366   */\n      iszero\n      tag_226\n      jumpi\n        /* \"#utility.yul\":2352:2353   */\n      dup1\n        /* \"#utility.yul\":2347:2350   */\n      dup3\n        /* \"#utility.yul\":2343:2354   */\n      add\n        /* \"#utility.yul\":2337:2355   */\n      mload\n        /* \"#utility.yul\":2333:2334   */\n      dup2\n        /* \"#utility.yul\":2328:2331   */\n      dup5\n        /* \"#utility.yul\":2324:2335   */\n      add\n        /* \"#utility.yul\":2317:2356   */\n      mstore\n        /* \"#utility.yul\":2289:2291   */\n      0x20\n        /* \"#utility.yul\":2286:2287   */\n      dup2\n        /* \"#utility.yul\":2282:2292   */\n      add\n        /* \"#utility.yul\":2277:2292   */\n      swap1\n      pop\n        /* \"#utility.yul\":2253:2366   */\n      jump(tag_224)\n    tag_226:\n        /* \"#utility.yul\":2384:2390   */\n      dup4\n        /* \"#utility.yul\":2381:2382   */\n      dup2\n        /* \"#utility.yul\":2378:2391   */\n      gt\n        /* \"#utility.yul\":2375:2476   */\n      iszero\n      tag_227\n      jumpi\n        /* \"#utility.yul\":2464:2465   */\n      0x00\n        /* \"#utility.yul\":2455:2461   */\n      dup5\n        /* \"#utility.yul\":2450:2453   */\n      dup5\n        /* \"#utility.yul\":2446:2462   */\n      add\n        /* \"#utility.yul\":2439:2466   */\n      mstore\n        /* \"#utility.yul\":2375:2476   */\n    tag_227:\n        /* \"#utility.yul\":2224:2482   */\n      pop\n        /* \"#utility.yul\":2175:2482   */\n      pop\n      pop\n      pop\n      jump\t// out\n        /* \"#utility.yul\":2488:2590   */\n    tag_159:\n        /* \"#utility.yul\":2529:2535   */\n      0x00\n        /* \"#utility.yul\":2580:2582   */\n      0x1f\n        /* \"#utility.yul\":2576:2583   */\n      not\n        /* \"#utility.yul\":2571:2573   */\n      0x1f\n        /* \"#utility.yul\":2564:2569   */\n      dup4\n        /* \"#utility.yul\":2560:2574   */\n      add\n        /* \"#utility.yul\":2556:2584   */\n      and\n        /* \"#utility.yul\":2546:2584   */\n      swap1\n      pop\n        /* \"#utility.yul\":2488:2590   */\n      swap2\n      swap1\n      pop\n      jump\t// out\n        /* \"#utility.yul\":2596:2940   */\n    tag_160:\n        /* \"#utility.yul\":2674:2677   */\n      0x00\n        /* \"#utility.yul\":2702:2741   */\n      tag_230\n        /* \"#utility.yul\":2735:2740   */\n      dup3\n        /* \"#utility.yul\":2702:2741   */\n      tag_156\n      jump\t// in\n    tag_230:\n        /* \"#utility.yul\":2757:2818   */\n      tag_231\n        /* \"#utility.yul\":2811:2817   */\n      dup2\n        /* \"#utility.yul\":2806:2809   */\n      dup6\n        /* \"#utility.yul\":2757:2818   */\n      tag_157\n      jump\t// in\n    tag_231:\n        /* \"#utility.yul\":2750:2818   */\n      swap4\n      pop\n        /* \"#utility.yul\":2827:2879   */\n      tag_232\n        /* \"#utility.yul\":2872:2878   */\n      dup2\n        /* \"#utility.yul\":2867:2870   */\n      dup6\n        /* \"#utility.yul\":2860:2864   */\n      0x20\n        /* \"#utility.yul\":2853:2858   */\n      dup7\n        /* \"#utility.yul\":2849:2865   */\n      add\n        /* \"#utility.yul\":2827:2879   */\n      tag_158\n      jump\t// in\n    tag_232:\n        /* \"#utility.yul\":2904:2933   */\n      tag_233\n        /* \"#utility.yul\":2926:2932   */\n      dup2\n        /* \"#utility.yul\":2904:2933   */\n      tag_159\n      jump\t// in\n    tag_233:\n        /* \"#utility.yul\":2899:2902   */\n      dup5\n        /* \"#utility.yul\":2895:2934   */\n      add\n        /* \"#utility.yul\":2888:2934   */\n      swap2\n      pop\n        /* \"#utility.yul\":2678:2940   */\n      pop\n        /* \"#utility.yul\":2596:2940   */\n      swap3\n      swap2\n      pop\n      pop\n      jump\t// out\n        /* \"#utility.yul\":2946:3054   */\n    tag_161:\n        /* \"#utility.yul\":3023:3047   */\n      tag_235\n        /* \"#utility.yul\":3041:3046   */\n      dup2\n        /* \"#utility.yul\":3023:3047   */\n      tag_148\n      jump\t// in\n    tag_235:\n        /* \"#utility.yul\":3018:3021   */\n      dup3\n        /* \"#utility.yul\":3011:3048   */\n      mstore\n        /* \"#utility.yul\":2946:3054   */\n      pop\n      pop\n      jump\t// out\n        /* \"#utility.yul\":3152:4970   */\n    tag_162:\n        /* \"#utility.yul\":3267:3270   */\n      0x00\n        /* \"#utility.yul\":3303:3309   */\n      0x0100\n        /* \"#utility.yul\":3298:3301   */\n      dup4\n        /* \"#utility.yul\":3294:3310   */\n      add\n        /* \"#utility.yul\":3391:3395   */\n      0x00\n        /* \"#utility.yul\":3384:3389   */\n      dup4\n        /* \"#utility.yul\":3380:3396   */\n      add\n        /* \"#utility.yul\":3374:3397   */\n      mload\n        /* \"#utility.yul\":3410:3473   */\n      tag_237\n        /* \"#utility.yul\":3467:3471   */\n      0x00\n        /* \"#utility.yul\":3462:3465   */\n      dup7\n        /* \"#utility.yul\":3458:3472   */\n      add\n        /* \"#utility.yul\":3444:3456   */\n      dup3\n        /* \"#utility.yul\":3410:3473   */\n      tag_155\n      jump\t// in\n    tag_237:\n        /* \"#utility.yul\":3320:3483   */\n      pop\n        /* \"#utility.yul\":3566:3570   */\n      0x20\n        /* \"#utility.yul\":3559:3564   */\n      dup4\n        /* \"#utility.yul\":3555:3571   */\n      add\n        /* \"#utility.yul\":3549:3572   */\n      mload\n        /* \"#utility.yul\":3619:3622   */\n      dup5\n        /* \"#utility.yul\":3613:3617   */\n      dup3\n        /* \"#utility.yul\":3609:3623   */\n      sub\n        /* \"#utility.yul\":3602:3606   */\n      0x20\n        /* \"#utility.yul\":3597:3600   */\n      dup7\n        /* \"#utility.yul\":3593:3607   */\n      add\n        /* \"#utility.yul\":3586:3624   */\n      mstore\n        /* \"#utility.yul\":3645:3718   */\n      tag_238\n        /* \"#utility.yul\":3713:3717   */\n      dup3\n        /* \"#utility.yul\":3699:3711   */\n      dup3\n        /* \"#utility.yul\":3645:3718   */\n      tag_160\n      jump\t// in\n    tag_238:\n        /* \"#utility.yul\":3637:3718   */\n      swap2\n      pop\n        /* \"#utility.yul\":3493:3729   */\n      pop\n        /* \"#utility.yul\":3813:3817   */\n      0x40\n        /* \"#utility.yul\":3806:3811   */\n      dup4\n        /* \"#utility.yul\":3802:3818   */\n      add\n        /* \"#utility.yul\":3796:3819   */\n      mload\n        /* \"#utility.yul\":3832:3895   */\n      tag_239\n        /* \"#utility.yul\":3889:3893   */\n      0x40\n        /* \"#utility.yul\":3884:3887   */\n      dup7\n        /* \"#utility.yul\":3880:3894   */\n      add\n        /* \"#utility.yul\":3866:3878   */\n      dup3\n        /* \"#utility.yul\":3832:3895   */\n      tag_155\n      jump\t// in\n    tag_239:\n        /* \"#utility.yul\":3739:3905   */\n      pop\n        /* \"#utility.yul\":3990:3994   */\n      0x60\n        /* \"#utility.yul\":3983:3988   */\n      dup4\n        /* \"#utility.yul\":3979:3995   */\n      add\n        /* \"#utility.yul\":3973:3996   */\n      mload\n        /* \"#utility.yul\":4009:4072   */\n      tag_240\n        /* \"#utility.yul\":4066:4070   */\n      0x60\n        /* \"#utility.yul\":4061:4064   */\n      dup7\n        /* \"#utility.yul\":4057:4071   */\n      add\n        /* \"#utility.yul\":4043:4055   */\n      dup3\n        /* \"#utility.yul\":4009:4072   */\n      tag_161\n      jump\t// in\n    tag_240:\n        /* \"#utility.yul\":3915:4082   */\n      pop\n        /* \"#utility.yul\":4169:4173   */\n      0x80\n        /* \"#utility.yul\":4162:4167   */\n      dup4\n        /* \"#utility.yul\":4158:4174   */\n      add\n        /* \"#utility.yul\":4152:4175   */\n      mload\n        /* \"#utility.yul\":4188:4251   */\n      tag_241\n        /* \"#utility.yul\":4245:4249   */\n      0x80\n        /* \"#utility.yul\":4240:4243   */\n      dup7\n        /* \"#utility.yul\":4236:4250   */\n      add\n        /* \"#utility.yul\":4222:4234   */\n      dup3\n        /* \"#utility.yul\":4188:4251   */\n      tag_161\n      jump\t// in\n    tag_241:\n        /* \"#utility.yul\":4092:4261   */\n      pop\n        /* \"#utility.yul\":4346:4350   */\n      0xa0\n        /* \"#utility.yul\":4339:4344   */\n      dup4\n        /* \"#utility.yul\":4335:4351   */\n      add\n        /* \"#utility.yul\":4329:4352   */\n      mload\n        /* \"#utility.yul\":4365:4428   */\n      tag_242\n        /* \"#utility.yul\":4422:4426   */\n      0xa0\n        /* \"#utility.yul\":4417:4420   */\n      dup7\n        /* \"#utility.yul\":4413:4427   */\n      add\n        /* \"#utility.yul\":4399:4411   */\n      dup3\n        /* \"#utility.yul\":4365:4428   */\n      tag_155\n      jump\t// in\n    tag_242:\n        /* \"#utility.yul\":4271:4438   */\n      pop\n        /* \"#utility.yul\":4527:4531   */\n      0xc0\n        /* \"#utility.yul\":4520:4525   */\n      dup4\n        /* \"#utility.yul\":4516:4532   */\n      add\n        /* \"#utility.yul\":4510:4533   */\n      mload\n        /* \"#utility.yul\":4580:4583   */\n      dup5\n        /* \"#utility.yul\":4574:4578   */\n      dup3\n        /* \"#utility.yul\":4570:4584   */\n      sub\n        /* \"#utility.yul\":4563:4567   */\n      0xc0\n        /* \"#utility.yul\":4558:4561   */\n      dup7\n        /* \"#utility.yul\":4554:4568   */\n      add\n        /* \"#utility.yul\":4547:4585   */\n      mstore\n        /* \"#utility.yul\":4606:4679   */\n      tag_243\n        /* \"#utility.yul\":4674:4678   */\n      dup3\n        /* \"#utility.yul\":4660:4672   */\n      dup3\n        /* \"#utility.yul\":4606:4679   */\n      tag_160\n      jump\t// in\n    tag_243:\n        /* \"#utility.yul\":4598:4679   */\n      swap2\n      pop\n        /* \"#utility.yul\":4448:4690   */\n      pop\n        /* \"#utility.yul\":4780:4784   */\n      0xe0\n        /* \"#utility.yul\":4773:4778   */\n      dup4\n        /* \"#utility.yul\":4769:4785   */\n      add\n        /* \"#utility.yul\":4763:4786   */\n      mload\n        /* \"#utility.yul\":4833:4836   */\n      dup5\n        /* \"#utility.yul\":4827:4831   */\n      dup3\n        /* \"#utility.yul\":4823:4837   */\n      sub\n        /* \"#utility.yul\":4816:4820   */\n      0xe0\n        /* \"#utility.yul\":4811:4814   */\n      dup7\n        /* \"#utility.yul\":4807:4821   */\n      add\n        /* \"#utility.yul\":4800:4838   */\n      mstore\n        /* \"#utility.yul\":4859:4932   */\n      tag_244\n        /* \"#utility.yul\":4927:4931   */\n      dup3\n        /* \"#utility.yul\":4913:4925   */\n      dup3\n        /* \"#utility.yul\":4859:4932   */\n      tag_160\n      jump\t// in\n    tag_244:\n        /* \"#utility.yul\":4851:4932   */\n      swap2\n      pop\n        /* \"#utility.yul\":4700:4943   */\n      pop\n        /* \"#utility.yul\":4960:4964   */\n      dup1\n        /* \"#utility.yul\":4953:4964   */\n      swap2\n      pop\n        /* \"#utility.yul\":3272:4970   */\n      pop\n        /* \"#utility.yul\":3152:4970   */\n      swap3\n      swap2\n      pop\n      pop\n      jump\t// out\n        /* \"#utility.yul\":4976:5244   */\n    tag_163:\n        /* \"#utility.yul\":5101:5111   */\n      0x00\n        /* \"#utility.yul\":5136:5238   */\n      tag_246\n        /* \"#utility.yul\":5234:5237   */\n      dup4\n        /* \"#utility.yul\":5226:5232   */\n      dup4\n        /* \"#utility.yul\":5136:5238   */\n      tag_162\n      jump\t// in\n    tag_246:\n        /* \"#utility.yul\":5122:5238   */\n      swap1\n      pop\n        /* \"#utility.yul\":4976:5244   */\n      swap3\n      swap2\n      pop\n      pop\n      jump\t// out\n        /* \"#utility.yul\":5250:5391   */\n    tag_164:\n        /* \"#utility.yul\":5348:5352   */\n      0x00\n        /* \"#utility.yul\":5380:5384   */\n      0x20\n        /* \"#utility.yul\":5375:5378   */\n      dup3\n        /* \"#utility.yul\":5371:5385   */\n      add\n        /* \"#utility.yul\":5363:5385   */\n      swap1\n      pop\n        /* \"#utility.yul\":5250:5391   */\n      swap2\n      swap1\n      pop\n      jump\t// out\n        /* \"#utility.yul\":5493:6628   */\n    tag_165:\n        /* \"#utility.yul\":5668:5671   */\n      0x00\n        /* \"#utility.yul\":5697:5779   */\n      tag_249\n        /* \"#utility.yul\":5773:5778   */\n      dup3\n        /* \"#utility.yul\":5697:5779   */\n      tag_151\n      jump\t// in\n    tag_249:\n        /* \"#utility.yul\":5795:5909   */\n      tag_250\n        /* \"#utility.yul\":5902:5908   */\n      dup2\n        /* \"#utility.yul\":5897:5900   */\n      dup6\n        /* \"#utility.yul\":5795:5909   */\n      tag_152\n      jump\t// in\n    tag_250:\n        /* \"#utility.yul\":5788:5909   */\n      swap4\n      pop\n        /* \"#utility.yul\":5935:5938   */\n      dup4\n        /* \"#utility.yul\":5980:5984   */\n      0x20\n        /* \"#utility.yul\":5972:5978   */\n      dup3\n        /* \"#utility.yul\":5968:5985   */\n      mul\n        /* \"#utility.yul\":5963:5966   */\n      dup6\n        /* \"#utility.yul\":5959:5986   */\n      add\n        /* \"#utility.yul\":6010:6094   */\n      tag_251\n        /* \"#utility.yul\":6088:6093   */\n      dup6\n        /* \"#utility.yul\":6010:6094   */\n      tag_153\n      jump\t// in\n    tag_251:\n        /* \"#utility.yul\":6117:6124   */\n      dup1\n        /* \"#utility.yul\":6148:6149   */\n      0x00\n        /* \"#utility.yul\":6133:6583   */\n    tag_252:\n        /* \"#utility.yul\":6158:6164   */\n      dup6\n        /* \"#utility.yul\":6155:6156   */\n      dup2\n        /* \"#utility.yul\":6152:6165   */\n      lt\n        /* \"#utility.yul\":6133:6583   */\n      iszero\n      tag_254\n      jumpi\n        /* \"#utility.yul\":6229:6238   */\n      dup5\n        /* \"#utility.yul\":6223:6227   */\n      dup5\n        /* \"#utility.yul\":6219:6239   */\n      sub\n        /* \"#utility.yul\":6214:6217   */\n      dup10\n        /* \"#utility.yul\":6207:6240   */\n      mstore\n        /* \"#utility.yul\":6280:6286   */\n      dup2\n        /* \"#utility.yul\":6274:6287   */\n      mload\n        /* \"#utility.yul\":6308:6428   */\n      tag_255\n        /* \"#utility.yul\":6423:6427   */\n      dup6\n        /* \"#utility.yul\":6408:6421   */\n      dup3\n        /* \"#utility.yul\":6308:6428   */\n      tag_163\n      jump\t// in\n    tag_255:\n        /* \"#utility.yul\":6300:6428   */\n      swap5\n      pop\n        /* \"#utility.yul\":6451:6539   */\n      tag_256\n        /* \"#utility.yul\":6532:6538   */\n      dup4\n        /* \"#utility.yul\":6451:6539   */\n      tag_164\n      jump\t// in\n    tag_256:\n        /* \"#utility.yul\":6441:6539   */\n      swap3\n      pop\n        /* \"#utility.yul\":6568:6572   */\n      0x20\n        /* \"#utility.yul\":6563:6566   */\n      dup11\n        /* \"#utility.yul\":6559:6573   */\n      add\n        /* \"#utility.yul\":6552:6573   */\n      swap10\n      pop\n        /* \"#utility.yul\":6193:6583   */\n      pop\n        /* \"#utility.yul\":6180:6181   */\n      0x01\n        /* \"#utility.yul\":6177:6178   */\n      dup2\n        /* \"#utility.yul\":6173:6182   */\n      add\n        /* \"#utility.yul\":6168:6182   */\n      swap1\n      pop\n        /* \"#utility.yul\":6133:6583   */\n      jump(tag_252)\n    tag_254:\n        /* \"#utility.yul\":6137:6151   */\n      pop\n        /* \"#utility.yul\":6599:6603   */\n      dup3\n        /* \"#utility.yul\":6592:6603   */\n      swap8\n      pop\n        /* \"#utility.yul\":6619:6622   */\n      dup8\n        /* \"#utility.yul\":6612:6622   */\n      swap6\n      pop\n        /* \"#utility.yul\":5673:6628   */\n      pop\n      pop\n      pop\n      pop\n      pop\n        /* \"#utility.yul\":5493:6628   */\n      swap3\n      swap2\n      pop\n      pop\n      jump\t// out\n        /* \"#utility.yul\":6634:7119   */\n    tag_13:\n        /* \"#utility.yul\":6833:6837   */\n      0x00\n        /* \"#utility.yul\":6871:6873   */\n      0x20\n        /* \"#utility.yul\":6860:6869   */\n      dup3\n        /* \"#utility.yul\":6856:6874   */\n      add\n        /* \"#utility.yul\":6848:6874   */\n      swap1\n      pop\n        /* \"#utility.yul\":6920:6929   */\n      dup2\n        /* \"#utility.yul\":6914:6918   */\n      dup2\n        /* \"#utility.yul\":6910:6930   */\n      sub\n        /* \"#utility.yul\":6906:6907   */\n      0x00\n        /* \"#utility.yul\":6895:6904   */\n      dup4\n        /* \"#utility.yul\":6891:6908   */\n      add\n        /* \"#utility.yul\":6884:6931   */\n      mstore\n        /* \"#utility.yul\":6948:7112   */\n      tag_258\n        /* \"#utility.yul\":7107:7111   */\n      dup2\n        /* \"#utility.yul\":7098:7104   */\n      dup5\n        /* \"#utility.yul\":6948:7112   */\n      tag_165\n      jump\t// in\n    tag_258:\n        /* \"#utility.yul\":6940:7112   */\n      swap1\n      pop\n        /* \"#utility.yul\":6634:7119   */\n      swap3\n      swap2\n      pop\n      pop\n      jump\t// out\n        /* \"#utility.yul\":7125:7247   */\n    tag_166:\n        /* \"#utility.yul\":7198:7222   */\n      tag_260\n        /* \"#utility.yul\":7216:7221   */\n      dup2\n        /* \"#utility.yul\":7198:7222   */\n      tag_154\n      jump\t// in\n    tag_260:\n        /* \"#utility.yul\":7191:7196   */\n      dup2\n        /* \"#utility.yul\":7188:7223   */\n      eq\n        /* \"#utility.yul\":7178:7241   */\n      tag_261\n      jumpi\n        /* \"#utility.yul\":7237:7238   */\n      0x00\n        /* \"#utility.yul\":7234:7235   */\n      dup1\n        /* \"#utility.yul\":7227:7239   */\n      revert\n        /* \"#utility.yul\":7178:7241   */\n    tag_261:\n        /* \"#utility.yul\":7125:7247   */\n      pop\n      jump\t// out\n        /* \"#utility.yul\":7253:7392   */\n    tag_167:\n        /* \"#utility.yul\":7299:7304   */\n      0x00\n        /* \"#utility.yul\":7337:7343   */\n      dup2\n        /* \"#utility.yul\":7324:7344   */\n      calldataload\n        /* \"#utility.yul\":7315:7344   */\n      swap1\n      pop\n        /* \"#utility.yul\":7353:7386   */\n      tag_263\n        /* \"#utility.yul\":7380:7385   */\n      dup2\n        /* \"#utility.yul\":7353:7386   */\n      tag_166\n      jump\t// in\n    tag_263:\n        /* \"#utility.yul\":7253:7392   */\n      swap3\n      swap2\n      pop\n      pop\n      jump\t// out\n        /* \"#utility.yul\":7398:7727   */\n    tag_16:\n        /* \"#utility.yul\":7457:7463   */\n      0x00\n        /* \"#utility.yul\":7506:7508   */\n      0x20\n        /* \"#utility.yul\":7494:7503   */\n      dup3\n        /* \"#utility.yul\":7485:7492   */\n      dup5\n        /* \"#utility.yul\":7481:7504   */\n      sub\n        /* \"#utility.yul\":7477:7509   */\n      slt\n        /* \"#utility.yul\":7474:7593   */\n      iszero\n      tag_265\n      jumpi\n        /* \"#utility.yul\":7512:7591   */\n      tag_266\n      tag_145\n      jump\t// in\n    tag_266:\n        /* \"#utility.yul\":7474:7593   */\n    tag_265:\n        /* \"#utility.yul\":7632:7633   */\n      0x00\n        /* \"#utility.yul\":7657:7710   */\n      tag_267\n        /* \"#utility.yul\":7702:7709   */\n      dup5\n        /* \"#utility.yul\":7693:7699   */\n      dup3\n        /* \"#utility.yul\":7682:7691   */\n      dup6\n        /* \"#utility.yul\":7678:7700   */\n      add\n        /* \"#utility.yul\":7657:7710   */\n      tag_167\n      jump\t// in\n    tag_267:\n        /* \"#utility.yul\":7647:7710   */\n      swap2\n      pop\n        /* \"#utility.yul\":7603:7720   */\n      pop\n        /* \"#utility.yul\":7398:7727   */\n      swap3\n      swap2\n      pop\n      pop\n      jump\t// out\n        /* \"#utility.yul\":7733:7851   */\n    tag_168:\n        /* \"#utility.yul\":7820:7844   */\n      tag_269\n        /* \"#utility.yul\":7838:7843   */\n      dup2\n        /* \"#utility.yul\":7820:7844   */\n      tag_154\n      jump\t// in\n    tag_269:\n        /* \"#utility.yul\":7815:7818   */\n      dup3\n        /* \"#utility.yul\":7808:7845   */\n      mstore\n        /* \"#utility.yul\":7733:7851   */\n      pop\n      pop\n      jump\t// out\n        /* \"#utility.yul\":7857:8026   */\n    tag_169:\n        /* \"#utility.yul\":7941:7952   */\n      0x00\n        /* \"#utility.yul\":7975:7981   */\n      dup3\n        /* \"#utility.yul\":7970:7973   */\n      dup3\n        /* \"#utility.yul\":7963:7982   */\n      mstore\n        /* \"#utility.yul\":8015:8019   */\n      0x20\n        /* \"#utility.yul\":8010:8013   */\n      dup3\n        /* \"#utility.yul\":8006:8020   */\n      add\n        /* \"#utility.yul\":7991:8020   */\n      swap1\n      pop\n        /* \"#utility.yul\":7857:8026   */\n      swap3\n      swap2\n      pop\n      pop\n      jump\t// out\n        /* \"#utility.yul\":8032:8396   */\n    tag_170:\n        /* \"#utility.yul\":8120:8123   */\n      0x00\n        /* \"#utility.yul\":8148:8187   */\n      tag_272\n        /* \"#utility.yul\":8181:8186   */\n      dup3\n        /* \"#utility.yul\":8148:8187   */\n      tag_156\n      jump\t// in\n    tag_272:\n        /* \"#utility.yul\":8203:8274   */\n      tag_273\n        /* \"#utility.yul\":8267:8273   */\n      dup2\n        /* \"#utility.yul\":8262:8265   */\n      dup6\n        /* \"#utility.yul\":8203:8274   */\n      tag_169\n      jump\t// in\n    tag_273:\n        /* \"#utility.yul\":8196:8274   */\n      swap4\n      pop\n        /* \"#utility.yul\":8283:8335   */\n      tag_274\n        /* \"#utility.yul\":8328:8334   */\n      dup2\n        /* \"#utility.yul\":8323:8326   */\n      dup6\n        /* \"#utility.yul\":8316:8320   */\n      0x20\n        /* \"#utility.yul\":8309:8314   */\n      dup7\n        /* \"#utility.yul\":8305:8321   */\n      add\n        /* \"#utility.yul\":8283:8335   */\n      tag_158\n      jump\t// in\n    tag_274:\n        /* \"#utility.yul\":8360:8389   */\n      tag_275\n        /* \"#utility.yul\":8382:8388   */\n      dup2\n        /* \"#utility.yul\":8360:8389   */\n      tag_159\n      jump\t// in\n    tag_275:\n        /* \"#utility.yul\":8355:8358   */\n      dup5\n        /* \"#utility.yul\":8351:8390   */\n      add\n        /* \"#utility.yul\":8344:8390   */\n      swap2\n      pop\n        /* \"#utility.yul\":8124:8396   */\n      pop\n        /* \"#utility.yul\":8032:8396   */\n      swap3\n      swap2\n      pop\n      pop\n      jump\t// out\n        /* \"#utility.yul\":8402:8520   */\n    tag_171:\n        /* \"#utility.yul\":8489:8513   */\n      tag_277\n        /* \"#utility.yul\":8507:8512   */\n      dup2\n        /* \"#utility.yul\":8489:8513   */\n      tag_148\n      jump\t// in\n    tag_277:\n        /* \"#utility.yul\":8484:8487   */\n      dup3\n        /* \"#utility.yul\":8477:8514   */\n      mstore\n        /* \"#utility.yul\":8402:8520   */\n      pop\n      pop\n      jump\t// out\n        /* \"#utility.yul\":8526:9796   */\n    tag_19:\n        /* \"#utility.yul\":8875:8879   */\n      0x00\n        /* \"#utility.yul\":8913:8916   */\n      0x0100\n        /* \"#utility.yul\":8902:8911   */\n      dup3\n        /* \"#utility.yul\":8898:8917   */\n      add\n        /* \"#utility.yul\":8890:8917   */\n      swap1\n      pop\n        /* \"#utility.yul\":8927:8998   */\n      tag_279\n        /* \"#utility.yul\":8995:8996   */\n      0x00\n        /* \"#utility.yul\":8984:8993   */\n      dup4\n        /* \"#utility.yul\":8980:8997   */\n      add\n        /* \"#utility.yul\":8971:8977   */\n      dup12\n        /* \"#utility.yul\":8927:8998   */\n      tag_168\n      jump\t// in\n    tag_279:\n        /* \"#utility.yul\":9045:9054   */\n      dup2\n        /* \"#utility.yul\":9039:9043   */\n      dup2\n        /* \"#utility.yul\":9035:9055   */\n      sub\n        /* \"#utility.yul\":9030:9032   */\n      0x20\n        /* \"#utility.yul\":9019:9028   */\n      dup4\n        /* \"#utility.yul\":9015:9033   */\n      add\n        /* \"#utility.yul\":9008:9056   */\n      mstore\n        /* \"#utility.yul\":9073:9151   */\n      tag_280\n        /* \"#utility.yul\":9146:9150   */\n      dup2\n        /* \"#utility.yul\":9137:9143   */\n      dup11\n        /* \"#utility.yul\":9073:9151   */\n      tag_170\n      jump\t// in\n    tag_280:\n        /* \"#utility.yul\":9065:9151   */\n      swap1\n      pop\n        /* \"#utility.yul\":9161:9233   */\n      tag_281\n        /* \"#utility.yul\":9229:9231   */\n      0x40\n        /* \"#utility.yul\":9218:9227   */\n      dup4\n        /* \"#utility.yul\":9214:9232   */\n      add\n        /* \"#utility.yul\":9205:9211   */\n      dup10\n        /* \"#utility.yul\":9161:9233   */\n      tag_168\n      jump\t// in\n    tag_281:\n        /* \"#utility.yul\":9243:9315   */\n      tag_282\n        /* \"#utility.yul\":9311:9313   */\n      0x60\n        /* \"#utility.yul\":9300:9309   */\n      dup4\n        /* \"#utility.yul\":9296:9314   */\n      add\n        /* \"#utility.yul\":9287:9293   */\n      dup9\n        /* \"#utility.yul\":9243:9315   */\n      tag_171\n      jump\t// in\n    tag_282:\n        /* \"#utility.yul\":9325:9398   */\n      tag_283\n        /* \"#utility.yul\":9393:9396   */\n      0x80\n        /* \"#utility.yul\":9382:9391   */\n      dup4\n        /* \"#utility.yul\":9378:9397   */\n      add\n        /* \"#utility.yul\":9369:9375   */\n      dup8\n        /* \"#utility.yul\":9325:9398   */\n      tag_171\n      jump\t// in\n    tag_283:\n        /* \"#utility.yul\":9408:9481   */\n      tag_284\n        /* \"#utility.yul\":9476:9479   */\n      0xa0\n        /* \"#utility.yul\":9465:9474   */\n      dup4\n        /* \"#utility.yul\":9461:9480   */\n      add\n        /* \"#utility.yul\":9452:9458   */\n      dup7\n        /* \"#utility.yul\":9408:9481   */\n      tag_168\n      jump\t// in\n    tag_284:\n        /* \"#utility.yul\":9529:9538   */\n      dup2\n        /* \"#utility.yul\":9523:9527   */\n      dup2\n        /* \"#utility.yul\":9519:9539   */\n      sub\n        /* \"#utility.yul\":9513:9516   */\n      0xc0\n        /* \"#utility.yul\":9502:9511   */\n      dup4\n        /* \"#utility.yul\":9498:9517   */\n      add\n        /* \"#utility.yul\":9491:9540   */\n      mstore\n        /* \"#utility.yul\":9557:9635   */\n      tag_285\n        /* \"#utility.yul\":9630:9634   */\n      dup2\n        /* \"#utility.yul\":9621:9627   */\n      dup6\n        /* \"#utility.yul\":9557:9635   */\n      tag_170\n      jump\t// in\n    tag_285:\n        /* \"#utility.yul\":9549:9635   */\n      swap1\n      pop\n        /* \"#utility.yul\":9683:9692   */\n      dup2\n        /* \"#utility.yul\":9677:9681   */\n      dup2\n        /* \"#utility.yul\":9673:9693   */\n      sub\n        /* \"#utility.yul\":9667:9670   */\n      0xe0\n        /* \"#utility.yul\":9656:9665   */\n      dup4\n        /* \"#utility.yul\":9652:9671   */\n      add\n        /* \"#utility.yul\":9645:9694   */\n      mstore\n        /* \"#utility.yul\":9711:9789   */\n      tag_286\n        /* \"#utility.yul\":9784:9788   */\n      dup2\n        /* \"#utility.yul\":9775:9781   */\n      dup5\n        /* \"#utility.yul\":9711:9789   */\n      tag_170\n      jump\t// in\n    tag_286:\n        /* \"#utility.yul\":9703:9789   */\n      swap1\n      pop\n        /* \"#utility.yul\":8526:9796   */\n      swap10\n      swap9\n      pop\n      pop\n      pop\n      pop\n      pop\n      pop\n      pop\n      pop\n      pop\n      jump\t// out\n        /* \"#utility.yul\":9802:10276   */\n    tag_22:\n        /* \"#utility.yul\":9870:9876   */\n      0x00\n        /* \"#utility.yul\":9878:9884   */\n      dup1\n        /* \"#utility.yul\":9927:9929   */\n      0x40\n        /* \"#utility.yul\":9915:9924   */\n      dup4\n        /* \"#utility.yul\":9906:9913   */\n      dup6\n        /* \"#utility.yul\":9902:9925   */\n      sub\n        /* \"#utility.yul\":9898:9930   */\n      slt\n        /* \"#utility.yul\":9895:10014   */\n      iszero\n      tag_288\n      jumpi\n        /* \"#utility.yul\":9933:10012   */\n      tag_289\n      tag_145\n      jump\t// in\n    tag_289:\n        /* \"#utility.yul\":9895:10014   */\n    tag_288:\n        /* \"#utility.yul\":10053:10054   */\n      0x00\n        /* \"#utility.yul\":10078:10131   */\n      tag_290\n        /* \"#utility.yul\":10123:10130   */\n      dup6\n        /* \"#utility.yul\":10114:10120   */\n      dup3\n        /* \"#utility.yul\":10103:10112   */\n      dup7\n        /* \"#utility.yul\":10099:10121   */\n      add\n        /* \"#utility.yul\":10078:10131   */\n      tag_167\n      jump\t// in\n    tag_290:\n        /* \"#utility.yul\":10068:10131   */\n      swap3\n      pop\n        /* \"#utility.yul\":10024:10141   */\n      pop\n        /* \"#utility.yul\":10180:10182   */\n      0x20\n        /* \"#utility.yul\":10206:10259   */\n      tag_291\n        /* \"#utility.yul\":10251:10258   */\n      dup6\n        /* \"#utility.yul\":10242:10248   */\n      dup3\n        /* \"#utility.yul\":10231:10240   */\n      dup7\n        /* \"#utility.yul\":10227:10249   */\n      add\n        /* \"#utility.yul\":10206:10259   */\n      tag_167\n      jump\t// in\n    tag_291:\n        /* \"#utility.yul\":10196:10259   */\n      swap2\n      pop\n        /* \"#utility.yul\":10151:10269   */\n      pop\n        /* \"#utility.yul\":9802:10276   */\n      swap3\n      pop\n      swap3\n      swap1\n      pop\n      jump\t// out\n        /* \"#utility.yul\":10282:10399   */\n    tag_172:\n        /* \"#utility.yul\":10391:10392   */\n      0x00\n        /* \"#utility.yul\":10388:10389   */\n      dup1\n        /* \"#utility.yul\":10381:10393   */\n      revert\n        /* \"#utility.yul\":10405:10522   */\n    tag_173:\n        /* \"#utility.yul\":10514:10515   */\n      0x00\n        /* \"#utility.yul\":10511:10512   */\n      dup1\n        /* \"#utility.yul\":10504:10516   */\n      revert\n        /* \"#utility.yul\":10528:10708   */\n    tag_174:\n        /* \"#utility.yul\":10576:10653   */\n      0x4e487b7100000000000000000000000000000000000000000000000000000000\n        /* \"#utility.yul\":10573:10574   */\n      0x00\n        /* \"#utility.yul\":10566:10654   */\n      mstore\n        /* \"#utility.yul\":10673:10677   */\n      0x41\n        /* \"#utility.yul\":10670:10671   */\n      0x04\n        /* \"#utility.yul\":10663:10678   */\n      mstore\n        /* \"#utility.yul\":10697:10701   */\n      0x24\n        /* \"#utility.yul\":10694:10695   */\n      0x00\n        /* \"#utility.yul\":10687:10702   */\n      revert\n        /* \"#utility.yul\":10714:10995   */\n    tag_175:\n        /* \"#utility.yul\":10797:10824   */\n      tag_296\n        /* \"#utility.yul\":10819:10823   */\n      dup3\n        /* \"#utility.yul\":10797:10824   */\n      tag_159\n      jump\t// in\n    tag_296:\n        /* \"#utility.yul\":10789:10795   */\n      dup2\n        /* \"#utility.yul\":10785:10825   */\n      add\n        /* \"#utility.yul\":10927:10933   */\n      dup2\n        /* \"#utility.yul\":10915:10925   */\n      dup2\n        /* \"#utility.yul\":10912:10934   */\n      lt\n        /* \"#utility.yul\":10891:10909   */\n      0xffffffffffffffff\n        /* \"#utility.yul\":10879:10889   */\n      dup3\n        /* \"#utility.yul\":10876:10910   */\n      gt\n        /* \"#utility.yul\":10873:10935   */\n      or\n        /* \"#utility.yul\":10870:10958   */\n      iszero\n      tag_297\n      jumpi\n        /* \"#utility.yul\":10938:10956   */\n      tag_298\n      tag_174\n      jump\t// in\n    tag_298:\n        /* \"#utility.yul\":10870:10958   */\n    tag_297:\n        /* \"#utility.yul\":10978:10988   */\n      dup1\n        /* \"#utility.yul\":10974:10976   */\n      0x40\n        /* \"#utility.yul\":10967:10989   */\n      mstore\n        /* \"#utility.yul\":10757:10995   */\n      pop\n        /* \"#utility.yul\":10714:10995   */\n      pop\n      pop\n      jump\t// out\n        /* \"#utility.yul\":11001:11130   */\n    tag_176:\n        /* \"#utility.yul\":11035:11041   */\n      0x00\n        /* \"#utility.yul\":11062:11082   */\n      tag_300\n      tag_144\n      jump\t// in\n    tag_300:\n        /* \"#utility.yul\":11052:11082   */\n      swap1\n      pop\n        /* \"#utility.yul\":11091:11124   */\n      tag_301\n        /* \"#utility.yul\":11119:11123   */\n      dup3\n        /* \"#utility.yul\":11111:11117   */\n      dup3\n        /* \"#utility.yul\":11091:11124   */\n      tag_175\n      jump\t// in\n    tag_301:\n        /* \"#utility.yul\":11001:11130   */\n      swap2\n      swap1\n      pop\n      jump\t// out\n        /* \"#utility.yul\":11136:11444   */\n    tag_177:\n        /* \"#utility.yul\":11198:11202   */\n      0x00\n        /* \"#utility.yul\":11288:11306   */\n      0xffffffffffffffff\n        /* \"#utility.yul\":11280:11286   */\n      dup3\n        /* \"#utility.yul\":11277:11307   */\n      gt\n        /* \"#utility.yul\":11274:11330   */\n      iszero\n      tag_303\n      jumpi\n        /* \"#utility.yul\":11310:11328   */\n      tag_304\n      tag_174\n      jump\t// in\n    tag_304:\n        /* \"#utility.yul\":11274:11330   */\n    tag_303:\n        /* \"#utility.yul\":11348:11377   */\n      tag_305\n        /* \"#utility.yul\":11370:11376   */\n      dup3\n        /* \"#utility.yul\":11348:11377   */\n      tag_159\n      jump\t// in\n    tag_305:\n        /* \"#utility.yul\":11340:11377   */\n      swap1\n      pop\n        /* \"#utility.yul\":11432:11436   */\n      0x20\n        /* \"#utility.yul\":11426:11430   */\n      dup2\n        /* \"#utility.yul\":11422:11437   */\n      add\n        /* \"#utility.yul\":11414:11437   */\n      swap1\n      pop\n        /* \"#utility.yul\":11136:11444   */\n      swap2\n      swap1\n      pop\n      jump\t// out\n        /* \"#utility.yul\":11450:11604   */\n    tag_178:\n        /* \"#utility.yul\":11534:11540   */\n      dup3\n        /* \"#utility.yul\":11529:11532   */\n      dup2\n        /* \"#utility.yul\":11524:11527   */\n      dup4\n        /* \"#utility.yul\":11511:11541   */\n      calldatacopy\n        /* \"#utility.yul\":11596:11597   */\n      0x00\n        /* \"#utility.yul\":11587:11593   */\n      dup4\n        /* \"#utility.yul\":11582:11585   */\n      dup4\n        /* \"#utility.yul\":11578:11594   */\n      add\n        /* \"#utility.yul\":11571:11598   */\n      mstore\n        /* \"#utility.yul\":11450:11604   */\n      pop\n      pop\n      pop\n      jump\t// out\n        /* \"#utility.yul\":11610:12022   */\n    tag_179:\n        /* \"#utility.yul\":11688:11693   */\n      0x00\n        /* \"#utility.yul\":11713:11779   */\n      tag_308\n        /* \"#utility.yul\":11729:11778   */\n      tag_309\n        /* \"#utility.yul\":11771:11777   */\n      dup5\n        /* \"#utility.yul\":11729:11778   */\n      tag_177\n      jump\t// in\n    tag_309:\n        /* \"#utility.yul\":11713:11779   */\n      tag_176\n      jump\t// in\n    tag_308:\n        /* \"#utility.yul\":11704:11779   */\n      swap1\n      pop\n        /* \"#utility.yul\":11802:11808   */\n      dup3\n        /* \"#utility.yul\":11795:11800   */\n      dup2\n        /* \"#utility.yul\":11788:11809   */\n      mstore\n        /* \"#utility.yul\":11840:11844   */\n      0x20\n        /* \"#utility.yul\":11833:11838   */\n      dup2\n        /* \"#utility.yul\":11829:11845   */\n      add\n        /* \"#utility.yul\":11878:11881   */\n      dup5\n        /* \"#utility.yul\":11869:11875   */\n      dup5\n        /* \"#utility.yul\":11864:11867   */\n      dup5\n        /* \"#utility.yul\":11860:11876   */\n      add\n        /* \"#utility.yul\":11857:11882   */\n      gt\n        /* \"#utility.yul\":11854:11966   */\n      iszero\n      tag_310\n      jumpi\n        /* \"#utility.yul\":11885:11964   */\n      tag_311\n      tag_173\n      jump\t// in\n    tag_311:\n        /* \"#utility.yul\":11854:11966   */\n    tag_310:\n        /* \"#utility.yul\":11975:12016   */\n      tag_312\n        /* \"#utility.yul\":12009:12015   */\n      dup5\n        /* \"#utility.yul\":12004:12007   */\n      dup3\n        /* \"#utility.yul\":11999:12002   */\n      dup6\n        /* \"#utility.yul\":11975:12016   */\n      tag_178\n      jump\t// in\n    tag_312:\n        /* \"#utility.yul\":11694:12022   */\n      pop\n        /* \"#utility.yul\":11610:12022   */\n      swap4\n      swap3\n      pop\n      pop\n      pop\n      jump\t// out\n        /* \"#utility.yul\":12042:12382   */\n    tag_180:\n        /* \"#utility.yul\":12098:12103   */\n      0x00\n        /* \"#utility.yul\":12147:12150   */\n      dup3\n        /* \"#utility.yul\":12140:12144   */\n      0x1f\n        /* \"#utility.yul\":12132:12138   */\n      dup4\n        /* \"#utility.yul\":12128:12145   */\n      add\n        /* \"#utility.yul\":12124:12151   */\n      slt\n        /* \"#utility.yul\":12114:12236   */\n      tag_314\n      jumpi\n        /* \"#utility.yul\":12155:12234   */\n      tag_315\n      tag_172\n      jump\t// in\n    tag_315:\n        /* \"#utility.yul\":12114:12236   */\n    tag_314:\n        /* \"#utility.yul\":12272:12278   */\n      dup2\n        /* \"#utility.yul\":12259:12279   */\n      calldataload\n        /* \"#utility.yul\":12297:12376   */\n      tag_316\n        /* \"#utility.yul\":12372:12375   */\n      dup5\n        /* \"#utility.yul\":12364:12370   */\n      dup3\n        /* \"#utility.yul\":12357:12361   */\n      0x20\n        /* \"#utility.yul\":12349:12355   */\n      dup7\n        /* \"#utility.yul\":12345:12362   */\n      add\n        /* \"#utility.yul\":12297:12376   */\n      tag_179\n      jump\t// in\n    tag_316:\n        /* \"#utility.yul\":12288:12376   */\n      swap2\n      pop\n        /* \"#utility.yul\":12104:12382   */\n      pop\n        /* \"#utility.yul\":12042:12382   */\n      swap3\n      swap2\n      pop\n      pop\n      jump\t// out\n        /* \"#utility.yul\":12388:13367   */\n    tag_30:\n        /* \"#utility.yul\":12485:12491   */\n      0x00\n        /* \"#utility.yul\":12493:12499   */\n      dup1\n        /* \"#utility.yul\":12501:12507   */\n      0x00\n        /* \"#utility.yul\":12550:12552   */\n      0x60\n        /* \"#utility.yul\":12538:12547   */\n      dup5\n        /* \"#utility.yul\":12529:12536   */\n      dup7\n        /* \"#utility.yul\":12525:12548   */\n      sub\n        /* \"#utility.yul\":12521:12553   */\n      slt\n        /* \"#utility.yul\":12518:12637   */\n      iszero\n      tag_318\n      jumpi\n        /* \"#utility.yul\":12556:12635   */\n      tag_319\n      tag_145\n      jump\t// in\n    tag_319:\n        /* \"#utility.yul\":12518:12637   */\n    tag_318:\n        /* \"#utility.yul\":12704:12705   */\n      0x00\n        /* \"#utility.yul\":12693:12702   */\n      dup5\n        /* \"#utility.yul\":12689:12706   */\n      add\n        /* \"#utility.yul\":12676:12707   */\n      calldataload\n        /* \"#utility.yul\":12734:12752   */\n      0xffffffffffffffff\n        /* \"#utility.yul\":12726:12732   */\n      dup2\n        /* \"#utility.yul\":12723:12753   */\n      gt\n        /* \"#utility.yul\":12720:12837   */\n      iszero\n      tag_320\n      jumpi\n        /* \"#utility.yul\":12756:12835   */\n      tag_321\n      tag_146\n      jump\t// in\n    tag_321:\n        /* \"#utility.yul\":12720:12837   */\n    tag_320:\n        /* \"#utility.yul\":12861:12924   */\n      tag_322\n        /* \"#utility.yul\":12916:12923   */\n      dup7\n        /* \"#utility.yul\":12907:12913   */\n      dup3\n        /* \"#utility.yul\":12896:12905   */\n      dup8\n        /* \"#utility.yul\":12892:12914   */\n      add\n        /* \"#utility.yul\":12861:12924   */\n      tag_180\n      jump\t// in\n    tag_322:\n        /* \"#utility.yul\":12851:12924   */\n      swap4\n      pop\n        /* \"#utility.yul\":12647:12934   */\n      pop\n        /* \"#utility.yul\":12973:12975   */\n      0x20\n        /* \"#utility.yul\":12999:13052   */\n      tag_323\n        /* \"#utility.yul\":13044:13051   */\n      dup7\n        /* \"#utility.yul\":13035:13041   */\n      dup3\n        /* \"#utility.yul\":13024:13033   */\n      dup8\n        /* \"#utility.yul\":13020:13042   */\n      add\n        /* \"#utility.yul\":12999:13052   */\n      tag_150\n      jump\t// in\n    tag_323:\n        /* \"#utility.yul\":12989:13052   */\n      swap3\n      pop\n        /* \"#utility.yul\":12944:13062   */\n      pop\n        /* \"#utility.yul\":13129:13131   */\n      0x40\n        /* \"#utility.yul\":13118:13127   */\n      dup5\n        /* \"#utility.yul\":13114:13132   */\n      add\n        /* \"#utility.yul\":13101:13133   */\n      calldataload\n        /* \"#utility.yul\":13160:13178   */\n      0xffffffffffffffff\n        /* \"#utility.yul\":13152:13158   */\n      dup2\n        /* \"#utility.yul\":13149:13179   */\n      gt\n        /* \"#utility.yul\":13146:13263   */\n      iszero\n      tag_324\n      jumpi\n        /* \"#utility.yul\":13182:13261   */\n      tag_325\n      tag_146\n      jump\t// in\n    tag_325:\n        /* \"#utility.yul\":13146:13263   */\n    tag_324:\n        /* \"#utility.yul\":13287:13350   */\n      tag_326\n        /* \"#utility.yul\":13342:13349   */\n      dup7\n        /* \"#utility.yul\":13333:13339   */\n      dup3\n        /* \"#utility.yul\":13322:13331   */\n      dup8\n        /* \"#utility.yul\":13318:13340   */\n      add\n        /* \"#utility.yul\":13287:13350   */\n      tag_180\n      jump\t// in\n    tag_326:\n        /* \"#utility.yul\":13277:13350   */\n      swap2\n      pop\n        /* \"#utility.yul\":13072:13360   */\n      pop\n        /* \"#utility.yul\":12388:13367   */\n      swap3\n      pop\n      swap3\n      pop\n      swap3\n      jump\t// out\n        /* \"#utility.yul\":13373:13553   */\n    tag_181:\n        /* \"#utility.yul\":13421:13498   */\n      0x4e487b7100000000000000000000000000000000000000000000000000000000\n        /* \"#utility.yul\":13418:13419   */\n      0x00\n        /* \"#utility.yul\":13411:13499   */\n      mstore\n        /* \"#utility.yul\":13518:13522   */\n      0x22\n        /* \"#utility.yul\":13515:13516   */\n      0x04\n        /* \"#utility.yul\":13508:13523   */\n      mstore\n        /* \"#utility.yul\":13542:13546   */\n      0x24\n        /* \"#utility.yul\":13539:13540   */\n      0x00\n        /* \"#utility.yul\":13532:13547   */\n      revert\n        /* \"#utility.yul\":13559:13879   */\n    tag_37:\n        /* \"#utility.yul\":13603:13609   */\n      0x00\n        /* \"#utility.yul\":13640:13641   */\n      0x02\n        /* \"#utility.yul\":13634:13638   */\n      dup3\n        /* \"#utility.yul\":13630:13642   */\n      div\n        /* \"#utility.yul\":13620:13642   */\n      swap1\n      pop\n        /* \"#utility.yul\":13687:13688   */\n      0x01\n        /* \"#utility.yul\":13681:13685   */\n      dup3\n        /* \"#utility.yul\":13677:13689   */\n      and\n        /* \"#utility.yul\":13708:13726   */\n      dup1\n        /* \"#utility.yul\":13698:13779   */\n      tag_329\n      jumpi\n        /* \"#utility.yul\":13764:13768   */\n      0x7f\n        /* \"#utility.yul\":13756:13762   */\n      dup3\n        /* \"#utility.yul\":13752:13769   */\n      and\n        /* \"#utility.yul\":13742:13769   */\n      swap2\n      pop\n        /* \"#utility.yul\":13698:13779   */\n    tag_329:\n        /* \"#utility.yul\":13826:13828   */\n      0x20\n        /* \"#utility.yul\":13818:13824   */\n      dup3\n        /* \"#utility.yul\":13815:13829   */\n      lt\n        /* \"#utility.yul\":13795:13813   */\n      dup2\n        /* \"#utility.yul\":13792:13830   */\n      sub\n        /* \"#utility.yul\":13789:13873   */\n      tag_330\n      jumpi\n        /* \"#utility.yul\":13845:13863   */\n      tag_331\n      tag_181\n      jump\t// in\n    tag_331:\n        /* \"#utility.yul\":13789:13873   */\n    tag_330:\n        /* \"#utility.yul\":13610:13879   */\n      pop\n        /* \"#utility.yul\":13559:13879   */\n      swap2\n      swap1\n      pop\n      jump\t// out\n        /* \"#utility.yul\":13885:14065   */\n    tag_72:\n        /* \"#utility.yul\":13933:14010   */\n      0x4e487b7100000000000000000000000000000000000000000000000000000000\n        /* \"#utility.yul\":13930:13931   */\n      0x00\n        /* \"#utility.yul\":13923:14011   */\n      mstore\n        /* \"#utility.yul\":14030:14034   */\n      0x32\n        /* \"#utility.yul\":14027:14028   */\n      0x04\n        /* \"#utility.yul\":14020:14035   */\n      mstore\n        /* \"#utility.yul\":14054:14058   */\n      0x24\n        /* \"#utility.yul\":14051:14052   */\n      0x00\n        /* \"#utility.yul\":14044:14059   */\n      revert\n        /* \"#utility.yul\":14071:14251   */\n    tag_182:\n        /* \"#utility.yul\":14119:14196   */\n      0x4e487b7100000000000000000000000000000000000000000000000000000000\n        /* \"#utility.yul\":14116:14117   */\n      0x00\n        /* \"#utility.yul\":14109:14197   */\n      mstore\n        /* \"#utility.yul\":14216:14220   */\n      0x11\n        /* \"#utility.yul\":14213:14214   */\n      0x04\n        /* \"#utility.yul\":14206:14221   */\n      mstore\n        /* \"#utility.yul\":14240:14244   */\n      0x24\n        /* \"#utility.yul\":14237:14238   */\n      0x00\n        /* \"#utility.yul\":14230:14245   */\n      revert\n        /* \"#utility.yul\":14257:14490   */\n    tag_82:\n        /* \"#utility.yul\":14296:14299   */\n      0x00\n        /* \"#utility.yul\":14319:14343   */\n      tag_335\n        /* \"#utility.yul\":14337:14342   */\n      dup3\n        /* \"#utility.yul\":14319:14343   */\n      tag_154\n      jump\t// in\n    tag_335:\n        /* \"#utility.yul\":14310:14343   */\n      swap2\n      pop\n        /* \"#utility.yul\":14365:14431   */\n      0xffffffffffffffffffffffffffffffffffffffffffffffffffffffffffffffff\n        /* \"#utility.yul\":14358:14363   */\n      dup3\n        /* \"#utility.yul\":14355:14432   */\n      sub\n        /* \"#utility.yul\":14352:14455   */\n      tag_336\n      jumpi\n        /* \"#utility.yul\":14435:14453   */\n      tag_337\n      tag_182\n      jump\t// in\n    tag_337:\n        /* \"#utility.yul\":14352:14455   */\n    tag_336:\n        /* \"#utility.yul\":14482:14483   */\n      0x01\n        /* \"#utility.yul\":14475:14480   */\n      dup3\n        /* \"#utility.yul\":14471:14484   */\n      add\n        /* \"#utility.yul\":14464:14484   */\n      swap1\n      pop\n        /* \"#utility.yul\":14257:14490   */\n      swap2\n      swap1\n      pop\n      jump\t// out\n        /* \"#utility.yul\":14496:14645   */\n    tag_183:\n        /* \"#utility.yul\":14545:14551   */\n      0x00\n        /* \"#utility.yul\":14579:14584   */\n      dup2\n        /* \"#utility.yul\":14573:14585   */\n      sload\n        /* \"#utility.yul\":14563:14585   */\n      swap1\n      pop\n        /* \"#utility.yul\":14605:14638   */\n      tag_339\n        /* \"#utility.yul\":14631:14637   */\n      dup2\n        /* \"#utility.yul\":14605:14638   */\n      tag_37\n      jump\t// in\n    tag_339:\n        /* \"#utility.yul\":14595:14638   */\n      swap1\n      pop\n        /* \"#utility.yul\":14496:14645   */\n      swap2\n      swap1\n      pop\n      jump\t// out\n        /* \"#utility.yul\":14651:14792   */\n    tag_184:\n        /* \"#utility.yul\":14700:14704   */\n      0x00\n        /* \"#utility.yul\":14723:14726   */\n      dup2\n        /* \"#utility.yul\":14715:14726   */\n      swap1\n      pop\n        /* \"#utility.yul\":14746:14749   */\n      dup2\n        /* \"#utility.yul\":14743:14744   */\n      0x00\n        /* \"#utility.yul\":14736:14750   */\n      mstore\n        /* \"#utility.yul\":14780:14784   */\n      0x20\n        /* \"#utility.yul\":14777:14778   */\n      0x00\n        /* \"#utility.yul\":14767:14785   */\n      keccak256\n        /* \"#utility.yul\":14759:14785   */\n      swap1\n      pop\n        /* \"#utility.yul\":14651:14792   */\n      swap2\n      swap1\n      pop\n      jump\t// out\n        /* \"#utility.yul\":14798:14891   */\n    tag_185:\n        /* \"#utility.yul\":14835:14841   */\n      0x00\n        /* \"#utility.yul\":14882:14884   */\n      0x20\n        /* \"#utility.yul\":14877:14879   */\n      0x1f\n        /* \"#utility.yul\":14870:14875   */\n      dup4\n        /* \"#utility.yul\":14866:14880   */\n      add\n        /* \"#utility.yul\":14862:14885   */\n      div\n        /* \"#utility.yul\":14852:14885   */\n      swap1\n      pop\n        /* \"#utility.yul\":14798:14891   */\n      swap2\n      swap1\n      pop\n      jump\t// out\n        /* \"#utility.yul\":14897:15004   */\n    tag_186:\n        /* \"#utility.yul\":14941:14949   */\n      0x00\n        /* \"#utility.yul\":14991:14996   */\n      dup3\n        /* \"#utility.yul\":14985:14989   */\n      dup3\n        /* \"#utility.yul\":14981:14997   */\n      shl\n        /* \"#utility.yul\":14960:14997   */\n      swap1\n      pop\n        /* \"#utility.yul\":14897:15004   */\n      swap3\n      swap2\n      pop\n      pop\n      jump\t// out\n        /* \"#utility.yul\":15010:15403   */\n    tag_187:\n        /* \"#utility.yul\":15079:15085   */\n      0x00\n        /* \"#utility.yul\":15129:15130   */\n      0x08\n        /* \"#utility.yul\":15117:15127   */\n      dup4\n        /* \"#utility.yul\":15113:15131   */\n      mul\n        /* \"#utility.yul\":15152:15249   */\n      tag_344\n        /* \"#utility.yul\":15182:15248   */\n      0xffffffffffffffffffffffffffffffffffffffffffffffffffffffffffffffff\n        /* \"#utility.yul\":15171:15180   */\n      dup3\n        /* \"#utility.yul\":15152:15249   */\n      tag_186\n      jump\t// in\n    tag_344:\n        /* \"#utility.yul\":15270:15309   */\n      tag_345\n        /* \"#utility.yul\":15300:15308   */\n      dup7\n        /* \"#utility.yul\":15289:15298   */\n      dup4\n        /* \"#utility.yul\":15270:15309   */\n      tag_186\n      jump\t// in\n    tag_345:\n        /* \"#utility.yul\":15258:15309   */\n      swap6\n      pop\n        /* \"#utility.yul\":15342:15346   */\n      dup1\n        /* \"#utility.yul\":15338:15347   */\n      not\n        /* \"#utility.yul\":15331:15336   */\n      dup5\n        /* \"#utility.yul\":15327:15348   */\n      and\n        /* \"#utility.yul\":15318:15348   */\n      swap4\n      pop\n        /* \"#utility.yul\":15391:15395   */\n      dup1\n        /* \"#utility.yul\":15381:15389   */\n      dup7\n        /* \"#utility.yul\":15377:15396   */\n      and\n        /* \"#utility.yul\":15370:15375   */\n      dup5\n        /* \"#utility.yul\":15367:15397   */\n      or\n        /* \"#utility.yul\":15357:15397   */\n      swap3\n      pop\n        /* \"#utility.yul\":15086:15403   */\n      pop\n      pop\n        /* \"#utility.yul\":15010:15403   */\n      swap4\n      swap3\n      pop\n      pop\n      pop\n      jump\t// out\n        /* \"#utility.yul\":15409:15469   */\n    tag_188:\n        /* \"#utility.yul\":15437:15440   */\n      0x00\n        /* \"#utility.yul\":15458:15463   */\n      dup2\n        /* \"#utility.yul\":15451:15463   */\n      swap1\n      pop\n        /* \"#utility.yul\":15409:15469   */\n      swap2\n      swap1\n      pop\n      jump\t// out\n        /* \"#utility.yul\":15475:15617   */\n    tag_189:\n        /* \"#utility.yul\":15525:15534   */\n      0x00\n        /* \"#utility.yul\":15558:15611   */\n      tag_348\n        /* \"#utility.yul\":15576:15610   */\n      tag_349\n        /* \"#utility.yul\":15585:15609   */\n      tag_350\n        /* \"#utility.yul\":15603:15608   */\n      dup5\n        /* \"#utility.yul\":15585:15609   */\n      tag_154\n      jump\t// in\n    tag_350:\n        /* \"#utility.yul\":15576:15610   */\n      tag_188\n      jump\t// in\n    tag_349:\n        /* \"#utility.yul\":15558:15611   */\n      tag_154\n      jump\t// in\n    tag_348:\n        /* \"#utility.yul\":15545:15611   */\n      swap1\n      pop\n        /* \"#utility.yul\":15475:15617   */\n      swap2\n      swap1\n      pop\n      jump\t// out\n        /* \"#utility.yul\":15623:15698   */\n    tag_190:\n        /* \"#utility.yul\":15666:15669   */\n      0x00\n        /* \"#utility.yul\":15687:15692   */\n      dup2\n        /* \"#utility.yul\":15680:15692   */\n      swap1\n      pop\n        /* \"#utility.yul\":15623:15698   */\n      swap2\n      swap1\n      pop\n      jump\t// out\n        /* \"#utility.yul\":15704:15973   */\n    tag_191:\n        /* \"#utility.yul\":15814:15853   */\n      tag_353\n        /* \"#utility.yul\":15845:15852   */\n      dup4\n        /* \"#utility.yul\":15814:15853   */\n      tag_189\n      jump\t// in\n    tag_353:\n        /* \"#utility.yul\":15875:15966   */\n      tag_354\n        /* \"#utility.yul\":15924:15965   */\n      tag_355\n        /* \"#utility.yul\":15948:15964   */\n      dup3\n        /* \"#utility.yul\":15924:15965   */\n      tag_190\n      jump\t// in\n    tag_355:\n        /* \"#utility.yul\":15916:15922   */\n      dup5\n        /* \"#utility.yul\":15909:15913   */\n      dup5\n        /* \"#utility.yul\":15903:15914   */\n      sload\n        /* \"#utility.yul\":15875:15966   */\n      tag_187\n      jump\t// in\n    tag_354:\n        /* \"#utility.yul\":15869:15873   */\n      dup3\n        /* \"#utility.yul\":15862:15967   */\n      sstore\n        /* \"#utility.yul\":15780:15973   */\n      pop\n        /* \"#utility.yul\":15704:15973   */\n      pop\n      pop\n      pop\n      jump\t// out\n        /* \"#utility.yul\":15979:16052   */\n    tag_192:\n        /* \"#utility.yul\":16024:16027   */\n      0x00\n        /* \"#utility.yul\":15979:16052   */\n      swap1\n      jump\t// out\n        /* \"#utility.yul\":16058:16247   */\n    tag_193:\n        /* \"#utility.yul\":16135:16167   */\n      tag_358\n      tag_192\n      jump\t// in\n    tag_358:\n        /* \"#utility.yul\":16176:16241   */\n      tag_359\n        /* \"#utility.yul\":16234:16240   */\n      dup2\n        /* \"#utility.yul\":16226:16232   */\n      dup5\n        /* \"#utility.yul\":16220:16224   */\n      dup5\n        /* \"#utility.yul\":16176:16241   */\n      tag_191\n      jump\t// in\n    tag_359:\n        /* \"#utility.yul\":16111:16247   */\n      pop\n        /* \"#utility.yul\":16058:16247   */\n      pop\n      pop\n      jump\t// out\n        /* \"#utility.yul\":16253:16439   */\n    tag_194:\n        /* \"#utility.yul\":16313:16433   */\n    tag_361:\n        /* \"#utility.yul\":16330:16333   */\n      dup2\n        /* \"#utility.yul\":16323:16328   */\n      dup2\n        /* \"#utility.yul\":16320:16334   */\n      lt\n        /* \"#utility.yul\":16313:16433   */\n      iszero\n      tag_363\n      jumpi\n        /* \"#utility.yul\":16384:16423   */\n      tag_364\n        /* \"#utility.yul\":16421:16422   */\n      0x00\n        /* \"#utility.yul\":16414:16419   */\n      dup3\n        /* \"#utility.yul\":16384:16423   */\n      tag_193\n      jump\t// in\n    tag_364:\n        /* \"#utility.yul\":16357:16358   */\n      0x01\n        /* \"#utility.yul\":16350:16355   */\n      dup2\n        /* \"#utility.yul\":16346:16359   */\n      add\n        /* \"#utility.yul\":16337:16359   */\n      swap1\n      pop\n        /* \"#utility.yul\":16313:16433   */\n      jump(tag_361)\n    tag_363:\n        /* \"#utility.yul\":16253:16439   */\n      pop\n      pop\n      jump\t// out\n        /* \"#utility.yul\":16445:16988   */\n    tag_195:\n        /* \"#utility.yul\":16546:16548   */\n      0x1f\n        /* \"#utility.yul\":16541:16544   */\n      dup3\n        /* \"#utility.yul\":16538:16549   */\n      gt\n        /* \"#utility.yul\":16535:16981   */\n      iszero\n      tag_366\n      jumpi\n        /* \"#utility.yul\":16580:16618   */\n      tag_367\n        /* \"#utility.yul\":16612:16617   */\n      dup2\n        /* \"#utility.yul\":16580:16618   */\n      tag_184\n      jump\t// in\n    tag_367:\n        /* \"#utility.yul\":16664:16693   */\n      tag_368\n        /* \"#utility.yul\":16682:16692   */\n      dup5\n        /* \"#utility.yul\":16664:16693   */\n      tag_185\n      jump\t// in\n    tag_368:\n        /* \"#utility.yul\":16654:16662   */\n      dup2\n        /* \"#utility.yul\":16650:16694   */\n      add\n        /* \"#utility.yul\":16847:16849   */\n      0x20\n        /* \"#utility.yul\":16835:16845   */\n      dup6\n        /* \"#utility.yul\":16832:16850   */\n      lt\n        /* \"#utility.yul\":16829:16878   */\n      iszero\n      tag_369\n      jumpi\n        /* \"#utility.yul\":16868:16876   */\n      dup2\n        /* \"#utility.yul\":16853:16876   */\n      swap1\n      pop\n        /* \"#utility.yul\":16829:16878   */\n    tag_369:\n        /* \"#utility.yul\":16891:16971   */\n      tag_370\n        /* \"#utility.yul\":16947:16969   */\n      tag_371\n        /* \"#utility.yul\":16965:16968   */\n      dup6\n        /* \"#utility.yul\":16947:16969   */\n      tag_185\n      jump\t// in\n    tag_371:\n        /* \"#utility.yul\":16937:16945   */\n      dup4\n        /* \"#utility.yul\":16933:16970   */\n      add\n        /* \"#utility.yul\":16920:16931   */\n      dup3\n        /* \"#utility.yul\":16891:16971   */\n      tag_194\n      jump\t// in\n    tag_370:\n        /* \"#utility.yul\":16550:16981   */\n      pop\n      pop\n        /* \"#utility.yul\":16535:16981   */\n    tag_366:\n        /* \"#utility.yul\":16445:16988   */\n      pop\n      pop\n      pop\n      jump\t// out\n        /* \"#utility.yul\":16994:17111   */\n    tag_196:\n        /* \"#utility.yul\":17048:17056   */\n      0x00\n        /* \"#utility.yul\":17098:17103   */\n      dup3\n        /* \"#utility.yul\":17092:17096   */\n      dup3\n        /* \"#utility.yul\":17088:17104   */\n      shr\n        /* \"#utility.yul\":17067:17104   */\n      swap1\n      pop\n        /* \"#utility.yul\":16994:17111   */\n      swap3\n      swap2\n      pop\n      pop\n      jump\t// out\n        /* \"#utility.yul\":17117:17286   */\n    tag_197:\n        /* \"#utility.yul\":17161:17167   */\n      0x00\n        /* \"#utility.yul\":17194:17245   */\n      tag_374\n        /* \"#utility.yul\":17242:17243   */\n      0x00\n        /* \"#utility.yul\":17238:17244   */\n      not\n        /* \"#utility.yul\":17230:17235   */\n      dup5\n        /* \"#utility.yul\":17227:17228   */\n      0x08\n        /* \"#utility.yul\":17223:17236   */\n      mul\n        /* \"#utility.yul\":17194:17245   */\n      tag_196\n      jump\t// in\n    tag_374:\n        /* \"#utility.yul\":17190:17246   */\n      not\n        /* \"#utility.yul\":17275:17279   */\n      dup1\n        /* \"#utility.yul\":17269:17273   */\n      dup4\n        /* \"#utility.yul\":17265:17280   */\n      and\n        /* \"#utility.yul\":17255:17280   */\n      swap2\n      pop\n        /* \"#utility.yul\":17168:17286   */\n      pop\n        /* \"#utility.yul\":17117:17286   */\n      swap3\n      swap2\n      pop\n      pop\n      jump\t// out\n        /* \"#utility.yul\":17291:17586   */\n    tag_198:\n        /* \"#utility.yul\":17367:17371   */\n      0x00\n        /* \"#utility.yul\":17513:17542   */\n      tag_376\n        /* \"#utility.yul\":17538:17541   */\n      dup4\n        /* \"#utility.yul\":17532:17536   */\n      dup4\n        /* \"#utility.yul\":17513:17542   */\n      tag_197\n      jump\t// in\n    tag_376:\n        /* \"#utility.yul\":17505:17542   */\n      swap2\n      pop\n        /* \"#utility.yul\":17575:17578   */\n      dup3\n        /* \"#utility.yul\":17572:17573   */\n      0x02\n        /* \"#utility.yul\":17568:17579   */\n      mul\n        /* \"#utility.yul\":17562:17566   */\n      dup3\n        /* \"#utility.yul\":17559:17580   */\n      or\n        /* \"#utility.yul\":17551:17580   */\n      swap1\n      pop\n        /* \"#utility.yul\":17291:17586   */\n      swap3\n      swap2\n      pop\n      pop\n      jump\t// out\n        /* \"#utility.yul\":17591:19042   */\n    tag_88:\n        /* \"#utility.yul\":17702:17705   */\n      dup2\n        /* \"#utility.yul\":17696:17700   */\n      dup2\n        /* \"#utility.yul\":17693:17706   */\n      sub\n        /* \"#utility.yul\":17690:17716   */\n      tag_378\n      jumpi\n        /* \"#utility.yul\":17709:17714   */\n      pop\n      pop\n      jump(tag_377)\n        /* \"#utility.yul\":17690:17716   */\n    tag_378:\n        /* \"#utility.yul\":17740:17774   */\n      tag_379\n        /* \"#utility.yul\":17770:17773   */\n      dup3\n        /* \"#utility.yul\":17740:17774   */\n      tag_183\n      jump\t// in\n    tag_379:\n        /* \"#utility.yul\":17839:17857   */\n      0xffffffffffffffff\n        /* \"#utility.yul\":17831:17837   */\n      dup2\n        /* \"#utility.yul\":17828:17858   */\n      gt\n        /* \"#utility.yul\":17825:17881   */\n      iszero\n      tag_380\n      jumpi\n        /* \"#utility.yul\":17861:17879   */\n      tag_381\n      tag_174\n      jump\t// in\n    tag_381:\n        /* \"#utility.yul\":17825:17881   */\n    tag_380:\n        /* \"#utility.yul\":17905:17943   */\n      tag_382\n        /* \"#utility.yul\":17937:17941   */\n      dup3\n        /* \"#utility.yul\":17931:17942   */\n      sload\n        /* \"#utility.yul\":17905:17943   */\n      tag_37\n      jump\t// in\n    tag_382:\n        /* \"#utility.yul\":17990:18057   */\n      tag_383\n        /* \"#utility.yul\":18050:18056   */\n      dup3\n        /* \"#utility.yul\":18042:18048   */\n      dup3\n        /* \"#utility.yul\":18036:18040   */\n      dup6\n        /* \"#utility.yul\":17990:18057   */\n      tag_195\n      jump\t// in\n    tag_383:\n        /* \"#utility.yul\":18084:18085   */\n      0x00\n        /* \"#utility.yul\":18113:18115   */\n      0x1f\n        /* \"#utility.yul\":18105:18111   */\n      dup4\n        /* \"#utility.yul\":18102:18116   */\n      gt\n        /* \"#utility.yul\":18130:18131   */\n      0x01\n        /* \"#utility.yul\":18125:18797   */\n      dup2\n      eq\n      tag_385\n      jumpi\n        /* \"#utility.yul\":18841:18842   */\n      0x00\n        /* \"#utility.yul\":18858:18864   */\n      dup5\n        /* \"#utility.yul\":18855:18932   */\n      iszero\n      tag_386\n      jumpi\n        /* \"#utility.yul\":18907:18916   */\n      dup3\n        /* \"#utility.yul\":18902:18905   */\n      dup8\n        /* \"#utility.yul\":18898:18917   */\n      add\n        /* \"#utility.yul\":18892:18918   */\n      sload\n        /* \"#utility.yul\":18883:18918   */\n      swap1\n      pop\n        /* \"#utility.yul\":18855:18932   */\n    tag_386:\n        /* \"#utility.yul\":18958:19025   */\n      tag_387\n        /* \"#utility.yul\":19018:19024   */\n      dup6\n        /* \"#utility.yul\":19011:19016   */\n      dup3\n        /* \"#utility.yul\":18958:19025   */\n      tag_198\n      jump\t// in\n    tag_387:\n        /* \"#utility.yul\":18952:18956   */\n      dup7\n        /* \"#utility.yul\":18945:19026   */\n      sstore\n        /* \"#utility.yul\":18814:19036   */\n      pop\n        /* \"#utility.yul\":18095:19036   */\n      jump(tag_384)\n        /* \"#utility.yul\":18125:18797   */\n    tag_385:\n        /* \"#utility.yul\":18177:18181   */\n      0x1f\n        /* \"#utility.yul\":18173:18182   */\n      not\n        /* \"#utility.yul\":18165:18171   */\n      dup5\n        /* \"#utility.yul\":18161:18183   */\n      and\n        /* \"#utility.yul\":18203:18239   */\n      tag_388\n        /* \"#utility.yul\":18235:18238   */\n      dup8\n        /* \"#utility.yul\":18203:18239   */\n      tag_184\n      jump\t// in\n    tag_388:\n        /* \"#utility.yul\":18196:18239   */\n      swap7\n      pop\n        /* \"#utility.yul\":18266:18303   */\n      tag_389\n        /* \"#utility.yul\":18298:18302   */\n      dup7\n        /* \"#utility.yul\":18266:18303   */\n      tag_184\n      jump\t// in\n    tag_389:\n        /* \"#utility.yul\":18325:18326   */\n      0x00\n        /* \"#utility.yul\":18339:18546   */\n    tag_390:\n        /* \"#utility.yul\":18353:18360   */\n      dup3\n        /* \"#utility.yul\":18350:18351   */\n      dup2\n        /* \"#utility.yul\":18347:18361   */\n      lt\n        /* \"#utility.yul\":18339:18546   */\n      iszero\n      tag_392\n      jumpi\n        /* \"#utility.yul\":18432:18441   */\n      dup5\n        /* \"#utility.yul\":18427:18430   */\n      dup10\n        /* \"#utility.yul\":18423:18442   */\n      add\n        /* \"#utility.yul\":18417:18443   */\n      sload\n        /* \"#utility.yul\":18409:18415   */\n      dup3\n        /* \"#utility.yul\":18402:18444   */\n      sstore\n        /* \"#utility.yul\":18483:18484   */\n      0x01\n        /* \"#utility.yul\":18475:18481   */\n      dup3\n        /* \"#utility.yul\":18471:18485   */\n      add\n        /* \"#utility.yul\":18461:18485   */\n      swap2\n      pop\n        /* \"#utility.yul\":18530:18531   */\n      0x01\n        /* \"#utility.yul\":18519:18528   */\n      dup6\n        /* \"#utility.yul\":18515:18532   */\n      add\n        /* \"#utility.yul\":18502:18532   */\n      swap5\n      pop\n        /* \"#utility.yul\":18376:18380   */\n      0x20\n        /* \"#utility.yul\":18373:18374   */\n      dup2\n        /* \"#utility.yul\":18369:18381   */\n      add\n        /* \"#utility.yul\":18364:18381   */\n      swap1\n      pop\n        /* \"#utility.yul\":18339:18546   */\n      jump(tag_390)\n    tag_392:\n        /* \"#utility.yul\":18574:18580   */\n      dup7\n        /* \"#utility.yul\":18565:18572   */\n      dup4\n        /* \"#utility.yul\":18562:18581   */\n      lt\n        /* \"#utility.yul\":18559:18738   */\n      iszero\n      tag_393\n      jumpi\n        /* \"#utility.yul\":18632:18641   */\n      dup5\n        /* \"#utility.yul\":18627:18630   */\n      dup10\n        /* \"#utility.yul\":18623:18642   */\n      add\n        /* \"#utility.yul\":18617:18643   */\n      sload\n        /* \"#utility.yul\":18675:18723   */\n      tag_394\n        /* \"#utility.yul\":18717:18721   */\n      0x1f\n        /* \"#utility.yul\":18709:18715   */\n      dup10\n        /* \"#utility.yul\":18705:18722   */\n      and\n        /* \"#utility.yul\":18694:18703   */\n      dup3\n        /* \"#utility.yul\":18675:18723   */\n      tag_197\n      jump\t// in\n    tag_394:\n        /* \"#utility.yul\":18667:18673   */\n      dup4\n        /* \"#utility.yul\":18660:18724   */\n      sstore\n        /* \"#utility.yul\":18582:18738   */\n      pop\n        /* \"#utility.yul\":18559:18738   */\n    tag_393:\n        /* \"#utility.yul\":18784:18785   */\n      0x01\n        /* \"#utility.yul\":18780:18781   */\n      0x02\n        /* \"#utility.yul\":18772:18778   */\n      dup9\n        /* \"#utility.yul\":18768:18782   */\n      mul\n        /* \"#utility.yul\":18764:18786   */\n      add\n        /* \"#utility.yul\":18758:18762   */\n      dup9\n        /* \"#utility.yul\":18751:18787   */\n      sstore\n        /* \"#utility.yul\":18132:18797   */\n      pop\n      pop\n      pop\n        /* \"#utility.yul\":18095:19036   */\n    tag_384:\n      pop\n        /* \"#utility.yul\":17680:19042   */\n      pop\n      pop\n      pop\n        /* \"#utility.yul\":17591:19042   */\n      pop\n      pop\n    tag_377:\n      jump\t// out\n        /* \"#utility.yul\":19048:20443   */\n    tag_133:\n        /* \"#utility.yul\":19165:19202   */\n      tag_396\n        /* \"#utility.yul\":19198:19201   */\n      dup3\n        /* \"#utility.yul\":19165:19202   */\n      tag_156\n      jump\t// in\n    tag_396:\n        /* \"#utility.yul\":19267:19285   */\n      0xffffffffffffffff\n        /* \"#utility.yul\":19259:19265   */\n      dup2\n        /* \"#utility.yul\":19256:19286   */\n      gt\n        /* \"#utility.yul\":19253:19309   */\n      iszero\n      tag_397\n      jumpi\n        /* \"#utility.yul\":19289:19307   */\n      tag_398\n      tag_174\n      jump\t// in\n    tag_398:\n        /* \"#utility.yul\":19253:19309   */\n    tag_397:\n        /* \"#utility.yul\":19333:19371   */\n      tag_399\n        /* \"#utility.yul\":19365:19369   */\n      dup3\n        /* \"#utility.yul\":19359:19370   */\n      sload\n        /* \"#utility.yul\":19333:19371   */\n      tag_37\n      jump\t// in\n    tag_399:\n        /* \"#utility.yul\":19418:19485   */\n      tag_400\n        /* \"#utility.yul\":19478:19484   */\n      dup3\n        /* \"#utility.yul\":19470:19476   */\n      dup3\n        /* \"#utility.yul\":19464:19468   */\n      dup6\n        /* \"#utility.yul\":19418:19485   */\n      tag_195\n      jump\t// in\n    tag_400:\n        /* \"#utility.yul\":19512:19513   */\n      0x00\n        /* \"#utility.yul\":19536:19540   */\n      0x20\n        /* \"#utility.yul\":19523:19540   */\n      swap1\n      pop\n        /* \"#utility.yul\":19568:19570   */\n      0x1f\n        /* \"#utility.yul\":19560:19566   */\n      dup4\n        /* \"#utility.yul\":19557:19571   */\n      gt\n        /* \"#utility.yul\":19585:19586   */\n      0x01\n        /* \"#utility.yul\":19580:20198   */\n      dup2\n      eq\n      tag_402\n      jumpi\n        /* \"#utility.yul\":20242:20243   */\n      0x00\n        /* \"#utility.yul\":20259:20265   */\n      dup5\n        /* \"#utility.yul\":20256:20333   */\n      iszero\n      tag_403\n      jumpi\n        /* \"#utility.yul\":20308:20317   */\n      dup3\n        /* \"#utility.yul\":20303:20306   */\n      dup8\n        /* \"#utility.yul\":20299:20318   */\n      add\n        /* \"#utility.yul\":20293:20319   */\n      mload\n        /* \"#utility.yul\":20284:20319   */\n      swap1\n      pop\n        /* \"#utility.yul\":20256:20333   */\n    tag_403:\n        /* \"#utility.yul\":20359:20426   */\n      tag_404\n        /* \"#utility.yul\":20419:20425   */\n      dup6\n        /* \"#utility.yul\":20412:20417   */\n      dup3\n        /* \"#utility.yul\":20359:20426   */\n      tag_198\n      jump\t// in\n    tag_404:\n        /* \"#utility.yul\":20353:20357   */\n      dup7\n        /* \"#utility.yul\":20346:20427   */\n      sstore\n        /* \"#utility.yul\":20215:20437   */\n      pop\n        /* \"#utility.yul\":19550:20437   */\n      jump(tag_401)\n        /* \"#utility.yul\":19580:20198   */\n    tag_402:\n        /* \"#utility.yul\":19632:19636   */\n      0x1f\n        /* \"#utility.yul\":19628:19637   */\n      not\n        /* \"#utility.yul\":19620:19626   */\n      dup5\n        /* \"#utility.yul\":19616:19638   */\n      and\n        /* \"#utility.yul\":19666:19703   */\n      tag_405\n        /* \"#utility.yul\":19698:19702   */\n      dup7\n        /* \"#utility.yul\":19666:19703   */\n      tag_184\n      jump\t// in\n    tag_405:\n        /* \"#utility.yul\":19725:19726   */\n      0x00\n        /* \"#utility.yul\":19739:19947   */\n    tag_406:\n        /* \"#utility.yul\":19753:19760   */\n      dup3\n        /* \"#utility.yul\":19750:19751   */\n      dup2\n        /* \"#utility.yul\":19747:19761   */\n      lt\n        /* \"#utility.yul\":19739:19947   */\n      iszero\n      tag_408\n      jumpi\n        /* \"#utility.yul\":19832:19841   */\n      dup5\n        /* \"#utility.yul\":19827:19830   */\n      dup10\n        /* \"#utility.yul\":19823:19842   */\n      add\n        /* \"#utility.yul\":19817:19843   */\n      mload\n        /* \"#utility.yul\":19809:19815   */\n      dup3\n        /* \"#utility.yul\":19802:19844   */\n      sstore\n        /* \"#utility.yul\":19883:19884   */\n      0x01\n        /* \"#utility.yul\":19875:19881   */\n      dup3\n        /* \"#utility.yul\":19871:19885   */\n      add\n        /* \"#utility.yul\":19861:19885   */\n      swap2\n      pop\n        /* \"#utility.yul\":19930:19932   */\n      0x20\n        /* \"#utility.yul\":19919:19928   */\n      dup6\n        /* \"#utility.yul\":19915:19933   */\n      add\n        /* \"#utility.yul\":19902:19933   */\n      swap5\n      pop\n        /* \"#utility.yul\":19776:19780   */\n      0x20\n        /* \"#utility.yul\":19773:19774   */\n      dup2\n        /* \"#utility.yul\":19769:19781   */\n      add\n        /* \"#utility.yul\":19764:19781   */\n      swap1\n      pop\n        /* \"#utility.yul\":19739:19947   */\n      jump(tag_406)\n    tag_408:\n        /* \"#utility.yul\":19975:19981   */\n      dup7\n        /* \"#utility.yul\":19966:19973   */\n      dup4\n        /* \"#utility.yul\":19963:19982   */\n      lt\n        /* \"#utility.yul\":19960:20139   */\n      iszero\n      tag_409\n      jumpi\n        /* \"#utility.yul\":20033:20042   */\n      dup5\n        /* \"#utility.yul\":20028:20031   */\n      dup10\n        /* \"#utility.yul\":20024:20043   */\n      add\n        /* \"#utility.yul\":20018:20044   */\n      mload\n        /* \"#utility.yul\":20076:20124   */\n      tag_410\n        /* \"#utility.yul\":20118:20122   */\n      0x1f\n        /* \"#utility.yul\":20110:20116   */\n      dup10\n        /* \"#utility.yul\":20106:20123   */\n      and\n        /* \"#utility.yul\":20095:20104   */\n      dup3\n        /* \"#utility.yul\":20076:20124   */\n      tag_197\n      jump\t// in\n    tag_410:\n        /* \"#utility.yul\":20068:20074   */\n      dup4\n        /* \"#utility.yul\":20061:20125   */\n      sstore\n        /* \"#utility.yul\":19983:20139   */\n      pop\n        /* \"#utility.yul\":19960:20139   */\n    tag_409:\n        /* \"#utility.yul\":20185:20186   */\n      0x01\n        /* \"#utility.yul\":20181:20182   */\n      0x02\n        /* \"#utility.yul\":20173:20179   */\n      dup9\n        /* \"#utility.yul\":20169:20183   */\n      mul\n        /* \"#utility.yul\":20165:20187   */\n      add\n        /* \"#utility.yul\":20159:20163   */\n      dup9\n        /* \"#utility.yul\":20152:20188   */\n      sstore\n        /* \"#utility.yul\":19587:20198   */\n      pop\n      pop\n      pop\n        /* \"#utility.yul\":19550:20437   */\n    tag_401:\n      pop\n        /* \"#utility.yul\":19140:20443   */\n      pop\n      pop\n      pop\n        /* \"#utility.yul\":19048:20443   */\n      pop\n      pop\n      jump\t// out\n\n    auxdata: 0xa26469706673582212207f7c54354b684a886a40dbbf1bbcdd80c581c768de24a07cb5cab809e602a0f364736f6c634300080f0033\n}\n",
				"bytecode": {
					"linkReferences": {},
					"object": "608060405234801561001057600080fd5b50611deb806100206000396000f3fe608060405234801561001057600080fd5b50600436106100575760003560e01c8063377e6ff71461005c57806380c9419e1461008c57806382e40813146100c3578063904cc175146100df578063a97af4d51461010f575b600080fd5b6100766004803603810190610071919061134f565b61012b565b60405161008391906115bd565b60405180910390f35b6100a660048036038101906100a1919061160b565b61044a565b6040516100ba9897969594939291906116a0565b60405180910390f35b6100dd60048036038101906100d89190611733565b61067a565b005b6100f960048036038101906100f4919061160b565b61089e565b60405161010691906115bd565b60405180910390f35b610129600480360381019061012491906118a8565b610e7a565b005b6060600360008373ffffffffffffffffffffffffffffffffffffffff1673ffffffffffffffffffffffffffffffffffffffff168152602001908152602001600020805480602002602001604051908101604052809291908181526020016000905b8282101561043f578382906000526020600020906008020160405180610100016040529081600082015481526020016001820180546101ca90611962565b80601f01602080910402602001604051908101604052809291908181526020018280546101f690611962565b80156102435780601f1061021857610100808354040283529160200191610243565b820191906000526020600020905b81548152906001019060200180831161022657829003601f168201915b50505050508152602001600282015481526020016003820160009054906101000a900473ffffffffffffffffffffffffffffffffffffffff1673ffffffffffffffffffffffffffffffffffffffff1673ffffffffffffffffffffffffffffffffffffffff1681526020016004820160009054906101000a900473ffffffffffffffffffffffffffffffffffffffff1673ffffffffffffffffffffffffffffffffffffffff1673ffffffffffffffffffffffffffffffffffffffff1681526020016005820154815260200160068201805461031c90611962565b80601f016020809104026020016040519081016040528092919081815260200182805461034890611962565b80156103955780601f1061036a57610100808354040283529160200191610395565b820191906000526020600020905b81548152906001019060200180831161037857829003601f168201915b505050505081526020016007820180546103ae90611962565b80601f01602080910402602001604051908101604052809291908181526020018280546103da90611962565b80156104275780601f106103fc57610100808354040283529160200191610427565b820191906000526020600020905b81548152906001019060200180831161040a57829003601f168201915b5050505050815250508152602001906001019061018c565b505050509050919050565b6001818154811061045a57600080fd5b906000526020600020906008020160009150905080600001549080600101805461048390611962565b80601f01602080910402602001604051908101604052809291908181526020018280546104af90611962565b80156104fc5780601f106104d1576101008083540402835291602001916104fc565b820191906000526020600020905b8154815290600101906020018083116104df57829003601f168201915b5050505050908060020154908060030160009054906101000a900473ffffffffffffffffffffffffffffffffffffffff16908060040160009054906101000a900473ffffffffffffffffffffffffffffffffffffffff169080600501549080600601805461056990611962565b80601f016020809104026020016040519081016040528092919081815260200182805461059590611962565b80156105e25780601f106105b7576101008083540402835291602001916105e2565b820191906000526020600020905b8154815290600101906020018083116105c557829003601f168201915b5050505050908060070180546105f790611962565b80601f016020809104026020016040519081016040528092919081815260200182805461062390611962565b80156106705780601f1061064557610100808354040283529160200191610670565b820191906000526020600020905b81548152906001019060200180831161065357829003601f168201915b5050505050905088565b806001838154811061068f5761068e611993565b5b90600052602060002090600802016002018190555060005b60026000600181526020019081526020016000208054905081101561070d5782600260006001815260200190815260200160002082815481106106ed576106ec611993565b5b906000526020600020905050508080610705906119f1565b9150506106a7565b5060026000600381526020019081526020016000206001838154811061073657610735611993565b5b90600052602060002090600802019080600181540180825580915050600190039060005260206000209060080201600090919091909150600082015481600001556001820181600101908161078b9190611bfb565b50600282015481600201556003820160009054906101000a900473ffffffffffffffffffffffffffffffffffffffff168160030160006101000a81548173ffffffffffffffffffffffffffffffffffffffff021916908373ffffffffffffffffffffffffffffffffffffffff1602179055506004820160009054906101000a900473ffffffffffffffffffffffffffffffffffffffff168160040160006101000a81548173ffffffffffffffffffffffffffffffffffffffff021916908373ffffffffffffffffffffffffffffffffffffffff16021790555060058201548160050155600682018160060190816108829190611bfb565b50600782018160070190816108979190611bfb565b5050505050565b606060008203610b88576001805480602002602001604051908101604052809291908181526020016000905b82821015610b7d5783829060005260206000209060080201604051806101000160405290816000820154815260200160018201805461090890611962565b80601f016020809104026020016040519081016040528092919081815260200182805461093490611962565b80156109815780601f1061095657610100808354040283529160200191610981565b820191906000526020600020905b81548152906001019060200180831161096457829003601f168201915b50505050508152602001600282015481526020016003820160009054906101000a900473ffffffffffffffffffffffffffffffffffffffff1673ffffffffffffffffffffffffffffffffffffffff1673ffffffffffffffffffffffffffffffffffffffff1681526020016004820160009054906101000a900473ffffffffffffffffffffffffffffffffffffffff1673ffffffffffffffffffffffffffffffffffffffff1673ffffffffffffffffffffffffffffffffffffffff16815260200160058201548152602001600682018054610a5a90611962565b80601f0160208091040260200160405190810160405280929190818152602001828054610a8690611962565b8015610ad35780601f10610aa857610100808354040283529160200191610ad3565b820191906000526020600020905b815481529060010190602001808311610ab657829003601f168201915b50505050508152602001600782018054610aec90611962565b80601f0160208091040260200160405190810160405280929190818152602001828054610b1890611962565b8015610b655780601f10610b3a57610100808354040283529160200191610b65565b820191906000526020600020905b815481529060010190602001808311610b4857829003601f168201915b505050505081525050815260200190600101906108ca565b505050509050610e75565b60026000838152602001908152602001600020805480602002602001604051908101604052809291908181526020016000905b82821015610e6e57838290600052602060002090600802016040518061010001604052908160008201548152602001600182018054610bf990611962565b80601f0160208091040260200160405190810160405280929190818152602001828054610c2590611962565b8015610c725780601f10610c4757610100808354040283529160200191610c72565b820191906000526020600020905b815481529060010190602001808311610c5557829003601f168201915b50505050508152602001600282015481526020016003820160009054906101000a900473ffffffffffffffffffffffffffffffffffffffff1673ffffffffffffffffffffffffffffffffffffffff1673ffffffffffffffffffffffffffffffffffffffff1681526020016004820160009054906101000a900473ffffffffffffffffffffffffffffffffffffffff1673ffffffffffffffffffffffffffffffffffffffff1673ffffffffffffffffffffffffffffffffffffffff16815260200160058201548152602001600682018054610d4b90611962565b80601f0160208091040260200160405190810160405280929190818152602001828054610d7790611962565b8015610dc45780601f10610d9957610100808354040283529160200191610dc4565b820191906000526020600020905b815481529060010190602001808311610da757829003601f168201915b50505050508152602001600782018054610ddd90611962565b80601f0160208091040260200160405190810160405280929190818152602001828054610e0990611962565b8015610e565780601f10610e2b57610100808354040283529160200191610e56565b820191906000526020600020905b815481529060010190602001808311610e3957829003601f168201915b50505050508152505081526020019060010190610bbb565b5050505090505b919050565b600080815480929190610e8c906119f1565b919050555060006040518061010001604052806000548152602001858152602001600081526020013373ffffffffffffffffffffffffffffffffffffffff1681526020018473ffffffffffffffffffffffffffffffffffffffff168152602001600081526020018381526020016040518060400160405280600181526020017f300000000000000000000000000000000000000000000000000000000000000081525081525090506001819080600181540180825580915050600190039060005260206000209060080201600090919091909150600082015181600001556020820151816001019081610f7f9190611ce3565b506040820151816002015560608201518160030160006101000a81548173ffffffffffffffffffffffffffffffffffffffff021916908373ffffffffffffffffffffffffffffffffffffffff16021790555060808201518160040160006101000a81548173ffffffffffffffffffffffffffffffffffffffff021916908373ffffffffffffffffffffffffffffffffffffffff16021790555060a0820151816005015560c08201518160060190816110379190611ce3565b5060e082015181600701908161104d9190611ce3565b50505060026000600181526020019081526020016000208190806001815401808255809150506001900390600052602060002090600802016000909190919091506000820151816000015560208201518160010190816110ad9190611ce3565b506040820151816002015560608201518160030160006101000a81548173ffffffffffffffffffffffffffffffffffffffff021916908373ffffffffffffffffffffffffffffffffffffffff16021790555060808201518160040160006101000a81548173ffffffffffffffffffffffffffffffffffffffff021916908373ffffffffffffffffffffffffffffffffffffffff16021790555060a0820151816005015560c08201518160060190816111659190611ce3565b5060e082015181600701908161117b9190611ce3565b505050600360003373ffffffffffffffffffffffffffffffffffffffff1673ffffffffffffffffffffffffffffffffffffffff1681526020019081526020016000208190806001815401808255809150506001900390600052602060002090600802016000909190919091506000820151816000015560208201518160010190816112069190611ce3565b506040820151816002015560608201518160030160006101000a81548173ffffffffffffffffffffffffffffffffffffffff021916908373ffffffffffffffffffffffffffffffffffffffff16021790555060808201518160040160006101000a81548173ffffffffffffffffffffffffffffffffffffffff021916908373ffffffffffffffffffffffffffffffffffffffff16021790555060a0820151816005015560c08201518160060190816112be9190611ce3565b5060e08201518160070190816112d49190611ce3565b50505050505050565b6000604051905090565b600080fd5b600080fd5b600073ffffffffffffffffffffffffffffffffffffffff82169050919050565b600061131c826112f1565b9050919050565b61132c81611311565b811461133757600080fd5b50565b60008135905061134981611323565b92915050565b600060208284031215611365576113646112e7565b5b60006113738482850161133a565b91505092915050565b600081519050919050565b600082825260208201905092915050565b6000819050602082019050919050565b6000819050919050565b6113bb816113a8565b82525050565b600081519050919050565b600082825260208201905092915050565b60005b838110156113fb5780820151818401526020810190506113e0565b8381111561140a576000848401525b50505050565b6000601f19601f8301169050919050565b600061142c826113c1565b61143681856113cc565b93506114468185602086016113dd565b61144f81611410565b840191505092915050565b61146381611311565b82525050565b60006101008301600083015161148260008601826113b2565b506020830151848203602086015261149a8282611421565b91505060408301516114af60408601826113b2565b5060608301516114c2606086018261145a565b5060808301516114d5608086018261145a565b5060a08301516114e860a08601826113b2565b5060c083015184820360c08601526115008282611421565b91505060e083015184820360e086015261151a8282611421565b9150508091505092915050565b60006115338383611469565b905092915050565b6000602082019050919050565b60006115538261137c565b61155d8185611387565b93508360208202850161156f85611398565b8060005b858110156115ab578484038952815161158c8582611527565b94506115978361153b565b925060208a01995050600181019050611573565b50829750879550505050505092915050565b600060208201905081810360008301526115d78184611548565b905092915050565b6115e8816113a8565b81146115f357600080fd5b50565b600081359050611605816115df565b92915050565b600060208284031215611621576116206112e7565b5b600061162f848285016115f6565b91505092915050565b611641816113a8565b82525050565b600082825260208201905092915050565b6000611663826113c1565b61166d8185611647565b935061167d8185602086016113dd565b61168681611410565b840191505092915050565b61169a81611311565b82525050565b6000610100820190506116b6600083018b611638565b81810360208301526116c8818a611658565b90506116d76040830189611638565b6116e46060830188611691565b6116f16080830187611691565b6116fe60a0830186611638565b81810360c08301526117108185611658565b905081810360e08301526117248184611658565b90509998505050505050505050565b6000806040838503121561174a576117496112e7565b5b6000611758858286016115f6565b9250506020611769858286016115f6565b9150509250929050565b600080fd5b600080fd5b7f4e487b7100000000000000000000000000000000000000000000000000000000600052604160045260246000fd5b6117b582611410565b810181811067ffffffffffffffff821117156117d4576117d361177d565b5b80604052505050565b60006117e76112dd565b90506117f382826117ac565b919050565b600067ffffffffffffffff8211156118135761181261177d565b5b61181c82611410565b9050602081019050919050565b82818337600083830152505050565b600061184b611846846117f8565b6117dd565b90508281526020810184848401111561186757611866611778565b5b611872848285611829565b509392505050565b600082601f83011261188f5761188e611773565b5b813561189f848260208601611838565b91505092915050565b6000806000606084860312156118c1576118c06112e7565b5b600084013567ffffffffffffffff8111156118df576118de6112ec565b5b6118eb8682870161187a565b93505060206118fc8682870161133a565b925050604084013567ffffffffffffffff81111561191d5761191c6112ec565b5b6119298682870161187a565b9150509250925092565b7f4e487b7100000000000000000000000000000000000000000000000000000000600052602260045260246000fd5b6000600282049050600182168061197a57607f821691505b60208210810361198d5761198c611933565b5b50919050565b7f4e487b7100000000000000000000000000000000000000000000000000000000600052603260045260246000fd5b7f4e487b7100000000000000000000000000000000000000000000000000000000600052601160045260246000fd5b60006119fc826113a8565b91507fffffffffffffffffffffffffffffffffffffffffffffffffffffffffffffffff8203611a2e57611a2d6119c2565b5b600182019050919050565b600081549050611a4881611962565b9050919050565b60008190508160005260206000209050919050565b60006020601f8301049050919050565b600082821b905092915050565b600060088302611ab17fffffffffffffffffffffffffffffffffffffffffffffffffffffffffffffffff82611a74565b611abb8683611a74565b95508019841693508086168417925050509392505050565b6000819050919050565b6000611af8611af3611aee846113a8565b611ad3565b6113a8565b9050919050565b6000819050919050565b611b1283611add565b611b26611b1e82611aff565b848454611a81565b825550505050565b600090565b611b3b611b2e565b611b46818484611b09565b505050565b5b81811015611b6a57611b5f600082611b33565b600181019050611b4c565b5050565b601f821115611baf57611b8081611a4f565b611b8984611a64565b81016020851015611b98578190505b611bac611ba485611a64565b830182611b4b565b50505b505050565b600082821c905092915050565b6000611bd260001984600802611bb4565b1980831691505092915050565b6000611beb8383611bc1565b9150826002028217905092915050565b818103611c09575050611ce1565b611c1282611a39565b67ffffffffffffffff811115611c2b57611c2a61177d565b5b611c358254611962565b611c40828285611b6e565b6000601f831160018114611c6f5760008415611c5d578287015490505b611c678582611bdf565b865550611cda565b601f198416611c7d87611a4f565b9650611c8886611a4f565b60005b82811015611cb057848901548255600182019150600185019450602081019050611c8b565b86831015611ccd5784890154611cc9601f891682611bc1565b8355505b6001600288020188555050505b5050505050505b565b611cec826113c1565b67ffffffffffffffff811115611d0557611d0461177d565b5b611d0f8254611962565b611d1a828285611b6e565b600060209050601f831160018114611d4d5760008415611d3b578287015190505b611d458582611bdf565b865550611dad565b601f198416611d5b86611a4f565b60005b82811015611d8357848901518255600182019150602085019450602081019050611d5e565b86831015611da05784890151611d9c601f891682611bc1565b8355505b6001600288020188555050505b50505050505056fea26469706673582212207f7c54354b684a886a40dbbf1bbcdd80c581c768de24a07cb5cab809e602a0f364736f6c634300080f0033",
					"opcodes": "PUSH1 0x80 PUSH1 0x40 MSTORE CALLVALUE DUP1 ISZERO PUSH2 0x10 JUMPI PUSH1 0x0 DUP1 REVERT JUMPDEST POP PUSH2 0x1DEB DUP1 PUSH2 0x20 PUSH1 0x0 CODECOPY PUSH1 0x0 RETURN INVALID PUSH1 0x80 PUSH1 0x40 MSTORE CALLVALUE DUP1 ISZERO PUSH2 0x10 JUMPI PUSH1 0x0 DUP1 REVERT JUMPDEST POP PUSH1 0x4 CALLDATASIZE LT PUSH2 0x57 JUMPI PUSH1 0x0 CALLDATALOAD PUSH1 0xE0 SHR DUP1 PUSH4 0x377E6FF7 EQ PUSH2 0x5C JUMPI DUP1 PUSH4 0x80C9419E EQ PUSH2 0x8C JUMPI DUP1 PUSH4 0x82E40813 EQ PUSH2 0xC3 JUMPI DUP1 PUSH4 0x904CC175 EQ PUSH2 0xDF JUMPI DUP1 PUSH4 0xA97AF4D5 EQ PUSH2 0x10F JUMPI JUMPDEST PUSH1 0x0 DUP1 REVERT JUMPDEST PUSH2 0x76 PUSH1 0x4 DUP1 CALLDATASIZE SUB DUP2 ADD SWAP1 PUSH2 0x71 SWAP2 SWAP1 PUSH2 0x134F JUMP JUMPDEST PUSH2 0x12B JUMP JUMPDEST PUSH1 0x40 MLOAD PUSH2 0x83 SWAP2 SWAP1 PUSH2 0x15BD JUMP JUMPDEST PUSH1 0x40 MLOAD DUP1 SWAP2 SUB SWAP1 RETURN JUMPDEST PUSH2 0xA6 PUSH1 0x4 DUP1 CALLDATASIZE SUB DUP2 ADD SWAP1 PUSH2 0xA1 SWAP2 SWAP1 PUSH2 0x160B JUMP JUMPDEST PUSH2 0x44A JUMP JUMPDEST PUSH1 0x40 MLOAD PUSH2 0xBA SWAP9 SWAP8 SWAP7 SWAP6 SWAP5 SWAP4 SWAP3 SWAP2 SWAP1 PUSH2 0x16A0 JUMP JUMPDEST PUSH1 0x40 MLOAD DUP1 SWAP2 SUB SWAP1 RETURN JUMPDEST PUSH2 0xDD PUSH1 0x4 DUP1 CALLDATASIZE SUB DUP2 ADD SWAP1 PUSH2 0xD8 SWAP2 SWAP1 PUSH2 0x1733 JUMP JUMPDEST PUSH2 0x67A JUMP JUMPDEST STOP JUMPDEST PUSH2 0xF9 PUSH1 0x4 DUP1 CALLDATASIZE SUB DUP2 ADD SWAP1 PUSH2 0xF4 SWAP2 SWAP1 PUSH2 0x160B JUMP JUMPDEST PUSH2 0x89E JUMP JUMPDEST PUSH1 0x40 MLOAD PUSH2 0x106 SWAP2 SWAP1 PUSH2 0x15BD JUMP JUMPDEST PUSH1 0x40 MLOAD DUP1 SWAP2 SUB SWAP1 RETURN JUMPDEST PUSH2 0x129 PUSH1 0x4 DUP1 CALLDATASIZE SUB DUP2 ADD SWAP1 PUSH2 0x124 SWAP2 SWAP1 PUSH2 0x18A8 JUMP JUMPDEST PUSH2 0xE7A JUMP JUMPDEST STOP JUMPDEST PUSH1 0x60 PUSH1 0x3 PUSH1 0x0 DUP4 PUSH20 0xFFFFFFFFFFFFFFFFFFFFFFFFFFFFFFFFFFFFFFFF AND PUSH20 0xFFFFFFFFFFFFFFFFFFFFFFFFFFFFFFFFFFFFFFFF AND DUP2 MSTORE PUSH1 0x20 ADD SWAP1 DUP2 MSTORE PUSH1 0x20 ADD PUSH1 0x0 KECCAK256 DUP1 SLOAD DUP1 PUSH1 0x20 MUL PUSH1 0x20 ADD PUSH1 0x40 MLOAD SWAP1 DUP2 ADD PUSH1 0x40 MSTORE DUP1 SWAP3 SWAP2 SWAP1 DUP2 DUP2 MSTORE PUSH1 0x20 ADD PUSH1 0x0 SWAP1 JUMPDEST DUP3 DUP3 LT ISZERO PUSH2 0x43F JUMPI DUP4 DUP3 SWAP1 PUSH1 0x0 MSTORE PUSH1 0x20 PUSH1 0x0 KECCAK256 SWAP1 PUSH1 0x8 MUL ADD PUSH1 0x40 MLOAD DUP1 PUSH2 0x100 ADD PUSH1 0x40 MSTORE SWAP1 DUP2 PUSH1 0x0 DUP3 ADD SLOAD DUP2 MSTORE PUSH1 0x20 ADD PUSH1 0x1 DUP3 ADD DUP1 SLOAD PUSH2 0x1CA SWAP1 PUSH2 0x1962 JUMP JUMPDEST DUP1 PUSH1 0x1F ADD PUSH1 0x20 DUP1 SWAP2 DIV MUL PUSH1 0x20 ADD PUSH1 0x40 MLOAD SWAP1 DUP2 ADD PUSH1 0x40 MSTORE DUP1 SWAP3 SWAP2 SWAP1 DUP2 DUP2 MSTORE PUSH1 0x20 ADD DUP3 DUP1 SLOAD PUSH2 0x1F6 SWAP1 PUSH2 0x1962 JUMP JUMPDEST DUP1 ISZERO PUSH2 0x243 JUMPI DUP1 PUSH1 0x1F LT PUSH2 0x218 JUMPI PUSH2 0x100 DUP1 DUP4 SLOAD DIV MUL DUP4 MSTORE SWAP2 PUSH1 0x20 ADD SWAP2 PUSH2 0x243 JUMP JUMPDEST DUP3 ADD SWAP2 SWAP1 PUSH1 0x0 MSTORE PUSH1 0x20 PUSH1 0x0 KECCAK256 SWAP1 JUMPDEST DUP2 SLOAD DUP2 MSTORE SWAP1 PUSH1 0x1 ADD SWAP1 PUSH1 0x20 ADD DUP1 DUP4 GT PUSH2 0x226 JUMPI DUP3 SWAP1 SUB PUSH1 0x1F AND DUP3 ADD SWAP2 JUMPDEST POP POP POP POP POP DUP2 MSTORE PUSH1 0x20 ADD PUSH1 0x2 DUP3 ADD SLOAD DUP2 MSTORE PUSH1 0x20 ADD PUSH1 0x3 DUP3 ADD PUSH1 0x0 SWAP1 SLOAD SWAP1 PUSH2 0x100 EXP SWAP1 DIV PUSH20 0xFFFFFFFFFFFFFFFFFFFFFFFFFFFFFFFFFFFFFFFF AND PUSH20 0xFFFFFFFFFFFFFFFFFFFFFFFFFFFFFFFFFFFFFFFF AND PUSH20 0xFFFFFFFFFFFFFFFFFFFFFFFFFFFFFFFFFFFFFFFF AND DUP2 MSTORE PUSH1 0x20 ADD PUSH1 0x4 DUP3 ADD PUSH1 0x0 SWAP1 SLOAD SWAP1 PUSH2 0x100 EXP SWAP1 DIV PUSH20 0xFFFFFFFFFFFFFFFFFFFFFFFFFFFFFFFFFFFFFFFF AND PUSH20 0xFFFFFFFFFFFFFFFFFFFFFFFFFFFFFFFFFFFFFFFF AND PUSH20 0xFFFFFFFFFFFFFFFFFFFFFFFFFFFFFFFFFFFFFFFF AND DUP2 MSTORE PUSH1 0x20 ADD PUSH1 0x5 DUP3 ADD SLOAD DUP2 MSTORE PUSH1 0x20 ADD PUSH1 0x6 DUP3 ADD DUP1 SLOAD PUSH2 0x31C SWAP1 PUSH2 0x1962 JUMP JUMPDEST DUP1 PUSH1 0x1F ADD PUSH1 0x20 DUP1 SWAP2 DIV MUL PUSH1 0x20 ADD PUSH1 0x40 MLOAD SWAP1 DUP2 ADD PUSH1 0x40 MSTORE DUP1 SWAP3 SWAP2 SWAP1 DUP2 DUP2 MSTORE PUSH1 0x20 ADD DUP3 DUP1 SLOAD PUSH2 0x348 SWAP1 PUSH2 0x1962 JUMP JUMPDEST DUP1 ISZERO PUSH2 0x395 JUMPI DUP1 PUSH1 0x1F LT PUSH2 0x36A JUMPI PUSH2 0x100 DUP1 DUP4 SLOAD DIV MUL DUP4 MSTORE SWAP2 PUSH1 0x20 ADD SWAP2 PUSH2 0x395 JUMP JUMPDEST DUP3 ADD SWAP2 SWAP1 PUSH1 0x0 MSTORE PUSH1 0x20 PUSH1 0x0 KECCAK256 SWAP1 JUMPDEST DUP2 SLOAD DUP2 MSTORE SWAP1 PUSH1 0x1 ADD SWAP1 PUSH1 0x20 ADD DUP1 DUP4 GT PUSH2 0x378 JUMPI DUP3 SWAP1 SUB PUSH1 0x1F AND DUP3 ADD SWAP2 JUMPDEST POP POP POP POP POP DUP2 MSTORE PUSH1 0x20 ADD PUSH1 0x7 DUP3 ADD DUP1 SLOAD PUSH2 0x3AE SWAP1 PUSH2 0x1962 JUMP JUMPDEST DUP1 PUSH1 0x1F ADD PUSH1 0x20 DUP1 SWAP2 DIV MUL PUSH1 0x20 ADD PUSH1 0x40 MLOAD SWAP1 DUP2 ADD PUSH1 0x40 MSTORE DUP1 SWAP3 SWAP2 SWAP1 DUP2 DUP2 MSTORE PUSH1 0x20 ADD DUP3 DUP1 SLOAD PUSH2 0x3DA SWAP1 PUSH2 0x1962 JUMP JUMPDEST DUP1 ISZERO PUSH2 0x427 JUMPI DUP1 PUSH1 0x1F LT PUSH2 0x3FC JUMPI PUSH2 0x100 DUP1 DUP4 SLOAD DIV MUL DUP4 MSTORE SWAP2 PUSH1 0x20 ADD SWAP2 PUSH2 0x427 JUMP JUMPDEST DUP3 ADD SWAP2 SWAP1 PUSH1 0x0 MSTORE PUSH1 0x20 PUSH1 0x0 KECCAK256 SWAP1 JUMPDEST DUP2 SLOAD DUP2 MSTORE SWAP1 PUSH1 0x1 ADD SWAP1 PUSH1 0x20 ADD DUP1 DUP4 GT PUSH2 0x40A JUMPI DUP3 SWAP1 SUB PUSH1 0x1F AND DUP3 ADD SWAP2 JUMPDEST POP POP POP POP POP DUP2 MSTORE POP POP DUP2 MSTORE PUSH1 0x20 ADD SWAP1 PUSH1 0x1 ADD SWAP1 PUSH2 0x18C JUMP JUMPDEST POP POP POP POP SWAP1 POP SWAP2 SWAP1 POP JUMP JUMPDEST PUSH1 0x1 DUP2 DUP2 SLOAD DUP2 LT PUSH2 0x45A JUMPI PUSH1 0x0 DUP1 REVERT JUMPDEST SWAP1 PUSH1 0x0 MSTORE PUSH1 0x20 PUSH1 0x0 KECCAK256 SWAP1 PUSH1 0x8 MUL ADD PUSH1 0x0 SWAP2 POP SWAP1 POP DUP1 PUSH1 0x0 ADD SLOAD SWAP1 DUP1 PUSH1 0x1 ADD DUP1 SLOAD PUSH2 0x483 SWAP1 PUSH2 0x1962 JUMP JUMPDEST DUP1 PUSH1 0x1F ADD PUSH1 0x20 DUP1 SWAP2 DIV MUL PUSH1 0x20 ADD PUSH1 0x40 MLOAD SWAP1 DUP2 ADD PUSH1 0x40 MSTORE DUP1 SWAP3 SWAP2 SWAP1 DUP2 DUP2 MSTORE PUSH1 0x20 ADD DUP3 DUP1 SLOAD PUSH2 0x4AF SWAP1 PUSH2 0x1962 JUMP JUMPDEST DUP1 ISZERO PUSH2 0x4FC JUMPI DUP1 PUSH1 0x1F LT PUSH2 0x4D1 JUMPI PUSH2 0x100 DUP1 DUP4 SLOAD DIV MUL DUP4 MSTORE SWAP2 PUSH1 0x20 ADD SWAP2 PUSH2 0x4FC JUMP JUMPDEST DUP3 ADD SWAP2 SWAP1 PUSH1 0x0 MSTORE PUSH1 0x20 PUSH1 0x0 KECCAK256 SWAP1 JUMPDEST DUP2 SLOAD DUP2 MSTORE SWAP1 PUSH1 0x1 ADD SWAP1 PUSH1 0x20 ADD DUP1 DUP4 GT PUSH2 0x4DF JUMPI DUP3 SWAP1 SUB PUSH1 0x1F AND DUP3 ADD SWAP2 JUMPDEST POP POP POP POP POP SWAP1 DUP1 PUSH1 0x2 ADD SLOAD SWAP1 DUP1 PUSH1 0x3 ADD PUSH1 0x0 SWAP1 SLOAD SWAP1 PUSH2 0x100 EXP SWAP1 DIV PUSH20 0xFFFFFFFFFFFFFFFFFFFFFFFFFFFFFFFFFFFFFFFF AND SWAP1 DUP1 PUSH1 0x4 ADD PUSH1 0x0 SWAP1 SLOAD SWAP1 PUSH2 0x100 EXP SWAP1 DIV PUSH20 0xFFFFFFFFFFFFFFFFFFFFFFFFFFFFFFFFFFFFFFFF AND SWAP1 DUP1 PUSH1 0x5 ADD SLOAD SWAP1 DUP1 PUSH1 0x6 ADD DUP1 SLOAD PUSH2 0x569 SWAP1 PUSH2 0x1962 JUMP JUMPDEST DUP1 PUSH1 0x1F ADD PUSH1 0x20 DUP1 SWAP2 DIV MUL PUSH1 0x20 ADD PUSH1 0x40 MLOAD SWAP1 DUP2 ADD PUSH1 0x40 MSTORE DUP1 SWAP3 SWAP2 SWAP1 DUP2 DUP2 MSTORE PUSH1 0x20 ADD DUP3 DUP1 SLOAD PUSH2 0x595 SWAP1 PUSH2 0x1962 JUMP JUMPDEST DUP1 ISZERO PUSH2 0x5E2 JUMPI DUP1 PUSH1 0x1F LT PUSH2 0x5B7 JUMPI PUSH2 0x100 DUP1 DUP4 SLOAD DIV MUL DUP4 MSTORE SWAP2 PUSH1 0x20 ADD SWAP2 PUSH2 0x5E2 JUMP JUMPDEST DUP3 ADD SWAP2 SWAP1 PUSH1 0x0 MSTORE PUSH1 0x20 PUSH1 0x0 KECCAK256 SWAP1 JUMPDEST DUP2 SLOAD DUP2 MSTORE SWAP1 PUSH1 0x1 ADD SWAP1 PUSH1 0x20 ADD DUP1 DUP4 GT PUSH2 0x5C5 JUMPI DUP3 SWAP1 SUB PUSH1 0x1F AND DUP3 ADD SWAP2 JUMPDEST POP POP POP POP POP SWAP1 DUP1 PUSH1 0x7 ADD DUP1 SLOAD PUSH2 0x5F7 SWAP1 PUSH2 0x1962 JUMP JUMPDEST DUP1 PUSH1 0x1F ADD PUSH1 0x20 DUP1 SWAP2 DIV MUL PUSH1 0x20 ADD PUSH1 0x40 MLOAD SWAP1 DUP2 ADD PUSH1 0x40 MSTORE DUP1 SWAP3 SWAP2 SWAP1 DUP2 DUP2 MSTORE PUSH1 0x20 ADD DUP3 DUP1 SLOAD PUSH2 0x623 SWAP1 PUSH2 0x1962 JUMP JUMPDEST DUP1 ISZERO PUSH2 0x670 JUMPI DUP1 PUSH1 0x1F LT PUSH2 0x645 JUMPI PUSH2 0x100 DUP1 DUP4 SLOAD DIV MUL DUP4 MSTORE SWAP2 PUSH1 0x20 ADD SWAP2 PUSH2 0x670 JUMP JUMPDEST DUP3 ADD SWAP2 SWAP1 PUSH1 0x0 MSTORE PUSH1 0x20 PUSH1 0x0 KECCAK256 SWAP1 JUMPDEST DUP2 SLOAD DUP2 MSTORE SWAP1 PUSH1 0x1 ADD SWAP1 PUSH1 0x20 ADD DUP1 DUP4 GT PUSH2 0x653 JUMPI DUP3 SWAP1 SUB PUSH1 0x1F AND DUP3 ADD SWAP2 JUMPDEST POP POP POP POP POP SWAP1 POP DUP9 JUMP JUMPDEST DUP1 PUSH1 0x1 DUP4 DUP2 SLOAD DUP2 LT PUSH2 0x68F JUMPI PUSH2 0x68E PUSH2 0x1993 JUMP JUMPDEST JUMPDEST SWAP1 PUSH1 0x0 MSTORE PUSH1 0x20 PUSH1 0x0 KECCAK256 SWAP1 PUSH1 0x8 MUL ADD PUSH1 0x2 ADD DUP2 SWAP1 SSTORE POP PUSH1 0x0 JUMPDEST PUSH1 0x2 PUSH1 0x0 PUSH1 0x1 DUP2 MSTORE PUSH1 0x20 ADD SWAP1 DUP2 MSTORE PUSH1 0x20 ADD PUSH1 0x0 KECCAK256 DUP1 SLOAD SWAP1 POP DUP2 LT ISZERO PUSH2 0x70D JUMPI DUP3 PUSH1 0x2 PUSH1 0x0 PUSH1 0x1 DUP2 MSTORE PUSH1 0x20 ADD SWAP1 DUP2 MSTORE PUSH1 0x20 ADD PUSH1 0x0 KECCAK256 DUP3 DUP2 SLOAD DUP2 LT PUSH2 0x6ED JUMPI PUSH2 0x6EC PUSH2 0x1993 JUMP JUMPDEST JUMPDEST SWAP1 PUSH1 0x0 MSTORE PUSH1 0x20 PUSH1 0x0 KECCAK256 SWAP1 POP POP POP DUP1 DUP1 PUSH2 0x705 SWAP1 PUSH2 0x19F1 JUMP JUMPDEST SWAP2 POP POP PUSH2 0x6A7 JUMP JUMPDEST POP PUSH1 0x2 PUSH1 0x0 PUSH1 0x3 DUP2 MSTORE PUSH1 0x20 ADD SWAP1 DUP2 MSTORE PUSH1 0x20 ADD PUSH1 0x0 KECCAK256 PUSH1 0x1 DUP4 DUP2 SLOAD DUP2 LT PUSH2 0x736 JUMPI PUSH2 0x735 PUSH2 0x1993 JUMP JUMPDEST JUMPDEST SWAP1 PUSH1 0x0 MSTORE PUSH1 0x20 PUSH1 0x0 KECCAK256 SWAP1 PUSH1 0x8 MUL ADD SWAP1 DUP1 PUSH1 0x1 DUP2 SLOAD ADD DUP1 DUP3 SSTORE DUP1 SWAP2 POP POP PUSH1 0x1 SWAP1 SUB SWAP1 PUSH1 0x0 MSTORE PUSH1 0x20 PUSH1 0x0 KECCAK256 SWAP1 PUSH1 0x8 MUL ADD PUSH1 0x0 SWAP1 SWAP2 SWAP1 SWAP2 SWAP1 SWAP2 POP PUSH1 0x0 DUP3 ADD SLOAD DUP2 PUSH1 0x0 ADD SSTORE PUSH1 0x1 DUP3 ADD DUP2 PUSH1 0x1 ADD SWAP1 DUP2 PUSH2 0x78B SWAP2 SWAP1 PUSH2 0x1BFB JUMP JUMPDEST POP PUSH1 0x2 DUP3 ADD SLOAD DUP2 PUSH1 0x2 ADD SSTORE PUSH1 0x3 DUP3 ADD PUSH1 0x0 SWAP1 SLOAD SWAP1 PUSH2 0x100 EXP SWAP1 DIV PUSH20 0xFFFFFFFFFFFFFFFFFFFFFFFFFFFFFFFFFFFFFFFF AND DUP2 PUSH1 0x3 ADD PUSH1 0x0 PUSH2 0x100 EXP DUP2 SLOAD DUP2 PUSH20 0xFFFFFFFFFFFFFFFFFFFFFFFFFFFFFFFFFFFFFFFF MUL NOT AND SWAP1 DUP4 PUSH20 0xFFFFFFFFFFFFFFFFFFFFFFFFFFFFFFFFFFFFFFFF AND MUL OR SWAP1 SSTORE POP PUSH1 0x4 DUP3 ADD PUSH1 0x0 SWAP1 SLOAD SWAP1 PUSH2 0x100 EXP SWAP1 DIV PUSH20 0xFFFFFFFFFFFFFFFFFFFFFFFFFFFFFFFFFFFFFFFF AND DUP2 PUSH1 0x4 ADD PUSH1 0x0 PUSH2 0x100 EXP DUP2 SLOAD DUP2 PUSH20 0xFFFFFFFFFFFFFFFFFFFFFFFFFFFFFFFFFFFFFFFF MUL NOT AND SWAP1 DUP4 PUSH20 0xFFFFFFFFFFFFFFFFFFFFFFFFFFFFFFFFFFFFFFFF AND MUL OR SWAP1 SSTORE POP PUSH1 0x5 DUP3 ADD SLOAD DUP2 PUSH1 0x5 ADD SSTORE PUSH1 0x6 DUP3 ADD DUP2 PUSH1 0x6 ADD SWAP1 DUP2 PUSH2 0x882 SWAP2 SWAP1 PUSH2 0x1BFB JUMP JUMPDEST POP PUSH1 0x7 DUP3 ADD DUP2 PUSH1 0x7 ADD SWAP1 DUP2 PUSH2 0x897 SWAP2 SWAP1 PUSH2 0x1BFB JUMP JUMPDEST POP POP POP POP POP JUMP JUMPDEST PUSH1 0x60 PUSH1 0x0 DUP3 SUB PUSH2 0xB88 JUMPI PUSH1 0x1 DUP1 SLOAD DUP1 PUSH1 0x20 MUL PUSH1 0x20 ADD PUSH1 0x40 MLOAD SWAP1 DUP2 ADD PUSH1 0x40 MSTORE DUP1 SWAP3 SWAP2 SWAP1 DUP2 DUP2 MSTORE PUSH1 0x20 ADD PUSH1 0x0 SWAP1 JUMPDEST DUP3 DUP3 LT ISZERO PUSH2 0xB7D JUMPI DUP4 DUP3 SWAP1 PUSH1 0x0 MSTORE PUSH1 0x20 PUSH1 0x0 KECCAK256 SWAP1 PUSH1 0x8 MUL ADD PUSH1 0x40 MLOAD DUP1 PUSH2 0x100 ADD PUSH1 0x40 MSTORE SWAP1 DUP2 PUSH1 0x0 DUP3 ADD SLOAD DUP2 MSTORE PUSH1 0x20 ADD PUSH1 0x1 DUP3 ADD DUP1 SLOAD PUSH2 0x908 SWAP1 PUSH2 0x1962 JUMP JUMPDEST DUP1 PUSH1 0x1F ADD PUSH1 0x20 DUP1 SWAP2 DIV MUL PUSH1 0x20 ADD PUSH1 0x40 MLOAD SWAP1 DUP2 ADD PUSH1 0x40 MSTORE DUP1 SWAP3 SWAP2 SWAP1 DUP2 DUP2 MSTORE PUSH1 0x20 ADD DUP3 DUP1 SLOAD PUSH2 0x934 SWAP1 PUSH2 0x1962 JUMP JUMPDEST DUP1 ISZERO PUSH2 0x981 JUMPI DUP1 PUSH1 0x1F LT PUSH2 0x956 JUMPI PUSH2 0x100 DUP1 DUP4 SLOAD DIV MUL DUP4 MSTORE SWAP2 PUSH1 0x20 ADD SWAP2 PUSH2 0x981 JUMP JUMPDEST DUP3 ADD SWAP2 SWAP1 PUSH1 0x0 MSTORE PUSH1 0x20 PUSH1 0x0 KECCAK256 SWAP1 JUMPDEST DUP2 SLOAD DUP2 MSTORE SWAP1 PUSH1 0x1 ADD SWAP1 PUSH1 0x20 ADD DUP1 DUP4 GT PUSH2 0x964 JUMPI DUP3 SWAP1 SUB PUSH1 0x1F AND DUP3 ADD SWAP2 JUMPDEST POP POP POP POP POP DUP2 MSTORE PUSH1 0x20 ADD PUSH1 0x2 DUP3 ADD SLOAD DUP2 MSTORE PUSH1 0x20 ADD PUSH1 0x3 DUP3 ADD PUSH1 0x0 SWAP1 SLOAD SWAP1 PUSH2 0x100 EXP SWAP1 DIV PUSH20 0xFFFFFFFFFFFFFFFFFFFFFFFFFFFFFFFFFFFFFFFF AND PUSH20 0xFFFFFFFFFFFFFFFFFFFFFFFFFFFFFFFFFFFFFFFF AND PUSH20 0xFFFFFFFFFFFFFFFFFFFFFFFFFFFFFFFFFFFFFFFF AND DUP2 MSTORE PUSH1 0x20 ADD PUSH1 0x4 DUP3 ADD PUSH1 0x0 SWAP1 SLOAD SWAP1 PUSH2 0x100 EXP SWAP1 DIV PUSH20 0xFFFFFFFFFFFFFFFFFFFFFFFFFFFFFFFFFFFFFFFF AND PUSH20 0xFFFFFFFFFFFFFFFFFFFFFFFFFFFFFFFFFFFFFFFF AND PUSH20 0xFFFFFFFFFFFFFFFFFFFFFFFFFFFFFFFFFFFFFFFF AND DUP2 MSTORE PUSH1 0x20 ADD PUSH1 0x5 DUP3 ADD SLOAD DUP2 MSTORE PUSH1 0x20 ADD PUSH1 0x6 DUP3 ADD DUP1 SLOAD PUSH2 0xA5A SWAP1 PUSH2 0x1962 JUMP JUMPDEST DUP1 PUSH1 0x1F ADD PUSH1 0x20 DUP1 SWAP2 DIV MUL PUSH1 0x20 ADD PUSH1 0x40 MLOAD SWAP1 DUP2 ADD PUSH1 0x40 MSTORE DUP1 SWAP3 SWAP2 SWAP1 DUP2 DUP2 MSTORE PUSH1 0x20 ADD DUP3 DUP1 SLOAD PUSH2 0xA86 SWAP1 PUSH2 0x1962 JUMP JUMPDEST DUP1 ISZERO PUSH2 0xAD3 JUMPI DUP1 PUSH1 0x1F LT PUSH2 0xAA8 JUMPI PUSH2 0x100 DUP1 DUP4 SLOAD DIV MUL DUP4 MSTORE SWAP2 PUSH1 0x20 ADD SWAP2 PUSH2 0xAD3 JUMP JUMPDEST DUP3 ADD SWAP2 SWAP1 PUSH1 0x0 MSTORE PUSH1 0x20 PUSH1 0x0 KECCAK256 SWAP1 JUMPDEST DUP2 SLOAD DUP2 MSTORE SWAP1 PUSH1 0x1 ADD SWAP1 PUSH1 0x20 ADD DUP1 DUP4 GT PUSH2 0xAB6 JUMPI DUP3 SWAP1 SUB PUSH1 0x1F AND DUP3 ADD SWAP2 JUMPDEST POP POP POP POP POP DUP2 MSTORE PUSH1 0x20 ADD PUSH1 0x7 DUP3 ADD DUP1 SLOAD PUSH2 0xAEC SWAP1 PUSH2 0x1962 JUMP JUMPDEST DUP1 PUSH1 0x1F ADD PUSH1 0x20 DUP1 SWAP2 DIV MUL PUSH1 0x20 ADD PUSH1 0x40 MLOAD SWAP1 DUP2 ADD PUSH1 0x40 MSTORE DUP1 SWAP3 SWAP2 SWAP1 DUP2 DUP2 MSTORE PUSH1 0x20 ADD DUP3 DUP1 SLOAD PUSH2 0xB18 SWAP1 PUSH2 0x1962 JUMP JUMPDEST DUP1 ISZERO PUSH2 0xB65 JUMPI DUP1 PUSH1 0x1F LT PUSH2 0xB3A JUMPI PUSH2 0x100 DUP1 DUP4 SLOAD DIV MUL DUP4 MSTORE SWAP2 PUSH1 0x20 ADD SWAP2 PUSH2 0xB65 JUMP JUMPDEST DUP3 ADD SWAP2 SWAP1 PUSH1 0x0 MSTORE PUSH1 0x20 PUSH1 0x0 KECCAK256 SWAP1 JUMPDEST DUP2 SLOAD DUP2 MSTORE SWAP1 PUSH1 0x1 ADD SWAP1 PUSH1 0x20 ADD DUP1 DUP4 GT PUSH2 0xB48 JUMPI DUP3 SWAP1 SUB PUSH1 0x1F AND DUP3 ADD SWAP2 JUMPDEST POP POP POP POP POP DUP2 MSTORE POP POP DUP2 MSTORE PUSH1 0x20 ADD SWAP1 PUSH1 0x1 ADD SWAP1 PUSH2 0x8CA JUMP JUMPDEST POP POP POP POP SWAP1 POP PUSH2 0xE75 JUMP JUMPDEST PUSH1 0x2 PUSH1 0x0 DUP4 DUP2 MSTORE PUSH1 0x20 ADD SWAP1 DUP2 MSTORE PUSH1 0x20 ADD PUSH1 0x0 KECCAK256 DUP1 SLOAD DUP1 PUSH1 0x20 MUL PUSH1 0x20 ADD PUSH1 0x40 MLOAD SWAP1 DUP2 ADD PUSH1 0x40 MSTORE DUP1 SWAP3 SWAP2 SWAP1 DUP2 DUP2 MSTORE PUSH1 0x20 ADD PUSH1 0x0 SWAP1 JUMPDEST DUP3 DUP3 LT ISZERO PUSH2 0xE6E JUMPI DUP4 DUP3 SWAP1 PUSH1 0x0 MSTORE PUSH1 0x20 PUSH1 0x0 KECCAK256 SWAP1 PUSH1 0x8 MUL ADD PUSH1 0x40 MLOAD DUP1 PUSH2 0x100 ADD PUSH1 0x40 MSTORE SWAP1 DUP2 PUSH1 0x0 DUP3 ADD SLOAD DUP2 MSTORE PUSH1 0x20 ADD PUSH1 0x1 DUP3 ADD DUP1 SLOAD PUSH2 0xBF9 SWAP1 PUSH2 0x1962 JUMP JUMPDEST DUP1 PUSH1 0x1F ADD PUSH1 0x20 DUP1 SWAP2 DIV MUL PUSH1 0x20 ADD PUSH1 0x40 MLOAD SWAP1 DUP2 ADD PUSH1 0x40 MSTORE DUP1 SWAP3 SWAP2 SWAP1 DUP2 DUP2 MSTORE PUSH1 0x20 ADD DUP3 DUP1 SLOAD PUSH2 0xC25 SWAP1 PUSH2 0x1962 JUMP JUMPDEST DUP1 ISZERO PUSH2 0xC72 JUMPI DUP1 PUSH1 0x1F LT PUSH2 0xC47 JUMPI PUSH2 0x100 DUP1 DUP4 SLOAD DIV MUL DUP4 MSTORE SWAP2 PUSH1 0x20 ADD SWAP2 PUSH2 0xC72 JUMP JUMPDEST DUP3 ADD SWAP2 SWAP1 PUSH1 0x0 MSTORE PUSH1 0x20 PUSH1 0x0 KECCAK256 SWAP1 JUMPDEST DUP2 SLOAD DUP2 MSTORE SWAP1 PUSH1 0x1 ADD SWAP1 PUSH1 0x20 ADD DUP1 DUP4 GT PUSH2 0xC55 JUMPI DUP3 SWAP1 SUB PUSH1 0x1F AND DUP3 ADD SWAP2 JUMPDEST POP POP POP POP POP DUP2 MSTORE PUSH1 0x20 ADD PUSH1 0x2 DUP3 ADD SLOAD DUP2 MSTORE PUSH1 0x20 ADD PUSH1 0x3 DUP3 ADD PUSH1 0x0 SWAP1 SLOAD SWAP1 PUSH2 0x100 EXP SWAP1 DIV PUSH20 0xFFFFFFFFFFFFFFFFFFFFFFFFFFFFFFFFFFFFFFFF AND PUSH20 0xFFFFFFFFFFFFFFFFFFFFFFFFFFFFFFFFFFFFFFFF AND PUSH20 0xFFFFFFFFFFFFFFFFFFFFFFFFFFFFFFFFFFFFFFFF AND DUP2 MSTORE PUSH1 0x20 ADD PUSH1 0x4 DUP3 ADD PUSH1 0x0 SWAP1 SLOAD SWAP1 PUSH2 0x100 EXP SWAP1 DIV PUSH20 0xFFFFFFFFFFFFFFFFFFFFFFFFFFFFFFFFFFFFFFFF AND PUSH20 0xFFFFFFFFFFFFFFFFFFFFFFFFFFFFFFFFFFFFFFFF AND PUSH20 0xFFFFFFFFFFFFFFFFFFFFFFFFFFFFFFFFFFFFFFFF AND DUP2 MSTORE PUSH1 0x20 ADD PUSH1 0x5 DUP3 ADD SLOAD DUP2 MSTORE PUSH1 0x20 ADD PUSH1 0x6 DUP3 ADD DUP1 SLOAD PUSH2 0xD4B SWAP1 PUSH2 0x1962 JUMP JUMPDEST DUP1 PUSH1 0x1F ADD PUSH1 0x20 DUP1 SWAP2 DIV MUL PUSH1 0x20 ADD PUSH1 0x40 MLOAD SWAP1 DUP2 ADD PUSH1 0x40 MSTORE DUP1 SWAP3 SWAP2 SWAP1 DUP2 DUP2 MSTORE PUSH1 0x20 ADD DUP3 DUP1 SLOAD PUSH2 0xD77 SWAP1 PUSH2 0x1962 JUMP JUMPDEST DUP1 ISZERO PUSH2 0xDC4 JUMPI DUP1 PUSH1 0x1F LT PUSH2 0xD99 JUMPI PUSH2 0x100 DUP1 DUP4 SLOAD DIV MUL DUP4 MSTORE SWAP2 PUSH1 0x20 ADD SWAP2 PUSH2 0xDC4 JUMP JUMPDEST DUP3 ADD SWAP2 SWAP1 PUSH1 0x0 MSTORE PUSH1 0x20 PUSH1 0x0 KECCAK256 SWAP1 JUMPDEST DUP2 SLOAD DUP2 MSTORE SWAP1 PUSH1 0x1 ADD SWAP1 PUSH1 0x20 ADD DUP1 DUP4 GT PUSH2 0xDA7 JUMPI DUP3 SWAP1 SUB PUSH1 0x1F AND DUP3 ADD SWAP2 JUMPDEST POP POP POP POP POP DUP2 MSTORE PUSH1 0x20 ADD PUSH1 0x7 DUP3 ADD DUP1 SLOAD PUSH2 0xDDD SWAP1 PUSH2 0x1962 JUMP JUMPDEST DUP1 PUSH1 0x1F ADD PUSH1 0x20 DUP1 SWAP2 DIV MUL PUSH1 0x20 ADD PUSH1 0x40 MLOAD SWAP1 DUP2 ADD PUSH1 0x40 MSTORE DUP1 SWAP3 SWAP2 SWAP1 DUP2 DUP2 MSTORE PUSH1 0x20 ADD DUP3 DUP1 SLOAD PUSH2 0xE09 SWAP1 PUSH2 0x1962 JUMP JUMPDEST DUP1 ISZERO PUSH2 0xE56 JUMPI DUP1 PUSH1 0x1F LT PUSH2 0xE2B JUMPI PUSH2 0x100 DUP1 DUP4 SLOAD DIV MUL DUP4 MSTORE SWAP2 PUSH1 0x20 ADD SWAP2 PUSH2 0xE56 JUMP JUMPDEST DUP3 ADD SWAP2 SWAP1 PUSH1 0x0 MSTORE PUSH1 0x20 PUSH1 0x0 KECCAK256 SWAP1 JUMPDEST DUP2 SLOAD DUP2 MSTORE SWAP1 PUSH1 0x1 ADD SWAP1 PUSH1 0x20 ADD DUP1 DUP4 GT PUSH2 0xE39 JUMPI DUP3 SWAP1 SUB PUSH1 0x1F AND DUP3 ADD SWAP2 JUMPDEST POP POP POP POP POP DUP2 MSTORE POP POP DUP2 MSTORE PUSH1 0x20 ADD SWAP1 PUSH1 0x1 ADD SWAP1 PUSH2 0xBBB JUMP JUMPDEST POP POP POP POP SWAP1 POP JUMPDEST SWAP2 SWAP1 POP JUMP JUMPDEST PUSH1 0x0 DUP1 DUP2 SLOAD DUP1 SWAP3 SWAP2 SWAP1 PUSH2 0xE8C SWAP1 PUSH2 0x19F1 JUMP JUMPDEST SWAP2 SWAP1 POP SSTORE POP PUSH1 0x0 PUSH1 0x40 MLOAD DUP1 PUSH2 0x100 ADD PUSH1 0x40 MSTORE DUP1 PUSH1 0x0 SLOAD DUP2 MSTORE PUSH1 0x20 ADD DUP6 DUP2 MSTORE PUSH1 0x20 ADD PUSH1 0x0 DUP2 MSTORE PUSH1 0x20 ADD CALLER PUSH20 0xFFFFFFFFFFFFFFFFFFFFFFFFFFFFFFFFFFFFFFFF AND DUP2 MSTORE PUSH1 0x20 ADD DUP5 PUSH20 0xFFFFFFFFFFFFFFFFFFFFFFFFFFFFFFFFFFFFFFFF AND DUP2 MSTORE PUSH1 0x20 ADD PUSH1 0x0 DUP2 MSTORE PUSH1 0x20 ADD DUP4 DUP2 MSTORE PUSH1 0x20 ADD PUSH1 0x40 MLOAD DUP1 PUSH1 0x40 ADD PUSH1 0x40 MSTORE DUP1 PUSH1 0x1 DUP2 MSTORE PUSH1 0x20 ADD PUSH32 0x3000000000000000000000000000000000000000000000000000000000000000 DUP2 MSTORE POP DUP2 MSTORE POP SWAP1 POP PUSH1 0x1 DUP2 SWAP1 DUP1 PUSH1 0x1 DUP2 SLOAD ADD DUP1 DUP3 SSTORE DUP1 SWAP2 POP POP PUSH1 0x1 SWAP1 SUB SWAP1 PUSH1 0x0 MSTORE PUSH1 0x20 PUSH1 0x0 KECCAK256 SWAP1 PUSH1 0x8 MUL ADD PUSH1 0x0 SWAP1 SWAP2 SWAP1 SWAP2 SWAP1 SWAP2 POP PUSH1 0x0 DUP3 ADD MLOAD DUP2 PUSH1 0x0 ADD SSTORE PUSH1 0x20 DUP3 ADD MLOAD DUP2 PUSH1 0x1 ADD SWAP1 DUP2 PUSH2 0xF7F SWAP2 SWAP1 PUSH2 0x1CE3 JUMP JUMPDEST POP PUSH1 0x40 DUP3 ADD MLOAD DUP2 PUSH1 0x2 ADD SSTORE PUSH1 0x60 DUP3 ADD MLOAD DUP2 PUSH1 0x3 ADD PUSH1 0x0 PUSH2 0x100 EXP DUP2 SLOAD DUP2 PUSH20 0xFFFFFFFFFFFFFFFFFFFFFFFFFFFFFFFFFFFFFFFF MUL NOT AND SWAP1 DUP4 PUSH20 0xFFFFFFFFFFFFFFFFFFFFFFFFFFFFFFFFFFFFFFFF AND MUL OR SWAP1 SSTORE POP PUSH1 0x80 DUP3 ADD MLOAD DUP2 PUSH1 0x4 ADD PUSH1 0x0 PUSH2 0x100 EXP DUP2 SLOAD DUP2 PUSH20 0xFFFFFFFFFFFFFFFFFFFFFFFFFFFFFFFFFFFFFFFF MUL NOT AND SWAP1 DUP4 PUSH20 0xFFFFFFFFFFFFFFFFFFFFFFFFFFFFFFFFFFFFFFFF AND MUL OR SWAP1 SSTORE POP PUSH1 0xA0 DUP3 ADD MLOAD DUP2 PUSH1 0x5 ADD SSTORE PUSH1 0xC0 DUP3 ADD MLOAD DUP2 PUSH1 0x6 ADD SWAP1 DUP2 PUSH2 0x1037 SWAP2 SWAP1 PUSH2 0x1CE3 JUMP JUMPDEST POP PUSH1 0xE0 DUP3 ADD MLOAD DUP2 PUSH1 0x7 ADD SWAP1 DUP2 PUSH2 0x104D SWAP2 SWAP1 PUSH2 0x1CE3 JUMP JUMPDEST POP POP POP PUSH1 0x2 PUSH1 0x0 PUSH1 0x1 DUP2 MSTORE PUSH1 0x20 ADD SWAP1 DUP2 MSTORE PUSH1 0x20 ADD PUSH1 0x0 KECCAK256 DUP2 SWAP1 DUP1 PUSH1 0x1 DUP2 SLOAD ADD DUP1 DUP3 SSTORE DUP1 SWAP2 POP POP PUSH1 0x1 SWAP1 SUB SWAP1 PUSH1 0x0 MSTORE PUSH1 0x20 PUSH1 0x0 KECCAK256 SWAP1 PUSH1 0x8 MUL ADD PUSH1 0x0 SWAP1 SWAP2 SWAP1 SWAP2 SWAP1 SWAP2 POP PUSH1 0x0 DUP3 ADD MLOAD DUP2 PUSH1 0x0 ADD SSTORE PUSH1 0x20 DUP3 ADD MLOAD DUP2 PUSH1 0x1 ADD SWAP1 DUP2 PUSH2 0x10AD SWAP2 SWAP1 PUSH2 0x1CE3 JUMP JUMPDEST POP PUSH1 0x40 DUP3 ADD MLOAD DUP2 PUSH1 0x2 ADD SSTORE PUSH1 0x60 DUP3 ADD MLOAD DUP2 PUSH1 0x3 ADD PUSH1 0x0 PUSH2 0x100 EXP DUP2 SLOAD DUP2 PUSH20 0xFFFFFFFFFFFFFFFFFFFFFFFFFFFFFFFFFFFFFFFF MUL NOT AND SWAP1 DUP4 PUSH20 0xFFFFFFFFFFFFFFFFFFFFFFFFFFFFFFFFFFFFFFFF AND MUL OR SWAP1 SSTORE POP PUSH1 0x80 DUP3 ADD MLOAD DUP2 PUSH1 0x4 ADD PUSH1 0x0 PUSH2 0x100 EXP DUP2 SLOAD DUP2 PUSH20 0xFFFFFFFFFFFFFFFFFFFFFFFFFFFFFFFFFFFFFFFF MUL NOT AND SWAP1 DUP4 PUSH20 0xFFFFFFFFFFFFFFFFFFFFFFFFFFFFFFFFFFFFFFFF AND MUL OR SWAP1 SSTORE POP PUSH1 0xA0 DUP3 ADD MLOAD DUP2 PUSH1 0x5 ADD SSTORE PUSH1 0xC0 DUP3 ADD MLOAD DUP2 PUSH1 0x6 ADD SWAP1 DUP2 PUSH2 0x1165 SWAP2 SWAP1 PUSH2 0x1CE3 JUMP JUMPDEST POP PUSH1 0xE0 DUP3 ADD MLOAD DUP2 PUSH1 0x7 ADD SWAP1 DUP2 PUSH2 0x117B SWAP2 SWAP1 PUSH2 0x1CE3 JUMP JUMPDEST POP POP POP PUSH1 0x3 PUSH1 0x0 CALLER PUSH20 0xFFFFFFFFFFFFFFFFFFFFFFFFFFFFFFFFFFFFFFFF AND PUSH20 0xFFFFFFFFFFFFFFFFFFFFFFFFFFFFFFFFFFFFFFFF AND DUP2 MSTORE PUSH1 0x20 ADD SWAP1 DUP2 MSTORE PUSH1 0x20 ADD PUSH1 0x0 KECCAK256 DUP2 SWAP1 DUP1 PUSH1 0x1 DUP2 SLOAD ADD DUP1 DUP3 SSTORE DUP1 SWAP2 POP POP PUSH1 0x1 SWAP1 SUB SWAP1 PUSH1 0x0 MSTORE PUSH1 0x20 PUSH1 0x0 KECCAK256 SWAP1 PUSH1 0x8 MUL ADD PUSH1 0x0 SWAP1 SWAP2 SWAP1 SWAP2 SWAP1 SWAP2 POP PUSH1 0x0 DUP3 ADD MLOAD DUP2 PUSH1 0x0 ADD SSTORE PUSH1 0x20 DUP3 ADD MLOAD DUP2 PUSH1 0x1 ADD SWAP1 DUP2 PUSH2 0x1206 SWAP2 SWAP1 PUSH2 0x1CE3 JUMP JUMPDEST POP PUSH1 0x40 DUP3 ADD MLOAD DUP2 PUSH1 0x2 ADD SSTORE PUSH1 0x60 DUP3 ADD MLOAD DUP2 PUSH1 0x3 ADD PUSH1 0x0 PUSH2 0x100 EXP DUP2 SLOAD DUP2 PUSH20 0xFFFFFFFFFFFFFFFFFFFFFFFFFFFFFFFFFFFFFFFF MUL NOT AND SWAP1 DUP4 PUSH20 0xFFFFFFFFFFFFFFFFFFFFFFFFFFFFFFFFFFFFFFFF AND MUL OR SWAP1 SSTORE POP PUSH1 0x80 DUP3 ADD MLOAD DUP2 PUSH1 0x4 ADD PUSH1 0x0 PUSH2 0x100 EXP DUP2 SLOAD DUP2 PUSH20 0xFFFFFFFFFFFFFFFFFFFFFFFFFFFFFFFFFFFFFFFF MUL NOT AND SWAP1 DUP4 PUSH20 0xFFFFFFFFFFFFFFFFFFFFFFFFFFFFFFFFFFFFFFFF AND MUL OR SWAP1 SSTORE POP PUSH1 0xA0 DUP3 ADD MLOAD DUP2 PUSH1 0x5 ADD SSTORE PUSH1 0xC0 DUP3 ADD MLOAD DUP2 PUSH1 0x6 ADD SWAP1 DUP2 PUSH2 0x12BE SWAP2 SWAP1 PUSH2 0x1CE3 JUMP JUMPDEST POP PUSH1 0xE0 DUP3 ADD MLOAD DUP2 PUSH1 0x7 ADD SWAP1 DUP2 PUSH2 0x12D4 SWAP2 SWAP1 PUSH2 0x1CE3 JUMP JUMPDEST POP POP POP POP POP POP POP JUMP JUMPDEST PUSH1 0x0 PUSH1 0x40 MLOAD SWAP1 POP SWAP1 JUMP JUMPDEST PUSH1 0x0 DUP1 REVERT JUMPDEST PUSH1 0x0 DUP1 REVERT JUMPDEST PUSH1 0x0 PUSH20 0xFFFFFFFFFFFFFFFFFFFFFFFFFFFFFFFFFFFFFFFF DUP3 AND SWAP1 POP SWAP2 SWAP1 POP JUMP JUMPDEST PUSH1 0x0 PUSH2 0x131C DUP3 PUSH2 0x12F1 JUMP JUMPDEST SWAP1 POP SWAP2 SWAP1 POP JUMP JUMPDEST PUSH2 0x132C DUP2 PUSH2 0x1311 JUMP JUMPDEST DUP2 EQ PUSH2 0x1337 JUMPI PUSH1 0x0 DUP1 REVERT JUMPDEST POP JUMP JUMPDEST PUSH1 0x0 DUP2 CALLDATALOAD SWAP1 POP PUSH2 0x1349 DUP2 PUSH2 0x1323 JUMP JUMPDEST SWAP3 SWAP2 POP POP JUMP JUMPDEST PUSH1 0x0 PUSH1 0x20 DUP3 DUP5 SUB SLT ISZERO PUSH2 0x1365 JUMPI PUSH2 0x1364 PUSH2 0x12E7 JUMP JUMPDEST JUMPDEST PUSH1 0x0 PUSH2 0x1373 DUP5 DUP3 DUP6 ADD PUSH2 0x133A JUMP JUMPDEST SWAP2 POP POP SWAP3 SWAP2 POP POP JUMP JUMPDEST PUSH1 0x0 DUP2 MLOAD SWAP1 POP SWAP2 SWAP1 POP JUMP JUMPDEST PUSH1 0x0 DUP3 DUP3 MSTORE PUSH1 0x20 DUP3 ADD SWAP1 POP SWAP3 SWAP2 POP POP JUMP JUMPDEST PUSH1 0x0 DUP2 SWAP1 POP PUSH1 0x20 DUP3 ADD SWAP1 POP SWAP2 SWAP1 POP JUMP JUMPDEST PUSH1 0x0 DUP2 SWAP1 POP SWAP2 SWAP1 POP JUMP JUMPDEST PUSH2 0x13BB DUP2 PUSH2 0x13A8 JUMP JUMPDEST DUP3 MSTORE POP POP JUMP JUMPDEST PUSH1 0x0 DUP2 MLOAD SWAP1 POP SWAP2 SWAP1 POP JUMP JUMPDEST PUSH1 0x0 DUP3 DUP3 MSTORE PUSH1 0x20 DUP3 ADD SWAP1 POP SWAP3 SWAP2 POP POP JUMP JUMPDEST PUSH1 0x0 JUMPDEST DUP4 DUP2 LT ISZERO PUSH2 0x13FB JUMPI DUP1 DUP3 ADD MLOAD DUP2 DUP5 ADD MSTORE PUSH1 0x20 DUP2 ADD SWAP1 POP PUSH2 0x13E0 JUMP JUMPDEST DUP4 DUP2 GT ISZERO PUSH2 0x140A JUMPI PUSH1 0x0 DUP5 DUP5 ADD MSTORE JUMPDEST POP POP POP POP JUMP JUMPDEST PUSH1 0x0 PUSH1 0x1F NOT PUSH1 0x1F DUP4 ADD AND SWAP1 POP SWAP2 SWAP1 POP JUMP JUMPDEST PUSH1 0x0 PUSH2 0x142C DUP3 PUSH2 0x13C1 JUMP JUMPDEST PUSH2 0x1436 DUP2 DUP6 PUSH2 0x13CC JUMP JUMPDEST SWAP4 POP PUSH2 0x1446 DUP2 DUP6 PUSH1 0x20 DUP7 ADD PUSH2 0x13DD JUMP JUMPDEST PUSH2 0x144F DUP2 PUSH2 0x1410 JUMP JUMPDEST DUP5 ADD SWAP2 POP POP SWAP3 SWAP2 POP POP JUMP JUMPDEST PUSH2 0x1463 DUP2 PUSH2 0x1311 JUMP JUMPDEST DUP3 MSTORE POP POP JUMP JUMPDEST PUSH1 0x0 PUSH2 0x100 DUP4 ADD PUSH1 0x0 DUP4 ADD MLOAD PUSH2 0x1482 PUSH1 0x0 DUP7 ADD DUP3 PUSH2 0x13B2 JUMP JUMPDEST POP PUSH1 0x20 DUP4 ADD MLOAD DUP5 DUP3 SUB PUSH1 0x20 DUP7 ADD MSTORE PUSH2 0x149A DUP3 DUP3 PUSH2 0x1421 JUMP JUMPDEST SWAP2 POP POP PUSH1 0x40 DUP4 ADD MLOAD PUSH2 0x14AF PUSH1 0x40 DUP7 ADD DUP3 PUSH2 0x13B2 JUMP JUMPDEST POP PUSH1 0x60 DUP4 ADD MLOAD PUSH2 0x14C2 PUSH1 0x60 DUP7 ADD DUP3 PUSH2 0x145A JUMP JUMPDEST POP PUSH1 0x80 DUP4 ADD MLOAD PUSH2 0x14D5 PUSH1 0x80 DUP7 ADD DUP3 PUSH2 0x145A JUMP JUMPDEST POP PUSH1 0xA0 DUP4 ADD MLOAD PUSH2 0x14E8 PUSH1 0xA0 DUP7 ADD DUP3 PUSH2 0x13B2 JUMP JUMPDEST POP PUSH1 0xC0 DUP4 ADD MLOAD DUP5 DUP3 SUB PUSH1 0xC0 DUP7 ADD MSTORE PUSH2 0x1500 DUP3 DUP3 PUSH2 0x1421 JUMP JUMPDEST SWAP2 POP POP PUSH1 0xE0 DUP4 ADD MLOAD DUP5 DUP3 SUB PUSH1 0xE0 DUP7 ADD MSTORE PUSH2 0x151A DUP3 DUP3 PUSH2 0x1421 JUMP JUMPDEST SWAP2 POP POP DUP1 SWAP2 POP POP SWAP3 SWAP2 POP POP JUMP JUMPDEST PUSH1 0x0 PUSH2 0x1533 DUP4 DUP4 PUSH2 0x1469 JUMP JUMPDEST SWAP1 POP SWAP3 SWAP2 POP POP JUMP JUMPDEST PUSH1 0x0 PUSH1 0x20 DUP3 ADD SWAP1 POP SWAP2 SWAP1 POP JUMP JUMPDEST PUSH1 0x0 PUSH2 0x1553 DUP3 PUSH2 0x137C JUMP JUMPDEST PUSH2 0x155D DUP2 DUP6 PUSH2 0x1387 JUMP JUMPDEST SWAP4 POP DUP4 PUSH1 0x20 DUP3 MUL DUP6 ADD PUSH2 0x156F DUP6 PUSH2 0x1398 JUMP JUMPDEST DUP1 PUSH1 0x0 JUMPDEST DUP6 DUP2 LT ISZERO PUSH2 0x15AB JUMPI DUP5 DUP5 SUB DUP10 MSTORE DUP2 MLOAD PUSH2 0x158C DUP6 DUP3 PUSH2 0x1527 JUMP JUMPDEST SWAP5 POP PUSH2 0x1597 DUP4 PUSH2 0x153B JUMP JUMPDEST SWAP3 POP PUSH1 0x20 DUP11 ADD SWAP10 POP POP PUSH1 0x1 DUP2 ADD SWAP1 POP PUSH2 0x1573 JUMP JUMPDEST POP DUP3 SWAP8 POP DUP8 SWAP6 POP POP POP POP POP POP SWAP3 SWAP2 POP POP JUMP JUMPDEST PUSH1 0x0 PUSH1 0x20 DUP3 ADD SWAP1 POP DUP2 DUP2 SUB PUSH1 0x0 DUP4 ADD MSTORE PUSH2 0x15D7 DUP2 DUP5 PUSH2 0x1548 JUMP JUMPDEST SWAP1 POP SWAP3 SWAP2 POP POP JUMP JUMPDEST PUSH2 0x15E8 DUP2 PUSH2 0x13A8 JUMP JUMPDEST DUP2 EQ PUSH2 0x15F3 JUMPI PUSH1 0x0 DUP1 REVERT JUMPDEST POP JUMP JUMPDEST PUSH1 0x0 DUP2 CALLDATALOAD SWAP1 POP PUSH2 0x1605 DUP2 PUSH2 0x15DF JUMP JUMPDEST SWAP3 SWAP2 POP POP JUMP JUMPDEST PUSH1 0x0 PUSH1 0x20 DUP3 DUP5 SUB SLT ISZERO PUSH2 0x1621 JUMPI PUSH2 0x1620 PUSH2 0x12E7 JUMP JUMPDEST JUMPDEST PUSH1 0x0 PUSH2 0x162F DUP5 DUP3 DUP6 ADD PUSH2 0x15F6 JUMP JUMPDEST SWAP2 POP POP SWAP3 SWAP2 POP POP JUMP JUMPDEST PUSH2 0x1641 DUP2 PUSH2 0x13A8 JUMP JUMPDEST DUP3 MSTORE POP POP JUMP JUMPDEST PUSH1 0x0 DUP3 DUP3 MSTORE PUSH1 0x20 DUP3 ADD SWAP1 POP SWAP3 SWAP2 POP POP JUMP JUMPDEST PUSH1 0x0 PUSH2 0x1663 DUP3 PUSH2 0x13C1 JUMP JUMPDEST PUSH2 0x166D DUP2 DUP6 PUSH2 0x1647 JUMP JUMPDEST SWAP4 POP PUSH2 0x167D DUP2 DUP6 PUSH1 0x20 DUP7 ADD PUSH2 0x13DD JUMP JUMPDEST PUSH2 0x1686 DUP2 PUSH2 0x1410 JUMP JUMPDEST DUP5 ADD SWAP2 POP POP SWAP3 SWAP2 POP POP JUMP JUMPDEST PUSH2 0x169A DUP2 PUSH2 0x1311 JUMP JUMPDEST DUP3 MSTORE POP POP JUMP JUMPDEST PUSH1 0x0 PUSH2 0x100 DUP3 ADD SWAP1 POP PUSH2 0x16B6 PUSH1 0x0 DUP4 ADD DUP12 PUSH2 0x1638 JUMP JUMPDEST DUP2 DUP2 SUB PUSH1 0x20 DUP4 ADD MSTORE PUSH2 0x16C8 DUP2 DUP11 PUSH2 0x1658 JUMP JUMPDEST SWAP1 POP PUSH2 0x16D7 PUSH1 0x40 DUP4 ADD DUP10 PUSH2 0x1638 JUMP JUMPDEST PUSH2 0x16E4 PUSH1 0x60 DUP4 ADD DUP9 PUSH2 0x1691 JUMP JUMPDEST PUSH2 0x16F1 PUSH1 0x80 DUP4 ADD DUP8 PUSH2 0x1691 JUMP JUMPDEST PUSH2 0x16FE PUSH1 0xA0 DUP4 ADD DUP7 PUSH2 0x1638 JUMP JUMPDEST DUP2 DUP2 SUB PUSH1 0xC0 DUP4 ADD MSTORE PUSH2 0x1710 DUP2 DUP6 PUSH2 0x1658 JUMP JUMPDEST SWAP1 POP DUP2 DUP2 SUB PUSH1 0xE0 DUP4 ADD MSTORE PUSH2 0x1724 DUP2 DUP5 PUSH2 0x1658 JUMP JUMPDEST SWAP1 POP SWAP10 SWAP9 POP POP POP POP POP POP POP POP POP JUMP JUMPDEST PUSH1 0x0 DUP1 PUSH1 0x40 DUP4 DUP6 SUB SLT ISZERO PUSH2 0x174A JUMPI PUSH2 0x1749 PUSH2 0x12E7 JUMP JUMPDEST JUMPDEST PUSH1 0x0 PUSH2 0x1758 DUP6 DUP3 DUP7 ADD PUSH2 0x15F6 JUMP JUMPDEST SWAP3 POP POP PUSH1 0x20 PUSH2 0x1769 DUP6 DUP3 DUP7 ADD PUSH2 0x15F6 JUMP JUMPDEST SWAP2 POP POP SWAP3 POP SWAP3 SWAP1 POP JUMP JUMPDEST PUSH1 0x0 DUP1 REVERT JUMPDEST PUSH1 0x0 DUP1 REVERT JUMPDEST PUSH32 0x4E487B7100000000000000000000000000000000000000000000000000000000 PUSH1 0x0 MSTORE PUSH1 0x41 PUSH1 0x4 MSTORE PUSH1 0x24 PUSH1 0x0 REVERT JUMPDEST PUSH2 0x17B5 DUP3 PUSH2 0x1410 JUMP JUMPDEST DUP2 ADD DUP2 DUP2 LT PUSH8 0xFFFFFFFFFFFFFFFF DUP3 GT OR ISZERO PUSH2 0x17D4 JUMPI PUSH2 0x17D3 PUSH2 0x177D JUMP JUMPDEST JUMPDEST DUP1 PUSH1 0x40 MSTORE POP POP POP JUMP JUMPDEST PUSH1 0x0 PUSH2 0x17E7 PUSH2 0x12DD JUMP JUMPDEST SWAP1 POP PUSH2 0x17F3 DUP3 DUP3 PUSH2 0x17AC JUMP JUMPDEST SWAP2 SWAP1 POP JUMP JUMPDEST PUSH1 0x0 PUSH8 0xFFFFFFFFFFFFFFFF DUP3 GT ISZERO PUSH2 0x1813 JUMPI PUSH2 0x1812 PUSH2 0x177D JUMP JUMPDEST JUMPDEST PUSH2 0x181C DUP3 PUSH2 0x1410 JUMP JUMPDEST SWAP1 POP PUSH1 0x20 DUP2 ADD SWAP1 POP SWAP2 SWAP1 POP JUMP JUMPDEST DUP3 DUP2 DUP4 CALLDATACOPY PUSH1 0x0 DUP4 DUP4 ADD MSTORE POP POP POP JUMP JUMPDEST PUSH1 0x0 PUSH2 0x184B PUSH2 0x1846 DUP5 PUSH2 0x17F8 JUMP JUMPDEST PUSH2 0x17DD JUMP JUMPDEST SWAP1 POP DUP3 DUP2 MSTORE PUSH1 0x20 DUP2 ADD DUP5 DUP5 DUP5 ADD GT ISZERO PUSH2 0x1867 JUMPI PUSH2 0x1866 PUSH2 0x1778 JUMP JUMPDEST JUMPDEST PUSH2 0x1872 DUP5 DUP3 DUP6 PUSH2 0x1829 JUMP JUMPDEST POP SWAP4 SWAP3 POP POP POP JUMP JUMPDEST PUSH1 0x0 DUP3 PUSH1 0x1F DUP4 ADD SLT PUSH2 0x188F JUMPI PUSH2 0x188E PUSH2 0x1773 JUMP JUMPDEST JUMPDEST DUP2 CALLDATALOAD PUSH2 0x189F DUP5 DUP3 PUSH1 0x20 DUP7 ADD PUSH2 0x1838 JUMP JUMPDEST SWAP2 POP POP SWAP3 SWAP2 POP POP JUMP JUMPDEST PUSH1 0x0 DUP1 PUSH1 0x0 PUSH1 0x60 DUP5 DUP7 SUB SLT ISZERO PUSH2 0x18C1 JUMPI PUSH2 0x18C0 PUSH2 0x12E7 JUMP JUMPDEST JUMPDEST PUSH1 0x0 DUP5 ADD CALLDATALOAD PUSH8 0xFFFFFFFFFFFFFFFF DUP2 GT ISZERO PUSH2 0x18DF JUMPI PUSH2 0x18DE PUSH2 0x12EC JUMP JUMPDEST JUMPDEST PUSH2 0x18EB DUP7 DUP3 DUP8 ADD PUSH2 0x187A JUMP JUMPDEST SWAP4 POP POP PUSH1 0x20 PUSH2 0x18FC DUP7 DUP3 DUP8 ADD PUSH2 0x133A JUMP JUMPDEST SWAP3 POP POP PUSH1 0x40 DUP5 ADD CALLDATALOAD PUSH8 0xFFFFFFFFFFFFFFFF DUP2 GT ISZERO PUSH2 0x191D JUMPI PUSH2 0x191C PUSH2 0x12EC JUMP JUMPDEST JUMPDEST PUSH2 0x1929 DUP7 DUP3 DUP8 ADD PUSH2 0x187A JUMP JUMPDEST SWAP2 POP POP SWAP3 POP SWAP3 POP SWAP3 JUMP JUMPDEST PUSH32 0x4E487B7100000000000000000000000000000000000000000000000000000000 PUSH1 0x0 MSTORE PUSH1 0x22 PUSH1 0x4 MSTORE PUSH1 0x24 PUSH1 0x0 REVERT JUMPDEST PUSH1 0x0 PUSH1 0x2 DUP3 DIV SWAP1 POP PUSH1 0x1 DUP3 AND DUP1 PUSH2 0x197A JUMPI PUSH1 0x7F DUP3 AND SWAP2 POP JUMPDEST PUSH1 0x20 DUP3 LT DUP2 SUB PUSH2 0x198D JUMPI PUSH2 0x198C PUSH2 0x1933 JUMP JUMPDEST JUMPDEST POP SWAP2 SWAP1 POP JUMP JUMPDEST PUSH32 0x4E487B7100000000000000000000000000000000000000000000000000000000 PUSH1 0x0 MSTORE PUSH1 0x32 PUSH1 0x4 MSTORE PUSH1 0x24 PUSH1 0x0 REVERT JUMPDEST PUSH32 0x4E487B7100000000000000000000000000000000000000000000000000000000 PUSH1 0x0 MSTORE PUSH1 0x11 PUSH1 0x4 MSTORE PUSH1 0x24 PUSH1 0x0 REVERT JUMPDEST PUSH1 0x0 PUSH2 0x19FC DUP3 PUSH2 0x13A8 JUMP JUMPDEST SWAP2 POP PUSH32 0xFFFFFFFFFFFFFFFFFFFFFFFFFFFFFFFFFFFFFFFFFFFFFFFFFFFFFFFFFFFFFFFF DUP3 SUB PUSH2 0x1A2E JUMPI PUSH2 0x1A2D PUSH2 0x19C2 JUMP JUMPDEST JUMPDEST PUSH1 0x1 DUP3 ADD SWAP1 POP SWAP2 SWAP1 POP JUMP JUMPDEST PUSH1 0x0 DUP2 SLOAD SWAP1 POP PUSH2 0x1A48 DUP2 PUSH2 0x1962 JUMP JUMPDEST SWAP1 POP SWAP2 SWAP1 POP JUMP JUMPDEST PUSH1 0x0 DUP2 SWAP1 POP DUP2 PUSH1 0x0 MSTORE PUSH1 0x20 PUSH1 0x0 KECCAK256 SWAP1 POP SWAP2 SWAP1 POP JUMP JUMPDEST PUSH1 0x0 PUSH1 0x20 PUSH1 0x1F DUP4 ADD DIV SWAP1 POP SWAP2 SWAP1 POP JUMP JUMPDEST PUSH1 0x0 DUP3 DUP3 SHL SWAP1 POP SWAP3 SWAP2 POP POP JUMP JUMPDEST PUSH1 0x0 PUSH1 0x8 DUP4 MUL PUSH2 0x1AB1 PUSH32 0xFFFFFFFFFFFFFFFFFFFFFFFFFFFFFFFFFFFFFFFFFFFFFFFFFFFFFFFFFFFFFFFF DUP3 PUSH2 0x1A74 JUMP JUMPDEST PUSH2 0x1ABB DUP7 DUP4 PUSH2 0x1A74 JUMP JUMPDEST SWAP6 POP DUP1 NOT DUP5 AND SWAP4 POP DUP1 DUP7 AND DUP5 OR SWAP3 POP POP POP SWAP4 SWAP3 POP POP POP JUMP JUMPDEST PUSH1 0x0 DUP2 SWAP1 POP SWAP2 SWAP1 POP JUMP JUMPDEST PUSH1 0x0 PUSH2 0x1AF8 PUSH2 0x1AF3 PUSH2 0x1AEE DUP5 PUSH2 0x13A8 JUMP JUMPDEST PUSH2 0x1AD3 JUMP JUMPDEST PUSH2 0x13A8 JUMP JUMPDEST SWAP1 POP SWAP2 SWAP1 POP JUMP JUMPDEST PUSH1 0x0 DUP2 SWAP1 POP SWAP2 SWAP1 POP JUMP JUMPDEST PUSH2 0x1B12 DUP4 PUSH2 0x1ADD JUMP JUMPDEST PUSH2 0x1B26 PUSH2 0x1B1E DUP3 PUSH2 0x1AFF JUMP JUMPDEST DUP5 DUP5 SLOAD PUSH2 0x1A81 JUMP JUMPDEST DUP3 SSTORE POP POP POP POP JUMP JUMPDEST PUSH1 0x0 SWAP1 JUMP JUMPDEST PUSH2 0x1B3B PUSH2 0x1B2E JUMP JUMPDEST PUSH2 0x1B46 DUP2 DUP5 DUP5 PUSH2 0x1B09 JUMP JUMPDEST POP POP POP JUMP JUMPDEST JUMPDEST DUP2 DUP2 LT ISZERO PUSH2 0x1B6A JUMPI PUSH2 0x1B5F PUSH1 0x0 DUP3 PUSH2 0x1B33 JUMP JUMPDEST PUSH1 0x1 DUP2 ADD SWAP1 POP PUSH2 0x1B4C JUMP JUMPDEST POP POP JUMP JUMPDEST PUSH1 0x1F DUP3 GT ISZERO PUSH2 0x1BAF JUMPI PUSH2 0x1B80 DUP2 PUSH2 0x1A4F JUMP JUMPDEST PUSH2 0x1B89 DUP5 PUSH2 0x1A64 JUMP JUMPDEST DUP2 ADD PUSH1 0x20 DUP6 LT ISZERO PUSH2 0x1B98 JUMPI DUP2 SWAP1 POP JUMPDEST PUSH2 0x1BAC PUSH2 0x1BA4 DUP6 PUSH2 0x1A64 JUMP JUMPDEST DUP4 ADD DUP3 PUSH2 0x1B4B JUMP JUMPDEST POP POP JUMPDEST POP POP POP JUMP JUMPDEST PUSH1 0x0 DUP3 DUP3 SHR SWAP1 POP SWAP3 SWAP2 POP POP JUMP JUMPDEST PUSH1 0x0 PUSH2 0x1BD2 PUSH1 0x0 NOT DUP5 PUSH1 0x8 MUL PUSH2 0x1BB4 JUMP JUMPDEST NOT DUP1 DUP4 AND SWAP2 POP POP SWAP3 SWAP2 POP POP JUMP JUMPDEST PUSH1 0x0 PUSH2 0x1BEB DUP4 DUP4 PUSH2 0x1BC1 JUMP JUMPDEST SWAP2 POP DUP3 PUSH1 0x2 MUL DUP3 OR SWAP1 POP SWAP3 SWAP2 POP POP JUMP JUMPDEST DUP2 DUP2 SUB PUSH2 0x1C09 JUMPI POP POP PUSH2 0x1CE1 JUMP JUMPDEST PUSH2 0x1C12 DUP3 PUSH2 0x1A39 JUMP JUMPDEST PUSH8 0xFFFFFFFFFFFFFFFF DUP2 GT ISZERO PUSH2 0x1C2B JUMPI PUSH2 0x1C2A PUSH2 0x177D JUMP JUMPDEST JUMPDEST PUSH2 0x1C35 DUP3 SLOAD PUSH2 0x1962 JUMP JUMPDEST PUSH2 0x1C40 DUP3 DUP3 DUP6 PUSH2 0x1B6E JUMP JUMPDEST PUSH1 0x0 PUSH1 0x1F DUP4 GT PUSH1 0x1 DUP2 EQ PUSH2 0x1C6F JUMPI PUSH1 0x0 DUP5 ISZERO PUSH2 0x1C5D JUMPI DUP3 DUP8 ADD SLOAD SWAP1 POP JUMPDEST PUSH2 0x1C67 DUP6 DUP3 PUSH2 0x1BDF JUMP JUMPDEST DUP7 SSTORE POP PUSH2 0x1CDA JUMP JUMPDEST PUSH1 0x1F NOT DUP5 AND PUSH2 0x1C7D DUP8 PUSH2 0x1A4F JUMP JUMPDEST SWAP7 POP PUSH2 0x1C88 DUP7 PUSH2 0x1A4F JUMP JUMPDEST PUSH1 0x0 JUMPDEST DUP3 DUP2 LT ISZERO PUSH2 0x1CB0 JUMPI DUP5 DUP10 ADD SLOAD DUP3 SSTORE PUSH1 0x1 DUP3 ADD SWAP2 POP PUSH1 0x1 DUP6 ADD SWAP5 POP PUSH1 0x20 DUP2 ADD SWAP1 POP PUSH2 0x1C8B JUMP JUMPDEST DUP7 DUP4 LT ISZERO PUSH2 0x1CCD JUMPI DUP5 DUP10 ADD SLOAD PUSH2 0x1CC9 PUSH1 0x1F DUP10 AND DUP3 PUSH2 0x1BC1 JUMP JUMPDEST DUP4 SSTORE POP JUMPDEST PUSH1 0x1 PUSH1 0x2 DUP9 MUL ADD DUP9 SSTORE POP POP POP JUMPDEST POP POP POP POP POP POP JUMPDEST JUMP JUMPDEST PUSH2 0x1CEC DUP3 PUSH2 0x13C1 JUMP JUMPDEST PUSH8 0xFFFFFFFFFFFFFFFF DUP2 GT ISZERO PUSH2 0x1D05 JUMPI PUSH2 0x1D04 PUSH2 0x177D JUMP JUMPDEST JUMPDEST PUSH2 0x1D0F DUP3 SLOAD PUSH2 0x1962 JUMP JUMPDEST PUSH2 0x1D1A DUP3 DUP3 DUP6 PUSH2 0x1B6E JUMP JUMPDEST PUSH1 0x0 PUSH1 0x20 SWAP1 POP PUSH1 0x1F DUP4 GT PUSH1 0x1 DUP2 EQ PUSH2 0x1D4D JUMPI PUSH1 0x0 DUP5 ISZERO PUSH2 0x1D3B JUMPI DUP3 DUP8 ADD MLOAD SWAP1 POP JUMPDEST PUSH2 0x1D45 DUP6 DUP3 PUSH2 0x1BDF JUMP JUMPDEST DUP7 SSTORE POP PUSH2 0x1DAD JUMP JUMPDEST PUSH1 0x1F NOT DUP5 AND PUSH2 0x1D5B DUP7 PUSH2 0x1A4F JUMP JUMPDEST PUSH1 0x0 JUMPDEST DUP3 DUP2 LT ISZERO PUSH2 0x1D83 JUMPI DUP5 DUP10 ADD MLOAD DUP3 SSTORE PUSH1 0x1 DUP3 ADD SWAP2 POP PUSH1 0x20 DUP6 ADD SWAP5 POP PUSH1 0x20 DUP2 ADD SWAP1 POP PUSH2 0x1D5E JUMP JUMPDEST DUP7 DUP4 LT ISZERO PUSH2 0x1DA0 JUMPI DUP5 DUP10 ADD MLOAD PUSH2 0x1D9C PUSH1 0x1F DUP10 AND DUP3 PUSH2 0x1BC1 JUMP JUMPDEST DUP4 SSTORE POP JUMPDEST PUSH1 0x1 PUSH1 0x2 DUP9 MUL ADD DUP9 SSTORE POP POP POP JUMPDEST POP POP POP POP POP POP JUMP INVALID LOG2 PUSH5 0x6970667358 0x22 SLT KECCAK256 PUSH32 0x7C54354B684A886A40DBBF1BBCDD80C581C768DE24A07CB5CAB809E602A0F364 PUSH20 0x6F6C634300080F00330000000000000000000000 "
				},
				"gasEstimates": {
					"creation": {
						"codeDepositCost": "1531800",
						"executionCost": "1603",
						"totalCost": "1533403"
					},
					"external": {
						"createCrowdfunding(string,address,string)": "infinite",
						"getCrowdfundingByStatus(uint256)": "infinite",
						"getMyCrowdfunding(address)": "infinite",
						"list(uint256)": "infinite",
						"setStatus(uint256,uint256)": "infinite"
					}
				},
				"methodIdentifiers": {
					"createCrowdfunding(string,address,string)": "a97af4d5",
					"getCrowdfundingByStatus(uint256)": "904cc175",
					"getMyCrowdfunding(address)": "377e6ff7",
					"list(uint256)": "80c9419e",
					"setStatus(uint256,uint256)": "82e40813"
				}
			},
			"storageLayout": {
				"storage": [
					{
						"astId": 3,
						"contract": "crowdfunding.sol:CrowdfundingContract",
						"label": "No",
						"offset": 0,
						"slot": "0",
						"type": "t_uint256"
					},
					{
						"astId": 24,
						"contract": "crowdfunding.sol:CrowdfundingContract",
						"label": "list",
						"offset": 0,
						"slot": "1",
						"type": "t_array(t_struct(Crowdfunding)20_storage)dyn_storage"
					},
					{
						"astId": 30,
						"contract": "crowdfunding.sol:CrowdfundingContract",
						"label": "filterDataByStatus",
						"offset": 0,
						"slot": "2",
						"type": "t_mapping(t_uint256,t_array(t_struct(Crowdfunding)20_storage)dyn_storage)"
					},
					{
						"astId": 36,
						"contract": "crowdfunding.sol:CrowdfundingContract",
						"label": "myCrowdfunding",
						"offset": 0,
						"slot": "3",
						"type": "t_mapping(t_address,t_array(t_struct(Crowdfunding)20_storage)dyn_storage)"
					}
				],
				"types": {
					"t_address": {
						"encoding": "inplace",
						"label": "address",
						"numberOfBytes": "20"
					},
					"t_array(t_struct(Crowdfunding)20_storage)dyn_storage": {
						"base": "t_struct(Crowdfunding)20_storage",
						"encoding": "dynamic_array",
						"label": "struct CrowdfundingContract.Crowdfunding[]",
						"numberOfBytes": "32"
					},
					"t_mapping(t_address,t_array(t_struct(Crowdfunding)20_storage)dyn_storage)": {
						"encoding": "mapping",
						"key": "t_address",
						"label": "mapping(address => struct CrowdfundingContract.Crowdfunding[])",
						"numberOfBytes": "32",
						"value": "t_array(t_struct(Crowdfunding)20_storage)dyn_storage"
					},
					"t_mapping(t_uint256,t_array(t_struct(Crowdfunding)20_storage)dyn_storage)": {
						"encoding": "mapping",
						"key": "t_uint256",
						"label": "mapping(uint256 => struct CrowdfundingContract.Crowdfunding[])",
						"numberOfBytes": "32",
						"value": "t_array(t_struct(Crowdfunding)20_storage)dyn_storage"
					},
					"t_string_storage": {
						"encoding": "bytes",
						"label": "string",
						"numberOfBytes": "32"
					},
					"t_struct(Crowdfunding)20_storage": {
						"encoding": "inplace",
						"label": "struct CrowdfundingContract.Crowdfunding",
						"members": [
							{
								"astId": 5,
								"contract": "crowdfunding.sol:CrowdfundingContract",
								"label": "num",
								"offset": 0,
								"slot": "0",
								"type": "t_uint256"
							},
							{
								"astId": 7,
								"contract": "crowdfunding.sol:CrowdfundingContract",
								"label": "title",
								"offset": 0,
								"slot": "1",
								"type": "t_string_storage"
							},
							{
								"astId": 9,
								"contract": "crowdfunding.sol:CrowdfundingContract",
								"label": "status",
								"offset": 0,
								"slot": "2",
								"type": "t_uint256"
							},
							{
								"astId": 11,
								"contract": "crowdfunding.sol:CrowdfundingContract",
								"label": "creator",
								"offset": 0,
								"slot": "3",
								"type": "t_address"
							},
							{
								"astId": 13,
								"contract": "crowdfunding.sol:CrowdfundingContract",
								"label": "recipient",
								"offset": 0,
								"slot": "4",
								"type": "t_address"
							},
							{
								"astId": 15,
								"contract": "crowdfunding.sol:CrowdfundingContract",
								"label": "joinNum",
								"offset": 0,
								"slot": "5",
								"type": "t_uint256"
							},
							{
								"astId": 17,
								"contract": "crowdfunding.sol:CrowdfundingContract",
								"label": "expectAmout",
								"offset": 0,
								"slot": "6",
								"type": "t_string_storage"
							},
							{
								"astId": 19,
								"contract": "crowdfunding.sol:CrowdfundingContract",
								"label": "actualAmount",
								"offset": 0,
								"slot": "7",
								"type": "t_string_storage"
							}
						],
						"numberOfBytes": "256"
					},
					"t_uint256": {
						"encoding": "inplace",
						"label": "uint256",
						"numberOfBytes": "32"
					}
				}
			},
			"userdoc": {
				"kind": "user",
				"methods": {},
				"version": 1
			}
		}
	}
}