{
	"todoList.sol": {
		"TodoList": {
			"abi": [
				{
					"inputs": [
						{
							"internalType": "contract TodoListData",
							"name": "t",
							"type": "address"
						},
						{
							"internalType": "uint256",
							"name": "id",
							"type": "uint256"
						},
						{
							"internalType": "string",
							"name": "val",
							"type": "string"
						}
					],
					"name": "addTask2",
					"outputs": [],
					"stateMutability": "nonpayable",
					"type": "function"
				},
				{
					"inputs": [
						{
							"internalType": "contract TodoListData",
							"name": "t",
							"type": "address"
						}
					],
					"name": "getList2",
					"outputs": [],
					"stateMutability": "view",
					"type": "function"
				}
			],
			"devdoc": {
				"kind": "dev",
				"methods": {},
				"version": 1
			},
			"evm": {
				"assembly": "    /* \"todoList.sol\":378:618  contract TodoList {\r... */\n  mstore(0x40, 0x80)\n  callvalue\n  dup1\n  iszero\n  tag_1\n  jumpi\n  0x00\n  dup1\n  revert\ntag_1:\n  pop\n  dataSize(sub_0)\n  dup1\n  dataOffset(sub_0)\n  0x00\n  codecopy\n  0x00\n  return\nstop\n\nsub_0: assembly {\n        /* \"todoList.sol\":378:618  contract TodoList {\r... */\n      mstore(0x40, 0x80)\n      callvalue\n      dup1\n      iszero\n      tag_1\n      jumpi\n      0x00\n      dup1\n      revert\n    tag_1:\n      pop\n      jumpi(tag_2, lt(calldatasize, 0x04))\n      shr(0xe0, calldataload(0x00))\n      dup1\n      0xa1a57f3c\n      eq\n      tag_3\n      jumpi\n      dup1\n      0xdfda689c\n      eq\n      tag_4\n      jumpi\n    tag_2:\n      0x00\n      dup1\n      revert\n        /* \"todoList.sol\":426:530  function addTask2(TodoListData t,uint id, string memory val) public {\r... */\n    tag_3:\n      tag_5\n      0x04\n      dup1\n      calldatasize\n      sub\n      dup2\n      add\n      swap1\n      tag_6\n      swap2\n      swap1\n      tag_7\n      jump\t// in\n    tag_6:\n      tag_8\n      jump\t// in\n    tag_5:\n      stop\n        /* \"todoList.sol\":538:615  function getList2 (TodoListData t) public view {\r... */\n    tag_4:\n      tag_9\n      0x04\n      dup1\n      calldatasize\n      sub\n      dup2\n      add\n      swap1\n      tag_10\n      swap2\n      swap1\n      tag_11\n      jump\t// in\n    tag_10:\n      tag_12\n      jump\t// in\n    tag_9:\n      stop\n        /* \"todoList.sol\":426:530  function addTask2(TodoListData t,uint id, string memory val) public {\r... */\n    tag_8:\n        /* \"todoList.sol\":505:506  t */\n      dup3\n        /* \"todoList.sol\":505:514  t.addTask */\n      0xffffffffffffffffffffffffffffffffffffffff\n      and\n      0x58fcbbfd\n        /* \"todoList.sol\":515:517  id */\n      dup4\n        /* \"todoList.sol\":518:521  val */\n      dup4\n        /* \"todoList.sol\":505:522  t.addTask(id,val) */\n      mload(0x40)\n      dup4\n      0xffffffff\n      and\n      0xe0\n      shl\n      dup2\n      mstore\n      0x04\n      add\n      tag_14\n      swap3\n      swap2\n      swap1\n      tag_15\n      jump\t// in\n    tag_14:\n      0x00\n      mload(0x40)\n      dup1\n      dup4\n      sub\n      dup2\n      0x00\n      dup8\n      dup1\n      extcodesize\n      iszero\n      dup1\n      iszero\n      tag_16\n      jumpi\n      0x00\n      dup1\n      revert\n    tag_16:\n      pop\n      gas\n      call\n      iszero\n      dup1\n      iszero\n      tag_18\n      jumpi\n      returndatasize\n      0x00\n      dup1\n      returndatacopy\n      revert(0x00, returndatasize)\n    tag_18:\n      pop\n      pop\n      pop\n      pop\n        /* \"todoList.sol\":426:530  function addTask2(TodoListData t,uint id, string memory val) public {\r... */\n      pop\n      pop\n      pop\n      jump\t// out\n        /* \"todoList.sol\":538:615  function getList2 (TodoListData t) public view {\r... */\n    tag_12:\n        /* \"todoList.sol\":596:597  t */\n      dup1\n        /* \"todoList.sol\":596:605  t.getList */\n      0xffffffffffffffffffffffffffffffffffffffff\n      and\n      0x942b765a\n        /* \"todoList.sol\":596:607  t.getList() */\n      mload(0x40)\n      dup2\n      0xffffffff\n      and\n      0xe0\n      shl\n      dup2\n      mstore\n      0x04\n      add\n      0x00\n      mload(0x40)\n      dup1\n      dup4\n      sub\n      dup2\n      dup7\n      dup1\n      extcodesize\n      iszero\n      dup1\n      iszero\n      tag_20\n      jumpi\n      0x00\n      dup1\n      revert\n    tag_20:\n      pop\n      gas\n      staticcall\n      iszero\n      dup1\n      iszero\n      tag_22\n      jumpi\n      returndatasize\n      0x00\n      dup1\n      returndatacopy\n      revert(0x00, returndatasize)\n    tag_22:\n      pop\n      pop\n      pop\n      pop\n      mload(0x40)\n      returndatasize\n      0x00\n      dup3\n      returndatacopy\n      returndatasize\n      not(0x1f)\n      0x1f\n      dup3\n      add\n      and\n      dup3\n      add\n      dup1\n      0x40\n      mstore\n      pop\n      dup2\n      add\n      swap1\n      tag_23\n      swap2\n      swap1\n      tag_24\n      jump\t// in\n    tag_23:\n      pop\n        /* \"todoList.sol\":538:615  function getList2 (TodoListData t) public view {\r... */\n      pop\n      jump\t// out\n        /* \"#utility.yul\":41:1040   */\n    tag_26:\n        /* \"#utility.yul\":167:172   */\n      0x00\n        /* \"#utility.yul\":192:292   */\n      tag_28\n        /* \"#utility.yul\":208:291   */\n      tag_29\n        /* \"#utility.yul\":284:290   */\n      dup5\n        /* \"#utility.yul\":208:291   */\n      tag_30\n      jump\t// in\n    tag_29:\n        /* \"#utility.yul\":192:292   */\n      tag_31\n      jump\t// in\n    tag_28:\n        /* \"#utility.yul\":183:292   */\n      swap1\n      pop\n        /* \"#utility.yul\":312:317   */\n      dup1\n        /* \"#utility.yul\":341:347   */\n      dup4\n        /* \"#utility.yul\":334:339   */\n      dup3\n        /* \"#utility.yul\":327:348   */\n      mstore\n        /* \"#utility.yul\":375:379   */\n      0x20\n        /* \"#utility.yul\":368:373   */\n      dup3\n        /* \"#utility.yul\":364:380   */\n      add\n        /* \"#utility.yul\":357:380   */\n      swap1\n      pop\n        /* \"#utility.yul\":401:407   */\n      dup3\n        /* \"#utility.yul\":451:454   */\n      dup6\n        /* \"#utility.yul\":443:447   */\n      0x20\n        /* \"#utility.yul\":435:441   */\n      dup7\n        /* \"#utility.yul\":431:448   */\n      mul\n        /* \"#utility.yul\":426:429   */\n      dup3\n        /* \"#utility.yul\":422:449   */\n      add\n        /* \"#utility.yul\":419:455   */\n      gt\n        /* \"#utility.yul\":416:559   */\n      iszero\n      tag_32\n      jumpi\n        /* \"#utility.yul\":470:549   */\n      tag_33\n      tag_34\n      jump\t// in\n    tag_33:\n        /* \"#utility.yul\":416:559   */\n    tag_32:\n        /* \"#utility.yul\":583:584   */\n      0x00\n        /* \"#utility.yul\":568:1034   */\n    tag_35:\n        /* \"#utility.yul\":593:599   */\n      dup6\n        /* \"#utility.yul\":590:591   */\n      dup2\n        /* \"#utility.yul\":587:600   */\n      lt\n        /* \"#utility.yul\":568:1034   */\n      iszero\n      tag_37\n      jumpi\n        /* \"#utility.yul\":668:671   */\n      dup2\n        /* \"#utility.yul\":662:672   */\n      mload\n        /* \"#utility.yul\":704:722   */\n      0xffffffffffffffff\n        /* \"#utility.yul\":691:702   */\n      dup2\n        /* \"#utility.yul\":688:723   */\n      gt\n        /* \"#utility.yul\":685:807   */\n      iszero\n      tag_38\n      jumpi\n        /* \"#utility.yul\":726:805   */\n      tag_39\n      tag_40\n      jump\t// in\n    tag_39:\n        /* \"#utility.yul\":685:807   */\n    tag_38:\n        /* \"#utility.yul\":850:861   */\n      dup1\n        /* \"#utility.yul\":842:848   */\n      dup7\n        /* \"#utility.yul\":838:862   */\n      add\n        /* \"#utility.yul\":888:955   */\n      tag_41\n        /* \"#utility.yul\":951:954   */\n      dup10\n        /* \"#utility.yul\":939:949   */\n      dup3\n        /* \"#utility.yul\":888:955   */\n      tag_42\n      jump\t// in\n    tag_41:\n        /* \"#utility.yul\":883:886   */\n      dup6\n        /* \"#utility.yul\":876:956   */\n      mstore\n        /* \"#utility.yul\":985:989   */\n      0x20\n        /* \"#utility.yul\":980:983   */\n      dup6\n        /* \"#utility.yul\":976:990   */\n      add\n        /* \"#utility.yul\":969:990   */\n      swap5\n      pop\n        /* \"#utility.yul\":1019:1023   */\n      0x20\n        /* \"#utility.yul\":1014:1017   */\n      dup5\n        /* \"#utility.yul\":1010:1024   */\n      add\n        /* \"#utility.yul\":1003:1024   */\n      swap4\n      pop\n        /* \"#utility.yul\":628:1034   */\n      pop\n      pop\n        /* \"#utility.yul\":615:616   */\n      0x01\n        /* \"#utility.yul\":612:613   */\n      dup2\n        /* \"#utility.yul\":608:617   */\n      add\n        /* \"#utility.yul\":603:617   */\n      swap1\n      pop\n        /* \"#utility.yul\":568:1034   */\n      jump(tag_35)\n    tag_37:\n        /* \"#utility.yul\":572:586   */\n      pop\n        /* \"#utility.yul\":173:1040   */\n      pop\n      pop\n        /* \"#utility.yul\":41:1040   */\n      swap4\n      swap3\n      pop\n      pop\n      pop\n      jump\t// out\n        /* \"#utility.yul\":1046:1458   */\n    tag_43:\n        /* \"#utility.yul\":1124:1129   */\n      0x00\n        /* \"#utility.yul\":1149:1215   */\n      tag_45\n        /* \"#utility.yul\":1165:1214   */\n      tag_46\n        /* \"#utility.yul\":1207:1213   */\n      dup5\n        /* \"#utility.yul\":1165:1214   */\n      tag_47\n      jump\t// in\n    tag_46:\n        /* \"#utility.yul\":1149:1215   */\n      tag_31\n      jump\t// in\n    tag_45:\n        /* \"#utility.yul\":1140:1215   */\n      swap1\n      pop\n        /* \"#utility.yul\":1238:1244   */\n      dup3\n        /* \"#utility.yul\":1231:1236   */\n      dup2\n        /* \"#utility.yul\":1224:1245   */\n      mstore\n        /* \"#utility.yul\":1276:1280   */\n      0x20\n        /* \"#utility.yul\":1269:1274   */\n      dup2\n        /* \"#utility.yul\":1265:1281   */\n      add\n        /* \"#utility.yul\":1314:1317   */\n      dup5\n        /* \"#utility.yul\":1305:1311   */\n      dup5\n        /* \"#utility.yul\":1300:1303   */\n      dup5\n        /* \"#utility.yul\":1296:1312   */\n      add\n        /* \"#utility.yul\":1293:1318   */\n      gt\n        /* \"#utility.yul\":1290:1402   */\n      iszero\n      tag_48\n      jumpi\n        /* \"#utility.yul\":1321:1400   */\n      tag_49\n      tag_50\n      jump\t// in\n    tag_49:\n        /* \"#utility.yul\":1290:1402   */\n    tag_48:\n        /* \"#utility.yul\":1411:1452   */\n      tag_51\n        /* \"#utility.yul\":1445:1451   */\n      dup5\n        /* \"#utility.yul\":1440:1443   */\n      dup3\n        /* \"#utility.yul\":1435:1438   */\n      dup6\n        /* \"#utility.yul\":1411:1452   */\n      tag_52\n      jump\t// in\n    tag_51:\n        /* \"#utility.yul\":1130:1458   */\n      pop\n        /* \"#utility.yul\":1046:1458   */\n      swap4\n      swap3\n      pop\n      pop\n      pop\n      jump\t// out\n        /* \"#utility.yul\":1464:1885   */\n    tag_53:\n        /* \"#utility.yul\":1553:1558   */\n      0x00\n        /* \"#utility.yul\":1578:1644   */\n      tag_55\n        /* \"#utility.yul\":1594:1643   */\n      tag_56\n        /* \"#utility.yul\":1636:1642   */\n      dup5\n        /* \"#utility.yul\":1594:1643   */\n      tag_47\n      jump\t// in\n    tag_56:\n        /* \"#utility.yul\":1578:1644   */\n      tag_31\n      jump\t// in\n    tag_55:\n        /* \"#utility.yul\":1569:1644   */\n      swap1\n      pop\n        /* \"#utility.yul\":1667:1673   */\n      dup3\n        /* \"#utility.yul\":1660:1665   */\n      dup2\n        /* \"#utility.yul\":1653:1674   */\n      mstore\n        /* \"#utility.yul\":1705:1709   */\n      0x20\n        /* \"#utility.yul\":1698:1703   */\n      dup2\n        /* \"#utility.yul\":1694:1710   */\n      add\n        /* \"#utility.yul\":1743:1746   */\n      dup5\n        /* \"#utility.yul\":1734:1740   */\n      dup5\n        /* \"#utility.yul\":1729:1732   */\n      dup5\n        /* \"#utility.yul\":1725:1741   */\n      add\n        /* \"#utility.yul\":1722:1747   */\n      gt\n        /* \"#utility.yul\":1719:1831   */\n      iszero\n      tag_57\n      jumpi\n        /* \"#utility.yul\":1750:1829   */\n      tag_58\n      tag_50\n      jump\t// in\n    tag_58:\n        /* \"#utility.yul\":1719:1831   */\n    tag_57:\n        /* \"#utility.yul\":1840:1879   */\n      tag_59\n        /* \"#utility.yul\":1872:1878   */\n      dup5\n        /* \"#utility.yul\":1867:1870   */\n      dup3\n        /* \"#utility.yul\":1862:1865   */\n      dup6\n        /* \"#utility.yul\":1840:1879   */\n      tag_60\n      jump\t// in\n    tag_59:\n        /* \"#utility.yul\":1559:1885   */\n      pop\n        /* \"#utility.yul\":1464:1885   */\n      swap4\n      swap3\n      pop\n      pop\n      pop\n      jump\t// out\n        /* \"#utility.yul\":1925:2348   */\n    tag_61:\n        /* \"#utility.yul\":2026:2031   */\n      0x00\n        /* \"#utility.yul\":2075:2078   */\n      dup3\n        /* \"#utility.yul\":2068:2072   */\n      0x1f\n        /* \"#utility.yul\":2060:2066   */\n      dup4\n        /* \"#utility.yul\":2056:2073   */\n      add\n        /* \"#utility.yul\":2052:2079   */\n      slt\n        /* \"#utility.yul\":2042:2164   */\n      tag_63\n      jumpi\n        /* \"#utility.yul\":2083:2162   */\n      tag_64\n      tag_40\n      jump\t// in\n    tag_64:\n        /* \"#utility.yul\":2042:2164   */\n    tag_63:\n        /* \"#utility.yul\":2193:2199   */\n      dup2\n        /* \"#utility.yul\":2187:2200   */\n      mload\n        /* \"#utility.yul\":2218:2342   */\n      tag_65\n        /* \"#utility.yul\":2338:2341   */\n      dup5\n        /* \"#utility.yul\":2330:2336   */\n      dup3\n        /* \"#utility.yul\":2323:2327   */\n      0x20\n        /* \"#utility.yul\":2315:2321   */\n      dup7\n        /* \"#utility.yul\":2311:2328   */\n      add\n        /* \"#utility.yul\":2218:2342   */\n      tag_26\n      jump\t// in\n    tag_65:\n        /* \"#utility.yul\":2209:2342   */\n      swap2\n      pop\n        /* \"#utility.yul\":2032:2348   */\n      pop\n        /* \"#utility.yul\":1925:2348   */\n      swap3\n      swap2\n      pop\n      pop\n      jump\t// out\n        /* \"#utility.yul\":2354:2531   */\n    tag_66:\n        /* \"#utility.yul\":2419:2424   */\n      0x00\n        /* \"#utility.yul\":2457:2463   */\n      dup2\n        /* \"#utility.yul\":2444:2464   */\n      calldataload\n        /* \"#utility.yul\":2435:2464   */\n      swap1\n      pop\n        /* \"#utility.yul\":2473:2525   */\n      tag_68\n        /* \"#utility.yul\":2519:2524   */\n      dup2\n        /* \"#utility.yul\":2473:2525   */\n      tag_69\n      jump\t// in\n    tag_68:\n        /* \"#utility.yul\":2354:2531   */\n      swap3\n      swap2\n      pop\n      pop\n      jump\t// out\n        /* \"#utility.yul\":2551:2891   */\n    tag_70:\n        /* \"#utility.yul\":2607:2612   */\n      0x00\n        /* \"#utility.yul\":2656:2659   */\n      dup3\n        /* \"#utility.yul\":2649:2653   */\n      0x1f\n        /* \"#utility.yul\":2641:2647   */\n      dup4\n        /* \"#utility.yul\":2637:2654   */\n      add\n        /* \"#utility.yul\":2633:2660   */\n      slt\n        /* \"#utility.yul\":2623:2745   */\n      tag_72\n      jumpi\n        /* \"#utility.yul\":2664:2743   */\n      tag_73\n      tag_40\n      jump\t// in\n    tag_73:\n        /* \"#utility.yul\":2623:2745   */\n    tag_72:\n        /* \"#utility.yul\":2781:2787   */\n      dup2\n        /* \"#utility.yul\":2768:2788   */\n      calldataload\n        /* \"#utility.yul\":2806:2885   */\n      tag_74\n        /* \"#utility.yul\":2881:2884   */\n      dup5\n        /* \"#utility.yul\":2873:2879   */\n      dup3\n        /* \"#utility.yul\":2866:2870   */\n      0x20\n        /* \"#utility.yul\":2858:2864   */\n      dup7\n        /* \"#utility.yul\":2854:2871   */\n      add\n        /* \"#utility.yul\":2806:2885   */\n      tag_43\n      jump\t// in\n    tag_74:\n        /* \"#utility.yul\":2797:2885   */\n      swap2\n      pop\n        /* \"#utility.yul\":2613:2891   */\n      pop\n        /* \"#utility.yul\":2551:2891   */\n      swap3\n      swap2\n      pop\n      pop\n      jump\t// out\n        /* \"#utility.yul\":2911:3266   */\n    tag_75:\n        /* \"#utility.yul\":2978:2983   */\n      0x00\n        /* \"#utility.yul\":3027:3030   */\n      dup3\n        /* \"#utility.yul\":3020:3024   */\n      0x1f\n        /* \"#utility.yul\":3012:3018   */\n      dup4\n        /* \"#utility.yul\":3008:3025   */\n      add\n        /* \"#utility.yul\":3004:3031   */\n      slt\n        /* \"#utility.yul\":2994:3116   */\n      tag_77\n      jumpi\n        /* \"#utility.yul\":3035:3114   */\n      tag_78\n      tag_40\n      jump\t// in\n    tag_78:\n        /* \"#utility.yul\":2994:3116   */\n    tag_77:\n        /* \"#utility.yul\":3145:3151   */\n      dup2\n        /* \"#utility.yul\":3139:3152   */\n      mload\n        /* \"#utility.yul\":3170:3260   */\n      tag_79\n        /* \"#utility.yul\":3256:3259   */\n      dup5\n        /* \"#utility.yul\":3248:3254   */\n      dup3\n        /* \"#utility.yul\":3241:3245   */\n      0x20\n        /* \"#utility.yul\":3233:3239   */\n      dup7\n        /* \"#utility.yul\":3229:3246   */\n      add\n        /* \"#utility.yul\":3170:3260   */\n      tag_53\n      jump\t// in\n    tag_79:\n        /* \"#utility.yul\":3161:3260   */\n      swap2\n      pop\n        /* \"#utility.yul\":2984:3266   */\n      pop\n        /* \"#utility.yul\":2911:3266   */\n      swap3\n      swap2\n      pop\n      pop\n      jump\t// out\n        /* \"#utility.yul\":3304:4067   */\n    tag_42:\n        /* \"#utility.yul\":3383:3388   */\n      0x00\n        /* \"#utility.yul\":3427:3431   */\n      0x40\n        /* \"#utility.yul\":3415:3424   */\n      dup3\n        /* \"#utility.yul\":3410:3413   */\n      dup5\n        /* \"#utility.yul\":3406:3425   */\n      sub\n        /* \"#utility.yul\":3402:3432   */\n      slt\n        /* \"#utility.yul\":3399:3516   */\n      iszero\n      tag_81\n      jumpi\n        /* \"#utility.yul\":3435:3514   */\n      tag_82\n      tag_83\n      jump\t// in\n    tag_82:\n        /* \"#utility.yul\":3399:3516   */\n    tag_81:\n        /* \"#utility.yul\":3534:3555   */\n      tag_84\n        /* \"#utility.yul\":3550:3554   */\n      0x40\n        /* \"#utility.yul\":3534:3555   */\n      tag_31\n      jump\t// in\n    tag_84:\n        /* \"#utility.yul\":3525:3555   */\n      swap1\n      pop\n        /* \"#utility.yul\":3612:3613   */\n      0x00\n        /* \"#utility.yul\":3652:3712   */\n      tag_85\n        /* \"#utility.yul\":3708:3711   */\n      dup5\n        /* \"#utility.yul\":3699:3705   */\n      dup3\n        /* \"#utility.yul\":3688:3697   */\n      dup6\n        /* \"#utility.yul\":3684:3706   */\n      add\n        /* \"#utility.yul\":3652:3712   */\n      tag_86\n      jump\t// in\n    tag_85:\n        /* \"#utility.yul\":3645:3649   */\n      0x00\n        /* \"#utility.yul\":3638:3643   */\n      dup4\n        /* \"#utility.yul\":3634:3650   */\n      add\n        /* \"#utility.yul\":3627:3713   */\n      mstore\n        /* \"#utility.yul\":3565:3724   */\n      pop\n        /* \"#utility.yul\":3805:3807   */\n      0x20\n        /* \"#utility.yul\":3794:3803   */\n      dup3\n        /* \"#utility.yul\":3790:3808   */\n      add\n        /* \"#utility.yul\":3784:3809   */\n      mload\n        /* \"#utility.yul\":3836:3854   */\n      0xffffffffffffffff\n        /* \"#utility.yul\":3828:3834   */\n      dup2\n        /* \"#utility.yul\":3825:3855   */\n      gt\n        /* \"#utility.yul\":3822:3939   */\n      iszero\n      tag_87\n      jumpi\n        /* \"#utility.yul\":3858:3937   */\n      tag_88\n      tag_89\n      jump\t// in\n    tag_88:\n        /* \"#utility.yul\":3822:3939   */\n    tag_87:\n        /* \"#utility.yul\":3978:4048   */\n      tag_90\n        /* \"#utility.yul\":4044:4047   */\n      dup5\n        /* \"#utility.yul\":4035:4041   */\n      dup3\n        /* \"#utility.yul\":4024:4033   */\n      dup6\n        /* \"#utility.yul\":4020:4042   */\n      add\n        /* \"#utility.yul\":3978:4048   */\n      tag_75\n      jump\t// in\n    tag_90:\n        /* \"#utility.yul\":3971:3975   */\n      0x20\n        /* \"#utility.yul\":3964:3969   */\n      dup4\n        /* \"#utility.yul\":3960:3976   */\n      add\n        /* \"#utility.yul\":3953:4049   */\n      mstore\n        /* \"#utility.yul\":3734:4060   */\n      pop\n        /* \"#utility.yul\":3304:4067   */\n      swap3\n      swap2\n      pop\n      pop\n      jump\t// out\n        /* \"#utility.yul\":4073:4212   */\n    tag_91:\n        /* \"#utility.yul\":4119:4124   */\n      0x00\n        /* \"#utility.yul\":4157:4163   */\n      dup2\n        /* \"#utility.yul\":4144:4164   */\n      calldataload\n        /* \"#utility.yul\":4135:4164   */\n      swap1\n      pop\n        /* \"#utility.yul\":4173:4206   */\n      tag_93\n        /* \"#utility.yul\":4200:4205   */\n      dup2\n        /* \"#utility.yul\":4173:4206   */\n      tag_94\n      jump\t// in\n    tag_93:\n        /* \"#utility.yul\":4073:4212   */\n      swap3\n      swap2\n      pop\n      pop\n      jump\t// out\n        /* \"#utility.yul\":4218:4361   */\n    tag_86:\n        /* \"#utility.yul\":4275:4280   */\n      0x00\n        /* \"#utility.yul\":4306:4312   */\n      dup2\n        /* \"#utility.yul\":4300:4313   */\n      mload\n        /* \"#utility.yul\":4291:4313   */\n      swap1\n      pop\n        /* \"#utility.yul\":4322:4355   */\n      tag_96\n        /* \"#utility.yul\":4349:4354   */\n      dup2\n        /* \"#utility.yul\":4322:4355   */\n      tag_94\n      jump\t// in\n    tag_96:\n        /* \"#utility.yul\":4218:4361   */\n      swap3\n      swap2\n      pop\n      pop\n      jump\t// out\n        /* \"#utility.yul\":4367:4959   */\n    tag_24:\n        /* \"#utility.yul\":4481:4487   */\n      0x00\n        /* \"#utility.yul\":4530:4532   */\n      0x20\n        /* \"#utility.yul\":4518:4527   */\n      dup3\n        /* \"#utility.yul\":4509:4516   */\n      dup5\n        /* \"#utility.yul\":4505:4528   */\n      sub\n        /* \"#utility.yul\":4501:4533   */\n      slt\n        /* \"#utility.yul\":4498:4617   */\n      iszero\n      tag_98\n      jumpi\n        /* \"#utility.yul\":4536:4615   */\n      tag_99\n      tag_100\n      jump\t// in\n    tag_99:\n        /* \"#utility.yul\":4498:4617   */\n    tag_98:\n        /* \"#utility.yul\":4677:4678   */\n      0x00\n        /* \"#utility.yul\":4666:4675   */\n      dup3\n        /* \"#utility.yul\":4662:4679   */\n      add\n        /* \"#utility.yul\":4656:4680   */\n      mload\n        /* \"#utility.yul\":4707:4725   */\n      0xffffffffffffffff\n        /* \"#utility.yul\":4699:4705   */\n      dup2\n        /* \"#utility.yul\":4696:4726   */\n      gt\n        /* \"#utility.yul\":4693:4810   */\n      iszero\n      tag_101\n      jumpi\n        /* \"#utility.yul\":4729:4808   */\n      tag_102\n      tag_103\n      jump\t// in\n    tag_102:\n        /* \"#utility.yul\":4693:4810   */\n    tag_101:\n        /* \"#utility.yul\":4834:4942   */\n      tag_104\n        /* \"#utility.yul\":4934:4941   */\n      dup5\n        /* \"#utility.yul\":4925:4931   */\n      dup3\n        /* \"#utility.yul\":4914:4923   */\n      dup6\n        /* \"#utility.yul\":4910:4932   */\n      add\n        /* \"#utility.yul\":4834:4942   */\n      tag_61\n      jump\t// in\n    tag_104:\n        /* \"#utility.yul\":4824:4942   */\n      swap2\n      pop\n        /* \"#utility.yul\":4627:4952   */\n      pop\n        /* \"#utility.yul\":4367:4959   */\n      swap3\n      swap2\n      pop\n      pop\n      jump\t// out\n        /* \"#utility.yul\":4965:5332   */\n    tag_11:\n        /* \"#utility.yul\":5043:5049   */\n      0x00\n        /* \"#utility.yul\":5092:5094   */\n      0x20\n        /* \"#utility.yul\":5080:5089   */\n      dup3\n        /* \"#utility.yul\":5071:5078   */\n      dup5\n        /* \"#utility.yul\":5067:5090   */\n      sub\n        /* \"#utility.yul\":5063:5095   */\n      slt\n        /* \"#utility.yul\":5060:5179   */\n      iszero\n      tag_106\n      jumpi\n        /* \"#utility.yul\":5098:5177   */\n      tag_107\n      tag_100\n      jump\t// in\n    tag_107:\n        /* \"#utility.yul\":5060:5179   */\n    tag_106:\n        /* \"#utility.yul\":5218:5219   */\n      0x00\n        /* \"#utility.yul\":5243:5315   */\n      tag_108\n        /* \"#utility.yul\":5307:5314   */\n      dup5\n        /* \"#utility.yul\":5298:5304   */\n      dup3\n        /* \"#utility.yul\":5287:5296   */\n      dup6\n        /* \"#utility.yul\":5283:5305   */\n      add\n        /* \"#utility.yul\":5243:5315   */\n      tag_66\n      jump\t// in\n    tag_108:\n        /* \"#utility.yul\":5233:5315   */\n      swap2\n      pop\n        /* \"#utility.yul\":5189:5325   */\n      pop\n        /* \"#utility.yul\":4965:5332   */\n      swap3\n      swap2\n      pop\n      pop\n      jump\t// out\n        /* \"#utility.yul\":5338:6175   */\n    tag_7:\n        /* \"#utility.yul\":5444:5450   */\n      0x00\n        /* \"#utility.yul\":5452:5458   */\n      dup1\n        /* \"#utility.yul\":5460:5466   */\n      0x00\n        /* \"#utility.yul\":5509:5511   */\n      0x60\n        /* \"#utility.yul\":5497:5506   */\n      dup5\n        /* \"#utility.yul\":5488:5495   */\n      dup7\n        /* \"#utility.yul\":5484:5507   */\n      sub\n        /* \"#utility.yul\":5480:5512   */\n      slt\n        /* \"#utility.yul\":5477:5596   */\n      iszero\n      tag_110\n      jumpi\n        /* \"#utility.yul\":5515:5594   */\n      tag_111\n      tag_100\n      jump\t// in\n    tag_111:\n        /* \"#utility.yul\":5477:5596   */\n    tag_110:\n        /* \"#utility.yul\":5635:5636   */\n      0x00\n        /* \"#utility.yul\":5660:5732   */\n      tag_112\n        /* \"#utility.yul\":5724:5731   */\n      dup7\n        /* \"#utility.yul\":5715:5721   */\n      dup3\n        /* \"#utility.yul\":5704:5713   */\n      dup8\n        /* \"#utility.yul\":5700:5722   */\n      add\n        /* \"#utility.yul\":5660:5732   */\n      tag_66\n      jump\t// in\n    tag_112:\n        /* \"#utility.yul\":5650:5732   */\n      swap4\n      pop\n        /* \"#utility.yul\":5606:5742   */\n      pop\n        /* \"#utility.yul\":5781:5783   */\n      0x20\n        /* \"#utility.yul\":5807:5860   */\n      tag_113\n        /* \"#utility.yul\":5852:5859   */\n      dup7\n        /* \"#utility.yul\":5843:5849   */\n      dup3\n        /* \"#utility.yul\":5832:5841   */\n      dup8\n        /* \"#utility.yul\":5828:5850   */\n      add\n        /* \"#utility.yul\":5807:5860   */\n      tag_91\n      jump\t// in\n    tag_113:\n        /* \"#utility.yul\":5797:5860   */\n      swap3\n      pop\n        /* \"#utility.yul\":5752:5870   */\n      pop\n        /* \"#utility.yul\":5937:5939   */\n      0x40\n        /* \"#utility.yul\":5926:5935   */\n      dup5\n        /* \"#utility.yul\":5922:5940   */\n      add\n        /* \"#utility.yul\":5909:5941   */\n      calldataload\n        /* \"#utility.yul\":5968:5986   */\n      0xffffffffffffffff\n        /* \"#utility.yul\":5960:5966   */\n      dup2\n        /* \"#utility.yul\":5957:5987   */\n      gt\n        /* \"#utility.yul\":5954:6071   */\n      iszero\n      tag_114\n      jumpi\n        /* \"#utility.yul\":5990:6069   */\n      tag_115\n      tag_103\n      jump\t// in\n    tag_115:\n        /* \"#utility.yul\":5954:6071   */\n    tag_114:\n        /* \"#utility.yul\":6095:6158   */\n      tag_116\n        /* \"#utility.yul\":6150:6157   */\n      dup7\n        /* \"#utility.yul\":6141:6147   */\n      dup3\n        /* \"#utility.yul\":6130:6139   */\n      dup8\n        /* \"#utility.yul\":6126:6148   */\n      add\n        /* \"#utility.yul\":6095:6158   */\n      tag_70\n      jump\t// in\n    tag_116:\n        /* \"#utility.yul\":6085:6158   */\n      swap2\n      pop\n        /* \"#utility.yul\":5880:6168   */\n      pop\n        /* \"#utility.yul\":5338:6175   */\n      swap3\n      pop\n      swap3\n      pop\n      swap3\n      jump\t// out\n        /* \"#utility.yul\":6181:6545   */\n    tag_117:\n        /* \"#utility.yul\":6269:6272   */\n      0x00\n        /* \"#utility.yul\":6297:6336   */\n      tag_119\n        /* \"#utility.yul\":6330:6335   */\n      dup3\n        /* \"#utility.yul\":6297:6336   */\n      tag_120\n      jump\t// in\n    tag_119:\n        /* \"#utility.yul\":6352:6423   */\n      tag_121\n        /* \"#utility.yul\":6416:6422   */\n      dup2\n        /* \"#utility.yul\":6411:6414   */\n      dup6\n        /* \"#utility.yul\":6352:6423   */\n      tag_122\n      jump\t// in\n    tag_121:\n        /* \"#utility.yul\":6345:6423   */\n      swap4\n      pop\n        /* \"#utility.yul\":6432:6484   */\n      tag_123\n        /* \"#utility.yul\":6477:6483   */\n      dup2\n        /* \"#utility.yul\":6472:6475   */\n      dup6\n        /* \"#utility.yul\":6465:6469   */\n      0x20\n        /* \"#utility.yul\":6458:6463   */\n      dup7\n        /* \"#utility.yul\":6454:6470   */\n      add\n        /* \"#utility.yul\":6432:6484   */\n      tag_60\n      jump\t// in\n    tag_123:\n        /* \"#utility.yul\":6509:6538   */\n      tag_124\n        /* \"#utility.yul\":6531:6537   */\n      dup2\n        /* \"#utility.yul\":6509:6538   */\n      tag_125\n      jump\t// in\n    tag_124:\n        /* \"#utility.yul\":6504:6507   */\n      dup5\n        /* \"#utility.yul\":6500:6539   */\n      add\n        /* \"#utility.yul\":6493:6539   */\n      swap2\n      pop\n        /* \"#utility.yul\":6273:6545   */\n      pop\n        /* \"#utility.yul\":6181:6545   */\n      swap3\n      swap2\n      pop\n      pop\n      jump\t// out\n        /* \"#utility.yul\":6551:6669   */\n    tag_126:\n        /* \"#utility.yul\":6638:6662   */\n      tag_128\n        /* \"#utility.yul\":6656:6661   */\n      dup2\n        /* \"#utility.yul\":6638:6662   */\n      tag_129\n      jump\t// in\n    tag_128:\n        /* \"#utility.yul\":6633:6636   */\n      dup3\n        /* \"#utility.yul\":6626:6663   */\n      mstore\n        /* \"#utility.yul\":6551:6669   */\n      pop\n      pop\n      jump\t// out\n        /* \"#utility.yul\":6675:7098   */\n    tag_15:\n        /* \"#utility.yul\":6816:6820   */\n      0x00\n        /* \"#utility.yul\":6854:6856   */\n      0x40\n        /* \"#utility.yul\":6843:6852   */\n      dup3\n        /* \"#utility.yul\":6839:6857   */\n      add\n        /* \"#utility.yul\":6831:6857   */\n      swap1\n      pop\n        /* \"#utility.yul\":6867:6938   */\n      tag_131\n        /* \"#utility.yul\":6935:6936   */\n      0x00\n        /* \"#utility.yul\":6924:6933   */\n      dup4\n        /* \"#utility.yul\":6920:6937   */\n      add\n        /* \"#utility.yul\":6911:6917   */\n      dup6\n        /* \"#utility.yul\":6867:6938   */\n      tag_126\n      jump\t// in\n    tag_131:\n        /* \"#utility.yul\":6985:6994   */\n      dup2\n        /* \"#utility.yul\":6979:6983   */\n      dup2\n        /* \"#utility.yul\":6975:6995   */\n      sub\n        /* \"#utility.yul\":6970:6972   */\n      0x20\n        /* \"#utility.yul\":6959:6968   */\n      dup4\n        /* \"#utility.yul\":6955:6973   */\n      add\n        /* \"#utility.yul\":6948:6996   */\n      mstore\n        /* \"#utility.yul\":7013:7091   */\n      tag_132\n        /* \"#utility.yul\":7086:7090   */\n      dup2\n        /* \"#utility.yul\":7077:7083   */\n      dup5\n        /* \"#utility.yul\":7013:7091   */\n      tag_117\n      jump\t// in\n    tag_132:\n        /* \"#utility.yul\":7005:7091   */\n      swap1\n      pop\n        /* \"#utility.yul\":6675:7098   */\n      swap4\n      swap3\n      pop\n      pop\n      pop\n      jump\t// out\n        /* \"#utility.yul\":7104:7233   */\n    tag_31:\n        /* \"#utility.yul\":7138:7144   */\n      0x00\n        /* \"#utility.yul\":7165:7185   */\n      tag_134\n      tag_135\n      jump\t// in\n    tag_134:\n        /* \"#utility.yul\":7155:7185   */\n      swap1\n      pop\n        /* \"#utility.yul\":7194:7227   */\n      tag_136\n        /* \"#utility.yul\":7222:7226   */\n      dup3\n        /* \"#utility.yul\":7214:7220   */\n      dup3\n        /* \"#utility.yul\":7194:7227   */\n      tag_137\n      jump\t// in\n    tag_136:\n        /* \"#utility.yul\":7104:7233   */\n      swap2\n      swap1\n      pop\n      jump\t// out\n        /* \"#utility.yul\":7239:7314   */\n    tag_135:\n        /* \"#utility.yul\":7272:7278   */\n      0x00\n        /* \"#utility.yul\":7305:7307   */\n      0x40\n        /* \"#utility.yul\":7299:7308   */\n      mload\n        /* \"#utility.yul\":7289:7308   */\n      swap1\n      pop\n        /* \"#utility.yul\":7239:7314   */\n      swap1\n      jump\t// out\n        /* \"#utility.yul\":7320:7650   */\n    tag_30:\n        /* \"#utility.yul\":7416:7420   */\n      0x00\n        /* \"#utility.yul\":7506:7524   */\n      0xffffffffffffffff\n        /* \"#utility.yul\":7498:7504   */\n      dup3\n        /* \"#utility.yul\":7495:7525   */\n      gt\n        /* \"#utility.yul\":7492:7548   */\n      iszero\n      tag_140\n      jumpi\n        /* \"#utility.yul\":7528:7546   */\n      tag_141\n      tag_142\n      jump\t// in\n    tag_141:\n        /* \"#utility.yul\":7492:7548   */\n    tag_140:\n        /* \"#utility.yul\":7578:7582   */\n      0x20\n        /* \"#utility.yul\":7570:7576   */\n      dup3\n        /* \"#utility.yul\":7566:7583   */\n      mul\n        /* \"#utility.yul\":7558:7583   */\n      swap1\n      pop\n        /* \"#utility.yul\":7638:7642   */\n      0x20\n        /* \"#utility.yul\":7632:7636   */\n      dup2\n        /* \"#utility.yul\":7628:7643   */\n      add\n        /* \"#utility.yul\":7620:7643   */\n      swap1\n      pop\n        /* \"#utility.yul\":7320:7650   */\n      swap2\n      swap1\n      pop\n      jump\t// out\n        /* \"#utility.yul\":7656:7964   */\n    tag_47:\n        /* \"#utility.yul\":7718:7722   */\n      0x00\n        /* \"#utility.yul\":7808:7826   */\n      0xffffffffffffffff\n        /* \"#utility.yul\":7800:7806   */\n      dup3\n        /* \"#utility.yul\":7797:7827   */\n      gt\n        /* \"#utility.yul\":7794:7850   */\n      iszero\n      tag_144\n      jumpi\n        /* \"#utility.yul\":7830:7848   */\n      tag_145\n      tag_142\n      jump\t// in\n    tag_145:\n        /* \"#utility.yul\":7794:7850   */\n    tag_144:\n        /* \"#utility.yul\":7868:7897   */\n      tag_146\n        /* \"#utility.yul\":7890:7896   */\n      dup3\n        /* \"#utility.yul\":7868:7897   */\n      tag_125\n      jump\t// in\n    tag_146:\n        /* \"#utility.yul\":7860:7897   */\n      swap1\n      pop\n        /* \"#utility.yul\":7952:7956   */\n      0x20\n        /* \"#utility.yul\":7946:7950   */\n      dup2\n        /* \"#utility.yul\":7942:7957   */\n      add\n        /* \"#utility.yul\":7934:7957   */\n      swap1\n      pop\n        /* \"#utility.yul\":7656:7964   */\n      swap2\n      swap1\n      pop\n      jump\t// out\n        /* \"#utility.yul\":7970:8069   */\n    tag_120:\n        /* \"#utility.yul\":8022:8028   */\n      0x00\n        /* \"#utility.yul\":8056:8061   */\n      dup2\n        /* \"#utility.yul\":8050:8062   */\n      mload\n        /* \"#utility.yul\":8040:8062   */\n      swap1\n      pop\n        /* \"#utility.yul\":7970:8069   */\n      swap2\n      swap1\n      pop\n      jump\t// out\n        /* \"#utility.yul\":8075:8244   */\n    tag_122:\n        /* \"#utility.yul\":8159:8170   */\n      0x00\n        /* \"#utility.yul\":8193:8199   */\n      dup3\n        /* \"#utility.yul\":8188:8191   */\n      dup3\n        /* \"#utility.yul\":8181:8200   */\n      mstore\n        /* \"#utility.yul\":8233:8237   */\n      0x20\n        /* \"#utility.yul\":8228:8231   */\n      dup3\n        /* \"#utility.yul\":8224:8238   */\n      add\n        /* \"#utility.yul\":8209:8238   */\n      swap1\n      pop\n        /* \"#utility.yul\":8075:8244   */\n      swap3\n      swap2\n      pop\n      pop\n      jump\t// out\n        /* \"#utility.yul\":8250:8346   */\n    tag_149:\n        /* \"#utility.yul\":8287:8294   */\n      0x00\n        /* \"#utility.yul\":8316:8340   */\n      tag_151\n        /* \"#utility.yul\":8334:8339   */\n      dup3\n        /* \"#utility.yul\":8316:8340   */\n      tag_152\n      jump\t// in\n    tag_151:\n        /* \"#utility.yul\":8305:8340   */\n      swap1\n      pop\n        /* \"#utility.yul\":8250:8346   */\n      swap2\n      swap1\n      pop\n      jump\t// out\n        /* \"#utility.yul\":8352:8467   */\n    tag_153:\n        /* \"#utility.yul\":8408:8415   */\n      0x00\n        /* \"#utility.yul\":8437:8461   */\n      tag_155\n        /* \"#utility.yul\":8455:8460   */\n      dup3\n        /* \"#utility.yul\":8437:8461   */\n      tag_149\n      jump\t// in\n    tag_155:\n        /* \"#utility.yul\":8426:8461   */\n      swap1\n      pop\n        /* \"#utility.yul\":8352:8467   */\n      swap2\n      swap1\n      pop\n      jump\t// out\n        /* \"#utility.yul\":8473:8599   */\n    tag_152:\n        /* \"#utility.yul\":8510:8517   */\n      0x00\n        /* \"#utility.yul\":8550:8592   */\n      0xffffffffffffffffffffffffffffffffffffffff\n        /* \"#utility.yul\":8543:8548   */\n      dup3\n        /* \"#utility.yul\":8539:8593   */\n      and\n        /* \"#utility.yul\":8528:8593   */\n      swap1\n      pop\n        /* \"#utility.yul\":8473:8599   */\n      swap2\n      swap1\n      pop\n      jump\t// out\n        /* \"#utility.yul\":8605:8682   */\n    tag_129:\n        /* \"#utility.yul\":8642:8649   */\n      0x00\n        /* \"#utility.yul\":8671:8676   */\n      dup2\n        /* \"#utility.yul\":8660:8676   */\n      swap1\n      pop\n        /* \"#utility.yul\":8605:8682   */\n      swap2\n      swap1\n      pop\n      jump\t// out\n        /* \"#utility.yul\":8688:8842   */\n    tag_52:\n        /* \"#utility.yul\":8772:8778   */\n      dup3\n        /* \"#utility.yul\":8767:8770   */\n      dup2\n        /* \"#utility.yul\":8762:8765   */\n      dup4\n        /* \"#utility.yul\":8749:8779   */\n      calldatacopy\n        /* \"#utility.yul\":8834:8835   */\n      0x00\n        /* \"#utility.yul\":8825:8831   */\n      dup4\n        /* \"#utility.yul\":8820:8823   */\n      dup4\n        /* \"#utility.yul\":8816:8832   */\n      add\n        /* \"#utility.yul\":8809:8836   */\n      mstore\n        /* \"#utility.yul\":8688:8842   */\n      pop\n      pop\n      pop\n      jump\t// out\n        /* \"#utility.yul\":8848:9155   */\n    tag_60:\n        /* \"#utility.yul\":8916:8917   */\n      0x00\n        /* \"#utility.yul\":8926:9039   */\n    tag_160:\n        /* \"#utility.yul\":8940:8946   */\n      dup4\n        /* \"#utility.yul\":8937:8938   */\n      dup2\n        /* \"#utility.yul\":8934:8947   */\n      lt\n        /* \"#utility.yul\":8926:9039   */\n      iszero\n      tag_162\n      jumpi\n        /* \"#utility.yul\":9025:9026   */\n      dup1\n        /* \"#utility.yul\":9020:9023   */\n      dup3\n        /* \"#utility.yul\":9016:9027   */\n      add\n        /* \"#utility.yul\":9010:9028   */\n      mload\n        /* \"#utility.yul\":9006:9007   */\n      dup2\n        /* \"#utility.yul\":9001:9004   */\n      dup5\n        /* \"#utility.yul\":8997:9008   */\n      add\n        /* \"#utility.yul\":8990:9029   */\n      mstore\n        /* \"#utility.yul\":8962:8964   */\n      0x20\n        /* \"#utility.yul\":8959:8960   */\n      dup2\n        /* \"#utility.yul\":8955:8965   */\n      add\n        /* \"#utility.yul\":8950:8965   */\n      swap1\n      pop\n        /* \"#utility.yul\":8926:9039   */\n      jump(tag_160)\n    tag_162:\n        /* \"#utility.yul\":9057:9063   */\n      dup4\n        /* \"#utility.yul\":9054:9055   */\n      dup2\n        /* \"#utility.yul\":9051:9064   */\n      gt\n        /* \"#utility.yul\":9048:9149   */\n      iszero\n      tag_163\n      jumpi\n        /* \"#utility.yul\":9137:9138   */\n      0x00\n        /* \"#utility.yul\":9128:9134   */\n      dup5\n        /* \"#utility.yul\":9123:9126   */\n      dup5\n        /* \"#utility.yul\":9119:9135   */\n      add\n        /* \"#utility.yul\":9112:9139   */\n      mstore\n        /* \"#utility.yul\":9048:9149   */\n    tag_163:\n        /* \"#utility.yul\":8897:9155   */\n      pop\n        /* \"#utility.yul\":8848:9155   */\n      pop\n      pop\n      pop\n      jump\t// out\n        /* \"#utility.yul\":9161:9442   */\n    tag_137:\n        /* \"#utility.yul\":9244:9271   */\n      tag_165\n        /* \"#utility.yul\":9266:9270   */\n      dup3\n        /* \"#utility.yul\":9244:9271   */\n      tag_125\n      jump\t// in\n    tag_165:\n        /* \"#utility.yul\":9236:9242   */\n      dup2\n        /* \"#utility.yul\":9232:9272   */\n      add\n        /* \"#utility.yul\":9374:9380   */\n      dup2\n        /* \"#utility.yul\":9362:9372   */\n      dup2\n        /* \"#utility.yul\":9359:9381   */\n      lt\n        /* \"#utility.yul\":9338:9356   */\n      0xffffffffffffffff\n        /* \"#utility.yul\":9326:9336   */\n      dup3\n        /* \"#utility.yul\":9323:9357   */\n      gt\n        /* \"#utility.yul\":9320:9382   */\n      or\n        /* \"#utility.yul\":9317:9405   */\n      iszero\n      tag_166\n      jumpi\n        /* \"#utility.yul\":9385:9403   */\n      tag_167\n      tag_142\n      jump\t// in\n    tag_167:\n        /* \"#utility.yul\":9317:9405   */\n    tag_166:\n        /* \"#utility.yul\":9425:9435   */\n      dup1\n        /* \"#utility.yul\":9421:9423   */\n      0x40\n        /* \"#utility.yul\":9414:9436   */\n      mstore\n        /* \"#utility.yul\":9204:9442   */\n      pop\n        /* \"#utility.yul\":9161:9442   */\n      pop\n      pop\n      jump\t// out\n        /* \"#utility.yul\":9448:9628   */\n    tag_142:\n        /* \"#utility.yul\":9496:9573   */\n      0x4e487b7100000000000000000000000000000000000000000000000000000000\n        /* \"#utility.yul\":9493:9494   */\n      0x00\n        /* \"#utility.yul\":9486:9574   */\n      mstore\n        /* \"#utility.yul\":9593:9597   */\n      0x41\n        /* \"#utility.yul\":9590:9591   */\n      0x04\n        /* \"#utility.yul\":9583:9598   */\n      mstore\n        /* \"#utility.yul\":9617:9621   */\n      0x24\n        /* \"#utility.yul\":9614:9615   */\n      0x00\n        /* \"#utility.yul\":9607:9622   */\n      revert\n        /* \"#utility.yul\":9634:9751   */\n    tag_40:\n        /* \"#utility.yul\":9743:9744   */\n      0x00\n        /* \"#utility.yul\":9740:9741   */\n      dup1\n        /* \"#utility.yul\":9733:9745   */\n      revert\n        /* \"#utility.yul\":9757:9874   */\n    tag_83:\n        /* \"#utility.yul\":9866:9867   */\n      0x00\n        /* \"#utility.yul\":9863:9864   */\n      dup1\n        /* \"#utility.yul\":9856:9868   */\n      revert\n        /* \"#utility.yul\":9880:9997   */\n    tag_89:\n        /* \"#utility.yul\":9989:9990   */\n      0x00\n        /* \"#utility.yul\":9986:9987   */\n      dup1\n        /* \"#utility.yul\":9979:9991   */\n      revert\n        /* \"#utility.yul\":10003:10120   */\n    tag_34:\n        /* \"#utility.yul\":10112:10113   */\n      0x00\n        /* \"#utility.yul\":10109:10110   */\n      dup1\n        /* \"#utility.yul\":10102:10114   */\n      revert\n        /* \"#utility.yul\":10126:10243   */\n    tag_50:\n        /* \"#utility.yul\":10235:10236   */\n      0x00\n        /* \"#utility.yul\":10232:10233   */\n      dup1\n        /* \"#utility.yul\":10225:10237   */\n      revert\n        /* \"#utility.yul\":10249:10366   */\n    tag_103:\n        /* \"#utility.yul\":10358:10359   */\n      0x00\n        /* \"#utility.yul\":10355:10356   */\n      dup1\n        /* \"#utility.yul\":10348:10360   */\n      revert\n        /* \"#utility.yul\":10372:10489   */\n    tag_100:\n        /* \"#utility.yul\":10481:10482   */\n      0x00\n        /* \"#utility.yul\":10478:10479   */\n      dup1\n        /* \"#utility.yul\":10471:10483   */\n      revert\n        /* \"#utility.yul\":10495:10597   */\n    tag_125:\n        /* \"#utility.yul\":10536:10542   */\n      0x00\n        /* \"#utility.yul\":10587:10589   */\n      0x1f\n        /* \"#utility.yul\":10583:10590   */\n      not\n        /* \"#utility.yul\":10578:10580   */\n      0x1f\n        /* \"#utility.yul\":10571:10576   */\n      dup4\n        /* \"#utility.yul\":10567:10581   */\n      add\n        /* \"#utility.yul\":10563:10591   */\n      and\n        /* \"#utility.yul\":10553:10591   */\n      swap1\n      pop\n        /* \"#utility.yul\":10495:10597   */\n      swap2\n      swap1\n      pop\n      jump\t// out\n        /* \"#utility.yul\":10603:10763   */\n    tag_69:\n        /* \"#utility.yul\":10695:10738   */\n      tag_178\n        /* \"#utility.yul\":10732:10737   */\n      dup2\n        /* \"#utility.yul\":10695:10738   */\n      tag_153\n      jump\t// in\n    tag_178:\n        /* \"#utility.yul\":10688:10693   */\n      dup2\n        /* \"#utility.yul\":10685:10739   */\n      eq\n        /* \"#utility.yul\":10675:10757   */\n      tag_179\n      jumpi\n        /* \"#utility.yul\":10753:10754   */\n      0x00\n        /* \"#utility.yul\":10750:10751   */\n      dup1\n        /* \"#utility.yul\":10743:10755   */\n      revert\n        /* \"#utility.yul\":10675:10757   */\n    tag_179:\n        /* \"#utility.yul\":10603:10763   */\n      pop\n      jump\t// out\n        /* \"#utility.yul\":10769:10891   */\n    tag_94:\n        /* \"#utility.yul\":10842:10866   */\n      tag_181\n        /* \"#utility.yul\":10860:10865   */\n      dup2\n        /* \"#utility.yul\":10842:10866   */\n      tag_129\n      jump\t// in\n    tag_181:\n        /* \"#utility.yul\":10835:10840   */\n      dup2\n        /* \"#utility.yul\":10832:10867   */\n      eq\n        /* \"#utility.yul\":10822:10885   */\n      tag_182\n      jumpi\n        /* \"#utility.yul\":10881:10882   */\n      0x00\n        /* \"#utility.yul\":10878:10879   */\n      dup1\n        /* \"#utility.yul\":10871:10883   */\n      revert\n        /* \"#utility.yul\":10822:10885   */\n    tag_182:\n        /* \"#utility.yul\":10769:10891   */\n      pop\n      jump\t// out\n\n    auxdata: 0xa2646970667358221220dac3307d83609d45b63a4b7cfc529579dc0bdd328a15cda86236346a59475dff64736f6c63430008070033\n}\n",
				"bytecode": {
					"linkReferences": {},
					"object": "608060405234801561001057600080fd5b50610736806100206000396000f3fe608060405234801561001057600080fd5b50600436106100365760003560e01c8063a1a57f3c1461003b578063dfda689c14610057575b600080fd5b61005560048036038101906100509190610429565b610073565b005b610071600480360381019061006c91906103fc565b6100e5565b005b8273ffffffffffffffffffffffffffffffffffffffff166358fcbbfd83836040518363ffffffff1660e01b81526004016100ae9291906104e0565b600060405180830381600087803b1580156100c857600080fd5b505af11580156100dc573d6000803e3d6000fd5b50505050505050565b8073ffffffffffffffffffffffffffffffffffffffff1663942b765a6040518163ffffffff1660e01b815260040160006040518083038186803b15801561012b57600080fd5b505afa15801561013f573d6000803e3d6000fd5b505050506040513d6000823e3d601f19601f8201168201806040525081019061016891906103b3565b5050565b600061017f61017a84610535565b610510565b905080838252602082019050828560208602820111156101a2576101a16106ad565b5b60005b858110156101f057815167ffffffffffffffff8111156101c8576101c761069e565b5b8086016101d5898261031d565b855260208501945060208401935050506001810190506101a5565b5050509392505050565b600061020d61020884610561565b610510565b905082815260208101848484011115610229576102286106b2565b5b6102348482856105fc565b509392505050565b600061024f61024a84610561565b610510565b90508281526020810184848401111561026b5761026a6106b2565b5b61027684828561060b565b509392505050565b600082601f8301126102935761029261069e565b5b81516102a384826020860161016c565b91505092915050565b6000813590506102bb816106d2565b92915050565b600082601f8301126102d6576102d561069e565b5b81356102e68482602086016101fa565b91505092915050565b600082601f8301126103045761030361069e565b5b815161031484826020860161023c565b91505092915050565b600060408284031215610333576103326106a3565b5b61033d6040610510565b9050600061034d8482850161039e565b600083015250602082015167ffffffffffffffff811115610371576103706106a8565b5b61037d848285016102ef565b60208301525092915050565b600081359050610398816106e9565b92915050565b6000815190506103ad816106e9565b92915050565b6000602082840312156103c9576103c86106bc565b5b600082015167ffffffffffffffff8111156103e7576103e66106b7565b5b6103f38482850161027e565b91505092915050565b600060208284031215610412576104116106bc565b5b6000610420848285016102ac565b91505092915050565b600080600060608486031215610442576104416106bc565b5b6000610450868287016102ac565b935050602061046186828701610389565b925050604084013567ffffffffffffffff811115610482576104816106b7565b5b61048e868287016102c1565b9150509250925092565b60006104a382610592565b6104ad818561059d565b93506104bd81856020860161060b565b6104c6816106c1565b840191505092915050565b6104da816105f2565b82525050565b60006040820190506104f560008301856104d1565b81810360208301526105078184610498565b90509392505050565b600061051a61052b565b9050610526828261063e565b919050565b6000604051905090565b600067ffffffffffffffff8211156105505761054f61066f565b5b602082029050602081019050919050565b600067ffffffffffffffff82111561057c5761057b61066f565b5b610585826106c1565b9050602081019050919050565b600081519050919050565b600082825260208201905092915050565b60006105b9826105d2565b9050919050565b60006105cb826105ae565b9050919050565b600073ffffffffffffffffffffffffffffffffffffffff82169050919050565b6000819050919050565b82818337600083830152505050565b60005b8381101561062957808201518184015260208101905061060e565b83811115610638576000848401525b50505050565b610647826106c1565b810181811067ffffffffffffffff821117156106665761066561066f565b5b80604052505050565b7f4e487b7100000000000000000000000000000000000000000000000000000000600052604160045260246000fd5b600080fd5b600080fd5b600080fd5b600080fd5b600080fd5b600080fd5b600080fd5b6000601f19601f8301169050919050565b6106db816105c0565b81146106e657600080fd5b50565b6106f2816105f2565b81146106fd57600080fd5b5056fea2646970667358221220dac3307d83609d45b63a4b7cfc529579dc0bdd328a15cda86236346a59475dff64736f6c63430008070033",
					"opcodes": "PUSH1 0x80 PUSH1 0x40 MSTORE CALLVALUE DUP1 ISZERO PUSH2 0x10 JUMPI PUSH1 0x0 DUP1 REVERT JUMPDEST POP PUSH2 0x736 DUP1 PUSH2 0x20 PUSH1 0x0 CODECOPY PUSH1 0x0 RETURN INVALID PUSH1 0x80 PUSH1 0x40 MSTORE CALLVALUE DUP1 ISZERO PUSH2 0x10 JUMPI PUSH1 0x0 DUP1 REVERT JUMPDEST POP PUSH1 0x4 CALLDATASIZE LT PUSH2 0x36 JUMPI PUSH1 0x0 CALLDATALOAD PUSH1 0xE0 SHR DUP1 PUSH4 0xA1A57F3C EQ PUSH2 0x3B JUMPI DUP1 PUSH4 0xDFDA689C EQ PUSH2 0x57 JUMPI JUMPDEST PUSH1 0x0 DUP1 REVERT JUMPDEST PUSH2 0x55 PUSH1 0x4 DUP1 CALLDATASIZE SUB DUP2 ADD SWAP1 PUSH2 0x50 SWAP2 SWAP1 PUSH2 0x429 JUMP JUMPDEST PUSH2 0x73 JUMP JUMPDEST STOP JUMPDEST PUSH2 0x71 PUSH1 0x4 DUP1 CALLDATASIZE SUB DUP2 ADD SWAP1 PUSH2 0x6C SWAP2 SWAP1 PUSH2 0x3FC JUMP JUMPDEST PUSH2 0xE5 JUMP JUMPDEST STOP JUMPDEST DUP3 PUSH20 0xFFFFFFFFFFFFFFFFFFFFFFFFFFFFFFFFFFFFFFFF AND PUSH4 0x58FCBBFD DUP4 DUP4 PUSH1 0x40 MLOAD DUP4 PUSH4 0xFFFFFFFF AND PUSH1 0xE0 SHL DUP2 MSTORE PUSH1 0x4 ADD PUSH2 0xAE SWAP3 SWAP2 SWAP1 PUSH2 0x4E0 JUMP JUMPDEST PUSH1 0x0 PUSH1 0x40 MLOAD DUP1 DUP4 SUB DUP2 PUSH1 0x0 DUP8 DUP1 EXTCODESIZE ISZERO DUP1 ISZERO PUSH2 0xC8 JUMPI PUSH1 0x0 DUP1 REVERT JUMPDEST POP GAS CALL ISZERO DUP1 ISZERO PUSH2 0xDC JUMPI RETURNDATASIZE PUSH1 0x0 DUP1 RETURNDATACOPY RETURNDATASIZE PUSH1 0x0 REVERT JUMPDEST POP POP POP POP POP POP POP JUMP JUMPDEST DUP1 PUSH20 0xFFFFFFFFFFFFFFFFFFFFFFFFFFFFFFFFFFFFFFFF AND PUSH4 0x942B765A PUSH1 0x40 MLOAD DUP2 PUSH4 0xFFFFFFFF AND PUSH1 0xE0 SHL DUP2 MSTORE PUSH1 0x4 ADD PUSH1 0x0 PUSH1 0x40 MLOAD DUP1 DUP4 SUB DUP2 DUP7 DUP1 EXTCODESIZE ISZERO DUP1 ISZERO PUSH2 0x12B JUMPI PUSH1 0x0 DUP1 REVERT JUMPDEST POP GAS STATICCALL ISZERO DUP1 ISZERO PUSH2 0x13F JUMPI RETURNDATASIZE PUSH1 0x0 DUP1 RETURNDATACOPY RETURNDATASIZE PUSH1 0x0 REVERT JUMPDEST POP POP POP POP PUSH1 0x40 MLOAD RETURNDATASIZE PUSH1 0x0 DUP3 RETURNDATACOPY RETURNDATASIZE PUSH1 0x1F NOT PUSH1 0x1F DUP3 ADD AND DUP3 ADD DUP1 PUSH1 0x40 MSTORE POP DUP2 ADD SWAP1 PUSH2 0x168 SWAP2 SWAP1 PUSH2 0x3B3 JUMP JUMPDEST POP POP JUMP JUMPDEST PUSH1 0x0 PUSH2 0x17F PUSH2 0x17A DUP5 PUSH2 0x535 JUMP JUMPDEST PUSH2 0x510 JUMP JUMPDEST SWAP1 POP DUP1 DUP4 DUP3 MSTORE PUSH1 0x20 DUP3 ADD SWAP1 POP DUP3 DUP6 PUSH1 0x20 DUP7 MUL DUP3 ADD GT ISZERO PUSH2 0x1A2 JUMPI PUSH2 0x1A1 PUSH2 0x6AD JUMP JUMPDEST JUMPDEST PUSH1 0x0 JUMPDEST DUP6 DUP2 LT ISZERO PUSH2 0x1F0 JUMPI DUP2 MLOAD PUSH8 0xFFFFFFFFFFFFFFFF DUP2 GT ISZERO PUSH2 0x1C8 JUMPI PUSH2 0x1C7 PUSH2 0x69E JUMP JUMPDEST JUMPDEST DUP1 DUP7 ADD PUSH2 0x1D5 DUP10 DUP3 PUSH2 0x31D JUMP JUMPDEST DUP6 MSTORE PUSH1 0x20 DUP6 ADD SWAP5 POP PUSH1 0x20 DUP5 ADD SWAP4 POP POP POP PUSH1 0x1 DUP2 ADD SWAP1 POP PUSH2 0x1A5 JUMP JUMPDEST POP POP POP SWAP4 SWAP3 POP POP POP JUMP JUMPDEST PUSH1 0x0 PUSH2 0x20D PUSH2 0x208 DUP5 PUSH2 0x561 JUMP JUMPDEST PUSH2 0x510 JUMP JUMPDEST SWAP1 POP DUP3 DUP2 MSTORE PUSH1 0x20 DUP2 ADD DUP5 DUP5 DUP5 ADD GT ISZERO PUSH2 0x229 JUMPI PUSH2 0x228 PUSH2 0x6B2 JUMP JUMPDEST JUMPDEST PUSH2 0x234 DUP5 DUP3 DUP6 PUSH2 0x5FC JUMP JUMPDEST POP SWAP4 SWAP3 POP POP POP JUMP JUMPDEST PUSH1 0x0 PUSH2 0x24F PUSH2 0x24A DUP5 PUSH2 0x561 JUMP JUMPDEST PUSH2 0x510 JUMP JUMPDEST SWAP1 POP DUP3 DUP2 MSTORE PUSH1 0x20 DUP2 ADD DUP5 DUP5 DUP5 ADD GT ISZERO PUSH2 0x26B JUMPI PUSH2 0x26A PUSH2 0x6B2 JUMP JUMPDEST JUMPDEST PUSH2 0x276 DUP5 DUP3 DUP6 PUSH2 0x60B JUMP JUMPDEST POP SWAP4 SWAP3 POP POP POP JUMP JUMPDEST PUSH1 0x0 DUP3 PUSH1 0x1F DUP4 ADD SLT PUSH2 0x293 JUMPI PUSH2 0x292 PUSH2 0x69E JUMP JUMPDEST JUMPDEST DUP2 MLOAD PUSH2 0x2A3 DUP5 DUP3 PUSH1 0x20 DUP7 ADD PUSH2 0x16C JUMP JUMPDEST SWAP2 POP POP SWAP3 SWAP2 POP POP JUMP JUMPDEST PUSH1 0x0 DUP2 CALLDATALOAD SWAP1 POP PUSH2 0x2BB DUP2 PUSH2 0x6D2 JUMP JUMPDEST SWAP3 SWAP2 POP POP JUMP JUMPDEST PUSH1 0x0 DUP3 PUSH1 0x1F DUP4 ADD SLT PUSH2 0x2D6 JUMPI PUSH2 0x2D5 PUSH2 0x69E JUMP JUMPDEST JUMPDEST DUP2 CALLDATALOAD PUSH2 0x2E6 DUP5 DUP3 PUSH1 0x20 DUP7 ADD PUSH2 0x1FA JUMP JUMPDEST SWAP2 POP POP SWAP3 SWAP2 POP POP JUMP JUMPDEST PUSH1 0x0 DUP3 PUSH1 0x1F DUP4 ADD SLT PUSH2 0x304 JUMPI PUSH2 0x303 PUSH2 0x69E JUMP JUMPDEST JUMPDEST DUP2 MLOAD PUSH2 0x314 DUP5 DUP3 PUSH1 0x20 DUP7 ADD PUSH2 0x23C JUMP JUMPDEST SWAP2 POP POP SWAP3 SWAP2 POP POP JUMP JUMPDEST PUSH1 0x0 PUSH1 0x40 DUP3 DUP5 SUB SLT ISZERO PUSH2 0x333 JUMPI PUSH2 0x332 PUSH2 0x6A3 JUMP JUMPDEST JUMPDEST PUSH2 0x33D PUSH1 0x40 PUSH2 0x510 JUMP JUMPDEST SWAP1 POP PUSH1 0x0 PUSH2 0x34D DUP5 DUP3 DUP6 ADD PUSH2 0x39E JUMP JUMPDEST PUSH1 0x0 DUP4 ADD MSTORE POP PUSH1 0x20 DUP3 ADD MLOAD PUSH8 0xFFFFFFFFFFFFFFFF DUP2 GT ISZERO PUSH2 0x371 JUMPI PUSH2 0x370 PUSH2 0x6A8 JUMP JUMPDEST JUMPDEST PUSH2 0x37D DUP5 DUP3 DUP6 ADD PUSH2 0x2EF JUMP JUMPDEST PUSH1 0x20 DUP4 ADD MSTORE POP SWAP3 SWAP2 POP POP JUMP JUMPDEST PUSH1 0x0 DUP2 CALLDATALOAD SWAP1 POP PUSH2 0x398 DUP2 PUSH2 0x6E9 JUMP JUMPDEST SWAP3 SWAP2 POP POP JUMP JUMPDEST PUSH1 0x0 DUP2 MLOAD SWAP1 POP PUSH2 0x3AD DUP2 PUSH2 0x6E9 JUMP JUMPDEST SWAP3 SWAP2 POP POP JUMP JUMPDEST PUSH1 0x0 PUSH1 0x20 DUP3 DUP5 SUB SLT ISZERO PUSH2 0x3C9 JUMPI PUSH2 0x3C8 PUSH2 0x6BC JUMP JUMPDEST JUMPDEST PUSH1 0x0 DUP3 ADD MLOAD PUSH8 0xFFFFFFFFFFFFFFFF DUP2 GT ISZERO PUSH2 0x3E7 JUMPI PUSH2 0x3E6 PUSH2 0x6B7 JUMP JUMPDEST JUMPDEST PUSH2 0x3F3 DUP5 DUP3 DUP6 ADD PUSH2 0x27E JUMP JUMPDEST SWAP2 POP POP SWAP3 SWAP2 POP POP JUMP JUMPDEST PUSH1 0x0 PUSH1 0x20 DUP3 DUP5 SUB SLT ISZERO PUSH2 0x412 JUMPI PUSH2 0x411 PUSH2 0x6BC JUMP JUMPDEST JUMPDEST PUSH1 0x0 PUSH2 0x420 DUP5 DUP3 DUP6 ADD PUSH2 0x2AC JUMP JUMPDEST SWAP2 POP POP SWAP3 SWAP2 POP POP JUMP JUMPDEST PUSH1 0x0 DUP1 PUSH1 0x0 PUSH1 0x60 DUP5 DUP7 SUB SLT ISZERO PUSH2 0x442 JUMPI PUSH2 0x441 PUSH2 0x6BC JUMP JUMPDEST JUMPDEST PUSH1 0x0 PUSH2 0x450 DUP7 DUP3 DUP8 ADD PUSH2 0x2AC JUMP JUMPDEST SWAP4 POP POP PUSH1 0x20 PUSH2 0x461 DUP7 DUP3 DUP8 ADD PUSH2 0x389 JUMP JUMPDEST SWAP3 POP POP PUSH1 0x40 DUP5 ADD CALLDATALOAD PUSH8 0xFFFFFFFFFFFFFFFF DUP2 GT ISZERO PUSH2 0x482 JUMPI PUSH2 0x481 PUSH2 0x6B7 JUMP JUMPDEST JUMPDEST PUSH2 0x48E DUP7 DUP3 DUP8 ADD PUSH2 0x2C1 JUMP JUMPDEST SWAP2 POP POP SWAP3 POP SWAP3 POP SWAP3 JUMP JUMPDEST PUSH1 0x0 PUSH2 0x4A3 DUP3 PUSH2 0x592 JUMP JUMPDEST PUSH2 0x4AD DUP2 DUP6 PUSH2 0x59D JUMP JUMPDEST SWAP4 POP PUSH2 0x4BD DUP2 DUP6 PUSH1 0x20 DUP7 ADD PUSH2 0x60B JUMP JUMPDEST PUSH2 0x4C6 DUP2 PUSH2 0x6C1 JUMP JUMPDEST DUP5 ADD SWAP2 POP POP SWAP3 SWAP2 POP POP JUMP JUMPDEST PUSH2 0x4DA DUP2 PUSH2 0x5F2 JUMP JUMPDEST DUP3 MSTORE POP POP JUMP JUMPDEST PUSH1 0x0 PUSH1 0x40 DUP3 ADD SWAP1 POP PUSH2 0x4F5 PUSH1 0x0 DUP4 ADD DUP6 PUSH2 0x4D1 JUMP JUMPDEST DUP2 DUP2 SUB PUSH1 0x20 DUP4 ADD MSTORE PUSH2 0x507 DUP2 DUP5 PUSH2 0x498 JUMP JUMPDEST SWAP1 POP SWAP4 SWAP3 POP POP POP JUMP JUMPDEST PUSH1 0x0 PUSH2 0x51A PUSH2 0x52B JUMP JUMPDEST SWAP1 POP PUSH2 0x526 DUP3 DUP3 PUSH2 0x63E JUMP JUMPDEST SWAP2 SWAP1 POP JUMP JUMPDEST PUSH1 0x0 PUSH1 0x40 MLOAD SWAP1 POP SWAP1 JUMP JUMPDEST PUSH1 0x0 PUSH8 0xFFFFFFFFFFFFFFFF DUP3 GT ISZERO PUSH2 0x550 JUMPI PUSH2 0x54F PUSH2 0x66F JUMP JUMPDEST JUMPDEST PUSH1 0x20 DUP3 MUL SWAP1 POP PUSH1 0x20 DUP2 ADD SWAP1 POP SWAP2 SWAP1 POP JUMP JUMPDEST PUSH1 0x0 PUSH8 0xFFFFFFFFFFFFFFFF DUP3 GT ISZERO PUSH2 0x57C JUMPI PUSH2 0x57B PUSH2 0x66F JUMP JUMPDEST JUMPDEST PUSH2 0x585 DUP3 PUSH2 0x6C1 JUMP JUMPDEST SWAP1 POP PUSH1 0x20 DUP2 ADD SWAP1 POP SWAP2 SWAP1 POP JUMP JUMPDEST PUSH1 0x0 DUP2 MLOAD SWAP1 POP SWAP2 SWAP1 POP JUMP JUMPDEST PUSH1 0x0 DUP3 DUP3 MSTORE PUSH1 0x20 DUP3 ADD SWAP1 POP SWAP3 SWAP2 POP POP JUMP JUMPDEST PUSH1 0x0 PUSH2 0x5B9 DUP3 PUSH2 0x5D2 JUMP JUMPDEST SWAP1 POP SWAP2 SWAP1 POP JUMP JUMPDEST PUSH1 0x0 PUSH2 0x5CB DUP3 PUSH2 0x5AE JUMP JUMPDEST SWAP1 POP SWAP2 SWAP1 POP JUMP JUMPDEST PUSH1 0x0 PUSH20 0xFFFFFFFFFFFFFFFFFFFFFFFFFFFFFFFFFFFFFFFF DUP3 AND SWAP1 POP SWAP2 SWAP1 POP JUMP JUMPDEST PUSH1 0x0 DUP2 SWAP1 POP SWAP2 SWAP1 POP JUMP JUMPDEST DUP3 DUP2 DUP4 CALLDATACOPY PUSH1 0x0 DUP4 DUP4 ADD MSTORE POP POP POP JUMP JUMPDEST PUSH1 0x0 JUMPDEST DUP4 DUP2 LT ISZERO PUSH2 0x629 JUMPI DUP1 DUP3 ADD MLOAD DUP2 DUP5 ADD MSTORE PUSH1 0x20 DUP2 ADD SWAP1 POP PUSH2 0x60E JUMP JUMPDEST DUP4 DUP2 GT ISZERO PUSH2 0x638 JUMPI PUSH1 0x0 DUP5 DUP5 ADD MSTORE JUMPDEST POP POP POP POP JUMP JUMPDEST PUSH2 0x647 DUP3 PUSH2 0x6C1 JUMP JUMPDEST DUP2 ADD DUP2 DUP2 LT PUSH8 0xFFFFFFFFFFFFFFFF DUP3 GT OR ISZERO PUSH2 0x666 JUMPI PUSH2 0x665 PUSH2 0x66F JUMP JUMPDEST JUMPDEST DUP1 PUSH1 0x40 MSTORE POP POP POP JUMP JUMPDEST PUSH32 0x4E487B7100000000000000000000000000000000000000000000000000000000 PUSH1 0x0 MSTORE PUSH1 0x41 PUSH1 0x4 MSTORE PUSH1 0x24 PUSH1 0x0 REVERT JUMPDEST PUSH1 0x0 DUP1 REVERT JUMPDEST PUSH1 0x0 DUP1 REVERT JUMPDEST PUSH1 0x0 DUP1 REVERT JUMPDEST PUSH1 0x0 DUP1 REVERT JUMPDEST PUSH1 0x0 DUP1 REVERT JUMPDEST PUSH1 0x0 DUP1 REVERT JUMPDEST PUSH1 0x0 DUP1 REVERT JUMPDEST PUSH1 0x0 PUSH1 0x1F NOT PUSH1 0x1F DUP4 ADD AND SWAP1 POP SWAP2 SWAP1 POP JUMP JUMPDEST PUSH2 0x6DB DUP2 PUSH2 0x5C0 JUMP JUMPDEST DUP2 EQ PUSH2 0x6E6 JUMPI PUSH1 0x0 DUP1 REVERT JUMPDEST POP JUMP JUMPDEST PUSH2 0x6F2 DUP2 PUSH2 0x5F2 JUMP JUMPDEST DUP2 EQ PUSH2 0x6FD JUMPI PUSH1 0x0 DUP1 REVERT JUMPDEST POP JUMP INVALID LOG2 PUSH5 0x6970667358 0x22 SLT KECCAK256 0xDA 0xC3 ADDRESS PUSH30 0x83609D45B63A4B7CFC529579DC0BDD328A15CDA86236346A59475DFF6473 PUSH16 0x6C634300080700330000000000000000 "
				},
				"gasEstimates": {
					"creation": {
						"codeDepositCost": "369200",
						"executionCost": "405",
						"totalCost": "369605"
					},
					"external": {
						"addTask2(address,uint256,string)": "infinite",
						"getList2(address)": "infinite"
					}
				},
				"methodIdentifiers": {
					"addTask2(address,uint256,string)": "a1a57f3c",
					"getList2(address)": "dfda689c"
				}
			},
			"storageLayout": {
				"storage": [
					{
						"astId": 41,
						"contract": "todoList.sol:TodoList",
						"label": "t",
						"offset": 0,
						"slot": "0",
						"type": "t_contract(TodoListData)38"
					}
				],
				"types": {
					"t_contract(TodoListData)38": {
						"encoding": "inplace",
						"label": "contract TodoListData",
						"numberOfBytes": "20"
					}
				}
			},
			"userdoc": {
				"kind": "user",
				"methods": {},
				"version": 1
			}
		}
	}
}