{
	"login.sol": {
		"UserReg": {
			"abi": [
				{
					"inputs": [],
					"name": "getUserList",
					"outputs": [
						{
							"components": [
								{
									"internalType": "uint256",
									"name": "id",
									"type": "uint256"
								},
								{
									"internalType": "string",
									"name": "name",
									"type": "string"
								},
								{
									"internalType": "string",
									"name": "password",
									"type": "string"
								}
							],
							"internalType": "struct UserReg.User[]",
							"name": "",
							"type": "tuple[]"
						}
					],
					"stateMutability": "view",
					"type": "function"
				},
				{
					"inputs": [
						{
							"internalType": "string",
							"name": "_name",
							"type": "string"
						},
						{
							"internalType": "string",
							"name": "_password",
							"type": "string"
						}
					],
					"name": "reg",
					"outputs": [],
					"stateMutability": "nonpayable",
					"type": "function"
				}
			],
			"devdoc": {
				"kind": "dev",
				"methods": {},
				"version": 1
			},
			"evm": {
				"assembly": "    /* \"login.sol\":61:491  contract UserReg {\r... */\n  mstore(0x40, 0x80)\n    /* \"login.sol\":214:215  0 */\n  0x00\n    /* \"login.sol\":201:215  uint count = 0 */\n  0x01\n  sstore\n    /* \"login.sol\":61:491  contract UserReg {\r... */\n  callvalue\n  dup1\n  iszero\n  tag_1\n  jumpi\n  0x00\n  dup1\n  revert\ntag_1:\n  pop\n  dataSize(sub_0)\n  dup1\n  dataOffset(sub_0)\n  0x00\n  codecopy\n  0x00\n  return\nstop\n\nsub_0: assembly {\n        /* \"login.sol\":61:491  contract UserReg {\r... */\n      mstore(0x40, 0x80)\n      callvalue\n      dup1\n      iszero\n      tag_1\n      jumpi\n      0x00\n      dup1\n      revert\n    tag_1:\n      pop\n      jumpi(tag_2, lt(calldatasize, 0x04))\n      shr(0xe0, calldataload(0x00))\n      dup1\n      0x73a4e4c3\n      eq\n      tag_3\n      jumpi\n      dup1\n      0xb8522043\n      eq\n      tag_4\n      jumpi\n    tag_2:\n      0x00\n      dup1\n      revert\n        /* \"login.sol\":224:388  function reg (string memory _name,string memory _password) public {\r... */\n    tag_3:\n      tag_5\n      0x04\n      dup1\n      calldatasize\n      sub\n      dup2\n      add\n      swap1\n      tag_6\n      swap2\n      swap1\n      tag_7\n      jump\t// in\n    tag_6:\n      tag_8\n      jump\t// in\n    tag_5:\n      stop\n        /* \"login.sol\":396:488  function getUserList() public view returns (User[] memory){\r... */\n    tag_4:\n      tag_9\n      tag_10\n      jump\t// in\n    tag_9:\n      mload(0x40)\n      tag_11\n      swap2\n      swap1\n      tag_12\n      jump\t// in\n    tag_11:\n      mload(0x40)\n      dup1\n      swap2\n      sub\n      swap1\n      return\n        /* \"login.sol\":224:388  function reg (string memory _name,string memory _password) public {\r... */\n    tag_8:\n        /* \"login.sol\":301:306  count */\n      0x01\n      0x00\n        /* \"login.sol\":301:308  count++ */\n      dup2\n      sload\n      dup1\n      swap3\n      swap2\n      swap1\n      tag_14\n      swap1\n      tag_15\n      jump\t// in\n    tag_14:\n      swap2\n      swap1\n      pop\n      sstore\n      pop\n        /* \"login.sol\":319:327  userList */\n      0x00\n        /* \"login.sol\":333:379  User({id:count,name:_name,password:_password}) */\n      mload(0x40)\n      dup1\n      0x60\n      add\n      0x40\n      mstore\n      dup1\n        /* \"login.sol\":342:347  count */\n      sload(0x01)\n        /* \"login.sol\":333:379  User({id:count,name:_name,password:_password}) */\n      dup2\n      mstore\n      0x20\n      add\n        /* \"login.sol\":353:358  _name */\n      dup5\n        /* \"login.sol\":333:379  User({id:count,name:_name,password:_password}) */\n      dup2\n      mstore\n      0x20\n      add\n        /* \"login.sol\":368:377  _password */\n      dup4\n        /* \"login.sol\":333:379  User({id:count,name:_name,password:_password}) */\n      dup2\n      mstore\n      pop\n        /* \"login.sol\":319:380  userList.push(User({id:count,name:_name,password:_password})) */\n      swap1\n      dup1\n      0x01\n      dup2\n      sload\n      add\n      dup1\n      dup3\n      sstore\n      dup1\n      swap2\n      pop\n      pop\n      0x01\n      swap1\n      sub\n      swap1\n      0x00\n      mstore\n      keccak256(0x00, 0x20)\n      swap1\n      0x03\n      mul\n      add\n      0x00\n      swap1\n      swap2\n      swap1\n      swap2\n      swap1\n      swap2\n      pop\n      0x00\n      dup3\n      add\n      mload\n      dup2\n      0x00\n      add\n      sstore\n      0x20\n      dup3\n      add\n      mload\n      dup2\n      0x01\n      add\n      swap1\n      dup1\n      mload\n      swap1\n      0x20\n      add\n      swap1\n      tag_17\n      swap3\n      swap2\n      swap1\n      tag_18\n      jump\t// in\n    tag_17:\n      pop\n      0x40\n      dup3\n      add\n      mload\n      dup2\n      0x02\n      add\n      swap1\n      dup1\n      mload\n      swap1\n      0x20\n      add\n      swap1\n      tag_19\n      swap3\n      swap2\n      swap1\n      tag_18\n      jump\t// in\n    tag_19:\n      pop\n      pop\n      pop\n        /* \"login.sol\":224:388  function reg (string memory _name,string memory _password) public {\r... */\n      pop\n      pop\n      jump\t// out\n        /* \"login.sol\":396:488  function getUserList() public view returns (User[] memory){\r... */\n    tag_10:\n        /* \"login.sol\":440:453  User[] memory */\n      0x60\n        /* \"login.sol\":472:480  userList */\n      0x00\n        /* \"login.sol\":465:480  return userList */\n      dup1\n      sload\n      dup1\n      0x20\n      mul\n      0x20\n      add\n      mload(0x40)\n      swap1\n      dup2\n      add\n      0x40\n      mstore\n      dup1\n      swap3\n      swap2\n      swap1\n      dup2\n      dup2\n      mstore\n      0x20\n      add\n      0x00\n      swap1\n    tag_21:\n      dup3\n      dup3\n      lt\n      iszero\n      tag_22\n      jumpi\n      dup4\n      dup3\n      swap1\n      0x00\n      mstore\n      keccak256(0x00, 0x20)\n      swap1\n      0x03\n      mul\n      add\n      mload(0x40)\n      dup1\n      0x60\n      add\n      0x40\n      mstore\n      swap1\n      dup2\n      0x00\n      dup3\n      add\n      sload\n      dup2\n      mstore\n      0x20\n      add\n      0x01\n      dup3\n      add\n      dup1\n      sload\n      tag_24\n      swap1\n      tag_25\n      jump\t// in\n    tag_24:\n      dup1\n      0x1f\n      add\n      0x20\n      dup1\n      swap2\n      div\n      mul\n      0x20\n      add\n      mload(0x40)\n      swap1\n      dup2\n      add\n      0x40\n      mstore\n      dup1\n      swap3\n      swap2\n      swap1\n      dup2\n      dup2\n      mstore\n      0x20\n      add\n      dup3\n      dup1\n      sload\n      tag_26\n      swap1\n      tag_25\n      jump\t// in\n    tag_26:\n      dup1\n      iszero\n      tag_27\n      jumpi\n      dup1\n      0x1f\n      lt\n      tag_28\n      jumpi\n      0x0100\n      dup1\n      dup4\n      sload\n      div\n      mul\n      dup4\n      mstore\n      swap2\n      0x20\n      add\n      swap2\n      jump(tag_27)\n    tag_28:\n      dup3\n      add\n      swap2\n      swap1\n      0x00\n      mstore\n      keccak256(0x00, 0x20)\n      swap1\n    tag_29:\n      dup2\n      sload\n      dup2\n      mstore\n      swap1\n      0x01\n      add\n      swap1\n      0x20\n      add\n      dup1\n      dup4\n      gt\n      tag_29\n      jumpi\n      dup3\n      swap1\n      sub\n      0x1f\n      and\n      dup3\n      add\n      swap2\n    tag_27:\n      pop\n      pop\n      pop\n      pop\n      pop\n      dup2\n      mstore\n      0x20\n      add\n      0x02\n      dup3\n      add\n      dup1\n      sload\n      tag_30\n      swap1\n      tag_25\n      jump\t// in\n    tag_30:\n      dup1\n      0x1f\n      add\n      0x20\n      dup1\n      swap2\n      div\n      mul\n      0x20\n      add\n      mload(0x40)\n      swap1\n      dup2\n      add\n      0x40\n      mstore\n      dup1\n      swap3\n      swap2\n      swap1\n      dup2\n      dup2\n      mstore\n      0x20\n      add\n      dup3\n      dup1\n      sload\n      tag_31\n      swap1\n      tag_25\n      jump\t// in\n    tag_31:\n      dup1\n      iszero\n      tag_32\n      jumpi\n      dup1\n      0x1f\n      lt\n      tag_33\n      jumpi\n      0x0100\n      dup1\n      dup4\n      sload\n      div\n      mul\n      dup4\n      mstore\n      swap2\n      0x20\n      add\n      swap2\n      jump(tag_32)\n    tag_33:\n      dup3\n      add\n      swap2\n      swap1\n      0x00\n      mstore\n      keccak256(0x00, 0x20)\n      swap1\n    tag_34:\n      dup2\n      sload\n      dup2\n      mstore\n      swap1\n      0x01\n      add\n      swap1\n      0x20\n      add\n      dup1\n      dup4\n      gt\n      tag_34\n      jumpi\n      dup3\n      swap1\n      sub\n      0x1f\n      and\n      dup3\n      add\n      swap2\n    tag_32:\n      pop\n      pop\n      pop\n      pop\n      pop\n      dup2\n      mstore\n      pop\n      pop\n      dup2\n      mstore\n      0x20\n      add\n      swap1\n      0x01\n      add\n      swap1\n      jump(tag_21)\n    tag_22:\n      pop\n      pop\n      pop\n      pop\n      swap1\n      pop\n        /* \"login.sol\":396:488  function getUserList() public view returns (User[] memory){\r... */\n      swap1\n      jump\t// out\n    tag_18:\n      dup3\n      dup1\n      sload\n      tag_35\n      swap1\n      tag_25\n      jump\t// in\n    tag_35:\n      swap1\n      0x00\n      mstore\n      keccak256(0x00, 0x20)\n      swap1\n      0x1f\n      add\n      0x20\n      swap1\n      div\n      dup2\n      add\n      swap3\n      dup3\n      tag_37\n      jumpi\n      0x00\n      dup6\n      sstore\n      jump(tag_36)\n    tag_37:\n      dup3\n      0x1f\n      lt\n      tag_38\n      jumpi\n      dup1\n      mload\n      not(0xff)\n      and\n      dup4\n      dup1\n      add\n      or\n      dup6\n      sstore\n      jump(tag_36)\n    tag_38:\n      dup3\n      dup1\n      add\n      0x01\n      add\n      dup6\n      sstore\n      dup3\n      iszero\n      tag_36\n      jumpi\n      swap2\n      dup3\n      add\n    tag_39:\n      dup3\n      dup2\n      gt\n      iszero\n      tag_40\n      jumpi\n      dup3\n      mload\n      dup3\n      sstore\n      swap2\n      0x20\n      add\n      swap2\n      swap1\n      0x01\n      add\n      swap1\n      jump(tag_39)\n    tag_40:\n    tag_36:\n      pop\n      swap1\n      pop\n      tag_41\n      swap2\n      swap1\n      tag_42\n      jump\t// in\n    tag_41:\n      pop\n      swap1\n      jump\t// out\n    tag_42:\n    tag_43:\n      dup1\n      dup3\n      gt\n      iszero\n      tag_44\n      jumpi\n      0x00\n      dup2\n      0x00\n      swap1\n      sstore\n      pop\n      0x01\n      add\n      jump(tag_43)\n    tag_44:\n      pop\n      swap1\n      jump\t// out\n        /* \"#utility.yul\":7:419   */\n    tag_46:\n        /* \"#utility.yul\":85:90   */\n      0x00\n        /* \"#utility.yul\":110:176   */\n      tag_48\n        /* \"#utility.yul\":126:175   */\n      tag_49\n        /* \"#utility.yul\":168:174   */\n      dup5\n        /* \"#utility.yul\":126:175   */\n      tag_50\n      jump\t// in\n    tag_49:\n        /* \"#utility.yul\":110:176   */\n      tag_51\n      jump\t// in\n    tag_48:\n        /* \"#utility.yul\":101:176   */\n      swap1\n      pop\n        /* \"#utility.yul\":199:205   */\n      dup3\n        /* \"#utility.yul\":192:197   */\n      dup2\n        /* \"#utility.yul\":185:206   */\n      mstore\n        /* \"#utility.yul\":237:241   */\n      0x20\n        /* \"#utility.yul\":230:235   */\n      dup2\n        /* \"#utility.yul\":226:242   */\n      add\n        /* \"#utility.yul\":275:278   */\n      dup5\n        /* \"#utility.yul\":266:272   */\n      dup5\n        /* \"#utility.yul\":261:264   */\n      dup5\n        /* \"#utility.yul\":257:273   */\n      add\n        /* \"#utility.yul\":254:279   */\n      gt\n        /* \"#utility.yul\":251:363   */\n      iszero\n      tag_52\n      jumpi\n        /* \"#utility.yul\":282:361   */\n      tag_53\n      tag_54\n      jump\t// in\n    tag_53:\n        /* \"#utility.yul\":251:363   */\n    tag_52:\n        /* \"#utility.yul\":372:413   */\n      tag_55\n        /* \"#utility.yul\":406:412   */\n      dup5\n        /* \"#utility.yul\":401:404   */\n      dup3\n        /* \"#utility.yul\":396:399   */\n      dup6\n        /* \"#utility.yul\":372:413   */\n      tag_56\n      jump\t// in\n    tag_55:\n        /* \"#utility.yul\":91:419   */\n      pop\n        /* \"#utility.yul\":7:419   */\n      swap4\n      swap3\n      pop\n      pop\n      pop\n      jump\t// out\n        /* \"#utility.yul\":439:779   */\n    tag_57:\n        /* \"#utility.yul\":495:500   */\n      0x00\n        /* \"#utility.yul\":544:547   */\n      dup3\n        /* \"#utility.yul\":537:541   */\n      0x1f\n        /* \"#utility.yul\":529:535   */\n      dup4\n        /* \"#utility.yul\":525:542   */\n      add\n        /* \"#utility.yul\":521:548   */\n      slt\n        /* \"#utility.yul\":511:633   */\n      tag_59\n      jumpi\n        /* \"#utility.yul\":552:631   */\n      tag_60\n      tag_61\n      jump\t// in\n    tag_60:\n        /* \"#utility.yul\":511:633   */\n    tag_59:\n        /* \"#utility.yul\":669:675   */\n      dup2\n        /* \"#utility.yul\":656:676   */\n      calldataload\n        /* \"#utility.yul\":694:773   */\n      tag_62\n        /* \"#utility.yul\":769:772   */\n      dup5\n        /* \"#utility.yul\":761:767   */\n      dup3\n        /* \"#utility.yul\":754:758   */\n      0x20\n        /* \"#utility.yul\":746:752   */\n      dup7\n        /* \"#utility.yul\":742:759   */\n      add\n        /* \"#utility.yul\":694:773   */\n      tag_46\n      jump\t// in\n    tag_62:\n        /* \"#utility.yul\":685:773   */\n      swap2\n      pop\n        /* \"#utility.yul\":501:779   */\n      pop\n        /* \"#utility.yul\":439:779   */\n      swap3\n      swap2\n      pop\n      pop\n      jump\t// out\n        /* \"#utility.yul\":785:1619   */\n    tag_7:\n        /* \"#utility.yul\":873:879   */\n      0x00\n        /* \"#utility.yul\":881:887   */\n      dup1\n        /* \"#utility.yul\":930:932   */\n      0x40\n        /* \"#utility.yul\":918:927   */\n      dup4\n        /* \"#utility.yul\":909:916   */\n      dup6\n        /* \"#utility.yul\":905:928   */\n      sub\n        /* \"#utility.yul\":901:933   */\n      slt\n        /* \"#utility.yul\":898:1017   */\n      iszero\n      tag_64\n      jumpi\n        /* \"#utility.yul\":936:1015   */\n      tag_65\n      tag_66\n      jump\t// in\n    tag_65:\n        /* \"#utility.yul\":898:1017   */\n    tag_64:\n        /* \"#utility.yul\":1084:1085   */\n      0x00\n        /* \"#utility.yul\":1073:1082   */\n      dup4\n        /* \"#utility.yul\":1069:1086   */\n      add\n        /* \"#utility.yul\":1056:1087   */\n      calldataload\n        /* \"#utility.yul\":1114:1132   */\n      0xffffffffffffffff\n        /* \"#utility.yul\":1106:1112   */\n      dup2\n        /* \"#utility.yul\":1103:1133   */\n      gt\n        /* \"#utility.yul\":1100:1217   */\n      iszero\n      tag_67\n      jumpi\n        /* \"#utility.yul\":1136:1215   */\n      tag_68\n      tag_69\n      jump\t// in\n    tag_68:\n        /* \"#utility.yul\":1100:1217   */\n    tag_67:\n        /* \"#utility.yul\":1241:1304   */\n      tag_70\n        /* \"#utility.yul\":1296:1303   */\n      dup6\n        /* \"#utility.yul\":1287:1293   */\n      dup3\n        /* \"#utility.yul\":1276:1285   */\n      dup7\n        /* \"#utility.yul\":1272:1294   */\n      add\n        /* \"#utility.yul\":1241:1304   */\n      tag_57\n      jump\t// in\n    tag_70:\n        /* \"#utility.yul\":1231:1304   */\n      swap3\n      pop\n        /* \"#utility.yul\":1027:1314   */\n      pop\n        /* \"#utility.yul\":1381:1383   */\n      0x20\n        /* \"#utility.yul\":1370:1379   */\n      dup4\n        /* \"#utility.yul\":1366:1384   */\n      add\n        /* \"#utility.yul\":1353:1385   */\n      calldataload\n        /* \"#utility.yul\":1412:1430   */\n      0xffffffffffffffff\n        /* \"#utility.yul\":1404:1410   */\n      dup2\n        /* \"#utility.yul\":1401:1431   */\n      gt\n        /* \"#utility.yul\":1398:1515   */\n      iszero\n      tag_71\n      jumpi\n        /* \"#utility.yul\":1434:1513   */\n      tag_72\n      tag_69\n      jump\t// in\n    tag_72:\n        /* \"#utility.yul\":1398:1515   */\n    tag_71:\n        /* \"#utility.yul\":1539:1602   */\n      tag_73\n        /* \"#utility.yul\":1594:1601   */\n      dup6\n        /* \"#utility.yul\":1585:1591   */\n      dup3\n        /* \"#utility.yul\":1574:1583   */\n      dup7\n        /* \"#utility.yul\":1570:1592   */\n      add\n        /* \"#utility.yul\":1539:1602   */\n      tag_57\n      jump\t// in\n    tag_73:\n        /* \"#utility.yul\":1529:1602   */\n      swap2\n      pop\n        /* \"#utility.yul\":1324:1612   */\n      pop\n        /* \"#utility.yul\":785:1619   */\n      swap3\n      pop\n      swap3\n      swap1\n      pop\n      jump\t// out\n        /* \"#utility.yul\":1625:1857   */\n    tag_74:\n        /* \"#utility.yul\":1732:1742   */\n      0x00\n        /* \"#utility.yul\":1767:1851   */\n      tag_76\n        /* \"#utility.yul\":1847:1850   */\n      dup4\n        /* \"#utility.yul\":1839:1845   */\n      dup4\n        /* \"#utility.yul\":1767:1851   */\n      tag_77\n      jump\t// in\n    tag_76:\n        /* \"#utility.yul\":1753:1851   */\n      swap1\n      pop\n        /* \"#utility.yul\":1625:1857   */\n      swap3\n      swap2\n      pop\n      pop\n      jump\t// out\n        /* \"#utility.yul\":1917:2980   */\n    tag_78:\n        /* \"#utility.yul\":2074:2077   */\n      0x00\n        /* \"#utility.yul\":2103:2176   */\n      tag_80\n        /* \"#utility.yul\":2170:2175   */\n      dup3\n        /* \"#utility.yul\":2103:2176   */\n      tag_81\n      jump\t// in\n    tag_80:\n        /* \"#utility.yul\":2192:2297   */\n      tag_82\n        /* \"#utility.yul\":2290:2296   */\n      dup2\n        /* \"#utility.yul\":2285:2288   */\n      dup6\n        /* \"#utility.yul\":2192:2297   */\n      tag_83\n      jump\t// in\n    tag_82:\n        /* \"#utility.yul\":2185:2297   */\n      swap4\n      pop\n        /* \"#utility.yul\":2323:2326   */\n      dup4\n        /* \"#utility.yul\":2368:2372   */\n      0x20\n        /* \"#utility.yul\":2360:2366   */\n      dup3\n        /* \"#utility.yul\":2356:2373   */\n      mul\n        /* \"#utility.yul\":2351:2354   */\n      dup6\n        /* \"#utility.yul\":2347:2374   */\n      add\n        /* \"#utility.yul\":2398:2473   */\n      tag_84\n        /* \"#utility.yul\":2467:2472   */\n      dup6\n        /* \"#utility.yul\":2398:2473   */\n      tag_85\n      jump\t// in\n    tag_84:\n        /* \"#utility.yul\":2496:2503   */\n      dup1\n        /* \"#utility.yul\":2527:2528   */\n      0x00\n        /* \"#utility.yul\":2512:2935   */\n    tag_86:\n        /* \"#utility.yul\":2537:2543   */\n      dup6\n        /* \"#utility.yul\":2534:2535   */\n      dup2\n        /* \"#utility.yul\":2531:2544   */\n      lt\n        /* \"#utility.yul\":2512:2935   */\n      iszero\n      tag_88\n      jumpi\n        /* \"#utility.yul\":2608:2617   */\n      dup5\n        /* \"#utility.yul\":2602:2606   */\n      dup5\n        /* \"#utility.yul\":2598:2618   */\n      sub\n        /* \"#utility.yul\":2593:2596   */\n      dup10\n        /* \"#utility.yul\":2586:2619   */\n      mstore\n        /* \"#utility.yul\":2659:2665   */\n      dup2\n        /* \"#utility.yul\":2653:2666   */\n      mload\n        /* \"#utility.yul\":2687:2789   */\n      tag_89\n        /* \"#utility.yul\":2784:2788   */\n      dup6\n        /* \"#utility.yul\":2769:2782   */\n      dup3\n        /* \"#utility.yul\":2687:2789   */\n      tag_74\n      jump\t// in\n    tag_89:\n        /* \"#utility.yul\":2679:2789   */\n      swap5\n      pop\n        /* \"#utility.yul\":2812:2891   */\n      tag_90\n        /* \"#utility.yul\":2884:2890   */\n      dup4\n        /* \"#utility.yul\":2812:2891   */\n      tag_91\n      jump\t// in\n    tag_90:\n        /* \"#utility.yul\":2802:2891   */\n      swap3\n      pop\n        /* \"#utility.yul\":2920:2924   */\n      0x20\n        /* \"#utility.yul\":2915:2918   */\n      dup11\n        /* \"#utility.yul\":2911:2925   */\n      add\n        /* \"#utility.yul\":2904:2925   */\n      swap10\n      pop\n        /* \"#utility.yul\":2572:2935   */\n      pop\n        /* \"#utility.yul\":2559:2560   */\n      0x01\n        /* \"#utility.yul\":2556:2557   */\n      dup2\n        /* \"#utility.yul\":2552:2561   */\n      add\n        /* \"#utility.yul\":2547:2561   */\n      swap1\n      pop\n        /* \"#utility.yul\":2512:2935   */\n      jump(tag_86)\n    tag_88:\n        /* \"#utility.yul\":2516:2530   */\n      pop\n        /* \"#utility.yul\":2951:2955   */\n      dup3\n        /* \"#utility.yul\":2944:2955   */\n      swap8\n      pop\n        /* \"#utility.yul\":2971:2974   */\n      dup8\n        /* \"#utility.yul\":2964:2974   */\n      swap6\n      pop\n        /* \"#utility.yul\":2079:2980   */\n      pop\n      pop\n      pop\n      pop\n      pop\n        /* \"#utility.yul\":1917:2980   */\n      swap3\n      swap2\n      pop\n      pop\n      jump\t// out\n        /* \"#utility.yul\":2986:3330   */\n    tag_92:\n        /* \"#utility.yul\":3064:3067   */\n      0x00\n        /* \"#utility.yul\":3092:3131   */\n      tag_94\n        /* \"#utility.yul\":3125:3130   */\n      dup3\n        /* \"#utility.yul\":3092:3131   */\n      tag_95\n      jump\t// in\n    tag_94:\n        /* \"#utility.yul\":3147:3208   */\n      tag_96\n        /* \"#utility.yul\":3201:3207   */\n      dup2\n        /* \"#utility.yul\":3196:3199   */\n      dup6\n        /* \"#utility.yul\":3147:3208   */\n      tag_97\n      jump\t// in\n    tag_96:\n        /* \"#utility.yul\":3140:3208   */\n      swap4\n      pop\n        /* \"#utility.yul\":3217:3269   */\n      tag_98\n        /* \"#utility.yul\":3262:3268   */\n      dup2\n        /* \"#utility.yul\":3257:3260   */\n      dup6\n        /* \"#utility.yul\":3250:3254   */\n      0x20\n        /* \"#utility.yul\":3243:3248   */\n      dup7\n        /* \"#utility.yul\":3239:3255   */\n      add\n        /* \"#utility.yul\":3217:3269   */\n      tag_99\n      jump\t// in\n    tag_98:\n        /* \"#utility.yul\":3294:3323   */\n      tag_100\n        /* \"#utility.yul\":3316:3322   */\n      dup2\n        /* \"#utility.yul\":3294:3323   */\n      tag_101\n      jump\t// in\n    tag_100:\n        /* \"#utility.yul\":3289:3292   */\n      dup5\n        /* \"#utility.yul\":3285:3324   */\n      add\n        /* \"#utility.yul\":3278:3324   */\n      swap2\n      pop\n        /* \"#utility.yul\":3068:3330   */\n      pop\n        /* \"#utility.yul\":2986:3330   */\n      swap3\n      swap2\n      pop\n      pop\n      jump\t// out\n        /* \"#utility.yul\":3386:4217   */\n    tag_77:\n        /* \"#utility.yul\":3483:3486   */\n      0x00\n        /* \"#utility.yul\":3519:3523   */\n      0x60\n        /* \"#utility.yul\":3514:3517   */\n      dup4\n        /* \"#utility.yul\":3510:3524   */\n      add\n        /* \"#utility.yul\":3604:3608   */\n      0x00\n        /* \"#utility.yul\":3597:3602   */\n      dup4\n        /* \"#utility.yul\":3593:3609   */\n      add\n        /* \"#utility.yul\":3587:3610   */\n      mload\n        /* \"#utility.yul\":3623:3686   */\n      tag_103\n        /* \"#utility.yul\":3680:3684   */\n      0x00\n        /* \"#utility.yul\":3675:3678   */\n      dup7\n        /* \"#utility.yul\":3671:3685   */\n      add\n        /* \"#utility.yul\":3657:3669   */\n      dup3\n        /* \"#utility.yul\":3623:3686   */\n      tag_104\n      jump\t// in\n    tag_103:\n        /* \"#utility.yul\":3534:3696   */\n      pop\n        /* \"#utility.yul\":3778:3782   */\n      0x20\n        /* \"#utility.yul\":3771:3776   */\n      dup4\n        /* \"#utility.yul\":3767:3783   */\n      add\n        /* \"#utility.yul\":3761:3784   */\n      mload\n        /* \"#utility.yul\":3831:3834   */\n      dup5\n        /* \"#utility.yul\":3825:3829   */\n      dup3\n        /* \"#utility.yul\":3821:3835   */\n      sub\n        /* \"#utility.yul\":3814:3818   */\n      0x20\n        /* \"#utility.yul\":3809:3812   */\n      dup7\n        /* \"#utility.yul\":3805:3819   */\n      add\n        /* \"#utility.yul\":3798:3836   */\n      mstore\n        /* \"#utility.yul\":3857:3930   */\n      tag_105\n        /* \"#utility.yul\":3925:3929   */\n      dup3\n        /* \"#utility.yul\":3911:3923   */\n      dup3\n        /* \"#utility.yul\":3857:3930   */\n      tag_92\n      jump\t// in\n    tag_105:\n        /* \"#utility.yul\":3849:3930   */\n      swap2\n      pop\n        /* \"#utility.yul\":3706:3941   */\n      pop\n        /* \"#utility.yul\":4027:4031   */\n      0x40\n        /* \"#utility.yul\":4020:4025   */\n      dup4\n        /* \"#utility.yul\":4016:4032   */\n      add\n        /* \"#utility.yul\":4010:4033   */\n      mload\n        /* \"#utility.yul\":4080:4083   */\n      dup5\n        /* \"#utility.yul\":4074:4078   */\n      dup3\n        /* \"#utility.yul\":4070:4084   */\n      sub\n        /* \"#utility.yul\":4063:4067   */\n      0x40\n        /* \"#utility.yul\":4058:4061   */\n      dup7\n        /* \"#utility.yul\":4054:4068   */\n      add\n        /* \"#utility.yul\":4047:4085   */\n      mstore\n        /* \"#utility.yul\":4106:4179   */\n      tag_106\n        /* \"#utility.yul\":4174:4178   */\n      dup3\n        /* \"#utility.yul\":4160:4172   */\n      dup3\n        /* \"#utility.yul\":4106:4179   */\n      tag_92\n      jump\t// in\n    tag_106:\n        /* \"#utility.yul\":4098:4179   */\n      swap2\n      pop\n        /* \"#utility.yul\":3951:4190   */\n      pop\n        /* \"#utility.yul\":4207:4211   */\n      dup1\n        /* \"#utility.yul\":4200:4211   */\n      swap2\n      pop\n        /* \"#utility.yul\":3488:4217   */\n      pop\n        /* \"#utility.yul\":3386:4217   */\n      swap3\n      swap2\n      pop\n      pop\n      jump\t// out\n        /* \"#utility.yul\":4223:4331   */\n    tag_104:\n        /* \"#utility.yul\":4300:4324   */\n      tag_108\n        /* \"#utility.yul\":4318:4323   */\n      dup2\n        /* \"#utility.yul\":4300:4324   */\n      tag_109\n      jump\t// in\n    tag_108:\n        /* \"#utility.yul\":4295:4298   */\n      dup3\n        /* \"#utility.yul\":4288:4325   */\n      mstore\n        /* \"#utility.yul\":4223:4331   */\n      pop\n      pop\n      jump\t// out\n        /* \"#utility.yul\":4337:4786   */\n    tag_12:\n        /* \"#utility.yul\":4518:4522   */\n      0x00\n        /* \"#utility.yul\":4556:4558   */\n      0x20\n        /* \"#utility.yul\":4545:4554   */\n      dup3\n        /* \"#utility.yul\":4541:4559   */\n      add\n        /* \"#utility.yul\":4533:4559   */\n      swap1\n      pop\n        /* \"#utility.yul\":4605:4614   */\n      dup2\n        /* \"#utility.yul\":4599:4603   */\n      dup2\n        /* \"#utility.yul\":4595:4615   */\n      sub\n        /* \"#utility.yul\":4591:4592   */\n      0x00\n        /* \"#utility.yul\":4580:4589   */\n      dup4\n        /* \"#utility.yul\":4576:4593   */\n      add\n        /* \"#utility.yul\":4569:4616   */\n      mstore\n        /* \"#utility.yul\":4633:4779   */\n      tag_111\n        /* \"#utility.yul\":4774:4778   */\n      dup2\n        /* \"#utility.yul\":4765:4771   */\n      dup5\n        /* \"#utility.yul\":4633:4779   */\n      tag_78\n      jump\t// in\n    tag_111:\n        /* \"#utility.yul\":4625:4779   */\n      swap1\n      pop\n        /* \"#utility.yul\":4337:4786   */\n      swap3\n      swap2\n      pop\n      pop\n      jump\t// out\n        /* \"#utility.yul\":4792:4921   */\n    tag_51:\n        /* \"#utility.yul\":4826:4832   */\n      0x00\n        /* \"#utility.yul\":4853:4873   */\n      tag_113\n      tag_114\n      jump\t// in\n    tag_113:\n        /* \"#utility.yul\":4843:4873   */\n      swap1\n      pop\n        /* \"#utility.yul\":4882:4915   */\n      tag_115\n        /* \"#utility.yul\":4910:4914   */\n      dup3\n        /* \"#utility.yul\":4902:4908   */\n      dup3\n        /* \"#utility.yul\":4882:4915   */\n      tag_116\n      jump\t// in\n    tag_115:\n        /* \"#utility.yul\":4792:4921   */\n      swap2\n      swap1\n      pop\n      jump\t// out\n        /* \"#utility.yul\":4927:5002   */\n    tag_114:\n        /* \"#utility.yul\":4960:4966   */\n      0x00\n        /* \"#utility.yul\":4993:4995   */\n      0x40\n        /* \"#utility.yul\":4987:4996   */\n      mload\n        /* \"#utility.yul\":4977:4996   */\n      swap1\n      pop\n        /* \"#utility.yul\":4927:5002   */\n      swap1\n      jump\t// out\n        /* \"#utility.yul\":5008:5316   */\n    tag_50:\n        /* \"#utility.yul\":5070:5074   */\n      0x00\n        /* \"#utility.yul\":5160:5178   */\n      0xffffffffffffffff\n        /* \"#utility.yul\":5152:5158   */\n      dup3\n        /* \"#utility.yul\":5149:5179   */\n      gt\n        /* \"#utility.yul\":5146:5202   */\n      iszero\n      tag_119\n      jumpi\n        /* \"#utility.yul\":5182:5200   */\n      tag_120\n      tag_121\n      jump\t// in\n    tag_120:\n        /* \"#utility.yul\":5146:5202   */\n    tag_119:\n        /* \"#utility.yul\":5220:5249   */\n      tag_122\n        /* \"#utility.yul\":5242:5248   */\n      dup3\n        /* \"#utility.yul\":5220:5249   */\n      tag_101\n      jump\t// in\n    tag_122:\n        /* \"#utility.yul\":5212:5249   */\n      swap1\n      pop\n        /* \"#utility.yul\":5304:5308   */\n      0x20\n        /* \"#utility.yul\":5298:5302   */\n      dup2\n        /* \"#utility.yul\":5294:5309   */\n      add\n        /* \"#utility.yul\":5286:5309   */\n      swap1\n      pop\n        /* \"#utility.yul\":5008:5316   */\n      swap2\n      swap1\n      pop\n      jump\t// out\n        /* \"#utility.yul\":5322:5473   */\n    tag_85:\n        /* \"#utility.yul\":5408:5412   */\n      0x00\n        /* \"#utility.yul\":5431:5434   */\n      dup2\n        /* \"#utility.yul\":5423:5434   */\n      swap1\n      pop\n        /* \"#utility.yul\":5461:5465   */\n      0x20\n        /* \"#utility.yul\":5456:5459   */\n      dup3\n        /* \"#utility.yul\":5452:5466   */\n      add\n        /* \"#utility.yul\":5444:5466   */\n      swap1\n      pop\n        /* \"#utility.yul\":5322:5473   */\n      swap2\n      swap1\n      pop\n      jump\t// out\n        /* \"#utility.yul\":5479:5612   */\n    tag_81:\n        /* \"#utility.yul\":5565:5571   */\n      0x00\n        /* \"#utility.yul\":5599:5604   */\n      dup2\n        /* \"#utility.yul\":5593:5605   */\n      mload\n        /* \"#utility.yul\":5583:5605   */\n      swap1\n      pop\n        /* \"#utility.yul\":5479:5612   */\n      swap2\n      swap1\n      pop\n      jump\t// out\n        /* \"#utility.yul\":5618:5717   */\n    tag_95:\n        /* \"#utility.yul\":5670:5676   */\n      0x00\n        /* \"#utility.yul\":5704:5709   */\n      dup2\n        /* \"#utility.yul\":5698:5710   */\n      mload\n        /* \"#utility.yul\":5688:5710   */\n      swap1\n      pop\n        /* \"#utility.yul\":5618:5717   */\n      swap2\n      swap1\n      pop\n      jump\t// out\n        /* \"#utility.yul\":5723:5855   */\n    tag_91:\n        /* \"#utility.yul\":5812:5816   */\n      0x00\n        /* \"#utility.yul\":5844:5848   */\n      0x20\n        /* \"#utility.yul\":5839:5842   */\n      dup3\n        /* \"#utility.yul\":5835:5849   */\n      add\n        /* \"#utility.yul\":5827:5849   */\n      swap1\n      pop\n        /* \"#utility.yul\":5723:5855   */\n      swap2\n      swap1\n      pop\n      jump\t// out\n        /* \"#utility.yul\":5861:6064   */\n    tag_83:\n        /* \"#utility.yul\":5979:5990   */\n      0x00\n        /* \"#utility.yul\":6013:6019   */\n      dup3\n        /* \"#utility.yul\":6008:6011   */\n      dup3\n        /* \"#utility.yul\":6001:6020   */\n      mstore\n        /* \"#utility.yul\":6053:6057   */\n      0x20\n        /* \"#utility.yul\":6048:6051   */\n      dup3\n        /* \"#utility.yul\":6044:6058   */\n      add\n        /* \"#utility.yul\":6029:6058   */\n      swap1\n      pop\n        /* \"#utility.yul\":5861:6064   */\n      swap3\n      swap2\n      pop\n      pop\n      jump\t// out\n        /* \"#utility.yul\":6070:6229   */\n    tag_97:\n        /* \"#utility.yul\":6144:6155   */\n      0x00\n        /* \"#utility.yul\":6178:6184   */\n      dup3\n        /* \"#utility.yul\":6173:6176   */\n      dup3\n        /* \"#utility.yul\":6166:6185   */\n      mstore\n        /* \"#utility.yul\":6218:6222   */\n      0x20\n        /* \"#utility.yul\":6213:6216   */\n      dup3\n        /* \"#utility.yul\":6209:6223   */\n      add\n        /* \"#utility.yul\":6194:6223   */\n      swap1\n      pop\n        /* \"#utility.yul\":6070:6229   */\n      swap3\n      swap2\n      pop\n      pop\n      jump\t// out\n        /* \"#utility.yul\":6235:6312   */\n    tag_109:\n        /* \"#utility.yul\":6272:6279   */\n      0x00\n        /* \"#utility.yul\":6301:6306   */\n      dup2\n        /* \"#utility.yul\":6290:6306   */\n      swap1\n      pop\n        /* \"#utility.yul\":6235:6312   */\n      swap2\n      swap1\n      pop\n      jump\t// out\n        /* \"#utility.yul\":6318:6472   */\n    tag_56:\n        /* \"#utility.yul\":6402:6408   */\n      dup3\n        /* \"#utility.yul\":6397:6400   */\n      dup2\n        /* \"#utility.yul\":6392:6395   */\n      dup4\n        /* \"#utility.yul\":6379:6409   */\n      calldatacopy\n        /* \"#utility.yul\":6464:6465   */\n      0x00\n        /* \"#utility.yul\":6455:6461   */\n      dup4\n        /* \"#utility.yul\":6450:6453   */\n      dup4\n        /* \"#utility.yul\":6446:6462   */\n      add\n        /* \"#utility.yul\":6439:6466   */\n      mstore\n        /* \"#utility.yul\":6318:6472   */\n      pop\n      pop\n      pop\n      jump\t// out\n        /* \"#utility.yul\":6478:6785   */\n    tag_99:\n        /* \"#utility.yul\":6546:6547   */\n      0x00\n        /* \"#utility.yul\":6556:6669   */\n    tag_132:\n        /* \"#utility.yul\":6570:6576   */\n      dup4\n        /* \"#utility.yul\":6567:6568   */\n      dup2\n        /* \"#utility.yul\":6564:6577   */\n      lt\n        /* \"#utility.yul\":6556:6669   */\n      iszero\n      tag_134\n      jumpi\n        /* \"#utility.yul\":6655:6656   */\n      dup1\n        /* \"#utility.yul\":6650:6653   */\n      dup3\n        /* \"#utility.yul\":6646:6657   */\n      add\n        /* \"#utility.yul\":6640:6658   */\n      mload\n        /* \"#utility.yul\":6636:6637   */\n      dup2\n        /* \"#utility.yul\":6631:6634   */\n      dup5\n        /* \"#utility.yul\":6627:6638   */\n      add\n        /* \"#utility.yul\":6620:6659   */\n      mstore\n        /* \"#utility.yul\":6592:6594   */\n      0x20\n        /* \"#utility.yul\":6589:6590   */\n      dup2\n        /* \"#utility.yul\":6585:6595   */\n      add\n        /* \"#utility.yul\":6580:6595   */\n      swap1\n      pop\n        /* \"#utility.yul\":6556:6669   */\n      jump(tag_132)\n    tag_134:\n        /* \"#utility.yul\":6687:6693   */\n      dup4\n        /* \"#utility.yul\":6684:6685   */\n      dup2\n        /* \"#utility.yul\":6681:6694   */\n      gt\n        /* \"#utility.yul\":6678:6779   */\n      iszero\n      tag_135\n      jumpi\n        /* \"#utility.yul\":6767:6768   */\n      0x00\n        /* \"#utility.yul\":6758:6764   */\n      dup5\n        /* \"#utility.yul\":6753:6756   */\n      dup5\n        /* \"#utility.yul\":6749:6765   */\n      add\n        /* \"#utility.yul\":6742:6769   */\n      mstore\n        /* \"#utility.yul\":6678:6779   */\n    tag_135:\n        /* \"#utility.yul\":6527:6785   */\n      pop\n        /* \"#utility.yul\":6478:6785   */\n      pop\n      pop\n      pop\n      jump\t// out\n        /* \"#utility.yul\":6791:7111   */\n    tag_25:\n        /* \"#utility.yul\":6835:6841   */\n      0x00\n        /* \"#utility.yul\":6872:6873   */\n      0x02\n        /* \"#utility.yul\":6866:6870   */\n      dup3\n        /* \"#utility.yul\":6862:6874   */\n      div\n        /* \"#utility.yul\":6852:6874   */\n      swap1\n      pop\n        /* \"#utility.yul\":6919:6920   */\n      0x01\n        /* \"#utility.yul\":6913:6917   */\n      dup3\n        /* \"#utility.yul\":6909:6921   */\n      and\n        /* \"#utility.yul\":6940:6958   */\n      dup1\n        /* \"#utility.yul\":6930:7011   */\n      tag_137\n      jumpi\n        /* \"#utility.yul\":6996:7000   */\n      0x7f\n        /* \"#utility.yul\":6988:6994   */\n      dup3\n        /* \"#utility.yul\":6984:7001   */\n      and\n        /* \"#utility.yul\":6974:7001   */\n      swap2\n      pop\n        /* \"#utility.yul\":6930:7011   */\n    tag_137:\n        /* \"#utility.yul\":7058:7060   */\n      0x20\n        /* \"#utility.yul\":7050:7056   */\n      dup3\n        /* \"#utility.yul\":7047:7061   */\n      lt\n        /* \"#utility.yul\":7027:7045   */\n      dup2\n        /* \"#utility.yul\":7024:7062   */\n      eq\n        /* \"#utility.yul\":7021:7105   */\n      iszero\n      tag_138\n      jumpi\n        /* \"#utility.yul\":7077:7095   */\n      tag_139\n      tag_140\n      jump\t// in\n    tag_139:\n        /* \"#utility.yul\":7021:7105   */\n    tag_138:\n        /* \"#utility.yul\":6842:7111   */\n      pop\n        /* \"#utility.yul\":6791:7111   */\n      swap2\n      swap1\n      pop\n      jump\t// out\n        /* \"#utility.yul\":7117:7398   */\n    tag_116:\n        /* \"#utility.yul\":7200:7227   */\n      tag_142\n        /* \"#utility.yul\":7222:7226   */\n      dup3\n        /* \"#utility.yul\":7200:7227   */\n      tag_101\n      jump\t// in\n    tag_142:\n        /* \"#utility.yul\":7192:7198   */\n      dup2\n        /* \"#utility.yul\":7188:7228   */\n      add\n        /* \"#utility.yul\":7330:7336   */\n      dup2\n        /* \"#utility.yul\":7318:7328   */\n      dup2\n        /* \"#utility.yul\":7315:7337   */\n      lt\n        /* \"#utility.yul\":7294:7312   */\n      0xffffffffffffffff\n        /* \"#utility.yul\":7282:7292   */\n      dup3\n        /* \"#utility.yul\":7279:7313   */\n      gt\n        /* \"#utility.yul\":7276:7338   */\n      or\n        /* \"#utility.yul\":7273:7361   */\n      iszero\n      tag_143\n      jumpi\n        /* \"#utility.yul\":7341:7359   */\n      tag_144\n      tag_121\n      jump\t// in\n    tag_144:\n        /* \"#utility.yul\":7273:7361   */\n    tag_143:\n        /* \"#utility.yul\":7381:7391   */\n      dup1\n        /* \"#utility.yul\":7377:7379   */\n      0x40\n        /* \"#utility.yul\":7370:7392   */\n      mstore\n        /* \"#utility.yul\":7160:7398   */\n      pop\n        /* \"#utility.yul\":7117:7398   */\n      pop\n      pop\n      jump\t// out\n        /* \"#utility.yul\":7404:7637   */\n    tag_15:\n        /* \"#utility.yul\":7443:7446   */\n      0x00\n        /* \"#utility.yul\":7466:7490   */\n      tag_146\n        /* \"#utility.yul\":7484:7489   */\n      dup3\n        /* \"#utility.yul\":7466:7490   */\n      tag_109\n      jump\t// in\n    tag_146:\n        /* \"#utility.yul\":7457:7490   */\n      swap2\n      pop\n        /* \"#utility.yul\":7512:7578   */\n      0xffffffffffffffffffffffffffffffffffffffffffffffffffffffffffffffff\n        /* \"#utility.yul\":7505:7510   */\n      dup3\n        /* \"#utility.yul\":7502:7579   */\n      eq\n        /* \"#utility.yul\":7499:7602   */\n      iszero\n      tag_147\n      jumpi\n        /* \"#utility.yul\":7582:7600   */\n      tag_148\n      tag_149\n      jump\t// in\n    tag_148:\n        /* \"#utility.yul\":7499:7602   */\n    tag_147:\n        /* \"#utility.yul\":7629:7630   */\n      0x01\n        /* \"#utility.yul\":7622:7627   */\n      dup3\n        /* \"#utility.yul\":7618:7631   */\n      add\n        /* \"#utility.yul\":7611:7631   */\n      swap1\n      pop\n        /* \"#utility.yul\":7404:7637   */\n      swap2\n      swap1\n      pop\n      jump\t// out\n        /* \"#utility.yul\":7643:7823   */\n    tag_149:\n        /* \"#utility.yul\":7691:7768   */\n      0x4e487b7100000000000000000000000000000000000000000000000000000000\n        /* \"#utility.yul\":7688:7689   */\n      0x00\n        /* \"#utility.yul\":7681:7769   */\n      mstore\n        /* \"#utility.yul\":7788:7792   */\n      0x11\n        /* \"#utility.yul\":7785:7786   */\n      0x04\n        /* \"#utility.yul\":7778:7793   */\n      mstore\n        /* \"#utility.yul\":7812:7816   */\n      0x24\n        /* \"#utility.yul\":7809:7810   */\n      0x00\n        /* \"#utility.yul\":7802:7817   */\n      revert\n        /* \"#utility.yul\":7829:8009   */\n    tag_140:\n        /* \"#utility.yul\":7877:7954   */\n      0x4e487b7100000000000000000000000000000000000000000000000000000000\n        /* \"#utility.yul\":7874:7875   */\n      0x00\n        /* \"#utility.yul\":7867:7955   */\n      mstore\n        /* \"#utility.yul\":7974:7978   */\n      0x22\n        /* \"#utility.yul\":7971:7972   */\n      0x04\n        /* \"#utility.yul\":7964:7979   */\n      mstore\n        /* \"#utility.yul\":7998:8002   */\n      0x24\n        /* \"#utility.yul\":7995:7996   */\n      0x00\n        /* \"#utility.yul\":7988:8003   */\n      revert\n        /* \"#utility.yul\":8015:8195   */\n    tag_121:\n        /* \"#utility.yul\":8063:8140   */\n      0x4e487b7100000000000000000000000000000000000000000000000000000000\n        /* \"#utility.yul\":8060:8061   */\n      0x00\n        /* \"#utility.yul\":8053:8141   */\n      mstore\n        /* \"#utility.yul\":8160:8164   */\n      0x41\n        /* \"#utility.yul\":8157:8158   */\n      0x04\n        /* \"#utility.yul\":8150:8165   */\n      mstore\n        /* \"#utility.yul\":8184:8188   */\n      0x24\n        /* \"#utility.yul\":8181:8182   */\n      0x00\n        /* \"#utility.yul\":8174:8189   */\n      revert\n        /* \"#utility.yul\":8201:8318   */\n    tag_61:\n        /* \"#utility.yul\":8310:8311   */\n      0x00\n        /* \"#utility.yul\":8307:8308   */\n      dup1\n        /* \"#utility.yul\":8300:8312   */\n      revert\n        /* \"#utility.yul\":8324:8441   */\n    tag_54:\n        /* \"#utility.yul\":8433:8434   */\n      0x00\n        /* \"#utility.yul\":8430:8431   */\n      dup1\n        /* \"#utility.yul\":8423:8435   */\n      revert\n        /* \"#utility.yul\":8447:8564   */\n    tag_69:\n        /* \"#utility.yul\":8556:8557   */\n      0x00\n        /* \"#utility.yul\":8553:8554   */\n      dup1\n        /* \"#utility.yul\":8546:8558   */\n      revert\n        /* \"#utility.yul\":8570:8687   */\n    tag_66:\n        /* \"#utility.yul\":8679:8680   */\n      0x00\n        /* \"#utility.yul\":8676:8677   */\n      dup1\n        /* \"#utility.yul\":8669:8681   */\n      revert\n        /* \"#utility.yul\":8693:8795   */\n    tag_101:\n        /* \"#utility.yul\":8734:8740   */\n      0x00\n        /* \"#utility.yul\":8785:8787   */\n      0x1f\n        /* \"#utility.yul\":8781:8788   */\n      not\n        /* \"#utility.yul\":8776:8778   */\n      0x1f\n        /* \"#utility.yul\":8769:8774   */\n      dup4\n        /* \"#utility.yul\":8765:8779   */\n      add\n        /* \"#utility.yul\":8761:8789   */\n      and\n        /* \"#utility.yul\":8751:8789   */\n      swap1\n      pop\n        /* \"#utility.yul\":8693:8795   */\n      swap2\n      swap1\n      pop\n      jump\t// out\n\n    auxdata: 0xa2646970667358221220cefe05f97482b767425b442f8c9c467804d6062d3a3cc4e0915734c21b91608364736f6c63430008070033\n}\n",
				"bytecode": {
					"linkReferences": {},
					"object": "6080604052600060015534801561001557600080fd5b5061080c806100256000396000f3fe608060405234801561001057600080fd5b50600436106100365760003560e01c806373a4e4c31461003b578063b852204314610057575b600080fd5b610055600480360381019061005091906103bf565b610075565b005b61005f61011f565b60405161006c919061055f565b60405180910390f35b60016000815480929190610088906106db565b91905055506000604051806060016040528060015481526020018481526020018381525090806001815401808255809150506001900390600052602060002090600302016000909190919091506000820151816000015560208201518160010190805190602001906100fb9291906102ac565b5060408201518160020190805190602001906101189291906102ac565b5050505050565b60606000805480602002602001604051908101604052809291908181526020016000905b828210156102a357838290600052602060002090600302016040518060600160405290816000820154815260200160018201805461018090610678565b80601f01602080910402602001604051908101604052809291908181526020018280546101ac90610678565b80156101f95780601f106101ce576101008083540402835291602001916101f9565b820191906000526020600020905b8154815290600101906020018083116101dc57829003601f168201915b5050505050815260200160028201805461021290610678565b80601f016020809104026020016040519081016040528092919081815260200182805461023e90610678565b801561028b5780601f106102605761010080835404028352916020019161028b565b820191906000526020600020905b81548152906001019060200180831161026e57829003601f168201915b50505050508152505081526020019060010190610143565b50505050905090565b8280546102b890610678565b90600052602060002090601f0160209004810192826102da5760008555610321565b82601f106102f357805160ff1916838001178555610321565b82800160010185558215610321579182015b82811115610320578251825591602001919060010190610305565b5b50905061032e9190610332565b5090565b5b8082111561034b576000816000905550600101610333565b5090565b600061036261035d846105a6565b610581565b90508281526020810184848401111561037e5761037d6107b6565b5b610389848285610636565b509392505050565b600082601f8301126103a6576103a56107b1565b5b81356103b684826020860161034f565b91505092915050565b600080604083850312156103d6576103d56107c0565b5b600083013567ffffffffffffffff8111156103f4576103f36107bb565b5b61040085828601610391565b925050602083013567ffffffffffffffff811115610421576104206107bb565b5b61042d85828601610391565b9150509250929050565b600061044383836104f9565b905092915050565b6000610456826105e7565b610460818561060a565b935083602082028501610472856105d7565b8060005b858110156104ae578484038952815161048f8582610437565b945061049a836105fd565b925060208a01995050600181019050610476565b50829750879550505050505092915050565b60006104cb826105f2565b6104d5818561061b565b93506104e5818560208601610645565b6104ee816107c5565b840191505092915050565b60006060830160008301516105116000860182610550565b506020830151848203602086015261052982826104c0565b9150506040830151848203604086015261054382826104c0565b9150508091505092915050565b6105598161062c565b82525050565b60006020820190508181036000830152610579818461044b565b905092915050565b600061058b61059c565b905061059782826106aa565b919050565b6000604051905090565b600067ffffffffffffffff8211156105c1576105c0610782565b5b6105ca826107c5565b9050602081019050919050565b6000819050602082019050919050565b600081519050919050565b600081519050919050565b6000602082019050919050565b600082825260208201905092915050565b600082825260208201905092915050565b6000819050919050565b82818337600083830152505050565b60005b83811015610663578082015181840152602081019050610648565b83811115610672576000848401525b50505050565b6000600282049050600182168061069057607f821691505b602082108114156106a4576106a3610753565b5b50919050565b6106b3826107c5565b810181811067ffffffffffffffff821117156106d2576106d1610782565b5b80604052505050565b60006106e68261062c565b91507fffffffffffffffffffffffffffffffffffffffffffffffffffffffffffffffff82141561071957610718610724565b5b600182019050919050565b7f4e487b7100000000000000000000000000000000000000000000000000000000600052601160045260246000fd5b7f4e487b7100000000000000000000000000000000000000000000000000000000600052602260045260246000fd5b7f4e487b7100000000000000000000000000000000000000000000000000000000600052604160045260246000fd5b600080fd5b600080fd5b600080fd5b600080fd5b6000601f19601f830116905091905056fea2646970667358221220cefe05f97482b767425b442f8c9c467804d6062d3a3cc4e0915734c21b91608364736f6c63430008070033",
					"opcodes": "PUSH1 0x80 PUSH1 0x40 MSTORE PUSH1 0x0 PUSH1 0x1 SSTORE CALLVALUE DUP1 ISZERO PUSH2 0x15 JUMPI PUSH1 0x0 DUP1 REVERT JUMPDEST POP PUSH2 0x80C DUP1 PUSH2 0x25 PUSH1 0x0 CODECOPY PUSH1 0x0 RETURN INVALID PUSH1 0x80 PUSH1 0x40 MSTORE CALLVALUE DUP1 ISZERO PUSH2 0x10 JUMPI PUSH1 0x0 DUP1 REVERT JUMPDEST POP PUSH1 0x4 CALLDATASIZE LT PUSH2 0x36 JUMPI PUSH1 0x0 CALLDATALOAD PUSH1 0xE0 SHR DUP1 PUSH4 0x73A4E4C3 EQ PUSH2 0x3B JUMPI DUP1 PUSH4 0xB8522043 EQ PUSH2 0x57 JUMPI JUMPDEST PUSH1 0x0 DUP1 REVERT JUMPDEST PUSH2 0x55 PUSH1 0x4 DUP1 CALLDATASIZE SUB DUP2 ADD SWAP1 PUSH2 0x50 SWAP2 SWAP1 PUSH2 0x3BF JUMP JUMPDEST PUSH2 0x75 JUMP JUMPDEST STOP JUMPDEST PUSH2 0x5F PUSH2 0x11F JUMP JUMPDEST PUSH1 0x40 MLOAD PUSH2 0x6C SWAP2 SWAP1 PUSH2 0x55F JUMP JUMPDEST PUSH1 0x40 MLOAD DUP1 SWAP2 SUB SWAP1 RETURN JUMPDEST PUSH1 0x1 PUSH1 0x0 DUP2 SLOAD DUP1 SWAP3 SWAP2 SWAP1 PUSH2 0x88 SWAP1 PUSH2 0x6DB JUMP JUMPDEST SWAP2 SWAP1 POP SSTORE POP PUSH1 0x0 PUSH1 0x40 MLOAD DUP1 PUSH1 0x60 ADD PUSH1 0x40 MSTORE DUP1 PUSH1 0x1 SLOAD DUP2 MSTORE PUSH1 0x20 ADD DUP5 DUP2 MSTORE PUSH1 0x20 ADD DUP4 DUP2 MSTORE POP SWAP1 DUP1 PUSH1 0x1 DUP2 SLOAD ADD DUP1 DUP3 SSTORE DUP1 SWAP2 POP POP PUSH1 0x1 SWAP1 SUB SWAP1 PUSH1 0x0 MSTORE PUSH1 0x20 PUSH1 0x0 KECCAK256 SWAP1 PUSH1 0x3 MUL ADD PUSH1 0x0 SWAP1 SWAP2 SWAP1 SWAP2 SWAP1 SWAP2 POP PUSH1 0x0 DUP3 ADD MLOAD DUP2 PUSH1 0x0 ADD SSTORE PUSH1 0x20 DUP3 ADD MLOAD DUP2 PUSH1 0x1 ADD SWAP1 DUP1 MLOAD SWAP1 PUSH1 0x20 ADD SWAP1 PUSH2 0xFB SWAP3 SWAP2 SWAP1 PUSH2 0x2AC JUMP JUMPDEST POP PUSH1 0x40 DUP3 ADD MLOAD DUP2 PUSH1 0x2 ADD SWAP1 DUP1 MLOAD SWAP1 PUSH1 0x20 ADD SWAP1 PUSH2 0x118 SWAP3 SWAP2 SWAP1 PUSH2 0x2AC JUMP JUMPDEST POP POP POP POP POP JUMP JUMPDEST PUSH1 0x60 PUSH1 0x0 DUP1 SLOAD DUP1 PUSH1 0x20 MUL PUSH1 0x20 ADD PUSH1 0x40 MLOAD SWAP1 DUP2 ADD PUSH1 0x40 MSTORE DUP1 SWAP3 SWAP2 SWAP1 DUP2 DUP2 MSTORE PUSH1 0x20 ADD PUSH1 0x0 SWAP1 JUMPDEST DUP3 DUP3 LT ISZERO PUSH2 0x2A3 JUMPI DUP4 DUP3 SWAP1 PUSH1 0x0 MSTORE PUSH1 0x20 PUSH1 0x0 KECCAK256 SWAP1 PUSH1 0x3 MUL ADD PUSH1 0x40 MLOAD DUP1 PUSH1 0x60 ADD PUSH1 0x40 MSTORE SWAP1 DUP2 PUSH1 0x0 DUP3 ADD SLOAD DUP2 MSTORE PUSH1 0x20 ADD PUSH1 0x1 DUP3 ADD DUP1 SLOAD PUSH2 0x180 SWAP1 PUSH2 0x678 JUMP JUMPDEST DUP1 PUSH1 0x1F ADD PUSH1 0x20 DUP1 SWAP2 DIV MUL PUSH1 0x20 ADD PUSH1 0x40 MLOAD SWAP1 DUP2 ADD PUSH1 0x40 MSTORE DUP1 SWAP3 SWAP2 SWAP1 DUP2 DUP2 MSTORE PUSH1 0x20 ADD DUP3 DUP1 SLOAD PUSH2 0x1AC SWAP1 PUSH2 0x678 JUMP JUMPDEST DUP1 ISZERO PUSH2 0x1F9 JUMPI DUP1 PUSH1 0x1F LT PUSH2 0x1CE JUMPI PUSH2 0x100 DUP1 DUP4 SLOAD DIV MUL DUP4 MSTORE SWAP2 PUSH1 0x20 ADD SWAP2 PUSH2 0x1F9 JUMP JUMPDEST DUP3 ADD SWAP2 SWAP1 PUSH1 0x0 MSTORE PUSH1 0x20 PUSH1 0x0 KECCAK256 SWAP1 JUMPDEST DUP2 SLOAD DUP2 MSTORE SWAP1 PUSH1 0x1 ADD SWAP1 PUSH1 0x20 ADD DUP1 DUP4 GT PUSH2 0x1DC JUMPI DUP3 SWAP1 SUB PUSH1 0x1F AND DUP3 ADD SWAP2 JUMPDEST POP POP POP POP POP DUP2 MSTORE PUSH1 0x20 ADD PUSH1 0x2 DUP3 ADD DUP1 SLOAD PUSH2 0x212 SWAP1 PUSH2 0x678 JUMP JUMPDEST DUP1 PUSH1 0x1F ADD PUSH1 0x20 DUP1 SWAP2 DIV MUL PUSH1 0x20 ADD PUSH1 0x40 MLOAD SWAP1 DUP2 ADD PUSH1 0x40 MSTORE DUP1 SWAP3 SWAP2 SWAP1 DUP2 DUP2 MSTORE PUSH1 0x20 ADD DUP3 DUP1 SLOAD PUSH2 0x23E SWAP1 PUSH2 0x678 JUMP JUMPDEST DUP1 ISZERO PUSH2 0x28B JUMPI DUP1 PUSH1 0x1F LT PUSH2 0x260 JUMPI PUSH2 0x100 DUP1 DUP4 SLOAD DIV MUL DUP4 MSTORE SWAP2 PUSH1 0x20 ADD SWAP2 PUSH2 0x28B JUMP JUMPDEST DUP3 ADD SWAP2 SWAP1 PUSH1 0x0 MSTORE PUSH1 0x20 PUSH1 0x0 KECCAK256 SWAP1 JUMPDEST DUP2 SLOAD DUP2 MSTORE SWAP1 PUSH1 0x1 ADD SWAP1 PUSH1 0x20 ADD DUP1 DUP4 GT PUSH2 0x26E JUMPI DUP3 SWAP1 SUB PUSH1 0x1F AND DUP3 ADD SWAP2 JUMPDEST POP POP POP POP POP DUP2 MSTORE POP POP DUP2 MSTORE PUSH1 0x20 ADD SWAP1 PUSH1 0x1 ADD SWAP1 PUSH2 0x143 JUMP JUMPDEST POP POP POP POP SWAP1 POP SWAP1 JUMP JUMPDEST DUP3 DUP1 SLOAD PUSH2 0x2B8 SWAP1 PUSH2 0x678 JUMP JUMPDEST SWAP1 PUSH1 0x0 MSTORE PUSH1 0x20 PUSH1 0x0 KECCAK256 SWAP1 PUSH1 0x1F ADD PUSH1 0x20 SWAP1 DIV DUP2 ADD SWAP3 DUP3 PUSH2 0x2DA JUMPI PUSH1 0x0 DUP6 SSTORE PUSH2 0x321 JUMP JUMPDEST DUP3 PUSH1 0x1F LT PUSH2 0x2F3 JUMPI DUP1 MLOAD PUSH1 0xFF NOT AND DUP4 DUP1 ADD OR DUP6 SSTORE PUSH2 0x321 JUMP JUMPDEST DUP3 DUP1 ADD PUSH1 0x1 ADD DUP6 SSTORE DUP3 ISZERO PUSH2 0x321 JUMPI SWAP2 DUP3 ADD JUMPDEST DUP3 DUP2 GT ISZERO PUSH2 0x320 JUMPI DUP3 MLOAD DUP3 SSTORE SWAP2 PUSH1 0x20 ADD SWAP2 SWAP1 PUSH1 0x1 ADD SWAP1 PUSH2 0x305 JUMP JUMPDEST JUMPDEST POP SWAP1 POP PUSH2 0x32E SWAP2 SWAP1 PUSH2 0x332 JUMP JUMPDEST POP SWAP1 JUMP JUMPDEST JUMPDEST DUP1 DUP3 GT ISZERO PUSH2 0x34B JUMPI PUSH1 0x0 DUP2 PUSH1 0x0 SWAP1 SSTORE POP PUSH1 0x1 ADD PUSH2 0x333 JUMP JUMPDEST POP SWAP1 JUMP JUMPDEST PUSH1 0x0 PUSH2 0x362 PUSH2 0x35D DUP5 PUSH2 0x5A6 JUMP JUMPDEST PUSH2 0x581 JUMP JUMPDEST SWAP1 POP DUP3 DUP2 MSTORE PUSH1 0x20 DUP2 ADD DUP5 DUP5 DUP5 ADD GT ISZERO PUSH2 0x37E JUMPI PUSH2 0x37D PUSH2 0x7B6 JUMP JUMPDEST JUMPDEST PUSH2 0x389 DUP5 DUP3 DUP6 PUSH2 0x636 JUMP JUMPDEST POP SWAP4 SWAP3 POP POP POP JUMP JUMPDEST PUSH1 0x0 DUP3 PUSH1 0x1F DUP4 ADD SLT PUSH2 0x3A6 JUMPI PUSH2 0x3A5 PUSH2 0x7B1 JUMP JUMPDEST JUMPDEST DUP2 CALLDATALOAD PUSH2 0x3B6 DUP5 DUP3 PUSH1 0x20 DUP7 ADD PUSH2 0x34F JUMP JUMPDEST SWAP2 POP POP SWAP3 SWAP2 POP POP JUMP JUMPDEST PUSH1 0x0 DUP1 PUSH1 0x40 DUP4 DUP6 SUB SLT ISZERO PUSH2 0x3D6 JUMPI PUSH2 0x3D5 PUSH2 0x7C0 JUMP JUMPDEST JUMPDEST PUSH1 0x0 DUP4 ADD CALLDATALOAD PUSH8 0xFFFFFFFFFFFFFFFF DUP2 GT ISZERO PUSH2 0x3F4 JUMPI PUSH2 0x3F3 PUSH2 0x7BB JUMP JUMPDEST JUMPDEST PUSH2 0x400 DUP6 DUP3 DUP7 ADD PUSH2 0x391 JUMP JUMPDEST SWAP3 POP POP PUSH1 0x20 DUP4 ADD CALLDATALOAD PUSH8 0xFFFFFFFFFFFFFFFF DUP2 GT ISZERO PUSH2 0x421 JUMPI PUSH2 0x420 PUSH2 0x7BB JUMP JUMPDEST JUMPDEST PUSH2 0x42D DUP6 DUP3 DUP7 ADD PUSH2 0x391 JUMP JUMPDEST SWAP2 POP POP SWAP3 POP SWAP3 SWAP1 POP JUMP JUMPDEST PUSH1 0x0 PUSH2 0x443 DUP4 DUP4 PUSH2 0x4F9 JUMP JUMPDEST SWAP1 POP SWAP3 SWAP2 POP POP JUMP JUMPDEST PUSH1 0x0 PUSH2 0x456 DUP3 PUSH2 0x5E7 JUMP JUMPDEST PUSH2 0x460 DUP2 DUP6 PUSH2 0x60A JUMP JUMPDEST SWAP4 POP DUP4 PUSH1 0x20 DUP3 MUL DUP6 ADD PUSH2 0x472 DUP6 PUSH2 0x5D7 JUMP JUMPDEST DUP1 PUSH1 0x0 JUMPDEST DUP6 DUP2 LT ISZERO PUSH2 0x4AE JUMPI DUP5 DUP5 SUB DUP10 MSTORE DUP2 MLOAD PUSH2 0x48F DUP6 DUP3 PUSH2 0x437 JUMP JUMPDEST SWAP5 POP PUSH2 0x49A DUP4 PUSH2 0x5FD JUMP JUMPDEST SWAP3 POP PUSH1 0x20 DUP11 ADD SWAP10 POP POP PUSH1 0x1 DUP2 ADD SWAP1 POP PUSH2 0x476 JUMP JUMPDEST POP DUP3 SWAP8 POP DUP8 SWAP6 POP POP POP POP POP POP SWAP3 SWAP2 POP POP JUMP JUMPDEST PUSH1 0x0 PUSH2 0x4CB DUP3 PUSH2 0x5F2 JUMP JUMPDEST PUSH2 0x4D5 DUP2 DUP6 PUSH2 0x61B JUMP JUMPDEST SWAP4 POP PUSH2 0x4E5 DUP2 DUP6 PUSH1 0x20 DUP7 ADD PUSH2 0x645 JUMP JUMPDEST PUSH2 0x4EE DUP2 PUSH2 0x7C5 JUMP JUMPDEST DUP5 ADD SWAP2 POP POP SWAP3 SWAP2 POP POP JUMP JUMPDEST PUSH1 0x0 PUSH1 0x60 DUP4 ADD PUSH1 0x0 DUP4 ADD MLOAD PUSH2 0x511 PUSH1 0x0 DUP7 ADD DUP3 PUSH2 0x550 JUMP JUMPDEST POP PUSH1 0x20 DUP4 ADD MLOAD DUP5 DUP3 SUB PUSH1 0x20 DUP7 ADD MSTORE PUSH2 0x529 DUP3 DUP3 PUSH2 0x4C0 JUMP JUMPDEST SWAP2 POP POP PUSH1 0x40 DUP4 ADD MLOAD DUP5 DUP3 SUB PUSH1 0x40 DUP7 ADD MSTORE PUSH2 0x543 DUP3 DUP3 PUSH2 0x4C0 JUMP JUMPDEST SWAP2 POP POP DUP1 SWAP2 POP POP SWAP3 SWAP2 POP POP JUMP JUMPDEST PUSH2 0x559 DUP2 PUSH2 0x62C JUMP JUMPDEST DUP3 MSTORE POP POP JUMP JUMPDEST PUSH1 0x0 PUSH1 0x20 DUP3 ADD SWAP1 POP DUP2 DUP2 SUB PUSH1 0x0 DUP4 ADD MSTORE PUSH2 0x579 DUP2 DUP5 PUSH2 0x44B JUMP JUMPDEST SWAP1 POP SWAP3 SWAP2 POP POP JUMP JUMPDEST PUSH1 0x0 PUSH2 0x58B PUSH2 0x59C JUMP JUMPDEST SWAP1 POP PUSH2 0x597 DUP3 DUP3 PUSH2 0x6AA JUMP JUMPDEST SWAP2 SWAP1 POP JUMP JUMPDEST PUSH1 0x0 PUSH1 0x40 MLOAD SWAP1 POP SWAP1 JUMP JUMPDEST PUSH1 0x0 PUSH8 0xFFFFFFFFFFFFFFFF DUP3 GT ISZERO PUSH2 0x5C1 JUMPI PUSH2 0x5C0 PUSH2 0x782 JUMP JUMPDEST JUMPDEST PUSH2 0x5CA DUP3 PUSH2 0x7C5 JUMP JUMPDEST SWAP1 POP PUSH1 0x20 DUP2 ADD SWAP1 POP SWAP2 SWAP1 POP JUMP JUMPDEST PUSH1 0x0 DUP2 SWAP1 POP PUSH1 0x20 DUP3 ADD SWAP1 POP SWAP2 SWAP1 POP JUMP JUMPDEST PUSH1 0x0 DUP2 MLOAD SWAP1 POP SWAP2 SWAP1 POP JUMP JUMPDEST PUSH1 0x0 DUP2 MLOAD SWAP1 POP SWAP2 SWAP1 POP JUMP JUMPDEST PUSH1 0x0 PUSH1 0x20 DUP3 ADD SWAP1 POP SWAP2 SWAP1 POP JUMP JUMPDEST PUSH1 0x0 DUP3 DUP3 MSTORE PUSH1 0x20 DUP3 ADD SWAP1 POP SWAP3 SWAP2 POP POP JUMP JUMPDEST PUSH1 0x0 DUP3 DUP3 MSTORE PUSH1 0x20 DUP3 ADD SWAP1 POP SWAP3 SWAP2 POP POP JUMP JUMPDEST PUSH1 0x0 DUP2 SWAP1 POP SWAP2 SWAP1 POP JUMP JUMPDEST DUP3 DUP2 DUP4 CALLDATACOPY PUSH1 0x0 DUP4 DUP4 ADD MSTORE POP POP POP JUMP JUMPDEST PUSH1 0x0 JUMPDEST DUP4 DUP2 LT ISZERO PUSH2 0x663 JUMPI DUP1 DUP3 ADD MLOAD DUP2 DUP5 ADD MSTORE PUSH1 0x20 DUP2 ADD SWAP1 POP PUSH2 0x648 JUMP JUMPDEST DUP4 DUP2 GT ISZERO PUSH2 0x672 JUMPI PUSH1 0x0 DUP5 DUP5 ADD MSTORE JUMPDEST POP POP POP POP JUMP JUMPDEST PUSH1 0x0 PUSH1 0x2 DUP3 DIV SWAP1 POP PUSH1 0x1 DUP3 AND DUP1 PUSH2 0x690 JUMPI PUSH1 0x7F DUP3 AND SWAP2 POP JUMPDEST PUSH1 0x20 DUP3 LT DUP2 EQ ISZERO PUSH2 0x6A4 JUMPI PUSH2 0x6A3 PUSH2 0x753 JUMP JUMPDEST JUMPDEST POP SWAP2 SWAP1 POP JUMP JUMPDEST PUSH2 0x6B3 DUP3 PUSH2 0x7C5 JUMP JUMPDEST DUP2 ADD DUP2 DUP2 LT PUSH8 0xFFFFFFFFFFFFFFFF DUP3 GT OR ISZERO PUSH2 0x6D2 JUMPI PUSH2 0x6D1 PUSH2 0x782 JUMP JUMPDEST JUMPDEST DUP1 PUSH1 0x40 MSTORE POP POP POP JUMP JUMPDEST PUSH1 0x0 PUSH2 0x6E6 DUP3 PUSH2 0x62C JUMP JUMPDEST SWAP2 POP PUSH32 0xFFFFFFFFFFFFFFFFFFFFFFFFFFFFFFFFFFFFFFFFFFFFFFFFFFFFFFFFFFFFFFFF DUP3 EQ ISZERO PUSH2 0x719 JUMPI PUSH2 0x718 PUSH2 0x724 JUMP JUMPDEST JUMPDEST PUSH1 0x1 DUP3 ADD SWAP1 POP SWAP2 SWAP1 POP JUMP JUMPDEST PUSH32 0x4E487B7100000000000000000000000000000000000000000000000000000000 PUSH1 0x0 MSTORE PUSH1 0x11 PUSH1 0x4 MSTORE PUSH1 0x24 PUSH1 0x0 REVERT JUMPDEST PUSH32 0x4E487B7100000000000000000000000000000000000000000000000000000000 PUSH1 0x0 MSTORE PUSH1 0x22 PUSH1 0x4 MSTORE PUSH1 0x24 PUSH1 0x0 REVERT JUMPDEST PUSH32 0x4E487B7100000000000000000000000000000000000000000000000000000000 PUSH1 0x0 MSTORE PUSH1 0x41 PUSH1 0x4 MSTORE PUSH1 0x24 PUSH1 0x0 REVERT JUMPDEST PUSH1 0x0 DUP1 REVERT JUMPDEST PUSH1 0x0 DUP1 REVERT JUMPDEST PUSH1 0x0 DUP1 REVERT JUMPDEST PUSH1 0x0 DUP1 REVERT JUMPDEST PUSH1 0x0 PUSH1 0x1F NOT PUSH1 0x1F DUP4 ADD AND SWAP1 POP SWAP2 SWAP1 POP JUMP INVALID LOG2 PUSH5 0x6970667358 0x22 SLT KECCAK256 0xCE INVALID SDIV 0xF9 PUSH21 0x82B767425B442F8C9C467804D6062D3A3CC4E09157 CALLVALUE 0xC2 SHL SWAP2 PUSH1 0x83 PUSH5 0x736F6C6343 STOP ADDMOD SMOD STOP CALLER "
				},
				"gasEstimates": {
					"creation": {
						"codeDepositCost": "412000",
						"executionCost": "5455",
						"totalCost": "417455"
					},
					"external": {
						"getUserList()": "infinite",
						"reg(string,string)": "infinite"
					}
				},
				"methodIdentifiers": {
					"getUserList()": "b8522043",
					"reg(string,string)": "73a4e4c3"
				}
			},
			"storageLayout": {
				"storage": [
					{
						"astId": 12,
						"contract": "login.sol:UserReg",
						"label": "userList",
						"offset": 0,
						"slot": "0",
						"type": "t_array(t_struct(User)8_storage)dyn_storage"
					},
					{
						"astId": 15,
						"contract": "login.sol:UserReg",
						"label": "count",
						"offset": 0,
						"slot": "1",
						"type": "t_uint256"
					}
				],
				"types": {
					"t_array(t_struct(User)8_storage)dyn_storage": {
						"base": "t_struct(User)8_storage",
						"encoding": "dynamic_array",
						"label": "struct UserReg.User[]",
						"numberOfBytes": "32"
					},
					"t_string_storage": {
						"encoding": "bytes",
						"label": "string",
						"numberOfBytes": "32"
					},
					"t_struct(User)8_storage": {
						"encoding": "inplace",
						"label": "struct UserReg.User",
						"members": [
							{
								"astId": 3,
								"contract": "login.sol:UserReg",
								"label": "id",
								"offset": 0,
								"slot": "0",
								"type": "t_uint256"
							},
							{
								"astId": 5,
								"contract": "login.sol:UserReg",
								"label": "name",
								"offset": 0,
								"slot": "1",
								"type": "t_string_storage"
							},
							{
								"astId": 7,
								"contract": "login.sol:UserReg",
								"label": "password",
								"offset": 0,
								"slot": "2",
								"type": "t_string_storage"
							}
						],
						"numberOfBytes": "96"
					},
					"t_uint256": {
						"encoding": "inplace",
						"label": "uint256",
						"numberOfBytes": "32"
					}
				}
			},
			"userdoc": {
				"kind": "user",
				"methods": {},
				"version": 1
			}
		}
	}
}