{
	"error.sol": {
		"ErrorTest": {
			"abi": [
				{
					"inputs": [
						{
							"internalType": "uint256",
							"name": "n",
							"type": "uint256"
						}
					],
					"name": "addNum",
					"outputs": [],
					"stateMutability": "nonpayable",
					"type": "function"
				}
			],
			"devdoc": {
				"kind": "dev",
				"methods": {},
				"version": 1
			},
			"evm": {
				"assembly": "    /* \"error.sol\":132:483  contract ErrorTest {\r... */\n  mstore(0x40, 0x80)\n    /* \"error.sol\":389:390  0 */\n  0x00\n    /* \"error.sol\":378:390  uint num = 0 */\n  dup1\n  sstore\n    /* \"error.sol\":132:483  contract ErrorTest {\r... */\n  callvalue\n  dup1\n  iszero\n  tag_1\n  jumpi\n  0x00\n  dup1\n  revert\ntag_1:\n  pop\n  dataSize(sub_0)\n  dup1\n  dataOffset(sub_0)\n  0x00\n  codecopy\n  0x00\n  return\nstop\n\nsub_0: assembly {\n        /* \"error.sol\":132:483  contract ErrorTest {\r... */\n      mstore(0x40, 0x80)\n      callvalue\n      dup1\n      iszero\n      tag_1\n      jumpi\n      0x00\n      dup1\n      revert\n    tag_1:\n      pop\n      jumpi(tag_2, lt(calldatasize, 0x04))\n      shr(0xe0, calldataload(0x00))\n      dup1\n      0x75278362\n      eq\n      tag_3\n      jumpi\n    tag_2:\n      0x00\n      dup1\n      revert\n        /* \"error.sol\":397:478  function addNum(uint n) public {\r... */\n    tag_3:\n      tag_4\n      0x04\n      dup1\n      calldatasize\n      sub\n      dup2\n      add\n      swap1\n      tag_5\n      swap2\n      swap1\n      tag_6\n      jump\t// in\n    tag_5:\n      tag_7\n      jump\t// in\n    tag_4:\n      stop\n    tag_7:\n        /* \"error.sol\":445:446  1 */\n      0x01\n        /* \"error.sol\":439:442  num */\n      0x00\n      dup1\n        /* \"error.sol\":439:446  num +=1 */\n      dup3\n      dup3\n      sload\n      tag_9\n      swap2\n      swap1\n      tag_10\n      jump\t// in\n    tag_9:\n      swap3\n      pop\n      pop\n      dup2\n      swap1\n      sstore\n      pop\n        /* \"error.sol\":467:469  10 */\n      0x0a\n        /* \"error.sol\":465:466  n */\n      dup2\n        /* \"error.sol\":465:469  n<10 */\n      lt\n        /* \"error.sol\":457:470  require(n<10) */\n      tag_11\n      jumpi\n      0x00\n      dup1\n      revert\n    tag_11:\n        /* \"error.sol\":397:478  function addNum(uint n) public {\r... */\n      pop\n      jump\t// out\n        /* \"#utility.yul\":7:146   */\n    tag_13:\n        /* \"#utility.yul\":53:58   */\n      0x00\n        /* \"#utility.yul\":91:97   */\n      dup2\n        /* \"#utility.yul\":78:98   */\n      calldataload\n        /* \"#utility.yul\":69:98   */\n      swap1\n      pop\n        /* \"#utility.yul\":107:140   */\n      tag_15\n        /* \"#utility.yul\":134:139   */\n      dup2\n        /* \"#utility.yul\":107:140   */\n      tag_16\n      jump\t// in\n    tag_15:\n        /* \"#utility.yul\":7:146   */\n      swap3\n      swap2\n      pop\n      pop\n      jump\t// out\n        /* \"#utility.yul\":152:481   */\n    tag_6:\n        /* \"#utility.yul\":211:217   */\n      0x00\n        /* \"#utility.yul\":260:262   */\n      0x20\n        /* \"#utility.yul\":248:257   */\n      dup3\n        /* \"#utility.yul\":239:246   */\n      dup5\n        /* \"#utility.yul\":235:258   */\n      sub\n        /* \"#utility.yul\":231:263   */\n      slt\n        /* \"#utility.yul\":228:347   */\n      iszero\n      tag_18\n      jumpi\n        /* \"#utility.yul\":266:345   */\n      tag_19\n      tag_20\n      jump\t// in\n    tag_19:\n        /* \"#utility.yul\":228:347   */\n    tag_18:\n        /* \"#utility.yul\":386:387   */\n      0x00\n        /* \"#utility.yul\":411:464   */\n      tag_21\n        /* \"#utility.yul\":456:463   */\n      dup5\n        /* \"#utility.yul\":447:453   */\n      dup3\n        /* \"#utility.yul\":436:445   */\n      dup6\n        /* \"#utility.yul\":432:454   */\n      add\n        /* \"#utility.yul\":411:464   */\n      tag_13\n      jump\t// in\n    tag_21:\n        /* \"#utility.yul\":401:464   */\n      swap2\n      pop\n        /* \"#utility.yul\":357:474   */\n      pop\n        /* \"#utility.yul\":152:481   */\n      swap3\n      swap2\n      pop\n      pop\n      jump\t// out\n        /* \"#utility.yul\":568:873   */\n    tag_10:\n        /* \"#utility.yul\":608:611   */\n      0x00\n        /* \"#utility.yul\":627:647   */\n      tag_25\n        /* \"#utility.yul\":645:646   */\n      dup3\n        /* \"#utility.yul\":627:647   */\n      tag_26\n      jump\t// in\n    tag_25:\n        /* \"#utility.yul\":622:647   */\n      swap2\n      pop\n        /* \"#utility.yul\":661:681   */\n      tag_27\n        /* \"#utility.yul\":679:680   */\n      dup4\n        /* \"#utility.yul\":661:681   */\n      tag_26\n      jump\t// in\n    tag_27:\n        /* \"#utility.yul\":656:681   */\n      swap3\n      pop\n        /* \"#utility.yul\":815:816   */\n      dup3\n        /* \"#utility.yul\":747:813   */\n      0xffffffffffffffffffffffffffffffffffffffffffffffffffffffffffffffff\n        /* \"#utility.yul\":743:817   */\n      sub\n        /* \"#utility.yul\":740:741   */\n      dup3\n        /* \"#utility.yul\":737:818   */\n      gt\n        /* \"#utility.yul\":734:841   */\n      iszero\n      tag_28\n      jumpi\n        /* \"#utility.yul\":821:839   */\n      tag_29\n      tag_30\n      jump\t// in\n    tag_29:\n        /* \"#utility.yul\":734:841   */\n    tag_28:\n        /* \"#utility.yul\":865:866   */\n      dup3\n        /* \"#utility.yul\":862:863   */\n      dup3\n        /* \"#utility.yul\":858:867   */\n      add\n        /* \"#utility.yul\":851:867   */\n      swap1\n      pop\n        /* \"#utility.yul\":568:873   */\n      swap3\n      swap2\n      pop\n      pop\n      jump\t// out\n        /* \"#utility.yul\":879:956   */\n    tag_26:\n        /* \"#utility.yul\":916:923   */\n      0x00\n        /* \"#utility.yul\":945:950   */\n      dup2\n        /* \"#utility.yul\":934:950   */\n      swap1\n      pop\n        /* \"#utility.yul\":879:956   */\n      swap2\n      swap1\n      pop\n      jump\t// out\n        /* \"#utility.yul\":962:1142   */\n    tag_30:\n        /* \"#utility.yul\":1010:1087   */\n      0x4e487b7100000000000000000000000000000000000000000000000000000000\n        /* \"#utility.yul\":1007:1008   */\n      0x00\n        /* \"#utility.yul\":1000:1088   */\n      mstore\n        /* \"#utility.yul\":1107:1111   */\n      0x11\n        /* \"#utility.yul\":1104:1105   */\n      0x04\n        /* \"#utility.yul\":1097:1112   */\n      mstore\n        /* \"#utility.yul\":1131:1135   */\n      0x24\n        /* \"#utility.yul\":1128:1129   */\n      0x00\n        /* \"#utility.yul\":1121:1136   */\n      revert\n        /* \"#utility.yul\":1271:1388   */\n    tag_20:\n        /* \"#utility.yul\":1380:1381   */\n      0x00\n        /* \"#utility.yul\":1377:1378   */\n      dup1\n        /* \"#utility.yul\":1370:1382   */\n      revert\n        /* \"#utility.yul\":1394:1516   */\n    tag_16:\n        /* \"#utility.yul\":1467:1491   */\n      tag_37\n        /* \"#utility.yul\":1485:1490   */\n      dup2\n        /* \"#utility.yul\":1467:1491   */\n      tag_26\n      jump\t// in\n    tag_37:\n        /* \"#utility.yul\":1460:1465   */\n      dup2\n        /* \"#utility.yul\":1457:1492   */\n      eq\n        /* \"#utility.yul\":1447:1510   */\n      tag_38\n      jumpi\n        /* \"#utility.yul\":1506:1507   */\n      0x00\n        /* \"#utility.yul\":1503:1504   */\n      dup1\n        /* \"#utility.yul\":1496:1508   */\n      revert\n        /* \"#utility.yul\":1447:1510   */\n    tag_38:\n        /* \"#utility.yul\":1394:1516   */\n      pop\n      jump\t// out\n\n    auxdata: 0xa2646970667358221220200c4054aff101336935860b2669019a6c15f06700175a3d681eb0630dfd365364736f6c63430008070033\n}\n",
				"bytecode": {
					"linkReferences": {},
					"object": "60806040526000805534801561001457600080fd5b50610198806100246000396000f3fe608060405234801561001057600080fd5b506004361061002b5760003560e01c80637527836214610030575b600080fd5b61004a6004803603810190610045919061008a565b61004c565b005b600160008082825461005e91906100b7565b92505081905550600a811061007257600080fd5b50565b6000813590506100848161014b565b92915050565b6000602082840312156100a05761009f610146565b5b60006100ae84828501610075565b91505092915050565b60006100c28261010d565b91506100cd8361010d565b9250827fffffffffffffffffffffffffffffffffffffffffffffffffffffffffffffffff0382111561010257610101610117565b5b828201905092915050565b6000819050919050565b7f4e487b7100000000000000000000000000000000000000000000000000000000600052601160045260246000fd5b600080fd5b6101548161010d565b811461015f57600080fd5b5056fea2646970667358221220200c4054aff101336935860b2669019a6c15f06700175a3d681eb0630dfd365364736f6c63430008070033",
					"opcodes": "PUSH1 0x80 PUSH1 0x40 MSTORE PUSH1 0x0 DUP1 SSTORE CALLVALUE DUP1 ISZERO PUSH2 0x14 JUMPI PUSH1 0x0 DUP1 REVERT JUMPDEST POP PUSH2 0x198 DUP1 PUSH2 0x24 PUSH1 0x0 CODECOPY PUSH1 0x0 RETURN INVALID PUSH1 0x80 PUSH1 0x40 MSTORE CALLVALUE DUP1 ISZERO PUSH2 0x10 JUMPI PUSH1 0x0 DUP1 REVERT JUMPDEST POP PUSH1 0x4 CALLDATASIZE LT PUSH2 0x2B JUMPI PUSH1 0x0 CALLDATALOAD PUSH1 0xE0 SHR DUP1 PUSH4 0x75278362 EQ PUSH2 0x30 JUMPI JUMPDEST PUSH1 0x0 DUP1 REVERT JUMPDEST PUSH2 0x4A PUSH1 0x4 DUP1 CALLDATASIZE SUB DUP2 ADD SWAP1 PUSH2 0x45 SWAP2 SWAP1 PUSH2 0x8A JUMP JUMPDEST PUSH2 0x4C JUMP JUMPDEST STOP JUMPDEST PUSH1 0x1 PUSH1 0x0 DUP1 DUP3 DUP3 SLOAD PUSH2 0x5E SWAP2 SWAP1 PUSH2 0xB7 JUMP JUMPDEST SWAP3 POP POP DUP2 SWAP1 SSTORE POP PUSH1 0xA DUP2 LT PUSH2 0x72 JUMPI PUSH1 0x0 DUP1 REVERT JUMPDEST POP JUMP JUMPDEST PUSH1 0x0 DUP2 CALLDATALOAD SWAP1 POP PUSH2 0x84 DUP2 PUSH2 0x14B JUMP JUMPDEST SWAP3 SWAP2 POP POP JUMP JUMPDEST PUSH1 0x0 PUSH1 0x20 DUP3 DUP5 SUB SLT ISZERO PUSH2 0xA0 JUMPI PUSH2 0x9F PUSH2 0x146 JUMP JUMPDEST JUMPDEST PUSH1 0x0 PUSH2 0xAE DUP5 DUP3 DUP6 ADD PUSH2 0x75 JUMP JUMPDEST SWAP2 POP POP SWAP3 SWAP2 POP POP JUMP JUMPDEST PUSH1 0x0 PUSH2 0xC2 DUP3 PUSH2 0x10D JUMP JUMPDEST SWAP2 POP PUSH2 0xCD DUP4 PUSH2 0x10D JUMP JUMPDEST SWAP3 POP DUP3 PUSH32 0xFFFFFFFFFFFFFFFFFFFFFFFFFFFFFFFFFFFFFFFFFFFFFFFFFFFFFFFFFFFFFFFF SUB DUP3 GT ISZERO PUSH2 0x102 JUMPI PUSH2 0x101 PUSH2 0x117 JUMP JUMPDEST JUMPDEST DUP3 DUP3 ADD SWAP1 POP SWAP3 SWAP2 POP POP JUMP JUMPDEST PUSH1 0x0 DUP2 SWAP1 POP SWAP2 SWAP1 POP JUMP JUMPDEST PUSH32 0x4E487B7100000000000000000000000000000000000000000000000000000000 PUSH1 0x0 MSTORE PUSH1 0x11 PUSH1 0x4 MSTORE PUSH1 0x24 PUSH1 0x0 REVERT JUMPDEST PUSH1 0x0 DUP1 REVERT JUMPDEST PUSH2 0x154 DUP2 PUSH2 0x10D JUMP JUMPDEST DUP2 EQ PUSH2 0x15F JUMPI PUSH1 0x0 DUP1 REVERT JUMPDEST POP JUMP INVALID LOG2 PUSH5 0x6970667358 0x22 SLT KECCAK256 KECCAK256 0xC BLOCKHASH SLOAD 0xAF CALL ADD CALLER PUSH10 0x35860B2669019A6C15F0 PUSH8 0x175A3D681EB063 0xD REVERT CALLDATASIZE MSTORE8 PUSH5 0x736F6C6343 STOP ADDMOD SMOD STOP CALLER "
				},
				"gasEstimates": {
					"creation": {
						"codeDepositCost": "81600",
						"executionCost": "5135",
						"totalCost": "86735"
					},
					"external": {
						"addNum(uint256)": "infinite"
					}
				},
				"methodIdentifiers": {
					"addNum(uint256)": "75278362"
				}
			},
			"storageLayout": {
				"storage": [
					{
						"astId": 4,
						"contract": "error.sol:ErrorTest",
						"label": "num",
						"offset": 0,
						"slot": "0",
						"type": "t_uint256"
					}
				],
				"types": {
					"t_uint256": {
						"encoding": "inplace",
						"label": "uint256",
						"numberOfBytes": "32"
					}
				}
			},
			"userdoc": {
				"kind": "user",
				"methods": {},
				"version": 1
			}
		}
	}
}