{
	"array.sol": {
		"ArrayTest": {
			"abi": [
				{
					"inputs": [
						{
							"internalType": "uint256",
							"name": "index",
							"type": "uint256"
						}
					],
					"name": "deleteElement",
					"outputs": [],
					"stateMutability": "nonpayable",
					"type": "function"
				},
				{
					"inputs": [
						{
							"internalType": "uint256",
							"name": "index",
							"type": "uint256"
						},
						{
							"internalType": "uint256",
							"name": "value",
							"type": "uint256"
						}
					],
					"name": "edit",
					"outputs": [],
					"stateMutability": "nonpayable",
					"type": "function"
				},
				{
					"inputs": [],
					"name": "getArr1",
					"outputs": [
						{
							"internalType": "uint256[]",
							"name": "",
							"type": "uint256[]"
						}
					],
					"stateMutability": "view",
					"type": "function"
				},
				{
					"inputs": [],
					"name": "pop",
					"outputs": [],
					"stateMutability": "nonpayable",
					"type": "function"
				},
				{
					"inputs": [
						{
							"internalType": "uint256",
							"name": "n",
							"type": "uint256"
						}
					],
					"name": "push",
					"outputs": [],
					"stateMutability": "nonpayable",
					"type": "function"
				}
			],
			"devdoc": {
				"kind": "dev",
				"methods": {},
				"version": 1
			},
			"evm": {
				"assembly": "    /* \"array.sol\":61:586  contract ArrayTest {... */\n  mstore(0x40, 0x80)\n  callvalue\n  dup1\n  iszero\n  tag_1\n  jumpi\n  0x00\n  dup1\n  revert\ntag_1:\n  pop\n  dataSize(sub_0)\n  dup1\n  dataOffset(sub_0)\n  0x00\n  codecopy\n  0x00\n  return\nstop\n\nsub_0: assembly {\n        /* \"array.sol\":61:586  contract ArrayTest {... */\n      mstore(0x40, 0x80)\n      callvalue\n      dup1\n      iszero\n      tag_1\n      jumpi\n      0x00\n      dup1\n      revert\n    tag_1:\n      pop\n      jumpi(tag_2, lt(calldatasize, 0x04))\n      shr(0xe0, calldataload(0x00))\n      dup1\n      0x53b619a3\n      eq\n      tag_3\n      jumpi\n      dup1\n      0x792de6f3\n      eq\n      tag_4\n      jumpi\n      dup1\n      0x959ac484\n      eq\n      tag_5\n      jumpi\n      dup1\n      0xa168614d\n      eq\n      tag_6\n      jumpi\n      dup1\n      0xa4ece52c\n      eq\n      tag_7\n      jumpi\n    tag_2:\n      0x00\n      dup1\n      revert\n        /* \"array.sol\":409:491  function edit(uint index,uint value) public {... */\n    tag_3:\n      tag_8\n      0x04\n      dup1\n      calldatasize\n      sub\n      dup2\n      add\n      swap1\n      tag_9\n      swap2\n      swap1\n      tag_10\n      jump\t// in\n    tag_9:\n      tag_11\n      jump\t// in\n    tag_8:\n      stop\n        /* \"array.sol\":322:401  function deleteElement(uint index) public {... */\n    tag_4:\n      tag_12\n      0x04\n      dup1\n      calldatasize\n      sub\n      dup2\n      add\n      swap1\n      tag_13\n      swap2\n      swap1\n      tag_14\n      jump\t// in\n    tag_13:\n      tag_15\n      jump\t// in\n    tag_12:\n      stop\n        /* \"array.sol\":137:197  function push(uint n) public {... */\n    tag_5:\n      tag_16\n      0x04\n      dup1\n      calldatasize\n      sub\n      dup2\n      add\n      swap1\n      tag_17\n      swap2\n      swap1\n      tag_14\n      jump\t// in\n    tag_17:\n      tag_18\n      jump\t// in\n    tag_16:\n      stop\n        /* \"array.sol\":499:583  function getArr1() public view returns (uint[] memory){... */\n    tag_6:\n      tag_19\n      tag_20\n      jump\t// in\n    tag_19:\n      mload(0x40)\n      tag_21\n      swap2\n      swap1\n      tag_22\n      jump\t// in\n    tag_21:\n      mload(0x40)\n      dup1\n      swap2\n      sub\n      swap1\n      return\n        /* \"array.sol\":231:282  function pop() public {... */\n    tag_7:\n      tag_23\n      tag_24\n      jump\t// in\n    tag_23:\n      stop\n        /* \"array.sol\":409:491  function edit(uint index,uint value) public {... */\n    tag_11:\n        /* \"array.sol\":478:483  value */\n      dup1\n        /* \"array.sol\":464:468  arr1 */\n      0x00\n        /* \"array.sol\":469:474  index */\n      dup4\n        /* \"array.sol\":464:475  arr1[index] */\n      dup2\n      sload\n      dup2\n      lt\n      tag_26\n      jumpi\n      tag_27\n      tag_28\n      jump\t// in\n    tag_27:\n    tag_26:\n      swap1\n      0x00\n      mstore\n      keccak256(0x00, 0x20)\n      add\n        /* \"array.sol\":464:483  arr1[index] = value */\n      dup2\n      swap1\n      sstore\n      pop\n        /* \"array.sol\":409:491  function edit(uint index,uint value) public {... */\n      pop\n      pop\n      jump\t// out\n        /* \"array.sol\":322:401  function deleteElement(uint index) public {... */\n    tag_15:\n        /* \"array.sol\":382:386  arr1 */\n      0x00\n        /* \"array.sol\":387:392  index */\n      dup2\n        /* \"array.sol\":382:393  arr1[index] */\n      dup2\n      sload\n      dup2\n      lt\n      tag_31\n      jumpi\n      tag_32\n      tag_28\n      jump\t// in\n    tag_32:\n    tag_31:\n      swap1\n      0x00\n      mstore\n      keccak256(0x00, 0x20)\n      add\n        /* \"array.sol\":375:393  delete arr1[index] */\n      0x00\n      swap1\n      sstore\n        /* \"array.sol\":322:401  function deleteElement(uint index) public {... */\n      pop\n      jump\t// out\n        /* \"array.sol\":137:197  function push(uint n) public {... */\n    tag_18:\n        /* \"array.sol\":177:181  arr1 */\n      0x00\n        /* \"array.sol\":187:188  n */\n      dup2\n        /* \"array.sol\":177:189  arr1.push(n) */\n      swap1\n      dup1\n      0x01\n      dup2\n      sload\n      add\n      dup1\n      dup3\n      sstore\n      dup1\n      swap2\n      pop\n      pop\n      0x01\n      swap1\n      sub\n      swap1\n      0x00\n      mstore\n      keccak256(0x00, 0x20)\n      add\n      0x00\n      swap1\n      swap2\n      swap1\n      swap2\n      swap1\n      swap2\n      pop\n      sstore\n        /* \"array.sol\":137:197  function push(uint n) public {... */\n      pop\n      jump\t// out\n        /* \"array.sol\":499:583  function getArr1() public view returns (uint[] memory){... */\n    tag_20:\n        /* \"array.sol\":539:552  uint[] memory */\n      0x60\n        /* \"array.sol\":571:575  arr1 */\n      0x00\n        /* \"array.sol\":564:575  return arr1 */\n      dup1\n      sload\n      dup1\n      0x20\n      mul\n      0x20\n      add\n      mload(0x40)\n      swap1\n      dup2\n      add\n      0x40\n      mstore\n      dup1\n      swap3\n      swap2\n      swap1\n      dup2\n      dup2\n      mstore\n      0x20\n      add\n      dup3\n      dup1\n      sload\n      dup1\n      iszero\n      tag_37\n      jumpi\n      0x20\n      mul\n      dup3\n      add\n      swap2\n      swap1\n      0x00\n      mstore\n      keccak256(0x00, 0x20)\n      swap1\n    tag_38:\n      dup2\n      sload\n      dup2\n      mstore\n      0x20\n      add\n      swap1\n      0x01\n      add\n      swap1\n      dup1\n      dup4\n      gt\n      tag_38\n      jumpi\n    tag_37:\n      pop\n      pop\n      pop\n      pop\n      pop\n      swap1\n      pop\n        /* \"array.sol\":499:583  function getArr1() public view returns (uint[] memory){... */\n      swap1\n      jump\t// out\n        /* \"array.sol\":231:282  function pop() public {... */\n    tag_24:\n        /* \"array.sol\":264:268  arr1 */\n      0x00\n        /* \"array.sol\":264:274  arr1.pop() */\n      dup1\n      sload\n      dup1\n      tag_40\n      jumpi\n      tag_41\n      tag_42\n      jump\t// in\n    tag_41:\n    tag_40:\n      0x01\n      swap1\n      sub\n      dup2\n      dup2\n      swap1\n      0x00\n      mstore\n      keccak256(0x00, 0x20)\n      add\n      0x00\n      swap1\n      sstore\n      swap1\n      sstore\n        /* \"array.sol\":231:282  function pop() public {... */\n      jump\t// out\n        /* \"#utility.yul\":88:205   */\n    tag_45:\n        /* \"#utility.yul\":197:198   */\n      0x00\n        /* \"#utility.yul\":194:195   */\n      dup1\n        /* \"#utility.yul\":187:199   */\n      revert\n        /* \"#utility.yul\":334:411   */\n    tag_47:\n        /* \"#utility.yul\":371:378   */\n      0x00\n        /* \"#utility.yul\":400:405   */\n      dup2\n        /* \"#utility.yul\":389:405   */\n      swap1\n      pop\n        /* \"#utility.yul\":334:411   */\n      swap2\n      swap1\n      pop\n      jump\t// out\n        /* \"#utility.yul\":417:539   */\n    tag_48:\n        /* \"#utility.yul\":490:514   */\n      tag_63\n        /* \"#utility.yul\":508:513   */\n      dup2\n        /* \"#utility.yul\":490:514   */\n      tag_47\n      jump\t// in\n    tag_63:\n        /* \"#utility.yul\":483:488   */\n      dup2\n        /* \"#utility.yul\":480:515   */\n      eq\n        /* \"#utility.yul\":470:533   */\n      tag_64\n      jumpi\n        /* \"#utility.yul\":529:530   */\n      0x00\n        /* \"#utility.yul\":526:527   */\n      dup1\n        /* \"#utility.yul\":519:531   */\n      revert\n        /* \"#utility.yul\":470:533   */\n    tag_64:\n        /* \"#utility.yul\":417:539   */\n      pop\n      jump\t// out\n        /* \"#utility.yul\":545:684   */\n    tag_49:\n        /* \"#utility.yul\":591:596   */\n      0x00\n        /* \"#utility.yul\":629:635   */\n      dup2\n        /* \"#utility.yul\":616:636   */\n      calldataload\n        /* \"#utility.yul\":607:636   */\n      swap1\n      pop\n        /* \"#utility.yul\":645:678   */\n      tag_66\n        /* \"#utility.yul\":672:677   */\n      dup2\n        /* \"#utility.yul\":645:678   */\n      tag_48\n      jump\t// in\n    tag_66:\n        /* \"#utility.yul\":545:684   */\n      swap3\n      swap2\n      pop\n      pop\n      jump\t// out\n        /* \"#utility.yul\":690:1164   */\n    tag_10:\n        /* \"#utility.yul\":758:764   */\n      0x00\n        /* \"#utility.yul\":766:772   */\n      dup1\n        /* \"#utility.yul\":815:817   */\n      0x40\n        /* \"#utility.yul\":803:812   */\n      dup4\n        /* \"#utility.yul\":794:801   */\n      dup6\n        /* \"#utility.yul\":790:813   */\n      sub\n        /* \"#utility.yul\":786:818   */\n      slt\n        /* \"#utility.yul\":783:902   */\n      iszero\n      tag_68\n      jumpi\n        /* \"#utility.yul\":821:900   */\n      tag_69\n      tag_45\n      jump\t// in\n    tag_69:\n        /* \"#utility.yul\":783:902   */\n    tag_68:\n        /* \"#utility.yul\":941:942   */\n      0x00\n        /* \"#utility.yul\":966:1019   */\n      tag_70\n        /* \"#utility.yul\":1011:1018   */\n      dup6\n        /* \"#utility.yul\":1002:1008   */\n      dup3\n        /* \"#utility.yul\":991:1000   */\n      dup7\n        /* \"#utility.yul\":987:1009   */\n      add\n        /* \"#utility.yul\":966:1019   */\n      tag_49\n      jump\t// in\n    tag_70:\n        /* \"#utility.yul\":956:1019   */\n      swap3\n      pop\n        /* \"#utility.yul\":912:1029   */\n      pop\n        /* \"#utility.yul\":1068:1070   */\n      0x20\n        /* \"#utility.yul\":1094:1147   */\n      tag_71\n        /* \"#utility.yul\":1139:1146   */\n      dup6\n        /* \"#utility.yul\":1130:1136   */\n      dup3\n        /* \"#utility.yul\":1119:1128   */\n      dup7\n        /* \"#utility.yul\":1115:1137   */\n      add\n        /* \"#utility.yul\":1094:1147   */\n      tag_49\n      jump\t// in\n    tag_71:\n        /* \"#utility.yul\":1084:1147   */\n      swap2\n      pop\n        /* \"#utility.yul\":1039:1157   */\n      pop\n        /* \"#utility.yul\":690:1164   */\n      swap3\n      pop\n      swap3\n      swap1\n      pop\n      jump\t// out\n        /* \"#utility.yul\":1170:1499   */\n    tag_14:\n        /* \"#utility.yul\":1229:1235   */\n      0x00\n        /* \"#utility.yul\":1278:1280   */\n      0x20\n        /* \"#utility.yul\":1266:1275   */\n      dup3\n        /* \"#utility.yul\":1257:1264   */\n      dup5\n        /* \"#utility.yul\":1253:1276   */\n      sub\n        /* \"#utility.yul\":1249:1281   */\n      slt\n        /* \"#utility.yul\":1246:1365   */\n      iszero\n      tag_73\n      jumpi\n        /* \"#utility.yul\":1284:1363   */\n      tag_74\n      tag_45\n      jump\t// in\n    tag_74:\n        /* \"#utility.yul\":1246:1365   */\n    tag_73:\n        /* \"#utility.yul\":1404:1405   */\n      0x00\n        /* \"#utility.yul\":1429:1482   */\n      tag_75\n        /* \"#utility.yul\":1474:1481   */\n      dup5\n        /* \"#utility.yul\":1465:1471   */\n      dup3\n        /* \"#utility.yul\":1454:1463   */\n      dup6\n        /* \"#utility.yul\":1450:1472   */\n      add\n        /* \"#utility.yul\":1429:1482   */\n      tag_49\n      jump\t// in\n    tag_75:\n        /* \"#utility.yul\":1419:1482   */\n      swap2\n      pop\n        /* \"#utility.yul\":1375:1492   */\n      pop\n        /* \"#utility.yul\":1170:1499   */\n      swap3\n      swap2\n      pop\n      pop\n      jump\t// out\n        /* \"#utility.yul\":1505:1619   */\n    tag_50:\n        /* \"#utility.yul\":1572:1578   */\n      0x00\n        /* \"#utility.yul\":1606:1611   */\n      dup2\n        /* \"#utility.yul\":1600:1612   */\n      mload\n        /* \"#utility.yul\":1590:1612   */\n      swap1\n      pop\n        /* \"#utility.yul\":1505:1619   */\n      swap2\n      swap1\n      pop\n      jump\t// out\n        /* \"#utility.yul\":1625:1809   */\n    tag_51:\n        /* \"#utility.yul\":1724:1735   */\n      0x00\n        /* \"#utility.yul\":1758:1764   */\n      dup3\n        /* \"#utility.yul\":1753:1756   */\n      dup3\n        /* \"#utility.yul\":1746:1765   */\n      mstore\n        /* \"#utility.yul\":1798:1802   */\n      0x20\n        /* \"#utility.yul\":1793:1796   */\n      dup3\n        /* \"#utility.yul\":1789:1803   */\n      add\n        /* \"#utility.yul\":1774:1803   */\n      swap1\n      pop\n        /* \"#utility.yul\":1625:1809   */\n      swap3\n      swap2\n      pop\n      pop\n      jump\t// out\n        /* \"#utility.yul\":1815:1947   */\n    tag_52:\n        /* \"#utility.yul\":1882:1886   */\n      0x00\n        /* \"#utility.yul\":1905:1908   */\n      dup2\n        /* \"#utility.yul\":1897:1908   */\n      swap1\n      pop\n        /* \"#utility.yul\":1935:1939   */\n      0x20\n        /* \"#utility.yul\":1930:1933   */\n      dup3\n        /* \"#utility.yul\":1926:1940   */\n      add\n        /* \"#utility.yul\":1918:1940   */\n      swap1\n      pop\n        /* \"#utility.yul\":1815:1947   */\n      swap2\n      swap1\n      pop\n      jump\t// out\n        /* \"#utility.yul\":1953:2061   */\n    tag_53:\n        /* \"#utility.yul\":2030:2054   */\n      tag_80\n        /* \"#utility.yul\":2048:2053   */\n      dup2\n        /* \"#utility.yul\":2030:2054   */\n      tag_47\n      jump\t// in\n    tag_80:\n        /* \"#utility.yul\":2025:2028   */\n      dup3\n        /* \"#utility.yul\":2018:2055   */\n      mstore\n        /* \"#utility.yul\":1953:2061   */\n      pop\n      pop\n      jump\t// out\n        /* \"#utility.yul\":2067:2246   */\n    tag_54:\n        /* \"#utility.yul\":2136:2146   */\n      0x00\n        /* \"#utility.yul\":2157:2203   */\n      tag_82\n        /* \"#utility.yul\":2199:2202   */\n      dup4\n        /* \"#utility.yul\":2191:2197   */\n      dup4\n        /* \"#utility.yul\":2157:2203   */\n      tag_53\n      jump\t// in\n    tag_82:\n        /* \"#utility.yul\":2235:2239   */\n      0x20\n        /* \"#utility.yul\":2230:2233   */\n      dup4\n        /* \"#utility.yul\":2226:2240   */\n      add\n        /* \"#utility.yul\":2212:2240   */\n      swap1\n      pop\n        /* \"#utility.yul\":2067:2246   */\n      swap3\n      swap2\n      pop\n      pop\n      jump\t// out\n        /* \"#utility.yul\":2252:2365   */\n    tag_55:\n        /* \"#utility.yul\":2322:2326   */\n      0x00\n        /* \"#utility.yul\":2354:2358   */\n      0x20\n        /* \"#utility.yul\":2349:2352   */\n      dup3\n        /* \"#utility.yul\":2345:2359   */\n      add\n        /* \"#utility.yul\":2337:2359   */\n      swap1\n      pop\n        /* \"#utility.yul\":2252:2365   */\n      swap2\n      swap1\n      pop\n      jump\t// out\n        /* \"#utility.yul\":2401:3133   */\n    tag_56:\n        /* \"#utility.yul\":2520:2523   */\n      0x00\n        /* \"#utility.yul\":2549:2603   */\n      tag_85\n        /* \"#utility.yul\":2597:2602   */\n      dup3\n        /* \"#utility.yul\":2549:2603   */\n      tag_50\n      jump\t// in\n    tag_85:\n        /* \"#utility.yul\":2619:2705   */\n      tag_86\n        /* \"#utility.yul\":2698:2704   */\n      dup2\n        /* \"#utility.yul\":2693:2696   */\n      dup6\n        /* \"#utility.yul\":2619:2705   */\n      tag_51\n      jump\t// in\n    tag_86:\n        /* \"#utility.yul\":2612:2705   */\n      swap4\n      pop\n        /* \"#utility.yul\":2729:2785   */\n      tag_87\n        /* \"#utility.yul\":2779:2784   */\n      dup4\n        /* \"#utility.yul\":2729:2785   */\n      tag_52\n      jump\t// in\n    tag_87:\n        /* \"#utility.yul\":2808:2815   */\n      dup1\n        /* \"#utility.yul\":2839:2840   */\n      0x00\n        /* \"#utility.yul\":2824:3108   */\n    tag_88:\n        /* \"#utility.yul\":2849:2855   */\n      dup4\n        /* \"#utility.yul\":2846:2847   */\n      dup2\n        /* \"#utility.yul\":2843:2856   */\n      lt\n        /* \"#utility.yul\":2824:3108   */\n      iszero\n      tag_90\n      jumpi\n        /* \"#utility.yul\":2925:2931   */\n      dup2\n        /* \"#utility.yul\":2919:2932   */\n      mload\n        /* \"#utility.yul\":2952:3015   */\n      tag_91\n        /* \"#utility.yul\":3011:3014   */\n      dup9\n        /* \"#utility.yul\":2996:3009   */\n      dup3\n        /* \"#utility.yul\":2952:3015   */\n      tag_54\n      jump\t// in\n    tag_91:\n        /* \"#utility.yul\":2945:3015   */\n      swap8\n      pop\n        /* \"#utility.yul\":3038:3098   */\n      tag_92\n        /* \"#utility.yul\":3091:3097   */\n      dup4\n        /* \"#utility.yul\":3038:3098   */\n      tag_55\n      jump\t// in\n    tag_92:\n        /* \"#utility.yul\":3028:3098   */\n      swap3\n      pop\n        /* \"#utility.yul\":2884:3108   */\n      pop\n        /* \"#utility.yul\":2871:2872   */\n      0x01\n        /* \"#utility.yul\":2868:2869   */\n      dup2\n        /* \"#utility.yul\":2864:2873   */\n      add\n        /* \"#utility.yul\":2859:2873   */\n      swap1\n      pop\n        /* \"#utility.yul\":2824:3108   */\n      jump(tag_88)\n    tag_90:\n        /* \"#utility.yul\":2828:2842   */\n      pop\n        /* \"#utility.yul\":3124:3127   */\n      dup6\n        /* \"#utility.yul\":3117:3127   */\n      swap4\n      pop\n        /* \"#utility.yul\":2525:3133   */\n      pop\n      pop\n      pop\n        /* \"#utility.yul\":2401:3133   */\n      swap3\n      swap2\n      pop\n      pop\n      jump\t// out\n        /* \"#utility.yul\":3139:3512   */\n    tag_22:\n        /* \"#utility.yul\":3282:3286   */\n      0x00\n        /* \"#utility.yul\":3320:3322   */\n      0x20\n        /* \"#utility.yul\":3309:3318   */\n      dup3\n        /* \"#utility.yul\":3305:3323   */\n      add\n        /* \"#utility.yul\":3297:3323   */\n      swap1\n      pop\n        /* \"#utility.yul\":3369:3378   */\n      dup2\n        /* \"#utility.yul\":3363:3367   */\n      dup2\n        /* \"#utility.yul\":3359:3379   */\n      sub\n        /* \"#utility.yul\":3355:3356   */\n      0x00\n        /* \"#utility.yul\":3344:3353   */\n      dup4\n        /* \"#utility.yul\":3340:3357   */\n      add\n        /* \"#utility.yul\":3333:3380   */\n      mstore\n        /* \"#utility.yul\":3397:3505   */\n      tag_94\n        /* \"#utility.yul\":3500:3504   */\n      dup2\n        /* \"#utility.yul\":3491:3497   */\n      dup5\n        /* \"#utility.yul\":3397:3505   */\n      tag_56\n      jump\t// in\n    tag_94:\n        /* \"#utility.yul\":3389:3505   */\n      swap1\n      pop\n        /* \"#utility.yul\":3139:3512   */\n      swap3\n      swap2\n      pop\n      pop\n      jump\t// out\n        /* \"#utility.yul\":3518:3698   */\n    tag_28:\n        /* \"#utility.yul\":3566:3643   */\n      0x4e487b7100000000000000000000000000000000000000000000000000000000\n        /* \"#utility.yul\":3563:3564   */\n      0x00\n        /* \"#utility.yul\":3556:3644   */\n      mstore\n        /* \"#utility.yul\":3663:3667   */\n      0x32\n        /* \"#utility.yul\":3660:3661   */\n      0x04\n        /* \"#utility.yul\":3653:3668   */\n      mstore\n        /* \"#utility.yul\":3687:3691   */\n      0x24\n        /* \"#utility.yul\":3684:3685   */\n      0x00\n        /* \"#utility.yul\":3677:3692   */\n      revert\n        /* \"#utility.yul\":3704:3884   */\n    tag_42:\n        /* \"#utility.yul\":3752:3829   */\n      0x4e487b7100000000000000000000000000000000000000000000000000000000\n        /* \"#utility.yul\":3749:3750   */\n      0x00\n        /* \"#utility.yul\":3742:3830   */\n      mstore\n        /* \"#utility.yul\":3849:3853   */\n      0x31\n        /* \"#utility.yul\":3846:3847   */\n      0x04\n        /* \"#utility.yul\":3839:3854   */\n      mstore\n        /* \"#utility.yul\":3873:3877   */\n      0x24\n        /* \"#utility.yul\":3870:3871   */\n      0x00\n        /* \"#utility.yul\":3863:3878   */\n      revert\n\n    auxdata: 0xa26469706673582212208398aab3366b2f156c70067a8f73a191e283c29e0aeb59eb342bb53db866352564736f6c634300080f0033\n}\n",
				"bytecode": {
					"linkReferences": {},
					"object": "608060405234801561001057600080fd5b506103ee806100206000396000f3fe608060405234801561001057600080fd5b50600436106100575760003560e01c806353b619a31461005c578063792de6f314610078578063959ac48414610094578063a168614d146100b0578063a4ece52c146100ce575b600080fd5b6100766004803603810190610071919061020d565b6100d8565b005b610092600480360381019061008d919061024d565b6100ff565b005b6100ae60048036038101906100a9919061024d565b610124565b005b6100b8610150565b6040516100c59190610338565b60405180910390f35b6100d66101a8565b005b80600083815481106100ed576100ec61035a565b5b90600052602060002001819055505050565b600081815481106101135761011261035a565b5b906000526020600020016000905550565b600081908060018154018082558091505060019003906000526020600020016000909190919091505550565b6060600080548060200260200160405190810160405280929190818152602001828054801561019e57602002820191906000526020600020905b81548152602001906001019080831161018a575b5050505050905090565b60008054806101ba576101b9610389565b5b60019003818190600052602060002001600090559055565b600080fd5b6000819050919050565b6101ea816101d7565b81146101f557600080fd5b50565b600081359050610207816101e1565b92915050565b60008060408385031215610224576102236101d2565b5b6000610232858286016101f8565b9250506020610243858286016101f8565b9150509250929050565b600060208284031215610263576102626101d2565b5b6000610271848285016101f8565b91505092915050565b600081519050919050565b600082825260208201905092915050565b6000819050602082019050919050565b6102af816101d7565b82525050565b60006102c183836102a6565b60208301905092915050565b6000602082019050919050565b60006102e58261027a565b6102ef8185610285565b93506102fa83610296565b8060005b8381101561032b57815161031288826102b5565b975061031d836102cd565b9250506001810190506102fe565b5085935050505092915050565b6000602082019050818103600083015261035281846102da565b905092915050565b7f4e487b7100000000000000000000000000000000000000000000000000000000600052603260045260246000fd5b7f4e487b7100000000000000000000000000000000000000000000000000000000600052603160045260246000fdfea26469706673582212208398aab3366b2f156c70067a8f73a191e283c29e0aeb59eb342bb53db866352564736f6c634300080f0033",
					"opcodes": "PUSH1 0x80 PUSH1 0x40 MSTORE CALLVALUE DUP1 ISZERO PUSH2 0x10 JUMPI PUSH1 0x0 DUP1 REVERT JUMPDEST POP PUSH2 0x3EE DUP1 PUSH2 0x20 PUSH1 0x0 CODECOPY PUSH1 0x0 RETURN INVALID PUSH1 0x80 PUSH1 0x40 MSTORE CALLVALUE DUP1 ISZERO PUSH2 0x10 JUMPI PUSH1 0x0 DUP1 REVERT JUMPDEST POP PUSH1 0x4 CALLDATASIZE LT PUSH2 0x57 JUMPI PUSH1 0x0 CALLDATALOAD PUSH1 0xE0 SHR DUP1 PUSH4 0x53B619A3 EQ PUSH2 0x5C JUMPI DUP1 PUSH4 0x792DE6F3 EQ PUSH2 0x78 JUMPI DUP1 PUSH4 0x959AC484 EQ PUSH2 0x94 JUMPI DUP1 PUSH4 0xA168614D EQ PUSH2 0xB0 JUMPI DUP1 PUSH4 0xA4ECE52C EQ PUSH2 0xCE JUMPI JUMPDEST PUSH1 0x0 DUP1 REVERT JUMPDEST PUSH2 0x76 PUSH1 0x4 DUP1 CALLDATASIZE SUB DUP2 ADD SWAP1 PUSH2 0x71 SWAP2 SWAP1 PUSH2 0x20D JUMP JUMPDEST PUSH2 0xD8 JUMP JUMPDEST STOP JUMPDEST PUSH2 0x92 PUSH1 0x4 DUP1 CALLDATASIZE SUB DUP2 ADD SWAP1 PUSH2 0x8D SWAP2 SWAP1 PUSH2 0x24D JUMP JUMPDEST PUSH2 0xFF JUMP JUMPDEST STOP JUMPDEST PUSH2 0xAE PUSH1 0x4 DUP1 CALLDATASIZE SUB DUP2 ADD SWAP1 PUSH2 0xA9 SWAP2 SWAP1 PUSH2 0x24D JUMP JUMPDEST PUSH2 0x124 JUMP JUMPDEST STOP JUMPDEST PUSH2 0xB8 PUSH2 0x150 JUMP JUMPDEST PUSH1 0x40 MLOAD PUSH2 0xC5 SWAP2 SWAP1 PUSH2 0x338 JUMP JUMPDEST PUSH1 0x40 MLOAD DUP1 SWAP2 SUB SWAP1 RETURN JUMPDEST PUSH2 0xD6 PUSH2 0x1A8 JUMP JUMPDEST STOP JUMPDEST DUP1 PUSH1 0x0 DUP4 DUP2 SLOAD DUP2 LT PUSH2 0xED JUMPI PUSH2 0xEC PUSH2 0x35A JUMP JUMPDEST JUMPDEST SWAP1 PUSH1 0x0 MSTORE PUSH1 0x20 PUSH1 0x0 KECCAK256 ADD DUP2 SWAP1 SSTORE POP POP POP JUMP JUMPDEST PUSH1 0x0 DUP2 DUP2 SLOAD DUP2 LT PUSH2 0x113 JUMPI PUSH2 0x112 PUSH2 0x35A JUMP JUMPDEST JUMPDEST SWAP1 PUSH1 0x0 MSTORE PUSH1 0x20 PUSH1 0x0 KECCAK256 ADD PUSH1 0x0 SWAP1 SSTORE POP JUMP JUMPDEST PUSH1 0x0 DUP2 SWAP1 DUP1 PUSH1 0x1 DUP2 SLOAD ADD DUP1 DUP3 SSTORE DUP1 SWAP2 POP POP PUSH1 0x1 SWAP1 SUB SWAP1 PUSH1 0x0 MSTORE PUSH1 0x20 PUSH1 0x0 KECCAK256 ADD PUSH1 0x0 SWAP1 SWAP2 SWAP1 SWAP2 SWAP1 SWAP2 POP SSTORE POP JUMP JUMPDEST PUSH1 0x60 PUSH1 0x0 DUP1 SLOAD DUP1 PUSH1 0x20 MUL PUSH1 0x20 ADD PUSH1 0x40 MLOAD SWAP1 DUP2 ADD PUSH1 0x40 MSTORE DUP1 SWAP3 SWAP2 SWAP1 DUP2 DUP2 MSTORE PUSH1 0x20 ADD DUP3 DUP1 SLOAD DUP1 ISZERO PUSH2 0x19E JUMPI PUSH1 0x20 MUL DUP3 ADD SWAP2 SWAP1 PUSH1 0x0 MSTORE PUSH1 0x20 PUSH1 0x0 KECCAK256 SWAP1 JUMPDEST DUP2 SLOAD DUP2 MSTORE PUSH1 0x20 ADD SWAP1 PUSH1 0x1 ADD SWAP1 DUP1 DUP4 GT PUSH2 0x18A JUMPI JUMPDEST POP POP POP POP POP SWAP1 POP SWAP1 JUMP JUMPDEST PUSH1 0x0 DUP1 SLOAD DUP1 PUSH2 0x1BA JUMPI PUSH2 0x1B9 PUSH2 0x389 JUMP JUMPDEST JUMPDEST PUSH1 0x1 SWAP1 SUB DUP2 DUP2 SWAP1 PUSH1 0x0 MSTORE PUSH1 0x20 PUSH1 0x0 KECCAK256 ADD PUSH1 0x0 SWAP1 SSTORE SWAP1 SSTORE JUMP JUMPDEST PUSH1 0x0 DUP1 REVERT JUMPDEST PUSH1 0x0 DUP2 SWAP1 POP SWAP2 SWAP1 POP JUMP JUMPDEST PUSH2 0x1EA DUP2 PUSH2 0x1D7 JUMP JUMPDEST DUP2 EQ PUSH2 0x1F5 JUMPI PUSH1 0x0 DUP1 REVERT JUMPDEST POP JUMP JUMPDEST PUSH1 0x0 DUP2 CALLDATALOAD SWAP1 POP PUSH2 0x207 DUP2 PUSH2 0x1E1 JUMP JUMPDEST SWAP3 SWAP2 POP POP JUMP JUMPDEST PUSH1 0x0 DUP1 PUSH1 0x40 DUP4 DUP6 SUB SLT ISZERO PUSH2 0x224 JUMPI PUSH2 0x223 PUSH2 0x1D2 JUMP JUMPDEST JUMPDEST PUSH1 0x0 PUSH2 0x232 DUP6 DUP3 DUP7 ADD PUSH2 0x1F8 JUMP JUMPDEST SWAP3 POP POP PUSH1 0x20 PUSH2 0x243 DUP6 DUP3 DUP7 ADD PUSH2 0x1F8 JUMP JUMPDEST SWAP2 POP POP SWAP3 POP SWAP3 SWAP1 POP JUMP JUMPDEST PUSH1 0x0 PUSH1 0x20 DUP3 DUP5 SUB SLT ISZERO PUSH2 0x263 JUMPI PUSH2 0x262 PUSH2 0x1D2 JUMP JUMPDEST JUMPDEST PUSH1 0x0 PUSH2 0x271 DUP5 DUP3 DUP6 ADD PUSH2 0x1F8 JUMP JUMPDEST SWAP2 POP POP SWAP3 SWAP2 POP POP JUMP JUMPDEST PUSH1 0x0 DUP2 MLOAD SWAP1 POP SWAP2 SWAP1 POP JUMP JUMPDEST PUSH1 0x0 DUP3 DUP3 MSTORE PUSH1 0x20 DUP3 ADD SWAP1 POP SWAP3 SWAP2 POP POP JUMP JUMPDEST PUSH1 0x0 DUP2 SWAP1 POP PUSH1 0x20 DUP3 ADD SWAP1 POP SWAP2 SWAP1 POP JUMP JUMPDEST PUSH2 0x2AF DUP2 PUSH2 0x1D7 JUMP JUMPDEST DUP3 MSTORE POP POP JUMP JUMPDEST PUSH1 0x0 PUSH2 0x2C1 DUP4 DUP4 PUSH2 0x2A6 JUMP JUMPDEST PUSH1 0x20 DUP4 ADD SWAP1 POP SWAP3 SWAP2 POP POP JUMP JUMPDEST PUSH1 0x0 PUSH1 0x20 DUP3 ADD SWAP1 POP SWAP2 SWAP1 POP JUMP JUMPDEST PUSH1 0x0 PUSH2 0x2E5 DUP3 PUSH2 0x27A JUMP JUMPDEST PUSH2 0x2EF DUP2 DUP6 PUSH2 0x285 JUMP JUMPDEST SWAP4 POP PUSH2 0x2FA DUP4 PUSH2 0x296 JUMP JUMPDEST DUP1 PUSH1 0x0 JUMPDEST DUP4 DUP2 LT ISZERO PUSH2 0x32B JUMPI DUP2 MLOAD PUSH2 0x312 DUP9 DUP3 PUSH2 0x2B5 JUMP JUMPDEST SWAP8 POP PUSH2 0x31D DUP4 PUSH2 0x2CD JUMP JUMPDEST SWAP3 POP POP PUSH1 0x1 DUP2 ADD SWAP1 POP PUSH2 0x2FE JUMP JUMPDEST POP DUP6 SWAP4 POP POP POP POP SWAP3 SWAP2 POP POP JUMP JUMPDEST PUSH1 0x0 PUSH1 0x20 DUP3 ADD SWAP1 POP DUP2 DUP2 SUB PUSH1 0x0 DUP4 ADD MSTORE PUSH2 0x352 DUP2 DUP5 PUSH2 0x2DA JUMP JUMPDEST SWAP1 POP SWAP3 SWAP2 POP POP JUMP JUMPDEST PUSH32 0x4E487B7100000000000000000000000000000000000000000000000000000000 PUSH1 0x0 MSTORE PUSH1 0x32 PUSH1 0x4 MSTORE PUSH1 0x24 PUSH1 0x0 REVERT JUMPDEST PUSH32 0x4E487B7100000000000000000000000000000000000000000000000000000000 PUSH1 0x0 MSTORE PUSH1 0x31 PUSH1 0x4 MSTORE PUSH1 0x24 PUSH1 0x0 REVERT INVALID LOG2 PUSH5 0x6970667358 0x22 SLT KECCAK256 DUP4 SWAP9 0xAA 0xB3 CALLDATASIZE PUSH12 0x2F156C70067A8F73A191E283 0xC2 SWAP15 EXP 0xEB MSIZE 0xEB CALLVALUE 0x2B 0xB5 RETURNDATASIZE 0xB8 PUSH7 0x352564736F6C63 NUMBER STOP ADDMOD 0xF STOP CALLER "
				},
				"gasEstimates": {
					"creation": {
						"codeDepositCost": "201200",
						"executionCost": "245",
						"totalCost": "201445"
					},
					"external": {
						"deleteElement(uint256)": "7595",
						"edit(uint256,uint256)": "infinite",
						"getArr1()": "infinite",
						"pop()": "29511",
						"push(uint256)": "46851"
					}
				},
				"methodIdentifiers": {
					"deleteElement(uint256)": "792de6f3",
					"edit(uint256,uint256)": "53b619a3",
					"getArr1()": "a168614d",
					"pop()": "a4ece52c",
					"push(uint256)": "959ac484"
				}
			},
			"storageLayout": {
				"storage": [
					{
						"astId": 4,
						"contract": "array.sol:ArrayTest",
						"label": "arr1",
						"offset": 0,
						"slot": "0",
						"type": "t_array(t_uint256)dyn_storage"
					}
				],
				"types": {
					"t_array(t_uint256)dyn_storage": {
						"base": "t_uint256",
						"encoding": "dynamic_array",
						"label": "uint256[]",
						"numberOfBytes": "32"
					},
					"t_uint256": {
						"encoding": "inplace",
						"label": "uint256",
						"numberOfBytes": "32"
					}
				}
			},
			"userdoc": {
				"kind": "user",
				"methods": {},
				"version": 1
			}
		}
	}
}