{
	"function.sol": {
		"B": {
			"abi": [
				{
					"inputs": [
						{
							"internalType": "contract A",
							"name": "a",
							"type": "address"
						}
					],
					"name": "callContractFn",
					"outputs": [],
					"stateMutability": "pure",
					"type": "function"
				}
			],
			"devdoc": {
				"kind": "dev",
				"methods": {},
				"version": 1
			},
			"evm": {
				"assembly": "    /* \"function.sol\":933:1019  contract B {\r... */\n  mstore(0x40, 0x80)\n  callvalue\n  dup1\n  iszero\n  tag_1\n  jumpi\n  0x00\n  dup1\n  revert\ntag_1:\n  pop\n  dataSize(sub_0)\n  dup1\n  dataOffset(sub_0)\n  0x00\n  codecopy\n  0x00\n  return\nstop\n\nsub_0: assembly {\n        /* \"function.sol\":933:1019  contract B {\r... */\n      mstore(0x40, 0x80)\n      callvalue\n      dup1\n      iszero\n      tag_1\n      jumpi\n      0x00\n      dup1\n      revert\n    tag_1:\n      pop\n      jumpi(tag_2, lt(calldatasize, 0x04))\n      shr(0xe0, calldataload(0x00))\n      dup1\n      0xe16e7c00\n      eq\n      tag_3\n      jumpi\n    tag_2:\n      0x00\n      dup1\n      revert\n        /* \"function.sol\":951:1016  function callContractFn(A a) public pure{\r... */\n    tag_3:\n      tag_4\n      0x04\n      dup1\n      calldatasize\n      sub\n      dup2\n      add\n      swap1\n      tag_5\n      swap2\n      swap1\n      tag_6\n      jump\t// in\n    tag_5:\n      tag_7\n      jump\t// in\n    tag_4:\n      stop\n    tag_7:\n        /* \"function.sol\":1002:1003  a */\n      dup1\n        /* \"function.sol\":1002:1006  a.f1 */\n      0xffffffffffffffffffffffffffffffffffffffff\n      and\n      0xc27fc305\n        /* \"function.sol\":1002:1008  a.f1() */\n      mload(0x40)\n      dup2\n      0xffffffff\n      and\n      0xe0\n      shl\n      dup2\n      mstore\n      0x04\n      add\n      0x00\n      mload(0x40)\n      dup1\n      dup4\n      sub\n      dup2\n      dup7\n      dup1\n      extcodesize\n      iszero\n      dup1\n      iszero\n      tag_9\n      jumpi\n      0x00\n      dup1\n      revert\n    tag_9:\n      pop\n      gas\n      staticcall\n      iszero\n      dup1\n      iszero\n      tag_11\n      jumpi\n      returndatasize\n      0x00\n      dup1\n      returndatacopy\n      revert(0x00, returndatasize)\n    tag_11:\n      pop\n      pop\n      pop\n      pop\n      mload(0x40)\n      returndatasize\n      0x00\n      dup3\n      returndatacopy\n      returndatasize\n      not(0x1f)\n      0x1f\n      dup3\n      add\n      and\n      dup3\n      add\n      dup1\n      0x40\n      mstore\n      pop\n      dup2\n      add\n      swap1\n      tag_12\n      swap2\n      swap1\n      tag_13\n      jump\t// in\n    tag_12:\n      pop\n        /* \"function.sol\":951:1016  function callContractFn(A a) public pure{\r... */\n      pop\n      jump\t// out\n        /* \"#utility.yul\":7:428   */\n    tag_15:\n        /* \"#utility.yul\":96:101   */\n      0x00\n        /* \"#utility.yul\":121:187   */\n      tag_17\n        /* \"#utility.yul\":137:186   */\n      tag_18\n        /* \"#utility.yul\":179:185   */\n      dup5\n        /* \"#utility.yul\":137:186   */\n      tag_19\n      jump\t// in\n    tag_18:\n        /* \"#utility.yul\":121:187   */\n      tag_20\n      jump\t// in\n    tag_17:\n        /* \"#utility.yul\":112:187   */\n      swap1\n      pop\n        /* \"#utility.yul\":210:216   */\n      dup3\n        /* \"#utility.yul\":203:208   */\n      dup2\n        /* \"#utility.yul\":196:217   */\n      mstore\n        /* \"#utility.yul\":248:252   */\n      0x20\n        /* \"#utility.yul\":241:246   */\n      dup2\n        /* \"#utility.yul\":237:253   */\n      add\n        /* \"#utility.yul\":286:289   */\n      dup5\n        /* \"#utility.yul\":277:283   */\n      dup5\n        /* \"#utility.yul\":272:275   */\n      dup5\n        /* \"#utility.yul\":268:284   */\n      add\n        /* \"#utility.yul\":265:290   */\n      gt\n        /* \"#utility.yul\":262:374   */\n      iszero\n      tag_21\n      jumpi\n        /* \"#utility.yul\":293:372   */\n      tag_22\n      tag_23\n      jump\t// in\n    tag_22:\n        /* \"#utility.yul\":262:374   */\n    tag_21:\n        /* \"#utility.yul\":383:422   */\n      tag_24\n        /* \"#utility.yul\":415:421   */\n      dup5\n        /* \"#utility.yul\":410:413   */\n      dup3\n        /* \"#utility.yul\":405:408   */\n      dup6\n        /* \"#utility.yul\":383:422   */\n      tag_25\n      jump\t// in\n    tag_24:\n        /* \"#utility.yul\":102:428   */\n      pop\n        /* \"#utility.yul\":7:428   */\n      swap4\n      swap3\n      pop\n      pop\n      pop\n      jump\t// out\n        /* \"#utility.yul\":434:589   */\n    tag_26:\n        /* \"#utility.yul\":488:493   */\n      0x00\n        /* \"#utility.yul\":526:532   */\n      dup2\n        /* \"#utility.yul\":513:533   */\n      calldataload\n        /* \"#utility.yul\":504:533   */\n      swap1\n      pop\n        /* \"#utility.yul\":542:583   */\n      tag_28\n        /* \"#utility.yul\":577:582   */\n      dup2\n        /* \"#utility.yul\":542:583   */\n      tag_29\n      jump\t// in\n    tag_28:\n        /* \"#utility.yul\":434:589   */\n      swap3\n      swap2\n      pop\n      pop\n      jump\t// out\n        /* \"#utility.yul\":609:964   */\n    tag_30:\n        /* \"#utility.yul\":676:681   */\n      0x00\n        /* \"#utility.yul\":725:728   */\n      dup3\n        /* \"#utility.yul\":718:722   */\n      0x1f\n        /* \"#utility.yul\":710:716   */\n      dup4\n        /* \"#utility.yul\":706:723   */\n      add\n        /* \"#utility.yul\":702:729   */\n      slt\n        /* \"#utility.yul\":692:814   */\n      tag_32\n      jumpi\n        /* \"#utility.yul\":733:812   */\n      tag_33\n      tag_34\n      jump\t// in\n    tag_33:\n        /* \"#utility.yul\":692:814   */\n    tag_32:\n        /* \"#utility.yul\":843:849   */\n      dup2\n        /* \"#utility.yul\":837:850   */\n      mload\n        /* \"#utility.yul\":868:958   */\n      tag_35\n        /* \"#utility.yul\":954:957   */\n      dup5\n        /* \"#utility.yul\":946:952   */\n      dup3\n        /* \"#utility.yul\":939:943   */\n      0x20\n        /* \"#utility.yul\":931:937   */\n      dup7\n        /* \"#utility.yul\":927:944   */\n      add\n        /* \"#utility.yul\":868:958   */\n      tag_15\n      jump\t// in\n    tag_35:\n        /* \"#utility.yul\":859:958   */\n      swap2\n      pop\n        /* \"#utility.yul\":682:964   */\n      pop\n        /* \"#utility.yul\":609:964   */\n      swap3\n      swap2\n      pop\n      pop\n      jump\t// out\n        /* \"#utility.yul\":970:1315   */\n    tag_6:\n        /* \"#utility.yul\":1037:1043   */\n      0x00\n        /* \"#utility.yul\":1086:1088   */\n      0x20\n        /* \"#utility.yul\":1074:1083   */\n      dup3\n        /* \"#utility.yul\":1065:1072   */\n      dup5\n        /* \"#utility.yul\":1061:1084   */\n      sub\n        /* \"#utility.yul\":1057:1089   */\n      slt\n        /* \"#utility.yul\":1054:1173   */\n      iszero\n      tag_37\n      jumpi\n        /* \"#utility.yul\":1092:1171   */\n      tag_38\n      tag_39\n      jump\t// in\n    tag_38:\n        /* \"#utility.yul\":1054:1173   */\n    tag_37:\n        /* \"#utility.yul\":1212:1213   */\n      0x00\n        /* \"#utility.yul\":1237:1298   */\n      tag_40\n        /* \"#utility.yul\":1290:1297   */\n      dup5\n        /* \"#utility.yul\":1281:1287   */\n      dup3\n        /* \"#utility.yul\":1270:1279   */\n      dup6\n        /* \"#utility.yul\":1266:1288   */\n      add\n        /* \"#utility.yul\":1237:1298   */\n      tag_26\n      jump\t// in\n    tag_40:\n        /* \"#utility.yul\":1227:1298   */\n      swap2\n      pop\n        /* \"#utility.yul\":1183:1308   */\n      pop\n        /* \"#utility.yul\":970:1315   */\n      swap3\n      swap2\n      pop\n      pop\n      jump\t// out\n        /* \"#utility.yul\":1321:1845   */\n    tag_13:\n        /* \"#utility.yul\":1401:1407   */\n      0x00\n        /* \"#utility.yul\":1450:1452   */\n      0x20\n        /* \"#utility.yul\":1438:1447   */\n      dup3\n        /* \"#utility.yul\":1429:1436   */\n      dup5\n        /* \"#utility.yul\":1425:1448   */\n      sub\n        /* \"#utility.yul\":1421:1453   */\n      slt\n        /* \"#utility.yul\":1418:1537   */\n      iszero\n      tag_42\n      jumpi\n        /* \"#utility.yul\":1456:1535   */\n      tag_43\n      tag_39\n      jump\t// in\n    tag_43:\n        /* \"#utility.yul\":1418:1537   */\n    tag_42:\n        /* \"#utility.yul\":1597:1598   */\n      0x00\n        /* \"#utility.yul\":1586:1595   */\n      dup3\n        /* \"#utility.yul\":1582:1599   */\n      add\n        /* \"#utility.yul\":1576:1600   */\n      mload\n        /* \"#utility.yul\":1627:1645   */\n      0xffffffffffffffff\n        /* \"#utility.yul\":1619:1625   */\n      dup2\n        /* \"#utility.yul\":1616:1646   */\n      gt\n        /* \"#utility.yul\":1613:1730   */\n      iszero\n      tag_44\n      jumpi\n        /* \"#utility.yul\":1649:1728   */\n      tag_45\n      tag_46\n      jump\t// in\n    tag_45:\n        /* \"#utility.yul\":1613:1730   */\n    tag_44:\n        /* \"#utility.yul\":1754:1828   */\n      tag_47\n        /* \"#utility.yul\":1820:1827   */\n      dup5\n        /* \"#utility.yul\":1811:1817   */\n      dup3\n        /* \"#utility.yul\":1800:1809   */\n      dup6\n        /* \"#utility.yul\":1796:1818   */\n      add\n        /* \"#utility.yul\":1754:1828   */\n      tag_30\n      jump\t// in\n    tag_47:\n        /* \"#utility.yul\":1744:1828   */\n      swap2\n      pop\n        /* \"#utility.yul\":1547:1838   */\n      pop\n        /* \"#utility.yul\":1321:1845   */\n      swap3\n      swap2\n      pop\n      pop\n      jump\t// out\n        /* \"#utility.yul\":1851:1980   */\n    tag_20:\n        /* \"#utility.yul\":1885:1891   */\n      0x00\n        /* \"#utility.yul\":1912:1932   */\n      tag_49\n      tag_50\n      jump\t// in\n    tag_49:\n        /* \"#utility.yul\":1902:1932   */\n      swap1\n      pop\n        /* \"#utility.yul\":1941:1974   */\n      tag_51\n        /* \"#utility.yul\":1969:1973   */\n      dup3\n        /* \"#utility.yul\":1961:1967   */\n      dup3\n        /* \"#utility.yul\":1941:1974   */\n      tag_52\n      jump\t// in\n    tag_51:\n        /* \"#utility.yul\":1851:1980   */\n      swap2\n      swap1\n      pop\n      jump\t// out\n        /* \"#utility.yul\":1986:2061   */\n    tag_50:\n        /* \"#utility.yul\":2019:2025   */\n      0x00\n        /* \"#utility.yul\":2052:2054   */\n      0x40\n        /* \"#utility.yul\":2046:2055   */\n      mload\n        /* \"#utility.yul\":2036:2055   */\n      swap1\n      pop\n        /* \"#utility.yul\":1986:2061   */\n      swap1\n      jump\t// out\n        /* \"#utility.yul\":2067:2375   */\n    tag_19:\n        /* \"#utility.yul\":2129:2133   */\n      0x00\n        /* \"#utility.yul\":2219:2237   */\n      0xffffffffffffffff\n        /* \"#utility.yul\":2211:2217   */\n      dup3\n        /* \"#utility.yul\":2208:2238   */\n      gt\n        /* \"#utility.yul\":2205:2261   */\n      iszero\n      tag_55\n      jumpi\n        /* \"#utility.yul\":2241:2259   */\n      tag_56\n      tag_57\n      jump\t// in\n    tag_56:\n        /* \"#utility.yul\":2205:2261   */\n    tag_55:\n        /* \"#utility.yul\":2279:2308   */\n      tag_58\n        /* \"#utility.yul\":2301:2307   */\n      dup3\n        /* \"#utility.yul\":2279:2308   */\n      tag_59\n      jump\t// in\n    tag_58:\n        /* \"#utility.yul\":2271:2308   */\n      swap1\n      pop\n        /* \"#utility.yul\":2363:2367   */\n      0x20\n        /* \"#utility.yul\":2357:2361   */\n      dup2\n        /* \"#utility.yul\":2353:2368   */\n      add\n        /* \"#utility.yul\":2345:2368   */\n      swap1\n      pop\n        /* \"#utility.yul\":2067:2375   */\n      swap2\n      swap1\n      pop\n      jump\t// out\n        /* \"#utility.yul\":2381:2477   */\n    tag_60:\n        /* \"#utility.yul\":2418:2425   */\n      0x00\n        /* \"#utility.yul\":2447:2471   */\n      tag_62\n        /* \"#utility.yul\":2465:2470   */\n      dup3\n        /* \"#utility.yul\":2447:2471   */\n      tag_63\n      jump\t// in\n    tag_62:\n        /* \"#utility.yul\":2436:2471   */\n      swap1\n      pop\n        /* \"#utility.yul\":2381:2477   */\n      swap2\n      swap1\n      pop\n      jump\t// out\n        /* \"#utility.yul\":2483:2587   */\n    tag_64:\n        /* \"#utility.yul\":2528:2535   */\n      0x00\n        /* \"#utility.yul\":2557:2581   */\n      tag_66\n        /* \"#utility.yul\":2575:2580   */\n      dup3\n        /* \"#utility.yul\":2557:2581   */\n      tag_60\n      jump\t// in\n    tag_66:\n        /* \"#utility.yul\":2546:2581   */\n      swap1\n      pop\n        /* \"#utility.yul\":2483:2587   */\n      swap2\n      swap1\n      pop\n      jump\t// out\n        /* \"#utility.yul\":2593:2719   */\n    tag_63:\n        /* \"#utility.yul\":2630:2637   */\n      0x00\n        /* \"#utility.yul\":2670:2712   */\n      0xffffffffffffffffffffffffffffffffffffffff\n        /* \"#utility.yul\":2663:2668   */\n      dup3\n        /* \"#utility.yul\":2659:2713   */\n      and\n        /* \"#utility.yul\":2648:2713   */\n      swap1\n      pop\n        /* \"#utility.yul\":2593:2719   */\n      swap2\n      swap1\n      pop\n      jump\t// out\n        /* \"#utility.yul\":2725:3032   */\n    tag_25:\n        /* \"#utility.yul\":2793:2794   */\n      0x00\n        /* \"#utility.yul\":2803:2916   */\n    tag_69:\n        /* \"#utility.yul\":2817:2823   */\n      dup4\n        /* \"#utility.yul\":2814:2815   */\n      dup2\n        /* \"#utility.yul\":2811:2824   */\n      lt\n        /* \"#utility.yul\":2803:2916   */\n      iszero\n      tag_71\n      jumpi\n        /* \"#utility.yul\":2902:2903   */\n      dup1\n        /* \"#utility.yul\":2897:2900   */\n      dup3\n        /* \"#utility.yul\":2893:2904   */\n      add\n        /* \"#utility.yul\":2887:2905   */\n      mload\n        /* \"#utility.yul\":2883:2884   */\n      dup2\n        /* \"#utility.yul\":2878:2881   */\n      dup5\n        /* \"#utility.yul\":2874:2885   */\n      add\n        /* \"#utility.yul\":2867:2906   */\n      mstore\n        /* \"#utility.yul\":2839:2841   */\n      0x20\n        /* \"#utility.yul\":2836:2837   */\n      dup2\n        /* \"#utility.yul\":2832:2842   */\n      add\n        /* \"#utility.yul\":2827:2842   */\n      swap1\n      pop\n        /* \"#utility.yul\":2803:2916   */\n      jump(tag_69)\n    tag_71:\n        /* \"#utility.yul\":2934:2940   */\n      dup4\n        /* \"#utility.yul\":2931:2932   */\n      dup2\n        /* \"#utility.yul\":2928:2941   */\n      gt\n        /* \"#utility.yul\":2925:3026   */\n      iszero\n      tag_72\n      jumpi\n        /* \"#utility.yul\":3014:3015   */\n      0x00\n        /* \"#utility.yul\":3005:3011   */\n      dup5\n        /* \"#utility.yul\":3000:3003   */\n      dup5\n        /* \"#utility.yul\":2996:3012   */\n      add\n        /* \"#utility.yul\":2989:3016   */\n      mstore\n        /* \"#utility.yul\":2925:3026   */\n    tag_72:\n        /* \"#utility.yul\":2774:3032   */\n      pop\n        /* \"#utility.yul\":2725:3032   */\n      pop\n      pop\n      pop\n      jump\t// out\n        /* \"#utility.yul\":3038:3319   */\n    tag_52:\n        /* \"#utility.yul\":3121:3148   */\n      tag_74\n        /* \"#utility.yul\":3143:3147   */\n      dup3\n        /* \"#utility.yul\":3121:3148   */\n      tag_59\n      jump\t// in\n    tag_74:\n        /* \"#utility.yul\":3113:3119   */\n      dup2\n        /* \"#utility.yul\":3109:3149   */\n      add\n        /* \"#utility.yul\":3251:3257   */\n      dup2\n        /* \"#utility.yul\":3239:3249   */\n      dup2\n        /* \"#utility.yul\":3236:3258   */\n      lt\n        /* \"#utility.yul\":3215:3233   */\n      0xffffffffffffffff\n        /* \"#utility.yul\":3203:3213   */\n      dup3\n        /* \"#utility.yul\":3200:3234   */\n      gt\n        /* \"#utility.yul\":3197:3259   */\n      or\n        /* \"#utility.yul\":3194:3282   */\n      iszero\n      tag_75\n      jumpi\n        /* \"#utility.yul\":3262:3280   */\n      tag_76\n      tag_57\n      jump\t// in\n    tag_76:\n        /* \"#utility.yul\":3194:3282   */\n    tag_75:\n        /* \"#utility.yul\":3302:3312   */\n      dup1\n        /* \"#utility.yul\":3298:3300   */\n      0x40\n        /* \"#utility.yul\":3291:3313   */\n      mstore\n        /* \"#utility.yul\":3081:3319   */\n      pop\n        /* \"#utility.yul\":3038:3319   */\n      pop\n      pop\n      jump\t// out\n        /* \"#utility.yul\":3325:3505   */\n    tag_57:\n        /* \"#utility.yul\":3373:3450   */\n      0x4e487b7100000000000000000000000000000000000000000000000000000000\n        /* \"#utility.yul\":3370:3371   */\n      0x00\n        /* \"#utility.yul\":3363:3451   */\n      mstore\n        /* \"#utility.yul\":3470:3474   */\n      0x41\n        /* \"#utility.yul\":3467:3468   */\n      0x04\n        /* \"#utility.yul\":3460:3475   */\n      mstore\n        /* \"#utility.yul\":3494:3498   */\n      0x24\n        /* \"#utility.yul\":3491:3492   */\n      0x00\n        /* \"#utility.yul\":3484:3499   */\n      revert\n        /* \"#utility.yul\":3511:3628   */\n    tag_34:\n        /* \"#utility.yul\":3620:3621   */\n      0x00\n        /* \"#utility.yul\":3617:3618   */\n      dup1\n        /* \"#utility.yul\":3610:3622   */\n      revert\n        /* \"#utility.yul\":3634:3751   */\n    tag_23:\n        /* \"#utility.yul\":3743:3744   */\n      0x00\n        /* \"#utility.yul\":3740:3741   */\n      dup1\n        /* \"#utility.yul\":3733:3745   */\n      revert\n        /* \"#utility.yul\":3757:3874   */\n    tag_46:\n        /* \"#utility.yul\":3866:3867   */\n      0x00\n        /* \"#utility.yul\":3863:3864   */\n      dup1\n        /* \"#utility.yul\":3856:3868   */\n      revert\n        /* \"#utility.yul\":3880:3997   */\n    tag_39:\n        /* \"#utility.yul\":3989:3990   */\n      0x00\n        /* \"#utility.yul\":3986:3987   */\n      dup1\n        /* \"#utility.yul\":3979:3991   */\n      revert\n        /* \"#utility.yul\":4003:4105   */\n    tag_59:\n        /* \"#utility.yul\":4044:4050   */\n      0x00\n        /* \"#utility.yul\":4095:4097   */\n      0x1f\n        /* \"#utility.yul\":4091:4098   */\n      not\n        /* \"#utility.yul\":4086:4088   */\n      0x1f\n        /* \"#utility.yul\":4079:4084   */\n      dup4\n        /* \"#utility.yul\":4075:4089   */\n      add\n        /* \"#utility.yul\":4071:4099   */\n      and\n        /* \"#utility.yul\":4061:4099   */\n      swap1\n      pop\n        /* \"#utility.yul\":4003:4105   */\n      swap2\n      swap1\n      pop\n      jump\t// out\n        /* \"#utility.yul\":4111:4249   */\n    tag_29:\n        /* \"#utility.yul\":4192:4224   */\n      tag_84\n        /* \"#utility.yul\":4218:4223   */\n      dup2\n        /* \"#utility.yul\":4192:4224   */\n      tag_64\n      jump\t// in\n    tag_84:\n        /* \"#utility.yul\":4185:4190   */\n      dup2\n        /* \"#utility.yul\":4182:4225   */\n      eq\n        /* \"#utility.yul\":4172:4243   */\n      tag_85\n      jumpi\n        /* \"#utility.yul\":4239:4240   */\n      0x00\n        /* \"#utility.yul\":4236:4237   */\n      dup1\n        /* \"#utility.yul\":4229:4241   */\n      revert\n        /* \"#utility.yul\":4172:4243   */\n    tag_85:\n        /* \"#utility.yul\":4111:4249   */\n      pop\n      jump\t// out\n\n    auxdata: 0xa2646970667358221220d152335ec9f6098d3a6557c797b42403cf5c0c8a0be93df7bd573817ce90264564736f6c63430008070033\n}\n",
				"bytecode": {
					"linkReferences": {},
					"object": "608060405234801561001057600080fd5b5061036d806100206000396000f3fe608060405234801561001057600080fd5b506004361061002b5760003560e01c8063e16e7c0014610030575b600080fd5b61004a60048036038101906100459190610158565b61004c565b005b8073ffffffffffffffffffffffffffffffffffffffff1663c27fc3056040518163ffffffff1660e01b815260040160006040518083038186803b15801561009257600080fd5b505afa1580156100a6573d6000803e3d6000fd5b505050506040513d6000823e3d601f19601f820116820180604052508101906100cf9190610185565b5050565b60006100e66100e1846101f3565b6101ce565b90508281526020810184848401111561010257610101610300565b5b61010d848285610268565b509392505050565b60008135905061012481610320565b92915050565b600082601f83011261013f5761013e6102fb565b5b815161014f8482602086016100d3565b91505092915050565b60006020828403121561016e5761016d61030a565b5b600061017c84828501610115565b91505092915050565b60006020828403121561019b5761019a61030a565b5b600082015167ffffffffffffffff8111156101b9576101b8610305565b5b6101c58482850161012a565b91505092915050565b60006101d86101e9565b90506101e4828261029b565b919050565b6000604051905090565b600067ffffffffffffffff82111561020e5761020d6102cc565b5b6102178261030f565b9050602081019050919050565b600061022f82610248565b9050919050565b600061024182610224565b9050919050565b600073ffffffffffffffffffffffffffffffffffffffff82169050919050565b60005b8381101561028657808201518184015260208101905061026b565b83811115610295576000848401525b50505050565b6102a48261030f565b810181811067ffffffffffffffff821117156102c3576102c26102cc565b5b80604052505050565b7f4e487b7100000000000000000000000000000000000000000000000000000000600052604160045260246000fd5b600080fd5b600080fd5b600080fd5b600080fd5b6000601f19601f8301169050919050565b61032981610236565b811461033457600080fd5b5056fea2646970667358221220d152335ec9f6098d3a6557c797b42403cf5c0c8a0be93df7bd573817ce90264564736f6c63430008070033",
					"opcodes": "PUSH1 0x80 PUSH1 0x40 MSTORE CALLVALUE DUP1 ISZERO PUSH2 0x10 JUMPI PUSH1 0x0 DUP1 REVERT JUMPDEST POP PUSH2 0x36D DUP1 PUSH2 0x20 PUSH1 0x0 CODECOPY PUSH1 0x0 RETURN INVALID PUSH1 0x80 PUSH1 0x40 MSTORE CALLVALUE DUP1 ISZERO PUSH2 0x10 JUMPI PUSH1 0x0 DUP1 REVERT JUMPDEST POP PUSH1 0x4 CALLDATASIZE LT PUSH2 0x2B JUMPI PUSH1 0x0 CALLDATALOAD PUSH1 0xE0 SHR DUP1 PUSH4 0xE16E7C00 EQ PUSH2 0x30 JUMPI JUMPDEST PUSH1 0x0 DUP1 REVERT JUMPDEST PUSH2 0x4A PUSH1 0x4 DUP1 CALLDATASIZE SUB DUP2 ADD SWAP1 PUSH2 0x45 SWAP2 SWAP1 PUSH2 0x158 JUMP JUMPDEST PUSH2 0x4C JUMP JUMPDEST STOP JUMPDEST DUP1 PUSH20 0xFFFFFFFFFFFFFFFFFFFFFFFFFFFFFFFFFFFFFFFF AND PUSH4 0xC27FC305 PUSH1 0x40 MLOAD DUP2 PUSH4 0xFFFFFFFF AND PUSH1 0xE0 SHL DUP2 MSTORE PUSH1 0x4 ADD PUSH1 0x0 PUSH1 0x40 MLOAD DUP1 DUP4 SUB DUP2 DUP7 DUP1 EXTCODESIZE ISZERO DUP1 ISZERO PUSH2 0x92 JUMPI PUSH1 0x0 DUP1 REVERT JUMPDEST POP GAS STATICCALL ISZERO DUP1 ISZERO PUSH2 0xA6 JUMPI RETURNDATASIZE PUSH1 0x0 DUP1 RETURNDATACOPY RETURNDATASIZE PUSH1 0x0 REVERT JUMPDEST POP POP POP POP PUSH1 0x40 MLOAD RETURNDATASIZE PUSH1 0x0 DUP3 RETURNDATACOPY RETURNDATASIZE PUSH1 0x1F NOT PUSH1 0x1F DUP3 ADD AND DUP3 ADD DUP1 PUSH1 0x40 MSTORE POP DUP2 ADD SWAP1 PUSH2 0xCF SWAP2 SWAP1 PUSH2 0x185 JUMP JUMPDEST POP POP JUMP JUMPDEST PUSH1 0x0 PUSH2 0xE6 PUSH2 0xE1 DUP5 PUSH2 0x1F3 JUMP JUMPDEST PUSH2 0x1CE JUMP JUMPDEST SWAP1 POP DUP3 DUP2 MSTORE PUSH1 0x20 DUP2 ADD DUP5 DUP5 DUP5 ADD GT ISZERO PUSH2 0x102 JUMPI PUSH2 0x101 PUSH2 0x300 JUMP JUMPDEST JUMPDEST PUSH2 0x10D DUP5 DUP3 DUP6 PUSH2 0x268 JUMP JUMPDEST POP SWAP4 SWAP3 POP POP POP JUMP JUMPDEST PUSH1 0x0 DUP2 CALLDATALOAD SWAP1 POP PUSH2 0x124 DUP2 PUSH2 0x320 JUMP JUMPDEST SWAP3 SWAP2 POP POP JUMP JUMPDEST PUSH1 0x0 DUP3 PUSH1 0x1F DUP4 ADD SLT PUSH2 0x13F JUMPI PUSH2 0x13E PUSH2 0x2FB JUMP JUMPDEST JUMPDEST DUP2 MLOAD PUSH2 0x14F DUP5 DUP3 PUSH1 0x20 DUP7 ADD PUSH2 0xD3 JUMP JUMPDEST SWAP2 POP POP SWAP3 SWAP2 POP POP JUMP JUMPDEST PUSH1 0x0 PUSH1 0x20 DUP3 DUP5 SUB SLT ISZERO PUSH2 0x16E JUMPI PUSH2 0x16D PUSH2 0x30A JUMP JUMPDEST JUMPDEST PUSH1 0x0 PUSH2 0x17C DUP5 DUP3 DUP6 ADD PUSH2 0x115 JUMP JUMPDEST SWAP2 POP POP SWAP3 SWAP2 POP POP JUMP JUMPDEST PUSH1 0x0 PUSH1 0x20 DUP3 DUP5 SUB SLT ISZERO PUSH2 0x19B JUMPI PUSH2 0x19A PUSH2 0x30A JUMP JUMPDEST JUMPDEST PUSH1 0x0 DUP3 ADD MLOAD PUSH8 0xFFFFFFFFFFFFFFFF DUP2 GT ISZERO PUSH2 0x1B9 JUMPI PUSH2 0x1B8 PUSH2 0x305 JUMP JUMPDEST JUMPDEST PUSH2 0x1C5 DUP5 DUP3 DUP6 ADD PUSH2 0x12A JUMP JUMPDEST SWAP2 POP POP SWAP3 SWAP2 POP POP JUMP JUMPDEST PUSH1 0x0 PUSH2 0x1D8 PUSH2 0x1E9 JUMP JUMPDEST SWAP1 POP PUSH2 0x1E4 DUP3 DUP3 PUSH2 0x29B JUMP JUMPDEST SWAP2 SWAP1 POP JUMP JUMPDEST PUSH1 0x0 PUSH1 0x40 MLOAD SWAP1 POP SWAP1 JUMP JUMPDEST PUSH1 0x0 PUSH8 0xFFFFFFFFFFFFFFFF DUP3 GT ISZERO PUSH2 0x20E JUMPI PUSH2 0x20D PUSH2 0x2CC JUMP JUMPDEST JUMPDEST PUSH2 0x217 DUP3 PUSH2 0x30F JUMP JUMPDEST SWAP1 POP PUSH1 0x20 DUP2 ADD SWAP1 POP SWAP2 SWAP1 POP JUMP JUMPDEST PUSH1 0x0 PUSH2 0x22F DUP3 PUSH2 0x248 JUMP JUMPDEST SWAP1 POP SWAP2 SWAP1 POP JUMP JUMPDEST PUSH1 0x0 PUSH2 0x241 DUP3 PUSH2 0x224 JUMP JUMPDEST SWAP1 POP SWAP2 SWAP1 POP JUMP JUMPDEST PUSH1 0x0 PUSH20 0xFFFFFFFFFFFFFFFFFFFFFFFFFFFFFFFFFFFFFFFF DUP3 AND SWAP1 POP SWAP2 SWAP1 POP JUMP JUMPDEST PUSH1 0x0 JUMPDEST DUP4 DUP2 LT ISZERO PUSH2 0x286 JUMPI DUP1 DUP3 ADD MLOAD DUP2 DUP5 ADD MSTORE PUSH1 0x20 DUP2 ADD SWAP1 POP PUSH2 0x26B JUMP JUMPDEST DUP4 DUP2 GT ISZERO PUSH2 0x295 JUMPI PUSH1 0x0 DUP5 DUP5 ADD MSTORE JUMPDEST POP POP POP POP JUMP JUMPDEST PUSH2 0x2A4 DUP3 PUSH2 0x30F JUMP JUMPDEST DUP2 ADD DUP2 DUP2 LT PUSH8 0xFFFFFFFFFFFFFFFF DUP3 GT OR ISZERO PUSH2 0x2C3 JUMPI PUSH2 0x2C2 PUSH2 0x2CC JUMP JUMPDEST JUMPDEST DUP1 PUSH1 0x40 MSTORE POP POP POP JUMP JUMPDEST PUSH32 0x4E487B7100000000000000000000000000000000000000000000000000000000 PUSH1 0x0 MSTORE PUSH1 0x41 PUSH1 0x4 MSTORE PUSH1 0x24 PUSH1 0x0 REVERT JUMPDEST PUSH1 0x0 DUP1 REVERT JUMPDEST PUSH1 0x0 DUP1 REVERT JUMPDEST PUSH1 0x0 DUP1 REVERT JUMPDEST PUSH1 0x0 DUP1 REVERT JUMPDEST PUSH1 0x0 PUSH1 0x1F NOT PUSH1 0x1F DUP4 ADD AND SWAP1 POP SWAP2 SWAP1 POP JUMP JUMPDEST PUSH2 0x329 DUP2 PUSH2 0x236 JUMP JUMPDEST DUP2 EQ PUSH2 0x334 JUMPI PUSH1 0x0 DUP1 REVERT JUMPDEST POP JUMP INVALID LOG2 PUSH5 0x6970667358 0x22 SLT KECCAK256 0xD1 MSTORE CALLER 0x5E 0xC9 0xF6 MULMOD DUP14 GASPRICE PUSH6 0x57C797B42403 0xCF 0x5C 0xC DUP11 SIGNEXTEND 0xE9 RETURNDATASIZE 0xF7 0xBD JUMPI CODESIZE OR 0xCE SWAP1 0x26 GASLIMIT PUSH5 0x736F6C6343 STOP ADDMOD SMOD STOP CALLER "
				},
				"gasEstimates": {
					"creation": {
						"codeDepositCost": "175400",
						"executionCost": "220",
						"totalCost": "175620"
					},
					"external": {
						"callContractFn(address)": "infinite"
					}
				},
				"methodIdentifiers": {
					"callContractFn(address)": "e16e7c00"
				}
			},
			"storageLayout": {
				"storage": [],
				"types": null
			},
			"userdoc": {
				"kind": "user",
				"methods": {},
				"version": 1
			}
		}
	}
}