{
	"array.sol": {
		"ArrayTest": {
			"abi": [
				{
					"inputs": [
						{
							"internalType": "uint256",
							"name": "index",
							"type": "uint256"
						}
					],
					"name": "deleteElement",
					"outputs": [],
					"stateMutability": "nonpayable",
					"type": "function"
				},
				{
					"inputs": [
						{
							"internalType": "uint256",
							"name": "index",
							"type": "uint256"
						},
						{
							"internalType": "uint256",
							"name": "value",
							"type": "uint256"
						}
					],
					"name": "edit",
					"outputs": [],
					"stateMutability": "nonpayable",
					"type": "function"
				},
				{
					"inputs": [],
					"name": "getArr1",
					"outputs": [
						{
							"internalType": "uint256[]",
							"name": "",
							"type": "uint256[]"
						}
					],
					"stateMutability": "view",
					"type": "function"
				},
				{
					"inputs": [],
					"name": "pop",
					"outputs": [],
					"stateMutability": "nonpayable",
					"type": "function"
				},
				{
					"inputs": [
						{
							"internalType": "uint256",
							"name": "n",
							"type": "uint256"
						}
					],
					"name": "push",
					"outputs": [],
					"stateMutability": "nonpayable",
					"type": "function"
				},
				{
					"inputs": [
						{
							"internalType": "uint256",
							"name": "index",
							"type": "uint256"
						}
					],
					"name": "remove",
					"outputs": [
						{
							"internalType": "uint256",
							"name": "",
							"type": "uint256"
						},
						{
							"internalType": "uint256[]",
							"name": "",
							"type": "uint256[]"
						}
					],
					"stateMutability": "nonpayable",
					"type": "function"
				}
			],
			"devdoc": {
				"kind": "dev",
				"methods": {},
				"version": 1
			},
			"evm": {
				"assembly": "    /* \"array.sol\":77:980  contract ArrayTest {... */\n  mstore(0x40, 0x80)\n  callvalue\n  dup1\n  iszero\n  tag_1\n  jumpi\n  0x00\n  dup1\n  revert\ntag_1:\n  pop\n  dataSize(sub_0)\n  dup1\n  dataOffset(sub_0)\n  0x00\n  codecopy\n  0x00\n  return\nstop\n\nsub_0: assembly {\n        /* \"array.sol\":77:980  contract ArrayTest {... */\n      mstore(0x40, 0x80)\n      callvalue\n      dup1\n      iszero\n      tag_1\n      jumpi\n      0x00\n      dup1\n      revert\n    tag_1:\n      pop\n      jumpi(tag_2, lt(calldatasize, 0x04))\n      shr(0xe0, calldataload(0x00))\n      dup1\n      0x4cc82215\n      eq\n      tag_3\n      jumpi\n      dup1\n      0x53b619a3\n      eq\n      tag_4\n      jumpi\n      dup1\n      0x792de6f3\n      eq\n      tag_5\n      jumpi\n      dup1\n      0x959ac484\n      eq\n      tag_6\n      jumpi\n      dup1\n      0xa168614d\n      eq\n      tag_7\n      jumpi\n      dup1\n      0xa4ece52c\n      eq\n      tag_8\n      jumpi\n    tag_2:\n      0x00\n      dup1\n      revert\n        /* \"array.sol\":744:977  function remove(uint index) public returns (uint,uint[] memory){... */\n    tag_3:\n      tag_9\n      0x04\n      dup1\n      calldatasize\n      sub\n      dup2\n      add\n      swap1\n      tag_10\n      swap2\n      swap1\n      tag_11\n      jump\t// in\n    tag_10:\n      tag_12\n      jump\t// in\n    tag_9:\n      mload(0x40)\n      tag_13\n      swap3\n      swap2\n      swap1\n      tag_14\n      jump\t// in\n    tag_13:\n      mload(0x40)\n      dup1\n      swap2\n      sub\n      swap1\n      return\n        /* \"array.sol\":425:507  function edit(uint index,uint value) public {... */\n    tag_4:\n      tag_15\n      0x04\n      dup1\n      calldatasize\n      sub\n      dup2\n      add\n      swap1\n      tag_16\n      swap2\n      swap1\n      tag_17\n      jump\t// in\n    tag_16:\n      tag_18\n      jump\t// in\n    tag_15:\n      stop\n        /* \"array.sol\":338:417  function deleteElement(uint index) public {... */\n    tag_5:\n      tag_19\n      0x04\n      dup1\n      calldatasize\n      sub\n      dup2\n      add\n      swap1\n      tag_20\n      swap2\n      swap1\n      tag_11\n      jump\t// in\n    tag_20:\n      tag_21\n      jump\t// in\n    tag_19:\n      stop\n        /* \"array.sol\":153:213  function push(uint n) public {... */\n    tag_6:\n      tag_22\n      0x04\n      dup1\n      calldatasize\n      sub\n      dup2\n      add\n      swap1\n      tag_23\n      swap2\n      swap1\n      tag_11\n      jump\t// in\n    tag_23:\n      tag_24\n      jump\t// in\n    tag_22:\n      stop\n        /* \"array.sol\":515:599  function getArr1() public view returns (uint[] memory){... */\n    tag_7:\n      tag_25\n      tag_26\n      jump\t// in\n    tag_25:\n      mload(0x40)\n      tag_27\n      swap2\n      swap1\n      tag_28\n      jump\t// in\n    tag_27:\n      mload(0x40)\n      dup1\n      swap2\n      sub\n      swap1\n      return\n        /* \"array.sol\":247:298  function pop() public {... */\n    tag_8:\n      tag_29\n      tag_30\n      jump\t// in\n    tag_29:\n      stop\n        /* \"array.sol\":744:977  function remove(uint index) public returns (uint,uint[] memory){... */\n    tag_12:\n        /* \"array.sol\":788:792  uint */\n      0x00\n        /* \"array.sol\":793:806  uint[] memory */\n      0x60\n        /* \"array.sol\":825:829  arr1 */\n      0x00\n        /* \"array.sol\":830:835  index */\n      dup4\n        /* \"array.sol\":825:836  arr1[index] */\n      dup2\n      sload\n      dup2\n      lt\n      tag_32\n      jumpi\n      tag_33\n      tag_34\n      jump\t// in\n    tag_33:\n    tag_32:\n      swap1\n      0x00\n      mstore\n      keccak256(0x00, 0x20)\n      add\n        /* \"array.sol\":818:836  delete arr1[index] */\n      0x00\n      swap1\n      sstore\n        /* \"array.sol\":851:857  uint i */\n      0x00\n        /* \"array.sol\":860:865  index */\n      dup4\n        /* \"array.sol\":851:865  uint i = index */\n      swap1\n      pop\n        /* \"array.sol\":847:932  for(uint i = index;i<arr1.length-1;i++){... */\n    tag_36:\n        /* \"array.sol\":880:881  1 */\n      0x01\n        /* \"array.sol\":868:872  arr1 */\n      0x00\n        /* \"array.sol\":868:879  arr1.length */\n      dup1\n      sload\n      swap1\n      pop\n        /* \"array.sol\":868:881  arr1.length-1 */\n      tag_39\n      swap2\n      swap1\n      tag_40\n      jump\t// in\n    tag_39:\n        /* \"array.sol\":866:867  i */\n      dup2\n        /* \"array.sol\":866:881  i<arr1.length-1 */\n      lt\n        /* \"array.sol\":847:932  for(uint i = index;i<arr1.length-1;i++){... */\n      iszero\n      tag_37\n      jumpi\n        /* \"array.sol\":911:915  arr1 */\n      0x00\n        /* \"array.sol\":918:919  1 */\n      0x01\n        /* \"array.sol\":916:917  i */\n      dup3\n        /* \"array.sol\":916:919  i+1 */\n      tag_41\n      swap2\n      swap1\n      tag_42\n      jump\t// in\n    tag_41:\n        /* \"array.sol\":911:920  arr1[i+1] */\n      dup2\n      sload\n      dup2\n      lt\n      tag_43\n      jumpi\n      tag_44\n      tag_34\n      jump\t// in\n    tag_44:\n    tag_43:\n      swap1\n      0x00\n      mstore\n      keccak256(0x00, 0x20)\n      add\n      sload\n        /* \"array.sol\":901:905  arr1 */\n      0x00\n        /* \"array.sol\":906:907  i */\n      dup3\n        /* \"array.sol\":901:908  arr1[i] */\n      dup2\n      sload\n      dup2\n      lt\n      tag_46\n      jumpi\n      tag_47\n      tag_34\n      jump\t// in\n    tag_47:\n    tag_46:\n      swap1\n      0x00\n      mstore\n      keccak256(0x00, 0x20)\n      add\n        /* \"array.sol\":901:920  arr1[i] = arr1[i+1] */\n      dup2\n      swap1\n      sstore\n      pop\n        /* \"array.sol\":882:885  i++ */\n      dup1\n      dup1\n      tag_49\n      swap1\n      tag_50\n      jump\t// in\n    tag_49:\n      swap2\n      pop\n      pop\n        /* \"array.sol\":847:932  for(uint i = index;i<arr1.length-1;i++){... */\n      jump(tag_36)\n    tag_37:\n      pop\n        /* \"array.sol\":952:956  arr1 */\n      0x00\n        /* \"array.sol\":952:963  arr1.length */\n      dup1\n      sload\n      swap1\n      pop\n        /* \"array.sol\":964:968  arr1 */\n      0x00\n        /* \"array.sol\":944:969  return (arr1.length,arr1) */\n      dup1\n      dup1\n      sload\n      dup1\n      0x20\n      mul\n      0x20\n      add\n      mload(0x40)\n      swap1\n      dup2\n      add\n      0x40\n      mstore\n      dup1\n      swap3\n      swap2\n      swap1\n      dup2\n      dup2\n      mstore\n      0x20\n      add\n      dup3\n      dup1\n      sload\n      dup1\n      iszero\n      tag_51\n      jumpi\n      0x20\n      mul\n      dup3\n      add\n      swap2\n      swap1\n      0x00\n      mstore\n      keccak256(0x00, 0x20)\n      swap1\n    tag_52:\n      dup2\n      sload\n      dup2\n      mstore\n      0x20\n      add\n      swap1\n      0x01\n      add\n      swap1\n      dup1\n      dup4\n      gt\n      tag_52\n      jumpi\n    tag_51:\n      pop\n      pop\n      pop\n      pop\n      pop\n      swap1\n      pop\n      swap2\n      pop\n      swap2\n      pop\n        /* \"array.sol\":744:977  function remove(uint index) public returns (uint,uint[] memory){... */\n      swap2\n      pop\n      swap2\n      jump\t// out\n        /* \"array.sol\":425:507  function edit(uint index,uint value) public {... */\n    tag_18:\n        /* \"array.sol\":494:499  value */\n      dup1\n        /* \"array.sol\":480:484  arr1 */\n      0x00\n        /* \"array.sol\":485:490  index */\n      dup4\n        /* \"array.sol\":480:491  arr1[index] */\n      dup2\n      sload\n      dup2\n      lt\n      tag_54\n      jumpi\n      tag_55\n      tag_34\n      jump\t// in\n    tag_55:\n    tag_54:\n      swap1\n      0x00\n      mstore\n      keccak256(0x00, 0x20)\n      add\n        /* \"array.sol\":480:499  arr1[index] = value */\n      dup2\n      swap1\n      sstore\n      pop\n        /* \"array.sol\":425:507  function edit(uint index,uint value) public {... */\n      pop\n      pop\n      jump\t// out\n        /* \"array.sol\":338:417  function deleteElement(uint index) public {... */\n    tag_21:\n        /* \"array.sol\":398:402  arr1 */\n      0x00\n        /* \"array.sol\":403:408  index */\n      dup2\n        /* \"array.sol\":398:409  arr1[index] */\n      dup2\n      sload\n      dup2\n      lt\n      tag_58\n      jumpi\n      tag_59\n      tag_34\n      jump\t// in\n    tag_59:\n    tag_58:\n      swap1\n      0x00\n      mstore\n      keccak256(0x00, 0x20)\n      add\n        /* \"array.sol\":391:409  delete arr1[index] */\n      0x00\n      swap1\n      sstore\n        /* \"array.sol\":338:417  function deleteElement(uint index) public {... */\n      pop\n      jump\t// out\n        /* \"array.sol\":153:213  function push(uint n) public {... */\n    tag_24:\n        /* \"array.sol\":193:197  arr1 */\n      0x00\n        /* \"array.sol\":203:204  n */\n      dup2\n        /* \"array.sol\":193:205  arr1.push(n) */\n      swap1\n      dup1\n      0x01\n      dup2\n      sload\n      add\n      dup1\n      dup3\n      sstore\n      dup1\n      swap2\n      pop\n      pop\n      0x01\n      swap1\n      sub\n      swap1\n      0x00\n      mstore\n      keccak256(0x00, 0x20)\n      add\n      0x00\n      swap1\n      swap2\n      swap1\n      swap2\n      swap1\n      swap2\n      pop\n      sstore\n        /* \"array.sol\":153:213  function push(uint n) public {... */\n      pop\n      jump\t// out\n        /* \"array.sol\":515:599  function getArr1() public view returns (uint[] memory){... */\n    tag_26:\n        /* \"array.sol\":555:568  uint[] memory */\n      0x60\n        /* \"array.sol\":587:591  arr1 */\n      0x00\n        /* \"array.sol\":580:591  return arr1 */\n      dup1\n      sload\n      dup1\n      0x20\n      mul\n      0x20\n      add\n      mload(0x40)\n      swap1\n      dup2\n      add\n      0x40\n      mstore\n      dup1\n      swap3\n      swap2\n      swap1\n      dup2\n      dup2\n      mstore\n      0x20\n      add\n      dup3\n      dup1\n      sload\n      dup1\n      iszero\n      tag_64\n      jumpi\n      0x20\n      mul\n      dup3\n      add\n      swap2\n      swap1\n      0x00\n      mstore\n      keccak256(0x00, 0x20)\n      swap1\n    tag_65:\n      dup2\n      sload\n      dup2\n      mstore\n      0x20\n      add\n      swap1\n      0x01\n      add\n      swap1\n      dup1\n      dup4\n      gt\n      tag_65\n      jumpi\n    tag_64:\n      pop\n      pop\n      pop\n      pop\n      pop\n      swap1\n      pop\n        /* \"array.sol\":515:599  function getArr1() public view returns (uint[] memory){... */\n      swap1\n      jump\t// out\n        /* \"array.sol\":247:298  function pop() public {... */\n    tag_30:\n        /* \"array.sol\":280:284  arr1 */\n      0x00\n        /* \"array.sol\":280:290  arr1.pop() */\n      dup1\n      sload\n      dup1\n      tag_67\n      jumpi\n      tag_68\n      tag_69\n      jump\t// in\n    tag_68:\n    tag_67:\n      0x01\n      swap1\n      sub\n      dup2\n      dup2\n      swap1\n      0x00\n      mstore\n      keccak256(0x00, 0x20)\n      add\n      0x00\n      swap1\n      sstore\n      swap1\n      sstore\n        /* \"array.sol\":247:298  function pop() public {... */\n      jump\t// out\n        /* \"#utility.yul\":88:205   */\n    tag_72:\n        /* \"#utility.yul\":197:198   */\n      0x00\n        /* \"#utility.yul\":194:195   */\n      dup1\n        /* \"#utility.yul\":187:199   */\n      revert\n        /* \"#utility.yul\":334:411   */\n    tag_74:\n        /* \"#utility.yul\":371:378   */\n      0x00\n        /* \"#utility.yul\":400:405   */\n      dup2\n        /* \"#utility.yul\":389:405   */\n      swap1\n      pop\n        /* \"#utility.yul\":334:411   */\n      swap2\n      swap1\n      pop\n      jump\t// out\n        /* \"#utility.yul\":417:539   */\n    tag_75:\n        /* \"#utility.yul\":490:514   */\n      tag_92\n        /* \"#utility.yul\":508:513   */\n      dup2\n        /* \"#utility.yul\":490:514   */\n      tag_74\n      jump\t// in\n    tag_92:\n        /* \"#utility.yul\":483:488   */\n      dup2\n        /* \"#utility.yul\":480:515   */\n      eq\n        /* \"#utility.yul\":470:533   */\n      tag_93\n      jumpi\n        /* \"#utility.yul\":529:530   */\n      0x00\n        /* \"#utility.yul\":526:527   */\n      dup1\n        /* \"#utility.yul\":519:531   */\n      revert\n        /* \"#utility.yul\":470:533   */\n    tag_93:\n        /* \"#utility.yul\":417:539   */\n      pop\n      jump\t// out\n        /* \"#utility.yul\":545:684   */\n    tag_76:\n        /* \"#utility.yul\":591:596   */\n      0x00\n        /* \"#utility.yul\":629:635   */\n      dup2\n        /* \"#utility.yul\":616:636   */\n      calldataload\n        /* \"#utility.yul\":607:636   */\n      swap1\n      pop\n        /* \"#utility.yul\":645:678   */\n      tag_95\n        /* \"#utility.yul\":672:677   */\n      dup2\n        /* \"#utility.yul\":645:678   */\n      tag_75\n      jump\t// in\n    tag_95:\n        /* \"#utility.yul\":545:684   */\n      swap3\n      swap2\n      pop\n      pop\n      jump\t// out\n        /* \"#utility.yul\":690:1019   */\n    tag_11:\n        /* \"#utility.yul\":749:755   */\n      0x00\n        /* \"#utility.yul\":798:800   */\n      0x20\n        /* \"#utility.yul\":786:795   */\n      dup3\n        /* \"#utility.yul\":777:784   */\n      dup5\n        /* \"#utility.yul\":773:796   */\n      sub\n        /* \"#utility.yul\":769:801   */\n      slt\n        /* \"#utility.yul\":766:885   */\n      iszero\n      tag_97\n      jumpi\n        /* \"#utility.yul\":804:883   */\n      tag_98\n      tag_72\n      jump\t// in\n    tag_98:\n        /* \"#utility.yul\":766:885   */\n    tag_97:\n        /* \"#utility.yul\":924:925   */\n      0x00\n        /* \"#utility.yul\":949:1002   */\n      tag_99\n        /* \"#utility.yul\":994:1001   */\n      dup5\n        /* \"#utility.yul\":985:991   */\n      dup3\n        /* \"#utility.yul\":974:983   */\n      dup6\n        /* \"#utility.yul\":970:992   */\n      add\n        /* \"#utility.yul\":949:1002   */\n      tag_76\n      jump\t// in\n    tag_99:\n        /* \"#utility.yul\":939:1002   */\n      swap2\n      pop\n        /* \"#utility.yul\":895:1012   */\n      pop\n        /* \"#utility.yul\":690:1019   */\n      swap3\n      swap2\n      pop\n      pop\n      jump\t// out\n        /* \"#utility.yul\":1025:1143   */\n    tag_77:\n        /* \"#utility.yul\":1112:1136   */\n      tag_101\n        /* \"#utility.yul\":1130:1135   */\n      dup2\n        /* \"#utility.yul\":1112:1136   */\n      tag_74\n      jump\t// in\n    tag_101:\n        /* \"#utility.yul\":1107:1110   */\n      dup3\n        /* \"#utility.yul\":1100:1137   */\n      mstore\n        /* \"#utility.yul\":1025:1143   */\n      pop\n      pop\n      jump\t// out\n        /* \"#utility.yul\":1149:1263   */\n    tag_78:\n        /* \"#utility.yul\":1216:1222   */\n      0x00\n        /* \"#utility.yul\":1250:1255   */\n      dup2\n        /* \"#utility.yul\":1244:1256   */\n      mload\n        /* \"#utility.yul\":1234:1256   */\n      swap1\n      pop\n        /* \"#utility.yul\":1149:1263   */\n      swap2\n      swap1\n      pop\n      jump\t// out\n        /* \"#utility.yul\":1269:1453   */\n    tag_79:\n        /* \"#utility.yul\":1368:1379   */\n      0x00\n        /* \"#utility.yul\":1402:1408   */\n      dup3\n        /* \"#utility.yul\":1397:1400   */\n      dup3\n        /* \"#utility.yul\":1390:1409   */\n      mstore\n        /* \"#utility.yul\":1442:1446   */\n      0x20\n        /* \"#utility.yul\":1437:1440   */\n      dup3\n        /* \"#utility.yul\":1433:1447   */\n      add\n        /* \"#utility.yul\":1418:1447   */\n      swap1\n      pop\n        /* \"#utility.yul\":1269:1453   */\n      swap3\n      swap2\n      pop\n      pop\n      jump\t// out\n        /* \"#utility.yul\":1459:1591   */\n    tag_80:\n        /* \"#utility.yul\":1526:1530   */\n      0x00\n        /* \"#utility.yul\":1549:1552   */\n      dup2\n        /* \"#utility.yul\":1541:1552   */\n      swap1\n      pop\n        /* \"#utility.yul\":1579:1583   */\n      0x20\n        /* \"#utility.yul\":1574:1577   */\n      dup3\n        /* \"#utility.yul\":1570:1584   */\n      add\n        /* \"#utility.yul\":1562:1584   */\n      swap1\n      pop\n        /* \"#utility.yul\":1459:1591   */\n      swap2\n      swap1\n      pop\n      jump\t// out\n        /* \"#utility.yul\":1597:1705   */\n    tag_81:\n        /* \"#utility.yul\":1674:1698   */\n      tag_106\n        /* \"#utility.yul\":1692:1697   */\n      dup2\n        /* \"#utility.yul\":1674:1698   */\n      tag_74\n      jump\t// in\n    tag_106:\n        /* \"#utility.yul\":1669:1672   */\n      dup3\n        /* \"#utility.yul\":1662:1699   */\n      mstore\n        /* \"#utility.yul\":1597:1705   */\n      pop\n      pop\n      jump\t// out\n        /* \"#utility.yul\":1711:1890   */\n    tag_82:\n        /* \"#utility.yul\":1780:1790   */\n      0x00\n        /* \"#utility.yul\":1801:1847   */\n      tag_108\n        /* \"#utility.yul\":1843:1846   */\n      dup4\n        /* \"#utility.yul\":1835:1841   */\n      dup4\n        /* \"#utility.yul\":1801:1847   */\n      tag_81\n      jump\t// in\n    tag_108:\n        /* \"#utility.yul\":1879:1883   */\n      0x20\n        /* \"#utility.yul\":1874:1877   */\n      dup4\n        /* \"#utility.yul\":1870:1884   */\n      add\n        /* \"#utility.yul\":1856:1884   */\n      swap1\n      pop\n        /* \"#utility.yul\":1711:1890   */\n      swap3\n      swap2\n      pop\n      pop\n      jump\t// out\n        /* \"#utility.yul\":1896:2009   */\n    tag_83:\n        /* \"#utility.yul\":1966:1970   */\n      0x00\n        /* \"#utility.yul\":1998:2002   */\n      0x20\n        /* \"#utility.yul\":1993:1996   */\n      dup3\n        /* \"#utility.yul\":1989:2003   */\n      add\n        /* \"#utility.yul\":1981:2003   */\n      swap1\n      pop\n        /* \"#utility.yul\":1896:2009   */\n      swap2\n      swap1\n      pop\n      jump\t// out\n        /* \"#utility.yul\":2045:2777   */\n    tag_84:\n        /* \"#utility.yul\":2164:2167   */\n      0x00\n        /* \"#utility.yul\":2193:2247   */\n      tag_111\n        /* \"#utility.yul\":2241:2246   */\n      dup3\n        /* \"#utility.yul\":2193:2247   */\n      tag_78\n      jump\t// in\n    tag_111:\n        /* \"#utility.yul\":2263:2349   */\n      tag_112\n        /* \"#utility.yul\":2342:2348   */\n      dup2\n        /* \"#utility.yul\":2337:2340   */\n      dup6\n        /* \"#utility.yul\":2263:2349   */\n      tag_79\n      jump\t// in\n    tag_112:\n        /* \"#utility.yul\":2256:2349   */\n      swap4\n      pop\n        /* \"#utility.yul\":2373:2429   */\n      tag_113\n        /* \"#utility.yul\":2423:2428   */\n      dup4\n        /* \"#utility.yul\":2373:2429   */\n      tag_80\n      jump\t// in\n    tag_113:\n        /* \"#utility.yul\":2452:2459   */\n      dup1\n        /* \"#utility.yul\":2483:2484   */\n      0x00\n        /* \"#utility.yul\":2468:2752   */\n    tag_114:\n        /* \"#utility.yul\":2493:2499   */\n      dup4\n        /* \"#utility.yul\":2490:2491   */\n      dup2\n        /* \"#utility.yul\":2487:2500   */\n      lt\n        /* \"#utility.yul\":2468:2752   */\n      iszero\n      tag_116\n      jumpi\n        /* \"#utility.yul\":2569:2575   */\n      dup2\n        /* \"#utility.yul\":2563:2576   */\n      mload\n        /* \"#utility.yul\":2596:2659   */\n      tag_117\n        /* \"#utility.yul\":2655:2658   */\n      dup9\n        /* \"#utility.yul\":2640:2653   */\n      dup3\n        /* \"#utility.yul\":2596:2659   */\n      tag_82\n      jump\t// in\n    tag_117:\n        /* \"#utility.yul\":2589:2659   */\n      swap8\n      pop\n        /* \"#utility.yul\":2682:2742   */\n      tag_118\n        /* \"#utility.yul\":2735:2741   */\n      dup4\n        /* \"#utility.yul\":2682:2742   */\n      tag_83\n      jump\t// in\n    tag_118:\n        /* \"#utility.yul\":2672:2742   */\n      swap3\n      pop\n        /* \"#utility.yul\":2528:2752   */\n      pop\n        /* \"#utility.yul\":2515:2516   */\n      0x01\n        /* \"#utility.yul\":2512:2513   */\n      dup2\n        /* \"#utility.yul\":2508:2517   */\n      add\n        /* \"#utility.yul\":2503:2517   */\n      swap1\n      pop\n        /* \"#utility.yul\":2468:2752   */\n      jump(tag_114)\n    tag_116:\n        /* \"#utility.yul\":2472:2486   */\n      pop\n        /* \"#utility.yul\":2768:2771   */\n      dup6\n        /* \"#utility.yul\":2761:2771   */\n      swap4\n      pop\n        /* \"#utility.yul\":2169:2777   */\n      pop\n      pop\n      pop\n        /* \"#utility.yul\":2045:2777   */\n      swap3\n      swap2\n      pop\n      pop\n      jump\t// out\n        /* \"#utility.yul\":2783:3266   */\n    tag_14:\n        /* \"#utility.yul\":2954:2958   */\n      0x00\n        /* \"#utility.yul\":2992:2994   */\n      0x40\n        /* \"#utility.yul\":2981:2990   */\n      dup3\n        /* \"#utility.yul\":2977:2995   */\n      add\n        /* \"#utility.yul\":2969:2995   */\n      swap1\n      pop\n        /* \"#utility.yul\":3005:3076   */\n      tag_120\n        /* \"#utility.yul\":3073:3074   */\n      0x00\n        /* \"#utility.yul\":3062:3071   */\n      dup4\n        /* \"#utility.yul\":3058:3075   */\n      add\n        /* \"#utility.yul\":3049:3055   */\n      dup6\n        /* \"#utility.yul\":3005:3076   */\n      tag_77\n      jump\t// in\n    tag_120:\n        /* \"#utility.yul\":3123:3132   */\n      dup2\n        /* \"#utility.yul\":3117:3121   */\n      dup2\n        /* \"#utility.yul\":3113:3133   */\n      sub\n        /* \"#utility.yul\":3108:3110   */\n      0x20\n        /* \"#utility.yul\":3097:3106   */\n      dup4\n        /* \"#utility.yul\":3093:3111   */\n      add\n        /* \"#utility.yul\":3086:3134   */\n      mstore\n        /* \"#utility.yul\":3151:3259   */\n      tag_121\n        /* \"#utility.yul\":3254:3258   */\n      dup2\n        /* \"#utility.yul\":3245:3251   */\n      dup5\n        /* \"#utility.yul\":3151:3259   */\n      tag_84\n      jump\t// in\n    tag_121:\n        /* \"#utility.yul\":3143:3259   */\n      swap1\n      pop\n        /* \"#utility.yul\":2783:3266   */\n      swap4\n      swap3\n      pop\n      pop\n      pop\n      jump\t// out\n        /* \"#utility.yul\":3272:3746   */\n    tag_17:\n        /* \"#utility.yul\":3340:3346   */\n      0x00\n        /* \"#utility.yul\":3348:3354   */\n      dup1\n        /* \"#utility.yul\":3397:3399   */\n      0x40\n        /* \"#utility.yul\":3385:3394   */\n      dup4\n        /* \"#utility.yul\":3376:3383   */\n      dup6\n        /* \"#utility.yul\":3372:3395   */\n      sub\n        /* \"#utility.yul\":3368:3400   */\n      slt\n        /* \"#utility.yul\":3365:3484   */\n      iszero\n      tag_123\n      jumpi\n        /* \"#utility.yul\":3403:3482   */\n      tag_124\n      tag_72\n      jump\t// in\n    tag_124:\n        /* \"#utility.yul\":3365:3484   */\n    tag_123:\n        /* \"#utility.yul\":3523:3524   */\n      0x00\n        /* \"#utility.yul\":3548:3601   */\n      tag_125\n        /* \"#utility.yul\":3593:3600   */\n      dup6\n        /* \"#utility.yul\":3584:3590   */\n      dup3\n        /* \"#utility.yul\":3573:3582   */\n      dup7\n        /* \"#utility.yul\":3569:3591   */\n      add\n        /* \"#utility.yul\":3548:3601   */\n      tag_76\n      jump\t// in\n    tag_125:\n        /* \"#utility.yul\":3538:3601   */\n      swap3\n      pop\n        /* \"#utility.yul\":3494:3611   */\n      pop\n        /* \"#utility.yul\":3650:3652   */\n      0x20\n        /* \"#utility.yul\":3676:3729   */\n      tag_126\n        /* \"#utility.yul\":3721:3728   */\n      dup6\n        /* \"#utility.yul\":3712:3718   */\n      dup3\n        /* \"#utility.yul\":3701:3710   */\n      dup7\n        /* \"#utility.yul\":3697:3719   */\n      add\n        /* \"#utility.yul\":3676:3729   */\n      tag_76\n      jump\t// in\n    tag_126:\n        /* \"#utility.yul\":3666:3729   */\n      swap2\n      pop\n        /* \"#utility.yul\":3621:3739   */\n      pop\n        /* \"#utility.yul\":3272:3746   */\n      swap3\n      pop\n      swap3\n      swap1\n      pop\n      jump\t// out\n        /* \"#utility.yul\":3752:4125   */\n    tag_28:\n        /* \"#utility.yul\":3895:3899   */\n      0x00\n        /* \"#utility.yul\":3933:3935   */\n      0x20\n        /* \"#utility.yul\":3922:3931   */\n      dup3\n        /* \"#utility.yul\":3918:3936   */\n      add\n        /* \"#utility.yul\":3910:3936   */\n      swap1\n      pop\n        /* \"#utility.yul\":3982:3991   */\n      dup2\n        /* \"#utility.yul\":3976:3980   */\n      dup2\n        /* \"#utility.yul\":3972:3992   */\n      sub\n        /* \"#utility.yul\":3968:3969   */\n      0x00\n        /* \"#utility.yul\":3957:3966   */\n      dup4\n        /* \"#utility.yul\":3953:3970   */\n      add\n        /* \"#utility.yul\":3946:3993   */\n      mstore\n        /* \"#utility.yul\":4010:4118   */\n      tag_128\n        /* \"#utility.yul\":4113:4117   */\n      dup2\n        /* \"#utility.yul\":4104:4110   */\n      dup5\n        /* \"#utility.yul\":4010:4118   */\n      tag_84\n      jump\t// in\n    tag_128:\n        /* \"#utility.yul\":4002:4118   */\n      swap1\n      pop\n        /* \"#utility.yul\":3752:4125   */\n      swap3\n      swap2\n      pop\n      pop\n      jump\t// out\n        /* \"#utility.yul\":4131:4311   */\n    tag_34:\n        /* \"#utility.yul\":4179:4256   */\n      0x4e487b7100000000000000000000000000000000000000000000000000000000\n        /* \"#utility.yul\":4176:4177   */\n      0x00\n        /* \"#utility.yul\":4169:4257   */\n      mstore\n        /* \"#utility.yul\":4276:4280   */\n      0x32\n        /* \"#utility.yul\":4273:4274   */\n      0x04\n        /* \"#utility.yul\":4266:4281   */\n      mstore\n        /* \"#utility.yul\":4300:4304   */\n      0x24\n        /* \"#utility.yul\":4297:4298   */\n      0x00\n        /* \"#utility.yul\":4290:4305   */\n      revert\n        /* \"#utility.yul\":4317:4497   */\n    tag_85:\n        /* \"#utility.yul\":4365:4442   */\n      0x4e487b7100000000000000000000000000000000000000000000000000000000\n        /* \"#utility.yul\":4362:4363   */\n      0x00\n        /* \"#utility.yul\":4355:4443   */\n      mstore\n        /* \"#utility.yul\":4462:4466   */\n      0x11\n        /* \"#utility.yul\":4459:4460   */\n      0x04\n        /* \"#utility.yul\":4452:4467   */\n      mstore\n        /* \"#utility.yul\":4486:4490   */\n      0x24\n        /* \"#utility.yul\":4483:4484   */\n      0x00\n        /* \"#utility.yul\":4476:4491   */\n      revert\n        /* \"#utility.yul\":4503:4694   */\n    tag_40:\n        /* \"#utility.yul\":4543:4547   */\n      0x00\n        /* \"#utility.yul\":4563:4583   */\n      tag_132\n        /* \"#utility.yul\":4581:4582   */\n      dup3\n        /* \"#utility.yul\":4563:4583   */\n      tag_74\n      jump\t// in\n    tag_132:\n        /* \"#utility.yul\":4558:4583   */\n      swap2\n      pop\n        /* \"#utility.yul\":4597:4617   */\n      tag_133\n        /* \"#utility.yul\":4615:4616   */\n      dup4\n        /* \"#utility.yul\":4597:4617   */\n      tag_74\n      jump\t// in\n    tag_133:\n        /* \"#utility.yul\":4592:4617   */\n      swap3\n      pop\n        /* \"#utility.yul\":4636:4637   */\n      dup3\n        /* \"#utility.yul\":4633:4634   */\n      dup3\n        /* \"#utility.yul\":4630:4638   */\n      lt\n        /* \"#utility.yul\":4627:4661   */\n      iszero\n      tag_134\n      jumpi\n        /* \"#utility.yul\":4641:4659   */\n      tag_135\n      tag_85\n      jump\t// in\n    tag_135:\n        /* \"#utility.yul\":4627:4661   */\n    tag_134:\n        /* \"#utility.yul\":4686:4687   */\n      dup3\n        /* \"#utility.yul\":4683:4684   */\n      dup3\n        /* \"#utility.yul\":4679:4688   */\n      sub\n        /* \"#utility.yul\":4671:4688   */\n      swap1\n      pop\n        /* \"#utility.yul\":4503:4694   */\n      swap3\n      swap2\n      pop\n      pop\n      jump\t// out\n        /* \"#utility.yul\":4700:5005   */\n    tag_42:\n        /* \"#utility.yul\":4740:4743   */\n      0x00\n        /* \"#utility.yul\":4759:4779   */\n      tag_137\n        /* \"#utility.yul\":4777:4778   */\n      dup3\n        /* \"#utility.yul\":4759:4779   */\n      tag_74\n      jump\t// in\n    tag_137:\n        /* \"#utility.yul\":4754:4779   */\n      swap2\n      pop\n        /* \"#utility.yul\":4793:4813   */\n      tag_138\n        /* \"#utility.yul\":4811:4812   */\n      dup4\n        /* \"#utility.yul\":4793:4813   */\n      tag_74\n      jump\t// in\n    tag_138:\n        /* \"#utility.yul\":4788:4813   */\n      swap3\n      pop\n        /* \"#utility.yul\":4947:4948   */\n      dup3\n        /* \"#utility.yul\":4879:4945   */\n      0xffffffffffffffffffffffffffffffffffffffffffffffffffffffffffffffff\n        /* \"#utility.yul\":4875:4949   */\n      sub\n        /* \"#utility.yul\":4872:4873   */\n      dup3\n        /* \"#utility.yul\":4869:4950   */\n      gt\n        /* \"#utility.yul\":4866:4973   */\n      iszero\n      tag_139\n      jumpi\n        /* \"#utility.yul\":4953:4971   */\n      tag_140\n      tag_85\n      jump\t// in\n    tag_140:\n        /* \"#utility.yul\":4866:4973   */\n    tag_139:\n        /* \"#utility.yul\":4997:4998   */\n      dup3\n        /* \"#utility.yul\":4994:4995   */\n      dup3\n        /* \"#utility.yul\":4990:4999   */\n      add\n        /* \"#utility.yul\":4983:4999   */\n      swap1\n      pop\n        /* \"#utility.yul\":4700:5005   */\n      swap3\n      swap2\n      pop\n      pop\n      jump\t// out\n        /* \"#utility.yul\":5011:5244   */\n    tag_50:\n        /* \"#utility.yul\":5050:5053   */\n      0x00\n        /* \"#utility.yul\":5073:5097   */\n      tag_142\n        /* \"#utility.yul\":5091:5096   */\n      dup3\n        /* \"#utility.yul\":5073:5097   */\n      tag_74\n      jump\t// in\n    tag_142:\n        /* \"#utility.yul\":5064:5097   */\n      swap2\n      pop\n        /* \"#utility.yul\":5119:5185   */\n      0xffffffffffffffffffffffffffffffffffffffffffffffffffffffffffffffff\n        /* \"#utility.yul\":5112:5117   */\n      dup3\n        /* \"#utility.yul\":5109:5186   */\n      sub\n        /* \"#utility.yul\":5106:5209   */\n      tag_143\n      jumpi\n        /* \"#utility.yul\":5189:5207   */\n      tag_144\n      tag_85\n      jump\t// in\n    tag_144:\n        /* \"#utility.yul\":5106:5209   */\n    tag_143:\n        /* \"#utility.yul\":5236:5237   */\n      0x01\n        /* \"#utility.yul\":5229:5234   */\n      dup3\n        /* \"#utility.yul\":5225:5238   */\n      add\n        /* \"#utility.yul\":5218:5238   */\n      swap1\n      pop\n        /* \"#utility.yul\":5011:5244   */\n      swap2\n      swap1\n      pop\n      jump\t// out\n        /* \"#utility.yul\":5250:5430   */\n    tag_69:\n        /* \"#utility.yul\":5298:5375   */\n      0x4e487b7100000000000000000000000000000000000000000000000000000000\n        /* \"#utility.yul\":5295:5296   */\n      0x00\n        /* \"#utility.yul\":5288:5376   */\n      mstore\n        /* \"#utility.yul\":5395:5399   */\n      0x31\n        /* \"#utility.yul\":5392:5393   */\n      0x04\n        /* \"#utility.yul\":5385:5400   */\n      mstore\n        /* \"#utility.yul\":5419:5423   */\n      0x24\n        /* \"#utility.yul\":5416:5417   */\n      0x00\n        /* \"#utility.yul\":5409:5424   */\n      revert\n\n    auxdata: 0xa2646970667358221220df18fed4e9d116341196700b726c90d3febbb793cc5b3c47ffecc59b18e787f564736f6c634300080f0033\n}\n",
				"bytecode": {
					"linkReferences": {},
					"object": "608060405234801561001057600080fd5b50610673806100206000396000f3fe608060405234801561001057600080fd5b50600436106100625760003560e01c80634cc822151461006757806353b619a314610098578063792de6f3146100b4578063959ac484146100d0578063a168614d146100ec578063a4ece52c1461010a575b600080fd5b610081600480360381019061007c9190610352565b610114565b60405161008f92919061044c565b60405180910390f35b6100b260048036038101906100ad919061047c565b61021d565b005b6100ce60048036038101906100c99190610352565b610244565b005b6100ea60048036038101906100e59190610352565b610269565b005b6100f4610295565b60405161010191906104bc565b60405180910390f35b6101126102ed565b005b600060606000838154811061012c5761012b6104de565b5b906000526020600020016000905560008390505b6001600080549050610152919061053c565b8110156101b95760006001826101689190610570565b81548110610179576101786104de565b5b906000526020600020015460008281548110610198576101976104de565b5b906000526020600020018190555080806101b1906105c6565b915050610140565b5060008054905060008080548060200260200160405190810160405280929190818152602001828054801561020d57602002820191906000526020600020905b8154815260200190600101908083116101f9575b5050505050905091509150915091565b8060008381548110610232576102316104de565b5b90600052602060002001819055505050565b60008181548110610258576102576104de565b5b906000526020600020016000905550565b600081908060018154018082558091505060019003906000526020600020016000909190919091505550565b606060008054806020026020016040519081016040528092919081815260200182805480156102e357602002820191906000526020600020905b8154815260200190600101908083116102cf575b5050505050905090565b60008054806102ff576102fe61060e565b5b60019003818190600052602060002001600090559055565b600080fd5b6000819050919050565b61032f8161031c565b811461033a57600080fd5b50565b60008135905061034c81610326565b92915050565b60006020828403121561036857610367610317565b5b60006103768482850161033d565b91505092915050565b6103888161031c565b82525050565b600081519050919050565b600082825260208201905092915050565b6000819050602082019050919050565b6103c38161031c565b82525050565b60006103d583836103ba565b60208301905092915050565b6000602082019050919050565b60006103f98261038e565b6104038185610399565b935061040e836103aa565b8060005b8381101561043f57815161042688826103c9565b9750610431836103e1565b925050600181019050610412565b5085935050505092915050565b6000604082019050610461600083018561037f565b818103602083015261047381846103ee565b90509392505050565b6000806040838503121561049357610492610317565b5b60006104a18582860161033d565b92505060206104b28582860161033d565b9150509250929050565b600060208201905081810360008301526104d681846103ee565b905092915050565b7f4e487b7100000000000000000000000000000000000000000000000000000000600052603260045260246000fd5b7f4e487b7100000000000000000000000000000000000000000000000000000000600052601160045260246000fd5b60006105478261031c565b91506105528361031c565b9250828210156105655761056461050d565b5b828203905092915050565b600061057b8261031c565b91506105868361031c565b9250827fffffffffffffffffffffffffffffffffffffffffffffffffffffffffffffffff038211156105bb576105ba61050d565b5b828201905092915050565b60006105d18261031c565b91507fffffffffffffffffffffffffffffffffffffffffffffffffffffffffffffffff82036106035761060261050d565b5b600182019050919050565b7f4e487b7100000000000000000000000000000000000000000000000000000000600052603160045260246000fdfea2646970667358221220df18fed4e9d116341196700b726c90d3febbb793cc5b3c47ffecc59b18e787f564736f6c634300080f0033",
					"opcodes": "PUSH1 0x80 PUSH1 0x40 MSTORE CALLVALUE DUP1 ISZERO PUSH2 0x10 JUMPI PUSH1 0x0 DUP1 REVERT JUMPDEST POP PUSH2 0x673 DUP1 PUSH2 0x20 PUSH1 0x0 CODECOPY PUSH1 0x0 RETURN INVALID PUSH1 0x80 PUSH1 0x40 MSTORE CALLVALUE DUP1 ISZERO PUSH2 0x10 JUMPI PUSH1 0x0 DUP1 REVERT JUMPDEST POP PUSH1 0x4 CALLDATASIZE LT PUSH2 0x62 JUMPI PUSH1 0x0 CALLDATALOAD PUSH1 0xE0 SHR DUP1 PUSH4 0x4CC82215 EQ PUSH2 0x67 JUMPI DUP1 PUSH4 0x53B619A3 EQ PUSH2 0x98 JUMPI DUP1 PUSH4 0x792DE6F3 EQ PUSH2 0xB4 JUMPI DUP1 PUSH4 0x959AC484 EQ PUSH2 0xD0 JUMPI DUP1 PUSH4 0xA168614D EQ PUSH2 0xEC JUMPI DUP1 PUSH4 0xA4ECE52C EQ PUSH2 0x10A JUMPI JUMPDEST PUSH1 0x0 DUP1 REVERT JUMPDEST PUSH2 0x81 PUSH1 0x4 DUP1 CALLDATASIZE SUB DUP2 ADD SWAP1 PUSH2 0x7C SWAP2 SWAP1 PUSH2 0x352 JUMP JUMPDEST PUSH2 0x114 JUMP JUMPDEST PUSH1 0x40 MLOAD PUSH2 0x8F SWAP3 SWAP2 SWAP1 PUSH2 0x44C JUMP JUMPDEST PUSH1 0x40 MLOAD DUP1 SWAP2 SUB SWAP1 RETURN JUMPDEST PUSH2 0xB2 PUSH1 0x4 DUP1 CALLDATASIZE SUB DUP2 ADD SWAP1 PUSH2 0xAD SWAP2 SWAP1 PUSH2 0x47C JUMP JUMPDEST PUSH2 0x21D JUMP JUMPDEST STOP JUMPDEST PUSH2 0xCE PUSH1 0x4 DUP1 CALLDATASIZE SUB DUP2 ADD SWAP1 PUSH2 0xC9 SWAP2 SWAP1 PUSH2 0x352 JUMP JUMPDEST PUSH2 0x244 JUMP JUMPDEST STOP JUMPDEST PUSH2 0xEA PUSH1 0x4 DUP1 CALLDATASIZE SUB DUP2 ADD SWAP1 PUSH2 0xE5 SWAP2 SWAP1 PUSH2 0x352 JUMP JUMPDEST PUSH2 0x269 JUMP JUMPDEST STOP JUMPDEST PUSH2 0xF4 PUSH2 0x295 JUMP JUMPDEST PUSH1 0x40 MLOAD PUSH2 0x101 SWAP2 SWAP1 PUSH2 0x4BC JUMP JUMPDEST PUSH1 0x40 MLOAD DUP1 SWAP2 SUB SWAP1 RETURN JUMPDEST PUSH2 0x112 PUSH2 0x2ED JUMP JUMPDEST STOP JUMPDEST PUSH1 0x0 PUSH1 0x60 PUSH1 0x0 DUP4 DUP2 SLOAD DUP2 LT PUSH2 0x12C JUMPI PUSH2 0x12B PUSH2 0x4DE JUMP JUMPDEST JUMPDEST SWAP1 PUSH1 0x0 MSTORE PUSH1 0x20 PUSH1 0x0 KECCAK256 ADD PUSH1 0x0 SWAP1 SSTORE PUSH1 0x0 DUP4 SWAP1 POP JUMPDEST PUSH1 0x1 PUSH1 0x0 DUP1 SLOAD SWAP1 POP PUSH2 0x152 SWAP2 SWAP1 PUSH2 0x53C JUMP JUMPDEST DUP2 LT ISZERO PUSH2 0x1B9 JUMPI PUSH1 0x0 PUSH1 0x1 DUP3 PUSH2 0x168 SWAP2 SWAP1 PUSH2 0x570 JUMP JUMPDEST DUP2 SLOAD DUP2 LT PUSH2 0x179 JUMPI PUSH2 0x178 PUSH2 0x4DE JUMP JUMPDEST JUMPDEST SWAP1 PUSH1 0x0 MSTORE PUSH1 0x20 PUSH1 0x0 KECCAK256 ADD SLOAD PUSH1 0x0 DUP3 DUP2 SLOAD DUP2 LT PUSH2 0x198 JUMPI PUSH2 0x197 PUSH2 0x4DE JUMP JUMPDEST JUMPDEST SWAP1 PUSH1 0x0 MSTORE PUSH1 0x20 PUSH1 0x0 KECCAK256 ADD DUP2 SWAP1 SSTORE POP DUP1 DUP1 PUSH2 0x1B1 SWAP1 PUSH2 0x5C6 JUMP JUMPDEST SWAP2 POP POP PUSH2 0x140 JUMP JUMPDEST POP PUSH1 0x0 DUP1 SLOAD SWAP1 POP PUSH1 0x0 DUP1 DUP1 SLOAD DUP1 PUSH1 0x20 MUL PUSH1 0x20 ADD PUSH1 0x40 MLOAD SWAP1 DUP2 ADD PUSH1 0x40 MSTORE DUP1 SWAP3 SWAP2 SWAP1 DUP2 DUP2 MSTORE PUSH1 0x20 ADD DUP3 DUP1 SLOAD DUP1 ISZERO PUSH2 0x20D JUMPI PUSH1 0x20 MUL DUP3 ADD SWAP2 SWAP1 PUSH1 0x0 MSTORE PUSH1 0x20 PUSH1 0x0 KECCAK256 SWAP1 JUMPDEST DUP2 SLOAD DUP2 MSTORE PUSH1 0x20 ADD SWAP1 PUSH1 0x1 ADD SWAP1 DUP1 DUP4 GT PUSH2 0x1F9 JUMPI JUMPDEST POP POP POP POP POP SWAP1 POP SWAP2 POP SWAP2 POP SWAP2 POP SWAP2 JUMP JUMPDEST DUP1 PUSH1 0x0 DUP4 DUP2 SLOAD DUP2 LT PUSH2 0x232 JUMPI PUSH2 0x231 PUSH2 0x4DE JUMP JUMPDEST JUMPDEST SWAP1 PUSH1 0x0 MSTORE PUSH1 0x20 PUSH1 0x0 KECCAK256 ADD DUP2 SWAP1 SSTORE POP POP POP JUMP JUMPDEST PUSH1 0x0 DUP2 DUP2 SLOAD DUP2 LT PUSH2 0x258 JUMPI PUSH2 0x257 PUSH2 0x4DE JUMP JUMPDEST JUMPDEST SWAP1 PUSH1 0x0 MSTORE PUSH1 0x20 PUSH1 0x0 KECCAK256 ADD PUSH1 0x0 SWAP1 SSTORE POP JUMP JUMPDEST PUSH1 0x0 DUP2 SWAP1 DUP1 PUSH1 0x1 DUP2 SLOAD ADD DUP1 DUP3 SSTORE DUP1 SWAP2 POP POP PUSH1 0x1 SWAP1 SUB SWAP1 PUSH1 0x0 MSTORE PUSH1 0x20 PUSH1 0x0 KECCAK256 ADD PUSH1 0x0 SWAP1 SWAP2 SWAP1 SWAP2 SWAP1 SWAP2 POP SSTORE POP JUMP JUMPDEST PUSH1 0x60 PUSH1 0x0 DUP1 SLOAD DUP1 PUSH1 0x20 MUL PUSH1 0x20 ADD PUSH1 0x40 MLOAD SWAP1 DUP2 ADD PUSH1 0x40 MSTORE DUP1 SWAP3 SWAP2 SWAP1 DUP2 DUP2 MSTORE PUSH1 0x20 ADD DUP3 DUP1 SLOAD DUP1 ISZERO PUSH2 0x2E3 JUMPI PUSH1 0x20 MUL DUP3 ADD SWAP2 SWAP1 PUSH1 0x0 MSTORE PUSH1 0x20 PUSH1 0x0 KECCAK256 SWAP1 JUMPDEST DUP2 SLOAD DUP2 MSTORE PUSH1 0x20 ADD SWAP1 PUSH1 0x1 ADD SWAP1 DUP1 DUP4 GT PUSH2 0x2CF JUMPI JUMPDEST POP POP POP POP POP SWAP1 POP SWAP1 JUMP JUMPDEST PUSH1 0x0 DUP1 SLOAD DUP1 PUSH2 0x2FF JUMPI PUSH2 0x2FE PUSH2 0x60E JUMP JUMPDEST JUMPDEST PUSH1 0x1 SWAP1 SUB DUP2 DUP2 SWAP1 PUSH1 0x0 MSTORE PUSH1 0x20 PUSH1 0x0 KECCAK256 ADD PUSH1 0x0 SWAP1 SSTORE SWAP1 SSTORE JUMP JUMPDEST PUSH1 0x0 DUP1 REVERT JUMPDEST PUSH1 0x0 DUP2 SWAP1 POP SWAP2 SWAP1 POP JUMP JUMPDEST PUSH2 0x32F DUP2 PUSH2 0x31C JUMP JUMPDEST DUP2 EQ PUSH2 0x33A JUMPI PUSH1 0x0 DUP1 REVERT JUMPDEST POP JUMP JUMPDEST PUSH1 0x0 DUP2 CALLDATALOAD SWAP1 POP PUSH2 0x34C DUP2 PUSH2 0x326 JUMP JUMPDEST SWAP3 SWAP2 POP POP JUMP JUMPDEST PUSH1 0x0 PUSH1 0x20 DUP3 DUP5 SUB SLT ISZERO PUSH2 0x368 JUMPI PUSH2 0x367 PUSH2 0x317 JUMP JUMPDEST JUMPDEST PUSH1 0x0 PUSH2 0x376 DUP5 DUP3 DUP6 ADD PUSH2 0x33D JUMP JUMPDEST SWAP2 POP POP SWAP3 SWAP2 POP POP JUMP JUMPDEST PUSH2 0x388 DUP2 PUSH2 0x31C JUMP JUMPDEST DUP3 MSTORE POP POP JUMP JUMPDEST PUSH1 0x0 DUP2 MLOAD SWAP1 POP SWAP2 SWAP1 POP JUMP JUMPDEST PUSH1 0x0 DUP3 DUP3 MSTORE PUSH1 0x20 DUP3 ADD SWAP1 POP SWAP3 SWAP2 POP POP JUMP JUMPDEST PUSH1 0x0 DUP2 SWAP1 POP PUSH1 0x20 DUP3 ADD SWAP1 POP SWAP2 SWAP1 POP JUMP JUMPDEST PUSH2 0x3C3 DUP2 PUSH2 0x31C JUMP JUMPDEST DUP3 MSTORE POP POP JUMP JUMPDEST PUSH1 0x0 PUSH2 0x3D5 DUP4 DUP4 PUSH2 0x3BA JUMP JUMPDEST PUSH1 0x20 DUP4 ADD SWAP1 POP SWAP3 SWAP2 POP POP JUMP JUMPDEST PUSH1 0x0 PUSH1 0x20 DUP3 ADD SWAP1 POP SWAP2 SWAP1 POP JUMP JUMPDEST PUSH1 0x0 PUSH2 0x3F9 DUP3 PUSH2 0x38E JUMP JUMPDEST PUSH2 0x403 DUP2 DUP6 PUSH2 0x399 JUMP JUMPDEST SWAP4 POP PUSH2 0x40E DUP4 PUSH2 0x3AA JUMP JUMPDEST DUP1 PUSH1 0x0 JUMPDEST DUP4 DUP2 LT ISZERO PUSH2 0x43F JUMPI DUP2 MLOAD PUSH2 0x426 DUP9 DUP3 PUSH2 0x3C9 JUMP JUMPDEST SWAP8 POP PUSH2 0x431 DUP4 PUSH2 0x3E1 JUMP JUMPDEST SWAP3 POP POP PUSH1 0x1 DUP2 ADD SWAP1 POP PUSH2 0x412 JUMP JUMPDEST POP DUP6 SWAP4 POP POP POP POP SWAP3 SWAP2 POP POP JUMP JUMPDEST PUSH1 0x0 PUSH1 0x40 DUP3 ADD SWAP1 POP PUSH2 0x461 PUSH1 0x0 DUP4 ADD DUP6 PUSH2 0x37F JUMP JUMPDEST DUP2 DUP2 SUB PUSH1 0x20 DUP4 ADD MSTORE PUSH2 0x473 DUP2 DUP5 PUSH2 0x3EE JUMP JUMPDEST SWAP1 POP SWAP4 SWAP3 POP POP POP JUMP JUMPDEST PUSH1 0x0 DUP1 PUSH1 0x40 DUP4 DUP6 SUB SLT ISZERO PUSH2 0x493 JUMPI PUSH2 0x492 PUSH2 0x317 JUMP JUMPDEST JUMPDEST PUSH1 0x0 PUSH2 0x4A1 DUP6 DUP3 DUP7 ADD PUSH2 0x33D JUMP JUMPDEST SWAP3 POP POP PUSH1 0x20 PUSH2 0x4B2 DUP6 DUP3 DUP7 ADD PUSH2 0x33D JUMP JUMPDEST SWAP2 POP POP SWAP3 POP SWAP3 SWAP1 POP JUMP JUMPDEST PUSH1 0x0 PUSH1 0x20 DUP3 ADD SWAP1 POP DUP2 DUP2 SUB PUSH1 0x0 DUP4 ADD MSTORE PUSH2 0x4D6 DUP2 DUP5 PUSH2 0x3EE JUMP JUMPDEST SWAP1 POP SWAP3 SWAP2 POP POP JUMP JUMPDEST PUSH32 0x4E487B7100000000000000000000000000000000000000000000000000000000 PUSH1 0x0 MSTORE PUSH1 0x32 PUSH1 0x4 MSTORE PUSH1 0x24 PUSH1 0x0 REVERT JUMPDEST PUSH32 0x4E487B7100000000000000000000000000000000000000000000000000000000 PUSH1 0x0 MSTORE PUSH1 0x11 PUSH1 0x4 MSTORE PUSH1 0x24 PUSH1 0x0 REVERT JUMPDEST PUSH1 0x0 PUSH2 0x547 DUP3 PUSH2 0x31C JUMP JUMPDEST SWAP2 POP PUSH2 0x552 DUP4 PUSH2 0x31C JUMP JUMPDEST SWAP3 POP DUP3 DUP3 LT ISZERO PUSH2 0x565 JUMPI PUSH2 0x564 PUSH2 0x50D JUMP JUMPDEST JUMPDEST DUP3 DUP3 SUB SWAP1 POP SWAP3 SWAP2 POP POP JUMP JUMPDEST PUSH1 0x0 PUSH2 0x57B DUP3 PUSH2 0x31C JUMP JUMPDEST SWAP2 POP PUSH2 0x586 DUP4 PUSH2 0x31C JUMP JUMPDEST SWAP3 POP DUP3 PUSH32 0xFFFFFFFFFFFFFFFFFFFFFFFFFFFFFFFFFFFFFFFFFFFFFFFFFFFFFFFFFFFFFFFF SUB DUP3 GT ISZERO PUSH2 0x5BB JUMPI PUSH2 0x5BA PUSH2 0x50D JUMP JUMPDEST JUMPDEST DUP3 DUP3 ADD SWAP1 POP SWAP3 SWAP2 POP POP JUMP JUMPDEST PUSH1 0x0 PUSH2 0x5D1 DUP3 PUSH2 0x31C JUMP JUMPDEST SWAP2 POP PUSH32 0xFFFFFFFFFFFFFFFFFFFFFFFFFFFFFFFFFFFFFFFFFFFFFFFFFFFFFFFFFFFFFFFF DUP3 SUB PUSH2 0x603 JUMPI PUSH2 0x602 PUSH2 0x50D JUMP JUMPDEST JUMPDEST PUSH1 0x1 DUP3 ADD SWAP1 POP SWAP2 SWAP1 POP JUMP JUMPDEST PUSH32 0x4E487B7100000000000000000000000000000000000000000000000000000000 PUSH1 0x0 MSTORE PUSH1 0x31 PUSH1 0x4 MSTORE PUSH1 0x24 PUSH1 0x0 REVERT INVALID LOG2 PUSH5 0x6970667358 0x22 SLT KECCAK256 0xDF XOR INVALID 0xD4 0xE9 0xD1 AND CALLVALUE GT SWAP7 PUSH17 0xB726C90D3FEBBB793CC5B3C47FFECC59B XOR 0xE7 DUP8 CREATE2 PUSH5 0x736F6C6343 STOP ADDMOD 0xF STOP CALLER "
				},
				"gasEstimates": {
					"creation": {
						"codeDepositCost": "330200",
						"executionCost": "368",
						"totalCost": "330568"
					},
					"external": {
						"deleteElement(uint256)": "7617",
						"edit(uint256,uint256)": "infinite",
						"getArr1()": "infinite",
						"pop()": "29533",
						"push(uint256)": "46873",
						"remove(uint256)": "infinite"
					}
				},
				"methodIdentifiers": {
					"deleteElement(uint256)": "792de6f3",
					"edit(uint256,uint256)": "53b619a3",
					"getArr1()": "a168614d",
					"pop()": "a4ece52c",
					"push(uint256)": "959ac484",
					"remove(uint256)": "4cc82215"
				}
			},
			"storageLayout": {
				"storage": [
					{
						"astId": 4,
						"contract": "array.sol:ArrayTest",
						"label": "arr1",
						"offset": 0,
						"slot": "0",
						"type": "t_array(t_uint256)dyn_storage"
					}
				],
				"types": {
					"t_array(t_uint256)dyn_storage": {
						"base": "t_uint256",
						"encoding": "dynamic_array",
						"label": "uint256[]",
						"numberOfBytes": "32"
					},
					"t_uint256": {
						"encoding": "inplace",
						"label": "uint256",
						"numberOfBytes": "32"
					}
				}
			},
			"userdoc": {
				"kind": "user",
				"methods": {},
				"version": 1
			}
		}
	}
}