{
	"function.sol": {
		"A": {
			"abi": [
				{
					"inputs": [],
					"name": "f4",
					"outputs": [],
					"stateMutability": "pure",
					"type": "function"
				}
			],
			"devdoc": {
				"kind": "dev",
				"methods": {},
				"version": 1
			},
			"evm": {
				"assembly": "    /* \"function.sol\":136:333  contract A {\r... */\n  mstore(0x40, 0x80)\n  callvalue\n  dup1\n  iszero\n  tag_1\n  jumpi\n  0x00\n  dup1\n  revert\ntag_1:\n  pop\n  dataSize(sub_0)\n  dup1\n  dataOffset(sub_0)\n  0x00\n  codecopy\n  0x00\n  return\nstop\n\nsub_0: assembly {\n        /* \"function.sol\":136:333  contract A {\r... */\n      mstore(0x40, 0x80)\n      callvalue\n      dup1\n      iszero\n      tag_1\n      jumpi\n      0x00\n      dup1\n      revert\n    tag_1:\n      pop\n      jumpi(tag_2, lt(calldatasize, 0x04))\n      shr(0xe0, calldataload(0x00))\n      dup1\n      0xc3f90202\n      eq\n      tag_3\n      jumpi\n    tag_2:\n      0x00\n      dup1\n      revert\n        /* \"function.sol\":281:330  function f4() public pure {\r... */\n    tag_3:\n      tag_4\n      tag_5\n      jump\t// in\n    tag_4:\n      stop\n    tag_5:\n        /* \"function.sol\":318:322  f3() */\n      tag_7\n        /* \"function.sol\":318:320  f3 */\n      tag_8\n        /* \"function.sol\":318:322  f3() */\n      jump\t// in\n    tag_7:\n      pop\n        /* \"function.sol\":281:330  function f4() public pure {\r... */\n      jump\t// out\n        /* \"function.sol\":154:273  function f3() internal pure returns (string memory) {\r... */\n    tag_8:\n        /* \"function.sol\":191:204  string memory */\n      0x60\n        /* \"function.sol\":217:235  string  memory str */\n      0x00\n        /* \"function.sol\":217:244  string  memory str = 'haha' */\n      mload(0x40)\n      dup1\n      0x40\n      add\n      0x40\n      mstore\n      dup1\n      0x04\n      dup2\n      mstore\n      0x20\n      add\n      0x6861686100000000000000000000000000000000000000000000000000000000\n      dup2\n      mstore\n      pop\n      swap1\n      pop\n        /* \"function.sol\":262:265  str */\n      dup1\n        /* \"function.sol\":255:265  return str */\n      swap2\n      pop\n      pop\n        /* \"function.sol\":154:273  function f3() internal pure returns (string memory) {\r... */\n      swap1\n      jump\t// out\n\n    auxdata: 0xa264697066735822122061abadec2a44731d76fb571a7f7ee60e02ce6467ef9964ef061f217aeb156b2764736f6c63430008070033\n}\n",
				"bytecode": {
					"linkReferences": {},
					"object": "6080604052348015600f57600080fd5b5060b78061001e6000396000f3fe6080604052348015600f57600080fd5b506004361060285760003560e01c8063c3f9020214602d575b600080fd5b60336035565b005b603b603e565b50565b606060006040518060400160405280600481526020017f68616861000000000000000000000000000000000000000000000000000000008152509050809150509056fea264697066735822122061abadec2a44731d76fb571a7f7ee60e02ce6467ef9964ef061f217aeb156b2764736f6c63430008070033",
					"opcodes": "PUSH1 0x80 PUSH1 0x40 MSTORE CALLVALUE DUP1 ISZERO PUSH1 0xF JUMPI PUSH1 0x0 DUP1 REVERT JUMPDEST POP PUSH1 0xB7 DUP1 PUSH2 0x1E PUSH1 0x0 CODECOPY PUSH1 0x0 RETURN INVALID PUSH1 0x80 PUSH1 0x40 MSTORE CALLVALUE DUP1 ISZERO PUSH1 0xF JUMPI PUSH1 0x0 DUP1 REVERT JUMPDEST POP PUSH1 0x4 CALLDATASIZE LT PUSH1 0x28 JUMPI PUSH1 0x0 CALLDATALOAD PUSH1 0xE0 SHR DUP1 PUSH4 0xC3F90202 EQ PUSH1 0x2D JUMPI JUMPDEST PUSH1 0x0 DUP1 REVERT JUMPDEST PUSH1 0x33 PUSH1 0x35 JUMP JUMPDEST STOP JUMPDEST PUSH1 0x3B PUSH1 0x3E JUMP JUMPDEST POP JUMP JUMPDEST PUSH1 0x60 PUSH1 0x0 PUSH1 0x40 MLOAD DUP1 PUSH1 0x40 ADD PUSH1 0x40 MSTORE DUP1 PUSH1 0x4 DUP2 MSTORE PUSH1 0x20 ADD PUSH32 0x6861686100000000000000000000000000000000000000000000000000000000 DUP2 MSTORE POP SWAP1 POP DUP1 SWAP2 POP POP SWAP1 JUMP INVALID LOG2 PUSH5 0x6970667358 0x22 SLT KECCAK256 PUSH2 0xABAD 0xEC 0x2A DIFFICULTY PUSH20 0x1D76FB571A7F7EE60E02CE6467EF9964EF061F21 PUSH27 0xEB156B2764736F6C63430008070033000000000000000000000000 "
				},
				"gasEstimates": {
					"creation": {
						"codeDepositCost": "36600",
						"executionCost": "87",
						"totalCost": "36687"
					},
					"external": {
						"f4()": "231"
					},
					"internal": {
						"f3()": "infinite"
					}
				},
				"methodIdentifiers": {
					"f4()": "c3f90202"
				}
			},
			"storageLayout": {
				"storage": [],
				"types": null
			},
			"userdoc": {
				"kind": "user",
				"methods": {},
				"version": 1
			}
		}
	}
}