{
	"bool.sol": {
		"BoolTest": {
			"abi": [
				{
					"inputs": [],
					"name": "getBool",
					"outputs": [
						{
							"internalType": "bool",
							"name": "",
							"type": "bool"
						}
					],
					"stateMutability": "view",
					"type": "function"
				},
				{
					"inputs": [],
					"name": "getVal",
					"outputs": [
						{
							"internalType": "bool",
							"name": "",
							"type": "bool"
						}
					],
					"stateMutability": "view",
					"type": "function"
				},
				{
					"inputs": [
						{
							"internalType": "bool",
							"name": "_b",
							"type": "bool"
						}
					],
					"name": "setBool",
					"outputs": [],
					"stateMutability": "nonpayable",
					"type": "function"
				}
			],
			"devdoc": {
				"kind": "dev",
				"methods": {},
				"version": 1
			},
			"evm": {
				"assembly": "    /* \"bool.sol\":71:378  contract BoolTest {\r... */\n  mstore(0x40, 0x80)\n    /* \"bool.sol\":120:122  10 */\n  0x0a\n    /* \"bool.sol\":109:122  int num1 = 10 */\n  0x01\n  sstore\n    /* \"bool.sol\":140:142  20 */\n  0x14\n    /* \"bool.sol\":129:142  int num2 = 20 */\n  0x02\n  sstore\n    /* \"bool.sol\":71:378  contract BoolTest {\r... */\n  callvalue\n  dup1\n  iszero\n  tag_1\n  jumpi\n  0x00\n  dup1\n  revert\ntag_1:\n  pop\n  dataSize(sub_0)\n  dup1\n  dataOffset(sub_0)\n  0x00\n  codecopy\n  0x00\n  return\nstop\n\nsub_0: assembly {\n        /* \"bool.sol\":71:378  contract BoolTest {\r... */\n      mstore(0x40, 0x80)\n      callvalue\n      dup1\n      iszero\n      tag_1\n      jumpi\n      0x00\n      dup1\n      revert\n    tag_1:\n      pop\n      jumpi(tag_2, lt(calldatasize, 0x04))\n      shr(0xe0, calldataload(0x00))\n      dup1\n      0x12a7b914\n      eq\n      tag_3\n      jumpi\n      dup1\n      0x1e26fd33\n      eq\n      tag_4\n      jumpi\n      dup1\n      0xe1cb0e52\n      eq\n      tag_5\n      jumpi\n    tag_2:\n      0x00\n      dup1\n      revert\n        /* \"bool.sol\":149:221  function getBool() public view returns (bool){\r... */\n    tag_3:\n      tag_6\n      tag_7\n      jump\t// in\n    tag_6:\n      mload(0x40)\n      tag_8\n      swap2\n      swap1\n      tag_9\n      jump\t// in\n    tag_8:\n      mload(0x40)\n      dup1\n      swap2\n      sub\n      swap1\n      return\n        /* \"bool.sol\":230:286  function setBool(bool _b)public{\r... */\n    tag_4:\n      tag_10\n      0x04\n      dup1\n      calldatasize\n      sub\n      dup2\n      add\n      swap1\n      tag_11\n      swap2\n      swap1\n      tag_12\n      jump\t// in\n    tag_11:\n      tag_13\n      jump\t// in\n    tag_10:\n      stop\n        /* \"bool.sol\":294:375  function getVal()public view returns (bool){\r... */\n    tag_5:\n      tag_14\n      tag_15\n      jump\t// in\n    tag_14:\n      mload(0x40)\n      tag_16\n      swap2\n      swap1\n      tag_9\n      jump\t// in\n    tag_16:\n      mload(0x40)\n      dup1\n      swap2\n      sub\n      swap1\n      return\n        /* \"bool.sol\":149:221  function getBool() public view returns (bool){\r... */\n    tag_7:\n        /* \"bool.sol\":189:193  bool */\n      0x00\n        /* \"bool.sol\":212:213  b */\n      dup1\n      0x00\n      swap1\n      sload\n      swap1\n      0x0100\n      exp\n      swap1\n      div\n      0xff\n      and\n        /* \"bool.sol\":205:213  return b */\n      swap1\n      pop\n        /* \"bool.sol\":149:221  function getBool() public view returns (bool){\r... */\n      swap1\n      jump\t// out\n        /* \"bool.sol\":230:286  function setBool(bool _b)public{\r... */\n    tag_13:\n        /* \"bool.sol\":276:278  _b */\n      dup1\n        /* \"bool.sol\":272:273  b */\n      0x00\n      dup1\n        /* \"bool.sol\":272:278  b = _b */\n      0x0100\n      exp\n      dup2\n      sload\n      dup2\n      0xff\n      mul\n      not\n      and\n      swap1\n      dup4\n      iszero\n      iszero\n      mul\n      or\n      swap1\n      sstore\n      pop\n        /* \"bool.sol\":230:286  function setBool(bool _b)public{\r... */\n      pop\n      jump\t// out\n        /* \"bool.sol\":294:375  function getVal()public view returns (bool){\r... */\n    tag_15:\n        /* \"bool.sol\":332:336  bool */\n      0x00\n        /* \"bool.sol\":363:367  num2 */\n      sload(0x02)\n        /* \"bool.sol\":356:360  num2 */\n      sload(0x02)\n        /* \"bool.sol\":356:367  num2 < num2 */\n      slt\n        /* \"bool.sol\":348:367  return  num2 < num2 */\n      swap1\n      pop\n        /* \"bool.sol\":294:375  function getVal()public view returns (bool){\r... */\n      swap1\n      jump\t// out\n        /* \"#utility.yul\":7:140   */\n    tag_21:\n        /* \"#utility.yul\":50:55   */\n      0x00\n        /* \"#utility.yul\":88:94   */\n      dup2\n        /* \"#utility.yul\":75:95   */\n      calldataload\n        /* \"#utility.yul\":66:95   */\n      swap1\n      pop\n        /* \"#utility.yul\":104:134   */\n      tag_23\n        /* \"#utility.yul\":128:133   */\n      dup2\n        /* \"#utility.yul\":104:134   */\n      tag_24\n      jump\t// in\n    tag_23:\n        /* \"#utility.yul\":7:140   */\n      swap3\n      swap2\n      pop\n      pop\n      jump\t// out\n        /* \"#utility.yul\":146:469   */\n    tag_12:\n        /* \"#utility.yul\":202:208   */\n      0x00\n        /* \"#utility.yul\":251:253   */\n      0x20\n        /* \"#utility.yul\":239:248   */\n      dup3\n        /* \"#utility.yul\":230:237   */\n      dup5\n        /* \"#utility.yul\":226:249   */\n      sub\n        /* \"#utility.yul\":222:254   */\n      slt\n        /* \"#utility.yul\":219:338   */\n      iszero\n      tag_26\n      jumpi\n        /* \"#utility.yul\":257:336   */\n      tag_27\n      tag_28\n      jump\t// in\n    tag_27:\n        /* \"#utility.yul\":219:338   */\n    tag_26:\n        /* \"#utility.yul\":377:378   */\n      0x00\n        /* \"#utility.yul\":402:452   */\n      tag_29\n        /* \"#utility.yul\":444:451   */\n      dup5\n        /* \"#utility.yul\":435:441   */\n      dup3\n        /* \"#utility.yul\":424:433   */\n      dup6\n        /* \"#utility.yul\":420:442   */\n      add\n        /* \"#utility.yul\":402:452   */\n      tag_21\n      jump\t// in\n    tag_29:\n        /* \"#utility.yul\":392:452   */\n      swap2\n      pop\n        /* \"#utility.yul\":348:462   */\n      pop\n        /* \"#utility.yul\":146:469   */\n      swap3\n      swap2\n      pop\n      pop\n      jump\t// out\n        /* \"#utility.yul\":475:584   */\n    tag_30:\n        /* \"#utility.yul\":556:577   */\n      tag_32\n        /* \"#utility.yul\":571:576   */\n      dup2\n        /* \"#utility.yul\":556:577   */\n      tag_33\n      jump\t// in\n    tag_32:\n        /* \"#utility.yul\":551:554   */\n      dup3\n        /* \"#utility.yul\":544:578   */\n      mstore\n        /* \"#utility.yul\":475:584   */\n      pop\n      pop\n      jump\t// out\n        /* \"#utility.yul\":590:800   */\n    tag_9:\n        /* \"#utility.yul\":677:681   */\n      0x00\n        /* \"#utility.yul\":715:717   */\n      0x20\n        /* \"#utility.yul\":704:713   */\n      dup3\n        /* \"#utility.yul\":700:718   */\n      add\n        /* \"#utility.yul\":692:718   */\n      swap1\n      pop\n        /* \"#utility.yul\":728:793   */\n      tag_35\n        /* \"#utility.yul\":790:791   */\n      0x00\n        /* \"#utility.yul\":779:788   */\n      dup4\n        /* \"#utility.yul\":775:792   */\n      add\n        /* \"#utility.yul\":766:772   */\n      dup5\n        /* \"#utility.yul\":728:793   */\n      tag_30\n      jump\t// in\n    tag_35:\n        /* \"#utility.yul\":590:800   */\n      swap3\n      swap2\n      pop\n      pop\n      jump\t// out\n        /* \"#utility.yul\":887:977   */\n    tag_33:\n        /* \"#utility.yul\":921:928   */\n      0x00\n        /* \"#utility.yul\":964:969   */\n      dup2\n        /* \"#utility.yul\":957:970   */\n      iszero\n        /* \"#utility.yul\":950:971   */\n      iszero\n        /* \"#utility.yul\":939:971   */\n      swap1\n      pop\n        /* \"#utility.yul\":887:977   */\n      swap2\n      swap1\n      pop\n      jump\t// out\n        /* \"#utility.yul\":1106:1223   */\n    tag_28:\n        /* \"#utility.yul\":1215:1216   */\n      0x00\n        /* \"#utility.yul\":1212:1213   */\n      dup1\n        /* \"#utility.yul\":1205:1217   */\n      revert\n        /* \"#utility.yul\":1229:1345   */\n    tag_24:\n        /* \"#utility.yul\":1299:1320   */\n      tag_43\n        /* \"#utility.yul\":1314:1319   */\n      dup2\n        /* \"#utility.yul\":1299:1320   */\n      tag_33\n      jump\t// in\n    tag_43:\n        /* \"#utility.yul\":1292:1297   */\n      dup2\n        /* \"#utility.yul\":1289:1321   */\n      eq\n        /* \"#utility.yul\":1279:1339   */\n      tag_44\n      jumpi\n        /* \"#utility.yul\":1335:1336   */\n      0x00\n        /* \"#utility.yul\":1332:1333   */\n      dup1\n        /* \"#utility.yul\":1325:1337   */\n      revert\n        /* \"#utility.yul\":1279:1339   */\n    tag_44:\n        /* \"#utility.yul\":1229:1345   */\n      pop\n      jump\t// out\n\n    auxdata: 0xa26469706673582212204fe821f49877b1c3f6b47b56323a05929899e15724bfb8f6bb0e13bfc24c889f64736f6c63430008070033\n}\n",
				"bytecode": {
					"linkReferences": {},
					"object": "6080604052600a600155601460025534801561001a57600080fd5b506101a88061002a6000396000f3fe608060405234801561001057600080fd5b50600436106100415760003560e01c806312a7b914146100465780631e26fd3314610064578063e1cb0e5214610080575b600080fd5b61004e61009e565b60405161005b919061012f565b60405180910390f35b61007e600480360381019061007991906100f3565b6100b4565b005b6100886100d0565b604051610095919061012f565b60405180910390f35b60008060009054906101000a900460ff16905090565b806000806101000a81548160ff02191690831515021790555050565b600060025460025412905090565b6000813590506100ed8161015b565b92915050565b60006020828403121561010957610108610156565b5b6000610117848285016100de565b91505092915050565b6101298161014a565b82525050565b60006020820190506101446000830184610120565b92915050565b60008115159050919050565b600080fd5b6101648161014a565b811461016f57600080fd5b5056fea26469706673582212204fe821f49877b1c3f6b47b56323a05929899e15724bfb8f6bb0e13bfc24c889f64736f6c63430008070033",
					"opcodes": "PUSH1 0x80 PUSH1 0x40 MSTORE PUSH1 0xA PUSH1 0x1 SSTORE PUSH1 0x14 PUSH1 0x2 SSTORE CALLVALUE DUP1 ISZERO PUSH2 0x1A JUMPI PUSH1 0x0 DUP1 REVERT JUMPDEST POP PUSH2 0x1A8 DUP1 PUSH2 0x2A PUSH1 0x0 CODECOPY PUSH1 0x0 RETURN INVALID PUSH1 0x80 PUSH1 0x40 MSTORE CALLVALUE DUP1 ISZERO PUSH2 0x10 JUMPI PUSH1 0x0 DUP1 REVERT JUMPDEST POP PUSH1 0x4 CALLDATASIZE LT PUSH2 0x41 JUMPI PUSH1 0x0 CALLDATALOAD PUSH1 0xE0 SHR DUP1 PUSH4 0x12A7B914 EQ PUSH2 0x46 JUMPI DUP1 PUSH4 0x1E26FD33 EQ PUSH2 0x64 JUMPI DUP1 PUSH4 0xE1CB0E52 EQ PUSH2 0x80 JUMPI JUMPDEST PUSH1 0x0 DUP1 REVERT JUMPDEST PUSH2 0x4E PUSH2 0x9E JUMP JUMPDEST PUSH1 0x40 MLOAD PUSH2 0x5B SWAP2 SWAP1 PUSH2 0x12F JUMP JUMPDEST PUSH1 0x40 MLOAD DUP1 SWAP2 SUB SWAP1 RETURN JUMPDEST PUSH2 0x7E PUSH1 0x4 DUP1 CALLDATASIZE SUB DUP2 ADD SWAP1 PUSH2 0x79 SWAP2 SWAP1 PUSH2 0xF3 JUMP JUMPDEST PUSH2 0xB4 JUMP JUMPDEST STOP JUMPDEST PUSH2 0x88 PUSH2 0xD0 JUMP JUMPDEST PUSH1 0x40 MLOAD PUSH2 0x95 SWAP2 SWAP1 PUSH2 0x12F JUMP JUMPDEST PUSH1 0x40 MLOAD DUP1 SWAP2 SUB SWAP1 RETURN JUMPDEST PUSH1 0x0 DUP1 PUSH1 0x0 SWAP1 SLOAD SWAP1 PUSH2 0x100 EXP SWAP1 DIV PUSH1 0xFF AND SWAP1 POP SWAP1 JUMP JUMPDEST DUP1 PUSH1 0x0 DUP1 PUSH2 0x100 EXP DUP2 SLOAD DUP2 PUSH1 0xFF MUL NOT AND SWAP1 DUP4 ISZERO ISZERO MUL OR SWAP1 SSTORE POP POP JUMP JUMPDEST PUSH1 0x0 PUSH1 0x2 SLOAD PUSH1 0x2 SLOAD SLT SWAP1 POP SWAP1 JUMP JUMPDEST PUSH1 0x0 DUP2 CALLDATALOAD SWAP1 POP PUSH2 0xED DUP2 PUSH2 0x15B JUMP JUMPDEST SWAP3 SWAP2 POP POP JUMP JUMPDEST PUSH1 0x0 PUSH1 0x20 DUP3 DUP5 SUB SLT ISZERO PUSH2 0x109 JUMPI PUSH2 0x108 PUSH2 0x156 JUMP JUMPDEST JUMPDEST PUSH1 0x0 PUSH2 0x117 DUP5 DUP3 DUP6 ADD PUSH2 0xDE JUMP JUMPDEST SWAP2 POP POP SWAP3 SWAP2 POP POP JUMP JUMPDEST PUSH2 0x129 DUP2 PUSH2 0x14A JUMP JUMPDEST DUP3 MSTORE POP POP JUMP JUMPDEST PUSH1 0x0 PUSH1 0x20 DUP3 ADD SWAP1 POP PUSH2 0x144 PUSH1 0x0 DUP4 ADD DUP5 PUSH2 0x120 JUMP JUMPDEST SWAP3 SWAP2 POP POP JUMP JUMPDEST PUSH1 0x0 DUP2 ISZERO ISZERO SWAP1 POP SWAP2 SWAP1 POP JUMP JUMPDEST PUSH1 0x0 DUP1 REVERT JUMPDEST PUSH2 0x164 DUP2 PUSH2 0x14A JUMP JUMPDEST DUP2 EQ PUSH2 0x16F JUMPI PUSH1 0x0 DUP1 REVERT JUMPDEST POP JUMP INVALID LOG2 PUSH5 0x6970667358 0x22 SLT KECCAK256 0x4F 0xE8 0x21 DELEGATECALL SWAP9 PUSH24 0xB1C3F6B47B56323A05929899E15724BFB8F6BB0E13BFC24C DUP9 SWAP16 PUSH5 0x736F6C6343 STOP ADDMOD SMOD STOP CALLER "
				},
				"gasEstimates": {
					"creation": {
						"codeDepositCost": "84800",
						"executionCost": "44347",
						"totalCost": "129147"
					},
					"external": {
						"getBool()": "2457",
						"getVal()": "4571",
						"setBool(bool)": "24679"
					}
				},
				"methodIdentifiers": {
					"getBool()": "12a7b914",
					"getVal()": "e1cb0e52",
					"setBool(bool)": "1e26fd33"
				}
			},
			"storageLayout": {
				"storage": [
					{
						"astId": 3,
						"contract": "bool.sol:BoolTest",
						"label": "b",
						"offset": 0,
						"slot": "0",
						"type": "t_bool"
					},
					{
						"astId": 6,
						"contract": "bool.sol:BoolTest",
						"label": "num1",
						"offset": 0,
						"slot": "1",
						"type": "t_int256"
					},
					{
						"astId": 9,
						"contract": "bool.sol:BoolTest",
						"label": "num2",
						"offset": 0,
						"slot": "2",
						"type": "t_int256"
					}
				],
				"types": {
					"t_bool": {
						"encoding": "inplace",
						"label": "bool",
						"numberOfBytes": "1"
					},
					"t_int256": {
						"encoding": "inplace",
						"label": "int256",
						"numberOfBytes": "32"
					}
				}
			},
			"userdoc": {
				"kind": "user",
				"methods": {},
				"version": 1
			}
		}
	}
}