{
	"array.sol": {
		"ArrayTest": {
			"abi": [
				{
					"inputs": [
						{
							"internalType": "uint256",
							"name": "index",
							"type": "uint256"
						}
					],
					"name": "deleteElement",
					"outputs": [],
					"stateMutability": "nonpayable",
					"type": "function"
				},
				{
					"inputs": [
						{
							"internalType": "uint256",
							"name": "index",
							"type": "uint256"
						},
						{
							"internalType": "uint256",
							"name": "value",
							"type": "uint256"
						}
					],
					"name": "edit",
					"outputs": [],
					"stateMutability": "nonpayable",
					"type": "function"
				},
				{
					"inputs": [],
					"name": "getArr1",
					"outputs": [
						{
							"internalType": "uint256",
							"name": "",
							"type": "uint256"
						},
						{
							"internalType": "uint256[]",
							"name": "",
							"type": "uint256[]"
						}
					],
					"stateMutability": "view",
					"type": "function"
				},
				{
					"inputs": [],
					"name": "pop",
					"outputs": [],
					"stateMutability": "nonpayable",
					"type": "function"
				},
				{
					"inputs": [
						{
							"internalType": "uint256",
							"name": "n",
							"type": "uint256"
						}
					],
					"name": "push",
					"outputs": [],
					"stateMutability": "nonpayable",
					"type": "function"
				},
				{
					"inputs": [
						{
							"internalType": "uint256",
							"name": "index",
							"type": "uint256"
						}
					],
					"name": "remove",
					"outputs": [],
					"stateMutability": "nonpayable",
					"type": "function"
				}
			],
			"devdoc": {
				"kind": "dev",
				"methods": {},
				"version": 1
			},
			"evm": {
				"assembly": "    /* \"array.sol\":77:954  contract ArrayTest {... */\n  mstore(0x40, 0x80)\n  callvalue\n  dup1\n  iszero\n  tag_1\n  jumpi\n  0x00\n  dup1\n  revert\ntag_1:\n  pop\n  dataSize(sub_0)\n  dup1\n  dataOffset(sub_0)\n  0x00\n  codecopy\n  0x00\n  return\nstop\n\nsub_0: assembly {\n        /* \"array.sol\":77:954  contract ArrayTest {... */\n      mstore(0x40, 0x80)\n      callvalue\n      dup1\n      iszero\n      tag_1\n      jumpi\n      0x00\n      dup1\n      revert\n    tag_1:\n      pop\n      jumpi(tag_2, lt(calldatasize, 0x04))\n      shr(0xe0, calldataload(0x00))\n      dup1\n      0x4cc82215\n      eq\n      tag_3\n      jumpi\n      dup1\n      0x53b619a3\n      eq\n      tag_4\n      jumpi\n      dup1\n      0x792de6f3\n      eq\n      tag_5\n      jumpi\n      dup1\n      0x959ac484\n      eq\n      tag_6\n      jumpi\n      dup1\n      0xa168614d\n      eq\n      tag_7\n      jumpi\n      dup1\n      0xa4ece52c\n      eq\n      tag_8\n      jumpi\n    tag_2:\n      0x00\n      dup1\n      revert\n        /* \"array.sol\":763:951  function remove(uint index) public {... */\n    tag_3:\n      tag_9\n      0x04\n      dup1\n      calldatasize\n      sub\n      dup2\n      add\n      swap1\n      tag_10\n      swap2\n      swap1\n      tag_11\n      jump\t// in\n    tag_10:\n      tag_12\n      jump\t// in\n    tag_9:\n      stop\n        /* \"array.sol\":425:507  function edit(uint index,uint value) public {... */\n    tag_4:\n      tag_13\n      0x04\n      dup1\n      calldatasize\n      sub\n      dup2\n      add\n      swap1\n      tag_14\n      swap2\n      swap1\n      tag_15\n      jump\t// in\n    tag_14:\n      tag_16\n      jump\t// in\n    tag_13:\n      stop\n        /* \"array.sol\":338:417  function deleteElement(uint index) public {... */\n    tag_5:\n      tag_17\n      0x04\n      dup1\n      calldatasize\n      sub\n      dup2\n      add\n      swap1\n      tag_18\n      swap2\n      swap1\n      tag_11\n      jump\t// in\n    tag_18:\n      tag_19\n      jump\t// in\n    tag_17:\n      stop\n        /* \"array.sol\":153:213  function push(uint n) public {... */\n    tag_6:\n      tag_20\n      0x04\n      dup1\n      calldatasize\n      sub\n      dup2\n      add\n      swap1\n      tag_21\n      swap2\n      swap1\n      tag_11\n      jump\t// in\n    tag_21:\n      tag_22\n      jump\t// in\n    tag_20:\n      stop\n        /* \"array.sol\":515:618  function getArr1() public view returns (uint,uint[] memory){... */\n    tag_7:\n      tag_23\n      tag_24\n      jump\t// in\n    tag_23:\n      mload(0x40)\n      tag_25\n      swap3\n      swap2\n      swap1\n      tag_26\n      jump\t// in\n    tag_25:\n      mload(0x40)\n      dup1\n      swap2\n      sub\n      swap1\n      return\n        /* \"array.sol\":247:298  function pop() public {... */\n    tag_8:\n      tag_27\n      tag_28\n      jump\t// in\n    tag_27:\n      stop\n        /* \"array.sol\":763:951  function remove(uint index) public {... */\n    tag_12:\n        /* \"array.sol\":816:820  arr1 */\n      0x00\n        /* \"array.sol\":821:826  index */\n      dup2\n        /* \"array.sol\":816:827  arr1[index] */\n      dup2\n      sload\n      dup2\n      lt\n      tag_30\n      jumpi\n      tag_31\n      tag_32\n      jump\t// in\n    tag_31:\n    tag_30:\n      swap1\n      0x00\n      mstore\n      keccak256(0x00, 0x20)\n      add\n        /* \"array.sol\":809:827  delete arr1[index] */\n      0x00\n      swap1\n      sstore\n        /* \"array.sol\":842:848  uint i */\n      0x00\n        /* \"array.sol\":851:856  index */\n      dup2\n        /* \"array.sol\":842:856  uint i = index */\n      swap1\n      pop\n        /* \"array.sol\":838:923  for(uint i = index;i<arr1.length-1;i++){... */\n    tag_34:\n        /* \"array.sol\":871:872  1 */\n      0x01\n        /* \"array.sol\":859:863  arr1 */\n      0x00\n        /* \"array.sol\":859:870  arr1.length */\n      dup1\n      sload\n      swap1\n      pop\n        /* \"array.sol\":859:872  arr1.length-1 */\n      tag_37\n      swap2\n      swap1\n      tag_38\n      jump\t// in\n    tag_37:\n        /* \"array.sol\":857:858  i */\n      dup2\n        /* \"array.sol\":857:872  i<arr1.length-1 */\n      lt\n        /* \"array.sol\":838:923  for(uint i = index;i<arr1.length-1;i++){... */\n      iszero\n      tag_35\n      jumpi\n        /* \"array.sol\":902:906  arr1 */\n      0x00\n        /* \"array.sol\":909:910  1 */\n      0x01\n        /* \"array.sol\":907:908  i */\n      dup3\n        /* \"array.sol\":907:910  i+1 */\n      tag_39\n      swap2\n      swap1\n      tag_40\n      jump\t// in\n    tag_39:\n        /* \"array.sol\":902:911  arr1[i+1] */\n      dup2\n      sload\n      dup2\n      lt\n      tag_41\n      jumpi\n      tag_42\n      tag_32\n      jump\t// in\n    tag_42:\n    tag_41:\n      swap1\n      0x00\n      mstore\n      keccak256(0x00, 0x20)\n      add\n      sload\n        /* \"array.sol\":892:896  arr1 */\n      0x00\n        /* \"array.sol\":897:898  i */\n      dup3\n        /* \"array.sol\":892:899  arr1[i] */\n      dup2\n      sload\n      dup2\n      lt\n      tag_44\n      jumpi\n      tag_45\n      tag_32\n      jump\t// in\n    tag_45:\n    tag_44:\n      swap1\n      0x00\n      mstore\n      keccak256(0x00, 0x20)\n      add\n        /* \"array.sol\":892:911  arr1[i] = arr1[i+1] */\n      dup2\n      swap1\n      sstore\n      pop\n        /* \"array.sol\":873:876  i++ */\n      dup1\n      dup1\n      tag_47\n      swap1\n      tag_48\n      jump\t// in\n    tag_47:\n      swap2\n      pop\n      pop\n        /* \"array.sol\":838:923  for(uint i = index;i<arr1.length-1;i++){... */\n      jump(tag_34)\n    tag_35:\n      pop\n        /* \"array.sol\":933:937  arr1 */\n      0x00\n        /* \"array.sol\":933:943  arr1.pop() */\n      dup1\n      sload\n      dup1\n      tag_49\n      jumpi\n      tag_50\n      tag_51\n      jump\t// in\n    tag_50:\n    tag_49:\n      0x01\n      swap1\n      sub\n      dup2\n      dup2\n      swap1\n      0x00\n      mstore\n      keccak256(0x00, 0x20)\n      add\n      0x00\n      swap1\n      sstore\n      swap1\n      sstore\n        /* \"array.sol\":763:951  function remove(uint index) public {... */\n      pop\n      jump\t// out\n        /* \"array.sol\":425:507  function edit(uint index,uint value) public {... */\n    tag_16:\n        /* \"array.sol\":494:499  value */\n      dup1\n        /* \"array.sol\":480:484  arr1 */\n      0x00\n        /* \"array.sol\":485:490  index */\n      dup4\n        /* \"array.sol\":480:491  arr1[index] */\n      dup2\n      sload\n      dup2\n      lt\n      tag_54\n      jumpi\n      tag_55\n      tag_32\n      jump\t// in\n    tag_55:\n    tag_54:\n      swap1\n      0x00\n      mstore\n      keccak256(0x00, 0x20)\n      add\n        /* \"array.sol\":480:499  arr1[index] = value */\n      dup2\n      swap1\n      sstore\n      pop\n        /* \"array.sol\":425:507  function edit(uint index,uint value) public {... */\n      pop\n      pop\n      jump\t// out\n        /* \"array.sol\":338:417  function deleteElement(uint index) public {... */\n    tag_19:\n        /* \"array.sol\":398:402  arr1 */\n      0x00\n        /* \"array.sol\":403:408  index */\n      dup2\n        /* \"array.sol\":398:409  arr1[index] */\n      dup2\n      sload\n      dup2\n      lt\n      tag_58\n      jumpi\n      tag_59\n      tag_32\n      jump\t// in\n    tag_59:\n    tag_58:\n      swap1\n      0x00\n      mstore\n      keccak256(0x00, 0x20)\n      add\n        /* \"array.sol\":391:409  delete arr1[index] */\n      0x00\n      swap1\n      sstore\n        /* \"array.sol\":338:417  function deleteElement(uint index) public {... */\n      pop\n      jump\t// out\n        /* \"array.sol\":153:213  function push(uint n) public {... */\n    tag_22:\n        /* \"array.sol\":193:197  arr1 */\n      0x00\n        /* \"array.sol\":203:204  n */\n      dup2\n        /* \"array.sol\":193:205  arr1.push(n) */\n      swap1\n      dup1\n      0x01\n      dup2\n      sload\n      add\n      dup1\n      dup3\n      sstore\n      dup1\n      swap2\n      pop\n      pop\n      0x01\n      swap1\n      sub\n      swap1\n      0x00\n      mstore\n      keccak256(0x00, 0x20)\n      add\n      0x00\n      swap1\n      swap2\n      swap1\n      swap2\n      swap1\n      swap2\n      pop\n      sstore\n        /* \"array.sol\":153:213  function push(uint n) public {... */\n      pop\n      jump\t// out\n        /* \"array.sol\":515:618  function getArr1() public view returns (uint,uint[] memory){... */\n    tag_24:\n        /* \"array.sol\":555:559  uint */\n      0x00\n        /* \"array.sol\":560:573  uint[] memory */\n      0x60\n        /* \"array.sol\":593:597  arr1 */\n      0x00\n        /* \"array.sol\":593:604  arr1.length */\n      dup1\n      sload\n      swap1\n      pop\n        /* \"array.sol\":605:609  arr1 */\n      0x00\n        /* \"array.sol\":585:610  return (arr1.length,arr1) */\n      dup1\n      dup1\n      sload\n      dup1\n      0x20\n      mul\n      0x20\n      add\n      mload(0x40)\n      swap1\n      dup2\n      add\n      0x40\n      mstore\n      dup1\n      swap3\n      swap2\n      swap1\n      dup2\n      dup2\n      mstore\n      0x20\n      add\n      dup3\n      dup1\n      sload\n      dup1\n      iszero\n      tag_64\n      jumpi\n      0x20\n      mul\n      dup3\n      add\n      swap2\n      swap1\n      0x00\n      mstore\n      keccak256(0x00, 0x20)\n      swap1\n    tag_65:\n      dup2\n      sload\n      dup2\n      mstore\n      0x20\n      add\n      swap1\n      0x01\n      add\n      swap1\n      dup1\n      dup4\n      gt\n      tag_65\n      jumpi\n    tag_64:\n      pop\n      pop\n      pop\n      pop\n      pop\n      swap1\n      pop\n      swap2\n      pop\n      swap2\n      pop\n        /* \"array.sol\":515:618  function getArr1() public view returns (uint,uint[] memory){... */\n      swap1\n      swap2\n      jump\t// out\n        /* \"array.sol\":247:298  function pop() public {... */\n    tag_28:\n        /* \"array.sol\":280:284  arr1 */\n      0x00\n        /* \"array.sol\":280:290  arr1.pop() */\n      dup1\n      sload\n      dup1\n      tag_67\n      jumpi\n      tag_68\n      tag_51\n      jump\t// in\n    tag_68:\n    tag_67:\n      0x01\n      swap1\n      sub\n      dup2\n      dup2\n      swap1\n      0x00\n      mstore\n      keccak256(0x00, 0x20)\n      add\n      0x00\n      swap1\n      sstore\n      swap1\n      sstore\n        /* \"array.sol\":247:298  function pop() public {... */\n      jump\t// out\n        /* \"#utility.yul\":88:205   */\n    tag_71:\n        /* \"#utility.yul\":197:198   */\n      0x00\n        /* \"#utility.yul\":194:195   */\n      dup1\n        /* \"#utility.yul\":187:199   */\n      revert\n        /* \"#utility.yul\":334:411   */\n    tag_73:\n        /* \"#utility.yul\":371:378   */\n      0x00\n        /* \"#utility.yul\":400:405   */\n      dup2\n        /* \"#utility.yul\":389:405   */\n      swap1\n      pop\n        /* \"#utility.yul\":334:411   */\n      swap2\n      swap1\n      pop\n      jump\t// out\n        /* \"#utility.yul\":417:539   */\n    tag_74:\n        /* \"#utility.yul\":490:514   */\n      tag_91\n        /* \"#utility.yul\":508:513   */\n      dup2\n        /* \"#utility.yul\":490:514   */\n      tag_73\n      jump\t// in\n    tag_91:\n        /* \"#utility.yul\":483:488   */\n      dup2\n        /* \"#utility.yul\":480:515   */\n      eq\n        /* \"#utility.yul\":470:533   */\n      tag_92\n      jumpi\n        /* \"#utility.yul\":529:530   */\n      0x00\n        /* \"#utility.yul\":526:527   */\n      dup1\n        /* \"#utility.yul\":519:531   */\n      revert\n        /* \"#utility.yul\":470:533   */\n    tag_92:\n        /* \"#utility.yul\":417:539   */\n      pop\n      jump\t// out\n        /* \"#utility.yul\":545:684   */\n    tag_75:\n        /* \"#utility.yul\":591:596   */\n      0x00\n        /* \"#utility.yul\":629:635   */\n      dup2\n        /* \"#utility.yul\":616:636   */\n      calldataload\n        /* \"#utility.yul\":607:636   */\n      swap1\n      pop\n        /* \"#utility.yul\":645:678   */\n      tag_94\n        /* \"#utility.yul\":672:677   */\n      dup2\n        /* \"#utility.yul\":645:678   */\n      tag_74\n      jump\t// in\n    tag_94:\n        /* \"#utility.yul\":545:684   */\n      swap3\n      swap2\n      pop\n      pop\n      jump\t// out\n        /* \"#utility.yul\":690:1019   */\n    tag_11:\n        /* \"#utility.yul\":749:755   */\n      0x00\n        /* \"#utility.yul\":798:800   */\n      0x20\n        /* \"#utility.yul\":786:795   */\n      dup3\n        /* \"#utility.yul\":777:784   */\n      dup5\n        /* \"#utility.yul\":773:796   */\n      sub\n        /* \"#utility.yul\":769:801   */\n      slt\n        /* \"#utility.yul\":766:885   */\n      iszero\n      tag_96\n      jumpi\n        /* \"#utility.yul\":804:883   */\n      tag_97\n      tag_71\n      jump\t// in\n    tag_97:\n        /* \"#utility.yul\":766:885   */\n    tag_96:\n        /* \"#utility.yul\":924:925   */\n      0x00\n        /* \"#utility.yul\":949:1002   */\n      tag_98\n        /* \"#utility.yul\":994:1001   */\n      dup5\n        /* \"#utility.yul\":985:991   */\n      dup3\n        /* \"#utility.yul\":974:983   */\n      dup6\n        /* \"#utility.yul\":970:992   */\n      add\n        /* \"#utility.yul\":949:1002   */\n      tag_75\n      jump\t// in\n    tag_98:\n        /* \"#utility.yul\":939:1002   */\n      swap2\n      pop\n        /* \"#utility.yul\":895:1012   */\n      pop\n        /* \"#utility.yul\":690:1019   */\n      swap3\n      swap2\n      pop\n      pop\n      jump\t// out\n        /* \"#utility.yul\":1025:1499   */\n    tag_15:\n        /* \"#utility.yul\":1093:1099   */\n      0x00\n        /* \"#utility.yul\":1101:1107   */\n      dup1\n        /* \"#utility.yul\":1150:1152   */\n      0x40\n        /* \"#utility.yul\":1138:1147   */\n      dup4\n        /* \"#utility.yul\":1129:1136   */\n      dup6\n        /* \"#utility.yul\":1125:1148   */\n      sub\n        /* \"#utility.yul\":1121:1153   */\n      slt\n        /* \"#utility.yul\":1118:1237   */\n      iszero\n      tag_100\n      jumpi\n        /* \"#utility.yul\":1156:1235   */\n      tag_101\n      tag_71\n      jump\t// in\n    tag_101:\n        /* \"#utility.yul\":1118:1237   */\n    tag_100:\n        /* \"#utility.yul\":1276:1277   */\n      0x00\n        /* \"#utility.yul\":1301:1354   */\n      tag_102\n        /* \"#utility.yul\":1346:1353   */\n      dup6\n        /* \"#utility.yul\":1337:1343   */\n      dup3\n        /* \"#utility.yul\":1326:1335   */\n      dup7\n        /* \"#utility.yul\":1322:1344   */\n      add\n        /* \"#utility.yul\":1301:1354   */\n      tag_75\n      jump\t// in\n    tag_102:\n        /* \"#utility.yul\":1291:1354   */\n      swap3\n      pop\n        /* \"#utility.yul\":1247:1364   */\n      pop\n        /* \"#utility.yul\":1403:1405   */\n      0x20\n        /* \"#utility.yul\":1429:1482   */\n      tag_103\n        /* \"#utility.yul\":1474:1481   */\n      dup6\n        /* \"#utility.yul\":1465:1471   */\n      dup3\n        /* \"#utility.yul\":1454:1463   */\n      dup7\n        /* \"#utility.yul\":1450:1472   */\n      add\n        /* \"#utility.yul\":1429:1482   */\n      tag_75\n      jump\t// in\n    tag_103:\n        /* \"#utility.yul\":1419:1482   */\n      swap2\n      pop\n        /* \"#utility.yul\":1374:1492   */\n      pop\n        /* \"#utility.yul\":1025:1499   */\n      swap3\n      pop\n      swap3\n      swap1\n      pop\n      jump\t// out\n        /* \"#utility.yul\":1505:1623   */\n    tag_76:\n        /* \"#utility.yul\":1592:1616   */\n      tag_105\n        /* \"#utility.yul\":1610:1615   */\n      dup2\n        /* \"#utility.yul\":1592:1616   */\n      tag_73\n      jump\t// in\n    tag_105:\n        /* \"#utility.yul\":1587:1590   */\n      dup3\n        /* \"#utility.yul\":1580:1617   */\n      mstore\n        /* \"#utility.yul\":1505:1623   */\n      pop\n      pop\n      jump\t// out\n        /* \"#utility.yul\":1629:1743   */\n    tag_77:\n        /* \"#utility.yul\":1696:1702   */\n      0x00\n        /* \"#utility.yul\":1730:1735   */\n      dup2\n        /* \"#utility.yul\":1724:1736   */\n      mload\n        /* \"#utility.yul\":1714:1736   */\n      swap1\n      pop\n        /* \"#utility.yul\":1629:1743   */\n      swap2\n      swap1\n      pop\n      jump\t// out\n        /* \"#utility.yul\":1749:1933   */\n    tag_78:\n        /* \"#utility.yul\":1848:1859   */\n      0x00\n        /* \"#utility.yul\":1882:1888   */\n      dup3\n        /* \"#utility.yul\":1877:1880   */\n      dup3\n        /* \"#utility.yul\":1870:1889   */\n      mstore\n        /* \"#utility.yul\":1922:1926   */\n      0x20\n        /* \"#utility.yul\":1917:1920   */\n      dup3\n        /* \"#utility.yul\":1913:1927   */\n      add\n        /* \"#utility.yul\":1898:1927   */\n      swap1\n      pop\n        /* \"#utility.yul\":1749:1933   */\n      swap3\n      swap2\n      pop\n      pop\n      jump\t// out\n        /* \"#utility.yul\":1939:2071   */\n    tag_79:\n        /* \"#utility.yul\":2006:2010   */\n      0x00\n        /* \"#utility.yul\":2029:2032   */\n      dup2\n        /* \"#utility.yul\":2021:2032   */\n      swap1\n      pop\n        /* \"#utility.yul\":2059:2063   */\n      0x20\n        /* \"#utility.yul\":2054:2057   */\n      dup3\n        /* \"#utility.yul\":2050:2064   */\n      add\n        /* \"#utility.yul\":2042:2064   */\n      swap1\n      pop\n        /* \"#utility.yul\":1939:2071   */\n      swap2\n      swap1\n      pop\n      jump\t// out\n        /* \"#utility.yul\":2077:2185   */\n    tag_80:\n        /* \"#utility.yul\":2154:2178   */\n      tag_110\n        /* \"#utility.yul\":2172:2177   */\n      dup2\n        /* \"#utility.yul\":2154:2178   */\n      tag_73\n      jump\t// in\n    tag_110:\n        /* \"#utility.yul\":2149:2152   */\n      dup3\n        /* \"#utility.yul\":2142:2179   */\n      mstore\n        /* \"#utility.yul\":2077:2185   */\n      pop\n      pop\n      jump\t// out\n        /* \"#utility.yul\":2191:2370   */\n    tag_81:\n        /* \"#utility.yul\":2260:2270   */\n      0x00\n        /* \"#utility.yul\":2281:2327   */\n      tag_112\n        /* \"#utility.yul\":2323:2326   */\n      dup4\n        /* \"#utility.yul\":2315:2321   */\n      dup4\n        /* \"#utility.yul\":2281:2327   */\n      tag_80\n      jump\t// in\n    tag_112:\n        /* \"#utility.yul\":2359:2363   */\n      0x20\n        /* \"#utility.yul\":2354:2357   */\n      dup4\n        /* \"#utility.yul\":2350:2364   */\n      add\n        /* \"#utility.yul\":2336:2364   */\n      swap1\n      pop\n        /* \"#utility.yul\":2191:2370   */\n      swap3\n      swap2\n      pop\n      pop\n      jump\t// out\n        /* \"#utility.yul\":2376:2489   */\n    tag_82:\n        /* \"#utility.yul\":2446:2450   */\n      0x00\n        /* \"#utility.yul\":2478:2482   */\n      0x20\n        /* \"#utility.yul\":2473:2476   */\n      dup3\n        /* \"#utility.yul\":2469:2483   */\n      add\n        /* \"#utility.yul\":2461:2483   */\n      swap1\n      pop\n        /* \"#utility.yul\":2376:2489   */\n      swap2\n      swap1\n      pop\n      jump\t// out\n        /* \"#utility.yul\":2525:3257   */\n    tag_83:\n        /* \"#utility.yul\":2644:2647   */\n      0x00\n        /* \"#utility.yul\":2673:2727   */\n      tag_115\n        /* \"#utility.yul\":2721:2726   */\n      dup3\n        /* \"#utility.yul\":2673:2727   */\n      tag_77\n      jump\t// in\n    tag_115:\n        /* \"#utility.yul\":2743:2829   */\n      tag_116\n        /* \"#utility.yul\":2822:2828   */\n      dup2\n        /* \"#utility.yul\":2817:2820   */\n      dup6\n        /* \"#utility.yul\":2743:2829   */\n      tag_78\n      jump\t// in\n    tag_116:\n        /* \"#utility.yul\":2736:2829   */\n      swap4\n      pop\n        /* \"#utility.yul\":2853:2909   */\n      tag_117\n        /* \"#utility.yul\":2903:2908   */\n      dup4\n        /* \"#utility.yul\":2853:2909   */\n      tag_79\n      jump\t// in\n    tag_117:\n        /* \"#utility.yul\":2932:2939   */\n      dup1\n        /* \"#utility.yul\":2963:2964   */\n      0x00\n        /* \"#utility.yul\":2948:3232   */\n    tag_118:\n        /* \"#utility.yul\":2973:2979   */\n      dup4\n        /* \"#utility.yul\":2970:2971   */\n      dup2\n        /* \"#utility.yul\":2967:2980   */\n      lt\n        /* \"#utility.yul\":2948:3232   */\n      iszero\n      tag_120\n      jumpi\n        /* \"#utility.yul\":3049:3055   */\n      dup2\n        /* \"#utility.yul\":3043:3056   */\n      mload\n        /* \"#utility.yul\":3076:3139   */\n      tag_121\n        /* \"#utility.yul\":3135:3138   */\n      dup9\n        /* \"#utility.yul\":3120:3133   */\n      dup3\n        /* \"#utility.yul\":3076:3139   */\n      tag_81\n      jump\t// in\n    tag_121:\n        /* \"#utility.yul\":3069:3139   */\n      swap8\n      pop\n        /* \"#utility.yul\":3162:3222   */\n      tag_122\n        /* \"#utility.yul\":3215:3221   */\n      dup4\n        /* \"#utility.yul\":3162:3222   */\n      tag_82\n      jump\t// in\n    tag_122:\n        /* \"#utility.yul\":3152:3222   */\n      swap3\n      pop\n        /* \"#utility.yul\":3008:3232   */\n      pop\n        /* \"#utility.yul\":2995:2996   */\n      0x01\n        /* \"#utility.yul\":2992:2993   */\n      dup2\n        /* \"#utility.yul\":2988:2997   */\n      add\n        /* \"#utility.yul\":2983:2997   */\n      swap1\n      pop\n        /* \"#utility.yul\":2948:3232   */\n      jump(tag_118)\n    tag_120:\n        /* \"#utility.yul\":2952:2966   */\n      pop\n        /* \"#utility.yul\":3248:3251   */\n      dup6\n        /* \"#utility.yul\":3241:3251   */\n      swap4\n      pop\n        /* \"#utility.yul\":2649:3257   */\n      pop\n      pop\n      pop\n        /* \"#utility.yul\":2525:3257   */\n      swap3\n      swap2\n      pop\n      pop\n      jump\t// out\n        /* \"#utility.yul\":3263:3746   */\n    tag_26:\n        /* \"#utility.yul\":3434:3438   */\n      0x00\n        /* \"#utility.yul\":3472:3474   */\n      0x40\n        /* \"#utility.yul\":3461:3470   */\n      dup3\n        /* \"#utility.yul\":3457:3475   */\n      add\n        /* \"#utility.yul\":3449:3475   */\n      swap1\n      pop\n        /* \"#utility.yul\":3485:3556   */\n      tag_124\n        /* \"#utility.yul\":3553:3554   */\n      0x00\n        /* \"#utility.yul\":3542:3551   */\n      dup4\n        /* \"#utility.yul\":3538:3555   */\n      add\n        /* \"#utility.yul\":3529:3535   */\n      dup6\n        /* \"#utility.yul\":3485:3556   */\n      tag_76\n      jump\t// in\n    tag_124:\n        /* \"#utility.yul\":3603:3612   */\n      dup2\n        /* \"#utility.yul\":3597:3601   */\n      dup2\n        /* \"#utility.yul\":3593:3613   */\n      sub\n        /* \"#utility.yul\":3588:3590   */\n      0x20\n        /* \"#utility.yul\":3577:3586   */\n      dup4\n        /* \"#utility.yul\":3573:3591   */\n      add\n        /* \"#utility.yul\":3566:3614   */\n      mstore\n        /* \"#utility.yul\":3631:3739   */\n      tag_125\n        /* \"#utility.yul\":3734:3738   */\n      dup2\n        /* \"#utility.yul\":3725:3731   */\n      dup5\n        /* \"#utility.yul\":3631:3739   */\n      tag_83\n      jump\t// in\n    tag_125:\n        /* \"#utility.yul\":3623:3739   */\n      swap1\n      pop\n        /* \"#utility.yul\":3263:3746   */\n      swap4\n      swap3\n      pop\n      pop\n      pop\n      jump\t// out\n        /* \"#utility.yul\":3752:3932   */\n    tag_32:\n        /* \"#utility.yul\":3800:3877   */\n      0x4e487b7100000000000000000000000000000000000000000000000000000000\n        /* \"#utility.yul\":3797:3798   */\n      0x00\n        /* \"#utility.yul\":3790:3878   */\n      mstore\n        /* \"#utility.yul\":3897:3901   */\n      0x32\n        /* \"#utility.yul\":3894:3895   */\n      0x04\n        /* \"#utility.yul\":3887:3902   */\n      mstore\n        /* \"#utility.yul\":3921:3925   */\n      0x24\n        /* \"#utility.yul\":3918:3919   */\n      0x00\n        /* \"#utility.yul\":3911:3926   */\n      revert\n        /* \"#utility.yul\":3938:4118   */\n    tag_84:\n        /* \"#utility.yul\":3986:4063   */\n      0x4e487b7100000000000000000000000000000000000000000000000000000000\n        /* \"#utility.yul\":3983:3984   */\n      0x00\n        /* \"#utility.yul\":3976:4064   */\n      mstore\n        /* \"#utility.yul\":4083:4087   */\n      0x11\n        /* \"#utility.yul\":4080:4081   */\n      0x04\n        /* \"#utility.yul\":4073:4088   */\n      mstore\n        /* \"#utility.yul\":4107:4111   */\n      0x24\n        /* \"#utility.yul\":4104:4105   */\n      0x00\n        /* \"#utility.yul\":4097:4112   */\n      revert\n        /* \"#utility.yul\":4124:4315   */\n    tag_38:\n        /* \"#utility.yul\":4164:4168   */\n      0x00\n        /* \"#utility.yul\":4184:4204   */\n      tag_129\n        /* \"#utility.yul\":4202:4203   */\n      dup3\n        /* \"#utility.yul\":4184:4204   */\n      tag_73\n      jump\t// in\n    tag_129:\n        /* \"#utility.yul\":4179:4204   */\n      swap2\n      pop\n        /* \"#utility.yul\":4218:4238   */\n      tag_130\n        /* \"#utility.yul\":4236:4237   */\n      dup4\n        /* \"#utility.yul\":4218:4238   */\n      tag_73\n      jump\t// in\n    tag_130:\n        /* \"#utility.yul\":4213:4238   */\n      swap3\n      pop\n        /* \"#utility.yul\":4257:4258   */\n      dup3\n        /* \"#utility.yul\":4254:4255   */\n      dup3\n        /* \"#utility.yul\":4251:4259   */\n      lt\n        /* \"#utility.yul\":4248:4282   */\n      iszero\n      tag_131\n      jumpi\n        /* \"#utility.yul\":4262:4280   */\n      tag_132\n      tag_84\n      jump\t// in\n    tag_132:\n        /* \"#utility.yul\":4248:4282   */\n    tag_131:\n        /* \"#utility.yul\":4307:4308   */\n      dup3\n        /* \"#utility.yul\":4304:4305   */\n      dup3\n        /* \"#utility.yul\":4300:4309   */\n      sub\n        /* \"#utility.yul\":4292:4309   */\n      swap1\n      pop\n        /* \"#utility.yul\":4124:4315   */\n      swap3\n      swap2\n      pop\n      pop\n      jump\t// out\n        /* \"#utility.yul\":4321:4626   */\n    tag_40:\n        /* \"#utility.yul\":4361:4364   */\n      0x00\n        /* \"#utility.yul\":4380:4400   */\n      tag_134\n        /* \"#utility.yul\":4398:4399   */\n      dup3\n        /* \"#utility.yul\":4380:4400   */\n      tag_73\n      jump\t// in\n    tag_134:\n        /* \"#utility.yul\":4375:4400   */\n      swap2\n      pop\n        /* \"#utility.yul\":4414:4434   */\n      tag_135\n        /* \"#utility.yul\":4432:4433   */\n      dup4\n        /* \"#utility.yul\":4414:4434   */\n      tag_73\n      jump\t// in\n    tag_135:\n        /* \"#utility.yul\":4409:4434   */\n      swap3\n      pop\n        /* \"#utility.yul\":4568:4569   */\n      dup3\n        /* \"#utility.yul\":4500:4566   */\n      0xffffffffffffffffffffffffffffffffffffffffffffffffffffffffffffffff\n        /* \"#utility.yul\":4496:4570   */\n      sub\n        /* \"#utility.yul\":4493:4494   */\n      dup3\n        /* \"#utility.yul\":4490:4571   */\n      gt\n        /* \"#utility.yul\":4487:4594   */\n      iszero\n      tag_136\n      jumpi\n        /* \"#utility.yul\":4574:4592   */\n      tag_137\n      tag_84\n      jump\t// in\n    tag_137:\n        /* \"#utility.yul\":4487:4594   */\n    tag_136:\n        /* \"#utility.yul\":4618:4619   */\n      dup3\n        /* \"#utility.yul\":4615:4616   */\n      dup3\n        /* \"#utility.yul\":4611:4620   */\n      add\n        /* \"#utility.yul\":4604:4620   */\n      swap1\n      pop\n        /* \"#utility.yul\":4321:4626   */\n      swap3\n      swap2\n      pop\n      pop\n      jump\t// out\n        /* \"#utility.yul\":4632:4865   */\n    tag_48:\n        /* \"#utility.yul\":4671:4674   */\n      0x00\n        /* \"#utility.yul\":4694:4718   */\n      tag_139\n        /* \"#utility.yul\":4712:4717   */\n      dup3\n        /* \"#utility.yul\":4694:4718   */\n      tag_73\n      jump\t// in\n    tag_139:\n        /* \"#utility.yul\":4685:4718   */\n      swap2\n      pop\n        /* \"#utility.yul\":4740:4806   */\n      0xffffffffffffffffffffffffffffffffffffffffffffffffffffffffffffffff\n        /* \"#utility.yul\":4733:4738   */\n      dup3\n        /* \"#utility.yul\":4730:4807   */\n      sub\n        /* \"#utility.yul\":4727:4830   */\n      tag_140\n      jumpi\n        /* \"#utility.yul\":4810:4828   */\n      tag_141\n      tag_84\n      jump\t// in\n    tag_141:\n        /* \"#utility.yul\":4727:4830   */\n    tag_140:\n        /* \"#utility.yul\":4857:4858   */\n      0x01\n        /* \"#utility.yul\":4850:4855   */\n      dup3\n        /* \"#utility.yul\":4846:4859   */\n      add\n        /* \"#utility.yul\":4839:4859   */\n      swap1\n      pop\n        /* \"#utility.yul\":4632:4865   */\n      swap2\n      swap1\n      pop\n      jump\t// out\n        /* \"#utility.yul\":4871:5051   */\n    tag_51:\n        /* \"#utility.yul\":4919:4996   */\n      0x4e487b7100000000000000000000000000000000000000000000000000000000\n        /* \"#utility.yul\":4916:4917   */\n      0x00\n        /* \"#utility.yul\":4909:4997   */\n      mstore\n        /* \"#utility.yul\":5016:5020   */\n      0x31\n        /* \"#utility.yul\":5013:5014   */\n      0x04\n        /* \"#utility.yul\":5006:5021   */\n      mstore\n        /* \"#utility.yul\":5040:5044   */\n      0x24\n        /* \"#utility.yul\":5037:5038   */\n      0x00\n        /* \"#utility.yul\":5030:5045   */\n      revert\n\n    auxdata: 0xa2646970667358221220adbfa8b5a8230ef9c6f52efa56bdedb7b0e9bc7b77735086decc0c764bb5293864736f6c634300080f0033\n}\n",
				"bytecode": {
					"linkReferences": {},
					"object": "608060405234801561001057600080fd5b5061060f806100206000396000f3fe608060405234801561001057600080fd5b50600436106100625760003560e01c80634cc822151461006757806353b619a314610083578063792de6f31461009f578063959ac484146100bb578063a168614d146100d7578063a4ece52c146100f6575b600080fd5b610081600480360381019061007c9190610310565b610100565b005b61009d6004803603810190610098919061033d565b6101cd565b005b6100b960048036038101906100b49190610310565b6101f4565b005b6100d560048036038101906100d09190610310565b610219565b005b6100df610245565b6040516100ed92919061044a565b60405180910390f35b6100fe6102ab565b005b600081815481106101145761011361047a565b5b906000526020600020016000905560008190505b600160008054905061013a91906104d8565b8110156101a1576000600182610150919061050c565b815481106101615761016061047a565b5b9060005260206000200154600082815481106101805761017f61047a565b5b9060005260206000200181905550808061019990610562565b915050610128565b5060008054806101b4576101b36105aa565b5b6001900381819060005260206000200160009055905550565b80600083815481106101e2576101e161047a565b5b90600052602060002001819055505050565b600081815481106102085761020761047a565b5b906000526020600020016000905550565b600081908060018154018082558091505060019003906000526020600020016000909190919091505550565b6000606060008054905060008080548060200260200160405190810160405280929190818152602001828054801561029c57602002820191906000526020600020905b815481526020019060010190808311610288575b50505050509050915091509091565b60008054806102bd576102bc6105aa565b5b60019003818190600052602060002001600090559055565b600080fd5b6000819050919050565b6102ed816102da565b81146102f857600080fd5b50565b60008135905061030a816102e4565b92915050565b600060208284031215610326576103256102d5565b5b6000610334848285016102fb565b91505092915050565b60008060408385031215610354576103536102d5565b5b6000610362858286016102fb565b9250506020610373858286016102fb565b9150509250929050565b610386816102da565b82525050565b600081519050919050565b600082825260208201905092915050565b6000819050602082019050919050565b6103c1816102da565b82525050565b60006103d383836103b8565b60208301905092915050565b6000602082019050919050565b60006103f78261038c565b6104018185610397565b935061040c836103a8565b8060005b8381101561043d57815161042488826103c7565b975061042f836103df565b925050600181019050610410565b5085935050505092915050565b600060408201905061045f600083018561037d565b818103602083015261047181846103ec565b90509392505050565b7f4e487b7100000000000000000000000000000000000000000000000000000000600052603260045260246000fd5b7f4e487b7100000000000000000000000000000000000000000000000000000000600052601160045260246000fd5b60006104e3826102da565b91506104ee836102da565b925082821015610501576105006104a9565b5b828203905092915050565b6000610517826102da565b9150610522836102da565b9250827fffffffffffffffffffffffffffffffffffffffffffffffffffffffffffffffff03821115610557576105566104a9565b5b828201905092915050565b600061056d826102da565b91507fffffffffffffffffffffffffffffffffffffffffffffffffffffffffffffffff820361059f5761059e6104a9565b5b600182019050919050565b7f4e487b7100000000000000000000000000000000000000000000000000000000600052603160045260246000fdfea2646970667358221220adbfa8b5a8230ef9c6f52efa56bdedb7b0e9bc7b77735086decc0c764bb5293864736f6c634300080f0033",
					"opcodes": "PUSH1 0x80 PUSH1 0x40 MSTORE CALLVALUE DUP1 ISZERO PUSH2 0x10 JUMPI PUSH1 0x0 DUP1 REVERT JUMPDEST POP PUSH2 0x60F DUP1 PUSH2 0x20 PUSH1 0x0 CODECOPY PUSH1 0x0 RETURN INVALID PUSH1 0x80 PUSH1 0x40 MSTORE CALLVALUE DUP1 ISZERO PUSH2 0x10 JUMPI PUSH1 0x0 DUP1 REVERT JUMPDEST POP PUSH1 0x4 CALLDATASIZE LT PUSH2 0x62 JUMPI PUSH1 0x0 CALLDATALOAD PUSH1 0xE0 SHR DUP1 PUSH4 0x4CC82215 EQ PUSH2 0x67 JUMPI DUP1 PUSH4 0x53B619A3 EQ PUSH2 0x83 JUMPI DUP1 PUSH4 0x792DE6F3 EQ PUSH2 0x9F JUMPI DUP1 PUSH4 0x959AC484 EQ PUSH2 0xBB JUMPI DUP1 PUSH4 0xA168614D EQ PUSH2 0xD7 JUMPI DUP1 PUSH4 0xA4ECE52C EQ PUSH2 0xF6 JUMPI JUMPDEST PUSH1 0x0 DUP1 REVERT JUMPDEST PUSH2 0x81 PUSH1 0x4 DUP1 CALLDATASIZE SUB DUP2 ADD SWAP1 PUSH2 0x7C SWAP2 SWAP1 PUSH2 0x310 JUMP JUMPDEST PUSH2 0x100 JUMP JUMPDEST STOP JUMPDEST PUSH2 0x9D PUSH1 0x4 DUP1 CALLDATASIZE SUB DUP2 ADD SWAP1 PUSH2 0x98 SWAP2 SWAP1 PUSH2 0x33D JUMP JUMPDEST PUSH2 0x1CD JUMP JUMPDEST STOP JUMPDEST PUSH2 0xB9 PUSH1 0x4 DUP1 CALLDATASIZE SUB DUP2 ADD SWAP1 PUSH2 0xB4 SWAP2 SWAP1 PUSH2 0x310 JUMP JUMPDEST PUSH2 0x1F4 JUMP JUMPDEST STOP JUMPDEST PUSH2 0xD5 PUSH1 0x4 DUP1 CALLDATASIZE SUB DUP2 ADD SWAP1 PUSH2 0xD0 SWAP2 SWAP1 PUSH2 0x310 JUMP JUMPDEST PUSH2 0x219 JUMP JUMPDEST STOP JUMPDEST PUSH2 0xDF PUSH2 0x245 JUMP JUMPDEST PUSH1 0x40 MLOAD PUSH2 0xED SWAP3 SWAP2 SWAP1 PUSH2 0x44A JUMP JUMPDEST PUSH1 0x40 MLOAD DUP1 SWAP2 SUB SWAP1 RETURN JUMPDEST PUSH2 0xFE PUSH2 0x2AB JUMP JUMPDEST STOP JUMPDEST PUSH1 0x0 DUP2 DUP2 SLOAD DUP2 LT PUSH2 0x114 JUMPI PUSH2 0x113 PUSH2 0x47A JUMP JUMPDEST JUMPDEST SWAP1 PUSH1 0x0 MSTORE PUSH1 0x20 PUSH1 0x0 KECCAK256 ADD PUSH1 0x0 SWAP1 SSTORE PUSH1 0x0 DUP2 SWAP1 POP JUMPDEST PUSH1 0x1 PUSH1 0x0 DUP1 SLOAD SWAP1 POP PUSH2 0x13A SWAP2 SWAP1 PUSH2 0x4D8 JUMP JUMPDEST DUP2 LT ISZERO PUSH2 0x1A1 JUMPI PUSH1 0x0 PUSH1 0x1 DUP3 PUSH2 0x150 SWAP2 SWAP1 PUSH2 0x50C JUMP JUMPDEST DUP2 SLOAD DUP2 LT PUSH2 0x161 JUMPI PUSH2 0x160 PUSH2 0x47A JUMP JUMPDEST JUMPDEST SWAP1 PUSH1 0x0 MSTORE PUSH1 0x20 PUSH1 0x0 KECCAK256 ADD SLOAD PUSH1 0x0 DUP3 DUP2 SLOAD DUP2 LT PUSH2 0x180 JUMPI PUSH2 0x17F PUSH2 0x47A JUMP JUMPDEST JUMPDEST SWAP1 PUSH1 0x0 MSTORE PUSH1 0x20 PUSH1 0x0 KECCAK256 ADD DUP2 SWAP1 SSTORE POP DUP1 DUP1 PUSH2 0x199 SWAP1 PUSH2 0x562 JUMP JUMPDEST SWAP2 POP POP PUSH2 0x128 JUMP JUMPDEST POP PUSH1 0x0 DUP1 SLOAD DUP1 PUSH2 0x1B4 JUMPI PUSH2 0x1B3 PUSH2 0x5AA JUMP JUMPDEST JUMPDEST PUSH1 0x1 SWAP1 SUB DUP2 DUP2 SWAP1 PUSH1 0x0 MSTORE PUSH1 0x20 PUSH1 0x0 KECCAK256 ADD PUSH1 0x0 SWAP1 SSTORE SWAP1 SSTORE POP JUMP JUMPDEST DUP1 PUSH1 0x0 DUP4 DUP2 SLOAD DUP2 LT PUSH2 0x1E2 JUMPI PUSH2 0x1E1 PUSH2 0x47A JUMP JUMPDEST JUMPDEST SWAP1 PUSH1 0x0 MSTORE PUSH1 0x20 PUSH1 0x0 KECCAK256 ADD DUP2 SWAP1 SSTORE POP POP POP JUMP JUMPDEST PUSH1 0x0 DUP2 DUP2 SLOAD DUP2 LT PUSH2 0x208 JUMPI PUSH2 0x207 PUSH2 0x47A JUMP JUMPDEST JUMPDEST SWAP1 PUSH1 0x0 MSTORE PUSH1 0x20 PUSH1 0x0 KECCAK256 ADD PUSH1 0x0 SWAP1 SSTORE POP JUMP JUMPDEST PUSH1 0x0 DUP2 SWAP1 DUP1 PUSH1 0x1 DUP2 SLOAD ADD DUP1 DUP3 SSTORE DUP1 SWAP2 POP POP PUSH1 0x1 SWAP1 SUB SWAP1 PUSH1 0x0 MSTORE PUSH1 0x20 PUSH1 0x0 KECCAK256 ADD PUSH1 0x0 SWAP1 SWAP2 SWAP1 SWAP2 SWAP1 SWAP2 POP SSTORE POP JUMP JUMPDEST PUSH1 0x0 PUSH1 0x60 PUSH1 0x0 DUP1 SLOAD SWAP1 POP PUSH1 0x0 DUP1 DUP1 SLOAD DUP1 PUSH1 0x20 MUL PUSH1 0x20 ADD PUSH1 0x40 MLOAD SWAP1 DUP2 ADD PUSH1 0x40 MSTORE DUP1 SWAP3 SWAP2 SWAP1 DUP2 DUP2 MSTORE PUSH1 0x20 ADD DUP3 DUP1 SLOAD DUP1 ISZERO PUSH2 0x29C JUMPI PUSH1 0x20 MUL DUP3 ADD SWAP2 SWAP1 PUSH1 0x0 MSTORE PUSH1 0x20 PUSH1 0x0 KECCAK256 SWAP1 JUMPDEST DUP2 SLOAD DUP2 MSTORE PUSH1 0x20 ADD SWAP1 PUSH1 0x1 ADD SWAP1 DUP1 DUP4 GT PUSH2 0x288 JUMPI JUMPDEST POP POP POP POP POP SWAP1 POP SWAP2 POP SWAP2 POP SWAP1 SWAP2 JUMP JUMPDEST PUSH1 0x0 DUP1 SLOAD DUP1 PUSH2 0x2BD JUMPI PUSH2 0x2BC PUSH2 0x5AA JUMP JUMPDEST JUMPDEST PUSH1 0x1 SWAP1 SUB DUP2 DUP2 SWAP1 PUSH1 0x0 MSTORE PUSH1 0x20 PUSH1 0x0 KECCAK256 ADD PUSH1 0x0 SWAP1 SSTORE SWAP1 SSTORE JUMP JUMPDEST PUSH1 0x0 DUP1 REVERT JUMPDEST PUSH1 0x0 DUP2 SWAP1 POP SWAP2 SWAP1 POP JUMP JUMPDEST PUSH2 0x2ED DUP2 PUSH2 0x2DA JUMP JUMPDEST DUP2 EQ PUSH2 0x2F8 JUMPI PUSH1 0x0 DUP1 REVERT JUMPDEST POP JUMP JUMPDEST PUSH1 0x0 DUP2 CALLDATALOAD SWAP1 POP PUSH2 0x30A DUP2 PUSH2 0x2E4 JUMP JUMPDEST SWAP3 SWAP2 POP POP JUMP JUMPDEST PUSH1 0x0 PUSH1 0x20 DUP3 DUP5 SUB SLT ISZERO PUSH2 0x326 JUMPI PUSH2 0x325 PUSH2 0x2D5 JUMP JUMPDEST JUMPDEST PUSH1 0x0 PUSH2 0x334 DUP5 DUP3 DUP6 ADD PUSH2 0x2FB JUMP JUMPDEST SWAP2 POP POP SWAP3 SWAP2 POP POP JUMP JUMPDEST PUSH1 0x0 DUP1 PUSH1 0x40 DUP4 DUP6 SUB SLT ISZERO PUSH2 0x354 JUMPI PUSH2 0x353 PUSH2 0x2D5 JUMP JUMPDEST JUMPDEST PUSH1 0x0 PUSH2 0x362 DUP6 DUP3 DUP7 ADD PUSH2 0x2FB JUMP JUMPDEST SWAP3 POP POP PUSH1 0x20 PUSH2 0x373 DUP6 DUP3 DUP7 ADD PUSH2 0x2FB JUMP JUMPDEST SWAP2 POP POP SWAP3 POP SWAP3 SWAP1 POP JUMP JUMPDEST PUSH2 0x386 DUP2 PUSH2 0x2DA JUMP JUMPDEST DUP3 MSTORE POP POP JUMP JUMPDEST PUSH1 0x0 DUP2 MLOAD SWAP1 POP SWAP2 SWAP1 POP JUMP JUMPDEST PUSH1 0x0 DUP3 DUP3 MSTORE PUSH1 0x20 DUP3 ADD SWAP1 POP SWAP3 SWAP2 POP POP JUMP JUMPDEST PUSH1 0x0 DUP2 SWAP1 POP PUSH1 0x20 DUP3 ADD SWAP1 POP SWAP2 SWAP1 POP JUMP JUMPDEST PUSH2 0x3C1 DUP2 PUSH2 0x2DA JUMP JUMPDEST DUP3 MSTORE POP POP JUMP JUMPDEST PUSH1 0x0 PUSH2 0x3D3 DUP4 DUP4 PUSH2 0x3B8 JUMP JUMPDEST PUSH1 0x20 DUP4 ADD SWAP1 POP SWAP3 SWAP2 POP POP JUMP JUMPDEST PUSH1 0x0 PUSH1 0x20 DUP3 ADD SWAP1 POP SWAP2 SWAP1 POP JUMP JUMPDEST PUSH1 0x0 PUSH2 0x3F7 DUP3 PUSH2 0x38C JUMP JUMPDEST PUSH2 0x401 DUP2 DUP6 PUSH2 0x397 JUMP JUMPDEST SWAP4 POP PUSH2 0x40C DUP4 PUSH2 0x3A8 JUMP JUMPDEST DUP1 PUSH1 0x0 JUMPDEST DUP4 DUP2 LT ISZERO PUSH2 0x43D JUMPI DUP2 MLOAD PUSH2 0x424 DUP9 DUP3 PUSH2 0x3C7 JUMP JUMPDEST SWAP8 POP PUSH2 0x42F DUP4 PUSH2 0x3DF JUMP JUMPDEST SWAP3 POP POP PUSH1 0x1 DUP2 ADD SWAP1 POP PUSH2 0x410 JUMP JUMPDEST POP DUP6 SWAP4 POP POP POP POP SWAP3 SWAP2 POP POP JUMP JUMPDEST PUSH1 0x0 PUSH1 0x40 DUP3 ADD SWAP1 POP PUSH2 0x45F PUSH1 0x0 DUP4 ADD DUP6 PUSH2 0x37D JUMP JUMPDEST DUP2 DUP2 SUB PUSH1 0x20 DUP4 ADD MSTORE PUSH2 0x471 DUP2 DUP5 PUSH2 0x3EC JUMP JUMPDEST SWAP1 POP SWAP4 SWAP3 POP POP POP JUMP JUMPDEST PUSH32 0x4E487B7100000000000000000000000000000000000000000000000000000000 PUSH1 0x0 MSTORE PUSH1 0x32 PUSH1 0x4 MSTORE PUSH1 0x24 PUSH1 0x0 REVERT JUMPDEST PUSH32 0x4E487B7100000000000000000000000000000000000000000000000000000000 PUSH1 0x0 MSTORE PUSH1 0x11 PUSH1 0x4 MSTORE PUSH1 0x24 PUSH1 0x0 REVERT JUMPDEST PUSH1 0x0 PUSH2 0x4E3 DUP3 PUSH2 0x2DA JUMP JUMPDEST SWAP2 POP PUSH2 0x4EE DUP4 PUSH2 0x2DA JUMP JUMPDEST SWAP3 POP DUP3 DUP3 LT ISZERO PUSH2 0x501 JUMPI PUSH2 0x500 PUSH2 0x4A9 JUMP JUMPDEST JUMPDEST DUP3 DUP3 SUB SWAP1 POP SWAP3 SWAP2 POP POP JUMP JUMPDEST PUSH1 0x0 PUSH2 0x517 DUP3 PUSH2 0x2DA JUMP JUMPDEST SWAP2 POP PUSH2 0x522 DUP4 PUSH2 0x2DA JUMP JUMPDEST SWAP3 POP DUP3 PUSH32 0xFFFFFFFFFFFFFFFFFFFFFFFFFFFFFFFFFFFFFFFFFFFFFFFFFFFFFFFFFFFFFFFF SUB DUP3 GT ISZERO PUSH2 0x557 JUMPI PUSH2 0x556 PUSH2 0x4A9 JUMP JUMPDEST JUMPDEST DUP3 DUP3 ADD SWAP1 POP SWAP3 SWAP2 POP POP JUMP JUMPDEST PUSH1 0x0 PUSH2 0x56D DUP3 PUSH2 0x2DA JUMP JUMPDEST SWAP2 POP PUSH32 0xFFFFFFFFFFFFFFFFFFFFFFFFFFFFFFFFFFFFFFFFFFFFFFFFFFFFFFFFFFFFFFFF DUP3 SUB PUSH2 0x59F JUMPI PUSH2 0x59E PUSH2 0x4A9 JUMP JUMPDEST JUMPDEST PUSH1 0x1 DUP3 ADD SWAP1 POP SWAP2 SWAP1 POP JUMP JUMPDEST PUSH32 0x4E487B7100000000000000000000000000000000000000000000000000000000 PUSH1 0x0 MSTORE PUSH1 0x31 PUSH1 0x4 MSTORE PUSH1 0x24 PUSH1 0x0 REVERT INVALID LOG2 PUSH5 0x6970667358 0x22 SLT KECCAK256 0xAD 0xBF 0xA8 0xB5 0xA8 0x23 0xE 0xF9 0xC6 CREATE2 0x2E STATICCALL JUMP 0xBD 0xED 0xB7 0xB0 0xE9 0xBC PUSH28 0x77735086DECC0C764BB5293864736F6C634300080F00330000000000 "
				},
				"gasEstimates": {
					"creation": {
						"codeDepositCost": "310200",
						"executionCost": "349",
						"totalCost": "310549"
					},
					"external": {
						"deleteElement(uint256)": "7617",
						"edit(uint256,uint256)": "infinite",
						"getArr1()": "infinite",
						"pop()": "29533",
						"push(uint256)": "46873",
						"remove(uint256)": "infinite"
					}
				},
				"methodIdentifiers": {
					"deleteElement(uint256)": "792de6f3",
					"edit(uint256,uint256)": "53b619a3",
					"getArr1()": "a168614d",
					"pop()": "a4ece52c",
					"push(uint256)": "959ac484",
					"remove(uint256)": "4cc82215"
				}
			},
			"storageLayout": {
				"storage": [
					{
						"astId": 4,
						"contract": "array.sol:ArrayTest",
						"label": "arr1",
						"offset": 0,
						"slot": "0",
						"type": "t_array(t_uint256)dyn_storage"
					}
				],
				"types": {
					"t_array(t_uint256)dyn_storage": {
						"base": "t_uint256",
						"encoding": "dynamic_array",
						"label": "uint256[]",
						"numberOfBytes": "32"
					},
					"t_uint256": {
						"encoding": "inplace",
						"label": "uint256",
						"numberOfBytes": "32"
					}
				}
			},
			"userdoc": {
				"kind": "user",
				"methods": {},
				"version": 1
			}
		}
	}
}