{
	"crowdfunding.sol": {
		"CrowdfundingContract": {
			"abi": [
				{
					"inputs": [
						{
							"internalType": "string",
							"name": "_title",
							"type": "string"
						},
						{
							"internalType": "address",
							"name": "_recipient",
							"type": "address"
						},
						{
							"internalType": "string",
							"name": "_expectAmout",
							"type": "string"
						}
					],
					"name": "createCrowdfunding",
					"outputs": [],
					"stateMutability": "nonpayable",
					"type": "function"
				},
				{
					"inputs": [
						{
							"internalType": "uint256",
							"name": "_status",
							"type": "uint256"
						}
					],
					"name": "getCrowdfundingByStatus",
					"outputs": [
						{
							"components": [
								{
									"internalType": "uint256",
									"name": "num",
									"type": "uint256"
								},
								{
									"internalType": "string",
									"name": "title",
									"type": "string"
								},
								{
									"internalType": "uint256",
									"name": "status",
									"type": "uint256"
								},
								{
									"internalType": "address",
									"name": "creator",
									"type": "address"
								},
								{
									"internalType": "address",
									"name": "recipient",
									"type": "address"
								},
								{
									"internalType": "uint256",
									"name": "joinNum",
									"type": "uint256"
								},
								{
									"internalType": "string",
									"name": "expectAmout",
									"type": "string"
								},
								{
									"internalType": "string",
									"name": "actualAmount",
									"type": "string"
								}
							],
							"internalType": "struct CrowdfundingContract.Crowdfunding[]",
							"name": "",
							"type": "tuple[]"
						}
					],
					"stateMutability": "view",
					"type": "function"
				},
				{
					"inputs": [
						{
							"internalType": "address",
							"name": "addr",
							"type": "address"
						}
					],
					"name": "getMyCrowdfunding",
					"outputs": [
						{
							"components": [
								{
									"internalType": "uint256",
									"name": "num",
									"type": "uint256"
								},
								{
									"internalType": "string",
									"name": "title",
									"type": "string"
								},
								{
									"internalType": "uint256",
									"name": "status",
									"type": "uint256"
								},
								{
									"internalType": "address",
									"name": "creator",
									"type": "address"
								},
								{
									"internalType": "address",
									"name": "recipient",
									"type": "address"
								},
								{
									"internalType": "uint256",
									"name": "joinNum",
									"type": "uint256"
								},
								{
									"internalType": "string",
									"name": "expectAmout",
									"type": "string"
								},
								{
									"internalType": "string",
									"name": "actualAmount",
									"type": "string"
								}
							],
							"internalType": "struct CrowdfundingContract.Crowdfunding[]",
							"name": "",
							"type": "tuple[]"
						}
					],
					"stateMutability": "view",
					"type": "function"
				},
				{
					"inputs": [
						{
							"internalType": "uint256",
							"name": "",
							"type": "uint256"
						}
					],
					"name": "list",
					"outputs": [
						{
							"internalType": "uint256",
							"name": "num",
							"type": "uint256"
						},
						{
							"internalType": "string",
							"name": "title",
							"type": "string"
						},
						{
							"internalType": "uint256",
							"name": "status",
							"type": "uint256"
						},
						{
							"internalType": "address",
							"name": "creator",
							"type": "address"
						},
						{
							"internalType": "address",
							"name": "recipient",
							"type": "address"
						},
						{
							"internalType": "uint256",
							"name": "joinNum",
							"type": "uint256"
						},
						{
							"internalType": "string",
							"name": "expectAmout",
							"type": "string"
						},
						{
							"internalType": "string",
							"name": "actualAmount",
							"type": "string"
						}
					],
					"stateMutability": "view",
					"type": "function"
				},
				{
					"inputs": [
						{
							"internalType": "uint256",
							"name": "num",
							"type": "uint256"
						},
						{
							"internalType": "uint256",
							"name": "val",
							"type": "uint256"
						}
					],
					"name": "setStatus",
					"outputs": [],
					"stateMutability": "nonpayable",
					"type": "function"
				}
			],
			"devdoc": {
				"kind": "dev",
				"methods": {},
				"version": 1
			},
			"evm": {
				"assembly": "    /* \"crowdfunding.sol\":290:2529  contract CrowdfundingContract {... */\n  mstore(0x40, 0x80)\n  callvalue\n  dup1\n  iszero\n  tag_1\n  jumpi\n  0x00\n  dup1\n  revert\ntag_1:\n  pop\n  dataSize(sub_0)\n  dup1\n  dataOffset(sub_0)\n  0x00\n  codecopy\n  0x00\n  return\nstop\n\nsub_0: assembly {\n        /* \"crowdfunding.sol\":290:2529  contract CrowdfundingContract {... */\n      mstore(0x40, 0x80)\n      callvalue\n      dup1\n      iszero\n      tag_1\n      jumpi\n      0x00\n      dup1\n      revert\n    tag_1:\n      pop\n      jumpi(tag_2, lt(calldatasize, 0x04))\n      shr(0xe0, calldataload(0x00))\n      dup1\n      0x377e6ff7\n      eq\n      tag_3\n      jumpi\n      dup1\n      0x80c9419e\n      eq\n      tag_4\n      jumpi\n      dup1\n      0x82e40813\n      eq\n      tag_5\n      jumpi\n      dup1\n      0x904cc175\n      eq\n      tag_6\n      jumpi\n      dup1\n      0xa97af4d5\n      eq\n      tag_7\n      jumpi\n    tag_2:\n      0x00\n      dup1\n      revert\n        /* \"crowdfunding.sol\":2395:2526  function getMyCrowdfunding(address addr) public view returns (Crowdfunding[] memory) {... */\n    tag_3:\n      tag_8\n      0x04\n      dup1\n      calldatasize\n      sub\n      dup2\n      add\n      swap1\n      tag_9\n      swap2\n      swap1\n      tag_10\n      jump\t// in\n    tag_9:\n      tag_11\n      jump\t// in\n    tag_8:\n      mload(0x40)\n      tag_12\n      swap2\n      swap1\n      tag_13\n      jump\t// in\n    tag_12:\n      mload(0x40)\n      dup1\n      swap2\n      sub\n      swap1\n      return\n        /* \"crowdfunding.sol\":813:839  Crowdfunding[] public list */\n    tag_4:\n      tag_14\n      0x04\n      dup1\n      calldatasize\n      sub\n      dup2\n      add\n      swap1\n      tag_15\n      swap2\n      swap1\n      tag_16\n      jump\t// in\n    tag_15:\n      tag_17\n      jump\t// in\n    tag_14:\n      mload(0x40)\n      tag_18\n      swap9\n      swap8\n      swap7\n      swap6\n      swap5\n      swap4\n      swap3\n      swap2\n      swap1\n      tag_19\n      jump\t// in\n    tag_18:\n      mload(0x40)\n      dup1\n      swap2\n      sub\n      swap1\n      return\n        /* \"crowdfunding.sol\":1654:2112  function setStatus(uint num,uint val) public {... */\n    tag_5:\n      tag_20\n      0x04\n      dup1\n      calldatasize\n      sub\n      dup2\n      add\n      swap1\n      tag_21\n      swap2\n      swap1\n      tag_22\n      jump\t// in\n    tag_21:\n      tag_23\n      jump\t// in\n    tag_20:\n      stop\n        /* \"crowdfunding.sol\":2162:2345  function getCrowdfundingByStatus(uint _status) public view returns (Crowdfunding[] memory) {... */\n    tag_6:\n      tag_24\n      0x04\n      dup1\n      calldatasize\n      sub\n      dup2\n      add\n      swap1\n      tag_25\n      swap2\n      swap1\n      tag_16\n      jump\t// in\n    tag_25:\n      tag_26\n      jump\t// in\n    tag_24:\n      mload(0x40)\n      tag_27\n      swap2\n      swap1\n      tag_13\n      jump\t// in\n    tag_27:\n      mload(0x40)\n      dup1\n      swap2\n      sub\n      swap1\n      return\n        /* \"crowdfunding.sol\":959:1575  function createCrowdfunding(string memory _title,address _recipient, string memory _expectAmout) public {... */\n    tag_7:\n      tag_28\n      0x04\n      dup1\n      calldatasize\n      sub\n      dup2\n      add\n      swap1\n      tag_29\n      swap2\n      swap1\n      tag_30\n      jump\t// in\n    tag_29:\n      tag_31\n      jump\t// in\n    tag_28:\n      stop\n        /* \"crowdfunding.sol\":2395:2526  function getMyCrowdfunding(address addr) public view returns (Crowdfunding[] memory) {... */\n    tag_11:\n        /* \"crowdfunding.sol\":2457:2478  Crowdfunding[] memory */\n      0x60\n        /* \"crowdfunding.sol\":2498:2512  myCrowdfunding */\n      0x03\n        /* \"crowdfunding.sol\":2498:2518  myCrowdfunding[addr] */\n      0x00\n        /* \"crowdfunding.sol\":2513:2517  addr */\n      dup4\n        /* \"crowdfunding.sol\":2498:2518  myCrowdfunding[addr] */\n      0xffffffffffffffffffffffffffffffffffffffff\n      and\n      0xffffffffffffffffffffffffffffffffffffffff\n      and\n      dup2\n      mstore\n      0x20\n      add\n      swap1\n      dup2\n      mstore\n      0x20\n      add\n      0x00\n      keccak256\n        /* \"crowdfunding.sol\":2491:2518  return myCrowdfunding[addr] */\n      dup1\n      sload\n      dup1\n      0x20\n      mul\n      0x20\n      add\n      mload(0x40)\n      swap1\n      dup2\n      add\n      0x40\n      mstore\n      dup1\n      swap3\n      swap2\n      swap1\n      dup2\n      dup2\n      mstore\n      0x20\n      add\n      0x00\n      swap1\n    tag_33:\n      dup3\n      dup3\n      lt\n      iszero\n      tag_34\n      jumpi\n      dup4\n      dup3\n      swap1\n      0x00\n      mstore\n      keccak256(0x00, 0x20)\n      swap1\n      0x08\n      mul\n      add\n      mload(0x40)\n      dup1\n      0x0100\n      add\n      0x40\n      mstore\n      swap1\n      dup2\n      0x00\n      dup3\n      add\n      sload\n      dup2\n      mstore\n      0x20\n      add\n      0x01\n      dup3\n      add\n      dup1\n      sload\n      tag_36\n      swap1\n      tag_37\n      jump\t// in\n    tag_36:\n      dup1\n      0x1f\n      add\n      0x20\n      dup1\n      swap2\n      div\n      mul\n      0x20\n      add\n      mload(0x40)\n      swap1\n      dup2\n      add\n      0x40\n      mstore\n      dup1\n      swap3\n      swap2\n      swap1\n      dup2\n      dup2\n      mstore\n      0x20\n      add\n      dup3\n      dup1\n      sload\n      tag_38\n      swap1\n      tag_37\n      jump\t// in\n    tag_38:\n      dup1\n      iszero\n      tag_39\n      jumpi\n      dup1\n      0x1f\n      lt\n      tag_40\n      jumpi\n      0x0100\n      dup1\n      dup4\n      sload\n      div\n      mul\n      dup4\n      mstore\n      swap2\n      0x20\n      add\n      swap2\n      jump(tag_39)\n    tag_40:\n      dup3\n      add\n      swap2\n      swap1\n      0x00\n      mstore\n      keccak256(0x00, 0x20)\n      swap1\n    tag_41:\n      dup2\n      sload\n      dup2\n      mstore\n      swap1\n      0x01\n      add\n      swap1\n      0x20\n      add\n      dup1\n      dup4\n      gt\n      tag_41\n      jumpi\n      dup3\n      swap1\n      sub\n      0x1f\n      and\n      dup3\n      add\n      swap2\n    tag_39:\n      pop\n      pop\n      pop\n      pop\n      pop\n      dup2\n      mstore\n      0x20\n      add\n      0x02\n      dup3\n      add\n      sload\n      dup2\n      mstore\n      0x20\n      add\n      0x03\n      dup3\n      add\n      0x00\n      swap1\n      sload\n      swap1\n      0x0100\n      exp\n      swap1\n      div\n      0xffffffffffffffffffffffffffffffffffffffff\n      and\n      0xffffffffffffffffffffffffffffffffffffffff\n      and\n      0xffffffffffffffffffffffffffffffffffffffff\n      and\n      dup2\n      mstore\n      0x20\n      add\n      0x04\n      dup3\n      add\n      0x00\n      swap1\n      sload\n      swap1\n      0x0100\n      exp\n      swap1\n      div\n      0xffffffffffffffffffffffffffffffffffffffff\n      and\n      0xffffffffffffffffffffffffffffffffffffffff\n      and\n      0xffffffffffffffffffffffffffffffffffffffff\n      and\n      dup2\n      mstore\n      0x20\n      add\n      0x05\n      dup3\n      add\n      sload\n      dup2\n      mstore\n      0x20\n      add\n      0x06\n      dup3\n      add\n      dup1\n      sload\n      tag_42\n      swap1\n      tag_37\n      jump\t// in\n    tag_42:\n      dup1\n      0x1f\n      add\n      0x20\n      dup1\n      swap2\n      div\n      mul\n      0x20\n      add\n      mload(0x40)\n      swap1\n      dup2\n      add\n      0x40\n      mstore\n      dup1\n      swap3\n      swap2\n      swap1\n      dup2\n      dup2\n      mstore\n      0x20\n      add\n      dup3\n      dup1\n      sload\n      tag_43\n      swap1\n      tag_37\n      jump\t// in\n    tag_43:\n      dup1\n      iszero\n      tag_44\n      jumpi\n      dup1\n      0x1f\n      lt\n      tag_45\n      jumpi\n      0x0100\n      dup1\n      dup4\n      sload\n      div\n      mul\n      dup4\n      mstore\n      swap2\n      0x20\n      add\n      swap2\n      jump(tag_44)\n    tag_45:\n      dup3\n      add\n      swap2\n      swap1\n      0x00\n      mstore\n      keccak256(0x00, 0x20)\n      swap1\n    tag_46:\n      dup2\n      sload\n      dup2\n      mstore\n      swap1\n      0x01\n      add\n      swap1\n      0x20\n      add\n      dup1\n      dup4\n      gt\n      tag_46\n      jumpi\n      dup3\n      swap1\n      sub\n      0x1f\n      and\n      dup3\n      add\n      swap2\n    tag_44:\n      pop\n      pop\n      pop\n      pop\n      pop\n      dup2\n      mstore\n      0x20\n      add\n      0x07\n      dup3\n      add\n      dup1\n      sload\n      tag_47\n      swap1\n      tag_37\n      jump\t// in\n    tag_47:\n      dup1\n      0x1f\n      add\n      0x20\n      dup1\n      swap2\n      div\n      mul\n      0x20\n      add\n      mload(0x40)\n      swap1\n      dup2\n      add\n      0x40\n      mstore\n      dup1\n      swap3\n      swap2\n      swap1\n      dup2\n      dup2\n      mstore\n      0x20\n      add\n      dup3\n      dup1\n      sload\n      tag_48\n      swap1\n      tag_37\n      jump\t// in\n    tag_48:\n      dup1\n      iszero\n      tag_49\n      jumpi\n      dup1\n      0x1f\n      lt\n      tag_50\n      jumpi\n      0x0100\n      dup1\n      dup4\n      sload\n      div\n      mul\n      dup4\n      mstore\n      swap2\n      0x20\n      add\n      swap2\n      jump(tag_49)\n    tag_50:\n      dup3\n      add\n      swap2\n      swap1\n      0x00\n      mstore\n      keccak256(0x00, 0x20)\n      swap1\n    tag_51:\n      dup2\n      sload\n      dup2\n      mstore\n      swap1\n      0x01\n      add\n      swap1\n      0x20\n      add\n      dup1\n      dup4\n      gt\n      tag_51\n      jumpi\n      dup3\n      swap1\n      sub\n      0x1f\n      and\n      dup3\n      add\n      swap2\n    tag_49:\n      pop\n      pop\n      pop\n      pop\n      pop\n      dup2\n      mstore\n      pop\n      pop\n      dup2\n      mstore\n      0x20\n      add\n      swap1\n      0x01\n      add\n      swap1\n      jump(tag_33)\n    tag_34:\n      pop\n      pop\n      pop\n      pop\n      swap1\n      pop\n        /* \"crowdfunding.sol\":2395:2526  function getMyCrowdfunding(address addr) public view returns (Crowdfunding[] memory) {... */\n      swap2\n      swap1\n      pop\n      jump\t// out\n        /* \"crowdfunding.sol\":813:839  Crowdfunding[] public list */\n    tag_17:\n      0x01\n      dup2\n      dup2\n      sload\n      dup2\n      lt\n      tag_52\n      jumpi\n      0x00\n      dup1\n      revert\n    tag_52:\n      swap1\n      0x00\n      mstore\n      keccak256(0x00, 0x20)\n      swap1\n      0x08\n      mul\n      add\n      0x00\n      swap2\n      pop\n      swap1\n      pop\n      dup1\n      0x00\n      add\n      sload\n      swap1\n      dup1\n      0x01\n      add\n      dup1\n      sload\n      tag_54\n      swap1\n      tag_37\n      jump\t// in\n    tag_54:\n      dup1\n      0x1f\n      add\n      0x20\n      dup1\n      swap2\n      div\n      mul\n      0x20\n      add\n      mload(0x40)\n      swap1\n      dup2\n      add\n      0x40\n      mstore\n      dup1\n      swap3\n      swap2\n      swap1\n      dup2\n      dup2\n      mstore\n      0x20\n      add\n      dup3\n      dup1\n      sload\n      tag_55\n      swap1\n      tag_37\n      jump\t// in\n    tag_55:\n      dup1\n      iszero\n      tag_56\n      jumpi\n      dup1\n      0x1f\n      lt\n      tag_57\n      jumpi\n      0x0100\n      dup1\n      dup4\n      sload\n      div\n      mul\n      dup4\n      mstore\n      swap2\n      0x20\n      add\n      swap2\n      jump(tag_56)\n    tag_57:\n      dup3\n      add\n      swap2\n      swap1\n      0x00\n      mstore\n      keccak256(0x00, 0x20)\n      swap1\n    tag_58:\n      dup2\n      sload\n      dup2\n      mstore\n      swap1\n      0x01\n      add\n      swap1\n      0x20\n      add\n      dup1\n      dup4\n      gt\n      tag_58\n      jumpi\n      dup3\n      swap1\n      sub\n      0x1f\n      and\n      dup3\n      add\n      swap2\n    tag_56:\n      pop\n      pop\n      pop\n      pop\n      pop\n      swap1\n      dup1\n      0x02\n      add\n      sload\n      swap1\n      dup1\n      0x03\n      add\n      0x00\n      swap1\n      sload\n      swap1\n      0x0100\n      exp\n      swap1\n      div\n      0xffffffffffffffffffffffffffffffffffffffff\n      and\n      swap1\n      dup1\n      0x04\n      add\n      0x00\n      swap1\n      sload\n      swap1\n      0x0100\n      exp\n      swap1\n      div\n      0xffffffffffffffffffffffffffffffffffffffff\n      and\n      swap1\n      dup1\n      0x05\n      add\n      sload\n      swap1\n      dup1\n      0x06\n      add\n      dup1\n      sload\n      tag_59\n      swap1\n      tag_37\n      jump\t// in\n    tag_59:\n      dup1\n      0x1f\n      add\n      0x20\n      dup1\n      swap2\n      div\n      mul\n      0x20\n      add\n      mload(0x40)\n      swap1\n      dup2\n      add\n      0x40\n      mstore\n      dup1\n      swap3\n      swap2\n      swap1\n      dup2\n      dup2\n      mstore\n      0x20\n      add\n      dup3\n      dup1\n      sload\n      tag_60\n      swap1\n      tag_37\n      jump\t// in\n    tag_60:\n      dup1\n      iszero\n      tag_61\n      jumpi\n      dup1\n      0x1f\n      lt\n      tag_62\n      jumpi\n      0x0100\n      dup1\n      dup4\n      sload\n      div\n      mul\n      dup4\n      mstore\n      swap2\n      0x20\n      add\n      swap2\n      jump(tag_61)\n    tag_62:\n      dup3\n      add\n      swap2\n      swap1\n      0x00\n      mstore\n      keccak256(0x00, 0x20)\n      swap1\n    tag_63:\n      dup2\n      sload\n      dup2\n      mstore\n      swap1\n      0x01\n      add\n      swap1\n      0x20\n      add\n      dup1\n      dup4\n      gt\n      tag_63\n      jumpi\n      dup3\n      swap1\n      sub\n      0x1f\n      and\n      dup3\n      add\n      swap2\n    tag_61:\n      pop\n      pop\n      pop\n      pop\n      pop\n      swap1\n      dup1\n      0x07\n      add\n      dup1\n      sload\n      tag_64\n      swap1\n      tag_37\n      jump\t// in\n    tag_64:\n      dup1\n      0x1f\n      add\n      0x20\n      dup1\n      swap2\n      div\n      mul\n      0x20\n      add\n      mload(0x40)\n      swap1\n      dup2\n      add\n      0x40\n      mstore\n      dup1\n      swap3\n      swap2\n      swap1\n      dup2\n      dup2\n      mstore\n      0x20\n      add\n      dup3\n      dup1\n      sload\n      tag_65\n      swap1\n      tag_37\n      jump\t// in\n    tag_65:\n      dup1\n      iszero\n      tag_66\n      jumpi\n      dup1\n      0x1f\n      lt\n      tag_67\n      jumpi\n      0x0100\n      dup1\n      dup4\n      sload\n      div\n      mul\n      dup4\n      mstore\n      swap2\n      0x20\n      add\n      swap2\n      jump(tag_66)\n    tag_67:\n      dup3\n      add\n      swap2\n      swap1\n      0x00\n      mstore\n      keccak256(0x00, 0x20)\n      swap1\n    tag_68:\n      dup2\n      sload\n      dup2\n      mstore\n      swap1\n      0x01\n      add\n      swap1\n      0x20\n      add\n      dup1\n      dup4\n      gt\n      tag_68\n      jumpi\n      dup3\n      swap1\n      sub\n      0x1f\n      and\n      dup3\n      add\n      swap2\n    tag_66:\n      pop\n      pop\n      pop\n      pop\n      pop\n      swap1\n      pop\n      dup9\n      jump\t// out\n        /* \"crowdfunding.sol\":1654:2112  function setStatus(uint num,uint val) public {... */\n    tag_23:\n        /* \"crowdfunding.sol\":1729:1732  val */\n      dup1\n        /* \"crowdfunding.sol\":1710:1714  list */\n      0x01\n        /* \"crowdfunding.sol\":1715:1718  num */\n      dup4\n        /* \"crowdfunding.sol\":1710:1719  list[num] */\n      dup2\n      sload\n      dup2\n      lt\n      tag_70\n      jumpi\n      tag_71\n      tag_72\n      jump\t// in\n    tag_71:\n    tag_70:\n      swap1\n      0x00\n      mstore\n      keccak256(0x00, 0x20)\n      swap1\n      0x08\n      mul\n      add\n        /* \"crowdfunding.sol\":1710:1726  list[num].status */\n      0x02\n      add\n        /* \"crowdfunding.sol\":1710:1732  list[num].status = val */\n      dup2\n      swap1\n      sstore\n      pop\n        /* \"crowdfunding.sol\":1810:1816  uint i */\n      0x00\n        /* \"crowdfunding.sol\":1806:2019  for(uint i = 0; i < filterDataByStatus[1].length - 1; i++) {... */\n    tag_74:\n        /* \"crowdfunding.sol\":1857:1858  1 */\n      0x01\n        /* \"crowdfunding.sol\":1826:1844  filterDataByStatus */\n      0x02\n        /* \"crowdfunding.sol\":1826:1847  filterDataByStatus[1] */\n      0x00\n        /* \"crowdfunding.sol\":1845:1846  1 */\n      0x01\n        /* \"crowdfunding.sol\":1826:1847  filterDataByStatus[1] */\n      dup2\n      mstore\n      0x20\n      add\n      swap1\n      dup2\n      mstore\n      0x20\n      add\n      0x00\n      keccak256\n        /* \"crowdfunding.sol\":1826:1854  filterDataByStatus[1].length */\n      dup1\n      sload\n      swap1\n      pop\n        /* \"crowdfunding.sol\":1826:1858  filterDataByStatus[1].length - 1 */\n      tag_77\n      swap2\n      swap1\n      tag_78\n      jump\t// in\n    tag_77:\n        /* \"crowdfunding.sol\":1822:1823  i */\n      dup2\n        /* \"crowdfunding.sol\":1822:1858  i < filterDataByStatus[1].length - 1 */\n      lt\n        /* \"crowdfunding.sol\":1806:2019  for(uint i = 0; i < filterDataByStatus[1].length - 1; i++) {... */\n      iszero\n      tag_75\n      jumpi\n        /* \"crowdfunding.sol\":1915:1918  num */\n      dup3\n        /* \"crowdfunding.sol\":1883:1901  filterDataByStatus */\n      0x02\n        /* \"crowdfunding.sol\":1883:1904  filterDataByStatus[1] */\n      0x00\n        /* \"crowdfunding.sol\":1902:1903  1 */\n      0x01\n        /* \"crowdfunding.sol\":1883:1904  filterDataByStatus[1] */\n      dup2\n      mstore\n      0x20\n      add\n      swap1\n      dup2\n      mstore\n      0x20\n      add\n      0x00\n      keccak256\n        /* \"crowdfunding.sol\":1905:1906  i */\n      dup3\n        /* \"crowdfunding.sol\":1883:1907  filterDataByStatus[1][i] */\n      dup2\n      sload\n      dup2\n      lt\n      tag_79\n      jumpi\n      tag_80\n      tag_72\n      jump\t// in\n    tag_80:\n    tag_79:\n      swap1\n      0x00\n      mstore\n      keccak256(0x00, 0x20)\n      swap1\n      0x08\n      mul\n      add\n        /* \"crowdfunding.sol\":1883:1911  filterDataByStatus[1][i].num */\n      0x00\n      add\n      sload\n        /* \"crowdfunding.sol\":1883:1918  filterDataByStatus[1][i].num == num */\n      sub\n        /* \"crowdfunding.sol\":1880:2008  if(filterDataByStatus[1][i].num == num) {... */\n      tag_82\n      jumpi\n        /* \"crowdfunding.sol\":1966:1984  filterDataByStatus */\n      0x02\n        /* \"crowdfunding.sol\":1966:1987  filterDataByStatus[1] */\n      0x00\n        /* \"crowdfunding.sol\":1985:1986  1 */\n      0x01\n        /* \"crowdfunding.sol\":1966:1987  filterDataByStatus[1] */\n      dup2\n      mstore\n      0x20\n      add\n      swap1\n      dup2\n      mstore\n      0x20\n      add\n      0x00\n      keccak256\n        /* \"crowdfunding.sol\":1990:1991  1 */\n      0x01\n        /* \"crowdfunding.sol\":1988:1989  i */\n      dup3\n        /* \"crowdfunding.sol\":1988:1991  i+1 */\n      tag_83\n      swap2\n      swap1\n      tag_84\n      jump\t// in\n    tag_83:\n        /* \"crowdfunding.sol\":1966:1992  filterDataByStatus[1][i+1] */\n      dup2\n      sload\n      dup2\n      lt\n      tag_85\n      jumpi\n      tag_86\n      tag_72\n      jump\t// in\n    tag_86:\n    tag_85:\n      swap1\n      0x00\n      mstore\n      keccak256(0x00, 0x20)\n      swap1\n      0x08\n      mul\n      add\n        /* \"crowdfunding.sol\":1939:1957  filterDataByStatus */\n      0x02\n        /* \"crowdfunding.sol\":1939:1960  filterDataByStatus[1] */\n      0x00\n        /* \"crowdfunding.sol\":1958:1959  1 */\n      0x01\n        /* \"crowdfunding.sol\":1939:1960  filterDataByStatus[1] */\n      dup2\n      mstore\n      0x20\n      add\n      swap1\n      dup2\n      mstore\n      0x20\n      add\n      0x00\n      keccak256\n        /* \"crowdfunding.sol\":1961:1962  i */\n      dup3\n        /* \"crowdfunding.sol\":1939:1963  filterDataByStatus[1][i] */\n      dup2\n      sload\n      dup2\n      lt\n      tag_88\n      jumpi\n      tag_89\n      tag_72\n      jump\t// in\n    tag_89:\n    tag_88:\n      swap1\n      0x00\n      mstore\n      keccak256(0x00, 0x20)\n      swap1\n      0x08\n      mul\n      add\n        /* \"crowdfunding.sol\":1939:1992  filterDataByStatus[1][i] = filterDataByStatus[1][i+1] */\n      0x00\n      dup3\n      add\n      sload\n      dup2\n      0x00\n      add\n      sstore\n      0x01\n      dup3\n      add\n      dup2\n      0x01\n      add\n      swap1\n      dup2\n      tag_91\n      swap2\n      swap1\n      tag_92\n      jump\t// in\n    tag_91:\n      pop\n      0x02\n      dup3\n      add\n      sload\n      dup2\n      0x02\n      add\n      sstore\n      0x03\n      dup3\n      add\n      0x00\n      swap1\n      sload\n      swap1\n      0x0100\n      exp\n      swap1\n      div\n      0xffffffffffffffffffffffffffffffffffffffff\n      and\n      dup2\n      0x03\n      add\n      exp(0x0100, 0x00)\n      dup2\n      sload\n      dup2\n      0xffffffffffffffffffffffffffffffffffffffff\n      mul\n      not\n      and\n      swap1\n      dup4\n      0xffffffffffffffffffffffffffffffffffffffff\n      and\n      mul\n      or\n      swap1\n      sstore\n      pop\n      0x04\n      dup3\n      add\n      0x00\n      swap1\n      sload\n      swap1\n      0x0100\n      exp\n      swap1\n      div\n      0xffffffffffffffffffffffffffffffffffffffff\n      and\n      dup2\n      0x04\n      add\n      exp(0x0100, 0x00)\n      dup2\n      sload\n      dup2\n      0xffffffffffffffffffffffffffffffffffffffff\n      mul\n      not\n      and\n      swap1\n      dup4\n      0xffffffffffffffffffffffffffffffffffffffff\n      and\n      mul\n      or\n      swap1\n      sstore\n      pop\n      0x05\n      dup3\n      add\n      sload\n      dup2\n      0x05\n      add\n      sstore\n      0x06\n      dup3\n      add\n      dup2\n      0x06\n      add\n      swap1\n      dup2\n      tag_93\n      swap2\n      swap1\n      tag_92\n      jump\t// in\n    tag_93:\n      pop\n      0x07\n      dup3\n      add\n      dup2\n      0x07\n      add\n      swap1\n      dup2\n      tag_94\n      swap2\n      swap1\n      tag_92\n      jump\t// in\n    tag_94:\n      pop\n      swap1\n      pop\n      pop\n        /* \"crowdfunding.sol\":1880:2008  if(filterDataByStatus[1][i].num == num) {... */\n    tag_82:\n        /* \"crowdfunding.sol\":1860:1863  i++ */\n      dup1\n      dup1\n      tag_95\n      swap1\n      tag_96\n      jump\t// in\n    tag_95:\n      swap2\n      pop\n      pop\n        /* \"crowdfunding.sol\":1806:2019  for(uint i = 0; i < filterDataByStatus[1].length - 1; i++) {... */\n      jump(tag_74)\n    tag_75:\n      pop\n        /* \"crowdfunding.sol\":2029:2047  filterDataByStatus */\n      0x02\n        /* \"crowdfunding.sol\":2029:2050  filterDataByStatus[1] */\n      0x00\n        /* \"crowdfunding.sol\":2048:2049  1 */\n      0x01\n        /* \"crowdfunding.sol\":2029:2050  filterDataByStatus[1] */\n      dup2\n      mstore\n      0x20\n      add\n      swap1\n      dup2\n      mstore\n      0x20\n      add\n      0x00\n      keccak256\n        /* \"crowdfunding.sol\":2029:2056  filterDataByStatus[1].pop() */\n      dup1\n      sload\n      dup1\n      tag_97\n      jumpi\n      tag_98\n      tag_99\n      jump\t// in\n    tag_98:\n    tag_97:\n      0x01\n      swap1\n      sub\n      dup2\n      dup2\n      swap1\n      0x00\n      mstore\n      keccak256(0x00, 0x20)\n      swap1\n      0x08\n      mul\n      add\n      0x00\n      dup1\n      dup3\n      add\n      0x00\n      swap1\n      sstore\n      0x01\n      dup3\n      add\n      0x00\n      tag_101\n      swap2\n      swap1\n      tag_102\n      jump\t// in\n    tag_101:\n      0x02\n      dup3\n      add\n      0x00\n      swap1\n      sstore\n      0x03\n      dup3\n      add\n      exp(0x0100, 0x00)\n      dup2\n      sload\n      swap1\n      0xffffffffffffffffffffffffffffffffffffffff\n      mul\n      not\n      and\n      swap1\n      sstore\n      0x04\n      dup3\n      add\n      exp(0x0100, 0x00)\n      dup2\n      sload\n      swap1\n      0xffffffffffffffffffffffffffffffffffffffff\n      mul\n      not\n      and\n      swap1\n      sstore\n      0x05\n      dup3\n      add\n      0x00\n      swap1\n      sstore\n      0x06\n      dup3\n      add\n      0x00\n      tag_103\n      swap2\n      swap1\n      tag_102\n      jump\t// in\n    tag_103:\n      0x07\n      dup3\n      add\n      0x00\n      tag_104\n      swap2\n      swap1\n      tag_102\n      jump\t// in\n    tag_104:\n      pop\n      pop\n      swap1\n      sstore\n        /* \"crowdfunding.sol\":2067:2085  filterDataByStatus */\n      0x02\n        /* \"crowdfunding.sol\":2067:2088  filterDataByStatus[3] */\n      0x00\n        /* \"crowdfunding.sol\":2086:2087  3 */\n      0x03\n        /* \"crowdfunding.sol\":2067:2088  filterDataByStatus[3] */\n      dup2\n      mstore\n      0x20\n      add\n      swap1\n      dup2\n      mstore\n      0x20\n      add\n      0x00\n      keccak256\n        /* \"crowdfunding.sol\":2094:2098  list */\n      0x01\n        /* \"crowdfunding.sol\":2099:2102  num */\n      dup4\n        /* \"crowdfunding.sol\":2094:2103  list[num] */\n      dup2\n      sload\n      dup2\n      lt\n      tag_105\n      jumpi\n      tag_106\n      tag_72\n      jump\t// in\n    tag_106:\n    tag_105:\n      swap1\n      0x00\n      mstore\n      keccak256(0x00, 0x20)\n      swap1\n      0x08\n      mul\n      add\n        /* \"crowdfunding.sol\":2067:2104  filterDataByStatus[3].push(list[num]) */\n      swap1\n      dup1\n      0x01\n      dup2\n      sload\n      add\n      dup1\n      dup3\n      sstore\n      dup1\n      swap2\n      pop\n      pop\n      0x01\n      swap1\n      sub\n      swap1\n      0x00\n      mstore\n      keccak256(0x00, 0x20)\n      swap1\n      0x08\n      mul\n      add\n      0x00\n      swap1\n      swap2\n      swap1\n      swap2\n      swap1\n      swap2\n      pop\n      0x00\n      dup3\n      add\n      sload\n      dup2\n      0x00\n      add\n      sstore\n      0x01\n      dup3\n      add\n      dup2\n      0x01\n      add\n      swap1\n      dup2\n      tag_109\n      swap2\n      swap1\n      tag_92\n      jump\t// in\n    tag_109:\n      pop\n      0x02\n      dup3\n      add\n      sload\n      dup2\n      0x02\n      add\n      sstore\n      0x03\n      dup3\n      add\n      0x00\n      swap1\n      sload\n      swap1\n      0x0100\n      exp\n      swap1\n      div\n      0xffffffffffffffffffffffffffffffffffffffff\n      and\n      dup2\n      0x03\n      add\n      exp(0x0100, 0x00)\n      dup2\n      sload\n      dup2\n      0xffffffffffffffffffffffffffffffffffffffff\n      mul\n      not\n      and\n      swap1\n      dup4\n      0xffffffffffffffffffffffffffffffffffffffff\n      and\n      mul\n      or\n      swap1\n      sstore\n      pop\n      0x04\n      dup3\n      add\n      0x00\n      swap1\n      sload\n      swap1\n      0x0100\n      exp\n      swap1\n      div\n      0xffffffffffffffffffffffffffffffffffffffff\n      and\n      dup2\n      0x04\n      add\n      exp(0x0100, 0x00)\n      dup2\n      sload\n      dup2\n      0xffffffffffffffffffffffffffffffffffffffff\n      mul\n      not\n      and\n      swap1\n      dup4\n      0xffffffffffffffffffffffffffffffffffffffff\n      and\n      mul\n      or\n      swap1\n      sstore\n      pop\n      0x05\n      dup3\n      add\n      sload\n      dup2\n      0x05\n      add\n      sstore\n      0x06\n      dup3\n      add\n      dup2\n      0x06\n      add\n      swap1\n      dup2\n      tag_110\n      swap2\n      swap1\n      tag_92\n      jump\t// in\n    tag_110:\n      pop\n      0x07\n      dup3\n      add\n      dup2\n      0x07\n      add\n      swap1\n      dup2\n      tag_111\n      swap2\n      swap1\n      tag_92\n      jump\t// in\n    tag_111:\n      pop\n      pop\n      pop\n        /* \"crowdfunding.sol\":1654:2112  function setStatus(uint num,uint val) public {... */\n      pop\n      pop\n      jump\t// out\n        /* \"crowdfunding.sol\":2162:2345  function getCrowdfundingByStatus(uint _status) public view returns (Crowdfunding[] memory) {... */\n    tag_26:\n        /* \"crowdfunding.sol\":2230:2251  Crowdfunding[] memory */\n      0x60\n        /* \"crowdfunding.sol\":2278:2279  0 */\n      0x00\n        /* \"crowdfunding.sol\":2267:2274  _status */\n      dup3\n        /* \"crowdfunding.sol\":2267:2279  _status == 0 */\n      sub\n        /* \"crowdfunding.sol\":2264:2292  if(_status == 0) return list */\n      tag_113\n      jumpi\n        /* \"crowdfunding.sol\":2288:2292  list */\n      0x01\n        /* \"crowdfunding.sol\":2281:2292  return list */\n      dup1\n      sload\n      dup1\n      0x20\n      mul\n      0x20\n      add\n      mload(0x40)\n      swap1\n      dup2\n      add\n      0x40\n      mstore\n      dup1\n      swap3\n      swap2\n      swap1\n      dup2\n      dup2\n      mstore\n      0x20\n      add\n      0x00\n      swap1\n    tag_114:\n      dup3\n      dup3\n      lt\n      iszero\n      tag_115\n      jumpi\n      dup4\n      dup3\n      swap1\n      0x00\n      mstore\n      keccak256(0x00, 0x20)\n      swap1\n      0x08\n      mul\n      add\n      mload(0x40)\n      dup1\n      0x0100\n      add\n      0x40\n      mstore\n      swap1\n      dup2\n      0x00\n      dup3\n      add\n      sload\n      dup2\n      mstore\n      0x20\n      add\n      0x01\n      dup3\n      add\n      dup1\n      sload\n      tag_117\n      swap1\n      tag_37\n      jump\t// in\n    tag_117:\n      dup1\n      0x1f\n      add\n      0x20\n      dup1\n      swap2\n      div\n      mul\n      0x20\n      add\n      mload(0x40)\n      swap1\n      dup2\n      add\n      0x40\n      mstore\n      dup1\n      swap3\n      swap2\n      swap1\n      dup2\n      dup2\n      mstore\n      0x20\n      add\n      dup3\n      dup1\n      sload\n      tag_118\n      swap1\n      tag_37\n      jump\t// in\n    tag_118:\n      dup1\n      iszero\n      tag_119\n      jumpi\n      dup1\n      0x1f\n      lt\n      tag_120\n      jumpi\n      0x0100\n      dup1\n      dup4\n      sload\n      div\n      mul\n      dup4\n      mstore\n      swap2\n      0x20\n      add\n      swap2\n      jump(tag_119)\n    tag_120:\n      dup3\n      add\n      swap2\n      swap1\n      0x00\n      mstore\n      keccak256(0x00, 0x20)\n      swap1\n    tag_121:\n      dup2\n      sload\n      dup2\n      mstore\n      swap1\n      0x01\n      add\n      swap1\n      0x20\n      add\n      dup1\n      dup4\n      gt\n      tag_121\n      jumpi\n      dup3\n      swap1\n      sub\n      0x1f\n      and\n      dup3\n      add\n      swap2\n    tag_119:\n      pop\n      pop\n      pop\n      pop\n      pop\n      dup2\n      mstore\n      0x20\n      add\n      0x02\n      dup3\n      add\n      sload\n      dup2\n      mstore\n      0x20\n      add\n      0x03\n      dup3\n      add\n      0x00\n      swap1\n      sload\n      swap1\n      0x0100\n      exp\n      swap1\n      div\n      0xffffffffffffffffffffffffffffffffffffffff\n      and\n      0xffffffffffffffffffffffffffffffffffffffff\n      and\n      0xffffffffffffffffffffffffffffffffffffffff\n      and\n      dup2\n      mstore\n      0x20\n      add\n      0x04\n      dup3\n      add\n      0x00\n      swap1\n      sload\n      swap1\n      0x0100\n      exp\n      swap1\n      div\n      0xffffffffffffffffffffffffffffffffffffffff\n      and\n      0xffffffffffffffffffffffffffffffffffffffff\n      and\n      0xffffffffffffffffffffffffffffffffffffffff\n      and\n      dup2\n      mstore\n      0x20\n      add\n      0x05\n      dup3\n      add\n      sload\n      dup2\n      mstore\n      0x20\n      add\n      0x06\n      dup3\n      add\n      dup1\n      sload\n      tag_122\n      swap1\n      tag_37\n      jump\t// in\n    tag_122:\n      dup1\n      0x1f\n      add\n      0x20\n      dup1\n      swap2\n      div\n      mul\n      0x20\n      add\n      mload(0x40)\n      swap1\n      dup2\n      add\n      0x40\n      mstore\n      dup1\n      swap3\n      swap2\n      swap1\n      dup2\n      dup2\n      mstore\n      0x20\n      add\n      dup3\n      dup1\n      sload\n      tag_123\n      swap1\n      tag_37\n      jump\t// in\n    tag_123:\n      dup1\n      iszero\n      tag_124\n      jumpi\n      dup1\n      0x1f\n      lt\n      tag_125\n      jumpi\n      0x0100\n      dup1\n      dup4\n      sload\n      div\n      mul\n      dup4\n      mstore\n      swap2\n      0x20\n      add\n      swap2\n      jump(tag_124)\n    tag_125:\n      dup3\n      add\n      swap2\n      swap1\n      0x00\n      mstore\n      keccak256(0x00, 0x20)\n      swap1\n    tag_126:\n      dup2\n      sload\n      dup2\n      mstore\n      swap1\n      0x01\n      add\n      swap1\n      0x20\n      add\n      dup1\n      dup4\n      gt\n      tag_126\n      jumpi\n      dup3\n      swap1\n      sub\n      0x1f\n      and\n      dup3\n      add\n      swap2\n    tag_124:\n      pop\n      pop\n      pop\n      pop\n      pop\n      dup2\n      mstore\n      0x20\n      add\n      0x07\n      dup3\n      add\n      dup1\n      sload\n      tag_127\n      swap1\n      tag_37\n      jump\t// in\n    tag_127:\n      dup1\n      0x1f\n      add\n      0x20\n      dup1\n      swap2\n      div\n      mul\n      0x20\n      add\n      mload(0x40)\n      swap1\n      dup2\n      add\n      0x40\n      mstore\n      dup1\n      swap3\n      swap2\n      swap1\n      dup2\n      dup2\n      mstore\n      0x20\n      add\n      dup3\n      dup1\n      sload\n      tag_128\n      swap1\n      tag_37\n      jump\t// in\n    tag_128:\n      dup1\n      iszero\n      tag_129\n      jumpi\n      dup1\n      0x1f\n      lt\n      tag_130\n      jumpi\n      0x0100\n      dup1\n      dup4\n      sload\n      div\n      mul\n      dup4\n      mstore\n      swap2\n      0x20\n      add\n      swap2\n      jump(tag_129)\n    tag_130:\n      dup3\n      add\n      swap2\n      swap1\n      0x00\n      mstore\n      keccak256(0x00, 0x20)\n      swap1\n    tag_131:\n      dup2\n      sload\n      dup2\n      mstore\n      swap1\n      0x01\n      add\n      swap1\n      0x20\n      add\n      dup1\n      dup4\n      gt\n      tag_131\n      jumpi\n      dup3\n      swap1\n      sub\n      0x1f\n      and\n      dup3\n      add\n      swap2\n    tag_129:\n      pop\n      pop\n      pop\n      pop\n      pop\n      dup2\n      mstore\n      pop\n      pop\n      dup2\n      mstore\n      0x20\n      add\n      swap1\n      0x01\n      add\n      swap1\n      jump(tag_114)\n    tag_115:\n      pop\n      pop\n      pop\n      pop\n      swap1\n      pop\n      jump(tag_112)\n        /* \"crowdfunding.sol\":2264:2292  if(_status == 0) return list */\n    tag_113:\n        /* \"crowdfunding.sol\":2310:2328  filterDataByStatus */\n      0x02\n        /* \"crowdfunding.sol\":2310:2337  filterDataByStatus[_status] */\n      0x00\n        /* \"crowdfunding.sol\":2329:2336  _status */\n      dup4\n        /* \"crowdfunding.sol\":2310:2337  filterDataByStatus[_status] */\n      dup2\n      mstore\n      0x20\n      add\n      swap1\n      dup2\n      mstore\n      0x20\n      add\n      0x00\n      keccak256\n        /* \"crowdfunding.sol\":2303:2337  return filterDataByStatus[_status] */\n      dup1\n      sload\n      dup1\n      0x20\n      mul\n      0x20\n      add\n      mload(0x40)\n      swap1\n      dup2\n      add\n      0x40\n      mstore\n      dup1\n      swap3\n      swap2\n      swap1\n      dup2\n      dup2\n      mstore\n      0x20\n      add\n      0x00\n      swap1\n    tag_132:\n      dup3\n      dup3\n      lt\n      iszero\n      tag_133\n      jumpi\n      dup4\n      dup3\n      swap1\n      0x00\n      mstore\n      keccak256(0x00, 0x20)\n      swap1\n      0x08\n      mul\n      add\n      mload(0x40)\n      dup1\n      0x0100\n      add\n      0x40\n      mstore\n      swap1\n      dup2\n      0x00\n      dup3\n      add\n      sload\n      dup2\n      mstore\n      0x20\n      add\n      0x01\n      dup3\n      add\n      dup1\n      sload\n      tag_135\n      swap1\n      tag_37\n      jump\t// in\n    tag_135:\n      dup1\n      0x1f\n      add\n      0x20\n      dup1\n      swap2\n      div\n      mul\n      0x20\n      add\n      mload(0x40)\n      swap1\n      dup2\n      add\n      0x40\n      mstore\n      dup1\n      swap3\n      swap2\n      swap1\n      dup2\n      dup2\n      mstore\n      0x20\n      add\n      dup3\n      dup1\n      sload\n      tag_136\n      swap1\n      tag_37\n      jump\t// in\n    tag_136:\n      dup1\n      iszero\n      tag_137\n      jumpi\n      dup1\n      0x1f\n      lt\n      tag_138\n      jumpi\n      0x0100\n      dup1\n      dup4\n      sload\n      div\n      mul\n      dup4\n      mstore\n      swap2\n      0x20\n      add\n      swap2\n      jump(tag_137)\n    tag_138:\n      dup3\n      add\n      swap2\n      swap1\n      0x00\n      mstore\n      keccak256(0x00, 0x20)\n      swap1\n    tag_139:\n      dup2\n      sload\n      dup2\n      mstore\n      swap1\n      0x01\n      add\n      swap1\n      0x20\n      add\n      dup1\n      dup4\n      gt\n      tag_139\n      jumpi\n      dup3\n      swap1\n      sub\n      0x1f\n      and\n      dup3\n      add\n      swap2\n    tag_137:\n      pop\n      pop\n      pop\n      pop\n      pop\n      dup2\n      mstore\n      0x20\n      add\n      0x02\n      dup3\n      add\n      sload\n      dup2\n      mstore\n      0x20\n      add\n      0x03\n      dup3\n      add\n      0x00\n      swap1\n      sload\n      swap1\n      0x0100\n      exp\n      swap1\n      div\n      0xffffffffffffffffffffffffffffffffffffffff\n      and\n      0xffffffffffffffffffffffffffffffffffffffff\n      and\n      0xffffffffffffffffffffffffffffffffffffffff\n      and\n      dup2\n      mstore\n      0x20\n      add\n      0x04\n      dup3\n      add\n      0x00\n      swap1\n      sload\n      swap1\n      0x0100\n      exp\n      swap1\n      div\n      0xffffffffffffffffffffffffffffffffffffffff\n      and\n      0xffffffffffffffffffffffffffffffffffffffff\n      and\n      0xffffffffffffffffffffffffffffffffffffffff\n      and\n      dup2\n      mstore\n      0x20\n      add\n      0x05\n      dup3\n      add\n      sload\n      dup2\n      mstore\n      0x20\n      add\n      0x06\n      dup3\n      add\n      dup1\n      sload\n      tag_140\n      swap1\n      tag_37\n      jump\t// in\n    tag_140:\n      dup1\n      0x1f\n      add\n      0x20\n      dup1\n      swap2\n      div\n      mul\n      0x20\n      add\n      mload(0x40)\n      swap1\n      dup2\n      add\n      0x40\n      mstore\n      dup1\n      swap3\n      swap2\n      swap1\n      dup2\n      dup2\n      mstore\n      0x20\n      add\n      dup3\n      dup1\n      sload\n      tag_141\n      swap1\n      tag_37\n      jump\t// in\n    tag_141:\n      dup1\n      iszero\n      tag_142\n      jumpi\n      dup1\n      0x1f\n      lt\n      tag_143\n      jumpi\n      0x0100\n      dup1\n      dup4\n      sload\n      div\n      mul\n      dup4\n      mstore\n      swap2\n      0x20\n      add\n      swap2\n      jump(tag_142)\n    tag_143:\n      dup3\n      add\n      swap2\n      swap1\n      0x00\n      mstore\n      keccak256(0x00, 0x20)\n      swap1\n    tag_144:\n      dup2\n      sload\n      dup2\n      mstore\n      swap1\n      0x01\n      add\n      swap1\n      0x20\n      add\n      dup1\n      dup4\n      gt\n      tag_144\n      jumpi\n      dup3\n      swap1\n      sub\n      0x1f\n      and\n      dup3\n      add\n      swap2\n    tag_142:\n      pop\n      pop\n      pop\n      pop\n      pop\n      dup2\n      mstore\n      0x20\n      add\n      0x07\n      dup3\n      add\n      dup1\n      sload\n      tag_145\n      swap1\n      tag_37\n      jump\t// in\n    tag_145:\n      dup1\n      0x1f\n      add\n      0x20\n      dup1\n      swap2\n      div\n      mul\n      0x20\n      add\n      mload(0x40)\n      swap1\n      dup2\n      add\n      0x40\n      mstore\n      dup1\n      swap3\n      swap2\n      swap1\n      dup2\n      dup2\n      mstore\n      0x20\n      add\n      dup3\n      dup1\n      sload\n      tag_146\n      swap1\n      tag_37\n      jump\t// in\n    tag_146:\n      dup1\n      iszero\n      tag_147\n      jumpi\n      dup1\n      0x1f\n      lt\n      tag_148\n      jumpi\n      0x0100\n      dup1\n      dup4\n      sload\n      div\n      mul\n      dup4\n      mstore\n      swap2\n      0x20\n      add\n      swap2\n      jump(tag_147)\n    tag_148:\n      dup3\n      add\n      swap2\n      swap1\n      0x00\n      mstore\n      keccak256(0x00, 0x20)\n      swap1\n    tag_149:\n      dup2\n      sload\n      dup2\n      mstore\n      swap1\n      0x01\n      add\n      swap1\n      0x20\n      add\n      dup1\n      dup4\n      gt\n      tag_149\n      jumpi\n      dup3\n      swap1\n      sub\n      0x1f\n      and\n      dup3\n      add\n      swap2\n    tag_147:\n      pop\n      pop\n      pop\n      pop\n      pop\n      dup2\n      mstore\n      pop\n      pop\n      dup2\n      mstore\n      0x20\n      add\n      swap1\n      0x01\n      add\n      swap1\n      jump(tag_132)\n    tag_133:\n      pop\n      pop\n      pop\n      pop\n      swap1\n      pop\n        /* \"crowdfunding.sol\":2162:2345  function getCrowdfundingByStatus(uint _status) public view returns (Crowdfunding[] memory) {... */\n    tag_112:\n      swap2\n      swap1\n      pop\n      jump\t// out\n        /* \"crowdfunding.sol\":959:1575  function createCrowdfunding(string memory _title,address _recipient, string memory _expectAmout) public {... */\n    tag_31:\n        /* \"crowdfunding.sol\":1074:1076  No */\n      0x00\n      dup1\n        /* \"crowdfunding.sol\":1074:1078  No++ */\n      dup2\n      sload\n      dup1\n      swap3\n      swap2\n      swap1\n      tag_151\n      swap1\n      tag_96\n      jump\t// in\n    tag_151:\n      swap2\n      swap1\n      pop\n      sstore\n      pop\n        /* \"crowdfunding.sol\":1089:1110  Crowdfunding memory c */\n      0x00\n        /* \"crowdfunding.sol\":1113:1385  Crowdfunding({... */\n      mload(0x40)\n      dup1\n      0x0100\n      add\n      0x40\n      mstore\n      dup1\n        /* \"crowdfunding.sol\":1146:1148  No */\n      sload(0x00)\n        /* \"crowdfunding.sol\":1113:1385  Crowdfunding({... */\n      dup2\n      mstore\n      0x20\n      add\n        /* \"crowdfunding.sol\":1169:1175  _title */\n      dup6\n        /* \"crowdfunding.sol\":1113:1385  Crowdfunding({... */\n      dup2\n      mstore\n      0x20\n      add\n        /* \"crowdfunding.sol\":1198:1199  0 */\n      0x00\n        /* \"crowdfunding.sol\":1113:1385  Crowdfunding({... */\n      dup2\n      mstore\n      0x20\n      add\n        /* \"crowdfunding.sol\":1223:1233  msg.sender */\n      caller\n        /* \"crowdfunding.sol\":1113:1385  Crowdfunding({... */\n      0xffffffffffffffffffffffffffffffffffffffff\n      and\n      dup2\n      mstore\n      0x20\n      add\n        /* \"crowdfunding.sol\":1259:1269  _recipient */\n      dup5\n        /* \"crowdfunding.sol\":1113:1385  Crowdfunding({... */\n      0xffffffffffffffffffffffffffffffffffffffff\n      and\n      dup2\n      mstore\n      0x20\n      add\n        /* \"crowdfunding.sol\":1293:1294  0 */\n      0x00\n        /* \"crowdfunding.sol\":1113:1385  Crowdfunding({... */\n      dup2\n      mstore\n      0x20\n      add\n        /* \"crowdfunding.sol\":1329:1341  _expectAmout */\n      dup4\n        /* \"crowdfunding.sol\":1113:1385  Crowdfunding({... */\n      dup2\n      mstore\n      0x20\n      add\n      mload(0x40)\n      dup1\n      0x40\n      add\n      0x40\n      mstore\n      dup1\n      0x01\n      dup2\n      mstore\n      0x20\n      add\n      0x3000000000000000000000000000000000000000000000000000000000000000\n      dup2\n      mstore\n      pop\n      dup2\n      mstore\n      pop\n        /* \"crowdfunding.sol\":1089:1385  Crowdfunding memory c = Crowdfunding({... */\n      swap1\n      pop\n        /* \"crowdfunding.sol\":1396:1400  list */\n      0x01\n        /* \"crowdfunding.sol\":1406:1407  c */\n      dup2\n        /* \"crowdfunding.sol\":1396:1408  list.push(c) */\n      swap1\n      dup1\n      0x01\n      dup2\n      sload\n      add\n      dup1\n      dup3\n      sstore\n      dup1\n      swap2\n      pop\n      pop\n      0x01\n      swap1\n      sub\n      swap1\n      0x00\n      mstore\n      keccak256(0x00, 0x20)\n      swap1\n      0x08\n      mul\n      add\n      0x00\n      swap1\n      swap2\n      swap1\n      swap2\n      swap1\n      swap2\n      pop\n      0x00\n      dup3\n      add\n      mload\n      dup2\n      0x00\n      add\n      sstore\n      0x20\n      dup3\n      add\n      mload\n      dup2\n      0x01\n      add\n      swap1\n      dup2\n      tag_153\n      swap2\n      swap1\n      tag_154\n      jump\t// in\n    tag_153:\n      pop\n      0x40\n      dup3\n      add\n      mload\n      dup2\n      0x02\n      add\n      sstore\n      0x60\n      dup3\n      add\n      mload\n      dup2\n      0x03\n      add\n      exp(0x0100, 0x00)\n      dup2\n      sload\n      dup2\n      0xffffffffffffffffffffffffffffffffffffffff\n      mul\n      not\n      and\n      swap1\n      dup4\n      0xffffffffffffffffffffffffffffffffffffffff\n      and\n      mul\n      or\n      swap1\n      sstore\n      pop\n      0x80\n      dup3\n      add\n      mload\n      dup2\n      0x04\n      add\n      exp(0x0100, 0x00)\n      dup2\n      sload\n      dup2\n      0xffffffffffffffffffffffffffffffffffffffff\n      mul\n      not\n      and\n      swap1\n      dup4\n      0xffffffffffffffffffffffffffffffffffffffff\n      and\n      mul\n      or\n      swap1\n      sstore\n      pop\n      0xa0\n      dup3\n      add\n      mload\n      dup2\n      0x05\n      add\n      sstore\n      0xc0\n      dup3\n      add\n      mload\n      dup2\n      0x06\n      add\n      swap1\n      dup2\n      tag_155\n      swap2\n      swap1\n      tag_154\n      jump\t// in\n    tag_155:\n      pop\n      0xe0\n      dup3\n      add\n      mload\n      dup2\n      0x07\n      add\n      swap1\n      dup2\n      tag_156\n      swap2\n      swap1\n      tag_154\n      jump\t// in\n    tag_156:\n      pop\n      pop\n      pop\n        /* \"crowdfunding.sol\":1493:1511  filterDataByStatus */\n      0x02\n        /* \"crowdfunding.sol\":1493:1514  filterDataByStatus[1] */\n      0x00\n        /* \"crowdfunding.sol\":1512:1513  1 */\n      0x01\n        /* \"crowdfunding.sol\":1493:1514  filterDataByStatus[1] */\n      dup2\n      mstore\n      0x20\n      add\n      swap1\n      dup2\n      mstore\n      0x20\n      add\n      0x00\n      keccak256\n        /* \"crowdfunding.sol\":1520:1521  c */\n      dup2\n        /* \"crowdfunding.sol\":1493:1522  filterDataByStatus[1].push(c) */\n      swap1\n      dup1\n      0x01\n      dup2\n      sload\n      add\n      dup1\n      dup3\n      sstore\n      dup1\n      swap2\n      pop\n      pop\n      0x01\n      swap1\n      sub\n      swap1\n      0x00\n      mstore\n      keccak256(0x00, 0x20)\n      swap1\n      0x08\n      mul\n      add\n      0x00\n      swap1\n      swap2\n      swap1\n      swap2\n      swap1\n      swap2\n      pop\n      0x00\n      dup3\n      add\n      mload\n      dup2\n      0x00\n      add\n      sstore\n      0x20\n      dup3\n      add\n      mload\n      dup2\n      0x01\n      add\n      swap1\n      dup2\n      tag_158\n      swap2\n      swap1\n      tag_154\n      jump\t// in\n    tag_158:\n      pop\n      0x40\n      dup3\n      add\n      mload\n      dup2\n      0x02\n      add\n      sstore\n      0x60\n      dup3\n      add\n      mload\n      dup2\n      0x03\n      add\n      exp(0x0100, 0x00)\n      dup2\n      sload\n      dup2\n      0xffffffffffffffffffffffffffffffffffffffff\n      mul\n      not\n      and\n      swap1\n      dup4\n      0xffffffffffffffffffffffffffffffffffffffff\n      and\n      mul\n      or\n      swap1\n      sstore\n      pop\n      0x80\n      dup3\n      add\n      mload\n      dup2\n      0x04\n      add\n      exp(0x0100, 0x00)\n      dup2\n      sload\n      dup2\n      0xffffffffffffffffffffffffffffffffffffffff\n      mul\n      not\n      and\n      swap1\n      dup4\n      0xffffffffffffffffffffffffffffffffffffffff\n      and\n      mul\n      or\n      swap1\n      sstore\n      pop\n      0xa0\n      dup3\n      add\n      mload\n      dup2\n      0x05\n      add\n      sstore\n      0xc0\n      dup3\n      add\n      mload\n      dup2\n      0x06\n      add\n      swap1\n      dup2\n      tag_159\n      swap2\n      swap1\n      tag_154\n      jump\t// in\n    tag_159:\n      pop\n      0xe0\n      dup3\n      add\n      mload\n      dup2\n      0x07\n      add\n      swap1\n      dup2\n      tag_160\n      swap2\n      swap1\n      tag_154\n      jump\t// in\n    tag_160:\n      pop\n      pop\n      pop\n        /* \"crowdfunding.sol\":1533:1547  myCrowdfunding */\n      0x03\n        /* \"crowdfunding.sol\":1533:1559  myCrowdfunding[msg.sender] */\n      0x00\n        /* \"crowdfunding.sol\":1548:1558  msg.sender */\n      caller\n        /* \"crowdfunding.sol\":1533:1559  myCrowdfunding[msg.sender] */\n      0xffffffffffffffffffffffffffffffffffffffff\n      and\n      0xffffffffffffffffffffffffffffffffffffffff\n      and\n      dup2\n      mstore\n      0x20\n      add\n      swap1\n      dup2\n      mstore\n      0x20\n      add\n      0x00\n      keccak256\n        /* \"crowdfunding.sol\":1565:1566  c */\n      dup2\n        /* \"crowdfunding.sol\":1533:1567  myCrowdfunding[msg.sender].push(c) */\n      swap1\n      dup1\n      0x01\n      dup2\n      sload\n      add\n      dup1\n      dup3\n      sstore\n      dup1\n      swap2\n      pop\n      pop\n      0x01\n      swap1\n      sub\n      swap1\n      0x00\n      mstore\n      keccak256(0x00, 0x20)\n      swap1\n      0x08\n      mul\n      add\n      0x00\n      swap1\n      swap2\n      swap1\n      swap2\n      swap1\n      swap2\n      pop\n      0x00\n      dup3\n      add\n      mload\n      dup2\n      0x00\n      add\n      sstore\n      0x20\n      dup3\n      add\n      mload\n      dup2\n      0x01\n      add\n      swap1\n      dup2\n      tag_162\n      swap2\n      swap1\n      tag_154\n      jump\t// in\n    tag_162:\n      pop\n      0x40\n      dup3\n      add\n      mload\n      dup2\n      0x02\n      add\n      sstore\n      0x60\n      dup3\n      add\n      mload\n      dup2\n      0x03\n      add\n      exp(0x0100, 0x00)\n      dup2\n      sload\n      dup2\n      0xffffffffffffffffffffffffffffffffffffffff\n      mul\n      not\n      and\n      swap1\n      dup4\n      0xffffffffffffffffffffffffffffffffffffffff\n      and\n      mul\n      or\n      swap1\n      sstore\n      pop\n      0x80\n      dup3\n      add\n      mload\n      dup2\n      0x04\n      add\n      exp(0x0100, 0x00)\n      dup2\n      sload\n      dup2\n      0xffffffffffffffffffffffffffffffffffffffff\n      mul\n      not\n      and\n      swap1\n      dup4\n      0xffffffffffffffffffffffffffffffffffffffff\n      and\n      mul\n      or\n      swap1\n      sstore\n      pop\n      0xa0\n      dup3\n      add\n      mload\n      dup2\n      0x05\n      add\n      sstore\n      0xc0\n      dup3\n      add\n      mload\n      dup2\n      0x06\n      add\n      swap1\n      dup2\n      tag_163\n      swap2\n      swap1\n      tag_154\n      jump\t// in\n    tag_163:\n      pop\n      0xe0\n      dup3\n      add\n      mload\n      dup2\n      0x07\n      add\n      swap1\n      dup2\n      tag_164\n      swap2\n      swap1\n      tag_154\n      jump\t// in\n    tag_164:\n      pop\n      pop\n      pop\n        /* \"crowdfunding.sol\":1063:1575  {... */\n      pop\n        /* \"crowdfunding.sol\":959:1575  function createCrowdfunding(string memory _title,address _recipient, string memory _expectAmout) public {... */\n      pop\n      pop\n      pop\n      jump\t// out\n    tag_102:\n      pop\n      dup1\n      sload\n      tag_165\n      swap1\n      tag_37\n      jump\t// in\n    tag_165:\n      0x00\n      dup3\n      sstore\n      dup1\n      0x1f\n      lt\n      tag_167\n      jumpi\n      pop\n      jump(tag_166)\n    tag_167:\n      0x1f\n      add\n      0x20\n      swap1\n      div\n      swap1\n      0x00\n      mstore\n      keccak256(0x00, 0x20)\n      swap1\n      dup2\n      add\n      swap1\n      tag_168\n      swap2\n      swap1\n      tag_169\n      jump\t// in\n    tag_168:\n    tag_166:\n      pop\n      jump\t// out\n    tag_169:\n    tag_170:\n      dup1\n      dup3\n      gt\n      iszero\n      tag_171\n      jumpi\n      0x00\n      dup2\n      0x00\n      swap1\n      sstore\n      pop\n      0x01\n      add\n      jump(tag_170)\n    tag_171:\n      pop\n      swap1\n      jump\t// out\n        /* \"#utility.yul\":7:82   */\n    tag_172:\n        /* \"#utility.yul\":40:46   */\n      0x00\n        /* \"#utility.yul\":73:75   */\n      0x40\n        /* \"#utility.yul\":67:76   */\n      mload\n        /* \"#utility.yul\":57:76   */\n      swap1\n      pop\n        /* \"#utility.yul\":7:82   */\n      swap1\n      jump\t// out\n        /* \"#utility.yul\":88:205   */\n    tag_173:\n        /* \"#utility.yul\":197:198   */\n      0x00\n        /* \"#utility.yul\":194:195   */\n      dup1\n        /* \"#utility.yul\":187:199   */\n      revert\n        /* \"#utility.yul\":211:328   */\n    tag_174:\n        /* \"#utility.yul\":320:321   */\n      0x00\n        /* \"#utility.yul\":317:318   */\n      dup1\n        /* \"#utility.yul\":310:322   */\n      revert\n        /* \"#utility.yul\":334:460   */\n    tag_175:\n        /* \"#utility.yul\":371:378   */\n      0x00\n        /* \"#utility.yul\":411:453   */\n      0xffffffffffffffffffffffffffffffffffffffff\n        /* \"#utility.yul\":404:409   */\n      dup3\n        /* \"#utility.yul\":400:454   */\n      and\n        /* \"#utility.yul\":389:454   */\n      swap1\n      pop\n        /* \"#utility.yul\":334:460   */\n      swap2\n      swap1\n      pop\n      jump\t// out\n        /* \"#utility.yul\":466:562   */\n    tag_176:\n        /* \"#utility.yul\":503:510   */\n      0x00\n        /* \"#utility.yul\":532:556   */\n      tag_233\n        /* \"#utility.yul\":550:555   */\n      dup3\n        /* \"#utility.yul\":532:556   */\n      tag_175\n      jump\t// in\n    tag_233:\n        /* \"#utility.yul\":521:556   */\n      swap1\n      pop\n        /* \"#utility.yul\":466:562   */\n      swap2\n      swap1\n      pop\n      jump\t// out\n        /* \"#utility.yul\":568:690   */\n    tag_177:\n        /* \"#utility.yul\":641:665   */\n      tag_235\n        /* \"#utility.yul\":659:664   */\n      dup2\n        /* \"#utility.yul\":641:665   */\n      tag_176\n      jump\t// in\n    tag_235:\n        /* \"#utility.yul\":634:639   */\n      dup2\n        /* \"#utility.yul\":631:666   */\n      eq\n        /* \"#utility.yul\":621:684   */\n      tag_236\n      jumpi\n        /* \"#utility.yul\":680:681   */\n      0x00\n        /* \"#utility.yul\":677:678   */\n      dup1\n        /* \"#utility.yul\":670:682   */\n      revert\n        /* \"#utility.yul\":621:684   */\n    tag_236:\n        /* \"#utility.yul\":568:690   */\n      pop\n      jump\t// out\n        /* \"#utility.yul\":696:835   */\n    tag_178:\n        /* \"#utility.yul\":742:747   */\n      0x00\n        /* \"#utility.yul\":780:786   */\n      dup2\n        /* \"#utility.yul\":767:787   */\n      calldataload\n        /* \"#utility.yul\":758:787   */\n      swap1\n      pop\n        /* \"#utility.yul\":796:829   */\n      tag_238\n        /* \"#utility.yul\":823:828   */\n      dup2\n        /* \"#utility.yul\":796:829   */\n      tag_177\n      jump\t// in\n    tag_238:\n        /* \"#utility.yul\":696:835   */\n      swap3\n      swap2\n      pop\n      pop\n      jump\t// out\n        /* \"#utility.yul\":841:1170   */\n    tag_10:\n        /* \"#utility.yul\":900:906   */\n      0x00\n        /* \"#utility.yul\":949:951   */\n      0x20\n        /* \"#utility.yul\":937:946   */\n      dup3\n        /* \"#utility.yul\":928:935   */\n      dup5\n        /* \"#utility.yul\":924:947   */\n      sub\n        /* \"#utility.yul\":920:952   */\n      slt\n        /* \"#utility.yul\":917:1036   */\n      iszero\n      tag_240\n      jumpi\n        /* \"#utility.yul\":955:1034   */\n      tag_241\n      tag_173\n      jump\t// in\n    tag_241:\n        /* \"#utility.yul\":917:1036   */\n    tag_240:\n        /* \"#utility.yul\":1075:1076   */\n      0x00\n        /* \"#utility.yul\":1100:1153   */\n      tag_242\n        /* \"#utility.yul\":1145:1152   */\n      dup5\n        /* \"#utility.yul\":1136:1142   */\n      dup3\n        /* \"#utility.yul\":1125:1134   */\n      dup6\n        /* \"#utility.yul\":1121:1143   */\n      add\n        /* \"#utility.yul\":1100:1153   */\n      tag_178\n      jump\t// in\n    tag_242:\n        /* \"#utility.yul\":1090:1153   */\n      swap2\n      pop\n        /* \"#utility.yul\":1046:1163   */\n      pop\n        /* \"#utility.yul\":841:1170   */\n      swap3\n      swap2\n      pop\n      pop\n      jump\t// out\n        /* \"#utility.yul\":1176:1318   */\n    tag_179:\n        /* \"#utility.yul\":1271:1277   */\n      0x00\n        /* \"#utility.yul\":1305:1310   */\n      dup2\n        /* \"#utility.yul\":1299:1311   */\n      mload\n        /* \"#utility.yul\":1289:1311   */\n      swap1\n      pop\n        /* \"#utility.yul\":1176:1318   */\n      swap2\n      swap1\n      pop\n      jump\t// out\n        /* \"#utility.yul\":1324:1536   */\n    tag_180:\n        /* \"#utility.yul\":1451:1462   */\n      0x00\n        /* \"#utility.yul\":1485:1491   */\n      dup3\n        /* \"#utility.yul\":1480:1483   */\n      dup3\n        /* \"#utility.yul\":1473:1492   */\n      mstore\n        /* \"#utility.yul\":1525:1529   */\n      0x20\n        /* \"#utility.yul\":1520:1523   */\n      dup3\n        /* \"#utility.yul\":1516:1530   */\n      add\n        /* \"#utility.yul\":1501:1530   */\n      swap1\n      pop\n        /* \"#utility.yul\":1324:1536   */\n      swap3\n      swap2\n      pop\n      pop\n      jump\t// out\n        /* \"#utility.yul\":1542:1702   */\n    tag_181:\n        /* \"#utility.yul\":1637:1641   */\n      0x00\n        /* \"#utility.yul\":1660:1663   */\n      dup2\n        /* \"#utility.yul\":1652:1663   */\n      swap1\n      pop\n        /* \"#utility.yul\":1690:1694   */\n      0x20\n        /* \"#utility.yul\":1685:1688   */\n      dup3\n        /* \"#utility.yul\":1681:1695   */\n      add\n        /* \"#utility.yul\":1673:1695   */\n      swap1\n      pop\n        /* \"#utility.yul\":1542:1702   */\n      swap2\n      swap1\n      pop\n      jump\t// out\n        /* \"#utility.yul\":1708:1785   */\n    tag_182:\n        /* \"#utility.yul\":1745:1752   */\n      0x00\n        /* \"#utility.yul\":1774:1779   */\n      dup2\n        /* \"#utility.yul\":1763:1779   */\n      swap1\n      pop\n        /* \"#utility.yul\":1708:1785   */\n      swap2\n      swap1\n      pop\n      jump\t// out\n        /* \"#utility.yul\":1791:1899   */\n    tag_183:\n        /* \"#utility.yul\":1868:1892   */\n      tag_248\n        /* \"#utility.yul\":1886:1891   */\n      dup2\n        /* \"#utility.yul\":1868:1892   */\n      tag_182\n      jump\t// in\n    tag_248:\n        /* \"#utility.yul\":1863:1866   */\n      dup3\n        /* \"#utility.yul\":1856:1893   */\n      mstore\n        /* \"#utility.yul\":1791:1899   */\n      pop\n      pop\n      jump\t// out\n        /* \"#utility.yul\":1905:2004   */\n    tag_184:\n        /* \"#utility.yul\":1957:1963   */\n      0x00\n        /* \"#utility.yul\":1991:1996   */\n      dup2\n        /* \"#utility.yul\":1985:1997   */\n      mload\n        /* \"#utility.yul\":1975:1997   */\n      swap1\n      pop\n        /* \"#utility.yul\":1905:2004   */\n      swap2\n      swap1\n      pop\n      jump\t// out\n        /* \"#utility.yul\":2010:2169   */\n    tag_185:\n        /* \"#utility.yul\":2084:2095   */\n      0x00\n        /* \"#utility.yul\":2118:2124   */\n      dup3\n        /* \"#utility.yul\":2113:2116   */\n      dup3\n        /* \"#utility.yul\":2106:2125   */\n      mstore\n        /* \"#utility.yul\":2158:2162   */\n      0x20\n        /* \"#utility.yul\":2153:2156   */\n      dup3\n        /* \"#utility.yul\":2149:2163   */\n      add\n        /* \"#utility.yul\":2134:2163   */\n      swap1\n      pop\n        /* \"#utility.yul\":2010:2169   */\n      swap3\n      swap2\n      pop\n      pop\n      jump\t// out\n        /* \"#utility.yul\":2175:2482   */\n    tag_186:\n        /* \"#utility.yul\":2243:2244   */\n      0x00\n        /* \"#utility.yul\":2253:2366   */\n    tag_252:\n        /* \"#utility.yul\":2267:2273   */\n      dup4\n        /* \"#utility.yul\":2264:2265   */\n      dup2\n        /* \"#utility.yul\":2261:2274   */\n      lt\n        /* \"#utility.yul\":2253:2366   */\n      iszero\n      tag_254\n      jumpi\n        /* \"#utility.yul\":2352:2353   */\n      dup1\n        /* \"#utility.yul\":2347:2350   */\n      dup3\n        /* \"#utility.yul\":2343:2354   */\n      add\n        /* \"#utility.yul\":2337:2355   */\n      mload\n        /* \"#utility.yul\":2333:2334   */\n      dup2\n        /* \"#utility.yul\":2328:2331   */\n      dup5\n        /* \"#utility.yul\":2324:2335   */\n      add\n        /* \"#utility.yul\":2317:2356   */\n      mstore\n        /* \"#utility.yul\":2289:2291   */\n      0x20\n        /* \"#utility.yul\":2286:2287   */\n      dup2\n        /* \"#utility.yul\":2282:2292   */\n      add\n        /* \"#utility.yul\":2277:2292   */\n      swap1\n      pop\n        /* \"#utility.yul\":2253:2366   */\n      jump(tag_252)\n    tag_254:\n        /* \"#utility.yul\":2384:2390   */\n      dup4\n        /* \"#utility.yul\":2381:2382   */\n      dup2\n        /* \"#utility.yul\":2378:2391   */\n      gt\n        /* \"#utility.yul\":2375:2476   */\n      iszero\n      tag_255\n      jumpi\n        /* \"#utility.yul\":2464:2465   */\n      0x00\n        /* \"#utility.yul\":2455:2461   */\n      dup5\n        /* \"#utility.yul\":2450:2453   */\n      dup5\n        /* \"#utility.yul\":2446:2462   */\n      add\n        /* \"#utility.yul\":2439:2466   */\n      mstore\n        /* \"#utility.yul\":2375:2476   */\n    tag_255:\n        /* \"#utility.yul\":2224:2482   */\n      pop\n        /* \"#utility.yul\":2175:2482   */\n      pop\n      pop\n      pop\n      jump\t// out\n        /* \"#utility.yul\":2488:2590   */\n    tag_187:\n        /* \"#utility.yul\":2529:2535   */\n      0x00\n        /* \"#utility.yul\":2580:2582   */\n      0x1f\n        /* \"#utility.yul\":2576:2583   */\n      not\n        /* \"#utility.yul\":2571:2573   */\n      0x1f\n        /* \"#utility.yul\":2564:2569   */\n      dup4\n        /* \"#utility.yul\":2560:2574   */\n      add\n        /* \"#utility.yul\":2556:2584   */\n      and\n        /* \"#utility.yul\":2546:2584   */\n      swap1\n      pop\n        /* \"#utility.yul\":2488:2590   */\n      swap2\n      swap1\n      pop\n      jump\t// out\n        /* \"#utility.yul\":2596:2940   */\n    tag_188:\n        /* \"#utility.yul\":2674:2677   */\n      0x00\n        /* \"#utility.yul\":2702:2741   */\n      tag_258\n        /* \"#utility.yul\":2735:2740   */\n      dup3\n        /* \"#utility.yul\":2702:2741   */\n      tag_184\n      jump\t// in\n    tag_258:\n        /* \"#utility.yul\":2757:2818   */\n      tag_259\n        /* \"#utility.yul\":2811:2817   */\n      dup2\n        /* \"#utility.yul\":2806:2809   */\n      dup6\n        /* \"#utility.yul\":2757:2818   */\n      tag_185\n      jump\t// in\n    tag_259:\n        /* \"#utility.yul\":2750:2818   */\n      swap4\n      pop\n        /* \"#utility.yul\":2827:2879   */\n      tag_260\n        /* \"#utility.yul\":2872:2878   */\n      dup2\n        /* \"#utility.yul\":2867:2870   */\n      dup6\n        /* \"#utility.yul\":2860:2864   */\n      0x20\n        /* \"#utility.yul\":2853:2858   */\n      dup7\n        /* \"#utility.yul\":2849:2865   */\n      add\n        /* \"#utility.yul\":2827:2879   */\n      tag_186\n      jump\t// in\n    tag_260:\n        /* \"#utility.yul\":2904:2933   */\n      tag_261\n        /* \"#utility.yul\":2926:2932   */\n      dup2\n        /* \"#utility.yul\":2904:2933   */\n      tag_187\n      jump\t// in\n    tag_261:\n        /* \"#utility.yul\":2899:2902   */\n      dup5\n        /* \"#utility.yul\":2895:2934   */\n      add\n        /* \"#utility.yul\":2888:2934   */\n      swap2\n      pop\n        /* \"#utility.yul\":2678:2940   */\n      pop\n        /* \"#utility.yul\":2596:2940   */\n      swap3\n      swap2\n      pop\n      pop\n      jump\t// out\n        /* \"#utility.yul\":2946:3054   */\n    tag_189:\n        /* \"#utility.yul\":3023:3047   */\n      tag_263\n        /* \"#utility.yul\":3041:3046   */\n      dup2\n        /* \"#utility.yul\":3023:3047   */\n      tag_176\n      jump\t// in\n    tag_263:\n        /* \"#utility.yul\":3018:3021   */\n      dup3\n        /* \"#utility.yul\":3011:3048   */\n      mstore\n        /* \"#utility.yul\":2946:3054   */\n      pop\n      pop\n      jump\t// out\n        /* \"#utility.yul\":3152:4970   */\n    tag_190:\n        /* \"#utility.yul\":3267:3270   */\n      0x00\n        /* \"#utility.yul\":3303:3309   */\n      0x0100\n        /* \"#utility.yul\":3298:3301   */\n      dup4\n        /* \"#utility.yul\":3294:3310   */\n      add\n        /* \"#utility.yul\":3391:3395   */\n      0x00\n        /* \"#utility.yul\":3384:3389   */\n      dup4\n        /* \"#utility.yul\":3380:3396   */\n      add\n        /* \"#utility.yul\":3374:3397   */\n      mload\n        /* \"#utility.yul\":3410:3473   */\n      tag_265\n        /* \"#utility.yul\":3467:3471   */\n      0x00\n        /* \"#utility.yul\":3462:3465   */\n      dup7\n        /* \"#utility.yul\":3458:3472   */\n      add\n        /* \"#utility.yul\":3444:3456   */\n      dup3\n        /* \"#utility.yul\":3410:3473   */\n      tag_183\n      jump\t// in\n    tag_265:\n        /* \"#utility.yul\":3320:3483   */\n      pop\n        /* \"#utility.yul\":3566:3570   */\n      0x20\n        /* \"#utility.yul\":3559:3564   */\n      dup4\n        /* \"#utility.yul\":3555:3571   */\n      add\n        /* \"#utility.yul\":3549:3572   */\n      mload\n        /* \"#utility.yul\":3619:3622   */\n      dup5\n        /* \"#utility.yul\":3613:3617   */\n      dup3\n        /* \"#utility.yul\":3609:3623   */\n      sub\n        /* \"#utility.yul\":3602:3606   */\n      0x20\n        /* \"#utility.yul\":3597:3600   */\n      dup7\n        /* \"#utility.yul\":3593:3607   */\n      add\n        /* \"#utility.yul\":3586:3624   */\n      mstore\n        /* \"#utility.yul\":3645:3718   */\n      tag_266\n        /* \"#utility.yul\":3713:3717   */\n      dup3\n        /* \"#utility.yul\":3699:3711   */\n      dup3\n        /* \"#utility.yul\":3645:3718   */\n      tag_188\n      jump\t// in\n    tag_266:\n        /* \"#utility.yul\":3637:3718   */\n      swap2\n      pop\n        /* \"#utility.yul\":3493:3729   */\n      pop\n        /* \"#utility.yul\":3813:3817   */\n      0x40\n        /* \"#utility.yul\":3806:3811   */\n      dup4\n        /* \"#utility.yul\":3802:3818   */\n      add\n        /* \"#utility.yul\":3796:3819   */\n      mload\n        /* \"#utility.yul\":3832:3895   */\n      tag_267\n        /* \"#utility.yul\":3889:3893   */\n      0x40\n        /* \"#utility.yul\":3884:3887   */\n      dup7\n        /* \"#utility.yul\":3880:3894   */\n      add\n        /* \"#utility.yul\":3866:3878   */\n      dup3\n        /* \"#utility.yul\":3832:3895   */\n      tag_183\n      jump\t// in\n    tag_267:\n        /* \"#utility.yul\":3739:3905   */\n      pop\n        /* \"#utility.yul\":3990:3994   */\n      0x60\n        /* \"#utility.yul\":3983:3988   */\n      dup4\n        /* \"#utility.yul\":3979:3995   */\n      add\n        /* \"#utility.yul\":3973:3996   */\n      mload\n        /* \"#utility.yul\":4009:4072   */\n      tag_268\n        /* \"#utility.yul\":4066:4070   */\n      0x60\n        /* \"#utility.yul\":4061:4064   */\n      dup7\n        /* \"#utility.yul\":4057:4071   */\n      add\n        /* \"#utility.yul\":4043:4055   */\n      dup3\n        /* \"#utility.yul\":4009:4072   */\n      tag_189\n      jump\t// in\n    tag_268:\n        /* \"#utility.yul\":3915:4082   */\n      pop\n        /* \"#utility.yul\":4169:4173   */\n      0x80\n        /* \"#utility.yul\":4162:4167   */\n      dup4\n        /* \"#utility.yul\":4158:4174   */\n      add\n        /* \"#utility.yul\":4152:4175   */\n      mload\n        /* \"#utility.yul\":4188:4251   */\n      tag_269\n        /* \"#utility.yul\":4245:4249   */\n      0x80\n        /* \"#utility.yul\":4240:4243   */\n      dup7\n        /* \"#utility.yul\":4236:4250   */\n      add\n        /* \"#utility.yul\":4222:4234   */\n      dup3\n        /* \"#utility.yul\":4188:4251   */\n      tag_189\n      jump\t// in\n    tag_269:\n        /* \"#utility.yul\":4092:4261   */\n      pop\n        /* \"#utility.yul\":4346:4350   */\n      0xa0\n        /* \"#utility.yul\":4339:4344   */\n      dup4\n        /* \"#utility.yul\":4335:4351   */\n      add\n        /* \"#utility.yul\":4329:4352   */\n      mload\n        /* \"#utility.yul\":4365:4428   */\n      tag_270\n        /* \"#utility.yul\":4422:4426   */\n      0xa0\n        /* \"#utility.yul\":4417:4420   */\n      dup7\n        /* \"#utility.yul\":4413:4427   */\n      add\n        /* \"#utility.yul\":4399:4411   */\n      dup3\n        /* \"#utility.yul\":4365:4428   */\n      tag_183\n      jump\t// in\n    tag_270:\n        /* \"#utility.yul\":4271:4438   */\n      pop\n        /* \"#utility.yul\":4527:4531   */\n      0xc0\n        /* \"#utility.yul\":4520:4525   */\n      dup4\n        /* \"#utility.yul\":4516:4532   */\n      add\n        /* \"#utility.yul\":4510:4533   */\n      mload\n        /* \"#utility.yul\":4580:4583   */\n      dup5\n        /* \"#utility.yul\":4574:4578   */\n      dup3\n        /* \"#utility.yul\":4570:4584   */\n      sub\n        /* \"#utility.yul\":4563:4567   */\n      0xc0\n        /* \"#utility.yul\":4558:4561   */\n      dup7\n        /* \"#utility.yul\":4554:4568   */\n      add\n        /* \"#utility.yul\":4547:4585   */\n      mstore\n        /* \"#utility.yul\":4606:4679   */\n      tag_271\n        /* \"#utility.yul\":4674:4678   */\n      dup3\n        /* \"#utility.yul\":4660:4672   */\n      dup3\n        /* \"#utility.yul\":4606:4679   */\n      tag_188\n      jump\t// in\n    tag_271:\n        /* \"#utility.yul\":4598:4679   */\n      swap2\n      pop\n        /* \"#utility.yul\":4448:4690   */\n      pop\n        /* \"#utility.yul\":4780:4784   */\n      0xe0\n        /* \"#utility.yul\":4773:4778   */\n      dup4\n        /* \"#utility.yul\":4769:4785   */\n      add\n        /* \"#utility.yul\":4763:4786   */\n      mload\n        /* \"#utility.yul\":4833:4836   */\n      dup5\n        /* \"#utility.yul\":4827:4831   */\n      dup3\n        /* \"#utility.yul\":4823:4837   */\n      sub\n        /* \"#utility.yul\":4816:4820   */\n      0xe0\n        /* \"#utility.yul\":4811:4814   */\n      dup7\n        /* \"#utility.yul\":4807:4821   */\n      add\n        /* \"#utility.yul\":4800:4838   */\n      mstore\n        /* \"#utility.yul\":4859:4932   */\n      tag_272\n        /* \"#utility.yul\":4927:4931   */\n      dup3\n        /* \"#utility.yul\":4913:4925   */\n      dup3\n        /* \"#utility.yul\":4859:4932   */\n      tag_188\n      jump\t// in\n    tag_272:\n        /* \"#utility.yul\":4851:4932   */\n      swap2\n      pop\n        /* \"#utility.yul\":4700:4943   */\n      pop\n        /* \"#utility.yul\":4960:4964   */\n      dup1\n        /* \"#utility.yul\":4953:4964   */\n      swap2\n      pop\n        /* \"#utility.yul\":3272:4970   */\n      pop\n        /* \"#utility.yul\":3152:4970   */\n      swap3\n      swap2\n      pop\n      pop\n      jump\t// out\n        /* \"#utility.yul\":4976:5244   */\n    tag_191:\n        /* \"#utility.yul\":5101:5111   */\n      0x00\n        /* \"#utility.yul\":5136:5238   */\n      tag_274\n        /* \"#utility.yul\":5234:5237   */\n      dup4\n        /* \"#utility.yul\":5226:5232   */\n      dup4\n        /* \"#utility.yul\":5136:5238   */\n      tag_190\n      jump\t// in\n    tag_274:\n        /* \"#utility.yul\":5122:5238   */\n      swap1\n      pop\n        /* \"#utility.yul\":4976:5244   */\n      swap3\n      swap2\n      pop\n      pop\n      jump\t// out\n        /* \"#utility.yul\":5250:5391   */\n    tag_192:\n        /* \"#utility.yul\":5348:5352   */\n      0x00\n        /* \"#utility.yul\":5380:5384   */\n      0x20\n        /* \"#utility.yul\":5375:5378   */\n      dup3\n        /* \"#utility.yul\":5371:5385   */\n      add\n        /* \"#utility.yul\":5363:5385   */\n      swap1\n      pop\n        /* \"#utility.yul\":5250:5391   */\n      swap2\n      swap1\n      pop\n      jump\t// out\n        /* \"#utility.yul\":5493:6628   */\n    tag_193:\n        /* \"#utility.yul\":5668:5671   */\n      0x00\n        /* \"#utility.yul\":5697:5779   */\n      tag_277\n        /* \"#utility.yul\":5773:5778   */\n      dup3\n        /* \"#utility.yul\":5697:5779   */\n      tag_179\n      jump\t// in\n    tag_277:\n        /* \"#utility.yul\":5795:5909   */\n      tag_278\n        /* \"#utility.yul\":5902:5908   */\n      dup2\n        /* \"#utility.yul\":5897:5900   */\n      dup6\n        /* \"#utility.yul\":5795:5909   */\n      tag_180\n      jump\t// in\n    tag_278:\n        /* \"#utility.yul\":5788:5909   */\n      swap4\n      pop\n        /* \"#utility.yul\":5935:5938   */\n      dup4\n        /* \"#utility.yul\":5980:5984   */\n      0x20\n        /* \"#utility.yul\":5972:5978   */\n      dup3\n        /* \"#utility.yul\":5968:5985   */\n      mul\n        /* \"#utility.yul\":5963:5966   */\n      dup6\n        /* \"#utility.yul\":5959:5986   */\n      add\n        /* \"#utility.yul\":6010:6094   */\n      tag_279\n        /* \"#utility.yul\":6088:6093   */\n      dup6\n        /* \"#utility.yul\":6010:6094   */\n      tag_181\n      jump\t// in\n    tag_279:\n        /* \"#utility.yul\":6117:6124   */\n      dup1\n        /* \"#utility.yul\":6148:6149   */\n      0x00\n        /* \"#utility.yul\":6133:6583   */\n    tag_280:\n        /* \"#utility.yul\":6158:6164   */\n      dup6\n        /* \"#utility.yul\":6155:6156   */\n      dup2\n        /* \"#utility.yul\":6152:6165   */\n      lt\n        /* \"#utility.yul\":6133:6583   */\n      iszero\n      tag_282\n      jumpi\n        /* \"#utility.yul\":6229:6238   */\n      dup5\n        /* \"#utility.yul\":6223:6227   */\n      dup5\n        /* \"#utility.yul\":6219:6239   */\n      sub\n        /* \"#utility.yul\":6214:6217   */\n      dup10\n        /* \"#utility.yul\":6207:6240   */\n      mstore\n        /* \"#utility.yul\":6280:6286   */\n      dup2\n        /* \"#utility.yul\":6274:6287   */\n      mload\n        /* \"#utility.yul\":6308:6428   */\n      tag_283\n        /* \"#utility.yul\":6423:6427   */\n      dup6\n        /* \"#utility.yul\":6408:6421   */\n      dup3\n        /* \"#utility.yul\":6308:6428   */\n      tag_191\n      jump\t// in\n    tag_283:\n        /* \"#utility.yul\":6300:6428   */\n      swap5\n      pop\n        /* \"#utility.yul\":6451:6539   */\n      tag_284\n        /* \"#utility.yul\":6532:6538   */\n      dup4\n        /* \"#utility.yul\":6451:6539   */\n      tag_192\n      jump\t// in\n    tag_284:\n        /* \"#utility.yul\":6441:6539   */\n      swap3\n      pop\n        /* \"#utility.yul\":6568:6572   */\n      0x20\n        /* \"#utility.yul\":6563:6566   */\n      dup11\n        /* \"#utility.yul\":6559:6573   */\n      add\n        /* \"#utility.yul\":6552:6573   */\n      swap10\n      pop\n        /* \"#utility.yul\":6193:6583   */\n      pop\n        /* \"#utility.yul\":6180:6181   */\n      0x01\n        /* \"#utility.yul\":6177:6178   */\n      dup2\n        /* \"#utility.yul\":6173:6182   */\n      add\n        /* \"#utility.yul\":6168:6182   */\n      swap1\n      pop\n        /* \"#utility.yul\":6133:6583   */\n      jump(tag_280)\n    tag_282:\n        /* \"#utility.yul\":6137:6151   */\n      pop\n        /* \"#utility.yul\":6599:6603   */\n      dup3\n        /* \"#utility.yul\":6592:6603   */\n      swap8\n      pop\n        /* \"#utility.yul\":6619:6622   */\n      dup8\n        /* \"#utility.yul\":6612:6622   */\n      swap6\n      pop\n        /* \"#utility.yul\":5673:6628   */\n      pop\n      pop\n      pop\n      pop\n      pop\n        /* \"#utility.yul\":5493:6628   */\n      swap3\n      swap2\n      pop\n      pop\n      jump\t// out\n        /* \"#utility.yul\":6634:7119   */\n    tag_13:\n        /* \"#utility.yul\":6833:6837   */\n      0x00\n        /* \"#utility.yul\":6871:6873   */\n      0x20\n        /* \"#utility.yul\":6860:6869   */\n      dup3\n        /* \"#utility.yul\":6856:6874   */\n      add\n        /* \"#utility.yul\":6848:6874   */\n      swap1\n      pop\n        /* \"#utility.yul\":6920:6929   */\n      dup2\n        /* \"#utility.yul\":6914:6918   */\n      dup2\n        /* \"#utility.yul\":6910:6930   */\n      sub\n        /* \"#utility.yul\":6906:6907   */\n      0x00\n        /* \"#utility.yul\":6895:6904   */\n      dup4\n        /* \"#utility.yul\":6891:6908   */\n      add\n        /* \"#utility.yul\":6884:6931   */\n      mstore\n        /* \"#utility.yul\":6948:7112   */\n      tag_286\n        /* \"#utility.yul\":7107:7111   */\n      dup2\n        /* \"#utility.yul\":7098:7104   */\n      dup5\n        /* \"#utility.yul\":6948:7112   */\n      tag_193\n      jump\t// in\n    tag_286:\n        /* \"#utility.yul\":6940:7112   */\n      swap1\n      pop\n        /* \"#utility.yul\":6634:7119   */\n      swap3\n      swap2\n      pop\n      pop\n      jump\t// out\n        /* \"#utility.yul\":7125:7247   */\n    tag_194:\n        /* \"#utility.yul\":7198:7222   */\n      tag_288\n        /* \"#utility.yul\":7216:7221   */\n      dup2\n        /* \"#utility.yul\":7198:7222   */\n      tag_182\n      jump\t// in\n    tag_288:\n        /* \"#utility.yul\":7191:7196   */\n      dup2\n        /* \"#utility.yul\":7188:7223   */\n      eq\n        /* \"#utility.yul\":7178:7241   */\n      tag_289\n      jumpi\n        /* \"#utility.yul\":7237:7238   */\n      0x00\n        /* \"#utility.yul\":7234:7235   */\n      dup1\n        /* \"#utility.yul\":7227:7239   */\n      revert\n        /* \"#utility.yul\":7178:7241   */\n    tag_289:\n        /* \"#utility.yul\":7125:7247   */\n      pop\n      jump\t// out\n        /* \"#utility.yul\":7253:7392   */\n    tag_195:\n        /* \"#utility.yul\":7299:7304   */\n      0x00\n        /* \"#utility.yul\":7337:7343   */\n      dup2\n        /* \"#utility.yul\":7324:7344   */\n      calldataload\n        /* \"#utility.yul\":7315:7344   */\n      swap1\n      pop\n        /* \"#utility.yul\":7353:7386   */\n      tag_291\n        /* \"#utility.yul\":7380:7385   */\n      dup2\n        /* \"#utility.yul\":7353:7386   */\n      tag_194\n      jump\t// in\n    tag_291:\n        /* \"#utility.yul\":7253:7392   */\n      swap3\n      swap2\n      pop\n      pop\n      jump\t// out\n        /* \"#utility.yul\":7398:7727   */\n    tag_16:\n        /* \"#utility.yul\":7457:7463   */\n      0x00\n        /* \"#utility.yul\":7506:7508   */\n      0x20\n        /* \"#utility.yul\":7494:7503   */\n      dup3\n        /* \"#utility.yul\":7485:7492   */\n      dup5\n        /* \"#utility.yul\":7481:7504   */\n      sub\n        /* \"#utility.yul\":7477:7509   */\n      slt\n        /* \"#utility.yul\":7474:7593   */\n      iszero\n      tag_293\n      jumpi\n        /* \"#utility.yul\":7512:7591   */\n      tag_294\n      tag_173\n      jump\t// in\n    tag_294:\n        /* \"#utility.yul\":7474:7593   */\n    tag_293:\n        /* \"#utility.yul\":7632:7633   */\n      0x00\n        /* \"#utility.yul\":7657:7710   */\n      tag_295\n        /* \"#utility.yul\":7702:7709   */\n      dup5\n        /* \"#utility.yul\":7693:7699   */\n      dup3\n        /* \"#utility.yul\":7682:7691   */\n      dup6\n        /* \"#utility.yul\":7678:7700   */\n      add\n        /* \"#utility.yul\":7657:7710   */\n      tag_195\n      jump\t// in\n    tag_295:\n        /* \"#utility.yul\":7647:7710   */\n      swap2\n      pop\n        /* \"#utility.yul\":7603:7720   */\n      pop\n        /* \"#utility.yul\":7398:7727   */\n      swap3\n      swap2\n      pop\n      pop\n      jump\t// out\n        /* \"#utility.yul\":7733:7851   */\n    tag_196:\n        /* \"#utility.yul\":7820:7844   */\n      tag_297\n        /* \"#utility.yul\":7838:7843   */\n      dup2\n        /* \"#utility.yul\":7820:7844   */\n      tag_182\n      jump\t// in\n    tag_297:\n        /* \"#utility.yul\":7815:7818   */\n      dup3\n        /* \"#utility.yul\":7808:7845   */\n      mstore\n        /* \"#utility.yul\":7733:7851   */\n      pop\n      pop\n      jump\t// out\n        /* \"#utility.yul\":7857:8026   */\n    tag_197:\n        /* \"#utility.yul\":7941:7952   */\n      0x00\n        /* \"#utility.yul\":7975:7981   */\n      dup3\n        /* \"#utility.yul\":7970:7973   */\n      dup3\n        /* \"#utility.yul\":7963:7982   */\n      mstore\n        /* \"#utility.yul\":8015:8019   */\n      0x20\n        /* \"#utility.yul\":8010:8013   */\n      dup3\n        /* \"#utility.yul\":8006:8020   */\n      add\n        /* \"#utility.yul\":7991:8020   */\n      swap1\n      pop\n        /* \"#utility.yul\":7857:8026   */\n      swap3\n      swap2\n      pop\n      pop\n      jump\t// out\n        /* \"#utility.yul\":8032:8396   */\n    tag_198:\n        /* \"#utility.yul\":8120:8123   */\n      0x00\n        /* \"#utility.yul\":8148:8187   */\n      tag_300\n        /* \"#utility.yul\":8181:8186   */\n      dup3\n        /* \"#utility.yul\":8148:8187   */\n      tag_184\n      jump\t// in\n    tag_300:\n        /* \"#utility.yul\":8203:8274   */\n      tag_301\n        /* \"#utility.yul\":8267:8273   */\n      dup2\n        /* \"#utility.yul\":8262:8265   */\n      dup6\n        /* \"#utility.yul\":8203:8274   */\n      tag_197\n      jump\t// in\n    tag_301:\n        /* \"#utility.yul\":8196:8274   */\n      swap4\n      pop\n        /* \"#utility.yul\":8283:8335   */\n      tag_302\n        /* \"#utility.yul\":8328:8334   */\n      dup2\n        /* \"#utility.yul\":8323:8326   */\n      dup6\n        /* \"#utility.yul\":8316:8320   */\n      0x20\n        /* \"#utility.yul\":8309:8314   */\n      dup7\n        /* \"#utility.yul\":8305:8321   */\n      add\n        /* \"#utility.yul\":8283:8335   */\n      tag_186\n      jump\t// in\n    tag_302:\n        /* \"#utility.yul\":8360:8389   */\n      tag_303\n        /* \"#utility.yul\":8382:8388   */\n      dup2\n        /* \"#utility.yul\":8360:8389   */\n      tag_187\n      jump\t// in\n    tag_303:\n        /* \"#utility.yul\":8355:8358   */\n      dup5\n        /* \"#utility.yul\":8351:8390   */\n      add\n        /* \"#utility.yul\":8344:8390   */\n      swap2\n      pop\n        /* \"#utility.yul\":8124:8396   */\n      pop\n        /* \"#utility.yul\":8032:8396   */\n      swap3\n      swap2\n      pop\n      pop\n      jump\t// out\n        /* \"#utility.yul\":8402:8520   */\n    tag_199:\n        /* \"#utility.yul\":8489:8513   */\n      tag_305\n        /* \"#utility.yul\":8507:8512   */\n      dup2\n        /* \"#utility.yul\":8489:8513   */\n      tag_176\n      jump\t// in\n    tag_305:\n        /* \"#utility.yul\":8484:8487   */\n      dup3\n        /* \"#utility.yul\":8477:8514   */\n      mstore\n        /* \"#utility.yul\":8402:8520   */\n      pop\n      pop\n      jump\t// out\n        /* \"#utility.yul\":8526:9796   */\n    tag_19:\n        /* \"#utility.yul\":8875:8879   */\n      0x00\n        /* \"#utility.yul\":8913:8916   */\n      0x0100\n        /* \"#utility.yul\":8902:8911   */\n      dup3\n        /* \"#utility.yul\":8898:8917   */\n      add\n        /* \"#utility.yul\":8890:8917   */\n      swap1\n      pop\n        /* \"#utility.yul\":8927:8998   */\n      tag_307\n        /* \"#utility.yul\":8995:8996   */\n      0x00\n        /* \"#utility.yul\":8984:8993   */\n      dup4\n        /* \"#utility.yul\":8980:8997   */\n      add\n        /* \"#utility.yul\":8971:8977   */\n      dup12\n        /* \"#utility.yul\":8927:8998   */\n      tag_196\n      jump\t// in\n    tag_307:\n        /* \"#utility.yul\":9045:9054   */\n      dup2\n        /* \"#utility.yul\":9039:9043   */\n      dup2\n        /* \"#utility.yul\":9035:9055   */\n      sub\n        /* \"#utility.yul\":9030:9032   */\n      0x20\n        /* \"#utility.yul\":9019:9028   */\n      dup4\n        /* \"#utility.yul\":9015:9033   */\n      add\n        /* \"#utility.yul\":9008:9056   */\n      mstore\n        /* \"#utility.yul\":9073:9151   */\n      tag_308\n        /* \"#utility.yul\":9146:9150   */\n      dup2\n        /* \"#utility.yul\":9137:9143   */\n      dup11\n        /* \"#utility.yul\":9073:9151   */\n      tag_198\n      jump\t// in\n    tag_308:\n        /* \"#utility.yul\":9065:9151   */\n      swap1\n      pop\n        /* \"#utility.yul\":9161:9233   */\n      tag_309\n        /* \"#utility.yul\":9229:9231   */\n      0x40\n        /* \"#utility.yul\":9218:9227   */\n      dup4\n        /* \"#utility.yul\":9214:9232   */\n      add\n        /* \"#utility.yul\":9205:9211   */\n      dup10\n        /* \"#utility.yul\":9161:9233   */\n      tag_196\n      jump\t// in\n    tag_309:\n        /* \"#utility.yul\":9243:9315   */\n      tag_310\n        /* \"#utility.yul\":9311:9313   */\n      0x60\n        /* \"#utility.yul\":9300:9309   */\n      dup4\n        /* \"#utility.yul\":9296:9314   */\n      add\n        /* \"#utility.yul\":9287:9293   */\n      dup9\n        /* \"#utility.yul\":9243:9315   */\n      tag_199\n      jump\t// in\n    tag_310:\n        /* \"#utility.yul\":9325:9398   */\n      tag_311\n        /* \"#utility.yul\":9393:9396   */\n      0x80\n        /* \"#utility.yul\":9382:9391   */\n      dup4\n        /* \"#utility.yul\":9378:9397   */\n      add\n        /* \"#utility.yul\":9369:9375   */\n      dup8\n        /* \"#utility.yul\":9325:9398   */\n      tag_199\n      jump\t// in\n    tag_311:\n        /* \"#utility.yul\":9408:9481   */\n      tag_312\n        /* \"#utility.yul\":9476:9479   */\n      0xa0\n        /* \"#utility.yul\":9465:9474   */\n      dup4\n        /* \"#utility.yul\":9461:9480   */\n      add\n        /* \"#utility.yul\":9452:9458   */\n      dup7\n        /* \"#utility.yul\":9408:9481   */\n      tag_196\n      jump\t// in\n    tag_312:\n        /* \"#utility.yul\":9529:9538   */\n      dup2\n        /* \"#utility.yul\":9523:9527   */\n      dup2\n        /* \"#utility.yul\":9519:9539   */\n      sub\n        /* \"#utility.yul\":9513:9516   */\n      0xc0\n        /* \"#utility.yul\":9502:9511   */\n      dup4\n        /* \"#utility.yul\":9498:9517   */\n      add\n        /* \"#utility.yul\":9491:9540   */\n      mstore\n        /* \"#utility.yul\":9557:9635   */\n      tag_313\n        /* \"#utility.yul\":9630:9634   */\n      dup2\n        /* \"#utility.yul\":9621:9627   */\n      dup6\n        /* \"#utility.yul\":9557:9635   */\n      tag_198\n      jump\t// in\n    tag_313:\n        /* \"#utility.yul\":9549:9635   */\n      swap1\n      pop\n        /* \"#utility.yul\":9683:9692   */\n      dup2\n        /* \"#utility.yul\":9677:9681   */\n      dup2\n        /* \"#utility.yul\":9673:9693   */\n      sub\n        /* \"#utility.yul\":9667:9670   */\n      0xe0\n        /* \"#utility.yul\":9656:9665   */\n      dup4\n        /* \"#utility.yul\":9652:9671   */\n      add\n        /* \"#utility.yul\":9645:9694   */\n      mstore\n        /* \"#utility.yul\":9711:9789   */\n      tag_314\n        /* \"#utility.yul\":9784:9788   */\n      dup2\n        /* \"#utility.yul\":9775:9781   */\n      dup5\n        /* \"#utility.yul\":9711:9789   */\n      tag_198\n      jump\t// in\n    tag_314:\n        /* \"#utility.yul\":9703:9789   */\n      swap1\n      pop\n        /* \"#utility.yul\":8526:9796   */\n      swap10\n      swap9\n      pop\n      pop\n      pop\n      pop\n      pop\n      pop\n      pop\n      pop\n      pop\n      jump\t// out\n        /* \"#utility.yul\":9802:10276   */\n    tag_22:\n        /* \"#utility.yul\":9870:9876   */\n      0x00\n        /* \"#utility.yul\":9878:9884   */\n      dup1\n        /* \"#utility.yul\":9927:9929   */\n      0x40\n        /* \"#utility.yul\":9915:9924   */\n      dup4\n        /* \"#utility.yul\":9906:9913   */\n      dup6\n        /* \"#utility.yul\":9902:9925   */\n      sub\n        /* \"#utility.yul\":9898:9930   */\n      slt\n        /* \"#utility.yul\":9895:10014   */\n      iszero\n      tag_316\n      jumpi\n        /* \"#utility.yul\":9933:10012   */\n      tag_317\n      tag_173\n      jump\t// in\n    tag_317:\n        /* \"#utility.yul\":9895:10014   */\n    tag_316:\n        /* \"#utility.yul\":10053:10054   */\n      0x00\n        /* \"#utility.yul\":10078:10131   */\n      tag_318\n        /* \"#utility.yul\":10123:10130   */\n      dup6\n        /* \"#utility.yul\":10114:10120   */\n      dup3\n        /* \"#utility.yul\":10103:10112   */\n      dup7\n        /* \"#utility.yul\":10099:10121   */\n      add\n        /* \"#utility.yul\":10078:10131   */\n      tag_195\n      jump\t// in\n    tag_318:\n        /* \"#utility.yul\":10068:10131   */\n      swap3\n      pop\n        /* \"#utility.yul\":10024:10141   */\n      pop\n        /* \"#utility.yul\":10180:10182   */\n      0x20\n        /* \"#utility.yul\":10206:10259   */\n      tag_319\n        /* \"#utility.yul\":10251:10258   */\n      dup6\n        /* \"#utility.yul\":10242:10248   */\n      dup3\n        /* \"#utility.yul\":10231:10240   */\n      dup7\n        /* \"#utility.yul\":10227:10249   */\n      add\n        /* \"#utility.yul\":10206:10259   */\n      tag_195\n      jump\t// in\n    tag_319:\n        /* \"#utility.yul\":10196:10259   */\n      swap2\n      pop\n        /* \"#utility.yul\":10151:10269   */\n      pop\n        /* \"#utility.yul\":9802:10276   */\n      swap3\n      pop\n      swap3\n      swap1\n      pop\n      jump\t// out\n        /* \"#utility.yul\":10282:10399   */\n    tag_200:\n        /* \"#utility.yul\":10391:10392   */\n      0x00\n        /* \"#utility.yul\":10388:10389   */\n      dup1\n        /* \"#utility.yul\":10381:10393   */\n      revert\n        /* \"#utility.yul\":10405:10522   */\n    tag_201:\n        /* \"#utility.yul\":10514:10515   */\n      0x00\n        /* \"#utility.yul\":10511:10512   */\n      dup1\n        /* \"#utility.yul\":10504:10516   */\n      revert\n        /* \"#utility.yul\":10528:10708   */\n    tag_202:\n        /* \"#utility.yul\":10576:10653   */\n      0x4e487b7100000000000000000000000000000000000000000000000000000000\n        /* \"#utility.yul\":10573:10574   */\n      0x00\n        /* \"#utility.yul\":10566:10654   */\n      mstore\n        /* \"#utility.yul\":10673:10677   */\n      0x41\n        /* \"#utility.yul\":10670:10671   */\n      0x04\n        /* \"#utility.yul\":10663:10678   */\n      mstore\n        /* \"#utility.yul\":10697:10701   */\n      0x24\n        /* \"#utility.yul\":10694:10695   */\n      0x00\n        /* \"#utility.yul\":10687:10702   */\n      revert\n        /* \"#utility.yul\":10714:10995   */\n    tag_203:\n        /* \"#utility.yul\":10797:10824   */\n      tag_324\n        /* \"#utility.yul\":10819:10823   */\n      dup3\n        /* \"#utility.yul\":10797:10824   */\n      tag_187\n      jump\t// in\n    tag_324:\n        /* \"#utility.yul\":10789:10795   */\n      dup2\n        /* \"#utility.yul\":10785:10825   */\n      add\n        /* \"#utility.yul\":10927:10933   */\n      dup2\n        /* \"#utility.yul\":10915:10925   */\n      dup2\n        /* \"#utility.yul\":10912:10934   */\n      lt\n        /* \"#utility.yul\":10891:10909   */\n      0xffffffffffffffff\n        /* \"#utility.yul\":10879:10889   */\n      dup3\n        /* \"#utility.yul\":10876:10910   */\n      gt\n        /* \"#utility.yul\":10873:10935   */\n      or\n        /* \"#utility.yul\":10870:10958   */\n      iszero\n      tag_325\n      jumpi\n        /* \"#utility.yul\":10938:10956   */\n      tag_326\n      tag_202\n      jump\t// in\n    tag_326:\n        /* \"#utility.yul\":10870:10958   */\n    tag_325:\n        /* \"#utility.yul\":10978:10988   */\n      dup1\n        /* \"#utility.yul\":10974:10976   */\n      0x40\n        /* \"#utility.yul\":10967:10989   */\n      mstore\n        /* \"#utility.yul\":10757:10995   */\n      pop\n        /* \"#utility.yul\":10714:10995   */\n      pop\n      pop\n      jump\t// out\n        /* \"#utility.yul\":11001:11130   */\n    tag_204:\n        /* \"#utility.yul\":11035:11041   */\n      0x00\n        /* \"#utility.yul\":11062:11082   */\n      tag_328\n      tag_172\n      jump\t// in\n    tag_328:\n        /* \"#utility.yul\":11052:11082   */\n      swap1\n      pop\n        /* \"#utility.yul\":11091:11124   */\n      tag_329\n        /* \"#utility.yul\":11119:11123   */\n      dup3\n        /* \"#utility.yul\":11111:11117   */\n      dup3\n        /* \"#utility.yul\":11091:11124   */\n      tag_203\n      jump\t// in\n    tag_329:\n        /* \"#utility.yul\":11001:11130   */\n      swap2\n      swap1\n      pop\n      jump\t// out\n        /* \"#utility.yul\":11136:11444   */\n    tag_205:\n        /* \"#utility.yul\":11198:11202   */\n      0x00\n        /* \"#utility.yul\":11288:11306   */\n      0xffffffffffffffff\n        /* \"#utility.yul\":11280:11286   */\n      dup3\n        /* \"#utility.yul\":11277:11307   */\n      gt\n        /* \"#utility.yul\":11274:11330   */\n      iszero\n      tag_331\n      jumpi\n        /* \"#utility.yul\":11310:11328   */\n      tag_332\n      tag_202\n      jump\t// in\n    tag_332:\n        /* \"#utility.yul\":11274:11330   */\n    tag_331:\n        /* \"#utility.yul\":11348:11377   */\n      tag_333\n        /* \"#utility.yul\":11370:11376   */\n      dup3\n        /* \"#utility.yul\":11348:11377   */\n      tag_187\n      jump\t// in\n    tag_333:\n        /* \"#utility.yul\":11340:11377   */\n      swap1\n      pop\n        /* \"#utility.yul\":11432:11436   */\n      0x20\n        /* \"#utility.yul\":11426:11430   */\n      dup2\n        /* \"#utility.yul\":11422:11437   */\n      add\n        /* \"#utility.yul\":11414:11437   */\n      swap1\n      pop\n        /* \"#utility.yul\":11136:11444   */\n      swap2\n      swap1\n      pop\n      jump\t// out\n        /* \"#utility.yul\":11450:11604   */\n    tag_206:\n        /* \"#utility.yul\":11534:11540   */\n      dup3\n        /* \"#utility.yul\":11529:11532   */\n      dup2\n        /* \"#utility.yul\":11524:11527   */\n      dup4\n        /* \"#utility.yul\":11511:11541   */\n      calldatacopy\n        /* \"#utility.yul\":11596:11597   */\n      0x00\n        /* \"#utility.yul\":11587:11593   */\n      dup4\n        /* \"#utility.yul\":11582:11585   */\n      dup4\n        /* \"#utility.yul\":11578:11594   */\n      add\n        /* \"#utility.yul\":11571:11598   */\n      mstore\n        /* \"#utility.yul\":11450:11604   */\n      pop\n      pop\n      pop\n      jump\t// out\n        /* \"#utility.yul\":11610:12022   */\n    tag_207:\n        /* \"#utility.yul\":11688:11693   */\n      0x00\n        /* \"#utility.yul\":11713:11779   */\n      tag_336\n        /* \"#utility.yul\":11729:11778   */\n      tag_337\n        /* \"#utility.yul\":11771:11777   */\n      dup5\n        /* \"#utility.yul\":11729:11778   */\n      tag_205\n      jump\t// in\n    tag_337:\n        /* \"#utility.yul\":11713:11779   */\n      tag_204\n      jump\t// in\n    tag_336:\n        /* \"#utility.yul\":11704:11779   */\n      swap1\n      pop\n        /* \"#utility.yul\":11802:11808   */\n      dup3\n        /* \"#utility.yul\":11795:11800   */\n      dup2\n        /* \"#utility.yul\":11788:11809   */\n      mstore\n        /* \"#utility.yul\":11840:11844   */\n      0x20\n        /* \"#utility.yul\":11833:11838   */\n      dup2\n        /* \"#utility.yul\":11829:11845   */\n      add\n        /* \"#utility.yul\":11878:11881   */\n      dup5\n        /* \"#utility.yul\":11869:11875   */\n      dup5\n        /* \"#utility.yul\":11864:11867   */\n      dup5\n        /* \"#utility.yul\":11860:11876   */\n      add\n        /* \"#utility.yul\":11857:11882   */\n      gt\n        /* \"#utility.yul\":11854:11966   */\n      iszero\n      tag_338\n      jumpi\n        /* \"#utility.yul\":11885:11964   */\n      tag_339\n      tag_201\n      jump\t// in\n    tag_339:\n        /* \"#utility.yul\":11854:11966   */\n    tag_338:\n        /* \"#utility.yul\":11975:12016   */\n      tag_340\n        /* \"#utility.yul\":12009:12015   */\n      dup5\n        /* \"#utility.yul\":12004:12007   */\n      dup3\n        /* \"#utility.yul\":11999:12002   */\n      dup6\n        /* \"#utility.yul\":11975:12016   */\n      tag_206\n      jump\t// in\n    tag_340:\n        /* \"#utility.yul\":11694:12022   */\n      pop\n        /* \"#utility.yul\":11610:12022   */\n      swap4\n      swap3\n      pop\n      pop\n      pop\n      jump\t// out\n        /* \"#utility.yul\":12042:12382   */\n    tag_208:\n        /* \"#utility.yul\":12098:12103   */\n      0x00\n        /* \"#utility.yul\":12147:12150   */\n      dup3\n        /* \"#utility.yul\":12140:12144   */\n      0x1f\n        /* \"#utility.yul\":12132:12138   */\n      dup4\n        /* \"#utility.yul\":12128:12145   */\n      add\n        /* \"#utility.yul\":12124:12151   */\n      slt\n        /* \"#utility.yul\":12114:12236   */\n      tag_342\n      jumpi\n        /* \"#utility.yul\":12155:12234   */\n      tag_343\n      tag_200\n      jump\t// in\n    tag_343:\n        /* \"#utility.yul\":12114:12236   */\n    tag_342:\n        /* \"#utility.yul\":12272:12278   */\n      dup2\n        /* \"#utility.yul\":12259:12279   */\n      calldataload\n        /* \"#utility.yul\":12297:12376   */\n      tag_344\n        /* \"#utility.yul\":12372:12375   */\n      dup5\n        /* \"#utility.yul\":12364:12370   */\n      dup3\n        /* \"#utility.yul\":12357:12361   */\n      0x20\n        /* \"#utility.yul\":12349:12355   */\n      dup7\n        /* \"#utility.yul\":12345:12362   */\n      add\n        /* \"#utility.yul\":12297:12376   */\n      tag_207\n      jump\t// in\n    tag_344:\n        /* \"#utility.yul\":12288:12376   */\n      swap2\n      pop\n        /* \"#utility.yul\":12104:12382   */\n      pop\n        /* \"#utility.yul\":12042:12382   */\n      swap3\n      swap2\n      pop\n      pop\n      jump\t// out\n        /* \"#utility.yul\":12388:13367   */\n    tag_30:\n        /* \"#utility.yul\":12485:12491   */\n      0x00\n        /* \"#utility.yul\":12493:12499   */\n      dup1\n        /* \"#utility.yul\":12501:12507   */\n      0x00\n        /* \"#utility.yul\":12550:12552   */\n      0x60\n        /* \"#utility.yul\":12538:12547   */\n      dup5\n        /* \"#utility.yul\":12529:12536   */\n      dup7\n        /* \"#utility.yul\":12525:12548   */\n      sub\n        /* \"#utility.yul\":12521:12553   */\n      slt\n        /* \"#utility.yul\":12518:12637   */\n      iszero\n      tag_346\n      jumpi\n        /* \"#utility.yul\":12556:12635   */\n      tag_347\n      tag_173\n      jump\t// in\n    tag_347:\n        /* \"#utility.yul\":12518:12637   */\n    tag_346:\n        /* \"#utility.yul\":12704:12705   */\n      0x00\n        /* \"#utility.yul\":12693:12702   */\n      dup5\n        /* \"#utility.yul\":12689:12706   */\n      add\n        /* \"#utility.yul\":12676:12707   */\n      calldataload\n        /* \"#utility.yul\":12734:12752   */\n      0xffffffffffffffff\n        /* \"#utility.yul\":12726:12732   */\n      dup2\n        /* \"#utility.yul\":12723:12753   */\n      gt\n        /* \"#utility.yul\":12720:12837   */\n      iszero\n      tag_348\n      jumpi\n        /* \"#utility.yul\":12756:12835   */\n      tag_349\n      tag_174\n      jump\t// in\n    tag_349:\n        /* \"#utility.yul\":12720:12837   */\n    tag_348:\n        /* \"#utility.yul\":12861:12924   */\n      tag_350\n        /* \"#utility.yul\":12916:12923   */\n      dup7\n        /* \"#utility.yul\":12907:12913   */\n      dup3\n        /* \"#utility.yul\":12896:12905   */\n      dup8\n        /* \"#utility.yul\":12892:12914   */\n      add\n        /* \"#utility.yul\":12861:12924   */\n      tag_208\n      jump\t// in\n    tag_350:\n        /* \"#utility.yul\":12851:12924   */\n      swap4\n      pop\n        /* \"#utility.yul\":12647:12934   */\n      pop\n        /* \"#utility.yul\":12973:12975   */\n      0x20\n        /* \"#utility.yul\":12999:13052   */\n      tag_351\n        /* \"#utility.yul\":13044:13051   */\n      dup7\n        /* \"#utility.yul\":13035:13041   */\n      dup3\n        /* \"#utility.yul\":13024:13033   */\n      dup8\n        /* \"#utility.yul\":13020:13042   */\n      add\n        /* \"#utility.yul\":12999:13052   */\n      tag_178\n      jump\t// in\n    tag_351:\n        /* \"#utility.yul\":12989:13052   */\n      swap3\n      pop\n        /* \"#utility.yul\":12944:13062   */\n      pop\n        /* \"#utility.yul\":13129:13131   */\n      0x40\n        /* \"#utility.yul\":13118:13127   */\n      dup5\n        /* \"#utility.yul\":13114:13132   */\n      add\n        /* \"#utility.yul\":13101:13133   */\n      calldataload\n        /* \"#utility.yul\":13160:13178   */\n      0xffffffffffffffff\n        /* \"#utility.yul\":13152:13158   */\n      dup2\n        /* \"#utility.yul\":13149:13179   */\n      gt\n        /* \"#utility.yul\":13146:13263   */\n      iszero\n      tag_352\n      jumpi\n        /* \"#utility.yul\":13182:13261   */\n      tag_353\n      tag_174\n      jump\t// in\n    tag_353:\n        /* \"#utility.yul\":13146:13263   */\n    tag_352:\n        /* \"#utility.yul\":13287:13350   */\n      tag_354\n        /* \"#utility.yul\":13342:13349   */\n      dup7\n        /* \"#utility.yul\":13333:13339   */\n      dup3\n        /* \"#utility.yul\":13322:13331   */\n      dup8\n        /* \"#utility.yul\":13318:13340   */\n      add\n        /* \"#utility.yul\":13287:13350   */\n      tag_208\n      jump\t// in\n    tag_354:\n        /* \"#utility.yul\":13277:13350   */\n      swap2\n      pop\n        /* \"#utility.yul\":13072:13360   */\n      pop\n        /* \"#utility.yul\":12388:13367   */\n      swap3\n      pop\n      swap3\n      pop\n      swap3\n      jump\t// out\n        /* \"#utility.yul\":13373:13553   */\n    tag_209:\n        /* \"#utility.yul\":13421:13498   */\n      0x4e487b7100000000000000000000000000000000000000000000000000000000\n        /* \"#utility.yul\":13418:13419   */\n      0x00\n        /* \"#utility.yul\":13411:13499   */\n      mstore\n        /* \"#utility.yul\":13518:13522   */\n      0x22\n        /* \"#utility.yul\":13515:13516   */\n      0x04\n        /* \"#utility.yul\":13508:13523   */\n      mstore\n        /* \"#utility.yul\":13542:13546   */\n      0x24\n        /* \"#utility.yul\":13539:13540   */\n      0x00\n        /* \"#utility.yul\":13532:13547   */\n      revert\n        /* \"#utility.yul\":13559:13879   */\n    tag_37:\n        /* \"#utility.yul\":13603:13609   */\n      0x00\n        /* \"#utility.yul\":13640:13641   */\n      0x02\n        /* \"#utility.yul\":13634:13638   */\n      dup3\n        /* \"#utility.yul\":13630:13642   */\n      div\n        /* \"#utility.yul\":13620:13642   */\n      swap1\n      pop\n        /* \"#utility.yul\":13687:13688   */\n      0x01\n        /* \"#utility.yul\":13681:13685   */\n      dup3\n        /* \"#utility.yul\":13677:13689   */\n      and\n        /* \"#utility.yul\":13708:13726   */\n      dup1\n        /* \"#utility.yul\":13698:13779   */\n      tag_357\n      jumpi\n        /* \"#utility.yul\":13764:13768   */\n      0x7f\n        /* \"#utility.yul\":13756:13762   */\n      dup3\n        /* \"#utility.yul\":13752:13769   */\n      and\n        /* \"#utility.yul\":13742:13769   */\n      swap2\n      pop\n        /* \"#utility.yul\":13698:13779   */\n    tag_357:\n        /* \"#utility.yul\":13826:13828   */\n      0x20\n        /* \"#utility.yul\":13818:13824   */\n      dup3\n        /* \"#utility.yul\":13815:13829   */\n      lt\n        /* \"#utility.yul\":13795:13813   */\n      dup2\n        /* \"#utility.yul\":13792:13830   */\n      sub\n        /* \"#utility.yul\":13789:13873   */\n      tag_358\n      jumpi\n        /* \"#utility.yul\":13845:13863   */\n      tag_359\n      tag_209\n      jump\t// in\n    tag_359:\n        /* \"#utility.yul\":13789:13873   */\n    tag_358:\n        /* \"#utility.yul\":13610:13879   */\n      pop\n        /* \"#utility.yul\":13559:13879   */\n      swap2\n      swap1\n      pop\n      jump\t// out\n        /* \"#utility.yul\":13885:14065   */\n    tag_72:\n        /* \"#utility.yul\":13933:14010   */\n      0x4e487b7100000000000000000000000000000000000000000000000000000000\n        /* \"#utility.yul\":13930:13931   */\n      0x00\n        /* \"#utility.yul\":13923:14011   */\n      mstore\n        /* \"#utility.yul\":14030:14034   */\n      0x32\n        /* \"#utility.yul\":14027:14028   */\n      0x04\n        /* \"#utility.yul\":14020:14035   */\n      mstore\n        /* \"#utility.yul\":14054:14058   */\n      0x24\n        /* \"#utility.yul\":14051:14052   */\n      0x00\n        /* \"#utility.yul\":14044:14059   */\n      revert\n        /* \"#utility.yul\":14071:14251   */\n    tag_210:\n        /* \"#utility.yul\":14119:14196   */\n      0x4e487b7100000000000000000000000000000000000000000000000000000000\n        /* \"#utility.yul\":14116:14117   */\n      0x00\n        /* \"#utility.yul\":14109:14197   */\n      mstore\n        /* \"#utility.yul\":14216:14220   */\n      0x11\n        /* \"#utility.yul\":14213:14214   */\n      0x04\n        /* \"#utility.yul\":14206:14221   */\n      mstore\n        /* \"#utility.yul\":14240:14244   */\n      0x24\n        /* \"#utility.yul\":14237:14238   */\n      0x00\n        /* \"#utility.yul\":14230:14245   */\n      revert\n        /* \"#utility.yul\":14257:14448   */\n    tag_78:\n        /* \"#utility.yul\":14297:14301   */\n      0x00\n        /* \"#utility.yul\":14317:14337   */\n      tag_363\n        /* \"#utility.yul\":14335:14336   */\n      dup3\n        /* \"#utility.yul\":14317:14337   */\n      tag_182\n      jump\t// in\n    tag_363:\n        /* \"#utility.yul\":14312:14337   */\n      swap2\n      pop\n        /* \"#utility.yul\":14351:14371   */\n      tag_364\n        /* \"#utility.yul\":14369:14370   */\n      dup4\n        /* \"#utility.yul\":14351:14371   */\n      tag_182\n      jump\t// in\n    tag_364:\n        /* \"#utility.yul\":14346:14371   */\n      swap3\n      pop\n        /* \"#utility.yul\":14390:14391   */\n      dup3\n        /* \"#utility.yul\":14387:14388   */\n      dup3\n        /* \"#utility.yul\":14384:14392   */\n      lt\n        /* \"#utility.yul\":14381:14415   */\n      iszero\n      tag_365\n      jumpi\n        /* \"#utility.yul\":14395:14413   */\n      tag_366\n      tag_210\n      jump\t// in\n    tag_366:\n        /* \"#utility.yul\":14381:14415   */\n    tag_365:\n        /* \"#utility.yul\":14440:14441   */\n      dup3\n        /* \"#utility.yul\":14437:14438   */\n      dup3\n        /* \"#utility.yul\":14433:14442   */\n      sub\n        /* \"#utility.yul\":14425:14442   */\n      swap1\n      pop\n        /* \"#utility.yul\":14257:14448   */\n      swap3\n      swap2\n      pop\n      pop\n      jump\t// out\n        /* \"#utility.yul\":14454:14759   */\n    tag_84:\n        /* \"#utility.yul\":14494:14497   */\n      0x00\n        /* \"#utility.yul\":14513:14533   */\n      tag_368\n        /* \"#utility.yul\":14531:14532   */\n      dup3\n        /* \"#utility.yul\":14513:14533   */\n      tag_182\n      jump\t// in\n    tag_368:\n        /* \"#utility.yul\":14508:14533   */\n      swap2\n      pop\n        /* \"#utility.yul\":14547:14567   */\n      tag_369\n        /* \"#utility.yul\":14565:14566   */\n      dup4\n        /* \"#utility.yul\":14547:14567   */\n      tag_182\n      jump\t// in\n    tag_369:\n        /* \"#utility.yul\":14542:14567   */\n      swap3\n      pop\n        /* \"#utility.yul\":14701:14702   */\n      dup3\n        /* \"#utility.yul\":14633:14699   */\n      0xffffffffffffffffffffffffffffffffffffffffffffffffffffffffffffffff\n        /* \"#utility.yul\":14629:14703   */\n      sub\n        /* \"#utility.yul\":14626:14627   */\n      dup3\n        /* \"#utility.yul\":14623:14704   */\n      gt\n        /* \"#utility.yul\":14620:14727   */\n      iszero\n      tag_370\n      jumpi\n        /* \"#utility.yul\":14707:14725   */\n      tag_371\n      tag_210\n      jump\t// in\n    tag_371:\n        /* \"#utility.yul\":14620:14727   */\n    tag_370:\n        /* \"#utility.yul\":14751:14752   */\n      dup3\n        /* \"#utility.yul\":14748:14749   */\n      dup3\n        /* \"#utility.yul\":14744:14753   */\n      add\n        /* \"#utility.yul\":14737:14753   */\n      swap1\n      pop\n        /* \"#utility.yul\":14454:14759   */\n      swap3\n      swap2\n      pop\n      pop\n      jump\t// out\n        /* \"#utility.yul\":14765:14914   */\n    tag_211:\n        /* \"#utility.yul\":14814:14820   */\n      0x00\n        /* \"#utility.yul\":14848:14853   */\n      dup2\n        /* \"#utility.yul\":14842:14854   */\n      sload\n        /* \"#utility.yul\":14832:14854   */\n      swap1\n      pop\n        /* \"#utility.yul\":14874:14907   */\n      tag_373\n        /* \"#utility.yul\":14900:14906   */\n      dup2\n        /* \"#utility.yul\":14874:14907   */\n      tag_37\n      jump\t// in\n    tag_373:\n        /* \"#utility.yul\":14864:14907   */\n      swap1\n      pop\n        /* \"#utility.yul\":14765:14914   */\n      swap2\n      swap1\n      pop\n      jump\t// out\n        /* \"#utility.yul\":14920:15061   */\n    tag_212:\n        /* \"#utility.yul\":14969:14973   */\n      0x00\n        /* \"#utility.yul\":14992:14995   */\n      dup2\n        /* \"#utility.yul\":14984:14995   */\n      swap1\n      pop\n        /* \"#utility.yul\":15015:15018   */\n      dup2\n        /* \"#utility.yul\":15012:15013   */\n      0x00\n        /* \"#utility.yul\":15005:15019   */\n      mstore\n        /* \"#utility.yul\":15049:15053   */\n      0x20\n        /* \"#utility.yul\":15046:15047   */\n      0x00\n        /* \"#utility.yul\":15036:15054   */\n      keccak256\n        /* \"#utility.yul\":15028:15054   */\n      swap1\n      pop\n        /* \"#utility.yul\":14920:15061   */\n      swap2\n      swap1\n      pop\n      jump\t// out\n        /* \"#utility.yul\":15067:15160   */\n    tag_213:\n        /* \"#utility.yul\":15104:15110   */\n      0x00\n        /* \"#utility.yul\":15151:15153   */\n      0x20\n        /* \"#utility.yul\":15146:15148   */\n      0x1f\n        /* \"#utility.yul\":15139:15144   */\n      dup4\n        /* \"#utility.yul\":15135:15149   */\n      add\n        /* \"#utility.yul\":15131:15154   */\n      div\n        /* \"#utility.yul\":15121:15154   */\n      swap1\n      pop\n        /* \"#utility.yul\":15067:15160   */\n      swap2\n      swap1\n      pop\n      jump\t// out\n        /* \"#utility.yul\":15166:15273   */\n    tag_214:\n        /* \"#utility.yul\":15210:15218   */\n      0x00\n        /* \"#utility.yul\":15260:15265   */\n      dup3\n        /* \"#utility.yul\":15254:15258   */\n      dup3\n        /* \"#utility.yul\":15250:15266   */\n      shl\n        /* \"#utility.yul\":15229:15266   */\n      swap1\n      pop\n        /* \"#utility.yul\":15166:15273   */\n      swap3\n      swap2\n      pop\n      pop\n      jump\t// out\n        /* \"#utility.yul\":15279:15672   */\n    tag_215:\n        /* \"#utility.yul\":15348:15354   */\n      0x00\n        /* \"#utility.yul\":15398:15399   */\n      0x08\n        /* \"#utility.yul\":15386:15396   */\n      dup4\n        /* \"#utility.yul\":15382:15400   */\n      mul\n        /* \"#utility.yul\":15421:15518   */\n      tag_378\n        /* \"#utility.yul\":15451:15517   */\n      0xffffffffffffffffffffffffffffffffffffffffffffffffffffffffffffffff\n        /* \"#utility.yul\":15440:15449   */\n      dup3\n        /* \"#utility.yul\":15421:15518   */\n      tag_214\n      jump\t// in\n    tag_378:\n        /* \"#utility.yul\":15539:15578   */\n      tag_379\n        /* \"#utility.yul\":15569:15577   */\n      dup7\n        /* \"#utility.yul\":15558:15567   */\n      dup4\n        /* \"#utility.yul\":15539:15578   */\n      tag_214\n      jump\t// in\n    tag_379:\n        /* \"#utility.yul\":15527:15578   */\n      swap6\n      pop\n        /* \"#utility.yul\":15611:15615   */\n      dup1\n        /* \"#utility.yul\":15607:15616   */\n      not\n        /* \"#utility.yul\":15600:15605   */\n      dup5\n        /* \"#utility.yul\":15596:15617   */\n      and\n        /* \"#utility.yul\":15587:15617   */\n      swap4\n      pop\n        /* \"#utility.yul\":15660:15664   */\n      dup1\n        /* \"#utility.yul\":15650:15658   */\n      dup7\n        /* \"#utility.yul\":15646:15665   */\n      and\n        /* \"#utility.yul\":15639:15644   */\n      dup5\n        /* \"#utility.yul\":15636:15666   */\n      or\n        /* \"#utility.yul\":15626:15666   */\n      swap3\n      pop\n        /* \"#utility.yul\":15355:15672   */\n      pop\n      pop\n        /* \"#utility.yul\":15279:15672   */\n      swap4\n      swap3\n      pop\n      pop\n      pop\n      jump\t// out\n        /* \"#utility.yul\":15678:15738   */\n    tag_216:\n        /* \"#utility.yul\":15706:15709   */\n      0x00\n        /* \"#utility.yul\":15727:15732   */\n      dup2\n        /* \"#utility.yul\":15720:15732   */\n      swap1\n      pop\n        /* \"#utility.yul\":15678:15738   */\n      swap2\n      swap1\n      pop\n      jump\t// out\n        /* \"#utility.yul\":15744:15886   */\n    tag_217:\n        /* \"#utility.yul\":15794:15803   */\n      0x00\n        /* \"#utility.yul\":15827:15880   */\n      tag_382\n        /* \"#utility.yul\":15845:15879   */\n      tag_383\n        /* \"#utility.yul\":15854:15878   */\n      tag_384\n        /* \"#utility.yul\":15872:15877   */\n      dup5\n        /* \"#utility.yul\":15854:15878   */\n      tag_182\n      jump\t// in\n    tag_384:\n        /* \"#utility.yul\":15845:15879   */\n      tag_216\n      jump\t// in\n    tag_383:\n        /* \"#utility.yul\":15827:15880   */\n      tag_182\n      jump\t// in\n    tag_382:\n        /* \"#utility.yul\":15814:15880   */\n      swap1\n      pop\n        /* \"#utility.yul\":15744:15886   */\n      swap2\n      swap1\n      pop\n      jump\t// out\n        /* \"#utility.yul\":15892:15967   */\n    tag_218:\n        /* \"#utility.yul\":15935:15938   */\n      0x00\n        /* \"#utility.yul\":15956:15961   */\n      dup2\n        /* \"#utility.yul\":15949:15961   */\n      swap1\n      pop\n        /* \"#utility.yul\":15892:15967   */\n      swap2\n      swap1\n      pop\n      jump\t// out\n        /* \"#utility.yul\":15973:16242   */\n    tag_219:\n        /* \"#utility.yul\":16083:16122   */\n      tag_387\n        /* \"#utility.yul\":16114:16121   */\n      dup4\n        /* \"#utility.yul\":16083:16122   */\n      tag_217\n      jump\t// in\n    tag_387:\n        /* \"#utility.yul\":16144:16235   */\n      tag_388\n        /* \"#utility.yul\":16193:16234   */\n      tag_389\n        /* \"#utility.yul\":16217:16233   */\n      dup3\n        /* \"#utility.yul\":16193:16234   */\n      tag_218\n      jump\t// in\n    tag_389:\n        /* \"#utility.yul\":16185:16191   */\n      dup5\n        /* \"#utility.yul\":16178:16182   */\n      dup5\n        /* \"#utility.yul\":16172:16183   */\n      sload\n        /* \"#utility.yul\":16144:16235   */\n      tag_215\n      jump\t// in\n    tag_388:\n        /* \"#utility.yul\":16138:16142   */\n      dup3\n        /* \"#utility.yul\":16131:16236   */\n      sstore\n        /* \"#utility.yul\":16049:16242   */\n      pop\n        /* \"#utility.yul\":15973:16242   */\n      pop\n      pop\n      pop\n      jump\t// out\n        /* \"#utility.yul\":16248:16321   */\n    tag_220:\n        /* \"#utility.yul\":16293:16296   */\n      0x00\n        /* \"#utility.yul\":16248:16321   */\n      swap1\n      jump\t// out\n        /* \"#utility.yul\":16327:16516   */\n    tag_221:\n        /* \"#utility.yul\":16404:16436   */\n      tag_392\n      tag_220\n      jump\t// in\n    tag_392:\n        /* \"#utility.yul\":16445:16510   */\n      tag_393\n        /* \"#utility.yul\":16503:16509   */\n      dup2\n        /* \"#utility.yul\":16495:16501   */\n      dup5\n        /* \"#utility.yul\":16489:16493   */\n      dup5\n        /* \"#utility.yul\":16445:16510   */\n      tag_219\n      jump\t// in\n    tag_393:\n        /* \"#utility.yul\":16380:16516   */\n      pop\n        /* \"#utility.yul\":16327:16516   */\n      pop\n      pop\n      jump\t// out\n        /* \"#utility.yul\":16522:16708   */\n    tag_222:\n        /* \"#utility.yul\":16582:16702   */\n    tag_395:\n        /* \"#utility.yul\":16599:16602   */\n      dup2\n        /* \"#utility.yul\":16592:16597   */\n      dup2\n        /* \"#utility.yul\":16589:16603   */\n      lt\n        /* \"#utility.yul\":16582:16702   */\n      iszero\n      tag_397\n      jumpi\n        /* \"#utility.yul\":16653:16692   */\n      tag_398\n        /* \"#utility.yul\":16690:16691   */\n      0x00\n        /* \"#utility.yul\":16683:16688   */\n      dup3\n        /* \"#utility.yul\":16653:16692   */\n      tag_221\n      jump\t// in\n    tag_398:\n        /* \"#utility.yul\":16626:16627   */\n      0x01\n        /* \"#utility.yul\":16619:16624   */\n      dup2\n        /* \"#utility.yul\":16615:16628   */\n      add\n        /* \"#utility.yul\":16606:16628   */\n      swap1\n      pop\n        /* \"#utility.yul\":16582:16702   */\n      jump(tag_395)\n    tag_397:\n        /* \"#utility.yul\":16522:16708   */\n      pop\n      pop\n      jump\t// out\n        /* \"#utility.yul\":16714:17257   */\n    tag_223:\n        /* \"#utility.yul\":16815:16817   */\n      0x1f\n        /* \"#utility.yul\":16810:16813   */\n      dup3\n        /* \"#utility.yul\":16807:16818   */\n      gt\n        /* \"#utility.yul\":16804:17250   */\n      iszero\n      tag_400\n      jumpi\n        /* \"#utility.yul\":16849:16887   */\n      tag_401\n        /* \"#utility.yul\":16881:16886   */\n      dup2\n        /* \"#utility.yul\":16849:16887   */\n      tag_212\n      jump\t// in\n    tag_401:\n        /* \"#utility.yul\":16933:16962   */\n      tag_402\n        /* \"#utility.yul\":16951:16961   */\n      dup5\n        /* \"#utility.yul\":16933:16962   */\n      tag_213\n      jump\t// in\n    tag_402:\n        /* \"#utility.yul\":16923:16931   */\n      dup2\n        /* \"#utility.yul\":16919:16963   */\n      add\n        /* \"#utility.yul\":17116:17118   */\n      0x20\n        /* \"#utility.yul\":17104:17114   */\n      dup6\n        /* \"#utility.yul\":17101:17119   */\n      lt\n        /* \"#utility.yul\":17098:17147   */\n      iszero\n      tag_403\n      jumpi\n        /* \"#utility.yul\":17137:17145   */\n      dup2\n        /* \"#utility.yul\":17122:17145   */\n      swap1\n      pop\n        /* \"#utility.yul\":17098:17147   */\n    tag_403:\n        /* \"#utility.yul\":17160:17240   */\n      tag_404\n        /* \"#utility.yul\":17216:17238   */\n      tag_405\n        /* \"#utility.yul\":17234:17237   */\n      dup6\n        /* \"#utility.yul\":17216:17238   */\n      tag_213\n      jump\t// in\n    tag_405:\n        /* \"#utility.yul\":17206:17214   */\n      dup4\n        /* \"#utility.yul\":17202:17239   */\n      add\n        /* \"#utility.yul\":17189:17200   */\n      dup3\n        /* \"#utility.yul\":17160:17240   */\n      tag_222\n      jump\t// in\n    tag_404:\n        /* \"#utility.yul\":16819:17250   */\n      pop\n      pop\n        /* \"#utility.yul\":16804:17250   */\n    tag_400:\n        /* \"#utility.yul\":16714:17257   */\n      pop\n      pop\n      pop\n      jump\t// out\n        /* \"#utility.yul\":17263:17380   */\n    tag_224:\n        /* \"#utility.yul\":17317:17325   */\n      0x00\n        /* \"#utility.yul\":17367:17372   */\n      dup3\n        /* \"#utility.yul\":17361:17365   */\n      dup3\n        /* \"#utility.yul\":17357:17373   */\n      shr\n        /* \"#utility.yul\":17336:17373   */\n      swap1\n      pop\n        /* \"#utility.yul\":17263:17380   */\n      swap3\n      swap2\n      pop\n      pop\n      jump\t// out\n        /* \"#utility.yul\":17386:17555   */\n    tag_225:\n        /* \"#utility.yul\":17430:17436   */\n      0x00\n        /* \"#utility.yul\":17463:17514   */\n      tag_408\n        /* \"#utility.yul\":17511:17512   */\n      0x00\n        /* \"#utility.yul\":17507:17513   */\n      not\n        /* \"#utility.yul\":17499:17504   */\n      dup5\n        /* \"#utility.yul\":17496:17497   */\n      0x08\n        /* \"#utility.yul\":17492:17505   */\n      mul\n        /* \"#utility.yul\":17463:17514   */\n      tag_224\n      jump\t// in\n    tag_408:\n        /* \"#utility.yul\":17459:17515   */\n      not\n        /* \"#utility.yul\":17544:17548   */\n      dup1\n        /* \"#utility.yul\":17538:17542   */\n      dup4\n        /* \"#utility.yul\":17534:17549   */\n      and\n        /* \"#utility.yul\":17524:17549   */\n      swap2\n      pop\n        /* \"#utility.yul\":17437:17555   */\n      pop\n        /* \"#utility.yul\":17386:17555   */\n      swap3\n      swap2\n      pop\n      pop\n      jump\t// out\n        /* \"#utility.yul\":17560:17855   */\n    tag_226:\n        /* \"#utility.yul\":17636:17640   */\n      0x00\n        /* \"#utility.yul\":17782:17811   */\n      tag_410\n        /* \"#utility.yul\":17807:17810   */\n      dup4\n        /* \"#utility.yul\":17801:17805   */\n      dup4\n        /* \"#utility.yul\":17782:17811   */\n      tag_225\n      jump\t// in\n    tag_410:\n        /* \"#utility.yul\":17774:17811   */\n      swap2\n      pop\n        /* \"#utility.yul\":17844:17847   */\n      dup3\n        /* \"#utility.yul\":17841:17842   */\n      0x02\n        /* \"#utility.yul\":17837:17848   */\n      mul\n        /* \"#utility.yul\":17831:17835   */\n      dup3\n        /* \"#utility.yul\":17828:17849   */\n      or\n        /* \"#utility.yul\":17820:17849   */\n      swap1\n      pop\n        /* \"#utility.yul\":17560:17855   */\n      swap3\n      swap2\n      pop\n      pop\n      jump\t// out\n        /* \"#utility.yul\":17860:19311   */\n    tag_92:\n        /* \"#utility.yul\":17971:17974   */\n      dup2\n        /* \"#utility.yul\":17965:17969   */\n      dup2\n        /* \"#utility.yul\":17962:17975   */\n      sub\n        /* \"#utility.yul\":17959:17985   */\n      tag_412\n      jumpi\n        /* \"#utility.yul\":17978:17983   */\n      pop\n      pop\n      jump(tag_411)\n        /* \"#utility.yul\":17959:17985   */\n    tag_412:\n        /* \"#utility.yul\":18009:18043   */\n      tag_413\n        /* \"#utility.yul\":18039:18042   */\n      dup3\n        /* \"#utility.yul\":18009:18043   */\n      tag_211\n      jump\t// in\n    tag_413:\n        /* \"#utility.yul\":18108:18126   */\n      0xffffffffffffffff\n        /* \"#utility.yul\":18100:18106   */\n      dup2\n        /* \"#utility.yul\":18097:18127   */\n      gt\n        /* \"#utility.yul\":18094:18150   */\n      iszero\n      tag_414\n      jumpi\n        /* \"#utility.yul\":18130:18148   */\n      tag_415\n      tag_202\n      jump\t// in\n    tag_415:\n        /* \"#utility.yul\":18094:18150   */\n    tag_414:\n        /* \"#utility.yul\":18174:18212   */\n      tag_416\n        /* \"#utility.yul\":18206:18210   */\n      dup3\n        /* \"#utility.yul\":18200:18211   */\n      sload\n        /* \"#utility.yul\":18174:18212   */\n      tag_37\n      jump\t// in\n    tag_416:\n        /* \"#utility.yul\":18259:18326   */\n      tag_417\n        /* \"#utility.yul\":18319:18325   */\n      dup3\n        /* \"#utility.yul\":18311:18317   */\n      dup3\n        /* \"#utility.yul\":18305:18309   */\n      dup6\n        /* \"#utility.yul\":18259:18326   */\n      tag_223\n      jump\t// in\n    tag_417:\n        /* \"#utility.yul\":18353:18354   */\n      0x00\n        /* \"#utility.yul\":18382:18384   */\n      0x1f\n        /* \"#utility.yul\":18374:18380   */\n      dup4\n        /* \"#utility.yul\":18371:18385   */\n      gt\n        /* \"#utility.yul\":18399:18400   */\n      0x01\n        /* \"#utility.yul\":18394:19066   */\n      dup2\n      eq\n      tag_419\n      jumpi\n        /* \"#utility.yul\":19110:19111   */\n      0x00\n        /* \"#utility.yul\":19127:19133   */\n      dup5\n        /* \"#utility.yul\":19124:19201   */\n      iszero\n      tag_420\n      jumpi\n        /* \"#utility.yul\":19176:19185   */\n      dup3\n        /* \"#utility.yul\":19171:19174   */\n      dup8\n        /* \"#utility.yul\":19167:19186   */\n      add\n        /* \"#utility.yul\":19161:19187   */\n      sload\n        /* \"#utility.yul\":19152:19187   */\n      swap1\n      pop\n        /* \"#utility.yul\":19124:19201   */\n    tag_420:\n        /* \"#utility.yul\":19227:19294   */\n      tag_421\n        /* \"#utility.yul\":19287:19293   */\n      dup6\n        /* \"#utility.yul\":19280:19285   */\n      dup3\n        /* \"#utility.yul\":19227:19294   */\n      tag_226\n      jump\t// in\n    tag_421:\n        /* \"#utility.yul\":19221:19225   */\n      dup7\n        /* \"#utility.yul\":19214:19295   */\n      sstore\n        /* \"#utility.yul\":19083:19305   */\n      pop\n        /* \"#utility.yul\":18364:19305   */\n      jump(tag_418)\n        /* \"#utility.yul\":18394:19066   */\n    tag_419:\n        /* \"#utility.yul\":18446:18450   */\n      0x1f\n        /* \"#utility.yul\":18442:18451   */\n      not\n        /* \"#utility.yul\":18434:18440   */\n      dup5\n        /* \"#utility.yul\":18430:18452   */\n      and\n        /* \"#utility.yul\":18472:18508   */\n      tag_422\n        /* \"#utility.yul\":18504:18507   */\n      dup8\n        /* \"#utility.yul\":18472:18508   */\n      tag_212\n      jump\t// in\n    tag_422:\n        /* \"#utility.yul\":18465:18508   */\n      swap7\n      pop\n        /* \"#utility.yul\":18535:18572   */\n      tag_423\n        /* \"#utility.yul\":18567:18571   */\n      dup7\n        /* \"#utility.yul\":18535:18572   */\n      tag_212\n      jump\t// in\n    tag_423:\n        /* \"#utility.yul\":18594:18595   */\n      0x00\n        /* \"#utility.yul\":18608:18815   */\n    tag_424:\n        /* \"#utility.yul\":18622:18629   */\n      dup3\n        /* \"#utility.yul\":18619:18620   */\n      dup2\n        /* \"#utility.yul\":18616:18630   */\n      lt\n        /* \"#utility.yul\":18608:18815   */\n      iszero\n      tag_426\n      jumpi\n        /* \"#utility.yul\":18701:18710   */\n      dup5\n        /* \"#utility.yul\":18696:18699   */\n      dup10\n        /* \"#utility.yul\":18692:18711   */\n      add\n        /* \"#utility.yul\":18686:18712   */\n      sload\n        /* \"#utility.yul\":18678:18684   */\n      dup3\n        /* \"#utility.yul\":18671:18713   */\n      sstore\n        /* \"#utility.yul\":18752:18753   */\n      0x01\n        /* \"#utility.yul\":18744:18750   */\n      dup3\n        /* \"#utility.yul\":18740:18754   */\n      add\n        /* \"#utility.yul\":18730:18754   */\n      swap2\n      pop\n        /* \"#utility.yul\":18799:18800   */\n      0x01\n        /* \"#utility.yul\":18788:18797   */\n      dup6\n        /* \"#utility.yul\":18784:18801   */\n      add\n        /* \"#utility.yul\":18771:18801   */\n      swap5\n      pop\n        /* \"#utility.yul\":18645:18649   */\n      0x20\n        /* \"#utility.yul\":18642:18643   */\n      dup2\n        /* \"#utility.yul\":18638:18650   */\n      add\n        /* \"#utility.yul\":18633:18650   */\n      swap1\n      pop\n        /* \"#utility.yul\":18608:18815   */\n      jump(tag_424)\n    tag_426:\n        /* \"#utility.yul\":18843:18849   */\n      dup7\n        /* \"#utility.yul\":18834:18841   */\n      dup4\n        /* \"#utility.yul\":18831:18850   */\n      lt\n        /* \"#utility.yul\":18828:19007   */\n      iszero\n      tag_427\n      jumpi\n        /* \"#utility.yul\":18901:18910   */\n      dup5\n        /* \"#utility.yul\":18896:18899   */\n      dup10\n        /* \"#utility.yul\":18892:18911   */\n      add\n        /* \"#utility.yul\":18886:18912   */\n      sload\n        /* \"#utility.yul\":18944:18992   */\n      tag_428\n        /* \"#utility.yul\":18986:18990   */\n      0x1f\n        /* \"#utility.yul\":18978:18984   */\n      dup10\n        /* \"#utility.yul\":18974:18991   */\n      and\n        /* \"#utility.yul\":18963:18972   */\n      dup3\n        /* \"#utility.yul\":18944:18992   */\n      tag_225\n      jump\t// in\n    tag_428:\n        /* \"#utility.yul\":18936:18942   */\n      dup4\n        /* \"#utility.yul\":18929:18993   */\n      sstore\n        /* \"#utility.yul\":18851:19007   */\n      pop\n        /* \"#utility.yul\":18828:19007   */\n    tag_427:\n        /* \"#utility.yul\":19053:19054   */\n      0x01\n        /* \"#utility.yul\":19049:19050   */\n      0x02\n        /* \"#utility.yul\":19041:19047   */\n      dup9\n        /* \"#utility.yul\":19037:19051   */\n      mul\n        /* \"#utility.yul\":19033:19055   */\n      add\n        /* \"#utility.yul\":19027:19031   */\n      dup9\n        /* \"#utility.yul\":19020:19056   */\n      sstore\n        /* \"#utility.yul\":18401:19066   */\n      pop\n      pop\n      pop\n        /* \"#utility.yul\":18364:19305   */\n    tag_418:\n      pop\n        /* \"#utility.yul\":17949:19311   */\n      pop\n      pop\n      pop\n        /* \"#utility.yul\":17860:19311   */\n      pop\n      pop\n    tag_411:\n      jump\t// out\n        /* \"#utility.yul\":19317:19550   */\n    tag_96:\n        /* \"#utility.yul\":19356:19359   */\n      0x00\n        /* \"#utility.yul\":19379:19403   */\n      tag_430\n        /* \"#utility.yul\":19397:19402   */\n      dup3\n        /* \"#utility.yul\":19379:19403   */\n      tag_182\n      jump\t// in\n    tag_430:\n        /* \"#utility.yul\":19370:19403   */\n      swap2\n      pop\n        /* \"#utility.yul\":19425:19491   */\n      0xffffffffffffffffffffffffffffffffffffffffffffffffffffffffffffffff\n        /* \"#utility.yul\":19418:19423   */\n      dup3\n        /* \"#utility.yul\":19415:19492   */\n      sub\n        /* \"#utility.yul\":19412:19515   */\n      tag_431\n      jumpi\n        /* \"#utility.yul\":19495:19513   */\n      tag_432\n      tag_210\n      jump\t// in\n    tag_432:\n        /* \"#utility.yul\":19412:19515   */\n    tag_431:\n        /* \"#utility.yul\":19542:19543   */\n      0x01\n        /* \"#utility.yul\":19535:19540   */\n      dup3\n        /* \"#utility.yul\":19531:19544   */\n      add\n        /* \"#utility.yul\":19524:19544   */\n      swap1\n      pop\n        /* \"#utility.yul\":19317:19550   */\n      swap2\n      swap1\n      pop\n      jump\t// out\n        /* \"#utility.yul\":19556:19736   */\n    tag_99:\n        /* \"#utility.yul\":19604:19681   */\n      0x4e487b7100000000000000000000000000000000000000000000000000000000\n        /* \"#utility.yul\":19601:19602   */\n      0x00\n        /* \"#utility.yul\":19594:19682   */\n      mstore\n        /* \"#utility.yul\":19701:19705   */\n      0x31\n        /* \"#utility.yul\":19698:19699   */\n      0x04\n        /* \"#utility.yul\":19691:19706   */\n      mstore\n        /* \"#utility.yul\":19725:19729   */\n      0x24\n        /* \"#utility.yul\":19722:19723   */\n      0x00\n        /* \"#utility.yul\":19715:19730   */\n      revert\n        /* \"#utility.yul\":19742:21137   */\n    tag_154:\n        /* \"#utility.yul\":19859:19896   */\n      tag_435\n        /* \"#utility.yul\":19892:19895   */\n      dup3\n        /* \"#utility.yul\":19859:19896   */\n      tag_184\n      jump\t// in\n    tag_435:\n        /* \"#utility.yul\":19961:19979   */\n      0xffffffffffffffff\n        /* \"#utility.yul\":19953:19959   */\n      dup2\n        /* \"#utility.yul\":19950:19980   */\n      gt\n        /* \"#utility.yul\":19947:20003   */\n      iszero\n      tag_436\n      jumpi\n        /* \"#utility.yul\":19983:20001   */\n      tag_437\n      tag_202\n      jump\t// in\n    tag_437:\n        /* \"#utility.yul\":19947:20003   */\n    tag_436:\n        /* \"#utility.yul\":20027:20065   */\n      tag_438\n        /* \"#utility.yul\":20059:20063   */\n      dup3\n        /* \"#utility.yul\":20053:20064   */\n      sload\n        /* \"#utility.yul\":20027:20065   */\n      tag_37\n      jump\t// in\n    tag_438:\n        /* \"#utility.yul\":20112:20179   */\n      tag_439\n        /* \"#utility.yul\":20172:20178   */\n      dup3\n        /* \"#utility.yul\":20164:20170   */\n      dup3\n        /* \"#utility.yul\":20158:20162   */\n      dup6\n        /* \"#utility.yul\":20112:20179   */\n      tag_223\n      jump\t// in\n    tag_439:\n        /* \"#utility.yul\":20206:20207   */\n      0x00\n        /* \"#utility.yul\":20230:20234   */\n      0x20\n        /* \"#utility.yul\":20217:20234   */\n      swap1\n      pop\n        /* \"#utility.yul\":20262:20264   */\n      0x1f\n        /* \"#utility.yul\":20254:20260   */\n      dup4\n        /* \"#utility.yul\":20251:20265   */\n      gt\n        /* \"#utility.yul\":20279:20280   */\n      0x01\n        /* \"#utility.yul\":20274:20892   */\n      dup2\n      eq\n      tag_441\n      jumpi\n        /* \"#utility.yul\":20936:20937   */\n      0x00\n        /* \"#utility.yul\":20953:20959   */\n      dup5\n        /* \"#utility.yul\":20950:21027   */\n      iszero\n      tag_442\n      jumpi\n        /* \"#utility.yul\":21002:21011   */\n      dup3\n        /* \"#utility.yul\":20997:21000   */\n      dup8\n        /* \"#utility.yul\":20993:21012   */\n      add\n        /* \"#utility.yul\":20987:21013   */\n      mload\n        /* \"#utility.yul\":20978:21013   */\n      swap1\n      pop\n        /* \"#utility.yul\":20950:21027   */\n    tag_442:\n        /* \"#utility.yul\":21053:21120   */\n      tag_443\n        /* \"#utility.yul\":21113:21119   */\n      dup6\n        /* \"#utility.yul\":21106:21111   */\n      dup3\n        /* \"#utility.yul\":21053:21120   */\n      tag_226\n      jump\t// in\n    tag_443:\n        /* \"#utility.yul\":21047:21051   */\n      dup7\n        /* \"#utility.yul\":21040:21121   */\n      sstore\n        /* \"#utility.yul\":20909:21131   */\n      pop\n        /* \"#utility.yul\":20244:21131   */\n      jump(tag_440)\n        /* \"#utility.yul\":20274:20892   */\n    tag_441:\n        /* \"#utility.yul\":20326:20330   */\n      0x1f\n        /* \"#utility.yul\":20322:20331   */\n      not\n        /* \"#utility.yul\":20314:20320   */\n      dup5\n        /* \"#utility.yul\":20310:20332   */\n      and\n        /* \"#utility.yul\":20360:20397   */\n      tag_444\n        /* \"#utility.yul\":20392:20396   */\n      dup7\n        /* \"#utility.yul\":20360:20397   */\n      tag_212\n      jump\t// in\n    tag_444:\n        /* \"#utility.yul\":20419:20420   */\n      0x00\n        /* \"#utility.yul\":20433:20641   */\n    tag_445:\n        /* \"#utility.yul\":20447:20454   */\n      dup3\n        /* \"#utility.yul\":20444:20445   */\n      dup2\n        /* \"#utility.yul\":20441:20455   */\n      lt\n        /* \"#utility.yul\":20433:20641   */\n      iszero\n      tag_447\n      jumpi\n        /* \"#utility.yul\":20526:20535   */\n      dup5\n        /* \"#utility.yul\":20521:20524   */\n      dup10\n        /* \"#utility.yul\":20517:20536   */\n      add\n        /* \"#utility.yul\":20511:20537   */\n      mload\n        /* \"#utility.yul\":20503:20509   */\n      dup3\n        /* \"#utility.yul\":20496:20538   */\n      sstore\n        /* \"#utility.yul\":20577:20578   */\n      0x01\n        /* \"#utility.yul\":20569:20575   */\n      dup3\n        /* \"#utility.yul\":20565:20579   */\n      add\n        /* \"#utility.yul\":20555:20579   */\n      swap2\n      pop\n        /* \"#utility.yul\":20624:20626   */\n      0x20\n        /* \"#utility.yul\":20613:20622   */\n      dup6\n        /* \"#utility.yul\":20609:20627   */\n      add\n        /* \"#utility.yul\":20596:20627   */\n      swap5\n      pop\n        /* \"#utility.yul\":20470:20474   */\n      0x20\n        /* \"#utility.yul\":20467:20468   */\n      dup2\n        /* \"#utility.yul\":20463:20475   */\n      add\n        /* \"#utility.yul\":20458:20475   */\n      swap1\n      pop\n        /* \"#utility.yul\":20433:20641   */\n      jump(tag_445)\n    tag_447:\n        /* \"#utility.yul\":20669:20675   */\n      dup7\n        /* \"#utility.yul\":20660:20667   */\n      dup4\n        /* \"#utility.yul\":20657:20676   */\n      lt\n        /* \"#utility.yul\":20654:20833   */\n      iszero\n      tag_448\n      jumpi\n        /* \"#utility.yul\":20727:20736   */\n      dup5\n        /* \"#utility.yul\":20722:20725   */\n      dup10\n        /* \"#utility.yul\":20718:20737   */\n      add\n        /* \"#utility.yul\":20712:20738   */\n      mload\n        /* \"#utility.yul\":20770:20818   */\n      tag_449\n        /* \"#utility.yul\":20812:20816   */\n      0x1f\n        /* \"#utility.yul\":20804:20810   */\n      dup10\n        /* \"#utility.yul\":20800:20817   */\n      and\n        /* \"#utility.yul\":20789:20798   */\n      dup3\n        /* \"#utility.yul\":20770:20818   */\n      tag_225\n      jump\t// in\n    tag_449:\n        /* \"#utility.yul\":20762:20768   */\n      dup4\n        /* \"#utility.yul\":20755:20819   */\n      sstore\n        /* \"#utility.yul\":20677:20833   */\n      pop\n        /* \"#utility.yul\":20654:20833   */\n    tag_448:\n        /* \"#utility.yul\":20879:20880   */\n      0x01\n        /* \"#utility.yul\":20875:20876   */\n      0x02\n        /* \"#utility.yul\":20867:20873   */\n      dup9\n        /* \"#utility.yul\":20863:20877   */\n      mul\n        /* \"#utility.yul\":20859:20881   */\n      add\n        /* \"#utility.yul\":20853:20857   */\n      dup9\n        /* \"#utility.yul\":20846:20882   */\n      sstore\n        /* \"#utility.yul\":20281:20892   */\n      pop\n      pop\n      pop\n        /* \"#utility.yul\":20244:21131   */\n    tag_440:\n      pop\n        /* \"#utility.yul\":19834:21137   */\n      pop\n      pop\n      pop\n        /* \"#utility.yul\":19742:21137   */\n      pop\n      pop\n      jump\t// out\n\n    auxdata: 0xa2646970667358221220f9bf2ce99df324a8e7a0ade50315acca41d1e6070862075905b96ccb3fb101b364736f6c634300080f0033\n}\n",
				"bytecode": {
					"linkReferences": {},
					"object": "608060405234801561001057600080fd5b5061218d806100206000396000f3fe608060405234801561001057600080fd5b50600436106100575760003560e01c8063377e6ff71461005c57806380c9419e1461008c57806382e40813146100c3578063904cc175146100df578063a97af4d51461010f575b600080fd5b61007660048036038101906100719190611638565b61012b565b60405161008391906118a6565b60405180910390f35b6100a660048036038101906100a191906118f4565b61044a565b6040516100ba989796959493929190611989565b60405180910390f35b6100dd60048036038101906100d89190611a1c565b61067a565b005b6100f960048036038101906100f491906118f4565b610b2a565b60405161010691906118a6565b60405180910390f35b61012960048036038101906101249190611b91565b611106565b005b6060600360008373ffffffffffffffffffffffffffffffffffffffff1673ffffffffffffffffffffffffffffffffffffffff168152602001908152602001600020805480602002602001604051908101604052809291908181526020016000905b8282101561043f578382906000526020600020906008020160405180610100016040529081600082015481526020016001820180546101ca90611c4b565b80601f01602080910402602001604051908101604052809291908181526020018280546101f690611c4b565b80156102435780601f1061021857610100808354040283529160200191610243565b820191906000526020600020905b81548152906001019060200180831161022657829003601f168201915b50505050508152602001600282015481526020016003820160009054906101000a900473ffffffffffffffffffffffffffffffffffffffff1673ffffffffffffffffffffffffffffffffffffffff1673ffffffffffffffffffffffffffffffffffffffff1681526020016004820160009054906101000a900473ffffffffffffffffffffffffffffffffffffffff1673ffffffffffffffffffffffffffffffffffffffff1673ffffffffffffffffffffffffffffffffffffffff1681526020016005820154815260200160068201805461031c90611c4b565b80601f016020809104026020016040519081016040528092919081815260200182805461034890611c4b565b80156103955780601f1061036a57610100808354040283529160200191610395565b820191906000526020600020905b81548152906001019060200180831161037857829003601f168201915b505050505081526020016007820180546103ae90611c4b565b80601f01602080910402602001604051908101604052809291908181526020018280546103da90611c4b565b80156104275780601f106103fc57610100808354040283529160200191610427565b820191906000526020600020905b81548152906001019060200180831161040a57829003601f168201915b5050505050815250508152602001906001019061018c565b505050509050919050565b6001818154811061045a57600080fd5b906000526020600020906008020160009150905080600001549080600101805461048390611c4b565b80601f01602080910402602001604051908101604052809291908181526020018280546104af90611c4b565b80156104fc5780601f106104d1576101008083540402835291602001916104fc565b820191906000526020600020905b8154815290600101906020018083116104df57829003601f168201915b5050505050908060020154908060030160009054906101000a900473ffffffffffffffffffffffffffffffffffffffff16908060040160009054906101000a900473ffffffffffffffffffffffffffffffffffffffff169080600501549080600601805461056990611c4b565b80601f016020809104026020016040519081016040528092919081815260200182805461059590611c4b565b80156105e25780601f106105b7576101008083540402835291602001916105e2565b820191906000526020600020905b8154815290600101906020018083116105c557829003601f168201915b5050505050908060070180546105f790611c4b565b80601f016020809104026020016040519081016040528092919081815260200182805461062390611c4b565b80156106705780601f1061064557610100808354040283529160200191610670565b820191906000526020600020905b81548152906001019060200180831161065357829003601f168201915b5050505050905088565b806001838154811061068f5761068e611c7c565b5b90600052602060002090600802016002018190555060005b60016002600060018152602001908152602001600020805490506106cb9190611cda565b8110156108c65782600260006001815260200190815260200160002082815481106106f9576106f8611c7c565b5b906000526020600020906008020160000154036108b35760026000600181526020019081526020016000206001826107319190611d0e565b8154811061074257610741611c7c565b5b90600052602060002090600802016002600060018152602001908152602001600020828154811061077657610775611c7c565b5b906000526020600020906008020160008201548160000155600182018160010190816107a29190611f26565b50600282015481600201556003820160009054906101000a900473ffffffffffffffffffffffffffffffffffffffff168160030160006101000a81548173ffffffffffffffffffffffffffffffffffffffff021916908373ffffffffffffffffffffffffffffffffffffffff1602179055506004820160009054906101000a900473ffffffffffffffffffffffffffffffffffffffff168160040160006101000a81548173ffffffffffffffffffffffffffffffffffffffff021916908373ffffffffffffffffffffffffffffffffffffffff16021790555060058201548160050155600682018160060190816108999190611f26565b50600782018160070190816108ae9190611f26565b509050505b80806108be9061200e565b9150506106a7565b5060026000600181526020019081526020016000208054806108eb576108ea612056565b5b60019003818190600052602060002090600802016000808201600090556001820160006109189190611569565b60028201600090556003820160006101000a81549073ffffffffffffffffffffffffffffffffffffffff02191690556004820160006101000a81549073ffffffffffffffffffffffffffffffffffffffff021916905560058201600090556006820160006109869190611569565b6007820160006109969190611569565b505090556002600060038152602001908152602001600020600183815481106109c2576109c1611c7c565b5b906000526020600020906008020190806001815401808255809150506001900390600052602060002090600802016000909190919091506000820154816000015560018201816001019081610a179190611f26565b50600282015481600201556003820160009054906101000a900473ffffffffffffffffffffffffffffffffffffffff168160030160006101000a81548173ffffffffffffffffffffffffffffffffffffffff021916908373ffffffffffffffffffffffffffffffffffffffff1602179055506004820160009054906101000a900473ffffffffffffffffffffffffffffffffffffffff168160040160006101000a81548173ffffffffffffffffffffffffffffffffffffffff021916908373ffffffffffffffffffffffffffffffffffffffff1602179055506005820154816005015560068201816006019081610b0e9190611f26565b5060078201816007019081610b239190611f26565b5050505050565b606060008203610e14576001805480602002602001604051908101604052809291908181526020016000905b82821015610e0957838290600052602060002090600802016040518061010001604052908160008201548152602001600182018054610b9490611c4b565b80601f0160208091040260200160405190810160405280929190818152602001828054610bc090611c4b565b8015610c0d5780601f10610be257610100808354040283529160200191610c0d565b820191906000526020600020905b815481529060010190602001808311610bf057829003601f168201915b50505050508152602001600282015481526020016003820160009054906101000a900473ffffffffffffffffffffffffffffffffffffffff1673ffffffffffffffffffffffffffffffffffffffff1673ffffffffffffffffffffffffffffffffffffffff1681526020016004820160009054906101000a900473ffffffffffffffffffffffffffffffffffffffff1673ffffffffffffffffffffffffffffffffffffffff1673ffffffffffffffffffffffffffffffffffffffff16815260200160058201548152602001600682018054610ce690611c4b565b80601f0160208091040260200160405190810160405280929190818152602001828054610d1290611c4b565b8015610d5f5780601f10610d3457610100808354040283529160200191610d5f565b820191906000526020600020905b815481529060010190602001808311610d4257829003601f168201915b50505050508152602001600782018054610d7890611c4b565b80601f0160208091040260200160405190810160405280929190818152602001828054610da490611c4b565b8015610df15780601f10610dc657610100808354040283529160200191610df1565b820191906000526020600020905b815481529060010190602001808311610dd457829003601f168201915b50505050508152505081526020019060010190610b56565b505050509050611101565b60026000838152602001908152602001600020805480602002602001604051908101604052809291908181526020016000905b828210156110fa57838290600052602060002090600802016040518061010001604052908160008201548152602001600182018054610e8590611c4b565b80601f0160208091040260200160405190810160405280929190818152602001828054610eb190611c4b565b8015610efe5780601f10610ed357610100808354040283529160200191610efe565b820191906000526020600020905b815481529060010190602001808311610ee157829003601f168201915b50505050508152602001600282015481526020016003820160009054906101000a900473ffffffffffffffffffffffffffffffffffffffff1673ffffffffffffffffffffffffffffffffffffffff1673ffffffffffffffffffffffffffffffffffffffff1681526020016004820160009054906101000a900473ffffffffffffffffffffffffffffffffffffffff1673ffffffffffffffffffffffffffffffffffffffff1673ffffffffffffffffffffffffffffffffffffffff16815260200160058201548152602001600682018054610fd790611c4b565b80601f016020809104026020016040519081016040528092919081815260200182805461100390611c4b565b80156110505780601f1061102557610100808354040283529160200191611050565b820191906000526020600020905b81548152906001019060200180831161103357829003601f168201915b5050505050815260200160078201805461106990611c4b565b80601f016020809104026020016040519081016040528092919081815260200182805461109590611c4b565b80156110e25780601f106110b7576101008083540402835291602001916110e2565b820191906000526020600020905b8154815290600101906020018083116110c557829003601f168201915b50505050508152505081526020019060010190610e47565b5050505090505b919050565b6000808154809291906111189061200e565b919050555060006040518061010001604052806000548152602001858152602001600081526020013373ffffffffffffffffffffffffffffffffffffffff1681526020018473ffffffffffffffffffffffffffffffffffffffff168152602001600081526020018381526020016040518060400160405280600181526020017f30000000000000000000000000000000000000000000000000000000000000008152508152509050600181908060018154018082558091505060019003906000526020600020906008020160009091909190915060008201518160000155602082015181600101908161120b9190612085565b506040820151816002015560608201518160030160006101000a81548173ffffffffffffffffffffffffffffffffffffffff021916908373ffffffffffffffffffffffffffffffffffffffff16021790555060808201518160040160006101000a81548173ffffffffffffffffffffffffffffffffffffffff021916908373ffffffffffffffffffffffffffffffffffffffff16021790555060a0820151816005015560c08201518160060190816112c39190612085565b5060e08201518160070190816112d99190612085565b50505060026000600181526020019081526020016000208190806001815401808255809150506001900390600052602060002090600802016000909190919091506000820151816000015560208201518160010190816113399190612085565b506040820151816002015560608201518160030160006101000a81548173ffffffffffffffffffffffffffffffffffffffff021916908373ffffffffffffffffffffffffffffffffffffffff16021790555060808201518160040160006101000a81548173ffffffffffffffffffffffffffffffffffffffff021916908373ffffffffffffffffffffffffffffffffffffffff16021790555060a0820151816005015560c08201518160060190816113f19190612085565b5060e08201518160070190816114079190612085565b505050600360003373ffffffffffffffffffffffffffffffffffffffff1673ffffffffffffffffffffffffffffffffffffffff1681526020019081526020016000208190806001815401808255809150506001900390600052602060002090600802016000909190919091506000820151816000015560208201518160010190816114929190612085565b506040820151816002015560608201518160030160006101000a81548173ffffffffffffffffffffffffffffffffffffffff021916908373ffffffffffffffffffffffffffffffffffffffff16021790555060808201518160040160006101000a81548173ffffffffffffffffffffffffffffffffffffffff021916908373ffffffffffffffffffffffffffffffffffffffff16021790555060a0820151816005015560c082015181600601908161154a9190612085565b5060e08201518160070190816115609190612085565b50505050505050565b50805461157590611c4b565b6000825580601f1061158757506115a6565b601f0160209004906000526020600020908101906115a591906115a9565b5b50565b5b808211156115c25760008160009055506001016115aa565b5090565b6000604051905090565b600080fd5b600080fd5b600073ffffffffffffffffffffffffffffffffffffffff82169050919050565b6000611605826115da565b9050919050565b611615816115fa565b811461162057600080fd5b50565b6000813590506116328161160c565b92915050565b60006020828403121561164e5761164d6115d0565b5b600061165c84828501611623565b91505092915050565b600081519050919050565b600082825260208201905092915050565b6000819050602082019050919050565b6000819050919050565b6116a481611691565b82525050565b600081519050919050565b600082825260208201905092915050565b60005b838110156116e45780820151818401526020810190506116c9565b838111156116f3576000848401525b50505050565b6000601f19601f8301169050919050565b6000611715826116aa565b61171f81856116b5565b935061172f8185602086016116c6565b611738816116f9565b840191505092915050565b61174c816115fa565b82525050565b60006101008301600083015161176b600086018261169b565b5060208301518482036020860152611783828261170a565b9150506040830151611798604086018261169b565b5060608301516117ab6060860182611743565b5060808301516117be6080860182611743565b5060a08301516117d160a086018261169b565b5060c083015184820360c08601526117e9828261170a565b91505060e083015184820360e0860152611803828261170a565b9150508091505092915050565b600061181c8383611752565b905092915050565b6000602082019050919050565b600061183c82611665565b6118468185611670565b93508360208202850161185885611681565b8060005b8581101561189457848403895281516118758582611810565b945061188083611824565b925060208a0199505060018101905061185c565b50829750879550505050505092915050565b600060208201905081810360008301526118c08184611831565b905092915050565b6118d181611691565b81146118dc57600080fd5b50565b6000813590506118ee816118c8565b92915050565b60006020828403121561190a576119096115d0565b5b6000611918848285016118df565b91505092915050565b61192a81611691565b82525050565b600082825260208201905092915050565b600061194c826116aa565b6119568185611930565b93506119668185602086016116c6565b61196f816116f9565b840191505092915050565b611983816115fa565b82525050565b60006101008201905061199f600083018b611921565b81810360208301526119b1818a611941565b90506119c06040830189611921565b6119cd606083018861197a565b6119da608083018761197a565b6119e760a0830186611921565b81810360c08301526119f98185611941565b905081810360e0830152611a0d8184611941565b90509998505050505050505050565b60008060408385031215611a3357611a326115d0565b5b6000611a41858286016118df565b9250506020611a52858286016118df565b9150509250929050565b600080fd5b600080fd5b7f4e487b7100000000000000000000000000000000000000000000000000000000600052604160045260246000fd5b611a9e826116f9565b810181811067ffffffffffffffff82111715611abd57611abc611a66565b5b80604052505050565b6000611ad06115c6565b9050611adc8282611a95565b919050565b600067ffffffffffffffff821115611afc57611afb611a66565b5b611b05826116f9565b9050602081019050919050565b82818337600083830152505050565b6000611b34611b2f84611ae1565b611ac6565b905082815260208101848484011115611b5057611b4f611a61565b5b611b5b848285611b12565b509392505050565b600082601f830112611b7857611b77611a5c565b5b8135611b88848260208601611b21565b91505092915050565b600080600060608486031215611baa57611ba96115d0565b5b600084013567ffffffffffffffff811115611bc857611bc76115d5565b5b611bd486828701611b63565b9350506020611be586828701611623565b925050604084013567ffffffffffffffff811115611c0657611c056115d5565b5b611c1286828701611b63565b9150509250925092565b7f4e487b7100000000000000000000000000000000000000000000000000000000600052602260045260246000fd5b60006002820490506001821680611c6357607f821691505b602082108103611c7657611c75611c1c565b5b50919050565b7f4e487b7100000000000000000000000000000000000000000000000000000000600052603260045260246000fd5b7f4e487b7100000000000000000000000000000000000000000000000000000000600052601160045260246000fd5b6000611ce582611691565b9150611cf083611691565b925082821015611d0357611d02611cab565b5b828203905092915050565b6000611d1982611691565b9150611d2483611691565b9250827fffffffffffffffffffffffffffffffffffffffffffffffffffffffffffffffff03821115611d5957611d58611cab565b5b828201905092915050565b600081549050611d7381611c4b565b9050919050565b60008190508160005260206000209050919050565b60006020601f8301049050919050565b600082821b905092915050565b600060088302611ddc7fffffffffffffffffffffffffffffffffffffffffffffffffffffffffffffffff82611d9f565b611de68683611d9f565b95508019841693508086168417925050509392505050565b6000819050919050565b6000611e23611e1e611e1984611691565b611dfe565b611691565b9050919050565b6000819050919050565b611e3d83611e08565b611e51611e4982611e2a565b848454611dac565b825550505050565b600090565b611e66611e59565b611e71818484611e34565b505050565b5b81811015611e9557611e8a600082611e5e565b600181019050611e77565b5050565b601f821115611eda57611eab81611d7a565b611eb484611d8f565b81016020851015611ec3578190505b611ed7611ecf85611d8f565b830182611e76565b50505b505050565b600082821c905092915050565b6000611efd60001984600802611edf565b1980831691505092915050565b6000611f168383611eec565b9150826002028217905092915050565b818103611f3457505061200c565b611f3d82611d64565b67ffffffffffffffff811115611f5657611f55611a66565b5b611f608254611c4b565b611f6b828285611e99565b6000601f831160018114611f9a5760008415611f88578287015490505b611f928582611f0a565b865550612005565b601f198416611fa887611d7a565b9650611fb386611d7a565b60005b82811015611fdb57848901548255600182019150600185019450602081019050611fb6565b86831015611ff85784890154611ff4601f891682611eec565b8355505b6001600288020188555050505b5050505050505b565b600061201982611691565b91507fffffffffffffffffffffffffffffffffffffffffffffffffffffffffffffffff820361204b5761204a611cab565b5b600182019050919050565b7f4e487b7100000000000000000000000000000000000000000000000000000000600052603160045260246000fd5b61208e826116aa565b67ffffffffffffffff8111156120a7576120a6611a66565b5b6120b18254611c4b565b6120bc828285611e99565b600060209050601f8311600181146120ef57600084156120dd578287015190505b6120e78582611f0a565b86555061214f565b601f1984166120fd86611d7a565b60005b8281101561212557848901518255600182019150602085019450602081019050612100565b86831015612142578489015161213e601f891682611eec565b8355505b6001600288020188555050505b50505050505056fea2646970667358221220f9bf2ce99df324a8e7a0ade50315acca41d1e6070862075905b96ccb3fb101b364736f6c634300080f0033",
					"opcodes": "PUSH1 0x80 PUSH1 0x40 MSTORE CALLVALUE DUP1 ISZERO PUSH2 0x10 JUMPI PUSH1 0x0 DUP1 REVERT JUMPDEST POP PUSH2 0x218D DUP1 PUSH2 0x20 PUSH1 0x0 CODECOPY PUSH1 0x0 RETURN INVALID PUSH1 0x80 PUSH1 0x40 MSTORE CALLVALUE DUP1 ISZERO PUSH2 0x10 JUMPI PUSH1 0x0 DUP1 REVERT JUMPDEST POP PUSH1 0x4 CALLDATASIZE LT PUSH2 0x57 JUMPI PUSH1 0x0 CALLDATALOAD PUSH1 0xE0 SHR DUP1 PUSH4 0x377E6FF7 EQ PUSH2 0x5C JUMPI DUP1 PUSH4 0x80C9419E EQ PUSH2 0x8C JUMPI DUP1 PUSH4 0x82E40813 EQ PUSH2 0xC3 JUMPI DUP1 PUSH4 0x904CC175 EQ PUSH2 0xDF JUMPI DUP1 PUSH4 0xA97AF4D5 EQ PUSH2 0x10F JUMPI JUMPDEST PUSH1 0x0 DUP1 REVERT JUMPDEST PUSH2 0x76 PUSH1 0x4 DUP1 CALLDATASIZE SUB DUP2 ADD SWAP1 PUSH2 0x71 SWAP2 SWAP1 PUSH2 0x1638 JUMP JUMPDEST PUSH2 0x12B JUMP JUMPDEST PUSH1 0x40 MLOAD PUSH2 0x83 SWAP2 SWAP1 PUSH2 0x18A6 JUMP JUMPDEST PUSH1 0x40 MLOAD DUP1 SWAP2 SUB SWAP1 RETURN JUMPDEST PUSH2 0xA6 PUSH1 0x4 DUP1 CALLDATASIZE SUB DUP2 ADD SWAP1 PUSH2 0xA1 SWAP2 SWAP1 PUSH2 0x18F4 JUMP JUMPDEST PUSH2 0x44A JUMP JUMPDEST PUSH1 0x40 MLOAD PUSH2 0xBA SWAP9 SWAP8 SWAP7 SWAP6 SWAP5 SWAP4 SWAP3 SWAP2 SWAP1 PUSH2 0x1989 JUMP JUMPDEST PUSH1 0x40 MLOAD DUP1 SWAP2 SUB SWAP1 RETURN JUMPDEST PUSH2 0xDD PUSH1 0x4 DUP1 CALLDATASIZE SUB DUP2 ADD SWAP1 PUSH2 0xD8 SWAP2 SWAP1 PUSH2 0x1A1C JUMP JUMPDEST PUSH2 0x67A JUMP JUMPDEST STOP JUMPDEST PUSH2 0xF9 PUSH1 0x4 DUP1 CALLDATASIZE SUB DUP2 ADD SWAP1 PUSH2 0xF4 SWAP2 SWAP1 PUSH2 0x18F4 JUMP JUMPDEST PUSH2 0xB2A JUMP JUMPDEST PUSH1 0x40 MLOAD PUSH2 0x106 SWAP2 SWAP1 PUSH2 0x18A6 JUMP JUMPDEST PUSH1 0x40 MLOAD DUP1 SWAP2 SUB SWAP1 RETURN JUMPDEST PUSH2 0x129 PUSH1 0x4 DUP1 CALLDATASIZE SUB DUP2 ADD SWAP1 PUSH2 0x124 SWAP2 SWAP1 PUSH2 0x1B91 JUMP JUMPDEST PUSH2 0x1106 JUMP JUMPDEST STOP JUMPDEST PUSH1 0x60 PUSH1 0x3 PUSH1 0x0 DUP4 PUSH20 0xFFFFFFFFFFFFFFFFFFFFFFFFFFFFFFFFFFFFFFFF AND PUSH20 0xFFFFFFFFFFFFFFFFFFFFFFFFFFFFFFFFFFFFFFFF AND DUP2 MSTORE PUSH1 0x20 ADD SWAP1 DUP2 MSTORE PUSH1 0x20 ADD PUSH1 0x0 KECCAK256 DUP1 SLOAD DUP1 PUSH1 0x20 MUL PUSH1 0x20 ADD PUSH1 0x40 MLOAD SWAP1 DUP2 ADD PUSH1 0x40 MSTORE DUP1 SWAP3 SWAP2 SWAP1 DUP2 DUP2 MSTORE PUSH1 0x20 ADD PUSH1 0x0 SWAP1 JUMPDEST DUP3 DUP3 LT ISZERO PUSH2 0x43F JUMPI DUP4 DUP3 SWAP1 PUSH1 0x0 MSTORE PUSH1 0x20 PUSH1 0x0 KECCAK256 SWAP1 PUSH1 0x8 MUL ADD PUSH1 0x40 MLOAD DUP1 PUSH2 0x100 ADD PUSH1 0x40 MSTORE SWAP1 DUP2 PUSH1 0x0 DUP3 ADD SLOAD DUP2 MSTORE PUSH1 0x20 ADD PUSH1 0x1 DUP3 ADD DUP1 SLOAD PUSH2 0x1CA SWAP1 PUSH2 0x1C4B JUMP JUMPDEST DUP1 PUSH1 0x1F ADD PUSH1 0x20 DUP1 SWAP2 DIV MUL PUSH1 0x20 ADD PUSH1 0x40 MLOAD SWAP1 DUP2 ADD PUSH1 0x40 MSTORE DUP1 SWAP3 SWAP2 SWAP1 DUP2 DUP2 MSTORE PUSH1 0x20 ADD DUP3 DUP1 SLOAD PUSH2 0x1F6 SWAP1 PUSH2 0x1C4B JUMP JUMPDEST DUP1 ISZERO PUSH2 0x243 JUMPI DUP1 PUSH1 0x1F LT PUSH2 0x218 JUMPI PUSH2 0x100 DUP1 DUP4 SLOAD DIV MUL DUP4 MSTORE SWAP2 PUSH1 0x20 ADD SWAP2 PUSH2 0x243 JUMP JUMPDEST DUP3 ADD SWAP2 SWAP1 PUSH1 0x0 MSTORE PUSH1 0x20 PUSH1 0x0 KECCAK256 SWAP1 JUMPDEST DUP2 SLOAD DUP2 MSTORE SWAP1 PUSH1 0x1 ADD SWAP1 PUSH1 0x20 ADD DUP1 DUP4 GT PUSH2 0x226 JUMPI DUP3 SWAP1 SUB PUSH1 0x1F AND DUP3 ADD SWAP2 JUMPDEST POP POP POP POP POP DUP2 MSTORE PUSH1 0x20 ADD PUSH1 0x2 DUP3 ADD SLOAD DUP2 MSTORE PUSH1 0x20 ADD PUSH1 0x3 DUP3 ADD PUSH1 0x0 SWAP1 SLOAD SWAP1 PUSH2 0x100 EXP SWAP1 DIV PUSH20 0xFFFFFFFFFFFFFFFFFFFFFFFFFFFFFFFFFFFFFFFF AND PUSH20 0xFFFFFFFFFFFFFFFFFFFFFFFFFFFFFFFFFFFFFFFF AND PUSH20 0xFFFFFFFFFFFFFFFFFFFFFFFFFFFFFFFFFFFFFFFF AND DUP2 MSTORE PUSH1 0x20 ADD PUSH1 0x4 DUP3 ADD PUSH1 0x0 SWAP1 SLOAD SWAP1 PUSH2 0x100 EXP SWAP1 DIV PUSH20 0xFFFFFFFFFFFFFFFFFFFFFFFFFFFFFFFFFFFFFFFF AND PUSH20 0xFFFFFFFFFFFFFFFFFFFFFFFFFFFFFFFFFFFFFFFF AND PUSH20 0xFFFFFFFFFFFFFFFFFFFFFFFFFFFFFFFFFFFFFFFF AND DUP2 MSTORE PUSH1 0x20 ADD PUSH1 0x5 DUP3 ADD SLOAD DUP2 MSTORE PUSH1 0x20 ADD PUSH1 0x6 DUP3 ADD DUP1 SLOAD PUSH2 0x31C SWAP1 PUSH2 0x1C4B JUMP JUMPDEST DUP1 PUSH1 0x1F ADD PUSH1 0x20 DUP1 SWAP2 DIV MUL PUSH1 0x20 ADD PUSH1 0x40 MLOAD SWAP1 DUP2 ADD PUSH1 0x40 MSTORE DUP1 SWAP3 SWAP2 SWAP1 DUP2 DUP2 MSTORE PUSH1 0x20 ADD DUP3 DUP1 SLOAD PUSH2 0x348 SWAP1 PUSH2 0x1C4B JUMP JUMPDEST DUP1 ISZERO PUSH2 0x395 JUMPI DUP1 PUSH1 0x1F LT PUSH2 0x36A JUMPI PUSH2 0x100 DUP1 DUP4 SLOAD DIV MUL DUP4 MSTORE SWAP2 PUSH1 0x20 ADD SWAP2 PUSH2 0x395 JUMP JUMPDEST DUP3 ADD SWAP2 SWAP1 PUSH1 0x0 MSTORE PUSH1 0x20 PUSH1 0x0 KECCAK256 SWAP1 JUMPDEST DUP2 SLOAD DUP2 MSTORE SWAP1 PUSH1 0x1 ADD SWAP1 PUSH1 0x20 ADD DUP1 DUP4 GT PUSH2 0x378 JUMPI DUP3 SWAP1 SUB PUSH1 0x1F AND DUP3 ADD SWAP2 JUMPDEST POP POP POP POP POP DUP2 MSTORE PUSH1 0x20 ADD PUSH1 0x7 DUP3 ADD DUP1 SLOAD PUSH2 0x3AE SWAP1 PUSH2 0x1C4B JUMP JUMPDEST DUP1 PUSH1 0x1F ADD PUSH1 0x20 DUP1 SWAP2 DIV MUL PUSH1 0x20 ADD PUSH1 0x40 MLOAD SWAP1 DUP2 ADD PUSH1 0x40 MSTORE DUP1 SWAP3 SWAP2 SWAP1 DUP2 DUP2 MSTORE PUSH1 0x20 ADD DUP3 DUP1 SLOAD PUSH2 0x3DA SWAP1 PUSH2 0x1C4B JUMP JUMPDEST DUP1 ISZERO PUSH2 0x427 JUMPI DUP1 PUSH1 0x1F LT PUSH2 0x3FC JUMPI PUSH2 0x100 DUP1 DUP4 SLOAD DIV MUL DUP4 MSTORE SWAP2 PUSH1 0x20 ADD SWAP2 PUSH2 0x427 JUMP JUMPDEST DUP3 ADD SWAP2 SWAP1 PUSH1 0x0 MSTORE PUSH1 0x20 PUSH1 0x0 KECCAK256 SWAP1 JUMPDEST DUP2 SLOAD DUP2 MSTORE SWAP1 PUSH1 0x1 ADD SWAP1 PUSH1 0x20 ADD DUP1 DUP4 GT PUSH2 0x40A JUMPI DUP3 SWAP1 SUB PUSH1 0x1F AND DUP3 ADD SWAP2 JUMPDEST POP POP POP POP POP DUP2 MSTORE POP POP DUP2 MSTORE PUSH1 0x20 ADD SWAP1 PUSH1 0x1 ADD SWAP1 PUSH2 0x18C JUMP JUMPDEST POP POP POP POP SWAP1 POP SWAP2 SWAP1 POP JUMP JUMPDEST PUSH1 0x1 DUP2 DUP2 SLOAD DUP2 LT PUSH2 0x45A JUMPI PUSH1 0x0 DUP1 REVERT JUMPDEST SWAP1 PUSH1 0x0 MSTORE PUSH1 0x20 PUSH1 0x0 KECCAK256 SWAP1 PUSH1 0x8 MUL ADD PUSH1 0x0 SWAP2 POP SWAP1 POP DUP1 PUSH1 0x0 ADD SLOAD SWAP1 DUP1 PUSH1 0x1 ADD DUP1 SLOAD PUSH2 0x483 SWAP1 PUSH2 0x1C4B JUMP JUMPDEST DUP1 PUSH1 0x1F ADD PUSH1 0x20 DUP1 SWAP2 DIV MUL PUSH1 0x20 ADD PUSH1 0x40 MLOAD SWAP1 DUP2 ADD PUSH1 0x40 MSTORE DUP1 SWAP3 SWAP2 SWAP1 DUP2 DUP2 MSTORE PUSH1 0x20 ADD DUP3 DUP1 SLOAD PUSH2 0x4AF SWAP1 PUSH2 0x1C4B JUMP JUMPDEST DUP1 ISZERO PUSH2 0x4FC JUMPI DUP1 PUSH1 0x1F LT PUSH2 0x4D1 JUMPI PUSH2 0x100 DUP1 DUP4 SLOAD DIV MUL DUP4 MSTORE SWAP2 PUSH1 0x20 ADD SWAP2 PUSH2 0x4FC JUMP JUMPDEST DUP3 ADD SWAP2 SWAP1 PUSH1 0x0 MSTORE PUSH1 0x20 PUSH1 0x0 KECCAK256 SWAP1 JUMPDEST DUP2 SLOAD DUP2 MSTORE SWAP1 PUSH1 0x1 ADD SWAP1 PUSH1 0x20 ADD DUP1 DUP4 GT PUSH2 0x4DF JUMPI DUP3 SWAP1 SUB PUSH1 0x1F AND DUP3 ADD SWAP2 JUMPDEST POP POP POP POP POP SWAP1 DUP1 PUSH1 0x2 ADD SLOAD SWAP1 DUP1 PUSH1 0x3 ADD PUSH1 0x0 SWAP1 SLOAD SWAP1 PUSH2 0x100 EXP SWAP1 DIV PUSH20 0xFFFFFFFFFFFFFFFFFFFFFFFFFFFFFFFFFFFFFFFF AND SWAP1 DUP1 PUSH1 0x4 ADD PUSH1 0x0 SWAP1 SLOAD SWAP1 PUSH2 0x100 EXP SWAP1 DIV PUSH20 0xFFFFFFFFFFFFFFFFFFFFFFFFFFFFFFFFFFFFFFFF AND SWAP1 DUP1 PUSH1 0x5 ADD SLOAD SWAP1 DUP1 PUSH1 0x6 ADD DUP1 SLOAD PUSH2 0x569 SWAP1 PUSH2 0x1C4B JUMP JUMPDEST DUP1 PUSH1 0x1F ADD PUSH1 0x20 DUP1 SWAP2 DIV MUL PUSH1 0x20 ADD PUSH1 0x40 MLOAD SWAP1 DUP2 ADD PUSH1 0x40 MSTORE DUP1 SWAP3 SWAP2 SWAP1 DUP2 DUP2 MSTORE PUSH1 0x20 ADD DUP3 DUP1 SLOAD PUSH2 0x595 SWAP1 PUSH2 0x1C4B JUMP JUMPDEST DUP1 ISZERO PUSH2 0x5E2 JUMPI DUP1 PUSH1 0x1F LT PUSH2 0x5B7 JUMPI PUSH2 0x100 DUP1 DUP4 SLOAD DIV MUL DUP4 MSTORE SWAP2 PUSH1 0x20 ADD SWAP2 PUSH2 0x5E2 JUMP JUMPDEST DUP3 ADD SWAP2 SWAP1 PUSH1 0x0 MSTORE PUSH1 0x20 PUSH1 0x0 KECCAK256 SWAP1 JUMPDEST DUP2 SLOAD DUP2 MSTORE SWAP1 PUSH1 0x1 ADD SWAP1 PUSH1 0x20 ADD DUP1 DUP4 GT PUSH2 0x5C5 JUMPI DUP3 SWAP1 SUB PUSH1 0x1F AND DUP3 ADD SWAP2 JUMPDEST POP POP POP POP POP SWAP1 DUP1 PUSH1 0x7 ADD DUP1 SLOAD PUSH2 0x5F7 SWAP1 PUSH2 0x1C4B JUMP JUMPDEST DUP1 PUSH1 0x1F ADD PUSH1 0x20 DUP1 SWAP2 DIV MUL PUSH1 0x20 ADD PUSH1 0x40 MLOAD SWAP1 DUP2 ADD PUSH1 0x40 MSTORE DUP1 SWAP3 SWAP2 SWAP1 DUP2 DUP2 MSTORE PUSH1 0x20 ADD DUP3 DUP1 SLOAD PUSH2 0x623 SWAP1 PUSH2 0x1C4B JUMP JUMPDEST DUP1 ISZERO PUSH2 0x670 JUMPI DUP1 PUSH1 0x1F LT PUSH2 0x645 JUMPI PUSH2 0x100 DUP1 DUP4 SLOAD DIV MUL DUP4 MSTORE SWAP2 PUSH1 0x20 ADD SWAP2 PUSH2 0x670 JUMP JUMPDEST DUP3 ADD SWAP2 SWAP1 PUSH1 0x0 MSTORE PUSH1 0x20 PUSH1 0x0 KECCAK256 SWAP1 JUMPDEST DUP2 SLOAD DUP2 MSTORE SWAP1 PUSH1 0x1 ADD SWAP1 PUSH1 0x20 ADD DUP1 DUP4 GT PUSH2 0x653 JUMPI DUP3 SWAP1 SUB PUSH1 0x1F AND DUP3 ADD SWAP2 JUMPDEST POP POP POP POP POP SWAP1 POP DUP9 JUMP JUMPDEST DUP1 PUSH1 0x1 DUP4 DUP2 SLOAD DUP2 LT PUSH2 0x68F JUMPI PUSH2 0x68E PUSH2 0x1C7C JUMP JUMPDEST JUMPDEST SWAP1 PUSH1 0x0 MSTORE PUSH1 0x20 PUSH1 0x0 KECCAK256 SWAP1 PUSH1 0x8 MUL ADD PUSH1 0x2 ADD DUP2 SWAP1 SSTORE POP PUSH1 0x0 JUMPDEST PUSH1 0x1 PUSH1 0x2 PUSH1 0x0 PUSH1 0x1 DUP2 MSTORE PUSH1 0x20 ADD SWAP1 DUP2 MSTORE PUSH1 0x20 ADD PUSH1 0x0 KECCAK256 DUP1 SLOAD SWAP1 POP PUSH2 0x6CB SWAP2 SWAP1 PUSH2 0x1CDA JUMP JUMPDEST DUP2 LT ISZERO PUSH2 0x8C6 JUMPI DUP3 PUSH1 0x2 PUSH1 0x0 PUSH1 0x1 DUP2 MSTORE PUSH1 0x20 ADD SWAP1 DUP2 MSTORE PUSH1 0x20 ADD PUSH1 0x0 KECCAK256 DUP3 DUP2 SLOAD DUP2 LT PUSH2 0x6F9 JUMPI PUSH2 0x6F8 PUSH2 0x1C7C JUMP JUMPDEST JUMPDEST SWAP1 PUSH1 0x0 MSTORE PUSH1 0x20 PUSH1 0x0 KECCAK256 SWAP1 PUSH1 0x8 MUL ADD PUSH1 0x0 ADD SLOAD SUB PUSH2 0x8B3 JUMPI PUSH1 0x2 PUSH1 0x0 PUSH1 0x1 DUP2 MSTORE PUSH1 0x20 ADD SWAP1 DUP2 MSTORE PUSH1 0x20 ADD PUSH1 0x0 KECCAK256 PUSH1 0x1 DUP3 PUSH2 0x731 SWAP2 SWAP1 PUSH2 0x1D0E JUMP JUMPDEST DUP2 SLOAD DUP2 LT PUSH2 0x742 JUMPI PUSH2 0x741 PUSH2 0x1C7C JUMP JUMPDEST JUMPDEST SWAP1 PUSH1 0x0 MSTORE PUSH1 0x20 PUSH1 0x0 KECCAK256 SWAP1 PUSH1 0x8 MUL ADD PUSH1 0x2 PUSH1 0x0 PUSH1 0x1 DUP2 MSTORE PUSH1 0x20 ADD SWAP1 DUP2 MSTORE PUSH1 0x20 ADD PUSH1 0x0 KECCAK256 DUP3 DUP2 SLOAD DUP2 LT PUSH2 0x776 JUMPI PUSH2 0x775 PUSH2 0x1C7C JUMP JUMPDEST JUMPDEST SWAP1 PUSH1 0x0 MSTORE PUSH1 0x20 PUSH1 0x0 KECCAK256 SWAP1 PUSH1 0x8 MUL ADD PUSH1 0x0 DUP3 ADD SLOAD DUP2 PUSH1 0x0 ADD SSTORE PUSH1 0x1 DUP3 ADD DUP2 PUSH1 0x1 ADD SWAP1 DUP2 PUSH2 0x7A2 SWAP2 SWAP1 PUSH2 0x1F26 JUMP JUMPDEST POP PUSH1 0x2 DUP3 ADD SLOAD DUP2 PUSH1 0x2 ADD SSTORE PUSH1 0x3 DUP3 ADD PUSH1 0x0 SWAP1 SLOAD SWAP1 PUSH2 0x100 EXP SWAP1 DIV PUSH20 0xFFFFFFFFFFFFFFFFFFFFFFFFFFFFFFFFFFFFFFFF AND DUP2 PUSH1 0x3 ADD PUSH1 0x0 PUSH2 0x100 EXP DUP2 SLOAD DUP2 PUSH20 0xFFFFFFFFFFFFFFFFFFFFFFFFFFFFFFFFFFFFFFFF MUL NOT AND SWAP1 DUP4 PUSH20 0xFFFFFFFFFFFFFFFFFFFFFFFFFFFFFFFFFFFFFFFF AND MUL OR SWAP1 SSTORE POP PUSH1 0x4 DUP3 ADD PUSH1 0x0 SWAP1 SLOAD SWAP1 PUSH2 0x100 EXP SWAP1 DIV PUSH20 0xFFFFFFFFFFFFFFFFFFFFFFFFFFFFFFFFFFFFFFFF AND DUP2 PUSH1 0x4 ADD PUSH1 0x0 PUSH2 0x100 EXP DUP2 SLOAD DUP2 PUSH20 0xFFFFFFFFFFFFFFFFFFFFFFFFFFFFFFFFFFFFFFFF MUL NOT AND SWAP1 DUP4 PUSH20 0xFFFFFFFFFFFFFFFFFFFFFFFFFFFFFFFFFFFFFFFF AND MUL OR SWAP1 SSTORE POP PUSH1 0x5 DUP3 ADD SLOAD DUP2 PUSH1 0x5 ADD SSTORE PUSH1 0x6 DUP3 ADD DUP2 PUSH1 0x6 ADD SWAP1 DUP2 PUSH2 0x899 SWAP2 SWAP1 PUSH2 0x1F26 JUMP JUMPDEST POP PUSH1 0x7 DUP3 ADD DUP2 PUSH1 0x7 ADD SWAP1 DUP2 PUSH2 0x8AE SWAP2 SWAP1 PUSH2 0x1F26 JUMP JUMPDEST POP SWAP1 POP POP JUMPDEST DUP1 DUP1 PUSH2 0x8BE SWAP1 PUSH2 0x200E JUMP JUMPDEST SWAP2 POP POP PUSH2 0x6A7 JUMP JUMPDEST POP PUSH1 0x2 PUSH1 0x0 PUSH1 0x1 DUP2 MSTORE PUSH1 0x20 ADD SWAP1 DUP2 MSTORE PUSH1 0x20 ADD PUSH1 0x0 KECCAK256 DUP1 SLOAD DUP1 PUSH2 0x8EB JUMPI PUSH2 0x8EA PUSH2 0x2056 JUMP JUMPDEST JUMPDEST PUSH1 0x1 SWAP1 SUB DUP2 DUP2 SWAP1 PUSH1 0x0 MSTORE PUSH1 0x20 PUSH1 0x0 KECCAK256 SWAP1 PUSH1 0x8 MUL ADD PUSH1 0x0 DUP1 DUP3 ADD PUSH1 0x0 SWAP1 SSTORE PUSH1 0x1 DUP3 ADD PUSH1 0x0 PUSH2 0x918 SWAP2 SWAP1 PUSH2 0x1569 JUMP JUMPDEST PUSH1 0x2 DUP3 ADD PUSH1 0x0 SWAP1 SSTORE PUSH1 0x3 DUP3 ADD PUSH1 0x0 PUSH2 0x100 EXP DUP2 SLOAD SWAP1 PUSH20 0xFFFFFFFFFFFFFFFFFFFFFFFFFFFFFFFFFFFFFFFF MUL NOT AND SWAP1 SSTORE PUSH1 0x4 DUP3 ADD PUSH1 0x0 PUSH2 0x100 EXP DUP2 SLOAD SWAP1 PUSH20 0xFFFFFFFFFFFFFFFFFFFFFFFFFFFFFFFFFFFFFFFF MUL NOT AND SWAP1 SSTORE PUSH1 0x5 DUP3 ADD PUSH1 0x0 SWAP1 SSTORE PUSH1 0x6 DUP3 ADD PUSH1 0x0 PUSH2 0x986 SWAP2 SWAP1 PUSH2 0x1569 JUMP JUMPDEST PUSH1 0x7 DUP3 ADD PUSH1 0x0 PUSH2 0x996 SWAP2 SWAP1 PUSH2 0x1569 JUMP JUMPDEST POP POP SWAP1 SSTORE PUSH1 0x2 PUSH1 0x0 PUSH1 0x3 DUP2 MSTORE PUSH1 0x20 ADD SWAP1 DUP2 MSTORE PUSH1 0x20 ADD PUSH1 0x0 KECCAK256 PUSH1 0x1 DUP4 DUP2 SLOAD DUP2 LT PUSH2 0x9C2 JUMPI PUSH2 0x9C1 PUSH2 0x1C7C JUMP JUMPDEST JUMPDEST SWAP1 PUSH1 0x0 MSTORE PUSH1 0x20 PUSH1 0x0 KECCAK256 SWAP1 PUSH1 0x8 MUL ADD SWAP1 DUP1 PUSH1 0x1 DUP2 SLOAD ADD DUP1 DUP3 SSTORE DUP1 SWAP2 POP POP PUSH1 0x1 SWAP1 SUB SWAP1 PUSH1 0x0 MSTORE PUSH1 0x20 PUSH1 0x0 KECCAK256 SWAP1 PUSH1 0x8 MUL ADD PUSH1 0x0 SWAP1 SWAP2 SWAP1 SWAP2 SWAP1 SWAP2 POP PUSH1 0x0 DUP3 ADD SLOAD DUP2 PUSH1 0x0 ADD SSTORE PUSH1 0x1 DUP3 ADD DUP2 PUSH1 0x1 ADD SWAP1 DUP2 PUSH2 0xA17 SWAP2 SWAP1 PUSH2 0x1F26 JUMP JUMPDEST POP PUSH1 0x2 DUP3 ADD SLOAD DUP2 PUSH1 0x2 ADD SSTORE PUSH1 0x3 DUP3 ADD PUSH1 0x0 SWAP1 SLOAD SWAP1 PUSH2 0x100 EXP SWAP1 DIV PUSH20 0xFFFFFFFFFFFFFFFFFFFFFFFFFFFFFFFFFFFFFFFF AND DUP2 PUSH1 0x3 ADD PUSH1 0x0 PUSH2 0x100 EXP DUP2 SLOAD DUP2 PUSH20 0xFFFFFFFFFFFFFFFFFFFFFFFFFFFFFFFFFFFFFFFF MUL NOT AND SWAP1 DUP4 PUSH20 0xFFFFFFFFFFFFFFFFFFFFFFFFFFFFFFFFFFFFFFFF AND MUL OR SWAP1 SSTORE POP PUSH1 0x4 DUP3 ADD PUSH1 0x0 SWAP1 SLOAD SWAP1 PUSH2 0x100 EXP SWAP1 DIV PUSH20 0xFFFFFFFFFFFFFFFFFFFFFFFFFFFFFFFFFFFFFFFF AND DUP2 PUSH1 0x4 ADD PUSH1 0x0 PUSH2 0x100 EXP DUP2 SLOAD DUP2 PUSH20 0xFFFFFFFFFFFFFFFFFFFFFFFFFFFFFFFFFFFFFFFF MUL NOT AND SWAP1 DUP4 PUSH20 0xFFFFFFFFFFFFFFFFFFFFFFFFFFFFFFFFFFFFFFFF AND MUL OR SWAP1 SSTORE POP PUSH1 0x5 DUP3 ADD SLOAD DUP2 PUSH1 0x5 ADD SSTORE PUSH1 0x6 DUP3 ADD DUP2 PUSH1 0x6 ADD SWAP1 DUP2 PUSH2 0xB0E SWAP2 SWAP1 PUSH2 0x1F26 JUMP JUMPDEST POP PUSH1 0x7 DUP3 ADD DUP2 PUSH1 0x7 ADD SWAP1 DUP2 PUSH2 0xB23 SWAP2 SWAP1 PUSH2 0x1F26 JUMP JUMPDEST POP POP POP POP POP JUMP JUMPDEST PUSH1 0x60 PUSH1 0x0 DUP3 SUB PUSH2 0xE14 JUMPI PUSH1 0x1 DUP1 SLOAD DUP1 PUSH1 0x20 MUL PUSH1 0x20 ADD PUSH1 0x40 MLOAD SWAP1 DUP2 ADD PUSH1 0x40 MSTORE DUP1 SWAP3 SWAP2 SWAP1 DUP2 DUP2 MSTORE PUSH1 0x20 ADD PUSH1 0x0 SWAP1 JUMPDEST DUP3 DUP3 LT ISZERO PUSH2 0xE09 JUMPI DUP4 DUP3 SWAP1 PUSH1 0x0 MSTORE PUSH1 0x20 PUSH1 0x0 KECCAK256 SWAP1 PUSH1 0x8 MUL ADD PUSH1 0x40 MLOAD DUP1 PUSH2 0x100 ADD PUSH1 0x40 MSTORE SWAP1 DUP2 PUSH1 0x0 DUP3 ADD SLOAD DUP2 MSTORE PUSH1 0x20 ADD PUSH1 0x1 DUP3 ADD DUP1 SLOAD PUSH2 0xB94 SWAP1 PUSH2 0x1C4B JUMP JUMPDEST DUP1 PUSH1 0x1F ADD PUSH1 0x20 DUP1 SWAP2 DIV MUL PUSH1 0x20 ADD PUSH1 0x40 MLOAD SWAP1 DUP2 ADD PUSH1 0x40 MSTORE DUP1 SWAP3 SWAP2 SWAP1 DUP2 DUP2 MSTORE PUSH1 0x20 ADD DUP3 DUP1 SLOAD PUSH2 0xBC0 SWAP1 PUSH2 0x1C4B JUMP JUMPDEST DUP1 ISZERO PUSH2 0xC0D JUMPI DUP1 PUSH1 0x1F LT PUSH2 0xBE2 JUMPI PUSH2 0x100 DUP1 DUP4 SLOAD DIV MUL DUP4 MSTORE SWAP2 PUSH1 0x20 ADD SWAP2 PUSH2 0xC0D JUMP JUMPDEST DUP3 ADD SWAP2 SWAP1 PUSH1 0x0 MSTORE PUSH1 0x20 PUSH1 0x0 KECCAK256 SWAP1 JUMPDEST DUP2 SLOAD DUP2 MSTORE SWAP1 PUSH1 0x1 ADD SWAP1 PUSH1 0x20 ADD DUP1 DUP4 GT PUSH2 0xBF0 JUMPI DUP3 SWAP1 SUB PUSH1 0x1F AND DUP3 ADD SWAP2 JUMPDEST POP POP POP POP POP DUP2 MSTORE PUSH1 0x20 ADD PUSH1 0x2 DUP3 ADD SLOAD DUP2 MSTORE PUSH1 0x20 ADD PUSH1 0x3 DUP3 ADD PUSH1 0x0 SWAP1 SLOAD SWAP1 PUSH2 0x100 EXP SWAP1 DIV PUSH20 0xFFFFFFFFFFFFFFFFFFFFFFFFFFFFFFFFFFFFFFFF AND PUSH20 0xFFFFFFFFFFFFFFFFFFFFFFFFFFFFFFFFFFFFFFFF AND PUSH20 0xFFFFFFFFFFFFFFFFFFFFFFFFFFFFFFFFFFFFFFFF AND DUP2 MSTORE PUSH1 0x20 ADD PUSH1 0x4 DUP3 ADD PUSH1 0x0 SWAP1 SLOAD SWAP1 PUSH2 0x100 EXP SWAP1 DIV PUSH20 0xFFFFFFFFFFFFFFFFFFFFFFFFFFFFFFFFFFFFFFFF AND PUSH20 0xFFFFFFFFFFFFFFFFFFFFFFFFFFFFFFFFFFFFFFFF AND PUSH20 0xFFFFFFFFFFFFFFFFFFFFFFFFFFFFFFFFFFFFFFFF AND DUP2 MSTORE PUSH1 0x20 ADD PUSH1 0x5 DUP3 ADD SLOAD DUP2 MSTORE PUSH1 0x20 ADD PUSH1 0x6 DUP3 ADD DUP1 SLOAD PUSH2 0xCE6 SWAP1 PUSH2 0x1C4B JUMP JUMPDEST DUP1 PUSH1 0x1F ADD PUSH1 0x20 DUP1 SWAP2 DIV MUL PUSH1 0x20 ADD PUSH1 0x40 MLOAD SWAP1 DUP2 ADD PUSH1 0x40 MSTORE DUP1 SWAP3 SWAP2 SWAP1 DUP2 DUP2 MSTORE PUSH1 0x20 ADD DUP3 DUP1 SLOAD PUSH2 0xD12 SWAP1 PUSH2 0x1C4B JUMP JUMPDEST DUP1 ISZERO PUSH2 0xD5F JUMPI DUP1 PUSH1 0x1F LT PUSH2 0xD34 JUMPI PUSH2 0x100 DUP1 DUP4 SLOAD DIV MUL DUP4 MSTORE SWAP2 PUSH1 0x20 ADD SWAP2 PUSH2 0xD5F JUMP JUMPDEST DUP3 ADD SWAP2 SWAP1 PUSH1 0x0 MSTORE PUSH1 0x20 PUSH1 0x0 KECCAK256 SWAP1 JUMPDEST DUP2 SLOAD DUP2 MSTORE SWAP1 PUSH1 0x1 ADD SWAP1 PUSH1 0x20 ADD DUP1 DUP4 GT PUSH2 0xD42 JUMPI DUP3 SWAP1 SUB PUSH1 0x1F AND DUP3 ADD SWAP2 JUMPDEST POP POP POP POP POP DUP2 MSTORE PUSH1 0x20 ADD PUSH1 0x7 DUP3 ADD DUP1 SLOAD PUSH2 0xD78 SWAP1 PUSH2 0x1C4B JUMP JUMPDEST DUP1 PUSH1 0x1F ADD PUSH1 0x20 DUP1 SWAP2 DIV MUL PUSH1 0x20 ADD PUSH1 0x40 MLOAD SWAP1 DUP2 ADD PUSH1 0x40 MSTORE DUP1 SWAP3 SWAP2 SWAP1 DUP2 DUP2 MSTORE PUSH1 0x20 ADD DUP3 DUP1 SLOAD PUSH2 0xDA4 SWAP1 PUSH2 0x1C4B JUMP JUMPDEST DUP1 ISZERO PUSH2 0xDF1 JUMPI DUP1 PUSH1 0x1F LT PUSH2 0xDC6 JUMPI PUSH2 0x100 DUP1 DUP4 SLOAD DIV MUL DUP4 MSTORE SWAP2 PUSH1 0x20 ADD SWAP2 PUSH2 0xDF1 JUMP JUMPDEST DUP3 ADD SWAP2 SWAP1 PUSH1 0x0 MSTORE PUSH1 0x20 PUSH1 0x0 KECCAK256 SWAP1 JUMPDEST DUP2 SLOAD DUP2 MSTORE SWAP1 PUSH1 0x1 ADD SWAP1 PUSH1 0x20 ADD DUP1 DUP4 GT PUSH2 0xDD4 JUMPI DUP3 SWAP1 SUB PUSH1 0x1F AND DUP3 ADD SWAP2 JUMPDEST POP POP POP POP POP DUP2 MSTORE POP POP DUP2 MSTORE PUSH1 0x20 ADD SWAP1 PUSH1 0x1 ADD SWAP1 PUSH2 0xB56 JUMP JUMPDEST POP POP POP POP SWAP1 POP PUSH2 0x1101 JUMP JUMPDEST PUSH1 0x2 PUSH1 0x0 DUP4 DUP2 MSTORE PUSH1 0x20 ADD SWAP1 DUP2 MSTORE PUSH1 0x20 ADD PUSH1 0x0 KECCAK256 DUP1 SLOAD DUP1 PUSH1 0x20 MUL PUSH1 0x20 ADD PUSH1 0x40 MLOAD SWAP1 DUP2 ADD PUSH1 0x40 MSTORE DUP1 SWAP3 SWAP2 SWAP1 DUP2 DUP2 MSTORE PUSH1 0x20 ADD PUSH1 0x0 SWAP1 JUMPDEST DUP3 DUP3 LT ISZERO PUSH2 0x10FA JUMPI DUP4 DUP3 SWAP1 PUSH1 0x0 MSTORE PUSH1 0x20 PUSH1 0x0 KECCAK256 SWAP1 PUSH1 0x8 MUL ADD PUSH1 0x40 MLOAD DUP1 PUSH2 0x100 ADD PUSH1 0x40 MSTORE SWAP1 DUP2 PUSH1 0x0 DUP3 ADD SLOAD DUP2 MSTORE PUSH1 0x20 ADD PUSH1 0x1 DUP3 ADD DUP1 SLOAD PUSH2 0xE85 SWAP1 PUSH2 0x1C4B JUMP JUMPDEST DUP1 PUSH1 0x1F ADD PUSH1 0x20 DUP1 SWAP2 DIV MUL PUSH1 0x20 ADD PUSH1 0x40 MLOAD SWAP1 DUP2 ADD PUSH1 0x40 MSTORE DUP1 SWAP3 SWAP2 SWAP1 DUP2 DUP2 MSTORE PUSH1 0x20 ADD DUP3 DUP1 SLOAD PUSH2 0xEB1 SWAP1 PUSH2 0x1C4B JUMP JUMPDEST DUP1 ISZERO PUSH2 0xEFE JUMPI DUP1 PUSH1 0x1F LT PUSH2 0xED3 JUMPI PUSH2 0x100 DUP1 DUP4 SLOAD DIV MUL DUP4 MSTORE SWAP2 PUSH1 0x20 ADD SWAP2 PUSH2 0xEFE JUMP JUMPDEST DUP3 ADD SWAP2 SWAP1 PUSH1 0x0 MSTORE PUSH1 0x20 PUSH1 0x0 KECCAK256 SWAP1 JUMPDEST DUP2 SLOAD DUP2 MSTORE SWAP1 PUSH1 0x1 ADD SWAP1 PUSH1 0x20 ADD DUP1 DUP4 GT PUSH2 0xEE1 JUMPI DUP3 SWAP1 SUB PUSH1 0x1F AND DUP3 ADD SWAP2 JUMPDEST POP POP POP POP POP DUP2 MSTORE PUSH1 0x20 ADD PUSH1 0x2 DUP3 ADD SLOAD DUP2 MSTORE PUSH1 0x20 ADD PUSH1 0x3 DUP3 ADD PUSH1 0x0 SWAP1 SLOAD SWAP1 PUSH2 0x100 EXP SWAP1 DIV PUSH20 0xFFFFFFFFFFFFFFFFFFFFFFFFFFFFFFFFFFFFFFFF AND PUSH20 0xFFFFFFFFFFFFFFFFFFFFFFFFFFFFFFFFFFFFFFFF AND PUSH20 0xFFFFFFFFFFFFFFFFFFFFFFFFFFFFFFFFFFFFFFFF AND DUP2 MSTORE PUSH1 0x20 ADD PUSH1 0x4 DUP3 ADD PUSH1 0x0 SWAP1 SLOAD SWAP1 PUSH2 0x100 EXP SWAP1 DIV PUSH20 0xFFFFFFFFFFFFFFFFFFFFFFFFFFFFFFFFFFFFFFFF AND PUSH20 0xFFFFFFFFFFFFFFFFFFFFFFFFFFFFFFFFFFFFFFFF AND PUSH20 0xFFFFFFFFFFFFFFFFFFFFFFFFFFFFFFFFFFFFFFFF AND DUP2 MSTORE PUSH1 0x20 ADD PUSH1 0x5 DUP3 ADD SLOAD DUP2 MSTORE PUSH1 0x20 ADD PUSH1 0x6 DUP3 ADD DUP1 SLOAD PUSH2 0xFD7 SWAP1 PUSH2 0x1C4B JUMP JUMPDEST DUP1 PUSH1 0x1F ADD PUSH1 0x20 DUP1 SWAP2 DIV MUL PUSH1 0x20 ADD PUSH1 0x40 MLOAD SWAP1 DUP2 ADD PUSH1 0x40 MSTORE DUP1 SWAP3 SWAP2 SWAP1 DUP2 DUP2 MSTORE PUSH1 0x20 ADD DUP3 DUP1 SLOAD PUSH2 0x1003 SWAP1 PUSH2 0x1C4B JUMP JUMPDEST DUP1 ISZERO PUSH2 0x1050 JUMPI DUP1 PUSH1 0x1F LT PUSH2 0x1025 JUMPI PUSH2 0x100 DUP1 DUP4 SLOAD DIV MUL DUP4 MSTORE SWAP2 PUSH1 0x20 ADD SWAP2 PUSH2 0x1050 JUMP JUMPDEST DUP3 ADD SWAP2 SWAP1 PUSH1 0x0 MSTORE PUSH1 0x20 PUSH1 0x0 KECCAK256 SWAP1 JUMPDEST DUP2 SLOAD DUP2 MSTORE SWAP1 PUSH1 0x1 ADD SWAP1 PUSH1 0x20 ADD DUP1 DUP4 GT PUSH2 0x1033 JUMPI DUP3 SWAP1 SUB PUSH1 0x1F AND DUP3 ADD SWAP2 JUMPDEST POP POP POP POP POP DUP2 MSTORE PUSH1 0x20 ADD PUSH1 0x7 DUP3 ADD DUP1 SLOAD PUSH2 0x1069 SWAP1 PUSH2 0x1C4B JUMP JUMPDEST DUP1 PUSH1 0x1F ADD PUSH1 0x20 DUP1 SWAP2 DIV MUL PUSH1 0x20 ADD PUSH1 0x40 MLOAD SWAP1 DUP2 ADD PUSH1 0x40 MSTORE DUP1 SWAP3 SWAP2 SWAP1 DUP2 DUP2 MSTORE PUSH1 0x20 ADD DUP3 DUP1 SLOAD PUSH2 0x1095 SWAP1 PUSH2 0x1C4B JUMP JUMPDEST DUP1 ISZERO PUSH2 0x10E2 JUMPI DUP1 PUSH1 0x1F LT PUSH2 0x10B7 JUMPI PUSH2 0x100 DUP1 DUP4 SLOAD DIV MUL DUP4 MSTORE SWAP2 PUSH1 0x20 ADD SWAP2 PUSH2 0x10E2 JUMP JUMPDEST DUP3 ADD SWAP2 SWAP1 PUSH1 0x0 MSTORE PUSH1 0x20 PUSH1 0x0 KECCAK256 SWAP1 JUMPDEST DUP2 SLOAD DUP2 MSTORE SWAP1 PUSH1 0x1 ADD SWAP1 PUSH1 0x20 ADD DUP1 DUP4 GT PUSH2 0x10C5 JUMPI DUP3 SWAP1 SUB PUSH1 0x1F AND DUP3 ADD SWAP2 JUMPDEST POP POP POP POP POP DUP2 MSTORE POP POP DUP2 MSTORE PUSH1 0x20 ADD SWAP1 PUSH1 0x1 ADD SWAP1 PUSH2 0xE47 JUMP JUMPDEST POP POP POP POP SWAP1 POP JUMPDEST SWAP2 SWAP1 POP JUMP JUMPDEST PUSH1 0x0 DUP1 DUP2 SLOAD DUP1 SWAP3 SWAP2 SWAP1 PUSH2 0x1118 SWAP1 PUSH2 0x200E JUMP JUMPDEST SWAP2 SWAP1 POP SSTORE POP PUSH1 0x0 PUSH1 0x40 MLOAD DUP1 PUSH2 0x100 ADD PUSH1 0x40 MSTORE DUP1 PUSH1 0x0 SLOAD DUP2 MSTORE PUSH1 0x20 ADD DUP6 DUP2 MSTORE PUSH1 0x20 ADD PUSH1 0x0 DUP2 MSTORE PUSH1 0x20 ADD CALLER PUSH20 0xFFFFFFFFFFFFFFFFFFFFFFFFFFFFFFFFFFFFFFFF AND DUP2 MSTORE PUSH1 0x20 ADD DUP5 PUSH20 0xFFFFFFFFFFFFFFFFFFFFFFFFFFFFFFFFFFFFFFFF AND DUP2 MSTORE PUSH1 0x20 ADD PUSH1 0x0 DUP2 MSTORE PUSH1 0x20 ADD DUP4 DUP2 MSTORE PUSH1 0x20 ADD PUSH1 0x40 MLOAD DUP1 PUSH1 0x40 ADD PUSH1 0x40 MSTORE DUP1 PUSH1 0x1 DUP2 MSTORE PUSH1 0x20 ADD PUSH32 0x3000000000000000000000000000000000000000000000000000000000000000 DUP2 MSTORE POP DUP2 MSTORE POP SWAP1 POP PUSH1 0x1 DUP2 SWAP1 DUP1 PUSH1 0x1 DUP2 SLOAD ADD DUP1 DUP3 SSTORE DUP1 SWAP2 POP POP PUSH1 0x1 SWAP1 SUB SWAP1 PUSH1 0x0 MSTORE PUSH1 0x20 PUSH1 0x0 KECCAK256 SWAP1 PUSH1 0x8 MUL ADD PUSH1 0x0 SWAP1 SWAP2 SWAP1 SWAP2 SWAP1 SWAP2 POP PUSH1 0x0 DUP3 ADD MLOAD DUP2 PUSH1 0x0 ADD SSTORE PUSH1 0x20 DUP3 ADD MLOAD DUP2 PUSH1 0x1 ADD SWAP1 DUP2 PUSH2 0x120B SWAP2 SWAP1 PUSH2 0x2085 JUMP JUMPDEST POP PUSH1 0x40 DUP3 ADD MLOAD DUP2 PUSH1 0x2 ADD SSTORE PUSH1 0x60 DUP3 ADD MLOAD DUP2 PUSH1 0x3 ADD PUSH1 0x0 PUSH2 0x100 EXP DUP2 SLOAD DUP2 PUSH20 0xFFFFFFFFFFFFFFFFFFFFFFFFFFFFFFFFFFFFFFFF MUL NOT AND SWAP1 DUP4 PUSH20 0xFFFFFFFFFFFFFFFFFFFFFFFFFFFFFFFFFFFFFFFF AND MUL OR SWAP1 SSTORE POP PUSH1 0x80 DUP3 ADD MLOAD DUP2 PUSH1 0x4 ADD PUSH1 0x0 PUSH2 0x100 EXP DUP2 SLOAD DUP2 PUSH20 0xFFFFFFFFFFFFFFFFFFFFFFFFFFFFFFFFFFFFFFFF MUL NOT AND SWAP1 DUP4 PUSH20 0xFFFFFFFFFFFFFFFFFFFFFFFFFFFFFFFFFFFFFFFF AND MUL OR SWAP1 SSTORE POP PUSH1 0xA0 DUP3 ADD MLOAD DUP2 PUSH1 0x5 ADD SSTORE PUSH1 0xC0 DUP3 ADD MLOAD DUP2 PUSH1 0x6 ADD SWAP1 DUP2 PUSH2 0x12C3 SWAP2 SWAP1 PUSH2 0x2085 JUMP JUMPDEST POP PUSH1 0xE0 DUP3 ADD MLOAD DUP2 PUSH1 0x7 ADD SWAP1 DUP2 PUSH2 0x12D9 SWAP2 SWAP1 PUSH2 0x2085 JUMP JUMPDEST POP POP POP PUSH1 0x2 PUSH1 0x0 PUSH1 0x1 DUP2 MSTORE PUSH1 0x20 ADD SWAP1 DUP2 MSTORE PUSH1 0x20 ADD PUSH1 0x0 KECCAK256 DUP2 SWAP1 DUP1 PUSH1 0x1 DUP2 SLOAD ADD DUP1 DUP3 SSTORE DUP1 SWAP2 POP POP PUSH1 0x1 SWAP1 SUB SWAP1 PUSH1 0x0 MSTORE PUSH1 0x20 PUSH1 0x0 KECCAK256 SWAP1 PUSH1 0x8 MUL ADD PUSH1 0x0 SWAP1 SWAP2 SWAP1 SWAP2 SWAP1 SWAP2 POP PUSH1 0x0 DUP3 ADD MLOAD DUP2 PUSH1 0x0 ADD SSTORE PUSH1 0x20 DUP3 ADD MLOAD DUP2 PUSH1 0x1 ADD SWAP1 DUP2 PUSH2 0x1339 SWAP2 SWAP1 PUSH2 0x2085 JUMP JUMPDEST POP PUSH1 0x40 DUP3 ADD MLOAD DUP2 PUSH1 0x2 ADD SSTORE PUSH1 0x60 DUP3 ADD MLOAD DUP2 PUSH1 0x3 ADD PUSH1 0x0 PUSH2 0x100 EXP DUP2 SLOAD DUP2 PUSH20 0xFFFFFFFFFFFFFFFFFFFFFFFFFFFFFFFFFFFFFFFF MUL NOT AND SWAP1 DUP4 PUSH20 0xFFFFFFFFFFFFFFFFFFFFFFFFFFFFFFFFFFFFFFFF AND MUL OR SWAP1 SSTORE POP PUSH1 0x80 DUP3 ADD MLOAD DUP2 PUSH1 0x4 ADD PUSH1 0x0 PUSH2 0x100 EXP DUP2 SLOAD DUP2 PUSH20 0xFFFFFFFFFFFFFFFFFFFFFFFFFFFFFFFFFFFFFFFF MUL NOT AND SWAP1 DUP4 PUSH20 0xFFFFFFFFFFFFFFFFFFFFFFFFFFFFFFFFFFFFFFFF AND MUL OR SWAP1 SSTORE POP PUSH1 0xA0 DUP3 ADD MLOAD DUP2 PUSH1 0x5 ADD SSTORE PUSH1 0xC0 DUP3 ADD MLOAD DUP2 PUSH1 0x6 ADD SWAP1 DUP2 PUSH2 0x13F1 SWAP2 SWAP1 PUSH2 0x2085 JUMP JUMPDEST POP PUSH1 0xE0 DUP3 ADD MLOAD DUP2 PUSH1 0x7 ADD SWAP1 DUP2 PUSH2 0x1407 SWAP2 SWAP1 PUSH2 0x2085 JUMP JUMPDEST POP POP POP PUSH1 0x3 PUSH1 0x0 CALLER PUSH20 0xFFFFFFFFFFFFFFFFFFFFFFFFFFFFFFFFFFFFFFFF AND PUSH20 0xFFFFFFFFFFFFFFFFFFFFFFFFFFFFFFFFFFFFFFFF AND DUP2 MSTORE PUSH1 0x20 ADD SWAP1 DUP2 MSTORE PUSH1 0x20 ADD PUSH1 0x0 KECCAK256 DUP2 SWAP1 DUP1 PUSH1 0x1 DUP2 SLOAD ADD DUP1 DUP3 SSTORE DUP1 SWAP2 POP POP PUSH1 0x1 SWAP1 SUB SWAP1 PUSH1 0x0 MSTORE PUSH1 0x20 PUSH1 0x0 KECCAK256 SWAP1 PUSH1 0x8 MUL ADD PUSH1 0x0 SWAP1 SWAP2 SWAP1 SWAP2 SWAP1 SWAP2 POP PUSH1 0x0 DUP3 ADD MLOAD DUP2 PUSH1 0x0 ADD SSTORE PUSH1 0x20 DUP3 ADD MLOAD DUP2 PUSH1 0x1 ADD SWAP1 DUP2 PUSH2 0x1492 SWAP2 SWAP1 PUSH2 0x2085 JUMP JUMPDEST POP PUSH1 0x40 DUP3 ADD MLOAD DUP2 PUSH1 0x2 ADD SSTORE PUSH1 0x60 DUP3 ADD MLOAD DUP2 PUSH1 0x3 ADD PUSH1 0x0 PUSH2 0x100 EXP DUP2 SLOAD DUP2 PUSH20 0xFFFFFFFFFFFFFFFFFFFFFFFFFFFFFFFFFFFFFFFF MUL NOT AND SWAP1 DUP4 PUSH20 0xFFFFFFFFFFFFFFFFFFFFFFFFFFFFFFFFFFFFFFFF AND MUL OR SWAP1 SSTORE POP PUSH1 0x80 DUP3 ADD MLOAD DUP2 PUSH1 0x4 ADD PUSH1 0x0 PUSH2 0x100 EXP DUP2 SLOAD DUP2 PUSH20 0xFFFFFFFFFFFFFFFFFFFFFFFFFFFFFFFFFFFFFFFF MUL NOT AND SWAP1 DUP4 PUSH20 0xFFFFFFFFFFFFFFFFFFFFFFFFFFFFFFFFFFFFFFFF AND MUL OR SWAP1 SSTORE POP PUSH1 0xA0 DUP3 ADD MLOAD DUP2 PUSH1 0x5 ADD SSTORE PUSH1 0xC0 DUP3 ADD MLOAD DUP2 PUSH1 0x6 ADD SWAP1 DUP2 PUSH2 0x154A SWAP2 SWAP1 PUSH2 0x2085 JUMP JUMPDEST POP PUSH1 0xE0 DUP3 ADD MLOAD DUP2 PUSH1 0x7 ADD SWAP1 DUP2 PUSH2 0x1560 SWAP2 SWAP1 PUSH2 0x2085 JUMP JUMPDEST POP POP POP POP POP POP POP JUMP JUMPDEST POP DUP1 SLOAD PUSH2 0x1575 SWAP1 PUSH2 0x1C4B JUMP JUMPDEST PUSH1 0x0 DUP3 SSTORE DUP1 PUSH1 0x1F LT PUSH2 0x1587 JUMPI POP PUSH2 0x15A6 JUMP JUMPDEST PUSH1 0x1F ADD PUSH1 0x20 SWAP1 DIV SWAP1 PUSH1 0x0 MSTORE PUSH1 0x20 PUSH1 0x0 KECCAK256 SWAP1 DUP2 ADD SWAP1 PUSH2 0x15A5 SWAP2 SWAP1 PUSH2 0x15A9 JUMP JUMPDEST JUMPDEST POP JUMP JUMPDEST JUMPDEST DUP1 DUP3 GT ISZERO PUSH2 0x15C2 JUMPI PUSH1 0x0 DUP2 PUSH1 0x0 SWAP1 SSTORE POP PUSH1 0x1 ADD PUSH2 0x15AA JUMP JUMPDEST POP SWAP1 JUMP JUMPDEST PUSH1 0x0 PUSH1 0x40 MLOAD SWAP1 POP SWAP1 JUMP JUMPDEST PUSH1 0x0 DUP1 REVERT JUMPDEST PUSH1 0x0 DUP1 REVERT JUMPDEST PUSH1 0x0 PUSH20 0xFFFFFFFFFFFFFFFFFFFFFFFFFFFFFFFFFFFFFFFF DUP3 AND SWAP1 POP SWAP2 SWAP1 POP JUMP JUMPDEST PUSH1 0x0 PUSH2 0x1605 DUP3 PUSH2 0x15DA JUMP JUMPDEST SWAP1 POP SWAP2 SWAP1 POP JUMP JUMPDEST PUSH2 0x1615 DUP2 PUSH2 0x15FA JUMP JUMPDEST DUP2 EQ PUSH2 0x1620 JUMPI PUSH1 0x0 DUP1 REVERT JUMPDEST POP JUMP JUMPDEST PUSH1 0x0 DUP2 CALLDATALOAD SWAP1 POP PUSH2 0x1632 DUP2 PUSH2 0x160C JUMP JUMPDEST SWAP3 SWAP2 POP POP JUMP JUMPDEST PUSH1 0x0 PUSH1 0x20 DUP3 DUP5 SUB SLT ISZERO PUSH2 0x164E JUMPI PUSH2 0x164D PUSH2 0x15D0 JUMP JUMPDEST JUMPDEST PUSH1 0x0 PUSH2 0x165C DUP5 DUP3 DUP6 ADD PUSH2 0x1623 JUMP JUMPDEST SWAP2 POP POP SWAP3 SWAP2 POP POP JUMP JUMPDEST PUSH1 0x0 DUP2 MLOAD SWAP1 POP SWAP2 SWAP1 POP JUMP JUMPDEST PUSH1 0x0 DUP3 DUP3 MSTORE PUSH1 0x20 DUP3 ADD SWAP1 POP SWAP3 SWAP2 POP POP JUMP JUMPDEST PUSH1 0x0 DUP2 SWAP1 POP PUSH1 0x20 DUP3 ADD SWAP1 POP SWAP2 SWAP1 POP JUMP JUMPDEST PUSH1 0x0 DUP2 SWAP1 POP SWAP2 SWAP1 POP JUMP JUMPDEST PUSH2 0x16A4 DUP2 PUSH2 0x1691 JUMP JUMPDEST DUP3 MSTORE POP POP JUMP JUMPDEST PUSH1 0x0 DUP2 MLOAD SWAP1 POP SWAP2 SWAP1 POP JUMP JUMPDEST PUSH1 0x0 DUP3 DUP3 MSTORE PUSH1 0x20 DUP3 ADD SWAP1 POP SWAP3 SWAP2 POP POP JUMP JUMPDEST PUSH1 0x0 JUMPDEST DUP4 DUP2 LT ISZERO PUSH2 0x16E4 JUMPI DUP1 DUP3 ADD MLOAD DUP2 DUP5 ADD MSTORE PUSH1 0x20 DUP2 ADD SWAP1 POP PUSH2 0x16C9 JUMP JUMPDEST DUP4 DUP2 GT ISZERO PUSH2 0x16F3 JUMPI PUSH1 0x0 DUP5 DUP5 ADD MSTORE JUMPDEST POP POP POP POP JUMP JUMPDEST PUSH1 0x0 PUSH1 0x1F NOT PUSH1 0x1F DUP4 ADD AND SWAP1 POP SWAP2 SWAP1 POP JUMP JUMPDEST PUSH1 0x0 PUSH2 0x1715 DUP3 PUSH2 0x16AA JUMP JUMPDEST PUSH2 0x171F DUP2 DUP6 PUSH2 0x16B5 JUMP JUMPDEST SWAP4 POP PUSH2 0x172F DUP2 DUP6 PUSH1 0x20 DUP7 ADD PUSH2 0x16C6 JUMP JUMPDEST PUSH2 0x1738 DUP2 PUSH2 0x16F9 JUMP JUMPDEST DUP5 ADD SWAP2 POP POP SWAP3 SWAP2 POP POP JUMP JUMPDEST PUSH2 0x174C DUP2 PUSH2 0x15FA JUMP JUMPDEST DUP3 MSTORE POP POP JUMP JUMPDEST PUSH1 0x0 PUSH2 0x100 DUP4 ADD PUSH1 0x0 DUP4 ADD MLOAD PUSH2 0x176B PUSH1 0x0 DUP7 ADD DUP3 PUSH2 0x169B JUMP JUMPDEST POP PUSH1 0x20 DUP4 ADD MLOAD DUP5 DUP3 SUB PUSH1 0x20 DUP7 ADD MSTORE PUSH2 0x1783 DUP3 DUP3 PUSH2 0x170A JUMP JUMPDEST SWAP2 POP POP PUSH1 0x40 DUP4 ADD MLOAD PUSH2 0x1798 PUSH1 0x40 DUP7 ADD DUP3 PUSH2 0x169B JUMP JUMPDEST POP PUSH1 0x60 DUP4 ADD MLOAD PUSH2 0x17AB PUSH1 0x60 DUP7 ADD DUP3 PUSH2 0x1743 JUMP JUMPDEST POP PUSH1 0x80 DUP4 ADD MLOAD PUSH2 0x17BE PUSH1 0x80 DUP7 ADD DUP3 PUSH2 0x1743 JUMP JUMPDEST POP PUSH1 0xA0 DUP4 ADD MLOAD PUSH2 0x17D1 PUSH1 0xA0 DUP7 ADD DUP3 PUSH2 0x169B JUMP JUMPDEST POP PUSH1 0xC0 DUP4 ADD MLOAD DUP5 DUP3 SUB PUSH1 0xC0 DUP7 ADD MSTORE PUSH2 0x17E9 DUP3 DUP3 PUSH2 0x170A JUMP JUMPDEST SWAP2 POP POP PUSH1 0xE0 DUP4 ADD MLOAD DUP5 DUP3 SUB PUSH1 0xE0 DUP7 ADD MSTORE PUSH2 0x1803 DUP3 DUP3 PUSH2 0x170A JUMP JUMPDEST SWAP2 POP POP DUP1 SWAP2 POP POP SWAP3 SWAP2 POP POP JUMP JUMPDEST PUSH1 0x0 PUSH2 0x181C DUP4 DUP4 PUSH2 0x1752 JUMP JUMPDEST SWAP1 POP SWAP3 SWAP2 POP POP JUMP JUMPDEST PUSH1 0x0 PUSH1 0x20 DUP3 ADD SWAP1 POP SWAP2 SWAP1 POP JUMP JUMPDEST PUSH1 0x0 PUSH2 0x183C DUP3 PUSH2 0x1665 JUMP JUMPDEST PUSH2 0x1846 DUP2 DUP6 PUSH2 0x1670 JUMP JUMPDEST SWAP4 POP DUP4 PUSH1 0x20 DUP3 MUL DUP6 ADD PUSH2 0x1858 DUP6 PUSH2 0x1681 JUMP JUMPDEST DUP1 PUSH1 0x0 JUMPDEST DUP6 DUP2 LT ISZERO PUSH2 0x1894 JUMPI DUP5 DUP5 SUB DUP10 MSTORE DUP2 MLOAD PUSH2 0x1875 DUP6 DUP3 PUSH2 0x1810 JUMP JUMPDEST SWAP5 POP PUSH2 0x1880 DUP4 PUSH2 0x1824 JUMP JUMPDEST SWAP3 POP PUSH1 0x20 DUP11 ADD SWAP10 POP POP PUSH1 0x1 DUP2 ADD SWAP1 POP PUSH2 0x185C JUMP JUMPDEST POP DUP3 SWAP8 POP DUP8 SWAP6 POP POP POP POP POP POP SWAP3 SWAP2 POP POP JUMP JUMPDEST PUSH1 0x0 PUSH1 0x20 DUP3 ADD SWAP1 POP DUP2 DUP2 SUB PUSH1 0x0 DUP4 ADD MSTORE PUSH2 0x18C0 DUP2 DUP5 PUSH2 0x1831 JUMP JUMPDEST SWAP1 POP SWAP3 SWAP2 POP POP JUMP JUMPDEST PUSH2 0x18D1 DUP2 PUSH2 0x1691 JUMP JUMPDEST DUP2 EQ PUSH2 0x18DC JUMPI PUSH1 0x0 DUP1 REVERT JUMPDEST POP JUMP JUMPDEST PUSH1 0x0 DUP2 CALLDATALOAD SWAP1 POP PUSH2 0x18EE DUP2 PUSH2 0x18C8 JUMP JUMPDEST SWAP3 SWAP2 POP POP JUMP JUMPDEST PUSH1 0x0 PUSH1 0x20 DUP3 DUP5 SUB SLT ISZERO PUSH2 0x190A JUMPI PUSH2 0x1909 PUSH2 0x15D0 JUMP JUMPDEST JUMPDEST PUSH1 0x0 PUSH2 0x1918 DUP5 DUP3 DUP6 ADD PUSH2 0x18DF JUMP JUMPDEST SWAP2 POP POP SWAP3 SWAP2 POP POP JUMP JUMPDEST PUSH2 0x192A DUP2 PUSH2 0x1691 JUMP JUMPDEST DUP3 MSTORE POP POP JUMP JUMPDEST PUSH1 0x0 DUP3 DUP3 MSTORE PUSH1 0x20 DUP3 ADD SWAP1 POP SWAP3 SWAP2 POP POP JUMP JUMPDEST PUSH1 0x0 PUSH2 0x194C DUP3 PUSH2 0x16AA JUMP JUMPDEST PUSH2 0x1956 DUP2 DUP6 PUSH2 0x1930 JUMP JUMPDEST SWAP4 POP PUSH2 0x1966 DUP2 DUP6 PUSH1 0x20 DUP7 ADD PUSH2 0x16C6 JUMP JUMPDEST PUSH2 0x196F DUP2 PUSH2 0x16F9 JUMP JUMPDEST DUP5 ADD SWAP2 POP POP SWAP3 SWAP2 POP POP JUMP JUMPDEST PUSH2 0x1983 DUP2 PUSH2 0x15FA JUMP JUMPDEST DUP3 MSTORE POP POP JUMP JUMPDEST PUSH1 0x0 PUSH2 0x100 DUP3 ADD SWAP1 POP PUSH2 0x199F PUSH1 0x0 DUP4 ADD DUP12 PUSH2 0x1921 JUMP JUMPDEST DUP2 DUP2 SUB PUSH1 0x20 DUP4 ADD MSTORE PUSH2 0x19B1 DUP2 DUP11 PUSH2 0x1941 JUMP JUMPDEST SWAP1 POP PUSH2 0x19C0 PUSH1 0x40 DUP4 ADD DUP10 PUSH2 0x1921 JUMP JUMPDEST PUSH2 0x19CD PUSH1 0x60 DUP4 ADD DUP9 PUSH2 0x197A JUMP JUMPDEST PUSH2 0x19DA PUSH1 0x80 DUP4 ADD DUP8 PUSH2 0x197A JUMP JUMPDEST PUSH2 0x19E7 PUSH1 0xA0 DUP4 ADD DUP7 PUSH2 0x1921 JUMP JUMPDEST DUP2 DUP2 SUB PUSH1 0xC0 DUP4 ADD MSTORE PUSH2 0x19F9 DUP2 DUP6 PUSH2 0x1941 JUMP JUMPDEST SWAP1 POP DUP2 DUP2 SUB PUSH1 0xE0 DUP4 ADD MSTORE PUSH2 0x1A0D DUP2 DUP5 PUSH2 0x1941 JUMP JUMPDEST SWAP1 POP SWAP10 SWAP9 POP POP POP POP POP POP POP POP POP JUMP JUMPDEST PUSH1 0x0 DUP1 PUSH1 0x40 DUP4 DUP6 SUB SLT ISZERO PUSH2 0x1A33 JUMPI PUSH2 0x1A32 PUSH2 0x15D0 JUMP JUMPDEST JUMPDEST PUSH1 0x0 PUSH2 0x1A41 DUP6 DUP3 DUP7 ADD PUSH2 0x18DF JUMP JUMPDEST SWAP3 POP POP PUSH1 0x20 PUSH2 0x1A52 DUP6 DUP3 DUP7 ADD PUSH2 0x18DF JUMP JUMPDEST SWAP2 POP POP SWAP3 POP SWAP3 SWAP1 POP JUMP JUMPDEST PUSH1 0x0 DUP1 REVERT JUMPDEST PUSH1 0x0 DUP1 REVERT JUMPDEST PUSH32 0x4E487B7100000000000000000000000000000000000000000000000000000000 PUSH1 0x0 MSTORE PUSH1 0x41 PUSH1 0x4 MSTORE PUSH1 0x24 PUSH1 0x0 REVERT JUMPDEST PUSH2 0x1A9E DUP3 PUSH2 0x16F9 JUMP JUMPDEST DUP2 ADD DUP2 DUP2 LT PUSH8 0xFFFFFFFFFFFFFFFF DUP3 GT OR ISZERO PUSH2 0x1ABD JUMPI PUSH2 0x1ABC PUSH2 0x1A66 JUMP JUMPDEST JUMPDEST DUP1 PUSH1 0x40 MSTORE POP POP POP JUMP JUMPDEST PUSH1 0x0 PUSH2 0x1AD0 PUSH2 0x15C6 JUMP JUMPDEST SWAP1 POP PUSH2 0x1ADC DUP3 DUP3 PUSH2 0x1A95 JUMP JUMPDEST SWAP2 SWAP1 POP JUMP JUMPDEST PUSH1 0x0 PUSH8 0xFFFFFFFFFFFFFFFF DUP3 GT ISZERO PUSH2 0x1AFC JUMPI PUSH2 0x1AFB PUSH2 0x1A66 JUMP JUMPDEST JUMPDEST PUSH2 0x1B05 DUP3 PUSH2 0x16F9 JUMP JUMPDEST SWAP1 POP PUSH1 0x20 DUP2 ADD SWAP1 POP SWAP2 SWAP1 POP JUMP JUMPDEST DUP3 DUP2 DUP4 CALLDATACOPY PUSH1 0x0 DUP4 DUP4 ADD MSTORE POP POP POP JUMP JUMPDEST PUSH1 0x0 PUSH2 0x1B34 PUSH2 0x1B2F DUP5 PUSH2 0x1AE1 JUMP JUMPDEST PUSH2 0x1AC6 JUMP JUMPDEST SWAP1 POP DUP3 DUP2 MSTORE PUSH1 0x20 DUP2 ADD DUP5 DUP5 DUP5 ADD GT ISZERO PUSH2 0x1B50 JUMPI PUSH2 0x1B4F PUSH2 0x1A61 JUMP JUMPDEST JUMPDEST PUSH2 0x1B5B DUP5 DUP3 DUP6 PUSH2 0x1B12 JUMP JUMPDEST POP SWAP4 SWAP3 POP POP POP JUMP JUMPDEST PUSH1 0x0 DUP3 PUSH1 0x1F DUP4 ADD SLT PUSH2 0x1B78 JUMPI PUSH2 0x1B77 PUSH2 0x1A5C JUMP JUMPDEST JUMPDEST DUP2 CALLDATALOAD PUSH2 0x1B88 DUP5 DUP3 PUSH1 0x20 DUP7 ADD PUSH2 0x1B21 JUMP JUMPDEST SWAP2 POP POP SWAP3 SWAP2 POP POP JUMP JUMPDEST PUSH1 0x0 DUP1 PUSH1 0x0 PUSH1 0x60 DUP5 DUP7 SUB SLT ISZERO PUSH2 0x1BAA JUMPI PUSH2 0x1BA9 PUSH2 0x15D0 JUMP JUMPDEST JUMPDEST PUSH1 0x0 DUP5 ADD CALLDATALOAD PUSH8 0xFFFFFFFFFFFFFFFF DUP2 GT ISZERO PUSH2 0x1BC8 JUMPI PUSH2 0x1BC7 PUSH2 0x15D5 JUMP JUMPDEST JUMPDEST PUSH2 0x1BD4 DUP7 DUP3 DUP8 ADD PUSH2 0x1B63 JUMP JUMPDEST SWAP4 POP POP PUSH1 0x20 PUSH2 0x1BE5 DUP7 DUP3 DUP8 ADD PUSH2 0x1623 JUMP JUMPDEST SWAP3 POP POP PUSH1 0x40 DUP5 ADD CALLDATALOAD PUSH8 0xFFFFFFFFFFFFFFFF DUP2 GT ISZERO PUSH2 0x1C06 JUMPI PUSH2 0x1C05 PUSH2 0x15D5 JUMP JUMPDEST JUMPDEST PUSH2 0x1C12 DUP7 DUP3 DUP8 ADD PUSH2 0x1B63 JUMP JUMPDEST SWAP2 POP POP SWAP3 POP SWAP3 POP SWAP3 JUMP JUMPDEST PUSH32 0x4E487B7100000000000000000000000000000000000000000000000000000000 PUSH1 0x0 MSTORE PUSH1 0x22 PUSH1 0x4 MSTORE PUSH1 0x24 PUSH1 0x0 REVERT JUMPDEST PUSH1 0x0 PUSH1 0x2 DUP3 DIV SWAP1 POP PUSH1 0x1 DUP3 AND DUP1 PUSH2 0x1C63 JUMPI PUSH1 0x7F DUP3 AND SWAP2 POP JUMPDEST PUSH1 0x20 DUP3 LT DUP2 SUB PUSH2 0x1C76 JUMPI PUSH2 0x1C75 PUSH2 0x1C1C JUMP JUMPDEST JUMPDEST POP SWAP2 SWAP1 POP JUMP JUMPDEST PUSH32 0x4E487B7100000000000000000000000000000000000000000000000000000000 PUSH1 0x0 MSTORE PUSH1 0x32 PUSH1 0x4 MSTORE PUSH1 0x24 PUSH1 0x0 REVERT JUMPDEST PUSH32 0x4E487B7100000000000000000000000000000000000000000000000000000000 PUSH1 0x0 MSTORE PUSH1 0x11 PUSH1 0x4 MSTORE PUSH1 0x24 PUSH1 0x0 REVERT JUMPDEST PUSH1 0x0 PUSH2 0x1CE5 DUP3 PUSH2 0x1691 JUMP JUMPDEST SWAP2 POP PUSH2 0x1CF0 DUP4 PUSH2 0x1691 JUMP JUMPDEST SWAP3 POP DUP3 DUP3 LT ISZERO PUSH2 0x1D03 JUMPI PUSH2 0x1D02 PUSH2 0x1CAB JUMP JUMPDEST JUMPDEST DUP3 DUP3 SUB SWAP1 POP SWAP3 SWAP2 POP POP JUMP JUMPDEST PUSH1 0x0 PUSH2 0x1D19 DUP3 PUSH2 0x1691 JUMP JUMPDEST SWAP2 POP PUSH2 0x1D24 DUP4 PUSH2 0x1691 JUMP JUMPDEST SWAP3 POP DUP3 PUSH32 0xFFFFFFFFFFFFFFFFFFFFFFFFFFFFFFFFFFFFFFFFFFFFFFFFFFFFFFFFFFFFFFFF SUB DUP3 GT ISZERO PUSH2 0x1D59 JUMPI PUSH2 0x1D58 PUSH2 0x1CAB JUMP JUMPDEST JUMPDEST DUP3 DUP3 ADD SWAP1 POP SWAP3 SWAP2 POP POP JUMP JUMPDEST PUSH1 0x0 DUP2 SLOAD SWAP1 POP PUSH2 0x1D73 DUP2 PUSH2 0x1C4B JUMP JUMPDEST SWAP1 POP SWAP2 SWAP1 POP JUMP JUMPDEST PUSH1 0x0 DUP2 SWAP1 POP DUP2 PUSH1 0x0 MSTORE PUSH1 0x20 PUSH1 0x0 KECCAK256 SWAP1 POP SWAP2 SWAP1 POP JUMP JUMPDEST PUSH1 0x0 PUSH1 0x20 PUSH1 0x1F DUP4 ADD DIV SWAP1 POP SWAP2 SWAP1 POP JUMP JUMPDEST PUSH1 0x0 DUP3 DUP3 SHL SWAP1 POP SWAP3 SWAP2 POP POP JUMP JUMPDEST PUSH1 0x0 PUSH1 0x8 DUP4 MUL PUSH2 0x1DDC PUSH32 0xFFFFFFFFFFFFFFFFFFFFFFFFFFFFFFFFFFFFFFFFFFFFFFFFFFFFFFFFFFFFFFFF DUP3 PUSH2 0x1D9F JUMP JUMPDEST PUSH2 0x1DE6 DUP7 DUP4 PUSH2 0x1D9F JUMP JUMPDEST SWAP6 POP DUP1 NOT DUP5 AND SWAP4 POP DUP1 DUP7 AND DUP5 OR SWAP3 POP POP POP SWAP4 SWAP3 POP POP POP JUMP JUMPDEST PUSH1 0x0 DUP2 SWAP1 POP SWAP2 SWAP1 POP JUMP JUMPDEST PUSH1 0x0 PUSH2 0x1E23 PUSH2 0x1E1E PUSH2 0x1E19 DUP5 PUSH2 0x1691 JUMP JUMPDEST PUSH2 0x1DFE JUMP JUMPDEST PUSH2 0x1691 JUMP JUMPDEST SWAP1 POP SWAP2 SWAP1 POP JUMP JUMPDEST PUSH1 0x0 DUP2 SWAP1 POP SWAP2 SWAP1 POP JUMP JUMPDEST PUSH2 0x1E3D DUP4 PUSH2 0x1E08 JUMP JUMPDEST PUSH2 0x1E51 PUSH2 0x1E49 DUP3 PUSH2 0x1E2A JUMP JUMPDEST DUP5 DUP5 SLOAD PUSH2 0x1DAC JUMP JUMPDEST DUP3 SSTORE POP POP POP POP JUMP JUMPDEST PUSH1 0x0 SWAP1 JUMP JUMPDEST PUSH2 0x1E66 PUSH2 0x1E59 JUMP JUMPDEST PUSH2 0x1E71 DUP2 DUP5 DUP5 PUSH2 0x1E34 JUMP JUMPDEST POP POP POP JUMP JUMPDEST JUMPDEST DUP2 DUP2 LT ISZERO PUSH2 0x1E95 JUMPI PUSH2 0x1E8A PUSH1 0x0 DUP3 PUSH2 0x1E5E JUMP JUMPDEST PUSH1 0x1 DUP2 ADD SWAP1 POP PUSH2 0x1E77 JUMP JUMPDEST POP POP JUMP JUMPDEST PUSH1 0x1F DUP3 GT ISZERO PUSH2 0x1EDA JUMPI PUSH2 0x1EAB DUP2 PUSH2 0x1D7A JUMP JUMPDEST PUSH2 0x1EB4 DUP5 PUSH2 0x1D8F JUMP JUMPDEST DUP2 ADD PUSH1 0x20 DUP6 LT ISZERO PUSH2 0x1EC3 JUMPI DUP2 SWAP1 POP JUMPDEST PUSH2 0x1ED7 PUSH2 0x1ECF DUP6 PUSH2 0x1D8F JUMP JUMPDEST DUP4 ADD DUP3 PUSH2 0x1E76 JUMP JUMPDEST POP POP JUMPDEST POP POP POP JUMP JUMPDEST PUSH1 0x0 DUP3 DUP3 SHR SWAP1 POP SWAP3 SWAP2 POP POP JUMP JUMPDEST PUSH1 0x0 PUSH2 0x1EFD PUSH1 0x0 NOT DUP5 PUSH1 0x8 MUL PUSH2 0x1EDF JUMP JUMPDEST NOT DUP1 DUP4 AND SWAP2 POP POP SWAP3 SWAP2 POP POP JUMP JUMPDEST PUSH1 0x0 PUSH2 0x1F16 DUP4 DUP4 PUSH2 0x1EEC JUMP JUMPDEST SWAP2 POP DUP3 PUSH1 0x2 MUL DUP3 OR SWAP1 POP SWAP3 SWAP2 POP POP JUMP JUMPDEST DUP2 DUP2 SUB PUSH2 0x1F34 JUMPI POP POP PUSH2 0x200C JUMP JUMPDEST PUSH2 0x1F3D DUP3 PUSH2 0x1D64 JUMP JUMPDEST PUSH8 0xFFFFFFFFFFFFFFFF DUP2 GT ISZERO PUSH2 0x1F56 JUMPI PUSH2 0x1F55 PUSH2 0x1A66 JUMP JUMPDEST JUMPDEST PUSH2 0x1F60 DUP3 SLOAD PUSH2 0x1C4B JUMP JUMPDEST PUSH2 0x1F6B DUP3 DUP3 DUP6 PUSH2 0x1E99 JUMP JUMPDEST PUSH1 0x0 PUSH1 0x1F DUP4 GT PUSH1 0x1 DUP2 EQ PUSH2 0x1F9A JUMPI PUSH1 0x0 DUP5 ISZERO PUSH2 0x1F88 JUMPI DUP3 DUP8 ADD SLOAD SWAP1 POP JUMPDEST PUSH2 0x1F92 DUP6 DUP3 PUSH2 0x1F0A JUMP JUMPDEST DUP7 SSTORE POP PUSH2 0x2005 JUMP JUMPDEST PUSH1 0x1F NOT DUP5 AND PUSH2 0x1FA8 DUP8 PUSH2 0x1D7A JUMP JUMPDEST SWAP7 POP PUSH2 0x1FB3 DUP7 PUSH2 0x1D7A JUMP JUMPDEST PUSH1 0x0 JUMPDEST DUP3 DUP2 LT ISZERO PUSH2 0x1FDB JUMPI DUP5 DUP10 ADD SLOAD DUP3 SSTORE PUSH1 0x1 DUP3 ADD SWAP2 POP PUSH1 0x1 DUP6 ADD SWAP5 POP PUSH1 0x20 DUP2 ADD SWAP1 POP PUSH2 0x1FB6 JUMP JUMPDEST DUP7 DUP4 LT ISZERO PUSH2 0x1FF8 JUMPI DUP5 DUP10 ADD SLOAD PUSH2 0x1FF4 PUSH1 0x1F DUP10 AND DUP3 PUSH2 0x1EEC JUMP JUMPDEST DUP4 SSTORE POP JUMPDEST PUSH1 0x1 PUSH1 0x2 DUP9 MUL ADD DUP9 SSTORE POP POP POP JUMPDEST POP POP POP POP POP POP JUMPDEST JUMP JUMPDEST PUSH1 0x0 PUSH2 0x2019 DUP3 PUSH2 0x1691 JUMP JUMPDEST SWAP2 POP PUSH32 0xFFFFFFFFFFFFFFFFFFFFFFFFFFFFFFFFFFFFFFFFFFFFFFFFFFFFFFFFFFFFFFFF DUP3 SUB PUSH2 0x204B JUMPI PUSH2 0x204A PUSH2 0x1CAB JUMP JUMPDEST JUMPDEST PUSH1 0x1 DUP3 ADD SWAP1 POP SWAP2 SWAP1 POP JUMP JUMPDEST PUSH32 0x4E487B7100000000000000000000000000000000000000000000000000000000 PUSH1 0x0 MSTORE PUSH1 0x31 PUSH1 0x4 MSTORE PUSH1 0x24 PUSH1 0x0 REVERT JUMPDEST PUSH2 0x208E DUP3 PUSH2 0x16AA JUMP JUMPDEST PUSH8 0xFFFFFFFFFFFFFFFF DUP2 GT ISZERO PUSH2 0x20A7 JUMPI PUSH2 0x20A6 PUSH2 0x1A66 JUMP JUMPDEST JUMPDEST PUSH2 0x20B1 DUP3 SLOAD PUSH2 0x1C4B JUMP JUMPDEST PUSH2 0x20BC DUP3 DUP3 DUP6 PUSH2 0x1E99 JUMP JUMPDEST PUSH1 0x0 PUSH1 0x20 SWAP1 POP PUSH1 0x1F DUP4 GT PUSH1 0x1 DUP2 EQ PUSH2 0x20EF JUMPI PUSH1 0x0 DUP5 ISZERO PUSH2 0x20DD JUMPI DUP3 DUP8 ADD MLOAD SWAP1 POP JUMPDEST PUSH2 0x20E7 DUP6 DUP3 PUSH2 0x1F0A JUMP JUMPDEST DUP7 SSTORE POP PUSH2 0x214F JUMP JUMPDEST PUSH1 0x1F NOT DUP5 AND PUSH2 0x20FD DUP7 PUSH2 0x1D7A JUMP JUMPDEST PUSH1 0x0 JUMPDEST DUP3 DUP2 LT ISZERO PUSH2 0x2125 JUMPI DUP5 DUP10 ADD MLOAD DUP3 SSTORE PUSH1 0x1 DUP3 ADD SWAP2 POP PUSH1 0x20 DUP6 ADD SWAP5 POP PUSH1 0x20 DUP2 ADD SWAP1 POP PUSH2 0x2100 JUMP JUMPDEST DUP7 DUP4 LT ISZERO PUSH2 0x2142 JUMPI DUP5 DUP10 ADD MLOAD PUSH2 0x213E PUSH1 0x1F DUP10 AND DUP3 PUSH2 0x1EEC JUMP JUMPDEST DUP4 SSTORE POP JUMPDEST PUSH1 0x1 PUSH1 0x2 DUP9 MUL ADD DUP9 SSTORE POP POP POP JUMPDEST POP POP POP POP POP POP JUMP INVALID LOG2 PUSH5 0x6970667358 0x22 SLT KECCAK256 0xF9 0xBF 0x2C 0xE9 SWAP14 RETURN 0x24 0xA8 0xE7 LOG0 0xAD 0xE5 SUB ISZERO 0xAC 0xCA COINBASE 0xD1 0xE6 SMOD ADDMOD PUSH3 0x75905 0xB9 PUSH13 0xCB3FB101B364736F6C63430008 0xF STOP CALLER "
				},
				"gasEstimates": {
					"creation": {
						"codeDepositCost": "1717800",
						"executionCost": "1806",
						"totalCost": "1719606"
					},
					"external": {
						"createCrowdfunding(string,address,string)": "infinite",
						"getCrowdfundingByStatus(uint256)": "infinite",
						"getMyCrowdfunding(address)": "infinite",
						"list(uint256)": "infinite",
						"setStatus(uint256,uint256)": "infinite"
					}
				},
				"methodIdentifiers": {
					"createCrowdfunding(string,address,string)": "a97af4d5",
					"getCrowdfundingByStatus(uint256)": "904cc175",
					"getMyCrowdfunding(address)": "377e6ff7",
					"list(uint256)": "80c9419e",
					"setStatus(uint256,uint256)": "82e40813"
				}
			},
			"storageLayout": {
				"storage": [
					{
						"astId": 3,
						"contract": "crowdfunding.sol:CrowdfundingContract",
						"label": "No",
						"offset": 0,
						"slot": "0",
						"type": "t_uint256"
					},
					{
						"astId": 24,
						"contract": "crowdfunding.sol:CrowdfundingContract",
						"label": "list",
						"offset": 0,
						"slot": "1",
						"type": "t_array(t_struct(Crowdfunding)20_storage)dyn_storage"
					},
					{
						"astId": 30,
						"contract": "crowdfunding.sol:CrowdfundingContract",
						"label": "filterDataByStatus",
						"offset": 0,
						"slot": "2",
						"type": "t_mapping(t_uint256,t_array(t_struct(Crowdfunding)20_storage)dyn_storage)"
					},
					{
						"astId": 36,
						"contract": "crowdfunding.sol:CrowdfundingContract",
						"label": "myCrowdfunding",
						"offset": 0,
						"slot": "3",
						"type": "t_mapping(t_address,t_array(t_struct(Crowdfunding)20_storage)dyn_storage)"
					}
				],
				"types": {
					"t_address": {
						"encoding": "inplace",
						"label": "address",
						"numberOfBytes": "20"
					},
					"t_array(t_struct(Crowdfunding)20_storage)dyn_storage": {
						"base": "t_struct(Crowdfunding)20_storage",
						"encoding": "dynamic_array",
						"label": "struct CrowdfundingContract.Crowdfunding[]",
						"numberOfBytes": "32"
					},
					"t_mapping(t_address,t_array(t_struct(Crowdfunding)20_storage)dyn_storage)": {
						"encoding": "mapping",
						"key": "t_address",
						"label": "mapping(address => struct CrowdfundingContract.Crowdfunding[])",
						"numberOfBytes": "32",
						"value": "t_array(t_struct(Crowdfunding)20_storage)dyn_storage"
					},
					"t_mapping(t_uint256,t_array(t_struct(Crowdfunding)20_storage)dyn_storage)": {
						"encoding": "mapping",
						"key": "t_uint256",
						"label": "mapping(uint256 => struct CrowdfundingContract.Crowdfunding[])",
						"numberOfBytes": "32",
						"value": "t_array(t_struct(Crowdfunding)20_storage)dyn_storage"
					},
					"t_string_storage": {
						"encoding": "bytes",
						"label": "string",
						"numberOfBytes": "32"
					},
					"t_struct(Crowdfunding)20_storage": {
						"encoding": "inplace",
						"label": "struct CrowdfundingContract.Crowdfunding",
						"members": [
							{
								"astId": 5,
								"contract": "crowdfunding.sol:CrowdfundingContract",
								"label": "num",
								"offset": 0,
								"slot": "0",
								"type": "t_uint256"
							},
							{
								"astId": 7,
								"contract": "crowdfunding.sol:CrowdfundingContract",
								"label": "title",
								"offset": 0,
								"slot": "1",
								"type": "t_string_storage"
							},
							{
								"astId": 9,
								"contract": "crowdfunding.sol:CrowdfundingContract",
								"label": "status",
								"offset": 0,
								"slot": "2",
								"type": "t_uint256"
							},
							{
								"astId": 11,
								"contract": "crowdfunding.sol:CrowdfundingContract",
								"label": "creator",
								"offset": 0,
								"slot": "3",
								"type": "t_address"
							},
							{
								"astId": 13,
								"contract": "crowdfunding.sol:CrowdfundingContract",
								"label": "recipient",
								"offset": 0,
								"slot": "4",
								"type": "t_address"
							},
							{
								"astId": 15,
								"contract": "crowdfunding.sol:CrowdfundingContract",
								"label": "joinNum",
								"offset": 0,
								"slot": "5",
								"type": "t_uint256"
							},
							{
								"astId": 17,
								"contract": "crowdfunding.sol:CrowdfundingContract",
								"label": "expectAmout",
								"offset": 0,
								"slot": "6",
								"type": "t_string_storage"
							},
							{
								"astId": 19,
								"contract": "crowdfunding.sol:CrowdfundingContract",
								"label": "actualAmount",
								"offset": 0,
								"slot": "7",
								"type": "t_string_storage"
							}
						],
						"numberOfBytes": "256"
					},
					"t_uint256": {
						"encoding": "inplace",
						"label": "uint256",
						"numberOfBytes": "32"
					}
				}
			},
			"userdoc": {
				"kind": "user",
				"methods": {},
				"version": 1
			}
		}
	}
}