{
	"function.sol": {
		"Function": {
			"abi": [
				{
					"inputs": [
						{
							"internalType": "contract A",
							"name": "a",
							"type": "address"
						}
					],
					"name": "callContractFn",
					"outputs": [],
					"stateMutability": "pure",
					"type": "function"
				},
				{
					"inputs": [],
					"name": "callExternal",
					"outputs": [
						{
							"internalType": "uint256",
							"name": "",
							"type": "uint256"
						}
					],
					"stateMutability": "pure",
					"type": "function"
				},
				{
					"inputs": [],
					"name": "callInternal",
					"outputs": [
						{
							"internalType": "bool",
							"name": "",
							"type": "bool"
						}
					],
					"stateMutability": "pure",
					"type": "function"
				}
			],
			"devdoc": {
				"kind": "dev",
				"methods": {},
				"version": 1
			},
			"evm": {
				"assembly": "    /* \"function.sol\":278:657  contract Function {\r... */\n  mstore(0x40, 0x80)\n  callvalue\n  dup1\n  iszero\n  tag_1\n  jumpi\n  0x00\n  dup1\n  revert\ntag_1:\n  pop\n  dataSize(sub_0)\n  dup1\n  dataOffset(sub_0)\n  0x00\n  codecopy\n  0x00\n  return\nstop\n\nsub_0: assembly {\n        /* \"function.sol\":278:657  contract Function {\r... */\n      mstore(0x40, 0x80)\n      callvalue\n      dup1\n      iszero\n      tag_1\n      jumpi\n      0x00\n      dup1\n      revert\n    tag_1:\n      pop\n      jumpi(tag_2, lt(calldatasize, 0x04))\n      shr(0xe0, calldataload(0x00))\n      dup1\n      0x5f431992\n      eq\n      tag_3\n      jumpi\n      dup1\n      0x8aa573c6\n      eq\n      tag_4\n      jumpi\n      dup1\n      0xe16e7c00\n      eq\n      tag_5\n      jumpi\n    tag_2:\n      0x00\n      dup1\n      revert\n        /* \"function.sol\":499:580  function callExternal() public pure returns (uint) {\r... */\n    tag_3:\n      tag_6\n      tag_7\n      jump\t// in\n    tag_6:\n      mload(0x40)\n      tag_8\n      swap2\n      swap1\n      tag_9\n      jump\t// in\n    tag_8:\n      mload(0x40)\n      dup1\n      swap2\n      sub\n      swap1\n      return\n        /* \"function.sol\":408:489  function callInternal() public pure returns (bool) {\r... */\n    tag_4:\n      tag_10\n      tag_11\n      jump\t// in\n    tag_10:\n      mload(0x40)\n      tag_12\n      swap2\n      swap1\n      tag_13\n      jump\t// in\n    tag_12:\n      mload(0x40)\n      dup1\n      swap2\n      sub\n      swap1\n      return\n        /* \"function.sol\":588:654  function callContractFn(A a) public pure {\r... */\n    tag_5:\n      tag_14\n      0x04\n      dup1\n      calldatasize\n      sub\n      dup2\n      add\n      swap1\n      tag_15\n      swap2\n      swap1\n      tag_16\n      jump\t// in\n    tag_15:\n      tag_17\n      jump\t// in\n    tag_14:\n      stop\n        /* \"function.sol\":499:580  function callExternal() public pure returns (uint) {\r... */\n    tag_7:\n        /* \"function.sol\":544:548  uint */\n      0x00\n        /* \"function.sol\":568:572  f2() */\n      tag_19\n        /* \"function.sol\":568:570  f2 */\n      tag_20\n        /* \"function.sol\":568:572  f2() */\n      jump\t// in\n    tag_19:\n        /* \"function.sol\":561:572  return f2() */\n      swap1\n      pop\n        /* \"function.sol\":499:580  function callExternal() public pure returns (uint) {\r... */\n      swap1\n      jump\t// out\n        /* \"function.sol\":408:489  function callInternal() public pure returns (bool) {\r... */\n    tag_11:\n        /* \"function.sol\":453:457  bool */\n      0x00\n        /* \"function.sol\":477:481  f1() */\n      tag_22\n        /* \"function.sol\":477:479  f1 */\n      tag_23\n        /* \"function.sol\":477:481  f1() */\n      jump\t// in\n    tag_22:\n        /* \"function.sol\":470:481  return f1() */\n      swap1\n      pop\n        /* \"function.sol\":408:489  function callInternal() public pure returns (bool) {\r... */\n      swap1\n      jump\t// out\n        /* \"function.sol\":588:654  function callContractFn(A a) public pure {\r... */\n    tag_17:\n        /* \"function.sol\":640:641  a */\n      dup1\n        /* \"function.sol\":640:644  a.f3 */\n      0xffffffffffffffffffffffffffffffffffffffff\n      and\n      0xaaf05f3d\n        /* \"function.sol\":640:646  a.f3() */\n      mload(0x40)\n      dup2\n      0xffffffff\n      and\n      0xe0\n      shl\n      dup2\n      mstore\n      0x04\n      add\n      0x00\n      mload(0x40)\n      dup1\n      dup4\n      sub\n      dup2\n      dup7\n      dup1\n      extcodesize\n      iszero\n      dup1\n      iszero\n      tag_25\n      jumpi\n      0x00\n      dup1\n      revert\n    tag_25:\n      pop\n      gas\n      staticcall\n      iszero\n      dup1\n      iszero\n      tag_27\n      jumpi\n      returndatasize\n      0x00\n      dup1\n      returndatacopy\n      revert(0x00, returndatasize)\n    tag_27:\n      pop\n      pop\n      pop\n      pop\n      mload(0x40)\n      returndatasize\n      0x00\n      dup3\n      returndatacopy\n      returndatasize\n      not(0x1f)\n      0x1f\n      dup3\n      add\n      and\n      dup3\n      add\n      dup1\n      0x40\n      mstore\n      pop\n      dup2\n      add\n      swap1\n      tag_28\n      swap2\n      swap1\n      tag_29\n      jump\t// in\n    tag_28:\n      pop\n        /* \"function.sol\":588:654  function callContractFn(A a) public pure {\r... */\n      pop\n      jump\t// out\n        /* \"function.sol\":61:132  function f2() pure returns(uint) {\r... */\n    tag_20:\n        /* \"function.sol\":88:92  uint */\n      0x00\n        /* \"function.sol\":101:107  uint u */\n      dup1\n        /* \"function.sol\":110:113  120 */\n      0x78\n        /* \"function.sol\":101:113  uint u = 120 */\n      swap1\n      pop\n        /* \"function.sol\":127:128  u */\n      dup1\n        /* \"function.sol\":120:128  return u */\n      swap2\n      pop\n      pop\n        /* \"function.sol\":61:132  function f2() pure returns(uint) {\r... */\n      swap1\n      jump\t// out\n        /* \"function.sol\":305:398  function f1() internal pure returns(bool) {\r... */\n    tag_23:\n        /* \"function.sol\":341:345  bool */\n      0x00\n        /* \"function.sol\":358:364  bool b */\n      dup1\n        /* \"function.sol\":367:371  true */\n      0x01\n        /* \"function.sol\":358:371  bool b = true */\n      swap1\n      pop\n        /* \"function.sol\":389:390  b */\n      dup1\n        /* \"function.sol\":382:390  return b */\n      swap2\n      pop\n      pop\n        /* \"function.sol\":305:398  function f1() internal pure returns(bool) {\r... */\n      swap1\n      jump\t// out\n        /* \"#utility.yul\":7:428   */\n    tag_33:\n        /* \"#utility.yul\":96:101   */\n      0x00\n        /* \"#utility.yul\":121:187   */\n      tag_35\n        /* \"#utility.yul\":137:186   */\n      tag_36\n        /* \"#utility.yul\":179:185   */\n      dup5\n        /* \"#utility.yul\":137:186   */\n      tag_37\n      jump\t// in\n    tag_36:\n        /* \"#utility.yul\":121:187   */\n      tag_38\n      jump\t// in\n    tag_35:\n        /* \"#utility.yul\":112:187   */\n      swap1\n      pop\n        /* \"#utility.yul\":210:216   */\n      dup3\n        /* \"#utility.yul\":203:208   */\n      dup2\n        /* \"#utility.yul\":196:217   */\n      mstore\n        /* \"#utility.yul\":248:252   */\n      0x20\n        /* \"#utility.yul\":241:246   */\n      dup2\n        /* \"#utility.yul\":237:253   */\n      add\n        /* \"#utility.yul\":286:289   */\n      dup5\n        /* \"#utility.yul\":277:283   */\n      dup5\n        /* \"#utility.yul\":272:275   */\n      dup5\n        /* \"#utility.yul\":268:284   */\n      add\n        /* \"#utility.yul\":265:290   */\n      gt\n        /* \"#utility.yul\":262:374   */\n      iszero\n      tag_39\n      jumpi\n        /* \"#utility.yul\":293:372   */\n      tag_40\n      tag_41\n      jump\t// in\n    tag_40:\n        /* \"#utility.yul\":262:374   */\n    tag_39:\n        /* \"#utility.yul\":383:422   */\n      tag_42\n        /* \"#utility.yul\":415:421   */\n      dup5\n        /* \"#utility.yul\":410:413   */\n      dup3\n        /* \"#utility.yul\":405:408   */\n      dup6\n        /* \"#utility.yul\":383:422   */\n      tag_43\n      jump\t// in\n    tag_42:\n        /* \"#utility.yul\":102:428   */\n      pop\n        /* \"#utility.yul\":7:428   */\n      swap4\n      swap3\n      pop\n      pop\n      pop\n      jump\t// out\n        /* \"#utility.yul\":434:589   */\n    tag_44:\n        /* \"#utility.yul\":488:493   */\n      0x00\n        /* \"#utility.yul\":526:532   */\n      dup2\n        /* \"#utility.yul\":513:533   */\n      calldataload\n        /* \"#utility.yul\":504:533   */\n      swap1\n      pop\n        /* \"#utility.yul\":542:583   */\n      tag_46\n        /* \"#utility.yul\":577:582   */\n      dup2\n        /* \"#utility.yul\":542:583   */\n      tag_47\n      jump\t// in\n    tag_46:\n        /* \"#utility.yul\":434:589   */\n      swap3\n      swap2\n      pop\n      pop\n      jump\t// out\n        /* \"#utility.yul\":609:964   */\n    tag_48:\n        /* \"#utility.yul\":676:681   */\n      0x00\n        /* \"#utility.yul\":725:728   */\n      dup3\n        /* \"#utility.yul\":718:722   */\n      0x1f\n        /* \"#utility.yul\":710:716   */\n      dup4\n        /* \"#utility.yul\":706:723   */\n      add\n        /* \"#utility.yul\":702:729   */\n      slt\n        /* \"#utility.yul\":692:814   */\n      tag_50\n      jumpi\n        /* \"#utility.yul\":733:812   */\n      tag_51\n      tag_52\n      jump\t// in\n    tag_51:\n        /* \"#utility.yul\":692:814   */\n    tag_50:\n        /* \"#utility.yul\":843:849   */\n      dup2\n        /* \"#utility.yul\":837:850   */\n      mload\n        /* \"#utility.yul\":868:958   */\n      tag_53\n        /* \"#utility.yul\":954:957   */\n      dup5\n        /* \"#utility.yul\":946:952   */\n      dup3\n        /* \"#utility.yul\":939:943   */\n      0x20\n        /* \"#utility.yul\":931:937   */\n      dup7\n        /* \"#utility.yul\":927:944   */\n      add\n        /* \"#utility.yul\":868:958   */\n      tag_33\n      jump\t// in\n    tag_53:\n        /* \"#utility.yul\":859:958   */\n      swap2\n      pop\n        /* \"#utility.yul\":682:964   */\n      pop\n        /* \"#utility.yul\":609:964   */\n      swap3\n      swap2\n      pop\n      pop\n      jump\t// out\n        /* \"#utility.yul\":970:1315   */\n    tag_16:\n        /* \"#utility.yul\":1037:1043   */\n      0x00\n        /* \"#utility.yul\":1086:1088   */\n      0x20\n        /* \"#utility.yul\":1074:1083   */\n      dup3\n        /* \"#utility.yul\":1065:1072   */\n      dup5\n        /* \"#utility.yul\":1061:1084   */\n      sub\n        /* \"#utility.yul\":1057:1089   */\n      slt\n        /* \"#utility.yul\":1054:1173   */\n      iszero\n      tag_55\n      jumpi\n        /* \"#utility.yul\":1092:1171   */\n      tag_56\n      tag_57\n      jump\t// in\n    tag_56:\n        /* \"#utility.yul\":1054:1173   */\n    tag_55:\n        /* \"#utility.yul\":1212:1213   */\n      0x00\n        /* \"#utility.yul\":1237:1298   */\n      tag_58\n        /* \"#utility.yul\":1290:1297   */\n      dup5\n        /* \"#utility.yul\":1281:1287   */\n      dup3\n        /* \"#utility.yul\":1270:1279   */\n      dup6\n        /* \"#utility.yul\":1266:1288   */\n      add\n        /* \"#utility.yul\":1237:1298   */\n      tag_44\n      jump\t// in\n    tag_58:\n        /* \"#utility.yul\":1227:1298   */\n      swap2\n      pop\n        /* \"#utility.yul\":1183:1308   */\n      pop\n        /* \"#utility.yul\":970:1315   */\n      swap3\n      swap2\n      pop\n      pop\n      jump\t// out\n        /* \"#utility.yul\":1321:1845   */\n    tag_29:\n        /* \"#utility.yul\":1401:1407   */\n      0x00\n        /* \"#utility.yul\":1450:1452   */\n      0x20\n        /* \"#utility.yul\":1438:1447   */\n      dup3\n        /* \"#utility.yul\":1429:1436   */\n      dup5\n        /* \"#utility.yul\":1425:1448   */\n      sub\n        /* \"#utility.yul\":1421:1453   */\n      slt\n        /* \"#utility.yul\":1418:1537   */\n      iszero\n      tag_60\n      jumpi\n        /* \"#utility.yul\":1456:1535   */\n      tag_61\n      tag_57\n      jump\t// in\n    tag_61:\n        /* \"#utility.yul\":1418:1537   */\n    tag_60:\n        /* \"#utility.yul\":1597:1598   */\n      0x00\n        /* \"#utility.yul\":1586:1595   */\n      dup3\n        /* \"#utility.yul\":1582:1599   */\n      add\n        /* \"#utility.yul\":1576:1600   */\n      mload\n        /* \"#utility.yul\":1627:1645   */\n      0xffffffffffffffff\n        /* \"#utility.yul\":1619:1625   */\n      dup2\n        /* \"#utility.yul\":1616:1646   */\n      gt\n        /* \"#utility.yul\":1613:1730   */\n      iszero\n      tag_62\n      jumpi\n        /* \"#utility.yul\":1649:1728   */\n      tag_63\n      tag_64\n      jump\t// in\n    tag_63:\n        /* \"#utility.yul\":1613:1730   */\n    tag_62:\n        /* \"#utility.yul\":1754:1828   */\n      tag_65\n        /* \"#utility.yul\":1820:1827   */\n      dup5\n        /* \"#utility.yul\":1811:1817   */\n      dup3\n        /* \"#utility.yul\":1800:1809   */\n      dup6\n        /* \"#utility.yul\":1796:1818   */\n      add\n        /* \"#utility.yul\":1754:1828   */\n      tag_48\n      jump\t// in\n    tag_65:\n        /* \"#utility.yul\":1744:1828   */\n      swap2\n      pop\n        /* \"#utility.yul\":1547:1838   */\n      pop\n        /* \"#utility.yul\":1321:1845   */\n      swap3\n      swap2\n      pop\n      pop\n      jump\t// out\n        /* \"#utility.yul\":1851:1960   */\n    tag_66:\n        /* \"#utility.yul\":1932:1953   */\n      tag_68\n        /* \"#utility.yul\":1947:1952   */\n      dup2\n        /* \"#utility.yul\":1932:1953   */\n      tag_69\n      jump\t// in\n    tag_68:\n        /* \"#utility.yul\":1927:1930   */\n      dup3\n        /* \"#utility.yul\":1920:1954   */\n      mstore\n        /* \"#utility.yul\":1851:1960   */\n      pop\n      pop\n      jump\t// out\n        /* \"#utility.yul\":1966:2084   */\n    tag_70:\n        /* \"#utility.yul\":2053:2077   */\n      tag_72\n        /* \"#utility.yul\":2071:2076   */\n      dup2\n        /* \"#utility.yul\":2053:2077   */\n      tag_73\n      jump\t// in\n    tag_72:\n        /* \"#utility.yul\":2048:2051   */\n      dup3\n        /* \"#utility.yul\":2041:2078   */\n      mstore\n        /* \"#utility.yul\":1966:2084   */\n      pop\n      pop\n      jump\t// out\n        /* \"#utility.yul\":2090:2300   */\n    tag_13:\n        /* \"#utility.yul\":2177:2181   */\n      0x00\n        /* \"#utility.yul\":2215:2217   */\n      0x20\n        /* \"#utility.yul\":2204:2213   */\n      dup3\n        /* \"#utility.yul\":2200:2218   */\n      add\n        /* \"#utility.yul\":2192:2218   */\n      swap1\n      pop\n        /* \"#utility.yul\":2228:2293   */\n      tag_75\n        /* \"#utility.yul\":2290:2291   */\n      0x00\n        /* \"#utility.yul\":2279:2288   */\n      dup4\n        /* \"#utility.yul\":2275:2292   */\n      add\n        /* \"#utility.yul\":2266:2272   */\n      dup5\n        /* \"#utility.yul\":2228:2293   */\n      tag_66\n      jump\t// in\n    tag_75:\n        /* \"#utility.yul\":2090:2300   */\n      swap3\n      swap2\n      pop\n      pop\n      jump\t// out\n        /* \"#utility.yul\":2306:2528   */\n    tag_9:\n        /* \"#utility.yul\":2399:2403   */\n      0x00\n        /* \"#utility.yul\":2437:2439   */\n      0x20\n        /* \"#utility.yul\":2426:2435   */\n      dup3\n        /* \"#utility.yul\":2422:2440   */\n      add\n        /* \"#utility.yul\":2414:2440   */\n      swap1\n      pop\n        /* \"#utility.yul\":2450:2521   */\n      tag_77\n        /* \"#utility.yul\":2518:2519   */\n      0x00\n        /* \"#utility.yul\":2507:2516   */\n      dup4\n        /* \"#utility.yul\":2503:2520   */\n      add\n        /* \"#utility.yul\":2494:2500   */\n      dup5\n        /* \"#utility.yul\":2450:2521   */\n      tag_70\n      jump\t// in\n    tag_77:\n        /* \"#utility.yul\":2306:2528   */\n      swap3\n      swap2\n      pop\n      pop\n      jump\t// out\n        /* \"#utility.yul\":2534:2663   */\n    tag_38:\n        /* \"#utility.yul\":2568:2574   */\n      0x00\n        /* \"#utility.yul\":2595:2615   */\n      tag_79\n      tag_80\n      jump\t// in\n    tag_79:\n        /* \"#utility.yul\":2585:2615   */\n      swap1\n      pop\n        /* \"#utility.yul\":2624:2657   */\n      tag_81\n        /* \"#utility.yul\":2652:2656   */\n      dup3\n        /* \"#utility.yul\":2644:2650   */\n      dup3\n        /* \"#utility.yul\":2624:2657   */\n      tag_82\n      jump\t// in\n    tag_81:\n        /* \"#utility.yul\":2534:2663   */\n      swap2\n      swap1\n      pop\n      jump\t// out\n        /* \"#utility.yul\":2669:2744   */\n    tag_80:\n        /* \"#utility.yul\":2702:2708   */\n      0x00\n        /* \"#utility.yul\":2735:2737   */\n      0x40\n        /* \"#utility.yul\":2729:2738   */\n      mload\n        /* \"#utility.yul\":2719:2738   */\n      swap1\n      pop\n        /* \"#utility.yul\":2669:2744   */\n      swap1\n      jump\t// out\n        /* \"#utility.yul\":2750:3058   */\n    tag_37:\n        /* \"#utility.yul\":2812:2816   */\n      0x00\n        /* \"#utility.yul\":2902:2920   */\n      0xffffffffffffffff\n        /* \"#utility.yul\":2894:2900   */\n      dup3\n        /* \"#utility.yul\":2891:2921   */\n      gt\n        /* \"#utility.yul\":2888:2944   */\n      iszero\n      tag_85\n      jumpi\n        /* \"#utility.yul\":2924:2942   */\n      tag_86\n      tag_87\n      jump\t// in\n    tag_86:\n        /* \"#utility.yul\":2888:2944   */\n    tag_85:\n        /* \"#utility.yul\":2962:2991   */\n      tag_88\n        /* \"#utility.yul\":2984:2990   */\n      dup3\n        /* \"#utility.yul\":2962:2991   */\n      tag_89\n      jump\t// in\n    tag_88:\n        /* \"#utility.yul\":2954:2991   */\n      swap1\n      pop\n        /* \"#utility.yul\":3046:3050   */\n      0x20\n        /* \"#utility.yul\":3040:3044   */\n      dup2\n        /* \"#utility.yul\":3036:3051   */\n      add\n        /* \"#utility.yul\":3028:3051   */\n      swap1\n      pop\n        /* \"#utility.yul\":2750:3058   */\n      swap2\n      swap1\n      pop\n      jump\t// out\n        /* \"#utility.yul\":3064:3160   */\n    tag_90:\n        /* \"#utility.yul\":3101:3108   */\n      0x00\n        /* \"#utility.yul\":3130:3154   */\n      tag_92\n        /* \"#utility.yul\":3148:3153   */\n      dup3\n        /* \"#utility.yul\":3130:3154   */\n      tag_93\n      jump\t// in\n    tag_92:\n        /* \"#utility.yul\":3119:3154   */\n      swap1\n      pop\n        /* \"#utility.yul\":3064:3160   */\n      swap2\n      swap1\n      pop\n      jump\t// out\n        /* \"#utility.yul\":3166:3256   */\n    tag_69:\n        /* \"#utility.yul\":3200:3207   */\n      0x00\n        /* \"#utility.yul\":3243:3248   */\n      dup2\n        /* \"#utility.yul\":3236:3249   */\n      iszero\n        /* \"#utility.yul\":3229:3250   */\n      iszero\n        /* \"#utility.yul\":3218:3250   */\n      swap1\n      pop\n        /* \"#utility.yul\":3166:3256   */\n      swap2\n      swap1\n      pop\n      jump\t// out\n        /* \"#utility.yul\":3262:3366   */\n    tag_95:\n        /* \"#utility.yul\":3307:3314   */\n      0x00\n        /* \"#utility.yul\":3336:3360   */\n      tag_97\n        /* \"#utility.yul\":3354:3359   */\n      dup3\n        /* \"#utility.yul\":3336:3360   */\n      tag_90\n      jump\t// in\n    tag_97:\n        /* \"#utility.yul\":3325:3360   */\n      swap1\n      pop\n        /* \"#utility.yul\":3262:3366   */\n      swap2\n      swap1\n      pop\n      jump\t// out\n        /* \"#utility.yul\":3372:3498   */\n    tag_93:\n        /* \"#utility.yul\":3409:3416   */\n      0x00\n        /* \"#utility.yul\":3449:3491   */\n      0xffffffffffffffffffffffffffffffffffffffff\n        /* \"#utility.yul\":3442:3447   */\n      dup3\n        /* \"#utility.yul\":3438:3492   */\n      and\n        /* \"#utility.yul\":3427:3492   */\n      swap1\n      pop\n        /* \"#utility.yul\":3372:3498   */\n      swap2\n      swap1\n      pop\n      jump\t// out\n        /* \"#utility.yul\":3504:3581   */\n    tag_73:\n        /* \"#utility.yul\":3541:3548   */\n      0x00\n        /* \"#utility.yul\":3570:3575   */\n      dup2\n        /* \"#utility.yul\":3559:3575   */\n      swap1\n      pop\n        /* \"#utility.yul\":3504:3581   */\n      swap2\n      swap1\n      pop\n      jump\t// out\n        /* \"#utility.yul\":3587:3894   */\n    tag_43:\n        /* \"#utility.yul\":3655:3656   */\n      0x00\n        /* \"#utility.yul\":3665:3778   */\n    tag_101:\n        /* \"#utility.yul\":3679:3685   */\n      dup4\n        /* \"#utility.yul\":3676:3677   */\n      dup2\n        /* \"#utility.yul\":3673:3686   */\n      lt\n        /* \"#utility.yul\":3665:3778   */\n      iszero\n      tag_103\n      jumpi\n        /* \"#utility.yul\":3764:3765   */\n      dup1\n        /* \"#utility.yul\":3759:3762   */\n      dup3\n        /* \"#utility.yul\":3755:3766   */\n      add\n        /* \"#utility.yul\":3749:3767   */\n      mload\n        /* \"#utility.yul\":3745:3746   */\n      dup2\n        /* \"#utility.yul\":3740:3743   */\n      dup5\n        /* \"#utility.yul\":3736:3747   */\n      add\n        /* \"#utility.yul\":3729:3768   */\n      mstore\n        /* \"#utility.yul\":3701:3703   */\n      0x20\n        /* \"#utility.yul\":3698:3699   */\n      dup2\n        /* \"#utility.yul\":3694:3704   */\n      add\n        /* \"#utility.yul\":3689:3704   */\n      swap1\n      pop\n        /* \"#utility.yul\":3665:3778   */\n      jump(tag_101)\n    tag_103:\n        /* \"#utility.yul\":3796:3802   */\n      dup4\n        /* \"#utility.yul\":3793:3794   */\n      dup2\n        /* \"#utility.yul\":3790:3803   */\n      gt\n        /* \"#utility.yul\":3787:3888   */\n      iszero\n      tag_104\n      jumpi\n        /* \"#utility.yul\":3876:3877   */\n      0x00\n        /* \"#utility.yul\":3867:3873   */\n      dup5\n        /* \"#utility.yul\":3862:3865   */\n      dup5\n        /* \"#utility.yul\":3858:3874   */\n      add\n        /* \"#utility.yul\":3851:3878   */\n      mstore\n        /* \"#utility.yul\":3787:3888   */\n    tag_104:\n        /* \"#utility.yul\":3636:3894   */\n      pop\n        /* \"#utility.yul\":3587:3894   */\n      pop\n      pop\n      pop\n      jump\t// out\n        /* \"#utility.yul\":3900:4181   */\n    tag_82:\n        /* \"#utility.yul\":3983:4010   */\n      tag_106\n        /* \"#utility.yul\":4005:4009   */\n      dup3\n        /* \"#utility.yul\":3983:4010   */\n      tag_89\n      jump\t// in\n    tag_106:\n        /* \"#utility.yul\":3975:3981   */\n      dup2\n        /* \"#utility.yul\":3971:4011   */\n      add\n        /* \"#utility.yul\":4113:4119   */\n      dup2\n        /* \"#utility.yul\":4101:4111   */\n      dup2\n        /* \"#utility.yul\":4098:4120   */\n      lt\n        /* \"#utility.yul\":4077:4095   */\n      0xffffffffffffffff\n        /* \"#utility.yul\":4065:4075   */\n      dup3\n        /* \"#utility.yul\":4062:4096   */\n      gt\n        /* \"#utility.yul\":4059:4121   */\n      or\n        /* \"#utility.yul\":4056:4144   */\n      iszero\n      tag_107\n      jumpi\n        /* \"#utility.yul\":4124:4142   */\n      tag_108\n      tag_87\n      jump\t// in\n    tag_108:\n        /* \"#utility.yul\":4056:4144   */\n    tag_107:\n        /* \"#utility.yul\":4164:4174   */\n      dup1\n        /* \"#utility.yul\":4160:4162   */\n      0x40\n        /* \"#utility.yul\":4153:4175   */\n      mstore\n        /* \"#utility.yul\":3943:4181   */\n      pop\n        /* \"#utility.yul\":3900:4181   */\n      pop\n      pop\n      jump\t// out\n        /* \"#utility.yul\":4187:4367   */\n    tag_87:\n        /* \"#utility.yul\":4235:4312   */\n      0x4e487b7100000000000000000000000000000000000000000000000000000000\n        /* \"#utility.yul\":4232:4233   */\n      0x00\n        /* \"#utility.yul\":4225:4313   */\n      mstore\n        /* \"#utility.yul\":4332:4336   */\n      0x41\n        /* \"#utility.yul\":4329:4330   */\n      0x04\n        /* \"#utility.yul\":4322:4337   */\n      mstore\n        /* \"#utility.yul\":4356:4360   */\n      0x24\n        /* \"#utility.yul\":4353:4354   */\n      0x00\n        /* \"#utility.yul\":4346:4361   */\n      revert\n        /* \"#utility.yul\":4373:4490   */\n    tag_52:\n        /* \"#utility.yul\":4482:4483   */\n      0x00\n        /* \"#utility.yul\":4479:4480   */\n      dup1\n        /* \"#utility.yul\":4472:4484   */\n      revert\n        /* \"#utility.yul\":4496:4613   */\n    tag_41:\n        /* \"#utility.yul\":4605:4606   */\n      0x00\n        /* \"#utility.yul\":4602:4603   */\n      dup1\n        /* \"#utility.yul\":4595:4607   */\n      revert\n        /* \"#utility.yul\":4619:4736   */\n    tag_64:\n        /* \"#utility.yul\":4728:4729   */\n      0x00\n        /* \"#utility.yul\":4725:4726   */\n      dup1\n        /* \"#utility.yul\":4718:4730   */\n      revert\n        /* \"#utility.yul\":4742:4859   */\n    tag_57:\n        /* \"#utility.yul\":4851:4852   */\n      0x00\n        /* \"#utility.yul\":4848:4849   */\n      dup1\n        /* \"#utility.yul\":4841:4853   */\n      revert\n        /* \"#utility.yul\":4865:4967   */\n    tag_89:\n        /* \"#utility.yul\":4906:4912   */\n      0x00\n        /* \"#utility.yul\":4957:4959   */\n      0x1f\n        /* \"#utility.yul\":4953:4960   */\n      not\n        /* \"#utility.yul\":4948:4950   */\n      0x1f\n        /* \"#utility.yul\":4941:4946   */\n      dup4\n        /* \"#utility.yul\":4937:4951   */\n      add\n        /* \"#utility.yul\":4933:4961   */\n      and\n        /* \"#utility.yul\":4923:4961   */\n      swap1\n      pop\n        /* \"#utility.yul\":4865:4967   */\n      swap2\n      swap1\n      pop\n      jump\t// out\n        /* \"#utility.yul\":4973:5111   */\n    tag_47:\n        /* \"#utility.yul\":5054:5086   */\n      tag_116\n        /* \"#utility.yul\":5080:5085   */\n      dup2\n        /* \"#utility.yul\":5054:5086   */\n      tag_95\n      jump\t// in\n    tag_116:\n        /* \"#utility.yul\":5047:5052   */\n      dup2\n        /* \"#utility.yul\":5044:5087   */\n      eq\n        /* \"#utility.yul\":5034:5105   */\n      tag_117\n      jumpi\n        /* \"#utility.yul\":5101:5102   */\n      0x00\n        /* \"#utility.yul\":5098:5099   */\n      dup1\n        /* \"#utility.yul\":5091:5103   */\n      revert\n        /* \"#utility.yul\":5034:5105   */\n    tag_117:\n        /* \"#utility.yul\":4973:5111   */\n      pop\n      jump\t// out\n\n    auxdata: 0xa264697066735822122030254ebac4039704b3bd682486ddc0bf56af6fb7124efed9fdc3cd1b1756af6e64736f6c63430008070033\n}\n",
				"bytecode": {
					"linkReferences": {},
					"object": "608060405234801561001057600080fd5b50610463806100206000396000f3fe608060405234801561001057600080fd5b50600436106100415760003560e01c80635f431992146100465780638aa573c614610064578063e16e7c0014610082575b600080fd5b61004e61009e565b60405161005b9190610293565b60405180910390f35b61006c6100ad565b6040516100799190610278565b60405180910390f35b61009c600480360381019061009791906101e4565b6100bc565b005b60006100a8610143565b905090565b60006100b7610151565b905090565b8073ffffffffffffffffffffffffffffffffffffffff1663aaf05f3d6040518163ffffffff1660e01b815260040160006040518083038186803b15801561010257600080fd5b505afa158015610116573d6000803e3d6000fd5b505050506040513d6000823e3d601f19601f8201168201806040525081019061013f9190610211565b5050565b600080607890508091505090565b600080600190508091505090565b600061017261016d846102d3565b6102ae565b90508281526020810184848401111561018e5761018d6103f6565b5b61019984828561035e565b509392505050565b6000813590506101b081610416565b92915050565b600082601f8301126101cb576101ca6103f1565b5b81516101db84826020860161015f565b91505092915050565b6000602082840312156101fa576101f9610400565b5b6000610208848285016101a1565b91505092915050565b60006020828403121561022757610226610400565b5b600082015167ffffffffffffffff811115610245576102446103fb565b5b610251848285016101b6565b91505092915050565b61026381610316565b82525050565b61027281610354565b82525050565b600060208201905061028d600083018461025a565b92915050565b60006020820190506102a86000830184610269565b92915050565b60006102b86102c9565b90506102c48282610391565b919050565b6000604051905090565b600067ffffffffffffffff8211156102ee576102ed6103c2565b5b6102f782610405565b9050602081019050919050565b600061030f82610334565b9050919050565b60008115159050919050565b600061032d82610304565b9050919050565b600073ffffffffffffffffffffffffffffffffffffffff82169050919050565b6000819050919050565b60005b8381101561037c578082015181840152602081019050610361565b8381111561038b576000848401525b50505050565b61039a82610405565b810181811067ffffffffffffffff821117156103b9576103b86103c2565b5b80604052505050565b7f4e487b7100000000000000000000000000000000000000000000000000000000600052604160045260246000fd5b600080fd5b600080fd5b600080fd5b600080fd5b6000601f19601f8301169050919050565b61041f81610322565b811461042a57600080fd5b5056fea264697066735822122030254ebac4039704b3bd682486ddc0bf56af6fb7124efed9fdc3cd1b1756af6e64736f6c63430008070033",
					"opcodes": "PUSH1 0x80 PUSH1 0x40 MSTORE CALLVALUE DUP1 ISZERO PUSH2 0x10 JUMPI PUSH1 0x0 DUP1 REVERT JUMPDEST POP PUSH2 0x463 DUP1 PUSH2 0x20 PUSH1 0x0 CODECOPY PUSH1 0x0 RETURN INVALID PUSH1 0x80 PUSH1 0x40 MSTORE CALLVALUE DUP1 ISZERO PUSH2 0x10 JUMPI PUSH1 0x0 DUP1 REVERT JUMPDEST POP PUSH1 0x4 CALLDATASIZE LT PUSH2 0x41 JUMPI PUSH1 0x0 CALLDATALOAD PUSH1 0xE0 SHR DUP1 PUSH4 0x5F431992 EQ PUSH2 0x46 JUMPI DUP1 PUSH4 0x8AA573C6 EQ PUSH2 0x64 JUMPI DUP1 PUSH4 0xE16E7C00 EQ PUSH2 0x82 JUMPI JUMPDEST PUSH1 0x0 DUP1 REVERT JUMPDEST PUSH2 0x4E PUSH2 0x9E JUMP JUMPDEST PUSH1 0x40 MLOAD PUSH2 0x5B SWAP2 SWAP1 PUSH2 0x293 JUMP JUMPDEST PUSH1 0x40 MLOAD DUP1 SWAP2 SUB SWAP1 RETURN JUMPDEST PUSH2 0x6C PUSH2 0xAD JUMP JUMPDEST PUSH1 0x40 MLOAD PUSH2 0x79 SWAP2 SWAP1 PUSH2 0x278 JUMP JUMPDEST PUSH1 0x40 MLOAD DUP1 SWAP2 SUB SWAP1 RETURN JUMPDEST PUSH2 0x9C PUSH1 0x4 DUP1 CALLDATASIZE SUB DUP2 ADD SWAP1 PUSH2 0x97 SWAP2 SWAP1 PUSH2 0x1E4 JUMP JUMPDEST PUSH2 0xBC JUMP JUMPDEST STOP JUMPDEST PUSH1 0x0 PUSH2 0xA8 PUSH2 0x143 JUMP JUMPDEST SWAP1 POP SWAP1 JUMP JUMPDEST PUSH1 0x0 PUSH2 0xB7 PUSH2 0x151 JUMP JUMPDEST SWAP1 POP SWAP1 JUMP JUMPDEST DUP1 PUSH20 0xFFFFFFFFFFFFFFFFFFFFFFFFFFFFFFFFFFFFFFFF AND PUSH4 0xAAF05F3D PUSH1 0x40 MLOAD DUP2 PUSH4 0xFFFFFFFF AND PUSH1 0xE0 SHL DUP2 MSTORE PUSH1 0x4 ADD PUSH1 0x0 PUSH1 0x40 MLOAD DUP1 DUP4 SUB DUP2 DUP7 DUP1 EXTCODESIZE ISZERO DUP1 ISZERO PUSH2 0x102 JUMPI PUSH1 0x0 DUP1 REVERT JUMPDEST POP GAS STATICCALL ISZERO DUP1 ISZERO PUSH2 0x116 JUMPI RETURNDATASIZE PUSH1 0x0 DUP1 RETURNDATACOPY RETURNDATASIZE PUSH1 0x0 REVERT JUMPDEST POP POP POP POP PUSH1 0x40 MLOAD RETURNDATASIZE PUSH1 0x0 DUP3 RETURNDATACOPY RETURNDATASIZE PUSH1 0x1F NOT PUSH1 0x1F DUP3 ADD AND DUP3 ADD DUP1 PUSH1 0x40 MSTORE POP DUP2 ADD SWAP1 PUSH2 0x13F SWAP2 SWAP1 PUSH2 0x211 JUMP JUMPDEST POP POP JUMP JUMPDEST PUSH1 0x0 DUP1 PUSH1 0x78 SWAP1 POP DUP1 SWAP2 POP POP SWAP1 JUMP JUMPDEST PUSH1 0x0 DUP1 PUSH1 0x1 SWAP1 POP DUP1 SWAP2 POP POP SWAP1 JUMP JUMPDEST PUSH1 0x0 PUSH2 0x172 PUSH2 0x16D DUP5 PUSH2 0x2D3 JUMP JUMPDEST PUSH2 0x2AE JUMP JUMPDEST SWAP1 POP DUP3 DUP2 MSTORE PUSH1 0x20 DUP2 ADD DUP5 DUP5 DUP5 ADD GT ISZERO PUSH2 0x18E JUMPI PUSH2 0x18D PUSH2 0x3F6 JUMP JUMPDEST JUMPDEST PUSH2 0x199 DUP5 DUP3 DUP6 PUSH2 0x35E JUMP JUMPDEST POP SWAP4 SWAP3 POP POP POP JUMP JUMPDEST PUSH1 0x0 DUP2 CALLDATALOAD SWAP1 POP PUSH2 0x1B0 DUP2 PUSH2 0x416 JUMP JUMPDEST SWAP3 SWAP2 POP POP JUMP JUMPDEST PUSH1 0x0 DUP3 PUSH1 0x1F DUP4 ADD SLT PUSH2 0x1CB JUMPI PUSH2 0x1CA PUSH2 0x3F1 JUMP JUMPDEST JUMPDEST DUP2 MLOAD PUSH2 0x1DB DUP5 DUP3 PUSH1 0x20 DUP7 ADD PUSH2 0x15F JUMP JUMPDEST SWAP2 POP POP SWAP3 SWAP2 POP POP JUMP JUMPDEST PUSH1 0x0 PUSH1 0x20 DUP3 DUP5 SUB SLT ISZERO PUSH2 0x1FA JUMPI PUSH2 0x1F9 PUSH2 0x400 JUMP JUMPDEST JUMPDEST PUSH1 0x0 PUSH2 0x208 DUP5 DUP3 DUP6 ADD PUSH2 0x1A1 JUMP JUMPDEST SWAP2 POP POP SWAP3 SWAP2 POP POP JUMP JUMPDEST PUSH1 0x0 PUSH1 0x20 DUP3 DUP5 SUB SLT ISZERO PUSH2 0x227 JUMPI PUSH2 0x226 PUSH2 0x400 JUMP JUMPDEST JUMPDEST PUSH1 0x0 DUP3 ADD MLOAD PUSH8 0xFFFFFFFFFFFFFFFF DUP2 GT ISZERO PUSH2 0x245 JUMPI PUSH2 0x244 PUSH2 0x3FB JUMP JUMPDEST JUMPDEST PUSH2 0x251 DUP5 DUP3 DUP6 ADD PUSH2 0x1B6 JUMP JUMPDEST SWAP2 POP POP SWAP3 SWAP2 POP POP JUMP JUMPDEST PUSH2 0x263 DUP2 PUSH2 0x316 JUMP JUMPDEST DUP3 MSTORE POP POP JUMP JUMPDEST PUSH2 0x272 DUP2 PUSH2 0x354 JUMP JUMPDEST DUP3 MSTORE POP POP JUMP JUMPDEST PUSH1 0x0 PUSH1 0x20 DUP3 ADD SWAP1 POP PUSH2 0x28D PUSH1 0x0 DUP4 ADD DUP5 PUSH2 0x25A JUMP JUMPDEST SWAP3 SWAP2 POP POP JUMP JUMPDEST PUSH1 0x0 PUSH1 0x20 DUP3 ADD SWAP1 POP PUSH2 0x2A8 PUSH1 0x0 DUP4 ADD DUP5 PUSH2 0x269 JUMP JUMPDEST SWAP3 SWAP2 POP POP JUMP JUMPDEST PUSH1 0x0 PUSH2 0x2B8 PUSH2 0x2C9 JUMP JUMPDEST SWAP1 POP PUSH2 0x2C4 DUP3 DUP3 PUSH2 0x391 JUMP JUMPDEST SWAP2 SWAP1 POP JUMP JUMPDEST PUSH1 0x0 PUSH1 0x40 MLOAD SWAP1 POP SWAP1 JUMP JUMPDEST PUSH1 0x0 PUSH8 0xFFFFFFFFFFFFFFFF DUP3 GT ISZERO PUSH2 0x2EE JUMPI PUSH2 0x2ED PUSH2 0x3C2 JUMP JUMPDEST JUMPDEST PUSH2 0x2F7 DUP3 PUSH2 0x405 JUMP JUMPDEST SWAP1 POP PUSH1 0x20 DUP2 ADD SWAP1 POP SWAP2 SWAP1 POP JUMP JUMPDEST PUSH1 0x0 PUSH2 0x30F DUP3 PUSH2 0x334 JUMP JUMPDEST SWAP1 POP SWAP2 SWAP1 POP JUMP JUMPDEST PUSH1 0x0 DUP2 ISZERO ISZERO SWAP1 POP SWAP2 SWAP1 POP JUMP JUMPDEST PUSH1 0x0 PUSH2 0x32D DUP3 PUSH2 0x304 JUMP JUMPDEST SWAP1 POP SWAP2 SWAP1 POP JUMP JUMPDEST PUSH1 0x0 PUSH20 0xFFFFFFFFFFFFFFFFFFFFFFFFFFFFFFFFFFFFFFFF DUP3 AND SWAP1 POP SWAP2 SWAP1 POP JUMP JUMPDEST PUSH1 0x0 DUP2 SWAP1 POP SWAP2 SWAP1 POP JUMP JUMPDEST PUSH1 0x0 JUMPDEST DUP4 DUP2 LT ISZERO PUSH2 0x37C JUMPI DUP1 DUP3 ADD MLOAD DUP2 DUP5 ADD MSTORE PUSH1 0x20 DUP2 ADD SWAP1 POP PUSH2 0x361 JUMP JUMPDEST DUP4 DUP2 GT ISZERO PUSH2 0x38B JUMPI PUSH1 0x0 DUP5 DUP5 ADD MSTORE JUMPDEST POP POP POP POP JUMP JUMPDEST PUSH2 0x39A DUP3 PUSH2 0x405 JUMP JUMPDEST DUP2 ADD DUP2 DUP2 LT PUSH8 0xFFFFFFFFFFFFFFFF DUP3 GT OR ISZERO PUSH2 0x3B9 JUMPI PUSH2 0x3B8 PUSH2 0x3C2 JUMP JUMPDEST JUMPDEST DUP1 PUSH1 0x40 MSTORE POP POP POP JUMP JUMPDEST PUSH32 0x4E487B7100000000000000000000000000000000000000000000000000000000 PUSH1 0x0 MSTORE PUSH1 0x41 PUSH1 0x4 MSTORE PUSH1 0x24 PUSH1 0x0 REVERT JUMPDEST PUSH1 0x0 DUP1 REVERT JUMPDEST PUSH1 0x0 DUP1 REVERT JUMPDEST PUSH1 0x0 DUP1 REVERT JUMPDEST PUSH1 0x0 DUP1 REVERT JUMPDEST PUSH1 0x0 PUSH1 0x1F NOT PUSH1 0x1F DUP4 ADD AND SWAP1 POP SWAP2 SWAP1 POP JUMP JUMPDEST PUSH2 0x41F DUP2 PUSH2 0x322 JUMP JUMPDEST DUP2 EQ PUSH2 0x42A JUMPI PUSH1 0x0 DUP1 REVERT JUMPDEST POP JUMP INVALID LOG2 PUSH5 0x6970667358 0x22 SLT KECCAK256 ADDRESS 0x25 0x4E 0xBA 0xC4 SUB SWAP8 DIV 0xB3 0xBD PUSH9 0x2486DDC0BF56AF6FB7 SLT 0x4E INVALID 0xD9 REVERT 0xC3 0xCD SHL OR JUMP 0xAF PUSH15 0x64736F6C6343000807003300000000 "
				},
				"gasEstimates": {
					"creation": {
						"codeDepositCost": "224600",
						"executionCost": "269",
						"totalCost": "224869"
					},
					"external": {
						"callContractFn(address)": "infinite",
						"callExternal()": "363",
						"callInternal()": "391"
					},
					"internal": {
						"f1()": "36"
					}
				},
				"methodIdentifiers": {
					"callContractFn(address)": "e16e7c00",
					"callExternal()": "5f431992",
					"callInternal()": "8aa573c6"
				}
			},
			"storageLayout": {
				"storage": [],
				"types": null
			},
			"userdoc": {
				"kind": "user",
				"methods": {},
				"version": 1
			}
		}
	}
}