{
	"login.sol": {
		"Login": {
			"abi": [
				{
					"inputs": [
						{
							"internalType": "string",
							"name": "_name",
							"type": "string"
						},
						{
							"internalType": "string",
							"name": "_password",
							"type": "string"
						}
					],
					"name": "reg",
					"outputs": [],
					"stateMutability": "nonpayable",
					"type": "function"
				}
			],
			"devdoc": {
				"kind": "dev",
				"methods": {},
				"version": 1
			},
			"evm": {
				"assembly": "    /* \"login.sol\":61:354  contract Login {\r... */\n  mstore(0x40, 0x80)\n  callvalue\n  dup1\n  iszero\n  tag_1\n  jumpi\n  0x00\n  dup1\n  revert\ntag_1:\n  pop\n  dataSize(sub_0)\n  dup1\n  dataOffset(sub_0)\n  0x00\n  codecopy\n  0x00\n  return\nstop\n\nsub_0: assembly {\n        /* \"login.sol\":61:354  contract Login {\r... */\n      mstore(0x40, 0x80)\n      callvalue\n      dup1\n      iszero\n      tag_1\n      jumpi\n      0x00\n      dup1\n      revert\n    tag_1:\n      pop\n      jumpi(tag_2, lt(calldatasize, 0x04))\n      shr(0xe0, calldataload(0x00))\n      dup1\n      0x73a4e4c3\n      eq\n      tag_3\n      jumpi\n    tag_2:\n      0x00\n      dup1\n      revert\n        /* \"login.sol\":228:349  function reg (string memory _name,string memory _password) public {\r... */\n    tag_3:\n      tag_4\n      0x04\n      dup1\n      calldatasize\n      sub\n      dup2\n      add\n      swap1\n      tag_5\n      swap2\n      swap1\n      tag_6\n      jump\t// in\n    tag_5:\n      tag_7\n      jump\t// in\n    tag_4:\n      stop\n    tag_7:\n        /* \"login.sol\":305:313  userList */\n      0x00\n        /* \"login.sol\":319:340  User(_name,_password) */\n      mload(0x40)\n      dup1\n      0x40\n      add\n      0x40\n      mstore\n      dup1\n        /* \"login.sol\":324:329  _name */\n      dup5\n        /* \"login.sol\":319:340  User(_name,_password) */\n      dup2\n      mstore\n      0x20\n      add\n        /* \"login.sol\":330:339  _password */\n      dup4\n        /* \"login.sol\":319:340  User(_name,_password) */\n      dup2\n      mstore\n      pop\n        /* \"login.sol\":305:341  userList.push(User(_name,_password)) */\n      swap1\n      dup1\n      0x01\n      dup2\n      sload\n      add\n      dup1\n      dup3\n      sstore\n      dup1\n      swap2\n      pop\n      pop\n      0x01\n      swap1\n      sub\n      swap1\n      0x00\n      mstore\n      keccak256(0x00, 0x20)\n      swap1\n      0x02\n      mul\n      add\n      0x00\n      swap1\n      swap2\n      swap1\n      swap2\n      swap1\n      swap2\n      pop\n      0x00\n      dup3\n      add\n      mload\n      dup2\n      0x00\n      add\n      swap1\n      dup1\n      mload\n      swap1\n      0x20\n      add\n      swap1\n      tag_10\n      swap3\n      swap2\n      swap1\n      tag_11\n      jump\t// in\n    tag_10:\n      pop\n      0x20\n      dup3\n      add\n      mload\n      dup2\n      0x01\n      add\n      swap1\n      dup1\n      mload\n      swap1\n      0x20\n      add\n      swap1\n      tag_12\n      swap3\n      swap2\n      swap1\n      tag_11\n      jump\t// in\n    tag_12:\n      pop\n      pop\n      pop\n        /* \"login.sol\":228:349  function reg (string memory _name,string memory _password) public {\r... */\n      pop\n      pop\n      jump\t// out\n    tag_11:\n      dup3\n      dup1\n      sload\n      tag_13\n      swap1\n      tag_14\n      jump\t// in\n    tag_13:\n      swap1\n      0x00\n      mstore\n      keccak256(0x00, 0x20)\n      swap1\n      0x1f\n      add\n      0x20\n      swap1\n      div\n      dup2\n      add\n      swap3\n      dup3\n      tag_16\n      jumpi\n      0x00\n      dup6\n      sstore\n      jump(tag_15)\n    tag_16:\n      dup3\n      0x1f\n      lt\n      tag_17\n      jumpi\n      dup1\n      mload\n      not(0xff)\n      and\n      dup4\n      dup1\n      add\n      or\n      dup6\n      sstore\n      jump(tag_15)\n    tag_17:\n      dup3\n      dup1\n      add\n      0x01\n      add\n      dup6\n      sstore\n      dup3\n      iszero\n      tag_15\n      jumpi\n      swap2\n      dup3\n      add\n    tag_18:\n      dup3\n      dup2\n      gt\n      iszero\n      tag_19\n      jumpi\n      dup3\n      mload\n      dup3\n      sstore\n      swap2\n      0x20\n      add\n      swap2\n      swap1\n      0x01\n      add\n      swap1\n      jump(tag_18)\n    tag_19:\n    tag_15:\n      pop\n      swap1\n      pop\n      tag_20\n      swap2\n      swap1\n      tag_21\n      jump\t// in\n    tag_20:\n      pop\n      swap1\n      jump\t// out\n    tag_21:\n    tag_22:\n      dup1\n      dup3\n      gt\n      iszero\n      tag_23\n      jumpi\n      0x00\n      dup2\n      0x00\n      swap1\n      sstore\n      pop\n      0x01\n      add\n      jump(tag_22)\n    tag_23:\n      pop\n      swap1\n      jump\t// out\n        /* \"#utility.yul\":7:419   */\n    tag_25:\n        /* \"#utility.yul\":85:90   */\n      0x00\n        /* \"#utility.yul\":110:176   */\n      tag_27\n        /* \"#utility.yul\":126:175   */\n      tag_28\n        /* \"#utility.yul\":168:174   */\n      dup5\n        /* \"#utility.yul\":126:175   */\n      tag_29\n      jump\t// in\n    tag_28:\n        /* \"#utility.yul\":110:176   */\n      tag_30\n      jump\t// in\n    tag_27:\n        /* \"#utility.yul\":101:176   */\n      swap1\n      pop\n        /* \"#utility.yul\":199:205   */\n      dup3\n        /* \"#utility.yul\":192:197   */\n      dup2\n        /* \"#utility.yul\":185:206   */\n      mstore\n        /* \"#utility.yul\":237:241   */\n      0x20\n        /* \"#utility.yul\":230:235   */\n      dup2\n        /* \"#utility.yul\":226:242   */\n      add\n        /* \"#utility.yul\":275:278   */\n      dup5\n        /* \"#utility.yul\":266:272   */\n      dup5\n        /* \"#utility.yul\":261:264   */\n      dup5\n        /* \"#utility.yul\":257:273   */\n      add\n        /* \"#utility.yul\":254:279   */\n      gt\n        /* \"#utility.yul\":251:363   */\n      iszero\n      tag_31\n      jumpi\n        /* \"#utility.yul\":282:361   */\n      tag_32\n      tag_33\n      jump\t// in\n    tag_32:\n        /* \"#utility.yul\":251:363   */\n    tag_31:\n        /* \"#utility.yul\":372:413   */\n      tag_34\n        /* \"#utility.yul\":406:412   */\n      dup5\n        /* \"#utility.yul\":401:404   */\n      dup3\n        /* \"#utility.yul\":396:399   */\n      dup6\n        /* \"#utility.yul\":372:413   */\n      tag_35\n      jump\t// in\n    tag_34:\n        /* \"#utility.yul\":91:419   */\n      pop\n        /* \"#utility.yul\":7:419   */\n      swap4\n      swap3\n      pop\n      pop\n      pop\n      jump\t// out\n        /* \"#utility.yul\":439:779   */\n    tag_36:\n        /* \"#utility.yul\":495:500   */\n      0x00\n        /* \"#utility.yul\":544:547   */\n      dup3\n        /* \"#utility.yul\":537:541   */\n      0x1f\n        /* \"#utility.yul\":529:535   */\n      dup4\n        /* \"#utility.yul\":525:542   */\n      add\n        /* \"#utility.yul\":521:548   */\n      slt\n        /* \"#utility.yul\":511:633   */\n      tag_38\n      jumpi\n        /* \"#utility.yul\":552:631   */\n      tag_39\n      tag_40\n      jump\t// in\n    tag_39:\n        /* \"#utility.yul\":511:633   */\n    tag_38:\n        /* \"#utility.yul\":669:675   */\n      dup2\n        /* \"#utility.yul\":656:676   */\n      calldataload\n        /* \"#utility.yul\":694:773   */\n      tag_41\n        /* \"#utility.yul\":769:772   */\n      dup5\n        /* \"#utility.yul\":761:767   */\n      dup3\n        /* \"#utility.yul\":754:758   */\n      0x20\n        /* \"#utility.yul\":746:752   */\n      dup7\n        /* \"#utility.yul\":742:759   */\n      add\n        /* \"#utility.yul\":694:773   */\n      tag_25\n      jump\t// in\n    tag_41:\n        /* \"#utility.yul\":685:773   */\n      swap2\n      pop\n        /* \"#utility.yul\":501:779   */\n      pop\n        /* \"#utility.yul\":439:779   */\n      swap3\n      swap2\n      pop\n      pop\n      jump\t// out\n        /* \"#utility.yul\":785:1619   */\n    tag_6:\n        /* \"#utility.yul\":873:879   */\n      0x00\n        /* \"#utility.yul\":881:887   */\n      dup1\n        /* \"#utility.yul\":930:932   */\n      0x40\n        /* \"#utility.yul\":918:927   */\n      dup4\n        /* \"#utility.yul\":909:916   */\n      dup6\n        /* \"#utility.yul\":905:928   */\n      sub\n        /* \"#utility.yul\":901:933   */\n      slt\n        /* \"#utility.yul\":898:1017   */\n      iszero\n      tag_43\n      jumpi\n        /* \"#utility.yul\":936:1015   */\n      tag_44\n      tag_45\n      jump\t// in\n    tag_44:\n        /* \"#utility.yul\":898:1017   */\n    tag_43:\n        /* \"#utility.yul\":1084:1085   */\n      0x00\n        /* \"#utility.yul\":1073:1082   */\n      dup4\n        /* \"#utility.yul\":1069:1086   */\n      add\n        /* \"#utility.yul\":1056:1087   */\n      calldataload\n        /* \"#utility.yul\":1114:1132   */\n      0xffffffffffffffff\n        /* \"#utility.yul\":1106:1112   */\n      dup2\n        /* \"#utility.yul\":1103:1133   */\n      gt\n        /* \"#utility.yul\":1100:1217   */\n      iszero\n      tag_46\n      jumpi\n        /* \"#utility.yul\":1136:1215   */\n      tag_47\n      tag_48\n      jump\t// in\n    tag_47:\n        /* \"#utility.yul\":1100:1217   */\n    tag_46:\n        /* \"#utility.yul\":1241:1304   */\n      tag_49\n        /* \"#utility.yul\":1296:1303   */\n      dup6\n        /* \"#utility.yul\":1287:1293   */\n      dup3\n        /* \"#utility.yul\":1276:1285   */\n      dup7\n        /* \"#utility.yul\":1272:1294   */\n      add\n        /* \"#utility.yul\":1241:1304   */\n      tag_36\n      jump\t// in\n    tag_49:\n        /* \"#utility.yul\":1231:1304   */\n      swap3\n      pop\n        /* \"#utility.yul\":1027:1314   */\n      pop\n        /* \"#utility.yul\":1381:1383   */\n      0x20\n        /* \"#utility.yul\":1370:1379   */\n      dup4\n        /* \"#utility.yul\":1366:1384   */\n      add\n        /* \"#utility.yul\":1353:1385   */\n      calldataload\n        /* \"#utility.yul\":1412:1430   */\n      0xffffffffffffffff\n        /* \"#utility.yul\":1404:1410   */\n      dup2\n        /* \"#utility.yul\":1401:1431   */\n      gt\n        /* \"#utility.yul\":1398:1515   */\n      iszero\n      tag_50\n      jumpi\n        /* \"#utility.yul\":1434:1513   */\n      tag_51\n      tag_48\n      jump\t// in\n    tag_51:\n        /* \"#utility.yul\":1398:1515   */\n    tag_50:\n        /* \"#utility.yul\":1539:1602   */\n      tag_52\n        /* \"#utility.yul\":1594:1601   */\n      dup6\n        /* \"#utility.yul\":1585:1591   */\n      dup3\n        /* \"#utility.yul\":1574:1583   */\n      dup7\n        /* \"#utility.yul\":1570:1592   */\n      add\n        /* \"#utility.yul\":1539:1602   */\n      tag_36\n      jump\t// in\n    tag_52:\n        /* \"#utility.yul\":1529:1602   */\n      swap2\n      pop\n        /* \"#utility.yul\":1324:1612   */\n      pop\n        /* \"#utility.yul\":785:1619   */\n      swap3\n      pop\n      swap3\n      swap1\n      pop\n      jump\t// out\n        /* \"#utility.yul\":1625:1754   */\n    tag_30:\n        /* \"#utility.yul\":1659:1665   */\n      0x00\n        /* \"#utility.yul\":1686:1706   */\n      tag_54\n      tag_55\n      jump\t// in\n    tag_54:\n        /* \"#utility.yul\":1676:1706   */\n      swap1\n      pop\n        /* \"#utility.yul\":1715:1748   */\n      tag_56\n        /* \"#utility.yul\":1743:1747   */\n      dup3\n        /* \"#utility.yul\":1735:1741   */\n      dup3\n        /* \"#utility.yul\":1715:1748   */\n      tag_57\n      jump\t// in\n    tag_56:\n        /* \"#utility.yul\":1625:1754   */\n      swap2\n      swap1\n      pop\n      jump\t// out\n        /* \"#utility.yul\":1760:1835   */\n    tag_55:\n        /* \"#utility.yul\":1793:1799   */\n      0x00\n        /* \"#utility.yul\":1826:1828   */\n      0x40\n        /* \"#utility.yul\":1820:1829   */\n      mload\n        /* \"#utility.yul\":1810:1829   */\n      swap1\n      pop\n        /* \"#utility.yul\":1760:1835   */\n      swap1\n      jump\t// out\n        /* \"#utility.yul\":1841:2149   */\n    tag_29:\n        /* \"#utility.yul\":1903:1907   */\n      0x00\n        /* \"#utility.yul\":1993:2011   */\n      0xffffffffffffffff\n        /* \"#utility.yul\":1985:1991   */\n      dup3\n        /* \"#utility.yul\":1982:2012   */\n      gt\n        /* \"#utility.yul\":1979:2035   */\n      iszero\n      tag_60\n      jumpi\n        /* \"#utility.yul\":2015:2033   */\n      tag_61\n      tag_62\n      jump\t// in\n    tag_61:\n        /* \"#utility.yul\":1979:2035   */\n    tag_60:\n        /* \"#utility.yul\":2053:2082   */\n      tag_63\n        /* \"#utility.yul\":2075:2081   */\n      dup3\n        /* \"#utility.yul\":2053:2082   */\n      tag_64\n      jump\t// in\n    tag_63:\n        /* \"#utility.yul\":2045:2082   */\n      swap1\n      pop\n        /* \"#utility.yul\":2137:2141   */\n      0x20\n        /* \"#utility.yul\":2131:2135   */\n      dup2\n        /* \"#utility.yul\":2127:2142   */\n      add\n        /* \"#utility.yul\":2119:2142   */\n      swap1\n      pop\n        /* \"#utility.yul\":1841:2149   */\n      swap2\n      swap1\n      pop\n      jump\t// out\n        /* \"#utility.yul\":2155:2309   */\n    tag_35:\n        /* \"#utility.yul\":2239:2245   */\n      dup3\n        /* \"#utility.yul\":2234:2237   */\n      dup2\n        /* \"#utility.yul\":2229:2232   */\n      dup4\n        /* \"#utility.yul\":2216:2246   */\n      calldatacopy\n        /* \"#utility.yul\":2301:2302   */\n      0x00\n        /* \"#utility.yul\":2292:2298   */\n      dup4\n        /* \"#utility.yul\":2287:2290   */\n      dup4\n        /* \"#utility.yul\":2283:2299   */\n      add\n        /* \"#utility.yul\":2276:2303   */\n      mstore\n        /* \"#utility.yul\":2155:2309   */\n      pop\n      pop\n      pop\n      jump\t// out\n        /* \"#utility.yul\":2315:2635   */\n    tag_14:\n        /* \"#utility.yul\":2359:2365   */\n      0x00\n        /* \"#utility.yul\":2396:2397   */\n      0x02\n        /* \"#utility.yul\":2390:2394   */\n      dup3\n        /* \"#utility.yul\":2386:2398   */\n      div\n        /* \"#utility.yul\":2376:2398   */\n      swap1\n      pop\n        /* \"#utility.yul\":2443:2444   */\n      0x01\n        /* \"#utility.yul\":2437:2441   */\n      dup3\n        /* \"#utility.yul\":2433:2445   */\n      and\n        /* \"#utility.yul\":2464:2482   */\n      dup1\n        /* \"#utility.yul\":2454:2535   */\n      tag_67\n      jumpi\n        /* \"#utility.yul\":2520:2524   */\n      0x7f\n        /* \"#utility.yul\":2512:2518   */\n      dup3\n        /* \"#utility.yul\":2508:2525   */\n      and\n        /* \"#utility.yul\":2498:2525   */\n      swap2\n      pop\n        /* \"#utility.yul\":2454:2535   */\n    tag_67:\n        /* \"#utility.yul\":2582:2584   */\n      0x20\n        /* \"#utility.yul\":2574:2580   */\n      dup3\n        /* \"#utility.yul\":2571:2585   */\n      lt\n        /* \"#utility.yul\":2551:2569   */\n      dup2\n        /* \"#utility.yul\":2548:2586   */\n      eq\n        /* \"#utility.yul\":2545:2629   */\n      iszero\n      tag_68\n      jumpi\n        /* \"#utility.yul\":2601:2619   */\n      tag_69\n      tag_70\n      jump\t// in\n    tag_69:\n        /* \"#utility.yul\":2545:2629   */\n    tag_68:\n        /* \"#utility.yul\":2366:2635   */\n      pop\n        /* \"#utility.yul\":2315:2635   */\n      swap2\n      swap1\n      pop\n      jump\t// out\n        /* \"#utility.yul\":2641:2922   */\n    tag_57:\n        /* \"#utility.yul\":2724:2751   */\n      tag_72\n        /* \"#utility.yul\":2746:2750   */\n      dup3\n        /* \"#utility.yul\":2724:2751   */\n      tag_64\n      jump\t// in\n    tag_72:\n        /* \"#utility.yul\":2716:2722   */\n      dup2\n        /* \"#utility.yul\":2712:2752   */\n      add\n        /* \"#utility.yul\":2854:2860   */\n      dup2\n        /* \"#utility.yul\":2842:2852   */\n      dup2\n        /* \"#utility.yul\":2839:2861   */\n      lt\n        /* \"#utility.yul\":2818:2836   */\n      0xffffffffffffffff\n        /* \"#utility.yul\":2806:2816   */\n      dup3\n        /* \"#utility.yul\":2803:2837   */\n      gt\n        /* \"#utility.yul\":2800:2862   */\n      or\n        /* \"#utility.yul\":2797:2885   */\n      iszero\n      tag_73\n      jumpi\n        /* \"#utility.yul\":2865:2883   */\n      tag_74\n      tag_62\n      jump\t// in\n    tag_74:\n        /* \"#utility.yul\":2797:2885   */\n    tag_73:\n        /* \"#utility.yul\":2905:2915   */\n      dup1\n        /* \"#utility.yul\":2901:2903   */\n      0x40\n        /* \"#utility.yul\":2894:2916   */\n      mstore\n        /* \"#utility.yul\":2684:2922   */\n      pop\n        /* \"#utility.yul\":2641:2922   */\n      pop\n      pop\n      jump\t// out\n        /* \"#utility.yul\":2928:3108   */\n    tag_70:\n        /* \"#utility.yul\":2976:3053   */\n      0x4e487b7100000000000000000000000000000000000000000000000000000000\n        /* \"#utility.yul\":2973:2974   */\n      0x00\n        /* \"#utility.yul\":2966:3054   */\n      mstore\n        /* \"#utility.yul\":3073:3077   */\n      0x22\n        /* \"#utility.yul\":3070:3071   */\n      0x04\n        /* \"#utility.yul\":3063:3078   */\n      mstore\n        /* \"#utility.yul\":3097:3101   */\n      0x24\n        /* \"#utility.yul\":3094:3095   */\n      0x00\n        /* \"#utility.yul\":3087:3102   */\n      revert\n        /* \"#utility.yul\":3114:3294   */\n    tag_62:\n        /* \"#utility.yul\":3162:3239   */\n      0x4e487b7100000000000000000000000000000000000000000000000000000000\n        /* \"#utility.yul\":3159:3160   */\n      0x00\n        /* \"#utility.yul\":3152:3240   */\n      mstore\n        /* \"#utility.yul\":3259:3263   */\n      0x41\n        /* \"#utility.yul\":3256:3257   */\n      0x04\n        /* \"#utility.yul\":3249:3264   */\n      mstore\n        /* \"#utility.yul\":3283:3287   */\n      0x24\n        /* \"#utility.yul\":3280:3281   */\n      0x00\n        /* \"#utility.yul\":3273:3288   */\n      revert\n        /* \"#utility.yul\":3300:3417   */\n    tag_40:\n        /* \"#utility.yul\":3409:3410   */\n      0x00\n        /* \"#utility.yul\":3406:3407   */\n      dup1\n        /* \"#utility.yul\":3399:3411   */\n      revert\n        /* \"#utility.yul\":3423:3540   */\n    tag_33:\n        /* \"#utility.yul\":3532:3533   */\n      0x00\n        /* \"#utility.yul\":3529:3530   */\n      dup1\n        /* \"#utility.yul\":3522:3534   */\n      revert\n        /* \"#utility.yul\":3546:3663   */\n    tag_48:\n        /* \"#utility.yul\":3655:3656   */\n      0x00\n        /* \"#utility.yul\":3652:3653   */\n      dup1\n        /* \"#utility.yul\":3645:3657   */\n      revert\n        /* \"#utility.yul\":3669:3786   */\n    tag_45:\n        /* \"#utility.yul\":3778:3779   */\n      0x00\n        /* \"#utility.yul\":3775:3776   */\n      dup1\n        /* \"#utility.yul\":3768:3780   */\n      revert\n        /* \"#utility.yul\":3792:3894   */\n    tag_64:\n        /* \"#utility.yul\":3833:3839   */\n      0x00\n        /* \"#utility.yul\":3884:3886   */\n      0x1f\n        /* \"#utility.yul\":3880:3887   */\n      not\n        /* \"#utility.yul\":3875:3877   */\n      0x1f\n        /* \"#utility.yul\":3868:3873   */\n      dup4\n        /* \"#utility.yul\":3864:3878   */\n      add\n        /* \"#utility.yul\":3860:3888   */\n      and\n        /* \"#utility.yul\":3850:3888   */\n      swap1\n      pop\n        /* \"#utility.yul\":3792:3894   */\n      swap2\n      swap1\n      pop\n      jump\t// out\n\n    auxdata: 0xa2646970667358221220a984e11bb765e743badb96243e91788fbb056af072d175975704239cc5da3d8f64736f6c63430008070033\n}\n",
				"bytecode": {
					"linkReferences": {},
					"object": "608060405234801561001057600080fd5b506103d8806100206000396000f3fe608060405234801561001057600080fd5b506004361061002b5760003560e01c806373a4e4c314610030575b600080fd5b61004a600480360381019061004591906101df565b61004c565b005b6000604051806040016040528084815260200183815250908060018154018082558091505060019003906000526020600020906002020160009091909190915060008201518160000190805190602001906100a89291906100cc565b5060208201518160010190805190602001906100c59291906100cc565b5050505050565b8280546100d8906102bc565b90600052602060002090601f0160209004810192826100fa5760008555610141565b82601f1061011357805160ff1916838001178555610141565b82800160010185558215610141579182015b82811115610140578251825591602001919060010190610125565b5b50905061014e9190610152565b5090565b5b8082111561016b576000816000905550600101610153565b5090565b600061018261017d8461027c565b610257565b90508281526020810184848401111561019e5761019d610382565b5b6101a98482856102ad565b509392505050565b600082601f8301126101c6576101c561037d565b5b81356101d684826020860161016f565b91505092915050565b600080604083850312156101f6576101f561038c565b5b600083013567ffffffffffffffff81111561021457610213610387565b5b610220858286016101b1565b925050602083013567ffffffffffffffff81111561024157610240610387565b5b61024d858286016101b1565b9150509250929050565b6000610261610272565b905061026d82826102ee565b919050565b6000604051905090565b600067ffffffffffffffff8211156102975761029661034e565b5b6102a082610391565b9050602081019050919050565b82818337600083830152505050565b600060028204905060018216806102d457607f821691505b602082108114156102e8576102e761031f565b5b50919050565b6102f782610391565b810181811067ffffffffffffffff821117156103165761031561034e565b5b80604052505050565b7f4e487b7100000000000000000000000000000000000000000000000000000000600052602260045260246000fd5b7f4e487b7100000000000000000000000000000000000000000000000000000000600052604160045260246000fd5b600080fd5b600080fd5b600080fd5b600080fd5b6000601f19601f830116905091905056fea2646970667358221220a984e11bb765e743badb96243e91788fbb056af072d175975704239cc5da3d8f64736f6c63430008070033",
					"opcodes": "PUSH1 0x80 PUSH1 0x40 MSTORE CALLVALUE DUP1 ISZERO PUSH2 0x10 JUMPI PUSH1 0x0 DUP1 REVERT JUMPDEST POP PUSH2 0x3D8 DUP1 PUSH2 0x20 PUSH1 0x0 CODECOPY PUSH1 0x0 RETURN INVALID PUSH1 0x80 PUSH1 0x40 MSTORE CALLVALUE DUP1 ISZERO PUSH2 0x10 JUMPI PUSH1 0x0 DUP1 REVERT JUMPDEST POP PUSH1 0x4 CALLDATASIZE LT PUSH2 0x2B JUMPI PUSH1 0x0 CALLDATALOAD PUSH1 0xE0 SHR DUP1 PUSH4 0x73A4E4C3 EQ PUSH2 0x30 JUMPI JUMPDEST PUSH1 0x0 DUP1 REVERT JUMPDEST PUSH2 0x4A PUSH1 0x4 DUP1 CALLDATASIZE SUB DUP2 ADD SWAP1 PUSH2 0x45 SWAP2 SWAP1 PUSH2 0x1DF JUMP JUMPDEST PUSH2 0x4C JUMP JUMPDEST STOP JUMPDEST PUSH1 0x0 PUSH1 0x40 MLOAD DUP1 PUSH1 0x40 ADD PUSH1 0x40 MSTORE DUP1 DUP5 DUP2 MSTORE PUSH1 0x20 ADD DUP4 DUP2 MSTORE POP SWAP1 DUP1 PUSH1 0x1 DUP2 SLOAD ADD DUP1 DUP3 SSTORE DUP1 SWAP2 POP POP PUSH1 0x1 SWAP1 SUB SWAP1 PUSH1 0x0 MSTORE PUSH1 0x20 PUSH1 0x0 KECCAK256 SWAP1 PUSH1 0x2 MUL ADD PUSH1 0x0 SWAP1 SWAP2 SWAP1 SWAP2 SWAP1 SWAP2 POP PUSH1 0x0 DUP3 ADD MLOAD DUP2 PUSH1 0x0 ADD SWAP1 DUP1 MLOAD SWAP1 PUSH1 0x20 ADD SWAP1 PUSH2 0xA8 SWAP3 SWAP2 SWAP1 PUSH2 0xCC JUMP JUMPDEST POP PUSH1 0x20 DUP3 ADD MLOAD DUP2 PUSH1 0x1 ADD SWAP1 DUP1 MLOAD SWAP1 PUSH1 0x20 ADD SWAP1 PUSH2 0xC5 SWAP3 SWAP2 SWAP1 PUSH2 0xCC JUMP JUMPDEST POP POP POP POP POP JUMP JUMPDEST DUP3 DUP1 SLOAD PUSH2 0xD8 SWAP1 PUSH2 0x2BC JUMP JUMPDEST SWAP1 PUSH1 0x0 MSTORE PUSH1 0x20 PUSH1 0x0 KECCAK256 SWAP1 PUSH1 0x1F ADD PUSH1 0x20 SWAP1 DIV DUP2 ADD SWAP3 DUP3 PUSH2 0xFA JUMPI PUSH1 0x0 DUP6 SSTORE PUSH2 0x141 JUMP JUMPDEST DUP3 PUSH1 0x1F LT PUSH2 0x113 JUMPI DUP1 MLOAD PUSH1 0xFF NOT AND DUP4 DUP1 ADD OR DUP6 SSTORE PUSH2 0x141 JUMP JUMPDEST DUP3 DUP1 ADD PUSH1 0x1 ADD DUP6 SSTORE DUP3 ISZERO PUSH2 0x141 JUMPI SWAP2 DUP3 ADD JUMPDEST DUP3 DUP2 GT ISZERO PUSH2 0x140 JUMPI DUP3 MLOAD DUP3 SSTORE SWAP2 PUSH1 0x20 ADD SWAP2 SWAP1 PUSH1 0x1 ADD SWAP1 PUSH2 0x125 JUMP JUMPDEST JUMPDEST POP SWAP1 POP PUSH2 0x14E SWAP2 SWAP1 PUSH2 0x152 JUMP JUMPDEST POP SWAP1 JUMP JUMPDEST JUMPDEST DUP1 DUP3 GT ISZERO PUSH2 0x16B JUMPI PUSH1 0x0 DUP2 PUSH1 0x0 SWAP1 SSTORE POP PUSH1 0x1 ADD PUSH2 0x153 JUMP JUMPDEST POP SWAP1 JUMP JUMPDEST PUSH1 0x0 PUSH2 0x182 PUSH2 0x17D DUP5 PUSH2 0x27C JUMP JUMPDEST PUSH2 0x257 JUMP JUMPDEST SWAP1 POP DUP3 DUP2 MSTORE PUSH1 0x20 DUP2 ADD DUP5 DUP5 DUP5 ADD GT ISZERO PUSH2 0x19E JUMPI PUSH2 0x19D PUSH2 0x382 JUMP JUMPDEST JUMPDEST PUSH2 0x1A9 DUP5 DUP3 DUP6 PUSH2 0x2AD JUMP JUMPDEST POP SWAP4 SWAP3 POP POP POP JUMP JUMPDEST PUSH1 0x0 DUP3 PUSH1 0x1F DUP4 ADD SLT PUSH2 0x1C6 JUMPI PUSH2 0x1C5 PUSH2 0x37D JUMP JUMPDEST JUMPDEST DUP2 CALLDATALOAD PUSH2 0x1D6 DUP5 DUP3 PUSH1 0x20 DUP7 ADD PUSH2 0x16F JUMP JUMPDEST SWAP2 POP POP SWAP3 SWAP2 POP POP JUMP JUMPDEST PUSH1 0x0 DUP1 PUSH1 0x40 DUP4 DUP6 SUB SLT ISZERO PUSH2 0x1F6 JUMPI PUSH2 0x1F5 PUSH2 0x38C JUMP JUMPDEST JUMPDEST PUSH1 0x0 DUP4 ADD CALLDATALOAD PUSH8 0xFFFFFFFFFFFFFFFF DUP2 GT ISZERO PUSH2 0x214 JUMPI PUSH2 0x213 PUSH2 0x387 JUMP JUMPDEST JUMPDEST PUSH2 0x220 DUP6 DUP3 DUP7 ADD PUSH2 0x1B1 JUMP JUMPDEST SWAP3 POP POP PUSH1 0x20 DUP4 ADD CALLDATALOAD PUSH8 0xFFFFFFFFFFFFFFFF DUP2 GT ISZERO PUSH2 0x241 JUMPI PUSH2 0x240 PUSH2 0x387 JUMP JUMPDEST JUMPDEST PUSH2 0x24D DUP6 DUP3 DUP7 ADD PUSH2 0x1B1 JUMP JUMPDEST SWAP2 POP POP SWAP3 POP SWAP3 SWAP1 POP JUMP JUMPDEST PUSH1 0x0 PUSH2 0x261 PUSH2 0x272 JUMP JUMPDEST SWAP1 POP PUSH2 0x26D DUP3 DUP3 PUSH2 0x2EE JUMP JUMPDEST SWAP2 SWAP1 POP JUMP JUMPDEST PUSH1 0x0 PUSH1 0x40 MLOAD SWAP1 POP SWAP1 JUMP JUMPDEST PUSH1 0x0 PUSH8 0xFFFFFFFFFFFFFFFF DUP3 GT ISZERO PUSH2 0x297 JUMPI PUSH2 0x296 PUSH2 0x34E JUMP JUMPDEST JUMPDEST PUSH2 0x2A0 DUP3 PUSH2 0x391 JUMP JUMPDEST SWAP1 POP PUSH1 0x20 DUP2 ADD SWAP1 POP SWAP2 SWAP1 POP JUMP JUMPDEST DUP3 DUP2 DUP4 CALLDATACOPY PUSH1 0x0 DUP4 DUP4 ADD MSTORE POP POP POP JUMP JUMPDEST PUSH1 0x0 PUSH1 0x2 DUP3 DIV SWAP1 POP PUSH1 0x1 DUP3 AND DUP1 PUSH2 0x2D4 JUMPI PUSH1 0x7F DUP3 AND SWAP2 POP JUMPDEST PUSH1 0x20 DUP3 LT DUP2 EQ ISZERO PUSH2 0x2E8 JUMPI PUSH2 0x2E7 PUSH2 0x31F JUMP JUMPDEST JUMPDEST POP SWAP2 SWAP1 POP JUMP JUMPDEST PUSH2 0x2F7 DUP3 PUSH2 0x391 JUMP JUMPDEST DUP2 ADD DUP2 DUP2 LT PUSH8 0xFFFFFFFFFFFFFFFF DUP3 GT OR ISZERO PUSH2 0x316 JUMPI PUSH2 0x315 PUSH2 0x34E JUMP JUMPDEST JUMPDEST DUP1 PUSH1 0x40 MSTORE POP POP POP JUMP JUMPDEST PUSH32 0x4E487B7100000000000000000000000000000000000000000000000000000000 PUSH1 0x0 MSTORE PUSH1 0x22 PUSH1 0x4 MSTORE PUSH1 0x24 PUSH1 0x0 REVERT JUMPDEST PUSH32 0x4E487B7100000000000000000000000000000000000000000000000000000000 PUSH1 0x0 MSTORE PUSH1 0x41 PUSH1 0x4 MSTORE PUSH1 0x24 PUSH1 0x0 REVERT JUMPDEST PUSH1 0x0 DUP1 REVERT JUMPDEST PUSH1 0x0 DUP1 REVERT JUMPDEST PUSH1 0x0 DUP1 REVERT JUMPDEST PUSH1 0x0 DUP1 REVERT JUMPDEST PUSH1 0x0 PUSH1 0x1F NOT PUSH1 0x1F DUP4 ADD AND SWAP1 POP SWAP2 SWAP1 POP JUMP INVALID LOG2 PUSH5 0x6970667358 0x22 SLT KECCAK256 0xA9 DUP5 0xE1 SHL 0xB7 PUSH6 0xE743BADB9624 RETURNDATACOPY SWAP2 PUSH25 0x8FBB056AF072D175975704239CC5DA3D8F64736F6C63430008 SMOD STOP CALLER "
				},
				"gasEstimates": {
					"creation": {
						"codeDepositCost": "196800",
						"executionCost": "238",
						"totalCost": "197038"
					},
					"external": {
						"reg(string,string)": "infinite"
					}
				},
				"methodIdentifiers": {
					"reg(string,string)": "73a4e4c3"
				}
			},
			"storageLayout": {
				"storage": [
					{
						"astId": 10,
						"contract": "login.sol:Login",
						"label": "userList",
						"offset": 0,
						"slot": "0",
						"type": "t_array(t_struct(User)6_storage)dyn_storage"
					}
				],
				"types": {
					"t_array(t_struct(User)6_storage)dyn_storage": {
						"base": "t_struct(User)6_storage",
						"encoding": "dynamic_array",
						"label": "struct Login.User[]",
						"numberOfBytes": "32"
					},
					"t_string_storage": {
						"encoding": "bytes",
						"label": "string",
						"numberOfBytes": "32"
					},
					"t_struct(User)6_storage": {
						"encoding": "inplace",
						"label": "struct Login.User",
						"members": [
							{
								"astId": 3,
								"contract": "login.sol:Login",
								"label": "name",
								"offset": 0,
								"slot": "0",
								"type": "t_string_storage"
							},
							{
								"astId": 5,
								"contract": "login.sol:Login",
								"label": "password",
								"offset": 0,
								"slot": "1",
								"type": "t_string_storage"
							}
						],
						"numberOfBytes": "64"
					}
				}
			},
			"userdoc": {
				"kind": "user",
				"methods": {},
				"version": 1
			}
		}
	}
}