{
	"extends.sol": {
		"Person": {
			"abi": [
				{
					"inputs": [
						{
							"internalType": "string",
							"name": "_user",
							"type": "string"
						},
						{
							"internalType": "uint8",
							"name": "_age",
							"type": "uint8"
						}
					],
					"stateMutability": "nonpayable",
					"type": "constructor"
				},
				{
					"inputs": [],
					"name": "age",
					"outputs": [
						{
							"internalType": "uint8",
							"name": "",
							"type": "uint8"
						}
					],
					"stateMutability": "view",
					"type": "function"
				},
				{
					"inputs": [
						{
							"internalType": "uint8",
							"name": "_age",
							"type": "uint8"
						}
					],
					"name": "setAge",
					"outputs": [],
					"stateMutability": "nonpayable",
					"type": "function"
				},
				{
					"inputs": [
						{
							"internalType": "string",
							"name": "_user",
							"type": "string"
						}
					],
					"name": "setUser",
					"outputs": [],
					"stateMutability": "nonpayable",
					"type": "function"
				},
				{
					"inputs": [],
					"name": "user",
					"outputs": [
						{
							"internalType": "string",
							"name": "",
							"type": "string"
						}
					],
					"stateMutability": "view",
					"type": "function"
				}
			],
			"devdoc": {
				"kind": "dev",
				"methods": {},
				"version": 1
			},
			"evm": {
				"assembly": "    /* \"extends.sol\":61:393  contract Person {\r... */\n  mstore(0x40, 0x80)\n    /* \"extends.sol\":134:230  constructor(string memory _user,uint8 _age) {\r... */\n  callvalue\n  dup1\n  iszero\n  tag_1\n  jumpi\n  0x00\n  dup1\n  revert\ntag_1:\n  pop\n  mload(0x40)\n  sub(codesize, bytecodeSize)\n  dup1\n  bytecodeSize\n  dup4\n  codecopy\n  dup2\n  dup2\n  add\n  0x40\n  mstore\n  dup2\n  add\n  swap1\n  tag_2\n  swap2\n  swap1\n  tag_3\n  jump\t// in\ntag_2:\n    /* \"extends.sol\":196:201  _user */\n  dup2\n    /* \"extends.sol\":189:193  user */\n  0x00\n    /* \"extends.sol\":189:201  user = _user */\n  swap1\n  dup1\n  mload\n  swap1\n  0x20\n  add\n  swap1\n  tag_6\n  swap3\n  swap2\n  swap1\n  tag_7\n  jump\t// in\ntag_6:\n  pop\n    /* \"extends.sol\":218:222  _age */\n  dup1\n    /* \"extends.sol\":212:215  age */\n  0x01\n  0x00\n    /* \"extends.sol\":212:222  age = _age */\n  0x0100\n  exp\n  dup2\n  sload\n  dup2\n  0xff\n  mul\n  not\n  and\n  swap1\n  dup4\n  0xff\n  and\n  mul\n  or\n  swap1\n  sstore\n  pop\n    /* \"extends.sol\":134:230  constructor(string memory _user,uint8 _age) {\r... */\n  pop\n  pop\n    /* \"extends.sol\":61:393  contract Person {\r... */\n  jump(tag_8)\ntag_7:\n  dup3\n  dup1\n  sload\n  tag_9\n  swap1\n  tag_10\n  jump\t// in\ntag_9:\n  swap1\n  0x00\n  mstore\n  keccak256(0x00, 0x20)\n  swap1\n  0x1f\n  add\n  0x20\n  swap1\n  div\n  dup2\n  add\n  swap3\n  dup3\n  tag_12\n  jumpi\n  0x00\n  dup6\n  sstore\n  jump(tag_11)\ntag_12:\n  dup3\n  0x1f\n  lt\n  tag_13\n  jumpi\n  dup1\n  mload\n  not(0xff)\n  and\n  dup4\n  dup1\n  add\n  or\n  dup6\n  sstore\n  jump(tag_11)\ntag_13:\n  dup3\n  dup1\n  add\n  0x01\n  add\n  dup6\n  sstore\n  dup3\n  iszero\n  tag_11\n  jumpi\n  swap2\n  dup3\n  add\ntag_14:\n  dup3\n  dup2\n  gt\n  iszero\n  tag_15\n  jumpi\n  dup3\n  mload\n  dup3\n  sstore\n  swap2\n  0x20\n  add\n  swap2\n  swap1\n  0x01\n  add\n  swap1\n  jump(tag_14)\ntag_15:\ntag_11:\n  pop\n  swap1\n  pop\n  tag_16\n  swap2\n  swap1\n  tag_17\n  jump\t// in\ntag_16:\n  pop\n  swap1\n  jump\t// out\ntag_17:\ntag_18:\n  dup1\n  dup3\n  gt\n  iszero\n  tag_19\n  jumpi\n  0x00\n  dup2\n  0x00\n  swap1\n  sstore\n  pop\n  0x01\n  add\n  jump(tag_18)\ntag_19:\n  pop\n  swap1\n  jump\t// out\n    /* \"#utility.yul\":7:428   */\ntag_21:\n    /* \"#utility.yul\":96:101   */\n  0x00\n    /* \"#utility.yul\":121:187   */\n  tag_23\n    /* \"#utility.yul\":137:186   */\n  tag_24\n    /* \"#utility.yul\":179:185   */\n  dup5\n    /* \"#utility.yul\":137:186   */\n  tag_25\n  jump\t// in\ntag_24:\n    /* \"#utility.yul\":121:187   */\n  tag_26\n  jump\t// in\ntag_23:\n    /* \"#utility.yul\":112:187   */\n  swap1\n  pop\n    /* \"#utility.yul\":210:216   */\n  dup3\n    /* \"#utility.yul\":203:208   */\n  dup2\n    /* \"#utility.yul\":196:217   */\n  mstore\n    /* \"#utility.yul\":248:252   */\n  0x20\n    /* \"#utility.yul\":241:246   */\n  dup2\n    /* \"#utility.yul\":237:253   */\n  add\n    /* \"#utility.yul\":286:289   */\n  dup5\n    /* \"#utility.yul\":277:283   */\n  dup5\n    /* \"#utility.yul\":272:275   */\n  dup5\n    /* \"#utility.yul\":268:284   */\n  add\n    /* \"#utility.yul\":265:290   */\n  gt\n    /* \"#utility.yul\":262:374   */\n  iszero\n  tag_27\n  jumpi\n    /* \"#utility.yul\":293:372   */\n  tag_28\n  tag_29\n  jump\t// in\ntag_28:\n    /* \"#utility.yul\":262:374   */\ntag_27:\n    /* \"#utility.yul\":383:422   */\n  tag_30\n    /* \"#utility.yul\":415:421   */\n  dup5\n    /* \"#utility.yul\":410:413   */\n  dup3\n    /* \"#utility.yul\":405:408   */\n  dup6\n    /* \"#utility.yul\":383:422   */\n  tag_31\n  jump\t// in\ntag_30:\n    /* \"#utility.yul\":102:428   */\n  pop\n    /* \"#utility.yul\":7:428   */\n  swap4\n  swap3\n  pop\n  pop\n  pop\n  jump\t// out\n    /* \"#utility.yul\":448:803   */\ntag_32:\n    /* \"#utility.yul\":515:520   */\n  0x00\n    /* \"#utility.yul\":564:567   */\n  dup3\n    /* \"#utility.yul\":557:561   */\n  0x1f\n    /* \"#utility.yul\":549:555   */\n  dup4\n    /* \"#utility.yul\":545:562   */\n  add\n    /* \"#utility.yul\":541:568   */\n  slt\n    /* \"#utility.yul\":531:653   */\n  tag_34\n  jumpi\n    /* \"#utility.yul\":572:651   */\n  tag_35\n  tag_36\n  jump\t// in\ntag_35:\n    /* \"#utility.yul\":531:653   */\ntag_34:\n    /* \"#utility.yul\":682:688   */\n  dup2\n    /* \"#utility.yul\":676:689   */\n  mload\n    /* \"#utility.yul\":707:797   */\n  tag_37\n    /* \"#utility.yul\":793:796   */\n  dup5\n    /* \"#utility.yul\":785:791   */\n  dup3\n    /* \"#utility.yul\":778:782   */\n  0x20\n    /* \"#utility.yul\":770:776   */\n  dup7\n    /* \"#utility.yul\":766:783   */\n  add\n    /* \"#utility.yul\":707:797   */\n  tag_21\n  jump\t// in\ntag_37:\n    /* \"#utility.yul\":698:797   */\n  swap2\n  pop\n    /* \"#utility.yul\":521:803   */\n  pop\n    /* \"#utility.yul\":448:803   */\n  swap3\n  swap2\n  pop\n  pop\n  jump\t// out\n    /* \"#utility.yul\":809:948   */\ntag_38:\n    /* \"#utility.yul\":864:869   */\n  0x00\n    /* \"#utility.yul\":895:901   */\n  dup2\n    /* \"#utility.yul\":889:902   */\n  mload\n    /* \"#utility.yul\":880:902   */\n  swap1\n  pop\n    /* \"#utility.yul\":911:942   */\n  tag_40\n    /* \"#utility.yul\":936:941   */\n  dup2\n    /* \"#utility.yul\":911:942   */\n  tag_41\n  jump\t// in\ntag_40:\n    /* \"#utility.yul\":809:948   */\n  swap3\n  swap2\n  pop\n  pop\n  jump\t// out\n    /* \"#utility.yul\":954:1630   */\ntag_3:\n    /* \"#utility.yul\":1041:1047   */\n  0x00\n    /* \"#utility.yul\":1049:1055   */\n  dup1\n    /* \"#utility.yul\":1098:1100   */\n  0x40\n    /* \"#utility.yul\":1086:1095   */\n  dup4\n    /* \"#utility.yul\":1077:1084   */\n  dup6\n    /* \"#utility.yul\":1073:1096   */\n  sub\n    /* \"#utility.yul\":1069:1101   */\n  slt\n    /* \"#utility.yul\":1066:1185   */\n  iszero\n  tag_43\n  jumpi\n    /* \"#utility.yul\":1104:1183   */\n  tag_44\n  tag_45\n  jump\t// in\ntag_44:\n    /* \"#utility.yul\":1066:1185   */\ntag_43:\n    /* \"#utility.yul\":1245:1246   */\n  0x00\n    /* \"#utility.yul\":1234:1243   */\n  dup4\n    /* \"#utility.yul\":1230:1247   */\n  add\n    /* \"#utility.yul\":1224:1248   */\n  mload\n    /* \"#utility.yul\":1275:1293   */\n  0xffffffffffffffff\n    /* \"#utility.yul\":1267:1273   */\n  dup2\n    /* \"#utility.yul\":1264:1294   */\n  gt\n    /* \"#utility.yul\":1261:1378   */\n  iszero\n  tag_46\n  jumpi\n    /* \"#utility.yul\":1297:1376   */\n  tag_47\n  tag_48\n  jump\t// in\ntag_47:\n    /* \"#utility.yul\":1261:1378   */\ntag_46:\n    /* \"#utility.yul\":1402:1476   */\n  tag_49\n    /* \"#utility.yul\":1468:1475   */\n  dup6\n    /* \"#utility.yul\":1459:1465   */\n  dup3\n    /* \"#utility.yul\":1448:1457   */\n  dup7\n    /* \"#utility.yul\":1444:1466   */\n  add\n    /* \"#utility.yul\":1402:1476   */\n  tag_32\n  jump\t// in\ntag_49:\n    /* \"#utility.yul\":1392:1476   */\n  swap3\n  pop\n    /* \"#utility.yul\":1195:1486   */\n  pop\n    /* \"#utility.yul\":1525:1527   */\n  0x20\n    /* \"#utility.yul\":1551:1613   */\n  tag_50\n    /* \"#utility.yul\":1605:1612   */\n  dup6\n    /* \"#utility.yul\":1596:1602   */\n  dup3\n    /* \"#utility.yul\":1585:1594   */\n  dup7\n    /* \"#utility.yul\":1581:1603   */\n  add\n    /* \"#utility.yul\":1551:1613   */\n  tag_38\n  jump\t// in\ntag_50:\n    /* \"#utility.yul\":1541:1613   */\n  swap2\n  pop\n    /* \"#utility.yul\":1496:1623   */\n  pop\n    /* \"#utility.yul\":954:1630   */\n  swap3\n  pop\n  swap3\n  swap1\n  pop\n  jump\t// out\n    /* \"#utility.yul\":1636:1765   */\ntag_26:\n    /* \"#utility.yul\":1670:1676   */\n  0x00\n    /* \"#utility.yul\":1697:1717   */\n  tag_52\n  tag_53\n  jump\t// in\ntag_52:\n    /* \"#utility.yul\":1687:1717   */\n  swap1\n  pop\n    /* \"#utility.yul\":1726:1759   */\n  tag_54\n    /* \"#utility.yul\":1754:1758   */\n  dup3\n    /* \"#utility.yul\":1746:1752   */\n  dup3\n    /* \"#utility.yul\":1726:1759   */\n  tag_55\n  jump\t// in\ntag_54:\n    /* \"#utility.yul\":1636:1765   */\n  swap2\n  swap1\n  pop\n  jump\t// out\n    /* \"#utility.yul\":1771:1846   */\ntag_53:\n    /* \"#utility.yul\":1804:1810   */\n  0x00\n    /* \"#utility.yul\":1837:1839   */\n  0x40\n    /* \"#utility.yul\":1831:1840   */\n  mload\n    /* \"#utility.yul\":1821:1840   */\n  swap1\n  pop\n    /* \"#utility.yul\":1771:1846   */\n  swap1\n  jump\t// out\n    /* \"#utility.yul\":1852:2160   */\ntag_25:\n    /* \"#utility.yul\":1914:1918   */\n  0x00\n    /* \"#utility.yul\":2004:2022   */\n  0xffffffffffffffff\n    /* \"#utility.yul\":1996:2002   */\n  dup3\n    /* \"#utility.yul\":1993:2023   */\n  gt\n    /* \"#utility.yul\":1990:2046   */\n  iszero\n  tag_58\n  jumpi\n    /* \"#utility.yul\":2026:2044   */\n  tag_59\n  tag_60\n  jump\t// in\ntag_59:\n    /* \"#utility.yul\":1990:2046   */\ntag_58:\n    /* \"#utility.yul\":2064:2093   */\n  tag_61\n    /* \"#utility.yul\":2086:2092   */\n  dup3\n    /* \"#utility.yul\":2064:2093   */\n  tag_62\n  jump\t// in\ntag_61:\n    /* \"#utility.yul\":2056:2093   */\n  swap1\n  pop\n    /* \"#utility.yul\":2148:2152   */\n  0x20\n    /* \"#utility.yul\":2142:2146   */\n  dup2\n    /* \"#utility.yul\":2138:2153   */\n  add\n    /* \"#utility.yul\":2130:2153   */\n  swap1\n  pop\n    /* \"#utility.yul\":1852:2160   */\n  swap2\n  swap1\n  pop\n  jump\t// out\n    /* \"#utility.yul\":2166:2252   */\ntag_63:\n    /* \"#utility.yul\":2201:2208   */\n  0x00\n    /* \"#utility.yul\":2241:2245   */\n  0xff\n    /* \"#utility.yul\":2234:2239   */\n  dup3\n    /* \"#utility.yul\":2230:2246   */\n  and\n    /* \"#utility.yul\":2219:2246   */\n  swap1\n  pop\n    /* \"#utility.yul\":2166:2252   */\n  swap2\n  swap1\n  pop\n  jump\t// out\n    /* \"#utility.yul\":2258:2565   */\ntag_31:\n    /* \"#utility.yul\":2326:2327   */\n  0x00\n    /* \"#utility.yul\":2336:2449   */\ntag_66:\n    /* \"#utility.yul\":2350:2356   */\n  dup4\n    /* \"#utility.yul\":2347:2348   */\n  dup2\n    /* \"#utility.yul\":2344:2357   */\n  lt\n    /* \"#utility.yul\":2336:2449   */\n  iszero\n  tag_68\n  jumpi\n    /* \"#utility.yul\":2435:2436   */\n  dup1\n    /* \"#utility.yul\":2430:2433   */\n  dup3\n    /* \"#utility.yul\":2426:2437   */\n  add\n    /* \"#utility.yul\":2420:2438   */\n  mload\n    /* \"#utility.yul\":2416:2417   */\n  dup2\n    /* \"#utility.yul\":2411:2414   */\n  dup5\n    /* \"#utility.yul\":2407:2418   */\n  add\n    /* \"#utility.yul\":2400:2439   */\n  mstore\n    /* \"#utility.yul\":2372:2374   */\n  0x20\n    /* \"#utility.yul\":2369:2370   */\n  dup2\n    /* \"#utility.yul\":2365:2375   */\n  add\n    /* \"#utility.yul\":2360:2375   */\n  swap1\n  pop\n    /* \"#utility.yul\":2336:2449   */\n  jump(tag_66)\ntag_68:\n    /* \"#utility.yul\":2467:2473   */\n  dup4\n    /* \"#utility.yul\":2464:2465   */\n  dup2\n    /* \"#utility.yul\":2461:2474   */\n  gt\n    /* \"#utility.yul\":2458:2559   */\n  iszero\n  tag_69\n  jumpi\n    /* \"#utility.yul\":2547:2548   */\n  0x00\n    /* \"#utility.yul\":2538:2544   */\n  dup5\n    /* \"#utility.yul\":2533:2536   */\n  dup5\n    /* \"#utility.yul\":2529:2545   */\n  add\n    /* \"#utility.yul\":2522:2549   */\n  mstore\n    /* \"#utility.yul\":2458:2559   */\ntag_69:\n    /* \"#utility.yul\":2307:2565   */\n  pop\n    /* \"#utility.yul\":2258:2565   */\n  pop\n  pop\n  pop\n  jump\t// out\n    /* \"#utility.yul\":2571:2891   */\ntag_10:\n    /* \"#utility.yul\":2615:2621   */\n  0x00\n    /* \"#utility.yul\":2652:2653   */\n  0x02\n    /* \"#utility.yul\":2646:2650   */\n  dup3\n    /* \"#utility.yul\":2642:2654   */\n  div\n    /* \"#utility.yul\":2632:2654   */\n  swap1\n  pop\n    /* \"#utility.yul\":2699:2700   */\n  0x01\n    /* \"#utility.yul\":2693:2697   */\n  dup3\n    /* \"#utility.yul\":2689:2701   */\n  and\n    /* \"#utility.yul\":2720:2738   */\n  dup1\n    /* \"#utility.yul\":2710:2791   */\n  tag_71\n  jumpi\n    /* \"#utility.yul\":2776:2780   */\n  0x7f\n    /* \"#utility.yul\":2768:2774   */\n  dup3\n    /* \"#utility.yul\":2764:2781   */\n  and\n    /* \"#utility.yul\":2754:2781   */\n  swap2\n  pop\n    /* \"#utility.yul\":2710:2791   */\ntag_71:\n    /* \"#utility.yul\":2838:2840   */\n  0x20\n    /* \"#utility.yul\":2830:2836   */\n  dup3\n    /* \"#utility.yul\":2827:2841   */\n  lt\n    /* \"#utility.yul\":2807:2825   */\n  dup2\n    /* \"#utility.yul\":2804:2842   */\n  eq\n    /* \"#utility.yul\":2801:2885   */\n  iszero\n  tag_72\n  jumpi\n    /* \"#utility.yul\":2857:2875   */\n  tag_73\n  tag_74\n  jump\t// in\ntag_73:\n    /* \"#utility.yul\":2801:2885   */\ntag_72:\n    /* \"#utility.yul\":2622:2891   */\n  pop\n    /* \"#utility.yul\":2571:2891   */\n  swap2\n  swap1\n  pop\n  jump\t// out\n    /* \"#utility.yul\":2897:3178   */\ntag_55:\n    /* \"#utility.yul\":2980:3007   */\n  tag_76\n    /* \"#utility.yul\":3002:3006   */\n  dup3\n    /* \"#utility.yul\":2980:3007   */\n  tag_62\n  jump\t// in\ntag_76:\n    /* \"#utility.yul\":2972:2978   */\n  dup2\n    /* \"#utility.yul\":2968:3008   */\n  add\n    /* \"#utility.yul\":3110:3116   */\n  dup2\n    /* \"#utility.yul\":3098:3108   */\n  dup2\n    /* \"#utility.yul\":3095:3117   */\n  lt\n    /* \"#utility.yul\":3074:3092   */\n  0xffffffffffffffff\n    /* \"#utility.yul\":3062:3072   */\n  dup3\n    /* \"#utility.yul\":3059:3093   */\n  gt\n    /* \"#utility.yul\":3056:3118   */\n  or\n    /* \"#utility.yul\":3053:3141   */\n  iszero\n  tag_77\n  jumpi\n    /* \"#utility.yul\":3121:3139   */\n  tag_78\n  tag_60\n  jump\t// in\ntag_78:\n    /* \"#utility.yul\":3053:3141   */\ntag_77:\n    /* \"#utility.yul\":3161:3171   */\n  dup1\n    /* \"#utility.yul\":3157:3159   */\n  0x40\n    /* \"#utility.yul\":3150:3172   */\n  mstore\n    /* \"#utility.yul\":2940:3178   */\n  pop\n    /* \"#utility.yul\":2897:3178   */\n  pop\n  pop\n  jump\t// out\n    /* \"#utility.yul\":3184:3364   */\ntag_74:\n    /* \"#utility.yul\":3232:3309   */\n  0x4e487b7100000000000000000000000000000000000000000000000000000000\n    /* \"#utility.yul\":3229:3230   */\n  0x00\n    /* \"#utility.yul\":3222:3310   */\n  mstore\n    /* \"#utility.yul\":3329:3333   */\n  0x22\n    /* \"#utility.yul\":3326:3327   */\n  0x04\n    /* \"#utility.yul\":3319:3334   */\n  mstore\n    /* \"#utility.yul\":3353:3357   */\n  0x24\n    /* \"#utility.yul\":3350:3351   */\n  0x00\n    /* \"#utility.yul\":3343:3358   */\n  revert\n    /* \"#utility.yul\":3370:3550   */\ntag_60:\n    /* \"#utility.yul\":3418:3495   */\n  0x4e487b7100000000000000000000000000000000000000000000000000000000\n    /* \"#utility.yul\":3415:3416   */\n  0x00\n    /* \"#utility.yul\":3408:3496   */\n  mstore\n    /* \"#utility.yul\":3515:3519   */\n  0x41\n    /* \"#utility.yul\":3512:3513   */\n  0x04\n    /* \"#utility.yul\":3505:3520   */\n  mstore\n    /* \"#utility.yul\":3539:3543   */\n  0x24\n    /* \"#utility.yul\":3536:3537   */\n  0x00\n    /* \"#utility.yul\":3529:3544   */\n  revert\n    /* \"#utility.yul\":3556:3673   */\ntag_36:\n    /* \"#utility.yul\":3665:3666   */\n  0x00\n    /* \"#utility.yul\":3662:3663   */\n  dup1\n    /* \"#utility.yul\":3655:3667   */\n  revert\n    /* \"#utility.yul\":3679:3796   */\ntag_29:\n    /* \"#utility.yul\":3788:3789   */\n  0x00\n    /* \"#utility.yul\":3785:3786   */\n  dup1\n    /* \"#utility.yul\":3778:3790   */\n  revert\n    /* \"#utility.yul\":3802:3919   */\ntag_48:\n    /* \"#utility.yul\":3911:3912   */\n  0x00\n    /* \"#utility.yul\":3908:3909   */\n  dup1\n    /* \"#utility.yul\":3901:3913   */\n  revert\n    /* \"#utility.yul\":3925:4042   */\ntag_45:\n    /* \"#utility.yul\":4034:4035   */\n  0x00\n    /* \"#utility.yul\":4031:4032   */\n  dup1\n    /* \"#utility.yul\":4024:4036   */\n  revert\n    /* \"#utility.yul\":4048:4150   */\ntag_62:\n    /* \"#utility.yul\":4089:4095   */\n  0x00\n    /* \"#utility.yul\":4140:4142   */\n  0x1f\n    /* \"#utility.yul\":4136:4143   */\n  not\n    /* \"#utility.yul\":4131:4133   */\n  0x1f\n    /* \"#utility.yul\":4124:4129   */\n  dup4\n    /* \"#utility.yul\":4120:4134   */\n  add\n    /* \"#utility.yul\":4116:4144   */\n  and\n    /* \"#utility.yul\":4106:4144   */\n  swap1\n  pop\n    /* \"#utility.yul\":4048:4150   */\n  swap2\n  swap1\n  pop\n  jump\t// out\n    /* \"#utility.yul\":4156:4274   */\ntag_41:\n    /* \"#utility.yul\":4227:4249   */\n  tag_87\n    /* \"#utility.yul\":4243:4248   */\n  dup2\n    /* \"#utility.yul\":4227:4249   */\n  tag_63\n  jump\t// in\ntag_87:\n    /* \"#utility.yul\":4220:4225   */\n  dup2\n    /* \"#utility.yul\":4217:4250   */\n  eq\n    /* \"#utility.yul\":4207:4268   */\n  tag_88\n  jumpi\n    /* \"#utility.yul\":4264:4265   */\n  0x00\n    /* \"#utility.yul\":4261:4262   */\n  dup1\n    /* \"#utility.yul\":4254:4266   */\n  revert\n    /* \"#utility.yul\":4207:4268   */\ntag_88:\n    /* \"#utility.yul\":4156:4274   */\n  pop\n  jump\t// out\n    /* \"extends.sol\":61:393  contract Person {\r... */\ntag_8:\n  dataSize(sub_0)\n  dup1\n  dataOffset(sub_0)\n  0x00\n  codecopy\n  0x00\n  return\nstop\n\nsub_0: assembly {\n        /* \"extends.sol\":61:393  contract Person {\r... */\n      mstore(0x40, 0x80)\n      callvalue\n      dup1\n      iszero\n      tag_1\n      jumpi\n      0x00\n      dup1\n      revert\n    tag_1:\n      pop\n      jumpi(tag_2, lt(calldatasize, 0x04))\n      shr(0xe0, calldataload(0x00))\n      dup1\n      0x262a9dff\n      eq\n      tag_3\n      jumpi\n      dup1\n      0x4f8632ba\n      eq\n      tag_4\n      jumpi\n      dup1\n      0x5b0c8d70\n      eq\n      tag_5\n      jumpi\n      dup1\n      0xd0020fad\n      eq\n      tag_6\n      jumpi\n    tag_2:\n      0x00\n      dup1\n      revert\n        /* \"extends.sol\":109:125  uint8 public age */\n    tag_3:\n      tag_7\n      tag_8\n      jump\t// in\n    tag_7:\n      mload(0x40)\n      tag_9\n      swap2\n      swap1\n      tag_10\n      jump\t// in\n    tag_9:\n      mload(0x40)\n      dup1\n      swap2\n      sub\n      swap1\n      return\n        /* \"extends.sol\":84:102  string public user */\n    tag_4:\n      tag_11\n      tag_12\n      jump\t// in\n    tag_11:\n      mload(0x40)\n      tag_13\n      swap2\n      swap1\n      tag_14\n      jump\t// in\n    tag_13:\n      mload(0x40)\n      dup1\n      swap2\n      sub\n      swap1\n      return\n        /* \"extends.sol\":326:390  function setAge(uint8 _age) public {\r... */\n    tag_5:\n      tag_15\n      0x04\n      dup1\n      calldatasize\n      sub\n      dup2\n      add\n      swap1\n      tag_16\n      swap2\n      swap1\n      tag_17\n      jump\t// in\n    tag_16:\n      tag_18\n      jump\t// in\n    tag_15:\n      stop\n        /* \"extends.sol\":238:314  function setUser(string memory _user) public {\r... */\n    tag_6:\n      tag_19\n      0x04\n      dup1\n      calldatasize\n      sub\n      dup2\n      add\n      swap1\n      tag_20\n      swap2\n      swap1\n      tag_21\n      jump\t// in\n    tag_20:\n      tag_22\n      jump\t// in\n    tag_19:\n      stop\n        /* \"extends.sol\":109:125  uint8 public age */\n    tag_8:\n      0x01\n      0x00\n      swap1\n      sload\n      swap1\n      0x0100\n      exp\n      swap1\n      div\n      0xff\n      and\n      dup2\n      jump\t// out\n        /* \"extends.sol\":84:102  string public user */\n    tag_12:\n      0x00\n      dup1\n      sload\n      tag_23\n      swap1\n      tag_24\n      jump\t// in\n    tag_23:\n      dup1\n      0x1f\n      add\n      0x20\n      dup1\n      swap2\n      div\n      mul\n      0x20\n      add\n      mload(0x40)\n      swap1\n      dup2\n      add\n      0x40\n      mstore\n      dup1\n      swap3\n      swap2\n      swap1\n      dup2\n      dup2\n      mstore\n      0x20\n      add\n      dup3\n      dup1\n      sload\n      tag_25\n      swap1\n      tag_24\n      jump\t// in\n    tag_25:\n      dup1\n      iszero\n      tag_26\n      jumpi\n      dup1\n      0x1f\n      lt\n      tag_27\n      jumpi\n      0x0100\n      dup1\n      dup4\n      sload\n      div\n      mul\n      dup4\n      mstore\n      swap2\n      0x20\n      add\n      swap2\n      jump(tag_26)\n    tag_27:\n      dup3\n      add\n      swap2\n      swap1\n      0x00\n      mstore\n      keccak256(0x00, 0x20)\n      swap1\n    tag_28:\n      dup2\n      sload\n      dup2\n      mstore\n      swap1\n      0x01\n      add\n      swap1\n      0x20\n      add\n      dup1\n      dup4\n      gt\n      tag_28\n      jumpi\n      dup3\n      swap1\n      sub\n      0x1f\n      and\n      dup3\n      add\n      swap2\n    tag_26:\n      pop\n      pop\n      pop\n      pop\n      pop\n      dup2\n      jump\t// out\n        /* \"extends.sol\":326:390  function setAge(uint8 _age) public {\r... */\n    tag_18:\n        /* \"extends.sol\":378:382  _age */\n      dup1\n        /* \"extends.sol\":372:375  age */\n      0x01\n      0x00\n        /* \"extends.sol\":372:382  age = _age */\n      0x0100\n      exp\n      dup2\n      sload\n      dup2\n      0xff\n      mul\n      not\n      and\n      swap1\n      dup4\n      0xff\n      and\n      mul\n      or\n      swap1\n      sstore\n      pop\n        /* \"extends.sol\":326:390  function setAge(uint8 _age) public {\r... */\n      pop\n      jump\t// out\n        /* \"extends.sol\":238:314  function setUser(string memory _user) public {\r... */\n    tag_22:\n        /* \"extends.sol\":301:306  _user */\n      dup1\n        /* \"extends.sol\":294:298  user */\n      0x00\n        /* \"extends.sol\":294:306  user = _user */\n      swap1\n      dup1\n      mload\n      swap1\n      0x20\n      add\n      swap1\n      tag_31\n      swap3\n      swap2\n      swap1\n      tag_32\n      jump\t// in\n    tag_31:\n      pop\n        /* \"extends.sol\":238:314  function setUser(string memory _user) public {\r... */\n      pop\n      jump\t// out\n    tag_32:\n      dup3\n      dup1\n      sload\n      tag_33\n      swap1\n      tag_24\n      jump\t// in\n    tag_33:\n      swap1\n      0x00\n      mstore\n      keccak256(0x00, 0x20)\n      swap1\n      0x1f\n      add\n      0x20\n      swap1\n      div\n      dup2\n      add\n      swap3\n      dup3\n      tag_35\n      jumpi\n      0x00\n      dup6\n      sstore\n      jump(tag_34)\n    tag_35:\n      dup3\n      0x1f\n      lt\n      tag_36\n      jumpi\n      dup1\n      mload\n      not(0xff)\n      and\n      dup4\n      dup1\n      add\n      or\n      dup6\n      sstore\n      jump(tag_34)\n    tag_36:\n      dup3\n      dup1\n      add\n      0x01\n      add\n      dup6\n      sstore\n      dup3\n      iszero\n      tag_34\n      jumpi\n      swap2\n      dup3\n      add\n    tag_37:\n      dup3\n      dup2\n      gt\n      iszero\n      tag_38\n      jumpi\n      dup3\n      mload\n      dup3\n      sstore\n      swap2\n      0x20\n      add\n      swap2\n      swap1\n      0x01\n      add\n      swap1\n      jump(tag_37)\n    tag_38:\n    tag_34:\n      pop\n      swap1\n      pop\n      tag_39\n      swap2\n      swap1\n      tag_40\n      jump\t// in\n    tag_39:\n      pop\n      swap1\n      jump\t// out\n    tag_40:\n    tag_41:\n      dup1\n      dup3\n      gt\n      iszero\n      tag_42\n      jumpi\n      0x00\n      dup2\n      0x00\n      swap1\n      sstore\n      pop\n      0x01\n      add\n      jump(tag_41)\n    tag_42:\n      pop\n      swap1\n      jump\t// out\n        /* \"#utility.yul\":7:419   */\n    tag_44:\n        /* \"#utility.yul\":85:90   */\n      0x00\n        /* \"#utility.yul\":110:176   */\n      tag_46\n        /* \"#utility.yul\":126:175   */\n      tag_47\n        /* \"#utility.yul\":168:174   */\n      dup5\n        /* \"#utility.yul\":126:175   */\n      tag_48\n      jump\t// in\n    tag_47:\n        /* \"#utility.yul\":110:176   */\n      tag_49\n      jump\t// in\n    tag_46:\n        /* \"#utility.yul\":101:176   */\n      swap1\n      pop\n        /* \"#utility.yul\":199:205   */\n      dup3\n        /* \"#utility.yul\":192:197   */\n      dup2\n        /* \"#utility.yul\":185:206   */\n      mstore\n        /* \"#utility.yul\":237:241   */\n      0x20\n        /* \"#utility.yul\":230:235   */\n      dup2\n        /* \"#utility.yul\":226:242   */\n      add\n        /* \"#utility.yul\":275:278   */\n      dup5\n        /* \"#utility.yul\":266:272   */\n      dup5\n        /* \"#utility.yul\":261:264   */\n      dup5\n        /* \"#utility.yul\":257:273   */\n      add\n        /* \"#utility.yul\":254:279   */\n      gt\n        /* \"#utility.yul\":251:363   */\n      iszero\n      tag_50\n      jumpi\n        /* \"#utility.yul\":282:361   */\n      tag_51\n      tag_52\n      jump\t// in\n    tag_51:\n        /* \"#utility.yul\":251:363   */\n    tag_50:\n        /* \"#utility.yul\":372:413   */\n      tag_53\n        /* \"#utility.yul\":406:412   */\n      dup5\n        /* \"#utility.yul\":401:404   */\n      dup3\n        /* \"#utility.yul\":396:399   */\n      dup6\n        /* \"#utility.yul\":372:413   */\n      tag_54\n      jump\t// in\n    tag_53:\n        /* \"#utility.yul\":91:419   */\n      pop\n        /* \"#utility.yul\":7:419   */\n      swap4\n      swap3\n      pop\n      pop\n      pop\n      jump\t// out\n        /* \"#utility.yul\":439:779   */\n    tag_55:\n        /* \"#utility.yul\":495:500   */\n      0x00\n        /* \"#utility.yul\":544:547   */\n      dup3\n        /* \"#utility.yul\":537:541   */\n      0x1f\n        /* \"#utility.yul\":529:535   */\n      dup4\n        /* \"#utility.yul\":525:542   */\n      add\n        /* \"#utility.yul\":521:548   */\n      slt\n        /* \"#utility.yul\":511:633   */\n      tag_57\n      jumpi\n        /* \"#utility.yul\":552:631   */\n      tag_58\n      tag_59\n      jump\t// in\n    tag_58:\n        /* \"#utility.yul\":511:633   */\n    tag_57:\n        /* \"#utility.yul\":669:675   */\n      dup2\n        /* \"#utility.yul\":656:676   */\n      calldataload\n        /* \"#utility.yul\":694:773   */\n      tag_60\n        /* \"#utility.yul\":769:772   */\n      dup5\n        /* \"#utility.yul\":761:767   */\n      dup3\n        /* \"#utility.yul\":754:758   */\n      0x20\n        /* \"#utility.yul\":746:752   */\n      dup7\n        /* \"#utility.yul\":742:759   */\n      add\n        /* \"#utility.yul\":694:773   */\n      tag_44\n      jump\t// in\n    tag_60:\n        /* \"#utility.yul\":685:773   */\n      swap2\n      pop\n        /* \"#utility.yul\":501:779   */\n      pop\n        /* \"#utility.yul\":439:779   */\n      swap3\n      swap2\n      pop\n      pop\n      jump\t// out\n        /* \"#utility.yul\":785:920   */\n    tag_61:\n        /* \"#utility.yul\":829:834   */\n      0x00\n        /* \"#utility.yul\":867:873   */\n      dup2\n        /* \"#utility.yul\":854:874   */\n      calldataload\n        /* \"#utility.yul\":845:874   */\n      swap1\n      pop\n        /* \"#utility.yul\":883:914   */\n      tag_63\n        /* \"#utility.yul\":908:913   */\n      dup2\n        /* \"#utility.yul\":883:914   */\n      tag_64\n      jump\t// in\n    tag_63:\n        /* \"#utility.yul\":785:920   */\n      swap3\n      swap2\n      pop\n      pop\n      jump\t// out\n        /* \"#utility.yul\":926:1435   */\n    tag_21:\n        /* \"#utility.yul\":995:1001   */\n      0x00\n        /* \"#utility.yul\":1044:1046   */\n      0x20\n        /* \"#utility.yul\":1032:1041   */\n      dup3\n        /* \"#utility.yul\":1023:1030   */\n      dup5\n        /* \"#utility.yul\":1019:1042   */\n      sub\n        /* \"#utility.yul\":1015:1047   */\n      slt\n        /* \"#utility.yul\":1012:1131   */\n      iszero\n      tag_66\n      jumpi\n        /* \"#utility.yul\":1050:1129   */\n      tag_67\n      tag_68\n      jump\t// in\n    tag_67:\n        /* \"#utility.yul\":1012:1131   */\n    tag_66:\n        /* \"#utility.yul\":1198:1199   */\n      0x00\n        /* \"#utility.yul\":1187:1196   */\n      dup3\n        /* \"#utility.yul\":1183:1200   */\n      add\n        /* \"#utility.yul\":1170:1201   */\n      calldataload\n        /* \"#utility.yul\":1228:1246   */\n      0xffffffffffffffff\n        /* \"#utility.yul\":1220:1226   */\n      dup2\n        /* \"#utility.yul\":1217:1247   */\n      gt\n        /* \"#utility.yul\":1214:1331   */\n      iszero\n      tag_69\n      jumpi\n        /* \"#utility.yul\":1250:1329   */\n      tag_70\n      tag_71\n      jump\t// in\n    tag_70:\n        /* \"#utility.yul\":1214:1331   */\n    tag_69:\n        /* \"#utility.yul\":1355:1418   */\n      tag_72\n        /* \"#utility.yul\":1410:1417   */\n      dup5\n        /* \"#utility.yul\":1401:1407   */\n      dup3\n        /* \"#utility.yul\":1390:1399   */\n      dup6\n        /* \"#utility.yul\":1386:1408   */\n      add\n        /* \"#utility.yul\":1355:1418   */\n      tag_55\n      jump\t// in\n    tag_72:\n        /* \"#utility.yul\":1345:1418   */\n      swap2\n      pop\n        /* \"#utility.yul\":1141:1428   */\n      pop\n        /* \"#utility.yul\":926:1435   */\n      swap3\n      swap2\n      pop\n      pop\n      jump\t// out\n        /* \"#utility.yul\":1441:1766   */\n    tag_17:\n        /* \"#utility.yul\":1498:1504   */\n      0x00\n        /* \"#utility.yul\":1547:1549   */\n      0x20\n        /* \"#utility.yul\":1535:1544   */\n      dup3\n        /* \"#utility.yul\":1526:1533   */\n      dup5\n        /* \"#utility.yul\":1522:1545   */\n      sub\n        /* \"#utility.yul\":1518:1550   */\n      slt\n        /* \"#utility.yul\":1515:1634   */\n      iszero\n      tag_74\n      jumpi\n        /* \"#utility.yul\":1553:1632   */\n      tag_75\n      tag_68\n      jump\t// in\n    tag_75:\n        /* \"#utility.yul\":1515:1634   */\n    tag_74:\n        /* \"#utility.yul\":1673:1674   */\n      0x00\n        /* \"#utility.yul\":1698:1749   */\n      tag_76\n        /* \"#utility.yul\":1741:1748   */\n      dup5\n        /* \"#utility.yul\":1732:1738   */\n      dup3\n        /* \"#utility.yul\":1721:1730   */\n      dup6\n        /* \"#utility.yul\":1717:1739   */\n      add\n        /* \"#utility.yul\":1698:1749   */\n      tag_61\n      jump\t// in\n    tag_76:\n        /* \"#utility.yul\":1688:1749   */\n      swap2\n      pop\n        /* \"#utility.yul\":1644:1759   */\n      pop\n        /* \"#utility.yul\":1441:1766   */\n      swap3\n      swap2\n      pop\n      pop\n      jump\t// out\n        /* \"#utility.yul\":1772:2136   */\n    tag_77:\n        /* \"#utility.yul\":1860:1863   */\n      0x00\n        /* \"#utility.yul\":1888:1927   */\n      tag_79\n        /* \"#utility.yul\":1921:1926   */\n      dup3\n        /* \"#utility.yul\":1888:1927   */\n      tag_80\n      jump\t// in\n    tag_79:\n        /* \"#utility.yul\":1943:2014   */\n      tag_81\n        /* \"#utility.yul\":2007:2013   */\n      dup2\n        /* \"#utility.yul\":2002:2005   */\n      dup6\n        /* \"#utility.yul\":1943:2014   */\n      tag_82\n      jump\t// in\n    tag_81:\n        /* \"#utility.yul\":1936:2014   */\n      swap4\n      pop\n        /* \"#utility.yul\":2023:2075   */\n      tag_83\n        /* \"#utility.yul\":2068:2074   */\n      dup2\n        /* \"#utility.yul\":2063:2066   */\n      dup6\n        /* \"#utility.yul\":2056:2060   */\n      0x20\n        /* \"#utility.yul\":2049:2054   */\n      dup7\n        /* \"#utility.yul\":2045:2061   */\n      add\n        /* \"#utility.yul\":2023:2075   */\n      tag_84\n      jump\t// in\n    tag_83:\n        /* \"#utility.yul\":2100:2129   */\n      tag_85\n        /* \"#utility.yul\":2122:2128   */\n      dup2\n        /* \"#utility.yul\":2100:2129   */\n      tag_86\n      jump\t// in\n    tag_85:\n        /* \"#utility.yul\":2095:2098   */\n      dup5\n        /* \"#utility.yul\":2091:2130   */\n      add\n        /* \"#utility.yul\":2084:2130   */\n      swap2\n      pop\n        /* \"#utility.yul\":1864:2136   */\n      pop\n        /* \"#utility.yul\":1772:2136   */\n      swap3\n      swap2\n      pop\n      pop\n      jump\t// out\n        /* \"#utility.yul\":2142:2254   */\n    tag_87:\n        /* \"#utility.yul\":2225:2247   */\n      tag_89\n        /* \"#utility.yul\":2241:2246   */\n      dup2\n        /* \"#utility.yul\":2225:2247   */\n      tag_90\n      jump\t// in\n    tag_89:\n        /* \"#utility.yul\":2220:2223   */\n      dup3\n        /* \"#utility.yul\":2213:2248   */\n      mstore\n        /* \"#utility.yul\":2142:2254   */\n      pop\n      pop\n      jump\t// out\n        /* \"#utility.yul\":2260:2573   */\n    tag_14:\n        /* \"#utility.yul\":2373:2377   */\n      0x00\n        /* \"#utility.yul\":2411:2413   */\n      0x20\n        /* \"#utility.yul\":2400:2409   */\n      dup3\n        /* \"#utility.yul\":2396:2414   */\n      add\n        /* \"#utility.yul\":2388:2414   */\n      swap1\n      pop\n        /* \"#utility.yul\":2460:2469   */\n      dup2\n        /* \"#utility.yul\":2454:2458   */\n      dup2\n        /* \"#utility.yul\":2450:2470   */\n      sub\n        /* \"#utility.yul\":2446:2447   */\n      0x00\n        /* \"#utility.yul\":2435:2444   */\n      dup4\n        /* \"#utility.yul\":2431:2448   */\n      add\n        /* \"#utility.yul\":2424:2471   */\n      mstore\n        /* \"#utility.yul\":2488:2566   */\n      tag_92\n        /* \"#utility.yul\":2561:2565   */\n      dup2\n        /* \"#utility.yul\":2552:2558   */\n      dup5\n        /* \"#utility.yul\":2488:2566   */\n      tag_77\n      jump\t// in\n    tag_92:\n        /* \"#utility.yul\":2480:2566   */\n      swap1\n      pop\n        /* \"#utility.yul\":2260:2573   */\n      swap3\n      swap2\n      pop\n      pop\n      jump\t// out\n        /* \"#utility.yul\":2579:2793   */\n    tag_10:\n        /* \"#utility.yul\":2668:2672   */\n      0x00\n        /* \"#utility.yul\":2706:2708   */\n      0x20\n        /* \"#utility.yul\":2695:2704   */\n      dup3\n        /* \"#utility.yul\":2691:2709   */\n      add\n        /* \"#utility.yul\":2683:2709   */\n      swap1\n      pop\n        /* \"#utility.yul\":2719:2786   */\n      tag_94\n        /* \"#utility.yul\":2783:2784   */\n      0x00\n        /* \"#utility.yul\":2772:2781   */\n      dup4\n        /* \"#utility.yul\":2768:2785   */\n      add\n        /* \"#utility.yul\":2759:2765   */\n      dup5\n        /* \"#utility.yul\":2719:2786   */\n      tag_87\n      jump\t// in\n    tag_94:\n        /* \"#utility.yul\":2579:2793   */\n      swap3\n      swap2\n      pop\n      pop\n      jump\t// out\n        /* \"#utility.yul\":2799:2928   */\n    tag_49:\n        /* \"#utility.yul\":2833:2839   */\n      0x00\n        /* \"#utility.yul\":2860:2880   */\n      tag_96\n      tag_97\n      jump\t// in\n    tag_96:\n        /* \"#utility.yul\":2850:2880   */\n      swap1\n      pop\n        /* \"#utility.yul\":2889:2922   */\n      tag_98\n        /* \"#utility.yul\":2917:2921   */\n      dup3\n        /* \"#utility.yul\":2909:2915   */\n      dup3\n        /* \"#utility.yul\":2889:2922   */\n      tag_99\n      jump\t// in\n    tag_98:\n        /* \"#utility.yul\":2799:2928   */\n      swap2\n      swap1\n      pop\n      jump\t// out\n        /* \"#utility.yul\":2934:3009   */\n    tag_97:\n        /* \"#utility.yul\":2967:2973   */\n      0x00\n        /* \"#utility.yul\":3000:3002   */\n      0x40\n        /* \"#utility.yul\":2994:3003   */\n      mload\n        /* \"#utility.yul\":2984:3003   */\n      swap1\n      pop\n        /* \"#utility.yul\":2934:3009   */\n      swap1\n      jump\t// out\n        /* \"#utility.yul\":3015:3323   */\n    tag_48:\n        /* \"#utility.yul\":3077:3081   */\n      0x00\n        /* \"#utility.yul\":3167:3185   */\n      0xffffffffffffffff\n        /* \"#utility.yul\":3159:3165   */\n      dup3\n        /* \"#utility.yul\":3156:3186   */\n      gt\n        /* \"#utility.yul\":3153:3209   */\n      iszero\n      tag_102\n      jumpi\n        /* \"#utility.yul\":3189:3207   */\n      tag_103\n      tag_104\n      jump\t// in\n    tag_103:\n        /* \"#utility.yul\":3153:3209   */\n    tag_102:\n        /* \"#utility.yul\":3227:3256   */\n      tag_105\n        /* \"#utility.yul\":3249:3255   */\n      dup3\n        /* \"#utility.yul\":3227:3256   */\n      tag_86\n      jump\t// in\n    tag_105:\n        /* \"#utility.yul\":3219:3256   */\n      swap1\n      pop\n        /* \"#utility.yul\":3311:3315   */\n      0x20\n        /* \"#utility.yul\":3305:3309   */\n      dup2\n        /* \"#utility.yul\":3301:3316   */\n      add\n        /* \"#utility.yul\":3293:3316   */\n      swap1\n      pop\n        /* \"#utility.yul\":3015:3323   */\n      swap2\n      swap1\n      pop\n      jump\t// out\n        /* \"#utility.yul\":3329:3428   */\n    tag_80:\n        /* \"#utility.yul\":3381:3387   */\n      0x00\n        /* \"#utility.yul\":3415:3420   */\n      dup2\n        /* \"#utility.yul\":3409:3421   */\n      mload\n        /* \"#utility.yul\":3399:3421   */\n      swap1\n      pop\n        /* \"#utility.yul\":3329:3428   */\n      swap2\n      swap1\n      pop\n      jump\t// out\n        /* \"#utility.yul\":3434:3603   */\n    tag_82:\n        /* \"#utility.yul\":3518:3529   */\n      0x00\n        /* \"#utility.yul\":3552:3558   */\n      dup3\n        /* \"#utility.yul\":3547:3550   */\n      dup3\n        /* \"#utility.yul\":3540:3559   */\n      mstore\n        /* \"#utility.yul\":3592:3596   */\n      0x20\n        /* \"#utility.yul\":3587:3590   */\n      dup3\n        /* \"#utility.yul\":3583:3597   */\n      add\n        /* \"#utility.yul\":3568:3597   */\n      swap1\n      pop\n        /* \"#utility.yul\":3434:3603   */\n      swap3\n      swap2\n      pop\n      pop\n      jump\t// out\n        /* \"#utility.yul\":3609:3695   */\n    tag_90:\n        /* \"#utility.yul\":3644:3651   */\n      0x00\n        /* \"#utility.yul\":3684:3688   */\n      0xff\n        /* \"#utility.yul\":3677:3682   */\n      dup3\n        /* \"#utility.yul\":3673:3689   */\n      and\n        /* \"#utility.yul\":3662:3689   */\n      swap1\n      pop\n        /* \"#utility.yul\":3609:3695   */\n      swap2\n      swap1\n      pop\n      jump\t// out\n        /* \"#utility.yul\":3701:3855   */\n    tag_54:\n        /* \"#utility.yul\":3785:3791   */\n      dup3\n        /* \"#utility.yul\":3780:3783   */\n      dup2\n        /* \"#utility.yul\":3775:3778   */\n      dup4\n        /* \"#utility.yul\":3762:3792   */\n      calldatacopy\n        /* \"#utility.yul\":3847:3848   */\n      0x00\n        /* \"#utility.yul\":3838:3844   */\n      dup4\n        /* \"#utility.yul\":3833:3836   */\n      dup4\n        /* \"#utility.yul\":3829:3845   */\n      add\n        /* \"#utility.yul\":3822:3849   */\n      mstore\n        /* \"#utility.yul\":3701:3855   */\n      pop\n      pop\n      pop\n      jump\t// out\n        /* \"#utility.yul\":3861:4168   */\n    tag_84:\n        /* \"#utility.yul\":3929:3930   */\n      0x00\n        /* \"#utility.yul\":3939:4052   */\n    tag_111:\n        /* \"#utility.yul\":3953:3959   */\n      dup4\n        /* \"#utility.yul\":3950:3951   */\n      dup2\n        /* \"#utility.yul\":3947:3960   */\n      lt\n        /* \"#utility.yul\":3939:4052   */\n      iszero\n      tag_113\n      jumpi\n        /* \"#utility.yul\":4038:4039   */\n      dup1\n        /* \"#utility.yul\":4033:4036   */\n      dup3\n        /* \"#utility.yul\":4029:4040   */\n      add\n        /* \"#utility.yul\":4023:4041   */\n      mload\n        /* \"#utility.yul\":4019:4020   */\n      dup2\n        /* \"#utility.yul\":4014:4017   */\n      dup5\n        /* \"#utility.yul\":4010:4021   */\n      add\n        /* \"#utility.yul\":4003:4042   */\n      mstore\n        /* \"#utility.yul\":3975:3977   */\n      0x20\n        /* \"#utility.yul\":3972:3973   */\n      dup2\n        /* \"#utility.yul\":3968:3978   */\n      add\n        /* \"#utility.yul\":3963:3978   */\n      swap1\n      pop\n        /* \"#utility.yul\":3939:4052   */\n      jump(tag_111)\n    tag_113:\n        /* \"#utility.yul\":4070:4076   */\n      dup4\n        /* \"#utility.yul\":4067:4068   */\n      dup2\n        /* \"#utility.yul\":4064:4077   */\n      gt\n        /* \"#utility.yul\":4061:4162   */\n      iszero\n      tag_114\n      jumpi\n        /* \"#utility.yul\":4150:4151   */\n      0x00\n        /* \"#utility.yul\":4141:4147   */\n      dup5\n        /* \"#utility.yul\":4136:4139   */\n      dup5\n        /* \"#utility.yul\":4132:4148   */\n      add\n        /* \"#utility.yul\":4125:4152   */\n      mstore\n        /* \"#utility.yul\":4061:4162   */\n    tag_114:\n        /* \"#utility.yul\":3910:4168   */\n      pop\n        /* \"#utility.yul\":3861:4168   */\n      pop\n      pop\n      pop\n      jump\t// out\n        /* \"#utility.yul\":4174:4494   */\n    tag_24:\n        /* \"#utility.yul\":4218:4224   */\n      0x00\n        /* \"#utility.yul\":4255:4256   */\n      0x02\n        /* \"#utility.yul\":4249:4253   */\n      dup3\n        /* \"#utility.yul\":4245:4257   */\n      div\n        /* \"#utility.yul\":4235:4257   */\n      swap1\n      pop\n        /* \"#utility.yul\":4302:4303   */\n      0x01\n        /* \"#utility.yul\":4296:4300   */\n      dup3\n        /* \"#utility.yul\":4292:4304   */\n      and\n        /* \"#utility.yul\":4323:4341   */\n      dup1\n        /* \"#utility.yul\":4313:4394   */\n      tag_116\n      jumpi\n        /* \"#utility.yul\":4379:4383   */\n      0x7f\n        /* \"#utility.yul\":4371:4377   */\n      dup3\n        /* \"#utility.yul\":4367:4384   */\n      and\n        /* \"#utility.yul\":4357:4384   */\n      swap2\n      pop\n        /* \"#utility.yul\":4313:4394   */\n    tag_116:\n        /* \"#utility.yul\":4441:4443   */\n      0x20\n        /* \"#utility.yul\":4433:4439   */\n      dup3\n        /* \"#utility.yul\":4430:4444   */\n      lt\n        /* \"#utility.yul\":4410:4428   */\n      dup2\n        /* \"#utility.yul\":4407:4445   */\n      eq\n        /* \"#utility.yul\":4404:4488   */\n      iszero\n      tag_117\n      jumpi\n        /* \"#utility.yul\":4460:4478   */\n      tag_118\n      tag_119\n      jump\t// in\n    tag_118:\n        /* \"#utility.yul\":4404:4488   */\n    tag_117:\n        /* \"#utility.yul\":4225:4494   */\n      pop\n        /* \"#utility.yul\":4174:4494   */\n      swap2\n      swap1\n      pop\n      jump\t// out\n        /* \"#utility.yul\":4500:4781   */\n    tag_99:\n        /* \"#utility.yul\":4583:4610   */\n      tag_121\n        /* \"#utility.yul\":4605:4609   */\n      dup3\n        /* \"#utility.yul\":4583:4610   */\n      tag_86\n      jump\t// in\n    tag_121:\n        /* \"#utility.yul\":4575:4581   */\n      dup2\n        /* \"#utility.yul\":4571:4611   */\n      add\n        /* \"#utility.yul\":4713:4719   */\n      dup2\n        /* \"#utility.yul\":4701:4711   */\n      dup2\n        /* \"#utility.yul\":4698:4720   */\n      lt\n        /* \"#utility.yul\":4677:4695   */\n      0xffffffffffffffff\n        /* \"#utility.yul\":4665:4675   */\n      dup3\n        /* \"#utility.yul\":4662:4696   */\n      gt\n        /* \"#utility.yul\":4659:4721   */\n      or\n        /* \"#utility.yul\":4656:4744   */\n      iszero\n      tag_122\n      jumpi\n        /* \"#utility.yul\":4724:4742   */\n      tag_123\n      tag_104\n      jump\t// in\n    tag_123:\n        /* \"#utility.yul\":4656:4744   */\n    tag_122:\n        /* \"#utility.yul\":4764:4774   */\n      dup1\n        /* \"#utility.yul\":4760:4762   */\n      0x40\n        /* \"#utility.yul\":4753:4775   */\n      mstore\n        /* \"#utility.yul\":4543:4781   */\n      pop\n        /* \"#utility.yul\":4500:4781   */\n      pop\n      pop\n      jump\t// out\n        /* \"#utility.yul\":4787:4967   */\n    tag_119:\n        /* \"#utility.yul\":4835:4912   */\n      0x4e487b7100000000000000000000000000000000000000000000000000000000\n        /* \"#utility.yul\":4832:4833   */\n      0x00\n        /* \"#utility.yul\":4825:4913   */\n      mstore\n        /* \"#utility.yul\":4932:4936   */\n      0x22\n        /* \"#utility.yul\":4929:4930   */\n      0x04\n        /* \"#utility.yul\":4922:4937   */\n      mstore\n        /* \"#utility.yul\":4956:4960   */\n      0x24\n        /* \"#utility.yul\":4953:4954   */\n      0x00\n        /* \"#utility.yul\":4946:4961   */\n      revert\n        /* \"#utility.yul\":4973:5153   */\n    tag_104:\n        /* \"#utility.yul\":5021:5098   */\n      0x4e487b7100000000000000000000000000000000000000000000000000000000\n        /* \"#utility.yul\":5018:5019   */\n      0x00\n        /* \"#utility.yul\":5011:5099   */\n      mstore\n        /* \"#utility.yul\":5118:5122   */\n      0x41\n        /* \"#utility.yul\":5115:5116   */\n      0x04\n        /* \"#utility.yul\":5108:5123   */\n      mstore\n        /* \"#utility.yul\":5142:5146   */\n      0x24\n        /* \"#utility.yul\":5139:5140   */\n      0x00\n        /* \"#utility.yul\":5132:5147   */\n      revert\n        /* \"#utility.yul\":5159:5276   */\n    tag_59:\n        /* \"#utility.yul\":5268:5269   */\n      0x00\n        /* \"#utility.yul\":5265:5266   */\n      dup1\n        /* \"#utility.yul\":5258:5270   */\n      revert\n        /* \"#utility.yul\":5282:5399   */\n    tag_52:\n        /* \"#utility.yul\":5391:5392   */\n      0x00\n        /* \"#utility.yul\":5388:5389   */\n      dup1\n        /* \"#utility.yul\":5381:5393   */\n      revert\n        /* \"#utility.yul\":5405:5522   */\n    tag_71:\n        /* \"#utility.yul\":5514:5515   */\n      0x00\n        /* \"#utility.yul\":5511:5512   */\n      dup1\n        /* \"#utility.yul\":5504:5516   */\n      revert\n        /* \"#utility.yul\":5528:5645   */\n    tag_68:\n        /* \"#utility.yul\":5637:5638   */\n      0x00\n        /* \"#utility.yul\":5634:5635   */\n      dup1\n        /* \"#utility.yul\":5627:5639   */\n      revert\n        /* \"#utility.yul\":5651:5753   */\n    tag_86:\n        /* \"#utility.yul\":5692:5698   */\n      0x00\n        /* \"#utility.yul\":5743:5745   */\n      0x1f\n        /* \"#utility.yul\":5739:5746   */\n      not\n        /* \"#utility.yul\":5734:5736   */\n      0x1f\n        /* \"#utility.yul\":5727:5732   */\n      dup4\n        /* \"#utility.yul\":5723:5737   */\n      add\n        /* \"#utility.yul\":5719:5747   */\n      and\n        /* \"#utility.yul\":5709:5747   */\n      swap1\n      pop\n        /* \"#utility.yul\":5651:5753   */\n      swap2\n      swap1\n      pop\n      jump\t// out\n        /* \"#utility.yul\":5759:5877   */\n    tag_64:\n        /* \"#utility.yul\":5830:5852   */\n      tag_132\n        /* \"#utility.yul\":5846:5851   */\n      dup2\n        /* \"#utility.yul\":5830:5852   */\n      tag_90\n      jump\t// in\n    tag_132:\n        /* \"#utility.yul\":5823:5828   */\n      dup2\n        /* \"#utility.yul\":5820:5853   */\n      eq\n        /* \"#utility.yul\":5810:5871   */\n      tag_133\n      jumpi\n        /* \"#utility.yul\":5867:5868   */\n      0x00\n        /* \"#utility.yul\":5864:5865   */\n      dup1\n        /* \"#utility.yul\":5857:5869   */\n      revert\n        /* \"#utility.yul\":5810:5871   */\n    tag_133:\n        /* \"#utility.yul\":5759:5877   */\n      pop\n      jump\t// out\n\n    auxdata: 0xa264697066735822122016d577841bd54e7ea4976d4c7a7112b0b44fa3b5addea02384d79f250780d21464736f6c63430008070033\n}\n",
				"bytecode": {
					"linkReferences": {},
					"object": "60806040523480156200001157600080fd5b506040516200098e3803806200098e8339818101604052810190620000379190620001b8565b81600090805190602001906200004f92919062000073565b5080600160006101000a81548160ff021916908360ff1602179055505050620003c9565b8280546200008190620002c0565b90600052602060002090601f016020900481019282620000a55760008555620000f1565b82601f10620000c057805160ff1916838001178555620000f1565b82800160010185558215620000f1579182015b82811115620000f0578251825591602001919060010190620000d3565b5b50905062000100919062000104565b5090565b5b808211156200011f57600081600090555060010162000105565b5090565b60006200013a620001348462000247565b6200021e565b9050828152602081018484840111156200015957620001586200038f565b5b620001668482856200028a565b509392505050565b600082601f8301126200018657620001856200038a565b5b81516200019884826020860162000123565b91505092915050565b600081519050620001b281620003af565b92915050565b60008060408385031215620001d257620001d162000399565b5b600083015167ffffffffffffffff811115620001f357620001f262000394565b5b62000201858286016200016e565b92505060206200021485828601620001a1565b9150509250929050565b60006200022a6200023d565b9050620002388282620002f6565b919050565b6000604051905090565b600067ffffffffffffffff8211156200026557620002646200035b565b5b62000270826200039e565b9050602081019050919050565b600060ff82169050919050565b60005b83811015620002aa5780820151818401526020810190506200028d565b83811115620002ba576000848401525b50505050565b60006002820490506001821680620002d957607f821691505b60208210811415620002f057620002ef6200032c565b5b50919050565b62000301826200039e565b810181811067ffffffffffffffff821117156200032357620003226200035b565b5b80604052505050565b7f4e487b7100000000000000000000000000000000000000000000000000000000600052602260045260246000fd5b7f4e487b7100000000000000000000000000000000000000000000000000000000600052604160045260246000fd5b600080fd5b600080fd5b600080fd5b600080fd5b6000601f19601f8301169050919050565b620003ba816200027d565b8114620003c657600080fd5b50565b6105b580620003d96000396000f3fe608060405234801561001057600080fd5b506004361061004c5760003560e01c8063262a9dff146100515780634f8632ba1461006f5780635b0c8d701461008d578063d0020fad146100a9575b600080fd5b6100596100c5565b60405161006691906103a6565b60405180910390f35b6100776100d8565b6040516100849190610384565b60405180910390f35b6100a760048036038101906100a2919061030f565b610166565b005b6100c360048036038101906100be91906102c6565b610184565b005b600160009054906101000a900460ff1681565b600080546100e590610482565b80601f016020809104026020016040519081016040528092919081815260200182805461011190610482565b801561015e5780601f106101335761010080835404028352916020019161015e565b820191906000526020600020905b81548152906001019060200180831161014157829003601f168201915b505050505081565b80600160006101000a81548160ff021916908360ff16021790555050565b806000908051906020019061019a92919061019e565b5050565b8280546101aa90610482565b90600052602060002090601f0160209004810192826101cc5760008555610213565b82601f106101e557805160ff1916838001178555610213565b82800160010185558215610213579182015b828111156102125782518255916020019190600101906101f7565b5b5090506102209190610224565b5090565b5b8082111561023d576000816000905550600101610225565b5090565b600061025461024f846103e6565b6103c1565b9050828152602081018484840111156102705761026f610548565b5b61027b848285610440565b509392505050565b600082601f83011261029857610297610543565b5b81356102a8848260208601610241565b91505092915050565b6000813590506102c081610568565b92915050565b6000602082840312156102dc576102db610552565b5b600082013567ffffffffffffffff8111156102fa576102f961054d565b5b61030684828501610283565b91505092915050565b60006020828403121561032557610324610552565b5b6000610333848285016102b1565b91505092915050565b600061034782610417565b6103518185610422565b935061036181856020860161044f565b61036a81610557565b840191505092915050565b61037e81610433565b82525050565b6000602082019050818103600083015261039e818461033c565b905092915050565b60006020820190506103bb6000830184610375565b92915050565b60006103cb6103dc565b90506103d782826104b4565b919050565b6000604051905090565b600067ffffffffffffffff82111561040157610400610514565b5b61040a82610557565b9050602081019050919050565b600081519050919050565b600082825260208201905092915050565b600060ff82169050919050565b82818337600083830152505050565b60005b8381101561046d578082015181840152602081019050610452565b8381111561047c576000848401525b50505050565b6000600282049050600182168061049a57607f821691505b602082108114156104ae576104ad6104e5565b5b50919050565b6104bd82610557565b810181811067ffffffffffffffff821117156104dc576104db610514565b5b80604052505050565b7f4e487b7100000000000000000000000000000000000000000000000000000000600052602260045260246000fd5b7f4e487b7100000000000000000000000000000000000000000000000000000000600052604160045260246000fd5b600080fd5b600080fd5b600080fd5b600080fd5b6000601f19601f8301169050919050565b61057181610433565b811461057c57600080fd5b5056fea264697066735822122016d577841bd54e7ea4976d4c7a7112b0b44fa3b5addea02384d79f250780d21464736f6c63430008070033",
					"opcodes": "PUSH1 0x80 PUSH1 0x40 MSTORE CALLVALUE DUP1 ISZERO PUSH3 0x11 JUMPI PUSH1 0x0 DUP1 REVERT JUMPDEST POP PUSH1 0x40 MLOAD PUSH3 0x98E CODESIZE SUB DUP1 PUSH3 0x98E DUP4 CODECOPY DUP2 DUP2 ADD PUSH1 0x40 MSTORE DUP2 ADD SWAP1 PUSH3 0x37 SWAP2 SWAP1 PUSH3 0x1B8 JUMP JUMPDEST DUP2 PUSH1 0x0 SWAP1 DUP1 MLOAD SWAP1 PUSH1 0x20 ADD SWAP1 PUSH3 0x4F SWAP3 SWAP2 SWAP1 PUSH3 0x73 JUMP JUMPDEST POP DUP1 PUSH1 0x1 PUSH1 0x0 PUSH2 0x100 EXP DUP2 SLOAD DUP2 PUSH1 0xFF MUL NOT AND SWAP1 DUP4 PUSH1 0xFF AND MUL OR SWAP1 SSTORE POP POP POP PUSH3 0x3C9 JUMP JUMPDEST DUP3 DUP1 SLOAD PUSH3 0x81 SWAP1 PUSH3 0x2C0 JUMP JUMPDEST SWAP1 PUSH1 0x0 MSTORE PUSH1 0x20 PUSH1 0x0 KECCAK256 SWAP1 PUSH1 0x1F ADD PUSH1 0x20 SWAP1 DIV DUP2 ADD SWAP3 DUP3 PUSH3 0xA5 JUMPI PUSH1 0x0 DUP6 SSTORE PUSH3 0xF1 JUMP JUMPDEST DUP3 PUSH1 0x1F LT PUSH3 0xC0 JUMPI DUP1 MLOAD PUSH1 0xFF NOT AND DUP4 DUP1 ADD OR DUP6 SSTORE PUSH3 0xF1 JUMP JUMPDEST DUP3 DUP1 ADD PUSH1 0x1 ADD DUP6 SSTORE DUP3 ISZERO PUSH3 0xF1 JUMPI SWAP2 DUP3 ADD JUMPDEST DUP3 DUP2 GT ISZERO PUSH3 0xF0 JUMPI DUP3 MLOAD DUP3 SSTORE SWAP2 PUSH1 0x20 ADD SWAP2 SWAP1 PUSH1 0x1 ADD SWAP1 PUSH3 0xD3 JUMP JUMPDEST JUMPDEST POP SWAP1 POP PUSH3 0x100 SWAP2 SWAP1 PUSH3 0x104 JUMP JUMPDEST POP SWAP1 JUMP JUMPDEST JUMPDEST DUP1 DUP3 GT ISZERO PUSH3 0x11F JUMPI PUSH1 0x0 DUP2 PUSH1 0x0 SWAP1 SSTORE POP PUSH1 0x1 ADD PUSH3 0x105 JUMP JUMPDEST POP SWAP1 JUMP JUMPDEST PUSH1 0x0 PUSH3 0x13A PUSH3 0x134 DUP5 PUSH3 0x247 JUMP JUMPDEST PUSH3 0x21E JUMP JUMPDEST SWAP1 POP DUP3 DUP2 MSTORE PUSH1 0x20 DUP2 ADD DUP5 DUP5 DUP5 ADD GT ISZERO PUSH3 0x159 JUMPI PUSH3 0x158 PUSH3 0x38F JUMP JUMPDEST JUMPDEST PUSH3 0x166 DUP5 DUP3 DUP6 PUSH3 0x28A JUMP JUMPDEST POP SWAP4 SWAP3 POP POP POP JUMP JUMPDEST PUSH1 0x0 DUP3 PUSH1 0x1F DUP4 ADD SLT PUSH3 0x186 JUMPI PUSH3 0x185 PUSH3 0x38A JUMP JUMPDEST JUMPDEST DUP2 MLOAD PUSH3 0x198 DUP5 DUP3 PUSH1 0x20 DUP7 ADD PUSH3 0x123 JUMP JUMPDEST SWAP2 POP POP SWAP3 SWAP2 POP POP JUMP JUMPDEST PUSH1 0x0 DUP2 MLOAD SWAP1 POP PUSH3 0x1B2 DUP2 PUSH3 0x3AF JUMP JUMPDEST SWAP3 SWAP2 POP POP JUMP JUMPDEST PUSH1 0x0 DUP1 PUSH1 0x40 DUP4 DUP6 SUB SLT ISZERO PUSH3 0x1D2 JUMPI PUSH3 0x1D1 PUSH3 0x399 JUMP JUMPDEST JUMPDEST PUSH1 0x0 DUP4 ADD MLOAD PUSH8 0xFFFFFFFFFFFFFFFF DUP2 GT ISZERO PUSH3 0x1F3 JUMPI PUSH3 0x1F2 PUSH3 0x394 JUMP JUMPDEST JUMPDEST PUSH3 0x201 DUP6 DUP3 DUP7 ADD PUSH3 0x16E JUMP JUMPDEST SWAP3 POP POP PUSH1 0x20 PUSH3 0x214 DUP6 DUP3 DUP7 ADD PUSH3 0x1A1 JUMP JUMPDEST SWAP2 POP POP SWAP3 POP SWAP3 SWAP1 POP JUMP JUMPDEST PUSH1 0x0 PUSH3 0x22A PUSH3 0x23D JUMP JUMPDEST SWAP1 POP PUSH3 0x238 DUP3 DUP3 PUSH3 0x2F6 JUMP JUMPDEST SWAP2 SWAP1 POP JUMP JUMPDEST PUSH1 0x0 PUSH1 0x40 MLOAD SWAP1 POP SWAP1 JUMP JUMPDEST PUSH1 0x0 PUSH8 0xFFFFFFFFFFFFFFFF DUP3 GT ISZERO PUSH3 0x265 JUMPI PUSH3 0x264 PUSH3 0x35B JUMP JUMPDEST JUMPDEST PUSH3 0x270 DUP3 PUSH3 0x39E JUMP JUMPDEST SWAP1 POP PUSH1 0x20 DUP2 ADD SWAP1 POP SWAP2 SWAP1 POP JUMP JUMPDEST PUSH1 0x0 PUSH1 0xFF DUP3 AND SWAP1 POP SWAP2 SWAP1 POP JUMP JUMPDEST PUSH1 0x0 JUMPDEST DUP4 DUP2 LT ISZERO PUSH3 0x2AA JUMPI DUP1 DUP3 ADD MLOAD DUP2 DUP5 ADD MSTORE PUSH1 0x20 DUP2 ADD SWAP1 POP PUSH3 0x28D JUMP JUMPDEST DUP4 DUP2 GT ISZERO PUSH3 0x2BA JUMPI PUSH1 0x0 DUP5 DUP5 ADD MSTORE JUMPDEST POP POP POP POP JUMP JUMPDEST PUSH1 0x0 PUSH1 0x2 DUP3 DIV SWAP1 POP PUSH1 0x1 DUP3 AND DUP1 PUSH3 0x2D9 JUMPI PUSH1 0x7F DUP3 AND SWAP2 POP JUMPDEST PUSH1 0x20 DUP3 LT DUP2 EQ ISZERO PUSH3 0x2F0 JUMPI PUSH3 0x2EF PUSH3 0x32C JUMP JUMPDEST JUMPDEST POP SWAP2 SWAP1 POP JUMP JUMPDEST PUSH3 0x301 DUP3 PUSH3 0x39E JUMP JUMPDEST DUP2 ADD DUP2 DUP2 LT PUSH8 0xFFFFFFFFFFFFFFFF DUP3 GT OR ISZERO PUSH3 0x323 JUMPI PUSH3 0x322 PUSH3 0x35B JUMP JUMPDEST JUMPDEST DUP1 PUSH1 0x40 MSTORE POP POP POP JUMP JUMPDEST PUSH32 0x4E487B7100000000000000000000000000000000000000000000000000000000 PUSH1 0x0 MSTORE PUSH1 0x22 PUSH1 0x4 MSTORE PUSH1 0x24 PUSH1 0x0 REVERT JUMPDEST PUSH32 0x4E487B7100000000000000000000000000000000000000000000000000000000 PUSH1 0x0 MSTORE PUSH1 0x41 PUSH1 0x4 MSTORE PUSH1 0x24 PUSH1 0x0 REVERT JUMPDEST PUSH1 0x0 DUP1 REVERT JUMPDEST PUSH1 0x0 DUP1 REVERT JUMPDEST PUSH1 0x0 DUP1 REVERT JUMPDEST PUSH1 0x0 DUP1 REVERT JUMPDEST PUSH1 0x0 PUSH1 0x1F NOT PUSH1 0x1F DUP4 ADD AND SWAP1 POP SWAP2 SWAP1 POP JUMP JUMPDEST PUSH3 0x3BA DUP2 PUSH3 0x27D JUMP JUMPDEST DUP2 EQ PUSH3 0x3C6 JUMPI PUSH1 0x0 DUP1 REVERT JUMPDEST POP JUMP JUMPDEST PUSH2 0x5B5 DUP1 PUSH3 0x3D9 PUSH1 0x0 CODECOPY PUSH1 0x0 RETURN INVALID PUSH1 0x80 PUSH1 0x40 MSTORE CALLVALUE DUP1 ISZERO PUSH2 0x10 JUMPI PUSH1 0x0 DUP1 REVERT JUMPDEST POP PUSH1 0x4 CALLDATASIZE LT PUSH2 0x4C JUMPI PUSH1 0x0 CALLDATALOAD PUSH1 0xE0 SHR DUP1 PUSH4 0x262A9DFF EQ PUSH2 0x51 JUMPI DUP1 PUSH4 0x4F8632BA EQ PUSH2 0x6F JUMPI DUP1 PUSH4 0x5B0C8D70 EQ PUSH2 0x8D JUMPI DUP1 PUSH4 0xD0020FAD EQ PUSH2 0xA9 JUMPI JUMPDEST PUSH1 0x0 DUP1 REVERT JUMPDEST PUSH2 0x59 PUSH2 0xC5 JUMP JUMPDEST PUSH1 0x40 MLOAD PUSH2 0x66 SWAP2 SWAP1 PUSH2 0x3A6 JUMP JUMPDEST PUSH1 0x40 MLOAD DUP1 SWAP2 SUB SWAP1 RETURN JUMPDEST PUSH2 0x77 PUSH2 0xD8 JUMP JUMPDEST PUSH1 0x40 MLOAD PUSH2 0x84 SWAP2 SWAP1 PUSH2 0x384 JUMP JUMPDEST PUSH1 0x40 MLOAD DUP1 SWAP2 SUB SWAP1 RETURN JUMPDEST PUSH2 0xA7 PUSH1 0x4 DUP1 CALLDATASIZE SUB DUP2 ADD SWAP1 PUSH2 0xA2 SWAP2 SWAP1 PUSH2 0x30F JUMP JUMPDEST PUSH2 0x166 JUMP JUMPDEST STOP JUMPDEST PUSH2 0xC3 PUSH1 0x4 DUP1 CALLDATASIZE SUB DUP2 ADD SWAP1 PUSH2 0xBE SWAP2 SWAP1 PUSH2 0x2C6 JUMP JUMPDEST PUSH2 0x184 JUMP JUMPDEST STOP JUMPDEST PUSH1 0x1 PUSH1 0x0 SWAP1 SLOAD SWAP1 PUSH2 0x100 EXP SWAP1 DIV PUSH1 0xFF AND DUP2 JUMP JUMPDEST PUSH1 0x0 DUP1 SLOAD PUSH2 0xE5 SWAP1 PUSH2 0x482 JUMP JUMPDEST DUP1 PUSH1 0x1F ADD PUSH1 0x20 DUP1 SWAP2 DIV MUL PUSH1 0x20 ADD PUSH1 0x40 MLOAD SWAP1 DUP2 ADD PUSH1 0x40 MSTORE DUP1 SWAP3 SWAP2 SWAP1 DUP2 DUP2 MSTORE PUSH1 0x20 ADD DUP3 DUP1 SLOAD PUSH2 0x111 SWAP1 PUSH2 0x482 JUMP JUMPDEST DUP1 ISZERO PUSH2 0x15E JUMPI DUP1 PUSH1 0x1F LT PUSH2 0x133 JUMPI PUSH2 0x100 DUP1 DUP4 SLOAD DIV MUL DUP4 MSTORE SWAP2 PUSH1 0x20 ADD SWAP2 PUSH2 0x15E JUMP JUMPDEST DUP3 ADD SWAP2 SWAP1 PUSH1 0x0 MSTORE PUSH1 0x20 PUSH1 0x0 KECCAK256 SWAP1 JUMPDEST DUP2 SLOAD DUP2 MSTORE SWAP1 PUSH1 0x1 ADD SWAP1 PUSH1 0x20 ADD DUP1 DUP4 GT PUSH2 0x141 JUMPI DUP3 SWAP1 SUB PUSH1 0x1F AND DUP3 ADD SWAP2 JUMPDEST POP POP POP POP POP DUP2 JUMP JUMPDEST DUP1 PUSH1 0x1 PUSH1 0x0 PUSH2 0x100 EXP DUP2 SLOAD DUP2 PUSH1 0xFF MUL NOT AND SWAP1 DUP4 PUSH1 0xFF AND MUL OR SWAP1 SSTORE POP POP JUMP JUMPDEST DUP1 PUSH1 0x0 SWAP1 DUP1 MLOAD SWAP1 PUSH1 0x20 ADD SWAP1 PUSH2 0x19A SWAP3 SWAP2 SWAP1 PUSH2 0x19E JUMP JUMPDEST POP POP JUMP JUMPDEST DUP3 DUP1 SLOAD PUSH2 0x1AA SWAP1 PUSH2 0x482 JUMP JUMPDEST SWAP1 PUSH1 0x0 MSTORE PUSH1 0x20 PUSH1 0x0 KECCAK256 SWAP1 PUSH1 0x1F ADD PUSH1 0x20 SWAP1 DIV DUP2 ADD SWAP3 DUP3 PUSH2 0x1CC JUMPI PUSH1 0x0 DUP6 SSTORE PUSH2 0x213 JUMP JUMPDEST DUP3 PUSH1 0x1F LT PUSH2 0x1E5 JUMPI DUP1 MLOAD PUSH1 0xFF NOT AND DUP4 DUP1 ADD OR DUP6 SSTORE PUSH2 0x213 JUMP JUMPDEST DUP3 DUP1 ADD PUSH1 0x1 ADD DUP6 SSTORE DUP3 ISZERO PUSH2 0x213 JUMPI SWAP2 DUP3 ADD JUMPDEST DUP3 DUP2 GT ISZERO PUSH2 0x212 JUMPI DUP3 MLOAD DUP3 SSTORE SWAP2 PUSH1 0x20 ADD SWAP2 SWAP1 PUSH1 0x1 ADD SWAP1 PUSH2 0x1F7 JUMP JUMPDEST JUMPDEST POP SWAP1 POP PUSH2 0x220 SWAP2 SWAP1 PUSH2 0x224 JUMP JUMPDEST POP SWAP1 JUMP JUMPDEST JUMPDEST DUP1 DUP3 GT ISZERO PUSH2 0x23D JUMPI PUSH1 0x0 DUP2 PUSH1 0x0 SWAP1 SSTORE POP PUSH1 0x1 ADD PUSH2 0x225 JUMP JUMPDEST POP SWAP1 JUMP JUMPDEST PUSH1 0x0 PUSH2 0x254 PUSH2 0x24F DUP5 PUSH2 0x3E6 JUMP JUMPDEST PUSH2 0x3C1 JUMP JUMPDEST SWAP1 POP DUP3 DUP2 MSTORE PUSH1 0x20 DUP2 ADD DUP5 DUP5 DUP5 ADD GT ISZERO PUSH2 0x270 JUMPI PUSH2 0x26F PUSH2 0x548 JUMP JUMPDEST JUMPDEST PUSH2 0x27B DUP5 DUP3 DUP6 PUSH2 0x440 JUMP JUMPDEST POP SWAP4 SWAP3 POP POP POP JUMP JUMPDEST PUSH1 0x0 DUP3 PUSH1 0x1F DUP4 ADD SLT PUSH2 0x298 JUMPI PUSH2 0x297 PUSH2 0x543 JUMP JUMPDEST JUMPDEST DUP2 CALLDATALOAD PUSH2 0x2A8 DUP5 DUP3 PUSH1 0x20 DUP7 ADD PUSH2 0x241 JUMP JUMPDEST SWAP2 POP POP SWAP3 SWAP2 POP POP JUMP JUMPDEST PUSH1 0x0 DUP2 CALLDATALOAD SWAP1 POP PUSH2 0x2C0 DUP2 PUSH2 0x568 JUMP JUMPDEST SWAP3 SWAP2 POP POP JUMP JUMPDEST PUSH1 0x0 PUSH1 0x20 DUP3 DUP5 SUB SLT ISZERO PUSH2 0x2DC JUMPI PUSH2 0x2DB PUSH2 0x552 JUMP JUMPDEST JUMPDEST PUSH1 0x0 DUP3 ADD CALLDATALOAD PUSH8 0xFFFFFFFFFFFFFFFF DUP2 GT ISZERO PUSH2 0x2FA JUMPI PUSH2 0x2F9 PUSH2 0x54D JUMP JUMPDEST JUMPDEST PUSH2 0x306 DUP5 DUP3 DUP6 ADD PUSH2 0x283 JUMP JUMPDEST SWAP2 POP POP SWAP3 SWAP2 POP POP JUMP JUMPDEST PUSH1 0x0 PUSH1 0x20 DUP3 DUP5 SUB SLT ISZERO PUSH2 0x325 JUMPI PUSH2 0x324 PUSH2 0x552 JUMP JUMPDEST JUMPDEST PUSH1 0x0 PUSH2 0x333 DUP5 DUP3 DUP6 ADD PUSH2 0x2B1 JUMP JUMPDEST SWAP2 POP POP SWAP3 SWAP2 POP POP JUMP JUMPDEST PUSH1 0x0 PUSH2 0x347 DUP3 PUSH2 0x417 JUMP JUMPDEST PUSH2 0x351 DUP2 DUP6 PUSH2 0x422 JUMP JUMPDEST SWAP4 POP PUSH2 0x361 DUP2 DUP6 PUSH1 0x20 DUP7 ADD PUSH2 0x44F JUMP JUMPDEST PUSH2 0x36A DUP2 PUSH2 0x557 JUMP JUMPDEST DUP5 ADD SWAP2 POP POP SWAP3 SWAP2 POP POP JUMP JUMPDEST PUSH2 0x37E DUP2 PUSH2 0x433 JUMP JUMPDEST DUP3 MSTORE POP POP JUMP JUMPDEST PUSH1 0x0 PUSH1 0x20 DUP3 ADD SWAP1 POP DUP2 DUP2 SUB PUSH1 0x0 DUP4 ADD MSTORE PUSH2 0x39E DUP2 DUP5 PUSH2 0x33C JUMP JUMPDEST SWAP1 POP SWAP3 SWAP2 POP POP JUMP JUMPDEST PUSH1 0x0 PUSH1 0x20 DUP3 ADD SWAP1 POP PUSH2 0x3BB PUSH1 0x0 DUP4 ADD DUP5 PUSH2 0x375 JUMP JUMPDEST SWAP3 SWAP2 POP POP JUMP JUMPDEST PUSH1 0x0 PUSH2 0x3CB PUSH2 0x3DC JUMP JUMPDEST SWAP1 POP PUSH2 0x3D7 DUP3 DUP3 PUSH2 0x4B4 JUMP JUMPDEST SWAP2 SWAP1 POP JUMP JUMPDEST PUSH1 0x0 PUSH1 0x40 MLOAD SWAP1 POP SWAP1 JUMP JUMPDEST PUSH1 0x0 PUSH8 0xFFFFFFFFFFFFFFFF DUP3 GT ISZERO PUSH2 0x401 JUMPI PUSH2 0x400 PUSH2 0x514 JUMP JUMPDEST JUMPDEST PUSH2 0x40A DUP3 PUSH2 0x557 JUMP JUMPDEST SWAP1 POP PUSH1 0x20 DUP2 ADD SWAP1 POP SWAP2 SWAP1 POP JUMP JUMPDEST PUSH1 0x0 DUP2 MLOAD SWAP1 POP SWAP2 SWAP1 POP JUMP JUMPDEST PUSH1 0x0 DUP3 DUP3 MSTORE PUSH1 0x20 DUP3 ADD SWAP1 POP SWAP3 SWAP2 POP POP JUMP JUMPDEST PUSH1 0x0 PUSH1 0xFF DUP3 AND SWAP1 POP SWAP2 SWAP1 POP JUMP JUMPDEST DUP3 DUP2 DUP4 CALLDATACOPY PUSH1 0x0 DUP4 DUP4 ADD MSTORE POP POP POP JUMP JUMPDEST PUSH1 0x0 JUMPDEST DUP4 DUP2 LT ISZERO PUSH2 0x46D JUMPI DUP1 DUP3 ADD MLOAD DUP2 DUP5 ADD MSTORE PUSH1 0x20 DUP2 ADD SWAP1 POP PUSH2 0x452 JUMP JUMPDEST DUP4 DUP2 GT ISZERO PUSH2 0x47C JUMPI PUSH1 0x0 DUP5 DUP5 ADD MSTORE JUMPDEST POP POP POP POP JUMP JUMPDEST PUSH1 0x0 PUSH1 0x2 DUP3 DIV SWAP1 POP PUSH1 0x1 DUP3 AND DUP1 PUSH2 0x49A JUMPI PUSH1 0x7F DUP3 AND SWAP2 POP JUMPDEST PUSH1 0x20 DUP3 LT DUP2 EQ ISZERO PUSH2 0x4AE JUMPI PUSH2 0x4AD PUSH2 0x4E5 JUMP JUMPDEST JUMPDEST POP SWAP2 SWAP1 POP JUMP JUMPDEST PUSH2 0x4BD DUP3 PUSH2 0x557 JUMP JUMPDEST DUP2 ADD DUP2 DUP2 LT PUSH8 0xFFFFFFFFFFFFFFFF DUP3 GT OR ISZERO PUSH2 0x4DC JUMPI PUSH2 0x4DB PUSH2 0x514 JUMP JUMPDEST JUMPDEST DUP1 PUSH1 0x40 MSTORE POP POP POP JUMP JUMPDEST PUSH32 0x4E487B7100000000000000000000000000000000000000000000000000000000 PUSH1 0x0 MSTORE PUSH1 0x22 PUSH1 0x4 MSTORE PUSH1 0x24 PUSH1 0x0 REVERT JUMPDEST PUSH32 0x4E487B7100000000000000000000000000000000000000000000000000000000 PUSH1 0x0 MSTORE PUSH1 0x41 PUSH1 0x4 MSTORE PUSH1 0x24 PUSH1 0x0 REVERT JUMPDEST PUSH1 0x0 DUP1 REVERT JUMPDEST PUSH1 0x0 DUP1 REVERT JUMPDEST PUSH1 0x0 DUP1 REVERT JUMPDEST PUSH1 0x0 DUP1 REVERT JUMPDEST PUSH1 0x0 PUSH1 0x1F NOT PUSH1 0x1F DUP4 ADD AND SWAP1 POP SWAP2 SWAP1 POP JUMP JUMPDEST PUSH2 0x571 DUP2 PUSH2 0x433 JUMP JUMPDEST DUP2 EQ PUSH2 0x57C JUMPI PUSH1 0x0 DUP1 REVERT JUMPDEST POP JUMP INVALID LOG2 PUSH5 0x6970667358 0x22 SLT KECCAK256 AND 0xD5 PUSH24 0x841BD54E7EA4976D4C7A7112B0B44FA3B5ADDEA02384D79F 0x25 SMOD DUP1 0xD2 EQ PUSH5 0x736F6C6343 STOP ADDMOD SMOD STOP CALLER "
				},
				"gasEstimates": {
					"creation": {
						"codeDepositCost": "292200",
						"executionCost": "infinite",
						"totalCost": "infinite"
					},
					"external": {
						"age()": "2449",
						"setAge(uint8)": "24701",
						"setUser(string)": "infinite",
						"user()": "infinite"
					}
				},
				"methodIdentifiers": {
					"age()": "262a9dff",
					"setAge(uint8)": "5b0c8d70",
					"setUser(string)": "d0020fad",
					"user()": "4f8632ba"
				}
			},
			"storageLayout": {
				"storage": [
					{
						"astId": 3,
						"contract": "extends.sol:Person",
						"label": "user",
						"offset": 0,
						"slot": "0",
						"type": "t_string_storage"
					},
					{
						"astId": 5,
						"contract": "extends.sol:Person",
						"label": "age",
						"offset": 0,
						"slot": "1",
						"type": "t_uint8"
					}
				],
				"types": {
					"t_string_storage": {
						"encoding": "bytes",
						"label": "string",
						"numberOfBytes": "32"
					},
					"t_uint8": {
						"encoding": "inplace",
						"label": "uint8",
						"numberOfBytes": "1"
					}
				}
			},
			"userdoc": {
				"kind": "user",
				"methods": {},
				"version": 1
			}
		}
	}
}