{
	"delegatecall.sol": {
		"Data": {
			"abi": [
				{
					"inputs": [],
					"name": "f",
					"outputs": [],
					"stateMutability": "nonpayable",
					"type": "function"
				},
				{
					"inputs": [],
					"name": "getN",
					"outputs": [
						{
							"internalType": "uint256",
							"name": "",
							"type": "uint256"
						}
					],
					"stateMutability": "view",
					"type": "function"
				}
			],
			"devdoc": {
				"kind": "dev",
				"methods": {},
				"version": 1
			},
			"evm": {
				"assembly": "    /* \"delegatecall.sol\":63:225  contract Data {... */\n  mstore(0x40, 0x80)\n  callvalue\n  dup1\n  iszero\n  tag_1\n  jumpi\n  0x00\n  dup1\n  revert\ntag_1:\n  pop\n  dataSize(sub_0)\n  dup1\n  dataOffset(sub_0)\n  0x00\n  codecopy\n  0x00\n  return\nstop\n\nsub_0: assembly {\n        /* \"delegatecall.sol\":63:225  contract Data {... */\n      mstore(0x40, 0x80)\n      callvalue\n      dup1\n      iszero\n      tag_1\n      jumpi\n      0x00\n      dup1\n      revert\n    tag_1:\n      pop\n      jumpi(tag_2, lt(calldatasize, 0x04))\n      shr(0xe0, calldataload(0x00))\n      dup1\n      0x26121ff0\n      eq\n      tag_3\n      jumpi\n      dup1\n      0x3e955225\n      eq\n      tag_4\n      jumpi\n    tag_2:\n      0x00\n      dup1\n      revert\n        /* \"delegatecall.sol\":99:145  function f() public {... */\n    tag_3:\n      tag_5\n      tag_6\n      jump\t// in\n    tag_5:\n      stop\n        /* \"delegatecall.sol\":153:222  function getN() public view returns (uint){... */\n    tag_4:\n      tag_7\n      tag_8\n      jump\t// in\n    tag_7:\n      mload(0x40)\n      tag_9\n      swap2\n      swap1\n      tag_10\n      jump\t// in\n    tag_9:\n      mload(0x40)\n      dup1\n      swap2\n      sub\n      swap1\n      return\n        /* \"delegatecall.sol\":99:145  function f() public {... */\n    tag_6:\n        /* \"delegatecall.sol\":136:137  n */\n      sload(0x00)\n        /* \"delegatecall.sol\":134:135  n */\n      sload(0x00)\n        /* \"delegatecall.sol\":134:137  n*n */\n      tag_12\n      swap2\n      swap1\n      tag_13\n      jump\t// in\n    tag_12:\n        /* \"delegatecall.sol\":130:131  n */\n      0x00\n        /* \"delegatecall.sol\":130:137  n = n*n */\n      dup2\n      swap1\n      sstore\n      pop\n        /* \"delegatecall.sol\":99:145  function f() public {... */\n      jump\t// out\n        /* \"delegatecall.sol\":153:222  function getN() public view returns (uint){... */\n    tag_8:\n        /* \"delegatecall.sol\":190:194  uint */\n      0x00\n        /* \"delegatecall.sol\":213:214  n */\n      dup1\n      sload\n        /* \"delegatecall.sol\":206:214  return n */\n      swap1\n      pop\n        /* \"delegatecall.sol\":153:222  function getN() public view returns (uint){... */\n      swap1\n      jump\t// out\n        /* \"#utility.yul\":7:84   */\n    tag_15:\n        /* \"#utility.yul\":44:51   */\n      0x00\n        /* \"#utility.yul\":73:78   */\n      dup2\n        /* \"#utility.yul\":62:78   */\n      swap1\n      pop\n        /* \"#utility.yul\":7:84   */\n      swap2\n      swap1\n      pop\n      jump\t// out\n        /* \"#utility.yul\":90:208   */\n    tag_16:\n        /* \"#utility.yul\":177:201   */\n      tag_21\n        /* \"#utility.yul\":195:200   */\n      dup2\n        /* \"#utility.yul\":177:201   */\n      tag_15\n      jump\t// in\n    tag_21:\n        /* \"#utility.yul\":172:175   */\n      dup3\n        /* \"#utility.yul\":165:202   */\n      mstore\n        /* \"#utility.yul\":90:208   */\n      pop\n      pop\n      jump\t// out\n        /* \"#utility.yul\":214:436   */\n    tag_10:\n        /* \"#utility.yul\":307:311   */\n      0x00\n        /* \"#utility.yul\":345:347   */\n      0x20\n        /* \"#utility.yul\":334:343   */\n      dup3\n        /* \"#utility.yul\":330:348   */\n      add\n        /* \"#utility.yul\":322:348   */\n      swap1\n      pop\n        /* \"#utility.yul\":358:429   */\n      tag_23\n        /* \"#utility.yul\":426:427   */\n      0x00\n        /* \"#utility.yul\":415:424   */\n      dup4\n        /* \"#utility.yul\":411:428   */\n      add\n        /* \"#utility.yul\":402:408   */\n      dup5\n        /* \"#utility.yul\":358:429   */\n      tag_16\n      jump\t// in\n    tag_23:\n        /* \"#utility.yul\":214:436   */\n      swap3\n      swap2\n      pop\n      pop\n      jump\t// out\n        /* \"#utility.yul\":442:622   */\n    tag_17:\n        /* \"#utility.yul\":490:567   */\n      0x4e487b7100000000000000000000000000000000000000000000000000000000\n        /* \"#utility.yul\":487:488   */\n      0x00\n        /* \"#utility.yul\":480:568   */\n      mstore\n        /* \"#utility.yul\":587:591   */\n      0x11\n        /* \"#utility.yul\":584:585   */\n      0x04\n        /* \"#utility.yul\":577:592   */\n      mstore\n        /* \"#utility.yul\":611:615   */\n      0x24\n        /* \"#utility.yul\":608:609   */\n      0x00\n        /* \"#utility.yul\":601:616   */\n      revert\n        /* \"#utility.yul\":628:976   */\n    tag_13:\n        /* \"#utility.yul\":668:675   */\n      0x00\n        /* \"#utility.yul\":691:711   */\n      tag_26\n        /* \"#utility.yul\":709:710   */\n      dup3\n        /* \"#utility.yul\":691:711   */\n      tag_15\n      jump\t// in\n    tag_26:\n        /* \"#utility.yul\":686:711   */\n      swap2\n      pop\n        /* \"#utility.yul\":725:745   */\n      tag_27\n        /* \"#utility.yul\":743:744   */\n      dup4\n        /* \"#utility.yul\":725:745   */\n      tag_15\n      jump\t// in\n    tag_27:\n        /* \"#utility.yul\":720:745   */\n      swap3\n      pop\n        /* \"#utility.yul\":913:914   */\n      dup2\n        /* \"#utility.yul\":845:911   */\n      0xffffffffffffffffffffffffffffffffffffffffffffffffffffffffffffffff\n        /* \"#utility.yul\":841:915   */\n      div\n        /* \"#utility.yul\":838:839   */\n      dup4\n        /* \"#utility.yul\":835:916   */\n      gt\n        /* \"#utility.yul\":830:831   */\n      dup3\n        /* \"#utility.yul\":823:832   */\n      iszero\n        /* \"#utility.yul\":816:833   */\n      iszero\n        /* \"#utility.yul\":812:917   */\n      and\n        /* \"#utility.yul\":809:940   */\n      iszero\n      tag_28\n      jumpi\n        /* \"#utility.yul\":920:938   */\n      tag_29\n      tag_17\n      jump\t// in\n    tag_29:\n        /* \"#utility.yul\":809:940   */\n    tag_28:\n        /* \"#utility.yul\":968:969   */\n      dup3\n        /* \"#utility.yul\":965:966   */\n      dup3\n        /* \"#utility.yul\":961:970   */\n      mul\n        /* \"#utility.yul\":950:970   */\n      swap1\n      pop\n        /* \"#utility.yul\":628:976   */\n      swap3\n      swap2\n      pop\n      pop\n      jump\t// out\n\n    auxdata: 0xa2646970667358221220ec9e62e6af2fb84c469ca38a9d2686024c7a6b7d90dc6e4f527e85e70a84708864736f6c63430008100033\n}\n",
				"bytecode": {
					"linkReferences": {},
					"object": "608060405234801561001057600080fd5b50610177806100206000396000f3fe608060405234801561001057600080fd5b50600436106100365760003560e01c806326121ff01461003b5780633e95522514610045575b600080fd5b610043610063565b005b61004d61007b565b60405161005a919061009d565b60405180910390f35b60005460005461007391906100e7565b600081905550565b60008054905090565b6000819050919050565b61009781610084565b82525050565b60006020820190506100b2600083018461008e565b92915050565b7f4e487b7100000000000000000000000000000000000000000000000000000000600052601160045260246000fd5b60006100f282610084565b91506100fd83610084565b9250817fffffffffffffffffffffffffffffffffffffffffffffffffffffffffffffffff0483118215151615610136576101356100b8565b5b82820290509291505056fea2646970667358221220ec9e62e6af2fb84c469ca38a9d2686024c7a6b7d90dc6e4f527e85e70a84708864736f6c63430008100033",
					"opcodes": "PUSH1 0x80 PUSH1 0x40 MSTORE CALLVALUE DUP1 ISZERO PUSH2 0x10 JUMPI PUSH1 0x0 DUP1 REVERT JUMPDEST POP PUSH2 0x177 DUP1 PUSH2 0x20 PUSH1 0x0 CODECOPY PUSH1 0x0 RETURN INVALID PUSH1 0x80 PUSH1 0x40 MSTORE CALLVALUE DUP1 ISZERO PUSH2 0x10 JUMPI PUSH1 0x0 DUP1 REVERT JUMPDEST POP PUSH1 0x4 CALLDATASIZE LT PUSH2 0x36 JUMPI PUSH1 0x0 CALLDATALOAD PUSH1 0xE0 SHR DUP1 PUSH4 0x26121FF0 EQ PUSH2 0x3B JUMPI DUP1 PUSH4 0x3E955225 EQ PUSH2 0x45 JUMPI JUMPDEST PUSH1 0x0 DUP1 REVERT JUMPDEST PUSH2 0x43 PUSH2 0x63 JUMP JUMPDEST STOP JUMPDEST PUSH2 0x4D PUSH2 0x7B JUMP JUMPDEST PUSH1 0x40 MLOAD PUSH2 0x5A SWAP2 SWAP1 PUSH2 0x9D JUMP JUMPDEST PUSH1 0x40 MLOAD DUP1 SWAP2 SUB SWAP1 RETURN JUMPDEST PUSH1 0x0 SLOAD PUSH1 0x0 SLOAD PUSH2 0x73 SWAP2 SWAP1 PUSH2 0xE7 JUMP JUMPDEST PUSH1 0x0 DUP2 SWAP1 SSTORE POP JUMP JUMPDEST PUSH1 0x0 DUP1 SLOAD SWAP1 POP SWAP1 JUMP JUMPDEST PUSH1 0x0 DUP2 SWAP1 POP SWAP2 SWAP1 POP JUMP JUMPDEST PUSH2 0x97 DUP2 PUSH2 0x84 JUMP JUMPDEST DUP3 MSTORE POP POP JUMP JUMPDEST PUSH1 0x0 PUSH1 0x20 DUP3 ADD SWAP1 POP PUSH2 0xB2 PUSH1 0x0 DUP4 ADD DUP5 PUSH2 0x8E JUMP JUMPDEST SWAP3 SWAP2 POP POP JUMP JUMPDEST PUSH32 0x4E487B7100000000000000000000000000000000000000000000000000000000 PUSH1 0x0 MSTORE PUSH1 0x11 PUSH1 0x4 MSTORE PUSH1 0x24 PUSH1 0x0 REVERT JUMPDEST PUSH1 0x0 PUSH2 0xF2 DUP3 PUSH2 0x84 JUMP JUMPDEST SWAP2 POP PUSH2 0xFD DUP4 PUSH2 0x84 JUMP JUMPDEST SWAP3 POP DUP2 PUSH32 0xFFFFFFFFFFFFFFFFFFFFFFFFFFFFFFFFFFFFFFFFFFFFFFFFFFFFFFFFFFFFFFFF DIV DUP4 GT DUP3 ISZERO ISZERO AND ISZERO PUSH2 0x136 JUMPI PUSH2 0x135 PUSH2 0xB8 JUMP JUMPDEST JUMPDEST DUP3 DUP3 MUL SWAP1 POP SWAP3 SWAP2 POP POP JUMP INVALID LOG2 PUSH5 0x6970667358 0x22 SLT KECCAK256 0xEC SWAP15 PUSH3 0xE6AF2F 0xB8 0x4C CHAINID SWAP13 LOG3 DUP11 SWAP14 0x26 DUP7 MUL 0x4C PUSH27 0x6B7D90DC6E4F527E85E70A84708864736F6C634300081000330000 "
				},
				"gasEstimates": {
					"creation": {
						"codeDepositCost": "75000",
						"executionCost": "123",
						"totalCost": "75123"
					},
					"external": {
						"f()": "infinite",
						"getN()": "2437"
					}
				},
				"methodIdentifiers": {
					"f()": "26121ff0",
					"getN()": "3e955225"
				}
			},
			"storageLayout": {
				"storage": [
					{
						"astId": 3,
						"contract": "delegatecall.sol:Data",
						"label": "n",
						"offset": 0,
						"slot": "0",
						"type": "t_uint256"
					}
				],
				"types": {
					"t_uint256": {
						"encoding": "inplace",
						"label": "uint256",
						"numberOfBytes": "32"
					}
				}
			},
			"userdoc": {
				"kind": "user",
				"methods": {},
				"version": 1
			}
		}
	}
}