{
	"crowdfunding.sol": {
		"CrowdfundingContract": {
			"abi": [
				{
					"inputs": [
						{
							"internalType": "string",
							"name": "_title",
							"type": "string"
						},
						{
							"internalType": "address",
							"name": "_recipient",
							"type": "address"
						},
						{
							"internalType": "string",
							"name": "_expectAmout",
							"type": "string"
						}
					],
					"name": "createCrowdfunding",
					"outputs": [],
					"stateMutability": "nonpayable",
					"type": "function"
				},
				{
					"inputs": [
						{
							"internalType": "uint256",
							"name": "_status",
							"type": "uint256"
						}
					],
					"name": "getCrowdfundingByStatus",
					"outputs": [
						{
							"components": [
								{
									"internalType": "uint256",
									"name": "num",
									"type": "uint256"
								},
								{
									"internalType": "string",
									"name": "title",
									"type": "string"
								},
								{
									"internalType": "uint256",
									"name": "status",
									"type": "uint256"
								},
								{
									"internalType": "address",
									"name": "creator",
									"type": "address"
								},
								{
									"internalType": "address",
									"name": "recipient",
									"type": "address"
								},
								{
									"internalType": "uint256",
									"name": "joinNum",
									"type": "uint256"
								},
								{
									"internalType": "string",
									"name": "expectAmout",
									"type": "string"
								},
								{
									"internalType": "string",
									"name": "actualAmount",
									"type": "string"
								}
							],
							"internalType": "struct CrowdfundingContract.Crowdfunding[]",
							"name": "",
							"type": "tuple[]"
						}
					],
					"stateMutability": "view",
					"type": "function"
				},
				{
					"inputs": [],
					"name": "getList",
					"outputs": [
						{
							"components": [
								{
									"internalType": "uint256",
									"name": "num",
									"type": "uint256"
								},
								{
									"internalType": "string",
									"name": "title",
									"type": "string"
								},
								{
									"internalType": "uint256",
									"name": "status",
									"type": "uint256"
								},
								{
									"internalType": "address",
									"name": "creator",
									"type": "address"
								},
								{
									"internalType": "address",
									"name": "recipient",
									"type": "address"
								},
								{
									"internalType": "uint256",
									"name": "joinNum",
									"type": "uint256"
								},
								{
									"internalType": "string",
									"name": "expectAmout",
									"type": "string"
								},
								{
									"internalType": "string",
									"name": "actualAmount",
									"type": "string"
								}
							],
							"internalType": "struct CrowdfundingContract.Crowdfunding[]",
							"name": "",
							"type": "tuple[]"
						}
					],
					"stateMutability": "view",
					"type": "function"
				},
				{
					"inputs": [
						{
							"internalType": "uint256",
							"name": "",
							"type": "uint256"
						}
					],
					"name": "list",
					"outputs": [
						{
							"internalType": "uint256",
							"name": "num",
							"type": "uint256"
						},
						{
							"internalType": "string",
							"name": "title",
							"type": "string"
						},
						{
							"internalType": "uint256",
							"name": "status",
							"type": "uint256"
						},
						{
							"internalType": "address",
							"name": "creator",
							"type": "address"
						},
						{
							"internalType": "address",
							"name": "recipient",
							"type": "address"
						},
						{
							"internalType": "uint256",
							"name": "joinNum",
							"type": "uint256"
						},
						{
							"internalType": "string",
							"name": "expectAmout",
							"type": "string"
						},
						{
							"internalType": "string",
							"name": "actualAmount",
							"type": "string"
						}
					],
					"stateMutability": "view",
					"type": "function"
				}
			],
			"devdoc": {
				"kind": "dev",
				"methods": {},
				"version": 1
			},
			"evm": {
				"assembly": "    /* \"crowdfunding.sol\":60:1626  contract CrowdfundingContract {... */\n  mstore(0x40, 0x80)\n  callvalue\n  dup1\n  iszero\n  tag_1\n  jumpi\n  0x00\n  dup1\n  revert\ntag_1:\n  pop\n  dataSize(sub_0)\n  dup1\n  dataOffset(sub_0)\n  0x00\n  codecopy\n  0x00\n  return\nstop\n\nsub_0: assembly {\n        /* \"crowdfunding.sol\":60:1626  contract CrowdfundingContract {... */\n      mstore(0x40, 0x80)\n      callvalue\n      dup1\n      iszero\n      tag_1\n      jumpi\n      0x00\n      dup1\n      revert\n    tag_1:\n      pop\n      jumpi(tag_2, lt(calldatasize, 0x04))\n      shr(0xe0, calldataload(0x00))\n      dup1\n      0x80c9419e\n      eq\n      tag_3\n      jumpi\n      dup1\n      0x904cc175\n      eq\n      tag_4\n      jumpi\n      dup1\n      0x942b765a\n      eq\n      tag_5\n      jumpi\n      dup1\n      0xa97af4d5\n      eq\n      tag_6\n      jumpi\n    tag_2:\n      0x00\n      dup1\n      revert\n        /* \"crowdfunding.sol\":583:609  Crowdfunding[] public list */\n    tag_3:\n      tag_7\n      0x04\n      dup1\n      calldatasize\n      sub\n      dup2\n      add\n      swap1\n      tag_8\n      swap2\n      swap1\n      tag_9\n      jump\t// in\n    tag_8:\n      tag_10\n      jump\t// in\n    tag_7:\n      mload(0x40)\n      tag_11\n      swap9\n      swap8\n      swap7\n      swap6\n      swap5\n      swap4\n      swap3\n      swap2\n      swap1\n      tag_12\n      jump\t// in\n    tag_11:\n      mload(0x40)\n      dup1\n      swap2\n      sub\n      swap1\n      return\n        /* \"crowdfunding.sol\":1273:1621  function getCrowdfundingByStatus(uint _status) public view returns (Crowdfunding[] memory){... */\n    tag_4:\n      tag_13\n      0x04\n      dup1\n      calldatasize\n      sub\n      dup2\n      add\n      swap1\n      tag_14\n      swap2\n      swap1\n      tag_9\n      jump\t// in\n    tag_14:\n      tag_15\n      jump\t// in\n    tag_13:\n      mload(0x40)\n      tag_16\n      swap2\n      swap1\n      tag_17\n      jump\t// in\n    tag_16:\n      mload(0x40)\n      dup1\n      swap2\n      sub\n      swap1\n      return\n        /* \"crowdfunding.sol\":1172:1265  function getList() public view returns (Crowdfunding[] memory) {... */\n    tag_5:\n      tag_18\n      tag_19\n      jump\t// in\n    tag_18:\n      mload(0x40)\n      tag_20\n      swap2\n      swap1\n      tag_17\n      jump\t// in\n    tag_20:\n      mload(0x40)\n      dup1\n      swap2\n      sub\n      swap1\n      return\n        /* \"crowdfunding.sol\":666:1164  function createCrowdfunding(string memory _title,address _recipient, string memory _expectAmout) public {... */\n    tag_6:\n      tag_21\n      0x04\n      dup1\n      calldatasize\n      sub\n      dup2\n      add\n      swap1\n      tag_22\n      swap2\n      swap1\n      tag_23\n      jump\t// in\n    tag_22:\n      tag_24\n      jump\t// in\n    tag_21:\n      stop\n        /* \"crowdfunding.sol\":583:609  Crowdfunding[] public list */\n    tag_10:\n      0x01\n      dup2\n      dup2\n      sload\n      dup2\n      lt\n      tag_25\n      jumpi\n      0x00\n      dup1\n      revert\n    tag_25:\n      swap1\n      0x00\n      mstore\n      keccak256(0x00, 0x20)\n      swap1\n      0x08\n      mul\n      add\n      0x00\n      swap2\n      pop\n      swap1\n      pop\n      dup1\n      0x00\n      add\n      sload\n      swap1\n      dup1\n      0x01\n      add\n      dup1\n      sload\n      tag_27\n      swap1\n      tag_28\n      jump\t// in\n    tag_27:\n      dup1\n      0x1f\n      add\n      0x20\n      dup1\n      swap2\n      div\n      mul\n      0x20\n      add\n      mload(0x40)\n      swap1\n      dup2\n      add\n      0x40\n      mstore\n      dup1\n      swap3\n      swap2\n      swap1\n      dup2\n      dup2\n      mstore\n      0x20\n      add\n      dup3\n      dup1\n      sload\n      tag_29\n      swap1\n      tag_28\n      jump\t// in\n    tag_29:\n      dup1\n      iszero\n      tag_30\n      jumpi\n      dup1\n      0x1f\n      lt\n      tag_31\n      jumpi\n      0x0100\n      dup1\n      dup4\n      sload\n      div\n      mul\n      dup4\n      mstore\n      swap2\n      0x20\n      add\n      swap2\n      jump(tag_30)\n    tag_31:\n      dup3\n      add\n      swap2\n      swap1\n      0x00\n      mstore\n      keccak256(0x00, 0x20)\n      swap1\n    tag_32:\n      dup2\n      sload\n      dup2\n      mstore\n      swap1\n      0x01\n      add\n      swap1\n      0x20\n      add\n      dup1\n      dup4\n      gt\n      tag_32\n      jumpi\n      dup3\n      swap1\n      sub\n      0x1f\n      and\n      dup3\n      add\n      swap2\n    tag_30:\n      pop\n      pop\n      pop\n      pop\n      pop\n      swap1\n      dup1\n      0x02\n      add\n      sload\n      swap1\n      dup1\n      0x03\n      add\n      0x00\n      swap1\n      sload\n      swap1\n      0x0100\n      exp\n      swap1\n      div\n      0xffffffffffffffffffffffffffffffffffffffff\n      and\n      swap1\n      dup1\n      0x04\n      add\n      0x00\n      swap1\n      sload\n      swap1\n      0x0100\n      exp\n      swap1\n      div\n      0xffffffffffffffffffffffffffffffffffffffff\n      and\n      swap1\n      dup1\n      0x05\n      add\n      sload\n      swap1\n      dup1\n      0x06\n      add\n      dup1\n      sload\n      tag_33\n      swap1\n      tag_28\n      jump\t// in\n    tag_33:\n      dup1\n      0x1f\n      add\n      0x20\n      dup1\n      swap2\n      div\n      mul\n      0x20\n      add\n      mload(0x40)\n      swap1\n      dup2\n      add\n      0x40\n      mstore\n      dup1\n      swap3\n      swap2\n      swap1\n      dup2\n      dup2\n      mstore\n      0x20\n      add\n      dup3\n      dup1\n      sload\n      tag_34\n      swap1\n      tag_28\n      jump\t// in\n    tag_34:\n      dup1\n      iszero\n      tag_35\n      jumpi\n      dup1\n      0x1f\n      lt\n      tag_36\n      jumpi\n      0x0100\n      dup1\n      dup4\n      sload\n      div\n      mul\n      dup4\n      mstore\n      swap2\n      0x20\n      add\n      swap2\n      jump(tag_35)\n    tag_36:\n      dup3\n      add\n      swap2\n      swap1\n      0x00\n      mstore\n      keccak256(0x00, 0x20)\n      swap1\n    tag_37:\n      dup2\n      sload\n      dup2\n      mstore\n      swap1\n      0x01\n      add\n      swap1\n      0x20\n      add\n      dup1\n      dup4\n      gt\n      tag_37\n      jumpi\n      dup3\n      swap1\n      sub\n      0x1f\n      and\n      dup3\n      add\n      swap2\n    tag_35:\n      pop\n      pop\n      pop\n      pop\n      pop\n      swap1\n      dup1\n      0x07\n      add\n      dup1\n      sload\n      tag_38\n      swap1\n      tag_28\n      jump\t// in\n    tag_38:\n      dup1\n      0x1f\n      add\n      0x20\n      dup1\n      swap2\n      div\n      mul\n      0x20\n      add\n      mload(0x40)\n      swap1\n      dup2\n      add\n      0x40\n      mstore\n      dup1\n      swap3\n      swap2\n      swap1\n      dup2\n      dup2\n      mstore\n      0x20\n      add\n      dup3\n      dup1\n      sload\n      tag_39\n      swap1\n      tag_28\n      jump\t// in\n    tag_39:\n      dup1\n      iszero\n      tag_40\n      jumpi\n      dup1\n      0x1f\n      lt\n      tag_41\n      jumpi\n      0x0100\n      dup1\n      dup4\n      sload\n      div\n      mul\n      dup4\n      mstore\n      swap2\n      0x20\n      add\n      swap2\n      jump(tag_40)\n    tag_41:\n      dup3\n      add\n      swap2\n      swap1\n      0x00\n      mstore\n      keccak256(0x00, 0x20)\n      swap1\n    tag_42:\n      dup2\n      sload\n      dup2\n      mstore\n      swap1\n      0x01\n      add\n      swap1\n      0x20\n      add\n      dup1\n      dup4\n      gt\n      tag_42\n      jumpi\n      dup3\n      swap1\n      sub\n      0x1f\n      and\n      dup3\n      add\n      swap2\n    tag_40:\n      pop\n      pop\n      pop\n      pop\n      pop\n      swap1\n      pop\n      dup9\n      jump\t// out\n        /* \"crowdfunding.sol\":1273:1621  function getCrowdfundingByStatus(uint _status) public view returns (Crowdfunding[] memory){... */\n    tag_15:\n        /* \"crowdfunding.sol\":1341:1362  Crowdfunding[] memory */\n      0x60\n        /* \"crowdfunding.sol\":1374:1399  Crowdfunding[] memory arr */\n      0x00\n        /* \"crowdfunding.sol\":1421:1425  list */\n      0x01\n        /* \"crowdfunding.sol\":1421:1432  list.length */\n      dup1\n      sload\n      swap1\n      pop\n        /* \"crowdfunding.sol\":1402:1433  new Crowdfunding[](list.length) */\n      0xffffffffffffffff\n      dup2\n      gt\n      iszero\n      tag_44\n      jumpi\n      tag_45\n      tag_46\n      jump\t// in\n    tag_45:\n    tag_44:\n      mload(0x40)\n      swap1\n      dup1\n      dup3\n      mstore\n      dup1\n      0x20\n      mul\n      0x20\n      add\n      dup3\n      add\n      0x40\n      mstore\n      dup1\n      iszero\n      tag_47\n      jumpi\n      dup2\n      0x20\n      add\n    tag_48:\n      tag_49\n      tag_50\n      jump\t// in\n    tag_49:\n      dup2\n      mstore\n      0x20\n      add\n      swap1\n      0x01\n      swap1\n      sub\n      swap1\n      dup2\n      tag_48\n      jumpi\n      swap1\n      pop\n    tag_47:\n      pop\n        /* \"crowdfunding.sol\":1374:1433  Crowdfunding[] memory arr = new Crowdfunding[](list.length) */\n      swap1\n      pop\n        /* \"crowdfunding.sol\":1450:1456  uint i */\n      0x00\n        /* \"crowdfunding.sol\":1446:1591  for(uint i = 0; i < list.length ; i++){... */\n    tag_51:\n        /* \"crowdfunding.sol\":1466:1470  list */\n      0x01\n        /* \"crowdfunding.sol\":1466:1477  list.length */\n      dup1\n      sload\n      swap1\n      pop\n        /* \"crowdfunding.sol\":1462:1463  i */\n      dup2\n        /* \"crowdfunding.sol\":1462:1477  i < list.length */\n      lt\n        /* \"crowdfunding.sol\":1446:1591  for(uint i = 0; i < list.length ; i++){... */\n      iszero\n      tag_52\n      jumpi\n        /* \"crowdfunding.sol\":1520:1527  _status */\n      dup4\n        /* \"crowdfunding.sol\":1502:1506  list */\n      0x01\n        /* \"crowdfunding.sol\":1507:1508  i */\n      dup3\n        /* \"crowdfunding.sol\":1502:1509  list[i] */\n      dup2\n      sload\n      dup2\n      lt\n      tag_54\n      jumpi\n      tag_55\n      tag_56\n      jump\t// in\n    tag_55:\n    tag_54:\n      swap1\n      0x00\n      mstore\n      keccak256(0x00, 0x20)\n      swap1\n      0x08\n      mul\n      add\n        /* \"crowdfunding.sol\":1502:1516  list[i].status */\n      0x02\n      add\n      sload\n        /* \"crowdfunding.sol\":1502:1527  list[i].status == _status */\n      sub\n        /* \"crowdfunding.sol\":1499:1580  if(list[i].status == _status) {... */\n      tag_58\n      jumpi\n        /* \"crowdfunding.sol\":1557:1561  list */\n      0x01\n        /* \"crowdfunding.sol\":1562:1563  i */\n      dup2\n        /* \"crowdfunding.sol\":1557:1564  list[i] */\n      dup2\n      sload\n      dup2\n      lt\n      tag_59\n      jumpi\n      tag_60\n      tag_56\n      jump\t// in\n    tag_60:\n    tag_59:\n      swap1\n      0x00\n      mstore\n      keccak256(0x00, 0x20)\n      swap1\n      0x08\n      mul\n      add\n        /* \"crowdfunding.sol\":1548:1564  arr[i] = list[i] */\n      mload(0x40)\n      dup1\n      0x0100\n      add\n      0x40\n      mstore\n      swap1\n      dup2\n      0x00\n      dup3\n      add\n      sload\n      dup2\n      mstore\n      0x20\n      add\n      0x01\n      dup3\n      add\n      dup1\n      sload\n      tag_62\n      swap1\n      tag_28\n      jump\t// in\n    tag_62:\n      dup1\n      0x1f\n      add\n      0x20\n      dup1\n      swap2\n      div\n      mul\n      0x20\n      add\n      mload(0x40)\n      swap1\n      dup2\n      add\n      0x40\n      mstore\n      dup1\n      swap3\n      swap2\n      swap1\n      dup2\n      dup2\n      mstore\n      0x20\n      add\n      dup3\n      dup1\n      sload\n      tag_63\n      swap1\n      tag_28\n      jump\t// in\n    tag_63:\n      dup1\n      iszero\n      tag_64\n      jumpi\n      dup1\n      0x1f\n      lt\n      tag_65\n      jumpi\n      0x0100\n      dup1\n      dup4\n      sload\n      div\n      mul\n      dup4\n      mstore\n      swap2\n      0x20\n      add\n      swap2\n      jump(tag_64)\n    tag_65:\n      dup3\n      add\n      swap2\n      swap1\n      0x00\n      mstore\n      keccak256(0x00, 0x20)\n      swap1\n    tag_66:\n      dup2\n      sload\n      dup2\n      mstore\n      swap1\n      0x01\n      add\n      swap1\n      0x20\n      add\n      dup1\n      dup4\n      gt\n      tag_66\n      jumpi\n      dup3\n      swap1\n      sub\n      0x1f\n      and\n      dup3\n      add\n      swap2\n    tag_64:\n      pop\n      pop\n      pop\n      pop\n      pop\n      dup2\n      mstore\n      0x20\n      add\n      0x02\n      dup3\n      add\n      sload\n      dup2\n      mstore\n      0x20\n      add\n      0x03\n      dup3\n      add\n      0x00\n      swap1\n      sload\n      swap1\n      0x0100\n      exp\n      swap1\n      div\n      0xffffffffffffffffffffffffffffffffffffffff\n      and\n      0xffffffffffffffffffffffffffffffffffffffff\n      and\n      0xffffffffffffffffffffffffffffffffffffffff\n      and\n      dup2\n      mstore\n      0x20\n      add\n      0x04\n      dup3\n      add\n      0x00\n      swap1\n      sload\n      swap1\n      0x0100\n      exp\n      swap1\n      div\n      0xffffffffffffffffffffffffffffffffffffffff\n      and\n      0xffffffffffffffffffffffffffffffffffffffff\n      and\n      0xffffffffffffffffffffffffffffffffffffffff\n      and\n      dup2\n      mstore\n      0x20\n      add\n      0x05\n      dup3\n      add\n      sload\n      dup2\n      mstore\n      0x20\n      add\n      0x06\n      dup3\n      add\n      dup1\n      sload\n      tag_67\n      swap1\n      tag_28\n      jump\t// in\n    tag_67:\n      dup1\n      0x1f\n      add\n      0x20\n      dup1\n      swap2\n      div\n      mul\n      0x20\n      add\n      mload(0x40)\n      swap1\n      dup2\n      add\n      0x40\n      mstore\n      dup1\n      swap3\n      swap2\n      swap1\n      dup2\n      dup2\n      mstore\n      0x20\n      add\n      dup3\n      dup1\n      sload\n      tag_68\n      swap1\n      tag_28\n      jump\t// in\n    tag_68:\n      dup1\n      iszero\n      tag_69\n      jumpi\n      dup1\n      0x1f\n      lt\n      tag_70\n      jumpi\n      0x0100\n      dup1\n      dup4\n      sload\n      div\n      mul\n      dup4\n      mstore\n      swap2\n      0x20\n      add\n      swap2\n      jump(tag_69)\n    tag_70:\n      dup3\n      add\n      swap2\n      swap1\n      0x00\n      mstore\n      keccak256(0x00, 0x20)\n      swap1\n    tag_71:\n      dup2\n      sload\n      dup2\n      mstore\n      swap1\n      0x01\n      add\n      swap1\n      0x20\n      add\n      dup1\n      dup4\n      gt\n      tag_71\n      jumpi\n      dup3\n      swap1\n      sub\n      0x1f\n      and\n      dup3\n      add\n      swap2\n    tag_69:\n      pop\n      pop\n      pop\n      pop\n      pop\n      dup2\n      mstore\n      0x20\n      add\n      0x07\n      dup3\n      add\n      dup1\n      sload\n      tag_72\n      swap1\n      tag_28\n      jump\t// in\n    tag_72:\n      dup1\n      0x1f\n      add\n      0x20\n      dup1\n      swap2\n      div\n      mul\n      0x20\n      add\n      mload(0x40)\n      swap1\n      dup2\n      add\n      0x40\n      mstore\n      dup1\n      swap3\n      swap2\n      swap1\n      dup2\n      dup2\n      mstore\n      0x20\n      add\n      dup3\n      dup1\n      sload\n      tag_73\n      swap1\n      tag_28\n      jump\t// in\n    tag_73:\n      dup1\n      iszero\n      tag_74\n      jumpi\n      dup1\n      0x1f\n      lt\n      tag_75\n      jumpi\n      0x0100\n      dup1\n      dup4\n      sload\n      div\n      mul\n      dup4\n      mstore\n      swap2\n      0x20\n      add\n      swap2\n      jump(tag_74)\n    tag_75:\n      dup3\n      add\n      swap2\n      swap1\n      0x00\n      mstore\n      keccak256(0x00, 0x20)\n      swap1\n    tag_76:\n      dup2\n      sload\n      dup2\n      mstore\n      swap1\n      0x01\n      add\n      swap1\n      0x20\n      add\n      dup1\n      dup4\n      gt\n      tag_76\n      jumpi\n      dup3\n      swap1\n      sub\n      0x1f\n      and\n      dup3\n      add\n      swap2\n    tag_74:\n      pop\n      pop\n      pop\n      pop\n      pop\n      dup2\n      mstore\n      pop\n      pop\n        /* \"crowdfunding.sol\":1548:1551  arr */\n      dup3\n        /* \"crowdfunding.sol\":1552:1553  i */\n      dup3\n        /* \"crowdfunding.sol\":1548:1554  arr[i] */\n      dup2\n      mload\n      dup2\n      lt\n      tag_77\n      jumpi\n      tag_78\n      tag_56\n      jump\t// in\n    tag_78:\n    tag_77:\n      0x20\n      mul\n      0x20\n      add\n      add\n        /* \"crowdfunding.sol\":1548:1564  arr[i] = list[i] */\n      dup2\n      swap1\n      mstore\n      pop\n        /* \"crowdfunding.sol\":1499:1580  if(list[i].status == _status) {... */\n    tag_58:\n        /* \"crowdfunding.sol\":1480:1483  i++ */\n      dup1\n      dup1\n      tag_79\n      swap1\n      tag_80\n      jump\t// in\n    tag_79:\n      swap2\n      pop\n      pop\n        /* \"crowdfunding.sol\":1446:1591  for(uint i = 0; i < list.length ; i++){... */\n      jump(tag_51)\n    tag_52:\n      pop\n        /* \"crowdfunding.sol\":1610:1613  arr */\n      dup1\n        /* \"crowdfunding.sol\":1603:1613  return arr */\n      swap2\n      pop\n      pop\n        /* \"crowdfunding.sol\":1273:1621  function getCrowdfundingByStatus(uint _status) public view returns (Crowdfunding[] memory){... */\n      swap2\n      swap1\n      pop\n      jump\t// out\n        /* \"crowdfunding.sol\":1172:1265  function getList() public view returns (Crowdfunding[] memory) {... */\n    tag_19:\n        /* \"crowdfunding.sol\":1212:1233  Crowdfunding[] memory */\n      0x60\n        /* \"crowdfunding.sol\":1253:1257  list */\n      0x01\n        /* \"crowdfunding.sol\":1246:1257  return list */\n      dup1\n      sload\n      dup1\n      0x20\n      mul\n      0x20\n      add\n      mload(0x40)\n      swap1\n      dup2\n      add\n      0x40\n      mstore\n      dup1\n      swap3\n      swap2\n      swap1\n      dup2\n      dup2\n      mstore\n      0x20\n      add\n      0x00\n      swap1\n    tag_82:\n      dup3\n      dup3\n      lt\n      iszero\n      tag_83\n      jumpi\n      dup4\n      dup3\n      swap1\n      0x00\n      mstore\n      keccak256(0x00, 0x20)\n      swap1\n      0x08\n      mul\n      add\n      mload(0x40)\n      dup1\n      0x0100\n      add\n      0x40\n      mstore\n      swap1\n      dup2\n      0x00\n      dup3\n      add\n      sload\n      dup2\n      mstore\n      0x20\n      add\n      0x01\n      dup3\n      add\n      dup1\n      sload\n      tag_85\n      swap1\n      tag_28\n      jump\t// in\n    tag_85:\n      dup1\n      0x1f\n      add\n      0x20\n      dup1\n      swap2\n      div\n      mul\n      0x20\n      add\n      mload(0x40)\n      swap1\n      dup2\n      add\n      0x40\n      mstore\n      dup1\n      swap3\n      swap2\n      swap1\n      dup2\n      dup2\n      mstore\n      0x20\n      add\n      dup3\n      dup1\n      sload\n      tag_86\n      swap1\n      tag_28\n      jump\t// in\n    tag_86:\n      dup1\n      iszero\n      tag_87\n      jumpi\n      dup1\n      0x1f\n      lt\n      tag_88\n      jumpi\n      0x0100\n      dup1\n      dup4\n      sload\n      div\n      mul\n      dup4\n      mstore\n      swap2\n      0x20\n      add\n      swap2\n      jump(tag_87)\n    tag_88:\n      dup3\n      add\n      swap2\n      swap1\n      0x00\n      mstore\n      keccak256(0x00, 0x20)\n      swap1\n    tag_89:\n      dup2\n      sload\n      dup2\n      mstore\n      swap1\n      0x01\n      add\n      swap1\n      0x20\n      add\n      dup1\n      dup4\n      gt\n      tag_89\n      jumpi\n      dup3\n      swap1\n      sub\n      0x1f\n      and\n      dup3\n      add\n      swap2\n    tag_87:\n      pop\n      pop\n      pop\n      pop\n      pop\n      dup2\n      mstore\n      0x20\n      add\n      0x02\n      dup3\n      add\n      sload\n      dup2\n      mstore\n      0x20\n      add\n      0x03\n      dup3\n      add\n      0x00\n      swap1\n      sload\n      swap1\n      0x0100\n      exp\n      swap1\n      div\n      0xffffffffffffffffffffffffffffffffffffffff\n      and\n      0xffffffffffffffffffffffffffffffffffffffff\n      and\n      0xffffffffffffffffffffffffffffffffffffffff\n      and\n      dup2\n      mstore\n      0x20\n      add\n      0x04\n      dup3\n      add\n      0x00\n      swap1\n      sload\n      swap1\n      0x0100\n      exp\n      swap1\n      div\n      0xffffffffffffffffffffffffffffffffffffffff\n      and\n      0xffffffffffffffffffffffffffffffffffffffff\n      and\n      0xffffffffffffffffffffffffffffffffffffffff\n      and\n      dup2\n      mstore\n      0x20\n      add\n      0x05\n      dup3\n      add\n      sload\n      dup2\n      mstore\n      0x20\n      add\n      0x06\n      dup3\n      add\n      dup1\n      sload\n      tag_90\n      swap1\n      tag_28\n      jump\t// in\n    tag_90:\n      dup1\n      0x1f\n      add\n      0x20\n      dup1\n      swap2\n      div\n      mul\n      0x20\n      add\n      mload(0x40)\n      swap1\n      dup2\n      add\n      0x40\n      mstore\n      dup1\n      swap3\n      swap2\n      swap1\n      dup2\n      dup2\n      mstore\n      0x20\n      add\n      dup3\n      dup1\n      sload\n      tag_91\n      swap1\n      tag_28\n      jump\t// in\n    tag_91:\n      dup1\n      iszero\n      tag_92\n      jumpi\n      dup1\n      0x1f\n      lt\n      tag_93\n      jumpi\n      0x0100\n      dup1\n      dup4\n      sload\n      div\n      mul\n      dup4\n      mstore\n      swap2\n      0x20\n      add\n      swap2\n      jump(tag_92)\n    tag_93:\n      dup3\n      add\n      swap2\n      swap1\n      0x00\n      mstore\n      keccak256(0x00, 0x20)\n      swap1\n    tag_94:\n      dup2\n      sload\n      dup2\n      mstore\n      swap1\n      0x01\n      add\n      swap1\n      0x20\n      add\n      dup1\n      dup4\n      gt\n      tag_94\n      jumpi\n      dup3\n      swap1\n      sub\n      0x1f\n      and\n      dup3\n      add\n      swap2\n    tag_92:\n      pop\n      pop\n      pop\n      pop\n      pop\n      dup2\n      mstore\n      0x20\n      add\n      0x07\n      dup3\n      add\n      dup1\n      sload\n      tag_95\n      swap1\n      tag_28\n      jump\t// in\n    tag_95:\n      dup1\n      0x1f\n      add\n      0x20\n      dup1\n      swap2\n      div\n      mul\n      0x20\n      add\n      mload(0x40)\n      swap1\n      dup2\n      add\n      0x40\n      mstore\n      dup1\n      swap3\n      swap2\n      swap1\n      dup2\n      dup2\n      mstore\n      0x20\n      add\n      dup3\n      dup1\n      sload\n      tag_96\n      swap1\n      tag_28\n      jump\t// in\n    tag_96:\n      dup1\n      iszero\n      tag_97\n      jumpi\n      dup1\n      0x1f\n      lt\n      tag_98\n      jumpi\n      0x0100\n      dup1\n      dup4\n      sload\n      div\n      mul\n      dup4\n      mstore\n      swap2\n      0x20\n      add\n      swap2\n      jump(tag_97)\n    tag_98:\n      dup3\n      add\n      swap2\n      swap1\n      0x00\n      mstore\n      keccak256(0x00, 0x20)\n      swap1\n    tag_99:\n      dup2\n      sload\n      dup2\n      mstore\n      swap1\n      0x01\n      add\n      swap1\n      0x20\n      add\n      dup1\n      dup4\n      gt\n      tag_99\n      jumpi\n      dup3\n      swap1\n      sub\n      0x1f\n      and\n      dup3\n      add\n      swap2\n    tag_97:\n      pop\n      pop\n      pop\n      pop\n      pop\n      dup2\n      mstore\n      pop\n      pop\n      dup2\n      mstore\n      0x20\n      add\n      swap1\n      0x01\n      add\n      swap1\n      jump(tag_82)\n    tag_83:\n      pop\n      pop\n      pop\n      pop\n      swap1\n      pop\n        /* \"crowdfunding.sol\":1172:1265  function getList() public view returns (Crowdfunding[] memory) {... */\n      swap1\n      jump\t// out\n        /* \"crowdfunding.sol\":666:1164  function createCrowdfunding(string memory _title,address _recipient, string memory _expectAmout) public {... */\n    tag_24:\n        /* \"crowdfunding.sol\":781:783  No */\n      0x00\n      dup1\n        /* \"crowdfunding.sol\":781:785  No++ */\n      dup2\n      sload\n      dup1\n      swap3\n      swap2\n      swap1\n      tag_101\n      swap1\n      tag_80\n      jump\t// in\n    tag_101:\n      swap2\n      swap1\n      pop\n      sstore\n      pop\n        /* \"crowdfunding.sol\":796:817  Crowdfunding memory c */\n      0x00\n        /* \"crowdfunding.sol\":820:1092  Crowdfunding({... */\n      mload(0x40)\n      dup1\n      0x0100\n      add\n      0x40\n      mstore\n      dup1\n        /* \"crowdfunding.sol\":853:855  No */\n      sload(0x00)\n        /* \"crowdfunding.sol\":820:1092  Crowdfunding({... */\n      dup2\n      mstore\n      0x20\n      add\n        /* \"crowdfunding.sol\":876:882  _title */\n      dup6\n        /* \"crowdfunding.sol\":820:1092  Crowdfunding({... */\n      dup2\n      mstore\n      0x20\n      add\n        /* \"crowdfunding.sol\":905:906  0 */\n      0x00\n        /* \"crowdfunding.sol\":820:1092  Crowdfunding({... */\n      dup2\n      mstore\n      0x20\n      add\n        /* \"crowdfunding.sol\":930:940  msg.sender */\n      caller\n        /* \"crowdfunding.sol\":820:1092  Crowdfunding({... */\n      0xffffffffffffffffffffffffffffffffffffffff\n      and\n      dup2\n      mstore\n      0x20\n      add\n        /* \"crowdfunding.sol\":966:976  _recipient */\n      dup5\n        /* \"crowdfunding.sol\":820:1092  Crowdfunding({... */\n      0xffffffffffffffffffffffffffffffffffffffff\n      and\n      dup2\n      mstore\n      0x20\n      add\n        /* \"crowdfunding.sol\":1000:1001  0 */\n      0x00\n        /* \"crowdfunding.sol\":820:1092  Crowdfunding({... */\n      dup2\n      mstore\n      0x20\n      add\n        /* \"crowdfunding.sol\":1036:1048  _expectAmout */\n      dup4\n        /* \"crowdfunding.sol\":820:1092  Crowdfunding({... */\n      dup2\n      mstore\n      0x20\n      add\n      mload(0x40)\n      dup1\n      0x40\n      add\n      0x40\n      mstore\n      dup1\n      0x01\n      dup2\n      mstore\n      0x20\n      add\n      0x3000000000000000000000000000000000000000000000000000000000000000\n      dup2\n      mstore\n      pop\n      dup2\n      mstore\n      pop\n        /* \"crowdfunding.sol\":796:1092  Crowdfunding memory c = Crowdfunding({... */\n      swap1\n      pop\n        /* \"crowdfunding.sol\":1103:1107  list */\n      0x01\n        /* \"crowdfunding.sol\":1113:1114  c */\n      dup2\n        /* \"crowdfunding.sol\":1103:1115  list.push(c) */\n      swap1\n      dup1\n      0x01\n      dup2\n      sload\n      add\n      dup1\n      dup3\n      sstore\n      dup1\n      swap2\n      pop\n      pop\n      0x01\n      swap1\n      sub\n      swap1\n      0x00\n      mstore\n      keccak256(0x00, 0x20)\n      swap1\n      0x08\n      mul\n      add\n      0x00\n      swap1\n      swap2\n      swap1\n      swap2\n      swap1\n      swap2\n      pop\n      0x00\n      dup3\n      add\n      mload\n      dup2\n      0x00\n      add\n      sstore\n      0x20\n      dup3\n      add\n      mload\n      dup2\n      0x01\n      add\n      swap1\n      dup2\n      tag_103\n      swap2\n      swap1\n      tag_104\n      jump\t// in\n    tag_103:\n      pop\n      0x40\n      dup3\n      add\n      mload\n      dup2\n      0x02\n      add\n      sstore\n      0x60\n      dup3\n      add\n      mload\n      dup2\n      0x03\n      add\n      exp(0x0100, 0x00)\n      dup2\n      sload\n      dup2\n      0xffffffffffffffffffffffffffffffffffffffff\n      mul\n      not\n      and\n      swap1\n      dup4\n      0xffffffffffffffffffffffffffffffffffffffff\n      and\n      mul\n      or\n      swap1\n      sstore\n      pop\n      0x80\n      dup3\n      add\n      mload\n      dup2\n      0x04\n      add\n      exp(0x0100, 0x00)\n      dup2\n      sload\n      dup2\n      0xffffffffffffffffffffffffffffffffffffffff\n      mul\n      not\n      and\n      swap1\n      dup4\n      0xffffffffffffffffffffffffffffffffffffffff\n      and\n      mul\n      or\n      swap1\n      sstore\n      pop\n      0xa0\n      dup3\n      add\n      mload\n      dup2\n      0x05\n      add\n      sstore\n      0xc0\n      dup3\n      add\n      mload\n      dup2\n      0x06\n      add\n      swap1\n      dup2\n      tag_105\n      swap2\n      swap1\n      tag_104\n      jump\t// in\n    tag_105:\n      pop\n      0xe0\n      dup3\n      add\n      mload\n      dup2\n      0x07\n      add\n      swap1\n      dup2\n      tag_106\n      swap2\n      swap1\n      tag_104\n      jump\t// in\n    tag_106:\n      pop\n      pop\n      pop\n        /* \"crowdfunding.sol\":770:1164  {... */\n      pop\n        /* \"crowdfunding.sol\":666:1164  function createCrowdfunding(string memory _title,address _recipient, string memory _expectAmout) public {... */\n      pop\n      pop\n      pop\n      jump\t// out\n    tag_50:\n      mload(0x40)\n      dup1\n      0x0100\n      add\n      0x40\n      mstore\n      dup1\n      0x00\n      dup2\n      mstore\n      0x20\n      add\n      0x60\n      dup2\n      mstore\n      0x20\n      add\n      0x00\n      dup2\n      mstore\n      0x20\n      add\n      and(0xffffffffffffffffffffffffffffffffffffffff, 0x00)\n      dup2\n      mstore\n      0x20\n      add\n      and(0xffffffffffffffffffffffffffffffffffffffff, 0x00)\n      dup2\n      mstore\n      0x20\n      add\n      0x00\n      dup2\n      mstore\n      0x20\n      add\n      0x60\n      dup2\n      mstore\n      0x20\n      add\n      0x60\n      dup2\n      mstore\n      pop\n      swap1\n      jump\t// out\n        /* \"#utility.yul\":7:82   */\n    tag_107:\n        /* \"#utility.yul\":40:46   */\n      0x00\n        /* \"#utility.yul\":73:75   */\n      0x40\n        /* \"#utility.yul\":67:76   */\n      mload\n        /* \"#utility.yul\":57:76   */\n      swap1\n      pop\n        /* \"#utility.yul\":7:82   */\n      swap1\n      jump\t// out\n        /* \"#utility.yul\":88:205   */\n    tag_108:\n        /* \"#utility.yul\":197:198   */\n      0x00\n        /* \"#utility.yul\":194:195   */\n      dup1\n        /* \"#utility.yul\":187:199   */\n      revert\n        /* \"#utility.yul\":211:328   */\n    tag_109:\n        /* \"#utility.yul\":320:321   */\n      0x00\n        /* \"#utility.yul\":317:318   */\n      dup1\n        /* \"#utility.yul\":310:322   */\n      revert\n        /* \"#utility.yul\":334:411   */\n    tag_110:\n        /* \"#utility.yul\":371:378   */\n      0x00\n        /* \"#utility.yul\":400:405   */\n      dup2\n        /* \"#utility.yul\":389:405   */\n      swap1\n      pop\n        /* \"#utility.yul\":334:411   */\n      swap2\n      swap1\n      pop\n      jump\t// out\n        /* \"#utility.yul\":417:539   */\n    tag_111:\n        /* \"#utility.yul\":490:514   */\n      tag_166\n        /* \"#utility.yul\":508:513   */\n      dup2\n        /* \"#utility.yul\":490:514   */\n      tag_110\n      jump\t// in\n    tag_166:\n        /* \"#utility.yul\":483:488   */\n      dup2\n        /* \"#utility.yul\":480:515   */\n      eq\n        /* \"#utility.yul\":470:533   */\n      tag_167\n      jumpi\n        /* \"#utility.yul\":529:530   */\n      0x00\n        /* \"#utility.yul\":526:527   */\n      dup1\n        /* \"#utility.yul\":519:531   */\n      revert\n        /* \"#utility.yul\":470:533   */\n    tag_167:\n        /* \"#utility.yul\":417:539   */\n      pop\n      jump\t// out\n        /* \"#utility.yul\":545:684   */\n    tag_112:\n        /* \"#utility.yul\":591:596   */\n      0x00\n        /* \"#utility.yul\":629:635   */\n      dup2\n        /* \"#utility.yul\":616:636   */\n      calldataload\n        /* \"#utility.yul\":607:636   */\n      swap1\n      pop\n        /* \"#utility.yul\":645:678   */\n      tag_169\n        /* \"#utility.yul\":672:677   */\n      dup2\n        /* \"#utility.yul\":645:678   */\n      tag_111\n      jump\t// in\n    tag_169:\n        /* \"#utility.yul\":545:684   */\n      swap3\n      swap2\n      pop\n      pop\n      jump\t// out\n        /* \"#utility.yul\":690:1019   */\n    tag_9:\n        /* \"#utility.yul\":749:755   */\n      0x00\n        /* \"#utility.yul\":798:800   */\n      0x20\n        /* \"#utility.yul\":786:795   */\n      dup3\n        /* \"#utility.yul\":777:784   */\n      dup5\n        /* \"#utility.yul\":773:796   */\n      sub\n        /* \"#utility.yul\":769:801   */\n      slt\n        /* \"#utility.yul\":766:885   */\n      iszero\n      tag_171\n      jumpi\n        /* \"#utility.yul\":804:883   */\n      tag_172\n      tag_108\n      jump\t// in\n    tag_172:\n        /* \"#utility.yul\":766:885   */\n    tag_171:\n        /* \"#utility.yul\":924:925   */\n      0x00\n        /* \"#utility.yul\":949:1002   */\n      tag_173\n        /* \"#utility.yul\":994:1001   */\n      dup5\n        /* \"#utility.yul\":985:991   */\n      dup3\n        /* \"#utility.yul\":974:983   */\n      dup6\n        /* \"#utility.yul\":970:992   */\n      add\n        /* \"#utility.yul\":949:1002   */\n      tag_112\n      jump\t// in\n    tag_173:\n        /* \"#utility.yul\":939:1002   */\n      swap2\n      pop\n        /* \"#utility.yul\":895:1012   */\n      pop\n        /* \"#utility.yul\":690:1019   */\n      swap3\n      swap2\n      pop\n      pop\n      jump\t// out\n        /* \"#utility.yul\":1025:1143   */\n    tag_113:\n        /* \"#utility.yul\":1112:1136   */\n      tag_175\n        /* \"#utility.yul\":1130:1135   */\n      dup2\n        /* \"#utility.yul\":1112:1136   */\n      tag_110\n      jump\t// in\n    tag_175:\n        /* \"#utility.yul\":1107:1110   */\n      dup3\n        /* \"#utility.yul\":1100:1137   */\n      mstore\n        /* \"#utility.yul\":1025:1143   */\n      pop\n      pop\n      jump\t// out\n        /* \"#utility.yul\":1149:1248   */\n    tag_114:\n        /* \"#utility.yul\":1201:1207   */\n      0x00\n        /* \"#utility.yul\":1235:1240   */\n      dup2\n        /* \"#utility.yul\":1229:1241   */\n      mload\n        /* \"#utility.yul\":1219:1241   */\n      swap1\n      pop\n        /* \"#utility.yul\":1149:1248   */\n      swap2\n      swap1\n      pop\n      jump\t// out\n        /* \"#utility.yul\":1254:1423   */\n    tag_115:\n        /* \"#utility.yul\":1338:1349   */\n      0x00\n        /* \"#utility.yul\":1372:1378   */\n      dup3\n        /* \"#utility.yul\":1367:1370   */\n      dup3\n        /* \"#utility.yul\":1360:1379   */\n      mstore\n        /* \"#utility.yul\":1412:1416   */\n      0x20\n        /* \"#utility.yul\":1407:1410   */\n      dup3\n        /* \"#utility.yul\":1403:1417   */\n      add\n        /* \"#utility.yul\":1388:1417   */\n      swap1\n      pop\n        /* \"#utility.yul\":1254:1423   */\n      swap3\n      swap2\n      pop\n      pop\n      jump\t// out\n        /* \"#utility.yul\":1429:1736   */\n    tag_116:\n        /* \"#utility.yul\":1497:1498   */\n      0x00\n        /* \"#utility.yul\":1507:1620   */\n    tag_179:\n        /* \"#utility.yul\":1521:1527   */\n      dup4\n        /* \"#utility.yul\":1518:1519   */\n      dup2\n        /* \"#utility.yul\":1515:1528   */\n      lt\n        /* \"#utility.yul\":1507:1620   */\n      iszero\n      tag_181\n      jumpi\n        /* \"#utility.yul\":1606:1607   */\n      dup1\n        /* \"#utility.yul\":1601:1604   */\n      dup3\n        /* \"#utility.yul\":1597:1608   */\n      add\n        /* \"#utility.yul\":1591:1609   */\n      mload\n        /* \"#utility.yul\":1587:1588   */\n      dup2\n        /* \"#utility.yul\":1582:1585   */\n      dup5\n        /* \"#utility.yul\":1578:1589   */\n      add\n        /* \"#utility.yul\":1571:1610   */\n      mstore\n        /* \"#utility.yul\":1543:1545   */\n      0x20\n        /* \"#utility.yul\":1540:1541   */\n      dup2\n        /* \"#utility.yul\":1536:1546   */\n      add\n        /* \"#utility.yul\":1531:1546   */\n      swap1\n      pop\n        /* \"#utility.yul\":1507:1620   */\n      jump(tag_179)\n    tag_181:\n        /* \"#utility.yul\":1638:1644   */\n      dup4\n        /* \"#utility.yul\":1635:1636   */\n      dup2\n        /* \"#utility.yul\":1632:1645   */\n      gt\n        /* \"#utility.yul\":1629:1730   */\n      iszero\n      tag_182\n      jumpi\n        /* \"#utility.yul\":1718:1719   */\n      0x00\n        /* \"#utility.yul\":1709:1715   */\n      dup5\n        /* \"#utility.yul\":1704:1707   */\n      dup5\n        /* \"#utility.yul\":1700:1716   */\n      add\n        /* \"#utility.yul\":1693:1720   */\n      mstore\n        /* \"#utility.yul\":1629:1730   */\n    tag_182:\n        /* \"#utility.yul\":1478:1736   */\n      pop\n        /* \"#utility.yul\":1429:1736   */\n      pop\n      pop\n      pop\n      jump\t// out\n        /* \"#utility.yul\":1742:1844   */\n    tag_117:\n        /* \"#utility.yul\":1783:1789   */\n      0x00\n        /* \"#utility.yul\":1834:1836   */\n      0x1f\n        /* \"#utility.yul\":1830:1837   */\n      not\n        /* \"#utility.yul\":1825:1827   */\n      0x1f\n        /* \"#utility.yul\":1818:1823   */\n      dup4\n        /* \"#utility.yul\":1814:1828   */\n      add\n        /* \"#utility.yul\":1810:1838   */\n      and\n        /* \"#utility.yul\":1800:1838   */\n      swap1\n      pop\n        /* \"#utility.yul\":1742:1844   */\n      swap2\n      swap1\n      pop\n      jump\t// out\n        /* \"#utility.yul\":1850:2214   */\n    tag_118:\n        /* \"#utility.yul\":1938:1941   */\n      0x00\n        /* \"#utility.yul\":1966:2005   */\n      tag_185\n        /* \"#utility.yul\":1999:2004   */\n      dup3\n        /* \"#utility.yul\":1966:2005   */\n      tag_114\n      jump\t// in\n    tag_185:\n        /* \"#utility.yul\":2021:2092   */\n      tag_186\n        /* \"#utility.yul\":2085:2091   */\n      dup2\n        /* \"#utility.yul\":2080:2083   */\n      dup6\n        /* \"#utility.yul\":2021:2092   */\n      tag_115\n      jump\t// in\n    tag_186:\n        /* \"#utility.yul\":2014:2092   */\n      swap4\n      pop\n        /* \"#utility.yul\":2101:2153   */\n      tag_187\n        /* \"#utility.yul\":2146:2152   */\n      dup2\n        /* \"#utility.yul\":2141:2144   */\n      dup6\n        /* \"#utility.yul\":2134:2138   */\n      0x20\n        /* \"#utility.yul\":2127:2132   */\n      dup7\n        /* \"#utility.yul\":2123:2139   */\n      add\n        /* \"#utility.yul\":2101:2153   */\n      tag_116\n      jump\t// in\n    tag_187:\n        /* \"#utility.yul\":2178:2207   */\n      tag_188\n        /* \"#utility.yul\":2200:2206   */\n      dup2\n        /* \"#utility.yul\":2178:2207   */\n      tag_117\n      jump\t// in\n    tag_188:\n        /* \"#utility.yul\":2173:2176   */\n      dup5\n        /* \"#utility.yul\":2169:2208   */\n      add\n        /* \"#utility.yul\":2162:2208   */\n      swap2\n      pop\n        /* \"#utility.yul\":1942:2214   */\n      pop\n        /* \"#utility.yul\":1850:2214   */\n      swap3\n      swap2\n      pop\n      pop\n      jump\t// out\n        /* \"#utility.yul\":2220:2346   */\n    tag_119:\n        /* \"#utility.yul\":2257:2264   */\n      0x00\n        /* \"#utility.yul\":2297:2339   */\n      0xffffffffffffffffffffffffffffffffffffffff\n        /* \"#utility.yul\":2290:2295   */\n      dup3\n        /* \"#utility.yul\":2286:2340   */\n      and\n        /* \"#utility.yul\":2275:2340   */\n      swap1\n      pop\n        /* \"#utility.yul\":2220:2346   */\n      swap2\n      swap1\n      pop\n      jump\t// out\n        /* \"#utility.yul\":2352:2448   */\n    tag_120:\n        /* \"#utility.yul\":2389:2396   */\n      0x00\n        /* \"#utility.yul\":2418:2442   */\n      tag_191\n        /* \"#utility.yul\":2436:2441   */\n      dup3\n        /* \"#utility.yul\":2418:2442   */\n      tag_119\n      jump\t// in\n    tag_191:\n        /* \"#utility.yul\":2407:2442   */\n      swap1\n      pop\n        /* \"#utility.yul\":2352:2448   */\n      swap2\n      swap1\n      pop\n      jump\t// out\n        /* \"#utility.yul\":2454:2572   */\n    tag_121:\n        /* \"#utility.yul\":2541:2565   */\n      tag_193\n        /* \"#utility.yul\":2559:2564   */\n      dup2\n        /* \"#utility.yul\":2541:2565   */\n      tag_120\n      jump\t// in\n    tag_193:\n        /* \"#utility.yul\":2536:2539   */\n      dup3\n        /* \"#utility.yul\":2529:2566   */\n      mstore\n        /* \"#utility.yul\":2454:2572   */\n      pop\n      pop\n      jump\t// out\n        /* \"#utility.yul\":2578:3848   */\n    tag_12:\n        /* \"#utility.yul\":2927:2931   */\n      0x00\n        /* \"#utility.yul\":2965:2968   */\n      0x0100\n        /* \"#utility.yul\":2954:2963   */\n      dup3\n        /* \"#utility.yul\":2950:2969   */\n      add\n        /* \"#utility.yul\":2942:2969   */\n      swap1\n      pop\n        /* \"#utility.yul\":2979:3050   */\n      tag_195\n        /* \"#utility.yul\":3047:3048   */\n      0x00\n        /* \"#utility.yul\":3036:3045   */\n      dup4\n        /* \"#utility.yul\":3032:3049   */\n      add\n        /* \"#utility.yul\":3023:3029   */\n      dup12\n        /* \"#utility.yul\":2979:3050   */\n      tag_113\n      jump\t// in\n    tag_195:\n        /* \"#utility.yul\":3097:3106   */\n      dup2\n        /* \"#utility.yul\":3091:3095   */\n      dup2\n        /* \"#utility.yul\":3087:3107   */\n      sub\n        /* \"#utility.yul\":3082:3084   */\n      0x20\n        /* \"#utility.yul\":3071:3080   */\n      dup4\n        /* \"#utility.yul\":3067:3085   */\n      add\n        /* \"#utility.yul\":3060:3108   */\n      mstore\n        /* \"#utility.yul\":3125:3203   */\n      tag_196\n        /* \"#utility.yul\":3198:3202   */\n      dup2\n        /* \"#utility.yul\":3189:3195   */\n      dup11\n        /* \"#utility.yul\":3125:3203   */\n      tag_118\n      jump\t// in\n    tag_196:\n        /* \"#utility.yul\":3117:3203   */\n      swap1\n      pop\n        /* \"#utility.yul\":3213:3285   */\n      tag_197\n        /* \"#utility.yul\":3281:3283   */\n      0x40\n        /* \"#utility.yul\":3270:3279   */\n      dup4\n        /* \"#utility.yul\":3266:3284   */\n      add\n        /* \"#utility.yul\":3257:3263   */\n      dup10\n        /* \"#utility.yul\":3213:3285   */\n      tag_113\n      jump\t// in\n    tag_197:\n        /* \"#utility.yul\":3295:3367   */\n      tag_198\n        /* \"#utility.yul\":3363:3365   */\n      0x60\n        /* \"#utility.yul\":3352:3361   */\n      dup4\n        /* \"#utility.yul\":3348:3366   */\n      add\n        /* \"#utility.yul\":3339:3345   */\n      dup9\n        /* \"#utility.yul\":3295:3367   */\n      tag_121\n      jump\t// in\n    tag_198:\n        /* \"#utility.yul\":3377:3450   */\n      tag_199\n        /* \"#utility.yul\":3445:3448   */\n      0x80\n        /* \"#utility.yul\":3434:3443   */\n      dup4\n        /* \"#utility.yul\":3430:3449   */\n      add\n        /* \"#utility.yul\":3421:3427   */\n      dup8\n        /* \"#utility.yul\":3377:3450   */\n      tag_121\n      jump\t// in\n    tag_199:\n        /* \"#utility.yul\":3460:3533   */\n      tag_200\n        /* \"#utility.yul\":3528:3531   */\n      0xa0\n        /* \"#utility.yul\":3517:3526   */\n      dup4\n        /* \"#utility.yul\":3513:3532   */\n      add\n        /* \"#utility.yul\":3504:3510   */\n      dup7\n        /* \"#utility.yul\":3460:3533   */\n      tag_113\n      jump\t// in\n    tag_200:\n        /* \"#utility.yul\":3581:3590   */\n      dup2\n        /* \"#utility.yul\":3575:3579   */\n      dup2\n        /* \"#utility.yul\":3571:3591   */\n      sub\n        /* \"#utility.yul\":3565:3568   */\n      0xc0\n        /* \"#utility.yul\":3554:3563   */\n      dup4\n        /* \"#utility.yul\":3550:3569   */\n      add\n        /* \"#utility.yul\":3543:3592   */\n      mstore\n        /* \"#utility.yul\":3609:3687   */\n      tag_201\n        /* \"#utility.yul\":3682:3686   */\n      dup2\n        /* \"#utility.yul\":3673:3679   */\n      dup6\n        /* \"#utility.yul\":3609:3687   */\n      tag_118\n      jump\t// in\n    tag_201:\n        /* \"#utility.yul\":3601:3687   */\n      swap1\n      pop\n        /* \"#utility.yul\":3735:3744   */\n      dup2\n        /* \"#utility.yul\":3729:3733   */\n      dup2\n        /* \"#utility.yul\":3725:3745   */\n      sub\n        /* \"#utility.yul\":3719:3722   */\n      0xe0\n        /* \"#utility.yul\":3708:3717   */\n      dup4\n        /* \"#utility.yul\":3704:3723   */\n      add\n        /* \"#utility.yul\":3697:3746   */\n      mstore\n        /* \"#utility.yul\":3763:3841   */\n      tag_202\n        /* \"#utility.yul\":3836:3840   */\n      dup2\n        /* \"#utility.yul\":3827:3833   */\n      dup5\n        /* \"#utility.yul\":3763:3841   */\n      tag_118\n      jump\t// in\n    tag_202:\n        /* \"#utility.yul\":3755:3841   */\n      swap1\n      pop\n        /* \"#utility.yul\":2578:3848   */\n      swap10\n      swap9\n      pop\n      pop\n      pop\n      pop\n      pop\n      pop\n      pop\n      pop\n      pop\n      jump\t// out\n        /* \"#utility.yul\":3854:3996   */\n    tag_122:\n        /* \"#utility.yul\":3949:3955   */\n      0x00\n        /* \"#utility.yul\":3983:3988   */\n      dup2\n        /* \"#utility.yul\":3977:3989   */\n      mload\n        /* \"#utility.yul\":3967:3989   */\n      swap1\n      pop\n        /* \"#utility.yul\":3854:3996   */\n      swap2\n      swap1\n      pop\n      jump\t// out\n        /* \"#utility.yul\":4002:4214   */\n    tag_123:\n        /* \"#utility.yul\":4129:4140   */\n      0x00\n        /* \"#utility.yul\":4163:4169   */\n      dup3\n        /* \"#utility.yul\":4158:4161   */\n      dup3\n        /* \"#utility.yul\":4151:4170   */\n      mstore\n        /* \"#utility.yul\":4203:4207   */\n      0x20\n        /* \"#utility.yul\":4198:4201   */\n      dup3\n        /* \"#utility.yul\":4194:4208   */\n      add\n        /* \"#utility.yul\":4179:4208   */\n      swap1\n      pop\n        /* \"#utility.yul\":4002:4214   */\n      swap3\n      swap2\n      pop\n      pop\n      jump\t// out\n        /* \"#utility.yul\":4220:4380   */\n    tag_124:\n        /* \"#utility.yul\":4315:4319   */\n      0x00\n        /* \"#utility.yul\":4338:4341   */\n      dup2\n        /* \"#utility.yul\":4330:4341   */\n      swap1\n      pop\n        /* \"#utility.yul\":4368:4372   */\n      0x20\n        /* \"#utility.yul\":4363:4366   */\n      dup3\n        /* \"#utility.yul\":4359:4373   */\n      add\n        /* \"#utility.yul\":4351:4373   */\n      swap1\n      pop\n        /* \"#utility.yul\":4220:4380   */\n      swap2\n      swap1\n      pop\n      jump\t// out\n        /* \"#utility.yul\":4386:4494   */\n    tag_125:\n        /* \"#utility.yul\":4463:4487   */\n      tag_207\n        /* \"#utility.yul\":4481:4486   */\n      dup2\n        /* \"#utility.yul\":4463:4487   */\n      tag_110\n      jump\t// in\n    tag_207:\n        /* \"#utility.yul\":4458:4461   */\n      dup3\n        /* \"#utility.yul\":4451:4488   */\n      mstore\n        /* \"#utility.yul\":4386:4494   */\n      pop\n      pop\n      jump\t// out\n        /* \"#utility.yul\":4500:4659   */\n    tag_126:\n        /* \"#utility.yul\":4574:4585   */\n      0x00\n        /* \"#utility.yul\":4608:4614   */\n      dup3\n        /* \"#utility.yul\":4603:4606   */\n      dup3\n        /* \"#utility.yul\":4596:4615   */\n      mstore\n        /* \"#utility.yul\":4648:4652   */\n      0x20\n        /* \"#utility.yul\":4643:4646   */\n      dup3\n        /* \"#utility.yul\":4639:4653   */\n      add\n        /* \"#utility.yul\":4624:4653   */\n      swap1\n      pop\n        /* \"#utility.yul\":4500:4659   */\n      swap3\n      swap2\n      pop\n      pop\n      jump\t// out\n        /* \"#utility.yul\":4665:5009   */\n    tag_127:\n        /* \"#utility.yul\":4743:4746   */\n      0x00\n        /* \"#utility.yul\":4771:4810   */\n      tag_210\n        /* \"#utility.yul\":4804:4809   */\n      dup3\n        /* \"#utility.yul\":4771:4810   */\n      tag_114\n      jump\t// in\n    tag_210:\n        /* \"#utility.yul\":4826:4887   */\n      tag_211\n        /* \"#utility.yul\":4880:4886   */\n      dup2\n        /* \"#utility.yul\":4875:4878   */\n      dup6\n        /* \"#utility.yul\":4826:4887   */\n      tag_126\n      jump\t// in\n    tag_211:\n        /* \"#utility.yul\":4819:4887   */\n      swap4\n      pop\n        /* \"#utility.yul\":4896:4948   */\n      tag_212\n        /* \"#utility.yul\":4941:4947   */\n      dup2\n        /* \"#utility.yul\":4936:4939   */\n      dup6\n        /* \"#utility.yul\":4929:4933   */\n      0x20\n        /* \"#utility.yul\":4922:4927   */\n      dup7\n        /* \"#utility.yul\":4918:4934   */\n      add\n        /* \"#utility.yul\":4896:4948   */\n      tag_116\n      jump\t// in\n    tag_212:\n        /* \"#utility.yul\":4973:5002   */\n      tag_213\n        /* \"#utility.yul\":4995:5001   */\n      dup2\n        /* \"#utility.yul\":4973:5002   */\n      tag_117\n      jump\t// in\n    tag_213:\n        /* \"#utility.yul\":4968:4971   */\n      dup5\n        /* \"#utility.yul\":4964:5003   */\n      add\n        /* \"#utility.yul\":4957:5003   */\n      swap2\n      pop\n        /* \"#utility.yul\":4747:5009   */\n      pop\n        /* \"#utility.yul\":4665:5009   */\n      swap3\n      swap2\n      pop\n      pop\n      jump\t// out\n        /* \"#utility.yul\":5015:5123   */\n    tag_128:\n        /* \"#utility.yul\":5092:5116   */\n      tag_215\n        /* \"#utility.yul\":5110:5115   */\n      dup2\n        /* \"#utility.yul\":5092:5116   */\n      tag_120\n      jump\t// in\n    tag_215:\n        /* \"#utility.yul\":5087:5090   */\n      dup3\n        /* \"#utility.yul\":5080:5117   */\n      mstore\n        /* \"#utility.yul\":5015:5123   */\n      pop\n      pop\n      jump\t// out\n        /* \"#utility.yul\":5221:7039   */\n    tag_129:\n        /* \"#utility.yul\":5336:5339   */\n      0x00\n        /* \"#utility.yul\":5372:5378   */\n      0x0100\n        /* \"#utility.yul\":5367:5370   */\n      dup4\n        /* \"#utility.yul\":5363:5379   */\n      add\n        /* \"#utility.yul\":5460:5464   */\n      0x00\n        /* \"#utility.yul\":5453:5458   */\n      dup4\n        /* \"#utility.yul\":5449:5465   */\n      add\n        /* \"#utility.yul\":5443:5466   */\n      mload\n        /* \"#utility.yul\":5479:5542   */\n      tag_217\n        /* \"#utility.yul\":5536:5540   */\n      0x00\n        /* \"#utility.yul\":5531:5534   */\n      dup7\n        /* \"#utility.yul\":5527:5541   */\n      add\n        /* \"#utility.yul\":5513:5525   */\n      dup3\n        /* \"#utility.yul\":5479:5542   */\n      tag_125\n      jump\t// in\n    tag_217:\n        /* \"#utility.yul\":5389:5552   */\n      pop\n        /* \"#utility.yul\":5635:5639   */\n      0x20\n        /* \"#utility.yul\":5628:5633   */\n      dup4\n        /* \"#utility.yul\":5624:5640   */\n      add\n        /* \"#utility.yul\":5618:5641   */\n      mload\n        /* \"#utility.yul\":5688:5691   */\n      dup5\n        /* \"#utility.yul\":5682:5686   */\n      dup3\n        /* \"#utility.yul\":5678:5692   */\n      sub\n        /* \"#utility.yul\":5671:5675   */\n      0x20\n        /* \"#utility.yul\":5666:5669   */\n      dup7\n        /* \"#utility.yul\":5662:5676   */\n      add\n        /* \"#utility.yul\":5655:5693   */\n      mstore\n        /* \"#utility.yul\":5714:5787   */\n      tag_218\n        /* \"#utility.yul\":5782:5786   */\n      dup3\n        /* \"#utility.yul\":5768:5780   */\n      dup3\n        /* \"#utility.yul\":5714:5787   */\n      tag_127\n      jump\t// in\n    tag_218:\n        /* \"#utility.yul\":5706:5787   */\n      swap2\n      pop\n        /* \"#utility.yul\":5562:5798   */\n      pop\n        /* \"#utility.yul\":5882:5886   */\n      0x40\n        /* \"#utility.yul\":5875:5880   */\n      dup4\n        /* \"#utility.yul\":5871:5887   */\n      add\n        /* \"#utility.yul\":5865:5888   */\n      mload\n        /* \"#utility.yul\":5901:5964   */\n      tag_219\n        /* \"#utility.yul\":5958:5962   */\n      0x40\n        /* \"#utility.yul\":5953:5956   */\n      dup7\n        /* \"#utility.yul\":5949:5963   */\n      add\n        /* \"#utility.yul\":5935:5947   */\n      dup3\n        /* \"#utility.yul\":5901:5964   */\n      tag_125\n      jump\t// in\n    tag_219:\n        /* \"#utility.yul\":5808:5974   */\n      pop\n        /* \"#utility.yul\":6059:6063   */\n      0x60\n        /* \"#utility.yul\":6052:6057   */\n      dup4\n        /* \"#utility.yul\":6048:6064   */\n      add\n        /* \"#utility.yul\":6042:6065   */\n      mload\n        /* \"#utility.yul\":6078:6141   */\n      tag_220\n        /* \"#utility.yul\":6135:6139   */\n      0x60\n        /* \"#utility.yul\":6130:6133   */\n      dup7\n        /* \"#utility.yul\":6126:6140   */\n      add\n        /* \"#utility.yul\":6112:6124   */\n      dup3\n        /* \"#utility.yul\":6078:6141   */\n      tag_128\n      jump\t// in\n    tag_220:\n        /* \"#utility.yul\":5984:6151   */\n      pop\n        /* \"#utility.yul\":6238:6242   */\n      0x80\n        /* \"#utility.yul\":6231:6236   */\n      dup4\n        /* \"#utility.yul\":6227:6243   */\n      add\n        /* \"#utility.yul\":6221:6244   */\n      mload\n        /* \"#utility.yul\":6257:6320   */\n      tag_221\n        /* \"#utility.yul\":6314:6318   */\n      0x80\n        /* \"#utility.yul\":6309:6312   */\n      dup7\n        /* \"#utility.yul\":6305:6319   */\n      add\n        /* \"#utility.yul\":6291:6303   */\n      dup3\n        /* \"#utility.yul\":6257:6320   */\n      tag_128\n      jump\t// in\n    tag_221:\n        /* \"#utility.yul\":6161:6330   */\n      pop\n        /* \"#utility.yul\":6415:6419   */\n      0xa0\n        /* \"#utility.yul\":6408:6413   */\n      dup4\n        /* \"#utility.yul\":6404:6420   */\n      add\n        /* \"#utility.yul\":6398:6421   */\n      mload\n        /* \"#utility.yul\":6434:6497   */\n      tag_222\n        /* \"#utility.yul\":6491:6495   */\n      0xa0\n        /* \"#utility.yul\":6486:6489   */\n      dup7\n        /* \"#utility.yul\":6482:6496   */\n      add\n        /* \"#utility.yul\":6468:6480   */\n      dup3\n        /* \"#utility.yul\":6434:6497   */\n      tag_125\n      jump\t// in\n    tag_222:\n        /* \"#utility.yul\":6340:6507   */\n      pop\n        /* \"#utility.yul\":6596:6600   */\n      0xc0\n        /* \"#utility.yul\":6589:6594   */\n      dup4\n        /* \"#utility.yul\":6585:6601   */\n      add\n        /* \"#utility.yul\":6579:6602   */\n      mload\n        /* \"#utility.yul\":6649:6652   */\n      dup5\n        /* \"#utility.yul\":6643:6647   */\n      dup3\n        /* \"#utility.yul\":6639:6653   */\n      sub\n        /* \"#utility.yul\":6632:6636   */\n      0xc0\n        /* \"#utility.yul\":6627:6630   */\n      dup7\n        /* \"#utility.yul\":6623:6637   */\n      add\n        /* \"#utility.yul\":6616:6654   */\n      mstore\n        /* \"#utility.yul\":6675:6748   */\n      tag_223\n        /* \"#utility.yul\":6743:6747   */\n      dup3\n        /* \"#utility.yul\":6729:6741   */\n      dup3\n        /* \"#utility.yul\":6675:6748   */\n      tag_127\n      jump\t// in\n    tag_223:\n        /* \"#utility.yul\":6667:6748   */\n      swap2\n      pop\n        /* \"#utility.yul\":6517:6759   */\n      pop\n        /* \"#utility.yul\":6849:6853   */\n      0xe0\n        /* \"#utility.yul\":6842:6847   */\n      dup4\n        /* \"#utility.yul\":6838:6854   */\n      add\n        /* \"#utility.yul\":6832:6855   */\n      mload\n        /* \"#utility.yul\":6902:6905   */\n      dup5\n        /* \"#utility.yul\":6896:6900   */\n      dup3\n        /* \"#utility.yul\":6892:6906   */\n      sub\n        /* \"#utility.yul\":6885:6889   */\n      0xe0\n        /* \"#utility.yul\":6880:6883   */\n      dup7\n        /* \"#utility.yul\":6876:6890   */\n      add\n        /* \"#utility.yul\":6869:6907   */\n      mstore\n        /* \"#utility.yul\":6928:7001   */\n      tag_224\n        /* \"#utility.yul\":6996:7000   */\n      dup3\n        /* \"#utility.yul\":6982:6994   */\n      dup3\n        /* \"#utility.yul\":6928:7001   */\n      tag_127\n      jump\t// in\n    tag_224:\n        /* \"#utility.yul\":6920:7001   */\n      swap2\n      pop\n        /* \"#utility.yul\":6769:7012   */\n      pop\n        /* \"#utility.yul\":7029:7033   */\n      dup1\n        /* \"#utility.yul\":7022:7033   */\n      swap2\n      pop\n        /* \"#utility.yul\":5341:7039   */\n      pop\n        /* \"#utility.yul\":5221:7039   */\n      swap3\n      swap2\n      pop\n      pop\n      jump\t// out\n        /* \"#utility.yul\":7045:7313   */\n    tag_130:\n        /* \"#utility.yul\":7170:7180   */\n      0x00\n        /* \"#utility.yul\":7205:7307   */\n      tag_226\n        /* \"#utility.yul\":7303:7306   */\n      dup4\n        /* \"#utility.yul\":7295:7301   */\n      dup4\n        /* \"#utility.yul\":7205:7307   */\n      tag_129\n      jump\t// in\n    tag_226:\n        /* \"#utility.yul\":7191:7307   */\n      swap1\n      pop\n        /* \"#utility.yul\":7045:7313   */\n      swap3\n      swap2\n      pop\n      pop\n      jump\t// out\n        /* \"#utility.yul\":7319:7460   */\n    tag_131:\n        /* \"#utility.yul\":7417:7421   */\n      0x00\n        /* \"#utility.yul\":7449:7453   */\n      0x20\n        /* \"#utility.yul\":7444:7447   */\n      dup3\n        /* \"#utility.yul\":7440:7454   */\n      add\n        /* \"#utility.yul\":7432:7454   */\n      swap1\n      pop\n        /* \"#utility.yul\":7319:7460   */\n      swap2\n      swap1\n      pop\n      jump\t// out\n        /* \"#utility.yul\":7562:8697   */\n    tag_132:\n        /* \"#utility.yul\":7737:7740   */\n      0x00\n        /* \"#utility.yul\":7766:7848   */\n      tag_229\n        /* \"#utility.yul\":7842:7847   */\n      dup3\n        /* \"#utility.yul\":7766:7848   */\n      tag_122\n      jump\t// in\n    tag_229:\n        /* \"#utility.yul\":7864:7978   */\n      tag_230\n        /* \"#utility.yul\":7971:7977   */\n      dup2\n        /* \"#utility.yul\":7966:7969   */\n      dup6\n        /* \"#utility.yul\":7864:7978   */\n      tag_123\n      jump\t// in\n    tag_230:\n        /* \"#utility.yul\":7857:7978   */\n      swap4\n      pop\n        /* \"#utility.yul\":8004:8007   */\n      dup4\n        /* \"#utility.yul\":8049:8053   */\n      0x20\n        /* \"#utility.yul\":8041:8047   */\n      dup3\n        /* \"#utility.yul\":8037:8054   */\n      mul\n        /* \"#utility.yul\":8032:8035   */\n      dup6\n        /* \"#utility.yul\":8028:8055   */\n      add\n        /* \"#utility.yul\":8079:8163   */\n      tag_231\n        /* \"#utility.yul\":8157:8162   */\n      dup6\n        /* \"#utility.yul\":8079:8163   */\n      tag_124\n      jump\t// in\n    tag_231:\n        /* \"#utility.yul\":8186:8193   */\n      dup1\n        /* \"#utility.yul\":8217:8218   */\n      0x00\n        /* \"#utility.yul\":8202:8652   */\n    tag_232:\n        /* \"#utility.yul\":8227:8233   */\n      dup6\n        /* \"#utility.yul\":8224:8225   */\n      dup2\n        /* \"#utility.yul\":8221:8234   */\n      lt\n        /* \"#utility.yul\":8202:8652   */\n      iszero\n      tag_234\n      jumpi\n        /* \"#utility.yul\":8298:8307   */\n      dup5\n        /* \"#utility.yul\":8292:8296   */\n      dup5\n        /* \"#utility.yul\":8288:8308   */\n      sub\n        /* \"#utility.yul\":8283:8286   */\n      dup10\n        /* \"#utility.yul\":8276:8309   */\n      mstore\n        /* \"#utility.yul\":8349:8355   */\n      dup2\n        /* \"#utility.yul\":8343:8356   */\n      mload\n        /* \"#utility.yul\":8377:8497   */\n      tag_235\n        /* \"#utility.yul\":8492:8496   */\n      dup6\n        /* \"#utility.yul\":8477:8490   */\n      dup3\n        /* \"#utility.yul\":8377:8497   */\n      tag_130\n      jump\t// in\n    tag_235:\n        /* \"#utility.yul\":8369:8497   */\n      swap5\n      pop\n        /* \"#utility.yul\":8520:8608   */\n      tag_236\n        /* \"#utility.yul\":8601:8607   */\n      dup4\n        /* \"#utility.yul\":8520:8608   */\n      tag_131\n      jump\t// in\n    tag_236:\n        /* \"#utility.yul\":8510:8608   */\n      swap3\n      pop\n        /* \"#utility.yul\":8637:8641   */\n      0x20\n        /* \"#utility.yul\":8632:8635   */\n      dup11\n        /* \"#utility.yul\":8628:8642   */\n      add\n        /* \"#utility.yul\":8621:8642   */\n      swap10\n      pop\n        /* \"#utility.yul\":8262:8652   */\n      pop\n        /* \"#utility.yul\":8249:8250   */\n      0x01\n        /* \"#utility.yul\":8246:8247   */\n      dup2\n        /* \"#utility.yul\":8242:8251   */\n      add\n        /* \"#utility.yul\":8237:8251   */\n      swap1\n      pop\n        /* \"#utility.yul\":8202:8652   */\n      jump(tag_232)\n    tag_234:\n        /* \"#utility.yul\":8206:8220   */\n      pop\n        /* \"#utility.yul\":8668:8672   */\n      dup3\n        /* \"#utility.yul\":8661:8672   */\n      swap8\n      pop\n        /* \"#utility.yul\":8688:8691   */\n      dup8\n        /* \"#utility.yul\":8681:8691   */\n      swap6\n      pop\n        /* \"#utility.yul\":7742:8697   */\n      pop\n      pop\n      pop\n      pop\n      pop\n        /* \"#utility.yul\":7562:8697   */\n      swap3\n      swap2\n      pop\n      pop\n      jump\t// out\n        /* \"#utility.yul\":8703:9188   */\n    tag_17:\n        /* \"#utility.yul\":8902:8906   */\n      0x00\n        /* \"#utility.yul\":8940:8942   */\n      0x20\n        /* \"#utility.yul\":8929:8938   */\n      dup3\n        /* \"#utility.yul\":8925:8943   */\n      add\n        /* \"#utility.yul\":8917:8943   */\n      swap1\n      pop\n        /* \"#utility.yul\":8989:8998   */\n      dup2\n        /* \"#utility.yul\":8983:8987   */\n      dup2\n        /* \"#utility.yul\":8979:8999   */\n      sub\n        /* \"#utility.yul\":8975:8976   */\n      0x00\n        /* \"#utility.yul\":8964:8973   */\n      dup4\n        /* \"#utility.yul\":8960:8977   */\n      add\n        /* \"#utility.yul\":8953:9000   */\n      mstore\n        /* \"#utility.yul\":9017:9181   */\n      tag_238\n        /* \"#utility.yul\":9176:9180   */\n      dup2\n        /* \"#utility.yul\":9167:9173   */\n      dup5\n        /* \"#utility.yul\":9017:9181   */\n      tag_132\n      jump\t// in\n    tag_238:\n        /* \"#utility.yul\":9009:9181   */\n      swap1\n      pop\n        /* \"#utility.yul\":8703:9188   */\n      swap3\n      swap2\n      pop\n      pop\n      jump\t// out\n        /* \"#utility.yul\":9194:9311   */\n    tag_133:\n        /* \"#utility.yul\":9303:9304   */\n      0x00\n        /* \"#utility.yul\":9300:9301   */\n      dup1\n        /* \"#utility.yul\":9293:9305   */\n      revert\n        /* \"#utility.yul\":9317:9434   */\n    tag_134:\n        /* \"#utility.yul\":9426:9427   */\n      0x00\n        /* \"#utility.yul\":9423:9424   */\n      dup1\n        /* \"#utility.yul\":9416:9428   */\n      revert\n        /* \"#utility.yul\":9440:9620   */\n    tag_46:\n        /* \"#utility.yul\":9488:9565   */\n      0x4e487b7100000000000000000000000000000000000000000000000000000000\n        /* \"#utility.yul\":9485:9486   */\n      0x00\n        /* \"#utility.yul\":9478:9566   */\n      mstore\n        /* \"#utility.yul\":9585:9589   */\n      0x41\n        /* \"#utility.yul\":9582:9583   */\n      0x04\n        /* \"#utility.yul\":9575:9590   */\n      mstore\n        /* \"#utility.yul\":9609:9613   */\n      0x24\n        /* \"#utility.yul\":9606:9607   */\n      0x00\n        /* \"#utility.yul\":9599:9614   */\n      revert\n        /* \"#utility.yul\":9626:9907   */\n    tag_135:\n        /* \"#utility.yul\":9709:9736   */\n      tag_243\n        /* \"#utility.yul\":9731:9735   */\n      dup3\n        /* \"#utility.yul\":9709:9736   */\n      tag_117\n      jump\t// in\n    tag_243:\n        /* \"#utility.yul\":9701:9707   */\n      dup2\n        /* \"#utility.yul\":9697:9737   */\n      add\n        /* \"#utility.yul\":9839:9845   */\n      dup2\n        /* \"#utility.yul\":9827:9837   */\n      dup2\n        /* \"#utility.yul\":9824:9846   */\n      lt\n        /* \"#utility.yul\":9803:9821   */\n      0xffffffffffffffff\n        /* \"#utility.yul\":9791:9801   */\n      dup3\n        /* \"#utility.yul\":9788:9822   */\n      gt\n        /* \"#utility.yul\":9785:9847   */\n      or\n        /* \"#utility.yul\":9782:9870   */\n      iszero\n      tag_244\n      jumpi\n        /* \"#utility.yul\":9850:9868   */\n      tag_245\n      tag_46\n      jump\t// in\n    tag_245:\n        /* \"#utility.yul\":9782:9870   */\n    tag_244:\n        /* \"#utility.yul\":9890:9900   */\n      dup1\n        /* \"#utility.yul\":9886:9888   */\n      0x40\n        /* \"#utility.yul\":9879:9901   */\n      mstore\n        /* \"#utility.yul\":9669:9907   */\n      pop\n        /* \"#utility.yul\":9626:9907   */\n      pop\n      pop\n      jump\t// out\n        /* \"#utility.yul\":9913:10042   */\n    tag_136:\n        /* \"#utility.yul\":9947:9953   */\n      0x00\n        /* \"#utility.yul\":9974:9994   */\n      tag_247\n      tag_107\n      jump\t// in\n    tag_247:\n        /* \"#utility.yul\":9964:9994   */\n      swap1\n      pop\n        /* \"#utility.yul\":10003:10036   */\n      tag_248\n        /* \"#utility.yul\":10031:10035   */\n      dup3\n        /* \"#utility.yul\":10023:10029   */\n      dup3\n        /* \"#utility.yul\":10003:10036   */\n      tag_135\n      jump\t// in\n    tag_248:\n        /* \"#utility.yul\":9913:10042   */\n      swap2\n      swap1\n      pop\n      jump\t// out\n        /* \"#utility.yul\":10048:10356   */\n    tag_137:\n        /* \"#utility.yul\":10110:10114   */\n      0x00\n        /* \"#utility.yul\":10200:10218   */\n      0xffffffffffffffff\n        /* \"#utility.yul\":10192:10198   */\n      dup3\n        /* \"#utility.yul\":10189:10219   */\n      gt\n        /* \"#utility.yul\":10186:10242   */\n      iszero\n      tag_250\n      jumpi\n        /* \"#utility.yul\":10222:10240   */\n      tag_251\n      tag_46\n      jump\t// in\n    tag_251:\n        /* \"#utility.yul\":10186:10242   */\n    tag_250:\n        /* \"#utility.yul\":10260:10289   */\n      tag_252\n        /* \"#utility.yul\":10282:10288   */\n      dup3\n        /* \"#utility.yul\":10260:10289   */\n      tag_117\n      jump\t// in\n    tag_252:\n        /* \"#utility.yul\":10252:10289   */\n      swap1\n      pop\n        /* \"#utility.yul\":10344:10348   */\n      0x20\n        /* \"#utility.yul\":10338:10342   */\n      dup2\n        /* \"#utility.yul\":10334:10349   */\n      add\n        /* \"#utility.yul\":10326:10349   */\n      swap1\n      pop\n        /* \"#utility.yul\":10048:10356   */\n      swap2\n      swap1\n      pop\n      jump\t// out\n        /* \"#utility.yul\":10362:10516   */\n    tag_138:\n        /* \"#utility.yul\":10446:10452   */\n      dup3\n        /* \"#utility.yul\":10441:10444   */\n      dup2\n        /* \"#utility.yul\":10436:10439   */\n      dup4\n        /* \"#utility.yul\":10423:10453   */\n      calldatacopy\n        /* \"#utility.yul\":10508:10509   */\n      0x00\n        /* \"#utility.yul\":10499:10505   */\n      dup4\n        /* \"#utility.yul\":10494:10497   */\n      dup4\n        /* \"#utility.yul\":10490:10506   */\n      add\n        /* \"#utility.yul\":10483:10510   */\n      mstore\n        /* \"#utility.yul\":10362:10516   */\n      pop\n      pop\n      pop\n      jump\t// out\n        /* \"#utility.yul\":10522:10934   */\n    tag_139:\n        /* \"#utility.yul\":10600:10605   */\n      0x00\n        /* \"#utility.yul\":10625:10691   */\n      tag_255\n        /* \"#utility.yul\":10641:10690   */\n      tag_256\n        /* \"#utility.yul\":10683:10689   */\n      dup5\n        /* \"#utility.yul\":10641:10690   */\n      tag_137\n      jump\t// in\n    tag_256:\n        /* \"#utility.yul\":10625:10691   */\n      tag_136\n      jump\t// in\n    tag_255:\n        /* \"#utility.yul\":10616:10691   */\n      swap1\n      pop\n        /* \"#utility.yul\":10714:10720   */\n      dup3\n        /* \"#utility.yul\":10707:10712   */\n      dup2\n        /* \"#utility.yul\":10700:10721   */\n      mstore\n        /* \"#utility.yul\":10752:10756   */\n      0x20\n        /* \"#utility.yul\":10745:10750   */\n      dup2\n        /* \"#utility.yul\":10741:10757   */\n      add\n        /* \"#utility.yul\":10790:10793   */\n      dup5\n        /* \"#utility.yul\":10781:10787   */\n      dup5\n        /* \"#utility.yul\":10776:10779   */\n      dup5\n        /* \"#utility.yul\":10772:10788   */\n      add\n        /* \"#utility.yul\":10769:10794   */\n      gt\n        /* \"#utility.yul\":10766:10878   */\n      iszero\n      tag_257\n      jumpi\n        /* \"#utility.yul\":10797:10876   */\n      tag_258\n      tag_134\n      jump\t// in\n    tag_258:\n        /* \"#utility.yul\":10766:10878   */\n    tag_257:\n        /* \"#utility.yul\":10887:10928   */\n      tag_259\n        /* \"#utility.yul\":10921:10927   */\n      dup5\n        /* \"#utility.yul\":10916:10919   */\n      dup3\n        /* \"#utility.yul\":10911:10914   */\n      dup6\n        /* \"#utility.yul\":10887:10928   */\n      tag_138\n      jump\t// in\n    tag_259:\n        /* \"#utility.yul\":10606:10934   */\n      pop\n        /* \"#utility.yul\":10522:10934   */\n      swap4\n      swap3\n      pop\n      pop\n      pop\n      jump\t// out\n        /* \"#utility.yul\":10954:11294   */\n    tag_140:\n        /* \"#utility.yul\":11010:11015   */\n      0x00\n        /* \"#utility.yul\":11059:11062   */\n      dup3\n        /* \"#utility.yul\":11052:11056   */\n      0x1f\n        /* \"#utility.yul\":11044:11050   */\n      dup4\n        /* \"#utility.yul\":11040:11057   */\n      add\n        /* \"#utility.yul\":11036:11063   */\n      slt\n        /* \"#utility.yul\":11026:11148   */\n      tag_261\n      jumpi\n        /* \"#utility.yul\":11067:11146   */\n      tag_262\n      tag_133\n      jump\t// in\n    tag_262:\n        /* \"#utility.yul\":11026:11148   */\n    tag_261:\n        /* \"#utility.yul\":11184:11190   */\n      dup2\n        /* \"#utility.yul\":11171:11191   */\n      calldataload\n        /* \"#utility.yul\":11209:11288   */\n      tag_263\n        /* \"#utility.yul\":11284:11287   */\n      dup5\n        /* \"#utility.yul\":11276:11282   */\n      dup3\n        /* \"#utility.yul\":11269:11273   */\n      0x20\n        /* \"#utility.yul\":11261:11267   */\n      dup7\n        /* \"#utility.yul\":11257:11274   */\n      add\n        /* \"#utility.yul\":11209:11288   */\n      tag_139\n      jump\t// in\n    tag_263:\n        /* \"#utility.yul\":11200:11288   */\n      swap2\n      pop\n        /* \"#utility.yul\":11016:11294   */\n      pop\n        /* \"#utility.yul\":10954:11294   */\n      swap3\n      swap2\n      pop\n      pop\n      jump\t// out\n        /* \"#utility.yul\":11300:11422   */\n    tag_141:\n        /* \"#utility.yul\":11373:11397   */\n      tag_265\n        /* \"#utility.yul\":11391:11396   */\n      dup2\n        /* \"#utility.yul\":11373:11397   */\n      tag_120\n      jump\t// in\n    tag_265:\n        /* \"#utility.yul\":11366:11371   */\n      dup2\n        /* \"#utility.yul\":11363:11398   */\n      eq\n        /* \"#utility.yul\":11353:11416   */\n      tag_266\n      jumpi\n        /* \"#utility.yul\":11412:11413   */\n      0x00\n        /* \"#utility.yul\":11409:11410   */\n      dup1\n        /* \"#utility.yul\":11402:11414   */\n      revert\n        /* \"#utility.yul\":11353:11416   */\n    tag_266:\n        /* \"#utility.yul\":11300:11422   */\n      pop\n      jump\t// out\n        /* \"#utility.yul\":11428:11567   */\n    tag_142:\n        /* \"#utility.yul\":11474:11479   */\n      0x00\n        /* \"#utility.yul\":11512:11518   */\n      dup2\n        /* \"#utility.yul\":11499:11519   */\n      calldataload\n        /* \"#utility.yul\":11490:11519   */\n      swap1\n      pop\n        /* \"#utility.yul\":11528:11561   */\n      tag_268\n        /* \"#utility.yul\":11555:11560   */\n      dup2\n        /* \"#utility.yul\":11528:11561   */\n      tag_141\n      jump\t// in\n    tag_268:\n        /* \"#utility.yul\":11428:11567   */\n      swap3\n      swap2\n      pop\n      pop\n      jump\t// out\n        /* \"#utility.yul\":11573:12552   */\n    tag_23:\n        /* \"#utility.yul\":11670:11676   */\n      0x00\n        /* \"#utility.yul\":11678:11684   */\n      dup1\n        /* \"#utility.yul\":11686:11692   */\n      0x00\n        /* \"#utility.yul\":11735:11737   */\n      0x60\n        /* \"#utility.yul\":11723:11732   */\n      dup5\n        /* \"#utility.yul\":11714:11721   */\n      dup7\n        /* \"#utility.yul\":11710:11733   */\n      sub\n        /* \"#utility.yul\":11706:11738   */\n      slt\n        /* \"#utility.yul\":11703:11822   */\n      iszero\n      tag_270\n      jumpi\n        /* \"#utility.yul\":11741:11820   */\n      tag_271\n      tag_108\n      jump\t// in\n    tag_271:\n        /* \"#utility.yul\":11703:11822   */\n    tag_270:\n        /* \"#utility.yul\":11889:11890   */\n      0x00\n        /* \"#utility.yul\":11878:11887   */\n      dup5\n        /* \"#utility.yul\":11874:11891   */\n      add\n        /* \"#utility.yul\":11861:11892   */\n      calldataload\n        /* \"#utility.yul\":11919:11937   */\n      0xffffffffffffffff\n        /* \"#utility.yul\":11911:11917   */\n      dup2\n        /* \"#utility.yul\":11908:11938   */\n      gt\n        /* \"#utility.yul\":11905:12022   */\n      iszero\n      tag_272\n      jumpi\n        /* \"#utility.yul\":11941:12020   */\n      tag_273\n      tag_109\n      jump\t// in\n    tag_273:\n        /* \"#utility.yul\":11905:12022   */\n    tag_272:\n        /* \"#utility.yul\":12046:12109   */\n      tag_274\n        /* \"#utility.yul\":12101:12108   */\n      dup7\n        /* \"#utility.yul\":12092:12098   */\n      dup3\n        /* \"#utility.yul\":12081:12090   */\n      dup8\n        /* \"#utility.yul\":12077:12099   */\n      add\n        /* \"#utility.yul\":12046:12109   */\n      tag_140\n      jump\t// in\n    tag_274:\n        /* \"#utility.yul\":12036:12109   */\n      swap4\n      pop\n        /* \"#utility.yul\":11832:12119   */\n      pop\n        /* \"#utility.yul\":12158:12160   */\n      0x20\n        /* \"#utility.yul\":12184:12237   */\n      tag_275\n        /* \"#utility.yul\":12229:12236   */\n      dup7\n        /* \"#utility.yul\":12220:12226   */\n      dup3\n        /* \"#utility.yul\":12209:12218   */\n      dup8\n        /* \"#utility.yul\":12205:12227   */\n      add\n        /* \"#utility.yul\":12184:12237   */\n      tag_142\n      jump\t// in\n    tag_275:\n        /* \"#utility.yul\":12174:12237   */\n      swap3\n      pop\n        /* \"#utility.yul\":12129:12247   */\n      pop\n        /* \"#utility.yul\":12314:12316   */\n      0x40\n        /* \"#utility.yul\":12303:12312   */\n      dup5\n        /* \"#utility.yul\":12299:12317   */\n      add\n        /* \"#utility.yul\":12286:12318   */\n      calldataload\n        /* \"#utility.yul\":12345:12363   */\n      0xffffffffffffffff\n        /* \"#utility.yul\":12337:12343   */\n      dup2\n        /* \"#utility.yul\":12334:12364   */\n      gt\n        /* \"#utility.yul\":12331:12448   */\n      iszero\n      tag_276\n      jumpi\n        /* \"#utility.yul\":12367:12446   */\n      tag_277\n      tag_109\n      jump\t// in\n    tag_277:\n        /* \"#utility.yul\":12331:12448   */\n    tag_276:\n        /* \"#utility.yul\":12472:12535   */\n      tag_278\n        /* \"#utility.yul\":12527:12534   */\n      dup7\n        /* \"#utility.yul\":12518:12524   */\n      dup3\n        /* \"#utility.yul\":12507:12516   */\n      dup8\n        /* \"#utility.yul\":12503:12525   */\n      add\n        /* \"#utility.yul\":12472:12535   */\n      tag_140\n      jump\t// in\n    tag_278:\n        /* \"#utility.yul\":12462:12535   */\n      swap2\n      pop\n        /* \"#utility.yul\":12257:12545   */\n      pop\n        /* \"#utility.yul\":11573:12552   */\n      swap3\n      pop\n      swap3\n      pop\n      swap3\n      jump\t// out\n        /* \"#utility.yul\":12558:12738   */\n    tag_143:\n        /* \"#utility.yul\":12606:12683   */\n      0x4e487b7100000000000000000000000000000000000000000000000000000000\n        /* \"#utility.yul\":12603:12604   */\n      0x00\n        /* \"#utility.yul\":12596:12684   */\n      mstore\n        /* \"#utility.yul\":12703:12707   */\n      0x22\n        /* \"#utility.yul\":12700:12701   */\n      0x04\n        /* \"#utility.yul\":12693:12708   */\n      mstore\n        /* \"#utility.yul\":12727:12731   */\n      0x24\n        /* \"#utility.yul\":12724:12725   */\n      0x00\n        /* \"#utility.yul\":12717:12732   */\n      revert\n        /* \"#utility.yul\":12744:13064   */\n    tag_28:\n        /* \"#utility.yul\":12788:12794   */\n      0x00\n        /* \"#utility.yul\":12825:12826   */\n      0x02\n        /* \"#utility.yul\":12819:12823   */\n      dup3\n        /* \"#utility.yul\":12815:12827   */\n      div\n        /* \"#utility.yul\":12805:12827   */\n      swap1\n      pop\n        /* \"#utility.yul\":12872:12873   */\n      0x01\n        /* \"#utility.yul\":12866:12870   */\n      dup3\n        /* \"#utility.yul\":12862:12874   */\n      and\n        /* \"#utility.yul\":12893:12911   */\n      dup1\n        /* \"#utility.yul\":12883:12964   */\n      tag_281\n      jumpi\n        /* \"#utility.yul\":12949:12953   */\n      0x7f\n        /* \"#utility.yul\":12941:12947   */\n      dup3\n        /* \"#utility.yul\":12937:12954   */\n      and\n        /* \"#utility.yul\":12927:12954   */\n      swap2\n      pop\n        /* \"#utility.yul\":12883:12964   */\n    tag_281:\n        /* \"#utility.yul\":13011:13013   */\n      0x20\n        /* \"#utility.yul\":13003:13009   */\n      dup3\n        /* \"#utility.yul\":13000:13014   */\n      lt\n        /* \"#utility.yul\":12980:12998   */\n      dup2\n        /* \"#utility.yul\":12977:13015   */\n      sub\n        /* \"#utility.yul\":12974:13058   */\n      tag_282\n      jumpi\n        /* \"#utility.yul\":13030:13048   */\n      tag_283\n      tag_143\n      jump\t// in\n    tag_283:\n        /* \"#utility.yul\":12974:13058   */\n    tag_282:\n        /* \"#utility.yul\":12795:13064   */\n      pop\n        /* \"#utility.yul\":12744:13064   */\n      swap2\n      swap1\n      pop\n      jump\t// out\n        /* \"#utility.yul\":13070:13250   */\n    tag_56:\n        /* \"#utility.yul\":13118:13195   */\n      0x4e487b7100000000000000000000000000000000000000000000000000000000\n        /* \"#utility.yul\":13115:13116   */\n      0x00\n        /* \"#utility.yul\":13108:13196   */\n      mstore\n        /* \"#utility.yul\":13215:13219   */\n      0x32\n        /* \"#utility.yul\":13212:13213   */\n      0x04\n        /* \"#utility.yul\":13205:13220   */\n      mstore\n        /* \"#utility.yul\":13239:13243   */\n      0x24\n        /* \"#utility.yul\":13236:13237   */\n      0x00\n        /* \"#utility.yul\":13229:13244   */\n      revert\n        /* \"#utility.yul\":13256:13436   */\n    tag_144:\n        /* \"#utility.yul\":13304:13381   */\n      0x4e487b7100000000000000000000000000000000000000000000000000000000\n        /* \"#utility.yul\":13301:13302   */\n      0x00\n        /* \"#utility.yul\":13294:13382   */\n      mstore\n        /* \"#utility.yul\":13401:13405   */\n      0x11\n        /* \"#utility.yul\":13398:13399   */\n      0x04\n        /* \"#utility.yul\":13391:13406   */\n      mstore\n        /* \"#utility.yul\":13425:13429   */\n      0x24\n        /* \"#utility.yul\":13422:13423   */\n      0x00\n        /* \"#utility.yul\":13415:13430   */\n      revert\n        /* \"#utility.yul\":13442:13675   */\n    tag_80:\n        /* \"#utility.yul\":13481:13484   */\n      0x00\n        /* \"#utility.yul\":13504:13528   */\n      tag_287\n        /* \"#utility.yul\":13522:13527   */\n      dup3\n        /* \"#utility.yul\":13504:13528   */\n      tag_110\n      jump\t// in\n    tag_287:\n        /* \"#utility.yul\":13495:13528   */\n      swap2\n      pop\n        /* \"#utility.yul\":13550:13616   */\n      0xffffffffffffffffffffffffffffffffffffffffffffffffffffffffffffffff\n        /* \"#utility.yul\":13543:13548   */\n      dup3\n        /* \"#utility.yul\":13540:13617   */\n      sub\n        /* \"#utility.yul\":13537:13640   */\n      tag_288\n      jumpi\n        /* \"#utility.yul\":13620:13638   */\n      tag_289\n      tag_144\n      jump\t// in\n    tag_289:\n        /* \"#utility.yul\":13537:13640   */\n    tag_288:\n        /* \"#utility.yul\":13667:13668   */\n      0x01\n        /* \"#utility.yul\":13660:13665   */\n      dup3\n        /* \"#utility.yul\":13656:13669   */\n      add\n        /* \"#utility.yul\":13649:13669   */\n      swap1\n      pop\n        /* \"#utility.yul\":13442:13675   */\n      swap2\n      swap1\n      pop\n      jump\t// out\n        /* \"#utility.yul\":13681:13822   */\n    tag_145:\n        /* \"#utility.yul\":13730:13734   */\n      0x00\n        /* \"#utility.yul\":13753:13756   */\n      dup2\n        /* \"#utility.yul\":13745:13756   */\n      swap1\n      pop\n        /* \"#utility.yul\":13776:13779   */\n      dup2\n        /* \"#utility.yul\":13773:13774   */\n      0x00\n        /* \"#utility.yul\":13766:13780   */\n      mstore\n        /* \"#utility.yul\":13810:13814   */\n      0x20\n        /* \"#utility.yul\":13807:13808   */\n      0x00\n        /* \"#utility.yul\":13797:13815   */\n      keccak256\n        /* \"#utility.yul\":13789:13815   */\n      swap1\n      pop\n        /* \"#utility.yul\":13681:13822   */\n      swap2\n      swap1\n      pop\n      jump\t// out\n        /* \"#utility.yul\":13828:13921   */\n    tag_146:\n        /* \"#utility.yul\":13865:13871   */\n      0x00\n        /* \"#utility.yul\":13912:13914   */\n      0x20\n        /* \"#utility.yul\":13907:13909   */\n      0x1f\n        /* \"#utility.yul\":13900:13905   */\n      dup4\n        /* \"#utility.yul\":13896:13910   */\n      add\n        /* \"#utility.yul\":13892:13915   */\n      div\n        /* \"#utility.yul\":13882:13915   */\n      swap1\n      pop\n        /* \"#utility.yul\":13828:13921   */\n      swap2\n      swap1\n      pop\n      jump\t// out\n        /* \"#utility.yul\":13927:14034   */\n    tag_147:\n        /* \"#utility.yul\":13971:13979   */\n      0x00\n        /* \"#utility.yul\":14021:14026   */\n      dup3\n        /* \"#utility.yul\":14015:14019   */\n      dup3\n        /* \"#utility.yul\":14011:14027   */\n      shl\n        /* \"#utility.yul\":13990:14027   */\n      swap1\n      pop\n        /* \"#utility.yul\":13927:14034   */\n      swap3\n      swap2\n      pop\n      pop\n      jump\t// out\n        /* \"#utility.yul\":14040:14433   */\n    tag_148:\n        /* \"#utility.yul\":14109:14115   */\n      0x00\n        /* \"#utility.yul\":14159:14160   */\n      0x08\n        /* \"#utility.yul\":14147:14157   */\n      dup4\n        /* \"#utility.yul\":14143:14161   */\n      mul\n        /* \"#utility.yul\":14182:14279   */\n      tag_294\n        /* \"#utility.yul\":14212:14278   */\n      0xffffffffffffffffffffffffffffffffffffffffffffffffffffffffffffffff\n        /* \"#utility.yul\":14201:14210   */\n      dup3\n        /* \"#utility.yul\":14182:14279   */\n      tag_147\n      jump\t// in\n    tag_294:\n        /* \"#utility.yul\":14300:14339   */\n      tag_295\n        /* \"#utility.yul\":14330:14338   */\n      dup7\n        /* \"#utility.yul\":14319:14328   */\n      dup4\n        /* \"#utility.yul\":14300:14339   */\n      tag_147\n      jump\t// in\n    tag_295:\n        /* \"#utility.yul\":14288:14339   */\n      swap6\n      pop\n        /* \"#utility.yul\":14372:14376   */\n      dup1\n        /* \"#utility.yul\":14368:14377   */\n      not\n        /* \"#utility.yul\":14361:14366   */\n      dup5\n        /* \"#utility.yul\":14357:14378   */\n      and\n        /* \"#utility.yul\":14348:14378   */\n      swap4\n      pop\n        /* \"#utility.yul\":14421:14425   */\n      dup1\n        /* \"#utility.yul\":14411:14419   */\n      dup7\n        /* \"#utility.yul\":14407:14426   */\n      and\n        /* \"#utility.yul\":14400:14405   */\n      dup5\n        /* \"#utility.yul\":14397:14427   */\n      or\n        /* \"#utility.yul\":14387:14427   */\n      swap3\n      pop\n        /* \"#utility.yul\":14116:14433   */\n      pop\n      pop\n        /* \"#utility.yul\":14040:14433   */\n      swap4\n      swap3\n      pop\n      pop\n      pop\n      jump\t// out\n        /* \"#utility.yul\":14439:14499   */\n    tag_149:\n        /* \"#utility.yul\":14467:14470   */\n      0x00\n        /* \"#utility.yul\":14488:14493   */\n      dup2\n        /* \"#utility.yul\":14481:14493   */\n      swap1\n      pop\n        /* \"#utility.yul\":14439:14499   */\n      swap2\n      swap1\n      pop\n      jump\t// out\n        /* \"#utility.yul\":14505:14647   */\n    tag_150:\n        /* \"#utility.yul\":14555:14564   */\n      0x00\n        /* \"#utility.yul\":14588:14641   */\n      tag_298\n        /* \"#utility.yul\":14606:14640   */\n      tag_299\n        /* \"#utility.yul\":14615:14639   */\n      tag_300\n        /* \"#utility.yul\":14633:14638   */\n      dup5\n        /* \"#utility.yul\":14615:14639   */\n      tag_110\n      jump\t// in\n    tag_300:\n        /* \"#utility.yul\":14606:14640   */\n      tag_149\n      jump\t// in\n    tag_299:\n        /* \"#utility.yul\":14588:14641   */\n      tag_110\n      jump\t// in\n    tag_298:\n        /* \"#utility.yul\":14575:14641   */\n      swap1\n      pop\n        /* \"#utility.yul\":14505:14647   */\n      swap2\n      swap1\n      pop\n      jump\t// out\n        /* \"#utility.yul\":14653:14728   */\n    tag_151:\n        /* \"#utility.yul\":14696:14699   */\n      0x00\n        /* \"#utility.yul\":14717:14722   */\n      dup2\n        /* \"#utility.yul\":14710:14722   */\n      swap1\n      pop\n        /* \"#utility.yul\":14653:14728   */\n      swap2\n      swap1\n      pop\n      jump\t// out\n        /* \"#utility.yul\":14734:15003   */\n    tag_152:\n        /* \"#utility.yul\":14844:14883   */\n      tag_303\n        /* \"#utility.yul\":14875:14882   */\n      dup4\n        /* \"#utility.yul\":14844:14883   */\n      tag_150\n      jump\t// in\n    tag_303:\n        /* \"#utility.yul\":14905:14996   */\n      tag_304\n        /* \"#utility.yul\":14954:14995   */\n      tag_305\n        /* \"#utility.yul\":14978:14994   */\n      dup3\n        /* \"#utility.yul\":14954:14995   */\n      tag_151\n      jump\t// in\n    tag_305:\n        /* \"#utility.yul\":14946:14952   */\n      dup5\n        /* \"#utility.yul\":14939:14943   */\n      dup5\n        /* \"#utility.yul\":14933:14944   */\n      sload\n        /* \"#utility.yul\":14905:14996   */\n      tag_148\n      jump\t// in\n    tag_304:\n        /* \"#utility.yul\":14899:14903   */\n      dup3\n        /* \"#utility.yul\":14892:14997   */\n      sstore\n        /* \"#utility.yul\":14810:15003   */\n      pop\n        /* \"#utility.yul\":14734:15003   */\n      pop\n      pop\n      pop\n      jump\t// out\n        /* \"#utility.yul\":15009:15082   */\n    tag_153:\n        /* \"#utility.yul\":15054:15057   */\n      0x00\n        /* \"#utility.yul\":15009:15082   */\n      swap1\n      jump\t// out\n        /* \"#utility.yul\":15088:15277   */\n    tag_154:\n        /* \"#utility.yul\":15165:15197   */\n      tag_308\n      tag_153\n      jump\t// in\n    tag_308:\n        /* \"#utility.yul\":15206:15271   */\n      tag_309\n        /* \"#utility.yul\":15264:15270   */\n      dup2\n        /* \"#utility.yul\":15256:15262   */\n      dup5\n        /* \"#utility.yul\":15250:15254   */\n      dup5\n        /* \"#utility.yul\":15206:15271   */\n      tag_152\n      jump\t// in\n    tag_309:\n        /* \"#utility.yul\":15141:15277   */\n      pop\n        /* \"#utility.yul\":15088:15277   */\n      pop\n      pop\n      jump\t// out\n        /* \"#utility.yul\":15283:15469   */\n    tag_155:\n        /* \"#utility.yul\":15343:15463   */\n    tag_311:\n        /* \"#utility.yul\":15360:15363   */\n      dup2\n        /* \"#utility.yul\":15353:15358   */\n      dup2\n        /* \"#utility.yul\":15350:15364   */\n      lt\n        /* \"#utility.yul\":15343:15463   */\n      iszero\n      tag_313\n      jumpi\n        /* \"#utility.yul\":15414:15453   */\n      tag_314\n        /* \"#utility.yul\":15451:15452   */\n      0x00\n        /* \"#utility.yul\":15444:15449   */\n      dup3\n        /* \"#utility.yul\":15414:15453   */\n      tag_154\n      jump\t// in\n    tag_314:\n        /* \"#utility.yul\":15387:15388   */\n      0x01\n        /* \"#utility.yul\":15380:15385   */\n      dup2\n        /* \"#utility.yul\":15376:15389   */\n      add\n        /* \"#utility.yul\":15367:15389   */\n      swap1\n      pop\n        /* \"#utility.yul\":15343:15463   */\n      jump(tag_311)\n    tag_313:\n        /* \"#utility.yul\":15283:15469   */\n      pop\n      pop\n      jump\t// out\n        /* \"#utility.yul\":15475:16018   */\n    tag_156:\n        /* \"#utility.yul\":15576:15578   */\n      0x1f\n        /* \"#utility.yul\":15571:15574   */\n      dup3\n        /* \"#utility.yul\":15568:15579   */\n      gt\n        /* \"#utility.yul\":15565:16011   */\n      iszero\n      tag_316\n      jumpi\n        /* \"#utility.yul\":15610:15648   */\n      tag_317\n        /* \"#utility.yul\":15642:15647   */\n      dup2\n        /* \"#utility.yul\":15610:15648   */\n      tag_145\n      jump\t// in\n    tag_317:\n        /* \"#utility.yul\":15694:15723   */\n      tag_318\n        /* \"#utility.yul\":15712:15722   */\n      dup5\n        /* \"#utility.yul\":15694:15723   */\n      tag_146\n      jump\t// in\n    tag_318:\n        /* \"#utility.yul\":15684:15692   */\n      dup2\n        /* \"#utility.yul\":15680:15724   */\n      add\n        /* \"#utility.yul\":15877:15879   */\n      0x20\n        /* \"#utility.yul\":15865:15875   */\n      dup6\n        /* \"#utility.yul\":15862:15880   */\n      lt\n        /* \"#utility.yul\":15859:15908   */\n      iszero\n      tag_319\n      jumpi\n        /* \"#utility.yul\":15898:15906   */\n      dup2\n        /* \"#utility.yul\":15883:15906   */\n      swap1\n      pop\n        /* \"#utility.yul\":15859:15908   */\n    tag_319:\n        /* \"#utility.yul\":15921:16001   */\n      tag_320\n        /* \"#utility.yul\":15977:15999   */\n      tag_321\n        /* \"#utility.yul\":15995:15998   */\n      dup6\n        /* \"#utility.yul\":15977:15999   */\n      tag_146\n      jump\t// in\n    tag_321:\n        /* \"#utility.yul\":15967:15975   */\n      dup4\n        /* \"#utility.yul\":15963:16000   */\n      add\n        /* \"#utility.yul\":15950:15961   */\n      dup3\n        /* \"#utility.yul\":15921:16001   */\n      tag_155\n      jump\t// in\n    tag_320:\n        /* \"#utility.yul\":15580:16011   */\n      pop\n      pop\n        /* \"#utility.yul\":15565:16011   */\n    tag_316:\n        /* \"#utility.yul\":15475:16018   */\n      pop\n      pop\n      pop\n      jump\t// out\n        /* \"#utility.yul\":16024:16141   */\n    tag_157:\n        /* \"#utility.yul\":16078:16086   */\n      0x00\n        /* \"#utility.yul\":16128:16133   */\n      dup3\n        /* \"#utility.yul\":16122:16126   */\n      dup3\n        /* \"#utility.yul\":16118:16134   */\n      shr\n        /* \"#utility.yul\":16097:16134   */\n      swap1\n      pop\n        /* \"#utility.yul\":16024:16141   */\n      swap3\n      swap2\n      pop\n      pop\n      jump\t// out\n        /* \"#utility.yul\":16147:16316   */\n    tag_158:\n        /* \"#utility.yul\":16191:16197   */\n      0x00\n        /* \"#utility.yul\":16224:16275   */\n      tag_324\n        /* \"#utility.yul\":16272:16273   */\n      0x00\n        /* \"#utility.yul\":16268:16274   */\n      not\n        /* \"#utility.yul\":16260:16265   */\n      dup5\n        /* \"#utility.yul\":16257:16258   */\n      0x08\n        /* \"#utility.yul\":16253:16266   */\n      mul\n        /* \"#utility.yul\":16224:16275   */\n      tag_157\n      jump\t// in\n    tag_324:\n        /* \"#utility.yul\":16220:16276   */\n      not\n        /* \"#utility.yul\":16305:16309   */\n      dup1\n        /* \"#utility.yul\":16299:16303   */\n      dup4\n        /* \"#utility.yul\":16295:16310   */\n      and\n        /* \"#utility.yul\":16285:16310   */\n      swap2\n      pop\n        /* \"#utility.yul\":16198:16316   */\n      pop\n        /* \"#utility.yul\":16147:16316   */\n      swap3\n      swap2\n      pop\n      pop\n      jump\t// out\n        /* \"#utility.yul\":16321:16616   */\n    tag_159:\n        /* \"#utility.yul\":16397:16401   */\n      0x00\n        /* \"#utility.yul\":16543:16572   */\n      tag_326\n        /* \"#utility.yul\":16568:16571   */\n      dup4\n        /* \"#utility.yul\":16562:16566   */\n      dup4\n        /* \"#utility.yul\":16543:16572   */\n      tag_158\n      jump\t// in\n    tag_326:\n        /* \"#utility.yul\":16535:16572   */\n      swap2\n      pop\n        /* \"#utility.yul\":16605:16608   */\n      dup3\n        /* \"#utility.yul\":16602:16603   */\n      0x02\n        /* \"#utility.yul\":16598:16609   */\n      mul\n        /* \"#utility.yul\":16592:16596   */\n      dup3\n        /* \"#utility.yul\":16589:16610   */\n      or\n        /* \"#utility.yul\":16581:16610   */\n      swap1\n      pop\n        /* \"#utility.yul\":16321:16616   */\n      swap3\n      swap2\n      pop\n      pop\n      jump\t// out\n        /* \"#utility.yul\":16621:18016   */\n    tag_104:\n        /* \"#utility.yul\":16738:16775   */\n      tag_328\n        /* \"#utility.yul\":16771:16774   */\n      dup3\n        /* \"#utility.yul\":16738:16775   */\n      tag_114\n      jump\t// in\n    tag_328:\n        /* \"#utility.yul\":16840:16858   */\n      0xffffffffffffffff\n        /* \"#utility.yul\":16832:16838   */\n      dup2\n        /* \"#utility.yul\":16829:16859   */\n      gt\n        /* \"#utility.yul\":16826:16882   */\n      iszero\n      tag_329\n      jumpi\n        /* \"#utility.yul\":16862:16880   */\n      tag_330\n      tag_46\n      jump\t// in\n    tag_330:\n        /* \"#utility.yul\":16826:16882   */\n    tag_329:\n        /* \"#utility.yul\":16906:16944   */\n      tag_331\n        /* \"#utility.yul\":16938:16942   */\n      dup3\n        /* \"#utility.yul\":16932:16943   */\n      sload\n        /* \"#utility.yul\":16906:16944   */\n      tag_28\n      jump\t// in\n    tag_331:\n        /* \"#utility.yul\":16991:17058   */\n      tag_332\n        /* \"#utility.yul\":17051:17057   */\n      dup3\n        /* \"#utility.yul\":17043:17049   */\n      dup3\n        /* \"#utility.yul\":17037:17041   */\n      dup6\n        /* \"#utility.yul\":16991:17058   */\n      tag_156\n      jump\t// in\n    tag_332:\n        /* \"#utility.yul\":17085:17086   */\n      0x00\n        /* \"#utility.yul\":17109:17113   */\n      0x20\n        /* \"#utility.yul\":17096:17113   */\n      swap1\n      pop\n        /* \"#utility.yul\":17141:17143   */\n      0x1f\n        /* \"#utility.yul\":17133:17139   */\n      dup4\n        /* \"#utility.yul\":17130:17144   */\n      gt\n        /* \"#utility.yul\":17158:17159   */\n      0x01\n        /* \"#utility.yul\":17153:17771   */\n      dup2\n      eq\n      tag_334\n      jumpi\n        /* \"#utility.yul\":17815:17816   */\n      0x00\n        /* \"#utility.yul\":17832:17838   */\n      dup5\n        /* \"#utility.yul\":17829:17906   */\n      iszero\n      tag_335\n      jumpi\n        /* \"#utility.yul\":17881:17890   */\n      dup3\n        /* \"#utility.yul\":17876:17879   */\n      dup8\n        /* \"#utility.yul\":17872:17891   */\n      add\n        /* \"#utility.yul\":17866:17892   */\n      mload\n        /* \"#utility.yul\":17857:17892   */\n      swap1\n      pop\n        /* \"#utility.yul\":17829:17906   */\n    tag_335:\n        /* \"#utility.yul\":17932:17999   */\n      tag_336\n        /* \"#utility.yul\":17992:17998   */\n      dup6\n        /* \"#utility.yul\":17985:17990   */\n      dup3\n        /* \"#utility.yul\":17932:17999   */\n      tag_159\n      jump\t// in\n    tag_336:\n        /* \"#utility.yul\":17926:17930   */\n      dup7\n        /* \"#utility.yul\":17919:18000   */\n      sstore\n        /* \"#utility.yul\":17788:18010   */\n      pop\n        /* \"#utility.yul\":17123:18010   */\n      jump(tag_333)\n        /* \"#utility.yul\":17153:17771   */\n    tag_334:\n        /* \"#utility.yul\":17205:17209   */\n      0x1f\n        /* \"#utility.yul\":17201:17210   */\n      not\n        /* \"#utility.yul\":17193:17199   */\n      dup5\n        /* \"#utility.yul\":17189:17211   */\n      and\n        /* \"#utility.yul\":17239:17276   */\n      tag_337\n        /* \"#utility.yul\":17271:17275   */\n      dup7\n        /* \"#utility.yul\":17239:17276   */\n      tag_145\n      jump\t// in\n    tag_337:\n        /* \"#utility.yul\":17298:17299   */\n      0x00\n        /* \"#utility.yul\":17312:17520   */\n    tag_338:\n        /* \"#utility.yul\":17326:17333   */\n      dup3\n        /* \"#utility.yul\":17323:17324   */\n      dup2\n        /* \"#utility.yul\":17320:17334   */\n      lt\n        /* \"#utility.yul\":17312:17520   */\n      iszero\n      tag_340\n      jumpi\n        /* \"#utility.yul\":17405:17414   */\n      dup5\n        /* \"#utility.yul\":17400:17403   */\n      dup10\n        /* \"#utility.yul\":17396:17415   */\n      add\n        /* \"#utility.yul\":17390:17416   */\n      mload\n        /* \"#utility.yul\":17382:17388   */\n      dup3\n        /* \"#utility.yul\":17375:17417   */\n      sstore\n        /* \"#utility.yul\":17456:17457   */\n      0x01\n        /* \"#utility.yul\":17448:17454   */\n      dup3\n        /* \"#utility.yul\":17444:17458   */\n      add\n        /* \"#utility.yul\":17434:17458   */\n      swap2\n      pop\n        /* \"#utility.yul\":17503:17505   */\n      0x20\n        /* \"#utility.yul\":17492:17501   */\n      dup6\n        /* \"#utility.yul\":17488:17506   */\n      add\n        /* \"#utility.yul\":17475:17506   */\n      swap5\n      pop\n        /* \"#utility.yul\":17349:17353   */\n      0x20\n        /* \"#utility.yul\":17346:17347   */\n      dup2\n        /* \"#utility.yul\":17342:17354   */\n      add\n        /* \"#utility.yul\":17337:17354   */\n      swap1\n      pop\n        /* \"#utility.yul\":17312:17520   */\n      jump(tag_338)\n    tag_340:\n        /* \"#utility.yul\":17548:17554   */\n      dup7\n        /* \"#utility.yul\":17539:17546   */\n      dup4\n        /* \"#utility.yul\":17536:17555   */\n      lt\n        /* \"#utility.yul\":17533:17712   */\n      iszero\n      tag_341\n      jumpi\n        /* \"#utility.yul\":17606:17615   */\n      dup5\n        /* \"#utility.yul\":17601:17604   */\n      dup10\n        /* \"#utility.yul\":17597:17616   */\n      add\n        /* \"#utility.yul\":17591:17617   */\n      mload\n        /* \"#utility.yul\":17649:17697   */\n      tag_342\n        /* \"#utility.yul\":17691:17695   */\n      0x1f\n        /* \"#utility.yul\":17683:17689   */\n      dup10\n        /* \"#utility.yul\":17679:17696   */\n      and\n        /* \"#utility.yul\":17668:17677   */\n      dup3\n        /* \"#utility.yul\":17649:17697   */\n      tag_158\n      jump\t// in\n    tag_342:\n        /* \"#utility.yul\":17641:17647   */\n      dup4\n        /* \"#utility.yul\":17634:17698   */\n      sstore\n        /* \"#utility.yul\":17556:17712   */\n      pop\n        /* \"#utility.yul\":17533:17712   */\n    tag_341:\n        /* \"#utility.yul\":17758:17759   */\n      0x01\n        /* \"#utility.yul\":17754:17755   */\n      0x02\n        /* \"#utility.yul\":17746:17752   */\n      dup9\n        /* \"#utility.yul\":17742:17756   */\n      mul\n        /* \"#utility.yul\":17738:17760   */\n      add\n        /* \"#utility.yul\":17732:17736   */\n      dup9\n        /* \"#utility.yul\":17725:17761   */\n      sstore\n        /* \"#utility.yul\":17160:17771   */\n      pop\n      pop\n      pop\n        /* \"#utility.yul\":17123:18010   */\n    tag_333:\n      pop\n        /* \"#utility.yul\":16713:18016   */\n      pop\n      pop\n      pop\n        /* \"#utility.yul\":16621:18016   */\n      pop\n      pop\n      jump\t// out\n\n    auxdata: 0xa264697066735822122045377ea40b0e8dde9f5c53063ac0c1d69f18a656419c4a7d95108eb6284198b764736f6c634300080f0033\n}\n",
				"bytecode": {
					"linkReferences": {},
					"object": "608060405234801561001057600080fd5b50611577806100206000396000f3fe608060405234801561001057600080fd5b506004361061004c5760003560e01c806380c9419e14610051578063904cc17514610088578063942b765a146100b8578063a97af4d5146100d6575b600080fd5b61006b60048036038101906100669190610c1e565b6100f2565b60405161007f989796959493929190610d34565b60405180910390f35b6100a2600480360381019061009d9190610c1e565b610322565b6040516100af9190610faf565b60405180910390f35b6100c06106a7565b6040516100cd9190610faf565b60405180910390f35b6100f060048036038101906100eb9190611132565b610987565b005b6001818154811061010257600080fd5b906000526020600020906008020160009150905080600001549080600101805461012b906111ec565b80601f0160208091040260200160405190810160405280929190818152602001828054610157906111ec565b80156101a45780601f10610179576101008083540402835291602001916101a4565b820191906000526020600020905b81548152906001019060200180831161018757829003601f168201915b5050505050908060020154908060030160009054906101000a900473ffffffffffffffffffffffffffffffffffffffff16908060040160009054906101000a900473ffffffffffffffffffffffffffffffffffffffff1690806005015490806006018054610211906111ec565b80601f016020809104026020016040519081016040528092919081815260200182805461023d906111ec565b801561028a5780601f1061025f5761010080835404028352916020019161028a565b820191906000526020600020905b81548152906001019060200180831161026d57829003601f168201915b50505050509080600701805461029f906111ec565b80601f01602080910402602001604051908101604052809291908181526020018280546102cb906111ec565b80156103185780601f106102ed57610100808354040283529160200191610318565b820191906000526020600020905b8154815290600101906020018083116102fb57829003601f168201915b5050505050905088565b6060600060018054905067ffffffffffffffff81111561034557610344610fdb565b5b60405190808252806020026020018201604052801561037e57816020015b61036b610b63565b8152602001906001900390816103635790505b50905060005b60018054905081101561069d5783600182815481106103a6576103a561121d565b5b9060005260206000209060080201600201540361068a57600181815481106103d1576103d061121d565b5b90600052602060002090600802016040518061010001604052908160008201548152602001600182018054610405906111ec565b80601f0160208091040260200160405190810160405280929190818152602001828054610431906111ec565b801561047e5780601f106104535761010080835404028352916020019161047e565b820191906000526020600020905b81548152906001019060200180831161046157829003601f168201915b50505050508152602001600282015481526020016003820160009054906101000a900473ffffffffffffffffffffffffffffffffffffffff1673ffffffffffffffffffffffffffffffffffffffff1673ffffffffffffffffffffffffffffffffffffffff1681526020016004820160009054906101000a900473ffffffffffffffffffffffffffffffffffffffff1673ffffffffffffffffffffffffffffffffffffffff1673ffffffffffffffffffffffffffffffffffffffff16815260200160058201548152602001600682018054610557906111ec565b80601f0160208091040260200160405190810160405280929190818152602001828054610583906111ec565b80156105d05780601f106105a5576101008083540402835291602001916105d0565b820191906000526020600020905b8154815290600101906020018083116105b357829003601f168201915b505050505081526020016007820180546105e9906111ec565b80601f0160208091040260200160405190810160405280929190818152602001828054610615906111ec565b80156106625780601f1061063757610100808354040283529160200191610662565b820191906000526020600020905b81548152906001019060200180831161064557829003601f168201915b50505050508152505082828151811061067e5761067d61121d565b5b60200260200101819052505b80806106959061127b565b915050610384565b5080915050919050565b60606001805480602002602001604051908101604052809291908181526020016000905b8282101561097e57838290600052602060002090600802016040518061010001604052908160008201548152602001600182018054610709906111ec565b80601f0160208091040260200160405190810160405280929190818152602001828054610735906111ec565b80156107825780601f1061075757610100808354040283529160200191610782565b820191906000526020600020905b81548152906001019060200180831161076557829003601f168201915b50505050508152602001600282015481526020016003820160009054906101000a900473ffffffffffffffffffffffffffffffffffffffff1673ffffffffffffffffffffffffffffffffffffffff1673ffffffffffffffffffffffffffffffffffffffff1681526020016004820160009054906101000a900473ffffffffffffffffffffffffffffffffffffffff1673ffffffffffffffffffffffffffffffffffffffff1673ffffffffffffffffffffffffffffffffffffffff1681526020016005820154815260200160068201805461085b906111ec565b80601f0160208091040260200160405190810160405280929190818152602001828054610887906111ec565b80156108d45780601f106108a9576101008083540402835291602001916108d4565b820191906000526020600020905b8154815290600101906020018083116108b757829003601f168201915b505050505081526020016007820180546108ed906111ec565b80601f0160208091040260200160405190810160405280929190818152602001828054610919906111ec565b80156109665780601f1061093b57610100808354040283529160200191610966565b820191906000526020600020905b81548152906001019060200180831161094957829003601f168201915b505050505081525050815260200190600101906106cb565b50505050905090565b6000808154809291906109999061127b565b919050555060006040518061010001604052806000548152602001858152602001600081526020013373ffffffffffffffffffffffffffffffffffffffff1681526020018473ffffffffffffffffffffffffffffffffffffffff168152602001600081526020018381526020016040518060400160405280600181526020017f300000000000000000000000000000000000000000000000000000000000000081525081525090506001819080600181540180825580915050600190039060005260206000209060080201600090919091909150600082015181600001556020820151816001019081610a8c919061146f565b506040820151816002015560608201518160030160006101000a81548173ffffffffffffffffffffffffffffffffffffffff021916908373ffffffffffffffffffffffffffffffffffffffff16021790555060808201518160040160006101000a81548173ffffffffffffffffffffffffffffffffffffffff021916908373ffffffffffffffffffffffffffffffffffffffff16021790555060a0820151816005015560c0820151816006019081610b44919061146f565b5060e0820151816007019081610b5a919061146f565b50505050505050565b604051806101000160405280600081526020016060815260200160008152602001600073ffffffffffffffffffffffffffffffffffffffff168152602001600073ffffffffffffffffffffffffffffffffffffffff1681526020016000815260200160608152602001606081525090565b6000604051905090565b600080fd5b600080fd5b6000819050919050565b610bfb81610be8565b8114610c0657600080fd5b50565b600081359050610c1881610bf2565b92915050565b600060208284031215610c3457610c33610bde565b5b6000610c4284828501610c09565b91505092915050565b610c5481610be8565b82525050565b600081519050919050565b600082825260208201905092915050565b60005b83811015610c94578082015181840152602081019050610c79565b83811115610ca3576000848401525b50505050565b6000601f19601f8301169050919050565b6000610cc582610c5a565b610ccf8185610c65565b9350610cdf818560208601610c76565b610ce881610ca9565b840191505092915050565b600073ffffffffffffffffffffffffffffffffffffffff82169050919050565b6000610d1e82610cf3565b9050919050565b610d2e81610d13565b82525050565b600061010082019050610d4a600083018b610c4b565b8181036020830152610d5c818a610cba565b9050610d6b6040830189610c4b565b610d786060830188610d25565b610d856080830187610d25565b610d9260a0830186610c4b565b81810360c0830152610da48185610cba565b905081810360e0830152610db88184610cba565b90509998505050505050505050565b600081519050919050565b600082825260208201905092915050565b6000819050602082019050919050565b610dfc81610be8565b82525050565b600082825260208201905092915050565b6000610e1e82610c5a565b610e288185610e02565b9350610e38818560208601610c76565b610e4181610ca9565b840191505092915050565b610e5581610d13565b82525050565b600061010083016000830151610e746000860182610df3565b5060208301518482036020860152610e8c8282610e13565b9150506040830151610ea16040860182610df3565b506060830151610eb46060860182610e4c565b506080830151610ec76080860182610e4c565b5060a0830151610eda60a0860182610df3565b5060c083015184820360c0860152610ef28282610e13565b91505060e083015184820360e0860152610f0c8282610e13565b9150508091505092915050565b6000610f258383610e5b565b905092915050565b6000602082019050919050565b6000610f4582610dc7565b610f4f8185610dd2565b935083602082028501610f6185610de3565b8060005b85811015610f9d5784840389528151610f7e8582610f19565b9450610f8983610f2d565b925060208a01995050600181019050610f65565b50829750879550505050505092915050565b60006020820190508181036000830152610fc98184610f3a565b905092915050565b600080fd5b600080fd5b7f4e487b7100000000000000000000000000000000000000000000000000000000600052604160045260246000fd5b61101382610ca9565b810181811067ffffffffffffffff8211171561103257611031610fdb565b5b80604052505050565b6000611045610bd4565b9050611051828261100a565b919050565b600067ffffffffffffffff82111561107157611070610fdb565b5b61107a82610ca9565b9050602081019050919050565b82818337600083830152505050565b60006110a96110a484611056565b61103b565b9050828152602081018484840111156110c5576110c4610fd6565b5b6110d0848285611087565b509392505050565b600082601f8301126110ed576110ec610fd1565b5b81356110fd848260208601611096565b91505092915050565b61110f81610d13565b811461111a57600080fd5b50565b60008135905061112c81611106565b92915050565b60008060006060848603121561114b5761114a610bde565b5b600084013567ffffffffffffffff81111561116957611168610be3565b5b611175868287016110d8565b93505060206111868682870161111d565b925050604084013567ffffffffffffffff8111156111a7576111a6610be3565b5b6111b3868287016110d8565b9150509250925092565b7f4e487b7100000000000000000000000000000000000000000000000000000000600052602260045260246000fd5b6000600282049050600182168061120457607f821691505b602082108103611217576112166111bd565b5b50919050565b7f4e487b7100000000000000000000000000000000000000000000000000000000600052603260045260246000fd5b7f4e487b7100000000000000000000000000000000000000000000000000000000600052601160045260246000fd5b600061128682610be8565b91507fffffffffffffffffffffffffffffffffffffffffffffffffffffffffffffffff82036112b8576112b761124c565b5b600182019050919050565b60008190508160005260206000209050919050565b60006020601f8301049050919050565b600082821b905092915050565b6000600883026113257fffffffffffffffffffffffffffffffffffffffffffffffffffffffffffffffff826112e8565b61132f86836112e8565b95508019841693508086168417925050509392505050565b6000819050919050565b600061136c61136761136284610be8565b611347565b610be8565b9050919050565b6000819050919050565b61138683611351565b61139a61139282611373565b8484546112f5565b825550505050565b600090565b6113af6113a2565b6113ba81848461137d565b505050565b5b818110156113de576113d36000826113a7565b6001810190506113c0565b5050565b601f821115611423576113f4816112c3565b6113fd846112d8565b8101602085101561140c578190505b611420611418856112d8565b8301826113bf565b50505b505050565b600082821c905092915050565b600061144660001984600802611428565b1980831691505092915050565b600061145f8383611435565b9150826002028217905092915050565b61147882610c5a565b67ffffffffffffffff81111561149157611490610fdb565b5b61149b82546111ec565b6114a68282856113e2565b600060209050601f8311600181146114d957600084156114c7578287015190505b6114d18582611453565b865550611539565b601f1984166114e7866112c3565b60005b8281101561150f578489015182556001820191506020850194506020810190506114ea565b8683101561152c5784890151611528601f891682611435565b8355505b6001600288020188555050505b50505050505056fea264697066735822122045377ea40b0e8dde9f5c53063ac0c1d69f18a656419c4a7d95108eb6284198b764736f6c634300080f0033",
					"opcodes": "PUSH1 0x80 PUSH1 0x40 MSTORE CALLVALUE DUP1 ISZERO PUSH2 0x10 JUMPI PUSH1 0x0 DUP1 REVERT JUMPDEST POP PUSH2 0x1577 DUP1 PUSH2 0x20 PUSH1 0x0 CODECOPY PUSH1 0x0 RETURN INVALID PUSH1 0x80 PUSH1 0x40 MSTORE CALLVALUE DUP1 ISZERO PUSH2 0x10 JUMPI PUSH1 0x0 DUP1 REVERT JUMPDEST POP PUSH1 0x4 CALLDATASIZE LT PUSH2 0x4C JUMPI PUSH1 0x0 CALLDATALOAD PUSH1 0xE0 SHR DUP1 PUSH4 0x80C9419E EQ PUSH2 0x51 JUMPI DUP1 PUSH4 0x904CC175 EQ PUSH2 0x88 JUMPI DUP1 PUSH4 0x942B765A EQ PUSH2 0xB8 JUMPI DUP1 PUSH4 0xA97AF4D5 EQ PUSH2 0xD6 JUMPI JUMPDEST PUSH1 0x0 DUP1 REVERT JUMPDEST PUSH2 0x6B PUSH1 0x4 DUP1 CALLDATASIZE SUB DUP2 ADD SWAP1 PUSH2 0x66 SWAP2 SWAP1 PUSH2 0xC1E JUMP JUMPDEST PUSH2 0xF2 JUMP JUMPDEST PUSH1 0x40 MLOAD PUSH2 0x7F SWAP9 SWAP8 SWAP7 SWAP6 SWAP5 SWAP4 SWAP3 SWAP2 SWAP1 PUSH2 0xD34 JUMP JUMPDEST PUSH1 0x40 MLOAD DUP1 SWAP2 SUB SWAP1 RETURN JUMPDEST PUSH2 0xA2 PUSH1 0x4 DUP1 CALLDATASIZE SUB DUP2 ADD SWAP1 PUSH2 0x9D SWAP2 SWAP1 PUSH2 0xC1E JUMP JUMPDEST PUSH2 0x322 JUMP JUMPDEST PUSH1 0x40 MLOAD PUSH2 0xAF SWAP2 SWAP1 PUSH2 0xFAF JUMP JUMPDEST PUSH1 0x40 MLOAD DUP1 SWAP2 SUB SWAP1 RETURN JUMPDEST PUSH2 0xC0 PUSH2 0x6A7 JUMP JUMPDEST PUSH1 0x40 MLOAD PUSH2 0xCD SWAP2 SWAP1 PUSH2 0xFAF JUMP JUMPDEST PUSH1 0x40 MLOAD DUP1 SWAP2 SUB SWAP1 RETURN JUMPDEST PUSH2 0xF0 PUSH1 0x4 DUP1 CALLDATASIZE SUB DUP2 ADD SWAP1 PUSH2 0xEB SWAP2 SWAP1 PUSH2 0x1132 JUMP JUMPDEST PUSH2 0x987 JUMP JUMPDEST STOP JUMPDEST PUSH1 0x1 DUP2 DUP2 SLOAD DUP2 LT PUSH2 0x102 JUMPI PUSH1 0x0 DUP1 REVERT JUMPDEST SWAP1 PUSH1 0x0 MSTORE PUSH1 0x20 PUSH1 0x0 KECCAK256 SWAP1 PUSH1 0x8 MUL ADD PUSH1 0x0 SWAP2 POP SWAP1 POP DUP1 PUSH1 0x0 ADD SLOAD SWAP1 DUP1 PUSH1 0x1 ADD DUP1 SLOAD PUSH2 0x12B SWAP1 PUSH2 0x11EC JUMP JUMPDEST DUP1 PUSH1 0x1F ADD PUSH1 0x20 DUP1 SWAP2 DIV MUL PUSH1 0x20 ADD PUSH1 0x40 MLOAD SWAP1 DUP2 ADD PUSH1 0x40 MSTORE DUP1 SWAP3 SWAP2 SWAP1 DUP2 DUP2 MSTORE PUSH1 0x20 ADD DUP3 DUP1 SLOAD PUSH2 0x157 SWAP1 PUSH2 0x11EC JUMP JUMPDEST DUP1 ISZERO PUSH2 0x1A4 JUMPI DUP1 PUSH1 0x1F LT PUSH2 0x179 JUMPI PUSH2 0x100 DUP1 DUP4 SLOAD DIV MUL DUP4 MSTORE SWAP2 PUSH1 0x20 ADD SWAP2 PUSH2 0x1A4 JUMP JUMPDEST DUP3 ADD SWAP2 SWAP1 PUSH1 0x0 MSTORE PUSH1 0x20 PUSH1 0x0 KECCAK256 SWAP1 JUMPDEST DUP2 SLOAD DUP2 MSTORE SWAP1 PUSH1 0x1 ADD SWAP1 PUSH1 0x20 ADD DUP1 DUP4 GT PUSH2 0x187 JUMPI DUP3 SWAP1 SUB PUSH1 0x1F AND DUP3 ADD SWAP2 JUMPDEST POP POP POP POP POP SWAP1 DUP1 PUSH1 0x2 ADD SLOAD SWAP1 DUP1 PUSH1 0x3 ADD PUSH1 0x0 SWAP1 SLOAD SWAP1 PUSH2 0x100 EXP SWAP1 DIV PUSH20 0xFFFFFFFFFFFFFFFFFFFFFFFFFFFFFFFFFFFFFFFF AND SWAP1 DUP1 PUSH1 0x4 ADD PUSH1 0x0 SWAP1 SLOAD SWAP1 PUSH2 0x100 EXP SWAP1 DIV PUSH20 0xFFFFFFFFFFFFFFFFFFFFFFFFFFFFFFFFFFFFFFFF AND SWAP1 DUP1 PUSH1 0x5 ADD SLOAD SWAP1 DUP1 PUSH1 0x6 ADD DUP1 SLOAD PUSH2 0x211 SWAP1 PUSH2 0x11EC JUMP JUMPDEST DUP1 PUSH1 0x1F ADD PUSH1 0x20 DUP1 SWAP2 DIV MUL PUSH1 0x20 ADD PUSH1 0x40 MLOAD SWAP1 DUP2 ADD PUSH1 0x40 MSTORE DUP1 SWAP3 SWAP2 SWAP1 DUP2 DUP2 MSTORE PUSH1 0x20 ADD DUP3 DUP1 SLOAD PUSH2 0x23D SWAP1 PUSH2 0x11EC JUMP JUMPDEST DUP1 ISZERO PUSH2 0x28A JUMPI DUP1 PUSH1 0x1F LT PUSH2 0x25F JUMPI PUSH2 0x100 DUP1 DUP4 SLOAD DIV MUL DUP4 MSTORE SWAP2 PUSH1 0x20 ADD SWAP2 PUSH2 0x28A JUMP JUMPDEST DUP3 ADD SWAP2 SWAP1 PUSH1 0x0 MSTORE PUSH1 0x20 PUSH1 0x0 KECCAK256 SWAP1 JUMPDEST DUP2 SLOAD DUP2 MSTORE SWAP1 PUSH1 0x1 ADD SWAP1 PUSH1 0x20 ADD DUP1 DUP4 GT PUSH2 0x26D JUMPI DUP3 SWAP1 SUB PUSH1 0x1F AND DUP3 ADD SWAP2 JUMPDEST POP POP POP POP POP SWAP1 DUP1 PUSH1 0x7 ADD DUP1 SLOAD PUSH2 0x29F SWAP1 PUSH2 0x11EC JUMP JUMPDEST DUP1 PUSH1 0x1F ADD PUSH1 0x20 DUP1 SWAP2 DIV MUL PUSH1 0x20 ADD PUSH1 0x40 MLOAD SWAP1 DUP2 ADD PUSH1 0x40 MSTORE DUP1 SWAP3 SWAP2 SWAP1 DUP2 DUP2 MSTORE PUSH1 0x20 ADD DUP3 DUP1 SLOAD PUSH2 0x2CB SWAP1 PUSH2 0x11EC JUMP JUMPDEST DUP1 ISZERO PUSH2 0x318 JUMPI DUP1 PUSH1 0x1F LT PUSH2 0x2ED JUMPI PUSH2 0x100 DUP1 DUP4 SLOAD DIV MUL DUP4 MSTORE SWAP2 PUSH1 0x20 ADD SWAP2 PUSH2 0x318 JUMP JUMPDEST DUP3 ADD SWAP2 SWAP1 PUSH1 0x0 MSTORE PUSH1 0x20 PUSH1 0x0 KECCAK256 SWAP1 JUMPDEST DUP2 SLOAD DUP2 MSTORE SWAP1 PUSH1 0x1 ADD SWAP1 PUSH1 0x20 ADD DUP1 DUP4 GT PUSH2 0x2FB JUMPI DUP3 SWAP1 SUB PUSH1 0x1F AND DUP3 ADD SWAP2 JUMPDEST POP POP POP POP POP SWAP1 POP DUP9 JUMP JUMPDEST PUSH1 0x60 PUSH1 0x0 PUSH1 0x1 DUP1 SLOAD SWAP1 POP PUSH8 0xFFFFFFFFFFFFFFFF DUP2 GT ISZERO PUSH2 0x345 JUMPI PUSH2 0x344 PUSH2 0xFDB JUMP JUMPDEST JUMPDEST PUSH1 0x40 MLOAD SWAP1 DUP1 DUP3 MSTORE DUP1 PUSH1 0x20 MUL PUSH1 0x20 ADD DUP3 ADD PUSH1 0x40 MSTORE DUP1 ISZERO PUSH2 0x37E JUMPI DUP2 PUSH1 0x20 ADD JUMPDEST PUSH2 0x36B PUSH2 0xB63 JUMP JUMPDEST DUP2 MSTORE PUSH1 0x20 ADD SWAP1 PUSH1 0x1 SWAP1 SUB SWAP1 DUP2 PUSH2 0x363 JUMPI SWAP1 POP JUMPDEST POP SWAP1 POP PUSH1 0x0 JUMPDEST PUSH1 0x1 DUP1 SLOAD SWAP1 POP DUP2 LT ISZERO PUSH2 0x69D JUMPI DUP4 PUSH1 0x1 DUP3 DUP2 SLOAD DUP2 LT PUSH2 0x3A6 JUMPI PUSH2 0x3A5 PUSH2 0x121D JUMP JUMPDEST JUMPDEST SWAP1 PUSH1 0x0 MSTORE PUSH1 0x20 PUSH1 0x0 KECCAK256 SWAP1 PUSH1 0x8 MUL ADD PUSH1 0x2 ADD SLOAD SUB PUSH2 0x68A JUMPI PUSH1 0x1 DUP2 DUP2 SLOAD DUP2 LT PUSH2 0x3D1 JUMPI PUSH2 0x3D0 PUSH2 0x121D JUMP JUMPDEST JUMPDEST SWAP1 PUSH1 0x0 MSTORE PUSH1 0x20 PUSH1 0x0 KECCAK256 SWAP1 PUSH1 0x8 MUL ADD PUSH1 0x40 MLOAD DUP1 PUSH2 0x100 ADD PUSH1 0x40 MSTORE SWAP1 DUP2 PUSH1 0x0 DUP3 ADD SLOAD DUP2 MSTORE PUSH1 0x20 ADD PUSH1 0x1 DUP3 ADD DUP1 SLOAD PUSH2 0x405 SWAP1 PUSH2 0x11EC JUMP JUMPDEST DUP1 PUSH1 0x1F ADD PUSH1 0x20 DUP1 SWAP2 DIV MUL PUSH1 0x20 ADD PUSH1 0x40 MLOAD SWAP1 DUP2 ADD PUSH1 0x40 MSTORE DUP1 SWAP3 SWAP2 SWAP1 DUP2 DUP2 MSTORE PUSH1 0x20 ADD DUP3 DUP1 SLOAD PUSH2 0x431 SWAP1 PUSH2 0x11EC JUMP JUMPDEST DUP1 ISZERO PUSH2 0x47E JUMPI DUP1 PUSH1 0x1F LT PUSH2 0x453 JUMPI PUSH2 0x100 DUP1 DUP4 SLOAD DIV MUL DUP4 MSTORE SWAP2 PUSH1 0x20 ADD SWAP2 PUSH2 0x47E JUMP JUMPDEST DUP3 ADD SWAP2 SWAP1 PUSH1 0x0 MSTORE PUSH1 0x20 PUSH1 0x0 KECCAK256 SWAP1 JUMPDEST DUP2 SLOAD DUP2 MSTORE SWAP1 PUSH1 0x1 ADD SWAP1 PUSH1 0x20 ADD DUP1 DUP4 GT PUSH2 0x461 JUMPI DUP3 SWAP1 SUB PUSH1 0x1F AND DUP3 ADD SWAP2 JUMPDEST POP POP POP POP POP DUP2 MSTORE PUSH1 0x20 ADD PUSH1 0x2 DUP3 ADD SLOAD DUP2 MSTORE PUSH1 0x20 ADD PUSH1 0x3 DUP3 ADD PUSH1 0x0 SWAP1 SLOAD SWAP1 PUSH2 0x100 EXP SWAP1 DIV PUSH20 0xFFFFFFFFFFFFFFFFFFFFFFFFFFFFFFFFFFFFFFFF AND PUSH20 0xFFFFFFFFFFFFFFFFFFFFFFFFFFFFFFFFFFFFFFFF AND PUSH20 0xFFFFFFFFFFFFFFFFFFFFFFFFFFFFFFFFFFFFFFFF AND DUP2 MSTORE PUSH1 0x20 ADD PUSH1 0x4 DUP3 ADD PUSH1 0x0 SWAP1 SLOAD SWAP1 PUSH2 0x100 EXP SWAP1 DIV PUSH20 0xFFFFFFFFFFFFFFFFFFFFFFFFFFFFFFFFFFFFFFFF AND PUSH20 0xFFFFFFFFFFFFFFFFFFFFFFFFFFFFFFFFFFFFFFFF AND PUSH20 0xFFFFFFFFFFFFFFFFFFFFFFFFFFFFFFFFFFFFFFFF AND DUP2 MSTORE PUSH1 0x20 ADD PUSH1 0x5 DUP3 ADD SLOAD DUP2 MSTORE PUSH1 0x20 ADD PUSH1 0x6 DUP3 ADD DUP1 SLOAD PUSH2 0x557 SWAP1 PUSH2 0x11EC JUMP JUMPDEST DUP1 PUSH1 0x1F ADD PUSH1 0x20 DUP1 SWAP2 DIV MUL PUSH1 0x20 ADD PUSH1 0x40 MLOAD SWAP1 DUP2 ADD PUSH1 0x40 MSTORE DUP1 SWAP3 SWAP2 SWAP1 DUP2 DUP2 MSTORE PUSH1 0x20 ADD DUP3 DUP1 SLOAD PUSH2 0x583 SWAP1 PUSH2 0x11EC JUMP JUMPDEST DUP1 ISZERO PUSH2 0x5D0 JUMPI DUP1 PUSH1 0x1F LT PUSH2 0x5A5 JUMPI PUSH2 0x100 DUP1 DUP4 SLOAD DIV MUL DUP4 MSTORE SWAP2 PUSH1 0x20 ADD SWAP2 PUSH2 0x5D0 JUMP JUMPDEST DUP3 ADD SWAP2 SWAP1 PUSH1 0x0 MSTORE PUSH1 0x20 PUSH1 0x0 KECCAK256 SWAP1 JUMPDEST DUP2 SLOAD DUP2 MSTORE SWAP1 PUSH1 0x1 ADD SWAP1 PUSH1 0x20 ADD DUP1 DUP4 GT PUSH2 0x5B3 JUMPI DUP3 SWAP1 SUB PUSH1 0x1F AND DUP3 ADD SWAP2 JUMPDEST POP POP POP POP POP DUP2 MSTORE PUSH1 0x20 ADD PUSH1 0x7 DUP3 ADD DUP1 SLOAD PUSH2 0x5E9 SWAP1 PUSH2 0x11EC JUMP JUMPDEST DUP1 PUSH1 0x1F ADD PUSH1 0x20 DUP1 SWAP2 DIV MUL PUSH1 0x20 ADD PUSH1 0x40 MLOAD SWAP1 DUP2 ADD PUSH1 0x40 MSTORE DUP1 SWAP3 SWAP2 SWAP1 DUP2 DUP2 MSTORE PUSH1 0x20 ADD DUP3 DUP1 SLOAD PUSH2 0x615 SWAP1 PUSH2 0x11EC JUMP JUMPDEST DUP1 ISZERO PUSH2 0x662 JUMPI DUP1 PUSH1 0x1F LT PUSH2 0x637 JUMPI PUSH2 0x100 DUP1 DUP4 SLOAD DIV MUL DUP4 MSTORE SWAP2 PUSH1 0x20 ADD SWAP2 PUSH2 0x662 JUMP JUMPDEST DUP3 ADD SWAP2 SWAP1 PUSH1 0x0 MSTORE PUSH1 0x20 PUSH1 0x0 KECCAK256 SWAP1 JUMPDEST DUP2 SLOAD DUP2 MSTORE SWAP1 PUSH1 0x1 ADD SWAP1 PUSH1 0x20 ADD DUP1 DUP4 GT PUSH2 0x645 JUMPI DUP3 SWAP1 SUB PUSH1 0x1F AND DUP3 ADD SWAP2 JUMPDEST POP POP POP POP POP DUP2 MSTORE POP POP DUP3 DUP3 DUP2 MLOAD DUP2 LT PUSH2 0x67E JUMPI PUSH2 0x67D PUSH2 0x121D JUMP JUMPDEST JUMPDEST PUSH1 0x20 MUL PUSH1 0x20 ADD ADD DUP2 SWAP1 MSTORE POP JUMPDEST DUP1 DUP1 PUSH2 0x695 SWAP1 PUSH2 0x127B JUMP JUMPDEST SWAP2 POP POP PUSH2 0x384 JUMP JUMPDEST POP DUP1 SWAP2 POP POP SWAP2 SWAP1 POP JUMP JUMPDEST PUSH1 0x60 PUSH1 0x1 DUP1 SLOAD DUP1 PUSH1 0x20 MUL PUSH1 0x20 ADD PUSH1 0x40 MLOAD SWAP1 DUP2 ADD PUSH1 0x40 MSTORE DUP1 SWAP3 SWAP2 SWAP1 DUP2 DUP2 MSTORE PUSH1 0x20 ADD PUSH1 0x0 SWAP1 JUMPDEST DUP3 DUP3 LT ISZERO PUSH2 0x97E JUMPI DUP4 DUP3 SWAP1 PUSH1 0x0 MSTORE PUSH1 0x20 PUSH1 0x0 KECCAK256 SWAP1 PUSH1 0x8 MUL ADD PUSH1 0x40 MLOAD DUP1 PUSH2 0x100 ADD PUSH1 0x40 MSTORE SWAP1 DUP2 PUSH1 0x0 DUP3 ADD SLOAD DUP2 MSTORE PUSH1 0x20 ADD PUSH1 0x1 DUP3 ADD DUP1 SLOAD PUSH2 0x709 SWAP1 PUSH2 0x11EC JUMP JUMPDEST DUP1 PUSH1 0x1F ADD PUSH1 0x20 DUP1 SWAP2 DIV MUL PUSH1 0x20 ADD PUSH1 0x40 MLOAD SWAP1 DUP2 ADD PUSH1 0x40 MSTORE DUP1 SWAP3 SWAP2 SWAP1 DUP2 DUP2 MSTORE PUSH1 0x20 ADD DUP3 DUP1 SLOAD PUSH2 0x735 SWAP1 PUSH2 0x11EC JUMP JUMPDEST DUP1 ISZERO PUSH2 0x782 JUMPI DUP1 PUSH1 0x1F LT PUSH2 0x757 JUMPI PUSH2 0x100 DUP1 DUP4 SLOAD DIV MUL DUP4 MSTORE SWAP2 PUSH1 0x20 ADD SWAP2 PUSH2 0x782 JUMP JUMPDEST DUP3 ADD SWAP2 SWAP1 PUSH1 0x0 MSTORE PUSH1 0x20 PUSH1 0x0 KECCAK256 SWAP1 JUMPDEST DUP2 SLOAD DUP2 MSTORE SWAP1 PUSH1 0x1 ADD SWAP1 PUSH1 0x20 ADD DUP1 DUP4 GT PUSH2 0x765 JUMPI DUP3 SWAP1 SUB PUSH1 0x1F AND DUP3 ADD SWAP2 JUMPDEST POP POP POP POP POP DUP2 MSTORE PUSH1 0x20 ADD PUSH1 0x2 DUP3 ADD SLOAD DUP2 MSTORE PUSH1 0x20 ADD PUSH1 0x3 DUP3 ADD PUSH1 0x0 SWAP1 SLOAD SWAP1 PUSH2 0x100 EXP SWAP1 DIV PUSH20 0xFFFFFFFFFFFFFFFFFFFFFFFFFFFFFFFFFFFFFFFF AND PUSH20 0xFFFFFFFFFFFFFFFFFFFFFFFFFFFFFFFFFFFFFFFF AND PUSH20 0xFFFFFFFFFFFFFFFFFFFFFFFFFFFFFFFFFFFFFFFF AND DUP2 MSTORE PUSH1 0x20 ADD PUSH1 0x4 DUP3 ADD PUSH1 0x0 SWAP1 SLOAD SWAP1 PUSH2 0x100 EXP SWAP1 DIV PUSH20 0xFFFFFFFFFFFFFFFFFFFFFFFFFFFFFFFFFFFFFFFF AND PUSH20 0xFFFFFFFFFFFFFFFFFFFFFFFFFFFFFFFFFFFFFFFF AND PUSH20 0xFFFFFFFFFFFFFFFFFFFFFFFFFFFFFFFFFFFFFFFF AND DUP2 MSTORE PUSH1 0x20 ADD PUSH1 0x5 DUP3 ADD SLOAD DUP2 MSTORE PUSH1 0x20 ADD PUSH1 0x6 DUP3 ADD DUP1 SLOAD PUSH2 0x85B SWAP1 PUSH2 0x11EC JUMP JUMPDEST DUP1 PUSH1 0x1F ADD PUSH1 0x20 DUP1 SWAP2 DIV MUL PUSH1 0x20 ADD PUSH1 0x40 MLOAD SWAP1 DUP2 ADD PUSH1 0x40 MSTORE DUP1 SWAP3 SWAP2 SWAP1 DUP2 DUP2 MSTORE PUSH1 0x20 ADD DUP3 DUP1 SLOAD PUSH2 0x887 SWAP1 PUSH2 0x11EC JUMP JUMPDEST DUP1 ISZERO PUSH2 0x8D4 JUMPI DUP1 PUSH1 0x1F LT PUSH2 0x8A9 JUMPI PUSH2 0x100 DUP1 DUP4 SLOAD DIV MUL DUP4 MSTORE SWAP2 PUSH1 0x20 ADD SWAP2 PUSH2 0x8D4 JUMP JUMPDEST DUP3 ADD SWAP2 SWAP1 PUSH1 0x0 MSTORE PUSH1 0x20 PUSH1 0x0 KECCAK256 SWAP1 JUMPDEST DUP2 SLOAD DUP2 MSTORE SWAP1 PUSH1 0x1 ADD SWAP1 PUSH1 0x20 ADD DUP1 DUP4 GT PUSH2 0x8B7 JUMPI DUP3 SWAP1 SUB PUSH1 0x1F AND DUP3 ADD SWAP2 JUMPDEST POP POP POP POP POP DUP2 MSTORE PUSH1 0x20 ADD PUSH1 0x7 DUP3 ADD DUP1 SLOAD PUSH2 0x8ED SWAP1 PUSH2 0x11EC JUMP JUMPDEST DUP1 PUSH1 0x1F ADD PUSH1 0x20 DUP1 SWAP2 DIV MUL PUSH1 0x20 ADD PUSH1 0x40 MLOAD SWAP1 DUP2 ADD PUSH1 0x40 MSTORE DUP1 SWAP3 SWAP2 SWAP1 DUP2 DUP2 MSTORE PUSH1 0x20 ADD DUP3 DUP1 SLOAD PUSH2 0x919 SWAP1 PUSH2 0x11EC JUMP JUMPDEST DUP1 ISZERO PUSH2 0x966 JUMPI DUP1 PUSH1 0x1F LT PUSH2 0x93B JUMPI PUSH2 0x100 DUP1 DUP4 SLOAD DIV MUL DUP4 MSTORE SWAP2 PUSH1 0x20 ADD SWAP2 PUSH2 0x966 JUMP JUMPDEST DUP3 ADD SWAP2 SWAP1 PUSH1 0x0 MSTORE PUSH1 0x20 PUSH1 0x0 KECCAK256 SWAP1 JUMPDEST DUP2 SLOAD DUP2 MSTORE SWAP1 PUSH1 0x1 ADD SWAP1 PUSH1 0x20 ADD DUP1 DUP4 GT PUSH2 0x949 JUMPI DUP3 SWAP1 SUB PUSH1 0x1F AND DUP3 ADD SWAP2 JUMPDEST POP POP POP POP POP DUP2 MSTORE POP POP DUP2 MSTORE PUSH1 0x20 ADD SWAP1 PUSH1 0x1 ADD SWAP1 PUSH2 0x6CB JUMP JUMPDEST POP POP POP POP SWAP1 POP SWAP1 JUMP JUMPDEST PUSH1 0x0 DUP1 DUP2 SLOAD DUP1 SWAP3 SWAP2 SWAP1 PUSH2 0x999 SWAP1 PUSH2 0x127B JUMP JUMPDEST SWAP2 SWAP1 POP SSTORE POP PUSH1 0x0 PUSH1 0x40 MLOAD DUP1 PUSH2 0x100 ADD PUSH1 0x40 MSTORE DUP1 PUSH1 0x0 SLOAD DUP2 MSTORE PUSH1 0x20 ADD DUP6 DUP2 MSTORE PUSH1 0x20 ADD PUSH1 0x0 DUP2 MSTORE PUSH1 0x20 ADD CALLER PUSH20 0xFFFFFFFFFFFFFFFFFFFFFFFFFFFFFFFFFFFFFFFF AND DUP2 MSTORE PUSH1 0x20 ADD DUP5 PUSH20 0xFFFFFFFFFFFFFFFFFFFFFFFFFFFFFFFFFFFFFFFF AND DUP2 MSTORE PUSH1 0x20 ADD PUSH1 0x0 DUP2 MSTORE PUSH1 0x20 ADD DUP4 DUP2 MSTORE PUSH1 0x20 ADD PUSH1 0x40 MLOAD DUP1 PUSH1 0x40 ADD PUSH1 0x40 MSTORE DUP1 PUSH1 0x1 DUP2 MSTORE PUSH1 0x20 ADD PUSH32 0x3000000000000000000000000000000000000000000000000000000000000000 DUP2 MSTORE POP DUP2 MSTORE POP SWAP1 POP PUSH1 0x1 DUP2 SWAP1 DUP1 PUSH1 0x1 DUP2 SLOAD ADD DUP1 DUP3 SSTORE DUP1 SWAP2 POP POP PUSH1 0x1 SWAP1 SUB SWAP1 PUSH1 0x0 MSTORE PUSH1 0x20 PUSH1 0x0 KECCAK256 SWAP1 PUSH1 0x8 MUL ADD PUSH1 0x0 SWAP1 SWAP2 SWAP1 SWAP2 SWAP1 SWAP2 POP PUSH1 0x0 DUP3 ADD MLOAD DUP2 PUSH1 0x0 ADD SSTORE PUSH1 0x20 DUP3 ADD MLOAD DUP2 PUSH1 0x1 ADD SWAP1 DUP2 PUSH2 0xA8C SWAP2 SWAP1 PUSH2 0x146F JUMP JUMPDEST POP PUSH1 0x40 DUP3 ADD MLOAD DUP2 PUSH1 0x2 ADD SSTORE PUSH1 0x60 DUP3 ADD MLOAD DUP2 PUSH1 0x3 ADD PUSH1 0x0 PUSH2 0x100 EXP DUP2 SLOAD DUP2 PUSH20 0xFFFFFFFFFFFFFFFFFFFFFFFFFFFFFFFFFFFFFFFF MUL NOT AND SWAP1 DUP4 PUSH20 0xFFFFFFFFFFFFFFFFFFFFFFFFFFFFFFFFFFFFFFFF AND MUL OR SWAP1 SSTORE POP PUSH1 0x80 DUP3 ADD MLOAD DUP2 PUSH1 0x4 ADD PUSH1 0x0 PUSH2 0x100 EXP DUP2 SLOAD DUP2 PUSH20 0xFFFFFFFFFFFFFFFFFFFFFFFFFFFFFFFFFFFFFFFF MUL NOT AND SWAP1 DUP4 PUSH20 0xFFFFFFFFFFFFFFFFFFFFFFFFFFFFFFFFFFFFFFFF AND MUL OR SWAP1 SSTORE POP PUSH1 0xA0 DUP3 ADD MLOAD DUP2 PUSH1 0x5 ADD SSTORE PUSH1 0xC0 DUP3 ADD MLOAD DUP2 PUSH1 0x6 ADD SWAP1 DUP2 PUSH2 0xB44 SWAP2 SWAP1 PUSH2 0x146F JUMP JUMPDEST POP PUSH1 0xE0 DUP3 ADD MLOAD DUP2 PUSH1 0x7 ADD SWAP1 DUP2 PUSH2 0xB5A SWAP2 SWAP1 PUSH2 0x146F JUMP JUMPDEST POP POP POP POP POP POP POP JUMP JUMPDEST PUSH1 0x40 MLOAD DUP1 PUSH2 0x100 ADD PUSH1 0x40 MSTORE DUP1 PUSH1 0x0 DUP2 MSTORE PUSH1 0x20 ADD PUSH1 0x60 DUP2 MSTORE PUSH1 0x20 ADD PUSH1 0x0 DUP2 MSTORE PUSH1 0x20 ADD PUSH1 0x0 PUSH20 0xFFFFFFFFFFFFFFFFFFFFFFFFFFFFFFFFFFFFFFFF AND DUP2 MSTORE PUSH1 0x20 ADD PUSH1 0x0 PUSH20 0xFFFFFFFFFFFFFFFFFFFFFFFFFFFFFFFFFFFFFFFF AND DUP2 MSTORE PUSH1 0x20 ADD PUSH1 0x0 DUP2 MSTORE PUSH1 0x20 ADD PUSH1 0x60 DUP2 MSTORE PUSH1 0x20 ADD PUSH1 0x60 DUP2 MSTORE POP SWAP1 JUMP JUMPDEST PUSH1 0x0 PUSH1 0x40 MLOAD SWAP1 POP SWAP1 JUMP JUMPDEST PUSH1 0x0 DUP1 REVERT JUMPDEST PUSH1 0x0 DUP1 REVERT JUMPDEST PUSH1 0x0 DUP2 SWAP1 POP SWAP2 SWAP1 POP JUMP JUMPDEST PUSH2 0xBFB DUP2 PUSH2 0xBE8 JUMP JUMPDEST DUP2 EQ PUSH2 0xC06 JUMPI PUSH1 0x0 DUP1 REVERT JUMPDEST POP JUMP JUMPDEST PUSH1 0x0 DUP2 CALLDATALOAD SWAP1 POP PUSH2 0xC18 DUP2 PUSH2 0xBF2 JUMP JUMPDEST SWAP3 SWAP2 POP POP JUMP JUMPDEST PUSH1 0x0 PUSH1 0x20 DUP3 DUP5 SUB SLT ISZERO PUSH2 0xC34 JUMPI PUSH2 0xC33 PUSH2 0xBDE JUMP JUMPDEST JUMPDEST PUSH1 0x0 PUSH2 0xC42 DUP5 DUP3 DUP6 ADD PUSH2 0xC09 JUMP JUMPDEST SWAP2 POP POP SWAP3 SWAP2 POP POP JUMP JUMPDEST PUSH2 0xC54 DUP2 PUSH2 0xBE8 JUMP JUMPDEST DUP3 MSTORE POP POP JUMP JUMPDEST PUSH1 0x0 DUP2 MLOAD SWAP1 POP SWAP2 SWAP1 POP JUMP JUMPDEST PUSH1 0x0 DUP3 DUP3 MSTORE PUSH1 0x20 DUP3 ADD SWAP1 POP SWAP3 SWAP2 POP POP JUMP JUMPDEST PUSH1 0x0 JUMPDEST DUP4 DUP2 LT ISZERO PUSH2 0xC94 JUMPI DUP1 DUP3 ADD MLOAD DUP2 DUP5 ADD MSTORE PUSH1 0x20 DUP2 ADD SWAP1 POP PUSH2 0xC79 JUMP JUMPDEST DUP4 DUP2 GT ISZERO PUSH2 0xCA3 JUMPI PUSH1 0x0 DUP5 DUP5 ADD MSTORE JUMPDEST POP POP POP POP JUMP JUMPDEST PUSH1 0x0 PUSH1 0x1F NOT PUSH1 0x1F DUP4 ADD AND SWAP1 POP SWAP2 SWAP1 POP JUMP JUMPDEST PUSH1 0x0 PUSH2 0xCC5 DUP3 PUSH2 0xC5A JUMP JUMPDEST PUSH2 0xCCF DUP2 DUP6 PUSH2 0xC65 JUMP JUMPDEST SWAP4 POP PUSH2 0xCDF DUP2 DUP6 PUSH1 0x20 DUP7 ADD PUSH2 0xC76 JUMP JUMPDEST PUSH2 0xCE8 DUP2 PUSH2 0xCA9 JUMP JUMPDEST DUP5 ADD SWAP2 POP POP SWAP3 SWAP2 POP POP JUMP JUMPDEST PUSH1 0x0 PUSH20 0xFFFFFFFFFFFFFFFFFFFFFFFFFFFFFFFFFFFFFFFF DUP3 AND SWAP1 POP SWAP2 SWAP1 POP JUMP JUMPDEST PUSH1 0x0 PUSH2 0xD1E DUP3 PUSH2 0xCF3 JUMP JUMPDEST SWAP1 POP SWAP2 SWAP1 POP JUMP JUMPDEST PUSH2 0xD2E DUP2 PUSH2 0xD13 JUMP JUMPDEST DUP3 MSTORE POP POP JUMP JUMPDEST PUSH1 0x0 PUSH2 0x100 DUP3 ADD SWAP1 POP PUSH2 0xD4A PUSH1 0x0 DUP4 ADD DUP12 PUSH2 0xC4B JUMP JUMPDEST DUP2 DUP2 SUB PUSH1 0x20 DUP4 ADD MSTORE PUSH2 0xD5C DUP2 DUP11 PUSH2 0xCBA JUMP JUMPDEST SWAP1 POP PUSH2 0xD6B PUSH1 0x40 DUP4 ADD DUP10 PUSH2 0xC4B JUMP JUMPDEST PUSH2 0xD78 PUSH1 0x60 DUP4 ADD DUP9 PUSH2 0xD25 JUMP JUMPDEST PUSH2 0xD85 PUSH1 0x80 DUP4 ADD DUP8 PUSH2 0xD25 JUMP JUMPDEST PUSH2 0xD92 PUSH1 0xA0 DUP4 ADD DUP7 PUSH2 0xC4B JUMP JUMPDEST DUP2 DUP2 SUB PUSH1 0xC0 DUP4 ADD MSTORE PUSH2 0xDA4 DUP2 DUP6 PUSH2 0xCBA JUMP JUMPDEST SWAP1 POP DUP2 DUP2 SUB PUSH1 0xE0 DUP4 ADD MSTORE PUSH2 0xDB8 DUP2 DUP5 PUSH2 0xCBA JUMP JUMPDEST SWAP1 POP SWAP10 SWAP9 POP POP POP POP POP POP POP POP POP JUMP JUMPDEST PUSH1 0x0 DUP2 MLOAD SWAP1 POP SWAP2 SWAP1 POP JUMP JUMPDEST PUSH1 0x0 DUP3 DUP3 MSTORE PUSH1 0x20 DUP3 ADD SWAP1 POP SWAP3 SWAP2 POP POP JUMP JUMPDEST PUSH1 0x0 DUP2 SWAP1 POP PUSH1 0x20 DUP3 ADD SWAP1 POP SWAP2 SWAP1 POP JUMP JUMPDEST PUSH2 0xDFC DUP2 PUSH2 0xBE8 JUMP JUMPDEST DUP3 MSTORE POP POP JUMP JUMPDEST PUSH1 0x0 DUP3 DUP3 MSTORE PUSH1 0x20 DUP3 ADD SWAP1 POP SWAP3 SWAP2 POP POP JUMP JUMPDEST PUSH1 0x0 PUSH2 0xE1E DUP3 PUSH2 0xC5A JUMP JUMPDEST PUSH2 0xE28 DUP2 DUP6 PUSH2 0xE02 JUMP JUMPDEST SWAP4 POP PUSH2 0xE38 DUP2 DUP6 PUSH1 0x20 DUP7 ADD PUSH2 0xC76 JUMP JUMPDEST PUSH2 0xE41 DUP2 PUSH2 0xCA9 JUMP JUMPDEST DUP5 ADD SWAP2 POP POP SWAP3 SWAP2 POP POP JUMP JUMPDEST PUSH2 0xE55 DUP2 PUSH2 0xD13 JUMP JUMPDEST DUP3 MSTORE POP POP JUMP JUMPDEST PUSH1 0x0 PUSH2 0x100 DUP4 ADD PUSH1 0x0 DUP4 ADD MLOAD PUSH2 0xE74 PUSH1 0x0 DUP7 ADD DUP3 PUSH2 0xDF3 JUMP JUMPDEST POP PUSH1 0x20 DUP4 ADD MLOAD DUP5 DUP3 SUB PUSH1 0x20 DUP7 ADD MSTORE PUSH2 0xE8C DUP3 DUP3 PUSH2 0xE13 JUMP JUMPDEST SWAP2 POP POP PUSH1 0x40 DUP4 ADD MLOAD PUSH2 0xEA1 PUSH1 0x40 DUP7 ADD DUP3 PUSH2 0xDF3 JUMP JUMPDEST POP PUSH1 0x60 DUP4 ADD MLOAD PUSH2 0xEB4 PUSH1 0x60 DUP7 ADD DUP3 PUSH2 0xE4C JUMP JUMPDEST POP PUSH1 0x80 DUP4 ADD MLOAD PUSH2 0xEC7 PUSH1 0x80 DUP7 ADD DUP3 PUSH2 0xE4C JUMP JUMPDEST POP PUSH1 0xA0 DUP4 ADD MLOAD PUSH2 0xEDA PUSH1 0xA0 DUP7 ADD DUP3 PUSH2 0xDF3 JUMP JUMPDEST POP PUSH1 0xC0 DUP4 ADD MLOAD DUP5 DUP3 SUB PUSH1 0xC0 DUP7 ADD MSTORE PUSH2 0xEF2 DUP3 DUP3 PUSH2 0xE13 JUMP JUMPDEST SWAP2 POP POP PUSH1 0xE0 DUP4 ADD MLOAD DUP5 DUP3 SUB PUSH1 0xE0 DUP7 ADD MSTORE PUSH2 0xF0C DUP3 DUP3 PUSH2 0xE13 JUMP JUMPDEST SWAP2 POP POP DUP1 SWAP2 POP POP SWAP3 SWAP2 POP POP JUMP JUMPDEST PUSH1 0x0 PUSH2 0xF25 DUP4 DUP4 PUSH2 0xE5B JUMP JUMPDEST SWAP1 POP SWAP3 SWAP2 POP POP JUMP JUMPDEST PUSH1 0x0 PUSH1 0x20 DUP3 ADD SWAP1 POP SWAP2 SWAP1 POP JUMP JUMPDEST PUSH1 0x0 PUSH2 0xF45 DUP3 PUSH2 0xDC7 JUMP JUMPDEST PUSH2 0xF4F DUP2 DUP6 PUSH2 0xDD2 JUMP JUMPDEST SWAP4 POP DUP4 PUSH1 0x20 DUP3 MUL DUP6 ADD PUSH2 0xF61 DUP6 PUSH2 0xDE3 JUMP JUMPDEST DUP1 PUSH1 0x0 JUMPDEST DUP6 DUP2 LT ISZERO PUSH2 0xF9D JUMPI DUP5 DUP5 SUB DUP10 MSTORE DUP2 MLOAD PUSH2 0xF7E DUP6 DUP3 PUSH2 0xF19 JUMP JUMPDEST SWAP5 POP PUSH2 0xF89 DUP4 PUSH2 0xF2D JUMP JUMPDEST SWAP3 POP PUSH1 0x20 DUP11 ADD SWAP10 POP POP PUSH1 0x1 DUP2 ADD SWAP1 POP PUSH2 0xF65 JUMP JUMPDEST POP DUP3 SWAP8 POP DUP8 SWAP6 POP POP POP POP POP POP SWAP3 SWAP2 POP POP JUMP JUMPDEST PUSH1 0x0 PUSH1 0x20 DUP3 ADD SWAP1 POP DUP2 DUP2 SUB PUSH1 0x0 DUP4 ADD MSTORE PUSH2 0xFC9 DUP2 DUP5 PUSH2 0xF3A JUMP JUMPDEST SWAP1 POP SWAP3 SWAP2 POP POP JUMP JUMPDEST PUSH1 0x0 DUP1 REVERT JUMPDEST PUSH1 0x0 DUP1 REVERT JUMPDEST PUSH32 0x4E487B7100000000000000000000000000000000000000000000000000000000 PUSH1 0x0 MSTORE PUSH1 0x41 PUSH1 0x4 MSTORE PUSH1 0x24 PUSH1 0x0 REVERT JUMPDEST PUSH2 0x1013 DUP3 PUSH2 0xCA9 JUMP JUMPDEST DUP2 ADD DUP2 DUP2 LT PUSH8 0xFFFFFFFFFFFFFFFF DUP3 GT OR ISZERO PUSH2 0x1032 JUMPI PUSH2 0x1031 PUSH2 0xFDB JUMP JUMPDEST JUMPDEST DUP1 PUSH1 0x40 MSTORE POP POP POP JUMP JUMPDEST PUSH1 0x0 PUSH2 0x1045 PUSH2 0xBD4 JUMP JUMPDEST SWAP1 POP PUSH2 0x1051 DUP3 DUP3 PUSH2 0x100A JUMP JUMPDEST SWAP2 SWAP1 POP JUMP JUMPDEST PUSH1 0x0 PUSH8 0xFFFFFFFFFFFFFFFF DUP3 GT ISZERO PUSH2 0x1071 JUMPI PUSH2 0x1070 PUSH2 0xFDB JUMP JUMPDEST JUMPDEST PUSH2 0x107A DUP3 PUSH2 0xCA9 JUMP JUMPDEST SWAP1 POP PUSH1 0x20 DUP2 ADD SWAP1 POP SWAP2 SWAP1 POP JUMP JUMPDEST DUP3 DUP2 DUP4 CALLDATACOPY PUSH1 0x0 DUP4 DUP4 ADD MSTORE POP POP POP JUMP JUMPDEST PUSH1 0x0 PUSH2 0x10A9 PUSH2 0x10A4 DUP5 PUSH2 0x1056 JUMP JUMPDEST PUSH2 0x103B JUMP JUMPDEST SWAP1 POP DUP3 DUP2 MSTORE PUSH1 0x20 DUP2 ADD DUP5 DUP5 DUP5 ADD GT ISZERO PUSH2 0x10C5 JUMPI PUSH2 0x10C4 PUSH2 0xFD6 JUMP JUMPDEST JUMPDEST PUSH2 0x10D0 DUP5 DUP3 DUP6 PUSH2 0x1087 JUMP JUMPDEST POP SWAP4 SWAP3 POP POP POP JUMP JUMPDEST PUSH1 0x0 DUP3 PUSH1 0x1F DUP4 ADD SLT PUSH2 0x10ED JUMPI PUSH2 0x10EC PUSH2 0xFD1 JUMP JUMPDEST JUMPDEST DUP2 CALLDATALOAD PUSH2 0x10FD DUP5 DUP3 PUSH1 0x20 DUP7 ADD PUSH2 0x1096 JUMP JUMPDEST SWAP2 POP POP SWAP3 SWAP2 POP POP JUMP JUMPDEST PUSH2 0x110F DUP2 PUSH2 0xD13 JUMP JUMPDEST DUP2 EQ PUSH2 0x111A JUMPI PUSH1 0x0 DUP1 REVERT JUMPDEST POP JUMP JUMPDEST PUSH1 0x0 DUP2 CALLDATALOAD SWAP1 POP PUSH2 0x112C DUP2 PUSH2 0x1106 JUMP JUMPDEST SWAP3 SWAP2 POP POP JUMP JUMPDEST PUSH1 0x0 DUP1 PUSH1 0x0 PUSH1 0x60 DUP5 DUP7 SUB SLT ISZERO PUSH2 0x114B JUMPI PUSH2 0x114A PUSH2 0xBDE JUMP JUMPDEST JUMPDEST PUSH1 0x0 DUP5 ADD CALLDATALOAD PUSH8 0xFFFFFFFFFFFFFFFF DUP2 GT ISZERO PUSH2 0x1169 JUMPI PUSH2 0x1168 PUSH2 0xBE3 JUMP JUMPDEST JUMPDEST PUSH2 0x1175 DUP7 DUP3 DUP8 ADD PUSH2 0x10D8 JUMP JUMPDEST SWAP4 POP POP PUSH1 0x20 PUSH2 0x1186 DUP7 DUP3 DUP8 ADD PUSH2 0x111D JUMP JUMPDEST SWAP3 POP POP PUSH1 0x40 DUP5 ADD CALLDATALOAD PUSH8 0xFFFFFFFFFFFFFFFF DUP2 GT ISZERO PUSH2 0x11A7 JUMPI PUSH2 0x11A6 PUSH2 0xBE3 JUMP JUMPDEST JUMPDEST PUSH2 0x11B3 DUP7 DUP3 DUP8 ADD PUSH2 0x10D8 JUMP JUMPDEST SWAP2 POP POP SWAP3 POP SWAP3 POP SWAP3 JUMP JUMPDEST PUSH32 0x4E487B7100000000000000000000000000000000000000000000000000000000 PUSH1 0x0 MSTORE PUSH1 0x22 PUSH1 0x4 MSTORE PUSH1 0x24 PUSH1 0x0 REVERT JUMPDEST PUSH1 0x0 PUSH1 0x2 DUP3 DIV SWAP1 POP PUSH1 0x1 DUP3 AND DUP1 PUSH2 0x1204 JUMPI PUSH1 0x7F DUP3 AND SWAP2 POP JUMPDEST PUSH1 0x20 DUP3 LT DUP2 SUB PUSH2 0x1217 JUMPI PUSH2 0x1216 PUSH2 0x11BD JUMP JUMPDEST JUMPDEST POP SWAP2 SWAP1 POP JUMP JUMPDEST PUSH32 0x4E487B7100000000000000000000000000000000000000000000000000000000 PUSH1 0x0 MSTORE PUSH1 0x32 PUSH1 0x4 MSTORE PUSH1 0x24 PUSH1 0x0 REVERT JUMPDEST PUSH32 0x4E487B7100000000000000000000000000000000000000000000000000000000 PUSH1 0x0 MSTORE PUSH1 0x11 PUSH1 0x4 MSTORE PUSH1 0x24 PUSH1 0x0 REVERT JUMPDEST PUSH1 0x0 PUSH2 0x1286 DUP3 PUSH2 0xBE8 JUMP JUMPDEST SWAP2 POP PUSH32 0xFFFFFFFFFFFFFFFFFFFFFFFFFFFFFFFFFFFFFFFFFFFFFFFFFFFFFFFFFFFFFFFF DUP3 SUB PUSH2 0x12B8 JUMPI PUSH2 0x12B7 PUSH2 0x124C JUMP JUMPDEST JUMPDEST PUSH1 0x1 DUP3 ADD SWAP1 POP SWAP2 SWAP1 POP JUMP JUMPDEST PUSH1 0x0 DUP2 SWAP1 POP DUP2 PUSH1 0x0 MSTORE PUSH1 0x20 PUSH1 0x0 KECCAK256 SWAP1 POP SWAP2 SWAP1 POP JUMP JUMPDEST PUSH1 0x0 PUSH1 0x20 PUSH1 0x1F DUP4 ADD DIV SWAP1 POP SWAP2 SWAP1 POP JUMP JUMPDEST PUSH1 0x0 DUP3 DUP3 SHL SWAP1 POP SWAP3 SWAP2 POP POP JUMP JUMPDEST PUSH1 0x0 PUSH1 0x8 DUP4 MUL PUSH2 0x1325 PUSH32 0xFFFFFFFFFFFFFFFFFFFFFFFFFFFFFFFFFFFFFFFFFFFFFFFFFFFFFFFFFFFFFFFF DUP3 PUSH2 0x12E8 JUMP JUMPDEST PUSH2 0x132F DUP7 DUP4 PUSH2 0x12E8 JUMP JUMPDEST SWAP6 POP DUP1 NOT DUP5 AND SWAP4 POP DUP1 DUP7 AND DUP5 OR SWAP3 POP POP POP SWAP4 SWAP3 POP POP POP JUMP JUMPDEST PUSH1 0x0 DUP2 SWAP1 POP SWAP2 SWAP1 POP JUMP JUMPDEST PUSH1 0x0 PUSH2 0x136C PUSH2 0x1367 PUSH2 0x1362 DUP5 PUSH2 0xBE8 JUMP JUMPDEST PUSH2 0x1347 JUMP JUMPDEST PUSH2 0xBE8 JUMP JUMPDEST SWAP1 POP SWAP2 SWAP1 POP JUMP JUMPDEST PUSH1 0x0 DUP2 SWAP1 POP SWAP2 SWAP1 POP JUMP JUMPDEST PUSH2 0x1386 DUP4 PUSH2 0x1351 JUMP JUMPDEST PUSH2 0x139A PUSH2 0x1392 DUP3 PUSH2 0x1373 JUMP JUMPDEST DUP5 DUP5 SLOAD PUSH2 0x12F5 JUMP JUMPDEST DUP3 SSTORE POP POP POP POP JUMP JUMPDEST PUSH1 0x0 SWAP1 JUMP JUMPDEST PUSH2 0x13AF PUSH2 0x13A2 JUMP JUMPDEST PUSH2 0x13BA DUP2 DUP5 DUP5 PUSH2 0x137D JUMP JUMPDEST POP POP POP JUMP JUMPDEST JUMPDEST DUP2 DUP2 LT ISZERO PUSH2 0x13DE JUMPI PUSH2 0x13D3 PUSH1 0x0 DUP3 PUSH2 0x13A7 JUMP JUMPDEST PUSH1 0x1 DUP2 ADD SWAP1 POP PUSH2 0x13C0 JUMP JUMPDEST POP POP JUMP JUMPDEST PUSH1 0x1F DUP3 GT ISZERO PUSH2 0x1423 JUMPI PUSH2 0x13F4 DUP2 PUSH2 0x12C3 JUMP JUMPDEST PUSH2 0x13FD DUP5 PUSH2 0x12D8 JUMP JUMPDEST DUP2 ADD PUSH1 0x20 DUP6 LT ISZERO PUSH2 0x140C JUMPI DUP2 SWAP1 POP JUMPDEST PUSH2 0x1420 PUSH2 0x1418 DUP6 PUSH2 0x12D8 JUMP JUMPDEST DUP4 ADD DUP3 PUSH2 0x13BF JUMP JUMPDEST POP POP JUMPDEST POP POP POP JUMP JUMPDEST PUSH1 0x0 DUP3 DUP3 SHR SWAP1 POP SWAP3 SWAP2 POP POP JUMP JUMPDEST PUSH1 0x0 PUSH2 0x1446 PUSH1 0x0 NOT DUP5 PUSH1 0x8 MUL PUSH2 0x1428 JUMP JUMPDEST NOT DUP1 DUP4 AND SWAP2 POP POP SWAP3 SWAP2 POP POP JUMP JUMPDEST PUSH1 0x0 PUSH2 0x145F DUP4 DUP4 PUSH2 0x1435 JUMP JUMPDEST SWAP2 POP DUP3 PUSH1 0x2 MUL DUP3 OR SWAP1 POP SWAP3 SWAP2 POP POP JUMP JUMPDEST PUSH2 0x1478 DUP3 PUSH2 0xC5A JUMP JUMPDEST PUSH8 0xFFFFFFFFFFFFFFFF DUP2 GT ISZERO PUSH2 0x1491 JUMPI PUSH2 0x1490 PUSH2 0xFDB JUMP JUMPDEST JUMPDEST PUSH2 0x149B DUP3 SLOAD PUSH2 0x11EC JUMP JUMPDEST PUSH2 0x14A6 DUP3 DUP3 DUP6 PUSH2 0x13E2 JUMP JUMPDEST PUSH1 0x0 PUSH1 0x20 SWAP1 POP PUSH1 0x1F DUP4 GT PUSH1 0x1 DUP2 EQ PUSH2 0x14D9 JUMPI PUSH1 0x0 DUP5 ISZERO PUSH2 0x14C7 JUMPI DUP3 DUP8 ADD MLOAD SWAP1 POP JUMPDEST PUSH2 0x14D1 DUP6 DUP3 PUSH2 0x1453 JUMP JUMPDEST DUP7 SSTORE POP PUSH2 0x1539 JUMP JUMPDEST PUSH1 0x1F NOT DUP5 AND PUSH2 0x14E7 DUP7 PUSH2 0x12C3 JUMP JUMPDEST PUSH1 0x0 JUMPDEST DUP3 DUP2 LT ISZERO PUSH2 0x150F JUMPI DUP5 DUP10 ADD MLOAD DUP3 SSTORE PUSH1 0x1 DUP3 ADD SWAP2 POP PUSH1 0x20 DUP6 ADD SWAP5 POP PUSH1 0x20 DUP2 ADD SWAP1 POP PUSH2 0x14EA JUMP JUMPDEST DUP7 DUP4 LT ISZERO PUSH2 0x152C JUMPI DUP5 DUP10 ADD MLOAD PUSH2 0x1528 PUSH1 0x1F DUP10 AND DUP3 PUSH2 0x1435 JUMP JUMPDEST DUP4 SSTORE POP JUMPDEST PUSH1 0x1 PUSH1 0x2 DUP9 MUL ADD DUP9 SSTORE POP POP POP JUMPDEST POP POP POP POP POP POP JUMP INVALID LOG2 PUSH5 0x6970667358 0x22 SLT KECCAK256 GASLIMIT CALLDATACOPY PUSH31 0xA40B0E8DDE9F5C53063AC0C1D69F18A656419C4A7D95108EB6284198B76473 PUSH16 0x6C634300080F00330000000000000000 "
				},
				"gasEstimates": {
					"creation": {
						"codeDepositCost": "1099000",
						"executionCost": "1140",
						"totalCost": "1100140"
					},
					"external": {
						"createCrowdfunding(string,address,string)": "infinite",
						"getCrowdfundingByStatus(uint256)": "infinite",
						"getList()": "infinite",
						"list(uint256)": "infinite"
					}
				},
				"methodIdentifiers": {
					"createCrowdfunding(string,address,string)": "a97af4d5",
					"getCrowdfundingByStatus(uint256)": "904cc175",
					"getList()": "942b765a",
					"list(uint256)": "80c9419e"
				}
			},
			"storageLayout": {
				"storage": [
					{
						"astId": 3,
						"contract": "crowdfunding.sol:CrowdfundingContract",
						"label": "No",
						"offset": 0,
						"slot": "0",
						"type": "t_uint256"
					},
					{
						"astId": 24,
						"contract": "crowdfunding.sol:CrowdfundingContract",
						"label": "list",
						"offset": 0,
						"slot": "1",
						"type": "t_array(t_struct(Crowdfunding)20_storage)dyn_storage"
					},
					{
						"astId": 30,
						"contract": "crowdfunding.sol:CrowdfundingContract",
						"label": "filterData",
						"offset": 0,
						"slot": "2",
						"type": "t_mapping(t_uint256,t_array(t_struct(Crowdfunding)20_storage)dyn_storage)"
					}
				],
				"types": {
					"t_address": {
						"encoding": "inplace",
						"label": "address",
						"numberOfBytes": "20"
					},
					"t_array(t_struct(Crowdfunding)20_storage)dyn_storage": {
						"base": "t_struct(Crowdfunding)20_storage",
						"encoding": "dynamic_array",
						"label": "struct CrowdfundingContract.Crowdfunding[]",
						"numberOfBytes": "32"
					},
					"t_mapping(t_uint256,t_array(t_struct(Crowdfunding)20_storage)dyn_storage)": {
						"encoding": "mapping",
						"key": "t_uint256",
						"label": "mapping(uint256 => struct CrowdfundingContract.Crowdfunding[])",
						"numberOfBytes": "32",
						"value": "t_array(t_struct(Crowdfunding)20_storage)dyn_storage"
					},
					"t_string_storage": {
						"encoding": "bytes",
						"label": "string",
						"numberOfBytes": "32"
					},
					"t_struct(Crowdfunding)20_storage": {
						"encoding": "inplace",
						"label": "struct CrowdfundingContract.Crowdfunding",
						"members": [
							{
								"astId": 5,
								"contract": "crowdfunding.sol:CrowdfundingContract",
								"label": "num",
								"offset": 0,
								"slot": "0",
								"type": "t_uint256"
							},
							{
								"astId": 7,
								"contract": "crowdfunding.sol:CrowdfundingContract",
								"label": "title",
								"offset": 0,
								"slot": "1",
								"type": "t_string_storage"
							},
							{
								"astId": 9,
								"contract": "crowdfunding.sol:CrowdfundingContract",
								"label": "status",
								"offset": 0,
								"slot": "2",
								"type": "t_uint256"
							},
							{
								"astId": 11,
								"contract": "crowdfunding.sol:CrowdfundingContract",
								"label": "creator",
								"offset": 0,
								"slot": "3",
								"type": "t_address"
							},
							{
								"astId": 13,
								"contract": "crowdfunding.sol:CrowdfundingContract",
								"label": "recipient",
								"offset": 0,
								"slot": "4",
								"type": "t_address"
							},
							{
								"astId": 15,
								"contract": "crowdfunding.sol:CrowdfundingContract",
								"label": "joinNum",
								"offset": 0,
								"slot": "5",
								"type": "t_uint256"
							},
							{
								"astId": 17,
								"contract": "crowdfunding.sol:CrowdfundingContract",
								"label": "expectAmout",
								"offset": 0,
								"slot": "6",
								"type": "t_string_storage"
							},
							{
								"astId": 19,
								"contract": "crowdfunding.sol:CrowdfundingContract",
								"label": "actualAmount",
								"offset": 0,
								"slot": "7",
								"type": "t_string_storage"
							}
						],
						"numberOfBytes": "256"
					},
					"t_uint256": {
						"encoding": "inplace",
						"label": "uint256",
						"numberOfBytes": "32"
					}
				}
			},
			"userdoc": {
				"kind": "user",
				"methods": {},
				"version": 1
			}
		}
	}
}