{
	"delegatecall.sol": {
		"Upgrade": {
			"abi": [
				{
					"inputs": [],
					"name": "powSupply",
					"outputs": [],
					"stateMutability": "nonpayable",
					"type": "function"
				}
			],
			"devdoc": {
				"kind": "dev",
				"methods": {},
				"version": 1
			},
			"evm": {
				"assembly": "    /* \"delegatecall.sol\":457:577  contract Upgrade {... */\n  mstore(0x40, 0x80)\n  callvalue\n  dup1\n  iszero\n  tag_1\n  jumpi\n  0x00\n  dup1\n  revert\ntag_1:\n  pop\n  dataSize(sub_0)\n  dup1\n  dataOffset(sub_0)\n  0x00\n  codecopy\n  0x00\n  return\nstop\n\nsub_0: assembly {\n        /* \"delegatecall.sol\":457:577  contract Upgrade {... */\n      mstore(0x40, 0x80)\n      callvalue\n      dup1\n      iszero\n      tag_1\n      jumpi\n      0x00\n      dup1\n      revert\n    tag_1:\n      pop\n      jumpi(tag_2, lt(calldatasize, 0x04))\n      shr(0xe0, calldataload(0x00))\n      dup1\n      0xd8e6a64c\n      eq\n      tag_3\n      jumpi\n    tag_2:\n      0x00\n      dup1\n      revert\n        /* \"delegatecall.sol\":501:572  function powSupply() public {... */\n    tag_3:\n      tag_4\n      tag_5\n      jump\t// in\n    tag_4:\n      stop\n    tag_5:\n        /* \"delegatecall.sol\":558:564  supply */\n      sload(0x00)\n        /* \"delegatecall.sol\":549:555  supply */\n      sload(0x00)\n        /* \"delegatecall.sol\":549:564  supply * supply */\n      tag_7\n      swap2\n      swap1\n      tag_8\n      jump\t// in\n    tag_7:\n        /* \"delegatecall.sol\":540:546  supply */\n      0x00\n        /* \"delegatecall.sol\":540:564  supply = supply * supply */\n      dup2\n      swap1\n      sstore\n      pop\n        /* \"delegatecall.sol\":501:572  function powSupply() public {... */\n      jump\t// out\n        /* \"#utility.yul\":7:84   */\n    tag_9:\n        /* \"#utility.yul\":44:51   */\n      0x00\n        /* \"#utility.yul\":73:78   */\n      dup2\n        /* \"#utility.yul\":62:78   */\n      swap1\n      pop\n        /* \"#utility.yul\":7:84   */\n      swap2\n      swap1\n      pop\n      jump\t// out\n        /* \"#utility.yul\":90:270   */\n    tag_10:\n        /* \"#utility.yul\":138:215   */\n      0x4e487b7100000000000000000000000000000000000000000000000000000000\n        /* \"#utility.yul\":135:136   */\n      0x00\n        /* \"#utility.yul\":128:216   */\n      mstore\n        /* \"#utility.yul\":235:239   */\n      0x11\n        /* \"#utility.yul\":232:233   */\n      0x04\n        /* \"#utility.yul\":225:240   */\n      mstore\n        /* \"#utility.yul\":259:263   */\n      0x24\n        /* \"#utility.yul\":256:257   */\n      0x00\n        /* \"#utility.yul\":249:264   */\n      revert\n        /* \"#utility.yul\":276:624   */\n    tag_8:\n        /* \"#utility.yul\":316:323   */\n      0x00\n        /* \"#utility.yul\":339:359   */\n      tag_15\n        /* \"#utility.yul\":357:358   */\n      dup3\n        /* \"#utility.yul\":339:359   */\n      tag_9\n      jump\t// in\n    tag_15:\n        /* \"#utility.yul\":334:359   */\n      swap2\n      pop\n        /* \"#utility.yul\":373:393   */\n      tag_16\n        /* \"#utility.yul\":391:392   */\n      dup4\n        /* \"#utility.yul\":373:393   */\n      tag_9\n      jump\t// in\n    tag_16:\n        /* \"#utility.yul\":368:393   */\n      swap3\n      pop\n        /* \"#utility.yul\":561:562   */\n      dup2\n        /* \"#utility.yul\":493:559   */\n      0xffffffffffffffffffffffffffffffffffffffffffffffffffffffffffffffff\n        /* \"#utility.yul\":489:563   */\n      div\n        /* \"#utility.yul\":486:487   */\n      dup4\n        /* \"#utility.yul\":483:564   */\n      gt\n        /* \"#utility.yul\":478:479   */\n      dup3\n        /* \"#utility.yul\":471:480   */\n      iszero\n        /* \"#utility.yul\":464:481   */\n      iszero\n        /* \"#utility.yul\":460:565   */\n      and\n        /* \"#utility.yul\":457:588   */\n      iszero\n      tag_17\n      jumpi\n        /* \"#utility.yul\":568:586   */\n      tag_18\n      tag_10\n      jump\t// in\n    tag_18:\n        /* \"#utility.yul\":457:588   */\n    tag_17:\n        /* \"#utility.yul\":616:617   */\n      dup3\n        /* \"#utility.yul\":613:614   */\n      dup3\n        /* \"#utility.yul\":609:618   */\n      mul\n        /* \"#utility.yul\":598:618   */\n      swap1\n      pop\n        /* \"#utility.yul\":276:624   */\n      swap3\n      swap2\n      pop\n      pop\n      jump\t// out\n\n    auxdata: 0xa264697066735822122090c72177de1fd54113cd570f42bbefad33555eed292717c7950a53f87763312464736f6c63430008100033\n}\n",
				"bytecode": {
					"linkReferences": {},
					"object": "608060405234801561001057600080fd5b5061010d806100206000396000f3fe6080604052348015600f57600080fd5b506004361060285760003560e01c8063d8e6a64c14602d575b600080fd5b60336035565b005b600054600054604391906084565b600081905550565b6000819050919050565b7f4e487b7100000000000000000000000000000000000000000000000000000000600052601160045260246000fd5b6000608d82604b565b9150609683604b565b9250817fffffffffffffffffffffffffffffffffffffffffffffffffffffffffffffffff048311821515161560cc5760cb6055565b5b82820290509291505056fea264697066735822122090c72177de1fd54113cd570f42bbefad33555eed292717c7950a53f87763312464736f6c63430008100033",
					"opcodes": "PUSH1 0x80 PUSH1 0x40 MSTORE CALLVALUE DUP1 ISZERO PUSH2 0x10 JUMPI PUSH1 0x0 DUP1 REVERT JUMPDEST POP PUSH2 0x10D DUP1 PUSH2 0x20 PUSH1 0x0 CODECOPY PUSH1 0x0 RETURN INVALID PUSH1 0x80 PUSH1 0x40 MSTORE CALLVALUE DUP1 ISZERO PUSH1 0xF JUMPI PUSH1 0x0 DUP1 REVERT JUMPDEST POP PUSH1 0x4 CALLDATASIZE LT PUSH1 0x28 JUMPI PUSH1 0x0 CALLDATALOAD PUSH1 0xE0 SHR DUP1 PUSH4 0xD8E6A64C EQ PUSH1 0x2D JUMPI JUMPDEST PUSH1 0x0 DUP1 REVERT JUMPDEST PUSH1 0x33 PUSH1 0x35 JUMP JUMPDEST STOP JUMPDEST PUSH1 0x0 SLOAD PUSH1 0x0 SLOAD PUSH1 0x43 SWAP2 SWAP1 PUSH1 0x84 JUMP JUMPDEST PUSH1 0x0 DUP2 SWAP1 SSTORE POP JUMP JUMPDEST PUSH1 0x0 DUP2 SWAP1 POP SWAP2 SWAP1 POP JUMP JUMPDEST PUSH32 0x4E487B7100000000000000000000000000000000000000000000000000000000 PUSH1 0x0 MSTORE PUSH1 0x11 PUSH1 0x4 MSTORE PUSH1 0x24 PUSH1 0x0 REVERT JUMPDEST PUSH1 0x0 PUSH1 0x8D DUP3 PUSH1 0x4B JUMP JUMPDEST SWAP2 POP PUSH1 0x96 DUP4 PUSH1 0x4B JUMP JUMPDEST SWAP3 POP DUP2 PUSH32 0xFFFFFFFFFFFFFFFFFFFFFFFFFFFFFFFFFFFFFFFFFFFFFFFFFFFFFFFFFFFFFFFF DIV DUP4 GT DUP3 ISZERO ISZERO AND ISZERO PUSH1 0xCC JUMPI PUSH1 0xCB PUSH1 0x55 JUMP JUMPDEST JUMPDEST DUP3 DUP3 MUL SWAP1 POP SWAP3 SWAP2 POP POP JUMP INVALID LOG2 PUSH5 0x6970667358 0x22 SLT KECCAK256 SWAP1 0xC7 0x21 PUSH24 0xDE1FD54113CD570F42BBEFAD33555EED292717C7950A53F8 PUSH24 0x63312464736F6C6343000810003300000000000000000000 "
				},
				"gasEstimates": {
					"creation": {
						"codeDepositCost": "53800",
						"executionCost": "105",
						"totalCost": "53905"
					},
					"external": {
						"powSupply()": "infinite"
					}
				},
				"methodIdentifiers": {
					"powSupply()": "d8e6a64c"
				}
			},
			"storageLayout": {
				"storage": [
					{
						"astId": 44,
						"contract": "delegatecall.sol:Upgrade",
						"label": "supply",
						"offset": 0,
						"slot": "0",
						"type": "t_uint256"
					}
				],
				"types": {
					"t_uint256": {
						"encoding": "inplace",
						"label": "uint256",
						"numberOfBytes": "32"
					}
				}
			},
			"userdoc": {
				"kind": "user",
				"methods": {},
				"version": 1
			}
		}
	}
}