{
	"error.sol": {
		"ErrorTest": {
			"abi": [
				{
					"inputs": [],
					"name": "testAssert",
					"outputs": [],
					"stateMutability": "view",
					"type": "function"
				}
			],
			"devdoc": {
				"kind": "dev",
				"methods": {},
				"version": 1
			},
			"evm": {
				"assembly": "    /* \"error.sol\":132:473  contract ErrorTest {\r... */\n  mstore(0x40, 0x80)\n    /* \"error.sol\":389:392  123 */\n  0x7b\n    /* \"error.sol\":378:392  uint num = 123 */\n  0x00\n  sstore\n    /* \"error.sol\":132:473  contract ErrorTest {\r... */\n  callvalue\n  dup1\n  iszero\n  tag_1\n  jumpi\n  0x00\n  dup1\n  revert\ntag_1:\n  pop\n  dataSize(sub_0)\n  dup1\n  dataOffset(sub_0)\n  0x00\n  codecopy\n  0x00\n  return\nstop\n\nsub_0: assembly {\n        /* \"error.sol\":132:473  contract ErrorTest {\r... */\n      mstore(0x40, 0x80)\n      callvalue\n      dup1\n      iszero\n      tag_1\n      jumpi\n      0x00\n      dup1\n      revert\n    tag_1:\n      pop\n      jumpi(tag_2, lt(calldatasize, 0x04))\n      shr(0xe0, calldataload(0x00))\n      dup1\n      0x2b813bc0\n      eq\n      tag_3\n      jumpi\n    tag_2:\n      0x00\n      dup1\n      revert\n        /* \"error.sol\":399:470  function testAssert() public view {\r... */\n    tag_3:\n      tag_4\n      tag_5\n      jump\t// in\n    tag_4:\n      stop\n    tag_5:\n        /* \"error.sol\":458:461  123 */\n      0x7b\n        /* \"error.sol\":451:454  num */\n      sload(0x00)\n        /* \"error.sol\":451:461  num == 123 */\n      eq\n        /* \"error.sol\":444:462  assert(num == 123) */\n      tag_7\n      jumpi\n      tag_8\n      tag_9\n      jump\t// in\n    tag_8:\n    tag_7:\n        /* \"error.sol\":399:470  function testAssert() public view {\r... */\n      jump\t// out\n        /* \"#utility.yul\":7:187   */\n    tag_9:\n        /* \"#utility.yul\":55:132   */\n      0x4e487b7100000000000000000000000000000000000000000000000000000000\n        /* \"#utility.yul\":52:53   */\n      0x00\n        /* \"#utility.yul\":45:133   */\n      mstore\n        /* \"#utility.yul\":152:156   */\n      0x01\n        /* \"#utility.yul\":149:150   */\n      0x04\n        /* \"#utility.yul\":142:157   */\n      mstore\n        /* \"#utility.yul\":176:180   */\n      0x24\n        /* \"#utility.yul\":173:174   */\n      0x00\n        /* \"#utility.yul\":166:181   */\n      revert\n\n    auxdata: 0xa2646970667358221220f6e7e9ce405b1d4730db92bbd2e8c1978bf8c88104b9aa8d6310f74216a44d5664736f6c63430008070033\n}\n",
				"bytecode": {
					"linkReferences": {},
					"object": "6080604052607b600055348015601457600080fd5b5060ac806100236000396000f3fe6080604052348015600f57600080fd5b506004361060285760003560e01c80632b813bc014602d575b600080fd5b60336035565b005b607b6000541460455760446047565b5b565b7f4e487b7100000000000000000000000000000000000000000000000000000000600052600160045260246000fdfea2646970667358221220f6e7e9ce405b1d4730db92bbd2e8c1978bf8c88104b9aa8d6310f74216a44d5664736f6c63430008070033",
					"opcodes": "PUSH1 0x80 PUSH1 0x40 MSTORE PUSH1 0x7B PUSH1 0x0 SSTORE CALLVALUE DUP1 ISZERO PUSH1 0x14 JUMPI PUSH1 0x0 DUP1 REVERT JUMPDEST POP PUSH1 0xAC DUP1 PUSH2 0x23 PUSH1 0x0 CODECOPY PUSH1 0x0 RETURN INVALID PUSH1 0x80 PUSH1 0x40 MSTORE CALLVALUE DUP1 ISZERO PUSH1 0xF JUMPI PUSH1 0x0 DUP1 REVERT JUMPDEST POP PUSH1 0x4 CALLDATASIZE LT PUSH1 0x28 JUMPI PUSH1 0x0 CALLDATALOAD PUSH1 0xE0 SHR DUP1 PUSH4 0x2B813BC0 EQ PUSH1 0x2D JUMPI JUMPDEST PUSH1 0x0 DUP1 REVERT JUMPDEST PUSH1 0x33 PUSH1 0x35 JUMP JUMPDEST STOP JUMPDEST PUSH1 0x7B PUSH1 0x0 SLOAD EQ PUSH1 0x45 JUMPI PUSH1 0x44 PUSH1 0x47 JUMP JUMPDEST JUMPDEST JUMP JUMPDEST PUSH32 0x4E487B7100000000000000000000000000000000000000000000000000000000 PUSH1 0x0 MSTORE PUSH1 0x1 PUSH1 0x4 MSTORE PUSH1 0x24 PUSH1 0x0 REVERT INVALID LOG2 PUSH5 0x6970667358 0x22 SLT KECCAK256 0xF6 0xE7 0xE9 0xCE BLOCKHASH JUMPDEST SAR SELFBALANCE ADDRESS 0xDB SWAP3 0xBB 0xD2 0xE8 0xC1 SWAP8 DUP12 0xF8 0xC8 DUP2 DIV 0xB9 0xAA DUP14 PUSH4 0x10F74216 LOG4 0x4D JUMP PUSH5 0x736F6C6343 STOP ADDMOD SMOD STOP CALLER "
				},
				"gasEstimates": {
					"creation": {
						"codeDepositCost": "34400",
						"executionCost": "22193",
						"totalCost": "56593"
					},
					"external": {
						"testAssert()": "2274"
					}
				},
				"methodIdentifiers": {
					"testAssert()": "2b813bc0"
				}
			},
			"storageLayout": {
				"storage": [
					{
						"astId": 4,
						"contract": "error.sol:ErrorTest",
						"label": "num",
						"offset": 0,
						"slot": "0",
						"type": "t_uint256"
					}
				],
				"types": {
					"t_uint256": {
						"encoding": "inplace",
						"label": "uint256",
						"numberOfBytes": "32"
					}
				}
			},
			"userdoc": {
				"kind": "user",
				"methods": {},
				"version": 1
			}
		}
	}
}