{
	"todoList.sol": {
		"TodoList": {
			"abi": [
				{
					"inputs": [
						{
							"internalType": "address",
							"name": "adr",
							"type": "address"
						},
						{
							"internalType": "string",
							"name": "_val",
							"type": "string"
						}
					],
					"name": "addTask2",
					"outputs": [],
					"stateMutability": "nonpayable",
					"type": "function"
				},
				{
					"inputs": [],
					"name": "getList2",
					"outputs": [],
					"stateMutability": "view",
					"type": "function"
				},
				{
					"inputs": [
						{
							"internalType": "uint256",
							"name": "",
							"type": "uint256"
						}
					],
					"name": "list",
					"outputs": [
						{
							"internalType": "address",
							"name": "adr",
							"type": "address"
						},
						{
							"internalType": "string",
							"name": "value",
							"type": "string"
						}
					],
					"stateMutability": "view",
					"type": "function"
				}
			],
			"devdoc": {
				"kind": "dev",
				"methods": {},
				"version": 1
			},
			"evm": {
				"assembly": "    /* \"todoList.sol\":394:733  contract TodoList {\r... */\n  mstore(0x40, 0x80)\n  callvalue\n  dup1\n  iszero\n  tag_1\n  jumpi\n  0x00\n  dup1\n  revert\ntag_1:\n  pop\n  dataSize(sub_0)\n  dup1\n  dataOffset(sub_0)\n  0x00\n  codecopy\n  0x00\n  return\nstop\n\nsub_0: assembly {\n        /* \"todoList.sol\":394:733  contract TodoList {\r... */\n      mstore(0x40, 0x80)\n      callvalue\n      dup1\n      iszero\n      tag_1\n      jumpi\n      0x00\n      dup1\n      revert\n    tag_1:\n      pop\n      jumpi(tag_2, lt(calldatasize, 0x04))\n      shr(0xe0, calldataload(0x00))\n      dup1\n      0x6f1c2f26\n      eq\n      tag_3\n      jumpi\n      dup1\n      0x80c9419e\n      eq\n      tag_4\n      jumpi\n      dup1\n      0x84b0befc\n      eq\n      tag_5\n      jumpi\n    tag_2:\n      0x00\n      dup1\n      revert\n        /* \"todoList.sol\":549:652  function addTask2(address adr, string memory _val) public {\r... */\n    tag_3:\n      tag_6\n      0x04\n      dup1\n      calldatasize\n      sub\n      dup2\n      add\n      swap1\n      tag_7\n      swap2\n      swap1\n      tag_8\n      jump\t// in\n    tag_7:\n      tag_9\n      jump\t// in\n    tag_6:\n      stop\n        /* \"todoList.sol\":522:540  Task[] public list */\n    tag_4:\n      tag_10\n      0x04\n      dup1\n      calldatasize\n      sub\n      dup2\n      add\n      swap1\n      tag_11\n      swap2\n      swap1\n      tag_12\n      jump\t// in\n    tag_11:\n      tag_13\n      jump\t// in\n    tag_10:\n      mload(0x40)\n      tag_14\n      swap3\n      swap2\n      swap1\n      tag_15\n      jump\t// in\n    tag_14:\n      mload(0x40)\n      dup1\n      swap2\n      sub\n      swap1\n      return\n        /* \"todoList.sol\":660:730  function getList2 () public view {\r... */\n    tag_5:\n      tag_16\n      tag_17\n      jump\t// in\n    tag_16:\n      stop\n        /* \"todoList.sol\":549:652  function addTask2(address adr, string memory _val) public {\r... */\n    tag_9:\n        /* \"todoList.sol\":618:626  todoList */\n      0x00\n      dup1\n      sload\n      swap1\n      0x0100\n      exp\n      swap1\n      div\n      0xffffffffffffffffffffffffffffffffffffffff\n      and\n        /* \"todoList.sol\":618:634  todoList.addTask */\n      0xffffffffffffffffffffffffffffffffffffffff\n      and\n      0xbc6d30ee\n        /* \"todoList.sol\":635:638  adr */\n      dup4\n        /* \"todoList.sol\":639:643  _val */\n      dup4\n        /* \"todoList.sol\":618:644  todoList.addTask(adr,_val) */\n      mload(0x40)\n      dup4\n      0xffffffff\n      and\n      0xe0\n      shl\n      dup2\n      mstore\n      0x04\n      add\n      tag_19\n      swap3\n      swap2\n      swap1\n      tag_15\n      jump\t// in\n    tag_19:\n      0x00\n      mload(0x40)\n      dup1\n      dup4\n      sub\n      dup2\n      0x00\n      dup8\n      dup1\n      extcodesize\n      iszero\n      dup1\n      iszero\n      tag_20\n      jumpi\n      0x00\n      dup1\n      revert\n    tag_20:\n      pop\n      gas\n      call\n      iszero\n      dup1\n      iszero\n      tag_22\n      jumpi\n      returndatasize\n      0x00\n      dup1\n      returndatacopy\n      revert(0x00, returndatasize)\n    tag_22:\n      pop\n      pop\n      pop\n      pop\n        /* \"todoList.sol\":549:652  function addTask2(address adr, string memory _val) public {\r... */\n      pop\n      pop\n      jump\t// out\n        /* \"todoList.sol\":522:540  Task[] public list */\n    tag_13:\n      0x01\n      dup2\n      dup2\n      sload\n      dup2\n      lt\n      tag_23\n      jumpi\n      0x00\n      dup1\n      revert\n    tag_23:\n      swap1\n      0x00\n      mstore\n      keccak256(0x00, 0x20)\n      swap1\n      0x02\n      mul\n      add\n      0x00\n      swap2\n      pop\n      swap1\n      pop\n      dup1\n      0x00\n      add\n      0x00\n      swap1\n      sload\n      swap1\n      0x0100\n      exp\n      swap1\n      div\n      0xffffffffffffffffffffffffffffffffffffffff\n      and\n      swap1\n      dup1\n      0x01\n      add\n      dup1\n      sload\n      tag_25\n      swap1\n      tag_26\n      jump\t// in\n    tag_25:\n      dup1\n      0x1f\n      add\n      0x20\n      dup1\n      swap2\n      div\n      mul\n      0x20\n      add\n      mload(0x40)\n      swap1\n      dup2\n      add\n      0x40\n      mstore\n      dup1\n      swap3\n      swap2\n      swap1\n      dup2\n      dup2\n      mstore\n      0x20\n      add\n      dup3\n      dup1\n      sload\n      tag_27\n      swap1\n      tag_26\n      jump\t// in\n    tag_27:\n      dup1\n      iszero\n      tag_28\n      jumpi\n      dup1\n      0x1f\n      lt\n      tag_29\n      jumpi\n      0x0100\n      dup1\n      dup4\n      sload\n      div\n      mul\n      dup4\n      mstore\n      swap2\n      0x20\n      add\n      swap2\n      jump(tag_28)\n    tag_29:\n      dup3\n      add\n      swap2\n      swap1\n      0x00\n      mstore\n      keccak256(0x00, 0x20)\n      swap1\n    tag_30:\n      dup2\n      sload\n      dup2\n      mstore\n      swap1\n      0x01\n      add\n      swap1\n      0x20\n      add\n      dup1\n      dup4\n      gt\n      tag_30\n      jumpi\n      dup3\n      swap1\n      sub\n      0x1f\n      and\n      dup3\n      add\n      swap2\n    tag_28:\n      pop\n      pop\n      pop\n      pop\n      pop\n      swap1\n      pop\n      dup3\n      jump\t// out\n        /* \"todoList.sol\":660:730  function getList2 () public view {\r... */\n    tag_17:\n        /* \"todoList.sol\":704:712  todoList */\n      0x00\n      dup1\n      sload\n      swap1\n      0x0100\n      exp\n      swap1\n      div\n      0xffffffffffffffffffffffffffffffffffffffff\n      and\n        /* \"todoList.sol\":704:720  todoList.getList */\n      0xffffffffffffffffffffffffffffffffffffffff\n      and\n      0x942b765a\n        /* \"todoList.sol\":704:722  todoList.getList() */\n      mload(0x40)\n      dup2\n      0xffffffff\n      and\n      0xe0\n      shl\n      dup2\n      mstore\n      0x04\n      add\n      0x00\n      mload(0x40)\n      dup1\n      dup4\n      sub\n      dup2\n      dup7\n      dup1\n      extcodesize\n      iszero\n      dup1\n      iszero\n      tag_32\n      jumpi\n      0x00\n      dup1\n      revert\n    tag_32:\n      pop\n      gas\n      staticcall\n      iszero\n      dup1\n      iszero\n      tag_34\n      jumpi\n      returndatasize\n      0x00\n      dup1\n      returndatacopy\n      revert(0x00, returndatasize)\n    tag_34:\n      pop\n      pop\n      pop\n      pop\n      mload(0x40)\n      returndatasize\n      0x00\n      dup3\n      returndatacopy\n      returndatasize\n      not(0x1f)\n      0x1f\n      dup3\n      add\n      and\n      dup3\n      add\n      dup1\n      0x40\n      mstore\n      pop\n      dup2\n      add\n      swap1\n      tag_35\n      swap2\n      swap1\n      tag_36\n      jump\t// in\n    tag_35:\n      pop\n        /* \"todoList.sol\":660:730  function getList2 () public view {\r... */\n      jump\t// out\n        /* \"#utility.yul\":41:1040   */\n    tag_38:\n        /* \"#utility.yul\":167:172   */\n      0x00\n        /* \"#utility.yul\":192:292   */\n      tag_40\n        /* \"#utility.yul\":208:291   */\n      tag_41\n        /* \"#utility.yul\":284:290   */\n      dup5\n        /* \"#utility.yul\":208:291   */\n      tag_42\n      jump\t// in\n    tag_41:\n        /* \"#utility.yul\":192:292   */\n      tag_43\n      jump\t// in\n    tag_40:\n        /* \"#utility.yul\":183:292   */\n      swap1\n      pop\n        /* \"#utility.yul\":312:317   */\n      dup1\n        /* \"#utility.yul\":341:347   */\n      dup4\n        /* \"#utility.yul\":334:339   */\n      dup3\n        /* \"#utility.yul\":327:348   */\n      mstore\n        /* \"#utility.yul\":375:379   */\n      0x20\n        /* \"#utility.yul\":368:373   */\n      dup3\n        /* \"#utility.yul\":364:380   */\n      add\n        /* \"#utility.yul\":357:380   */\n      swap1\n      pop\n        /* \"#utility.yul\":401:407   */\n      dup3\n        /* \"#utility.yul\":451:454   */\n      dup6\n        /* \"#utility.yul\":443:447   */\n      0x20\n        /* \"#utility.yul\":435:441   */\n      dup7\n        /* \"#utility.yul\":431:448   */\n      mul\n        /* \"#utility.yul\":426:429   */\n      dup3\n        /* \"#utility.yul\":422:449   */\n      add\n        /* \"#utility.yul\":419:455   */\n      gt\n        /* \"#utility.yul\":416:559   */\n      iszero\n      tag_44\n      jumpi\n        /* \"#utility.yul\":470:549   */\n      tag_45\n      tag_46\n      jump\t// in\n    tag_45:\n        /* \"#utility.yul\":416:559   */\n    tag_44:\n        /* \"#utility.yul\":583:584   */\n      0x00\n        /* \"#utility.yul\":568:1034   */\n    tag_47:\n        /* \"#utility.yul\":593:599   */\n      dup6\n        /* \"#utility.yul\":590:591   */\n      dup2\n        /* \"#utility.yul\":587:600   */\n      lt\n        /* \"#utility.yul\":568:1034   */\n      iszero\n      tag_49\n      jumpi\n        /* \"#utility.yul\":668:671   */\n      dup2\n        /* \"#utility.yul\":662:672   */\n      mload\n        /* \"#utility.yul\":704:722   */\n      0xffffffffffffffff\n        /* \"#utility.yul\":691:702   */\n      dup2\n        /* \"#utility.yul\":688:723   */\n      gt\n        /* \"#utility.yul\":685:807   */\n      iszero\n      tag_50\n      jumpi\n        /* \"#utility.yul\":726:805   */\n      tag_51\n      tag_52\n      jump\t// in\n    tag_51:\n        /* \"#utility.yul\":685:807   */\n    tag_50:\n        /* \"#utility.yul\":850:861   */\n      dup1\n        /* \"#utility.yul\":842:848   */\n      dup7\n        /* \"#utility.yul\":838:862   */\n      add\n        /* \"#utility.yul\":888:955   */\n      tag_53\n        /* \"#utility.yul\":951:954   */\n      dup10\n        /* \"#utility.yul\":939:949   */\n      dup3\n        /* \"#utility.yul\":888:955   */\n      tag_54\n      jump\t// in\n    tag_53:\n        /* \"#utility.yul\":883:886   */\n      dup6\n        /* \"#utility.yul\":876:956   */\n      mstore\n        /* \"#utility.yul\":985:989   */\n      0x20\n        /* \"#utility.yul\":980:983   */\n      dup6\n        /* \"#utility.yul\":976:990   */\n      add\n        /* \"#utility.yul\":969:990   */\n      swap5\n      pop\n        /* \"#utility.yul\":1019:1023   */\n      0x20\n        /* \"#utility.yul\":1014:1017   */\n      dup5\n        /* \"#utility.yul\":1010:1024   */\n      add\n        /* \"#utility.yul\":1003:1024   */\n      swap4\n      pop\n        /* \"#utility.yul\":628:1034   */\n      pop\n      pop\n        /* \"#utility.yul\":615:616   */\n      0x01\n        /* \"#utility.yul\":612:613   */\n      dup2\n        /* \"#utility.yul\":608:617   */\n      add\n        /* \"#utility.yul\":603:617   */\n      swap1\n      pop\n        /* \"#utility.yul\":568:1034   */\n      jump(tag_47)\n    tag_49:\n        /* \"#utility.yul\":572:586   */\n      pop\n        /* \"#utility.yul\":173:1040   */\n      pop\n      pop\n        /* \"#utility.yul\":41:1040   */\n      swap4\n      swap3\n      pop\n      pop\n      pop\n      jump\t// out\n        /* \"#utility.yul\":1046:1458   */\n    tag_55:\n        /* \"#utility.yul\":1124:1129   */\n      0x00\n        /* \"#utility.yul\":1149:1215   */\n      tag_57\n        /* \"#utility.yul\":1165:1214   */\n      tag_58\n        /* \"#utility.yul\":1207:1213   */\n      dup5\n        /* \"#utility.yul\":1165:1214   */\n      tag_59\n      jump\t// in\n    tag_58:\n        /* \"#utility.yul\":1149:1215   */\n      tag_43\n      jump\t// in\n    tag_57:\n        /* \"#utility.yul\":1140:1215   */\n      swap1\n      pop\n        /* \"#utility.yul\":1238:1244   */\n      dup3\n        /* \"#utility.yul\":1231:1236   */\n      dup2\n        /* \"#utility.yul\":1224:1245   */\n      mstore\n        /* \"#utility.yul\":1276:1280   */\n      0x20\n        /* \"#utility.yul\":1269:1274   */\n      dup2\n        /* \"#utility.yul\":1265:1281   */\n      add\n        /* \"#utility.yul\":1314:1317   */\n      dup5\n        /* \"#utility.yul\":1305:1311   */\n      dup5\n        /* \"#utility.yul\":1300:1303   */\n      dup5\n        /* \"#utility.yul\":1296:1312   */\n      add\n        /* \"#utility.yul\":1293:1318   */\n      gt\n        /* \"#utility.yul\":1290:1402   */\n      iszero\n      tag_60\n      jumpi\n        /* \"#utility.yul\":1321:1400   */\n      tag_61\n      tag_62\n      jump\t// in\n    tag_61:\n        /* \"#utility.yul\":1290:1402   */\n    tag_60:\n        /* \"#utility.yul\":1411:1452   */\n      tag_63\n        /* \"#utility.yul\":1445:1451   */\n      dup5\n        /* \"#utility.yul\":1440:1443   */\n      dup3\n        /* \"#utility.yul\":1435:1438   */\n      dup6\n        /* \"#utility.yul\":1411:1452   */\n      tag_64\n      jump\t// in\n    tag_63:\n        /* \"#utility.yul\":1130:1458   */\n      pop\n        /* \"#utility.yul\":1046:1458   */\n      swap4\n      swap3\n      pop\n      pop\n      pop\n      jump\t// out\n        /* \"#utility.yul\":1464:1885   */\n    tag_65:\n        /* \"#utility.yul\":1553:1558   */\n      0x00\n        /* \"#utility.yul\":1578:1644   */\n      tag_67\n        /* \"#utility.yul\":1594:1643   */\n      tag_68\n        /* \"#utility.yul\":1636:1642   */\n      dup5\n        /* \"#utility.yul\":1594:1643   */\n      tag_59\n      jump\t// in\n    tag_68:\n        /* \"#utility.yul\":1578:1644   */\n      tag_43\n      jump\t// in\n    tag_67:\n        /* \"#utility.yul\":1569:1644   */\n      swap1\n      pop\n        /* \"#utility.yul\":1667:1673   */\n      dup3\n        /* \"#utility.yul\":1660:1665   */\n      dup2\n        /* \"#utility.yul\":1653:1674   */\n      mstore\n        /* \"#utility.yul\":1705:1709   */\n      0x20\n        /* \"#utility.yul\":1698:1703   */\n      dup2\n        /* \"#utility.yul\":1694:1710   */\n      add\n        /* \"#utility.yul\":1743:1746   */\n      dup5\n        /* \"#utility.yul\":1734:1740   */\n      dup5\n        /* \"#utility.yul\":1729:1732   */\n      dup5\n        /* \"#utility.yul\":1725:1741   */\n      add\n        /* \"#utility.yul\":1722:1747   */\n      gt\n        /* \"#utility.yul\":1719:1831   */\n      iszero\n      tag_69\n      jumpi\n        /* \"#utility.yul\":1750:1829   */\n      tag_70\n      tag_62\n      jump\t// in\n    tag_70:\n        /* \"#utility.yul\":1719:1831   */\n    tag_69:\n        /* \"#utility.yul\":1840:1879   */\n      tag_71\n        /* \"#utility.yul\":1872:1878   */\n      dup5\n        /* \"#utility.yul\":1867:1870   */\n      dup3\n        /* \"#utility.yul\":1862:1865   */\n      dup6\n        /* \"#utility.yul\":1840:1879   */\n      tag_72\n      jump\t// in\n    tag_71:\n        /* \"#utility.yul\":1559:1885   */\n      pop\n        /* \"#utility.yul\":1464:1885   */\n      swap4\n      swap3\n      pop\n      pop\n      pop\n      jump\t// out\n        /* \"#utility.yul\":1891:2030   */\n    tag_73:\n        /* \"#utility.yul\":1937:1942   */\n      0x00\n        /* \"#utility.yul\":1975:1981   */\n      dup2\n        /* \"#utility.yul\":1962:1982   */\n      calldataload\n        /* \"#utility.yul\":1953:1982   */\n      swap1\n      pop\n        /* \"#utility.yul\":1991:2024   */\n      tag_75\n        /* \"#utility.yul\":2018:2023   */\n      dup2\n        /* \"#utility.yul\":1991:2024   */\n      tag_76\n      jump\t// in\n    tag_75:\n        /* \"#utility.yul\":1891:2030   */\n      swap3\n      swap2\n      pop\n      pop\n      jump\t// out\n        /* \"#utility.yul\":2036:2179   */\n    tag_77:\n        /* \"#utility.yul\":2093:2098   */\n      0x00\n        /* \"#utility.yul\":2124:2130   */\n      dup2\n        /* \"#utility.yul\":2118:2131   */\n      mload\n        /* \"#utility.yul\":2109:2131   */\n      swap1\n      pop\n        /* \"#utility.yul\":2140:2173   */\n      tag_79\n        /* \"#utility.yul\":2167:2172   */\n      dup2\n        /* \"#utility.yul\":2140:2173   */\n      tag_76\n      jump\t// in\n    tag_79:\n        /* \"#utility.yul\":2036:2179   */\n      swap3\n      swap2\n      pop\n      pop\n      jump\t// out\n        /* \"#utility.yul\":2219:2642   */\n    tag_80:\n        /* \"#utility.yul\":2320:2325   */\n      0x00\n        /* \"#utility.yul\":2369:2372   */\n      dup3\n        /* \"#utility.yul\":2362:2366   */\n      0x1f\n        /* \"#utility.yul\":2354:2360   */\n      dup4\n        /* \"#utility.yul\":2350:2367   */\n      add\n        /* \"#utility.yul\":2346:2373   */\n      slt\n        /* \"#utility.yul\":2336:2458   */\n      tag_82\n      jumpi\n        /* \"#utility.yul\":2377:2456   */\n      tag_83\n      tag_52\n      jump\t// in\n    tag_83:\n        /* \"#utility.yul\":2336:2458   */\n    tag_82:\n        /* \"#utility.yul\":2487:2493   */\n      dup2\n        /* \"#utility.yul\":2481:2494   */\n      mload\n        /* \"#utility.yul\":2512:2636   */\n      tag_84\n        /* \"#utility.yul\":2632:2635   */\n      dup5\n        /* \"#utility.yul\":2624:2630   */\n      dup3\n        /* \"#utility.yul\":2617:2621   */\n      0x20\n        /* \"#utility.yul\":2609:2615   */\n      dup7\n        /* \"#utility.yul\":2605:2622   */\n      add\n        /* \"#utility.yul\":2512:2636   */\n      tag_38\n      jump\t// in\n    tag_84:\n        /* \"#utility.yul\":2503:2636   */\n      swap2\n      pop\n        /* \"#utility.yul\":2326:2642   */\n      pop\n        /* \"#utility.yul\":2219:2642   */\n      swap3\n      swap2\n      pop\n      pop\n      jump\t// out\n        /* \"#utility.yul\":2662:3002   */\n    tag_85:\n        /* \"#utility.yul\":2718:2723   */\n      0x00\n        /* \"#utility.yul\":2767:2770   */\n      dup3\n        /* \"#utility.yul\":2760:2764   */\n      0x1f\n        /* \"#utility.yul\":2752:2758   */\n      dup4\n        /* \"#utility.yul\":2748:2765   */\n      add\n        /* \"#utility.yul\":2744:2771   */\n      slt\n        /* \"#utility.yul\":2734:2856   */\n      tag_87\n      jumpi\n        /* \"#utility.yul\":2775:2854   */\n      tag_88\n      tag_52\n      jump\t// in\n    tag_88:\n        /* \"#utility.yul\":2734:2856   */\n    tag_87:\n        /* \"#utility.yul\":2892:2898   */\n      dup2\n        /* \"#utility.yul\":2879:2899   */\n      calldataload\n        /* \"#utility.yul\":2917:2996   */\n      tag_89\n        /* \"#utility.yul\":2992:2995   */\n      dup5\n        /* \"#utility.yul\":2984:2990   */\n      dup3\n        /* \"#utility.yul\":2977:2981   */\n      0x20\n        /* \"#utility.yul\":2969:2975   */\n      dup7\n        /* \"#utility.yul\":2965:2982   */\n      add\n        /* \"#utility.yul\":2917:2996   */\n      tag_55\n      jump\t// in\n    tag_89:\n        /* \"#utility.yul\":2908:2996   */\n      swap2\n      pop\n        /* \"#utility.yul\":2724:3002   */\n      pop\n        /* \"#utility.yul\":2662:3002   */\n      swap3\n      swap2\n      pop\n      pop\n      jump\t// out\n        /* \"#utility.yul\":3022:3377   */\n    tag_90:\n        /* \"#utility.yul\":3089:3094   */\n      0x00\n        /* \"#utility.yul\":3138:3141   */\n      dup3\n        /* \"#utility.yul\":3131:3135   */\n      0x1f\n        /* \"#utility.yul\":3123:3129   */\n      dup4\n        /* \"#utility.yul\":3119:3136   */\n      add\n        /* \"#utility.yul\":3115:3142   */\n      slt\n        /* \"#utility.yul\":3105:3227   */\n      tag_92\n      jumpi\n        /* \"#utility.yul\":3146:3225   */\n      tag_93\n      tag_52\n      jump\t// in\n    tag_93:\n        /* \"#utility.yul\":3105:3227   */\n    tag_92:\n        /* \"#utility.yul\":3256:3262   */\n      dup2\n        /* \"#utility.yul\":3250:3263   */\n      mload\n        /* \"#utility.yul\":3281:3371   */\n      tag_94\n        /* \"#utility.yul\":3367:3370   */\n      dup5\n        /* \"#utility.yul\":3359:3365   */\n      dup3\n        /* \"#utility.yul\":3352:3356   */\n      0x20\n        /* \"#utility.yul\":3344:3350   */\n      dup7\n        /* \"#utility.yul\":3340:3357   */\n      add\n        /* \"#utility.yul\":3281:3371   */\n      tag_65\n      jump\t// in\n    tag_94:\n        /* \"#utility.yul\":3272:3371   */\n      swap2\n      pop\n        /* \"#utility.yul\":3095:3377   */\n      pop\n        /* \"#utility.yul\":3022:3377   */\n      swap3\n      swap2\n      pop\n      pop\n      jump\t// out\n        /* \"#utility.yul\":3415:4179   */\n    tag_54:\n        /* \"#utility.yul\":3494:3499   */\n      0x00\n        /* \"#utility.yul\":3538:3542   */\n      0x40\n        /* \"#utility.yul\":3526:3535   */\n      dup3\n        /* \"#utility.yul\":3521:3524   */\n      dup5\n        /* \"#utility.yul\":3517:3536   */\n      sub\n        /* \"#utility.yul\":3513:3543   */\n      slt\n        /* \"#utility.yul\":3510:3627   */\n      iszero\n      tag_96\n      jumpi\n        /* \"#utility.yul\":3546:3625   */\n      tag_97\n      tag_98\n      jump\t// in\n    tag_97:\n        /* \"#utility.yul\":3510:3627   */\n    tag_96:\n        /* \"#utility.yul\":3645:3666   */\n      tag_99\n        /* \"#utility.yul\":3661:3665   */\n      0x40\n        /* \"#utility.yul\":3645:3666   */\n      tag_43\n      jump\t// in\n    tag_99:\n        /* \"#utility.yul\":3636:3666   */\n      swap1\n      pop\n        /* \"#utility.yul\":3724:3725   */\n      0x00\n        /* \"#utility.yul\":3764:3824   */\n      tag_100\n        /* \"#utility.yul\":3820:3823   */\n      dup5\n        /* \"#utility.yul\":3811:3817   */\n      dup3\n        /* \"#utility.yul\":3800:3809   */\n      dup6\n        /* \"#utility.yul\":3796:3818   */\n      add\n        /* \"#utility.yul\":3764:3824   */\n      tag_77\n      jump\t// in\n    tag_100:\n        /* \"#utility.yul\":3757:3761   */\n      0x00\n        /* \"#utility.yul\":3750:3755   */\n      dup4\n        /* \"#utility.yul\":3746:3762   */\n      add\n        /* \"#utility.yul\":3739:3825   */\n      mstore\n        /* \"#utility.yul\":3676:3836   */\n      pop\n        /* \"#utility.yul\":3917:3919   */\n      0x20\n        /* \"#utility.yul\":3906:3915   */\n      dup3\n        /* \"#utility.yul\":3902:3920   */\n      add\n        /* \"#utility.yul\":3896:3921   */\n      mload\n        /* \"#utility.yul\":3948:3966   */\n      0xffffffffffffffff\n        /* \"#utility.yul\":3940:3946   */\n      dup2\n        /* \"#utility.yul\":3937:3967   */\n      gt\n        /* \"#utility.yul\":3934:4051   */\n      iszero\n      tag_101\n      jumpi\n        /* \"#utility.yul\":3970:4049   */\n      tag_102\n      tag_103\n      jump\t// in\n    tag_102:\n        /* \"#utility.yul\":3934:4051   */\n    tag_101:\n        /* \"#utility.yul\":4090:4160   */\n      tag_104\n        /* \"#utility.yul\":4156:4159   */\n      dup5\n        /* \"#utility.yul\":4147:4153   */\n      dup3\n        /* \"#utility.yul\":4136:4145   */\n      dup6\n        /* \"#utility.yul\":4132:4154   */\n      add\n        /* \"#utility.yul\":4090:4160   */\n      tag_90\n      jump\t// in\n    tag_104:\n        /* \"#utility.yul\":4083:4087   */\n      0x20\n        /* \"#utility.yul\":4076:4081   */\n      dup4\n        /* \"#utility.yul\":4072:4088   */\n      add\n        /* \"#utility.yul\":4065:4161   */\n      mstore\n        /* \"#utility.yul\":3846:4172   */\n      pop\n        /* \"#utility.yul\":3415:4179   */\n      swap3\n      swap2\n      pop\n      pop\n      jump\t// out\n        /* \"#utility.yul\":4185:4324   */\n    tag_105:\n        /* \"#utility.yul\":4231:4236   */\n      0x00\n        /* \"#utility.yul\":4269:4275   */\n      dup2\n        /* \"#utility.yul\":4256:4276   */\n      calldataload\n        /* \"#utility.yul\":4247:4276   */\n      swap1\n      pop\n        /* \"#utility.yul\":4285:4318   */\n      tag_107\n        /* \"#utility.yul\":4312:4317   */\n      dup2\n        /* \"#utility.yul\":4285:4318   */\n      tag_108\n      jump\t// in\n    tag_107:\n        /* \"#utility.yul\":4185:4324   */\n      swap3\n      swap2\n      pop\n      pop\n      jump\t// out\n        /* \"#utility.yul\":4330:4984   */\n    tag_8:\n        /* \"#utility.yul\":4408:4414   */\n      0x00\n        /* \"#utility.yul\":4416:4422   */\n      dup1\n        /* \"#utility.yul\":4465:4467   */\n      0x40\n        /* \"#utility.yul\":4453:4462   */\n      dup4\n        /* \"#utility.yul\":4444:4451   */\n      dup6\n        /* \"#utility.yul\":4440:4463   */\n      sub\n        /* \"#utility.yul\":4436:4468   */\n      slt\n        /* \"#utility.yul\":4433:4552   */\n      iszero\n      tag_110\n      jumpi\n        /* \"#utility.yul\":4471:4550   */\n      tag_111\n      tag_112\n      jump\t// in\n    tag_111:\n        /* \"#utility.yul\":4433:4552   */\n    tag_110:\n        /* \"#utility.yul\":4591:4592   */\n      0x00\n        /* \"#utility.yul\":4616:4669   */\n      tag_113\n        /* \"#utility.yul\":4661:4668   */\n      dup6\n        /* \"#utility.yul\":4652:4658   */\n      dup3\n        /* \"#utility.yul\":4641:4650   */\n      dup7\n        /* \"#utility.yul\":4637:4659   */\n      add\n        /* \"#utility.yul\":4616:4669   */\n      tag_73\n      jump\t// in\n    tag_113:\n        /* \"#utility.yul\":4606:4669   */\n      swap3\n      pop\n        /* \"#utility.yul\":4562:4679   */\n      pop\n        /* \"#utility.yul\":4746:4748   */\n      0x20\n        /* \"#utility.yul\":4735:4744   */\n      dup4\n        /* \"#utility.yul\":4731:4749   */\n      add\n        /* \"#utility.yul\":4718:4750   */\n      calldataload\n        /* \"#utility.yul\":4777:4795   */\n      0xffffffffffffffff\n        /* \"#utility.yul\":4769:4775   */\n      dup2\n        /* \"#utility.yul\":4766:4796   */\n      gt\n        /* \"#utility.yul\":4763:4880   */\n      iszero\n      tag_114\n      jumpi\n        /* \"#utility.yul\":4799:4878   */\n      tag_115\n      tag_116\n      jump\t// in\n    tag_115:\n        /* \"#utility.yul\":4763:4880   */\n    tag_114:\n        /* \"#utility.yul\":4904:4967   */\n      tag_117\n        /* \"#utility.yul\":4959:4966   */\n      dup6\n        /* \"#utility.yul\":4950:4956   */\n      dup3\n        /* \"#utility.yul\":4939:4948   */\n      dup7\n        /* \"#utility.yul\":4935:4957   */\n      add\n        /* \"#utility.yul\":4904:4967   */\n      tag_85\n      jump\t// in\n    tag_117:\n        /* \"#utility.yul\":4894:4967   */\n      swap2\n      pop\n        /* \"#utility.yul\":4689:4977   */\n      pop\n        /* \"#utility.yul\":4330:4984   */\n      swap3\n      pop\n      swap3\n      swap1\n      pop\n      jump\t// out\n        /* \"#utility.yul\":4990:5582   */\n    tag_36:\n        /* \"#utility.yul\":5104:5110   */\n      0x00\n        /* \"#utility.yul\":5153:5155   */\n      0x20\n        /* \"#utility.yul\":5141:5150   */\n      dup3\n        /* \"#utility.yul\":5132:5139   */\n      dup5\n        /* \"#utility.yul\":5128:5151   */\n      sub\n        /* \"#utility.yul\":5124:5156   */\n      slt\n        /* \"#utility.yul\":5121:5240   */\n      iszero\n      tag_119\n      jumpi\n        /* \"#utility.yul\":5159:5238   */\n      tag_120\n      tag_112\n      jump\t// in\n    tag_120:\n        /* \"#utility.yul\":5121:5240   */\n    tag_119:\n        /* \"#utility.yul\":5300:5301   */\n      0x00\n        /* \"#utility.yul\":5289:5298   */\n      dup3\n        /* \"#utility.yul\":5285:5302   */\n      add\n        /* \"#utility.yul\":5279:5303   */\n      mload\n        /* \"#utility.yul\":5330:5348   */\n      0xffffffffffffffff\n        /* \"#utility.yul\":5322:5328   */\n      dup2\n        /* \"#utility.yul\":5319:5349   */\n      gt\n        /* \"#utility.yul\":5316:5433   */\n      iszero\n      tag_121\n      jumpi\n        /* \"#utility.yul\":5352:5431   */\n      tag_122\n      tag_116\n      jump\t// in\n    tag_122:\n        /* \"#utility.yul\":5316:5433   */\n    tag_121:\n        /* \"#utility.yul\":5457:5565   */\n      tag_123\n        /* \"#utility.yul\":5557:5564   */\n      dup5\n        /* \"#utility.yul\":5548:5554   */\n      dup3\n        /* \"#utility.yul\":5537:5546   */\n      dup6\n        /* \"#utility.yul\":5533:5555   */\n      add\n        /* \"#utility.yul\":5457:5565   */\n      tag_80\n      jump\t// in\n    tag_123:\n        /* \"#utility.yul\":5447:5565   */\n      swap2\n      pop\n        /* \"#utility.yul\":5250:5575   */\n      pop\n        /* \"#utility.yul\":4990:5582   */\n      swap3\n      swap2\n      pop\n      pop\n      jump\t// out\n        /* \"#utility.yul\":5588:5917   */\n    tag_12:\n        /* \"#utility.yul\":5647:5653   */\n      0x00\n        /* \"#utility.yul\":5696:5698   */\n      0x20\n        /* \"#utility.yul\":5684:5693   */\n      dup3\n        /* \"#utility.yul\":5675:5682   */\n      dup5\n        /* \"#utility.yul\":5671:5694   */\n      sub\n        /* \"#utility.yul\":5667:5699   */\n      slt\n        /* \"#utility.yul\":5664:5783   */\n      iszero\n      tag_125\n      jumpi\n        /* \"#utility.yul\":5702:5781   */\n      tag_126\n      tag_112\n      jump\t// in\n    tag_126:\n        /* \"#utility.yul\":5664:5783   */\n    tag_125:\n        /* \"#utility.yul\":5822:5823   */\n      0x00\n        /* \"#utility.yul\":5847:5900   */\n      tag_127\n        /* \"#utility.yul\":5892:5899   */\n      dup5\n        /* \"#utility.yul\":5883:5889   */\n      dup3\n        /* \"#utility.yul\":5872:5881   */\n      dup6\n        /* \"#utility.yul\":5868:5890   */\n      add\n        /* \"#utility.yul\":5847:5900   */\n      tag_105\n      jump\t// in\n    tag_127:\n        /* \"#utility.yul\":5837:5900   */\n      swap2\n      pop\n        /* \"#utility.yul\":5793:5910   */\n      pop\n        /* \"#utility.yul\":5588:5917   */\n      swap3\n      swap2\n      pop\n      pop\n      jump\t// out\n        /* \"#utility.yul\":5923:6041   */\n    tag_128:\n        /* \"#utility.yul\":6010:6034   */\n      tag_130\n        /* \"#utility.yul\":6028:6033   */\n      dup2\n        /* \"#utility.yul\":6010:6034   */\n      tag_131\n      jump\t// in\n    tag_130:\n        /* \"#utility.yul\":6005:6008   */\n      dup3\n        /* \"#utility.yul\":5998:6035   */\n      mstore\n        /* \"#utility.yul\":5923:6041   */\n      pop\n      pop\n      jump\t// out\n        /* \"#utility.yul\":6047:6411   */\n    tag_132:\n        /* \"#utility.yul\":6135:6138   */\n      0x00\n        /* \"#utility.yul\":6163:6202   */\n      tag_134\n        /* \"#utility.yul\":6196:6201   */\n      dup3\n        /* \"#utility.yul\":6163:6202   */\n      tag_135\n      jump\t// in\n    tag_134:\n        /* \"#utility.yul\":6218:6289   */\n      tag_136\n        /* \"#utility.yul\":6282:6288   */\n      dup2\n        /* \"#utility.yul\":6277:6280   */\n      dup6\n        /* \"#utility.yul\":6218:6289   */\n      tag_137\n      jump\t// in\n    tag_136:\n        /* \"#utility.yul\":6211:6289   */\n      swap4\n      pop\n        /* \"#utility.yul\":6298:6350   */\n      tag_138\n        /* \"#utility.yul\":6343:6349   */\n      dup2\n        /* \"#utility.yul\":6338:6341   */\n      dup6\n        /* \"#utility.yul\":6331:6335   */\n      0x20\n        /* \"#utility.yul\":6324:6329   */\n      dup7\n        /* \"#utility.yul\":6320:6336   */\n      add\n        /* \"#utility.yul\":6298:6350   */\n      tag_72\n      jump\t// in\n    tag_138:\n        /* \"#utility.yul\":6375:6404   */\n      tag_139\n        /* \"#utility.yul\":6397:6403   */\n      dup2\n        /* \"#utility.yul\":6375:6404   */\n      tag_140\n      jump\t// in\n    tag_139:\n        /* \"#utility.yul\":6370:6373   */\n      dup5\n        /* \"#utility.yul\":6366:6405   */\n      add\n        /* \"#utility.yul\":6359:6405   */\n      swap2\n      pop\n        /* \"#utility.yul\":6139:6411   */\n      pop\n        /* \"#utility.yul\":6047:6411   */\n      swap3\n      swap2\n      pop\n      pop\n      jump\t// out\n        /* \"#utility.yul\":6417:6840   */\n    tag_15:\n        /* \"#utility.yul\":6558:6562   */\n      0x00\n        /* \"#utility.yul\":6596:6598   */\n      0x40\n        /* \"#utility.yul\":6585:6594   */\n      dup3\n        /* \"#utility.yul\":6581:6599   */\n      add\n        /* \"#utility.yul\":6573:6599   */\n      swap1\n      pop\n        /* \"#utility.yul\":6609:6680   */\n      tag_142\n        /* \"#utility.yul\":6677:6678   */\n      0x00\n        /* \"#utility.yul\":6666:6675   */\n      dup4\n        /* \"#utility.yul\":6662:6679   */\n      add\n        /* \"#utility.yul\":6653:6659   */\n      dup6\n        /* \"#utility.yul\":6609:6680   */\n      tag_128\n      jump\t// in\n    tag_142:\n        /* \"#utility.yul\":6727:6736   */\n      dup2\n        /* \"#utility.yul\":6721:6725   */\n      dup2\n        /* \"#utility.yul\":6717:6737   */\n      sub\n        /* \"#utility.yul\":6712:6714   */\n      0x20\n        /* \"#utility.yul\":6701:6710   */\n      dup4\n        /* \"#utility.yul\":6697:6715   */\n      add\n        /* \"#utility.yul\":6690:6738   */\n      mstore\n        /* \"#utility.yul\":6755:6833   */\n      tag_143\n        /* \"#utility.yul\":6828:6832   */\n      dup2\n        /* \"#utility.yul\":6819:6825   */\n      dup5\n        /* \"#utility.yul\":6755:6833   */\n      tag_132\n      jump\t// in\n    tag_143:\n        /* \"#utility.yul\":6747:6833   */\n      swap1\n      pop\n        /* \"#utility.yul\":6417:6840   */\n      swap4\n      swap3\n      pop\n      pop\n      pop\n      jump\t// out\n        /* \"#utility.yul\":6846:6975   */\n    tag_43:\n        /* \"#utility.yul\":6880:6886   */\n      0x00\n        /* \"#utility.yul\":6907:6927   */\n      tag_145\n      tag_146\n      jump\t// in\n    tag_145:\n        /* \"#utility.yul\":6897:6927   */\n      swap1\n      pop\n        /* \"#utility.yul\":6936:6969   */\n      tag_147\n        /* \"#utility.yul\":6964:6968   */\n      dup3\n        /* \"#utility.yul\":6956:6962   */\n      dup3\n        /* \"#utility.yul\":6936:6969   */\n      tag_148\n      jump\t// in\n    tag_147:\n        /* \"#utility.yul\":6846:6975   */\n      swap2\n      swap1\n      pop\n      jump\t// out\n        /* \"#utility.yul\":6981:7056   */\n    tag_146:\n        /* \"#utility.yul\":7014:7020   */\n      0x00\n        /* \"#utility.yul\":7047:7049   */\n      0x40\n        /* \"#utility.yul\":7041:7050   */\n      mload\n        /* \"#utility.yul\":7031:7050   */\n      swap1\n      pop\n        /* \"#utility.yul\":6981:7056   */\n      swap1\n      jump\t// out\n        /* \"#utility.yul\":7062:7392   */\n    tag_42:\n        /* \"#utility.yul\":7158:7162   */\n      0x00\n        /* \"#utility.yul\":7248:7266   */\n      0xffffffffffffffff\n        /* \"#utility.yul\":7240:7246   */\n      dup3\n        /* \"#utility.yul\":7237:7267   */\n      gt\n        /* \"#utility.yul\":7234:7290   */\n      iszero\n      tag_151\n      jumpi\n        /* \"#utility.yul\":7270:7288   */\n      tag_152\n      tag_153\n      jump\t// in\n    tag_152:\n        /* \"#utility.yul\":7234:7290   */\n    tag_151:\n        /* \"#utility.yul\":7320:7324   */\n      0x20\n        /* \"#utility.yul\":7312:7318   */\n      dup3\n        /* \"#utility.yul\":7308:7325   */\n      mul\n        /* \"#utility.yul\":7300:7325   */\n      swap1\n      pop\n        /* \"#utility.yul\":7380:7384   */\n      0x20\n        /* \"#utility.yul\":7374:7378   */\n      dup2\n        /* \"#utility.yul\":7370:7385   */\n      add\n        /* \"#utility.yul\":7362:7385   */\n      swap1\n      pop\n        /* \"#utility.yul\":7062:7392   */\n      swap2\n      swap1\n      pop\n      jump\t// out\n        /* \"#utility.yul\":7398:7706   */\n    tag_59:\n        /* \"#utility.yul\":7460:7464   */\n      0x00\n        /* \"#utility.yul\":7550:7568   */\n      0xffffffffffffffff\n        /* \"#utility.yul\":7542:7548   */\n      dup3\n        /* \"#utility.yul\":7539:7569   */\n      gt\n        /* \"#utility.yul\":7536:7592   */\n      iszero\n      tag_155\n      jumpi\n        /* \"#utility.yul\":7572:7590   */\n      tag_156\n      tag_153\n      jump\t// in\n    tag_156:\n        /* \"#utility.yul\":7536:7592   */\n    tag_155:\n        /* \"#utility.yul\":7610:7639   */\n      tag_157\n        /* \"#utility.yul\":7632:7638   */\n      dup3\n        /* \"#utility.yul\":7610:7639   */\n      tag_140\n      jump\t// in\n    tag_157:\n        /* \"#utility.yul\":7602:7639   */\n      swap1\n      pop\n        /* \"#utility.yul\":7694:7698   */\n      0x20\n        /* \"#utility.yul\":7688:7692   */\n      dup2\n        /* \"#utility.yul\":7684:7699   */\n      add\n        /* \"#utility.yul\":7676:7699   */\n      swap1\n      pop\n        /* \"#utility.yul\":7398:7706   */\n      swap2\n      swap1\n      pop\n      jump\t// out\n        /* \"#utility.yul\":7712:7811   */\n    tag_135:\n        /* \"#utility.yul\":7764:7770   */\n      0x00\n        /* \"#utility.yul\":7798:7803   */\n      dup2\n        /* \"#utility.yul\":7792:7804   */\n      mload\n        /* \"#utility.yul\":7782:7804   */\n      swap1\n      pop\n        /* \"#utility.yul\":7712:7811   */\n      swap2\n      swap1\n      pop\n      jump\t// out\n        /* \"#utility.yul\":7817:7986   */\n    tag_137:\n        /* \"#utility.yul\":7901:7912   */\n      0x00\n        /* \"#utility.yul\":7935:7941   */\n      dup3\n        /* \"#utility.yul\":7930:7933   */\n      dup3\n        /* \"#utility.yul\":7923:7942   */\n      mstore\n        /* \"#utility.yul\":7975:7979   */\n      0x20\n        /* \"#utility.yul\":7970:7973   */\n      dup3\n        /* \"#utility.yul\":7966:7980   */\n      add\n        /* \"#utility.yul\":7951:7980   */\n      swap1\n      pop\n        /* \"#utility.yul\":7817:7986   */\n      swap3\n      swap2\n      pop\n      pop\n      jump\t// out\n        /* \"#utility.yul\":7992:8088   */\n    tag_131:\n        /* \"#utility.yul\":8029:8036   */\n      0x00\n        /* \"#utility.yul\":8058:8082   */\n      tag_161\n        /* \"#utility.yul\":8076:8081   */\n      dup3\n        /* \"#utility.yul\":8058:8082   */\n      tag_162\n      jump\t// in\n    tag_161:\n        /* \"#utility.yul\":8047:8082   */\n      swap1\n      pop\n        /* \"#utility.yul\":7992:8088   */\n      swap2\n      swap1\n      pop\n      jump\t// out\n        /* \"#utility.yul\":8094:8220   */\n    tag_162:\n        /* \"#utility.yul\":8131:8138   */\n      0x00\n        /* \"#utility.yul\":8171:8213   */\n      0xffffffffffffffffffffffffffffffffffffffff\n        /* \"#utility.yul\":8164:8169   */\n      dup3\n        /* \"#utility.yul\":8160:8214   */\n      and\n        /* \"#utility.yul\":8149:8214   */\n      swap1\n      pop\n        /* \"#utility.yul\":8094:8220   */\n      swap2\n      swap1\n      pop\n      jump\t// out\n        /* \"#utility.yul\":8226:8303   */\n    tag_164:\n        /* \"#utility.yul\":8263:8270   */\n      0x00\n        /* \"#utility.yul\":8292:8297   */\n      dup2\n        /* \"#utility.yul\":8281:8297   */\n      swap1\n      pop\n        /* \"#utility.yul\":8226:8303   */\n      swap2\n      swap1\n      pop\n      jump\t// out\n        /* \"#utility.yul\":8309:8463   */\n    tag_64:\n        /* \"#utility.yul\":8393:8399   */\n      dup3\n        /* \"#utility.yul\":8388:8391   */\n      dup2\n        /* \"#utility.yul\":8383:8386   */\n      dup4\n        /* \"#utility.yul\":8370:8400   */\n      calldatacopy\n        /* \"#utility.yul\":8455:8456   */\n      0x00\n        /* \"#utility.yul\":8446:8452   */\n      dup4\n        /* \"#utility.yul\":8441:8444   */\n      dup4\n        /* \"#utility.yul\":8437:8453   */\n      add\n        /* \"#utility.yul\":8430:8457   */\n      mstore\n        /* \"#utility.yul\":8309:8463   */\n      pop\n      pop\n      pop\n      jump\t// out\n        /* \"#utility.yul\":8469:8776   */\n    tag_72:\n        /* \"#utility.yul\":8537:8538   */\n      0x00\n        /* \"#utility.yul\":8547:8660   */\n    tag_168:\n        /* \"#utility.yul\":8561:8567   */\n      dup4\n        /* \"#utility.yul\":8558:8559   */\n      dup2\n        /* \"#utility.yul\":8555:8568   */\n      lt\n        /* \"#utility.yul\":8547:8660   */\n      iszero\n      tag_170\n      jumpi\n        /* \"#utility.yul\":8646:8647   */\n      dup1\n        /* \"#utility.yul\":8641:8644   */\n      dup3\n        /* \"#utility.yul\":8637:8648   */\n      add\n        /* \"#utility.yul\":8631:8649   */\n      mload\n        /* \"#utility.yul\":8627:8628   */\n      dup2\n        /* \"#utility.yul\":8622:8625   */\n      dup5\n        /* \"#utility.yul\":8618:8629   */\n      add\n        /* \"#utility.yul\":8611:8650   */\n      mstore\n        /* \"#utility.yul\":8583:8585   */\n      0x20\n        /* \"#utility.yul\":8580:8581   */\n      dup2\n        /* \"#utility.yul\":8576:8586   */\n      add\n        /* \"#utility.yul\":8571:8586   */\n      swap1\n      pop\n        /* \"#utility.yul\":8547:8660   */\n      jump(tag_168)\n    tag_170:\n        /* \"#utility.yul\":8678:8684   */\n      dup4\n        /* \"#utility.yul\":8675:8676   */\n      dup2\n        /* \"#utility.yul\":8672:8685   */\n      gt\n        /* \"#utility.yul\":8669:8770   */\n      iszero\n      tag_171\n      jumpi\n        /* \"#utility.yul\":8758:8759   */\n      0x00\n        /* \"#utility.yul\":8749:8755   */\n      dup5\n        /* \"#utility.yul\":8744:8747   */\n      dup5\n        /* \"#utility.yul\":8740:8756   */\n      add\n        /* \"#utility.yul\":8733:8760   */\n      mstore\n        /* \"#utility.yul\":8669:8770   */\n    tag_171:\n        /* \"#utility.yul\":8518:8776   */\n      pop\n        /* \"#utility.yul\":8469:8776   */\n      pop\n      pop\n      pop\n      jump\t// out\n        /* \"#utility.yul\":8782:9102   */\n    tag_26:\n        /* \"#utility.yul\":8826:8832   */\n      0x00\n        /* \"#utility.yul\":8863:8864   */\n      0x02\n        /* \"#utility.yul\":8857:8861   */\n      dup3\n        /* \"#utility.yul\":8853:8865   */\n      div\n        /* \"#utility.yul\":8843:8865   */\n      swap1\n      pop\n        /* \"#utility.yul\":8910:8911   */\n      0x01\n        /* \"#utility.yul\":8904:8908   */\n      dup3\n        /* \"#utility.yul\":8900:8912   */\n      and\n        /* \"#utility.yul\":8931:8949   */\n      dup1\n        /* \"#utility.yul\":8921:9002   */\n      tag_173\n      jumpi\n        /* \"#utility.yul\":8987:8991   */\n      0x7f\n        /* \"#utility.yul\":8979:8985   */\n      dup3\n        /* \"#utility.yul\":8975:8992   */\n      and\n        /* \"#utility.yul\":8965:8992   */\n      swap2\n      pop\n        /* \"#utility.yul\":8921:9002   */\n    tag_173:\n        /* \"#utility.yul\":9049:9051   */\n      0x20\n        /* \"#utility.yul\":9041:9047   */\n      dup3\n        /* \"#utility.yul\":9038:9052   */\n      lt\n        /* \"#utility.yul\":9018:9036   */\n      dup2\n        /* \"#utility.yul\":9015:9053   */\n      eq\n        /* \"#utility.yul\":9012:9096   */\n      iszero\n      tag_174\n      jumpi\n        /* \"#utility.yul\":9068:9086   */\n      tag_175\n      tag_176\n      jump\t// in\n    tag_175:\n        /* \"#utility.yul\":9012:9096   */\n    tag_174:\n        /* \"#utility.yul\":8833:9102   */\n      pop\n        /* \"#utility.yul\":8782:9102   */\n      swap2\n      swap1\n      pop\n      jump\t// out\n        /* \"#utility.yul\":9108:9389   */\n    tag_148:\n        /* \"#utility.yul\":9191:9218   */\n      tag_178\n        /* \"#utility.yul\":9213:9217   */\n      dup3\n        /* \"#utility.yul\":9191:9218   */\n      tag_140\n      jump\t// in\n    tag_178:\n        /* \"#utility.yul\":9183:9189   */\n      dup2\n        /* \"#utility.yul\":9179:9219   */\n      add\n        /* \"#utility.yul\":9321:9327   */\n      dup2\n        /* \"#utility.yul\":9309:9319   */\n      dup2\n        /* \"#utility.yul\":9306:9328   */\n      lt\n        /* \"#utility.yul\":9285:9303   */\n      0xffffffffffffffff\n        /* \"#utility.yul\":9273:9283   */\n      dup3\n        /* \"#utility.yul\":9270:9304   */\n      gt\n        /* \"#utility.yul\":9267:9329   */\n      or\n        /* \"#utility.yul\":9264:9352   */\n      iszero\n      tag_179\n      jumpi\n        /* \"#utility.yul\":9332:9350   */\n      tag_180\n      tag_153\n      jump\t// in\n    tag_180:\n        /* \"#utility.yul\":9264:9352   */\n    tag_179:\n        /* \"#utility.yul\":9372:9382   */\n      dup1\n        /* \"#utility.yul\":9368:9370   */\n      0x40\n        /* \"#utility.yul\":9361:9383   */\n      mstore\n        /* \"#utility.yul\":9151:9389   */\n      pop\n        /* \"#utility.yul\":9108:9389   */\n      pop\n      pop\n      jump\t// out\n        /* \"#utility.yul\":9395:9575   */\n    tag_176:\n        /* \"#utility.yul\":9443:9520   */\n      0x4e487b7100000000000000000000000000000000000000000000000000000000\n        /* \"#utility.yul\":9440:9441   */\n      0x00\n        /* \"#utility.yul\":9433:9521   */\n      mstore\n        /* \"#utility.yul\":9540:9544   */\n      0x22\n        /* \"#utility.yul\":9537:9538   */\n      0x04\n        /* \"#utility.yul\":9530:9545   */\n      mstore\n        /* \"#utility.yul\":9564:9568   */\n      0x24\n        /* \"#utility.yul\":9561:9562   */\n      0x00\n        /* \"#utility.yul\":9554:9569   */\n      revert\n        /* \"#utility.yul\":9581:9761   */\n    tag_153:\n        /* \"#utility.yul\":9629:9706   */\n      0x4e487b7100000000000000000000000000000000000000000000000000000000\n        /* \"#utility.yul\":9626:9627   */\n      0x00\n        /* \"#utility.yul\":9619:9707   */\n      mstore\n        /* \"#utility.yul\":9726:9730   */\n      0x41\n        /* \"#utility.yul\":9723:9724   */\n      0x04\n        /* \"#utility.yul\":9716:9731   */\n      mstore\n        /* \"#utility.yul\":9750:9754   */\n      0x24\n        /* \"#utility.yul\":9747:9748   */\n      0x00\n        /* \"#utility.yul\":9740:9755   */\n      revert\n        /* \"#utility.yul\":9767:9884   */\n    tag_52:\n        /* \"#utility.yul\":9876:9877   */\n      0x00\n        /* \"#utility.yul\":9873:9874   */\n      dup1\n        /* \"#utility.yul\":9866:9878   */\n      revert\n        /* \"#utility.yul\":9890:10007   */\n    tag_98:\n        /* \"#utility.yul\":9999:10000   */\n      0x00\n        /* \"#utility.yul\":9996:9997   */\n      dup1\n        /* \"#utility.yul\":9989:10001   */\n      revert\n        /* \"#utility.yul\":10013:10130   */\n    tag_103:\n        /* \"#utility.yul\":10122:10123   */\n      0x00\n        /* \"#utility.yul\":10119:10120   */\n      dup1\n        /* \"#utility.yul\":10112:10124   */\n      revert\n        /* \"#utility.yul\":10136:10253   */\n    tag_46:\n        /* \"#utility.yul\":10245:10246   */\n      0x00\n        /* \"#utility.yul\":10242:10243   */\n      dup1\n        /* \"#utility.yul\":10235:10247   */\n      revert\n        /* \"#utility.yul\":10259:10376   */\n    tag_62:\n        /* \"#utility.yul\":10368:10369   */\n      0x00\n        /* \"#utility.yul\":10365:10366   */\n      dup1\n        /* \"#utility.yul\":10358:10370   */\n      revert\n        /* \"#utility.yul\":10382:10499   */\n    tag_116:\n        /* \"#utility.yul\":10491:10492   */\n      0x00\n        /* \"#utility.yul\":10488:10489   */\n      dup1\n        /* \"#utility.yul\":10481:10493   */\n      revert\n        /* \"#utility.yul\":10505:10622   */\n    tag_112:\n        /* \"#utility.yul\":10614:10615   */\n      0x00\n        /* \"#utility.yul\":10611:10612   */\n      dup1\n        /* \"#utility.yul\":10604:10616   */\n      revert\n        /* \"#utility.yul\":10628:10730   */\n    tag_140:\n        /* \"#utility.yul\":10669:10675   */\n      0x00\n        /* \"#utility.yul\":10720:10722   */\n      0x1f\n        /* \"#utility.yul\":10716:10723   */\n      not\n        /* \"#utility.yul\":10711:10713   */\n      0x1f\n        /* \"#utility.yul\":10704:10709   */\n      dup4\n        /* \"#utility.yul\":10700:10714   */\n      add\n        /* \"#utility.yul\":10696:10724   */\n      and\n        /* \"#utility.yul\":10686:10724   */\n      swap1\n      pop\n        /* \"#utility.yul\":10628:10730   */\n      swap2\n      swap1\n      pop\n      jump\t// out\n        /* \"#utility.yul\":10736:10858   */\n    tag_76:\n        /* \"#utility.yul\":10809:10833   */\n      tag_192\n        /* \"#utility.yul\":10827:10832   */\n      dup2\n        /* \"#utility.yul\":10809:10833   */\n      tag_131\n      jump\t// in\n    tag_192:\n        /* \"#utility.yul\":10802:10807   */\n      dup2\n        /* \"#utility.yul\":10799:10834   */\n      eq\n        /* \"#utility.yul\":10789:10852   */\n      tag_193\n      jumpi\n        /* \"#utility.yul\":10848:10849   */\n      0x00\n        /* \"#utility.yul\":10845:10846   */\n      dup1\n        /* \"#utility.yul\":10838:10850   */\n      revert\n        /* \"#utility.yul\":10789:10852   */\n    tag_193:\n        /* \"#utility.yul\":10736:10858   */\n      pop\n      jump\t// out\n        /* \"#utility.yul\":10864:10986   */\n    tag_108:\n        /* \"#utility.yul\":10937:10961   */\n      tag_195\n        /* \"#utility.yul\":10955:10960   */\n      dup2\n        /* \"#utility.yul\":10937:10961   */\n      tag_164\n      jump\t// in\n    tag_195:\n        /* \"#utility.yul\":10930:10935   */\n      dup2\n        /* \"#utility.yul\":10927:10962   */\n      eq\n        /* \"#utility.yul\":10917:10980   */\n      tag_196\n      jumpi\n        /* \"#utility.yul\":10976:10977   */\n      0x00\n        /* \"#utility.yul\":10973:10974   */\n      dup1\n        /* \"#utility.yul\":10966:10978   */\n      revert\n        /* \"#utility.yul\":10917:10980   */\n    tag_196:\n        /* \"#utility.yul\":10864:10986   */\n      pop\n      jump\t// out\n\n    auxdata: 0xa26469706673582212204b4d6f73237c6eac375f7f25115ceaef518470bcc656d569b89f50944267e1e764736f6c63430008070033\n}\n",
				"bytecode": {
					"linkReferences": {},
					"object": "608060405234801561001057600080fd5b506108b6806100206000396000f3fe608060405234801561001057600080fd5b50600436106100415760003560e01c80636f1c2f261461004657806380c9419e1461006257806384b0befc14610093575b600080fd5b610060600480360381019061005b91906104f7565b61009d565b005b61007c6004803603810190610077919061059c565b61012e565b60405161008a929190610611565b60405180910390f35b61009b61020a565b005b60008054906101000a900473ffffffffffffffffffffffffffffffffffffffff1673ffffffffffffffffffffffffffffffffffffffff1663bc6d30ee83836040518363ffffffff1660e01b81526004016100f8929190610611565b600060405180830381600087803b15801561011257600080fd5b505af1158015610126573d6000803e3d6000fd5b505050505050565b6001818154811061013e57600080fd5b90600052602060002090600202016000915090508060000160009054906101000a900473ffffffffffffffffffffffffffffffffffffffff16908060010180546101879061075d565b80601f01602080910402602001604051908101604052809291908181526020018280546101b39061075d565b80156102005780601f106101d557610100808354040283529160200191610200565b820191906000526020600020905b8154815290600101906020018083116101e357829003601f168201915b5050505050905082565b60008054906101000a900473ffffffffffffffffffffffffffffffffffffffff1673ffffffffffffffffffffffffffffffffffffffff1663942b765a6040518163ffffffff1660e01b815260040160006040518083038186803b15801561027057600080fd5b505afa158015610284573d6000803e3d6000fd5b505050506040513d6000823e3d601f19601f820116820180604052508101906102ad9190610553565b50565b60006102c36102be84610666565b610641565b905080838252602082019050828560208602820111156102e6576102e561082d565b5b60005b8581101561033457815167ffffffffffffffff81111561030c5761030b61081e565b5b8086016103198982610476565b855260208501945060208401935050506001810190506102e9565b5050509392505050565b600061035161034c84610692565b610641565b90508281526020810184848401111561036d5761036c610832565b5b61037884828561071b565b509392505050565b600061039361038e84610692565b610641565b9050828152602081018484840111156103af576103ae610832565b5b6103ba84828561072a565b509392505050565b6000813590506103d181610852565b92915050565b6000815190506103e681610852565b92915050565b600082601f8301126104015761040061081e565b5b81516104118482602086016102b0565b91505092915050565b600082601f83011261042f5761042e61081e565b5b813561043f84826020860161033e565b91505092915050565b600082601f83011261045d5761045c61081e565b5b815161046d848260208601610380565b91505092915050565b60006040828403121561048c5761048b610823565b5b6104966040610641565b905060006104a6848285016103d7565b600083015250602082015167ffffffffffffffff8111156104ca576104c9610828565b5b6104d684828501610448565b60208301525092915050565b6000813590506104f181610869565b92915050565b6000806040838503121561050e5761050d61083c565b5b600061051c858286016103c2565b925050602083013567ffffffffffffffff81111561053d5761053c610837565b5b6105498582860161041a565b9150509250929050565b6000602082840312156105695761056861083c565b5b600082015167ffffffffffffffff81111561058757610586610837565b5b610593848285016103ec565b91505092915050565b6000602082840312156105b2576105b161083c565b5b60006105c0848285016104e2565b91505092915050565b6105d2816106df565b82525050565b60006105e3826106c3565b6105ed81856106ce565b93506105fd81856020860161072a565b61060681610841565b840191505092915050565b600060408201905061062660008301856105c9565b818103602083015261063881846105d8565b90509392505050565b600061064b61065c565b9050610657828261078f565b919050565b6000604051905090565b600067ffffffffffffffff821115610681576106806107ef565b5b602082029050602081019050919050565b600067ffffffffffffffff8211156106ad576106ac6107ef565b5b6106b682610841565b9050602081019050919050565b600081519050919050565b600082825260208201905092915050565b60006106ea826106f1565b9050919050565b600073ffffffffffffffffffffffffffffffffffffffff82169050919050565b6000819050919050565b82818337600083830152505050565b60005b8381101561074857808201518184015260208101905061072d565b83811115610757576000848401525b50505050565b6000600282049050600182168061077557607f821691505b60208210811415610789576107886107c0565b5b50919050565b61079882610841565b810181811067ffffffffffffffff821117156107b7576107b66107ef565b5b80604052505050565b7f4e487b7100000000000000000000000000000000000000000000000000000000600052602260045260246000fd5b7f4e487b7100000000000000000000000000000000000000000000000000000000600052604160045260246000fd5b600080fd5b600080fd5b600080fd5b600080fd5b600080fd5b600080fd5b600080fd5b6000601f19601f8301169050919050565b61085b816106df565b811461086657600080fd5b50565b61087281610711565b811461087d57600080fd5b5056fea26469706673582212204b4d6f73237c6eac375f7f25115ceaef518470bcc656d569b89f50944267e1e764736f6c63430008070033",
					"opcodes": "PUSH1 0x80 PUSH1 0x40 MSTORE CALLVALUE DUP1 ISZERO PUSH2 0x10 JUMPI PUSH1 0x0 DUP1 REVERT JUMPDEST POP PUSH2 0x8B6 DUP1 PUSH2 0x20 PUSH1 0x0 CODECOPY PUSH1 0x0 RETURN INVALID PUSH1 0x80 PUSH1 0x40 MSTORE CALLVALUE DUP1 ISZERO PUSH2 0x10 JUMPI PUSH1 0x0 DUP1 REVERT JUMPDEST POP PUSH1 0x4 CALLDATASIZE LT PUSH2 0x41 JUMPI PUSH1 0x0 CALLDATALOAD PUSH1 0xE0 SHR DUP1 PUSH4 0x6F1C2F26 EQ PUSH2 0x46 JUMPI DUP1 PUSH4 0x80C9419E EQ PUSH2 0x62 JUMPI DUP1 PUSH4 0x84B0BEFC EQ PUSH2 0x93 JUMPI JUMPDEST PUSH1 0x0 DUP1 REVERT JUMPDEST PUSH2 0x60 PUSH1 0x4 DUP1 CALLDATASIZE SUB DUP2 ADD SWAP1 PUSH2 0x5B SWAP2 SWAP1 PUSH2 0x4F7 JUMP JUMPDEST PUSH2 0x9D JUMP JUMPDEST STOP JUMPDEST PUSH2 0x7C PUSH1 0x4 DUP1 CALLDATASIZE SUB DUP2 ADD SWAP1 PUSH2 0x77 SWAP2 SWAP1 PUSH2 0x59C JUMP JUMPDEST PUSH2 0x12E JUMP JUMPDEST PUSH1 0x40 MLOAD PUSH2 0x8A SWAP3 SWAP2 SWAP1 PUSH2 0x611 JUMP JUMPDEST PUSH1 0x40 MLOAD DUP1 SWAP2 SUB SWAP1 RETURN JUMPDEST PUSH2 0x9B PUSH2 0x20A JUMP JUMPDEST STOP JUMPDEST PUSH1 0x0 DUP1 SLOAD SWAP1 PUSH2 0x100 EXP SWAP1 DIV PUSH20 0xFFFFFFFFFFFFFFFFFFFFFFFFFFFFFFFFFFFFFFFF AND PUSH20 0xFFFFFFFFFFFFFFFFFFFFFFFFFFFFFFFFFFFFFFFF AND PUSH4 0xBC6D30EE DUP4 DUP4 PUSH1 0x40 MLOAD DUP4 PUSH4 0xFFFFFFFF AND PUSH1 0xE0 SHL DUP2 MSTORE PUSH1 0x4 ADD PUSH2 0xF8 SWAP3 SWAP2 SWAP1 PUSH2 0x611 JUMP JUMPDEST PUSH1 0x0 PUSH1 0x40 MLOAD DUP1 DUP4 SUB DUP2 PUSH1 0x0 DUP8 DUP1 EXTCODESIZE ISZERO DUP1 ISZERO PUSH2 0x112 JUMPI PUSH1 0x0 DUP1 REVERT JUMPDEST POP GAS CALL ISZERO DUP1 ISZERO PUSH2 0x126 JUMPI RETURNDATASIZE PUSH1 0x0 DUP1 RETURNDATACOPY RETURNDATASIZE PUSH1 0x0 REVERT JUMPDEST POP POP POP POP POP POP JUMP JUMPDEST PUSH1 0x1 DUP2 DUP2 SLOAD DUP2 LT PUSH2 0x13E JUMPI PUSH1 0x0 DUP1 REVERT JUMPDEST SWAP1 PUSH1 0x0 MSTORE PUSH1 0x20 PUSH1 0x0 KECCAK256 SWAP1 PUSH1 0x2 MUL ADD PUSH1 0x0 SWAP2 POP SWAP1 POP DUP1 PUSH1 0x0 ADD PUSH1 0x0 SWAP1 SLOAD SWAP1 PUSH2 0x100 EXP SWAP1 DIV PUSH20 0xFFFFFFFFFFFFFFFFFFFFFFFFFFFFFFFFFFFFFFFF AND SWAP1 DUP1 PUSH1 0x1 ADD DUP1 SLOAD PUSH2 0x187 SWAP1 PUSH2 0x75D JUMP JUMPDEST DUP1 PUSH1 0x1F ADD PUSH1 0x20 DUP1 SWAP2 DIV MUL PUSH1 0x20 ADD PUSH1 0x40 MLOAD SWAP1 DUP2 ADD PUSH1 0x40 MSTORE DUP1 SWAP3 SWAP2 SWAP1 DUP2 DUP2 MSTORE PUSH1 0x20 ADD DUP3 DUP1 SLOAD PUSH2 0x1B3 SWAP1 PUSH2 0x75D JUMP JUMPDEST DUP1 ISZERO PUSH2 0x200 JUMPI DUP1 PUSH1 0x1F LT PUSH2 0x1D5 JUMPI PUSH2 0x100 DUP1 DUP4 SLOAD DIV MUL DUP4 MSTORE SWAP2 PUSH1 0x20 ADD SWAP2 PUSH2 0x200 JUMP JUMPDEST DUP3 ADD SWAP2 SWAP1 PUSH1 0x0 MSTORE PUSH1 0x20 PUSH1 0x0 KECCAK256 SWAP1 JUMPDEST DUP2 SLOAD DUP2 MSTORE SWAP1 PUSH1 0x1 ADD SWAP1 PUSH1 0x20 ADD DUP1 DUP4 GT PUSH2 0x1E3 JUMPI DUP3 SWAP1 SUB PUSH1 0x1F AND DUP3 ADD SWAP2 JUMPDEST POP POP POP POP POP SWAP1 POP DUP3 JUMP JUMPDEST PUSH1 0x0 DUP1 SLOAD SWAP1 PUSH2 0x100 EXP SWAP1 DIV PUSH20 0xFFFFFFFFFFFFFFFFFFFFFFFFFFFFFFFFFFFFFFFF AND PUSH20 0xFFFFFFFFFFFFFFFFFFFFFFFFFFFFFFFFFFFFFFFF AND PUSH4 0x942B765A PUSH1 0x40 MLOAD DUP2 PUSH4 0xFFFFFFFF AND PUSH1 0xE0 SHL DUP2 MSTORE PUSH1 0x4 ADD PUSH1 0x0 PUSH1 0x40 MLOAD DUP1 DUP4 SUB DUP2 DUP7 DUP1 EXTCODESIZE ISZERO DUP1 ISZERO PUSH2 0x270 JUMPI PUSH1 0x0 DUP1 REVERT JUMPDEST POP GAS STATICCALL ISZERO DUP1 ISZERO PUSH2 0x284 JUMPI RETURNDATASIZE PUSH1 0x0 DUP1 RETURNDATACOPY RETURNDATASIZE PUSH1 0x0 REVERT JUMPDEST POP POP POP POP PUSH1 0x40 MLOAD RETURNDATASIZE PUSH1 0x0 DUP3 RETURNDATACOPY RETURNDATASIZE PUSH1 0x1F NOT PUSH1 0x1F DUP3 ADD AND DUP3 ADD DUP1 PUSH1 0x40 MSTORE POP DUP2 ADD SWAP1 PUSH2 0x2AD SWAP2 SWAP1 PUSH2 0x553 JUMP JUMPDEST POP JUMP JUMPDEST PUSH1 0x0 PUSH2 0x2C3 PUSH2 0x2BE DUP5 PUSH2 0x666 JUMP JUMPDEST PUSH2 0x641 JUMP JUMPDEST SWAP1 POP DUP1 DUP4 DUP3 MSTORE PUSH1 0x20 DUP3 ADD SWAP1 POP DUP3 DUP6 PUSH1 0x20 DUP7 MUL DUP3 ADD GT ISZERO PUSH2 0x2E6 JUMPI PUSH2 0x2E5 PUSH2 0x82D JUMP JUMPDEST JUMPDEST PUSH1 0x0 JUMPDEST DUP6 DUP2 LT ISZERO PUSH2 0x334 JUMPI DUP2 MLOAD PUSH8 0xFFFFFFFFFFFFFFFF DUP2 GT ISZERO PUSH2 0x30C JUMPI PUSH2 0x30B PUSH2 0x81E JUMP JUMPDEST JUMPDEST DUP1 DUP7 ADD PUSH2 0x319 DUP10 DUP3 PUSH2 0x476 JUMP JUMPDEST DUP6 MSTORE PUSH1 0x20 DUP6 ADD SWAP5 POP PUSH1 0x20 DUP5 ADD SWAP4 POP POP POP PUSH1 0x1 DUP2 ADD SWAP1 POP PUSH2 0x2E9 JUMP JUMPDEST POP POP POP SWAP4 SWAP3 POP POP POP JUMP JUMPDEST PUSH1 0x0 PUSH2 0x351 PUSH2 0x34C DUP5 PUSH2 0x692 JUMP JUMPDEST PUSH2 0x641 JUMP JUMPDEST SWAP1 POP DUP3 DUP2 MSTORE PUSH1 0x20 DUP2 ADD DUP5 DUP5 DUP5 ADD GT ISZERO PUSH2 0x36D JUMPI PUSH2 0x36C PUSH2 0x832 JUMP JUMPDEST JUMPDEST PUSH2 0x378 DUP5 DUP3 DUP6 PUSH2 0x71B JUMP JUMPDEST POP SWAP4 SWAP3 POP POP POP JUMP JUMPDEST PUSH1 0x0 PUSH2 0x393 PUSH2 0x38E DUP5 PUSH2 0x692 JUMP JUMPDEST PUSH2 0x641 JUMP JUMPDEST SWAP1 POP DUP3 DUP2 MSTORE PUSH1 0x20 DUP2 ADD DUP5 DUP5 DUP5 ADD GT ISZERO PUSH2 0x3AF JUMPI PUSH2 0x3AE PUSH2 0x832 JUMP JUMPDEST JUMPDEST PUSH2 0x3BA DUP5 DUP3 DUP6 PUSH2 0x72A JUMP JUMPDEST POP SWAP4 SWAP3 POP POP POP JUMP JUMPDEST PUSH1 0x0 DUP2 CALLDATALOAD SWAP1 POP PUSH2 0x3D1 DUP2 PUSH2 0x852 JUMP JUMPDEST SWAP3 SWAP2 POP POP JUMP JUMPDEST PUSH1 0x0 DUP2 MLOAD SWAP1 POP PUSH2 0x3E6 DUP2 PUSH2 0x852 JUMP JUMPDEST SWAP3 SWAP2 POP POP JUMP JUMPDEST PUSH1 0x0 DUP3 PUSH1 0x1F DUP4 ADD SLT PUSH2 0x401 JUMPI PUSH2 0x400 PUSH2 0x81E JUMP JUMPDEST JUMPDEST DUP2 MLOAD PUSH2 0x411 DUP5 DUP3 PUSH1 0x20 DUP7 ADD PUSH2 0x2B0 JUMP JUMPDEST SWAP2 POP POP SWAP3 SWAP2 POP POP JUMP JUMPDEST PUSH1 0x0 DUP3 PUSH1 0x1F DUP4 ADD SLT PUSH2 0x42F JUMPI PUSH2 0x42E PUSH2 0x81E JUMP JUMPDEST JUMPDEST DUP2 CALLDATALOAD PUSH2 0x43F DUP5 DUP3 PUSH1 0x20 DUP7 ADD PUSH2 0x33E JUMP JUMPDEST SWAP2 POP POP SWAP3 SWAP2 POP POP JUMP JUMPDEST PUSH1 0x0 DUP3 PUSH1 0x1F DUP4 ADD SLT PUSH2 0x45D JUMPI PUSH2 0x45C PUSH2 0x81E JUMP JUMPDEST JUMPDEST DUP2 MLOAD PUSH2 0x46D DUP5 DUP3 PUSH1 0x20 DUP7 ADD PUSH2 0x380 JUMP JUMPDEST SWAP2 POP POP SWAP3 SWAP2 POP POP JUMP JUMPDEST PUSH1 0x0 PUSH1 0x40 DUP3 DUP5 SUB SLT ISZERO PUSH2 0x48C JUMPI PUSH2 0x48B PUSH2 0x823 JUMP JUMPDEST JUMPDEST PUSH2 0x496 PUSH1 0x40 PUSH2 0x641 JUMP JUMPDEST SWAP1 POP PUSH1 0x0 PUSH2 0x4A6 DUP5 DUP3 DUP6 ADD PUSH2 0x3D7 JUMP JUMPDEST PUSH1 0x0 DUP4 ADD MSTORE POP PUSH1 0x20 DUP3 ADD MLOAD PUSH8 0xFFFFFFFFFFFFFFFF DUP2 GT ISZERO PUSH2 0x4CA JUMPI PUSH2 0x4C9 PUSH2 0x828 JUMP JUMPDEST JUMPDEST PUSH2 0x4D6 DUP5 DUP3 DUP6 ADD PUSH2 0x448 JUMP JUMPDEST PUSH1 0x20 DUP4 ADD MSTORE POP SWAP3 SWAP2 POP POP JUMP JUMPDEST PUSH1 0x0 DUP2 CALLDATALOAD SWAP1 POP PUSH2 0x4F1 DUP2 PUSH2 0x869 JUMP JUMPDEST SWAP3 SWAP2 POP POP JUMP JUMPDEST PUSH1 0x0 DUP1 PUSH1 0x40 DUP4 DUP6 SUB SLT ISZERO PUSH2 0x50E JUMPI PUSH2 0x50D PUSH2 0x83C JUMP JUMPDEST JUMPDEST PUSH1 0x0 PUSH2 0x51C DUP6 DUP3 DUP7 ADD PUSH2 0x3C2 JUMP JUMPDEST SWAP3 POP POP PUSH1 0x20 DUP4 ADD CALLDATALOAD PUSH8 0xFFFFFFFFFFFFFFFF DUP2 GT ISZERO PUSH2 0x53D JUMPI PUSH2 0x53C PUSH2 0x837 JUMP JUMPDEST JUMPDEST PUSH2 0x549 DUP6 DUP3 DUP7 ADD PUSH2 0x41A JUMP JUMPDEST SWAP2 POP POP SWAP3 POP SWAP3 SWAP1 POP JUMP JUMPDEST PUSH1 0x0 PUSH1 0x20 DUP3 DUP5 SUB SLT ISZERO PUSH2 0x569 JUMPI PUSH2 0x568 PUSH2 0x83C JUMP JUMPDEST JUMPDEST PUSH1 0x0 DUP3 ADD MLOAD PUSH8 0xFFFFFFFFFFFFFFFF DUP2 GT ISZERO PUSH2 0x587 JUMPI PUSH2 0x586 PUSH2 0x837 JUMP JUMPDEST JUMPDEST PUSH2 0x593 DUP5 DUP3 DUP6 ADD PUSH2 0x3EC JUMP JUMPDEST SWAP2 POP POP SWAP3 SWAP2 POP POP JUMP JUMPDEST PUSH1 0x0 PUSH1 0x20 DUP3 DUP5 SUB SLT ISZERO PUSH2 0x5B2 JUMPI PUSH2 0x5B1 PUSH2 0x83C JUMP JUMPDEST JUMPDEST PUSH1 0x0 PUSH2 0x5C0 DUP5 DUP3 DUP6 ADD PUSH2 0x4E2 JUMP JUMPDEST SWAP2 POP POP SWAP3 SWAP2 POP POP JUMP JUMPDEST PUSH2 0x5D2 DUP2 PUSH2 0x6DF JUMP JUMPDEST DUP3 MSTORE POP POP JUMP JUMPDEST PUSH1 0x0 PUSH2 0x5E3 DUP3 PUSH2 0x6C3 JUMP JUMPDEST PUSH2 0x5ED DUP2 DUP6 PUSH2 0x6CE JUMP JUMPDEST SWAP4 POP PUSH2 0x5FD DUP2 DUP6 PUSH1 0x20 DUP7 ADD PUSH2 0x72A JUMP JUMPDEST PUSH2 0x606 DUP2 PUSH2 0x841 JUMP JUMPDEST DUP5 ADD SWAP2 POP POP SWAP3 SWAP2 POP POP JUMP JUMPDEST PUSH1 0x0 PUSH1 0x40 DUP3 ADD SWAP1 POP PUSH2 0x626 PUSH1 0x0 DUP4 ADD DUP6 PUSH2 0x5C9 JUMP JUMPDEST DUP2 DUP2 SUB PUSH1 0x20 DUP4 ADD MSTORE PUSH2 0x638 DUP2 DUP5 PUSH2 0x5D8 JUMP JUMPDEST SWAP1 POP SWAP4 SWAP3 POP POP POP JUMP JUMPDEST PUSH1 0x0 PUSH2 0x64B PUSH2 0x65C JUMP JUMPDEST SWAP1 POP PUSH2 0x657 DUP3 DUP3 PUSH2 0x78F JUMP JUMPDEST SWAP2 SWAP1 POP JUMP JUMPDEST PUSH1 0x0 PUSH1 0x40 MLOAD SWAP1 POP SWAP1 JUMP JUMPDEST PUSH1 0x0 PUSH8 0xFFFFFFFFFFFFFFFF DUP3 GT ISZERO PUSH2 0x681 JUMPI PUSH2 0x680 PUSH2 0x7EF JUMP JUMPDEST JUMPDEST PUSH1 0x20 DUP3 MUL SWAP1 POP PUSH1 0x20 DUP2 ADD SWAP1 POP SWAP2 SWAP1 POP JUMP JUMPDEST PUSH1 0x0 PUSH8 0xFFFFFFFFFFFFFFFF DUP3 GT ISZERO PUSH2 0x6AD JUMPI PUSH2 0x6AC PUSH2 0x7EF JUMP JUMPDEST JUMPDEST PUSH2 0x6B6 DUP3 PUSH2 0x841 JUMP JUMPDEST SWAP1 POP PUSH1 0x20 DUP2 ADD SWAP1 POP SWAP2 SWAP1 POP JUMP JUMPDEST PUSH1 0x0 DUP2 MLOAD SWAP1 POP SWAP2 SWAP1 POP JUMP JUMPDEST PUSH1 0x0 DUP3 DUP3 MSTORE PUSH1 0x20 DUP3 ADD SWAP1 POP SWAP3 SWAP2 POP POP JUMP JUMPDEST PUSH1 0x0 PUSH2 0x6EA DUP3 PUSH2 0x6F1 JUMP JUMPDEST SWAP1 POP SWAP2 SWAP1 POP JUMP JUMPDEST PUSH1 0x0 PUSH20 0xFFFFFFFFFFFFFFFFFFFFFFFFFFFFFFFFFFFFFFFF DUP3 AND SWAP1 POP SWAP2 SWAP1 POP JUMP JUMPDEST PUSH1 0x0 DUP2 SWAP1 POP SWAP2 SWAP1 POP JUMP JUMPDEST DUP3 DUP2 DUP4 CALLDATACOPY PUSH1 0x0 DUP4 DUP4 ADD MSTORE POP POP POP JUMP JUMPDEST PUSH1 0x0 JUMPDEST DUP4 DUP2 LT ISZERO PUSH2 0x748 JUMPI DUP1 DUP3 ADD MLOAD DUP2 DUP5 ADD MSTORE PUSH1 0x20 DUP2 ADD SWAP1 POP PUSH2 0x72D JUMP JUMPDEST DUP4 DUP2 GT ISZERO PUSH2 0x757 JUMPI PUSH1 0x0 DUP5 DUP5 ADD MSTORE JUMPDEST POP POP POP POP JUMP JUMPDEST PUSH1 0x0 PUSH1 0x2 DUP3 DIV SWAP1 POP PUSH1 0x1 DUP3 AND DUP1 PUSH2 0x775 JUMPI PUSH1 0x7F DUP3 AND SWAP2 POP JUMPDEST PUSH1 0x20 DUP3 LT DUP2 EQ ISZERO PUSH2 0x789 JUMPI PUSH2 0x788 PUSH2 0x7C0 JUMP JUMPDEST JUMPDEST POP SWAP2 SWAP1 POP JUMP JUMPDEST PUSH2 0x798 DUP3 PUSH2 0x841 JUMP JUMPDEST DUP2 ADD DUP2 DUP2 LT PUSH8 0xFFFFFFFFFFFFFFFF DUP3 GT OR ISZERO PUSH2 0x7B7 JUMPI PUSH2 0x7B6 PUSH2 0x7EF JUMP JUMPDEST JUMPDEST DUP1 PUSH1 0x40 MSTORE POP POP POP JUMP JUMPDEST PUSH32 0x4E487B7100000000000000000000000000000000000000000000000000000000 PUSH1 0x0 MSTORE PUSH1 0x22 PUSH1 0x4 MSTORE PUSH1 0x24 PUSH1 0x0 REVERT JUMPDEST PUSH32 0x4E487B7100000000000000000000000000000000000000000000000000000000 PUSH1 0x0 MSTORE PUSH1 0x41 PUSH1 0x4 MSTORE PUSH1 0x24 PUSH1 0x0 REVERT JUMPDEST PUSH1 0x0 DUP1 REVERT JUMPDEST PUSH1 0x0 DUP1 REVERT JUMPDEST PUSH1 0x0 DUP1 REVERT JUMPDEST PUSH1 0x0 DUP1 REVERT JUMPDEST PUSH1 0x0 DUP1 REVERT JUMPDEST PUSH1 0x0 DUP1 REVERT JUMPDEST PUSH1 0x0 DUP1 REVERT JUMPDEST PUSH1 0x0 PUSH1 0x1F NOT PUSH1 0x1F DUP4 ADD AND SWAP1 POP SWAP2 SWAP1 POP JUMP JUMPDEST PUSH2 0x85B DUP2 PUSH2 0x6DF JUMP JUMPDEST DUP2 EQ PUSH2 0x866 JUMPI PUSH1 0x0 DUP1 REVERT JUMPDEST POP JUMP JUMPDEST PUSH2 0x872 DUP2 PUSH2 0x711 JUMP JUMPDEST DUP2 EQ PUSH2 0x87D JUMPI PUSH1 0x0 DUP1 REVERT JUMPDEST POP JUMP INVALID LOG2 PUSH5 0x6970667358 0x22 SLT KECCAK256 0x4B 0x4D PUSH16 0x73237C6EAC375F7F25115CEAEF518470 0xBC 0xC6 JUMP 0xD5 PUSH10 0xB89F50944267E1E76473 PUSH16 0x6C634300080700330000000000000000 "
				},
				"gasEstimates": {
					"creation": {
						"codeDepositCost": "446000",
						"executionCost": "480",
						"totalCost": "446480"
					},
					"external": {
						"addTask2(address,string)": "infinite",
						"getList2()": "infinite",
						"list(uint256)": "infinite"
					}
				},
				"methodIdentifiers": {
					"addTask2(address,string)": "6f1c2f26",
					"getList2()": "84b0befc",
					"list(uint256)": "80c9419e"
				}
			},
			"storageLayout": {
				"storage": [
					{
						"astId": 41,
						"contract": "todoList.sol:TodoList",
						"label": "todoList",
						"offset": 0,
						"slot": "0",
						"type": "t_contract(TodoListData)38"
					},
					{
						"astId": 50,
						"contract": "todoList.sol:TodoList",
						"label": "list",
						"offset": 0,
						"slot": "1",
						"type": "t_array(t_struct(Task)46_storage)dyn_storage"
					}
				],
				"types": {
					"t_address": {
						"encoding": "inplace",
						"label": "address",
						"numberOfBytes": "20"
					},
					"t_array(t_struct(Task)46_storage)dyn_storage": {
						"base": "t_struct(Task)46_storage",
						"encoding": "dynamic_array",
						"label": "struct TodoList.Task[]",
						"numberOfBytes": "32"
					},
					"t_contract(TodoListData)38": {
						"encoding": "inplace",
						"label": "contract TodoListData",
						"numberOfBytes": "20"
					},
					"t_string_storage": {
						"encoding": "bytes",
						"label": "string",
						"numberOfBytes": "32"
					},
					"t_struct(Task)46_storage": {
						"encoding": "inplace",
						"label": "struct TodoList.Task",
						"members": [
							{
								"astId": 43,
								"contract": "todoList.sol:TodoList",
								"label": "adr",
								"offset": 0,
								"slot": "0",
								"type": "t_address"
							},
							{
								"astId": 45,
								"contract": "todoList.sol:TodoList",
								"label": "value",
								"offset": 0,
								"slot": "1",
								"type": "t_string_storage"
							}
						],
						"numberOfBytes": "64"
					}
				}
			},
			"userdoc": {
				"kind": "user",
				"methods": {},
				"version": 1
			}
		}
	}
}