{
	"todoList.sol": {
		"TodoListData": {
			"abi": [
				{
					"inputs": [
						{
							"internalType": "address",
							"name": "adr",
							"type": "address"
						},
						{
							"internalType": "string",
							"name": "_val",
							"type": "string"
						}
					],
					"name": "addTask",
					"outputs": [],
					"stateMutability": "nonpayable",
					"type": "function"
				},
				{
					"inputs": [],
					"name": "getList",
					"outputs": [
						{
							"components": [
								{
									"internalType": "address",
									"name": "adr",
									"type": "address"
								},
								{
									"internalType": "string",
									"name": "value",
									"type": "string"
								}
							],
							"internalType": "struct TodoListData.Task[]",
							"name": "",
							"type": "tuple[]"
						}
					],
					"stateMutability": "view",
					"type": "function"
				},
				{
					"inputs": [
						{
							"internalType": "uint256",
							"name": "",
							"type": "uint256"
						}
					],
					"name": "list",
					"outputs": [
						{
							"internalType": "address",
							"name": "adr",
							"type": "address"
						},
						{
							"internalType": "string",
							"name": "value",
							"type": "string"
						}
					],
					"stateMutability": "view",
					"type": "function"
				}
			],
			"devdoc": {
				"kind": "dev",
				"methods": {},
				"version": 1
			},
			"evm": {
				"assembly": "    /* \"todoList.sol\":61:390  contract TodoListData {\r... */\n  mstore(0x40, 0x80)\n  callvalue\n  dup1\n  iszero\n  tag_1\n  jumpi\n  0x00\n  dup1\n  revert\ntag_1:\n  pop\n  dataSize(sub_0)\n  dup1\n  dataOffset(sub_0)\n  0x00\n  codecopy\n  0x00\n  return\nstop\n\nsub_0: assembly {\n        /* \"todoList.sol\":61:390  contract TodoListData {\r... */\n      mstore(0x40, 0x80)\n      callvalue\n      dup1\n      iszero\n      tag_1\n      jumpi\n      0x00\n      dup1\n      revert\n    tag_1:\n      pop\n      jumpi(tag_2, lt(calldatasize, 0x04))\n      shr(0xe0, calldataload(0x00))\n      dup1\n      0x80c9419e\n      eq\n      tag_3\n      jumpi\n      dup1\n      0x942b765a\n      eq\n      tag_4\n      jumpi\n      dup1\n      0xbc6d30ee\n      eq\n      tag_5\n      jumpi\n    tag_2:\n      0x00\n      dup1\n      revert\n        /* \"todoList.sol\":163:181  Task[] public list */\n    tag_3:\n      tag_6\n      0x04\n      dup1\n      calldatasize\n      sub\n      dup2\n      add\n      swap1\n      tag_7\n      swap2\n      swap1\n      tag_8\n      jump\t// in\n    tag_7:\n      tag_9\n      jump\t// in\n    tag_6:\n      mload(0x40)\n      tag_10\n      swap3\n      swap2\n      swap1\n      tag_11\n      jump\t// in\n    tag_10:\n      mload(0x40)\n      dup1\n      swap2\n      sub\n      swap1\n      return\n        /* \"todoList.sol\":301:387  function getList () public view returns (Task[] memory) {\r... */\n    tag_4:\n      tag_12\n      tag_13\n      jump\t// in\n    tag_12:\n      mload(0x40)\n      tag_14\n      swap2\n      swap1\n      tag_15\n      jump\t// in\n    tag_14:\n      mload(0x40)\n      dup1\n      swap2\n      sub\n      swap1\n      return\n        /* \"todoList.sol\":190:293  function addTask(address adr, string memory _val) external {\r... */\n    tag_5:\n      tag_16\n      0x04\n      dup1\n      calldatasize\n      sub\n      dup2\n      add\n      swap1\n      tag_17\n      swap2\n      swap1\n      tag_18\n      jump\t// in\n    tag_17:\n      tag_19\n      jump\t// in\n    tag_16:\n      stop\n        /* \"todoList.sol\":163:181  Task[] public list */\n    tag_9:\n      0x00\n      dup2\n      dup2\n      sload\n      dup2\n      lt\n      tag_20\n      jumpi\n      0x00\n      dup1\n      revert\n    tag_20:\n      swap1\n      0x00\n      mstore\n      keccak256(0x00, 0x20)\n      swap1\n      0x02\n      mul\n      add\n      0x00\n      swap2\n      pop\n      swap1\n      pop\n      dup1\n      0x00\n      add\n      0x00\n      swap1\n      sload\n      swap1\n      0x0100\n      exp\n      swap1\n      div\n      0xffffffffffffffffffffffffffffffffffffffff\n      and\n      swap1\n      dup1\n      0x01\n      add\n      dup1\n      sload\n      tag_22\n      swap1\n      tag_23\n      jump\t// in\n    tag_22:\n      dup1\n      0x1f\n      add\n      0x20\n      dup1\n      swap2\n      div\n      mul\n      0x20\n      add\n      mload(0x40)\n      swap1\n      dup2\n      add\n      0x40\n      mstore\n      dup1\n      swap3\n      swap2\n      swap1\n      dup2\n      dup2\n      mstore\n      0x20\n      add\n      dup3\n      dup1\n      sload\n      tag_24\n      swap1\n      tag_23\n      jump\t// in\n    tag_24:\n      dup1\n      iszero\n      tag_25\n      jumpi\n      dup1\n      0x1f\n      lt\n      tag_26\n      jumpi\n      0x0100\n      dup1\n      dup4\n      sload\n      div\n      mul\n      dup4\n      mstore\n      swap2\n      0x20\n      add\n      swap2\n      jump(tag_25)\n    tag_26:\n      dup3\n      add\n      swap2\n      swap1\n      0x00\n      mstore\n      keccak256(0x00, 0x20)\n      swap1\n    tag_27:\n      dup2\n      sload\n      dup2\n      mstore\n      swap1\n      0x01\n      add\n      swap1\n      0x20\n      add\n      dup1\n      dup4\n      gt\n      tag_27\n      jumpi\n      dup3\n      swap1\n      sub\n      0x1f\n      and\n      dup3\n      add\n      swap2\n    tag_25:\n      pop\n      pop\n      pop\n      pop\n      pop\n      swap1\n      pop\n      dup3\n      jump\t// out\n        /* \"todoList.sol\":301:387  function getList () public view returns (Task[] memory) {\r... */\n    tag_13:\n        /* \"todoList.sol\":342:355  Task[] memory */\n      0x60\n        /* \"todoList.sol\":375:379  list */\n      0x00\n        /* \"todoList.sol\":368:379  return list */\n      dup1\n      sload\n      dup1\n      0x20\n      mul\n      0x20\n      add\n      mload(0x40)\n      swap1\n      dup2\n      add\n      0x40\n      mstore\n      dup1\n      swap3\n      swap2\n      swap1\n      dup2\n      dup2\n      mstore\n      0x20\n      add\n      0x00\n      swap1\n    tag_29:\n      dup3\n      dup3\n      lt\n      iszero\n      tag_30\n      jumpi\n      dup4\n      dup3\n      swap1\n      0x00\n      mstore\n      keccak256(0x00, 0x20)\n      swap1\n      0x02\n      mul\n      add\n      mload(0x40)\n      dup1\n      0x40\n      add\n      0x40\n      mstore\n      swap1\n      dup2\n      0x00\n      dup3\n      add\n      0x00\n      swap1\n      sload\n      swap1\n      0x0100\n      exp\n      swap1\n      div\n      0xffffffffffffffffffffffffffffffffffffffff\n      and\n      0xffffffffffffffffffffffffffffffffffffffff\n      and\n      0xffffffffffffffffffffffffffffffffffffffff\n      and\n      dup2\n      mstore\n      0x20\n      add\n      0x01\n      dup3\n      add\n      dup1\n      sload\n      tag_32\n      swap1\n      tag_23\n      jump\t// in\n    tag_32:\n      dup1\n      0x1f\n      add\n      0x20\n      dup1\n      swap2\n      div\n      mul\n      0x20\n      add\n      mload(0x40)\n      swap1\n      dup2\n      add\n      0x40\n      mstore\n      dup1\n      swap3\n      swap2\n      swap1\n      dup2\n      dup2\n      mstore\n      0x20\n      add\n      dup3\n      dup1\n      sload\n      tag_33\n      swap1\n      tag_23\n      jump\t// in\n    tag_33:\n      dup1\n      iszero\n      tag_34\n      jumpi\n      dup1\n      0x1f\n      lt\n      tag_35\n      jumpi\n      0x0100\n      dup1\n      dup4\n      sload\n      div\n      mul\n      dup4\n      mstore\n      swap2\n      0x20\n      add\n      swap2\n      jump(tag_34)\n    tag_35:\n      dup3\n      add\n      swap2\n      swap1\n      0x00\n      mstore\n      keccak256(0x00, 0x20)\n      swap1\n    tag_36:\n      dup2\n      sload\n      dup2\n      mstore\n      swap1\n      0x01\n      add\n      swap1\n      0x20\n      add\n      dup1\n      dup4\n      gt\n      tag_36\n      jumpi\n      dup3\n      swap1\n      sub\n      0x1f\n      and\n      dup3\n      add\n      swap2\n    tag_34:\n      pop\n      pop\n      pop\n      pop\n      pop\n      dup2\n      mstore\n      pop\n      pop\n      dup2\n      mstore\n      0x20\n      add\n      swap1\n      0x01\n      add\n      swap1\n      jump(tag_29)\n    tag_30:\n      pop\n      pop\n      pop\n      pop\n      swap1\n      pop\n        /* \"todoList.sol\":301:387  function getList () public view returns (Task[] memory) {\r... */\n      swap1\n      jump\t// out\n        /* \"todoList.sol\":190:293  function addTask(address adr, string memory _val) external {\r... */\n    tag_19:\n        /* \"todoList.sol\":260:264  list */\n      0x00\n        /* \"todoList.sol\":270:284  Task(adr,_val) */\n      mload(0x40)\n      dup1\n      0x40\n      add\n      0x40\n      mstore\n      dup1\n        /* \"todoList.sol\":275:278  adr */\n      dup5\n        /* \"todoList.sol\":270:284  Task(adr,_val) */\n      0xffffffffffffffffffffffffffffffffffffffff\n      and\n      dup2\n      mstore\n      0x20\n      add\n        /* \"todoList.sol\":279:283  _val */\n      dup4\n        /* \"todoList.sol\":270:284  Task(adr,_val) */\n      dup2\n      mstore\n      pop\n        /* \"todoList.sol\":260:285  list.push(Task(adr,_val)) */\n      swap1\n      dup1\n      0x01\n      dup2\n      sload\n      add\n      dup1\n      dup3\n      sstore\n      dup1\n      swap2\n      pop\n      pop\n      0x01\n      swap1\n      sub\n      swap1\n      0x00\n      mstore\n      keccak256(0x00, 0x20)\n      swap1\n      0x02\n      mul\n      add\n      0x00\n      swap1\n      swap2\n      swap1\n      swap2\n      swap1\n      swap2\n      pop\n      0x00\n      dup3\n      add\n      mload\n      dup2\n      0x00\n      add\n      exp(0x0100, 0x00)\n      dup2\n      sload\n      dup2\n      0xffffffffffffffffffffffffffffffffffffffff\n      mul\n      not\n      and\n      swap1\n      dup4\n      0xffffffffffffffffffffffffffffffffffffffff\n      and\n      mul\n      or\n      swap1\n      sstore\n      pop\n      0x20\n      dup3\n      add\n      mload\n      dup2\n      0x01\n      add\n      swap1\n      dup1\n      mload\n      swap1\n      0x20\n      add\n      swap1\n      tag_39\n      swap3\n      swap2\n      swap1\n      tag_40\n      jump\t// in\n    tag_39:\n      pop\n      pop\n      pop\n        /* \"todoList.sol\":190:293  function addTask(address adr, string memory _val) external {\r... */\n      pop\n      pop\n      jump\t// out\n    tag_40:\n      dup3\n      dup1\n      sload\n      tag_41\n      swap1\n      tag_23\n      jump\t// in\n    tag_41:\n      swap1\n      0x00\n      mstore\n      keccak256(0x00, 0x20)\n      swap1\n      0x1f\n      add\n      0x20\n      swap1\n      div\n      dup2\n      add\n      swap3\n      dup3\n      tag_43\n      jumpi\n      0x00\n      dup6\n      sstore\n      jump(tag_42)\n    tag_43:\n      dup3\n      0x1f\n      lt\n      tag_44\n      jumpi\n      dup1\n      mload\n      not(0xff)\n      and\n      dup4\n      dup1\n      add\n      or\n      dup6\n      sstore\n      jump(tag_42)\n    tag_44:\n      dup3\n      dup1\n      add\n      0x01\n      add\n      dup6\n      sstore\n      dup3\n      iszero\n      tag_42\n      jumpi\n      swap2\n      dup3\n      add\n    tag_45:\n      dup3\n      dup2\n      gt\n      iszero\n      tag_46\n      jumpi\n      dup3\n      mload\n      dup3\n      sstore\n      swap2\n      0x20\n      add\n      swap2\n      swap1\n      0x01\n      add\n      swap1\n      jump(tag_45)\n    tag_46:\n    tag_42:\n      pop\n      swap1\n      pop\n      tag_47\n      swap2\n      swap1\n      tag_48\n      jump\t// in\n    tag_47:\n      pop\n      swap1\n      jump\t// out\n    tag_48:\n    tag_49:\n      dup1\n      dup3\n      gt\n      iszero\n      tag_50\n      jumpi\n      0x00\n      dup2\n      0x00\n      swap1\n      sstore\n      pop\n      0x01\n      add\n      jump(tag_49)\n    tag_50:\n      pop\n      swap1\n      jump\t// out\n        /* \"#utility.yul\":7:419   */\n    tag_52:\n        /* \"#utility.yul\":85:90   */\n      0x00\n        /* \"#utility.yul\":110:176   */\n      tag_54\n        /* \"#utility.yul\":126:175   */\n      tag_55\n        /* \"#utility.yul\":168:174   */\n      dup5\n        /* \"#utility.yul\":126:175   */\n      tag_56\n      jump\t// in\n    tag_55:\n        /* \"#utility.yul\":110:176   */\n      tag_57\n      jump\t// in\n    tag_54:\n        /* \"#utility.yul\":101:176   */\n      swap1\n      pop\n        /* \"#utility.yul\":199:205   */\n      dup3\n        /* \"#utility.yul\":192:197   */\n      dup2\n        /* \"#utility.yul\":185:206   */\n      mstore\n        /* \"#utility.yul\":237:241   */\n      0x20\n        /* \"#utility.yul\":230:235   */\n      dup2\n        /* \"#utility.yul\":226:242   */\n      add\n        /* \"#utility.yul\":275:278   */\n      dup5\n        /* \"#utility.yul\":266:272   */\n      dup5\n        /* \"#utility.yul\":261:264   */\n      dup5\n        /* \"#utility.yul\":257:273   */\n      add\n        /* \"#utility.yul\":254:279   */\n      gt\n        /* \"#utility.yul\":251:363   */\n      iszero\n      tag_58\n      jumpi\n        /* \"#utility.yul\":282:361   */\n      tag_59\n      tag_60\n      jump\t// in\n    tag_59:\n        /* \"#utility.yul\":251:363   */\n    tag_58:\n        /* \"#utility.yul\":372:413   */\n      tag_61\n        /* \"#utility.yul\":406:412   */\n      dup5\n        /* \"#utility.yul\":401:404   */\n      dup3\n        /* \"#utility.yul\":396:399   */\n      dup6\n        /* \"#utility.yul\":372:413   */\n      tag_62\n      jump\t// in\n    tag_61:\n        /* \"#utility.yul\":91:419   */\n      pop\n        /* \"#utility.yul\":7:419   */\n      swap4\n      swap3\n      pop\n      pop\n      pop\n      jump\t// out\n        /* \"#utility.yul\":425:564   */\n    tag_63:\n        /* \"#utility.yul\":471:476   */\n      0x00\n        /* \"#utility.yul\":509:515   */\n      dup2\n        /* \"#utility.yul\":496:516   */\n      calldataload\n        /* \"#utility.yul\":487:516   */\n      swap1\n      pop\n        /* \"#utility.yul\":525:558   */\n      tag_65\n        /* \"#utility.yul\":552:557   */\n      dup2\n        /* \"#utility.yul\":525:558   */\n      tag_66\n      jump\t// in\n    tag_65:\n        /* \"#utility.yul\":425:564   */\n      swap3\n      swap2\n      pop\n      pop\n      jump\t// out\n        /* \"#utility.yul\":584:924   */\n    tag_67:\n        /* \"#utility.yul\":640:645   */\n      0x00\n        /* \"#utility.yul\":689:692   */\n      dup3\n        /* \"#utility.yul\":682:686   */\n      0x1f\n        /* \"#utility.yul\":674:680   */\n      dup4\n        /* \"#utility.yul\":670:687   */\n      add\n        /* \"#utility.yul\":666:693   */\n      slt\n        /* \"#utility.yul\":656:778   */\n      tag_69\n      jumpi\n        /* \"#utility.yul\":697:776   */\n      tag_70\n      tag_71\n      jump\t// in\n    tag_70:\n        /* \"#utility.yul\":656:778   */\n    tag_69:\n        /* \"#utility.yul\":814:820   */\n      dup2\n        /* \"#utility.yul\":801:821   */\n      calldataload\n        /* \"#utility.yul\":839:918   */\n      tag_72\n        /* \"#utility.yul\":914:917   */\n      dup5\n        /* \"#utility.yul\":906:912   */\n      dup3\n        /* \"#utility.yul\":899:903   */\n      0x20\n        /* \"#utility.yul\":891:897   */\n      dup7\n        /* \"#utility.yul\":887:904   */\n      add\n        /* \"#utility.yul\":839:918   */\n      tag_52\n      jump\t// in\n    tag_72:\n        /* \"#utility.yul\":830:918   */\n      swap2\n      pop\n        /* \"#utility.yul\":646:924   */\n      pop\n        /* \"#utility.yul\":584:924   */\n      swap3\n      swap2\n      pop\n      pop\n      jump\t// out\n        /* \"#utility.yul\":930:1069   */\n    tag_73:\n        /* \"#utility.yul\":976:981   */\n      0x00\n        /* \"#utility.yul\":1014:1020   */\n      dup2\n        /* \"#utility.yul\":1001:1021   */\n      calldataload\n        /* \"#utility.yul\":992:1021   */\n      swap1\n      pop\n        /* \"#utility.yul\":1030:1063   */\n      tag_75\n        /* \"#utility.yul\":1057:1062   */\n      dup2\n        /* \"#utility.yul\":1030:1063   */\n      tag_76\n      jump\t// in\n    tag_75:\n        /* \"#utility.yul\":930:1069   */\n      swap3\n      swap2\n      pop\n      pop\n      jump\t// out\n        /* \"#utility.yul\":1075:1729   */\n    tag_18:\n        /* \"#utility.yul\":1153:1159   */\n      0x00\n        /* \"#utility.yul\":1161:1167   */\n      dup1\n        /* \"#utility.yul\":1210:1212   */\n      0x40\n        /* \"#utility.yul\":1198:1207   */\n      dup4\n        /* \"#utility.yul\":1189:1196   */\n      dup6\n        /* \"#utility.yul\":1185:1208   */\n      sub\n        /* \"#utility.yul\":1181:1213   */\n      slt\n        /* \"#utility.yul\":1178:1297   */\n      iszero\n      tag_78\n      jumpi\n        /* \"#utility.yul\":1216:1295   */\n      tag_79\n      tag_80\n      jump\t// in\n    tag_79:\n        /* \"#utility.yul\":1178:1297   */\n    tag_78:\n        /* \"#utility.yul\":1336:1337   */\n      0x00\n        /* \"#utility.yul\":1361:1414   */\n      tag_81\n        /* \"#utility.yul\":1406:1413   */\n      dup6\n        /* \"#utility.yul\":1397:1403   */\n      dup3\n        /* \"#utility.yul\":1386:1395   */\n      dup7\n        /* \"#utility.yul\":1382:1404   */\n      add\n        /* \"#utility.yul\":1361:1414   */\n      tag_63\n      jump\t// in\n    tag_81:\n        /* \"#utility.yul\":1351:1414   */\n      swap3\n      pop\n        /* \"#utility.yul\":1307:1424   */\n      pop\n        /* \"#utility.yul\":1491:1493   */\n      0x20\n        /* \"#utility.yul\":1480:1489   */\n      dup4\n        /* \"#utility.yul\":1476:1494   */\n      add\n        /* \"#utility.yul\":1463:1495   */\n      calldataload\n        /* \"#utility.yul\":1522:1540   */\n      0xffffffffffffffff\n        /* \"#utility.yul\":1514:1520   */\n      dup2\n        /* \"#utility.yul\":1511:1541   */\n      gt\n        /* \"#utility.yul\":1508:1625   */\n      iszero\n      tag_82\n      jumpi\n        /* \"#utility.yul\":1544:1623   */\n      tag_83\n      tag_84\n      jump\t// in\n    tag_83:\n        /* \"#utility.yul\":1508:1625   */\n    tag_82:\n        /* \"#utility.yul\":1649:1712   */\n      tag_85\n        /* \"#utility.yul\":1704:1711   */\n      dup6\n        /* \"#utility.yul\":1695:1701   */\n      dup3\n        /* \"#utility.yul\":1684:1693   */\n      dup7\n        /* \"#utility.yul\":1680:1702   */\n      add\n        /* \"#utility.yul\":1649:1712   */\n      tag_67\n      jump\t// in\n    tag_85:\n        /* \"#utility.yul\":1639:1712   */\n      swap2\n      pop\n        /* \"#utility.yul\":1434:1722   */\n      pop\n        /* \"#utility.yul\":1075:1729   */\n      swap3\n      pop\n      swap3\n      swap1\n      pop\n      jump\t// out\n        /* \"#utility.yul\":1735:2064   */\n    tag_8:\n        /* \"#utility.yul\":1794:1800   */\n      0x00\n        /* \"#utility.yul\":1843:1845   */\n      0x20\n        /* \"#utility.yul\":1831:1840   */\n      dup3\n        /* \"#utility.yul\":1822:1829   */\n      dup5\n        /* \"#utility.yul\":1818:1841   */\n      sub\n        /* \"#utility.yul\":1814:1846   */\n      slt\n        /* \"#utility.yul\":1811:1930   */\n      iszero\n      tag_87\n      jumpi\n        /* \"#utility.yul\":1849:1928   */\n      tag_88\n      tag_80\n      jump\t// in\n    tag_88:\n        /* \"#utility.yul\":1811:1930   */\n    tag_87:\n        /* \"#utility.yul\":1969:1970   */\n      0x00\n        /* \"#utility.yul\":1994:2047   */\n      tag_89\n        /* \"#utility.yul\":2039:2046   */\n      dup5\n        /* \"#utility.yul\":2030:2036   */\n      dup3\n        /* \"#utility.yul\":2019:2028   */\n      dup6\n        /* \"#utility.yul\":2015:2037   */\n      add\n        /* \"#utility.yul\":1994:2047   */\n      tag_73\n      jump\t// in\n    tag_89:\n        /* \"#utility.yul\":1984:2047   */\n      swap2\n      pop\n        /* \"#utility.yul\":1940:2057   */\n      pop\n        /* \"#utility.yul\":1735:2064   */\n      swap3\n      swap2\n      pop\n      pop\n      jump\t// out\n        /* \"#utility.yul\":2070:2302   */\n    tag_90:\n        /* \"#utility.yul\":2177:2187   */\n      0x00\n        /* \"#utility.yul\":2212:2296   */\n      tag_92\n        /* \"#utility.yul\":2292:2295   */\n      dup4\n        /* \"#utility.yul\":2284:2290   */\n      dup4\n        /* \"#utility.yul\":2212:2296   */\n      tag_93\n      jump\t// in\n    tag_92:\n        /* \"#utility.yul\":2198:2296   */\n      swap1\n      pop\n        /* \"#utility.yul\":2070:2302   */\n      swap3\n      swap2\n      pop\n      pop\n      jump\t// out\n        /* \"#utility.yul\":2308:2416   */\n    tag_94:\n        /* \"#utility.yul\":2385:2409   */\n      tag_96\n        /* \"#utility.yul\":2403:2408   */\n      dup2\n        /* \"#utility.yul\":2385:2409   */\n      tag_97\n      jump\t// in\n    tag_96:\n        /* \"#utility.yul\":2380:2383   */\n      dup3\n        /* \"#utility.yul\":2373:2410   */\n      mstore\n        /* \"#utility.yul\":2308:2416   */\n      pop\n      pop\n      jump\t// out\n        /* \"#utility.yul\":2422:2540   */\n    tag_98:\n        /* \"#utility.yul\":2509:2533   */\n      tag_100\n        /* \"#utility.yul\":2527:2532   */\n      dup2\n        /* \"#utility.yul\":2509:2533   */\n      tag_97\n      jump\t// in\n    tag_100:\n        /* \"#utility.yul\":2504:2507   */\n      dup3\n        /* \"#utility.yul\":2497:2534   */\n      mstore\n        /* \"#utility.yul\":2422:2540   */\n      pop\n      pop\n      jump\t// out\n        /* \"#utility.yul\":2610:3673   */\n    tag_101:\n        /* \"#utility.yul\":2767:2770   */\n      0x00\n        /* \"#utility.yul\":2796:2869   */\n      tag_103\n        /* \"#utility.yul\":2863:2868   */\n      dup3\n        /* \"#utility.yul\":2796:2869   */\n      tag_104\n      jump\t// in\n    tag_103:\n        /* \"#utility.yul\":2885:2990   */\n      tag_105\n        /* \"#utility.yul\":2983:2989   */\n      dup2\n        /* \"#utility.yul\":2978:2981   */\n      dup6\n        /* \"#utility.yul\":2885:2990   */\n      tag_106\n      jump\t// in\n    tag_105:\n        /* \"#utility.yul\":2878:2990   */\n      swap4\n      pop\n        /* \"#utility.yul\":3016:3019   */\n      dup4\n        /* \"#utility.yul\":3061:3065   */\n      0x20\n        /* \"#utility.yul\":3053:3059   */\n      dup3\n        /* \"#utility.yul\":3049:3066   */\n      mul\n        /* \"#utility.yul\":3044:3047   */\n      dup6\n        /* \"#utility.yul\":3040:3067   */\n      add\n        /* \"#utility.yul\":3091:3166   */\n      tag_107\n        /* \"#utility.yul\":3160:3165   */\n      dup6\n        /* \"#utility.yul\":3091:3166   */\n      tag_108\n      jump\t// in\n    tag_107:\n        /* \"#utility.yul\":3189:3196   */\n      dup1\n        /* \"#utility.yul\":3220:3221   */\n      0x00\n        /* \"#utility.yul\":3205:3628   */\n    tag_109:\n        /* \"#utility.yul\":3230:3236   */\n      dup6\n        /* \"#utility.yul\":3227:3228   */\n      dup2\n        /* \"#utility.yul\":3224:3237   */\n      lt\n        /* \"#utility.yul\":3205:3628   */\n      iszero\n      tag_111\n      jumpi\n        /* \"#utility.yul\":3301:3310   */\n      dup5\n        /* \"#utility.yul\":3295:3299   */\n      dup5\n        /* \"#utility.yul\":3291:3311   */\n      sub\n        /* \"#utility.yul\":3286:3289   */\n      dup10\n        /* \"#utility.yul\":3279:3312   */\n      mstore\n        /* \"#utility.yul\":3352:3358   */\n      dup2\n        /* \"#utility.yul\":3346:3359   */\n      mload\n        /* \"#utility.yul\":3380:3482   */\n      tag_112\n        /* \"#utility.yul\":3477:3481   */\n      dup6\n        /* \"#utility.yul\":3462:3475   */\n      dup3\n        /* \"#utility.yul\":3380:3482   */\n      tag_90\n      jump\t// in\n    tag_112:\n        /* \"#utility.yul\":3372:3482   */\n      swap5\n      pop\n        /* \"#utility.yul\":3505:3584   */\n      tag_113\n        /* \"#utility.yul\":3577:3583   */\n      dup4\n        /* \"#utility.yul\":3505:3584   */\n      tag_114\n      jump\t// in\n    tag_113:\n        /* \"#utility.yul\":3495:3584   */\n      swap3\n      pop\n        /* \"#utility.yul\":3613:3617   */\n      0x20\n        /* \"#utility.yul\":3608:3611   */\n      dup11\n        /* \"#utility.yul\":3604:3618   */\n      add\n        /* \"#utility.yul\":3597:3618   */\n      swap10\n      pop\n        /* \"#utility.yul\":3265:3628   */\n      pop\n        /* \"#utility.yul\":3252:3253   */\n      0x01\n        /* \"#utility.yul\":3249:3250   */\n      dup2\n        /* \"#utility.yul\":3245:3254   */\n      add\n        /* \"#utility.yul\":3240:3254   */\n      swap1\n      pop\n        /* \"#utility.yul\":3205:3628   */\n      jump(tag_109)\n    tag_111:\n        /* \"#utility.yul\":3209:3223   */\n      pop\n        /* \"#utility.yul\":3644:3648   */\n      dup3\n        /* \"#utility.yul\":3637:3648   */\n      swap8\n      pop\n        /* \"#utility.yul\":3664:3667   */\n      dup8\n        /* \"#utility.yul\":3657:3667   */\n      swap6\n      pop\n        /* \"#utility.yul\":2772:3673   */\n      pop\n      pop\n      pop\n      pop\n      pop\n        /* \"#utility.yul\":2610:3673   */\n      swap3\n      swap2\n      pop\n      pop\n      jump\t// out\n        /* \"#utility.yul\":3679:4023   */\n    tag_115:\n        /* \"#utility.yul\":3757:3760   */\n      0x00\n        /* \"#utility.yul\":3785:3824   */\n      tag_117\n        /* \"#utility.yul\":3818:3823   */\n      dup3\n        /* \"#utility.yul\":3785:3824   */\n      tag_118\n      jump\t// in\n    tag_117:\n        /* \"#utility.yul\":3840:3901   */\n      tag_119\n        /* \"#utility.yul\":3894:3900   */\n      dup2\n        /* \"#utility.yul\":3889:3892   */\n      dup6\n        /* \"#utility.yul\":3840:3901   */\n      tag_120\n      jump\t// in\n    tag_119:\n        /* \"#utility.yul\":3833:3901   */\n      swap4\n      pop\n        /* \"#utility.yul\":3910:3962   */\n      tag_121\n        /* \"#utility.yul\":3955:3961   */\n      dup2\n        /* \"#utility.yul\":3950:3953   */\n      dup6\n        /* \"#utility.yul\":3943:3947   */\n      0x20\n        /* \"#utility.yul\":3936:3941   */\n      dup7\n        /* \"#utility.yul\":3932:3948   */\n      add\n        /* \"#utility.yul\":3910:3962   */\n      tag_122\n      jump\t// in\n    tag_121:\n        /* \"#utility.yul\":3987:4016   */\n      tag_123\n        /* \"#utility.yul\":4009:4015   */\n      dup2\n        /* \"#utility.yul\":3987:4016   */\n      tag_124\n      jump\t// in\n    tag_123:\n        /* \"#utility.yul\":3982:3985   */\n      dup5\n        /* \"#utility.yul\":3978:4017   */\n      add\n        /* \"#utility.yul\":3971:4017   */\n      swap2\n      pop\n        /* \"#utility.yul\":3761:4023   */\n      pop\n        /* \"#utility.yul\":3679:4023   */\n      swap3\n      swap2\n      pop\n      pop\n      jump\t// out\n        /* \"#utility.yul\":4029:4393   */\n    tag_125:\n        /* \"#utility.yul\":4117:4120   */\n      0x00\n        /* \"#utility.yul\":4145:4184   */\n      tag_127\n        /* \"#utility.yul\":4178:4183   */\n      dup3\n        /* \"#utility.yul\":4145:4184   */\n      tag_118\n      jump\t// in\n    tag_127:\n        /* \"#utility.yul\":4200:4271   */\n      tag_128\n        /* \"#utility.yul\":4264:4270   */\n      dup2\n        /* \"#utility.yul\":4259:4262   */\n      dup6\n        /* \"#utility.yul\":4200:4271   */\n      tag_129\n      jump\t// in\n    tag_128:\n        /* \"#utility.yul\":4193:4271   */\n      swap4\n      pop\n        /* \"#utility.yul\":4280:4332   */\n      tag_130\n        /* \"#utility.yul\":4325:4331   */\n      dup2\n        /* \"#utility.yul\":4320:4323   */\n      dup6\n        /* \"#utility.yul\":4313:4317   */\n      0x20\n        /* \"#utility.yul\":4306:4311   */\n      dup7\n        /* \"#utility.yul\":4302:4318   */\n      add\n        /* \"#utility.yul\":4280:4332   */\n      tag_122\n      jump\t// in\n    tag_130:\n        /* \"#utility.yul\":4357:4386   */\n      tag_131\n        /* \"#utility.yul\":4379:4385   */\n      dup2\n        /* \"#utility.yul\":4357:4386   */\n      tag_124\n      jump\t// in\n    tag_131:\n        /* \"#utility.yul\":4352:4355   */\n      dup5\n        /* \"#utility.yul\":4348:4387   */\n      add\n        /* \"#utility.yul\":4341:4387   */\n      swap2\n      pop\n        /* \"#utility.yul\":4121:4393   */\n      pop\n        /* \"#utility.yul\":4029:4393   */\n      swap3\n      swap2\n      pop\n      pop\n      jump\t// out\n        /* \"#utility.yul\":4459:5043   */\n    tag_93:\n        /* \"#utility.yul\":4556:4559   */\n      0x00\n        /* \"#utility.yul\":4592:4596   */\n      0x40\n        /* \"#utility.yul\":4587:4590   */\n      dup4\n        /* \"#utility.yul\":4583:4597   */\n      add\n        /* \"#utility.yul\":4678:4682   */\n      0x00\n        /* \"#utility.yul\":4671:4676   */\n      dup4\n        /* \"#utility.yul\":4667:4683   */\n      add\n        /* \"#utility.yul\":4661:4684   */\n      mload\n        /* \"#utility.yul\":4697:4760   */\n      tag_133\n        /* \"#utility.yul\":4754:4758   */\n      0x00\n        /* \"#utility.yul\":4749:4752   */\n      dup7\n        /* \"#utility.yul\":4745:4759   */\n      add\n        /* \"#utility.yul\":4731:4743   */\n      dup3\n        /* \"#utility.yul\":4697:4760   */\n      tag_94\n      jump\t// in\n    tag_133:\n        /* \"#utility.yul\":4607:4770   */\n      pop\n        /* \"#utility.yul\":4853:4857   */\n      0x20\n        /* \"#utility.yul\":4846:4851   */\n      dup4\n        /* \"#utility.yul\":4842:4858   */\n      add\n        /* \"#utility.yul\":4836:4859   */\n      mload\n        /* \"#utility.yul\":4906:4909   */\n      dup5\n        /* \"#utility.yul\":4900:4904   */\n      dup3\n        /* \"#utility.yul\":4896:4910   */\n      sub\n        /* \"#utility.yul\":4889:4893   */\n      0x20\n        /* \"#utility.yul\":4884:4887   */\n      dup7\n        /* \"#utility.yul\":4880:4894   */\n      add\n        /* \"#utility.yul\":4873:4911   */\n      mstore\n        /* \"#utility.yul\":4932:5005   */\n      tag_134\n        /* \"#utility.yul\":5000:5004   */\n      dup3\n        /* \"#utility.yul\":4986:4998   */\n      dup3\n        /* \"#utility.yul\":4932:5005   */\n      tag_115\n      jump\t// in\n    tag_134:\n        /* \"#utility.yul\":4924:5005   */\n      swap2\n      pop\n        /* \"#utility.yul\":4780:5016   */\n      pop\n        /* \"#utility.yul\":5033:5037   */\n      dup1\n        /* \"#utility.yul\":5026:5037   */\n      swap2\n      pop\n        /* \"#utility.yul\":4561:5043   */\n      pop\n        /* \"#utility.yul\":4459:5043   */\n      swap3\n      swap2\n      pop\n      pop\n      jump\t// out\n        /* \"#utility.yul\":5049:5472   */\n    tag_11:\n        /* \"#utility.yul\":5190:5194   */\n      0x00\n        /* \"#utility.yul\":5228:5230   */\n      0x40\n        /* \"#utility.yul\":5217:5226   */\n      dup3\n        /* \"#utility.yul\":5213:5231   */\n      add\n        /* \"#utility.yul\":5205:5231   */\n      swap1\n      pop\n        /* \"#utility.yul\":5241:5312   */\n      tag_136\n        /* \"#utility.yul\":5309:5310   */\n      0x00\n        /* \"#utility.yul\":5298:5307   */\n      dup4\n        /* \"#utility.yul\":5294:5311   */\n      add\n        /* \"#utility.yul\":5285:5291   */\n      dup6\n        /* \"#utility.yul\":5241:5312   */\n      tag_98\n      jump\t// in\n    tag_136:\n        /* \"#utility.yul\":5359:5368   */\n      dup2\n        /* \"#utility.yul\":5353:5357   */\n      dup2\n        /* \"#utility.yul\":5349:5369   */\n      sub\n        /* \"#utility.yul\":5344:5346   */\n      0x20\n        /* \"#utility.yul\":5333:5342   */\n      dup4\n        /* \"#utility.yul\":5329:5347   */\n      add\n        /* \"#utility.yul\":5322:5370   */\n      mstore\n        /* \"#utility.yul\":5387:5465   */\n      tag_137\n        /* \"#utility.yul\":5460:5464   */\n      dup2\n        /* \"#utility.yul\":5451:5457   */\n      dup5\n        /* \"#utility.yul\":5387:5465   */\n      tag_125\n      jump\t// in\n    tag_137:\n        /* \"#utility.yul\":5379:5465   */\n      swap1\n      pop\n        /* \"#utility.yul\":5049:5472   */\n      swap4\n      swap3\n      pop\n      pop\n      pop\n      jump\t// out\n        /* \"#utility.yul\":5478:5927   */\n    tag_15:\n        /* \"#utility.yul\":5659:5663   */\n      0x00\n        /* \"#utility.yul\":5697:5699   */\n      0x20\n        /* \"#utility.yul\":5686:5695   */\n      dup3\n        /* \"#utility.yul\":5682:5700   */\n      add\n        /* \"#utility.yul\":5674:5700   */\n      swap1\n      pop\n        /* \"#utility.yul\":5746:5755   */\n      dup2\n        /* \"#utility.yul\":5740:5744   */\n      dup2\n        /* \"#utility.yul\":5736:5756   */\n      sub\n        /* \"#utility.yul\":5732:5733   */\n      0x00\n        /* \"#utility.yul\":5721:5730   */\n      dup4\n        /* \"#utility.yul\":5717:5734   */\n      add\n        /* \"#utility.yul\":5710:5757   */\n      mstore\n        /* \"#utility.yul\":5774:5920   */\n      tag_139\n        /* \"#utility.yul\":5915:5919   */\n      dup2\n        /* \"#utility.yul\":5906:5912   */\n      dup5\n        /* \"#utility.yul\":5774:5920   */\n      tag_101\n      jump\t// in\n    tag_139:\n        /* \"#utility.yul\":5766:5920   */\n      swap1\n      pop\n        /* \"#utility.yul\":5478:5927   */\n      swap3\n      swap2\n      pop\n      pop\n      jump\t// out\n        /* \"#utility.yul\":5933:6062   */\n    tag_57:\n        /* \"#utility.yul\":5967:5973   */\n      0x00\n        /* \"#utility.yul\":5994:6014   */\n      tag_141\n      tag_142\n      jump\t// in\n    tag_141:\n        /* \"#utility.yul\":5984:6014   */\n      swap1\n      pop\n        /* \"#utility.yul\":6023:6056   */\n      tag_143\n        /* \"#utility.yul\":6051:6055   */\n      dup3\n        /* \"#utility.yul\":6043:6049   */\n      dup3\n        /* \"#utility.yul\":6023:6056   */\n      tag_144\n      jump\t// in\n    tag_143:\n        /* \"#utility.yul\":5933:6062   */\n      swap2\n      swap1\n      pop\n      jump\t// out\n        /* \"#utility.yul\":6068:6143   */\n    tag_142:\n        /* \"#utility.yul\":6101:6107   */\n      0x00\n        /* \"#utility.yul\":6134:6136   */\n      0x40\n        /* \"#utility.yul\":6128:6137   */\n      mload\n        /* \"#utility.yul\":6118:6137   */\n      swap1\n      pop\n        /* \"#utility.yul\":6068:6143   */\n      swap1\n      jump\t// out\n        /* \"#utility.yul\":6149:6457   */\n    tag_56:\n        /* \"#utility.yul\":6211:6215   */\n      0x00\n        /* \"#utility.yul\":6301:6319   */\n      0xffffffffffffffff\n        /* \"#utility.yul\":6293:6299   */\n      dup3\n        /* \"#utility.yul\":6290:6320   */\n      gt\n        /* \"#utility.yul\":6287:6343   */\n      iszero\n      tag_147\n      jumpi\n        /* \"#utility.yul\":6323:6341   */\n      tag_148\n      tag_149\n      jump\t// in\n    tag_148:\n        /* \"#utility.yul\":6287:6343   */\n    tag_147:\n        /* \"#utility.yul\":6361:6390   */\n      tag_150\n        /* \"#utility.yul\":6383:6389   */\n      dup3\n        /* \"#utility.yul\":6361:6390   */\n      tag_124\n      jump\t// in\n    tag_150:\n        /* \"#utility.yul\":6353:6390   */\n      swap1\n      pop\n        /* \"#utility.yul\":6445:6449   */\n      0x20\n        /* \"#utility.yul\":6439:6443   */\n      dup2\n        /* \"#utility.yul\":6435:6450   */\n      add\n        /* \"#utility.yul\":6427:6450   */\n      swap1\n      pop\n        /* \"#utility.yul\":6149:6457   */\n      swap2\n      swap1\n      pop\n      jump\t// out\n        /* \"#utility.yul\":6463:6614   */\n    tag_108:\n        /* \"#utility.yul\":6549:6553   */\n      0x00\n        /* \"#utility.yul\":6572:6575   */\n      dup2\n        /* \"#utility.yul\":6564:6575   */\n      swap1\n      pop\n        /* \"#utility.yul\":6602:6606   */\n      0x20\n        /* \"#utility.yul\":6597:6600   */\n      dup3\n        /* \"#utility.yul\":6593:6607   */\n      add\n        /* \"#utility.yul\":6585:6607   */\n      swap1\n      pop\n        /* \"#utility.yul\":6463:6614   */\n      swap2\n      swap1\n      pop\n      jump\t// out\n        /* \"#utility.yul\":6620:6753   */\n    tag_104:\n        /* \"#utility.yul\":6706:6712   */\n      0x00\n        /* \"#utility.yul\":6740:6745   */\n      dup2\n        /* \"#utility.yul\":6734:6746   */\n      mload\n        /* \"#utility.yul\":6724:6746   */\n      swap1\n      pop\n        /* \"#utility.yul\":6620:6753   */\n      swap2\n      swap1\n      pop\n      jump\t// out\n        /* \"#utility.yul\":6759:6858   */\n    tag_118:\n        /* \"#utility.yul\":6811:6817   */\n      0x00\n        /* \"#utility.yul\":6845:6850   */\n      dup2\n        /* \"#utility.yul\":6839:6851   */\n      mload\n        /* \"#utility.yul\":6829:6851   */\n      swap1\n      pop\n        /* \"#utility.yul\":6759:6858   */\n      swap2\n      swap1\n      pop\n      jump\t// out\n        /* \"#utility.yul\":6864:6996   */\n    tag_114:\n        /* \"#utility.yul\":6953:6957   */\n      0x00\n        /* \"#utility.yul\":6985:6989   */\n      0x20\n        /* \"#utility.yul\":6980:6983   */\n      dup3\n        /* \"#utility.yul\":6976:6990   */\n      add\n        /* \"#utility.yul\":6968:6990   */\n      swap1\n      pop\n        /* \"#utility.yul\":6864:6996   */\n      swap2\n      swap1\n      pop\n      jump\t// out\n        /* \"#utility.yul\":7002:7205   */\n    tag_106:\n        /* \"#utility.yul\":7120:7131   */\n      0x00\n        /* \"#utility.yul\":7154:7160   */\n      dup3\n        /* \"#utility.yul\":7149:7152   */\n      dup3\n        /* \"#utility.yul\":7142:7161   */\n      mstore\n        /* \"#utility.yul\":7194:7198   */\n      0x20\n        /* \"#utility.yul\":7189:7192   */\n      dup3\n        /* \"#utility.yul\":7185:7199   */\n      add\n        /* \"#utility.yul\":7170:7199   */\n      swap1\n      pop\n        /* \"#utility.yul\":7002:7205   */\n      swap3\n      swap2\n      pop\n      pop\n      jump\t// out\n        /* \"#utility.yul\":7211:7370   */\n    tag_120:\n        /* \"#utility.yul\":7285:7296   */\n      0x00\n        /* \"#utility.yul\":7319:7325   */\n      dup3\n        /* \"#utility.yul\":7314:7317   */\n      dup3\n        /* \"#utility.yul\":7307:7326   */\n      mstore\n        /* \"#utility.yul\":7359:7363   */\n      0x20\n        /* \"#utility.yul\":7354:7357   */\n      dup3\n        /* \"#utility.yul\":7350:7364   */\n      add\n        /* \"#utility.yul\":7335:7364   */\n      swap1\n      pop\n        /* \"#utility.yul\":7211:7370   */\n      swap3\n      swap2\n      pop\n      pop\n      jump\t// out\n        /* \"#utility.yul\":7376:7545   */\n    tag_129:\n        /* \"#utility.yul\":7460:7471   */\n      0x00\n        /* \"#utility.yul\":7494:7500   */\n      dup3\n        /* \"#utility.yul\":7489:7492   */\n      dup3\n        /* \"#utility.yul\":7482:7501   */\n      mstore\n        /* \"#utility.yul\":7534:7538   */\n      0x20\n        /* \"#utility.yul\":7529:7532   */\n      dup3\n        /* \"#utility.yul\":7525:7539   */\n      add\n        /* \"#utility.yul\":7510:7539   */\n      swap1\n      pop\n        /* \"#utility.yul\":7376:7545   */\n      swap3\n      swap2\n      pop\n      pop\n      jump\t// out\n        /* \"#utility.yul\":7551:7647   */\n    tag_97:\n        /* \"#utility.yul\":7588:7595   */\n      0x00\n        /* \"#utility.yul\":7617:7641   */\n      tag_159\n        /* \"#utility.yul\":7635:7640   */\n      dup3\n        /* \"#utility.yul\":7617:7641   */\n      tag_160\n      jump\t// in\n    tag_159:\n        /* \"#utility.yul\":7606:7641   */\n      swap1\n      pop\n        /* \"#utility.yul\":7551:7647   */\n      swap2\n      swap1\n      pop\n      jump\t// out\n        /* \"#utility.yul\":7653:7779   */\n    tag_160:\n        /* \"#utility.yul\":7690:7697   */\n      0x00\n        /* \"#utility.yul\":7730:7772   */\n      0xffffffffffffffffffffffffffffffffffffffff\n        /* \"#utility.yul\":7723:7728   */\n      dup3\n        /* \"#utility.yul\":7719:7773   */\n      and\n        /* \"#utility.yul\":7708:7773   */\n      swap1\n      pop\n        /* \"#utility.yul\":7653:7779   */\n      swap2\n      swap1\n      pop\n      jump\t// out\n        /* \"#utility.yul\":7785:7862   */\n    tag_162:\n        /* \"#utility.yul\":7822:7829   */\n      0x00\n        /* \"#utility.yul\":7851:7856   */\n      dup2\n        /* \"#utility.yul\":7840:7856   */\n      swap1\n      pop\n        /* \"#utility.yul\":7785:7862   */\n      swap2\n      swap1\n      pop\n      jump\t// out\n        /* \"#utility.yul\":7868:8022   */\n    tag_62:\n        /* \"#utility.yul\":7952:7958   */\n      dup3\n        /* \"#utility.yul\":7947:7950   */\n      dup2\n        /* \"#utility.yul\":7942:7945   */\n      dup4\n        /* \"#utility.yul\":7929:7959   */\n      calldatacopy\n        /* \"#utility.yul\":8014:8015   */\n      0x00\n        /* \"#utility.yul\":8005:8011   */\n      dup4\n        /* \"#utility.yul\":8000:8003   */\n      dup4\n        /* \"#utility.yul\":7996:8012   */\n      add\n        /* \"#utility.yul\":7989:8016   */\n      mstore\n        /* \"#utility.yul\":7868:8022   */\n      pop\n      pop\n      pop\n      jump\t// out\n        /* \"#utility.yul\":8028:8335   */\n    tag_122:\n        /* \"#utility.yul\":8096:8097   */\n      0x00\n        /* \"#utility.yul\":8106:8219   */\n    tag_166:\n        /* \"#utility.yul\":8120:8126   */\n      dup4\n        /* \"#utility.yul\":8117:8118   */\n      dup2\n        /* \"#utility.yul\":8114:8127   */\n      lt\n        /* \"#utility.yul\":8106:8219   */\n      iszero\n      tag_168\n      jumpi\n        /* \"#utility.yul\":8205:8206   */\n      dup1\n        /* \"#utility.yul\":8200:8203   */\n      dup3\n        /* \"#utility.yul\":8196:8207   */\n      add\n        /* \"#utility.yul\":8190:8208   */\n      mload\n        /* \"#utility.yul\":8186:8187   */\n      dup2\n        /* \"#utility.yul\":8181:8184   */\n      dup5\n        /* \"#utility.yul\":8177:8188   */\n      add\n        /* \"#utility.yul\":8170:8209   */\n      mstore\n        /* \"#utility.yul\":8142:8144   */\n      0x20\n        /* \"#utility.yul\":8139:8140   */\n      dup2\n        /* \"#utility.yul\":8135:8145   */\n      add\n        /* \"#utility.yul\":8130:8145   */\n      swap1\n      pop\n        /* \"#utility.yul\":8106:8219   */\n      jump(tag_166)\n    tag_168:\n        /* \"#utility.yul\":8237:8243   */\n      dup4\n        /* \"#utility.yul\":8234:8235   */\n      dup2\n        /* \"#utility.yul\":8231:8244   */\n      gt\n        /* \"#utility.yul\":8228:8329   */\n      iszero\n      tag_169\n      jumpi\n        /* \"#utility.yul\":8317:8318   */\n      0x00\n        /* \"#utility.yul\":8308:8314   */\n      dup5\n        /* \"#utility.yul\":8303:8306   */\n      dup5\n        /* \"#utility.yul\":8299:8315   */\n      add\n        /* \"#utility.yul\":8292:8319   */\n      mstore\n        /* \"#utility.yul\":8228:8329   */\n    tag_169:\n        /* \"#utility.yul\":8077:8335   */\n      pop\n        /* \"#utility.yul\":8028:8335   */\n      pop\n      pop\n      pop\n      jump\t// out\n        /* \"#utility.yul\":8341:8661   */\n    tag_23:\n        /* \"#utility.yul\":8385:8391   */\n      0x00\n        /* \"#utility.yul\":8422:8423   */\n      0x02\n        /* \"#utility.yul\":8416:8420   */\n      dup3\n        /* \"#utility.yul\":8412:8424   */\n      div\n        /* \"#utility.yul\":8402:8424   */\n      swap1\n      pop\n        /* \"#utility.yul\":8469:8470   */\n      0x01\n        /* \"#utility.yul\":8463:8467   */\n      dup3\n        /* \"#utility.yul\":8459:8471   */\n      and\n        /* \"#utility.yul\":8490:8508   */\n      dup1\n        /* \"#utility.yul\":8480:8561   */\n      tag_171\n      jumpi\n        /* \"#utility.yul\":8546:8550   */\n      0x7f\n        /* \"#utility.yul\":8538:8544   */\n      dup3\n        /* \"#utility.yul\":8534:8551   */\n      and\n        /* \"#utility.yul\":8524:8551   */\n      swap2\n      pop\n        /* \"#utility.yul\":8480:8561   */\n    tag_171:\n        /* \"#utility.yul\":8608:8610   */\n      0x20\n        /* \"#utility.yul\":8600:8606   */\n      dup3\n        /* \"#utility.yul\":8597:8611   */\n      lt\n        /* \"#utility.yul\":8577:8595   */\n      dup2\n        /* \"#utility.yul\":8574:8612   */\n      eq\n        /* \"#utility.yul\":8571:8655   */\n      iszero\n      tag_172\n      jumpi\n        /* \"#utility.yul\":8627:8645   */\n      tag_173\n      tag_174\n      jump\t// in\n    tag_173:\n        /* \"#utility.yul\":8571:8655   */\n    tag_172:\n        /* \"#utility.yul\":8392:8661   */\n      pop\n        /* \"#utility.yul\":8341:8661   */\n      swap2\n      swap1\n      pop\n      jump\t// out\n        /* \"#utility.yul\":8667:8948   */\n    tag_144:\n        /* \"#utility.yul\":8750:8777   */\n      tag_176\n        /* \"#utility.yul\":8772:8776   */\n      dup3\n        /* \"#utility.yul\":8750:8777   */\n      tag_124\n      jump\t// in\n    tag_176:\n        /* \"#utility.yul\":8742:8748   */\n      dup2\n        /* \"#utility.yul\":8738:8778   */\n      add\n        /* \"#utility.yul\":8880:8886   */\n      dup2\n        /* \"#utility.yul\":8868:8878   */\n      dup2\n        /* \"#utility.yul\":8865:8887   */\n      lt\n        /* \"#utility.yul\":8844:8862   */\n      0xffffffffffffffff\n        /* \"#utility.yul\":8832:8842   */\n      dup3\n        /* \"#utility.yul\":8829:8863   */\n      gt\n        /* \"#utility.yul\":8826:8888   */\n      or\n        /* \"#utility.yul\":8823:8911   */\n      iszero\n      tag_177\n      jumpi\n        /* \"#utility.yul\":8891:8909   */\n      tag_178\n      tag_149\n      jump\t// in\n    tag_178:\n        /* \"#utility.yul\":8823:8911   */\n    tag_177:\n        /* \"#utility.yul\":8931:8941   */\n      dup1\n        /* \"#utility.yul\":8927:8929   */\n      0x40\n        /* \"#utility.yul\":8920:8942   */\n      mstore\n        /* \"#utility.yul\":8710:8948   */\n      pop\n        /* \"#utility.yul\":8667:8948   */\n      pop\n      pop\n      jump\t// out\n        /* \"#utility.yul\":8954:9134   */\n    tag_174:\n        /* \"#utility.yul\":9002:9079   */\n      0x4e487b7100000000000000000000000000000000000000000000000000000000\n        /* \"#utility.yul\":8999:9000   */\n      0x00\n        /* \"#utility.yul\":8992:9080   */\n      mstore\n        /* \"#utility.yul\":9099:9103   */\n      0x22\n        /* \"#utility.yul\":9096:9097   */\n      0x04\n        /* \"#utility.yul\":9089:9104   */\n      mstore\n        /* \"#utility.yul\":9123:9127   */\n      0x24\n        /* \"#utility.yul\":9120:9121   */\n      0x00\n        /* \"#utility.yul\":9113:9128   */\n      revert\n        /* \"#utility.yul\":9140:9320   */\n    tag_149:\n        /* \"#utility.yul\":9188:9265   */\n      0x4e487b7100000000000000000000000000000000000000000000000000000000\n        /* \"#utility.yul\":9185:9186   */\n      0x00\n        /* \"#utility.yul\":9178:9266   */\n      mstore\n        /* \"#utility.yul\":9285:9289   */\n      0x41\n        /* \"#utility.yul\":9282:9283   */\n      0x04\n        /* \"#utility.yul\":9275:9290   */\n      mstore\n        /* \"#utility.yul\":9309:9313   */\n      0x24\n        /* \"#utility.yul\":9306:9307   */\n      0x00\n        /* \"#utility.yul\":9299:9314   */\n      revert\n        /* \"#utility.yul\":9326:9443   */\n    tag_71:\n        /* \"#utility.yul\":9435:9436   */\n      0x00\n        /* \"#utility.yul\":9432:9433   */\n      dup1\n        /* \"#utility.yul\":9425:9437   */\n      revert\n        /* \"#utility.yul\":9449:9566   */\n    tag_60:\n        /* \"#utility.yul\":9558:9559   */\n      0x00\n        /* \"#utility.yul\":9555:9556   */\n      dup1\n        /* \"#utility.yul\":9548:9560   */\n      revert\n        /* \"#utility.yul\":9572:9689   */\n    tag_84:\n        /* \"#utility.yul\":9681:9682   */\n      0x00\n        /* \"#utility.yul\":9678:9679   */\n      dup1\n        /* \"#utility.yul\":9671:9683   */\n      revert\n        /* \"#utility.yul\":9695:9812   */\n    tag_80:\n        /* \"#utility.yul\":9804:9805   */\n      0x00\n        /* \"#utility.yul\":9801:9802   */\n      dup1\n        /* \"#utility.yul\":9794:9806   */\n      revert\n        /* \"#utility.yul\":9818:9920   */\n    tag_124:\n        /* \"#utility.yul\":9859:9865   */\n      0x00\n        /* \"#utility.yul\":9910:9912   */\n      0x1f\n        /* \"#utility.yul\":9906:9913   */\n      not\n        /* \"#utility.yul\":9901:9903   */\n      0x1f\n        /* \"#utility.yul\":9894:9899   */\n      dup4\n        /* \"#utility.yul\":9890:9904   */\n      add\n        /* \"#utility.yul\":9886:9914   */\n      and\n        /* \"#utility.yul\":9876:9914   */\n      swap1\n      pop\n        /* \"#utility.yul\":9818:9920   */\n      swap2\n      swap1\n      pop\n      jump\t// out\n        /* \"#utility.yul\":9926:10048   */\n    tag_66:\n        /* \"#utility.yul\":9999:10023   */\n      tag_187\n        /* \"#utility.yul\":10017:10022   */\n      dup2\n        /* \"#utility.yul\":9999:10023   */\n      tag_97\n      jump\t// in\n    tag_187:\n        /* \"#utility.yul\":9992:9997   */\n      dup2\n        /* \"#utility.yul\":9989:10024   */\n      eq\n        /* \"#utility.yul\":9979:10042   */\n      tag_188\n      jumpi\n        /* \"#utility.yul\":10038:10039   */\n      0x00\n        /* \"#utility.yul\":10035:10036   */\n      dup1\n        /* \"#utility.yul\":10028:10040   */\n      revert\n        /* \"#utility.yul\":9979:10042   */\n    tag_188:\n        /* \"#utility.yul\":9926:10048   */\n      pop\n      jump\t// out\n        /* \"#utility.yul\":10054:10176   */\n    tag_76:\n        /* \"#utility.yul\":10127:10151   */\n      tag_190\n        /* \"#utility.yul\":10145:10150   */\n      dup2\n        /* \"#utility.yul\":10127:10151   */\n      tag_162\n      jump\t// in\n    tag_190:\n        /* \"#utility.yul\":10120:10125   */\n      dup2\n        /* \"#utility.yul\":10117:10152   */\n      eq\n        /* \"#utility.yul\":10107:10170   */\n      tag_191\n      jumpi\n        /* \"#utility.yul\":10166:10167   */\n      0x00\n        /* \"#utility.yul\":10163:10164   */\n      dup1\n        /* \"#utility.yul\":10156:10168   */\n      revert\n        /* \"#utility.yul\":10107:10170   */\n    tag_191:\n        /* \"#utility.yul\":10054:10176   */\n      pop\n      jump\t// out\n\n    auxdata: 0xa2646970667358221220c3eba823c4d784d0757a1b668a9601a2105a6883929a1a896627fe026db746b064736f6c63430008070033\n}\n",
				"bytecode": {
					"linkReferences": {},
					"object": "608060405234801561001057600080fd5b50610986806100206000396000f3fe608060405234801561001057600080fd5b50600436106100415760003560e01c806380c9419e14610046578063942b765a14610077578063bc6d30ee14610095575b600080fd5b610060600480360381019061005b919061052d565b6100b1565b60405161006e9291906106b0565b60405180910390f35b61007f61018d565b60405161008c91906106e0565b60405180910390f35b6100af60048036038101906100aa91906104d1565b6102d4565b005b600081815481106100c157600080fd5b90600052602060002090600202016000915090508060000160009054906101000a900473ffffffffffffffffffffffffffffffffffffffff169080600101805461010a9061083c565b80601f01602080910402602001604051908101604052809291908181526020018280546101369061083c565b80156101835780601f1061015857610100808354040283529160200191610183565b820191906000526020600020905b81548152906001019060200180831161016657829003601f168201915b5050505050905082565b60606000805480602002602001604051908101604052809291908181526020016000905b828210156102cb57838290600052602060002090600202016040518060400160405290816000820160009054906101000a900473ffffffffffffffffffffffffffffffffffffffff1673ffffffffffffffffffffffffffffffffffffffff1673ffffffffffffffffffffffffffffffffffffffff16815260200160018201805461023a9061083c565b80601f01602080910402602001604051908101604052809291908181526020018280546102669061083c565b80156102b35780601f10610288576101008083540402835291602001916102b3565b820191906000526020600020905b81548152906001019060200180831161029657829003601f168201915b505050505081525050815260200190600101906101b1565b50505050905090565b600060405180604001604052808473ffffffffffffffffffffffffffffffffffffffff16815260200183815250908060018154018082558091505060019003906000526020600020906002020160009091909190915060008201518160000160006101000a81548173ffffffffffffffffffffffffffffffffffffffff021916908373ffffffffffffffffffffffffffffffffffffffff160217905550602082015181600101908051906020019061038d929190610394565b5050505050565b8280546103a09061083c565b90600052602060002090601f0160209004810192826103c25760008555610409565b82601f106103db57805160ff1916838001178555610409565b82800160010185558215610409579182015b828111156104085782518255916020019190600101906103ed565b5b509050610416919061041a565b5090565b5b8082111561043357600081600090555060010161041b565b5090565b600061044a61044584610727565b610702565b90508281526020810184848401111561046657610465610902565b5b6104718482856107fa565b509392505050565b60008135905061048881610922565b92915050565b600082601f8301126104a3576104a26108fd565b5b81356104b3848260208601610437565b91505092915050565b6000813590506104cb81610939565b92915050565b600080604083850312156104e8576104e761090c565b5b60006104f685828601610479565b925050602083013567ffffffffffffffff81111561051757610516610907565b5b6105238582860161048e565b9150509250929050565b6000602082840312156105435761054261090c565b5b6000610551848285016104bc565b91505092915050565b60006105668383610673565b905092915050565b610577816107be565b82525050565b610586816107be565b82525050565b600061059782610768565b6105a1818561078b565b9350836020820285016105b385610758565b8060005b858110156105ef57848403895281516105d0858261055a565b94506105db8361077e565b925060208a019950506001810190506105b7565b50829750879550505050505092915050565b600061060c82610773565b610616818561079c565b9350610626818560208601610809565b61062f81610911565b840191505092915050565b600061064582610773565b61064f81856107ad565b935061065f818560208601610809565b61066881610911565b840191505092915050565b600060408301600083015161068b600086018261056e565b50602083015184820360208601526106a38282610601565b9150508091505092915050565b60006040820190506106c5600083018561057d565b81810360208301526106d7818461063a565b90509392505050565b600060208201905081810360008301526106fa818461058c565b905092915050565b600061070c61071d565b9050610718828261086e565b919050565b6000604051905090565b600067ffffffffffffffff821115610742576107416108ce565b5b61074b82610911565b9050602081019050919050565b6000819050602082019050919050565b600081519050919050565b600081519050919050565b6000602082019050919050565b600082825260208201905092915050565b600082825260208201905092915050565b600082825260208201905092915050565b60006107c9826107d0565b9050919050565b600073ffffffffffffffffffffffffffffffffffffffff82169050919050565b6000819050919050565b82818337600083830152505050565b60005b8381101561082757808201518184015260208101905061080c565b83811115610836576000848401525b50505050565b6000600282049050600182168061085457607f821691505b602082108114156108685761086761089f565b5b50919050565b61087782610911565b810181811067ffffffffffffffff82111715610896576108956108ce565b5b80604052505050565b7f4e487b7100000000000000000000000000000000000000000000000000000000600052602260045260246000fd5b7f4e487b7100000000000000000000000000000000000000000000000000000000600052604160045260246000fd5b600080fd5b600080fd5b600080fd5b600080fd5b6000601f19601f8301169050919050565b61092b816107be565b811461093657600080fd5b50565b610942816107f0565b811461094d57600080fd5b5056fea2646970667358221220c3eba823c4d784d0757a1b668a9601a2105a6883929a1a896627fe026db746b064736f6c63430008070033",
					"opcodes": "PUSH1 0x80 PUSH1 0x40 MSTORE CALLVALUE DUP1 ISZERO PUSH2 0x10 JUMPI PUSH1 0x0 DUP1 REVERT JUMPDEST POP PUSH2 0x986 DUP1 PUSH2 0x20 PUSH1 0x0 CODECOPY PUSH1 0x0 RETURN INVALID PUSH1 0x80 PUSH1 0x40 MSTORE CALLVALUE DUP1 ISZERO PUSH2 0x10 JUMPI PUSH1 0x0 DUP1 REVERT JUMPDEST POP PUSH1 0x4 CALLDATASIZE LT PUSH2 0x41 JUMPI PUSH1 0x0 CALLDATALOAD PUSH1 0xE0 SHR DUP1 PUSH4 0x80C9419E EQ PUSH2 0x46 JUMPI DUP1 PUSH4 0x942B765A EQ PUSH2 0x77 JUMPI DUP1 PUSH4 0xBC6D30EE EQ PUSH2 0x95 JUMPI JUMPDEST PUSH1 0x0 DUP1 REVERT JUMPDEST PUSH2 0x60 PUSH1 0x4 DUP1 CALLDATASIZE SUB DUP2 ADD SWAP1 PUSH2 0x5B SWAP2 SWAP1 PUSH2 0x52D JUMP JUMPDEST PUSH2 0xB1 JUMP JUMPDEST PUSH1 0x40 MLOAD PUSH2 0x6E SWAP3 SWAP2 SWAP1 PUSH2 0x6B0 JUMP JUMPDEST PUSH1 0x40 MLOAD DUP1 SWAP2 SUB SWAP1 RETURN JUMPDEST PUSH2 0x7F PUSH2 0x18D JUMP JUMPDEST PUSH1 0x40 MLOAD PUSH2 0x8C SWAP2 SWAP1 PUSH2 0x6E0 JUMP JUMPDEST PUSH1 0x40 MLOAD DUP1 SWAP2 SUB SWAP1 RETURN JUMPDEST PUSH2 0xAF PUSH1 0x4 DUP1 CALLDATASIZE SUB DUP2 ADD SWAP1 PUSH2 0xAA SWAP2 SWAP1 PUSH2 0x4D1 JUMP JUMPDEST PUSH2 0x2D4 JUMP JUMPDEST STOP JUMPDEST PUSH1 0x0 DUP2 DUP2 SLOAD DUP2 LT PUSH2 0xC1 JUMPI PUSH1 0x0 DUP1 REVERT JUMPDEST SWAP1 PUSH1 0x0 MSTORE PUSH1 0x20 PUSH1 0x0 KECCAK256 SWAP1 PUSH1 0x2 MUL ADD PUSH1 0x0 SWAP2 POP SWAP1 POP DUP1 PUSH1 0x0 ADD PUSH1 0x0 SWAP1 SLOAD SWAP1 PUSH2 0x100 EXP SWAP1 DIV PUSH20 0xFFFFFFFFFFFFFFFFFFFFFFFFFFFFFFFFFFFFFFFF AND SWAP1 DUP1 PUSH1 0x1 ADD DUP1 SLOAD PUSH2 0x10A SWAP1 PUSH2 0x83C JUMP JUMPDEST DUP1 PUSH1 0x1F ADD PUSH1 0x20 DUP1 SWAP2 DIV MUL PUSH1 0x20 ADD PUSH1 0x40 MLOAD SWAP1 DUP2 ADD PUSH1 0x40 MSTORE DUP1 SWAP3 SWAP2 SWAP1 DUP2 DUP2 MSTORE PUSH1 0x20 ADD DUP3 DUP1 SLOAD PUSH2 0x136 SWAP1 PUSH2 0x83C JUMP JUMPDEST DUP1 ISZERO PUSH2 0x183 JUMPI DUP1 PUSH1 0x1F LT PUSH2 0x158 JUMPI PUSH2 0x100 DUP1 DUP4 SLOAD DIV MUL DUP4 MSTORE SWAP2 PUSH1 0x20 ADD SWAP2 PUSH2 0x183 JUMP JUMPDEST DUP3 ADD SWAP2 SWAP1 PUSH1 0x0 MSTORE PUSH1 0x20 PUSH1 0x0 KECCAK256 SWAP1 JUMPDEST DUP2 SLOAD DUP2 MSTORE SWAP1 PUSH1 0x1 ADD SWAP1 PUSH1 0x20 ADD DUP1 DUP4 GT PUSH2 0x166 JUMPI DUP3 SWAP1 SUB PUSH1 0x1F AND DUP3 ADD SWAP2 JUMPDEST POP POP POP POP POP SWAP1 POP DUP3 JUMP JUMPDEST PUSH1 0x60 PUSH1 0x0 DUP1 SLOAD DUP1 PUSH1 0x20 MUL PUSH1 0x20 ADD PUSH1 0x40 MLOAD SWAP1 DUP2 ADD PUSH1 0x40 MSTORE DUP1 SWAP3 SWAP2 SWAP1 DUP2 DUP2 MSTORE PUSH1 0x20 ADD PUSH1 0x0 SWAP1 JUMPDEST DUP3 DUP3 LT ISZERO PUSH2 0x2CB JUMPI DUP4 DUP3 SWAP1 PUSH1 0x0 MSTORE PUSH1 0x20 PUSH1 0x0 KECCAK256 SWAP1 PUSH1 0x2 MUL ADD PUSH1 0x40 MLOAD DUP1 PUSH1 0x40 ADD PUSH1 0x40 MSTORE SWAP1 DUP2 PUSH1 0x0 DUP3 ADD PUSH1 0x0 SWAP1 SLOAD SWAP1 PUSH2 0x100 EXP SWAP1 DIV PUSH20 0xFFFFFFFFFFFFFFFFFFFFFFFFFFFFFFFFFFFFFFFF AND PUSH20 0xFFFFFFFFFFFFFFFFFFFFFFFFFFFFFFFFFFFFFFFF AND PUSH20 0xFFFFFFFFFFFFFFFFFFFFFFFFFFFFFFFFFFFFFFFF AND DUP2 MSTORE PUSH1 0x20 ADD PUSH1 0x1 DUP3 ADD DUP1 SLOAD PUSH2 0x23A SWAP1 PUSH2 0x83C JUMP JUMPDEST DUP1 PUSH1 0x1F ADD PUSH1 0x20 DUP1 SWAP2 DIV MUL PUSH1 0x20 ADD PUSH1 0x40 MLOAD SWAP1 DUP2 ADD PUSH1 0x40 MSTORE DUP1 SWAP3 SWAP2 SWAP1 DUP2 DUP2 MSTORE PUSH1 0x20 ADD DUP3 DUP1 SLOAD PUSH2 0x266 SWAP1 PUSH2 0x83C JUMP JUMPDEST DUP1 ISZERO PUSH2 0x2B3 JUMPI DUP1 PUSH1 0x1F LT PUSH2 0x288 JUMPI PUSH2 0x100 DUP1 DUP4 SLOAD DIV MUL DUP4 MSTORE SWAP2 PUSH1 0x20 ADD SWAP2 PUSH2 0x2B3 JUMP JUMPDEST DUP3 ADD SWAP2 SWAP1 PUSH1 0x0 MSTORE PUSH1 0x20 PUSH1 0x0 KECCAK256 SWAP1 JUMPDEST DUP2 SLOAD DUP2 MSTORE SWAP1 PUSH1 0x1 ADD SWAP1 PUSH1 0x20 ADD DUP1 DUP4 GT PUSH2 0x296 JUMPI DUP3 SWAP1 SUB PUSH1 0x1F AND DUP3 ADD SWAP2 JUMPDEST POP POP POP POP POP DUP2 MSTORE POP POP DUP2 MSTORE PUSH1 0x20 ADD SWAP1 PUSH1 0x1 ADD SWAP1 PUSH2 0x1B1 JUMP JUMPDEST POP POP POP POP SWAP1 POP SWAP1 JUMP JUMPDEST PUSH1 0x0 PUSH1 0x40 MLOAD DUP1 PUSH1 0x40 ADD PUSH1 0x40 MSTORE DUP1 DUP5 PUSH20 0xFFFFFFFFFFFFFFFFFFFFFFFFFFFFFFFFFFFFFFFF AND DUP2 MSTORE PUSH1 0x20 ADD DUP4 DUP2 MSTORE POP SWAP1 DUP1 PUSH1 0x1 DUP2 SLOAD ADD DUP1 DUP3 SSTORE DUP1 SWAP2 POP POP PUSH1 0x1 SWAP1 SUB SWAP1 PUSH1 0x0 MSTORE PUSH1 0x20 PUSH1 0x0 KECCAK256 SWAP1 PUSH1 0x2 MUL ADD PUSH1 0x0 SWAP1 SWAP2 SWAP1 SWAP2 SWAP1 SWAP2 POP PUSH1 0x0 DUP3 ADD MLOAD DUP2 PUSH1 0x0 ADD PUSH1 0x0 PUSH2 0x100 EXP DUP2 SLOAD DUP2 PUSH20 0xFFFFFFFFFFFFFFFFFFFFFFFFFFFFFFFFFFFFFFFF MUL NOT AND SWAP1 DUP4 PUSH20 0xFFFFFFFFFFFFFFFFFFFFFFFFFFFFFFFFFFFFFFFF AND MUL OR SWAP1 SSTORE POP PUSH1 0x20 DUP3 ADD MLOAD DUP2 PUSH1 0x1 ADD SWAP1 DUP1 MLOAD SWAP1 PUSH1 0x20 ADD SWAP1 PUSH2 0x38D SWAP3 SWAP2 SWAP1 PUSH2 0x394 JUMP JUMPDEST POP POP POP POP POP JUMP JUMPDEST DUP3 DUP1 SLOAD PUSH2 0x3A0 SWAP1 PUSH2 0x83C JUMP JUMPDEST SWAP1 PUSH1 0x0 MSTORE PUSH1 0x20 PUSH1 0x0 KECCAK256 SWAP1 PUSH1 0x1F ADD PUSH1 0x20 SWAP1 DIV DUP2 ADD SWAP3 DUP3 PUSH2 0x3C2 JUMPI PUSH1 0x0 DUP6 SSTORE PUSH2 0x409 JUMP JUMPDEST DUP3 PUSH1 0x1F LT PUSH2 0x3DB JUMPI DUP1 MLOAD PUSH1 0xFF NOT AND DUP4 DUP1 ADD OR DUP6 SSTORE PUSH2 0x409 JUMP JUMPDEST DUP3 DUP1 ADD PUSH1 0x1 ADD DUP6 SSTORE DUP3 ISZERO PUSH2 0x409 JUMPI SWAP2 DUP3 ADD JUMPDEST DUP3 DUP2 GT ISZERO PUSH2 0x408 JUMPI DUP3 MLOAD DUP3 SSTORE SWAP2 PUSH1 0x20 ADD SWAP2 SWAP1 PUSH1 0x1 ADD SWAP1 PUSH2 0x3ED JUMP JUMPDEST JUMPDEST POP SWAP1 POP PUSH2 0x416 SWAP2 SWAP1 PUSH2 0x41A JUMP JUMPDEST POP SWAP1 JUMP JUMPDEST JUMPDEST DUP1 DUP3 GT ISZERO PUSH2 0x433 JUMPI PUSH1 0x0 DUP2 PUSH1 0x0 SWAP1 SSTORE POP PUSH1 0x1 ADD PUSH2 0x41B JUMP JUMPDEST POP SWAP1 JUMP JUMPDEST PUSH1 0x0 PUSH2 0x44A PUSH2 0x445 DUP5 PUSH2 0x727 JUMP JUMPDEST PUSH2 0x702 JUMP JUMPDEST SWAP1 POP DUP3 DUP2 MSTORE PUSH1 0x20 DUP2 ADD DUP5 DUP5 DUP5 ADD GT ISZERO PUSH2 0x466 JUMPI PUSH2 0x465 PUSH2 0x902 JUMP JUMPDEST JUMPDEST PUSH2 0x471 DUP5 DUP3 DUP6 PUSH2 0x7FA JUMP JUMPDEST POP SWAP4 SWAP3 POP POP POP JUMP JUMPDEST PUSH1 0x0 DUP2 CALLDATALOAD SWAP1 POP PUSH2 0x488 DUP2 PUSH2 0x922 JUMP JUMPDEST SWAP3 SWAP2 POP POP JUMP JUMPDEST PUSH1 0x0 DUP3 PUSH1 0x1F DUP4 ADD SLT PUSH2 0x4A3 JUMPI PUSH2 0x4A2 PUSH2 0x8FD JUMP JUMPDEST JUMPDEST DUP2 CALLDATALOAD PUSH2 0x4B3 DUP5 DUP3 PUSH1 0x20 DUP7 ADD PUSH2 0x437 JUMP JUMPDEST SWAP2 POP POP SWAP3 SWAP2 POP POP JUMP JUMPDEST PUSH1 0x0 DUP2 CALLDATALOAD SWAP1 POP PUSH2 0x4CB DUP2 PUSH2 0x939 JUMP JUMPDEST SWAP3 SWAP2 POP POP JUMP JUMPDEST PUSH1 0x0 DUP1 PUSH1 0x40 DUP4 DUP6 SUB SLT ISZERO PUSH2 0x4E8 JUMPI PUSH2 0x4E7 PUSH2 0x90C JUMP JUMPDEST JUMPDEST PUSH1 0x0 PUSH2 0x4F6 DUP6 DUP3 DUP7 ADD PUSH2 0x479 JUMP JUMPDEST SWAP3 POP POP PUSH1 0x20 DUP4 ADD CALLDATALOAD PUSH8 0xFFFFFFFFFFFFFFFF DUP2 GT ISZERO PUSH2 0x517 JUMPI PUSH2 0x516 PUSH2 0x907 JUMP JUMPDEST JUMPDEST PUSH2 0x523 DUP6 DUP3 DUP7 ADD PUSH2 0x48E JUMP JUMPDEST SWAP2 POP POP SWAP3 POP SWAP3 SWAP1 POP JUMP JUMPDEST PUSH1 0x0 PUSH1 0x20 DUP3 DUP5 SUB SLT ISZERO PUSH2 0x543 JUMPI PUSH2 0x542 PUSH2 0x90C JUMP JUMPDEST JUMPDEST PUSH1 0x0 PUSH2 0x551 DUP5 DUP3 DUP6 ADD PUSH2 0x4BC JUMP JUMPDEST SWAP2 POP POP SWAP3 SWAP2 POP POP JUMP JUMPDEST PUSH1 0x0 PUSH2 0x566 DUP4 DUP4 PUSH2 0x673 JUMP JUMPDEST SWAP1 POP SWAP3 SWAP2 POP POP JUMP JUMPDEST PUSH2 0x577 DUP2 PUSH2 0x7BE JUMP JUMPDEST DUP3 MSTORE POP POP JUMP JUMPDEST PUSH2 0x586 DUP2 PUSH2 0x7BE JUMP JUMPDEST DUP3 MSTORE POP POP JUMP JUMPDEST PUSH1 0x0 PUSH2 0x597 DUP3 PUSH2 0x768 JUMP JUMPDEST PUSH2 0x5A1 DUP2 DUP6 PUSH2 0x78B JUMP JUMPDEST SWAP4 POP DUP4 PUSH1 0x20 DUP3 MUL DUP6 ADD PUSH2 0x5B3 DUP6 PUSH2 0x758 JUMP JUMPDEST DUP1 PUSH1 0x0 JUMPDEST DUP6 DUP2 LT ISZERO PUSH2 0x5EF JUMPI DUP5 DUP5 SUB DUP10 MSTORE DUP2 MLOAD PUSH2 0x5D0 DUP6 DUP3 PUSH2 0x55A JUMP JUMPDEST SWAP5 POP PUSH2 0x5DB DUP4 PUSH2 0x77E JUMP JUMPDEST SWAP3 POP PUSH1 0x20 DUP11 ADD SWAP10 POP POP PUSH1 0x1 DUP2 ADD SWAP1 POP PUSH2 0x5B7 JUMP JUMPDEST POP DUP3 SWAP8 POP DUP8 SWAP6 POP POP POP POP POP POP SWAP3 SWAP2 POP POP JUMP JUMPDEST PUSH1 0x0 PUSH2 0x60C DUP3 PUSH2 0x773 JUMP JUMPDEST PUSH2 0x616 DUP2 DUP6 PUSH2 0x79C JUMP JUMPDEST SWAP4 POP PUSH2 0x626 DUP2 DUP6 PUSH1 0x20 DUP7 ADD PUSH2 0x809 JUMP JUMPDEST PUSH2 0x62F DUP2 PUSH2 0x911 JUMP JUMPDEST DUP5 ADD SWAP2 POP POP SWAP3 SWAP2 POP POP JUMP JUMPDEST PUSH1 0x0 PUSH2 0x645 DUP3 PUSH2 0x773 JUMP JUMPDEST PUSH2 0x64F DUP2 DUP6 PUSH2 0x7AD JUMP JUMPDEST SWAP4 POP PUSH2 0x65F DUP2 DUP6 PUSH1 0x20 DUP7 ADD PUSH2 0x809 JUMP JUMPDEST PUSH2 0x668 DUP2 PUSH2 0x911 JUMP JUMPDEST DUP5 ADD SWAP2 POP POP SWAP3 SWAP2 POP POP JUMP JUMPDEST PUSH1 0x0 PUSH1 0x40 DUP4 ADD PUSH1 0x0 DUP4 ADD MLOAD PUSH2 0x68B PUSH1 0x0 DUP7 ADD DUP3 PUSH2 0x56E JUMP JUMPDEST POP PUSH1 0x20 DUP4 ADD MLOAD DUP5 DUP3 SUB PUSH1 0x20 DUP7 ADD MSTORE PUSH2 0x6A3 DUP3 DUP3 PUSH2 0x601 JUMP JUMPDEST SWAP2 POP POP DUP1 SWAP2 POP POP SWAP3 SWAP2 POP POP JUMP JUMPDEST PUSH1 0x0 PUSH1 0x40 DUP3 ADD SWAP1 POP PUSH2 0x6C5 PUSH1 0x0 DUP4 ADD DUP6 PUSH2 0x57D JUMP JUMPDEST DUP2 DUP2 SUB PUSH1 0x20 DUP4 ADD MSTORE PUSH2 0x6D7 DUP2 DUP5 PUSH2 0x63A JUMP JUMPDEST SWAP1 POP SWAP4 SWAP3 POP POP POP JUMP JUMPDEST PUSH1 0x0 PUSH1 0x20 DUP3 ADD SWAP1 POP DUP2 DUP2 SUB PUSH1 0x0 DUP4 ADD MSTORE PUSH2 0x6FA DUP2 DUP5 PUSH2 0x58C JUMP JUMPDEST SWAP1 POP SWAP3 SWAP2 POP POP JUMP JUMPDEST PUSH1 0x0 PUSH2 0x70C PUSH2 0x71D JUMP JUMPDEST SWAP1 POP PUSH2 0x718 DUP3 DUP3 PUSH2 0x86E JUMP JUMPDEST SWAP2 SWAP1 POP JUMP JUMPDEST PUSH1 0x0 PUSH1 0x40 MLOAD SWAP1 POP SWAP1 JUMP JUMPDEST PUSH1 0x0 PUSH8 0xFFFFFFFFFFFFFFFF DUP3 GT ISZERO PUSH2 0x742 JUMPI PUSH2 0x741 PUSH2 0x8CE JUMP JUMPDEST JUMPDEST PUSH2 0x74B DUP3 PUSH2 0x911 JUMP JUMPDEST SWAP1 POP PUSH1 0x20 DUP2 ADD SWAP1 POP SWAP2 SWAP1 POP JUMP JUMPDEST PUSH1 0x0 DUP2 SWAP1 POP PUSH1 0x20 DUP3 ADD SWAP1 POP SWAP2 SWAP1 POP JUMP JUMPDEST PUSH1 0x0 DUP2 MLOAD SWAP1 POP SWAP2 SWAP1 POP JUMP JUMPDEST PUSH1 0x0 DUP2 MLOAD SWAP1 POP SWAP2 SWAP1 POP JUMP JUMPDEST PUSH1 0x0 PUSH1 0x20 DUP3 ADD SWAP1 POP SWAP2 SWAP1 POP JUMP JUMPDEST PUSH1 0x0 DUP3 DUP3 MSTORE PUSH1 0x20 DUP3 ADD SWAP1 POP SWAP3 SWAP2 POP POP JUMP JUMPDEST PUSH1 0x0 DUP3 DUP3 MSTORE PUSH1 0x20 DUP3 ADD SWAP1 POP SWAP3 SWAP2 POP POP JUMP JUMPDEST PUSH1 0x0 DUP3 DUP3 MSTORE PUSH1 0x20 DUP3 ADD SWAP1 POP SWAP3 SWAP2 POP POP JUMP JUMPDEST PUSH1 0x0 PUSH2 0x7C9 DUP3 PUSH2 0x7D0 JUMP JUMPDEST SWAP1 POP SWAP2 SWAP1 POP JUMP JUMPDEST PUSH1 0x0 PUSH20 0xFFFFFFFFFFFFFFFFFFFFFFFFFFFFFFFFFFFFFFFF DUP3 AND SWAP1 POP SWAP2 SWAP1 POP JUMP JUMPDEST PUSH1 0x0 DUP2 SWAP1 POP SWAP2 SWAP1 POP JUMP JUMPDEST DUP3 DUP2 DUP4 CALLDATACOPY PUSH1 0x0 DUP4 DUP4 ADD MSTORE POP POP POP JUMP JUMPDEST PUSH1 0x0 JUMPDEST DUP4 DUP2 LT ISZERO PUSH2 0x827 JUMPI DUP1 DUP3 ADD MLOAD DUP2 DUP5 ADD MSTORE PUSH1 0x20 DUP2 ADD SWAP1 POP PUSH2 0x80C JUMP JUMPDEST DUP4 DUP2 GT ISZERO PUSH2 0x836 JUMPI PUSH1 0x0 DUP5 DUP5 ADD MSTORE JUMPDEST POP POP POP POP JUMP JUMPDEST PUSH1 0x0 PUSH1 0x2 DUP3 DIV SWAP1 POP PUSH1 0x1 DUP3 AND DUP1 PUSH2 0x854 JUMPI PUSH1 0x7F DUP3 AND SWAP2 POP JUMPDEST PUSH1 0x20 DUP3 LT DUP2 EQ ISZERO PUSH2 0x868 JUMPI PUSH2 0x867 PUSH2 0x89F JUMP JUMPDEST JUMPDEST POP SWAP2 SWAP1 POP JUMP JUMPDEST PUSH2 0x877 DUP3 PUSH2 0x911 JUMP JUMPDEST DUP2 ADD DUP2 DUP2 LT PUSH8 0xFFFFFFFFFFFFFFFF DUP3 GT OR ISZERO PUSH2 0x896 JUMPI PUSH2 0x895 PUSH2 0x8CE JUMP JUMPDEST JUMPDEST DUP1 PUSH1 0x40 MSTORE POP POP POP JUMP JUMPDEST PUSH32 0x4E487B7100000000000000000000000000000000000000000000000000000000 PUSH1 0x0 MSTORE PUSH1 0x22 PUSH1 0x4 MSTORE PUSH1 0x24 PUSH1 0x0 REVERT JUMPDEST PUSH32 0x4E487B7100000000000000000000000000000000000000000000000000000000 PUSH1 0x0 MSTORE PUSH1 0x41 PUSH1 0x4 MSTORE PUSH1 0x24 PUSH1 0x0 REVERT JUMPDEST PUSH1 0x0 DUP1 REVERT JUMPDEST PUSH1 0x0 DUP1 REVERT JUMPDEST PUSH1 0x0 DUP1 REVERT JUMPDEST PUSH1 0x0 DUP1 REVERT JUMPDEST PUSH1 0x0 PUSH1 0x1F NOT PUSH1 0x1F DUP4 ADD AND SWAP1 POP SWAP2 SWAP1 POP JUMP JUMPDEST PUSH2 0x92B DUP2 PUSH2 0x7BE JUMP JUMPDEST DUP2 EQ PUSH2 0x936 JUMPI PUSH1 0x0 DUP1 REVERT JUMPDEST POP JUMP JUMPDEST PUSH2 0x942 DUP2 PUSH2 0x7F0 JUMP JUMPDEST DUP2 EQ PUSH2 0x94D JUMPI PUSH1 0x0 DUP1 REVERT JUMPDEST POP JUMP INVALID LOG2 PUSH5 0x6970667358 0x22 SLT KECCAK256 0xC3 0xEB 0xA8 0x23 0xC4 0xD7 DUP5 0xD0 PUSH22 0x7A1B668A9601A2105A6883929A1A896627FE026DB746 0xB0 PUSH5 0x736F6C6343 STOP ADDMOD SMOD STOP CALLER "
				},
				"gasEstimates": {
					"creation": {
						"codeDepositCost": "487600",
						"executionCost": "524",
						"totalCost": "488124"
					},
					"external": {
						"addTask(address,string)": "infinite",
						"getList()": "infinite",
						"list(uint256)": "infinite"
					}
				},
				"methodIdentifiers": {
					"addTask(address,string)": "bc6d30ee",
					"getList()": "942b765a",
					"list(uint256)": "80c9419e"
				}
			},
			"storageLayout": {
				"storage": [
					{
						"astId": 10,
						"contract": "todoList.sol:TodoListData",
						"label": "list",
						"offset": 0,
						"slot": "0",
						"type": "t_array(t_struct(Task)6_storage)dyn_storage"
					}
				],
				"types": {
					"t_address": {
						"encoding": "inplace",
						"label": "address",
						"numberOfBytes": "20"
					},
					"t_array(t_struct(Task)6_storage)dyn_storage": {
						"base": "t_struct(Task)6_storage",
						"encoding": "dynamic_array",
						"label": "struct TodoListData.Task[]",
						"numberOfBytes": "32"
					},
					"t_string_storage": {
						"encoding": "bytes",
						"label": "string",
						"numberOfBytes": "32"
					},
					"t_struct(Task)6_storage": {
						"encoding": "inplace",
						"label": "struct TodoListData.Task",
						"members": [
							{
								"astId": 3,
								"contract": "todoList.sol:TodoListData",
								"label": "adr",
								"offset": 0,
								"slot": "0",
								"type": "t_address"
							},
							{
								"astId": 5,
								"contract": "todoList.sol:TodoListData",
								"label": "value",
								"offset": 0,
								"slot": "1",
								"type": "t_string_storage"
							}
						],
						"numberOfBytes": "64"
					}
				}
			},
			"userdoc": {
				"kind": "user",
				"methods": {},
				"version": 1
			}
		}
	}
}