{
	"string.sol": {
		"StringTest": {
			"abi": [
				{
					"inputs": [
						{
							"internalType": "string",
							"name": "s",
							"type": "string"
						}
					],
					"name": "stringToInt",
					"outputs": [
						{
							"internalType": "uint256",
							"name": "",
							"type": "uint256"
						}
					],
					"stateMutability": "pure",
					"type": "function"
				}
			],
			"devdoc": {
				"kind": "dev",
				"methods": {},
				"version": 1
			},
			"evm": {
				"assembly": "    /* \"string.sol\":60:466  contract StringTest {\r... */\n  mstore(0x40, 0x80)\n  callvalue\n  dup1\n  iszero\n  tag_1\n  jumpi\n  0x00\n  dup1\n  revert\ntag_1:\n  pop\n  dataSize(sub_0)\n  dup1\n  dataOffset(sub_0)\n  0x00\n  codecopy\n  0x00\n  return\nstop\n\nsub_0: assembly {\n        /* \"string.sol\":60:466  contract StringTest {\r... */\n      mstore(0x40, 0x80)\n      callvalue\n      dup1\n      iszero\n      tag_1\n      jumpi\n      0x00\n      dup1\n      revert\n    tag_1:\n      pop\n      jumpi(tag_2, lt(calldatasize, 0x04))\n      shr(0xe0, calldataload(0x00))\n      dup1\n      0xf8a02d84\n      eq\n      tag_3\n      jumpi\n    tag_2:\n      0x00\n      dup1\n      revert\n        /* \"string.sol\":93:463  function stringToInt(string memory s) public pure returns (uint){\r... */\n    tag_3:\n      tag_4\n      0x04\n      dup1\n      calldatasize\n      sub\n      dup2\n      add\n      swap1\n      tag_5\n      swap2\n      swap1\n      tag_6\n      jump\t// in\n    tag_5:\n      tag_7\n      jump\t// in\n    tag_4:\n      mload(0x40)\n      tag_8\n      swap2\n      swap1\n      tag_9\n      jump\t// in\n    tag_8:\n      mload(0x40)\n      dup1\n      swap2\n      sub\n      swap1\n      return\n    tag_7:\n        /* \"string.sol\":152:156  uint */\n      0x00\n        /* \"string.sol\":168:182  bytes memory b */\n      dup1\n        /* \"string.sol\":191:192  s */\n      dup3\n        /* \"string.sol\":168:193  bytes memory b = bytes(s) */\n      swap1\n      pop\n        /* \"string.sol\":204:215  uint result */\n      0x00\n        /* \"string.sol\":235:244  uint256 i */\n      dup1\n        /* \"string.sol\":230:432  for (uint256 i = 0; i < b.length; i++) {\r... */\n    tag_11:\n        /* \"string.sol\":254:255  b */\n      dup3\n        /* \"string.sol\":254:262  b.length */\n      mload\n        /* \"string.sol\":250:251  i */\n      dup2\n        /* \"string.sol\":250:262  i < b.length */\n      lt\n        /* \"string.sol\":230:432  for (uint256 i = 0; i < b.length; i++) {\r... */\n      iszero\n      tag_12\n      jumpi\n        /* \"string.sol\":284:293  uint256 c */\n      0x00\n        /* \"string.sol\":310:311  b */\n      dup4\n        /* \"string.sol\":312:313  i */\n      dup3\n        /* \"string.sol\":310:314  b[i] */\n      dup2\n      mload\n      dup2\n      lt\n      tag_14\n      jumpi\n      tag_15\n      tag_16\n      jump\t// in\n    tag_15:\n    tag_14:\n      0x20\n      add\n      add\n      mload\n      0xf8\n      shr\n      0xf8\n      shl\n        /* \"string.sol\":304:315  uint8(b[i]) */\n      0xf8\n      shr\n        /* \"string.sol\":296:316  uint256(uint8(b[i])) */\n      0xff\n      and\n        /* \"string.sol\":284:316  uint256 c = uint256(uint8(b[i])) */\n      swap1\n      pop\n        /* \"string.sol\":340:342  48 */\n      0x30\n        /* \"string.sol\":335:336  c */\n      dup2\n        /* \"string.sol\":335:342  c >= 48 */\n      lt\n      iszero\n        /* \"string.sol\":335:353  c >= 48 && c <= 57 */\n      dup1\n      iszero\n      tag_17\n      jumpi\n      pop\n        /* \"string.sol\":351:353  57 */\n      0x39\n        /* \"string.sol\":346:347  c */\n      dup2\n        /* \"string.sol\":346:353  c <= 57 */\n      gt\n      iszero\n        /* \"string.sol\":335:353  c >= 48 && c <= 57 */\n    tag_17:\n        /* \"string.sol\":331:421  if (c >= 48 && c <= 57) {\r... */\n      iszero\n      tag_18\n      jumpi\n        /* \"string.sol\":402:404  48 */\n      0x30\n        /* \"string.sol\":398:399  c */\n      dup2\n        /* \"string.sol\":398:404  c - 48 */\n      tag_19\n      swap2\n      swap1\n      tag_20\n      jump\t// in\n    tag_19:\n        /* \"string.sol\":392:394  10 */\n      0x0a\n        /* \"string.sol\":383:389  result */\n      dup5\n        /* \"string.sol\":383:394  result * 10 */\n      tag_21\n      swap2\n      swap1\n      tag_22\n      jump\t// in\n    tag_21:\n        /* \"string.sol\":383:405  result * 10 + (c - 48) */\n      tag_23\n      swap2\n      swap1\n      tag_24\n      jump\t// in\n    tag_23:\n        /* \"string.sol\":374:405  result = result * 10 + (c - 48) */\n      swap3\n      pop\n        /* \"string.sol\":331:421  if (c >= 48 && c <= 57) {\r... */\n    tag_18:\n        /* \"string.sol\":269:432  {\r... */\n      pop\n        /* \"string.sol\":264:267  i++ */\n      dup1\n      dup1\n      tag_25\n      swap1\n      tag_26\n      jump\t// in\n    tag_25:\n      swap2\n      pop\n      pop\n        /* \"string.sol\":230:432  for (uint256 i = 0; i < b.length; i++) {\r... */\n      jump(tag_11)\n    tag_12:\n      pop\n        /* \"string.sol\":449:455  result */\n      dup1\n        /* \"string.sol\":442:455  return result */\n      swap3\n      pop\n      pop\n      pop\n        /* \"string.sol\":93:463  function stringToInt(string memory s) public pure returns (uint){\r... */\n      swap2\n      swap1\n      pop\n      jump\t// out\n        /* \"#utility.yul\":7:419   */\n    tag_28:\n        /* \"#utility.yul\":85:90   */\n      0x00\n        /* \"#utility.yul\":110:176   */\n      tag_30\n        /* \"#utility.yul\":126:175   */\n      tag_31\n        /* \"#utility.yul\":168:174   */\n      dup5\n        /* \"#utility.yul\":126:175   */\n      tag_32\n      jump\t// in\n    tag_31:\n        /* \"#utility.yul\":110:176   */\n      tag_33\n      jump\t// in\n    tag_30:\n        /* \"#utility.yul\":101:176   */\n      swap1\n      pop\n        /* \"#utility.yul\":199:205   */\n      dup3\n        /* \"#utility.yul\":192:197   */\n      dup2\n        /* \"#utility.yul\":185:206   */\n      mstore\n        /* \"#utility.yul\":237:241   */\n      0x20\n        /* \"#utility.yul\":230:235   */\n      dup2\n        /* \"#utility.yul\":226:242   */\n      add\n        /* \"#utility.yul\":275:278   */\n      dup5\n        /* \"#utility.yul\":266:272   */\n      dup5\n        /* \"#utility.yul\":261:264   */\n      dup5\n        /* \"#utility.yul\":257:273   */\n      add\n        /* \"#utility.yul\":254:279   */\n      gt\n        /* \"#utility.yul\":251:363   */\n      iszero\n      tag_34\n      jumpi\n        /* \"#utility.yul\":282:361   */\n      tag_35\n      tag_36\n      jump\t// in\n    tag_35:\n        /* \"#utility.yul\":251:363   */\n    tag_34:\n        /* \"#utility.yul\":372:413   */\n      tag_37\n        /* \"#utility.yul\":406:412   */\n      dup5\n        /* \"#utility.yul\":401:404   */\n      dup3\n        /* \"#utility.yul\":396:399   */\n      dup6\n        /* \"#utility.yul\":372:413   */\n      tag_38\n      jump\t// in\n    tag_37:\n        /* \"#utility.yul\":91:419   */\n      pop\n        /* \"#utility.yul\":7:419   */\n      swap4\n      swap3\n      pop\n      pop\n      pop\n      jump\t// out\n        /* \"#utility.yul\":439:779   */\n    tag_39:\n        /* \"#utility.yul\":495:500   */\n      0x00\n        /* \"#utility.yul\":544:547   */\n      dup3\n        /* \"#utility.yul\":537:541   */\n      0x1f\n        /* \"#utility.yul\":529:535   */\n      dup4\n        /* \"#utility.yul\":525:542   */\n      add\n        /* \"#utility.yul\":521:548   */\n      slt\n        /* \"#utility.yul\":511:633   */\n      tag_41\n      jumpi\n        /* \"#utility.yul\":552:631   */\n      tag_42\n      tag_43\n      jump\t// in\n    tag_42:\n        /* \"#utility.yul\":511:633   */\n    tag_41:\n        /* \"#utility.yul\":669:675   */\n      dup2\n        /* \"#utility.yul\":656:676   */\n      calldataload\n        /* \"#utility.yul\":694:773   */\n      tag_44\n        /* \"#utility.yul\":769:772   */\n      dup5\n        /* \"#utility.yul\":761:767   */\n      dup3\n        /* \"#utility.yul\":754:758   */\n      0x20\n        /* \"#utility.yul\":746:752   */\n      dup7\n        /* \"#utility.yul\":742:759   */\n      add\n        /* \"#utility.yul\":694:773   */\n      tag_28\n      jump\t// in\n    tag_44:\n        /* \"#utility.yul\":685:773   */\n      swap2\n      pop\n        /* \"#utility.yul\":501:779   */\n      pop\n        /* \"#utility.yul\":439:779   */\n      swap3\n      swap2\n      pop\n      pop\n      jump\t// out\n        /* \"#utility.yul\":785:1294   */\n    tag_6:\n        /* \"#utility.yul\":854:860   */\n      0x00\n        /* \"#utility.yul\":903:905   */\n      0x20\n        /* \"#utility.yul\":891:900   */\n      dup3\n        /* \"#utility.yul\":882:889   */\n      dup5\n        /* \"#utility.yul\":878:901   */\n      sub\n        /* \"#utility.yul\":874:906   */\n      slt\n        /* \"#utility.yul\":871:990   */\n      iszero\n      tag_46\n      jumpi\n        /* \"#utility.yul\":909:988   */\n      tag_47\n      tag_48\n      jump\t// in\n    tag_47:\n        /* \"#utility.yul\":871:990   */\n    tag_46:\n        /* \"#utility.yul\":1057:1058   */\n      0x00\n        /* \"#utility.yul\":1046:1055   */\n      dup3\n        /* \"#utility.yul\":1042:1059   */\n      add\n        /* \"#utility.yul\":1029:1060   */\n      calldataload\n        /* \"#utility.yul\":1087:1105   */\n      0xffffffffffffffff\n        /* \"#utility.yul\":1079:1085   */\n      dup2\n        /* \"#utility.yul\":1076:1106   */\n      gt\n        /* \"#utility.yul\":1073:1190   */\n      iszero\n      tag_49\n      jumpi\n        /* \"#utility.yul\":1109:1188   */\n      tag_50\n      tag_51\n      jump\t// in\n    tag_50:\n        /* \"#utility.yul\":1073:1190   */\n    tag_49:\n        /* \"#utility.yul\":1214:1277   */\n      tag_52\n        /* \"#utility.yul\":1269:1276   */\n      dup5\n        /* \"#utility.yul\":1260:1266   */\n      dup3\n        /* \"#utility.yul\":1249:1258   */\n      dup6\n        /* \"#utility.yul\":1245:1267   */\n      add\n        /* \"#utility.yul\":1214:1277   */\n      tag_39\n      jump\t// in\n    tag_52:\n        /* \"#utility.yul\":1204:1277   */\n      swap2\n      pop\n        /* \"#utility.yul\":1000:1287   */\n      pop\n        /* \"#utility.yul\":785:1294   */\n      swap3\n      swap2\n      pop\n      pop\n      jump\t// out\n        /* \"#utility.yul\":1300:1418   */\n    tag_53:\n        /* \"#utility.yul\":1387:1411   */\n      tag_55\n        /* \"#utility.yul\":1405:1410   */\n      dup2\n        /* \"#utility.yul\":1387:1411   */\n      tag_56\n      jump\t// in\n    tag_55:\n        /* \"#utility.yul\":1382:1385   */\n      dup3\n        /* \"#utility.yul\":1375:1412   */\n      mstore\n        /* \"#utility.yul\":1300:1418   */\n      pop\n      pop\n      jump\t// out\n        /* \"#utility.yul\":1424:1646   */\n    tag_9:\n        /* \"#utility.yul\":1517:1521   */\n      0x00\n        /* \"#utility.yul\":1555:1557   */\n      0x20\n        /* \"#utility.yul\":1544:1553   */\n      dup3\n        /* \"#utility.yul\":1540:1558   */\n      add\n        /* \"#utility.yul\":1532:1558   */\n      swap1\n      pop\n        /* \"#utility.yul\":1568:1639   */\n      tag_58\n        /* \"#utility.yul\":1636:1637   */\n      0x00\n        /* \"#utility.yul\":1625:1634   */\n      dup4\n        /* \"#utility.yul\":1621:1638   */\n      add\n        /* \"#utility.yul\":1612:1618   */\n      dup5\n        /* \"#utility.yul\":1568:1639   */\n      tag_53\n      jump\t// in\n    tag_58:\n        /* \"#utility.yul\":1424:1646   */\n      swap3\n      swap2\n      pop\n      pop\n      jump\t// out\n        /* \"#utility.yul\":1652:1781   */\n    tag_33:\n        /* \"#utility.yul\":1686:1692   */\n      0x00\n        /* \"#utility.yul\":1713:1733   */\n      tag_60\n      tag_61\n      jump\t// in\n    tag_60:\n        /* \"#utility.yul\":1703:1733   */\n      swap1\n      pop\n        /* \"#utility.yul\":1742:1775   */\n      tag_62\n        /* \"#utility.yul\":1770:1774   */\n      dup3\n        /* \"#utility.yul\":1762:1768   */\n      dup3\n        /* \"#utility.yul\":1742:1775   */\n      tag_63\n      jump\t// in\n    tag_62:\n        /* \"#utility.yul\":1652:1781   */\n      swap2\n      swap1\n      pop\n      jump\t// out\n        /* \"#utility.yul\":1787:1862   */\n    tag_61:\n        /* \"#utility.yul\":1820:1826   */\n      0x00\n        /* \"#utility.yul\":1853:1855   */\n      0x40\n        /* \"#utility.yul\":1847:1856   */\n      mload\n        /* \"#utility.yul\":1837:1856   */\n      swap1\n      pop\n        /* \"#utility.yul\":1787:1862   */\n      swap1\n      jump\t// out\n        /* \"#utility.yul\":1868:2176   */\n    tag_32:\n        /* \"#utility.yul\":1930:1934   */\n      0x00\n        /* \"#utility.yul\":2020:2038   */\n      0xffffffffffffffff\n        /* \"#utility.yul\":2012:2018   */\n      dup3\n        /* \"#utility.yul\":2009:2039   */\n      gt\n        /* \"#utility.yul\":2006:2062   */\n      iszero\n      tag_66\n      jumpi\n        /* \"#utility.yul\":2042:2060   */\n      tag_67\n      tag_68\n      jump\t// in\n    tag_67:\n        /* \"#utility.yul\":2006:2062   */\n    tag_66:\n        /* \"#utility.yul\":2080:2109   */\n      tag_69\n        /* \"#utility.yul\":2102:2108   */\n      dup3\n        /* \"#utility.yul\":2080:2109   */\n      tag_70\n      jump\t// in\n    tag_69:\n        /* \"#utility.yul\":2072:2109   */\n      swap1\n      pop\n        /* \"#utility.yul\":2164:2168   */\n      0x20\n        /* \"#utility.yul\":2158:2162   */\n      dup2\n        /* \"#utility.yul\":2154:2169   */\n      add\n        /* \"#utility.yul\":2146:2169   */\n      swap1\n      pop\n        /* \"#utility.yul\":1868:2176   */\n      swap2\n      swap1\n      pop\n      jump\t// out\n        /* \"#utility.yul\":2182:2487   */\n    tag_24:\n        /* \"#utility.yul\":2222:2225   */\n      0x00\n        /* \"#utility.yul\":2241:2261   */\n      tag_72\n        /* \"#utility.yul\":2259:2260   */\n      dup3\n        /* \"#utility.yul\":2241:2261   */\n      tag_56\n      jump\t// in\n    tag_72:\n        /* \"#utility.yul\":2236:2261   */\n      swap2\n      pop\n        /* \"#utility.yul\":2275:2295   */\n      tag_73\n        /* \"#utility.yul\":2293:2294   */\n      dup4\n        /* \"#utility.yul\":2275:2295   */\n      tag_56\n      jump\t// in\n    tag_73:\n        /* \"#utility.yul\":2270:2295   */\n      swap3\n      pop\n        /* \"#utility.yul\":2429:2430   */\n      dup3\n        /* \"#utility.yul\":2361:2427   */\n      0xffffffffffffffffffffffffffffffffffffffffffffffffffffffffffffffff\n        /* \"#utility.yul\":2357:2431   */\n      sub\n        /* \"#utility.yul\":2354:2355   */\n      dup3\n        /* \"#utility.yul\":2351:2432   */\n      gt\n        /* \"#utility.yul\":2348:2455   */\n      iszero\n      tag_74\n      jumpi\n        /* \"#utility.yul\":2435:2453   */\n      tag_75\n      tag_76\n      jump\t// in\n    tag_75:\n        /* \"#utility.yul\":2348:2455   */\n    tag_74:\n        /* \"#utility.yul\":2479:2480   */\n      dup3\n        /* \"#utility.yul\":2476:2477   */\n      dup3\n        /* \"#utility.yul\":2472:2481   */\n      add\n        /* \"#utility.yul\":2465:2481   */\n      swap1\n      pop\n        /* \"#utility.yul\":2182:2487   */\n      swap3\n      swap2\n      pop\n      pop\n      jump\t// out\n        /* \"#utility.yul\":2493:2841   */\n    tag_22:\n        /* \"#utility.yul\":2533:2540   */\n      0x00\n        /* \"#utility.yul\":2556:2576   */\n      tag_78\n        /* \"#utility.yul\":2574:2575   */\n      dup3\n        /* \"#utility.yul\":2556:2576   */\n      tag_56\n      jump\t// in\n    tag_78:\n        /* \"#utility.yul\":2551:2576   */\n      swap2\n      pop\n        /* \"#utility.yul\":2590:2610   */\n      tag_79\n        /* \"#utility.yul\":2608:2609   */\n      dup4\n        /* \"#utility.yul\":2590:2610   */\n      tag_56\n      jump\t// in\n    tag_79:\n        /* \"#utility.yul\":2585:2610   */\n      swap3\n      pop\n        /* \"#utility.yul\":2778:2779   */\n      dup2\n        /* \"#utility.yul\":2710:2776   */\n      0xffffffffffffffffffffffffffffffffffffffffffffffffffffffffffffffff\n        /* \"#utility.yul\":2706:2780   */\n      div\n        /* \"#utility.yul\":2703:2704   */\n      dup4\n        /* \"#utility.yul\":2700:2781   */\n      gt\n        /* \"#utility.yul\":2695:2696   */\n      dup3\n        /* \"#utility.yul\":2688:2697   */\n      iszero\n        /* \"#utility.yul\":2681:2698   */\n      iszero\n        /* \"#utility.yul\":2677:2782   */\n      and\n        /* \"#utility.yul\":2674:2805   */\n      iszero\n      tag_80\n      jumpi\n        /* \"#utility.yul\":2785:2803   */\n      tag_81\n      tag_76\n      jump\t// in\n    tag_81:\n        /* \"#utility.yul\":2674:2805   */\n    tag_80:\n        /* \"#utility.yul\":2833:2834   */\n      dup3\n        /* \"#utility.yul\":2830:2831   */\n      dup3\n        /* \"#utility.yul\":2826:2835   */\n      mul\n        /* \"#utility.yul\":2815:2835   */\n      swap1\n      pop\n        /* \"#utility.yul\":2493:2841   */\n      swap3\n      swap2\n      pop\n      pop\n      jump\t// out\n        /* \"#utility.yul\":2847:3038   */\n    tag_20:\n        /* \"#utility.yul\":2887:2891   */\n      0x00\n        /* \"#utility.yul\":2907:2927   */\n      tag_83\n        /* \"#utility.yul\":2925:2926   */\n      dup3\n        /* \"#utility.yul\":2907:2927   */\n      tag_56\n      jump\t// in\n    tag_83:\n        /* \"#utility.yul\":2902:2927   */\n      swap2\n      pop\n        /* \"#utility.yul\":2941:2961   */\n      tag_84\n        /* \"#utility.yul\":2959:2960   */\n      dup4\n        /* \"#utility.yul\":2941:2961   */\n      tag_56\n      jump\t// in\n    tag_84:\n        /* \"#utility.yul\":2936:2961   */\n      swap3\n      pop\n        /* \"#utility.yul\":2980:2981   */\n      dup3\n        /* \"#utility.yul\":2977:2978   */\n      dup3\n        /* \"#utility.yul\":2974:2982   */\n      lt\n        /* \"#utility.yul\":2971:3005   */\n      iszero\n      tag_85\n      jumpi\n        /* \"#utility.yul\":2985:3003   */\n      tag_86\n      tag_76\n      jump\t// in\n    tag_86:\n        /* \"#utility.yul\":2971:3005   */\n    tag_85:\n        /* \"#utility.yul\":3030:3031   */\n      dup3\n        /* \"#utility.yul\":3027:3028   */\n      dup3\n        /* \"#utility.yul\":3023:3032   */\n      sub\n        /* \"#utility.yul\":3015:3032   */\n      swap1\n      pop\n        /* \"#utility.yul\":2847:3038   */\n      swap3\n      swap2\n      pop\n      pop\n      jump\t// out\n        /* \"#utility.yul\":3044:3121   */\n    tag_56:\n        /* \"#utility.yul\":3081:3088   */\n      0x00\n        /* \"#utility.yul\":3110:3115   */\n      dup2\n        /* \"#utility.yul\":3099:3115   */\n      swap1\n      pop\n        /* \"#utility.yul\":3044:3121   */\n      swap2\n      swap1\n      pop\n      jump\t// out\n        /* \"#utility.yul\":3127:3281   */\n    tag_38:\n        /* \"#utility.yul\":3211:3217   */\n      dup3\n        /* \"#utility.yul\":3206:3209   */\n      dup2\n        /* \"#utility.yul\":3201:3204   */\n      dup4\n        /* \"#utility.yul\":3188:3218   */\n      calldatacopy\n        /* \"#utility.yul\":3273:3274   */\n      0x00\n        /* \"#utility.yul\":3264:3270   */\n      dup4\n        /* \"#utility.yul\":3259:3262   */\n      dup4\n        /* \"#utility.yul\":3255:3271   */\n      add\n        /* \"#utility.yul\":3248:3275   */\n      mstore\n        /* \"#utility.yul\":3127:3281   */\n      pop\n      pop\n      pop\n      jump\t// out\n        /* \"#utility.yul\":3287:3568   */\n    tag_63:\n        /* \"#utility.yul\":3370:3397   */\n      tag_90\n        /* \"#utility.yul\":3392:3396   */\n      dup3\n        /* \"#utility.yul\":3370:3397   */\n      tag_70\n      jump\t// in\n    tag_90:\n        /* \"#utility.yul\":3362:3368   */\n      dup2\n        /* \"#utility.yul\":3358:3398   */\n      add\n        /* \"#utility.yul\":3500:3506   */\n      dup2\n        /* \"#utility.yul\":3488:3498   */\n      dup2\n        /* \"#utility.yul\":3485:3507   */\n      lt\n        /* \"#utility.yul\":3464:3482   */\n      0xffffffffffffffff\n        /* \"#utility.yul\":3452:3462   */\n      dup3\n        /* \"#utility.yul\":3449:3483   */\n      gt\n        /* \"#utility.yul\":3446:3508   */\n      or\n        /* \"#utility.yul\":3443:3531   */\n      iszero\n      tag_91\n      jumpi\n        /* \"#utility.yul\":3511:3529   */\n      tag_92\n      tag_68\n      jump\t// in\n    tag_92:\n        /* \"#utility.yul\":3443:3531   */\n    tag_91:\n        /* \"#utility.yul\":3551:3561   */\n      dup1\n        /* \"#utility.yul\":3547:3549   */\n      0x40\n        /* \"#utility.yul\":3540:3562   */\n      mstore\n        /* \"#utility.yul\":3330:3568   */\n      pop\n        /* \"#utility.yul\":3287:3568   */\n      pop\n      pop\n      jump\t// out\n        /* \"#utility.yul\":3574:3807   */\n    tag_26:\n        /* \"#utility.yul\":3613:3616   */\n      0x00\n        /* \"#utility.yul\":3636:3660   */\n      tag_94\n        /* \"#utility.yul\":3654:3659   */\n      dup3\n        /* \"#utility.yul\":3636:3660   */\n      tag_56\n      jump\t// in\n    tag_94:\n        /* \"#utility.yul\":3627:3660   */\n      swap2\n      pop\n        /* \"#utility.yul\":3682:3748   */\n      0xffffffffffffffffffffffffffffffffffffffffffffffffffffffffffffffff\n        /* \"#utility.yul\":3675:3680   */\n      dup3\n        /* \"#utility.yul\":3672:3749   */\n      eq\n        /* \"#utility.yul\":3669:3772   */\n      iszero\n      tag_95\n      jumpi\n        /* \"#utility.yul\":3752:3770   */\n      tag_96\n      tag_76\n      jump\t// in\n    tag_96:\n        /* \"#utility.yul\":3669:3772   */\n    tag_95:\n        /* \"#utility.yul\":3799:3800   */\n      0x01\n        /* \"#utility.yul\":3792:3797   */\n      dup3\n        /* \"#utility.yul\":3788:3801   */\n      add\n        /* \"#utility.yul\":3781:3801   */\n      swap1\n      pop\n        /* \"#utility.yul\":3574:3807   */\n      swap2\n      swap1\n      pop\n      jump\t// out\n        /* \"#utility.yul\":3813:3993   */\n    tag_76:\n        /* \"#utility.yul\":3861:3938   */\n      0x4e487b7100000000000000000000000000000000000000000000000000000000\n        /* \"#utility.yul\":3858:3859   */\n      0x00\n        /* \"#utility.yul\":3851:3939   */\n      mstore\n        /* \"#utility.yul\":3958:3962   */\n      0x11\n        /* \"#utility.yul\":3955:3956   */\n      0x04\n        /* \"#utility.yul\":3948:3963   */\n      mstore\n        /* \"#utility.yul\":3982:3986   */\n      0x24\n        /* \"#utility.yul\":3979:3980   */\n      0x00\n        /* \"#utility.yul\":3972:3987   */\n      revert\n        /* \"#utility.yul\":3999:4179   */\n    tag_16:\n        /* \"#utility.yul\":4047:4124   */\n      0x4e487b7100000000000000000000000000000000000000000000000000000000\n        /* \"#utility.yul\":4044:4045   */\n      0x00\n        /* \"#utility.yul\":4037:4125   */\n      mstore\n        /* \"#utility.yul\":4144:4148   */\n      0x32\n        /* \"#utility.yul\":4141:4142   */\n      0x04\n        /* \"#utility.yul\":4134:4149   */\n      mstore\n        /* \"#utility.yul\":4168:4172   */\n      0x24\n        /* \"#utility.yul\":4165:4166   */\n      0x00\n        /* \"#utility.yul\":4158:4173   */\n      revert\n        /* \"#utility.yul\":4185:4365   */\n    tag_68:\n        /* \"#utility.yul\":4233:4310   */\n      0x4e487b7100000000000000000000000000000000000000000000000000000000\n        /* \"#utility.yul\":4230:4231   */\n      0x00\n        /* \"#utility.yul\":4223:4311   */\n      mstore\n        /* \"#utility.yul\":4330:4334   */\n      0x41\n        /* \"#utility.yul\":4327:4328   */\n      0x04\n        /* \"#utility.yul\":4320:4335   */\n      mstore\n        /* \"#utility.yul\":4354:4358   */\n      0x24\n        /* \"#utility.yul\":4351:4352   */\n      0x00\n        /* \"#utility.yul\":4344:4359   */\n      revert\n        /* \"#utility.yul\":4371:4488   */\n    tag_43:\n        /* \"#utility.yul\":4480:4481   */\n      0x00\n        /* \"#utility.yul\":4477:4478   */\n      dup1\n        /* \"#utility.yul\":4470:4482   */\n      revert\n        /* \"#utility.yul\":4494:4611   */\n    tag_36:\n        /* \"#utility.yul\":4603:4604   */\n      0x00\n        /* \"#utility.yul\":4600:4601   */\n      dup1\n        /* \"#utility.yul\":4593:4605   */\n      revert\n        /* \"#utility.yul\":4617:4734   */\n    tag_51:\n        /* \"#utility.yul\":4726:4727   */\n      0x00\n        /* \"#utility.yul\":4723:4724   */\n      dup1\n        /* \"#utility.yul\":4716:4728   */\n      revert\n        /* \"#utility.yul\":4740:4857   */\n    tag_48:\n        /* \"#utility.yul\":4849:4850   */\n      0x00\n        /* \"#utility.yul\":4846:4847   */\n      dup1\n        /* \"#utility.yul\":4839:4851   */\n      revert\n        /* \"#utility.yul\":4863:4965   */\n    tag_70:\n        /* \"#utility.yul\":4904:4910   */\n      0x00\n        /* \"#utility.yul\":4955:4957   */\n      0x1f\n        /* \"#utility.yul\":4951:4958   */\n      not\n        /* \"#utility.yul\":4946:4948   */\n      0x1f\n        /* \"#utility.yul\":4939:4944   */\n      dup4\n        /* \"#utility.yul\":4935:4949   */\n      add\n        /* \"#utility.yul\":4931:4959   */\n      and\n        /* \"#utility.yul\":4921:4959   */\n      swap1\n      pop\n        /* \"#utility.yul\":4863:4965   */\n      swap2\n      swap1\n      pop\n      jump\t// out\n\n    auxdata: 0xa2646970667358221220da57200d4929e049863fa640bea008a42a06a55f5f163b7c0b251bd5c69dbbe464736f6c63430008070033\n}\n",
				"bytecode": {
					"linkReferences": {},
					"object": "608060405234801561001057600080fd5b50610490806100206000396000f3fe608060405234801561001057600080fd5b506004361061002b5760003560e01c8063f8a02d8414610030575b600080fd5b61004a60048036038101906100459190610168565b610060565b60405161005791906101c0565b60405180910390f35b6000808290506000805b82518110156100ed576000838281518110610088576100876103d7565b5b602001015160f81c60f81b60f81c60ff169050603081101580156100ad575060398111155b156100d9576030816100bf91906102e1565b600a846100cc9190610287565b6100d69190610231565b92505b5080806100e59061035f565b91505061006a565b508092505050919050565b600061010b61010684610200565b6101db565b9050828152602081018484840111156101275761012661043a565b5b61013284828561031f565b509392505050565b600082601f83011261014f5761014e610435565b5b813561015f8482602086016100f8565b91505092915050565b60006020828403121561017e5761017d610444565b5b600082013567ffffffffffffffff81111561019c5761019b61043f565b5b6101a88482850161013a565b91505092915050565b6101ba81610315565b82525050565b60006020820190506101d560008301846101b1565b92915050565b60006101e56101f6565b90506101f1828261032e565b919050565b6000604051905090565b600067ffffffffffffffff82111561021b5761021a610406565b5b61022482610449565b9050602081019050919050565b600061023c82610315565b915061024783610315565b9250827fffffffffffffffffffffffffffffffffffffffffffffffffffffffffffffffff0382111561027c5761027b6103a8565b5b828201905092915050565b600061029282610315565b915061029d83610315565b9250817fffffffffffffffffffffffffffffffffffffffffffffffffffffffffffffffff04831182151516156102d6576102d56103a8565b5b828202905092915050565b60006102ec82610315565b91506102f783610315565b92508282101561030a576103096103a8565b5b828203905092915050565b6000819050919050565b82818337600083830152505050565b61033782610449565b810181811067ffffffffffffffff8211171561035657610355610406565b5b80604052505050565b600061036a82610315565b91507fffffffffffffffffffffffffffffffffffffffffffffffffffffffffffffffff82141561039d5761039c6103a8565b5b600182019050919050565b7f4e487b7100000000000000000000000000000000000000000000000000000000600052601160045260246000fd5b7f4e487b7100000000000000000000000000000000000000000000000000000000600052603260045260246000fd5b7f4e487b7100000000000000000000000000000000000000000000000000000000600052604160045260246000fd5b600080fd5b600080fd5b600080fd5b600080fd5b6000601f19601f830116905091905056fea2646970667358221220da57200d4929e049863fa640bea008a42a06a55f5f163b7c0b251bd5c69dbbe464736f6c63430008070033",
					"opcodes": "PUSH1 0x80 PUSH1 0x40 MSTORE CALLVALUE DUP1 ISZERO PUSH2 0x10 JUMPI PUSH1 0x0 DUP1 REVERT JUMPDEST POP PUSH2 0x490 DUP1 PUSH2 0x20 PUSH1 0x0 CODECOPY PUSH1 0x0 RETURN INVALID PUSH1 0x80 PUSH1 0x40 MSTORE CALLVALUE DUP1 ISZERO PUSH2 0x10 JUMPI PUSH1 0x0 DUP1 REVERT JUMPDEST POP PUSH1 0x4 CALLDATASIZE LT PUSH2 0x2B JUMPI PUSH1 0x0 CALLDATALOAD PUSH1 0xE0 SHR DUP1 PUSH4 0xF8A02D84 EQ PUSH2 0x30 JUMPI JUMPDEST PUSH1 0x0 DUP1 REVERT JUMPDEST PUSH2 0x4A PUSH1 0x4 DUP1 CALLDATASIZE SUB DUP2 ADD SWAP1 PUSH2 0x45 SWAP2 SWAP1 PUSH2 0x168 JUMP JUMPDEST PUSH2 0x60 JUMP JUMPDEST PUSH1 0x40 MLOAD PUSH2 0x57 SWAP2 SWAP1 PUSH2 0x1C0 JUMP JUMPDEST PUSH1 0x40 MLOAD DUP1 SWAP2 SUB SWAP1 RETURN JUMPDEST PUSH1 0x0 DUP1 DUP3 SWAP1 POP PUSH1 0x0 DUP1 JUMPDEST DUP3 MLOAD DUP2 LT ISZERO PUSH2 0xED JUMPI PUSH1 0x0 DUP4 DUP3 DUP2 MLOAD DUP2 LT PUSH2 0x88 JUMPI PUSH2 0x87 PUSH2 0x3D7 JUMP JUMPDEST JUMPDEST PUSH1 0x20 ADD ADD MLOAD PUSH1 0xF8 SHR PUSH1 0xF8 SHL PUSH1 0xF8 SHR PUSH1 0xFF AND SWAP1 POP PUSH1 0x30 DUP2 LT ISZERO DUP1 ISZERO PUSH2 0xAD JUMPI POP PUSH1 0x39 DUP2 GT ISZERO JUMPDEST ISZERO PUSH2 0xD9 JUMPI PUSH1 0x30 DUP2 PUSH2 0xBF SWAP2 SWAP1 PUSH2 0x2E1 JUMP JUMPDEST PUSH1 0xA DUP5 PUSH2 0xCC SWAP2 SWAP1 PUSH2 0x287 JUMP JUMPDEST PUSH2 0xD6 SWAP2 SWAP1 PUSH2 0x231 JUMP JUMPDEST SWAP3 POP JUMPDEST POP DUP1 DUP1 PUSH2 0xE5 SWAP1 PUSH2 0x35F JUMP JUMPDEST SWAP2 POP POP PUSH2 0x6A JUMP JUMPDEST POP DUP1 SWAP3 POP POP POP SWAP2 SWAP1 POP JUMP JUMPDEST PUSH1 0x0 PUSH2 0x10B PUSH2 0x106 DUP5 PUSH2 0x200 JUMP JUMPDEST PUSH2 0x1DB JUMP JUMPDEST SWAP1 POP DUP3 DUP2 MSTORE PUSH1 0x20 DUP2 ADD DUP5 DUP5 DUP5 ADD GT ISZERO PUSH2 0x127 JUMPI PUSH2 0x126 PUSH2 0x43A JUMP JUMPDEST JUMPDEST PUSH2 0x132 DUP5 DUP3 DUP6 PUSH2 0x31F JUMP JUMPDEST POP SWAP4 SWAP3 POP POP POP JUMP JUMPDEST PUSH1 0x0 DUP3 PUSH1 0x1F DUP4 ADD SLT PUSH2 0x14F JUMPI PUSH2 0x14E PUSH2 0x435 JUMP JUMPDEST JUMPDEST DUP2 CALLDATALOAD PUSH2 0x15F DUP5 DUP3 PUSH1 0x20 DUP7 ADD PUSH2 0xF8 JUMP JUMPDEST SWAP2 POP POP SWAP3 SWAP2 POP POP JUMP JUMPDEST PUSH1 0x0 PUSH1 0x20 DUP3 DUP5 SUB SLT ISZERO PUSH2 0x17E JUMPI PUSH2 0x17D PUSH2 0x444 JUMP JUMPDEST JUMPDEST PUSH1 0x0 DUP3 ADD CALLDATALOAD PUSH8 0xFFFFFFFFFFFFFFFF DUP2 GT ISZERO PUSH2 0x19C JUMPI PUSH2 0x19B PUSH2 0x43F JUMP JUMPDEST JUMPDEST PUSH2 0x1A8 DUP5 DUP3 DUP6 ADD PUSH2 0x13A JUMP JUMPDEST SWAP2 POP POP SWAP3 SWAP2 POP POP JUMP JUMPDEST PUSH2 0x1BA DUP2 PUSH2 0x315 JUMP JUMPDEST DUP3 MSTORE POP POP JUMP JUMPDEST PUSH1 0x0 PUSH1 0x20 DUP3 ADD SWAP1 POP PUSH2 0x1D5 PUSH1 0x0 DUP4 ADD DUP5 PUSH2 0x1B1 JUMP JUMPDEST SWAP3 SWAP2 POP POP JUMP JUMPDEST PUSH1 0x0 PUSH2 0x1E5 PUSH2 0x1F6 JUMP JUMPDEST SWAP1 POP PUSH2 0x1F1 DUP3 DUP3 PUSH2 0x32E JUMP JUMPDEST SWAP2 SWAP1 POP JUMP JUMPDEST PUSH1 0x0 PUSH1 0x40 MLOAD SWAP1 POP SWAP1 JUMP JUMPDEST PUSH1 0x0 PUSH8 0xFFFFFFFFFFFFFFFF DUP3 GT ISZERO PUSH2 0x21B JUMPI PUSH2 0x21A PUSH2 0x406 JUMP JUMPDEST JUMPDEST PUSH2 0x224 DUP3 PUSH2 0x449 JUMP JUMPDEST SWAP1 POP PUSH1 0x20 DUP2 ADD SWAP1 POP SWAP2 SWAP1 POP JUMP JUMPDEST PUSH1 0x0 PUSH2 0x23C DUP3 PUSH2 0x315 JUMP JUMPDEST SWAP2 POP PUSH2 0x247 DUP4 PUSH2 0x315 JUMP JUMPDEST SWAP3 POP DUP3 PUSH32 0xFFFFFFFFFFFFFFFFFFFFFFFFFFFFFFFFFFFFFFFFFFFFFFFFFFFFFFFFFFFFFFFF SUB DUP3 GT ISZERO PUSH2 0x27C JUMPI PUSH2 0x27B PUSH2 0x3A8 JUMP JUMPDEST JUMPDEST DUP3 DUP3 ADD SWAP1 POP SWAP3 SWAP2 POP POP JUMP JUMPDEST PUSH1 0x0 PUSH2 0x292 DUP3 PUSH2 0x315 JUMP JUMPDEST SWAP2 POP PUSH2 0x29D DUP4 PUSH2 0x315 JUMP JUMPDEST SWAP3 POP DUP2 PUSH32 0xFFFFFFFFFFFFFFFFFFFFFFFFFFFFFFFFFFFFFFFFFFFFFFFFFFFFFFFFFFFFFFFF DIV DUP4 GT DUP3 ISZERO ISZERO AND ISZERO PUSH2 0x2D6 JUMPI PUSH2 0x2D5 PUSH2 0x3A8 JUMP JUMPDEST JUMPDEST DUP3 DUP3 MUL SWAP1 POP SWAP3 SWAP2 POP POP JUMP JUMPDEST PUSH1 0x0 PUSH2 0x2EC DUP3 PUSH2 0x315 JUMP JUMPDEST SWAP2 POP PUSH2 0x2F7 DUP4 PUSH2 0x315 JUMP JUMPDEST SWAP3 POP DUP3 DUP3 LT ISZERO PUSH2 0x30A JUMPI PUSH2 0x309 PUSH2 0x3A8 JUMP JUMPDEST JUMPDEST DUP3 DUP3 SUB SWAP1 POP SWAP3 SWAP2 POP POP JUMP JUMPDEST PUSH1 0x0 DUP2 SWAP1 POP SWAP2 SWAP1 POP JUMP JUMPDEST DUP3 DUP2 DUP4 CALLDATACOPY PUSH1 0x0 DUP4 DUP4 ADD MSTORE POP POP POP JUMP JUMPDEST PUSH2 0x337 DUP3 PUSH2 0x449 JUMP JUMPDEST DUP2 ADD DUP2 DUP2 LT PUSH8 0xFFFFFFFFFFFFFFFF DUP3 GT OR ISZERO PUSH2 0x356 JUMPI PUSH2 0x355 PUSH2 0x406 JUMP JUMPDEST JUMPDEST DUP1 PUSH1 0x40 MSTORE POP POP POP JUMP JUMPDEST PUSH1 0x0 PUSH2 0x36A DUP3 PUSH2 0x315 JUMP JUMPDEST SWAP2 POP PUSH32 0xFFFFFFFFFFFFFFFFFFFFFFFFFFFFFFFFFFFFFFFFFFFFFFFFFFFFFFFFFFFFFFFF DUP3 EQ ISZERO PUSH2 0x39D JUMPI PUSH2 0x39C PUSH2 0x3A8 JUMP JUMPDEST JUMPDEST PUSH1 0x1 DUP3 ADD SWAP1 POP SWAP2 SWAP1 POP JUMP JUMPDEST PUSH32 0x4E487B7100000000000000000000000000000000000000000000000000000000 PUSH1 0x0 MSTORE PUSH1 0x11 PUSH1 0x4 MSTORE PUSH1 0x24 PUSH1 0x0 REVERT JUMPDEST PUSH32 0x4E487B7100000000000000000000000000000000000000000000000000000000 PUSH1 0x0 MSTORE PUSH1 0x32 PUSH1 0x4 MSTORE PUSH1 0x24 PUSH1 0x0 REVERT JUMPDEST PUSH32 0x4E487B7100000000000000000000000000000000000000000000000000000000 PUSH1 0x0 MSTORE PUSH1 0x41 PUSH1 0x4 MSTORE PUSH1 0x24 PUSH1 0x0 REVERT JUMPDEST PUSH1 0x0 DUP1 REVERT JUMPDEST PUSH1 0x0 DUP1 REVERT JUMPDEST PUSH1 0x0 DUP1 REVERT JUMPDEST PUSH1 0x0 DUP1 REVERT JUMPDEST PUSH1 0x0 PUSH1 0x1F NOT PUSH1 0x1F DUP4 ADD AND SWAP1 POP SWAP2 SWAP1 POP JUMP INVALID LOG2 PUSH5 0x6970667358 0x22 SLT KECCAK256 0xDA JUMPI KECCAK256 0xD 0x49 0x29 0xE0 0x49 DUP7 EXTCODEHASH 0xA6 BLOCKHASH 0xBE LOG0 ADDMOD LOG4 0x2A MOD 0xA5 0x5F 0x5F AND EXTCODESIZE PUSH29 0xB251BD5C69DBBE464736F6C6343000807003300000000000000000000 "
				},
				"gasEstimates": {
					"creation": {
						"codeDepositCost": "233600",
						"executionCost": "275",
						"totalCost": "233875"
					},
					"external": {
						"stringToInt(string)": "infinite"
					}
				},
				"methodIdentifiers": {
					"stringToInt(string)": "f8a02d84"
				}
			},
			"storageLayout": {
				"storage": [],
				"types": null
			},
			"userdoc": {
				"kind": "user",
				"methods": {},
				"version": 1
			}
		}
	}
}