{
	"variable.sol": {
		"Variable": {
			"abi": [
				{
					"inputs": [],
					"name": "f1",
					"outputs": [
						{
							"internalType": "uint256",
							"name": "",
							"type": "uint256"
						},
						{
							"internalType": "uint256",
							"name": "",
							"type": "uint256"
						}
					],
					"stateMutability": "view",
					"type": "function"
				},
				{
					"inputs": [],
					"name": "u1",
					"outputs": [
						{
							"internalType": "uint256",
							"name": "",
							"type": "uint256"
						}
					],
					"stateMutability": "view",
					"type": "function"
				}
			],
			"devdoc": {
				"kind": "dev",
				"methods": {},
				"version": 1
			},
			"evm": {
				"assembly": "    /* \"variable.sol\":63:223  contract Variable {\r... */\n  mstore(0x40, 0x80)\n    /* \"variable.sol\":105:108  123 */\n  0x7b\n    /* \"variable.sol\":88:108  uint public u1 = 123 */\n  0x00\n  sstore\n    /* \"variable.sol\":63:223  contract Variable {\r... */\n  callvalue\n  dup1\n  iszero\n  tag_1\n  jumpi\n  0x00\n  dup1\n  revert\ntag_1:\n  pop\n  dataSize(sub_0)\n  dup1\n  dataOffset(sub_0)\n  0x00\n  codecopy\n  0x00\n  return\nstop\n\nsub_0: assembly {\n        /* \"variable.sol\":63:223  contract Variable {\r... */\n      mstore(0x40, 0x80)\n      callvalue\n      dup1\n      iszero\n      tag_1\n      jumpi\n      0x00\n      dup1\n      revert\n    tag_1:\n      pop\n      jumpi(tag_2, lt(calldatasize, 0x04))\n      shr(0xe0, calldataload(0x00))\n      dup1\n      0x1aa35610\n      eq\n      tag_3\n      jumpi\n      dup1\n      0xc27fc305\n      eq\n      tag_4\n      jumpi\n    tag_2:\n      0x00\n      dup1\n      revert\n        /* \"variable.sol\":88:108  uint public u1 = 123 */\n    tag_3:\n      tag_5\n      tag_6\n      jump\t// in\n    tag_5:\n      mload(0x40)\n      tag_7\n      swap2\n      swap1\n      tag_8\n      jump\t// in\n    tag_7:\n      mload(0x40)\n      dup1\n      swap2\n      sub\n      swap1\n      return\n        /* \"variable.sol\":117:220  function f1() public view returns (uint,uint) {\r... */\n    tag_4:\n      tag_9\n      tag_10\n      jump\t// in\n    tag_9:\n      mload(0x40)\n      tag_11\n      swap3\n      swap2\n      swap1\n      tag_12\n      jump\t// in\n    tag_11:\n      mload(0x40)\n      dup1\n      swap2\n      sub\n      swap1\n      return\n        /* \"variable.sol\":88:108  uint public u1 = 123 */\n    tag_6:\n      sload(0x00)\n      dup2\n      jump\t// out\n        /* \"variable.sol\":117:220  function f1() public view returns (uint,uint) {\r... */\n    tag_10:\n        /* \"variable.sol\":152:156  uint */\n      0x00\n        /* \"variable.sol\":157:161  uint */\n      dup1\n        /* \"variable.sol\":174:181  uint u2 */\n      0x00\n        /* \"variable.sol\":184:187  456 */\n      0x01c8\n        /* \"variable.sol\":174:187  uint u2 = 456 */\n      swap1\n      pop\n        /* \"variable.sol\":206:208  u1 */\n      sload(0x00)\n        /* \"variable.sol\":209:211  u2 */\n      dup2\n        /* \"variable.sol\":198:212  return (u1,u2) */\n      swap3\n      pop\n      swap3\n      pop\n      pop\n        /* \"variable.sol\":117:220  function f1() public view returns (uint,uint) {\r... */\n      swap1\n      swap2\n      jump\t// out\n        /* \"#utility.yul\":7:125   */\n    tag_15:\n        /* \"#utility.yul\":94:118   */\n      tag_17\n        /* \"#utility.yul\":112:117   */\n      dup2\n        /* \"#utility.yul\":94:118   */\n      tag_18\n      jump\t// in\n    tag_17:\n        /* \"#utility.yul\":89:92   */\n      dup3\n        /* \"#utility.yul\":82:119   */\n      mstore\n        /* \"#utility.yul\":7:125   */\n      pop\n      pop\n      jump\t// out\n        /* \"#utility.yul\":131:353   */\n    tag_8:\n        /* \"#utility.yul\":224:228   */\n      0x00\n        /* \"#utility.yul\":262:264   */\n      0x20\n        /* \"#utility.yul\":251:260   */\n      dup3\n        /* \"#utility.yul\":247:265   */\n      add\n        /* \"#utility.yul\":239:265   */\n      swap1\n      pop\n        /* \"#utility.yul\":275:346   */\n      tag_20\n        /* \"#utility.yul\":343:344   */\n      0x00\n        /* \"#utility.yul\":332:341   */\n      dup4\n        /* \"#utility.yul\":328:345   */\n      add\n        /* \"#utility.yul\":319:325   */\n      dup5\n        /* \"#utility.yul\":275:346   */\n      tag_15\n      jump\t// in\n    tag_20:\n        /* \"#utility.yul\":131:353   */\n      swap3\n      swap2\n      pop\n      pop\n      jump\t// out\n        /* \"#utility.yul\":359:691   */\n    tag_12:\n        /* \"#utility.yul\":480:484   */\n      0x00\n        /* \"#utility.yul\":518:520   */\n      0x40\n        /* \"#utility.yul\":507:516   */\n      dup3\n        /* \"#utility.yul\":503:521   */\n      add\n        /* \"#utility.yul\":495:521   */\n      swap1\n      pop\n        /* \"#utility.yul\":531:602   */\n      tag_22\n        /* \"#utility.yul\":599:600   */\n      0x00\n        /* \"#utility.yul\":588:597   */\n      dup4\n        /* \"#utility.yul\":584:601   */\n      add\n        /* \"#utility.yul\":575:581   */\n      dup6\n        /* \"#utility.yul\":531:602   */\n      tag_15\n      jump\t// in\n    tag_22:\n        /* \"#utility.yul\":612:684   */\n      tag_23\n        /* \"#utility.yul\":680:682   */\n      0x20\n        /* \"#utility.yul\":669:678   */\n      dup4\n        /* \"#utility.yul\":665:683   */\n      add\n        /* \"#utility.yul\":656:662   */\n      dup5\n        /* \"#utility.yul\":612:684   */\n      tag_15\n      jump\t// in\n    tag_23:\n        /* \"#utility.yul\":359:691   */\n      swap4\n      swap3\n      pop\n      pop\n      pop\n      jump\t// out\n        /* \"#utility.yul\":697:774   */\n    tag_18:\n        /* \"#utility.yul\":734:741   */\n      0x00\n        /* \"#utility.yul\":763:768   */\n      dup2\n        /* \"#utility.yul\":752:768   */\n      swap1\n      pop\n        /* \"#utility.yul\":697:774   */\n      swap2\n      swap1\n      pop\n      jump\t// out\n\n    auxdata: 0xa26469706673582212202a25d7f056b132ec0395624dcff4fbc647f9d3636b0e4628765780dc4bba731864736f6c63430008070033\n}\n",
				"bytecode": {
					"linkReferences": {},
					"object": "6080604052607b60005534801561001557600080fd5b50610114806100256000396000f3fe6080604052348015600f57600080fd5b506004361060325760003560e01c80631aa35610146037578063c27fc305146051575b600080fd5b603d606c565b604051604891906096565b60405180910390f35b60576072565b604051606392919060af565b60405180910390f35b60005481565b60008060006101c890506000548192509250509091565b60908160d4565b82525050565b600060208201905060a960008301846089565b92915050565b600060408201905060c260008301856089565b60cd60208301846089565b9392505050565b600081905091905056fea26469706673582212202a25d7f056b132ec0395624dcff4fbc647f9d3636b0e4628765780dc4bba731864736f6c63430008070033",
					"opcodes": "PUSH1 0x80 PUSH1 0x40 MSTORE PUSH1 0x7B PUSH1 0x0 SSTORE CALLVALUE DUP1 ISZERO PUSH2 0x15 JUMPI PUSH1 0x0 DUP1 REVERT JUMPDEST POP PUSH2 0x114 DUP1 PUSH2 0x25 PUSH1 0x0 CODECOPY PUSH1 0x0 RETURN INVALID PUSH1 0x80 PUSH1 0x40 MSTORE CALLVALUE DUP1 ISZERO PUSH1 0xF JUMPI PUSH1 0x0 DUP1 REVERT JUMPDEST POP PUSH1 0x4 CALLDATASIZE LT PUSH1 0x32 JUMPI PUSH1 0x0 CALLDATALOAD PUSH1 0xE0 SHR DUP1 PUSH4 0x1AA35610 EQ PUSH1 0x37 JUMPI DUP1 PUSH4 0xC27FC305 EQ PUSH1 0x51 JUMPI JUMPDEST PUSH1 0x0 DUP1 REVERT JUMPDEST PUSH1 0x3D PUSH1 0x6C JUMP JUMPDEST PUSH1 0x40 MLOAD PUSH1 0x48 SWAP2 SWAP1 PUSH1 0x96 JUMP JUMPDEST PUSH1 0x40 MLOAD DUP1 SWAP2 SUB SWAP1 RETURN JUMPDEST PUSH1 0x57 PUSH1 0x72 JUMP JUMPDEST PUSH1 0x40 MLOAD PUSH1 0x63 SWAP3 SWAP2 SWAP1 PUSH1 0xAF JUMP JUMPDEST PUSH1 0x40 MLOAD DUP1 SWAP2 SUB SWAP1 RETURN JUMPDEST PUSH1 0x0 SLOAD DUP2 JUMP JUMPDEST PUSH1 0x0 DUP1 PUSH1 0x0 PUSH2 0x1C8 SWAP1 POP PUSH1 0x0 SLOAD DUP2 SWAP3 POP SWAP3 POP POP SWAP1 SWAP2 JUMP JUMPDEST PUSH1 0x90 DUP2 PUSH1 0xD4 JUMP JUMPDEST DUP3 MSTORE POP POP JUMP JUMPDEST PUSH1 0x0 PUSH1 0x20 DUP3 ADD SWAP1 POP PUSH1 0xA9 PUSH1 0x0 DUP4 ADD DUP5 PUSH1 0x89 JUMP JUMPDEST SWAP3 SWAP2 POP POP JUMP JUMPDEST PUSH1 0x0 PUSH1 0x40 DUP3 ADD SWAP1 POP PUSH1 0xC2 PUSH1 0x0 DUP4 ADD DUP6 PUSH1 0x89 JUMP JUMPDEST PUSH1 0xCD PUSH1 0x20 DUP4 ADD DUP5 PUSH1 0x89 JUMP JUMPDEST SWAP4 SWAP3 POP POP POP JUMP JUMPDEST PUSH1 0x0 DUP2 SWAP1 POP SWAP2 SWAP1 POP JUMP INVALID LOG2 PUSH5 0x6970667358 0x22 SLT KECCAK256 0x2A 0x25 0xD7 CREATE JUMP 0xB1 ORIGIN 0xEC SUB SWAP6 PUSH3 0x4DCFF4 0xFB 0xC6 SELFBALANCE 0xF9 0xD3 PUSH4 0x6B0E4628 PUSH23 0x5780DC4BBA731864736F6C634300080700330000000000 "
				},
				"gasEstimates": {
					"creation": {
						"codeDepositCost": "55200",
						"executionCost": "22211",
						"totalCost": "77411"
					},
					"external": {
						"f1()": "infinite",
						"u1()": "2407"
					}
				},
				"methodIdentifiers": {
					"f1()": "c27fc305",
					"u1()": "1aa35610"
				}
			},
			"storageLayout": {
				"storage": [
					{
						"astId": 4,
						"contract": "variable.sol:Variable",
						"label": "u1",
						"offset": 0,
						"slot": "0",
						"type": "t_uint256"
					}
				],
				"types": {
					"t_uint256": {
						"encoding": "inplace",
						"label": "uint256",
						"numberOfBytes": "32"
					}
				}
			},
			"userdoc": {
				"kind": "user",
				"methods": {},
				"version": 1
			}
		}
	}
}