{
	"storage.sol": {
		"StorageTest": {
			"abi": [
				{
					"inputs": [
						{
							"internalType": "string",
							"name": "_str",
							"type": "string"
						}
					],
					"name": "f1",
					"outputs": [],
					"stateMutability": "nonpayable",
					"type": "function"
				},
				{
					"inputs": [],
					"name": "str",
					"outputs": [
						{
							"internalType": "string",
							"name": "",
							"type": "string"
						}
					],
					"stateMutability": "view",
					"type": "function"
				}
			],
			"devdoc": {
				"kind": "dev",
				"methods": {},
				"version": 1
			},
			"evm": {
				"assembly": "    /* \"storage.sol\":61:193  contract StorageTest {\r... */\n  mstore(0x40, 0x80)\n    /* \"storage.sol\":89:111  string public str = '' */\n  mload(0x40)\n  dup1\n  0x20\n  add\n  0x40\n  mstore\n  dup1\n  0x00\n  dup2\n  mstore\n  pop\n  0x00\n  swap1\n  dup1\n  mload\n  swap1\n  0x20\n  add\n  swap1\n  tag_1\n  swap3\n  swap2\n  swap1\n  tag_2\n  jump\t// in\ntag_1:\n  pop\n    /* \"storage.sol\":61:193  contract StorageTest {\r... */\n  callvalue\n  dup1\n  iszero\n  tag_3\n  jumpi\n  0x00\n  dup1\n  revert\ntag_3:\n  pop\n  jump(tag_4)\ntag_2:\n  dup3\n  dup1\n  sload\n  tag_5\n  swap1\n  tag_6\n  jump\t// in\ntag_5:\n  swap1\n  0x00\n  mstore\n  keccak256(0x00, 0x20)\n  swap1\n  0x1f\n  add\n  0x20\n  swap1\n  div\n  dup2\n  add\n  swap3\n  dup3\n  tag_8\n  jumpi\n  0x00\n  dup6\n  sstore\n  jump(tag_7)\ntag_8:\n  dup3\n  0x1f\n  lt\n  tag_9\n  jumpi\n  dup1\n  mload\n  not(0xff)\n  and\n  dup4\n  dup1\n  add\n  or\n  dup6\n  sstore\n  jump(tag_7)\ntag_9:\n  dup3\n  dup1\n  add\n  0x01\n  add\n  dup6\n  sstore\n  dup3\n  iszero\n  tag_7\n  jumpi\n  swap2\n  dup3\n  add\ntag_10:\n  dup3\n  dup2\n  gt\n  iszero\n  tag_11\n  jumpi\n  dup3\n  mload\n  dup3\n  sstore\n  swap2\n  0x20\n  add\n  swap2\n  swap1\n  0x01\n  add\n  swap1\n  jump(tag_10)\ntag_11:\ntag_7:\n  pop\n  swap1\n  pop\n  tag_12\n  swap2\n  swap1\n  tag_13\n  jump\t// in\ntag_12:\n  pop\n  swap1\n  jump\t// out\ntag_13:\ntag_14:\n  dup1\n  dup3\n  gt\n  iszero\n  tag_15\n  jumpi\n  0x00\n  dup2\n  0x00\n  swap1\n  sstore\n  pop\n  0x01\n  add\n  jump(tag_14)\ntag_15:\n  pop\n  swap1\n  jump\t// out\n    /* \"#utility.yul\":7:327   */\ntag_6:\n    /* \"#utility.yul\":51:57   */\n  0x00\n    /* \"#utility.yul\":88:89   */\n  0x02\n    /* \"#utility.yul\":82:86   */\n  dup3\n    /* \"#utility.yul\":78:90   */\n  div\n    /* \"#utility.yul\":68:90   */\n  swap1\n  pop\n    /* \"#utility.yul\":135:136   */\n  0x01\n    /* \"#utility.yul\":129:133   */\n  dup3\n    /* \"#utility.yul\":125:137   */\n  and\n    /* \"#utility.yul\":156:174   */\n  dup1\n    /* \"#utility.yul\":146:227   */\n  tag_18\n  jumpi\n    /* \"#utility.yul\":212:216   */\n  0x7f\n    /* \"#utility.yul\":204:210   */\n  dup3\n    /* \"#utility.yul\":200:217   */\n  and\n    /* \"#utility.yul\":190:217   */\n  swap2\n  pop\n    /* \"#utility.yul\":146:227   */\ntag_18:\n    /* \"#utility.yul\":274:276   */\n  0x20\n    /* \"#utility.yul\":266:272   */\n  dup3\n    /* \"#utility.yul\":263:277   */\n  lt\n    /* \"#utility.yul\":243:261   */\n  dup2\n    /* \"#utility.yul\":240:278   */\n  eq\n    /* \"#utility.yul\":237:321   */\n  iszero\n  tag_19\n  jumpi\n    /* \"#utility.yul\":293:311   */\n  tag_20\n  tag_21\n  jump\t// in\ntag_20:\n    /* \"#utility.yul\":237:321   */\ntag_19:\n    /* \"#utility.yul\":58:327   */\n  pop\n    /* \"#utility.yul\":7:327   */\n  swap2\n  swap1\n  pop\n  jump\t// out\n    /* \"#utility.yul\":333:513   */\ntag_21:\n    /* \"#utility.yul\":381:458   */\n  0x4e487b7100000000000000000000000000000000000000000000000000000000\n    /* \"#utility.yul\":378:379   */\n  0x00\n    /* \"#utility.yul\":371:459   */\n  mstore\n    /* \"#utility.yul\":478:482   */\n  0x22\n    /* \"#utility.yul\":475:476   */\n  0x04\n    /* \"#utility.yul\":468:483   */\n  mstore\n    /* \"#utility.yul\":502:506   */\n  0x24\n    /* \"#utility.yul\":499:500   */\n  0x00\n    /* \"#utility.yul\":492:507   */\n  revert\n    /* \"storage.sol\":61:193  contract StorageTest {\r... */\ntag_4:\n  dataSize(sub_0)\n  dup1\n  dataOffset(sub_0)\n  0x00\n  codecopy\n  0x00\n  return\nstop\n\nsub_0: assembly {\n        /* \"storage.sol\":61:193  contract StorageTest {\r... */\n      mstore(0x40, 0x80)\n      callvalue\n      dup1\n      iszero\n      tag_1\n      jumpi\n      0x00\n      dup1\n      revert\n    tag_1:\n      pop\n      jumpi(tag_2, lt(calldatasize, 0x04))\n      shr(0xe0, calldataload(0x00))\n      dup1\n      0x318f79d3\n      eq\n      tag_3\n      jumpi\n      dup1\n      0xc15bae84\n      eq\n      tag_4\n      jumpi\n    tag_2:\n      0x00\n      dup1\n      revert\n        /* \"storage.sol\":120:190  function f1(string calldata _str) public {\r... */\n    tag_3:\n      tag_5\n      0x04\n      dup1\n      calldatasize\n      sub\n      dup2\n      add\n      swap1\n      tag_6\n      swap2\n      swap1\n      tag_7\n      jump\t// in\n    tag_6:\n      tag_8\n      jump\t// in\n    tag_5:\n      stop\n        /* \"storage.sol\":89:111  string public str = '' */\n    tag_4:\n      tag_9\n      tag_10\n      jump\t// in\n    tag_9:\n      mload(0x40)\n      tag_11\n      swap2\n      swap1\n      tag_12\n      jump\t// in\n    tag_11:\n      mload(0x40)\n      dup1\n      swap2\n      sub\n      swap1\n      return\n        /* \"storage.sol\":120:190  function f1(string calldata _str) public {\r... */\n    tag_8:\n        /* \"storage.sol\":178:182  _str */\n      dup2\n      dup2\n        /* \"storage.sol\":172:175  str */\n      0x00\n        /* \"storage.sol\":172:182  str = _str */\n      swap2\n      swap1\n      tag_14\n      swap3\n      swap2\n      swap1\n      tag_15\n      jump\t// in\n    tag_14:\n      pop\n        /* \"storage.sol\":120:190  function f1(string calldata _str) public {\r... */\n      pop\n      pop\n      jump\t// out\n        /* \"storage.sol\":89:111  string public str = '' */\n    tag_10:\n      0x00\n      dup1\n      sload\n      tag_16\n      swap1\n      tag_17\n      jump\t// in\n    tag_16:\n      dup1\n      0x1f\n      add\n      0x20\n      dup1\n      swap2\n      div\n      mul\n      0x20\n      add\n      mload(0x40)\n      swap1\n      dup2\n      add\n      0x40\n      mstore\n      dup1\n      swap3\n      swap2\n      swap1\n      dup2\n      dup2\n      mstore\n      0x20\n      add\n      dup3\n      dup1\n      sload\n      tag_18\n      swap1\n      tag_17\n      jump\t// in\n    tag_18:\n      dup1\n      iszero\n      tag_19\n      jumpi\n      dup1\n      0x1f\n      lt\n      tag_20\n      jumpi\n      0x0100\n      dup1\n      dup4\n      sload\n      div\n      mul\n      dup4\n      mstore\n      swap2\n      0x20\n      add\n      swap2\n      jump(tag_19)\n    tag_20:\n      dup3\n      add\n      swap2\n      swap1\n      0x00\n      mstore\n      keccak256(0x00, 0x20)\n      swap1\n    tag_21:\n      dup2\n      sload\n      dup2\n      mstore\n      swap1\n      0x01\n      add\n      swap1\n      0x20\n      add\n      dup1\n      dup4\n      gt\n      tag_21\n      jumpi\n      dup3\n      swap1\n      sub\n      0x1f\n      and\n      dup3\n      add\n      swap2\n    tag_19:\n      pop\n      pop\n      pop\n      pop\n      pop\n      dup2\n      jump\t// out\n    tag_15:\n      dup3\n      dup1\n      sload\n      tag_22\n      swap1\n      tag_17\n      jump\t// in\n    tag_22:\n      swap1\n      0x00\n      mstore\n      keccak256(0x00, 0x20)\n      swap1\n      0x1f\n      add\n      0x20\n      swap1\n      div\n      dup2\n      add\n      swap3\n      dup3\n      tag_24\n      jumpi\n      0x00\n      dup6\n      sstore\n      jump(tag_23)\n    tag_24:\n      dup3\n      0x1f\n      lt\n      tag_25\n      jumpi\n      dup1\n      calldataload\n      not(0xff)\n      and\n      dup4\n      dup1\n      add\n      or\n      dup6\n      sstore\n      jump(tag_23)\n    tag_25:\n      dup3\n      dup1\n      add\n      0x01\n      add\n      dup6\n      sstore\n      dup3\n      iszero\n      tag_23\n      jumpi\n      swap2\n      dup3\n      add\n    tag_26:\n      dup3\n      dup2\n      gt\n      iszero\n      tag_27\n      jumpi\n      dup3\n      calldataload\n      dup3\n      sstore\n      swap2\n      0x20\n      add\n      swap2\n      swap1\n      0x01\n      add\n      swap1\n      jump(tag_26)\n    tag_27:\n    tag_23:\n      pop\n      swap1\n      pop\n      tag_28\n      swap2\n      swap1\n      tag_29\n      jump\t// in\n    tag_28:\n      pop\n      swap1\n      jump\t// out\n    tag_29:\n    tag_30:\n      dup1\n      dup3\n      gt\n      iszero\n      tag_31\n      jumpi\n      0x00\n      dup2\n      0x00\n      swap1\n      sstore\n      pop\n      0x01\n      add\n      jump(tag_30)\n    tag_31:\n      pop\n      swap1\n      jump\t// out\n        /* \"#utility.yul\":21:574   */\n    tag_33:\n        /* \"#utility.yul\":79:87   */\n      0x00\n        /* \"#utility.yul\":89:95   */\n      dup1\n        /* \"#utility.yul\":139:142   */\n      dup4\n        /* \"#utility.yul\":132:136   */\n      0x1f\n        /* \"#utility.yul\":124:130   */\n      dup5\n        /* \"#utility.yul\":120:137   */\n      add\n        /* \"#utility.yul\":116:143   */\n      slt\n        /* \"#utility.yul\":106:228   */\n      tag_35\n      jumpi\n        /* \"#utility.yul\":147:226   */\n      tag_36\n      tag_37\n      jump\t// in\n    tag_36:\n        /* \"#utility.yul\":106:228   */\n    tag_35:\n        /* \"#utility.yul\":260:266   */\n      dup3\n        /* \"#utility.yul\":247:267   */\n      calldataload\n        /* \"#utility.yul\":237:267   */\n      swap1\n      pop\n        /* \"#utility.yul\":290:308   */\n      0xffffffffffffffff\n        /* \"#utility.yul\":282:288   */\n      dup2\n        /* \"#utility.yul\":279:309   */\n      gt\n        /* \"#utility.yul\":276:393   */\n      iszero\n      tag_38\n      jumpi\n        /* \"#utility.yul\":312:391   */\n      tag_39\n      tag_40\n      jump\t// in\n    tag_39:\n        /* \"#utility.yul\":276:393   */\n    tag_38:\n        /* \"#utility.yul\":426:430   */\n      0x20\n        /* \"#utility.yul\":418:424   */\n      dup4\n        /* \"#utility.yul\":414:431   */\n      add\n        /* \"#utility.yul\":402:431   */\n      swap2\n      pop\n        /* \"#utility.yul\":480:483   */\n      dup4\n        /* \"#utility.yul\":472:476   */\n      0x01\n        /* \"#utility.yul\":464:470   */\n      dup3\n        /* \"#utility.yul\":460:477   */\n      mul\n        /* \"#utility.yul\":450:458   */\n      dup4\n        /* \"#utility.yul\":446:478   */\n      add\n        /* \"#utility.yul\":443:484   */\n      gt\n        /* \"#utility.yul\":440:568   */\n      iszero\n      tag_41\n      jumpi\n        /* \"#utility.yul\":487:566   */\n      tag_42\n      tag_43\n      jump\t// in\n    tag_42:\n        /* \"#utility.yul\":440:568   */\n    tag_41:\n        /* \"#utility.yul\":21:574   */\n      swap3\n      pop\n      swap3\n      swap1\n      pop\n      jump\t// out\n        /* \"#utility.yul\":580:1109   */\n    tag_7:\n        /* \"#utility.yul\":651:657   */\n      0x00\n        /* \"#utility.yul\":659:665   */\n      dup1\n        /* \"#utility.yul\":708:710   */\n      0x20\n        /* \"#utility.yul\":696:705   */\n      dup4\n        /* \"#utility.yul\":687:694   */\n      dup6\n        /* \"#utility.yul\":683:706   */\n      sub\n        /* \"#utility.yul\":679:711   */\n      slt\n        /* \"#utility.yul\":676:795   */\n      iszero\n      tag_45\n      jumpi\n        /* \"#utility.yul\":714:793   */\n      tag_46\n      tag_47\n      jump\t// in\n    tag_46:\n        /* \"#utility.yul\":676:795   */\n    tag_45:\n        /* \"#utility.yul\":862:863   */\n      0x00\n        /* \"#utility.yul\":851:860   */\n      dup4\n        /* \"#utility.yul\":847:864   */\n      add\n        /* \"#utility.yul\":834:865   */\n      calldataload\n        /* \"#utility.yul\":892:910   */\n      0xffffffffffffffff\n        /* \"#utility.yul\":884:890   */\n      dup2\n        /* \"#utility.yul\":881:911   */\n      gt\n        /* \"#utility.yul\":878:995   */\n      iszero\n      tag_48\n      jumpi\n        /* \"#utility.yul\":914:993   */\n      tag_49\n      tag_50\n      jump\t// in\n    tag_49:\n        /* \"#utility.yul\":878:995   */\n    tag_48:\n        /* \"#utility.yul\":1027:1092   */\n      tag_51\n        /* \"#utility.yul\":1084:1091   */\n      dup6\n        /* \"#utility.yul\":1075:1081   */\n      dup3\n        /* \"#utility.yul\":1064:1073   */\n      dup7\n        /* \"#utility.yul\":1060:1082   */\n      add\n        /* \"#utility.yul\":1027:1092   */\n      tag_33\n      jump\t// in\n    tag_51:\n        /* \"#utility.yul\":1009:1092   */\n      swap3\n      pop\n      swap3\n      pop\n        /* \"#utility.yul\":805:1102   */\n      pop\n        /* \"#utility.yul\":580:1109   */\n      swap3\n      pop\n      swap3\n      swap1\n      pop\n      jump\t// out\n        /* \"#utility.yul\":1115:1479   */\n    tag_52:\n        /* \"#utility.yul\":1203:1206   */\n      0x00\n        /* \"#utility.yul\":1231:1270   */\n      tag_54\n        /* \"#utility.yul\":1264:1269   */\n      dup3\n        /* \"#utility.yul\":1231:1270   */\n      tag_55\n      jump\t// in\n    tag_54:\n        /* \"#utility.yul\":1286:1357   */\n      tag_56\n        /* \"#utility.yul\":1350:1356   */\n      dup2\n        /* \"#utility.yul\":1345:1348   */\n      dup6\n        /* \"#utility.yul\":1286:1357   */\n      tag_57\n      jump\t// in\n    tag_56:\n        /* \"#utility.yul\":1279:1357   */\n      swap4\n      pop\n        /* \"#utility.yul\":1366:1418   */\n      tag_58\n        /* \"#utility.yul\":1411:1417   */\n      dup2\n        /* \"#utility.yul\":1406:1409   */\n      dup6\n        /* \"#utility.yul\":1399:1403   */\n      0x20\n        /* \"#utility.yul\":1392:1397   */\n      dup7\n        /* \"#utility.yul\":1388:1404   */\n      add\n        /* \"#utility.yul\":1366:1418   */\n      tag_59\n      jump\t// in\n    tag_58:\n        /* \"#utility.yul\":1443:1472   */\n      tag_60\n        /* \"#utility.yul\":1465:1471   */\n      dup2\n        /* \"#utility.yul\":1443:1472   */\n      tag_61\n      jump\t// in\n    tag_60:\n        /* \"#utility.yul\":1438:1441   */\n      dup5\n        /* \"#utility.yul\":1434:1473   */\n      add\n        /* \"#utility.yul\":1427:1473   */\n      swap2\n      pop\n        /* \"#utility.yul\":1207:1479   */\n      pop\n        /* \"#utility.yul\":1115:1479   */\n      swap3\n      swap2\n      pop\n      pop\n      jump\t// out\n        /* \"#utility.yul\":1485:1798   */\n    tag_12:\n        /* \"#utility.yul\":1598:1602   */\n      0x00\n        /* \"#utility.yul\":1636:1638   */\n      0x20\n        /* \"#utility.yul\":1625:1634   */\n      dup3\n        /* \"#utility.yul\":1621:1639   */\n      add\n        /* \"#utility.yul\":1613:1639   */\n      swap1\n      pop\n        /* \"#utility.yul\":1685:1694   */\n      dup2\n        /* \"#utility.yul\":1679:1683   */\n      dup2\n        /* \"#utility.yul\":1675:1695   */\n      sub\n        /* \"#utility.yul\":1671:1672   */\n      0x00\n        /* \"#utility.yul\":1660:1669   */\n      dup4\n        /* \"#utility.yul\":1656:1673   */\n      add\n        /* \"#utility.yul\":1649:1696   */\n      mstore\n        /* \"#utility.yul\":1713:1791   */\n      tag_63\n        /* \"#utility.yul\":1786:1790   */\n      dup2\n        /* \"#utility.yul\":1777:1783   */\n      dup5\n        /* \"#utility.yul\":1713:1791   */\n      tag_52\n      jump\t// in\n    tag_63:\n        /* \"#utility.yul\":1705:1791   */\n      swap1\n      pop\n        /* \"#utility.yul\":1485:1798   */\n      swap3\n      swap2\n      pop\n      pop\n      jump\t// out\n        /* \"#utility.yul\":1885:1984   */\n    tag_55:\n        /* \"#utility.yul\":1937:1943   */\n      0x00\n        /* \"#utility.yul\":1971:1976   */\n      dup2\n        /* \"#utility.yul\":1965:1977   */\n      mload\n        /* \"#utility.yul\":1955:1977   */\n      swap1\n      pop\n        /* \"#utility.yul\":1885:1984   */\n      swap2\n      swap1\n      pop\n      jump\t// out\n        /* \"#utility.yul\":1990:2159   */\n    tag_57:\n        /* \"#utility.yul\":2074:2085   */\n      0x00\n        /* \"#utility.yul\":2108:2114   */\n      dup3\n        /* \"#utility.yul\":2103:2106   */\n      dup3\n        /* \"#utility.yul\":2096:2115   */\n      mstore\n        /* \"#utility.yul\":2148:2152   */\n      0x20\n        /* \"#utility.yul\":2143:2146   */\n      dup3\n        /* \"#utility.yul\":2139:2153   */\n      add\n        /* \"#utility.yul\":2124:2153   */\n      swap1\n      pop\n        /* \"#utility.yul\":1990:2159   */\n      swap3\n      swap2\n      pop\n      pop\n      jump\t// out\n        /* \"#utility.yul\":2165:2472   */\n    tag_59:\n        /* \"#utility.yul\":2233:2234   */\n      0x00\n        /* \"#utility.yul\":2243:2356   */\n    tag_69:\n        /* \"#utility.yul\":2257:2263   */\n      dup4\n        /* \"#utility.yul\":2254:2255   */\n      dup2\n        /* \"#utility.yul\":2251:2264   */\n      lt\n        /* \"#utility.yul\":2243:2356   */\n      iszero\n      tag_71\n      jumpi\n        /* \"#utility.yul\":2342:2343   */\n      dup1\n        /* \"#utility.yul\":2337:2340   */\n      dup3\n        /* \"#utility.yul\":2333:2344   */\n      add\n        /* \"#utility.yul\":2327:2345   */\n      mload\n        /* \"#utility.yul\":2323:2324   */\n      dup2\n        /* \"#utility.yul\":2318:2321   */\n      dup5\n        /* \"#utility.yul\":2314:2325   */\n      add\n        /* \"#utility.yul\":2307:2346   */\n      mstore\n        /* \"#utility.yul\":2279:2281   */\n      0x20\n        /* \"#utility.yul\":2276:2277   */\n      dup2\n        /* \"#utility.yul\":2272:2282   */\n      add\n        /* \"#utility.yul\":2267:2282   */\n      swap1\n      pop\n        /* \"#utility.yul\":2243:2356   */\n      jump(tag_69)\n    tag_71:\n        /* \"#utility.yul\":2374:2380   */\n      dup4\n        /* \"#utility.yul\":2371:2372   */\n      dup2\n        /* \"#utility.yul\":2368:2381   */\n      gt\n        /* \"#utility.yul\":2365:2466   */\n      iszero\n      tag_72\n      jumpi\n        /* \"#utility.yul\":2454:2455   */\n      0x00\n        /* \"#utility.yul\":2445:2451   */\n      dup5\n        /* \"#utility.yul\":2440:2443   */\n      dup5\n        /* \"#utility.yul\":2436:2452   */\n      add\n        /* \"#utility.yul\":2429:2456   */\n      mstore\n        /* \"#utility.yul\":2365:2466   */\n    tag_72:\n        /* \"#utility.yul\":2214:2472   */\n      pop\n        /* \"#utility.yul\":2165:2472   */\n      pop\n      pop\n      pop\n      jump\t// out\n        /* \"#utility.yul\":2478:2798   */\n    tag_17:\n        /* \"#utility.yul\":2522:2528   */\n      0x00\n        /* \"#utility.yul\":2559:2560   */\n      0x02\n        /* \"#utility.yul\":2553:2557   */\n      dup3\n        /* \"#utility.yul\":2549:2561   */\n      div\n        /* \"#utility.yul\":2539:2561   */\n      swap1\n      pop\n        /* \"#utility.yul\":2606:2607   */\n      0x01\n        /* \"#utility.yul\":2600:2604   */\n      dup3\n        /* \"#utility.yul\":2596:2608   */\n      and\n        /* \"#utility.yul\":2627:2645   */\n      dup1\n        /* \"#utility.yul\":2617:2698   */\n      tag_74\n      jumpi\n        /* \"#utility.yul\":2683:2687   */\n      0x7f\n        /* \"#utility.yul\":2675:2681   */\n      dup3\n        /* \"#utility.yul\":2671:2688   */\n      and\n        /* \"#utility.yul\":2661:2688   */\n      swap2\n      pop\n        /* \"#utility.yul\":2617:2698   */\n    tag_74:\n        /* \"#utility.yul\":2745:2747   */\n      0x20\n        /* \"#utility.yul\":2737:2743   */\n      dup3\n        /* \"#utility.yul\":2734:2748   */\n      lt\n        /* \"#utility.yul\":2714:2732   */\n      dup2\n        /* \"#utility.yul\":2711:2749   */\n      eq\n        /* \"#utility.yul\":2708:2792   */\n      iszero\n      tag_75\n      jumpi\n        /* \"#utility.yul\":2764:2782   */\n      tag_76\n      tag_77\n      jump\t// in\n    tag_76:\n        /* \"#utility.yul\":2708:2792   */\n    tag_75:\n        /* \"#utility.yul\":2529:2798   */\n      pop\n        /* \"#utility.yul\":2478:2798   */\n      swap2\n      swap1\n      pop\n      jump\t// out\n        /* \"#utility.yul\":2804:2984   */\n    tag_77:\n        /* \"#utility.yul\":2852:2929   */\n      0x4e487b7100000000000000000000000000000000000000000000000000000000\n        /* \"#utility.yul\":2849:2850   */\n      0x00\n        /* \"#utility.yul\":2842:2930   */\n      mstore\n        /* \"#utility.yul\":2949:2953   */\n      0x22\n        /* \"#utility.yul\":2946:2947   */\n      0x04\n        /* \"#utility.yul\":2939:2954   */\n      mstore\n        /* \"#utility.yul\":2973:2977   */\n      0x24\n        /* \"#utility.yul\":2970:2971   */\n      0x00\n        /* \"#utility.yul\":2963:2978   */\n      revert\n        /* \"#utility.yul\":2990:3107   */\n    tag_40:\n        /* \"#utility.yul\":3099:3100   */\n      0x00\n        /* \"#utility.yul\":3096:3097   */\n      dup1\n        /* \"#utility.yul\":3089:3101   */\n      revert\n        /* \"#utility.yul\":3113:3230   */\n    tag_37:\n        /* \"#utility.yul\":3222:3223   */\n      0x00\n        /* \"#utility.yul\":3219:3220   */\n      dup1\n        /* \"#utility.yul\":3212:3224   */\n      revert\n        /* \"#utility.yul\":3236:3353   */\n    tag_43:\n        /* \"#utility.yul\":3345:3346   */\n      0x00\n        /* \"#utility.yul\":3342:3343   */\n      dup1\n        /* \"#utility.yul\":3335:3347   */\n      revert\n        /* \"#utility.yul\":3359:3476   */\n    tag_50:\n        /* \"#utility.yul\":3468:3469   */\n      0x00\n        /* \"#utility.yul\":3465:3466   */\n      dup1\n        /* \"#utility.yul\":3458:3470   */\n      revert\n        /* \"#utility.yul\":3482:3599   */\n    tag_47:\n        /* \"#utility.yul\":3591:3592   */\n      0x00\n        /* \"#utility.yul\":3588:3589   */\n      dup1\n        /* \"#utility.yul\":3581:3593   */\n      revert\n        /* \"#utility.yul\":3605:3707   */\n    tag_61:\n        /* \"#utility.yul\":3646:3652   */\n      0x00\n        /* \"#utility.yul\":3697:3699   */\n      0x1f\n        /* \"#utility.yul\":3693:3700   */\n      not\n        /* \"#utility.yul\":3688:3690   */\n      0x1f\n        /* \"#utility.yul\":3681:3686   */\n      dup4\n        /* \"#utility.yul\":3677:3691   */\n      add\n        /* \"#utility.yul\":3673:3701   */\n      and\n        /* \"#utility.yul\":3663:3701   */\n      swap1\n      pop\n        /* \"#utility.yul\":3605:3707   */\n      swap2\n      swap1\n      pop\n      jump\t// out\n\n    auxdata: 0xa2646970667358221220391438c75f7fe41a84c3c3dec32d80333c0be0af5257fc200f6e3f122c30694464736f6c63430008070033\n}\n",
				"bytecode": {
					"linkReferences": {},
					"object": "6080604052604051806020016040528060008152506000908051906020019061002992919061003c565b5034801561003657600080fd5b50610140565b828054610048906100df565b90600052602060002090601f01602090048101928261006a57600085556100b1565b82601f1061008357805160ff19168380011785556100b1565b828001600101855582156100b1579182015b828111156100b0578251825591602001919060010190610095565b5b5090506100be91906100c2565b5090565b5b808211156100db5760008160009055506001016100c3565b5090565b600060028204905060018216806100f757607f821691505b6020821081141561010b5761010a610111565b5b50919050565b7f4e487b7100000000000000000000000000000000000000000000000000000000600052602260045260246000fd5b6103ca8061014f6000396000f3fe608060405234801561001057600080fd5b50600436106100365760003560e01c8063318f79d31461003b578063c15bae8414610057575b600080fd5b61005560048036038101906100509190610212565b610075565b005b61005f61008b565b60405161006c9190610298565b60405180910390f35b818160009190610086929190610119565b505050565b6000805461009890610309565b80601f01602080910402602001604051908101604052809291908181526020018280546100c490610309565b80156101115780601f106100e657610100808354040283529160200191610111565b820191906000526020600020905b8154815290600101906020018083116100f457829003601f168201915b505050505081565b82805461012590610309565b90600052602060002090601f016020900481019282610147576000855561018e565b82601f1061016057803560ff191683800117855561018e565b8280016001018555821561018e579182015b8281111561018d578235825591602001919060010190610172565b5b50905061019b919061019f565b5090565b5b808211156101b85760008160009055506001016101a0565b5090565b60008083601f8401126101d2576101d161036f565b5b8235905067ffffffffffffffff8111156101ef576101ee61036a565b5b60208301915083600182028301111561020b5761020a610374565b5b9250929050565b600080602083850312156102295761022861037e565b5b600083013567ffffffffffffffff81111561024757610246610379565b5b610253858286016101bc565b92509250509250929050565b600061026a826102ba565b61027481856102c5565b93506102848185602086016102d6565b61028d81610383565b840191505092915050565b600060208201905081810360008301526102b2818461025f565b905092915050565b600081519050919050565b600082825260208201905092915050565b60005b838110156102f45780820151818401526020810190506102d9565b83811115610303576000848401525b50505050565b6000600282049050600182168061032157607f821691505b602082108114156103355761033461033b565b5b50919050565b7f4e487b7100000000000000000000000000000000000000000000000000000000600052602260045260246000fd5b600080fd5b600080fd5b600080fd5b600080fd5b600080fd5b6000601f19601f830116905091905056fea2646970667358221220391438c75f7fe41a84c3c3dec32d80333c0be0af5257fc200f6e3f122c30694464736f6c63430008070033",
					"opcodes": "PUSH1 0x80 PUSH1 0x40 MSTORE PUSH1 0x40 MLOAD DUP1 PUSH1 0x20 ADD PUSH1 0x40 MSTORE DUP1 PUSH1 0x0 DUP2 MSTORE POP PUSH1 0x0 SWAP1 DUP1 MLOAD SWAP1 PUSH1 0x20 ADD SWAP1 PUSH2 0x29 SWAP3 SWAP2 SWAP1 PUSH2 0x3C JUMP JUMPDEST POP CALLVALUE DUP1 ISZERO PUSH2 0x36 JUMPI PUSH1 0x0 DUP1 REVERT JUMPDEST POP PUSH2 0x140 JUMP JUMPDEST DUP3 DUP1 SLOAD PUSH2 0x48 SWAP1 PUSH2 0xDF JUMP JUMPDEST SWAP1 PUSH1 0x0 MSTORE PUSH1 0x20 PUSH1 0x0 KECCAK256 SWAP1 PUSH1 0x1F ADD PUSH1 0x20 SWAP1 DIV DUP2 ADD SWAP3 DUP3 PUSH2 0x6A JUMPI PUSH1 0x0 DUP6 SSTORE PUSH2 0xB1 JUMP JUMPDEST DUP3 PUSH1 0x1F LT PUSH2 0x83 JUMPI DUP1 MLOAD PUSH1 0xFF NOT AND DUP4 DUP1 ADD OR DUP6 SSTORE PUSH2 0xB1 JUMP JUMPDEST DUP3 DUP1 ADD PUSH1 0x1 ADD DUP6 SSTORE DUP3 ISZERO PUSH2 0xB1 JUMPI SWAP2 DUP3 ADD JUMPDEST DUP3 DUP2 GT ISZERO PUSH2 0xB0 JUMPI DUP3 MLOAD DUP3 SSTORE SWAP2 PUSH1 0x20 ADD SWAP2 SWAP1 PUSH1 0x1 ADD SWAP1 PUSH2 0x95 JUMP JUMPDEST JUMPDEST POP SWAP1 POP PUSH2 0xBE SWAP2 SWAP1 PUSH2 0xC2 JUMP JUMPDEST POP SWAP1 JUMP JUMPDEST JUMPDEST DUP1 DUP3 GT ISZERO PUSH2 0xDB JUMPI PUSH1 0x0 DUP2 PUSH1 0x0 SWAP1 SSTORE POP PUSH1 0x1 ADD PUSH2 0xC3 JUMP JUMPDEST POP SWAP1 JUMP JUMPDEST PUSH1 0x0 PUSH1 0x2 DUP3 DIV SWAP1 POP PUSH1 0x1 DUP3 AND DUP1 PUSH2 0xF7 JUMPI PUSH1 0x7F DUP3 AND SWAP2 POP JUMPDEST PUSH1 0x20 DUP3 LT DUP2 EQ ISZERO PUSH2 0x10B JUMPI PUSH2 0x10A PUSH2 0x111 JUMP JUMPDEST JUMPDEST POP SWAP2 SWAP1 POP JUMP JUMPDEST PUSH32 0x4E487B7100000000000000000000000000000000000000000000000000000000 PUSH1 0x0 MSTORE PUSH1 0x22 PUSH1 0x4 MSTORE PUSH1 0x24 PUSH1 0x0 REVERT JUMPDEST PUSH2 0x3CA DUP1 PUSH2 0x14F PUSH1 0x0 CODECOPY PUSH1 0x0 RETURN INVALID PUSH1 0x80 PUSH1 0x40 MSTORE CALLVALUE DUP1 ISZERO PUSH2 0x10 JUMPI PUSH1 0x0 DUP1 REVERT JUMPDEST POP PUSH1 0x4 CALLDATASIZE LT PUSH2 0x36 JUMPI PUSH1 0x0 CALLDATALOAD PUSH1 0xE0 SHR DUP1 PUSH4 0x318F79D3 EQ PUSH2 0x3B JUMPI DUP1 PUSH4 0xC15BAE84 EQ PUSH2 0x57 JUMPI JUMPDEST PUSH1 0x0 DUP1 REVERT JUMPDEST PUSH2 0x55 PUSH1 0x4 DUP1 CALLDATASIZE SUB DUP2 ADD SWAP1 PUSH2 0x50 SWAP2 SWAP1 PUSH2 0x212 JUMP JUMPDEST PUSH2 0x75 JUMP JUMPDEST STOP JUMPDEST PUSH2 0x5F PUSH2 0x8B JUMP JUMPDEST PUSH1 0x40 MLOAD PUSH2 0x6C SWAP2 SWAP1 PUSH2 0x298 JUMP JUMPDEST PUSH1 0x40 MLOAD DUP1 SWAP2 SUB SWAP1 RETURN JUMPDEST DUP2 DUP2 PUSH1 0x0 SWAP2 SWAP1 PUSH2 0x86 SWAP3 SWAP2 SWAP1 PUSH2 0x119 JUMP JUMPDEST POP POP POP JUMP JUMPDEST PUSH1 0x0 DUP1 SLOAD PUSH2 0x98 SWAP1 PUSH2 0x309 JUMP JUMPDEST DUP1 PUSH1 0x1F ADD PUSH1 0x20 DUP1 SWAP2 DIV MUL PUSH1 0x20 ADD PUSH1 0x40 MLOAD SWAP1 DUP2 ADD PUSH1 0x40 MSTORE DUP1 SWAP3 SWAP2 SWAP1 DUP2 DUP2 MSTORE PUSH1 0x20 ADD DUP3 DUP1 SLOAD PUSH2 0xC4 SWAP1 PUSH2 0x309 JUMP JUMPDEST DUP1 ISZERO PUSH2 0x111 JUMPI DUP1 PUSH1 0x1F LT PUSH2 0xE6 JUMPI PUSH2 0x100 DUP1 DUP4 SLOAD DIV MUL DUP4 MSTORE SWAP2 PUSH1 0x20 ADD SWAP2 PUSH2 0x111 JUMP JUMPDEST DUP3 ADD SWAP2 SWAP1 PUSH1 0x0 MSTORE PUSH1 0x20 PUSH1 0x0 KECCAK256 SWAP1 JUMPDEST DUP2 SLOAD DUP2 MSTORE SWAP1 PUSH1 0x1 ADD SWAP1 PUSH1 0x20 ADD DUP1 DUP4 GT PUSH2 0xF4 JUMPI DUP3 SWAP1 SUB PUSH1 0x1F AND DUP3 ADD SWAP2 JUMPDEST POP POP POP POP POP DUP2 JUMP JUMPDEST DUP3 DUP1 SLOAD PUSH2 0x125 SWAP1 PUSH2 0x309 JUMP JUMPDEST SWAP1 PUSH1 0x0 MSTORE PUSH1 0x20 PUSH1 0x0 KECCAK256 SWAP1 PUSH1 0x1F ADD PUSH1 0x20 SWAP1 DIV DUP2 ADD SWAP3 DUP3 PUSH2 0x147 JUMPI PUSH1 0x0 DUP6 SSTORE PUSH2 0x18E JUMP JUMPDEST DUP3 PUSH1 0x1F LT PUSH2 0x160 JUMPI DUP1 CALLDATALOAD PUSH1 0xFF NOT AND DUP4 DUP1 ADD OR DUP6 SSTORE PUSH2 0x18E JUMP JUMPDEST DUP3 DUP1 ADD PUSH1 0x1 ADD DUP6 SSTORE DUP3 ISZERO PUSH2 0x18E JUMPI SWAP2 DUP3 ADD JUMPDEST DUP3 DUP2 GT ISZERO PUSH2 0x18D JUMPI DUP3 CALLDATALOAD DUP3 SSTORE SWAP2 PUSH1 0x20 ADD SWAP2 SWAP1 PUSH1 0x1 ADD SWAP1 PUSH2 0x172 JUMP JUMPDEST JUMPDEST POP SWAP1 POP PUSH2 0x19B SWAP2 SWAP1 PUSH2 0x19F JUMP JUMPDEST POP SWAP1 JUMP JUMPDEST JUMPDEST DUP1 DUP3 GT ISZERO PUSH2 0x1B8 JUMPI PUSH1 0x0 DUP2 PUSH1 0x0 SWAP1 SSTORE POP PUSH1 0x1 ADD PUSH2 0x1A0 JUMP JUMPDEST POP SWAP1 JUMP JUMPDEST PUSH1 0x0 DUP1 DUP4 PUSH1 0x1F DUP5 ADD SLT PUSH2 0x1D2 JUMPI PUSH2 0x1D1 PUSH2 0x36F JUMP JUMPDEST JUMPDEST DUP3 CALLDATALOAD SWAP1 POP PUSH8 0xFFFFFFFFFFFFFFFF DUP2 GT ISZERO PUSH2 0x1EF JUMPI PUSH2 0x1EE PUSH2 0x36A JUMP JUMPDEST JUMPDEST PUSH1 0x20 DUP4 ADD SWAP2 POP DUP4 PUSH1 0x1 DUP3 MUL DUP4 ADD GT ISZERO PUSH2 0x20B JUMPI PUSH2 0x20A PUSH2 0x374 JUMP JUMPDEST JUMPDEST SWAP3 POP SWAP3 SWAP1 POP JUMP JUMPDEST PUSH1 0x0 DUP1 PUSH1 0x20 DUP4 DUP6 SUB SLT ISZERO PUSH2 0x229 JUMPI PUSH2 0x228 PUSH2 0x37E JUMP JUMPDEST JUMPDEST PUSH1 0x0 DUP4 ADD CALLDATALOAD PUSH8 0xFFFFFFFFFFFFFFFF DUP2 GT ISZERO PUSH2 0x247 JUMPI PUSH2 0x246 PUSH2 0x379 JUMP JUMPDEST JUMPDEST PUSH2 0x253 DUP6 DUP3 DUP7 ADD PUSH2 0x1BC JUMP JUMPDEST SWAP3 POP SWAP3 POP POP SWAP3 POP SWAP3 SWAP1 POP JUMP JUMPDEST PUSH1 0x0 PUSH2 0x26A DUP3 PUSH2 0x2BA JUMP JUMPDEST PUSH2 0x274 DUP2 DUP6 PUSH2 0x2C5 JUMP JUMPDEST SWAP4 POP PUSH2 0x284 DUP2 DUP6 PUSH1 0x20 DUP7 ADD PUSH2 0x2D6 JUMP JUMPDEST PUSH2 0x28D DUP2 PUSH2 0x383 JUMP JUMPDEST DUP5 ADD SWAP2 POP POP SWAP3 SWAP2 POP POP JUMP JUMPDEST PUSH1 0x0 PUSH1 0x20 DUP3 ADD SWAP1 POP DUP2 DUP2 SUB PUSH1 0x0 DUP4 ADD MSTORE PUSH2 0x2B2 DUP2 DUP5 PUSH2 0x25F JUMP JUMPDEST SWAP1 POP SWAP3 SWAP2 POP POP JUMP JUMPDEST PUSH1 0x0 DUP2 MLOAD SWAP1 POP SWAP2 SWAP1 POP JUMP JUMPDEST PUSH1 0x0 DUP3 DUP3 MSTORE PUSH1 0x20 DUP3 ADD SWAP1 POP SWAP3 SWAP2 POP POP JUMP JUMPDEST PUSH1 0x0 JUMPDEST DUP4 DUP2 LT ISZERO PUSH2 0x2F4 JUMPI DUP1 DUP3 ADD MLOAD DUP2 DUP5 ADD MSTORE PUSH1 0x20 DUP2 ADD SWAP1 POP PUSH2 0x2D9 JUMP JUMPDEST DUP4 DUP2 GT ISZERO PUSH2 0x303 JUMPI PUSH1 0x0 DUP5 DUP5 ADD MSTORE JUMPDEST POP POP POP POP JUMP JUMPDEST PUSH1 0x0 PUSH1 0x2 DUP3 DIV SWAP1 POP PUSH1 0x1 DUP3 AND DUP1 PUSH2 0x321 JUMPI PUSH1 0x7F DUP3 AND SWAP2 POP JUMPDEST PUSH1 0x20 DUP3 LT DUP2 EQ ISZERO PUSH2 0x335 JUMPI PUSH2 0x334 PUSH2 0x33B JUMP JUMPDEST JUMPDEST POP SWAP2 SWAP1 POP JUMP JUMPDEST PUSH32 0x4E487B7100000000000000000000000000000000000000000000000000000000 PUSH1 0x0 MSTORE PUSH1 0x22 PUSH1 0x4 MSTORE PUSH1 0x24 PUSH1 0x0 REVERT JUMPDEST PUSH1 0x0 DUP1 REVERT JUMPDEST PUSH1 0x0 DUP1 REVERT JUMPDEST PUSH1 0x0 DUP1 REVERT JUMPDEST PUSH1 0x0 DUP1 REVERT JUMPDEST PUSH1 0x0 DUP1 REVERT JUMPDEST PUSH1 0x0 PUSH1 0x1F NOT PUSH1 0x1F DUP4 ADD AND SWAP1 POP SWAP2 SWAP1 POP JUMP INVALID LOG2 PUSH5 0x6970667358 0x22 SLT KECCAK256 CODECOPY EQ CODESIZE 0xC7 0x5F PUSH32 0xE41A84C3C3DEC32D80333C0BE0AF5257FC200F6E3F122C30694464736F6C6343 STOP ADDMOD SMOD STOP CALLER "
				},
				"gasEstimates": {
					"creation": {
						"codeDepositCost": "194000",
						"executionCost": "infinite",
						"totalCost": "infinite"
					},
					"external": {
						"f1(string)": "infinite",
						"str()": "infinite"
					}
				},
				"methodIdentifiers": {
					"f1(string)": "318f79d3",
					"str()": "c15bae84"
				}
			},
			"storageLayout": {
				"storage": [
					{
						"astId": 4,
						"contract": "storage.sol:StorageTest",
						"label": "str",
						"offset": 0,
						"slot": "0",
						"type": "t_string_storage"
					}
				],
				"types": {
					"t_string_storage": {
						"encoding": "bytes",
						"label": "string",
						"numberOfBytes": "32"
					}
				}
			},
			"userdoc": {
				"kind": "user",
				"methods": {},
				"version": 1
			}
		}
	}
}