{
	"todoList.sol": {
		"TodoList": {
			"abi": [
				{
					"inputs": [
						{
							"internalType": "uint256",
							"name": "id",
							"type": "uint256"
						},
						{
							"internalType": "string",
							"name": "val",
							"type": "string"
						}
					],
					"name": "addTask2",
					"outputs": [],
					"stateMutability": "payable",
					"type": "function"
				},
				{
					"inputs": [],
					"name": "getList2",
					"outputs": [],
					"stateMutability": "view",
					"type": "function"
				}
			],
			"devdoc": {
				"kind": "dev",
				"methods": {},
				"version": 1
			},
			"evm": {
				"assembly": "    /* \"todoList.sol\":395:635  contract TodoList {\r... */\n  mstore(0x40, 0x80)\n  callvalue\n  dup1\n  iszero\n  tag_1\n  jumpi\n  0x00\n  dup1\n  revert\ntag_1:\n  pop\n  dataSize(sub_0)\n  dup1\n  dataOffset(sub_0)\n  0x00\n  codecopy\n  0x00\n  return\nstop\n\nsub_0: assembly {\n        /* \"todoList.sol\":395:635  contract TodoList {\r... */\n      mstore(0x40, 0x80)\n      jumpi(tag_1, lt(calldatasize, 0x04))\n      shr(0xe0, calldataload(0x00))\n      dup1\n      0x494b71af\n      eq\n      tag_2\n      jumpi\n      dup1\n      0x84b0befc\n      eq\n      tag_3\n      jumpi\n    tag_1:\n      0x00\n      dup1\n      revert\n        /* \"todoList.sol\":450:554  function addTask2(uint id, string memory val) public payable {\r... */\n    tag_2:\n      tag_4\n      0x04\n      dup1\n      calldatasize\n      sub\n      dup2\n      add\n      swap1\n      tag_5\n      swap2\n      swap1\n      tag_6\n      jump\t// in\n    tag_5:\n      tag_7\n      jump\t// in\n    tag_4:\n      stop\n        /* \"todoList.sol\":562:632  function getList2 () public view {\r... */\n    tag_3:\n      callvalue\n      dup1\n      iszero\n      tag_8\n      jumpi\n      0x00\n      dup1\n      revert\n    tag_8:\n      pop\n      tag_9\n      tag_10\n      jump\t// in\n    tag_9:\n      stop\n        /* \"todoList.sol\":450:554  function addTask2(uint id, string memory val) public payable {\r... */\n    tag_7:\n        /* \"todoList.sol\":522:530  todoList */\n      0x00\n      dup1\n      sload\n      swap1\n      0x0100\n      exp\n      swap1\n      div\n      0xffffffffffffffffffffffffffffffffffffffff\n      and\n        /* \"todoList.sol\":522:538  todoList.addTask */\n      0xffffffffffffffffffffffffffffffffffffffff\n      and\n      0x58fcbbfd\n        /* \"todoList.sol\":539:541  id */\n      dup4\n        /* \"todoList.sol\":542:545  val */\n      dup4\n        /* \"todoList.sol\":522:546  todoList.addTask(id,val) */\n      mload(0x40)\n      dup4\n      0xffffffff\n      and\n      0xe0\n      shl\n      dup2\n      mstore\n      0x04\n      add\n      tag_12\n      swap3\n      swap2\n      swap1\n      tag_13\n      jump\t// in\n    tag_12:\n      0x00\n      mload(0x40)\n      dup1\n      dup4\n      sub\n      dup2\n      0x00\n      dup8\n      dup1\n      extcodesize\n      iszero\n      dup1\n      iszero\n      tag_14\n      jumpi\n      0x00\n      dup1\n      revert\n    tag_14:\n      pop\n      gas\n      call\n      iszero\n      dup1\n      iszero\n      tag_16\n      jumpi\n      returndatasize\n      0x00\n      dup1\n      returndatacopy\n      revert(0x00, returndatasize)\n    tag_16:\n      pop\n      pop\n      pop\n      pop\n        /* \"todoList.sol\":450:554  function addTask2(uint id, string memory val) public payable {\r... */\n      pop\n      pop\n      jump\t// out\n        /* \"todoList.sol\":562:632  function getList2 () public view {\r... */\n    tag_10:\n        /* \"todoList.sol\":606:614  todoList */\n      0x00\n      dup1\n      sload\n      swap1\n      0x0100\n      exp\n      swap1\n      div\n      0xffffffffffffffffffffffffffffffffffffffff\n      and\n        /* \"todoList.sol\":606:622  todoList.getList */\n      0xffffffffffffffffffffffffffffffffffffffff\n      and\n      0x942b765a\n        /* \"todoList.sol\":606:624  todoList.getList() */\n      mload(0x40)\n      dup2\n      0xffffffff\n      and\n      0xe0\n      shl\n      dup2\n      mstore\n      0x04\n      add\n      0x00\n      mload(0x40)\n      dup1\n      dup4\n      sub\n      dup2\n      dup7\n      dup1\n      extcodesize\n      iszero\n      dup1\n      iszero\n      tag_18\n      jumpi\n      0x00\n      dup1\n      revert\n    tag_18:\n      pop\n      gas\n      staticcall\n      iszero\n      dup1\n      iszero\n      tag_20\n      jumpi\n      returndatasize\n      0x00\n      dup1\n      returndatacopy\n      revert(0x00, returndatasize)\n    tag_20:\n      pop\n      pop\n      pop\n      pop\n      mload(0x40)\n      returndatasize\n      0x00\n      dup3\n      returndatacopy\n      returndatasize\n      not(0x1f)\n      0x1f\n      dup3\n      add\n      and\n      dup3\n      add\n      dup1\n      0x40\n      mstore\n      pop\n      dup2\n      add\n      swap1\n      tag_21\n      swap2\n      swap1\n      tag_22\n      jump\t// in\n    tag_21:\n      pop\n        /* \"todoList.sol\":562:632  function getList2 () public view {\r... */\n      jump\t// out\n        /* \"#utility.yul\":41:1040   */\n    tag_24:\n        /* \"#utility.yul\":167:172   */\n      0x00\n        /* \"#utility.yul\":192:292   */\n      tag_26\n        /* \"#utility.yul\":208:291   */\n      tag_27\n        /* \"#utility.yul\":284:290   */\n      dup5\n        /* \"#utility.yul\":208:291   */\n      tag_28\n      jump\t// in\n    tag_27:\n        /* \"#utility.yul\":192:292   */\n      tag_29\n      jump\t// in\n    tag_26:\n        /* \"#utility.yul\":183:292   */\n      swap1\n      pop\n        /* \"#utility.yul\":312:317   */\n      dup1\n        /* \"#utility.yul\":341:347   */\n      dup4\n        /* \"#utility.yul\":334:339   */\n      dup3\n        /* \"#utility.yul\":327:348   */\n      mstore\n        /* \"#utility.yul\":375:379   */\n      0x20\n        /* \"#utility.yul\":368:373   */\n      dup3\n        /* \"#utility.yul\":364:380   */\n      add\n        /* \"#utility.yul\":357:380   */\n      swap1\n      pop\n        /* \"#utility.yul\":401:407   */\n      dup3\n        /* \"#utility.yul\":451:454   */\n      dup6\n        /* \"#utility.yul\":443:447   */\n      0x20\n        /* \"#utility.yul\":435:441   */\n      dup7\n        /* \"#utility.yul\":431:448   */\n      mul\n        /* \"#utility.yul\":426:429   */\n      dup3\n        /* \"#utility.yul\":422:449   */\n      add\n        /* \"#utility.yul\":419:455   */\n      gt\n        /* \"#utility.yul\":416:559   */\n      iszero\n      tag_30\n      jumpi\n        /* \"#utility.yul\":470:549   */\n      tag_31\n      tag_32\n      jump\t// in\n    tag_31:\n        /* \"#utility.yul\":416:559   */\n    tag_30:\n        /* \"#utility.yul\":583:584   */\n      0x00\n        /* \"#utility.yul\":568:1034   */\n    tag_33:\n        /* \"#utility.yul\":593:599   */\n      dup6\n        /* \"#utility.yul\":590:591   */\n      dup2\n        /* \"#utility.yul\":587:600   */\n      lt\n        /* \"#utility.yul\":568:1034   */\n      iszero\n      tag_35\n      jumpi\n        /* \"#utility.yul\":668:671   */\n      dup2\n        /* \"#utility.yul\":662:672   */\n      mload\n        /* \"#utility.yul\":704:722   */\n      0xffffffffffffffff\n        /* \"#utility.yul\":691:702   */\n      dup2\n        /* \"#utility.yul\":688:723   */\n      gt\n        /* \"#utility.yul\":685:807   */\n      iszero\n      tag_36\n      jumpi\n        /* \"#utility.yul\":726:805   */\n      tag_37\n      tag_38\n      jump\t// in\n    tag_37:\n        /* \"#utility.yul\":685:807   */\n    tag_36:\n        /* \"#utility.yul\":850:861   */\n      dup1\n        /* \"#utility.yul\":842:848   */\n      dup7\n        /* \"#utility.yul\":838:862   */\n      add\n        /* \"#utility.yul\":888:955   */\n      tag_39\n        /* \"#utility.yul\":951:954   */\n      dup10\n        /* \"#utility.yul\":939:949   */\n      dup3\n        /* \"#utility.yul\":888:955   */\n      tag_40\n      jump\t// in\n    tag_39:\n        /* \"#utility.yul\":883:886   */\n      dup6\n        /* \"#utility.yul\":876:956   */\n      mstore\n        /* \"#utility.yul\":985:989   */\n      0x20\n        /* \"#utility.yul\":980:983   */\n      dup6\n        /* \"#utility.yul\":976:990   */\n      add\n        /* \"#utility.yul\":969:990   */\n      swap5\n      pop\n        /* \"#utility.yul\":1019:1023   */\n      0x20\n        /* \"#utility.yul\":1014:1017   */\n      dup5\n        /* \"#utility.yul\":1010:1024   */\n      add\n        /* \"#utility.yul\":1003:1024   */\n      swap4\n      pop\n        /* \"#utility.yul\":628:1034   */\n      pop\n      pop\n        /* \"#utility.yul\":615:616   */\n      0x01\n        /* \"#utility.yul\":612:613   */\n      dup2\n        /* \"#utility.yul\":608:617   */\n      add\n        /* \"#utility.yul\":603:617   */\n      swap1\n      pop\n        /* \"#utility.yul\":568:1034   */\n      jump(tag_33)\n    tag_35:\n        /* \"#utility.yul\":572:586   */\n      pop\n        /* \"#utility.yul\":173:1040   */\n      pop\n      pop\n        /* \"#utility.yul\":41:1040   */\n      swap4\n      swap3\n      pop\n      pop\n      pop\n      jump\t// out\n        /* \"#utility.yul\":1046:1458   */\n    tag_41:\n        /* \"#utility.yul\":1124:1129   */\n      0x00\n        /* \"#utility.yul\":1149:1215   */\n      tag_43\n        /* \"#utility.yul\":1165:1214   */\n      tag_44\n        /* \"#utility.yul\":1207:1213   */\n      dup5\n        /* \"#utility.yul\":1165:1214   */\n      tag_45\n      jump\t// in\n    tag_44:\n        /* \"#utility.yul\":1149:1215   */\n      tag_29\n      jump\t// in\n    tag_43:\n        /* \"#utility.yul\":1140:1215   */\n      swap1\n      pop\n        /* \"#utility.yul\":1238:1244   */\n      dup3\n        /* \"#utility.yul\":1231:1236   */\n      dup2\n        /* \"#utility.yul\":1224:1245   */\n      mstore\n        /* \"#utility.yul\":1276:1280   */\n      0x20\n        /* \"#utility.yul\":1269:1274   */\n      dup2\n        /* \"#utility.yul\":1265:1281   */\n      add\n        /* \"#utility.yul\":1314:1317   */\n      dup5\n        /* \"#utility.yul\":1305:1311   */\n      dup5\n        /* \"#utility.yul\":1300:1303   */\n      dup5\n        /* \"#utility.yul\":1296:1312   */\n      add\n        /* \"#utility.yul\":1293:1318   */\n      gt\n        /* \"#utility.yul\":1290:1402   */\n      iszero\n      tag_46\n      jumpi\n        /* \"#utility.yul\":1321:1400   */\n      tag_47\n      tag_48\n      jump\t// in\n    tag_47:\n        /* \"#utility.yul\":1290:1402   */\n    tag_46:\n        /* \"#utility.yul\":1411:1452   */\n      tag_49\n        /* \"#utility.yul\":1445:1451   */\n      dup5\n        /* \"#utility.yul\":1440:1443   */\n      dup3\n        /* \"#utility.yul\":1435:1438   */\n      dup6\n        /* \"#utility.yul\":1411:1452   */\n      tag_50\n      jump\t// in\n    tag_49:\n        /* \"#utility.yul\":1130:1458   */\n      pop\n        /* \"#utility.yul\":1046:1458   */\n      swap4\n      swap3\n      pop\n      pop\n      pop\n      jump\t// out\n        /* \"#utility.yul\":1464:1885   */\n    tag_51:\n        /* \"#utility.yul\":1553:1558   */\n      0x00\n        /* \"#utility.yul\":1578:1644   */\n      tag_53\n        /* \"#utility.yul\":1594:1643   */\n      tag_54\n        /* \"#utility.yul\":1636:1642   */\n      dup5\n        /* \"#utility.yul\":1594:1643   */\n      tag_45\n      jump\t// in\n    tag_54:\n        /* \"#utility.yul\":1578:1644   */\n      tag_29\n      jump\t// in\n    tag_53:\n        /* \"#utility.yul\":1569:1644   */\n      swap1\n      pop\n        /* \"#utility.yul\":1667:1673   */\n      dup3\n        /* \"#utility.yul\":1660:1665   */\n      dup2\n        /* \"#utility.yul\":1653:1674   */\n      mstore\n        /* \"#utility.yul\":1705:1709   */\n      0x20\n        /* \"#utility.yul\":1698:1703   */\n      dup2\n        /* \"#utility.yul\":1694:1710   */\n      add\n        /* \"#utility.yul\":1743:1746   */\n      dup5\n        /* \"#utility.yul\":1734:1740   */\n      dup5\n        /* \"#utility.yul\":1729:1732   */\n      dup5\n        /* \"#utility.yul\":1725:1741   */\n      add\n        /* \"#utility.yul\":1722:1747   */\n      gt\n        /* \"#utility.yul\":1719:1831   */\n      iszero\n      tag_55\n      jumpi\n        /* \"#utility.yul\":1750:1829   */\n      tag_56\n      tag_48\n      jump\t// in\n    tag_56:\n        /* \"#utility.yul\":1719:1831   */\n    tag_55:\n        /* \"#utility.yul\":1840:1879   */\n      tag_57\n        /* \"#utility.yul\":1872:1878   */\n      dup5\n        /* \"#utility.yul\":1867:1870   */\n      dup3\n        /* \"#utility.yul\":1862:1865   */\n      dup6\n        /* \"#utility.yul\":1840:1879   */\n      tag_58\n      jump\t// in\n    tag_57:\n        /* \"#utility.yul\":1559:1885   */\n      pop\n        /* \"#utility.yul\":1464:1885   */\n      swap4\n      swap3\n      pop\n      pop\n      pop\n      jump\t// out\n        /* \"#utility.yul\":1925:2348   */\n    tag_59:\n        /* \"#utility.yul\":2026:2031   */\n      0x00\n        /* \"#utility.yul\":2075:2078   */\n      dup3\n        /* \"#utility.yul\":2068:2072   */\n      0x1f\n        /* \"#utility.yul\":2060:2066   */\n      dup4\n        /* \"#utility.yul\":2056:2073   */\n      add\n        /* \"#utility.yul\":2052:2079   */\n      slt\n        /* \"#utility.yul\":2042:2164   */\n      tag_61\n      jumpi\n        /* \"#utility.yul\":2083:2162   */\n      tag_62\n      tag_38\n      jump\t// in\n    tag_62:\n        /* \"#utility.yul\":2042:2164   */\n    tag_61:\n        /* \"#utility.yul\":2193:2199   */\n      dup2\n        /* \"#utility.yul\":2187:2200   */\n      mload\n        /* \"#utility.yul\":2218:2342   */\n      tag_63\n        /* \"#utility.yul\":2338:2341   */\n      dup5\n        /* \"#utility.yul\":2330:2336   */\n      dup3\n        /* \"#utility.yul\":2323:2327   */\n      0x20\n        /* \"#utility.yul\":2315:2321   */\n      dup7\n        /* \"#utility.yul\":2311:2328   */\n      add\n        /* \"#utility.yul\":2218:2342   */\n      tag_24\n      jump\t// in\n    tag_63:\n        /* \"#utility.yul\":2209:2342   */\n      swap2\n      pop\n        /* \"#utility.yul\":2032:2348   */\n      pop\n        /* \"#utility.yul\":1925:2348   */\n      swap3\n      swap2\n      pop\n      pop\n      jump\t// out\n        /* \"#utility.yul\":2368:2708   */\n    tag_64:\n        /* \"#utility.yul\":2424:2429   */\n      0x00\n        /* \"#utility.yul\":2473:2476   */\n      dup3\n        /* \"#utility.yul\":2466:2470   */\n      0x1f\n        /* \"#utility.yul\":2458:2464   */\n      dup4\n        /* \"#utility.yul\":2454:2471   */\n      add\n        /* \"#utility.yul\":2450:2477   */\n      slt\n        /* \"#utility.yul\":2440:2562   */\n      tag_66\n      jumpi\n        /* \"#utility.yul\":2481:2560   */\n      tag_67\n      tag_38\n      jump\t// in\n    tag_67:\n        /* \"#utility.yul\":2440:2562   */\n    tag_66:\n        /* \"#utility.yul\":2598:2604   */\n      dup2\n        /* \"#utility.yul\":2585:2605   */\n      calldataload\n        /* \"#utility.yul\":2623:2702   */\n      tag_68\n        /* \"#utility.yul\":2698:2701   */\n      dup5\n        /* \"#utility.yul\":2690:2696   */\n      dup3\n        /* \"#utility.yul\":2683:2687   */\n      0x20\n        /* \"#utility.yul\":2675:2681   */\n      dup7\n        /* \"#utility.yul\":2671:2688   */\n      add\n        /* \"#utility.yul\":2623:2702   */\n      tag_41\n      jump\t// in\n    tag_68:\n        /* \"#utility.yul\":2614:2702   */\n      swap2\n      pop\n        /* \"#utility.yul\":2430:2708   */\n      pop\n        /* \"#utility.yul\":2368:2708   */\n      swap3\n      swap2\n      pop\n      pop\n      jump\t// out\n        /* \"#utility.yul\":2728:3083   */\n    tag_69:\n        /* \"#utility.yul\":2795:2800   */\n      0x00\n        /* \"#utility.yul\":2844:2847   */\n      dup3\n        /* \"#utility.yul\":2837:2841   */\n      0x1f\n        /* \"#utility.yul\":2829:2835   */\n      dup4\n        /* \"#utility.yul\":2825:2842   */\n      add\n        /* \"#utility.yul\":2821:2848   */\n      slt\n        /* \"#utility.yul\":2811:2933   */\n      tag_71\n      jumpi\n        /* \"#utility.yul\":2852:2931   */\n      tag_72\n      tag_38\n      jump\t// in\n    tag_72:\n        /* \"#utility.yul\":2811:2933   */\n    tag_71:\n        /* \"#utility.yul\":2962:2968   */\n      dup2\n        /* \"#utility.yul\":2956:2969   */\n      mload\n        /* \"#utility.yul\":2987:3077   */\n      tag_73\n        /* \"#utility.yul\":3073:3076   */\n      dup5\n        /* \"#utility.yul\":3065:3071   */\n      dup3\n        /* \"#utility.yul\":3058:3062   */\n      0x20\n        /* \"#utility.yul\":3050:3056   */\n      dup7\n        /* \"#utility.yul\":3046:3063   */\n      add\n        /* \"#utility.yul\":2987:3077   */\n      tag_51\n      jump\t// in\n    tag_73:\n        /* \"#utility.yul\":2978:3077   */\n      swap2\n      pop\n        /* \"#utility.yul\":2801:3083   */\n      pop\n        /* \"#utility.yul\":2728:3083   */\n      swap3\n      swap2\n      pop\n      pop\n      jump\t// out\n        /* \"#utility.yul\":3121:3884   */\n    tag_40:\n        /* \"#utility.yul\":3200:3205   */\n      0x00\n        /* \"#utility.yul\":3244:3248   */\n      0x40\n        /* \"#utility.yul\":3232:3241   */\n      dup3\n        /* \"#utility.yul\":3227:3230   */\n      dup5\n        /* \"#utility.yul\":3223:3242   */\n      sub\n        /* \"#utility.yul\":3219:3249   */\n      slt\n        /* \"#utility.yul\":3216:3333   */\n      iszero\n      tag_75\n      jumpi\n        /* \"#utility.yul\":3252:3331   */\n      tag_76\n      tag_77\n      jump\t// in\n    tag_76:\n        /* \"#utility.yul\":3216:3333   */\n    tag_75:\n        /* \"#utility.yul\":3351:3372   */\n      tag_78\n        /* \"#utility.yul\":3367:3371   */\n      0x40\n        /* \"#utility.yul\":3351:3372   */\n      tag_29\n      jump\t// in\n    tag_78:\n        /* \"#utility.yul\":3342:3372   */\n      swap1\n      pop\n        /* \"#utility.yul\":3429:3430   */\n      0x00\n        /* \"#utility.yul\":3469:3529   */\n      tag_79\n        /* \"#utility.yul\":3525:3528   */\n      dup5\n        /* \"#utility.yul\":3516:3522   */\n      dup3\n        /* \"#utility.yul\":3505:3514   */\n      dup6\n        /* \"#utility.yul\":3501:3523   */\n      add\n        /* \"#utility.yul\":3469:3529   */\n      tag_80\n      jump\t// in\n    tag_79:\n        /* \"#utility.yul\":3462:3466   */\n      0x00\n        /* \"#utility.yul\":3455:3460   */\n      dup4\n        /* \"#utility.yul\":3451:3467   */\n      add\n        /* \"#utility.yul\":3444:3530   */\n      mstore\n        /* \"#utility.yul\":3382:3541   */\n      pop\n        /* \"#utility.yul\":3622:3624   */\n      0x20\n        /* \"#utility.yul\":3611:3620   */\n      dup3\n        /* \"#utility.yul\":3607:3625   */\n      add\n        /* \"#utility.yul\":3601:3626   */\n      mload\n        /* \"#utility.yul\":3653:3671   */\n      0xffffffffffffffff\n        /* \"#utility.yul\":3645:3651   */\n      dup2\n        /* \"#utility.yul\":3642:3672   */\n      gt\n        /* \"#utility.yul\":3639:3756   */\n      iszero\n      tag_81\n      jumpi\n        /* \"#utility.yul\":3675:3754   */\n      tag_82\n      tag_83\n      jump\t// in\n    tag_82:\n        /* \"#utility.yul\":3639:3756   */\n    tag_81:\n        /* \"#utility.yul\":3795:3865   */\n      tag_84\n        /* \"#utility.yul\":3861:3864   */\n      dup5\n        /* \"#utility.yul\":3852:3858   */\n      dup3\n        /* \"#utility.yul\":3841:3850   */\n      dup6\n        /* \"#utility.yul\":3837:3859   */\n      add\n        /* \"#utility.yul\":3795:3865   */\n      tag_69\n      jump\t// in\n    tag_84:\n        /* \"#utility.yul\":3788:3792   */\n      0x20\n        /* \"#utility.yul\":3781:3786   */\n      dup4\n        /* \"#utility.yul\":3777:3793   */\n      add\n        /* \"#utility.yul\":3770:3866   */\n      mstore\n        /* \"#utility.yul\":3551:3877   */\n      pop\n        /* \"#utility.yul\":3121:3884   */\n      swap3\n      swap2\n      pop\n      pop\n      jump\t// out\n        /* \"#utility.yul\":3890:4029   */\n    tag_85:\n        /* \"#utility.yul\":3936:3941   */\n      0x00\n        /* \"#utility.yul\":3974:3980   */\n      dup2\n        /* \"#utility.yul\":3961:3981   */\n      calldataload\n        /* \"#utility.yul\":3952:3981   */\n      swap1\n      pop\n        /* \"#utility.yul\":3990:4023   */\n      tag_87\n        /* \"#utility.yul\":4017:4022   */\n      dup2\n        /* \"#utility.yul\":3990:4023   */\n      tag_88\n      jump\t// in\n    tag_87:\n        /* \"#utility.yul\":3890:4029   */\n      swap3\n      swap2\n      pop\n      pop\n      jump\t// out\n        /* \"#utility.yul\":4035:4178   */\n    tag_80:\n        /* \"#utility.yul\":4092:4097   */\n      0x00\n        /* \"#utility.yul\":4123:4129   */\n      dup2\n        /* \"#utility.yul\":4117:4130   */\n      mload\n        /* \"#utility.yul\":4108:4130   */\n      swap1\n      pop\n        /* \"#utility.yul\":4139:4172   */\n      tag_90\n        /* \"#utility.yul\":4166:4171   */\n      dup2\n        /* \"#utility.yul\":4139:4172   */\n      tag_88\n      jump\t// in\n    tag_90:\n        /* \"#utility.yul\":4035:4178   */\n      swap3\n      swap2\n      pop\n      pop\n      jump\t// out\n        /* \"#utility.yul\":4184:4776   */\n    tag_22:\n        /* \"#utility.yul\":4298:4304   */\n      0x00\n        /* \"#utility.yul\":4347:4349   */\n      0x20\n        /* \"#utility.yul\":4335:4344   */\n      dup3\n        /* \"#utility.yul\":4326:4333   */\n      dup5\n        /* \"#utility.yul\":4322:4345   */\n      sub\n        /* \"#utility.yul\":4318:4350   */\n      slt\n        /* \"#utility.yul\":4315:4434   */\n      iszero\n      tag_92\n      jumpi\n        /* \"#utility.yul\":4353:4432   */\n      tag_93\n      tag_94\n      jump\t// in\n    tag_93:\n        /* \"#utility.yul\":4315:4434   */\n    tag_92:\n        /* \"#utility.yul\":4494:4495   */\n      0x00\n        /* \"#utility.yul\":4483:4492   */\n      dup3\n        /* \"#utility.yul\":4479:4496   */\n      add\n        /* \"#utility.yul\":4473:4497   */\n      mload\n        /* \"#utility.yul\":4524:4542   */\n      0xffffffffffffffff\n        /* \"#utility.yul\":4516:4522   */\n      dup2\n        /* \"#utility.yul\":4513:4543   */\n      gt\n        /* \"#utility.yul\":4510:4627   */\n      iszero\n      tag_95\n      jumpi\n        /* \"#utility.yul\":4546:4625   */\n      tag_96\n      tag_97\n      jump\t// in\n    tag_96:\n        /* \"#utility.yul\":4510:4627   */\n    tag_95:\n        /* \"#utility.yul\":4651:4759   */\n      tag_98\n        /* \"#utility.yul\":4751:4758   */\n      dup5\n        /* \"#utility.yul\":4742:4748   */\n      dup3\n        /* \"#utility.yul\":4731:4740   */\n      dup6\n        /* \"#utility.yul\":4727:4749   */\n      add\n        /* \"#utility.yul\":4651:4759   */\n      tag_59\n      jump\t// in\n    tag_98:\n        /* \"#utility.yul\":4641:4759   */\n      swap2\n      pop\n        /* \"#utility.yul\":4444:4769   */\n      pop\n        /* \"#utility.yul\":4184:4776   */\n      swap3\n      swap2\n      pop\n      pop\n      jump\t// out\n        /* \"#utility.yul\":4782:5436   */\n    tag_6:\n        /* \"#utility.yul\":4860:4866   */\n      0x00\n        /* \"#utility.yul\":4868:4874   */\n      dup1\n        /* \"#utility.yul\":4917:4919   */\n      0x40\n        /* \"#utility.yul\":4905:4914   */\n      dup4\n        /* \"#utility.yul\":4896:4903   */\n      dup6\n        /* \"#utility.yul\":4892:4915   */\n      sub\n        /* \"#utility.yul\":4888:4920   */\n      slt\n        /* \"#utility.yul\":4885:5004   */\n      iszero\n      tag_100\n      jumpi\n        /* \"#utility.yul\":4923:5002   */\n      tag_101\n      tag_94\n      jump\t// in\n    tag_101:\n        /* \"#utility.yul\":4885:5004   */\n    tag_100:\n        /* \"#utility.yul\":5043:5044   */\n      0x00\n        /* \"#utility.yul\":5068:5121   */\n      tag_102\n        /* \"#utility.yul\":5113:5120   */\n      dup6\n        /* \"#utility.yul\":5104:5110   */\n      dup3\n        /* \"#utility.yul\":5093:5102   */\n      dup7\n        /* \"#utility.yul\":5089:5111   */\n      add\n        /* \"#utility.yul\":5068:5121   */\n      tag_85\n      jump\t// in\n    tag_102:\n        /* \"#utility.yul\":5058:5121   */\n      swap3\n      pop\n        /* \"#utility.yul\":5014:5131   */\n      pop\n        /* \"#utility.yul\":5198:5200   */\n      0x20\n        /* \"#utility.yul\":5187:5196   */\n      dup4\n        /* \"#utility.yul\":5183:5201   */\n      add\n        /* \"#utility.yul\":5170:5202   */\n      calldataload\n        /* \"#utility.yul\":5229:5247   */\n      0xffffffffffffffff\n        /* \"#utility.yul\":5221:5227   */\n      dup2\n        /* \"#utility.yul\":5218:5248   */\n      gt\n        /* \"#utility.yul\":5215:5332   */\n      iszero\n      tag_103\n      jumpi\n        /* \"#utility.yul\":5251:5330   */\n      tag_104\n      tag_97\n      jump\t// in\n    tag_104:\n        /* \"#utility.yul\":5215:5332   */\n    tag_103:\n        /* \"#utility.yul\":5356:5419   */\n      tag_105\n        /* \"#utility.yul\":5411:5418   */\n      dup6\n        /* \"#utility.yul\":5402:5408   */\n      dup3\n        /* \"#utility.yul\":5391:5400   */\n      dup7\n        /* \"#utility.yul\":5387:5409   */\n      add\n        /* \"#utility.yul\":5356:5419   */\n      tag_64\n      jump\t// in\n    tag_105:\n        /* \"#utility.yul\":5346:5419   */\n      swap2\n      pop\n        /* \"#utility.yul\":5141:5429   */\n      pop\n        /* \"#utility.yul\":4782:5436   */\n      swap3\n      pop\n      swap3\n      swap1\n      pop\n      jump\t// out\n        /* \"#utility.yul\":5442:5806   */\n    tag_106:\n        /* \"#utility.yul\":5530:5533   */\n      0x00\n        /* \"#utility.yul\":5558:5597   */\n      tag_108\n        /* \"#utility.yul\":5591:5596   */\n      dup3\n        /* \"#utility.yul\":5558:5597   */\n      tag_109\n      jump\t// in\n    tag_108:\n        /* \"#utility.yul\":5613:5684   */\n      tag_110\n        /* \"#utility.yul\":5677:5683   */\n      dup2\n        /* \"#utility.yul\":5672:5675   */\n      dup6\n        /* \"#utility.yul\":5613:5684   */\n      tag_111\n      jump\t// in\n    tag_110:\n        /* \"#utility.yul\":5606:5684   */\n      swap4\n      pop\n        /* \"#utility.yul\":5693:5745   */\n      tag_112\n        /* \"#utility.yul\":5738:5744   */\n      dup2\n        /* \"#utility.yul\":5733:5736   */\n      dup6\n        /* \"#utility.yul\":5726:5730   */\n      0x20\n        /* \"#utility.yul\":5719:5724   */\n      dup7\n        /* \"#utility.yul\":5715:5731   */\n      add\n        /* \"#utility.yul\":5693:5745   */\n      tag_58\n      jump\t// in\n    tag_112:\n        /* \"#utility.yul\":5770:5799   */\n      tag_113\n        /* \"#utility.yul\":5792:5798   */\n      dup2\n        /* \"#utility.yul\":5770:5799   */\n      tag_114\n      jump\t// in\n    tag_113:\n        /* \"#utility.yul\":5765:5768   */\n      dup5\n        /* \"#utility.yul\":5761:5800   */\n      add\n        /* \"#utility.yul\":5754:5800   */\n      swap2\n      pop\n        /* \"#utility.yul\":5534:5806   */\n      pop\n        /* \"#utility.yul\":5442:5806   */\n      swap3\n      swap2\n      pop\n      pop\n      jump\t// out\n        /* \"#utility.yul\":5812:5930   */\n    tag_115:\n        /* \"#utility.yul\":5899:5923   */\n      tag_117\n        /* \"#utility.yul\":5917:5922   */\n      dup2\n        /* \"#utility.yul\":5899:5923   */\n      tag_118\n      jump\t// in\n    tag_117:\n        /* \"#utility.yul\":5894:5897   */\n      dup3\n        /* \"#utility.yul\":5887:5924   */\n      mstore\n        /* \"#utility.yul\":5812:5930   */\n      pop\n      pop\n      jump\t// out\n        /* \"#utility.yul\":5936:6359   */\n    tag_13:\n        /* \"#utility.yul\":6077:6081   */\n      0x00\n        /* \"#utility.yul\":6115:6117   */\n      0x40\n        /* \"#utility.yul\":6104:6113   */\n      dup3\n        /* \"#utility.yul\":6100:6118   */\n      add\n        /* \"#utility.yul\":6092:6118   */\n      swap1\n      pop\n        /* \"#utility.yul\":6128:6199   */\n      tag_120\n        /* \"#utility.yul\":6196:6197   */\n      0x00\n        /* \"#utility.yul\":6185:6194   */\n      dup4\n        /* \"#utility.yul\":6181:6198   */\n      add\n        /* \"#utility.yul\":6172:6178   */\n      dup6\n        /* \"#utility.yul\":6128:6199   */\n      tag_115\n      jump\t// in\n    tag_120:\n        /* \"#utility.yul\":6246:6255   */\n      dup2\n        /* \"#utility.yul\":6240:6244   */\n      dup2\n        /* \"#utility.yul\":6236:6256   */\n      sub\n        /* \"#utility.yul\":6231:6233   */\n      0x20\n        /* \"#utility.yul\":6220:6229   */\n      dup4\n        /* \"#utility.yul\":6216:6234   */\n      add\n        /* \"#utility.yul\":6209:6257   */\n      mstore\n        /* \"#utility.yul\":6274:6352   */\n      tag_121\n        /* \"#utility.yul\":6347:6351   */\n      dup2\n        /* \"#utility.yul\":6338:6344   */\n      dup5\n        /* \"#utility.yul\":6274:6352   */\n      tag_106\n      jump\t// in\n    tag_121:\n        /* \"#utility.yul\":6266:6352   */\n      swap1\n      pop\n        /* \"#utility.yul\":5936:6359   */\n      swap4\n      swap3\n      pop\n      pop\n      pop\n      jump\t// out\n        /* \"#utility.yul\":6365:6494   */\n    tag_29:\n        /* \"#utility.yul\":6399:6405   */\n      0x00\n        /* \"#utility.yul\":6426:6446   */\n      tag_123\n      tag_124\n      jump\t// in\n    tag_123:\n        /* \"#utility.yul\":6416:6446   */\n      swap1\n      pop\n        /* \"#utility.yul\":6455:6488   */\n      tag_125\n        /* \"#utility.yul\":6483:6487   */\n      dup3\n        /* \"#utility.yul\":6475:6481   */\n      dup3\n        /* \"#utility.yul\":6455:6488   */\n      tag_126\n      jump\t// in\n    tag_125:\n        /* \"#utility.yul\":6365:6494   */\n      swap2\n      swap1\n      pop\n      jump\t// out\n        /* \"#utility.yul\":6500:6575   */\n    tag_124:\n        /* \"#utility.yul\":6533:6539   */\n      0x00\n        /* \"#utility.yul\":6566:6568   */\n      0x40\n        /* \"#utility.yul\":6560:6569   */\n      mload\n        /* \"#utility.yul\":6550:6569   */\n      swap1\n      pop\n        /* \"#utility.yul\":6500:6575   */\n      swap1\n      jump\t// out\n        /* \"#utility.yul\":6581:6911   */\n    tag_28:\n        /* \"#utility.yul\":6677:6681   */\n      0x00\n        /* \"#utility.yul\":6767:6785   */\n      0xffffffffffffffff\n        /* \"#utility.yul\":6759:6765   */\n      dup3\n        /* \"#utility.yul\":6756:6786   */\n      gt\n        /* \"#utility.yul\":6753:6809   */\n      iszero\n      tag_129\n      jumpi\n        /* \"#utility.yul\":6789:6807   */\n      tag_130\n      tag_131\n      jump\t// in\n    tag_130:\n        /* \"#utility.yul\":6753:6809   */\n    tag_129:\n        /* \"#utility.yul\":6839:6843   */\n      0x20\n        /* \"#utility.yul\":6831:6837   */\n      dup3\n        /* \"#utility.yul\":6827:6844   */\n      mul\n        /* \"#utility.yul\":6819:6844   */\n      swap1\n      pop\n        /* \"#utility.yul\":6899:6903   */\n      0x20\n        /* \"#utility.yul\":6893:6897   */\n      dup2\n        /* \"#utility.yul\":6889:6904   */\n      add\n        /* \"#utility.yul\":6881:6904   */\n      swap1\n      pop\n        /* \"#utility.yul\":6581:6911   */\n      swap2\n      swap1\n      pop\n      jump\t// out\n        /* \"#utility.yul\":6917:7225   */\n    tag_45:\n        /* \"#utility.yul\":6979:6983   */\n      0x00\n        /* \"#utility.yul\":7069:7087   */\n      0xffffffffffffffff\n        /* \"#utility.yul\":7061:7067   */\n      dup3\n        /* \"#utility.yul\":7058:7088   */\n      gt\n        /* \"#utility.yul\":7055:7111   */\n      iszero\n      tag_133\n      jumpi\n        /* \"#utility.yul\":7091:7109   */\n      tag_134\n      tag_131\n      jump\t// in\n    tag_134:\n        /* \"#utility.yul\":7055:7111   */\n    tag_133:\n        /* \"#utility.yul\":7129:7158   */\n      tag_135\n        /* \"#utility.yul\":7151:7157   */\n      dup3\n        /* \"#utility.yul\":7129:7158   */\n      tag_114\n      jump\t// in\n    tag_135:\n        /* \"#utility.yul\":7121:7158   */\n      swap1\n      pop\n        /* \"#utility.yul\":7213:7217   */\n      0x20\n        /* \"#utility.yul\":7207:7211   */\n      dup2\n        /* \"#utility.yul\":7203:7218   */\n      add\n        /* \"#utility.yul\":7195:7218   */\n      swap1\n      pop\n        /* \"#utility.yul\":6917:7225   */\n      swap2\n      swap1\n      pop\n      jump\t// out\n        /* \"#utility.yul\":7231:7330   */\n    tag_109:\n        /* \"#utility.yul\":7283:7289   */\n      0x00\n        /* \"#utility.yul\":7317:7322   */\n      dup2\n        /* \"#utility.yul\":7311:7323   */\n      mload\n        /* \"#utility.yul\":7301:7323   */\n      swap1\n      pop\n        /* \"#utility.yul\":7231:7330   */\n      swap2\n      swap1\n      pop\n      jump\t// out\n        /* \"#utility.yul\":7336:7505   */\n    tag_111:\n        /* \"#utility.yul\":7420:7431   */\n      0x00\n        /* \"#utility.yul\":7454:7460   */\n      dup3\n        /* \"#utility.yul\":7449:7452   */\n      dup3\n        /* \"#utility.yul\":7442:7461   */\n      mstore\n        /* \"#utility.yul\":7494:7498   */\n      0x20\n        /* \"#utility.yul\":7489:7492   */\n      dup3\n        /* \"#utility.yul\":7485:7499   */\n      add\n        /* \"#utility.yul\":7470:7499   */\n      swap1\n      pop\n        /* \"#utility.yul\":7336:7505   */\n      swap3\n      swap2\n      pop\n      pop\n      jump\t// out\n        /* \"#utility.yul\":7511:7588   */\n    tag_118:\n        /* \"#utility.yul\":7548:7555   */\n      0x00\n        /* \"#utility.yul\":7577:7582   */\n      dup2\n        /* \"#utility.yul\":7566:7582   */\n      swap1\n      pop\n        /* \"#utility.yul\":7511:7588   */\n      swap2\n      swap1\n      pop\n      jump\t// out\n        /* \"#utility.yul\":7594:7748   */\n    tag_50:\n        /* \"#utility.yul\":7678:7684   */\n      dup3\n        /* \"#utility.yul\":7673:7676   */\n      dup2\n        /* \"#utility.yul\":7668:7671   */\n      dup4\n        /* \"#utility.yul\":7655:7685   */\n      calldatacopy\n        /* \"#utility.yul\":7740:7741   */\n      0x00\n        /* \"#utility.yul\":7731:7737   */\n      dup4\n        /* \"#utility.yul\":7726:7729   */\n      dup4\n        /* \"#utility.yul\":7722:7738   */\n      add\n        /* \"#utility.yul\":7715:7742   */\n      mstore\n        /* \"#utility.yul\":7594:7748   */\n      pop\n      pop\n      pop\n      jump\t// out\n        /* \"#utility.yul\":7754:8061   */\n    tag_58:\n        /* \"#utility.yul\":7822:7823   */\n      0x00\n        /* \"#utility.yul\":7832:7945   */\n    tag_141:\n        /* \"#utility.yul\":7846:7852   */\n      dup4\n        /* \"#utility.yul\":7843:7844   */\n      dup2\n        /* \"#utility.yul\":7840:7853   */\n      lt\n        /* \"#utility.yul\":7832:7945   */\n      iszero\n      tag_143\n      jumpi\n        /* \"#utility.yul\":7931:7932   */\n      dup1\n        /* \"#utility.yul\":7926:7929   */\n      dup3\n        /* \"#utility.yul\":7922:7933   */\n      add\n        /* \"#utility.yul\":7916:7934   */\n      mload\n        /* \"#utility.yul\":7912:7913   */\n      dup2\n        /* \"#utility.yul\":7907:7910   */\n      dup5\n        /* \"#utility.yul\":7903:7914   */\n      add\n        /* \"#utility.yul\":7896:7935   */\n      mstore\n        /* \"#utility.yul\":7868:7870   */\n      0x20\n        /* \"#utility.yul\":7865:7866   */\n      dup2\n        /* \"#utility.yul\":7861:7871   */\n      add\n        /* \"#utility.yul\":7856:7871   */\n      swap1\n      pop\n        /* \"#utility.yul\":7832:7945   */\n      jump(tag_141)\n    tag_143:\n        /* \"#utility.yul\":7963:7969   */\n      dup4\n        /* \"#utility.yul\":7960:7961   */\n      dup2\n        /* \"#utility.yul\":7957:7970   */\n      gt\n        /* \"#utility.yul\":7954:8055   */\n      iszero\n      tag_144\n      jumpi\n        /* \"#utility.yul\":8043:8044   */\n      0x00\n        /* \"#utility.yul\":8034:8040   */\n      dup5\n        /* \"#utility.yul\":8029:8032   */\n      dup5\n        /* \"#utility.yul\":8025:8041   */\n      add\n        /* \"#utility.yul\":8018:8045   */\n      mstore\n        /* \"#utility.yul\":7954:8055   */\n    tag_144:\n        /* \"#utility.yul\":7803:8061   */\n      pop\n        /* \"#utility.yul\":7754:8061   */\n      pop\n      pop\n      pop\n      jump\t// out\n        /* \"#utility.yul\":8067:8348   */\n    tag_126:\n        /* \"#utility.yul\":8150:8177   */\n      tag_146\n        /* \"#utility.yul\":8172:8176   */\n      dup3\n        /* \"#utility.yul\":8150:8177   */\n      tag_114\n      jump\t// in\n    tag_146:\n        /* \"#utility.yul\":8142:8148   */\n      dup2\n        /* \"#utility.yul\":8138:8178   */\n      add\n        /* \"#utility.yul\":8280:8286   */\n      dup2\n        /* \"#utility.yul\":8268:8278   */\n      dup2\n        /* \"#utility.yul\":8265:8287   */\n      lt\n        /* \"#utility.yul\":8244:8262   */\n      0xffffffffffffffff\n        /* \"#utility.yul\":8232:8242   */\n      dup3\n        /* \"#utility.yul\":8229:8263   */\n      gt\n        /* \"#utility.yul\":8226:8288   */\n      or\n        /* \"#utility.yul\":8223:8311   */\n      iszero\n      tag_147\n      jumpi\n        /* \"#utility.yul\":8291:8309   */\n      tag_148\n      tag_131\n      jump\t// in\n    tag_148:\n        /* \"#utility.yul\":8223:8311   */\n    tag_147:\n        /* \"#utility.yul\":8331:8341   */\n      dup1\n        /* \"#utility.yul\":8327:8329   */\n      0x40\n        /* \"#utility.yul\":8320:8342   */\n      mstore\n        /* \"#utility.yul\":8110:8348   */\n      pop\n        /* \"#utility.yul\":8067:8348   */\n      pop\n      pop\n      jump\t// out\n        /* \"#utility.yul\":8354:8534   */\n    tag_131:\n        /* \"#utility.yul\":8402:8479   */\n      0x4e487b7100000000000000000000000000000000000000000000000000000000\n        /* \"#utility.yul\":8399:8400   */\n      0x00\n        /* \"#utility.yul\":8392:8480   */\n      mstore\n        /* \"#utility.yul\":8499:8503   */\n      0x41\n        /* \"#utility.yul\":8496:8497   */\n      0x04\n        /* \"#utility.yul\":8489:8504   */\n      mstore\n        /* \"#utility.yul\":8523:8527   */\n      0x24\n        /* \"#utility.yul\":8520:8521   */\n      0x00\n        /* \"#utility.yul\":8513:8528   */\n      revert\n        /* \"#utility.yul\":8540:8657   */\n    tag_38:\n        /* \"#utility.yul\":8649:8650   */\n      0x00\n        /* \"#utility.yul\":8646:8647   */\n      dup1\n        /* \"#utility.yul\":8639:8651   */\n      revert\n        /* \"#utility.yul\":8663:8780   */\n    tag_77:\n        /* \"#utility.yul\":8772:8773   */\n      0x00\n        /* \"#utility.yul\":8769:8770   */\n      dup1\n        /* \"#utility.yul\":8762:8774   */\n      revert\n        /* \"#utility.yul\":8786:8903   */\n    tag_83:\n        /* \"#utility.yul\":8895:8896   */\n      0x00\n        /* \"#utility.yul\":8892:8893   */\n      dup1\n        /* \"#utility.yul\":8885:8897   */\n      revert\n        /* \"#utility.yul\":8909:9026   */\n    tag_32:\n        /* \"#utility.yul\":9018:9019   */\n      0x00\n        /* \"#utility.yul\":9015:9016   */\n      dup1\n        /* \"#utility.yul\":9008:9020   */\n      revert\n        /* \"#utility.yul\":9032:9149   */\n    tag_48:\n        /* \"#utility.yul\":9141:9142   */\n      0x00\n        /* \"#utility.yul\":9138:9139   */\n      dup1\n        /* \"#utility.yul\":9131:9143   */\n      revert\n        /* \"#utility.yul\":9155:9272   */\n    tag_97:\n        /* \"#utility.yul\":9264:9265   */\n      0x00\n        /* \"#utility.yul\":9261:9262   */\n      dup1\n        /* \"#utility.yul\":9254:9266   */\n      revert\n        /* \"#utility.yul\":9278:9395   */\n    tag_94:\n        /* \"#utility.yul\":9387:9388   */\n      0x00\n        /* \"#utility.yul\":9384:9385   */\n      dup1\n        /* \"#utility.yul\":9377:9389   */\n      revert\n        /* \"#utility.yul\":9401:9503   */\n    tag_114:\n        /* \"#utility.yul\":9442:9448   */\n      0x00\n        /* \"#utility.yul\":9493:9495   */\n      0x1f\n        /* \"#utility.yul\":9489:9496   */\n      not\n        /* \"#utility.yul\":9484:9486   */\n      0x1f\n        /* \"#utility.yul\":9477:9482   */\n      dup4\n        /* \"#utility.yul\":9473:9487   */\n      add\n        /* \"#utility.yul\":9469:9497   */\n      and\n        /* \"#utility.yul\":9459:9497   */\n      swap1\n      pop\n        /* \"#utility.yul\":9401:9503   */\n      swap2\n      swap1\n      pop\n      jump\t// out\n        /* \"#utility.yul\":9509:9631   */\n    tag_88:\n        /* \"#utility.yul\":9582:9606   */\n      tag_159\n        /* \"#utility.yul\":9600:9605   */\n      dup2\n        /* \"#utility.yul\":9582:9606   */\n      tag_118\n      jump\t// in\n    tag_159:\n        /* \"#utility.yul\":9575:9580   */\n      dup2\n        /* \"#utility.yul\":9572:9607   */\n      eq\n        /* \"#utility.yul\":9562:9625   */\n      tag_160\n      jumpi\n        /* \"#utility.yul\":9621:9622   */\n      0x00\n        /* \"#utility.yul\":9618:9619   */\n      dup1\n        /* \"#utility.yul\":9611:9623   */\n      revert\n        /* \"#utility.yul\":9562:9625   */\n    tag_160:\n        /* \"#utility.yul\":9509:9631   */\n      pop\n      jump\t// out\n\n    auxdata: 0xa2646970667358221220d3925ba83e6c3a2b030e6592d7e40daec316aa1014fa4abbd6c907a91454174d64736f6c63430008070033\n}\n",
				"bytecode": {
					"linkReferences": {},
					"object": "608060405234801561001057600080fd5b506106b2806100206000396000f3fe6080604052600436106100295760003560e01c8063494b71af1461002e57806384b0befc1461004a575b600080fd5b61004860048036038101906100439190610413565b610061565b005b34801561005657600080fd5b5061005f6100f2565b005b60008054906101000a900473ffffffffffffffffffffffffffffffffffffffff1673ffffffffffffffffffffffffffffffffffffffff166358fcbbfd83836040518363ffffffff1660e01b81526004016100bc9291906104b7565b600060405180830381600087803b1580156100d657600080fd5b505af11580156100ea573d6000803e3d6000fd5b505050505050565b60008054906101000a900473ffffffffffffffffffffffffffffffffffffffff1673ffffffffffffffffffffffffffffffffffffffff1663942b765a6040518163ffffffff1660e01b815260040160006040518083038186803b15801561015857600080fd5b505afa15801561016c573d6000803e3d6000fd5b505050506040513d6000823e3d601f19601f8201168201806040525081019061019591906103ca565b50565b60006101ab6101a68461050c565b6104e7565b905080838252602082019050828560208602820111156101ce576101cd610640565b5b60005b8581101561021c57815167ffffffffffffffff8111156101f4576101f3610631565b5b8086016102018982610334565b855260208501945060208401935050506001810190506101d1565b5050509392505050565b600061023961023484610538565b6104e7565b90508281526020810184848401111561025557610254610645565b5b61026084828561058f565b509392505050565b600061027b61027684610538565b6104e7565b90508281526020810184848401111561029757610296610645565b5b6102a284828561059e565b509392505050565b600082601f8301126102bf576102be610631565b5b81516102cf848260208601610198565b91505092915050565b600082601f8301126102ed576102ec610631565b5b81356102fd848260208601610226565b91505092915050565b600082601f83011261031b5761031a610631565b5b815161032b848260208601610268565b91505092915050565b60006040828403121561034a57610349610636565b5b61035460406104e7565b90506000610364848285016103b5565b600083015250602082015167ffffffffffffffff8111156103885761038761063b565b5b61039484828501610306565b60208301525092915050565b6000813590506103af81610665565b92915050565b6000815190506103c481610665565b92915050565b6000602082840312156103e0576103df61064f565b5b600082015167ffffffffffffffff8111156103fe576103fd61064a565b5b61040a848285016102aa565b91505092915050565b6000806040838503121561042a5761042961064f565b5b6000610438858286016103a0565b925050602083013567ffffffffffffffff8111156104595761045861064a565b5b610465858286016102d8565b9150509250929050565b600061047a82610569565b6104848185610574565b935061049481856020860161059e565b61049d81610654565b840191505092915050565b6104b181610585565b82525050565b60006040820190506104cc60008301856104a8565b81810360208301526104de818461046f565b90509392505050565b60006104f1610502565b90506104fd82826105d1565b919050565b6000604051905090565b600067ffffffffffffffff82111561052757610526610602565b5b602082029050602081019050919050565b600067ffffffffffffffff82111561055357610552610602565b5b61055c82610654565b9050602081019050919050565b600081519050919050565b600082825260208201905092915050565b6000819050919050565b82818337600083830152505050565b60005b838110156105bc5780820151818401526020810190506105a1565b838111156105cb576000848401525b50505050565b6105da82610654565b810181811067ffffffffffffffff821117156105f9576105f8610602565b5b80604052505050565b7f4e487b7100000000000000000000000000000000000000000000000000000000600052604160045260246000fd5b600080fd5b600080fd5b600080fd5b600080fd5b600080fd5b600080fd5b600080fd5b6000601f19601f8301169050919050565b61066e81610585565b811461067957600080fd5b5056fea2646970667358221220d3925ba83e6c3a2b030e6592d7e40daec316aa1014fa4abbd6c907a91454174d64736f6c63430008070033",
					"opcodes": "PUSH1 0x80 PUSH1 0x40 MSTORE CALLVALUE DUP1 ISZERO PUSH2 0x10 JUMPI PUSH1 0x0 DUP1 REVERT JUMPDEST POP PUSH2 0x6B2 DUP1 PUSH2 0x20 PUSH1 0x0 CODECOPY PUSH1 0x0 RETURN INVALID PUSH1 0x80 PUSH1 0x40 MSTORE PUSH1 0x4 CALLDATASIZE LT PUSH2 0x29 JUMPI PUSH1 0x0 CALLDATALOAD PUSH1 0xE0 SHR DUP1 PUSH4 0x494B71AF EQ PUSH2 0x2E JUMPI DUP1 PUSH4 0x84B0BEFC EQ PUSH2 0x4A JUMPI JUMPDEST PUSH1 0x0 DUP1 REVERT JUMPDEST PUSH2 0x48 PUSH1 0x4 DUP1 CALLDATASIZE SUB DUP2 ADD SWAP1 PUSH2 0x43 SWAP2 SWAP1 PUSH2 0x413 JUMP JUMPDEST PUSH2 0x61 JUMP JUMPDEST STOP JUMPDEST CALLVALUE DUP1 ISZERO PUSH2 0x56 JUMPI PUSH1 0x0 DUP1 REVERT JUMPDEST POP PUSH2 0x5F PUSH2 0xF2 JUMP JUMPDEST STOP JUMPDEST PUSH1 0x0 DUP1 SLOAD SWAP1 PUSH2 0x100 EXP SWAP1 DIV PUSH20 0xFFFFFFFFFFFFFFFFFFFFFFFFFFFFFFFFFFFFFFFF AND PUSH20 0xFFFFFFFFFFFFFFFFFFFFFFFFFFFFFFFFFFFFFFFF AND PUSH4 0x58FCBBFD DUP4 DUP4 PUSH1 0x40 MLOAD DUP4 PUSH4 0xFFFFFFFF AND PUSH1 0xE0 SHL DUP2 MSTORE PUSH1 0x4 ADD PUSH2 0xBC SWAP3 SWAP2 SWAP1 PUSH2 0x4B7 JUMP JUMPDEST PUSH1 0x0 PUSH1 0x40 MLOAD DUP1 DUP4 SUB DUP2 PUSH1 0x0 DUP8 DUP1 EXTCODESIZE ISZERO DUP1 ISZERO PUSH2 0xD6 JUMPI PUSH1 0x0 DUP1 REVERT JUMPDEST POP GAS CALL ISZERO DUP1 ISZERO PUSH2 0xEA JUMPI RETURNDATASIZE PUSH1 0x0 DUP1 RETURNDATACOPY RETURNDATASIZE PUSH1 0x0 REVERT JUMPDEST POP POP POP POP POP POP JUMP JUMPDEST PUSH1 0x0 DUP1 SLOAD SWAP1 PUSH2 0x100 EXP SWAP1 DIV PUSH20 0xFFFFFFFFFFFFFFFFFFFFFFFFFFFFFFFFFFFFFFFF AND PUSH20 0xFFFFFFFFFFFFFFFFFFFFFFFFFFFFFFFFFFFFFFFF AND PUSH4 0x942B765A PUSH1 0x40 MLOAD DUP2 PUSH4 0xFFFFFFFF AND PUSH1 0xE0 SHL DUP2 MSTORE PUSH1 0x4 ADD PUSH1 0x0 PUSH1 0x40 MLOAD DUP1 DUP4 SUB DUP2 DUP7 DUP1 EXTCODESIZE ISZERO DUP1 ISZERO PUSH2 0x158 JUMPI PUSH1 0x0 DUP1 REVERT JUMPDEST POP GAS STATICCALL ISZERO DUP1 ISZERO PUSH2 0x16C JUMPI RETURNDATASIZE PUSH1 0x0 DUP1 RETURNDATACOPY RETURNDATASIZE PUSH1 0x0 REVERT JUMPDEST POP POP POP POP PUSH1 0x40 MLOAD RETURNDATASIZE PUSH1 0x0 DUP3 RETURNDATACOPY RETURNDATASIZE PUSH1 0x1F NOT PUSH1 0x1F DUP3 ADD AND DUP3 ADD DUP1 PUSH1 0x40 MSTORE POP DUP2 ADD SWAP1 PUSH2 0x195 SWAP2 SWAP1 PUSH2 0x3CA JUMP JUMPDEST POP JUMP JUMPDEST PUSH1 0x0 PUSH2 0x1AB PUSH2 0x1A6 DUP5 PUSH2 0x50C JUMP JUMPDEST PUSH2 0x4E7 JUMP JUMPDEST SWAP1 POP DUP1 DUP4 DUP3 MSTORE PUSH1 0x20 DUP3 ADD SWAP1 POP DUP3 DUP6 PUSH1 0x20 DUP7 MUL DUP3 ADD GT ISZERO PUSH2 0x1CE JUMPI PUSH2 0x1CD PUSH2 0x640 JUMP JUMPDEST JUMPDEST PUSH1 0x0 JUMPDEST DUP6 DUP2 LT ISZERO PUSH2 0x21C JUMPI DUP2 MLOAD PUSH8 0xFFFFFFFFFFFFFFFF DUP2 GT ISZERO PUSH2 0x1F4 JUMPI PUSH2 0x1F3 PUSH2 0x631 JUMP JUMPDEST JUMPDEST DUP1 DUP7 ADD PUSH2 0x201 DUP10 DUP3 PUSH2 0x334 JUMP JUMPDEST DUP6 MSTORE PUSH1 0x20 DUP6 ADD SWAP5 POP PUSH1 0x20 DUP5 ADD SWAP4 POP POP POP PUSH1 0x1 DUP2 ADD SWAP1 POP PUSH2 0x1D1 JUMP JUMPDEST POP POP POP SWAP4 SWAP3 POP POP POP JUMP JUMPDEST PUSH1 0x0 PUSH2 0x239 PUSH2 0x234 DUP5 PUSH2 0x538 JUMP JUMPDEST PUSH2 0x4E7 JUMP JUMPDEST SWAP1 POP DUP3 DUP2 MSTORE PUSH1 0x20 DUP2 ADD DUP5 DUP5 DUP5 ADD GT ISZERO PUSH2 0x255 JUMPI PUSH2 0x254 PUSH2 0x645 JUMP JUMPDEST JUMPDEST PUSH2 0x260 DUP5 DUP3 DUP6 PUSH2 0x58F JUMP JUMPDEST POP SWAP4 SWAP3 POP POP POP JUMP JUMPDEST PUSH1 0x0 PUSH2 0x27B PUSH2 0x276 DUP5 PUSH2 0x538 JUMP JUMPDEST PUSH2 0x4E7 JUMP JUMPDEST SWAP1 POP DUP3 DUP2 MSTORE PUSH1 0x20 DUP2 ADD DUP5 DUP5 DUP5 ADD GT ISZERO PUSH2 0x297 JUMPI PUSH2 0x296 PUSH2 0x645 JUMP JUMPDEST JUMPDEST PUSH2 0x2A2 DUP5 DUP3 DUP6 PUSH2 0x59E JUMP JUMPDEST POP SWAP4 SWAP3 POP POP POP JUMP JUMPDEST PUSH1 0x0 DUP3 PUSH1 0x1F DUP4 ADD SLT PUSH2 0x2BF JUMPI PUSH2 0x2BE PUSH2 0x631 JUMP JUMPDEST JUMPDEST DUP2 MLOAD PUSH2 0x2CF DUP5 DUP3 PUSH1 0x20 DUP7 ADD PUSH2 0x198 JUMP JUMPDEST SWAP2 POP POP SWAP3 SWAP2 POP POP JUMP JUMPDEST PUSH1 0x0 DUP3 PUSH1 0x1F DUP4 ADD SLT PUSH2 0x2ED JUMPI PUSH2 0x2EC PUSH2 0x631 JUMP JUMPDEST JUMPDEST DUP2 CALLDATALOAD PUSH2 0x2FD DUP5 DUP3 PUSH1 0x20 DUP7 ADD PUSH2 0x226 JUMP JUMPDEST SWAP2 POP POP SWAP3 SWAP2 POP POP JUMP JUMPDEST PUSH1 0x0 DUP3 PUSH1 0x1F DUP4 ADD SLT PUSH2 0x31B JUMPI PUSH2 0x31A PUSH2 0x631 JUMP JUMPDEST JUMPDEST DUP2 MLOAD PUSH2 0x32B DUP5 DUP3 PUSH1 0x20 DUP7 ADD PUSH2 0x268 JUMP JUMPDEST SWAP2 POP POP SWAP3 SWAP2 POP POP JUMP JUMPDEST PUSH1 0x0 PUSH1 0x40 DUP3 DUP5 SUB SLT ISZERO PUSH2 0x34A JUMPI PUSH2 0x349 PUSH2 0x636 JUMP JUMPDEST JUMPDEST PUSH2 0x354 PUSH1 0x40 PUSH2 0x4E7 JUMP JUMPDEST SWAP1 POP PUSH1 0x0 PUSH2 0x364 DUP5 DUP3 DUP6 ADD PUSH2 0x3B5 JUMP JUMPDEST PUSH1 0x0 DUP4 ADD MSTORE POP PUSH1 0x20 DUP3 ADD MLOAD PUSH8 0xFFFFFFFFFFFFFFFF DUP2 GT ISZERO PUSH2 0x388 JUMPI PUSH2 0x387 PUSH2 0x63B JUMP JUMPDEST JUMPDEST PUSH2 0x394 DUP5 DUP3 DUP6 ADD PUSH2 0x306 JUMP JUMPDEST PUSH1 0x20 DUP4 ADD MSTORE POP SWAP3 SWAP2 POP POP JUMP JUMPDEST PUSH1 0x0 DUP2 CALLDATALOAD SWAP1 POP PUSH2 0x3AF DUP2 PUSH2 0x665 JUMP JUMPDEST SWAP3 SWAP2 POP POP JUMP JUMPDEST PUSH1 0x0 DUP2 MLOAD SWAP1 POP PUSH2 0x3C4 DUP2 PUSH2 0x665 JUMP JUMPDEST SWAP3 SWAP2 POP POP JUMP JUMPDEST PUSH1 0x0 PUSH1 0x20 DUP3 DUP5 SUB SLT ISZERO PUSH2 0x3E0 JUMPI PUSH2 0x3DF PUSH2 0x64F JUMP JUMPDEST JUMPDEST PUSH1 0x0 DUP3 ADD MLOAD PUSH8 0xFFFFFFFFFFFFFFFF DUP2 GT ISZERO PUSH2 0x3FE JUMPI PUSH2 0x3FD PUSH2 0x64A JUMP JUMPDEST JUMPDEST PUSH2 0x40A DUP5 DUP3 DUP6 ADD PUSH2 0x2AA JUMP JUMPDEST SWAP2 POP POP SWAP3 SWAP2 POP POP JUMP JUMPDEST PUSH1 0x0 DUP1 PUSH1 0x40 DUP4 DUP6 SUB SLT ISZERO PUSH2 0x42A JUMPI PUSH2 0x429 PUSH2 0x64F JUMP JUMPDEST JUMPDEST PUSH1 0x0 PUSH2 0x438 DUP6 DUP3 DUP7 ADD PUSH2 0x3A0 JUMP JUMPDEST SWAP3 POP POP PUSH1 0x20 DUP4 ADD CALLDATALOAD PUSH8 0xFFFFFFFFFFFFFFFF DUP2 GT ISZERO PUSH2 0x459 JUMPI PUSH2 0x458 PUSH2 0x64A JUMP JUMPDEST JUMPDEST PUSH2 0x465 DUP6 DUP3 DUP7 ADD PUSH2 0x2D8 JUMP JUMPDEST SWAP2 POP POP SWAP3 POP SWAP3 SWAP1 POP JUMP JUMPDEST PUSH1 0x0 PUSH2 0x47A DUP3 PUSH2 0x569 JUMP JUMPDEST PUSH2 0x484 DUP2 DUP6 PUSH2 0x574 JUMP JUMPDEST SWAP4 POP PUSH2 0x494 DUP2 DUP6 PUSH1 0x20 DUP7 ADD PUSH2 0x59E JUMP JUMPDEST PUSH2 0x49D DUP2 PUSH2 0x654 JUMP JUMPDEST DUP5 ADD SWAP2 POP POP SWAP3 SWAP2 POP POP JUMP JUMPDEST PUSH2 0x4B1 DUP2 PUSH2 0x585 JUMP JUMPDEST DUP3 MSTORE POP POP JUMP JUMPDEST PUSH1 0x0 PUSH1 0x40 DUP3 ADD SWAP1 POP PUSH2 0x4CC PUSH1 0x0 DUP4 ADD DUP6 PUSH2 0x4A8 JUMP JUMPDEST DUP2 DUP2 SUB PUSH1 0x20 DUP4 ADD MSTORE PUSH2 0x4DE DUP2 DUP5 PUSH2 0x46F JUMP JUMPDEST SWAP1 POP SWAP4 SWAP3 POP POP POP JUMP JUMPDEST PUSH1 0x0 PUSH2 0x4F1 PUSH2 0x502 JUMP JUMPDEST SWAP1 POP PUSH2 0x4FD DUP3 DUP3 PUSH2 0x5D1 JUMP JUMPDEST SWAP2 SWAP1 POP JUMP JUMPDEST PUSH1 0x0 PUSH1 0x40 MLOAD SWAP1 POP SWAP1 JUMP JUMPDEST PUSH1 0x0 PUSH8 0xFFFFFFFFFFFFFFFF DUP3 GT ISZERO PUSH2 0x527 JUMPI PUSH2 0x526 PUSH2 0x602 JUMP JUMPDEST JUMPDEST PUSH1 0x20 DUP3 MUL SWAP1 POP PUSH1 0x20 DUP2 ADD SWAP1 POP SWAP2 SWAP1 POP JUMP JUMPDEST PUSH1 0x0 PUSH8 0xFFFFFFFFFFFFFFFF DUP3 GT ISZERO PUSH2 0x553 JUMPI PUSH2 0x552 PUSH2 0x602 JUMP JUMPDEST JUMPDEST PUSH2 0x55C DUP3 PUSH2 0x654 JUMP JUMPDEST SWAP1 POP PUSH1 0x20 DUP2 ADD SWAP1 POP SWAP2 SWAP1 POP JUMP JUMPDEST PUSH1 0x0 DUP2 MLOAD SWAP1 POP SWAP2 SWAP1 POP JUMP JUMPDEST PUSH1 0x0 DUP3 DUP3 MSTORE PUSH1 0x20 DUP3 ADD SWAP1 POP SWAP3 SWAP2 POP POP JUMP JUMPDEST PUSH1 0x0 DUP2 SWAP1 POP SWAP2 SWAP1 POP JUMP JUMPDEST DUP3 DUP2 DUP4 CALLDATACOPY PUSH1 0x0 DUP4 DUP4 ADD MSTORE POP POP POP JUMP JUMPDEST PUSH1 0x0 JUMPDEST DUP4 DUP2 LT ISZERO PUSH2 0x5BC JUMPI DUP1 DUP3 ADD MLOAD DUP2 DUP5 ADD MSTORE PUSH1 0x20 DUP2 ADD SWAP1 POP PUSH2 0x5A1 JUMP JUMPDEST DUP4 DUP2 GT ISZERO PUSH2 0x5CB JUMPI PUSH1 0x0 DUP5 DUP5 ADD MSTORE JUMPDEST POP POP POP POP JUMP JUMPDEST PUSH2 0x5DA DUP3 PUSH2 0x654 JUMP JUMPDEST DUP2 ADD DUP2 DUP2 LT PUSH8 0xFFFFFFFFFFFFFFFF DUP3 GT OR ISZERO PUSH2 0x5F9 JUMPI PUSH2 0x5F8 PUSH2 0x602 JUMP JUMPDEST JUMPDEST DUP1 PUSH1 0x40 MSTORE POP POP POP JUMP JUMPDEST PUSH32 0x4E487B7100000000000000000000000000000000000000000000000000000000 PUSH1 0x0 MSTORE PUSH1 0x41 PUSH1 0x4 MSTORE PUSH1 0x24 PUSH1 0x0 REVERT JUMPDEST PUSH1 0x0 DUP1 REVERT JUMPDEST PUSH1 0x0 DUP1 REVERT JUMPDEST PUSH1 0x0 DUP1 REVERT JUMPDEST PUSH1 0x0 DUP1 REVERT JUMPDEST PUSH1 0x0 DUP1 REVERT JUMPDEST PUSH1 0x0 DUP1 REVERT JUMPDEST PUSH1 0x0 DUP1 REVERT JUMPDEST PUSH1 0x0 PUSH1 0x1F NOT PUSH1 0x1F DUP4 ADD AND SWAP1 POP SWAP2 SWAP1 POP JUMP JUMPDEST PUSH2 0x66E DUP2 PUSH2 0x585 JUMP JUMPDEST DUP2 EQ PUSH2 0x679 JUMPI PUSH1 0x0 DUP1 REVERT JUMPDEST POP JUMP INVALID LOG2 PUSH5 0x6970667358 0x22 SLT KECCAK256 0xD3 SWAP3 JUMPDEST 0xA8 RETURNDATACOPY PUSH13 0x3A2B030E6592D7E40DAEC316AA LT EQ STATICCALL 0x4A 0xBB 0xD6 0xC9 SMOD 0xA9 EQ SLOAD OR 0x4D PUSH5 0x736F6C6343 STOP ADDMOD SMOD STOP CALLER "
				},
				"gasEstimates": {
					"creation": {
						"codeDepositCost": "342800",
						"executionCost": "380",
						"totalCost": "343180"
					},
					"external": {
						"addTask2(uint256,string)": "infinite",
						"getList2()": "infinite"
					}
				},
				"methodIdentifiers": {
					"addTask2(uint256,string)": "494b71af",
					"getList2()": "84b0befc"
				}
			},
			"storageLayout": {
				"storage": [
					{
						"astId": 41,
						"contract": "todoList.sol:TodoList",
						"label": "todoList",
						"offset": 0,
						"slot": "0",
						"type": "t_contract(TodoListData)38"
					}
				],
				"types": {
					"t_contract(TodoListData)38": {
						"encoding": "inplace",
						"label": "contract TodoListData",
						"numberOfBytes": "20"
					}
				}
			},
			"userdoc": {
				"kind": "user",
				"methods": {},
				"version": 1
			}
		}
	}
}