{
	"todoList.sol": {
		"TodoList": {
			"abi": [
				{
					"inputs": [],
					"name": "getList",
					"outputs": [
						{
							"components": [
								{
									"internalType": "string",
									"name": "value",
									"type": "string"
								}
							],
							"internalType": "struct TodoList.Task[]",
							"name": "",
							"type": "tuple[]"
						}
					],
					"stateMutability": "view",
					"type": "function"
				},
				{
					"inputs": [
						{
							"internalType": "string",
							"name": "_val",
							"type": "string"
						}
					],
					"name": "push",
					"outputs": [],
					"stateMutability": "nonpayable",
					"type": "function"
				}
			],
			"devdoc": {
				"kind": "dev",
				"methods": {},
				"version": 1
			},
			"evm": {
				"assembly": "    /* \"todoList.sol\":61:336  contract TodoList {\r... */\n  mstore(0x40, 0x80)\n  callvalue\n  dup1\n  iszero\n  tag_1\n  jumpi\n  0x00\n  dup1\n  revert\ntag_1:\n  pop\n  dataSize(sub_0)\n  dup1\n  dataOffset(sub_0)\n  0x00\n  codecopy\n  0x00\n  return\nstop\n\nsub_0: assembly {\n        /* \"todoList.sol\":61:336  contract TodoList {\r... */\n      mstore(0x40, 0x80)\n      callvalue\n      dup1\n      iszero\n      tag_1\n      jumpi\n      0x00\n      dup1\n      revert\n    tag_1:\n      pop\n      jumpi(tag_2, lt(calldatasize, 0x04))\n      shr(0xe0, calldataload(0x00))\n      dup1\n      0x4f3d057a\n      eq\n      tag_3\n      jumpi\n      dup1\n      0x942b765a\n      eq\n      tag_4\n      jumpi\n    tag_2:\n      0x00\n      dup1\n      revert\n        /* \"todoList.sol\":157:238  function push(string memory _val) public {\r... */\n    tag_3:\n      tag_5\n      0x04\n      dup1\n      calldatasize\n      sub\n      dup2\n      add\n      swap1\n      tag_6\n      swap2\n      swap1\n      tag_7\n      jump\t// in\n    tag_6:\n      tag_8\n      jump\t// in\n    tag_5:\n      stop\n        /* \"todoList.sol\":246:331  function getList () public view returns (Task[] memory){\r... */\n    tag_4:\n      tag_9\n      tag_10\n      jump\t// in\n    tag_9:\n      mload(0x40)\n      tag_11\n      swap2\n      swap1\n      tag_12\n      jump\t// in\n    tag_11:\n      mload(0x40)\n      dup1\n      swap2\n      sub\n      swap1\n      return\n        /* \"todoList.sol\":157:238  function push(string memory _val) public {\r... */\n    tag_8:\n        /* \"todoList.sol\":209:213  list */\n      0x00\n        /* \"todoList.sol\":219:229  Task(_val) */\n      mload(0x40)\n      dup1\n      0x20\n      add\n      0x40\n      mstore\n      dup1\n        /* \"todoList.sol\":224:228  _val */\n      dup4\n        /* \"todoList.sol\":219:229  Task(_val) */\n      dup2\n      mstore\n      pop\n        /* \"todoList.sol\":209:230  list.push(Task(_val)) */\n      swap1\n      dup1\n      0x01\n      dup2\n      sload\n      add\n      dup1\n      dup3\n      sstore\n      dup1\n      swap2\n      pop\n      pop\n      0x01\n      swap1\n      sub\n      swap1\n      0x00\n      mstore\n      keccak256(0x00, 0x20)\n      add\n      0x00\n      swap1\n      swap2\n      swap1\n      swap2\n      swap1\n      swap2\n      pop\n      0x00\n      dup3\n      add\n      mload\n      dup2\n      0x00\n      add\n      swap1\n      dup1\n      mload\n      swap1\n      0x20\n      add\n      swap1\n      tag_15\n      swap3\n      swap2\n      swap1\n      tag_16\n      jump\t// in\n    tag_15:\n      pop\n      pop\n      pop\n        /* \"todoList.sol\":157:238  function push(string memory _val) public {\r... */\n      pop\n      jump\t// out\n        /* \"todoList.sol\":246:331  function getList () public view returns (Task[] memory){\r... */\n    tag_10:\n        /* \"todoList.sol\":287:300  Task[] memory */\n      0x60\n        /* \"todoList.sol\":319:323  list */\n      0x00\n        /* \"todoList.sol\":312:323  return list */\n      dup1\n      sload\n      dup1\n      0x20\n      mul\n      0x20\n      add\n      mload(0x40)\n      swap1\n      dup2\n      add\n      0x40\n      mstore\n      dup1\n      swap3\n      swap2\n      swap1\n      dup2\n      dup2\n      mstore\n      0x20\n      add\n      0x00\n      swap1\n    tag_18:\n      dup3\n      dup3\n      lt\n      iszero\n      tag_19\n      jumpi\n      dup4\n      dup3\n      swap1\n      0x00\n      mstore\n      keccak256(0x00, 0x20)\n      add\n      mload(0x40)\n      dup1\n      0x20\n      add\n      0x40\n      mstore\n      swap1\n      dup2\n      0x00\n      dup3\n      add\n      dup1\n      sload\n      tag_21\n      swap1\n      tag_22\n      jump\t// in\n    tag_21:\n      dup1\n      0x1f\n      add\n      0x20\n      dup1\n      swap2\n      div\n      mul\n      0x20\n      add\n      mload(0x40)\n      swap1\n      dup2\n      add\n      0x40\n      mstore\n      dup1\n      swap3\n      swap2\n      swap1\n      dup2\n      dup2\n      mstore\n      0x20\n      add\n      dup3\n      dup1\n      sload\n      tag_23\n      swap1\n      tag_22\n      jump\t// in\n    tag_23:\n      dup1\n      iszero\n      tag_24\n      jumpi\n      dup1\n      0x1f\n      lt\n      tag_25\n      jumpi\n      0x0100\n      dup1\n      dup4\n      sload\n      div\n      mul\n      dup4\n      mstore\n      swap2\n      0x20\n      add\n      swap2\n      jump(tag_24)\n    tag_25:\n      dup3\n      add\n      swap2\n      swap1\n      0x00\n      mstore\n      keccak256(0x00, 0x20)\n      swap1\n    tag_26:\n      dup2\n      sload\n      dup2\n      mstore\n      swap1\n      0x01\n      add\n      swap1\n      0x20\n      add\n      dup1\n      dup4\n      gt\n      tag_26\n      jumpi\n      dup3\n      swap1\n      sub\n      0x1f\n      and\n      dup3\n      add\n      swap2\n    tag_24:\n      pop\n      pop\n      pop\n      pop\n      pop\n      dup2\n      mstore\n      pop\n      pop\n      dup2\n      mstore\n      0x20\n      add\n      swap1\n      0x01\n      add\n      swap1\n      jump(tag_18)\n    tag_19:\n      pop\n      pop\n      pop\n      pop\n      swap1\n      pop\n        /* \"todoList.sol\":246:331  function getList () public view returns (Task[] memory){\r... */\n      swap1\n      jump\t// out\n    tag_16:\n      dup3\n      dup1\n      sload\n      tag_27\n      swap1\n      tag_22\n      jump\t// in\n    tag_27:\n      swap1\n      0x00\n      mstore\n      keccak256(0x00, 0x20)\n      swap1\n      0x1f\n      add\n      0x20\n      swap1\n      div\n      dup2\n      add\n      swap3\n      dup3\n      tag_29\n      jumpi\n      0x00\n      dup6\n      sstore\n      jump(tag_28)\n    tag_29:\n      dup3\n      0x1f\n      lt\n      tag_30\n      jumpi\n      dup1\n      mload\n      not(0xff)\n      and\n      dup4\n      dup1\n      add\n      or\n      dup6\n      sstore\n      jump(tag_28)\n    tag_30:\n      dup3\n      dup1\n      add\n      0x01\n      add\n      dup6\n      sstore\n      dup3\n      iszero\n      tag_28\n      jumpi\n      swap2\n      dup3\n      add\n    tag_31:\n      dup3\n      dup2\n      gt\n      iszero\n      tag_32\n      jumpi\n      dup3\n      mload\n      dup3\n      sstore\n      swap2\n      0x20\n      add\n      swap2\n      swap1\n      0x01\n      add\n      swap1\n      jump(tag_31)\n    tag_32:\n    tag_28:\n      pop\n      swap1\n      pop\n      tag_33\n      swap2\n      swap1\n      tag_34\n      jump\t// in\n    tag_33:\n      pop\n      swap1\n      jump\t// out\n    tag_34:\n    tag_35:\n      dup1\n      dup3\n      gt\n      iszero\n      tag_36\n      jumpi\n      0x00\n      dup2\n      0x00\n      swap1\n      sstore\n      pop\n      0x01\n      add\n      jump(tag_35)\n    tag_36:\n      pop\n      swap1\n      jump\t// out\n        /* \"#utility.yul\":7:419   */\n    tag_38:\n        /* \"#utility.yul\":85:90   */\n      0x00\n        /* \"#utility.yul\":110:176   */\n      tag_40\n        /* \"#utility.yul\":126:175   */\n      tag_41\n        /* \"#utility.yul\":168:174   */\n      dup5\n        /* \"#utility.yul\":126:175   */\n      tag_42\n      jump\t// in\n    tag_41:\n        /* \"#utility.yul\":110:176   */\n      tag_43\n      jump\t// in\n    tag_40:\n        /* \"#utility.yul\":101:176   */\n      swap1\n      pop\n        /* \"#utility.yul\":199:205   */\n      dup3\n        /* \"#utility.yul\":192:197   */\n      dup2\n        /* \"#utility.yul\":185:206   */\n      mstore\n        /* \"#utility.yul\":237:241   */\n      0x20\n        /* \"#utility.yul\":230:235   */\n      dup2\n        /* \"#utility.yul\":226:242   */\n      add\n        /* \"#utility.yul\":275:278   */\n      dup5\n        /* \"#utility.yul\":266:272   */\n      dup5\n        /* \"#utility.yul\":261:264   */\n      dup5\n        /* \"#utility.yul\":257:273   */\n      add\n        /* \"#utility.yul\":254:279   */\n      gt\n        /* \"#utility.yul\":251:363   */\n      iszero\n      tag_44\n      jumpi\n        /* \"#utility.yul\":282:361   */\n      tag_45\n      tag_46\n      jump\t// in\n    tag_45:\n        /* \"#utility.yul\":251:363   */\n    tag_44:\n        /* \"#utility.yul\":372:413   */\n      tag_47\n        /* \"#utility.yul\":406:412   */\n      dup5\n        /* \"#utility.yul\":401:404   */\n      dup3\n        /* \"#utility.yul\":396:399   */\n      dup6\n        /* \"#utility.yul\":372:413   */\n      tag_48\n      jump\t// in\n    tag_47:\n        /* \"#utility.yul\":91:419   */\n      pop\n        /* \"#utility.yul\":7:419   */\n      swap4\n      swap3\n      pop\n      pop\n      pop\n      jump\t// out\n        /* \"#utility.yul\":439:779   */\n    tag_49:\n        /* \"#utility.yul\":495:500   */\n      0x00\n        /* \"#utility.yul\":544:547   */\n      dup3\n        /* \"#utility.yul\":537:541   */\n      0x1f\n        /* \"#utility.yul\":529:535   */\n      dup4\n        /* \"#utility.yul\":525:542   */\n      add\n        /* \"#utility.yul\":521:548   */\n      slt\n        /* \"#utility.yul\":511:633   */\n      tag_51\n      jumpi\n        /* \"#utility.yul\":552:631   */\n      tag_52\n      tag_53\n      jump\t// in\n    tag_52:\n        /* \"#utility.yul\":511:633   */\n    tag_51:\n        /* \"#utility.yul\":669:675   */\n      dup2\n        /* \"#utility.yul\":656:676   */\n      calldataload\n        /* \"#utility.yul\":694:773   */\n      tag_54\n        /* \"#utility.yul\":769:772   */\n      dup5\n        /* \"#utility.yul\":761:767   */\n      dup3\n        /* \"#utility.yul\":754:758   */\n      0x20\n        /* \"#utility.yul\":746:752   */\n      dup7\n        /* \"#utility.yul\":742:759   */\n      add\n        /* \"#utility.yul\":694:773   */\n      tag_38\n      jump\t// in\n    tag_54:\n        /* \"#utility.yul\":685:773   */\n      swap2\n      pop\n        /* \"#utility.yul\":501:779   */\n      pop\n        /* \"#utility.yul\":439:779   */\n      swap3\n      swap2\n      pop\n      pop\n      jump\t// out\n        /* \"#utility.yul\":785:1294   */\n    tag_7:\n        /* \"#utility.yul\":854:860   */\n      0x00\n        /* \"#utility.yul\":903:905   */\n      0x20\n        /* \"#utility.yul\":891:900   */\n      dup3\n        /* \"#utility.yul\":882:889   */\n      dup5\n        /* \"#utility.yul\":878:901   */\n      sub\n        /* \"#utility.yul\":874:906   */\n      slt\n        /* \"#utility.yul\":871:990   */\n      iszero\n      tag_56\n      jumpi\n        /* \"#utility.yul\":909:988   */\n      tag_57\n      tag_58\n      jump\t// in\n    tag_57:\n        /* \"#utility.yul\":871:990   */\n    tag_56:\n        /* \"#utility.yul\":1057:1058   */\n      0x00\n        /* \"#utility.yul\":1046:1055   */\n      dup3\n        /* \"#utility.yul\":1042:1059   */\n      add\n        /* \"#utility.yul\":1029:1060   */\n      calldataload\n        /* \"#utility.yul\":1087:1105   */\n      0xffffffffffffffff\n        /* \"#utility.yul\":1079:1085   */\n      dup2\n        /* \"#utility.yul\":1076:1106   */\n      gt\n        /* \"#utility.yul\":1073:1190   */\n      iszero\n      tag_59\n      jumpi\n        /* \"#utility.yul\":1109:1188   */\n      tag_60\n      tag_61\n      jump\t// in\n    tag_60:\n        /* \"#utility.yul\":1073:1190   */\n    tag_59:\n        /* \"#utility.yul\":1214:1277   */\n      tag_62\n        /* \"#utility.yul\":1269:1276   */\n      dup5\n        /* \"#utility.yul\":1260:1266   */\n      dup3\n        /* \"#utility.yul\":1249:1258   */\n      dup6\n        /* \"#utility.yul\":1245:1267   */\n      add\n        /* \"#utility.yul\":1214:1277   */\n      tag_49\n      jump\t// in\n    tag_62:\n        /* \"#utility.yul\":1204:1277   */\n      swap2\n      pop\n        /* \"#utility.yul\":1000:1287   */\n      pop\n        /* \"#utility.yul\":785:1294   */\n      swap3\n      swap2\n      pop\n      pop\n      jump\t// out\n        /* \"#utility.yul\":1300:1532   */\n    tag_63:\n        /* \"#utility.yul\":1407:1417   */\n      0x00\n        /* \"#utility.yul\":1442:1526   */\n      tag_65\n        /* \"#utility.yul\":1522:1525   */\n      dup4\n        /* \"#utility.yul\":1514:1520   */\n      dup4\n        /* \"#utility.yul\":1442:1526   */\n      tag_66\n      jump\t// in\n    tag_65:\n        /* \"#utility.yul\":1428:1526   */\n      swap1\n      pop\n        /* \"#utility.yul\":1300:1532   */\n      swap3\n      swap2\n      pop\n      pop\n      jump\t// out\n        /* \"#utility.yul\":1594:2657   */\n    tag_67:\n        /* \"#utility.yul\":1751:1754   */\n      0x00\n        /* \"#utility.yul\":1780:1853   */\n      tag_69\n        /* \"#utility.yul\":1847:1852   */\n      dup3\n        /* \"#utility.yul\":1780:1853   */\n      tag_70\n      jump\t// in\n    tag_69:\n        /* \"#utility.yul\":1869:1974   */\n      tag_71\n        /* \"#utility.yul\":1967:1973   */\n      dup2\n        /* \"#utility.yul\":1962:1965   */\n      dup6\n        /* \"#utility.yul\":1869:1974   */\n      tag_72\n      jump\t// in\n    tag_71:\n        /* \"#utility.yul\":1862:1974   */\n      swap4\n      pop\n        /* \"#utility.yul\":2000:2003   */\n      dup4\n        /* \"#utility.yul\":2045:2049   */\n      0x20\n        /* \"#utility.yul\":2037:2043   */\n      dup3\n        /* \"#utility.yul\":2033:2050   */\n      mul\n        /* \"#utility.yul\":2028:2031   */\n      dup6\n        /* \"#utility.yul\":2024:2051   */\n      add\n        /* \"#utility.yul\":2075:2150   */\n      tag_73\n        /* \"#utility.yul\":2144:2149   */\n      dup6\n        /* \"#utility.yul\":2075:2150   */\n      tag_74\n      jump\t// in\n    tag_73:\n        /* \"#utility.yul\":2173:2180   */\n      dup1\n        /* \"#utility.yul\":2204:2205   */\n      0x00\n        /* \"#utility.yul\":2189:2612   */\n    tag_75:\n        /* \"#utility.yul\":2214:2220   */\n      dup6\n        /* \"#utility.yul\":2211:2212   */\n      dup2\n        /* \"#utility.yul\":2208:2221   */\n      lt\n        /* \"#utility.yul\":2189:2612   */\n      iszero\n      tag_77\n      jumpi\n        /* \"#utility.yul\":2285:2294   */\n      dup5\n        /* \"#utility.yul\":2279:2283   */\n      dup5\n        /* \"#utility.yul\":2275:2295   */\n      sub\n        /* \"#utility.yul\":2270:2273   */\n      dup10\n        /* \"#utility.yul\":2263:2296   */\n      mstore\n        /* \"#utility.yul\":2336:2342   */\n      dup2\n        /* \"#utility.yul\":2330:2343   */\n      mload\n        /* \"#utility.yul\":2364:2466   */\n      tag_78\n        /* \"#utility.yul\":2461:2465   */\n      dup6\n        /* \"#utility.yul\":2446:2459   */\n      dup3\n        /* \"#utility.yul\":2364:2466   */\n      tag_63\n      jump\t// in\n    tag_78:\n        /* \"#utility.yul\":2356:2466   */\n      swap5\n      pop\n        /* \"#utility.yul\":2489:2568   */\n      tag_79\n        /* \"#utility.yul\":2561:2567   */\n      dup4\n        /* \"#utility.yul\":2489:2568   */\n      tag_80\n      jump\t// in\n    tag_79:\n        /* \"#utility.yul\":2479:2568   */\n      swap3\n      pop\n        /* \"#utility.yul\":2597:2601   */\n      0x20\n        /* \"#utility.yul\":2592:2595   */\n      dup11\n        /* \"#utility.yul\":2588:2602   */\n      add\n        /* \"#utility.yul\":2581:2602   */\n      swap10\n      pop\n        /* \"#utility.yul\":2249:2612   */\n      pop\n        /* \"#utility.yul\":2236:2237   */\n      0x01\n        /* \"#utility.yul\":2233:2234   */\n      dup2\n        /* \"#utility.yul\":2229:2238   */\n      add\n        /* \"#utility.yul\":2224:2238   */\n      swap1\n      pop\n        /* \"#utility.yul\":2189:2612   */\n      jump(tag_75)\n    tag_77:\n        /* \"#utility.yul\":2193:2207   */\n      pop\n        /* \"#utility.yul\":2628:2632   */\n      dup3\n        /* \"#utility.yul\":2621:2632   */\n      swap8\n      pop\n        /* \"#utility.yul\":2648:2651   */\n      dup8\n        /* \"#utility.yul\":2641:2651   */\n      swap6\n      pop\n        /* \"#utility.yul\":1756:2657   */\n      pop\n      pop\n      pop\n      pop\n      pop\n        /* \"#utility.yul\":1594:2657   */\n      swap3\n      swap2\n      pop\n      pop\n      jump\t// out\n        /* \"#utility.yul\":2663:3007   */\n    tag_81:\n        /* \"#utility.yul\":2741:2744   */\n      0x00\n        /* \"#utility.yul\":2769:2808   */\n      tag_83\n        /* \"#utility.yul\":2802:2807   */\n      dup3\n        /* \"#utility.yul\":2769:2808   */\n      tag_84\n      jump\t// in\n    tag_83:\n        /* \"#utility.yul\":2824:2885   */\n      tag_85\n        /* \"#utility.yul\":2878:2884   */\n      dup2\n        /* \"#utility.yul\":2873:2876   */\n      dup6\n        /* \"#utility.yul\":2824:2885   */\n      tag_86\n      jump\t// in\n    tag_85:\n        /* \"#utility.yul\":2817:2885   */\n      swap4\n      pop\n        /* \"#utility.yul\":2894:2946   */\n      tag_87\n        /* \"#utility.yul\":2939:2945   */\n      dup2\n        /* \"#utility.yul\":2934:2937   */\n      dup6\n        /* \"#utility.yul\":2927:2931   */\n      0x20\n        /* \"#utility.yul\":2920:2925   */\n      dup7\n        /* \"#utility.yul\":2916:2932   */\n      add\n        /* \"#utility.yul\":2894:2946   */\n      tag_88\n      jump\t// in\n    tag_87:\n        /* \"#utility.yul\":2971:3000   */\n      tag_89\n        /* \"#utility.yul\":2993:2999   */\n      dup2\n        /* \"#utility.yul\":2971:3000   */\n      tag_90\n      jump\t// in\n    tag_89:\n        /* \"#utility.yul\":2966:2969   */\n      dup5\n        /* \"#utility.yul\":2962:3001   */\n      add\n        /* \"#utility.yul\":2955:3001   */\n      swap2\n      pop\n        /* \"#utility.yul\":2745:3007   */\n      pop\n        /* \"#utility.yul\":2663:3007   */\n      swap3\n      swap2\n      pop\n      pop\n      jump\t// out\n        /* \"#utility.yul\":3065:3476   */\n    tag_66:\n        /* \"#utility.yul\":3162:3165   */\n      0x00\n        /* \"#utility.yul\":3198:3202   */\n      0x20\n        /* \"#utility.yul\":3193:3196   */\n      dup4\n        /* \"#utility.yul\":3189:3203   */\n      add\n        /* \"#utility.yul\":3286:3290   */\n      0x00\n        /* \"#utility.yul\":3279:3284   */\n      dup4\n        /* \"#utility.yul\":3275:3291   */\n      add\n        /* \"#utility.yul\":3269:3292   */\n      mload\n        /* \"#utility.yul\":3339:3342   */\n      dup5\n        /* \"#utility.yul\":3333:3337   */\n      dup3\n        /* \"#utility.yul\":3329:3343   */\n      sub\n        /* \"#utility.yul\":3322:3326   */\n      0x00\n        /* \"#utility.yul\":3317:3320   */\n      dup7\n        /* \"#utility.yul\":3313:3327   */\n      add\n        /* \"#utility.yul\":3306:3344   */\n      mstore\n        /* \"#utility.yul\":3365:3438   */\n      tag_92\n        /* \"#utility.yul\":3433:3437   */\n      dup3\n        /* \"#utility.yul\":3419:3431   */\n      dup3\n        /* \"#utility.yul\":3365:3438   */\n      tag_81\n      jump\t// in\n    tag_92:\n        /* \"#utility.yul\":3357:3438   */\n      swap2\n      pop\n        /* \"#utility.yul\":3213:3449   */\n      pop\n        /* \"#utility.yul\":3466:3470   */\n      dup1\n        /* \"#utility.yul\":3459:3470   */\n      swap2\n      pop\n        /* \"#utility.yul\":3167:3476   */\n      pop\n        /* \"#utility.yul\":3065:3476   */\n      swap3\n      swap2\n      pop\n      pop\n      jump\t// out\n        /* \"#utility.yul\":3482:3931   */\n    tag_12:\n        /* \"#utility.yul\":3663:3667   */\n      0x00\n        /* \"#utility.yul\":3701:3703   */\n      0x20\n        /* \"#utility.yul\":3690:3699   */\n      dup3\n        /* \"#utility.yul\":3686:3704   */\n      add\n        /* \"#utility.yul\":3678:3704   */\n      swap1\n      pop\n        /* \"#utility.yul\":3750:3759   */\n      dup2\n        /* \"#utility.yul\":3744:3748   */\n      dup2\n        /* \"#utility.yul\":3740:3760   */\n      sub\n        /* \"#utility.yul\":3736:3737   */\n      0x00\n        /* \"#utility.yul\":3725:3734   */\n      dup4\n        /* \"#utility.yul\":3721:3738   */\n      add\n        /* \"#utility.yul\":3714:3761   */\n      mstore\n        /* \"#utility.yul\":3778:3924   */\n      tag_94\n        /* \"#utility.yul\":3919:3923   */\n      dup2\n        /* \"#utility.yul\":3910:3916   */\n      dup5\n        /* \"#utility.yul\":3778:3924   */\n      tag_67\n      jump\t// in\n    tag_94:\n        /* \"#utility.yul\":3770:3924   */\n      swap1\n      pop\n        /* \"#utility.yul\":3482:3931   */\n      swap3\n      swap2\n      pop\n      pop\n      jump\t// out\n        /* \"#utility.yul\":3937:4066   */\n    tag_43:\n        /* \"#utility.yul\":3971:3977   */\n      0x00\n        /* \"#utility.yul\":3998:4018   */\n      tag_96\n      tag_97\n      jump\t// in\n    tag_96:\n        /* \"#utility.yul\":3988:4018   */\n      swap1\n      pop\n        /* \"#utility.yul\":4027:4060   */\n      tag_98\n        /* \"#utility.yul\":4055:4059   */\n      dup3\n        /* \"#utility.yul\":4047:4053   */\n      dup3\n        /* \"#utility.yul\":4027:4060   */\n      tag_99\n      jump\t// in\n    tag_98:\n        /* \"#utility.yul\":3937:4066   */\n      swap2\n      swap1\n      pop\n      jump\t// out\n        /* \"#utility.yul\":4072:4147   */\n    tag_97:\n        /* \"#utility.yul\":4105:4111   */\n      0x00\n        /* \"#utility.yul\":4138:4140   */\n      0x40\n        /* \"#utility.yul\":4132:4141   */\n      mload\n        /* \"#utility.yul\":4122:4141   */\n      swap1\n      pop\n        /* \"#utility.yul\":4072:4147   */\n      swap1\n      jump\t// out\n        /* \"#utility.yul\":4153:4461   */\n    tag_42:\n        /* \"#utility.yul\":4215:4219   */\n      0x00\n        /* \"#utility.yul\":4305:4323   */\n      0xffffffffffffffff\n        /* \"#utility.yul\":4297:4303   */\n      dup3\n        /* \"#utility.yul\":4294:4324   */\n      gt\n        /* \"#utility.yul\":4291:4347   */\n      iszero\n      tag_102\n      jumpi\n        /* \"#utility.yul\":4327:4345   */\n      tag_103\n      tag_104\n      jump\t// in\n    tag_103:\n        /* \"#utility.yul\":4291:4347   */\n    tag_102:\n        /* \"#utility.yul\":4365:4394   */\n      tag_105\n        /* \"#utility.yul\":4387:4393   */\n      dup3\n        /* \"#utility.yul\":4365:4394   */\n      tag_90\n      jump\t// in\n    tag_105:\n        /* \"#utility.yul\":4357:4394   */\n      swap1\n      pop\n        /* \"#utility.yul\":4449:4453   */\n      0x20\n        /* \"#utility.yul\":4443:4447   */\n      dup2\n        /* \"#utility.yul\":4439:4454   */\n      add\n        /* \"#utility.yul\":4431:4454   */\n      swap1\n      pop\n        /* \"#utility.yul\":4153:4461   */\n      swap2\n      swap1\n      pop\n      jump\t// out\n        /* \"#utility.yul\":4467:4618   */\n    tag_74:\n        /* \"#utility.yul\":4553:4557   */\n      0x00\n        /* \"#utility.yul\":4576:4579   */\n      dup2\n        /* \"#utility.yul\":4568:4579   */\n      swap1\n      pop\n        /* \"#utility.yul\":4606:4610   */\n      0x20\n        /* \"#utility.yul\":4601:4604   */\n      dup3\n        /* \"#utility.yul\":4597:4611   */\n      add\n        /* \"#utility.yul\":4589:4611   */\n      swap1\n      pop\n        /* \"#utility.yul\":4467:4618   */\n      swap2\n      swap1\n      pop\n      jump\t// out\n        /* \"#utility.yul\":4624:4757   */\n    tag_70:\n        /* \"#utility.yul\":4710:4716   */\n      0x00\n        /* \"#utility.yul\":4744:4749   */\n      dup2\n        /* \"#utility.yul\":4738:4750   */\n      mload\n        /* \"#utility.yul\":4728:4750   */\n      swap1\n      pop\n        /* \"#utility.yul\":4624:4757   */\n      swap2\n      swap1\n      pop\n      jump\t// out\n        /* \"#utility.yul\":4763:4862   */\n    tag_84:\n        /* \"#utility.yul\":4815:4821   */\n      0x00\n        /* \"#utility.yul\":4849:4854   */\n      dup2\n        /* \"#utility.yul\":4843:4855   */\n      mload\n        /* \"#utility.yul\":4833:4855   */\n      swap1\n      pop\n        /* \"#utility.yul\":4763:4862   */\n      swap2\n      swap1\n      pop\n      jump\t// out\n        /* \"#utility.yul\":4868:5000   */\n    tag_80:\n        /* \"#utility.yul\":4957:4961   */\n      0x00\n        /* \"#utility.yul\":4989:4993   */\n      0x20\n        /* \"#utility.yul\":4984:4987   */\n      dup3\n        /* \"#utility.yul\":4980:4994   */\n      add\n        /* \"#utility.yul\":4972:4994   */\n      swap1\n      pop\n        /* \"#utility.yul\":4868:5000   */\n      swap2\n      swap1\n      pop\n      jump\t// out\n        /* \"#utility.yul\":5006:5209   */\n    tag_72:\n        /* \"#utility.yul\":5124:5135   */\n      0x00\n        /* \"#utility.yul\":5158:5164   */\n      dup3\n        /* \"#utility.yul\":5153:5156   */\n      dup3\n        /* \"#utility.yul\":5146:5165   */\n      mstore\n        /* \"#utility.yul\":5198:5202   */\n      0x20\n        /* \"#utility.yul\":5193:5196   */\n      dup3\n        /* \"#utility.yul\":5189:5203   */\n      add\n        /* \"#utility.yul\":5174:5203   */\n      swap1\n      pop\n        /* \"#utility.yul\":5006:5209   */\n      swap3\n      swap2\n      pop\n      pop\n      jump\t// out\n        /* \"#utility.yul\":5215:5374   */\n    tag_86:\n        /* \"#utility.yul\":5289:5300   */\n      0x00\n        /* \"#utility.yul\":5323:5329   */\n      dup3\n        /* \"#utility.yul\":5318:5321   */\n      dup3\n        /* \"#utility.yul\":5311:5330   */\n      mstore\n        /* \"#utility.yul\":5363:5367   */\n      0x20\n        /* \"#utility.yul\":5358:5361   */\n      dup3\n        /* \"#utility.yul\":5354:5368   */\n      add\n        /* \"#utility.yul\":5339:5368   */\n      swap1\n      pop\n        /* \"#utility.yul\":5215:5374   */\n      swap3\n      swap2\n      pop\n      pop\n      jump\t// out\n        /* \"#utility.yul\":5380:5534   */\n    tag_48:\n        /* \"#utility.yul\":5464:5470   */\n      dup3\n        /* \"#utility.yul\":5459:5462   */\n      dup2\n        /* \"#utility.yul\":5454:5457   */\n      dup4\n        /* \"#utility.yul\":5441:5471   */\n      calldatacopy\n        /* \"#utility.yul\":5526:5527   */\n      0x00\n        /* \"#utility.yul\":5517:5523   */\n      dup4\n        /* \"#utility.yul\":5512:5515   */\n      dup4\n        /* \"#utility.yul\":5508:5524   */\n      add\n        /* \"#utility.yul\":5501:5528   */\n      mstore\n        /* \"#utility.yul\":5380:5534   */\n      pop\n      pop\n      pop\n      jump\t// out\n        /* \"#utility.yul\":5540:5847   */\n    tag_88:\n        /* \"#utility.yul\":5608:5609   */\n      0x00\n        /* \"#utility.yul\":5618:5731   */\n    tag_114:\n        /* \"#utility.yul\":5632:5638   */\n      dup4\n        /* \"#utility.yul\":5629:5630   */\n      dup2\n        /* \"#utility.yul\":5626:5639   */\n      lt\n        /* \"#utility.yul\":5618:5731   */\n      iszero\n      tag_116\n      jumpi\n        /* \"#utility.yul\":5717:5718   */\n      dup1\n        /* \"#utility.yul\":5712:5715   */\n      dup3\n        /* \"#utility.yul\":5708:5719   */\n      add\n        /* \"#utility.yul\":5702:5720   */\n      mload\n        /* \"#utility.yul\":5698:5699   */\n      dup2\n        /* \"#utility.yul\":5693:5696   */\n      dup5\n        /* \"#utility.yul\":5689:5700   */\n      add\n        /* \"#utility.yul\":5682:5721   */\n      mstore\n        /* \"#utility.yul\":5654:5656   */\n      0x20\n        /* \"#utility.yul\":5651:5652   */\n      dup2\n        /* \"#utility.yul\":5647:5657   */\n      add\n        /* \"#utility.yul\":5642:5657   */\n      swap1\n      pop\n        /* \"#utility.yul\":5618:5731   */\n      jump(tag_114)\n    tag_116:\n        /* \"#utility.yul\":5749:5755   */\n      dup4\n        /* \"#utility.yul\":5746:5747   */\n      dup2\n        /* \"#utility.yul\":5743:5756   */\n      gt\n        /* \"#utility.yul\":5740:5841   */\n      iszero\n      tag_117\n      jumpi\n        /* \"#utility.yul\":5829:5830   */\n      0x00\n        /* \"#utility.yul\":5820:5826   */\n      dup5\n        /* \"#utility.yul\":5815:5818   */\n      dup5\n        /* \"#utility.yul\":5811:5827   */\n      add\n        /* \"#utility.yul\":5804:5831   */\n      mstore\n        /* \"#utility.yul\":5740:5841   */\n    tag_117:\n        /* \"#utility.yul\":5589:5847   */\n      pop\n        /* \"#utility.yul\":5540:5847   */\n      pop\n      pop\n      pop\n      jump\t// out\n        /* \"#utility.yul\":5853:6173   */\n    tag_22:\n        /* \"#utility.yul\":5897:5903   */\n      0x00\n        /* \"#utility.yul\":5934:5935   */\n      0x02\n        /* \"#utility.yul\":5928:5932   */\n      dup3\n        /* \"#utility.yul\":5924:5936   */\n      div\n        /* \"#utility.yul\":5914:5936   */\n      swap1\n      pop\n        /* \"#utility.yul\":5981:5982   */\n      0x01\n        /* \"#utility.yul\":5975:5979   */\n      dup3\n        /* \"#utility.yul\":5971:5983   */\n      and\n        /* \"#utility.yul\":6002:6020   */\n      dup1\n        /* \"#utility.yul\":5992:6073   */\n      tag_119\n      jumpi\n        /* \"#utility.yul\":6058:6062   */\n      0x7f\n        /* \"#utility.yul\":6050:6056   */\n      dup3\n        /* \"#utility.yul\":6046:6063   */\n      and\n        /* \"#utility.yul\":6036:6063   */\n      swap2\n      pop\n        /* \"#utility.yul\":5992:6073   */\n    tag_119:\n        /* \"#utility.yul\":6120:6122   */\n      0x20\n        /* \"#utility.yul\":6112:6118   */\n      dup3\n        /* \"#utility.yul\":6109:6123   */\n      lt\n        /* \"#utility.yul\":6089:6107   */\n      dup2\n        /* \"#utility.yul\":6086:6124   */\n      eq\n        /* \"#utility.yul\":6083:6167   */\n      iszero\n      tag_120\n      jumpi\n        /* \"#utility.yul\":6139:6157   */\n      tag_121\n      tag_122\n      jump\t// in\n    tag_121:\n        /* \"#utility.yul\":6083:6167   */\n    tag_120:\n        /* \"#utility.yul\":5904:6173   */\n      pop\n        /* \"#utility.yul\":5853:6173   */\n      swap2\n      swap1\n      pop\n      jump\t// out\n        /* \"#utility.yul\":6179:6460   */\n    tag_99:\n        /* \"#utility.yul\":6262:6289   */\n      tag_124\n        /* \"#utility.yul\":6284:6288   */\n      dup3\n        /* \"#utility.yul\":6262:6289   */\n      tag_90\n      jump\t// in\n    tag_124:\n        /* \"#utility.yul\":6254:6260   */\n      dup2\n        /* \"#utility.yul\":6250:6290   */\n      add\n        /* \"#utility.yul\":6392:6398   */\n      dup2\n        /* \"#utility.yul\":6380:6390   */\n      dup2\n        /* \"#utility.yul\":6377:6399   */\n      lt\n        /* \"#utility.yul\":6356:6374   */\n      0xffffffffffffffff\n        /* \"#utility.yul\":6344:6354   */\n      dup3\n        /* \"#utility.yul\":6341:6375   */\n      gt\n        /* \"#utility.yul\":6338:6400   */\n      or\n        /* \"#utility.yul\":6335:6423   */\n      iszero\n      tag_125\n      jumpi\n        /* \"#utility.yul\":6403:6421   */\n      tag_126\n      tag_104\n      jump\t// in\n    tag_126:\n        /* \"#utility.yul\":6335:6423   */\n    tag_125:\n        /* \"#utility.yul\":6443:6453   */\n      dup1\n        /* \"#utility.yul\":6439:6441   */\n      0x40\n        /* \"#utility.yul\":6432:6454   */\n      mstore\n        /* \"#utility.yul\":6222:6460   */\n      pop\n        /* \"#utility.yul\":6179:6460   */\n      pop\n      pop\n      jump\t// out\n        /* \"#utility.yul\":6466:6646   */\n    tag_122:\n        /* \"#utility.yul\":6514:6591   */\n      0x4e487b7100000000000000000000000000000000000000000000000000000000\n        /* \"#utility.yul\":6511:6512   */\n      0x00\n        /* \"#utility.yul\":6504:6592   */\n      mstore\n        /* \"#utility.yul\":6611:6615   */\n      0x22\n        /* \"#utility.yul\":6608:6609   */\n      0x04\n        /* \"#utility.yul\":6601:6616   */\n      mstore\n        /* \"#utility.yul\":6635:6639   */\n      0x24\n        /* \"#utility.yul\":6632:6633   */\n      0x00\n        /* \"#utility.yul\":6625:6640   */\n      revert\n        /* \"#utility.yul\":6652:6832   */\n    tag_104:\n        /* \"#utility.yul\":6700:6777   */\n      0x4e487b7100000000000000000000000000000000000000000000000000000000\n        /* \"#utility.yul\":6697:6698   */\n      0x00\n        /* \"#utility.yul\":6690:6778   */\n      mstore\n        /* \"#utility.yul\":6797:6801   */\n      0x41\n        /* \"#utility.yul\":6794:6795   */\n      0x04\n        /* \"#utility.yul\":6787:6802   */\n      mstore\n        /* \"#utility.yul\":6821:6825   */\n      0x24\n        /* \"#utility.yul\":6818:6819   */\n      0x00\n        /* \"#utility.yul\":6811:6826   */\n      revert\n        /* \"#utility.yul\":6838:6955   */\n    tag_53:\n        /* \"#utility.yul\":6947:6948   */\n      0x00\n        /* \"#utility.yul\":6944:6945   */\n      dup1\n        /* \"#utility.yul\":6937:6949   */\n      revert\n        /* \"#utility.yul\":6961:7078   */\n    tag_46:\n        /* \"#utility.yul\":7070:7071   */\n      0x00\n        /* \"#utility.yul\":7067:7068   */\n      dup1\n        /* \"#utility.yul\":7060:7072   */\n      revert\n        /* \"#utility.yul\":7084:7201   */\n    tag_61:\n        /* \"#utility.yul\":7193:7194   */\n      0x00\n        /* \"#utility.yul\":7190:7191   */\n      dup1\n        /* \"#utility.yul\":7183:7195   */\n      revert\n        /* \"#utility.yul\":7207:7324   */\n    tag_58:\n        /* \"#utility.yul\":7316:7317   */\n      0x00\n        /* \"#utility.yul\":7313:7314   */\n      dup1\n        /* \"#utility.yul\":7306:7318   */\n      revert\n        /* \"#utility.yul\":7330:7432   */\n    tag_90:\n        /* \"#utility.yul\":7371:7377   */\n      0x00\n        /* \"#utility.yul\":7422:7424   */\n      0x1f\n        /* \"#utility.yul\":7418:7425   */\n      not\n        /* \"#utility.yul\":7413:7415   */\n      0x1f\n        /* \"#utility.yul\":7406:7411   */\n      dup4\n        /* \"#utility.yul\":7402:7416   */\n      add\n        /* \"#utility.yul\":7398:7426   */\n      and\n        /* \"#utility.yul\":7388:7426   */\n      swap1\n      pop\n        /* \"#utility.yul\":7330:7432   */\n      swap2\n      swap1\n      pop\n      jump\t// out\n\n    auxdata: 0xa26469706673582212202bf5792281ed74bacd3f4b5766dbf2464dd6865a4030d671501bda3777e4f68f64736f6c63430008070033\n}\n",
				"bytecode": {
					"linkReferences": {},
					"object": "608060405234801561001057600080fd5b5061062d806100206000396000f3fe608060405234801561001057600080fd5b50600436106100365760003560e01c80634f3d057a1461003b578063942b765a14610057575b600080fd5b610055600480360381019061005091906102cd565b610075565b005b61005f6100cd565b60405161006c9190610402565b60405180910390f35b60006040518060200160405280838152509080600181540180825580915050600190039060005260206000200160009091909190915060008201518160000190805190602001906100c79291906101ba565b50505050565b60606000805480602002602001604051908101604052809291908181526020016000905b828210156101b15783829060005260206000200160405180602001604052908160008201805461012090610511565b80601f016020809104026020016040519081016040528092919081815260200182805461014c90610511565b80156101995780601f1061016e57610100808354040283529160200191610199565b820191906000526020600020905b81548152906001019060200180831161017c57829003601f168201915b505050505081525050815260200190600101906100f1565b50505050905090565b8280546101c690610511565b90600052602060002090601f0160209004810192826101e8576000855561022f565b82601f1061020157805160ff191683800117855561022f565b8280016001018555821561022f579182015b8281111561022e578251825591602001919060010190610213565b5b50905061023c9190610240565b5090565b5b80821115610259576000816000905550600101610241565b5090565b600061027061026b84610449565b610424565b90508281526020810184848401111561028c5761028b6105d7565b5b6102978482856104cf565b509392505050565b600082601f8301126102b4576102b36105d2565b5b81356102c484826020860161025d565b91505092915050565b6000602082840312156102e3576102e26105e1565b5b600082013567ffffffffffffffff811115610301576103006105dc565b5b61030d8482850161029f565b91505092915050565b600061032283836103d8565b905092915050565b60006103358261048a565b61033f81856104ad565b9350836020820285016103518561047a565b8060005b8581101561038d578484038952815161036e8582610316565b9450610379836104a0565b925060208a01995050600181019050610355565b50829750879550505050505092915050565b60006103aa82610495565b6103b481856104be565b93506103c48185602086016104de565b6103cd816105e6565b840191505092915050565b600060208301600083015184820360008601526103f5828261039f565b9150508091505092915050565b6000602082019050818103600083015261041c818461032a565b905092915050565b600061042e61043f565b905061043a8282610543565b919050565b6000604051905090565b600067ffffffffffffffff821115610464576104636105a3565b5b61046d826105e6565b9050602081019050919050565b6000819050602082019050919050565b600081519050919050565b600081519050919050565b6000602082019050919050565b600082825260208201905092915050565b600082825260208201905092915050565b82818337600083830152505050565b60005b838110156104fc5780820151818401526020810190506104e1565b8381111561050b576000848401525b50505050565b6000600282049050600182168061052957607f821691505b6020821081141561053d5761053c610574565b5b50919050565b61054c826105e6565b810181811067ffffffffffffffff8211171561056b5761056a6105a3565b5b80604052505050565b7f4e487b7100000000000000000000000000000000000000000000000000000000600052602260045260246000fd5b7f4e487b7100000000000000000000000000000000000000000000000000000000600052604160045260246000fd5b600080fd5b600080fd5b600080fd5b600080fd5b6000601f19601f830116905091905056fea26469706673582212202bf5792281ed74bacd3f4b5766dbf2464dd6865a4030d671501bda3777e4f68f64736f6c63430008070033",
					"opcodes": "PUSH1 0x80 PUSH1 0x40 MSTORE CALLVALUE DUP1 ISZERO PUSH2 0x10 JUMPI PUSH1 0x0 DUP1 REVERT JUMPDEST POP PUSH2 0x62D DUP1 PUSH2 0x20 PUSH1 0x0 CODECOPY PUSH1 0x0 RETURN INVALID PUSH1 0x80 PUSH1 0x40 MSTORE CALLVALUE DUP1 ISZERO PUSH2 0x10 JUMPI PUSH1 0x0 DUP1 REVERT JUMPDEST POP PUSH1 0x4 CALLDATASIZE LT PUSH2 0x36 JUMPI PUSH1 0x0 CALLDATALOAD PUSH1 0xE0 SHR DUP1 PUSH4 0x4F3D057A EQ PUSH2 0x3B JUMPI DUP1 PUSH4 0x942B765A EQ PUSH2 0x57 JUMPI JUMPDEST PUSH1 0x0 DUP1 REVERT JUMPDEST PUSH2 0x55 PUSH1 0x4 DUP1 CALLDATASIZE SUB DUP2 ADD SWAP1 PUSH2 0x50 SWAP2 SWAP1 PUSH2 0x2CD JUMP JUMPDEST PUSH2 0x75 JUMP JUMPDEST STOP JUMPDEST PUSH2 0x5F PUSH2 0xCD JUMP JUMPDEST PUSH1 0x40 MLOAD PUSH2 0x6C SWAP2 SWAP1 PUSH2 0x402 JUMP JUMPDEST PUSH1 0x40 MLOAD DUP1 SWAP2 SUB SWAP1 RETURN JUMPDEST PUSH1 0x0 PUSH1 0x40 MLOAD DUP1 PUSH1 0x20 ADD PUSH1 0x40 MSTORE DUP1 DUP4 DUP2 MSTORE POP SWAP1 DUP1 PUSH1 0x1 DUP2 SLOAD ADD DUP1 DUP3 SSTORE DUP1 SWAP2 POP POP PUSH1 0x1 SWAP1 SUB SWAP1 PUSH1 0x0 MSTORE PUSH1 0x20 PUSH1 0x0 KECCAK256 ADD PUSH1 0x0 SWAP1 SWAP2 SWAP1 SWAP2 SWAP1 SWAP2 POP PUSH1 0x0 DUP3 ADD MLOAD DUP2 PUSH1 0x0 ADD SWAP1 DUP1 MLOAD SWAP1 PUSH1 0x20 ADD SWAP1 PUSH2 0xC7 SWAP3 SWAP2 SWAP1 PUSH2 0x1BA JUMP JUMPDEST POP POP POP POP JUMP JUMPDEST PUSH1 0x60 PUSH1 0x0 DUP1 SLOAD DUP1 PUSH1 0x20 MUL PUSH1 0x20 ADD PUSH1 0x40 MLOAD SWAP1 DUP2 ADD PUSH1 0x40 MSTORE DUP1 SWAP3 SWAP2 SWAP1 DUP2 DUP2 MSTORE PUSH1 0x20 ADD PUSH1 0x0 SWAP1 JUMPDEST DUP3 DUP3 LT ISZERO PUSH2 0x1B1 JUMPI DUP4 DUP3 SWAP1 PUSH1 0x0 MSTORE PUSH1 0x20 PUSH1 0x0 KECCAK256 ADD PUSH1 0x40 MLOAD DUP1 PUSH1 0x20 ADD PUSH1 0x40 MSTORE SWAP1 DUP2 PUSH1 0x0 DUP3 ADD DUP1 SLOAD PUSH2 0x120 SWAP1 PUSH2 0x511 JUMP JUMPDEST DUP1 PUSH1 0x1F ADD PUSH1 0x20 DUP1 SWAP2 DIV MUL PUSH1 0x20 ADD PUSH1 0x40 MLOAD SWAP1 DUP2 ADD PUSH1 0x40 MSTORE DUP1 SWAP3 SWAP2 SWAP1 DUP2 DUP2 MSTORE PUSH1 0x20 ADD DUP3 DUP1 SLOAD PUSH2 0x14C SWAP1 PUSH2 0x511 JUMP JUMPDEST DUP1 ISZERO PUSH2 0x199 JUMPI DUP1 PUSH1 0x1F LT PUSH2 0x16E JUMPI PUSH2 0x100 DUP1 DUP4 SLOAD DIV MUL DUP4 MSTORE SWAP2 PUSH1 0x20 ADD SWAP2 PUSH2 0x199 JUMP JUMPDEST DUP3 ADD SWAP2 SWAP1 PUSH1 0x0 MSTORE PUSH1 0x20 PUSH1 0x0 KECCAK256 SWAP1 JUMPDEST DUP2 SLOAD DUP2 MSTORE SWAP1 PUSH1 0x1 ADD SWAP1 PUSH1 0x20 ADD DUP1 DUP4 GT PUSH2 0x17C JUMPI DUP3 SWAP1 SUB PUSH1 0x1F AND DUP3 ADD SWAP2 JUMPDEST POP POP POP POP POP DUP2 MSTORE POP POP DUP2 MSTORE PUSH1 0x20 ADD SWAP1 PUSH1 0x1 ADD SWAP1 PUSH2 0xF1 JUMP JUMPDEST POP POP POP POP SWAP1 POP SWAP1 JUMP JUMPDEST DUP3 DUP1 SLOAD PUSH2 0x1C6 SWAP1 PUSH2 0x511 JUMP JUMPDEST SWAP1 PUSH1 0x0 MSTORE PUSH1 0x20 PUSH1 0x0 KECCAK256 SWAP1 PUSH1 0x1F ADD PUSH1 0x20 SWAP1 DIV DUP2 ADD SWAP3 DUP3 PUSH2 0x1E8 JUMPI PUSH1 0x0 DUP6 SSTORE PUSH2 0x22F JUMP JUMPDEST DUP3 PUSH1 0x1F LT PUSH2 0x201 JUMPI DUP1 MLOAD PUSH1 0xFF NOT AND DUP4 DUP1 ADD OR DUP6 SSTORE PUSH2 0x22F JUMP JUMPDEST DUP3 DUP1 ADD PUSH1 0x1 ADD DUP6 SSTORE DUP3 ISZERO PUSH2 0x22F JUMPI SWAP2 DUP3 ADD JUMPDEST DUP3 DUP2 GT ISZERO PUSH2 0x22E JUMPI DUP3 MLOAD DUP3 SSTORE SWAP2 PUSH1 0x20 ADD SWAP2 SWAP1 PUSH1 0x1 ADD SWAP1 PUSH2 0x213 JUMP JUMPDEST JUMPDEST POP SWAP1 POP PUSH2 0x23C SWAP2 SWAP1 PUSH2 0x240 JUMP JUMPDEST POP SWAP1 JUMP JUMPDEST JUMPDEST DUP1 DUP3 GT ISZERO PUSH2 0x259 JUMPI PUSH1 0x0 DUP2 PUSH1 0x0 SWAP1 SSTORE POP PUSH1 0x1 ADD PUSH2 0x241 JUMP JUMPDEST POP SWAP1 JUMP JUMPDEST PUSH1 0x0 PUSH2 0x270 PUSH2 0x26B DUP5 PUSH2 0x449 JUMP JUMPDEST PUSH2 0x424 JUMP JUMPDEST SWAP1 POP DUP3 DUP2 MSTORE PUSH1 0x20 DUP2 ADD DUP5 DUP5 DUP5 ADD GT ISZERO PUSH2 0x28C JUMPI PUSH2 0x28B PUSH2 0x5D7 JUMP JUMPDEST JUMPDEST PUSH2 0x297 DUP5 DUP3 DUP6 PUSH2 0x4CF JUMP JUMPDEST POP SWAP4 SWAP3 POP POP POP JUMP JUMPDEST PUSH1 0x0 DUP3 PUSH1 0x1F DUP4 ADD SLT PUSH2 0x2B4 JUMPI PUSH2 0x2B3 PUSH2 0x5D2 JUMP JUMPDEST JUMPDEST DUP2 CALLDATALOAD PUSH2 0x2C4 DUP5 DUP3 PUSH1 0x20 DUP7 ADD PUSH2 0x25D JUMP JUMPDEST SWAP2 POP POP SWAP3 SWAP2 POP POP JUMP JUMPDEST PUSH1 0x0 PUSH1 0x20 DUP3 DUP5 SUB SLT ISZERO PUSH2 0x2E3 JUMPI PUSH2 0x2E2 PUSH2 0x5E1 JUMP JUMPDEST JUMPDEST PUSH1 0x0 DUP3 ADD CALLDATALOAD PUSH8 0xFFFFFFFFFFFFFFFF DUP2 GT ISZERO PUSH2 0x301 JUMPI PUSH2 0x300 PUSH2 0x5DC JUMP JUMPDEST JUMPDEST PUSH2 0x30D DUP5 DUP3 DUP6 ADD PUSH2 0x29F JUMP JUMPDEST SWAP2 POP POP SWAP3 SWAP2 POP POP JUMP JUMPDEST PUSH1 0x0 PUSH2 0x322 DUP4 DUP4 PUSH2 0x3D8 JUMP JUMPDEST SWAP1 POP SWAP3 SWAP2 POP POP JUMP JUMPDEST PUSH1 0x0 PUSH2 0x335 DUP3 PUSH2 0x48A JUMP JUMPDEST PUSH2 0x33F DUP2 DUP6 PUSH2 0x4AD JUMP JUMPDEST SWAP4 POP DUP4 PUSH1 0x20 DUP3 MUL DUP6 ADD PUSH2 0x351 DUP6 PUSH2 0x47A JUMP JUMPDEST DUP1 PUSH1 0x0 JUMPDEST DUP6 DUP2 LT ISZERO PUSH2 0x38D JUMPI DUP5 DUP5 SUB DUP10 MSTORE DUP2 MLOAD PUSH2 0x36E DUP6 DUP3 PUSH2 0x316 JUMP JUMPDEST SWAP5 POP PUSH2 0x379 DUP4 PUSH2 0x4A0 JUMP JUMPDEST SWAP3 POP PUSH1 0x20 DUP11 ADD SWAP10 POP POP PUSH1 0x1 DUP2 ADD SWAP1 POP PUSH2 0x355 JUMP JUMPDEST POP DUP3 SWAP8 POP DUP8 SWAP6 POP POP POP POP POP POP SWAP3 SWAP2 POP POP JUMP JUMPDEST PUSH1 0x0 PUSH2 0x3AA DUP3 PUSH2 0x495 JUMP JUMPDEST PUSH2 0x3B4 DUP2 DUP6 PUSH2 0x4BE JUMP JUMPDEST SWAP4 POP PUSH2 0x3C4 DUP2 DUP6 PUSH1 0x20 DUP7 ADD PUSH2 0x4DE JUMP JUMPDEST PUSH2 0x3CD DUP2 PUSH2 0x5E6 JUMP JUMPDEST DUP5 ADD SWAP2 POP POP SWAP3 SWAP2 POP POP JUMP JUMPDEST PUSH1 0x0 PUSH1 0x20 DUP4 ADD PUSH1 0x0 DUP4 ADD MLOAD DUP5 DUP3 SUB PUSH1 0x0 DUP7 ADD MSTORE PUSH2 0x3F5 DUP3 DUP3 PUSH2 0x39F JUMP JUMPDEST SWAP2 POP POP DUP1 SWAP2 POP POP SWAP3 SWAP2 POP POP JUMP JUMPDEST PUSH1 0x0 PUSH1 0x20 DUP3 ADD SWAP1 POP DUP2 DUP2 SUB PUSH1 0x0 DUP4 ADD MSTORE PUSH2 0x41C DUP2 DUP5 PUSH2 0x32A JUMP JUMPDEST SWAP1 POP SWAP3 SWAP2 POP POP JUMP JUMPDEST PUSH1 0x0 PUSH2 0x42E PUSH2 0x43F JUMP JUMPDEST SWAP1 POP PUSH2 0x43A DUP3 DUP3 PUSH2 0x543 JUMP JUMPDEST SWAP2 SWAP1 POP JUMP JUMPDEST PUSH1 0x0 PUSH1 0x40 MLOAD SWAP1 POP SWAP1 JUMP JUMPDEST PUSH1 0x0 PUSH8 0xFFFFFFFFFFFFFFFF DUP3 GT ISZERO PUSH2 0x464 JUMPI PUSH2 0x463 PUSH2 0x5A3 JUMP JUMPDEST JUMPDEST PUSH2 0x46D DUP3 PUSH2 0x5E6 JUMP JUMPDEST SWAP1 POP PUSH1 0x20 DUP2 ADD SWAP1 POP SWAP2 SWAP1 POP JUMP JUMPDEST PUSH1 0x0 DUP2 SWAP1 POP PUSH1 0x20 DUP3 ADD SWAP1 POP SWAP2 SWAP1 POP JUMP JUMPDEST PUSH1 0x0 DUP2 MLOAD SWAP1 POP SWAP2 SWAP1 POP JUMP JUMPDEST PUSH1 0x0 DUP2 MLOAD SWAP1 POP SWAP2 SWAP1 POP JUMP JUMPDEST PUSH1 0x0 PUSH1 0x20 DUP3 ADD SWAP1 POP SWAP2 SWAP1 POP JUMP JUMPDEST PUSH1 0x0 DUP3 DUP3 MSTORE PUSH1 0x20 DUP3 ADD SWAP1 POP SWAP3 SWAP2 POP POP JUMP JUMPDEST PUSH1 0x0 DUP3 DUP3 MSTORE PUSH1 0x20 DUP3 ADD SWAP1 POP SWAP3 SWAP2 POP POP JUMP JUMPDEST DUP3 DUP2 DUP4 CALLDATACOPY PUSH1 0x0 DUP4 DUP4 ADD MSTORE POP POP POP JUMP JUMPDEST PUSH1 0x0 JUMPDEST DUP4 DUP2 LT ISZERO PUSH2 0x4FC JUMPI DUP1 DUP3 ADD MLOAD DUP2 DUP5 ADD MSTORE PUSH1 0x20 DUP2 ADD SWAP1 POP PUSH2 0x4E1 JUMP JUMPDEST DUP4 DUP2 GT ISZERO PUSH2 0x50B JUMPI PUSH1 0x0 DUP5 DUP5 ADD MSTORE JUMPDEST POP POP POP POP JUMP JUMPDEST PUSH1 0x0 PUSH1 0x2 DUP3 DIV SWAP1 POP PUSH1 0x1 DUP3 AND DUP1 PUSH2 0x529 JUMPI PUSH1 0x7F DUP3 AND SWAP2 POP JUMPDEST PUSH1 0x20 DUP3 LT DUP2 EQ ISZERO PUSH2 0x53D JUMPI PUSH2 0x53C PUSH2 0x574 JUMP JUMPDEST JUMPDEST POP SWAP2 SWAP1 POP JUMP JUMPDEST PUSH2 0x54C DUP3 PUSH2 0x5E6 JUMP JUMPDEST DUP2 ADD DUP2 DUP2 LT PUSH8 0xFFFFFFFFFFFFFFFF DUP3 GT OR ISZERO PUSH2 0x56B JUMPI PUSH2 0x56A PUSH2 0x5A3 JUMP JUMPDEST JUMPDEST DUP1 PUSH1 0x40 MSTORE POP POP POP JUMP JUMPDEST PUSH32 0x4E487B7100000000000000000000000000000000000000000000000000000000 PUSH1 0x0 MSTORE PUSH1 0x22 PUSH1 0x4 MSTORE PUSH1 0x24 PUSH1 0x0 REVERT JUMPDEST PUSH32 0x4E487B7100000000000000000000000000000000000000000000000000000000 PUSH1 0x0 MSTORE PUSH1 0x41 PUSH1 0x4 MSTORE PUSH1 0x24 PUSH1 0x0 REVERT JUMPDEST PUSH1 0x0 DUP1 REVERT JUMPDEST PUSH1 0x0 DUP1 REVERT JUMPDEST PUSH1 0x0 DUP1 REVERT JUMPDEST PUSH1 0x0 DUP1 REVERT JUMPDEST PUSH1 0x0 PUSH1 0x1F NOT PUSH1 0x1F DUP4 ADD AND SWAP1 POP SWAP2 SWAP1 POP JUMP INVALID LOG2 PUSH5 0x6970667358 0x22 SLT KECCAK256 0x2B CREATE2 PUSH26 0x2281ED74BACD3F4B5766DBF2464DD6865A4030D671501BDA3777 0xE4 0xF6 DUP16 PUSH5 0x736F6C6343 STOP ADDMOD SMOD STOP CALLER "
				},
				"gasEstimates": {
					"creation": {
						"codeDepositCost": "316200",
						"executionCost": "355",
						"totalCost": "316555"
					},
					"external": {
						"getList()": "infinite",
						"push(string)": "infinite"
					}
				},
				"methodIdentifiers": {
					"getList()": "942b765a",
					"push(string)": "4f3d057a"
				}
			},
			"storageLayout": {
				"storage": [
					{
						"astId": 8,
						"contract": "todoList.sol:TodoList",
						"label": "list",
						"offset": 0,
						"slot": "0",
						"type": "t_array(t_struct(Task)4_storage)dyn_storage"
					}
				],
				"types": {
					"t_array(t_struct(Task)4_storage)dyn_storage": {
						"base": "t_struct(Task)4_storage",
						"encoding": "dynamic_array",
						"label": "struct TodoList.Task[]",
						"numberOfBytes": "32"
					},
					"t_string_storage": {
						"encoding": "bytes",
						"label": "string",
						"numberOfBytes": "32"
					},
					"t_struct(Task)4_storage": {
						"encoding": "inplace",
						"label": "struct TodoList.Task",
						"members": [
							{
								"astId": 3,
								"contract": "todoList.sol:TodoList",
								"label": "value",
								"offset": 0,
								"slot": "0",
								"type": "t_string_storage"
							}
						],
						"numberOfBytes": "32"
					}
				}
			},
			"userdoc": {
				"kind": "user",
				"methods": {},
				"version": 1
			}
		}
	}
}