{
	"error.sol": {
		"ErrorTest": {
			"abi": [
				{
					"inputs": [
						{
							"internalType": "uint256",
							"name": "n",
							"type": "uint256"
						}
					],
					"name": "f1",
					"outputs": [
						{
							"internalType": "int256",
							"name": "",
							"type": "int256"
						}
					],
					"stateMutability": "pure",
					"type": "function"
				},
				{
					"inputs": [
						{
							"internalType": "uint256",
							"name": "n",
							"type": "uint256"
						}
					],
					"name": "f2",
					"outputs": [],
					"stateMutability": "pure",
					"type": "function"
				}
			],
			"devdoc": {
				"kind": "dev",
				"methods": {},
				"version": 1
			},
			"evm": {
				"assembly": "    /* \"error.sol\":132:447  contract ErrorTest {\r... */\n  mstore(0x40, 0x80)\n  callvalue\n  dup1\n  iszero\n  tag_1\n  jumpi\n  0x00\n  dup1\n  revert\ntag_1:\n  pop\n  dataSize(sub_0)\n  dup1\n  dataOffset(sub_0)\n  0x00\n  codecopy\n  0x00\n  return\nstop\n\nsub_0: assembly {\n        /* \"error.sol\":132:447  contract ErrorTest {\r... */\n      mstore(0x40, 0x80)\n      callvalue\n      dup1\n      iszero\n      tag_1\n      jumpi\n      0x00\n      dup1\n      revert\n    tag_1:\n      pop\n      jumpi(tag_2, lt(calldatasize, 0x04))\n      shr(0xe0, calldataload(0x00))\n      dup1\n      0x9adbf691\n      eq\n      tag_3\n      jumpi\n      dup1\n      0xbf3724af\n      eq\n      tag_4\n      jumpi\n    tag_2:\n      0x00\n      dup1\n      revert\n        /* \"error.sol\":160:352  function f1(uint n) external pure returns (int) {\r... */\n    tag_3:\n      tag_5\n      0x04\n      dup1\n      calldatasize\n      sub\n      dup2\n      add\n      swap1\n      tag_6\n      swap2\n      swap1\n      tag_7\n      jump\t// in\n    tag_6:\n      tag_8\n      jump\t// in\n    tag_5:\n      mload(0x40)\n      tag_9\n      swap2\n      swap1\n      tag_10\n      jump\t// in\n    tag_9:\n      mload(0x40)\n      dup1\n      swap2\n      sub\n      swap1\n      return\n        /* \"error.sol\":360:444  function f2(uint n) external pure {\r... */\n    tag_4:\n      tag_11\n      0x04\n      dup1\n      calldatasize\n      sub\n      dup2\n      add\n      swap1\n      tag_12\n      swap2\n      swap1\n      tag_7\n      jump\t// in\n    tag_12:\n      tag_13\n      jump\t// in\n    tag_11:\n      stop\n        /* \"error.sol\":160:352  function f1(uint n) external pure returns (int) {\r... */\n    tag_8:\n        /* \"error.sol\":203:206  int */\n      0x00\n        /* \"error.sol\":231:232  0 */\n      dup1\n        /* \"error.sol\":226:227  2 */\n      0x02\n        /* \"error.sol\":222:223  n */\n      dup4\n        /* \"error.sol\":222:227  n % 2 */\n      tag_15\n      swap2\n      swap1\n      tag_16\n      jump\t// in\n    tag_15:\n        /* \"error.sol\":222:232  n % 2 != 0 */\n      eq\n        /* \"error.sol\":219:345  if(n % 2 != 0) {\r... */\n      tag_17\n      jumpi\n        /* \"error.sol\":249:274  revert('n is odd number') */\n      mload(0x40)\n      0x08c379a000000000000000000000000000000000000000000000000000000000\n      dup2\n      mstore\n      0x04\n      add\n      tag_18\n      swap1\n      tag_19\n      jump\t// in\n    tag_18:\n      mload(0x40)\n      dup1\n      swap2\n      sub\n      swap1\n      revert\n        /* \"error.sol\":219:345  if(n % 2 != 0) {\r... */\n    tag_17:\n        /* \"error.sol\":307:333  revert('n is even number') */\n      mload(0x40)\n      0x08c379a000000000000000000000000000000000000000000000000000000000\n      dup2\n      mstore\n      0x04\n      add\n      tag_21\n      swap1\n      tag_22\n      jump\t// in\n    tag_21:\n      mload(0x40)\n      dup1\n      swap2\n      sub\n      swap1\n      revert\n        /* \"error.sol\":360:444  function f2(uint n) external pure {\r... */\n    tag_13:\n        /* \"error.sol\":422:423  0 */\n      0x00\n        /* \"error.sol\":417:418  2 */\n      0x02\n        /* \"error.sol\":413:414  n */\n      dup3\n        /* \"error.sol\":413:418  n % 2 */\n      tag_24\n      swap2\n      swap1\n      tag_16\n      jump\t// in\n    tag_24:\n        /* \"error.sol\":413:423  n % 2 == 0 */\n      eq\n        /* \"error.sol\":405:436  require(n % 2 == 0, 'n is odd') */\n      tag_25\n      jumpi\n      mload(0x40)\n      0x08c379a000000000000000000000000000000000000000000000000000000000\n      dup2\n      mstore\n      0x04\n      add\n      tag_26\n      swap1\n      tag_27\n      jump\t// in\n    tag_26:\n      mload(0x40)\n      dup1\n      swap2\n      sub\n      swap1\n      revert\n    tag_25:\n        /* \"error.sol\":360:444  function f2(uint n) external pure {\r... */\n      pop\n      jump\t// out\n        /* \"#utility.yul\":7:146   */\n    tag_29:\n        /* \"#utility.yul\":53:58   */\n      0x00\n        /* \"#utility.yul\":91:97   */\n      dup2\n        /* \"#utility.yul\":78:98   */\n      calldataload\n        /* \"#utility.yul\":69:98   */\n      swap1\n      pop\n        /* \"#utility.yul\":107:140   */\n      tag_31\n        /* \"#utility.yul\":134:139   */\n      dup2\n        /* \"#utility.yul\":107:140   */\n      tag_32\n      jump\t// in\n    tag_31:\n        /* \"#utility.yul\":7:146   */\n      swap3\n      swap2\n      pop\n      pop\n      jump\t// out\n        /* \"#utility.yul\":152:481   */\n    tag_7:\n        /* \"#utility.yul\":211:217   */\n      0x00\n        /* \"#utility.yul\":260:262   */\n      0x20\n        /* \"#utility.yul\":248:257   */\n      dup3\n        /* \"#utility.yul\":239:246   */\n      dup5\n        /* \"#utility.yul\":235:258   */\n      sub\n        /* \"#utility.yul\":231:263   */\n      slt\n        /* \"#utility.yul\":228:347   */\n      iszero\n      tag_34\n      jumpi\n        /* \"#utility.yul\":266:345   */\n      tag_35\n      tag_36\n      jump\t// in\n    tag_35:\n        /* \"#utility.yul\":228:347   */\n    tag_34:\n        /* \"#utility.yul\":386:387   */\n      0x00\n        /* \"#utility.yul\":411:464   */\n      tag_37\n        /* \"#utility.yul\":456:463   */\n      dup5\n        /* \"#utility.yul\":447:453   */\n      dup3\n        /* \"#utility.yul\":436:445   */\n      dup6\n        /* \"#utility.yul\":432:454   */\n      add\n        /* \"#utility.yul\":411:464   */\n      tag_29\n      jump\t// in\n    tag_37:\n        /* \"#utility.yul\":401:464   */\n      swap2\n      pop\n        /* \"#utility.yul\":357:474   */\n      pop\n        /* \"#utility.yul\":152:481   */\n      swap3\n      swap2\n      pop\n      pop\n      jump\t// out\n        /* \"#utility.yul\":487:602   */\n    tag_38:\n        /* \"#utility.yul\":572:595   */\n      tag_40\n        /* \"#utility.yul\":589:594   */\n      dup2\n        /* \"#utility.yul\":572:595   */\n      tag_41\n      jump\t// in\n    tag_40:\n        /* \"#utility.yul\":567:570   */\n      dup3\n        /* \"#utility.yul\":560:596   */\n      mstore\n        /* \"#utility.yul\":487:602   */\n      pop\n      pop\n      jump\t// out\n        /* \"#utility.yul\":608:974   */\n    tag_42:\n        /* \"#utility.yul\":750:753   */\n      0x00\n        /* \"#utility.yul\":771:838   */\n      tag_44\n        /* \"#utility.yul\":835:837   */\n      0x10\n        /* \"#utility.yul\":830:833   */\n      dup4\n        /* \"#utility.yul\":771:838   */\n      tag_45\n      jump\t// in\n    tag_44:\n        /* \"#utility.yul\":764:838   */\n      swap2\n      pop\n        /* \"#utility.yul\":847:940   */\n      tag_46\n        /* \"#utility.yul\":936:939   */\n      dup3\n        /* \"#utility.yul\":847:940   */\n      tag_47\n      jump\t// in\n    tag_46:\n        /* \"#utility.yul\":965:967   */\n      0x20\n        /* \"#utility.yul\":960:963   */\n      dup3\n        /* \"#utility.yul\":956:968   */\n      add\n        /* \"#utility.yul\":949:968   */\n      swap1\n      pop\n        /* \"#utility.yul\":608:974   */\n      swap2\n      swap1\n      pop\n      jump\t// out\n        /* \"#utility.yul\":980:1346   */\n    tag_48:\n        /* \"#utility.yul\":1122:1125   */\n      0x00\n        /* \"#utility.yul\":1143:1210   */\n      tag_50\n        /* \"#utility.yul\":1207:1209   */\n      0x0f\n        /* \"#utility.yul\":1202:1205   */\n      dup4\n        /* \"#utility.yul\":1143:1210   */\n      tag_45\n      jump\t// in\n    tag_50:\n        /* \"#utility.yul\":1136:1210   */\n      swap2\n      pop\n        /* \"#utility.yul\":1219:1312   */\n      tag_51\n        /* \"#utility.yul\":1308:1311   */\n      dup3\n        /* \"#utility.yul\":1219:1312   */\n      tag_52\n      jump\t// in\n    tag_51:\n        /* \"#utility.yul\":1337:1339   */\n      0x20\n        /* \"#utility.yul\":1332:1335   */\n      dup3\n        /* \"#utility.yul\":1328:1340   */\n      add\n        /* \"#utility.yul\":1321:1340   */\n      swap1\n      pop\n        /* \"#utility.yul\":980:1346   */\n      swap2\n      swap1\n      pop\n      jump\t// out\n        /* \"#utility.yul\":1352:1717   */\n    tag_53:\n        /* \"#utility.yul\":1494:1497   */\n      0x00\n        /* \"#utility.yul\":1515:1581   */\n      tag_55\n        /* \"#utility.yul\":1579:1580   */\n      0x08\n        /* \"#utility.yul\":1574:1577   */\n      dup4\n        /* \"#utility.yul\":1515:1581   */\n      tag_45\n      jump\t// in\n    tag_55:\n        /* \"#utility.yul\":1508:1581   */\n      swap2\n      pop\n        /* \"#utility.yul\":1590:1683   */\n      tag_56\n        /* \"#utility.yul\":1679:1682   */\n      dup3\n        /* \"#utility.yul\":1590:1683   */\n      tag_57\n      jump\t// in\n    tag_56:\n        /* \"#utility.yul\":1708:1710   */\n      0x20\n        /* \"#utility.yul\":1703:1706   */\n      dup3\n        /* \"#utility.yul\":1699:1711   */\n      add\n        /* \"#utility.yul\":1692:1711   */\n      swap1\n      pop\n        /* \"#utility.yul\":1352:1717   */\n      swap2\n      swap1\n      pop\n      jump\t// out\n        /* \"#utility.yul\":1723:1941   */\n    tag_10:\n        /* \"#utility.yul\":1814:1818   */\n      0x00\n        /* \"#utility.yul\":1852:1854   */\n      0x20\n        /* \"#utility.yul\":1841:1850   */\n      dup3\n        /* \"#utility.yul\":1837:1855   */\n      add\n        /* \"#utility.yul\":1829:1855   */\n      swap1\n      pop\n        /* \"#utility.yul\":1865:1934   */\n      tag_59\n        /* \"#utility.yul\":1931:1932   */\n      0x00\n        /* \"#utility.yul\":1920:1929   */\n      dup4\n        /* \"#utility.yul\":1916:1933   */\n      add\n        /* \"#utility.yul\":1907:1913   */\n      dup5\n        /* \"#utility.yul\":1865:1934   */\n      tag_38\n      jump\t// in\n    tag_59:\n        /* \"#utility.yul\":1723:1941   */\n      swap3\n      swap2\n      pop\n      pop\n      jump\t// out\n        /* \"#utility.yul\":1947:2366   */\n    tag_22:\n        /* \"#utility.yul\":2113:2117   */\n      0x00\n        /* \"#utility.yul\":2151:2153   */\n      0x20\n        /* \"#utility.yul\":2140:2149   */\n      dup3\n        /* \"#utility.yul\":2136:2154   */\n      add\n        /* \"#utility.yul\":2128:2154   */\n      swap1\n      pop\n        /* \"#utility.yul\":2200:2209   */\n      dup2\n        /* \"#utility.yul\":2194:2198   */\n      dup2\n        /* \"#utility.yul\":2190:2210   */\n      sub\n        /* \"#utility.yul\":2186:2187   */\n      0x00\n        /* \"#utility.yul\":2175:2184   */\n      dup4\n        /* \"#utility.yul\":2171:2188   */\n      add\n        /* \"#utility.yul\":2164:2211   */\n      mstore\n        /* \"#utility.yul\":2228:2359   */\n      tag_61\n        /* \"#utility.yul\":2354:2358   */\n      dup2\n        /* \"#utility.yul\":2228:2359   */\n      tag_42\n      jump\t// in\n    tag_61:\n        /* \"#utility.yul\":2220:2359   */\n      swap1\n      pop\n        /* \"#utility.yul\":1947:2366   */\n      swap2\n      swap1\n      pop\n      jump\t// out\n        /* \"#utility.yul\":2372:2791   */\n    tag_19:\n        /* \"#utility.yul\":2538:2542   */\n      0x00\n        /* \"#utility.yul\":2576:2578   */\n      0x20\n        /* \"#utility.yul\":2565:2574   */\n      dup3\n        /* \"#utility.yul\":2561:2579   */\n      add\n        /* \"#utility.yul\":2553:2579   */\n      swap1\n      pop\n        /* \"#utility.yul\":2625:2634   */\n      dup2\n        /* \"#utility.yul\":2619:2623   */\n      dup2\n        /* \"#utility.yul\":2615:2635   */\n      sub\n        /* \"#utility.yul\":2611:2612   */\n      0x00\n        /* \"#utility.yul\":2600:2609   */\n      dup4\n        /* \"#utility.yul\":2596:2613   */\n      add\n        /* \"#utility.yul\":2589:2636   */\n      mstore\n        /* \"#utility.yul\":2653:2784   */\n      tag_63\n        /* \"#utility.yul\":2779:2783   */\n      dup2\n        /* \"#utility.yul\":2653:2784   */\n      tag_48\n      jump\t// in\n    tag_63:\n        /* \"#utility.yul\":2645:2784   */\n      swap1\n      pop\n        /* \"#utility.yul\":2372:2791   */\n      swap2\n      swap1\n      pop\n      jump\t// out\n        /* \"#utility.yul\":2797:3216   */\n    tag_27:\n        /* \"#utility.yul\":2963:2967   */\n      0x00\n        /* \"#utility.yul\":3001:3003   */\n      0x20\n        /* \"#utility.yul\":2990:2999   */\n      dup3\n        /* \"#utility.yul\":2986:3004   */\n      add\n        /* \"#utility.yul\":2978:3004   */\n      swap1\n      pop\n        /* \"#utility.yul\":3050:3059   */\n      dup2\n        /* \"#utility.yul\":3044:3048   */\n      dup2\n        /* \"#utility.yul\":3040:3060   */\n      sub\n        /* \"#utility.yul\":3036:3037   */\n      0x00\n        /* \"#utility.yul\":3025:3034   */\n      dup4\n        /* \"#utility.yul\":3021:3038   */\n      add\n        /* \"#utility.yul\":3014:3061   */\n      mstore\n        /* \"#utility.yul\":3078:3209   */\n      tag_65\n        /* \"#utility.yul\":3204:3208   */\n      dup2\n        /* \"#utility.yul\":3078:3209   */\n      tag_53\n      jump\t// in\n    tag_65:\n        /* \"#utility.yul\":3070:3209   */\n      swap1\n      pop\n        /* \"#utility.yul\":2797:3216   */\n      swap2\n      swap1\n      pop\n      jump\t// out\n        /* \"#utility.yul\":3303:3472   */\n    tag_45:\n        /* \"#utility.yul\":3387:3398   */\n      0x00\n        /* \"#utility.yul\":3421:3427   */\n      dup3\n        /* \"#utility.yul\":3416:3419   */\n      dup3\n        /* \"#utility.yul\":3409:3428   */\n      mstore\n        /* \"#utility.yul\":3461:3465   */\n      0x20\n        /* \"#utility.yul\":3456:3459   */\n      dup3\n        /* \"#utility.yul\":3452:3466   */\n      add\n        /* \"#utility.yul\":3437:3466   */\n      swap1\n      pop\n        /* \"#utility.yul\":3303:3472   */\n      swap3\n      swap2\n      pop\n      pop\n      jump\t// out\n        /* \"#utility.yul\":3478:3554   */\n    tag_41:\n        /* \"#utility.yul\":3514:3521   */\n      0x00\n        /* \"#utility.yul\":3543:3548   */\n      dup2\n        /* \"#utility.yul\":3532:3548   */\n      swap1\n      pop\n        /* \"#utility.yul\":3478:3554   */\n      swap2\n      swap1\n      pop\n      jump\t// out\n        /* \"#utility.yul\":3560:3637   */\n    tag_70:\n        /* \"#utility.yul\":3597:3604   */\n      0x00\n        /* \"#utility.yul\":3626:3631   */\n      dup2\n        /* \"#utility.yul\":3615:3631   */\n      swap1\n      pop\n        /* \"#utility.yul\":3560:3637   */\n      swap2\n      swap1\n      pop\n      jump\t// out\n        /* \"#utility.yul\":3643:3819   */\n    tag_16:\n        /* \"#utility.yul\":3675:3676   */\n      0x00\n        /* \"#utility.yul\":3692:3712   */\n      tag_73\n        /* \"#utility.yul\":3710:3711   */\n      dup3\n        /* \"#utility.yul\":3692:3712   */\n      tag_70\n      jump\t// in\n    tag_73:\n        /* \"#utility.yul\":3687:3712   */\n      swap2\n      pop\n        /* \"#utility.yul\":3726:3746   */\n      tag_74\n        /* \"#utility.yul\":3744:3745   */\n      dup4\n        /* \"#utility.yul\":3726:3746   */\n      tag_70\n      jump\t// in\n    tag_74:\n        /* \"#utility.yul\":3721:3746   */\n      swap3\n      pop\n        /* \"#utility.yul\":3765:3766   */\n      dup3\n        /* \"#utility.yul\":3755:3790   */\n      tag_75\n      jumpi\n        /* \"#utility.yul\":3770:3788   */\n      tag_76\n      tag_77\n      jump\t// in\n    tag_76:\n        /* \"#utility.yul\":3755:3790   */\n    tag_75:\n        /* \"#utility.yul\":3811:3812   */\n      dup3\n        /* \"#utility.yul\":3808:3809   */\n      dup3\n        /* \"#utility.yul\":3804:3813   */\n      mod\n        /* \"#utility.yul\":3799:3813   */\n      swap1\n      pop\n        /* \"#utility.yul\":3643:3819   */\n      swap3\n      swap2\n      pop\n      pop\n      jump\t// out\n        /* \"#utility.yul\":3825:4005   */\n    tag_77:\n        /* \"#utility.yul\":3873:3950   */\n      0x4e487b7100000000000000000000000000000000000000000000000000000000\n        /* \"#utility.yul\":3870:3871   */\n      0x00\n        /* \"#utility.yul\":3863:3951   */\n      mstore\n        /* \"#utility.yul\":3970:3974   */\n      0x12\n        /* \"#utility.yul\":3967:3968   */\n      0x04\n        /* \"#utility.yul\":3960:3975   */\n      mstore\n        /* \"#utility.yul\":3994:3998   */\n      0x24\n        /* \"#utility.yul\":3991:3992   */\n      0x00\n        /* \"#utility.yul\":3984:3999   */\n      revert\n        /* \"#utility.yul\":4134:4251   */\n    tag_36:\n        /* \"#utility.yul\":4243:4244   */\n      0x00\n        /* \"#utility.yul\":4240:4241   */\n      dup1\n        /* \"#utility.yul\":4233:4245   */\n      revert\n        /* \"#utility.yul\":4257:4423   */\n    tag_47:\n        /* \"#utility.yul\":4397:4415   */\n      0x6e206973206576656e206e756d62657200000000000000000000000000000000\n        /* \"#utility.yul\":4393:4394   */\n      0x00\n        /* \"#utility.yul\":4385:4391   */\n      dup3\n        /* \"#utility.yul\":4381:4395   */\n      add\n        /* \"#utility.yul\":4374:4416   */\n      mstore\n        /* \"#utility.yul\":4257:4423   */\n      pop\n      jump\t// out\n        /* \"#utility.yul\":4429:4594   */\n    tag_52:\n        /* \"#utility.yul\":4569:4586   */\n      0x6e206973206f6464206e756d6265720000000000000000000000000000000000\n        /* \"#utility.yul\":4565:4566   */\n      0x00\n        /* \"#utility.yul\":4557:4563   */\n      dup3\n        /* \"#utility.yul\":4553:4567   */\n      add\n        /* \"#utility.yul\":4546:4587   */\n      mstore\n        /* \"#utility.yul\":4429:4594   */\n      pop\n      jump\t// out\n        /* \"#utility.yul\":4600:4758   */\n    tag_57:\n        /* \"#utility.yul\":4740:4750   */\n      0x6e206973206f6464000000000000000000000000000000000000000000000000\n        /* \"#utility.yul\":4736:4737   */\n      0x00\n        /* \"#utility.yul\":4728:4734   */\n      dup3\n        /* \"#utility.yul\":4724:4738   */\n      add\n        /* \"#utility.yul\":4717:4751   */\n      mstore\n        /* \"#utility.yul\":4600:4758   */\n      pop\n      jump\t// out\n        /* \"#utility.yul\":4764:4886   */\n    tag_32:\n        /* \"#utility.yul\":4837:4861   */\n      tag_86\n        /* \"#utility.yul\":4855:4860   */\n      dup2\n        /* \"#utility.yul\":4837:4861   */\n      tag_70\n      jump\t// in\n    tag_86:\n        /* \"#utility.yul\":4830:4835   */\n      dup2\n        /* \"#utility.yul\":4827:4862   */\n      eq\n        /* \"#utility.yul\":4817:4880   */\n      tag_87\n      jumpi\n        /* \"#utility.yul\":4876:4877   */\n      0x00\n        /* \"#utility.yul\":4873:4874   */\n      dup1\n        /* \"#utility.yul\":4866:4878   */\n      revert\n        /* \"#utility.yul\":4817:4880   */\n    tag_87:\n        /* \"#utility.yul\":4764:4886   */\n      pop\n      jump\t// out\n\n    auxdata: 0xa2646970667358221220810b94b0cb010d5041fba0da2342fa51ea57fbcc0232ef097062efc71473d8bf64736f6c63430008070033\n}\n",
				"bytecode": {
					"linkReferences": {},
					"object": "608060405234801561001057600080fd5b506103eb806100206000396000f3fe608060405234801561001057600080fd5b50600436106100365760003560e01c80639adbf6911461003b578063bf3724af1461006b575b600080fd5b61005560048036038101906100509190610179565b610087565b604051610062919061021e565b60405180910390f35b61008560048036038101906100809190610179565b610112565b005b60008060028361009791906102be565b146100d7576040517f08c379a00000000000000000000000000000000000000000000000000000000081526004016100ce90610259565b60405180910390fd5b6040517f08c379a000000000000000000000000000000000000000000000000000000000815260040161010990610239565b60405180910390fd5b600060028261012191906102be565b14610161576040517f08c379a000000000000000000000000000000000000000000000000000000000815260040161015890610279565b60405180910390fd5b50565b6000813590506101738161039e565b92915050565b60006020828403121561018f5761018e61031e565b5b600061019d84828501610164565b91505092915050565b6101af816102aa565b82525050565b60006101c2601083610299565b91506101cd82610323565b602082019050919050565b60006101e5600f83610299565b91506101f08261034c565b602082019050919050565b6000610208600883610299565b915061021382610375565b602082019050919050565b600060208201905061023360008301846101a6565b92915050565b60006020820190508181036000830152610252816101b5565b9050919050565b60006020820190508181036000830152610272816101d8565b9050919050565b60006020820190508181036000830152610292816101fb565b9050919050565b600082825260208201905092915050565b6000819050919050565b6000819050919050565b60006102c9826102b4565b91506102d4836102b4565b9250826102e4576102e36102ef565b5b828206905092915050565b7f4e487b7100000000000000000000000000000000000000000000000000000000600052601260045260246000fd5b600080fd5b7f6e206973206576656e206e756d62657200000000000000000000000000000000600082015250565b7f6e206973206f6464206e756d6265720000000000000000000000000000000000600082015250565b7f6e206973206f6464000000000000000000000000000000000000000000000000600082015250565b6103a7816102b4565b81146103b257600080fd5b5056fea2646970667358221220810b94b0cb010d5041fba0da2342fa51ea57fbcc0232ef097062efc71473d8bf64736f6c63430008070033",
					"opcodes": "PUSH1 0x80 PUSH1 0x40 MSTORE CALLVALUE DUP1 ISZERO PUSH2 0x10 JUMPI PUSH1 0x0 DUP1 REVERT JUMPDEST POP PUSH2 0x3EB DUP1 PUSH2 0x20 PUSH1 0x0 CODECOPY PUSH1 0x0 RETURN INVALID PUSH1 0x80 PUSH1 0x40 MSTORE CALLVALUE DUP1 ISZERO PUSH2 0x10 JUMPI PUSH1 0x0 DUP1 REVERT JUMPDEST POP PUSH1 0x4 CALLDATASIZE LT PUSH2 0x36 JUMPI PUSH1 0x0 CALLDATALOAD PUSH1 0xE0 SHR DUP1 PUSH4 0x9ADBF691 EQ PUSH2 0x3B JUMPI DUP1 PUSH4 0xBF3724AF EQ PUSH2 0x6B JUMPI JUMPDEST PUSH1 0x0 DUP1 REVERT JUMPDEST PUSH2 0x55 PUSH1 0x4 DUP1 CALLDATASIZE SUB DUP2 ADD SWAP1 PUSH2 0x50 SWAP2 SWAP1 PUSH2 0x179 JUMP JUMPDEST PUSH2 0x87 JUMP JUMPDEST PUSH1 0x40 MLOAD PUSH2 0x62 SWAP2 SWAP1 PUSH2 0x21E JUMP JUMPDEST PUSH1 0x40 MLOAD DUP1 SWAP2 SUB SWAP1 RETURN JUMPDEST PUSH2 0x85 PUSH1 0x4 DUP1 CALLDATASIZE SUB DUP2 ADD SWAP1 PUSH2 0x80 SWAP2 SWAP1 PUSH2 0x179 JUMP JUMPDEST PUSH2 0x112 JUMP JUMPDEST STOP JUMPDEST PUSH1 0x0 DUP1 PUSH1 0x2 DUP4 PUSH2 0x97 SWAP2 SWAP1 PUSH2 0x2BE JUMP JUMPDEST EQ PUSH2 0xD7 JUMPI PUSH1 0x40 MLOAD PUSH32 0x8C379A000000000000000000000000000000000000000000000000000000000 DUP2 MSTORE PUSH1 0x4 ADD PUSH2 0xCE SWAP1 PUSH2 0x259 JUMP JUMPDEST PUSH1 0x40 MLOAD DUP1 SWAP2 SUB SWAP1 REVERT JUMPDEST PUSH1 0x40 MLOAD PUSH32 0x8C379A000000000000000000000000000000000000000000000000000000000 DUP2 MSTORE PUSH1 0x4 ADD PUSH2 0x109 SWAP1 PUSH2 0x239 JUMP JUMPDEST PUSH1 0x40 MLOAD DUP1 SWAP2 SUB SWAP1 REVERT JUMPDEST PUSH1 0x0 PUSH1 0x2 DUP3 PUSH2 0x121 SWAP2 SWAP1 PUSH2 0x2BE JUMP JUMPDEST EQ PUSH2 0x161 JUMPI PUSH1 0x40 MLOAD PUSH32 0x8C379A000000000000000000000000000000000000000000000000000000000 DUP2 MSTORE PUSH1 0x4 ADD PUSH2 0x158 SWAP1 PUSH2 0x279 JUMP JUMPDEST PUSH1 0x40 MLOAD DUP1 SWAP2 SUB SWAP1 REVERT JUMPDEST POP JUMP JUMPDEST PUSH1 0x0 DUP2 CALLDATALOAD SWAP1 POP PUSH2 0x173 DUP2 PUSH2 0x39E JUMP JUMPDEST SWAP3 SWAP2 POP POP JUMP JUMPDEST PUSH1 0x0 PUSH1 0x20 DUP3 DUP5 SUB SLT ISZERO PUSH2 0x18F JUMPI PUSH2 0x18E PUSH2 0x31E JUMP JUMPDEST JUMPDEST PUSH1 0x0 PUSH2 0x19D DUP5 DUP3 DUP6 ADD PUSH2 0x164 JUMP JUMPDEST SWAP2 POP POP SWAP3 SWAP2 POP POP JUMP JUMPDEST PUSH2 0x1AF DUP2 PUSH2 0x2AA JUMP JUMPDEST DUP3 MSTORE POP POP JUMP JUMPDEST PUSH1 0x0 PUSH2 0x1C2 PUSH1 0x10 DUP4 PUSH2 0x299 JUMP JUMPDEST SWAP2 POP PUSH2 0x1CD DUP3 PUSH2 0x323 JUMP JUMPDEST PUSH1 0x20 DUP3 ADD SWAP1 POP SWAP2 SWAP1 POP JUMP JUMPDEST PUSH1 0x0 PUSH2 0x1E5 PUSH1 0xF DUP4 PUSH2 0x299 JUMP JUMPDEST SWAP2 POP PUSH2 0x1F0 DUP3 PUSH2 0x34C JUMP JUMPDEST PUSH1 0x20 DUP3 ADD SWAP1 POP SWAP2 SWAP1 POP JUMP JUMPDEST PUSH1 0x0 PUSH2 0x208 PUSH1 0x8 DUP4 PUSH2 0x299 JUMP JUMPDEST SWAP2 POP PUSH2 0x213 DUP3 PUSH2 0x375 JUMP JUMPDEST PUSH1 0x20 DUP3 ADD SWAP1 POP SWAP2 SWAP1 POP JUMP JUMPDEST PUSH1 0x0 PUSH1 0x20 DUP3 ADD SWAP1 POP PUSH2 0x233 PUSH1 0x0 DUP4 ADD DUP5 PUSH2 0x1A6 JUMP JUMPDEST SWAP3 SWAP2 POP POP JUMP JUMPDEST PUSH1 0x0 PUSH1 0x20 DUP3 ADD SWAP1 POP DUP2 DUP2 SUB PUSH1 0x0 DUP4 ADD MSTORE PUSH2 0x252 DUP2 PUSH2 0x1B5 JUMP JUMPDEST SWAP1 POP SWAP2 SWAP1 POP JUMP JUMPDEST PUSH1 0x0 PUSH1 0x20 DUP3 ADD SWAP1 POP DUP2 DUP2 SUB PUSH1 0x0 DUP4 ADD MSTORE PUSH2 0x272 DUP2 PUSH2 0x1D8 JUMP JUMPDEST SWAP1 POP SWAP2 SWAP1 POP JUMP JUMPDEST PUSH1 0x0 PUSH1 0x20 DUP3 ADD SWAP1 POP DUP2 DUP2 SUB PUSH1 0x0 DUP4 ADD MSTORE PUSH2 0x292 DUP2 PUSH2 0x1FB JUMP JUMPDEST SWAP1 POP SWAP2 SWAP1 POP JUMP JUMPDEST PUSH1 0x0 DUP3 DUP3 MSTORE PUSH1 0x20 DUP3 ADD SWAP1 POP SWAP3 SWAP2 POP POP JUMP JUMPDEST PUSH1 0x0 DUP2 SWAP1 POP SWAP2 SWAP1 POP JUMP JUMPDEST PUSH1 0x0 DUP2 SWAP1 POP SWAP2 SWAP1 POP JUMP JUMPDEST PUSH1 0x0 PUSH2 0x2C9 DUP3 PUSH2 0x2B4 JUMP JUMPDEST SWAP2 POP PUSH2 0x2D4 DUP4 PUSH2 0x2B4 JUMP JUMPDEST SWAP3 POP DUP3 PUSH2 0x2E4 JUMPI PUSH2 0x2E3 PUSH2 0x2EF JUMP JUMPDEST JUMPDEST DUP3 DUP3 MOD SWAP1 POP SWAP3 SWAP2 POP POP JUMP JUMPDEST PUSH32 0x4E487B7100000000000000000000000000000000000000000000000000000000 PUSH1 0x0 MSTORE PUSH1 0x12 PUSH1 0x4 MSTORE PUSH1 0x24 PUSH1 0x0 REVERT JUMPDEST PUSH1 0x0 DUP1 REVERT JUMPDEST PUSH32 0x6E206973206576656E206E756D62657200000000000000000000000000000000 PUSH1 0x0 DUP3 ADD MSTORE POP JUMP JUMPDEST PUSH32 0x6E206973206F6464206E756D6265720000000000000000000000000000000000 PUSH1 0x0 DUP3 ADD MSTORE POP JUMP JUMPDEST PUSH32 0x6E206973206F6464000000000000000000000000000000000000000000000000 PUSH1 0x0 DUP3 ADD MSTORE POP JUMP JUMPDEST PUSH2 0x3A7 DUP2 PUSH2 0x2B4 JUMP JUMPDEST DUP2 EQ PUSH2 0x3B2 JUMPI PUSH1 0x0 DUP1 REVERT JUMPDEST POP JUMP INVALID LOG2 PUSH5 0x6970667358 0x22 SLT KECCAK256 DUP2 SIGNEXTEND SWAP5 0xB0 0xCB ADD 0xD POP COINBASE 0xFB LOG0 0xDA 0x23 TIMESTAMP STATICCALL MLOAD 0xEA JUMPI 0xFB 0xCC MUL ORIGIN 0xEF MULMOD PUSH17 0x62EFC71473D8BF64736F6C634300080700 CALLER "
				},
				"gasEstimates": {
					"creation": {
						"codeDepositCost": "200600",
						"executionCost": "245",
						"totalCost": "200845"
					},
					"external": {
						"f1(uint256)": "infinite",
						"f2(uint256)": "infinite"
					}
				},
				"methodIdentifiers": {
					"f1(uint256)": "9adbf691",
					"f2(uint256)": "bf3724af"
				}
			},
			"storageLayout": {
				"storage": [],
				"types": null
			},
			"userdoc": {
				"kind": "user",
				"methods": {},
				"version": 1
			}
		}
	}
}