{
	"array.sol": {
		"ArrayTest": {
			"abi": [
				{
					"inputs": [
						{
							"internalType": "string",
							"name": "_bookName",
							"type": "string"
						}
					],
					"name": "createReadList",
					"outputs": [],
					"stateMutability": "nonpayable",
					"type": "function"
				},
				{
					"inputs": [
						{
							"internalType": "string",
							"name": "bookName",
							"type": "string"
						},
						{
							"internalType": "uint256",
							"name": "_status",
							"type": "uint256"
						}
					],
					"name": "editReadList",
					"outputs": [],
					"stateMutability": "nonpayable",
					"type": "function"
				},
				{
					"inputs": [
						{
							"internalType": "uint256",
							"name": "status",
							"type": "uint256"
						}
					],
					"name": "getFilterReadList",
					"outputs": [
						{
							"components": [
								{
									"internalType": "uint256",
									"name": "status",
									"type": "uint256"
								},
								{
									"internalType": "string",
									"name": "bookName",
									"type": "string"
								}
							],
							"internalType": "struct ArrayTest.Book",
							"name": "",
							"type": "tuple"
						}
					],
					"stateMutability": "view",
					"type": "function"
				},
				{
					"inputs": [],
					"name": "getList",
					"outputs": [
						{
							"components": [
								{
									"internalType": "uint256",
									"name": "status",
									"type": "uint256"
								},
								{
									"internalType": "string",
									"name": "bookName",
									"type": "string"
								}
							],
							"internalType": "struct ArrayTest.Book[]",
							"name": "",
							"type": "tuple[]"
						}
					],
					"stateMutability": "view",
					"type": "function"
				}
			],
			"devdoc": {
				"kind": "dev",
				"methods": {},
				"version": 1
			},
			"evm": {
				"assembly": "    /* \"array.sol\":61:827  contract ArrayTest {\r... */\n  mstore(0x40, 0x80)\n  callvalue\n  dup1\n  iszero\n  tag_1\n  jumpi\n  0x00\n  dup1\n  revert\ntag_1:\n  pop\n  dataSize(sub_0)\n  dup1\n  dataOffset(sub_0)\n  0x00\n  codecopy\n  0x00\n  return\nstop\n\nsub_0: assembly {\n        /* \"array.sol\":61:827  contract ArrayTest {\r... */\n      mstore(0x40, 0x80)\n      callvalue\n      dup1\n      iszero\n      tag_1\n      jumpi\n      0x00\n      dup1\n      revert\n    tag_1:\n      pop\n      jumpi(tag_2, lt(calldatasize, 0x04))\n      shr(0xe0, calldataload(0x00))\n      dup1\n      0x234c6686\n      eq\n      tag_3\n      jumpi\n      dup1\n      0x942b765a\n      eq\n      tag_4\n      jumpi\n      dup1\n      0xb868ef57\n      eq\n      tag_5\n      jumpi\n      dup1\n      0xfb2996fd\n      eq\n      tag_6\n      jumpi\n    tag_2:\n      0x00\n      dup1\n      revert\n        /* \"array.sol\":324:483  function createReadList(string memory _bookName) public {\r... */\n    tag_3:\n      tag_7\n      0x04\n      dup1\n      calldatasize\n      sub\n      dup2\n      add\n      swap1\n      tag_8\n      swap2\n      swap1\n      tag_9\n      jump\t// in\n    tag_8:\n      tag_10\n      jump\t// in\n    tag_7:\n      stop\n        /* \"array.sol\":739:824  function getList() public view returns (Book[] memory) {\r... */\n    tag_4:\n      tag_11\n      tag_12\n      jump\t// in\n    tag_11:\n      mload(0x40)\n      tag_13\n      swap2\n      swap1\n      tag_14\n      jump\t// in\n    tag_13:\n      mload(0x40)\n      dup1\n      swap2\n      sub\n      swap1\n      return\n        /* \"array.sol\":619:731  function getFilterReadList(uint status) public view returns (Book memory) {\r... */\n    tag_5:\n      tag_15\n      0x04\n      dup1\n      calldatasize\n      sub\n      dup2\n      add\n      swap1\n      tag_16\n      swap2\n      swap1\n      tag_17\n      jump\t// in\n    tag_16:\n      tag_18\n      jump\t// in\n    tag_15:\n      mload(0x40)\n      tag_19\n      swap2\n      swap1\n      tag_20\n      jump\t// in\n    tag_19:\n      mload(0x40)\n      dup1\n      swap2\n      sub\n      swap1\n      return\n        /* \"array.sol\":491:611  function editReadList(string memory bookName,uint _status) public {\r... */\n    tag_6:\n      tag_21\n      0x04\n      dup1\n      calldatasize\n      sub\n      dup2\n      add\n      swap1\n      tag_22\n      swap2\n      swap1\n      tag_23\n      jump\t// in\n    tag_22:\n      tag_24\n      jump\t// in\n    tag_21:\n      stop\n        /* \"array.sol\":324:483  function createReadList(string memory _bookName) public {\r... */\n    tag_10:\n        /* \"array.sol\":391:395  list */\n      0x00\n        /* \"array.sol\":401:474  Book({\r... */\n      mload(0x40)\n      dup1\n      0x40\n      add\n      0x40\n      mstore\n      dup1\n        /* \"array.sol\":428:429  0 */\n      0x00\n        /* \"array.sol\":401:474  Book({\r... */\n      dup2\n      mstore\n      0x20\n      add\n        /* \"array.sol\":453:462  _bookName */\n      dup4\n        /* \"array.sol\":401:474  Book({\r... */\n      dup2\n      mstore\n      pop\n        /* \"array.sol\":391:475  list.push(Book({\r... */\n      swap1\n      dup1\n      0x01\n      dup2\n      sload\n      add\n      dup1\n      dup3\n      sstore\n      dup1\n      swap2\n      pop\n      pop\n      0x01\n      swap1\n      sub\n      swap1\n      0x00\n      mstore\n      keccak256(0x00, 0x20)\n      swap1\n      0x02\n      mul\n      add\n      0x00\n      swap1\n      swap2\n      swap1\n      swap2\n      swap1\n      swap2\n      pop\n      0x00\n      dup3\n      add\n      mload\n      dup2\n      0x00\n      add\n      sstore\n      0x20\n      dup3\n      add\n      mload\n      dup2\n      0x01\n      add\n      swap1\n      dup1\n      mload\n      swap1\n      0x20\n      add\n      swap1\n      tag_27\n      swap3\n      swap2\n      swap1\n      tag_28\n      jump\t// in\n    tag_27:\n      pop\n      pop\n      pop\n        /* \"array.sol\":324:483  function createReadList(string memory _bookName) public {\r... */\n      pop\n      jump\t// out\n        /* \"array.sol\":739:824  function getList() public view returns (Book[] memory) {\r... */\n    tag_12:\n        /* \"array.sol\":779:792  Book[] memory */\n      0x60\n        /* \"array.sol\":812:816  list */\n      0x00\n        /* \"array.sol\":805:816  return list */\n      dup1\n      sload\n      dup1\n      0x20\n      mul\n      0x20\n      add\n      mload(0x40)\n      swap1\n      dup2\n      add\n      0x40\n      mstore\n      dup1\n      swap3\n      swap2\n      swap1\n      dup2\n      dup2\n      mstore\n      0x20\n      add\n      0x00\n      swap1\n    tag_30:\n      dup3\n      dup3\n      lt\n      iszero\n      tag_31\n      jumpi\n      dup4\n      dup3\n      swap1\n      0x00\n      mstore\n      keccak256(0x00, 0x20)\n      swap1\n      0x02\n      mul\n      add\n      mload(0x40)\n      dup1\n      0x40\n      add\n      0x40\n      mstore\n      swap1\n      dup2\n      0x00\n      dup3\n      add\n      sload\n      dup2\n      mstore\n      0x20\n      add\n      0x01\n      dup3\n      add\n      dup1\n      sload\n      tag_33\n      swap1\n      tag_34\n      jump\t// in\n    tag_33:\n      dup1\n      0x1f\n      add\n      0x20\n      dup1\n      swap2\n      div\n      mul\n      0x20\n      add\n      mload(0x40)\n      swap1\n      dup2\n      add\n      0x40\n      mstore\n      dup1\n      swap3\n      swap2\n      swap1\n      dup2\n      dup2\n      mstore\n      0x20\n      add\n      dup3\n      dup1\n      sload\n      tag_35\n      swap1\n      tag_34\n      jump\t// in\n    tag_35:\n      dup1\n      iszero\n      tag_36\n      jumpi\n      dup1\n      0x1f\n      lt\n      tag_37\n      jumpi\n      0x0100\n      dup1\n      dup4\n      sload\n      div\n      mul\n      dup4\n      mstore\n      swap2\n      0x20\n      add\n      swap2\n      jump(tag_36)\n    tag_37:\n      dup3\n      add\n      swap2\n      swap1\n      0x00\n      mstore\n      keccak256(0x00, 0x20)\n      swap1\n    tag_38:\n      dup2\n      sload\n      dup2\n      mstore\n      swap1\n      0x01\n      add\n      swap1\n      0x20\n      add\n      dup1\n      dup4\n      gt\n      tag_38\n      jumpi\n      dup3\n      swap1\n      sub\n      0x1f\n      and\n      dup3\n      add\n      swap2\n    tag_36:\n      pop\n      pop\n      pop\n      pop\n      pop\n      dup2\n      mstore\n      pop\n      pop\n      dup2\n      mstore\n      0x20\n      add\n      swap1\n      0x01\n      add\n      swap1\n      jump(tag_30)\n    tag_31:\n      pop\n      pop\n      pop\n      pop\n      swap1\n      pop\n        /* \"array.sol\":739:824  function getList() public view returns (Book[] memory) {\r... */\n      swap1\n      jump\t// out\n        /* \"array.sol\":619:731  function getFilterReadList(uint status) public view returns (Book memory) {\r... */\n    tag_18:\n        /* \"array.sol\":680:691  Book memory */\n      tag_39\n      tag_40\n      jump\t// in\n    tag_39:\n        /* \"array.sol\":711:715  book */\n      0x01\n        /* \"array.sol\":711:723  book[status] */\n      0x00\n        /* \"array.sol\":716:722  status */\n      dup4\n        /* \"array.sol\":711:723  book[status] */\n      dup2\n      mstore\n      0x20\n      add\n      swap1\n      dup2\n      mstore\n      0x20\n      add\n      0x00\n      keccak256\n        /* \"array.sol\":704:723  return book[status] */\n      mload(0x40)\n      dup1\n      0x40\n      add\n      0x40\n      mstore\n      swap1\n      dup2\n      0x00\n      dup3\n      add\n      sload\n      dup2\n      mstore\n      0x20\n      add\n      0x01\n      dup3\n      add\n      dup1\n      sload\n      tag_42\n      swap1\n      tag_34\n      jump\t// in\n    tag_42:\n      dup1\n      0x1f\n      add\n      0x20\n      dup1\n      swap2\n      div\n      mul\n      0x20\n      add\n      mload(0x40)\n      swap1\n      dup2\n      add\n      0x40\n      mstore\n      dup1\n      swap3\n      swap2\n      swap1\n      dup2\n      dup2\n      mstore\n      0x20\n      add\n      dup3\n      dup1\n      sload\n      tag_43\n      swap1\n      tag_34\n      jump\t// in\n    tag_43:\n      dup1\n      iszero\n      tag_44\n      jumpi\n      dup1\n      0x1f\n      lt\n      tag_45\n      jumpi\n      0x0100\n      dup1\n      dup4\n      sload\n      div\n      mul\n      dup4\n      mstore\n      swap2\n      0x20\n      add\n      swap2\n      jump(tag_44)\n    tag_45:\n      dup3\n      add\n      swap2\n      swap1\n      0x00\n      mstore\n      keccak256(0x00, 0x20)\n      swap1\n    tag_46:\n      dup2\n      sload\n      dup2\n      mstore\n      swap1\n      0x01\n      add\n      swap1\n      0x20\n      add\n      dup1\n      dup4\n      gt\n      tag_46\n      jumpi\n      dup3\n      swap1\n      sub\n      0x1f\n      and\n      dup3\n      add\n      swap2\n    tag_44:\n      pop\n      pop\n      pop\n      pop\n      pop\n      dup2\n      mstore\n      pop\n      pop\n      swap1\n      pop\n        /* \"array.sol\":619:731  function getFilterReadList(uint status) public view returns (Book memory) {\r... */\n      swap2\n      swap1\n      pop\n      jump\t// out\n        /* \"array.sol\":491:611  function editReadList(string memory bookName,uint _status) public {\r... */\n    tag_24:\n        /* \"array.sol\":596:603  _status */\n      dup1\n        /* \"array.sol\":568:576  editBook */\n      0x02\n        /* \"array.sol\":577:585  bookName */\n      dup4\n        /* \"array.sol\":568:586  editBook[bookName] */\n      mload(0x40)\n      tag_48\n      swap2\n      swap1\n      tag_49\n      jump\t// in\n    tag_48:\n      swap1\n      dup2\n      mstore\n      0x20\n      add\n      mload(0x40)\n      dup1\n      swap2\n      sub\n      swap1\n      keccak256\n        /* \"array.sol\":568:593  editBook[bookName].status */\n      0x00\n      add\n        /* \"array.sol\":568:603  editBook[bookName].status = _status */\n      dup2\n      swap1\n      sstore\n      pop\n        /* \"array.sol\":491:611  function editReadList(string memory bookName,uint _status) public {\r... */\n      pop\n      pop\n      jump\t// out\n    tag_28:\n      dup3\n      dup1\n      sload\n      tag_50\n      swap1\n      tag_34\n      jump\t// in\n    tag_50:\n      swap1\n      0x00\n      mstore\n      keccak256(0x00, 0x20)\n      swap1\n      0x1f\n      add\n      0x20\n      swap1\n      div\n      dup2\n      add\n      swap3\n      dup3\n      tag_52\n      jumpi\n      0x00\n      dup6\n      sstore\n      jump(tag_51)\n    tag_52:\n      dup3\n      0x1f\n      lt\n      tag_53\n      jumpi\n      dup1\n      mload\n      not(0xff)\n      and\n      dup4\n      dup1\n      add\n      or\n      dup6\n      sstore\n      jump(tag_51)\n    tag_53:\n      dup3\n      dup1\n      add\n      0x01\n      add\n      dup6\n      sstore\n      dup3\n      iszero\n      tag_51\n      jumpi\n      swap2\n      dup3\n      add\n    tag_54:\n      dup3\n      dup2\n      gt\n      iszero\n      tag_55\n      jumpi\n      dup3\n      mload\n      dup3\n      sstore\n      swap2\n      0x20\n      add\n      swap2\n      swap1\n      0x01\n      add\n      swap1\n      jump(tag_54)\n    tag_55:\n    tag_51:\n      pop\n      swap1\n      pop\n      tag_56\n      swap2\n      swap1\n      tag_57\n      jump\t// in\n    tag_56:\n      pop\n      swap1\n      jump\t// out\n    tag_40:\n      mload(0x40)\n      dup1\n      0x40\n      add\n      0x40\n      mstore\n      dup1\n      0x00\n      dup2\n      mstore\n      0x20\n      add\n      0x60\n      dup2\n      mstore\n      pop\n      swap1\n      jump\t// out\n    tag_57:\n    tag_58:\n      dup1\n      dup3\n      gt\n      iszero\n      tag_59\n      jumpi\n      0x00\n      dup2\n      0x00\n      swap1\n      sstore\n      pop\n      0x01\n      add\n      jump(tag_58)\n    tag_59:\n      pop\n      swap1\n      jump\t// out\n        /* \"#utility.yul\":7:419   */\n    tag_61:\n        /* \"#utility.yul\":85:90   */\n      0x00\n        /* \"#utility.yul\":110:176   */\n      tag_63\n        /* \"#utility.yul\":126:175   */\n      tag_64\n        /* \"#utility.yul\":168:174   */\n      dup5\n        /* \"#utility.yul\":126:175   */\n      tag_65\n      jump\t// in\n    tag_64:\n        /* \"#utility.yul\":110:176   */\n      tag_66\n      jump\t// in\n    tag_63:\n        /* \"#utility.yul\":101:176   */\n      swap1\n      pop\n        /* \"#utility.yul\":199:205   */\n      dup3\n        /* \"#utility.yul\":192:197   */\n      dup2\n        /* \"#utility.yul\":185:206   */\n      mstore\n        /* \"#utility.yul\":237:241   */\n      0x20\n        /* \"#utility.yul\":230:235   */\n      dup2\n        /* \"#utility.yul\":226:242   */\n      add\n        /* \"#utility.yul\":275:278   */\n      dup5\n        /* \"#utility.yul\":266:272   */\n      dup5\n        /* \"#utility.yul\":261:264   */\n      dup5\n        /* \"#utility.yul\":257:273   */\n      add\n        /* \"#utility.yul\":254:279   */\n      gt\n        /* \"#utility.yul\":251:363   */\n      iszero\n      tag_67\n      jumpi\n        /* \"#utility.yul\":282:361   */\n      tag_68\n      tag_69\n      jump\t// in\n    tag_68:\n        /* \"#utility.yul\":251:363   */\n    tag_67:\n        /* \"#utility.yul\":372:413   */\n      tag_70\n        /* \"#utility.yul\":406:412   */\n      dup5\n        /* \"#utility.yul\":401:404   */\n      dup3\n        /* \"#utility.yul\":396:399   */\n      dup6\n        /* \"#utility.yul\":372:413   */\n      tag_71\n      jump\t// in\n    tag_70:\n        /* \"#utility.yul\":91:419   */\n      pop\n        /* \"#utility.yul\":7:419   */\n      swap4\n      swap3\n      pop\n      pop\n      pop\n      jump\t// out\n        /* \"#utility.yul\":439:779   */\n    tag_72:\n        /* \"#utility.yul\":495:500   */\n      0x00\n        /* \"#utility.yul\":544:547   */\n      dup3\n        /* \"#utility.yul\":537:541   */\n      0x1f\n        /* \"#utility.yul\":529:535   */\n      dup4\n        /* \"#utility.yul\":525:542   */\n      add\n        /* \"#utility.yul\":521:548   */\n      slt\n        /* \"#utility.yul\":511:633   */\n      tag_74\n      jumpi\n        /* \"#utility.yul\":552:631   */\n      tag_75\n      tag_76\n      jump\t// in\n    tag_75:\n        /* \"#utility.yul\":511:633   */\n    tag_74:\n        /* \"#utility.yul\":669:675   */\n      dup2\n        /* \"#utility.yul\":656:676   */\n      calldataload\n        /* \"#utility.yul\":694:773   */\n      tag_77\n        /* \"#utility.yul\":769:772   */\n      dup5\n        /* \"#utility.yul\":761:767   */\n      dup3\n        /* \"#utility.yul\":754:758   */\n      0x20\n        /* \"#utility.yul\":746:752   */\n      dup7\n        /* \"#utility.yul\":742:759   */\n      add\n        /* \"#utility.yul\":694:773   */\n      tag_61\n      jump\t// in\n    tag_77:\n        /* \"#utility.yul\":685:773   */\n      swap2\n      pop\n        /* \"#utility.yul\":501:779   */\n      pop\n        /* \"#utility.yul\":439:779   */\n      swap3\n      swap2\n      pop\n      pop\n      jump\t// out\n        /* \"#utility.yul\":785:924   */\n    tag_78:\n        /* \"#utility.yul\":831:836   */\n      0x00\n        /* \"#utility.yul\":869:875   */\n      dup2\n        /* \"#utility.yul\":856:876   */\n      calldataload\n        /* \"#utility.yul\":847:876   */\n      swap1\n      pop\n        /* \"#utility.yul\":885:918   */\n      tag_80\n        /* \"#utility.yul\":912:917   */\n      dup2\n        /* \"#utility.yul\":885:918   */\n      tag_81\n      jump\t// in\n    tag_80:\n        /* \"#utility.yul\":785:924   */\n      swap3\n      swap2\n      pop\n      pop\n      jump\t// out\n        /* \"#utility.yul\":930:1439   */\n    tag_9:\n        /* \"#utility.yul\":999:1005   */\n      0x00\n        /* \"#utility.yul\":1048:1050   */\n      0x20\n        /* \"#utility.yul\":1036:1045   */\n      dup3\n        /* \"#utility.yul\":1027:1034   */\n      dup5\n        /* \"#utility.yul\":1023:1046   */\n      sub\n        /* \"#utility.yul\":1019:1051   */\n      slt\n        /* \"#utility.yul\":1016:1135   */\n      iszero\n      tag_83\n      jumpi\n        /* \"#utility.yul\":1054:1133   */\n      tag_84\n      tag_85\n      jump\t// in\n    tag_84:\n        /* \"#utility.yul\":1016:1135   */\n    tag_83:\n        /* \"#utility.yul\":1202:1203   */\n      0x00\n        /* \"#utility.yul\":1191:1200   */\n      dup3\n        /* \"#utility.yul\":1187:1204   */\n      add\n        /* \"#utility.yul\":1174:1205   */\n      calldataload\n        /* \"#utility.yul\":1232:1250   */\n      0xffffffffffffffff\n        /* \"#utility.yul\":1224:1230   */\n      dup2\n        /* \"#utility.yul\":1221:1251   */\n      gt\n        /* \"#utility.yul\":1218:1335   */\n      iszero\n      tag_86\n      jumpi\n        /* \"#utility.yul\":1254:1333   */\n      tag_87\n      tag_88\n      jump\t// in\n    tag_87:\n        /* \"#utility.yul\":1218:1335   */\n    tag_86:\n        /* \"#utility.yul\":1359:1422   */\n      tag_89\n        /* \"#utility.yul\":1414:1421   */\n      dup5\n        /* \"#utility.yul\":1405:1411   */\n      dup3\n        /* \"#utility.yul\":1394:1403   */\n      dup6\n        /* \"#utility.yul\":1390:1412   */\n      add\n        /* \"#utility.yul\":1359:1422   */\n      tag_72\n      jump\t// in\n    tag_89:\n        /* \"#utility.yul\":1349:1422   */\n      swap2\n      pop\n        /* \"#utility.yul\":1145:1432   */\n      pop\n        /* \"#utility.yul\":930:1439   */\n      swap3\n      swap2\n      pop\n      pop\n      jump\t// out\n        /* \"#utility.yul\":1445:2099   */\n    tag_23:\n        /* \"#utility.yul\":1523:1529   */\n      0x00\n        /* \"#utility.yul\":1531:1537   */\n      dup1\n        /* \"#utility.yul\":1580:1582   */\n      0x40\n        /* \"#utility.yul\":1568:1577   */\n      dup4\n        /* \"#utility.yul\":1559:1566   */\n      dup6\n        /* \"#utility.yul\":1555:1578   */\n      sub\n        /* \"#utility.yul\":1551:1583   */\n      slt\n        /* \"#utility.yul\":1548:1667   */\n      iszero\n      tag_91\n      jumpi\n        /* \"#utility.yul\":1586:1665   */\n      tag_92\n      tag_85\n      jump\t// in\n    tag_92:\n        /* \"#utility.yul\":1548:1667   */\n    tag_91:\n        /* \"#utility.yul\":1734:1735   */\n      0x00\n        /* \"#utility.yul\":1723:1732   */\n      dup4\n        /* \"#utility.yul\":1719:1736   */\n      add\n        /* \"#utility.yul\":1706:1737   */\n      calldataload\n        /* \"#utility.yul\":1764:1782   */\n      0xffffffffffffffff\n        /* \"#utility.yul\":1756:1762   */\n      dup2\n        /* \"#utility.yul\":1753:1783   */\n      gt\n        /* \"#utility.yul\":1750:1867   */\n      iszero\n      tag_93\n      jumpi\n        /* \"#utility.yul\":1786:1865   */\n      tag_94\n      tag_88\n      jump\t// in\n    tag_94:\n        /* \"#utility.yul\":1750:1867   */\n    tag_93:\n        /* \"#utility.yul\":1891:1954   */\n      tag_95\n        /* \"#utility.yul\":1946:1953   */\n      dup6\n        /* \"#utility.yul\":1937:1943   */\n      dup3\n        /* \"#utility.yul\":1926:1935   */\n      dup7\n        /* \"#utility.yul\":1922:1944   */\n      add\n        /* \"#utility.yul\":1891:1954   */\n      tag_72\n      jump\t// in\n    tag_95:\n        /* \"#utility.yul\":1881:1954   */\n      swap3\n      pop\n        /* \"#utility.yul\":1677:1964   */\n      pop\n        /* \"#utility.yul\":2003:2005   */\n      0x20\n        /* \"#utility.yul\":2029:2082   */\n      tag_96\n        /* \"#utility.yul\":2074:2081   */\n      dup6\n        /* \"#utility.yul\":2065:2071   */\n      dup3\n        /* \"#utility.yul\":2054:2063   */\n      dup7\n        /* \"#utility.yul\":2050:2072   */\n      add\n        /* \"#utility.yul\":2029:2082   */\n      tag_78\n      jump\t// in\n    tag_96:\n        /* \"#utility.yul\":2019:2082   */\n      swap2\n      pop\n        /* \"#utility.yul\":1974:2092   */\n      pop\n        /* \"#utility.yul\":1445:2099   */\n      swap3\n      pop\n      swap3\n      swap1\n      pop\n      jump\t// out\n        /* \"#utility.yul\":2105:2434   */\n    tag_17:\n        /* \"#utility.yul\":2164:2170   */\n      0x00\n        /* \"#utility.yul\":2213:2215   */\n      0x20\n        /* \"#utility.yul\":2201:2210   */\n      dup3\n        /* \"#utility.yul\":2192:2199   */\n      dup5\n        /* \"#utility.yul\":2188:2211   */\n      sub\n        /* \"#utility.yul\":2184:2216   */\n      slt\n        /* \"#utility.yul\":2181:2300   */\n      iszero\n      tag_98\n      jumpi\n        /* \"#utility.yul\":2219:2298   */\n      tag_99\n      tag_85\n      jump\t// in\n    tag_99:\n        /* \"#utility.yul\":2181:2300   */\n    tag_98:\n        /* \"#utility.yul\":2339:2340   */\n      0x00\n        /* \"#utility.yul\":2364:2417   */\n      tag_100\n        /* \"#utility.yul\":2409:2416   */\n      dup5\n        /* \"#utility.yul\":2400:2406   */\n      dup3\n        /* \"#utility.yul\":2389:2398   */\n      dup6\n        /* \"#utility.yul\":2385:2407   */\n      add\n        /* \"#utility.yul\":2364:2417   */\n      tag_78\n      jump\t// in\n    tag_100:\n        /* \"#utility.yul\":2354:2417   */\n      swap2\n      pop\n        /* \"#utility.yul\":2310:2427   */\n      pop\n        /* \"#utility.yul\":2105:2434   */\n      swap3\n      swap2\n      pop\n      pop\n      jump\t// out\n        /* \"#utility.yul\":2440:2672   */\n    tag_101:\n        /* \"#utility.yul\":2547:2557   */\n      0x00\n        /* \"#utility.yul\":2582:2666   */\n      tag_103\n        /* \"#utility.yul\":2662:2665   */\n      dup4\n        /* \"#utility.yul\":2654:2660   */\n      dup4\n        /* \"#utility.yul\":2582:2666   */\n      tag_104\n      jump\t// in\n    tag_103:\n        /* \"#utility.yul\":2568:2666   */\n      swap1\n      pop\n        /* \"#utility.yul\":2440:2672   */\n      swap3\n      swap2\n      pop\n      pop\n      jump\t// out\n        /* \"#utility.yul\":2736:3799   */\n    tag_105:\n        /* \"#utility.yul\":2893:2896   */\n      0x00\n        /* \"#utility.yul\":2922:2995   */\n      tag_107\n        /* \"#utility.yul\":2989:2994   */\n      dup3\n        /* \"#utility.yul\":2922:2995   */\n      tag_108\n      jump\t// in\n    tag_107:\n        /* \"#utility.yul\":3011:3116   */\n      tag_109\n        /* \"#utility.yul\":3109:3115   */\n      dup2\n        /* \"#utility.yul\":3104:3107   */\n      dup6\n        /* \"#utility.yul\":3011:3116   */\n      tag_110\n      jump\t// in\n    tag_109:\n        /* \"#utility.yul\":3004:3116   */\n      swap4\n      pop\n        /* \"#utility.yul\":3142:3145   */\n      dup4\n        /* \"#utility.yul\":3187:3191   */\n      0x20\n        /* \"#utility.yul\":3179:3185   */\n      dup3\n        /* \"#utility.yul\":3175:3192   */\n      mul\n        /* \"#utility.yul\":3170:3173   */\n      dup6\n        /* \"#utility.yul\":3166:3193   */\n      add\n        /* \"#utility.yul\":3217:3292   */\n      tag_111\n        /* \"#utility.yul\":3286:3291   */\n      dup6\n        /* \"#utility.yul\":3217:3292   */\n      tag_112\n      jump\t// in\n    tag_111:\n        /* \"#utility.yul\":3315:3322   */\n      dup1\n        /* \"#utility.yul\":3346:3347   */\n      0x00\n        /* \"#utility.yul\":3331:3754   */\n    tag_113:\n        /* \"#utility.yul\":3356:3362   */\n      dup6\n        /* \"#utility.yul\":3353:3354   */\n      dup2\n        /* \"#utility.yul\":3350:3363   */\n      lt\n        /* \"#utility.yul\":3331:3754   */\n      iszero\n      tag_115\n      jumpi\n        /* \"#utility.yul\":3427:3436   */\n      dup5\n        /* \"#utility.yul\":3421:3425   */\n      dup5\n        /* \"#utility.yul\":3417:3437   */\n      sub\n        /* \"#utility.yul\":3412:3415   */\n      dup10\n        /* \"#utility.yul\":3405:3438   */\n      mstore\n        /* \"#utility.yul\":3478:3484   */\n      dup2\n        /* \"#utility.yul\":3472:3485   */\n      mload\n        /* \"#utility.yul\":3506:3608   */\n      tag_116\n        /* \"#utility.yul\":3603:3607   */\n      dup6\n        /* \"#utility.yul\":3588:3601   */\n      dup3\n        /* \"#utility.yul\":3506:3608   */\n      tag_101\n      jump\t// in\n    tag_116:\n        /* \"#utility.yul\":3498:3608   */\n      swap5\n      pop\n        /* \"#utility.yul\":3631:3710   */\n      tag_117\n        /* \"#utility.yul\":3703:3709   */\n      dup4\n        /* \"#utility.yul\":3631:3710   */\n      tag_118\n      jump\t// in\n    tag_117:\n        /* \"#utility.yul\":3621:3710   */\n      swap3\n      pop\n        /* \"#utility.yul\":3739:3743   */\n      0x20\n        /* \"#utility.yul\":3734:3737   */\n      dup11\n        /* \"#utility.yul\":3730:3744   */\n      add\n        /* \"#utility.yul\":3723:3744   */\n      swap10\n      pop\n        /* \"#utility.yul\":3391:3754   */\n      pop\n        /* \"#utility.yul\":3378:3379   */\n      0x01\n        /* \"#utility.yul\":3375:3376   */\n      dup2\n        /* \"#utility.yul\":3371:3380   */\n      add\n        /* \"#utility.yul\":3366:3380   */\n      swap1\n      pop\n        /* \"#utility.yul\":3331:3754   */\n      jump(tag_113)\n    tag_115:\n        /* \"#utility.yul\":3335:3349   */\n      pop\n        /* \"#utility.yul\":3770:3774   */\n      dup3\n        /* \"#utility.yul\":3763:3774   */\n      swap8\n      pop\n        /* \"#utility.yul\":3790:3793   */\n      dup8\n        /* \"#utility.yul\":3783:3793   */\n      swap6\n      pop\n        /* \"#utility.yul\":2898:3799   */\n      pop\n      pop\n      pop\n      pop\n      pop\n        /* \"#utility.yul\":2736:3799   */\n      swap3\n      swap2\n      pop\n      pop\n      jump\t// out\n        /* \"#utility.yul\":3805:4149   */\n    tag_119:\n        /* \"#utility.yul\":3883:3886   */\n      0x00\n        /* \"#utility.yul\":3911:3950   */\n      tag_121\n        /* \"#utility.yul\":3944:3949   */\n      dup3\n        /* \"#utility.yul\":3911:3950   */\n      tag_122\n      jump\t// in\n    tag_121:\n        /* \"#utility.yul\":3966:4027   */\n      tag_123\n        /* \"#utility.yul\":4020:4026   */\n      dup2\n        /* \"#utility.yul\":4015:4018   */\n      dup6\n        /* \"#utility.yul\":3966:4027   */\n      tag_124\n      jump\t// in\n    tag_123:\n        /* \"#utility.yul\":3959:4027   */\n      swap4\n      pop\n        /* \"#utility.yul\":4036:4088   */\n      tag_125\n        /* \"#utility.yul\":4081:4087   */\n      dup2\n        /* \"#utility.yul\":4076:4079   */\n      dup6\n        /* \"#utility.yul\":4069:4073   */\n      0x20\n        /* \"#utility.yul\":4062:4067   */\n      dup7\n        /* \"#utility.yul\":4058:4074   */\n      add\n        /* \"#utility.yul\":4036:4088   */\n      tag_126\n      jump\t// in\n    tag_125:\n        /* \"#utility.yul\":4113:4142   */\n      tag_127\n        /* \"#utility.yul\":4135:4141   */\n      dup2\n        /* \"#utility.yul\":4113:4142   */\n      tag_128\n      jump\t// in\n    tag_127:\n        /* \"#utility.yul\":4108:4111   */\n      dup5\n        /* \"#utility.yul\":4104:4143   */\n      add\n        /* \"#utility.yul\":4097:4143   */\n      swap2\n      pop\n        /* \"#utility.yul\":3887:4149   */\n      pop\n        /* \"#utility.yul\":3805:4149   */\n      swap3\n      swap2\n      pop\n      pop\n      jump\t// out\n        /* \"#utility.yul\":4155:4532   */\n    tag_129:\n        /* \"#utility.yul\":4261:4264   */\n      0x00\n        /* \"#utility.yul\":4289:4328   */\n      tag_131\n        /* \"#utility.yul\":4322:4327   */\n      dup3\n        /* \"#utility.yul\":4289:4328   */\n      tag_122\n      jump\t// in\n    tag_131:\n        /* \"#utility.yul\":4344:4433   */\n      tag_132\n        /* \"#utility.yul\":4426:4432   */\n      dup2\n        /* \"#utility.yul\":4421:4424   */\n      dup6\n        /* \"#utility.yul\":4344:4433   */\n      tag_133\n      jump\t// in\n    tag_132:\n        /* \"#utility.yul\":4337:4433   */\n      swap4\n      pop\n        /* \"#utility.yul\":4442:4494   */\n      tag_134\n        /* \"#utility.yul\":4487:4493   */\n      dup2\n        /* \"#utility.yul\":4482:4485   */\n      dup6\n        /* \"#utility.yul\":4475:4479   */\n      0x20\n        /* \"#utility.yul\":4468:4473   */\n      dup7\n        /* \"#utility.yul\":4464:4480   */\n      add\n        /* \"#utility.yul\":4442:4494   */\n      tag_126\n      jump\t// in\n    tag_134:\n        /* \"#utility.yul\":4519:4525   */\n      dup1\n        /* \"#utility.yul\":4514:4517   */\n      dup5\n        /* \"#utility.yul\":4510:4526   */\n      add\n        /* \"#utility.yul\":4503:4526   */\n      swap2\n      pop\n        /* \"#utility.yul\":4265:4532   */\n      pop\n        /* \"#utility.yul\":4155:4532   */\n      swap3\n      swap2\n      pop\n      pop\n      jump\t// out\n        /* \"#utility.yul\":4592:5182   */\n    tag_104:\n        /* \"#utility.yul\":4689:4692   */\n      0x00\n        /* \"#utility.yul\":4725:4729   */\n      0x40\n        /* \"#utility.yul\":4720:4723   */\n      dup4\n        /* \"#utility.yul\":4716:4730   */\n      add\n        /* \"#utility.yul\":4814:4818   */\n      0x00\n        /* \"#utility.yul\":4807:4812   */\n      dup4\n        /* \"#utility.yul\":4803:4819   */\n      add\n        /* \"#utility.yul\":4797:4820   */\n      mload\n        /* \"#utility.yul\":4833:4896   */\n      tag_136\n        /* \"#utility.yul\":4890:4894   */\n      0x00\n        /* \"#utility.yul\":4885:4888   */\n      dup7\n        /* \"#utility.yul\":4881:4895   */\n      add\n        /* \"#utility.yul\":4867:4879   */\n      dup3\n        /* \"#utility.yul\":4833:4896   */\n      tag_137\n      jump\t// in\n    tag_136:\n        /* \"#utility.yul\":4740:4906   */\n      pop\n        /* \"#utility.yul\":4992:4996   */\n      0x20\n        /* \"#utility.yul\":4985:4990   */\n      dup4\n        /* \"#utility.yul\":4981:4997   */\n      add\n        /* \"#utility.yul\":4975:4998   */\n      mload\n        /* \"#utility.yul\":5045:5048   */\n      dup5\n        /* \"#utility.yul\":5039:5043   */\n      dup3\n        /* \"#utility.yul\":5035:5049   */\n      sub\n        /* \"#utility.yul\":5028:5032   */\n      0x20\n        /* \"#utility.yul\":5023:5026   */\n      dup7\n        /* \"#utility.yul\":5019:5033   */\n      add\n        /* \"#utility.yul\":5012:5050   */\n      mstore\n        /* \"#utility.yul\":5071:5144   */\n      tag_138\n        /* \"#utility.yul\":5139:5143   */\n      dup3\n        /* \"#utility.yul\":5125:5137   */\n      dup3\n        /* \"#utility.yul\":5071:5144   */\n      tag_119\n      jump\t// in\n    tag_138:\n        /* \"#utility.yul\":5063:5144   */\n      swap2\n      pop\n        /* \"#utility.yul\":4916:5155   */\n      pop\n        /* \"#utility.yul\":5172:5176   */\n      dup1\n        /* \"#utility.yul\":5165:5176   */\n      swap2\n      pop\n        /* \"#utility.yul\":4694:5182   */\n      pop\n        /* \"#utility.yul\":4592:5182   */\n      swap3\n      swap2\n      pop\n      pop\n      jump\t// out\n        /* \"#utility.yul\":5242:5842   */\n    tag_139:\n        /* \"#utility.yul\":5349:5352   */\n      0x00\n        /* \"#utility.yul\":5385:5389   */\n      0x40\n        /* \"#utility.yul\":5380:5383   */\n      dup4\n        /* \"#utility.yul\":5376:5390   */\n      add\n        /* \"#utility.yul\":5474:5478   */\n      0x00\n        /* \"#utility.yul\":5467:5472   */\n      dup4\n        /* \"#utility.yul\":5463:5479   */\n      add\n        /* \"#utility.yul\":5457:5480   */\n      mload\n        /* \"#utility.yul\":5493:5556   */\n      tag_141\n        /* \"#utility.yul\":5550:5554   */\n      0x00\n        /* \"#utility.yul\":5545:5548   */\n      dup7\n        /* \"#utility.yul\":5541:5555   */\n      add\n        /* \"#utility.yul\":5527:5539   */\n      dup3\n        /* \"#utility.yul\":5493:5556   */\n      tag_137\n      jump\t// in\n    tag_141:\n        /* \"#utility.yul\":5400:5566   */\n      pop\n        /* \"#utility.yul\":5652:5656   */\n      0x20\n        /* \"#utility.yul\":5645:5650   */\n      dup4\n        /* \"#utility.yul\":5641:5657   */\n      add\n        /* \"#utility.yul\":5635:5658   */\n      mload\n        /* \"#utility.yul\":5705:5708   */\n      dup5\n        /* \"#utility.yul\":5699:5703   */\n      dup3\n        /* \"#utility.yul\":5695:5709   */\n      sub\n        /* \"#utility.yul\":5688:5692   */\n      0x20\n        /* \"#utility.yul\":5683:5686   */\n      dup7\n        /* \"#utility.yul\":5679:5693   */\n      add\n        /* \"#utility.yul\":5672:5710   */\n      mstore\n        /* \"#utility.yul\":5731:5804   */\n      tag_142\n        /* \"#utility.yul\":5799:5803   */\n      dup3\n        /* \"#utility.yul\":5785:5797   */\n      dup3\n        /* \"#utility.yul\":5731:5804   */\n      tag_119\n      jump\t// in\n    tag_142:\n        /* \"#utility.yul\":5723:5804   */\n      swap2\n      pop\n        /* \"#utility.yul\":5576:5815   */\n      pop\n        /* \"#utility.yul\":5832:5836   */\n      dup1\n        /* \"#utility.yul\":5825:5836   */\n      swap2\n      pop\n        /* \"#utility.yul\":5354:5842   */\n      pop\n        /* \"#utility.yul\":5242:5842   */\n      swap3\n      swap2\n      pop\n      pop\n      jump\t// out\n        /* \"#utility.yul\":5848:5956   */\n    tag_137:\n        /* \"#utility.yul\":5925:5949   */\n      tag_144\n        /* \"#utility.yul\":5943:5948   */\n      dup2\n        /* \"#utility.yul\":5925:5949   */\n      tag_145\n      jump\t// in\n    tag_144:\n        /* \"#utility.yul\":5920:5923   */\n      dup3\n        /* \"#utility.yul\":5913:5950   */\n      mstore\n        /* \"#utility.yul\":5848:5956   */\n      pop\n      pop\n      jump\t// out\n        /* \"#utility.yul\":5962:6237   */\n    tag_49:\n        /* \"#utility.yul\":6094:6097   */\n      0x00\n        /* \"#utility.yul\":6116:6211   */\n      tag_147\n        /* \"#utility.yul\":6207:6210   */\n      dup3\n        /* \"#utility.yul\":6198:6204   */\n      dup5\n        /* \"#utility.yul\":6116:6211   */\n      tag_129\n      jump\t// in\n    tag_147:\n        /* \"#utility.yul\":6109:6211   */\n      swap2\n      pop\n        /* \"#utility.yul\":6228:6231   */\n      dup2\n        /* \"#utility.yul\":6221:6231   */\n      swap1\n      pop\n        /* \"#utility.yul\":5962:6237   */\n      swap3\n      swap2\n      pop\n      pop\n      jump\t// out\n        /* \"#utility.yul\":6243:6692   */\n    tag_14:\n        /* \"#utility.yul\":6424:6428   */\n      0x00\n        /* \"#utility.yul\":6462:6464   */\n      0x20\n        /* \"#utility.yul\":6451:6460   */\n      dup3\n        /* \"#utility.yul\":6447:6465   */\n      add\n        /* \"#utility.yul\":6439:6465   */\n      swap1\n      pop\n        /* \"#utility.yul\":6511:6520   */\n      dup2\n        /* \"#utility.yul\":6505:6509   */\n      dup2\n        /* \"#utility.yul\":6501:6521   */\n      sub\n        /* \"#utility.yul\":6497:6498   */\n      0x00\n        /* \"#utility.yul\":6486:6495   */\n      dup4\n        /* \"#utility.yul\":6482:6499   */\n      add\n        /* \"#utility.yul\":6475:6522   */\n      mstore\n        /* \"#utility.yul\":6539:6685   */\n      tag_149\n        /* \"#utility.yul\":6680:6684   */\n      dup2\n        /* \"#utility.yul\":6671:6677   */\n      dup5\n        /* \"#utility.yul\":6539:6685   */\n      tag_105\n      jump\t// in\n    tag_149:\n        /* \"#utility.yul\":6531:6685   */\n      swap1\n      pop\n        /* \"#utility.yul\":6243:6692   */\n      swap3\n      swap2\n      pop\n      pop\n      jump\t// out\n        /* \"#utility.yul\":6698:7047   */\n    tag_20:\n        /* \"#utility.yul\":6829:6833   */\n      0x00\n        /* \"#utility.yul\":6867:6869   */\n      0x20\n        /* \"#utility.yul\":6856:6865   */\n      dup3\n        /* \"#utility.yul\":6852:6870   */\n      add\n        /* \"#utility.yul\":6844:6870   */\n      swap1\n      pop\n        /* \"#utility.yul\":6916:6925   */\n      dup2\n        /* \"#utility.yul\":6910:6914   */\n      dup2\n        /* \"#utility.yul\":6906:6926   */\n      sub\n        /* \"#utility.yul\":6902:6903   */\n      0x00\n        /* \"#utility.yul\":6891:6900   */\n      dup4\n        /* \"#utility.yul\":6887:6904   */\n      add\n        /* \"#utility.yul\":6880:6927   */\n      mstore\n        /* \"#utility.yul\":6944:7040   */\n      tag_151\n        /* \"#utility.yul\":7035:7039   */\n      dup2\n        /* \"#utility.yul\":7026:7032   */\n      dup5\n        /* \"#utility.yul\":6944:7040   */\n      tag_139\n      jump\t// in\n    tag_151:\n        /* \"#utility.yul\":6936:7040   */\n      swap1\n      pop\n        /* \"#utility.yul\":6698:7047   */\n      swap3\n      swap2\n      pop\n      pop\n      jump\t// out\n        /* \"#utility.yul\":7053:7182   */\n    tag_66:\n        /* \"#utility.yul\":7087:7093   */\n      0x00\n        /* \"#utility.yul\":7114:7134   */\n      tag_153\n      tag_154\n      jump\t// in\n    tag_153:\n        /* \"#utility.yul\":7104:7134   */\n      swap1\n      pop\n        /* \"#utility.yul\":7143:7176   */\n      tag_155\n        /* \"#utility.yul\":7171:7175   */\n      dup3\n        /* \"#utility.yul\":7163:7169   */\n      dup3\n        /* \"#utility.yul\":7143:7176   */\n      tag_156\n      jump\t// in\n    tag_155:\n        /* \"#utility.yul\":7053:7182   */\n      swap2\n      swap1\n      pop\n      jump\t// out\n        /* \"#utility.yul\":7188:7263   */\n    tag_154:\n        /* \"#utility.yul\":7221:7227   */\n      0x00\n        /* \"#utility.yul\":7254:7256   */\n      0x40\n        /* \"#utility.yul\":7248:7257   */\n      mload\n        /* \"#utility.yul\":7238:7257   */\n      swap1\n      pop\n        /* \"#utility.yul\":7188:7263   */\n      swap1\n      jump\t// out\n        /* \"#utility.yul\":7269:7577   */\n    tag_65:\n        /* \"#utility.yul\":7331:7335   */\n      0x00\n        /* \"#utility.yul\":7421:7439   */\n      0xffffffffffffffff\n        /* \"#utility.yul\":7413:7419   */\n      dup3\n        /* \"#utility.yul\":7410:7440   */\n      gt\n        /* \"#utility.yul\":7407:7463   */\n      iszero\n      tag_159\n      jumpi\n        /* \"#utility.yul\":7443:7461   */\n      tag_160\n      tag_161\n      jump\t// in\n    tag_160:\n        /* \"#utility.yul\":7407:7463   */\n    tag_159:\n        /* \"#utility.yul\":7481:7510   */\n      tag_162\n        /* \"#utility.yul\":7503:7509   */\n      dup3\n        /* \"#utility.yul\":7481:7510   */\n      tag_128\n      jump\t// in\n    tag_162:\n        /* \"#utility.yul\":7473:7510   */\n      swap1\n      pop\n        /* \"#utility.yul\":7565:7569   */\n      0x20\n        /* \"#utility.yul\":7559:7563   */\n      dup2\n        /* \"#utility.yul\":7555:7570   */\n      add\n        /* \"#utility.yul\":7547:7570   */\n      swap1\n      pop\n        /* \"#utility.yul\":7269:7577   */\n      swap2\n      swap1\n      pop\n      jump\t// out\n        /* \"#utility.yul\":7583:7734   */\n    tag_112:\n        /* \"#utility.yul\":7669:7673   */\n      0x00\n        /* \"#utility.yul\":7692:7695   */\n      dup2\n        /* \"#utility.yul\":7684:7695   */\n      swap1\n      pop\n        /* \"#utility.yul\":7722:7726   */\n      0x20\n        /* \"#utility.yul\":7717:7720   */\n      dup3\n        /* \"#utility.yul\":7713:7727   */\n      add\n        /* \"#utility.yul\":7705:7727   */\n      swap1\n      pop\n        /* \"#utility.yul\":7583:7734   */\n      swap2\n      swap1\n      pop\n      jump\t// out\n        /* \"#utility.yul\":7740:7873   */\n    tag_108:\n        /* \"#utility.yul\":7826:7832   */\n      0x00\n        /* \"#utility.yul\":7860:7865   */\n      dup2\n        /* \"#utility.yul\":7854:7866   */\n      mload\n        /* \"#utility.yul\":7844:7866   */\n      swap1\n      pop\n        /* \"#utility.yul\":7740:7873   */\n      swap2\n      swap1\n      pop\n      jump\t// out\n        /* \"#utility.yul\":7879:7978   */\n    tag_122:\n        /* \"#utility.yul\":7931:7937   */\n      0x00\n        /* \"#utility.yul\":7965:7970   */\n      dup2\n        /* \"#utility.yul\":7959:7971   */\n      mload\n        /* \"#utility.yul\":7949:7971   */\n      swap1\n      pop\n        /* \"#utility.yul\":7879:7978   */\n      swap2\n      swap1\n      pop\n      jump\t// out\n        /* \"#utility.yul\":7984:8116   */\n    tag_118:\n        /* \"#utility.yul\":8073:8077   */\n      0x00\n        /* \"#utility.yul\":8105:8109   */\n      0x20\n        /* \"#utility.yul\":8100:8103   */\n      dup3\n        /* \"#utility.yul\":8096:8110   */\n      add\n        /* \"#utility.yul\":8088:8110   */\n      swap1\n      pop\n        /* \"#utility.yul\":7984:8116   */\n      swap2\n      swap1\n      pop\n      jump\t// out\n        /* \"#utility.yul\":8122:8325   */\n    tag_110:\n        /* \"#utility.yul\":8240:8251   */\n      0x00\n        /* \"#utility.yul\":8274:8280   */\n      dup3\n        /* \"#utility.yul\":8269:8272   */\n      dup3\n        /* \"#utility.yul\":8262:8281   */\n      mstore\n        /* \"#utility.yul\":8314:8318   */\n      0x20\n        /* \"#utility.yul\":8309:8312   */\n      dup3\n        /* \"#utility.yul\":8305:8319   */\n      add\n        /* \"#utility.yul\":8290:8319   */\n      swap1\n      pop\n        /* \"#utility.yul\":8122:8325   */\n      swap3\n      swap2\n      pop\n      pop\n      jump\t// out\n        /* \"#utility.yul\":8331:8490   */\n    tag_124:\n        /* \"#utility.yul\":8405:8416   */\n      0x00\n        /* \"#utility.yul\":8439:8445   */\n      dup3\n        /* \"#utility.yul\":8434:8437   */\n      dup3\n        /* \"#utility.yul\":8427:8446   */\n      mstore\n        /* \"#utility.yul\":8479:8483   */\n      0x20\n        /* \"#utility.yul\":8474:8477   */\n      dup3\n        /* \"#utility.yul\":8470:8484   */\n      add\n        /* \"#utility.yul\":8455:8484   */\n      swap1\n      pop\n        /* \"#utility.yul\":8331:8490   */\n      swap3\n      swap2\n      pop\n      pop\n      jump\t// out\n        /* \"#utility.yul\":8496:8644   */\n    tag_133:\n        /* \"#utility.yul\":8598:8609   */\n      0x00\n        /* \"#utility.yul\":8635:8638   */\n      dup2\n        /* \"#utility.yul\":8620:8638   */\n      swap1\n      pop\n        /* \"#utility.yul\":8496:8644   */\n      swap3\n      swap2\n      pop\n      pop\n      jump\t// out\n        /* \"#utility.yul\":8650:8727   */\n    tag_145:\n        /* \"#utility.yul\":8687:8694   */\n      0x00\n        /* \"#utility.yul\":8716:8721   */\n      dup2\n        /* \"#utility.yul\":8705:8721   */\n      swap1\n      pop\n        /* \"#utility.yul\":8650:8727   */\n      swap2\n      swap1\n      pop\n      jump\t// out\n        /* \"#utility.yul\":8733:8887   */\n    tag_71:\n        /* \"#utility.yul\":8817:8823   */\n      dup3\n        /* \"#utility.yul\":8812:8815   */\n      dup2\n        /* \"#utility.yul\":8807:8810   */\n      dup4\n        /* \"#utility.yul\":8794:8824   */\n      calldatacopy\n        /* \"#utility.yul\":8879:8880   */\n      0x00\n        /* \"#utility.yul\":8870:8876   */\n      dup4\n        /* \"#utility.yul\":8865:8868   */\n      dup4\n        /* \"#utility.yul\":8861:8877   */\n      add\n        /* \"#utility.yul\":8854:8881   */\n      mstore\n        /* \"#utility.yul\":8733:8887   */\n      pop\n      pop\n      pop\n      jump\t// out\n        /* \"#utility.yul\":8893:9200   */\n    tag_126:\n        /* \"#utility.yul\":8961:8962   */\n      0x00\n        /* \"#utility.yul\":8971:9084   */\n    tag_173:\n        /* \"#utility.yul\":8985:8991   */\n      dup4\n        /* \"#utility.yul\":8982:8983   */\n      dup2\n        /* \"#utility.yul\":8979:8992   */\n      lt\n        /* \"#utility.yul\":8971:9084   */\n      iszero\n      tag_175\n      jumpi\n        /* \"#utility.yul\":9070:9071   */\n      dup1\n        /* \"#utility.yul\":9065:9068   */\n      dup3\n        /* \"#utility.yul\":9061:9072   */\n      add\n        /* \"#utility.yul\":9055:9073   */\n      mload\n        /* \"#utility.yul\":9051:9052   */\n      dup2\n        /* \"#utility.yul\":9046:9049   */\n      dup5\n        /* \"#utility.yul\":9042:9053   */\n      add\n        /* \"#utility.yul\":9035:9074   */\n      mstore\n        /* \"#utility.yul\":9007:9009   */\n      0x20\n        /* \"#utility.yul\":9004:9005   */\n      dup2\n        /* \"#utility.yul\":9000:9010   */\n      add\n        /* \"#utility.yul\":8995:9010   */\n      swap1\n      pop\n        /* \"#utility.yul\":8971:9084   */\n      jump(tag_173)\n    tag_175:\n        /* \"#utility.yul\":9102:9108   */\n      dup4\n        /* \"#utility.yul\":9099:9100   */\n      dup2\n        /* \"#utility.yul\":9096:9109   */\n      gt\n        /* \"#utility.yul\":9093:9194   */\n      iszero\n      tag_176\n      jumpi\n        /* \"#utility.yul\":9182:9183   */\n      0x00\n        /* \"#utility.yul\":9173:9179   */\n      dup5\n        /* \"#utility.yul\":9168:9171   */\n      dup5\n        /* \"#utility.yul\":9164:9180   */\n      add\n        /* \"#utility.yul\":9157:9184   */\n      mstore\n        /* \"#utility.yul\":9093:9194   */\n    tag_176:\n        /* \"#utility.yul\":8942:9200   */\n      pop\n        /* \"#utility.yul\":8893:9200   */\n      pop\n      pop\n      pop\n      jump\t// out\n        /* \"#utility.yul\":9206:9526   */\n    tag_34:\n        /* \"#utility.yul\":9250:9256   */\n      0x00\n        /* \"#utility.yul\":9287:9288   */\n      0x02\n        /* \"#utility.yul\":9281:9285   */\n      dup3\n        /* \"#utility.yul\":9277:9289   */\n      div\n        /* \"#utility.yul\":9267:9289   */\n      swap1\n      pop\n        /* \"#utility.yul\":9334:9335   */\n      0x01\n        /* \"#utility.yul\":9328:9332   */\n      dup3\n        /* \"#utility.yul\":9324:9336   */\n      and\n        /* \"#utility.yul\":9355:9373   */\n      dup1\n        /* \"#utility.yul\":9345:9426   */\n      tag_178\n      jumpi\n        /* \"#utility.yul\":9411:9415   */\n      0x7f\n        /* \"#utility.yul\":9403:9409   */\n      dup3\n        /* \"#utility.yul\":9399:9416   */\n      and\n        /* \"#utility.yul\":9389:9416   */\n      swap2\n      pop\n        /* \"#utility.yul\":9345:9426   */\n    tag_178:\n        /* \"#utility.yul\":9473:9475   */\n      0x20\n        /* \"#utility.yul\":9465:9471   */\n      dup3\n        /* \"#utility.yul\":9462:9476   */\n      lt\n        /* \"#utility.yul\":9442:9460   */\n      dup2\n        /* \"#utility.yul\":9439:9477   */\n      eq\n        /* \"#utility.yul\":9436:9520   */\n      iszero\n      tag_179\n      jumpi\n        /* \"#utility.yul\":9492:9510   */\n      tag_180\n      tag_181\n      jump\t// in\n    tag_180:\n        /* \"#utility.yul\":9436:9520   */\n    tag_179:\n        /* \"#utility.yul\":9257:9526   */\n      pop\n        /* \"#utility.yul\":9206:9526   */\n      swap2\n      swap1\n      pop\n      jump\t// out\n        /* \"#utility.yul\":9532:9813   */\n    tag_156:\n        /* \"#utility.yul\":9615:9642   */\n      tag_183\n        /* \"#utility.yul\":9637:9641   */\n      dup3\n        /* \"#utility.yul\":9615:9642   */\n      tag_128\n      jump\t// in\n    tag_183:\n        /* \"#utility.yul\":9607:9613   */\n      dup2\n        /* \"#utility.yul\":9603:9643   */\n      add\n        /* \"#utility.yul\":9745:9751   */\n      dup2\n        /* \"#utility.yul\":9733:9743   */\n      dup2\n        /* \"#utility.yul\":9730:9752   */\n      lt\n        /* \"#utility.yul\":9709:9727   */\n      0xffffffffffffffff\n        /* \"#utility.yul\":9697:9707   */\n      dup3\n        /* \"#utility.yul\":9694:9728   */\n      gt\n        /* \"#utility.yul\":9691:9753   */\n      or\n        /* \"#utility.yul\":9688:9776   */\n      iszero\n      tag_184\n      jumpi\n        /* \"#utility.yul\":9756:9774   */\n      tag_185\n      tag_161\n      jump\t// in\n    tag_185:\n        /* \"#utility.yul\":9688:9776   */\n    tag_184:\n        /* \"#utility.yul\":9796:9806   */\n      dup1\n        /* \"#utility.yul\":9792:9794   */\n      0x40\n        /* \"#utility.yul\":9785:9807   */\n      mstore\n        /* \"#utility.yul\":9575:9813   */\n      pop\n        /* \"#utility.yul\":9532:9813   */\n      pop\n      pop\n      jump\t// out\n        /* \"#utility.yul\":9819:9999   */\n    tag_181:\n        /* \"#utility.yul\":9867:9944   */\n      0x4e487b7100000000000000000000000000000000000000000000000000000000\n        /* \"#utility.yul\":9864:9865   */\n      0x00\n        /* \"#utility.yul\":9857:9945   */\n      mstore\n        /* \"#utility.yul\":9964:9968   */\n      0x22\n        /* \"#utility.yul\":9961:9962   */\n      0x04\n        /* \"#utility.yul\":9954:9969   */\n      mstore\n        /* \"#utility.yul\":9988:9992   */\n      0x24\n        /* \"#utility.yul\":9985:9986   */\n      0x00\n        /* \"#utility.yul\":9978:9993   */\n      revert\n        /* \"#utility.yul\":10005:10185   */\n    tag_161:\n        /* \"#utility.yul\":10053:10130   */\n      0x4e487b7100000000000000000000000000000000000000000000000000000000\n        /* \"#utility.yul\":10050:10051   */\n      0x00\n        /* \"#utility.yul\":10043:10131   */\n      mstore\n        /* \"#utility.yul\":10150:10154   */\n      0x41\n        /* \"#utility.yul\":10147:10148   */\n      0x04\n        /* \"#utility.yul\":10140:10155   */\n      mstore\n        /* \"#utility.yul\":10174:10178   */\n      0x24\n        /* \"#utility.yul\":10171:10172   */\n      0x00\n        /* \"#utility.yul\":10164:10179   */\n      revert\n        /* \"#utility.yul\":10191:10308   */\n    tag_76:\n        /* \"#utility.yul\":10300:10301   */\n      0x00\n        /* \"#utility.yul\":10297:10298   */\n      dup1\n        /* \"#utility.yul\":10290:10302   */\n      revert\n        /* \"#utility.yul\":10314:10431   */\n    tag_69:\n        /* \"#utility.yul\":10423:10424   */\n      0x00\n        /* \"#utility.yul\":10420:10421   */\n      dup1\n        /* \"#utility.yul\":10413:10425   */\n      revert\n        /* \"#utility.yul\":10437:10554   */\n    tag_88:\n        /* \"#utility.yul\":10546:10547   */\n      0x00\n        /* \"#utility.yul\":10543:10544   */\n      dup1\n        /* \"#utility.yul\":10536:10548   */\n      revert\n        /* \"#utility.yul\":10560:10677   */\n    tag_85:\n        /* \"#utility.yul\":10669:10670   */\n      0x00\n        /* \"#utility.yul\":10666:10667   */\n      dup1\n        /* \"#utility.yul\":10659:10671   */\n      revert\n        /* \"#utility.yul\":10683:10785   */\n    tag_128:\n        /* \"#utility.yul\":10724:10730   */\n      0x00\n        /* \"#utility.yul\":10775:10777   */\n      0x1f\n        /* \"#utility.yul\":10771:10778   */\n      not\n        /* \"#utility.yul\":10766:10768   */\n      0x1f\n        /* \"#utility.yul\":10759:10764   */\n      dup4\n        /* \"#utility.yul\":10755:10769   */\n      add\n        /* \"#utility.yul\":10751:10779   */\n      and\n        /* \"#utility.yul\":10741:10779   */\n      swap1\n      pop\n        /* \"#utility.yul\":10683:10785   */\n      swap2\n      swap1\n      pop\n      jump\t// out\n        /* \"#utility.yul\":10791:10913   */\n    tag_81:\n        /* \"#utility.yul\":10864:10888   */\n      tag_194\n        /* \"#utility.yul\":10882:10887   */\n      dup2\n        /* \"#utility.yul\":10864:10888   */\n      tag_145\n      jump\t// in\n    tag_194:\n        /* \"#utility.yul\":10857:10862   */\n      dup2\n        /* \"#utility.yul\":10854:10889   */\n      eq\n        /* \"#utility.yul\":10844:10907   */\n      tag_195\n      jumpi\n        /* \"#utility.yul\":10903:10904   */\n      0x00\n        /* \"#utility.yul\":10900:10901   */\n      dup1\n        /* \"#utility.yul\":10893:10905   */\n      revert\n        /* \"#utility.yul\":10844:10907   */\n    tag_195:\n        /* \"#utility.yul\":10791:10913   */\n      pop\n      jump\t// out\n\n    auxdata: 0xa264697066735822122097d627abbe007eb25b2573b2b0189c1b72bd6a236e45358ae6efc96a12087c5264736f6c63430008070033\n}\n",
				"bytecode": {
					"linkReferences": {},
					"object": "608060405234801561001057600080fd5b50610952806100206000396000f3fe608060405234801561001057600080fd5b506004361061004c5760003560e01c8063234c668614610051578063942b765a1461006d578063b868ef571461008b578063fb2996fd146100bb575b600080fd5b61006b60048036038101906100669190610474565b6100d7565b005b610075610144565b60405161008291906106d9565b60405180910390f35b6100a560048036038101906100a09190610519565b61023f565b6040516100b291906106fb565b60405180910390f35b6100d560048036038101906100d091906104bd565b610308565b005b600060405180604001604052806000815260200183815250908060018154018082558091505060019003906000526020600020906002020160009091909190915060008201518160000155602082015181600101908051906020019061013e929190610332565b50505050565b60606000805480602002602001604051908101604052809291908181526020016000905b828210156102365783829060005260206000209060020201604051806040016040529081600082015481526020016001820180546101a59061081f565b80601f01602080910402602001604051908101604052809291908181526020018280546101d19061081f565b801561021e5780601f106101f35761010080835404028352916020019161021e565b820191906000526020600020905b81548152906001019060200180831161020157829003601f168201915b50505050508152505081526020019060010190610168565b50505050905090565b6102476103b8565b600160008381526020019081526020016000206040518060400160405290816000820154815260200160018201805461027f9061081f565b80601f01602080910402602001604051908101604052809291908181526020018280546102ab9061081f565b80156102f85780601f106102cd576101008083540402835291602001916102f8565b820191906000526020600020905b8154815290600101906020018083116102db57829003601f168201915b5050505050815250509050919050565b8060028360405161031991906106c2565b9081526020016040518091039020600001819055505050565b82805461033e9061081f565b90600052602060002090601f01602090048101928261036057600085556103a7565b82601f1061037957805160ff19168380011785556103a7565b828001600101855582156103a7579182015b828111156103a657825182559160200191906001019061038b565b5b5090506103b491906103d2565b5090565b604051806040016040528060008152602001606081525090565b5b808211156103eb5760008160009055506001016103d3565b5090565b60006104026103fd84610742565b61071d565b90508281526020810184848401111561041e5761041d6108e5565b5b6104298482856107dd565b509392505050565b600082601f830112610446576104456108e0565b5b81356104568482602086016103ef565b91505092915050565b60008135905061046e81610905565b92915050565b60006020828403121561048a576104896108ef565b5b600082013567ffffffffffffffff8111156104a8576104a76108ea565b5b6104b484828501610431565b91505092915050565b600080604083850312156104d4576104d36108ef565b5b600083013567ffffffffffffffff8111156104f2576104f16108ea565b5b6104fe85828601610431565b925050602061050f8582860161045f565b9150509250929050565b60006020828403121561052f5761052e6108ef565b5b600061053d8482850161045f565b91505092915050565b60006105528383610639565b905092915050565b600061056582610783565b61056f81856107a6565b93508360208202850161058185610773565b8060005b858110156105bd578484038952815161059e8582610546565b94506105a983610799565b925060208a01995050600181019050610585565b50829750879550505050505092915050565b60006105da8261078e565b6105e481856107b7565b93506105f48185602086016107ec565b6105fd816108f4565b840191505092915050565b60006106138261078e565b61061d81856107c8565b935061062d8185602086016107ec565b80840191505092915050565b600060408301600083015161065160008601826106b3565b506020830151848203602086015261066982826105cf565b9150508091505092915050565b600060408301600083015161068e60008601826106b3565b50602083015184820360208601526106a682826105cf565b9150508091505092915050565b6106bc816107d3565b82525050565b60006106ce8284610608565b915081905092915050565b600060208201905081810360008301526106f3818461055a565b905092915050565b600060208201905081810360008301526107158184610676565b905092915050565b6000610727610738565b90506107338282610851565b919050565b6000604051905090565b600067ffffffffffffffff82111561075d5761075c6108b1565b5b610766826108f4565b9050602081019050919050565b6000819050602082019050919050565b600081519050919050565b600081519050919050565b6000602082019050919050565b600082825260208201905092915050565b600082825260208201905092915050565b600081905092915050565b6000819050919050565b82818337600083830152505050565b60005b8381101561080a5780820151818401526020810190506107ef565b83811115610819576000848401525b50505050565b6000600282049050600182168061083757607f821691505b6020821081141561084b5761084a610882565b5b50919050565b61085a826108f4565b810181811067ffffffffffffffff82111715610879576108786108b1565b5b80604052505050565b7f4e487b7100000000000000000000000000000000000000000000000000000000600052602260045260246000fd5b7f4e487b7100000000000000000000000000000000000000000000000000000000600052604160045260246000fd5b600080fd5b600080fd5b600080fd5b600080fd5b6000601f19601f8301169050919050565b61090e816107d3565b811461091957600080fd5b5056fea264697066735822122097d627abbe007eb25b2573b2b0189c1b72bd6a236e45358ae6efc96a12087c5264736f6c63430008070033",
					"opcodes": "PUSH1 0x80 PUSH1 0x40 MSTORE CALLVALUE DUP1 ISZERO PUSH2 0x10 JUMPI PUSH1 0x0 DUP1 REVERT JUMPDEST POP PUSH2 0x952 DUP1 PUSH2 0x20 PUSH1 0x0 CODECOPY PUSH1 0x0 RETURN INVALID PUSH1 0x80 PUSH1 0x40 MSTORE CALLVALUE DUP1 ISZERO PUSH2 0x10 JUMPI PUSH1 0x0 DUP1 REVERT JUMPDEST POP PUSH1 0x4 CALLDATASIZE LT PUSH2 0x4C JUMPI PUSH1 0x0 CALLDATALOAD PUSH1 0xE0 SHR DUP1 PUSH4 0x234C6686 EQ PUSH2 0x51 JUMPI DUP1 PUSH4 0x942B765A EQ PUSH2 0x6D JUMPI DUP1 PUSH4 0xB868EF57 EQ PUSH2 0x8B JUMPI DUP1 PUSH4 0xFB2996FD EQ PUSH2 0xBB JUMPI JUMPDEST PUSH1 0x0 DUP1 REVERT JUMPDEST PUSH2 0x6B PUSH1 0x4 DUP1 CALLDATASIZE SUB DUP2 ADD SWAP1 PUSH2 0x66 SWAP2 SWAP1 PUSH2 0x474 JUMP JUMPDEST PUSH2 0xD7 JUMP JUMPDEST STOP JUMPDEST PUSH2 0x75 PUSH2 0x144 JUMP JUMPDEST PUSH1 0x40 MLOAD PUSH2 0x82 SWAP2 SWAP1 PUSH2 0x6D9 JUMP JUMPDEST PUSH1 0x40 MLOAD DUP1 SWAP2 SUB SWAP1 RETURN JUMPDEST PUSH2 0xA5 PUSH1 0x4 DUP1 CALLDATASIZE SUB DUP2 ADD SWAP1 PUSH2 0xA0 SWAP2 SWAP1 PUSH2 0x519 JUMP JUMPDEST PUSH2 0x23F JUMP JUMPDEST PUSH1 0x40 MLOAD PUSH2 0xB2 SWAP2 SWAP1 PUSH2 0x6FB JUMP JUMPDEST PUSH1 0x40 MLOAD DUP1 SWAP2 SUB SWAP1 RETURN JUMPDEST PUSH2 0xD5 PUSH1 0x4 DUP1 CALLDATASIZE SUB DUP2 ADD SWAP1 PUSH2 0xD0 SWAP2 SWAP1 PUSH2 0x4BD JUMP JUMPDEST PUSH2 0x308 JUMP JUMPDEST STOP JUMPDEST PUSH1 0x0 PUSH1 0x40 MLOAD DUP1 PUSH1 0x40 ADD PUSH1 0x40 MSTORE DUP1 PUSH1 0x0 DUP2 MSTORE PUSH1 0x20 ADD DUP4 DUP2 MSTORE POP SWAP1 DUP1 PUSH1 0x1 DUP2 SLOAD ADD DUP1 DUP3 SSTORE DUP1 SWAP2 POP POP PUSH1 0x1 SWAP1 SUB SWAP1 PUSH1 0x0 MSTORE PUSH1 0x20 PUSH1 0x0 KECCAK256 SWAP1 PUSH1 0x2 MUL ADD PUSH1 0x0 SWAP1 SWAP2 SWAP1 SWAP2 SWAP1 SWAP2 POP PUSH1 0x0 DUP3 ADD MLOAD DUP2 PUSH1 0x0 ADD SSTORE PUSH1 0x20 DUP3 ADD MLOAD DUP2 PUSH1 0x1 ADD SWAP1 DUP1 MLOAD SWAP1 PUSH1 0x20 ADD SWAP1 PUSH2 0x13E SWAP3 SWAP2 SWAP1 PUSH2 0x332 JUMP JUMPDEST POP POP POP POP JUMP JUMPDEST PUSH1 0x60 PUSH1 0x0 DUP1 SLOAD DUP1 PUSH1 0x20 MUL PUSH1 0x20 ADD PUSH1 0x40 MLOAD SWAP1 DUP2 ADD PUSH1 0x40 MSTORE DUP1 SWAP3 SWAP2 SWAP1 DUP2 DUP2 MSTORE PUSH1 0x20 ADD PUSH1 0x0 SWAP1 JUMPDEST DUP3 DUP3 LT ISZERO PUSH2 0x236 JUMPI DUP4 DUP3 SWAP1 PUSH1 0x0 MSTORE PUSH1 0x20 PUSH1 0x0 KECCAK256 SWAP1 PUSH1 0x2 MUL ADD PUSH1 0x40 MLOAD DUP1 PUSH1 0x40 ADD PUSH1 0x40 MSTORE SWAP1 DUP2 PUSH1 0x0 DUP3 ADD SLOAD DUP2 MSTORE PUSH1 0x20 ADD PUSH1 0x1 DUP3 ADD DUP1 SLOAD PUSH2 0x1A5 SWAP1 PUSH2 0x81F JUMP JUMPDEST DUP1 PUSH1 0x1F ADD PUSH1 0x20 DUP1 SWAP2 DIV MUL PUSH1 0x20 ADD PUSH1 0x40 MLOAD SWAP1 DUP2 ADD PUSH1 0x40 MSTORE DUP1 SWAP3 SWAP2 SWAP1 DUP2 DUP2 MSTORE PUSH1 0x20 ADD DUP3 DUP1 SLOAD PUSH2 0x1D1 SWAP1 PUSH2 0x81F JUMP JUMPDEST DUP1 ISZERO PUSH2 0x21E JUMPI DUP1 PUSH1 0x1F LT PUSH2 0x1F3 JUMPI PUSH2 0x100 DUP1 DUP4 SLOAD DIV MUL DUP4 MSTORE SWAP2 PUSH1 0x20 ADD SWAP2 PUSH2 0x21E JUMP JUMPDEST DUP3 ADD SWAP2 SWAP1 PUSH1 0x0 MSTORE PUSH1 0x20 PUSH1 0x0 KECCAK256 SWAP1 JUMPDEST DUP2 SLOAD DUP2 MSTORE SWAP1 PUSH1 0x1 ADD SWAP1 PUSH1 0x20 ADD DUP1 DUP4 GT PUSH2 0x201 JUMPI DUP3 SWAP1 SUB PUSH1 0x1F AND DUP3 ADD SWAP2 JUMPDEST POP POP POP POP POP DUP2 MSTORE POP POP DUP2 MSTORE PUSH1 0x20 ADD SWAP1 PUSH1 0x1 ADD SWAP1 PUSH2 0x168 JUMP JUMPDEST POP POP POP POP SWAP1 POP SWAP1 JUMP JUMPDEST PUSH2 0x247 PUSH2 0x3B8 JUMP JUMPDEST PUSH1 0x1 PUSH1 0x0 DUP4 DUP2 MSTORE PUSH1 0x20 ADD SWAP1 DUP2 MSTORE PUSH1 0x20 ADD PUSH1 0x0 KECCAK256 PUSH1 0x40 MLOAD DUP1 PUSH1 0x40 ADD PUSH1 0x40 MSTORE SWAP1 DUP2 PUSH1 0x0 DUP3 ADD SLOAD DUP2 MSTORE PUSH1 0x20 ADD PUSH1 0x1 DUP3 ADD DUP1 SLOAD PUSH2 0x27F SWAP1 PUSH2 0x81F JUMP JUMPDEST DUP1 PUSH1 0x1F ADD PUSH1 0x20 DUP1 SWAP2 DIV MUL PUSH1 0x20 ADD PUSH1 0x40 MLOAD SWAP1 DUP2 ADD PUSH1 0x40 MSTORE DUP1 SWAP3 SWAP2 SWAP1 DUP2 DUP2 MSTORE PUSH1 0x20 ADD DUP3 DUP1 SLOAD PUSH2 0x2AB SWAP1 PUSH2 0x81F JUMP JUMPDEST DUP1 ISZERO PUSH2 0x2F8 JUMPI DUP1 PUSH1 0x1F LT PUSH2 0x2CD JUMPI PUSH2 0x100 DUP1 DUP4 SLOAD DIV MUL DUP4 MSTORE SWAP2 PUSH1 0x20 ADD SWAP2 PUSH2 0x2F8 JUMP JUMPDEST DUP3 ADD SWAP2 SWAP1 PUSH1 0x0 MSTORE PUSH1 0x20 PUSH1 0x0 KECCAK256 SWAP1 JUMPDEST DUP2 SLOAD DUP2 MSTORE SWAP1 PUSH1 0x1 ADD SWAP1 PUSH1 0x20 ADD DUP1 DUP4 GT PUSH2 0x2DB JUMPI DUP3 SWAP1 SUB PUSH1 0x1F AND DUP3 ADD SWAP2 JUMPDEST POP POP POP POP POP DUP2 MSTORE POP POP SWAP1 POP SWAP2 SWAP1 POP JUMP JUMPDEST DUP1 PUSH1 0x2 DUP4 PUSH1 0x40 MLOAD PUSH2 0x319 SWAP2 SWAP1 PUSH2 0x6C2 JUMP JUMPDEST SWAP1 DUP2 MSTORE PUSH1 0x20 ADD PUSH1 0x40 MLOAD DUP1 SWAP2 SUB SWAP1 KECCAK256 PUSH1 0x0 ADD DUP2 SWAP1 SSTORE POP POP POP JUMP JUMPDEST DUP3 DUP1 SLOAD PUSH2 0x33E SWAP1 PUSH2 0x81F JUMP JUMPDEST SWAP1 PUSH1 0x0 MSTORE PUSH1 0x20 PUSH1 0x0 KECCAK256 SWAP1 PUSH1 0x1F ADD PUSH1 0x20 SWAP1 DIV DUP2 ADD SWAP3 DUP3 PUSH2 0x360 JUMPI PUSH1 0x0 DUP6 SSTORE PUSH2 0x3A7 JUMP JUMPDEST DUP3 PUSH1 0x1F LT PUSH2 0x379 JUMPI DUP1 MLOAD PUSH1 0xFF NOT AND DUP4 DUP1 ADD OR DUP6 SSTORE PUSH2 0x3A7 JUMP JUMPDEST DUP3 DUP1 ADD PUSH1 0x1 ADD DUP6 SSTORE DUP3 ISZERO PUSH2 0x3A7 JUMPI SWAP2 DUP3 ADD JUMPDEST DUP3 DUP2 GT ISZERO PUSH2 0x3A6 JUMPI DUP3 MLOAD DUP3 SSTORE SWAP2 PUSH1 0x20 ADD SWAP2 SWAP1 PUSH1 0x1 ADD SWAP1 PUSH2 0x38B JUMP JUMPDEST JUMPDEST POP SWAP1 POP PUSH2 0x3B4 SWAP2 SWAP1 PUSH2 0x3D2 JUMP JUMPDEST POP SWAP1 JUMP JUMPDEST PUSH1 0x40 MLOAD DUP1 PUSH1 0x40 ADD PUSH1 0x40 MSTORE DUP1 PUSH1 0x0 DUP2 MSTORE PUSH1 0x20 ADD PUSH1 0x60 DUP2 MSTORE POP SWAP1 JUMP JUMPDEST JUMPDEST DUP1 DUP3 GT ISZERO PUSH2 0x3EB JUMPI PUSH1 0x0 DUP2 PUSH1 0x0 SWAP1 SSTORE POP PUSH1 0x1 ADD PUSH2 0x3D3 JUMP JUMPDEST POP SWAP1 JUMP JUMPDEST PUSH1 0x0 PUSH2 0x402 PUSH2 0x3FD DUP5 PUSH2 0x742 JUMP JUMPDEST PUSH2 0x71D JUMP JUMPDEST SWAP1 POP DUP3 DUP2 MSTORE PUSH1 0x20 DUP2 ADD DUP5 DUP5 DUP5 ADD GT ISZERO PUSH2 0x41E JUMPI PUSH2 0x41D PUSH2 0x8E5 JUMP JUMPDEST JUMPDEST PUSH2 0x429 DUP5 DUP3 DUP6 PUSH2 0x7DD JUMP JUMPDEST POP SWAP4 SWAP3 POP POP POP JUMP JUMPDEST PUSH1 0x0 DUP3 PUSH1 0x1F DUP4 ADD SLT PUSH2 0x446 JUMPI PUSH2 0x445 PUSH2 0x8E0 JUMP JUMPDEST JUMPDEST DUP2 CALLDATALOAD PUSH2 0x456 DUP5 DUP3 PUSH1 0x20 DUP7 ADD PUSH2 0x3EF JUMP JUMPDEST SWAP2 POP POP SWAP3 SWAP2 POP POP JUMP JUMPDEST PUSH1 0x0 DUP2 CALLDATALOAD SWAP1 POP PUSH2 0x46E DUP2 PUSH2 0x905 JUMP JUMPDEST SWAP3 SWAP2 POP POP JUMP JUMPDEST PUSH1 0x0 PUSH1 0x20 DUP3 DUP5 SUB SLT ISZERO PUSH2 0x48A JUMPI PUSH2 0x489 PUSH2 0x8EF JUMP JUMPDEST JUMPDEST PUSH1 0x0 DUP3 ADD CALLDATALOAD PUSH8 0xFFFFFFFFFFFFFFFF DUP2 GT ISZERO PUSH2 0x4A8 JUMPI PUSH2 0x4A7 PUSH2 0x8EA JUMP JUMPDEST JUMPDEST PUSH2 0x4B4 DUP5 DUP3 DUP6 ADD PUSH2 0x431 JUMP JUMPDEST SWAP2 POP POP SWAP3 SWAP2 POP POP JUMP JUMPDEST PUSH1 0x0 DUP1 PUSH1 0x40 DUP4 DUP6 SUB SLT ISZERO PUSH2 0x4D4 JUMPI PUSH2 0x4D3 PUSH2 0x8EF JUMP JUMPDEST JUMPDEST PUSH1 0x0 DUP4 ADD CALLDATALOAD PUSH8 0xFFFFFFFFFFFFFFFF DUP2 GT ISZERO PUSH2 0x4F2 JUMPI PUSH2 0x4F1 PUSH2 0x8EA JUMP JUMPDEST JUMPDEST PUSH2 0x4FE DUP6 DUP3 DUP7 ADD PUSH2 0x431 JUMP JUMPDEST SWAP3 POP POP PUSH1 0x20 PUSH2 0x50F DUP6 DUP3 DUP7 ADD PUSH2 0x45F JUMP JUMPDEST SWAP2 POP POP SWAP3 POP SWAP3 SWAP1 POP JUMP JUMPDEST PUSH1 0x0 PUSH1 0x20 DUP3 DUP5 SUB SLT ISZERO PUSH2 0x52F JUMPI PUSH2 0x52E PUSH2 0x8EF JUMP JUMPDEST JUMPDEST PUSH1 0x0 PUSH2 0x53D DUP5 DUP3 DUP6 ADD PUSH2 0x45F JUMP JUMPDEST SWAP2 POP POP SWAP3 SWAP2 POP POP JUMP JUMPDEST PUSH1 0x0 PUSH2 0x552 DUP4 DUP4 PUSH2 0x639 JUMP JUMPDEST SWAP1 POP SWAP3 SWAP2 POP POP JUMP JUMPDEST PUSH1 0x0 PUSH2 0x565 DUP3 PUSH2 0x783 JUMP JUMPDEST PUSH2 0x56F DUP2 DUP6 PUSH2 0x7A6 JUMP JUMPDEST SWAP4 POP DUP4 PUSH1 0x20 DUP3 MUL DUP6 ADD PUSH2 0x581 DUP6 PUSH2 0x773 JUMP JUMPDEST DUP1 PUSH1 0x0 JUMPDEST DUP6 DUP2 LT ISZERO PUSH2 0x5BD JUMPI DUP5 DUP5 SUB DUP10 MSTORE DUP2 MLOAD PUSH2 0x59E DUP6 DUP3 PUSH2 0x546 JUMP JUMPDEST SWAP5 POP PUSH2 0x5A9 DUP4 PUSH2 0x799 JUMP JUMPDEST SWAP3 POP PUSH1 0x20 DUP11 ADD SWAP10 POP POP PUSH1 0x1 DUP2 ADD SWAP1 POP PUSH2 0x585 JUMP JUMPDEST POP DUP3 SWAP8 POP DUP8 SWAP6 POP POP POP POP POP POP SWAP3 SWAP2 POP POP JUMP JUMPDEST PUSH1 0x0 PUSH2 0x5DA DUP3 PUSH2 0x78E JUMP JUMPDEST PUSH2 0x5E4 DUP2 DUP6 PUSH2 0x7B7 JUMP JUMPDEST SWAP4 POP PUSH2 0x5F4 DUP2 DUP6 PUSH1 0x20 DUP7 ADD PUSH2 0x7EC JUMP JUMPDEST PUSH2 0x5FD DUP2 PUSH2 0x8F4 JUMP JUMPDEST DUP5 ADD SWAP2 POP POP SWAP3 SWAP2 POP POP JUMP JUMPDEST PUSH1 0x0 PUSH2 0x613 DUP3 PUSH2 0x78E JUMP JUMPDEST PUSH2 0x61D DUP2 DUP6 PUSH2 0x7C8 JUMP JUMPDEST SWAP4 POP PUSH2 0x62D DUP2 DUP6 PUSH1 0x20 DUP7 ADD PUSH2 0x7EC JUMP JUMPDEST DUP1 DUP5 ADD SWAP2 POP POP SWAP3 SWAP2 POP POP JUMP JUMPDEST PUSH1 0x0 PUSH1 0x40 DUP4 ADD PUSH1 0x0 DUP4 ADD MLOAD PUSH2 0x651 PUSH1 0x0 DUP7 ADD DUP3 PUSH2 0x6B3 JUMP JUMPDEST POP PUSH1 0x20 DUP4 ADD MLOAD DUP5 DUP3 SUB PUSH1 0x20 DUP7 ADD MSTORE PUSH2 0x669 DUP3 DUP3 PUSH2 0x5CF JUMP JUMPDEST SWAP2 POP POP DUP1 SWAP2 POP POP SWAP3 SWAP2 POP POP JUMP JUMPDEST PUSH1 0x0 PUSH1 0x40 DUP4 ADD PUSH1 0x0 DUP4 ADD MLOAD PUSH2 0x68E PUSH1 0x0 DUP7 ADD DUP3 PUSH2 0x6B3 JUMP JUMPDEST POP PUSH1 0x20 DUP4 ADD MLOAD DUP5 DUP3 SUB PUSH1 0x20 DUP7 ADD MSTORE PUSH2 0x6A6 DUP3 DUP3 PUSH2 0x5CF JUMP JUMPDEST SWAP2 POP POP DUP1 SWAP2 POP POP SWAP3 SWAP2 POP POP JUMP JUMPDEST PUSH2 0x6BC DUP2 PUSH2 0x7D3 JUMP JUMPDEST DUP3 MSTORE POP POP JUMP JUMPDEST PUSH1 0x0 PUSH2 0x6CE DUP3 DUP5 PUSH2 0x608 JUMP JUMPDEST SWAP2 POP DUP2 SWAP1 POP SWAP3 SWAP2 POP POP JUMP JUMPDEST PUSH1 0x0 PUSH1 0x20 DUP3 ADD SWAP1 POP DUP2 DUP2 SUB PUSH1 0x0 DUP4 ADD MSTORE PUSH2 0x6F3 DUP2 DUP5 PUSH2 0x55A JUMP JUMPDEST SWAP1 POP SWAP3 SWAP2 POP POP JUMP JUMPDEST PUSH1 0x0 PUSH1 0x20 DUP3 ADD SWAP1 POP DUP2 DUP2 SUB PUSH1 0x0 DUP4 ADD MSTORE PUSH2 0x715 DUP2 DUP5 PUSH2 0x676 JUMP JUMPDEST SWAP1 POP SWAP3 SWAP2 POP POP JUMP JUMPDEST PUSH1 0x0 PUSH2 0x727 PUSH2 0x738 JUMP JUMPDEST SWAP1 POP PUSH2 0x733 DUP3 DUP3 PUSH2 0x851 JUMP JUMPDEST SWAP2 SWAP1 POP JUMP JUMPDEST PUSH1 0x0 PUSH1 0x40 MLOAD SWAP1 POP SWAP1 JUMP JUMPDEST PUSH1 0x0 PUSH8 0xFFFFFFFFFFFFFFFF DUP3 GT ISZERO PUSH2 0x75D JUMPI PUSH2 0x75C PUSH2 0x8B1 JUMP JUMPDEST JUMPDEST PUSH2 0x766 DUP3 PUSH2 0x8F4 JUMP JUMPDEST SWAP1 POP PUSH1 0x20 DUP2 ADD SWAP1 POP SWAP2 SWAP1 POP JUMP JUMPDEST PUSH1 0x0 DUP2 SWAP1 POP PUSH1 0x20 DUP3 ADD SWAP1 POP SWAP2 SWAP1 POP JUMP JUMPDEST PUSH1 0x0 DUP2 MLOAD SWAP1 POP SWAP2 SWAP1 POP JUMP JUMPDEST PUSH1 0x0 DUP2 MLOAD SWAP1 POP SWAP2 SWAP1 POP JUMP JUMPDEST PUSH1 0x0 PUSH1 0x20 DUP3 ADD SWAP1 POP SWAP2 SWAP1 POP JUMP JUMPDEST PUSH1 0x0 DUP3 DUP3 MSTORE PUSH1 0x20 DUP3 ADD SWAP1 POP SWAP3 SWAP2 POP POP JUMP JUMPDEST PUSH1 0x0 DUP3 DUP3 MSTORE PUSH1 0x20 DUP3 ADD SWAP1 POP SWAP3 SWAP2 POP POP JUMP JUMPDEST PUSH1 0x0 DUP2 SWAP1 POP SWAP3 SWAP2 POP POP JUMP JUMPDEST PUSH1 0x0 DUP2 SWAP1 POP SWAP2 SWAP1 POP JUMP JUMPDEST DUP3 DUP2 DUP4 CALLDATACOPY PUSH1 0x0 DUP4 DUP4 ADD MSTORE POP POP POP JUMP JUMPDEST PUSH1 0x0 JUMPDEST DUP4 DUP2 LT ISZERO PUSH2 0x80A JUMPI DUP1 DUP3 ADD MLOAD DUP2 DUP5 ADD MSTORE PUSH1 0x20 DUP2 ADD SWAP1 POP PUSH2 0x7EF JUMP JUMPDEST DUP4 DUP2 GT ISZERO PUSH2 0x819 JUMPI PUSH1 0x0 DUP5 DUP5 ADD MSTORE JUMPDEST POP POP POP POP JUMP JUMPDEST PUSH1 0x0 PUSH1 0x2 DUP3 DIV SWAP1 POP PUSH1 0x1 DUP3 AND DUP1 PUSH2 0x837 JUMPI PUSH1 0x7F DUP3 AND SWAP2 POP JUMPDEST PUSH1 0x20 DUP3 LT DUP2 EQ ISZERO PUSH2 0x84B JUMPI PUSH2 0x84A PUSH2 0x882 JUMP JUMPDEST JUMPDEST POP SWAP2 SWAP1 POP JUMP JUMPDEST PUSH2 0x85A DUP3 PUSH2 0x8F4 JUMP JUMPDEST DUP2 ADD DUP2 DUP2 LT PUSH8 0xFFFFFFFFFFFFFFFF DUP3 GT OR ISZERO PUSH2 0x879 JUMPI PUSH2 0x878 PUSH2 0x8B1 JUMP JUMPDEST JUMPDEST DUP1 PUSH1 0x40 MSTORE POP POP POP JUMP JUMPDEST PUSH32 0x4E487B7100000000000000000000000000000000000000000000000000000000 PUSH1 0x0 MSTORE PUSH1 0x22 PUSH1 0x4 MSTORE PUSH1 0x24 PUSH1 0x0 REVERT JUMPDEST PUSH32 0x4E487B7100000000000000000000000000000000000000000000000000000000 PUSH1 0x0 MSTORE PUSH1 0x41 PUSH1 0x4 MSTORE PUSH1 0x24 PUSH1 0x0 REVERT JUMPDEST PUSH1 0x0 DUP1 REVERT JUMPDEST PUSH1 0x0 DUP1 REVERT JUMPDEST PUSH1 0x0 DUP1 REVERT JUMPDEST PUSH1 0x0 DUP1 REVERT JUMPDEST PUSH1 0x0 PUSH1 0x1F NOT PUSH1 0x1F DUP4 ADD AND SWAP1 POP SWAP2 SWAP1 POP JUMP JUMPDEST PUSH2 0x90E DUP2 PUSH2 0x7D3 JUMP JUMPDEST DUP2 EQ PUSH2 0x919 JUMPI PUSH1 0x0 DUP1 REVERT JUMPDEST POP JUMP INVALID LOG2 PUSH5 0x6970667358 0x22 SLT KECCAK256 SWAP8 0xD6 0x27 0xAB 0xBE STOP PUSH31 0xB25B2573B2B0189C1B72BD6A236E45358AE6EFC96A12087C5264736F6C6343 STOP ADDMOD SMOD STOP CALLER "
				},
				"gasEstimates": {
					"creation": {
						"codeDepositCost": "477200",
						"executionCost": "511",
						"totalCost": "477711"
					},
					"external": {
						"createReadList(string)": "infinite",
						"editReadList(string,uint256)": "infinite",
						"getFilterReadList(uint256)": "infinite",
						"getList()": "infinite"
					}
				},
				"methodIdentifiers": {
					"createReadList(string)": "234c6686",
					"editReadList(string,uint256)": "fb2996fd",
					"getFilterReadList(uint256)": "b868ef57",
					"getList()": "942b765a"
				}
			},
			"storageLayout": {
				"storage": [
					{
						"astId": 10,
						"contract": "array.sol:ArrayTest",
						"label": "list",
						"offset": 0,
						"slot": "0",
						"type": "t_array(t_struct(Book)6_storage)dyn_storage"
					},
					{
						"astId": 15,
						"contract": "array.sol:ArrayTest",
						"label": "book",
						"offset": 0,
						"slot": "1",
						"type": "t_mapping(t_uint256,t_struct(Book)6_storage)"
					},
					{
						"astId": 20,
						"contract": "array.sol:ArrayTest",
						"label": "editBook",
						"offset": 0,
						"slot": "2",
						"type": "t_mapping(t_string_memory_ptr,t_struct(Book)6_storage)"
					}
				],
				"types": {
					"t_array(t_struct(Book)6_storage)dyn_storage": {
						"base": "t_struct(Book)6_storage",
						"encoding": "dynamic_array",
						"label": "struct ArrayTest.Book[]",
						"numberOfBytes": "32"
					},
					"t_mapping(t_string_memory_ptr,t_struct(Book)6_storage)": {
						"encoding": "mapping",
						"key": "t_string_memory_ptr",
						"label": "mapping(string => struct ArrayTest.Book)",
						"numberOfBytes": "32",
						"value": "t_struct(Book)6_storage"
					},
					"t_mapping(t_uint256,t_struct(Book)6_storage)": {
						"encoding": "mapping",
						"key": "t_uint256",
						"label": "mapping(uint256 => struct ArrayTest.Book)",
						"numberOfBytes": "32",
						"value": "t_struct(Book)6_storage"
					},
					"t_string_memory_ptr": {
						"encoding": "bytes",
						"label": "string",
						"numberOfBytes": "32"
					},
					"t_string_storage": {
						"encoding": "bytes",
						"label": "string",
						"numberOfBytes": "32"
					},
					"t_struct(Book)6_storage": {
						"encoding": "inplace",
						"label": "struct ArrayTest.Book",
						"members": [
							{
								"astId": 3,
								"contract": "array.sol:ArrayTest",
								"label": "status",
								"offset": 0,
								"slot": "0",
								"type": "t_uint256"
							},
							{
								"astId": 5,
								"contract": "array.sol:ArrayTest",
								"label": "bookName",
								"offset": 0,
								"slot": "1",
								"type": "t_string_storage"
							}
						],
						"numberOfBytes": "64"
					},
					"t_uint256": {
						"encoding": "inplace",
						"label": "uint256",
						"numberOfBytes": "32"
					}
				}
			},
			"userdoc": {
				"kind": "user",
				"methods": {},
				"version": 1
			}
		}
	}
}