{
	"array2.sol": {
		"ArrayTest": {
			"abi": [
				{
					"inputs": [
						{
							"internalType": "string",
							"name": "_name",
							"type": "string"
						},
						{
							"internalType": "uint256",
							"name": "_age",
							"type": "uint256"
						}
					],
					"name": "add",
					"outputs": [],
					"stateMutability": "nonpayable",
					"type": "function"
				},
				{
					"inputs": [
						{
							"internalType": "uint256",
							"name": "_age",
							"type": "uint256"
						}
					],
					"name": "getUserList",
					"outputs": [
						{
							"components": [
								{
									"internalType": "string",
									"name": "name",
									"type": "string"
								},
								{
									"internalType": "uint256",
									"name": "age",
									"type": "uint256"
								}
							],
							"internalType": "struct ArrayTest.User[]",
							"name": "",
							"type": "tuple[]"
						}
					],
					"stateMutability": "view",
					"type": "function"
				}
			],
			"devdoc": {
				"kind": "dev",
				"methods": {},
				"version": 1
			},
			"evm": {
				"assembly": "    /* \"array2.sol\":61:656  contract ArrayTest {... */\n  mstore(0x40, 0x80)\n  callvalue\n  dup1\n  iszero\n  tag_1\n  jumpi\n  0x00\n  dup1\n  revert\ntag_1:\n  pop\n  dataSize(sub_0)\n  dup1\n  dataOffset(sub_0)\n  0x00\n  codecopy\n  0x00\n  return\nstop\n\nsub_0: assembly {\n        /* \"array2.sol\":61:656  contract ArrayTest {... */\n      mstore(0x40, 0x80)\n      callvalue\n      dup1\n      iszero\n      tag_1\n      jumpi\n      0x00\n      dup1\n      revert\n    tag_1:\n      pop\n      jumpi(tag_2, lt(calldatasize, 0x04))\n      shr(0xe0, calldataload(0x00))\n      dup1\n      0x36555b85\n      eq\n      tag_3\n      jumpi\n      dup1\n      0x91bbec1a\n      eq\n      tag_4\n      jumpi\n    tag_2:\n      0x00\n      dup1\n      revert\n        /* \"array2.sol\":180:332  function add(string memory _name,uint _age) external {... */\n    tag_3:\n      tag_5\n      0x04\n      dup1\n      calldatasize\n      sub\n      dup2\n      add\n      swap1\n      tag_6\n      swap2\n      swap1\n      tag_7\n      jump\t// in\n    tag_6:\n      tag_8\n      jump\t// in\n    tag_5:\n      stop\n        /* \"array2.sol\":340:653  function getUserList(uint _age) external view returns (User[] memory) {... */\n    tag_4:\n      tag_9\n      0x04\n      dup1\n      calldatasize\n      sub\n      dup2\n      add\n      swap1\n      tag_10\n      swap2\n      swap1\n      tag_11\n      jump\t// in\n    tag_10:\n      tag_12\n      jump\t// in\n    tag_9:\n      mload(0x40)\n      tag_13\n      swap2\n      swap1\n      tag_14\n      jump\t// in\n    tag_13:\n      mload(0x40)\n      dup1\n      swap2\n      sub\n      swap1\n      return\n        /* \"array2.sol\":180:332  function add(string memory _name,uint _age) external {... */\n    tag_8:\n        /* \"array2.sol\":244:252  userList */\n      0x00\n        /* \"array2.sol\":258:323  User({... */\n      mload(0x40)\n      dup1\n      0x40\n      add\n      0x40\n      mstore\n      dup1\n        /* \"array2.sol\":283:288  _name */\n      dup5\n        /* \"array2.sol\":258:323  User({... */\n      dup2\n      mstore\n      0x20\n      add\n        /* \"array2.sol\":307:311  _age */\n      dup4\n        /* \"array2.sol\":258:323  User({... */\n      dup2\n      mstore\n      pop\n        /* \"array2.sol\":244:324  userList.push(User({... */\n      swap1\n      dup1\n      0x01\n      dup2\n      sload\n      add\n      dup1\n      dup3\n      sstore\n      dup1\n      swap2\n      pop\n      pop\n      0x01\n      swap1\n      sub\n      swap1\n      0x00\n      mstore\n      keccak256(0x00, 0x20)\n      swap1\n      0x02\n      mul\n      add\n      0x00\n      swap1\n      swap2\n      swap1\n      swap2\n      swap1\n      swap2\n      pop\n      0x00\n      dup3\n      add\n      mload\n      dup2\n      0x00\n      add\n      swap1\n      dup2\n      tag_17\n      swap2\n      swap1\n      tag_18\n      jump\t// in\n    tag_17:\n      pop\n      0x20\n      dup3\n      add\n      mload\n      dup2\n      0x01\n      add\n      sstore\n      pop\n      pop\n        /* \"array2.sol\":180:332  function add(string memory _name,uint _age) external {... */\n      pop\n      pop\n      jump\t// out\n        /* \"array2.sol\":340:653  function getUserList(uint _age) external view returns (User[] memory) {... */\n    tag_12:\n        /* \"array2.sol\":395:408  User[] memory */\n      0x60\n        /* \"array2.sol\":421:436  User[] memory a */\n      0x00\n        /* \"array2.sol\":450:458  userList */\n      dup1\n        /* \"array2.sol\":450:465  userList.length */\n      dup1\n      sload\n      swap1\n      pop\n        /* \"array2.sol\":439:466  new User[](userList.length) */\n      0xffffffffffffffff\n      dup2\n      gt\n      iszero\n      tag_20\n      jumpi\n      tag_21\n      tag_22\n      jump\t// in\n    tag_21:\n    tag_20:\n      mload(0x40)\n      swap1\n      dup1\n      dup3\n      mstore\n      dup1\n      0x20\n      mul\n      0x20\n      add\n      dup3\n      add\n      0x40\n      mstore\n      dup1\n      iszero\n      tag_23\n      jumpi\n      dup2\n      0x20\n      add\n    tag_24:\n      tag_25\n      tag_26\n      jump\t// in\n    tag_25:\n      dup2\n      mstore\n      0x20\n      add\n      swap1\n      0x01\n      swap1\n      sub\n      swap1\n      dup2\n      tag_24\n      jumpi\n      swap1\n      pop\n    tag_23:\n      pop\n        /* \"array2.sol\":421:466  User[] memory a = new User[](userList.length) */\n      swap1\n      pop\n        /* \"array2.sol\":483:489  uint i */\n      0x00\n        /* \"array2.sol\":479:627  for(uint i = 0; i < userList.length; i++) {... */\n    tag_27:\n        /* \"array2.sol\":499:507  userList */\n      0x00\n        /* \"array2.sol\":499:514  userList.length */\n      dup1\n      sload\n      swap1\n      pop\n        /* \"array2.sol\":495:496  i */\n      dup2\n        /* \"array2.sol\":495:514  i < userList.length */\n      lt\n        /* \"array2.sol\":479:627  for(uint i = 0; i < userList.length; i++) {... */\n      iszero\n      tag_28\n      jumpi\n        /* \"array2.sol\":557:561  _age */\n      dup4\n        /* \"array2.sol\":539:547  userList */\n      0x00\n        /* \"array2.sol\":548:549  i */\n      dup3\n        /* \"array2.sol\":539:550  userList[i] */\n      dup2\n      sload\n      dup2\n      lt\n      tag_30\n      jumpi\n      tag_31\n      tag_32\n      jump\t// in\n    tag_31:\n    tag_30:\n      swap1\n      0x00\n      mstore\n      keccak256(0x00, 0x20)\n      swap1\n      0x02\n      mul\n      add\n        /* \"array2.sol\":539:554  userList[i].age */\n      0x01\n      add\n      sload\n        /* \"array2.sol\":539:561  userList[i].age < _age */\n      lt\n        /* \"array2.sol\":536:615  if(userList[i].age < _age){... */\n      iszero\n      tag_34\n      jumpi\n        /* \"array2.sol\":588:596  userList */\n      0x00\n        /* \"array2.sol\":597:598  i */\n      dup2\n        /* \"array2.sol\":588:599  userList[i] */\n      dup2\n      sload\n      dup2\n      lt\n      tag_35\n      jumpi\n      tag_36\n      tag_32\n      jump\t// in\n    tag_36:\n    tag_35:\n      swap1\n      0x00\n      mstore\n      keccak256(0x00, 0x20)\n      swap1\n      0x02\n      mul\n      add\n        /* \"array2.sol\":581:599  a[i] = userList[i] */\n      mload(0x40)\n      dup1\n      0x40\n      add\n      0x40\n      mstore\n      swap1\n      dup2\n      0x00\n      dup3\n      add\n      dup1\n      sload\n      tag_38\n      swap1\n      tag_39\n      jump\t// in\n    tag_38:\n      dup1\n      0x1f\n      add\n      0x20\n      dup1\n      swap2\n      div\n      mul\n      0x20\n      add\n      mload(0x40)\n      swap1\n      dup2\n      add\n      0x40\n      mstore\n      dup1\n      swap3\n      swap2\n      swap1\n      dup2\n      dup2\n      mstore\n      0x20\n      add\n      dup3\n      dup1\n      sload\n      tag_40\n      swap1\n      tag_39\n      jump\t// in\n    tag_40:\n      dup1\n      iszero\n      tag_41\n      jumpi\n      dup1\n      0x1f\n      lt\n      tag_42\n      jumpi\n      0x0100\n      dup1\n      dup4\n      sload\n      div\n      mul\n      dup4\n      mstore\n      swap2\n      0x20\n      add\n      swap2\n      jump(tag_41)\n    tag_42:\n      dup3\n      add\n      swap2\n      swap1\n      0x00\n      mstore\n      keccak256(0x00, 0x20)\n      swap1\n    tag_43:\n      dup2\n      sload\n      dup2\n      mstore\n      swap1\n      0x01\n      add\n      swap1\n      0x20\n      add\n      dup1\n      dup4\n      gt\n      tag_43\n      jumpi\n      dup3\n      swap1\n      sub\n      0x1f\n      and\n      dup3\n      add\n      swap2\n    tag_41:\n      pop\n      pop\n      pop\n      pop\n      pop\n      dup2\n      mstore\n      0x20\n      add\n      0x01\n      dup3\n      add\n      sload\n      dup2\n      mstore\n      pop\n      pop\n        /* \"array2.sol\":581:582  a */\n      dup3\n        /* \"array2.sol\":583:584  i */\n      dup3\n        /* \"array2.sol\":581:585  a[i] */\n      dup2\n      mload\n      dup2\n      lt\n      tag_44\n      jumpi\n      tag_45\n      tag_32\n      jump\t// in\n    tag_45:\n    tag_44:\n      0x20\n      mul\n      0x20\n      add\n      add\n        /* \"array2.sol\":581:599  a[i] = userList[i] */\n      dup2\n      swap1\n      mstore\n      pop\n        /* \"array2.sol\":536:615  if(userList[i].age < _age){... */\n    tag_34:\n        /* \"array2.sol\":516:519  i++ */\n      dup1\n      dup1\n      tag_46\n      swap1\n      tag_47\n      jump\t// in\n    tag_46:\n      swap2\n      pop\n      pop\n        /* \"array2.sol\":479:627  for(uint i = 0; i < userList.length; i++) {... */\n      jump(tag_27)\n    tag_28:\n      pop\n        /* \"array2.sol\":644:645  a */\n      dup1\n        /* \"array2.sol\":637:645  return a */\n      swap2\n      pop\n      pop\n        /* \"array2.sol\":340:653  function getUserList(uint _age) external view returns (User[] memory) {... */\n      swap2\n      swap1\n      pop\n      jump\t// out\n    tag_26:\n      mload(0x40)\n      dup1\n      0x40\n      add\n      0x40\n      mstore\n      dup1\n      0x60\n      dup2\n      mstore\n      0x20\n      add\n      0x00\n      dup2\n      mstore\n      pop\n      swap1\n      jump\t// out\n        /* \"#utility.yul\":7:82   */\n    tag_48:\n        /* \"#utility.yul\":40:46   */\n      0x00\n        /* \"#utility.yul\":73:75   */\n      0x40\n        /* \"#utility.yul\":67:76   */\n      mload\n        /* \"#utility.yul\":57:76   */\n      swap1\n      pop\n        /* \"#utility.yul\":7:82   */\n      swap1\n      jump\t// out\n        /* \"#utility.yul\":88:205   */\n    tag_49:\n        /* \"#utility.yul\":197:198   */\n      0x00\n        /* \"#utility.yul\":194:195   */\n      dup1\n        /* \"#utility.yul\":187:199   */\n      revert\n        /* \"#utility.yul\":211:328   */\n    tag_50:\n        /* \"#utility.yul\":320:321   */\n      0x00\n        /* \"#utility.yul\":317:318   */\n      dup1\n        /* \"#utility.yul\":310:322   */\n      revert\n        /* \"#utility.yul\":334:451   */\n    tag_51:\n        /* \"#utility.yul\":443:444   */\n      0x00\n        /* \"#utility.yul\":440:441   */\n      dup1\n        /* \"#utility.yul\":433:445   */\n      revert\n        /* \"#utility.yul\":457:574   */\n    tag_52:\n        /* \"#utility.yul\":566:567   */\n      0x00\n        /* \"#utility.yul\":563:564   */\n      dup1\n        /* \"#utility.yul\":556:568   */\n      revert\n        /* \"#utility.yul\":580:682   */\n    tag_53:\n        /* \"#utility.yul\":621:627   */\n      0x00\n        /* \"#utility.yul\":672:674   */\n      0x1f\n        /* \"#utility.yul\":668:675   */\n      not\n        /* \"#utility.yul\":663:665   */\n      0x1f\n        /* \"#utility.yul\":656:661   */\n      dup4\n        /* \"#utility.yul\":652:666   */\n      add\n        /* \"#utility.yul\":648:676   */\n      and\n        /* \"#utility.yul\":638:676   */\n      swap1\n      pop\n        /* \"#utility.yul\":580:682   */\n      swap2\n      swap1\n      pop\n      jump\t// out\n        /* \"#utility.yul\":688:868   */\n    tag_22:\n        /* \"#utility.yul\":736:813   */\n      0x4e487b7100000000000000000000000000000000000000000000000000000000\n        /* \"#utility.yul\":733:734   */\n      0x00\n        /* \"#utility.yul\":726:814   */\n      mstore\n        /* \"#utility.yul\":833:837   */\n      0x41\n        /* \"#utility.yul\":830:831   */\n      0x04\n        /* \"#utility.yul\":823:838   */\n      mstore\n        /* \"#utility.yul\":857:861   */\n      0x24\n        /* \"#utility.yul\":854:855   */\n      0x00\n        /* \"#utility.yul\":847:862   */\n      revert\n        /* \"#utility.yul\":874:1155   */\n    tag_54:\n        /* \"#utility.yul\":957:984   */\n      tag_101\n        /* \"#utility.yul\":979:983   */\n      dup3\n        /* \"#utility.yul\":957:984   */\n      tag_53\n      jump\t// in\n    tag_101:\n        /* \"#utility.yul\":949:955   */\n      dup2\n        /* \"#utility.yul\":945:985   */\n      add\n        /* \"#utility.yul\":1087:1093   */\n      dup2\n        /* \"#utility.yul\":1075:1085   */\n      dup2\n        /* \"#utility.yul\":1072:1094   */\n      lt\n        /* \"#utility.yul\":1051:1069   */\n      0xffffffffffffffff\n        /* \"#utility.yul\":1039:1049   */\n      dup3\n        /* \"#utility.yul\":1036:1070   */\n      gt\n        /* \"#utility.yul\":1033:1095   */\n      or\n        /* \"#utility.yul\":1030:1118   */\n      iszero\n      tag_102\n      jumpi\n        /* \"#utility.yul\":1098:1116   */\n      tag_103\n      tag_22\n      jump\t// in\n    tag_103:\n        /* \"#utility.yul\":1030:1118   */\n    tag_102:\n        /* \"#utility.yul\":1138:1148   */\n      dup1\n        /* \"#utility.yul\":1134:1136   */\n      0x40\n        /* \"#utility.yul\":1127:1149   */\n      mstore\n        /* \"#utility.yul\":917:1155   */\n      pop\n        /* \"#utility.yul\":874:1155   */\n      pop\n      pop\n      jump\t// out\n        /* \"#utility.yul\":1161:1290   */\n    tag_55:\n        /* \"#utility.yul\":1195:1201   */\n      0x00\n        /* \"#utility.yul\":1222:1242   */\n      tag_105\n      tag_48\n      jump\t// in\n    tag_105:\n        /* \"#utility.yul\":1212:1242   */\n      swap1\n      pop\n        /* \"#utility.yul\":1251:1284   */\n      tag_106\n        /* \"#utility.yul\":1279:1283   */\n      dup3\n        /* \"#utility.yul\":1271:1277   */\n      dup3\n        /* \"#utility.yul\":1251:1284   */\n      tag_54\n      jump\t// in\n    tag_106:\n        /* \"#utility.yul\":1161:1290   */\n      swap2\n      swap1\n      pop\n      jump\t// out\n        /* \"#utility.yul\":1296:1604   */\n    tag_56:\n        /* \"#utility.yul\":1358:1362   */\n      0x00\n        /* \"#utility.yul\":1448:1466   */\n      0xffffffffffffffff\n        /* \"#utility.yul\":1440:1446   */\n      dup3\n        /* \"#utility.yul\":1437:1467   */\n      gt\n        /* \"#utility.yul\":1434:1490   */\n      iszero\n      tag_108\n      jumpi\n        /* \"#utility.yul\":1470:1488   */\n      tag_109\n      tag_22\n      jump\t// in\n    tag_109:\n        /* \"#utility.yul\":1434:1490   */\n    tag_108:\n        /* \"#utility.yul\":1508:1537   */\n      tag_110\n        /* \"#utility.yul\":1530:1536   */\n      dup3\n        /* \"#utility.yul\":1508:1537   */\n      tag_53\n      jump\t// in\n    tag_110:\n        /* \"#utility.yul\":1500:1537   */\n      swap1\n      pop\n        /* \"#utility.yul\":1592:1596   */\n      0x20\n        /* \"#utility.yul\":1586:1590   */\n      dup2\n        /* \"#utility.yul\":1582:1597   */\n      add\n        /* \"#utility.yul\":1574:1597   */\n      swap1\n      pop\n        /* \"#utility.yul\":1296:1604   */\n      swap2\n      swap1\n      pop\n      jump\t// out\n        /* \"#utility.yul\":1610:1764   */\n    tag_57:\n        /* \"#utility.yul\":1694:1700   */\n      dup3\n        /* \"#utility.yul\":1689:1692   */\n      dup2\n        /* \"#utility.yul\":1684:1687   */\n      dup4\n        /* \"#utility.yul\":1671:1701   */\n      calldatacopy\n        /* \"#utility.yul\":1756:1757   */\n      0x00\n        /* \"#utility.yul\":1747:1753   */\n      dup4\n        /* \"#utility.yul\":1742:1745   */\n      dup4\n        /* \"#utility.yul\":1738:1754   */\n      add\n        /* \"#utility.yul\":1731:1758   */\n      mstore\n        /* \"#utility.yul\":1610:1764   */\n      pop\n      pop\n      pop\n      jump\t// out\n        /* \"#utility.yul\":1770:2182   */\n    tag_58:\n        /* \"#utility.yul\":1848:1853   */\n      0x00\n        /* \"#utility.yul\":1873:1939   */\n      tag_113\n        /* \"#utility.yul\":1889:1938   */\n      tag_114\n        /* \"#utility.yul\":1931:1937   */\n      dup5\n        /* \"#utility.yul\":1889:1938   */\n      tag_56\n      jump\t// in\n    tag_114:\n        /* \"#utility.yul\":1873:1939   */\n      tag_55\n      jump\t// in\n    tag_113:\n        /* \"#utility.yul\":1864:1939   */\n      swap1\n      pop\n        /* \"#utility.yul\":1962:1968   */\n      dup3\n        /* \"#utility.yul\":1955:1960   */\n      dup2\n        /* \"#utility.yul\":1948:1969   */\n      mstore\n        /* \"#utility.yul\":2000:2004   */\n      0x20\n        /* \"#utility.yul\":1993:1998   */\n      dup2\n        /* \"#utility.yul\":1989:2005   */\n      add\n        /* \"#utility.yul\":2038:2041   */\n      dup5\n        /* \"#utility.yul\":2029:2035   */\n      dup5\n        /* \"#utility.yul\":2024:2027   */\n      dup5\n        /* \"#utility.yul\":2020:2036   */\n      add\n        /* \"#utility.yul\":2017:2042   */\n      gt\n        /* \"#utility.yul\":2014:2126   */\n      iszero\n      tag_115\n      jumpi\n        /* \"#utility.yul\":2045:2124   */\n      tag_116\n      tag_52\n      jump\t// in\n    tag_116:\n        /* \"#utility.yul\":2014:2126   */\n    tag_115:\n        /* \"#utility.yul\":2135:2176   */\n      tag_117\n        /* \"#utility.yul\":2169:2175   */\n      dup5\n        /* \"#utility.yul\":2164:2167   */\n      dup3\n        /* \"#utility.yul\":2159:2162   */\n      dup6\n        /* \"#utility.yul\":2135:2176   */\n      tag_57\n      jump\t// in\n    tag_117:\n        /* \"#utility.yul\":1854:2182   */\n      pop\n        /* \"#utility.yul\":1770:2182   */\n      swap4\n      swap3\n      pop\n      pop\n      pop\n      jump\t// out\n        /* \"#utility.yul\":2202:2542   */\n    tag_59:\n        /* \"#utility.yul\":2258:2263   */\n      0x00\n        /* \"#utility.yul\":2307:2310   */\n      dup3\n        /* \"#utility.yul\":2300:2304   */\n      0x1f\n        /* \"#utility.yul\":2292:2298   */\n      dup4\n        /* \"#utility.yul\":2288:2305   */\n      add\n        /* \"#utility.yul\":2284:2311   */\n      slt\n        /* \"#utility.yul\":2274:2396   */\n      tag_119\n      jumpi\n        /* \"#utility.yul\":2315:2394   */\n      tag_120\n      tag_51\n      jump\t// in\n    tag_120:\n        /* \"#utility.yul\":2274:2396   */\n    tag_119:\n        /* \"#utility.yul\":2432:2438   */\n      dup2\n        /* \"#utility.yul\":2419:2439   */\n      calldataload\n        /* \"#utility.yul\":2457:2536   */\n      tag_121\n        /* \"#utility.yul\":2532:2535   */\n      dup5\n        /* \"#utility.yul\":2524:2530   */\n      dup3\n        /* \"#utility.yul\":2517:2521   */\n      0x20\n        /* \"#utility.yul\":2509:2515   */\n      dup7\n        /* \"#utility.yul\":2505:2522   */\n      add\n        /* \"#utility.yul\":2457:2536   */\n      tag_58\n      jump\t// in\n    tag_121:\n        /* \"#utility.yul\":2448:2536   */\n      swap2\n      pop\n        /* \"#utility.yul\":2264:2542   */\n      pop\n        /* \"#utility.yul\":2202:2542   */\n      swap3\n      swap2\n      pop\n      pop\n      jump\t// out\n        /* \"#utility.yul\":2548:2625   */\n    tag_60:\n        /* \"#utility.yul\":2585:2592   */\n      0x00\n        /* \"#utility.yul\":2614:2619   */\n      dup2\n        /* \"#utility.yul\":2603:2619   */\n      swap1\n      pop\n        /* \"#utility.yul\":2548:2625   */\n      swap2\n      swap1\n      pop\n      jump\t// out\n        /* \"#utility.yul\":2631:2753   */\n    tag_61:\n        /* \"#utility.yul\":2704:2728   */\n      tag_124\n        /* \"#utility.yul\":2722:2727   */\n      dup2\n        /* \"#utility.yul\":2704:2728   */\n      tag_60\n      jump\t// in\n    tag_124:\n        /* \"#utility.yul\":2697:2702   */\n      dup2\n        /* \"#utility.yul\":2694:2729   */\n      eq\n        /* \"#utility.yul\":2684:2747   */\n      tag_125\n      jumpi\n        /* \"#utility.yul\":2743:2744   */\n      0x00\n        /* \"#utility.yul\":2740:2741   */\n      dup1\n        /* \"#utility.yul\":2733:2745   */\n      revert\n        /* \"#utility.yul\":2684:2747   */\n    tag_125:\n        /* \"#utility.yul\":2631:2753   */\n      pop\n      jump\t// out\n        /* \"#utility.yul\":2759:2898   */\n    tag_62:\n        /* \"#utility.yul\":2805:2810   */\n      0x00\n        /* \"#utility.yul\":2843:2849   */\n      dup2\n        /* \"#utility.yul\":2830:2850   */\n      calldataload\n        /* \"#utility.yul\":2821:2850   */\n      swap1\n      pop\n        /* \"#utility.yul\":2859:2892   */\n      tag_127\n        /* \"#utility.yul\":2886:2891   */\n      dup2\n        /* \"#utility.yul\":2859:2892   */\n      tag_61\n      jump\t// in\n    tag_127:\n        /* \"#utility.yul\":2759:2898   */\n      swap3\n      swap2\n      pop\n      pop\n      jump\t// out\n        /* \"#utility.yul\":2904:3558   */\n    tag_7:\n        /* \"#utility.yul\":2982:2988   */\n      0x00\n        /* \"#utility.yul\":2990:2996   */\n      dup1\n        /* \"#utility.yul\":3039:3041   */\n      0x40\n        /* \"#utility.yul\":3027:3036   */\n      dup4\n        /* \"#utility.yul\":3018:3025   */\n      dup6\n        /* \"#utility.yul\":3014:3037   */\n      sub\n        /* \"#utility.yul\":3010:3042   */\n      slt\n        /* \"#utility.yul\":3007:3126   */\n      iszero\n      tag_129\n      jumpi\n        /* \"#utility.yul\":3045:3124   */\n      tag_130\n      tag_49\n      jump\t// in\n    tag_130:\n        /* \"#utility.yul\":3007:3126   */\n    tag_129:\n        /* \"#utility.yul\":3193:3194   */\n      0x00\n        /* \"#utility.yul\":3182:3191   */\n      dup4\n        /* \"#utility.yul\":3178:3195   */\n      add\n        /* \"#utility.yul\":3165:3196   */\n      calldataload\n        /* \"#utility.yul\":3223:3241   */\n      0xffffffffffffffff\n        /* \"#utility.yul\":3215:3221   */\n      dup2\n        /* \"#utility.yul\":3212:3242   */\n      gt\n        /* \"#utility.yul\":3209:3326   */\n      iszero\n      tag_131\n      jumpi\n        /* \"#utility.yul\":3245:3324   */\n      tag_132\n      tag_50\n      jump\t// in\n    tag_132:\n        /* \"#utility.yul\":3209:3326   */\n    tag_131:\n        /* \"#utility.yul\":3350:3413   */\n      tag_133\n        /* \"#utility.yul\":3405:3412   */\n      dup6\n        /* \"#utility.yul\":3396:3402   */\n      dup3\n        /* \"#utility.yul\":3385:3394   */\n      dup7\n        /* \"#utility.yul\":3381:3403   */\n      add\n        /* \"#utility.yul\":3350:3413   */\n      tag_59\n      jump\t// in\n    tag_133:\n        /* \"#utility.yul\":3340:3413   */\n      swap3\n      pop\n        /* \"#utility.yul\":3136:3423   */\n      pop\n        /* \"#utility.yul\":3462:3464   */\n      0x20\n        /* \"#utility.yul\":3488:3541   */\n      tag_134\n        /* \"#utility.yul\":3533:3540   */\n      dup6\n        /* \"#utility.yul\":3524:3530   */\n      dup3\n        /* \"#utility.yul\":3513:3522   */\n      dup7\n        /* \"#utility.yul\":3509:3531   */\n      add\n        /* \"#utility.yul\":3488:3541   */\n      tag_62\n      jump\t// in\n    tag_134:\n        /* \"#utility.yul\":3478:3541   */\n      swap2\n      pop\n        /* \"#utility.yul\":3433:3551   */\n      pop\n        /* \"#utility.yul\":2904:3558   */\n      swap3\n      pop\n      swap3\n      swap1\n      pop\n      jump\t// out\n        /* \"#utility.yul\":3564:3893   */\n    tag_11:\n        /* \"#utility.yul\":3623:3629   */\n      0x00\n        /* \"#utility.yul\":3672:3674   */\n      0x20\n        /* \"#utility.yul\":3660:3669   */\n      dup3\n        /* \"#utility.yul\":3651:3658   */\n      dup5\n        /* \"#utility.yul\":3647:3670   */\n      sub\n        /* \"#utility.yul\":3643:3675   */\n      slt\n        /* \"#utility.yul\":3640:3759   */\n      iszero\n      tag_136\n      jumpi\n        /* \"#utility.yul\":3678:3757   */\n      tag_137\n      tag_49\n      jump\t// in\n    tag_137:\n        /* \"#utility.yul\":3640:3759   */\n    tag_136:\n        /* \"#utility.yul\":3798:3799   */\n      0x00\n        /* \"#utility.yul\":3823:3876   */\n      tag_138\n        /* \"#utility.yul\":3868:3875   */\n      dup5\n        /* \"#utility.yul\":3859:3865   */\n      dup3\n        /* \"#utility.yul\":3848:3857   */\n      dup6\n        /* \"#utility.yul\":3844:3866   */\n      add\n        /* \"#utility.yul\":3823:3876   */\n      tag_62\n      jump\t// in\n    tag_138:\n        /* \"#utility.yul\":3813:3876   */\n      swap2\n      pop\n        /* \"#utility.yul\":3769:3886   */\n      pop\n        /* \"#utility.yul\":3564:3893   */\n      swap3\n      swap2\n      pop\n      pop\n      jump\t// out\n        /* \"#utility.yul\":3899:4032   */\n    tag_63:\n        /* \"#utility.yul\":3985:3991   */\n      0x00\n        /* \"#utility.yul\":4019:4024   */\n      dup2\n        /* \"#utility.yul\":4013:4025   */\n      mload\n        /* \"#utility.yul\":4003:4025   */\n      swap1\n      pop\n        /* \"#utility.yul\":3899:4032   */\n      swap2\n      swap1\n      pop\n      jump\t// out\n        /* \"#utility.yul\":4038:4241   */\n    tag_64:\n        /* \"#utility.yul\":4156:4167   */\n      0x00\n        /* \"#utility.yul\":4190:4196   */\n      dup3\n        /* \"#utility.yul\":4185:4188   */\n      dup3\n        /* \"#utility.yul\":4178:4197   */\n      mstore\n        /* \"#utility.yul\":4230:4234   */\n      0x20\n        /* \"#utility.yul\":4225:4228   */\n      dup3\n        /* \"#utility.yul\":4221:4235   */\n      add\n        /* \"#utility.yul\":4206:4235   */\n      swap1\n      pop\n        /* \"#utility.yul\":4038:4241   */\n      swap3\n      swap2\n      pop\n      pop\n      jump\t// out\n        /* \"#utility.yul\":4247:4398   */\n    tag_65:\n        /* \"#utility.yul\":4333:4337   */\n      0x00\n        /* \"#utility.yul\":4356:4359   */\n      dup2\n        /* \"#utility.yul\":4348:4359   */\n      swap1\n      pop\n        /* \"#utility.yul\":4386:4390   */\n      0x20\n        /* \"#utility.yul\":4381:4384   */\n      dup3\n        /* \"#utility.yul\":4377:4391   */\n      add\n        /* \"#utility.yul\":4369:4391   */\n      swap1\n      pop\n        /* \"#utility.yul\":4247:4398   */\n      swap2\n      swap1\n      pop\n      jump\t// out\n        /* \"#utility.yul\":4404:4503   */\n    tag_66:\n        /* \"#utility.yul\":4456:4462   */\n      0x00\n        /* \"#utility.yul\":4490:4495   */\n      dup2\n        /* \"#utility.yul\":4484:4496   */\n      mload\n        /* \"#utility.yul\":4474:4496   */\n      swap1\n      pop\n        /* \"#utility.yul\":4404:4503   */\n      swap2\n      swap1\n      pop\n      jump\t// out\n        /* \"#utility.yul\":4509:4668   */\n    tag_67:\n        /* \"#utility.yul\":4583:4594   */\n      0x00\n        /* \"#utility.yul\":4617:4623   */\n      dup3\n        /* \"#utility.yul\":4612:4615   */\n      dup3\n        /* \"#utility.yul\":4605:4624   */\n      mstore\n        /* \"#utility.yul\":4657:4661   */\n      0x20\n        /* \"#utility.yul\":4652:4655   */\n      dup3\n        /* \"#utility.yul\":4648:4662   */\n      add\n        /* \"#utility.yul\":4633:4662   */\n      swap1\n      pop\n        /* \"#utility.yul\":4509:4668   */\n      swap3\n      swap2\n      pop\n      pop\n      jump\t// out\n        /* \"#utility.yul\":4674:4981   */\n    tag_68:\n        /* \"#utility.yul\":4742:4743   */\n      0x00\n        /* \"#utility.yul\":4752:4865   */\n    tag_145:\n        /* \"#utility.yul\":4766:4772   */\n      dup4\n        /* \"#utility.yul\":4763:4764   */\n      dup2\n        /* \"#utility.yul\":4760:4773   */\n      lt\n        /* \"#utility.yul\":4752:4865   */\n      iszero\n      tag_147\n      jumpi\n        /* \"#utility.yul\":4851:4852   */\n      dup1\n        /* \"#utility.yul\":4846:4849   */\n      dup3\n        /* \"#utility.yul\":4842:4853   */\n      add\n        /* \"#utility.yul\":4836:4854   */\n      mload\n        /* \"#utility.yul\":4832:4833   */\n      dup2\n        /* \"#utility.yul\":4827:4830   */\n      dup5\n        /* \"#utility.yul\":4823:4834   */\n      add\n        /* \"#utility.yul\":4816:4855   */\n      mstore\n        /* \"#utility.yul\":4788:4790   */\n      0x20\n        /* \"#utility.yul\":4785:4786   */\n      dup2\n        /* \"#utility.yul\":4781:4791   */\n      add\n        /* \"#utility.yul\":4776:4791   */\n      swap1\n      pop\n        /* \"#utility.yul\":4752:4865   */\n      jump(tag_145)\n    tag_147:\n        /* \"#utility.yul\":4883:4889   */\n      dup4\n        /* \"#utility.yul\":4880:4881   */\n      dup2\n        /* \"#utility.yul\":4877:4890   */\n      gt\n        /* \"#utility.yul\":4874:4975   */\n      iszero\n      tag_148\n      jumpi\n        /* \"#utility.yul\":4963:4964   */\n      0x00\n        /* \"#utility.yul\":4954:4960   */\n      dup5\n        /* \"#utility.yul\":4949:4952   */\n      dup5\n        /* \"#utility.yul\":4945:4961   */\n      add\n        /* \"#utility.yul\":4938:4965   */\n      mstore\n        /* \"#utility.yul\":4874:4975   */\n    tag_148:\n        /* \"#utility.yul\":4723:4981   */\n      pop\n        /* \"#utility.yul\":4674:4981   */\n      pop\n      pop\n      pop\n      jump\t// out\n        /* \"#utility.yul\":4987:5331   */\n    tag_69:\n        /* \"#utility.yul\":5065:5068   */\n      0x00\n        /* \"#utility.yul\":5093:5132   */\n      tag_150\n        /* \"#utility.yul\":5126:5131   */\n      dup3\n        /* \"#utility.yul\":5093:5132   */\n      tag_66\n      jump\t// in\n    tag_150:\n        /* \"#utility.yul\":5148:5209   */\n      tag_151\n        /* \"#utility.yul\":5202:5208   */\n      dup2\n        /* \"#utility.yul\":5197:5200   */\n      dup6\n        /* \"#utility.yul\":5148:5209   */\n      tag_67\n      jump\t// in\n    tag_151:\n        /* \"#utility.yul\":5141:5209   */\n      swap4\n      pop\n        /* \"#utility.yul\":5218:5270   */\n      tag_152\n        /* \"#utility.yul\":5263:5269   */\n      dup2\n        /* \"#utility.yul\":5258:5261   */\n      dup6\n        /* \"#utility.yul\":5251:5255   */\n      0x20\n        /* \"#utility.yul\":5244:5249   */\n      dup7\n        /* \"#utility.yul\":5240:5256   */\n      add\n        /* \"#utility.yul\":5218:5270   */\n      tag_68\n      jump\t// in\n    tag_152:\n        /* \"#utility.yul\":5295:5324   */\n      tag_153\n        /* \"#utility.yul\":5317:5323   */\n      dup2\n        /* \"#utility.yul\":5295:5324   */\n      tag_53\n      jump\t// in\n    tag_153:\n        /* \"#utility.yul\":5290:5293   */\n      dup5\n        /* \"#utility.yul\":5286:5325   */\n      add\n        /* \"#utility.yul\":5279:5325   */\n      swap2\n      pop\n        /* \"#utility.yul\":5069:5331   */\n      pop\n        /* \"#utility.yul\":4987:5331   */\n      swap3\n      swap2\n      pop\n      pop\n      jump\t// out\n        /* \"#utility.yul\":5337:5445   */\n    tag_70:\n        /* \"#utility.yul\":5414:5438   */\n      tag_155\n        /* \"#utility.yul\":5432:5437   */\n      dup2\n        /* \"#utility.yul\":5414:5438   */\n      tag_60\n      jump\t// in\n    tag_155:\n        /* \"#utility.yul\":5409:5412   */\n      dup3\n        /* \"#utility.yul\":5402:5439   */\n      mstore\n        /* \"#utility.yul\":5337:5445   */\n      pop\n      pop\n      jump\t// out\n        /* \"#utility.yul\":5505:6088   */\n    tag_71:\n        /* \"#utility.yul\":5602:5605   */\n      0x00\n        /* \"#utility.yul\":5638:5642   */\n      0x40\n        /* \"#utility.yul\":5633:5636   */\n      dup4\n        /* \"#utility.yul\":5629:5643   */\n      add\n        /* \"#utility.yul\":5725:5729   */\n      0x00\n        /* \"#utility.yul\":5718:5723   */\n      dup4\n        /* \"#utility.yul\":5714:5730   */\n      add\n        /* \"#utility.yul\":5708:5731   */\n      mload\n        /* \"#utility.yul\":5778:5781   */\n      dup5\n        /* \"#utility.yul\":5772:5776   */\n      dup3\n        /* \"#utility.yul\":5768:5782   */\n      sub\n        /* \"#utility.yul\":5761:5765   */\n      0x00\n        /* \"#utility.yul\":5756:5759   */\n      dup7\n        /* \"#utility.yul\":5752:5766   */\n      add\n        /* \"#utility.yul\":5745:5783   */\n      mstore\n        /* \"#utility.yul\":5804:5877   */\n      tag_157\n        /* \"#utility.yul\":5872:5876   */\n      dup3\n        /* \"#utility.yul\":5858:5870   */\n      dup3\n        /* \"#utility.yul\":5804:5877   */\n      tag_69\n      jump\t// in\n    tag_157:\n        /* \"#utility.yul\":5796:5877   */\n      swap2\n      pop\n        /* \"#utility.yul\":5653:5888   */\n      pop\n        /* \"#utility.yul\":5969:5973   */\n      0x20\n        /* \"#utility.yul\":5962:5967   */\n      dup4\n        /* \"#utility.yul\":5958:5974   */\n      add\n        /* \"#utility.yul\":5952:5975   */\n      mload\n        /* \"#utility.yul\":5988:6051   */\n      tag_158\n        /* \"#utility.yul\":6045:6049   */\n      0x20\n        /* \"#utility.yul\":6040:6043   */\n      dup7\n        /* \"#utility.yul\":6036:6050   */\n      add\n        /* \"#utility.yul\":6022:6034   */\n      dup3\n        /* \"#utility.yul\":5988:6051   */\n      tag_70\n      jump\t// in\n    tag_158:\n        /* \"#utility.yul\":5898:6061   */\n      pop\n        /* \"#utility.yul\":6078:6082   */\n      dup1\n        /* \"#utility.yul\":6071:6082   */\n      swap2\n      pop\n        /* \"#utility.yul\":5607:6088   */\n      pop\n        /* \"#utility.yul\":5505:6088   */\n      swap3\n      swap2\n      pop\n      pop\n      jump\t// out\n        /* \"#utility.yul\":6094:6326   */\n    tag_72:\n        /* \"#utility.yul\":6201:6211   */\n      0x00\n        /* \"#utility.yul\":6236:6320   */\n      tag_160\n        /* \"#utility.yul\":6316:6319   */\n      dup4\n        /* \"#utility.yul\":6308:6314   */\n      dup4\n        /* \"#utility.yul\":6236:6320   */\n      tag_71\n      jump\t// in\n    tag_160:\n        /* \"#utility.yul\":6222:6320   */\n      swap1\n      pop\n        /* \"#utility.yul\":6094:6326   */\n      swap3\n      swap2\n      pop\n      pop\n      jump\t// out\n        /* \"#utility.yul\":6332:6464   */\n    tag_73:\n        /* \"#utility.yul\":6421:6425   */\n      0x00\n        /* \"#utility.yul\":6453:6457   */\n      0x20\n        /* \"#utility.yul\":6448:6451   */\n      dup3\n        /* \"#utility.yul\":6444:6458   */\n      add\n        /* \"#utility.yul\":6436:6458   */\n      swap1\n      pop\n        /* \"#utility.yul\":6332:6464   */\n      swap2\n      swap1\n      pop\n      jump\t// out\n        /* \"#utility.yul\":6528:7591   */\n    tag_74:\n        /* \"#utility.yul\":6685:6688   */\n      0x00\n        /* \"#utility.yul\":6714:6787   */\n      tag_163\n        /* \"#utility.yul\":6781:6786   */\n      dup3\n        /* \"#utility.yul\":6714:6787   */\n      tag_63\n      jump\t// in\n    tag_163:\n        /* \"#utility.yul\":6803:6908   */\n      tag_164\n        /* \"#utility.yul\":6901:6907   */\n      dup2\n        /* \"#utility.yul\":6896:6899   */\n      dup6\n        /* \"#utility.yul\":6803:6908   */\n      tag_64\n      jump\t// in\n    tag_164:\n        /* \"#utility.yul\":6796:6908   */\n      swap4\n      pop\n        /* \"#utility.yul\":6934:6937   */\n      dup4\n        /* \"#utility.yul\":6979:6983   */\n      0x20\n        /* \"#utility.yul\":6971:6977   */\n      dup3\n        /* \"#utility.yul\":6967:6984   */\n      mul\n        /* \"#utility.yul\":6962:6965   */\n      dup6\n        /* \"#utility.yul\":6958:6985   */\n      add\n        /* \"#utility.yul\":7009:7084   */\n      tag_165\n        /* \"#utility.yul\":7078:7083   */\n      dup6\n        /* \"#utility.yul\":7009:7084   */\n      tag_65\n      jump\t// in\n    tag_165:\n        /* \"#utility.yul\":7107:7114   */\n      dup1\n        /* \"#utility.yul\":7138:7139   */\n      0x00\n        /* \"#utility.yul\":7123:7546   */\n    tag_166:\n        /* \"#utility.yul\":7148:7154   */\n      dup6\n        /* \"#utility.yul\":7145:7146   */\n      dup2\n        /* \"#utility.yul\":7142:7155   */\n      lt\n        /* \"#utility.yul\":7123:7546   */\n      iszero\n      tag_168\n      jumpi\n        /* \"#utility.yul\":7219:7228   */\n      dup5\n        /* \"#utility.yul\":7213:7217   */\n      dup5\n        /* \"#utility.yul\":7209:7229   */\n      sub\n        /* \"#utility.yul\":7204:7207   */\n      dup10\n        /* \"#utility.yul\":7197:7230   */\n      mstore\n        /* \"#utility.yul\":7270:7276   */\n      dup2\n        /* \"#utility.yul\":7264:7277   */\n      mload\n        /* \"#utility.yul\":7298:7400   */\n      tag_169\n        /* \"#utility.yul\":7395:7399   */\n      dup6\n        /* \"#utility.yul\":7380:7393   */\n      dup3\n        /* \"#utility.yul\":7298:7400   */\n      tag_72\n      jump\t// in\n    tag_169:\n        /* \"#utility.yul\":7290:7400   */\n      swap5\n      pop\n        /* \"#utility.yul\":7423:7502   */\n      tag_170\n        /* \"#utility.yul\":7495:7501   */\n      dup4\n        /* \"#utility.yul\":7423:7502   */\n      tag_73\n      jump\t// in\n    tag_170:\n        /* \"#utility.yul\":7413:7502   */\n      swap3\n      pop\n        /* \"#utility.yul\":7531:7535   */\n      0x20\n        /* \"#utility.yul\":7526:7529   */\n      dup11\n        /* \"#utility.yul\":7522:7536   */\n      add\n        /* \"#utility.yul\":7515:7536   */\n      swap10\n      pop\n        /* \"#utility.yul\":7183:7546   */\n      pop\n        /* \"#utility.yul\":7170:7171   */\n      0x01\n        /* \"#utility.yul\":7167:7168   */\n      dup2\n        /* \"#utility.yul\":7163:7172   */\n      add\n        /* \"#utility.yul\":7158:7172   */\n      swap1\n      pop\n        /* \"#utility.yul\":7123:7546   */\n      jump(tag_166)\n    tag_168:\n        /* \"#utility.yul\":7127:7141   */\n      pop\n        /* \"#utility.yul\":7562:7566   */\n      dup3\n        /* \"#utility.yul\":7555:7566   */\n      swap8\n      pop\n        /* \"#utility.yul\":7582:7585   */\n      dup8\n        /* \"#utility.yul\":7575:7585   */\n      swap6\n      pop\n        /* \"#utility.yul\":6690:7591   */\n      pop\n      pop\n      pop\n      pop\n      pop\n        /* \"#utility.yul\":6528:7591   */\n      swap3\n      swap2\n      pop\n      pop\n      jump\t// out\n        /* \"#utility.yul\":7597:8046   */\n    tag_14:\n        /* \"#utility.yul\":7778:7782   */\n      0x00\n        /* \"#utility.yul\":7816:7818   */\n      0x20\n        /* \"#utility.yul\":7805:7814   */\n      dup3\n        /* \"#utility.yul\":7801:7819   */\n      add\n        /* \"#utility.yul\":7793:7819   */\n      swap1\n      pop\n        /* \"#utility.yul\":7865:7874   */\n      dup2\n        /* \"#utility.yul\":7859:7863   */\n      dup2\n        /* \"#utility.yul\":7855:7875   */\n      sub\n        /* \"#utility.yul\":7851:7852   */\n      0x00\n        /* \"#utility.yul\":7840:7849   */\n      dup4\n        /* \"#utility.yul\":7836:7853   */\n      add\n        /* \"#utility.yul\":7829:7876   */\n      mstore\n        /* \"#utility.yul\":7893:8039   */\n      tag_172\n        /* \"#utility.yul\":8034:8038   */\n      dup2\n        /* \"#utility.yul\":8025:8031   */\n      dup5\n        /* \"#utility.yul\":7893:8039   */\n      tag_74\n      jump\t// in\n    tag_172:\n        /* \"#utility.yul\":7885:8039   */\n      swap1\n      pop\n        /* \"#utility.yul\":7597:8046   */\n      swap3\n      swap2\n      pop\n      pop\n      jump\t// out\n        /* \"#utility.yul\":8052:8232   */\n    tag_75:\n        /* \"#utility.yul\":8100:8177   */\n      0x4e487b7100000000000000000000000000000000000000000000000000000000\n        /* \"#utility.yul\":8097:8098   */\n      0x00\n        /* \"#utility.yul\":8090:8178   */\n      mstore\n        /* \"#utility.yul\":8197:8201   */\n      0x22\n        /* \"#utility.yul\":8194:8195   */\n      0x04\n        /* \"#utility.yul\":8187:8202   */\n      mstore\n        /* \"#utility.yul\":8221:8225   */\n      0x24\n        /* \"#utility.yul\":8218:8219   */\n      0x00\n        /* \"#utility.yul\":8211:8226   */\n      revert\n        /* \"#utility.yul\":8238:8558   */\n    tag_39:\n        /* \"#utility.yul\":8282:8288   */\n      0x00\n        /* \"#utility.yul\":8319:8320   */\n      0x02\n        /* \"#utility.yul\":8313:8317   */\n      dup3\n        /* \"#utility.yul\":8309:8321   */\n      div\n        /* \"#utility.yul\":8299:8321   */\n      swap1\n      pop\n        /* \"#utility.yul\":8366:8367   */\n      0x01\n        /* \"#utility.yul\":8360:8364   */\n      dup3\n        /* \"#utility.yul\":8356:8368   */\n      and\n        /* \"#utility.yul\":8387:8405   */\n      dup1\n        /* \"#utility.yul\":8377:8458   */\n      tag_175\n      jumpi\n        /* \"#utility.yul\":8443:8447   */\n      0x7f\n        /* \"#utility.yul\":8435:8441   */\n      dup3\n        /* \"#utility.yul\":8431:8448   */\n      and\n        /* \"#utility.yul\":8421:8448   */\n      swap2\n      pop\n        /* \"#utility.yul\":8377:8458   */\n    tag_175:\n        /* \"#utility.yul\":8505:8507   */\n      0x20\n        /* \"#utility.yul\":8497:8503   */\n      dup3\n        /* \"#utility.yul\":8494:8508   */\n      lt\n        /* \"#utility.yul\":8474:8492   */\n      dup2\n        /* \"#utility.yul\":8471:8509   */\n      sub\n        /* \"#utility.yul\":8468:8552   */\n      tag_176\n      jumpi\n        /* \"#utility.yul\":8524:8542   */\n      tag_177\n      tag_75\n      jump\t// in\n    tag_177:\n        /* \"#utility.yul\":8468:8552   */\n    tag_176:\n        /* \"#utility.yul\":8289:8558   */\n      pop\n        /* \"#utility.yul\":8238:8558   */\n      swap2\n      swap1\n      pop\n      jump\t// out\n        /* \"#utility.yul\":8564:8705   */\n    tag_76:\n        /* \"#utility.yul\":8613:8617   */\n      0x00\n        /* \"#utility.yul\":8636:8639   */\n      dup2\n        /* \"#utility.yul\":8628:8639   */\n      swap1\n      pop\n        /* \"#utility.yul\":8659:8662   */\n      dup2\n        /* \"#utility.yul\":8656:8657   */\n      0x00\n        /* \"#utility.yul\":8649:8663   */\n      mstore\n        /* \"#utility.yul\":8693:8697   */\n      0x20\n        /* \"#utility.yul\":8690:8691   */\n      0x00\n        /* \"#utility.yul\":8680:8698   */\n      keccak256\n        /* \"#utility.yul\":8672:8698   */\n      swap1\n      pop\n        /* \"#utility.yul\":8564:8705   */\n      swap2\n      swap1\n      pop\n      jump\t// out\n        /* \"#utility.yul\":8711:8804   */\n    tag_77:\n        /* \"#utility.yul\":8748:8754   */\n      0x00\n        /* \"#utility.yul\":8795:8797   */\n      0x20\n        /* \"#utility.yul\":8790:8792   */\n      0x1f\n        /* \"#utility.yul\":8783:8788   */\n      dup4\n        /* \"#utility.yul\":8779:8793   */\n      add\n        /* \"#utility.yul\":8775:8798   */\n      div\n        /* \"#utility.yul\":8765:8798   */\n      swap1\n      pop\n        /* \"#utility.yul\":8711:8804   */\n      swap2\n      swap1\n      pop\n      jump\t// out\n        /* \"#utility.yul\":8810:8917   */\n    tag_78:\n        /* \"#utility.yul\":8854:8862   */\n      0x00\n        /* \"#utility.yul\":8904:8909   */\n      dup3\n        /* \"#utility.yul\":8898:8902   */\n      dup3\n        /* \"#utility.yul\":8894:8910   */\n      shl\n        /* \"#utility.yul\":8873:8910   */\n      swap1\n      pop\n        /* \"#utility.yul\":8810:8917   */\n      swap3\n      swap2\n      pop\n      pop\n      jump\t// out\n        /* \"#utility.yul\":8923:9316   */\n    tag_79:\n        /* \"#utility.yul\":8992:8998   */\n      0x00\n        /* \"#utility.yul\":9042:9043   */\n      0x08\n        /* \"#utility.yul\":9030:9040   */\n      dup4\n        /* \"#utility.yul\":9026:9044   */\n      mul\n        /* \"#utility.yul\":9065:9162   */\n      tag_182\n        /* \"#utility.yul\":9095:9161   */\n      0xffffffffffffffffffffffffffffffffffffffffffffffffffffffffffffffff\n        /* \"#utility.yul\":9084:9093   */\n      dup3\n        /* \"#utility.yul\":9065:9162   */\n      tag_78\n      jump\t// in\n    tag_182:\n        /* \"#utility.yul\":9183:9222   */\n      tag_183\n        /* \"#utility.yul\":9213:9221   */\n      dup7\n        /* \"#utility.yul\":9202:9211   */\n      dup4\n        /* \"#utility.yul\":9183:9222   */\n      tag_78\n      jump\t// in\n    tag_183:\n        /* \"#utility.yul\":9171:9222   */\n      swap6\n      pop\n        /* \"#utility.yul\":9255:9259   */\n      dup1\n        /* \"#utility.yul\":9251:9260   */\n      not\n        /* \"#utility.yul\":9244:9249   */\n      dup5\n        /* \"#utility.yul\":9240:9261   */\n      and\n        /* \"#utility.yul\":9231:9261   */\n      swap4\n      pop\n        /* \"#utility.yul\":9304:9308   */\n      dup1\n        /* \"#utility.yul\":9294:9302   */\n      dup7\n        /* \"#utility.yul\":9290:9309   */\n      and\n        /* \"#utility.yul\":9283:9288   */\n      dup5\n        /* \"#utility.yul\":9280:9310   */\n      or\n        /* \"#utility.yul\":9270:9310   */\n      swap3\n      pop\n        /* \"#utility.yul\":8999:9316   */\n      pop\n      pop\n        /* \"#utility.yul\":8923:9316   */\n      swap4\n      swap3\n      pop\n      pop\n      pop\n      jump\t// out\n        /* \"#utility.yul\":9322:9382   */\n    tag_80:\n        /* \"#utility.yul\":9350:9353   */\n      0x00\n        /* \"#utility.yul\":9371:9376   */\n      dup2\n        /* \"#utility.yul\":9364:9376   */\n      swap1\n      pop\n        /* \"#utility.yul\":9322:9382   */\n      swap2\n      swap1\n      pop\n      jump\t// out\n        /* \"#utility.yul\":9388:9530   */\n    tag_81:\n        /* \"#utility.yul\":9438:9447   */\n      0x00\n        /* \"#utility.yul\":9471:9524   */\n      tag_186\n        /* \"#utility.yul\":9489:9523   */\n      tag_187\n        /* \"#utility.yul\":9498:9522   */\n      tag_188\n        /* \"#utility.yul\":9516:9521   */\n      dup5\n        /* \"#utility.yul\":9498:9522   */\n      tag_60\n      jump\t// in\n    tag_188:\n        /* \"#utility.yul\":9489:9523   */\n      tag_80\n      jump\t// in\n    tag_187:\n        /* \"#utility.yul\":9471:9524   */\n      tag_60\n      jump\t// in\n    tag_186:\n        /* \"#utility.yul\":9458:9524   */\n      swap1\n      pop\n        /* \"#utility.yul\":9388:9530   */\n      swap2\n      swap1\n      pop\n      jump\t// out\n        /* \"#utility.yul\":9536:9611   */\n    tag_82:\n        /* \"#utility.yul\":9579:9582   */\n      0x00\n        /* \"#utility.yul\":9600:9605   */\n      dup2\n        /* \"#utility.yul\":9593:9605   */\n      swap1\n      pop\n        /* \"#utility.yul\":9536:9611   */\n      swap2\n      swap1\n      pop\n      jump\t// out\n        /* \"#utility.yul\":9617:9886   */\n    tag_83:\n        /* \"#utility.yul\":9727:9766   */\n      tag_191\n        /* \"#utility.yul\":9758:9765   */\n      dup4\n        /* \"#utility.yul\":9727:9766   */\n      tag_81\n      jump\t// in\n    tag_191:\n        /* \"#utility.yul\":9788:9879   */\n      tag_192\n        /* \"#utility.yul\":9837:9878   */\n      tag_193\n        /* \"#utility.yul\":9861:9877   */\n      dup3\n        /* \"#utility.yul\":9837:9878   */\n      tag_82\n      jump\t// in\n    tag_193:\n        /* \"#utility.yul\":9829:9835   */\n      dup5\n        /* \"#utility.yul\":9822:9826   */\n      dup5\n        /* \"#utility.yul\":9816:9827   */\n      sload\n        /* \"#utility.yul\":9788:9879   */\n      tag_79\n      jump\t// in\n    tag_192:\n        /* \"#utility.yul\":9782:9786   */\n      dup3\n        /* \"#utility.yul\":9775:9880   */\n      sstore\n        /* \"#utility.yul\":9693:9886   */\n      pop\n        /* \"#utility.yul\":9617:9886   */\n      pop\n      pop\n      pop\n      jump\t// out\n        /* \"#utility.yul\":9892:9965   */\n    tag_84:\n        /* \"#utility.yul\":9937:9940   */\n      0x00\n        /* \"#utility.yul\":9892:9965   */\n      swap1\n      jump\t// out\n        /* \"#utility.yul\":9971:10160   */\n    tag_85:\n        /* \"#utility.yul\":10048:10080   */\n      tag_196\n      tag_84\n      jump\t// in\n    tag_196:\n        /* \"#utility.yul\":10089:10154   */\n      tag_197\n        /* \"#utility.yul\":10147:10153   */\n      dup2\n        /* \"#utility.yul\":10139:10145   */\n      dup5\n        /* \"#utility.yul\":10133:10137   */\n      dup5\n        /* \"#utility.yul\":10089:10154   */\n      tag_83\n      jump\t// in\n    tag_197:\n        /* \"#utility.yul\":10024:10160   */\n      pop\n        /* \"#utility.yul\":9971:10160   */\n      pop\n      pop\n      jump\t// out\n        /* \"#utility.yul\":10166:10352   */\n    tag_86:\n        /* \"#utility.yul\":10226:10346   */\n    tag_199:\n        /* \"#utility.yul\":10243:10246   */\n      dup2\n        /* \"#utility.yul\":10236:10241   */\n      dup2\n        /* \"#utility.yul\":10233:10247   */\n      lt\n        /* \"#utility.yul\":10226:10346   */\n      iszero\n      tag_201\n      jumpi\n        /* \"#utility.yul\":10297:10336   */\n      tag_202\n        /* \"#utility.yul\":10334:10335   */\n      0x00\n        /* \"#utility.yul\":10327:10332   */\n      dup3\n        /* \"#utility.yul\":10297:10336   */\n      tag_85\n      jump\t// in\n    tag_202:\n        /* \"#utility.yul\":10270:10271   */\n      0x01\n        /* \"#utility.yul\":10263:10268   */\n      dup2\n        /* \"#utility.yul\":10259:10272   */\n      add\n        /* \"#utility.yul\":10250:10272   */\n      swap1\n      pop\n        /* \"#utility.yul\":10226:10346   */\n      jump(tag_199)\n    tag_201:\n        /* \"#utility.yul\":10166:10352   */\n      pop\n      pop\n      jump\t// out\n        /* \"#utility.yul\":10358:10901   */\n    tag_87:\n        /* \"#utility.yul\":10459:10461   */\n      0x1f\n        /* \"#utility.yul\":10454:10457   */\n      dup3\n        /* \"#utility.yul\":10451:10462   */\n      gt\n        /* \"#utility.yul\":10448:10894   */\n      iszero\n      tag_204\n      jumpi\n        /* \"#utility.yul\":10493:10531   */\n      tag_205\n        /* \"#utility.yul\":10525:10530   */\n      dup2\n        /* \"#utility.yul\":10493:10531   */\n      tag_76\n      jump\t// in\n    tag_205:\n        /* \"#utility.yul\":10577:10606   */\n      tag_206\n        /* \"#utility.yul\":10595:10605   */\n      dup5\n        /* \"#utility.yul\":10577:10606   */\n      tag_77\n      jump\t// in\n    tag_206:\n        /* \"#utility.yul\":10567:10575   */\n      dup2\n        /* \"#utility.yul\":10563:10607   */\n      add\n        /* \"#utility.yul\":10760:10762   */\n      0x20\n        /* \"#utility.yul\":10748:10758   */\n      dup6\n        /* \"#utility.yul\":10745:10763   */\n      lt\n        /* \"#utility.yul\":10742:10791   */\n      iszero\n      tag_207\n      jumpi\n        /* \"#utility.yul\":10781:10789   */\n      dup2\n        /* \"#utility.yul\":10766:10789   */\n      swap1\n      pop\n        /* \"#utility.yul\":10742:10791   */\n    tag_207:\n        /* \"#utility.yul\":10804:10884   */\n      tag_208\n        /* \"#utility.yul\":10860:10882   */\n      tag_209\n        /* \"#utility.yul\":10878:10881   */\n      dup6\n        /* \"#utility.yul\":10860:10882   */\n      tag_77\n      jump\t// in\n    tag_209:\n        /* \"#utility.yul\":10850:10858   */\n      dup4\n        /* \"#utility.yul\":10846:10883   */\n      add\n        /* \"#utility.yul\":10833:10844   */\n      dup3\n        /* \"#utility.yul\":10804:10884   */\n      tag_86\n      jump\t// in\n    tag_208:\n        /* \"#utility.yul\":10463:10894   */\n      pop\n      pop\n        /* \"#utility.yul\":10448:10894   */\n    tag_204:\n        /* \"#utility.yul\":10358:10901   */\n      pop\n      pop\n      pop\n      jump\t// out\n        /* \"#utility.yul\":10907:11024   */\n    tag_88:\n        /* \"#utility.yul\":10961:10969   */\n      0x00\n        /* \"#utility.yul\":11011:11016   */\n      dup3\n        /* \"#utility.yul\":11005:11009   */\n      dup3\n        /* \"#utility.yul\":11001:11017   */\n      shr\n        /* \"#utility.yul\":10980:11017   */\n      swap1\n      pop\n        /* \"#utility.yul\":10907:11024   */\n      swap3\n      swap2\n      pop\n      pop\n      jump\t// out\n        /* \"#utility.yul\":11030:11199   */\n    tag_89:\n        /* \"#utility.yul\":11074:11080   */\n      0x00\n        /* \"#utility.yul\":11107:11158   */\n      tag_212\n        /* \"#utility.yul\":11155:11156   */\n      0x00\n        /* \"#utility.yul\":11151:11157   */\n      not\n        /* \"#utility.yul\":11143:11148   */\n      dup5\n        /* \"#utility.yul\":11140:11141   */\n      0x08\n        /* \"#utility.yul\":11136:11149   */\n      mul\n        /* \"#utility.yul\":11107:11158   */\n      tag_88\n      jump\t// in\n    tag_212:\n        /* \"#utility.yul\":11103:11159   */\n      not\n        /* \"#utility.yul\":11188:11192   */\n      dup1\n        /* \"#utility.yul\":11182:11186   */\n      dup4\n        /* \"#utility.yul\":11178:11193   */\n      and\n        /* \"#utility.yul\":11168:11193   */\n      swap2\n      pop\n        /* \"#utility.yul\":11081:11199   */\n      pop\n        /* \"#utility.yul\":11030:11199   */\n      swap3\n      swap2\n      pop\n      pop\n      jump\t// out\n        /* \"#utility.yul\":11204:11499   */\n    tag_90:\n        /* \"#utility.yul\":11280:11284   */\n      0x00\n        /* \"#utility.yul\":11426:11455   */\n      tag_214\n        /* \"#utility.yul\":11451:11454   */\n      dup4\n        /* \"#utility.yul\":11445:11449   */\n      dup4\n        /* \"#utility.yul\":11426:11455   */\n      tag_89\n      jump\t// in\n    tag_214:\n        /* \"#utility.yul\":11418:11455   */\n      swap2\n      pop\n        /* \"#utility.yul\":11488:11491   */\n      dup3\n        /* \"#utility.yul\":11485:11486   */\n      0x02\n        /* \"#utility.yul\":11481:11492   */\n      mul\n        /* \"#utility.yul\":11475:11479   */\n      dup3\n        /* \"#utility.yul\":11472:11493   */\n      or\n        /* \"#utility.yul\":11464:11493   */\n      swap1\n      pop\n        /* \"#utility.yul\":11204:11499   */\n      swap3\n      swap2\n      pop\n      pop\n      jump\t// out\n        /* \"#utility.yul\":11504:12899   */\n    tag_18:\n        /* \"#utility.yul\":11621:11658   */\n      tag_216\n        /* \"#utility.yul\":11654:11657   */\n      dup3\n        /* \"#utility.yul\":11621:11658   */\n      tag_66\n      jump\t// in\n    tag_216:\n        /* \"#utility.yul\":11723:11741   */\n      0xffffffffffffffff\n        /* \"#utility.yul\":11715:11721   */\n      dup2\n        /* \"#utility.yul\":11712:11742   */\n      gt\n        /* \"#utility.yul\":11709:11765   */\n      iszero\n      tag_217\n      jumpi\n        /* \"#utility.yul\":11745:11763   */\n      tag_218\n      tag_22\n      jump\t// in\n    tag_218:\n        /* \"#utility.yul\":11709:11765   */\n    tag_217:\n        /* \"#utility.yul\":11789:11827   */\n      tag_219\n        /* \"#utility.yul\":11821:11825   */\n      dup3\n        /* \"#utility.yul\":11815:11826   */\n      sload\n        /* \"#utility.yul\":11789:11827   */\n      tag_39\n      jump\t// in\n    tag_219:\n        /* \"#utility.yul\":11874:11941   */\n      tag_220\n        /* \"#utility.yul\":11934:11940   */\n      dup3\n        /* \"#utility.yul\":11926:11932   */\n      dup3\n        /* \"#utility.yul\":11920:11924   */\n      dup6\n        /* \"#utility.yul\":11874:11941   */\n      tag_87\n      jump\t// in\n    tag_220:\n        /* \"#utility.yul\":11968:11969   */\n      0x00\n        /* \"#utility.yul\":11992:11996   */\n      0x20\n        /* \"#utility.yul\":11979:11996   */\n      swap1\n      pop\n        /* \"#utility.yul\":12024:12026   */\n      0x1f\n        /* \"#utility.yul\":12016:12022   */\n      dup4\n        /* \"#utility.yul\":12013:12027   */\n      gt\n        /* \"#utility.yul\":12041:12042   */\n      0x01\n        /* \"#utility.yul\":12036:12654   */\n      dup2\n      eq\n      tag_222\n      jumpi\n        /* \"#utility.yul\":12698:12699   */\n      0x00\n        /* \"#utility.yul\":12715:12721   */\n      dup5\n        /* \"#utility.yul\":12712:12789   */\n      iszero\n      tag_223\n      jumpi\n        /* \"#utility.yul\":12764:12773   */\n      dup3\n        /* \"#utility.yul\":12759:12762   */\n      dup8\n        /* \"#utility.yul\":12755:12774   */\n      add\n        /* \"#utility.yul\":12749:12775   */\n      mload\n        /* \"#utility.yul\":12740:12775   */\n      swap1\n      pop\n        /* \"#utility.yul\":12712:12789   */\n    tag_223:\n        /* \"#utility.yul\":12815:12882   */\n      tag_224\n        /* \"#utility.yul\":12875:12881   */\n      dup6\n        /* \"#utility.yul\":12868:12873   */\n      dup3\n        /* \"#utility.yul\":12815:12882   */\n      tag_90\n      jump\t// in\n    tag_224:\n        /* \"#utility.yul\":12809:12813   */\n      dup7\n        /* \"#utility.yul\":12802:12883   */\n      sstore\n        /* \"#utility.yul\":12671:12893   */\n      pop\n        /* \"#utility.yul\":12006:12893   */\n      jump(tag_221)\n        /* \"#utility.yul\":12036:12654   */\n    tag_222:\n        /* \"#utility.yul\":12088:12092   */\n      0x1f\n        /* \"#utility.yul\":12084:12093   */\n      not\n        /* \"#utility.yul\":12076:12082   */\n      dup5\n        /* \"#utility.yul\":12072:12094   */\n      and\n        /* \"#utility.yul\":12122:12159   */\n      tag_225\n        /* \"#utility.yul\":12154:12158   */\n      dup7\n        /* \"#utility.yul\":12122:12159   */\n      tag_76\n      jump\t// in\n    tag_225:\n        /* \"#utility.yul\":12181:12182   */\n      0x00\n        /* \"#utility.yul\":12195:12403   */\n    tag_226:\n        /* \"#utility.yul\":12209:12216   */\n      dup3\n        /* \"#utility.yul\":12206:12207   */\n      dup2\n        /* \"#utility.yul\":12203:12217   */\n      lt\n        /* \"#utility.yul\":12195:12403   */\n      iszero\n      tag_228\n      jumpi\n        /* \"#utility.yul\":12288:12297   */\n      dup5\n        /* \"#utility.yul\":12283:12286   */\n      dup10\n        /* \"#utility.yul\":12279:12298   */\n      add\n        /* \"#utility.yul\":12273:12299   */\n      mload\n        /* \"#utility.yul\":12265:12271   */\n      dup3\n        /* \"#utility.yul\":12258:12300   */\n      sstore\n        /* \"#utility.yul\":12339:12340   */\n      0x01\n        /* \"#utility.yul\":12331:12337   */\n      dup3\n        /* \"#utility.yul\":12327:12341   */\n      add\n        /* \"#utility.yul\":12317:12341   */\n      swap2\n      pop\n        /* \"#utility.yul\":12386:12388   */\n      0x20\n        /* \"#utility.yul\":12375:12384   */\n      dup6\n        /* \"#utility.yul\":12371:12389   */\n      add\n        /* \"#utility.yul\":12358:12389   */\n      swap5\n      pop\n        /* \"#utility.yul\":12232:12236   */\n      0x20\n        /* \"#utility.yul\":12229:12230   */\n      dup2\n        /* \"#utility.yul\":12225:12237   */\n      add\n        /* \"#utility.yul\":12220:12237   */\n      swap1\n      pop\n        /* \"#utility.yul\":12195:12403   */\n      jump(tag_226)\n    tag_228:\n        /* \"#utility.yul\":12431:12437   */\n      dup7\n        /* \"#utility.yul\":12422:12429   */\n      dup4\n        /* \"#utility.yul\":12419:12438   */\n      lt\n        /* \"#utility.yul\":12416:12595   */\n      iszero\n      tag_229\n      jumpi\n        /* \"#utility.yul\":12489:12498   */\n      dup5\n        /* \"#utility.yul\":12484:12487   */\n      dup10\n        /* \"#utility.yul\":12480:12499   */\n      add\n        /* \"#utility.yul\":12474:12500   */\n      mload\n        /* \"#utility.yul\":12532:12580   */\n      tag_230\n        /* \"#utility.yul\":12574:12578   */\n      0x1f\n        /* \"#utility.yul\":12566:12572   */\n      dup10\n        /* \"#utility.yul\":12562:12579   */\n      and\n        /* \"#utility.yul\":12551:12560   */\n      dup3\n        /* \"#utility.yul\":12532:12580   */\n      tag_89\n      jump\t// in\n    tag_230:\n        /* \"#utility.yul\":12524:12530   */\n      dup4\n        /* \"#utility.yul\":12517:12581   */\n      sstore\n        /* \"#utility.yul\":12439:12595   */\n      pop\n        /* \"#utility.yul\":12416:12595   */\n    tag_229:\n        /* \"#utility.yul\":12641:12642   */\n      0x01\n        /* \"#utility.yul\":12637:12638   */\n      0x02\n        /* \"#utility.yul\":12629:12635   */\n      dup9\n        /* \"#utility.yul\":12625:12639   */\n      mul\n        /* \"#utility.yul\":12621:12643   */\n      add\n        /* \"#utility.yul\":12615:12619   */\n      dup9\n        /* \"#utility.yul\":12608:12644   */\n      sstore\n        /* \"#utility.yul\":12043:12654   */\n      pop\n      pop\n      pop\n        /* \"#utility.yul\":12006:12893   */\n    tag_221:\n      pop\n        /* \"#utility.yul\":11596:12899   */\n      pop\n      pop\n      pop\n        /* \"#utility.yul\":11504:12899   */\n      pop\n      pop\n      jump\t// out\n        /* \"#utility.yul\":12905:13085   */\n    tag_32:\n        /* \"#utility.yul\":12953:13030   */\n      0x4e487b7100000000000000000000000000000000000000000000000000000000\n        /* \"#utility.yul\":12950:12951   */\n      0x00\n        /* \"#utility.yul\":12943:13031   */\n      mstore\n        /* \"#utility.yul\":13050:13054   */\n      0x32\n        /* \"#utility.yul\":13047:13048   */\n      0x04\n        /* \"#utility.yul\":13040:13055   */\n      mstore\n        /* \"#utility.yul\":13074:13078   */\n      0x24\n        /* \"#utility.yul\":13071:13072   */\n      0x00\n        /* \"#utility.yul\":13064:13079   */\n      revert\n        /* \"#utility.yul\":13091:13271   */\n    tag_91:\n        /* \"#utility.yul\":13139:13216   */\n      0x4e487b7100000000000000000000000000000000000000000000000000000000\n        /* \"#utility.yul\":13136:13137   */\n      0x00\n        /* \"#utility.yul\":13129:13217   */\n      mstore\n        /* \"#utility.yul\":13236:13240   */\n      0x11\n        /* \"#utility.yul\":13233:13234   */\n      0x04\n        /* \"#utility.yul\":13226:13241   */\n      mstore\n        /* \"#utility.yul\":13260:13264   */\n      0x24\n        /* \"#utility.yul\":13257:13258   */\n      0x00\n        /* \"#utility.yul\":13250:13265   */\n      revert\n        /* \"#utility.yul\":13277:13510   */\n    tag_47:\n        /* \"#utility.yul\":13316:13319   */\n      0x00\n        /* \"#utility.yul\":13339:13363   */\n      tag_234\n        /* \"#utility.yul\":13357:13362   */\n      dup3\n        /* \"#utility.yul\":13339:13363   */\n      tag_60\n      jump\t// in\n    tag_234:\n        /* \"#utility.yul\":13330:13363   */\n      swap2\n      pop\n        /* \"#utility.yul\":13385:13451   */\n      0xffffffffffffffffffffffffffffffffffffffffffffffffffffffffffffffff\n        /* \"#utility.yul\":13378:13383   */\n      dup3\n        /* \"#utility.yul\":13375:13452   */\n      sub\n        /* \"#utility.yul\":13372:13475   */\n      tag_235\n      jumpi\n        /* \"#utility.yul\":13455:13473   */\n      tag_236\n      tag_91\n      jump\t// in\n    tag_236:\n        /* \"#utility.yul\":13372:13475   */\n    tag_235:\n        /* \"#utility.yul\":13502:13503   */\n      0x01\n        /* \"#utility.yul\":13495:13500   */\n      dup3\n        /* \"#utility.yul\":13491:13504   */\n      add\n        /* \"#utility.yul\":13484:13504   */\n      swap1\n      pop\n        /* \"#utility.yul\":13277:13510   */\n      swap2\n      swap1\n      pop\n      jump\t// out\n\n    auxdata: 0xa26469706673582212208baa14b9d1b27797d17fd36c4f63c0fbd86d8f4546757748ab4f5667d463a21364736f6c634300080f0033\n}\n",
				"bytecode": {
					"linkReferences": {},
					"object": "608060405234801561001057600080fd5b50610a32806100206000396000f3fe608060405234801561001057600080fd5b50600436106100365760003560e01c806336555b851461003b57806391bbec1a14610057575b600080fd5b61005560048036038101906100509190610437565b610087565b005b610071600480360381019061006c9190610493565b6100ed565b60405161007e9190610656565b60405180910390f35b6000604051806040016040528084815260200183815250908060018154018082558091505060019003906000526020600020906002020160009091909190915060008201518160000190816100dc9190610884565b506020820151816001015550505050565b60606000808054905067ffffffffffffffff81111561010f5761010e6102d6565b5b60405190808252806020026020018201604052801561014857816020015b61013561028d565b81526020019060019003908161012d5790505b50905060005b6000805490508110156102835783600082815481106101705761016f610956565b5b9060005260206000209060020201600101541015610270576000818154811061019c5761019b610956565b5b90600052602060002090600202016040518060400160405290816000820180546101c5906106a7565b80601f01602080910402602001604051908101604052809291908181526020018280546101f1906106a7565b801561023e5780601f106102135761010080835404028352916020019161023e565b820191906000526020600020905b81548152906001019060200180831161022157829003601f168201915b5050505050815260200160018201548152505082828151811061026457610263610956565b5b60200260200101819052505b808061027b906109b4565b91505061014e565b5080915050919050565b604051806040016040528060608152602001600081525090565b6000604051905090565b600080fd5b600080fd5b600080fd5b600080fd5b6000601f19601f8301169050919050565b7f4e487b7100000000000000000000000000000000000000000000000000000000600052604160045260246000fd5b61030e826102c5565b810181811067ffffffffffffffff8211171561032d5761032c6102d6565b5b80604052505050565b60006103406102a7565b905061034c8282610305565b919050565b600067ffffffffffffffff82111561036c5761036b6102d6565b5b610375826102c5565b9050602081019050919050565b82818337600083830152505050565b60006103a461039f84610351565b610336565b9050828152602081018484840111156103c0576103bf6102c0565b5b6103cb848285610382565b509392505050565b600082601f8301126103e8576103e76102bb565b5b81356103f8848260208601610391565b91505092915050565b6000819050919050565b61041481610401565b811461041f57600080fd5b50565b6000813590506104318161040b565b92915050565b6000806040838503121561044e5761044d6102b1565b5b600083013567ffffffffffffffff81111561046c5761046b6102b6565b5b610478858286016103d3565b925050602061048985828601610422565b9150509250929050565b6000602082840312156104a9576104a86102b1565b5b60006104b784828501610422565b91505092915050565b600081519050919050565b600082825260208201905092915050565b6000819050602082019050919050565b600081519050919050565b600082825260208201905092915050565b60005b8381101561052657808201518184015260208101905061050b565b83811115610535576000848401525b50505050565b6000610546826104ec565b61055081856104f7565b9350610560818560208601610508565b610569816102c5565b840191505092915050565b61057d81610401565b82525050565b600060408301600083015184820360008601526105a0828261053b565b91505060208301516105b56020860182610574565b508091505092915050565b60006105cc8383610583565b905092915050565b6000602082019050919050565b60006105ec826104c0565b6105f681856104cb565b935083602082028501610608856104dc565b8060005b85811015610644578484038952815161062585826105c0565b9450610630836105d4565b925060208a0199505060018101905061060c565b50829750879550505050505092915050565b6000602082019050818103600083015261067081846105e1565b905092915050565b7f4e487b7100000000000000000000000000000000000000000000000000000000600052602260045260246000fd5b600060028204905060018216806106bf57607f821691505b6020821081036106d2576106d1610678565b5b50919050565b60008190508160005260206000209050919050565b60006020601f8301049050919050565b600082821b905092915050565b60006008830261073a7fffffffffffffffffffffffffffffffffffffffffffffffffffffffffffffffff826106fd565b61074486836106fd565b95508019841693508086168417925050509392505050565b6000819050919050565b600061078161077c61077784610401565b61075c565b610401565b9050919050565b6000819050919050565b61079b83610766565b6107af6107a782610788565b84845461070a565b825550505050565b600090565b6107c46107b7565b6107cf818484610792565b505050565b5b818110156107f3576107e86000826107bc565b6001810190506107d5565b5050565b601f82111561083857610809816106d8565b610812846106ed565b81016020851015610821578190505b61083561082d856106ed565b8301826107d4565b50505b505050565b600082821c905092915050565b600061085b6000198460080261083d565b1980831691505092915050565b6000610874838361084a565b9150826002028217905092915050565b61088d826104ec565b67ffffffffffffffff8111156108a6576108a56102d6565b5b6108b082546106a7565b6108bb8282856107f7565b600060209050601f8311600181146108ee57600084156108dc578287015190505b6108e68582610868565b86555061094e565b601f1984166108fc866106d8565b60005b82811015610924578489015182556001820191506020850194506020810190506108ff565b86831015610941578489015161093d601f89168261084a565b8355505b6001600288020188555050505b505050505050565b7f4e487b7100000000000000000000000000000000000000000000000000000000600052603260045260246000fd5b7f4e487b7100000000000000000000000000000000000000000000000000000000600052601160045260246000fd5b60006109bf82610401565b91507fffffffffffffffffffffffffffffffffffffffffffffffffffffffffffffffff82036109f1576109f0610985565b5b60018201905091905056fea26469706673582212208baa14b9d1b27797d17fd36c4f63c0fbd86d8f4546757748ab4f5667d463a21364736f6c634300080f0033",
					"opcodes": "PUSH1 0x80 PUSH1 0x40 MSTORE CALLVALUE DUP1 ISZERO PUSH2 0x10 JUMPI PUSH1 0x0 DUP1 REVERT JUMPDEST POP PUSH2 0xA32 DUP1 PUSH2 0x20 PUSH1 0x0 CODECOPY PUSH1 0x0 RETURN INVALID PUSH1 0x80 PUSH1 0x40 MSTORE CALLVALUE DUP1 ISZERO PUSH2 0x10 JUMPI PUSH1 0x0 DUP1 REVERT JUMPDEST POP PUSH1 0x4 CALLDATASIZE LT PUSH2 0x36 JUMPI PUSH1 0x0 CALLDATALOAD PUSH1 0xE0 SHR DUP1 PUSH4 0x36555B85 EQ PUSH2 0x3B JUMPI DUP1 PUSH4 0x91BBEC1A EQ PUSH2 0x57 JUMPI JUMPDEST PUSH1 0x0 DUP1 REVERT JUMPDEST PUSH2 0x55 PUSH1 0x4 DUP1 CALLDATASIZE SUB DUP2 ADD SWAP1 PUSH2 0x50 SWAP2 SWAP1 PUSH2 0x437 JUMP JUMPDEST PUSH2 0x87 JUMP JUMPDEST STOP JUMPDEST PUSH2 0x71 PUSH1 0x4 DUP1 CALLDATASIZE SUB DUP2 ADD SWAP1 PUSH2 0x6C SWAP2 SWAP1 PUSH2 0x493 JUMP JUMPDEST PUSH2 0xED JUMP JUMPDEST PUSH1 0x40 MLOAD PUSH2 0x7E SWAP2 SWAP1 PUSH2 0x656 JUMP JUMPDEST PUSH1 0x40 MLOAD DUP1 SWAP2 SUB SWAP1 RETURN JUMPDEST PUSH1 0x0 PUSH1 0x40 MLOAD DUP1 PUSH1 0x40 ADD PUSH1 0x40 MSTORE DUP1 DUP5 DUP2 MSTORE PUSH1 0x20 ADD DUP4 DUP2 MSTORE POP SWAP1 DUP1 PUSH1 0x1 DUP2 SLOAD ADD DUP1 DUP3 SSTORE DUP1 SWAP2 POP POP PUSH1 0x1 SWAP1 SUB SWAP1 PUSH1 0x0 MSTORE PUSH1 0x20 PUSH1 0x0 KECCAK256 SWAP1 PUSH1 0x2 MUL ADD PUSH1 0x0 SWAP1 SWAP2 SWAP1 SWAP2 SWAP1 SWAP2 POP PUSH1 0x0 DUP3 ADD MLOAD DUP2 PUSH1 0x0 ADD SWAP1 DUP2 PUSH2 0xDC SWAP2 SWAP1 PUSH2 0x884 JUMP JUMPDEST POP PUSH1 0x20 DUP3 ADD MLOAD DUP2 PUSH1 0x1 ADD SSTORE POP POP POP POP JUMP JUMPDEST PUSH1 0x60 PUSH1 0x0 DUP1 DUP1 SLOAD SWAP1 POP PUSH8 0xFFFFFFFFFFFFFFFF DUP2 GT ISZERO PUSH2 0x10F JUMPI PUSH2 0x10E PUSH2 0x2D6 JUMP JUMPDEST JUMPDEST PUSH1 0x40 MLOAD SWAP1 DUP1 DUP3 MSTORE DUP1 PUSH1 0x20 MUL PUSH1 0x20 ADD DUP3 ADD PUSH1 0x40 MSTORE DUP1 ISZERO PUSH2 0x148 JUMPI DUP2 PUSH1 0x20 ADD JUMPDEST PUSH2 0x135 PUSH2 0x28D JUMP JUMPDEST DUP2 MSTORE PUSH1 0x20 ADD SWAP1 PUSH1 0x1 SWAP1 SUB SWAP1 DUP2 PUSH2 0x12D JUMPI SWAP1 POP JUMPDEST POP SWAP1 POP PUSH1 0x0 JUMPDEST PUSH1 0x0 DUP1 SLOAD SWAP1 POP DUP2 LT ISZERO PUSH2 0x283 JUMPI DUP4 PUSH1 0x0 DUP3 DUP2 SLOAD DUP2 LT PUSH2 0x170 JUMPI PUSH2 0x16F PUSH2 0x956 JUMP JUMPDEST JUMPDEST SWAP1 PUSH1 0x0 MSTORE PUSH1 0x20 PUSH1 0x0 KECCAK256 SWAP1 PUSH1 0x2 MUL ADD PUSH1 0x1 ADD SLOAD LT ISZERO PUSH2 0x270 JUMPI PUSH1 0x0 DUP2 DUP2 SLOAD DUP2 LT PUSH2 0x19C JUMPI PUSH2 0x19B PUSH2 0x956 JUMP JUMPDEST JUMPDEST SWAP1 PUSH1 0x0 MSTORE PUSH1 0x20 PUSH1 0x0 KECCAK256 SWAP1 PUSH1 0x2 MUL ADD PUSH1 0x40 MLOAD DUP1 PUSH1 0x40 ADD PUSH1 0x40 MSTORE SWAP1 DUP2 PUSH1 0x0 DUP3 ADD DUP1 SLOAD PUSH2 0x1C5 SWAP1 PUSH2 0x6A7 JUMP JUMPDEST DUP1 PUSH1 0x1F ADD PUSH1 0x20 DUP1 SWAP2 DIV MUL PUSH1 0x20 ADD PUSH1 0x40 MLOAD SWAP1 DUP2 ADD PUSH1 0x40 MSTORE DUP1 SWAP3 SWAP2 SWAP1 DUP2 DUP2 MSTORE PUSH1 0x20 ADD DUP3 DUP1 SLOAD PUSH2 0x1F1 SWAP1 PUSH2 0x6A7 JUMP JUMPDEST DUP1 ISZERO PUSH2 0x23E JUMPI DUP1 PUSH1 0x1F LT PUSH2 0x213 JUMPI PUSH2 0x100 DUP1 DUP4 SLOAD DIV MUL DUP4 MSTORE SWAP2 PUSH1 0x20 ADD SWAP2 PUSH2 0x23E JUMP JUMPDEST DUP3 ADD SWAP2 SWAP1 PUSH1 0x0 MSTORE PUSH1 0x20 PUSH1 0x0 KECCAK256 SWAP1 JUMPDEST DUP2 SLOAD DUP2 MSTORE SWAP1 PUSH1 0x1 ADD SWAP1 PUSH1 0x20 ADD DUP1 DUP4 GT PUSH2 0x221 JUMPI DUP3 SWAP1 SUB PUSH1 0x1F AND DUP3 ADD SWAP2 JUMPDEST POP POP POP POP POP DUP2 MSTORE PUSH1 0x20 ADD PUSH1 0x1 DUP3 ADD SLOAD DUP2 MSTORE POP POP DUP3 DUP3 DUP2 MLOAD DUP2 LT PUSH2 0x264 JUMPI PUSH2 0x263 PUSH2 0x956 JUMP JUMPDEST JUMPDEST PUSH1 0x20 MUL PUSH1 0x20 ADD ADD DUP2 SWAP1 MSTORE POP JUMPDEST DUP1 DUP1 PUSH2 0x27B SWAP1 PUSH2 0x9B4 JUMP JUMPDEST SWAP2 POP POP PUSH2 0x14E JUMP JUMPDEST POP DUP1 SWAP2 POP POP SWAP2 SWAP1 POP JUMP JUMPDEST PUSH1 0x40 MLOAD DUP1 PUSH1 0x40 ADD PUSH1 0x40 MSTORE DUP1 PUSH1 0x60 DUP2 MSTORE PUSH1 0x20 ADD PUSH1 0x0 DUP2 MSTORE POP SWAP1 JUMP JUMPDEST PUSH1 0x0 PUSH1 0x40 MLOAD SWAP1 POP SWAP1 JUMP JUMPDEST PUSH1 0x0 DUP1 REVERT JUMPDEST PUSH1 0x0 DUP1 REVERT JUMPDEST PUSH1 0x0 DUP1 REVERT JUMPDEST PUSH1 0x0 DUP1 REVERT JUMPDEST PUSH1 0x0 PUSH1 0x1F NOT PUSH1 0x1F DUP4 ADD AND SWAP1 POP SWAP2 SWAP1 POP JUMP JUMPDEST PUSH32 0x4E487B7100000000000000000000000000000000000000000000000000000000 PUSH1 0x0 MSTORE PUSH1 0x41 PUSH1 0x4 MSTORE PUSH1 0x24 PUSH1 0x0 REVERT JUMPDEST PUSH2 0x30E DUP3 PUSH2 0x2C5 JUMP JUMPDEST DUP2 ADD DUP2 DUP2 LT PUSH8 0xFFFFFFFFFFFFFFFF DUP3 GT OR ISZERO PUSH2 0x32D JUMPI PUSH2 0x32C PUSH2 0x2D6 JUMP JUMPDEST JUMPDEST DUP1 PUSH1 0x40 MSTORE POP POP POP JUMP JUMPDEST PUSH1 0x0 PUSH2 0x340 PUSH2 0x2A7 JUMP JUMPDEST SWAP1 POP PUSH2 0x34C DUP3 DUP3 PUSH2 0x305 JUMP JUMPDEST SWAP2 SWAP1 POP JUMP JUMPDEST PUSH1 0x0 PUSH8 0xFFFFFFFFFFFFFFFF DUP3 GT ISZERO PUSH2 0x36C JUMPI PUSH2 0x36B PUSH2 0x2D6 JUMP JUMPDEST JUMPDEST PUSH2 0x375 DUP3 PUSH2 0x2C5 JUMP JUMPDEST SWAP1 POP PUSH1 0x20 DUP2 ADD SWAP1 POP SWAP2 SWAP1 POP JUMP JUMPDEST DUP3 DUP2 DUP4 CALLDATACOPY PUSH1 0x0 DUP4 DUP4 ADD MSTORE POP POP POP JUMP JUMPDEST PUSH1 0x0 PUSH2 0x3A4 PUSH2 0x39F DUP5 PUSH2 0x351 JUMP JUMPDEST PUSH2 0x336 JUMP JUMPDEST SWAP1 POP DUP3 DUP2 MSTORE PUSH1 0x20 DUP2 ADD DUP5 DUP5 DUP5 ADD GT ISZERO PUSH2 0x3C0 JUMPI PUSH2 0x3BF PUSH2 0x2C0 JUMP JUMPDEST JUMPDEST PUSH2 0x3CB DUP5 DUP3 DUP6 PUSH2 0x382 JUMP JUMPDEST POP SWAP4 SWAP3 POP POP POP JUMP JUMPDEST PUSH1 0x0 DUP3 PUSH1 0x1F DUP4 ADD SLT PUSH2 0x3E8 JUMPI PUSH2 0x3E7 PUSH2 0x2BB JUMP JUMPDEST JUMPDEST DUP2 CALLDATALOAD PUSH2 0x3F8 DUP5 DUP3 PUSH1 0x20 DUP7 ADD PUSH2 0x391 JUMP JUMPDEST SWAP2 POP POP SWAP3 SWAP2 POP POP JUMP JUMPDEST PUSH1 0x0 DUP2 SWAP1 POP SWAP2 SWAP1 POP JUMP JUMPDEST PUSH2 0x414 DUP2 PUSH2 0x401 JUMP JUMPDEST DUP2 EQ PUSH2 0x41F JUMPI PUSH1 0x0 DUP1 REVERT JUMPDEST POP JUMP JUMPDEST PUSH1 0x0 DUP2 CALLDATALOAD SWAP1 POP PUSH2 0x431 DUP2 PUSH2 0x40B JUMP JUMPDEST SWAP3 SWAP2 POP POP JUMP JUMPDEST PUSH1 0x0 DUP1 PUSH1 0x40 DUP4 DUP6 SUB SLT ISZERO PUSH2 0x44E JUMPI PUSH2 0x44D PUSH2 0x2B1 JUMP JUMPDEST JUMPDEST PUSH1 0x0 DUP4 ADD CALLDATALOAD PUSH8 0xFFFFFFFFFFFFFFFF DUP2 GT ISZERO PUSH2 0x46C JUMPI PUSH2 0x46B PUSH2 0x2B6 JUMP JUMPDEST JUMPDEST PUSH2 0x478 DUP6 DUP3 DUP7 ADD PUSH2 0x3D3 JUMP JUMPDEST SWAP3 POP POP PUSH1 0x20 PUSH2 0x489 DUP6 DUP3 DUP7 ADD PUSH2 0x422 JUMP JUMPDEST SWAP2 POP POP SWAP3 POP SWAP3 SWAP1 POP JUMP JUMPDEST PUSH1 0x0 PUSH1 0x20 DUP3 DUP5 SUB SLT ISZERO PUSH2 0x4A9 JUMPI PUSH2 0x4A8 PUSH2 0x2B1 JUMP JUMPDEST JUMPDEST PUSH1 0x0 PUSH2 0x4B7 DUP5 DUP3 DUP6 ADD PUSH2 0x422 JUMP JUMPDEST SWAP2 POP POP SWAP3 SWAP2 POP POP JUMP JUMPDEST PUSH1 0x0 DUP2 MLOAD SWAP1 POP SWAP2 SWAP1 POP JUMP JUMPDEST PUSH1 0x0 DUP3 DUP3 MSTORE PUSH1 0x20 DUP3 ADD SWAP1 POP SWAP3 SWAP2 POP POP JUMP JUMPDEST PUSH1 0x0 DUP2 SWAP1 POP PUSH1 0x20 DUP3 ADD SWAP1 POP SWAP2 SWAP1 POP JUMP JUMPDEST PUSH1 0x0 DUP2 MLOAD SWAP1 POP SWAP2 SWAP1 POP JUMP JUMPDEST PUSH1 0x0 DUP3 DUP3 MSTORE PUSH1 0x20 DUP3 ADD SWAP1 POP SWAP3 SWAP2 POP POP JUMP JUMPDEST PUSH1 0x0 JUMPDEST DUP4 DUP2 LT ISZERO PUSH2 0x526 JUMPI DUP1 DUP3 ADD MLOAD DUP2 DUP5 ADD MSTORE PUSH1 0x20 DUP2 ADD SWAP1 POP PUSH2 0x50B JUMP JUMPDEST DUP4 DUP2 GT ISZERO PUSH2 0x535 JUMPI PUSH1 0x0 DUP5 DUP5 ADD MSTORE JUMPDEST POP POP POP POP JUMP JUMPDEST PUSH1 0x0 PUSH2 0x546 DUP3 PUSH2 0x4EC JUMP JUMPDEST PUSH2 0x550 DUP2 DUP6 PUSH2 0x4F7 JUMP JUMPDEST SWAP4 POP PUSH2 0x560 DUP2 DUP6 PUSH1 0x20 DUP7 ADD PUSH2 0x508 JUMP JUMPDEST PUSH2 0x569 DUP2 PUSH2 0x2C5 JUMP JUMPDEST DUP5 ADD SWAP2 POP POP SWAP3 SWAP2 POP POP JUMP JUMPDEST PUSH2 0x57D DUP2 PUSH2 0x401 JUMP JUMPDEST DUP3 MSTORE POP POP JUMP JUMPDEST PUSH1 0x0 PUSH1 0x40 DUP4 ADD PUSH1 0x0 DUP4 ADD MLOAD DUP5 DUP3 SUB PUSH1 0x0 DUP7 ADD MSTORE PUSH2 0x5A0 DUP3 DUP3 PUSH2 0x53B JUMP JUMPDEST SWAP2 POP POP PUSH1 0x20 DUP4 ADD MLOAD PUSH2 0x5B5 PUSH1 0x20 DUP7 ADD DUP3 PUSH2 0x574 JUMP JUMPDEST POP DUP1 SWAP2 POP POP SWAP3 SWAP2 POP POP JUMP JUMPDEST PUSH1 0x0 PUSH2 0x5CC DUP4 DUP4 PUSH2 0x583 JUMP JUMPDEST SWAP1 POP SWAP3 SWAP2 POP POP JUMP JUMPDEST PUSH1 0x0 PUSH1 0x20 DUP3 ADD SWAP1 POP SWAP2 SWAP1 POP JUMP JUMPDEST PUSH1 0x0 PUSH2 0x5EC DUP3 PUSH2 0x4C0 JUMP JUMPDEST PUSH2 0x5F6 DUP2 DUP6 PUSH2 0x4CB JUMP JUMPDEST SWAP4 POP DUP4 PUSH1 0x20 DUP3 MUL DUP6 ADD PUSH2 0x608 DUP6 PUSH2 0x4DC JUMP JUMPDEST DUP1 PUSH1 0x0 JUMPDEST DUP6 DUP2 LT ISZERO PUSH2 0x644 JUMPI DUP5 DUP5 SUB DUP10 MSTORE DUP2 MLOAD PUSH2 0x625 DUP6 DUP3 PUSH2 0x5C0 JUMP JUMPDEST SWAP5 POP PUSH2 0x630 DUP4 PUSH2 0x5D4 JUMP JUMPDEST SWAP3 POP PUSH1 0x20 DUP11 ADD SWAP10 POP POP PUSH1 0x1 DUP2 ADD SWAP1 POP PUSH2 0x60C JUMP JUMPDEST POP DUP3 SWAP8 POP DUP8 SWAP6 POP POP POP POP POP POP SWAP3 SWAP2 POP POP JUMP JUMPDEST PUSH1 0x0 PUSH1 0x20 DUP3 ADD SWAP1 POP DUP2 DUP2 SUB PUSH1 0x0 DUP4 ADD MSTORE PUSH2 0x670 DUP2 DUP5 PUSH2 0x5E1 JUMP JUMPDEST SWAP1 POP SWAP3 SWAP2 POP POP JUMP JUMPDEST PUSH32 0x4E487B7100000000000000000000000000000000000000000000000000000000 PUSH1 0x0 MSTORE PUSH1 0x22 PUSH1 0x4 MSTORE PUSH1 0x24 PUSH1 0x0 REVERT JUMPDEST PUSH1 0x0 PUSH1 0x2 DUP3 DIV SWAP1 POP PUSH1 0x1 DUP3 AND DUP1 PUSH2 0x6BF JUMPI PUSH1 0x7F DUP3 AND SWAP2 POP JUMPDEST PUSH1 0x20 DUP3 LT DUP2 SUB PUSH2 0x6D2 JUMPI PUSH2 0x6D1 PUSH2 0x678 JUMP JUMPDEST JUMPDEST POP SWAP2 SWAP1 POP JUMP JUMPDEST PUSH1 0x0 DUP2 SWAP1 POP DUP2 PUSH1 0x0 MSTORE PUSH1 0x20 PUSH1 0x0 KECCAK256 SWAP1 POP SWAP2 SWAP1 POP JUMP JUMPDEST PUSH1 0x0 PUSH1 0x20 PUSH1 0x1F DUP4 ADD DIV SWAP1 POP SWAP2 SWAP1 POP JUMP JUMPDEST PUSH1 0x0 DUP3 DUP3 SHL SWAP1 POP SWAP3 SWAP2 POP POP JUMP JUMPDEST PUSH1 0x0 PUSH1 0x8 DUP4 MUL PUSH2 0x73A PUSH32 0xFFFFFFFFFFFFFFFFFFFFFFFFFFFFFFFFFFFFFFFFFFFFFFFFFFFFFFFFFFFFFFFF DUP3 PUSH2 0x6FD JUMP JUMPDEST PUSH2 0x744 DUP7 DUP4 PUSH2 0x6FD JUMP JUMPDEST SWAP6 POP DUP1 NOT DUP5 AND SWAP4 POP DUP1 DUP7 AND DUP5 OR SWAP3 POP POP POP SWAP4 SWAP3 POP POP POP JUMP JUMPDEST PUSH1 0x0 DUP2 SWAP1 POP SWAP2 SWAP1 POP JUMP JUMPDEST PUSH1 0x0 PUSH2 0x781 PUSH2 0x77C PUSH2 0x777 DUP5 PUSH2 0x401 JUMP JUMPDEST PUSH2 0x75C JUMP JUMPDEST PUSH2 0x401 JUMP JUMPDEST SWAP1 POP SWAP2 SWAP1 POP JUMP JUMPDEST PUSH1 0x0 DUP2 SWAP1 POP SWAP2 SWAP1 POP JUMP JUMPDEST PUSH2 0x79B DUP4 PUSH2 0x766 JUMP JUMPDEST PUSH2 0x7AF PUSH2 0x7A7 DUP3 PUSH2 0x788 JUMP JUMPDEST DUP5 DUP5 SLOAD PUSH2 0x70A JUMP JUMPDEST DUP3 SSTORE POP POP POP POP JUMP JUMPDEST PUSH1 0x0 SWAP1 JUMP JUMPDEST PUSH2 0x7C4 PUSH2 0x7B7 JUMP JUMPDEST PUSH2 0x7CF DUP2 DUP5 DUP5 PUSH2 0x792 JUMP JUMPDEST POP POP POP JUMP JUMPDEST JUMPDEST DUP2 DUP2 LT ISZERO PUSH2 0x7F3 JUMPI PUSH2 0x7E8 PUSH1 0x0 DUP3 PUSH2 0x7BC JUMP JUMPDEST PUSH1 0x1 DUP2 ADD SWAP1 POP PUSH2 0x7D5 JUMP JUMPDEST POP POP JUMP JUMPDEST PUSH1 0x1F DUP3 GT ISZERO PUSH2 0x838 JUMPI PUSH2 0x809 DUP2 PUSH2 0x6D8 JUMP JUMPDEST PUSH2 0x812 DUP5 PUSH2 0x6ED JUMP JUMPDEST DUP2 ADD PUSH1 0x20 DUP6 LT ISZERO PUSH2 0x821 JUMPI DUP2 SWAP1 POP JUMPDEST PUSH2 0x835 PUSH2 0x82D DUP6 PUSH2 0x6ED JUMP JUMPDEST DUP4 ADD DUP3 PUSH2 0x7D4 JUMP JUMPDEST POP POP JUMPDEST POP POP POP JUMP JUMPDEST PUSH1 0x0 DUP3 DUP3 SHR SWAP1 POP SWAP3 SWAP2 POP POP JUMP JUMPDEST PUSH1 0x0 PUSH2 0x85B PUSH1 0x0 NOT DUP5 PUSH1 0x8 MUL PUSH2 0x83D JUMP JUMPDEST NOT DUP1 DUP4 AND SWAP2 POP POP SWAP3 SWAP2 POP POP JUMP JUMPDEST PUSH1 0x0 PUSH2 0x874 DUP4 DUP4 PUSH2 0x84A JUMP JUMPDEST SWAP2 POP DUP3 PUSH1 0x2 MUL DUP3 OR SWAP1 POP SWAP3 SWAP2 POP POP JUMP JUMPDEST PUSH2 0x88D DUP3 PUSH2 0x4EC JUMP JUMPDEST PUSH8 0xFFFFFFFFFFFFFFFF DUP2 GT ISZERO PUSH2 0x8A6 JUMPI PUSH2 0x8A5 PUSH2 0x2D6 JUMP JUMPDEST JUMPDEST PUSH2 0x8B0 DUP3 SLOAD PUSH2 0x6A7 JUMP JUMPDEST PUSH2 0x8BB DUP3 DUP3 DUP6 PUSH2 0x7F7 JUMP JUMPDEST PUSH1 0x0 PUSH1 0x20 SWAP1 POP PUSH1 0x1F DUP4 GT PUSH1 0x1 DUP2 EQ PUSH2 0x8EE JUMPI PUSH1 0x0 DUP5 ISZERO PUSH2 0x8DC JUMPI DUP3 DUP8 ADD MLOAD SWAP1 POP JUMPDEST PUSH2 0x8E6 DUP6 DUP3 PUSH2 0x868 JUMP JUMPDEST DUP7 SSTORE POP PUSH2 0x94E JUMP JUMPDEST PUSH1 0x1F NOT DUP5 AND PUSH2 0x8FC DUP7 PUSH2 0x6D8 JUMP JUMPDEST PUSH1 0x0 JUMPDEST DUP3 DUP2 LT ISZERO PUSH2 0x924 JUMPI DUP5 DUP10 ADD MLOAD DUP3 SSTORE PUSH1 0x1 DUP3 ADD SWAP2 POP PUSH1 0x20 DUP6 ADD SWAP5 POP PUSH1 0x20 DUP2 ADD SWAP1 POP PUSH2 0x8FF JUMP JUMPDEST DUP7 DUP4 LT ISZERO PUSH2 0x941 JUMPI DUP5 DUP10 ADD MLOAD PUSH2 0x93D PUSH1 0x1F DUP10 AND DUP3 PUSH2 0x84A JUMP JUMPDEST DUP4 SSTORE POP JUMPDEST PUSH1 0x1 PUSH1 0x2 DUP9 MUL ADD DUP9 SSTORE POP POP POP JUMPDEST POP POP POP POP POP POP JUMP JUMPDEST PUSH32 0x4E487B7100000000000000000000000000000000000000000000000000000000 PUSH1 0x0 MSTORE PUSH1 0x32 PUSH1 0x4 MSTORE PUSH1 0x24 PUSH1 0x0 REVERT JUMPDEST PUSH32 0x4E487B7100000000000000000000000000000000000000000000000000000000 PUSH1 0x0 MSTORE PUSH1 0x11 PUSH1 0x4 MSTORE PUSH1 0x24 PUSH1 0x0 REVERT JUMPDEST PUSH1 0x0 PUSH2 0x9BF DUP3 PUSH2 0x401 JUMP JUMPDEST SWAP2 POP PUSH32 0xFFFFFFFFFFFFFFFFFFFFFFFFFFFFFFFFFFFFFFFFFFFFFFFFFFFFFFFFFFFFFFFF DUP3 SUB PUSH2 0x9F1 JUMPI PUSH2 0x9F0 PUSH2 0x985 JUMP JUMPDEST JUMPDEST PUSH1 0x1 DUP3 ADD SWAP1 POP SWAP2 SWAP1 POP JUMP INVALID LOG2 PUSH5 0x6970667358 0x22 SLT KECCAK256 DUP12 0xAA EQ 0xB9 0xD1 0xB2 PUSH24 0x97D17FD36C4F63C0FBD86D8F4546757748AB4F5667D463A2 SGT PUSH5 0x736F6C6343 STOP ADDMOD 0xF STOP CALLER "
				},
				"gasEstimates": {
					"creation": {
						"codeDepositCost": "522000",
						"executionCost": "556",
						"totalCost": "522556"
					},
					"external": {
						"add(string,uint256)": "infinite",
						"getUserList(uint256)": "infinite"
					}
				},
				"methodIdentifiers": {
					"add(string,uint256)": "36555b85",
					"getUserList(uint256)": "91bbec1a"
				}
			},
			"storageLayout": {
				"storage": [
					{
						"astId": 10,
						"contract": "array2.sol:ArrayTest",
						"label": "userList",
						"offset": 0,
						"slot": "0",
						"type": "t_array(t_struct(User)6_storage)dyn_storage"
					}
				],
				"types": {
					"t_array(t_struct(User)6_storage)dyn_storage": {
						"base": "t_struct(User)6_storage",
						"encoding": "dynamic_array",
						"label": "struct ArrayTest.User[]",
						"numberOfBytes": "32"
					},
					"t_string_storage": {
						"encoding": "bytes",
						"label": "string",
						"numberOfBytes": "32"
					},
					"t_struct(User)6_storage": {
						"encoding": "inplace",
						"label": "struct ArrayTest.User",
						"members": [
							{
								"astId": 3,
								"contract": "array2.sol:ArrayTest",
								"label": "name",
								"offset": 0,
								"slot": "0",
								"type": "t_string_storage"
							},
							{
								"astId": 5,
								"contract": "array2.sol:ArrayTest",
								"label": "age",
								"offset": 0,
								"slot": "1",
								"type": "t_uint256"
							}
						],
						"numberOfBytes": "64"
					},
					"t_uint256": {
						"encoding": "inplace",
						"label": "uint256",
						"numberOfBytes": "32"
					}
				}
			},
			"userdoc": {
				"kind": "user",
				"methods": {},
				"version": 1
			}
		}
	}
}