{
	"extends.sol": {
		"Man": {
			"abi": [
				{
					"inputs": [],
					"name": "f1",
					"outputs": [
						{
							"internalType": "string",
							"name": "",
							"type": "string"
						}
					],
					"stateMutability": "view",
					"type": "function"
				},
				{
					"inputs": [],
					"name": "getAge",
					"outputs": [
						{
							"internalType": "uint256",
							"name": "",
							"type": "uint256"
						}
					],
					"stateMutability": "view",
					"type": "function"
				},
				{
					"inputs": [],
					"name": "getUser",
					"outputs": [
						{
							"internalType": "string",
							"name": "",
							"type": "string"
						}
					],
					"stateMutability": "view",
					"type": "function"
				},
				{
					"inputs": [
						{
							"internalType": "uint8",
							"name": "_age",
							"type": "uint8"
						}
					],
					"name": "setAge",
					"outputs": [],
					"stateMutability": "nonpayable",
					"type": "function"
				}
			],
			"devdoc": {
				"kind": "dev",
				"methods": {},
				"version": 1
			},
			"evm": {
				"assembly": "    /* \"extends.sol\":364:482  contract Man is Person {\r... */\n  mstore(0x40, 0x80)\n  callvalue\n  dup1\n  iszero\n  tag_1\n  jumpi\n  0x00\n  dup1\n  revert\ntag_1:\n  pop\n  dataSize(sub_0)\n  dup1\n  dataOffset(sub_0)\n  0x00\n  codecopy\n  0x00\n  return\nstop\n\nsub_0: assembly {\n        /* \"extends.sol\":364:482  contract Man is Person {\r... */\n      mstore(0x40, 0x80)\n      callvalue\n      dup1\n      iszero\n      tag_1\n      jumpi\n      0x00\n      dup1\n      revert\n    tag_1:\n      pop\n      jumpi(tag_2, lt(calldatasize, 0x04))\n      shr(0xe0, calldataload(0x00))\n      dup1\n      0x5b0c8d70\n      eq\n      tag_3\n      jumpi\n      dup1\n      0x832880e7\n      eq\n      tag_4\n      jumpi\n      dup1\n      0x967e6e65\n      eq\n      tag_5\n      jumpi\n      dup1\n      0xc27fc305\n      eq\n      tag_6\n      jumpi\n    tag_2:\n      0x00\n      dup1\n      revert\n        /* \"extends.sol\":293:357  function setAge(uint8 _age) public {\r... */\n    tag_3:\n      tag_7\n      0x04\n      dup1\n      calldatasize\n      sub\n      dup2\n      add\n      swap1\n      tag_8\n      swap2\n      swap1\n      tag_9\n      jump\t// in\n    tag_8:\n      tag_10\n      jump\t// in\n    tag_7:\n      stop\n        /* \"extends.sol\":118:203  function getUser() public view returns (string memory) {\r... */\n    tag_4:\n      tag_11\n      tag_12\n      jump\t// in\n    tag_11:\n      mload(0x40)\n      tag_13\n      swap2\n      swap1\n      tag_14\n      jump\t// in\n    tag_13:\n      mload(0x40)\n      dup1\n      swap2\n      sub\n      swap1\n      return\n        /* \"extends.sol\":211:285  function getAge() public view returns (uint) {\r... */\n    tag_5:\n      tag_15\n      tag_16\n      jump\t// in\n    tag_15:\n      mload(0x40)\n      tag_17\n      swap2\n      swap1\n      tag_18\n      jump\t// in\n    tag_17:\n      mload(0x40)\n      dup1\n      swap2\n      sub\n      swap1\n      return\n        /* \"extends.sol\":394:479  function f1() public view returns (string memory) {\r... */\n    tag_6:\n      tag_19\n      tag_20\n      jump\t// in\n    tag_19:\n      mload(0x40)\n      tag_21\n      swap2\n      swap1\n      tag_14\n      jump\t// in\n    tag_21:\n      mload(0x40)\n      dup1\n      swap2\n      sub\n      swap1\n      return\n        /* \"extends.sol\":293:357  function setAge(uint8 _age) public {\r... */\n    tag_10:\n        /* \"extends.sol\":345:349  _age */\n      dup1\n        /* \"extends.sol\":339:342  age */\n      0x01\n      0x00\n        /* \"extends.sol\":339:349  age = _age */\n      0x0100\n      exp\n      dup2\n      sload\n      dup2\n      0xff\n      mul\n      not\n      and\n      swap1\n      dup4\n      0xff\n      and\n      mul\n      or\n      swap1\n      sstore\n      pop\n        /* \"extends.sol\":293:357  function setAge(uint8 _age) public {\r... */\n      pop\n      jump\t// out\n        /* \"extends.sol\":118:203  function getUser() public view returns (string memory) {\r... */\n    tag_12:\n        /* \"extends.sol\":158:171  string memory */\n      0x60\n        /* \"extends.sol\":191:195  user */\n      0x00\n        /* \"extends.sol\":184:195  return user */\n      dup1\n      sload\n      tag_24\n      swap1\n      tag_25\n      jump\t// in\n    tag_24:\n      dup1\n      0x1f\n      add\n      0x20\n      dup1\n      swap2\n      div\n      mul\n      0x20\n      add\n      mload(0x40)\n      swap1\n      dup2\n      add\n      0x40\n      mstore\n      dup1\n      swap3\n      swap2\n      swap1\n      dup2\n      dup2\n      mstore\n      0x20\n      add\n      dup3\n      dup1\n      sload\n      tag_26\n      swap1\n      tag_25\n      jump\t// in\n    tag_26:\n      dup1\n      iszero\n      tag_27\n      jumpi\n      dup1\n      0x1f\n      lt\n      tag_28\n      jumpi\n      0x0100\n      dup1\n      dup4\n      sload\n      div\n      mul\n      dup4\n      mstore\n      swap2\n      0x20\n      add\n      swap2\n      jump(tag_27)\n    tag_28:\n      dup3\n      add\n      swap2\n      swap1\n      0x00\n      mstore\n      keccak256(0x00, 0x20)\n      swap1\n    tag_29:\n      dup2\n      sload\n      dup2\n      mstore\n      swap1\n      0x01\n      add\n      swap1\n      0x20\n      add\n      dup1\n      dup4\n      gt\n      tag_29\n      jumpi\n      dup3\n      swap1\n      sub\n      0x1f\n      and\n      dup3\n      add\n      swap2\n    tag_27:\n      pop\n      pop\n      pop\n      pop\n      pop\n      swap1\n      pop\n        /* \"extends.sol\":118:203  function getUser() public view returns (string memory) {\r... */\n      swap1\n      jump\t// out\n        /* \"extends.sol\":211:285  function getAge() public view returns (uint) {\r... */\n    tag_16:\n        /* \"extends.sol\":250:254  uint */\n      0x00\n        /* \"extends.sol\":274:277  age */\n      0x01\n      0x00\n      swap1\n      sload\n      swap1\n      0x0100\n      exp\n      swap1\n      div\n      0xff\n      and\n        /* \"extends.sol\":267:277  return age */\n      0xff\n      and\n      swap1\n      pop\n        /* \"extends.sol\":211:285  function getAge() public view returns (uint) {\r... */\n      swap1\n      jump\t// out\n        /* \"extends.sol\":394:479  function f1() public view returns (string memory) {\r... */\n    tag_20:\n        /* \"extends.sol\":429:442  string memory */\n      0x60\n        /* \"extends.sol\":462:471  getUser() */\n      tag_32\n        /* \"extends.sol\":462:469  getUser */\n      tag_12\n        /* \"extends.sol\":462:471  getUser() */\n      jump\t// in\n    tag_32:\n        /* \"extends.sol\":455:471  return getUser() */\n      swap1\n      pop\n        /* \"extends.sol\":394:479  function f1() public view returns (string memory) {\r... */\n      swap1\n      jump\t// out\n        /* \"#utility.yul\":7:142   */\n    tag_34:\n        /* \"#utility.yul\":51:56   */\n      0x00\n        /* \"#utility.yul\":89:95   */\n      dup2\n        /* \"#utility.yul\":76:96   */\n      calldataload\n        /* \"#utility.yul\":67:96   */\n      swap1\n      pop\n        /* \"#utility.yul\":105:136   */\n      tag_36\n        /* \"#utility.yul\":130:135   */\n      dup2\n        /* \"#utility.yul\":105:136   */\n      tag_37\n      jump\t// in\n    tag_36:\n        /* \"#utility.yul\":7:142   */\n      swap3\n      swap2\n      pop\n      pop\n      jump\t// out\n        /* \"#utility.yul\":148:473   */\n    tag_9:\n        /* \"#utility.yul\":205:211   */\n      0x00\n        /* \"#utility.yul\":254:256   */\n      0x20\n        /* \"#utility.yul\":242:251   */\n      dup3\n        /* \"#utility.yul\":233:240   */\n      dup5\n        /* \"#utility.yul\":229:252   */\n      sub\n        /* \"#utility.yul\":225:257   */\n      slt\n        /* \"#utility.yul\":222:341   */\n      iszero\n      tag_39\n      jumpi\n        /* \"#utility.yul\":260:339   */\n      tag_40\n      tag_41\n      jump\t// in\n    tag_40:\n        /* \"#utility.yul\":222:341   */\n    tag_39:\n        /* \"#utility.yul\":380:381   */\n      0x00\n        /* \"#utility.yul\":405:456   */\n      tag_42\n        /* \"#utility.yul\":448:455   */\n      dup5\n        /* \"#utility.yul\":439:445   */\n      dup3\n        /* \"#utility.yul\":428:437   */\n      dup6\n        /* \"#utility.yul\":424:446   */\n      add\n        /* \"#utility.yul\":405:456   */\n      tag_34\n      jump\t// in\n    tag_42:\n        /* \"#utility.yul\":395:456   */\n      swap2\n      pop\n        /* \"#utility.yul\":351:466   */\n      pop\n        /* \"#utility.yul\":148:473   */\n      swap3\n      swap2\n      pop\n      pop\n      jump\t// out\n        /* \"#utility.yul\":479:843   */\n    tag_43:\n        /* \"#utility.yul\":567:570   */\n      0x00\n        /* \"#utility.yul\":595:634   */\n      tag_45\n        /* \"#utility.yul\":628:633   */\n      dup3\n        /* \"#utility.yul\":595:634   */\n      tag_46\n      jump\t// in\n    tag_45:\n        /* \"#utility.yul\":650:721   */\n      tag_47\n        /* \"#utility.yul\":714:720   */\n      dup2\n        /* \"#utility.yul\":709:712   */\n      dup6\n        /* \"#utility.yul\":650:721   */\n      tag_48\n      jump\t// in\n    tag_47:\n        /* \"#utility.yul\":643:721   */\n      swap4\n      pop\n        /* \"#utility.yul\":730:782   */\n      tag_49\n        /* \"#utility.yul\":775:781   */\n      dup2\n        /* \"#utility.yul\":770:773   */\n      dup6\n        /* \"#utility.yul\":763:767   */\n      0x20\n        /* \"#utility.yul\":756:761   */\n      dup7\n        /* \"#utility.yul\":752:768   */\n      add\n        /* \"#utility.yul\":730:782   */\n      tag_50\n      jump\t// in\n    tag_49:\n        /* \"#utility.yul\":807:836   */\n      tag_51\n        /* \"#utility.yul\":829:835   */\n      dup2\n        /* \"#utility.yul\":807:836   */\n      tag_52\n      jump\t// in\n    tag_51:\n        /* \"#utility.yul\":802:805   */\n      dup5\n        /* \"#utility.yul\":798:837   */\n      add\n        /* \"#utility.yul\":791:837   */\n      swap2\n      pop\n        /* \"#utility.yul\":571:843   */\n      pop\n        /* \"#utility.yul\":479:843   */\n      swap3\n      swap2\n      pop\n      pop\n      jump\t// out\n        /* \"#utility.yul\":849:967   */\n    tag_53:\n        /* \"#utility.yul\":936:960   */\n      tag_55\n        /* \"#utility.yul\":954:959   */\n      dup2\n        /* \"#utility.yul\":936:960   */\n      tag_56\n      jump\t// in\n    tag_55:\n        /* \"#utility.yul\":931:934   */\n      dup3\n        /* \"#utility.yul\":924:961   */\n      mstore\n        /* \"#utility.yul\":849:967   */\n      pop\n      pop\n      jump\t// out\n        /* \"#utility.yul\":973:1286   */\n    tag_14:\n        /* \"#utility.yul\":1086:1090   */\n      0x00\n        /* \"#utility.yul\":1124:1126   */\n      0x20\n        /* \"#utility.yul\":1113:1122   */\n      dup3\n        /* \"#utility.yul\":1109:1127   */\n      add\n        /* \"#utility.yul\":1101:1127   */\n      swap1\n      pop\n        /* \"#utility.yul\":1173:1182   */\n      dup2\n        /* \"#utility.yul\":1167:1171   */\n      dup2\n        /* \"#utility.yul\":1163:1183   */\n      sub\n        /* \"#utility.yul\":1159:1160   */\n      0x00\n        /* \"#utility.yul\":1148:1157   */\n      dup4\n        /* \"#utility.yul\":1144:1161   */\n      add\n        /* \"#utility.yul\":1137:1184   */\n      mstore\n        /* \"#utility.yul\":1201:1279   */\n      tag_58\n        /* \"#utility.yul\":1274:1278   */\n      dup2\n        /* \"#utility.yul\":1265:1271   */\n      dup5\n        /* \"#utility.yul\":1201:1279   */\n      tag_43\n      jump\t// in\n    tag_58:\n        /* \"#utility.yul\":1193:1279   */\n      swap1\n      pop\n        /* \"#utility.yul\":973:1286   */\n      swap3\n      swap2\n      pop\n      pop\n      jump\t// out\n        /* \"#utility.yul\":1292:1514   */\n    tag_18:\n        /* \"#utility.yul\":1385:1389   */\n      0x00\n        /* \"#utility.yul\":1423:1425   */\n      0x20\n        /* \"#utility.yul\":1412:1421   */\n      dup3\n        /* \"#utility.yul\":1408:1426   */\n      add\n        /* \"#utility.yul\":1400:1426   */\n      swap1\n      pop\n        /* \"#utility.yul\":1436:1507   */\n      tag_60\n        /* \"#utility.yul\":1504:1505   */\n      0x00\n        /* \"#utility.yul\":1493:1502   */\n      dup4\n        /* \"#utility.yul\":1489:1506   */\n      add\n        /* \"#utility.yul\":1480:1486   */\n      dup5\n        /* \"#utility.yul\":1436:1507   */\n      tag_53\n      jump\t// in\n    tag_60:\n        /* \"#utility.yul\":1292:1514   */\n      swap3\n      swap2\n      pop\n      pop\n      jump\t// out\n        /* \"#utility.yul\":1601:1700   */\n    tag_46:\n        /* \"#utility.yul\":1653:1659   */\n      0x00\n        /* \"#utility.yul\":1687:1692   */\n      dup2\n        /* \"#utility.yul\":1681:1693   */\n      mload\n        /* \"#utility.yul\":1671:1693   */\n      swap1\n      pop\n        /* \"#utility.yul\":1601:1700   */\n      swap2\n      swap1\n      pop\n      jump\t// out\n        /* \"#utility.yul\":1706:1875   */\n    tag_48:\n        /* \"#utility.yul\":1790:1801   */\n      0x00\n        /* \"#utility.yul\":1824:1830   */\n      dup3\n        /* \"#utility.yul\":1819:1822   */\n      dup3\n        /* \"#utility.yul\":1812:1831   */\n      mstore\n        /* \"#utility.yul\":1864:1868   */\n      0x20\n        /* \"#utility.yul\":1859:1862   */\n      dup3\n        /* \"#utility.yul\":1855:1869   */\n      add\n        /* \"#utility.yul\":1840:1869   */\n      swap1\n      pop\n        /* \"#utility.yul\":1706:1875   */\n      swap3\n      swap2\n      pop\n      pop\n      jump\t// out\n        /* \"#utility.yul\":1881:1958   */\n    tag_56:\n        /* \"#utility.yul\":1918:1925   */\n      0x00\n        /* \"#utility.yul\":1947:1952   */\n      dup2\n        /* \"#utility.yul\":1936:1952   */\n      swap1\n      pop\n        /* \"#utility.yul\":1881:1958   */\n      swap2\n      swap1\n      pop\n      jump\t// out\n        /* \"#utility.yul\":1964:2050   */\n    tag_66:\n        /* \"#utility.yul\":1999:2006   */\n      0x00\n        /* \"#utility.yul\":2039:2043   */\n      0xff\n        /* \"#utility.yul\":2032:2037   */\n      dup3\n        /* \"#utility.yul\":2028:2044   */\n      and\n        /* \"#utility.yul\":2017:2044   */\n      swap1\n      pop\n        /* \"#utility.yul\":1964:2050   */\n      swap2\n      swap1\n      pop\n      jump\t// out\n        /* \"#utility.yul\":2056:2363   */\n    tag_50:\n        /* \"#utility.yul\":2124:2125   */\n      0x00\n        /* \"#utility.yul\":2134:2247   */\n    tag_69:\n        /* \"#utility.yul\":2148:2154   */\n      dup4\n        /* \"#utility.yul\":2145:2146   */\n      dup2\n        /* \"#utility.yul\":2142:2155   */\n      lt\n        /* \"#utility.yul\":2134:2247   */\n      iszero\n      tag_71\n      jumpi\n        /* \"#utility.yul\":2233:2234   */\n      dup1\n        /* \"#utility.yul\":2228:2231   */\n      dup3\n        /* \"#utility.yul\":2224:2235   */\n      add\n        /* \"#utility.yul\":2218:2236   */\n      mload\n        /* \"#utility.yul\":2214:2215   */\n      dup2\n        /* \"#utility.yul\":2209:2212   */\n      dup5\n        /* \"#utility.yul\":2205:2216   */\n      add\n        /* \"#utility.yul\":2198:2237   */\n      mstore\n        /* \"#utility.yul\":2170:2172   */\n      0x20\n        /* \"#utility.yul\":2167:2168   */\n      dup2\n        /* \"#utility.yul\":2163:2173   */\n      add\n        /* \"#utility.yul\":2158:2173   */\n      swap1\n      pop\n        /* \"#utility.yul\":2134:2247   */\n      jump(tag_69)\n    tag_71:\n        /* \"#utility.yul\":2265:2271   */\n      dup4\n        /* \"#utility.yul\":2262:2263   */\n      dup2\n        /* \"#utility.yul\":2259:2272   */\n      gt\n        /* \"#utility.yul\":2256:2357   */\n      iszero\n      tag_72\n      jumpi\n        /* \"#utility.yul\":2345:2346   */\n      0x00\n        /* \"#utility.yul\":2336:2342   */\n      dup5\n        /* \"#utility.yul\":2331:2334   */\n      dup5\n        /* \"#utility.yul\":2327:2343   */\n      add\n        /* \"#utility.yul\":2320:2347   */\n      mstore\n        /* \"#utility.yul\":2256:2357   */\n    tag_72:\n        /* \"#utility.yul\":2105:2363   */\n      pop\n        /* \"#utility.yul\":2056:2363   */\n      pop\n      pop\n      pop\n      jump\t// out\n        /* \"#utility.yul\":2369:2689   */\n    tag_25:\n        /* \"#utility.yul\":2413:2419   */\n      0x00\n        /* \"#utility.yul\":2450:2451   */\n      0x02\n        /* \"#utility.yul\":2444:2448   */\n      dup3\n        /* \"#utility.yul\":2440:2452   */\n      div\n        /* \"#utility.yul\":2430:2452   */\n      swap1\n      pop\n        /* \"#utility.yul\":2497:2498   */\n      0x01\n        /* \"#utility.yul\":2491:2495   */\n      dup3\n        /* \"#utility.yul\":2487:2499   */\n      and\n        /* \"#utility.yul\":2518:2536   */\n      dup1\n        /* \"#utility.yul\":2508:2589   */\n      tag_74\n      jumpi\n        /* \"#utility.yul\":2574:2578   */\n      0x7f\n        /* \"#utility.yul\":2566:2572   */\n      dup3\n        /* \"#utility.yul\":2562:2579   */\n      and\n        /* \"#utility.yul\":2552:2579   */\n      swap2\n      pop\n        /* \"#utility.yul\":2508:2589   */\n    tag_74:\n        /* \"#utility.yul\":2636:2638   */\n      0x20\n        /* \"#utility.yul\":2628:2634   */\n      dup3\n        /* \"#utility.yul\":2625:2639   */\n      lt\n        /* \"#utility.yul\":2605:2623   */\n      dup2\n        /* \"#utility.yul\":2602:2640   */\n      eq\n        /* \"#utility.yul\":2599:2683   */\n      iszero\n      tag_75\n      jumpi\n        /* \"#utility.yul\":2655:2673   */\n      tag_76\n      tag_77\n      jump\t// in\n    tag_76:\n        /* \"#utility.yul\":2599:2683   */\n    tag_75:\n        /* \"#utility.yul\":2420:2689   */\n      pop\n        /* \"#utility.yul\":2369:2689   */\n      swap2\n      swap1\n      pop\n      jump\t// out\n        /* \"#utility.yul\":2695:2875   */\n    tag_77:\n        /* \"#utility.yul\":2743:2820   */\n      0x4e487b7100000000000000000000000000000000000000000000000000000000\n        /* \"#utility.yul\":2740:2741   */\n      0x00\n        /* \"#utility.yul\":2733:2821   */\n      mstore\n        /* \"#utility.yul\":2840:2844   */\n      0x22\n        /* \"#utility.yul\":2837:2838   */\n      0x04\n        /* \"#utility.yul\":2830:2845   */\n      mstore\n        /* \"#utility.yul\":2864:2868   */\n      0x24\n        /* \"#utility.yul\":2861:2862   */\n      0x00\n        /* \"#utility.yul\":2854:2869   */\n      revert\n        /* \"#utility.yul\":3004:3121   */\n    tag_41:\n        /* \"#utility.yul\":3113:3114   */\n      0x00\n        /* \"#utility.yul\":3110:3111   */\n      dup1\n        /* \"#utility.yul\":3103:3115   */\n      revert\n        /* \"#utility.yul\":3127:3229   */\n    tag_52:\n        /* \"#utility.yul\":3168:3174   */\n      0x00\n        /* \"#utility.yul\":3219:3221   */\n      0x1f\n        /* \"#utility.yul\":3215:3222   */\n      not\n        /* \"#utility.yul\":3210:3212   */\n      0x1f\n        /* \"#utility.yul\":3203:3208   */\n      dup4\n        /* \"#utility.yul\":3199:3213   */\n      add\n        /* \"#utility.yul\":3195:3223   */\n      and\n        /* \"#utility.yul\":3185:3223   */\n      swap1\n      pop\n        /* \"#utility.yul\":3127:3229   */\n      swap2\n      swap1\n      pop\n      jump\t// out\n        /* \"#utility.yul\":3235:3353   */\n    tag_37:\n        /* \"#utility.yul\":3306:3328   */\n      tag_84\n        /* \"#utility.yul\":3322:3327   */\n      dup2\n        /* \"#utility.yul\":3306:3328   */\n      tag_66\n      jump\t// in\n    tag_84:\n        /* \"#utility.yul\":3299:3304   */\n      dup2\n        /* \"#utility.yul\":3296:3329   */\n      eq\n        /* \"#utility.yul\":3286:3347   */\n      tag_85\n      jumpi\n        /* \"#utility.yul\":3343:3344   */\n      0x00\n        /* \"#utility.yul\":3340:3341   */\n      dup1\n        /* \"#utility.yul\":3333:3345   */\n      revert\n        /* \"#utility.yul\":3286:3347   */\n    tag_85:\n        /* \"#utility.yul\":3235:3353   */\n      pop\n      jump\t// out\n\n    auxdata: 0xa2646970667358221220becae1a4e5d8f5ebca619b85a4faa6439e05ca1a26d86c40d8e5d6c953aff51064736f6c63430008070033\n}\n",
				"bytecode": {
					"linkReferences": {},
					"object": "608060405234801561001057600080fd5b50610391806100206000396000f3fe608060405234801561001057600080fd5b506004361061004c5760003560e01c80635b0c8d7014610051578063832880e71461006d578063967e6e651461008b578063c27fc305146100a9575b600080fd5b61006b600480360381019061006691906101b5565b6100c7565b005b6100756100e5565b604051610082919061022a565b60405180910390f35b610093610177565b6040516100a0919061024c565b60405180910390f35b6100b1610191565b6040516100be919061022a565b60405180910390f35b80600160006101000a81548160ff021916908360ff16021790555050565b6060600080546100f4906102cd565b80601f0160208091040260200160405190810160405280929190818152602001828054610120906102cd565b801561016d5780601f106101425761010080835404028352916020019161016d565b820191906000526020600020905b81548152906001019060200180831161015057829003601f168201915b5050505050905090565b6000600160009054906101000a900460ff1660ff16905090565b606061019b6100e5565b905090565b6000813590506101af81610344565b92915050565b6000602082840312156101cb576101ca61032e565b5b60006101d9848285016101a0565b91505092915050565b60006101ed82610267565b6101f78185610272565b935061020781856020860161029a565b61021081610333565b840191505092915050565b61022481610283565b82525050565b6000602082019050818103600083015261024481846101e2565b905092915050565b6000602082019050610261600083018461021b565b92915050565b600081519050919050565b600082825260208201905092915050565b6000819050919050565b600060ff82169050919050565b60005b838110156102b857808201518184015260208101905061029d565b838111156102c7576000848401525b50505050565b600060028204905060018216806102e557607f821691505b602082108114156102f9576102f86102ff565b5b50919050565b7f4e487b7100000000000000000000000000000000000000000000000000000000600052602260045260246000fd5b600080fd5b6000601f19601f8301169050919050565b61034d8161028d565b811461035857600080fd5b5056fea2646970667358221220becae1a4e5d8f5ebca619b85a4faa6439e05ca1a26d86c40d8e5d6c953aff51064736f6c63430008070033",
					"opcodes": "PUSH1 0x80 PUSH1 0x40 MSTORE CALLVALUE DUP1 ISZERO PUSH2 0x10 JUMPI PUSH1 0x0 DUP1 REVERT JUMPDEST POP PUSH2 0x391 DUP1 PUSH2 0x20 PUSH1 0x0 CODECOPY PUSH1 0x0 RETURN INVALID PUSH1 0x80 PUSH1 0x40 MSTORE CALLVALUE DUP1 ISZERO PUSH2 0x10 JUMPI PUSH1 0x0 DUP1 REVERT JUMPDEST POP PUSH1 0x4 CALLDATASIZE LT PUSH2 0x4C JUMPI PUSH1 0x0 CALLDATALOAD PUSH1 0xE0 SHR DUP1 PUSH4 0x5B0C8D70 EQ PUSH2 0x51 JUMPI DUP1 PUSH4 0x832880E7 EQ PUSH2 0x6D JUMPI DUP1 PUSH4 0x967E6E65 EQ PUSH2 0x8B JUMPI DUP1 PUSH4 0xC27FC305 EQ PUSH2 0xA9 JUMPI JUMPDEST PUSH1 0x0 DUP1 REVERT JUMPDEST PUSH2 0x6B PUSH1 0x4 DUP1 CALLDATASIZE SUB DUP2 ADD SWAP1 PUSH2 0x66 SWAP2 SWAP1 PUSH2 0x1B5 JUMP JUMPDEST PUSH2 0xC7 JUMP JUMPDEST STOP JUMPDEST PUSH2 0x75 PUSH2 0xE5 JUMP JUMPDEST PUSH1 0x40 MLOAD PUSH2 0x82 SWAP2 SWAP1 PUSH2 0x22A JUMP JUMPDEST PUSH1 0x40 MLOAD DUP1 SWAP2 SUB SWAP1 RETURN JUMPDEST PUSH2 0x93 PUSH2 0x177 JUMP JUMPDEST PUSH1 0x40 MLOAD PUSH2 0xA0 SWAP2 SWAP1 PUSH2 0x24C JUMP JUMPDEST PUSH1 0x40 MLOAD DUP1 SWAP2 SUB SWAP1 RETURN JUMPDEST PUSH2 0xB1 PUSH2 0x191 JUMP JUMPDEST PUSH1 0x40 MLOAD PUSH2 0xBE SWAP2 SWAP1 PUSH2 0x22A JUMP JUMPDEST PUSH1 0x40 MLOAD DUP1 SWAP2 SUB SWAP1 RETURN JUMPDEST DUP1 PUSH1 0x1 PUSH1 0x0 PUSH2 0x100 EXP DUP2 SLOAD DUP2 PUSH1 0xFF MUL NOT AND SWAP1 DUP4 PUSH1 0xFF AND MUL OR SWAP1 SSTORE POP POP JUMP JUMPDEST PUSH1 0x60 PUSH1 0x0 DUP1 SLOAD PUSH2 0xF4 SWAP1 PUSH2 0x2CD JUMP JUMPDEST DUP1 PUSH1 0x1F ADD PUSH1 0x20 DUP1 SWAP2 DIV MUL PUSH1 0x20 ADD PUSH1 0x40 MLOAD SWAP1 DUP2 ADD PUSH1 0x40 MSTORE DUP1 SWAP3 SWAP2 SWAP1 DUP2 DUP2 MSTORE PUSH1 0x20 ADD DUP3 DUP1 SLOAD PUSH2 0x120 SWAP1 PUSH2 0x2CD JUMP JUMPDEST DUP1 ISZERO PUSH2 0x16D JUMPI DUP1 PUSH1 0x1F LT PUSH2 0x142 JUMPI PUSH2 0x100 DUP1 DUP4 SLOAD DIV MUL DUP4 MSTORE SWAP2 PUSH1 0x20 ADD SWAP2 PUSH2 0x16D JUMP JUMPDEST DUP3 ADD SWAP2 SWAP1 PUSH1 0x0 MSTORE PUSH1 0x20 PUSH1 0x0 KECCAK256 SWAP1 JUMPDEST DUP2 SLOAD DUP2 MSTORE SWAP1 PUSH1 0x1 ADD SWAP1 PUSH1 0x20 ADD DUP1 DUP4 GT PUSH2 0x150 JUMPI DUP3 SWAP1 SUB PUSH1 0x1F AND DUP3 ADD SWAP2 JUMPDEST POP POP POP POP POP SWAP1 POP SWAP1 JUMP JUMPDEST PUSH1 0x0 PUSH1 0x1 PUSH1 0x0 SWAP1 SLOAD SWAP1 PUSH2 0x100 EXP SWAP1 DIV PUSH1 0xFF AND PUSH1 0xFF AND SWAP1 POP SWAP1 JUMP JUMPDEST PUSH1 0x60 PUSH2 0x19B PUSH2 0xE5 JUMP JUMPDEST SWAP1 POP SWAP1 JUMP JUMPDEST PUSH1 0x0 DUP2 CALLDATALOAD SWAP1 POP PUSH2 0x1AF DUP2 PUSH2 0x344 JUMP JUMPDEST SWAP3 SWAP2 POP POP JUMP JUMPDEST PUSH1 0x0 PUSH1 0x20 DUP3 DUP5 SUB SLT ISZERO PUSH2 0x1CB JUMPI PUSH2 0x1CA PUSH2 0x32E JUMP JUMPDEST JUMPDEST PUSH1 0x0 PUSH2 0x1D9 DUP5 DUP3 DUP6 ADD PUSH2 0x1A0 JUMP JUMPDEST SWAP2 POP POP SWAP3 SWAP2 POP POP JUMP JUMPDEST PUSH1 0x0 PUSH2 0x1ED DUP3 PUSH2 0x267 JUMP JUMPDEST PUSH2 0x1F7 DUP2 DUP6 PUSH2 0x272 JUMP JUMPDEST SWAP4 POP PUSH2 0x207 DUP2 DUP6 PUSH1 0x20 DUP7 ADD PUSH2 0x29A JUMP JUMPDEST PUSH2 0x210 DUP2 PUSH2 0x333 JUMP JUMPDEST DUP5 ADD SWAP2 POP POP SWAP3 SWAP2 POP POP JUMP JUMPDEST PUSH2 0x224 DUP2 PUSH2 0x283 JUMP JUMPDEST DUP3 MSTORE POP POP JUMP JUMPDEST PUSH1 0x0 PUSH1 0x20 DUP3 ADD SWAP1 POP DUP2 DUP2 SUB PUSH1 0x0 DUP4 ADD MSTORE PUSH2 0x244 DUP2 DUP5 PUSH2 0x1E2 JUMP JUMPDEST SWAP1 POP SWAP3 SWAP2 POP POP JUMP JUMPDEST PUSH1 0x0 PUSH1 0x20 DUP3 ADD SWAP1 POP PUSH2 0x261 PUSH1 0x0 DUP4 ADD DUP5 PUSH2 0x21B JUMP JUMPDEST SWAP3 SWAP2 POP POP JUMP JUMPDEST PUSH1 0x0 DUP2 MLOAD SWAP1 POP SWAP2 SWAP1 POP JUMP JUMPDEST PUSH1 0x0 DUP3 DUP3 MSTORE PUSH1 0x20 DUP3 ADD SWAP1 POP SWAP3 SWAP2 POP POP JUMP JUMPDEST PUSH1 0x0 DUP2 SWAP1 POP SWAP2 SWAP1 POP JUMP JUMPDEST PUSH1 0x0 PUSH1 0xFF DUP3 AND SWAP1 POP SWAP2 SWAP1 POP JUMP JUMPDEST PUSH1 0x0 JUMPDEST DUP4 DUP2 LT ISZERO PUSH2 0x2B8 JUMPI DUP1 DUP3 ADD MLOAD DUP2 DUP5 ADD MSTORE PUSH1 0x20 DUP2 ADD SWAP1 POP PUSH2 0x29D JUMP JUMPDEST DUP4 DUP2 GT ISZERO PUSH2 0x2C7 JUMPI PUSH1 0x0 DUP5 DUP5 ADD MSTORE JUMPDEST POP POP POP POP JUMP JUMPDEST PUSH1 0x0 PUSH1 0x2 DUP3 DIV SWAP1 POP PUSH1 0x1 DUP3 AND DUP1 PUSH2 0x2E5 JUMPI PUSH1 0x7F DUP3 AND SWAP2 POP JUMPDEST PUSH1 0x20 DUP3 LT DUP2 EQ ISZERO PUSH2 0x2F9 JUMPI PUSH2 0x2F8 PUSH2 0x2FF JUMP JUMPDEST JUMPDEST POP SWAP2 SWAP1 POP JUMP JUMPDEST PUSH32 0x4E487B7100000000000000000000000000000000000000000000000000000000 PUSH1 0x0 MSTORE PUSH1 0x22 PUSH1 0x4 MSTORE PUSH1 0x24 PUSH1 0x0 REVERT JUMPDEST PUSH1 0x0 DUP1 REVERT JUMPDEST PUSH1 0x0 PUSH1 0x1F NOT PUSH1 0x1F DUP4 ADD AND SWAP1 POP SWAP2 SWAP1 POP JUMP JUMPDEST PUSH2 0x34D DUP2 PUSH2 0x28D JUMP JUMPDEST DUP2 EQ PUSH2 0x358 JUMPI PUSH1 0x0 DUP1 REVERT JUMPDEST POP JUMP INVALID LOG2 PUSH5 0x6970667358 0x22 SLT KECCAK256 0xBE 0xCA 0xE1 LOG4 0xE5 0xD8 CREATE2 0xEB 0xCA PUSH2 0x9B85 LOG4 STATICCALL 0xA6 NUMBER SWAP15 SDIV 0xCA BYTE 0x26 0xD8 PUSH13 0x40D8E5D6C953AFF51064736F6C PUSH4 0x43000807 STOP CALLER "
				},
				"gasEstimates": {
					"creation": {
						"codeDepositCost": "182600",
						"executionCost": "226",
						"totalCost": "182826"
					},
					"external": {
						"f1()": "infinite",
						"getAge()": "2501",
						"getUser()": "infinite",
						"setAge(uint8)": "24657"
					}
				},
				"methodIdentifiers": {
					"f1()": "c27fc305",
					"getAge()": "967e6e65",
					"getUser()": "832880e7",
					"setAge(uint8)": "5b0c8d70"
				}
			},
			"storageLayout": {
				"storage": [
					{
						"astId": 3,
						"contract": "extends.sol:Man",
						"label": "user",
						"offset": 0,
						"slot": "0",
						"type": "t_string_storage"
					},
					{
						"astId": 5,
						"contract": "extends.sol:Man",
						"label": "age",
						"offset": 0,
						"slot": "1",
						"type": "t_uint8"
					}
				],
				"types": {
					"t_string_storage": {
						"encoding": "bytes",
						"label": "string",
						"numberOfBytes": "32"
					},
					"t_uint8": {
						"encoding": "inplace",
						"label": "uint8",
						"numberOfBytes": "1"
					}
				}
			},
			"userdoc": {
				"kind": "user",
				"methods": {},
				"version": 1
			}
		}
	}
}