{
	"array.sol": {
		"ArrayTest": {
			"abi": [
				{
					"inputs": [
						{
							"internalType": "string",
							"name": "_bookName",
							"type": "string"
						}
					],
					"name": "createReadList",
					"outputs": [],
					"stateMutability": "nonpayable",
					"type": "function"
				},
				{
					"inputs": [
						{
							"internalType": "uint256",
							"name": "status",
							"type": "uint256"
						}
					],
					"name": "getReadList",
					"outputs": [
						{
							"components": [
								{
									"internalType": "uint256",
									"name": "status",
									"type": "uint256"
								},
								{
									"internalType": "string",
									"name": "bookName",
									"type": "string"
								}
							],
							"internalType": "struct ArrayTest.Book",
							"name": "",
							"type": "tuple"
						}
					],
					"stateMutability": "view",
					"type": "function"
				}
			],
			"devdoc": {
				"kind": "dev",
				"methods": {},
				"version": 1
			},
			"evm": {
				"assembly": "    /* \"array.sol\":61:592  contract ArrayTest {\r... */\n  mstore(0x40, 0x80)\n  callvalue\n  dup1\n  iszero\n  tag_1\n  jumpi\n  0x00\n  dup1\n  revert\ntag_1:\n  pop\n  dataSize(sub_0)\n  dup1\n  dataOffset(sub_0)\n  0x00\n  codecopy\n  0x00\n  return\nstop\n\nsub_0: assembly {\n        /* \"array.sol\":61:592  contract ArrayTest {\r... */\n      mstore(0x40, 0x80)\n      callvalue\n      dup1\n      iszero\n      tag_1\n      jumpi\n      0x00\n      dup1\n      revert\n    tag_1:\n      pop\n      jumpi(tag_2, lt(calldatasize, 0x04))\n      shr(0xe0, calldataload(0x00))\n      dup1\n      0x234c6686\n      eq\n      tag_3\n      jumpi\n      dup1\n      0x904d54d2\n      eq\n      tag_4\n      jumpi\n    tag_2:\n      0x00\n      dup1\n      revert\n        /* \"array.sol\":285:475  function createReadList(string memory _bookName) public {\r... */\n    tag_3:\n      tag_5\n      0x04\n      dup1\n      calldatasize\n      sub\n      dup2\n      add\n      swap1\n      tag_6\n      swap2\n      swap1\n      tag_7\n      jump\t// in\n    tag_6:\n      tag_8\n      jump\t// in\n    tag_5:\n      stop\n        /* \"array.sol\":483:589  function getReadList(uint status) public view returns (Book memory) {\r... */\n    tag_4:\n      tag_9\n      0x04\n      dup1\n      calldatasize\n      sub\n      dup2\n      add\n      swap1\n      tag_10\n      swap2\n      swap1\n      tag_11\n      jump\t// in\n    tag_10:\n      tag_12\n      jump\t// in\n    tag_9:\n      mload(0x40)\n      tag_13\n      swap2\n      swap1\n      tag_14\n      jump\t// in\n    tag_13:\n      mload(0x40)\n      dup1\n      swap2\n      sub\n      swap1\n      return\n        /* \"array.sol\":285:475  function createReadList(string memory _bookName) public {\r... */\n    tag_8:\n        /* \"array.sol\":383:387  list */\n      0x00\n        /* \"array.sol\":393:466  Book({\r... */\n      mload(0x40)\n      dup1\n      0x40\n      add\n      0x40\n      mstore\n      dup1\n        /* \"array.sol\":420:421  0 */\n      0x00\n        /* \"array.sol\":393:466  Book({\r... */\n      dup2\n      mstore\n      0x20\n      add\n        /* \"array.sol\":445:454  _bookName */\n      dup4\n        /* \"array.sol\":393:466  Book({\r... */\n      dup2\n      mstore\n      pop\n        /* \"array.sol\":383:467  list.push(Book({\r... */\n      swap1\n      dup1\n      0x01\n      dup2\n      sload\n      add\n      dup1\n      dup3\n      sstore\n      dup1\n      swap2\n      pop\n      pop\n      0x01\n      swap1\n      sub\n      swap1\n      0x00\n      mstore\n      keccak256(0x00, 0x20)\n      swap1\n      0x02\n      mul\n      add\n      0x00\n      swap1\n      swap2\n      swap1\n      swap2\n      swap1\n      swap2\n      pop\n      0x00\n      dup3\n      add\n      mload\n      dup2\n      0x00\n      add\n      sstore\n      0x20\n      dup3\n      add\n      mload\n      dup2\n      0x01\n      add\n      swap1\n      dup1\n      mload\n      swap1\n      0x20\n      add\n      swap1\n      tag_17\n      swap3\n      swap2\n      swap1\n      tag_18\n      jump\t// in\n    tag_17:\n      pop\n      pop\n      pop\n        /* \"array.sol\":285:475  function createReadList(string memory _bookName) public {\r... */\n      pop\n      jump\t// out\n        /* \"array.sol\":483:589  function getReadList(uint status) public view returns (Book memory) {\r... */\n    tag_12:\n        /* \"array.sol\":538:549  Book memory */\n      tag_19\n      tag_20\n      jump\t// in\n    tag_19:\n        /* \"array.sol\":569:573  book */\n      0x01\n        /* \"array.sol\":569:581  book[status] */\n      0x00\n        /* \"array.sol\":574:580  status */\n      dup4\n        /* \"array.sol\":569:581  book[status] */\n      dup2\n      mstore\n      0x20\n      add\n      swap1\n      dup2\n      mstore\n      0x20\n      add\n      0x00\n      keccak256\n        /* \"array.sol\":562:581  return book[status] */\n      mload(0x40)\n      dup1\n      0x40\n      add\n      0x40\n      mstore\n      swap1\n      dup2\n      0x00\n      dup3\n      add\n      sload\n      dup2\n      mstore\n      0x20\n      add\n      0x01\n      dup3\n      add\n      dup1\n      sload\n      tag_22\n      swap1\n      tag_23\n      jump\t// in\n    tag_22:\n      dup1\n      0x1f\n      add\n      0x20\n      dup1\n      swap2\n      div\n      mul\n      0x20\n      add\n      mload(0x40)\n      swap1\n      dup2\n      add\n      0x40\n      mstore\n      dup1\n      swap3\n      swap2\n      swap1\n      dup2\n      dup2\n      mstore\n      0x20\n      add\n      dup3\n      dup1\n      sload\n      tag_24\n      swap1\n      tag_23\n      jump\t// in\n    tag_24:\n      dup1\n      iszero\n      tag_25\n      jumpi\n      dup1\n      0x1f\n      lt\n      tag_26\n      jumpi\n      0x0100\n      dup1\n      dup4\n      sload\n      div\n      mul\n      dup4\n      mstore\n      swap2\n      0x20\n      add\n      swap2\n      jump(tag_25)\n    tag_26:\n      dup3\n      add\n      swap2\n      swap1\n      0x00\n      mstore\n      keccak256(0x00, 0x20)\n      swap1\n    tag_27:\n      dup2\n      sload\n      dup2\n      mstore\n      swap1\n      0x01\n      add\n      swap1\n      0x20\n      add\n      dup1\n      dup4\n      gt\n      tag_27\n      jumpi\n      dup3\n      swap1\n      sub\n      0x1f\n      and\n      dup3\n      add\n      swap2\n    tag_25:\n      pop\n      pop\n      pop\n      pop\n      pop\n      dup2\n      mstore\n      pop\n      pop\n      swap1\n      pop\n        /* \"array.sol\":483:589  function getReadList(uint status) public view returns (Book memory) {\r... */\n      swap2\n      swap1\n      pop\n      jump\t// out\n    tag_18:\n      dup3\n      dup1\n      sload\n      tag_28\n      swap1\n      tag_23\n      jump\t// in\n    tag_28:\n      swap1\n      0x00\n      mstore\n      keccak256(0x00, 0x20)\n      swap1\n      0x1f\n      add\n      0x20\n      swap1\n      div\n      dup2\n      add\n      swap3\n      dup3\n      tag_30\n      jumpi\n      0x00\n      dup6\n      sstore\n      jump(tag_29)\n    tag_30:\n      dup3\n      0x1f\n      lt\n      tag_31\n      jumpi\n      dup1\n      mload\n      not(0xff)\n      and\n      dup4\n      dup1\n      add\n      or\n      dup6\n      sstore\n      jump(tag_29)\n    tag_31:\n      dup3\n      dup1\n      add\n      0x01\n      add\n      dup6\n      sstore\n      dup3\n      iszero\n      tag_29\n      jumpi\n      swap2\n      dup3\n      add\n    tag_32:\n      dup3\n      dup2\n      gt\n      iszero\n      tag_33\n      jumpi\n      dup3\n      mload\n      dup3\n      sstore\n      swap2\n      0x20\n      add\n      swap2\n      swap1\n      0x01\n      add\n      swap1\n      jump(tag_32)\n    tag_33:\n    tag_29:\n      pop\n      swap1\n      pop\n      tag_34\n      swap2\n      swap1\n      tag_35\n      jump\t// in\n    tag_34:\n      pop\n      swap1\n      jump\t// out\n    tag_20:\n      mload(0x40)\n      dup1\n      0x40\n      add\n      0x40\n      mstore\n      dup1\n      0x00\n      dup2\n      mstore\n      0x20\n      add\n      0x60\n      dup2\n      mstore\n      pop\n      swap1\n      jump\t// out\n    tag_35:\n    tag_36:\n      dup1\n      dup3\n      gt\n      iszero\n      tag_37\n      jumpi\n      0x00\n      dup2\n      0x00\n      swap1\n      sstore\n      pop\n      0x01\n      add\n      jump(tag_36)\n    tag_37:\n      pop\n      swap1\n      jump\t// out\n        /* \"#utility.yul\":7:419   */\n    tag_39:\n        /* \"#utility.yul\":85:90   */\n      0x00\n        /* \"#utility.yul\":110:176   */\n      tag_41\n        /* \"#utility.yul\":126:175   */\n      tag_42\n        /* \"#utility.yul\":168:174   */\n      dup5\n        /* \"#utility.yul\":126:175   */\n      tag_43\n      jump\t// in\n    tag_42:\n        /* \"#utility.yul\":110:176   */\n      tag_44\n      jump\t// in\n    tag_41:\n        /* \"#utility.yul\":101:176   */\n      swap1\n      pop\n        /* \"#utility.yul\":199:205   */\n      dup3\n        /* \"#utility.yul\":192:197   */\n      dup2\n        /* \"#utility.yul\":185:206   */\n      mstore\n        /* \"#utility.yul\":237:241   */\n      0x20\n        /* \"#utility.yul\":230:235   */\n      dup2\n        /* \"#utility.yul\":226:242   */\n      add\n        /* \"#utility.yul\":275:278   */\n      dup5\n        /* \"#utility.yul\":266:272   */\n      dup5\n        /* \"#utility.yul\":261:264   */\n      dup5\n        /* \"#utility.yul\":257:273   */\n      add\n        /* \"#utility.yul\":254:279   */\n      gt\n        /* \"#utility.yul\":251:363   */\n      iszero\n      tag_45\n      jumpi\n        /* \"#utility.yul\":282:361   */\n      tag_46\n      tag_47\n      jump\t// in\n    tag_46:\n        /* \"#utility.yul\":251:363   */\n    tag_45:\n        /* \"#utility.yul\":372:413   */\n      tag_48\n        /* \"#utility.yul\":406:412   */\n      dup5\n        /* \"#utility.yul\":401:404   */\n      dup3\n        /* \"#utility.yul\":396:399   */\n      dup6\n        /* \"#utility.yul\":372:413   */\n      tag_49\n      jump\t// in\n    tag_48:\n        /* \"#utility.yul\":91:419   */\n      pop\n        /* \"#utility.yul\":7:419   */\n      swap4\n      swap3\n      pop\n      pop\n      pop\n      jump\t// out\n        /* \"#utility.yul\":439:779   */\n    tag_50:\n        /* \"#utility.yul\":495:500   */\n      0x00\n        /* \"#utility.yul\":544:547   */\n      dup3\n        /* \"#utility.yul\":537:541   */\n      0x1f\n        /* \"#utility.yul\":529:535   */\n      dup4\n        /* \"#utility.yul\":525:542   */\n      add\n        /* \"#utility.yul\":521:548   */\n      slt\n        /* \"#utility.yul\":511:633   */\n      tag_52\n      jumpi\n        /* \"#utility.yul\":552:631   */\n      tag_53\n      tag_54\n      jump\t// in\n    tag_53:\n        /* \"#utility.yul\":511:633   */\n    tag_52:\n        /* \"#utility.yul\":669:675   */\n      dup2\n        /* \"#utility.yul\":656:676   */\n      calldataload\n        /* \"#utility.yul\":694:773   */\n      tag_55\n        /* \"#utility.yul\":769:772   */\n      dup5\n        /* \"#utility.yul\":761:767   */\n      dup3\n        /* \"#utility.yul\":754:758   */\n      0x20\n        /* \"#utility.yul\":746:752   */\n      dup7\n        /* \"#utility.yul\":742:759   */\n      add\n        /* \"#utility.yul\":694:773   */\n      tag_39\n      jump\t// in\n    tag_55:\n        /* \"#utility.yul\":685:773   */\n      swap2\n      pop\n        /* \"#utility.yul\":501:779   */\n      pop\n        /* \"#utility.yul\":439:779   */\n      swap3\n      swap2\n      pop\n      pop\n      jump\t// out\n        /* \"#utility.yul\":785:924   */\n    tag_56:\n        /* \"#utility.yul\":831:836   */\n      0x00\n        /* \"#utility.yul\":869:875   */\n      dup2\n        /* \"#utility.yul\":856:876   */\n      calldataload\n        /* \"#utility.yul\":847:876   */\n      swap1\n      pop\n        /* \"#utility.yul\":885:918   */\n      tag_58\n        /* \"#utility.yul\":912:917   */\n      dup2\n        /* \"#utility.yul\":885:918   */\n      tag_59\n      jump\t// in\n    tag_58:\n        /* \"#utility.yul\":785:924   */\n      swap3\n      swap2\n      pop\n      pop\n      jump\t// out\n        /* \"#utility.yul\":930:1439   */\n    tag_7:\n        /* \"#utility.yul\":999:1005   */\n      0x00\n        /* \"#utility.yul\":1048:1050   */\n      0x20\n        /* \"#utility.yul\":1036:1045   */\n      dup3\n        /* \"#utility.yul\":1027:1034   */\n      dup5\n        /* \"#utility.yul\":1023:1046   */\n      sub\n        /* \"#utility.yul\":1019:1051   */\n      slt\n        /* \"#utility.yul\":1016:1135   */\n      iszero\n      tag_61\n      jumpi\n        /* \"#utility.yul\":1054:1133   */\n      tag_62\n      tag_63\n      jump\t// in\n    tag_62:\n        /* \"#utility.yul\":1016:1135   */\n    tag_61:\n        /* \"#utility.yul\":1202:1203   */\n      0x00\n        /* \"#utility.yul\":1191:1200   */\n      dup3\n        /* \"#utility.yul\":1187:1204   */\n      add\n        /* \"#utility.yul\":1174:1205   */\n      calldataload\n        /* \"#utility.yul\":1232:1250   */\n      0xffffffffffffffff\n        /* \"#utility.yul\":1224:1230   */\n      dup2\n        /* \"#utility.yul\":1221:1251   */\n      gt\n        /* \"#utility.yul\":1218:1335   */\n      iszero\n      tag_64\n      jumpi\n        /* \"#utility.yul\":1254:1333   */\n      tag_65\n      tag_66\n      jump\t// in\n    tag_65:\n        /* \"#utility.yul\":1218:1335   */\n    tag_64:\n        /* \"#utility.yul\":1359:1422   */\n      tag_67\n        /* \"#utility.yul\":1414:1421   */\n      dup5\n        /* \"#utility.yul\":1405:1411   */\n      dup3\n        /* \"#utility.yul\":1394:1403   */\n      dup6\n        /* \"#utility.yul\":1390:1412   */\n      add\n        /* \"#utility.yul\":1359:1422   */\n      tag_50\n      jump\t// in\n    tag_67:\n        /* \"#utility.yul\":1349:1422   */\n      swap2\n      pop\n        /* \"#utility.yul\":1145:1432   */\n      pop\n        /* \"#utility.yul\":930:1439   */\n      swap3\n      swap2\n      pop\n      pop\n      jump\t// out\n        /* \"#utility.yul\":1445:1774   */\n    tag_11:\n        /* \"#utility.yul\":1504:1510   */\n      0x00\n        /* \"#utility.yul\":1553:1555   */\n      0x20\n        /* \"#utility.yul\":1541:1550   */\n      dup3\n        /* \"#utility.yul\":1532:1539   */\n      dup5\n        /* \"#utility.yul\":1528:1551   */\n      sub\n        /* \"#utility.yul\":1524:1556   */\n      slt\n        /* \"#utility.yul\":1521:1640   */\n      iszero\n      tag_69\n      jumpi\n        /* \"#utility.yul\":1559:1638   */\n      tag_70\n      tag_63\n      jump\t// in\n    tag_70:\n        /* \"#utility.yul\":1521:1640   */\n    tag_69:\n        /* \"#utility.yul\":1679:1680   */\n      0x00\n        /* \"#utility.yul\":1704:1757   */\n      tag_71\n        /* \"#utility.yul\":1749:1756   */\n      dup5\n        /* \"#utility.yul\":1740:1746   */\n      dup3\n        /* \"#utility.yul\":1729:1738   */\n      dup6\n        /* \"#utility.yul\":1725:1747   */\n      add\n        /* \"#utility.yul\":1704:1757   */\n      tag_56\n      jump\t// in\n    tag_71:\n        /* \"#utility.yul\":1694:1757   */\n      swap2\n      pop\n        /* \"#utility.yul\":1650:1767   */\n      pop\n        /* \"#utility.yul\":1445:1774   */\n      swap3\n      swap2\n      pop\n      pop\n      jump\t// out\n        /* \"#utility.yul\":1780:2124   */\n    tag_72:\n        /* \"#utility.yul\":1858:1861   */\n      0x00\n        /* \"#utility.yul\":1886:1925   */\n      tag_74\n        /* \"#utility.yul\":1919:1924   */\n      dup3\n        /* \"#utility.yul\":1886:1925   */\n      tag_75\n      jump\t// in\n    tag_74:\n        /* \"#utility.yul\":1941:2002   */\n      tag_76\n        /* \"#utility.yul\":1995:2001   */\n      dup2\n        /* \"#utility.yul\":1990:1993   */\n      dup6\n        /* \"#utility.yul\":1941:2002   */\n      tag_77\n      jump\t// in\n    tag_76:\n        /* \"#utility.yul\":1934:2002   */\n      swap4\n      pop\n        /* \"#utility.yul\":2011:2063   */\n      tag_78\n        /* \"#utility.yul\":2056:2062   */\n      dup2\n        /* \"#utility.yul\":2051:2054   */\n      dup6\n        /* \"#utility.yul\":2044:2048   */\n      0x20\n        /* \"#utility.yul\":2037:2042   */\n      dup7\n        /* \"#utility.yul\":2033:2049   */\n      add\n        /* \"#utility.yul\":2011:2063   */\n      tag_79\n      jump\t// in\n    tag_78:\n        /* \"#utility.yul\":2088:2117   */\n      tag_80\n        /* \"#utility.yul\":2110:2116   */\n      dup2\n        /* \"#utility.yul\":2088:2117   */\n      tag_81\n      jump\t// in\n    tag_80:\n        /* \"#utility.yul\":2083:2086   */\n      dup5\n        /* \"#utility.yul\":2079:2118   */\n      add\n        /* \"#utility.yul\":2072:2118   */\n      swap2\n      pop\n        /* \"#utility.yul\":1862:2124   */\n      pop\n        /* \"#utility.yul\":1780:2124   */\n      swap3\n      swap2\n      pop\n      pop\n      jump\t// out\n        /* \"#utility.yul\":2184:2784   */\n    tag_82:\n        /* \"#utility.yul\":2291:2294   */\n      0x00\n        /* \"#utility.yul\":2327:2331   */\n      0x40\n        /* \"#utility.yul\":2322:2325   */\n      dup4\n        /* \"#utility.yul\":2318:2332   */\n      add\n        /* \"#utility.yul\":2416:2420   */\n      0x00\n        /* \"#utility.yul\":2409:2414   */\n      dup4\n        /* \"#utility.yul\":2405:2421   */\n      add\n        /* \"#utility.yul\":2399:2422   */\n      mload\n        /* \"#utility.yul\":2435:2498   */\n      tag_84\n        /* \"#utility.yul\":2492:2496   */\n      0x00\n        /* \"#utility.yul\":2487:2490   */\n      dup7\n        /* \"#utility.yul\":2483:2497   */\n      add\n        /* \"#utility.yul\":2469:2481   */\n      dup3\n        /* \"#utility.yul\":2435:2498   */\n      tag_85\n      jump\t// in\n    tag_84:\n        /* \"#utility.yul\":2342:2508   */\n      pop\n        /* \"#utility.yul\":2594:2598   */\n      0x20\n        /* \"#utility.yul\":2587:2592   */\n      dup4\n        /* \"#utility.yul\":2583:2599   */\n      add\n        /* \"#utility.yul\":2577:2600   */\n      mload\n        /* \"#utility.yul\":2647:2650   */\n      dup5\n        /* \"#utility.yul\":2641:2645   */\n      dup3\n        /* \"#utility.yul\":2637:2651   */\n      sub\n        /* \"#utility.yul\":2630:2634   */\n      0x20\n        /* \"#utility.yul\":2625:2628   */\n      dup7\n        /* \"#utility.yul\":2621:2635   */\n      add\n        /* \"#utility.yul\":2614:2652   */\n      mstore\n        /* \"#utility.yul\":2673:2746   */\n      tag_86\n        /* \"#utility.yul\":2741:2745   */\n      dup3\n        /* \"#utility.yul\":2727:2739   */\n      dup3\n        /* \"#utility.yul\":2673:2746   */\n      tag_72\n      jump\t// in\n    tag_86:\n        /* \"#utility.yul\":2665:2746   */\n      swap2\n      pop\n        /* \"#utility.yul\":2518:2757   */\n      pop\n        /* \"#utility.yul\":2774:2778   */\n      dup1\n        /* \"#utility.yul\":2767:2778   */\n      swap2\n      pop\n        /* \"#utility.yul\":2296:2784   */\n      pop\n        /* \"#utility.yul\":2184:2784   */\n      swap3\n      swap2\n      pop\n      pop\n      jump\t// out\n        /* \"#utility.yul\":2790:2898   */\n    tag_85:\n        /* \"#utility.yul\":2867:2891   */\n      tag_88\n        /* \"#utility.yul\":2885:2890   */\n      dup2\n        /* \"#utility.yul\":2867:2891   */\n      tag_89\n      jump\t// in\n    tag_88:\n        /* \"#utility.yul\":2862:2865   */\n      dup3\n        /* \"#utility.yul\":2855:2892   */\n      mstore\n        /* \"#utility.yul\":2790:2898   */\n      pop\n      pop\n      jump\t// out\n        /* \"#utility.yul\":2904:3253   */\n    tag_14:\n        /* \"#utility.yul\":3035:3039   */\n      0x00\n        /* \"#utility.yul\":3073:3075   */\n      0x20\n        /* \"#utility.yul\":3062:3071   */\n      dup3\n        /* \"#utility.yul\":3058:3076   */\n      add\n        /* \"#utility.yul\":3050:3076   */\n      swap1\n      pop\n        /* \"#utility.yul\":3122:3131   */\n      dup2\n        /* \"#utility.yul\":3116:3120   */\n      dup2\n        /* \"#utility.yul\":3112:3132   */\n      sub\n        /* \"#utility.yul\":3108:3109   */\n      0x00\n        /* \"#utility.yul\":3097:3106   */\n      dup4\n        /* \"#utility.yul\":3093:3110   */\n      add\n        /* \"#utility.yul\":3086:3133   */\n      mstore\n        /* \"#utility.yul\":3150:3246   */\n      tag_91\n        /* \"#utility.yul\":3241:3245   */\n      dup2\n        /* \"#utility.yul\":3232:3238   */\n      dup5\n        /* \"#utility.yul\":3150:3246   */\n      tag_82\n      jump\t// in\n    tag_91:\n        /* \"#utility.yul\":3142:3246   */\n      swap1\n      pop\n        /* \"#utility.yul\":2904:3253   */\n      swap3\n      swap2\n      pop\n      pop\n      jump\t// out\n        /* \"#utility.yul\":3259:3388   */\n    tag_44:\n        /* \"#utility.yul\":3293:3299   */\n      0x00\n        /* \"#utility.yul\":3320:3340   */\n      tag_93\n      tag_94\n      jump\t// in\n    tag_93:\n        /* \"#utility.yul\":3310:3340   */\n      swap1\n      pop\n        /* \"#utility.yul\":3349:3382   */\n      tag_95\n        /* \"#utility.yul\":3377:3381   */\n      dup3\n        /* \"#utility.yul\":3369:3375   */\n      dup3\n        /* \"#utility.yul\":3349:3382   */\n      tag_96\n      jump\t// in\n    tag_95:\n        /* \"#utility.yul\":3259:3388   */\n      swap2\n      swap1\n      pop\n      jump\t// out\n        /* \"#utility.yul\":3394:3469   */\n    tag_94:\n        /* \"#utility.yul\":3427:3433   */\n      0x00\n        /* \"#utility.yul\":3460:3462   */\n      0x40\n        /* \"#utility.yul\":3454:3463   */\n      mload\n        /* \"#utility.yul\":3444:3463   */\n      swap1\n      pop\n        /* \"#utility.yul\":3394:3469   */\n      swap1\n      jump\t// out\n        /* \"#utility.yul\":3475:3783   */\n    tag_43:\n        /* \"#utility.yul\":3537:3541   */\n      0x00\n        /* \"#utility.yul\":3627:3645   */\n      0xffffffffffffffff\n        /* \"#utility.yul\":3619:3625   */\n      dup3\n        /* \"#utility.yul\":3616:3646   */\n      gt\n        /* \"#utility.yul\":3613:3669   */\n      iszero\n      tag_99\n      jumpi\n        /* \"#utility.yul\":3649:3667   */\n      tag_100\n      tag_101\n      jump\t// in\n    tag_100:\n        /* \"#utility.yul\":3613:3669   */\n    tag_99:\n        /* \"#utility.yul\":3687:3716   */\n      tag_102\n        /* \"#utility.yul\":3709:3715   */\n      dup3\n        /* \"#utility.yul\":3687:3716   */\n      tag_81\n      jump\t// in\n    tag_102:\n        /* \"#utility.yul\":3679:3716   */\n      swap1\n      pop\n        /* \"#utility.yul\":3771:3775   */\n      0x20\n        /* \"#utility.yul\":3765:3769   */\n      dup2\n        /* \"#utility.yul\":3761:3776   */\n      add\n        /* \"#utility.yul\":3753:3776   */\n      swap1\n      pop\n        /* \"#utility.yul\":3475:3783   */\n      swap2\n      swap1\n      pop\n      jump\t// out\n        /* \"#utility.yul\":3789:3888   */\n    tag_75:\n        /* \"#utility.yul\":3841:3847   */\n      0x00\n        /* \"#utility.yul\":3875:3880   */\n      dup2\n        /* \"#utility.yul\":3869:3881   */\n      mload\n        /* \"#utility.yul\":3859:3881   */\n      swap1\n      pop\n        /* \"#utility.yul\":3789:3888   */\n      swap2\n      swap1\n      pop\n      jump\t// out\n        /* \"#utility.yul\":3894:4053   */\n    tag_77:\n        /* \"#utility.yul\":3968:3979   */\n      0x00\n        /* \"#utility.yul\":4002:4008   */\n      dup3\n        /* \"#utility.yul\":3997:4000   */\n      dup3\n        /* \"#utility.yul\":3990:4009   */\n      mstore\n        /* \"#utility.yul\":4042:4046   */\n      0x20\n        /* \"#utility.yul\":4037:4040   */\n      dup3\n        /* \"#utility.yul\":4033:4047   */\n      add\n        /* \"#utility.yul\":4018:4047   */\n      swap1\n      pop\n        /* \"#utility.yul\":3894:4053   */\n      swap3\n      swap2\n      pop\n      pop\n      jump\t// out\n        /* \"#utility.yul\":4059:4136   */\n    tag_89:\n        /* \"#utility.yul\":4096:4103   */\n      0x00\n        /* \"#utility.yul\":4125:4130   */\n      dup2\n        /* \"#utility.yul\":4114:4130   */\n      swap1\n      pop\n        /* \"#utility.yul\":4059:4136   */\n      swap2\n      swap1\n      pop\n      jump\t// out\n        /* \"#utility.yul\":4142:4296   */\n    tag_49:\n        /* \"#utility.yul\":4226:4232   */\n      dup3\n        /* \"#utility.yul\":4221:4224   */\n      dup2\n        /* \"#utility.yul\":4216:4219   */\n      dup4\n        /* \"#utility.yul\":4203:4233   */\n      calldatacopy\n        /* \"#utility.yul\":4288:4289   */\n      0x00\n        /* \"#utility.yul\":4279:4285   */\n      dup4\n        /* \"#utility.yul\":4274:4277   */\n      dup4\n        /* \"#utility.yul\":4270:4286   */\n      add\n        /* \"#utility.yul\":4263:4290   */\n      mstore\n        /* \"#utility.yul\":4142:4296   */\n      pop\n      pop\n      pop\n      jump\t// out\n        /* \"#utility.yul\":4302:4609   */\n    tag_79:\n        /* \"#utility.yul\":4370:4371   */\n      0x00\n        /* \"#utility.yul\":4380:4493   */\n    tag_108:\n        /* \"#utility.yul\":4394:4400   */\n      dup4\n        /* \"#utility.yul\":4391:4392   */\n      dup2\n        /* \"#utility.yul\":4388:4401   */\n      lt\n        /* \"#utility.yul\":4380:4493   */\n      iszero\n      tag_110\n      jumpi\n        /* \"#utility.yul\":4479:4480   */\n      dup1\n        /* \"#utility.yul\":4474:4477   */\n      dup3\n        /* \"#utility.yul\":4470:4481   */\n      add\n        /* \"#utility.yul\":4464:4482   */\n      mload\n        /* \"#utility.yul\":4460:4461   */\n      dup2\n        /* \"#utility.yul\":4455:4458   */\n      dup5\n        /* \"#utility.yul\":4451:4462   */\n      add\n        /* \"#utility.yul\":4444:4483   */\n      mstore\n        /* \"#utility.yul\":4416:4418   */\n      0x20\n        /* \"#utility.yul\":4413:4414   */\n      dup2\n        /* \"#utility.yul\":4409:4419   */\n      add\n        /* \"#utility.yul\":4404:4419   */\n      swap1\n      pop\n        /* \"#utility.yul\":4380:4493   */\n      jump(tag_108)\n    tag_110:\n        /* \"#utility.yul\":4511:4517   */\n      dup4\n        /* \"#utility.yul\":4508:4509   */\n      dup2\n        /* \"#utility.yul\":4505:4518   */\n      gt\n        /* \"#utility.yul\":4502:4603   */\n      iszero\n      tag_111\n      jumpi\n        /* \"#utility.yul\":4591:4592   */\n      0x00\n        /* \"#utility.yul\":4582:4588   */\n      dup5\n        /* \"#utility.yul\":4577:4580   */\n      dup5\n        /* \"#utility.yul\":4573:4589   */\n      add\n        /* \"#utility.yul\":4566:4593   */\n      mstore\n        /* \"#utility.yul\":4502:4603   */\n    tag_111:\n        /* \"#utility.yul\":4351:4609   */\n      pop\n        /* \"#utility.yul\":4302:4609   */\n      pop\n      pop\n      pop\n      jump\t// out\n        /* \"#utility.yul\":4615:4935   */\n    tag_23:\n        /* \"#utility.yul\":4659:4665   */\n      0x00\n        /* \"#utility.yul\":4696:4697   */\n      0x02\n        /* \"#utility.yul\":4690:4694   */\n      dup3\n        /* \"#utility.yul\":4686:4698   */\n      div\n        /* \"#utility.yul\":4676:4698   */\n      swap1\n      pop\n        /* \"#utility.yul\":4743:4744   */\n      0x01\n        /* \"#utility.yul\":4737:4741   */\n      dup3\n        /* \"#utility.yul\":4733:4745   */\n      and\n        /* \"#utility.yul\":4764:4782   */\n      dup1\n        /* \"#utility.yul\":4754:4835   */\n      tag_113\n      jumpi\n        /* \"#utility.yul\":4820:4824   */\n      0x7f\n        /* \"#utility.yul\":4812:4818   */\n      dup3\n        /* \"#utility.yul\":4808:4825   */\n      and\n        /* \"#utility.yul\":4798:4825   */\n      swap2\n      pop\n        /* \"#utility.yul\":4754:4835   */\n    tag_113:\n        /* \"#utility.yul\":4882:4884   */\n      0x20\n        /* \"#utility.yul\":4874:4880   */\n      dup3\n        /* \"#utility.yul\":4871:4885   */\n      lt\n        /* \"#utility.yul\":4851:4869   */\n      dup2\n        /* \"#utility.yul\":4848:4886   */\n      eq\n        /* \"#utility.yul\":4845:4929   */\n      iszero\n      tag_114\n      jumpi\n        /* \"#utility.yul\":4901:4919   */\n      tag_115\n      tag_116\n      jump\t// in\n    tag_115:\n        /* \"#utility.yul\":4845:4929   */\n    tag_114:\n        /* \"#utility.yul\":4666:4935   */\n      pop\n        /* \"#utility.yul\":4615:4935   */\n      swap2\n      swap1\n      pop\n      jump\t// out\n        /* \"#utility.yul\":4941:5222   */\n    tag_96:\n        /* \"#utility.yul\":5024:5051   */\n      tag_118\n        /* \"#utility.yul\":5046:5050   */\n      dup3\n        /* \"#utility.yul\":5024:5051   */\n      tag_81\n      jump\t// in\n    tag_118:\n        /* \"#utility.yul\":5016:5022   */\n      dup2\n        /* \"#utility.yul\":5012:5052   */\n      add\n        /* \"#utility.yul\":5154:5160   */\n      dup2\n        /* \"#utility.yul\":5142:5152   */\n      dup2\n        /* \"#utility.yul\":5139:5161   */\n      lt\n        /* \"#utility.yul\":5118:5136   */\n      0xffffffffffffffff\n        /* \"#utility.yul\":5106:5116   */\n      dup3\n        /* \"#utility.yul\":5103:5137   */\n      gt\n        /* \"#utility.yul\":5100:5162   */\n      or\n        /* \"#utility.yul\":5097:5185   */\n      iszero\n      tag_119\n      jumpi\n        /* \"#utility.yul\":5165:5183   */\n      tag_120\n      tag_101\n      jump\t// in\n    tag_120:\n        /* \"#utility.yul\":5097:5185   */\n    tag_119:\n        /* \"#utility.yul\":5205:5215   */\n      dup1\n        /* \"#utility.yul\":5201:5203   */\n      0x40\n        /* \"#utility.yul\":5194:5216   */\n      mstore\n        /* \"#utility.yul\":4984:5222   */\n      pop\n        /* \"#utility.yul\":4941:5222   */\n      pop\n      pop\n      jump\t// out\n        /* \"#utility.yul\":5228:5408   */\n    tag_116:\n        /* \"#utility.yul\":5276:5353   */\n      0x4e487b7100000000000000000000000000000000000000000000000000000000\n        /* \"#utility.yul\":5273:5274   */\n      0x00\n        /* \"#utility.yul\":5266:5354   */\n      mstore\n        /* \"#utility.yul\":5373:5377   */\n      0x22\n        /* \"#utility.yul\":5370:5371   */\n      0x04\n        /* \"#utility.yul\":5363:5378   */\n      mstore\n        /* \"#utility.yul\":5397:5401   */\n      0x24\n        /* \"#utility.yul\":5394:5395   */\n      0x00\n        /* \"#utility.yul\":5387:5402   */\n      revert\n        /* \"#utility.yul\":5414:5594   */\n    tag_101:\n        /* \"#utility.yul\":5462:5539   */\n      0x4e487b7100000000000000000000000000000000000000000000000000000000\n        /* \"#utility.yul\":5459:5460   */\n      0x00\n        /* \"#utility.yul\":5452:5540   */\n      mstore\n        /* \"#utility.yul\":5559:5563   */\n      0x41\n        /* \"#utility.yul\":5556:5557   */\n      0x04\n        /* \"#utility.yul\":5549:5564   */\n      mstore\n        /* \"#utility.yul\":5583:5587   */\n      0x24\n        /* \"#utility.yul\":5580:5581   */\n      0x00\n        /* \"#utility.yul\":5573:5588   */\n      revert\n        /* \"#utility.yul\":5600:5717   */\n    tag_54:\n        /* \"#utility.yul\":5709:5710   */\n      0x00\n        /* \"#utility.yul\":5706:5707   */\n      dup1\n        /* \"#utility.yul\":5699:5711   */\n      revert\n        /* \"#utility.yul\":5723:5840   */\n    tag_47:\n        /* \"#utility.yul\":5832:5833   */\n      0x00\n        /* \"#utility.yul\":5829:5830   */\n      dup1\n        /* \"#utility.yul\":5822:5834   */\n      revert\n        /* \"#utility.yul\":5846:5963   */\n    tag_66:\n        /* \"#utility.yul\":5955:5956   */\n      0x00\n        /* \"#utility.yul\":5952:5953   */\n      dup1\n        /* \"#utility.yul\":5945:5957   */\n      revert\n        /* \"#utility.yul\":5969:6086   */\n    tag_63:\n        /* \"#utility.yul\":6078:6079   */\n      0x00\n        /* \"#utility.yul\":6075:6076   */\n      dup1\n        /* \"#utility.yul\":6068:6080   */\n      revert\n        /* \"#utility.yul\":6092:6194   */\n    tag_81:\n        /* \"#utility.yul\":6133:6139   */\n      0x00\n        /* \"#utility.yul\":6184:6186   */\n      0x1f\n        /* \"#utility.yul\":6180:6187   */\n      not\n        /* \"#utility.yul\":6175:6177   */\n      0x1f\n        /* \"#utility.yul\":6168:6173   */\n      dup4\n        /* \"#utility.yul\":6164:6178   */\n      add\n        /* \"#utility.yul\":6160:6188   */\n      and\n        /* \"#utility.yul\":6150:6188   */\n      swap1\n      pop\n        /* \"#utility.yul\":6092:6194   */\n      swap2\n      swap1\n      pop\n      jump\t// out\n        /* \"#utility.yul\":6200:6322   */\n    tag_59:\n        /* \"#utility.yul\":6273:6297   */\n      tag_129\n        /* \"#utility.yul\":6291:6296   */\n      dup2\n        /* \"#utility.yul\":6273:6297   */\n      tag_89\n      jump\t// in\n    tag_129:\n        /* \"#utility.yul\":6266:6271   */\n      dup2\n        /* \"#utility.yul\":6263:6298   */\n      eq\n        /* \"#utility.yul\":6253:6316   */\n      tag_130\n      jumpi\n        /* \"#utility.yul\":6312:6313   */\n      0x00\n        /* \"#utility.yul\":6309:6310   */\n      dup1\n        /* \"#utility.yul\":6302:6314   */\n      revert\n        /* \"#utility.yul\":6253:6316   */\n    tag_130:\n        /* \"#utility.yul\":6200:6322   */\n      pop\n      jump\t// out\n\n    auxdata: 0xa264697066735822122016febc1e93e5bb811ca6ac9552ae251c2b7b8d0c610e88528e52b529a1a59fae64736f6c63430008070033\n}\n",
				"bytecode": {
					"linkReferences": {},
					"object": "608060405234801561001057600080fd5b5061060d806100206000396000f3fe608060405234801561001057600080fd5b50600436106100365760003560e01c8063234c66861461003b578063904d54d214610057575b600080fd5b610055600480360381019061005091906102ff565b610087565b005b610071600480360381019061006c9190610348565b6100f4565b60405161007e91906103fa565b60405180910390f35b60006040518060400160405280600081526020018381525090806001815401808255809150506001900390600052602060002090600202016000909190919091506000820151816000015560208201518160010190805190602001906100ee9291906101bd565b50505050565b6100fc610243565b6001600083815260200190815260200160002060405180604001604052908160008201548152602001600182018054610134906104da565b80601f0160208091040260200160405190810160405280929190818152602001828054610160906104da565b80156101ad5780601f10610182576101008083540402835291602001916101ad565b820191906000526020600020905b81548152906001019060200180831161019057829003601f168201915b5050505050815250509050919050565b8280546101c9906104da565b90600052602060002090601f0160209004810192826101eb5760008555610232565b82601f1061020457805160ff1916838001178555610232565b82800160010185558215610232579182015b82811115610231578251825591602001919060010190610216565b5b50905061023f919061025d565b5090565b604051806040016040528060008152602001606081525090565b5b8082111561027657600081600090555060010161025e565b5090565b600061028d61028884610441565b61041c565b9050828152602081018484840111156102a9576102a86105a0565b5b6102b4848285610498565b509392505050565b600082601f8301126102d1576102d061059b565b5b81356102e184826020860161027a565b91505092915050565b6000813590506102f9816105c0565b92915050565b600060208284031215610315576103146105aa565b5b600082013567ffffffffffffffff811115610333576103326105a5565b5b61033f848285016102bc565b91505092915050565b60006020828403121561035e5761035d6105aa565b5b600061036c848285016102ea565b91505092915050565b600061038082610472565b61038a818561047d565b935061039a8185602086016104a7565b6103a3816105af565b840191505092915050565b60006040830160008301516103c660008601826103eb565b50602083015184820360208601526103de8282610375565b9150508091505092915050565b6103f48161048e565b82525050565b6000602082019050818103600083015261041481846103ae565b905092915050565b6000610426610437565b9050610432828261050c565b919050565b6000604051905090565b600067ffffffffffffffff82111561045c5761045b61056c565b5b610465826105af565b9050602081019050919050565b600081519050919050565b600082825260208201905092915050565b6000819050919050565b82818337600083830152505050565b60005b838110156104c55780820151818401526020810190506104aa565b838111156104d4576000848401525b50505050565b600060028204905060018216806104f257607f821691505b602082108114156105065761050561053d565b5b50919050565b610515826105af565b810181811067ffffffffffffffff821117156105345761053361056c565b5b80604052505050565b7f4e487b7100000000000000000000000000000000000000000000000000000000600052602260045260246000fd5b7f4e487b7100000000000000000000000000000000000000000000000000000000600052604160045260246000fd5b600080fd5b600080fd5b600080fd5b600080fd5b6000601f19601f8301169050919050565b6105c98161048e565b81146105d457600080fd5b5056fea264697066735822122016febc1e93e5bb811ca6ac9552ae251c2b7b8d0c610e88528e52b529a1a59fae64736f6c63430008070033",
					"opcodes": "PUSH1 0x80 PUSH1 0x40 MSTORE CALLVALUE DUP1 ISZERO PUSH2 0x10 JUMPI PUSH1 0x0 DUP1 REVERT JUMPDEST POP PUSH2 0x60D DUP1 PUSH2 0x20 PUSH1 0x0 CODECOPY PUSH1 0x0 RETURN INVALID PUSH1 0x80 PUSH1 0x40 MSTORE CALLVALUE DUP1 ISZERO PUSH2 0x10 JUMPI PUSH1 0x0 DUP1 REVERT JUMPDEST POP PUSH1 0x4 CALLDATASIZE LT PUSH2 0x36 JUMPI PUSH1 0x0 CALLDATALOAD PUSH1 0xE0 SHR DUP1 PUSH4 0x234C6686 EQ PUSH2 0x3B JUMPI DUP1 PUSH4 0x904D54D2 EQ PUSH2 0x57 JUMPI JUMPDEST PUSH1 0x0 DUP1 REVERT JUMPDEST PUSH2 0x55 PUSH1 0x4 DUP1 CALLDATASIZE SUB DUP2 ADD SWAP1 PUSH2 0x50 SWAP2 SWAP1 PUSH2 0x2FF JUMP JUMPDEST PUSH2 0x87 JUMP JUMPDEST STOP JUMPDEST PUSH2 0x71 PUSH1 0x4 DUP1 CALLDATASIZE SUB DUP2 ADD SWAP1 PUSH2 0x6C SWAP2 SWAP1 PUSH2 0x348 JUMP JUMPDEST PUSH2 0xF4 JUMP JUMPDEST PUSH1 0x40 MLOAD PUSH2 0x7E SWAP2 SWAP1 PUSH2 0x3FA JUMP JUMPDEST PUSH1 0x40 MLOAD DUP1 SWAP2 SUB SWAP1 RETURN JUMPDEST PUSH1 0x0 PUSH1 0x40 MLOAD DUP1 PUSH1 0x40 ADD PUSH1 0x40 MSTORE DUP1 PUSH1 0x0 DUP2 MSTORE PUSH1 0x20 ADD DUP4 DUP2 MSTORE POP SWAP1 DUP1 PUSH1 0x1 DUP2 SLOAD ADD DUP1 DUP3 SSTORE DUP1 SWAP2 POP POP PUSH1 0x1 SWAP1 SUB SWAP1 PUSH1 0x0 MSTORE PUSH1 0x20 PUSH1 0x0 KECCAK256 SWAP1 PUSH1 0x2 MUL ADD PUSH1 0x0 SWAP1 SWAP2 SWAP1 SWAP2 SWAP1 SWAP2 POP PUSH1 0x0 DUP3 ADD MLOAD DUP2 PUSH1 0x0 ADD SSTORE PUSH1 0x20 DUP3 ADD MLOAD DUP2 PUSH1 0x1 ADD SWAP1 DUP1 MLOAD SWAP1 PUSH1 0x20 ADD SWAP1 PUSH2 0xEE SWAP3 SWAP2 SWAP1 PUSH2 0x1BD JUMP JUMPDEST POP POP POP POP JUMP JUMPDEST PUSH2 0xFC PUSH2 0x243 JUMP JUMPDEST PUSH1 0x1 PUSH1 0x0 DUP4 DUP2 MSTORE PUSH1 0x20 ADD SWAP1 DUP2 MSTORE PUSH1 0x20 ADD PUSH1 0x0 KECCAK256 PUSH1 0x40 MLOAD DUP1 PUSH1 0x40 ADD PUSH1 0x40 MSTORE SWAP1 DUP2 PUSH1 0x0 DUP3 ADD SLOAD DUP2 MSTORE PUSH1 0x20 ADD PUSH1 0x1 DUP3 ADD DUP1 SLOAD PUSH2 0x134 SWAP1 PUSH2 0x4DA JUMP JUMPDEST DUP1 PUSH1 0x1F ADD PUSH1 0x20 DUP1 SWAP2 DIV MUL PUSH1 0x20 ADD PUSH1 0x40 MLOAD SWAP1 DUP2 ADD PUSH1 0x40 MSTORE DUP1 SWAP3 SWAP2 SWAP1 DUP2 DUP2 MSTORE PUSH1 0x20 ADD DUP3 DUP1 SLOAD PUSH2 0x160 SWAP1 PUSH2 0x4DA JUMP JUMPDEST DUP1 ISZERO PUSH2 0x1AD JUMPI DUP1 PUSH1 0x1F LT PUSH2 0x182 JUMPI PUSH2 0x100 DUP1 DUP4 SLOAD DIV MUL DUP4 MSTORE SWAP2 PUSH1 0x20 ADD SWAP2 PUSH2 0x1AD JUMP JUMPDEST DUP3 ADD SWAP2 SWAP1 PUSH1 0x0 MSTORE PUSH1 0x20 PUSH1 0x0 KECCAK256 SWAP1 JUMPDEST DUP2 SLOAD DUP2 MSTORE SWAP1 PUSH1 0x1 ADD SWAP1 PUSH1 0x20 ADD DUP1 DUP4 GT PUSH2 0x190 JUMPI DUP3 SWAP1 SUB PUSH1 0x1F AND DUP3 ADD SWAP2 JUMPDEST POP POP POP POP POP DUP2 MSTORE POP POP SWAP1 POP SWAP2 SWAP1 POP JUMP JUMPDEST DUP3 DUP1 SLOAD PUSH2 0x1C9 SWAP1 PUSH2 0x4DA JUMP JUMPDEST SWAP1 PUSH1 0x0 MSTORE PUSH1 0x20 PUSH1 0x0 KECCAK256 SWAP1 PUSH1 0x1F ADD PUSH1 0x20 SWAP1 DIV DUP2 ADD SWAP3 DUP3 PUSH2 0x1EB JUMPI PUSH1 0x0 DUP6 SSTORE PUSH2 0x232 JUMP JUMPDEST DUP3 PUSH1 0x1F LT PUSH2 0x204 JUMPI DUP1 MLOAD PUSH1 0xFF NOT AND DUP4 DUP1 ADD OR DUP6 SSTORE PUSH2 0x232 JUMP JUMPDEST DUP3 DUP1 ADD PUSH1 0x1 ADD DUP6 SSTORE DUP3 ISZERO PUSH2 0x232 JUMPI SWAP2 DUP3 ADD JUMPDEST DUP3 DUP2 GT ISZERO PUSH2 0x231 JUMPI DUP3 MLOAD DUP3 SSTORE SWAP2 PUSH1 0x20 ADD SWAP2 SWAP1 PUSH1 0x1 ADD SWAP1 PUSH2 0x216 JUMP JUMPDEST JUMPDEST POP SWAP1 POP PUSH2 0x23F SWAP2 SWAP1 PUSH2 0x25D JUMP JUMPDEST POP SWAP1 JUMP JUMPDEST PUSH1 0x40 MLOAD DUP1 PUSH1 0x40 ADD PUSH1 0x40 MSTORE DUP1 PUSH1 0x0 DUP2 MSTORE PUSH1 0x20 ADD PUSH1 0x60 DUP2 MSTORE POP SWAP1 JUMP JUMPDEST JUMPDEST DUP1 DUP3 GT ISZERO PUSH2 0x276 JUMPI PUSH1 0x0 DUP2 PUSH1 0x0 SWAP1 SSTORE POP PUSH1 0x1 ADD PUSH2 0x25E JUMP JUMPDEST POP SWAP1 JUMP JUMPDEST PUSH1 0x0 PUSH2 0x28D PUSH2 0x288 DUP5 PUSH2 0x441 JUMP JUMPDEST PUSH2 0x41C JUMP JUMPDEST SWAP1 POP DUP3 DUP2 MSTORE PUSH1 0x20 DUP2 ADD DUP5 DUP5 DUP5 ADD GT ISZERO PUSH2 0x2A9 JUMPI PUSH2 0x2A8 PUSH2 0x5A0 JUMP JUMPDEST JUMPDEST PUSH2 0x2B4 DUP5 DUP3 DUP6 PUSH2 0x498 JUMP JUMPDEST POP SWAP4 SWAP3 POP POP POP JUMP JUMPDEST PUSH1 0x0 DUP3 PUSH1 0x1F DUP4 ADD SLT PUSH2 0x2D1 JUMPI PUSH2 0x2D0 PUSH2 0x59B JUMP JUMPDEST JUMPDEST DUP2 CALLDATALOAD PUSH2 0x2E1 DUP5 DUP3 PUSH1 0x20 DUP7 ADD PUSH2 0x27A JUMP JUMPDEST SWAP2 POP POP SWAP3 SWAP2 POP POP JUMP JUMPDEST PUSH1 0x0 DUP2 CALLDATALOAD SWAP1 POP PUSH2 0x2F9 DUP2 PUSH2 0x5C0 JUMP JUMPDEST SWAP3 SWAP2 POP POP JUMP JUMPDEST PUSH1 0x0 PUSH1 0x20 DUP3 DUP5 SUB SLT ISZERO PUSH2 0x315 JUMPI PUSH2 0x314 PUSH2 0x5AA JUMP JUMPDEST JUMPDEST PUSH1 0x0 DUP3 ADD CALLDATALOAD PUSH8 0xFFFFFFFFFFFFFFFF DUP2 GT ISZERO PUSH2 0x333 JUMPI PUSH2 0x332 PUSH2 0x5A5 JUMP JUMPDEST JUMPDEST PUSH2 0x33F DUP5 DUP3 DUP6 ADD PUSH2 0x2BC JUMP JUMPDEST SWAP2 POP POP SWAP3 SWAP2 POP POP JUMP JUMPDEST PUSH1 0x0 PUSH1 0x20 DUP3 DUP5 SUB SLT ISZERO PUSH2 0x35E JUMPI PUSH2 0x35D PUSH2 0x5AA JUMP JUMPDEST JUMPDEST PUSH1 0x0 PUSH2 0x36C DUP5 DUP3 DUP6 ADD PUSH2 0x2EA JUMP JUMPDEST SWAP2 POP POP SWAP3 SWAP2 POP POP JUMP JUMPDEST PUSH1 0x0 PUSH2 0x380 DUP3 PUSH2 0x472 JUMP JUMPDEST PUSH2 0x38A DUP2 DUP6 PUSH2 0x47D JUMP JUMPDEST SWAP4 POP PUSH2 0x39A DUP2 DUP6 PUSH1 0x20 DUP7 ADD PUSH2 0x4A7 JUMP JUMPDEST PUSH2 0x3A3 DUP2 PUSH2 0x5AF JUMP JUMPDEST DUP5 ADD SWAP2 POP POP SWAP3 SWAP2 POP POP JUMP JUMPDEST PUSH1 0x0 PUSH1 0x40 DUP4 ADD PUSH1 0x0 DUP4 ADD MLOAD PUSH2 0x3C6 PUSH1 0x0 DUP7 ADD DUP3 PUSH2 0x3EB JUMP JUMPDEST POP PUSH1 0x20 DUP4 ADD MLOAD DUP5 DUP3 SUB PUSH1 0x20 DUP7 ADD MSTORE PUSH2 0x3DE DUP3 DUP3 PUSH2 0x375 JUMP JUMPDEST SWAP2 POP POP DUP1 SWAP2 POP POP SWAP3 SWAP2 POP POP JUMP JUMPDEST PUSH2 0x3F4 DUP2 PUSH2 0x48E JUMP JUMPDEST DUP3 MSTORE POP POP JUMP JUMPDEST PUSH1 0x0 PUSH1 0x20 DUP3 ADD SWAP1 POP DUP2 DUP2 SUB PUSH1 0x0 DUP4 ADD MSTORE PUSH2 0x414 DUP2 DUP5 PUSH2 0x3AE JUMP JUMPDEST SWAP1 POP SWAP3 SWAP2 POP POP JUMP JUMPDEST PUSH1 0x0 PUSH2 0x426 PUSH2 0x437 JUMP JUMPDEST SWAP1 POP PUSH2 0x432 DUP3 DUP3 PUSH2 0x50C JUMP JUMPDEST SWAP2 SWAP1 POP JUMP JUMPDEST PUSH1 0x0 PUSH1 0x40 MLOAD SWAP1 POP SWAP1 JUMP JUMPDEST PUSH1 0x0 PUSH8 0xFFFFFFFFFFFFFFFF DUP3 GT ISZERO PUSH2 0x45C JUMPI PUSH2 0x45B PUSH2 0x56C JUMP JUMPDEST JUMPDEST PUSH2 0x465 DUP3 PUSH2 0x5AF JUMP JUMPDEST SWAP1 POP PUSH1 0x20 DUP2 ADD SWAP1 POP SWAP2 SWAP1 POP JUMP JUMPDEST PUSH1 0x0 DUP2 MLOAD SWAP1 POP SWAP2 SWAP1 POP JUMP JUMPDEST PUSH1 0x0 DUP3 DUP3 MSTORE PUSH1 0x20 DUP3 ADD SWAP1 POP SWAP3 SWAP2 POP POP JUMP JUMPDEST PUSH1 0x0 DUP2 SWAP1 POP SWAP2 SWAP1 POP JUMP JUMPDEST DUP3 DUP2 DUP4 CALLDATACOPY PUSH1 0x0 DUP4 DUP4 ADD MSTORE POP POP POP JUMP JUMPDEST PUSH1 0x0 JUMPDEST DUP4 DUP2 LT ISZERO PUSH2 0x4C5 JUMPI DUP1 DUP3 ADD MLOAD DUP2 DUP5 ADD MSTORE PUSH1 0x20 DUP2 ADD SWAP1 POP PUSH2 0x4AA JUMP JUMPDEST DUP4 DUP2 GT ISZERO PUSH2 0x4D4 JUMPI PUSH1 0x0 DUP5 DUP5 ADD MSTORE JUMPDEST POP POP POP POP JUMP JUMPDEST PUSH1 0x0 PUSH1 0x2 DUP3 DIV SWAP1 POP PUSH1 0x1 DUP3 AND DUP1 PUSH2 0x4F2 JUMPI PUSH1 0x7F DUP3 AND SWAP2 POP JUMPDEST PUSH1 0x20 DUP3 LT DUP2 EQ ISZERO PUSH2 0x506 JUMPI PUSH2 0x505 PUSH2 0x53D JUMP JUMPDEST JUMPDEST POP SWAP2 SWAP1 POP JUMP JUMPDEST PUSH2 0x515 DUP3 PUSH2 0x5AF JUMP JUMPDEST DUP2 ADD DUP2 DUP2 LT PUSH8 0xFFFFFFFFFFFFFFFF DUP3 GT OR ISZERO PUSH2 0x534 JUMPI PUSH2 0x533 PUSH2 0x56C JUMP JUMPDEST JUMPDEST DUP1 PUSH1 0x40 MSTORE POP POP POP JUMP JUMPDEST PUSH32 0x4E487B7100000000000000000000000000000000000000000000000000000000 PUSH1 0x0 MSTORE PUSH1 0x22 PUSH1 0x4 MSTORE PUSH1 0x24 PUSH1 0x0 REVERT JUMPDEST PUSH32 0x4E487B7100000000000000000000000000000000000000000000000000000000 PUSH1 0x0 MSTORE PUSH1 0x41 PUSH1 0x4 MSTORE PUSH1 0x24 PUSH1 0x0 REVERT JUMPDEST PUSH1 0x0 DUP1 REVERT JUMPDEST PUSH1 0x0 DUP1 REVERT JUMPDEST PUSH1 0x0 DUP1 REVERT JUMPDEST PUSH1 0x0 DUP1 REVERT JUMPDEST PUSH1 0x0 PUSH1 0x1F NOT PUSH1 0x1F DUP4 ADD AND SWAP1 POP SWAP2 SWAP1 POP JUMP JUMPDEST PUSH2 0x5C9 DUP2 PUSH2 0x48E JUMP JUMPDEST DUP2 EQ PUSH2 0x5D4 JUMPI PUSH1 0x0 DUP1 REVERT JUMPDEST POP JUMP INVALID LOG2 PUSH5 0x6970667358 0x22 SLT KECCAK256 AND INVALID 0xBC 0x1E SWAP4 0xE5 0xBB DUP2 SHR 0xA6 0xAC SWAP6 MSTORE 0xAE 0x25 SHR 0x2B PUSH28 0x8D0C610E88528E52B529A1A59FAE64736F6C63430008070033000000 "
				},
				"gasEstimates": {
					"creation": {
						"codeDepositCost": "309800",
						"executionCost": "349",
						"totalCost": "310149"
					},
					"external": {
						"createReadList(string)": "infinite",
						"getReadList(uint256)": "infinite"
					}
				},
				"methodIdentifiers": {
					"createReadList(string)": "234c6686",
					"getReadList(uint256)": "904d54d2"
				}
			},
			"storageLayout": {
				"storage": [
					{
						"astId": 10,
						"contract": "array.sol:ArrayTest",
						"label": "list",
						"offset": 0,
						"slot": "0",
						"type": "t_array(t_struct(Book)6_storage)dyn_storage"
					},
					{
						"astId": 15,
						"contract": "array.sol:ArrayTest",
						"label": "book",
						"offset": 0,
						"slot": "1",
						"type": "t_mapping(t_uint256,t_struct(Book)6_storage)"
					}
				],
				"types": {
					"t_array(t_struct(Book)6_storage)dyn_storage": {
						"base": "t_struct(Book)6_storage",
						"encoding": "dynamic_array",
						"label": "struct ArrayTest.Book[]",
						"numberOfBytes": "32"
					},
					"t_mapping(t_uint256,t_struct(Book)6_storage)": {
						"encoding": "mapping",
						"key": "t_uint256",
						"label": "mapping(uint256 => struct ArrayTest.Book)",
						"numberOfBytes": "32",
						"value": "t_struct(Book)6_storage"
					},
					"t_string_storage": {
						"encoding": "bytes",
						"label": "string",
						"numberOfBytes": "32"
					},
					"t_struct(Book)6_storage": {
						"encoding": "inplace",
						"label": "struct ArrayTest.Book",
						"members": [
							{
								"astId": 3,
								"contract": "array.sol:ArrayTest",
								"label": "status",
								"offset": 0,
								"slot": "0",
								"type": "t_uint256"
							},
							{
								"astId": 5,
								"contract": "array.sol:ArrayTest",
								"label": "bookName",
								"offset": 0,
								"slot": "1",
								"type": "t_string_storage"
							}
						],
						"numberOfBytes": "64"
					},
					"t_uint256": {
						"encoding": "inplace",
						"label": "uint256",
						"numberOfBytes": "32"
					}
				}
			},
			"userdoc": {
				"kind": "user",
				"methods": {},
				"version": 1
			}
		}
	}
}