{
	"array.sol": {
		"ArrayTest": {
			"abi": [
				{
					"inputs": [
						{
							"internalType": "string",
							"name": "_bookName",
							"type": "string"
						}
					],
					"name": "createReadList",
					"outputs": [],
					"stateMutability": "nonpayable",
					"type": "function"
				},
				{
					"inputs": [
						{
							"internalType": "string",
							"name": "bookName",
							"type": "string"
						},
						{
							"internalType": "uint256",
							"name": "_status",
							"type": "uint256"
						}
					],
					"name": "editReadList",
					"outputs": [],
					"stateMutability": "nonpayable",
					"type": "function"
				},
				{
					"inputs": [
						{
							"internalType": "uint256",
							"name": "status",
							"type": "uint256"
						}
					],
					"name": "getReadList",
					"outputs": [
						{
							"components": [
								{
									"internalType": "uint256",
									"name": "status",
									"type": "uint256"
								},
								{
									"internalType": "string",
									"name": "bookName",
									"type": "string"
								}
							],
							"internalType": "struct ArrayTest.Book",
							"name": "",
							"type": "tuple"
						}
					],
					"stateMutability": "view",
					"type": "function"
				}
			],
			"devdoc": {
				"kind": "dev",
				"methods": {},
				"version": 1
			},
			"evm": {
				"assembly": "    /* \"array.sol\":61:845  contract ArrayTest {\r... */\n  mstore(0x40, 0x80)\n  callvalue\n  dup1\n  iszero\n  tag_1\n  jumpi\n  0x00\n  dup1\n  revert\ntag_1:\n  pop\n  dataSize(sub_0)\n  dup1\n  dataOffset(sub_0)\n  0x00\n  codecopy\n  0x00\n  return\nstop\n\nsub_0: assembly {\n        /* \"array.sol\":61:845  contract ArrayTest {\r... */\n      mstore(0x40, 0x80)\n      callvalue\n      dup1\n      iszero\n      tag_1\n      jumpi\n      0x00\n      dup1\n      revert\n    tag_1:\n      pop\n      jumpi(tag_2, lt(calldatasize, 0x04))\n      shr(0xe0, calldataload(0x00))\n      dup1\n      0x234c6686\n      eq\n      tag_3\n      jumpi\n      dup1\n      0x904d54d2\n      eq\n      tag_4\n      jumpi\n      dup1\n      0xfb2996fd\n      eq\n      tag_5\n      jumpi\n    tag_2:\n      0x00\n      dup1\n      revert\n        /* \"array.sol\":324:483  function createReadList(string memory _bookName) public {\r... */\n    tag_3:\n      tag_6\n      0x04\n      dup1\n      calldatasize\n      sub\n      dup2\n      add\n      swap1\n      tag_7\n      swap2\n      swap1\n      tag_8\n      jump\t// in\n    tag_7:\n      tag_9\n      jump\t// in\n    tag_6:\n      stop\n        /* \"array.sol\":736:842  function getReadList(uint status) public view returns (Book memory) {\r... */\n    tag_4:\n      tag_10\n      0x04\n      dup1\n      calldatasize\n      sub\n      dup2\n      add\n      swap1\n      tag_11\n      swap2\n      swap1\n      tag_12\n      jump\t// in\n    tag_11:\n      tag_13\n      jump\t// in\n    tag_10:\n      mload(0x40)\n      tag_14\n      swap2\n      swap1\n      tag_15\n      jump\t// in\n    tag_14:\n      mload(0x40)\n      dup1\n      swap2\n      sub\n      swap1\n      return\n        /* \"array.sol\":491:728  function editReadList(string memory bookName,uint _status) public {\r... */\n    tag_5:\n      tag_16\n      0x04\n      dup1\n      calldatasize\n      sub\n      dup2\n      add\n      swap1\n      tag_17\n      swap2\n      swap1\n      tag_18\n      jump\t// in\n    tag_17:\n      tag_19\n      jump\t// in\n    tag_16:\n      stop\n        /* \"array.sol\":324:483  function createReadList(string memory _bookName) public {\r... */\n    tag_9:\n        /* \"array.sol\":391:395  list */\n      0x00\n        /* \"array.sol\":401:474  Book({\r... */\n      mload(0x40)\n      dup1\n      0x40\n      add\n      0x40\n      mstore\n      dup1\n        /* \"array.sol\":428:429  0 */\n      0x00\n        /* \"array.sol\":401:474  Book({\r... */\n      dup2\n      mstore\n      0x20\n      add\n        /* \"array.sol\":453:462  _bookName */\n      dup4\n        /* \"array.sol\":401:474  Book({\r... */\n      dup2\n      mstore\n      pop\n        /* \"array.sol\":391:475  list.push(Book({\r... */\n      swap1\n      dup1\n      0x01\n      dup2\n      sload\n      add\n      dup1\n      dup3\n      sstore\n      dup1\n      swap2\n      pop\n      pop\n      0x01\n      swap1\n      sub\n      swap1\n      0x00\n      mstore\n      keccak256(0x00, 0x20)\n      swap1\n      0x02\n      mul\n      add\n      0x00\n      swap1\n      swap2\n      swap1\n      swap2\n      swap1\n      swap2\n      pop\n      0x00\n      dup3\n      add\n      mload\n      dup2\n      0x00\n      add\n      sstore\n      0x20\n      dup3\n      add\n      mload\n      dup2\n      0x01\n      add\n      swap1\n      dup1\n      mload\n      swap1\n      0x20\n      add\n      swap1\n      tag_22\n      swap3\n      swap2\n      swap1\n      tag_23\n      jump\t// in\n    tag_22:\n      pop\n      pop\n      pop\n        /* \"array.sol\":324:483  function createReadList(string memory _bookName) public {\r... */\n      pop\n      jump\t// out\n        /* \"array.sol\":736:842  function getReadList(uint status) public view returns (Book memory) {\r... */\n    tag_13:\n        /* \"array.sol\":791:802  Book memory */\n      tag_24\n      tag_25\n      jump\t// in\n    tag_24:\n        /* \"array.sol\":822:826  book */\n      0x01\n        /* \"array.sol\":822:834  book[status] */\n      0x00\n        /* \"array.sol\":827:833  status */\n      dup4\n        /* \"array.sol\":822:834  book[status] */\n      dup2\n      mstore\n      0x20\n      add\n      swap1\n      dup2\n      mstore\n      0x20\n      add\n      0x00\n      keccak256\n        /* \"array.sol\":815:834  return book[status] */\n      mload(0x40)\n      dup1\n      0x40\n      add\n      0x40\n      mstore\n      swap1\n      dup2\n      0x00\n      dup3\n      add\n      sload\n      dup2\n      mstore\n      0x20\n      add\n      0x01\n      dup3\n      add\n      dup1\n      sload\n      tag_27\n      swap1\n      tag_28\n      jump\t// in\n    tag_27:\n      dup1\n      0x1f\n      add\n      0x20\n      dup1\n      swap2\n      div\n      mul\n      0x20\n      add\n      mload(0x40)\n      swap1\n      dup2\n      add\n      0x40\n      mstore\n      dup1\n      swap3\n      swap2\n      swap1\n      dup2\n      dup2\n      mstore\n      0x20\n      add\n      dup3\n      dup1\n      sload\n      tag_29\n      swap1\n      tag_28\n      jump\t// in\n    tag_29:\n      dup1\n      iszero\n      tag_30\n      jumpi\n      dup1\n      0x1f\n      lt\n      tag_31\n      jumpi\n      0x0100\n      dup1\n      dup4\n      sload\n      div\n      mul\n      dup4\n      mstore\n      swap2\n      0x20\n      add\n      swap2\n      jump(tag_30)\n    tag_31:\n      dup3\n      add\n      swap2\n      swap1\n      0x00\n      mstore\n      keccak256(0x00, 0x20)\n      swap1\n    tag_32:\n      dup2\n      sload\n      dup2\n      mstore\n      swap1\n      0x01\n      add\n      swap1\n      0x20\n      add\n      dup1\n      dup4\n      gt\n      tag_32\n      jumpi\n      dup3\n      swap1\n      sub\n      0x1f\n      and\n      dup3\n      add\n      swap2\n    tag_30:\n      pop\n      pop\n      pop\n      pop\n      pop\n      dup2\n      mstore\n      pop\n      pop\n      swap1\n      pop\n        /* \"array.sol\":736:842  function getReadList(uint status) public view returns (Book memory) {\r... */\n      swap2\n      swap1\n      pop\n      jump\t// out\n        /* \"array.sol\":491:728  function editReadList(string memory bookName,uint _status) public {\r... */\n    tag_19:\n        /* \"array.sol\":713:720  _status */\n      dup1\n        /* \"array.sol\":685:693  editBook */\n      0x02\n        /* \"array.sol\":694:702  bookName */\n      dup4\n        /* \"array.sol\":685:703  editBook[bookName] */\n      mload(0x40)\n      tag_34\n      swap2\n      swap1\n      tag_35\n      jump\t// in\n    tag_34:\n      swap1\n      dup2\n      mstore\n      0x20\n      add\n      mload(0x40)\n      dup1\n      swap2\n      sub\n      swap1\n      keccak256\n        /* \"array.sol\":685:710  editBook[bookName].status */\n      0x00\n      add\n        /* \"array.sol\":685:720  editBook[bookName].status = _status */\n      dup2\n      swap1\n      sstore\n      pop\n        /* \"array.sol\":491:728  function editReadList(string memory bookName,uint _status) public {\r... */\n      pop\n      pop\n      jump\t// out\n    tag_23:\n      dup3\n      dup1\n      sload\n      tag_36\n      swap1\n      tag_28\n      jump\t// in\n    tag_36:\n      swap1\n      0x00\n      mstore\n      keccak256(0x00, 0x20)\n      swap1\n      0x1f\n      add\n      0x20\n      swap1\n      div\n      dup2\n      add\n      swap3\n      dup3\n      tag_38\n      jumpi\n      0x00\n      dup6\n      sstore\n      jump(tag_37)\n    tag_38:\n      dup3\n      0x1f\n      lt\n      tag_39\n      jumpi\n      dup1\n      mload\n      not(0xff)\n      and\n      dup4\n      dup1\n      add\n      or\n      dup6\n      sstore\n      jump(tag_37)\n    tag_39:\n      dup3\n      dup1\n      add\n      0x01\n      add\n      dup6\n      sstore\n      dup3\n      iszero\n      tag_37\n      jumpi\n      swap2\n      dup3\n      add\n    tag_40:\n      dup3\n      dup2\n      gt\n      iszero\n      tag_41\n      jumpi\n      dup3\n      mload\n      dup3\n      sstore\n      swap2\n      0x20\n      add\n      swap2\n      swap1\n      0x01\n      add\n      swap1\n      jump(tag_40)\n    tag_41:\n    tag_37:\n      pop\n      swap1\n      pop\n      tag_42\n      swap2\n      swap1\n      tag_43\n      jump\t// in\n    tag_42:\n      pop\n      swap1\n      jump\t// out\n    tag_25:\n      mload(0x40)\n      dup1\n      0x40\n      add\n      0x40\n      mstore\n      dup1\n      0x00\n      dup2\n      mstore\n      0x20\n      add\n      0x60\n      dup2\n      mstore\n      pop\n      swap1\n      jump\t// out\n    tag_43:\n    tag_44:\n      dup1\n      dup3\n      gt\n      iszero\n      tag_45\n      jumpi\n      0x00\n      dup2\n      0x00\n      swap1\n      sstore\n      pop\n      0x01\n      add\n      jump(tag_44)\n    tag_45:\n      pop\n      swap1\n      jump\t// out\n        /* \"#utility.yul\":7:419   */\n    tag_47:\n        /* \"#utility.yul\":85:90   */\n      0x00\n        /* \"#utility.yul\":110:176   */\n      tag_49\n        /* \"#utility.yul\":126:175   */\n      tag_50\n        /* \"#utility.yul\":168:174   */\n      dup5\n        /* \"#utility.yul\":126:175   */\n      tag_51\n      jump\t// in\n    tag_50:\n        /* \"#utility.yul\":110:176   */\n      tag_52\n      jump\t// in\n    tag_49:\n        /* \"#utility.yul\":101:176   */\n      swap1\n      pop\n        /* \"#utility.yul\":199:205   */\n      dup3\n        /* \"#utility.yul\":192:197   */\n      dup2\n        /* \"#utility.yul\":185:206   */\n      mstore\n        /* \"#utility.yul\":237:241   */\n      0x20\n        /* \"#utility.yul\":230:235   */\n      dup2\n        /* \"#utility.yul\":226:242   */\n      add\n        /* \"#utility.yul\":275:278   */\n      dup5\n        /* \"#utility.yul\":266:272   */\n      dup5\n        /* \"#utility.yul\":261:264   */\n      dup5\n        /* \"#utility.yul\":257:273   */\n      add\n        /* \"#utility.yul\":254:279   */\n      gt\n        /* \"#utility.yul\":251:363   */\n      iszero\n      tag_53\n      jumpi\n        /* \"#utility.yul\":282:361   */\n      tag_54\n      tag_55\n      jump\t// in\n    tag_54:\n        /* \"#utility.yul\":251:363   */\n    tag_53:\n        /* \"#utility.yul\":372:413   */\n      tag_56\n        /* \"#utility.yul\":406:412   */\n      dup5\n        /* \"#utility.yul\":401:404   */\n      dup3\n        /* \"#utility.yul\":396:399   */\n      dup6\n        /* \"#utility.yul\":372:413   */\n      tag_57\n      jump\t// in\n    tag_56:\n        /* \"#utility.yul\":91:419   */\n      pop\n        /* \"#utility.yul\":7:419   */\n      swap4\n      swap3\n      pop\n      pop\n      pop\n      jump\t// out\n        /* \"#utility.yul\":439:779   */\n    tag_58:\n        /* \"#utility.yul\":495:500   */\n      0x00\n        /* \"#utility.yul\":544:547   */\n      dup3\n        /* \"#utility.yul\":537:541   */\n      0x1f\n        /* \"#utility.yul\":529:535   */\n      dup4\n        /* \"#utility.yul\":525:542   */\n      add\n        /* \"#utility.yul\":521:548   */\n      slt\n        /* \"#utility.yul\":511:633   */\n      tag_60\n      jumpi\n        /* \"#utility.yul\":552:631   */\n      tag_61\n      tag_62\n      jump\t// in\n    tag_61:\n        /* \"#utility.yul\":511:633   */\n    tag_60:\n        /* \"#utility.yul\":669:675   */\n      dup2\n        /* \"#utility.yul\":656:676   */\n      calldataload\n        /* \"#utility.yul\":694:773   */\n      tag_63\n        /* \"#utility.yul\":769:772   */\n      dup5\n        /* \"#utility.yul\":761:767   */\n      dup3\n        /* \"#utility.yul\":754:758   */\n      0x20\n        /* \"#utility.yul\":746:752   */\n      dup7\n        /* \"#utility.yul\":742:759   */\n      add\n        /* \"#utility.yul\":694:773   */\n      tag_47\n      jump\t// in\n    tag_63:\n        /* \"#utility.yul\":685:773   */\n      swap2\n      pop\n        /* \"#utility.yul\":501:779   */\n      pop\n        /* \"#utility.yul\":439:779   */\n      swap3\n      swap2\n      pop\n      pop\n      jump\t// out\n        /* \"#utility.yul\":785:924   */\n    tag_64:\n        /* \"#utility.yul\":831:836   */\n      0x00\n        /* \"#utility.yul\":869:875   */\n      dup2\n        /* \"#utility.yul\":856:876   */\n      calldataload\n        /* \"#utility.yul\":847:876   */\n      swap1\n      pop\n        /* \"#utility.yul\":885:918   */\n      tag_66\n        /* \"#utility.yul\":912:917   */\n      dup2\n        /* \"#utility.yul\":885:918   */\n      tag_67\n      jump\t// in\n    tag_66:\n        /* \"#utility.yul\":785:924   */\n      swap3\n      swap2\n      pop\n      pop\n      jump\t// out\n        /* \"#utility.yul\":930:1439   */\n    tag_8:\n        /* \"#utility.yul\":999:1005   */\n      0x00\n        /* \"#utility.yul\":1048:1050   */\n      0x20\n        /* \"#utility.yul\":1036:1045   */\n      dup3\n        /* \"#utility.yul\":1027:1034   */\n      dup5\n        /* \"#utility.yul\":1023:1046   */\n      sub\n        /* \"#utility.yul\":1019:1051   */\n      slt\n        /* \"#utility.yul\":1016:1135   */\n      iszero\n      tag_69\n      jumpi\n        /* \"#utility.yul\":1054:1133   */\n      tag_70\n      tag_71\n      jump\t// in\n    tag_70:\n        /* \"#utility.yul\":1016:1135   */\n    tag_69:\n        /* \"#utility.yul\":1202:1203   */\n      0x00\n        /* \"#utility.yul\":1191:1200   */\n      dup3\n        /* \"#utility.yul\":1187:1204   */\n      add\n        /* \"#utility.yul\":1174:1205   */\n      calldataload\n        /* \"#utility.yul\":1232:1250   */\n      0xffffffffffffffff\n        /* \"#utility.yul\":1224:1230   */\n      dup2\n        /* \"#utility.yul\":1221:1251   */\n      gt\n        /* \"#utility.yul\":1218:1335   */\n      iszero\n      tag_72\n      jumpi\n        /* \"#utility.yul\":1254:1333   */\n      tag_73\n      tag_74\n      jump\t// in\n    tag_73:\n        /* \"#utility.yul\":1218:1335   */\n    tag_72:\n        /* \"#utility.yul\":1359:1422   */\n      tag_75\n        /* \"#utility.yul\":1414:1421   */\n      dup5\n        /* \"#utility.yul\":1405:1411   */\n      dup3\n        /* \"#utility.yul\":1394:1403   */\n      dup6\n        /* \"#utility.yul\":1390:1412   */\n      add\n        /* \"#utility.yul\":1359:1422   */\n      tag_58\n      jump\t// in\n    tag_75:\n        /* \"#utility.yul\":1349:1422   */\n      swap2\n      pop\n        /* \"#utility.yul\":1145:1432   */\n      pop\n        /* \"#utility.yul\":930:1439   */\n      swap3\n      swap2\n      pop\n      pop\n      jump\t// out\n        /* \"#utility.yul\":1445:2099   */\n    tag_18:\n        /* \"#utility.yul\":1523:1529   */\n      0x00\n        /* \"#utility.yul\":1531:1537   */\n      dup1\n        /* \"#utility.yul\":1580:1582   */\n      0x40\n        /* \"#utility.yul\":1568:1577   */\n      dup4\n        /* \"#utility.yul\":1559:1566   */\n      dup6\n        /* \"#utility.yul\":1555:1578   */\n      sub\n        /* \"#utility.yul\":1551:1583   */\n      slt\n        /* \"#utility.yul\":1548:1667   */\n      iszero\n      tag_77\n      jumpi\n        /* \"#utility.yul\":1586:1665   */\n      tag_78\n      tag_71\n      jump\t// in\n    tag_78:\n        /* \"#utility.yul\":1548:1667   */\n    tag_77:\n        /* \"#utility.yul\":1734:1735   */\n      0x00\n        /* \"#utility.yul\":1723:1732   */\n      dup4\n        /* \"#utility.yul\":1719:1736   */\n      add\n        /* \"#utility.yul\":1706:1737   */\n      calldataload\n        /* \"#utility.yul\":1764:1782   */\n      0xffffffffffffffff\n        /* \"#utility.yul\":1756:1762   */\n      dup2\n        /* \"#utility.yul\":1753:1783   */\n      gt\n        /* \"#utility.yul\":1750:1867   */\n      iszero\n      tag_79\n      jumpi\n        /* \"#utility.yul\":1786:1865   */\n      tag_80\n      tag_74\n      jump\t// in\n    tag_80:\n        /* \"#utility.yul\":1750:1867   */\n    tag_79:\n        /* \"#utility.yul\":1891:1954   */\n      tag_81\n        /* \"#utility.yul\":1946:1953   */\n      dup6\n        /* \"#utility.yul\":1937:1943   */\n      dup3\n        /* \"#utility.yul\":1926:1935   */\n      dup7\n        /* \"#utility.yul\":1922:1944   */\n      add\n        /* \"#utility.yul\":1891:1954   */\n      tag_58\n      jump\t// in\n    tag_81:\n        /* \"#utility.yul\":1881:1954   */\n      swap3\n      pop\n        /* \"#utility.yul\":1677:1964   */\n      pop\n        /* \"#utility.yul\":2003:2005   */\n      0x20\n        /* \"#utility.yul\":2029:2082   */\n      tag_82\n        /* \"#utility.yul\":2074:2081   */\n      dup6\n        /* \"#utility.yul\":2065:2071   */\n      dup3\n        /* \"#utility.yul\":2054:2063   */\n      dup7\n        /* \"#utility.yul\":2050:2072   */\n      add\n        /* \"#utility.yul\":2029:2082   */\n      tag_64\n      jump\t// in\n    tag_82:\n        /* \"#utility.yul\":2019:2082   */\n      swap2\n      pop\n        /* \"#utility.yul\":1974:2092   */\n      pop\n        /* \"#utility.yul\":1445:2099   */\n      swap3\n      pop\n      swap3\n      swap1\n      pop\n      jump\t// out\n        /* \"#utility.yul\":2105:2434   */\n    tag_12:\n        /* \"#utility.yul\":2164:2170   */\n      0x00\n        /* \"#utility.yul\":2213:2215   */\n      0x20\n        /* \"#utility.yul\":2201:2210   */\n      dup3\n        /* \"#utility.yul\":2192:2199   */\n      dup5\n        /* \"#utility.yul\":2188:2211   */\n      sub\n        /* \"#utility.yul\":2184:2216   */\n      slt\n        /* \"#utility.yul\":2181:2300   */\n      iszero\n      tag_84\n      jumpi\n        /* \"#utility.yul\":2219:2298   */\n      tag_85\n      tag_71\n      jump\t// in\n    tag_85:\n        /* \"#utility.yul\":2181:2300   */\n    tag_84:\n        /* \"#utility.yul\":2339:2340   */\n      0x00\n        /* \"#utility.yul\":2364:2417   */\n      tag_86\n        /* \"#utility.yul\":2409:2416   */\n      dup5\n        /* \"#utility.yul\":2400:2406   */\n      dup3\n        /* \"#utility.yul\":2389:2398   */\n      dup6\n        /* \"#utility.yul\":2385:2407   */\n      add\n        /* \"#utility.yul\":2364:2417   */\n      tag_64\n      jump\t// in\n    tag_86:\n        /* \"#utility.yul\":2354:2417   */\n      swap2\n      pop\n        /* \"#utility.yul\":2310:2427   */\n      pop\n        /* \"#utility.yul\":2105:2434   */\n      swap3\n      swap2\n      pop\n      pop\n      jump\t// out\n        /* \"#utility.yul\":2440:2784   */\n    tag_87:\n        /* \"#utility.yul\":2518:2521   */\n      0x00\n        /* \"#utility.yul\":2546:2585   */\n      tag_89\n        /* \"#utility.yul\":2579:2584   */\n      dup3\n        /* \"#utility.yul\":2546:2585   */\n      tag_90\n      jump\t// in\n    tag_89:\n        /* \"#utility.yul\":2601:2662   */\n      tag_91\n        /* \"#utility.yul\":2655:2661   */\n      dup2\n        /* \"#utility.yul\":2650:2653   */\n      dup6\n        /* \"#utility.yul\":2601:2662   */\n      tag_92\n      jump\t// in\n    tag_91:\n        /* \"#utility.yul\":2594:2662   */\n      swap4\n      pop\n        /* \"#utility.yul\":2671:2723   */\n      tag_93\n        /* \"#utility.yul\":2716:2722   */\n      dup2\n        /* \"#utility.yul\":2711:2714   */\n      dup6\n        /* \"#utility.yul\":2704:2708   */\n      0x20\n        /* \"#utility.yul\":2697:2702   */\n      dup7\n        /* \"#utility.yul\":2693:2709   */\n      add\n        /* \"#utility.yul\":2671:2723   */\n      tag_94\n      jump\t// in\n    tag_93:\n        /* \"#utility.yul\":2748:2777   */\n      tag_95\n        /* \"#utility.yul\":2770:2776   */\n      dup2\n        /* \"#utility.yul\":2748:2777   */\n      tag_96\n      jump\t// in\n    tag_95:\n        /* \"#utility.yul\":2743:2746   */\n      dup5\n        /* \"#utility.yul\":2739:2778   */\n      add\n        /* \"#utility.yul\":2732:2778   */\n      swap2\n      pop\n        /* \"#utility.yul\":2522:2784   */\n      pop\n        /* \"#utility.yul\":2440:2784   */\n      swap3\n      swap2\n      pop\n      pop\n      jump\t// out\n        /* \"#utility.yul\":2790:3167   */\n    tag_97:\n        /* \"#utility.yul\":2896:2899   */\n      0x00\n        /* \"#utility.yul\":2924:2963   */\n      tag_99\n        /* \"#utility.yul\":2957:2962   */\n      dup3\n        /* \"#utility.yul\":2924:2963   */\n      tag_90\n      jump\t// in\n    tag_99:\n        /* \"#utility.yul\":2979:3068   */\n      tag_100\n        /* \"#utility.yul\":3061:3067   */\n      dup2\n        /* \"#utility.yul\":3056:3059   */\n      dup6\n        /* \"#utility.yul\":2979:3068   */\n      tag_101\n      jump\t// in\n    tag_100:\n        /* \"#utility.yul\":2972:3068   */\n      swap4\n      pop\n        /* \"#utility.yul\":3077:3129   */\n      tag_102\n        /* \"#utility.yul\":3122:3128   */\n      dup2\n        /* \"#utility.yul\":3117:3120   */\n      dup6\n        /* \"#utility.yul\":3110:3114   */\n      0x20\n        /* \"#utility.yul\":3103:3108   */\n      dup7\n        /* \"#utility.yul\":3099:3115   */\n      add\n        /* \"#utility.yul\":3077:3129   */\n      tag_94\n      jump\t// in\n    tag_102:\n        /* \"#utility.yul\":3154:3160   */\n      dup1\n        /* \"#utility.yul\":3149:3152   */\n      dup5\n        /* \"#utility.yul\":3145:3161   */\n      add\n        /* \"#utility.yul\":3138:3161   */\n      swap2\n      pop\n        /* \"#utility.yul\":2900:3167   */\n      pop\n        /* \"#utility.yul\":2790:3167   */\n      swap3\n      swap2\n      pop\n      pop\n      jump\t// out\n        /* \"#utility.yul\":3227:3827   */\n    tag_103:\n        /* \"#utility.yul\":3334:3337   */\n      0x00\n        /* \"#utility.yul\":3370:3374   */\n      0x40\n        /* \"#utility.yul\":3365:3368   */\n      dup4\n        /* \"#utility.yul\":3361:3375   */\n      add\n        /* \"#utility.yul\":3459:3463   */\n      0x00\n        /* \"#utility.yul\":3452:3457   */\n      dup4\n        /* \"#utility.yul\":3448:3464   */\n      add\n        /* \"#utility.yul\":3442:3465   */\n      mload\n        /* \"#utility.yul\":3478:3541   */\n      tag_105\n        /* \"#utility.yul\":3535:3539   */\n      0x00\n        /* \"#utility.yul\":3530:3533   */\n      dup7\n        /* \"#utility.yul\":3526:3540   */\n      add\n        /* \"#utility.yul\":3512:3524   */\n      dup3\n        /* \"#utility.yul\":3478:3541   */\n      tag_106\n      jump\t// in\n    tag_105:\n        /* \"#utility.yul\":3385:3551   */\n      pop\n        /* \"#utility.yul\":3637:3641   */\n      0x20\n        /* \"#utility.yul\":3630:3635   */\n      dup4\n        /* \"#utility.yul\":3626:3642   */\n      add\n        /* \"#utility.yul\":3620:3643   */\n      mload\n        /* \"#utility.yul\":3690:3693   */\n      dup5\n        /* \"#utility.yul\":3684:3688   */\n      dup3\n        /* \"#utility.yul\":3680:3694   */\n      sub\n        /* \"#utility.yul\":3673:3677   */\n      0x20\n        /* \"#utility.yul\":3668:3671   */\n      dup7\n        /* \"#utility.yul\":3664:3678   */\n      add\n        /* \"#utility.yul\":3657:3695   */\n      mstore\n        /* \"#utility.yul\":3716:3789   */\n      tag_107\n        /* \"#utility.yul\":3784:3788   */\n      dup3\n        /* \"#utility.yul\":3770:3782   */\n      dup3\n        /* \"#utility.yul\":3716:3789   */\n      tag_87\n      jump\t// in\n    tag_107:\n        /* \"#utility.yul\":3708:3789   */\n      swap2\n      pop\n        /* \"#utility.yul\":3561:3800   */\n      pop\n        /* \"#utility.yul\":3817:3821   */\n      dup1\n        /* \"#utility.yul\":3810:3821   */\n      swap2\n      pop\n        /* \"#utility.yul\":3339:3827   */\n      pop\n        /* \"#utility.yul\":3227:3827   */\n      swap3\n      swap2\n      pop\n      pop\n      jump\t// out\n        /* \"#utility.yul\":3833:3941   */\n    tag_106:\n        /* \"#utility.yul\":3910:3934   */\n      tag_109\n        /* \"#utility.yul\":3928:3933   */\n      dup2\n        /* \"#utility.yul\":3910:3934   */\n      tag_110\n      jump\t// in\n    tag_109:\n        /* \"#utility.yul\":3905:3908   */\n      dup3\n        /* \"#utility.yul\":3898:3935   */\n      mstore\n        /* \"#utility.yul\":3833:3941   */\n      pop\n      pop\n      jump\t// out\n        /* \"#utility.yul\":3947:4222   */\n    tag_35:\n        /* \"#utility.yul\":4079:4082   */\n      0x00\n        /* \"#utility.yul\":4101:4196   */\n      tag_112\n        /* \"#utility.yul\":4192:4195   */\n      dup3\n        /* \"#utility.yul\":4183:4189   */\n      dup5\n        /* \"#utility.yul\":4101:4196   */\n      tag_97\n      jump\t// in\n    tag_112:\n        /* \"#utility.yul\":4094:4196   */\n      swap2\n      pop\n        /* \"#utility.yul\":4213:4216   */\n      dup2\n        /* \"#utility.yul\":4206:4216   */\n      swap1\n      pop\n        /* \"#utility.yul\":3947:4222   */\n      swap3\n      swap2\n      pop\n      pop\n      jump\t// out\n        /* \"#utility.yul\":4228:4577   */\n    tag_15:\n        /* \"#utility.yul\":4359:4363   */\n      0x00\n        /* \"#utility.yul\":4397:4399   */\n      0x20\n        /* \"#utility.yul\":4386:4395   */\n      dup3\n        /* \"#utility.yul\":4382:4400   */\n      add\n        /* \"#utility.yul\":4374:4400   */\n      swap1\n      pop\n        /* \"#utility.yul\":4446:4455   */\n      dup2\n        /* \"#utility.yul\":4440:4444   */\n      dup2\n        /* \"#utility.yul\":4436:4456   */\n      sub\n        /* \"#utility.yul\":4432:4433   */\n      0x00\n        /* \"#utility.yul\":4421:4430   */\n      dup4\n        /* \"#utility.yul\":4417:4434   */\n      add\n        /* \"#utility.yul\":4410:4457   */\n      mstore\n        /* \"#utility.yul\":4474:4570   */\n      tag_114\n        /* \"#utility.yul\":4565:4569   */\n      dup2\n        /* \"#utility.yul\":4556:4562   */\n      dup5\n        /* \"#utility.yul\":4474:4570   */\n      tag_103\n      jump\t// in\n    tag_114:\n        /* \"#utility.yul\":4466:4570   */\n      swap1\n      pop\n        /* \"#utility.yul\":4228:4577   */\n      swap3\n      swap2\n      pop\n      pop\n      jump\t// out\n        /* \"#utility.yul\":4583:4712   */\n    tag_52:\n        /* \"#utility.yul\":4617:4623   */\n      0x00\n        /* \"#utility.yul\":4644:4664   */\n      tag_116\n      tag_117\n      jump\t// in\n    tag_116:\n        /* \"#utility.yul\":4634:4664   */\n      swap1\n      pop\n        /* \"#utility.yul\":4673:4706   */\n      tag_118\n        /* \"#utility.yul\":4701:4705   */\n      dup3\n        /* \"#utility.yul\":4693:4699   */\n      dup3\n        /* \"#utility.yul\":4673:4706   */\n      tag_119\n      jump\t// in\n    tag_118:\n        /* \"#utility.yul\":4583:4712   */\n      swap2\n      swap1\n      pop\n      jump\t// out\n        /* \"#utility.yul\":4718:4793   */\n    tag_117:\n        /* \"#utility.yul\":4751:4757   */\n      0x00\n        /* \"#utility.yul\":4784:4786   */\n      0x40\n        /* \"#utility.yul\":4778:4787   */\n      mload\n        /* \"#utility.yul\":4768:4787   */\n      swap1\n      pop\n        /* \"#utility.yul\":4718:4793   */\n      swap1\n      jump\t// out\n        /* \"#utility.yul\":4799:5107   */\n    tag_51:\n        /* \"#utility.yul\":4861:4865   */\n      0x00\n        /* \"#utility.yul\":4951:4969   */\n      0xffffffffffffffff\n        /* \"#utility.yul\":4943:4949   */\n      dup3\n        /* \"#utility.yul\":4940:4970   */\n      gt\n        /* \"#utility.yul\":4937:4993   */\n      iszero\n      tag_122\n      jumpi\n        /* \"#utility.yul\":4973:4991   */\n      tag_123\n      tag_124\n      jump\t// in\n    tag_123:\n        /* \"#utility.yul\":4937:4993   */\n    tag_122:\n        /* \"#utility.yul\":5011:5040   */\n      tag_125\n        /* \"#utility.yul\":5033:5039   */\n      dup3\n        /* \"#utility.yul\":5011:5040   */\n      tag_96\n      jump\t// in\n    tag_125:\n        /* \"#utility.yul\":5003:5040   */\n      swap1\n      pop\n        /* \"#utility.yul\":5095:5099   */\n      0x20\n        /* \"#utility.yul\":5089:5093   */\n      dup2\n        /* \"#utility.yul\":5085:5100   */\n      add\n        /* \"#utility.yul\":5077:5100   */\n      swap1\n      pop\n        /* \"#utility.yul\":4799:5107   */\n      swap2\n      swap1\n      pop\n      jump\t// out\n        /* \"#utility.yul\":5113:5212   */\n    tag_90:\n        /* \"#utility.yul\":5165:5171   */\n      0x00\n        /* \"#utility.yul\":5199:5204   */\n      dup2\n        /* \"#utility.yul\":5193:5205   */\n      mload\n        /* \"#utility.yul\":5183:5205   */\n      swap1\n      pop\n        /* \"#utility.yul\":5113:5212   */\n      swap2\n      swap1\n      pop\n      jump\t// out\n        /* \"#utility.yul\":5218:5377   */\n    tag_92:\n        /* \"#utility.yul\":5292:5303   */\n      0x00\n        /* \"#utility.yul\":5326:5332   */\n      dup3\n        /* \"#utility.yul\":5321:5324   */\n      dup3\n        /* \"#utility.yul\":5314:5333   */\n      mstore\n        /* \"#utility.yul\":5366:5370   */\n      0x20\n        /* \"#utility.yul\":5361:5364   */\n      dup3\n        /* \"#utility.yul\":5357:5371   */\n      add\n        /* \"#utility.yul\":5342:5371   */\n      swap1\n      pop\n        /* \"#utility.yul\":5218:5377   */\n      swap3\n      swap2\n      pop\n      pop\n      jump\t// out\n        /* \"#utility.yul\":5383:5531   */\n    tag_101:\n        /* \"#utility.yul\":5485:5496   */\n      0x00\n        /* \"#utility.yul\":5522:5525   */\n      dup2\n        /* \"#utility.yul\":5507:5525   */\n      swap1\n      pop\n        /* \"#utility.yul\":5383:5531   */\n      swap3\n      swap2\n      pop\n      pop\n      jump\t// out\n        /* \"#utility.yul\":5537:5614   */\n    tag_110:\n        /* \"#utility.yul\":5574:5581   */\n      0x00\n        /* \"#utility.yul\":5603:5608   */\n      dup2\n        /* \"#utility.yul\":5592:5608   */\n      swap1\n      pop\n        /* \"#utility.yul\":5537:5614   */\n      swap2\n      swap1\n      pop\n      jump\t// out\n        /* \"#utility.yul\":5620:5774   */\n    tag_57:\n        /* \"#utility.yul\":5704:5710   */\n      dup3\n        /* \"#utility.yul\":5699:5702   */\n      dup2\n        /* \"#utility.yul\":5694:5697   */\n      dup4\n        /* \"#utility.yul\":5681:5711   */\n      calldatacopy\n        /* \"#utility.yul\":5766:5767   */\n      0x00\n        /* \"#utility.yul\":5757:5763   */\n      dup4\n        /* \"#utility.yul\":5752:5755   */\n      dup4\n        /* \"#utility.yul\":5748:5764   */\n      add\n        /* \"#utility.yul\":5741:5768   */\n      mstore\n        /* \"#utility.yul\":5620:5774   */\n      pop\n      pop\n      pop\n      jump\t// out\n        /* \"#utility.yul\":5780:6087   */\n    tag_94:\n        /* \"#utility.yul\":5848:5849   */\n      0x00\n        /* \"#utility.yul\":5858:5971   */\n    tag_132:\n        /* \"#utility.yul\":5872:5878   */\n      dup4\n        /* \"#utility.yul\":5869:5870   */\n      dup2\n        /* \"#utility.yul\":5866:5879   */\n      lt\n        /* \"#utility.yul\":5858:5971   */\n      iszero\n      tag_134\n      jumpi\n        /* \"#utility.yul\":5957:5958   */\n      dup1\n        /* \"#utility.yul\":5952:5955   */\n      dup3\n        /* \"#utility.yul\":5948:5959   */\n      add\n        /* \"#utility.yul\":5942:5960   */\n      mload\n        /* \"#utility.yul\":5938:5939   */\n      dup2\n        /* \"#utility.yul\":5933:5936   */\n      dup5\n        /* \"#utility.yul\":5929:5940   */\n      add\n        /* \"#utility.yul\":5922:5961   */\n      mstore\n        /* \"#utility.yul\":5894:5896   */\n      0x20\n        /* \"#utility.yul\":5891:5892   */\n      dup2\n        /* \"#utility.yul\":5887:5897   */\n      add\n        /* \"#utility.yul\":5882:5897   */\n      swap1\n      pop\n        /* \"#utility.yul\":5858:5971   */\n      jump(tag_132)\n    tag_134:\n        /* \"#utility.yul\":5989:5995   */\n      dup4\n        /* \"#utility.yul\":5986:5987   */\n      dup2\n        /* \"#utility.yul\":5983:5996   */\n      gt\n        /* \"#utility.yul\":5980:6081   */\n      iszero\n      tag_135\n      jumpi\n        /* \"#utility.yul\":6069:6070   */\n      0x00\n        /* \"#utility.yul\":6060:6066   */\n      dup5\n        /* \"#utility.yul\":6055:6058   */\n      dup5\n        /* \"#utility.yul\":6051:6067   */\n      add\n        /* \"#utility.yul\":6044:6071   */\n      mstore\n        /* \"#utility.yul\":5980:6081   */\n    tag_135:\n        /* \"#utility.yul\":5829:6087   */\n      pop\n        /* \"#utility.yul\":5780:6087   */\n      pop\n      pop\n      pop\n      jump\t// out\n        /* \"#utility.yul\":6093:6413   */\n    tag_28:\n        /* \"#utility.yul\":6137:6143   */\n      0x00\n        /* \"#utility.yul\":6174:6175   */\n      0x02\n        /* \"#utility.yul\":6168:6172   */\n      dup3\n        /* \"#utility.yul\":6164:6176   */\n      div\n        /* \"#utility.yul\":6154:6176   */\n      swap1\n      pop\n        /* \"#utility.yul\":6221:6222   */\n      0x01\n        /* \"#utility.yul\":6215:6219   */\n      dup3\n        /* \"#utility.yul\":6211:6223   */\n      and\n        /* \"#utility.yul\":6242:6260   */\n      dup1\n        /* \"#utility.yul\":6232:6313   */\n      tag_137\n      jumpi\n        /* \"#utility.yul\":6298:6302   */\n      0x7f\n        /* \"#utility.yul\":6290:6296   */\n      dup3\n        /* \"#utility.yul\":6286:6303   */\n      and\n        /* \"#utility.yul\":6276:6303   */\n      swap2\n      pop\n        /* \"#utility.yul\":6232:6313   */\n    tag_137:\n        /* \"#utility.yul\":6360:6362   */\n      0x20\n        /* \"#utility.yul\":6352:6358   */\n      dup3\n        /* \"#utility.yul\":6349:6363   */\n      lt\n        /* \"#utility.yul\":6329:6347   */\n      dup2\n        /* \"#utility.yul\":6326:6364   */\n      eq\n        /* \"#utility.yul\":6323:6407   */\n      iszero\n      tag_138\n      jumpi\n        /* \"#utility.yul\":6379:6397   */\n      tag_139\n      tag_140\n      jump\t// in\n    tag_139:\n        /* \"#utility.yul\":6323:6407   */\n    tag_138:\n        /* \"#utility.yul\":6144:6413   */\n      pop\n        /* \"#utility.yul\":6093:6413   */\n      swap2\n      swap1\n      pop\n      jump\t// out\n        /* \"#utility.yul\":6419:6700   */\n    tag_119:\n        /* \"#utility.yul\":6502:6529   */\n      tag_142\n        /* \"#utility.yul\":6524:6528   */\n      dup3\n        /* \"#utility.yul\":6502:6529   */\n      tag_96\n      jump\t// in\n    tag_142:\n        /* \"#utility.yul\":6494:6500   */\n      dup2\n        /* \"#utility.yul\":6490:6530   */\n      add\n        /* \"#utility.yul\":6632:6638   */\n      dup2\n        /* \"#utility.yul\":6620:6630   */\n      dup2\n        /* \"#utility.yul\":6617:6639   */\n      lt\n        /* \"#utility.yul\":6596:6614   */\n      0xffffffffffffffff\n        /* \"#utility.yul\":6584:6594   */\n      dup3\n        /* \"#utility.yul\":6581:6615   */\n      gt\n        /* \"#utility.yul\":6578:6640   */\n      or\n        /* \"#utility.yul\":6575:6663   */\n      iszero\n      tag_143\n      jumpi\n        /* \"#utility.yul\":6643:6661   */\n      tag_144\n      tag_124\n      jump\t// in\n    tag_144:\n        /* \"#utility.yul\":6575:6663   */\n    tag_143:\n        /* \"#utility.yul\":6683:6693   */\n      dup1\n        /* \"#utility.yul\":6679:6681   */\n      0x40\n        /* \"#utility.yul\":6672:6694   */\n      mstore\n        /* \"#utility.yul\":6462:6700   */\n      pop\n        /* \"#utility.yul\":6419:6700   */\n      pop\n      pop\n      jump\t// out\n        /* \"#utility.yul\":6706:6886   */\n    tag_140:\n        /* \"#utility.yul\":6754:6831   */\n      0x4e487b7100000000000000000000000000000000000000000000000000000000\n        /* \"#utility.yul\":6751:6752   */\n      0x00\n        /* \"#utility.yul\":6744:6832   */\n      mstore\n        /* \"#utility.yul\":6851:6855   */\n      0x22\n        /* \"#utility.yul\":6848:6849   */\n      0x04\n        /* \"#utility.yul\":6841:6856   */\n      mstore\n        /* \"#utility.yul\":6875:6879   */\n      0x24\n        /* \"#utility.yul\":6872:6873   */\n      0x00\n        /* \"#utility.yul\":6865:6880   */\n      revert\n        /* \"#utility.yul\":6892:7072   */\n    tag_124:\n        /* \"#utility.yul\":6940:7017   */\n      0x4e487b7100000000000000000000000000000000000000000000000000000000\n        /* \"#utility.yul\":6937:6938   */\n      0x00\n        /* \"#utility.yul\":6930:7018   */\n      mstore\n        /* \"#utility.yul\":7037:7041   */\n      0x41\n        /* \"#utility.yul\":7034:7035   */\n      0x04\n        /* \"#utility.yul\":7027:7042   */\n      mstore\n        /* \"#utility.yul\":7061:7065   */\n      0x24\n        /* \"#utility.yul\":7058:7059   */\n      0x00\n        /* \"#utility.yul\":7051:7066   */\n      revert\n        /* \"#utility.yul\":7078:7195   */\n    tag_62:\n        /* \"#utility.yul\":7187:7188   */\n      0x00\n        /* \"#utility.yul\":7184:7185   */\n      dup1\n        /* \"#utility.yul\":7177:7189   */\n      revert\n        /* \"#utility.yul\":7201:7318   */\n    tag_55:\n        /* \"#utility.yul\":7310:7311   */\n      0x00\n        /* \"#utility.yul\":7307:7308   */\n      dup1\n        /* \"#utility.yul\":7300:7312   */\n      revert\n        /* \"#utility.yul\":7324:7441   */\n    tag_74:\n        /* \"#utility.yul\":7433:7434   */\n      0x00\n        /* \"#utility.yul\":7430:7431   */\n      dup1\n        /* \"#utility.yul\":7423:7435   */\n      revert\n        /* \"#utility.yul\":7447:7564   */\n    tag_71:\n        /* \"#utility.yul\":7556:7557   */\n      0x00\n        /* \"#utility.yul\":7553:7554   */\n      dup1\n        /* \"#utility.yul\":7546:7558   */\n      revert\n        /* \"#utility.yul\":7570:7672   */\n    tag_96:\n        /* \"#utility.yul\":7611:7617   */\n      0x00\n        /* \"#utility.yul\":7662:7664   */\n      0x1f\n        /* \"#utility.yul\":7658:7665   */\n      not\n        /* \"#utility.yul\":7653:7655   */\n      0x1f\n        /* \"#utility.yul\":7646:7651   */\n      dup4\n        /* \"#utility.yul\":7642:7656   */\n      add\n        /* \"#utility.yul\":7638:7666   */\n      and\n        /* \"#utility.yul\":7628:7666   */\n      swap1\n      pop\n        /* \"#utility.yul\":7570:7672   */\n      swap2\n      swap1\n      pop\n      jump\t// out\n        /* \"#utility.yul\":7678:7800   */\n    tag_67:\n        /* \"#utility.yul\":7751:7775   */\n      tag_153\n        /* \"#utility.yul\":7769:7774   */\n      dup2\n        /* \"#utility.yul\":7751:7775   */\n      tag_110\n      jump\t// in\n    tag_153:\n        /* \"#utility.yul\":7744:7749   */\n      dup2\n        /* \"#utility.yul\":7741:7776   */\n      eq\n        /* \"#utility.yul\":7731:7794   */\n      tag_154\n      jumpi\n        /* \"#utility.yul\":7790:7791   */\n      0x00\n        /* \"#utility.yul\":7787:7788   */\n      dup1\n        /* \"#utility.yul\":7780:7792   */\n      revert\n        /* \"#utility.yul\":7731:7794   */\n    tag_154:\n        /* \"#utility.yul\":7678:7800   */\n      pop\n      jump\t// out\n\n    auxdata: 0xa264697066735822122045b21a1d9bc038c1be7af39f6036aa9132d44650e4453223e5145e3c118e271064736f6c63430008070033\n}\n",
				"bytecode": {
					"linkReferences": {},
					"object": "608060405234801561001057600080fd5b5061070d806100206000396000f3fe608060405234801561001057600080fd5b50600436106100415760003560e01c8063234c668614610046578063904d54d214610062578063fb2996fd14610092575b600080fd5b610060600480360381019061005b9190610350565b6100ae565b005b61007c600480360381019061007791906103f5565b61011b565b60405161008991906104ef565b60405180910390f35b6100ac60048036038101906100a79190610399565b6101e4565b005b600060405180604001604052806000815260200183815250908060018154018082558091505060019003906000526020600020906002020160009091909190915060008201518160000155602082015181600101908051906020019061011592919061020e565b50505050565b610123610294565b600160008381526020019081526020016000206040518060400160405290816000820154815260200160018201805461015b906105da565b80601f0160208091040260200160405190810160405280929190818152602001828054610187906105da565b80156101d45780601f106101a9576101008083540402835291602001916101d4565b820191906000526020600020905b8154815290600101906020018083116101b757829003601f168201915b5050505050815250509050919050565b806002836040516101f591906104d8565b9081526020016040518091039020600001819055505050565b82805461021a906105da565b90600052602060002090601f01602090048101928261023c5760008555610283565b82601f1061025557805160ff1916838001178555610283565b82800160010185558215610283579182015b82811115610282578251825591602001919060010190610267565b5b50905061029091906102ae565b5090565b604051806040016040528060008152602001606081525090565b5b808211156102c75760008160009055506001016102af565b5090565b60006102de6102d984610536565b610511565b9050828152602081018484840111156102fa576102f96106a0565b5b610305848285610598565b509392505050565b600082601f8301126103225761032161069b565b5b81356103328482602086016102cb565b91505092915050565b60008135905061034a816106c0565b92915050565b600060208284031215610366576103656106aa565b5b600082013567ffffffffffffffff811115610384576103836106a5565b5b6103908482850161030d565b91505092915050565b600080604083850312156103b0576103af6106aa565b5b600083013567ffffffffffffffff8111156103ce576103cd6106a5565b5b6103da8582860161030d565b92505060206103eb8582860161033b565b9150509250929050565b60006020828403121561040b5761040a6106aa565b5b60006104198482850161033b565b91505092915050565b600061042d82610567565b6104378185610572565b93506104478185602086016105a7565b610450816106af565b840191505092915050565b600061046682610567565b6104708185610583565b93506104808185602086016105a7565b80840191505092915050565b60006040830160008301516104a460008601826104c9565b50602083015184820360208601526104bc8282610422565b9150508091505092915050565b6104d28161058e565b82525050565b60006104e4828461045b565b915081905092915050565b60006020820190508181036000830152610509818461048c565b905092915050565b600061051b61052c565b9050610527828261060c565b919050565b6000604051905090565b600067ffffffffffffffff8211156105515761055061066c565b5b61055a826106af565b9050602081019050919050565b600081519050919050565b600082825260208201905092915050565b600081905092915050565b6000819050919050565b82818337600083830152505050565b60005b838110156105c55780820151818401526020810190506105aa565b838111156105d4576000848401525b50505050565b600060028204905060018216806105f257607f821691505b602082108114156106065761060561063d565b5b50919050565b610615826106af565b810181811067ffffffffffffffff821117156106345761063361066c565b5b80604052505050565b7f4e487b7100000000000000000000000000000000000000000000000000000000600052602260045260246000fd5b7f4e487b7100000000000000000000000000000000000000000000000000000000600052604160045260246000fd5b600080fd5b600080fd5b600080fd5b600080fd5b6000601f19601f8301169050919050565b6106c98161058e565b81146106d457600080fd5b5056fea264697066735822122045b21a1d9bc038c1be7af39f6036aa9132d44650e4453223e5145e3c118e271064736f6c63430008070033",
					"opcodes": "PUSH1 0x80 PUSH1 0x40 MSTORE CALLVALUE DUP1 ISZERO PUSH2 0x10 JUMPI PUSH1 0x0 DUP1 REVERT JUMPDEST POP PUSH2 0x70D DUP1 PUSH2 0x20 PUSH1 0x0 CODECOPY PUSH1 0x0 RETURN INVALID PUSH1 0x80 PUSH1 0x40 MSTORE CALLVALUE DUP1 ISZERO PUSH2 0x10 JUMPI PUSH1 0x0 DUP1 REVERT JUMPDEST POP PUSH1 0x4 CALLDATASIZE LT PUSH2 0x41 JUMPI PUSH1 0x0 CALLDATALOAD PUSH1 0xE0 SHR DUP1 PUSH4 0x234C6686 EQ PUSH2 0x46 JUMPI DUP1 PUSH4 0x904D54D2 EQ PUSH2 0x62 JUMPI DUP1 PUSH4 0xFB2996FD EQ PUSH2 0x92 JUMPI JUMPDEST PUSH1 0x0 DUP1 REVERT JUMPDEST PUSH2 0x60 PUSH1 0x4 DUP1 CALLDATASIZE SUB DUP2 ADD SWAP1 PUSH2 0x5B SWAP2 SWAP1 PUSH2 0x350 JUMP JUMPDEST PUSH2 0xAE JUMP JUMPDEST STOP JUMPDEST PUSH2 0x7C PUSH1 0x4 DUP1 CALLDATASIZE SUB DUP2 ADD SWAP1 PUSH2 0x77 SWAP2 SWAP1 PUSH2 0x3F5 JUMP JUMPDEST PUSH2 0x11B JUMP JUMPDEST PUSH1 0x40 MLOAD PUSH2 0x89 SWAP2 SWAP1 PUSH2 0x4EF JUMP JUMPDEST PUSH1 0x40 MLOAD DUP1 SWAP2 SUB SWAP1 RETURN JUMPDEST PUSH2 0xAC PUSH1 0x4 DUP1 CALLDATASIZE SUB DUP2 ADD SWAP1 PUSH2 0xA7 SWAP2 SWAP1 PUSH2 0x399 JUMP JUMPDEST PUSH2 0x1E4 JUMP JUMPDEST STOP JUMPDEST PUSH1 0x0 PUSH1 0x40 MLOAD DUP1 PUSH1 0x40 ADD PUSH1 0x40 MSTORE DUP1 PUSH1 0x0 DUP2 MSTORE PUSH1 0x20 ADD DUP4 DUP2 MSTORE POP SWAP1 DUP1 PUSH1 0x1 DUP2 SLOAD ADD DUP1 DUP3 SSTORE DUP1 SWAP2 POP POP PUSH1 0x1 SWAP1 SUB SWAP1 PUSH1 0x0 MSTORE PUSH1 0x20 PUSH1 0x0 KECCAK256 SWAP1 PUSH1 0x2 MUL ADD PUSH1 0x0 SWAP1 SWAP2 SWAP1 SWAP2 SWAP1 SWAP2 POP PUSH1 0x0 DUP3 ADD MLOAD DUP2 PUSH1 0x0 ADD SSTORE PUSH1 0x20 DUP3 ADD MLOAD DUP2 PUSH1 0x1 ADD SWAP1 DUP1 MLOAD SWAP1 PUSH1 0x20 ADD SWAP1 PUSH2 0x115 SWAP3 SWAP2 SWAP1 PUSH2 0x20E JUMP JUMPDEST POP POP POP POP JUMP JUMPDEST PUSH2 0x123 PUSH2 0x294 JUMP JUMPDEST PUSH1 0x1 PUSH1 0x0 DUP4 DUP2 MSTORE PUSH1 0x20 ADD SWAP1 DUP2 MSTORE PUSH1 0x20 ADD PUSH1 0x0 KECCAK256 PUSH1 0x40 MLOAD DUP1 PUSH1 0x40 ADD PUSH1 0x40 MSTORE SWAP1 DUP2 PUSH1 0x0 DUP3 ADD SLOAD DUP2 MSTORE PUSH1 0x20 ADD PUSH1 0x1 DUP3 ADD DUP1 SLOAD PUSH2 0x15B SWAP1 PUSH2 0x5DA JUMP JUMPDEST DUP1 PUSH1 0x1F ADD PUSH1 0x20 DUP1 SWAP2 DIV MUL PUSH1 0x20 ADD PUSH1 0x40 MLOAD SWAP1 DUP2 ADD PUSH1 0x40 MSTORE DUP1 SWAP3 SWAP2 SWAP1 DUP2 DUP2 MSTORE PUSH1 0x20 ADD DUP3 DUP1 SLOAD PUSH2 0x187 SWAP1 PUSH2 0x5DA JUMP JUMPDEST DUP1 ISZERO PUSH2 0x1D4 JUMPI DUP1 PUSH1 0x1F LT PUSH2 0x1A9 JUMPI PUSH2 0x100 DUP1 DUP4 SLOAD DIV MUL DUP4 MSTORE SWAP2 PUSH1 0x20 ADD SWAP2 PUSH2 0x1D4 JUMP JUMPDEST DUP3 ADD SWAP2 SWAP1 PUSH1 0x0 MSTORE PUSH1 0x20 PUSH1 0x0 KECCAK256 SWAP1 JUMPDEST DUP2 SLOAD DUP2 MSTORE SWAP1 PUSH1 0x1 ADD SWAP1 PUSH1 0x20 ADD DUP1 DUP4 GT PUSH2 0x1B7 JUMPI DUP3 SWAP1 SUB PUSH1 0x1F AND DUP3 ADD SWAP2 JUMPDEST POP POP POP POP POP DUP2 MSTORE POP POP SWAP1 POP SWAP2 SWAP1 POP JUMP JUMPDEST DUP1 PUSH1 0x2 DUP4 PUSH1 0x40 MLOAD PUSH2 0x1F5 SWAP2 SWAP1 PUSH2 0x4D8 JUMP JUMPDEST SWAP1 DUP2 MSTORE PUSH1 0x20 ADD PUSH1 0x40 MLOAD DUP1 SWAP2 SUB SWAP1 KECCAK256 PUSH1 0x0 ADD DUP2 SWAP1 SSTORE POP POP POP JUMP JUMPDEST DUP3 DUP1 SLOAD PUSH2 0x21A SWAP1 PUSH2 0x5DA JUMP JUMPDEST SWAP1 PUSH1 0x0 MSTORE PUSH1 0x20 PUSH1 0x0 KECCAK256 SWAP1 PUSH1 0x1F ADD PUSH1 0x20 SWAP1 DIV DUP2 ADD SWAP3 DUP3 PUSH2 0x23C JUMPI PUSH1 0x0 DUP6 SSTORE PUSH2 0x283 JUMP JUMPDEST DUP3 PUSH1 0x1F LT PUSH2 0x255 JUMPI DUP1 MLOAD PUSH1 0xFF NOT AND DUP4 DUP1 ADD OR DUP6 SSTORE PUSH2 0x283 JUMP JUMPDEST DUP3 DUP1 ADD PUSH1 0x1 ADD DUP6 SSTORE DUP3 ISZERO PUSH2 0x283 JUMPI SWAP2 DUP3 ADD JUMPDEST DUP3 DUP2 GT ISZERO PUSH2 0x282 JUMPI DUP3 MLOAD DUP3 SSTORE SWAP2 PUSH1 0x20 ADD SWAP2 SWAP1 PUSH1 0x1 ADD SWAP1 PUSH2 0x267 JUMP JUMPDEST JUMPDEST POP SWAP1 POP PUSH2 0x290 SWAP2 SWAP1 PUSH2 0x2AE JUMP JUMPDEST POP SWAP1 JUMP JUMPDEST PUSH1 0x40 MLOAD DUP1 PUSH1 0x40 ADD PUSH1 0x40 MSTORE DUP1 PUSH1 0x0 DUP2 MSTORE PUSH1 0x20 ADD PUSH1 0x60 DUP2 MSTORE POP SWAP1 JUMP JUMPDEST JUMPDEST DUP1 DUP3 GT ISZERO PUSH2 0x2C7 JUMPI PUSH1 0x0 DUP2 PUSH1 0x0 SWAP1 SSTORE POP PUSH1 0x1 ADD PUSH2 0x2AF JUMP JUMPDEST POP SWAP1 JUMP JUMPDEST PUSH1 0x0 PUSH2 0x2DE PUSH2 0x2D9 DUP5 PUSH2 0x536 JUMP JUMPDEST PUSH2 0x511 JUMP JUMPDEST SWAP1 POP DUP3 DUP2 MSTORE PUSH1 0x20 DUP2 ADD DUP5 DUP5 DUP5 ADD GT ISZERO PUSH2 0x2FA JUMPI PUSH2 0x2F9 PUSH2 0x6A0 JUMP JUMPDEST JUMPDEST PUSH2 0x305 DUP5 DUP3 DUP6 PUSH2 0x598 JUMP JUMPDEST POP SWAP4 SWAP3 POP POP POP JUMP JUMPDEST PUSH1 0x0 DUP3 PUSH1 0x1F DUP4 ADD SLT PUSH2 0x322 JUMPI PUSH2 0x321 PUSH2 0x69B JUMP JUMPDEST JUMPDEST DUP2 CALLDATALOAD PUSH2 0x332 DUP5 DUP3 PUSH1 0x20 DUP7 ADD PUSH2 0x2CB JUMP JUMPDEST SWAP2 POP POP SWAP3 SWAP2 POP POP JUMP JUMPDEST PUSH1 0x0 DUP2 CALLDATALOAD SWAP1 POP PUSH2 0x34A DUP2 PUSH2 0x6C0 JUMP JUMPDEST SWAP3 SWAP2 POP POP JUMP JUMPDEST PUSH1 0x0 PUSH1 0x20 DUP3 DUP5 SUB SLT ISZERO PUSH2 0x366 JUMPI PUSH2 0x365 PUSH2 0x6AA JUMP JUMPDEST JUMPDEST PUSH1 0x0 DUP3 ADD CALLDATALOAD PUSH8 0xFFFFFFFFFFFFFFFF DUP2 GT ISZERO PUSH2 0x384 JUMPI PUSH2 0x383 PUSH2 0x6A5 JUMP JUMPDEST JUMPDEST PUSH2 0x390 DUP5 DUP3 DUP6 ADD PUSH2 0x30D JUMP JUMPDEST SWAP2 POP POP SWAP3 SWAP2 POP POP JUMP JUMPDEST PUSH1 0x0 DUP1 PUSH1 0x40 DUP4 DUP6 SUB SLT ISZERO PUSH2 0x3B0 JUMPI PUSH2 0x3AF PUSH2 0x6AA JUMP JUMPDEST JUMPDEST PUSH1 0x0 DUP4 ADD CALLDATALOAD PUSH8 0xFFFFFFFFFFFFFFFF DUP2 GT ISZERO PUSH2 0x3CE JUMPI PUSH2 0x3CD PUSH2 0x6A5 JUMP JUMPDEST JUMPDEST PUSH2 0x3DA DUP6 DUP3 DUP7 ADD PUSH2 0x30D JUMP JUMPDEST SWAP3 POP POP PUSH1 0x20 PUSH2 0x3EB DUP6 DUP3 DUP7 ADD PUSH2 0x33B JUMP JUMPDEST SWAP2 POP POP SWAP3 POP SWAP3 SWAP1 POP JUMP JUMPDEST PUSH1 0x0 PUSH1 0x20 DUP3 DUP5 SUB SLT ISZERO PUSH2 0x40B JUMPI PUSH2 0x40A PUSH2 0x6AA JUMP JUMPDEST JUMPDEST PUSH1 0x0 PUSH2 0x419 DUP5 DUP3 DUP6 ADD PUSH2 0x33B JUMP JUMPDEST SWAP2 POP POP SWAP3 SWAP2 POP POP JUMP JUMPDEST PUSH1 0x0 PUSH2 0x42D DUP3 PUSH2 0x567 JUMP JUMPDEST PUSH2 0x437 DUP2 DUP6 PUSH2 0x572 JUMP JUMPDEST SWAP4 POP PUSH2 0x447 DUP2 DUP6 PUSH1 0x20 DUP7 ADD PUSH2 0x5A7 JUMP JUMPDEST PUSH2 0x450 DUP2 PUSH2 0x6AF JUMP JUMPDEST DUP5 ADD SWAP2 POP POP SWAP3 SWAP2 POP POP JUMP JUMPDEST PUSH1 0x0 PUSH2 0x466 DUP3 PUSH2 0x567 JUMP JUMPDEST PUSH2 0x470 DUP2 DUP6 PUSH2 0x583 JUMP JUMPDEST SWAP4 POP PUSH2 0x480 DUP2 DUP6 PUSH1 0x20 DUP7 ADD PUSH2 0x5A7 JUMP JUMPDEST DUP1 DUP5 ADD SWAP2 POP POP SWAP3 SWAP2 POP POP JUMP JUMPDEST PUSH1 0x0 PUSH1 0x40 DUP4 ADD PUSH1 0x0 DUP4 ADD MLOAD PUSH2 0x4A4 PUSH1 0x0 DUP7 ADD DUP3 PUSH2 0x4C9 JUMP JUMPDEST POP PUSH1 0x20 DUP4 ADD MLOAD DUP5 DUP3 SUB PUSH1 0x20 DUP7 ADD MSTORE PUSH2 0x4BC DUP3 DUP3 PUSH2 0x422 JUMP JUMPDEST SWAP2 POP POP DUP1 SWAP2 POP POP SWAP3 SWAP2 POP POP JUMP JUMPDEST PUSH2 0x4D2 DUP2 PUSH2 0x58E JUMP JUMPDEST DUP3 MSTORE POP POP JUMP JUMPDEST PUSH1 0x0 PUSH2 0x4E4 DUP3 DUP5 PUSH2 0x45B JUMP JUMPDEST SWAP2 POP DUP2 SWAP1 POP SWAP3 SWAP2 POP POP JUMP JUMPDEST PUSH1 0x0 PUSH1 0x20 DUP3 ADD SWAP1 POP DUP2 DUP2 SUB PUSH1 0x0 DUP4 ADD MSTORE PUSH2 0x509 DUP2 DUP5 PUSH2 0x48C JUMP JUMPDEST SWAP1 POP SWAP3 SWAP2 POP POP JUMP JUMPDEST PUSH1 0x0 PUSH2 0x51B PUSH2 0x52C JUMP JUMPDEST SWAP1 POP PUSH2 0x527 DUP3 DUP3 PUSH2 0x60C JUMP JUMPDEST SWAP2 SWAP1 POP JUMP JUMPDEST PUSH1 0x0 PUSH1 0x40 MLOAD SWAP1 POP SWAP1 JUMP JUMPDEST PUSH1 0x0 PUSH8 0xFFFFFFFFFFFFFFFF DUP3 GT ISZERO PUSH2 0x551 JUMPI PUSH2 0x550 PUSH2 0x66C JUMP JUMPDEST JUMPDEST PUSH2 0x55A DUP3 PUSH2 0x6AF JUMP JUMPDEST SWAP1 POP PUSH1 0x20 DUP2 ADD SWAP1 POP SWAP2 SWAP1 POP JUMP JUMPDEST PUSH1 0x0 DUP2 MLOAD SWAP1 POP SWAP2 SWAP1 POP JUMP JUMPDEST PUSH1 0x0 DUP3 DUP3 MSTORE PUSH1 0x20 DUP3 ADD SWAP1 POP SWAP3 SWAP2 POP POP JUMP JUMPDEST PUSH1 0x0 DUP2 SWAP1 POP SWAP3 SWAP2 POP POP JUMP JUMPDEST PUSH1 0x0 DUP2 SWAP1 POP SWAP2 SWAP1 POP JUMP JUMPDEST DUP3 DUP2 DUP4 CALLDATACOPY PUSH1 0x0 DUP4 DUP4 ADD MSTORE POP POP POP JUMP JUMPDEST PUSH1 0x0 JUMPDEST DUP4 DUP2 LT ISZERO PUSH2 0x5C5 JUMPI DUP1 DUP3 ADD MLOAD DUP2 DUP5 ADD MSTORE PUSH1 0x20 DUP2 ADD SWAP1 POP PUSH2 0x5AA JUMP JUMPDEST DUP4 DUP2 GT ISZERO PUSH2 0x5D4 JUMPI PUSH1 0x0 DUP5 DUP5 ADD MSTORE JUMPDEST POP POP POP POP JUMP JUMPDEST PUSH1 0x0 PUSH1 0x2 DUP3 DIV SWAP1 POP PUSH1 0x1 DUP3 AND DUP1 PUSH2 0x5F2 JUMPI PUSH1 0x7F DUP3 AND SWAP2 POP JUMPDEST PUSH1 0x20 DUP3 LT DUP2 EQ ISZERO PUSH2 0x606 JUMPI PUSH2 0x605 PUSH2 0x63D JUMP JUMPDEST JUMPDEST POP SWAP2 SWAP1 POP JUMP JUMPDEST PUSH2 0x615 DUP3 PUSH2 0x6AF JUMP JUMPDEST DUP2 ADD DUP2 DUP2 LT PUSH8 0xFFFFFFFFFFFFFFFF DUP3 GT OR ISZERO PUSH2 0x634 JUMPI PUSH2 0x633 PUSH2 0x66C JUMP JUMPDEST JUMPDEST DUP1 PUSH1 0x40 MSTORE POP POP POP JUMP JUMPDEST PUSH32 0x4E487B7100000000000000000000000000000000000000000000000000000000 PUSH1 0x0 MSTORE PUSH1 0x22 PUSH1 0x4 MSTORE PUSH1 0x24 PUSH1 0x0 REVERT JUMPDEST PUSH32 0x4E487B7100000000000000000000000000000000000000000000000000000000 PUSH1 0x0 MSTORE PUSH1 0x41 PUSH1 0x4 MSTORE PUSH1 0x24 PUSH1 0x0 REVERT JUMPDEST PUSH1 0x0 DUP1 REVERT JUMPDEST PUSH1 0x0 DUP1 REVERT JUMPDEST PUSH1 0x0 DUP1 REVERT JUMPDEST PUSH1 0x0 DUP1 REVERT JUMPDEST PUSH1 0x0 PUSH1 0x1F NOT PUSH1 0x1F DUP4 ADD AND SWAP1 POP SWAP2 SWAP1 POP JUMP JUMPDEST PUSH2 0x6C9 DUP2 PUSH2 0x58E JUMP JUMPDEST DUP2 EQ PUSH2 0x6D4 JUMPI PUSH1 0x0 DUP1 REVERT JUMPDEST POP JUMP INVALID LOG2 PUSH5 0x6970667358 0x22 SLT KECCAK256 GASLIMIT 0xB2 BYTE SAR SWAP12 0xC0 CODESIZE 0xC1 0xBE PUSH27 0xF39F6036AA9132D44650E4453223E5145E3C118E271064736F6C63 NUMBER STOP ADDMOD SMOD STOP CALLER "
				},
				"gasEstimates": {
					"creation": {
						"codeDepositCost": "361000",
						"executionCost": "399",
						"totalCost": "361399"
					},
					"external": {
						"createReadList(string)": "infinite",
						"editReadList(string,uint256)": "infinite",
						"getReadList(uint256)": "infinite"
					}
				},
				"methodIdentifiers": {
					"createReadList(string)": "234c6686",
					"editReadList(string,uint256)": "fb2996fd",
					"getReadList(uint256)": "904d54d2"
				}
			},
			"storageLayout": {
				"storage": [
					{
						"astId": 10,
						"contract": "array.sol:ArrayTest",
						"label": "list",
						"offset": 0,
						"slot": "0",
						"type": "t_array(t_struct(Book)6_storage)dyn_storage"
					},
					{
						"astId": 15,
						"contract": "array.sol:ArrayTest",
						"label": "book",
						"offset": 0,
						"slot": "1",
						"type": "t_mapping(t_uint256,t_struct(Book)6_storage)"
					},
					{
						"astId": 20,
						"contract": "array.sol:ArrayTest",
						"label": "editBook",
						"offset": 0,
						"slot": "2",
						"type": "t_mapping(t_string_memory_ptr,t_struct(Book)6_storage)"
					}
				],
				"types": {
					"t_array(t_struct(Book)6_storage)dyn_storage": {
						"base": "t_struct(Book)6_storage",
						"encoding": "dynamic_array",
						"label": "struct ArrayTest.Book[]",
						"numberOfBytes": "32"
					},
					"t_mapping(t_string_memory_ptr,t_struct(Book)6_storage)": {
						"encoding": "mapping",
						"key": "t_string_memory_ptr",
						"label": "mapping(string => struct ArrayTest.Book)",
						"numberOfBytes": "32",
						"value": "t_struct(Book)6_storage"
					},
					"t_mapping(t_uint256,t_struct(Book)6_storage)": {
						"encoding": "mapping",
						"key": "t_uint256",
						"label": "mapping(uint256 => struct ArrayTest.Book)",
						"numberOfBytes": "32",
						"value": "t_struct(Book)6_storage"
					},
					"t_string_memory_ptr": {
						"encoding": "bytes",
						"label": "string",
						"numberOfBytes": "32"
					},
					"t_string_storage": {
						"encoding": "bytes",
						"label": "string",
						"numberOfBytes": "32"
					},
					"t_struct(Book)6_storage": {
						"encoding": "inplace",
						"label": "struct ArrayTest.Book",
						"members": [
							{
								"astId": 3,
								"contract": "array.sol:ArrayTest",
								"label": "status",
								"offset": 0,
								"slot": "0",
								"type": "t_uint256"
							},
							{
								"astId": 5,
								"contract": "array.sol:ArrayTest",
								"label": "bookName",
								"offset": 0,
								"slot": "1",
								"type": "t_string_storage"
							}
						],
						"numberOfBytes": "64"
					},
					"t_uint256": {
						"encoding": "inplace",
						"label": "uint256",
						"numberOfBytes": "32"
					}
				}
			},
			"userdoc": {
				"kind": "user",
				"methods": {},
				"version": 1
			}
		}
	}
}