{
	"extends.sol": {
		"Person": {
			"abi": [
				{
					"inputs": [
						{
							"internalType": "string",
							"name": "_user",
							"type": "string"
						},
						{
							"internalType": "uint8",
							"name": "_age",
							"type": "uint8"
						}
					],
					"stateMutability": "nonpayable",
					"type": "constructor"
				},
				{
					"inputs": [
						{
							"internalType": "uint8",
							"name": "_age",
							"type": "uint8"
						}
					],
					"name": "setAge",
					"outputs": [],
					"stateMutability": "nonpayable",
					"type": "function"
				},
				{
					"inputs": [
						{
							"internalType": "string",
							"name": "_user",
							"type": "string"
						}
					],
					"name": "setUser",
					"outputs": [],
					"stateMutability": "nonpayable",
					"type": "function"
				}
			],
			"devdoc": {
				"kind": "dev",
				"methods": {},
				"version": 1
			},
			"evm": {
				"assembly": "    /* \"extends.sol\":61:381  contract Person {\r... */\n  mstore(0x40, 0x80)\n    /* \"extends.sol\":122:218  constructor(string memory _user,uint8 _age) {\r... */\n  callvalue\n  dup1\n  iszero\n  tag_1\n  jumpi\n  0x00\n  dup1\n  revert\ntag_1:\n  pop\n  mload(0x40)\n  sub(codesize, bytecodeSize)\n  dup1\n  bytecodeSize\n  dup4\n  codecopy\n  dup2\n  dup2\n  add\n  0x40\n  mstore\n  dup2\n  add\n  swap1\n  tag_2\n  swap2\n  swap1\n  tag_3\n  jump\t// in\ntag_2:\n    /* \"extends.sol\":184:189  _user */\n  dup2\n    /* \"extends.sol\":177:181  user */\n  0x00\n    /* \"extends.sol\":177:189  user = _user */\n  swap1\n  dup1\n  mload\n  swap1\n  0x20\n  add\n  swap1\n  tag_6\n  swap3\n  swap2\n  swap1\n  tag_7\n  jump\t// in\ntag_6:\n  pop\n    /* \"extends.sol\":206:210  _age */\n  dup1\n    /* \"extends.sol\":200:203  age */\n  0x01\n  0x00\n    /* \"extends.sol\":200:210  age = _age */\n  0x0100\n  exp\n  dup2\n  sload\n  dup2\n  0xff\n  mul\n  not\n  and\n  swap1\n  dup4\n  0xff\n  and\n  mul\n  or\n  swap1\n  sstore\n  pop\n    /* \"extends.sol\":122:218  constructor(string memory _user,uint8 _age) {\r... */\n  pop\n  pop\n    /* \"extends.sol\":61:381  contract Person {\r... */\n  jump(tag_8)\ntag_7:\n  dup3\n  dup1\n  sload\n  tag_9\n  swap1\n  tag_10\n  jump\t// in\ntag_9:\n  swap1\n  0x00\n  mstore\n  keccak256(0x00, 0x20)\n  swap1\n  0x1f\n  add\n  0x20\n  swap1\n  div\n  dup2\n  add\n  swap3\n  dup3\n  tag_12\n  jumpi\n  0x00\n  dup6\n  sstore\n  jump(tag_11)\ntag_12:\n  dup3\n  0x1f\n  lt\n  tag_13\n  jumpi\n  dup1\n  mload\n  not(0xff)\n  and\n  dup4\n  dup1\n  add\n  or\n  dup6\n  sstore\n  jump(tag_11)\ntag_13:\n  dup3\n  dup1\n  add\n  0x01\n  add\n  dup6\n  sstore\n  dup3\n  iszero\n  tag_11\n  jumpi\n  swap2\n  dup3\n  add\ntag_14:\n  dup3\n  dup2\n  gt\n  iszero\n  tag_15\n  jumpi\n  dup3\n  mload\n  dup3\n  sstore\n  swap2\n  0x20\n  add\n  swap2\n  swap1\n  0x01\n  add\n  swap1\n  jump(tag_14)\ntag_15:\ntag_11:\n  pop\n  swap1\n  pop\n  tag_16\n  swap2\n  swap1\n  tag_17\n  jump\t// in\ntag_16:\n  pop\n  swap1\n  jump\t// out\ntag_17:\ntag_18:\n  dup1\n  dup3\n  gt\n  iszero\n  tag_19\n  jumpi\n  0x00\n  dup2\n  0x00\n  swap1\n  sstore\n  pop\n  0x01\n  add\n  jump(tag_18)\ntag_19:\n  pop\n  swap1\n  jump\t// out\n    /* \"#utility.yul\":7:428   */\ntag_21:\n    /* \"#utility.yul\":96:101   */\n  0x00\n    /* \"#utility.yul\":121:187   */\n  tag_23\n    /* \"#utility.yul\":137:186   */\n  tag_24\n    /* \"#utility.yul\":179:185   */\n  dup5\n    /* \"#utility.yul\":137:186   */\n  tag_25\n  jump\t// in\ntag_24:\n    /* \"#utility.yul\":121:187   */\n  tag_26\n  jump\t// in\ntag_23:\n    /* \"#utility.yul\":112:187   */\n  swap1\n  pop\n    /* \"#utility.yul\":210:216   */\n  dup3\n    /* \"#utility.yul\":203:208   */\n  dup2\n    /* \"#utility.yul\":196:217   */\n  mstore\n    /* \"#utility.yul\":248:252   */\n  0x20\n    /* \"#utility.yul\":241:246   */\n  dup2\n    /* \"#utility.yul\":237:253   */\n  add\n    /* \"#utility.yul\":286:289   */\n  dup5\n    /* \"#utility.yul\":277:283   */\n  dup5\n    /* \"#utility.yul\":272:275   */\n  dup5\n    /* \"#utility.yul\":268:284   */\n  add\n    /* \"#utility.yul\":265:290   */\n  gt\n    /* \"#utility.yul\":262:374   */\n  iszero\n  tag_27\n  jumpi\n    /* \"#utility.yul\":293:372   */\n  tag_28\n  tag_29\n  jump\t// in\ntag_28:\n    /* \"#utility.yul\":262:374   */\ntag_27:\n    /* \"#utility.yul\":383:422   */\n  tag_30\n    /* \"#utility.yul\":415:421   */\n  dup5\n    /* \"#utility.yul\":410:413   */\n  dup3\n    /* \"#utility.yul\":405:408   */\n  dup6\n    /* \"#utility.yul\":383:422   */\n  tag_31\n  jump\t// in\ntag_30:\n    /* \"#utility.yul\":102:428   */\n  pop\n    /* \"#utility.yul\":7:428   */\n  swap4\n  swap3\n  pop\n  pop\n  pop\n  jump\t// out\n    /* \"#utility.yul\":448:803   */\ntag_32:\n    /* \"#utility.yul\":515:520   */\n  0x00\n    /* \"#utility.yul\":564:567   */\n  dup3\n    /* \"#utility.yul\":557:561   */\n  0x1f\n    /* \"#utility.yul\":549:555   */\n  dup4\n    /* \"#utility.yul\":545:562   */\n  add\n    /* \"#utility.yul\":541:568   */\n  slt\n    /* \"#utility.yul\":531:653   */\n  tag_34\n  jumpi\n    /* \"#utility.yul\":572:651   */\n  tag_35\n  tag_36\n  jump\t// in\ntag_35:\n    /* \"#utility.yul\":531:653   */\ntag_34:\n    /* \"#utility.yul\":682:688   */\n  dup2\n    /* \"#utility.yul\":676:689   */\n  mload\n    /* \"#utility.yul\":707:797   */\n  tag_37\n    /* \"#utility.yul\":793:796   */\n  dup5\n    /* \"#utility.yul\":785:791   */\n  dup3\n    /* \"#utility.yul\":778:782   */\n  0x20\n    /* \"#utility.yul\":770:776   */\n  dup7\n    /* \"#utility.yul\":766:783   */\n  add\n    /* \"#utility.yul\":707:797   */\n  tag_21\n  jump\t// in\ntag_37:\n    /* \"#utility.yul\":698:797   */\n  swap2\n  pop\n    /* \"#utility.yul\":521:803   */\n  pop\n    /* \"#utility.yul\":448:803   */\n  swap3\n  swap2\n  pop\n  pop\n  jump\t// out\n    /* \"#utility.yul\":809:948   */\ntag_38:\n    /* \"#utility.yul\":864:869   */\n  0x00\n    /* \"#utility.yul\":895:901   */\n  dup2\n    /* \"#utility.yul\":889:902   */\n  mload\n    /* \"#utility.yul\":880:902   */\n  swap1\n  pop\n    /* \"#utility.yul\":911:942   */\n  tag_40\n    /* \"#utility.yul\":936:941   */\n  dup2\n    /* \"#utility.yul\":911:942   */\n  tag_41\n  jump\t// in\ntag_40:\n    /* \"#utility.yul\":809:948   */\n  swap3\n  swap2\n  pop\n  pop\n  jump\t// out\n    /* \"#utility.yul\":954:1630   */\ntag_3:\n    /* \"#utility.yul\":1041:1047   */\n  0x00\n    /* \"#utility.yul\":1049:1055   */\n  dup1\n    /* \"#utility.yul\":1098:1100   */\n  0x40\n    /* \"#utility.yul\":1086:1095   */\n  dup4\n    /* \"#utility.yul\":1077:1084   */\n  dup6\n    /* \"#utility.yul\":1073:1096   */\n  sub\n    /* \"#utility.yul\":1069:1101   */\n  slt\n    /* \"#utility.yul\":1066:1185   */\n  iszero\n  tag_43\n  jumpi\n    /* \"#utility.yul\":1104:1183   */\n  tag_44\n  tag_45\n  jump\t// in\ntag_44:\n    /* \"#utility.yul\":1066:1185   */\ntag_43:\n    /* \"#utility.yul\":1245:1246   */\n  0x00\n    /* \"#utility.yul\":1234:1243   */\n  dup4\n    /* \"#utility.yul\":1230:1247   */\n  add\n    /* \"#utility.yul\":1224:1248   */\n  mload\n    /* \"#utility.yul\":1275:1293   */\n  0xffffffffffffffff\n    /* \"#utility.yul\":1267:1273   */\n  dup2\n    /* \"#utility.yul\":1264:1294   */\n  gt\n    /* \"#utility.yul\":1261:1378   */\n  iszero\n  tag_46\n  jumpi\n    /* \"#utility.yul\":1297:1376   */\n  tag_47\n  tag_48\n  jump\t// in\ntag_47:\n    /* \"#utility.yul\":1261:1378   */\ntag_46:\n    /* \"#utility.yul\":1402:1476   */\n  tag_49\n    /* \"#utility.yul\":1468:1475   */\n  dup6\n    /* \"#utility.yul\":1459:1465   */\n  dup3\n    /* \"#utility.yul\":1448:1457   */\n  dup7\n    /* \"#utility.yul\":1444:1466   */\n  add\n    /* \"#utility.yul\":1402:1476   */\n  tag_32\n  jump\t// in\ntag_49:\n    /* \"#utility.yul\":1392:1476   */\n  swap3\n  pop\n    /* \"#utility.yul\":1195:1486   */\n  pop\n    /* \"#utility.yul\":1525:1527   */\n  0x20\n    /* \"#utility.yul\":1551:1613   */\n  tag_50\n    /* \"#utility.yul\":1605:1612   */\n  dup6\n    /* \"#utility.yul\":1596:1602   */\n  dup3\n    /* \"#utility.yul\":1585:1594   */\n  dup7\n    /* \"#utility.yul\":1581:1603   */\n  add\n    /* \"#utility.yul\":1551:1613   */\n  tag_38\n  jump\t// in\ntag_50:\n    /* \"#utility.yul\":1541:1613   */\n  swap2\n  pop\n    /* \"#utility.yul\":1496:1623   */\n  pop\n    /* \"#utility.yul\":954:1630   */\n  swap3\n  pop\n  swap3\n  swap1\n  pop\n  jump\t// out\n    /* \"#utility.yul\":1636:1765   */\ntag_26:\n    /* \"#utility.yul\":1670:1676   */\n  0x00\n    /* \"#utility.yul\":1697:1717   */\n  tag_52\n  tag_53\n  jump\t// in\ntag_52:\n    /* \"#utility.yul\":1687:1717   */\n  swap1\n  pop\n    /* \"#utility.yul\":1726:1759   */\n  tag_54\n    /* \"#utility.yul\":1754:1758   */\n  dup3\n    /* \"#utility.yul\":1746:1752   */\n  dup3\n    /* \"#utility.yul\":1726:1759   */\n  tag_55\n  jump\t// in\ntag_54:\n    /* \"#utility.yul\":1636:1765   */\n  swap2\n  swap1\n  pop\n  jump\t// out\n    /* \"#utility.yul\":1771:1846   */\ntag_53:\n    /* \"#utility.yul\":1804:1810   */\n  0x00\n    /* \"#utility.yul\":1837:1839   */\n  0x40\n    /* \"#utility.yul\":1831:1840   */\n  mload\n    /* \"#utility.yul\":1821:1840   */\n  swap1\n  pop\n    /* \"#utility.yul\":1771:1846   */\n  swap1\n  jump\t// out\n    /* \"#utility.yul\":1852:2160   */\ntag_25:\n    /* \"#utility.yul\":1914:1918   */\n  0x00\n    /* \"#utility.yul\":2004:2022   */\n  0xffffffffffffffff\n    /* \"#utility.yul\":1996:2002   */\n  dup3\n    /* \"#utility.yul\":1993:2023   */\n  gt\n    /* \"#utility.yul\":1990:2046   */\n  iszero\n  tag_58\n  jumpi\n    /* \"#utility.yul\":2026:2044   */\n  tag_59\n  tag_60\n  jump\t// in\ntag_59:\n    /* \"#utility.yul\":1990:2046   */\ntag_58:\n    /* \"#utility.yul\":2064:2093   */\n  tag_61\n    /* \"#utility.yul\":2086:2092   */\n  dup3\n    /* \"#utility.yul\":2064:2093   */\n  tag_62\n  jump\t// in\ntag_61:\n    /* \"#utility.yul\":2056:2093   */\n  swap1\n  pop\n    /* \"#utility.yul\":2148:2152   */\n  0x20\n    /* \"#utility.yul\":2142:2146   */\n  dup2\n    /* \"#utility.yul\":2138:2153   */\n  add\n    /* \"#utility.yul\":2130:2153   */\n  swap1\n  pop\n    /* \"#utility.yul\":1852:2160   */\n  swap2\n  swap1\n  pop\n  jump\t// out\n    /* \"#utility.yul\":2166:2252   */\ntag_63:\n    /* \"#utility.yul\":2201:2208   */\n  0x00\n    /* \"#utility.yul\":2241:2245   */\n  0xff\n    /* \"#utility.yul\":2234:2239   */\n  dup3\n    /* \"#utility.yul\":2230:2246   */\n  and\n    /* \"#utility.yul\":2219:2246   */\n  swap1\n  pop\n    /* \"#utility.yul\":2166:2252   */\n  swap2\n  swap1\n  pop\n  jump\t// out\n    /* \"#utility.yul\":2258:2565   */\ntag_31:\n    /* \"#utility.yul\":2326:2327   */\n  0x00\n    /* \"#utility.yul\":2336:2449   */\ntag_66:\n    /* \"#utility.yul\":2350:2356   */\n  dup4\n    /* \"#utility.yul\":2347:2348   */\n  dup2\n    /* \"#utility.yul\":2344:2357   */\n  lt\n    /* \"#utility.yul\":2336:2449   */\n  iszero\n  tag_68\n  jumpi\n    /* \"#utility.yul\":2435:2436   */\n  dup1\n    /* \"#utility.yul\":2430:2433   */\n  dup3\n    /* \"#utility.yul\":2426:2437   */\n  add\n    /* \"#utility.yul\":2420:2438   */\n  mload\n    /* \"#utility.yul\":2416:2417   */\n  dup2\n    /* \"#utility.yul\":2411:2414   */\n  dup5\n    /* \"#utility.yul\":2407:2418   */\n  add\n    /* \"#utility.yul\":2400:2439   */\n  mstore\n    /* \"#utility.yul\":2372:2374   */\n  0x20\n    /* \"#utility.yul\":2369:2370   */\n  dup2\n    /* \"#utility.yul\":2365:2375   */\n  add\n    /* \"#utility.yul\":2360:2375   */\n  swap1\n  pop\n    /* \"#utility.yul\":2336:2449   */\n  jump(tag_66)\ntag_68:\n    /* \"#utility.yul\":2467:2473   */\n  dup4\n    /* \"#utility.yul\":2464:2465   */\n  dup2\n    /* \"#utility.yul\":2461:2474   */\n  gt\n    /* \"#utility.yul\":2458:2559   */\n  iszero\n  tag_69\n  jumpi\n    /* \"#utility.yul\":2547:2548   */\n  0x00\n    /* \"#utility.yul\":2538:2544   */\n  dup5\n    /* \"#utility.yul\":2533:2536   */\n  dup5\n    /* \"#utility.yul\":2529:2545   */\n  add\n    /* \"#utility.yul\":2522:2549   */\n  mstore\n    /* \"#utility.yul\":2458:2559   */\ntag_69:\n    /* \"#utility.yul\":2307:2565   */\n  pop\n    /* \"#utility.yul\":2258:2565   */\n  pop\n  pop\n  pop\n  jump\t// out\n    /* \"#utility.yul\":2571:2891   */\ntag_10:\n    /* \"#utility.yul\":2615:2621   */\n  0x00\n    /* \"#utility.yul\":2652:2653   */\n  0x02\n    /* \"#utility.yul\":2646:2650   */\n  dup3\n    /* \"#utility.yul\":2642:2654   */\n  div\n    /* \"#utility.yul\":2632:2654   */\n  swap1\n  pop\n    /* \"#utility.yul\":2699:2700   */\n  0x01\n    /* \"#utility.yul\":2693:2697   */\n  dup3\n    /* \"#utility.yul\":2689:2701   */\n  and\n    /* \"#utility.yul\":2720:2738   */\n  dup1\n    /* \"#utility.yul\":2710:2791   */\n  tag_71\n  jumpi\n    /* \"#utility.yul\":2776:2780   */\n  0x7f\n    /* \"#utility.yul\":2768:2774   */\n  dup3\n    /* \"#utility.yul\":2764:2781   */\n  and\n    /* \"#utility.yul\":2754:2781   */\n  swap2\n  pop\n    /* \"#utility.yul\":2710:2791   */\ntag_71:\n    /* \"#utility.yul\":2838:2840   */\n  0x20\n    /* \"#utility.yul\":2830:2836   */\n  dup3\n    /* \"#utility.yul\":2827:2841   */\n  lt\n    /* \"#utility.yul\":2807:2825   */\n  dup2\n    /* \"#utility.yul\":2804:2842   */\n  eq\n    /* \"#utility.yul\":2801:2885   */\n  iszero\n  tag_72\n  jumpi\n    /* \"#utility.yul\":2857:2875   */\n  tag_73\n  tag_74\n  jump\t// in\ntag_73:\n    /* \"#utility.yul\":2801:2885   */\ntag_72:\n    /* \"#utility.yul\":2622:2891   */\n  pop\n    /* \"#utility.yul\":2571:2891   */\n  swap2\n  swap1\n  pop\n  jump\t// out\n    /* \"#utility.yul\":2897:3178   */\ntag_55:\n    /* \"#utility.yul\":2980:3007   */\n  tag_76\n    /* \"#utility.yul\":3002:3006   */\n  dup3\n    /* \"#utility.yul\":2980:3007   */\n  tag_62\n  jump\t// in\ntag_76:\n    /* \"#utility.yul\":2972:2978   */\n  dup2\n    /* \"#utility.yul\":2968:3008   */\n  add\n    /* \"#utility.yul\":3110:3116   */\n  dup2\n    /* \"#utility.yul\":3098:3108   */\n  dup2\n    /* \"#utility.yul\":3095:3117   */\n  lt\n    /* \"#utility.yul\":3074:3092   */\n  0xffffffffffffffff\n    /* \"#utility.yul\":3062:3072   */\n  dup3\n    /* \"#utility.yul\":3059:3093   */\n  gt\n    /* \"#utility.yul\":3056:3118   */\n  or\n    /* \"#utility.yul\":3053:3141   */\n  iszero\n  tag_77\n  jumpi\n    /* \"#utility.yul\":3121:3139   */\n  tag_78\n  tag_60\n  jump\t// in\ntag_78:\n    /* \"#utility.yul\":3053:3141   */\ntag_77:\n    /* \"#utility.yul\":3161:3171   */\n  dup1\n    /* \"#utility.yul\":3157:3159   */\n  0x40\n    /* \"#utility.yul\":3150:3172   */\n  mstore\n    /* \"#utility.yul\":2940:3178   */\n  pop\n    /* \"#utility.yul\":2897:3178   */\n  pop\n  pop\n  jump\t// out\n    /* \"#utility.yul\":3184:3364   */\ntag_74:\n    /* \"#utility.yul\":3232:3309   */\n  0x4e487b7100000000000000000000000000000000000000000000000000000000\n    /* \"#utility.yul\":3229:3230   */\n  0x00\n    /* \"#utility.yul\":3222:3310   */\n  mstore\n    /* \"#utility.yul\":3329:3333   */\n  0x22\n    /* \"#utility.yul\":3326:3327   */\n  0x04\n    /* \"#utility.yul\":3319:3334   */\n  mstore\n    /* \"#utility.yul\":3353:3357   */\n  0x24\n    /* \"#utility.yul\":3350:3351   */\n  0x00\n    /* \"#utility.yul\":3343:3358   */\n  revert\n    /* \"#utility.yul\":3370:3550   */\ntag_60:\n    /* \"#utility.yul\":3418:3495   */\n  0x4e487b7100000000000000000000000000000000000000000000000000000000\n    /* \"#utility.yul\":3415:3416   */\n  0x00\n    /* \"#utility.yul\":3408:3496   */\n  mstore\n    /* \"#utility.yul\":3515:3519   */\n  0x41\n    /* \"#utility.yul\":3512:3513   */\n  0x04\n    /* \"#utility.yul\":3505:3520   */\n  mstore\n    /* \"#utility.yul\":3539:3543   */\n  0x24\n    /* \"#utility.yul\":3536:3537   */\n  0x00\n    /* \"#utility.yul\":3529:3544   */\n  revert\n    /* \"#utility.yul\":3556:3673   */\ntag_36:\n    /* \"#utility.yul\":3665:3666   */\n  0x00\n    /* \"#utility.yul\":3662:3663   */\n  dup1\n    /* \"#utility.yul\":3655:3667   */\n  revert\n    /* \"#utility.yul\":3679:3796   */\ntag_29:\n    /* \"#utility.yul\":3788:3789   */\n  0x00\n    /* \"#utility.yul\":3785:3786   */\n  dup1\n    /* \"#utility.yul\":3778:3790   */\n  revert\n    /* \"#utility.yul\":3802:3919   */\ntag_48:\n    /* \"#utility.yul\":3911:3912   */\n  0x00\n    /* \"#utility.yul\":3908:3909   */\n  dup1\n    /* \"#utility.yul\":3901:3913   */\n  revert\n    /* \"#utility.yul\":3925:4042   */\ntag_45:\n    /* \"#utility.yul\":4034:4035   */\n  0x00\n    /* \"#utility.yul\":4031:4032   */\n  dup1\n    /* \"#utility.yul\":4024:4036   */\n  revert\n    /* \"#utility.yul\":4048:4150   */\ntag_62:\n    /* \"#utility.yul\":4089:4095   */\n  0x00\n    /* \"#utility.yul\":4140:4142   */\n  0x1f\n    /* \"#utility.yul\":4136:4143   */\n  not\n    /* \"#utility.yul\":4131:4133   */\n  0x1f\n    /* \"#utility.yul\":4124:4129   */\n  dup4\n    /* \"#utility.yul\":4120:4134   */\n  add\n    /* \"#utility.yul\":4116:4144   */\n  and\n    /* \"#utility.yul\":4106:4144   */\n  swap1\n  pop\n    /* \"#utility.yul\":4048:4150   */\n  swap2\n  swap1\n  pop\n  jump\t// out\n    /* \"#utility.yul\":4156:4274   */\ntag_41:\n    /* \"#utility.yul\":4227:4249   */\n  tag_87\n    /* \"#utility.yul\":4243:4248   */\n  dup2\n    /* \"#utility.yul\":4227:4249   */\n  tag_63\n  jump\t// in\ntag_87:\n    /* \"#utility.yul\":4220:4225   */\n  dup2\n    /* \"#utility.yul\":4217:4250   */\n  eq\n    /* \"#utility.yul\":4207:4268   */\n  tag_88\n  jumpi\n    /* \"#utility.yul\":4264:4265   */\n  0x00\n    /* \"#utility.yul\":4261:4262   */\n  dup1\n    /* \"#utility.yul\":4254:4266   */\n  revert\n    /* \"#utility.yul\":4207:4268   */\ntag_88:\n    /* \"#utility.yul\":4156:4274   */\n  pop\n  jump\t// out\n    /* \"extends.sol\":61:381  contract Person {\r... */\ntag_8:\n  dataSize(sub_0)\n  dup1\n  dataOffset(sub_0)\n  0x00\n  codecopy\n  0x00\n  return\nstop\n\nsub_0: assembly {\n        /* \"extends.sol\":61:381  contract Person {\r... */\n      mstore(0x40, 0x80)\n      callvalue\n      dup1\n      iszero\n      tag_1\n      jumpi\n      0x00\n      dup1\n      revert\n    tag_1:\n      pop\n      jumpi(tag_2, lt(calldatasize, 0x04))\n      shr(0xe0, calldataload(0x00))\n      dup1\n      0x5b0c8d70\n      eq\n      tag_3\n      jumpi\n      dup1\n      0xd0020fad\n      eq\n      tag_4\n      jumpi\n    tag_2:\n      0x00\n      dup1\n      revert\n        /* \"extends.sol\":314:378  function setAge(uint8 _age) public {\r... */\n    tag_3:\n      tag_5\n      0x04\n      dup1\n      calldatasize\n      sub\n      dup2\n      add\n      swap1\n      tag_6\n      swap2\n      swap1\n      tag_7\n      jump\t// in\n    tag_6:\n      tag_8\n      jump\t// in\n    tag_5:\n      stop\n        /* \"extends.sol\":226:302  function setUser(string memory _user) public {\r... */\n    tag_4:\n      tag_9\n      0x04\n      dup1\n      calldatasize\n      sub\n      dup2\n      add\n      swap1\n      tag_10\n      swap2\n      swap1\n      tag_11\n      jump\t// in\n    tag_10:\n      tag_12\n      jump\t// in\n    tag_9:\n      stop\n        /* \"extends.sol\":314:378  function setAge(uint8 _age) public {\r... */\n    tag_8:\n        /* \"extends.sol\":366:370  _age */\n      dup1\n        /* \"extends.sol\":360:363  age */\n      0x01\n      0x00\n        /* \"extends.sol\":360:370  age = _age */\n      0x0100\n      exp\n      dup2\n      sload\n      dup2\n      0xff\n      mul\n      not\n      and\n      swap1\n      dup4\n      0xff\n      and\n      mul\n      or\n      swap1\n      sstore\n      pop\n        /* \"extends.sol\":314:378  function setAge(uint8 _age) public {\r... */\n      pop\n      jump\t// out\n        /* \"extends.sol\":226:302  function setUser(string memory _user) public {\r... */\n    tag_12:\n        /* \"extends.sol\":289:294  _user */\n      dup1\n        /* \"extends.sol\":282:286  user */\n      0x00\n        /* \"extends.sol\":282:294  user = _user */\n      swap1\n      dup1\n      mload\n      swap1\n      0x20\n      add\n      swap1\n      tag_15\n      swap3\n      swap2\n      swap1\n      tag_16\n      jump\t// in\n    tag_15:\n      pop\n        /* \"extends.sol\":226:302  function setUser(string memory _user) public {\r... */\n      pop\n      jump\t// out\n    tag_16:\n      dup3\n      dup1\n      sload\n      tag_17\n      swap1\n      tag_18\n      jump\t// in\n    tag_17:\n      swap1\n      0x00\n      mstore\n      keccak256(0x00, 0x20)\n      swap1\n      0x1f\n      add\n      0x20\n      swap1\n      div\n      dup2\n      add\n      swap3\n      dup3\n      tag_20\n      jumpi\n      0x00\n      dup6\n      sstore\n      jump(tag_19)\n    tag_20:\n      dup3\n      0x1f\n      lt\n      tag_21\n      jumpi\n      dup1\n      mload\n      not(0xff)\n      and\n      dup4\n      dup1\n      add\n      or\n      dup6\n      sstore\n      jump(tag_19)\n    tag_21:\n      dup3\n      dup1\n      add\n      0x01\n      add\n      dup6\n      sstore\n      dup3\n      iszero\n      tag_19\n      jumpi\n      swap2\n      dup3\n      add\n    tag_22:\n      dup3\n      dup2\n      gt\n      iszero\n      tag_23\n      jumpi\n      dup3\n      mload\n      dup3\n      sstore\n      swap2\n      0x20\n      add\n      swap2\n      swap1\n      0x01\n      add\n      swap1\n      jump(tag_22)\n    tag_23:\n    tag_19:\n      pop\n      swap1\n      pop\n      tag_24\n      swap2\n      swap1\n      tag_25\n      jump\t// in\n    tag_24:\n      pop\n      swap1\n      jump\t// out\n    tag_25:\n    tag_26:\n      dup1\n      dup3\n      gt\n      iszero\n      tag_27\n      jumpi\n      0x00\n      dup2\n      0x00\n      swap1\n      sstore\n      pop\n      0x01\n      add\n      jump(tag_26)\n    tag_27:\n      pop\n      swap1\n      jump\t// out\n        /* \"#utility.yul\":7:419   */\n    tag_29:\n        /* \"#utility.yul\":85:90   */\n      0x00\n        /* \"#utility.yul\":110:176   */\n      tag_31\n        /* \"#utility.yul\":126:175   */\n      tag_32\n        /* \"#utility.yul\":168:174   */\n      dup5\n        /* \"#utility.yul\":126:175   */\n      tag_33\n      jump\t// in\n    tag_32:\n        /* \"#utility.yul\":110:176   */\n      tag_34\n      jump\t// in\n    tag_31:\n        /* \"#utility.yul\":101:176   */\n      swap1\n      pop\n        /* \"#utility.yul\":199:205   */\n      dup3\n        /* \"#utility.yul\":192:197   */\n      dup2\n        /* \"#utility.yul\":185:206   */\n      mstore\n        /* \"#utility.yul\":237:241   */\n      0x20\n        /* \"#utility.yul\":230:235   */\n      dup2\n        /* \"#utility.yul\":226:242   */\n      add\n        /* \"#utility.yul\":275:278   */\n      dup5\n        /* \"#utility.yul\":266:272   */\n      dup5\n        /* \"#utility.yul\":261:264   */\n      dup5\n        /* \"#utility.yul\":257:273   */\n      add\n        /* \"#utility.yul\":254:279   */\n      gt\n        /* \"#utility.yul\":251:363   */\n      iszero\n      tag_35\n      jumpi\n        /* \"#utility.yul\":282:361   */\n      tag_36\n      tag_37\n      jump\t// in\n    tag_36:\n        /* \"#utility.yul\":251:363   */\n    tag_35:\n        /* \"#utility.yul\":372:413   */\n      tag_38\n        /* \"#utility.yul\":406:412   */\n      dup5\n        /* \"#utility.yul\":401:404   */\n      dup3\n        /* \"#utility.yul\":396:399   */\n      dup6\n        /* \"#utility.yul\":372:413   */\n      tag_39\n      jump\t// in\n    tag_38:\n        /* \"#utility.yul\":91:419   */\n      pop\n        /* \"#utility.yul\":7:419   */\n      swap4\n      swap3\n      pop\n      pop\n      pop\n      jump\t// out\n        /* \"#utility.yul\":439:779   */\n    tag_40:\n        /* \"#utility.yul\":495:500   */\n      0x00\n        /* \"#utility.yul\":544:547   */\n      dup3\n        /* \"#utility.yul\":537:541   */\n      0x1f\n        /* \"#utility.yul\":529:535   */\n      dup4\n        /* \"#utility.yul\":525:542   */\n      add\n        /* \"#utility.yul\":521:548   */\n      slt\n        /* \"#utility.yul\":511:633   */\n      tag_42\n      jumpi\n        /* \"#utility.yul\":552:631   */\n      tag_43\n      tag_44\n      jump\t// in\n    tag_43:\n        /* \"#utility.yul\":511:633   */\n    tag_42:\n        /* \"#utility.yul\":669:675   */\n      dup2\n        /* \"#utility.yul\":656:676   */\n      calldataload\n        /* \"#utility.yul\":694:773   */\n      tag_45\n        /* \"#utility.yul\":769:772   */\n      dup5\n        /* \"#utility.yul\":761:767   */\n      dup3\n        /* \"#utility.yul\":754:758   */\n      0x20\n        /* \"#utility.yul\":746:752   */\n      dup7\n        /* \"#utility.yul\":742:759   */\n      add\n        /* \"#utility.yul\":694:773   */\n      tag_29\n      jump\t// in\n    tag_45:\n        /* \"#utility.yul\":685:773   */\n      swap2\n      pop\n        /* \"#utility.yul\":501:779   */\n      pop\n        /* \"#utility.yul\":439:779   */\n      swap3\n      swap2\n      pop\n      pop\n      jump\t// out\n        /* \"#utility.yul\":785:920   */\n    tag_46:\n        /* \"#utility.yul\":829:834   */\n      0x00\n        /* \"#utility.yul\":867:873   */\n      dup2\n        /* \"#utility.yul\":854:874   */\n      calldataload\n        /* \"#utility.yul\":845:874   */\n      swap1\n      pop\n        /* \"#utility.yul\":883:914   */\n      tag_48\n        /* \"#utility.yul\":908:913   */\n      dup2\n        /* \"#utility.yul\":883:914   */\n      tag_49\n      jump\t// in\n    tag_48:\n        /* \"#utility.yul\":785:920   */\n      swap3\n      swap2\n      pop\n      pop\n      jump\t// out\n        /* \"#utility.yul\":926:1435   */\n    tag_11:\n        /* \"#utility.yul\":995:1001   */\n      0x00\n        /* \"#utility.yul\":1044:1046   */\n      0x20\n        /* \"#utility.yul\":1032:1041   */\n      dup3\n        /* \"#utility.yul\":1023:1030   */\n      dup5\n        /* \"#utility.yul\":1019:1042   */\n      sub\n        /* \"#utility.yul\":1015:1047   */\n      slt\n        /* \"#utility.yul\":1012:1131   */\n      iszero\n      tag_51\n      jumpi\n        /* \"#utility.yul\":1050:1129   */\n      tag_52\n      tag_53\n      jump\t// in\n    tag_52:\n        /* \"#utility.yul\":1012:1131   */\n    tag_51:\n        /* \"#utility.yul\":1198:1199   */\n      0x00\n        /* \"#utility.yul\":1187:1196   */\n      dup3\n        /* \"#utility.yul\":1183:1200   */\n      add\n        /* \"#utility.yul\":1170:1201   */\n      calldataload\n        /* \"#utility.yul\":1228:1246   */\n      0xffffffffffffffff\n        /* \"#utility.yul\":1220:1226   */\n      dup2\n        /* \"#utility.yul\":1217:1247   */\n      gt\n        /* \"#utility.yul\":1214:1331   */\n      iszero\n      tag_54\n      jumpi\n        /* \"#utility.yul\":1250:1329   */\n      tag_55\n      tag_56\n      jump\t// in\n    tag_55:\n        /* \"#utility.yul\":1214:1331   */\n    tag_54:\n        /* \"#utility.yul\":1355:1418   */\n      tag_57\n        /* \"#utility.yul\":1410:1417   */\n      dup5\n        /* \"#utility.yul\":1401:1407   */\n      dup3\n        /* \"#utility.yul\":1390:1399   */\n      dup6\n        /* \"#utility.yul\":1386:1408   */\n      add\n        /* \"#utility.yul\":1355:1418   */\n      tag_40\n      jump\t// in\n    tag_57:\n        /* \"#utility.yul\":1345:1418   */\n      swap2\n      pop\n        /* \"#utility.yul\":1141:1428   */\n      pop\n        /* \"#utility.yul\":926:1435   */\n      swap3\n      swap2\n      pop\n      pop\n      jump\t// out\n        /* \"#utility.yul\":1441:1766   */\n    tag_7:\n        /* \"#utility.yul\":1498:1504   */\n      0x00\n        /* \"#utility.yul\":1547:1549   */\n      0x20\n        /* \"#utility.yul\":1535:1544   */\n      dup3\n        /* \"#utility.yul\":1526:1533   */\n      dup5\n        /* \"#utility.yul\":1522:1545   */\n      sub\n        /* \"#utility.yul\":1518:1550   */\n      slt\n        /* \"#utility.yul\":1515:1634   */\n      iszero\n      tag_59\n      jumpi\n        /* \"#utility.yul\":1553:1632   */\n      tag_60\n      tag_53\n      jump\t// in\n    tag_60:\n        /* \"#utility.yul\":1515:1634   */\n    tag_59:\n        /* \"#utility.yul\":1673:1674   */\n      0x00\n        /* \"#utility.yul\":1698:1749   */\n      tag_61\n        /* \"#utility.yul\":1741:1748   */\n      dup5\n        /* \"#utility.yul\":1732:1738   */\n      dup3\n        /* \"#utility.yul\":1721:1730   */\n      dup6\n        /* \"#utility.yul\":1717:1739   */\n      add\n        /* \"#utility.yul\":1698:1749   */\n      tag_46\n      jump\t// in\n    tag_61:\n        /* \"#utility.yul\":1688:1749   */\n      swap2\n      pop\n        /* \"#utility.yul\":1644:1759   */\n      pop\n        /* \"#utility.yul\":1441:1766   */\n      swap3\n      swap2\n      pop\n      pop\n      jump\t// out\n        /* \"#utility.yul\":1772:1901   */\n    tag_34:\n        /* \"#utility.yul\":1806:1812   */\n      0x00\n        /* \"#utility.yul\":1833:1853   */\n      tag_63\n      tag_64\n      jump\t// in\n    tag_63:\n        /* \"#utility.yul\":1823:1853   */\n      swap1\n      pop\n        /* \"#utility.yul\":1862:1895   */\n      tag_65\n        /* \"#utility.yul\":1890:1894   */\n      dup3\n        /* \"#utility.yul\":1882:1888   */\n      dup3\n        /* \"#utility.yul\":1862:1895   */\n      tag_66\n      jump\t// in\n    tag_65:\n        /* \"#utility.yul\":1772:1901   */\n      swap2\n      swap1\n      pop\n      jump\t// out\n        /* \"#utility.yul\":1907:1982   */\n    tag_64:\n        /* \"#utility.yul\":1940:1946   */\n      0x00\n        /* \"#utility.yul\":1973:1975   */\n      0x40\n        /* \"#utility.yul\":1967:1976   */\n      mload\n        /* \"#utility.yul\":1957:1976   */\n      swap1\n      pop\n        /* \"#utility.yul\":1907:1982   */\n      swap1\n      jump\t// out\n        /* \"#utility.yul\":1988:2296   */\n    tag_33:\n        /* \"#utility.yul\":2050:2054   */\n      0x00\n        /* \"#utility.yul\":2140:2158   */\n      0xffffffffffffffff\n        /* \"#utility.yul\":2132:2138   */\n      dup3\n        /* \"#utility.yul\":2129:2159   */\n      gt\n        /* \"#utility.yul\":2126:2182   */\n      iszero\n      tag_69\n      jumpi\n        /* \"#utility.yul\":2162:2180   */\n      tag_70\n      tag_71\n      jump\t// in\n    tag_70:\n        /* \"#utility.yul\":2126:2182   */\n    tag_69:\n        /* \"#utility.yul\":2200:2229   */\n      tag_72\n        /* \"#utility.yul\":2222:2228   */\n      dup3\n        /* \"#utility.yul\":2200:2229   */\n      tag_73\n      jump\t// in\n    tag_72:\n        /* \"#utility.yul\":2192:2229   */\n      swap1\n      pop\n        /* \"#utility.yul\":2284:2288   */\n      0x20\n        /* \"#utility.yul\":2278:2282   */\n      dup2\n        /* \"#utility.yul\":2274:2289   */\n      add\n        /* \"#utility.yul\":2266:2289   */\n      swap1\n      pop\n        /* \"#utility.yul\":1988:2296   */\n      swap2\n      swap1\n      pop\n      jump\t// out\n        /* \"#utility.yul\":2302:2388   */\n    tag_74:\n        /* \"#utility.yul\":2337:2344   */\n      0x00\n        /* \"#utility.yul\":2377:2381   */\n      0xff\n        /* \"#utility.yul\":2370:2375   */\n      dup3\n        /* \"#utility.yul\":2366:2382   */\n      and\n        /* \"#utility.yul\":2355:2382   */\n      swap1\n      pop\n        /* \"#utility.yul\":2302:2388   */\n      swap2\n      swap1\n      pop\n      jump\t// out\n        /* \"#utility.yul\":2394:2548   */\n    tag_39:\n        /* \"#utility.yul\":2478:2484   */\n      dup3\n        /* \"#utility.yul\":2473:2476   */\n      dup2\n        /* \"#utility.yul\":2468:2471   */\n      dup4\n        /* \"#utility.yul\":2455:2485   */\n      calldatacopy\n        /* \"#utility.yul\":2540:2541   */\n      0x00\n        /* \"#utility.yul\":2531:2537   */\n      dup4\n        /* \"#utility.yul\":2526:2529   */\n      dup4\n        /* \"#utility.yul\":2522:2538   */\n      add\n        /* \"#utility.yul\":2515:2542   */\n      mstore\n        /* \"#utility.yul\":2394:2548   */\n      pop\n      pop\n      pop\n      jump\t// out\n        /* \"#utility.yul\":2554:2874   */\n    tag_18:\n        /* \"#utility.yul\":2598:2604   */\n      0x00\n        /* \"#utility.yul\":2635:2636   */\n      0x02\n        /* \"#utility.yul\":2629:2633   */\n      dup3\n        /* \"#utility.yul\":2625:2637   */\n      div\n        /* \"#utility.yul\":2615:2637   */\n      swap1\n      pop\n        /* \"#utility.yul\":2682:2683   */\n      0x01\n        /* \"#utility.yul\":2676:2680   */\n      dup3\n        /* \"#utility.yul\":2672:2684   */\n      and\n        /* \"#utility.yul\":2703:2721   */\n      dup1\n        /* \"#utility.yul\":2693:2774   */\n      tag_78\n      jumpi\n        /* \"#utility.yul\":2759:2763   */\n      0x7f\n        /* \"#utility.yul\":2751:2757   */\n      dup3\n        /* \"#utility.yul\":2747:2764   */\n      and\n        /* \"#utility.yul\":2737:2764   */\n      swap2\n      pop\n        /* \"#utility.yul\":2693:2774   */\n    tag_78:\n        /* \"#utility.yul\":2821:2823   */\n      0x20\n        /* \"#utility.yul\":2813:2819   */\n      dup3\n        /* \"#utility.yul\":2810:2824   */\n      lt\n        /* \"#utility.yul\":2790:2808   */\n      dup2\n        /* \"#utility.yul\":2787:2825   */\n      eq\n        /* \"#utility.yul\":2784:2868   */\n      iszero\n      tag_79\n      jumpi\n        /* \"#utility.yul\":2840:2858   */\n      tag_80\n      tag_81\n      jump\t// in\n    tag_80:\n        /* \"#utility.yul\":2784:2868   */\n    tag_79:\n        /* \"#utility.yul\":2605:2874   */\n      pop\n        /* \"#utility.yul\":2554:2874   */\n      swap2\n      swap1\n      pop\n      jump\t// out\n        /* \"#utility.yul\":2880:3161   */\n    tag_66:\n        /* \"#utility.yul\":2963:2990   */\n      tag_83\n        /* \"#utility.yul\":2985:2989   */\n      dup3\n        /* \"#utility.yul\":2963:2990   */\n      tag_73\n      jump\t// in\n    tag_83:\n        /* \"#utility.yul\":2955:2961   */\n      dup2\n        /* \"#utility.yul\":2951:2991   */\n      add\n        /* \"#utility.yul\":3093:3099   */\n      dup2\n        /* \"#utility.yul\":3081:3091   */\n      dup2\n        /* \"#utility.yul\":3078:3100   */\n      lt\n        /* \"#utility.yul\":3057:3075   */\n      0xffffffffffffffff\n        /* \"#utility.yul\":3045:3055   */\n      dup3\n        /* \"#utility.yul\":3042:3076   */\n      gt\n        /* \"#utility.yul\":3039:3101   */\n      or\n        /* \"#utility.yul\":3036:3124   */\n      iszero\n      tag_84\n      jumpi\n        /* \"#utility.yul\":3104:3122   */\n      tag_85\n      tag_71\n      jump\t// in\n    tag_85:\n        /* \"#utility.yul\":3036:3124   */\n    tag_84:\n        /* \"#utility.yul\":3144:3154   */\n      dup1\n        /* \"#utility.yul\":3140:3142   */\n      0x40\n        /* \"#utility.yul\":3133:3155   */\n      mstore\n        /* \"#utility.yul\":2923:3161   */\n      pop\n        /* \"#utility.yul\":2880:3161   */\n      pop\n      pop\n      jump\t// out\n        /* \"#utility.yul\":3167:3347   */\n    tag_81:\n        /* \"#utility.yul\":3215:3292   */\n      0x4e487b7100000000000000000000000000000000000000000000000000000000\n        /* \"#utility.yul\":3212:3213   */\n      0x00\n        /* \"#utility.yul\":3205:3293   */\n      mstore\n        /* \"#utility.yul\":3312:3316   */\n      0x22\n        /* \"#utility.yul\":3309:3310   */\n      0x04\n        /* \"#utility.yul\":3302:3317   */\n      mstore\n        /* \"#utility.yul\":3336:3340   */\n      0x24\n        /* \"#utility.yul\":3333:3334   */\n      0x00\n        /* \"#utility.yul\":3326:3341   */\n      revert\n        /* \"#utility.yul\":3353:3533   */\n    tag_71:\n        /* \"#utility.yul\":3401:3478   */\n      0x4e487b7100000000000000000000000000000000000000000000000000000000\n        /* \"#utility.yul\":3398:3399   */\n      0x00\n        /* \"#utility.yul\":3391:3479   */\n      mstore\n        /* \"#utility.yul\":3498:3502   */\n      0x41\n        /* \"#utility.yul\":3495:3496   */\n      0x04\n        /* \"#utility.yul\":3488:3503   */\n      mstore\n        /* \"#utility.yul\":3522:3526   */\n      0x24\n        /* \"#utility.yul\":3519:3520   */\n      0x00\n        /* \"#utility.yul\":3512:3527   */\n      revert\n        /* \"#utility.yul\":3539:3656   */\n    tag_44:\n        /* \"#utility.yul\":3648:3649   */\n      0x00\n        /* \"#utility.yul\":3645:3646   */\n      dup1\n        /* \"#utility.yul\":3638:3650   */\n      revert\n        /* \"#utility.yul\":3662:3779   */\n    tag_37:\n        /* \"#utility.yul\":3771:3772   */\n      0x00\n        /* \"#utility.yul\":3768:3769   */\n      dup1\n        /* \"#utility.yul\":3761:3773   */\n      revert\n        /* \"#utility.yul\":3785:3902   */\n    tag_56:\n        /* \"#utility.yul\":3894:3895   */\n      0x00\n        /* \"#utility.yul\":3891:3892   */\n      dup1\n        /* \"#utility.yul\":3884:3896   */\n      revert\n        /* \"#utility.yul\":3908:4025   */\n    tag_53:\n        /* \"#utility.yul\":4017:4018   */\n      0x00\n        /* \"#utility.yul\":4014:4015   */\n      dup1\n        /* \"#utility.yul\":4007:4019   */\n      revert\n        /* \"#utility.yul\":4031:4133   */\n    tag_73:\n        /* \"#utility.yul\":4072:4078   */\n      0x00\n        /* \"#utility.yul\":4123:4125   */\n      0x1f\n        /* \"#utility.yul\":4119:4126   */\n      not\n        /* \"#utility.yul\":4114:4116   */\n      0x1f\n        /* \"#utility.yul\":4107:4112   */\n      dup4\n        /* \"#utility.yul\":4103:4117   */\n      add\n        /* \"#utility.yul\":4099:4127   */\n      and\n        /* \"#utility.yul\":4089:4127   */\n      swap1\n      pop\n        /* \"#utility.yul\":4031:4133   */\n      swap2\n      swap1\n      pop\n      jump\t// out\n        /* \"#utility.yul\":4139:4257   */\n    tag_49:\n        /* \"#utility.yul\":4210:4232   */\n      tag_94\n        /* \"#utility.yul\":4226:4231   */\n      dup2\n        /* \"#utility.yul\":4210:4232   */\n      tag_74\n      jump\t// in\n    tag_94:\n        /* \"#utility.yul\":4203:4208   */\n      dup2\n        /* \"#utility.yul\":4200:4233   */\n      eq\n        /* \"#utility.yul\":4190:4251   */\n      tag_95\n      jumpi\n        /* \"#utility.yul\":4247:4248   */\n      0x00\n        /* \"#utility.yul\":4244:4245   */\n      dup1\n        /* \"#utility.yul\":4237:4249   */\n      revert\n        /* \"#utility.yul\":4190:4251   */\n    tag_95:\n        /* \"#utility.yul\":4139:4257   */\n      pop\n      jump\t// out\n\n    auxdata: 0xa264697066735822122005bbb3085bbe2038aabb3de33c14a63bc75737d842d498bcaa06896d49cd274264736f6c63430008070033\n}\n",
				"bytecode": {
					"linkReferences": {},
					"object": "60806040523480156200001157600080fd5b50604051620007c7380380620007c78339818101604052810190620000379190620001b8565b81600090805190602001906200004f92919062000073565b5080600160006101000a81548160ff021916908360ff1602179055505050620003c9565b8280546200008190620002c0565b90600052602060002090601f016020900481019282620000a55760008555620000f1565b82601f10620000c057805160ff1916838001178555620000f1565b82800160010185558215620000f1579182015b82811115620000f0578251825591602001919060010190620000d3565b5b50905062000100919062000104565b5090565b5b808211156200011f57600081600090555060010162000105565b5090565b60006200013a620001348462000247565b6200021e565b9050828152602081018484840111156200015957620001586200038f565b5b620001668482856200028a565b509392505050565b600082601f8301126200018657620001856200038a565b5b81516200019884826020860162000123565b91505092915050565b600081519050620001b281620003af565b92915050565b60008060408385031215620001d257620001d162000399565b5b600083015167ffffffffffffffff811115620001f357620001f262000394565b5b62000201858286016200016e565b92505060206200021485828601620001a1565b9150509250929050565b60006200022a6200023d565b9050620002388282620002f6565b919050565b6000604051905090565b600067ffffffffffffffff8211156200026557620002646200035b565b5b62000270826200039e565b9050602081019050919050565b600060ff82169050919050565b60005b83811015620002aa5780820151818401526020810190506200028d565b83811115620002ba576000848401525b50505050565b60006002820490506001821680620002d957607f821691505b60208210811415620002f057620002ef6200032c565b5b50919050565b62000301826200039e565b810181811067ffffffffffffffff821117156200032357620003226200035b565b5b80604052505050565b7f4e487b7100000000000000000000000000000000000000000000000000000000600052602260045260246000fd5b7f4e487b7100000000000000000000000000000000000000000000000000000000600052604160045260246000fd5b600080fd5b600080fd5b600080fd5b600080fd5b6000601f19601f8301169050919050565b620003ba816200027d565b8114620003c657600080fd5b50565b6103ee80620003d96000396000f3fe608060405234801561001057600080fd5b50600436106100365760003560e01c80635b0c8d701461003b578063d0020fad14610057575b600080fd5b6100556004803603810190610050919061021c565b610073565b005b610071600480360381019061006c91906101d3565b610091565b005b80600160006101000a81548160ff021916908360ff16021790555050565b80600090805190602001906100a79291906100ab565b5050565b8280546100b7906102bb565b90600052602060002090601f0160209004810192826100d95760008555610120565b82601f106100f257805160ff1916838001178555610120565b82800160010185558215610120579182015b8281111561011f578251825591602001919060010190610104565b5b50905061012d9190610131565b5090565b5b8082111561014a576000816000905550600101610132565b5090565b600061016161015c8461026e565b610249565b90508281526020810184848401111561017d5761017c610381565b5b6101888482856102ac565b509392505050565b600082601f8301126101a5576101a461037c565b5b81356101b584826020860161014e565b91505092915050565b6000813590506101cd816103a1565b92915050565b6000602082840312156101e9576101e861038b565b5b600082013567ffffffffffffffff81111561020757610206610386565b5b61021384828501610190565b91505092915050565b6000602082840312156102325761023161038b565b5b6000610240848285016101be565b91505092915050565b6000610253610264565b905061025f82826102ed565b919050565b6000604051905090565b600067ffffffffffffffff8211156102895761028861034d565b5b61029282610390565b9050602081019050919050565b600060ff82169050919050565b82818337600083830152505050565b600060028204905060018216806102d357607f821691505b602082108114156102e7576102e661031e565b5b50919050565b6102f682610390565b810181811067ffffffffffffffff821117156103155761031461034d565b5b80604052505050565b7f4e487b7100000000000000000000000000000000000000000000000000000000600052602260045260246000fd5b7f4e487b7100000000000000000000000000000000000000000000000000000000600052604160045260246000fd5b600080fd5b600080fd5b600080fd5b600080fd5b6000601f19601f8301169050919050565b6103aa8161029f565b81146103b557600080fd5b5056fea264697066735822122005bbb3085bbe2038aabb3de33c14a63bc75737d842d498bcaa06896d49cd274264736f6c63430008070033",
					"opcodes": "PUSH1 0x80 PUSH1 0x40 MSTORE CALLVALUE DUP1 ISZERO PUSH3 0x11 JUMPI PUSH1 0x0 DUP1 REVERT JUMPDEST POP PUSH1 0x40 MLOAD PUSH3 0x7C7 CODESIZE SUB DUP1 PUSH3 0x7C7 DUP4 CODECOPY DUP2 DUP2 ADD PUSH1 0x40 MSTORE DUP2 ADD SWAP1 PUSH3 0x37 SWAP2 SWAP1 PUSH3 0x1B8 JUMP JUMPDEST DUP2 PUSH1 0x0 SWAP1 DUP1 MLOAD SWAP1 PUSH1 0x20 ADD SWAP1 PUSH3 0x4F SWAP3 SWAP2 SWAP1 PUSH3 0x73 JUMP JUMPDEST POP DUP1 PUSH1 0x1 PUSH1 0x0 PUSH2 0x100 EXP DUP2 SLOAD DUP2 PUSH1 0xFF MUL NOT AND SWAP1 DUP4 PUSH1 0xFF AND MUL OR SWAP1 SSTORE POP POP POP PUSH3 0x3C9 JUMP JUMPDEST DUP3 DUP1 SLOAD PUSH3 0x81 SWAP1 PUSH3 0x2C0 JUMP JUMPDEST SWAP1 PUSH1 0x0 MSTORE PUSH1 0x20 PUSH1 0x0 KECCAK256 SWAP1 PUSH1 0x1F ADD PUSH1 0x20 SWAP1 DIV DUP2 ADD SWAP3 DUP3 PUSH3 0xA5 JUMPI PUSH1 0x0 DUP6 SSTORE PUSH3 0xF1 JUMP JUMPDEST DUP3 PUSH1 0x1F LT PUSH3 0xC0 JUMPI DUP1 MLOAD PUSH1 0xFF NOT AND DUP4 DUP1 ADD OR DUP6 SSTORE PUSH3 0xF1 JUMP JUMPDEST DUP3 DUP1 ADD PUSH1 0x1 ADD DUP6 SSTORE DUP3 ISZERO PUSH3 0xF1 JUMPI SWAP2 DUP3 ADD JUMPDEST DUP3 DUP2 GT ISZERO PUSH3 0xF0 JUMPI DUP3 MLOAD DUP3 SSTORE SWAP2 PUSH1 0x20 ADD SWAP2 SWAP1 PUSH1 0x1 ADD SWAP1 PUSH3 0xD3 JUMP JUMPDEST JUMPDEST POP SWAP1 POP PUSH3 0x100 SWAP2 SWAP1 PUSH3 0x104 JUMP JUMPDEST POP SWAP1 JUMP JUMPDEST JUMPDEST DUP1 DUP3 GT ISZERO PUSH3 0x11F JUMPI PUSH1 0x0 DUP2 PUSH1 0x0 SWAP1 SSTORE POP PUSH1 0x1 ADD PUSH3 0x105 JUMP JUMPDEST POP SWAP1 JUMP JUMPDEST PUSH1 0x0 PUSH3 0x13A PUSH3 0x134 DUP5 PUSH3 0x247 JUMP JUMPDEST PUSH3 0x21E JUMP JUMPDEST SWAP1 POP DUP3 DUP2 MSTORE PUSH1 0x20 DUP2 ADD DUP5 DUP5 DUP5 ADD GT ISZERO PUSH3 0x159 JUMPI PUSH3 0x158 PUSH3 0x38F JUMP JUMPDEST JUMPDEST PUSH3 0x166 DUP5 DUP3 DUP6 PUSH3 0x28A JUMP JUMPDEST POP SWAP4 SWAP3 POP POP POP JUMP JUMPDEST PUSH1 0x0 DUP3 PUSH1 0x1F DUP4 ADD SLT PUSH3 0x186 JUMPI PUSH3 0x185 PUSH3 0x38A JUMP JUMPDEST JUMPDEST DUP2 MLOAD PUSH3 0x198 DUP5 DUP3 PUSH1 0x20 DUP7 ADD PUSH3 0x123 JUMP JUMPDEST SWAP2 POP POP SWAP3 SWAP2 POP POP JUMP JUMPDEST PUSH1 0x0 DUP2 MLOAD SWAP1 POP PUSH3 0x1B2 DUP2 PUSH3 0x3AF JUMP JUMPDEST SWAP3 SWAP2 POP POP JUMP JUMPDEST PUSH1 0x0 DUP1 PUSH1 0x40 DUP4 DUP6 SUB SLT ISZERO PUSH3 0x1D2 JUMPI PUSH3 0x1D1 PUSH3 0x399 JUMP JUMPDEST JUMPDEST PUSH1 0x0 DUP4 ADD MLOAD PUSH8 0xFFFFFFFFFFFFFFFF DUP2 GT ISZERO PUSH3 0x1F3 JUMPI PUSH3 0x1F2 PUSH3 0x394 JUMP JUMPDEST JUMPDEST PUSH3 0x201 DUP6 DUP3 DUP7 ADD PUSH3 0x16E JUMP JUMPDEST SWAP3 POP POP PUSH1 0x20 PUSH3 0x214 DUP6 DUP3 DUP7 ADD PUSH3 0x1A1 JUMP JUMPDEST SWAP2 POP POP SWAP3 POP SWAP3 SWAP1 POP JUMP JUMPDEST PUSH1 0x0 PUSH3 0x22A PUSH3 0x23D JUMP JUMPDEST SWAP1 POP PUSH3 0x238 DUP3 DUP3 PUSH3 0x2F6 JUMP JUMPDEST SWAP2 SWAP1 POP JUMP JUMPDEST PUSH1 0x0 PUSH1 0x40 MLOAD SWAP1 POP SWAP1 JUMP JUMPDEST PUSH1 0x0 PUSH8 0xFFFFFFFFFFFFFFFF DUP3 GT ISZERO PUSH3 0x265 JUMPI PUSH3 0x264 PUSH3 0x35B JUMP JUMPDEST JUMPDEST PUSH3 0x270 DUP3 PUSH3 0x39E JUMP JUMPDEST SWAP1 POP PUSH1 0x20 DUP2 ADD SWAP1 POP SWAP2 SWAP1 POP JUMP JUMPDEST PUSH1 0x0 PUSH1 0xFF DUP3 AND SWAP1 POP SWAP2 SWAP1 POP JUMP JUMPDEST PUSH1 0x0 JUMPDEST DUP4 DUP2 LT ISZERO PUSH3 0x2AA JUMPI DUP1 DUP3 ADD MLOAD DUP2 DUP5 ADD MSTORE PUSH1 0x20 DUP2 ADD SWAP1 POP PUSH3 0x28D JUMP JUMPDEST DUP4 DUP2 GT ISZERO PUSH3 0x2BA JUMPI PUSH1 0x0 DUP5 DUP5 ADD MSTORE JUMPDEST POP POP POP POP JUMP JUMPDEST PUSH1 0x0 PUSH1 0x2 DUP3 DIV SWAP1 POP PUSH1 0x1 DUP3 AND DUP1 PUSH3 0x2D9 JUMPI PUSH1 0x7F DUP3 AND SWAP2 POP JUMPDEST PUSH1 0x20 DUP3 LT DUP2 EQ ISZERO PUSH3 0x2F0 JUMPI PUSH3 0x2EF PUSH3 0x32C JUMP JUMPDEST JUMPDEST POP SWAP2 SWAP1 POP JUMP JUMPDEST PUSH3 0x301 DUP3 PUSH3 0x39E JUMP JUMPDEST DUP2 ADD DUP2 DUP2 LT PUSH8 0xFFFFFFFFFFFFFFFF DUP3 GT OR ISZERO PUSH3 0x323 JUMPI PUSH3 0x322 PUSH3 0x35B JUMP JUMPDEST JUMPDEST DUP1 PUSH1 0x40 MSTORE POP POP POP JUMP JUMPDEST PUSH32 0x4E487B7100000000000000000000000000000000000000000000000000000000 PUSH1 0x0 MSTORE PUSH1 0x22 PUSH1 0x4 MSTORE PUSH1 0x24 PUSH1 0x0 REVERT JUMPDEST PUSH32 0x4E487B7100000000000000000000000000000000000000000000000000000000 PUSH1 0x0 MSTORE PUSH1 0x41 PUSH1 0x4 MSTORE PUSH1 0x24 PUSH1 0x0 REVERT JUMPDEST PUSH1 0x0 DUP1 REVERT JUMPDEST PUSH1 0x0 DUP1 REVERT JUMPDEST PUSH1 0x0 DUP1 REVERT JUMPDEST PUSH1 0x0 DUP1 REVERT JUMPDEST PUSH1 0x0 PUSH1 0x1F NOT PUSH1 0x1F DUP4 ADD AND SWAP1 POP SWAP2 SWAP1 POP JUMP JUMPDEST PUSH3 0x3BA DUP2 PUSH3 0x27D JUMP JUMPDEST DUP2 EQ PUSH3 0x3C6 JUMPI PUSH1 0x0 DUP1 REVERT JUMPDEST POP JUMP JUMPDEST PUSH2 0x3EE DUP1 PUSH3 0x3D9 PUSH1 0x0 CODECOPY PUSH1 0x0 RETURN INVALID PUSH1 0x80 PUSH1 0x40 MSTORE CALLVALUE DUP1 ISZERO PUSH2 0x10 JUMPI PUSH1 0x0 DUP1 REVERT JUMPDEST POP PUSH1 0x4 CALLDATASIZE LT PUSH2 0x36 JUMPI PUSH1 0x0 CALLDATALOAD PUSH1 0xE0 SHR DUP1 PUSH4 0x5B0C8D70 EQ PUSH2 0x3B JUMPI DUP1 PUSH4 0xD0020FAD EQ PUSH2 0x57 JUMPI JUMPDEST PUSH1 0x0 DUP1 REVERT JUMPDEST PUSH2 0x55 PUSH1 0x4 DUP1 CALLDATASIZE SUB DUP2 ADD SWAP1 PUSH2 0x50 SWAP2 SWAP1 PUSH2 0x21C JUMP JUMPDEST PUSH2 0x73 JUMP JUMPDEST STOP JUMPDEST PUSH2 0x71 PUSH1 0x4 DUP1 CALLDATASIZE SUB DUP2 ADD SWAP1 PUSH2 0x6C SWAP2 SWAP1 PUSH2 0x1D3 JUMP JUMPDEST PUSH2 0x91 JUMP JUMPDEST STOP JUMPDEST DUP1 PUSH1 0x1 PUSH1 0x0 PUSH2 0x100 EXP DUP2 SLOAD DUP2 PUSH1 0xFF MUL NOT AND SWAP1 DUP4 PUSH1 0xFF AND MUL OR SWAP1 SSTORE POP POP JUMP JUMPDEST DUP1 PUSH1 0x0 SWAP1 DUP1 MLOAD SWAP1 PUSH1 0x20 ADD SWAP1 PUSH2 0xA7 SWAP3 SWAP2 SWAP1 PUSH2 0xAB JUMP JUMPDEST POP POP JUMP JUMPDEST DUP3 DUP1 SLOAD PUSH2 0xB7 SWAP1 PUSH2 0x2BB JUMP JUMPDEST SWAP1 PUSH1 0x0 MSTORE PUSH1 0x20 PUSH1 0x0 KECCAK256 SWAP1 PUSH1 0x1F ADD PUSH1 0x20 SWAP1 DIV DUP2 ADD SWAP3 DUP3 PUSH2 0xD9 JUMPI PUSH1 0x0 DUP6 SSTORE PUSH2 0x120 JUMP JUMPDEST DUP3 PUSH1 0x1F LT PUSH2 0xF2 JUMPI DUP1 MLOAD PUSH1 0xFF NOT AND DUP4 DUP1 ADD OR DUP6 SSTORE PUSH2 0x120 JUMP JUMPDEST DUP3 DUP1 ADD PUSH1 0x1 ADD DUP6 SSTORE DUP3 ISZERO PUSH2 0x120 JUMPI SWAP2 DUP3 ADD JUMPDEST DUP3 DUP2 GT ISZERO PUSH2 0x11F JUMPI DUP3 MLOAD DUP3 SSTORE SWAP2 PUSH1 0x20 ADD SWAP2 SWAP1 PUSH1 0x1 ADD SWAP1 PUSH2 0x104 JUMP JUMPDEST JUMPDEST POP SWAP1 POP PUSH2 0x12D SWAP2 SWAP1 PUSH2 0x131 JUMP JUMPDEST POP SWAP1 JUMP JUMPDEST JUMPDEST DUP1 DUP3 GT ISZERO PUSH2 0x14A JUMPI PUSH1 0x0 DUP2 PUSH1 0x0 SWAP1 SSTORE POP PUSH1 0x1 ADD PUSH2 0x132 JUMP JUMPDEST POP SWAP1 JUMP JUMPDEST PUSH1 0x0 PUSH2 0x161 PUSH2 0x15C DUP5 PUSH2 0x26E JUMP JUMPDEST PUSH2 0x249 JUMP JUMPDEST SWAP1 POP DUP3 DUP2 MSTORE PUSH1 0x20 DUP2 ADD DUP5 DUP5 DUP5 ADD GT ISZERO PUSH2 0x17D JUMPI PUSH2 0x17C PUSH2 0x381 JUMP JUMPDEST JUMPDEST PUSH2 0x188 DUP5 DUP3 DUP6 PUSH2 0x2AC JUMP JUMPDEST POP SWAP4 SWAP3 POP POP POP JUMP JUMPDEST PUSH1 0x0 DUP3 PUSH1 0x1F DUP4 ADD SLT PUSH2 0x1A5 JUMPI PUSH2 0x1A4 PUSH2 0x37C JUMP JUMPDEST JUMPDEST DUP2 CALLDATALOAD PUSH2 0x1B5 DUP5 DUP3 PUSH1 0x20 DUP7 ADD PUSH2 0x14E JUMP JUMPDEST SWAP2 POP POP SWAP3 SWAP2 POP POP JUMP JUMPDEST PUSH1 0x0 DUP2 CALLDATALOAD SWAP1 POP PUSH2 0x1CD DUP2 PUSH2 0x3A1 JUMP JUMPDEST SWAP3 SWAP2 POP POP JUMP JUMPDEST PUSH1 0x0 PUSH1 0x20 DUP3 DUP5 SUB SLT ISZERO PUSH2 0x1E9 JUMPI PUSH2 0x1E8 PUSH2 0x38B JUMP JUMPDEST JUMPDEST PUSH1 0x0 DUP3 ADD CALLDATALOAD PUSH8 0xFFFFFFFFFFFFFFFF DUP2 GT ISZERO PUSH2 0x207 JUMPI PUSH2 0x206 PUSH2 0x386 JUMP JUMPDEST JUMPDEST PUSH2 0x213 DUP5 DUP3 DUP6 ADD PUSH2 0x190 JUMP JUMPDEST SWAP2 POP POP SWAP3 SWAP2 POP POP JUMP JUMPDEST PUSH1 0x0 PUSH1 0x20 DUP3 DUP5 SUB SLT ISZERO PUSH2 0x232 JUMPI PUSH2 0x231 PUSH2 0x38B JUMP JUMPDEST JUMPDEST PUSH1 0x0 PUSH2 0x240 DUP5 DUP3 DUP6 ADD PUSH2 0x1BE JUMP JUMPDEST SWAP2 POP POP SWAP3 SWAP2 POP POP JUMP JUMPDEST PUSH1 0x0 PUSH2 0x253 PUSH2 0x264 JUMP JUMPDEST SWAP1 POP PUSH2 0x25F DUP3 DUP3 PUSH2 0x2ED JUMP JUMPDEST SWAP2 SWAP1 POP JUMP JUMPDEST PUSH1 0x0 PUSH1 0x40 MLOAD SWAP1 POP SWAP1 JUMP JUMPDEST PUSH1 0x0 PUSH8 0xFFFFFFFFFFFFFFFF DUP3 GT ISZERO PUSH2 0x289 JUMPI PUSH2 0x288 PUSH2 0x34D JUMP JUMPDEST JUMPDEST PUSH2 0x292 DUP3 PUSH2 0x390 JUMP JUMPDEST SWAP1 POP PUSH1 0x20 DUP2 ADD SWAP1 POP SWAP2 SWAP1 POP JUMP JUMPDEST PUSH1 0x0 PUSH1 0xFF DUP3 AND SWAP1 POP SWAP2 SWAP1 POP JUMP JUMPDEST DUP3 DUP2 DUP4 CALLDATACOPY PUSH1 0x0 DUP4 DUP4 ADD MSTORE POP POP POP JUMP JUMPDEST PUSH1 0x0 PUSH1 0x2 DUP3 DIV SWAP1 POP PUSH1 0x1 DUP3 AND DUP1 PUSH2 0x2D3 JUMPI PUSH1 0x7F DUP3 AND SWAP2 POP JUMPDEST PUSH1 0x20 DUP3 LT DUP2 EQ ISZERO PUSH2 0x2E7 JUMPI PUSH2 0x2E6 PUSH2 0x31E JUMP JUMPDEST JUMPDEST POP SWAP2 SWAP1 POP JUMP JUMPDEST PUSH2 0x2F6 DUP3 PUSH2 0x390 JUMP JUMPDEST DUP2 ADD DUP2 DUP2 LT PUSH8 0xFFFFFFFFFFFFFFFF DUP3 GT OR ISZERO PUSH2 0x315 JUMPI PUSH2 0x314 PUSH2 0x34D JUMP JUMPDEST JUMPDEST DUP1 PUSH1 0x40 MSTORE POP POP POP JUMP JUMPDEST PUSH32 0x4E487B7100000000000000000000000000000000000000000000000000000000 PUSH1 0x0 MSTORE PUSH1 0x22 PUSH1 0x4 MSTORE PUSH1 0x24 PUSH1 0x0 REVERT JUMPDEST PUSH32 0x4E487B7100000000000000000000000000000000000000000000000000000000 PUSH1 0x0 MSTORE PUSH1 0x41 PUSH1 0x4 MSTORE PUSH1 0x24 PUSH1 0x0 REVERT JUMPDEST PUSH1 0x0 DUP1 REVERT JUMPDEST PUSH1 0x0 DUP1 REVERT JUMPDEST PUSH1 0x0 DUP1 REVERT JUMPDEST PUSH1 0x0 DUP1 REVERT JUMPDEST PUSH1 0x0 PUSH1 0x1F NOT PUSH1 0x1F DUP4 ADD AND SWAP1 POP SWAP2 SWAP1 POP JUMP JUMPDEST PUSH2 0x3AA DUP2 PUSH2 0x29F JUMP JUMPDEST DUP2 EQ PUSH2 0x3B5 JUMPI PUSH1 0x0 DUP1 REVERT JUMPDEST POP JUMP INVALID LOG2 PUSH5 0x6970667358 0x22 SLT KECCAK256 SDIV 0xBB 0xB3 ADDMOD JUMPDEST 0xBE KECCAK256 CODESIZE 0xAA 0xBB RETURNDATASIZE 0xE3 EXTCODECOPY EQ 0xA6 EXTCODESIZE 0xC7 JUMPI CALLDATACOPY 0xD8 TIMESTAMP 0xD4 SWAP9 0xBC 0xAA MOD DUP10 PUSH14 0x49CD274264736F6C634300080700 CALLER "
				},
				"gasEstimates": {
					"creation": {
						"codeDepositCost": "201200",
						"executionCost": "infinite",
						"totalCost": "infinite"
					},
					"external": {
						"setAge(uint8)": "24657",
						"setUser(string)": "infinite"
					}
				},
				"methodIdentifiers": {
					"setAge(uint8)": "5b0c8d70",
					"setUser(string)": "d0020fad"
				}
			},
			"storageLayout": {
				"storage": [
					{
						"astId": 3,
						"contract": "extends.sol:Person",
						"label": "user",
						"offset": 0,
						"slot": "0",
						"type": "t_string_storage"
					},
					{
						"astId": 5,
						"contract": "extends.sol:Person",
						"label": "age",
						"offset": 0,
						"slot": "1",
						"type": "t_uint8"
					}
				],
				"types": {
					"t_string_storage": {
						"encoding": "bytes",
						"label": "string",
						"numberOfBytes": "32"
					},
					"t_uint8": {
						"encoding": "inplace",
						"label": "uint8",
						"numberOfBytes": "1"
					}
				}
			},
			"userdoc": {
				"kind": "user",
				"methods": {},
				"version": 1
			}
		}
	}
}