{
	"extends.sol": {
		"Man": {
			"abi": [
				{
					"inputs": [],
					"name": "f1",
					"outputs": [
						{
							"internalType": "string",
							"name": "",
							"type": "string"
						},
						{
							"internalType": "uint8",
							"name": "",
							"type": "uint8"
						}
					],
					"stateMutability": "view",
					"type": "function"
				},
				{
					"inputs": [
						{
							"internalType": "uint8",
							"name": "_age",
							"type": "uint8"
						}
					],
					"name": "setAge",
					"outputs": [],
					"stateMutability": "nonpayable",
					"type": "function"
				},
				{
					"inputs": [
						{
							"internalType": "string",
							"name": "_user",
							"type": "string"
						}
					],
					"name": "setUser",
					"outputs": [],
					"stateMutability": "nonpayable",
					"type": "function"
				}
			],
			"devdoc": {
				"kind": "dev",
				"methods": {},
				"version": 1
			},
			"evm": {
				"assembly": "    /* \"extends.sol\":385:521  contract Man is Person('blue',30) {\r... */\n  mstore(0x40, 0x80)\n  callvalue\n  dup1\n  iszero\n  tag_1\n  jumpi\n  0x00\n  dup1\n  revert\ntag_1:\n  pop\n    /* \"extends.sol\":122:218  constructor(string memory _user,uint8 _age) {\r... */\n  mload(0x40)\n  dup1\n  0x40\n  add\n  0x40\n  mstore\n  dup1\n  0x04\n  dup2\n  mstore\n  0x20\n  add\n  0x626c756500000000000000000000000000000000000000000000000000000000\n  dup2\n  mstore\n  pop\n    /* \"extends.sol\":415:417  30 */\n  0x1e\n    /* \"extends.sol\":184:189  _user */\n  dup2\n    /* \"extends.sol\":177:181  user */\n  0x00\n    /* \"extends.sol\":177:189  user = _user */\n  swap1\n  dup1\n  mload\n  swap1\n  0x20\n  add\n  swap1\n  tag_4\n  swap3\n  swap2\n  swap1\n  tag_5\n  jump\t// in\ntag_4:\n  pop\n    /* \"extends.sol\":206:210  _age */\n  dup1\n    /* \"extends.sol\":200:203  age */\n  0x01\n  0x00\n    /* \"extends.sol\":200:210  age = _age */\n  0x0100\n  exp\n  dup2\n  sload\n  dup2\n  0xff\n  mul\n  not\n  and\n  swap1\n  dup4\n  0xff\n  and\n  mul\n  or\n  swap1\n  sstore\n  pop\n    /* \"extends.sol\":122:218  constructor(string memory _user,uint8 _age) {\r... */\n  pop\n  pop\n    /* \"extends.sol\":385:521  contract Man is Person('blue',30) {\r... */\n  jump(tag_6)\ntag_5:\n  dup3\n  dup1\n  sload\n  tag_7\n  swap1\n  tag_8\n  jump\t// in\ntag_7:\n  swap1\n  0x00\n  mstore\n  keccak256(0x00, 0x20)\n  swap1\n  0x1f\n  add\n  0x20\n  swap1\n  div\n  dup2\n  add\n  swap3\n  dup3\n  tag_10\n  jumpi\n  0x00\n  dup6\n  sstore\n  jump(tag_9)\ntag_10:\n  dup3\n  0x1f\n  lt\n  tag_11\n  jumpi\n  dup1\n  mload\n  not(0xff)\n  and\n  dup4\n  dup1\n  add\n  or\n  dup6\n  sstore\n  jump(tag_9)\ntag_11:\n  dup3\n  dup1\n  add\n  0x01\n  add\n  dup6\n  sstore\n  dup3\n  iszero\n  tag_9\n  jumpi\n  swap2\n  dup3\n  add\ntag_12:\n  dup3\n  dup2\n  gt\n  iszero\n  tag_13\n  jumpi\n  dup3\n  mload\n  dup3\n  sstore\n  swap2\n  0x20\n  add\n  swap2\n  swap1\n  0x01\n  add\n  swap1\n  jump(tag_12)\ntag_13:\ntag_9:\n  pop\n  swap1\n  pop\n  tag_14\n  swap2\n  swap1\n  tag_15\n  jump\t// in\ntag_14:\n  pop\n  swap1\n  jump\t// out\ntag_15:\ntag_16:\n  dup1\n  dup3\n  gt\n  iszero\n  tag_17\n  jumpi\n  0x00\n  dup2\n  0x00\n  swap1\n  sstore\n  pop\n  0x01\n  add\n  jump(tag_16)\ntag_17:\n  pop\n  swap1\n  jump\t// out\n    /* \"#utility.yul\":7:327   */\ntag_8:\n    /* \"#utility.yul\":51:57   */\n  0x00\n    /* \"#utility.yul\":88:89   */\n  0x02\n    /* \"#utility.yul\":82:86   */\n  dup3\n    /* \"#utility.yul\":78:90   */\n  div\n    /* \"#utility.yul\":68:90   */\n  swap1\n  pop\n    /* \"#utility.yul\":135:136   */\n  0x01\n    /* \"#utility.yul\":129:133   */\n  dup3\n    /* \"#utility.yul\":125:137   */\n  and\n    /* \"#utility.yul\":156:174   */\n  dup1\n    /* \"#utility.yul\":146:227   */\n  tag_20\n  jumpi\n    /* \"#utility.yul\":212:216   */\n  0x7f\n    /* \"#utility.yul\":204:210   */\n  dup3\n    /* \"#utility.yul\":200:217   */\n  and\n    /* \"#utility.yul\":190:217   */\n  swap2\n  pop\n    /* \"#utility.yul\":146:227   */\ntag_20:\n    /* \"#utility.yul\":274:276   */\n  0x20\n    /* \"#utility.yul\":266:272   */\n  dup3\n    /* \"#utility.yul\":263:277   */\n  lt\n    /* \"#utility.yul\":243:261   */\n  dup2\n    /* \"#utility.yul\":240:278   */\n  eq\n    /* \"#utility.yul\":237:321   */\n  iszero\n  tag_21\n  jumpi\n    /* \"#utility.yul\":293:311   */\n  tag_22\n  tag_23\n  jump\t// in\ntag_22:\n    /* \"#utility.yul\":237:321   */\ntag_21:\n    /* \"#utility.yul\":58:327   */\n  pop\n    /* \"#utility.yul\":7:327   */\n  swap2\n  swap1\n  pop\n  jump\t// out\n    /* \"#utility.yul\":333:513   */\ntag_23:\n    /* \"#utility.yul\":381:458   */\n  0x4e487b7100000000000000000000000000000000000000000000000000000000\n    /* \"#utility.yul\":378:379   */\n  0x00\n    /* \"#utility.yul\":371:459   */\n  mstore\n    /* \"#utility.yul\":478:482   */\n  0x22\n    /* \"#utility.yul\":475:476   */\n  0x04\n    /* \"#utility.yul\":468:483   */\n  mstore\n    /* \"#utility.yul\":502:506   */\n  0x24\n    /* \"#utility.yul\":499:500   */\n  0x00\n    /* \"#utility.yul\":492:507   */\n  revert\n    /* \"extends.sol\":385:521  contract Man is Person('blue',30) {\r... */\ntag_6:\n  dataSize(sub_0)\n  dup1\n  dataOffset(sub_0)\n  0x00\n  codecopy\n  0x00\n  return\nstop\n\nsub_0: assembly {\n        /* \"extends.sol\":385:521  contract Man is Person('blue',30) {\r... */\n      mstore(0x40, 0x80)\n      callvalue\n      dup1\n      iszero\n      tag_1\n      jumpi\n      0x00\n      dup1\n      revert\n    tag_1:\n      pop\n      jumpi(tag_2, lt(calldatasize, 0x04))\n      shr(0xe0, calldataload(0x00))\n      dup1\n      0x5b0c8d70\n      eq\n      tag_3\n      jumpi\n      dup1\n      0xc27fc305\n      eq\n      tag_4\n      jumpi\n      dup1\n      0xd0020fad\n      eq\n      tag_5\n      jumpi\n    tag_2:\n      0x00\n      dup1\n      revert\n        /* \"extends.sol\":314:378  function setAge(uint8 _age) public {\r... */\n    tag_3:\n      tag_6\n      0x04\n      dup1\n      calldatasize\n      sub\n      dup2\n      add\n      swap1\n      tag_7\n      swap2\n      swap1\n      tag_8\n      jump\t// in\n    tag_7:\n      tag_9\n      jump\t// in\n    tag_6:\n      stop\n        /* \"extends.sol\":426:518  function f1() public view returns (string memory,uint8) {\r... */\n    tag_4:\n      tag_10\n      tag_11\n      jump\t// in\n    tag_10:\n      mload(0x40)\n      tag_12\n      swap3\n      swap2\n      swap1\n      tag_13\n      jump\t// in\n    tag_12:\n      mload(0x40)\n      dup1\n      swap2\n      sub\n      swap1\n      return\n        /* \"extends.sol\":226:302  function setUser(string memory _user) public {\r... */\n    tag_5:\n      tag_14\n      0x04\n      dup1\n      calldatasize\n      sub\n      dup2\n      add\n      swap1\n      tag_15\n      swap2\n      swap1\n      tag_16\n      jump\t// in\n    tag_15:\n      tag_17\n      jump\t// in\n    tag_14:\n      stop\n        /* \"extends.sol\":314:378  function setAge(uint8 _age) public {\r... */\n    tag_9:\n        /* \"extends.sol\":366:370  _age */\n      dup1\n        /* \"extends.sol\":360:363  age */\n      0x01\n      0x00\n        /* \"extends.sol\":360:370  age = _age */\n      0x0100\n      exp\n      dup2\n      sload\n      dup2\n      0xff\n      mul\n      not\n      and\n      swap1\n      dup4\n      0xff\n      and\n      mul\n      or\n      swap1\n      sstore\n      pop\n        /* \"extends.sol\":314:378  function setAge(uint8 _age) public {\r... */\n      pop\n      jump\t// out\n        /* \"extends.sol\":426:518  function f1() public view returns (string memory,uint8) {\r... */\n    tag_11:\n        /* \"extends.sol\":461:474  string memory */\n      0x60\n        /* \"extends.sol\":475:480  uint8 */\n      0x00\n        /* \"extends.sol\":501:505  user */\n      dup1\n        /* \"extends.sol\":506:509  age */\n      0x01\n      0x00\n      swap1\n      sload\n      swap1\n      0x0100\n      exp\n      swap1\n      div\n      0xff\n      and\n        /* \"extends.sol\":493:510  return (user,age) */\n      dup2\n      dup1\n      sload\n      tag_20\n      swap1\n      tag_21\n      jump\t// in\n    tag_20:\n      dup1\n      0x1f\n      add\n      0x20\n      dup1\n      swap2\n      div\n      mul\n      0x20\n      add\n      mload(0x40)\n      swap1\n      dup2\n      add\n      0x40\n      mstore\n      dup1\n      swap3\n      swap2\n      swap1\n      dup2\n      dup2\n      mstore\n      0x20\n      add\n      dup3\n      dup1\n      sload\n      tag_22\n      swap1\n      tag_21\n      jump\t// in\n    tag_22:\n      dup1\n      iszero\n      tag_23\n      jumpi\n      dup1\n      0x1f\n      lt\n      tag_24\n      jumpi\n      0x0100\n      dup1\n      dup4\n      sload\n      div\n      mul\n      dup4\n      mstore\n      swap2\n      0x20\n      add\n      swap2\n      jump(tag_23)\n    tag_24:\n      dup3\n      add\n      swap2\n      swap1\n      0x00\n      mstore\n      keccak256(0x00, 0x20)\n      swap1\n    tag_25:\n      dup2\n      sload\n      dup2\n      mstore\n      swap1\n      0x01\n      add\n      swap1\n      0x20\n      add\n      dup1\n      dup4\n      gt\n      tag_25\n      jumpi\n      dup3\n      swap1\n      sub\n      0x1f\n      and\n      dup3\n      add\n      swap2\n    tag_23:\n      pop\n      pop\n      pop\n      pop\n      pop\n      swap2\n      pop\n      swap2\n      pop\n      swap2\n      pop\n        /* \"extends.sol\":426:518  function f1() public view returns (string memory,uint8) {\r... */\n      swap1\n      swap2\n      jump\t// out\n        /* \"extends.sol\":226:302  function setUser(string memory _user) public {\r... */\n    tag_17:\n        /* \"extends.sol\":289:294  _user */\n      dup1\n        /* \"extends.sol\":282:286  user */\n      0x00\n        /* \"extends.sol\":282:294  user = _user */\n      swap1\n      dup1\n      mload\n      swap1\n      0x20\n      add\n      swap1\n      tag_27\n      swap3\n      swap2\n      swap1\n      tag_28\n      jump\t// in\n    tag_27:\n      pop\n        /* \"extends.sol\":226:302  function setUser(string memory _user) public {\r... */\n      pop\n      jump\t// out\n    tag_28:\n      dup3\n      dup1\n      sload\n      tag_29\n      swap1\n      tag_21\n      jump\t// in\n    tag_29:\n      swap1\n      0x00\n      mstore\n      keccak256(0x00, 0x20)\n      swap1\n      0x1f\n      add\n      0x20\n      swap1\n      div\n      dup2\n      add\n      swap3\n      dup3\n      tag_31\n      jumpi\n      0x00\n      dup6\n      sstore\n      jump(tag_30)\n    tag_31:\n      dup3\n      0x1f\n      lt\n      tag_32\n      jumpi\n      dup1\n      mload\n      not(0xff)\n      and\n      dup4\n      dup1\n      add\n      or\n      dup6\n      sstore\n      jump(tag_30)\n    tag_32:\n      dup3\n      dup1\n      add\n      0x01\n      add\n      dup6\n      sstore\n      dup3\n      iszero\n      tag_30\n      jumpi\n      swap2\n      dup3\n      add\n    tag_33:\n      dup3\n      dup2\n      gt\n      iszero\n      tag_34\n      jumpi\n      dup3\n      mload\n      dup3\n      sstore\n      swap2\n      0x20\n      add\n      swap2\n      swap1\n      0x01\n      add\n      swap1\n      jump(tag_33)\n    tag_34:\n    tag_30:\n      pop\n      swap1\n      pop\n      tag_35\n      swap2\n      swap1\n      tag_36\n      jump\t// in\n    tag_35:\n      pop\n      swap1\n      jump\t// out\n    tag_36:\n    tag_37:\n      dup1\n      dup3\n      gt\n      iszero\n      tag_38\n      jumpi\n      0x00\n      dup2\n      0x00\n      swap1\n      sstore\n      pop\n      0x01\n      add\n      jump(tag_37)\n    tag_38:\n      pop\n      swap1\n      jump\t// out\n        /* \"#utility.yul\":7:419   */\n    tag_40:\n        /* \"#utility.yul\":85:90   */\n      0x00\n        /* \"#utility.yul\":110:176   */\n      tag_42\n        /* \"#utility.yul\":126:175   */\n      tag_43\n        /* \"#utility.yul\":168:174   */\n      dup5\n        /* \"#utility.yul\":126:175   */\n      tag_44\n      jump\t// in\n    tag_43:\n        /* \"#utility.yul\":110:176   */\n      tag_45\n      jump\t// in\n    tag_42:\n        /* \"#utility.yul\":101:176   */\n      swap1\n      pop\n        /* \"#utility.yul\":199:205   */\n      dup3\n        /* \"#utility.yul\":192:197   */\n      dup2\n        /* \"#utility.yul\":185:206   */\n      mstore\n        /* \"#utility.yul\":237:241   */\n      0x20\n        /* \"#utility.yul\":230:235   */\n      dup2\n        /* \"#utility.yul\":226:242   */\n      add\n        /* \"#utility.yul\":275:278   */\n      dup5\n        /* \"#utility.yul\":266:272   */\n      dup5\n        /* \"#utility.yul\":261:264   */\n      dup5\n        /* \"#utility.yul\":257:273   */\n      add\n        /* \"#utility.yul\":254:279   */\n      gt\n        /* \"#utility.yul\":251:363   */\n      iszero\n      tag_46\n      jumpi\n        /* \"#utility.yul\":282:361   */\n      tag_47\n      tag_48\n      jump\t// in\n    tag_47:\n        /* \"#utility.yul\":251:363   */\n    tag_46:\n        /* \"#utility.yul\":372:413   */\n      tag_49\n        /* \"#utility.yul\":406:412   */\n      dup5\n        /* \"#utility.yul\":401:404   */\n      dup3\n        /* \"#utility.yul\":396:399   */\n      dup6\n        /* \"#utility.yul\":372:413   */\n      tag_50\n      jump\t// in\n    tag_49:\n        /* \"#utility.yul\":91:419   */\n      pop\n        /* \"#utility.yul\":7:419   */\n      swap4\n      swap3\n      pop\n      pop\n      pop\n      jump\t// out\n        /* \"#utility.yul\":439:779   */\n    tag_51:\n        /* \"#utility.yul\":495:500   */\n      0x00\n        /* \"#utility.yul\":544:547   */\n      dup3\n        /* \"#utility.yul\":537:541   */\n      0x1f\n        /* \"#utility.yul\":529:535   */\n      dup4\n        /* \"#utility.yul\":525:542   */\n      add\n        /* \"#utility.yul\":521:548   */\n      slt\n        /* \"#utility.yul\":511:633   */\n      tag_53\n      jumpi\n        /* \"#utility.yul\":552:631   */\n      tag_54\n      tag_55\n      jump\t// in\n    tag_54:\n        /* \"#utility.yul\":511:633   */\n    tag_53:\n        /* \"#utility.yul\":669:675   */\n      dup2\n        /* \"#utility.yul\":656:676   */\n      calldataload\n        /* \"#utility.yul\":694:773   */\n      tag_56\n        /* \"#utility.yul\":769:772   */\n      dup5\n        /* \"#utility.yul\":761:767   */\n      dup3\n        /* \"#utility.yul\":754:758   */\n      0x20\n        /* \"#utility.yul\":746:752   */\n      dup7\n        /* \"#utility.yul\":742:759   */\n      add\n        /* \"#utility.yul\":694:773   */\n      tag_40\n      jump\t// in\n    tag_56:\n        /* \"#utility.yul\":685:773   */\n      swap2\n      pop\n        /* \"#utility.yul\":501:779   */\n      pop\n        /* \"#utility.yul\":439:779   */\n      swap3\n      swap2\n      pop\n      pop\n      jump\t// out\n        /* \"#utility.yul\":785:920   */\n    tag_57:\n        /* \"#utility.yul\":829:834   */\n      0x00\n        /* \"#utility.yul\":867:873   */\n      dup2\n        /* \"#utility.yul\":854:874   */\n      calldataload\n        /* \"#utility.yul\":845:874   */\n      swap1\n      pop\n        /* \"#utility.yul\":883:914   */\n      tag_59\n        /* \"#utility.yul\":908:913   */\n      dup2\n        /* \"#utility.yul\":883:914   */\n      tag_60\n      jump\t// in\n    tag_59:\n        /* \"#utility.yul\":785:920   */\n      swap3\n      swap2\n      pop\n      pop\n      jump\t// out\n        /* \"#utility.yul\":926:1435   */\n    tag_16:\n        /* \"#utility.yul\":995:1001   */\n      0x00\n        /* \"#utility.yul\":1044:1046   */\n      0x20\n        /* \"#utility.yul\":1032:1041   */\n      dup3\n        /* \"#utility.yul\":1023:1030   */\n      dup5\n        /* \"#utility.yul\":1019:1042   */\n      sub\n        /* \"#utility.yul\":1015:1047   */\n      slt\n        /* \"#utility.yul\":1012:1131   */\n      iszero\n      tag_62\n      jumpi\n        /* \"#utility.yul\":1050:1129   */\n      tag_63\n      tag_64\n      jump\t// in\n    tag_63:\n        /* \"#utility.yul\":1012:1131   */\n    tag_62:\n        /* \"#utility.yul\":1198:1199   */\n      0x00\n        /* \"#utility.yul\":1187:1196   */\n      dup3\n        /* \"#utility.yul\":1183:1200   */\n      add\n        /* \"#utility.yul\":1170:1201   */\n      calldataload\n        /* \"#utility.yul\":1228:1246   */\n      0xffffffffffffffff\n        /* \"#utility.yul\":1220:1226   */\n      dup2\n        /* \"#utility.yul\":1217:1247   */\n      gt\n        /* \"#utility.yul\":1214:1331   */\n      iszero\n      tag_65\n      jumpi\n        /* \"#utility.yul\":1250:1329   */\n      tag_66\n      tag_67\n      jump\t// in\n    tag_66:\n        /* \"#utility.yul\":1214:1331   */\n    tag_65:\n        /* \"#utility.yul\":1355:1418   */\n      tag_68\n        /* \"#utility.yul\":1410:1417   */\n      dup5\n        /* \"#utility.yul\":1401:1407   */\n      dup3\n        /* \"#utility.yul\":1390:1399   */\n      dup6\n        /* \"#utility.yul\":1386:1408   */\n      add\n        /* \"#utility.yul\":1355:1418   */\n      tag_51\n      jump\t// in\n    tag_68:\n        /* \"#utility.yul\":1345:1418   */\n      swap2\n      pop\n        /* \"#utility.yul\":1141:1428   */\n      pop\n        /* \"#utility.yul\":926:1435   */\n      swap3\n      swap2\n      pop\n      pop\n      jump\t// out\n        /* \"#utility.yul\":1441:1766   */\n    tag_8:\n        /* \"#utility.yul\":1498:1504   */\n      0x00\n        /* \"#utility.yul\":1547:1549   */\n      0x20\n        /* \"#utility.yul\":1535:1544   */\n      dup3\n        /* \"#utility.yul\":1526:1533   */\n      dup5\n        /* \"#utility.yul\":1522:1545   */\n      sub\n        /* \"#utility.yul\":1518:1550   */\n      slt\n        /* \"#utility.yul\":1515:1634   */\n      iszero\n      tag_70\n      jumpi\n        /* \"#utility.yul\":1553:1632   */\n      tag_71\n      tag_64\n      jump\t// in\n    tag_71:\n        /* \"#utility.yul\":1515:1634   */\n    tag_70:\n        /* \"#utility.yul\":1673:1674   */\n      0x00\n        /* \"#utility.yul\":1698:1749   */\n      tag_72\n        /* \"#utility.yul\":1741:1748   */\n      dup5\n        /* \"#utility.yul\":1732:1738   */\n      dup3\n        /* \"#utility.yul\":1721:1730   */\n      dup6\n        /* \"#utility.yul\":1717:1739   */\n      add\n        /* \"#utility.yul\":1698:1749   */\n      tag_57\n      jump\t// in\n    tag_72:\n        /* \"#utility.yul\":1688:1749   */\n      swap2\n      pop\n        /* \"#utility.yul\":1644:1759   */\n      pop\n        /* \"#utility.yul\":1441:1766   */\n      swap3\n      swap2\n      pop\n      pop\n      jump\t// out\n        /* \"#utility.yul\":1772:2136   */\n    tag_73:\n        /* \"#utility.yul\":1860:1863   */\n      0x00\n        /* \"#utility.yul\":1888:1927   */\n      tag_75\n        /* \"#utility.yul\":1921:1926   */\n      dup3\n        /* \"#utility.yul\":1888:1927   */\n      tag_76\n      jump\t// in\n    tag_75:\n        /* \"#utility.yul\":1943:2014   */\n      tag_77\n        /* \"#utility.yul\":2007:2013   */\n      dup2\n        /* \"#utility.yul\":2002:2005   */\n      dup6\n        /* \"#utility.yul\":1943:2014   */\n      tag_78\n      jump\t// in\n    tag_77:\n        /* \"#utility.yul\":1936:2014   */\n      swap4\n      pop\n        /* \"#utility.yul\":2023:2075   */\n      tag_79\n        /* \"#utility.yul\":2068:2074   */\n      dup2\n        /* \"#utility.yul\":2063:2066   */\n      dup6\n        /* \"#utility.yul\":2056:2060   */\n      0x20\n        /* \"#utility.yul\":2049:2054   */\n      dup7\n        /* \"#utility.yul\":2045:2061   */\n      add\n        /* \"#utility.yul\":2023:2075   */\n      tag_80\n      jump\t// in\n    tag_79:\n        /* \"#utility.yul\":2100:2129   */\n      tag_81\n        /* \"#utility.yul\":2122:2128   */\n      dup2\n        /* \"#utility.yul\":2100:2129   */\n      tag_82\n      jump\t// in\n    tag_81:\n        /* \"#utility.yul\":2095:2098   */\n      dup5\n        /* \"#utility.yul\":2091:2130   */\n      add\n        /* \"#utility.yul\":2084:2130   */\n      swap2\n      pop\n        /* \"#utility.yul\":1864:2136   */\n      pop\n        /* \"#utility.yul\":1772:2136   */\n      swap3\n      swap2\n      pop\n      pop\n      jump\t// out\n        /* \"#utility.yul\":2142:2254   */\n    tag_83:\n        /* \"#utility.yul\":2225:2247   */\n      tag_85\n        /* \"#utility.yul\":2241:2246   */\n      dup2\n        /* \"#utility.yul\":2225:2247   */\n      tag_86\n      jump\t// in\n    tag_85:\n        /* \"#utility.yul\":2220:2223   */\n      dup3\n        /* \"#utility.yul\":2213:2248   */\n      mstore\n        /* \"#utility.yul\":2142:2254   */\n      pop\n      pop\n      jump\t// out\n        /* \"#utility.yul\":2260:2675   */\n    tag_13:\n        /* \"#utility.yul\":2397:2401   */\n      0x00\n        /* \"#utility.yul\":2435:2437   */\n      0x40\n        /* \"#utility.yul\":2424:2433   */\n      dup3\n        /* \"#utility.yul\":2420:2438   */\n      add\n        /* \"#utility.yul\":2412:2438   */\n      swap1\n      pop\n        /* \"#utility.yul\":2484:2493   */\n      dup2\n        /* \"#utility.yul\":2478:2482   */\n      dup2\n        /* \"#utility.yul\":2474:2494   */\n      sub\n        /* \"#utility.yul\":2470:2471   */\n      0x00\n        /* \"#utility.yul\":2459:2468   */\n      dup4\n        /* \"#utility.yul\":2455:2472   */\n      add\n        /* \"#utility.yul\":2448:2495   */\n      mstore\n        /* \"#utility.yul\":2512:2590   */\n      tag_88\n        /* \"#utility.yul\":2585:2589   */\n      dup2\n        /* \"#utility.yul\":2576:2582   */\n      dup6\n        /* \"#utility.yul\":2512:2590   */\n      tag_73\n      jump\t// in\n    tag_88:\n        /* \"#utility.yul\":2504:2590   */\n      swap1\n      pop\n        /* \"#utility.yul\":2600:2668   */\n      tag_89\n        /* \"#utility.yul\":2664:2666   */\n      0x20\n        /* \"#utility.yul\":2653:2662   */\n      dup4\n        /* \"#utility.yul\":2649:2667   */\n      add\n        /* \"#utility.yul\":2640:2646   */\n      dup5\n        /* \"#utility.yul\":2600:2668   */\n      tag_83\n      jump\t// in\n    tag_89:\n        /* \"#utility.yul\":2260:2675   */\n      swap4\n      swap3\n      pop\n      pop\n      pop\n      jump\t// out\n        /* \"#utility.yul\":2681:2810   */\n    tag_45:\n        /* \"#utility.yul\":2715:2721   */\n      0x00\n        /* \"#utility.yul\":2742:2762   */\n      tag_91\n      tag_92\n      jump\t// in\n    tag_91:\n        /* \"#utility.yul\":2732:2762   */\n      swap1\n      pop\n        /* \"#utility.yul\":2771:2804   */\n      tag_93\n        /* \"#utility.yul\":2799:2803   */\n      dup3\n        /* \"#utility.yul\":2791:2797   */\n      dup3\n        /* \"#utility.yul\":2771:2804   */\n      tag_94\n      jump\t// in\n    tag_93:\n        /* \"#utility.yul\":2681:2810   */\n      swap2\n      swap1\n      pop\n      jump\t// out\n        /* \"#utility.yul\":2816:2891   */\n    tag_92:\n        /* \"#utility.yul\":2849:2855   */\n      0x00\n        /* \"#utility.yul\":2882:2884   */\n      0x40\n        /* \"#utility.yul\":2876:2885   */\n      mload\n        /* \"#utility.yul\":2866:2885   */\n      swap1\n      pop\n        /* \"#utility.yul\":2816:2891   */\n      swap1\n      jump\t// out\n        /* \"#utility.yul\":2897:3205   */\n    tag_44:\n        /* \"#utility.yul\":2959:2963   */\n      0x00\n        /* \"#utility.yul\":3049:3067   */\n      0xffffffffffffffff\n        /* \"#utility.yul\":3041:3047   */\n      dup3\n        /* \"#utility.yul\":3038:3068   */\n      gt\n        /* \"#utility.yul\":3035:3091   */\n      iszero\n      tag_97\n      jumpi\n        /* \"#utility.yul\":3071:3089   */\n      tag_98\n      tag_99\n      jump\t// in\n    tag_98:\n        /* \"#utility.yul\":3035:3091   */\n    tag_97:\n        /* \"#utility.yul\":3109:3138   */\n      tag_100\n        /* \"#utility.yul\":3131:3137   */\n      dup3\n        /* \"#utility.yul\":3109:3138   */\n      tag_82\n      jump\t// in\n    tag_100:\n        /* \"#utility.yul\":3101:3138   */\n      swap1\n      pop\n        /* \"#utility.yul\":3193:3197   */\n      0x20\n        /* \"#utility.yul\":3187:3191   */\n      dup2\n        /* \"#utility.yul\":3183:3198   */\n      add\n        /* \"#utility.yul\":3175:3198   */\n      swap1\n      pop\n        /* \"#utility.yul\":2897:3205   */\n      swap2\n      swap1\n      pop\n      jump\t// out\n        /* \"#utility.yul\":3211:3310   */\n    tag_76:\n        /* \"#utility.yul\":3263:3269   */\n      0x00\n        /* \"#utility.yul\":3297:3302   */\n      dup2\n        /* \"#utility.yul\":3291:3303   */\n      mload\n        /* \"#utility.yul\":3281:3303   */\n      swap1\n      pop\n        /* \"#utility.yul\":3211:3310   */\n      swap2\n      swap1\n      pop\n      jump\t// out\n        /* \"#utility.yul\":3316:3485   */\n    tag_78:\n        /* \"#utility.yul\":3400:3411   */\n      0x00\n        /* \"#utility.yul\":3434:3440   */\n      dup3\n        /* \"#utility.yul\":3429:3432   */\n      dup3\n        /* \"#utility.yul\":3422:3441   */\n      mstore\n        /* \"#utility.yul\":3474:3478   */\n      0x20\n        /* \"#utility.yul\":3469:3472   */\n      dup3\n        /* \"#utility.yul\":3465:3479   */\n      add\n        /* \"#utility.yul\":3450:3479   */\n      swap1\n      pop\n        /* \"#utility.yul\":3316:3485   */\n      swap3\n      swap2\n      pop\n      pop\n      jump\t// out\n        /* \"#utility.yul\":3491:3577   */\n    tag_86:\n        /* \"#utility.yul\":3526:3533   */\n      0x00\n        /* \"#utility.yul\":3566:3570   */\n      0xff\n        /* \"#utility.yul\":3559:3564   */\n      dup3\n        /* \"#utility.yul\":3555:3571   */\n      and\n        /* \"#utility.yul\":3544:3571   */\n      swap1\n      pop\n        /* \"#utility.yul\":3491:3577   */\n      swap2\n      swap1\n      pop\n      jump\t// out\n        /* \"#utility.yul\":3583:3737   */\n    tag_50:\n        /* \"#utility.yul\":3667:3673   */\n      dup3\n        /* \"#utility.yul\":3662:3665   */\n      dup2\n        /* \"#utility.yul\":3657:3660   */\n      dup4\n        /* \"#utility.yul\":3644:3674   */\n      calldatacopy\n        /* \"#utility.yul\":3729:3730   */\n      0x00\n        /* \"#utility.yul\":3720:3726   */\n      dup4\n        /* \"#utility.yul\":3715:3718   */\n      dup4\n        /* \"#utility.yul\":3711:3727   */\n      add\n        /* \"#utility.yul\":3704:3731   */\n      mstore\n        /* \"#utility.yul\":3583:3737   */\n      pop\n      pop\n      pop\n      jump\t// out\n        /* \"#utility.yul\":3743:4050   */\n    tag_80:\n        /* \"#utility.yul\":3811:3812   */\n      0x00\n        /* \"#utility.yul\":3821:3934   */\n    tag_106:\n        /* \"#utility.yul\":3835:3841   */\n      dup4\n        /* \"#utility.yul\":3832:3833   */\n      dup2\n        /* \"#utility.yul\":3829:3842   */\n      lt\n        /* \"#utility.yul\":3821:3934   */\n      iszero\n      tag_108\n      jumpi\n        /* \"#utility.yul\":3920:3921   */\n      dup1\n        /* \"#utility.yul\":3915:3918   */\n      dup3\n        /* \"#utility.yul\":3911:3922   */\n      add\n        /* \"#utility.yul\":3905:3923   */\n      mload\n        /* \"#utility.yul\":3901:3902   */\n      dup2\n        /* \"#utility.yul\":3896:3899   */\n      dup5\n        /* \"#utility.yul\":3892:3903   */\n      add\n        /* \"#utility.yul\":3885:3924   */\n      mstore\n        /* \"#utility.yul\":3857:3859   */\n      0x20\n        /* \"#utility.yul\":3854:3855   */\n      dup2\n        /* \"#utility.yul\":3850:3860   */\n      add\n        /* \"#utility.yul\":3845:3860   */\n      swap1\n      pop\n        /* \"#utility.yul\":3821:3934   */\n      jump(tag_106)\n    tag_108:\n        /* \"#utility.yul\":3952:3958   */\n      dup4\n        /* \"#utility.yul\":3949:3950   */\n      dup2\n        /* \"#utility.yul\":3946:3959   */\n      gt\n        /* \"#utility.yul\":3943:4044   */\n      iszero\n      tag_109\n      jumpi\n        /* \"#utility.yul\":4032:4033   */\n      0x00\n        /* \"#utility.yul\":4023:4029   */\n      dup5\n        /* \"#utility.yul\":4018:4021   */\n      dup5\n        /* \"#utility.yul\":4014:4030   */\n      add\n        /* \"#utility.yul\":4007:4034   */\n      mstore\n        /* \"#utility.yul\":3943:4044   */\n    tag_109:\n        /* \"#utility.yul\":3792:4050   */\n      pop\n        /* \"#utility.yul\":3743:4050   */\n      pop\n      pop\n      pop\n      jump\t// out\n        /* \"#utility.yul\":4056:4376   */\n    tag_21:\n        /* \"#utility.yul\":4100:4106   */\n      0x00\n        /* \"#utility.yul\":4137:4138   */\n      0x02\n        /* \"#utility.yul\":4131:4135   */\n      dup3\n        /* \"#utility.yul\":4127:4139   */\n      div\n        /* \"#utility.yul\":4117:4139   */\n      swap1\n      pop\n        /* \"#utility.yul\":4184:4185   */\n      0x01\n        /* \"#utility.yul\":4178:4182   */\n      dup3\n        /* \"#utility.yul\":4174:4186   */\n      and\n        /* \"#utility.yul\":4205:4223   */\n      dup1\n        /* \"#utility.yul\":4195:4276   */\n      tag_111\n      jumpi\n        /* \"#utility.yul\":4261:4265   */\n      0x7f\n        /* \"#utility.yul\":4253:4259   */\n      dup3\n        /* \"#utility.yul\":4249:4266   */\n      and\n        /* \"#utility.yul\":4239:4266   */\n      swap2\n      pop\n        /* \"#utility.yul\":4195:4276   */\n    tag_111:\n        /* \"#utility.yul\":4323:4325   */\n      0x20\n        /* \"#utility.yul\":4315:4321   */\n      dup3\n        /* \"#utility.yul\":4312:4326   */\n      lt\n        /* \"#utility.yul\":4292:4310   */\n      dup2\n        /* \"#utility.yul\":4289:4327   */\n      eq\n        /* \"#utility.yul\":4286:4370   */\n      iszero\n      tag_112\n      jumpi\n        /* \"#utility.yul\":4342:4360   */\n      tag_113\n      tag_114\n      jump\t// in\n    tag_113:\n        /* \"#utility.yul\":4286:4370   */\n    tag_112:\n        /* \"#utility.yul\":4107:4376   */\n      pop\n        /* \"#utility.yul\":4056:4376   */\n      swap2\n      swap1\n      pop\n      jump\t// out\n        /* \"#utility.yul\":4382:4663   */\n    tag_94:\n        /* \"#utility.yul\":4465:4492   */\n      tag_116\n        /* \"#utility.yul\":4487:4491   */\n      dup3\n        /* \"#utility.yul\":4465:4492   */\n      tag_82\n      jump\t// in\n    tag_116:\n        /* \"#utility.yul\":4457:4463   */\n      dup2\n        /* \"#utility.yul\":4453:4493   */\n      add\n        /* \"#utility.yul\":4595:4601   */\n      dup2\n        /* \"#utility.yul\":4583:4593   */\n      dup2\n        /* \"#utility.yul\":4580:4602   */\n      lt\n        /* \"#utility.yul\":4559:4577   */\n      0xffffffffffffffff\n        /* \"#utility.yul\":4547:4557   */\n      dup3\n        /* \"#utility.yul\":4544:4578   */\n      gt\n        /* \"#utility.yul\":4541:4603   */\n      or\n        /* \"#utility.yul\":4538:4626   */\n      iszero\n      tag_117\n      jumpi\n        /* \"#utility.yul\":4606:4624   */\n      tag_118\n      tag_99\n      jump\t// in\n    tag_118:\n        /* \"#utility.yul\":4538:4626   */\n    tag_117:\n        /* \"#utility.yul\":4646:4656   */\n      dup1\n        /* \"#utility.yul\":4642:4644   */\n      0x40\n        /* \"#utility.yul\":4635:4657   */\n      mstore\n        /* \"#utility.yul\":4425:4663   */\n      pop\n        /* \"#utility.yul\":4382:4663   */\n      pop\n      pop\n      jump\t// out\n        /* \"#utility.yul\":4669:4849   */\n    tag_114:\n        /* \"#utility.yul\":4717:4794   */\n      0x4e487b7100000000000000000000000000000000000000000000000000000000\n        /* \"#utility.yul\":4714:4715   */\n      0x00\n        /* \"#utility.yul\":4707:4795   */\n      mstore\n        /* \"#utility.yul\":4814:4818   */\n      0x22\n        /* \"#utility.yul\":4811:4812   */\n      0x04\n        /* \"#utility.yul\":4804:4819   */\n      mstore\n        /* \"#utility.yul\":4838:4842   */\n      0x24\n        /* \"#utility.yul\":4835:4836   */\n      0x00\n        /* \"#utility.yul\":4828:4843   */\n      revert\n        /* \"#utility.yul\":4855:5035   */\n    tag_99:\n        /* \"#utility.yul\":4903:4980   */\n      0x4e487b7100000000000000000000000000000000000000000000000000000000\n        /* \"#utility.yul\":4900:4901   */\n      0x00\n        /* \"#utility.yul\":4893:4981   */\n      mstore\n        /* \"#utility.yul\":5000:5004   */\n      0x41\n        /* \"#utility.yul\":4997:4998   */\n      0x04\n        /* \"#utility.yul\":4990:5005   */\n      mstore\n        /* \"#utility.yul\":5024:5028   */\n      0x24\n        /* \"#utility.yul\":5021:5022   */\n      0x00\n        /* \"#utility.yul\":5014:5029   */\n      revert\n        /* \"#utility.yul\":5041:5158   */\n    tag_55:\n        /* \"#utility.yul\":5150:5151   */\n      0x00\n        /* \"#utility.yul\":5147:5148   */\n      dup1\n        /* \"#utility.yul\":5140:5152   */\n      revert\n        /* \"#utility.yul\":5164:5281   */\n    tag_48:\n        /* \"#utility.yul\":5273:5274   */\n      0x00\n        /* \"#utility.yul\":5270:5271   */\n      dup1\n        /* \"#utility.yul\":5263:5275   */\n      revert\n        /* \"#utility.yul\":5287:5404   */\n    tag_67:\n        /* \"#utility.yul\":5396:5397   */\n      0x00\n        /* \"#utility.yul\":5393:5394   */\n      dup1\n        /* \"#utility.yul\":5386:5398   */\n      revert\n        /* \"#utility.yul\":5410:5527   */\n    tag_64:\n        /* \"#utility.yul\":5519:5520   */\n      0x00\n        /* \"#utility.yul\":5516:5517   */\n      dup1\n        /* \"#utility.yul\":5509:5521   */\n      revert\n        /* \"#utility.yul\":5533:5635   */\n    tag_82:\n        /* \"#utility.yul\":5574:5580   */\n      0x00\n        /* \"#utility.yul\":5625:5627   */\n      0x1f\n        /* \"#utility.yul\":5621:5628   */\n      not\n        /* \"#utility.yul\":5616:5618   */\n      0x1f\n        /* \"#utility.yul\":5609:5614   */\n      dup4\n        /* \"#utility.yul\":5605:5619   */\n      add\n        /* \"#utility.yul\":5601:5629   */\n      and\n        /* \"#utility.yul\":5591:5629   */\n      swap1\n      pop\n        /* \"#utility.yul\":5533:5635   */\n      swap2\n      swap1\n      pop\n      jump\t// out\n        /* \"#utility.yul\":5641:5759   */\n    tag_60:\n        /* \"#utility.yul\":5712:5734   */\n      tag_127\n        /* \"#utility.yul\":5728:5733   */\n      dup2\n        /* \"#utility.yul\":5712:5734   */\n      tag_86\n      jump\t// in\n    tag_127:\n        /* \"#utility.yul\":5705:5710   */\n      dup2\n        /* \"#utility.yul\":5702:5735   */\n      eq\n        /* \"#utility.yul\":5692:5753   */\n      tag_128\n      jumpi\n        /* \"#utility.yul\":5749:5750   */\n      0x00\n        /* \"#utility.yul\":5746:5747   */\n      dup1\n        /* \"#utility.yul\":5739:5751   */\n      revert\n        /* \"#utility.yul\":5692:5753   */\n    tag_128:\n        /* \"#utility.yul\":5641:5759   */\n      pop\n      jump\t// out\n\n    auxdata: 0xa2646970667358221220c399fb50624d9746edbaba246edb9baa14250734cec78eea59df9dc77095e95764736f6c63430008070033\n}\n",
				"bytecode": {
					"linkReferences": {},
					"object": "608060405234801561001057600080fd5b506040518060400160405280600481526020017f626c756500000000000000000000000000000000000000000000000000000000815250601e816000908051906020019061005f929190610082565b5080600160006101000a81548160ff021916908360ff1602179055505050610186565b82805461008e90610125565b90600052602060002090601f0160209004810192826100b057600085556100f7565b82601f106100c957805160ff19168380011785556100f7565b828001600101855582156100f7579182015b828111156100f65782518255916020019190600101906100db565b5b5090506101049190610108565b5090565b5b80821115610121576000816000905550600101610109565b5090565b6000600282049050600182168061013d57607f821691505b6020821081141561015157610150610157565b5b50919050565b7f4e487b7100000000000000000000000000000000000000000000000000000000600052602260045260246000fd5b610588806101956000396000f3fe608060405234801561001057600080fd5b50600436106100415760003560e01c80635b0c8d7014610046578063c27fc30514610062578063d0020fad14610081575b600080fd5b610060600480360381019061005b91906102ef565b61009d565b005b61006a6100bb565b604051610078929190610364565b60405180910390f35b61009b600480360381019061009691906102a6565b610164565b005b80600160006101000a81548160ff021916908360ff16021790555050565b6060600080600160009054906101000a900460ff168180546100dc90610455565b80601f016020809104026020016040519081016040528092919081815260200182805461010890610455565b80156101555780601f1061012a57610100808354040283529160200191610155565b820191906000526020600020905b81548152906001019060200180831161013857829003601f168201915b50505050509150915091509091565b806000908051906020019061017a92919061017e565b5050565b82805461018a90610455565b90600052602060002090601f0160209004810192826101ac57600085556101f3565b82601f106101c557805160ff19168380011785556101f3565b828001600101855582156101f3579182015b828111156101f25782518255916020019190600101906101d7565b5b5090506102009190610204565b5090565b5b8082111561021d576000816000905550600101610205565b5090565b600061023461022f846103b9565b610394565b9050828152602081018484840111156102505761024f61051b565b5b61025b848285610413565b509392505050565b600082601f83011261027857610277610516565b5b8135610288848260208601610221565b91505092915050565b6000813590506102a08161053b565b92915050565b6000602082840312156102bc576102bb610525565b5b600082013567ffffffffffffffff8111156102da576102d9610520565b5b6102e684828501610263565b91505092915050565b60006020828403121561030557610304610525565b5b600061031384828501610291565b91505092915050565b6000610327826103ea565b61033181856103f5565b9350610341818560208601610422565b61034a8161052a565b840191505092915050565b61035e81610406565b82525050565b6000604082019050818103600083015261037e818561031c565b905061038d6020830184610355565b9392505050565b600061039e6103af565b90506103aa8282610487565b919050565b6000604051905090565b600067ffffffffffffffff8211156103d4576103d36104e7565b5b6103dd8261052a565b9050602081019050919050565b600081519050919050565b600082825260208201905092915050565b600060ff82169050919050565b82818337600083830152505050565b60005b83811015610440578082015181840152602081019050610425565b8381111561044f576000848401525b50505050565b6000600282049050600182168061046d57607f821691505b60208210811415610481576104806104b8565b5b50919050565b6104908261052a565b810181811067ffffffffffffffff821117156104af576104ae6104e7565b5b80604052505050565b7f4e487b7100000000000000000000000000000000000000000000000000000000600052602260045260246000fd5b7f4e487b7100000000000000000000000000000000000000000000000000000000600052604160045260246000fd5b600080fd5b600080fd5b600080fd5b600080fd5b6000601f19601f8301169050919050565b61054481610406565b811461054f57600080fd5b5056fea2646970667358221220c399fb50624d9746edbaba246edb9baa14250734cec78eea59df9dc77095e95764736f6c63430008070033",
					"opcodes": "PUSH1 0x80 PUSH1 0x40 MSTORE CALLVALUE DUP1 ISZERO PUSH2 0x10 JUMPI PUSH1 0x0 DUP1 REVERT JUMPDEST POP PUSH1 0x40 MLOAD DUP1 PUSH1 0x40 ADD PUSH1 0x40 MSTORE DUP1 PUSH1 0x4 DUP2 MSTORE PUSH1 0x20 ADD PUSH32 0x626C756500000000000000000000000000000000000000000000000000000000 DUP2 MSTORE POP PUSH1 0x1E DUP2 PUSH1 0x0 SWAP1 DUP1 MLOAD SWAP1 PUSH1 0x20 ADD SWAP1 PUSH2 0x5F SWAP3 SWAP2 SWAP1 PUSH2 0x82 JUMP JUMPDEST POP DUP1 PUSH1 0x1 PUSH1 0x0 PUSH2 0x100 EXP DUP2 SLOAD DUP2 PUSH1 0xFF MUL NOT AND SWAP1 DUP4 PUSH1 0xFF AND MUL OR SWAP1 SSTORE POP POP POP PUSH2 0x186 JUMP JUMPDEST DUP3 DUP1 SLOAD PUSH2 0x8E SWAP1 PUSH2 0x125 JUMP JUMPDEST SWAP1 PUSH1 0x0 MSTORE PUSH1 0x20 PUSH1 0x0 KECCAK256 SWAP1 PUSH1 0x1F ADD PUSH1 0x20 SWAP1 DIV DUP2 ADD SWAP3 DUP3 PUSH2 0xB0 JUMPI PUSH1 0x0 DUP6 SSTORE PUSH2 0xF7 JUMP JUMPDEST DUP3 PUSH1 0x1F LT PUSH2 0xC9 JUMPI DUP1 MLOAD PUSH1 0xFF NOT AND DUP4 DUP1 ADD OR DUP6 SSTORE PUSH2 0xF7 JUMP JUMPDEST DUP3 DUP1 ADD PUSH1 0x1 ADD DUP6 SSTORE DUP3 ISZERO PUSH2 0xF7 JUMPI SWAP2 DUP3 ADD JUMPDEST DUP3 DUP2 GT ISZERO PUSH2 0xF6 JUMPI DUP3 MLOAD DUP3 SSTORE SWAP2 PUSH1 0x20 ADD SWAP2 SWAP1 PUSH1 0x1 ADD SWAP1 PUSH2 0xDB JUMP JUMPDEST JUMPDEST POP SWAP1 POP PUSH2 0x104 SWAP2 SWAP1 PUSH2 0x108 JUMP JUMPDEST POP SWAP1 JUMP JUMPDEST JUMPDEST DUP1 DUP3 GT ISZERO PUSH2 0x121 JUMPI PUSH1 0x0 DUP2 PUSH1 0x0 SWAP1 SSTORE POP PUSH1 0x1 ADD PUSH2 0x109 JUMP JUMPDEST POP SWAP1 JUMP JUMPDEST PUSH1 0x0 PUSH1 0x2 DUP3 DIV SWAP1 POP PUSH1 0x1 DUP3 AND DUP1 PUSH2 0x13D JUMPI PUSH1 0x7F DUP3 AND SWAP2 POP JUMPDEST PUSH1 0x20 DUP3 LT DUP2 EQ ISZERO PUSH2 0x151 JUMPI PUSH2 0x150 PUSH2 0x157 JUMP JUMPDEST JUMPDEST POP SWAP2 SWAP1 POP JUMP JUMPDEST PUSH32 0x4E487B7100000000000000000000000000000000000000000000000000000000 PUSH1 0x0 MSTORE PUSH1 0x22 PUSH1 0x4 MSTORE PUSH1 0x24 PUSH1 0x0 REVERT JUMPDEST PUSH2 0x588 DUP1 PUSH2 0x195 PUSH1 0x0 CODECOPY PUSH1 0x0 RETURN INVALID PUSH1 0x80 PUSH1 0x40 MSTORE CALLVALUE DUP1 ISZERO PUSH2 0x10 JUMPI PUSH1 0x0 DUP1 REVERT JUMPDEST POP PUSH1 0x4 CALLDATASIZE LT PUSH2 0x41 JUMPI PUSH1 0x0 CALLDATALOAD PUSH1 0xE0 SHR DUP1 PUSH4 0x5B0C8D70 EQ PUSH2 0x46 JUMPI DUP1 PUSH4 0xC27FC305 EQ PUSH2 0x62 JUMPI DUP1 PUSH4 0xD0020FAD EQ PUSH2 0x81 JUMPI JUMPDEST PUSH1 0x0 DUP1 REVERT JUMPDEST PUSH2 0x60 PUSH1 0x4 DUP1 CALLDATASIZE SUB DUP2 ADD SWAP1 PUSH2 0x5B SWAP2 SWAP1 PUSH2 0x2EF JUMP JUMPDEST PUSH2 0x9D JUMP JUMPDEST STOP JUMPDEST PUSH2 0x6A PUSH2 0xBB JUMP JUMPDEST PUSH1 0x40 MLOAD PUSH2 0x78 SWAP3 SWAP2 SWAP1 PUSH2 0x364 JUMP JUMPDEST PUSH1 0x40 MLOAD DUP1 SWAP2 SUB SWAP1 RETURN JUMPDEST PUSH2 0x9B PUSH1 0x4 DUP1 CALLDATASIZE SUB DUP2 ADD SWAP1 PUSH2 0x96 SWAP2 SWAP1 PUSH2 0x2A6 JUMP JUMPDEST PUSH2 0x164 JUMP JUMPDEST STOP JUMPDEST DUP1 PUSH1 0x1 PUSH1 0x0 PUSH2 0x100 EXP DUP2 SLOAD DUP2 PUSH1 0xFF MUL NOT AND SWAP1 DUP4 PUSH1 0xFF AND MUL OR SWAP1 SSTORE POP POP JUMP JUMPDEST PUSH1 0x60 PUSH1 0x0 DUP1 PUSH1 0x1 PUSH1 0x0 SWAP1 SLOAD SWAP1 PUSH2 0x100 EXP SWAP1 DIV PUSH1 0xFF AND DUP2 DUP1 SLOAD PUSH2 0xDC SWAP1 PUSH2 0x455 JUMP JUMPDEST DUP1 PUSH1 0x1F ADD PUSH1 0x20 DUP1 SWAP2 DIV MUL PUSH1 0x20 ADD PUSH1 0x40 MLOAD SWAP1 DUP2 ADD PUSH1 0x40 MSTORE DUP1 SWAP3 SWAP2 SWAP1 DUP2 DUP2 MSTORE PUSH1 0x20 ADD DUP3 DUP1 SLOAD PUSH2 0x108 SWAP1 PUSH2 0x455 JUMP JUMPDEST DUP1 ISZERO PUSH2 0x155 JUMPI DUP1 PUSH1 0x1F LT PUSH2 0x12A JUMPI PUSH2 0x100 DUP1 DUP4 SLOAD DIV MUL DUP4 MSTORE SWAP2 PUSH1 0x20 ADD SWAP2 PUSH2 0x155 JUMP JUMPDEST DUP3 ADD SWAP2 SWAP1 PUSH1 0x0 MSTORE PUSH1 0x20 PUSH1 0x0 KECCAK256 SWAP1 JUMPDEST DUP2 SLOAD DUP2 MSTORE SWAP1 PUSH1 0x1 ADD SWAP1 PUSH1 0x20 ADD DUP1 DUP4 GT PUSH2 0x138 JUMPI DUP3 SWAP1 SUB PUSH1 0x1F AND DUP3 ADD SWAP2 JUMPDEST POP POP POP POP POP SWAP2 POP SWAP2 POP SWAP2 POP SWAP1 SWAP2 JUMP JUMPDEST DUP1 PUSH1 0x0 SWAP1 DUP1 MLOAD SWAP1 PUSH1 0x20 ADD SWAP1 PUSH2 0x17A SWAP3 SWAP2 SWAP1 PUSH2 0x17E JUMP JUMPDEST POP POP JUMP JUMPDEST DUP3 DUP1 SLOAD PUSH2 0x18A SWAP1 PUSH2 0x455 JUMP JUMPDEST SWAP1 PUSH1 0x0 MSTORE PUSH1 0x20 PUSH1 0x0 KECCAK256 SWAP1 PUSH1 0x1F ADD PUSH1 0x20 SWAP1 DIV DUP2 ADD SWAP3 DUP3 PUSH2 0x1AC JUMPI PUSH1 0x0 DUP6 SSTORE PUSH2 0x1F3 JUMP JUMPDEST DUP3 PUSH1 0x1F LT PUSH2 0x1C5 JUMPI DUP1 MLOAD PUSH1 0xFF NOT AND DUP4 DUP1 ADD OR DUP6 SSTORE PUSH2 0x1F3 JUMP JUMPDEST DUP3 DUP1 ADD PUSH1 0x1 ADD DUP6 SSTORE DUP3 ISZERO PUSH2 0x1F3 JUMPI SWAP2 DUP3 ADD JUMPDEST DUP3 DUP2 GT ISZERO PUSH2 0x1F2 JUMPI DUP3 MLOAD DUP3 SSTORE SWAP2 PUSH1 0x20 ADD SWAP2 SWAP1 PUSH1 0x1 ADD SWAP1 PUSH2 0x1D7 JUMP JUMPDEST JUMPDEST POP SWAP1 POP PUSH2 0x200 SWAP2 SWAP1 PUSH2 0x204 JUMP JUMPDEST POP SWAP1 JUMP JUMPDEST JUMPDEST DUP1 DUP3 GT ISZERO PUSH2 0x21D JUMPI PUSH1 0x0 DUP2 PUSH1 0x0 SWAP1 SSTORE POP PUSH1 0x1 ADD PUSH2 0x205 JUMP JUMPDEST POP SWAP1 JUMP JUMPDEST PUSH1 0x0 PUSH2 0x234 PUSH2 0x22F DUP5 PUSH2 0x3B9 JUMP JUMPDEST PUSH2 0x394 JUMP JUMPDEST SWAP1 POP DUP3 DUP2 MSTORE PUSH1 0x20 DUP2 ADD DUP5 DUP5 DUP5 ADD GT ISZERO PUSH2 0x250 JUMPI PUSH2 0x24F PUSH2 0x51B JUMP JUMPDEST JUMPDEST PUSH2 0x25B DUP5 DUP3 DUP6 PUSH2 0x413 JUMP JUMPDEST POP SWAP4 SWAP3 POP POP POP JUMP JUMPDEST PUSH1 0x0 DUP3 PUSH1 0x1F DUP4 ADD SLT PUSH2 0x278 JUMPI PUSH2 0x277 PUSH2 0x516 JUMP JUMPDEST JUMPDEST DUP2 CALLDATALOAD PUSH2 0x288 DUP5 DUP3 PUSH1 0x20 DUP7 ADD PUSH2 0x221 JUMP JUMPDEST SWAP2 POP POP SWAP3 SWAP2 POP POP JUMP JUMPDEST PUSH1 0x0 DUP2 CALLDATALOAD SWAP1 POP PUSH2 0x2A0 DUP2 PUSH2 0x53B JUMP JUMPDEST SWAP3 SWAP2 POP POP JUMP JUMPDEST PUSH1 0x0 PUSH1 0x20 DUP3 DUP5 SUB SLT ISZERO PUSH2 0x2BC JUMPI PUSH2 0x2BB PUSH2 0x525 JUMP JUMPDEST JUMPDEST PUSH1 0x0 DUP3 ADD CALLDATALOAD PUSH8 0xFFFFFFFFFFFFFFFF DUP2 GT ISZERO PUSH2 0x2DA JUMPI PUSH2 0x2D9 PUSH2 0x520 JUMP JUMPDEST JUMPDEST PUSH2 0x2E6 DUP5 DUP3 DUP6 ADD PUSH2 0x263 JUMP JUMPDEST SWAP2 POP POP SWAP3 SWAP2 POP POP JUMP JUMPDEST PUSH1 0x0 PUSH1 0x20 DUP3 DUP5 SUB SLT ISZERO PUSH2 0x305 JUMPI PUSH2 0x304 PUSH2 0x525 JUMP JUMPDEST JUMPDEST PUSH1 0x0 PUSH2 0x313 DUP5 DUP3 DUP6 ADD PUSH2 0x291 JUMP JUMPDEST SWAP2 POP POP SWAP3 SWAP2 POP POP JUMP JUMPDEST PUSH1 0x0 PUSH2 0x327 DUP3 PUSH2 0x3EA JUMP JUMPDEST PUSH2 0x331 DUP2 DUP6 PUSH2 0x3F5 JUMP JUMPDEST SWAP4 POP PUSH2 0x341 DUP2 DUP6 PUSH1 0x20 DUP7 ADD PUSH2 0x422 JUMP JUMPDEST PUSH2 0x34A DUP2 PUSH2 0x52A JUMP JUMPDEST DUP5 ADD SWAP2 POP POP SWAP3 SWAP2 POP POP JUMP JUMPDEST PUSH2 0x35E DUP2 PUSH2 0x406 JUMP JUMPDEST DUP3 MSTORE POP POP JUMP JUMPDEST PUSH1 0x0 PUSH1 0x40 DUP3 ADD SWAP1 POP DUP2 DUP2 SUB PUSH1 0x0 DUP4 ADD MSTORE PUSH2 0x37E DUP2 DUP6 PUSH2 0x31C JUMP JUMPDEST SWAP1 POP PUSH2 0x38D PUSH1 0x20 DUP4 ADD DUP5 PUSH2 0x355 JUMP JUMPDEST SWAP4 SWAP3 POP POP POP JUMP JUMPDEST PUSH1 0x0 PUSH2 0x39E PUSH2 0x3AF JUMP JUMPDEST SWAP1 POP PUSH2 0x3AA DUP3 DUP3 PUSH2 0x487 JUMP JUMPDEST SWAP2 SWAP1 POP JUMP JUMPDEST PUSH1 0x0 PUSH1 0x40 MLOAD SWAP1 POP SWAP1 JUMP JUMPDEST PUSH1 0x0 PUSH8 0xFFFFFFFFFFFFFFFF DUP3 GT ISZERO PUSH2 0x3D4 JUMPI PUSH2 0x3D3 PUSH2 0x4E7 JUMP JUMPDEST JUMPDEST PUSH2 0x3DD DUP3 PUSH2 0x52A JUMP JUMPDEST SWAP1 POP PUSH1 0x20 DUP2 ADD SWAP1 POP SWAP2 SWAP1 POP JUMP JUMPDEST PUSH1 0x0 DUP2 MLOAD SWAP1 POP SWAP2 SWAP1 POP JUMP JUMPDEST PUSH1 0x0 DUP3 DUP3 MSTORE PUSH1 0x20 DUP3 ADD SWAP1 POP SWAP3 SWAP2 POP POP JUMP JUMPDEST PUSH1 0x0 PUSH1 0xFF DUP3 AND SWAP1 POP SWAP2 SWAP1 POP JUMP JUMPDEST DUP3 DUP2 DUP4 CALLDATACOPY PUSH1 0x0 DUP4 DUP4 ADD MSTORE POP POP POP JUMP JUMPDEST PUSH1 0x0 JUMPDEST DUP4 DUP2 LT ISZERO PUSH2 0x440 JUMPI DUP1 DUP3 ADD MLOAD DUP2 DUP5 ADD MSTORE PUSH1 0x20 DUP2 ADD SWAP1 POP PUSH2 0x425 JUMP JUMPDEST DUP4 DUP2 GT ISZERO PUSH2 0x44F JUMPI PUSH1 0x0 DUP5 DUP5 ADD MSTORE JUMPDEST POP POP POP POP JUMP JUMPDEST PUSH1 0x0 PUSH1 0x2 DUP3 DIV SWAP1 POP PUSH1 0x1 DUP3 AND DUP1 PUSH2 0x46D JUMPI PUSH1 0x7F DUP3 AND SWAP2 POP JUMPDEST PUSH1 0x20 DUP3 LT DUP2 EQ ISZERO PUSH2 0x481 JUMPI PUSH2 0x480 PUSH2 0x4B8 JUMP JUMPDEST JUMPDEST POP SWAP2 SWAP1 POP JUMP JUMPDEST PUSH2 0x490 DUP3 PUSH2 0x52A JUMP JUMPDEST DUP2 ADD DUP2 DUP2 LT PUSH8 0xFFFFFFFFFFFFFFFF DUP3 GT OR ISZERO PUSH2 0x4AF JUMPI PUSH2 0x4AE PUSH2 0x4E7 JUMP JUMPDEST JUMPDEST DUP1 PUSH1 0x40 MSTORE POP POP POP JUMP JUMPDEST PUSH32 0x4E487B7100000000000000000000000000000000000000000000000000000000 PUSH1 0x0 MSTORE PUSH1 0x22 PUSH1 0x4 MSTORE PUSH1 0x24 PUSH1 0x0 REVERT JUMPDEST PUSH32 0x4E487B7100000000000000000000000000000000000000000000000000000000 PUSH1 0x0 MSTORE PUSH1 0x41 PUSH1 0x4 MSTORE PUSH1 0x24 PUSH1 0x0 REVERT JUMPDEST PUSH1 0x0 DUP1 REVERT JUMPDEST PUSH1 0x0 DUP1 REVERT JUMPDEST PUSH1 0x0 DUP1 REVERT JUMPDEST PUSH1 0x0 DUP1 REVERT JUMPDEST PUSH1 0x0 PUSH1 0x1F NOT PUSH1 0x1F DUP4 ADD AND SWAP1 POP SWAP2 SWAP1 POP JUMP JUMPDEST PUSH2 0x544 DUP2 PUSH2 0x406 JUMP JUMPDEST DUP2 EQ PUSH2 0x54F JUMPI PUSH1 0x0 DUP1 REVERT JUMPDEST POP JUMP INVALID LOG2 PUSH5 0x6970667358 0x22 SLT KECCAK256 0xC3 SWAP10 0xFB POP PUSH3 0x4D9746 0xED 0xBA 0xBA 0x24 PUSH15 0xDB9BAA14250734CEC78EEA59DF9DC7 PUSH17 0x95E95764736F6C63430008070033000000 "
				},
				"gasEstimates": {
					"creation": {
						"codeDepositCost": "283200",
						"executionCost": "infinite",
						"totalCost": "infinite"
					},
					"external": {
						"f1()": "infinite",
						"setAge(uint8)": "24657",
						"setUser(string)": "infinite"
					}
				},
				"methodIdentifiers": {
					"f1()": "c27fc305",
					"setAge(uint8)": "5b0c8d70",
					"setUser(string)": "d0020fad"
				}
			},
			"storageLayout": {
				"storage": [
					{
						"astId": 3,
						"contract": "extends.sol:Man",
						"label": "user",
						"offset": 0,
						"slot": "0",
						"type": "t_string_storage"
					},
					{
						"astId": 5,
						"contract": "extends.sol:Man",
						"label": "age",
						"offset": 0,
						"slot": "1",
						"type": "t_uint8"
					}
				],
				"types": {
					"t_string_storage": {
						"encoding": "bytes",
						"label": "string",
						"numberOfBytes": "32"
					},
					"t_uint8": {
						"encoding": "inplace",
						"label": "uint8",
						"numberOfBytes": "1"
					}
				}
			},
			"userdoc": {
				"kind": "user",
				"methods": {},
				"version": 1
			}
		}
	}
}