{
	"crowdfunding.sol": {
		"CrowdfundingContract": {
			"abi": [
				{
					"inputs": [
						{
							"internalType": "string",
							"name": "_title",
							"type": "string"
						},
						{
							"internalType": "address",
							"name": "_recipient",
							"type": "address"
						},
						{
							"internalType": "string",
							"name": "_expectAmout",
							"type": "string"
						}
					],
					"name": "createCrowdfunding",
					"outputs": [],
					"stateMutability": "nonpayable",
					"type": "function"
				},
				{
					"inputs": [
						{
							"internalType": "uint256",
							"name": "_status",
							"type": "uint256"
						}
					],
					"name": "getCrowdfundingByStatus",
					"outputs": [
						{
							"components": [
								{
									"internalType": "uint256",
									"name": "num",
									"type": "uint256"
								},
								{
									"internalType": "string",
									"name": "title",
									"type": "string"
								},
								{
									"internalType": "uint256",
									"name": "status",
									"type": "uint256"
								},
								{
									"internalType": "address",
									"name": "creator",
									"type": "address"
								},
								{
									"internalType": "address",
									"name": "recipient",
									"type": "address"
								},
								{
									"internalType": "uint256",
									"name": "joinNum",
									"type": "uint256"
								},
								{
									"internalType": "uint256",
									"name": "expectAmout",
									"type": "uint256"
								},
								{
									"internalType": "uint256",
									"name": "actualAmount",
									"type": "uint256"
								}
							],
							"internalType": "struct CrowdfundingContract.Crowdfunding[]",
							"name": "",
							"type": "tuple[]"
						}
					],
					"stateMutability": "view",
					"type": "function"
				},
				{
					"inputs": [
						{
							"internalType": "address",
							"name": "addr",
							"type": "address"
						}
					],
					"name": "getMyCrowdfunding",
					"outputs": [
						{
							"components": [
								{
									"internalType": "uint256",
									"name": "num",
									"type": "uint256"
								},
								{
									"internalType": "string",
									"name": "title",
									"type": "string"
								},
								{
									"internalType": "uint256",
									"name": "status",
									"type": "uint256"
								},
								{
									"internalType": "address",
									"name": "creator",
									"type": "address"
								},
								{
									"internalType": "address",
									"name": "recipient",
									"type": "address"
								},
								{
									"internalType": "uint256",
									"name": "joinNum",
									"type": "uint256"
								},
								{
									"internalType": "uint256",
									"name": "expectAmout",
									"type": "uint256"
								},
								{
									"internalType": "uint256",
									"name": "actualAmount",
									"type": "uint256"
								}
							],
							"internalType": "struct CrowdfundingContract.Crowdfunding[]",
							"name": "",
							"type": "tuple[]"
						}
					],
					"stateMutability": "view",
					"type": "function"
				},
				{
					"inputs": [
						{
							"internalType": "uint256",
							"name": "num",
							"type": "uint256"
						}
					],
					"name": "join",
					"outputs": [],
					"stateMutability": "nonpayable",
					"type": "function"
				},
				{
					"inputs": [
						{
							"internalType": "uint256",
							"name": "",
							"type": "uint256"
						}
					],
					"name": "list",
					"outputs": [
						{
							"internalType": "uint256",
							"name": "num",
							"type": "uint256"
						},
						{
							"internalType": "string",
							"name": "title",
							"type": "string"
						},
						{
							"internalType": "uint256",
							"name": "status",
							"type": "uint256"
						},
						{
							"internalType": "address",
							"name": "creator",
							"type": "address"
						},
						{
							"internalType": "address",
							"name": "recipient",
							"type": "address"
						},
						{
							"internalType": "uint256",
							"name": "joinNum",
							"type": "uint256"
						},
						{
							"internalType": "uint256",
							"name": "expectAmout",
							"type": "uint256"
						},
						{
							"internalType": "uint256",
							"name": "actualAmount",
							"type": "uint256"
						}
					],
					"stateMutability": "view",
					"type": "function"
				},
				{
					"inputs": [
						{
							"internalType": "uint256",
							"name": "num",
							"type": "uint256"
						}
					],
					"name": "setStatus",
					"outputs": [],
					"stateMutability": "nonpayable",
					"type": "function"
				},
				{
					"inputs": [
						{
							"internalType": "uint256",
							"name": "num",
							"type": "uint256"
						},
						{
							"internalType": "string",
							"name": "title",
							"type": "string"
						}
					],
					"name": "setTitle",
					"outputs": [],
					"stateMutability": "nonpayable",
					"type": "function"
				},
				{
					"inputs": [
						{
							"internalType": "string",
							"name": "s",
							"type": "string"
						}
					],
					"name": "stringToInt",
					"outputs": [
						{
							"internalType": "uint256",
							"name": "",
							"type": "uint256"
						}
					],
					"stateMutability": "pure",
					"type": "function"
				}
			],
			"devdoc": {
				"kind": "dev",
				"methods": {},
				"version": 1
			},
			"evm": {
				"assembly": "    /* \"crowdfunding.sol\":290:4114  contract CrowdfundingContract {\r... */\n  mstore(0x40, 0x80)\n  callvalue\n  dup1\n  iszero\n  tag_1\n  jumpi\n  0x00\n  dup1\n  revert\ntag_1:\n  pop\n  dataSize(sub_0)\n  dup1\n  dataOffset(sub_0)\n  0x00\n  codecopy\n  0x00\n  return\nstop\n\nsub_0: assembly {\n        /* \"crowdfunding.sol\":290:4114  contract CrowdfundingContract {\r... */\n      mstore(0x40, 0x80)\n      callvalue\n      dup1\n      iszero\n      tag_1\n      jumpi\n      0x00\n      dup1\n      revert\n    tag_1:\n      pop\n      jumpi(tag_2, lt(calldatasize, 0x04))\n      shr(0xe0, calldataload(0x00))\n      dup1\n      0x80c9419e\n      gt\n      tag_11\n      jumpi\n      dup1\n      0x80c9419e\n      eq\n      tag_7\n      jumpi\n      dup1\n      0x904cc175\n      eq\n      tag_8\n      jumpi\n      dup1\n      0xa97af4d5\n      eq\n      tag_9\n      jumpi\n      dup1\n      0xf8a02d84\n      eq\n      tag_10\n      jumpi\n      jump(tag_2)\n    tag_11:\n      dup1\n      0x049878f3\n      eq\n      tag_3\n      jumpi\n      dup1\n      0x377e6ff7\n      eq\n      tag_4\n      jumpi\n      dup1\n      0x5102bc9d\n      eq\n      tag_5\n      jumpi\n      dup1\n      0x69ba1a75\n      eq\n      tag_6\n      jumpi\n    tag_2:\n      0x00\n      dup1\n      revert\n        /* \"crowdfunding.sol\":3009:3695  function join(uint num) public {\r... */\n    tag_3:\n      tag_12\n      0x04\n      dup1\n      calldatasize\n      sub\n      dup2\n      add\n      swap1\n      tag_13\n      swap2\n      swap1\n      tag_14\n      jump\t// in\n    tag_13:\n      tag_15\n      jump\t// in\n    tag_12:\n      stop\n        /* \"crowdfunding.sol\":3980:4111  function getMyCrowdfunding(address addr) public view returns (Crowdfunding[] memory) {\r... */\n    tag_4:\n      tag_16\n      0x04\n      dup1\n      calldatasize\n      sub\n      dup2\n      add\n      swap1\n      tag_17\n      swap2\n      swap1\n      tag_18\n      jump\t// in\n    tag_17:\n      tag_19\n      jump\t// in\n    tag_16:\n      mload(0x40)\n      tag_20\n      swap2\n      swap1\n      tag_21\n      jump\t// in\n    tag_20:\n      mload(0x40)\n      dup1\n      swap2\n      sub\n      swap1\n      return\n        /* \"crowdfunding.sol\":2850:2949  function setTitle(uint num,string memory title) public {\r... */\n    tag_5:\n      tag_22\n      0x04\n      dup1\n      calldatasize\n      sub\n      dup2\n      add\n      swap1\n      tag_23\n      swap2\n      swap1\n      tag_24\n      jump\t// in\n    tag_23:\n      tag_25\n      jump\t// in\n    tag_22:\n      stop\n        /* \"crowdfunding.sol\":2175:2767  function setStatus(uint num) public {\r... */\n    tag_6:\n      tag_26\n      0x04\n      dup1\n      calldatasize\n      sub\n      dup2\n      add\n      swap1\n      tag_27\n      swap2\n      swap1\n      tag_14\n      jump\t// in\n    tag_27:\n      tag_28\n      jump\t// in\n    tag_26:\n      stop\n        /* \"crowdfunding.sol\":809:835  Crowdfunding[] public list */\n    tag_7:\n      tag_29\n      0x04\n      dup1\n      calldatasize\n      sub\n      dup2\n      add\n      swap1\n      tag_30\n      swap2\n      swap1\n      tag_14\n      jump\t// in\n    tag_30:\n      tag_31\n      jump\t// in\n    tag_29:\n      mload(0x40)\n      tag_32\n      swap9\n      swap8\n      swap7\n      swap6\n      swap5\n      swap4\n      swap3\n      swap2\n      swap1\n      tag_33\n      jump\t// in\n    tag_32:\n      mload(0x40)\n      dup1\n      swap2\n      sub\n      swap1\n      return\n        /* \"crowdfunding.sol\":3747:3930  function getCrowdfundingByStatus(uint _status) public view returns (Crowdfunding[] memory) {\r... */\n    tag_8:\n      tag_34\n      0x04\n      dup1\n      calldatasize\n      sub\n      dup2\n      add\n      swap1\n      tag_35\n      swap2\n      swap1\n      tag_14\n      jump\t// in\n    tag_35:\n      tag_36\n      jump\t// in\n    tag_34:\n      mload(0x40)\n      tag_37\n      swap2\n      swap1\n      tag_21\n      jump\t// in\n    tag_37:\n      mload(0x40)\n      dup1\n      swap2\n      sub\n      swap1\n      return\n        /* \"crowdfunding.sol\":1469:2096  function createCrowdfunding(string memory _title,address _recipient, string memory _expectAmout) public {\r... */\n    tag_9:\n      tag_38\n      0x04\n      dup1\n      calldatasize\n      sub\n      dup2\n      add\n      swap1\n      tag_39\n      swap2\n      swap1\n      tag_40\n      jump\t// in\n    tag_39:\n      tag_41\n      jump\t// in\n    tag_38:\n      stop\n        /* \"crowdfunding.sol\":1091:1461  function stringToInt(string memory s) public pure returns (uint){\r... */\n    tag_10:\n      tag_42\n      0x04\n      dup1\n      calldatasize\n      sub\n      dup2\n      add\n      swap1\n      tag_43\n      swap2\n      swap1\n      tag_44\n      jump\t// in\n    tag_43:\n      tag_45\n      jump\t// in\n    tag_42:\n      mload(0x40)\n      tag_46\n      swap2\n      swap1\n      tag_47\n      jump\t// in\n    tag_46:\n      mload(0x40)\n      dup1\n      swap2\n      sub\n      swap1\n      return\n        /* \"crowdfunding.sol\":3009:3695  function join(uint num) public {\r... */\n    tag_15:\n        /* \"crowdfunding.sol\":3686:3687  1 */\n      0x01\n        /* \"crowdfunding.sol\":3663:3667  list */\n      dup1\n        /* \"crowdfunding.sol\":3672:3673  1 */\n      0x01\n        /* \"crowdfunding.sol\":3668:3671  num */\n      dup4\n        /* \"crowdfunding.sol\":3668:3673  num-1 */\n      tag_49\n      swap2\n      swap1\n      tag_50\n      jump\t// in\n    tag_49:\n        /* \"crowdfunding.sol\":3663:3674  list[num-1] */\n      dup2\n      sload\n      dup2\n      lt\n      tag_51\n      jumpi\n      tag_52\n      tag_53\n      jump\t// in\n    tag_52:\n    tag_51:\n      swap1\n      0x00\n      mstore\n      keccak256(0x00, 0x20)\n      swap1\n      0x08\n      mul\n      add\n        /* \"crowdfunding.sol\":3663:3682  list[num-1].joinNum */\n      0x05\n      add\n      0x00\n        /* \"crowdfunding.sol\":3663:3687  list[num-1].joinNum += 1 */\n      dup3\n      dup3\n      sload\n      tag_55\n      swap2\n      swap1\n      tag_56\n      jump\t// in\n    tag_55:\n      swap3\n      pop\n      pop\n      dup2\n      swap1\n      sstore\n      pop\n        /* \"crowdfunding.sol\":3009:3695  function join(uint num) public {\r... */\n      pop\n      jump\t// out\n        /* \"crowdfunding.sol\":3980:4111  function getMyCrowdfunding(address addr) public view returns (Crowdfunding[] memory) {\r... */\n    tag_19:\n        /* \"crowdfunding.sol\":4042:4063  Crowdfunding[] memory */\n      0x60\n        /* \"crowdfunding.sol\":4083:4097  myCrowdfunding */\n      0x03\n        /* \"crowdfunding.sol\":4083:4103  myCrowdfunding[addr] */\n      0x00\n        /* \"crowdfunding.sol\":4098:4102  addr */\n      dup4\n        /* \"crowdfunding.sol\":4083:4103  myCrowdfunding[addr] */\n      0xffffffffffffffffffffffffffffffffffffffff\n      and\n      0xffffffffffffffffffffffffffffffffffffffff\n      and\n      dup2\n      mstore\n      0x20\n      add\n      swap1\n      dup2\n      mstore\n      0x20\n      add\n      0x00\n      keccak256\n        /* \"crowdfunding.sol\":4076:4103  return myCrowdfunding[addr] */\n      dup1\n      sload\n      dup1\n      0x20\n      mul\n      0x20\n      add\n      mload(0x40)\n      swap1\n      dup2\n      add\n      0x40\n      mstore\n      dup1\n      swap3\n      swap2\n      swap1\n      dup2\n      dup2\n      mstore\n      0x20\n      add\n      0x00\n      swap1\n    tag_58:\n      dup3\n      dup3\n      lt\n      iszero\n      tag_59\n      jumpi\n      dup4\n      dup3\n      swap1\n      0x00\n      mstore\n      keccak256(0x00, 0x20)\n      swap1\n      0x08\n      mul\n      add\n      mload(0x40)\n      dup1\n      0x0100\n      add\n      0x40\n      mstore\n      swap1\n      dup2\n      0x00\n      dup3\n      add\n      sload\n      dup2\n      mstore\n      0x20\n      add\n      0x01\n      dup3\n      add\n      dup1\n      sload\n      tag_61\n      swap1\n      tag_62\n      jump\t// in\n    tag_61:\n      dup1\n      0x1f\n      add\n      0x20\n      dup1\n      swap2\n      div\n      mul\n      0x20\n      add\n      mload(0x40)\n      swap1\n      dup2\n      add\n      0x40\n      mstore\n      dup1\n      swap3\n      swap2\n      swap1\n      dup2\n      dup2\n      mstore\n      0x20\n      add\n      dup3\n      dup1\n      sload\n      tag_63\n      swap1\n      tag_62\n      jump\t// in\n    tag_63:\n      dup1\n      iszero\n      tag_64\n      jumpi\n      dup1\n      0x1f\n      lt\n      tag_65\n      jumpi\n      0x0100\n      dup1\n      dup4\n      sload\n      div\n      mul\n      dup4\n      mstore\n      swap2\n      0x20\n      add\n      swap2\n      jump(tag_64)\n    tag_65:\n      dup3\n      add\n      swap2\n      swap1\n      0x00\n      mstore\n      keccak256(0x00, 0x20)\n      swap1\n    tag_66:\n      dup2\n      sload\n      dup2\n      mstore\n      swap1\n      0x01\n      add\n      swap1\n      0x20\n      add\n      dup1\n      dup4\n      gt\n      tag_66\n      jumpi\n      dup3\n      swap1\n      sub\n      0x1f\n      and\n      dup3\n      add\n      swap2\n    tag_64:\n      pop\n      pop\n      pop\n      pop\n      pop\n      dup2\n      mstore\n      0x20\n      add\n      0x02\n      dup3\n      add\n      sload\n      dup2\n      mstore\n      0x20\n      add\n      0x03\n      dup3\n      add\n      0x00\n      swap1\n      sload\n      swap1\n      0x0100\n      exp\n      swap1\n      div\n      0xffffffffffffffffffffffffffffffffffffffff\n      and\n      0xffffffffffffffffffffffffffffffffffffffff\n      and\n      0xffffffffffffffffffffffffffffffffffffffff\n      and\n      dup2\n      mstore\n      0x20\n      add\n      0x04\n      dup3\n      add\n      0x00\n      swap1\n      sload\n      swap1\n      0x0100\n      exp\n      swap1\n      div\n      0xffffffffffffffffffffffffffffffffffffffff\n      and\n      0xffffffffffffffffffffffffffffffffffffffff\n      and\n      0xffffffffffffffffffffffffffffffffffffffff\n      and\n      dup2\n      mstore\n      0x20\n      add\n      0x05\n      dup3\n      add\n      sload\n      dup2\n      mstore\n      0x20\n      add\n      0x06\n      dup3\n      add\n      sload\n      dup2\n      mstore\n      0x20\n      add\n      0x07\n      dup3\n      add\n      sload\n      dup2\n      mstore\n      pop\n      pop\n      dup2\n      mstore\n      0x20\n      add\n      swap1\n      0x01\n      add\n      swap1\n      jump(tag_58)\n    tag_59:\n      pop\n      pop\n      pop\n      pop\n      swap1\n      pop\n        /* \"crowdfunding.sol\":3980:4111  function getMyCrowdfunding(address addr) public view returns (Crowdfunding[] memory) {\r... */\n      swap2\n      swap1\n      pop\n      jump\t// out\n        /* \"crowdfunding.sol\":2850:2949  function setTitle(uint num,string memory title) public {\r... */\n    tag_25:\n        /* \"crowdfunding.sol\":2936:2941  title */\n      dup1\n        /* \"crowdfunding.sol\":2916:2920  list */\n      0x01\n        /* \"crowdfunding.sol\":2925:2926  1 */\n      dup1\n        /* \"crowdfunding.sol\":2921:2924  num */\n      dup5\n        /* \"crowdfunding.sol\":2921:2926  num-1 */\n      tag_68\n      swap2\n      swap1\n      tag_50\n      jump\t// in\n    tag_68:\n        /* \"crowdfunding.sol\":2916:2927  list[num-1] */\n      dup2\n      sload\n      dup2\n      lt\n      tag_69\n      jumpi\n      tag_70\n      tag_53\n      jump\t// in\n    tag_70:\n    tag_69:\n      swap1\n      0x00\n      mstore\n      keccak256(0x00, 0x20)\n      swap1\n      0x08\n      mul\n      add\n        /* \"crowdfunding.sol\":2916:2933  list[num-1].title */\n      0x01\n      add\n        /* \"crowdfunding.sol\":2916:2941  list[num-1].title = title */\n      swap1\n      dup1\n      mload\n      swap1\n      0x20\n      add\n      swap1\n      tag_72\n      swap3\n      swap2\n      swap1\n      tag_73\n      jump\t// in\n    tag_72:\n      pop\n        /* \"crowdfunding.sol\":2850:2949  function setTitle(uint num,string memory title) public {\r... */\n      pop\n      pop\n      jump\t// out\n        /* \"crowdfunding.sol\":2175:2767  function setStatus(uint num) public {\r... */\n    tag_28:\n        /* \"crowdfunding.sol\":2243:2244  3 */\n      0x03\n        /* \"crowdfunding.sol\":2222:2226  list */\n      0x01\n        /* \"crowdfunding.sol\":2231:2232  1 */\n      dup1\n        /* \"crowdfunding.sol\":2227:2230  num */\n      dup4\n        /* \"crowdfunding.sol\":2227:2232  num-1 */\n      tag_75\n      swap2\n      swap1\n      tag_50\n      jump\t// in\n    tag_75:\n        /* \"crowdfunding.sol\":2222:2233  list[num-1] */\n      dup2\n      sload\n      dup2\n      lt\n      tag_76\n      jumpi\n      tag_77\n      tag_53\n      jump\t// in\n    tag_77:\n    tag_76:\n      swap1\n      0x00\n      mstore\n      keccak256(0x00, 0x20)\n      swap1\n      0x08\n      mul\n      add\n        /* \"crowdfunding.sol\":2222:2240  list[num-1].status */\n      0x02\n      add\n        /* \"crowdfunding.sol\":2222:2244  list[num-1].status = 3 */\n      dup2\n      swap1\n      sstore\n      pop\n        /* \"crowdfunding.sol\":2353:2354  1 */\n      0x01\n        /* \"crowdfunding.sol\":2321:2339  filterDataByStatus */\n      0x02\n        /* \"crowdfunding.sol\":2321:2342  filterDataByStatus[1] */\n      0x00\n        /* \"crowdfunding.sol\":2340:2341  1 */\n      0x01\n        /* \"crowdfunding.sol\":2321:2342  filterDataByStatus[1] */\n      dup2\n      mstore\n      0x20\n      add\n      swap1\n      dup2\n      mstore\n      0x20\n      add\n      0x00\n      keccak256\n        /* \"crowdfunding.sol\":2321:2349  filterDataByStatus[1].length */\n      dup1\n      sload\n      swap1\n      pop\n        /* \"crowdfunding.sol\":2321:2354  filterDataByStatus[1].length == 1 */\n      eq\n        /* \"crowdfunding.sol\":2318:2710  if(filterDataByStatus[1].length == 1){\r... */\n      iszero\n      tag_79\n      jumpi\n        /* \"crowdfunding.sol\":2370:2388  filterDataByStatus */\n      0x02\n        /* \"crowdfunding.sol\":2370:2391  filterDataByStatus[1] */\n      0x00\n        /* \"crowdfunding.sol\":2389:2390  1 */\n      0x01\n        /* \"crowdfunding.sol\":2370:2391  filterDataByStatus[1] */\n      dup2\n      mstore\n      0x20\n      add\n      swap1\n      dup2\n      mstore\n      0x20\n      add\n      0x00\n      keccak256\n        /* \"crowdfunding.sol\":2370:2397  filterDataByStatus[1].pop() */\n      dup1\n      sload\n      dup1\n      tag_80\n      jumpi\n      tag_81\n      tag_82\n      jump\t// in\n    tag_81:\n    tag_80:\n      0x01\n      swap1\n      sub\n      dup2\n      dup2\n      swap1\n      0x00\n      mstore\n      keccak256(0x00, 0x20)\n      swap1\n      0x08\n      mul\n      add\n      0x00\n      dup1\n      dup3\n      add\n      0x00\n      swap1\n      sstore\n      0x01\n      dup3\n      add\n      0x00\n      tag_84\n      swap2\n      swap1\n      tag_85\n      jump\t// in\n    tag_84:\n      0x02\n      dup3\n      add\n      0x00\n      swap1\n      sstore\n      0x03\n      dup3\n      add\n      exp(0x0100, 0x00)\n      dup2\n      sload\n      swap1\n      0xffffffffffffffffffffffffffffffffffffffff\n      mul\n      not\n      and\n      swap1\n      sstore\n      0x04\n      dup3\n      add\n      exp(0x0100, 0x00)\n      dup2\n      sload\n      swap1\n      0xffffffffffffffffffffffffffffffffffffffff\n      mul\n      not\n      and\n      swap1\n      sstore\n      0x05\n      dup3\n      add\n      0x00\n      swap1\n      sstore\n      0x06\n      dup3\n      add\n      0x00\n      swap1\n      sstore\n      0x07\n      dup3\n      add\n      0x00\n      swap1\n      sstore\n      pop\n      pop\n      swap1\n      sstore\n        /* \"crowdfunding.sol\":2318:2710  if(filterDataByStatus[1].length == 1){\r... */\n      jump(tag_86)\n    tag_79:\n        /* \"crowdfunding.sol\":2432:2438  uint i */\n      0x00\n        /* \"crowdfunding.sol\":2428:2657  for(uint i = 0; i < filterDataByStatus[1].length - 1; i++) {\r... */\n    tag_87:\n        /* \"crowdfunding.sol\":2479:2480  1 */\n      0x01\n        /* \"crowdfunding.sol\":2448:2466  filterDataByStatus */\n      0x02\n        /* \"crowdfunding.sol\":2448:2469  filterDataByStatus[1] */\n      0x00\n        /* \"crowdfunding.sol\":2467:2468  1 */\n      0x01\n        /* \"crowdfunding.sol\":2448:2469  filterDataByStatus[1] */\n      dup2\n      mstore\n      0x20\n      add\n      swap1\n      dup2\n      mstore\n      0x20\n      add\n      0x00\n      keccak256\n        /* \"crowdfunding.sol\":2448:2476  filterDataByStatus[1].length */\n      dup1\n      sload\n      swap1\n      pop\n        /* \"crowdfunding.sol\":2448:2480  filterDataByStatus[1].length - 1 */\n      tag_90\n      swap2\n      swap1\n      tag_50\n      jump\t// in\n    tag_90:\n        /* \"crowdfunding.sol\":2444:2445  i */\n      dup2\n        /* \"crowdfunding.sol\":2444:2480  i < filterDataByStatus[1].length - 1 */\n      lt\n        /* \"crowdfunding.sol\":2428:2657  for(uint i = 0; i < filterDataByStatus[1].length - 1; i++) {\r... */\n      iszero\n      tag_88\n      jumpi\n        /* \"crowdfunding.sol\":2541:2544  num */\n      dup2\n        /* \"crowdfunding.sol\":2509:2527  filterDataByStatus */\n      0x02\n        /* \"crowdfunding.sol\":2509:2530  filterDataByStatus[1] */\n      0x00\n        /* \"crowdfunding.sol\":2528:2529  1 */\n      0x01\n        /* \"crowdfunding.sol\":2509:2530  filterDataByStatus[1] */\n      dup2\n      mstore\n      0x20\n      add\n      swap1\n      dup2\n      mstore\n      0x20\n      add\n      0x00\n      keccak256\n        /* \"crowdfunding.sol\":2531:2532  i */\n      dup3\n        /* \"crowdfunding.sol\":2509:2533  filterDataByStatus[1][i] */\n      dup2\n      sload\n      dup2\n      lt\n      tag_91\n      jumpi\n      tag_92\n      tag_53\n      jump\t// in\n    tag_92:\n    tag_91:\n      swap1\n      0x00\n      mstore\n      keccak256(0x00, 0x20)\n      swap1\n      0x08\n      mul\n      add\n        /* \"crowdfunding.sol\":2509:2537  filterDataByStatus[1][i].num */\n      0x00\n      add\n      sload\n        /* \"crowdfunding.sol\":2509:2544  filterDataByStatus[1][i].num == num */\n      eq\n        /* \"crowdfunding.sol\":2506:2642  if(filterDataByStatus[1][i].num == num) {\r... */\n      iszero\n      tag_94\n      jumpi\n        /* \"crowdfunding.sol\":2596:2614  filterDataByStatus */\n      0x02\n        /* \"crowdfunding.sol\":2596:2617  filterDataByStatus[1] */\n      0x00\n        /* \"crowdfunding.sol\":2615:2616  1 */\n      0x01\n        /* \"crowdfunding.sol\":2596:2617  filterDataByStatus[1] */\n      dup2\n      mstore\n      0x20\n      add\n      swap1\n      dup2\n      mstore\n      0x20\n      add\n      0x00\n      keccak256\n        /* \"crowdfunding.sol\":2620:2621  1 */\n      0x01\n        /* \"crowdfunding.sol\":2618:2619  i */\n      dup3\n        /* \"crowdfunding.sol\":2618:2621  i+1 */\n      tag_95\n      swap2\n      swap1\n      tag_56\n      jump\t// in\n    tag_95:\n        /* \"crowdfunding.sol\":2596:2622  filterDataByStatus[1][i+1] */\n      dup2\n      sload\n      dup2\n      lt\n      tag_96\n      jumpi\n      tag_97\n      tag_53\n      jump\t// in\n    tag_97:\n    tag_96:\n      swap1\n      0x00\n      mstore\n      keccak256(0x00, 0x20)\n      swap1\n      0x08\n      mul\n      add\n        /* \"crowdfunding.sol\":2569:2587  filterDataByStatus */\n      0x02\n        /* \"crowdfunding.sol\":2569:2590  filterDataByStatus[1] */\n      0x00\n        /* \"crowdfunding.sol\":2588:2589  1 */\n      0x01\n        /* \"crowdfunding.sol\":2569:2590  filterDataByStatus[1] */\n      dup2\n      mstore\n      0x20\n      add\n      swap1\n      dup2\n      mstore\n      0x20\n      add\n      0x00\n      keccak256\n        /* \"crowdfunding.sol\":2591:2592  i */\n      dup3\n        /* \"crowdfunding.sol\":2569:2593  filterDataByStatus[1][i] */\n      dup2\n      sload\n      dup2\n      lt\n      tag_99\n      jumpi\n      tag_100\n      tag_53\n      jump\t// in\n    tag_100:\n    tag_99:\n      swap1\n      0x00\n      mstore\n      keccak256(0x00, 0x20)\n      swap1\n      0x08\n      mul\n      add\n        /* \"crowdfunding.sol\":2569:2622  filterDataByStatus[1][i] = filterDataByStatus[1][i+1] */\n      0x00\n      dup3\n      add\n      sload\n      dup2\n      0x00\n      add\n      sstore\n      0x01\n      dup3\n      add\n      dup2\n      0x01\n      add\n      swap1\n      dup1\n      sload\n      tag_102\n      swap1\n      tag_62\n      jump\t// in\n    tag_102:\n      tag_103\n      swap3\n      swap2\n      swap1\n      tag_104\n      jump\t// in\n    tag_103:\n      pop\n      0x02\n      dup3\n      add\n      sload\n      dup2\n      0x02\n      add\n      sstore\n      0x03\n      dup3\n      add\n      0x00\n      swap1\n      sload\n      swap1\n      0x0100\n      exp\n      swap1\n      div\n      0xffffffffffffffffffffffffffffffffffffffff\n      and\n      dup2\n      0x03\n      add\n      exp(0x0100, 0x00)\n      dup2\n      sload\n      dup2\n      0xffffffffffffffffffffffffffffffffffffffff\n      mul\n      not\n      and\n      swap1\n      dup4\n      0xffffffffffffffffffffffffffffffffffffffff\n      and\n      mul\n      or\n      swap1\n      sstore\n      pop\n      0x04\n      dup3\n      add\n      0x00\n      swap1\n      sload\n      swap1\n      0x0100\n      exp\n      swap1\n      div\n      0xffffffffffffffffffffffffffffffffffffffff\n      and\n      dup2\n      0x04\n      add\n      exp(0x0100, 0x00)\n      dup2\n      sload\n      dup2\n      0xffffffffffffffffffffffffffffffffffffffff\n      mul\n      not\n      and\n      swap1\n      dup4\n      0xffffffffffffffffffffffffffffffffffffffff\n      and\n      mul\n      or\n      swap1\n      sstore\n      pop\n      0x05\n      dup3\n      add\n      sload\n      dup2\n      0x05\n      add\n      sstore\n      0x06\n      dup3\n      add\n      sload\n      dup2\n      0x06\n      add\n      sstore\n      0x07\n      dup3\n      add\n      sload\n      dup2\n      0x07\n      add\n      sstore\n      swap1\n      pop\n      pop\n        /* \"crowdfunding.sol\":2506:2642  if(filterDataByStatus[1][i].num == num) {\r... */\n    tag_94:\n        /* \"crowdfunding.sol\":2482:2485  i++ */\n      dup1\n      dup1\n      tag_105\n      swap1\n      tag_106\n      jump\t// in\n    tag_105:\n      swap2\n      pop\n      pop\n        /* \"crowdfunding.sol\":2428:2657  for(uint i = 0; i < filterDataByStatus[1].length - 1; i++) {\r... */\n      jump(tag_87)\n    tag_88:\n      pop\n        /* \"crowdfunding.sol\":2671:2689  filterDataByStatus */\n      0x02\n        /* \"crowdfunding.sol\":2671:2692  filterDataByStatus[1] */\n      0x00\n        /* \"crowdfunding.sol\":2690:2691  1 */\n      0x01\n        /* \"crowdfunding.sol\":2671:2692  filterDataByStatus[1] */\n      dup2\n      mstore\n      0x20\n      add\n      swap1\n      dup2\n      mstore\n      0x20\n      add\n      0x00\n      keccak256\n        /* \"crowdfunding.sol\":2671:2698  filterDataByStatus[1].pop() */\n      dup1\n      sload\n      dup1\n      tag_107\n      jumpi\n      tag_108\n      tag_82\n      jump\t// in\n    tag_108:\n    tag_107:\n      0x01\n      swap1\n      sub\n      dup2\n      dup2\n      swap1\n      0x00\n      mstore\n      keccak256(0x00, 0x20)\n      swap1\n      0x08\n      mul\n      add\n      0x00\n      dup1\n      dup3\n      add\n      0x00\n      swap1\n      sstore\n      0x01\n      dup3\n      add\n      0x00\n      tag_110\n      swap2\n      swap1\n      tag_85\n      jump\t// in\n    tag_110:\n      0x02\n      dup3\n      add\n      0x00\n      swap1\n      sstore\n      0x03\n      dup3\n      add\n      exp(0x0100, 0x00)\n      dup2\n      sload\n      swap1\n      0xffffffffffffffffffffffffffffffffffffffff\n      mul\n      not\n      and\n      swap1\n      sstore\n      0x04\n      dup3\n      add\n      exp(0x0100, 0x00)\n      dup2\n      sload\n      swap1\n      0xffffffffffffffffffffffffffffffffffffffff\n      mul\n      not\n      and\n      swap1\n      sstore\n      0x05\n      dup3\n      add\n      0x00\n      swap1\n      sstore\n      0x06\n      dup3\n      add\n      0x00\n      swap1\n      sstore\n      0x07\n      dup3\n      add\n      0x00\n      swap1\n      sstore\n      pop\n      pop\n      swap1\n      sstore\n        /* \"crowdfunding.sol\":2318:2710  if(filterDataByStatus[1].length == 1){\r... */\n    tag_86:\n        /* \"crowdfunding.sol\":2720:2738  filterDataByStatus */\n      0x02\n        /* \"crowdfunding.sol\":2720:2741  filterDataByStatus[3] */\n      0x00\n        /* \"crowdfunding.sol\":2739:2740  3 */\n      0x03\n        /* \"crowdfunding.sol\":2720:2741  filterDataByStatus[3] */\n      dup2\n      mstore\n      0x20\n      add\n      swap1\n      dup2\n      mstore\n      0x20\n      add\n      0x00\n      keccak256\n        /* \"crowdfunding.sol\":2747:2751  list */\n      0x01\n        /* \"crowdfunding.sol\":2756:2757  1 */\n      dup1\n        /* \"crowdfunding.sol\":2752:2755  num */\n      dup4\n        /* \"crowdfunding.sol\":2752:2757  num-1 */\n      tag_111\n      swap2\n      swap1\n      tag_50\n      jump\t// in\n    tag_111:\n        /* \"crowdfunding.sol\":2747:2758  list[num-1] */\n      dup2\n      sload\n      dup2\n      lt\n      tag_112\n      jumpi\n      tag_113\n      tag_53\n      jump\t// in\n    tag_113:\n    tag_112:\n      swap1\n      0x00\n      mstore\n      keccak256(0x00, 0x20)\n      swap1\n      0x08\n      mul\n      add\n        /* \"crowdfunding.sol\":2720:2759  filterDataByStatus[3].push(list[num-1]) */\n      swap1\n      dup1\n      0x01\n      dup2\n      sload\n      add\n      dup1\n      dup3\n      sstore\n      dup1\n      swap2\n      pop\n      pop\n      0x01\n      swap1\n      sub\n      swap1\n      0x00\n      mstore\n      keccak256(0x00, 0x20)\n      swap1\n      0x08\n      mul\n      add\n      0x00\n      swap1\n      swap2\n      swap1\n      swap2\n      swap1\n      swap2\n      pop\n      0x00\n      dup3\n      add\n      sload\n      dup2\n      0x00\n      add\n      sstore\n      0x01\n      dup3\n      add\n      dup2\n      0x01\n      add\n      swap1\n      dup1\n      sload\n      tag_116\n      swap1\n      tag_62\n      jump\t// in\n    tag_116:\n      tag_117\n      swap3\n      swap2\n      swap1\n      tag_104\n      jump\t// in\n    tag_117:\n      pop\n      0x02\n      dup3\n      add\n      sload\n      dup2\n      0x02\n      add\n      sstore\n      0x03\n      dup3\n      add\n      0x00\n      swap1\n      sload\n      swap1\n      0x0100\n      exp\n      swap1\n      div\n      0xffffffffffffffffffffffffffffffffffffffff\n      and\n      dup2\n      0x03\n      add\n      exp(0x0100, 0x00)\n      dup2\n      sload\n      dup2\n      0xffffffffffffffffffffffffffffffffffffffff\n      mul\n      not\n      and\n      swap1\n      dup4\n      0xffffffffffffffffffffffffffffffffffffffff\n      and\n      mul\n      or\n      swap1\n      sstore\n      pop\n      0x04\n      dup3\n      add\n      0x00\n      swap1\n      sload\n      swap1\n      0x0100\n      exp\n      swap1\n      div\n      0xffffffffffffffffffffffffffffffffffffffff\n      and\n      dup2\n      0x04\n      add\n      exp(0x0100, 0x00)\n      dup2\n      sload\n      dup2\n      0xffffffffffffffffffffffffffffffffffffffff\n      mul\n      not\n      and\n      swap1\n      dup4\n      0xffffffffffffffffffffffffffffffffffffffff\n      and\n      mul\n      or\n      swap1\n      sstore\n      pop\n      0x05\n      dup3\n      add\n      sload\n      dup2\n      0x05\n      add\n      sstore\n      0x06\n      dup3\n      add\n      sload\n      dup2\n      0x06\n      add\n      sstore\n      0x07\n      dup3\n      add\n      sload\n      dup2\n      0x07\n      add\n      sstore\n      pop\n      pop\n        /* \"crowdfunding.sol\":2175:2767  function setStatus(uint num) public {\r... */\n      pop\n      jump\t// out\n        /* \"crowdfunding.sol\":809:835  Crowdfunding[] public list */\n    tag_31:\n      0x01\n      dup2\n      dup2\n      sload\n      dup2\n      lt\n      tag_118\n      jumpi\n      0x00\n      dup1\n      revert\n    tag_118:\n      swap1\n      0x00\n      mstore\n      keccak256(0x00, 0x20)\n      swap1\n      0x08\n      mul\n      add\n      0x00\n      swap2\n      pop\n      swap1\n      pop\n      dup1\n      0x00\n      add\n      sload\n      swap1\n      dup1\n      0x01\n      add\n      dup1\n      sload\n      tag_120\n      swap1\n      tag_62\n      jump\t// in\n    tag_120:\n      dup1\n      0x1f\n      add\n      0x20\n      dup1\n      swap2\n      div\n      mul\n      0x20\n      add\n      mload(0x40)\n      swap1\n      dup2\n      add\n      0x40\n      mstore\n      dup1\n      swap3\n      swap2\n      swap1\n      dup2\n      dup2\n      mstore\n      0x20\n      add\n      dup3\n      dup1\n      sload\n      tag_121\n      swap1\n      tag_62\n      jump\t// in\n    tag_121:\n      dup1\n      iszero\n      tag_122\n      jumpi\n      dup1\n      0x1f\n      lt\n      tag_123\n      jumpi\n      0x0100\n      dup1\n      dup4\n      sload\n      div\n      mul\n      dup4\n      mstore\n      swap2\n      0x20\n      add\n      swap2\n      jump(tag_122)\n    tag_123:\n      dup3\n      add\n      swap2\n      swap1\n      0x00\n      mstore\n      keccak256(0x00, 0x20)\n      swap1\n    tag_124:\n      dup2\n      sload\n      dup2\n      mstore\n      swap1\n      0x01\n      add\n      swap1\n      0x20\n      add\n      dup1\n      dup4\n      gt\n      tag_124\n      jumpi\n      dup3\n      swap1\n      sub\n      0x1f\n      and\n      dup3\n      add\n      swap2\n    tag_122:\n      pop\n      pop\n      pop\n      pop\n      pop\n      swap1\n      dup1\n      0x02\n      add\n      sload\n      swap1\n      dup1\n      0x03\n      add\n      0x00\n      swap1\n      sload\n      swap1\n      0x0100\n      exp\n      swap1\n      div\n      0xffffffffffffffffffffffffffffffffffffffff\n      and\n      swap1\n      dup1\n      0x04\n      add\n      0x00\n      swap1\n      sload\n      swap1\n      0x0100\n      exp\n      swap1\n      div\n      0xffffffffffffffffffffffffffffffffffffffff\n      and\n      swap1\n      dup1\n      0x05\n      add\n      sload\n      swap1\n      dup1\n      0x06\n      add\n      sload\n      swap1\n      dup1\n      0x07\n      add\n      sload\n      swap1\n      pop\n      dup9\n      jump\t// out\n        /* \"crowdfunding.sol\":3747:3930  function getCrowdfundingByStatus(uint _status) public view returns (Crowdfunding[] memory) {\r... */\n    tag_36:\n        /* \"crowdfunding.sol\":3815:3836  Crowdfunding[] memory */\n      0x60\n        /* \"crowdfunding.sol\":3863:3864  0 */\n      0x00\n        /* \"crowdfunding.sol\":3852:3859  _status */\n      dup3\n        /* \"crowdfunding.sol\":3852:3864  _status == 0 */\n      eq\n        /* \"crowdfunding.sol\":3849:3877  if(_status == 0) return list */\n      iszero\n      tag_126\n      jumpi\n        /* \"crowdfunding.sol\":3873:3877  list */\n      0x01\n        /* \"crowdfunding.sol\":3866:3877  return list */\n      dup1\n      sload\n      dup1\n      0x20\n      mul\n      0x20\n      add\n      mload(0x40)\n      swap1\n      dup2\n      add\n      0x40\n      mstore\n      dup1\n      swap3\n      swap2\n      swap1\n      dup2\n      dup2\n      mstore\n      0x20\n      add\n      0x00\n      swap1\n    tag_127:\n      dup3\n      dup3\n      lt\n      iszero\n      tag_128\n      jumpi\n      dup4\n      dup3\n      swap1\n      0x00\n      mstore\n      keccak256(0x00, 0x20)\n      swap1\n      0x08\n      mul\n      add\n      mload(0x40)\n      dup1\n      0x0100\n      add\n      0x40\n      mstore\n      swap1\n      dup2\n      0x00\n      dup3\n      add\n      sload\n      dup2\n      mstore\n      0x20\n      add\n      0x01\n      dup3\n      add\n      dup1\n      sload\n      tag_130\n      swap1\n      tag_62\n      jump\t// in\n    tag_130:\n      dup1\n      0x1f\n      add\n      0x20\n      dup1\n      swap2\n      div\n      mul\n      0x20\n      add\n      mload(0x40)\n      swap1\n      dup2\n      add\n      0x40\n      mstore\n      dup1\n      swap3\n      swap2\n      swap1\n      dup2\n      dup2\n      mstore\n      0x20\n      add\n      dup3\n      dup1\n      sload\n      tag_131\n      swap1\n      tag_62\n      jump\t// in\n    tag_131:\n      dup1\n      iszero\n      tag_132\n      jumpi\n      dup1\n      0x1f\n      lt\n      tag_133\n      jumpi\n      0x0100\n      dup1\n      dup4\n      sload\n      div\n      mul\n      dup4\n      mstore\n      swap2\n      0x20\n      add\n      swap2\n      jump(tag_132)\n    tag_133:\n      dup3\n      add\n      swap2\n      swap1\n      0x00\n      mstore\n      keccak256(0x00, 0x20)\n      swap1\n    tag_134:\n      dup2\n      sload\n      dup2\n      mstore\n      swap1\n      0x01\n      add\n      swap1\n      0x20\n      add\n      dup1\n      dup4\n      gt\n      tag_134\n      jumpi\n      dup3\n      swap1\n      sub\n      0x1f\n      and\n      dup3\n      add\n      swap2\n    tag_132:\n      pop\n      pop\n      pop\n      pop\n      pop\n      dup2\n      mstore\n      0x20\n      add\n      0x02\n      dup3\n      add\n      sload\n      dup2\n      mstore\n      0x20\n      add\n      0x03\n      dup3\n      add\n      0x00\n      swap1\n      sload\n      swap1\n      0x0100\n      exp\n      swap1\n      div\n      0xffffffffffffffffffffffffffffffffffffffff\n      and\n      0xffffffffffffffffffffffffffffffffffffffff\n      and\n      0xffffffffffffffffffffffffffffffffffffffff\n      and\n      dup2\n      mstore\n      0x20\n      add\n      0x04\n      dup3\n      add\n      0x00\n      swap1\n      sload\n      swap1\n      0x0100\n      exp\n      swap1\n      div\n      0xffffffffffffffffffffffffffffffffffffffff\n      and\n      0xffffffffffffffffffffffffffffffffffffffff\n      and\n      0xffffffffffffffffffffffffffffffffffffffff\n      and\n      dup2\n      mstore\n      0x20\n      add\n      0x05\n      dup3\n      add\n      sload\n      dup2\n      mstore\n      0x20\n      add\n      0x06\n      dup3\n      add\n      sload\n      dup2\n      mstore\n      0x20\n      add\n      0x07\n      dup3\n      add\n      sload\n      dup2\n      mstore\n      pop\n      pop\n      dup2\n      mstore\n      0x20\n      add\n      swap1\n      0x01\n      add\n      swap1\n      jump(tag_127)\n    tag_128:\n      pop\n      pop\n      pop\n      pop\n      swap1\n      pop\n      jump(tag_125)\n        /* \"crowdfunding.sol\":3849:3877  if(_status == 0) return list */\n    tag_126:\n        /* \"crowdfunding.sol\":3895:3913  filterDataByStatus */\n      0x02\n        /* \"crowdfunding.sol\":3895:3922  filterDataByStatus[_status] */\n      0x00\n        /* \"crowdfunding.sol\":3914:3921  _status */\n      dup4\n        /* \"crowdfunding.sol\":3895:3922  filterDataByStatus[_status] */\n      dup2\n      mstore\n      0x20\n      add\n      swap1\n      dup2\n      mstore\n      0x20\n      add\n      0x00\n      keccak256\n        /* \"crowdfunding.sol\":3888:3922  return filterDataByStatus[_status] */\n      dup1\n      sload\n      dup1\n      0x20\n      mul\n      0x20\n      add\n      mload(0x40)\n      swap1\n      dup2\n      add\n      0x40\n      mstore\n      dup1\n      swap3\n      swap2\n      swap1\n      dup2\n      dup2\n      mstore\n      0x20\n      add\n      0x00\n      swap1\n    tag_135:\n      dup3\n      dup3\n      lt\n      iszero\n      tag_136\n      jumpi\n      dup4\n      dup3\n      swap1\n      0x00\n      mstore\n      keccak256(0x00, 0x20)\n      swap1\n      0x08\n      mul\n      add\n      mload(0x40)\n      dup1\n      0x0100\n      add\n      0x40\n      mstore\n      swap1\n      dup2\n      0x00\n      dup3\n      add\n      sload\n      dup2\n      mstore\n      0x20\n      add\n      0x01\n      dup3\n      add\n      dup1\n      sload\n      tag_138\n      swap1\n      tag_62\n      jump\t// in\n    tag_138:\n      dup1\n      0x1f\n      add\n      0x20\n      dup1\n      swap2\n      div\n      mul\n      0x20\n      add\n      mload(0x40)\n      swap1\n      dup2\n      add\n      0x40\n      mstore\n      dup1\n      swap3\n      swap2\n      swap1\n      dup2\n      dup2\n      mstore\n      0x20\n      add\n      dup3\n      dup1\n      sload\n      tag_139\n      swap1\n      tag_62\n      jump\t// in\n    tag_139:\n      dup1\n      iszero\n      tag_140\n      jumpi\n      dup1\n      0x1f\n      lt\n      tag_141\n      jumpi\n      0x0100\n      dup1\n      dup4\n      sload\n      div\n      mul\n      dup4\n      mstore\n      swap2\n      0x20\n      add\n      swap2\n      jump(tag_140)\n    tag_141:\n      dup3\n      add\n      swap2\n      swap1\n      0x00\n      mstore\n      keccak256(0x00, 0x20)\n      swap1\n    tag_142:\n      dup2\n      sload\n      dup2\n      mstore\n      swap1\n      0x01\n      add\n      swap1\n      0x20\n      add\n      dup1\n      dup4\n      gt\n      tag_142\n      jumpi\n      dup3\n      swap1\n      sub\n      0x1f\n      and\n      dup3\n      add\n      swap2\n    tag_140:\n      pop\n      pop\n      pop\n      pop\n      pop\n      dup2\n      mstore\n      0x20\n      add\n      0x02\n      dup3\n      add\n      sload\n      dup2\n      mstore\n      0x20\n      add\n      0x03\n      dup3\n      add\n      0x00\n      swap1\n      sload\n      swap1\n      0x0100\n      exp\n      swap1\n      div\n      0xffffffffffffffffffffffffffffffffffffffff\n      and\n      0xffffffffffffffffffffffffffffffffffffffff\n      and\n      0xffffffffffffffffffffffffffffffffffffffff\n      and\n      dup2\n      mstore\n      0x20\n      add\n      0x04\n      dup3\n      add\n      0x00\n      swap1\n      sload\n      swap1\n      0x0100\n      exp\n      swap1\n      div\n      0xffffffffffffffffffffffffffffffffffffffff\n      and\n      0xffffffffffffffffffffffffffffffffffffffff\n      and\n      0xffffffffffffffffffffffffffffffffffffffff\n      and\n      dup2\n      mstore\n      0x20\n      add\n      0x05\n      dup3\n      add\n      sload\n      dup2\n      mstore\n      0x20\n      add\n      0x06\n      dup3\n      add\n      sload\n      dup2\n      mstore\n      0x20\n      add\n      0x07\n      dup3\n      add\n      sload\n      dup2\n      mstore\n      pop\n      pop\n      dup2\n      mstore\n      0x20\n      add\n      swap1\n      0x01\n      add\n      swap1\n      jump(tag_135)\n    tag_136:\n      pop\n      pop\n      pop\n      pop\n      swap1\n      pop\n        /* \"crowdfunding.sol\":3747:3930  function getCrowdfundingByStatus(uint _status) public view returns (Crowdfunding[] memory) {\r... */\n    tag_125:\n      swap2\n      swap1\n      pop\n      jump\t// out\n        /* \"crowdfunding.sol\":1469:2096  function createCrowdfunding(string memory _title,address _recipient, string memory _expectAmout) public {\r... */\n    tag_41:\n        /* \"crowdfunding.sol\":1584:1586  No */\n      0x00\n      dup1\n        /* \"crowdfunding.sol\":1584:1588  No++ */\n      dup2\n      sload\n      dup1\n      swap3\n      swap2\n      swap1\n      tag_144\n      swap1\n      tag_106\n      jump\t// in\n    tag_144:\n      swap2\n      swap1\n      pop\n      sstore\n      pop\n        /* \"crowdfunding.sol\":1599:1620  Crowdfunding memory c */\n      0x00\n        /* \"crowdfunding.sol\":1623:1906  Crowdfunding({\r... */\n      mload(0x40)\n      dup1\n      0x0100\n      add\n      0x40\n      mstore\n      dup1\n        /* \"crowdfunding.sol\":1656:1658  No */\n      sload(0x00)\n        /* \"crowdfunding.sol\":1623:1906  Crowdfunding({\r... */\n      dup2\n      mstore\n      0x20\n      add\n        /* \"crowdfunding.sol\":1679:1685  _title */\n      dup6\n        /* \"crowdfunding.sol\":1623:1906  Crowdfunding({\r... */\n      dup2\n      mstore\n      0x20\n      add\n        /* \"crowdfunding.sol\":1708:1709  1 */\n      0x01\n        /* \"crowdfunding.sol\":1623:1906  Crowdfunding({\r... */\n      dup2\n      mstore\n      0x20\n      add\n        /* \"crowdfunding.sol\":1733:1743  msg.sender */\n      caller\n        /* \"crowdfunding.sol\":1623:1906  Crowdfunding({\r... */\n      0xffffffffffffffffffffffffffffffffffffffff\n      and\n      dup2\n      mstore\n      0x20\n      add\n        /* \"crowdfunding.sol\":1769:1779  _recipient */\n      dup5\n        /* \"crowdfunding.sol\":1623:1906  Crowdfunding({\r... */\n      0xffffffffffffffffffffffffffffffffffffffff\n      and\n      dup2\n      mstore\n      0x20\n      add\n        /* \"crowdfunding.sol\":1803:1804  0 */\n      0x00\n        /* \"crowdfunding.sol\":1623:1906  Crowdfunding({\r... */\n      dup2\n      mstore\n      0x20\n      add\n        /* \"crowdfunding.sol\":1839:1864  stringToInt(_expectAmout) */\n      tag_145\n        /* \"crowdfunding.sol\":1851:1863  _expectAmout */\n      dup5\n        /* \"crowdfunding.sol\":1839:1850  stringToInt */\n      tag_45\n        /* \"crowdfunding.sol\":1839:1864  stringToInt(_expectAmout) */\n      jump\t// in\n    tag_145:\n        /* \"crowdfunding.sol\":1623:1906  Crowdfunding({\r... */\n      dup2\n      mstore\n      0x20\n      add\n        /* \"crowdfunding.sol\":1893:1894  0 */\n      0x00\n        /* \"crowdfunding.sol\":1623:1906  Crowdfunding({\r... */\n      dup2\n      mstore\n      pop\n        /* \"crowdfunding.sol\":1599:1906  Crowdfunding memory c = Crowdfunding({\r... */\n      swap1\n      pop\n        /* \"crowdfunding.sol\":1917:1921  list */\n      0x01\n        /* \"crowdfunding.sol\":1927:1928  c */\n      dup2\n        /* \"crowdfunding.sol\":1917:1929  list.push(c) */\n      swap1\n      dup1\n      0x01\n      dup2\n      sload\n      add\n      dup1\n      dup3\n      sstore\n      dup1\n      swap2\n      pop\n      pop\n      0x01\n      swap1\n      sub\n      swap1\n      0x00\n      mstore\n      keccak256(0x00, 0x20)\n      swap1\n      0x08\n      mul\n      add\n      0x00\n      swap1\n      swap2\n      swap1\n      swap2\n      swap1\n      swap2\n      pop\n      0x00\n      dup3\n      add\n      mload\n      dup2\n      0x00\n      add\n      sstore\n      0x20\n      dup3\n      add\n      mload\n      dup2\n      0x01\n      add\n      swap1\n      dup1\n      mload\n      swap1\n      0x20\n      add\n      swap1\n      tag_147\n      swap3\n      swap2\n      swap1\n      tag_73\n      jump\t// in\n    tag_147:\n      pop\n      0x40\n      dup3\n      add\n      mload\n      dup2\n      0x02\n      add\n      sstore\n      0x60\n      dup3\n      add\n      mload\n      dup2\n      0x03\n      add\n      exp(0x0100, 0x00)\n      dup2\n      sload\n      dup2\n      0xffffffffffffffffffffffffffffffffffffffff\n      mul\n      not\n      and\n      swap1\n      dup4\n      0xffffffffffffffffffffffffffffffffffffffff\n      and\n      mul\n      or\n      swap1\n      sstore\n      pop\n      0x80\n      dup3\n      add\n      mload\n      dup2\n      0x04\n      add\n      exp(0x0100, 0x00)\n      dup2\n      sload\n      dup2\n      0xffffffffffffffffffffffffffffffffffffffff\n      mul\n      not\n      and\n      swap1\n      dup4\n      0xffffffffffffffffffffffffffffffffffffffff\n      and\n      mul\n      or\n      swap1\n      sstore\n      pop\n      0xa0\n      dup3\n      add\n      mload\n      dup2\n      0x05\n      add\n      sstore\n      0xc0\n      dup3\n      add\n      mload\n      dup2\n      0x06\n      add\n      sstore\n      0xe0\n      dup3\n      add\n      mload\n      dup2\n      0x07\n      add\n      sstore\n      pop\n      pop\n        /* \"crowdfunding.sol\":2014:2032  filterDataByStatus */\n      0x02\n        /* \"crowdfunding.sol\":2014:2035  filterDataByStatus[1] */\n      0x00\n        /* \"crowdfunding.sol\":2033:2034  1 */\n      0x01\n        /* \"crowdfunding.sol\":2014:2035  filterDataByStatus[1] */\n      dup2\n      mstore\n      0x20\n      add\n      swap1\n      dup2\n      mstore\n      0x20\n      add\n      0x00\n      keccak256\n        /* \"crowdfunding.sol\":2041:2042  c */\n      dup2\n        /* \"crowdfunding.sol\":2014:2043  filterDataByStatus[1].push(c) */\n      swap1\n      dup1\n      0x01\n      dup2\n      sload\n      add\n      dup1\n      dup3\n      sstore\n      dup1\n      swap2\n      pop\n      pop\n      0x01\n      swap1\n      sub\n      swap1\n      0x00\n      mstore\n      keccak256(0x00, 0x20)\n      swap1\n      0x08\n      mul\n      add\n      0x00\n      swap1\n      swap2\n      swap1\n      swap2\n      swap1\n      swap2\n      pop\n      0x00\n      dup3\n      add\n      mload\n      dup2\n      0x00\n      add\n      sstore\n      0x20\n      dup3\n      add\n      mload\n      dup2\n      0x01\n      add\n      swap1\n      dup1\n      mload\n      swap1\n      0x20\n      add\n      swap1\n      tag_149\n      swap3\n      swap2\n      swap1\n      tag_73\n      jump\t// in\n    tag_149:\n      pop\n      0x40\n      dup3\n      add\n      mload\n      dup2\n      0x02\n      add\n      sstore\n      0x60\n      dup3\n      add\n      mload\n      dup2\n      0x03\n      add\n      exp(0x0100, 0x00)\n      dup2\n      sload\n      dup2\n      0xffffffffffffffffffffffffffffffffffffffff\n      mul\n      not\n      and\n      swap1\n      dup4\n      0xffffffffffffffffffffffffffffffffffffffff\n      and\n      mul\n      or\n      swap1\n      sstore\n      pop\n      0x80\n      dup3\n      add\n      mload\n      dup2\n      0x04\n      add\n      exp(0x0100, 0x00)\n      dup2\n      sload\n      dup2\n      0xffffffffffffffffffffffffffffffffffffffff\n      mul\n      not\n      and\n      swap1\n      dup4\n      0xffffffffffffffffffffffffffffffffffffffff\n      and\n      mul\n      or\n      swap1\n      sstore\n      pop\n      0xa0\n      dup3\n      add\n      mload\n      dup2\n      0x05\n      add\n      sstore\n      0xc0\n      dup3\n      add\n      mload\n      dup2\n      0x06\n      add\n      sstore\n      0xe0\n      dup3\n      add\n      mload\n      dup2\n      0x07\n      add\n      sstore\n      pop\n      pop\n        /* \"crowdfunding.sol\":2054:2068  myCrowdfunding */\n      0x03\n        /* \"crowdfunding.sol\":2054:2080  myCrowdfunding[msg.sender] */\n      0x00\n        /* \"crowdfunding.sol\":2069:2079  msg.sender */\n      caller\n        /* \"crowdfunding.sol\":2054:2080  myCrowdfunding[msg.sender] */\n      0xffffffffffffffffffffffffffffffffffffffff\n      and\n      0xffffffffffffffffffffffffffffffffffffffff\n      and\n      dup2\n      mstore\n      0x20\n      add\n      swap1\n      dup2\n      mstore\n      0x20\n      add\n      0x00\n      keccak256\n        /* \"crowdfunding.sol\":2086:2087  c */\n      dup2\n        /* \"crowdfunding.sol\":2054:2088  myCrowdfunding[msg.sender].push(c) */\n      swap1\n      dup1\n      0x01\n      dup2\n      sload\n      add\n      dup1\n      dup3\n      sstore\n      dup1\n      swap2\n      pop\n      pop\n      0x01\n      swap1\n      sub\n      swap1\n      0x00\n      mstore\n      keccak256(0x00, 0x20)\n      swap1\n      0x08\n      mul\n      add\n      0x00\n      swap1\n      swap2\n      swap1\n      swap2\n      swap1\n      swap2\n      pop\n      0x00\n      dup3\n      add\n      mload\n      dup2\n      0x00\n      add\n      sstore\n      0x20\n      dup3\n      add\n      mload\n      dup2\n      0x01\n      add\n      swap1\n      dup1\n      mload\n      swap1\n      0x20\n      add\n      swap1\n      tag_151\n      swap3\n      swap2\n      swap1\n      tag_73\n      jump\t// in\n    tag_151:\n      pop\n      0x40\n      dup3\n      add\n      mload\n      dup2\n      0x02\n      add\n      sstore\n      0x60\n      dup3\n      add\n      mload\n      dup2\n      0x03\n      add\n      exp(0x0100, 0x00)\n      dup2\n      sload\n      dup2\n      0xffffffffffffffffffffffffffffffffffffffff\n      mul\n      not\n      and\n      swap1\n      dup4\n      0xffffffffffffffffffffffffffffffffffffffff\n      and\n      mul\n      or\n      swap1\n      sstore\n      pop\n      0x80\n      dup3\n      add\n      mload\n      dup2\n      0x04\n      add\n      exp(0x0100, 0x00)\n      dup2\n      sload\n      dup2\n      0xffffffffffffffffffffffffffffffffffffffff\n      mul\n      not\n      and\n      swap1\n      dup4\n      0xffffffffffffffffffffffffffffffffffffffff\n      and\n      mul\n      or\n      swap1\n      sstore\n      pop\n      0xa0\n      dup3\n      add\n      mload\n      dup2\n      0x05\n      add\n      sstore\n      0xc0\n      dup3\n      add\n      mload\n      dup2\n      0x06\n      add\n      sstore\n      0xe0\n      dup3\n      add\n      mload\n      dup2\n      0x07\n      add\n      sstore\n      pop\n      pop\n        /* \"crowdfunding.sol\":1573:2096  {\r... */\n      pop\n        /* \"crowdfunding.sol\":1469:2096  function createCrowdfunding(string memory _title,address _recipient, string memory _expectAmout) public {\r... */\n      pop\n      pop\n      pop\n      jump\t// out\n        /* \"crowdfunding.sol\":1091:1461  function stringToInt(string memory s) public pure returns (uint){\r... */\n    tag_45:\n        /* \"crowdfunding.sol\":1150:1154  uint */\n      0x00\n        /* \"crowdfunding.sol\":1166:1180  bytes memory b */\n      dup1\n        /* \"crowdfunding.sol\":1189:1190  s */\n      dup3\n        /* \"crowdfunding.sol\":1166:1191  bytes memory b = bytes(s) */\n      swap1\n      pop\n        /* \"crowdfunding.sol\":1202:1213  uint result */\n      0x00\n        /* \"crowdfunding.sol\":1233:1242  uint256 i */\n      dup1\n        /* \"crowdfunding.sol\":1228:1430  for (uint256 i = 0; i < b.length; i++) {\r... */\n    tag_153:\n        /* \"crowdfunding.sol\":1252:1253  b */\n      dup3\n        /* \"crowdfunding.sol\":1252:1260  b.length */\n      mload\n        /* \"crowdfunding.sol\":1248:1249  i */\n      dup2\n        /* \"crowdfunding.sol\":1248:1260  i < b.length */\n      lt\n        /* \"crowdfunding.sol\":1228:1430  for (uint256 i = 0; i < b.length; i++) {\r... */\n      iszero\n      tag_154\n      jumpi\n        /* \"crowdfunding.sol\":1282:1291  uint256 c */\n      0x00\n        /* \"crowdfunding.sol\":1308:1309  b */\n      dup4\n        /* \"crowdfunding.sol\":1310:1311  i */\n      dup3\n        /* \"crowdfunding.sol\":1308:1312  b[i] */\n      dup2\n      mload\n      dup2\n      lt\n      tag_156\n      jumpi\n      tag_157\n      tag_53\n      jump\t// in\n    tag_157:\n    tag_156:\n      0x20\n      add\n      add\n      mload\n      0xf8\n      shr\n      0xf8\n      shl\n        /* \"crowdfunding.sol\":1302:1313  uint8(b[i]) */\n      0xf8\n      shr\n        /* \"crowdfunding.sol\":1294:1314  uint256(uint8(b[i])) */\n      0xff\n      and\n        /* \"crowdfunding.sol\":1282:1314  uint256 c = uint256(uint8(b[i])) */\n      swap1\n      pop\n        /* \"crowdfunding.sol\":1338:1340  48 */\n      0x30\n        /* \"crowdfunding.sol\":1333:1334  c */\n      dup2\n        /* \"crowdfunding.sol\":1333:1340  c >= 48 */\n      lt\n      iszero\n        /* \"crowdfunding.sol\":1333:1351  c >= 48 && c <= 57 */\n      dup1\n      iszero\n      tag_158\n      jumpi\n      pop\n        /* \"crowdfunding.sol\":1349:1351  57 */\n      0x39\n        /* \"crowdfunding.sol\":1344:1345  c */\n      dup2\n        /* \"crowdfunding.sol\":1344:1351  c <= 57 */\n      gt\n      iszero\n        /* \"crowdfunding.sol\":1333:1351  c >= 48 && c <= 57 */\n    tag_158:\n        /* \"crowdfunding.sol\":1329:1419  if (c >= 48 && c <= 57) {\r... */\n      iszero\n      tag_159\n      jumpi\n        /* \"crowdfunding.sol\":1400:1402  48 */\n      0x30\n        /* \"crowdfunding.sol\":1396:1397  c */\n      dup2\n        /* \"crowdfunding.sol\":1396:1402  c - 48 */\n      tag_160\n      swap2\n      swap1\n      tag_50\n      jump\t// in\n    tag_160:\n        /* \"crowdfunding.sol\":1390:1392  10 */\n      0x0a\n        /* \"crowdfunding.sol\":1381:1387  result */\n      dup5\n        /* \"crowdfunding.sol\":1381:1392  result * 10 */\n      tag_161\n      swap2\n      swap1\n      tag_162\n      jump\t// in\n    tag_161:\n        /* \"crowdfunding.sol\":1381:1403  result * 10 + (c - 48) */\n      tag_163\n      swap2\n      swap1\n      tag_56\n      jump\t// in\n    tag_163:\n        /* \"crowdfunding.sol\":1372:1403  result = result * 10 + (c - 48) */\n      swap3\n      pop\n        /* \"crowdfunding.sol\":1329:1419  if (c >= 48 && c <= 57) {\r... */\n    tag_159:\n        /* \"crowdfunding.sol\":1267:1430  {\r... */\n      pop\n        /* \"crowdfunding.sol\":1262:1265  i++ */\n      dup1\n      dup1\n      tag_164\n      swap1\n      tag_106\n      jump\t// in\n    tag_164:\n      swap2\n      pop\n      pop\n        /* \"crowdfunding.sol\":1228:1430  for (uint256 i = 0; i < b.length; i++) {\r... */\n      jump(tag_153)\n    tag_154:\n      pop\n        /* \"crowdfunding.sol\":1447:1453  result */\n      dup1\n        /* \"crowdfunding.sol\":1440:1453  return result */\n      swap3\n      pop\n      pop\n      pop\n        /* \"crowdfunding.sol\":1091:1461  function stringToInt(string memory s) public pure returns (uint){\r... */\n      swap2\n      swap1\n      pop\n      jump\t// out\n    tag_73:\n      dup3\n      dup1\n      sload\n      tag_165\n      swap1\n      tag_62\n      jump\t// in\n    tag_165:\n      swap1\n      0x00\n      mstore\n      keccak256(0x00, 0x20)\n      swap1\n      0x1f\n      add\n      0x20\n      swap1\n      div\n      dup2\n      add\n      swap3\n      dup3\n      tag_167\n      jumpi\n      0x00\n      dup6\n      sstore\n      jump(tag_166)\n    tag_167:\n      dup3\n      0x1f\n      lt\n      tag_168\n      jumpi\n      dup1\n      mload\n      not(0xff)\n      and\n      dup4\n      dup1\n      add\n      or\n      dup6\n      sstore\n      jump(tag_166)\n    tag_168:\n      dup3\n      dup1\n      add\n      0x01\n      add\n      dup6\n      sstore\n      dup3\n      iszero\n      tag_166\n      jumpi\n      swap2\n      dup3\n      add\n    tag_169:\n      dup3\n      dup2\n      gt\n      iszero\n      tag_170\n      jumpi\n      dup3\n      mload\n      dup3\n      sstore\n      swap2\n      0x20\n      add\n      swap2\n      swap1\n      0x01\n      add\n      swap1\n      jump(tag_169)\n    tag_170:\n    tag_166:\n      pop\n      swap1\n      pop\n      tag_171\n      swap2\n      swap1\n      tag_172\n      jump\t// in\n    tag_171:\n      pop\n      swap1\n      jump\t// out\n    tag_85:\n      pop\n      dup1\n      sload\n      tag_173\n      swap1\n      tag_62\n      jump\t// in\n    tag_173:\n      0x00\n      dup3\n      sstore\n      dup1\n      0x1f\n      lt\n      tag_175\n      jumpi\n      pop\n      jump(tag_174)\n    tag_175:\n      0x1f\n      add\n      0x20\n      swap1\n      div\n      swap1\n      0x00\n      mstore\n      keccak256(0x00, 0x20)\n      swap1\n      dup2\n      add\n      swap1\n      tag_176\n      swap2\n      swap1\n      tag_172\n      jump\t// in\n    tag_176:\n    tag_174:\n      pop\n      jump\t// out\n    tag_104:\n      dup3\n      dup1\n      sload\n      tag_177\n      swap1\n      tag_62\n      jump\t// in\n    tag_177:\n      swap1\n      0x00\n      mstore\n      keccak256(0x00, 0x20)\n      swap1\n      0x1f\n      add\n      0x20\n      swap1\n      div\n      dup2\n      add\n      swap3\n      dup3\n      tag_179\n      jumpi\n      0x00\n      dup6\n      sstore\n      jump(tag_178)\n    tag_179:\n      dup3\n      0x1f\n      lt\n      tag_180\n      jumpi\n      dup1\n      sload\n      dup6\n      sstore\n      jump(tag_178)\n    tag_180:\n      dup3\n      dup1\n      add\n      0x01\n      add\n      dup6\n      sstore\n      dup3\n      iszero\n      tag_178\n      jumpi\n      0x00\n      mstore\n      keccak256(0x00, 0x20)\n      swap2\n      0x1f\n      add\n      0x20\n      swap1\n      div\n      dup3\n      add\n    tag_181:\n      dup3\n      dup2\n      gt\n      iszero\n      tag_182\n      jumpi\n      dup3\n      sload\n      dup3\n      sstore\n      swap2\n      0x01\n      add\n      swap2\n      swap1\n      0x01\n      add\n      swap1\n      jump(tag_181)\n    tag_182:\n    tag_178:\n      pop\n      swap1\n      pop\n      tag_183\n      swap2\n      swap1\n      tag_172\n      jump\t// in\n    tag_183:\n      pop\n      swap1\n      jump\t// out\n    tag_172:\n    tag_184:\n      dup1\n      dup3\n      gt\n      iszero\n      tag_185\n      jumpi\n      0x00\n      dup2\n      0x00\n      swap1\n      sstore\n      pop\n      0x01\n      add\n      jump(tag_184)\n    tag_185:\n      pop\n      swap1\n      jump\t// out\n        /* \"#utility.yul\":7:419   */\n    tag_187:\n        /* \"#utility.yul\":85:90   */\n      0x00\n        /* \"#utility.yul\":110:176   */\n      tag_189\n        /* \"#utility.yul\":126:175   */\n      tag_190\n        /* \"#utility.yul\":168:174   */\n      dup5\n        /* \"#utility.yul\":126:175   */\n      tag_191\n      jump\t// in\n    tag_190:\n        /* \"#utility.yul\":110:176   */\n      tag_192\n      jump\t// in\n    tag_189:\n        /* \"#utility.yul\":101:176   */\n      swap1\n      pop\n        /* \"#utility.yul\":199:205   */\n      dup3\n        /* \"#utility.yul\":192:197   */\n      dup2\n        /* \"#utility.yul\":185:206   */\n      mstore\n        /* \"#utility.yul\":237:241   */\n      0x20\n        /* \"#utility.yul\":230:235   */\n      dup2\n        /* \"#utility.yul\":226:242   */\n      add\n        /* \"#utility.yul\":275:278   */\n      dup5\n        /* \"#utility.yul\":266:272   */\n      dup5\n        /* \"#utility.yul\":261:264   */\n      dup5\n        /* \"#utility.yul\":257:273   */\n      add\n        /* \"#utility.yul\":254:279   */\n      gt\n        /* \"#utility.yul\":251:363   */\n      iszero\n      tag_193\n      jumpi\n        /* \"#utility.yul\":282:361   */\n      tag_194\n      tag_195\n      jump\t// in\n    tag_194:\n        /* \"#utility.yul\":251:363   */\n    tag_193:\n        /* \"#utility.yul\":372:413   */\n      tag_196\n        /* \"#utility.yul\":406:412   */\n      dup5\n        /* \"#utility.yul\":401:404   */\n      dup3\n        /* \"#utility.yul\":396:399   */\n      dup6\n        /* \"#utility.yul\":372:413   */\n      tag_197\n      jump\t// in\n    tag_196:\n        /* \"#utility.yul\":91:419   */\n      pop\n        /* \"#utility.yul\":7:419   */\n      swap4\n      swap3\n      pop\n      pop\n      pop\n      jump\t// out\n        /* \"#utility.yul\":425:564   */\n    tag_198:\n        /* \"#utility.yul\":471:476   */\n      0x00\n        /* \"#utility.yul\":509:515   */\n      dup2\n        /* \"#utility.yul\":496:516   */\n      calldataload\n        /* \"#utility.yul\":487:516   */\n      swap1\n      pop\n        /* \"#utility.yul\":525:558   */\n      tag_200\n        /* \"#utility.yul\":552:557   */\n      dup2\n        /* \"#utility.yul\":525:558   */\n      tag_201\n      jump\t// in\n    tag_200:\n        /* \"#utility.yul\":425:564   */\n      swap3\n      swap2\n      pop\n      pop\n      jump\t// out\n        /* \"#utility.yul\":584:924   */\n    tag_202:\n        /* \"#utility.yul\":640:645   */\n      0x00\n        /* \"#utility.yul\":689:692   */\n      dup3\n        /* \"#utility.yul\":682:686   */\n      0x1f\n        /* \"#utility.yul\":674:680   */\n      dup4\n        /* \"#utility.yul\":670:687   */\n      add\n        /* \"#utility.yul\":666:693   */\n      slt\n        /* \"#utility.yul\":656:778   */\n      tag_204\n      jumpi\n        /* \"#utility.yul\":697:776   */\n      tag_205\n      tag_206\n      jump\t// in\n    tag_205:\n        /* \"#utility.yul\":656:778   */\n    tag_204:\n        /* \"#utility.yul\":814:820   */\n      dup2\n        /* \"#utility.yul\":801:821   */\n      calldataload\n        /* \"#utility.yul\":839:918   */\n      tag_207\n        /* \"#utility.yul\":914:917   */\n      dup5\n        /* \"#utility.yul\":906:912   */\n      dup3\n        /* \"#utility.yul\":899:903   */\n      0x20\n        /* \"#utility.yul\":891:897   */\n      dup7\n        /* \"#utility.yul\":887:904   */\n      add\n        /* \"#utility.yul\":839:918   */\n      tag_187\n      jump\t// in\n    tag_207:\n        /* \"#utility.yul\":830:918   */\n      swap2\n      pop\n        /* \"#utility.yul\":646:924   */\n      pop\n        /* \"#utility.yul\":584:924   */\n      swap3\n      swap2\n      pop\n      pop\n      jump\t// out\n        /* \"#utility.yul\":930:1069   */\n    tag_208:\n        /* \"#utility.yul\":976:981   */\n      0x00\n        /* \"#utility.yul\":1014:1020   */\n      dup2\n        /* \"#utility.yul\":1001:1021   */\n      calldataload\n        /* \"#utility.yul\":992:1021   */\n      swap1\n      pop\n        /* \"#utility.yul\":1030:1063   */\n      tag_210\n        /* \"#utility.yul\":1057:1062   */\n      dup2\n        /* \"#utility.yul\":1030:1063   */\n      tag_211\n      jump\t// in\n    tag_210:\n        /* \"#utility.yul\":930:1069   */\n      swap3\n      swap2\n      pop\n      pop\n      jump\t// out\n        /* \"#utility.yul\":1075:1404   */\n    tag_18:\n        /* \"#utility.yul\":1134:1140   */\n      0x00\n        /* \"#utility.yul\":1183:1185   */\n      0x20\n        /* \"#utility.yul\":1171:1180   */\n      dup3\n        /* \"#utility.yul\":1162:1169   */\n      dup5\n        /* \"#utility.yul\":1158:1181   */\n      sub\n        /* \"#utility.yul\":1154:1186   */\n      slt\n        /* \"#utility.yul\":1151:1270   */\n      iszero\n      tag_213\n      jumpi\n        /* \"#utility.yul\":1189:1268   */\n      tag_214\n      tag_215\n      jump\t// in\n    tag_214:\n        /* \"#utility.yul\":1151:1270   */\n    tag_213:\n        /* \"#utility.yul\":1309:1310   */\n      0x00\n        /* \"#utility.yul\":1334:1387   */\n      tag_216\n        /* \"#utility.yul\":1379:1386   */\n      dup5\n        /* \"#utility.yul\":1370:1376   */\n      dup3\n        /* \"#utility.yul\":1359:1368   */\n      dup6\n        /* \"#utility.yul\":1355:1377   */\n      add\n        /* \"#utility.yul\":1334:1387   */\n      tag_198\n      jump\t// in\n    tag_216:\n        /* \"#utility.yul\":1324:1387   */\n      swap2\n      pop\n        /* \"#utility.yul\":1280:1397   */\n      pop\n        /* \"#utility.yul\":1075:1404   */\n      swap3\n      swap2\n      pop\n      pop\n      jump\t// out\n        /* \"#utility.yul\":1410:1919   */\n    tag_44:\n        /* \"#utility.yul\":1479:1485   */\n      0x00\n        /* \"#utility.yul\":1528:1530   */\n      0x20\n        /* \"#utility.yul\":1516:1525   */\n      dup3\n        /* \"#utility.yul\":1507:1514   */\n      dup5\n        /* \"#utility.yul\":1503:1526   */\n      sub\n        /* \"#utility.yul\":1499:1531   */\n      slt\n        /* \"#utility.yul\":1496:1615   */\n      iszero\n      tag_218\n      jumpi\n        /* \"#utility.yul\":1534:1613   */\n      tag_219\n      tag_215\n      jump\t// in\n    tag_219:\n        /* \"#utility.yul\":1496:1615   */\n    tag_218:\n        /* \"#utility.yul\":1682:1683   */\n      0x00\n        /* \"#utility.yul\":1671:1680   */\n      dup3\n        /* \"#utility.yul\":1667:1684   */\n      add\n        /* \"#utility.yul\":1654:1685   */\n      calldataload\n        /* \"#utility.yul\":1712:1730   */\n      0xffffffffffffffff\n        /* \"#utility.yul\":1704:1710   */\n      dup2\n        /* \"#utility.yul\":1701:1731   */\n      gt\n        /* \"#utility.yul\":1698:1815   */\n      iszero\n      tag_220\n      jumpi\n        /* \"#utility.yul\":1734:1813   */\n      tag_221\n      tag_222\n      jump\t// in\n    tag_221:\n        /* \"#utility.yul\":1698:1815   */\n    tag_220:\n        /* \"#utility.yul\":1839:1902   */\n      tag_223\n        /* \"#utility.yul\":1894:1901   */\n      dup5\n        /* \"#utility.yul\":1885:1891   */\n      dup3\n        /* \"#utility.yul\":1874:1883   */\n      dup6\n        /* \"#utility.yul\":1870:1892   */\n      add\n        /* \"#utility.yul\":1839:1902   */\n      tag_202\n      jump\t// in\n    tag_223:\n        /* \"#utility.yul\":1829:1902   */\n      swap2\n      pop\n        /* \"#utility.yul\":1625:1912   */\n      pop\n        /* \"#utility.yul\":1410:1919   */\n      swap3\n      swap2\n      pop\n      pop\n      jump\t// out\n        /* \"#utility.yul\":1925:2904   */\n    tag_40:\n        /* \"#utility.yul\":2022:2028   */\n      0x00\n        /* \"#utility.yul\":2030:2036   */\n      dup1\n        /* \"#utility.yul\":2038:2044   */\n      0x00\n        /* \"#utility.yul\":2087:2089   */\n      0x60\n        /* \"#utility.yul\":2075:2084   */\n      dup5\n        /* \"#utility.yul\":2066:2073   */\n      dup7\n        /* \"#utility.yul\":2062:2085   */\n      sub\n        /* \"#utility.yul\":2058:2090   */\n      slt\n        /* \"#utility.yul\":2055:2174   */\n      iszero\n      tag_225\n      jumpi\n        /* \"#utility.yul\":2093:2172   */\n      tag_226\n      tag_215\n      jump\t// in\n    tag_226:\n        /* \"#utility.yul\":2055:2174   */\n    tag_225:\n        /* \"#utility.yul\":2241:2242   */\n      0x00\n        /* \"#utility.yul\":2230:2239   */\n      dup5\n        /* \"#utility.yul\":2226:2243   */\n      add\n        /* \"#utility.yul\":2213:2244   */\n      calldataload\n        /* \"#utility.yul\":2271:2289   */\n      0xffffffffffffffff\n        /* \"#utility.yul\":2263:2269   */\n      dup2\n        /* \"#utility.yul\":2260:2290   */\n      gt\n        /* \"#utility.yul\":2257:2374   */\n      iszero\n      tag_227\n      jumpi\n        /* \"#utility.yul\":2293:2372   */\n      tag_228\n      tag_222\n      jump\t// in\n    tag_228:\n        /* \"#utility.yul\":2257:2374   */\n    tag_227:\n        /* \"#utility.yul\":2398:2461   */\n      tag_229\n        /* \"#utility.yul\":2453:2460   */\n      dup7\n        /* \"#utility.yul\":2444:2450   */\n      dup3\n        /* \"#utility.yul\":2433:2442   */\n      dup8\n        /* \"#utility.yul\":2429:2451   */\n      add\n        /* \"#utility.yul\":2398:2461   */\n      tag_202\n      jump\t// in\n    tag_229:\n        /* \"#utility.yul\":2388:2461   */\n      swap4\n      pop\n        /* \"#utility.yul\":2184:2471   */\n      pop\n        /* \"#utility.yul\":2510:2512   */\n      0x20\n        /* \"#utility.yul\":2536:2589   */\n      tag_230\n        /* \"#utility.yul\":2581:2588   */\n      dup7\n        /* \"#utility.yul\":2572:2578   */\n      dup3\n        /* \"#utility.yul\":2561:2570   */\n      dup8\n        /* \"#utility.yul\":2557:2579   */\n      add\n        /* \"#utility.yul\":2536:2589   */\n      tag_198\n      jump\t// in\n    tag_230:\n        /* \"#utility.yul\":2526:2589   */\n      swap3\n      pop\n        /* \"#utility.yul\":2481:2599   */\n      pop\n        /* \"#utility.yul\":2666:2668   */\n      0x40\n        /* \"#utility.yul\":2655:2664   */\n      dup5\n        /* \"#utility.yul\":2651:2669   */\n      add\n        /* \"#utility.yul\":2638:2670   */\n      calldataload\n        /* \"#utility.yul\":2697:2715   */\n      0xffffffffffffffff\n        /* \"#utility.yul\":2689:2695   */\n      dup2\n        /* \"#utility.yul\":2686:2716   */\n      gt\n        /* \"#utility.yul\":2683:2800   */\n      iszero\n      tag_231\n      jumpi\n        /* \"#utility.yul\":2719:2798   */\n      tag_232\n      tag_222\n      jump\t// in\n    tag_232:\n        /* \"#utility.yul\":2683:2800   */\n    tag_231:\n        /* \"#utility.yul\":2824:2887   */\n      tag_233\n        /* \"#utility.yul\":2879:2886   */\n      dup7\n        /* \"#utility.yul\":2870:2876   */\n      dup3\n        /* \"#utility.yul\":2859:2868   */\n      dup8\n        /* \"#utility.yul\":2855:2877   */\n      add\n        /* \"#utility.yul\":2824:2887   */\n      tag_202\n      jump\t// in\n    tag_233:\n        /* \"#utility.yul\":2814:2887   */\n      swap2\n      pop\n        /* \"#utility.yul\":2609:2897   */\n      pop\n        /* \"#utility.yul\":1925:2904   */\n      swap3\n      pop\n      swap3\n      pop\n      swap3\n      jump\t// out\n        /* \"#utility.yul\":2910:3239   */\n    tag_14:\n        /* \"#utility.yul\":2969:2975   */\n      0x00\n        /* \"#utility.yul\":3018:3020   */\n      0x20\n        /* \"#utility.yul\":3006:3015   */\n      dup3\n        /* \"#utility.yul\":2997:3004   */\n      dup5\n        /* \"#utility.yul\":2993:3016   */\n      sub\n        /* \"#utility.yul\":2989:3021   */\n      slt\n        /* \"#utility.yul\":2986:3105   */\n      iszero\n      tag_235\n      jumpi\n        /* \"#utility.yul\":3024:3103   */\n      tag_236\n      tag_215\n      jump\t// in\n    tag_236:\n        /* \"#utility.yul\":2986:3105   */\n    tag_235:\n        /* \"#utility.yul\":3144:3145   */\n      0x00\n        /* \"#utility.yul\":3169:3222   */\n      tag_237\n        /* \"#utility.yul\":3214:3221   */\n      dup5\n        /* \"#utility.yul\":3205:3211   */\n      dup3\n        /* \"#utility.yul\":3194:3203   */\n      dup6\n        /* \"#utility.yul\":3190:3212   */\n      add\n        /* \"#utility.yul\":3169:3222   */\n      tag_208\n      jump\t// in\n    tag_237:\n        /* \"#utility.yul\":3159:3222   */\n      swap2\n      pop\n        /* \"#utility.yul\":3115:3232   */\n      pop\n        /* \"#utility.yul\":2910:3239   */\n      swap3\n      swap2\n      pop\n      pop\n      jump\t// out\n        /* \"#utility.yul\":3245:3899   */\n    tag_24:\n        /* \"#utility.yul\":3323:3329   */\n      0x00\n        /* \"#utility.yul\":3331:3337   */\n      dup1\n        /* \"#utility.yul\":3380:3382   */\n      0x40\n        /* \"#utility.yul\":3368:3377   */\n      dup4\n        /* \"#utility.yul\":3359:3366   */\n      dup6\n        /* \"#utility.yul\":3355:3378   */\n      sub\n        /* \"#utility.yul\":3351:3383   */\n      slt\n        /* \"#utility.yul\":3348:3467   */\n      iszero\n      tag_239\n      jumpi\n        /* \"#utility.yul\":3386:3465   */\n      tag_240\n      tag_215\n      jump\t// in\n    tag_240:\n        /* \"#utility.yul\":3348:3467   */\n    tag_239:\n        /* \"#utility.yul\":3506:3507   */\n      0x00\n        /* \"#utility.yul\":3531:3584   */\n      tag_241\n        /* \"#utility.yul\":3576:3583   */\n      dup6\n        /* \"#utility.yul\":3567:3573   */\n      dup3\n        /* \"#utility.yul\":3556:3565   */\n      dup7\n        /* \"#utility.yul\":3552:3574   */\n      add\n        /* \"#utility.yul\":3531:3584   */\n      tag_208\n      jump\t// in\n    tag_241:\n        /* \"#utility.yul\":3521:3584   */\n      swap3\n      pop\n        /* \"#utility.yul\":3477:3594   */\n      pop\n        /* \"#utility.yul\":3661:3663   */\n      0x20\n        /* \"#utility.yul\":3650:3659   */\n      dup4\n        /* \"#utility.yul\":3646:3664   */\n      add\n        /* \"#utility.yul\":3633:3665   */\n      calldataload\n        /* \"#utility.yul\":3692:3710   */\n      0xffffffffffffffff\n        /* \"#utility.yul\":3684:3690   */\n      dup2\n        /* \"#utility.yul\":3681:3711   */\n      gt\n        /* \"#utility.yul\":3678:3795   */\n      iszero\n      tag_242\n      jumpi\n        /* \"#utility.yul\":3714:3793   */\n      tag_243\n      tag_222\n      jump\t// in\n    tag_243:\n        /* \"#utility.yul\":3678:3795   */\n    tag_242:\n        /* \"#utility.yul\":3819:3882   */\n      tag_244\n        /* \"#utility.yul\":3874:3881   */\n      dup6\n        /* \"#utility.yul\":3865:3871   */\n      dup3\n        /* \"#utility.yul\":3854:3863   */\n      dup7\n        /* \"#utility.yul\":3850:3872   */\n      add\n        /* \"#utility.yul\":3819:3882   */\n      tag_202\n      jump\t// in\n    tag_244:\n        /* \"#utility.yul\":3809:3882   */\n      swap2\n      pop\n        /* \"#utility.yul\":3604:3892   */\n      pop\n        /* \"#utility.yul\":3245:3899   */\n      swap3\n      pop\n      swap3\n      swap1\n      pop\n      jump\t// out\n        /* \"#utility.yul\":3905:4173   */\n    tag_245:\n        /* \"#utility.yul\":4030:4040   */\n      0x00\n        /* \"#utility.yul\":4065:4167   */\n      tag_247\n        /* \"#utility.yul\":4163:4166   */\n      dup4\n        /* \"#utility.yul\":4155:4161   */\n      dup4\n        /* \"#utility.yul\":4065:4167   */\n      tag_248\n      jump\t// in\n    tag_247:\n        /* \"#utility.yul\":4051:4167   */\n      swap1\n      pop\n        /* \"#utility.yul\":3905:4173   */\n      swap3\n      swap2\n      pop\n      pop\n      jump\t// out\n        /* \"#utility.yul\":4179:4287   */\n    tag_249:\n        /* \"#utility.yul\":4256:4280   */\n      tag_251\n        /* \"#utility.yul\":4274:4279   */\n      dup2\n        /* \"#utility.yul\":4256:4280   */\n      tag_252\n      jump\t// in\n    tag_251:\n        /* \"#utility.yul\":4251:4254   */\n      dup3\n        /* \"#utility.yul\":4244:4281   */\n      mstore\n        /* \"#utility.yul\":4179:4287   */\n      pop\n      pop\n      jump\t// out\n        /* \"#utility.yul\":4293:4411   */\n    tag_253:\n        /* \"#utility.yul\":4380:4404   */\n      tag_255\n        /* \"#utility.yul\":4398:4403   */\n      dup2\n        /* \"#utility.yul\":4380:4404   */\n      tag_252\n      jump\t// in\n    tag_255:\n        /* \"#utility.yul\":4375:4378   */\n      dup3\n        /* \"#utility.yul\":4368:4405   */\n      mstore\n        /* \"#utility.yul\":4293:4411   */\n      pop\n      pop\n      jump\t// out\n        /* \"#utility.yul\":4513:5648   */\n    tag_256:\n        /* \"#utility.yul\":4688:4691   */\n      0x00\n        /* \"#utility.yul\":4717:4799   */\n      tag_258\n        /* \"#utility.yul\":4793:4798   */\n      dup3\n        /* \"#utility.yul\":4717:4799   */\n      tag_259\n      jump\t// in\n    tag_258:\n        /* \"#utility.yul\":4815:4929   */\n      tag_260\n        /* \"#utility.yul\":4922:4928   */\n      dup2\n        /* \"#utility.yul\":4917:4920   */\n      dup6\n        /* \"#utility.yul\":4815:4929   */\n      tag_261\n      jump\t// in\n    tag_260:\n        /* \"#utility.yul\":4808:4929   */\n      swap4\n      pop\n        /* \"#utility.yul\":4955:4958   */\n      dup4\n        /* \"#utility.yul\":5000:5004   */\n      0x20\n        /* \"#utility.yul\":4992:4998   */\n      dup3\n        /* \"#utility.yul\":4988:5005   */\n      mul\n        /* \"#utility.yul\":4983:4986   */\n      dup6\n        /* \"#utility.yul\":4979:5006   */\n      add\n        /* \"#utility.yul\":5030:5114   */\n      tag_262\n        /* \"#utility.yul\":5108:5113   */\n      dup6\n        /* \"#utility.yul\":5030:5114   */\n      tag_263\n      jump\t// in\n    tag_262:\n        /* \"#utility.yul\":5137:5144   */\n      dup1\n        /* \"#utility.yul\":5168:5169   */\n      0x00\n        /* \"#utility.yul\":5153:5603   */\n    tag_264:\n        /* \"#utility.yul\":5178:5184   */\n      dup6\n        /* \"#utility.yul\":5175:5176   */\n      dup2\n        /* \"#utility.yul\":5172:5185   */\n      lt\n        /* \"#utility.yul\":5153:5603   */\n      iszero\n      tag_266\n      jumpi\n        /* \"#utility.yul\":5249:5258   */\n      dup5\n        /* \"#utility.yul\":5243:5247   */\n      dup5\n        /* \"#utility.yul\":5239:5259   */\n      sub\n        /* \"#utility.yul\":5234:5237   */\n      dup10\n        /* \"#utility.yul\":5227:5260   */\n      mstore\n        /* \"#utility.yul\":5300:5306   */\n      dup2\n        /* \"#utility.yul\":5294:5307   */\n      mload\n        /* \"#utility.yul\":5328:5448   */\n      tag_267\n        /* \"#utility.yul\":5443:5447   */\n      dup6\n        /* \"#utility.yul\":5428:5441   */\n      dup3\n        /* \"#utility.yul\":5328:5448   */\n      tag_245\n      jump\t// in\n    tag_267:\n        /* \"#utility.yul\":5320:5448   */\n      swap5\n      pop\n        /* \"#utility.yul\":5471:5559   */\n      tag_268\n        /* \"#utility.yul\":5552:5558   */\n      dup4\n        /* \"#utility.yul\":5471:5559   */\n      tag_269\n      jump\t// in\n    tag_268:\n        /* \"#utility.yul\":5461:5559   */\n      swap3\n      pop\n        /* \"#utility.yul\":5588:5592   */\n      0x20\n        /* \"#utility.yul\":5583:5586   */\n      dup11\n        /* \"#utility.yul\":5579:5593   */\n      add\n        /* \"#utility.yul\":5572:5593   */\n      swap10\n      pop\n        /* \"#utility.yul\":5213:5603   */\n      pop\n        /* \"#utility.yul\":5200:5201   */\n      0x01\n        /* \"#utility.yul\":5197:5198   */\n      dup2\n        /* \"#utility.yul\":5193:5202   */\n      add\n        /* \"#utility.yul\":5188:5202   */\n      swap1\n      pop\n        /* \"#utility.yul\":5153:5603   */\n      jump(tag_264)\n    tag_266:\n        /* \"#utility.yul\":5157:5171   */\n      pop\n        /* \"#utility.yul\":5619:5623   */\n      dup3\n        /* \"#utility.yul\":5612:5623   */\n      swap8\n      pop\n        /* \"#utility.yul\":5639:5642   */\n      dup8\n        /* \"#utility.yul\":5632:5642   */\n      swap6\n      pop\n        /* \"#utility.yul\":4693:5648   */\n      pop\n      pop\n      pop\n      pop\n      pop\n        /* \"#utility.yul\":4513:5648   */\n      swap3\n      swap2\n      pop\n      pop\n      jump\t// out\n        /* \"#utility.yul\":5654:5998   */\n    tag_270:\n        /* \"#utility.yul\":5732:5735   */\n      0x00\n        /* \"#utility.yul\":5760:5799   */\n      tag_272\n        /* \"#utility.yul\":5793:5798   */\n      dup3\n        /* \"#utility.yul\":5760:5799   */\n      tag_273\n      jump\t// in\n    tag_272:\n        /* \"#utility.yul\":5815:5876   */\n      tag_274\n        /* \"#utility.yul\":5869:5875   */\n      dup2\n        /* \"#utility.yul\":5864:5867   */\n      dup6\n        /* \"#utility.yul\":5815:5876   */\n      tag_275\n      jump\t// in\n    tag_274:\n        /* \"#utility.yul\":5808:5876   */\n      swap4\n      pop\n        /* \"#utility.yul\":5885:5937   */\n      tag_276\n        /* \"#utility.yul\":5930:5936   */\n      dup2\n        /* \"#utility.yul\":5925:5928   */\n      dup6\n        /* \"#utility.yul\":5918:5922   */\n      0x20\n        /* \"#utility.yul\":5911:5916   */\n      dup7\n        /* \"#utility.yul\":5907:5923   */\n      add\n        /* \"#utility.yul\":5885:5937   */\n      tag_277\n      jump\t// in\n    tag_276:\n        /* \"#utility.yul\":5962:5991   */\n      tag_278\n        /* \"#utility.yul\":5984:5990   */\n      dup2\n        /* \"#utility.yul\":5962:5991   */\n      tag_279\n      jump\t// in\n    tag_278:\n        /* \"#utility.yul\":5957:5960   */\n      dup5\n        /* \"#utility.yul\":5953:5992   */\n      add\n        /* \"#utility.yul\":5946:5992   */\n      swap2\n      pop\n        /* \"#utility.yul\":5736:5998   */\n      pop\n        /* \"#utility.yul\":5654:5998   */\n      swap3\n      swap2\n      pop\n      pop\n      jump\t// out\n        /* \"#utility.yul\":6004:6368   */\n    tag_280:\n        /* \"#utility.yul\":6092:6095   */\n      0x00\n        /* \"#utility.yul\":6120:6159   */\n      tag_282\n        /* \"#utility.yul\":6153:6158   */\n      dup3\n        /* \"#utility.yul\":6120:6159   */\n      tag_273\n      jump\t// in\n    tag_282:\n        /* \"#utility.yul\":6175:6246   */\n      tag_283\n        /* \"#utility.yul\":6239:6245   */\n      dup2\n        /* \"#utility.yul\":6234:6237   */\n      dup6\n        /* \"#utility.yul\":6175:6246   */\n      tag_284\n      jump\t// in\n    tag_283:\n        /* \"#utility.yul\":6168:6246   */\n      swap4\n      pop\n        /* \"#utility.yul\":6255:6307   */\n      tag_285\n        /* \"#utility.yul\":6300:6306   */\n      dup2\n        /* \"#utility.yul\":6295:6298   */\n      dup6\n        /* \"#utility.yul\":6288:6292   */\n      0x20\n        /* \"#utility.yul\":6281:6286   */\n      dup7\n        /* \"#utility.yul\":6277:6293   */\n      add\n        /* \"#utility.yul\":6255:6307   */\n      tag_277\n      jump\t// in\n    tag_285:\n        /* \"#utility.yul\":6332:6361   */\n      tag_286\n        /* \"#utility.yul\":6354:6360   */\n      dup2\n        /* \"#utility.yul\":6332:6361   */\n      tag_279\n      jump\t// in\n    tag_286:\n        /* \"#utility.yul\":6327:6330   */\n      dup5\n        /* \"#utility.yul\":6323:6362   */\n      add\n        /* \"#utility.yul\":6316:6362   */\n      swap2\n      pop\n        /* \"#utility.yul\":6096:6368   */\n      pop\n        /* \"#utility.yul\":6004:6368   */\n      swap3\n      swap2\n      pop\n      pop\n      jump\t// out\n        /* \"#utility.yul\":6466:8142   */\n    tag_248:\n        /* \"#utility.yul\":6581:6584   */\n      0x00\n        /* \"#utility.yul\":6617:6623   */\n      0x0100\n        /* \"#utility.yul\":6612:6615   */\n      dup4\n        /* \"#utility.yul\":6608:6624   */\n      add\n        /* \"#utility.yul\":6705:6709   */\n      0x00\n        /* \"#utility.yul\":6698:6703   */\n      dup4\n        /* \"#utility.yul\":6694:6710   */\n      add\n        /* \"#utility.yul\":6688:6711   */\n      mload\n        /* \"#utility.yul\":6724:6787   */\n      tag_288\n        /* \"#utility.yul\":6781:6785   */\n      0x00\n        /* \"#utility.yul\":6776:6779   */\n      dup7\n        /* \"#utility.yul\":6772:6786   */\n      add\n        /* \"#utility.yul\":6758:6770   */\n      dup3\n        /* \"#utility.yul\":6724:6787   */\n      tag_289\n      jump\t// in\n    tag_288:\n        /* \"#utility.yul\":6634:6797   */\n      pop\n        /* \"#utility.yul\":6880:6884   */\n      0x20\n        /* \"#utility.yul\":6873:6878   */\n      dup4\n        /* \"#utility.yul\":6869:6885   */\n      add\n        /* \"#utility.yul\":6863:6886   */\n      mload\n        /* \"#utility.yul\":6933:6936   */\n      dup5\n        /* \"#utility.yul\":6927:6931   */\n      dup3\n        /* \"#utility.yul\":6923:6937   */\n      sub\n        /* \"#utility.yul\":6916:6920   */\n      0x20\n        /* \"#utility.yul\":6911:6914   */\n      dup7\n        /* \"#utility.yul\":6907:6921   */\n      add\n        /* \"#utility.yul\":6900:6938   */\n      mstore\n        /* \"#utility.yul\":6959:7032   */\n      tag_290\n        /* \"#utility.yul\":7027:7031   */\n      dup3\n        /* \"#utility.yul\":7013:7025   */\n      dup3\n        /* \"#utility.yul\":6959:7032   */\n      tag_270\n      jump\t// in\n    tag_290:\n        /* \"#utility.yul\":6951:7032   */\n      swap2\n      pop\n        /* \"#utility.yul\":6807:7043   */\n      pop\n        /* \"#utility.yul\":7127:7131   */\n      0x40\n        /* \"#utility.yul\":7120:7125   */\n      dup4\n        /* \"#utility.yul\":7116:7132   */\n      add\n        /* \"#utility.yul\":7110:7133   */\n      mload\n        /* \"#utility.yul\":7146:7209   */\n      tag_291\n        /* \"#utility.yul\":7203:7207   */\n      0x40\n        /* \"#utility.yul\":7198:7201   */\n      dup7\n        /* \"#utility.yul\":7194:7208   */\n      add\n        /* \"#utility.yul\":7180:7192   */\n      dup3\n        /* \"#utility.yul\":7146:7209   */\n      tag_289\n      jump\t// in\n    tag_291:\n        /* \"#utility.yul\":7053:7219   */\n      pop\n        /* \"#utility.yul\":7304:7308   */\n      0x60\n        /* \"#utility.yul\":7297:7302   */\n      dup4\n        /* \"#utility.yul\":7293:7309   */\n      add\n        /* \"#utility.yul\":7287:7310   */\n      mload\n        /* \"#utility.yul\":7323:7386   */\n      tag_292\n        /* \"#utility.yul\":7380:7384   */\n      0x60\n        /* \"#utility.yul\":7375:7378   */\n      dup7\n        /* \"#utility.yul\":7371:7385   */\n      add\n        /* \"#utility.yul\":7357:7369   */\n      dup3\n        /* \"#utility.yul\":7323:7386   */\n      tag_249\n      jump\t// in\n    tag_292:\n        /* \"#utility.yul\":7229:7396   */\n      pop\n        /* \"#utility.yul\":7483:7487   */\n      0x80\n        /* \"#utility.yul\":7476:7481   */\n      dup4\n        /* \"#utility.yul\":7472:7488   */\n      add\n        /* \"#utility.yul\":7466:7489   */\n      mload\n        /* \"#utility.yul\":7502:7565   */\n      tag_293\n        /* \"#utility.yul\":7559:7563   */\n      0x80\n        /* \"#utility.yul\":7554:7557   */\n      dup7\n        /* \"#utility.yul\":7550:7564   */\n      add\n        /* \"#utility.yul\":7536:7548   */\n      dup3\n        /* \"#utility.yul\":7502:7565   */\n      tag_249\n      jump\t// in\n    tag_293:\n        /* \"#utility.yul\":7406:7575   */\n      pop\n        /* \"#utility.yul\":7660:7664   */\n      0xa0\n        /* \"#utility.yul\":7653:7658   */\n      dup4\n        /* \"#utility.yul\":7649:7665   */\n      add\n        /* \"#utility.yul\":7643:7666   */\n      mload\n        /* \"#utility.yul\":7679:7742   */\n      tag_294\n        /* \"#utility.yul\":7736:7740   */\n      0xa0\n        /* \"#utility.yul\":7731:7734   */\n      dup7\n        /* \"#utility.yul\":7727:7741   */\n      add\n        /* \"#utility.yul\":7713:7725   */\n      dup3\n        /* \"#utility.yul\":7679:7742   */\n      tag_289\n      jump\t// in\n    tag_294:\n        /* \"#utility.yul\":7585:7752   */\n      pop\n        /* \"#utility.yul\":7841:7845   */\n      0xc0\n        /* \"#utility.yul\":7834:7839   */\n      dup4\n        /* \"#utility.yul\":7830:7846   */\n      add\n        /* \"#utility.yul\":7824:7847   */\n      mload\n        /* \"#utility.yul\":7860:7923   */\n      tag_295\n        /* \"#utility.yul\":7917:7921   */\n      0xc0\n        /* \"#utility.yul\":7912:7915   */\n      dup7\n        /* \"#utility.yul\":7908:7922   */\n      add\n        /* \"#utility.yul\":7894:7906   */\n      dup3\n        /* \"#utility.yul\":7860:7923   */\n      tag_289\n      jump\t// in\n    tag_295:\n        /* \"#utility.yul\":7762:7933   */\n      pop\n        /* \"#utility.yul\":8023:8027   */\n      0xe0\n        /* \"#utility.yul\":8016:8021   */\n      dup4\n        /* \"#utility.yul\":8012:8028   */\n      add\n        /* \"#utility.yul\":8006:8029   */\n      mload\n        /* \"#utility.yul\":8042:8105   */\n      tag_296\n        /* \"#utility.yul\":8099:8103   */\n      0xe0\n        /* \"#utility.yul\":8094:8097   */\n      dup7\n        /* \"#utility.yul\":8090:8104   */\n      add\n        /* \"#utility.yul\":8076:8088   */\n      dup3\n        /* \"#utility.yul\":8042:8105   */\n      tag_289\n      jump\t// in\n    tag_296:\n        /* \"#utility.yul\":7943:8115   */\n      pop\n        /* \"#utility.yul\":8132:8136   */\n      dup1\n        /* \"#utility.yul\":8125:8136   */\n      swap2\n      pop\n        /* \"#utility.yul\":6586:8142   */\n      pop\n        /* \"#utility.yul\":6466:8142   */\n      swap3\n      swap2\n      pop\n      pop\n      jump\t// out\n        /* \"#utility.yul\":8148:8256   */\n    tag_289:\n        /* \"#utility.yul\":8225:8249   */\n      tag_298\n        /* \"#utility.yul\":8243:8248   */\n      dup2\n        /* \"#utility.yul\":8225:8249   */\n      tag_299\n      jump\t// in\n    tag_298:\n        /* \"#utility.yul\":8220:8223   */\n      dup3\n        /* \"#utility.yul\":8213:8250   */\n      mstore\n        /* \"#utility.yul\":8148:8256   */\n      pop\n      pop\n      jump\t// out\n        /* \"#utility.yul\":8262:8380   */\n    tag_300:\n        /* \"#utility.yul\":8349:8373   */\n      tag_302\n        /* \"#utility.yul\":8367:8372   */\n      dup2\n        /* \"#utility.yul\":8349:8373   */\n      tag_299\n      jump\t// in\n    tag_302:\n        /* \"#utility.yul\":8344:8347   */\n      dup3\n        /* \"#utility.yul\":8337:8374   */\n      mstore\n        /* \"#utility.yul\":8262:8380   */\n      pop\n      pop\n      jump\t// out\n        /* \"#utility.yul\":8386:8871   */\n    tag_21:\n        /* \"#utility.yul\":8585:8589   */\n      0x00\n        /* \"#utility.yul\":8623:8625   */\n      0x20\n        /* \"#utility.yul\":8612:8621   */\n      dup3\n        /* \"#utility.yul\":8608:8626   */\n      add\n        /* \"#utility.yul\":8600:8626   */\n      swap1\n      pop\n        /* \"#utility.yul\":8672:8681   */\n      dup2\n        /* \"#utility.yul\":8666:8670   */\n      dup2\n        /* \"#utility.yul\":8662:8682   */\n      sub\n        /* \"#utility.yul\":8658:8659   */\n      0x00\n        /* \"#utility.yul\":8647:8656   */\n      dup4\n        /* \"#utility.yul\":8643:8660   */\n      add\n        /* \"#utility.yul\":8636:8683   */\n      mstore\n        /* \"#utility.yul\":8700:8864   */\n      tag_304\n        /* \"#utility.yul\":8859:8863   */\n      dup2\n        /* \"#utility.yul\":8850:8856   */\n      dup5\n        /* \"#utility.yul\":8700:8864   */\n      tag_256\n      jump\t// in\n    tag_304:\n        /* \"#utility.yul\":8692:8864   */\n      swap1\n      pop\n        /* \"#utility.yul\":8386:8871   */\n      swap3\n      swap2\n      pop\n      pop\n      jump\t// out\n        /* \"#utility.yul\":8877:9099   */\n    tag_47:\n        /* \"#utility.yul\":8970:8974   */\n      0x00\n        /* \"#utility.yul\":9008:9010   */\n      0x20\n        /* \"#utility.yul\":8997:9006   */\n      dup3\n        /* \"#utility.yul\":8993:9011   */\n      add\n        /* \"#utility.yul\":8985:9011   */\n      swap1\n      pop\n        /* \"#utility.yul\":9021:9092   */\n      tag_306\n        /* \"#utility.yul\":9089:9090   */\n      0x00\n        /* \"#utility.yul\":9078:9087   */\n      dup4\n        /* \"#utility.yul\":9074:9091   */\n      add\n        /* \"#utility.yul\":9065:9071   */\n      dup5\n        /* \"#utility.yul\":9021:9092   */\n      tag_300\n      jump\t// in\n    tag_306:\n        /* \"#utility.yul\":8877:9099   */\n      swap3\n      swap2\n      pop\n      pop\n      jump\t// out\n        /* \"#utility.yul\":9105:10193   */\n    tag_33:\n        /* \"#utility.yul\":9414:9418   */\n      0x00\n        /* \"#utility.yul\":9452:9455   */\n      0x0100\n        /* \"#utility.yul\":9441:9450   */\n      dup3\n        /* \"#utility.yul\":9437:9456   */\n      add\n        /* \"#utility.yul\":9429:9456   */\n      swap1\n      pop\n        /* \"#utility.yul\":9466:9537   */\n      tag_308\n        /* \"#utility.yul\":9534:9535   */\n      0x00\n        /* \"#utility.yul\":9523:9532   */\n      dup4\n        /* \"#utility.yul\":9519:9536   */\n      add\n        /* \"#utility.yul\":9510:9516   */\n      dup12\n        /* \"#utility.yul\":9466:9537   */\n      tag_300\n      jump\t// in\n    tag_308:\n        /* \"#utility.yul\":9584:9593   */\n      dup2\n        /* \"#utility.yul\":9578:9582   */\n      dup2\n        /* \"#utility.yul\":9574:9594   */\n      sub\n        /* \"#utility.yul\":9569:9571   */\n      0x20\n        /* \"#utility.yul\":9558:9567   */\n      dup4\n        /* \"#utility.yul\":9554:9572   */\n      add\n        /* \"#utility.yul\":9547:9595   */\n      mstore\n        /* \"#utility.yul\":9612:9690   */\n      tag_309\n        /* \"#utility.yul\":9685:9689   */\n      dup2\n        /* \"#utility.yul\":9676:9682   */\n      dup11\n        /* \"#utility.yul\":9612:9690   */\n      tag_280\n      jump\t// in\n    tag_309:\n        /* \"#utility.yul\":9604:9690   */\n      swap1\n      pop\n        /* \"#utility.yul\":9700:9772   */\n      tag_310\n        /* \"#utility.yul\":9768:9770   */\n      0x40\n        /* \"#utility.yul\":9757:9766   */\n      dup4\n        /* \"#utility.yul\":9753:9771   */\n      add\n        /* \"#utility.yul\":9744:9750   */\n      dup10\n        /* \"#utility.yul\":9700:9772   */\n      tag_300\n      jump\t// in\n    tag_310:\n        /* \"#utility.yul\":9782:9854   */\n      tag_311\n        /* \"#utility.yul\":9850:9852   */\n      0x60\n        /* \"#utility.yul\":9839:9848   */\n      dup4\n        /* \"#utility.yul\":9835:9853   */\n      add\n        /* \"#utility.yul\":9826:9832   */\n      dup9\n        /* \"#utility.yul\":9782:9854   */\n      tag_253\n      jump\t// in\n    tag_311:\n        /* \"#utility.yul\":9864:9937   */\n      tag_312\n        /* \"#utility.yul\":9932:9935   */\n      0x80\n        /* \"#utility.yul\":9921:9930   */\n      dup4\n        /* \"#utility.yul\":9917:9936   */\n      add\n        /* \"#utility.yul\":9908:9914   */\n      dup8\n        /* \"#utility.yul\":9864:9937   */\n      tag_253\n      jump\t// in\n    tag_312:\n        /* \"#utility.yul\":9947:10020   */\n      tag_313\n        /* \"#utility.yul\":10015:10018   */\n      0xa0\n        /* \"#utility.yul\":10004:10013   */\n      dup4\n        /* \"#utility.yul\":10000:10019   */\n      add\n        /* \"#utility.yul\":9991:9997   */\n      dup7\n        /* \"#utility.yul\":9947:10020   */\n      tag_300\n      jump\t// in\n    tag_313:\n        /* \"#utility.yul\":10030:10103   */\n      tag_314\n        /* \"#utility.yul\":10098:10101   */\n      0xc0\n        /* \"#utility.yul\":10087:10096   */\n      dup4\n        /* \"#utility.yul\":10083:10102   */\n      add\n        /* \"#utility.yul\":10074:10080   */\n      dup6\n        /* \"#utility.yul\":10030:10103   */\n      tag_300\n      jump\t// in\n    tag_314:\n        /* \"#utility.yul\":10113:10186   */\n      tag_315\n        /* \"#utility.yul\":10181:10184   */\n      0xe0\n        /* \"#utility.yul\":10170:10179   */\n      dup4\n        /* \"#utility.yul\":10166:10185   */\n      add\n        /* \"#utility.yul\":10157:10163   */\n      dup5\n        /* \"#utility.yul\":10113:10186   */\n      tag_300\n      jump\t// in\n    tag_315:\n        /* \"#utility.yul\":9105:10193   */\n      swap10\n      swap9\n      pop\n      pop\n      pop\n      pop\n      pop\n      pop\n      pop\n      pop\n      pop\n      jump\t// out\n        /* \"#utility.yul\":10199:10328   */\n    tag_192:\n        /* \"#utility.yul\":10233:10239   */\n      0x00\n        /* \"#utility.yul\":10260:10280   */\n      tag_317\n      tag_318\n      jump\t// in\n    tag_317:\n        /* \"#utility.yul\":10250:10280   */\n      swap1\n      pop\n        /* \"#utility.yul\":10289:10322   */\n      tag_319\n        /* \"#utility.yul\":10317:10321   */\n      dup3\n        /* \"#utility.yul\":10309:10315   */\n      dup3\n        /* \"#utility.yul\":10289:10322   */\n      tag_320\n      jump\t// in\n    tag_319:\n        /* \"#utility.yul\":10199:10328   */\n      swap2\n      swap1\n      pop\n      jump\t// out\n        /* \"#utility.yul\":10334:10409   */\n    tag_318:\n        /* \"#utility.yul\":10367:10373   */\n      0x00\n        /* \"#utility.yul\":10400:10402   */\n      0x40\n        /* \"#utility.yul\":10394:10403   */\n      mload\n        /* \"#utility.yul\":10384:10403   */\n      swap1\n      pop\n        /* \"#utility.yul\":10334:10409   */\n      swap1\n      jump\t// out\n        /* \"#utility.yul\":10415:10723   */\n    tag_191:\n        /* \"#utility.yul\":10477:10481   */\n      0x00\n        /* \"#utility.yul\":10567:10585   */\n      0xffffffffffffffff\n        /* \"#utility.yul\":10559:10565   */\n      dup3\n        /* \"#utility.yul\":10556:10586   */\n      gt\n        /* \"#utility.yul\":10553:10609   */\n      iszero\n      tag_323\n      jumpi\n        /* \"#utility.yul\":10589:10607   */\n      tag_324\n      tag_325\n      jump\t// in\n    tag_324:\n        /* \"#utility.yul\":10553:10609   */\n    tag_323:\n        /* \"#utility.yul\":10627:10656   */\n      tag_326\n        /* \"#utility.yul\":10649:10655   */\n      dup3\n        /* \"#utility.yul\":10627:10656   */\n      tag_279\n      jump\t// in\n    tag_326:\n        /* \"#utility.yul\":10619:10656   */\n      swap1\n      pop\n        /* \"#utility.yul\":10711:10715   */\n      0x20\n        /* \"#utility.yul\":10705:10709   */\n      dup2\n        /* \"#utility.yul\":10701:10716   */\n      add\n        /* \"#utility.yul\":10693:10716   */\n      swap1\n      pop\n        /* \"#utility.yul\":10415:10723   */\n      swap2\n      swap1\n      pop\n      jump\t// out\n        /* \"#utility.yul\":10729:10889   */\n    tag_263:\n        /* \"#utility.yul\":10824:10828   */\n      0x00\n        /* \"#utility.yul\":10847:10850   */\n      dup2\n        /* \"#utility.yul\":10839:10850   */\n      swap1\n      pop\n        /* \"#utility.yul\":10877:10881   */\n      0x20\n        /* \"#utility.yul\":10872:10875   */\n      dup3\n        /* \"#utility.yul\":10868:10882   */\n      add\n        /* \"#utility.yul\":10860:10882   */\n      swap1\n      pop\n        /* \"#utility.yul\":10729:10889   */\n      swap2\n      swap1\n      pop\n      jump\t// out\n        /* \"#utility.yul\":10895:11037   */\n    tag_259:\n        /* \"#utility.yul\":10990:10996   */\n      0x00\n        /* \"#utility.yul\":11024:11029   */\n      dup2\n        /* \"#utility.yul\":11018:11030   */\n      mload\n        /* \"#utility.yul\":11008:11030   */\n      swap1\n      pop\n        /* \"#utility.yul\":10895:11037   */\n      swap2\n      swap1\n      pop\n      jump\t// out\n        /* \"#utility.yul\":11043:11142   */\n    tag_273:\n        /* \"#utility.yul\":11095:11101   */\n      0x00\n        /* \"#utility.yul\":11129:11134   */\n      dup2\n        /* \"#utility.yul\":11123:11135   */\n      mload\n        /* \"#utility.yul\":11113:11135   */\n      swap1\n      pop\n        /* \"#utility.yul\":11043:11142   */\n      swap2\n      swap1\n      pop\n      jump\t// out\n        /* \"#utility.yul\":11148:11289   */\n    tag_269:\n        /* \"#utility.yul\":11246:11250   */\n      0x00\n        /* \"#utility.yul\":11278:11282   */\n      0x20\n        /* \"#utility.yul\":11273:11276   */\n      dup3\n        /* \"#utility.yul\":11269:11283   */\n      add\n        /* \"#utility.yul\":11261:11283   */\n      swap1\n      pop\n        /* \"#utility.yul\":11148:11289   */\n      swap2\n      swap1\n      pop\n      jump\t// out\n        /* \"#utility.yul\":11295:11507   */\n    tag_261:\n        /* \"#utility.yul\":11422:11433   */\n      0x00\n        /* \"#utility.yul\":11456:11462   */\n      dup3\n        /* \"#utility.yul\":11451:11454   */\n      dup3\n        /* \"#utility.yul\":11444:11463   */\n      mstore\n        /* \"#utility.yul\":11496:11500   */\n      0x20\n        /* \"#utility.yul\":11491:11494   */\n      dup3\n        /* \"#utility.yul\":11487:11501   */\n      add\n        /* \"#utility.yul\":11472:11501   */\n      swap1\n      pop\n        /* \"#utility.yul\":11295:11507   */\n      swap3\n      swap2\n      pop\n      pop\n      jump\t// out\n        /* \"#utility.yul\":11513:11672   */\n    tag_275:\n        /* \"#utility.yul\":11587:11598   */\n      0x00\n        /* \"#utility.yul\":11621:11627   */\n      dup3\n        /* \"#utility.yul\":11616:11619   */\n      dup3\n        /* \"#utility.yul\":11609:11628   */\n      mstore\n        /* \"#utility.yul\":11661:11665   */\n      0x20\n        /* \"#utility.yul\":11656:11659   */\n      dup3\n        /* \"#utility.yul\":11652:11666   */\n      add\n        /* \"#utility.yul\":11637:11666   */\n      swap1\n      pop\n        /* \"#utility.yul\":11513:11672   */\n      swap3\n      swap2\n      pop\n      pop\n      jump\t// out\n        /* \"#utility.yul\":11678:11847   */\n    tag_284:\n        /* \"#utility.yul\":11762:11773   */\n      0x00\n        /* \"#utility.yul\":11796:11802   */\n      dup3\n        /* \"#utility.yul\":11791:11794   */\n      dup3\n        /* \"#utility.yul\":11784:11803   */\n      mstore\n        /* \"#utility.yul\":11836:11840   */\n      0x20\n        /* \"#utility.yul\":11831:11834   */\n      dup3\n        /* \"#utility.yul\":11827:11841   */\n      add\n        /* \"#utility.yul\":11812:11841   */\n      swap1\n      pop\n        /* \"#utility.yul\":11678:11847   */\n      swap3\n      swap2\n      pop\n      pop\n      jump\t// out\n        /* \"#utility.yul\":11853:12158   */\n    tag_56:\n        /* \"#utility.yul\":11893:11896   */\n      0x00\n        /* \"#utility.yul\":11912:11932   */\n      tag_335\n        /* \"#utility.yul\":11930:11931   */\n      dup3\n        /* \"#utility.yul\":11912:11932   */\n      tag_299\n      jump\t// in\n    tag_335:\n        /* \"#utility.yul\":11907:11932   */\n      swap2\n      pop\n        /* \"#utility.yul\":11946:11966   */\n      tag_336\n        /* \"#utility.yul\":11964:11965   */\n      dup4\n        /* \"#utility.yul\":11946:11966   */\n      tag_299\n      jump\t// in\n    tag_336:\n        /* \"#utility.yul\":11941:11966   */\n      swap3\n      pop\n        /* \"#utility.yul\":12100:12101   */\n      dup3\n        /* \"#utility.yul\":12032:12098   */\n      0xffffffffffffffffffffffffffffffffffffffffffffffffffffffffffffffff\n        /* \"#utility.yul\":12028:12102   */\n      sub\n        /* \"#utility.yul\":12025:12026   */\n      dup3\n        /* \"#utility.yul\":12022:12103   */\n      gt\n        /* \"#utility.yul\":12019:12126   */\n      iszero\n      tag_337\n      jumpi\n        /* \"#utility.yul\":12106:12124   */\n      tag_338\n      tag_339\n      jump\t// in\n    tag_338:\n        /* \"#utility.yul\":12019:12126   */\n    tag_337:\n        /* \"#utility.yul\":12150:12151   */\n      dup3\n        /* \"#utility.yul\":12147:12148   */\n      dup3\n        /* \"#utility.yul\":12143:12152   */\n      add\n        /* \"#utility.yul\":12136:12152   */\n      swap1\n      pop\n        /* \"#utility.yul\":11853:12158   */\n      swap3\n      swap2\n      pop\n      pop\n      jump\t// out\n        /* \"#utility.yul\":12164:12512   */\n    tag_162:\n        /* \"#utility.yul\":12204:12211   */\n      0x00\n        /* \"#utility.yul\":12227:12247   */\n      tag_341\n        /* \"#utility.yul\":12245:12246   */\n      dup3\n        /* \"#utility.yul\":12227:12247   */\n      tag_299\n      jump\t// in\n    tag_341:\n        /* \"#utility.yul\":12222:12247   */\n      swap2\n      pop\n        /* \"#utility.yul\":12261:12281   */\n      tag_342\n        /* \"#utility.yul\":12279:12280   */\n      dup4\n        /* \"#utility.yul\":12261:12281   */\n      tag_299\n      jump\t// in\n    tag_342:\n        /* \"#utility.yul\":12256:12281   */\n      swap3\n      pop\n        /* \"#utility.yul\":12449:12450   */\n      dup2\n        /* \"#utility.yul\":12381:12447   */\n      0xffffffffffffffffffffffffffffffffffffffffffffffffffffffffffffffff\n        /* \"#utility.yul\":12377:12451   */\n      div\n        /* \"#utility.yul\":12374:12375   */\n      dup4\n        /* \"#utility.yul\":12371:12452   */\n      gt\n        /* \"#utility.yul\":12366:12367   */\n      dup3\n        /* \"#utility.yul\":12359:12368   */\n      iszero\n        /* \"#utility.yul\":12352:12369   */\n      iszero\n        /* \"#utility.yul\":12348:12453   */\n      and\n        /* \"#utility.yul\":12345:12476   */\n      iszero\n      tag_343\n      jumpi\n        /* \"#utility.yul\":12456:12474   */\n      tag_344\n      tag_339\n      jump\t// in\n    tag_344:\n        /* \"#utility.yul\":12345:12476   */\n    tag_343:\n        /* \"#utility.yul\":12504:12505   */\n      dup3\n        /* \"#utility.yul\":12501:12502   */\n      dup3\n        /* \"#utility.yul\":12497:12506   */\n      mul\n        /* \"#utility.yul\":12486:12506   */\n      swap1\n      pop\n        /* \"#utility.yul\":12164:12512   */\n      swap3\n      swap2\n      pop\n      pop\n      jump\t// out\n        /* \"#utility.yul\":12518:12709   */\n    tag_50:\n        /* \"#utility.yul\":12558:12562   */\n      0x00\n        /* \"#utility.yul\":12578:12598   */\n      tag_346\n        /* \"#utility.yul\":12596:12597   */\n      dup3\n        /* \"#utility.yul\":12578:12598   */\n      tag_299\n      jump\t// in\n    tag_346:\n        /* \"#utility.yul\":12573:12598   */\n      swap2\n      pop\n        /* \"#utility.yul\":12612:12632   */\n      tag_347\n        /* \"#utility.yul\":12630:12631   */\n      dup4\n        /* \"#utility.yul\":12612:12632   */\n      tag_299\n      jump\t// in\n    tag_347:\n        /* \"#utility.yul\":12607:12632   */\n      swap3\n      pop\n        /* \"#utility.yul\":12651:12652   */\n      dup3\n        /* \"#utility.yul\":12648:12649   */\n      dup3\n        /* \"#utility.yul\":12645:12653   */\n      lt\n        /* \"#utility.yul\":12642:12676   */\n      iszero\n      tag_348\n      jumpi\n        /* \"#utility.yul\":12656:12674   */\n      tag_349\n      tag_339\n      jump\t// in\n    tag_349:\n        /* \"#utility.yul\":12642:12676   */\n    tag_348:\n        /* \"#utility.yul\":12701:12702   */\n      dup3\n        /* \"#utility.yul\":12698:12699   */\n      dup3\n        /* \"#utility.yul\":12694:12703   */\n      sub\n        /* \"#utility.yul\":12686:12703   */\n      swap1\n      pop\n        /* \"#utility.yul\":12518:12709   */\n      swap3\n      swap2\n      pop\n      pop\n      jump\t// out\n        /* \"#utility.yul\":12715:12811   */\n    tag_252:\n        /* \"#utility.yul\":12752:12759   */\n      0x00\n        /* \"#utility.yul\":12781:12805   */\n      tag_351\n        /* \"#utility.yul\":12799:12804   */\n      dup3\n        /* \"#utility.yul\":12781:12805   */\n      tag_352\n      jump\t// in\n    tag_351:\n        /* \"#utility.yul\":12770:12805   */\n      swap1\n      pop\n        /* \"#utility.yul\":12715:12811   */\n      swap2\n      swap1\n      pop\n      jump\t// out\n        /* \"#utility.yul\":12817:12943   */\n    tag_352:\n        /* \"#utility.yul\":12854:12861   */\n      0x00\n        /* \"#utility.yul\":12894:12936   */\n      0xffffffffffffffffffffffffffffffffffffffff\n        /* \"#utility.yul\":12887:12892   */\n      dup3\n        /* \"#utility.yul\":12883:12937   */\n      and\n        /* \"#utility.yul\":12872:12937   */\n      swap1\n      pop\n        /* \"#utility.yul\":12817:12943   */\n      swap2\n      swap1\n      pop\n      jump\t// out\n        /* \"#utility.yul\":12949:13026   */\n    tag_299:\n        /* \"#utility.yul\":12986:12993   */\n      0x00\n        /* \"#utility.yul\":13015:13020   */\n      dup2\n        /* \"#utility.yul\":13004:13020   */\n      swap1\n      pop\n        /* \"#utility.yul\":12949:13026   */\n      swap2\n      swap1\n      pop\n      jump\t// out\n        /* \"#utility.yul\":13032:13186   */\n    tag_197:\n        /* \"#utility.yul\":13116:13122   */\n      dup3\n        /* \"#utility.yul\":13111:13114   */\n      dup2\n        /* \"#utility.yul\":13106:13109   */\n      dup4\n        /* \"#utility.yul\":13093:13123   */\n      calldatacopy\n        /* \"#utility.yul\":13178:13179   */\n      0x00\n        /* \"#utility.yul\":13169:13175   */\n      dup4\n        /* \"#utility.yul\":13164:13167   */\n      dup4\n        /* \"#utility.yul\":13160:13176   */\n      add\n        /* \"#utility.yul\":13153:13180   */\n      mstore\n        /* \"#utility.yul\":13032:13186   */\n      pop\n      pop\n      pop\n      jump\t// out\n        /* \"#utility.yul\":13192:13499   */\n    tag_277:\n        /* \"#utility.yul\":13260:13261   */\n      0x00\n        /* \"#utility.yul\":13270:13383   */\n    tag_357:\n        /* \"#utility.yul\":13284:13290   */\n      dup4\n        /* \"#utility.yul\":13281:13282   */\n      dup2\n        /* \"#utility.yul\":13278:13291   */\n      lt\n        /* \"#utility.yul\":13270:13383   */\n      iszero\n      tag_359\n      jumpi\n        /* \"#utility.yul\":13369:13370   */\n      dup1\n        /* \"#utility.yul\":13364:13367   */\n      dup3\n        /* \"#utility.yul\":13360:13371   */\n      add\n        /* \"#utility.yul\":13354:13372   */\n      mload\n        /* \"#utility.yul\":13350:13351   */\n      dup2\n        /* \"#utility.yul\":13345:13348   */\n      dup5\n        /* \"#utility.yul\":13341:13352   */\n      add\n        /* \"#utility.yul\":13334:13373   */\n      mstore\n        /* \"#utility.yul\":13306:13308   */\n      0x20\n        /* \"#utility.yul\":13303:13304   */\n      dup2\n        /* \"#utility.yul\":13299:13309   */\n      add\n        /* \"#utility.yul\":13294:13309   */\n      swap1\n      pop\n        /* \"#utility.yul\":13270:13383   */\n      jump(tag_357)\n    tag_359:\n        /* \"#utility.yul\":13401:13407   */\n      dup4\n        /* \"#utility.yul\":13398:13399   */\n      dup2\n        /* \"#utility.yul\":13395:13408   */\n      gt\n        /* \"#utility.yul\":13392:13493   */\n      iszero\n      tag_360\n      jumpi\n        /* \"#utility.yul\":13481:13482   */\n      0x00\n        /* \"#utility.yul\":13472:13478   */\n      dup5\n        /* \"#utility.yul\":13467:13470   */\n      dup5\n        /* \"#utility.yul\":13463:13479   */\n      add\n        /* \"#utility.yul\":13456:13483   */\n      mstore\n        /* \"#utility.yul\":13392:13493   */\n    tag_360:\n        /* \"#utility.yul\":13241:13499   */\n      pop\n        /* \"#utility.yul\":13192:13499   */\n      pop\n      pop\n      pop\n      jump\t// out\n        /* \"#utility.yul\":13505:13825   */\n    tag_62:\n        /* \"#utility.yul\":13549:13555   */\n      0x00\n        /* \"#utility.yul\":13586:13587   */\n      0x02\n        /* \"#utility.yul\":13580:13584   */\n      dup3\n        /* \"#utility.yul\":13576:13588   */\n      div\n        /* \"#utility.yul\":13566:13588   */\n      swap1\n      pop\n        /* \"#utility.yul\":13633:13634   */\n      0x01\n        /* \"#utility.yul\":13627:13631   */\n      dup3\n        /* \"#utility.yul\":13623:13635   */\n      and\n        /* \"#utility.yul\":13654:13672   */\n      dup1\n        /* \"#utility.yul\":13644:13725   */\n      tag_362\n      jumpi\n        /* \"#utility.yul\":13710:13714   */\n      0x7f\n        /* \"#utility.yul\":13702:13708   */\n      dup3\n        /* \"#utility.yul\":13698:13715   */\n      and\n        /* \"#utility.yul\":13688:13715   */\n      swap2\n      pop\n        /* \"#utility.yul\":13644:13725   */\n    tag_362:\n        /* \"#utility.yul\":13772:13774   */\n      0x20\n        /* \"#utility.yul\":13764:13770   */\n      dup3\n        /* \"#utility.yul\":13761:13775   */\n      lt\n        /* \"#utility.yul\":13741:13759   */\n      dup2\n        /* \"#utility.yul\":13738:13776   */\n      eq\n        /* \"#utility.yul\":13735:13819   */\n      iszero\n      tag_363\n      jumpi\n        /* \"#utility.yul\":13791:13809   */\n      tag_364\n      tag_365\n      jump\t// in\n    tag_364:\n        /* \"#utility.yul\":13735:13819   */\n    tag_363:\n        /* \"#utility.yul\":13556:13825   */\n      pop\n        /* \"#utility.yul\":13505:13825   */\n      swap2\n      swap1\n      pop\n      jump\t// out\n        /* \"#utility.yul\":13831:14112   */\n    tag_320:\n        /* \"#utility.yul\":13914:13941   */\n      tag_367\n        /* \"#utility.yul\":13936:13940   */\n      dup3\n        /* \"#utility.yul\":13914:13941   */\n      tag_279\n      jump\t// in\n    tag_367:\n        /* \"#utility.yul\":13906:13912   */\n      dup2\n        /* \"#utility.yul\":13902:13942   */\n      add\n        /* \"#utility.yul\":14044:14050   */\n      dup2\n        /* \"#utility.yul\":14032:14042   */\n      dup2\n        /* \"#utility.yul\":14029:14051   */\n      lt\n        /* \"#utility.yul\":14008:14026   */\n      0xffffffffffffffff\n        /* \"#utility.yul\":13996:14006   */\n      dup3\n        /* \"#utility.yul\":13993:14027   */\n      gt\n        /* \"#utility.yul\":13990:14052   */\n      or\n        /* \"#utility.yul\":13987:14075   */\n      iszero\n      tag_368\n      jumpi\n        /* \"#utility.yul\":14055:14073   */\n      tag_369\n      tag_325\n      jump\t// in\n    tag_369:\n        /* \"#utility.yul\":13987:14075   */\n    tag_368:\n        /* \"#utility.yul\":14095:14105   */\n      dup1\n        /* \"#utility.yul\":14091:14093   */\n      0x40\n        /* \"#utility.yul\":14084:14106   */\n      mstore\n        /* \"#utility.yul\":13874:14112   */\n      pop\n        /* \"#utility.yul\":13831:14112   */\n      pop\n      pop\n      jump\t// out\n        /* \"#utility.yul\":14118:14351   */\n    tag_106:\n        /* \"#utility.yul\":14157:14160   */\n      0x00\n        /* \"#utility.yul\":14180:14204   */\n      tag_371\n        /* \"#utility.yul\":14198:14203   */\n      dup3\n        /* \"#utility.yul\":14180:14204   */\n      tag_299\n      jump\t// in\n    tag_371:\n        /* \"#utility.yul\":14171:14204   */\n      swap2\n      pop\n        /* \"#utility.yul\":14226:14292   */\n      0xffffffffffffffffffffffffffffffffffffffffffffffffffffffffffffffff\n        /* \"#utility.yul\":14219:14224   */\n      dup3\n        /* \"#utility.yul\":14216:14293   */\n      eq\n        /* \"#utility.yul\":14213:14316   */\n      iszero\n      tag_372\n      jumpi\n        /* \"#utility.yul\":14296:14314   */\n      tag_373\n      tag_339\n      jump\t// in\n    tag_373:\n        /* \"#utility.yul\":14213:14316   */\n    tag_372:\n        /* \"#utility.yul\":14343:14344   */\n      0x01\n        /* \"#utility.yul\":14336:14341   */\n      dup3\n        /* \"#utility.yul\":14332:14345   */\n      add\n        /* \"#utility.yul\":14325:14345   */\n      swap1\n      pop\n        /* \"#utility.yul\":14118:14351   */\n      swap2\n      swap1\n      pop\n      jump\t// out\n        /* \"#utility.yul\":14357:14537   */\n    tag_339:\n        /* \"#utility.yul\":14405:14482   */\n      0x4e487b7100000000000000000000000000000000000000000000000000000000\n        /* \"#utility.yul\":14402:14403   */\n      0x00\n        /* \"#utility.yul\":14395:14483   */\n      mstore\n        /* \"#utility.yul\":14502:14506   */\n      0x11\n        /* \"#utility.yul\":14499:14500   */\n      0x04\n        /* \"#utility.yul\":14492:14507   */\n      mstore\n        /* \"#utility.yul\":14526:14530   */\n      0x24\n        /* \"#utility.yul\":14523:14524   */\n      0x00\n        /* \"#utility.yul\":14516:14531   */\n      revert\n        /* \"#utility.yul\":14543:14723   */\n    tag_365:\n        /* \"#utility.yul\":14591:14668   */\n      0x4e487b7100000000000000000000000000000000000000000000000000000000\n        /* \"#utility.yul\":14588:14589   */\n      0x00\n        /* \"#utility.yul\":14581:14669   */\n      mstore\n        /* \"#utility.yul\":14688:14692   */\n      0x22\n        /* \"#utility.yul\":14685:14686   */\n      0x04\n        /* \"#utility.yul\":14678:14693   */\n      mstore\n        /* \"#utility.yul\":14712:14716   */\n      0x24\n        /* \"#utility.yul\":14709:14710   */\n      0x00\n        /* \"#utility.yul\":14702:14717   */\n      revert\n        /* \"#utility.yul\":14729:14909   */\n    tag_82:\n        /* \"#utility.yul\":14777:14854   */\n      0x4e487b7100000000000000000000000000000000000000000000000000000000\n        /* \"#utility.yul\":14774:14775   */\n      0x00\n        /* \"#utility.yul\":14767:14855   */\n      mstore\n        /* \"#utility.yul\":14874:14878   */\n      0x31\n        /* \"#utility.yul\":14871:14872   */\n      0x04\n        /* \"#utility.yul\":14864:14879   */\n      mstore\n        /* \"#utility.yul\":14898:14902   */\n      0x24\n        /* \"#utility.yul\":14895:14896   */\n      0x00\n        /* \"#utility.yul\":14888:14903   */\n      revert\n        /* \"#utility.yul\":14915:15095   */\n    tag_53:\n        /* \"#utility.yul\":14963:15040   */\n      0x4e487b7100000000000000000000000000000000000000000000000000000000\n        /* \"#utility.yul\":14960:14961   */\n      0x00\n        /* \"#utility.yul\":14953:15041   */\n      mstore\n        /* \"#utility.yul\":15060:15064   */\n      0x32\n        /* \"#utility.yul\":15057:15058   */\n      0x04\n        /* \"#utility.yul\":15050:15065   */\n      mstore\n        /* \"#utility.yul\":15084:15088   */\n      0x24\n        /* \"#utility.yul\":15081:15082   */\n      0x00\n        /* \"#utility.yul\":15074:15089   */\n      revert\n        /* \"#utility.yul\":15101:15281   */\n    tag_325:\n        /* \"#utility.yul\":15149:15226   */\n      0x4e487b7100000000000000000000000000000000000000000000000000000000\n        /* \"#utility.yul\":15146:15147   */\n      0x00\n        /* \"#utility.yul\":15139:15227   */\n      mstore\n        /* \"#utility.yul\":15246:15250   */\n      0x41\n        /* \"#utility.yul\":15243:15244   */\n      0x04\n        /* \"#utility.yul\":15236:15251   */\n      mstore\n        /* \"#utility.yul\":15270:15274   */\n      0x24\n        /* \"#utility.yul\":15267:15268   */\n      0x00\n        /* \"#utility.yul\":15260:15275   */\n      revert\n        /* \"#utility.yul\":15287:15404   */\n    tag_206:\n        /* \"#utility.yul\":15396:15397   */\n      0x00\n        /* \"#utility.yul\":15393:15394   */\n      dup1\n        /* \"#utility.yul\":15386:15398   */\n      revert\n        /* \"#utility.yul\":15410:15527   */\n    tag_195:\n        /* \"#utility.yul\":15519:15520   */\n      0x00\n        /* \"#utility.yul\":15516:15517   */\n      dup1\n        /* \"#utility.yul\":15509:15521   */\n      revert\n        /* \"#utility.yul\":15533:15650   */\n    tag_222:\n        /* \"#utility.yul\":15642:15643   */\n      0x00\n        /* \"#utility.yul\":15639:15640   */\n      dup1\n        /* \"#utility.yul\":15632:15644   */\n      revert\n        /* \"#utility.yul\":15656:15773   */\n    tag_215:\n        /* \"#utility.yul\":15765:15766   */\n      0x00\n        /* \"#utility.yul\":15762:15763   */\n      dup1\n        /* \"#utility.yul\":15755:15767   */\n      revert\n        /* \"#utility.yul\":15779:15881   */\n    tag_279:\n        /* \"#utility.yul\":15820:15826   */\n      0x00\n        /* \"#utility.yul\":15871:15873   */\n      0x1f\n        /* \"#utility.yul\":15867:15874   */\n      not\n        /* \"#utility.yul\":15862:15864   */\n      0x1f\n        /* \"#utility.yul\":15855:15860   */\n      dup4\n        /* \"#utility.yul\":15851:15865   */\n      add\n        /* \"#utility.yul\":15847:15875   */\n      and\n        /* \"#utility.yul\":15837:15875   */\n      swap1\n      pop\n        /* \"#utility.yul\":15779:15881   */\n      swap2\n      swap1\n      pop\n      jump\t// out\n        /* \"#utility.yul\":15887:16009   */\n    tag_201:\n        /* \"#utility.yul\":15960:15984   */\n      tag_385\n        /* \"#utility.yul\":15978:15983   */\n      dup2\n        /* \"#utility.yul\":15960:15984   */\n      tag_252\n      jump\t// in\n    tag_385:\n        /* \"#utility.yul\":15953:15958   */\n      dup2\n        /* \"#utility.yul\":15950:15985   */\n      eq\n        /* \"#utility.yul\":15940:16003   */\n      tag_386\n      jumpi\n        /* \"#utility.yul\":15999:16000   */\n      0x00\n        /* \"#utility.yul\":15996:15997   */\n      dup1\n        /* \"#utility.yul\":15989:16001   */\n      revert\n        /* \"#utility.yul\":15940:16003   */\n    tag_386:\n        /* \"#utility.yul\":15887:16009   */\n      pop\n      jump\t// out\n        /* \"#utility.yul\":16015:16137   */\n    tag_211:\n        /* \"#utility.yul\":16088:16112   */\n      tag_388\n        /* \"#utility.yul\":16106:16111   */\n      dup2\n        /* \"#utility.yul\":16088:16112   */\n      tag_299\n      jump\t// in\n    tag_388:\n        /* \"#utility.yul\":16081:16086   */\n      dup2\n        /* \"#utility.yul\":16078:16113   */\n      eq\n        /* \"#utility.yul\":16068:16131   */\n      tag_389\n      jumpi\n        /* \"#utility.yul\":16127:16128   */\n      0x00\n        /* \"#utility.yul\":16124:16125   */\n      dup1\n        /* \"#utility.yul\":16117:16129   */\n      revert\n        /* \"#utility.yul\":16068:16131   */\n    tag_389:\n        /* \"#utility.yul\":16015:16137   */\n      pop\n      jump\t// out\n\n    auxdata: 0xa26469706673582212209169b63d57c32fb8370485ed0b31324bde58c1cac8f05320172f1a2456a9674f64736f6c63430008070033\n}\n",
				"bytecode": {
					"linkReferences": {},
					"object": "608060405234801561001057600080fd5b50611de5806100206000396000f3fe608060405234801561001057600080fd5b50600436106100885760003560e01c806380c9419e1161005b57806380c9419e14610111578063904cc17514610148578063a97af4d514610178578063f8a02d841461019457610088565b8063049878f31461008d578063377e6ff7146100a95780635102bc9d146100d957806369ba1a75146100f5575b600080fd5b6100a760048036038101906100a29190611675565b6101c4565b005b6100c360048036038101906100be9190611574565b61020f565b6040516100d091906118e5565b60405180910390f35b6100f360048036038101906100ee91906116a2565b61041e565b005b61010f600480360381019061010a9190611675565b610467565b005b61012b60048036038101906101269190611675565b6109f1565b60405161013f989796959493929190611922565b60405180910390f35b610162600480360381019061015d9190611675565b610b11565b60405161016f91906118e5565b60405180910390f35b610192600480360381019061018d91906115ea565b610ece565b005b6101ae60048036038101906101a991906115a1565b6112d2565b6040516101bb9190611907565b60405180910390f35b6001806001836101d49190611b13565b815481106101e5576101e4611cfe565b5b906000526020600020906008020160050160008282546102059190611a63565b9250508190555050565b6060600360008373ffffffffffffffffffffffffffffffffffffffff1673ffffffffffffffffffffffffffffffffffffffff168152602001908152602001600020805480602002602001604051908101604052809291908181526020016000905b82821015610413578382906000526020600020906008020160405180610100016040529081600082015481526020016001820180546102ae90611bc5565b80601f01602080910402602001604051908101604052809291908181526020018280546102da90611bc5565b80156103275780601f106102fc57610100808354040283529160200191610327565b820191906000526020600020905b81548152906001019060200180831161030a57829003601f168201915b50505050508152602001600282015481526020016003820160009054906101000a900473ffffffffffffffffffffffffffffffffffffffff1673ffffffffffffffffffffffffffffffffffffffff1673ffffffffffffffffffffffffffffffffffffffff1681526020016004820160009054906101000a900473ffffffffffffffffffffffffffffffffffffffff1673ffffffffffffffffffffffffffffffffffffffff1673ffffffffffffffffffffffffffffffffffffffff168152602001600582015481526020016006820154815260200160078201548152505081526020019060010190610270565b505050509050919050565b806001808461042d9190611b13565b8154811061043e5761043d611cfe565b5b9060005260206000209060080201600101908051906020019061046292919061136a565b505050565b6003600180836104779190611b13565b8154811061048857610487611cfe565b5b906000526020600020906008020160020181905550600160026000600181526020019081526020016000208054905014156105855760026000600181526020019081526020016000208054806104e1576104e0611ccf565b5b600190038181906000526020600020906008020160008082016000905560018201600061050e91906113f0565b60028201600090556003820160006101000a81549073ffffffffffffffffffffffffffffffffffffffff02191690556004820160006101000a81549073ffffffffffffffffffffffffffffffffffffffff021916905560058201600090556006820160009055600782016000905550509055610862565b60005b60016002600060018152602001908152602001600020805490506105ac9190611b13565b81101561079d5781600260006001815260200190815260200160002082815481106105da576105d9611cfe565b5b906000526020600020906008020160000154141561078a5760026000600181526020019081526020016000206001826106139190611a63565b8154811061062457610623611cfe565b5b90600052602060002090600802016002600060018152602001908152602001600020828154811061065857610657611cfe565b5b906000526020600020906008020160008201548160000155600182018160010190805461068490611bc5565b61068f929190611430565b50600282015481600201556003820160009054906101000a900473ffffffffffffffffffffffffffffffffffffffff168160030160006101000a81548173ffffffffffffffffffffffffffffffffffffffff021916908373ffffffffffffffffffffffffffffffffffffffff1602179055506004820160009054906101000a900473ffffffffffffffffffffffffffffffffffffffff168160040160006101000a81548173ffffffffffffffffffffffffffffffffffffffff021916908373ffffffffffffffffffffffffffffffffffffffff1602179055506005820154816005015560068201548160060155600782015481600701559050505b808061079590611c28565b915050610588565b5060026000600181526020019081526020016000208054806107c2576107c1611ccf565b5b60019003818190600052602060002090600802016000808201600090556001820160006107ef91906113f0565b60028201600090556003820160006101000a81549073ffffffffffffffffffffffffffffffffffffffff02191690556004820160006101000a81549073ffffffffffffffffffffffffffffffffffffffff0219169055600582016000905560068201600090556007820160009055505090555b6002600060038152602001908152602001600020600180836108849190611b13565b8154811061089557610894611cfe565b5b906000526020600020906008020190806001815401808255809150506001900390600052602060002090600802016000909190919091506000820154816000015560018201816001019080546108ea90611bc5565b6108f5929190611430565b50600282015481600201556003820160009054906101000a900473ffffffffffffffffffffffffffffffffffffffff168160030160006101000a81548173ffffffffffffffffffffffffffffffffffffffff021916908373ffffffffffffffffffffffffffffffffffffffff1602179055506004820160009054906101000a900473ffffffffffffffffffffffffffffffffffffffff168160040160006101000a81548173ffffffffffffffffffffffffffffffffffffffff021916908373ffffffffffffffffffffffffffffffffffffffff160217905550600582015481600501556006820154816006015560078201548160070155505050565b60018181548110610a0157600080fd5b9060005260206000209060080201600091509050806000015490806001018054610a2a90611bc5565b80601f0160208091040260200160405190810160405280929190818152602001828054610a5690611bc5565b8015610aa35780601f10610a7857610100808354040283529160200191610aa3565b820191906000526020600020905b815481529060010190602001808311610a8657829003601f168201915b5050505050908060020154908060030160009054906101000a900473ffffffffffffffffffffffffffffffffffffffff16908060040160009054906101000a900473ffffffffffffffffffffffffffffffffffffffff16908060050154908060060154908060070154905088565b60606000821415610cec576001805480602002602001604051908101604052809291908181526020016000905b82821015610ce157838290600052602060002090600802016040518061010001604052908160008201548152602001600182018054610b7c90611bc5565b80601f0160208091040260200160405190810160405280929190818152602001828054610ba890611bc5565b8015610bf55780601f10610bca57610100808354040283529160200191610bf5565b820191906000526020600020905b815481529060010190602001808311610bd857829003601f168201915b50505050508152602001600282015481526020016003820160009054906101000a900473ffffffffffffffffffffffffffffffffffffffff1673ffffffffffffffffffffffffffffffffffffffff1673ffffffffffffffffffffffffffffffffffffffff1681526020016004820160009054906101000a900473ffffffffffffffffffffffffffffffffffffffff1673ffffffffffffffffffffffffffffffffffffffff1673ffffffffffffffffffffffffffffffffffffffff168152602001600582015481526020016006820154815260200160078201548152505081526020019060010190610b3e565b505050509050610ec9565b60026000838152602001908152602001600020805480602002602001604051908101604052809291908181526020016000905b82821015610ec257838290600052602060002090600802016040518061010001604052908160008201548152602001600182018054610d5d90611bc5565b80601f0160208091040260200160405190810160405280929190818152602001828054610d8990611bc5565b8015610dd65780601f10610dab57610100808354040283529160200191610dd6565b820191906000526020600020905b815481529060010190602001808311610db957829003601f168201915b50505050508152602001600282015481526020016003820160009054906101000a900473ffffffffffffffffffffffffffffffffffffffff1673ffffffffffffffffffffffffffffffffffffffff1673ffffffffffffffffffffffffffffffffffffffff1681526020016004820160009054906101000a900473ffffffffffffffffffffffffffffffffffffffff1673ffffffffffffffffffffffffffffffffffffffff1673ffffffffffffffffffffffffffffffffffffffff168152602001600582015481526020016006820154815260200160078201548152505081526020019060010190610d1f565b5050505090505b919050565b600080815480929190610ee090611c28565b919050555060006040518061010001604052806000548152602001858152602001600181526020013373ffffffffffffffffffffffffffffffffffffffff1681526020018473ffffffffffffffffffffffffffffffffffffffff16815260200160008152602001610f50846112d2565b8152602001600081525090506001819080600181540180825580915050600190039060005260206000209060080201600090919091909150600082015181600001556020820151816001019080519060200190610fae92919061136a565b506040820151816002015560608201518160030160006101000a81548173ffffffffffffffffffffffffffffffffffffffff021916908373ffffffffffffffffffffffffffffffffffffffff16021790555060808201518160040160006101000a81548173ffffffffffffffffffffffffffffffffffffffff021916908373ffffffffffffffffffffffffffffffffffffffff16021790555060a0820151816005015560c0820151816006015560e08201518160070155505060026000600181526020019081526020016000208190806001815401808255809150506001900390600052602060002090600802016000909190919091506000820151816000015560208201518160010190805190602001906110cb92919061136a565b506040820151816002015560608201518160030160006101000a81548173ffffffffffffffffffffffffffffffffffffffff021916908373ffffffffffffffffffffffffffffffffffffffff16021790555060808201518160040160006101000a81548173ffffffffffffffffffffffffffffffffffffffff021916908373ffffffffffffffffffffffffffffffffffffffff16021790555060a0820151816005015560c0820151816006015560e082015181600701555050600360003373ffffffffffffffffffffffffffffffffffffffff1673ffffffffffffffffffffffffffffffffffffffff16815260200190815260200160002081908060018154018082558091505060019003906000526020600020906008020160009091909190915060008201518160000155602082015181600101908051906020019061121392919061136a565b506040820151816002015560608201518160030160006101000a81548173ffffffffffffffffffffffffffffffffffffffff021916908373ffffffffffffffffffffffffffffffffffffffff16021790555060808201518160040160006101000a81548173ffffffffffffffffffffffffffffffffffffffff021916908373ffffffffffffffffffffffffffffffffffffffff16021790555060a0820151816005015560c0820151816006015560e08201518160070155505050505050565b6000808290506000805b825181101561135f5760008382815181106112fa576112f9611cfe565b5b602001015160f81c60f81b60f81c60ff1690506030811015801561131f575060398111155b1561134b576030816113319190611b13565b600a8461133e9190611ab9565b6113489190611a63565b92505b50808061135790611c28565b9150506112dc565b508092505050919050565b82805461137690611bc5565b90600052602060002090601f01602090048101928261139857600085556113df565b82601f106113b157805160ff19168380011785556113df565b828001600101855582156113df579182015b828111156113de5782518255916020019190600101906113c3565b5b5090506113ec91906114bd565b5090565b5080546113fc90611bc5565b6000825580601f1061140e575061142d565b601f01602090049060005260206000209081019061142c91906114bd565b5b50565b82805461143c90611bc5565b90600052602060002090601f01602090048101928261145e57600085556114ac565b82601f1061146f57805485556114ac565b828001600101855582156114ac57600052602060002091601f016020900482015b828111156114ab578254825591600101919060010190611490565b5b5090506114b991906114bd565b5090565b5b808211156114d65760008160009055506001016114be565b5090565b60006114ed6114e8846119cc565b6119a7565b90508281526020810184848401111561150957611508611d61565b5b611514848285611b83565b509392505050565b60008135905061152b81611d81565b92915050565b600082601f83011261154657611545611d5c565b5b81356115568482602086016114da565b91505092915050565b60008135905061156e81611d98565b92915050565b60006020828403121561158a57611589611d6b565b5b60006115988482850161151c565b91505092915050565b6000602082840312156115b7576115b6611d6b565b5b600082013567ffffffffffffffff8111156115d5576115d4611d66565b5b6115e184828501611531565b91505092915050565b60008060006060848603121561160357611602611d6b565b5b600084013567ffffffffffffffff81111561162157611620611d66565b5b61162d86828701611531565b935050602061163e8682870161151c565b925050604084013567ffffffffffffffff81111561165f5761165e611d66565b5b61166b86828701611531565b9150509250925092565b60006020828403121561168b5761168a611d6b565b5b60006116998482850161155f565b91505092915050565b600080604083850312156116b9576116b8611d6b565b5b60006116c78582860161155f565b925050602083013567ffffffffffffffff8111156116e8576116e7611d66565b5b6116f485828601611531565b9150509250929050565b600061170a8383611817565b905092915050565b61171b81611b47565b82525050565b61172a81611b47565b82525050565b600061173b82611a0d565b6117458185611a30565b935083602082028501611757856119fd565b8060005b85811015611793578484038952815161177485826116fe565b945061177f83611a23565b925060208a0199505060018101905061175b565b50829750879550505050505092915050565b60006117b082611a18565b6117ba8185611a41565b93506117ca818560208601611b92565b6117d381611d70565b840191505092915050565b60006117e982611a18565b6117f38185611a52565b9350611803818560208601611b92565b61180c81611d70565b840191505092915050565b60006101008301600083015161183060008601826118c7565b506020830151848203602086015261184882826117a5565b915050604083015161185d60408601826118c7565b5060608301516118706060860182611712565b5060808301516118836080860182611712565b5060a083015161189660a08601826118c7565b5060c08301516118a960c08601826118c7565b5060e08301516118bc60e08601826118c7565b508091505092915050565b6118d081611b79565b82525050565b6118df81611b79565b82525050565b600060208201905081810360008301526118ff8184611730565b905092915050565b600060208201905061191c60008301846118d6565b92915050565b600061010082019050611938600083018b6118d6565b818103602083015261194a818a6117de565b905061195960408301896118d6565b6119666060830188611721565b6119736080830187611721565b61198060a08301866118d6565b61198d60c08301856118d6565b61199a60e08301846118d6565b9998505050505050505050565b60006119b16119c2565b90506119bd8282611bf7565b919050565b6000604051905090565b600067ffffffffffffffff8211156119e7576119e6611d2d565b5b6119f082611d70565b9050602081019050919050565b6000819050602082019050919050565b600081519050919050565b600081519050919050565b6000602082019050919050565b600082825260208201905092915050565b600082825260208201905092915050565b600082825260208201905092915050565b6000611a6e82611b79565b9150611a7983611b79565b9250827fffffffffffffffffffffffffffffffffffffffffffffffffffffffffffffffff03821115611aae57611aad611c71565b5b828201905092915050565b6000611ac482611b79565b9150611acf83611b79565b9250817fffffffffffffffffffffffffffffffffffffffffffffffffffffffffffffffff0483118215151615611b0857611b07611c71565b5b828202905092915050565b6000611b1e82611b79565b9150611b2983611b79565b925082821015611b3c57611b3b611c71565b5b828203905092915050565b6000611b5282611b59565b9050919050565b600073ffffffffffffffffffffffffffffffffffffffff82169050919050565b6000819050919050565b82818337600083830152505050565b60005b83811015611bb0578082015181840152602081019050611b95565b83811115611bbf576000848401525b50505050565b60006002820490506001821680611bdd57607f821691505b60208210811415611bf157611bf0611ca0565b5b50919050565b611c0082611d70565b810181811067ffffffffffffffff82111715611c1f57611c1e611d2d565b5b80604052505050565b6000611c3382611b79565b91507fffffffffffffffffffffffffffffffffffffffffffffffffffffffffffffffff821415611c6657611c65611c71565b5b600182019050919050565b7f4e487b7100000000000000000000000000000000000000000000000000000000600052601160045260246000fd5b7f4e487b7100000000000000000000000000000000000000000000000000000000600052602260045260246000fd5b7f4e487b7100000000000000000000000000000000000000000000000000000000600052603160045260246000fd5b7f4e487b7100000000000000000000000000000000000000000000000000000000600052603260045260246000fd5b7f4e487b7100000000000000000000000000000000000000000000000000000000600052604160045260246000fd5b600080fd5b600080fd5b600080fd5b600080fd5b6000601f19601f8301169050919050565b611d8a81611b47565b8114611d9557600080fd5b50565b611da181611b79565b8114611dac57600080fd5b5056fea26469706673582212209169b63d57c32fb8370485ed0b31324bde58c1cac8f05320172f1a2456a9674f64736f6c63430008070033",
					"opcodes": "PUSH1 0x80 PUSH1 0x40 MSTORE CALLVALUE DUP1 ISZERO PUSH2 0x10 JUMPI PUSH1 0x0 DUP1 REVERT JUMPDEST POP PUSH2 0x1DE5 DUP1 PUSH2 0x20 PUSH1 0x0 CODECOPY PUSH1 0x0 RETURN INVALID PUSH1 0x80 PUSH1 0x40 MSTORE CALLVALUE DUP1 ISZERO PUSH2 0x10 JUMPI PUSH1 0x0 DUP1 REVERT JUMPDEST POP PUSH1 0x4 CALLDATASIZE LT PUSH2 0x88 JUMPI PUSH1 0x0 CALLDATALOAD PUSH1 0xE0 SHR DUP1 PUSH4 0x80C9419E GT PUSH2 0x5B JUMPI DUP1 PUSH4 0x80C9419E EQ PUSH2 0x111 JUMPI DUP1 PUSH4 0x904CC175 EQ PUSH2 0x148 JUMPI DUP1 PUSH4 0xA97AF4D5 EQ PUSH2 0x178 JUMPI DUP1 PUSH4 0xF8A02D84 EQ PUSH2 0x194 JUMPI PUSH2 0x88 JUMP JUMPDEST DUP1 PUSH4 0x49878F3 EQ PUSH2 0x8D JUMPI DUP1 PUSH4 0x377E6FF7 EQ PUSH2 0xA9 JUMPI DUP1 PUSH4 0x5102BC9D EQ PUSH2 0xD9 JUMPI DUP1 PUSH4 0x69BA1A75 EQ PUSH2 0xF5 JUMPI JUMPDEST PUSH1 0x0 DUP1 REVERT JUMPDEST PUSH2 0xA7 PUSH1 0x4 DUP1 CALLDATASIZE SUB DUP2 ADD SWAP1 PUSH2 0xA2 SWAP2 SWAP1 PUSH2 0x1675 JUMP JUMPDEST PUSH2 0x1C4 JUMP JUMPDEST STOP JUMPDEST PUSH2 0xC3 PUSH1 0x4 DUP1 CALLDATASIZE SUB DUP2 ADD SWAP1 PUSH2 0xBE SWAP2 SWAP1 PUSH2 0x1574 JUMP JUMPDEST PUSH2 0x20F JUMP JUMPDEST PUSH1 0x40 MLOAD PUSH2 0xD0 SWAP2 SWAP1 PUSH2 0x18E5 JUMP JUMPDEST PUSH1 0x40 MLOAD DUP1 SWAP2 SUB SWAP1 RETURN JUMPDEST PUSH2 0xF3 PUSH1 0x4 DUP1 CALLDATASIZE SUB DUP2 ADD SWAP1 PUSH2 0xEE SWAP2 SWAP1 PUSH2 0x16A2 JUMP JUMPDEST PUSH2 0x41E JUMP JUMPDEST STOP JUMPDEST PUSH2 0x10F PUSH1 0x4 DUP1 CALLDATASIZE SUB DUP2 ADD SWAP1 PUSH2 0x10A SWAP2 SWAP1 PUSH2 0x1675 JUMP JUMPDEST PUSH2 0x467 JUMP JUMPDEST STOP JUMPDEST PUSH2 0x12B PUSH1 0x4 DUP1 CALLDATASIZE SUB DUP2 ADD SWAP1 PUSH2 0x126 SWAP2 SWAP1 PUSH2 0x1675 JUMP JUMPDEST PUSH2 0x9F1 JUMP JUMPDEST PUSH1 0x40 MLOAD PUSH2 0x13F SWAP9 SWAP8 SWAP7 SWAP6 SWAP5 SWAP4 SWAP3 SWAP2 SWAP1 PUSH2 0x1922 JUMP JUMPDEST PUSH1 0x40 MLOAD DUP1 SWAP2 SUB SWAP1 RETURN JUMPDEST PUSH2 0x162 PUSH1 0x4 DUP1 CALLDATASIZE SUB DUP2 ADD SWAP1 PUSH2 0x15D SWAP2 SWAP1 PUSH2 0x1675 JUMP JUMPDEST PUSH2 0xB11 JUMP JUMPDEST PUSH1 0x40 MLOAD PUSH2 0x16F SWAP2 SWAP1 PUSH2 0x18E5 JUMP JUMPDEST PUSH1 0x40 MLOAD DUP1 SWAP2 SUB SWAP1 RETURN JUMPDEST PUSH2 0x192 PUSH1 0x4 DUP1 CALLDATASIZE SUB DUP2 ADD SWAP1 PUSH2 0x18D SWAP2 SWAP1 PUSH2 0x15EA JUMP JUMPDEST PUSH2 0xECE JUMP JUMPDEST STOP JUMPDEST PUSH2 0x1AE PUSH1 0x4 DUP1 CALLDATASIZE SUB DUP2 ADD SWAP1 PUSH2 0x1A9 SWAP2 SWAP1 PUSH2 0x15A1 JUMP JUMPDEST PUSH2 0x12D2 JUMP JUMPDEST PUSH1 0x40 MLOAD PUSH2 0x1BB SWAP2 SWAP1 PUSH2 0x1907 JUMP JUMPDEST PUSH1 0x40 MLOAD DUP1 SWAP2 SUB SWAP1 RETURN JUMPDEST PUSH1 0x1 DUP1 PUSH1 0x1 DUP4 PUSH2 0x1D4 SWAP2 SWAP1 PUSH2 0x1B13 JUMP JUMPDEST DUP2 SLOAD DUP2 LT PUSH2 0x1E5 JUMPI PUSH2 0x1E4 PUSH2 0x1CFE JUMP JUMPDEST JUMPDEST SWAP1 PUSH1 0x0 MSTORE PUSH1 0x20 PUSH1 0x0 KECCAK256 SWAP1 PUSH1 0x8 MUL ADD PUSH1 0x5 ADD PUSH1 0x0 DUP3 DUP3 SLOAD PUSH2 0x205 SWAP2 SWAP1 PUSH2 0x1A63 JUMP JUMPDEST SWAP3 POP POP DUP2 SWAP1 SSTORE POP POP JUMP JUMPDEST PUSH1 0x60 PUSH1 0x3 PUSH1 0x0 DUP4 PUSH20 0xFFFFFFFFFFFFFFFFFFFFFFFFFFFFFFFFFFFFFFFF AND PUSH20 0xFFFFFFFFFFFFFFFFFFFFFFFFFFFFFFFFFFFFFFFF AND DUP2 MSTORE PUSH1 0x20 ADD SWAP1 DUP2 MSTORE PUSH1 0x20 ADD PUSH1 0x0 KECCAK256 DUP1 SLOAD DUP1 PUSH1 0x20 MUL PUSH1 0x20 ADD PUSH1 0x40 MLOAD SWAP1 DUP2 ADD PUSH1 0x40 MSTORE DUP1 SWAP3 SWAP2 SWAP1 DUP2 DUP2 MSTORE PUSH1 0x20 ADD PUSH1 0x0 SWAP1 JUMPDEST DUP3 DUP3 LT ISZERO PUSH2 0x413 JUMPI DUP4 DUP3 SWAP1 PUSH1 0x0 MSTORE PUSH1 0x20 PUSH1 0x0 KECCAK256 SWAP1 PUSH1 0x8 MUL ADD PUSH1 0x40 MLOAD DUP1 PUSH2 0x100 ADD PUSH1 0x40 MSTORE SWAP1 DUP2 PUSH1 0x0 DUP3 ADD SLOAD DUP2 MSTORE PUSH1 0x20 ADD PUSH1 0x1 DUP3 ADD DUP1 SLOAD PUSH2 0x2AE SWAP1 PUSH2 0x1BC5 JUMP JUMPDEST DUP1 PUSH1 0x1F ADD PUSH1 0x20 DUP1 SWAP2 DIV MUL PUSH1 0x20 ADD PUSH1 0x40 MLOAD SWAP1 DUP2 ADD PUSH1 0x40 MSTORE DUP1 SWAP3 SWAP2 SWAP1 DUP2 DUP2 MSTORE PUSH1 0x20 ADD DUP3 DUP1 SLOAD PUSH2 0x2DA SWAP1 PUSH2 0x1BC5 JUMP JUMPDEST DUP1 ISZERO PUSH2 0x327 JUMPI DUP1 PUSH1 0x1F LT PUSH2 0x2FC JUMPI PUSH2 0x100 DUP1 DUP4 SLOAD DIV MUL DUP4 MSTORE SWAP2 PUSH1 0x20 ADD SWAP2 PUSH2 0x327 JUMP JUMPDEST DUP3 ADD SWAP2 SWAP1 PUSH1 0x0 MSTORE PUSH1 0x20 PUSH1 0x0 KECCAK256 SWAP1 JUMPDEST DUP2 SLOAD DUP2 MSTORE SWAP1 PUSH1 0x1 ADD SWAP1 PUSH1 0x20 ADD DUP1 DUP4 GT PUSH2 0x30A JUMPI DUP3 SWAP1 SUB PUSH1 0x1F AND DUP3 ADD SWAP2 JUMPDEST POP POP POP POP POP DUP2 MSTORE PUSH1 0x20 ADD PUSH1 0x2 DUP3 ADD SLOAD DUP2 MSTORE PUSH1 0x20 ADD PUSH1 0x3 DUP3 ADD PUSH1 0x0 SWAP1 SLOAD SWAP1 PUSH2 0x100 EXP SWAP1 DIV PUSH20 0xFFFFFFFFFFFFFFFFFFFFFFFFFFFFFFFFFFFFFFFF AND PUSH20 0xFFFFFFFFFFFFFFFFFFFFFFFFFFFFFFFFFFFFFFFF AND PUSH20 0xFFFFFFFFFFFFFFFFFFFFFFFFFFFFFFFFFFFFFFFF AND DUP2 MSTORE PUSH1 0x20 ADD PUSH1 0x4 DUP3 ADD PUSH1 0x0 SWAP1 SLOAD SWAP1 PUSH2 0x100 EXP SWAP1 DIV PUSH20 0xFFFFFFFFFFFFFFFFFFFFFFFFFFFFFFFFFFFFFFFF AND PUSH20 0xFFFFFFFFFFFFFFFFFFFFFFFFFFFFFFFFFFFFFFFF AND PUSH20 0xFFFFFFFFFFFFFFFFFFFFFFFFFFFFFFFFFFFFFFFF AND DUP2 MSTORE PUSH1 0x20 ADD PUSH1 0x5 DUP3 ADD SLOAD DUP2 MSTORE PUSH1 0x20 ADD PUSH1 0x6 DUP3 ADD SLOAD DUP2 MSTORE PUSH1 0x20 ADD PUSH1 0x7 DUP3 ADD SLOAD DUP2 MSTORE POP POP DUP2 MSTORE PUSH1 0x20 ADD SWAP1 PUSH1 0x1 ADD SWAP1 PUSH2 0x270 JUMP JUMPDEST POP POP POP POP SWAP1 POP SWAP2 SWAP1 POP JUMP JUMPDEST DUP1 PUSH1 0x1 DUP1 DUP5 PUSH2 0x42D SWAP2 SWAP1 PUSH2 0x1B13 JUMP JUMPDEST DUP2 SLOAD DUP2 LT PUSH2 0x43E JUMPI PUSH2 0x43D PUSH2 0x1CFE JUMP JUMPDEST JUMPDEST SWAP1 PUSH1 0x0 MSTORE PUSH1 0x20 PUSH1 0x0 KECCAK256 SWAP1 PUSH1 0x8 MUL ADD PUSH1 0x1 ADD SWAP1 DUP1 MLOAD SWAP1 PUSH1 0x20 ADD SWAP1 PUSH2 0x462 SWAP3 SWAP2 SWAP1 PUSH2 0x136A JUMP JUMPDEST POP POP POP JUMP JUMPDEST PUSH1 0x3 PUSH1 0x1 DUP1 DUP4 PUSH2 0x477 SWAP2 SWAP1 PUSH2 0x1B13 JUMP JUMPDEST DUP2 SLOAD DUP2 LT PUSH2 0x488 JUMPI PUSH2 0x487 PUSH2 0x1CFE JUMP JUMPDEST JUMPDEST SWAP1 PUSH1 0x0 MSTORE PUSH1 0x20 PUSH1 0x0 KECCAK256 SWAP1 PUSH1 0x8 MUL ADD PUSH1 0x2 ADD DUP2 SWAP1 SSTORE POP PUSH1 0x1 PUSH1 0x2 PUSH1 0x0 PUSH1 0x1 DUP2 MSTORE PUSH1 0x20 ADD SWAP1 DUP2 MSTORE PUSH1 0x20 ADD PUSH1 0x0 KECCAK256 DUP1 SLOAD SWAP1 POP EQ ISZERO PUSH2 0x585 JUMPI PUSH1 0x2 PUSH1 0x0 PUSH1 0x1 DUP2 MSTORE PUSH1 0x20 ADD SWAP1 DUP2 MSTORE PUSH1 0x20 ADD PUSH1 0x0 KECCAK256 DUP1 SLOAD DUP1 PUSH2 0x4E1 JUMPI PUSH2 0x4E0 PUSH2 0x1CCF JUMP JUMPDEST JUMPDEST PUSH1 0x1 SWAP1 SUB DUP2 DUP2 SWAP1 PUSH1 0x0 MSTORE PUSH1 0x20 PUSH1 0x0 KECCAK256 SWAP1 PUSH1 0x8 MUL ADD PUSH1 0x0 DUP1 DUP3 ADD PUSH1 0x0 SWAP1 SSTORE PUSH1 0x1 DUP3 ADD PUSH1 0x0 PUSH2 0x50E SWAP2 SWAP1 PUSH2 0x13F0 JUMP JUMPDEST PUSH1 0x2 DUP3 ADD PUSH1 0x0 SWAP1 SSTORE PUSH1 0x3 DUP3 ADD PUSH1 0x0 PUSH2 0x100 EXP DUP2 SLOAD SWAP1 PUSH20 0xFFFFFFFFFFFFFFFFFFFFFFFFFFFFFFFFFFFFFFFF MUL NOT AND SWAP1 SSTORE PUSH1 0x4 DUP3 ADD PUSH1 0x0 PUSH2 0x100 EXP DUP2 SLOAD SWAP1 PUSH20 0xFFFFFFFFFFFFFFFFFFFFFFFFFFFFFFFFFFFFFFFF MUL NOT AND SWAP1 SSTORE PUSH1 0x5 DUP3 ADD PUSH1 0x0 SWAP1 SSTORE PUSH1 0x6 DUP3 ADD PUSH1 0x0 SWAP1 SSTORE PUSH1 0x7 DUP3 ADD PUSH1 0x0 SWAP1 SSTORE POP POP SWAP1 SSTORE PUSH2 0x862 JUMP JUMPDEST PUSH1 0x0 JUMPDEST PUSH1 0x1 PUSH1 0x2 PUSH1 0x0 PUSH1 0x1 DUP2 MSTORE PUSH1 0x20 ADD SWAP1 DUP2 MSTORE PUSH1 0x20 ADD PUSH1 0x0 KECCAK256 DUP1 SLOAD SWAP1 POP PUSH2 0x5AC SWAP2 SWAP1 PUSH2 0x1B13 JUMP JUMPDEST DUP2 LT ISZERO PUSH2 0x79D JUMPI DUP2 PUSH1 0x2 PUSH1 0x0 PUSH1 0x1 DUP2 MSTORE PUSH1 0x20 ADD SWAP1 DUP2 MSTORE PUSH1 0x20 ADD PUSH1 0x0 KECCAK256 DUP3 DUP2 SLOAD DUP2 LT PUSH2 0x5DA JUMPI PUSH2 0x5D9 PUSH2 0x1CFE JUMP JUMPDEST JUMPDEST SWAP1 PUSH1 0x0 MSTORE PUSH1 0x20 PUSH1 0x0 KECCAK256 SWAP1 PUSH1 0x8 MUL ADD PUSH1 0x0 ADD SLOAD EQ ISZERO PUSH2 0x78A JUMPI PUSH1 0x2 PUSH1 0x0 PUSH1 0x1 DUP2 MSTORE PUSH1 0x20 ADD SWAP1 DUP2 MSTORE PUSH1 0x20 ADD PUSH1 0x0 KECCAK256 PUSH1 0x1 DUP3 PUSH2 0x613 SWAP2 SWAP1 PUSH2 0x1A63 JUMP JUMPDEST DUP2 SLOAD DUP2 LT PUSH2 0x624 JUMPI PUSH2 0x623 PUSH2 0x1CFE JUMP JUMPDEST JUMPDEST SWAP1 PUSH1 0x0 MSTORE PUSH1 0x20 PUSH1 0x0 KECCAK256 SWAP1 PUSH1 0x8 MUL ADD PUSH1 0x2 PUSH1 0x0 PUSH1 0x1 DUP2 MSTORE PUSH1 0x20 ADD SWAP1 DUP2 MSTORE PUSH1 0x20 ADD PUSH1 0x0 KECCAK256 DUP3 DUP2 SLOAD DUP2 LT PUSH2 0x658 JUMPI PUSH2 0x657 PUSH2 0x1CFE JUMP JUMPDEST JUMPDEST SWAP1 PUSH1 0x0 MSTORE PUSH1 0x20 PUSH1 0x0 KECCAK256 SWAP1 PUSH1 0x8 MUL ADD PUSH1 0x0 DUP3 ADD SLOAD DUP2 PUSH1 0x0 ADD SSTORE PUSH1 0x1 DUP3 ADD DUP2 PUSH1 0x1 ADD SWAP1 DUP1 SLOAD PUSH2 0x684 SWAP1 PUSH2 0x1BC5 JUMP JUMPDEST PUSH2 0x68F SWAP3 SWAP2 SWAP1 PUSH2 0x1430 JUMP JUMPDEST POP PUSH1 0x2 DUP3 ADD SLOAD DUP2 PUSH1 0x2 ADD SSTORE PUSH1 0x3 DUP3 ADD PUSH1 0x0 SWAP1 SLOAD SWAP1 PUSH2 0x100 EXP SWAP1 DIV PUSH20 0xFFFFFFFFFFFFFFFFFFFFFFFFFFFFFFFFFFFFFFFF AND DUP2 PUSH1 0x3 ADD PUSH1 0x0 PUSH2 0x100 EXP DUP2 SLOAD DUP2 PUSH20 0xFFFFFFFFFFFFFFFFFFFFFFFFFFFFFFFFFFFFFFFF MUL NOT AND SWAP1 DUP4 PUSH20 0xFFFFFFFFFFFFFFFFFFFFFFFFFFFFFFFFFFFFFFFF AND MUL OR SWAP1 SSTORE POP PUSH1 0x4 DUP3 ADD PUSH1 0x0 SWAP1 SLOAD SWAP1 PUSH2 0x100 EXP SWAP1 DIV PUSH20 0xFFFFFFFFFFFFFFFFFFFFFFFFFFFFFFFFFFFFFFFF AND DUP2 PUSH1 0x4 ADD PUSH1 0x0 PUSH2 0x100 EXP DUP2 SLOAD DUP2 PUSH20 0xFFFFFFFFFFFFFFFFFFFFFFFFFFFFFFFFFFFFFFFF MUL NOT AND SWAP1 DUP4 PUSH20 0xFFFFFFFFFFFFFFFFFFFFFFFFFFFFFFFFFFFFFFFF AND MUL OR SWAP1 SSTORE POP PUSH1 0x5 DUP3 ADD SLOAD DUP2 PUSH1 0x5 ADD SSTORE PUSH1 0x6 DUP3 ADD SLOAD DUP2 PUSH1 0x6 ADD SSTORE PUSH1 0x7 DUP3 ADD SLOAD DUP2 PUSH1 0x7 ADD SSTORE SWAP1 POP POP JUMPDEST DUP1 DUP1 PUSH2 0x795 SWAP1 PUSH2 0x1C28 JUMP JUMPDEST SWAP2 POP POP PUSH2 0x588 JUMP JUMPDEST POP PUSH1 0x2 PUSH1 0x0 PUSH1 0x1 DUP2 MSTORE PUSH1 0x20 ADD SWAP1 DUP2 MSTORE PUSH1 0x20 ADD PUSH1 0x0 KECCAK256 DUP1 SLOAD DUP1 PUSH2 0x7C2 JUMPI PUSH2 0x7C1 PUSH2 0x1CCF JUMP JUMPDEST JUMPDEST PUSH1 0x1 SWAP1 SUB DUP2 DUP2 SWAP1 PUSH1 0x0 MSTORE PUSH1 0x20 PUSH1 0x0 KECCAK256 SWAP1 PUSH1 0x8 MUL ADD PUSH1 0x0 DUP1 DUP3 ADD PUSH1 0x0 SWAP1 SSTORE PUSH1 0x1 DUP3 ADD PUSH1 0x0 PUSH2 0x7EF SWAP2 SWAP1 PUSH2 0x13F0 JUMP JUMPDEST PUSH1 0x2 DUP3 ADD PUSH1 0x0 SWAP1 SSTORE PUSH1 0x3 DUP3 ADD PUSH1 0x0 PUSH2 0x100 EXP DUP2 SLOAD SWAP1 PUSH20 0xFFFFFFFFFFFFFFFFFFFFFFFFFFFFFFFFFFFFFFFF MUL NOT AND SWAP1 SSTORE PUSH1 0x4 DUP3 ADD PUSH1 0x0 PUSH2 0x100 EXP DUP2 SLOAD SWAP1 PUSH20 0xFFFFFFFFFFFFFFFFFFFFFFFFFFFFFFFFFFFFFFFF MUL NOT AND SWAP1 SSTORE PUSH1 0x5 DUP3 ADD PUSH1 0x0 SWAP1 SSTORE PUSH1 0x6 DUP3 ADD PUSH1 0x0 SWAP1 SSTORE PUSH1 0x7 DUP3 ADD PUSH1 0x0 SWAP1 SSTORE POP POP SWAP1 SSTORE JUMPDEST PUSH1 0x2 PUSH1 0x0 PUSH1 0x3 DUP2 MSTORE PUSH1 0x20 ADD SWAP1 DUP2 MSTORE PUSH1 0x20 ADD PUSH1 0x0 KECCAK256 PUSH1 0x1 DUP1 DUP4 PUSH2 0x884 SWAP2 SWAP1 PUSH2 0x1B13 JUMP JUMPDEST DUP2 SLOAD DUP2 LT PUSH2 0x895 JUMPI PUSH2 0x894 PUSH2 0x1CFE JUMP JUMPDEST JUMPDEST SWAP1 PUSH1 0x0 MSTORE PUSH1 0x20 PUSH1 0x0 KECCAK256 SWAP1 PUSH1 0x8 MUL ADD SWAP1 DUP1 PUSH1 0x1 DUP2 SLOAD ADD DUP1 DUP3 SSTORE DUP1 SWAP2 POP POP PUSH1 0x1 SWAP1 SUB SWAP1 PUSH1 0x0 MSTORE PUSH1 0x20 PUSH1 0x0 KECCAK256 SWAP1 PUSH1 0x8 MUL ADD PUSH1 0x0 SWAP1 SWAP2 SWAP1 SWAP2 SWAP1 SWAP2 POP PUSH1 0x0 DUP3 ADD SLOAD DUP2 PUSH1 0x0 ADD SSTORE PUSH1 0x1 DUP3 ADD DUP2 PUSH1 0x1 ADD SWAP1 DUP1 SLOAD PUSH2 0x8EA SWAP1 PUSH2 0x1BC5 JUMP JUMPDEST PUSH2 0x8F5 SWAP3 SWAP2 SWAP1 PUSH2 0x1430 JUMP JUMPDEST POP PUSH1 0x2 DUP3 ADD SLOAD DUP2 PUSH1 0x2 ADD SSTORE PUSH1 0x3 DUP3 ADD PUSH1 0x0 SWAP1 SLOAD SWAP1 PUSH2 0x100 EXP SWAP1 DIV PUSH20 0xFFFFFFFFFFFFFFFFFFFFFFFFFFFFFFFFFFFFFFFF AND DUP2 PUSH1 0x3 ADD PUSH1 0x0 PUSH2 0x100 EXP DUP2 SLOAD DUP2 PUSH20 0xFFFFFFFFFFFFFFFFFFFFFFFFFFFFFFFFFFFFFFFF MUL NOT AND SWAP1 DUP4 PUSH20 0xFFFFFFFFFFFFFFFFFFFFFFFFFFFFFFFFFFFFFFFF AND MUL OR SWAP1 SSTORE POP PUSH1 0x4 DUP3 ADD PUSH1 0x0 SWAP1 SLOAD SWAP1 PUSH2 0x100 EXP SWAP1 DIV PUSH20 0xFFFFFFFFFFFFFFFFFFFFFFFFFFFFFFFFFFFFFFFF AND DUP2 PUSH1 0x4 ADD PUSH1 0x0 PUSH2 0x100 EXP DUP2 SLOAD DUP2 PUSH20 0xFFFFFFFFFFFFFFFFFFFFFFFFFFFFFFFFFFFFFFFF MUL NOT AND SWAP1 DUP4 PUSH20 0xFFFFFFFFFFFFFFFFFFFFFFFFFFFFFFFFFFFFFFFF AND MUL OR SWAP1 SSTORE POP PUSH1 0x5 DUP3 ADD SLOAD DUP2 PUSH1 0x5 ADD SSTORE PUSH1 0x6 DUP3 ADD SLOAD DUP2 PUSH1 0x6 ADD SSTORE PUSH1 0x7 DUP3 ADD SLOAD DUP2 PUSH1 0x7 ADD SSTORE POP POP POP JUMP JUMPDEST PUSH1 0x1 DUP2 DUP2 SLOAD DUP2 LT PUSH2 0xA01 JUMPI PUSH1 0x0 DUP1 REVERT JUMPDEST SWAP1 PUSH1 0x0 MSTORE PUSH1 0x20 PUSH1 0x0 KECCAK256 SWAP1 PUSH1 0x8 MUL ADD PUSH1 0x0 SWAP2 POP SWAP1 POP DUP1 PUSH1 0x0 ADD SLOAD SWAP1 DUP1 PUSH1 0x1 ADD DUP1 SLOAD PUSH2 0xA2A SWAP1 PUSH2 0x1BC5 JUMP JUMPDEST DUP1 PUSH1 0x1F ADD PUSH1 0x20 DUP1 SWAP2 DIV MUL PUSH1 0x20 ADD PUSH1 0x40 MLOAD SWAP1 DUP2 ADD PUSH1 0x40 MSTORE DUP1 SWAP3 SWAP2 SWAP1 DUP2 DUP2 MSTORE PUSH1 0x20 ADD DUP3 DUP1 SLOAD PUSH2 0xA56 SWAP1 PUSH2 0x1BC5 JUMP JUMPDEST DUP1 ISZERO PUSH2 0xAA3 JUMPI DUP1 PUSH1 0x1F LT PUSH2 0xA78 JUMPI PUSH2 0x100 DUP1 DUP4 SLOAD DIV MUL DUP4 MSTORE SWAP2 PUSH1 0x20 ADD SWAP2 PUSH2 0xAA3 JUMP JUMPDEST DUP3 ADD SWAP2 SWAP1 PUSH1 0x0 MSTORE PUSH1 0x20 PUSH1 0x0 KECCAK256 SWAP1 JUMPDEST DUP2 SLOAD DUP2 MSTORE SWAP1 PUSH1 0x1 ADD SWAP1 PUSH1 0x20 ADD DUP1 DUP4 GT PUSH2 0xA86 JUMPI DUP3 SWAP1 SUB PUSH1 0x1F AND DUP3 ADD SWAP2 JUMPDEST POP POP POP POP POP SWAP1 DUP1 PUSH1 0x2 ADD SLOAD SWAP1 DUP1 PUSH1 0x3 ADD PUSH1 0x0 SWAP1 SLOAD SWAP1 PUSH2 0x100 EXP SWAP1 DIV PUSH20 0xFFFFFFFFFFFFFFFFFFFFFFFFFFFFFFFFFFFFFFFF AND SWAP1 DUP1 PUSH1 0x4 ADD PUSH1 0x0 SWAP1 SLOAD SWAP1 PUSH2 0x100 EXP SWAP1 DIV PUSH20 0xFFFFFFFFFFFFFFFFFFFFFFFFFFFFFFFFFFFFFFFF AND SWAP1 DUP1 PUSH1 0x5 ADD SLOAD SWAP1 DUP1 PUSH1 0x6 ADD SLOAD SWAP1 DUP1 PUSH1 0x7 ADD SLOAD SWAP1 POP DUP9 JUMP JUMPDEST PUSH1 0x60 PUSH1 0x0 DUP3 EQ ISZERO PUSH2 0xCEC JUMPI PUSH1 0x1 DUP1 SLOAD DUP1 PUSH1 0x20 MUL PUSH1 0x20 ADD PUSH1 0x40 MLOAD SWAP1 DUP2 ADD PUSH1 0x40 MSTORE DUP1 SWAP3 SWAP2 SWAP1 DUP2 DUP2 MSTORE PUSH1 0x20 ADD PUSH1 0x0 SWAP1 JUMPDEST DUP3 DUP3 LT ISZERO PUSH2 0xCE1 JUMPI DUP4 DUP3 SWAP1 PUSH1 0x0 MSTORE PUSH1 0x20 PUSH1 0x0 KECCAK256 SWAP1 PUSH1 0x8 MUL ADD PUSH1 0x40 MLOAD DUP1 PUSH2 0x100 ADD PUSH1 0x40 MSTORE SWAP1 DUP2 PUSH1 0x0 DUP3 ADD SLOAD DUP2 MSTORE PUSH1 0x20 ADD PUSH1 0x1 DUP3 ADD DUP1 SLOAD PUSH2 0xB7C SWAP1 PUSH2 0x1BC5 JUMP JUMPDEST DUP1 PUSH1 0x1F ADD PUSH1 0x20 DUP1 SWAP2 DIV MUL PUSH1 0x20 ADD PUSH1 0x40 MLOAD SWAP1 DUP2 ADD PUSH1 0x40 MSTORE DUP1 SWAP3 SWAP2 SWAP1 DUP2 DUP2 MSTORE PUSH1 0x20 ADD DUP3 DUP1 SLOAD PUSH2 0xBA8 SWAP1 PUSH2 0x1BC5 JUMP JUMPDEST DUP1 ISZERO PUSH2 0xBF5 JUMPI DUP1 PUSH1 0x1F LT PUSH2 0xBCA JUMPI PUSH2 0x100 DUP1 DUP4 SLOAD DIV MUL DUP4 MSTORE SWAP2 PUSH1 0x20 ADD SWAP2 PUSH2 0xBF5 JUMP JUMPDEST DUP3 ADD SWAP2 SWAP1 PUSH1 0x0 MSTORE PUSH1 0x20 PUSH1 0x0 KECCAK256 SWAP1 JUMPDEST DUP2 SLOAD DUP2 MSTORE SWAP1 PUSH1 0x1 ADD SWAP1 PUSH1 0x20 ADD DUP1 DUP4 GT PUSH2 0xBD8 JUMPI DUP3 SWAP1 SUB PUSH1 0x1F AND DUP3 ADD SWAP2 JUMPDEST POP POP POP POP POP DUP2 MSTORE PUSH1 0x20 ADD PUSH1 0x2 DUP3 ADD SLOAD DUP2 MSTORE PUSH1 0x20 ADD PUSH1 0x3 DUP3 ADD PUSH1 0x0 SWAP1 SLOAD SWAP1 PUSH2 0x100 EXP SWAP1 DIV PUSH20 0xFFFFFFFFFFFFFFFFFFFFFFFFFFFFFFFFFFFFFFFF AND PUSH20 0xFFFFFFFFFFFFFFFFFFFFFFFFFFFFFFFFFFFFFFFF AND PUSH20 0xFFFFFFFFFFFFFFFFFFFFFFFFFFFFFFFFFFFFFFFF AND DUP2 MSTORE PUSH1 0x20 ADD PUSH1 0x4 DUP3 ADD PUSH1 0x0 SWAP1 SLOAD SWAP1 PUSH2 0x100 EXP SWAP1 DIV PUSH20 0xFFFFFFFFFFFFFFFFFFFFFFFFFFFFFFFFFFFFFFFF AND PUSH20 0xFFFFFFFFFFFFFFFFFFFFFFFFFFFFFFFFFFFFFFFF AND PUSH20 0xFFFFFFFFFFFFFFFFFFFFFFFFFFFFFFFFFFFFFFFF AND DUP2 MSTORE PUSH1 0x20 ADD PUSH1 0x5 DUP3 ADD SLOAD DUP2 MSTORE PUSH1 0x20 ADD PUSH1 0x6 DUP3 ADD SLOAD DUP2 MSTORE PUSH1 0x20 ADD PUSH1 0x7 DUP3 ADD SLOAD DUP2 MSTORE POP POP DUP2 MSTORE PUSH1 0x20 ADD SWAP1 PUSH1 0x1 ADD SWAP1 PUSH2 0xB3E JUMP JUMPDEST POP POP POP POP SWAP1 POP PUSH2 0xEC9 JUMP JUMPDEST PUSH1 0x2 PUSH1 0x0 DUP4 DUP2 MSTORE PUSH1 0x20 ADD SWAP1 DUP2 MSTORE PUSH1 0x20 ADD PUSH1 0x0 KECCAK256 DUP1 SLOAD DUP1 PUSH1 0x20 MUL PUSH1 0x20 ADD PUSH1 0x40 MLOAD SWAP1 DUP2 ADD PUSH1 0x40 MSTORE DUP1 SWAP3 SWAP2 SWAP1 DUP2 DUP2 MSTORE PUSH1 0x20 ADD PUSH1 0x0 SWAP1 JUMPDEST DUP3 DUP3 LT ISZERO PUSH2 0xEC2 JUMPI DUP4 DUP3 SWAP1 PUSH1 0x0 MSTORE PUSH1 0x20 PUSH1 0x0 KECCAK256 SWAP1 PUSH1 0x8 MUL ADD PUSH1 0x40 MLOAD DUP1 PUSH2 0x100 ADD PUSH1 0x40 MSTORE SWAP1 DUP2 PUSH1 0x0 DUP3 ADD SLOAD DUP2 MSTORE PUSH1 0x20 ADD PUSH1 0x1 DUP3 ADD DUP1 SLOAD PUSH2 0xD5D SWAP1 PUSH2 0x1BC5 JUMP JUMPDEST DUP1 PUSH1 0x1F ADD PUSH1 0x20 DUP1 SWAP2 DIV MUL PUSH1 0x20 ADD PUSH1 0x40 MLOAD SWAP1 DUP2 ADD PUSH1 0x40 MSTORE DUP1 SWAP3 SWAP2 SWAP1 DUP2 DUP2 MSTORE PUSH1 0x20 ADD DUP3 DUP1 SLOAD PUSH2 0xD89 SWAP1 PUSH2 0x1BC5 JUMP JUMPDEST DUP1 ISZERO PUSH2 0xDD6 JUMPI DUP1 PUSH1 0x1F LT PUSH2 0xDAB JUMPI PUSH2 0x100 DUP1 DUP4 SLOAD DIV MUL DUP4 MSTORE SWAP2 PUSH1 0x20 ADD SWAP2 PUSH2 0xDD6 JUMP JUMPDEST DUP3 ADD SWAP2 SWAP1 PUSH1 0x0 MSTORE PUSH1 0x20 PUSH1 0x0 KECCAK256 SWAP1 JUMPDEST DUP2 SLOAD DUP2 MSTORE SWAP1 PUSH1 0x1 ADD SWAP1 PUSH1 0x20 ADD DUP1 DUP4 GT PUSH2 0xDB9 JUMPI DUP3 SWAP1 SUB PUSH1 0x1F AND DUP3 ADD SWAP2 JUMPDEST POP POP POP POP POP DUP2 MSTORE PUSH1 0x20 ADD PUSH1 0x2 DUP3 ADD SLOAD DUP2 MSTORE PUSH1 0x20 ADD PUSH1 0x3 DUP3 ADD PUSH1 0x0 SWAP1 SLOAD SWAP1 PUSH2 0x100 EXP SWAP1 DIV PUSH20 0xFFFFFFFFFFFFFFFFFFFFFFFFFFFFFFFFFFFFFFFF AND PUSH20 0xFFFFFFFFFFFFFFFFFFFFFFFFFFFFFFFFFFFFFFFF AND PUSH20 0xFFFFFFFFFFFFFFFFFFFFFFFFFFFFFFFFFFFFFFFF AND DUP2 MSTORE PUSH1 0x20 ADD PUSH1 0x4 DUP3 ADD PUSH1 0x0 SWAP1 SLOAD SWAP1 PUSH2 0x100 EXP SWAP1 DIV PUSH20 0xFFFFFFFFFFFFFFFFFFFFFFFFFFFFFFFFFFFFFFFF AND PUSH20 0xFFFFFFFFFFFFFFFFFFFFFFFFFFFFFFFFFFFFFFFF AND PUSH20 0xFFFFFFFFFFFFFFFFFFFFFFFFFFFFFFFFFFFFFFFF AND DUP2 MSTORE PUSH1 0x20 ADD PUSH1 0x5 DUP3 ADD SLOAD DUP2 MSTORE PUSH1 0x20 ADD PUSH1 0x6 DUP3 ADD SLOAD DUP2 MSTORE PUSH1 0x20 ADD PUSH1 0x7 DUP3 ADD SLOAD DUP2 MSTORE POP POP DUP2 MSTORE PUSH1 0x20 ADD SWAP1 PUSH1 0x1 ADD SWAP1 PUSH2 0xD1F JUMP JUMPDEST POP POP POP POP SWAP1 POP JUMPDEST SWAP2 SWAP1 POP JUMP JUMPDEST PUSH1 0x0 DUP1 DUP2 SLOAD DUP1 SWAP3 SWAP2 SWAP1 PUSH2 0xEE0 SWAP1 PUSH2 0x1C28 JUMP JUMPDEST SWAP2 SWAP1 POP SSTORE POP PUSH1 0x0 PUSH1 0x40 MLOAD DUP1 PUSH2 0x100 ADD PUSH1 0x40 MSTORE DUP1 PUSH1 0x0 SLOAD DUP2 MSTORE PUSH1 0x20 ADD DUP6 DUP2 MSTORE PUSH1 0x20 ADD PUSH1 0x1 DUP2 MSTORE PUSH1 0x20 ADD CALLER PUSH20 0xFFFFFFFFFFFFFFFFFFFFFFFFFFFFFFFFFFFFFFFF AND DUP2 MSTORE PUSH1 0x20 ADD DUP5 PUSH20 0xFFFFFFFFFFFFFFFFFFFFFFFFFFFFFFFFFFFFFFFF AND DUP2 MSTORE PUSH1 0x20 ADD PUSH1 0x0 DUP2 MSTORE PUSH1 0x20 ADD PUSH2 0xF50 DUP5 PUSH2 0x12D2 JUMP JUMPDEST DUP2 MSTORE PUSH1 0x20 ADD PUSH1 0x0 DUP2 MSTORE POP SWAP1 POP PUSH1 0x1 DUP2 SWAP1 DUP1 PUSH1 0x1 DUP2 SLOAD ADD DUP1 DUP3 SSTORE DUP1 SWAP2 POP POP PUSH1 0x1 SWAP1 SUB SWAP1 PUSH1 0x0 MSTORE PUSH1 0x20 PUSH1 0x0 KECCAK256 SWAP1 PUSH1 0x8 MUL ADD PUSH1 0x0 SWAP1 SWAP2 SWAP1 SWAP2 SWAP1 SWAP2 POP PUSH1 0x0 DUP3 ADD MLOAD DUP2 PUSH1 0x0 ADD SSTORE PUSH1 0x20 DUP3 ADD MLOAD DUP2 PUSH1 0x1 ADD SWAP1 DUP1 MLOAD SWAP1 PUSH1 0x20 ADD SWAP1 PUSH2 0xFAE SWAP3 SWAP2 SWAP1 PUSH2 0x136A JUMP JUMPDEST POP PUSH1 0x40 DUP3 ADD MLOAD DUP2 PUSH1 0x2 ADD SSTORE PUSH1 0x60 DUP3 ADD MLOAD DUP2 PUSH1 0x3 ADD PUSH1 0x0 PUSH2 0x100 EXP DUP2 SLOAD DUP2 PUSH20 0xFFFFFFFFFFFFFFFFFFFFFFFFFFFFFFFFFFFFFFFF MUL NOT AND SWAP1 DUP4 PUSH20 0xFFFFFFFFFFFFFFFFFFFFFFFFFFFFFFFFFFFFFFFF AND MUL OR SWAP1 SSTORE POP PUSH1 0x80 DUP3 ADD MLOAD DUP2 PUSH1 0x4 ADD PUSH1 0x0 PUSH2 0x100 EXP DUP2 SLOAD DUP2 PUSH20 0xFFFFFFFFFFFFFFFFFFFFFFFFFFFFFFFFFFFFFFFF MUL NOT AND SWAP1 DUP4 PUSH20 0xFFFFFFFFFFFFFFFFFFFFFFFFFFFFFFFFFFFFFFFF AND MUL OR SWAP1 SSTORE POP PUSH1 0xA0 DUP3 ADD MLOAD DUP2 PUSH1 0x5 ADD SSTORE PUSH1 0xC0 DUP3 ADD MLOAD DUP2 PUSH1 0x6 ADD SSTORE PUSH1 0xE0 DUP3 ADD MLOAD DUP2 PUSH1 0x7 ADD SSTORE POP POP PUSH1 0x2 PUSH1 0x0 PUSH1 0x1 DUP2 MSTORE PUSH1 0x20 ADD SWAP1 DUP2 MSTORE PUSH1 0x20 ADD PUSH1 0x0 KECCAK256 DUP2 SWAP1 DUP1 PUSH1 0x1 DUP2 SLOAD ADD DUP1 DUP3 SSTORE DUP1 SWAP2 POP POP PUSH1 0x1 SWAP1 SUB SWAP1 PUSH1 0x0 MSTORE PUSH1 0x20 PUSH1 0x0 KECCAK256 SWAP1 PUSH1 0x8 MUL ADD PUSH1 0x0 SWAP1 SWAP2 SWAP1 SWAP2 SWAP1 SWAP2 POP PUSH1 0x0 DUP3 ADD MLOAD DUP2 PUSH1 0x0 ADD SSTORE PUSH1 0x20 DUP3 ADD MLOAD DUP2 PUSH1 0x1 ADD SWAP1 DUP1 MLOAD SWAP1 PUSH1 0x20 ADD SWAP1 PUSH2 0x10CB SWAP3 SWAP2 SWAP1 PUSH2 0x136A JUMP JUMPDEST POP PUSH1 0x40 DUP3 ADD MLOAD DUP2 PUSH1 0x2 ADD SSTORE PUSH1 0x60 DUP3 ADD MLOAD DUP2 PUSH1 0x3 ADD PUSH1 0x0 PUSH2 0x100 EXP DUP2 SLOAD DUP2 PUSH20 0xFFFFFFFFFFFFFFFFFFFFFFFFFFFFFFFFFFFFFFFF MUL NOT AND SWAP1 DUP4 PUSH20 0xFFFFFFFFFFFFFFFFFFFFFFFFFFFFFFFFFFFFFFFF AND MUL OR SWAP1 SSTORE POP PUSH1 0x80 DUP3 ADD MLOAD DUP2 PUSH1 0x4 ADD PUSH1 0x0 PUSH2 0x100 EXP DUP2 SLOAD DUP2 PUSH20 0xFFFFFFFFFFFFFFFFFFFFFFFFFFFFFFFFFFFFFFFF MUL NOT AND SWAP1 DUP4 PUSH20 0xFFFFFFFFFFFFFFFFFFFFFFFFFFFFFFFFFFFFFFFF AND MUL OR SWAP1 SSTORE POP PUSH1 0xA0 DUP3 ADD MLOAD DUP2 PUSH1 0x5 ADD SSTORE PUSH1 0xC0 DUP3 ADD MLOAD DUP2 PUSH1 0x6 ADD SSTORE PUSH1 0xE0 DUP3 ADD MLOAD DUP2 PUSH1 0x7 ADD SSTORE POP POP PUSH1 0x3 PUSH1 0x0 CALLER PUSH20 0xFFFFFFFFFFFFFFFFFFFFFFFFFFFFFFFFFFFFFFFF AND PUSH20 0xFFFFFFFFFFFFFFFFFFFFFFFFFFFFFFFFFFFFFFFF AND DUP2 MSTORE PUSH1 0x20 ADD SWAP1 DUP2 MSTORE PUSH1 0x20 ADD PUSH1 0x0 KECCAK256 DUP2 SWAP1 DUP1 PUSH1 0x1 DUP2 SLOAD ADD DUP1 DUP3 SSTORE DUP1 SWAP2 POP POP PUSH1 0x1 SWAP1 SUB SWAP1 PUSH1 0x0 MSTORE PUSH1 0x20 PUSH1 0x0 KECCAK256 SWAP1 PUSH1 0x8 MUL ADD PUSH1 0x0 SWAP1 SWAP2 SWAP1 SWAP2 SWAP1 SWAP2 POP PUSH1 0x0 DUP3 ADD MLOAD DUP2 PUSH1 0x0 ADD SSTORE PUSH1 0x20 DUP3 ADD MLOAD DUP2 PUSH1 0x1 ADD SWAP1 DUP1 MLOAD SWAP1 PUSH1 0x20 ADD SWAP1 PUSH2 0x1213 SWAP3 SWAP2 SWAP1 PUSH2 0x136A JUMP JUMPDEST POP PUSH1 0x40 DUP3 ADD MLOAD DUP2 PUSH1 0x2 ADD SSTORE PUSH1 0x60 DUP3 ADD MLOAD DUP2 PUSH1 0x3 ADD PUSH1 0x0 PUSH2 0x100 EXP DUP2 SLOAD DUP2 PUSH20 0xFFFFFFFFFFFFFFFFFFFFFFFFFFFFFFFFFFFFFFFF MUL NOT AND SWAP1 DUP4 PUSH20 0xFFFFFFFFFFFFFFFFFFFFFFFFFFFFFFFFFFFFFFFF AND MUL OR SWAP1 SSTORE POP PUSH1 0x80 DUP3 ADD MLOAD DUP2 PUSH1 0x4 ADD PUSH1 0x0 PUSH2 0x100 EXP DUP2 SLOAD DUP2 PUSH20 0xFFFFFFFFFFFFFFFFFFFFFFFFFFFFFFFFFFFFFFFF MUL NOT AND SWAP1 DUP4 PUSH20 0xFFFFFFFFFFFFFFFFFFFFFFFFFFFFFFFFFFFFFFFF AND MUL OR SWAP1 SSTORE POP PUSH1 0xA0 DUP3 ADD MLOAD DUP2 PUSH1 0x5 ADD SSTORE PUSH1 0xC0 DUP3 ADD MLOAD DUP2 PUSH1 0x6 ADD SSTORE PUSH1 0xE0 DUP3 ADD MLOAD DUP2 PUSH1 0x7 ADD SSTORE POP POP POP POP POP POP JUMP JUMPDEST PUSH1 0x0 DUP1 DUP3 SWAP1 POP PUSH1 0x0 DUP1 JUMPDEST DUP3 MLOAD DUP2 LT ISZERO PUSH2 0x135F JUMPI PUSH1 0x0 DUP4 DUP3 DUP2 MLOAD DUP2 LT PUSH2 0x12FA JUMPI PUSH2 0x12F9 PUSH2 0x1CFE JUMP JUMPDEST JUMPDEST PUSH1 0x20 ADD ADD MLOAD PUSH1 0xF8 SHR PUSH1 0xF8 SHL PUSH1 0xF8 SHR PUSH1 0xFF AND SWAP1 POP PUSH1 0x30 DUP2 LT ISZERO DUP1 ISZERO PUSH2 0x131F JUMPI POP PUSH1 0x39 DUP2 GT ISZERO JUMPDEST ISZERO PUSH2 0x134B JUMPI PUSH1 0x30 DUP2 PUSH2 0x1331 SWAP2 SWAP1 PUSH2 0x1B13 JUMP JUMPDEST PUSH1 0xA DUP5 PUSH2 0x133E SWAP2 SWAP1 PUSH2 0x1AB9 JUMP JUMPDEST PUSH2 0x1348 SWAP2 SWAP1 PUSH2 0x1A63 JUMP JUMPDEST SWAP3 POP JUMPDEST POP DUP1 DUP1 PUSH2 0x1357 SWAP1 PUSH2 0x1C28 JUMP JUMPDEST SWAP2 POP POP PUSH2 0x12DC JUMP JUMPDEST POP DUP1 SWAP3 POP POP POP SWAP2 SWAP1 POP JUMP JUMPDEST DUP3 DUP1 SLOAD PUSH2 0x1376 SWAP1 PUSH2 0x1BC5 JUMP JUMPDEST SWAP1 PUSH1 0x0 MSTORE PUSH1 0x20 PUSH1 0x0 KECCAK256 SWAP1 PUSH1 0x1F ADD PUSH1 0x20 SWAP1 DIV DUP2 ADD SWAP3 DUP3 PUSH2 0x1398 JUMPI PUSH1 0x0 DUP6 SSTORE PUSH2 0x13DF JUMP JUMPDEST DUP3 PUSH1 0x1F LT PUSH2 0x13B1 JUMPI DUP1 MLOAD PUSH1 0xFF NOT AND DUP4 DUP1 ADD OR DUP6 SSTORE PUSH2 0x13DF JUMP JUMPDEST DUP3 DUP1 ADD PUSH1 0x1 ADD DUP6 SSTORE DUP3 ISZERO PUSH2 0x13DF JUMPI SWAP2 DUP3 ADD JUMPDEST DUP3 DUP2 GT ISZERO PUSH2 0x13DE JUMPI DUP3 MLOAD DUP3 SSTORE SWAP2 PUSH1 0x20 ADD SWAP2 SWAP1 PUSH1 0x1 ADD SWAP1 PUSH2 0x13C3 JUMP JUMPDEST JUMPDEST POP SWAP1 POP PUSH2 0x13EC SWAP2 SWAP1 PUSH2 0x14BD JUMP JUMPDEST POP SWAP1 JUMP JUMPDEST POP DUP1 SLOAD PUSH2 0x13FC SWAP1 PUSH2 0x1BC5 JUMP JUMPDEST PUSH1 0x0 DUP3 SSTORE DUP1 PUSH1 0x1F LT PUSH2 0x140E JUMPI POP PUSH2 0x142D JUMP JUMPDEST PUSH1 0x1F ADD PUSH1 0x20 SWAP1 DIV SWAP1 PUSH1 0x0 MSTORE PUSH1 0x20 PUSH1 0x0 KECCAK256 SWAP1 DUP2 ADD SWAP1 PUSH2 0x142C SWAP2 SWAP1 PUSH2 0x14BD JUMP JUMPDEST JUMPDEST POP JUMP JUMPDEST DUP3 DUP1 SLOAD PUSH2 0x143C SWAP1 PUSH2 0x1BC5 JUMP JUMPDEST SWAP1 PUSH1 0x0 MSTORE PUSH1 0x20 PUSH1 0x0 KECCAK256 SWAP1 PUSH1 0x1F ADD PUSH1 0x20 SWAP1 DIV DUP2 ADD SWAP3 DUP3 PUSH2 0x145E JUMPI PUSH1 0x0 DUP6 SSTORE PUSH2 0x14AC JUMP JUMPDEST DUP3 PUSH1 0x1F LT PUSH2 0x146F JUMPI DUP1 SLOAD DUP6 SSTORE PUSH2 0x14AC JUMP JUMPDEST DUP3 DUP1 ADD PUSH1 0x1 ADD DUP6 SSTORE DUP3 ISZERO PUSH2 0x14AC JUMPI PUSH1 0x0 MSTORE PUSH1 0x20 PUSH1 0x0 KECCAK256 SWAP2 PUSH1 0x1F ADD PUSH1 0x20 SWAP1 DIV DUP3 ADD JUMPDEST DUP3 DUP2 GT ISZERO PUSH2 0x14AB JUMPI DUP3 SLOAD DUP3 SSTORE SWAP2 PUSH1 0x1 ADD SWAP2 SWAP1 PUSH1 0x1 ADD SWAP1 PUSH2 0x1490 JUMP JUMPDEST JUMPDEST POP SWAP1 POP PUSH2 0x14B9 SWAP2 SWAP1 PUSH2 0x14BD JUMP JUMPDEST POP SWAP1 JUMP JUMPDEST JUMPDEST DUP1 DUP3 GT ISZERO PUSH2 0x14D6 JUMPI PUSH1 0x0 DUP2 PUSH1 0x0 SWAP1 SSTORE POP PUSH1 0x1 ADD PUSH2 0x14BE JUMP JUMPDEST POP SWAP1 JUMP JUMPDEST PUSH1 0x0 PUSH2 0x14ED PUSH2 0x14E8 DUP5 PUSH2 0x19CC JUMP JUMPDEST PUSH2 0x19A7 JUMP JUMPDEST SWAP1 POP DUP3 DUP2 MSTORE PUSH1 0x20 DUP2 ADD DUP5 DUP5 DUP5 ADD GT ISZERO PUSH2 0x1509 JUMPI PUSH2 0x1508 PUSH2 0x1D61 JUMP JUMPDEST JUMPDEST PUSH2 0x1514 DUP5 DUP3 DUP6 PUSH2 0x1B83 JUMP JUMPDEST POP SWAP4 SWAP3 POP POP POP JUMP JUMPDEST PUSH1 0x0 DUP2 CALLDATALOAD SWAP1 POP PUSH2 0x152B DUP2 PUSH2 0x1D81 JUMP JUMPDEST SWAP3 SWAP2 POP POP JUMP JUMPDEST PUSH1 0x0 DUP3 PUSH1 0x1F DUP4 ADD SLT PUSH2 0x1546 JUMPI PUSH2 0x1545 PUSH2 0x1D5C JUMP JUMPDEST JUMPDEST DUP2 CALLDATALOAD PUSH2 0x1556 DUP5 DUP3 PUSH1 0x20 DUP7 ADD PUSH2 0x14DA JUMP JUMPDEST SWAP2 POP POP SWAP3 SWAP2 POP POP JUMP JUMPDEST PUSH1 0x0 DUP2 CALLDATALOAD SWAP1 POP PUSH2 0x156E DUP2 PUSH2 0x1D98 JUMP JUMPDEST SWAP3 SWAP2 POP POP JUMP JUMPDEST PUSH1 0x0 PUSH1 0x20 DUP3 DUP5 SUB SLT ISZERO PUSH2 0x158A JUMPI PUSH2 0x1589 PUSH2 0x1D6B JUMP JUMPDEST JUMPDEST PUSH1 0x0 PUSH2 0x1598 DUP5 DUP3 DUP6 ADD PUSH2 0x151C JUMP JUMPDEST SWAP2 POP POP SWAP3 SWAP2 POP POP JUMP JUMPDEST PUSH1 0x0 PUSH1 0x20 DUP3 DUP5 SUB SLT ISZERO PUSH2 0x15B7 JUMPI PUSH2 0x15B6 PUSH2 0x1D6B JUMP JUMPDEST JUMPDEST PUSH1 0x0 DUP3 ADD CALLDATALOAD PUSH8 0xFFFFFFFFFFFFFFFF DUP2 GT ISZERO PUSH2 0x15D5 JUMPI PUSH2 0x15D4 PUSH2 0x1D66 JUMP JUMPDEST JUMPDEST PUSH2 0x15E1 DUP5 DUP3 DUP6 ADD PUSH2 0x1531 JUMP JUMPDEST SWAP2 POP POP SWAP3 SWAP2 POP POP JUMP JUMPDEST PUSH1 0x0 DUP1 PUSH1 0x0 PUSH1 0x60 DUP5 DUP7 SUB SLT ISZERO PUSH2 0x1603 JUMPI PUSH2 0x1602 PUSH2 0x1D6B JUMP JUMPDEST JUMPDEST PUSH1 0x0 DUP5 ADD CALLDATALOAD PUSH8 0xFFFFFFFFFFFFFFFF DUP2 GT ISZERO PUSH2 0x1621 JUMPI PUSH2 0x1620 PUSH2 0x1D66 JUMP JUMPDEST JUMPDEST PUSH2 0x162D DUP7 DUP3 DUP8 ADD PUSH2 0x1531 JUMP JUMPDEST SWAP4 POP POP PUSH1 0x20 PUSH2 0x163E DUP7 DUP3 DUP8 ADD PUSH2 0x151C JUMP JUMPDEST SWAP3 POP POP PUSH1 0x40 DUP5 ADD CALLDATALOAD PUSH8 0xFFFFFFFFFFFFFFFF DUP2 GT ISZERO PUSH2 0x165F JUMPI PUSH2 0x165E PUSH2 0x1D66 JUMP JUMPDEST JUMPDEST PUSH2 0x166B DUP7 DUP3 DUP8 ADD PUSH2 0x1531 JUMP JUMPDEST SWAP2 POP POP SWAP3 POP SWAP3 POP SWAP3 JUMP JUMPDEST PUSH1 0x0 PUSH1 0x20 DUP3 DUP5 SUB SLT ISZERO PUSH2 0x168B JUMPI PUSH2 0x168A PUSH2 0x1D6B JUMP JUMPDEST JUMPDEST PUSH1 0x0 PUSH2 0x1699 DUP5 DUP3 DUP6 ADD PUSH2 0x155F JUMP JUMPDEST SWAP2 POP POP SWAP3 SWAP2 POP POP JUMP JUMPDEST PUSH1 0x0 DUP1 PUSH1 0x40 DUP4 DUP6 SUB SLT ISZERO PUSH2 0x16B9 JUMPI PUSH2 0x16B8 PUSH2 0x1D6B JUMP JUMPDEST JUMPDEST PUSH1 0x0 PUSH2 0x16C7 DUP6 DUP3 DUP7 ADD PUSH2 0x155F JUMP JUMPDEST SWAP3 POP POP PUSH1 0x20 DUP4 ADD CALLDATALOAD PUSH8 0xFFFFFFFFFFFFFFFF DUP2 GT ISZERO PUSH2 0x16E8 JUMPI PUSH2 0x16E7 PUSH2 0x1D66 JUMP JUMPDEST JUMPDEST PUSH2 0x16F4 DUP6 DUP3 DUP7 ADD PUSH2 0x1531 JUMP JUMPDEST SWAP2 POP POP SWAP3 POP SWAP3 SWAP1 POP JUMP JUMPDEST PUSH1 0x0 PUSH2 0x170A DUP4 DUP4 PUSH2 0x1817 JUMP JUMPDEST SWAP1 POP SWAP3 SWAP2 POP POP JUMP JUMPDEST PUSH2 0x171B DUP2 PUSH2 0x1B47 JUMP JUMPDEST DUP3 MSTORE POP POP JUMP JUMPDEST PUSH2 0x172A DUP2 PUSH2 0x1B47 JUMP JUMPDEST DUP3 MSTORE POP POP JUMP JUMPDEST PUSH1 0x0 PUSH2 0x173B DUP3 PUSH2 0x1A0D JUMP JUMPDEST PUSH2 0x1745 DUP2 DUP6 PUSH2 0x1A30 JUMP JUMPDEST SWAP4 POP DUP4 PUSH1 0x20 DUP3 MUL DUP6 ADD PUSH2 0x1757 DUP6 PUSH2 0x19FD JUMP JUMPDEST DUP1 PUSH1 0x0 JUMPDEST DUP6 DUP2 LT ISZERO PUSH2 0x1793 JUMPI DUP5 DUP5 SUB DUP10 MSTORE DUP2 MLOAD PUSH2 0x1774 DUP6 DUP3 PUSH2 0x16FE JUMP JUMPDEST SWAP5 POP PUSH2 0x177F DUP4 PUSH2 0x1A23 JUMP JUMPDEST SWAP3 POP PUSH1 0x20 DUP11 ADD SWAP10 POP POP PUSH1 0x1 DUP2 ADD SWAP1 POP PUSH2 0x175B JUMP JUMPDEST POP DUP3 SWAP8 POP DUP8 SWAP6 POP POP POP POP POP POP SWAP3 SWAP2 POP POP JUMP JUMPDEST PUSH1 0x0 PUSH2 0x17B0 DUP3 PUSH2 0x1A18 JUMP JUMPDEST PUSH2 0x17BA DUP2 DUP6 PUSH2 0x1A41 JUMP JUMPDEST SWAP4 POP PUSH2 0x17CA DUP2 DUP6 PUSH1 0x20 DUP7 ADD PUSH2 0x1B92 JUMP JUMPDEST PUSH2 0x17D3 DUP2 PUSH2 0x1D70 JUMP JUMPDEST DUP5 ADD SWAP2 POP POP SWAP3 SWAP2 POP POP JUMP JUMPDEST PUSH1 0x0 PUSH2 0x17E9 DUP3 PUSH2 0x1A18 JUMP JUMPDEST PUSH2 0x17F3 DUP2 DUP6 PUSH2 0x1A52 JUMP JUMPDEST SWAP4 POP PUSH2 0x1803 DUP2 DUP6 PUSH1 0x20 DUP7 ADD PUSH2 0x1B92 JUMP JUMPDEST PUSH2 0x180C DUP2 PUSH2 0x1D70 JUMP JUMPDEST DUP5 ADD SWAP2 POP POP SWAP3 SWAP2 POP POP JUMP JUMPDEST PUSH1 0x0 PUSH2 0x100 DUP4 ADD PUSH1 0x0 DUP4 ADD MLOAD PUSH2 0x1830 PUSH1 0x0 DUP7 ADD DUP3 PUSH2 0x18C7 JUMP JUMPDEST POP PUSH1 0x20 DUP4 ADD MLOAD DUP5 DUP3 SUB PUSH1 0x20 DUP7 ADD MSTORE PUSH2 0x1848 DUP3 DUP3 PUSH2 0x17A5 JUMP JUMPDEST SWAP2 POP POP PUSH1 0x40 DUP4 ADD MLOAD PUSH2 0x185D PUSH1 0x40 DUP7 ADD DUP3 PUSH2 0x18C7 JUMP JUMPDEST POP PUSH1 0x60 DUP4 ADD MLOAD PUSH2 0x1870 PUSH1 0x60 DUP7 ADD DUP3 PUSH2 0x1712 JUMP JUMPDEST POP PUSH1 0x80 DUP4 ADD MLOAD PUSH2 0x1883 PUSH1 0x80 DUP7 ADD DUP3 PUSH2 0x1712 JUMP JUMPDEST POP PUSH1 0xA0 DUP4 ADD MLOAD PUSH2 0x1896 PUSH1 0xA0 DUP7 ADD DUP3 PUSH2 0x18C7 JUMP JUMPDEST POP PUSH1 0xC0 DUP4 ADD MLOAD PUSH2 0x18A9 PUSH1 0xC0 DUP7 ADD DUP3 PUSH2 0x18C7 JUMP JUMPDEST POP PUSH1 0xE0 DUP4 ADD MLOAD PUSH2 0x18BC PUSH1 0xE0 DUP7 ADD DUP3 PUSH2 0x18C7 JUMP JUMPDEST POP DUP1 SWAP2 POP POP SWAP3 SWAP2 POP POP JUMP JUMPDEST PUSH2 0x18D0 DUP2 PUSH2 0x1B79 JUMP JUMPDEST DUP3 MSTORE POP POP JUMP JUMPDEST PUSH2 0x18DF DUP2 PUSH2 0x1B79 JUMP JUMPDEST DUP3 MSTORE POP POP JUMP JUMPDEST PUSH1 0x0 PUSH1 0x20 DUP3 ADD SWAP1 POP DUP2 DUP2 SUB PUSH1 0x0 DUP4 ADD MSTORE PUSH2 0x18FF DUP2 DUP5 PUSH2 0x1730 JUMP JUMPDEST SWAP1 POP SWAP3 SWAP2 POP POP JUMP JUMPDEST PUSH1 0x0 PUSH1 0x20 DUP3 ADD SWAP1 POP PUSH2 0x191C PUSH1 0x0 DUP4 ADD DUP5 PUSH2 0x18D6 JUMP JUMPDEST SWAP3 SWAP2 POP POP JUMP JUMPDEST PUSH1 0x0 PUSH2 0x100 DUP3 ADD SWAP1 POP PUSH2 0x1938 PUSH1 0x0 DUP4 ADD DUP12 PUSH2 0x18D6 JUMP JUMPDEST DUP2 DUP2 SUB PUSH1 0x20 DUP4 ADD MSTORE PUSH2 0x194A DUP2 DUP11 PUSH2 0x17DE JUMP JUMPDEST SWAP1 POP PUSH2 0x1959 PUSH1 0x40 DUP4 ADD DUP10 PUSH2 0x18D6 JUMP JUMPDEST PUSH2 0x1966 PUSH1 0x60 DUP4 ADD DUP9 PUSH2 0x1721 JUMP JUMPDEST PUSH2 0x1973 PUSH1 0x80 DUP4 ADD DUP8 PUSH2 0x1721 JUMP JUMPDEST PUSH2 0x1980 PUSH1 0xA0 DUP4 ADD DUP7 PUSH2 0x18D6 JUMP JUMPDEST PUSH2 0x198D PUSH1 0xC0 DUP4 ADD DUP6 PUSH2 0x18D6 JUMP JUMPDEST PUSH2 0x199A PUSH1 0xE0 DUP4 ADD DUP5 PUSH2 0x18D6 JUMP JUMPDEST SWAP10 SWAP9 POP POP POP POP POP POP POP POP POP JUMP JUMPDEST PUSH1 0x0 PUSH2 0x19B1 PUSH2 0x19C2 JUMP JUMPDEST SWAP1 POP PUSH2 0x19BD DUP3 DUP3 PUSH2 0x1BF7 JUMP JUMPDEST SWAP2 SWAP1 POP JUMP JUMPDEST PUSH1 0x0 PUSH1 0x40 MLOAD SWAP1 POP SWAP1 JUMP JUMPDEST PUSH1 0x0 PUSH8 0xFFFFFFFFFFFFFFFF DUP3 GT ISZERO PUSH2 0x19E7 JUMPI PUSH2 0x19E6 PUSH2 0x1D2D JUMP JUMPDEST JUMPDEST PUSH2 0x19F0 DUP3 PUSH2 0x1D70 JUMP JUMPDEST SWAP1 POP PUSH1 0x20 DUP2 ADD SWAP1 POP SWAP2 SWAP1 POP JUMP JUMPDEST PUSH1 0x0 DUP2 SWAP1 POP PUSH1 0x20 DUP3 ADD SWAP1 POP SWAP2 SWAP1 POP JUMP JUMPDEST PUSH1 0x0 DUP2 MLOAD SWAP1 POP SWAP2 SWAP1 POP JUMP JUMPDEST PUSH1 0x0 DUP2 MLOAD SWAP1 POP SWAP2 SWAP1 POP JUMP JUMPDEST PUSH1 0x0 PUSH1 0x20 DUP3 ADD SWAP1 POP SWAP2 SWAP1 POP JUMP JUMPDEST PUSH1 0x0 DUP3 DUP3 MSTORE PUSH1 0x20 DUP3 ADD SWAP1 POP SWAP3 SWAP2 POP POP JUMP JUMPDEST PUSH1 0x0 DUP3 DUP3 MSTORE PUSH1 0x20 DUP3 ADD SWAP1 POP SWAP3 SWAP2 POP POP JUMP JUMPDEST PUSH1 0x0 DUP3 DUP3 MSTORE PUSH1 0x20 DUP3 ADD SWAP1 POP SWAP3 SWAP2 POP POP JUMP JUMPDEST PUSH1 0x0 PUSH2 0x1A6E DUP3 PUSH2 0x1B79 JUMP JUMPDEST SWAP2 POP PUSH2 0x1A79 DUP4 PUSH2 0x1B79 JUMP JUMPDEST SWAP3 POP DUP3 PUSH32 0xFFFFFFFFFFFFFFFFFFFFFFFFFFFFFFFFFFFFFFFFFFFFFFFFFFFFFFFFFFFFFFFF SUB DUP3 GT ISZERO PUSH2 0x1AAE JUMPI PUSH2 0x1AAD PUSH2 0x1C71 JUMP JUMPDEST JUMPDEST DUP3 DUP3 ADD SWAP1 POP SWAP3 SWAP2 POP POP JUMP JUMPDEST PUSH1 0x0 PUSH2 0x1AC4 DUP3 PUSH2 0x1B79 JUMP JUMPDEST SWAP2 POP PUSH2 0x1ACF DUP4 PUSH2 0x1B79 JUMP JUMPDEST SWAP3 POP DUP2 PUSH32 0xFFFFFFFFFFFFFFFFFFFFFFFFFFFFFFFFFFFFFFFFFFFFFFFFFFFFFFFFFFFFFFFF DIV DUP4 GT DUP3 ISZERO ISZERO AND ISZERO PUSH2 0x1B08 JUMPI PUSH2 0x1B07 PUSH2 0x1C71 JUMP JUMPDEST JUMPDEST DUP3 DUP3 MUL SWAP1 POP SWAP3 SWAP2 POP POP JUMP JUMPDEST PUSH1 0x0 PUSH2 0x1B1E DUP3 PUSH2 0x1B79 JUMP JUMPDEST SWAP2 POP PUSH2 0x1B29 DUP4 PUSH2 0x1B79 JUMP JUMPDEST SWAP3 POP DUP3 DUP3 LT ISZERO PUSH2 0x1B3C JUMPI PUSH2 0x1B3B PUSH2 0x1C71 JUMP JUMPDEST JUMPDEST DUP3 DUP3 SUB SWAP1 POP SWAP3 SWAP2 POP POP JUMP JUMPDEST PUSH1 0x0 PUSH2 0x1B52 DUP3 PUSH2 0x1B59 JUMP JUMPDEST SWAP1 POP SWAP2 SWAP1 POP JUMP JUMPDEST PUSH1 0x0 PUSH20 0xFFFFFFFFFFFFFFFFFFFFFFFFFFFFFFFFFFFFFFFF DUP3 AND SWAP1 POP SWAP2 SWAP1 POP JUMP JUMPDEST PUSH1 0x0 DUP2 SWAP1 POP SWAP2 SWAP1 POP JUMP JUMPDEST DUP3 DUP2 DUP4 CALLDATACOPY PUSH1 0x0 DUP4 DUP4 ADD MSTORE POP POP POP JUMP JUMPDEST PUSH1 0x0 JUMPDEST DUP4 DUP2 LT ISZERO PUSH2 0x1BB0 JUMPI DUP1 DUP3 ADD MLOAD DUP2 DUP5 ADD MSTORE PUSH1 0x20 DUP2 ADD SWAP1 POP PUSH2 0x1B95 JUMP JUMPDEST DUP4 DUP2 GT ISZERO PUSH2 0x1BBF JUMPI PUSH1 0x0 DUP5 DUP5 ADD MSTORE JUMPDEST POP POP POP POP JUMP JUMPDEST PUSH1 0x0 PUSH1 0x2 DUP3 DIV SWAP1 POP PUSH1 0x1 DUP3 AND DUP1 PUSH2 0x1BDD JUMPI PUSH1 0x7F DUP3 AND SWAP2 POP JUMPDEST PUSH1 0x20 DUP3 LT DUP2 EQ ISZERO PUSH2 0x1BF1 JUMPI PUSH2 0x1BF0 PUSH2 0x1CA0 JUMP JUMPDEST JUMPDEST POP SWAP2 SWAP1 POP JUMP JUMPDEST PUSH2 0x1C00 DUP3 PUSH2 0x1D70 JUMP JUMPDEST DUP2 ADD DUP2 DUP2 LT PUSH8 0xFFFFFFFFFFFFFFFF DUP3 GT OR ISZERO PUSH2 0x1C1F JUMPI PUSH2 0x1C1E PUSH2 0x1D2D JUMP JUMPDEST JUMPDEST DUP1 PUSH1 0x40 MSTORE POP POP POP JUMP JUMPDEST PUSH1 0x0 PUSH2 0x1C33 DUP3 PUSH2 0x1B79 JUMP JUMPDEST SWAP2 POP PUSH32 0xFFFFFFFFFFFFFFFFFFFFFFFFFFFFFFFFFFFFFFFFFFFFFFFFFFFFFFFFFFFFFFFF DUP3 EQ ISZERO PUSH2 0x1C66 JUMPI PUSH2 0x1C65 PUSH2 0x1C71 JUMP JUMPDEST JUMPDEST PUSH1 0x1 DUP3 ADD SWAP1 POP SWAP2 SWAP1 POP JUMP JUMPDEST PUSH32 0x4E487B7100000000000000000000000000000000000000000000000000000000 PUSH1 0x0 MSTORE PUSH1 0x11 PUSH1 0x4 MSTORE PUSH1 0x24 PUSH1 0x0 REVERT JUMPDEST PUSH32 0x4E487B7100000000000000000000000000000000000000000000000000000000 PUSH1 0x0 MSTORE PUSH1 0x22 PUSH1 0x4 MSTORE PUSH1 0x24 PUSH1 0x0 REVERT JUMPDEST PUSH32 0x4E487B7100000000000000000000000000000000000000000000000000000000 PUSH1 0x0 MSTORE PUSH1 0x31 PUSH1 0x4 MSTORE PUSH1 0x24 PUSH1 0x0 REVERT JUMPDEST PUSH32 0x4E487B7100000000000000000000000000000000000000000000000000000000 PUSH1 0x0 MSTORE PUSH1 0x32 PUSH1 0x4 MSTORE PUSH1 0x24 PUSH1 0x0 REVERT JUMPDEST PUSH32 0x4E487B7100000000000000000000000000000000000000000000000000000000 PUSH1 0x0 MSTORE PUSH1 0x41 PUSH1 0x4 MSTORE PUSH1 0x24 PUSH1 0x0 REVERT JUMPDEST PUSH1 0x0 DUP1 REVERT JUMPDEST PUSH1 0x0 DUP1 REVERT JUMPDEST PUSH1 0x0 DUP1 REVERT JUMPDEST PUSH1 0x0 DUP1 REVERT JUMPDEST PUSH1 0x0 PUSH1 0x1F NOT PUSH1 0x1F DUP4 ADD AND SWAP1 POP SWAP2 SWAP1 POP JUMP JUMPDEST PUSH2 0x1D8A DUP2 PUSH2 0x1B47 JUMP JUMPDEST DUP2 EQ PUSH2 0x1D95 JUMPI PUSH1 0x0 DUP1 REVERT JUMPDEST POP JUMP JUMPDEST PUSH2 0x1DA1 DUP2 PUSH2 0x1B79 JUMP JUMPDEST DUP2 EQ PUSH2 0x1DAC JUMPI PUSH1 0x0 DUP1 REVERT JUMPDEST POP JUMP INVALID LOG2 PUSH5 0x6970667358 0x22 SLT KECCAK256 SWAP2 PUSH10 0xB63D57C32FB8370485ED SIGNEXTEND BALANCE ORIGIN 0x4B 0xDE PC 0xC1 0xCA 0xC8 CREATE MSTORE8 KECCAK256 OR 0x2F BYTE 0x24 JUMP 0xA9 PUSH8 0x4F64736F6C634300 ADDMOD SMOD STOP CALLER "
				},
				"gasEstimates": {
					"creation": {
						"codeDepositCost": "1530600",
						"executionCost": "1603",
						"totalCost": "1532203"
					},
					"external": {
						"createCrowdfunding(string,address,string)": "infinite",
						"getCrowdfundingByStatus(uint256)": "infinite",
						"getMyCrowdfunding(address)": "infinite",
						"join(uint256)": "infinite",
						"list(uint256)": "infinite",
						"setStatus(uint256)": "infinite",
						"setTitle(uint256,string)": "infinite",
						"stringToInt(string)": "infinite"
					}
				},
				"methodIdentifiers": {
					"createCrowdfunding(string,address,string)": "a97af4d5",
					"getCrowdfundingByStatus(uint256)": "904cc175",
					"getMyCrowdfunding(address)": "377e6ff7",
					"join(uint256)": "049878f3",
					"list(uint256)": "80c9419e",
					"setStatus(uint256)": "69ba1a75",
					"setTitle(uint256,string)": "5102bc9d",
					"stringToInt(string)": "f8a02d84"
				}
			},
			"storageLayout": {
				"storage": [
					{
						"astId": 3,
						"contract": "crowdfunding.sol:CrowdfundingContract",
						"label": "No",
						"offset": 0,
						"slot": "0",
						"type": "t_uint256"
					},
					{
						"astId": 24,
						"contract": "crowdfunding.sol:CrowdfundingContract",
						"label": "list",
						"offset": 0,
						"slot": "1",
						"type": "t_array(t_struct(Crowdfunding)20_storage)dyn_storage"
					},
					{
						"astId": 30,
						"contract": "crowdfunding.sol:CrowdfundingContract",
						"label": "filterDataByStatus",
						"offset": 0,
						"slot": "2",
						"type": "t_mapping(t_uint256,t_array(t_struct(Crowdfunding)20_storage)dyn_storage)"
					},
					{
						"astId": 36,
						"contract": "crowdfunding.sol:CrowdfundingContract",
						"label": "myCrowdfunding",
						"offset": 0,
						"slot": "3",
						"type": "t_mapping(t_address,t_array(t_struct(Crowdfunding)20_storage)dyn_storage)"
					},
					{
						"astId": 41,
						"contract": "crowdfunding.sol:CrowdfundingContract",
						"label": "calcJoinNum",
						"offset": 0,
						"slot": "4",
						"type": "t_mapping(t_uint256,t_array(t_address)dyn_storage)"
					}
				],
				"types": {
					"t_address": {
						"encoding": "inplace",
						"label": "address",
						"numberOfBytes": "20"
					},
					"t_array(t_address)dyn_storage": {
						"base": "t_address",
						"encoding": "dynamic_array",
						"label": "address[]",
						"numberOfBytes": "32"
					},
					"t_array(t_struct(Crowdfunding)20_storage)dyn_storage": {
						"base": "t_struct(Crowdfunding)20_storage",
						"encoding": "dynamic_array",
						"label": "struct CrowdfundingContract.Crowdfunding[]",
						"numberOfBytes": "32"
					},
					"t_mapping(t_address,t_array(t_struct(Crowdfunding)20_storage)dyn_storage)": {
						"encoding": "mapping",
						"key": "t_address",
						"label": "mapping(address => struct CrowdfundingContract.Crowdfunding[])",
						"numberOfBytes": "32",
						"value": "t_array(t_struct(Crowdfunding)20_storage)dyn_storage"
					},
					"t_mapping(t_uint256,t_array(t_address)dyn_storage)": {
						"encoding": "mapping",
						"key": "t_uint256",
						"label": "mapping(uint256 => address[])",
						"numberOfBytes": "32",
						"value": "t_array(t_address)dyn_storage"
					},
					"t_mapping(t_uint256,t_array(t_struct(Crowdfunding)20_storage)dyn_storage)": {
						"encoding": "mapping",
						"key": "t_uint256",
						"label": "mapping(uint256 => struct CrowdfundingContract.Crowdfunding[])",
						"numberOfBytes": "32",
						"value": "t_array(t_struct(Crowdfunding)20_storage)dyn_storage"
					},
					"t_string_storage": {
						"encoding": "bytes",
						"label": "string",
						"numberOfBytes": "32"
					},
					"t_struct(Crowdfunding)20_storage": {
						"encoding": "inplace",
						"label": "struct CrowdfundingContract.Crowdfunding",
						"members": [
							{
								"astId": 5,
								"contract": "crowdfunding.sol:CrowdfundingContract",
								"label": "num",
								"offset": 0,
								"slot": "0",
								"type": "t_uint256"
							},
							{
								"astId": 7,
								"contract": "crowdfunding.sol:CrowdfundingContract",
								"label": "title",
								"offset": 0,
								"slot": "1",
								"type": "t_string_storage"
							},
							{
								"astId": 9,
								"contract": "crowdfunding.sol:CrowdfundingContract",
								"label": "status",
								"offset": 0,
								"slot": "2",
								"type": "t_uint256"
							},
							{
								"astId": 11,
								"contract": "crowdfunding.sol:CrowdfundingContract",
								"label": "creator",
								"offset": 0,
								"slot": "3",
								"type": "t_address"
							},
							{
								"astId": 13,
								"contract": "crowdfunding.sol:CrowdfundingContract",
								"label": "recipient",
								"offset": 0,
								"slot": "4",
								"type": "t_address"
							},
							{
								"astId": 15,
								"contract": "crowdfunding.sol:CrowdfundingContract",
								"label": "joinNum",
								"offset": 0,
								"slot": "5",
								"type": "t_uint256"
							},
							{
								"astId": 17,
								"contract": "crowdfunding.sol:CrowdfundingContract",
								"label": "expectAmout",
								"offset": 0,
								"slot": "6",
								"type": "t_uint256"
							},
							{
								"astId": 19,
								"contract": "crowdfunding.sol:CrowdfundingContract",
								"label": "actualAmount",
								"offset": 0,
								"slot": "7",
								"type": "t_uint256"
							}
						],
						"numberOfBytes": "256"
					},
					"t_uint256": {
						"encoding": "inplace",
						"label": "uint256",
						"numberOfBytes": "32"
					}
				}
			},
			"userdoc": {
				"kind": "user",
				"methods": {},
				"version": 1
			}
		}
	}
}