{
	"crowdfunding.sol": {
		"Crowdfunding": {
			"abi": [
				{
					"inputs": [
						{
							"components": [
								{
									"internalType": "uint256",
									"name": "num",
									"type": "uint256"
								},
								{
									"internalType": "string",
									"name": "status",
									"type": "string"
								},
								{
									"internalType": "address",
									"name": "creator",
									"type": "address"
								},
								{
									"internalType": "address",
									"name": "recipient",
									"type": "address"
								},
								{
									"internalType": "uint256",
									"name": "joinNum",
									"type": "uint256"
								},
								{
									"internalType": "uint256",
									"name": "joinLimitNum",
									"type": "uint256"
								},
								{
									"internalType": "string",
									"name": "expectAmout",
									"type": "string"
								},
								{
									"internalType": "string",
									"name": "actualAmount",
									"type": "string"
								}
							],
							"internalType": "struct Crowdfunding.Crowdfunding",
							"name": "c",
							"type": "tuple"
						}
					],
					"name": "createCrowdfunding",
					"outputs": [],
					"stateMutability": "nonpayable",
					"type": "function"
				}
			],
			"devdoc": {
				"kind": "dev",
				"methods": {},
				"version": 1
			},
			"evm": {
				"assembly": "    /* \"crowdfunding.sol\":61:605  contract Crowdfunding {\r... */\n  mstore(0x40, 0x80)\n  callvalue\n  dup1\n  iszero\n  tag_1\n  jumpi\n  0x00\n  dup1\n  revert\ntag_1:\n  pop\n  dataSize(sub_0)\n  dup1\n  dataOffset(sub_0)\n  0x00\n  codecopy\n  0x00\n  return\nstop\n\nsub_0: assembly {\n        /* \"crowdfunding.sol\":61:605  contract Crowdfunding {\r... */\n      mstore(0x40, 0x80)\n      callvalue\n      dup1\n      iszero\n      tag_1\n      jumpi\n      0x00\n      dup1\n      revert\n    tag_1:\n      pop\n      jumpi(tag_2, lt(calldatasize, 0x04))\n      shr(0xe0, calldataload(0x00))\n      dup1\n      0xcf87a871\n      eq\n      tag_3\n      jumpi\n    tag_2:\n      0x00\n      dup1\n      revert\n        /* \"crowdfunding.sol\":528:596  function createCrowdfunding(Crowdfunding memory c) public {\r... */\n    tag_3:\n      tag_4\n      0x04\n      dup1\n      calldatasize\n      sub\n      dup2\n      add\n      swap1\n      tag_5\n      swap2\n      swap1\n      tag_6\n      jump\t// in\n    tag_5:\n      tag_7\n      jump\t// in\n    tag_4:\n      stop\n    tag_7:\n      pop\n      jump\t// out\n        /* \"#utility.yul\":7:419   */\n    tag_10:\n        /* \"#utility.yul\":85:90   */\n      0x00\n        /* \"#utility.yul\":110:176   */\n      tag_12\n        /* \"#utility.yul\":126:175   */\n      tag_13\n        /* \"#utility.yul\":168:174   */\n      dup5\n        /* \"#utility.yul\":126:175   */\n      tag_14\n      jump\t// in\n    tag_13:\n        /* \"#utility.yul\":110:176   */\n      tag_15\n      jump\t// in\n    tag_12:\n        /* \"#utility.yul\":101:176   */\n      swap1\n      pop\n        /* \"#utility.yul\":199:205   */\n      dup3\n        /* \"#utility.yul\":192:197   */\n      dup2\n        /* \"#utility.yul\":185:206   */\n      mstore\n        /* \"#utility.yul\":237:241   */\n      0x20\n        /* \"#utility.yul\":230:235   */\n      dup2\n        /* \"#utility.yul\":226:242   */\n      add\n        /* \"#utility.yul\":275:278   */\n      dup5\n        /* \"#utility.yul\":266:272   */\n      dup5\n        /* \"#utility.yul\":261:264   */\n      dup5\n        /* \"#utility.yul\":257:273   */\n      add\n        /* \"#utility.yul\":254:279   */\n      gt\n        /* \"#utility.yul\":251:363   */\n      iszero\n      tag_16\n      jumpi\n        /* \"#utility.yul\":282:361   */\n      tag_17\n      tag_18\n      jump\t// in\n    tag_17:\n        /* \"#utility.yul\":251:363   */\n    tag_16:\n        /* \"#utility.yul\":372:413   */\n      tag_19\n        /* \"#utility.yul\":406:412   */\n      dup5\n        /* \"#utility.yul\":401:404   */\n      dup3\n        /* \"#utility.yul\":396:399   */\n      dup6\n        /* \"#utility.yul\":372:413   */\n      tag_20\n      jump\t// in\n    tag_19:\n        /* \"#utility.yul\":91:419   */\n      pop\n        /* \"#utility.yul\":7:419   */\n      swap4\n      swap3\n      pop\n      pop\n      pop\n      jump\t// out\n        /* \"#utility.yul\":425:564   */\n    tag_21:\n        /* \"#utility.yul\":471:476   */\n      0x00\n        /* \"#utility.yul\":509:515   */\n      dup2\n        /* \"#utility.yul\":496:516   */\n      calldataload\n        /* \"#utility.yul\":487:516   */\n      swap1\n      pop\n        /* \"#utility.yul\":525:558   */\n      tag_23\n        /* \"#utility.yul\":552:557   */\n      dup2\n        /* \"#utility.yul\":525:558   */\n      tag_24\n      jump\t// in\n    tag_23:\n        /* \"#utility.yul\":425:564   */\n      swap3\n      swap2\n      pop\n      pop\n      jump\t// out\n        /* \"#utility.yul\":584:924   */\n    tag_25:\n        /* \"#utility.yul\":640:645   */\n      0x00\n        /* \"#utility.yul\":689:692   */\n      dup3\n        /* \"#utility.yul\":682:686   */\n      0x1f\n        /* \"#utility.yul\":674:680   */\n      dup4\n        /* \"#utility.yul\":670:687   */\n      add\n        /* \"#utility.yul\":666:693   */\n      slt\n        /* \"#utility.yul\":656:778   */\n      tag_27\n      jumpi\n        /* \"#utility.yul\":697:776   */\n      tag_28\n      tag_29\n      jump\t// in\n    tag_28:\n        /* \"#utility.yul\":656:778   */\n    tag_27:\n        /* \"#utility.yul\":814:820   */\n      dup2\n        /* \"#utility.yul\":801:821   */\n      calldataload\n        /* \"#utility.yul\":839:918   */\n      tag_30\n        /* \"#utility.yul\":914:917   */\n      dup5\n        /* \"#utility.yul\":906:912   */\n      dup3\n        /* \"#utility.yul\":899:903   */\n      0x20\n        /* \"#utility.yul\":891:897   */\n      dup7\n        /* \"#utility.yul\":887:904   */\n      add\n        /* \"#utility.yul\":839:918   */\n      tag_10\n      jump\t// in\n    tag_30:\n        /* \"#utility.yul\":830:918   */\n      swap2\n      pop\n        /* \"#utility.yul\":646:924   */\n      pop\n        /* \"#utility.yul\":584:924   */\n      swap3\n      swap2\n      pop\n      pop\n      jump\t// out\n        /* \"#utility.yul\":970:3066   */\n    tag_31:\n        /* \"#utility.yul\":1047:1052   */\n      0x00\n        /* \"#utility.yul\":1091:1097   */\n      0x0100\n        /* \"#utility.yul\":1079:1088   */\n      dup3\n        /* \"#utility.yul\":1074:1077   */\n      dup5\n        /* \"#utility.yul\":1070:1089   */\n      sub\n        /* \"#utility.yul\":1066:1098   */\n      slt\n        /* \"#utility.yul\":1063:1182   */\n      iszero\n      tag_33\n      jumpi\n        /* \"#utility.yul\":1101:1180   */\n      tag_34\n      tag_35\n      jump\t// in\n    tag_34:\n        /* \"#utility.yul\":1063:1182   */\n    tag_33:\n        /* \"#utility.yul\":1200:1223   */\n      tag_36\n        /* \"#utility.yul\":1216:1222   */\n      0x0100\n        /* \"#utility.yul\":1200:1223   */\n      tag_15\n      jump\t// in\n    tag_36:\n        /* \"#utility.yul\":1191:1223   */\n      swap1\n      pop\n        /* \"#utility.yul\":1281:1282   */\n      0x00\n        /* \"#utility.yul\":1321:1370   */\n      tag_37\n        /* \"#utility.yul\":1366:1369   */\n      dup5\n        /* \"#utility.yul\":1357:1363   */\n      dup3\n        /* \"#utility.yul\":1346:1355   */\n      dup6\n        /* \"#utility.yul\":1342:1364   */\n      add\n        /* \"#utility.yul\":1321:1370   */\n      tag_38\n      jump\t// in\n    tag_37:\n        /* \"#utility.yul\":1314:1318   */\n      0x00\n        /* \"#utility.yul\":1307:1312   */\n      dup4\n        /* \"#utility.yul\":1303:1319   */\n      add\n        /* \"#utility.yul\":1296:1371   */\n      mstore\n        /* \"#utility.yul\":1233:1382   */\n      pop\n        /* \"#utility.yul\":1471:1473   */\n      0x20\n        /* \"#utility.yul\":1460:1469   */\n      dup3\n        /* \"#utility.yul\":1456:1474   */\n      add\n        /* \"#utility.yul\":1443:1475   */\n      calldataload\n        /* \"#utility.yul\":1502:1520   */\n      0xffffffffffffffff\n        /* \"#utility.yul\":1494:1500   */\n      dup2\n        /* \"#utility.yul\":1491:1521   */\n      gt\n        /* \"#utility.yul\":1488:1605   */\n      iszero\n      tag_39\n      jumpi\n        /* \"#utility.yul\":1524:1603   */\n      tag_40\n      tag_41\n      jump\t// in\n    tag_40:\n        /* \"#utility.yul\":1488:1605   */\n    tag_39:\n        /* \"#utility.yul\":1644:1703   */\n      tag_42\n        /* \"#utility.yul\":1699:1702   */\n      dup5\n        /* \"#utility.yul\":1690:1696   */\n      dup3\n        /* \"#utility.yul\":1679:1688   */\n      dup6\n        /* \"#utility.yul\":1675:1697   */\n      add\n        /* \"#utility.yul\":1644:1703   */\n      tag_25\n      jump\t// in\n    tag_42:\n        /* \"#utility.yul\":1637:1641   */\n      0x20\n        /* \"#utility.yul\":1630:1635   */\n      dup4\n        /* \"#utility.yul\":1626:1642   */\n      add\n        /* \"#utility.yul\":1619:1704   */\n      mstore\n        /* \"#utility.yul\":1392:1715   */\n      pop\n        /* \"#utility.yul\":1777:1779   */\n      0x40\n        /* \"#utility.yul\":1818:1867   */\n      tag_43\n        /* \"#utility.yul\":1863:1866   */\n      dup5\n        /* \"#utility.yul\":1854:1860   */\n      dup3\n        /* \"#utility.yul\":1843:1852   */\n      dup6\n        /* \"#utility.yul\":1839:1861   */\n      add\n        /* \"#utility.yul\":1818:1867   */\n      tag_21\n      jump\t// in\n    tag_43:\n        /* \"#utility.yul\":1811:1815   */\n      0x40\n        /* \"#utility.yul\":1804:1809   */\n      dup4\n        /* \"#utility.yul\":1800:1816   */\n      add\n        /* \"#utility.yul\":1793:1868   */\n      mstore\n        /* \"#utility.yul\":1725:1879   */\n      pop\n        /* \"#utility.yul\":1943:1945   */\n      0x60\n        /* \"#utility.yul\":1984:2033   */\n      tag_44\n        /* \"#utility.yul\":2029:2032   */\n      dup5\n        /* \"#utility.yul\":2020:2026   */\n      dup3\n        /* \"#utility.yul\":2009:2018   */\n      dup6\n        /* \"#utility.yul\":2005:2027   */\n      add\n        /* \"#utility.yul\":1984:2033   */\n      tag_21\n      jump\t// in\n    tag_44:\n        /* \"#utility.yul\":1977:1981   */\n      0x60\n        /* \"#utility.yul\":1970:1975   */\n      dup4\n        /* \"#utility.yul\":1966:1982   */\n      add\n        /* \"#utility.yul\":1959:2034   */\n      mstore\n        /* \"#utility.yul\":1889:2045   */\n      pop\n        /* \"#utility.yul\":2107:2110   */\n      0x80\n        /* \"#utility.yul\":2149:2198   */\n      tag_45\n        /* \"#utility.yul\":2194:2197   */\n      dup5\n        /* \"#utility.yul\":2185:2191   */\n      dup3\n        /* \"#utility.yul\":2174:2183   */\n      dup6\n        /* \"#utility.yul\":2170:2192   */\n      add\n        /* \"#utility.yul\":2149:2198   */\n      tag_38\n      jump\t// in\n    tag_45:\n        /* \"#utility.yul\":2142:2146   */\n      0x80\n        /* \"#utility.yul\":2135:2140   */\n      dup4\n        /* \"#utility.yul\":2131:2147   */\n      add\n        /* \"#utility.yul\":2124:2199   */\n      mstore\n        /* \"#utility.yul\":2055:2210   */\n      pop\n        /* \"#utility.yul\":2277:2280   */\n      0xa0\n        /* \"#utility.yul\":2319:2368   */\n      tag_46\n        /* \"#utility.yul\":2364:2367   */\n      dup5\n        /* \"#utility.yul\":2355:2361   */\n      dup3\n        /* \"#utility.yul\":2344:2353   */\n      dup6\n        /* \"#utility.yul\":2340:2362   */\n      add\n        /* \"#utility.yul\":2319:2368   */\n      tag_38\n      jump\t// in\n    tag_46:\n        /* \"#utility.yul\":2312:2316   */\n      0xa0\n        /* \"#utility.yul\":2305:2310   */\n      dup4\n        /* \"#utility.yul\":2301:2317   */\n      add\n        /* \"#utility.yul\":2294:2369   */\n      mstore\n        /* \"#utility.yul\":2220:2380   */\n      pop\n        /* \"#utility.yul\":2474:2477   */\n      0xc0\n        /* \"#utility.yul\":2463:2472   */\n      dup3\n        /* \"#utility.yul\":2459:2478   */\n      add\n        /* \"#utility.yul\":2446:2479   */\n      calldataload\n        /* \"#utility.yul\":2506:2524   */\n      0xffffffffffffffff\n        /* \"#utility.yul\":2498:2504   */\n      dup2\n        /* \"#utility.yul\":2495:2525   */\n      gt\n        /* \"#utility.yul\":2492:2609   */\n      iszero\n      tag_47\n      jumpi\n        /* \"#utility.yul\":2528:2607   */\n      tag_48\n      tag_41\n      jump\t// in\n    tag_48:\n        /* \"#utility.yul\":2492:2609   */\n    tag_47:\n        /* \"#utility.yul\":2648:2707   */\n      tag_49\n        /* \"#utility.yul\":2703:2706   */\n      dup5\n        /* \"#utility.yul\":2694:2700   */\n      dup3\n        /* \"#utility.yul\":2683:2692   */\n      dup6\n        /* \"#utility.yul\":2679:2701   */\n      add\n        /* \"#utility.yul\":2648:2707   */\n      tag_25\n      jump\t// in\n    tag_49:\n        /* \"#utility.yul\":2641:2645   */\n      0xc0\n        /* \"#utility.yul\":2634:2639   */\n      dup4\n        /* \"#utility.yul\":2630:2646   */\n      add\n        /* \"#utility.yul\":2623:2708   */\n      mstore\n        /* \"#utility.yul\":2390:2719   */\n      pop\n        /* \"#utility.yul\":2814:2817   */\n      0xe0\n        /* \"#utility.yul\":2803:2812   */\n      dup3\n        /* \"#utility.yul\":2799:2818   */\n      add\n        /* \"#utility.yul\":2786:2819   */\n      calldataload\n        /* \"#utility.yul\":2846:2864   */\n      0xffffffffffffffff\n        /* \"#utility.yul\":2838:2844   */\n      dup2\n        /* \"#utility.yul\":2835:2865   */\n      gt\n        /* \"#utility.yul\":2832:2949   */\n      iszero\n      tag_50\n      jumpi\n        /* \"#utility.yul\":2868:2947   */\n      tag_51\n      tag_41\n      jump\t// in\n    tag_51:\n        /* \"#utility.yul\":2832:2949   */\n    tag_50:\n        /* \"#utility.yul\":2988:3047   */\n      tag_52\n        /* \"#utility.yul\":3043:3046   */\n      dup5\n        /* \"#utility.yul\":3034:3040   */\n      dup3\n        /* \"#utility.yul\":3023:3032   */\n      dup6\n        /* \"#utility.yul\":3019:3041   */\n      add\n        /* \"#utility.yul\":2988:3047   */\n      tag_25\n      jump\t// in\n    tag_52:\n        /* \"#utility.yul\":2981:2985   */\n      0xe0\n        /* \"#utility.yul\":2974:2979   */\n      dup4\n        /* \"#utility.yul\":2970:2986   */\n      add\n        /* \"#utility.yul\":2963:3048   */\n      mstore\n        /* \"#utility.yul\":2729:3059   */\n      pop\n        /* \"#utility.yul\":970:3066   */\n      swap3\n      swap2\n      pop\n      pop\n      jump\t// out\n        /* \"#utility.yul\":3072:3211   */\n    tag_38:\n        /* \"#utility.yul\":3118:3123   */\n      0x00\n        /* \"#utility.yul\":3156:3162   */\n      dup2\n        /* \"#utility.yul\":3143:3163   */\n      calldataload\n        /* \"#utility.yul\":3134:3163   */\n      swap1\n      pop\n        /* \"#utility.yul\":3172:3205   */\n      tag_54\n        /* \"#utility.yul\":3199:3204   */\n      dup2\n        /* \"#utility.yul\":3172:3205   */\n      tag_55\n      jump\t// in\n    tag_54:\n        /* \"#utility.yul\":3072:3211   */\n      swap3\n      swap2\n      pop\n      pop\n      jump\t// out\n        /* \"#utility.yul\":3217:3762   */\n    tag_6:\n        /* \"#utility.yul\":3304:3310   */\n      0x00\n        /* \"#utility.yul\":3353:3355   */\n      0x20\n        /* \"#utility.yul\":3341:3350   */\n      dup3\n        /* \"#utility.yul\":3332:3339   */\n      dup5\n        /* \"#utility.yul\":3328:3351   */\n      sub\n        /* \"#utility.yul\":3324:3356   */\n      slt\n        /* \"#utility.yul\":3321:3440   */\n      iszero\n      tag_57\n      jumpi\n        /* \"#utility.yul\":3359:3438   */\n      tag_58\n      tag_59\n      jump\t// in\n    tag_58:\n        /* \"#utility.yul\":3321:3440   */\n    tag_57:\n        /* \"#utility.yul\":3507:3508   */\n      0x00\n        /* \"#utility.yul\":3496:3505   */\n      dup3\n        /* \"#utility.yul\":3492:3509   */\n      add\n        /* \"#utility.yul\":3479:3510   */\n      calldataload\n        /* \"#utility.yul\":3537:3555   */\n      0xffffffffffffffff\n        /* \"#utility.yul\":3529:3535   */\n      dup2\n        /* \"#utility.yul\":3526:3556   */\n      gt\n        /* \"#utility.yul\":3523:3640   */\n      iszero\n      tag_60\n      jumpi\n        /* \"#utility.yul\":3559:3638   */\n      tag_61\n      tag_62\n      jump\t// in\n    tag_61:\n        /* \"#utility.yul\":3523:3640   */\n    tag_60:\n        /* \"#utility.yul\":3664:3745   */\n      tag_63\n        /* \"#utility.yul\":3737:3744   */\n      dup5\n        /* \"#utility.yul\":3728:3734   */\n      dup3\n        /* \"#utility.yul\":3717:3726   */\n      dup6\n        /* \"#utility.yul\":3713:3735   */\n      add\n        /* \"#utility.yul\":3664:3745   */\n      tag_31\n      jump\t// in\n    tag_63:\n        /* \"#utility.yul\":3654:3745   */\n      swap2\n      pop\n        /* \"#utility.yul\":3450:3755   */\n      pop\n        /* \"#utility.yul\":3217:3762   */\n      swap3\n      swap2\n      pop\n      pop\n      jump\t// out\n        /* \"#utility.yul\":3768:3897   */\n    tag_15:\n        /* \"#utility.yul\":3802:3808   */\n      0x00\n        /* \"#utility.yul\":3829:3849   */\n      tag_65\n      tag_66\n      jump\t// in\n    tag_65:\n        /* \"#utility.yul\":3819:3849   */\n      swap1\n      pop\n        /* \"#utility.yul\":3858:3891   */\n      tag_67\n        /* \"#utility.yul\":3886:3890   */\n      dup3\n        /* \"#utility.yul\":3878:3884   */\n      dup3\n        /* \"#utility.yul\":3858:3891   */\n      tag_68\n      jump\t// in\n    tag_67:\n        /* \"#utility.yul\":3768:3897   */\n      swap2\n      swap1\n      pop\n      jump\t// out\n        /* \"#utility.yul\":3903:3978   */\n    tag_66:\n        /* \"#utility.yul\":3936:3942   */\n      0x00\n        /* \"#utility.yul\":3969:3971   */\n      0x40\n        /* \"#utility.yul\":3963:3972   */\n      mload\n        /* \"#utility.yul\":3953:3972   */\n      swap1\n      pop\n        /* \"#utility.yul\":3903:3978   */\n      swap1\n      jump\t// out\n        /* \"#utility.yul\":3984:4292   */\n    tag_14:\n        /* \"#utility.yul\":4046:4050   */\n      0x00\n        /* \"#utility.yul\":4136:4154   */\n      0xffffffffffffffff\n        /* \"#utility.yul\":4128:4134   */\n      dup3\n        /* \"#utility.yul\":4125:4155   */\n      gt\n        /* \"#utility.yul\":4122:4178   */\n      iszero\n      tag_71\n      jumpi\n        /* \"#utility.yul\":4158:4176   */\n      tag_72\n      tag_73\n      jump\t// in\n    tag_72:\n        /* \"#utility.yul\":4122:4178   */\n    tag_71:\n        /* \"#utility.yul\":4196:4225   */\n      tag_74\n        /* \"#utility.yul\":4218:4224   */\n      dup3\n        /* \"#utility.yul\":4196:4225   */\n      tag_75\n      jump\t// in\n    tag_74:\n        /* \"#utility.yul\":4188:4225   */\n      swap1\n      pop\n        /* \"#utility.yul\":4280:4284   */\n      0x20\n        /* \"#utility.yul\":4274:4278   */\n      dup2\n        /* \"#utility.yul\":4270:4285   */\n      add\n        /* \"#utility.yul\":4262:4285   */\n      swap1\n      pop\n        /* \"#utility.yul\":3984:4292   */\n      swap2\n      swap1\n      pop\n      jump\t// out\n        /* \"#utility.yul\":4298:4394   */\n    tag_76:\n        /* \"#utility.yul\":4335:4342   */\n      0x00\n        /* \"#utility.yul\":4364:4388   */\n      tag_78\n        /* \"#utility.yul\":4382:4387   */\n      dup3\n        /* \"#utility.yul\":4364:4388   */\n      tag_79\n      jump\t// in\n    tag_78:\n        /* \"#utility.yul\":4353:4388   */\n      swap1\n      pop\n        /* \"#utility.yul\":4298:4394   */\n      swap2\n      swap1\n      pop\n      jump\t// out\n        /* \"#utility.yul\":4400:4526   */\n    tag_79:\n        /* \"#utility.yul\":4437:4444   */\n      0x00\n        /* \"#utility.yul\":4477:4519   */\n      0xffffffffffffffffffffffffffffffffffffffff\n        /* \"#utility.yul\":4470:4475   */\n      dup3\n        /* \"#utility.yul\":4466:4520   */\n      and\n        /* \"#utility.yul\":4455:4520   */\n      swap1\n      pop\n        /* \"#utility.yul\":4400:4526   */\n      swap2\n      swap1\n      pop\n      jump\t// out\n        /* \"#utility.yul\":4532:4609   */\n    tag_81:\n        /* \"#utility.yul\":4569:4576   */\n      0x00\n        /* \"#utility.yul\":4598:4603   */\n      dup2\n        /* \"#utility.yul\":4587:4603   */\n      swap1\n      pop\n        /* \"#utility.yul\":4532:4609   */\n      swap2\n      swap1\n      pop\n      jump\t// out\n        /* \"#utility.yul\":4615:4769   */\n    tag_20:\n        /* \"#utility.yul\":4699:4705   */\n      dup3\n        /* \"#utility.yul\":4694:4697   */\n      dup2\n        /* \"#utility.yul\":4689:4692   */\n      dup4\n        /* \"#utility.yul\":4676:4706   */\n      calldatacopy\n        /* \"#utility.yul\":4761:4762   */\n      0x00\n        /* \"#utility.yul\":4752:4758   */\n      dup4\n        /* \"#utility.yul\":4747:4750   */\n      dup4\n        /* \"#utility.yul\":4743:4759   */\n      add\n        /* \"#utility.yul\":4736:4763   */\n      mstore\n        /* \"#utility.yul\":4615:4769   */\n      pop\n      pop\n      pop\n      jump\t// out\n        /* \"#utility.yul\":4775:5056   */\n    tag_68:\n        /* \"#utility.yul\":4858:4885   */\n      tag_85\n        /* \"#utility.yul\":4880:4884   */\n      dup3\n        /* \"#utility.yul\":4858:4885   */\n      tag_75\n      jump\t// in\n    tag_85:\n        /* \"#utility.yul\":4850:4856   */\n      dup2\n        /* \"#utility.yul\":4846:4886   */\n      add\n        /* \"#utility.yul\":4988:4994   */\n      dup2\n        /* \"#utility.yul\":4976:4986   */\n      dup2\n        /* \"#utility.yul\":4973:4995   */\n      lt\n        /* \"#utility.yul\":4952:4970   */\n      0xffffffffffffffff\n        /* \"#utility.yul\":4940:4950   */\n      dup3\n        /* \"#utility.yul\":4937:4971   */\n      gt\n        /* \"#utility.yul\":4934:4996   */\n      or\n        /* \"#utility.yul\":4931:5019   */\n      iszero\n      tag_86\n      jumpi\n        /* \"#utility.yul\":4999:5017   */\n      tag_87\n      tag_73\n      jump\t// in\n    tag_87:\n        /* \"#utility.yul\":4931:5019   */\n    tag_86:\n        /* \"#utility.yul\":5039:5049   */\n      dup1\n        /* \"#utility.yul\":5035:5037   */\n      0x40\n        /* \"#utility.yul\":5028:5050   */\n      mstore\n        /* \"#utility.yul\":4818:5056   */\n      pop\n        /* \"#utility.yul\":4775:5056   */\n      pop\n      pop\n      jump\t// out\n        /* \"#utility.yul\":5062:5242   */\n    tag_73:\n        /* \"#utility.yul\":5110:5187   */\n      0x4e487b7100000000000000000000000000000000000000000000000000000000\n        /* \"#utility.yul\":5107:5108   */\n      0x00\n        /* \"#utility.yul\":5100:5188   */\n      mstore\n        /* \"#utility.yul\":5207:5211   */\n      0x41\n        /* \"#utility.yul\":5204:5205   */\n      0x04\n        /* \"#utility.yul\":5197:5212   */\n      mstore\n        /* \"#utility.yul\":5231:5235   */\n      0x24\n        /* \"#utility.yul\":5228:5229   */\n      0x00\n        /* \"#utility.yul\":5221:5236   */\n      revert\n        /* \"#utility.yul\":5248:5365   */\n    tag_29:\n        /* \"#utility.yul\":5357:5358   */\n      0x00\n        /* \"#utility.yul\":5354:5355   */\n      dup1\n        /* \"#utility.yul\":5347:5359   */\n      revert\n        /* \"#utility.yul\":5371:5488   */\n    tag_35:\n        /* \"#utility.yul\":5480:5481   */\n      0x00\n        /* \"#utility.yul\":5477:5478   */\n      dup1\n        /* \"#utility.yul\":5470:5482   */\n      revert\n        /* \"#utility.yul\":5494:5611   */\n    tag_41:\n        /* \"#utility.yul\":5603:5604   */\n      0x00\n        /* \"#utility.yul\":5600:5601   */\n      dup1\n        /* \"#utility.yul\":5593:5605   */\n      revert\n        /* \"#utility.yul\":5617:5734   */\n    tag_18:\n        /* \"#utility.yul\":5726:5727   */\n      0x00\n        /* \"#utility.yul\":5723:5724   */\n      dup1\n        /* \"#utility.yul\":5716:5728   */\n      revert\n        /* \"#utility.yul\":5740:5857   */\n    tag_62:\n        /* \"#utility.yul\":5849:5850   */\n      0x00\n        /* \"#utility.yul\":5846:5847   */\n      dup1\n        /* \"#utility.yul\":5839:5851   */\n      revert\n        /* \"#utility.yul\":5863:5980   */\n    tag_59:\n        /* \"#utility.yul\":5972:5973   */\n      0x00\n        /* \"#utility.yul\":5969:5970   */\n      dup1\n        /* \"#utility.yul\":5962:5974   */\n      revert\n        /* \"#utility.yul\":5986:6088   */\n    tag_75:\n        /* \"#utility.yul\":6027:6033   */\n      0x00\n        /* \"#utility.yul\":6078:6080   */\n      0x1f\n        /* \"#utility.yul\":6074:6081   */\n      not\n        /* \"#utility.yul\":6069:6071   */\n      0x1f\n        /* \"#utility.yul\":6062:6067   */\n      dup4\n        /* \"#utility.yul\":6058:6072   */\n      add\n        /* \"#utility.yul\":6054:6082   */\n      and\n        /* \"#utility.yul\":6044:6082   */\n      swap1\n      pop\n        /* \"#utility.yul\":5986:6088   */\n      swap2\n      swap1\n      pop\n      jump\t// out\n        /* \"#utility.yul\":6094:6216   */\n    tag_24:\n        /* \"#utility.yul\":6167:6191   */\n      tag_97\n        /* \"#utility.yul\":6185:6190   */\n      dup2\n        /* \"#utility.yul\":6167:6191   */\n      tag_76\n      jump\t// in\n    tag_97:\n        /* \"#utility.yul\":6160:6165   */\n      dup2\n        /* \"#utility.yul\":6157:6192   */\n      eq\n        /* \"#utility.yul\":6147:6210   */\n      tag_98\n      jumpi\n        /* \"#utility.yul\":6206:6207   */\n      0x00\n        /* \"#utility.yul\":6203:6204   */\n      dup1\n        /* \"#utility.yul\":6196:6208   */\n      revert\n        /* \"#utility.yul\":6147:6210   */\n    tag_98:\n        /* \"#utility.yul\":6094:6216   */\n      pop\n      jump\t// out\n        /* \"#utility.yul\":6222:6344   */\n    tag_55:\n        /* \"#utility.yul\":6295:6319   */\n      tag_100\n        /* \"#utility.yul\":6313:6318   */\n      dup2\n        /* \"#utility.yul\":6295:6319   */\n      tag_81\n      jump\t// in\n    tag_100:\n        /* \"#utility.yul\":6288:6293   */\n      dup2\n        /* \"#utility.yul\":6285:6320   */\n      eq\n        /* \"#utility.yul\":6275:6338   */\n      tag_101\n      jumpi\n        /* \"#utility.yul\":6334:6335   */\n      0x00\n        /* \"#utility.yul\":6331:6332   */\n      dup1\n        /* \"#utility.yul\":6324:6336   */\n      revert\n        /* \"#utility.yul\":6275:6338   */\n    tag_101:\n        /* \"#utility.yul\":6222:6344   */\n      pop\n      jump\t// out\n\n    auxdata: 0xa2646970667358221220f08a84c50ec1e55bb2340a51e01787891c3602efa75d1bd5fe7d6174d1881e4364736f6c63430008070033\n}\n",
				"bytecode": {
					"linkReferences": {},
					"object": "608060405234801561001057600080fd5b506103e4806100206000396000f3fe608060405234801561001057600080fd5b506004361061002b5760003560e01c8063cf87a87114610030575b600080fd5b61004a60048036038101906100459190610207565b61004c565b005b50565b600061006261005d84610275565b610250565b90508281526020810184848401111561007e5761007d610360565b5b6100898482856102e2565b509392505050565b6000813590506100a081610380565b92915050565b600082601f8301126100bb576100ba610351565b5b81356100cb84826020860161004f565b91505092915050565b600061010082840312156100eb576100ea610356565b5b6100f6610100610250565b90506000610106848285016101f2565b600083015250602082013567ffffffffffffffff81111561012a5761012961035b565b5b610136848285016100a6565b602083015250604061014a84828501610091565b604083015250606061015e84828501610091565b6060830152506080610172848285016101f2565b60808301525060a0610186848285016101f2565b60a08301525060c082013567ffffffffffffffff8111156101aa576101a961035b565b5b6101b6848285016100a6565b60c08301525060e082013567ffffffffffffffff8111156101da576101d961035b565b5b6101e6848285016100a6565b60e08301525092915050565b60008135905061020181610397565b92915050565b60006020828403121561021d5761021c61036a565b5b600082013567ffffffffffffffff81111561023b5761023a610365565b5b610247848285016100d4565b91505092915050565b600061025a61026b565b905061026682826102f1565b919050565b6000604051905090565b600067ffffffffffffffff8211156102905761028f610322565b5b6102998261036f565b9050602081019050919050565b60006102b1826102b8565b9050919050565b600073ffffffffffffffffffffffffffffffffffffffff82169050919050565b6000819050919050565b82818337600083830152505050565b6102fa8261036f565b810181811067ffffffffffffffff8211171561031957610318610322565b5b80604052505050565b7f4e487b7100000000000000000000000000000000000000000000000000000000600052604160045260246000fd5b600080fd5b600080fd5b600080fd5b600080fd5b600080fd5b600080fd5b6000601f19601f8301169050919050565b610389816102a6565b811461039457600080fd5b50565b6103a0816102d8565b81146103ab57600080fd5b5056fea2646970667358221220f08a84c50ec1e55bb2340a51e01787891c3602efa75d1bd5fe7d6174d1881e4364736f6c63430008070033",
					"opcodes": "PUSH1 0x80 PUSH1 0x40 MSTORE CALLVALUE DUP1 ISZERO PUSH2 0x10 JUMPI PUSH1 0x0 DUP1 REVERT JUMPDEST POP PUSH2 0x3E4 DUP1 PUSH2 0x20 PUSH1 0x0 CODECOPY PUSH1 0x0 RETURN INVALID PUSH1 0x80 PUSH1 0x40 MSTORE CALLVALUE DUP1 ISZERO PUSH2 0x10 JUMPI PUSH1 0x0 DUP1 REVERT JUMPDEST POP PUSH1 0x4 CALLDATASIZE LT PUSH2 0x2B JUMPI PUSH1 0x0 CALLDATALOAD PUSH1 0xE0 SHR DUP1 PUSH4 0xCF87A871 EQ PUSH2 0x30 JUMPI JUMPDEST PUSH1 0x0 DUP1 REVERT JUMPDEST PUSH2 0x4A PUSH1 0x4 DUP1 CALLDATASIZE SUB DUP2 ADD SWAP1 PUSH2 0x45 SWAP2 SWAP1 PUSH2 0x207 JUMP JUMPDEST PUSH2 0x4C JUMP JUMPDEST STOP JUMPDEST POP JUMP JUMPDEST PUSH1 0x0 PUSH2 0x62 PUSH2 0x5D DUP5 PUSH2 0x275 JUMP JUMPDEST PUSH2 0x250 JUMP JUMPDEST SWAP1 POP DUP3 DUP2 MSTORE PUSH1 0x20 DUP2 ADD DUP5 DUP5 DUP5 ADD GT ISZERO PUSH2 0x7E JUMPI PUSH2 0x7D PUSH2 0x360 JUMP JUMPDEST JUMPDEST PUSH2 0x89 DUP5 DUP3 DUP6 PUSH2 0x2E2 JUMP JUMPDEST POP SWAP4 SWAP3 POP POP POP JUMP JUMPDEST PUSH1 0x0 DUP2 CALLDATALOAD SWAP1 POP PUSH2 0xA0 DUP2 PUSH2 0x380 JUMP JUMPDEST SWAP3 SWAP2 POP POP JUMP JUMPDEST PUSH1 0x0 DUP3 PUSH1 0x1F DUP4 ADD SLT PUSH2 0xBB JUMPI PUSH2 0xBA PUSH2 0x351 JUMP JUMPDEST JUMPDEST DUP2 CALLDATALOAD PUSH2 0xCB DUP5 DUP3 PUSH1 0x20 DUP7 ADD PUSH2 0x4F JUMP JUMPDEST SWAP2 POP POP SWAP3 SWAP2 POP POP JUMP JUMPDEST PUSH1 0x0 PUSH2 0x100 DUP3 DUP5 SUB SLT ISZERO PUSH2 0xEB JUMPI PUSH2 0xEA PUSH2 0x356 JUMP JUMPDEST JUMPDEST PUSH2 0xF6 PUSH2 0x100 PUSH2 0x250 JUMP JUMPDEST SWAP1 POP PUSH1 0x0 PUSH2 0x106 DUP5 DUP3 DUP6 ADD PUSH2 0x1F2 JUMP JUMPDEST PUSH1 0x0 DUP4 ADD MSTORE POP PUSH1 0x20 DUP3 ADD CALLDATALOAD PUSH8 0xFFFFFFFFFFFFFFFF DUP2 GT ISZERO PUSH2 0x12A JUMPI PUSH2 0x129 PUSH2 0x35B JUMP JUMPDEST JUMPDEST PUSH2 0x136 DUP5 DUP3 DUP6 ADD PUSH2 0xA6 JUMP JUMPDEST PUSH1 0x20 DUP4 ADD MSTORE POP PUSH1 0x40 PUSH2 0x14A DUP5 DUP3 DUP6 ADD PUSH2 0x91 JUMP JUMPDEST PUSH1 0x40 DUP4 ADD MSTORE POP PUSH1 0x60 PUSH2 0x15E DUP5 DUP3 DUP6 ADD PUSH2 0x91 JUMP JUMPDEST PUSH1 0x60 DUP4 ADD MSTORE POP PUSH1 0x80 PUSH2 0x172 DUP5 DUP3 DUP6 ADD PUSH2 0x1F2 JUMP JUMPDEST PUSH1 0x80 DUP4 ADD MSTORE POP PUSH1 0xA0 PUSH2 0x186 DUP5 DUP3 DUP6 ADD PUSH2 0x1F2 JUMP JUMPDEST PUSH1 0xA0 DUP4 ADD MSTORE POP PUSH1 0xC0 DUP3 ADD CALLDATALOAD PUSH8 0xFFFFFFFFFFFFFFFF DUP2 GT ISZERO PUSH2 0x1AA JUMPI PUSH2 0x1A9 PUSH2 0x35B JUMP JUMPDEST JUMPDEST PUSH2 0x1B6 DUP5 DUP3 DUP6 ADD PUSH2 0xA6 JUMP JUMPDEST PUSH1 0xC0 DUP4 ADD MSTORE POP PUSH1 0xE0 DUP3 ADD CALLDATALOAD PUSH8 0xFFFFFFFFFFFFFFFF DUP2 GT ISZERO PUSH2 0x1DA JUMPI PUSH2 0x1D9 PUSH2 0x35B JUMP JUMPDEST JUMPDEST PUSH2 0x1E6 DUP5 DUP3 DUP6 ADD PUSH2 0xA6 JUMP JUMPDEST PUSH1 0xE0 DUP4 ADD MSTORE POP SWAP3 SWAP2 POP POP JUMP JUMPDEST PUSH1 0x0 DUP2 CALLDATALOAD SWAP1 POP PUSH2 0x201 DUP2 PUSH2 0x397 JUMP JUMPDEST SWAP3 SWAP2 POP POP JUMP JUMPDEST PUSH1 0x0 PUSH1 0x20 DUP3 DUP5 SUB SLT ISZERO PUSH2 0x21D JUMPI PUSH2 0x21C PUSH2 0x36A JUMP JUMPDEST JUMPDEST PUSH1 0x0 DUP3 ADD CALLDATALOAD PUSH8 0xFFFFFFFFFFFFFFFF DUP2 GT ISZERO PUSH2 0x23B JUMPI PUSH2 0x23A PUSH2 0x365 JUMP JUMPDEST JUMPDEST PUSH2 0x247 DUP5 DUP3 DUP6 ADD PUSH2 0xD4 JUMP JUMPDEST SWAP2 POP POP SWAP3 SWAP2 POP POP JUMP JUMPDEST PUSH1 0x0 PUSH2 0x25A PUSH2 0x26B JUMP JUMPDEST SWAP1 POP PUSH2 0x266 DUP3 DUP3 PUSH2 0x2F1 JUMP JUMPDEST SWAP2 SWAP1 POP JUMP JUMPDEST PUSH1 0x0 PUSH1 0x40 MLOAD SWAP1 POP SWAP1 JUMP JUMPDEST PUSH1 0x0 PUSH8 0xFFFFFFFFFFFFFFFF DUP3 GT ISZERO PUSH2 0x290 JUMPI PUSH2 0x28F PUSH2 0x322 JUMP JUMPDEST JUMPDEST PUSH2 0x299 DUP3 PUSH2 0x36F JUMP JUMPDEST SWAP1 POP PUSH1 0x20 DUP2 ADD SWAP1 POP SWAP2 SWAP1 POP JUMP JUMPDEST PUSH1 0x0 PUSH2 0x2B1 DUP3 PUSH2 0x2B8 JUMP JUMPDEST SWAP1 POP SWAP2 SWAP1 POP JUMP JUMPDEST PUSH1 0x0 PUSH20 0xFFFFFFFFFFFFFFFFFFFFFFFFFFFFFFFFFFFFFFFF DUP3 AND SWAP1 POP SWAP2 SWAP1 POP JUMP JUMPDEST PUSH1 0x0 DUP2 SWAP1 POP SWAP2 SWAP1 POP JUMP JUMPDEST DUP3 DUP2 DUP4 CALLDATACOPY PUSH1 0x0 DUP4 DUP4 ADD MSTORE POP POP POP JUMP JUMPDEST PUSH2 0x2FA DUP3 PUSH2 0x36F JUMP JUMPDEST DUP2 ADD DUP2 DUP2 LT PUSH8 0xFFFFFFFFFFFFFFFF DUP3 GT OR ISZERO PUSH2 0x319 JUMPI PUSH2 0x318 PUSH2 0x322 JUMP JUMPDEST JUMPDEST DUP1 PUSH1 0x40 MSTORE POP POP POP JUMP JUMPDEST PUSH32 0x4E487B7100000000000000000000000000000000000000000000000000000000 PUSH1 0x0 MSTORE PUSH1 0x41 PUSH1 0x4 MSTORE PUSH1 0x24 PUSH1 0x0 REVERT JUMPDEST PUSH1 0x0 DUP1 REVERT JUMPDEST PUSH1 0x0 DUP1 REVERT JUMPDEST PUSH1 0x0 DUP1 REVERT JUMPDEST PUSH1 0x0 DUP1 REVERT JUMPDEST PUSH1 0x0 DUP1 REVERT JUMPDEST PUSH1 0x0 DUP1 REVERT JUMPDEST PUSH1 0x0 PUSH1 0x1F NOT PUSH1 0x1F DUP4 ADD AND SWAP1 POP SWAP2 SWAP1 POP JUMP JUMPDEST PUSH2 0x389 DUP2 PUSH2 0x2A6 JUMP JUMPDEST DUP2 EQ PUSH2 0x394 JUMPI PUSH1 0x0 DUP1 REVERT JUMPDEST POP JUMP JUMPDEST PUSH2 0x3A0 DUP2 PUSH2 0x2D8 JUMP JUMPDEST DUP2 EQ PUSH2 0x3AB JUMPI PUSH1 0x0 DUP1 REVERT JUMPDEST POP JUMP INVALID LOG2 PUSH5 0x6970667358 0x22 SLT KECCAK256 CREATE DUP11 DUP5 0xC5 0xE 0xC1 0xE5 JUMPDEST 0xB2 CALLVALUE EXP MLOAD 0xE0 OR DUP8 DUP10 SHR CALLDATASIZE MUL 0xEF 0xA7 0x5D SHL 0xD5 INVALID PUSH30 0x6174D1881E4364736F6C6343000807003300000000000000000000000000 "
				},
				"gasEstimates": {
					"creation": {
						"codeDepositCost": "199200",
						"executionCost": "245",
						"totalCost": "199445"
					},
					"external": {
						"createCrowdfunding((uint256,string,address,address,uint256,uint256,string,string))": "infinite"
					}
				},
				"methodIdentifiers": {
					"createCrowdfunding((uint256,string,address,address,uint256,uint256,string,string))": "cf87a871"
				}
			},
			"storageLayout": {
				"storage": [
					{
						"astId": 3,
						"contract": "crowdfunding.sol:Crowdfunding",
						"label": "No",
						"offset": 0,
						"slot": "0",
						"type": "t_uint256"
					},
					{
						"astId": 24,
						"contract": "crowdfunding.sol:Crowdfunding",
						"label": "balance",
						"offset": 0,
						"slot": "1",
						"type": "t_array(t_struct(Crowdfunding)20_storage)dyn_storage"
					}
				],
				"types": {
					"t_address": {
						"encoding": "inplace",
						"label": "address",
						"numberOfBytes": "20"
					},
					"t_array(t_struct(Crowdfunding)20_storage)dyn_storage": {
						"base": "t_struct(Crowdfunding)20_storage",
						"encoding": "dynamic_array",
						"label": "struct Crowdfunding.Crowdfunding[]",
						"numberOfBytes": "32"
					},
					"t_string_storage": {
						"encoding": "bytes",
						"label": "string",
						"numberOfBytes": "32"
					},
					"t_struct(Crowdfunding)20_storage": {
						"encoding": "inplace",
						"label": "struct Crowdfunding.Crowdfunding",
						"members": [
							{
								"astId": 5,
								"contract": "crowdfunding.sol:Crowdfunding",
								"label": "num",
								"offset": 0,
								"slot": "0",
								"type": "t_uint256"
							},
							{
								"astId": 7,
								"contract": "crowdfunding.sol:Crowdfunding",
								"label": "status",
								"offset": 0,
								"slot": "1",
								"type": "t_string_storage"
							},
							{
								"astId": 9,
								"contract": "crowdfunding.sol:Crowdfunding",
								"label": "creator",
								"offset": 0,
								"slot": "2",
								"type": "t_address"
							},
							{
								"astId": 11,
								"contract": "crowdfunding.sol:Crowdfunding",
								"label": "recipient",
								"offset": 0,
								"slot": "3",
								"type": "t_address"
							},
							{
								"astId": 13,
								"contract": "crowdfunding.sol:Crowdfunding",
								"label": "joinNum",
								"offset": 0,
								"slot": "4",
								"type": "t_uint256"
							},
							{
								"astId": 15,
								"contract": "crowdfunding.sol:Crowdfunding",
								"label": "joinLimitNum",
								"offset": 0,
								"slot": "5",
								"type": "t_uint256"
							},
							{
								"astId": 17,
								"contract": "crowdfunding.sol:Crowdfunding",
								"label": "expectAmout",
								"offset": 0,
								"slot": "6",
								"type": "t_string_storage"
							},
							{
								"astId": 19,
								"contract": "crowdfunding.sol:Crowdfunding",
								"label": "actualAmount",
								"offset": 0,
								"slot": "7",
								"type": "t_string_storage"
							}
						],
						"numberOfBytes": "256"
					},
					"t_uint256": {
						"encoding": "inplace",
						"label": "uint256",
						"numberOfBytes": "32"
					}
				}
			},
			"userdoc": {
				"kind": "user",
				"methods": {},
				"version": 1
			}
		}
	}
}