{
	"array.sol": {
		"ArrayTest": {
			"abi": [
				{
					"inputs": [
						{
							"internalType": "uint256",
							"name": "n",
							"type": "uint256"
						}
					],
					"name": "add",
					"outputs": [],
					"stateMutability": "nonpayable",
					"type": "function"
				},
				{
					"inputs": [
						{
							"internalType": "string",
							"name": "_bookName",
							"type": "string"
						}
					],
					"name": "createReadList",
					"outputs": [],
					"stateMutability": "nonpayable",
					"type": "function"
				},
				{
					"inputs": [],
					"name": "fn",
					"outputs": [
						{
							"internalType": "uint256[]",
							"name": "",
							"type": "uint256[]"
						}
					],
					"stateMutability": "view",
					"type": "function"
				},
				{
					"inputs": [
						{
							"internalType": "uint256",
							"name": "_status",
							"type": "uint256"
						}
					],
					"name": "getFilterReadList",
					"outputs": [
						{
							"components": [
								{
									"internalType": "uint256",
									"name": "status",
									"type": "uint256"
								},
								{
									"internalType": "string",
									"name": "bookName",
									"type": "string"
								}
							],
							"internalType": "struct ArrayTest.Book[]",
							"name": "",
							"type": "tuple[]"
						}
					],
					"stateMutability": "view",
					"type": "function"
				},
				{
					"inputs": [],
					"name": "getList",
					"outputs": [
						{
							"components": [
								{
									"internalType": "uint256",
									"name": "status",
									"type": "uint256"
								},
								{
									"internalType": "string",
									"name": "bookName",
									"type": "string"
								}
							],
							"internalType": "struct ArrayTest.Book[]",
							"name": "",
							"type": "tuple[]"
						}
					],
					"stateMutability": "view",
					"type": "function"
				}
			],
			"devdoc": {
				"kind": "dev",
				"methods": {},
				"version": 1
			},
			"evm": {
				"assembly": "    /* \"array.sol\":61:1189  contract ArrayTest {\r... */\n  mstore(0x40, 0x80)\n  callvalue\n  dup1\n  iszero\n  tag_1\n  jumpi\n  0x00\n  dup1\n  revert\ntag_1:\n  pop\n  dataSize(sub_0)\n  dup1\n  dataOffset(sub_0)\n  0x00\n  codecopy\n  0x00\n  return\nstop\n\nsub_0: assembly {\n        /* \"array.sol\":61:1189  contract ArrayTest {\r... */\n      mstore(0x40, 0x80)\n      callvalue\n      dup1\n      iszero\n      tag_1\n      jumpi\n      0x00\n      dup1\n      revert\n    tag_1:\n      pop\n      jumpi(tag_2, lt(calldatasize, 0x04))\n      shr(0xe0, calldataload(0x00))\n      dup1\n      0x1003e2d2\n      eq\n      tag_3\n      jumpi\n      dup1\n      0x234c6686\n      eq\n      tag_4\n      jumpi\n      dup1\n      0x942b765a\n      eq\n      tag_5\n      jumpi\n      dup1\n      0xa4a2c40b\n      eq\n      tag_6\n      jumpi\n      dup1\n      0xb868ef57\n      eq\n      tag_7\n      jumpi\n    tag_2:\n      0x00\n      dup1\n      revert\n        /* \"array.sol\":434:491  function add(uint n) public{\r... */\n    tag_3:\n      tag_8\n      0x04\n      dup1\n      calldatasize\n      sub\n      dup2\n      add\n      swap1\n      tag_9\n      swap2\n      swap1\n      tag_10\n      jump\t// in\n    tag_9:\n      tag_11\n      jump\t// in\n    tag_8:\n      stop\n        /* \"array.sol\":267:426  function createReadList(string memory _bookName) public {\r... */\n    tag_4:\n      tag_12\n      0x04\n      dup1\n      calldatasize\n      sub\n      dup2\n      add\n      swap1\n      tag_13\n      swap2\n      swap1\n      tag_14\n      jump\t// in\n    tag_13:\n      tag_15\n      jump\t// in\n    tag_12:\n      stop\n        /* \"array.sol\":1101:1186  function getList() public view returns (Book[] memory) {\r... */\n    tag_5:\n      tag_16\n      tag_17\n      jump\t// in\n    tag_16:\n      mload(0x40)\n      tag_18\n      swap2\n      swap1\n      tag_19\n      jump\t// in\n    tag_18:\n      mload(0x40)\n      dup1\n      swap2\n      sub\n      swap1\n      return\n        /* \"array.sol\":497:798  function fn() public view returns (uint[] memory) {\r... */\n    tag_6:\n      tag_20\n      tag_21\n      jump\t// in\n    tag_20:\n      mload(0x40)\n      tag_22\n      swap2\n      swap1\n      tag_23\n      jump\t// in\n    tag_22:\n      mload(0x40)\n      dup1\n      swap2\n      sub\n      swap1\n      return\n        /* \"array.sol\":806:1093  function getFilterReadList(uint _status) public view returns (Book[] memory) {\r... */\n    tag_7:\n      tag_24\n      0x04\n      dup1\n      calldatasize\n      sub\n      dup2\n      add\n      swap1\n      tag_25\n      swap2\n      swap1\n      tag_10\n      jump\t// in\n    tag_25:\n      tag_26\n      jump\t// in\n    tag_24:\n      mload(0x40)\n      tag_27\n      swap2\n      swap1\n      tag_19\n      jump\t// in\n    tag_27:\n      mload(0x40)\n      dup1\n      swap2\n      sub\n      swap1\n      return\n        /* \"array.sol\":434:491  function add(uint n) public{\r... */\n    tag_11:\n        /* \"array.sol\":472:475  arr */\n      0x01\n        /* \"array.sol\":481:482  n */\n      dup2\n        /* \"array.sol\":472:483  arr.push(n) */\n      swap1\n      dup1\n      0x01\n      dup2\n      sload\n      add\n      dup1\n      dup3\n      sstore\n      dup1\n      swap2\n      pop\n      pop\n      0x01\n      swap1\n      sub\n      swap1\n      0x00\n      mstore\n      keccak256(0x00, 0x20)\n      add\n      0x00\n      swap1\n      swap2\n      swap1\n      swap2\n      swap1\n      swap2\n      pop\n      sstore\n        /* \"array.sol\":434:491  function add(uint n) public{\r... */\n      pop\n      jump\t// out\n        /* \"array.sol\":267:426  function createReadList(string memory _bookName) public {\r... */\n    tag_15:\n        /* \"array.sol\":334:338  list */\n      0x00\n        /* \"array.sol\":344:417  Book({\r... */\n      mload(0x40)\n      dup1\n      0x40\n      add\n      0x40\n      mstore\n      dup1\n        /* \"array.sol\":371:372  0 */\n      0x00\n        /* \"array.sol\":344:417  Book({\r... */\n      dup2\n      mstore\n      0x20\n      add\n        /* \"array.sol\":396:405  _bookName */\n      dup4\n        /* \"array.sol\":344:417  Book({\r... */\n      dup2\n      mstore\n      pop\n        /* \"array.sol\":334:418  list.push(Book({\r... */\n      swap1\n      dup1\n      0x01\n      dup2\n      sload\n      add\n      dup1\n      dup3\n      sstore\n      dup1\n      swap2\n      pop\n      pop\n      0x01\n      swap1\n      sub\n      swap1\n      0x00\n      mstore\n      keccak256(0x00, 0x20)\n      swap1\n      0x02\n      mul\n      add\n      0x00\n      swap1\n      swap2\n      swap1\n      swap2\n      swap1\n      swap2\n      pop\n      0x00\n      dup3\n      add\n      mload\n      dup2\n      0x00\n      add\n      sstore\n      0x20\n      dup3\n      add\n      mload\n      dup2\n      0x01\n      add\n      swap1\n      dup1\n      mload\n      swap1\n      0x20\n      add\n      swap1\n      tag_32\n      swap3\n      swap2\n      swap1\n      tag_33\n      jump\t// in\n    tag_32:\n      pop\n      pop\n      pop\n        /* \"array.sol\":267:426  function createReadList(string memory _bookName) public {\r... */\n      pop\n      jump\t// out\n        /* \"array.sol\":1101:1186  function getList() public view returns (Book[] memory) {\r... */\n    tag_17:\n        /* \"array.sol\":1141:1154  Book[] memory */\n      0x60\n        /* \"array.sol\":1174:1178  list */\n      0x00\n        /* \"array.sol\":1167:1178  return list */\n      dup1\n      sload\n      dup1\n      0x20\n      mul\n      0x20\n      add\n      mload(0x40)\n      swap1\n      dup2\n      add\n      0x40\n      mstore\n      dup1\n      swap3\n      swap2\n      swap1\n      dup2\n      dup2\n      mstore\n      0x20\n      add\n      0x00\n      swap1\n    tag_35:\n      dup3\n      dup3\n      lt\n      iszero\n      tag_36\n      jumpi\n      dup4\n      dup3\n      swap1\n      0x00\n      mstore\n      keccak256(0x00, 0x20)\n      swap1\n      0x02\n      mul\n      add\n      mload(0x40)\n      dup1\n      0x40\n      add\n      0x40\n      mstore\n      swap1\n      dup2\n      0x00\n      dup3\n      add\n      sload\n      dup2\n      mstore\n      0x20\n      add\n      0x01\n      dup3\n      add\n      dup1\n      sload\n      tag_38\n      swap1\n      tag_39\n      jump\t// in\n    tag_38:\n      dup1\n      0x1f\n      add\n      0x20\n      dup1\n      swap2\n      div\n      mul\n      0x20\n      add\n      mload(0x40)\n      swap1\n      dup2\n      add\n      0x40\n      mstore\n      dup1\n      swap3\n      swap2\n      swap1\n      dup2\n      dup2\n      mstore\n      0x20\n      add\n      dup3\n      dup1\n      sload\n      tag_40\n      swap1\n      tag_39\n      jump\t// in\n    tag_40:\n      dup1\n      iszero\n      tag_41\n      jumpi\n      dup1\n      0x1f\n      lt\n      tag_42\n      jumpi\n      0x0100\n      dup1\n      dup4\n      sload\n      div\n      mul\n      dup4\n      mstore\n      swap2\n      0x20\n      add\n      swap2\n      jump(tag_41)\n    tag_42:\n      dup3\n      add\n      swap2\n      swap1\n      0x00\n      mstore\n      keccak256(0x00, 0x20)\n      swap1\n    tag_43:\n      dup2\n      sload\n      dup2\n      mstore\n      swap1\n      0x01\n      add\n      swap1\n      0x20\n      add\n      dup1\n      dup4\n      gt\n      tag_43\n      jumpi\n      dup3\n      swap1\n      sub\n      0x1f\n      and\n      dup3\n      add\n      swap2\n    tag_41:\n      pop\n      pop\n      pop\n      pop\n      pop\n      dup2\n      mstore\n      pop\n      pop\n      dup2\n      mstore\n      0x20\n      add\n      swap1\n      0x01\n      add\n      swap1\n      jump(tag_35)\n    tag_36:\n      pop\n      pop\n      pop\n      pop\n      swap1\n      pop\n        /* \"array.sol\":1101:1186  function getList() public view returns (Book[] memory) {\r... */\n      swap1\n      jump\t// out\n        /* \"array.sol\":497:798  function fn() public view returns (uint[] memory) {\r... */\n    tag_21:\n        /* \"array.sol\":532:545  uint[] memory */\n      0x60\n        /* \"array.sol\":558:575  uint[] memory tmp */\n      dup1\n        /* \"array.sol\":590:596  uint i */\n      0x00\n        /* \"array.sol\":586:770  for(uint i = 0;i < arr.length;i++){\r... */\n    tag_45:\n        /* \"array.sol\":605:608  arr */\n      0x01\n        /* \"array.sol\":605:615  arr.length */\n      dup1\n      sload\n      swap1\n      pop\n        /* \"array.sol\":601:602  i */\n      dup2\n        /* \"array.sol\":601:615  i < arr.length */\n      lt\n        /* \"array.sol\":586:770  for(uint i = 0;i < arr.length;i++){\r... */\n      iszero\n      tag_46\n      jumpi\n        /* \"array.sol\":640:643  tmp */\n      dup2\n        /* \"array.sol\":640:650  tmp.length */\n      mload\n        /* \"array.sol\":638:639  i */\n      dup2\n        /* \"array.sol\":638:650  i<tmp.length */\n      lt\n        /* \"array.sol\":635:759  if(i<tmp.length){\r... */\n      iszero\n      tag_48\n      jumpi\n        /* \"array.sol\":679:682  arr */\n      0x01\n        /* \"array.sol\":683:684  i */\n      dup2\n        /* \"array.sol\":679:685  arr[i] */\n      dup2\n      sload\n      dup2\n      lt\n      tag_49\n      jumpi\n      tag_50\n      tag_51\n      jump\t// in\n    tag_50:\n    tag_49:\n      swap1\n      0x00\n      mstore\n      keccak256(0x00, 0x20)\n      add\n      sload\n        /* \"array.sol\":670:673  tmp */\n      dup3\n        /* \"array.sol\":674:675  i */\n      dup3\n        /* \"array.sol\":670:676  tmp[i] */\n      dup2\n      mload\n      dup2\n      lt\n      tag_53\n      jumpi\n      tag_54\n      tag_51\n      jump\t// in\n    tag_54:\n    tag_53:\n      0x20\n      mul\n      0x20\n      add\n      add\n        /* \"array.sol\":670:685  tmp[i] = arr[i] */\n      dup2\n      dup2\n      mstore\n      pop\n      pop\n        /* \"array.sol\":635:759  if(i<tmp.length){\r... */\n      jump(tag_55)\n    tag_48:\n    tag_55:\n        /* \"array.sol\":616:619  i++ */\n      dup1\n      dup1\n      tag_56\n      swap1\n      tag_57\n      jump\t// in\n    tag_56:\n      swap2\n      pop\n      pop\n        /* \"array.sol\":586:770  for(uint i = 0;i < arr.length;i++){\r... */\n      jump(tag_45)\n    tag_46:\n      pop\n        /* \"array.sol\":787:790  tmp */\n      dup1\n        /* \"array.sol\":780:790  return tmp */\n      swap2\n      pop\n      pop\n        /* \"array.sol\":497:798  function fn() public view returns (uint[] memory) {\r... */\n      swap1\n      jump\t// out\n        /* \"array.sol\":806:1093  function getFilterReadList(uint _status) public view returns (Book[] memory) {\r... */\n    tag_26:\n        /* \"array.sol\":868:881  Book[] memory */\n      0x60\n        /* \"array.sol\":894:911  Book[] memory tmp */\n      dup1\n        /* \"array.sol\":926:932  uint i */\n      0x00\n        /* \"array.sol\":922:1065  for(uint i = 0;i<list.length;i++){\r... */\n    tag_59:\n        /* \"array.sol\":939:943  list */\n      0x00\n        /* \"array.sol\":939:950  list.length */\n      dup1\n      sload\n      swap1\n      pop\n        /* \"array.sol\":937:938  i */\n      dup2\n        /* \"array.sol\":937:950  i<list.length */\n      lt\n        /* \"array.sol\":922:1065  for(uint i = 0;i<list.length;i++){\r... */\n      iszero\n      tag_60\n      jumpi\n        /* \"array.sol\":991:998  _status */\n      dup4\n        /* \"array.sol\":973:977  list */\n      0x00\n        /* \"array.sol\":978:979  i */\n      dup3\n        /* \"array.sol\":973:980  list[i] */\n      dup2\n      sload\n      dup2\n      lt\n      tag_62\n      jumpi\n      tag_63\n      tag_51\n      jump\t// in\n    tag_63:\n    tag_62:\n      swap1\n      0x00\n      mstore\n      keccak256(0x00, 0x20)\n      swap1\n      pop\n      pop\n        /* \"array.sol\":973:998  list[i].status == _status */\n      pop\n        /* \"array.sol\":951:954  i++ */\n      dup1\n      dup1\n      tag_66\n      swap1\n      tag_57\n      jump\t// in\n    tag_66:\n      swap2\n      pop\n      pop\n        /* \"array.sol\":922:1065  for(uint i = 0;i<list.length;i++){\r... */\n      jump(tag_59)\n    tag_60:\n      pop\n        /* \"array.sol\":1082:1085  tmp */\n      dup1\n        /* \"array.sol\":1075:1085  return tmp */\n      swap2\n      pop\n      pop\n        /* \"array.sol\":806:1093  function getFilterReadList(uint _status) public view returns (Book[] memory) {\r... */\n      swap2\n      swap1\n      pop\n      jump\t// out\n    tag_33:\n      dup3\n      dup1\n      sload\n      tag_67\n      swap1\n      tag_39\n      jump\t// in\n    tag_67:\n      swap1\n      0x00\n      mstore\n      keccak256(0x00, 0x20)\n      swap1\n      0x1f\n      add\n      0x20\n      swap1\n      div\n      dup2\n      add\n      swap3\n      dup3\n      tag_69\n      jumpi\n      0x00\n      dup6\n      sstore\n      jump(tag_68)\n    tag_69:\n      dup3\n      0x1f\n      lt\n      tag_70\n      jumpi\n      dup1\n      mload\n      not(0xff)\n      and\n      dup4\n      dup1\n      add\n      or\n      dup6\n      sstore\n      jump(tag_68)\n    tag_70:\n      dup3\n      dup1\n      add\n      0x01\n      add\n      dup6\n      sstore\n      dup3\n      iszero\n      tag_68\n      jumpi\n      swap2\n      dup3\n      add\n    tag_71:\n      dup3\n      dup2\n      gt\n      iszero\n      tag_72\n      jumpi\n      dup3\n      mload\n      dup3\n      sstore\n      swap2\n      0x20\n      add\n      swap2\n      swap1\n      0x01\n      add\n      swap1\n      jump(tag_71)\n    tag_72:\n    tag_68:\n      pop\n      swap1\n      pop\n      tag_73\n      swap2\n      swap1\n      tag_74\n      jump\t// in\n    tag_73:\n      pop\n      swap1\n      jump\t// out\n    tag_74:\n    tag_75:\n      dup1\n      dup3\n      gt\n      iszero\n      tag_76\n      jumpi\n      0x00\n      dup2\n      0x00\n      swap1\n      sstore\n      pop\n      0x01\n      add\n      jump(tag_75)\n    tag_76:\n      pop\n      swap1\n      jump\t// out\n        /* \"#utility.yul\":7:419   */\n    tag_78:\n        /* \"#utility.yul\":85:90   */\n      0x00\n        /* \"#utility.yul\":110:176   */\n      tag_80\n        /* \"#utility.yul\":126:175   */\n      tag_81\n        /* \"#utility.yul\":168:174   */\n      dup5\n        /* \"#utility.yul\":126:175   */\n      tag_82\n      jump\t// in\n    tag_81:\n        /* \"#utility.yul\":110:176   */\n      tag_83\n      jump\t// in\n    tag_80:\n        /* \"#utility.yul\":101:176   */\n      swap1\n      pop\n        /* \"#utility.yul\":199:205   */\n      dup3\n        /* \"#utility.yul\":192:197   */\n      dup2\n        /* \"#utility.yul\":185:206   */\n      mstore\n        /* \"#utility.yul\":237:241   */\n      0x20\n        /* \"#utility.yul\":230:235   */\n      dup2\n        /* \"#utility.yul\":226:242   */\n      add\n        /* \"#utility.yul\":275:278   */\n      dup5\n        /* \"#utility.yul\":266:272   */\n      dup5\n        /* \"#utility.yul\":261:264   */\n      dup5\n        /* \"#utility.yul\":257:273   */\n      add\n        /* \"#utility.yul\":254:279   */\n      gt\n        /* \"#utility.yul\":251:363   */\n      iszero\n      tag_84\n      jumpi\n        /* \"#utility.yul\":282:361   */\n      tag_85\n      tag_86\n      jump\t// in\n    tag_85:\n        /* \"#utility.yul\":251:363   */\n    tag_84:\n        /* \"#utility.yul\":372:413   */\n      tag_87\n        /* \"#utility.yul\":406:412   */\n      dup5\n        /* \"#utility.yul\":401:404   */\n      dup3\n        /* \"#utility.yul\":396:399   */\n      dup6\n        /* \"#utility.yul\":372:413   */\n      tag_88\n      jump\t// in\n    tag_87:\n        /* \"#utility.yul\":91:419   */\n      pop\n        /* \"#utility.yul\":7:419   */\n      swap4\n      swap3\n      pop\n      pop\n      pop\n      jump\t// out\n        /* \"#utility.yul\":439:779   */\n    tag_89:\n        /* \"#utility.yul\":495:500   */\n      0x00\n        /* \"#utility.yul\":544:547   */\n      dup3\n        /* \"#utility.yul\":537:541   */\n      0x1f\n        /* \"#utility.yul\":529:535   */\n      dup4\n        /* \"#utility.yul\":525:542   */\n      add\n        /* \"#utility.yul\":521:548   */\n      slt\n        /* \"#utility.yul\":511:633   */\n      tag_91\n      jumpi\n        /* \"#utility.yul\":552:631   */\n      tag_92\n      tag_93\n      jump\t// in\n    tag_92:\n        /* \"#utility.yul\":511:633   */\n    tag_91:\n        /* \"#utility.yul\":669:675   */\n      dup2\n        /* \"#utility.yul\":656:676   */\n      calldataload\n        /* \"#utility.yul\":694:773   */\n      tag_94\n        /* \"#utility.yul\":769:772   */\n      dup5\n        /* \"#utility.yul\":761:767   */\n      dup3\n        /* \"#utility.yul\":754:758   */\n      0x20\n        /* \"#utility.yul\":746:752   */\n      dup7\n        /* \"#utility.yul\":742:759   */\n      add\n        /* \"#utility.yul\":694:773   */\n      tag_78\n      jump\t// in\n    tag_94:\n        /* \"#utility.yul\":685:773   */\n      swap2\n      pop\n        /* \"#utility.yul\":501:779   */\n      pop\n        /* \"#utility.yul\":439:779   */\n      swap3\n      swap2\n      pop\n      pop\n      jump\t// out\n        /* \"#utility.yul\":785:924   */\n    tag_95:\n        /* \"#utility.yul\":831:836   */\n      0x00\n        /* \"#utility.yul\":869:875   */\n      dup2\n        /* \"#utility.yul\":856:876   */\n      calldataload\n        /* \"#utility.yul\":847:876   */\n      swap1\n      pop\n        /* \"#utility.yul\":885:918   */\n      tag_97\n        /* \"#utility.yul\":912:917   */\n      dup2\n        /* \"#utility.yul\":885:918   */\n      tag_98\n      jump\t// in\n    tag_97:\n        /* \"#utility.yul\":785:924   */\n      swap3\n      swap2\n      pop\n      pop\n      jump\t// out\n        /* \"#utility.yul\":930:1439   */\n    tag_14:\n        /* \"#utility.yul\":999:1005   */\n      0x00\n        /* \"#utility.yul\":1048:1050   */\n      0x20\n        /* \"#utility.yul\":1036:1045   */\n      dup3\n        /* \"#utility.yul\":1027:1034   */\n      dup5\n        /* \"#utility.yul\":1023:1046   */\n      sub\n        /* \"#utility.yul\":1019:1051   */\n      slt\n        /* \"#utility.yul\":1016:1135   */\n      iszero\n      tag_100\n      jumpi\n        /* \"#utility.yul\":1054:1133   */\n      tag_101\n      tag_102\n      jump\t// in\n    tag_101:\n        /* \"#utility.yul\":1016:1135   */\n    tag_100:\n        /* \"#utility.yul\":1202:1203   */\n      0x00\n        /* \"#utility.yul\":1191:1200   */\n      dup3\n        /* \"#utility.yul\":1187:1204   */\n      add\n        /* \"#utility.yul\":1174:1205   */\n      calldataload\n        /* \"#utility.yul\":1232:1250   */\n      0xffffffffffffffff\n        /* \"#utility.yul\":1224:1230   */\n      dup2\n        /* \"#utility.yul\":1221:1251   */\n      gt\n        /* \"#utility.yul\":1218:1335   */\n      iszero\n      tag_103\n      jumpi\n        /* \"#utility.yul\":1254:1333   */\n      tag_104\n      tag_105\n      jump\t// in\n    tag_104:\n        /* \"#utility.yul\":1218:1335   */\n    tag_103:\n        /* \"#utility.yul\":1359:1422   */\n      tag_106\n        /* \"#utility.yul\":1414:1421   */\n      dup5\n        /* \"#utility.yul\":1405:1411   */\n      dup3\n        /* \"#utility.yul\":1394:1403   */\n      dup6\n        /* \"#utility.yul\":1390:1412   */\n      add\n        /* \"#utility.yul\":1359:1422   */\n      tag_89\n      jump\t// in\n    tag_106:\n        /* \"#utility.yul\":1349:1422   */\n      swap2\n      pop\n        /* \"#utility.yul\":1145:1432   */\n      pop\n        /* \"#utility.yul\":930:1439   */\n      swap3\n      swap2\n      pop\n      pop\n      jump\t// out\n        /* \"#utility.yul\":1445:1774   */\n    tag_10:\n        /* \"#utility.yul\":1504:1510   */\n      0x00\n        /* \"#utility.yul\":1553:1555   */\n      0x20\n        /* \"#utility.yul\":1541:1550   */\n      dup3\n        /* \"#utility.yul\":1532:1539   */\n      dup5\n        /* \"#utility.yul\":1528:1551   */\n      sub\n        /* \"#utility.yul\":1524:1556   */\n      slt\n        /* \"#utility.yul\":1521:1640   */\n      iszero\n      tag_108\n      jumpi\n        /* \"#utility.yul\":1559:1638   */\n      tag_109\n      tag_102\n      jump\t// in\n    tag_109:\n        /* \"#utility.yul\":1521:1640   */\n    tag_108:\n        /* \"#utility.yul\":1679:1680   */\n      0x00\n        /* \"#utility.yul\":1704:1757   */\n      tag_110\n        /* \"#utility.yul\":1749:1756   */\n      dup5\n        /* \"#utility.yul\":1740:1746   */\n      dup3\n        /* \"#utility.yul\":1729:1738   */\n      dup6\n        /* \"#utility.yul\":1725:1747   */\n      add\n        /* \"#utility.yul\":1704:1757   */\n      tag_95\n      jump\t// in\n    tag_110:\n        /* \"#utility.yul\":1694:1757   */\n      swap2\n      pop\n        /* \"#utility.yul\":1650:1767   */\n      pop\n        /* \"#utility.yul\":1445:1774   */\n      swap3\n      swap2\n      pop\n      pop\n      jump\t// out\n        /* \"#utility.yul\":1780:2012   */\n    tag_111:\n        /* \"#utility.yul\":1887:1897   */\n      0x00\n        /* \"#utility.yul\":1922:2006   */\n      tag_113\n        /* \"#utility.yul\":2002:2005   */\n      dup4\n        /* \"#utility.yul\":1994:2000   */\n      dup4\n        /* \"#utility.yul\":1922:2006   */\n      tag_114\n      jump\t// in\n    tag_113:\n        /* \"#utility.yul\":1908:2006   */\n      swap1\n      pop\n        /* \"#utility.yul\":1780:2012   */\n      swap3\n      swap2\n      pop\n      pop\n      jump\t// out\n        /* \"#utility.yul\":2018:2197   */\n    tag_115:\n        /* \"#utility.yul\":2087:2097   */\n      0x00\n        /* \"#utility.yul\":2108:2154   */\n      tag_117\n        /* \"#utility.yul\":2150:2153   */\n      dup4\n        /* \"#utility.yul\":2142:2148   */\n      dup4\n        /* \"#utility.yul\":2108:2154   */\n      tag_118\n      jump\t// in\n    tag_117:\n        /* \"#utility.yul\":2186:2190   */\n      0x20\n        /* \"#utility.yul\":2181:2184   */\n      dup4\n        /* \"#utility.yul\":2177:2191   */\n      add\n        /* \"#utility.yul\":2163:2191   */\n      swap1\n      pop\n        /* \"#utility.yul\":2018:2197   */\n      swap3\n      swap2\n      pop\n      pop\n      jump\t// out\n        /* \"#utility.yul\":2261:3324   */\n    tag_119:\n        /* \"#utility.yul\":2418:2421   */\n      0x00\n        /* \"#utility.yul\":2447:2520   */\n      tag_121\n        /* \"#utility.yul\":2514:2519   */\n      dup3\n        /* \"#utility.yul\":2447:2520   */\n      tag_122\n      jump\t// in\n    tag_121:\n        /* \"#utility.yul\":2536:2641   */\n      tag_123\n        /* \"#utility.yul\":2634:2640   */\n      dup2\n        /* \"#utility.yul\":2629:2632   */\n      dup6\n        /* \"#utility.yul\":2536:2641   */\n      tag_124\n      jump\t// in\n    tag_123:\n        /* \"#utility.yul\":2529:2641   */\n      swap4\n      pop\n        /* \"#utility.yul\":2667:2670   */\n      dup4\n        /* \"#utility.yul\":2712:2716   */\n      0x20\n        /* \"#utility.yul\":2704:2710   */\n      dup3\n        /* \"#utility.yul\":2700:2717   */\n      mul\n        /* \"#utility.yul\":2695:2698   */\n      dup6\n        /* \"#utility.yul\":2691:2718   */\n      add\n        /* \"#utility.yul\":2742:2817   */\n      tag_125\n        /* \"#utility.yul\":2811:2816   */\n      dup6\n        /* \"#utility.yul\":2742:2817   */\n      tag_126\n      jump\t// in\n    tag_125:\n        /* \"#utility.yul\":2840:2847   */\n      dup1\n        /* \"#utility.yul\":2871:2872   */\n      0x00\n        /* \"#utility.yul\":2856:3279   */\n    tag_127:\n        /* \"#utility.yul\":2881:2887   */\n      dup6\n        /* \"#utility.yul\":2878:2879   */\n      dup2\n        /* \"#utility.yul\":2875:2888   */\n      lt\n        /* \"#utility.yul\":2856:3279   */\n      iszero\n      tag_129\n      jumpi\n        /* \"#utility.yul\":2952:2961   */\n      dup5\n        /* \"#utility.yul\":2946:2950   */\n      dup5\n        /* \"#utility.yul\":2942:2962   */\n      sub\n        /* \"#utility.yul\":2937:2940   */\n      dup10\n        /* \"#utility.yul\":2930:2963   */\n      mstore\n        /* \"#utility.yul\":3003:3009   */\n      dup2\n        /* \"#utility.yul\":2997:3010   */\n      mload\n        /* \"#utility.yul\":3031:3133   */\n      tag_130\n        /* \"#utility.yul\":3128:3132   */\n      dup6\n        /* \"#utility.yul\":3113:3126   */\n      dup3\n        /* \"#utility.yul\":3031:3133   */\n      tag_111\n      jump\t// in\n    tag_130:\n        /* \"#utility.yul\":3023:3133   */\n      swap5\n      pop\n        /* \"#utility.yul\":3156:3235   */\n      tag_131\n        /* \"#utility.yul\":3228:3234   */\n      dup4\n        /* \"#utility.yul\":3156:3235   */\n      tag_132\n      jump\t// in\n    tag_131:\n        /* \"#utility.yul\":3146:3235   */\n      swap3\n      pop\n        /* \"#utility.yul\":3264:3268   */\n      0x20\n        /* \"#utility.yul\":3259:3262   */\n      dup11\n        /* \"#utility.yul\":3255:3269   */\n      add\n        /* \"#utility.yul\":3248:3269   */\n      swap10\n      pop\n        /* \"#utility.yul\":2916:3279   */\n      pop\n        /* \"#utility.yul\":2903:2904   */\n      0x01\n        /* \"#utility.yul\":2900:2901   */\n      dup2\n        /* \"#utility.yul\":2896:2905   */\n      add\n        /* \"#utility.yul\":2891:2905   */\n      swap1\n      pop\n        /* \"#utility.yul\":2856:3279   */\n      jump(tag_127)\n    tag_129:\n        /* \"#utility.yul\":2860:2874   */\n      pop\n        /* \"#utility.yul\":3295:3299   */\n      dup3\n        /* \"#utility.yul\":3288:3299   */\n      swap8\n      pop\n        /* \"#utility.yul\":3315:3318   */\n      dup8\n        /* \"#utility.yul\":3308:3318   */\n      swap6\n      pop\n        /* \"#utility.yul\":2423:3324   */\n      pop\n      pop\n      pop\n      pop\n      pop\n        /* \"#utility.yul\":2261:3324   */\n      swap3\n      swap2\n      pop\n      pop\n      jump\t// out\n        /* \"#utility.yul\":3360:4092   */\n    tag_133:\n        /* \"#utility.yul\":3479:3482   */\n      0x00\n        /* \"#utility.yul\":3508:3562   */\n      tag_135\n        /* \"#utility.yul\":3556:3561   */\n      dup3\n        /* \"#utility.yul\":3508:3562   */\n      tag_136\n      jump\t// in\n    tag_135:\n        /* \"#utility.yul\":3578:3664   */\n      tag_137\n        /* \"#utility.yul\":3657:3663   */\n      dup2\n        /* \"#utility.yul\":3652:3655   */\n      dup6\n        /* \"#utility.yul\":3578:3664   */\n      tag_138\n      jump\t// in\n    tag_137:\n        /* \"#utility.yul\":3571:3664   */\n      swap4\n      pop\n        /* \"#utility.yul\":3688:3744   */\n      tag_139\n        /* \"#utility.yul\":3738:3743   */\n      dup4\n        /* \"#utility.yul\":3688:3744   */\n      tag_140\n      jump\t// in\n    tag_139:\n        /* \"#utility.yul\":3767:3774   */\n      dup1\n        /* \"#utility.yul\":3798:3799   */\n      0x00\n        /* \"#utility.yul\":3783:4067   */\n    tag_141:\n        /* \"#utility.yul\":3808:3814   */\n      dup4\n        /* \"#utility.yul\":3805:3806   */\n      dup2\n        /* \"#utility.yul\":3802:3815   */\n      lt\n        /* \"#utility.yul\":3783:4067   */\n      iszero\n      tag_143\n      jumpi\n        /* \"#utility.yul\":3884:3890   */\n      dup2\n        /* \"#utility.yul\":3878:3891   */\n      mload\n        /* \"#utility.yul\":3911:3974   */\n      tag_144\n        /* \"#utility.yul\":3970:3973   */\n      dup9\n        /* \"#utility.yul\":3955:3968   */\n      dup3\n        /* \"#utility.yul\":3911:3974   */\n      tag_115\n      jump\t// in\n    tag_144:\n        /* \"#utility.yul\":3904:3974   */\n      swap8\n      pop\n        /* \"#utility.yul\":3997:4057   */\n      tag_145\n        /* \"#utility.yul\":4050:4056   */\n      dup4\n        /* \"#utility.yul\":3997:4057   */\n      tag_146\n      jump\t// in\n    tag_145:\n        /* \"#utility.yul\":3987:4057   */\n      swap3\n      pop\n        /* \"#utility.yul\":3843:4067   */\n      pop\n        /* \"#utility.yul\":3830:3831   */\n      0x01\n        /* \"#utility.yul\":3827:3828   */\n      dup2\n        /* \"#utility.yul\":3823:3832   */\n      add\n        /* \"#utility.yul\":3818:3832   */\n      swap1\n      pop\n        /* \"#utility.yul\":3783:4067   */\n      jump(tag_141)\n    tag_143:\n        /* \"#utility.yul\":3787:3801   */\n      pop\n        /* \"#utility.yul\":4083:4086   */\n      dup6\n        /* \"#utility.yul\":4076:4086   */\n      swap4\n      pop\n        /* \"#utility.yul\":3484:4092   */\n      pop\n      pop\n      pop\n        /* \"#utility.yul\":3360:4092   */\n      swap3\n      swap2\n      pop\n      pop\n      jump\t// out\n        /* \"#utility.yul\":4098:4442   */\n    tag_147:\n        /* \"#utility.yul\":4176:4179   */\n      0x00\n        /* \"#utility.yul\":4204:4243   */\n      tag_149\n        /* \"#utility.yul\":4237:4242   */\n      dup3\n        /* \"#utility.yul\":4204:4243   */\n      tag_150\n      jump\t// in\n    tag_149:\n        /* \"#utility.yul\":4259:4320   */\n      tag_151\n        /* \"#utility.yul\":4313:4319   */\n      dup2\n        /* \"#utility.yul\":4308:4311   */\n      dup6\n        /* \"#utility.yul\":4259:4320   */\n      tag_152\n      jump\t// in\n    tag_151:\n        /* \"#utility.yul\":4252:4320   */\n      swap4\n      pop\n        /* \"#utility.yul\":4329:4381   */\n      tag_153\n        /* \"#utility.yul\":4374:4380   */\n      dup2\n        /* \"#utility.yul\":4369:4372   */\n      dup6\n        /* \"#utility.yul\":4362:4366   */\n      0x20\n        /* \"#utility.yul\":4355:4360   */\n      dup7\n        /* \"#utility.yul\":4351:4367   */\n      add\n        /* \"#utility.yul\":4329:4381   */\n      tag_154\n      jump\t// in\n    tag_153:\n        /* \"#utility.yul\":4406:4435   */\n      tag_155\n        /* \"#utility.yul\":4428:4434   */\n      dup2\n        /* \"#utility.yul\":4406:4435   */\n      tag_156\n      jump\t// in\n    tag_155:\n        /* \"#utility.yul\":4401:4404   */\n      dup5\n        /* \"#utility.yul\":4397:4436   */\n      add\n        /* \"#utility.yul\":4390:4436   */\n      swap2\n      pop\n        /* \"#utility.yul\":4180:4442   */\n      pop\n        /* \"#utility.yul\":4098:4442   */\n      swap3\n      swap2\n      pop\n      pop\n      jump\t// out\n        /* \"#utility.yul\":4502:5092   */\n    tag_114:\n        /* \"#utility.yul\":4599:4602   */\n      0x00\n        /* \"#utility.yul\":4635:4639   */\n      0x40\n        /* \"#utility.yul\":4630:4633   */\n      dup4\n        /* \"#utility.yul\":4626:4640   */\n      add\n        /* \"#utility.yul\":4724:4728   */\n      0x00\n        /* \"#utility.yul\":4717:4722   */\n      dup4\n        /* \"#utility.yul\":4713:4729   */\n      add\n        /* \"#utility.yul\":4707:4730   */\n      mload\n        /* \"#utility.yul\":4743:4806   */\n      tag_158\n        /* \"#utility.yul\":4800:4804   */\n      0x00\n        /* \"#utility.yul\":4795:4798   */\n      dup7\n        /* \"#utility.yul\":4791:4805   */\n      add\n        /* \"#utility.yul\":4777:4789   */\n      dup3\n        /* \"#utility.yul\":4743:4806   */\n      tag_118\n      jump\t// in\n    tag_158:\n        /* \"#utility.yul\":4650:4816   */\n      pop\n        /* \"#utility.yul\":4902:4906   */\n      0x20\n        /* \"#utility.yul\":4895:4900   */\n      dup4\n        /* \"#utility.yul\":4891:4907   */\n      add\n        /* \"#utility.yul\":4885:4908   */\n      mload\n        /* \"#utility.yul\":4955:4958   */\n      dup5\n        /* \"#utility.yul\":4949:4953   */\n      dup3\n        /* \"#utility.yul\":4945:4959   */\n      sub\n        /* \"#utility.yul\":4938:4942   */\n      0x20\n        /* \"#utility.yul\":4933:4936   */\n      dup7\n        /* \"#utility.yul\":4929:4943   */\n      add\n        /* \"#utility.yul\":4922:4960   */\n      mstore\n        /* \"#utility.yul\":4981:5054   */\n      tag_159\n        /* \"#utility.yul\":5049:5053   */\n      dup3\n        /* \"#utility.yul\":5035:5047   */\n      dup3\n        /* \"#utility.yul\":4981:5054   */\n      tag_147\n      jump\t// in\n    tag_159:\n        /* \"#utility.yul\":4973:5054   */\n      swap2\n      pop\n        /* \"#utility.yul\":4826:5065   */\n      pop\n        /* \"#utility.yul\":5082:5086   */\n      dup1\n        /* \"#utility.yul\":5075:5086   */\n      swap2\n      pop\n        /* \"#utility.yul\":4604:5092   */\n      pop\n        /* \"#utility.yul\":4502:5092   */\n      swap3\n      swap2\n      pop\n      pop\n      jump\t// out\n        /* \"#utility.yul\":5098:5206   */\n    tag_118:\n        /* \"#utility.yul\":5175:5199   */\n      tag_161\n        /* \"#utility.yul\":5193:5198   */\n      dup2\n        /* \"#utility.yul\":5175:5199   */\n      tag_162\n      jump\t// in\n    tag_161:\n        /* \"#utility.yul\":5170:5173   */\n      dup3\n        /* \"#utility.yul\":5163:5200   */\n      mstore\n        /* \"#utility.yul\":5098:5206   */\n      pop\n      pop\n      jump\t// out\n        /* \"#utility.yul\":5212:5661   */\n    tag_19:\n        /* \"#utility.yul\":5393:5397   */\n      0x00\n        /* \"#utility.yul\":5431:5433   */\n      0x20\n        /* \"#utility.yul\":5420:5429   */\n      dup3\n        /* \"#utility.yul\":5416:5434   */\n      add\n        /* \"#utility.yul\":5408:5434   */\n      swap1\n      pop\n        /* \"#utility.yul\":5480:5489   */\n      dup2\n        /* \"#utility.yul\":5474:5478   */\n      dup2\n        /* \"#utility.yul\":5470:5490   */\n      sub\n        /* \"#utility.yul\":5466:5467   */\n      0x00\n        /* \"#utility.yul\":5455:5464   */\n      dup4\n        /* \"#utility.yul\":5451:5468   */\n      add\n        /* \"#utility.yul\":5444:5491   */\n      mstore\n        /* \"#utility.yul\":5508:5654   */\n      tag_164\n        /* \"#utility.yul\":5649:5653   */\n      dup2\n        /* \"#utility.yul\":5640:5646   */\n      dup5\n        /* \"#utility.yul\":5508:5654   */\n      tag_119\n      jump\t// in\n    tag_164:\n        /* \"#utility.yul\":5500:5654   */\n      swap1\n      pop\n        /* \"#utility.yul\":5212:5661   */\n      swap3\n      swap2\n      pop\n      pop\n      jump\t// out\n        /* \"#utility.yul\":5667:6040   */\n    tag_23:\n        /* \"#utility.yul\":5810:5814   */\n      0x00\n        /* \"#utility.yul\":5848:5850   */\n      0x20\n        /* \"#utility.yul\":5837:5846   */\n      dup3\n        /* \"#utility.yul\":5833:5851   */\n      add\n        /* \"#utility.yul\":5825:5851   */\n      swap1\n      pop\n        /* \"#utility.yul\":5897:5906   */\n      dup2\n        /* \"#utility.yul\":5891:5895   */\n      dup2\n        /* \"#utility.yul\":5887:5907   */\n      sub\n        /* \"#utility.yul\":5883:5884   */\n      0x00\n        /* \"#utility.yul\":5872:5881   */\n      dup4\n        /* \"#utility.yul\":5868:5885   */\n      add\n        /* \"#utility.yul\":5861:5908   */\n      mstore\n        /* \"#utility.yul\":5925:6033   */\n      tag_166\n        /* \"#utility.yul\":6028:6032   */\n      dup2\n        /* \"#utility.yul\":6019:6025   */\n      dup5\n        /* \"#utility.yul\":5925:6033   */\n      tag_133\n      jump\t// in\n    tag_166:\n        /* \"#utility.yul\":5917:6033   */\n      swap1\n      pop\n        /* \"#utility.yul\":5667:6040   */\n      swap3\n      swap2\n      pop\n      pop\n      jump\t// out\n        /* \"#utility.yul\":6046:6175   */\n    tag_83:\n        /* \"#utility.yul\":6080:6086   */\n      0x00\n        /* \"#utility.yul\":6107:6127   */\n      tag_168\n      tag_169\n      jump\t// in\n    tag_168:\n        /* \"#utility.yul\":6097:6127   */\n      swap1\n      pop\n        /* \"#utility.yul\":6136:6169   */\n      tag_170\n        /* \"#utility.yul\":6164:6168   */\n      dup3\n        /* \"#utility.yul\":6156:6162   */\n      dup3\n        /* \"#utility.yul\":6136:6169   */\n      tag_171\n      jump\t// in\n    tag_170:\n        /* \"#utility.yul\":6046:6175   */\n      swap2\n      swap1\n      pop\n      jump\t// out\n        /* \"#utility.yul\":6181:6256   */\n    tag_169:\n        /* \"#utility.yul\":6214:6220   */\n      0x00\n        /* \"#utility.yul\":6247:6249   */\n      0x40\n        /* \"#utility.yul\":6241:6250   */\n      mload\n        /* \"#utility.yul\":6231:6250   */\n      swap1\n      pop\n        /* \"#utility.yul\":6181:6256   */\n      swap1\n      jump\t// out\n        /* \"#utility.yul\":6262:6570   */\n    tag_82:\n        /* \"#utility.yul\":6324:6328   */\n      0x00\n        /* \"#utility.yul\":6414:6432   */\n      0xffffffffffffffff\n        /* \"#utility.yul\":6406:6412   */\n      dup3\n        /* \"#utility.yul\":6403:6433   */\n      gt\n        /* \"#utility.yul\":6400:6456   */\n      iszero\n      tag_174\n      jumpi\n        /* \"#utility.yul\":6436:6454   */\n      tag_175\n      tag_176\n      jump\t// in\n    tag_175:\n        /* \"#utility.yul\":6400:6456   */\n    tag_174:\n        /* \"#utility.yul\":6474:6503   */\n      tag_177\n        /* \"#utility.yul\":6496:6502   */\n      dup3\n        /* \"#utility.yul\":6474:6503   */\n      tag_156\n      jump\t// in\n    tag_177:\n        /* \"#utility.yul\":6466:6503   */\n      swap1\n      pop\n        /* \"#utility.yul\":6558:6562   */\n      0x20\n        /* \"#utility.yul\":6552:6556   */\n      dup2\n        /* \"#utility.yul\":6548:6563   */\n      add\n        /* \"#utility.yul\":6540:6563   */\n      swap1\n      pop\n        /* \"#utility.yul\":6262:6570   */\n      swap2\n      swap1\n      pop\n      jump\t// out\n        /* \"#utility.yul\":6576:6727   */\n    tag_126:\n        /* \"#utility.yul\":6662:6666   */\n      0x00\n        /* \"#utility.yul\":6685:6688   */\n      dup2\n        /* \"#utility.yul\":6677:6688   */\n      swap1\n      pop\n        /* \"#utility.yul\":6715:6719   */\n      0x20\n        /* \"#utility.yul\":6710:6713   */\n      dup3\n        /* \"#utility.yul\":6706:6720   */\n      add\n        /* \"#utility.yul\":6698:6720   */\n      swap1\n      pop\n        /* \"#utility.yul\":6576:6727   */\n      swap2\n      swap1\n      pop\n      jump\t// out\n        /* \"#utility.yul\":6733:6865   */\n    tag_140:\n        /* \"#utility.yul\":6800:6804   */\n      0x00\n        /* \"#utility.yul\":6823:6826   */\n      dup2\n        /* \"#utility.yul\":6815:6826   */\n      swap1\n      pop\n        /* \"#utility.yul\":6853:6857   */\n      0x20\n        /* \"#utility.yul\":6848:6851   */\n      dup3\n        /* \"#utility.yul\":6844:6858   */\n      add\n        /* \"#utility.yul\":6836:6858   */\n      swap1\n      pop\n        /* \"#utility.yul\":6733:6865   */\n      swap2\n      swap1\n      pop\n      jump\t// out\n        /* \"#utility.yul\":6871:7004   */\n    tag_122:\n        /* \"#utility.yul\":6957:6963   */\n      0x00\n        /* \"#utility.yul\":6991:6996   */\n      dup2\n        /* \"#utility.yul\":6985:6997   */\n      mload\n        /* \"#utility.yul\":6975:6997   */\n      swap1\n      pop\n        /* \"#utility.yul\":6871:7004   */\n      swap2\n      swap1\n      pop\n      jump\t// out\n        /* \"#utility.yul\":7010:7124   */\n    tag_136:\n        /* \"#utility.yul\":7077:7083   */\n      0x00\n        /* \"#utility.yul\":7111:7116   */\n      dup2\n        /* \"#utility.yul\":7105:7117   */\n      mload\n        /* \"#utility.yul\":7095:7117   */\n      swap1\n      pop\n        /* \"#utility.yul\":7010:7124   */\n      swap2\n      swap1\n      pop\n      jump\t// out\n        /* \"#utility.yul\":7130:7229   */\n    tag_150:\n        /* \"#utility.yul\":7182:7188   */\n      0x00\n        /* \"#utility.yul\":7216:7221   */\n      dup2\n        /* \"#utility.yul\":7210:7222   */\n      mload\n        /* \"#utility.yul\":7200:7222   */\n      swap1\n      pop\n        /* \"#utility.yul\":7130:7229   */\n      swap2\n      swap1\n      pop\n      jump\t// out\n        /* \"#utility.yul\":7235:7367   */\n    tag_132:\n        /* \"#utility.yul\":7324:7328   */\n      0x00\n        /* \"#utility.yul\":7356:7360   */\n      0x20\n        /* \"#utility.yul\":7351:7354   */\n      dup3\n        /* \"#utility.yul\":7347:7361   */\n      add\n        /* \"#utility.yul\":7339:7361   */\n      swap1\n      pop\n        /* \"#utility.yul\":7235:7367   */\n      swap2\n      swap1\n      pop\n      jump\t// out\n        /* \"#utility.yul\":7373:7486   */\n    tag_146:\n        /* \"#utility.yul\":7443:7447   */\n      0x00\n        /* \"#utility.yul\":7475:7479   */\n      0x20\n        /* \"#utility.yul\":7470:7473   */\n      dup3\n        /* \"#utility.yul\":7466:7480   */\n      add\n        /* \"#utility.yul\":7458:7480   */\n      swap1\n      pop\n        /* \"#utility.yul\":7373:7486   */\n      swap2\n      swap1\n      pop\n      jump\t// out\n        /* \"#utility.yul\":7492:7695   */\n    tag_124:\n        /* \"#utility.yul\":7610:7621   */\n      0x00\n        /* \"#utility.yul\":7644:7650   */\n      dup3\n        /* \"#utility.yul\":7639:7642   */\n      dup3\n        /* \"#utility.yul\":7632:7651   */\n      mstore\n        /* \"#utility.yul\":7684:7688   */\n      0x20\n        /* \"#utility.yul\":7679:7682   */\n      dup3\n        /* \"#utility.yul\":7675:7689   */\n      add\n        /* \"#utility.yul\":7660:7689   */\n      swap1\n      pop\n        /* \"#utility.yul\":7492:7695   */\n      swap3\n      swap2\n      pop\n      pop\n      jump\t// out\n        /* \"#utility.yul\":7701:7885   */\n    tag_138:\n        /* \"#utility.yul\":7800:7811   */\n      0x00\n        /* \"#utility.yul\":7834:7840   */\n      dup3\n        /* \"#utility.yul\":7829:7832   */\n      dup3\n        /* \"#utility.yul\":7822:7841   */\n      mstore\n        /* \"#utility.yul\":7874:7878   */\n      0x20\n        /* \"#utility.yul\":7869:7872   */\n      dup3\n        /* \"#utility.yul\":7865:7879   */\n      add\n        /* \"#utility.yul\":7850:7879   */\n      swap1\n      pop\n        /* \"#utility.yul\":7701:7885   */\n      swap3\n      swap2\n      pop\n      pop\n      jump\t// out\n        /* \"#utility.yul\":7891:8050   */\n    tag_152:\n        /* \"#utility.yul\":7965:7976   */\n      0x00\n        /* \"#utility.yul\":7999:8005   */\n      dup3\n        /* \"#utility.yul\":7994:7997   */\n      dup3\n        /* \"#utility.yul\":7987:8006   */\n      mstore\n        /* \"#utility.yul\":8039:8043   */\n      0x20\n        /* \"#utility.yul\":8034:8037   */\n      dup3\n        /* \"#utility.yul\":8030:8044   */\n      add\n        /* \"#utility.yul\":8015:8044   */\n      swap1\n      pop\n        /* \"#utility.yul\":7891:8050   */\n      swap3\n      swap2\n      pop\n      pop\n      jump\t// out\n        /* \"#utility.yul\":8056:8133   */\n    tag_162:\n        /* \"#utility.yul\":8093:8100   */\n      0x00\n        /* \"#utility.yul\":8122:8127   */\n      dup2\n        /* \"#utility.yul\":8111:8127   */\n      swap1\n      pop\n        /* \"#utility.yul\":8056:8133   */\n      swap2\n      swap1\n      pop\n      jump\t// out\n        /* \"#utility.yul\":8139:8293   */\n    tag_88:\n        /* \"#utility.yul\":8223:8229   */\n      dup3\n        /* \"#utility.yul\":8218:8221   */\n      dup2\n        /* \"#utility.yul\":8213:8216   */\n      dup4\n        /* \"#utility.yul\":8200:8230   */\n      calldatacopy\n        /* \"#utility.yul\":8285:8286   */\n      0x00\n        /* \"#utility.yul\":8276:8282   */\n      dup4\n        /* \"#utility.yul\":8271:8274   */\n      dup4\n        /* \"#utility.yul\":8267:8283   */\n      add\n        /* \"#utility.yul\":8260:8287   */\n      mstore\n        /* \"#utility.yul\":8139:8293   */\n      pop\n      pop\n      pop\n      jump\t// out\n        /* \"#utility.yul\":8299:8606   */\n    tag_154:\n        /* \"#utility.yul\":8367:8368   */\n      0x00\n        /* \"#utility.yul\":8377:8490   */\n    tag_191:\n        /* \"#utility.yul\":8391:8397   */\n      dup4\n        /* \"#utility.yul\":8388:8389   */\n      dup2\n        /* \"#utility.yul\":8385:8398   */\n      lt\n        /* \"#utility.yul\":8377:8490   */\n      iszero\n      tag_193\n      jumpi\n        /* \"#utility.yul\":8476:8477   */\n      dup1\n        /* \"#utility.yul\":8471:8474   */\n      dup3\n        /* \"#utility.yul\":8467:8478   */\n      add\n        /* \"#utility.yul\":8461:8479   */\n      mload\n        /* \"#utility.yul\":8457:8458   */\n      dup2\n        /* \"#utility.yul\":8452:8455   */\n      dup5\n        /* \"#utility.yul\":8448:8459   */\n      add\n        /* \"#utility.yul\":8441:8480   */\n      mstore\n        /* \"#utility.yul\":8413:8415   */\n      0x20\n        /* \"#utility.yul\":8410:8411   */\n      dup2\n        /* \"#utility.yul\":8406:8416   */\n      add\n        /* \"#utility.yul\":8401:8416   */\n      swap1\n      pop\n        /* \"#utility.yul\":8377:8490   */\n      jump(tag_191)\n    tag_193:\n        /* \"#utility.yul\":8508:8514   */\n      dup4\n        /* \"#utility.yul\":8505:8506   */\n      dup2\n        /* \"#utility.yul\":8502:8515   */\n      gt\n        /* \"#utility.yul\":8499:8600   */\n      iszero\n      tag_194\n      jumpi\n        /* \"#utility.yul\":8588:8589   */\n      0x00\n        /* \"#utility.yul\":8579:8585   */\n      dup5\n        /* \"#utility.yul\":8574:8577   */\n      dup5\n        /* \"#utility.yul\":8570:8586   */\n      add\n        /* \"#utility.yul\":8563:8590   */\n      mstore\n        /* \"#utility.yul\":8499:8600   */\n    tag_194:\n        /* \"#utility.yul\":8348:8606   */\n      pop\n        /* \"#utility.yul\":8299:8606   */\n      pop\n      pop\n      pop\n      jump\t// out\n        /* \"#utility.yul\":8612:8932   */\n    tag_39:\n        /* \"#utility.yul\":8656:8662   */\n      0x00\n        /* \"#utility.yul\":8693:8694   */\n      0x02\n        /* \"#utility.yul\":8687:8691   */\n      dup3\n        /* \"#utility.yul\":8683:8695   */\n      div\n        /* \"#utility.yul\":8673:8695   */\n      swap1\n      pop\n        /* \"#utility.yul\":8740:8741   */\n      0x01\n        /* \"#utility.yul\":8734:8738   */\n      dup3\n        /* \"#utility.yul\":8730:8742   */\n      and\n        /* \"#utility.yul\":8761:8779   */\n      dup1\n        /* \"#utility.yul\":8751:8832   */\n      tag_196\n      jumpi\n        /* \"#utility.yul\":8817:8821   */\n      0x7f\n        /* \"#utility.yul\":8809:8815   */\n      dup3\n        /* \"#utility.yul\":8805:8822   */\n      and\n        /* \"#utility.yul\":8795:8822   */\n      swap2\n      pop\n        /* \"#utility.yul\":8751:8832   */\n    tag_196:\n        /* \"#utility.yul\":8879:8881   */\n      0x20\n        /* \"#utility.yul\":8871:8877   */\n      dup3\n        /* \"#utility.yul\":8868:8882   */\n      lt\n        /* \"#utility.yul\":8848:8866   */\n      dup2\n        /* \"#utility.yul\":8845:8883   */\n      eq\n        /* \"#utility.yul\":8842:8926   */\n      iszero\n      tag_197\n      jumpi\n        /* \"#utility.yul\":8898:8916   */\n      tag_198\n      tag_199\n      jump\t// in\n    tag_198:\n        /* \"#utility.yul\":8842:8926   */\n    tag_197:\n        /* \"#utility.yul\":8663:8932   */\n      pop\n        /* \"#utility.yul\":8612:8932   */\n      swap2\n      swap1\n      pop\n      jump\t// out\n        /* \"#utility.yul\":8938:9219   */\n    tag_171:\n        /* \"#utility.yul\":9021:9048   */\n      tag_201\n        /* \"#utility.yul\":9043:9047   */\n      dup3\n        /* \"#utility.yul\":9021:9048   */\n      tag_156\n      jump\t// in\n    tag_201:\n        /* \"#utility.yul\":9013:9019   */\n      dup2\n        /* \"#utility.yul\":9009:9049   */\n      add\n        /* \"#utility.yul\":9151:9157   */\n      dup2\n        /* \"#utility.yul\":9139:9149   */\n      dup2\n        /* \"#utility.yul\":9136:9158   */\n      lt\n        /* \"#utility.yul\":9115:9133   */\n      0xffffffffffffffff\n        /* \"#utility.yul\":9103:9113   */\n      dup3\n        /* \"#utility.yul\":9100:9134   */\n      gt\n        /* \"#utility.yul\":9097:9159   */\n      or\n        /* \"#utility.yul\":9094:9182   */\n      iszero\n      tag_202\n      jumpi\n        /* \"#utility.yul\":9162:9180   */\n      tag_203\n      tag_176\n      jump\t// in\n    tag_203:\n        /* \"#utility.yul\":9094:9182   */\n    tag_202:\n        /* \"#utility.yul\":9202:9212   */\n      dup1\n        /* \"#utility.yul\":9198:9200   */\n      0x40\n        /* \"#utility.yul\":9191:9213   */\n      mstore\n        /* \"#utility.yul\":8981:9219   */\n      pop\n        /* \"#utility.yul\":8938:9219   */\n      pop\n      pop\n      jump\t// out\n        /* \"#utility.yul\":9225:9458   */\n    tag_57:\n        /* \"#utility.yul\":9264:9267   */\n      0x00\n        /* \"#utility.yul\":9287:9311   */\n      tag_205\n        /* \"#utility.yul\":9305:9310   */\n      dup3\n        /* \"#utility.yul\":9287:9311   */\n      tag_162\n      jump\t// in\n    tag_205:\n        /* \"#utility.yul\":9278:9311   */\n      swap2\n      pop\n        /* \"#utility.yul\":9333:9399   */\n      0xffffffffffffffffffffffffffffffffffffffffffffffffffffffffffffffff\n        /* \"#utility.yul\":9326:9331   */\n      dup3\n        /* \"#utility.yul\":9323:9400   */\n      eq\n        /* \"#utility.yul\":9320:9423   */\n      iszero\n      tag_206\n      jumpi\n        /* \"#utility.yul\":9403:9421   */\n      tag_207\n      tag_208\n      jump\t// in\n    tag_207:\n        /* \"#utility.yul\":9320:9423   */\n    tag_206:\n        /* \"#utility.yul\":9450:9451   */\n      0x01\n        /* \"#utility.yul\":9443:9448   */\n      dup3\n        /* \"#utility.yul\":9439:9452   */\n      add\n        /* \"#utility.yul\":9432:9452   */\n      swap1\n      pop\n        /* \"#utility.yul\":9225:9458   */\n      swap2\n      swap1\n      pop\n      jump\t// out\n        /* \"#utility.yul\":9464:9644   */\n    tag_208:\n        /* \"#utility.yul\":9512:9589   */\n      0x4e487b7100000000000000000000000000000000000000000000000000000000\n        /* \"#utility.yul\":9509:9510   */\n      0x00\n        /* \"#utility.yul\":9502:9590   */\n      mstore\n        /* \"#utility.yul\":9609:9613   */\n      0x11\n        /* \"#utility.yul\":9606:9607   */\n      0x04\n        /* \"#utility.yul\":9599:9614   */\n      mstore\n        /* \"#utility.yul\":9633:9637   */\n      0x24\n        /* \"#utility.yul\":9630:9631   */\n      0x00\n        /* \"#utility.yul\":9623:9638   */\n      revert\n        /* \"#utility.yul\":9650:9830   */\n    tag_199:\n        /* \"#utility.yul\":9698:9775   */\n      0x4e487b7100000000000000000000000000000000000000000000000000000000\n        /* \"#utility.yul\":9695:9696   */\n      0x00\n        /* \"#utility.yul\":9688:9776   */\n      mstore\n        /* \"#utility.yul\":9795:9799   */\n      0x22\n        /* \"#utility.yul\":9792:9793   */\n      0x04\n        /* \"#utility.yul\":9785:9800   */\n      mstore\n        /* \"#utility.yul\":9819:9823   */\n      0x24\n        /* \"#utility.yul\":9816:9817   */\n      0x00\n        /* \"#utility.yul\":9809:9824   */\n      revert\n        /* \"#utility.yul\":9836:10016   */\n    tag_51:\n        /* \"#utility.yul\":9884:9961   */\n      0x4e487b7100000000000000000000000000000000000000000000000000000000\n        /* \"#utility.yul\":9881:9882   */\n      0x00\n        /* \"#utility.yul\":9874:9962   */\n      mstore\n        /* \"#utility.yul\":9981:9985   */\n      0x32\n        /* \"#utility.yul\":9978:9979   */\n      0x04\n        /* \"#utility.yul\":9971:9986   */\n      mstore\n        /* \"#utility.yul\":10005:10009   */\n      0x24\n        /* \"#utility.yul\":10002:10003   */\n      0x00\n        /* \"#utility.yul\":9995:10010   */\n      revert\n        /* \"#utility.yul\":10022:10202   */\n    tag_176:\n        /* \"#utility.yul\":10070:10147   */\n      0x4e487b7100000000000000000000000000000000000000000000000000000000\n        /* \"#utility.yul\":10067:10068   */\n      0x00\n        /* \"#utility.yul\":10060:10148   */\n      mstore\n        /* \"#utility.yul\":10167:10171   */\n      0x41\n        /* \"#utility.yul\":10164:10165   */\n      0x04\n        /* \"#utility.yul\":10157:10172   */\n      mstore\n        /* \"#utility.yul\":10191:10195   */\n      0x24\n        /* \"#utility.yul\":10188:10189   */\n      0x00\n        /* \"#utility.yul\":10181:10196   */\n      revert\n        /* \"#utility.yul\":10208:10325   */\n    tag_93:\n        /* \"#utility.yul\":10317:10318   */\n      0x00\n        /* \"#utility.yul\":10314:10315   */\n      dup1\n        /* \"#utility.yul\":10307:10319   */\n      revert\n        /* \"#utility.yul\":10331:10448   */\n    tag_86:\n        /* \"#utility.yul\":10440:10441   */\n      0x00\n        /* \"#utility.yul\":10437:10438   */\n      dup1\n        /* \"#utility.yul\":10430:10442   */\n      revert\n        /* \"#utility.yul\":10454:10571   */\n    tag_105:\n        /* \"#utility.yul\":10563:10564   */\n      0x00\n        /* \"#utility.yul\":10560:10561   */\n      dup1\n        /* \"#utility.yul\":10553:10565   */\n      revert\n        /* \"#utility.yul\":10577:10694   */\n    tag_102:\n        /* \"#utility.yul\":10686:10687   */\n      0x00\n        /* \"#utility.yul\":10683:10684   */\n      dup1\n        /* \"#utility.yul\":10676:10688   */\n      revert\n        /* \"#utility.yul\":10700:10802   */\n    tag_156:\n        /* \"#utility.yul\":10741:10747   */\n      0x00\n        /* \"#utility.yul\":10792:10794   */\n      0x1f\n        /* \"#utility.yul\":10788:10795   */\n      not\n        /* \"#utility.yul\":10783:10785   */\n      0x1f\n        /* \"#utility.yul\":10776:10781   */\n      dup4\n        /* \"#utility.yul\":10772:10786   */\n      add\n        /* \"#utility.yul\":10768:10796   */\n      and\n        /* \"#utility.yul\":10758:10796   */\n      swap1\n      pop\n        /* \"#utility.yul\":10700:10802   */\n      swap2\n      swap1\n      pop\n      jump\t// out\n        /* \"#utility.yul\":10808:10930   */\n    tag_98:\n        /* \"#utility.yul\":10881:10905   */\n      tag_219\n        /* \"#utility.yul\":10899:10904   */\n      dup2\n        /* \"#utility.yul\":10881:10905   */\n      tag_162\n      jump\t// in\n    tag_219:\n        /* \"#utility.yul\":10874:10879   */\n      dup2\n        /* \"#utility.yul\":10871:10906   */\n      eq\n        /* \"#utility.yul\":10861:10924   */\n      tag_220\n      jumpi\n        /* \"#utility.yul\":10920:10921   */\n      0x00\n        /* \"#utility.yul\":10917:10918   */\n      dup1\n        /* \"#utility.yul\":10910:10922   */\n      revert\n        /* \"#utility.yul\":10861:10924   */\n    tag_220:\n        /* \"#utility.yul\":10808:10930   */\n      pop\n      jump\t// out\n\n    auxdata: 0xa264697066735822122056f62b4f8675bbd5921a186f1b83cff00e1d9d03f59a560f2bfd010b48cef9a564736f6c63430008070033\n}\n",
				"bytecode": {
					"linkReferences": {},
					"object": "608060405234801561001057600080fd5b506109d1806100206000396000f3fe608060405234801561001057600080fd5b50600436106100575760003560e01c80631003e2d21461005c578063234c668614610078578063942b765a14610094578063a4a2c40b146100b2578063b868ef57146100d0575b600080fd5b610076600480360381019061007191906104d2565b610100565b005b610092600480360381019061008d9190610489565b61012c565b005b61009c610199565b6040516100a99190610683565b60405180910390f35b6100ba610294565b6040516100c791906106a5565b60405180910390f35b6100ea60048036038101906100e591906104d2565b61030f565b6040516100f79190610683565b60405180910390f35b600181908060018154018082558091505060019003906000526020600020016000909190919091505550565b6000604051806040016040528060008152602001838152509080600181540180825580915050600190039060005260206000209060020201600090919091909150600082015181600001556020820151816001019080519060200190610193929190610361565b50505050565b60606000805480602002602001604051908101604052809291908181526020016000905b8282101561028b5783829060005260206000209060020201604051806040016040529081600082015481526020016001820180546101fa906107f7565b80601f0160208091040260200160405190810160405280929190818152602001828054610226906107f7565b80156102735780601f1061024857610100808354040283529160200191610273565b820191906000526020600020905b81548152906001019060200180831161025657829003601f168201915b505050505081525050815260200190600101906101bd565b50505050905090565b60608060005b6001805490508110156103075781518110156102f357600181815481106102c4576102c3610901565b5b90600052602060002001548282815181106102e2576102e1610901565b5b6020026020010181815250506102f4565b5b80806102ff9061085a565b91505061029a565b508091505090565b60608060005b60008054905081101561035757836000828154811061033757610336610901565b5b90600052602060002090505050808061034f9061085a565b915050610315565b5080915050919050565b82805461036d906107f7565b90600052602060002090601f01602090048101928261038f57600085556103d6565b82601f106103a857805160ff19168380011785556103d6565b828001600101855582156103d6579182015b828111156103d55782518255916020019190600101906103ba565b5b5090506103e391906103e7565b5090565b5b808211156104005760008160009055506001016103e8565b5090565b6000610417610412846106ec565b6106c7565b90508281526020810184848401111561043357610432610964565b5b61043e8482856107b5565b509392505050565b600082601f83011261045b5761045a61095f565b5b813561046b848260208601610404565b91505092915050565b60008135905061048381610984565b92915050565b60006020828403121561049f5761049e61096e565b5b600082013567ffffffffffffffff8111156104bd576104bc610969565b5b6104c984828501610446565b91505092915050565b6000602082840312156104e8576104e761096e565b5b60006104f684828501610474565b91505092915050565b600061050b8383610637565b905092915050565b600061051f8383610674565b60208301905092915050565b60006105368261073d565b6105408185610778565b9350836020820285016105528561071d565b8060005b8581101561058e578484038952815161056f85826104ff565b945061057a8361075e565b925060208a01995050600181019050610556565b50829750879550505050505092915050565b60006105ab82610748565b6105b58185610789565b93506105c08361072d565b8060005b838110156105f15781516105d88882610513565b97506105e38361076b565b9250506001810190506105c4565b5085935050505092915050565b600061060982610753565b610613818561079a565b93506106238185602086016107c4565b61062c81610973565b840191505092915050565b600060408301600083015161064f6000860182610674565b506020830151848203602086015261066782826105fe565b9150508091505092915050565b61067d816107ab565b82525050565b6000602082019050818103600083015261069d818461052b565b905092915050565b600060208201905081810360008301526106bf81846105a0565b905092915050565b60006106d16106e2565b90506106dd8282610829565b919050565b6000604051905090565b600067ffffffffffffffff82111561070757610706610930565b5b61071082610973565b9050602081019050919050565b6000819050602082019050919050565b6000819050602082019050919050565b600081519050919050565b600081519050919050565b600081519050919050565b6000602082019050919050565b6000602082019050919050565b600082825260208201905092915050565b600082825260208201905092915050565b600082825260208201905092915050565b6000819050919050565b82818337600083830152505050565b60005b838110156107e25780820151818401526020810190506107c7565b838111156107f1576000848401525b50505050565b6000600282049050600182168061080f57607f821691505b60208210811415610823576108226108d2565b5b50919050565b61083282610973565b810181811067ffffffffffffffff8211171561085157610850610930565b5b80604052505050565b6000610865826107ab565b91507fffffffffffffffffffffffffffffffffffffffffffffffffffffffffffffffff821415610898576108976108a3565b5b600182019050919050565b7f4e487b7100000000000000000000000000000000000000000000000000000000600052601160045260246000fd5b7f4e487b7100000000000000000000000000000000000000000000000000000000600052602260045260246000fd5b7f4e487b7100000000000000000000000000000000000000000000000000000000600052603260045260246000fd5b7f4e487b7100000000000000000000000000000000000000000000000000000000600052604160045260246000fd5b600080fd5b600080fd5b600080fd5b600080fd5b6000601f19601f8301169050919050565b61098d816107ab565b811461099857600080fd5b5056fea264697066735822122056f62b4f8675bbd5921a186f1b83cff00e1d9d03f59a560f2bfd010b48cef9a564736f6c63430008070033",
					"opcodes": "PUSH1 0x80 PUSH1 0x40 MSTORE CALLVALUE DUP1 ISZERO PUSH2 0x10 JUMPI PUSH1 0x0 DUP1 REVERT JUMPDEST POP PUSH2 0x9D1 DUP1 PUSH2 0x20 PUSH1 0x0 CODECOPY PUSH1 0x0 RETURN INVALID PUSH1 0x80 PUSH1 0x40 MSTORE CALLVALUE DUP1 ISZERO PUSH2 0x10 JUMPI PUSH1 0x0 DUP1 REVERT JUMPDEST POP PUSH1 0x4 CALLDATASIZE LT PUSH2 0x57 JUMPI PUSH1 0x0 CALLDATALOAD PUSH1 0xE0 SHR DUP1 PUSH4 0x1003E2D2 EQ PUSH2 0x5C JUMPI DUP1 PUSH4 0x234C6686 EQ PUSH2 0x78 JUMPI DUP1 PUSH4 0x942B765A EQ PUSH2 0x94 JUMPI DUP1 PUSH4 0xA4A2C40B EQ PUSH2 0xB2 JUMPI DUP1 PUSH4 0xB868EF57 EQ PUSH2 0xD0 JUMPI JUMPDEST PUSH1 0x0 DUP1 REVERT JUMPDEST PUSH2 0x76 PUSH1 0x4 DUP1 CALLDATASIZE SUB DUP2 ADD SWAP1 PUSH2 0x71 SWAP2 SWAP1 PUSH2 0x4D2 JUMP JUMPDEST PUSH2 0x100 JUMP JUMPDEST STOP JUMPDEST PUSH2 0x92 PUSH1 0x4 DUP1 CALLDATASIZE SUB DUP2 ADD SWAP1 PUSH2 0x8D SWAP2 SWAP1 PUSH2 0x489 JUMP JUMPDEST PUSH2 0x12C JUMP JUMPDEST STOP JUMPDEST PUSH2 0x9C PUSH2 0x199 JUMP JUMPDEST PUSH1 0x40 MLOAD PUSH2 0xA9 SWAP2 SWAP1 PUSH2 0x683 JUMP JUMPDEST PUSH1 0x40 MLOAD DUP1 SWAP2 SUB SWAP1 RETURN JUMPDEST PUSH2 0xBA PUSH2 0x294 JUMP JUMPDEST PUSH1 0x40 MLOAD PUSH2 0xC7 SWAP2 SWAP1 PUSH2 0x6A5 JUMP JUMPDEST PUSH1 0x40 MLOAD DUP1 SWAP2 SUB SWAP1 RETURN JUMPDEST PUSH2 0xEA PUSH1 0x4 DUP1 CALLDATASIZE SUB DUP2 ADD SWAP1 PUSH2 0xE5 SWAP2 SWAP1 PUSH2 0x4D2 JUMP JUMPDEST PUSH2 0x30F JUMP JUMPDEST PUSH1 0x40 MLOAD PUSH2 0xF7 SWAP2 SWAP1 PUSH2 0x683 JUMP JUMPDEST PUSH1 0x40 MLOAD DUP1 SWAP2 SUB SWAP1 RETURN JUMPDEST PUSH1 0x1 DUP2 SWAP1 DUP1 PUSH1 0x1 DUP2 SLOAD ADD DUP1 DUP3 SSTORE DUP1 SWAP2 POP POP PUSH1 0x1 SWAP1 SUB SWAP1 PUSH1 0x0 MSTORE PUSH1 0x20 PUSH1 0x0 KECCAK256 ADD PUSH1 0x0 SWAP1 SWAP2 SWAP1 SWAP2 SWAP1 SWAP2 POP SSTORE POP JUMP JUMPDEST PUSH1 0x0 PUSH1 0x40 MLOAD DUP1 PUSH1 0x40 ADD PUSH1 0x40 MSTORE DUP1 PUSH1 0x0 DUP2 MSTORE PUSH1 0x20 ADD DUP4 DUP2 MSTORE POP SWAP1 DUP1 PUSH1 0x1 DUP2 SLOAD ADD DUP1 DUP3 SSTORE DUP1 SWAP2 POP POP PUSH1 0x1 SWAP1 SUB SWAP1 PUSH1 0x0 MSTORE PUSH1 0x20 PUSH1 0x0 KECCAK256 SWAP1 PUSH1 0x2 MUL ADD PUSH1 0x0 SWAP1 SWAP2 SWAP1 SWAP2 SWAP1 SWAP2 POP PUSH1 0x0 DUP3 ADD MLOAD DUP2 PUSH1 0x0 ADD SSTORE PUSH1 0x20 DUP3 ADD MLOAD DUP2 PUSH1 0x1 ADD SWAP1 DUP1 MLOAD SWAP1 PUSH1 0x20 ADD SWAP1 PUSH2 0x193 SWAP3 SWAP2 SWAP1 PUSH2 0x361 JUMP JUMPDEST POP POP POP POP JUMP JUMPDEST PUSH1 0x60 PUSH1 0x0 DUP1 SLOAD DUP1 PUSH1 0x20 MUL PUSH1 0x20 ADD PUSH1 0x40 MLOAD SWAP1 DUP2 ADD PUSH1 0x40 MSTORE DUP1 SWAP3 SWAP2 SWAP1 DUP2 DUP2 MSTORE PUSH1 0x20 ADD PUSH1 0x0 SWAP1 JUMPDEST DUP3 DUP3 LT ISZERO PUSH2 0x28B JUMPI DUP4 DUP3 SWAP1 PUSH1 0x0 MSTORE PUSH1 0x20 PUSH1 0x0 KECCAK256 SWAP1 PUSH1 0x2 MUL ADD PUSH1 0x40 MLOAD DUP1 PUSH1 0x40 ADD PUSH1 0x40 MSTORE SWAP1 DUP2 PUSH1 0x0 DUP3 ADD SLOAD DUP2 MSTORE PUSH1 0x20 ADD PUSH1 0x1 DUP3 ADD DUP1 SLOAD PUSH2 0x1FA SWAP1 PUSH2 0x7F7 JUMP JUMPDEST DUP1 PUSH1 0x1F ADD PUSH1 0x20 DUP1 SWAP2 DIV MUL PUSH1 0x20 ADD PUSH1 0x40 MLOAD SWAP1 DUP2 ADD PUSH1 0x40 MSTORE DUP1 SWAP3 SWAP2 SWAP1 DUP2 DUP2 MSTORE PUSH1 0x20 ADD DUP3 DUP1 SLOAD PUSH2 0x226 SWAP1 PUSH2 0x7F7 JUMP JUMPDEST DUP1 ISZERO PUSH2 0x273 JUMPI DUP1 PUSH1 0x1F LT PUSH2 0x248 JUMPI PUSH2 0x100 DUP1 DUP4 SLOAD DIV MUL DUP4 MSTORE SWAP2 PUSH1 0x20 ADD SWAP2 PUSH2 0x273 JUMP JUMPDEST DUP3 ADD SWAP2 SWAP1 PUSH1 0x0 MSTORE PUSH1 0x20 PUSH1 0x0 KECCAK256 SWAP1 JUMPDEST DUP2 SLOAD DUP2 MSTORE SWAP1 PUSH1 0x1 ADD SWAP1 PUSH1 0x20 ADD DUP1 DUP4 GT PUSH2 0x256 JUMPI DUP3 SWAP1 SUB PUSH1 0x1F AND DUP3 ADD SWAP2 JUMPDEST POP POP POP POP POP DUP2 MSTORE POP POP DUP2 MSTORE PUSH1 0x20 ADD SWAP1 PUSH1 0x1 ADD SWAP1 PUSH2 0x1BD JUMP JUMPDEST POP POP POP POP SWAP1 POP SWAP1 JUMP JUMPDEST PUSH1 0x60 DUP1 PUSH1 0x0 JUMPDEST PUSH1 0x1 DUP1 SLOAD SWAP1 POP DUP2 LT ISZERO PUSH2 0x307 JUMPI DUP2 MLOAD DUP2 LT ISZERO PUSH2 0x2F3 JUMPI PUSH1 0x1 DUP2 DUP2 SLOAD DUP2 LT PUSH2 0x2C4 JUMPI PUSH2 0x2C3 PUSH2 0x901 JUMP JUMPDEST JUMPDEST SWAP1 PUSH1 0x0 MSTORE PUSH1 0x20 PUSH1 0x0 KECCAK256 ADD SLOAD DUP3 DUP3 DUP2 MLOAD DUP2 LT PUSH2 0x2E2 JUMPI PUSH2 0x2E1 PUSH2 0x901 JUMP JUMPDEST JUMPDEST PUSH1 0x20 MUL PUSH1 0x20 ADD ADD DUP2 DUP2 MSTORE POP POP PUSH2 0x2F4 JUMP JUMPDEST JUMPDEST DUP1 DUP1 PUSH2 0x2FF SWAP1 PUSH2 0x85A JUMP JUMPDEST SWAP2 POP POP PUSH2 0x29A JUMP JUMPDEST POP DUP1 SWAP2 POP POP SWAP1 JUMP JUMPDEST PUSH1 0x60 DUP1 PUSH1 0x0 JUMPDEST PUSH1 0x0 DUP1 SLOAD SWAP1 POP DUP2 LT ISZERO PUSH2 0x357 JUMPI DUP4 PUSH1 0x0 DUP3 DUP2 SLOAD DUP2 LT PUSH2 0x337 JUMPI PUSH2 0x336 PUSH2 0x901 JUMP JUMPDEST JUMPDEST SWAP1 PUSH1 0x0 MSTORE PUSH1 0x20 PUSH1 0x0 KECCAK256 SWAP1 POP POP POP DUP1 DUP1 PUSH2 0x34F SWAP1 PUSH2 0x85A JUMP JUMPDEST SWAP2 POP POP PUSH2 0x315 JUMP JUMPDEST POP DUP1 SWAP2 POP POP SWAP2 SWAP1 POP JUMP JUMPDEST DUP3 DUP1 SLOAD PUSH2 0x36D SWAP1 PUSH2 0x7F7 JUMP JUMPDEST SWAP1 PUSH1 0x0 MSTORE PUSH1 0x20 PUSH1 0x0 KECCAK256 SWAP1 PUSH1 0x1F ADD PUSH1 0x20 SWAP1 DIV DUP2 ADD SWAP3 DUP3 PUSH2 0x38F JUMPI PUSH1 0x0 DUP6 SSTORE PUSH2 0x3D6 JUMP JUMPDEST DUP3 PUSH1 0x1F LT PUSH2 0x3A8 JUMPI DUP1 MLOAD PUSH1 0xFF NOT AND DUP4 DUP1 ADD OR DUP6 SSTORE PUSH2 0x3D6 JUMP JUMPDEST DUP3 DUP1 ADD PUSH1 0x1 ADD DUP6 SSTORE DUP3 ISZERO PUSH2 0x3D6 JUMPI SWAP2 DUP3 ADD JUMPDEST DUP3 DUP2 GT ISZERO PUSH2 0x3D5 JUMPI DUP3 MLOAD DUP3 SSTORE SWAP2 PUSH1 0x20 ADD SWAP2 SWAP1 PUSH1 0x1 ADD SWAP1 PUSH2 0x3BA JUMP JUMPDEST JUMPDEST POP SWAP1 POP PUSH2 0x3E3 SWAP2 SWAP1 PUSH2 0x3E7 JUMP JUMPDEST POP SWAP1 JUMP JUMPDEST JUMPDEST DUP1 DUP3 GT ISZERO PUSH2 0x400 JUMPI PUSH1 0x0 DUP2 PUSH1 0x0 SWAP1 SSTORE POP PUSH1 0x1 ADD PUSH2 0x3E8 JUMP JUMPDEST POP SWAP1 JUMP JUMPDEST PUSH1 0x0 PUSH2 0x417 PUSH2 0x412 DUP5 PUSH2 0x6EC JUMP JUMPDEST PUSH2 0x6C7 JUMP JUMPDEST SWAP1 POP DUP3 DUP2 MSTORE PUSH1 0x20 DUP2 ADD DUP5 DUP5 DUP5 ADD GT ISZERO PUSH2 0x433 JUMPI PUSH2 0x432 PUSH2 0x964 JUMP JUMPDEST JUMPDEST PUSH2 0x43E DUP5 DUP3 DUP6 PUSH2 0x7B5 JUMP JUMPDEST POP SWAP4 SWAP3 POP POP POP JUMP JUMPDEST PUSH1 0x0 DUP3 PUSH1 0x1F DUP4 ADD SLT PUSH2 0x45B JUMPI PUSH2 0x45A PUSH2 0x95F JUMP JUMPDEST JUMPDEST DUP2 CALLDATALOAD PUSH2 0x46B DUP5 DUP3 PUSH1 0x20 DUP7 ADD PUSH2 0x404 JUMP JUMPDEST SWAP2 POP POP SWAP3 SWAP2 POP POP JUMP JUMPDEST PUSH1 0x0 DUP2 CALLDATALOAD SWAP1 POP PUSH2 0x483 DUP2 PUSH2 0x984 JUMP JUMPDEST SWAP3 SWAP2 POP POP JUMP JUMPDEST PUSH1 0x0 PUSH1 0x20 DUP3 DUP5 SUB SLT ISZERO PUSH2 0x49F JUMPI PUSH2 0x49E PUSH2 0x96E JUMP JUMPDEST JUMPDEST PUSH1 0x0 DUP3 ADD CALLDATALOAD PUSH8 0xFFFFFFFFFFFFFFFF DUP2 GT ISZERO PUSH2 0x4BD JUMPI PUSH2 0x4BC PUSH2 0x969 JUMP JUMPDEST JUMPDEST PUSH2 0x4C9 DUP5 DUP3 DUP6 ADD PUSH2 0x446 JUMP JUMPDEST SWAP2 POP POP SWAP3 SWAP2 POP POP JUMP JUMPDEST PUSH1 0x0 PUSH1 0x20 DUP3 DUP5 SUB SLT ISZERO PUSH2 0x4E8 JUMPI PUSH2 0x4E7 PUSH2 0x96E JUMP JUMPDEST JUMPDEST PUSH1 0x0 PUSH2 0x4F6 DUP5 DUP3 DUP6 ADD PUSH2 0x474 JUMP JUMPDEST SWAP2 POP POP SWAP3 SWAP2 POP POP JUMP JUMPDEST PUSH1 0x0 PUSH2 0x50B DUP4 DUP4 PUSH2 0x637 JUMP JUMPDEST SWAP1 POP SWAP3 SWAP2 POP POP JUMP JUMPDEST PUSH1 0x0 PUSH2 0x51F DUP4 DUP4 PUSH2 0x674 JUMP JUMPDEST PUSH1 0x20 DUP4 ADD SWAP1 POP SWAP3 SWAP2 POP POP JUMP JUMPDEST PUSH1 0x0 PUSH2 0x536 DUP3 PUSH2 0x73D JUMP JUMPDEST PUSH2 0x540 DUP2 DUP6 PUSH2 0x778 JUMP JUMPDEST SWAP4 POP DUP4 PUSH1 0x20 DUP3 MUL DUP6 ADD PUSH2 0x552 DUP6 PUSH2 0x71D JUMP JUMPDEST DUP1 PUSH1 0x0 JUMPDEST DUP6 DUP2 LT ISZERO PUSH2 0x58E JUMPI DUP5 DUP5 SUB DUP10 MSTORE DUP2 MLOAD PUSH2 0x56F DUP6 DUP3 PUSH2 0x4FF JUMP JUMPDEST SWAP5 POP PUSH2 0x57A DUP4 PUSH2 0x75E JUMP JUMPDEST SWAP3 POP PUSH1 0x20 DUP11 ADD SWAP10 POP POP PUSH1 0x1 DUP2 ADD SWAP1 POP PUSH2 0x556 JUMP JUMPDEST POP DUP3 SWAP8 POP DUP8 SWAP6 POP POP POP POP POP POP SWAP3 SWAP2 POP POP JUMP JUMPDEST PUSH1 0x0 PUSH2 0x5AB DUP3 PUSH2 0x748 JUMP JUMPDEST PUSH2 0x5B5 DUP2 DUP6 PUSH2 0x789 JUMP JUMPDEST SWAP4 POP PUSH2 0x5C0 DUP4 PUSH2 0x72D JUMP JUMPDEST DUP1 PUSH1 0x0 JUMPDEST DUP4 DUP2 LT ISZERO PUSH2 0x5F1 JUMPI DUP2 MLOAD PUSH2 0x5D8 DUP9 DUP3 PUSH2 0x513 JUMP JUMPDEST SWAP8 POP PUSH2 0x5E3 DUP4 PUSH2 0x76B JUMP JUMPDEST SWAP3 POP POP PUSH1 0x1 DUP2 ADD SWAP1 POP PUSH2 0x5C4 JUMP JUMPDEST POP DUP6 SWAP4 POP POP POP POP SWAP3 SWAP2 POP POP JUMP JUMPDEST PUSH1 0x0 PUSH2 0x609 DUP3 PUSH2 0x753 JUMP JUMPDEST PUSH2 0x613 DUP2 DUP6 PUSH2 0x79A JUMP JUMPDEST SWAP4 POP PUSH2 0x623 DUP2 DUP6 PUSH1 0x20 DUP7 ADD PUSH2 0x7C4 JUMP JUMPDEST PUSH2 0x62C DUP2 PUSH2 0x973 JUMP JUMPDEST DUP5 ADD SWAP2 POP POP SWAP3 SWAP2 POP POP JUMP JUMPDEST PUSH1 0x0 PUSH1 0x40 DUP4 ADD PUSH1 0x0 DUP4 ADD MLOAD PUSH2 0x64F PUSH1 0x0 DUP7 ADD DUP3 PUSH2 0x674 JUMP JUMPDEST POP PUSH1 0x20 DUP4 ADD MLOAD DUP5 DUP3 SUB PUSH1 0x20 DUP7 ADD MSTORE PUSH2 0x667 DUP3 DUP3 PUSH2 0x5FE JUMP JUMPDEST SWAP2 POP POP DUP1 SWAP2 POP POP SWAP3 SWAP2 POP POP JUMP JUMPDEST PUSH2 0x67D DUP2 PUSH2 0x7AB JUMP JUMPDEST DUP3 MSTORE POP POP JUMP JUMPDEST PUSH1 0x0 PUSH1 0x20 DUP3 ADD SWAP1 POP DUP2 DUP2 SUB PUSH1 0x0 DUP4 ADD MSTORE PUSH2 0x69D DUP2 DUP5 PUSH2 0x52B JUMP JUMPDEST SWAP1 POP SWAP3 SWAP2 POP POP JUMP JUMPDEST PUSH1 0x0 PUSH1 0x20 DUP3 ADD SWAP1 POP DUP2 DUP2 SUB PUSH1 0x0 DUP4 ADD MSTORE PUSH2 0x6BF DUP2 DUP5 PUSH2 0x5A0 JUMP JUMPDEST SWAP1 POP SWAP3 SWAP2 POP POP JUMP JUMPDEST PUSH1 0x0 PUSH2 0x6D1 PUSH2 0x6E2 JUMP JUMPDEST SWAP1 POP PUSH2 0x6DD DUP3 DUP3 PUSH2 0x829 JUMP JUMPDEST SWAP2 SWAP1 POP JUMP JUMPDEST PUSH1 0x0 PUSH1 0x40 MLOAD SWAP1 POP SWAP1 JUMP JUMPDEST PUSH1 0x0 PUSH8 0xFFFFFFFFFFFFFFFF DUP3 GT ISZERO PUSH2 0x707 JUMPI PUSH2 0x706 PUSH2 0x930 JUMP JUMPDEST JUMPDEST PUSH2 0x710 DUP3 PUSH2 0x973 JUMP JUMPDEST SWAP1 POP PUSH1 0x20 DUP2 ADD SWAP1 POP SWAP2 SWAP1 POP JUMP JUMPDEST PUSH1 0x0 DUP2 SWAP1 POP PUSH1 0x20 DUP3 ADD SWAP1 POP SWAP2 SWAP1 POP JUMP JUMPDEST PUSH1 0x0 DUP2 SWAP1 POP PUSH1 0x20 DUP3 ADD SWAP1 POP SWAP2 SWAP1 POP JUMP JUMPDEST PUSH1 0x0 DUP2 MLOAD SWAP1 POP SWAP2 SWAP1 POP JUMP JUMPDEST PUSH1 0x0 DUP2 MLOAD SWAP1 POP SWAP2 SWAP1 POP JUMP JUMPDEST PUSH1 0x0 DUP2 MLOAD SWAP1 POP SWAP2 SWAP1 POP JUMP JUMPDEST PUSH1 0x0 PUSH1 0x20 DUP3 ADD SWAP1 POP SWAP2 SWAP1 POP JUMP JUMPDEST PUSH1 0x0 PUSH1 0x20 DUP3 ADD SWAP1 POP SWAP2 SWAP1 POP JUMP JUMPDEST PUSH1 0x0 DUP3 DUP3 MSTORE PUSH1 0x20 DUP3 ADD SWAP1 POP SWAP3 SWAP2 POP POP JUMP JUMPDEST PUSH1 0x0 DUP3 DUP3 MSTORE PUSH1 0x20 DUP3 ADD SWAP1 POP SWAP3 SWAP2 POP POP JUMP JUMPDEST PUSH1 0x0 DUP3 DUP3 MSTORE PUSH1 0x20 DUP3 ADD SWAP1 POP SWAP3 SWAP2 POP POP JUMP JUMPDEST PUSH1 0x0 DUP2 SWAP1 POP SWAP2 SWAP1 POP JUMP JUMPDEST DUP3 DUP2 DUP4 CALLDATACOPY PUSH1 0x0 DUP4 DUP4 ADD MSTORE POP POP POP JUMP JUMPDEST PUSH1 0x0 JUMPDEST DUP4 DUP2 LT ISZERO PUSH2 0x7E2 JUMPI DUP1 DUP3 ADD MLOAD DUP2 DUP5 ADD MSTORE PUSH1 0x20 DUP2 ADD SWAP1 POP PUSH2 0x7C7 JUMP JUMPDEST DUP4 DUP2 GT ISZERO PUSH2 0x7F1 JUMPI PUSH1 0x0 DUP5 DUP5 ADD MSTORE JUMPDEST POP POP POP POP JUMP JUMPDEST PUSH1 0x0 PUSH1 0x2 DUP3 DIV SWAP1 POP PUSH1 0x1 DUP3 AND DUP1 PUSH2 0x80F JUMPI PUSH1 0x7F DUP3 AND SWAP2 POP JUMPDEST PUSH1 0x20 DUP3 LT DUP2 EQ ISZERO PUSH2 0x823 JUMPI PUSH2 0x822 PUSH2 0x8D2 JUMP JUMPDEST JUMPDEST POP SWAP2 SWAP1 POP JUMP JUMPDEST PUSH2 0x832 DUP3 PUSH2 0x973 JUMP JUMPDEST DUP2 ADD DUP2 DUP2 LT PUSH8 0xFFFFFFFFFFFFFFFF DUP3 GT OR ISZERO PUSH2 0x851 JUMPI PUSH2 0x850 PUSH2 0x930 JUMP JUMPDEST JUMPDEST DUP1 PUSH1 0x40 MSTORE POP POP POP JUMP JUMPDEST PUSH1 0x0 PUSH2 0x865 DUP3 PUSH2 0x7AB JUMP JUMPDEST SWAP2 POP PUSH32 0xFFFFFFFFFFFFFFFFFFFFFFFFFFFFFFFFFFFFFFFFFFFFFFFFFFFFFFFFFFFFFFFF DUP3 EQ ISZERO PUSH2 0x898 JUMPI PUSH2 0x897 PUSH2 0x8A3 JUMP JUMPDEST JUMPDEST PUSH1 0x1 DUP3 ADD SWAP1 POP SWAP2 SWAP1 POP JUMP JUMPDEST PUSH32 0x4E487B7100000000000000000000000000000000000000000000000000000000 PUSH1 0x0 MSTORE PUSH1 0x11 PUSH1 0x4 MSTORE PUSH1 0x24 PUSH1 0x0 REVERT JUMPDEST PUSH32 0x4E487B7100000000000000000000000000000000000000000000000000000000 PUSH1 0x0 MSTORE PUSH1 0x22 PUSH1 0x4 MSTORE PUSH1 0x24 PUSH1 0x0 REVERT JUMPDEST PUSH32 0x4E487B7100000000000000000000000000000000000000000000000000000000 PUSH1 0x0 MSTORE PUSH1 0x32 PUSH1 0x4 MSTORE PUSH1 0x24 PUSH1 0x0 REVERT JUMPDEST PUSH32 0x4E487B7100000000000000000000000000000000000000000000000000000000 PUSH1 0x0 MSTORE PUSH1 0x41 PUSH1 0x4 MSTORE PUSH1 0x24 PUSH1 0x0 REVERT JUMPDEST PUSH1 0x0 DUP1 REVERT JUMPDEST PUSH1 0x0 DUP1 REVERT JUMPDEST PUSH1 0x0 DUP1 REVERT JUMPDEST PUSH1 0x0 DUP1 REVERT JUMPDEST PUSH1 0x0 PUSH1 0x1F NOT PUSH1 0x1F DUP4 ADD AND SWAP1 POP SWAP2 SWAP1 POP JUMP JUMPDEST PUSH2 0x98D DUP2 PUSH2 0x7AB JUMP JUMPDEST DUP2 EQ PUSH2 0x998 JUMPI PUSH1 0x0 DUP1 REVERT JUMPDEST POP JUMP INVALID LOG2 PUSH5 0x6970667358 0x22 SLT KECCAK256 JUMP 0xF6 0x2B 0x4F DUP7 PUSH22 0xBBD5921A186F1B83CFF00E1D9D03F59A560F2BFD010B BASEFEE 0xCE 0xF9 0xA5 PUSH5 0x736F6C6343 STOP ADDMOD SMOD STOP CALLER "
				},
				"gasEstimates": {
					"creation": {
						"codeDepositCost": "502600",
						"executionCost": "537",
						"totalCost": "503137"
					},
					"external": {
						"add(uint256)": "46807",
						"createReadList(string)": "infinite",
						"fn()": "infinite",
						"getFilterReadList(uint256)": "infinite",
						"getList()": "infinite"
					}
				},
				"methodIdentifiers": {
					"add(uint256)": "1003e2d2",
					"createReadList(string)": "234c6686",
					"fn()": "a4a2c40b",
					"getFilterReadList(uint256)": "b868ef57",
					"getList()": "942b765a"
				}
			},
			"storageLayout": {
				"storage": [
					{
						"astId": 10,
						"contract": "array.sol:ArrayTest",
						"label": "list",
						"offset": 0,
						"slot": "0",
						"type": "t_array(t_struct(Book)6_storage)dyn_storage"
					},
					{
						"astId": 13,
						"contract": "array.sol:ArrayTest",
						"label": "arr",
						"offset": 0,
						"slot": "1",
						"type": "t_array(t_uint256)dyn_storage"
					}
				],
				"types": {
					"t_array(t_struct(Book)6_storage)dyn_storage": {
						"base": "t_struct(Book)6_storage",
						"encoding": "dynamic_array",
						"label": "struct ArrayTest.Book[]",
						"numberOfBytes": "32"
					},
					"t_array(t_uint256)dyn_storage": {
						"base": "t_uint256",
						"encoding": "dynamic_array",
						"label": "uint256[]",
						"numberOfBytes": "32"
					},
					"t_string_storage": {
						"encoding": "bytes",
						"label": "string",
						"numberOfBytes": "32"
					},
					"t_struct(Book)6_storage": {
						"encoding": "inplace",
						"label": "struct ArrayTest.Book",
						"members": [
							{
								"astId": 3,
								"contract": "array.sol:ArrayTest",
								"label": "status",
								"offset": 0,
								"slot": "0",
								"type": "t_uint256"
							},
							{
								"astId": 5,
								"contract": "array.sol:ArrayTest",
								"label": "bookName",
								"offset": 0,
								"slot": "1",
								"type": "t_string_storage"
							}
						],
						"numberOfBytes": "64"
					},
					"t_uint256": {
						"encoding": "inplace",
						"label": "uint256",
						"numberOfBytes": "32"
					}
				}
			},
			"userdoc": {
				"kind": "user",
				"methods": {},
				"version": 1
			}
		}
	}
}