{
	"crowdfunding.sol": {
		"CrowdfundingContract": {
			"abi": [
				{
					"inputs": [
						{
							"internalType": "address",
							"name": "_recipient",
							"type": "address"
						},
						{
							"internalType": "uint256",
							"name": "_joinLimitNum",
							"type": "uint256"
						},
						{
							"internalType": "string",
							"name": "_expectAmout",
							"type": "string"
						}
					],
					"name": "createCrowdfunding",
					"outputs": [],
					"stateMutability": "nonpayable",
					"type": "function"
				},
				{
					"inputs": [],
					"name": "getAllCrowdfunding",
					"outputs": [
						{
							"components": [
								{
									"internalType": "uint256",
									"name": "num",
									"type": "uint256"
								},
								{
									"internalType": "uint256",
									"name": "status",
									"type": "uint256"
								},
								{
									"internalType": "address",
									"name": "creator",
									"type": "address"
								},
								{
									"internalType": "address",
									"name": "recipient",
									"type": "address"
								},
								{
									"internalType": "uint256",
									"name": "joinNum",
									"type": "uint256"
								},
								{
									"internalType": "uint256",
									"name": "joinLimitNum",
									"type": "uint256"
								},
								{
									"internalType": "string",
									"name": "expectAmout",
									"type": "string"
								},
								{
									"internalType": "string",
									"name": "actualAmount",
									"type": "string"
								}
							],
							"internalType": "struct CrowdfundingContract.Crowdfunding[]",
							"name": "",
							"type": "tuple[]"
						}
					],
					"stateMutability": "view",
					"type": "function"
				}
			],
			"devdoc": {
				"kind": "dev",
				"methods": {},
				"version": 1
			},
			"evm": {
				"assembly": "    /* \"crowdfunding.sol\":61:1115  contract CrowdfundingContract {\r... */\n  mstore(0x40, 0x80)\n  callvalue\n  dup1\n  iszero\n  tag_1\n  jumpi\n  0x00\n  dup1\n  revert\ntag_1:\n  pop\n  dataSize(sub_0)\n  dup1\n  dataOffset(sub_0)\n  0x00\n  codecopy\n  0x00\n  return\nstop\n\nsub_0: assembly {\n        /* \"crowdfunding.sol\":61:1115  contract CrowdfundingContract {\r... */\n      mstore(0x40, 0x80)\n      callvalue\n      dup1\n      iszero\n      tag_1\n      jumpi\n      0x00\n      dup1\n      revert\n    tag_1:\n      pop\n      jumpi(tag_2, lt(calldatasize, 0x04))\n      shr(0xe0, calldataload(0x00))\n      dup1\n      0x4ed2f7ee\n      eq\n      tag_3\n      jumpi\n      dup1\n      0x9a417d22\n      eq\n      tag_4\n      jumpi\n    tag_2:\n      0x00\n      dup1\n      revert\n        /* \"crowdfunding.sol\":572:999  function createCrowdfunding(address _recipient,uint _joinLimitNum, string memory _expectAmout) public {\r... */\n    tag_3:\n      tag_5\n      0x04\n      dup1\n      calldatasize\n      sub\n      dup2\n      add\n      swap1\n      tag_6\n      swap2\n      swap1\n      tag_7\n      jump\t// in\n    tag_6:\n      tag_8\n      jump\t// in\n    tag_5:\n      stop\n        /* \"crowdfunding.sol\":1007:1110  function getAllCrowdfunding() public view returns (Crowdfunding[] memory){\r... */\n    tag_4:\n      tag_9\n      tag_10\n      jump\t// in\n    tag_9:\n      mload(0x40)\n      tag_11\n      swap2\n      swap1\n      tag_12\n      jump\t// in\n    tag_11:\n      mload(0x40)\n      dup1\n      swap2\n      sub\n      swap1\n      return\n        /* \"crowdfunding.sol\":572:999  function createCrowdfunding(address _recipient,uint _joinLimitNum, string memory _expectAmout) public {\r... */\n    tag_8:\n        /* \"crowdfunding.sol\":685:687  No */\n      0x00\n      dup1\n        /* \"crowdfunding.sol\":685:689  No++ */\n      dup2\n      sload\n      dup1\n      swap3\n      swap2\n      swap1\n      tag_14\n      swap1\n      tag_15\n      jump\t// in\n    tag_14:\n      swap2\n      swap1\n      pop\n      sstore\n      pop\n        /* \"crowdfunding.sol\":700:704  list */\n      0x01\n        /* \"crowdfunding.sol\":710:990  Crowdfunding({\r... */\n      mload(0x40)\n      dup1\n      0x0100\n      add\n      0x40\n      mstore\n      dup1\n        /* \"crowdfunding.sol\":743:745  No */\n      sload(0x00)\n        /* \"crowdfunding.sol\":710:990  Crowdfunding({\r... */\n      dup2\n      mstore\n      0x20\n      add\n        /* \"crowdfunding.sol\":768:769  0 */\n      0x00\n        /* \"crowdfunding.sol\":710:990  Crowdfunding({\r... */\n      dup2\n      mstore\n      0x20\n      add\n        /* \"crowdfunding.sol\":793:803  msg.sender */\n      caller\n        /* \"crowdfunding.sol\":710:990  Crowdfunding({\r... */\n      0xffffffffffffffffffffffffffffffffffffffff\n      and\n      dup2\n      mstore\n      0x20\n      add\n        /* \"crowdfunding.sol\":829:839  _recipient */\n      dup6\n        /* \"crowdfunding.sol\":710:990  Crowdfunding({\r... */\n      0xffffffffffffffffffffffffffffffffffffffff\n      and\n      dup2\n      mstore\n      0x20\n      add\n        /* \"crowdfunding.sol\":863:864  0 */\n      0x00\n        /* \"crowdfunding.sol\":710:990  Crowdfunding({\r... */\n      dup2\n      mstore\n      0x20\n      add\n        /* \"crowdfunding.sol\":893:906  _joinLimitNum */\n      dup5\n        /* \"crowdfunding.sol\":710:990  Crowdfunding({\r... */\n      dup2\n      mstore\n      0x20\n      add\n        /* \"crowdfunding.sol\":934:946  _expectAmout */\n      dup4\n        /* \"crowdfunding.sol\":710:990  Crowdfunding({\r... */\n      dup2\n      mstore\n      0x20\n      add\n      mload(0x40)\n      dup1\n      0x40\n      add\n      0x40\n      mstore\n      dup1\n      0x01\n      dup2\n      mstore\n      0x20\n      add\n      0x3000000000000000000000000000000000000000000000000000000000000000\n      dup2\n      mstore\n      pop\n      dup2\n      mstore\n      pop\n        /* \"crowdfunding.sol\":700:991  list.push(Crowdfunding({\r... */\n      swap1\n      dup1\n      0x01\n      dup2\n      sload\n      add\n      dup1\n      dup3\n      sstore\n      dup1\n      swap2\n      pop\n      pop\n      0x01\n      swap1\n      sub\n      swap1\n      0x00\n      mstore\n      keccak256(0x00, 0x20)\n      swap1\n      0x08\n      mul\n      add\n      0x00\n      swap1\n      swap2\n      swap1\n      swap2\n      swap1\n      swap2\n      pop\n      0x00\n      dup3\n      add\n      mload\n      dup2\n      0x00\n      add\n      sstore\n      0x20\n      dup3\n      add\n      mload\n      dup2\n      0x01\n      add\n      sstore\n      0x40\n      dup3\n      add\n      mload\n      dup2\n      0x02\n      add\n      exp(0x0100, 0x00)\n      dup2\n      sload\n      dup2\n      0xffffffffffffffffffffffffffffffffffffffff\n      mul\n      not\n      and\n      swap1\n      dup4\n      0xffffffffffffffffffffffffffffffffffffffff\n      and\n      mul\n      or\n      swap1\n      sstore\n      pop\n      0x60\n      dup3\n      add\n      mload\n      dup2\n      0x03\n      add\n      exp(0x0100, 0x00)\n      dup2\n      sload\n      dup2\n      0xffffffffffffffffffffffffffffffffffffffff\n      mul\n      not\n      and\n      swap1\n      dup4\n      0xffffffffffffffffffffffffffffffffffffffff\n      and\n      mul\n      or\n      swap1\n      sstore\n      pop\n      0x80\n      dup3\n      add\n      mload\n      dup2\n      0x04\n      add\n      sstore\n      0xa0\n      dup3\n      add\n      mload\n      dup2\n      0x05\n      add\n      sstore\n      0xc0\n      dup3\n      add\n      mload\n      dup2\n      0x06\n      add\n      swap1\n      dup1\n      mload\n      swap1\n      0x20\n      add\n      swap1\n      tag_17\n      swap3\n      swap2\n      swap1\n      tag_18\n      jump\t// in\n    tag_17:\n      pop\n      0xe0\n      dup3\n      add\n      mload\n      dup2\n      0x07\n      add\n      swap1\n      dup1\n      mload\n      swap1\n      0x20\n      add\n      swap1\n      tag_19\n      swap3\n      swap2\n      swap1\n      tag_18\n      jump\t// in\n    tag_19:\n      pop\n      pop\n      pop\n        /* \"crowdfunding.sol\":572:999  function createCrowdfunding(address _recipient,uint _joinLimitNum, string memory _expectAmout) public {\r... */\n      pop\n      pop\n      pop\n      jump\t// out\n        /* \"crowdfunding.sol\":1007:1110  function getAllCrowdfunding() public view returns (Crowdfunding[] memory){\r... */\n    tag_10:\n        /* \"crowdfunding.sol\":1058:1079  Crowdfunding[] memory */\n      0x60\n        /* \"crowdfunding.sol\":1098:1102  list */\n      0x01\n        /* \"crowdfunding.sol\":1091:1102  return list */\n      dup1\n      sload\n      dup1\n      0x20\n      mul\n      0x20\n      add\n      mload(0x40)\n      swap1\n      dup2\n      add\n      0x40\n      mstore\n      dup1\n      swap3\n      swap2\n      swap1\n      dup2\n      dup2\n      mstore\n      0x20\n      add\n      0x00\n      swap1\n    tag_21:\n      dup3\n      dup3\n      lt\n      iszero\n      tag_22\n      jumpi\n      dup4\n      dup3\n      swap1\n      0x00\n      mstore\n      keccak256(0x00, 0x20)\n      swap1\n      0x08\n      mul\n      add\n      mload(0x40)\n      dup1\n      0x0100\n      add\n      0x40\n      mstore\n      swap1\n      dup2\n      0x00\n      dup3\n      add\n      sload\n      dup2\n      mstore\n      0x20\n      add\n      0x01\n      dup3\n      add\n      sload\n      dup2\n      mstore\n      0x20\n      add\n      0x02\n      dup3\n      add\n      0x00\n      swap1\n      sload\n      swap1\n      0x0100\n      exp\n      swap1\n      div\n      0xffffffffffffffffffffffffffffffffffffffff\n      and\n      0xffffffffffffffffffffffffffffffffffffffff\n      and\n      0xffffffffffffffffffffffffffffffffffffffff\n      and\n      dup2\n      mstore\n      0x20\n      add\n      0x03\n      dup3\n      add\n      0x00\n      swap1\n      sload\n      swap1\n      0x0100\n      exp\n      swap1\n      div\n      0xffffffffffffffffffffffffffffffffffffffff\n      and\n      0xffffffffffffffffffffffffffffffffffffffff\n      and\n      0xffffffffffffffffffffffffffffffffffffffff\n      and\n      dup2\n      mstore\n      0x20\n      add\n      0x04\n      dup3\n      add\n      sload\n      dup2\n      mstore\n      0x20\n      add\n      0x05\n      dup3\n      add\n      sload\n      dup2\n      mstore\n      0x20\n      add\n      0x06\n      dup3\n      add\n      dup1\n      sload\n      tag_24\n      swap1\n      tag_25\n      jump\t// in\n    tag_24:\n      dup1\n      0x1f\n      add\n      0x20\n      dup1\n      swap2\n      div\n      mul\n      0x20\n      add\n      mload(0x40)\n      swap1\n      dup2\n      add\n      0x40\n      mstore\n      dup1\n      swap3\n      swap2\n      swap1\n      dup2\n      dup2\n      mstore\n      0x20\n      add\n      dup3\n      dup1\n      sload\n      tag_26\n      swap1\n      tag_25\n      jump\t// in\n    tag_26:\n      dup1\n      iszero\n      tag_27\n      jumpi\n      dup1\n      0x1f\n      lt\n      tag_28\n      jumpi\n      0x0100\n      dup1\n      dup4\n      sload\n      div\n      mul\n      dup4\n      mstore\n      swap2\n      0x20\n      add\n      swap2\n      jump(tag_27)\n    tag_28:\n      dup3\n      add\n      swap2\n      swap1\n      0x00\n      mstore\n      keccak256(0x00, 0x20)\n      swap1\n    tag_29:\n      dup2\n      sload\n      dup2\n      mstore\n      swap1\n      0x01\n      add\n      swap1\n      0x20\n      add\n      dup1\n      dup4\n      gt\n      tag_29\n      jumpi\n      dup3\n      swap1\n      sub\n      0x1f\n      and\n      dup3\n      add\n      swap2\n    tag_27:\n      pop\n      pop\n      pop\n      pop\n      pop\n      dup2\n      mstore\n      0x20\n      add\n      0x07\n      dup3\n      add\n      dup1\n      sload\n      tag_30\n      swap1\n      tag_25\n      jump\t// in\n    tag_30:\n      dup1\n      0x1f\n      add\n      0x20\n      dup1\n      swap2\n      div\n      mul\n      0x20\n      add\n      mload(0x40)\n      swap1\n      dup2\n      add\n      0x40\n      mstore\n      dup1\n      swap3\n      swap2\n      swap1\n      dup2\n      dup2\n      mstore\n      0x20\n      add\n      dup3\n      dup1\n      sload\n      tag_31\n      swap1\n      tag_25\n      jump\t// in\n    tag_31:\n      dup1\n      iszero\n      tag_32\n      jumpi\n      dup1\n      0x1f\n      lt\n      tag_33\n      jumpi\n      0x0100\n      dup1\n      dup4\n      sload\n      div\n      mul\n      dup4\n      mstore\n      swap2\n      0x20\n      add\n      swap2\n      jump(tag_32)\n    tag_33:\n      dup3\n      add\n      swap2\n      swap1\n      0x00\n      mstore\n      keccak256(0x00, 0x20)\n      swap1\n    tag_34:\n      dup2\n      sload\n      dup2\n      mstore\n      swap1\n      0x01\n      add\n      swap1\n      0x20\n      add\n      dup1\n      dup4\n      gt\n      tag_34\n      jumpi\n      dup3\n      swap1\n      sub\n      0x1f\n      and\n      dup3\n      add\n      swap2\n    tag_32:\n      pop\n      pop\n      pop\n      pop\n      pop\n      dup2\n      mstore\n      pop\n      pop\n      dup2\n      mstore\n      0x20\n      add\n      swap1\n      0x01\n      add\n      swap1\n      jump(tag_21)\n    tag_22:\n      pop\n      pop\n      pop\n      pop\n      swap1\n      pop\n        /* \"crowdfunding.sol\":1007:1110  function getAllCrowdfunding() public view returns (Crowdfunding[] memory){\r... */\n      swap1\n      jump\t// out\n    tag_18:\n      dup3\n      dup1\n      sload\n      tag_35\n      swap1\n      tag_25\n      jump\t// in\n    tag_35:\n      swap1\n      0x00\n      mstore\n      keccak256(0x00, 0x20)\n      swap1\n      0x1f\n      add\n      0x20\n      swap1\n      div\n      dup2\n      add\n      swap3\n      dup3\n      tag_37\n      jumpi\n      0x00\n      dup6\n      sstore\n      jump(tag_36)\n    tag_37:\n      dup3\n      0x1f\n      lt\n      tag_38\n      jumpi\n      dup1\n      mload\n      not(0xff)\n      and\n      dup4\n      dup1\n      add\n      or\n      dup6\n      sstore\n      jump(tag_36)\n    tag_38:\n      dup3\n      dup1\n      add\n      0x01\n      add\n      dup6\n      sstore\n      dup3\n      iszero\n      tag_36\n      jumpi\n      swap2\n      dup3\n      add\n    tag_39:\n      dup3\n      dup2\n      gt\n      iszero\n      tag_40\n      jumpi\n      dup3\n      mload\n      dup3\n      sstore\n      swap2\n      0x20\n      add\n      swap2\n      swap1\n      0x01\n      add\n      swap1\n      jump(tag_39)\n    tag_40:\n    tag_36:\n      pop\n      swap1\n      pop\n      tag_41\n      swap2\n      swap1\n      tag_42\n      jump\t// in\n    tag_41:\n      pop\n      swap1\n      jump\t// out\n    tag_42:\n    tag_43:\n      dup1\n      dup3\n      gt\n      iszero\n      tag_44\n      jumpi\n      0x00\n      dup2\n      0x00\n      swap1\n      sstore\n      pop\n      0x01\n      add\n      jump(tag_43)\n    tag_44:\n      pop\n      swap1\n      jump\t// out\n        /* \"#utility.yul\":7:419   */\n    tag_46:\n        /* \"#utility.yul\":85:90   */\n      0x00\n        /* \"#utility.yul\":110:176   */\n      tag_48\n        /* \"#utility.yul\":126:175   */\n      tag_49\n        /* \"#utility.yul\":168:174   */\n      dup5\n        /* \"#utility.yul\":126:175   */\n      tag_50\n      jump\t// in\n    tag_49:\n        /* \"#utility.yul\":110:176   */\n      tag_51\n      jump\t// in\n    tag_48:\n        /* \"#utility.yul\":101:176   */\n      swap1\n      pop\n        /* \"#utility.yul\":199:205   */\n      dup3\n        /* \"#utility.yul\":192:197   */\n      dup2\n        /* \"#utility.yul\":185:206   */\n      mstore\n        /* \"#utility.yul\":237:241   */\n      0x20\n        /* \"#utility.yul\":230:235   */\n      dup2\n        /* \"#utility.yul\":226:242   */\n      add\n        /* \"#utility.yul\":275:278   */\n      dup5\n        /* \"#utility.yul\":266:272   */\n      dup5\n        /* \"#utility.yul\":261:264   */\n      dup5\n        /* \"#utility.yul\":257:273   */\n      add\n        /* \"#utility.yul\":254:279   */\n      gt\n        /* \"#utility.yul\":251:363   */\n      iszero\n      tag_52\n      jumpi\n        /* \"#utility.yul\":282:361   */\n      tag_53\n      tag_54\n      jump\t// in\n    tag_53:\n        /* \"#utility.yul\":251:363   */\n    tag_52:\n        /* \"#utility.yul\":372:413   */\n      tag_55\n        /* \"#utility.yul\":406:412   */\n      dup5\n        /* \"#utility.yul\":401:404   */\n      dup3\n        /* \"#utility.yul\":396:399   */\n      dup6\n        /* \"#utility.yul\":372:413   */\n      tag_56\n      jump\t// in\n    tag_55:\n        /* \"#utility.yul\":91:419   */\n      pop\n        /* \"#utility.yul\":7:419   */\n      swap4\n      swap3\n      pop\n      pop\n      pop\n      jump\t// out\n        /* \"#utility.yul\":425:564   */\n    tag_57:\n        /* \"#utility.yul\":471:476   */\n      0x00\n        /* \"#utility.yul\":509:515   */\n      dup2\n        /* \"#utility.yul\":496:516   */\n      calldataload\n        /* \"#utility.yul\":487:516   */\n      swap1\n      pop\n        /* \"#utility.yul\":525:558   */\n      tag_59\n        /* \"#utility.yul\":552:557   */\n      dup2\n        /* \"#utility.yul\":525:558   */\n      tag_60\n      jump\t// in\n    tag_59:\n        /* \"#utility.yul\":425:564   */\n      swap3\n      swap2\n      pop\n      pop\n      jump\t// out\n        /* \"#utility.yul\":584:924   */\n    tag_61:\n        /* \"#utility.yul\":640:645   */\n      0x00\n        /* \"#utility.yul\":689:692   */\n      dup3\n        /* \"#utility.yul\":682:686   */\n      0x1f\n        /* \"#utility.yul\":674:680   */\n      dup4\n        /* \"#utility.yul\":670:687   */\n      add\n        /* \"#utility.yul\":666:693   */\n      slt\n        /* \"#utility.yul\":656:778   */\n      tag_63\n      jumpi\n        /* \"#utility.yul\":697:776   */\n      tag_64\n      tag_65\n      jump\t// in\n    tag_64:\n        /* \"#utility.yul\":656:778   */\n    tag_63:\n        /* \"#utility.yul\":814:820   */\n      dup2\n        /* \"#utility.yul\":801:821   */\n      calldataload\n        /* \"#utility.yul\":839:918   */\n      tag_66\n        /* \"#utility.yul\":914:917   */\n      dup5\n        /* \"#utility.yul\":906:912   */\n      dup3\n        /* \"#utility.yul\":899:903   */\n      0x20\n        /* \"#utility.yul\":891:897   */\n      dup7\n        /* \"#utility.yul\":887:904   */\n      add\n        /* \"#utility.yul\":839:918   */\n      tag_46\n      jump\t// in\n    tag_66:\n        /* \"#utility.yul\":830:918   */\n      swap2\n      pop\n        /* \"#utility.yul\":646:924   */\n      pop\n        /* \"#utility.yul\":584:924   */\n      swap3\n      swap2\n      pop\n      pop\n      jump\t// out\n        /* \"#utility.yul\":930:1069   */\n    tag_67:\n        /* \"#utility.yul\":976:981   */\n      0x00\n        /* \"#utility.yul\":1014:1020   */\n      dup2\n        /* \"#utility.yul\":1001:1021   */\n      calldataload\n        /* \"#utility.yul\":992:1021   */\n      swap1\n      pop\n        /* \"#utility.yul\":1030:1063   */\n      tag_69\n        /* \"#utility.yul\":1057:1062   */\n      dup2\n        /* \"#utility.yul\":1030:1063   */\n      tag_70\n      jump\t// in\n    tag_69:\n        /* \"#utility.yul\":930:1069   */\n      swap3\n      swap2\n      pop\n      pop\n      jump\t// out\n        /* \"#utility.yul\":1075:1874   */\n    tag_7:\n        /* \"#utility.yul\":1162:1168   */\n      0x00\n        /* \"#utility.yul\":1170:1176   */\n      dup1\n        /* \"#utility.yul\":1178:1184   */\n      0x00\n        /* \"#utility.yul\":1227:1229   */\n      0x60\n        /* \"#utility.yul\":1215:1224   */\n      dup5\n        /* \"#utility.yul\":1206:1213   */\n      dup7\n        /* \"#utility.yul\":1202:1225   */\n      sub\n        /* \"#utility.yul\":1198:1230   */\n      slt\n        /* \"#utility.yul\":1195:1314   */\n      iszero\n      tag_72\n      jumpi\n        /* \"#utility.yul\":1233:1312   */\n      tag_73\n      tag_74\n      jump\t// in\n    tag_73:\n        /* \"#utility.yul\":1195:1314   */\n    tag_72:\n        /* \"#utility.yul\":1353:1354   */\n      0x00\n        /* \"#utility.yul\":1378:1431   */\n      tag_75\n        /* \"#utility.yul\":1423:1430   */\n      dup7\n        /* \"#utility.yul\":1414:1420   */\n      dup3\n        /* \"#utility.yul\":1403:1412   */\n      dup8\n        /* \"#utility.yul\":1399:1421   */\n      add\n        /* \"#utility.yul\":1378:1431   */\n      tag_57\n      jump\t// in\n    tag_75:\n        /* \"#utility.yul\":1368:1431   */\n      swap4\n      pop\n        /* \"#utility.yul\":1324:1441   */\n      pop\n        /* \"#utility.yul\":1480:1482   */\n      0x20\n        /* \"#utility.yul\":1506:1559   */\n      tag_76\n        /* \"#utility.yul\":1551:1558   */\n      dup7\n        /* \"#utility.yul\":1542:1548   */\n      dup3\n        /* \"#utility.yul\":1531:1540   */\n      dup8\n        /* \"#utility.yul\":1527:1549   */\n      add\n        /* \"#utility.yul\":1506:1559   */\n      tag_67\n      jump\t// in\n    tag_76:\n        /* \"#utility.yul\":1496:1559   */\n      swap3\n      pop\n        /* \"#utility.yul\":1451:1569   */\n      pop\n        /* \"#utility.yul\":1636:1638   */\n      0x40\n        /* \"#utility.yul\":1625:1634   */\n      dup5\n        /* \"#utility.yul\":1621:1639   */\n      add\n        /* \"#utility.yul\":1608:1640   */\n      calldataload\n        /* \"#utility.yul\":1667:1685   */\n      0xffffffffffffffff\n        /* \"#utility.yul\":1659:1665   */\n      dup2\n        /* \"#utility.yul\":1656:1686   */\n      gt\n        /* \"#utility.yul\":1653:1770   */\n      iszero\n      tag_77\n      jumpi\n        /* \"#utility.yul\":1689:1768   */\n      tag_78\n      tag_79\n      jump\t// in\n    tag_78:\n        /* \"#utility.yul\":1653:1770   */\n    tag_77:\n        /* \"#utility.yul\":1794:1857   */\n      tag_80\n        /* \"#utility.yul\":1849:1856   */\n      dup7\n        /* \"#utility.yul\":1840:1846   */\n      dup3\n        /* \"#utility.yul\":1829:1838   */\n      dup8\n        /* \"#utility.yul\":1825:1847   */\n      add\n        /* \"#utility.yul\":1794:1857   */\n      tag_61\n      jump\t// in\n    tag_80:\n        /* \"#utility.yul\":1784:1857   */\n      swap2\n      pop\n        /* \"#utility.yul\":1579:1867   */\n      pop\n        /* \"#utility.yul\":1075:1874   */\n      swap3\n      pop\n      swap3\n      pop\n      swap3\n      jump\t// out\n        /* \"#utility.yul\":1880:2148   */\n    tag_81:\n        /* \"#utility.yul\":2005:2015   */\n      0x00\n        /* \"#utility.yul\":2040:2142   */\n      tag_83\n        /* \"#utility.yul\":2138:2141   */\n      dup4\n        /* \"#utility.yul\":2130:2136   */\n      dup4\n        /* \"#utility.yul\":2040:2142   */\n      tag_84\n      jump\t// in\n    tag_83:\n        /* \"#utility.yul\":2026:2142   */\n      swap1\n      pop\n        /* \"#utility.yul\":1880:2148   */\n      swap3\n      swap2\n      pop\n      pop\n      jump\t// out\n        /* \"#utility.yul\":2154:2262   */\n    tag_85:\n        /* \"#utility.yul\":2231:2255   */\n      tag_87\n        /* \"#utility.yul\":2249:2254   */\n      dup2\n        /* \"#utility.yul\":2231:2255   */\n      tag_88\n      jump\t// in\n    tag_87:\n        /* \"#utility.yul\":2226:2229   */\n      dup3\n        /* \"#utility.yul\":2219:2256   */\n      mstore\n        /* \"#utility.yul\":2154:2262   */\n      pop\n      pop\n      jump\t// out\n        /* \"#utility.yul\":2364:3499   */\n    tag_89:\n        /* \"#utility.yul\":2539:2542   */\n      0x00\n        /* \"#utility.yul\":2568:2650   */\n      tag_91\n        /* \"#utility.yul\":2644:2649   */\n      dup3\n        /* \"#utility.yul\":2568:2650   */\n      tag_92\n      jump\t// in\n    tag_91:\n        /* \"#utility.yul\":2666:2780   */\n      tag_93\n        /* \"#utility.yul\":2773:2779   */\n      dup2\n        /* \"#utility.yul\":2768:2771   */\n      dup6\n        /* \"#utility.yul\":2666:2780   */\n      tag_94\n      jump\t// in\n    tag_93:\n        /* \"#utility.yul\":2659:2780   */\n      swap4\n      pop\n        /* \"#utility.yul\":2806:2809   */\n      dup4\n        /* \"#utility.yul\":2851:2855   */\n      0x20\n        /* \"#utility.yul\":2843:2849   */\n      dup3\n        /* \"#utility.yul\":2839:2856   */\n      mul\n        /* \"#utility.yul\":2834:2837   */\n      dup6\n        /* \"#utility.yul\":2830:2857   */\n      add\n        /* \"#utility.yul\":2881:2965   */\n      tag_95\n        /* \"#utility.yul\":2959:2964   */\n      dup6\n        /* \"#utility.yul\":2881:2965   */\n      tag_96\n      jump\t// in\n    tag_95:\n        /* \"#utility.yul\":2988:2995   */\n      dup1\n        /* \"#utility.yul\":3019:3020   */\n      0x00\n        /* \"#utility.yul\":3004:3454   */\n    tag_97:\n        /* \"#utility.yul\":3029:3035   */\n      dup6\n        /* \"#utility.yul\":3026:3027   */\n      dup2\n        /* \"#utility.yul\":3023:3036   */\n      lt\n        /* \"#utility.yul\":3004:3454   */\n      iszero\n      tag_99\n      jumpi\n        /* \"#utility.yul\":3100:3109   */\n      dup5\n        /* \"#utility.yul\":3094:3098   */\n      dup5\n        /* \"#utility.yul\":3090:3110   */\n      sub\n        /* \"#utility.yul\":3085:3088   */\n      dup10\n        /* \"#utility.yul\":3078:3111   */\n      mstore\n        /* \"#utility.yul\":3151:3157   */\n      dup2\n        /* \"#utility.yul\":3145:3158   */\n      mload\n        /* \"#utility.yul\":3179:3299   */\n      tag_100\n        /* \"#utility.yul\":3294:3298   */\n      dup6\n        /* \"#utility.yul\":3279:3292   */\n      dup3\n        /* \"#utility.yul\":3179:3299   */\n      tag_81\n      jump\t// in\n    tag_100:\n        /* \"#utility.yul\":3171:3299   */\n      swap5\n      pop\n        /* \"#utility.yul\":3322:3410   */\n      tag_101\n        /* \"#utility.yul\":3403:3409   */\n      dup4\n        /* \"#utility.yul\":3322:3410   */\n      tag_102\n      jump\t// in\n    tag_101:\n        /* \"#utility.yul\":3312:3410   */\n      swap3\n      pop\n        /* \"#utility.yul\":3439:3443   */\n      0x20\n        /* \"#utility.yul\":3434:3437   */\n      dup11\n        /* \"#utility.yul\":3430:3444   */\n      add\n        /* \"#utility.yul\":3423:3444   */\n      swap10\n      pop\n        /* \"#utility.yul\":3064:3454   */\n      pop\n        /* \"#utility.yul\":3051:3052   */\n      0x01\n        /* \"#utility.yul\":3048:3049   */\n      dup2\n        /* \"#utility.yul\":3044:3053   */\n      add\n        /* \"#utility.yul\":3039:3053   */\n      swap1\n      pop\n        /* \"#utility.yul\":3004:3454   */\n      jump(tag_97)\n    tag_99:\n        /* \"#utility.yul\":3008:3022   */\n      pop\n        /* \"#utility.yul\":3470:3474   */\n      dup3\n        /* \"#utility.yul\":3463:3474   */\n      swap8\n      pop\n        /* \"#utility.yul\":3490:3493   */\n      dup8\n        /* \"#utility.yul\":3483:3493   */\n      swap6\n      pop\n        /* \"#utility.yul\":2544:3499   */\n      pop\n      pop\n      pop\n      pop\n      pop\n        /* \"#utility.yul\":2364:3499   */\n      swap3\n      swap2\n      pop\n      pop\n      jump\t// out\n        /* \"#utility.yul\":3505:3849   */\n    tag_103:\n        /* \"#utility.yul\":3583:3586   */\n      0x00\n        /* \"#utility.yul\":3611:3650   */\n      tag_105\n        /* \"#utility.yul\":3644:3649   */\n      dup3\n        /* \"#utility.yul\":3611:3650   */\n      tag_106\n      jump\t// in\n    tag_105:\n        /* \"#utility.yul\":3666:3727   */\n      tag_107\n        /* \"#utility.yul\":3720:3726   */\n      dup2\n        /* \"#utility.yul\":3715:3718   */\n      dup6\n        /* \"#utility.yul\":3666:3727   */\n      tag_108\n      jump\t// in\n    tag_107:\n        /* \"#utility.yul\":3659:3727   */\n      swap4\n      pop\n        /* \"#utility.yul\":3736:3788   */\n      tag_109\n        /* \"#utility.yul\":3781:3787   */\n      dup2\n        /* \"#utility.yul\":3776:3779   */\n      dup6\n        /* \"#utility.yul\":3769:3773   */\n      0x20\n        /* \"#utility.yul\":3762:3767   */\n      dup7\n        /* \"#utility.yul\":3758:3774   */\n      add\n        /* \"#utility.yul\":3736:3788   */\n      tag_110\n      jump\t// in\n    tag_109:\n        /* \"#utility.yul\":3813:3842   */\n      tag_111\n        /* \"#utility.yul\":3835:3841   */\n      dup2\n        /* \"#utility.yul\":3813:3842   */\n      tag_112\n      jump\t// in\n    tag_111:\n        /* \"#utility.yul\":3808:3811   */\n      dup5\n        /* \"#utility.yul\":3804:3843   */\n      add\n        /* \"#utility.yul\":3797:3843   */\n      swap2\n      pop\n        /* \"#utility.yul\":3587:3849   */\n      pop\n        /* \"#utility.yul\":3505:3849   */\n      swap3\n      swap2\n      pop\n      pop\n      jump\t// out\n        /* \"#utility.yul\":3947:5701   */\n    tag_84:\n        /* \"#utility.yul\":4062:4065   */\n      0x00\n        /* \"#utility.yul\":4098:4104   */\n      0x0100\n        /* \"#utility.yul\":4093:4096   */\n      dup4\n        /* \"#utility.yul\":4089:4105   */\n      add\n        /* \"#utility.yul\":4186:4190   */\n      0x00\n        /* \"#utility.yul\":4179:4184   */\n      dup4\n        /* \"#utility.yul\":4175:4191   */\n      add\n        /* \"#utility.yul\":4169:4192   */\n      mload\n        /* \"#utility.yul\":4205:4268   */\n      tag_114\n        /* \"#utility.yul\":4262:4266   */\n      0x00\n        /* \"#utility.yul\":4257:4260   */\n      dup7\n        /* \"#utility.yul\":4253:4267   */\n      add\n        /* \"#utility.yul\":4239:4251   */\n      dup3\n        /* \"#utility.yul\":4205:4268   */\n      tag_115\n      jump\t// in\n    tag_114:\n        /* \"#utility.yul\":4115:4278   */\n      pop\n        /* \"#utility.yul\":4362:4366   */\n      0x20\n        /* \"#utility.yul\":4355:4360   */\n      dup4\n        /* \"#utility.yul\":4351:4367   */\n      add\n        /* \"#utility.yul\":4345:4368   */\n      mload\n        /* \"#utility.yul\":4381:4444   */\n      tag_116\n        /* \"#utility.yul\":4438:4442   */\n      0x20\n        /* \"#utility.yul\":4433:4436   */\n      dup7\n        /* \"#utility.yul\":4429:4443   */\n      add\n        /* \"#utility.yul\":4415:4427   */\n      dup3\n        /* \"#utility.yul\":4381:4444   */\n      tag_115\n      jump\t// in\n    tag_116:\n        /* \"#utility.yul\":4288:4454   */\n      pop\n        /* \"#utility.yul\":4539:4543   */\n      0x40\n        /* \"#utility.yul\":4532:4537   */\n      dup4\n        /* \"#utility.yul\":4528:4544   */\n      add\n        /* \"#utility.yul\":4522:4545   */\n      mload\n        /* \"#utility.yul\":4558:4621   */\n      tag_117\n        /* \"#utility.yul\":4615:4619   */\n      0x40\n        /* \"#utility.yul\":4610:4613   */\n      dup7\n        /* \"#utility.yul\":4606:4620   */\n      add\n        /* \"#utility.yul\":4592:4604   */\n      dup3\n        /* \"#utility.yul\":4558:4621   */\n      tag_85\n      jump\t// in\n    tag_117:\n        /* \"#utility.yul\":4464:4631   */\n      pop\n        /* \"#utility.yul\":4718:4722   */\n      0x60\n        /* \"#utility.yul\":4711:4716   */\n      dup4\n        /* \"#utility.yul\":4707:4723   */\n      add\n        /* \"#utility.yul\":4701:4724   */\n      mload\n        /* \"#utility.yul\":4737:4800   */\n      tag_118\n        /* \"#utility.yul\":4794:4798   */\n      0x60\n        /* \"#utility.yul\":4789:4792   */\n      dup7\n        /* \"#utility.yul\":4785:4799   */\n      add\n        /* \"#utility.yul\":4771:4783   */\n      dup3\n        /* \"#utility.yul\":4737:4800   */\n      tag_85\n      jump\t// in\n    tag_118:\n        /* \"#utility.yul\":4641:4810   */\n      pop\n        /* \"#utility.yul\":4895:4899   */\n      0x80\n        /* \"#utility.yul\":4888:4893   */\n      dup4\n        /* \"#utility.yul\":4884:4900   */\n      add\n        /* \"#utility.yul\":4878:4901   */\n      mload\n        /* \"#utility.yul\":4914:4977   */\n      tag_119\n        /* \"#utility.yul\":4971:4975   */\n      0x80\n        /* \"#utility.yul\":4966:4969   */\n      dup7\n        /* \"#utility.yul\":4962:4976   */\n      add\n        /* \"#utility.yul\":4948:4960   */\n      dup3\n        /* \"#utility.yul\":4914:4977   */\n      tag_115\n      jump\t// in\n    tag_119:\n        /* \"#utility.yul\":4820:4987   */\n      pop\n        /* \"#utility.yul\":5077:5081   */\n      0xa0\n        /* \"#utility.yul\":5070:5075   */\n      dup4\n        /* \"#utility.yul\":5066:5082   */\n      add\n        /* \"#utility.yul\":5060:5083   */\n      mload\n        /* \"#utility.yul\":5096:5159   */\n      tag_120\n        /* \"#utility.yul\":5153:5157   */\n      0xa0\n        /* \"#utility.yul\":5148:5151   */\n      dup7\n        /* \"#utility.yul\":5144:5158   */\n      add\n        /* \"#utility.yul\":5130:5142   */\n      dup3\n        /* \"#utility.yul\":5096:5159   */\n      tag_115\n      jump\t// in\n    tag_120:\n        /* \"#utility.yul\":4997:5169   */\n      pop\n        /* \"#utility.yul\":5258:5262   */\n      0xc0\n        /* \"#utility.yul\":5251:5256   */\n      dup4\n        /* \"#utility.yul\":5247:5263   */\n      add\n        /* \"#utility.yul\":5241:5264   */\n      mload\n        /* \"#utility.yul\":5311:5314   */\n      dup5\n        /* \"#utility.yul\":5305:5309   */\n      dup3\n        /* \"#utility.yul\":5301:5315   */\n      sub\n        /* \"#utility.yul\":5294:5298   */\n      0xc0\n        /* \"#utility.yul\":5289:5292   */\n      dup7\n        /* \"#utility.yul\":5285:5299   */\n      add\n        /* \"#utility.yul\":5278:5316   */\n      mstore\n        /* \"#utility.yul\":5337:5410   */\n      tag_121\n        /* \"#utility.yul\":5405:5409   */\n      dup3\n        /* \"#utility.yul\":5391:5403   */\n      dup3\n        /* \"#utility.yul\":5337:5410   */\n      tag_103\n      jump\t// in\n    tag_121:\n        /* \"#utility.yul\":5329:5410   */\n      swap2\n      pop\n        /* \"#utility.yul\":5179:5421   */\n      pop\n        /* \"#utility.yul\":5511:5515   */\n      0xe0\n        /* \"#utility.yul\":5504:5509   */\n      dup4\n        /* \"#utility.yul\":5500:5516   */\n      add\n        /* \"#utility.yul\":5494:5517   */\n      mload\n        /* \"#utility.yul\":5564:5567   */\n      dup5\n        /* \"#utility.yul\":5558:5562   */\n      dup3\n        /* \"#utility.yul\":5554:5568   */\n      sub\n        /* \"#utility.yul\":5547:5551   */\n      0xe0\n        /* \"#utility.yul\":5542:5545   */\n      dup7\n        /* \"#utility.yul\":5538:5552   */\n      add\n        /* \"#utility.yul\":5531:5569   */\n      mstore\n        /* \"#utility.yul\":5590:5663   */\n      tag_122\n        /* \"#utility.yul\":5658:5662   */\n      dup3\n        /* \"#utility.yul\":5644:5656   */\n      dup3\n        /* \"#utility.yul\":5590:5663   */\n      tag_103\n      jump\t// in\n    tag_122:\n        /* \"#utility.yul\":5582:5663   */\n      swap2\n      pop\n        /* \"#utility.yul\":5431:5674   */\n      pop\n        /* \"#utility.yul\":5691:5695   */\n      dup1\n        /* \"#utility.yul\":5684:5695   */\n      swap2\n      pop\n        /* \"#utility.yul\":4067:5701   */\n      pop\n        /* \"#utility.yul\":3947:5701   */\n      swap3\n      swap2\n      pop\n      pop\n      jump\t// out\n        /* \"#utility.yul\":5707:5815   */\n    tag_115:\n        /* \"#utility.yul\":5784:5808   */\n      tag_124\n        /* \"#utility.yul\":5802:5807   */\n      dup2\n        /* \"#utility.yul\":5784:5808   */\n      tag_125\n      jump\t// in\n    tag_124:\n        /* \"#utility.yul\":5779:5782   */\n      dup3\n        /* \"#utility.yul\":5772:5809   */\n      mstore\n        /* \"#utility.yul\":5707:5815   */\n      pop\n      pop\n      jump\t// out\n        /* \"#utility.yul\":5821:6306   */\n    tag_12:\n        /* \"#utility.yul\":6020:6024   */\n      0x00\n        /* \"#utility.yul\":6058:6060   */\n      0x20\n        /* \"#utility.yul\":6047:6056   */\n      dup3\n        /* \"#utility.yul\":6043:6061   */\n      add\n        /* \"#utility.yul\":6035:6061   */\n      swap1\n      pop\n        /* \"#utility.yul\":6107:6116   */\n      dup2\n        /* \"#utility.yul\":6101:6105   */\n      dup2\n        /* \"#utility.yul\":6097:6117   */\n      sub\n        /* \"#utility.yul\":6093:6094   */\n      0x00\n        /* \"#utility.yul\":6082:6091   */\n      dup4\n        /* \"#utility.yul\":6078:6095   */\n      add\n        /* \"#utility.yul\":6071:6118   */\n      mstore\n        /* \"#utility.yul\":6135:6299   */\n      tag_127\n        /* \"#utility.yul\":6294:6298   */\n      dup2\n        /* \"#utility.yul\":6285:6291   */\n      dup5\n        /* \"#utility.yul\":6135:6299   */\n      tag_89\n      jump\t// in\n    tag_127:\n        /* \"#utility.yul\":6127:6299   */\n      swap1\n      pop\n        /* \"#utility.yul\":5821:6306   */\n      swap3\n      swap2\n      pop\n      pop\n      jump\t// out\n        /* \"#utility.yul\":6312:6441   */\n    tag_51:\n        /* \"#utility.yul\":6346:6352   */\n      0x00\n        /* \"#utility.yul\":6373:6393   */\n      tag_129\n      tag_130\n      jump\t// in\n    tag_129:\n        /* \"#utility.yul\":6363:6393   */\n      swap1\n      pop\n        /* \"#utility.yul\":6402:6435   */\n      tag_131\n        /* \"#utility.yul\":6430:6434   */\n      dup3\n        /* \"#utility.yul\":6422:6428   */\n      dup3\n        /* \"#utility.yul\":6402:6435   */\n      tag_132\n      jump\t// in\n    tag_131:\n        /* \"#utility.yul\":6312:6441   */\n      swap2\n      swap1\n      pop\n      jump\t// out\n        /* \"#utility.yul\":6447:6522   */\n    tag_130:\n        /* \"#utility.yul\":6480:6486   */\n      0x00\n        /* \"#utility.yul\":6513:6515   */\n      0x40\n        /* \"#utility.yul\":6507:6516   */\n      mload\n        /* \"#utility.yul\":6497:6516   */\n      swap1\n      pop\n        /* \"#utility.yul\":6447:6522   */\n      swap1\n      jump\t// out\n        /* \"#utility.yul\":6528:6836   */\n    tag_50:\n        /* \"#utility.yul\":6590:6594   */\n      0x00\n        /* \"#utility.yul\":6680:6698   */\n      0xffffffffffffffff\n        /* \"#utility.yul\":6672:6678   */\n      dup3\n        /* \"#utility.yul\":6669:6699   */\n      gt\n        /* \"#utility.yul\":6666:6722   */\n      iszero\n      tag_135\n      jumpi\n        /* \"#utility.yul\":6702:6720   */\n      tag_136\n      tag_137\n      jump\t// in\n    tag_136:\n        /* \"#utility.yul\":6666:6722   */\n    tag_135:\n        /* \"#utility.yul\":6740:6769   */\n      tag_138\n        /* \"#utility.yul\":6762:6768   */\n      dup3\n        /* \"#utility.yul\":6740:6769   */\n      tag_112\n      jump\t// in\n    tag_138:\n        /* \"#utility.yul\":6732:6769   */\n      swap1\n      pop\n        /* \"#utility.yul\":6824:6828   */\n      0x20\n        /* \"#utility.yul\":6818:6822   */\n      dup2\n        /* \"#utility.yul\":6814:6829   */\n      add\n        /* \"#utility.yul\":6806:6829   */\n      swap1\n      pop\n        /* \"#utility.yul\":6528:6836   */\n      swap2\n      swap1\n      pop\n      jump\t// out\n        /* \"#utility.yul\":6842:7002   */\n    tag_96:\n        /* \"#utility.yul\":6937:6941   */\n      0x00\n        /* \"#utility.yul\":6960:6963   */\n      dup2\n        /* \"#utility.yul\":6952:6963   */\n      swap1\n      pop\n        /* \"#utility.yul\":6990:6994   */\n      0x20\n        /* \"#utility.yul\":6985:6988   */\n      dup3\n        /* \"#utility.yul\":6981:6995   */\n      add\n        /* \"#utility.yul\":6973:6995   */\n      swap1\n      pop\n        /* \"#utility.yul\":6842:7002   */\n      swap2\n      swap1\n      pop\n      jump\t// out\n        /* \"#utility.yul\":7008:7150   */\n    tag_92:\n        /* \"#utility.yul\":7103:7109   */\n      0x00\n        /* \"#utility.yul\":7137:7142   */\n      dup2\n        /* \"#utility.yul\":7131:7143   */\n      mload\n        /* \"#utility.yul\":7121:7143   */\n      swap1\n      pop\n        /* \"#utility.yul\":7008:7150   */\n      swap2\n      swap1\n      pop\n      jump\t// out\n        /* \"#utility.yul\":7156:7255   */\n    tag_106:\n        /* \"#utility.yul\":7208:7214   */\n      0x00\n        /* \"#utility.yul\":7242:7247   */\n      dup2\n        /* \"#utility.yul\":7236:7248   */\n      mload\n        /* \"#utility.yul\":7226:7248   */\n      swap1\n      pop\n        /* \"#utility.yul\":7156:7255   */\n      swap2\n      swap1\n      pop\n      jump\t// out\n        /* \"#utility.yul\":7261:7402   */\n    tag_102:\n        /* \"#utility.yul\":7359:7363   */\n      0x00\n        /* \"#utility.yul\":7391:7395   */\n      0x20\n        /* \"#utility.yul\":7386:7389   */\n      dup3\n        /* \"#utility.yul\":7382:7396   */\n      add\n        /* \"#utility.yul\":7374:7396   */\n      swap1\n      pop\n        /* \"#utility.yul\":7261:7402   */\n      swap2\n      swap1\n      pop\n      jump\t// out\n        /* \"#utility.yul\":7408:7620   */\n    tag_94:\n        /* \"#utility.yul\":7535:7546   */\n      0x00\n        /* \"#utility.yul\":7569:7575   */\n      dup3\n        /* \"#utility.yul\":7564:7567   */\n      dup3\n        /* \"#utility.yul\":7557:7576   */\n      mstore\n        /* \"#utility.yul\":7609:7613   */\n      0x20\n        /* \"#utility.yul\":7604:7607   */\n      dup3\n        /* \"#utility.yul\":7600:7614   */\n      add\n        /* \"#utility.yul\":7585:7614   */\n      swap1\n      pop\n        /* \"#utility.yul\":7408:7620   */\n      swap3\n      swap2\n      pop\n      pop\n      jump\t// out\n        /* \"#utility.yul\":7626:7785   */\n    tag_108:\n        /* \"#utility.yul\":7700:7711   */\n      0x00\n        /* \"#utility.yul\":7734:7740   */\n      dup3\n        /* \"#utility.yul\":7729:7732   */\n      dup3\n        /* \"#utility.yul\":7722:7741   */\n      mstore\n        /* \"#utility.yul\":7774:7778   */\n      0x20\n        /* \"#utility.yul\":7769:7772   */\n      dup3\n        /* \"#utility.yul\":7765:7779   */\n      add\n        /* \"#utility.yul\":7750:7779   */\n      swap1\n      pop\n        /* \"#utility.yul\":7626:7785   */\n      swap3\n      swap2\n      pop\n      pop\n      jump\t// out\n        /* \"#utility.yul\":7791:7887   */\n    tag_88:\n        /* \"#utility.yul\":7828:7835   */\n      0x00\n        /* \"#utility.yul\":7857:7881   */\n      tag_146\n        /* \"#utility.yul\":7875:7880   */\n      dup3\n        /* \"#utility.yul\":7857:7881   */\n      tag_147\n      jump\t// in\n    tag_146:\n        /* \"#utility.yul\":7846:7881   */\n      swap1\n      pop\n        /* \"#utility.yul\":7791:7887   */\n      swap2\n      swap1\n      pop\n      jump\t// out\n        /* \"#utility.yul\":7893:8019   */\n    tag_147:\n        /* \"#utility.yul\":7930:7937   */\n      0x00\n        /* \"#utility.yul\":7970:8012   */\n      0xffffffffffffffffffffffffffffffffffffffff\n        /* \"#utility.yul\":7963:7968   */\n      dup3\n        /* \"#utility.yul\":7959:8013   */\n      and\n        /* \"#utility.yul\":7948:8013   */\n      swap1\n      pop\n        /* \"#utility.yul\":7893:8019   */\n      swap2\n      swap1\n      pop\n      jump\t// out\n        /* \"#utility.yul\":8025:8102   */\n    tag_125:\n        /* \"#utility.yul\":8062:8069   */\n      0x00\n        /* \"#utility.yul\":8091:8096   */\n      dup2\n        /* \"#utility.yul\":8080:8096   */\n      swap1\n      pop\n        /* \"#utility.yul\":8025:8102   */\n      swap2\n      swap1\n      pop\n      jump\t// out\n        /* \"#utility.yul\":8108:8262   */\n    tag_56:\n        /* \"#utility.yul\":8192:8198   */\n      dup3\n        /* \"#utility.yul\":8187:8190   */\n      dup2\n        /* \"#utility.yul\":8182:8185   */\n      dup4\n        /* \"#utility.yul\":8169:8199   */\n      calldatacopy\n        /* \"#utility.yul\":8254:8255   */\n      0x00\n        /* \"#utility.yul\":8245:8251   */\n      dup4\n        /* \"#utility.yul\":8240:8243   */\n      dup4\n        /* \"#utility.yul\":8236:8252   */\n      add\n        /* \"#utility.yul\":8229:8256   */\n      mstore\n        /* \"#utility.yul\":8108:8262   */\n      pop\n      pop\n      pop\n      jump\t// out\n        /* \"#utility.yul\":8268:8575   */\n    tag_110:\n        /* \"#utility.yul\":8336:8337   */\n      0x00\n        /* \"#utility.yul\":8346:8459   */\n    tag_152:\n        /* \"#utility.yul\":8360:8366   */\n      dup4\n        /* \"#utility.yul\":8357:8358   */\n      dup2\n        /* \"#utility.yul\":8354:8367   */\n      lt\n        /* \"#utility.yul\":8346:8459   */\n      iszero\n      tag_154\n      jumpi\n        /* \"#utility.yul\":8445:8446   */\n      dup1\n        /* \"#utility.yul\":8440:8443   */\n      dup3\n        /* \"#utility.yul\":8436:8447   */\n      add\n        /* \"#utility.yul\":8430:8448   */\n      mload\n        /* \"#utility.yul\":8426:8427   */\n      dup2\n        /* \"#utility.yul\":8421:8424   */\n      dup5\n        /* \"#utility.yul\":8417:8428   */\n      add\n        /* \"#utility.yul\":8410:8449   */\n      mstore\n        /* \"#utility.yul\":8382:8384   */\n      0x20\n        /* \"#utility.yul\":8379:8380   */\n      dup2\n        /* \"#utility.yul\":8375:8385   */\n      add\n        /* \"#utility.yul\":8370:8385   */\n      swap1\n      pop\n        /* \"#utility.yul\":8346:8459   */\n      jump(tag_152)\n    tag_154:\n        /* \"#utility.yul\":8477:8483   */\n      dup4\n        /* \"#utility.yul\":8474:8475   */\n      dup2\n        /* \"#utility.yul\":8471:8484   */\n      gt\n        /* \"#utility.yul\":8468:8569   */\n      iszero\n      tag_155\n      jumpi\n        /* \"#utility.yul\":8557:8558   */\n      0x00\n        /* \"#utility.yul\":8548:8554   */\n      dup5\n        /* \"#utility.yul\":8543:8546   */\n      dup5\n        /* \"#utility.yul\":8539:8555   */\n      add\n        /* \"#utility.yul\":8532:8559   */\n      mstore\n        /* \"#utility.yul\":8468:8569   */\n    tag_155:\n        /* \"#utility.yul\":8317:8575   */\n      pop\n        /* \"#utility.yul\":8268:8575   */\n      pop\n      pop\n      pop\n      jump\t// out\n        /* \"#utility.yul\":8581:8901   */\n    tag_25:\n        /* \"#utility.yul\":8625:8631   */\n      0x00\n        /* \"#utility.yul\":8662:8663   */\n      0x02\n        /* \"#utility.yul\":8656:8660   */\n      dup3\n        /* \"#utility.yul\":8652:8664   */\n      div\n        /* \"#utility.yul\":8642:8664   */\n      swap1\n      pop\n        /* \"#utility.yul\":8709:8710   */\n      0x01\n        /* \"#utility.yul\":8703:8707   */\n      dup3\n        /* \"#utility.yul\":8699:8711   */\n      and\n        /* \"#utility.yul\":8730:8748   */\n      dup1\n        /* \"#utility.yul\":8720:8801   */\n      tag_157\n      jumpi\n        /* \"#utility.yul\":8786:8790   */\n      0x7f\n        /* \"#utility.yul\":8778:8784   */\n      dup3\n        /* \"#utility.yul\":8774:8791   */\n      and\n        /* \"#utility.yul\":8764:8791   */\n      swap2\n      pop\n        /* \"#utility.yul\":8720:8801   */\n    tag_157:\n        /* \"#utility.yul\":8848:8850   */\n      0x20\n        /* \"#utility.yul\":8840:8846   */\n      dup3\n        /* \"#utility.yul\":8837:8851   */\n      lt\n        /* \"#utility.yul\":8817:8835   */\n      dup2\n        /* \"#utility.yul\":8814:8852   */\n      eq\n        /* \"#utility.yul\":8811:8895   */\n      iszero\n      tag_158\n      jumpi\n        /* \"#utility.yul\":8867:8885   */\n      tag_159\n      tag_160\n      jump\t// in\n    tag_159:\n        /* \"#utility.yul\":8811:8895   */\n    tag_158:\n        /* \"#utility.yul\":8632:8901   */\n      pop\n        /* \"#utility.yul\":8581:8901   */\n      swap2\n      swap1\n      pop\n      jump\t// out\n        /* \"#utility.yul\":8907:9188   */\n    tag_132:\n        /* \"#utility.yul\":8990:9017   */\n      tag_162\n        /* \"#utility.yul\":9012:9016   */\n      dup3\n        /* \"#utility.yul\":8990:9017   */\n      tag_112\n      jump\t// in\n    tag_162:\n        /* \"#utility.yul\":8982:8988   */\n      dup2\n        /* \"#utility.yul\":8978:9018   */\n      add\n        /* \"#utility.yul\":9120:9126   */\n      dup2\n        /* \"#utility.yul\":9108:9118   */\n      dup2\n        /* \"#utility.yul\":9105:9127   */\n      lt\n        /* \"#utility.yul\":9084:9102   */\n      0xffffffffffffffff\n        /* \"#utility.yul\":9072:9082   */\n      dup3\n        /* \"#utility.yul\":9069:9103   */\n      gt\n        /* \"#utility.yul\":9066:9128   */\n      or\n        /* \"#utility.yul\":9063:9151   */\n      iszero\n      tag_163\n      jumpi\n        /* \"#utility.yul\":9131:9149   */\n      tag_164\n      tag_137\n      jump\t// in\n    tag_164:\n        /* \"#utility.yul\":9063:9151   */\n    tag_163:\n        /* \"#utility.yul\":9171:9181   */\n      dup1\n        /* \"#utility.yul\":9167:9169   */\n      0x40\n        /* \"#utility.yul\":9160:9182   */\n      mstore\n        /* \"#utility.yul\":8950:9188   */\n      pop\n        /* \"#utility.yul\":8907:9188   */\n      pop\n      pop\n      jump\t// out\n        /* \"#utility.yul\":9194:9427   */\n    tag_15:\n        /* \"#utility.yul\":9233:9236   */\n      0x00\n        /* \"#utility.yul\":9256:9280   */\n      tag_166\n        /* \"#utility.yul\":9274:9279   */\n      dup3\n        /* \"#utility.yul\":9256:9280   */\n      tag_125\n      jump\t// in\n    tag_166:\n        /* \"#utility.yul\":9247:9280   */\n      swap2\n      pop\n        /* \"#utility.yul\":9302:9368   */\n      0xffffffffffffffffffffffffffffffffffffffffffffffffffffffffffffffff\n        /* \"#utility.yul\":9295:9300   */\n      dup3\n        /* \"#utility.yul\":9292:9369   */\n      eq\n        /* \"#utility.yul\":9289:9392   */\n      iszero\n      tag_167\n      jumpi\n        /* \"#utility.yul\":9372:9390   */\n      tag_168\n      tag_169\n      jump\t// in\n    tag_168:\n        /* \"#utility.yul\":9289:9392   */\n    tag_167:\n        /* \"#utility.yul\":9419:9420   */\n      0x01\n        /* \"#utility.yul\":9412:9417   */\n      dup3\n        /* \"#utility.yul\":9408:9421   */\n      add\n        /* \"#utility.yul\":9401:9421   */\n      swap1\n      pop\n        /* \"#utility.yul\":9194:9427   */\n      swap2\n      swap1\n      pop\n      jump\t// out\n        /* \"#utility.yul\":9433:9613   */\n    tag_169:\n        /* \"#utility.yul\":9481:9558   */\n      0x4e487b7100000000000000000000000000000000000000000000000000000000\n        /* \"#utility.yul\":9478:9479   */\n      0x00\n        /* \"#utility.yul\":9471:9559   */\n      mstore\n        /* \"#utility.yul\":9578:9582   */\n      0x11\n        /* \"#utility.yul\":9575:9576   */\n      0x04\n        /* \"#utility.yul\":9568:9583   */\n      mstore\n        /* \"#utility.yul\":9602:9606   */\n      0x24\n        /* \"#utility.yul\":9599:9600   */\n      0x00\n        /* \"#utility.yul\":9592:9607   */\n      revert\n        /* \"#utility.yul\":9619:9799   */\n    tag_160:\n        /* \"#utility.yul\":9667:9744   */\n      0x4e487b7100000000000000000000000000000000000000000000000000000000\n        /* \"#utility.yul\":9664:9665   */\n      0x00\n        /* \"#utility.yul\":9657:9745   */\n      mstore\n        /* \"#utility.yul\":9764:9768   */\n      0x22\n        /* \"#utility.yul\":9761:9762   */\n      0x04\n        /* \"#utility.yul\":9754:9769   */\n      mstore\n        /* \"#utility.yul\":9788:9792   */\n      0x24\n        /* \"#utility.yul\":9785:9786   */\n      0x00\n        /* \"#utility.yul\":9778:9793   */\n      revert\n        /* \"#utility.yul\":9805:9985   */\n    tag_137:\n        /* \"#utility.yul\":9853:9930   */\n      0x4e487b7100000000000000000000000000000000000000000000000000000000\n        /* \"#utility.yul\":9850:9851   */\n      0x00\n        /* \"#utility.yul\":9843:9931   */\n      mstore\n        /* \"#utility.yul\":9950:9954   */\n      0x41\n        /* \"#utility.yul\":9947:9948   */\n      0x04\n        /* \"#utility.yul\":9940:9955   */\n      mstore\n        /* \"#utility.yul\":9974:9978   */\n      0x24\n        /* \"#utility.yul\":9971:9972   */\n      0x00\n        /* \"#utility.yul\":9964:9979   */\n      revert\n        /* \"#utility.yul\":9991:10108   */\n    tag_65:\n        /* \"#utility.yul\":10100:10101   */\n      0x00\n        /* \"#utility.yul\":10097:10098   */\n      dup1\n        /* \"#utility.yul\":10090:10102   */\n      revert\n        /* \"#utility.yul\":10114:10231   */\n    tag_54:\n        /* \"#utility.yul\":10223:10224   */\n      0x00\n        /* \"#utility.yul\":10220:10221   */\n      dup1\n        /* \"#utility.yul\":10213:10225   */\n      revert\n        /* \"#utility.yul\":10237:10354   */\n    tag_79:\n        /* \"#utility.yul\":10346:10347   */\n      0x00\n        /* \"#utility.yul\":10343:10344   */\n      dup1\n        /* \"#utility.yul\":10336:10348   */\n      revert\n        /* \"#utility.yul\":10360:10477   */\n    tag_74:\n        /* \"#utility.yul\":10469:10470   */\n      0x00\n        /* \"#utility.yul\":10466:10467   */\n      dup1\n        /* \"#utility.yul\":10459:10471   */\n      revert\n        /* \"#utility.yul\":10483:10585   */\n    tag_112:\n        /* \"#utility.yul\":10524:10530   */\n      0x00\n        /* \"#utility.yul\":10575:10577   */\n      0x1f\n        /* \"#utility.yul\":10571:10578   */\n      not\n        /* \"#utility.yul\":10566:10568   */\n      0x1f\n        /* \"#utility.yul\":10559:10564   */\n      dup4\n        /* \"#utility.yul\":10555:10569   */\n      add\n        /* \"#utility.yul\":10551:10579   */\n      and\n        /* \"#utility.yul\":10541:10579   */\n      swap1\n      pop\n        /* \"#utility.yul\":10483:10585   */\n      swap2\n      swap1\n      pop\n      jump\t// out\n        /* \"#utility.yul\":10591:10713   */\n    tag_60:\n        /* \"#utility.yul\":10664:10688   */\n      tag_179\n        /* \"#utility.yul\":10682:10687   */\n      dup2\n        /* \"#utility.yul\":10664:10688   */\n      tag_88\n      jump\t// in\n    tag_179:\n        /* \"#utility.yul\":10657:10662   */\n      dup2\n        /* \"#utility.yul\":10654:10689   */\n      eq\n        /* \"#utility.yul\":10644:10707   */\n      tag_180\n      jumpi\n        /* \"#utility.yul\":10703:10704   */\n      0x00\n        /* \"#utility.yul\":10700:10701   */\n      dup1\n        /* \"#utility.yul\":10693:10705   */\n      revert\n        /* \"#utility.yul\":10644:10707   */\n    tag_180:\n        /* \"#utility.yul\":10591:10713   */\n      pop\n      jump\t// out\n        /* \"#utility.yul\":10719:10841   */\n    tag_70:\n        /* \"#utility.yul\":10792:10816   */\n      tag_182\n        /* \"#utility.yul\":10810:10815   */\n      dup2\n        /* \"#utility.yul\":10792:10816   */\n      tag_125\n      jump\t// in\n    tag_182:\n        /* \"#utility.yul\":10785:10790   */\n      dup2\n        /* \"#utility.yul\":10782:10817   */\n      eq\n        /* \"#utility.yul\":10772:10835   */\n      tag_183\n      jumpi\n        /* \"#utility.yul\":10831:10832   */\n      0x00\n        /* \"#utility.yul\":10828:10829   */\n      dup1\n        /* \"#utility.yul\":10821:10833   */\n      revert\n        /* \"#utility.yul\":10772:10835   */\n    tag_183:\n        /* \"#utility.yul\":10719:10841   */\n      pop\n      jump\t// out\n\n    auxdata: 0xa2646970667358221220fa674241862f362748d242a8eae9f7fa744402ceb298e68fe8756e596019569b64736f6c63430008070033\n}\n",
				"bytecode": {
					"linkReferences": {},
					"object": "608060405234801561001057600080fd5b50610af5806100206000396000f3fe608060405234801561001057600080fd5b50600436106100365760003560e01c80634ed2f7ee1461003b5780639a417d2214610057575b600080fd5b610055600480360381019061005091906105e2565b610075565b005b61005f61024d565b60405161006c91906107e8565b60405180910390f35b60008081548092919061008790610996565b919050555060016040518061010001604052806000548152602001600081526020013373ffffffffffffffffffffffffffffffffffffffff1681526020018573ffffffffffffffffffffffffffffffffffffffff168152602001600081526020018481526020018381526020016040518060400160405280600181526020017f30000000000000000000000000000000000000000000000000000000000000008152508152509080600181540180825580915050600190039060005260206000209060080201600090919091909150600082015181600001556020820151816001015560408201518160020160006101000a81548173ffffffffffffffffffffffffffffffffffffffff021916908373ffffffffffffffffffffffffffffffffffffffff16021790555060608201518160030160006101000a81548173ffffffffffffffffffffffffffffffffffffffff021916908373ffffffffffffffffffffffffffffffffffffffff1602179055506080820151816004015560a0820151816005015560c08201518160060190805190602001906102289291906104a5565b5060e08201518160070190805190602001906102459291906104a5565b505050505050565b60606001805480602002602001604051908101604052809291908181526020016000905b8282101561049c57838290600052602060002090600802016040518061010001604052908160008201548152602001600182015481526020016002820160009054906101000a900473ffffffffffffffffffffffffffffffffffffffff1673ffffffffffffffffffffffffffffffffffffffff1673ffffffffffffffffffffffffffffffffffffffff1681526020016003820160009054906101000a900473ffffffffffffffffffffffffffffffffffffffff1673ffffffffffffffffffffffffffffffffffffffff1673ffffffffffffffffffffffffffffffffffffffff168152602001600482015481526020016005820154815260200160068201805461037990610933565b80601f01602080910402602001604051908101604052809291908181526020018280546103a590610933565b80156103f25780601f106103c7576101008083540402835291602001916103f2565b820191906000526020600020905b8154815290600101906020018083116103d557829003601f168201915b5050505050815260200160078201805461040b90610933565b80601f016020809104026020016040519081016040528092919081815260200182805461043790610933565b80156104845780601f1061045957610100808354040283529160200191610484565b820191906000526020600020905b81548152906001019060200180831161046757829003601f168201915b50505050508152505081526020019060010190610271565b50505050905090565b8280546104b190610933565b90600052602060002090601f0160209004810192826104d3576000855561051a565b82601f106104ec57805160ff191683800117855561051a565b8280016001018555821561051a579182015b828111156105195782518255916020019190600101906104fe565b5b509050610527919061052b565b5090565b5b8082111561054457600081600090555060010161052c565b5090565b600061055b6105568461082f565b61080a565b90508281526020810184848401111561057757610576610a71565b5b6105828482856108f1565b509392505050565b60008135905061059981610a91565b92915050565b600082601f8301126105b4576105b3610a6c565b5b81356105c4848260208601610548565b91505092915050565b6000813590506105dc81610aa8565b92915050565b6000806000606084860312156105fb576105fa610a7b565b5b60006106098682870161058a565b935050602061061a868287016105cd565b925050604084013567ffffffffffffffff81111561063b5761063a610a76565b5b6106478682870161059f565b9150509250925092565b600061065d8383610722565b905092915050565b61066e816108b5565b82525050565b600061067f82610870565b6106898185610893565b93508360208202850161069b85610860565b8060005b858110156106d757848403895281516106b88582610651565b94506106c383610886565b925060208a0199505060018101905061069f565b50829750879550505050505092915050565b60006106f48261087b565b6106fe81856108a4565b935061070e818560208601610900565b61071781610a80565b840191505092915050565b60006101008301600083015161073b60008601826107d9565b50602083015161074e60208601826107d9565b5060408301516107616040860182610665565b5060608301516107746060860182610665565b50608083015161078760808601826107d9565b5060a083015161079a60a08601826107d9565b5060c083015184820360c08601526107b282826106e9565b91505060e083015184820360e08601526107cc82826106e9565b9150508091505092915050565b6107e2816108e7565b82525050565b600060208201905081810360008301526108028184610674565b905092915050565b6000610814610825565b90506108208282610965565b919050565b6000604051905090565b600067ffffffffffffffff82111561084a57610849610a3d565b5b61085382610a80565b9050602081019050919050565b6000819050602082019050919050565b600081519050919050565b600081519050919050565b6000602082019050919050565b600082825260208201905092915050565b600082825260208201905092915050565b60006108c0826108c7565b9050919050565b600073ffffffffffffffffffffffffffffffffffffffff82169050919050565b6000819050919050565b82818337600083830152505050565b60005b8381101561091e578082015181840152602081019050610903565b8381111561092d576000848401525b50505050565b6000600282049050600182168061094b57607f821691505b6020821081141561095f5761095e610a0e565b5b50919050565b61096e82610a80565b810181811067ffffffffffffffff8211171561098d5761098c610a3d565b5b80604052505050565b60006109a1826108e7565b91507fffffffffffffffffffffffffffffffffffffffffffffffffffffffffffffffff8214156109d4576109d36109df565b5b600182019050919050565b7f4e487b7100000000000000000000000000000000000000000000000000000000600052601160045260246000fd5b7f4e487b7100000000000000000000000000000000000000000000000000000000600052602260045260246000fd5b7f4e487b7100000000000000000000000000000000000000000000000000000000600052604160045260246000fd5b600080fd5b600080fd5b600080fd5b600080fd5b6000601f19601f8301169050919050565b610a9a816108b5565b8114610aa557600080fd5b50565b610ab1816108e7565b8114610abc57600080fd5b5056fea2646970667358221220fa674241862f362748d242a8eae9f7fa744402ceb298e68fe8756e596019569b64736f6c63430008070033",
					"opcodes": "PUSH1 0x80 PUSH1 0x40 MSTORE CALLVALUE DUP1 ISZERO PUSH2 0x10 JUMPI PUSH1 0x0 DUP1 REVERT JUMPDEST POP PUSH2 0xAF5 DUP1 PUSH2 0x20 PUSH1 0x0 CODECOPY PUSH1 0x0 RETURN INVALID PUSH1 0x80 PUSH1 0x40 MSTORE CALLVALUE DUP1 ISZERO PUSH2 0x10 JUMPI PUSH1 0x0 DUP1 REVERT JUMPDEST POP PUSH1 0x4 CALLDATASIZE LT PUSH2 0x36 JUMPI PUSH1 0x0 CALLDATALOAD PUSH1 0xE0 SHR DUP1 PUSH4 0x4ED2F7EE EQ PUSH2 0x3B JUMPI DUP1 PUSH4 0x9A417D22 EQ PUSH2 0x57 JUMPI JUMPDEST PUSH1 0x0 DUP1 REVERT JUMPDEST PUSH2 0x55 PUSH1 0x4 DUP1 CALLDATASIZE SUB DUP2 ADD SWAP1 PUSH2 0x50 SWAP2 SWAP1 PUSH2 0x5E2 JUMP JUMPDEST PUSH2 0x75 JUMP JUMPDEST STOP JUMPDEST PUSH2 0x5F PUSH2 0x24D JUMP JUMPDEST PUSH1 0x40 MLOAD PUSH2 0x6C SWAP2 SWAP1 PUSH2 0x7E8 JUMP JUMPDEST PUSH1 0x40 MLOAD DUP1 SWAP2 SUB SWAP1 RETURN JUMPDEST PUSH1 0x0 DUP1 DUP2 SLOAD DUP1 SWAP3 SWAP2 SWAP1 PUSH2 0x87 SWAP1 PUSH2 0x996 JUMP JUMPDEST SWAP2 SWAP1 POP SSTORE POP PUSH1 0x1 PUSH1 0x40 MLOAD DUP1 PUSH2 0x100 ADD PUSH1 0x40 MSTORE DUP1 PUSH1 0x0 SLOAD DUP2 MSTORE PUSH1 0x20 ADD PUSH1 0x0 DUP2 MSTORE PUSH1 0x20 ADD CALLER PUSH20 0xFFFFFFFFFFFFFFFFFFFFFFFFFFFFFFFFFFFFFFFF AND DUP2 MSTORE PUSH1 0x20 ADD DUP6 PUSH20 0xFFFFFFFFFFFFFFFFFFFFFFFFFFFFFFFFFFFFFFFF AND DUP2 MSTORE PUSH1 0x20 ADD PUSH1 0x0 DUP2 MSTORE PUSH1 0x20 ADD DUP5 DUP2 MSTORE PUSH1 0x20 ADD DUP4 DUP2 MSTORE PUSH1 0x20 ADD PUSH1 0x40 MLOAD DUP1 PUSH1 0x40 ADD PUSH1 0x40 MSTORE DUP1 PUSH1 0x1 DUP2 MSTORE PUSH1 0x20 ADD PUSH32 0x3000000000000000000000000000000000000000000000000000000000000000 DUP2 MSTORE POP DUP2 MSTORE POP SWAP1 DUP1 PUSH1 0x1 DUP2 SLOAD ADD DUP1 DUP3 SSTORE DUP1 SWAP2 POP POP PUSH1 0x1 SWAP1 SUB SWAP1 PUSH1 0x0 MSTORE PUSH1 0x20 PUSH1 0x0 KECCAK256 SWAP1 PUSH1 0x8 MUL ADD PUSH1 0x0 SWAP1 SWAP2 SWAP1 SWAP2 SWAP1 SWAP2 POP PUSH1 0x0 DUP3 ADD MLOAD DUP2 PUSH1 0x0 ADD SSTORE PUSH1 0x20 DUP3 ADD MLOAD DUP2 PUSH1 0x1 ADD SSTORE PUSH1 0x40 DUP3 ADD MLOAD DUP2 PUSH1 0x2 ADD PUSH1 0x0 PUSH2 0x100 EXP DUP2 SLOAD DUP2 PUSH20 0xFFFFFFFFFFFFFFFFFFFFFFFFFFFFFFFFFFFFFFFF MUL NOT AND SWAP1 DUP4 PUSH20 0xFFFFFFFFFFFFFFFFFFFFFFFFFFFFFFFFFFFFFFFF AND MUL OR SWAP1 SSTORE POP PUSH1 0x60 DUP3 ADD MLOAD DUP2 PUSH1 0x3 ADD PUSH1 0x0 PUSH2 0x100 EXP DUP2 SLOAD DUP2 PUSH20 0xFFFFFFFFFFFFFFFFFFFFFFFFFFFFFFFFFFFFFFFF MUL NOT AND SWAP1 DUP4 PUSH20 0xFFFFFFFFFFFFFFFFFFFFFFFFFFFFFFFFFFFFFFFF AND MUL OR SWAP1 SSTORE POP PUSH1 0x80 DUP3 ADD MLOAD DUP2 PUSH1 0x4 ADD SSTORE PUSH1 0xA0 DUP3 ADD MLOAD DUP2 PUSH1 0x5 ADD SSTORE PUSH1 0xC0 DUP3 ADD MLOAD DUP2 PUSH1 0x6 ADD SWAP1 DUP1 MLOAD SWAP1 PUSH1 0x20 ADD SWAP1 PUSH2 0x228 SWAP3 SWAP2 SWAP1 PUSH2 0x4A5 JUMP JUMPDEST POP PUSH1 0xE0 DUP3 ADD MLOAD DUP2 PUSH1 0x7 ADD SWAP1 DUP1 MLOAD SWAP1 PUSH1 0x20 ADD SWAP1 PUSH2 0x245 SWAP3 SWAP2 SWAP1 PUSH2 0x4A5 JUMP JUMPDEST POP POP POP POP POP POP JUMP JUMPDEST PUSH1 0x60 PUSH1 0x1 DUP1 SLOAD DUP1 PUSH1 0x20 MUL PUSH1 0x20 ADD PUSH1 0x40 MLOAD SWAP1 DUP2 ADD PUSH1 0x40 MSTORE DUP1 SWAP3 SWAP2 SWAP1 DUP2 DUP2 MSTORE PUSH1 0x20 ADD PUSH1 0x0 SWAP1 JUMPDEST DUP3 DUP3 LT ISZERO PUSH2 0x49C JUMPI DUP4 DUP3 SWAP1 PUSH1 0x0 MSTORE PUSH1 0x20 PUSH1 0x0 KECCAK256 SWAP1 PUSH1 0x8 MUL ADD PUSH1 0x40 MLOAD DUP1 PUSH2 0x100 ADD PUSH1 0x40 MSTORE SWAP1 DUP2 PUSH1 0x0 DUP3 ADD SLOAD DUP2 MSTORE PUSH1 0x20 ADD PUSH1 0x1 DUP3 ADD SLOAD DUP2 MSTORE PUSH1 0x20 ADD PUSH1 0x2 DUP3 ADD PUSH1 0x0 SWAP1 SLOAD SWAP1 PUSH2 0x100 EXP SWAP1 DIV PUSH20 0xFFFFFFFFFFFFFFFFFFFFFFFFFFFFFFFFFFFFFFFF AND PUSH20 0xFFFFFFFFFFFFFFFFFFFFFFFFFFFFFFFFFFFFFFFF AND PUSH20 0xFFFFFFFFFFFFFFFFFFFFFFFFFFFFFFFFFFFFFFFF AND DUP2 MSTORE PUSH1 0x20 ADD PUSH1 0x3 DUP3 ADD PUSH1 0x0 SWAP1 SLOAD SWAP1 PUSH2 0x100 EXP SWAP1 DIV PUSH20 0xFFFFFFFFFFFFFFFFFFFFFFFFFFFFFFFFFFFFFFFF AND PUSH20 0xFFFFFFFFFFFFFFFFFFFFFFFFFFFFFFFFFFFFFFFF AND PUSH20 0xFFFFFFFFFFFFFFFFFFFFFFFFFFFFFFFFFFFFFFFF AND DUP2 MSTORE PUSH1 0x20 ADD PUSH1 0x4 DUP3 ADD SLOAD DUP2 MSTORE PUSH1 0x20 ADD PUSH1 0x5 DUP3 ADD SLOAD DUP2 MSTORE PUSH1 0x20 ADD PUSH1 0x6 DUP3 ADD DUP1 SLOAD PUSH2 0x379 SWAP1 PUSH2 0x933 JUMP JUMPDEST DUP1 PUSH1 0x1F ADD PUSH1 0x20 DUP1 SWAP2 DIV MUL PUSH1 0x20 ADD PUSH1 0x40 MLOAD SWAP1 DUP2 ADD PUSH1 0x40 MSTORE DUP1 SWAP3 SWAP2 SWAP1 DUP2 DUP2 MSTORE PUSH1 0x20 ADD DUP3 DUP1 SLOAD PUSH2 0x3A5 SWAP1 PUSH2 0x933 JUMP JUMPDEST DUP1 ISZERO PUSH2 0x3F2 JUMPI DUP1 PUSH1 0x1F LT PUSH2 0x3C7 JUMPI PUSH2 0x100 DUP1 DUP4 SLOAD DIV MUL DUP4 MSTORE SWAP2 PUSH1 0x20 ADD SWAP2 PUSH2 0x3F2 JUMP JUMPDEST DUP3 ADD SWAP2 SWAP1 PUSH1 0x0 MSTORE PUSH1 0x20 PUSH1 0x0 KECCAK256 SWAP1 JUMPDEST DUP2 SLOAD DUP2 MSTORE SWAP1 PUSH1 0x1 ADD SWAP1 PUSH1 0x20 ADD DUP1 DUP4 GT PUSH2 0x3D5 JUMPI DUP3 SWAP1 SUB PUSH1 0x1F AND DUP3 ADD SWAP2 JUMPDEST POP POP POP POP POP DUP2 MSTORE PUSH1 0x20 ADD PUSH1 0x7 DUP3 ADD DUP1 SLOAD PUSH2 0x40B SWAP1 PUSH2 0x933 JUMP JUMPDEST DUP1 PUSH1 0x1F ADD PUSH1 0x20 DUP1 SWAP2 DIV MUL PUSH1 0x20 ADD PUSH1 0x40 MLOAD SWAP1 DUP2 ADD PUSH1 0x40 MSTORE DUP1 SWAP3 SWAP2 SWAP1 DUP2 DUP2 MSTORE PUSH1 0x20 ADD DUP3 DUP1 SLOAD PUSH2 0x437 SWAP1 PUSH2 0x933 JUMP JUMPDEST DUP1 ISZERO PUSH2 0x484 JUMPI DUP1 PUSH1 0x1F LT PUSH2 0x459 JUMPI PUSH2 0x100 DUP1 DUP4 SLOAD DIV MUL DUP4 MSTORE SWAP2 PUSH1 0x20 ADD SWAP2 PUSH2 0x484 JUMP JUMPDEST DUP3 ADD SWAP2 SWAP1 PUSH1 0x0 MSTORE PUSH1 0x20 PUSH1 0x0 KECCAK256 SWAP1 JUMPDEST DUP2 SLOAD DUP2 MSTORE SWAP1 PUSH1 0x1 ADD SWAP1 PUSH1 0x20 ADD DUP1 DUP4 GT PUSH2 0x467 JUMPI DUP3 SWAP1 SUB PUSH1 0x1F AND DUP3 ADD SWAP2 JUMPDEST POP POP POP POP POP DUP2 MSTORE POP POP DUP2 MSTORE PUSH1 0x20 ADD SWAP1 PUSH1 0x1 ADD SWAP1 PUSH2 0x271 JUMP JUMPDEST POP POP POP POP SWAP1 POP SWAP1 JUMP JUMPDEST DUP3 DUP1 SLOAD PUSH2 0x4B1 SWAP1 PUSH2 0x933 JUMP JUMPDEST SWAP1 PUSH1 0x0 MSTORE PUSH1 0x20 PUSH1 0x0 KECCAK256 SWAP1 PUSH1 0x1F ADD PUSH1 0x20 SWAP1 DIV DUP2 ADD SWAP3 DUP3 PUSH2 0x4D3 JUMPI PUSH1 0x0 DUP6 SSTORE PUSH2 0x51A JUMP JUMPDEST DUP3 PUSH1 0x1F LT PUSH2 0x4EC JUMPI DUP1 MLOAD PUSH1 0xFF NOT AND DUP4 DUP1 ADD OR DUP6 SSTORE PUSH2 0x51A JUMP JUMPDEST DUP3 DUP1 ADD PUSH1 0x1 ADD DUP6 SSTORE DUP3 ISZERO PUSH2 0x51A JUMPI SWAP2 DUP3 ADD JUMPDEST DUP3 DUP2 GT ISZERO PUSH2 0x519 JUMPI DUP3 MLOAD DUP3 SSTORE SWAP2 PUSH1 0x20 ADD SWAP2 SWAP1 PUSH1 0x1 ADD SWAP1 PUSH2 0x4FE JUMP JUMPDEST JUMPDEST POP SWAP1 POP PUSH2 0x527 SWAP2 SWAP1 PUSH2 0x52B JUMP JUMPDEST POP SWAP1 JUMP JUMPDEST JUMPDEST DUP1 DUP3 GT ISZERO PUSH2 0x544 JUMPI PUSH1 0x0 DUP2 PUSH1 0x0 SWAP1 SSTORE POP PUSH1 0x1 ADD PUSH2 0x52C JUMP JUMPDEST POP SWAP1 JUMP JUMPDEST PUSH1 0x0 PUSH2 0x55B PUSH2 0x556 DUP5 PUSH2 0x82F JUMP JUMPDEST PUSH2 0x80A JUMP JUMPDEST SWAP1 POP DUP3 DUP2 MSTORE PUSH1 0x20 DUP2 ADD DUP5 DUP5 DUP5 ADD GT ISZERO PUSH2 0x577 JUMPI PUSH2 0x576 PUSH2 0xA71 JUMP JUMPDEST JUMPDEST PUSH2 0x582 DUP5 DUP3 DUP6 PUSH2 0x8F1 JUMP JUMPDEST POP SWAP4 SWAP3 POP POP POP JUMP JUMPDEST PUSH1 0x0 DUP2 CALLDATALOAD SWAP1 POP PUSH2 0x599 DUP2 PUSH2 0xA91 JUMP JUMPDEST SWAP3 SWAP2 POP POP JUMP JUMPDEST PUSH1 0x0 DUP3 PUSH1 0x1F DUP4 ADD SLT PUSH2 0x5B4 JUMPI PUSH2 0x5B3 PUSH2 0xA6C JUMP JUMPDEST JUMPDEST DUP2 CALLDATALOAD PUSH2 0x5C4 DUP5 DUP3 PUSH1 0x20 DUP7 ADD PUSH2 0x548 JUMP JUMPDEST SWAP2 POP POP SWAP3 SWAP2 POP POP JUMP JUMPDEST PUSH1 0x0 DUP2 CALLDATALOAD SWAP1 POP PUSH2 0x5DC DUP2 PUSH2 0xAA8 JUMP JUMPDEST SWAP3 SWAP2 POP POP JUMP JUMPDEST PUSH1 0x0 DUP1 PUSH1 0x0 PUSH1 0x60 DUP5 DUP7 SUB SLT ISZERO PUSH2 0x5FB JUMPI PUSH2 0x5FA PUSH2 0xA7B JUMP JUMPDEST JUMPDEST PUSH1 0x0 PUSH2 0x609 DUP7 DUP3 DUP8 ADD PUSH2 0x58A JUMP JUMPDEST SWAP4 POP POP PUSH1 0x20 PUSH2 0x61A DUP7 DUP3 DUP8 ADD PUSH2 0x5CD JUMP JUMPDEST SWAP3 POP POP PUSH1 0x40 DUP5 ADD CALLDATALOAD PUSH8 0xFFFFFFFFFFFFFFFF DUP2 GT ISZERO PUSH2 0x63B JUMPI PUSH2 0x63A PUSH2 0xA76 JUMP JUMPDEST JUMPDEST PUSH2 0x647 DUP7 DUP3 DUP8 ADD PUSH2 0x59F JUMP JUMPDEST SWAP2 POP POP SWAP3 POP SWAP3 POP SWAP3 JUMP JUMPDEST PUSH1 0x0 PUSH2 0x65D DUP4 DUP4 PUSH2 0x722 JUMP JUMPDEST SWAP1 POP SWAP3 SWAP2 POP POP JUMP JUMPDEST PUSH2 0x66E DUP2 PUSH2 0x8B5 JUMP JUMPDEST DUP3 MSTORE POP POP JUMP JUMPDEST PUSH1 0x0 PUSH2 0x67F DUP3 PUSH2 0x870 JUMP JUMPDEST PUSH2 0x689 DUP2 DUP6 PUSH2 0x893 JUMP JUMPDEST SWAP4 POP DUP4 PUSH1 0x20 DUP3 MUL DUP6 ADD PUSH2 0x69B DUP6 PUSH2 0x860 JUMP JUMPDEST DUP1 PUSH1 0x0 JUMPDEST DUP6 DUP2 LT ISZERO PUSH2 0x6D7 JUMPI DUP5 DUP5 SUB DUP10 MSTORE DUP2 MLOAD PUSH2 0x6B8 DUP6 DUP3 PUSH2 0x651 JUMP JUMPDEST SWAP5 POP PUSH2 0x6C3 DUP4 PUSH2 0x886 JUMP JUMPDEST SWAP3 POP PUSH1 0x20 DUP11 ADD SWAP10 POP POP PUSH1 0x1 DUP2 ADD SWAP1 POP PUSH2 0x69F JUMP JUMPDEST POP DUP3 SWAP8 POP DUP8 SWAP6 POP POP POP POP POP POP SWAP3 SWAP2 POP POP JUMP JUMPDEST PUSH1 0x0 PUSH2 0x6F4 DUP3 PUSH2 0x87B JUMP JUMPDEST PUSH2 0x6FE DUP2 DUP6 PUSH2 0x8A4 JUMP JUMPDEST SWAP4 POP PUSH2 0x70E DUP2 DUP6 PUSH1 0x20 DUP7 ADD PUSH2 0x900 JUMP JUMPDEST PUSH2 0x717 DUP2 PUSH2 0xA80 JUMP JUMPDEST DUP5 ADD SWAP2 POP POP SWAP3 SWAP2 POP POP JUMP JUMPDEST PUSH1 0x0 PUSH2 0x100 DUP4 ADD PUSH1 0x0 DUP4 ADD MLOAD PUSH2 0x73B PUSH1 0x0 DUP7 ADD DUP3 PUSH2 0x7D9 JUMP JUMPDEST POP PUSH1 0x20 DUP4 ADD MLOAD PUSH2 0x74E PUSH1 0x20 DUP7 ADD DUP3 PUSH2 0x7D9 JUMP JUMPDEST POP PUSH1 0x40 DUP4 ADD MLOAD PUSH2 0x761 PUSH1 0x40 DUP7 ADD DUP3 PUSH2 0x665 JUMP JUMPDEST POP PUSH1 0x60 DUP4 ADD MLOAD PUSH2 0x774 PUSH1 0x60 DUP7 ADD DUP3 PUSH2 0x665 JUMP JUMPDEST POP PUSH1 0x80 DUP4 ADD MLOAD PUSH2 0x787 PUSH1 0x80 DUP7 ADD DUP3 PUSH2 0x7D9 JUMP JUMPDEST POP PUSH1 0xA0 DUP4 ADD MLOAD PUSH2 0x79A PUSH1 0xA0 DUP7 ADD DUP3 PUSH2 0x7D9 JUMP JUMPDEST POP PUSH1 0xC0 DUP4 ADD MLOAD DUP5 DUP3 SUB PUSH1 0xC0 DUP7 ADD MSTORE PUSH2 0x7B2 DUP3 DUP3 PUSH2 0x6E9 JUMP JUMPDEST SWAP2 POP POP PUSH1 0xE0 DUP4 ADD MLOAD DUP5 DUP3 SUB PUSH1 0xE0 DUP7 ADD MSTORE PUSH2 0x7CC DUP3 DUP3 PUSH2 0x6E9 JUMP JUMPDEST SWAP2 POP POP DUP1 SWAP2 POP POP SWAP3 SWAP2 POP POP JUMP JUMPDEST PUSH2 0x7E2 DUP2 PUSH2 0x8E7 JUMP JUMPDEST DUP3 MSTORE POP POP JUMP JUMPDEST PUSH1 0x0 PUSH1 0x20 DUP3 ADD SWAP1 POP DUP2 DUP2 SUB PUSH1 0x0 DUP4 ADD MSTORE PUSH2 0x802 DUP2 DUP5 PUSH2 0x674 JUMP JUMPDEST SWAP1 POP SWAP3 SWAP2 POP POP JUMP JUMPDEST PUSH1 0x0 PUSH2 0x814 PUSH2 0x825 JUMP JUMPDEST SWAP1 POP PUSH2 0x820 DUP3 DUP3 PUSH2 0x965 JUMP JUMPDEST SWAP2 SWAP1 POP JUMP JUMPDEST PUSH1 0x0 PUSH1 0x40 MLOAD SWAP1 POP SWAP1 JUMP JUMPDEST PUSH1 0x0 PUSH8 0xFFFFFFFFFFFFFFFF DUP3 GT ISZERO PUSH2 0x84A JUMPI PUSH2 0x849 PUSH2 0xA3D JUMP JUMPDEST JUMPDEST PUSH2 0x853 DUP3 PUSH2 0xA80 JUMP JUMPDEST SWAP1 POP PUSH1 0x20 DUP2 ADD SWAP1 POP SWAP2 SWAP1 POP JUMP JUMPDEST PUSH1 0x0 DUP2 SWAP1 POP PUSH1 0x20 DUP3 ADD SWAP1 POP SWAP2 SWAP1 POP JUMP JUMPDEST PUSH1 0x0 DUP2 MLOAD SWAP1 POP SWAP2 SWAP1 POP JUMP JUMPDEST PUSH1 0x0 DUP2 MLOAD SWAP1 POP SWAP2 SWAP1 POP JUMP JUMPDEST PUSH1 0x0 PUSH1 0x20 DUP3 ADD SWAP1 POP SWAP2 SWAP1 POP JUMP JUMPDEST PUSH1 0x0 DUP3 DUP3 MSTORE PUSH1 0x20 DUP3 ADD SWAP1 POP SWAP3 SWAP2 POP POP JUMP JUMPDEST PUSH1 0x0 DUP3 DUP3 MSTORE PUSH1 0x20 DUP3 ADD SWAP1 POP SWAP3 SWAP2 POP POP JUMP JUMPDEST PUSH1 0x0 PUSH2 0x8C0 DUP3 PUSH2 0x8C7 JUMP JUMPDEST SWAP1 POP SWAP2 SWAP1 POP JUMP JUMPDEST PUSH1 0x0 PUSH20 0xFFFFFFFFFFFFFFFFFFFFFFFFFFFFFFFFFFFFFFFF DUP3 AND SWAP1 POP SWAP2 SWAP1 POP JUMP JUMPDEST PUSH1 0x0 DUP2 SWAP1 POP SWAP2 SWAP1 POP JUMP JUMPDEST DUP3 DUP2 DUP4 CALLDATACOPY PUSH1 0x0 DUP4 DUP4 ADD MSTORE POP POP POP JUMP JUMPDEST PUSH1 0x0 JUMPDEST DUP4 DUP2 LT ISZERO PUSH2 0x91E JUMPI DUP1 DUP3 ADD MLOAD DUP2 DUP5 ADD MSTORE PUSH1 0x20 DUP2 ADD SWAP1 POP PUSH2 0x903 JUMP JUMPDEST DUP4 DUP2 GT ISZERO PUSH2 0x92D JUMPI PUSH1 0x0 DUP5 DUP5 ADD MSTORE JUMPDEST POP POP POP POP JUMP JUMPDEST PUSH1 0x0 PUSH1 0x2 DUP3 DIV SWAP1 POP PUSH1 0x1 DUP3 AND DUP1 PUSH2 0x94B JUMPI PUSH1 0x7F DUP3 AND SWAP2 POP JUMPDEST PUSH1 0x20 DUP3 LT DUP2 EQ ISZERO PUSH2 0x95F JUMPI PUSH2 0x95E PUSH2 0xA0E JUMP JUMPDEST JUMPDEST POP SWAP2 SWAP1 POP JUMP JUMPDEST PUSH2 0x96E DUP3 PUSH2 0xA80 JUMP JUMPDEST DUP2 ADD DUP2 DUP2 LT PUSH8 0xFFFFFFFFFFFFFFFF DUP3 GT OR ISZERO PUSH2 0x98D JUMPI PUSH2 0x98C PUSH2 0xA3D JUMP JUMPDEST JUMPDEST DUP1 PUSH1 0x40 MSTORE POP POP POP JUMP JUMPDEST PUSH1 0x0 PUSH2 0x9A1 DUP3 PUSH2 0x8E7 JUMP JUMPDEST SWAP2 POP PUSH32 0xFFFFFFFFFFFFFFFFFFFFFFFFFFFFFFFFFFFFFFFFFFFFFFFFFFFFFFFFFFFFFFFF DUP3 EQ ISZERO PUSH2 0x9D4 JUMPI PUSH2 0x9D3 PUSH2 0x9DF JUMP JUMPDEST JUMPDEST PUSH1 0x1 DUP3 ADD SWAP1 POP SWAP2 SWAP1 POP JUMP JUMPDEST PUSH32 0x4E487B7100000000000000000000000000000000000000000000000000000000 PUSH1 0x0 MSTORE PUSH1 0x11 PUSH1 0x4 MSTORE PUSH1 0x24 PUSH1 0x0 REVERT JUMPDEST PUSH32 0x4E487B7100000000000000000000000000000000000000000000000000000000 PUSH1 0x0 MSTORE PUSH1 0x22 PUSH1 0x4 MSTORE PUSH1 0x24 PUSH1 0x0 REVERT JUMPDEST PUSH32 0x4E487B7100000000000000000000000000000000000000000000000000000000 PUSH1 0x0 MSTORE PUSH1 0x41 PUSH1 0x4 MSTORE PUSH1 0x24 PUSH1 0x0 REVERT JUMPDEST PUSH1 0x0 DUP1 REVERT JUMPDEST PUSH1 0x0 DUP1 REVERT JUMPDEST PUSH1 0x0 DUP1 REVERT JUMPDEST PUSH1 0x0 DUP1 REVERT JUMPDEST PUSH1 0x0 PUSH1 0x1F NOT PUSH1 0x1F DUP4 ADD AND SWAP1 POP SWAP2 SWAP1 POP JUMP JUMPDEST PUSH2 0xA9A DUP2 PUSH2 0x8B5 JUMP JUMPDEST DUP2 EQ PUSH2 0xAA5 JUMPI PUSH1 0x0 DUP1 REVERT JUMPDEST POP JUMP JUMPDEST PUSH2 0xAB1 DUP2 PUSH2 0x8E7 JUMP JUMPDEST DUP2 EQ PUSH2 0xABC JUMPI PUSH1 0x0 DUP1 REVERT JUMPDEST POP JUMP INVALID LOG2 PUSH5 0x6970667358 0x22 SLT KECCAK256 STATICCALL PUSH8 0x4241862F362748D2 TIMESTAMP 0xA8 0xEA 0xE9 0xF7 STATICCALL PUSH21 0x4402CEB298E68FE8756E596019569B64736F6C6343 STOP ADDMOD SMOD STOP CALLER "
				},
				"gasEstimates": {
					"creation": {
						"codeDepositCost": "561000",
						"executionCost": "594",
						"totalCost": "561594"
					},
					"external": {
						"createCrowdfunding(address,uint256,string)": "infinite",
						"getAllCrowdfunding()": "infinite"
					}
				},
				"methodIdentifiers": {
					"createCrowdfunding(address,uint256,string)": "4ed2f7ee",
					"getAllCrowdfunding()": "9a417d22"
				}
			},
			"storageLayout": {
				"storage": [
					{
						"astId": 3,
						"contract": "crowdfunding.sol:CrowdfundingContract",
						"label": "No",
						"offset": 0,
						"slot": "0",
						"type": "t_uint256"
					},
					{
						"astId": 24,
						"contract": "crowdfunding.sol:CrowdfundingContract",
						"label": "list",
						"offset": 0,
						"slot": "1",
						"type": "t_array(t_struct(Crowdfunding)20_storage)dyn_storage"
					}
				],
				"types": {
					"t_address": {
						"encoding": "inplace",
						"label": "address",
						"numberOfBytes": "20"
					},
					"t_array(t_struct(Crowdfunding)20_storage)dyn_storage": {
						"base": "t_struct(Crowdfunding)20_storage",
						"encoding": "dynamic_array",
						"label": "struct CrowdfundingContract.Crowdfunding[]",
						"numberOfBytes": "32"
					},
					"t_string_storage": {
						"encoding": "bytes",
						"label": "string",
						"numberOfBytes": "32"
					},
					"t_struct(Crowdfunding)20_storage": {
						"encoding": "inplace",
						"label": "struct CrowdfundingContract.Crowdfunding",
						"members": [
							{
								"astId": 5,
								"contract": "crowdfunding.sol:CrowdfundingContract",
								"label": "num",
								"offset": 0,
								"slot": "0",
								"type": "t_uint256"
							},
							{
								"astId": 7,
								"contract": "crowdfunding.sol:CrowdfundingContract",
								"label": "status",
								"offset": 0,
								"slot": "1",
								"type": "t_uint256"
							},
							{
								"astId": 9,
								"contract": "crowdfunding.sol:CrowdfundingContract",
								"label": "creator",
								"offset": 0,
								"slot": "2",
								"type": "t_address"
							},
							{
								"astId": 11,
								"contract": "crowdfunding.sol:CrowdfundingContract",
								"label": "recipient",
								"offset": 0,
								"slot": "3",
								"type": "t_address"
							},
							{
								"astId": 13,
								"contract": "crowdfunding.sol:CrowdfundingContract",
								"label": "joinNum",
								"offset": 0,
								"slot": "4",
								"type": "t_uint256"
							},
							{
								"astId": 15,
								"contract": "crowdfunding.sol:CrowdfundingContract",
								"label": "joinLimitNum",
								"offset": 0,
								"slot": "5",
								"type": "t_uint256"
							},
							{
								"astId": 17,
								"contract": "crowdfunding.sol:CrowdfundingContract",
								"label": "expectAmout",
								"offset": 0,
								"slot": "6",
								"type": "t_string_storage"
							},
							{
								"astId": 19,
								"contract": "crowdfunding.sol:CrowdfundingContract",
								"label": "actualAmount",
								"offset": 0,
								"slot": "7",
								"type": "t_string_storage"
							}
						],
						"numberOfBytes": "256"
					},
					"t_uint256": {
						"encoding": "inplace",
						"label": "uint256",
						"numberOfBytes": "32"
					}
				}
			},
			"userdoc": {
				"kind": "user",
				"methods": {},
				"version": 1
			}
		}
	}
}