{
	"crowdfunding.sol": {
		"CrowdfundingContract": {
			"abi": [
				{
					"anonymous": false,
					"inputs": [
						{
							"indexed": false,
							"internalType": "string",
							"name": "a",
							"type": "string"
						},
						{
							"indexed": false,
							"internalType": "address",
							"name": "msg",
							"type": "address"
						}
					],
					"name": "Log",
					"type": "event"
				},
				{
					"inputs": [
						{
							"internalType": "string",
							"name": "_title",
							"type": "string"
						},
						{
							"internalType": "address",
							"name": "_recipient",
							"type": "address"
						},
						{
							"internalType": "uint256",
							"name": "_expectAmout",
							"type": "uint256"
						}
					],
					"name": "createCrowdfunding",
					"outputs": [],
					"stateMutability": "nonpayable",
					"type": "function"
				},
				{
					"inputs": [
						{
							"internalType": "uint256",
							"name": "_status",
							"type": "uint256"
						}
					],
					"name": "getCrowdfundingByStatus",
					"outputs": [
						{
							"components": [
								{
									"internalType": "uint256",
									"name": "num",
									"type": "uint256"
								},
								{
									"internalType": "string",
									"name": "title",
									"type": "string"
								},
								{
									"internalType": "uint256",
									"name": "status",
									"type": "uint256"
								},
								{
									"internalType": "address",
									"name": "creator",
									"type": "address"
								},
								{
									"internalType": "address",
									"name": "recipient",
									"type": "address"
								},
								{
									"internalType": "uint256",
									"name": "joinNum",
									"type": "uint256"
								},
								{
									"internalType": "uint256",
									"name": "expectAmout",
									"type": "uint256"
								},
								{
									"internalType": "uint256",
									"name": "actualAmount",
									"type": "uint256"
								}
							],
							"internalType": "struct CrowdfundingContract.Crowdfunding[]",
							"name": "",
							"type": "tuple[]"
						}
					],
					"stateMutability": "view",
					"type": "function"
				},
				{
					"inputs": [
						{
							"internalType": "address",
							"name": "addr",
							"type": "address"
						}
					],
					"name": "getMyCrowdfunding",
					"outputs": [
						{
							"components": [
								{
									"internalType": "uint256",
									"name": "num",
									"type": "uint256"
								},
								{
									"internalType": "string",
									"name": "title",
									"type": "string"
								},
								{
									"internalType": "uint256",
									"name": "status",
									"type": "uint256"
								},
								{
									"internalType": "address",
									"name": "creator",
									"type": "address"
								},
								{
									"internalType": "address",
									"name": "recipient",
									"type": "address"
								},
								{
									"internalType": "uint256",
									"name": "joinNum",
									"type": "uint256"
								},
								{
									"internalType": "uint256",
									"name": "expectAmout",
									"type": "uint256"
								},
								{
									"internalType": "uint256",
									"name": "actualAmount",
									"type": "uint256"
								}
							],
							"internalType": "struct CrowdfundingContract.Crowdfunding[]",
							"name": "",
							"type": "tuple[]"
						}
					],
					"stateMutability": "view",
					"type": "function"
				},
				{
					"inputs": [
						{
							"internalType": "uint256",
							"name": "num",
							"type": "uint256"
						},
						{
							"internalType": "uint256",
							"name": "amount",
							"type": "uint256"
						},
						{
							"internalType": "address",
							"name": "addr",
							"type": "address"
						}
					],
					"name": "join",
					"outputs": [],
					"stateMutability": "nonpayable",
					"type": "function"
				},
				{
					"inputs": [
						{
							"internalType": "uint256",
							"name": "",
							"type": "uint256"
						}
					],
					"name": "list",
					"outputs": [
						{
							"internalType": "uint256",
							"name": "num",
							"type": "uint256"
						},
						{
							"internalType": "string",
							"name": "title",
							"type": "string"
						},
						{
							"internalType": "uint256",
							"name": "status",
							"type": "uint256"
						},
						{
							"internalType": "address",
							"name": "creator",
							"type": "address"
						},
						{
							"internalType": "address",
							"name": "recipient",
							"type": "address"
						},
						{
							"internalType": "uint256",
							"name": "joinNum",
							"type": "uint256"
						},
						{
							"internalType": "uint256",
							"name": "expectAmout",
							"type": "uint256"
						},
						{
							"internalType": "uint256",
							"name": "actualAmount",
							"type": "uint256"
						}
					],
					"stateMutability": "view",
					"type": "function"
				},
				{
					"inputs": [
						{
							"internalType": "uint256",
							"name": "num",
							"type": "uint256"
						}
					],
					"name": "setStatus",
					"outputs": [],
					"stateMutability": "nonpayable",
					"type": "function"
				},
				{
					"inputs": [
						{
							"internalType": "uint256",
							"name": "num",
							"type": "uint256"
						},
						{
							"internalType": "string",
							"name": "title",
							"type": "string"
						}
					],
					"name": "setTitle",
					"outputs": [],
					"stateMutability": "nonpayable",
					"type": "function"
				},
				{
					"inputs": [
						{
							"internalType": "string",
							"name": "s",
							"type": "string"
						}
					],
					"name": "stringToInt",
					"outputs": [
						{
							"internalType": "uint256",
							"name": "",
							"type": "uint256"
						}
					],
					"stateMutability": "pure",
					"type": "function"
				}
			],
			"devdoc": {
				"kind": "dev",
				"methods": {},
				"version": 1
			},
			"evm": {
				"assembly": "    /* \"crowdfunding.sol\":311:4659  contract CrowdfundingContract {... */\n  mstore(0x40, 0x80)\n  callvalue\n  dup1\n  iszero\n  tag_1\n  jumpi\n  0x00\n  dup1\n  revert\ntag_1:\n  pop\n  dataSize(sub_0)\n  dup1\n  dataOffset(sub_0)\n  0x00\n  codecopy\n  0x00\n  return\nstop\n\nsub_0: assembly {\n        /* \"crowdfunding.sol\":311:4659  contract CrowdfundingContract {... */\n      mstore(0x40, 0x80)\n      callvalue\n      dup1\n      iszero\n      tag_1\n      jumpi\n      0x00\n      dup1\n      revert\n    tag_1:\n      pop\n      jumpi(tag_2, lt(calldatasize, 0x04))\n      shr(0xe0, calldataload(0x00))\n      dup1\n      0x80c9419e\n      gt\n      tag_11\n      jumpi\n      dup1\n      0x80c9419e\n      eq\n      tag_7\n      jumpi\n      dup1\n      0x904cc175\n      eq\n      tag_8\n      jumpi\n      dup1\n      0xac8b1300\n      eq\n      tag_9\n      jumpi\n      dup1\n      0xf8a02d84\n      eq\n      tag_10\n      jumpi\n      jump(tag_2)\n    tag_11:\n      dup1\n      0x377e6ff7\n      eq\n      tag_3\n      jumpi\n      dup1\n      0x5102bc9d\n      eq\n      tag_4\n      jumpi\n      dup1\n      0x575b70d0\n      eq\n      tag_5\n      jumpi\n      dup1\n      0x69ba1a75\n      eq\n      tag_6\n      jumpi\n    tag_2:\n      0x00\n      dup1\n      revert\n        /* \"crowdfunding.sol\":4525:4656  function getMyCrowdfunding(address addr) public view returns (Crowdfunding[] memory) {... */\n    tag_3:\n      tag_12\n      0x04\n      dup1\n      calldatasize\n      sub\n      dup2\n      add\n      swap1\n      tag_13\n      swap2\n      swap1\n      tag_14\n      jump\t// in\n    tag_13:\n      tag_15\n      jump\t// in\n    tag_12:\n      mload(0x40)\n      tag_16\n      swap2\n      swap1\n      tag_17\n      jump\t// in\n    tag_16:\n      mload(0x40)\n      dup1\n      swap2\n      sub\n      swap1\n      return\n        /* \"crowdfunding.sol\":2897:2996  function setTitle(uint num,string memory title) public {... */\n    tag_4:\n      tag_18\n      0x04\n      dup1\n      calldatasize\n      sub\n      dup2\n      add\n      swap1\n      tag_19\n      swap2\n      swap1\n      tag_20\n      jump\t// in\n    tag_19:\n      tag_21\n      jump\t// in\n    tag_18:\n      stop\n        /* \"crowdfunding.sol\":3056:4240  function join(uint num,uint amount,address addr) public {... */\n    tag_5:\n      tag_22\n      0x04\n      dup1\n      calldatasize\n      sub\n      dup2\n      add\n      swap1\n      tag_23\n      swap2\n      swap1\n      tag_24\n      jump\t// in\n    tag_23:\n      tag_25\n      jump\t// in\n    tag_22:\n      stop\n        /* \"crowdfunding.sol\":2222:2814  function setStatus(uint num) public {... */\n    tag_6:\n      tag_26\n      0x04\n      dup1\n      calldatasize\n      sub\n      dup2\n      add\n      swap1\n      tag_27\n      swap2\n      swap1\n      tag_28\n      jump\t// in\n    tag_27:\n      tag_29\n      jump\t// in\n    tag_26:\n      stop\n        /* \"crowdfunding.sol\":835:861  Crowdfunding[] public list */\n    tag_7:\n      tag_30\n      0x04\n      dup1\n      calldatasize\n      sub\n      dup2\n      add\n      swap1\n      tag_31\n      swap2\n      swap1\n      tag_28\n      jump\t// in\n    tag_31:\n      tag_32\n      jump\t// in\n    tag_30:\n      mload(0x40)\n      tag_33\n      swap9\n      swap8\n      swap7\n      swap6\n      swap5\n      swap4\n      swap3\n      swap2\n      swap1\n      tag_34\n      jump\t// in\n    tag_33:\n      mload(0x40)\n      dup1\n      swap2\n      sub\n      swap1\n      return\n        /* \"crowdfunding.sol\":4292:4475  function getCrowdfundingByStatus(uint _status) public view returns (Crowdfunding[] memory) {... */\n    tag_8:\n      tag_35\n      0x04\n      dup1\n      calldatasize\n      sub\n      dup2\n      add\n      swap1\n      tag_36\n      swap2\n      swap1\n      tag_28\n      jump\t// in\n    tag_36:\n      tag_37\n      jump\t// in\n    tag_35:\n      mload(0x40)\n      tag_38\n      swap2\n      swap1\n      tag_17\n      jump\t// in\n    tag_38:\n      mload(0x40)\n      dup1\n      swap2\n      sub\n      swap1\n      return\n        /* \"crowdfunding.sol\":1538:2143  function createCrowdfunding(string memory _title,address _recipient, uint _expectAmout) public {... */\n    tag_9:\n      tag_39\n      0x04\n      dup1\n      calldatasize\n      sub\n      dup2\n      add\n      swap1\n      tag_40\n      swap2\n      swap1\n      tag_41\n      jump\t// in\n    tag_40:\n      tag_42\n      jump\t// in\n    tag_39:\n      stop\n        /* \"crowdfunding.sol\":1160:1530  function stringToInt(string memory s) public pure returns (uint){... */\n    tag_10:\n      tag_43\n      0x04\n      dup1\n      calldatasize\n      sub\n      dup2\n      add\n      swap1\n      tag_44\n      swap2\n      swap1\n      tag_45\n      jump\t// in\n    tag_44:\n      tag_46\n      jump\t// in\n    tag_43:\n      mload(0x40)\n      tag_47\n      swap2\n      swap1\n      tag_48\n      jump\t// in\n    tag_47:\n      mload(0x40)\n      dup1\n      swap2\n      sub\n      swap1\n      return\n        /* \"crowdfunding.sol\":4525:4656  function getMyCrowdfunding(address addr) public view returns (Crowdfunding[] memory) {... */\n    tag_15:\n        /* \"crowdfunding.sol\":4587:4608  Crowdfunding[] memory */\n      0x60\n        /* \"crowdfunding.sol\":4628:4642  myCrowdfunding */\n      0x03\n        /* \"crowdfunding.sol\":4628:4648  myCrowdfunding[addr] */\n      0x00\n        /* \"crowdfunding.sol\":4643:4647  addr */\n      dup4\n        /* \"crowdfunding.sol\":4628:4648  myCrowdfunding[addr] */\n      0xffffffffffffffffffffffffffffffffffffffff\n      and\n      0xffffffffffffffffffffffffffffffffffffffff\n      and\n      dup2\n      mstore\n      0x20\n      add\n      swap1\n      dup2\n      mstore\n      0x20\n      add\n      0x00\n      keccak256\n        /* \"crowdfunding.sol\":4621:4648  return myCrowdfunding[addr] */\n      dup1\n      sload\n      dup1\n      0x20\n      mul\n      0x20\n      add\n      mload(0x40)\n      swap1\n      dup2\n      add\n      0x40\n      mstore\n      dup1\n      swap3\n      swap2\n      swap1\n      dup2\n      dup2\n      mstore\n      0x20\n      add\n      0x00\n      swap1\n    tag_50:\n      dup3\n      dup3\n      lt\n      iszero\n      tag_51\n      jumpi\n      dup4\n      dup3\n      swap1\n      0x00\n      mstore\n      keccak256(0x00, 0x20)\n      swap1\n      0x08\n      mul\n      add\n      mload(0x40)\n      dup1\n      0x0100\n      add\n      0x40\n      mstore\n      swap1\n      dup2\n      0x00\n      dup3\n      add\n      sload\n      dup2\n      mstore\n      0x20\n      add\n      0x01\n      dup3\n      add\n      dup1\n      sload\n      tag_53\n      swap1\n      tag_54\n      jump\t// in\n    tag_53:\n      dup1\n      0x1f\n      add\n      0x20\n      dup1\n      swap2\n      div\n      mul\n      0x20\n      add\n      mload(0x40)\n      swap1\n      dup2\n      add\n      0x40\n      mstore\n      dup1\n      swap3\n      swap2\n      swap1\n      dup2\n      dup2\n      mstore\n      0x20\n      add\n      dup3\n      dup1\n      sload\n      tag_55\n      swap1\n      tag_54\n      jump\t// in\n    tag_55:\n      dup1\n      iszero\n      tag_56\n      jumpi\n      dup1\n      0x1f\n      lt\n      tag_57\n      jumpi\n      0x0100\n      dup1\n      dup4\n      sload\n      div\n      mul\n      dup4\n      mstore\n      swap2\n      0x20\n      add\n      swap2\n      jump(tag_56)\n    tag_57:\n      dup3\n      add\n      swap2\n      swap1\n      0x00\n      mstore\n      keccak256(0x00, 0x20)\n      swap1\n    tag_58:\n      dup2\n      sload\n      dup2\n      mstore\n      swap1\n      0x01\n      add\n      swap1\n      0x20\n      add\n      dup1\n      dup4\n      gt\n      tag_58\n      jumpi\n      dup3\n      swap1\n      sub\n      0x1f\n      and\n      dup3\n      add\n      swap2\n    tag_56:\n      pop\n      pop\n      pop\n      pop\n      pop\n      dup2\n      mstore\n      0x20\n      add\n      0x02\n      dup3\n      add\n      sload\n      dup2\n      mstore\n      0x20\n      add\n      0x03\n      dup3\n      add\n      0x00\n      swap1\n      sload\n      swap1\n      0x0100\n      exp\n      swap1\n      div\n      0xffffffffffffffffffffffffffffffffffffffff\n      and\n      0xffffffffffffffffffffffffffffffffffffffff\n      and\n      0xffffffffffffffffffffffffffffffffffffffff\n      and\n      dup2\n      mstore\n      0x20\n      add\n      0x04\n      dup3\n      add\n      0x00\n      swap1\n      sload\n      swap1\n      0x0100\n      exp\n      swap1\n      div\n      0xffffffffffffffffffffffffffffffffffffffff\n      and\n      0xffffffffffffffffffffffffffffffffffffffff\n      and\n      0xffffffffffffffffffffffffffffffffffffffff\n      and\n      dup2\n      mstore\n      0x20\n      add\n      0x05\n      dup3\n      add\n      sload\n      dup2\n      mstore\n      0x20\n      add\n      0x06\n      dup3\n      add\n      sload\n      dup2\n      mstore\n      0x20\n      add\n      0x07\n      dup3\n      add\n      sload\n      dup2\n      mstore\n      pop\n      pop\n      dup2\n      mstore\n      0x20\n      add\n      swap1\n      0x01\n      add\n      swap1\n      jump(tag_50)\n    tag_51:\n      pop\n      pop\n      pop\n      pop\n      swap1\n      pop\n        /* \"crowdfunding.sol\":4525:4656  function getMyCrowdfunding(address addr) public view returns (Crowdfunding[] memory) {... */\n      swap2\n      swap1\n      pop\n      jump\t// out\n        /* \"crowdfunding.sol\":2897:2996  function setTitle(uint num,string memory title) public {... */\n    tag_21:\n        /* \"crowdfunding.sol\":2983:2988  title */\n      dup1\n        /* \"crowdfunding.sol\":2963:2967  list */\n      0x01\n        /* \"crowdfunding.sol\":2972:2973  1 */\n      dup1\n        /* \"crowdfunding.sol\":2968:2971  num */\n      dup5\n        /* \"crowdfunding.sol\":2968:2973  num-1 */\n      tag_60\n      swap2\n      swap1\n      tag_61\n      jump\t// in\n    tag_60:\n        /* \"crowdfunding.sol\":2963:2974  list[num-1] */\n      dup2\n      sload\n      dup2\n      lt\n      tag_62\n      jumpi\n      tag_63\n      tag_64\n      jump\t// in\n    tag_63:\n    tag_62:\n      swap1\n      0x00\n      mstore\n      keccak256(0x00, 0x20)\n      swap1\n      0x08\n      mul\n      add\n        /* \"crowdfunding.sol\":2963:2980  list[num-1].title */\n      0x01\n      add\n        /* \"crowdfunding.sol\":2963:2988  list[num-1].title = title */\n      swap1\n      dup2\n      tag_66\n      swap2\n      swap1\n      tag_67\n      jump\t// in\n    tag_66:\n      pop\n        /* \"crowdfunding.sol\":2897:2996  function setTitle(uint num,string memory title) public {... */\n      pop\n      pop\n      jump\t// out\n        /* \"crowdfunding.sol\":3056:4240  function join(uint num,uint amount,address addr) public {... */\n    tag_25:\n        /* \"crowdfunding.sol\":3189:3193  addr */\n      dup1\n        /* \"crowdfunding.sol\":3164:3193  list[num-1].recipient != addr */\n      0xffffffffffffffffffffffffffffffffffffffff\n      and\n        /* \"crowdfunding.sol\":3164:3168  list */\n      0x01\n        /* \"crowdfunding.sol\":3173:3174  1 */\n      dup1\n        /* \"crowdfunding.sol\":3169:3172  num */\n      dup6\n        /* \"crowdfunding.sol\":3169:3174  num-1 */\n      tag_69\n      swap2\n      swap1\n      tag_61\n      jump\t// in\n    tag_69:\n        /* \"crowdfunding.sol\":3164:3175  list[num-1] */\n      dup2\n      sload\n      dup2\n      lt\n      tag_70\n      jumpi\n      tag_71\n      tag_64\n      jump\t// in\n    tag_71:\n    tag_70:\n      swap1\n      0x00\n      mstore\n      keccak256(0x00, 0x20)\n      swap1\n      0x08\n      mul\n      add\n        /* \"crowdfunding.sol\":3164:3185  list[num-1].recipient */\n      0x04\n      add\n      0x00\n      swap1\n      sload\n      swap1\n      0x0100\n      exp\n      swap1\n      div\n      0xffffffffffffffffffffffffffffffffffffffff\n      and\n        /* \"crowdfunding.sol\":3164:3193  list[num-1].recipient != addr */\n      0xffffffffffffffffffffffffffffffffffffffff\n      and\n      sub\n        /* \"crowdfunding.sol\":3156:3239  require(list[num-1].recipient != addr,\"\\u4e0d\\u80fd\\u7ed9\\u81ea\\u5df1\\u6350\\u6b3e\") */\n      tag_73\n      jumpi\n      mload(0x40)\n      0x08c379a000000000000000000000000000000000000000000000000000000000\n      dup2\n      mstore\n      0x04\n      add\n      tag_74\n      swap1\n      tag_75\n      jump\t// in\n    tag_74:\n      mload(0x40)\n      dup1\n      swap2\n      sub\n      swap1\n      revert\n    tag_73:\n        /* \"crowdfunding.sol\":3252:3268  bool isFirstJoin */\n      0x00\n        /* \"crowdfunding.sol\":3271:3275  true */\n      0x01\n        /* \"crowdfunding.sol\":3252:3275  bool isFirstJoin = true */\n      swap1\n      pop\n        /* \"crowdfunding.sol\":3286:3294  uint len */\n      0x00\n        /* \"crowdfunding.sol\":3297:3308  calcJoinNum */\n      0x04\n        /* \"crowdfunding.sol\":3297:3315  calcJoinNum[num-1] */\n      0x00\n        /* \"crowdfunding.sol\":3313:3314  1 */\n      0x01\n        /* \"crowdfunding.sol\":3309:3312  num */\n      dup8\n        /* \"crowdfunding.sol\":3309:3314  num-1 */\n      tag_76\n      swap2\n      swap1\n      tag_61\n      jump\t// in\n    tag_76:\n        /* \"crowdfunding.sol\":3297:3315  calcJoinNum[num-1] */\n      dup2\n      mstore\n      0x20\n      add\n      swap1\n      dup2\n      mstore\n      0x20\n      add\n      0x00\n      keccak256\n        /* \"crowdfunding.sol\":3297:3322  calcJoinNum[num-1].length */\n      dup1\n      sload\n      swap1\n      pop\n        /* \"crowdfunding.sol\":3286:3322  uint len = calcJoinNum[num-1].length */\n      swap1\n      pop\n        /* \"crowdfunding.sol\":3343:3344  0 */\n      0x00\n        /* \"crowdfunding.sol\":3336:3339  len */\n      dup2\n        /* \"crowdfunding.sol\":3336:3344  len == 0 */\n      sub\n        /* \"crowdfunding.sol\":3333:3856  if(len == 0) {... */\n      tag_77\n      jumpi\n        /* \"crowdfunding.sol\":3384:3385  1 */\n      0x01\n        /* \"crowdfunding.sol\":3361:3365  list */\n      dup1\n        /* \"crowdfunding.sol\":3370:3371  1 */\n      0x01\n        /* \"crowdfunding.sol\":3366:3369  num */\n      dup8\n        /* \"crowdfunding.sol\":3366:3371  num-1 */\n      tag_78\n      swap2\n      swap1\n      tag_61\n      jump\t// in\n    tag_78:\n        /* \"crowdfunding.sol\":3361:3372  list[num-1] */\n      dup2\n      sload\n      dup2\n      lt\n      tag_79\n      jumpi\n      tag_80\n      tag_64\n      jump\t// in\n    tag_80:\n    tag_79:\n      swap1\n      0x00\n      mstore\n      keccak256(0x00, 0x20)\n      swap1\n      0x08\n      mul\n      add\n        /* \"crowdfunding.sol\":3361:3380  list[num-1].joinNum */\n      0x05\n      add\n      0x00\n        /* \"crowdfunding.sol\":3361:3385  list[num-1].joinNum += 1 */\n      dup3\n      dup3\n      sload\n      tag_82\n      swap2\n      swap1\n      tag_83\n      jump\t// in\n    tag_82:\n      swap3\n      pop\n      pop\n      dup2\n      swap1\n      sstore\n      pop\n        /* \"crowdfunding.sol\":3400:3411  calcJoinNum */\n      0x04\n        /* \"crowdfunding.sol\":3400:3418  calcJoinNum[num-1] */\n      0x00\n        /* \"crowdfunding.sol\":3416:3417  1 */\n      0x01\n        /* \"crowdfunding.sol\":3412:3415  num */\n      dup8\n        /* \"crowdfunding.sol\":3412:3417  num-1 */\n      tag_84\n      swap2\n      swap1\n      tag_61\n      jump\t// in\n    tag_84:\n        /* \"crowdfunding.sol\":3400:3418  calcJoinNum[num-1] */\n      dup2\n      mstore\n      0x20\n      add\n      swap1\n      dup2\n      mstore\n      0x20\n      add\n      0x00\n      keccak256\n        /* \"crowdfunding.sol\":3424:3428  addr */\n      dup4\n        /* \"crowdfunding.sol\":3400:3429  calcJoinNum[num-1].push(addr) */\n      swap1\n      dup1\n      0x01\n      dup2\n      sload\n      add\n      dup1\n      dup3\n      sstore\n      dup1\n      swap2\n      pop\n      pop\n      0x01\n      swap1\n      sub\n      swap1\n      0x00\n      mstore\n      keccak256(0x00, 0x20)\n      add\n      0x00\n      swap1\n      swap2\n      swap1\n      swap2\n      swap1\n      swap2\n      0x0100\n      exp\n      dup2\n      sload\n      dup2\n      0xffffffffffffffffffffffffffffffffffffffff\n      mul\n      not\n      and\n      swap1\n      dup4\n      0xffffffffffffffffffffffffffffffffffffffff\n      and\n      mul\n      or\n      swap1\n      sstore\n      pop\n        /* \"crowdfunding.sol\":3333:3856  if(len == 0) {... */\n      jump(tag_86)\n    tag_77:\n        /* \"crowdfunding.sol\":3466:3472  uint i */\n      0x00\n        /* \"crowdfunding.sol\":3462:3706  for(uint i = 0; i < len;i++) {... */\n    tag_87:\n        /* \"crowdfunding.sol\":3482:3485  len */\n      dup2\n        /* \"crowdfunding.sol\":3478:3479  i */\n      dup2\n        /* \"crowdfunding.sol\":3478:3485  i < len */\n      lt\n        /* \"crowdfunding.sol\":3462:3706  for(uint i = 0; i < len;i++) {... */\n      iszero\n      tag_88\n      jumpi\n        /* \"crowdfunding.sol\":3515:3548  Log('9999',calcJoinNum[num-1][i]) */\n      0x1dfffa052d4a63bd70f14b863e128979d1c59e3589a0a3beb2633a120047042d\n        /* \"crowdfunding.sol\":3526:3537  calcJoinNum */\n      0x04\n        /* \"crowdfunding.sol\":3526:3544  calcJoinNum[num-1] */\n      0x00\n        /* \"crowdfunding.sol\":3542:3543  1 */\n      0x01\n        /* \"crowdfunding.sol\":3538:3541  num */\n      dup10\n        /* \"crowdfunding.sol\":3538:3543  num-1 */\n      tag_90\n      swap2\n      swap1\n      tag_61\n      jump\t// in\n    tag_90:\n        /* \"crowdfunding.sol\":3526:3544  calcJoinNum[num-1] */\n      dup2\n      mstore\n      0x20\n      add\n      swap1\n      dup2\n      mstore\n      0x20\n      add\n      0x00\n      keccak256\n        /* \"crowdfunding.sol\":3545:3546  i */\n      dup3\n        /* \"crowdfunding.sol\":3526:3547  calcJoinNum[num-1][i] */\n      dup2\n      sload\n      dup2\n      lt\n      tag_91\n      jumpi\n      tag_92\n      tag_64\n      jump\t// in\n    tag_92:\n    tag_91:\n      swap1\n      0x00\n      mstore\n      keccak256(0x00, 0x20)\n      add\n      0x00\n      swap1\n      sload\n      swap1\n      0x0100\n      exp\n      swap1\n      div\n      0xffffffffffffffffffffffffffffffffffffffff\n      and\n        /* \"crowdfunding.sol\":3515:3548  Log('9999',calcJoinNum[num-1][i]) */\n      mload(0x40)\n      tag_94\n      swap2\n      swap1\n      tag_95\n      jump\t// in\n    tag_94:\n      mload(0x40)\n      dup1\n      swap2\n      sub\n      swap1\n      log1\n        /* \"crowdfunding.sol\":3595:3599  addr */\n      dup4\n        /* \"crowdfunding.sol\":3570:3599  calcJoinNum[num-1][i] == addr */\n      0xffffffffffffffffffffffffffffffffffffffff\n      and\n        /* \"crowdfunding.sol\":3570:3581  calcJoinNum */\n      0x04\n        /* \"crowdfunding.sol\":3570:3588  calcJoinNum[num-1] */\n      0x00\n        /* \"crowdfunding.sol\":3586:3587  1 */\n      0x01\n        /* \"crowdfunding.sol\":3582:3585  num */\n      dup10\n        /* \"crowdfunding.sol\":3582:3587  num-1 */\n      tag_96\n      swap2\n      swap1\n      tag_61\n      jump\t// in\n    tag_96:\n        /* \"crowdfunding.sol\":3570:3588  calcJoinNum[num-1] */\n      dup2\n      mstore\n      0x20\n      add\n      swap1\n      dup2\n      mstore\n      0x20\n      add\n      0x00\n      keccak256\n        /* \"crowdfunding.sol\":3589:3590  i */\n      dup3\n        /* \"crowdfunding.sol\":3570:3591  calcJoinNum[num-1][i] */\n      dup2\n      sload\n      dup2\n      lt\n      tag_97\n      jumpi\n      tag_98\n      tag_64\n      jump\t// in\n    tag_98:\n    tag_97:\n      swap1\n      0x00\n      mstore\n      keccak256(0x00, 0x20)\n      add\n      0x00\n      swap1\n      sload\n      swap1\n      0x0100\n      exp\n      swap1\n      div\n      0xffffffffffffffffffffffffffffffffffffffff\n      and\n        /* \"crowdfunding.sol\":3570:3599  calcJoinNum[num-1][i] == addr */\n      0xffffffffffffffffffffffffffffffffffffffff\n      and\n      sub\n        /* \"crowdfunding.sol\":3567:3691  if(calcJoinNum[num-1][i] == addr) {... */\n      tag_100\n      jumpi\n        /* \"crowdfunding.sol\":3638:3643  false */\n      0x00\n        /* \"crowdfunding.sol\":3624:3643  isFirstJoin = false */\n      swap3\n      pop\n        /* \"crowdfunding.sol\":3666:3671  break */\n      jump(tag_88)\n        /* \"crowdfunding.sol\":3567:3691  if(calcJoinNum[num-1][i] == addr) {... */\n    tag_100:\n        /* \"crowdfunding.sol\":3486:3489  i++ */\n      dup1\n      dup1\n      tag_101\n      swap1\n      tag_102\n      jump\t// in\n    tag_101:\n      swap2\n      pop\n      pop\n        /* \"crowdfunding.sol\":3462:3706  for(uint i = 0; i < len;i++) {... */\n      jump(tag_87)\n    tag_88:\n      pop\n        /* \"crowdfunding.sol\":3725:3736  isFirstJoin */\n      dup2\n        /* \"crowdfunding.sol\":3722:3845  if(isFirstJoin) {... */\n      iszero\n      tag_103\n      jumpi\n        /* \"crowdfunding.sol\":3780:3781  1 */\n      0x01\n        /* \"crowdfunding.sol\":3757:3761  list */\n      dup1\n        /* \"crowdfunding.sol\":3766:3767  1 */\n      0x01\n        /* \"crowdfunding.sol\":3762:3765  num */\n      dup8\n        /* \"crowdfunding.sol\":3762:3767  num-1 */\n      tag_104\n      swap2\n      swap1\n      tag_61\n      jump\t// in\n    tag_104:\n        /* \"crowdfunding.sol\":3757:3768  list[num-1] */\n      dup2\n      sload\n      dup2\n      lt\n      tag_105\n      jumpi\n      tag_106\n      tag_64\n      jump\t// in\n    tag_106:\n    tag_105:\n      swap1\n      0x00\n      mstore\n      keccak256(0x00, 0x20)\n      swap1\n      0x08\n      mul\n      add\n        /* \"crowdfunding.sol\":3757:3776  list[num-1].joinNum */\n      0x05\n      add\n      0x00\n        /* \"crowdfunding.sol\":3757:3781  list[num-1].joinNum += 1 */\n      dup3\n      dup3\n      sload\n      tag_108\n      swap2\n      swap1\n      tag_83\n      jump\t// in\n    tag_108:\n      swap3\n      pop\n      pop\n      dup2\n      swap1\n      sstore\n      pop\n        /* \"crowdfunding.sol\":3800:3811  calcJoinNum */\n      0x04\n        /* \"crowdfunding.sol\":3800:3818  calcJoinNum[num-1] */\n      0x00\n        /* \"crowdfunding.sol\":3816:3817  1 */\n      0x01\n        /* \"crowdfunding.sol\":3812:3815  num */\n      dup8\n        /* \"crowdfunding.sol\":3812:3817  num-1 */\n      tag_109\n      swap2\n      swap1\n      tag_61\n      jump\t// in\n    tag_109:\n        /* \"crowdfunding.sol\":3800:3818  calcJoinNum[num-1] */\n      dup2\n      mstore\n      0x20\n      add\n      swap1\n      dup2\n      mstore\n      0x20\n      add\n      0x00\n      keccak256\n        /* \"crowdfunding.sol\":3824:3828  addr */\n      dup4\n        /* \"crowdfunding.sol\":3800:3829  calcJoinNum[num-1].push(addr) */\n      swap1\n      dup1\n      0x01\n      dup2\n      sload\n      add\n      dup1\n      dup3\n      sstore\n      dup1\n      swap2\n      pop\n      pop\n      0x01\n      swap1\n      sub\n      swap1\n      0x00\n      mstore\n      keccak256(0x00, 0x20)\n      add\n      0x00\n      swap1\n      swap2\n      swap1\n      swap2\n      swap1\n      swap2\n      0x0100\n      exp\n      dup2\n      sload\n      dup2\n      0xffffffffffffffffffffffffffffffffffffffff\n      mul\n      not\n      and\n      swap1\n      dup4\n      0xffffffffffffffffffffffffffffffffffffffff\n      and\n      mul\n      or\n      swap1\n      sstore\n      pop\n        /* \"crowdfunding.sol\":3722:3845  if(isFirstJoin) {... */\n    tag_103:\n        /* \"crowdfunding.sol\":3333:3856  if(len == 0) {... */\n    tag_86:\n        /* \"crowdfunding.sol\":3963:3969  amount */\n      dup4\n        /* \"crowdfunding.sol\":3936:3940  list */\n      0x01\n        /* \"crowdfunding.sol\":3945:3946  1 */\n      dup1\n        /* \"crowdfunding.sol\":3941:3944  num */\n      dup8\n        /* \"crowdfunding.sol\":3941:3946  num-1 */\n      tag_111\n      swap2\n      swap1\n      tag_61\n      jump\t// in\n    tag_111:\n        /* \"crowdfunding.sol\":3936:3947  list[num-1] */\n      dup2\n      sload\n      dup2\n      lt\n      tag_112\n      jumpi\n      tag_113\n      tag_64\n      jump\t// in\n    tag_113:\n    tag_112:\n      swap1\n      0x00\n      mstore\n      keccak256(0x00, 0x20)\n      swap1\n      0x08\n      mul\n      add\n        /* \"crowdfunding.sol\":3936:3960  list[num-1].actualAmount */\n      0x07\n      add\n      sload\n        /* \"crowdfunding.sol\":3936:3969  list[num-1].actualAmount + amount */\n      tag_115\n      swap2\n      swap1\n      tag_83\n      jump\t// in\n    tag_115:\n        /* \"crowdfunding.sol\":3909:3913  list */\n      0x01\n        /* \"crowdfunding.sol\":3918:3919  1 */\n      dup1\n        /* \"crowdfunding.sol\":3914:3917  num */\n      dup8\n        /* \"crowdfunding.sol\":3914:3919  num-1 */\n      tag_116\n      swap2\n      swap1\n      tag_61\n      jump\t// in\n    tag_116:\n        /* \"crowdfunding.sol\":3909:3920  list[num-1] */\n      dup2\n      sload\n      dup2\n      lt\n      tag_117\n      jumpi\n      tag_118\n      tag_64\n      jump\t// in\n    tag_118:\n    tag_117:\n      swap1\n      0x00\n      mstore\n      keccak256(0x00, 0x20)\n      swap1\n      0x08\n      mul\n      add\n        /* \"crowdfunding.sol\":3909:3933  list[num-1].actualAmount */\n      0x07\n      add\n        /* \"crowdfunding.sol\":3909:3969  list[num-1].actualAmount = list[num-1].actualAmount + amount */\n      dup2\n      swap1\n      sstore\n      pop\n        /* \"crowdfunding.sol\":4011:4015  list */\n      0x01\n        /* \"crowdfunding.sol\":4020:4021  1 */\n      dup1\n        /* \"crowdfunding.sol\":4016:4019  num */\n      dup7\n        /* \"crowdfunding.sol\":4016:4021  num-1 */\n      tag_120\n      swap2\n      swap1\n      tag_61\n      jump\t// in\n    tag_120:\n        /* \"crowdfunding.sol\":4011:4022  list[num-1] */\n      dup2\n      sload\n      dup2\n      lt\n      tag_121\n      jumpi\n      tag_122\n      tag_64\n      jump\t// in\n    tag_122:\n    tag_121:\n      swap1\n      0x00\n      mstore\n      keccak256(0x00, 0x20)\n      swap1\n      0x08\n      mul\n      add\n        /* \"crowdfunding.sol\":4011:4034  list[num-1].expectAmout */\n      0x06\n      add\n      sload\n        /* \"crowdfunding.sol\":3983:3987  list */\n      0x01\n        /* \"crowdfunding.sol\":3992:3993  1 */\n      dup1\n        /* \"crowdfunding.sol\":3988:3991  num */\n      dup8\n        /* \"crowdfunding.sol\":3988:3993  num-1 */\n      tag_124\n      swap2\n      swap1\n      tag_61\n      jump\t// in\n    tag_124:\n        /* \"crowdfunding.sol\":3983:3994  list[num-1] */\n      dup2\n      sload\n      dup2\n      lt\n      tag_125\n      jumpi\n      tag_126\n      tag_64\n      jump\t// in\n    tag_126:\n    tag_125:\n      swap1\n      0x00\n      mstore\n      keccak256(0x00, 0x20)\n      swap1\n      0x08\n      mul\n      add\n        /* \"crowdfunding.sol\":3983:4007  list[num-1].actualAmount */\n      0x07\n      add\n      sload\n        /* \"crowdfunding.sol\":3983:4034  list[num-1].actualAmount >= list[num-1].expectAmout */\n      lt\n        /* \"crowdfunding.sol\":3980:4151  if(list[num-1].actualAmount >= list[num-1].expectAmout){... */\n      tag_128\n      jumpi\n        /* \"crowdfunding.sol\":4138:4139  2 */\n      0x02\n        /* \"crowdfunding.sol\":4117:4121  list */\n      0x01\n        /* \"crowdfunding.sol\":4126:4127  1 */\n      dup1\n        /* \"crowdfunding.sol\":4122:4125  num */\n      dup8\n        /* \"crowdfunding.sol\":4122:4127  num-1 */\n      tag_129\n      swap2\n      swap1\n      tag_61\n      jump\t// in\n    tag_129:\n        /* \"crowdfunding.sol\":4117:4128  list[num-1] */\n      dup2\n      sload\n      dup2\n      lt\n      tag_130\n      jumpi\n      tag_131\n      tag_64\n      jump\t// in\n    tag_131:\n    tag_130:\n      swap1\n      0x00\n      mstore\n      keccak256(0x00, 0x20)\n      swap1\n      0x08\n      mul\n      add\n        /* \"crowdfunding.sol\":4117:4135  list[num-1].status */\n      0x02\n      add\n        /* \"crowdfunding.sol\":4117:4139  list[num-1].status = 2 */\n      dup2\n      swap1\n      sstore\n      pop\n        /* \"crowdfunding.sol\":3980:4151  if(list[num-1].actualAmount >= list[num-1].expectAmout){... */\n    tag_128:\n        /* \"crowdfunding.sol\":3112:4240  {... */\n      pop\n      pop\n        /* \"crowdfunding.sol\":3056:4240  function join(uint num,uint amount,address addr) public {... */\n      pop\n      pop\n      pop\n      jump\t// out\n        /* \"crowdfunding.sol\":2222:2814  function setStatus(uint num) public {... */\n    tag_29:\n        /* \"crowdfunding.sol\":2290:2291  3 */\n      0x03\n        /* \"crowdfunding.sol\":2269:2273  list */\n      0x01\n        /* \"crowdfunding.sol\":2278:2279  1 */\n      dup1\n        /* \"crowdfunding.sol\":2274:2277  num */\n      dup4\n        /* \"crowdfunding.sol\":2274:2279  num-1 */\n      tag_134\n      swap2\n      swap1\n      tag_61\n      jump\t// in\n    tag_134:\n        /* \"crowdfunding.sol\":2269:2280  list[num-1] */\n      dup2\n      sload\n      dup2\n      lt\n      tag_135\n      jumpi\n      tag_136\n      tag_64\n      jump\t// in\n    tag_136:\n    tag_135:\n      swap1\n      0x00\n      mstore\n      keccak256(0x00, 0x20)\n      swap1\n      0x08\n      mul\n      add\n        /* \"crowdfunding.sol\":2269:2287  list[num-1].status */\n      0x02\n      add\n        /* \"crowdfunding.sol\":2269:2291  list[num-1].status = 3 */\n      dup2\n      swap1\n      sstore\n      pop\n        /* \"crowdfunding.sol\":2400:2401  1 */\n      0x01\n        /* \"crowdfunding.sol\":2368:2386  filterDataByStatus */\n      0x02\n        /* \"crowdfunding.sol\":2368:2389  filterDataByStatus[1] */\n      0x00\n        /* \"crowdfunding.sol\":2387:2388  1 */\n      0x01\n        /* \"crowdfunding.sol\":2368:2389  filterDataByStatus[1] */\n      dup2\n      mstore\n      0x20\n      add\n      swap1\n      dup2\n      mstore\n      0x20\n      add\n      0x00\n      keccak256\n        /* \"crowdfunding.sol\":2368:2396  filterDataByStatus[1].length */\n      dup1\n      sload\n      swap1\n      pop\n        /* \"crowdfunding.sol\":2368:2401  filterDataByStatus[1].length == 1 */\n      sub\n        /* \"crowdfunding.sol\":2365:2757  if(filterDataByStatus[1].length == 1){... */\n      tag_138\n      jumpi\n        /* \"crowdfunding.sol\":2417:2435  filterDataByStatus */\n      0x02\n        /* \"crowdfunding.sol\":2417:2438  filterDataByStatus[1] */\n      0x00\n        /* \"crowdfunding.sol\":2436:2437  1 */\n      0x01\n        /* \"crowdfunding.sol\":2417:2438  filterDataByStatus[1] */\n      dup2\n      mstore\n      0x20\n      add\n      swap1\n      dup2\n      mstore\n      0x20\n      add\n      0x00\n      keccak256\n        /* \"crowdfunding.sol\":2417:2444  filterDataByStatus[1].pop() */\n      dup1\n      sload\n      dup1\n      tag_139\n      jumpi\n      tag_140\n      tag_141\n      jump\t// in\n    tag_140:\n    tag_139:\n      0x01\n      swap1\n      sub\n      dup2\n      dup2\n      swap1\n      0x00\n      mstore\n      keccak256(0x00, 0x20)\n      swap1\n      0x08\n      mul\n      add\n      0x00\n      dup1\n      dup3\n      add\n      0x00\n      swap1\n      sstore\n      0x01\n      dup3\n      add\n      0x00\n      tag_143\n      swap2\n      swap1\n      tag_144\n      jump\t// in\n    tag_143:\n      0x02\n      dup3\n      add\n      0x00\n      swap1\n      sstore\n      0x03\n      dup3\n      add\n      exp(0x0100, 0x00)\n      dup2\n      sload\n      swap1\n      0xffffffffffffffffffffffffffffffffffffffff\n      mul\n      not\n      and\n      swap1\n      sstore\n      0x04\n      dup3\n      add\n      exp(0x0100, 0x00)\n      dup2\n      sload\n      swap1\n      0xffffffffffffffffffffffffffffffffffffffff\n      mul\n      not\n      and\n      swap1\n      sstore\n      0x05\n      dup3\n      add\n      0x00\n      swap1\n      sstore\n      0x06\n      dup3\n      add\n      0x00\n      swap1\n      sstore\n      0x07\n      dup3\n      add\n      0x00\n      swap1\n      sstore\n      pop\n      pop\n      swap1\n      sstore\n        /* \"crowdfunding.sol\":2365:2757  if(filterDataByStatus[1].length == 1){... */\n      jump(tag_145)\n    tag_138:\n        /* \"crowdfunding.sol\":2479:2485  uint i */\n      0x00\n        /* \"crowdfunding.sol\":2475:2704  for(uint i = 0; i < filterDataByStatus[1].length - 1; i++) {... */\n    tag_146:\n        /* \"crowdfunding.sol\":2526:2527  1 */\n      0x01\n        /* \"crowdfunding.sol\":2495:2513  filterDataByStatus */\n      0x02\n        /* \"crowdfunding.sol\":2495:2516  filterDataByStatus[1] */\n      0x00\n        /* \"crowdfunding.sol\":2514:2515  1 */\n      0x01\n        /* \"crowdfunding.sol\":2495:2516  filterDataByStatus[1] */\n      dup2\n      mstore\n      0x20\n      add\n      swap1\n      dup2\n      mstore\n      0x20\n      add\n      0x00\n      keccak256\n        /* \"crowdfunding.sol\":2495:2523  filterDataByStatus[1].length */\n      dup1\n      sload\n      swap1\n      pop\n        /* \"crowdfunding.sol\":2495:2527  filterDataByStatus[1].length - 1 */\n      tag_149\n      swap2\n      swap1\n      tag_61\n      jump\t// in\n    tag_149:\n        /* \"crowdfunding.sol\":2491:2492  i */\n      dup2\n        /* \"crowdfunding.sol\":2491:2527  i < filterDataByStatus[1].length - 1 */\n      lt\n        /* \"crowdfunding.sol\":2475:2704  for(uint i = 0; i < filterDataByStatus[1].length - 1; i++) {... */\n      iszero\n      tag_147\n      jumpi\n        /* \"crowdfunding.sol\":2588:2591  num */\n      dup2\n        /* \"crowdfunding.sol\":2556:2574  filterDataByStatus */\n      0x02\n        /* \"crowdfunding.sol\":2556:2577  filterDataByStatus[1] */\n      0x00\n        /* \"crowdfunding.sol\":2575:2576  1 */\n      0x01\n        /* \"crowdfunding.sol\":2556:2577  filterDataByStatus[1] */\n      dup2\n      mstore\n      0x20\n      add\n      swap1\n      dup2\n      mstore\n      0x20\n      add\n      0x00\n      keccak256\n        /* \"crowdfunding.sol\":2578:2579  i */\n      dup3\n        /* \"crowdfunding.sol\":2556:2580  filterDataByStatus[1][i] */\n      dup2\n      sload\n      dup2\n      lt\n      tag_150\n      jumpi\n      tag_151\n      tag_64\n      jump\t// in\n    tag_151:\n    tag_150:\n      swap1\n      0x00\n      mstore\n      keccak256(0x00, 0x20)\n      swap1\n      0x08\n      mul\n      add\n        /* \"crowdfunding.sol\":2556:2584  filterDataByStatus[1][i].num */\n      0x00\n      add\n      sload\n        /* \"crowdfunding.sol\":2556:2591  filterDataByStatus[1][i].num == num */\n      sub\n        /* \"crowdfunding.sol\":2553:2689  if(filterDataByStatus[1][i].num == num) {... */\n      tag_153\n      jumpi\n        /* \"crowdfunding.sol\":2643:2661  filterDataByStatus */\n      0x02\n        /* \"crowdfunding.sol\":2643:2664  filterDataByStatus[1] */\n      0x00\n        /* \"crowdfunding.sol\":2662:2663  1 */\n      0x01\n        /* \"crowdfunding.sol\":2643:2664  filterDataByStatus[1] */\n      dup2\n      mstore\n      0x20\n      add\n      swap1\n      dup2\n      mstore\n      0x20\n      add\n      0x00\n      keccak256\n        /* \"crowdfunding.sol\":2667:2668  1 */\n      0x01\n        /* \"crowdfunding.sol\":2665:2666  i */\n      dup3\n        /* \"crowdfunding.sol\":2665:2668  i+1 */\n      tag_154\n      swap2\n      swap1\n      tag_83\n      jump\t// in\n    tag_154:\n        /* \"crowdfunding.sol\":2643:2669  filterDataByStatus[1][i+1] */\n      dup2\n      sload\n      dup2\n      lt\n      tag_155\n      jumpi\n      tag_156\n      tag_64\n      jump\t// in\n    tag_156:\n    tag_155:\n      swap1\n      0x00\n      mstore\n      keccak256(0x00, 0x20)\n      swap1\n      0x08\n      mul\n      add\n        /* \"crowdfunding.sol\":2616:2634  filterDataByStatus */\n      0x02\n        /* \"crowdfunding.sol\":2616:2637  filterDataByStatus[1] */\n      0x00\n        /* \"crowdfunding.sol\":2635:2636  1 */\n      0x01\n        /* \"crowdfunding.sol\":2616:2637  filterDataByStatus[1] */\n      dup2\n      mstore\n      0x20\n      add\n      swap1\n      dup2\n      mstore\n      0x20\n      add\n      0x00\n      keccak256\n        /* \"crowdfunding.sol\":2638:2639  i */\n      dup3\n        /* \"crowdfunding.sol\":2616:2640  filterDataByStatus[1][i] */\n      dup2\n      sload\n      dup2\n      lt\n      tag_158\n      jumpi\n      tag_159\n      tag_64\n      jump\t// in\n    tag_159:\n    tag_158:\n      swap1\n      0x00\n      mstore\n      keccak256(0x00, 0x20)\n      swap1\n      0x08\n      mul\n      add\n        /* \"crowdfunding.sol\":2616:2669  filterDataByStatus[1][i] = filterDataByStatus[1][i+1] */\n      0x00\n      dup3\n      add\n      sload\n      dup2\n      0x00\n      add\n      sstore\n      0x01\n      dup3\n      add\n      dup2\n      0x01\n      add\n      swap1\n      dup2\n      tag_161\n      swap2\n      swap1\n      tag_162\n      jump\t// in\n    tag_161:\n      pop\n      0x02\n      dup3\n      add\n      sload\n      dup2\n      0x02\n      add\n      sstore\n      0x03\n      dup3\n      add\n      0x00\n      swap1\n      sload\n      swap1\n      0x0100\n      exp\n      swap1\n      div\n      0xffffffffffffffffffffffffffffffffffffffff\n      and\n      dup2\n      0x03\n      add\n      exp(0x0100, 0x00)\n      dup2\n      sload\n      dup2\n      0xffffffffffffffffffffffffffffffffffffffff\n      mul\n      not\n      and\n      swap1\n      dup4\n      0xffffffffffffffffffffffffffffffffffffffff\n      and\n      mul\n      or\n      swap1\n      sstore\n      pop\n      0x04\n      dup3\n      add\n      0x00\n      swap1\n      sload\n      swap1\n      0x0100\n      exp\n      swap1\n      div\n      0xffffffffffffffffffffffffffffffffffffffff\n      and\n      dup2\n      0x04\n      add\n      exp(0x0100, 0x00)\n      dup2\n      sload\n      dup2\n      0xffffffffffffffffffffffffffffffffffffffff\n      mul\n      not\n      and\n      swap1\n      dup4\n      0xffffffffffffffffffffffffffffffffffffffff\n      and\n      mul\n      or\n      swap1\n      sstore\n      pop\n      0x05\n      dup3\n      add\n      sload\n      dup2\n      0x05\n      add\n      sstore\n      0x06\n      dup3\n      add\n      sload\n      dup2\n      0x06\n      add\n      sstore\n      0x07\n      dup3\n      add\n      sload\n      dup2\n      0x07\n      add\n      sstore\n      swap1\n      pop\n      pop\n        /* \"crowdfunding.sol\":2553:2689  if(filterDataByStatus[1][i].num == num) {... */\n    tag_153:\n        /* \"crowdfunding.sol\":2529:2532  i++ */\n      dup1\n      dup1\n      tag_163\n      swap1\n      tag_102\n      jump\t// in\n    tag_163:\n      swap2\n      pop\n      pop\n        /* \"crowdfunding.sol\":2475:2704  for(uint i = 0; i < filterDataByStatus[1].length - 1; i++) {... */\n      jump(tag_146)\n    tag_147:\n      pop\n        /* \"crowdfunding.sol\":2718:2736  filterDataByStatus */\n      0x02\n        /* \"crowdfunding.sol\":2718:2739  filterDataByStatus[1] */\n      0x00\n        /* \"crowdfunding.sol\":2737:2738  1 */\n      0x01\n        /* \"crowdfunding.sol\":2718:2739  filterDataByStatus[1] */\n      dup2\n      mstore\n      0x20\n      add\n      swap1\n      dup2\n      mstore\n      0x20\n      add\n      0x00\n      keccak256\n        /* \"crowdfunding.sol\":2718:2745  filterDataByStatus[1].pop() */\n      dup1\n      sload\n      dup1\n      tag_164\n      jumpi\n      tag_165\n      tag_141\n      jump\t// in\n    tag_165:\n    tag_164:\n      0x01\n      swap1\n      sub\n      dup2\n      dup2\n      swap1\n      0x00\n      mstore\n      keccak256(0x00, 0x20)\n      swap1\n      0x08\n      mul\n      add\n      0x00\n      dup1\n      dup3\n      add\n      0x00\n      swap1\n      sstore\n      0x01\n      dup3\n      add\n      0x00\n      tag_167\n      swap2\n      swap1\n      tag_144\n      jump\t// in\n    tag_167:\n      0x02\n      dup3\n      add\n      0x00\n      swap1\n      sstore\n      0x03\n      dup3\n      add\n      exp(0x0100, 0x00)\n      dup2\n      sload\n      swap1\n      0xffffffffffffffffffffffffffffffffffffffff\n      mul\n      not\n      and\n      swap1\n      sstore\n      0x04\n      dup3\n      add\n      exp(0x0100, 0x00)\n      dup2\n      sload\n      swap1\n      0xffffffffffffffffffffffffffffffffffffffff\n      mul\n      not\n      and\n      swap1\n      sstore\n      0x05\n      dup3\n      add\n      0x00\n      swap1\n      sstore\n      0x06\n      dup3\n      add\n      0x00\n      swap1\n      sstore\n      0x07\n      dup3\n      add\n      0x00\n      swap1\n      sstore\n      pop\n      pop\n      swap1\n      sstore\n        /* \"crowdfunding.sol\":2365:2757  if(filterDataByStatus[1].length == 1){... */\n    tag_145:\n        /* \"crowdfunding.sol\":2767:2785  filterDataByStatus */\n      0x02\n        /* \"crowdfunding.sol\":2767:2788  filterDataByStatus[3] */\n      0x00\n        /* \"crowdfunding.sol\":2786:2787  3 */\n      0x03\n        /* \"crowdfunding.sol\":2767:2788  filterDataByStatus[3] */\n      dup2\n      mstore\n      0x20\n      add\n      swap1\n      dup2\n      mstore\n      0x20\n      add\n      0x00\n      keccak256\n        /* \"crowdfunding.sol\":2794:2798  list */\n      0x01\n        /* \"crowdfunding.sol\":2803:2804  1 */\n      dup1\n        /* \"crowdfunding.sol\":2799:2802  num */\n      dup4\n        /* \"crowdfunding.sol\":2799:2804  num-1 */\n      tag_168\n      swap2\n      swap1\n      tag_61\n      jump\t// in\n    tag_168:\n        /* \"crowdfunding.sol\":2794:2805  list[num-1] */\n      dup2\n      sload\n      dup2\n      lt\n      tag_169\n      jumpi\n      tag_170\n      tag_64\n      jump\t// in\n    tag_170:\n    tag_169:\n      swap1\n      0x00\n      mstore\n      keccak256(0x00, 0x20)\n      swap1\n      0x08\n      mul\n      add\n        /* \"crowdfunding.sol\":2767:2806  filterDataByStatus[3].push(list[num-1]) */\n      swap1\n      dup1\n      0x01\n      dup2\n      sload\n      add\n      dup1\n      dup3\n      sstore\n      dup1\n      swap2\n      pop\n      pop\n      0x01\n      swap1\n      sub\n      swap1\n      0x00\n      mstore\n      keccak256(0x00, 0x20)\n      swap1\n      0x08\n      mul\n      add\n      0x00\n      swap1\n      swap2\n      swap1\n      swap2\n      swap1\n      swap2\n      pop\n      0x00\n      dup3\n      add\n      sload\n      dup2\n      0x00\n      add\n      sstore\n      0x01\n      dup3\n      add\n      dup2\n      0x01\n      add\n      swap1\n      dup2\n      tag_173\n      swap2\n      swap1\n      tag_162\n      jump\t// in\n    tag_173:\n      pop\n      0x02\n      dup3\n      add\n      sload\n      dup2\n      0x02\n      add\n      sstore\n      0x03\n      dup3\n      add\n      0x00\n      swap1\n      sload\n      swap1\n      0x0100\n      exp\n      swap1\n      div\n      0xffffffffffffffffffffffffffffffffffffffff\n      and\n      dup2\n      0x03\n      add\n      exp(0x0100, 0x00)\n      dup2\n      sload\n      dup2\n      0xffffffffffffffffffffffffffffffffffffffff\n      mul\n      not\n      and\n      swap1\n      dup4\n      0xffffffffffffffffffffffffffffffffffffffff\n      and\n      mul\n      or\n      swap1\n      sstore\n      pop\n      0x04\n      dup3\n      add\n      0x00\n      swap1\n      sload\n      swap1\n      0x0100\n      exp\n      swap1\n      div\n      0xffffffffffffffffffffffffffffffffffffffff\n      and\n      dup2\n      0x04\n      add\n      exp(0x0100, 0x00)\n      dup2\n      sload\n      dup2\n      0xffffffffffffffffffffffffffffffffffffffff\n      mul\n      not\n      and\n      swap1\n      dup4\n      0xffffffffffffffffffffffffffffffffffffffff\n      and\n      mul\n      or\n      swap1\n      sstore\n      pop\n      0x05\n      dup3\n      add\n      sload\n      dup2\n      0x05\n      add\n      sstore\n      0x06\n      dup3\n      add\n      sload\n      dup2\n      0x06\n      add\n      sstore\n      0x07\n      dup3\n      add\n      sload\n      dup2\n      0x07\n      add\n      sstore\n      pop\n      pop\n        /* \"crowdfunding.sol\":2222:2814  function setStatus(uint num) public {... */\n      pop\n      jump\t// out\n        /* \"crowdfunding.sol\":835:861  Crowdfunding[] public list */\n    tag_32:\n      0x01\n      dup2\n      dup2\n      sload\n      dup2\n      lt\n      tag_174\n      jumpi\n      0x00\n      dup1\n      revert\n    tag_174:\n      swap1\n      0x00\n      mstore\n      keccak256(0x00, 0x20)\n      swap1\n      0x08\n      mul\n      add\n      0x00\n      swap2\n      pop\n      swap1\n      pop\n      dup1\n      0x00\n      add\n      sload\n      swap1\n      dup1\n      0x01\n      add\n      dup1\n      sload\n      tag_176\n      swap1\n      tag_54\n      jump\t// in\n    tag_176:\n      dup1\n      0x1f\n      add\n      0x20\n      dup1\n      swap2\n      div\n      mul\n      0x20\n      add\n      mload(0x40)\n      swap1\n      dup2\n      add\n      0x40\n      mstore\n      dup1\n      swap3\n      swap2\n      swap1\n      dup2\n      dup2\n      mstore\n      0x20\n      add\n      dup3\n      dup1\n      sload\n      tag_177\n      swap1\n      tag_54\n      jump\t// in\n    tag_177:\n      dup1\n      iszero\n      tag_178\n      jumpi\n      dup1\n      0x1f\n      lt\n      tag_179\n      jumpi\n      0x0100\n      dup1\n      dup4\n      sload\n      div\n      mul\n      dup4\n      mstore\n      swap2\n      0x20\n      add\n      swap2\n      jump(tag_178)\n    tag_179:\n      dup3\n      add\n      swap2\n      swap1\n      0x00\n      mstore\n      keccak256(0x00, 0x20)\n      swap1\n    tag_180:\n      dup2\n      sload\n      dup2\n      mstore\n      swap1\n      0x01\n      add\n      swap1\n      0x20\n      add\n      dup1\n      dup4\n      gt\n      tag_180\n      jumpi\n      dup3\n      swap1\n      sub\n      0x1f\n      and\n      dup3\n      add\n      swap2\n    tag_178:\n      pop\n      pop\n      pop\n      pop\n      pop\n      swap1\n      dup1\n      0x02\n      add\n      sload\n      swap1\n      dup1\n      0x03\n      add\n      0x00\n      swap1\n      sload\n      swap1\n      0x0100\n      exp\n      swap1\n      div\n      0xffffffffffffffffffffffffffffffffffffffff\n      and\n      swap1\n      dup1\n      0x04\n      add\n      0x00\n      swap1\n      sload\n      swap1\n      0x0100\n      exp\n      swap1\n      div\n      0xffffffffffffffffffffffffffffffffffffffff\n      and\n      swap1\n      dup1\n      0x05\n      add\n      sload\n      swap1\n      dup1\n      0x06\n      add\n      sload\n      swap1\n      dup1\n      0x07\n      add\n      sload\n      swap1\n      pop\n      dup9\n      jump\t// out\n        /* \"crowdfunding.sol\":4292:4475  function getCrowdfundingByStatus(uint _status) public view returns (Crowdfunding[] memory) {... */\n    tag_37:\n        /* \"crowdfunding.sol\":4360:4381  Crowdfunding[] memory */\n      0x60\n        /* \"crowdfunding.sol\":4408:4409  0 */\n      0x00\n        /* \"crowdfunding.sol\":4397:4404  _status */\n      dup3\n        /* \"crowdfunding.sol\":4397:4409  _status == 0 */\n      sub\n        /* \"crowdfunding.sol\":4394:4422  if(_status == 0) return list */\n      tag_182\n      jumpi\n        /* \"crowdfunding.sol\":4418:4422  list */\n      0x01\n        /* \"crowdfunding.sol\":4411:4422  return list */\n      dup1\n      sload\n      dup1\n      0x20\n      mul\n      0x20\n      add\n      mload(0x40)\n      swap1\n      dup2\n      add\n      0x40\n      mstore\n      dup1\n      swap3\n      swap2\n      swap1\n      dup2\n      dup2\n      mstore\n      0x20\n      add\n      0x00\n      swap1\n    tag_183:\n      dup3\n      dup3\n      lt\n      iszero\n      tag_184\n      jumpi\n      dup4\n      dup3\n      swap1\n      0x00\n      mstore\n      keccak256(0x00, 0x20)\n      swap1\n      0x08\n      mul\n      add\n      mload(0x40)\n      dup1\n      0x0100\n      add\n      0x40\n      mstore\n      swap1\n      dup2\n      0x00\n      dup3\n      add\n      sload\n      dup2\n      mstore\n      0x20\n      add\n      0x01\n      dup3\n      add\n      dup1\n      sload\n      tag_186\n      swap1\n      tag_54\n      jump\t// in\n    tag_186:\n      dup1\n      0x1f\n      add\n      0x20\n      dup1\n      swap2\n      div\n      mul\n      0x20\n      add\n      mload(0x40)\n      swap1\n      dup2\n      add\n      0x40\n      mstore\n      dup1\n      swap3\n      swap2\n      swap1\n      dup2\n      dup2\n      mstore\n      0x20\n      add\n      dup3\n      dup1\n      sload\n      tag_187\n      swap1\n      tag_54\n      jump\t// in\n    tag_187:\n      dup1\n      iszero\n      tag_188\n      jumpi\n      dup1\n      0x1f\n      lt\n      tag_189\n      jumpi\n      0x0100\n      dup1\n      dup4\n      sload\n      div\n      mul\n      dup4\n      mstore\n      swap2\n      0x20\n      add\n      swap2\n      jump(tag_188)\n    tag_189:\n      dup3\n      add\n      swap2\n      swap1\n      0x00\n      mstore\n      keccak256(0x00, 0x20)\n      swap1\n    tag_190:\n      dup2\n      sload\n      dup2\n      mstore\n      swap1\n      0x01\n      add\n      swap1\n      0x20\n      add\n      dup1\n      dup4\n      gt\n      tag_190\n      jumpi\n      dup3\n      swap1\n      sub\n      0x1f\n      and\n      dup3\n      add\n      swap2\n    tag_188:\n      pop\n      pop\n      pop\n      pop\n      pop\n      dup2\n      mstore\n      0x20\n      add\n      0x02\n      dup3\n      add\n      sload\n      dup2\n      mstore\n      0x20\n      add\n      0x03\n      dup3\n      add\n      0x00\n      swap1\n      sload\n      swap1\n      0x0100\n      exp\n      swap1\n      div\n      0xffffffffffffffffffffffffffffffffffffffff\n      and\n      0xffffffffffffffffffffffffffffffffffffffff\n      and\n      0xffffffffffffffffffffffffffffffffffffffff\n      and\n      dup2\n      mstore\n      0x20\n      add\n      0x04\n      dup3\n      add\n      0x00\n      swap1\n      sload\n      swap1\n      0x0100\n      exp\n      swap1\n      div\n      0xffffffffffffffffffffffffffffffffffffffff\n      and\n      0xffffffffffffffffffffffffffffffffffffffff\n      and\n      0xffffffffffffffffffffffffffffffffffffffff\n      and\n      dup2\n      mstore\n      0x20\n      add\n      0x05\n      dup3\n      add\n      sload\n      dup2\n      mstore\n      0x20\n      add\n      0x06\n      dup3\n      add\n      sload\n      dup2\n      mstore\n      0x20\n      add\n      0x07\n      dup3\n      add\n      sload\n      dup2\n      mstore\n      pop\n      pop\n      dup2\n      mstore\n      0x20\n      add\n      swap1\n      0x01\n      add\n      swap1\n      jump(tag_183)\n    tag_184:\n      pop\n      pop\n      pop\n      pop\n      swap1\n      pop\n      jump(tag_181)\n        /* \"crowdfunding.sol\":4394:4422  if(_status == 0) return list */\n    tag_182:\n        /* \"crowdfunding.sol\":4440:4458  filterDataByStatus */\n      0x02\n        /* \"crowdfunding.sol\":4440:4467  filterDataByStatus[_status] */\n      0x00\n        /* \"crowdfunding.sol\":4459:4466  _status */\n      dup4\n        /* \"crowdfunding.sol\":4440:4467  filterDataByStatus[_status] */\n      dup2\n      mstore\n      0x20\n      add\n      swap1\n      dup2\n      mstore\n      0x20\n      add\n      0x00\n      keccak256\n        /* \"crowdfunding.sol\":4433:4467  return filterDataByStatus[_status] */\n      dup1\n      sload\n      dup1\n      0x20\n      mul\n      0x20\n      add\n      mload(0x40)\n      swap1\n      dup2\n      add\n      0x40\n      mstore\n      dup1\n      swap3\n      swap2\n      swap1\n      dup2\n      dup2\n      mstore\n      0x20\n      add\n      0x00\n      swap1\n    tag_191:\n      dup3\n      dup3\n      lt\n      iszero\n      tag_192\n      jumpi\n      dup4\n      dup3\n      swap1\n      0x00\n      mstore\n      keccak256(0x00, 0x20)\n      swap1\n      0x08\n      mul\n      add\n      mload(0x40)\n      dup1\n      0x0100\n      add\n      0x40\n      mstore\n      swap1\n      dup2\n      0x00\n      dup3\n      add\n      sload\n      dup2\n      mstore\n      0x20\n      add\n      0x01\n      dup3\n      add\n      dup1\n      sload\n      tag_194\n      swap1\n      tag_54\n      jump\t// in\n    tag_194:\n      dup1\n      0x1f\n      add\n      0x20\n      dup1\n      swap2\n      div\n      mul\n      0x20\n      add\n      mload(0x40)\n      swap1\n      dup2\n      add\n      0x40\n      mstore\n      dup1\n      swap3\n      swap2\n      swap1\n      dup2\n      dup2\n      mstore\n      0x20\n      add\n      dup3\n      dup1\n      sload\n      tag_195\n      swap1\n      tag_54\n      jump\t// in\n    tag_195:\n      dup1\n      iszero\n      tag_196\n      jumpi\n      dup1\n      0x1f\n      lt\n      tag_197\n      jumpi\n      0x0100\n      dup1\n      dup4\n      sload\n      div\n      mul\n      dup4\n      mstore\n      swap2\n      0x20\n      add\n      swap2\n      jump(tag_196)\n    tag_197:\n      dup3\n      add\n      swap2\n      swap1\n      0x00\n      mstore\n      keccak256(0x00, 0x20)\n      swap1\n    tag_198:\n      dup2\n      sload\n      dup2\n      mstore\n      swap1\n      0x01\n      add\n      swap1\n      0x20\n      add\n      dup1\n      dup4\n      gt\n      tag_198\n      jumpi\n      dup3\n      swap1\n      sub\n      0x1f\n      and\n      dup3\n      add\n      swap2\n    tag_196:\n      pop\n      pop\n      pop\n      pop\n      pop\n      dup2\n      mstore\n      0x20\n      add\n      0x02\n      dup3\n      add\n      sload\n      dup2\n      mstore\n      0x20\n      add\n      0x03\n      dup3\n      add\n      0x00\n      swap1\n      sload\n      swap1\n      0x0100\n      exp\n      swap1\n      div\n      0xffffffffffffffffffffffffffffffffffffffff\n      and\n      0xffffffffffffffffffffffffffffffffffffffff\n      and\n      0xffffffffffffffffffffffffffffffffffffffff\n      and\n      dup2\n      mstore\n      0x20\n      add\n      0x04\n      dup3\n      add\n      0x00\n      swap1\n      sload\n      swap1\n      0x0100\n      exp\n      swap1\n      div\n      0xffffffffffffffffffffffffffffffffffffffff\n      and\n      0xffffffffffffffffffffffffffffffffffffffff\n      and\n      0xffffffffffffffffffffffffffffffffffffffff\n      and\n      dup2\n      mstore\n      0x20\n      add\n      0x05\n      dup3\n      add\n      sload\n      dup2\n      mstore\n      0x20\n      add\n      0x06\n      dup3\n      add\n      sload\n      dup2\n      mstore\n      0x20\n      add\n      0x07\n      dup3\n      add\n      sload\n      dup2\n      mstore\n      pop\n      pop\n      dup2\n      mstore\n      0x20\n      add\n      swap1\n      0x01\n      add\n      swap1\n      jump(tag_191)\n    tag_192:\n      pop\n      pop\n      pop\n      pop\n      swap1\n      pop\n        /* \"crowdfunding.sol\":4292:4475  function getCrowdfundingByStatus(uint _status) public view returns (Crowdfunding[] memory) {... */\n    tag_181:\n      swap2\n      swap1\n      pop\n      jump\t// out\n        /* \"crowdfunding.sol\":1538:2143  function createCrowdfunding(string memory _title,address _recipient, uint _expectAmout) public {... */\n    tag_42:\n        /* \"crowdfunding.sol\":1644:1646  No */\n      0x00\n      dup1\n        /* \"crowdfunding.sol\":1644:1648  No++ */\n      dup2\n      sload\n      dup1\n      swap3\n      swap2\n      swap1\n      tag_200\n      swap1\n      tag_102\n      jump\t// in\n    tag_200:\n      swap2\n      swap1\n      pop\n      sstore\n      pop\n        /* \"crowdfunding.sol\":1659:1680  Crowdfunding memory c */\n      0x00\n        /* \"crowdfunding.sol\":1683:1953  Crowdfunding({... */\n      mload(0x40)\n      dup1\n      0x0100\n      add\n      0x40\n      mstore\n      dup1\n        /* \"crowdfunding.sol\":1716:1718  No */\n      sload(0x00)\n        /* \"crowdfunding.sol\":1683:1953  Crowdfunding({... */\n      dup2\n      mstore\n      0x20\n      add\n        /* \"crowdfunding.sol\":1739:1745  _title */\n      dup6\n        /* \"crowdfunding.sol\":1683:1953  Crowdfunding({... */\n      dup2\n      mstore\n      0x20\n      add\n        /* \"crowdfunding.sol\":1768:1769  1 */\n      0x01\n        /* \"crowdfunding.sol\":1683:1953  Crowdfunding({... */\n      dup2\n      mstore\n      0x20\n      add\n        /* \"crowdfunding.sol\":1793:1803  msg.sender */\n      caller\n        /* \"crowdfunding.sol\":1683:1953  Crowdfunding({... */\n      0xffffffffffffffffffffffffffffffffffffffff\n      and\n      dup2\n      mstore\n      0x20\n      add\n        /* \"crowdfunding.sol\":1829:1839  _recipient */\n      dup5\n        /* \"crowdfunding.sol\":1683:1953  Crowdfunding({... */\n      0xffffffffffffffffffffffffffffffffffffffff\n      and\n      dup2\n      mstore\n      0x20\n      add\n        /* \"crowdfunding.sol\":1863:1864  0 */\n      0x00\n        /* \"crowdfunding.sol\":1683:1953  Crowdfunding({... */\n      dup2\n      mstore\n      0x20\n      add\n        /* \"crowdfunding.sol\":1899:1911  _expectAmout */\n      dup4\n        /* \"crowdfunding.sol\":1683:1953  Crowdfunding({... */\n      dup2\n      mstore\n      0x20\n      add\n        /* \"crowdfunding.sol\":1940:1941  0 */\n      0x00\n        /* \"crowdfunding.sol\":1683:1953  Crowdfunding({... */\n      dup2\n      mstore\n      pop\n        /* \"crowdfunding.sol\":1659:1953  Crowdfunding memory c = Crowdfunding({... */\n      swap1\n      pop\n        /* \"crowdfunding.sol\":1964:1968  list */\n      0x01\n        /* \"crowdfunding.sol\":1974:1975  c */\n      dup2\n        /* \"crowdfunding.sol\":1964:1976  list.push(c) */\n      swap1\n      dup1\n      0x01\n      dup2\n      sload\n      add\n      dup1\n      dup3\n      sstore\n      dup1\n      swap2\n      pop\n      pop\n      0x01\n      swap1\n      sub\n      swap1\n      0x00\n      mstore\n      keccak256(0x00, 0x20)\n      swap1\n      0x08\n      mul\n      add\n      0x00\n      swap1\n      swap2\n      swap1\n      swap2\n      swap1\n      swap2\n      pop\n      0x00\n      dup3\n      add\n      mload\n      dup2\n      0x00\n      add\n      sstore\n      0x20\n      dup3\n      add\n      mload\n      dup2\n      0x01\n      add\n      swap1\n      dup2\n      tag_202\n      swap2\n      swap1\n      tag_67\n      jump\t// in\n    tag_202:\n      pop\n      0x40\n      dup3\n      add\n      mload\n      dup2\n      0x02\n      add\n      sstore\n      0x60\n      dup3\n      add\n      mload\n      dup2\n      0x03\n      add\n      exp(0x0100, 0x00)\n      dup2\n      sload\n      dup2\n      0xffffffffffffffffffffffffffffffffffffffff\n      mul\n      not\n      and\n      swap1\n      dup4\n      0xffffffffffffffffffffffffffffffffffffffff\n      and\n      mul\n      or\n      swap1\n      sstore\n      pop\n      0x80\n      dup3\n      add\n      mload\n      dup2\n      0x04\n      add\n      exp(0x0100, 0x00)\n      dup2\n      sload\n      dup2\n      0xffffffffffffffffffffffffffffffffffffffff\n      mul\n      not\n      and\n      swap1\n      dup4\n      0xffffffffffffffffffffffffffffffffffffffff\n      and\n      mul\n      or\n      swap1\n      sstore\n      pop\n      0xa0\n      dup3\n      add\n      mload\n      dup2\n      0x05\n      add\n      sstore\n      0xc0\n      dup3\n      add\n      mload\n      dup2\n      0x06\n      add\n      sstore\n      0xe0\n      dup3\n      add\n      mload\n      dup2\n      0x07\n      add\n      sstore\n      pop\n      pop\n        /* \"crowdfunding.sol\":2061:2079  filterDataByStatus */\n      0x02\n        /* \"crowdfunding.sol\":2061:2082  filterDataByStatus[1] */\n      0x00\n        /* \"crowdfunding.sol\":2080:2081  1 */\n      0x01\n        /* \"crowdfunding.sol\":2061:2082  filterDataByStatus[1] */\n      dup2\n      mstore\n      0x20\n      add\n      swap1\n      dup2\n      mstore\n      0x20\n      add\n      0x00\n      keccak256\n        /* \"crowdfunding.sol\":2088:2089  c */\n      dup2\n        /* \"crowdfunding.sol\":2061:2090  filterDataByStatus[1].push(c) */\n      swap1\n      dup1\n      0x01\n      dup2\n      sload\n      add\n      dup1\n      dup3\n      sstore\n      dup1\n      swap2\n      pop\n      pop\n      0x01\n      swap1\n      sub\n      swap1\n      0x00\n      mstore\n      keccak256(0x00, 0x20)\n      swap1\n      0x08\n      mul\n      add\n      0x00\n      swap1\n      swap2\n      swap1\n      swap2\n      swap1\n      swap2\n      pop\n      0x00\n      dup3\n      add\n      mload\n      dup2\n      0x00\n      add\n      sstore\n      0x20\n      dup3\n      add\n      mload\n      dup2\n      0x01\n      add\n      swap1\n      dup2\n      tag_204\n      swap2\n      swap1\n      tag_67\n      jump\t// in\n    tag_204:\n      pop\n      0x40\n      dup3\n      add\n      mload\n      dup2\n      0x02\n      add\n      sstore\n      0x60\n      dup3\n      add\n      mload\n      dup2\n      0x03\n      add\n      exp(0x0100, 0x00)\n      dup2\n      sload\n      dup2\n      0xffffffffffffffffffffffffffffffffffffffff\n      mul\n      not\n      and\n      swap1\n      dup4\n      0xffffffffffffffffffffffffffffffffffffffff\n      and\n      mul\n      or\n      swap1\n      sstore\n      pop\n      0x80\n      dup3\n      add\n      mload\n      dup2\n      0x04\n      add\n      exp(0x0100, 0x00)\n      dup2\n      sload\n      dup2\n      0xffffffffffffffffffffffffffffffffffffffff\n      mul\n      not\n      and\n      swap1\n      dup4\n      0xffffffffffffffffffffffffffffffffffffffff\n      and\n      mul\n      or\n      swap1\n      sstore\n      pop\n      0xa0\n      dup3\n      add\n      mload\n      dup2\n      0x05\n      add\n      sstore\n      0xc0\n      dup3\n      add\n      mload\n      dup2\n      0x06\n      add\n      sstore\n      0xe0\n      dup3\n      add\n      mload\n      dup2\n      0x07\n      add\n      sstore\n      pop\n      pop\n        /* \"crowdfunding.sol\":2101:2115  myCrowdfunding */\n      0x03\n        /* \"crowdfunding.sol\":2101:2127  myCrowdfunding[msg.sender] */\n      0x00\n        /* \"crowdfunding.sol\":2116:2126  msg.sender */\n      caller\n        /* \"crowdfunding.sol\":2101:2127  myCrowdfunding[msg.sender] */\n      0xffffffffffffffffffffffffffffffffffffffff\n      and\n      0xffffffffffffffffffffffffffffffffffffffff\n      and\n      dup2\n      mstore\n      0x20\n      add\n      swap1\n      dup2\n      mstore\n      0x20\n      add\n      0x00\n      keccak256\n        /* \"crowdfunding.sol\":2133:2134  c */\n      dup2\n        /* \"crowdfunding.sol\":2101:2135  myCrowdfunding[msg.sender].push(c) */\n      swap1\n      dup1\n      0x01\n      dup2\n      sload\n      add\n      dup1\n      dup3\n      sstore\n      dup1\n      swap2\n      pop\n      pop\n      0x01\n      swap1\n      sub\n      swap1\n      0x00\n      mstore\n      keccak256(0x00, 0x20)\n      swap1\n      0x08\n      mul\n      add\n      0x00\n      swap1\n      swap2\n      swap1\n      swap2\n      swap1\n      swap2\n      pop\n      0x00\n      dup3\n      add\n      mload\n      dup2\n      0x00\n      add\n      sstore\n      0x20\n      dup3\n      add\n      mload\n      dup2\n      0x01\n      add\n      swap1\n      dup2\n      tag_206\n      swap2\n      swap1\n      tag_67\n      jump\t// in\n    tag_206:\n      pop\n      0x40\n      dup3\n      add\n      mload\n      dup2\n      0x02\n      add\n      sstore\n      0x60\n      dup3\n      add\n      mload\n      dup2\n      0x03\n      add\n      exp(0x0100, 0x00)\n      dup2\n      sload\n      dup2\n      0xffffffffffffffffffffffffffffffffffffffff\n      mul\n      not\n      and\n      swap1\n      dup4\n      0xffffffffffffffffffffffffffffffffffffffff\n      and\n      mul\n      or\n      swap1\n      sstore\n      pop\n      0x80\n      dup3\n      add\n      mload\n      dup2\n      0x04\n      add\n      exp(0x0100, 0x00)\n      dup2\n      sload\n      dup2\n      0xffffffffffffffffffffffffffffffffffffffff\n      mul\n      not\n      and\n      swap1\n      dup4\n      0xffffffffffffffffffffffffffffffffffffffff\n      and\n      mul\n      or\n      swap1\n      sstore\n      pop\n      0xa0\n      dup3\n      add\n      mload\n      dup2\n      0x05\n      add\n      sstore\n      0xc0\n      dup3\n      add\n      mload\n      dup2\n      0x06\n      add\n      sstore\n      0xe0\n      dup3\n      add\n      mload\n      dup2\n      0x07\n      add\n      sstore\n      pop\n      pop\n        /* \"crowdfunding.sol\":1633:2143  {... */\n      pop\n        /* \"crowdfunding.sol\":1538:2143  function createCrowdfunding(string memory _title,address _recipient, uint _expectAmout) public {... */\n      pop\n      pop\n      pop\n      jump\t// out\n        /* \"crowdfunding.sol\":1160:1530  function stringToInt(string memory s) public pure returns (uint){... */\n    tag_46:\n        /* \"crowdfunding.sol\":1219:1223  uint */\n      0x00\n        /* \"crowdfunding.sol\":1235:1249  bytes memory b */\n      dup1\n        /* \"crowdfunding.sol\":1258:1259  s */\n      dup3\n        /* \"crowdfunding.sol\":1235:1260  bytes memory b = bytes(s) */\n      swap1\n      pop\n        /* \"crowdfunding.sol\":1271:1282  uint result */\n      0x00\n        /* \"crowdfunding.sol\":1302:1311  uint256 i */\n      dup1\n        /* \"crowdfunding.sol\":1297:1499  for (uint256 i = 0; i < b.length; i++) {... */\n    tag_208:\n        /* \"crowdfunding.sol\":1321:1322  b */\n      dup3\n        /* \"crowdfunding.sol\":1321:1329  b.length */\n      mload\n        /* \"crowdfunding.sol\":1317:1318  i */\n      dup2\n        /* \"crowdfunding.sol\":1317:1329  i < b.length */\n      lt\n        /* \"crowdfunding.sol\":1297:1499  for (uint256 i = 0; i < b.length; i++) {... */\n      iszero\n      tag_209\n      jumpi\n        /* \"crowdfunding.sol\":1351:1360  uint256 c */\n      0x00\n        /* \"crowdfunding.sol\":1377:1378  b */\n      dup4\n        /* \"crowdfunding.sol\":1379:1380  i */\n      dup3\n        /* \"crowdfunding.sol\":1377:1381  b[i] */\n      dup2\n      mload\n      dup2\n      lt\n      tag_211\n      jumpi\n      tag_212\n      tag_64\n      jump\t// in\n    tag_212:\n    tag_211:\n      0x20\n      add\n      add\n      mload\n      0xf8\n      shr\n      0xf8\n      shl\n        /* \"crowdfunding.sol\":1371:1382  uint8(b[i]) */\n      0xf8\n      shr\n        /* \"crowdfunding.sol\":1363:1383  uint256(uint8(b[i])) */\n      0xff\n      and\n        /* \"crowdfunding.sol\":1351:1383  uint256 c = uint256(uint8(b[i])) */\n      swap1\n      pop\n        /* \"crowdfunding.sol\":1407:1409  48 */\n      0x30\n        /* \"crowdfunding.sol\":1402:1403  c */\n      dup2\n        /* \"crowdfunding.sol\":1402:1409  c >= 48 */\n      lt\n      iszero\n        /* \"crowdfunding.sol\":1402:1420  c >= 48 && c <= 57 */\n      dup1\n      iszero\n      tag_213\n      jumpi\n      pop\n        /* \"crowdfunding.sol\":1418:1420  57 */\n      0x39\n        /* \"crowdfunding.sol\":1413:1414  c */\n      dup2\n        /* \"crowdfunding.sol\":1413:1420  c <= 57 */\n      gt\n      iszero\n        /* \"crowdfunding.sol\":1402:1420  c >= 48 && c <= 57 */\n    tag_213:\n        /* \"crowdfunding.sol\":1398:1488  if (c >= 48 && c <= 57) {... */\n      iszero\n      tag_214\n      jumpi\n        /* \"crowdfunding.sol\":1469:1471  48 */\n      0x30\n        /* \"crowdfunding.sol\":1465:1466  c */\n      dup2\n        /* \"crowdfunding.sol\":1465:1471  c - 48 */\n      tag_215\n      swap2\n      swap1\n      tag_61\n      jump\t// in\n    tag_215:\n        /* \"crowdfunding.sol\":1459:1461  10 */\n      0x0a\n        /* \"crowdfunding.sol\":1450:1456  result */\n      dup5\n        /* \"crowdfunding.sol\":1450:1461  result * 10 */\n      tag_216\n      swap2\n      swap1\n      tag_217\n      jump\t// in\n    tag_216:\n        /* \"crowdfunding.sol\":1450:1472  result * 10 + (c - 48) */\n      tag_218\n      swap2\n      swap1\n      tag_83\n      jump\t// in\n    tag_218:\n        /* \"crowdfunding.sol\":1441:1472  result = result * 10 + (c - 48) */\n      swap3\n      pop\n        /* \"crowdfunding.sol\":1398:1488  if (c >= 48 && c <= 57) {... */\n    tag_214:\n        /* \"crowdfunding.sol\":1336:1499  {... */\n      pop\n        /* \"crowdfunding.sol\":1331:1334  i++ */\n      dup1\n      dup1\n      tag_219\n      swap1\n      tag_102\n      jump\t// in\n    tag_219:\n      swap2\n      pop\n      pop\n        /* \"crowdfunding.sol\":1297:1499  for (uint256 i = 0; i < b.length; i++) {... */\n      jump(tag_208)\n    tag_209:\n      pop\n        /* \"crowdfunding.sol\":1516:1522  result */\n      dup1\n        /* \"crowdfunding.sol\":1509:1522  return result */\n      swap3\n      pop\n      pop\n      pop\n        /* \"crowdfunding.sol\":1160:1530  function stringToInt(string memory s) public pure returns (uint){... */\n      swap2\n      swap1\n      pop\n      jump\t// out\n    tag_144:\n      pop\n      dup1\n      sload\n      tag_220\n      swap1\n      tag_54\n      jump\t// in\n    tag_220:\n      0x00\n      dup3\n      sstore\n      dup1\n      0x1f\n      lt\n      tag_222\n      jumpi\n      pop\n      jump(tag_221)\n    tag_222:\n      0x1f\n      add\n      0x20\n      swap1\n      div\n      swap1\n      0x00\n      mstore\n      keccak256(0x00, 0x20)\n      swap1\n      dup2\n      add\n      swap1\n      tag_223\n      swap2\n      swap1\n      tag_224\n      jump\t// in\n    tag_223:\n    tag_221:\n      pop\n      jump\t// out\n    tag_224:\n    tag_225:\n      dup1\n      dup3\n      gt\n      iszero\n      tag_226\n      jumpi\n      0x00\n      dup2\n      0x00\n      swap1\n      sstore\n      pop\n      0x01\n      add\n      jump(tag_225)\n    tag_226:\n      pop\n      swap1\n      jump\t// out\n        /* \"#utility.yul\":7:82   */\n    tag_227:\n        /* \"#utility.yul\":40:46   */\n      0x00\n        /* \"#utility.yul\":73:75   */\n      0x40\n        /* \"#utility.yul\":67:76   */\n      mload\n        /* \"#utility.yul\":57:76   */\n      swap1\n      pop\n        /* \"#utility.yul\":7:82   */\n      swap1\n      jump\t// out\n        /* \"#utility.yul\":88:205   */\n    tag_228:\n        /* \"#utility.yul\":197:198   */\n      0x00\n        /* \"#utility.yul\":194:195   */\n      dup1\n        /* \"#utility.yul\":187:199   */\n      revert\n        /* \"#utility.yul\":211:328   */\n    tag_229:\n        /* \"#utility.yul\":320:321   */\n      0x00\n        /* \"#utility.yul\":317:318   */\n      dup1\n        /* \"#utility.yul\":310:322   */\n      revert\n        /* \"#utility.yul\":334:460   */\n    tag_230:\n        /* \"#utility.yul\":371:378   */\n      0x00\n        /* \"#utility.yul\":411:453   */\n      0xffffffffffffffffffffffffffffffffffffffff\n        /* \"#utility.yul\":404:409   */\n      dup3\n        /* \"#utility.yul\":400:454   */\n      and\n        /* \"#utility.yul\":389:454   */\n      swap1\n      pop\n        /* \"#utility.yul\":334:460   */\n      swap2\n      swap1\n      pop\n      jump\t// out\n        /* \"#utility.yul\":466:562   */\n    tag_231:\n        /* \"#utility.yul\":503:510   */\n      0x00\n        /* \"#utility.yul\":532:556   */\n      tag_292\n        /* \"#utility.yul\":550:555   */\n      dup3\n        /* \"#utility.yul\":532:556   */\n      tag_230\n      jump\t// in\n    tag_292:\n        /* \"#utility.yul\":521:556   */\n      swap1\n      pop\n        /* \"#utility.yul\":466:562   */\n      swap2\n      swap1\n      pop\n      jump\t// out\n        /* \"#utility.yul\":568:690   */\n    tag_232:\n        /* \"#utility.yul\":641:665   */\n      tag_294\n        /* \"#utility.yul\":659:664   */\n      dup2\n        /* \"#utility.yul\":641:665   */\n      tag_231\n      jump\t// in\n    tag_294:\n        /* \"#utility.yul\":634:639   */\n      dup2\n        /* \"#utility.yul\":631:666   */\n      eq\n        /* \"#utility.yul\":621:684   */\n      tag_295\n      jumpi\n        /* \"#utility.yul\":680:681   */\n      0x00\n        /* \"#utility.yul\":677:678   */\n      dup1\n        /* \"#utility.yul\":670:682   */\n      revert\n        /* \"#utility.yul\":621:684   */\n    tag_295:\n        /* \"#utility.yul\":568:690   */\n      pop\n      jump\t// out\n        /* \"#utility.yul\":696:835   */\n    tag_233:\n        /* \"#utility.yul\":742:747   */\n      0x00\n        /* \"#utility.yul\":780:786   */\n      dup2\n        /* \"#utility.yul\":767:787   */\n      calldataload\n        /* \"#utility.yul\":758:787   */\n      swap1\n      pop\n        /* \"#utility.yul\":796:829   */\n      tag_297\n        /* \"#utility.yul\":823:828   */\n      dup2\n        /* \"#utility.yul\":796:829   */\n      tag_232\n      jump\t// in\n    tag_297:\n        /* \"#utility.yul\":696:835   */\n      swap3\n      swap2\n      pop\n      pop\n      jump\t// out\n        /* \"#utility.yul\":841:1170   */\n    tag_14:\n        /* \"#utility.yul\":900:906   */\n      0x00\n        /* \"#utility.yul\":949:951   */\n      0x20\n        /* \"#utility.yul\":937:946   */\n      dup3\n        /* \"#utility.yul\":928:935   */\n      dup5\n        /* \"#utility.yul\":924:947   */\n      sub\n        /* \"#utility.yul\":920:952   */\n      slt\n        /* \"#utility.yul\":917:1036   */\n      iszero\n      tag_299\n      jumpi\n        /* \"#utility.yul\":955:1034   */\n      tag_300\n      tag_228\n      jump\t// in\n    tag_300:\n        /* \"#utility.yul\":917:1036   */\n    tag_299:\n        /* \"#utility.yul\":1075:1076   */\n      0x00\n        /* \"#utility.yul\":1100:1153   */\n      tag_301\n        /* \"#utility.yul\":1145:1152   */\n      dup5\n        /* \"#utility.yul\":1136:1142   */\n      dup3\n        /* \"#utility.yul\":1125:1134   */\n      dup6\n        /* \"#utility.yul\":1121:1143   */\n      add\n        /* \"#utility.yul\":1100:1153   */\n      tag_233\n      jump\t// in\n    tag_301:\n        /* \"#utility.yul\":1090:1153   */\n      swap2\n      pop\n        /* \"#utility.yul\":1046:1163   */\n      pop\n        /* \"#utility.yul\":841:1170   */\n      swap3\n      swap2\n      pop\n      pop\n      jump\t// out\n        /* \"#utility.yul\":1176:1318   */\n    tag_234:\n        /* \"#utility.yul\":1271:1277   */\n      0x00\n        /* \"#utility.yul\":1305:1310   */\n      dup2\n        /* \"#utility.yul\":1299:1311   */\n      mload\n        /* \"#utility.yul\":1289:1311   */\n      swap1\n      pop\n        /* \"#utility.yul\":1176:1318   */\n      swap2\n      swap1\n      pop\n      jump\t// out\n        /* \"#utility.yul\":1324:1536   */\n    tag_235:\n        /* \"#utility.yul\":1451:1462   */\n      0x00\n        /* \"#utility.yul\":1485:1491   */\n      dup3\n        /* \"#utility.yul\":1480:1483   */\n      dup3\n        /* \"#utility.yul\":1473:1492   */\n      mstore\n        /* \"#utility.yul\":1525:1529   */\n      0x20\n        /* \"#utility.yul\":1520:1523   */\n      dup3\n        /* \"#utility.yul\":1516:1530   */\n      add\n        /* \"#utility.yul\":1501:1530   */\n      swap1\n      pop\n        /* \"#utility.yul\":1324:1536   */\n      swap3\n      swap2\n      pop\n      pop\n      jump\t// out\n        /* \"#utility.yul\":1542:1702   */\n    tag_236:\n        /* \"#utility.yul\":1637:1641   */\n      0x00\n        /* \"#utility.yul\":1660:1663   */\n      dup2\n        /* \"#utility.yul\":1652:1663   */\n      swap1\n      pop\n        /* \"#utility.yul\":1690:1694   */\n      0x20\n        /* \"#utility.yul\":1685:1688   */\n      dup3\n        /* \"#utility.yul\":1681:1695   */\n      add\n        /* \"#utility.yul\":1673:1695   */\n      swap1\n      pop\n        /* \"#utility.yul\":1542:1702   */\n      swap2\n      swap1\n      pop\n      jump\t// out\n        /* \"#utility.yul\":1708:1785   */\n    tag_237:\n        /* \"#utility.yul\":1745:1752   */\n      0x00\n        /* \"#utility.yul\":1774:1779   */\n      dup2\n        /* \"#utility.yul\":1763:1779   */\n      swap1\n      pop\n        /* \"#utility.yul\":1708:1785   */\n      swap2\n      swap1\n      pop\n      jump\t// out\n        /* \"#utility.yul\":1791:1899   */\n    tag_238:\n        /* \"#utility.yul\":1868:1892   */\n      tag_307\n        /* \"#utility.yul\":1886:1891   */\n      dup2\n        /* \"#utility.yul\":1868:1892   */\n      tag_237\n      jump\t// in\n    tag_307:\n        /* \"#utility.yul\":1863:1866   */\n      dup3\n        /* \"#utility.yul\":1856:1893   */\n      mstore\n        /* \"#utility.yul\":1791:1899   */\n      pop\n      pop\n      jump\t// out\n        /* \"#utility.yul\":1905:2004   */\n    tag_239:\n        /* \"#utility.yul\":1957:1963   */\n      0x00\n        /* \"#utility.yul\":1991:1996   */\n      dup2\n        /* \"#utility.yul\":1985:1997   */\n      mload\n        /* \"#utility.yul\":1975:1997   */\n      swap1\n      pop\n        /* \"#utility.yul\":1905:2004   */\n      swap2\n      swap1\n      pop\n      jump\t// out\n        /* \"#utility.yul\":2010:2169   */\n    tag_240:\n        /* \"#utility.yul\":2084:2095   */\n      0x00\n        /* \"#utility.yul\":2118:2124   */\n      dup3\n        /* \"#utility.yul\":2113:2116   */\n      dup3\n        /* \"#utility.yul\":2106:2125   */\n      mstore\n        /* \"#utility.yul\":2158:2162   */\n      0x20\n        /* \"#utility.yul\":2153:2156   */\n      dup3\n        /* \"#utility.yul\":2149:2163   */\n      add\n        /* \"#utility.yul\":2134:2163   */\n      swap1\n      pop\n        /* \"#utility.yul\":2010:2169   */\n      swap3\n      swap2\n      pop\n      pop\n      jump\t// out\n        /* \"#utility.yul\":2175:2421   */\n    tag_241:\n        /* \"#utility.yul\":2256:2257   */\n      0x00\n        /* \"#utility.yul\":2266:2379   */\n    tag_311:\n        /* \"#utility.yul\":2280:2286   */\n      dup4\n        /* \"#utility.yul\":2277:2278   */\n      dup2\n        /* \"#utility.yul\":2274:2287   */\n      lt\n        /* \"#utility.yul\":2266:2379   */\n      iszero\n      tag_313\n      jumpi\n        /* \"#utility.yul\":2365:2366   */\n      dup1\n        /* \"#utility.yul\":2360:2363   */\n      dup3\n        /* \"#utility.yul\":2356:2367   */\n      add\n        /* \"#utility.yul\":2350:2368   */\n      mload\n        /* \"#utility.yul\":2346:2347   */\n      dup2\n        /* \"#utility.yul\":2341:2344   */\n      dup5\n        /* \"#utility.yul\":2337:2348   */\n      add\n        /* \"#utility.yul\":2330:2369   */\n      mstore\n        /* \"#utility.yul\":2302:2304   */\n      0x20\n        /* \"#utility.yul\":2299:2300   */\n      dup2\n        /* \"#utility.yul\":2295:2305   */\n      add\n        /* \"#utility.yul\":2290:2305   */\n      swap1\n      pop\n        /* \"#utility.yul\":2266:2379   */\n      jump(tag_311)\n    tag_313:\n        /* \"#utility.yul\":2413:2414   */\n      0x00\n        /* \"#utility.yul\":2404:2410   */\n      dup5\n        /* \"#utility.yul\":2399:2402   */\n      dup5\n        /* \"#utility.yul\":2395:2411   */\n      add\n        /* \"#utility.yul\":2388:2415   */\n      mstore\n        /* \"#utility.yul\":2237:2421   */\n      pop\n        /* \"#utility.yul\":2175:2421   */\n      pop\n      pop\n      pop\n      jump\t// out\n        /* \"#utility.yul\":2427:2529   */\n    tag_242:\n        /* \"#utility.yul\":2468:2474   */\n      0x00\n        /* \"#utility.yul\":2519:2521   */\n      0x1f\n        /* \"#utility.yul\":2515:2522   */\n      not\n        /* \"#utility.yul\":2510:2512   */\n      0x1f\n        /* \"#utility.yul\":2503:2508   */\n      dup4\n        /* \"#utility.yul\":2499:2513   */\n      add\n        /* \"#utility.yul\":2495:2523   */\n      and\n        /* \"#utility.yul\":2485:2523   */\n      swap1\n      pop\n        /* \"#utility.yul\":2427:2529   */\n      swap2\n      swap1\n      pop\n      jump\t// out\n        /* \"#utility.yul\":2535:2892   */\n    tag_243:\n        /* \"#utility.yul\":2613:2616   */\n      0x00\n        /* \"#utility.yul\":2641:2680   */\n      tag_316\n        /* \"#utility.yul\":2674:2679   */\n      dup3\n        /* \"#utility.yul\":2641:2680   */\n      tag_239\n      jump\t// in\n    tag_316:\n        /* \"#utility.yul\":2696:2757   */\n      tag_317\n        /* \"#utility.yul\":2750:2756   */\n      dup2\n        /* \"#utility.yul\":2745:2748   */\n      dup6\n        /* \"#utility.yul\":2696:2757   */\n      tag_240\n      jump\t// in\n    tag_317:\n        /* \"#utility.yul\":2689:2757   */\n      swap4\n      pop\n        /* \"#utility.yul\":2766:2831   */\n      tag_318\n        /* \"#utility.yul\":2824:2830   */\n      dup2\n        /* \"#utility.yul\":2819:2822   */\n      dup6\n        /* \"#utility.yul\":2812:2816   */\n      0x20\n        /* \"#utility.yul\":2805:2810   */\n      dup7\n        /* \"#utility.yul\":2801:2817   */\n      add\n        /* \"#utility.yul\":2766:2831   */\n      tag_241\n      jump\t// in\n    tag_318:\n        /* \"#utility.yul\":2856:2885   */\n      tag_319\n        /* \"#utility.yul\":2878:2884   */\n      dup2\n        /* \"#utility.yul\":2856:2885   */\n      tag_242\n      jump\t// in\n    tag_319:\n        /* \"#utility.yul\":2851:2854   */\n      dup5\n        /* \"#utility.yul\":2847:2886   */\n      add\n        /* \"#utility.yul\":2840:2886   */\n      swap2\n      pop\n        /* \"#utility.yul\":2617:2892   */\n      pop\n        /* \"#utility.yul\":2535:2892   */\n      swap3\n      swap2\n      pop\n      pop\n      jump\t// out\n        /* \"#utility.yul\":2898:3006   */\n    tag_244:\n        /* \"#utility.yul\":2975:2999   */\n      tag_321\n        /* \"#utility.yul\":2993:2998   */\n      dup2\n        /* \"#utility.yul\":2975:2999   */\n      tag_231\n      jump\t// in\n    tag_321:\n        /* \"#utility.yul\":2970:2973   */\n      dup3\n        /* \"#utility.yul\":2963:3000   */\n      mstore\n        /* \"#utility.yul\":2898:3006   */\n      pop\n      pop\n      jump\t// out\n        /* \"#utility.yul\":3104:4780   */\n    tag_245:\n        /* \"#utility.yul\":3219:3222   */\n      0x00\n        /* \"#utility.yul\":3255:3261   */\n      0x0100\n        /* \"#utility.yul\":3250:3253   */\n      dup4\n        /* \"#utility.yul\":3246:3262   */\n      add\n        /* \"#utility.yul\":3343:3347   */\n      0x00\n        /* \"#utility.yul\":3336:3341   */\n      dup4\n        /* \"#utility.yul\":3332:3348   */\n      add\n        /* \"#utility.yul\":3326:3349   */\n      mload\n        /* \"#utility.yul\":3362:3425   */\n      tag_323\n        /* \"#utility.yul\":3419:3423   */\n      0x00\n        /* \"#utility.yul\":3414:3417   */\n      dup7\n        /* \"#utility.yul\":3410:3424   */\n      add\n        /* \"#utility.yul\":3396:3408   */\n      dup3\n        /* \"#utility.yul\":3362:3425   */\n      tag_238\n      jump\t// in\n    tag_323:\n        /* \"#utility.yul\":3272:3435   */\n      pop\n        /* \"#utility.yul\":3518:3522   */\n      0x20\n        /* \"#utility.yul\":3511:3516   */\n      dup4\n        /* \"#utility.yul\":3507:3523   */\n      add\n        /* \"#utility.yul\":3501:3524   */\n      mload\n        /* \"#utility.yul\":3571:3574   */\n      dup5\n        /* \"#utility.yul\":3565:3569   */\n      dup3\n        /* \"#utility.yul\":3561:3575   */\n      sub\n        /* \"#utility.yul\":3554:3558   */\n      0x20\n        /* \"#utility.yul\":3549:3552   */\n      dup7\n        /* \"#utility.yul\":3545:3559   */\n      add\n        /* \"#utility.yul\":3538:3576   */\n      mstore\n        /* \"#utility.yul\":3597:3670   */\n      tag_324\n        /* \"#utility.yul\":3665:3669   */\n      dup3\n        /* \"#utility.yul\":3651:3663   */\n      dup3\n        /* \"#utility.yul\":3597:3670   */\n      tag_243\n      jump\t// in\n    tag_324:\n        /* \"#utility.yul\":3589:3670   */\n      swap2\n      pop\n        /* \"#utility.yul\":3445:3681   */\n      pop\n        /* \"#utility.yul\":3765:3769   */\n      0x40\n        /* \"#utility.yul\":3758:3763   */\n      dup4\n        /* \"#utility.yul\":3754:3770   */\n      add\n        /* \"#utility.yul\":3748:3771   */\n      mload\n        /* \"#utility.yul\":3784:3847   */\n      tag_325\n        /* \"#utility.yul\":3841:3845   */\n      0x40\n        /* \"#utility.yul\":3836:3839   */\n      dup7\n        /* \"#utility.yul\":3832:3846   */\n      add\n        /* \"#utility.yul\":3818:3830   */\n      dup3\n        /* \"#utility.yul\":3784:3847   */\n      tag_238\n      jump\t// in\n    tag_325:\n        /* \"#utility.yul\":3691:3857   */\n      pop\n        /* \"#utility.yul\":3942:3946   */\n      0x60\n        /* \"#utility.yul\":3935:3940   */\n      dup4\n        /* \"#utility.yul\":3931:3947   */\n      add\n        /* \"#utility.yul\":3925:3948   */\n      mload\n        /* \"#utility.yul\":3961:4024   */\n      tag_326\n        /* \"#utility.yul\":4018:4022   */\n      0x60\n        /* \"#utility.yul\":4013:4016   */\n      dup7\n        /* \"#utility.yul\":4009:4023   */\n      add\n        /* \"#utility.yul\":3995:4007   */\n      dup3\n        /* \"#utility.yul\":3961:4024   */\n      tag_244\n      jump\t// in\n    tag_326:\n        /* \"#utility.yul\":3867:4034   */\n      pop\n        /* \"#utility.yul\":4121:4125   */\n      0x80\n        /* \"#utility.yul\":4114:4119   */\n      dup4\n        /* \"#utility.yul\":4110:4126   */\n      add\n        /* \"#utility.yul\":4104:4127   */\n      mload\n        /* \"#utility.yul\":4140:4203   */\n      tag_327\n        /* \"#utility.yul\":4197:4201   */\n      0x80\n        /* \"#utility.yul\":4192:4195   */\n      dup7\n        /* \"#utility.yul\":4188:4202   */\n      add\n        /* \"#utility.yul\":4174:4186   */\n      dup3\n        /* \"#utility.yul\":4140:4203   */\n      tag_244\n      jump\t// in\n    tag_327:\n        /* \"#utility.yul\":4044:4213   */\n      pop\n        /* \"#utility.yul\":4298:4302   */\n      0xa0\n        /* \"#utility.yul\":4291:4296   */\n      dup4\n        /* \"#utility.yul\":4287:4303   */\n      add\n        /* \"#utility.yul\":4281:4304   */\n      mload\n        /* \"#utility.yul\":4317:4380   */\n      tag_328\n        /* \"#utility.yul\":4374:4378   */\n      0xa0\n        /* \"#utility.yul\":4369:4372   */\n      dup7\n        /* \"#utility.yul\":4365:4379   */\n      add\n        /* \"#utility.yul\":4351:4363   */\n      dup3\n        /* \"#utility.yul\":4317:4380   */\n      tag_238\n      jump\t// in\n    tag_328:\n        /* \"#utility.yul\":4223:4390   */\n      pop\n        /* \"#utility.yul\":4479:4483   */\n      0xc0\n        /* \"#utility.yul\":4472:4477   */\n      dup4\n        /* \"#utility.yul\":4468:4484   */\n      add\n        /* \"#utility.yul\":4462:4485   */\n      mload\n        /* \"#utility.yul\":4498:4561   */\n      tag_329\n        /* \"#utility.yul\":4555:4559   */\n      0xc0\n        /* \"#utility.yul\":4550:4553   */\n      dup7\n        /* \"#utility.yul\":4546:4560   */\n      add\n        /* \"#utility.yul\":4532:4544   */\n      dup3\n        /* \"#utility.yul\":4498:4561   */\n      tag_238\n      jump\t// in\n    tag_329:\n        /* \"#utility.yul\":4400:4571   */\n      pop\n        /* \"#utility.yul\":4661:4665   */\n      0xe0\n        /* \"#utility.yul\":4654:4659   */\n      dup4\n        /* \"#utility.yul\":4650:4666   */\n      add\n        /* \"#utility.yul\":4644:4667   */\n      mload\n        /* \"#utility.yul\":4680:4743   */\n      tag_330\n        /* \"#utility.yul\":4737:4741   */\n      0xe0\n        /* \"#utility.yul\":4732:4735   */\n      dup7\n        /* \"#utility.yul\":4728:4742   */\n      add\n        /* \"#utility.yul\":4714:4726   */\n      dup3\n        /* \"#utility.yul\":4680:4743   */\n      tag_238\n      jump\t// in\n    tag_330:\n        /* \"#utility.yul\":4581:4753   */\n      pop\n        /* \"#utility.yul\":4770:4774   */\n      dup1\n        /* \"#utility.yul\":4763:4774   */\n      swap2\n      pop\n        /* \"#utility.yul\":3224:4780   */\n      pop\n        /* \"#utility.yul\":3104:4780   */\n      swap3\n      swap2\n      pop\n      pop\n      jump\t// out\n        /* \"#utility.yul\":4786:5054   */\n    tag_246:\n        /* \"#utility.yul\":4911:4921   */\n      0x00\n        /* \"#utility.yul\":4946:5048   */\n      tag_332\n        /* \"#utility.yul\":5044:5047   */\n      dup4\n        /* \"#utility.yul\":5036:5042   */\n      dup4\n        /* \"#utility.yul\":4946:5048   */\n      tag_245\n      jump\t// in\n    tag_332:\n        /* \"#utility.yul\":4932:5048   */\n      swap1\n      pop\n        /* \"#utility.yul\":4786:5054   */\n      swap3\n      swap2\n      pop\n      pop\n      jump\t// out\n        /* \"#utility.yul\":5060:5201   */\n    tag_247:\n        /* \"#utility.yul\":5158:5162   */\n      0x00\n        /* \"#utility.yul\":5190:5194   */\n      0x20\n        /* \"#utility.yul\":5185:5188   */\n      dup3\n        /* \"#utility.yul\":5181:5195   */\n      add\n        /* \"#utility.yul\":5173:5195   */\n      swap1\n      pop\n        /* \"#utility.yul\":5060:5201   */\n      swap2\n      swap1\n      pop\n      jump\t// out\n        /* \"#utility.yul\":5303:6438   */\n    tag_248:\n        /* \"#utility.yul\":5478:5481   */\n      0x00\n        /* \"#utility.yul\":5507:5589   */\n      tag_335\n        /* \"#utility.yul\":5583:5588   */\n      dup3\n        /* \"#utility.yul\":5507:5589   */\n      tag_234\n      jump\t// in\n    tag_335:\n        /* \"#utility.yul\":5605:5719   */\n      tag_336\n        /* \"#utility.yul\":5712:5718   */\n      dup2\n        /* \"#utility.yul\":5707:5710   */\n      dup6\n        /* \"#utility.yul\":5605:5719   */\n      tag_235\n      jump\t// in\n    tag_336:\n        /* \"#utility.yul\":5598:5719   */\n      swap4\n      pop\n        /* \"#utility.yul\":5745:5748   */\n      dup4\n        /* \"#utility.yul\":5790:5794   */\n      0x20\n        /* \"#utility.yul\":5782:5788   */\n      dup3\n        /* \"#utility.yul\":5778:5795   */\n      mul\n        /* \"#utility.yul\":5773:5776   */\n      dup6\n        /* \"#utility.yul\":5769:5796   */\n      add\n        /* \"#utility.yul\":5820:5904   */\n      tag_337\n        /* \"#utility.yul\":5898:5903   */\n      dup6\n        /* \"#utility.yul\":5820:5904   */\n      tag_236\n      jump\t// in\n    tag_337:\n        /* \"#utility.yul\":5927:5934   */\n      dup1\n        /* \"#utility.yul\":5958:5959   */\n      0x00\n        /* \"#utility.yul\":5943:6393   */\n    tag_338:\n        /* \"#utility.yul\":5968:5974   */\n      dup6\n        /* \"#utility.yul\":5965:5966   */\n      dup2\n        /* \"#utility.yul\":5962:5975   */\n      lt\n        /* \"#utility.yul\":5943:6393   */\n      iszero\n      tag_340\n      jumpi\n        /* \"#utility.yul\":6039:6048   */\n      dup5\n        /* \"#utility.yul\":6033:6037   */\n      dup5\n        /* \"#utility.yul\":6029:6049   */\n      sub\n        /* \"#utility.yul\":6024:6027   */\n      dup10\n        /* \"#utility.yul\":6017:6050   */\n      mstore\n        /* \"#utility.yul\":6090:6096   */\n      dup2\n        /* \"#utility.yul\":6084:6097   */\n      mload\n        /* \"#utility.yul\":6118:6238   */\n      tag_341\n        /* \"#utility.yul\":6233:6237   */\n      dup6\n        /* \"#utility.yul\":6218:6231   */\n      dup3\n        /* \"#utility.yul\":6118:6238   */\n      tag_246\n      jump\t// in\n    tag_341:\n        /* \"#utility.yul\":6110:6238   */\n      swap5\n      pop\n        /* \"#utility.yul\":6261:6349   */\n      tag_342\n        /* \"#utility.yul\":6342:6348   */\n      dup4\n        /* \"#utility.yul\":6261:6349   */\n      tag_247\n      jump\t// in\n    tag_342:\n        /* \"#utility.yul\":6251:6349   */\n      swap3\n      pop\n        /* \"#utility.yul\":6378:6382   */\n      0x20\n        /* \"#utility.yul\":6373:6376   */\n      dup11\n        /* \"#utility.yul\":6369:6383   */\n      add\n        /* \"#utility.yul\":6362:6383   */\n      swap10\n      pop\n        /* \"#utility.yul\":6003:6393   */\n      pop\n        /* \"#utility.yul\":5990:5991   */\n      0x01\n        /* \"#utility.yul\":5987:5988   */\n      dup2\n        /* \"#utility.yul\":5983:5992   */\n      add\n        /* \"#utility.yul\":5978:5992   */\n      swap1\n      pop\n        /* \"#utility.yul\":5943:6393   */\n      jump(tag_338)\n    tag_340:\n        /* \"#utility.yul\":5947:5961   */\n      pop\n        /* \"#utility.yul\":6409:6413   */\n      dup3\n        /* \"#utility.yul\":6402:6413   */\n      swap8\n      pop\n        /* \"#utility.yul\":6429:6432   */\n      dup8\n        /* \"#utility.yul\":6422:6432   */\n      swap6\n      pop\n        /* \"#utility.yul\":5483:6438   */\n      pop\n      pop\n      pop\n      pop\n      pop\n        /* \"#utility.yul\":5303:6438   */\n      swap3\n      swap2\n      pop\n      pop\n      jump\t// out\n        /* \"#utility.yul\":6444:6929   */\n    tag_17:\n        /* \"#utility.yul\":6643:6647   */\n      0x00\n        /* \"#utility.yul\":6681:6683   */\n      0x20\n        /* \"#utility.yul\":6670:6679   */\n      dup3\n        /* \"#utility.yul\":6666:6684   */\n      add\n        /* \"#utility.yul\":6658:6684   */\n      swap1\n      pop\n        /* \"#utility.yul\":6730:6739   */\n      dup2\n        /* \"#utility.yul\":6724:6728   */\n      dup2\n        /* \"#utility.yul\":6720:6740   */\n      sub\n        /* \"#utility.yul\":6716:6717   */\n      0x00\n        /* \"#utility.yul\":6705:6714   */\n      dup4\n        /* \"#utility.yul\":6701:6718   */\n      add\n        /* \"#utility.yul\":6694:6741   */\n      mstore\n        /* \"#utility.yul\":6758:6922   */\n      tag_344\n        /* \"#utility.yul\":6917:6921   */\n      dup2\n        /* \"#utility.yul\":6908:6914   */\n      dup5\n        /* \"#utility.yul\":6758:6922   */\n      tag_248\n      jump\t// in\n    tag_344:\n        /* \"#utility.yul\":6750:6922   */\n      swap1\n      pop\n        /* \"#utility.yul\":6444:6929   */\n      swap3\n      swap2\n      pop\n      pop\n      jump\t// out\n        /* \"#utility.yul\":6935:7057   */\n    tag_249:\n        /* \"#utility.yul\":7008:7032   */\n      tag_346\n        /* \"#utility.yul\":7026:7031   */\n      dup2\n        /* \"#utility.yul\":7008:7032   */\n      tag_237\n      jump\t// in\n    tag_346:\n        /* \"#utility.yul\":7001:7006   */\n      dup2\n        /* \"#utility.yul\":6998:7033   */\n      eq\n        /* \"#utility.yul\":6988:7051   */\n      tag_347\n      jumpi\n        /* \"#utility.yul\":7047:7048   */\n      0x00\n        /* \"#utility.yul\":7044:7045   */\n      dup1\n        /* \"#utility.yul\":7037:7049   */\n      revert\n        /* \"#utility.yul\":6988:7051   */\n    tag_347:\n        /* \"#utility.yul\":6935:7057   */\n      pop\n      jump\t// out\n        /* \"#utility.yul\":7063:7202   */\n    tag_250:\n        /* \"#utility.yul\":7109:7114   */\n      0x00\n        /* \"#utility.yul\":7147:7153   */\n      dup2\n        /* \"#utility.yul\":7134:7154   */\n      calldataload\n        /* \"#utility.yul\":7125:7154   */\n      swap1\n      pop\n        /* \"#utility.yul\":7163:7196   */\n      tag_349\n        /* \"#utility.yul\":7190:7195   */\n      dup2\n        /* \"#utility.yul\":7163:7196   */\n      tag_249\n      jump\t// in\n    tag_349:\n        /* \"#utility.yul\":7063:7202   */\n      swap3\n      swap2\n      pop\n      pop\n      jump\t// out\n        /* \"#utility.yul\":7208:7325   */\n    tag_251:\n        /* \"#utility.yul\":7317:7318   */\n      0x00\n        /* \"#utility.yul\":7314:7315   */\n      dup1\n        /* \"#utility.yul\":7307:7319   */\n      revert\n        /* \"#utility.yul\":7331:7448   */\n    tag_252:\n        /* \"#utility.yul\":7440:7441   */\n      0x00\n        /* \"#utility.yul\":7437:7438   */\n      dup1\n        /* \"#utility.yul\":7430:7442   */\n      revert\n        /* \"#utility.yul\":7454:7634   */\n    tag_253:\n        /* \"#utility.yul\":7502:7579   */\n      0x4e487b7100000000000000000000000000000000000000000000000000000000\n        /* \"#utility.yul\":7499:7500   */\n      0x00\n        /* \"#utility.yul\":7492:7580   */\n      mstore\n        /* \"#utility.yul\":7599:7603   */\n      0x41\n        /* \"#utility.yul\":7596:7597   */\n      0x04\n        /* \"#utility.yul\":7589:7604   */\n      mstore\n        /* \"#utility.yul\":7623:7627   */\n      0x24\n        /* \"#utility.yul\":7620:7621   */\n      0x00\n        /* \"#utility.yul\":7613:7628   */\n      revert\n        /* \"#utility.yul\":7640:7921   */\n    tag_254:\n        /* \"#utility.yul\":7723:7750   */\n      tag_354\n        /* \"#utility.yul\":7745:7749   */\n      dup3\n        /* \"#utility.yul\":7723:7750   */\n      tag_242\n      jump\t// in\n    tag_354:\n        /* \"#utility.yul\":7715:7721   */\n      dup2\n        /* \"#utility.yul\":7711:7751   */\n      add\n        /* \"#utility.yul\":7853:7859   */\n      dup2\n        /* \"#utility.yul\":7841:7851   */\n      dup2\n        /* \"#utility.yul\":7838:7860   */\n      lt\n        /* \"#utility.yul\":7817:7835   */\n      0xffffffffffffffff\n        /* \"#utility.yul\":7805:7815   */\n      dup3\n        /* \"#utility.yul\":7802:7836   */\n      gt\n        /* \"#utility.yul\":7799:7861   */\n      or\n        /* \"#utility.yul\":7796:7884   */\n      iszero\n      tag_355\n      jumpi\n        /* \"#utility.yul\":7864:7882   */\n      tag_356\n      tag_253\n      jump\t// in\n    tag_356:\n        /* \"#utility.yul\":7796:7884   */\n    tag_355:\n        /* \"#utility.yul\":7904:7914   */\n      dup1\n        /* \"#utility.yul\":7900:7902   */\n      0x40\n        /* \"#utility.yul\":7893:7915   */\n      mstore\n        /* \"#utility.yul\":7683:7921   */\n      pop\n        /* \"#utility.yul\":7640:7921   */\n      pop\n      pop\n      jump\t// out\n        /* \"#utility.yul\":7927:8056   */\n    tag_255:\n        /* \"#utility.yul\":7961:7967   */\n      0x00\n        /* \"#utility.yul\":7988:8008   */\n      tag_358\n      tag_227\n      jump\t// in\n    tag_358:\n        /* \"#utility.yul\":7978:8008   */\n      swap1\n      pop\n        /* \"#utility.yul\":8017:8050   */\n      tag_359\n        /* \"#utility.yul\":8045:8049   */\n      dup3\n        /* \"#utility.yul\":8037:8043   */\n      dup3\n        /* \"#utility.yul\":8017:8050   */\n      tag_254\n      jump\t// in\n    tag_359:\n        /* \"#utility.yul\":7927:8056   */\n      swap2\n      swap1\n      pop\n      jump\t// out\n        /* \"#utility.yul\":8062:8370   */\n    tag_256:\n        /* \"#utility.yul\":8124:8128   */\n      0x00\n        /* \"#utility.yul\":8214:8232   */\n      0xffffffffffffffff\n        /* \"#utility.yul\":8206:8212   */\n      dup3\n        /* \"#utility.yul\":8203:8233   */\n      gt\n        /* \"#utility.yul\":8200:8256   */\n      iszero\n      tag_361\n      jumpi\n        /* \"#utility.yul\":8236:8254   */\n      tag_362\n      tag_253\n      jump\t// in\n    tag_362:\n        /* \"#utility.yul\":8200:8256   */\n    tag_361:\n        /* \"#utility.yul\":8274:8303   */\n      tag_363\n        /* \"#utility.yul\":8296:8302   */\n      dup3\n        /* \"#utility.yul\":8274:8303   */\n      tag_242\n      jump\t// in\n    tag_363:\n        /* \"#utility.yul\":8266:8303   */\n      swap1\n      pop\n        /* \"#utility.yul\":8358:8362   */\n      0x20\n        /* \"#utility.yul\":8352:8356   */\n      dup2\n        /* \"#utility.yul\":8348:8363   */\n      add\n        /* \"#utility.yul\":8340:8363   */\n      swap1\n      pop\n        /* \"#utility.yul\":8062:8370   */\n      swap2\n      swap1\n      pop\n      jump\t// out\n        /* \"#utility.yul\":8376:8522   */\n    tag_257:\n        /* \"#utility.yul\":8473:8479   */\n      dup3\n        /* \"#utility.yul\":8468:8471   */\n      dup2\n        /* \"#utility.yul\":8463:8466   */\n      dup4\n        /* \"#utility.yul\":8450:8480   */\n      calldatacopy\n        /* \"#utility.yul\":8514:8515   */\n      0x00\n        /* \"#utility.yul\":8505:8511   */\n      dup4\n        /* \"#utility.yul\":8500:8503   */\n      dup4\n        /* \"#utility.yul\":8496:8512   */\n      add\n        /* \"#utility.yul\":8489:8516   */\n      mstore\n        /* \"#utility.yul\":8376:8522   */\n      pop\n      pop\n      pop\n      jump\t// out\n        /* \"#utility.yul\":8528:8953   */\n    tag_258:\n        /* \"#utility.yul\":8606:8611   */\n      0x00\n        /* \"#utility.yul\":8631:8697   */\n      tag_366\n        /* \"#utility.yul\":8647:8696   */\n      tag_367\n        /* \"#utility.yul\":8689:8695   */\n      dup5\n        /* \"#utility.yul\":8647:8696   */\n      tag_256\n      jump\t// in\n    tag_367:\n        /* \"#utility.yul\":8631:8697   */\n      tag_255\n      jump\t// in\n    tag_366:\n        /* \"#utility.yul\":8622:8697   */\n      swap1\n      pop\n        /* \"#utility.yul\":8720:8726   */\n      dup3\n        /* \"#utility.yul\":8713:8718   */\n      dup2\n        /* \"#utility.yul\":8706:8727   */\n      mstore\n        /* \"#utility.yul\":8758:8762   */\n      0x20\n        /* \"#utility.yul\":8751:8756   */\n      dup2\n        /* \"#utility.yul\":8747:8763   */\n      add\n        /* \"#utility.yul\":8796:8799   */\n      dup5\n        /* \"#utility.yul\":8787:8793   */\n      dup5\n        /* \"#utility.yul\":8782:8785   */\n      dup5\n        /* \"#utility.yul\":8778:8794   */\n      add\n        /* \"#utility.yul\":8775:8800   */\n      gt\n        /* \"#utility.yul\":8772:8884   */\n      iszero\n      tag_368\n      jumpi\n        /* \"#utility.yul\":8803:8882   */\n      tag_369\n      tag_252\n      jump\t// in\n    tag_369:\n        /* \"#utility.yul\":8772:8884   */\n    tag_368:\n        /* \"#utility.yul\":8893:8947   */\n      tag_370\n        /* \"#utility.yul\":8940:8946   */\n      dup5\n        /* \"#utility.yul\":8935:8938   */\n      dup3\n        /* \"#utility.yul\":8930:8933   */\n      dup6\n        /* \"#utility.yul\":8893:8947   */\n      tag_257\n      jump\t// in\n    tag_370:\n        /* \"#utility.yul\":8612:8953   */\n      pop\n        /* \"#utility.yul\":8528:8953   */\n      swap4\n      swap3\n      pop\n      pop\n      pop\n      jump\t// out\n        /* \"#utility.yul\":8973:9313   */\n    tag_259:\n        /* \"#utility.yul\":9029:9034   */\n      0x00\n        /* \"#utility.yul\":9078:9081   */\n      dup3\n        /* \"#utility.yul\":9071:9075   */\n      0x1f\n        /* \"#utility.yul\":9063:9069   */\n      dup4\n        /* \"#utility.yul\":9059:9076   */\n      add\n        /* \"#utility.yul\":9055:9082   */\n      slt\n        /* \"#utility.yul\":9045:9167   */\n      tag_372\n      jumpi\n        /* \"#utility.yul\":9086:9165   */\n      tag_373\n      tag_251\n      jump\t// in\n    tag_373:\n        /* \"#utility.yul\":9045:9167   */\n    tag_372:\n        /* \"#utility.yul\":9203:9209   */\n      dup2\n        /* \"#utility.yul\":9190:9210   */\n      calldataload\n        /* \"#utility.yul\":9228:9307   */\n      tag_374\n        /* \"#utility.yul\":9303:9306   */\n      dup5\n        /* \"#utility.yul\":9295:9301   */\n      dup3\n        /* \"#utility.yul\":9288:9292   */\n      0x20\n        /* \"#utility.yul\":9280:9286   */\n      dup7\n        /* \"#utility.yul\":9276:9293   */\n      add\n        /* \"#utility.yul\":9228:9307   */\n      tag_258\n      jump\t// in\n    tag_374:\n        /* \"#utility.yul\":9219:9307   */\n      swap2\n      pop\n        /* \"#utility.yul\":9035:9313   */\n      pop\n        /* \"#utility.yul\":8973:9313   */\n      swap3\n      swap2\n      pop\n      pop\n      jump\t// out\n        /* \"#utility.yul\":9319:9973   */\n    tag_20:\n        /* \"#utility.yul\":9397:9403   */\n      0x00\n        /* \"#utility.yul\":9405:9411   */\n      dup1\n        /* \"#utility.yul\":9454:9456   */\n      0x40\n        /* \"#utility.yul\":9442:9451   */\n      dup4\n        /* \"#utility.yul\":9433:9440   */\n      dup6\n        /* \"#utility.yul\":9429:9452   */\n      sub\n        /* \"#utility.yul\":9425:9457   */\n      slt\n        /* \"#utility.yul\":9422:9541   */\n      iszero\n      tag_376\n      jumpi\n        /* \"#utility.yul\":9460:9539   */\n      tag_377\n      tag_228\n      jump\t// in\n    tag_377:\n        /* \"#utility.yul\":9422:9541   */\n    tag_376:\n        /* \"#utility.yul\":9580:9581   */\n      0x00\n        /* \"#utility.yul\":9605:9658   */\n      tag_378\n        /* \"#utility.yul\":9650:9657   */\n      dup6\n        /* \"#utility.yul\":9641:9647   */\n      dup3\n        /* \"#utility.yul\":9630:9639   */\n      dup7\n        /* \"#utility.yul\":9626:9648   */\n      add\n        /* \"#utility.yul\":9605:9658   */\n      tag_250\n      jump\t// in\n    tag_378:\n        /* \"#utility.yul\":9595:9658   */\n      swap3\n      pop\n        /* \"#utility.yul\":9551:9668   */\n      pop\n        /* \"#utility.yul\":9735:9737   */\n      0x20\n        /* \"#utility.yul\":9724:9733   */\n      dup4\n        /* \"#utility.yul\":9720:9738   */\n      add\n        /* \"#utility.yul\":9707:9739   */\n      calldataload\n        /* \"#utility.yul\":9766:9784   */\n      0xffffffffffffffff\n        /* \"#utility.yul\":9758:9764   */\n      dup2\n        /* \"#utility.yul\":9755:9785   */\n      gt\n        /* \"#utility.yul\":9752:9869   */\n      iszero\n      tag_379\n      jumpi\n        /* \"#utility.yul\":9788:9867   */\n      tag_380\n      tag_229\n      jump\t// in\n    tag_380:\n        /* \"#utility.yul\":9752:9869   */\n    tag_379:\n        /* \"#utility.yul\":9893:9956   */\n      tag_381\n        /* \"#utility.yul\":9948:9955   */\n      dup6\n        /* \"#utility.yul\":9939:9945   */\n      dup3\n        /* \"#utility.yul\":9928:9937   */\n      dup7\n        /* \"#utility.yul\":9924:9946   */\n      add\n        /* \"#utility.yul\":9893:9956   */\n      tag_259\n      jump\t// in\n    tag_381:\n        /* \"#utility.yul\":9883:9956   */\n      swap2\n      pop\n        /* \"#utility.yul\":9678:9966   */\n      pop\n        /* \"#utility.yul\":9319:9973   */\n      swap3\n      pop\n      swap3\n      swap1\n      pop\n      jump\t// out\n        /* \"#utility.yul\":9979:10598   */\n    tag_24:\n        /* \"#utility.yul\":10056:10062   */\n      0x00\n        /* \"#utility.yul\":10064:10070   */\n      dup1\n        /* \"#utility.yul\":10072:10078   */\n      0x00\n        /* \"#utility.yul\":10121:10123   */\n      0x60\n        /* \"#utility.yul\":10109:10118   */\n      dup5\n        /* \"#utility.yul\":10100:10107   */\n      dup7\n        /* \"#utility.yul\":10096:10119   */\n      sub\n        /* \"#utility.yul\":10092:10124   */\n      slt\n        /* \"#utility.yul\":10089:10208   */\n      iszero\n      tag_383\n      jumpi\n        /* \"#utility.yul\":10127:10206   */\n      tag_384\n      tag_228\n      jump\t// in\n    tag_384:\n        /* \"#utility.yul\":10089:10208   */\n    tag_383:\n        /* \"#utility.yul\":10247:10248   */\n      0x00\n        /* \"#utility.yul\":10272:10325   */\n      tag_385\n        /* \"#utility.yul\":10317:10324   */\n      dup7\n        /* \"#utility.yul\":10308:10314   */\n      dup3\n        /* \"#utility.yul\":10297:10306   */\n      dup8\n        /* \"#utility.yul\":10293:10315   */\n      add\n        /* \"#utility.yul\":10272:10325   */\n      tag_250\n      jump\t// in\n    tag_385:\n        /* \"#utility.yul\":10262:10325   */\n      swap4\n      pop\n        /* \"#utility.yul\":10218:10335   */\n      pop\n        /* \"#utility.yul\":10374:10376   */\n      0x20\n        /* \"#utility.yul\":10400:10453   */\n      tag_386\n        /* \"#utility.yul\":10445:10452   */\n      dup7\n        /* \"#utility.yul\":10436:10442   */\n      dup3\n        /* \"#utility.yul\":10425:10434   */\n      dup8\n        /* \"#utility.yul\":10421:10443   */\n      add\n        /* \"#utility.yul\":10400:10453   */\n      tag_250\n      jump\t// in\n    tag_386:\n        /* \"#utility.yul\":10390:10453   */\n      swap3\n      pop\n        /* \"#utility.yul\":10345:10463   */\n      pop\n        /* \"#utility.yul\":10502:10504   */\n      0x40\n        /* \"#utility.yul\":10528:10581   */\n      tag_387\n        /* \"#utility.yul\":10573:10580   */\n      dup7\n        /* \"#utility.yul\":10564:10570   */\n      dup3\n        /* \"#utility.yul\":10553:10562   */\n      dup8\n        /* \"#utility.yul\":10549:10571   */\n      add\n        /* \"#utility.yul\":10528:10581   */\n      tag_233\n      jump\t// in\n    tag_387:\n        /* \"#utility.yul\":10518:10581   */\n      swap2\n      pop\n        /* \"#utility.yul\":10473:10591   */\n      pop\n        /* \"#utility.yul\":9979:10598   */\n      swap3\n      pop\n      swap3\n      pop\n      swap3\n      jump\t// out\n        /* \"#utility.yul\":10604:10933   */\n    tag_28:\n        /* \"#utility.yul\":10663:10669   */\n      0x00\n        /* \"#utility.yul\":10712:10714   */\n      0x20\n        /* \"#utility.yul\":10700:10709   */\n      dup3\n        /* \"#utility.yul\":10691:10698   */\n      dup5\n        /* \"#utility.yul\":10687:10710   */\n      sub\n        /* \"#utility.yul\":10683:10715   */\n      slt\n        /* \"#utility.yul\":10680:10799   */\n      iszero\n      tag_389\n      jumpi\n        /* \"#utility.yul\":10718:10797   */\n      tag_390\n      tag_228\n      jump\t// in\n    tag_390:\n        /* \"#utility.yul\":10680:10799   */\n    tag_389:\n        /* \"#utility.yul\":10838:10839   */\n      0x00\n        /* \"#utility.yul\":10863:10916   */\n      tag_391\n        /* \"#utility.yul\":10908:10915   */\n      dup5\n        /* \"#utility.yul\":10899:10905   */\n      dup3\n        /* \"#utility.yul\":10888:10897   */\n      dup6\n        /* \"#utility.yul\":10884:10906   */\n      add\n        /* \"#utility.yul\":10863:10916   */\n      tag_250\n      jump\t// in\n    tag_391:\n        /* \"#utility.yul\":10853:10916   */\n      swap2\n      pop\n        /* \"#utility.yul\":10809:10926   */\n      pop\n        /* \"#utility.yul\":10604:10933   */\n      swap3\n      swap2\n      pop\n      pop\n      jump\t// out\n        /* \"#utility.yul\":10939:11057   */\n    tag_260:\n        /* \"#utility.yul\":11026:11050   */\n      tag_393\n        /* \"#utility.yul\":11044:11049   */\n      dup2\n        /* \"#utility.yul\":11026:11050   */\n      tag_237\n      jump\t// in\n    tag_393:\n        /* \"#utility.yul\":11021:11024   */\n      dup3\n        /* \"#utility.yul\":11014:11051   */\n      mstore\n        /* \"#utility.yul\":10939:11057   */\n      pop\n      pop\n      jump\t// out\n        /* \"#utility.yul\":11063:11232   */\n    tag_261:\n        /* \"#utility.yul\":11147:11158   */\n      0x00\n        /* \"#utility.yul\":11181:11187   */\n      dup3\n        /* \"#utility.yul\":11176:11179   */\n      dup3\n        /* \"#utility.yul\":11169:11188   */\n      mstore\n        /* \"#utility.yul\":11221:11225   */\n      0x20\n        /* \"#utility.yul\":11216:11219   */\n      dup3\n        /* \"#utility.yul\":11212:11226   */\n      add\n        /* \"#utility.yul\":11197:11226   */\n      swap1\n      pop\n        /* \"#utility.yul\":11063:11232   */\n      swap3\n      swap2\n      pop\n      pop\n      jump\t// out\n        /* \"#utility.yul\":11238:11615   */\n    tag_262:\n        /* \"#utility.yul\":11326:11329   */\n      0x00\n        /* \"#utility.yul\":11354:11393   */\n      tag_396\n        /* \"#utility.yul\":11387:11392   */\n      dup3\n        /* \"#utility.yul\":11354:11393   */\n      tag_239\n      jump\t// in\n    tag_396:\n        /* \"#utility.yul\":11409:11480   */\n      tag_397\n        /* \"#utility.yul\":11473:11479   */\n      dup2\n        /* \"#utility.yul\":11468:11471   */\n      dup6\n        /* \"#utility.yul\":11409:11480   */\n      tag_261\n      jump\t// in\n    tag_397:\n        /* \"#utility.yul\":11402:11480   */\n      swap4\n      pop\n        /* \"#utility.yul\":11489:11554   */\n      tag_398\n        /* \"#utility.yul\":11547:11553   */\n      dup2\n        /* \"#utility.yul\":11542:11545   */\n      dup6\n        /* \"#utility.yul\":11535:11539   */\n      0x20\n        /* \"#utility.yul\":11528:11533   */\n      dup7\n        /* \"#utility.yul\":11524:11540   */\n      add\n        /* \"#utility.yul\":11489:11554   */\n      tag_241\n      jump\t// in\n    tag_398:\n        /* \"#utility.yul\":11579:11608   */\n      tag_399\n        /* \"#utility.yul\":11601:11607   */\n      dup2\n        /* \"#utility.yul\":11579:11608   */\n      tag_242\n      jump\t// in\n    tag_399:\n        /* \"#utility.yul\":11574:11577   */\n      dup5\n        /* \"#utility.yul\":11570:11609   */\n      add\n        /* \"#utility.yul\":11563:11609   */\n      swap2\n      pop\n        /* \"#utility.yul\":11330:11615   */\n      pop\n        /* \"#utility.yul\":11238:11615   */\n      swap3\n      swap2\n      pop\n      pop\n      jump\t// out\n        /* \"#utility.yul\":11621:11739   */\n    tag_263:\n        /* \"#utility.yul\":11708:11732   */\n      tag_401\n        /* \"#utility.yul\":11726:11731   */\n      dup2\n        /* \"#utility.yul\":11708:11732   */\n      tag_231\n      jump\t// in\n    tag_401:\n        /* \"#utility.yul\":11703:11706   */\n      dup3\n        /* \"#utility.yul\":11696:11733   */\n      mstore\n        /* \"#utility.yul\":11621:11739   */\n      pop\n      pop\n      jump\t// out\n        /* \"#utility.yul\":11745:12833   */\n    tag_34:\n        /* \"#utility.yul\":12054:12058   */\n      0x00\n        /* \"#utility.yul\":12092:12095   */\n      0x0100\n        /* \"#utility.yul\":12081:12090   */\n      dup3\n        /* \"#utility.yul\":12077:12096   */\n      add\n        /* \"#utility.yul\":12069:12096   */\n      swap1\n      pop\n        /* \"#utility.yul\":12106:12177   */\n      tag_403\n        /* \"#utility.yul\":12174:12175   */\n      0x00\n        /* \"#utility.yul\":12163:12172   */\n      dup4\n        /* \"#utility.yul\":12159:12176   */\n      add\n        /* \"#utility.yul\":12150:12156   */\n      dup12\n        /* \"#utility.yul\":12106:12177   */\n      tag_260\n      jump\t// in\n    tag_403:\n        /* \"#utility.yul\":12224:12233   */\n      dup2\n        /* \"#utility.yul\":12218:12222   */\n      dup2\n        /* \"#utility.yul\":12214:12234   */\n      sub\n        /* \"#utility.yul\":12209:12211   */\n      0x20\n        /* \"#utility.yul\":12198:12207   */\n      dup4\n        /* \"#utility.yul\":12194:12212   */\n      add\n        /* \"#utility.yul\":12187:12235   */\n      mstore\n        /* \"#utility.yul\":12252:12330   */\n      tag_404\n        /* \"#utility.yul\":12325:12329   */\n      dup2\n        /* \"#utility.yul\":12316:12322   */\n      dup11\n        /* \"#utility.yul\":12252:12330   */\n      tag_262\n      jump\t// in\n    tag_404:\n        /* \"#utility.yul\":12244:12330   */\n      swap1\n      pop\n        /* \"#utility.yul\":12340:12412   */\n      tag_405\n        /* \"#utility.yul\":12408:12410   */\n      0x40\n        /* \"#utility.yul\":12397:12406   */\n      dup4\n        /* \"#utility.yul\":12393:12411   */\n      add\n        /* \"#utility.yul\":12384:12390   */\n      dup10\n        /* \"#utility.yul\":12340:12412   */\n      tag_260\n      jump\t// in\n    tag_405:\n        /* \"#utility.yul\":12422:12494   */\n      tag_406\n        /* \"#utility.yul\":12490:12492   */\n      0x60\n        /* \"#utility.yul\":12479:12488   */\n      dup4\n        /* \"#utility.yul\":12475:12493   */\n      add\n        /* \"#utility.yul\":12466:12472   */\n      dup9\n        /* \"#utility.yul\":12422:12494   */\n      tag_263\n      jump\t// in\n    tag_406:\n        /* \"#utility.yul\":12504:12577   */\n      tag_407\n        /* \"#utility.yul\":12572:12575   */\n      0x80\n        /* \"#utility.yul\":12561:12570   */\n      dup4\n        /* \"#utility.yul\":12557:12576   */\n      add\n        /* \"#utility.yul\":12548:12554   */\n      dup8\n        /* \"#utility.yul\":12504:12577   */\n      tag_263\n      jump\t// in\n    tag_407:\n        /* \"#utility.yul\":12587:12660   */\n      tag_408\n        /* \"#utility.yul\":12655:12658   */\n      0xa0\n        /* \"#utility.yul\":12644:12653   */\n      dup4\n        /* \"#utility.yul\":12640:12659   */\n      add\n        /* \"#utility.yul\":12631:12637   */\n      dup7\n        /* \"#utility.yul\":12587:12660   */\n      tag_260\n      jump\t// in\n    tag_408:\n        /* \"#utility.yul\":12670:12743   */\n      tag_409\n        /* \"#utility.yul\":12738:12741   */\n      0xc0\n        /* \"#utility.yul\":12727:12736   */\n      dup4\n        /* \"#utility.yul\":12723:12742   */\n      add\n        /* \"#utility.yul\":12714:12720   */\n      dup6\n        /* \"#utility.yul\":12670:12743   */\n      tag_260\n      jump\t// in\n    tag_409:\n        /* \"#utility.yul\":12753:12826   */\n      tag_410\n        /* \"#utility.yul\":12821:12824   */\n      0xe0\n        /* \"#utility.yul\":12810:12819   */\n      dup4\n        /* \"#utility.yul\":12806:12825   */\n      add\n        /* \"#utility.yul\":12797:12803   */\n      dup5\n        /* \"#utility.yul\":12753:12826   */\n      tag_260\n      jump\t// in\n    tag_410:\n        /* \"#utility.yul\":11745:12833   */\n      swap10\n      swap9\n      pop\n      pop\n      pop\n      pop\n      pop\n      pop\n      pop\n      pop\n      pop\n      jump\t// out\n        /* \"#utility.yul\":12839:13638   */\n    tag_41:\n        /* \"#utility.yul\":12926:12932   */\n      0x00\n        /* \"#utility.yul\":12934:12940   */\n      dup1\n        /* \"#utility.yul\":12942:12948   */\n      0x00\n        /* \"#utility.yul\":12991:12993   */\n      0x60\n        /* \"#utility.yul\":12979:12988   */\n      dup5\n        /* \"#utility.yul\":12970:12977   */\n      dup7\n        /* \"#utility.yul\":12966:12989   */\n      sub\n        /* \"#utility.yul\":12962:12994   */\n      slt\n        /* \"#utility.yul\":12959:13078   */\n      iszero\n      tag_412\n      jumpi\n        /* \"#utility.yul\":12997:13076   */\n      tag_413\n      tag_228\n      jump\t// in\n    tag_413:\n        /* \"#utility.yul\":12959:13078   */\n    tag_412:\n        /* \"#utility.yul\":13145:13146   */\n      0x00\n        /* \"#utility.yul\":13134:13143   */\n      dup5\n        /* \"#utility.yul\":13130:13147   */\n      add\n        /* \"#utility.yul\":13117:13148   */\n      calldataload\n        /* \"#utility.yul\":13175:13193   */\n      0xffffffffffffffff\n        /* \"#utility.yul\":13167:13173   */\n      dup2\n        /* \"#utility.yul\":13164:13194   */\n      gt\n        /* \"#utility.yul\":13161:13278   */\n      iszero\n      tag_414\n      jumpi\n        /* \"#utility.yul\":13197:13276   */\n      tag_415\n      tag_229\n      jump\t// in\n    tag_415:\n        /* \"#utility.yul\":13161:13278   */\n    tag_414:\n        /* \"#utility.yul\":13302:13365   */\n      tag_416\n        /* \"#utility.yul\":13357:13364   */\n      dup7\n        /* \"#utility.yul\":13348:13354   */\n      dup3\n        /* \"#utility.yul\":13337:13346   */\n      dup8\n        /* \"#utility.yul\":13333:13355   */\n      add\n        /* \"#utility.yul\":13302:13365   */\n      tag_259\n      jump\t// in\n    tag_416:\n        /* \"#utility.yul\":13292:13365   */\n      swap4\n      pop\n        /* \"#utility.yul\":13088:13375   */\n      pop\n        /* \"#utility.yul\":13414:13416   */\n      0x20\n        /* \"#utility.yul\":13440:13493   */\n      tag_417\n        /* \"#utility.yul\":13485:13492   */\n      dup7\n        /* \"#utility.yul\":13476:13482   */\n      dup3\n        /* \"#utility.yul\":13465:13474   */\n      dup8\n        /* \"#utility.yul\":13461:13483   */\n      add\n        /* \"#utility.yul\":13440:13493   */\n      tag_233\n      jump\t// in\n    tag_417:\n        /* \"#utility.yul\":13430:13493   */\n      swap3\n      pop\n        /* \"#utility.yul\":13385:13503   */\n      pop\n        /* \"#utility.yul\":13542:13544   */\n      0x40\n        /* \"#utility.yul\":13568:13621   */\n      tag_418\n        /* \"#utility.yul\":13613:13620   */\n      dup7\n        /* \"#utility.yul\":13604:13610   */\n      dup3\n        /* \"#utility.yul\":13593:13602   */\n      dup8\n        /* \"#utility.yul\":13589:13611   */\n      add\n        /* \"#utility.yul\":13568:13621   */\n      tag_250\n      jump\t// in\n    tag_418:\n        /* \"#utility.yul\":13558:13621   */\n      swap2\n      pop\n        /* \"#utility.yul\":13513:13631   */\n      pop\n        /* \"#utility.yul\":12839:13638   */\n      swap3\n      pop\n      swap3\n      pop\n      swap3\n      jump\t// out\n        /* \"#utility.yul\":13644:14153   */\n    tag_45:\n        /* \"#utility.yul\":13713:13719   */\n      0x00\n        /* \"#utility.yul\":13762:13764   */\n      0x20\n        /* \"#utility.yul\":13750:13759   */\n      dup3\n        /* \"#utility.yul\":13741:13748   */\n      dup5\n        /* \"#utility.yul\":13737:13760   */\n      sub\n        /* \"#utility.yul\":13733:13765   */\n      slt\n        /* \"#utility.yul\":13730:13849   */\n      iszero\n      tag_420\n      jumpi\n        /* \"#utility.yul\":13768:13847   */\n      tag_421\n      tag_228\n      jump\t// in\n    tag_421:\n        /* \"#utility.yul\":13730:13849   */\n    tag_420:\n        /* \"#utility.yul\":13916:13917   */\n      0x00\n        /* \"#utility.yul\":13905:13914   */\n      dup3\n        /* \"#utility.yul\":13901:13918   */\n      add\n        /* \"#utility.yul\":13888:13919   */\n      calldataload\n        /* \"#utility.yul\":13946:13964   */\n      0xffffffffffffffff\n        /* \"#utility.yul\":13938:13944   */\n      dup2\n        /* \"#utility.yul\":13935:13965   */\n      gt\n        /* \"#utility.yul\":13932:14049   */\n      iszero\n      tag_422\n      jumpi\n        /* \"#utility.yul\":13968:14047   */\n      tag_423\n      tag_229\n      jump\t// in\n    tag_423:\n        /* \"#utility.yul\":13932:14049   */\n    tag_422:\n        /* \"#utility.yul\":14073:14136   */\n      tag_424\n        /* \"#utility.yul\":14128:14135   */\n      dup5\n        /* \"#utility.yul\":14119:14125   */\n      dup3\n        /* \"#utility.yul\":14108:14117   */\n      dup6\n        /* \"#utility.yul\":14104:14126   */\n      add\n        /* \"#utility.yul\":14073:14136   */\n      tag_259\n      jump\t// in\n    tag_424:\n        /* \"#utility.yul\":14063:14136   */\n      swap2\n      pop\n        /* \"#utility.yul\":13859:14146   */\n      pop\n        /* \"#utility.yul\":13644:14153   */\n      swap3\n      swap2\n      pop\n      pop\n      jump\t// out\n        /* \"#utility.yul\":14159:14381   */\n    tag_48:\n        /* \"#utility.yul\":14252:14256   */\n      0x00\n        /* \"#utility.yul\":14290:14292   */\n      0x20\n        /* \"#utility.yul\":14279:14288   */\n      dup3\n        /* \"#utility.yul\":14275:14293   */\n      add\n        /* \"#utility.yul\":14267:14293   */\n      swap1\n      pop\n        /* \"#utility.yul\":14303:14374   */\n      tag_426\n        /* \"#utility.yul\":14371:14372   */\n      0x00\n        /* \"#utility.yul\":14360:14369   */\n      dup4\n        /* \"#utility.yul\":14356:14373   */\n      add\n        /* \"#utility.yul\":14347:14353   */\n      dup5\n        /* \"#utility.yul\":14303:14374   */\n      tag_260\n      jump\t// in\n    tag_426:\n        /* \"#utility.yul\":14159:14381   */\n      swap3\n      swap2\n      pop\n      pop\n      jump\t// out\n        /* \"#utility.yul\":14387:14567   */\n    tag_264:\n        /* \"#utility.yul\":14435:14512   */\n      0x4e487b7100000000000000000000000000000000000000000000000000000000\n        /* \"#utility.yul\":14432:14433   */\n      0x00\n        /* \"#utility.yul\":14425:14513   */\n      mstore\n        /* \"#utility.yul\":14532:14536   */\n      0x22\n        /* \"#utility.yul\":14529:14530   */\n      0x04\n        /* \"#utility.yul\":14522:14537   */\n      mstore\n        /* \"#utility.yul\":14556:14560   */\n      0x24\n        /* \"#utility.yul\":14553:14554   */\n      0x00\n        /* \"#utility.yul\":14546:14561   */\n      revert\n        /* \"#utility.yul\":14573:14893   */\n    tag_54:\n        /* \"#utility.yul\":14617:14623   */\n      0x00\n        /* \"#utility.yul\":14654:14655   */\n      0x02\n        /* \"#utility.yul\":14648:14652   */\n      dup3\n        /* \"#utility.yul\":14644:14656   */\n      div\n        /* \"#utility.yul\":14634:14656   */\n      swap1\n      pop\n        /* \"#utility.yul\":14701:14702   */\n      0x01\n        /* \"#utility.yul\":14695:14699   */\n      dup3\n        /* \"#utility.yul\":14691:14703   */\n      and\n        /* \"#utility.yul\":14722:14740   */\n      dup1\n        /* \"#utility.yul\":14712:14793   */\n      tag_429\n      jumpi\n        /* \"#utility.yul\":14778:14782   */\n      0x7f\n        /* \"#utility.yul\":14770:14776   */\n      dup3\n        /* \"#utility.yul\":14766:14783   */\n      and\n        /* \"#utility.yul\":14756:14783   */\n      swap2\n      pop\n        /* \"#utility.yul\":14712:14793   */\n    tag_429:\n        /* \"#utility.yul\":14840:14842   */\n      0x20\n        /* \"#utility.yul\":14832:14838   */\n      dup3\n        /* \"#utility.yul\":14829:14843   */\n      lt\n        /* \"#utility.yul\":14809:14827   */\n      dup2\n        /* \"#utility.yul\":14806:14844   */\n      sub\n        /* \"#utility.yul\":14803:14887   */\n      tag_430\n      jumpi\n        /* \"#utility.yul\":14859:14877   */\n      tag_431\n      tag_264\n      jump\t// in\n    tag_431:\n        /* \"#utility.yul\":14803:14887   */\n    tag_430:\n        /* \"#utility.yul\":14624:14893   */\n      pop\n        /* \"#utility.yul\":14573:14893   */\n      swap2\n      swap1\n      pop\n      jump\t// out\n        /* \"#utility.yul\":14899:15079   */\n    tag_265:\n        /* \"#utility.yul\":14947:15024   */\n      0x4e487b7100000000000000000000000000000000000000000000000000000000\n        /* \"#utility.yul\":14944:14945   */\n      0x00\n        /* \"#utility.yul\":14937:15025   */\n      mstore\n        /* \"#utility.yul\":15044:15048   */\n      0x11\n        /* \"#utility.yul\":15041:15042   */\n      0x04\n        /* \"#utility.yul\":15034:15049   */\n      mstore\n        /* \"#utility.yul\":15068:15072   */\n      0x24\n        /* \"#utility.yul\":15065:15066   */\n      0x00\n        /* \"#utility.yul\":15058:15073   */\n      revert\n        /* \"#utility.yul\":15085:15279   */\n    tag_61:\n        /* \"#utility.yul\":15125:15129   */\n      0x00\n        /* \"#utility.yul\":15145:15165   */\n      tag_434\n        /* \"#utility.yul\":15163:15164   */\n      dup3\n        /* \"#utility.yul\":15145:15165   */\n      tag_237\n      jump\t// in\n    tag_434:\n        /* \"#utility.yul\":15140:15165   */\n      swap2\n      pop\n        /* \"#utility.yul\":15179:15199   */\n      tag_435\n        /* \"#utility.yul\":15197:15198   */\n      dup4\n        /* \"#utility.yul\":15179:15199   */\n      tag_237\n      jump\t// in\n    tag_435:\n        /* \"#utility.yul\":15174:15199   */\n      swap3\n      pop\n        /* \"#utility.yul\":15223:15224   */\n      dup3\n        /* \"#utility.yul\":15220:15221   */\n      dup3\n        /* \"#utility.yul\":15216:15225   */\n      sub\n        /* \"#utility.yul\":15208:15225   */\n      swap1\n      pop\n        /* \"#utility.yul\":15247:15248   */\n      dup2\n        /* \"#utility.yul\":15241:15245   */\n      dup2\n        /* \"#utility.yul\":15238:15249   */\n      gt\n        /* \"#utility.yul\":15235:15272   */\n      iszero\n      tag_436\n      jumpi\n        /* \"#utility.yul\":15252:15270   */\n      tag_437\n      tag_265\n      jump\t// in\n    tag_437:\n        /* \"#utility.yul\":15235:15272   */\n    tag_436:\n        /* \"#utility.yul\":15085:15279   */\n      swap3\n      swap2\n      pop\n      pop\n      jump\t// out\n        /* \"#utility.yul\":15285:15465   */\n    tag_64:\n        /* \"#utility.yul\":15333:15410   */\n      0x4e487b7100000000000000000000000000000000000000000000000000000000\n        /* \"#utility.yul\":15330:15331   */\n      0x00\n        /* \"#utility.yul\":15323:15411   */\n      mstore\n        /* \"#utility.yul\":15430:15434   */\n      0x32\n        /* \"#utility.yul\":15427:15428   */\n      0x04\n        /* \"#utility.yul\":15420:15435   */\n      mstore\n        /* \"#utility.yul\":15454:15458   */\n      0x24\n        /* \"#utility.yul\":15451:15452   */\n      0x00\n        /* \"#utility.yul\":15444:15459   */\n      revert\n        /* \"#utility.yul\":15471:15612   */\n    tag_266:\n        /* \"#utility.yul\":15520:15524   */\n      0x00\n        /* \"#utility.yul\":15543:15546   */\n      dup2\n        /* \"#utility.yul\":15535:15546   */\n      swap1\n      pop\n        /* \"#utility.yul\":15566:15569   */\n      dup2\n        /* \"#utility.yul\":15563:15564   */\n      0x00\n        /* \"#utility.yul\":15556:15570   */\n      mstore\n        /* \"#utility.yul\":15600:15604   */\n      0x20\n        /* \"#utility.yul\":15597:15598   */\n      0x00\n        /* \"#utility.yul\":15587:15605   */\n      keccak256\n        /* \"#utility.yul\":15579:15605   */\n      swap1\n      pop\n        /* \"#utility.yul\":15471:15612   */\n      swap2\n      swap1\n      pop\n      jump\t// out\n        /* \"#utility.yul\":15618:15711   */\n    tag_267:\n        /* \"#utility.yul\":15655:15661   */\n      0x00\n        /* \"#utility.yul\":15702:15704   */\n      0x20\n        /* \"#utility.yul\":15697:15699   */\n      0x1f\n        /* \"#utility.yul\":15690:15695   */\n      dup4\n        /* \"#utility.yul\":15686:15700   */\n      add\n        /* \"#utility.yul\":15682:15705   */\n      div\n        /* \"#utility.yul\":15672:15705   */\n      swap1\n      pop\n        /* \"#utility.yul\":15618:15711   */\n      swap2\n      swap1\n      pop\n      jump\t// out\n        /* \"#utility.yul\":15717:15824   */\n    tag_268:\n        /* \"#utility.yul\":15761:15769   */\n      0x00\n        /* \"#utility.yul\":15811:15816   */\n      dup3\n        /* \"#utility.yul\":15805:15809   */\n      dup3\n        /* \"#utility.yul\":15801:15817   */\n      shl\n        /* \"#utility.yul\":15780:15817   */\n      swap1\n      pop\n        /* \"#utility.yul\":15717:15824   */\n      swap3\n      swap2\n      pop\n      pop\n      jump\t// out\n        /* \"#utility.yul\":15830:16223   */\n    tag_269:\n        /* \"#utility.yul\":15899:15905   */\n      0x00\n        /* \"#utility.yul\":15949:15950   */\n      0x08\n        /* \"#utility.yul\":15937:15947   */\n      dup4\n        /* \"#utility.yul\":15933:15951   */\n      mul\n        /* \"#utility.yul\":15972:16069   */\n      tag_443\n        /* \"#utility.yul\":16002:16068   */\n      0xffffffffffffffffffffffffffffffffffffffffffffffffffffffffffffffff\n        /* \"#utility.yul\":15991:16000   */\n      dup3\n        /* \"#utility.yul\":15972:16069   */\n      tag_268\n      jump\t// in\n    tag_443:\n        /* \"#utility.yul\":16090:16129   */\n      tag_444\n        /* \"#utility.yul\":16120:16128   */\n      dup7\n        /* \"#utility.yul\":16109:16118   */\n      dup4\n        /* \"#utility.yul\":16090:16129   */\n      tag_268\n      jump\t// in\n    tag_444:\n        /* \"#utility.yul\":16078:16129   */\n      swap6\n      pop\n        /* \"#utility.yul\":16162:16166   */\n      dup1\n        /* \"#utility.yul\":16158:16167   */\n      not\n        /* \"#utility.yul\":16151:16156   */\n      dup5\n        /* \"#utility.yul\":16147:16168   */\n      and\n        /* \"#utility.yul\":16138:16168   */\n      swap4\n      pop\n        /* \"#utility.yul\":16211:16215   */\n      dup1\n        /* \"#utility.yul\":16201:16209   */\n      dup7\n        /* \"#utility.yul\":16197:16216   */\n      and\n        /* \"#utility.yul\":16190:16195   */\n      dup5\n        /* \"#utility.yul\":16187:16217   */\n      or\n        /* \"#utility.yul\":16177:16217   */\n      swap3\n      pop\n        /* \"#utility.yul\":15906:16223   */\n      pop\n      pop\n        /* \"#utility.yul\":15830:16223   */\n      swap4\n      swap3\n      pop\n      pop\n      pop\n      jump\t// out\n        /* \"#utility.yul\":16229:16289   */\n    tag_270:\n        /* \"#utility.yul\":16257:16260   */\n      0x00\n        /* \"#utility.yul\":16278:16283   */\n      dup2\n        /* \"#utility.yul\":16271:16283   */\n      swap1\n      pop\n        /* \"#utility.yul\":16229:16289   */\n      swap2\n      swap1\n      pop\n      jump\t// out\n        /* \"#utility.yul\":16295:16437   */\n    tag_271:\n        /* \"#utility.yul\":16345:16354   */\n      0x00\n        /* \"#utility.yul\":16378:16431   */\n      tag_447\n        /* \"#utility.yul\":16396:16430   */\n      tag_448\n        /* \"#utility.yul\":16405:16429   */\n      tag_449\n        /* \"#utility.yul\":16423:16428   */\n      dup5\n        /* \"#utility.yul\":16405:16429   */\n      tag_237\n      jump\t// in\n    tag_449:\n        /* \"#utility.yul\":16396:16430   */\n      tag_270\n      jump\t// in\n    tag_448:\n        /* \"#utility.yul\":16378:16431   */\n      tag_237\n      jump\t// in\n    tag_447:\n        /* \"#utility.yul\":16365:16431   */\n      swap1\n      pop\n        /* \"#utility.yul\":16295:16437   */\n      swap2\n      swap1\n      pop\n      jump\t// out\n        /* \"#utility.yul\":16443:16518   */\n    tag_272:\n        /* \"#utility.yul\":16486:16489   */\n      0x00\n        /* \"#utility.yul\":16507:16512   */\n      dup2\n        /* \"#utility.yul\":16500:16512   */\n      swap1\n      pop\n        /* \"#utility.yul\":16443:16518   */\n      swap2\n      swap1\n      pop\n      jump\t// out\n        /* \"#utility.yul\":16524:16793   */\n    tag_273:\n        /* \"#utility.yul\":16634:16673   */\n      tag_452\n        /* \"#utility.yul\":16665:16672   */\n      dup4\n        /* \"#utility.yul\":16634:16673   */\n      tag_271\n      jump\t// in\n    tag_452:\n        /* \"#utility.yul\":16695:16786   */\n      tag_453\n        /* \"#utility.yul\":16744:16785   */\n      tag_454\n        /* \"#utility.yul\":16768:16784   */\n      dup3\n        /* \"#utility.yul\":16744:16785   */\n      tag_272\n      jump\t// in\n    tag_454:\n        /* \"#utility.yul\":16736:16742   */\n      dup5\n        /* \"#utility.yul\":16729:16733   */\n      dup5\n        /* \"#utility.yul\":16723:16734   */\n      sload\n        /* \"#utility.yul\":16695:16786   */\n      tag_269\n      jump\t// in\n    tag_453:\n        /* \"#utility.yul\":16689:16693   */\n      dup3\n        /* \"#utility.yul\":16682:16787   */\n      sstore\n        /* \"#utility.yul\":16600:16793   */\n      pop\n        /* \"#utility.yul\":16524:16793   */\n      pop\n      pop\n      pop\n      jump\t// out\n        /* \"#utility.yul\":16799:16872   */\n    tag_274:\n        /* \"#utility.yul\":16844:16847   */\n      0x00\n        /* \"#utility.yul\":16799:16872   */\n      swap1\n      jump\t// out\n        /* \"#utility.yul\":16878:17067   */\n    tag_275:\n        /* \"#utility.yul\":16955:16987   */\n      tag_457\n      tag_274\n      jump\t// in\n    tag_457:\n        /* \"#utility.yul\":16996:17061   */\n      tag_458\n        /* \"#utility.yul\":17054:17060   */\n      dup2\n        /* \"#utility.yul\":17046:17052   */\n      dup5\n        /* \"#utility.yul\":17040:17044   */\n      dup5\n        /* \"#utility.yul\":16996:17061   */\n      tag_273\n      jump\t// in\n    tag_458:\n        /* \"#utility.yul\":16931:17067   */\n      pop\n        /* \"#utility.yul\":16878:17067   */\n      pop\n      pop\n      jump\t// out\n        /* \"#utility.yul\":17073:17259   */\n    tag_276:\n        /* \"#utility.yul\":17133:17253   */\n    tag_460:\n        /* \"#utility.yul\":17150:17153   */\n      dup2\n        /* \"#utility.yul\":17143:17148   */\n      dup2\n        /* \"#utility.yul\":17140:17154   */\n      lt\n        /* \"#utility.yul\":17133:17253   */\n      iszero\n      tag_462\n      jumpi\n        /* \"#utility.yul\":17204:17243   */\n      tag_463\n        /* \"#utility.yul\":17241:17242   */\n      0x00\n        /* \"#utility.yul\":17234:17239   */\n      dup3\n        /* \"#utility.yul\":17204:17243   */\n      tag_275\n      jump\t// in\n    tag_463:\n        /* \"#utility.yul\":17177:17178   */\n      0x01\n        /* \"#utility.yul\":17170:17175   */\n      dup2\n        /* \"#utility.yul\":17166:17179   */\n      add\n        /* \"#utility.yul\":17157:17179   */\n      swap1\n      pop\n        /* \"#utility.yul\":17133:17253   */\n      jump(tag_460)\n    tag_462:\n        /* \"#utility.yul\":17073:17259   */\n      pop\n      pop\n      jump\t// out\n        /* \"#utility.yul\":17265:17808   */\n    tag_277:\n        /* \"#utility.yul\":17366:17368   */\n      0x1f\n        /* \"#utility.yul\":17361:17364   */\n      dup3\n        /* \"#utility.yul\":17358:17369   */\n      gt\n        /* \"#utility.yul\":17355:17801   */\n      iszero\n      tag_465\n      jumpi\n        /* \"#utility.yul\":17400:17438   */\n      tag_466\n        /* \"#utility.yul\":17432:17437   */\n      dup2\n        /* \"#utility.yul\":17400:17438   */\n      tag_266\n      jump\t// in\n    tag_466:\n        /* \"#utility.yul\":17484:17513   */\n      tag_467\n        /* \"#utility.yul\":17502:17512   */\n      dup5\n        /* \"#utility.yul\":17484:17513   */\n      tag_267\n      jump\t// in\n    tag_467:\n        /* \"#utility.yul\":17474:17482   */\n      dup2\n        /* \"#utility.yul\":17470:17514   */\n      add\n        /* \"#utility.yul\":17667:17669   */\n      0x20\n        /* \"#utility.yul\":17655:17665   */\n      dup6\n        /* \"#utility.yul\":17652:17670   */\n      lt\n        /* \"#utility.yul\":17649:17698   */\n      iszero\n      tag_468\n      jumpi\n        /* \"#utility.yul\":17688:17696   */\n      dup2\n        /* \"#utility.yul\":17673:17696   */\n      swap1\n      pop\n        /* \"#utility.yul\":17649:17698   */\n    tag_468:\n        /* \"#utility.yul\":17711:17791   */\n      tag_469\n        /* \"#utility.yul\":17767:17789   */\n      tag_470\n        /* \"#utility.yul\":17785:17788   */\n      dup6\n        /* \"#utility.yul\":17767:17789   */\n      tag_267\n      jump\t// in\n    tag_470:\n        /* \"#utility.yul\":17757:17765   */\n      dup4\n        /* \"#utility.yul\":17753:17790   */\n      add\n        /* \"#utility.yul\":17740:17751   */\n      dup3\n        /* \"#utility.yul\":17711:17791   */\n      tag_276\n      jump\t// in\n    tag_469:\n        /* \"#utility.yul\":17370:17801   */\n      pop\n      pop\n        /* \"#utility.yul\":17355:17801   */\n    tag_465:\n        /* \"#utility.yul\":17265:17808   */\n      pop\n      pop\n      pop\n      jump\t// out\n        /* \"#utility.yul\":17814:17931   */\n    tag_278:\n        /* \"#utility.yul\":17868:17876   */\n      0x00\n        /* \"#utility.yul\":17918:17923   */\n      dup3\n        /* \"#utility.yul\":17912:17916   */\n      dup3\n        /* \"#utility.yul\":17908:17924   */\n      shr\n        /* \"#utility.yul\":17887:17924   */\n      swap1\n      pop\n        /* \"#utility.yul\":17814:17931   */\n      swap3\n      swap2\n      pop\n      pop\n      jump\t// out\n        /* \"#utility.yul\":17937:18106   */\n    tag_279:\n        /* \"#utility.yul\":17981:17987   */\n      0x00\n        /* \"#utility.yul\":18014:18065   */\n      tag_473\n        /* \"#utility.yul\":18062:18063   */\n      0x00\n        /* \"#utility.yul\":18058:18064   */\n      not\n        /* \"#utility.yul\":18050:18055   */\n      dup5\n        /* \"#utility.yul\":18047:18048   */\n      0x08\n        /* \"#utility.yul\":18043:18056   */\n      mul\n        /* \"#utility.yul\":18014:18065   */\n      tag_278\n      jump\t// in\n    tag_473:\n        /* \"#utility.yul\":18010:18066   */\n      not\n        /* \"#utility.yul\":18095:18099   */\n      dup1\n        /* \"#utility.yul\":18089:18093   */\n      dup4\n        /* \"#utility.yul\":18085:18100   */\n      and\n        /* \"#utility.yul\":18075:18100   */\n      swap2\n      pop\n        /* \"#utility.yul\":17988:18106   */\n      pop\n        /* \"#utility.yul\":17937:18106   */\n      swap3\n      swap2\n      pop\n      pop\n      jump\t// out\n        /* \"#utility.yul\":18111:18406   */\n    tag_280:\n        /* \"#utility.yul\":18187:18191   */\n      0x00\n        /* \"#utility.yul\":18333:18362   */\n      tag_475\n        /* \"#utility.yul\":18358:18361   */\n      dup4\n        /* \"#utility.yul\":18352:18356   */\n      dup4\n        /* \"#utility.yul\":18333:18362   */\n      tag_279\n      jump\t// in\n    tag_475:\n        /* \"#utility.yul\":18325:18362   */\n      swap2\n      pop\n        /* \"#utility.yul\":18395:18398   */\n      dup3\n        /* \"#utility.yul\":18392:18393   */\n      0x02\n        /* \"#utility.yul\":18388:18399   */\n      mul\n        /* \"#utility.yul\":18382:18386   */\n      dup3\n        /* \"#utility.yul\":18379:18400   */\n      or\n        /* \"#utility.yul\":18371:18400   */\n      swap1\n      pop\n        /* \"#utility.yul\":18111:18406   */\n      swap3\n      swap2\n      pop\n      pop\n      jump\t// out\n        /* \"#utility.yul\":18411:19806   */\n    tag_67:\n        /* \"#utility.yul\":18528:18565   */\n      tag_477\n        /* \"#utility.yul\":18561:18564   */\n      dup3\n        /* \"#utility.yul\":18528:18565   */\n      tag_239\n      jump\t// in\n    tag_477:\n        /* \"#utility.yul\":18630:18648   */\n      0xffffffffffffffff\n        /* \"#utility.yul\":18622:18628   */\n      dup2\n        /* \"#utility.yul\":18619:18649   */\n      gt\n        /* \"#utility.yul\":18616:18672   */\n      iszero\n      tag_478\n      jumpi\n        /* \"#utility.yul\":18652:18670   */\n      tag_479\n      tag_253\n      jump\t// in\n    tag_479:\n        /* \"#utility.yul\":18616:18672   */\n    tag_478:\n        /* \"#utility.yul\":18696:18734   */\n      tag_480\n        /* \"#utility.yul\":18728:18732   */\n      dup3\n        /* \"#utility.yul\":18722:18733   */\n      sload\n        /* \"#utility.yul\":18696:18734   */\n      tag_54\n      jump\t// in\n    tag_480:\n        /* \"#utility.yul\":18781:18848   */\n      tag_481\n        /* \"#utility.yul\":18841:18847   */\n      dup3\n        /* \"#utility.yul\":18833:18839   */\n      dup3\n        /* \"#utility.yul\":18827:18831   */\n      dup6\n        /* \"#utility.yul\":18781:18848   */\n      tag_277\n      jump\t// in\n    tag_481:\n        /* \"#utility.yul\":18875:18876   */\n      0x00\n        /* \"#utility.yul\":18899:18903   */\n      0x20\n        /* \"#utility.yul\":18886:18903   */\n      swap1\n      pop\n        /* \"#utility.yul\":18931:18933   */\n      0x1f\n        /* \"#utility.yul\":18923:18929   */\n      dup4\n        /* \"#utility.yul\":18920:18934   */\n      gt\n        /* \"#utility.yul\":18948:18949   */\n      0x01\n        /* \"#utility.yul\":18943:19561   */\n      dup2\n      eq\n      tag_483\n      jumpi\n        /* \"#utility.yul\":19605:19606   */\n      0x00\n        /* \"#utility.yul\":19622:19628   */\n      dup5\n        /* \"#utility.yul\":19619:19696   */\n      iszero\n      tag_484\n      jumpi\n        /* \"#utility.yul\":19671:19680   */\n      dup3\n        /* \"#utility.yul\":19666:19669   */\n      dup8\n        /* \"#utility.yul\":19662:19681   */\n      add\n        /* \"#utility.yul\":19656:19682   */\n      mload\n        /* \"#utility.yul\":19647:19682   */\n      swap1\n      pop\n        /* \"#utility.yul\":19619:19696   */\n    tag_484:\n        /* \"#utility.yul\":19722:19789   */\n      tag_485\n        /* \"#utility.yul\":19782:19788   */\n      dup6\n        /* \"#utility.yul\":19775:19780   */\n      dup3\n        /* \"#utility.yul\":19722:19789   */\n      tag_280\n      jump\t// in\n    tag_485:\n        /* \"#utility.yul\":19716:19720   */\n      dup7\n        /* \"#utility.yul\":19709:19790   */\n      sstore\n        /* \"#utility.yul\":19578:19800   */\n      pop\n        /* \"#utility.yul\":18913:19800   */\n      jump(tag_482)\n        /* \"#utility.yul\":18943:19561   */\n    tag_483:\n        /* \"#utility.yul\":18995:18999   */\n      0x1f\n        /* \"#utility.yul\":18991:19000   */\n      not\n        /* \"#utility.yul\":18983:18989   */\n      dup5\n        /* \"#utility.yul\":18979:19001   */\n      and\n        /* \"#utility.yul\":19029:19066   */\n      tag_486\n        /* \"#utility.yul\":19061:19065   */\n      dup7\n        /* \"#utility.yul\":19029:19066   */\n      tag_266\n      jump\t// in\n    tag_486:\n        /* \"#utility.yul\":19088:19089   */\n      0x00\n        /* \"#utility.yul\":19102:19310   */\n    tag_487:\n        /* \"#utility.yul\":19116:19123   */\n      dup3\n        /* \"#utility.yul\":19113:19114   */\n      dup2\n        /* \"#utility.yul\":19110:19124   */\n      lt\n        /* \"#utility.yul\":19102:19310   */\n      iszero\n      tag_489\n      jumpi\n        /* \"#utility.yul\":19195:19204   */\n      dup5\n        /* \"#utility.yul\":19190:19193   */\n      dup10\n        /* \"#utility.yul\":19186:19205   */\n      add\n        /* \"#utility.yul\":19180:19206   */\n      mload\n        /* \"#utility.yul\":19172:19178   */\n      dup3\n        /* \"#utility.yul\":19165:19207   */\n      sstore\n        /* \"#utility.yul\":19246:19247   */\n      0x01\n        /* \"#utility.yul\":19238:19244   */\n      dup3\n        /* \"#utility.yul\":19234:19248   */\n      add\n        /* \"#utility.yul\":19224:19248   */\n      swap2\n      pop\n        /* \"#utility.yul\":19293:19295   */\n      0x20\n        /* \"#utility.yul\":19282:19291   */\n      dup6\n        /* \"#utility.yul\":19278:19296   */\n      add\n        /* \"#utility.yul\":19265:19296   */\n      swap5\n      pop\n        /* \"#utility.yul\":19139:19143   */\n      0x20\n        /* \"#utility.yul\":19136:19137   */\n      dup2\n        /* \"#utility.yul\":19132:19144   */\n      add\n        /* \"#utility.yul\":19127:19144   */\n      swap1\n      pop\n        /* \"#utility.yul\":19102:19310   */\n      jump(tag_487)\n    tag_489:\n        /* \"#utility.yul\":19338:19344   */\n      dup7\n        /* \"#utility.yul\":19329:19336   */\n      dup4\n        /* \"#utility.yul\":19326:19345   */\n      lt\n        /* \"#utility.yul\":19323:19502   */\n      iszero\n      tag_490\n      jumpi\n        /* \"#utility.yul\":19396:19405   */\n      dup5\n        /* \"#utility.yul\":19391:19394   */\n      dup10\n        /* \"#utility.yul\":19387:19406   */\n      add\n        /* \"#utility.yul\":19381:19407   */\n      mload\n        /* \"#utility.yul\":19439:19487   */\n      tag_491\n        /* \"#utility.yul\":19481:19485   */\n      0x1f\n        /* \"#utility.yul\":19473:19479   */\n      dup10\n        /* \"#utility.yul\":19469:19486   */\n      and\n        /* \"#utility.yul\":19458:19467   */\n      dup3\n        /* \"#utility.yul\":19439:19487   */\n      tag_279\n      jump\t// in\n    tag_491:\n        /* \"#utility.yul\":19431:19437   */\n      dup4\n        /* \"#utility.yul\":19424:19488   */\n      sstore\n        /* \"#utility.yul\":19346:19502   */\n      pop\n        /* \"#utility.yul\":19323:19502   */\n    tag_490:\n        /* \"#utility.yul\":19548:19549   */\n      0x01\n        /* \"#utility.yul\":19544:19545   */\n      0x02\n        /* \"#utility.yul\":19536:19542   */\n      dup9\n        /* \"#utility.yul\":19532:19546   */\n      mul\n        /* \"#utility.yul\":19528:19550   */\n      add\n        /* \"#utility.yul\":19522:19526   */\n      dup9\n        /* \"#utility.yul\":19515:19551   */\n      sstore\n        /* \"#utility.yul\":18950:19561   */\n      pop\n      pop\n      pop\n        /* \"#utility.yul\":18913:19800   */\n    tag_482:\n      pop\n        /* \"#utility.yul\":18503:19806   */\n      pop\n      pop\n      pop\n        /* \"#utility.yul\":18411:19806   */\n      pop\n      pop\n      jump\t// out\n        /* \"#utility.yul\":19812:20026   */\n    tag_281:\n        /* \"#utility.yul\":19952:20018   */\n      0xe4b88de883bde7bb99e887aae5b7b1e68d90e6acbe0000000000000000000000\n        /* \"#utility.yul\":19948:19949   */\n      0x00\n        /* \"#utility.yul\":19940:19946   */\n      dup3\n        /* \"#utility.yul\":19936:19950   */\n      add\n        /* \"#utility.yul\":19929:20019   */\n      mstore\n        /* \"#utility.yul\":19812:20026   */\n      pop\n      jump\t// out\n        /* \"#utility.yul\":20032:20398   */\n    tag_282:\n        /* \"#utility.yul\":20174:20177   */\n      0x00\n        /* \"#utility.yul\":20195:20262   */\n      tag_494\n        /* \"#utility.yul\":20259:20261   */\n      0x15\n        /* \"#utility.yul\":20254:20257   */\n      dup4\n        /* \"#utility.yul\":20195:20262   */\n      tag_261\n      jump\t// in\n    tag_494:\n        /* \"#utility.yul\":20188:20262   */\n      swap2\n      pop\n        /* \"#utility.yul\":20271:20364   */\n      tag_495\n        /* \"#utility.yul\":20360:20363   */\n      dup3\n        /* \"#utility.yul\":20271:20364   */\n      tag_281\n      jump\t// in\n    tag_495:\n        /* \"#utility.yul\":20389:20391   */\n      0x20\n        /* \"#utility.yul\":20384:20387   */\n      dup3\n        /* \"#utility.yul\":20380:20392   */\n      add\n        /* \"#utility.yul\":20373:20392   */\n      swap1\n      pop\n        /* \"#utility.yul\":20032:20398   */\n      swap2\n      swap1\n      pop\n      jump\t// out\n        /* \"#utility.yul\":20404:20823   */\n    tag_75:\n        /* \"#utility.yul\":20570:20574   */\n      0x00\n        /* \"#utility.yul\":20608:20610   */\n      0x20\n        /* \"#utility.yul\":20597:20606   */\n      dup3\n        /* \"#utility.yul\":20593:20611   */\n      add\n        /* \"#utility.yul\":20585:20611   */\n      swap1\n      pop\n        /* \"#utility.yul\":20657:20666   */\n      dup2\n        /* \"#utility.yul\":20651:20655   */\n      dup2\n        /* \"#utility.yul\":20647:20667   */\n      sub\n        /* \"#utility.yul\":20643:20644   */\n      0x00\n        /* \"#utility.yul\":20632:20641   */\n      dup4\n        /* \"#utility.yul\":20628:20645   */\n      add\n        /* \"#utility.yul\":20621:20668   */\n      mstore\n        /* \"#utility.yul\":20685:20816   */\n      tag_497\n        /* \"#utility.yul\":20811:20815   */\n      dup2\n        /* \"#utility.yul\":20685:20816   */\n      tag_282\n      jump\t// in\n    tag_497:\n        /* \"#utility.yul\":20677:20816   */\n      swap1\n      pop\n        /* \"#utility.yul\":20404:20823   */\n      swap2\n      swap1\n      pop\n      jump\t// out\n        /* \"#utility.yul\":20829:21020   */\n    tag_83:\n        /* \"#utility.yul\":20869:20872   */\n      0x00\n        /* \"#utility.yul\":20888:20908   */\n      tag_499\n        /* \"#utility.yul\":20906:20907   */\n      dup3\n        /* \"#utility.yul\":20888:20908   */\n      tag_237\n      jump\t// in\n    tag_499:\n        /* \"#utility.yul\":20883:20908   */\n      swap2\n      pop\n        /* \"#utility.yul\":20922:20942   */\n      tag_500\n        /* \"#utility.yul\":20940:20941   */\n      dup4\n        /* \"#utility.yul\":20922:20942   */\n      tag_237\n      jump\t// in\n    tag_500:\n        /* \"#utility.yul\":20917:20942   */\n      swap3\n      pop\n        /* \"#utility.yul\":20965:20966   */\n      dup3\n        /* \"#utility.yul\":20962:20963   */\n      dup3\n        /* \"#utility.yul\":20958:20967   */\n      add\n        /* \"#utility.yul\":20951:20967   */\n      swap1\n      pop\n        /* \"#utility.yul\":20986:20989   */\n      dup1\n        /* \"#utility.yul\":20983:20984   */\n      dup3\n        /* \"#utility.yul\":20980:20990   */\n      gt\n        /* \"#utility.yul\":20977:21013   */\n      iszero\n      tag_501\n      jumpi\n        /* \"#utility.yul\":20993:21011   */\n      tag_502\n      tag_265\n      jump\t// in\n    tag_502:\n        /* \"#utility.yul\":20977:21013   */\n    tag_501:\n        /* \"#utility.yul\":20829:21020   */\n      swap3\n      swap2\n      pop\n      pop\n      jump\t// out\n        /* \"#utility.yul\":21026:21180   */\n    tag_283:\n        /* \"#utility.yul\":21166:21172   */\n      0x3939393900000000000000000000000000000000000000000000000000000000\n        /* \"#utility.yul\":21162:21163   */\n      0x00\n        /* \"#utility.yul\":21154:21160   */\n      dup3\n        /* \"#utility.yul\":21150:21164   */\n      add\n        /* \"#utility.yul\":21143:21173   */\n      mstore\n        /* \"#utility.yul\":21026:21180   */\n      pop\n      jump\t// out\n        /* \"#utility.yul\":21186:21551   */\n    tag_284:\n        /* \"#utility.yul\":21328:21331   */\n      0x00\n        /* \"#utility.yul\":21349:21415   */\n      tag_505\n        /* \"#utility.yul\":21413:21414   */\n      0x04\n        /* \"#utility.yul\":21408:21411   */\n      dup4\n        /* \"#utility.yul\":21349:21415   */\n      tag_261\n      jump\t// in\n    tag_505:\n        /* \"#utility.yul\":21342:21415   */\n      swap2\n      pop\n        /* \"#utility.yul\":21424:21517   */\n      tag_506\n        /* \"#utility.yul\":21513:21516   */\n      dup3\n        /* \"#utility.yul\":21424:21517   */\n      tag_283\n      jump\t// in\n    tag_506:\n        /* \"#utility.yul\":21542:21544   */\n      0x20\n        /* \"#utility.yul\":21537:21540   */\n      dup3\n        /* \"#utility.yul\":21533:21545   */\n      add\n        /* \"#utility.yul\":21526:21545   */\n      swap1\n      pop\n        /* \"#utility.yul\":21186:21551   */\n      swap2\n      swap1\n      pop\n      jump\t// out\n        /* \"#utility.yul\":21557:22086   */\n    tag_95:\n        /* \"#utility.yul\":21751:21755   */\n      0x00\n        /* \"#utility.yul\":21789:21791   */\n      0x40\n        /* \"#utility.yul\":21778:21787   */\n      dup3\n        /* \"#utility.yul\":21774:21792   */\n      add\n        /* \"#utility.yul\":21766:21792   */\n      swap1\n      pop\n        /* \"#utility.yul\":21838:21847   */\n      dup2\n        /* \"#utility.yul\":21832:21836   */\n      dup2\n        /* \"#utility.yul\":21828:21848   */\n      sub\n        /* \"#utility.yul\":21824:21825   */\n      0x00\n        /* \"#utility.yul\":21813:21822   */\n      dup4\n        /* \"#utility.yul\":21809:21826   */\n      add\n        /* \"#utility.yul\":21802:21849   */\n      mstore\n        /* \"#utility.yul\":21866:21997   */\n      tag_508\n        /* \"#utility.yul\":21992:21996   */\n      dup2\n        /* \"#utility.yul\":21866:21997   */\n      tag_284\n      jump\t// in\n    tag_508:\n        /* \"#utility.yul\":21858:21997   */\n      swap1\n      pop\n        /* \"#utility.yul\":22007:22079   */\n      tag_509\n        /* \"#utility.yul\":22075:22077   */\n      0x20\n        /* \"#utility.yul\":22064:22073   */\n      dup4\n        /* \"#utility.yul\":22060:22078   */\n      add\n        /* \"#utility.yul\":22051:22057   */\n      dup5\n        /* \"#utility.yul\":22007:22079   */\n      tag_263\n      jump\t// in\n    tag_509:\n        /* \"#utility.yul\":21557:22086   */\n      swap3\n      swap2\n      pop\n      pop\n      jump\t// out\n        /* \"#utility.yul\":22092:22325   */\n    tag_102:\n        /* \"#utility.yul\":22131:22134   */\n      0x00\n        /* \"#utility.yul\":22154:22178   */\n      tag_511\n        /* \"#utility.yul\":22172:22177   */\n      dup3\n        /* \"#utility.yul\":22154:22178   */\n      tag_237\n      jump\t// in\n    tag_511:\n        /* \"#utility.yul\":22145:22178   */\n      swap2\n      pop\n        /* \"#utility.yul\":22200:22266   */\n      0xffffffffffffffffffffffffffffffffffffffffffffffffffffffffffffffff\n        /* \"#utility.yul\":22193:22198   */\n      dup3\n        /* \"#utility.yul\":22190:22267   */\n      sub\n        /* \"#utility.yul\":22187:22290   */\n      tag_512\n      jumpi\n        /* \"#utility.yul\":22270:22288   */\n      tag_513\n      tag_265\n      jump\t// in\n    tag_513:\n        /* \"#utility.yul\":22187:22290   */\n    tag_512:\n        /* \"#utility.yul\":22317:22318   */\n      0x01\n        /* \"#utility.yul\":22310:22315   */\n      dup3\n        /* \"#utility.yul\":22306:22319   */\n      add\n        /* \"#utility.yul\":22299:22319   */\n      swap1\n      pop\n        /* \"#utility.yul\":22092:22325   */\n      swap2\n      swap1\n      pop\n      jump\t// out\n        /* \"#utility.yul\":22331:22511   */\n    tag_141:\n        /* \"#utility.yul\":22379:22456   */\n      0x4e487b7100000000000000000000000000000000000000000000000000000000\n        /* \"#utility.yul\":22376:22377   */\n      0x00\n        /* \"#utility.yul\":22369:22457   */\n      mstore\n        /* \"#utility.yul\":22476:22480   */\n      0x31\n        /* \"#utility.yul\":22473:22474   */\n      0x04\n        /* \"#utility.yul\":22466:22481   */\n      mstore\n        /* \"#utility.yul\":22500:22504   */\n      0x24\n        /* \"#utility.yul\":22497:22498   */\n      0x00\n        /* \"#utility.yul\":22490:22505   */\n      revert\n        /* \"#utility.yul\":22517:22666   */\n    tag_285:\n        /* \"#utility.yul\":22566:22572   */\n      0x00\n        /* \"#utility.yul\":22600:22605   */\n      dup2\n        /* \"#utility.yul\":22594:22606   */\n      sload\n        /* \"#utility.yul\":22584:22606   */\n      swap1\n      pop\n        /* \"#utility.yul\":22626:22659   */\n      tag_516\n        /* \"#utility.yul\":22652:22658   */\n      dup2\n        /* \"#utility.yul\":22626:22659   */\n      tag_54\n      jump\t// in\n    tag_516:\n        /* \"#utility.yul\":22616:22659   */\n      swap1\n      pop\n        /* \"#utility.yul\":22517:22666   */\n      swap2\n      swap1\n      pop\n      jump\t// out\n        /* \"#utility.yul\":22672:24123   */\n    tag_162:\n        /* \"#utility.yul\":22783:22786   */\n      dup2\n        /* \"#utility.yul\":22777:22781   */\n      dup2\n        /* \"#utility.yul\":22774:22787   */\n      sub\n        /* \"#utility.yul\":22771:22797   */\n      tag_518\n      jumpi\n        /* \"#utility.yul\":22790:22795   */\n      pop\n      pop\n      jump(tag_517)\n        /* \"#utility.yul\":22771:22797   */\n    tag_518:\n        /* \"#utility.yul\":22821:22855   */\n      tag_519\n        /* \"#utility.yul\":22851:22854   */\n      dup3\n        /* \"#utility.yul\":22821:22855   */\n      tag_285\n      jump\t// in\n    tag_519:\n        /* \"#utility.yul\":22920:22938   */\n      0xffffffffffffffff\n        /* \"#utility.yul\":22912:22918   */\n      dup2\n        /* \"#utility.yul\":22909:22939   */\n      gt\n        /* \"#utility.yul\":22906:22962   */\n      iszero\n      tag_520\n      jumpi\n        /* \"#utility.yul\":22942:22960   */\n      tag_521\n      tag_253\n      jump\t// in\n    tag_521:\n        /* \"#utility.yul\":22906:22962   */\n    tag_520:\n        /* \"#utility.yul\":22986:23024   */\n      tag_522\n        /* \"#utility.yul\":23018:23022   */\n      dup3\n        /* \"#utility.yul\":23012:23023   */\n      sload\n        /* \"#utility.yul\":22986:23024   */\n      tag_54\n      jump\t// in\n    tag_522:\n        /* \"#utility.yul\":23071:23138   */\n      tag_523\n        /* \"#utility.yul\":23131:23137   */\n      dup3\n        /* \"#utility.yul\":23123:23129   */\n      dup3\n        /* \"#utility.yul\":23117:23121   */\n      dup6\n        /* \"#utility.yul\":23071:23138   */\n      tag_277\n      jump\t// in\n    tag_523:\n        /* \"#utility.yul\":23165:23166   */\n      0x00\n        /* \"#utility.yul\":23194:23196   */\n      0x1f\n        /* \"#utility.yul\":23186:23192   */\n      dup4\n        /* \"#utility.yul\":23183:23197   */\n      gt\n        /* \"#utility.yul\":23211:23212   */\n      0x01\n        /* \"#utility.yul\":23206:23878   */\n      dup2\n      eq\n      tag_525\n      jumpi\n        /* \"#utility.yul\":23922:23923   */\n      0x00\n        /* \"#utility.yul\":23939:23945   */\n      dup5\n        /* \"#utility.yul\":23936:24013   */\n      iszero\n      tag_526\n      jumpi\n        /* \"#utility.yul\":23988:23997   */\n      dup3\n        /* \"#utility.yul\":23983:23986   */\n      dup8\n        /* \"#utility.yul\":23979:23998   */\n      add\n        /* \"#utility.yul\":23973:23999   */\n      sload\n        /* \"#utility.yul\":23964:23999   */\n      swap1\n      pop\n        /* \"#utility.yul\":23936:24013   */\n    tag_526:\n        /* \"#utility.yul\":24039:24106   */\n      tag_527\n        /* \"#utility.yul\":24099:24105   */\n      dup6\n        /* \"#utility.yul\":24092:24097   */\n      dup3\n        /* \"#utility.yul\":24039:24106   */\n      tag_280\n      jump\t// in\n    tag_527:\n        /* \"#utility.yul\":24033:24037   */\n      dup7\n        /* \"#utility.yul\":24026:24107   */\n      sstore\n        /* \"#utility.yul\":23895:24117   */\n      pop\n        /* \"#utility.yul\":23176:24117   */\n      jump(tag_524)\n        /* \"#utility.yul\":23206:23878   */\n    tag_525:\n        /* \"#utility.yul\":23258:23262   */\n      0x1f\n        /* \"#utility.yul\":23254:23263   */\n      not\n        /* \"#utility.yul\":23246:23252   */\n      dup5\n        /* \"#utility.yul\":23242:23264   */\n      and\n        /* \"#utility.yul\":23284:23320   */\n      tag_528\n        /* \"#utility.yul\":23316:23319   */\n      dup8\n        /* \"#utility.yul\":23284:23320   */\n      tag_266\n      jump\t// in\n    tag_528:\n        /* \"#utility.yul\":23277:23320   */\n      swap7\n      pop\n        /* \"#utility.yul\":23347:23384   */\n      tag_529\n        /* \"#utility.yul\":23379:23383   */\n      dup7\n        /* \"#utility.yul\":23347:23384   */\n      tag_266\n      jump\t// in\n    tag_529:\n        /* \"#utility.yul\":23406:23407   */\n      0x00\n        /* \"#utility.yul\":23420:23627   */\n    tag_530:\n        /* \"#utility.yul\":23434:23441   */\n      dup3\n        /* \"#utility.yul\":23431:23432   */\n      dup2\n        /* \"#utility.yul\":23428:23442   */\n      lt\n        /* \"#utility.yul\":23420:23627   */\n      iszero\n      tag_532\n      jumpi\n        /* \"#utility.yul\":23513:23522   */\n      dup5\n        /* \"#utility.yul\":23508:23511   */\n      dup10\n        /* \"#utility.yul\":23504:23523   */\n      add\n        /* \"#utility.yul\":23498:23524   */\n      sload\n        /* \"#utility.yul\":23490:23496   */\n      dup3\n        /* \"#utility.yul\":23483:23525   */\n      sstore\n        /* \"#utility.yul\":23564:23565   */\n      0x01\n        /* \"#utility.yul\":23556:23562   */\n      dup3\n        /* \"#utility.yul\":23552:23566   */\n      add\n        /* \"#utility.yul\":23542:23566   */\n      swap2\n      pop\n        /* \"#utility.yul\":23611:23612   */\n      0x01\n        /* \"#utility.yul\":23600:23609   */\n      dup6\n        /* \"#utility.yul\":23596:23613   */\n      add\n        /* \"#utility.yul\":23583:23613   */\n      swap5\n      pop\n        /* \"#utility.yul\":23457:23461   */\n      0x20\n        /* \"#utility.yul\":23454:23455   */\n      dup2\n        /* \"#utility.yul\":23450:23462   */\n      add\n        /* \"#utility.yul\":23445:23462   */\n      swap1\n      pop\n        /* \"#utility.yul\":23420:23627   */\n      jump(tag_530)\n    tag_532:\n        /* \"#utility.yul\":23655:23661   */\n      dup7\n        /* \"#utility.yul\":23646:23653   */\n      dup4\n        /* \"#utility.yul\":23643:23662   */\n      lt\n        /* \"#utility.yul\":23640:23819   */\n      iszero\n      tag_533\n      jumpi\n        /* \"#utility.yul\":23713:23722   */\n      dup5\n        /* \"#utility.yul\":23708:23711   */\n      dup10\n        /* \"#utility.yul\":23704:23723   */\n      add\n        /* \"#utility.yul\":23698:23724   */\n      sload\n        /* \"#utility.yul\":23756:23804   */\n      tag_534\n        /* \"#utility.yul\":23798:23802   */\n      0x1f\n        /* \"#utility.yul\":23790:23796   */\n      dup10\n        /* \"#utility.yul\":23786:23803   */\n      and\n        /* \"#utility.yul\":23775:23784   */\n      dup3\n        /* \"#utility.yul\":23756:23804   */\n      tag_279\n      jump\t// in\n    tag_534:\n        /* \"#utility.yul\":23748:23754   */\n      dup4\n        /* \"#utility.yul\":23741:23805   */\n      sstore\n        /* \"#utility.yul\":23663:23819   */\n      pop\n        /* \"#utility.yul\":23640:23819   */\n    tag_533:\n        /* \"#utility.yul\":23865:23866   */\n      0x01\n        /* \"#utility.yul\":23861:23862   */\n      0x02\n        /* \"#utility.yul\":23853:23859   */\n      dup9\n        /* \"#utility.yul\":23849:23863   */\n      mul\n        /* \"#utility.yul\":23845:23867   */\n      add\n        /* \"#utility.yul\":23839:23843   */\n      dup9\n        /* \"#utility.yul\":23832:23868   */\n      sstore\n        /* \"#utility.yul\":23213:23878   */\n      pop\n      pop\n      pop\n        /* \"#utility.yul\":23176:24117   */\n    tag_524:\n      pop\n        /* \"#utility.yul\":22761:24123   */\n      pop\n      pop\n      pop\n        /* \"#utility.yul\":22672:24123   */\n      pop\n      pop\n    tag_517:\n      jump\t// out\n        /* \"#utility.yul\":24129:24477   */\n    tag_217:\n        /* \"#utility.yul\":24169:24176   */\n      0x00\n        /* \"#utility.yul\":24192:24212   */\n      tag_536\n        /* \"#utility.yul\":24210:24211   */\n      dup3\n        /* \"#utility.yul\":24192:24212   */\n      tag_237\n      jump\t// in\n    tag_536:\n        /* \"#utility.yul\":24187:24212   */\n      swap2\n      pop\n        /* \"#utility.yul\":24226:24246   */\n      tag_537\n        /* \"#utility.yul\":24244:24245   */\n      dup4\n        /* \"#utility.yul\":24226:24246   */\n      tag_237\n      jump\t// in\n    tag_537:\n        /* \"#utility.yul\":24221:24246   */\n      swap3\n      pop\n        /* \"#utility.yul\":24414:24415   */\n      dup2\n        /* \"#utility.yul\":24346:24412   */\n      0xffffffffffffffffffffffffffffffffffffffffffffffffffffffffffffffff\n        /* \"#utility.yul\":24342:24416   */\n      div\n        /* \"#utility.yul\":24339:24340   */\n      dup4\n        /* \"#utility.yul\":24336:24417   */\n      gt\n        /* \"#utility.yul\":24331:24332   */\n      dup3\n        /* \"#utility.yul\":24324:24333   */\n      iszero\n        /* \"#utility.yul\":24317:24334   */\n      iszero\n        /* \"#utility.yul\":24313:24418   */\n      and\n        /* \"#utility.yul\":24310:24441   */\n      iszero\n      tag_538\n      jumpi\n        /* \"#utility.yul\":24421:24439   */\n      tag_539\n      tag_265\n      jump\t// in\n    tag_539:\n        /* \"#utility.yul\":24310:24441   */\n    tag_538:\n        /* \"#utility.yul\":24469:24470   */\n      dup3\n        /* \"#utility.yul\":24466:24467   */\n      dup3\n        /* \"#utility.yul\":24462:24471   */\n      mul\n        /* \"#utility.yul\":24451:24471   */\n      swap1\n      pop\n        /* \"#utility.yul\":24129:24477   */\n      swap3\n      swap2\n      pop\n      pop\n      jump\t// out\n\n    auxdata: 0xa2646970667358221220718ac23c37c7d681c5c09c16a76978e39a4c7623fd9f982ce709b9ffb3a80fc264736f6c63430008100033\n}\n",
				"bytecode": {
					"linkReferences": {},
					"object": "608060405234801561001057600080fd5b506125a3806100206000396000f3fe608060405234801561001057600080fd5b50600436106100885760003560e01c806380c9419e1161005b57806380c9419e14610111578063904cc17514610148578063ac8b130014610178578063f8a02d841461019457610088565b8063377e6ff71461008d5780635102bc9d146100bd578063575b70d0146100d957806369ba1a75146100f5575b600080fd5b6100a760048036038101906100a2919061189e565b6101c4565b6040516100b49190611af5565b60405180910390f35b6100d760048036038101906100d29190611c78565b6103d3565b005b6100f360048036038101906100ee9190611cd4565b610415565b005b61010f600480360381019061010a9190611d27565b610902565b005b61012b60048036038101906101269190611d27565b610e74565b60405161013f989796959493929190611dbc565b60405180910390f35b610162600480360381019061015d9190611d27565b610f94565b60405161016f9190611af5565b60405180910390f35b610192600480360381019061018d9190611e41565b611350565b005b6101ae60048036038101906101a99190611eb0565b611737565b6040516101bb9190611ef9565b60405180910390f35b6060600360008373ffffffffffffffffffffffffffffffffffffffff1673ffffffffffffffffffffffffffffffffffffffff168152602001908152602001600020805480602002602001604051908101604052809291908181526020016000905b828210156103c85783829060005260206000209060080201604051806101000160405290816000820154815260200160018201805461026390611f43565b80601f016020809104026020016040519081016040528092919081815260200182805461028f90611f43565b80156102dc5780601f106102b1576101008083540402835291602001916102dc565b820191906000526020600020905b8154815290600101906020018083116102bf57829003601f168201915b50505050508152602001600282015481526020016003820160009054906101000a900473ffffffffffffffffffffffffffffffffffffffff1673ffffffffffffffffffffffffffffffffffffffff1673ffffffffffffffffffffffffffffffffffffffff1681526020016004820160009054906101000a900473ffffffffffffffffffffffffffffffffffffffff1673ffffffffffffffffffffffffffffffffffffffff1673ffffffffffffffffffffffffffffffffffffffff168152602001600582015481526020016006820154815260200160078201548152505081526020019060010190610225565b505050509050919050565b80600180846103e29190611fa3565b815481106103f3576103f2611fd7565b5b9060005260206000209060080201600101908161041091906121b2565b505050565b8073ffffffffffffffffffffffffffffffffffffffff166001808561043a9190611fa3565b8154811061044b5761044a611fd7565b5b906000526020600020906008020160040160009054906101000a900473ffffffffffffffffffffffffffffffffffffffff1673ffffffffffffffffffffffffffffffffffffffff16036104d3576040517f08c379a00000000000000000000000000000000000000000000000000000000081526004016104ca906122d0565b60405180910390fd5b6000600190506000600460006001876104ec9190611fa3565b8152602001908152602001600020805490509050600081036105d5576001806001876105189190611fa3565b8154811061052957610528611fd7565b5b9060005260206000209060080201600501600082825461054991906122f0565b92505081905550600460006001876105619190611fa3565b8152602001908152602001600020839080600181540180825580915050600190039060005260206000200160009091909190916101000a81548173ffffffffffffffffffffffffffffffffffffffff021916908373ffffffffffffffffffffffffffffffffffffffff1602179055506107ed565b60005b8181101561071c577f1dfffa052d4a63bd70f14b863e128979d1c59e3589a0a3beb2633a120047042d600460006001896106129190611fa3565b8152602001908152602001600020828154811061063257610631611fd7565b5b9060005260206000200160009054906101000a900473ffffffffffffffffffffffffffffffffffffffff1660405161066a9190612370565b60405180910390a18373ffffffffffffffffffffffffffffffffffffffff166004600060018961069a9190611fa3565b815260200190815260200160002082815481106106ba576106b9611fd7565b5b9060005260206000200160009054906101000a900473ffffffffffffffffffffffffffffffffffffffff1673ffffffffffffffffffffffffffffffffffffffff1603610709576000925061071c565b80806107149061239e565b9150506105d8565b5081156107ec576001806001876107339190611fa3565b8154811061074457610743611fd7565b5b9060005260206000209060080201600501600082825461076491906122f0565b925050819055506004600060018761077c9190611fa3565b8152602001908152602001600020839080600181540180825580915050600190039060005260206000200160009091909190916101000a81548173ffffffffffffffffffffffffffffffffffffffff021916908373ffffffffffffffffffffffffffffffffffffffff1602179055505b5b83600180876107fc9190611fa3565b8154811061080d5761080c611fd7565b5b90600052602060002090600802016007015461082991906122f0565b600180876108379190611fa3565b8154811061084857610847611fd7565b5b9060005260206000209060080201600701819055506001808661086b9190611fa3565b8154811061087c5761087b611fd7565b5b9060005260206000209060080201600601546001808761089c9190611fa3565b815481106108ad576108ac611fd7565b5b906000526020600020906008020160070154106108fb576002600180876108d49190611fa3565b815481106108e5576108e4611fd7565b5b9060005260206000209060080201600201819055505b5050505050565b6003600180836109129190611fa3565b8154811061092357610922611fd7565b5b906000526020600020906008020160020181905550600160026000600181526020019081526020016000208054905003610a1f57600260006001815260200190815260200160002080548061097b5761097a6123e6565b5b60019003818190600052602060002090600802016000808201600090556001820160006109a891906117cf565b60028201600090556003820160006101000a81549073ffffffffffffffffffffffffffffffffffffffff02191690556004820160006101000a81549073ffffffffffffffffffffffffffffffffffffffff021916905560058201600090556006820160009055600782016000905550509055610cf0565b60005b6001600260006001815260200190815260200160002080549050610a469190611fa3565b811015610c2b578160026000600181526020019081526020016000208281548110610a7457610a73611fd7565b5b90600052602060002090600802016000015403610c18576002600060018152602001908152602001600020600182610aac91906122f0565b81548110610abd57610abc611fd7565b5b906000526020600020906008020160026000600181526020019081526020016000208281548110610af157610af0611fd7565b5b90600052602060002090600802016000820154816000015560018201816001019081610b1d919061242b565b50600282015481600201556003820160009054906101000a900473ffffffffffffffffffffffffffffffffffffffff168160030160006101000a81548173ffffffffffffffffffffffffffffffffffffffff021916908373ffffffffffffffffffffffffffffffffffffffff1602179055506004820160009054906101000a900473ffffffffffffffffffffffffffffffffffffffff168160040160006101000a81548173ffffffffffffffffffffffffffffffffffffffff021916908373ffffffffffffffffffffffffffffffffffffffff1602179055506005820154816005015560068201548160060155600782015481600701559050505b8080610c239061239e565b915050610a22565b506002600060018152602001908152602001600020805480610c5057610c4f6123e6565b5b6001900381819060005260206000209060080201600080820160009055600182016000610c7d91906117cf565b60028201600090556003820160006101000a81549073ffffffffffffffffffffffffffffffffffffffff02191690556004820160006101000a81549073ffffffffffffffffffffffffffffffffffffffff0219169055600582016000905560068201600090556007820160009055505090555b600260006003815260200190815260200160002060018083610d129190611fa3565b81548110610d2357610d22611fd7565b5b906000526020600020906008020190806001815401808255809150506001900390600052602060002090600802016000909190919091506000820154816000015560018201816001019081610d78919061242b565b50600282015481600201556003820160009054906101000a900473ffffffffffffffffffffffffffffffffffffffff168160030160006101000a81548173ffffffffffffffffffffffffffffffffffffffff021916908373ffffffffffffffffffffffffffffffffffffffff1602179055506004820160009054906101000a900473ffffffffffffffffffffffffffffffffffffffff168160040160006101000a81548173ffffffffffffffffffffffffffffffffffffffff021916908373ffffffffffffffffffffffffffffffffffffffff160217905550600582015481600501556006820154816006015560078201548160070155505050565b60018181548110610e8457600080fd5b9060005260206000209060080201600091509050806000015490806001018054610ead90611f43565b80601f0160208091040260200160405190810160405280929190818152602001828054610ed990611f43565b8015610f265780601f10610efb57610100808354040283529160200191610f26565b820191906000526020600020905b815481529060010190602001808311610f0957829003601f168201915b5050505050908060020154908060030160009054906101000a900473ffffffffffffffffffffffffffffffffffffffff16908060040160009054906101000a900473ffffffffffffffffffffffffffffffffffffffff16908060050154908060060154908060070154905088565b60606000820361116e576001805480602002602001604051908101604052809291908181526020016000905b8282101561116357838290600052602060002090600802016040518061010001604052908160008201548152602001600182018054610ffe90611f43565b80601f016020809104026020016040519081016040528092919081815260200182805461102a90611f43565b80156110775780601f1061104c57610100808354040283529160200191611077565b820191906000526020600020905b81548152906001019060200180831161105a57829003601f168201915b50505050508152602001600282015481526020016003820160009054906101000a900473ffffffffffffffffffffffffffffffffffffffff1673ffffffffffffffffffffffffffffffffffffffff1673ffffffffffffffffffffffffffffffffffffffff1681526020016004820160009054906101000a900473ffffffffffffffffffffffffffffffffffffffff1673ffffffffffffffffffffffffffffffffffffffff1673ffffffffffffffffffffffffffffffffffffffff168152602001600582015481526020016006820154815260200160078201548152505081526020019060010190610fc0565b50505050905061134b565b60026000838152602001908152602001600020805480602002602001604051908101604052809291908181526020016000905b82821015611344578382906000526020600020906008020160405180610100016040529081600082015481526020016001820180546111df90611f43565b80601f016020809104026020016040519081016040528092919081815260200182805461120b90611f43565b80156112585780601f1061122d57610100808354040283529160200191611258565b820191906000526020600020905b81548152906001019060200180831161123b57829003601f168201915b50505050508152602001600282015481526020016003820160009054906101000a900473ffffffffffffffffffffffffffffffffffffffff1673ffffffffffffffffffffffffffffffffffffffff1673ffffffffffffffffffffffffffffffffffffffff1681526020016004820160009054906101000a900473ffffffffffffffffffffffffffffffffffffffff1673ffffffffffffffffffffffffffffffffffffffff1673ffffffffffffffffffffffffffffffffffffffff1681526020016005820154815260200160068201548152602001600782015481525050815260200190600101906111a1565b5050505090505b919050565b6000808154809291906113629061239e565b919050555060006040518061010001604052806000548152602001858152602001600181526020013373ffffffffffffffffffffffffffffffffffffffff1681526020018473ffffffffffffffffffffffffffffffffffffffff1681526020016000815260200183815260200160008152509050600181908060018154018082558091505060019003906000526020600020906008020160009091909190915060008201518160000155602082015181600101908161142191906121b2565b506040820151816002015560608201518160030160006101000a81548173ffffffffffffffffffffffffffffffffffffffff021916908373ffffffffffffffffffffffffffffffffffffffff16021790555060808201518160040160006101000a81548173ffffffffffffffffffffffffffffffffffffffff021916908373ffffffffffffffffffffffffffffffffffffffff16021790555060a0820151816005015560c0820151816006015560e082015181600701555050600260006001815260200190815260200160002081908060018154018082558091505060019003906000526020600020906008020160009091909190915060008201518160000155602082015181600101908161153791906121b2565b506040820151816002015560608201518160030160006101000a81548173ffffffffffffffffffffffffffffffffffffffff021916908373ffffffffffffffffffffffffffffffffffffffff16021790555060808201518160040160006101000a81548173ffffffffffffffffffffffffffffffffffffffff021916908373ffffffffffffffffffffffffffffffffffffffff16021790555060a0820151816005015560c0820151816006015560e082015181600701555050600360003373ffffffffffffffffffffffffffffffffffffffff1673ffffffffffffffffffffffffffffffffffffffff16815260200190815260200160002081908060018154018082558091505060019003906000526020600020906008020160009091909190915060008201518160000155602082015181600101908161167891906121b2565b506040820151816002015560608201518160030160006101000a81548173ffffffffffffffffffffffffffffffffffffffff021916908373ffffffffffffffffffffffffffffffffffffffff16021790555060808201518160040160006101000a81548173ffffffffffffffffffffffffffffffffffffffff021916908373ffffffffffffffffffffffffffffffffffffffff16021790555060a0820151816005015560c0820151816006015560e08201518160070155505050505050565b6000808290506000805b82518110156117c457600083828151811061175f5761175e611fd7565b5b602001015160f81c60f81b60f81c60ff16905060308110158015611784575060398111155b156117b0576030816117969190611fa3565b600a846117a39190612513565b6117ad91906122f0565b92505b5080806117bc9061239e565b915050611741565b508092505050919050565b5080546117db90611f43565b6000825580601f106117ed575061180c565b601f01602090049060005260206000209081019061180b919061180f565b5b50565b5b80821115611828576000816000905550600101611810565b5090565b6000604051905090565b600080fd5b600080fd5b600073ffffffffffffffffffffffffffffffffffffffff82169050919050565b600061186b82611840565b9050919050565b61187b81611860565b811461188657600080fd5b50565b60008135905061189881611872565b92915050565b6000602082840312156118b4576118b3611836565b5b60006118c284828501611889565b91505092915050565b600081519050919050565b600082825260208201905092915050565b6000819050602082019050919050565b6000819050919050565b61190a816118f7565b82525050565b600081519050919050565b600082825260208201905092915050565b60005b8381101561194a57808201518184015260208101905061192f565b60008484015250505050565b6000601f19601f8301169050919050565b600061197282611910565b61197c818561191b565b935061198c81856020860161192c565b61199581611956565b840191505092915050565b6119a981611860565b82525050565b6000610100830160008301516119c86000860182611901565b50602083015184820360208601526119e08282611967565b91505060408301516119f56040860182611901565b506060830151611a0860608601826119a0565b506080830151611a1b60808601826119a0565b5060a0830151611a2e60a0860182611901565b5060c0830151611a4160c0860182611901565b5060e0830151611a5460e0860182611901565b508091505092915050565b6000611a6b83836119af565b905092915050565b6000602082019050919050565b6000611a8b826118cb565b611a9581856118d6565b935083602082028501611aa7856118e7565b8060005b85811015611ae35784840389528151611ac48582611a5f565b9450611acf83611a73565b925060208a01995050600181019050611aab565b50829750879550505050505092915050565b60006020820190508181036000830152611b0f8184611a80565b905092915050565b611b20816118f7565b8114611b2b57600080fd5b50565b600081359050611b3d81611b17565b92915050565b600080fd5b600080fd5b7f4e487b7100000000000000000000000000000000000000000000000000000000600052604160045260246000fd5b611b8582611956565b810181811067ffffffffffffffff82111715611ba457611ba3611b4d565b5b80604052505050565b6000611bb761182c565b9050611bc38282611b7c565b919050565b600067ffffffffffffffff821115611be357611be2611b4d565b5b611bec82611956565b9050602081019050919050565b82818337600083830152505050565b6000611c1b611c1684611bc8565b611bad565b905082815260208101848484011115611c3757611c36611b48565b5b611c42848285611bf9565b509392505050565b600082601f830112611c5f57611c5e611b43565b5b8135611c6f848260208601611c08565b91505092915050565b60008060408385031215611c8f57611c8e611836565b5b6000611c9d85828601611b2e565b925050602083013567ffffffffffffffff811115611cbe57611cbd61183b565b5b611cca85828601611c4a565b9150509250929050565b600080600060608486031215611ced57611cec611836565b5b6000611cfb86828701611b2e565b9350506020611d0c86828701611b2e565b9250506040611d1d86828701611889565b9150509250925092565b600060208284031215611d3d57611d3c611836565b5b6000611d4b84828501611b2e565b91505092915050565b611d5d816118f7565b82525050565b600082825260208201905092915050565b6000611d7f82611910565b611d898185611d63565b9350611d9981856020860161192c565b611da281611956565b840191505092915050565b611db681611860565b82525050565b600061010082019050611dd2600083018b611d54565b8181036020830152611de4818a611d74565b9050611df36040830189611d54565b611e006060830188611dad565b611e0d6080830187611dad565b611e1a60a0830186611d54565b611e2760c0830185611d54565b611e3460e0830184611d54565b9998505050505050505050565b600080600060608486031215611e5a57611e59611836565b5b600084013567ffffffffffffffff811115611e7857611e7761183b565b5b611e8486828701611c4a565b9350506020611e9586828701611889565b9250506040611ea686828701611b2e565b9150509250925092565b600060208284031215611ec657611ec5611836565b5b600082013567ffffffffffffffff811115611ee457611ee361183b565b5b611ef084828501611c4a565b91505092915050565b6000602082019050611f0e6000830184611d54565b92915050565b7f4e487b7100000000000000000000000000000000000000000000000000000000600052602260045260246000fd5b60006002820490506001821680611f5b57607f821691505b602082108103611f6e57611f6d611f14565b5b50919050565b7f4e487b7100000000000000000000000000000000000000000000000000000000600052601160045260246000fd5b6000611fae826118f7565b9150611fb9836118f7565b9250828203905081811115611fd157611fd0611f74565b5b92915050565b7f4e487b7100000000000000000000000000000000000000000000000000000000600052603260045260246000fd5b60008190508160005260206000209050919050565b60006020601f8301049050919050565b600082821b905092915050565b6000600883026120687fffffffffffffffffffffffffffffffffffffffffffffffffffffffffffffffff8261202b565b612072868361202b565b95508019841693508086168417925050509392505050565b6000819050919050565b60006120af6120aa6120a5846118f7565b61208a565b6118f7565b9050919050565b6000819050919050565b6120c983612094565b6120dd6120d5826120b6565b848454612038565b825550505050565b600090565b6120f26120e5565b6120fd8184846120c0565b505050565b5b81811015612121576121166000826120ea565b600181019050612103565b5050565b601f8211156121665761213781612006565b6121408461201b565b8101602085101561214f578190505b61216361215b8561201b565b830182612102565b50505b505050565b600082821c905092915050565b60006121896000198460080261216b565b1980831691505092915050565b60006121a28383612178565b9150826002028217905092915050565b6121bb82611910565b67ffffffffffffffff8111156121d4576121d3611b4d565b5b6121de8254611f43565b6121e9828285612125565b600060209050601f83116001811461221c576000841561220a578287015190505b6122148582612196565b86555061227c565b601f19841661222a86612006565b60005b828110156122525784890151825560018201915060208501945060208101905061222d565b8683101561226f578489015161226b601f891682612178565b8355505b6001600288020188555050505b505050505050565b7fe4b88de883bde7bb99e887aae5b7b1e68d90e6acbe0000000000000000000000600082015250565b60006122ba601583611d63565b91506122c582612284565b602082019050919050565b600060208201905081810360008301526122e9816122ad565b9050919050565b60006122fb826118f7565b9150612306836118f7565b925082820190508082111561231e5761231d611f74565b5b92915050565b7f3939393900000000000000000000000000000000000000000000000000000000600082015250565b600061235a600483611d63565b915061236582612324565b602082019050919050565b600060408201905081810360008301526123898161234d565b90506123986020830184611dad565b92915050565b60006123a9826118f7565b91507fffffffffffffffffffffffffffffffffffffffffffffffffffffffffffffffff82036123db576123da611f74565b5b600182019050919050565b7f4e487b7100000000000000000000000000000000000000000000000000000000600052603160045260246000fd5b60008154905061242481611f43565b9050919050565b818103612439575050612511565b61244282612415565b67ffffffffffffffff81111561245b5761245a611b4d565b5b6124658254611f43565b612470828285612125565b6000601f83116001811461249f576000841561248d578287015490505b6124978582612196565b86555061250a565b601f1984166124ad87612006565b96506124b886612006565b60005b828110156124e0578489015482556001820191506001850194506020810190506124bb565b868310156124fd57848901546124f9601f891682612178565b8355505b6001600288020188555050505b5050505050505b565b600061251e826118f7565b9150612529836118f7565b9250817fffffffffffffffffffffffffffffffffffffffffffffffffffffffffffffffff048311821515161561256257612561611f74565b5b82820290509291505056fea2646970667358221220718ac23c37c7d681c5c09c16a76978e39a4c7623fd9f982ce709b9ffb3a80fc264736f6c63430008100033",
					"opcodes": "PUSH1 0x80 PUSH1 0x40 MSTORE CALLVALUE DUP1 ISZERO PUSH2 0x10 JUMPI PUSH1 0x0 DUP1 REVERT JUMPDEST POP PUSH2 0x25A3 DUP1 PUSH2 0x20 PUSH1 0x0 CODECOPY PUSH1 0x0 RETURN INVALID PUSH1 0x80 PUSH1 0x40 MSTORE CALLVALUE DUP1 ISZERO PUSH2 0x10 JUMPI PUSH1 0x0 DUP1 REVERT JUMPDEST POP PUSH1 0x4 CALLDATASIZE LT PUSH2 0x88 JUMPI PUSH1 0x0 CALLDATALOAD PUSH1 0xE0 SHR DUP1 PUSH4 0x80C9419E GT PUSH2 0x5B JUMPI DUP1 PUSH4 0x80C9419E EQ PUSH2 0x111 JUMPI DUP1 PUSH4 0x904CC175 EQ PUSH2 0x148 JUMPI DUP1 PUSH4 0xAC8B1300 EQ PUSH2 0x178 JUMPI DUP1 PUSH4 0xF8A02D84 EQ PUSH2 0x194 JUMPI PUSH2 0x88 JUMP JUMPDEST DUP1 PUSH4 0x377E6FF7 EQ PUSH2 0x8D JUMPI DUP1 PUSH4 0x5102BC9D EQ PUSH2 0xBD JUMPI DUP1 PUSH4 0x575B70D0 EQ PUSH2 0xD9 JUMPI DUP1 PUSH4 0x69BA1A75 EQ PUSH2 0xF5 JUMPI JUMPDEST PUSH1 0x0 DUP1 REVERT JUMPDEST PUSH2 0xA7 PUSH1 0x4 DUP1 CALLDATASIZE SUB DUP2 ADD SWAP1 PUSH2 0xA2 SWAP2 SWAP1 PUSH2 0x189E JUMP JUMPDEST PUSH2 0x1C4 JUMP JUMPDEST PUSH1 0x40 MLOAD PUSH2 0xB4 SWAP2 SWAP1 PUSH2 0x1AF5 JUMP JUMPDEST PUSH1 0x40 MLOAD DUP1 SWAP2 SUB SWAP1 RETURN JUMPDEST PUSH2 0xD7 PUSH1 0x4 DUP1 CALLDATASIZE SUB DUP2 ADD SWAP1 PUSH2 0xD2 SWAP2 SWAP1 PUSH2 0x1C78 JUMP JUMPDEST PUSH2 0x3D3 JUMP JUMPDEST STOP JUMPDEST PUSH2 0xF3 PUSH1 0x4 DUP1 CALLDATASIZE SUB DUP2 ADD SWAP1 PUSH2 0xEE SWAP2 SWAP1 PUSH2 0x1CD4 JUMP JUMPDEST PUSH2 0x415 JUMP JUMPDEST STOP JUMPDEST PUSH2 0x10F PUSH1 0x4 DUP1 CALLDATASIZE SUB DUP2 ADD SWAP1 PUSH2 0x10A SWAP2 SWAP1 PUSH2 0x1D27 JUMP JUMPDEST PUSH2 0x902 JUMP JUMPDEST STOP JUMPDEST PUSH2 0x12B PUSH1 0x4 DUP1 CALLDATASIZE SUB DUP2 ADD SWAP1 PUSH2 0x126 SWAP2 SWAP1 PUSH2 0x1D27 JUMP JUMPDEST PUSH2 0xE74 JUMP JUMPDEST PUSH1 0x40 MLOAD PUSH2 0x13F SWAP9 SWAP8 SWAP7 SWAP6 SWAP5 SWAP4 SWAP3 SWAP2 SWAP1 PUSH2 0x1DBC JUMP JUMPDEST PUSH1 0x40 MLOAD DUP1 SWAP2 SUB SWAP1 RETURN JUMPDEST PUSH2 0x162 PUSH1 0x4 DUP1 CALLDATASIZE SUB DUP2 ADD SWAP1 PUSH2 0x15D SWAP2 SWAP1 PUSH2 0x1D27 JUMP JUMPDEST PUSH2 0xF94 JUMP JUMPDEST PUSH1 0x40 MLOAD PUSH2 0x16F SWAP2 SWAP1 PUSH2 0x1AF5 JUMP JUMPDEST PUSH1 0x40 MLOAD DUP1 SWAP2 SUB SWAP1 RETURN JUMPDEST PUSH2 0x192 PUSH1 0x4 DUP1 CALLDATASIZE SUB DUP2 ADD SWAP1 PUSH2 0x18D SWAP2 SWAP1 PUSH2 0x1E41 JUMP JUMPDEST PUSH2 0x1350 JUMP JUMPDEST STOP JUMPDEST PUSH2 0x1AE PUSH1 0x4 DUP1 CALLDATASIZE SUB DUP2 ADD SWAP1 PUSH2 0x1A9 SWAP2 SWAP1 PUSH2 0x1EB0 JUMP JUMPDEST PUSH2 0x1737 JUMP JUMPDEST PUSH1 0x40 MLOAD PUSH2 0x1BB SWAP2 SWAP1 PUSH2 0x1EF9 JUMP JUMPDEST PUSH1 0x40 MLOAD DUP1 SWAP2 SUB SWAP1 RETURN JUMPDEST PUSH1 0x60 PUSH1 0x3 PUSH1 0x0 DUP4 PUSH20 0xFFFFFFFFFFFFFFFFFFFFFFFFFFFFFFFFFFFFFFFF AND PUSH20 0xFFFFFFFFFFFFFFFFFFFFFFFFFFFFFFFFFFFFFFFF AND DUP2 MSTORE PUSH1 0x20 ADD SWAP1 DUP2 MSTORE PUSH1 0x20 ADD PUSH1 0x0 KECCAK256 DUP1 SLOAD DUP1 PUSH1 0x20 MUL PUSH1 0x20 ADD PUSH1 0x40 MLOAD SWAP1 DUP2 ADD PUSH1 0x40 MSTORE DUP1 SWAP3 SWAP2 SWAP1 DUP2 DUP2 MSTORE PUSH1 0x20 ADD PUSH1 0x0 SWAP1 JUMPDEST DUP3 DUP3 LT ISZERO PUSH2 0x3C8 JUMPI DUP4 DUP3 SWAP1 PUSH1 0x0 MSTORE PUSH1 0x20 PUSH1 0x0 KECCAK256 SWAP1 PUSH1 0x8 MUL ADD PUSH1 0x40 MLOAD DUP1 PUSH2 0x100 ADD PUSH1 0x40 MSTORE SWAP1 DUP2 PUSH1 0x0 DUP3 ADD SLOAD DUP2 MSTORE PUSH1 0x20 ADD PUSH1 0x1 DUP3 ADD DUP1 SLOAD PUSH2 0x263 SWAP1 PUSH2 0x1F43 JUMP JUMPDEST DUP1 PUSH1 0x1F ADD PUSH1 0x20 DUP1 SWAP2 DIV MUL PUSH1 0x20 ADD PUSH1 0x40 MLOAD SWAP1 DUP2 ADD PUSH1 0x40 MSTORE DUP1 SWAP3 SWAP2 SWAP1 DUP2 DUP2 MSTORE PUSH1 0x20 ADD DUP3 DUP1 SLOAD PUSH2 0x28F SWAP1 PUSH2 0x1F43 JUMP JUMPDEST DUP1 ISZERO PUSH2 0x2DC JUMPI DUP1 PUSH1 0x1F LT PUSH2 0x2B1 JUMPI PUSH2 0x100 DUP1 DUP4 SLOAD DIV MUL DUP4 MSTORE SWAP2 PUSH1 0x20 ADD SWAP2 PUSH2 0x2DC JUMP JUMPDEST DUP3 ADD SWAP2 SWAP1 PUSH1 0x0 MSTORE PUSH1 0x20 PUSH1 0x0 KECCAK256 SWAP1 JUMPDEST DUP2 SLOAD DUP2 MSTORE SWAP1 PUSH1 0x1 ADD SWAP1 PUSH1 0x20 ADD DUP1 DUP4 GT PUSH2 0x2BF JUMPI DUP3 SWAP1 SUB PUSH1 0x1F AND DUP3 ADD SWAP2 JUMPDEST POP POP POP POP POP DUP2 MSTORE PUSH1 0x20 ADD PUSH1 0x2 DUP3 ADD SLOAD DUP2 MSTORE PUSH1 0x20 ADD PUSH1 0x3 DUP3 ADD PUSH1 0x0 SWAP1 SLOAD SWAP1 PUSH2 0x100 EXP SWAP1 DIV PUSH20 0xFFFFFFFFFFFFFFFFFFFFFFFFFFFFFFFFFFFFFFFF AND PUSH20 0xFFFFFFFFFFFFFFFFFFFFFFFFFFFFFFFFFFFFFFFF AND PUSH20 0xFFFFFFFFFFFFFFFFFFFFFFFFFFFFFFFFFFFFFFFF AND DUP2 MSTORE PUSH1 0x20 ADD PUSH1 0x4 DUP3 ADD PUSH1 0x0 SWAP1 SLOAD SWAP1 PUSH2 0x100 EXP SWAP1 DIV PUSH20 0xFFFFFFFFFFFFFFFFFFFFFFFFFFFFFFFFFFFFFFFF AND PUSH20 0xFFFFFFFFFFFFFFFFFFFFFFFFFFFFFFFFFFFFFFFF AND PUSH20 0xFFFFFFFFFFFFFFFFFFFFFFFFFFFFFFFFFFFFFFFF AND DUP2 MSTORE PUSH1 0x20 ADD PUSH1 0x5 DUP3 ADD SLOAD DUP2 MSTORE PUSH1 0x20 ADD PUSH1 0x6 DUP3 ADD SLOAD DUP2 MSTORE PUSH1 0x20 ADD PUSH1 0x7 DUP3 ADD SLOAD DUP2 MSTORE POP POP DUP2 MSTORE PUSH1 0x20 ADD SWAP1 PUSH1 0x1 ADD SWAP1 PUSH2 0x225 JUMP JUMPDEST POP POP POP POP SWAP1 POP SWAP2 SWAP1 POP JUMP JUMPDEST DUP1 PUSH1 0x1 DUP1 DUP5 PUSH2 0x3E2 SWAP2 SWAP1 PUSH2 0x1FA3 JUMP JUMPDEST DUP2 SLOAD DUP2 LT PUSH2 0x3F3 JUMPI PUSH2 0x3F2 PUSH2 0x1FD7 JUMP JUMPDEST JUMPDEST SWAP1 PUSH1 0x0 MSTORE PUSH1 0x20 PUSH1 0x0 KECCAK256 SWAP1 PUSH1 0x8 MUL ADD PUSH1 0x1 ADD SWAP1 DUP2 PUSH2 0x410 SWAP2 SWAP1 PUSH2 0x21B2 JUMP JUMPDEST POP POP POP JUMP JUMPDEST DUP1 PUSH20 0xFFFFFFFFFFFFFFFFFFFFFFFFFFFFFFFFFFFFFFFF AND PUSH1 0x1 DUP1 DUP6 PUSH2 0x43A SWAP2 SWAP1 PUSH2 0x1FA3 JUMP JUMPDEST DUP2 SLOAD DUP2 LT PUSH2 0x44B JUMPI PUSH2 0x44A PUSH2 0x1FD7 JUMP JUMPDEST JUMPDEST SWAP1 PUSH1 0x0 MSTORE PUSH1 0x20 PUSH1 0x0 KECCAK256 SWAP1 PUSH1 0x8 MUL ADD PUSH1 0x4 ADD PUSH1 0x0 SWAP1 SLOAD SWAP1 PUSH2 0x100 EXP SWAP1 DIV PUSH20 0xFFFFFFFFFFFFFFFFFFFFFFFFFFFFFFFFFFFFFFFF AND PUSH20 0xFFFFFFFFFFFFFFFFFFFFFFFFFFFFFFFFFFFFFFFF AND SUB PUSH2 0x4D3 JUMPI PUSH1 0x40 MLOAD PUSH32 0x8C379A000000000000000000000000000000000000000000000000000000000 DUP2 MSTORE PUSH1 0x4 ADD PUSH2 0x4CA SWAP1 PUSH2 0x22D0 JUMP JUMPDEST PUSH1 0x40 MLOAD DUP1 SWAP2 SUB SWAP1 REVERT JUMPDEST PUSH1 0x0 PUSH1 0x1 SWAP1 POP PUSH1 0x0 PUSH1 0x4 PUSH1 0x0 PUSH1 0x1 DUP8 PUSH2 0x4EC SWAP2 SWAP1 PUSH2 0x1FA3 JUMP JUMPDEST DUP2 MSTORE PUSH1 0x20 ADD SWAP1 DUP2 MSTORE PUSH1 0x20 ADD PUSH1 0x0 KECCAK256 DUP1 SLOAD SWAP1 POP SWAP1 POP PUSH1 0x0 DUP2 SUB PUSH2 0x5D5 JUMPI PUSH1 0x1 DUP1 PUSH1 0x1 DUP8 PUSH2 0x518 SWAP2 SWAP1 PUSH2 0x1FA3 JUMP JUMPDEST DUP2 SLOAD DUP2 LT PUSH2 0x529 JUMPI PUSH2 0x528 PUSH2 0x1FD7 JUMP JUMPDEST JUMPDEST SWAP1 PUSH1 0x0 MSTORE PUSH1 0x20 PUSH1 0x0 KECCAK256 SWAP1 PUSH1 0x8 MUL ADD PUSH1 0x5 ADD PUSH1 0x0 DUP3 DUP3 SLOAD PUSH2 0x549 SWAP2 SWAP1 PUSH2 0x22F0 JUMP JUMPDEST SWAP3 POP POP DUP2 SWAP1 SSTORE POP PUSH1 0x4 PUSH1 0x0 PUSH1 0x1 DUP8 PUSH2 0x561 SWAP2 SWAP1 PUSH2 0x1FA3 JUMP JUMPDEST DUP2 MSTORE PUSH1 0x20 ADD SWAP1 DUP2 MSTORE PUSH1 0x20 ADD PUSH1 0x0 KECCAK256 DUP4 SWAP1 DUP1 PUSH1 0x1 DUP2 SLOAD ADD DUP1 DUP3 SSTORE DUP1 SWAP2 POP POP PUSH1 0x1 SWAP1 SUB SWAP1 PUSH1 0x0 MSTORE PUSH1 0x20 PUSH1 0x0 KECCAK256 ADD PUSH1 0x0 SWAP1 SWAP2 SWAP1 SWAP2 SWAP1 SWAP2 PUSH2 0x100 EXP DUP2 SLOAD DUP2 PUSH20 0xFFFFFFFFFFFFFFFFFFFFFFFFFFFFFFFFFFFFFFFF MUL NOT AND SWAP1 DUP4 PUSH20 0xFFFFFFFFFFFFFFFFFFFFFFFFFFFFFFFFFFFFFFFF AND MUL OR SWAP1 SSTORE POP PUSH2 0x7ED JUMP JUMPDEST PUSH1 0x0 JUMPDEST DUP2 DUP2 LT ISZERO PUSH2 0x71C JUMPI PUSH32 0x1DFFFA052D4A63BD70F14B863E128979D1C59E3589A0A3BEB2633A120047042D PUSH1 0x4 PUSH1 0x0 PUSH1 0x1 DUP10 PUSH2 0x612 SWAP2 SWAP1 PUSH2 0x1FA3 JUMP JUMPDEST DUP2 MSTORE PUSH1 0x20 ADD SWAP1 DUP2 MSTORE PUSH1 0x20 ADD PUSH1 0x0 KECCAK256 DUP3 DUP2 SLOAD DUP2 LT PUSH2 0x632 JUMPI PUSH2 0x631 PUSH2 0x1FD7 JUMP JUMPDEST JUMPDEST SWAP1 PUSH1 0x0 MSTORE PUSH1 0x20 PUSH1 0x0 KECCAK256 ADD PUSH1 0x0 SWAP1 SLOAD SWAP1 PUSH2 0x100 EXP SWAP1 DIV PUSH20 0xFFFFFFFFFFFFFFFFFFFFFFFFFFFFFFFFFFFFFFFF AND PUSH1 0x40 MLOAD PUSH2 0x66A SWAP2 SWAP1 PUSH2 0x2370 JUMP JUMPDEST PUSH1 0x40 MLOAD DUP1 SWAP2 SUB SWAP1 LOG1 DUP4 PUSH20 0xFFFFFFFFFFFFFFFFFFFFFFFFFFFFFFFFFFFFFFFF AND PUSH1 0x4 PUSH1 0x0 PUSH1 0x1 DUP10 PUSH2 0x69A SWAP2 SWAP1 PUSH2 0x1FA3 JUMP JUMPDEST DUP2 MSTORE PUSH1 0x20 ADD SWAP1 DUP2 MSTORE PUSH1 0x20 ADD PUSH1 0x0 KECCAK256 DUP3 DUP2 SLOAD DUP2 LT PUSH2 0x6BA JUMPI PUSH2 0x6B9 PUSH2 0x1FD7 JUMP JUMPDEST JUMPDEST SWAP1 PUSH1 0x0 MSTORE PUSH1 0x20 PUSH1 0x0 KECCAK256 ADD PUSH1 0x0 SWAP1 SLOAD SWAP1 PUSH2 0x100 EXP SWAP1 DIV PUSH20 0xFFFFFFFFFFFFFFFFFFFFFFFFFFFFFFFFFFFFFFFF AND PUSH20 0xFFFFFFFFFFFFFFFFFFFFFFFFFFFFFFFFFFFFFFFF AND SUB PUSH2 0x709 JUMPI PUSH1 0x0 SWAP3 POP PUSH2 0x71C JUMP JUMPDEST DUP1 DUP1 PUSH2 0x714 SWAP1 PUSH2 0x239E JUMP JUMPDEST SWAP2 POP POP PUSH2 0x5D8 JUMP JUMPDEST POP DUP2 ISZERO PUSH2 0x7EC JUMPI PUSH1 0x1 DUP1 PUSH1 0x1 DUP8 PUSH2 0x733 SWAP2 SWAP1 PUSH2 0x1FA3 JUMP JUMPDEST DUP2 SLOAD DUP2 LT PUSH2 0x744 JUMPI PUSH2 0x743 PUSH2 0x1FD7 JUMP JUMPDEST JUMPDEST SWAP1 PUSH1 0x0 MSTORE PUSH1 0x20 PUSH1 0x0 KECCAK256 SWAP1 PUSH1 0x8 MUL ADD PUSH1 0x5 ADD PUSH1 0x0 DUP3 DUP3 SLOAD PUSH2 0x764 SWAP2 SWAP1 PUSH2 0x22F0 JUMP JUMPDEST SWAP3 POP POP DUP2 SWAP1 SSTORE POP PUSH1 0x4 PUSH1 0x0 PUSH1 0x1 DUP8 PUSH2 0x77C SWAP2 SWAP1 PUSH2 0x1FA3 JUMP JUMPDEST DUP2 MSTORE PUSH1 0x20 ADD SWAP1 DUP2 MSTORE PUSH1 0x20 ADD PUSH1 0x0 KECCAK256 DUP4 SWAP1 DUP1 PUSH1 0x1 DUP2 SLOAD ADD DUP1 DUP3 SSTORE DUP1 SWAP2 POP POP PUSH1 0x1 SWAP1 SUB SWAP1 PUSH1 0x0 MSTORE PUSH1 0x20 PUSH1 0x0 KECCAK256 ADD PUSH1 0x0 SWAP1 SWAP2 SWAP1 SWAP2 SWAP1 SWAP2 PUSH2 0x100 EXP DUP2 SLOAD DUP2 PUSH20 0xFFFFFFFFFFFFFFFFFFFFFFFFFFFFFFFFFFFFFFFF MUL NOT AND SWAP1 DUP4 PUSH20 0xFFFFFFFFFFFFFFFFFFFFFFFFFFFFFFFFFFFFFFFF AND MUL OR SWAP1 SSTORE POP JUMPDEST JUMPDEST DUP4 PUSH1 0x1 DUP1 DUP8 PUSH2 0x7FC SWAP2 SWAP1 PUSH2 0x1FA3 JUMP JUMPDEST DUP2 SLOAD DUP2 LT PUSH2 0x80D JUMPI PUSH2 0x80C PUSH2 0x1FD7 JUMP JUMPDEST JUMPDEST SWAP1 PUSH1 0x0 MSTORE PUSH1 0x20 PUSH1 0x0 KECCAK256 SWAP1 PUSH1 0x8 MUL ADD PUSH1 0x7 ADD SLOAD PUSH2 0x829 SWAP2 SWAP1 PUSH2 0x22F0 JUMP JUMPDEST PUSH1 0x1 DUP1 DUP8 PUSH2 0x837 SWAP2 SWAP1 PUSH2 0x1FA3 JUMP JUMPDEST DUP2 SLOAD DUP2 LT PUSH2 0x848 JUMPI PUSH2 0x847 PUSH2 0x1FD7 JUMP JUMPDEST JUMPDEST SWAP1 PUSH1 0x0 MSTORE PUSH1 0x20 PUSH1 0x0 KECCAK256 SWAP1 PUSH1 0x8 MUL ADD PUSH1 0x7 ADD DUP2 SWAP1 SSTORE POP PUSH1 0x1 DUP1 DUP7 PUSH2 0x86B SWAP2 SWAP1 PUSH2 0x1FA3 JUMP JUMPDEST DUP2 SLOAD DUP2 LT PUSH2 0x87C JUMPI PUSH2 0x87B PUSH2 0x1FD7 JUMP JUMPDEST JUMPDEST SWAP1 PUSH1 0x0 MSTORE PUSH1 0x20 PUSH1 0x0 KECCAK256 SWAP1 PUSH1 0x8 MUL ADD PUSH1 0x6 ADD SLOAD PUSH1 0x1 DUP1 DUP8 PUSH2 0x89C SWAP2 SWAP1 PUSH2 0x1FA3 JUMP JUMPDEST DUP2 SLOAD DUP2 LT PUSH2 0x8AD JUMPI PUSH2 0x8AC PUSH2 0x1FD7 JUMP JUMPDEST JUMPDEST SWAP1 PUSH1 0x0 MSTORE PUSH1 0x20 PUSH1 0x0 KECCAK256 SWAP1 PUSH1 0x8 MUL ADD PUSH1 0x7 ADD SLOAD LT PUSH2 0x8FB JUMPI PUSH1 0x2 PUSH1 0x1 DUP1 DUP8 PUSH2 0x8D4 SWAP2 SWAP1 PUSH2 0x1FA3 JUMP JUMPDEST DUP2 SLOAD DUP2 LT PUSH2 0x8E5 JUMPI PUSH2 0x8E4 PUSH2 0x1FD7 JUMP JUMPDEST JUMPDEST SWAP1 PUSH1 0x0 MSTORE PUSH1 0x20 PUSH1 0x0 KECCAK256 SWAP1 PUSH1 0x8 MUL ADD PUSH1 0x2 ADD DUP2 SWAP1 SSTORE POP JUMPDEST POP POP POP POP POP JUMP JUMPDEST PUSH1 0x3 PUSH1 0x1 DUP1 DUP4 PUSH2 0x912 SWAP2 SWAP1 PUSH2 0x1FA3 JUMP JUMPDEST DUP2 SLOAD DUP2 LT PUSH2 0x923 JUMPI PUSH2 0x922 PUSH2 0x1FD7 JUMP JUMPDEST JUMPDEST SWAP1 PUSH1 0x0 MSTORE PUSH1 0x20 PUSH1 0x0 KECCAK256 SWAP1 PUSH1 0x8 MUL ADD PUSH1 0x2 ADD DUP2 SWAP1 SSTORE POP PUSH1 0x1 PUSH1 0x2 PUSH1 0x0 PUSH1 0x1 DUP2 MSTORE PUSH1 0x20 ADD SWAP1 DUP2 MSTORE PUSH1 0x20 ADD PUSH1 0x0 KECCAK256 DUP1 SLOAD SWAP1 POP SUB PUSH2 0xA1F JUMPI PUSH1 0x2 PUSH1 0x0 PUSH1 0x1 DUP2 MSTORE PUSH1 0x20 ADD SWAP1 DUP2 MSTORE PUSH1 0x20 ADD PUSH1 0x0 KECCAK256 DUP1 SLOAD DUP1 PUSH2 0x97B JUMPI PUSH2 0x97A PUSH2 0x23E6 JUMP JUMPDEST JUMPDEST PUSH1 0x1 SWAP1 SUB DUP2 DUP2 SWAP1 PUSH1 0x0 MSTORE PUSH1 0x20 PUSH1 0x0 KECCAK256 SWAP1 PUSH1 0x8 MUL ADD PUSH1 0x0 DUP1 DUP3 ADD PUSH1 0x0 SWAP1 SSTORE PUSH1 0x1 DUP3 ADD PUSH1 0x0 PUSH2 0x9A8 SWAP2 SWAP1 PUSH2 0x17CF JUMP JUMPDEST PUSH1 0x2 DUP3 ADD PUSH1 0x0 SWAP1 SSTORE PUSH1 0x3 DUP3 ADD PUSH1 0x0 PUSH2 0x100 EXP DUP2 SLOAD SWAP1 PUSH20 0xFFFFFFFFFFFFFFFFFFFFFFFFFFFFFFFFFFFFFFFF MUL NOT AND SWAP1 SSTORE PUSH1 0x4 DUP3 ADD PUSH1 0x0 PUSH2 0x100 EXP DUP2 SLOAD SWAP1 PUSH20 0xFFFFFFFFFFFFFFFFFFFFFFFFFFFFFFFFFFFFFFFF MUL NOT AND SWAP1 SSTORE PUSH1 0x5 DUP3 ADD PUSH1 0x0 SWAP1 SSTORE PUSH1 0x6 DUP3 ADD PUSH1 0x0 SWAP1 SSTORE PUSH1 0x7 DUP3 ADD PUSH1 0x0 SWAP1 SSTORE POP POP SWAP1 SSTORE PUSH2 0xCF0 JUMP JUMPDEST PUSH1 0x0 JUMPDEST PUSH1 0x1 PUSH1 0x2 PUSH1 0x0 PUSH1 0x1 DUP2 MSTORE PUSH1 0x20 ADD SWAP1 DUP2 MSTORE PUSH1 0x20 ADD PUSH1 0x0 KECCAK256 DUP1 SLOAD SWAP1 POP PUSH2 0xA46 SWAP2 SWAP1 PUSH2 0x1FA3 JUMP JUMPDEST DUP2 LT ISZERO PUSH2 0xC2B JUMPI DUP2 PUSH1 0x2 PUSH1 0x0 PUSH1 0x1 DUP2 MSTORE PUSH1 0x20 ADD SWAP1 DUP2 MSTORE PUSH1 0x20 ADD PUSH1 0x0 KECCAK256 DUP3 DUP2 SLOAD DUP2 LT PUSH2 0xA74 JUMPI PUSH2 0xA73 PUSH2 0x1FD7 JUMP JUMPDEST JUMPDEST SWAP1 PUSH1 0x0 MSTORE PUSH1 0x20 PUSH1 0x0 KECCAK256 SWAP1 PUSH1 0x8 MUL ADD PUSH1 0x0 ADD SLOAD SUB PUSH2 0xC18 JUMPI PUSH1 0x2 PUSH1 0x0 PUSH1 0x1 DUP2 MSTORE PUSH1 0x20 ADD SWAP1 DUP2 MSTORE PUSH1 0x20 ADD PUSH1 0x0 KECCAK256 PUSH1 0x1 DUP3 PUSH2 0xAAC SWAP2 SWAP1 PUSH2 0x22F0 JUMP JUMPDEST DUP2 SLOAD DUP2 LT PUSH2 0xABD JUMPI PUSH2 0xABC PUSH2 0x1FD7 JUMP JUMPDEST JUMPDEST SWAP1 PUSH1 0x0 MSTORE PUSH1 0x20 PUSH1 0x0 KECCAK256 SWAP1 PUSH1 0x8 MUL ADD PUSH1 0x2 PUSH1 0x0 PUSH1 0x1 DUP2 MSTORE PUSH1 0x20 ADD SWAP1 DUP2 MSTORE PUSH1 0x20 ADD PUSH1 0x0 KECCAK256 DUP3 DUP2 SLOAD DUP2 LT PUSH2 0xAF1 JUMPI PUSH2 0xAF0 PUSH2 0x1FD7 JUMP JUMPDEST JUMPDEST SWAP1 PUSH1 0x0 MSTORE PUSH1 0x20 PUSH1 0x0 KECCAK256 SWAP1 PUSH1 0x8 MUL ADD PUSH1 0x0 DUP3 ADD SLOAD DUP2 PUSH1 0x0 ADD SSTORE PUSH1 0x1 DUP3 ADD DUP2 PUSH1 0x1 ADD SWAP1 DUP2 PUSH2 0xB1D SWAP2 SWAP1 PUSH2 0x242B JUMP JUMPDEST POP PUSH1 0x2 DUP3 ADD SLOAD DUP2 PUSH1 0x2 ADD SSTORE PUSH1 0x3 DUP3 ADD PUSH1 0x0 SWAP1 SLOAD SWAP1 PUSH2 0x100 EXP SWAP1 DIV PUSH20 0xFFFFFFFFFFFFFFFFFFFFFFFFFFFFFFFFFFFFFFFF AND DUP2 PUSH1 0x3 ADD PUSH1 0x0 PUSH2 0x100 EXP DUP2 SLOAD DUP2 PUSH20 0xFFFFFFFFFFFFFFFFFFFFFFFFFFFFFFFFFFFFFFFF MUL NOT AND SWAP1 DUP4 PUSH20 0xFFFFFFFFFFFFFFFFFFFFFFFFFFFFFFFFFFFFFFFF AND MUL OR SWAP1 SSTORE POP PUSH1 0x4 DUP3 ADD PUSH1 0x0 SWAP1 SLOAD SWAP1 PUSH2 0x100 EXP SWAP1 DIV PUSH20 0xFFFFFFFFFFFFFFFFFFFFFFFFFFFFFFFFFFFFFFFF AND DUP2 PUSH1 0x4 ADD PUSH1 0x0 PUSH2 0x100 EXP DUP2 SLOAD DUP2 PUSH20 0xFFFFFFFFFFFFFFFFFFFFFFFFFFFFFFFFFFFFFFFF MUL NOT AND SWAP1 DUP4 PUSH20 0xFFFFFFFFFFFFFFFFFFFFFFFFFFFFFFFFFFFFFFFF AND MUL OR SWAP1 SSTORE POP PUSH1 0x5 DUP3 ADD SLOAD DUP2 PUSH1 0x5 ADD SSTORE PUSH1 0x6 DUP3 ADD SLOAD DUP2 PUSH1 0x6 ADD SSTORE PUSH1 0x7 DUP3 ADD SLOAD DUP2 PUSH1 0x7 ADD SSTORE SWAP1 POP POP JUMPDEST DUP1 DUP1 PUSH2 0xC23 SWAP1 PUSH2 0x239E JUMP JUMPDEST SWAP2 POP POP PUSH2 0xA22 JUMP JUMPDEST POP PUSH1 0x2 PUSH1 0x0 PUSH1 0x1 DUP2 MSTORE PUSH1 0x20 ADD SWAP1 DUP2 MSTORE PUSH1 0x20 ADD PUSH1 0x0 KECCAK256 DUP1 SLOAD DUP1 PUSH2 0xC50 JUMPI PUSH2 0xC4F PUSH2 0x23E6 JUMP JUMPDEST JUMPDEST PUSH1 0x1 SWAP1 SUB DUP2 DUP2 SWAP1 PUSH1 0x0 MSTORE PUSH1 0x20 PUSH1 0x0 KECCAK256 SWAP1 PUSH1 0x8 MUL ADD PUSH1 0x0 DUP1 DUP3 ADD PUSH1 0x0 SWAP1 SSTORE PUSH1 0x1 DUP3 ADD PUSH1 0x0 PUSH2 0xC7D SWAP2 SWAP1 PUSH2 0x17CF JUMP JUMPDEST PUSH1 0x2 DUP3 ADD PUSH1 0x0 SWAP1 SSTORE PUSH1 0x3 DUP3 ADD PUSH1 0x0 PUSH2 0x100 EXP DUP2 SLOAD SWAP1 PUSH20 0xFFFFFFFFFFFFFFFFFFFFFFFFFFFFFFFFFFFFFFFF MUL NOT AND SWAP1 SSTORE PUSH1 0x4 DUP3 ADD PUSH1 0x0 PUSH2 0x100 EXP DUP2 SLOAD SWAP1 PUSH20 0xFFFFFFFFFFFFFFFFFFFFFFFFFFFFFFFFFFFFFFFF MUL NOT AND SWAP1 SSTORE PUSH1 0x5 DUP3 ADD PUSH1 0x0 SWAP1 SSTORE PUSH1 0x6 DUP3 ADD PUSH1 0x0 SWAP1 SSTORE PUSH1 0x7 DUP3 ADD PUSH1 0x0 SWAP1 SSTORE POP POP SWAP1 SSTORE JUMPDEST PUSH1 0x2 PUSH1 0x0 PUSH1 0x3 DUP2 MSTORE PUSH1 0x20 ADD SWAP1 DUP2 MSTORE PUSH1 0x20 ADD PUSH1 0x0 KECCAK256 PUSH1 0x1 DUP1 DUP4 PUSH2 0xD12 SWAP2 SWAP1 PUSH2 0x1FA3 JUMP JUMPDEST DUP2 SLOAD DUP2 LT PUSH2 0xD23 JUMPI PUSH2 0xD22 PUSH2 0x1FD7 JUMP JUMPDEST JUMPDEST SWAP1 PUSH1 0x0 MSTORE PUSH1 0x20 PUSH1 0x0 KECCAK256 SWAP1 PUSH1 0x8 MUL ADD SWAP1 DUP1 PUSH1 0x1 DUP2 SLOAD ADD DUP1 DUP3 SSTORE DUP1 SWAP2 POP POP PUSH1 0x1 SWAP1 SUB SWAP1 PUSH1 0x0 MSTORE PUSH1 0x20 PUSH1 0x0 KECCAK256 SWAP1 PUSH1 0x8 MUL ADD PUSH1 0x0 SWAP1 SWAP2 SWAP1 SWAP2 SWAP1 SWAP2 POP PUSH1 0x0 DUP3 ADD SLOAD DUP2 PUSH1 0x0 ADD SSTORE PUSH1 0x1 DUP3 ADD DUP2 PUSH1 0x1 ADD SWAP1 DUP2 PUSH2 0xD78 SWAP2 SWAP1 PUSH2 0x242B JUMP JUMPDEST POP PUSH1 0x2 DUP3 ADD SLOAD DUP2 PUSH1 0x2 ADD SSTORE PUSH1 0x3 DUP3 ADD PUSH1 0x0 SWAP1 SLOAD SWAP1 PUSH2 0x100 EXP SWAP1 DIV PUSH20 0xFFFFFFFFFFFFFFFFFFFFFFFFFFFFFFFFFFFFFFFF AND DUP2 PUSH1 0x3 ADD PUSH1 0x0 PUSH2 0x100 EXP DUP2 SLOAD DUP2 PUSH20 0xFFFFFFFFFFFFFFFFFFFFFFFFFFFFFFFFFFFFFFFF MUL NOT AND SWAP1 DUP4 PUSH20 0xFFFFFFFFFFFFFFFFFFFFFFFFFFFFFFFFFFFFFFFF AND MUL OR SWAP1 SSTORE POP PUSH1 0x4 DUP3 ADD PUSH1 0x0 SWAP1 SLOAD SWAP1 PUSH2 0x100 EXP SWAP1 DIV PUSH20 0xFFFFFFFFFFFFFFFFFFFFFFFFFFFFFFFFFFFFFFFF AND DUP2 PUSH1 0x4 ADD PUSH1 0x0 PUSH2 0x100 EXP DUP2 SLOAD DUP2 PUSH20 0xFFFFFFFFFFFFFFFFFFFFFFFFFFFFFFFFFFFFFFFF MUL NOT AND SWAP1 DUP4 PUSH20 0xFFFFFFFFFFFFFFFFFFFFFFFFFFFFFFFFFFFFFFFF AND MUL OR SWAP1 SSTORE POP PUSH1 0x5 DUP3 ADD SLOAD DUP2 PUSH1 0x5 ADD SSTORE PUSH1 0x6 DUP3 ADD SLOAD DUP2 PUSH1 0x6 ADD SSTORE PUSH1 0x7 DUP3 ADD SLOAD DUP2 PUSH1 0x7 ADD SSTORE POP POP POP JUMP JUMPDEST PUSH1 0x1 DUP2 DUP2 SLOAD DUP2 LT PUSH2 0xE84 JUMPI PUSH1 0x0 DUP1 REVERT JUMPDEST SWAP1 PUSH1 0x0 MSTORE PUSH1 0x20 PUSH1 0x0 KECCAK256 SWAP1 PUSH1 0x8 MUL ADD PUSH1 0x0 SWAP2 POP SWAP1 POP DUP1 PUSH1 0x0 ADD SLOAD SWAP1 DUP1 PUSH1 0x1 ADD DUP1 SLOAD PUSH2 0xEAD SWAP1 PUSH2 0x1F43 JUMP JUMPDEST DUP1 PUSH1 0x1F ADD PUSH1 0x20 DUP1 SWAP2 DIV MUL PUSH1 0x20 ADD PUSH1 0x40 MLOAD SWAP1 DUP2 ADD PUSH1 0x40 MSTORE DUP1 SWAP3 SWAP2 SWAP1 DUP2 DUP2 MSTORE PUSH1 0x20 ADD DUP3 DUP1 SLOAD PUSH2 0xED9 SWAP1 PUSH2 0x1F43 JUMP JUMPDEST DUP1 ISZERO PUSH2 0xF26 JUMPI DUP1 PUSH1 0x1F LT PUSH2 0xEFB JUMPI PUSH2 0x100 DUP1 DUP4 SLOAD DIV MUL DUP4 MSTORE SWAP2 PUSH1 0x20 ADD SWAP2 PUSH2 0xF26 JUMP JUMPDEST DUP3 ADD SWAP2 SWAP1 PUSH1 0x0 MSTORE PUSH1 0x20 PUSH1 0x0 KECCAK256 SWAP1 JUMPDEST DUP2 SLOAD DUP2 MSTORE SWAP1 PUSH1 0x1 ADD SWAP1 PUSH1 0x20 ADD DUP1 DUP4 GT PUSH2 0xF09 JUMPI DUP3 SWAP1 SUB PUSH1 0x1F AND DUP3 ADD SWAP2 JUMPDEST POP POP POP POP POP SWAP1 DUP1 PUSH1 0x2 ADD SLOAD SWAP1 DUP1 PUSH1 0x3 ADD PUSH1 0x0 SWAP1 SLOAD SWAP1 PUSH2 0x100 EXP SWAP1 DIV PUSH20 0xFFFFFFFFFFFFFFFFFFFFFFFFFFFFFFFFFFFFFFFF AND SWAP1 DUP1 PUSH1 0x4 ADD PUSH1 0x0 SWAP1 SLOAD SWAP1 PUSH2 0x100 EXP SWAP1 DIV PUSH20 0xFFFFFFFFFFFFFFFFFFFFFFFFFFFFFFFFFFFFFFFF AND SWAP1 DUP1 PUSH1 0x5 ADD SLOAD SWAP1 DUP1 PUSH1 0x6 ADD SLOAD SWAP1 DUP1 PUSH1 0x7 ADD SLOAD SWAP1 POP DUP9 JUMP JUMPDEST PUSH1 0x60 PUSH1 0x0 DUP3 SUB PUSH2 0x116E JUMPI PUSH1 0x1 DUP1 SLOAD DUP1 PUSH1 0x20 MUL PUSH1 0x20 ADD PUSH1 0x40 MLOAD SWAP1 DUP2 ADD PUSH1 0x40 MSTORE DUP1 SWAP3 SWAP2 SWAP1 DUP2 DUP2 MSTORE PUSH1 0x20 ADD PUSH1 0x0 SWAP1 JUMPDEST DUP3 DUP3 LT ISZERO PUSH2 0x1163 JUMPI DUP4 DUP3 SWAP1 PUSH1 0x0 MSTORE PUSH1 0x20 PUSH1 0x0 KECCAK256 SWAP1 PUSH1 0x8 MUL ADD PUSH1 0x40 MLOAD DUP1 PUSH2 0x100 ADD PUSH1 0x40 MSTORE SWAP1 DUP2 PUSH1 0x0 DUP3 ADD SLOAD DUP2 MSTORE PUSH1 0x20 ADD PUSH1 0x1 DUP3 ADD DUP1 SLOAD PUSH2 0xFFE SWAP1 PUSH2 0x1F43 JUMP JUMPDEST DUP1 PUSH1 0x1F ADD PUSH1 0x20 DUP1 SWAP2 DIV MUL PUSH1 0x20 ADD PUSH1 0x40 MLOAD SWAP1 DUP2 ADD PUSH1 0x40 MSTORE DUP1 SWAP3 SWAP2 SWAP1 DUP2 DUP2 MSTORE PUSH1 0x20 ADD DUP3 DUP1 SLOAD PUSH2 0x102A SWAP1 PUSH2 0x1F43 JUMP JUMPDEST DUP1 ISZERO PUSH2 0x1077 JUMPI DUP1 PUSH1 0x1F LT PUSH2 0x104C JUMPI PUSH2 0x100 DUP1 DUP4 SLOAD DIV MUL DUP4 MSTORE SWAP2 PUSH1 0x20 ADD SWAP2 PUSH2 0x1077 JUMP JUMPDEST DUP3 ADD SWAP2 SWAP1 PUSH1 0x0 MSTORE PUSH1 0x20 PUSH1 0x0 KECCAK256 SWAP1 JUMPDEST DUP2 SLOAD DUP2 MSTORE SWAP1 PUSH1 0x1 ADD SWAP1 PUSH1 0x20 ADD DUP1 DUP4 GT PUSH2 0x105A JUMPI DUP3 SWAP1 SUB PUSH1 0x1F AND DUP3 ADD SWAP2 JUMPDEST POP POP POP POP POP DUP2 MSTORE PUSH1 0x20 ADD PUSH1 0x2 DUP3 ADD SLOAD DUP2 MSTORE PUSH1 0x20 ADD PUSH1 0x3 DUP3 ADD PUSH1 0x0 SWAP1 SLOAD SWAP1 PUSH2 0x100 EXP SWAP1 DIV PUSH20 0xFFFFFFFFFFFFFFFFFFFFFFFFFFFFFFFFFFFFFFFF AND PUSH20 0xFFFFFFFFFFFFFFFFFFFFFFFFFFFFFFFFFFFFFFFF AND PUSH20 0xFFFFFFFFFFFFFFFFFFFFFFFFFFFFFFFFFFFFFFFF AND DUP2 MSTORE PUSH1 0x20 ADD PUSH1 0x4 DUP3 ADD PUSH1 0x0 SWAP1 SLOAD SWAP1 PUSH2 0x100 EXP SWAP1 DIV PUSH20 0xFFFFFFFFFFFFFFFFFFFFFFFFFFFFFFFFFFFFFFFF AND PUSH20 0xFFFFFFFFFFFFFFFFFFFFFFFFFFFFFFFFFFFFFFFF AND PUSH20 0xFFFFFFFFFFFFFFFFFFFFFFFFFFFFFFFFFFFFFFFF AND DUP2 MSTORE PUSH1 0x20 ADD PUSH1 0x5 DUP3 ADD SLOAD DUP2 MSTORE PUSH1 0x20 ADD PUSH1 0x6 DUP3 ADD SLOAD DUP2 MSTORE PUSH1 0x20 ADD PUSH1 0x7 DUP3 ADD SLOAD DUP2 MSTORE POP POP DUP2 MSTORE PUSH1 0x20 ADD SWAP1 PUSH1 0x1 ADD SWAP1 PUSH2 0xFC0 JUMP JUMPDEST POP POP POP POP SWAP1 POP PUSH2 0x134B JUMP JUMPDEST PUSH1 0x2 PUSH1 0x0 DUP4 DUP2 MSTORE PUSH1 0x20 ADD SWAP1 DUP2 MSTORE PUSH1 0x20 ADD PUSH1 0x0 KECCAK256 DUP1 SLOAD DUP1 PUSH1 0x20 MUL PUSH1 0x20 ADD PUSH1 0x40 MLOAD SWAP1 DUP2 ADD PUSH1 0x40 MSTORE DUP1 SWAP3 SWAP2 SWAP1 DUP2 DUP2 MSTORE PUSH1 0x20 ADD PUSH1 0x0 SWAP1 JUMPDEST DUP3 DUP3 LT ISZERO PUSH2 0x1344 JUMPI DUP4 DUP3 SWAP1 PUSH1 0x0 MSTORE PUSH1 0x20 PUSH1 0x0 KECCAK256 SWAP1 PUSH1 0x8 MUL ADD PUSH1 0x40 MLOAD DUP1 PUSH2 0x100 ADD PUSH1 0x40 MSTORE SWAP1 DUP2 PUSH1 0x0 DUP3 ADD SLOAD DUP2 MSTORE PUSH1 0x20 ADD PUSH1 0x1 DUP3 ADD DUP1 SLOAD PUSH2 0x11DF SWAP1 PUSH2 0x1F43 JUMP JUMPDEST DUP1 PUSH1 0x1F ADD PUSH1 0x20 DUP1 SWAP2 DIV MUL PUSH1 0x20 ADD PUSH1 0x40 MLOAD SWAP1 DUP2 ADD PUSH1 0x40 MSTORE DUP1 SWAP3 SWAP2 SWAP1 DUP2 DUP2 MSTORE PUSH1 0x20 ADD DUP3 DUP1 SLOAD PUSH2 0x120B SWAP1 PUSH2 0x1F43 JUMP JUMPDEST DUP1 ISZERO PUSH2 0x1258 JUMPI DUP1 PUSH1 0x1F LT PUSH2 0x122D JUMPI PUSH2 0x100 DUP1 DUP4 SLOAD DIV MUL DUP4 MSTORE SWAP2 PUSH1 0x20 ADD SWAP2 PUSH2 0x1258 JUMP JUMPDEST DUP3 ADD SWAP2 SWAP1 PUSH1 0x0 MSTORE PUSH1 0x20 PUSH1 0x0 KECCAK256 SWAP1 JUMPDEST DUP2 SLOAD DUP2 MSTORE SWAP1 PUSH1 0x1 ADD SWAP1 PUSH1 0x20 ADD DUP1 DUP4 GT PUSH2 0x123B JUMPI DUP3 SWAP1 SUB PUSH1 0x1F AND DUP3 ADD SWAP2 JUMPDEST POP POP POP POP POP DUP2 MSTORE PUSH1 0x20 ADD PUSH1 0x2 DUP3 ADD SLOAD DUP2 MSTORE PUSH1 0x20 ADD PUSH1 0x3 DUP3 ADD PUSH1 0x0 SWAP1 SLOAD SWAP1 PUSH2 0x100 EXP SWAP1 DIV PUSH20 0xFFFFFFFFFFFFFFFFFFFFFFFFFFFFFFFFFFFFFFFF AND PUSH20 0xFFFFFFFFFFFFFFFFFFFFFFFFFFFFFFFFFFFFFFFF AND PUSH20 0xFFFFFFFFFFFFFFFFFFFFFFFFFFFFFFFFFFFFFFFF AND DUP2 MSTORE PUSH1 0x20 ADD PUSH1 0x4 DUP3 ADD PUSH1 0x0 SWAP1 SLOAD SWAP1 PUSH2 0x100 EXP SWAP1 DIV PUSH20 0xFFFFFFFFFFFFFFFFFFFFFFFFFFFFFFFFFFFFFFFF AND PUSH20 0xFFFFFFFFFFFFFFFFFFFFFFFFFFFFFFFFFFFFFFFF AND PUSH20 0xFFFFFFFFFFFFFFFFFFFFFFFFFFFFFFFFFFFFFFFF AND DUP2 MSTORE PUSH1 0x20 ADD PUSH1 0x5 DUP3 ADD SLOAD DUP2 MSTORE PUSH1 0x20 ADD PUSH1 0x6 DUP3 ADD SLOAD DUP2 MSTORE PUSH1 0x20 ADD PUSH1 0x7 DUP3 ADD SLOAD DUP2 MSTORE POP POP DUP2 MSTORE PUSH1 0x20 ADD SWAP1 PUSH1 0x1 ADD SWAP1 PUSH2 0x11A1 JUMP JUMPDEST POP POP POP POP SWAP1 POP JUMPDEST SWAP2 SWAP1 POP JUMP JUMPDEST PUSH1 0x0 DUP1 DUP2 SLOAD DUP1 SWAP3 SWAP2 SWAP1 PUSH2 0x1362 SWAP1 PUSH2 0x239E JUMP JUMPDEST SWAP2 SWAP1 POP SSTORE POP PUSH1 0x0 PUSH1 0x40 MLOAD DUP1 PUSH2 0x100 ADD PUSH1 0x40 MSTORE DUP1 PUSH1 0x0 SLOAD DUP2 MSTORE PUSH1 0x20 ADD DUP6 DUP2 MSTORE PUSH1 0x20 ADD PUSH1 0x1 DUP2 MSTORE PUSH1 0x20 ADD CALLER PUSH20 0xFFFFFFFFFFFFFFFFFFFFFFFFFFFFFFFFFFFFFFFF AND DUP2 MSTORE PUSH1 0x20 ADD DUP5 PUSH20 0xFFFFFFFFFFFFFFFFFFFFFFFFFFFFFFFFFFFFFFFF AND DUP2 MSTORE PUSH1 0x20 ADD PUSH1 0x0 DUP2 MSTORE PUSH1 0x20 ADD DUP4 DUP2 MSTORE PUSH1 0x20 ADD PUSH1 0x0 DUP2 MSTORE POP SWAP1 POP PUSH1 0x1 DUP2 SWAP1 DUP1 PUSH1 0x1 DUP2 SLOAD ADD DUP1 DUP3 SSTORE DUP1 SWAP2 POP POP PUSH1 0x1 SWAP1 SUB SWAP1 PUSH1 0x0 MSTORE PUSH1 0x20 PUSH1 0x0 KECCAK256 SWAP1 PUSH1 0x8 MUL ADD PUSH1 0x0 SWAP1 SWAP2 SWAP1 SWAP2 SWAP1 SWAP2 POP PUSH1 0x0 DUP3 ADD MLOAD DUP2 PUSH1 0x0 ADD SSTORE PUSH1 0x20 DUP3 ADD MLOAD DUP2 PUSH1 0x1 ADD SWAP1 DUP2 PUSH2 0x1421 SWAP2 SWAP1 PUSH2 0x21B2 JUMP JUMPDEST POP PUSH1 0x40 DUP3 ADD MLOAD DUP2 PUSH1 0x2 ADD SSTORE PUSH1 0x60 DUP3 ADD MLOAD DUP2 PUSH1 0x3 ADD PUSH1 0x0 PUSH2 0x100 EXP DUP2 SLOAD DUP2 PUSH20 0xFFFFFFFFFFFFFFFFFFFFFFFFFFFFFFFFFFFFFFFF MUL NOT AND SWAP1 DUP4 PUSH20 0xFFFFFFFFFFFFFFFFFFFFFFFFFFFFFFFFFFFFFFFF AND MUL OR SWAP1 SSTORE POP PUSH1 0x80 DUP3 ADD MLOAD DUP2 PUSH1 0x4 ADD PUSH1 0x0 PUSH2 0x100 EXP DUP2 SLOAD DUP2 PUSH20 0xFFFFFFFFFFFFFFFFFFFFFFFFFFFFFFFFFFFFFFFF MUL NOT AND SWAP1 DUP4 PUSH20 0xFFFFFFFFFFFFFFFFFFFFFFFFFFFFFFFFFFFFFFFF AND MUL OR SWAP1 SSTORE POP PUSH1 0xA0 DUP3 ADD MLOAD DUP2 PUSH1 0x5 ADD SSTORE PUSH1 0xC0 DUP3 ADD MLOAD DUP2 PUSH1 0x6 ADD SSTORE PUSH1 0xE0 DUP3 ADD MLOAD DUP2 PUSH1 0x7 ADD SSTORE POP POP PUSH1 0x2 PUSH1 0x0 PUSH1 0x1 DUP2 MSTORE PUSH1 0x20 ADD SWAP1 DUP2 MSTORE PUSH1 0x20 ADD PUSH1 0x0 KECCAK256 DUP2 SWAP1 DUP1 PUSH1 0x1 DUP2 SLOAD ADD DUP1 DUP3 SSTORE DUP1 SWAP2 POP POP PUSH1 0x1 SWAP1 SUB SWAP1 PUSH1 0x0 MSTORE PUSH1 0x20 PUSH1 0x0 KECCAK256 SWAP1 PUSH1 0x8 MUL ADD PUSH1 0x0 SWAP1 SWAP2 SWAP1 SWAP2 SWAP1 SWAP2 POP PUSH1 0x0 DUP3 ADD MLOAD DUP2 PUSH1 0x0 ADD SSTORE PUSH1 0x20 DUP3 ADD MLOAD DUP2 PUSH1 0x1 ADD SWAP1 DUP2 PUSH2 0x1537 SWAP2 SWAP1 PUSH2 0x21B2 JUMP JUMPDEST POP PUSH1 0x40 DUP3 ADD MLOAD DUP2 PUSH1 0x2 ADD SSTORE PUSH1 0x60 DUP3 ADD MLOAD DUP2 PUSH1 0x3 ADD PUSH1 0x0 PUSH2 0x100 EXP DUP2 SLOAD DUP2 PUSH20 0xFFFFFFFFFFFFFFFFFFFFFFFFFFFFFFFFFFFFFFFF MUL NOT AND SWAP1 DUP4 PUSH20 0xFFFFFFFFFFFFFFFFFFFFFFFFFFFFFFFFFFFFFFFF AND MUL OR SWAP1 SSTORE POP PUSH1 0x80 DUP3 ADD MLOAD DUP2 PUSH1 0x4 ADD PUSH1 0x0 PUSH2 0x100 EXP DUP2 SLOAD DUP2 PUSH20 0xFFFFFFFFFFFFFFFFFFFFFFFFFFFFFFFFFFFFFFFF MUL NOT AND SWAP1 DUP4 PUSH20 0xFFFFFFFFFFFFFFFFFFFFFFFFFFFFFFFFFFFFFFFF AND MUL OR SWAP1 SSTORE POP PUSH1 0xA0 DUP3 ADD MLOAD DUP2 PUSH1 0x5 ADD SSTORE PUSH1 0xC0 DUP3 ADD MLOAD DUP2 PUSH1 0x6 ADD SSTORE PUSH1 0xE0 DUP3 ADD MLOAD DUP2 PUSH1 0x7 ADD SSTORE POP POP PUSH1 0x3 PUSH1 0x0 CALLER PUSH20 0xFFFFFFFFFFFFFFFFFFFFFFFFFFFFFFFFFFFFFFFF AND PUSH20 0xFFFFFFFFFFFFFFFFFFFFFFFFFFFFFFFFFFFFFFFF AND DUP2 MSTORE PUSH1 0x20 ADD SWAP1 DUP2 MSTORE PUSH1 0x20 ADD PUSH1 0x0 KECCAK256 DUP2 SWAP1 DUP1 PUSH1 0x1 DUP2 SLOAD ADD DUP1 DUP3 SSTORE DUP1 SWAP2 POP POP PUSH1 0x1 SWAP1 SUB SWAP1 PUSH1 0x0 MSTORE PUSH1 0x20 PUSH1 0x0 KECCAK256 SWAP1 PUSH1 0x8 MUL ADD PUSH1 0x0 SWAP1 SWAP2 SWAP1 SWAP2 SWAP1 SWAP2 POP PUSH1 0x0 DUP3 ADD MLOAD DUP2 PUSH1 0x0 ADD SSTORE PUSH1 0x20 DUP3 ADD MLOAD DUP2 PUSH1 0x1 ADD SWAP1 DUP2 PUSH2 0x1678 SWAP2 SWAP1 PUSH2 0x21B2 JUMP JUMPDEST POP PUSH1 0x40 DUP3 ADD MLOAD DUP2 PUSH1 0x2 ADD SSTORE PUSH1 0x60 DUP3 ADD MLOAD DUP2 PUSH1 0x3 ADD PUSH1 0x0 PUSH2 0x100 EXP DUP2 SLOAD DUP2 PUSH20 0xFFFFFFFFFFFFFFFFFFFFFFFFFFFFFFFFFFFFFFFF MUL NOT AND SWAP1 DUP4 PUSH20 0xFFFFFFFFFFFFFFFFFFFFFFFFFFFFFFFFFFFFFFFF AND MUL OR SWAP1 SSTORE POP PUSH1 0x80 DUP3 ADD MLOAD DUP2 PUSH1 0x4 ADD PUSH1 0x0 PUSH2 0x100 EXP DUP2 SLOAD DUP2 PUSH20 0xFFFFFFFFFFFFFFFFFFFFFFFFFFFFFFFFFFFFFFFF MUL NOT AND SWAP1 DUP4 PUSH20 0xFFFFFFFFFFFFFFFFFFFFFFFFFFFFFFFFFFFFFFFF AND MUL OR SWAP1 SSTORE POP PUSH1 0xA0 DUP3 ADD MLOAD DUP2 PUSH1 0x5 ADD SSTORE PUSH1 0xC0 DUP3 ADD MLOAD DUP2 PUSH1 0x6 ADD SSTORE PUSH1 0xE0 DUP3 ADD MLOAD DUP2 PUSH1 0x7 ADD SSTORE POP POP POP POP POP POP JUMP JUMPDEST PUSH1 0x0 DUP1 DUP3 SWAP1 POP PUSH1 0x0 DUP1 JUMPDEST DUP3 MLOAD DUP2 LT ISZERO PUSH2 0x17C4 JUMPI PUSH1 0x0 DUP4 DUP3 DUP2 MLOAD DUP2 LT PUSH2 0x175F JUMPI PUSH2 0x175E PUSH2 0x1FD7 JUMP JUMPDEST JUMPDEST PUSH1 0x20 ADD ADD MLOAD PUSH1 0xF8 SHR PUSH1 0xF8 SHL PUSH1 0xF8 SHR PUSH1 0xFF AND SWAP1 POP PUSH1 0x30 DUP2 LT ISZERO DUP1 ISZERO PUSH2 0x1784 JUMPI POP PUSH1 0x39 DUP2 GT ISZERO JUMPDEST ISZERO PUSH2 0x17B0 JUMPI PUSH1 0x30 DUP2 PUSH2 0x1796 SWAP2 SWAP1 PUSH2 0x1FA3 JUMP JUMPDEST PUSH1 0xA DUP5 PUSH2 0x17A3 SWAP2 SWAP1 PUSH2 0x2513 JUMP JUMPDEST PUSH2 0x17AD SWAP2 SWAP1 PUSH2 0x22F0 JUMP JUMPDEST SWAP3 POP JUMPDEST POP DUP1 DUP1 PUSH2 0x17BC SWAP1 PUSH2 0x239E JUMP JUMPDEST SWAP2 POP POP PUSH2 0x1741 JUMP JUMPDEST POP DUP1 SWAP3 POP POP POP SWAP2 SWAP1 POP JUMP JUMPDEST POP DUP1 SLOAD PUSH2 0x17DB SWAP1 PUSH2 0x1F43 JUMP JUMPDEST PUSH1 0x0 DUP3 SSTORE DUP1 PUSH1 0x1F LT PUSH2 0x17ED JUMPI POP PUSH2 0x180C JUMP JUMPDEST PUSH1 0x1F ADD PUSH1 0x20 SWAP1 DIV SWAP1 PUSH1 0x0 MSTORE PUSH1 0x20 PUSH1 0x0 KECCAK256 SWAP1 DUP2 ADD SWAP1 PUSH2 0x180B SWAP2 SWAP1 PUSH2 0x180F JUMP JUMPDEST JUMPDEST POP JUMP JUMPDEST JUMPDEST DUP1 DUP3 GT ISZERO PUSH2 0x1828 JUMPI PUSH1 0x0 DUP2 PUSH1 0x0 SWAP1 SSTORE POP PUSH1 0x1 ADD PUSH2 0x1810 JUMP JUMPDEST POP SWAP1 JUMP JUMPDEST PUSH1 0x0 PUSH1 0x40 MLOAD SWAP1 POP SWAP1 JUMP JUMPDEST PUSH1 0x0 DUP1 REVERT JUMPDEST PUSH1 0x0 DUP1 REVERT JUMPDEST PUSH1 0x0 PUSH20 0xFFFFFFFFFFFFFFFFFFFFFFFFFFFFFFFFFFFFFFFF DUP3 AND SWAP1 POP SWAP2 SWAP1 POP JUMP JUMPDEST PUSH1 0x0 PUSH2 0x186B DUP3 PUSH2 0x1840 JUMP JUMPDEST SWAP1 POP SWAP2 SWAP1 POP JUMP JUMPDEST PUSH2 0x187B DUP2 PUSH2 0x1860 JUMP JUMPDEST DUP2 EQ PUSH2 0x1886 JUMPI PUSH1 0x0 DUP1 REVERT JUMPDEST POP JUMP JUMPDEST PUSH1 0x0 DUP2 CALLDATALOAD SWAP1 POP PUSH2 0x1898 DUP2 PUSH2 0x1872 JUMP JUMPDEST SWAP3 SWAP2 POP POP JUMP JUMPDEST PUSH1 0x0 PUSH1 0x20 DUP3 DUP5 SUB SLT ISZERO PUSH2 0x18B4 JUMPI PUSH2 0x18B3 PUSH2 0x1836 JUMP JUMPDEST JUMPDEST PUSH1 0x0 PUSH2 0x18C2 DUP5 DUP3 DUP6 ADD PUSH2 0x1889 JUMP JUMPDEST SWAP2 POP POP SWAP3 SWAP2 POP POP JUMP JUMPDEST PUSH1 0x0 DUP2 MLOAD SWAP1 POP SWAP2 SWAP1 POP JUMP JUMPDEST PUSH1 0x0 DUP3 DUP3 MSTORE PUSH1 0x20 DUP3 ADD SWAP1 POP SWAP3 SWAP2 POP POP JUMP JUMPDEST PUSH1 0x0 DUP2 SWAP1 POP PUSH1 0x20 DUP3 ADD SWAP1 POP SWAP2 SWAP1 POP JUMP JUMPDEST PUSH1 0x0 DUP2 SWAP1 POP SWAP2 SWAP1 POP JUMP JUMPDEST PUSH2 0x190A DUP2 PUSH2 0x18F7 JUMP JUMPDEST DUP3 MSTORE POP POP JUMP JUMPDEST PUSH1 0x0 DUP2 MLOAD SWAP1 POP SWAP2 SWAP1 POP JUMP JUMPDEST PUSH1 0x0 DUP3 DUP3 MSTORE PUSH1 0x20 DUP3 ADD SWAP1 POP SWAP3 SWAP2 POP POP JUMP JUMPDEST PUSH1 0x0 JUMPDEST DUP4 DUP2 LT ISZERO PUSH2 0x194A JUMPI DUP1 DUP3 ADD MLOAD DUP2 DUP5 ADD MSTORE PUSH1 0x20 DUP2 ADD SWAP1 POP PUSH2 0x192F JUMP JUMPDEST PUSH1 0x0 DUP5 DUP5 ADD MSTORE POP POP POP POP JUMP JUMPDEST PUSH1 0x0 PUSH1 0x1F NOT PUSH1 0x1F DUP4 ADD AND SWAP1 POP SWAP2 SWAP1 POP JUMP JUMPDEST PUSH1 0x0 PUSH2 0x1972 DUP3 PUSH2 0x1910 JUMP JUMPDEST PUSH2 0x197C DUP2 DUP6 PUSH2 0x191B JUMP JUMPDEST SWAP4 POP PUSH2 0x198C DUP2 DUP6 PUSH1 0x20 DUP7 ADD PUSH2 0x192C JUMP JUMPDEST PUSH2 0x1995 DUP2 PUSH2 0x1956 JUMP JUMPDEST DUP5 ADD SWAP2 POP POP SWAP3 SWAP2 POP POP JUMP JUMPDEST PUSH2 0x19A9 DUP2 PUSH2 0x1860 JUMP JUMPDEST DUP3 MSTORE POP POP JUMP JUMPDEST PUSH1 0x0 PUSH2 0x100 DUP4 ADD PUSH1 0x0 DUP4 ADD MLOAD PUSH2 0x19C8 PUSH1 0x0 DUP7 ADD DUP3 PUSH2 0x1901 JUMP JUMPDEST POP PUSH1 0x20 DUP4 ADD MLOAD DUP5 DUP3 SUB PUSH1 0x20 DUP7 ADD MSTORE PUSH2 0x19E0 DUP3 DUP3 PUSH2 0x1967 JUMP JUMPDEST SWAP2 POP POP PUSH1 0x40 DUP4 ADD MLOAD PUSH2 0x19F5 PUSH1 0x40 DUP7 ADD DUP3 PUSH2 0x1901 JUMP JUMPDEST POP PUSH1 0x60 DUP4 ADD MLOAD PUSH2 0x1A08 PUSH1 0x60 DUP7 ADD DUP3 PUSH2 0x19A0 JUMP JUMPDEST POP PUSH1 0x80 DUP4 ADD MLOAD PUSH2 0x1A1B PUSH1 0x80 DUP7 ADD DUP3 PUSH2 0x19A0 JUMP JUMPDEST POP PUSH1 0xA0 DUP4 ADD MLOAD PUSH2 0x1A2E PUSH1 0xA0 DUP7 ADD DUP3 PUSH2 0x1901 JUMP JUMPDEST POP PUSH1 0xC0 DUP4 ADD MLOAD PUSH2 0x1A41 PUSH1 0xC0 DUP7 ADD DUP3 PUSH2 0x1901 JUMP JUMPDEST POP PUSH1 0xE0 DUP4 ADD MLOAD PUSH2 0x1A54 PUSH1 0xE0 DUP7 ADD DUP3 PUSH2 0x1901 JUMP JUMPDEST POP DUP1 SWAP2 POP POP SWAP3 SWAP2 POP POP JUMP JUMPDEST PUSH1 0x0 PUSH2 0x1A6B DUP4 DUP4 PUSH2 0x19AF JUMP JUMPDEST SWAP1 POP SWAP3 SWAP2 POP POP JUMP JUMPDEST PUSH1 0x0 PUSH1 0x20 DUP3 ADD SWAP1 POP SWAP2 SWAP1 POP JUMP JUMPDEST PUSH1 0x0 PUSH2 0x1A8B DUP3 PUSH2 0x18CB JUMP JUMPDEST PUSH2 0x1A95 DUP2 DUP6 PUSH2 0x18D6 JUMP JUMPDEST SWAP4 POP DUP4 PUSH1 0x20 DUP3 MUL DUP6 ADD PUSH2 0x1AA7 DUP6 PUSH2 0x18E7 JUMP JUMPDEST DUP1 PUSH1 0x0 JUMPDEST DUP6 DUP2 LT ISZERO PUSH2 0x1AE3 JUMPI DUP5 DUP5 SUB DUP10 MSTORE DUP2 MLOAD PUSH2 0x1AC4 DUP6 DUP3 PUSH2 0x1A5F JUMP JUMPDEST SWAP5 POP PUSH2 0x1ACF DUP4 PUSH2 0x1A73 JUMP JUMPDEST SWAP3 POP PUSH1 0x20 DUP11 ADD SWAP10 POP POP PUSH1 0x1 DUP2 ADD SWAP1 POP PUSH2 0x1AAB JUMP JUMPDEST POP DUP3 SWAP8 POP DUP8 SWAP6 POP POP POP POP POP POP SWAP3 SWAP2 POP POP JUMP JUMPDEST PUSH1 0x0 PUSH1 0x20 DUP3 ADD SWAP1 POP DUP2 DUP2 SUB PUSH1 0x0 DUP4 ADD MSTORE PUSH2 0x1B0F DUP2 DUP5 PUSH2 0x1A80 JUMP JUMPDEST SWAP1 POP SWAP3 SWAP2 POP POP JUMP JUMPDEST PUSH2 0x1B20 DUP2 PUSH2 0x18F7 JUMP JUMPDEST DUP2 EQ PUSH2 0x1B2B JUMPI PUSH1 0x0 DUP1 REVERT JUMPDEST POP JUMP JUMPDEST PUSH1 0x0 DUP2 CALLDATALOAD SWAP1 POP PUSH2 0x1B3D DUP2 PUSH2 0x1B17 JUMP JUMPDEST SWAP3 SWAP2 POP POP JUMP JUMPDEST PUSH1 0x0 DUP1 REVERT JUMPDEST PUSH1 0x0 DUP1 REVERT JUMPDEST PUSH32 0x4E487B7100000000000000000000000000000000000000000000000000000000 PUSH1 0x0 MSTORE PUSH1 0x41 PUSH1 0x4 MSTORE PUSH1 0x24 PUSH1 0x0 REVERT JUMPDEST PUSH2 0x1B85 DUP3 PUSH2 0x1956 JUMP JUMPDEST DUP2 ADD DUP2 DUP2 LT PUSH8 0xFFFFFFFFFFFFFFFF DUP3 GT OR ISZERO PUSH2 0x1BA4 JUMPI PUSH2 0x1BA3 PUSH2 0x1B4D JUMP JUMPDEST JUMPDEST DUP1 PUSH1 0x40 MSTORE POP POP POP JUMP JUMPDEST PUSH1 0x0 PUSH2 0x1BB7 PUSH2 0x182C JUMP JUMPDEST SWAP1 POP PUSH2 0x1BC3 DUP3 DUP3 PUSH2 0x1B7C JUMP JUMPDEST SWAP2 SWAP1 POP JUMP JUMPDEST PUSH1 0x0 PUSH8 0xFFFFFFFFFFFFFFFF DUP3 GT ISZERO PUSH2 0x1BE3 JUMPI PUSH2 0x1BE2 PUSH2 0x1B4D JUMP JUMPDEST JUMPDEST PUSH2 0x1BEC DUP3 PUSH2 0x1956 JUMP JUMPDEST SWAP1 POP PUSH1 0x20 DUP2 ADD SWAP1 POP SWAP2 SWAP1 POP JUMP JUMPDEST DUP3 DUP2 DUP4 CALLDATACOPY PUSH1 0x0 DUP4 DUP4 ADD MSTORE POP POP POP JUMP JUMPDEST PUSH1 0x0 PUSH2 0x1C1B PUSH2 0x1C16 DUP5 PUSH2 0x1BC8 JUMP JUMPDEST PUSH2 0x1BAD JUMP JUMPDEST SWAP1 POP DUP3 DUP2 MSTORE PUSH1 0x20 DUP2 ADD DUP5 DUP5 DUP5 ADD GT ISZERO PUSH2 0x1C37 JUMPI PUSH2 0x1C36 PUSH2 0x1B48 JUMP JUMPDEST JUMPDEST PUSH2 0x1C42 DUP5 DUP3 DUP6 PUSH2 0x1BF9 JUMP JUMPDEST POP SWAP4 SWAP3 POP POP POP JUMP JUMPDEST PUSH1 0x0 DUP3 PUSH1 0x1F DUP4 ADD SLT PUSH2 0x1C5F JUMPI PUSH2 0x1C5E PUSH2 0x1B43 JUMP JUMPDEST JUMPDEST DUP2 CALLDATALOAD PUSH2 0x1C6F DUP5 DUP3 PUSH1 0x20 DUP7 ADD PUSH2 0x1C08 JUMP JUMPDEST SWAP2 POP POP SWAP3 SWAP2 POP POP JUMP JUMPDEST PUSH1 0x0 DUP1 PUSH1 0x40 DUP4 DUP6 SUB SLT ISZERO PUSH2 0x1C8F JUMPI PUSH2 0x1C8E PUSH2 0x1836 JUMP JUMPDEST JUMPDEST PUSH1 0x0 PUSH2 0x1C9D DUP6 DUP3 DUP7 ADD PUSH2 0x1B2E JUMP JUMPDEST SWAP3 POP POP PUSH1 0x20 DUP4 ADD CALLDATALOAD PUSH8 0xFFFFFFFFFFFFFFFF DUP2 GT ISZERO PUSH2 0x1CBE JUMPI PUSH2 0x1CBD PUSH2 0x183B JUMP JUMPDEST JUMPDEST PUSH2 0x1CCA DUP6 DUP3 DUP7 ADD PUSH2 0x1C4A JUMP JUMPDEST SWAP2 POP POP SWAP3 POP SWAP3 SWAP1 POP JUMP JUMPDEST PUSH1 0x0 DUP1 PUSH1 0x0 PUSH1 0x60 DUP5 DUP7 SUB SLT ISZERO PUSH2 0x1CED JUMPI PUSH2 0x1CEC PUSH2 0x1836 JUMP JUMPDEST JUMPDEST PUSH1 0x0 PUSH2 0x1CFB DUP7 DUP3 DUP8 ADD PUSH2 0x1B2E JUMP JUMPDEST SWAP4 POP POP PUSH1 0x20 PUSH2 0x1D0C DUP7 DUP3 DUP8 ADD PUSH2 0x1B2E JUMP JUMPDEST SWAP3 POP POP PUSH1 0x40 PUSH2 0x1D1D DUP7 DUP3 DUP8 ADD PUSH2 0x1889 JUMP JUMPDEST SWAP2 POP POP SWAP3 POP SWAP3 POP SWAP3 JUMP JUMPDEST PUSH1 0x0 PUSH1 0x20 DUP3 DUP5 SUB SLT ISZERO PUSH2 0x1D3D JUMPI PUSH2 0x1D3C PUSH2 0x1836 JUMP JUMPDEST JUMPDEST PUSH1 0x0 PUSH2 0x1D4B DUP5 DUP3 DUP6 ADD PUSH2 0x1B2E JUMP JUMPDEST SWAP2 POP POP SWAP3 SWAP2 POP POP JUMP JUMPDEST PUSH2 0x1D5D DUP2 PUSH2 0x18F7 JUMP JUMPDEST DUP3 MSTORE POP POP JUMP JUMPDEST PUSH1 0x0 DUP3 DUP3 MSTORE PUSH1 0x20 DUP3 ADD SWAP1 POP SWAP3 SWAP2 POP POP JUMP JUMPDEST PUSH1 0x0 PUSH2 0x1D7F DUP3 PUSH2 0x1910 JUMP JUMPDEST PUSH2 0x1D89 DUP2 DUP6 PUSH2 0x1D63 JUMP JUMPDEST SWAP4 POP PUSH2 0x1D99 DUP2 DUP6 PUSH1 0x20 DUP7 ADD PUSH2 0x192C JUMP JUMPDEST PUSH2 0x1DA2 DUP2 PUSH2 0x1956 JUMP JUMPDEST DUP5 ADD SWAP2 POP POP SWAP3 SWAP2 POP POP JUMP JUMPDEST PUSH2 0x1DB6 DUP2 PUSH2 0x1860 JUMP JUMPDEST DUP3 MSTORE POP POP JUMP JUMPDEST PUSH1 0x0 PUSH2 0x100 DUP3 ADD SWAP1 POP PUSH2 0x1DD2 PUSH1 0x0 DUP4 ADD DUP12 PUSH2 0x1D54 JUMP JUMPDEST DUP2 DUP2 SUB PUSH1 0x20 DUP4 ADD MSTORE PUSH2 0x1DE4 DUP2 DUP11 PUSH2 0x1D74 JUMP JUMPDEST SWAP1 POP PUSH2 0x1DF3 PUSH1 0x40 DUP4 ADD DUP10 PUSH2 0x1D54 JUMP JUMPDEST PUSH2 0x1E00 PUSH1 0x60 DUP4 ADD DUP9 PUSH2 0x1DAD JUMP JUMPDEST PUSH2 0x1E0D PUSH1 0x80 DUP4 ADD DUP8 PUSH2 0x1DAD JUMP JUMPDEST PUSH2 0x1E1A PUSH1 0xA0 DUP4 ADD DUP7 PUSH2 0x1D54 JUMP JUMPDEST PUSH2 0x1E27 PUSH1 0xC0 DUP4 ADD DUP6 PUSH2 0x1D54 JUMP JUMPDEST PUSH2 0x1E34 PUSH1 0xE0 DUP4 ADD DUP5 PUSH2 0x1D54 JUMP JUMPDEST SWAP10 SWAP9 POP POP POP POP POP POP POP POP POP JUMP JUMPDEST PUSH1 0x0 DUP1 PUSH1 0x0 PUSH1 0x60 DUP5 DUP7 SUB SLT ISZERO PUSH2 0x1E5A JUMPI PUSH2 0x1E59 PUSH2 0x1836 JUMP JUMPDEST JUMPDEST PUSH1 0x0 DUP5 ADD CALLDATALOAD PUSH8 0xFFFFFFFFFFFFFFFF DUP2 GT ISZERO PUSH2 0x1E78 JUMPI PUSH2 0x1E77 PUSH2 0x183B JUMP JUMPDEST JUMPDEST PUSH2 0x1E84 DUP7 DUP3 DUP8 ADD PUSH2 0x1C4A JUMP JUMPDEST SWAP4 POP POP PUSH1 0x20 PUSH2 0x1E95 DUP7 DUP3 DUP8 ADD PUSH2 0x1889 JUMP JUMPDEST SWAP3 POP POP PUSH1 0x40 PUSH2 0x1EA6 DUP7 DUP3 DUP8 ADD PUSH2 0x1B2E JUMP JUMPDEST SWAP2 POP POP SWAP3 POP SWAP3 POP SWAP3 JUMP JUMPDEST PUSH1 0x0 PUSH1 0x20 DUP3 DUP5 SUB SLT ISZERO PUSH2 0x1EC6 JUMPI PUSH2 0x1EC5 PUSH2 0x1836 JUMP JUMPDEST JUMPDEST PUSH1 0x0 DUP3 ADD CALLDATALOAD PUSH8 0xFFFFFFFFFFFFFFFF DUP2 GT ISZERO PUSH2 0x1EE4 JUMPI PUSH2 0x1EE3 PUSH2 0x183B JUMP JUMPDEST JUMPDEST PUSH2 0x1EF0 DUP5 DUP3 DUP6 ADD PUSH2 0x1C4A JUMP JUMPDEST SWAP2 POP POP SWAP3 SWAP2 POP POP JUMP JUMPDEST PUSH1 0x0 PUSH1 0x20 DUP3 ADD SWAP1 POP PUSH2 0x1F0E PUSH1 0x0 DUP4 ADD DUP5 PUSH2 0x1D54 JUMP JUMPDEST SWAP3 SWAP2 POP POP JUMP JUMPDEST PUSH32 0x4E487B7100000000000000000000000000000000000000000000000000000000 PUSH1 0x0 MSTORE PUSH1 0x22 PUSH1 0x4 MSTORE PUSH1 0x24 PUSH1 0x0 REVERT JUMPDEST PUSH1 0x0 PUSH1 0x2 DUP3 DIV SWAP1 POP PUSH1 0x1 DUP3 AND DUP1 PUSH2 0x1F5B JUMPI PUSH1 0x7F DUP3 AND SWAP2 POP JUMPDEST PUSH1 0x20 DUP3 LT DUP2 SUB PUSH2 0x1F6E JUMPI PUSH2 0x1F6D PUSH2 0x1F14 JUMP JUMPDEST JUMPDEST POP SWAP2 SWAP1 POP JUMP JUMPDEST PUSH32 0x4E487B7100000000000000000000000000000000000000000000000000000000 PUSH1 0x0 MSTORE PUSH1 0x11 PUSH1 0x4 MSTORE PUSH1 0x24 PUSH1 0x0 REVERT JUMPDEST PUSH1 0x0 PUSH2 0x1FAE DUP3 PUSH2 0x18F7 JUMP JUMPDEST SWAP2 POP PUSH2 0x1FB9 DUP4 PUSH2 0x18F7 JUMP JUMPDEST SWAP3 POP DUP3 DUP3 SUB SWAP1 POP DUP2 DUP2 GT ISZERO PUSH2 0x1FD1 JUMPI PUSH2 0x1FD0 PUSH2 0x1F74 JUMP JUMPDEST JUMPDEST SWAP3 SWAP2 POP POP JUMP JUMPDEST PUSH32 0x4E487B7100000000000000000000000000000000000000000000000000000000 PUSH1 0x0 MSTORE PUSH1 0x32 PUSH1 0x4 MSTORE PUSH1 0x24 PUSH1 0x0 REVERT JUMPDEST PUSH1 0x0 DUP2 SWAP1 POP DUP2 PUSH1 0x0 MSTORE PUSH1 0x20 PUSH1 0x0 KECCAK256 SWAP1 POP SWAP2 SWAP1 POP JUMP JUMPDEST PUSH1 0x0 PUSH1 0x20 PUSH1 0x1F DUP4 ADD DIV SWAP1 POP SWAP2 SWAP1 POP JUMP JUMPDEST PUSH1 0x0 DUP3 DUP3 SHL SWAP1 POP SWAP3 SWAP2 POP POP JUMP JUMPDEST PUSH1 0x0 PUSH1 0x8 DUP4 MUL PUSH2 0x2068 PUSH32 0xFFFFFFFFFFFFFFFFFFFFFFFFFFFFFFFFFFFFFFFFFFFFFFFFFFFFFFFFFFFFFFFF DUP3 PUSH2 0x202B JUMP JUMPDEST PUSH2 0x2072 DUP7 DUP4 PUSH2 0x202B JUMP JUMPDEST SWAP6 POP DUP1 NOT DUP5 AND SWAP4 POP DUP1 DUP7 AND DUP5 OR SWAP3 POP POP POP SWAP4 SWAP3 POP POP POP JUMP JUMPDEST PUSH1 0x0 DUP2 SWAP1 POP SWAP2 SWAP1 POP JUMP JUMPDEST PUSH1 0x0 PUSH2 0x20AF PUSH2 0x20AA PUSH2 0x20A5 DUP5 PUSH2 0x18F7 JUMP JUMPDEST PUSH2 0x208A JUMP JUMPDEST PUSH2 0x18F7 JUMP JUMPDEST SWAP1 POP SWAP2 SWAP1 POP JUMP JUMPDEST PUSH1 0x0 DUP2 SWAP1 POP SWAP2 SWAP1 POP JUMP JUMPDEST PUSH2 0x20C9 DUP4 PUSH2 0x2094 JUMP JUMPDEST PUSH2 0x20DD PUSH2 0x20D5 DUP3 PUSH2 0x20B6 JUMP JUMPDEST DUP5 DUP5 SLOAD PUSH2 0x2038 JUMP JUMPDEST DUP3 SSTORE POP POP POP POP JUMP JUMPDEST PUSH1 0x0 SWAP1 JUMP JUMPDEST PUSH2 0x20F2 PUSH2 0x20E5 JUMP JUMPDEST PUSH2 0x20FD DUP2 DUP5 DUP5 PUSH2 0x20C0 JUMP JUMPDEST POP POP POP JUMP JUMPDEST JUMPDEST DUP2 DUP2 LT ISZERO PUSH2 0x2121 JUMPI PUSH2 0x2116 PUSH1 0x0 DUP3 PUSH2 0x20EA JUMP JUMPDEST PUSH1 0x1 DUP2 ADD SWAP1 POP PUSH2 0x2103 JUMP JUMPDEST POP POP JUMP JUMPDEST PUSH1 0x1F DUP3 GT ISZERO PUSH2 0x2166 JUMPI PUSH2 0x2137 DUP2 PUSH2 0x2006 JUMP JUMPDEST PUSH2 0x2140 DUP5 PUSH2 0x201B JUMP JUMPDEST DUP2 ADD PUSH1 0x20 DUP6 LT ISZERO PUSH2 0x214F JUMPI DUP2 SWAP1 POP JUMPDEST PUSH2 0x2163 PUSH2 0x215B DUP6 PUSH2 0x201B JUMP JUMPDEST DUP4 ADD DUP3 PUSH2 0x2102 JUMP JUMPDEST POP POP JUMPDEST POP POP POP JUMP JUMPDEST PUSH1 0x0 DUP3 DUP3 SHR SWAP1 POP SWAP3 SWAP2 POP POP JUMP JUMPDEST PUSH1 0x0 PUSH2 0x2189 PUSH1 0x0 NOT DUP5 PUSH1 0x8 MUL PUSH2 0x216B JUMP JUMPDEST NOT DUP1 DUP4 AND SWAP2 POP POP SWAP3 SWAP2 POP POP JUMP JUMPDEST PUSH1 0x0 PUSH2 0x21A2 DUP4 DUP4 PUSH2 0x2178 JUMP JUMPDEST SWAP2 POP DUP3 PUSH1 0x2 MUL DUP3 OR SWAP1 POP SWAP3 SWAP2 POP POP JUMP JUMPDEST PUSH2 0x21BB DUP3 PUSH2 0x1910 JUMP JUMPDEST PUSH8 0xFFFFFFFFFFFFFFFF DUP2 GT ISZERO PUSH2 0x21D4 JUMPI PUSH2 0x21D3 PUSH2 0x1B4D JUMP JUMPDEST JUMPDEST PUSH2 0x21DE DUP3 SLOAD PUSH2 0x1F43 JUMP JUMPDEST PUSH2 0x21E9 DUP3 DUP3 DUP6 PUSH2 0x2125 JUMP JUMPDEST PUSH1 0x0 PUSH1 0x20 SWAP1 POP PUSH1 0x1F DUP4 GT PUSH1 0x1 DUP2 EQ PUSH2 0x221C JUMPI PUSH1 0x0 DUP5 ISZERO PUSH2 0x220A JUMPI DUP3 DUP8 ADD MLOAD SWAP1 POP JUMPDEST PUSH2 0x2214 DUP6 DUP3 PUSH2 0x2196 JUMP JUMPDEST DUP7 SSTORE POP PUSH2 0x227C JUMP JUMPDEST PUSH1 0x1F NOT DUP5 AND PUSH2 0x222A DUP7 PUSH2 0x2006 JUMP JUMPDEST PUSH1 0x0 JUMPDEST DUP3 DUP2 LT ISZERO PUSH2 0x2252 JUMPI DUP5 DUP10 ADD MLOAD DUP3 SSTORE PUSH1 0x1 DUP3 ADD SWAP2 POP PUSH1 0x20 DUP6 ADD SWAP5 POP PUSH1 0x20 DUP2 ADD SWAP1 POP PUSH2 0x222D JUMP JUMPDEST DUP7 DUP4 LT ISZERO PUSH2 0x226F JUMPI DUP5 DUP10 ADD MLOAD PUSH2 0x226B PUSH1 0x1F DUP10 AND DUP3 PUSH2 0x2178 JUMP JUMPDEST DUP4 SSTORE POP JUMPDEST PUSH1 0x1 PUSH1 0x2 DUP9 MUL ADD DUP9 SSTORE POP POP POP JUMPDEST POP POP POP POP POP POP JUMP JUMPDEST PUSH32 0xE4B88DE883BDE7BB99E887AAE5B7B1E68D90E6ACBE0000000000000000000000 PUSH1 0x0 DUP3 ADD MSTORE POP JUMP JUMPDEST PUSH1 0x0 PUSH2 0x22BA PUSH1 0x15 DUP4 PUSH2 0x1D63 JUMP JUMPDEST SWAP2 POP PUSH2 0x22C5 DUP3 PUSH2 0x2284 JUMP JUMPDEST PUSH1 0x20 DUP3 ADD SWAP1 POP SWAP2 SWAP1 POP JUMP JUMPDEST PUSH1 0x0 PUSH1 0x20 DUP3 ADD SWAP1 POP DUP2 DUP2 SUB PUSH1 0x0 DUP4 ADD MSTORE PUSH2 0x22E9 DUP2 PUSH2 0x22AD JUMP JUMPDEST SWAP1 POP SWAP2 SWAP1 POP JUMP JUMPDEST PUSH1 0x0 PUSH2 0x22FB DUP3 PUSH2 0x18F7 JUMP JUMPDEST SWAP2 POP PUSH2 0x2306 DUP4 PUSH2 0x18F7 JUMP JUMPDEST SWAP3 POP DUP3 DUP3 ADD SWAP1 POP DUP1 DUP3 GT ISZERO PUSH2 0x231E JUMPI PUSH2 0x231D PUSH2 0x1F74 JUMP JUMPDEST JUMPDEST SWAP3 SWAP2 POP POP JUMP JUMPDEST PUSH32 0x3939393900000000000000000000000000000000000000000000000000000000 PUSH1 0x0 DUP3 ADD MSTORE POP JUMP JUMPDEST PUSH1 0x0 PUSH2 0x235A PUSH1 0x4 DUP4 PUSH2 0x1D63 JUMP JUMPDEST SWAP2 POP PUSH2 0x2365 DUP3 PUSH2 0x2324 JUMP JUMPDEST PUSH1 0x20 DUP3 ADD SWAP1 POP SWAP2 SWAP1 POP JUMP JUMPDEST PUSH1 0x0 PUSH1 0x40 DUP3 ADD SWAP1 POP DUP2 DUP2 SUB PUSH1 0x0 DUP4 ADD MSTORE PUSH2 0x2389 DUP2 PUSH2 0x234D JUMP JUMPDEST SWAP1 POP PUSH2 0x2398 PUSH1 0x20 DUP4 ADD DUP5 PUSH2 0x1DAD JUMP JUMPDEST SWAP3 SWAP2 POP POP JUMP JUMPDEST PUSH1 0x0 PUSH2 0x23A9 DUP3 PUSH2 0x18F7 JUMP JUMPDEST SWAP2 POP PUSH32 0xFFFFFFFFFFFFFFFFFFFFFFFFFFFFFFFFFFFFFFFFFFFFFFFFFFFFFFFFFFFFFFFF DUP3 SUB PUSH2 0x23DB JUMPI PUSH2 0x23DA PUSH2 0x1F74 JUMP JUMPDEST JUMPDEST PUSH1 0x1 DUP3 ADD SWAP1 POP SWAP2 SWAP1 POP JUMP JUMPDEST PUSH32 0x4E487B7100000000000000000000000000000000000000000000000000000000 PUSH1 0x0 MSTORE PUSH1 0x31 PUSH1 0x4 MSTORE PUSH1 0x24 PUSH1 0x0 REVERT JUMPDEST PUSH1 0x0 DUP2 SLOAD SWAP1 POP PUSH2 0x2424 DUP2 PUSH2 0x1F43 JUMP JUMPDEST SWAP1 POP SWAP2 SWAP1 POP JUMP JUMPDEST DUP2 DUP2 SUB PUSH2 0x2439 JUMPI POP POP PUSH2 0x2511 JUMP JUMPDEST PUSH2 0x2442 DUP3 PUSH2 0x2415 JUMP JUMPDEST PUSH8 0xFFFFFFFFFFFFFFFF DUP2 GT ISZERO PUSH2 0x245B JUMPI PUSH2 0x245A PUSH2 0x1B4D JUMP JUMPDEST JUMPDEST PUSH2 0x2465 DUP3 SLOAD PUSH2 0x1F43 JUMP JUMPDEST PUSH2 0x2470 DUP3 DUP3 DUP6 PUSH2 0x2125 JUMP JUMPDEST PUSH1 0x0 PUSH1 0x1F DUP4 GT PUSH1 0x1 DUP2 EQ PUSH2 0x249F JUMPI PUSH1 0x0 DUP5 ISZERO PUSH2 0x248D JUMPI DUP3 DUP8 ADD SLOAD SWAP1 POP JUMPDEST PUSH2 0x2497 DUP6 DUP3 PUSH2 0x2196 JUMP JUMPDEST DUP7 SSTORE POP PUSH2 0x250A JUMP JUMPDEST PUSH1 0x1F NOT DUP5 AND PUSH2 0x24AD DUP8 PUSH2 0x2006 JUMP JUMPDEST SWAP7 POP PUSH2 0x24B8 DUP7 PUSH2 0x2006 JUMP JUMPDEST PUSH1 0x0 JUMPDEST DUP3 DUP2 LT ISZERO PUSH2 0x24E0 JUMPI DUP5 DUP10 ADD SLOAD DUP3 SSTORE PUSH1 0x1 DUP3 ADD SWAP2 POP PUSH1 0x1 DUP6 ADD SWAP5 POP PUSH1 0x20 DUP2 ADD SWAP1 POP PUSH2 0x24BB JUMP JUMPDEST DUP7 DUP4 LT ISZERO PUSH2 0x24FD JUMPI DUP5 DUP10 ADD SLOAD PUSH2 0x24F9 PUSH1 0x1F DUP10 AND DUP3 PUSH2 0x2178 JUMP JUMPDEST DUP4 SSTORE POP JUMPDEST PUSH1 0x1 PUSH1 0x2 DUP9 MUL ADD DUP9 SSTORE POP POP POP JUMPDEST POP POP POP POP POP POP JUMPDEST JUMP JUMPDEST PUSH1 0x0 PUSH2 0x251E DUP3 PUSH2 0x18F7 JUMP JUMPDEST SWAP2 POP PUSH2 0x2529 DUP4 PUSH2 0x18F7 JUMP JUMPDEST SWAP3 POP DUP2 PUSH32 0xFFFFFFFFFFFFFFFFFFFFFFFFFFFFFFFFFFFFFFFFFFFFFFFFFFFFFFFFFFFFFFFF DIV DUP4 GT DUP3 ISZERO ISZERO AND ISZERO PUSH2 0x2562 JUMPI PUSH2 0x2561 PUSH2 0x1F74 JUMP JUMPDEST JUMPDEST DUP3 DUP3 MUL SWAP1 POP SWAP3 SWAP2 POP POP JUMP INVALID LOG2 PUSH5 0x6970667358 0x22 SLT KECCAK256 PUSH18 0x8AC23C37C7D681C5C09C16A76978E39A4C76 0x23 REVERT SWAP16 SWAP9 0x2C 0xE7 MULMOD 0xB9 SELFDESTRUCT 0xB3 0xA8 0xF 0xC2 PUSH5 0x736F6C6343 STOP ADDMOD LT STOP CALLER "
				},
				"gasEstimates": {
					"creation": {
						"codeDepositCost": "1927000",
						"executionCost": "2041",
						"totalCost": "1929041"
					},
					"external": {
						"createCrowdfunding(string,address,uint256)": "infinite",
						"getCrowdfundingByStatus(uint256)": "infinite",
						"getMyCrowdfunding(address)": "infinite",
						"join(uint256,uint256,address)": "infinite",
						"list(uint256)": "infinite",
						"setStatus(uint256)": "infinite",
						"setTitle(uint256,string)": "infinite",
						"stringToInt(string)": "infinite"
					}
				},
				"methodIdentifiers": {
					"createCrowdfunding(string,address,uint256)": "ac8b1300",
					"getCrowdfundingByStatus(uint256)": "904cc175",
					"getMyCrowdfunding(address)": "377e6ff7",
					"join(uint256,uint256,address)": "575b70d0",
					"list(uint256)": "80c9419e",
					"setStatus(uint256)": "69ba1a75",
					"setTitle(uint256,string)": "5102bc9d",
					"stringToInt(string)": "f8a02d84"
				}
			},
			"storageLayout": {
				"storage": [
					{
						"astId": 3,
						"contract": "crowdfunding.sol:CrowdfundingContract",
						"label": "No",
						"offset": 0,
						"slot": "0",
						"type": "t_uint256"
					},
					{
						"astId": 24,
						"contract": "crowdfunding.sol:CrowdfundingContract",
						"label": "list",
						"offset": 0,
						"slot": "1",
						"type": "t_array(t_struct(Crowdfunding)20_storage)dyn_storage"
					},
					{
						"astId": 30,
						"contract": "crowdfunding.sol:CrowdfundingContract",
						"label": "filterDataByStatus",
						"offset": 0,
						"slot": "2",
						"type": "t_mapping(t_uint256,t_array(t_struct(Crowdfunding)20_storage)dyn_storage)"
					},
					{
						"astId": 36,
						"contract": "crowdfunding.sol:CrowdfundingContract",
						"label": "myCrowdfunding",
						"offset": 0,
						"slot": "3",
						"type": "t_mapping(t_address,t_array(t_struct(Crowdfunding)20_storage)dyn_storage)"
					},
					{
						"astId": 41,
						"contract": "crowdfunding.sol:CrowdfundingContract",
						"label": "calcJoinNum",
						"offset": 0,
						"slot": "4",
						"type": "t_mapping(t_uint256,t_array(t_address)dyn_storage)"
					}
				],
				"types": {
					"t_address": {
						"encoding": "inplace",
						"label": "address",
						"numberOfBytes": "20"
					},
					"t_array(t_address)dyn_storage": {
						"base": "t_address",
						"encoding": "dynamic_array",
						"label": "address[]",
						"numberOfBytes": "32"
					},
					"t_array(t_struct(Crowdfunding)20_storage)dyn_storage": {
						"base": "t_struct(Crowdfunding)20_storage",
						"encoding": "dynamic_array",
						"label": "struct CrowdfundingContract.Crowdfunding[]",
						"numberOfBytes": "32"
					},
					"t_mapping(t_address,t_array(t_struct(Crowdfunding)20_storage)dyn_storage)": {
						"encoding": "mapping",
						"key": "t_address",
						"label": "mapping(address => struct CrowdfundingContract.Crowdfunding[])",
						"numberOfBytes": "32",
						"value": "t_array(t_struct(Crowdfunding)20_storage)dyn_storage"
					},
					"t_mapping(t_uint256,t_array(t_address)dyn_storage)": {
						"encoding": "mapping",
						"key": "t_uint256",
						"label": "mapping(uint256 => address[])",
						"numberOfBytes": "32",
						"value": "t_array(t_address)dyn_storage"
					},
					"t_mapping(t_uint256,t_array(t_struct(Crowdfunding)20_storage)dyn_storage)": {
						"encoding": "mapping",
						"key": "t_uint256",
						"label": "mapping(uint256 => struct CrowdfundingContract.Crowdfunding[])",
						"numberOfBytes": "32",
						"value": "t_array(t_struct(Crowdfunding)20_storage)dyn_storage"
					},
					"t_string_storage": {
						"encoding": "bytes",
						"label": "string",
						"numberOfBytes": "32"
					},
					"t_struct(Crowdfunding)20_storage": {
						"encoding": "inplace",
						"label": "struct CrowdfundingContract.Crowdfunding",
						"members": [
							{
								"astId": 5,
								"contract": "crowdfunding.sol:CrowdfundingContract",
								"label": "num",
								"offset": 0,
								"slot": "0",
								"type": "t_uint256"
							},
							{
								"astId": 7,
								"contract": "crowdfunding.sol:CrowdfundingContract",
								"label": "title",
								"offset": 0,
								"slot": "1",
								"type": "t_string_storage"
							},
							{
								"astId": 9,
								"contract": "crowdfunding.sol:CrowdfundingContract",
								"label": "status",
								"offset": 0,
								"slot": "2",
								"type": "t_uint256"
							},
							{
								"astId": 11,
								"contract": "crowdfunding.sol:CrowdfundingContract",
								"label": "creator",
								"offset": 0,
								"slot": "3",
								"type": "t_address"
							},
							{
								"astId": 13,
								"contract": "crowdfunding.sol:CrowdfundingContract",
								"label": "recipient",
								"offset": 0,
								"slot": "4",
								"type": "t_address"
							},
							{
								"astId": 15,
								"contract": "crowdfunding.sol:CrowdfundingContract",
								"label": "joinNum",
								"offset": 0,
								"slot": "5",
								"type": "t_uint256"
							},
							{
								"astId": 17,
								"contract": "crowdfunding.sol:CrowdfundingContract",
								"label": "expectAmout",
								"offset": 0,
								"slot": "6",
								"type": "t_uint256"
							},
							{
								"astId": 19,
								"contract": "crowdfunding.sol:CrowdfundingContract",
								"label": "actualAmount",
								"offset": 0,
								"slot": "7",
								"type": "t_uint256"
							}
						],
						"numberOfBytes": "256"
					},
					"t_uint256": {
						"encoding": "inplace",
						"label": "uint256",
						"numberOfBytes": "32"
					}
				}
			},
			"userdoc": {
				"kind": "user",
				"methods": {},
				"version": 1
			}
		}
	}
}