{
	"array.sol": {
		"ArrayTest": {
			"abi": [
				{
					"inputs": [
						{
							"internalType": "string",
							"name": "_bookName",
							"type": "string"
						}
					],
					"name": "createReadList",
					"outputs": [],
					"stateMutability": "nonpayable",
					"type": "function"
				},
				{
					"inputs": [
						{
							"internalType": "uint256",
							"name": "status",
							"type": "uint256"
						}
					],
					"name": "getFilterReadList",
					"outputs": [
						{
							"components": [
								{
									"internalType": "uint256",
									"name": "status",
									"type": "uint256"
								},
								{
									"internalType": "string",
									"name": "bookName",
									"type": "string"
								}
							],
							"internalType": "struct ArrayTest.Book",
							"name": "",
							"type": "tuple"
						}
					],
					"stateMutability": "view",
					"type": "function"
				},
				{
					"inputs": [],
					"name": "getList",
					"outputs": [
						{
							"components": [
								{
									"internalType": "uint256",
									"name": "status",
									"type": "uint256"
								},
								{
									"internalType": "string",
									"name": "bookName",
									"type": "string"
								}
							],
							"internalType": "struct ArrayTest.Book[]",
							"name": "",
							"type": "tuple[]"
						}
					],
					"stateMutability": "view",
					"type": "function"
				}
			],
			"devdoc": {
				"kind": "dev",
				"methods": {},
				"version": 1
			},
			"evm": {
				"assembly": "    /* \"array.sol\":61:858  contract ArrayTest {\r... */\n  mstore(0x40, 0x80)\n    /* \"array.sol\":261:262  0 */\n  0x00\n    /* \"array.sol\":250:262  uint num = 0 */\n  0x01\n  sstore\n    /* \"array.sol\":61:858  contract ArrayTest {\r... */\n  callvalue\n  dup1\n  iszero\n  tag_1\n  jumpi\n  0x00\n  dup1\n  revert\ntag_1:\n  pop\n  dataSize(sub_0)\n  dup1\n  dataOffset(sub_0)\n  0x00\n  codecopy\n  0x00\n  return\nstop\n\nsub_0: assembly {\n        /* \"array.sol\":61:858  contract ArrayTest {\r... */\n      mstore(0x40, 0x80)\n      callvalue\n      dup1\n      iszero\n      tag_1\n      jumpi\n      0x00\n      dup1\n      revert\n    tag_1:\n      pop\n      jumpi(tag_2, lt(calldatasize, 0x04))\n      shr(0xe0, calldataload(0x00))\n      dup1\n      0x234c6686\n      eq\n      tag_3\n      jumpi\n      dup1\n      0x942b765a\n      eq\n      tag_4\n      jumpi\n      dup1\n      0xb868ef57\n      eq\n      tag_5\n      jumpi\n    tag_2:\n      0x00\n      dup1\n      revert\n        /* \"array.sol\":346:505  function createReadList(string memory _bookName) public {\r... */\n    tag_3:\n      tag_6\n      0x04\n      dup1\n      calldatasize\n      sub\n      dup2\n      add\n      swap1\n      tag_7\n      swap2\n      swap1\n      tag_8\n      jump\t// in\n    tag_7:\n      tag_9\n      jump\t// in\n    tag_6:\n      stop\n        /* \"array.sol\":770:855  function getList() public view returns (Book[] memory) {\r... */\n    tag_4:\n      tag_10\n      tag_11\n      jump\t// in\n    tag_10:\n      mload(0x40)\n      tag_12\n      swap2\n      swap1\n      tag_13\n      jump\t// in\n    tag_12:\n      mload(0x40)\n      dup1\n      swap2\n      sub\n      swap1\n      return\n        /* \"array.sol\":650:762  function getFilterReadList(uint status) public view returns (Book memory) {\r... */\n    tag_5:\n      tag_14\n      0x04\n      dup1\n      calldatasize\n      sub\n      dup2\n      add\n      swap1\n      tag_15\n      swap2\n      swap1\n      tag_16\n      jump\t// in\n    tag_15:\n      tag_17\n      jump\t// in\n    tag_14:\n      mload(0x40)\n      tag_18\n      swap2\n      swap1\n      tag_19\n      jump\t// in\n    tag_18:\n      mload(0x40)\n      dup1\n      swap2\n      sub\n      swap1\n      return\n        /* \"array.sol\":346:505  function createReadList(string memory _bookName) public {\r... */\n    tag_9:\n        /* \"array.sol\":413:417  list */\n      0x00\n        /* \"array.sol\":423:496  Book({\r... */\n      mload(0x40)\n      dup1\n      0x40\n      add\n      0x40\n      mstore\n      dup1\n        /* \"array.sol\":450:451  0 */\n      0x00\n        /* \"array.sol\":423:496  Book({\r... */\n      dup2\n      mstore\n      0x20\n      add\n        /* \"array.sol\":475:484  _bookName */\n      dup4\n        /* \"array.sol\":423:496  Book({\r... */\n      dup2\n      mstore\n      pop\n        /* \"array.sol\":413:497  list.push(Book({\r... */\n      swap1\n      dup1\n      0x01\n      dup2\n      sload\n      add\n      dup1\n      dup3\n      sstore\n      dup1\n      swap2\n      pop\n      pop\n      0x01\n      swap1\n      sub\n      swap1\n      0x00\n      mstore\n      keccak256(0x00, 0x20)\n      swap1\n      0x02\n      mul\n      add\n      0x00\n      swap1\n      swap2\n      swap1\n      swap2\n      swap1\n      swap2\n      pop\n      0x00\n      dup3\n      add\n      mload\n      dup2\n      0x00\n      add\n      sstore\n      0x20\n      dup3\n      add\n      mload\n      dup2\n      0x01\n      add\n      swap1\n      dup1\n      mload\n      swap1\n      0x20\n      add\n      swap1\n      tag_22\n      swap3\n      swap2\n      swap1\n      tag_23\n      jump\t// in\n    tag_22:\n      pop\n      pop\n      pop\n        /* \"array.sol\":346:505  function createReadList(string memory _bookName) public {\r... */\n      pop\n      jump\t// out\n        /* \"array.sol\":770:855  function getList() public view returns (Book[] memory) {\r... */\n    tag_11:\n        /* \"array.sol\":810:823  Book[] memory */\n      0x60\n        /* \"array.sol\":843:847  list */\n      0x00\n        /* \"array.sol\":836:847  return list */\n      dup1\n      sload\n      dup1\n      0x20\n      mul\n      0x20\n      add\n      mload(0x40)\n      swap1\n      dup2\n      add\n      0x40\n      mstore\n      dup1\n      swap3\n      swap2\n      swap1\n      dup2\n      dup2\n      mstore\n      0x20\n      add\n      0x00\n      swap1\n    tag_25:\n      dup3\n      dup3\n      lt\n      iszero\n      tag_26\n      jumpi\n      dup4\n      dup3\n      swap1\n      0x00\n      mstore\n      keccak256(0x00, 0x20)\n      swap1\n      0x02\n      mul\n      add\n      mload(0x40)\n      dup1\n      0x40\n      add\n      0x40\n      mstore\n      swap1\n      dup2\n      0x00\n      dup3\n      add\n      sload\n      dup2\n      mstore\n      0x20\n      add\n      0x01\n      dup3\n      add\n      dup1\n      sload\n      tag_28\n      swap1\n      tag_29\n      jump\t// in\n    tag_28:\n      dup1\n      0x1f\n      add\n      0x20\n      dup1\n      swap2\n      div\n      mul\n      0x20\n      add\n      mload(0x40)\n      swap1\n      dup2\n      add\n      0x40\n      mstore\n      dup1\n      swap3\n      swap2\n      swap1\n      dup2\n      dup2\n      mstore\n      0x20\n      add\n      dup3\n      dup1\n      sload\n      tag_30\n      swap1\n      tag_29\n      jump\t// in\n    tag_30:\n      dup1\n      iszero\n      tag_31\n      jumpi\n      dup1\n      0x1f\n      lt\n      tag_32\n      jumpi\n      0x0100\n      dup1\n      dup4\n      sload\n      div\n      mul\n      dup4\n      mstore\n      swap2\n      0x20\n      add\n      swap2\n      jump(tag_31)\n    tag_32:\n      dup3\n      add\n      swap2\n      swap1\n      0x00\n      mstore\n      keccak256(0x00, 0x20)\n      swap1\n    tag_33:\n      dup2\n      sload\n      dup2\n      mstore\n      swap1\n      0x01\n      add\n      swap1\n      0x20\n      add\n      dup1\n      dup4\n      gt\n      tag_33\n      jumpi\n      dup3\n      swap1\n      sub\n      0x1f\n      and\n      dup3\n      add\n      swap2\n    tag_31:\n      pop\n      pop\n      pop\n      pop\n      pop\n      dup2\n      mstore\n      pop\n      pop\n      dup2\n      mstore\n      0x20\n      add\n      swap1\n      0x01\n      add\n      swap1\n      jump(tag_25)\n    tag_26:\n      pop\n      pop\n      pop\n      pop\n      swap1\n      pop\n        /* \"array.sol\":770:855  function getList() public view returns (Book[] memory) {\r... */\n      swap1\n      jump\t// out\n        /* \"array.sol\":650:762  function getFilterReadList(uint status) public view returns (Book memory) {\r... */\n    tag_17:\n        /* \"array.sol\":711:722  Book memory */\n      tag_34\n      tag_35\n      jump\t// in\n    tag_34:\n        /* \"array.sol\":742:746  book */\n      0x02\n        /* \"array.sol\":742:754  book[status] */\n      0x00\n        /* \"array.sol\":747:753  status */\n      dup4\n        /* \"array.sol\":742:754  book[status] */\n      dup2\n      mstore\n      0x20\n      add\n      swap1\n      dup2\n      mstore\n      0x20\n      add\n      0x00\n      keccak256\n        /* \"array.sol\":735:754  return book[status] */\n      mload(0x40)\n      dup1\n      0x40\n      add\n      0x40\n      mstore\n      swap1\n      dup2\n      0x00\n      dup3\n      add\n      sload\n      dup2\n      mstore\n      0x20\n      add\n      0x01\n      dup3\n      add\n      dup1\n      sload\n      tag_37\n      swap1\n      tag_29\n      jump\t// in\n    tag_37:\n      dup1\n      0x1f\n      add\n      0x20\n      dup1\n      swap2\n      div\n      mul\n      0x20\n      add\n      mload(0x40)\n      swap1\n      dup2\n      add\n      0x40\n      mstore\n      dup1\n      swap3\n      swap2\n      swap1\n      dup2\n      dup2\n      mstore\n      0x20\n      add\n      dup3\n      dup1\n      sload\n      tag_38\n      swap1\n      tag_29\n      jump\t// in\n    tag_38:\n      dup1\n      iszero\n      tag_39\n      jumpi\n      dup1\n      0x1f\n      lt\n      tag_40\n      jumpi\n      0x0100\n      dup1\n      dup4\n      sload\n      div\n      mul\n      dup4\n      mstore\n      swap2\n      0x20\n      add\n      swap2\n      jump(tag_39)\n    tag_40:\n      dup3\n      add\n      swap2\n      swap1\n      0x00\n      mstore\n      keccak256(0x00, 0x20)\n      swap1\n    tag_41:\n      dup2\n      sload\n      dup2\n      mstore\n      swap1\n      0x01\n      add\n      swap1\n      0x20\n      add\n      dup1\n      dup4\n      gt\n      tag_41\n      jumpi\n      dup3\n      swap1\n      sub\n      0x1f\n      and\n      dup3\n      add\n      swap2\n    tag_39:\n      pop\n      pop\n      pop\n      pop\n      pop\n      dup2\n      mstore\n      pop\n      pop\n      swap1\n      pop\n        /* \"array.sol\":650:762  function getFilterReadList(uint status) public view returns (Book memory) {\r... */\n      swap2\n      swap1\n      pop\n      jump\t// out\n    tag_23:\n      dup3\n      dup1\n      sload\n      tag_42\n      swap1\n      tag_29\n      jump\t// in\n    tag_42:\n      swap1\n      0x00\n      mstore\n      keccak256(0x00, 0x20)\n      swap1\n      0x1f\n      add\n      0x20\n      swap1\n      div\n      dup2\n      add\n      swap3\n      dup3\n      tag_44\n      jumpi\n      0x00\n      dup6\n      sstore\n      jump(tag_43)\n    tag_44:\n      dup3\n      0x1f\n      lt\n      tag_45\n      jumpi\n      dup1\n      mload\n      not(0xff)\n      and\n      dup4\n      dup1\n      add\n      or\n      dup6\n      sstore\n      jump(tag_43)\n    tag_45:\n      dup3\n      dup1\n      add\n      0x01\n      add\n      dup6\n      sstore\n      dup3\n      iszero\n      tag_43\n      jumpi\n      swap2\n      dup3\n      add\n    tag_46:\n      dup3\n      dup2\n      gt\n      iszero\n      tag_47\n      jumpi\n      dup3\n      mload\n      dup3\n      sstore\n      swap2\n      0x20\n      add\n      swap2\n      swap1\n      0x01\n      add\n      swap1\n      jump(tag_46)\n    tag_47:\n    tag_43:\n      pop\n      swap1\n      pop\n      tag_48\n      swap2\n      swap1\n      tag_49\n      jump\t// in\n    tag_48:\n      pop\n      swap1\n      jump\t// out\n    tag_35:\n      mload(0x40)\n      dup1\n      0x40\n      add\n      0x40\n      mstore\n      dup1\n      0x00\n      dup2\n      mstore\n      0x20\n      add\n      0x60\n      dup2\n      mstore\n      pop\n      swap1\n      jump\t// out\n    tag_49:\n    tag_50:\n      dup1\n      dup3\n      gt\n      iszero\n      tag_51\n      jumpi\n      0x00\n      dup2\n      0x00\n      swap1\n      sstore\n      pop\n      0x01\n      add\n      jump(tag_50)\n    tag_51:\n      pop\n      swap1\n      jump\t// out\n        /* \"#utility.yul\":7:419   */\n    tag_53:\n        /* \"#utility.yul\":85:90   */\n      0x00\n        /* \"#utility.yul\":110:176   */\n      tag_55\n        /* \"#utility.yul\":126:175   */\n      tag_56\n        /* \"#utility.yul\":168:174   */\n      dup5\n        /* \"#utility.yul\":126:175   */\n      tag_57\n      jump\t// in\n    tag_56:\n        /* \"#utility.yul\":110:176   */\n      tag_58\n      jump\t// in\n    tag_55:\n        /* \"#utility.yul\":101:176   */\n      swap1\n      pop\n        /* \"#utility.yul\":199:205   */\n      dup3\n        /* \"#utility.yul\":192:197   */\n      dup2\n        /* \"#utility.yul\":185:206   */\n      mstore\n        /* \"#utility.yul\":237:241   */\n      0x20\n        /* \"#utility.yul\":230:235   */\n      dup2\n        /* \"#utility.yul\":226:242   */\n      add\n        /* \"#utility.yul\":275:278   */\n      dup5\n        /* \"#utility.yul\":266:272   */\n      dup5\n        /* \"#utility.yul\":261:264   */\n      dup5\n        /* \"#utility.yul\":257:273   */\n      add\n        /* \"#utility.yul\":254:279   */\n      gt\n        /* \"#utility.yul\":251:363   */\n      iszero\n      tag_59\n      jumpi\n        /* \"#utility.yul\":282:361   */\n      tag_60\n      tag_61\n      jump\t// in\n    tag_60:\n        /* \"#utility.yul\":251:363   */\n    tag_59:\n        /* \"#utility.yul\":372:413   */\n      tag_62\n        /* \"#utility.yul\":406:412   */\n      dup5\n        /* \"#utility.yul\":401:404   */\n      dup3\n        /* \"#utility.yul\":396:399   */\n      dup6\n        /* \"#utility.yul\":372:413   */\n      tag_63\n      jump\t// in\n    tag_62:\n        /* \"#utility.yul\":91:419   */\n      pop\n        /* \"#utility.yul\":7:419   */\n      swap4\n      swap3\n      pop\n      pop\n      pop\n      jump\t// out\n        /* \"#utility.yul\":439:779   */\n    tag_64:\n        /* \"#utility.yul\":495:500   */\n      0x00\n        /* \"#utility.yul\":544:547   */\n      dup3\n        /* \"#utility.yul\":537:541   */\n      0x1f\n        /* \"#utility.yul\":529:535   */\n      dup4\n        /* \"#utility.yul\":525:542   */\n      add\n        /* \"#utility.yul\":521:548   */\n      slt\n        /* \"#utility.yul\":511:633   */\n      tag_66\n      jumpi\n        /* \"#utility.yul\":552:631   */\n      tag_67\n      tag_68\n      jump\t// in\n    tag_67:\n        /* \"#utility.yul\":511:633   */\n    tag_66:\n        /* \"#utility.yul\":669:675   */\n      dup2\n        /* \"#utility.yul\":656:676   */\n      calldataload\n        /* \"#utility.yul\":694:773   */\n      tag_69\n        /* \"#utility.yul\":769:772   */\n      dup5\n        /* \"#utility.yul\":761:767   */\n      dup3\n        /* \"#utility.yul\":754:758   */\n      0x20\n        /* \"#utility.yul\":746:752   */\n      dup7\n        /* \"#utility.yul\":742:759   */\n      add\n        /* \"#utility.yul\":694:773   */\n      tag_53\n      jump\t// in\n    tag_69:\n        /* \"#utility.yul\":685:773   */\n      swap2\n      pop\n        /* \"#utility.yul\":501:779   */\n      pop\n        /* \"#utility.yul\":439:779   */\n      swap3\n      swap2\n      pop\n      pop\n      jump\t// out\n        /* \"#utility.yul\":785:924   */\n    tag_70:\n        /* \"#utility.yul\":831:836   */\n      0x00\n        /* \"#utility.yul\":869:875   */\n      dup2\n        /* \"#utility.yul\":856:876   */\n      calldataload\n        /* \"#utility.yul\":847:876   */\n      swap1\n      pop\n        /* \"#utility.yul\":885:918   */\n      tag_72\n        /* \"#utility.yul\":912:917   */\n      dup2\n        /* \"#utility.yul\":885:918   */\n      tag_73\n      jump\t// in\n    tag_72:\n        /* \"#utility.yul\":785:924   */\n      swap3\n      swap2\n      pop\n      pop\n      jump\t// out\n        /* \"#utility.yul\":930:1439   */\n    tag_8:\n        /* \"#utility.yul\":999:1005   */\n      0x00\n        /* \"#utility.yul\":1048:1050   */\n      0x20\n        /* \"#utility.yul\":1036:1045   */\n      dup3\n        /* \"#utility.yul\":1027:1034   */\n      dup5\n        /* \"#utility.yul\":1023:1046   */\n      sub\n        /* \"#utility.yul\":1019:1051   */\n      slt\n        /* \"#utility.yul\":1016:1135   */\n      iszero\n      tag_75\n      jumpi\n        /* \"#utility.yul\":1054:1133   */\n      tag_76\n      tag_77\n      jump\t// in\n    tag_76:\n        /* \"#utility.yul\":1016:1135   */\n    tag_75:\n        /* \"#utility.yul\":1202:1203   */\n      0x00\n        /* \"#utility.yul\":1191:1200   */\n      dup3\n        /* \"#utility.yul\":1187:1204   */\n      add\n        /* \"#utility.yul\":1174:1205   */\n      calldataload\n        /* \"#utility.yul\":1232:1250   */\n      0xffffffffffffffff\n        /* \"#utility.yul\":1224:1230   */\n      dup2\n        /* \"#utility.yul\":1221:1251   */\n      gt\n        /* \"#utility.yul\":1218:1335   */\n      iszero\n      tag_78\n      jumpi\n        /* \"#utility.yul\":1254:1333   */\n      tag_79\n      tag_80\n      jump\t// in\n    tag_79:\n        /* \"#utility.yul\":1218:1335   */\n    tag_78:\n        /* \"#utility.yul\":1359:1422   */\n      tag_81\n        /* \"#utility.yul\":1414:1421   */\n      dup5\n        /* \"#utility.yul\":1405:1411   */\n      dup3\n        /* \"#utility.yul\":1394:1403   */\n      dup6\n        /* \"#utility.yul\":1390:1412   */\n      add\n        /* \"#utility.yul\":1359:1422   */\n      tag_64\n      jump\t// in\n    tag_81:\n        /* \"#utility.yul\":1349:1422   */\n      swap2\n      pop\n        /* \"#utility.yul\":1145:1432   */\n      pop\n        /* \"#utility.yul\":930:1439   */\n      swap3\n      swap2\n      pop\n      pop\n      jump\t// out\n        /* \"#utility.yul\":1445:1774   */\n    tag_16:\n        /* \"#utility.yul\":1504:1510   */\n      0x00\n        /* \"#utility.yul\":1553:1555   */\n      0x20\n        /* \"#utility.yul\":1541:1550   */\n      dup3\n        /* \"#utility.yul\":1532:1539   */\n      dup5\n        /* \"#utility.yul\":1528:1551   */\n      sub\n        /* \"#utility.yul\":1524:1556   */\n      slt\n        /* \"#utility.yul\":1521:1640   */\n      iszero\n      tag_83\n      jumpi\n        /* \"#utility.yul\":1559:1638   */\n      tag_84\n      tag_77\n      jump\t// in\n    tag_84:\n        /* \"#utility.yul\":1521:1640   */\n    tag_83:\n        /* \"#utility.yul\":1679:1680   */\n      0x00\n        /* \"#utility.yul\":1704:1757   */\n      tag_85\n        /* \"#utility.yul\":1749:1756   */\n      dup5\n        /* \"#utility.yul\":1740:1746   */\n      dup3\n        /* \"#utility.yul\":1729:1738   */\n      dup6\n        /* \"#utility.yul\":1725:1747   */\n      add\n        /* \"#utility.yul\":1704:1757   */\n      tag_70\n      jump\t// in\n    tag_85:\n        /* \"#utility.yul\":1694:1757   */\n      swap2\n      pop\n        /* \"#utility.yul\":1650:1767   */\n      pop\n        /* \"#utility.yul\":1445:1774   */\n      swap3\n      swap2\n      pop\n      pop\n      jump\t// out\n        /* \"#utility.yul\":1780:2012   */\n    tag_86:\n        /* \"#utility.yul\":1887:1897   */\n      0x00\n        /* \"#utility.yul\":1922:2006   */\n      tag_88\n        /* \"#utility.yul\":2002:2005   */\n      dup4\n        /* \"#utility.yul\":1994:2000   */\n      dup4\n        /* \"#utility.yul\":1922:2006   */\n      tag_89\n      jump\t// in\n    tag_88:\n        /* \"#utility.yul\":1908:2006   */\n      swap1\n      pop\n        /* \"#utility.yul\":1780:2012   */\n      swap3\n      swap2\n      pop\n      pop\n      jump\t// out\n        /* \"#utility.yul\":2076:3139   */\n    tag_90:\n        /* \"#utility.yul\":2233:2236   */\n      0x00\n        /* \"#utility.yul\":2262:2335   */\n      tag_92\n        /* \"#utility.yul\":2329:2334   */\n      dup3\n        /* \"#utility.yul\":2262:2335   */\n      tag_93\n      jump\t// in\n    tag_92:\n        /* \"#utility.yul\":2351:2456   */\n      tag_94\n        /* \"#utility.yul\":2449:2455   */\n      dup2\n        /* \"#utility.yul\":2444:2447   */\n      dup6\n        /* \"#utility.yul\":2351:2456   */\n      tag_95\n      jump\t// in\n    tag_94:\n        /* \"#utility.yul\":2344:2456   */\n      swap4\n      pop\n        /* \"#utility.yul\":2482:2485   */\n      dup4\n        /* \"#utility.yul\":2527:2531   */\n      0x20\n        /* \"#utility.yul\":2519:2525   */\n      dup3\n        /* \"#utility.yul\":2515:2532   */\n      mul\n        /* \"#utility.yul\":2510:2513   */\n      dup6\n        /* \"#utility.yul\":2506:2533   */\n      add\n        /* \"#utility.yul\":2557:2632   */\n      tag_96\n        /* \"#utility.yul\":2626:2631   */\n      dup6\n        /* \"#utility.yul\":2557:2632   */\n      tag_97\n      jump\t// in\n    tag_96:\n        /* \"#utility.yul\":2655:2662   */\n      dup1\n        /* \"#utility.yul\":2686:2687   */\n      0x00\n        /* \"#utility.yul\":2671:3094   */\n    tag_98:\n        /* \"#utility.yul\":2696:2702   */\n      dup6\n        /* \"#utility.yul\":2693:2694   */\n      dup2\n        /* \"#utility.yul\":2690:2703   */\n      lt\n        /* \"#utility.yul\":2671:3094   */\n      iszero\n      tag_100\n      jumpi\n        /* \"#utility.yul\":2767:2776   */\n      dup5\n        /* \"#utility.yul\":2761:2765   */\n      dup5\n        /* \"#utility.yul\":2757:2777   */\n      sub\n        /* \"#utility.yul\":2752:2755   */\n      dup10\n        /* \"#utility.yul\":2745:2778   */\n      mstore\n        /* \"#utility.yul\":2818:2824   */\n      dup2\n        /* \"#utility.yul\":2812:2825   */\n      mload\n        /* \"#utility.yul\":2846:2948   */\n      tag_101\n        /* \"#utility.yul\":2943:2947   */\n      dup6\n        /* \"#utility.yul\":2928:2941   */\n      dup3\n        /* \"#utility.yul\":2846:2948   */\n      tag_86\n      jump\t// in\n    tag_101:\n        /* \"#utility.yul\":2838:2948   */\n      swap5\n      pop\n        /* \"#utility.yul\":2971:3050   */\n      tag_102\n        /* \"#utility.yul\":3043:3049   */\n      dup4\n        /* \"#utility.yul\":2971:3050   */\n      tag_103\n      jump\t// in\n    tag_102:\n        /* \"#utility.yul\":2961:3050   */\n      swap3\n      pop\n        /* \"#utility.yul\":3079:3083   */\n      0x20\n        /* \"#utility.yul\":3074:3077   */\n      dup11\n        /* \"#utility.yul\":3070:3084   */\n      add\n        /* \"#utility.yul\":3063:3084   */\n      swap10\n      pop\n        /* \"#utility.yul\":2731:3094   */\n      pop\n        /* \"#utility.yul\":2718:2719   */\n      0x01\n        /* \"#utility.yul\":2715:2716   */\n      dup2\n        /* \"#utility.yul\":2711:2720   */\n      add\n        /* \"#utility.yul\":2706:2720   */\n      swap1\n      pop\n        /* \"#utility.yul\":2671:3094   */\n      jump(tag_98)\n    tag_100:\n        /* \"#utility.yul\":2675:2689   */\n      pop\n        /* \"#utility.yul\":3110:3114   */\n      dup3\n        /* \"#utility.yul\":3103:3114   */\n      swap8\n      pop\n        /* \"#utility.yul\":3130:3133   */\n      dup8\n        /* \"#utility.yul\":3123:3133   */\n      swap6\n      pop\n        /* \"#utility.yul\":2238:3139   */\n      pop\n      pop\n      pop\n      pop\n      pop\n        /* \"#utility.yul\":2076:3139   */\n      swap3\n      swap2\n      pop\n      pop\n      jump\t// out\n        /* \"#utility.yul\":3145:3489   */\n    tag_104:\n        /* \"#utility.yul\":3223:3226   */\n      0x00\n        /* \"#utility.yul\":3251:3290   */\n      tag_106\n        /* \"#utility.yul\":3284:3289   */\n      dup3\n        /* \"#utility.yul\":3251:3290   */\n      tag_107\n      jump\t// in\n    tag_106:\n        /* \"#utility.yul\":3306:3367   */\n      tag_108\n        /* \"#utility.yul\":3360:3366   */\n      dup2\n        /* \"#utility.yul\":3355:3358   */\n      dup6\n        /* \"#utility.yul\":3306:3367   */\n      tag_109\n      jump\t// in\n    tag_108:\n        /* \"#utility.yul\":3299:3367   */\n      swap4\n      pop\n        /* \"#utility.yul\":3376:3428   */\n      tag_110\n        /* \"#utility.yul\":3421:3427   */\n      dup2\n        /* \"#utility.yul\":3416:3419   */\n      dup6\n        /* \"#utility.yul\":3409:3413   */\n      0x20\n        /* \"#utility.yul\":3402:3407   */\n      dup7\n        /* \"#utility.yul\":3398:3414   */\n      add\n        /* \"#utility.yul\":3376:3428   */\n      tag_111\n      jump\t// in\n    tag_110:\n        /* \"#utility.yul\":3453:3482   */\n      tag_112\n        /* \"#utility.yul\":3475:3481   */\n      dup2\n        /* \"#utility.yul\":3453:3482   */\n      tag_113\n      jump\t// in\n    tag_112:\n        /* \"#utility.yul\":3448:3451   */\n      dup5\n        /* \"#utility.yul\":3444:3483   */\n      add\n        /* \"#utility.yul\":3437:3483   */\n      swap2\n      pop\n        /* \"#utility.yul\":3227:3489   */\n      pop\n        /* \"#utility.yul\":3145:3489   */\n      swap3\n      swap2\n      pop\n      pop\n      jump\t// out\n        /* \"#utility.yul\":3549:4139   */\n    tag_89:\n        /* \"#utility.yul\":3646:3649   */\n      0x00\n        /* \"#utility.yul\":3682:3686   */\n      0x40\n        /* \"#utility.yul\":3677:3680   */\n      dup4\n        /* \"#utility.yul\":3673:3687   */\n      add\n        /* \"#utility.yul\":3771:3775   */\n      0x00\n        /* \"#utility.yul\":3764:3769   */\n      dup4\n        /* \"#utility.yul\":3760:3776   */\n      add\n        /* \"#utility.yul\":3754:3777   */\n      mload\n        /* \"#utility.yul\":3790:3853   */\n      tag_115\n        /* \"#utility.yul\":3847:3851   */\n      0x00\n        /* \"#utility.yul\":3842:3845   */\n      dup7\n        /* \"#utility.yul\":3838:3852   */\n      add\n        /* \"#utility.yul\":3824:3836   */\n      dup3\n        /* \"#utility.yul\":3790:3853   */\n      tag_116\n      jump\t// in\n    tag_115:\n        /* \"#utility.yul\":3697:3863   */\n      pop\n        /* \"#utility.yul\":3949:3953   */\n      0x20\n        /* \"#utility.yul\":3942:3947   */\n      dup4\n        /* \"#utility.yul\":3938:3954   */\n      add\n        /* \"#utility.yul\":3932:3955   */\n      mload\n        /* \"#utility.yul\":4002:4005   */\n      dup5\n        /* \"#utility.yul\":3996:4000   */\n      dup3\n        /* \"#utility.yul\":3992:4006   */\n      sub\n        /* \"#utility.yul\":3985:3989   */\n      0x20\n        /* \"#utility.yul\":3980:3983   */\n      dup7\n        /* \"#utility.yul\":3976:3990   */\n      add\n        /* \"#utility.yul\":3969:4007   */\n      mstore\n        /* \"#utility.yul\":4028:4101   */\n      tag_117\n        /* \"#utility.yul\":4096:4100   */\n      dup3\n        /* \"#utility.yul\":4082:4094   */\n      dup3\n        /* \"#utility.yul\":4028:4101   */\n      tag_104\n      jump\t// in\n    tag_117:\n        /* \"#utility.yul\":4020:4101   */\n      swap2\n      pop\n        /* \"#utility.yul\":3873:4112   */\n      pop\n        /* \"#utility.yul\":4129:4133   */\n      dup1\n        /* \"#utility.yul\":4122:4133   */\n      swap2\n      pop\n        /* \"#utility.yul\":3651:4139   */\n      pop\n        /* \"#utility.yul\":3549:4139   */\n      swap3\n      swap2\n      pop\n      pop\n      jump\t// out\n        /* \"#utility.yul\":4199:4799   */\n    tag_118:\n        /* \"#utility.yul\":4306:4309   */\n      0x00\n        /* \"#utility.yul\":4342:4346   */\n      0x40\n        /* \"#utility.yul\":4337:4340   */\n      dup4\n        /* \"#utility.yul\":4333:4347   */\n      add\n        /* \"#utility.yul\":4431:4435   */\n      0x00\n        /* \"#utility.yul\":4424:4429   */\n      dup4\n        /* \"#utility.yul\":4420:4436   */\n      add\n        /* \"#utility.yul\":4414:4437   */\n      mload\n        /* \"#utility.yul\":4450:4513   */\n      tag_120\n        /* \"#utility.yul\":4507:4511   */\n      0x00\n        /* \"#utility.yul\":4502:4505   */\n      dup7\n        /* \"#utility.yul\":4498:4512   */\n      add\n        /* \"#utility.yul\":4484:4496   */\n      dup3\n        /* \"#utility.yul\":4450:4513   */\n      tag_116\n      jump\t// in\n    tag_120:\n        /* \"#utility.yul\":4357:4523   */\n      pop\n        /* \"#utility.yul\":4609:4613   */\n      0x20\n        /* \"#utility.yul\":4602:4607   */\n      dup4\n        /* \"#utility.yul\":4598:4614   */\n      add\n        /* \"#utility.yul\":4592:4615   */\n      mload\n        /* \"#utility.yul\":4662:4665   */\n      dup5\n        /* \"#utility.yul\":4656:4660   */\n      dup3\n        /* \"#utility.yul\":4652:4666   */\n      sub\n        /* \"#utility.yul\":4645:4649   */\n      0x20\n        /* \"#utility.yul\":4640:4643   */\n      dup7\n        /* \"#utility.yul\":4636:4650   */\n      add\n        /* \"#utility.yul\":4629:4667   */\n      mstore\n        /* \"#utility.yul\":4688:4761   */\n      tag_121\n        /* \"#utility.yul\":4756:4760   */\n      dup3\n        /* \"#utility.yul\":4742:4754   */\n      dup3\n        /* \"#utility.yul\":4688:4761   */\n      tag_104\n      jump\t// in\n    tag_121:\n        /* \"#utility.yul\":4680:4761   */\n      swap2\n      pop\n        /* \"#utility.yul\":4533:4772   */\n      pop\n        /* \"#utility.yul\":4789:4793   */\n      dup1\n        /* \"#utility.yul\":4782:4793   */\n      swap2\n      pop\n        /* \"#utility.yul\":4311:4799   */\n      pop\n        /* \"#utility.yul\":4199:4799   */\n      swap3\n      swap2\n      pop\n      pop\n      jump\t// out\n        /* \"#utility.yul\":4805:4913   */\n    tag_116:\n        /* \"#utility.yul\":4882:4906   */\n      tag_123\n        /* \"#utility.yul\":4900:4905   */\n      dup2\n        /* \"#utility.yul\":4882:4906   */\n      tag_124\n      jump\t// in\n    tag_123:\n        /* \"#utility.yul\":4877:4880   */\n      dup3\n        /* \"#utility.yul\":4870:4907   */\n      mstore\n        /* \"#utility.yul\":4805:4913   */\n      pop\n      pop\n      jump\t// out\n        /* \"#utility.yul\":4919:5368   */\n    tag_13:\n        /* \"#utility.yul\":5100:5104   */\n      0x00\n        /* \"#utility.yul\":5138:5140   */\n      0x20\n        /* \"#utility.yul\":5127:5136   */\n      dup3\n        /* \"#utility.yul\":5123:5141   */\n      add\n        /* \"#utility.yul\":5115:5141   */\n      swap1\n      pop\n        /* \"#utility.yul\":5187:5196   */\n      dup2\n        /* \"#utility.yul\":5181:5185   */\n      dup2\n        /* \"#utility.yul\":5177:5197   */\n      sub\n        /* \"#utility.yul\":5173:5174   */\n      0x00\n        /* \"#utility.yul\":5162:5171   */\n      dup4\n        /* \"#utility.yul\":5158:5175   */\n      add\n        /* \"#utility.yul\":5151:5198   */\n      mstore\n        /* \"#utility.yul\":5215:5361   */\n      tag_126\n        /* \"#utility.yul\":5356:5360   */\n      dup2\n        /* \"#utility.yul\":5347:5353   */\n      dup5\n        /* \"#utility.yul\":5215:5361   */\n      tag_90\n      jump\t// in\n    tag_126:\n        /* \"#utility.yul\":5207:5361   */\n      swap1\n      pop\n        /* \"#utility.yul\":4919:5368   */\n      swap3\n      swap2\n      pop\n      pop\n      jump\t// out\n        /* \"#utility.yul\":5374:5723   */\n    tag_19:\n        /* \"#utility.yul\":5505:5509   */\n      0x00\n        /* \"#utility.yul\":5543:5545   */\n      0x20\n        /* \"#utility.yul\":5532:5541   */\n      dup3\n        /* \"#utility.yul\":5528:5546   */\n      add\n        /* \"#utility.yul\":5520:5546   */\n      swap1\n      pop\n        /* \"#utility.yul\":5592:5601   */\n      dup2\n        /* \"#utility.yul\":5586:5590   */\n      dup2\n        /* \"#utility.yul\":5582:5602   */\n      sub\n        /* \"#utility.yul\":5578:5579   */\n      0x00\n        /* \"#utility.yul\":5567:5576   */\n      dup4\n        /* \"#utility.yul\":5563:5580   */\n      add\n        /* \"#utility.yul\":5556:5603   */\n      mstore\n        /* \"#utility.yul\":5620:5716   */\n      tag_128\n        /* \"#utility.yul\":5711:5715   */\n      dup2\n        /* \"#utility.yul\":5702:5708   */\n      dup5\n        /* \"#utility.yul\":5620:5716   */\n      tag_118\n      jump\t// in\n    tag_128:\n        /* \"#utility.yul\":5612:5716   */\n      swap1\n      pop\n        /* \"#utility.yul\":5374:5723   */\n      swap3\n      swap2\n      pop\n      pop\n      jump\t// out\n        /* \"#utility.yul\":5729:5858   */\n    tag_58:\n        /* \"#utility.yul\":5763:5769   */\n      0x00\n        /* \"#utility.yul\":5790:5810   */\n      tag_130\n      tag_131\n      jump\t// in\n    tag_130:\n        /* \"#utility.yul\":5780:5810   */\n      swap1\n      pop\n        /* \"#utility.yul\":5819:5852   */\n      tag_132\n        /* \"#utility.yul\":5847:5851   */\n      dup3\n        /* \"#utility.yul\":5839:5845   */\n      dup3\n        /* \"#utility.yul\":5819:5852   */\n      tag_133\n      jump\t// in\n    tag_132:\n        /* \"#utility.yul\":5729:5858   */\n      swap2\n      swap1\n      pop\n      jump\t// out\n        /* \"#utility.yul\":5864:5939   */\n    tag_131:\n        /* \"#utility.yul\":5897:5903   */\n      0x00\n        /* \"#utility.yul\":5930:5932   */\n      0x40\n        /* \"#utility.yul\":5924:5933   */\n      mload\n        /* \"#utility.yul\":5914:5933   */\n      swap1\n      pop\n        /* \"#utility.yul\":5864:5939   */\n      swap1\n      jump\t// out\n        /* \"#utility.yul\":5945:6253   */\n    tag_57:\n        /* \"#utility.yul\":6007:6011   */\n      0x00\n        /* \"#utility.yul\":6097:6115   */\n      0xffffffffffffffff\n        /* \"#utility.yul\":6089:6095   */\n      dup3\n        /* \"#utility.yul\":6086:6116   */\n      gt\n        /* \"#utility.yul\":6083:6139   */\n      iszero\n      tag_136\n      jumpi\n        /* \"#utility.yul\":6119:6137   */\n      tag_137\n      tag_138\n      jump\t// in\n    tag_137:\n        /* \"#utility.yul\":6083:6139   */\n    tag_136:\n        /* \"#utility.yul\":6157:6186   */\n      tag_139\n        /* \"#utility.yul\":6179:6185   */\n      dup3\n        /* \"#utility.yul\":6157:6186   */\n      tag_113\n      jump\t// in\n    tag_139:\n        /* \"#utility.yul\":6149:6186   */\n      swap1\n      pop\n        /* \"#utility.yul\":6241:6245   */\n      0x20\n        /* \"#utility.yul\":6235:6239   */\n      dup2\n        /* \"#utility.yul\":6231:6246   */\n      add\n        /* \"#utility.yul\":6223:6246   */\n      swap1\n      pop\n        /* \"#utility.yul\":5945:6253   */\n      swap2\n      swap1\n      pop\n      jump\t// out\n        /* \"#utility.yul\":6259:6410   */\n    tag_97:\n        /* \"#utility.yul\":6345:6349   */\n      0x00\n        /* \"#utility.yul\":6368:6371   */\n      dup2\n        /* \"#utility.yul\":6360:6371   */\n      swap1\n      pop\n        /* \"#utility.yul\":6398:6402   */\n      0x20\n        /* \"#utility.yul\":6393:6396   */\n      dup3\n        /* \"#utility.yul\":6389:6403   */\n      add\n        /* \"#utility.yul\":6381:6403   */\n      swap1\n      pop\n        /* \"#utility.yul\":6259:6410   */\n      swap2\n      swap1\n      pop\n      jump\t// out\n        /* \"#utility.yul\":6416:6549   */\n    tag_93:\n        /* \"#utility.yul\":6502:6508   */\n      0x00\n        /* \"#utility.yul\":6536:6541   */\n      dup2\n        /* \"#utility.yul\":6530:6542   */\n      mload\n        /* \"#utility.yul\":6520:6542   */\n      swap1\n      pop\n        /* \"#utility.yul\":6416:6549   */\n      swap2\n      swap1\n      pop\n      jump\t// out\n        /* \"#utility.yul\":6555:6654   */\n    tag_107:\n        /* \"#utility.yul\":6607:6613   */\n      0x00\n        /* \"#utility.yul\":6641:6646   */\n      dup2\n        /* \"#utility.yul\":6635:6647   */\n      mload\n        /* \"#utility.yul\":6625:6647   */\n      swap1\n      pop\n        /* \"#utility.yul\":6555:6654   */\n      swap2\n      swap1\n      pop\n      jump\t// out\n        /* \"#utility.yul\":6660:6792   */\n    tag_103:\n        /* \"#utility.yul\":6749:6753   */\n      0x00\n        /* \"#utility.yul\":6781:6785   */\n      0x20\n        /* \"#utility.yul\":6776:6779   */\n      dup3\n        /* \"#utility.yul\":6772:6786   */\n      add\n        /* \"#utility.yul\":6764:6786   */\n      swap1\n      pop\n        /* \"#utility.yul\":6660:6792   */\n      swap2\n      swap1\n      pop\n      jump\t// out\n        /* \"#utility.yul\":6798:7001   */\n    tag_95:\n        /* \"#utility.yul\":6916:6927   */\n      0x00\n        /* \"#utility.yul\":6950:6956   */\n      dup3\n        /* \"#utility.yul\":6945:6948   */\n      dup3\n        /* \"#utility.yul\":6938:6957   */\n      mstore\n        /* \"#utility.yul\":6990:6994   */\n      0x20\n        /* \"#utility.yul\":6985:6988   */\n      dup3\n        /* \"#utility.yul\":6981:6995   */\n      add\n        /* \"#utility.yul\":6966:6995   */\n      swap1\n      pop\n        /* \"#utility.yul\":6798:7001   */\n      swap3\n      swap2\n      pop\n      pop\n      jump\t// out\n        /* \"#utility.yul\":7007:7166   */\n    tag_109:\n        /* \"#utility.yul\":7081:7092   */\n      0x00\n        /* \"#utility.yul\":7115:7121   */\n      dup3\n        /* \"#utility.yul\":7110:7113   */\n      dup3\n        /* \"#utility.yul\":7103:7122   */\n      mstore\n        /* \"#utility.yul\":7155:7159   */\n      0x20\n        /* \"#utility.yul\":7150:7153   */\n      dup3\n        /* \"#utility.yul\":7146:7160   */\n      add\n        /* \"#utility.yul\":7131:7160   */\n      swap1\n      pop\n        /* \"#utility.yul\":7007:7166   */\n      swap3\n      swap2\n      pop\n      pop\n      jump\t// out\n        /* \"#utility.yul\":7172:7249   */\n    tag_124:\n        /* \"#utility.yul\":7209:7216   */\n      0x00\n        /* \"#utility.yul\":7238:7243   */\n      dup2\n        /* \"#utility.yul\":7227:7243   */\n      swap1\n      pop\n        /* \"#utility.yul\":7172:7249   */\n      swap2\n      swap1\n      pop\n      jump\t// out\n        /* \"#utility.yul\":7255:7409   */\n    tag_63:\n        /* \"#utility.yul\":7339:7345   */\n      dup3\n        /* \"#utility.yul\":7334:7337   */\n      dup2\n        /* \"#utility.yul\":7329:7332   */\n      dup4\n        /* \"#utility.yul\":7316:7346   */\n      calldatacopy\n        /* \"#utility.yul\":7401:7402   */\n      0x00\n        /* \"#utility.yul\":7392:7398   */\n      dup4\n        /* \"#utility.yul\":7387:7390   */\n      dup4\n        /* \"#utility.yul\":7383:7399   */\n      add\n        /* \"#utility.yul\":7376:7403   */\n      mstore\n        /* \"#utility.yul\":7255:7409   */\n      pop\n      pop\n      pop\n      jump\t// out\n        /* \"#utility.yul\":7415:7722   */\n    tag_111:\n        /* \"#utility.yul\":7483:7484   */\n      0x00\n        /* \"#utility.yul\":7493:7606   */\n    tag_149:\n        /* \"#utility.yul\":7507:7513   */\n      dup4\n        /* \"#utility.yul\":7504:7505   */\n      dup2\n        /* \"#utility.yul\":7501:7514   */\n      lt\n        /* \"#utility.yul\":7493:7606   */\n      iszero\n      tag_151\n      jumpi\n        /* \"#utility.yul\":7592:7593   */\n      dup1\n        /* \"#utility.yul\":7587:7590   */\n      dup3\n        /* \"#utility.yul\":7583:7594   */\n      add\n        /* \"#utility.yul\":7577:7595   */\n      mload\n        /* \"#utility.yul\":7573:7574   */\n      dup2\n        /* \"#utility.yul\":7568:7571   */\n      dup5\n        /* \"#utility.yul\":7564:7575   */\n      add\n        /* \"#utility.yul\":7557:7596   */\n      mstore\n        /* \"#utility.yul\":7529:7531   */\n      0x20\n        /* \"#utility.yul\":7526:7527   */\n      dup2\n        /* \"#utility.yul\":7522:7532   */\n      add\n        /* \"#utility.yul\":7517:7532   */\n      swap1\n      pop\n        /* \"#utility.yul\":7493:7606   */\n      jump(tag_149)\n    tag_151:\n        /* \"#utility.yul\":7624:7630   */\n      dup4\n        /* \"#utility.yul\":7621:7622   */\n      dup2\n        /* \"#utility.yul\":7618:7631   */\n      gt\n        /* \"#utility.yul\":7615:7716   */\n      iszero\n      tag_152\n      jumpi\n        /* \"#utility.yul\":7704:7705   */\n      0x00\n        /* \"#utility.yul\":7695:7701   */\n      dup5\n        /* \"#utility.yul\":7690:7693   */\n      dup5\n        /* \"#utility.yul\":7686:7702   */\n      add\n        /* \"#utility.yul\":7679:7706   */\n      mstore\n        /* \"#utility.yul\":7615:7716   */\n    tag_152:\n        /* \"#utility.yul\":7464:7722   */\n      pop\n        /* \"#utility.yul\":7415:7722   */\n      pop\n      pop\n      pop\n      jump\t// out\n        /* \"#utility.yul\":7728:8048   */\n    tag_29:\n        /* \"#utility.yul\":7772:7778   */\n      0x00\n        /* \"#utility.yul\":7809:7810   */\n      0x02\n        /* \"#utility.yul\":7803:7807   */\n      dup3\n        /* \"#utility.yul\":7799:7811   */\n      div\n        /* \"#utility.yul\":7789:7811   */\n      swap1\n      pop\n        /* \"#utility.yul\":7856:7857   */\n      0x01\n        /* \"#utility.yul\":7850:7854   */\n      dup3\n        /* \"#utility.yul\":7846:7858   */\n      and\n        /* \"#utility.yul\":7877:7895   */\n      dup1\n        /* \"#utility.yul\":7867:7948   */\n      tag_154\n      jumpi\n        /* \"#utility.yul\":7933:7937   */\n      0x7f\n        /* \"#utility.yul\":7925:7931   */\n      dup3\n        /* \"#utility.yul\":7921:7938   */\n      and\n        /* \"#utility.yul\":7911:7938   */\n      swap2\n      pop\n        /* \"#utility.yul\":7867:7948   */\n    tag_154:\n        /* \"#utility.yul\":7995:7997   */\n      0x20\n        /* \"#utility.yul\":7987:7993   */\n      dup3\n        /* \"#utility.yul\":7984:7998   */\n      lt\n        /* \"#utility.yul\":7964:7982   */\n      dup2\n        /* \"#utility.yul\":7961:7999   */\n      eq\n        /* \"#utility.yul\":7958:8042   */\n      iszero\n      tag_155\n      jumpi\n        /* \"#utility.yul\":8014:8032   */\n      tag_156\n      tag_157\n      jump\t// in\n    tag_156:\n        /* \"#utility.yul\":7958:8042   */\n    tag_155:\n        /* \"#utility.yul\":7779:8048   */\n      pop\n        /* \"#utility.yul\":7728:8048   */\n      swap2\n      swap1\n      pop\n      jump\t// out\n        /* \"#utility.yul\":8054:8335   */\n    tag_133:\n        /* \"#utility.yul\":8137:8164   */\n      tag_159\n        /* \"#utility.yul\":8159:8163   */\n      dup3\n        /* \"#utility.yul\":8137:8164   */\n      tag_113\n      jump\t// in\n    tag_159:\n        /* \"#utility.yul\":8129:8135   */\n      dup2\n        /* \"#utility.yul\":8125:8165   */\n      add\n        /* \"#utility.yul\":8267:8273   */\n      dup2\n        /* \"#utility.yul\":8255:8265   */\n      dup2\n        /* \"#utility.yul\":8252:8274   */\n      lt\n        /* \"#utility.yul\":8231:8249   */\n      0xffffffffffffffff\n        /* \"#utility.yul\":8219:8229   */\n      dup3\n        /* \"#utility.yul\":8216:8250   */\n      gt\n        /* \"#utility.yul\":8213:8275   */\n      or\n        /* \"#utility.yul\":8210:8298   */\n      iszero\n      tag_160\n      jumpi\n        /* \"#utility.yul\":8278:8296   */\n      tag_161\n      tag_138\n      jump\t// in\n    tag_161:\n        /* \"#utility.yul\":8210:8298   */\n    tag_160:\n        /* \"#utility.yul\":8318:8328   */\n      dup1\n        /* \"#utility.yul\":8314:8316   */\n      0x40\n        /* \"#utility.yul\":8307:8329   */\n      mstore\n        /* \"#utility.yul\":8097:8335   */\n      pop\n        /* \"#utility.yul\":8054:8335   */\n      pop\n      pop\n      jump\t// out\n        /* \"#utility.yul\":8341:8521   */\n    tag_157:\n        /* \"#utility.yul\":8389:8466   */\n      0x4e487b7100000000000000000000000000000000000000000000000000000000\n        /* \"#utility.yul\":8386:8387   */\n      0x00\n        /* \"#utility.yul\":8379:8467   */\n      mstore\n        /* \"#utility.yul\":8486:8490   */\n      0x22\n        /* \"#utility.yul\":8483:8484   */\n      0x04\n        /* \"#utility.yul\":8476:8491   */\n      mstore\n        /* \"#utility.yul\":8510:8514   */\n      0x24\n        /* \"#utility.yul\":8507:8508   */\n      0x00\n        /* \"#utility.yul\":8500:8515   */\n      revert\n        /* \"#utility.yul\":8527:8707   */\n    tag_138:\n        /* \"#utility.yul\":8575:8652   */\n      0x4e487b7100000000000000000000000000000000000000000000000000000000\n        /* \"#utility.yul\":8572:8573   */\n      0x00\n        /* \"#utility.yul\":8565:8653   */\n      mstore\n        /* \"#utility.yul\":8672:8676   */\n      0x41\n        /* \"#utility.yul\":8669:8670   */\n      0x04\n        /* \"#utility.yul\":8662:8677   */\n      mstore\n        /* \"#utility.yul\":8696:8700   */\n      0x24\n        /* \"#utility.yul\":8693:8694   */\n      0x00\n        /* \"#utility.yul\":8686:8701   */\n      revert\n        /* \"#utility.yul\":8713:8830   */\n    tag_68:\n        /* \"#utility.yul\":8822:8823   */\n      0x00\n        /* \"#utility.yul\":8819:8820   */\n      dup1\n        /* \"#utility.yul\":8812:8824   */\n      revert\n        /* \"#utility.yul\":8836:8953   */\n    tag_61:\n        /* \"#utility.yul\":8945:8946   */\n      0x00\n        /* \"#utility.yul\":8942:8943   */\n      dup1\n        /* \"#utility.yul\":8935:8947   */\n      revert\n        /* \"#utility.yul\":8959:9076   */\n    tag_80:\n        /* \"#utility.yul\":9068:9069   */\n      0x00\n        /* \"#utility.yul\":9065:9066   */\n      dup1\n        /* \"#utility.yul\":9058:9070   */\n      revert\n        /* \"#utility.yul\":9082:9199   */\n    tag_77:\n        /* \"#utility.yul\":9191:9192   */\n      0x00\n        /* \"#utility.yul\":9188:9189   */\n      dup1\n        /* \"#utility.yul\":9181:9193   */\n      revert\n        /* \"#utility.yul\":9205:9307   */\n    tag_113:\n        /* \"#utility.yul\":9246:9252   */\n      0x00\n        /* \"#utility.yul\":9297:9299   */\n      0x1f\n        /* \"#utility.yul\":9293:9300   */\n      not\n        /* \"#utility.yul\":9288:9290   */\n      0x1f\n        /* \"#utility.yul\":9281:9286   */\n      dup4\n        /* \"#utility.yul\":9277:9291   */\n      add\n        /* \"#utility.yul\":9273:9301   */\n      and\n        /* \"#utility.yul\":9263:9301   */\n      swap1\n      pop\n        /* \"#utility.yul\":9205:9307   */\n      swap2\n      swap1\n      pop\n      jump\t// out\n        /* \"#utility.yul\":9313:9435   */\n    tag_73:\n        /* \"#utility.yul\":9386:9410   */\n      tag_170\n        /* \"#utility.yul\":9404:9409   */\n      dup2\n        /* \"#utility.yul\":9386:9410   */\n      tag_124\n      jump\t// in\n    tag_170:\n        /* \"#utility.yul\":9379:9384   */\n      dup2\n        /* \"#utility.yul\":9376:9411   */\n      eq\n        /* \"#utility.yul\":9366:9429   */\n      tag_171\n      jumpi\n        /* \"#utility.yul\":9425:9426   */\n      0x00\n        /* \"#utility.yul\":9422:9423   */\n      dup1\n        /* \"#utility.yul\":9415:9427   */\n      revert\n        /* \"#utility.yul\":9366:9429   */\n    tag_171:\n        /* \"#utility.yul\":9313:9435   */\n      pop\n      jump\t// out\n\n    auxdata: 0xa264697066735822122024b4c9be3d5f72a3d5a27903564386936f67e494687602fc0afd94439e662c3764736f6c63430008070033\n}\n",
				"bytecode": {
					"linkReferences": {},
					"object": "6080604052600060015534801561001557600080fd5b50610852806100256000396000f3fe608060405234801561001057600080fd5b50600436106100415760003560e01c8063234c668614610046578063942b765a14610062578063b868ef5714610080575b600080fd5b610060600480360381019061005b9190610423565b6100b0565b005b61006a61011d565b60405161007791906105e4565b60405180910390f35b61009a6004803603810190610095919061046c565b610218565b6040516100a79190610606565b60405180910390f35b60006040518060400160405280600081526020018381525090806001815401808255809150506001900390600052602060002090600202016000909190919091506000820151816000015560208201518160010190805190602001906101179291906102e1565b50505050565b60606000805480602002602001604051908101604052809291908181526020016000905b8282101561020f57838290600052602060002090600202016040518060400160405290816000820154815260200160018201805461017e9061071f565b80601f01602080910402602001604051908101604052809291908181526020018280546101aa9061071f565b80156101f75780601f106101cc576101008083540402835291602001916101f7565b820191906000526020600020905b8154815290600101906020018083116101da57829003601f168201915b50505050508152505081526020019060010190610141565b50505050905090565b610220610367565b60026000838152602001908152602001600020604051806040016040529081600082015481526020016001820180546102589061071f565b80601f01602080910402602001604051908101604052809291908181526020018280546102849061071f565b80156102d15780601f106102a6576101008083540402835291602001916102d1565b820191906000526020600020905b8154815290600101906020018083116102b457829003601f168201915b5050505050815250509050919050565b8280546102ed9061071f565b90600052602060002090601f01602090048101928261030f5760008555610356565b82601f1061032857805160ff1916838001178555610356565b82800160010185558215610356579182015b8281111561035557825182559160200191906001019061033a565b5b5090506103639190610381565b5090565b604051806040016040528060008152602001606081525090565b5b8082111561039a576000816000905550600101610382565b5090565b60006103b16103ac8461064d565b610628565b9050828152602081018484840111156103cd576103cc6107e5565b5b6103d88482856106dd565b509392505050565b600082601f8301126103f5576103f46107e0565b5b813561040584826020860161039e565b91505092915050565b60008135905061041d81610805565b92915050565b600060208284031215610439576104386107ef565b5b600082013567ffffffffffffffff811115610457576104566107ea565b5b610463848285016103e0565b91505092915050565b600060208284031215610482576104816107ef565b5b60006104908482850161040e565b91505092915050565b60006104a5838361055b565b905092915050565b60006104b88261068e565b6104c281856106b1565b9350836020820285016104d48561067e565b8060005b8581101561051057848403895281516104f18582610499565b94506104fc836106a4565b925060208a019950506001810190506104d8565b50829750879550505050505092915050565b600061052d82610699565b61053781856106c2565b93506105478185602086016106ec565b610550816107f4565b840191505092915050565b600060408301600083015161057360008601826105d5565b506020830151848203602086015261058b8282610522565b9150508091505092915050565b60006040830160008301516105b060008601826105d5565b50602083015184820360208601526105c88282610522565b9150508091505092915050565b6105de816106d3565b82525050565b600060208201905081810360008301526105fe81846104ad565b905092915050565b600060208201905081810360008301526106208184610598565b905092915050565b6000610632610643565b905061063e8282610751565b919050565b6000604051905090565b600067ffffffffffffffff821115610668576106676107b1565b5b610671826107f4565b9050602081019050919050565b6000819050602082019050919050565b600081519050919050565b600081519050919050565b6000602082019050919050565b600082825260208201905092915050565b600082825260208201905092915050565b6000819050919050565b82818337600083830152505050565b60005b8381101561070a5780820151818401526020810190506106ef565b83811115610719576000848401525b50505050565b6000600282049050600182168061073757607f821691505b6020821081141561074b5761074a610782565b5b50919050565b61075a826107f4565b810181811067ffffffffffffffff82111715610779576107786107b1565b5b80604052505050565b7f4e487b7100000000000000000000000000000000000000000000000000000000600052602260045260246000fd5b7f4e487b7100000000000000000000000000000000000000000000000000000000600052604160045260246000fd5b600080fd5b600080fd5b600080fd5b600080fd5b6000601f19601f8301169050919050565b61080e816106d3565b811461081957600080fd5b5056fea264697066735822122024b4c9be3d5f72a3d5a27903564386936f67e494687602fc0afd94439e662c3764736f6c63430008070033",
					"opcodes": "PUSH1 0x80 PUSH1 0x40 MSTORE PUSH1 0x0 PUSH1 0x1 SSTORE CALLVALUE DUP1 ISZERO PUSH2 0x15 JUMPI PUSH1 0x0 DUP1 REVERT JUMPDEST POP PUSH2 0x852 DUP1 PUSH2 0x25 PUSH1 0x0 CODECOPY PUSH1 0x0 RETURN INVALID PUSH1 0x80 PUSH1 0x40 MSTORE CALLVALUE DUP1 ISZERO PUSH2 0x10 JUMPI PUSH1 0x0 DUP1 REVERT JUMPDEST POP PUSH1 0x4 CALLDATASIZE LT PUSH2 0x41 JUMPI PUSH1 0x0 CALLDATALOAD PUSH1 0xE0 SHR DUP1 PUSH4 0x234C6686 EQ PUSH2 0x46 JUMPI DUP1 PUSH4 0x942B765A EQ PUSH2 0x62 JUMPI DUP1 PUSH4 0xB868EF57 EQ PUSH2 0x80 JUMPI JUMPDEST PUSH1 0x0 DUP1 REVERT JUMPDEST PUSH2 0x60 PUSH1 0x4 DUP1 CALLDATASIZE SUB DUP2 ADD SWAP1 PUSH2 0x5B SWAP2 SWAP1 PUSH2 0x423 JUMP JUMPDEST PUSH2 0xB0 JUMP JUMPDEST STOP JUMPDEST PUSH2 0x6A PUSH2 0x11D JUMP JUMPDEST PUSH1 0x40 MLOAD PUSH2 0x77 SWAP2 SWAP1 PUSH2 0x5E4 JUMP JUMPDEST PUSH1 0x40 MLOAD DUP1 SWAP2 SUB SWAP1 RETURN JUMPDEST PUSH2 0x9A PUSH1 0x4 DUP1 CALLDATASIZE SUB DUP2 ADD SWAP1 PUSH2 0x95 SWAP2 SWAP1 PUSH2 0x46C JUMP JUMPDEST PUSH2 0x218 JUMP JUMPDEST PUSH1 0x40 MLOAD PUSH2 0xA7 SWAP2 SWAP1 PUSH2 0x606 JUMP JUMPDEST PUSH1 0x40 MLOAD DUP1 SWAP2 SUB SWAP1 RETURN JUMPDEST PUSH1 0x0 PUSH1 0x40 MLOAD DUP1 PUSH1 0x40 ADD PUSH1 0x40 MSTORE DUP1 PUSH1 0x0 DUP2 MSTORE PUSH1 0x20 ADD DUP4 DUP2 MSTORE POP SWAP1 DUP1 PUSH1 0x1 DUP2 SLOAD ADD DUP1 DUP3 SSTORE DUP1 SWAP2 POP POP PUSH1 0x1 SWAP1 SUB SWAP1 PUSH1 0x0 MSTORE PUSH1 0x20 PUSH1 0x0 KECCAK256 SWAP1 PUSH1 0x2 MUL ADD PUSH1 0x0 SWAP1 SWAP2 SWAP1 SWAP2 SWAP1 SWAP2 POP PUSH1 0x0 DUP3 ADD MLOAD DUP2 PUSH1 0x0 ADD SSTORE PUSH1 0x20 DUP3 ADD MLOAD DUP2 PUSH1 0x1 ADD SWAP1 DUP1 MLOAD SWAP1 PUSH1 0x20 ADD SWAP1 PUSH2 0x117 SWAP3 SWAP2 SWAP1 PUSH2 0x2E1 JUMP JUMPDEST POP POP POP POP JUMP JUMPDEST PUSH1 0x60 PUSH1 0x0 DUP1 SLOAD DUP1 PUSH1 0x20 MUL PUSH1 0x20 ADD PUSH1 0x40 MLOAD SWAP1 DUP2 ADD PUSH1 0x40 MSTORE DUP1 SWAP3 SWAP2 SWAP1 DUP2 DUP2 MSTORE PUSH1 0x20 ADD PUSH1 0x0 SWAP1 JUMPDEST DUP3 DUP3 LT ISZERO PUSH2 0x20F JUMPI DUP4 DUP3 SWAP1 PUSH1 0x0 MSTORE PUSH1 0x20 PUSH1 0x0 KECCAK256 SWAP1 PUSH1 0x2 MUL ADD PUSH1 0x40 MLOAD DUP1 PUSH1 0x40 ADD PUSH1 0x40 MSTORE SWAP1 DUP2 PUSH1 0x0 DUP3 ADD SLOAD DUP2 MSTORE PUSH1 0x20 ADD PUSH1 0x1 DUP3 ADD DUP1 SLOAD PUSH2 0x17E SWAP1 PUSH2 0x71F JUMP JUMPDEST DUP1 PUSH1 0x1F ADD PUSH1 0x20 DUP1 SWAP2 DIV MUL PUSH1 0x20 ADD PUSH1 0x40 MLOAD SWAP1 DUP2 ADD PUSH1 0x40 MSTORE DUP1 SWAP3 SWAP2 SWAP1 DUP2 DUP2 MSTORE PUSH1 0x20 ADD DUP3 DUP1 SLOAD PUSH2 0x1AA SWAP1 PUSH2 0x71F JUMP JUMPDEST DUP1 ISZERO PUSH2 0x1F7 JUMPI DUP1 PUSH1 0x1F LT PUSH2 0x1CC JUMPI PUSH2 0x100 DUP1 DUP4 SLOAD DIV MUL DUP4 MSTORE SWAP2 PUSH1 0x20 ADD SWAP2 PUSH2 0x1F7 JUMP JUMPDEST DUP3 ADD SWAP2 SWAP1 PUSH1 0x0 MSTORE PUSH1 0x20 PUSH1 0x0 KECCAK256 SWAP1 JUMPDEST DUP2 SLOAD DUP2 MSTORE SWAP1 PUSH1 0x1 ADD SWAP1 PUSH1 0x20 ADD DUP1 DUP4 GT PUSH2 0x1DA JUMPI DUP3 SWAP1 SUB PUSH1 0x1F AND DUP3 ADD SWAP2 JUMPDEST POP POP POP POP POP DUP2 MSTORE POP POP DUP2 MSTORE PUSH1 0x20 ADD SWAP1 PUSH1 0x1 ADD SWAP1 PUSH2 0x141 JUMP JUMPDEST POP POP POP POP SWAP1 POP SWAP1 JUMP JUMPDEST PUSH2 0x220 PUSH2 0x367 JUMP JUMPDEST PUSH1 0x2 PUSH1 0x0 DUP4 DUP2 MSTORE PUSH1 0x20 ADD SWAP1 DUP2 MSTORE PUSH1 0x20 ADD PUSH1 0x0 KECCAK256 PUSH1 0x40 MLOAD DUP1 PUSH1 0x40 ADD PUSH1 0x40 MSTORE SWAP1 DUP2 PUSH1 0x0 DUP3 ADD SLOAD DUP2 MSTORE PUSH1 0x20 ADD PUSH1 0x1 DUP3 ADD DUP1 SLOAD PUSH2 0x258 SWAP1 PUSH2 0x71F JUMP JUMPDEST DUP1 PUSH1 0x1F ADD PUSH1 0x20 DUP1 SWAP2 DIV MUL PUSH1 0x20 ADD PUSH1 0x40 MLOAD SWAP1 DUP2 ADD PUSH1 0x40 MSTORE DUP1 SWAP3 SWAP2 SWAP1 DUP2 DUP2 MSTORE PUSH1 0x20 ADD DUP3 DUP1 SLOAD PUSH2 0x284 SWAP1 PUSH2 0x71F JUMP JUMPDEST DUP1 ISZERO PUSH2 0x2D1 JUMPI DUP1 PUSH1 0x1F LT PUSH2 0x2A6 JUMPI PUSH2 0x100 DUP1 DUP4 SLOAD DIV MUL DUP4 MSTORE SWAP2 PUSH1 0x20 ADD SWAP2 PUSH2 0x2D1 JUMP JUMPDEST DUP3 ADD SWAP2 SWAP1 PUSH1 0x0 MSTORE PUSH1 0x20 PUSH1 0x0 KECCAK256 SWAP1 JUMPDEST DUP2 SLOAD DUP2 MSTORE SWAP1 PUSH1 0x1 ADD SWAP1 PUSH1 0x20 ADD DUP1 DUP4 GT PUSH2 0x2B4 JUMPI DUP3 SWAP1 SUB PUSH1 0x1F AND DUP3 ADD SWAP2 JUMPDEST POP POP POP POP POP DUP2 MSTORE POP POP SWAP1 POP SWAP2 SWAP1 POP JUMP JUMPDEST DUP3 DUP1 SLOAD PUSH2 0x2ED SWAP1 PUSH2 0x71F JUMP JUMPDEST SWAP1 PUSH1 0x0 MSTORE PUSH1 0x20 PUSH1 0x0 KECCAK256 SWAP1 PUSH1 0x1F ADD PUSH1 0x20 SWAP1 DIV DUP2 ADD SWAP3 DUP3 PUSH2 0x30F JUMPI PUSH1 0x0 DUP6 SSTORE PUSH2 0x356 JUMP JUMPDEST DUP3 PUSH1 0x1F LT PUSH2 0x328 JUMPI DUP1 MLOAD PUSH1 0xFF NOT AND DUP4 DUP1 ADD OR DUP6 SSTORE PUSH2 0x356 JUMP JUMPDEST DUP3 DUP1 ADD PUSH1 0x1 ADD DUP6 SSTORE DUP3 ISZERO PUSH2 0x356 JUMPI SWAP2 DUP3 ADD JUMPDEST DUP3 DUP2 GT ISZERO PUSH2 0x355 JUMPI DUP3 MLOAD DUP3 SSTORE SWAP2 PUSH1 0x20 ADD SWAP2 SWAP1 PUSH1 0x1 ADD SWAP1 PUSH2 0x33A JUMP JUMPDEST JUMPDEST POP SWAP1 POP PUSH2 0x363 SWAP2 SWAP1 PUSH2 0x381 JUMP JUMPDEST POP SWAP1 JUMP JUMPDEST PUSH1 0x40 MLOAD DUP1 PUSH1 0x40 ADD PUSH1 0x40 MSTORE DUP1 PUSH1 0x0 DUP2 MSTORE PUSH1 0x20 ADD PUSH1 0x60 DUP2 MSTORE POP SWAP1 JUMP JUMPDEST JUMPDEST DUP1 DUP3 GT ISZERO PUSH2 0x39A JUMPI PUSH1 0x0 DUP2 PUSH1 0x0 SWAP1 SSTORE POP PUSH1 0x1 ADD PUSH2 0x382 JUMP JUMPDEST POP SWAP1 JUMP JUMPDEST PUSH1 0x0 PUSH2 0x3B1 PUSH2 0x3AC DUP5 PUSH2 0x64D JUMP JUMPDEST PUSH2 0x628 JUMP JUMPDEST SWAP1 POP DUP3 DUP2 MSTORE PUSH1 0x20 DUP2 ADD DUP5 DUP5 DUP5 ADD GT ISZERO PUSH2 0x3CD JUMPI PUSH2 0x3CC PUSH2 0x7E5 JUMP JUMPDEST JUMPDEST PUSH2 0x3D8 DUP5 DUP3 DUP6 PUSH2 0x6DD JUMP JUMPDEST POP SWAP4 SWAP3 POP POP POP JUMP JUMPDEST PUSH1 0x0 DUP3 PUSH1 0x1F DUP4 ADD SLT PUSH2 0x3F5 JUMPI PUSH2 0x3F4 PUSH2 0x7E0 JUMP JUMPDEST JUMPDEST DUP2 CALLDATALOAD PUSH2 0x405 DUP5 DUP3 PUSH1 0x20 DUP7 ADD PUSH2 0x39E JUMP JUMPDEST SWAP2 POP POP SWAP3 SWAP2 POP POP JUMP JUMPDEST PUSH1 0x0 DUP2 CALLDATALOAD SWAP1 POP PUSH2 0x41D DUP2 PUSH2 0x805 JUMP JUMPDEST SWAP3 SWAP2 POP POP JUMP JUMPDEST PUSH1 0x0 PUSH1 0x20 DUP3 DUP5 SUB SLT ISZERO PUSH2 0x439 JUMPI PUSH2 0x438 PUSH2 0x7EF JUMP JUMPDEST JUMPDEST PUSH1 0x0 DUP3 ADD CALLDATALOAD PUSH8 0xFFFFFFFFFFFFFFFF DUP2 GT ISZERO PUSH2 0x457 JUMPI PUSH2 0x456 PUSH2 0x7EA JUMP JUMPDEST JUMPDEST PUSH2 0x463 DUP5 DUP3 DUP6 ADD PUSH2 0x3E0 JUMP JUMPDEST SWAP2 POP POP SWAP3 SWAP2 POP POP JUMP JUMPDEST PUSH1 0x0 PUSH1 0x20 DUP3 DUP5 SUB SLT ISZERO PUSH2 0x482 JUMPI PUSH2 0x481 PUSH2 0x7EF JUMP JUMPDEST JUMPDEST PUSH1 0x0 PUSH2 0x490 DUP5 DUP3 DUP6 ADD PUSH2 0x40E JUMP JUMPDEST SWAP2 POP POP SWAP3 SWAP2 POP POP JUMP JUMPDEST PUSH1 0x0 PUSH2 0x4A5 DUP4 DUP4 PUSH2 0x55B JUMP JUMPDEST SWAP1 POP SWAP3 SWAP2 POP POP JUMP JUMPDEST PUSH1 0x0 PUSH2 0x4B8 DUP3 PUSH2 0x68E JUMP JUMPDEST PUSH2 0x4C2 DUP2 DUP6 PUSH2 0x6B1 JUMP JUMPDEST SWAP4 POP DUP4 PUSH1 0x20 DUP3 MUL DUP6 ADD PUSH2 0x4D4 DUP6 PUSH2 0x67E JUMP JUMPDEST DUP1 PUSH1 0x0 JUMPDEST DUP6 DUP2 LT ISZERO PUSH2 0x510 JUMPI DUP5 DUP5 SUB DUP10 MSTORE DUP2 MLOAD PUSH2 0x4F1 DUP6 DUP3 PUSH2 0x499 JUMP JUMPDEST SWAP5 POP PUSH2 0x4FC DUP4 PUSH2 0x6A4 JUMP JUMPDEST SWAP3 POP PUSH1 0x20 DUP11 ADD SWAP10 POP POP PUSH1 0x1 DUP2 ADD SWAP1 POP PUSH2 0x4D8 JUMP JUMPDEST POP DUP3 SWAP8 POP DUP8 SWAP6 POP POP POP POP POP POP SWAP3 SWAP2 POP POP JUMP JUMPDEST PUSH1 0x0 PUSH2 0x52D DUP3 PUSH2 0x699 JUMP JUMPDEST PUSH2 0x537 DUP2 DUP6 PUSH2 0x6C2 JUMP JUMPDEST SWAP4 POP PUSH2 0x547 DUP2 DUP6 PUSH1 0x20 DUP7 ADD PUSH2 0x6EC JUMP JUMPDEST PUSH2 0x550 DUP2 PUSH2 0x7F4 JUMP JUMPDEST DUP5 ADD SWAP2 POP POP SWAP3 SWAP2 POP POP JUMP JUMPDEST PUSH1 0x0 PUSH1 0x40 DUP4 ADD PUSH1 0x0 DUP4 ADD MLOAD PUSH2 0x573 PUSH1 0x0 DUP7 ADD DUP3 PUSH2 0x5D5 JUMP JUMPDEST POP PUSH1 0x20 DUP4 ADD MLOAD DUP5 DUP3 SUB PUSH1 0x20 DUP7 ADD MSTORE PUSH2 0x58B DUP3 DUP3 PUSH2 0x522 JUMP JUMPDEST SWAP2 POP POP DUP1 SWAP2 POP POP SWAP3 SWAP2 POP POP JUMP JUMPDEST PUSH1 0x0 PUSH1 0x40 DUP4 ADD PUSH1 0x0 DUP4 ADD MLOAD PUSH2 0x5B0 PUSH1 0x0 DUP7 ADD DUP3 PUSH2 0x5D5 JUMP JUMPDEST POP PUSH1 0x20 DUP4 ADD MLOAD DUP5 DUP3 SUB PUSH1 0x20 DUP7 ADD MSTORE PUSH2 0x5C8 DUP3 DUP3 PUSH2 0x522 JUMP JUMPDEST SWAP2 POP POP DUP1 SWAP2 POP POP SWAP3 SWAP2 POP POP JUMP JUMPDEST PUSH2 0x5DE DUP2 PUSH2 0x6D3 JUMP JUMPDEST DUP3 MSTORE POP POP JUMP JUMPDEST PUSH1 0x0 PUSH1 0x20 DUP3 ADD SWAP1 POP DUP2 DUP2 SUB PUSH1 0x0 DUP4 ADD MSTORE PUSH2 0x5FE DUP2 DUP5 PUSH2 0x4AD JUMP JUMPDEST SWAP1 POP SWAP3 SWAP2 POP POP JUMP JUMPDEST PUSH1 0x0 PUSH1 0x20 DUP3 ADD SWAP1 POP DUP2 DUP2 SUB PUSH1 0x0 DUP4 ADD MSTORE PUSH2 0x620 DUP2 DUP5 PUSH2 0x598 JUMP JUMPDEST SWAP1 POP SWAP3 SWAP2 POP POP JUMP JUMPDEST PUSH1 0x0 PUSH2 0x632 PUSH2 0x643 JUMP JUMPDEST SWAP1 POP PUSH2 0x63E DUP3 DUP3 PUSH2 0x751 JUMP JUMPDEST SWAP2 SWAP1 POP JUMP JUMPDEST PUSH1 0x0 PUSH1 0x40 MLOAD SWAP1 POP SWAP1 JUMP JUMPDEST PUSH1 0x0 PUSH8 0xFFFFFFFFFFFFFFFF DUP3 GT ISZERO PUSH2 0x668 JUMPI PUSH2 0x667 PUSH2 0x7B1 JUMP JUMPDEST JUMPDEST PUSH2 0x671 DUP3 PUSH2 0x7F4 JUMP JUMPDEST SWAP1 POP PUSH1 0x20 DUP2 ADD SWAP1 POP SWAP2 SWAP1 POP JUMP JUMPDEST PUSH1 0x0 DUP2 SWAP1 POP PUSH1 0x20 DUP3 ADD SWAP1 POP SWAP2 SWAP1 POP JUMP JUMPDEST PUSH1 0x0 DUP2 MLOAD SWAP1 POP SWAP2 SWAP1 POP JUMP JUMPDEST PUSH1 0x0 DUP2 MLOAD SWAP1 POP SWAP2 SWAP1 POP JUMP JUMPDEST PUSH1 0x0 PUSH1 0x20 DUP3 ADD SWAP1 POP SWAP2 SWAP1 POP JUMP JUMPDEST PUSH1 0x0 DUP3 DUP3 MSTORE PUSH1 0x20 DUP3 ADD SWAP1 POP SWAP3 SWAP2 POP POP JUMP JUMPDEST PUSH1 0x0 DUP3 DUP3 MSTORE PUSH1 0x20 DUP3 ADD SWAP1 POP SWAP3 SWAP2 POP POP JUMP JUMPDEST PUSH1 0x0 DUP2 SWAP1 POP SWAP2 SWAP1 POP JUMP JUMPDEST DUP3 DUP2 DUP4 CALLDATACOPY PUSH1 0x0 DUP4 DUP4 ADD MSTORE POP POP POP JUMP JUMPDEST PUSH1 0x0 JUMPDEST DUP4 DUP2 LT ISZERO PUSH2 0x70A JUMPI DUP1 DUP3 ADD MLOAD DUP2 DUP5 ADD MSTORE PUSH1 0x20 DUP2 ADD SWAP1 POP PUSH2 0x6EF JUMP JUMPDEST DUP4 DUP2 GT ISZERO PUSH2 0x719 JUMPI PUSH1 0x0 DUP5 DUP5 ADD MSTORE JUMPDEST POP POP POP POP JUMP JUMPDEST PUSH1 0x0 PUSH1 0x2 DUP3 DIV SWAP1 POP PUSH1 0x1 DUP3 AND DUP1 PUSH2 0x737 JUMPI PUSH1 0x7F DUP3 AND SWAP2 POP JUMPDEST PUSH1 0x20 DUP3 LT DUP2 EQ ISZERO PUSH2 0x74B JUMPI PUSH2 0x74A PUSH2 0x782 JUMP JUMPDEST JUMPDEST POP SWAP2 SWAP1 POP JUMP JUMPDEST PUSH2 0x75A DUP3 PUSH2 0x7F4 JUMP JUMPDEST DUP2 ADD DUP2 DUP2 LT PUSH8 0xFFFFFFFFFFFFFFFF DUP3 GT OR ISZERO PUSH2 0x779 JUMPI PUSH2 0x778 PUSH2 0x7B1 JUMP JUMPDEST JUMPDEST DUP1 PUSH1 0x40 MSTORE POP POP POP JUMP JUMPDEST PUSH32 0x4E487B7100000000000000000000000000000000000000000000000000000000 PUSH1 0x0 MSTORE PUSH1 0x22 PUSH1 0x4 MSTORE PUSH1 0x24 PUSH1 0x0 REVERT JUMPDEST PUSH32 0x4E487B7100000000000000000000000000000000000000000000000000000000 PUSH1 0x0 MSTORE PUSH1 0x41 PUSH1 0x4 MSTORE PUSH1 0x24 PUSH1 0x0 REVERT JUMPDEST PUSH1 0x0 DUP1 REVERT JUMPDEST PUSH1 0x0 DUP1 REVERT JUMPDEST PUSH1 0x0 DUP1 REVERT JUMPDEST PUSH1 0x0 DUP1 REVERT JUMPDEST PUSH1 0x0 PUSH1 0x1F NOT PUSH1 0x1F DUP4 ADD AND SWAP1 POP SWAP2 SWAP1 POP JUMP JUMPDEST PUSH2 0x80E DUP2 PUSH2 0x6D3 JUMP JUMPDEST DUP2 EQ PUSH2 0x819 JUMPI PUSH1 0x0 DUP1 REVERT JUMPDEST POP JUMP INVALID LOG2 PUSH5 0x6970667358 0x22 SLT KECCAK256 0x24 0xB4 0xC9 0xBE RETURNDATASIZE 0x5F PUSH19 0xA3D5A27903564386936F67E494687602FC0AFD SWAP5 NUMBER SWAP15 PUSH7 0x2C3764736F6C63 NUMBER STOP ADDMOD SMOD STOP CALLER "
				},
				"gasEstimates": {
					"creation": {
						"codeDepositCost": "426000",
						"executionCost": "5467",
						"totalCost": "431467"
					},
					"external": {
						"createReadList(string)": "infinite",
						"getFilterReadList(uint256)": "infinite",
						"getList()": "infinite"
					}
				},
				"methodIdentifiers": {
					"createReadList(string)": "234c6686",
					"getFilterReadList(uint256)": "b868ef57",
					"getList()": "942b765a"
				}
			},
			"storageLayout": {
				"storage": [
					{
						"astId": 10,
						"contract": "array.sol:ArrayTest",
						"label": "list",
						"offset": 0,
						"slot": "0",
						"type": "t_array(t_struct(Book)6_storage)dyn_storage"
					},
					{
						"astId": 13,
						"contract": "array.sol:ArrayTest",
						"label": "num",
						"offset": 0,
						"slot": "1",
						"type": "t_uint256"
					},
					{
						"astId": 18,
						"contract": "array.sol:ArrayTest",
						"label": "book",
						"offset": 0,
						"slot": "2",
						"type": "t_mapping(t_uint256,t_struct(Book)6_storage)"
					}
				],
				"types": {
					"t_array(t_struct(Book)6_storage)dyn_storage": {
						"base": "t_struct(Book)6_storage",
						"encoding": "dynamic_array",
						"label": "struct ArrayTest.Book[]",
						"numberOfBytes": "32"
					},
					"t_mapping(t_uint256,t_struct(Book)6_storage)": {
						"encoding": "mapping",
						"key": "t_uint256",
						"label": "mapping(uint256 => struct ArrayTest.Book)",
						"numberOfBytes": "32",
						"value": "t_struct(Book)6_storage"
					},
					"t_string_storage": {
						"encoding": "bytes",
						"label": "string",
						"numberOfBytes": "32"
					},
					"t_struct(Book)6_storage": {
						"encoding": "inplace",
						"label": "struct ArrayTest.Book",
						"members": [
							{
								"astId": 3,
								"contract": "array.sol:ArrayTest",
								"label": "status",
								"offset": 0,
								"slot": "0",
								"type": "t_uint256"
							},
							{
								"astId": 5,
								"contract": "array.sol:ArrayTest",
								"label": "bookName",
								"offset": 0,
								"slot": "1",
								"type": "t_string_storage"
							}
						],
						"numberOfBytes": "64"
					},
					"t_uint256": {
						"encoding": "inplace",
						"label": "uint256",
						"numberOfBytes": "32"
					}
				}
			},
			"userdoc": {
				"kind": "user",
				"methods": {},
				"version": 1
			}
		}
	}
}