{
	"array.sol": {
		"ArrayTest": {
			"abi": [
				{
					"inputs": [
						{
							"internalType": "string",
							"name": "_bookName",
							"type": "string"
						}
					],
					"name": "createReadList",
					"outputs": [],
					"stateMutability": "nonpayable",
					"type": "function"
				},
				{
					"inputs": [],
					"name": "getReadList",
					"outputs": [
						{
							"components": [
								{
									"internalType": "uint256",
									"name": "status",
									"type": "uint256"
								},
								{
									"internalType": "string",
									"name": "bookName",
									"type": "string"
								}
							],
							"internalType": "struct ArrayTest.Book[]",
							"name": "",
							"type": "tuple[]"
						}
					],
					"stateMutability": "view",
					"type": "function"
				}
			],
			"devdoc": {
				"kind": "dev",
				"methods": {},
				"version": 1
			},
			"evm": {
				"assembly": "    /* \"array.sol\":61:538  contract ArrayTest {\r... */\n  mstore(0x40, 0x80)\n  callvalue\n  dup1\n  iszero\n  tag_1\n  jumpi\n  0x00\n  dup1\n  revert\ntag_1:\n  pop\n  dataSize(sub_0)\n  dup1\n  dataOffset(sub_0)\n  0x00\n  codecopy\n  0x00\n  return\nstop\n\nsub_0: assembly {\n        /* \"array.sol\":61:538  contract ArrayTest {\r... */\n      mstore(0x40, 0x80)\n      callvalue\n      dup1\n      iszero\n      tag_1\n      jumpi\n      0x00\n      dup1\n      revert\n    tag_1:\n      pop\n      jumpi(tag_2, lt(calldatasize, 0x04))\n      shr(0xe0, calldataload(0x00))\n      dup1\n      0x234c6686\n      eq\n      tag_3\n      jumpi\n      dup1\n      0x2f528c59\n      eq\n      tag_4\n      jumpi\n    tag_2:\n      0x00\n      dup1\n      revert\n        /* \"array.sol\":248:438  function createReadList(string memory _bookName) public {\r... */\n    tag_3:\n      tag_5\n      0x04\n      dup1\n      calldatasize\n      sub\n      dup2\n      add\n      swap1\n      tag_6\n      swap2\n      swap1\n      tag_7\n      jump\t// in\n    tag_6:\n      tag_8\n      jump\t// in\n    tag_5:\n      stop\n        /* \"array.sol\":446:535  function getReadList() public view returns (Book[] memory) {\r... */\n    tag_4:\n      tag_9\n      tag_10\n      jump\t// in\n    tag_9:\n      mload(0x40)\n      tag_11\n      swap2\n      swap1\n      tag_12\n      jump\t// in\n    tag_11:\n      mload(0x40)\n      dup1\n      swap2\n      sub\n      swap1\n      return\n        /* \"array.sol\":248:438  function createReadList(string memory _bookName) public {\r... */\n    tag_8:\n        /* \"array.sol\":346:350  list */\n      0x00\n        /* \"array.sol\":356:429  Book({\r... */\n      mload(0x40)\n      dup1\n      0x40\n      add\n      0x40\n      mstore\n      dup1\n        /* \"array.sol\":383:384  0 */\n      0x00\n        /* \"array.sol\":356:429  Book({\r... */\n      dup2\n      mstore\n      0x20\n      add\n        /* \"array.sol\":408:417  _bookName */\n      dup4\n        /* \"array.sol\":356:429  Book({\r... */\n      dup2\n      mstore\n      pop\n        /* \"array.sol\":346:430  list.push(Book({\r... */\n      swap1\n      dup1\n      0x01\n      dup2\n      sload\n      add\n      dup1\n      dup3\n      sstore\n      dup1\n      swap2\n      pop\n      pop\n      0x01\n      swap1\n      sub\n      swap1\n      0x00\n      mstore\n      keccak256(0x00, 0x20)\n      swap1\n      0x02\n      mul\n      add\n      0x00\n      swap1\n      swap2\n      swap1\n      swap2\n      swap1\n      swap2\n      pop\n      0x00\n      dup3\n      add\n      mload\n      dup2\n      0x00\n      add\n      sstore\n      0x20\n      dup3\n      add\n      mload\n      dup2\n      0x01\n      add\n      swap1\n      dup1\n      mload\n      swap1\n      0x20\n      add\n      swap1\n      tag_15\n      swap3\n      swap2\n      swap1\n      tag_16\n      jump\t// in\n    tag_15:\n      pop\n      pop\n      pop\n        /* \"array.sol\":248:438  function createReadList(string memory _bookName) public {\r... */\n      pop\n      jump\t// out\n        /* \"array.sol\":446:535  function getReadList() public view returns (Book[] memory) {\r... */\n    tag_10:\n        /* \"array.sol\":490:503  Book[] memory */\n      0x60\n        /* \"array.sol\":523:527  list */\n      0x00\n        /* \"array.sol\":516:527  return list */\n      dup1\n      sload\n      dup1\n      0x20\n      mul\n      0x20\n      add\n      mload(0x40)\n      swap1\n      dup2\n      add\n      0x40\n      mstore\n      dup1\n      swap3\n      swap2\n      swap1\n      dup2\n      dup2\n      mstore\n      0x20\n      add\n      0x00\n      swap1\n    tag_18:\n      dup3\n      dup3\n      lt\n      iszero\n      tag_19\n      jumpi\n      dup4\n      dup3\n      swap1\n      0x00\n      mstore\n      keccak256(0x00, 0x20)\n      swap1\n      0x02\n      mul\n      add\n      mload(0x40)\n      dup1\n      0x40\n      add\n      0x40\n      mstore\n      swap1\n      dup2\n      0x00\n      dup3\n      add\n      sload\n      dup2\n      mstore\n      0x20\n      add\n      0x01\n      dup3\n      add\n      dup1\n      sload\n      tag_21\n      swap1\n      tag_22\n      jump\t// in\n    tag_21:\n      dup1\n      0x1f\n      add\n      0x20\n      dup1\n      swap2\n      div\n      mul\n      0x20\n      add\n      mload(0x40)\n      swap1\n      dup2\n      add\n      0x40\n      mstore\n      dup1\n      swap3\n      swap2\n      swap1\n      dup2\n      dup2\n      mstore\n      0x20\n      add\n      dup3\n      dup1\n      sload\n      tag_23\n      swap1\n      tag_22\n      jump\t// in\n    tag_23:\n      dup1\n      iszero\n      tag_24\n      jumpi\n      dup1\n      0x1f\n      lt\n      tag_25\n      jumpi\n      0x0100\n      dup1\n      dup4\n      sload\n      div\n      mul\n      dup4\n      mstore\n      swap2\n      0x20\n      add\n      swap2\n      jump(tag_24)\n    tag_25:\n      dup3\n      add\n      swap2\n      swap1\n      0x00\n      mstore\n      keccak256(0x00, 0x20)\n      swap1\n    tag_26:\n      dup2\n      sload\n      dup2\n      mstore\n      swap1\n      0x01\n      add\n      swap1\n      0x20\n      add\n      dup1\n      dup4\n      gt\n      tag_26\n      jumpi\n      dup3\n      swap1\n      sub\n      0x1f\n      and\n      dup3\n      add\n      swap2\n    tag_24:\n      pop\n      pop\n      pop\n      pop\n      pop\n      dup2\n      mstore\n      pop\n      pop\n      dup2\n      mstore\n      0x20\n      add\n      swap1\n      0x01\n      add\n      swap1\n      jump(tag_18)\n    tag_19:\n      pop\n      pop\n      pop\n      pop\n      swap1\n      pop\n        /* \"array.sol\":446:535  function getReadList() public view returns (Book[] memory) {\r... */\n      swap1\n      jump\t// out\n    tag_16:\n      dup3\n      dup1\n      sload\n      tag_27\n      swap1\n      tag_22\n      jump\t// in\n    tag_27:\n      swap1\n      0x00\n      mstore\n      keccak256(0x00, 0x20)\n      swap1\n      0x1f\n      add\n      0x20\n      swap1\n      div\n      dup2\n      add\n      swap3\n      dup3\n      tag_29\n      jumpi\n      0x00\n      dup6\n      sstore\n      jump(tag_28)\n    tag_29:\n      dup3\n      0x1f\n      lt\n      tag_30\n      jumpi\n      dup1\n      mload\n      not(0xff)\n      and\n      dup4\n      dup1\n      add\n      or\n      dup6\n      sstore\n      jump(tag_28)\n    tag_30:\n      dup3\n      dup1\n      add\n      0x01\n      add\n      dup6\n      sstore\n      dup3\n      iszero\n      tag_28\n      jumpi\n      swap2\n      dup3\n      add\n    tag_31:\n      dup3\n      dup2\n      gt\n      iszero\n      tag_32\n      jumpi\n      dup3\n      mload\n      dup3\n      sstore\n      swap2\n      0x20\n      add\n      swap2\n      swap1\n      0x01\n      add\n      swap1\n      jump(tag_31)\n    tag_32:\n    tag_28:\n      pop\n      swap1\n      pop\n      tag_33\n      swap2\n      swap1\n      tag_34\n      jump\t// in\n    tag_33:\n      pop\n      swap1\n      jump\t// out\n    tag_34:\n    tag_35:\n      dup1\n      dup3\n      gt\n      iszero\n      tag_36\n      jumpi\n      0x00\n      dup2\n      0x00\n      swap1\n      sstore\n      pop\n      0x01\n      add\n      jump(tag_35)\n    tag_36:\n      pop\n      swap1\n      jump\t// out\n        /* \"#utility.yul\":7:419   */\n    tag_38:\n        /* \"#utility.yul\":85:90   */\n      0x00\n        /* \"#utility.yul\":110:176   */\n      tag_40\n        /* \"#utility.yul\":126:175   */\n      tag_41\n        /* \"#utility.yul\":168:174   */\n      dup5\n        /* \"#utility.yul\":126:175   */\n      tag_42\n      jump\t// in\n    tag_41:\n        /* \"#utility.yul\":110:176   */\n      tag_43\n      jump\t// in\n    tag_40:\n        /* \"#utility.yul\":101:176   */\n      swap1\n      pop\n        /* \"#utility.yul\":199:205   */\n      dup3\n        /* \"#utility.yul\":192:197   */\n      dup2\n        /* \"#utility.yul\":185:206   */\n      mstore\n        /* \"#utility.yul\":237:241   */\n      0x20\n        /* \"#utility.yul\":230:235   */\n      dup2\n        /* \"#utility.yul\":226:242   */\n      add\n        /* \"#utility.yul\":275:278   */\n      dup5\n        /* \"#utility.yul\":266:272   */\n      dup5\n        /* \"#utility.yul\":261:264   */\n      dup5\n        /* \"#utility.yul\":257:273   */\n      add\n        /* \"#utility.yul\":254:279   */\n      gt\n        /* \"#utility.yul\":251:363   */\n      iszero\n      tag_44\n      jumpi\n        /* \"#utility.yul\":282:361   */\n      tag_45\n      tag_46\n      jump\t// in\n    tag_45:\n        /* \"#utility.yul\":251:363   */\n    tag_44:\n        /* \"#utility.yul\":372:413   */\n      tag_47\n        /* \"#utility.yul\":406:412   */\n      dup5\n        /* \"#utility.yul\":401:404   */\n      dup3\n        /* \"#utility.yul\":396:399   */\n      dup6\n        /* \"#utility.yul\":372:413   */\n      tag_48\n      jump\t// in\n    tag_47:\n        /* \"#utility.yul\":91:419   */\n      pop\n        /* \"#utility.yul\":7:419   */\n      swap4\n      swap3\n      pop\n      pop\n      pop\n      jump\t// out\n        /* \"#utility.yul\":439:779   */\n    tag_49:\n        /* \"#utility.yul\":495:500   */\n      0x00\n        /* \"#utility.yul\":544:547   */\n      dup3\n        /* \"#utility.yul\":537:541   */\n      0x1f\n        /* \"#utility.yul\":529:535   */\n      dup4\n        /* \"#utility.yul\":525:542   */\n      add\n        /* \"#utility.yul\":521:548   */\n      slt\n        /* \"#utility.yul\":511:633   */\n      tag_51\n      jumpi\n        /* \"#utility.yul\":552:631   */\n      tag_52\n      tag_53\n      jump\t// in\n    tag_52:\n        /* \"#utility.yul\":511:633   */\n    tag_51:\n        /* \"#utility.yul\":669:675   */\n      dup2\n        /* \"#utility.yul\":656:676   */\n      calldataload\n        /* \"#utility.yul\":694:773   */\n      tag_54\n        /* \"#utility.yul\":769:772   */\n      dup5\n        /* \"#utility.yul\":761:767   */\n      dup3\n        /* \"#utility.yul\":754:758   */\n      0x20\n        /* \"#utility.yul\":746:752   */\n      dup7\n        /* \"#utility.yul\":742:759   */\n      add\n        /* \"#utility.yul\":694:773   */\n      tag_38\n      jump\t// in\n    tag_54:\n        /* \"#utility.yul\":685:773   */\n      swap2\n      pop\n        /* \"#utility.yul\":501:779   */\n      pop\n        /* \"#utility.yul\":439:779   */\n      swap3\n      swap2\n      pop\n      pop\n      jump\t// out\n        /* \"#utility.yul\":785:1294   */\n    tag_7:\n        /* \"#utility.yul\":854:860   */\n      0x00\n        /* \"#utility.yul\":903:905   */\n      0x20\n        /* \"#utility.yul\":891:900   */\n      dup3\n        /* \"#utility.yul\":882:889   */\n      dup5\n        /* \"#utility.yul\":878:901   */\n      sub\n        /* \"#utility.yul\":874:906   */\n      slt\n        /* \"#utility.yul\":871:990   */\n      iszero\n      tag_56\n      jumpi\n        /* \"#utility.yul\":909:988   */\n      tag_57\n      tag_58\n      jump\t// in\n    tag_57:\n        /* \"#utility.yul\":871:990   */\n    tag_56:\n        /* \"#utility.yul\":1057:1058   */\n      0x00\n        /* \"#utility.yul\":1046:1055   */\n      dup3\n        /* \"#utility.yul\":1042:1059   */\n      add\n        /* \"#utility.yul\":1029:1060   */\n      calldataload\n        /* \"#utility.yul\":1087:1105   */\n      0xffffffffffffffff\n        /* \"#utility.yul\":1079:1085   */\n      dup2\n        /* \"#utility.yul\":1076:1106   */\n      gt\n        /* \"#utility.yul\":1073:1190   */\n      iszero\n      tag_59\n      jumpi\n        /* \"#utility.yul\":1109:1188   */\n      tag_60\n      tag_61\n      jump\t// in\n    tag_60:\n        /* \"#utility.yul\":1073:1190   */\n    tag_59:\n        /* \"#utility.yul\":1214:1277   */\n      tag_62\n        /* \"#utility.yul\":1269:1276   */\n      dup5\n        /* \"#utility.yul\":1260:1266   */\n      dup3\n        /* \"#utility.yul\":1249:1258   */\n      dup6\n        /* \"#utility.yul\":1245:1267   */\n      add\n        /* \"#utility.yul\":1214:1277   */\n      tag_49\n      jump\t// in\n    tag_62:\n        /* \"#utility.yul\":1204:1277   */\n      swap2\n      pop\n        /* \"#utility.yul\":1000:1287   */\n      pop\n        /* \"#utility.yul\":785:1294   */\n      swap3\n      swap2\n      pop\n      pop\n      jump\t// out\n        /* \"#utility.yul\":1300:1532   */\n    tag_63:\n        /* \"#utility.yul\":1407:1417   */\n      0x00\n        /* \"#utility.yul\":1442:1526   */\n      tag_65\n        /* \"#utility.yul\":1522:1525   */\n      dup4\n        /* \"#utility.yul\":1514:1520   */\n      dup4\n        /* \"#utility.yul\":1442:1526   */\n      tag_66\n      jump\t// in\n    tag_65:\n        /* \"#utility.yul\":1428:1526   */\n      swap1\n      pop\n        /* \"#utility.yul\":1300:1532   */\n      swap3\n      swap2\n      pop\n      pop\n      jump\t// out\n        /* \"#utility.yul\":1596:2659   */\n    tag_67:\n        /* \"#utility.yul\":1753:1756   */\n      0x00\n        /* \"#utility.yul\":1782:1855   */\n      tag_69\n        /* \"#utility.yul\":1849:1854   */\n      dup3\n        /* \"#utility.yul\":1782:1855   */\n      tag_70\n      jump\t// in\n    tag_69:\n        /* \"#utility.yul\":1871:1976   */\n      tag_71\n        /* \"#utility.yul\":1969:1975   */\n      dup2\n        /* \"#utility.yul\":1964:1967   */\n      dup6\n        /* \"#utility.yul\":1871:1976   */\n      tag_72\n      jump\t// in\n    tag_71:\n        /* \"#utility.yul\":1864:1976   */\n      swap4\n      pop\n        /* \"#utility.yul\":2002:2005   */\n      dup4\n        /* \"#utility.yul\":2047:2051   */\n      0x20\n        /* \"#utility.yul\":2039:2045   */\n      dup3\n        /* \"#utility.yul\":2035:2052   */\n      mul\n        /* \"#utility.yul\":2030:2033   */\n      dup6\n        /* \"#utility.yul\":2026:2053   */\n      add\n        /* \"#utility.yul\":2077:2152   */\n      tag_73\n        /* \"#utility.yul\":2146:2151   */\n      dup6\n        /* \"#utility.yul\":2077:2152   */\n      tag_74\n      jump\t// in\n    tag_73:\n        /* \"#utility.yul\":2175:2182   */\n      dup1\n        /* \"#utility.yul\":2206:2207   */\n      0x00\n        /* \"#utility.yul\":2191:2614   */\n    tag_75:\n        /* \"#utility.yul\":2216:2222   */\n      dup6\n        /* \"#utility.yul\":2213:2214   */\n      dup2\n        /* \"#utility.yul\":2210:2223   */\n      lt\n        /* \"#utility.yul\":2191:2614   */\n      iszero\n      tag_77\n      jumpi\n        /* \"#utility.yul\":2287:2296   */\n      dup5\n        /* \"#utility.yul\":2281:2285   */\n      dup5\n        /* \"#utility.yul\":2277:2297   */\n      sub\n        /* \"#utility.yul\":2272:2275   */\n      dup10\n        /* \"#utility.yul\":2265:2298   */\n      mstore\n        /* \"#utility.yul\":2338:2344   */\n      dup2\n        /* \"#utility.yul\":2332:2345   */\n      mload\n        /* \"#utility.yul\":2366:2468   */\n      tag_78\n        /* \"#utility.yul\":2463:2467   */\n      dup6\n        /* \"#utility.yul\":2448:2461   */\n      dup3\n        /* \"#utility.yul\":2366:2468   */\n      tag_63\n      jump\t// in\n    tag_78:\n        /* \"#utility.yul\":2358:2468   */\n      swap5\n      pop\n        /* \"#utility.yul\":2491:2570   */\n      tag_79\n        /* \"#utility.yul\":2563:2569   */\n      dup4\n        /* \"#utility.yul\":2491:2570   */\n      tag_80\n      jump\t// in\n    tag_79:\n        /* \"#utility.yul\":2481:2570   */\n      swap3\n      pop\n        /* \"#utility.yul\":2599:2603   */\n      0x20\n        /* \"#utility.yul\":2594:2597   */\n      dup11\n        /* \"#utility.yul\":2590:2604   */\n      add\n        /* \"#utility.yul\":2583:2604   */\n      swap10\n      pop\n        /* \"#utility.yul\":2251:2614   */\n      pop\n        /* \"#utility.yul\":2238:2239   */\n      0x01\n        /* \"#utility.yul\":2235:2236   */\n      dup2\n        /* \"#utility.yul\":2231:2240   */\n      add\n        /* \"#utility.yul\":2226:2240   */\n      swap1\n      pop\n        /* \"#utility.yul\":2191:2614   */\n      jump(tag_75)\n    tag_77:\n        /* \"#utility.yul\":2195:2209   */\n      pop\n        /* \"#utility.yul\":2630:2634   */\n      dup3\n        /* \"#utility.yul\":2623:2634   */\n      swap8\n      pop\n        /* \"#utility.yul\":2650:2653   */\n      dup8\n        /* \"#utility.yul\":2643:2653   */\n      swap6\n      pop\n        /* \"#utility.yul\":1758:2659   */\n      pop\n      pop\n      pop\n      pop\n      pop\n        /* \"#utility.yul\":1596:2659   */\n      swap3\n      swap2\n      pop\n      pop\n      jump\t// out\n        /* \"#utility.yul\":2665:3009   */\n    tag_81:\n        /* \"#utility.yul\":2743:2746   */\n      0x00\n        /* \"#utility.yul\":2771:2810   */\n      tag_83\n        /* \"#utility.yul\":2804:2809   */\n      dup3\n        /* \"#utility.yul\":2771:2810   */\n      tag_84\n      jump\t// in\n    tag_83:\n        /* \"#utility.yul\":2826:2887   */\n      tag_85\n        /* \"#utility.yul\":2880:2886   */\n      dup2\n        /* \"#utility.yul\":2875:2878   */\n      dup6\n        /* \"#utility.yul\":2826:2887   */\n      tag_86\n      jump\t// in\n    tag_85:\n        /* \"#utility.yul\":2819:2887   */\n      swap4\n      pop\n        /* \"#utility.yul\":2896:2948   */\n      tag_87\n        /* \"#utility.yul\":2941:2947   */\n      dup2\n        /* \"#utility.yul\":2936:2939   */\n      dup6\n        /* \"#utility.yul\":2929:2933   */\n      0x20\n        /* \"#utility.yul\":2922:2927   */\n      dup7\n        /* \"#utility.yul\":2918:2934   */\n      add\n        /* \"#utility.yul\":2896:2948   */\n      tag_88\n      jump\t// in\n    tag_87:\n        /* \"#utility.yul\":2973:3002   */\n      tag_89\n        /* \"#utility.yul\":2995:3001   */\n      dup2\n        /* \"#utility.yul\":2973:3002   */\n      tag_90\n      jump\t// in\n    tag_89:\n        /* \"#utility.yul\":2968:2971   */\n      dup5\n        /* \"#utility.yul\":2964:3003   */\n      add\n        /* \"#utility.yul\":2957:3003   */\n      swap2\n      pop\n        /* \"#utility.yul\":2747:3009   */\n      pop\n        /* \"#utility.yul\":2665:3009   */\n      swap3\n      swap2\n      pop\n      pop\n      jump\t// out\n        /* \"#utility.yul\":3069:3659   */\n    tag_66:\n        /* \"#utility.yul\":3166:3169   */\n      0x00\n        /* \"#utility.yul\":3202:3206   */\n      0x40\n        /* \"#utility.yul\":3197:3200   */\n      dup4\n        /* \"#utility.yul\":3193:3207   */\n      add\n        /* \"#utility.yul\":3291:3295   */\n      0x00\n        /* \"#utility.yul\":3284:3289   */\n      dup4\n        /* \"#utility.yul\":3280:3296   */\n      add\n        /* \"#utility.yul\":3274:3297   */\n      mload\n        /* \"#utility.yul\":3310:3373   */\n      tag_92\n        /* \"#utility.yul\":3367:3371   */\n      0x00\n        /* \"#utility.yul\":3362:3365   */\n      dup7\n        /* \"#utility.yul\":3358:3372   */\n      add\n        /* \"#utility.yul\":3344:3356   */\n      dup3\n        /* \"#utility.yul\":3310:3373   */\n      tag_93\n      jump\t// in\n    tag_92:\n        /* \"#utility.yul\":3217:3383   */\n      pop\n        /* \"#utility.yul\":3469:3473   */\n      0x20\n        /* \"#utility.yul\":3462:3467   */\n      dup4\n        /* \"#utility.yul\":3458:3474   */\n      add\n        /* \"#utility.yul\":3452:3475   */\n      mload\n        /* \"#utility.yul\":3522:3525   */\n      dup5\n        /* \"#utility.yul\":3516:3520   */\n      dup3\n        /* \"#utility.yul\":3512:3526   */\n      sub\n        /* \"#utility.yul\":3505:3509   */\n      0x20\n        /* \"#utility.yul\":3500:3503   */\n      dup7\n        /* \"#utility.yul\":3496:3510   */\n      add\n        /* \"#utility.yul\":3489:3527   */\n      mstore\n        /* \"#utility.yul\":3548:3621   */\n      tag_94\n        /* \"#utility.yul\":3616:3620   */\n      dup3\n        /* \"#utility.yul\":3602:3614   */\n      dup3\n        /* \"#utility.yul\":3548:3621   */\n      tag_81\n      jump\t// in\n    tag_94:\n        /* \"#utility.yul\":3540:3621   */\n      swap2\n      pop\n        /* \"#utility.yul\":3393:3632   */\n      pop\n        /* \"#utility.yul\":3649:3653   */\n      dup1\n        /* \"#utility.yul\":3642:3653   */\n      swap2\n      pop\n        /* \"#utility.yul\":3171:3659   */\n      pop\n        /* \"#utility.yul\":3069:3659   */\n      swap3\n      swap2\n      pop\n      pop\n      jump\t// out\n        /* \"#utility.yul\":3665:3773   */\n    tag_93:\n        /* \"#utility.yul\":3742:3766   */\n      tag_96\n        /* \"#utility.yul\":3760:3765   */\n      dup2\n        /* \"#utility.yul\":3742:3766   */\n      tag_97\n      jump\t// in\n    tag_96:\n        /* \"#utility.yul\":3737:3740   */\n      dup3\n        /* \"#utility.yul\":3730:3767   */\n      mstore\n        /* \"#utility.yul\":3665:3773   */\n      pop\n      pop\n      jump\t// out\n        /* \"#utility.yul\":3779:4228   */\n    tag_12:\n        /* \"#utility.yul\":3960:3964   */\n      0x00\n        /* \"#utility.yul\":3998:4000   */\n      0x20\n        /* \"#utility.yul\":3987:3996   */\n      dup3\n        /* \"#utility.yul\":3983:4001   */\n      add\n        /* \"#utility.yul\":3975:4001   */\n      swap1\n      pop\n        /* \"#utility.yul\":4047:4056   */\n      dup2\n        /* \"#utility.yul\":4041:4045   */\n      dup2\n        /* \"#utility.yul\":4037:4057   */\n      sub\n        /* \"#utility.yul\":4033:4034   */\n      0x00\n        /* \"#utility.yul\":4022:4031   */\n      dup4\n        /* \"#utility.yul\":4018:4035   */\n      add\n        /* \"#utility.yul\":4011:4058   */\n      mstore\n        /* \"#utility.yul\":4075:4221   */\n      tag_99\n        /* \"#utility.yul\":4216:4220   */\n      dup2\n        /* \"#utility.yul\":4207:4213   */\n      dup5\n        /* \"#utility.yul\":4075:4221   */\n      tag_67\n      jump\t// in\n    tag_99:\n        /* \"#utility.yul\":4067:4221   */\n      swap1\n      pop\n        /* \"#utility.yul\":3779:4228   */\n      swap3\n      swap2\n      pop\n      pop\n      jump\t// out\n        /* \"#utility.yul\":4234:4363   */\n    tag_43:\n        /* \"#utility.yul\":4268:4274   */\n      0x00\n        /* \"#utility.yul\":4295:4315   */\n      tag_101\n      tag_102\n      jump\t// in\n    tag_101:\n        /* \"#utility.yul\":4285:4315   */\n      swap1\n      pop\n        /* \"#utility.yul\":4324:4357   */\n      tag_103\n        /* \"#utility.yul\":4352:4356   */\n      dup3\n        /* \"#utility.yul\":4344:4350   */\n      dup3\n        /* \"#utility.yul\":4324:4357   */\n      tag_104\n      jump\t// in\n    tag_103:\n        /* \"#utility.yul\":4234:4363   */\n      swap2\n      swap1\n      pop\n      jump\t// out\n        /* \"#utility.yul\":4369:4444   */\n    tag_102:\n        /* \"#utility.yul\":4402:4408   */\n      0x00\n        /* \"#utility.yul\":4435:4437   */\n      0x40\n        /* \"#utility.yul\":4429:4438   */\n      mload\n        /* \"#utility.yul\":4419:4438   */\n      swap1\n      pop\n        /* \"#utility.yul\":4369:4444   */\n      swap1\n      jump\t// out\n        /* \"#utility.yul\":4450:4758   */\n    tag_42:\n        /* \"#utility.yul\":4512:4516   */\n      0x00\n        /* \"#utility.yul\":4602:4620   */\n      0xffffffffffffffff\n        /* \"#utility.yul\":4594:4600   */\n      dup3\n        /* \"#utility.yul\":4591:4621   */\n      gt\n        /* \"#utility.yul\":4588:4644   */\n      iszero\n      tag_107\n      jumpi\n        /* \"#utility.yul\":4624:4642   */\n      tag_108\n      tag_109\n      jump\t// in\n    tag_108:\n        /* \"#utility.yul\":4588:4644   */\n    tag_107:\n        /* \"#utility.yul\":4662:4691   */\n      tag_110\n        /* \"#utility.yul\":4684:4690   */\n      dup3\n        /* \"#utility.yul\":4662:4691   */\n      tag_90\n      jump\t// in\n    tag_110:\n        /* \"#utility.yul\":4654:4691   */\n      swap1\n      pop\n        /* \"#utility.yul\":4746:4750   */\n      0x20\n        /* \"#utility.yul\":4740:4744   */\n      dup2\n        /* \"#utility.yul\":4736:4751   */\n      add\n        /* \"#utility.yul\":4728:4751   */\n      swap1\n      pop\n        /* \"#utility.yul\":4450:4758   */\n      swap2\n      swap1\n      pop\n      jump\t// out\n        /* \"#utility.yul\":4764:4915   */\n    tag_74:\n        /* \"#utility.yul\":4850:4854   */\n      0x00\n        /* \"#utility.yul\":4873:4876   */\n      dup2\n        /* \"#utility.yul\":4865:4876   */\n      swap1\n      pop\n        /* \"#utility.yul\":4903:4907   */\n      0x20\n        /* \"#utility.yul\":4898:4901   */\n      dup3\n        /* \"#utility.yul\":4894:4908   */\n      add\n        /* \"#utility.yul\":4886:4908   */\n      swap1\n      pop\n        /* \"#utility.yul\":4764:4915   */\n      swap2\n      swap1\n      pop\n      jump\t// out\n        /* \"#utility.yul\":4921:5054   */\n    tag_70:\n        /* \"#utility.yul\":5007:5013   */\n      0x00\n        /* \"#utility.yul\":5041:5046   */\n      dup2\n        /* \"#utility.yul\":5035:5047   */\n      mload\n        /* \"#utility.yul\":5025:5047   */\n      swap1\n      pop\n        /* \"#utility.yul\":4921:5054   */\n      swap2\n      swap1\n      pop\n      jump\t// out\n        /* \"#utility.yul\":5060:5159   */\n    tag_84:\n        /* \"#utility.yul\":5112:5118   */\n      0x00\n        /* \"#utility.yul\":5146:5151   */\n      dup2\n        /* \"#utility.yul\":5140:5152   */\n      mload\n        /* \"#utility.yul\":5130:5152   */\n      swap1\n      pop\n        /* \"#utility.yul\":5060:5159   */\n      swap2\n      swap1\n      pop\n      jump\t// out\n        /* \"#utility.yul\":5165:5297   */\n    tag_80:\n        /* \"#utility.yul\":5254:5258   */\n      0x00\n        /* \"#utility.yul\":5286:5290   */\n      0x20\n        /* \"#utility.yul\":5281:5284   */\n      dup3\n        /* \"#utility.yul\":5277:5291   */\n      add\n        /* \"#utility.yul\":5269:5291   */\n      swap1\n      pop\n        /* \"#utility.yul\":5165:5297   */\n      swap2\n      swap1\n      pop\n      jump\t// out\n        /* \"#utility.yul\":5303:5506   */\n    tag_72:\n        /* \"#utility.yul\":5421:5432   */\n      0x00\n        /* \"#utility.yul\":5455:5461   */\n      dup3\n        /* \"#utility.yul\":5450:5453   */\n      dup3\n        /* \"#utility.yul\":5443:5462   */\n      mstore\n        /* \"#utility.yul\":5495:5499   */\n      0x20\n        /* \"#utility.yul\":5490:5493   */\n      dup3\n        /* \"#utility.yul\":5486:5500   */\n      add\n        /* \"#utility.yul\":5471:5500   */\n      swap1\n      pop\n        /* \"#utility.yul\":5303:5506   */\n      swap3\n      swap2\n      pop\n      pop\n      jump\t// out\n        /* \"#utility.yul\":5512:5671   */\n    tag_86:\n        /* \"#utility.yul\":5586:5597   */\n      0x00\n        /* \"#utility.yul\":5620:5626   */\n      dup3\n        /* \"#utility.yul\":5615:5618   */\n      dup3\n        /* \"#utility.yul\":5608:5627   */\n      mstore\n        /* \"#utility.yul\":5660:5664   */\n      0x20\n        /* \"#utility.yul\":5655:5658   */\n      dup3\n        /* \"#utility.yul\":5651:5665   */\n      add\n        /* \"#utility.yul\":5636:5665   */\n      swap1\n      pop\n        /* \"#utility.yul\":5512:5671   */\n      swap3\n      swap2\n      pop\n      pop\n      jump\t// out\n        /* \"#utility.yul\":5677:5754   */\n    tag_97:\n        /* \"#utility.yul\":5714:5721   */\n      0x00\n        /* \"#utility.yul\":5743:5748   */\n      dup2\n        /* \"#utility.yul\":5732:5748   */\n      swap1\n      pop\n        /* \"#utility.yul\":5677:5754   */\n      swap2\n      swap1\n      pop\n      jump\t// out\n        /* \"#utility.yul\":5760:5914   */\n    tag_48:\n        /* \"#utility.yul\":5844:5850   */\n      dup3\n        /* \"#utility.yul\":5839:5842   */\n      dup2\n        /* \"#utility.yul\":5834:5837   */\n      dup4\n        /* \"#utility.yul\":5821:5851   */\n      calldatacopy\n        /* \"#utility.yul\":5906:5907   */\n      0x00\n        /* \"#utility.yul\":5897:5903   */\n      dup4\n        /* \"#utility.yul\":5892:5895   */\n      dup4\n        /* \"#utility.yul\":5888:5904   */\n      add\n        /* \"#utility.yul\":5881:5908   */\n      mstore\n        /* \"#utility.yul\":5760:5914   */\n      pop\n      pop\n      pop\n      jump\t// out\n        /* \"#utility.yul\":5920:6227   */\n    tag_88:\n        /* \"#utility.yul\":5988:5989   */\n      0x00\n        /* \"#utility.yul\":5998:6111   */\n    tag_120:\n        /* \"#utility.yul\":6012:6018   */\n      dup4\n        /* \"#utility.yul\":6009:6010   */\n      dup2\n        /* \"#utility.yul\":6006:6019   */\n      lt\n        /* \"#utility.yul\":5998:6111   */\n      iszero\n      tag_122\n      jumpi\n        /* \"#utility.yul\":6097:6098   */\n      dup1\n        /* \"#utility.yul\":6092:6095   */\n      dup3\n        /* \"#utility.yul\":6088:6099   */\n      add\n        /* \"#utility.yul\":6082:6100   */\n      mload\n        /* \"#utility.yul\":6078:6079   */\n      dup2\n        /* \"#utility.yul\":6073:6076   */\n      dup5\n        /* \"#utility.yul\":6069:6080   */\n      add\n        /* \"#utility.yul\":6062:6101   */\n      mstore\n        /* \"#utility.yul\":6034:6036   */\n      0x20\n        /* \"#utility.yul\":6031:6032   */\n      dup2\n        /* \"#utility.yul\":6027:6037   */\n      add\n        /* \"#utility.yul\":6022:6037   */\n      swap1\n      pop\n        /* \"#utility.yul\":5998:6111   */\n      jump(tag_120)\n    tag_122:\n        /* \"#utility.yul\":6129:6135   */\n      dup4\n        /* \"#utility.yul\":6126:6127   */\n      dup2\n        /* \"#utility.yul\":6123:6136   */\n      gt\n        /* \"#utility.yul\":6120:6221   */\n      iszero\n      tag_123\n      jumpi\n        /* \"#utility.yul\":6209:6210   */\n      0x00\n        /* \"#utility.yul\":6200:6206   */\n      dup5\n        /* \"#utility.yul\":6195:6198   */\n      dup5\n        /* \"#utility.yul\":6191:6207   */\n      add\n        /* \"#utility.yul\":6184:6211   */\n      mstore\n        /* \"#utility.yul\":6120:6221   */\n    tag_123:\n        /* \"#utility.yul\":5969:6227   */\n      pop\n        /* \"#utility.yul\":5920:6227   */\n      pop\n      pop\n      pop\n      jump\t// out\n        /* \"#utility.yul\":6233:6553   */\n    tag_22:\n        /* \"#utility.yul\":6277:6283   */\n      0x00\n        /* \"#utility.yul\":6314:6315   */\n      0x02\n        /* \"#utility.yul\":6308:6312   */\n      dup3\n        /* \"#utility.yul\":6304:6316   */\n      div\n        /* \"#utility.yul\":6294:6316   */\n      swap1\n      pop\n        /* \"#utility.yul\":6361:6362   */\n      0x01\n        /* \"#utility.yul\":6355:6359   */\n      dup3\n        /* \"#utility.yul\":6351:6363   */\n      and\n        /* \"#utility.yul\":6382:6400   */\n      dup1\n        /* \"#utility.yul\":6372:6453   */\n      tag_125\n      jumpi\n        /* \"#utility.yul\":6438:6442   */\n      0x7f\n        /* \"#utility.yul\":6430:6436   */\n      dup3\n        /* \"#utility.yul\":6426:6443   */\n      and\n        /* \"#utility.yul\":6416:6443   */\n      swap2\n      pop\n        /* \"#utility.yul\":6372:6453   */\n    tag_125:\n        /* \"#utility.yul\":6500:6502   */\n      0x20\n        /* \"#utility.yul\":6492:6498   */\n      dup3\n        /* \"#utility.yul\":6489:6503   */\n      lt\n        /* \"#utility.yul\":6469:6487   */\n      dup2\n        /* \"#utility.yul\":6466:6504   */\n      eq\n        /* \"#utility.yul\":6463:6547   */\n      iszero\n      tag_126\n      jumpi\n        /* \"#utility.yul\":6519:6537   */\n      tag_127\n      tag_128\n      jump\t// in\n    tag_127:\n        /* \"#utility.yul\":6463:6547   */\n    tag_126:\n        /* \"#utility.yul\":6284:6553   */\n      pop\n        /* \"#utility.yul\":6233:6553   */\n      swap2\n      swap1\n      pop\n      jump\t// out\n        /* \"#utility.yul\":6559:6840   */\n    tag_104:\n        /* \"#utility.yul\":6642:6669   */\n      tag_130\n        /* \"#utility.yul\":6664:6668   */\n      dup3\n        /* \"#utility.yul\":6642:6669   */\n      tag_90\n      jump\t// in\n    tag_130:\n        /* \"#utility.yul\":6634:6640   */\n      dup2\n        /* \"#utility.yul\":6630:6670   */\n      add\n        /* \"#utility.yul\":6772:6778   */\n      dup2\n        /* \"#utility.yul\":6760:6770   */\n      dup2\n        /* \"#utility.yul\":6757:6779   */\n      lt\n        /* \"#utility.yul\":6736:6754   */\n      0xffffffffffffffff\n        /* \"#utility.yul\":6724:6734   */\n      dup3\n        /* \"#utility.yul\":6721:6755   */\n      gt\n        /* \"#utility.yul\":6718:6780   */\n      or\n        /* \"#utility.yul\":6715:6803   */\n      iszero\n      tag_131\n      jumpi\n        /* \"#utility.yul\":6783:6801   */\n      tag_132\n      tag_109\n      jump\t// in\n    tag_132:\n        /* \"#utility.yul\":6715:6803   */\n    tag_131:\n        /* \"#utility.yul\":6823:6833   */\n      dup1\n        /* \"#utility.yul\":6819:6821   */\n      0x40\n        /* \"#utility.yul\":6812:6834   */\n      mstore\n        /* \"#utility.yul\":6602:6840   */\n      pop\n        /* \"#utility.yul\":6559:6840   */\n      pop\n      pop\n      jump\t// out\n        /* \"#utility.yul\":6846:7026   */\n    tag_128:\n        /* \"#utility.yul\":6894:6971   */\n      0x4e487b7100000000000000000000000000000000000000000000000000000000\n        /* \"#utility.yul\":6891:6892   */\n      0x00\n        /* \"#utility.yul\":6884:6972   */\n      mstore\n        /* \"#utility.yul\":6991:6995   */\n      0x22\n        /* \"#utility.yul\":6988:6989   */\n      0x04\n        /* \"#utility.yul\":6981:6996   */\n      mstore\n        /* \"#utility.yul\":7015:7019   */\n      0x24\n        /* \"#utility.yul\":7012:7013   */\n      0x00\n        /* \"#utility.yul\":7005:7020   */\n      revert\n        /* \"#utility.yul\":7032:7212   */\n    tag_109:\n        /* \"#utility.yul\":7080:7157   */\n      0x4e487b7100000000000000000000000000000000000000000000000000000000\n        /* \"#utility.yul\":7077:7078   */\n      0x00\n        /* \"#utility.yul\":7070:7158   */\n      mstore\n        /* \"#utility.yul\":7177:7181   */\n      0x41\n        /* \"#utility.yul\":7174:7175   */\n      0x04\n        /* \"#utility.yul\":7167:7182   */\n      mstore\n        /* \"#utility.yul\":7201:7205   */\n      0x24\n        /* \"#utility.yul\":7198:7199   */\n      0x00\n        /* \"#utility.yul\":7191:7206   */\n      revert\n        /* \"#utility.yul\":7218:7335   */\n    tag_53:\n        /* \"#utility.yul\":7327:7328   */\n      0x00\n        /* \"#utility.yul\":7324:7325   */\n      dup1\n        /* \"#utility.yul\":7317:7329   */\n      revert\n        /* \"#utility.yul\":7341:7458   */\n    tag_46:\n        /* \"#utility.yul\":7450:7451   */\n      0x00\n        /* \"#utility.yul\":7447:7448   */\n      dup1\n        /* \"#utility.yul\":7440:7452   */\n      revert\n        /* \"#utility.yul\":7464:7581   */\n    tag_61:\n        /* \"#utility.yul\":7573:7574   */\n      0x00\n        /* \"#utility.yul\":7570:7571   */\n      dup1\n        /* \"#utility.yul\":7563:7575   */\n      revert\n        /* \"#utility.yul\":7587:7704   */\n    tag_58:\n        /* \"#utility.yul\":7696:7697   */\n      0x00\n        /* \"#utility.yul\":7693:7694   */\n      dup1\n        /* \"#utility.yul\":7686:7698   */\n      revert\n        /* \"#utility.yul\":7710:7812   */\n    tag_90:\n        /* \"#utility.yul\":7751:7757   */\n      0x00\n        /* \"#utility.yul\":7802:7804   */\n      0x1f\n        /* \"#utility.yul\":7798:7805   */\n      not\n        /* \"#utility.yul\":7793:7795   */\n      0x1f\n        /* \"#utility.yul\":7786:7791   */\n      dup4\n        /* \"#utility.yul\":7782:7796   */\n      add\n        /* \"#utility.yul\":7778:7806   */\n      and\n        /* \"#utility.yul\":7768:7806   */\n      swap1\n      pop\n        /* \"#utility.yul\":7710:7812   */\n      swap2\n      swap1\n      pop\n      jump\t// out\n\n    auxdata: 0xa2646970667358221220c518dbd8a06df1c70c0a6922a816963f02ed00a88e5086a3ddcc0145fa45925364736f6c63430008070033\n}\n",
				"bytecode": {
					"linkReferences": {},
					"object": "608060405234801561001057600080fd5b5061067c806100206000396000f3fe608060405234801561001057600080fd5b50600436106100365760003560e01c8063234c66861461003b5780632f528c5914610057575b600080fd5b610055600480360381019061005091906102f0565b610075565b005b61005f6100e2565b60405161006c9190610447565b60405180910390f35b60006040518060400160405280600081526020018381525090806001815401808255809150506001900390600052602060002090600202016000909190919091506000820151816000015560208201518160010190805190602001906100dc9291906101dd565b50505050565b60606000805480602002602001604051908101604052809291908181526020016000905b828210156101d457838290600052602060002090600202016040518060400160405290816000820154815260200160018201805461014390610560565b80601f016020809104026020016040519081016040528092919081815260200182805461016f90610560565b80156101bc5780601f10610191576101008083540402835291602001916101bc565b820191906000526020600020905b81548152906001019060200180831161019f57829003601f168201915b50505050508152505081526020019060010190610106565b50505050905090565b8280546101e990610560565b90600052602060002090601f01602090048101928261020b5760008555610252565b82601f1061022457805160ff1916838001178555610252565b82800160010185558215610252579182015b82811115610251578251825591602001919060010190610236565b5b50905061025f9190610263565b5090565b5b8082111561027c576000816000905550600101610264565b5090565b600061029361028e8461048e565b610469565b9050828152602081018484840111156102af576102ae610626565b5b6102ba84828561051e565b509392505050565b600082601f8301126102d7576102d6610621565b5b81356102e7848260208601610280565b91505092915050565b60006020828403121561030657610305610630565b5b600082013567ffffffffffffffff8111156103245761032361062b565b5b610330848285016102c2565b91505092915050565b600061034583836103fb565b905092915050565b6000610358826104cf565b61036281856104f2565b935083602082028501610374856104bf565b8060005b858110156103b057848403895281516103918582610339565b945061039c836104e5565b925060208a01995050600181019050610378565b50829750879550505050505092915050565b60006103cd826104da565b6103d78185610503565b93506103e781856020860161052d565b6103f081610635565b840191505092915050565b60006040830160008301516104136000860182610438565b506020830151848203602086015261042b82826103c2565b9150508091505092915050565b61044181610514565b82525050565b60006020820190508181036000830152610461818461034d565b905092915050565b6000610473610484565b905061047f8282610592565b919050565b6000604051905090565b600067ffffffffffffffff8211156104a9576104a86105f2565b5b6104b282610635565b9050602081019050919050565b6000819050602082019050919050565b600081519050919050565b600081519050919050565b6000602082019050919050565b600082825260208201905092915050565b600082825260208201905092915050565b6000819050919050565b82818337600083830152505050565b60005b8381101561054b578082015181840152602081019050610530565b8381111561055a576000848401525b50505050565b6000600282049050600182168061057857607f821691505b6020821081141561058c5761058b6105c3565b5b50919050565b61059b82610635565b810181811067ffffffffffffffff821117156105ba576105b96105f2565b5b80604052505050565b7f4e487b7100000000000000000000000000000000000000000000000000000000600052602260045260246000fd5b7f4e487b7100000000000000000000000000000000000000000000000000000000600052604160045260246000fd5b600080fd5b600080fd5b600080fd5b600080fd5b6000601f19601f830116905091905056fea2646970667358221220c518dbd8a06df1c70c0a6922a816963f02ed00a88e5086a3ddcc0145fa45925364736f6c63430008070033",
					"opcodes": "PUSH1 0x80 PUSH1 0x40 MSTORE CALLVALUE DUP1 ISZERO PUSH2 0x10 JUMPI PUSH1 0x0 DUP1 REVERT JUMPDEST POP PUSH2 0x67C DUP1 PUSH2 0x20 PUSH1 0x0 CODECOPY PUSH1 0x0 RETURN INVALID PUSH1 0x80 PUSH1 0x40 MSTORE CALLVALUE DUP1 ISZERO PUSH2 0x10 JUMPI PUSH1 0x0 DUP1 REVERT JUMPDEST POP PUSH1 0x4 CALLDATASIZE LT PUSH2 0x36 JUMPI PUSH1 0x0 CALLDATALOAD PUSH1 0xE0 SHR DUP1 PUSH4 0x234C6686 EQ PUSH2 0x3B JUMPI DUP1 PUSH4 0x2F528C59 EQ PUSH2 0x57 JUMPI JUMPDEST PUSH1 0x0 DUP1 REVERT JUMPDEST PUSH2 0x55 PUSH1 0x4 DUP1 CALLDATASIZE SUB DUP2 ADD SWAP1 PUSH2 0x50 SWAP2 SWAP1 PUSH2 0x2F0 JUMP JUMPDEST PUSH2 0x75 JUMP JUMPDEST STOP JUMPDEST PUSH2 0x5F PUSH2 0xE2 JUMP JUMPDEST PUSH1 0x40 MLOAD PUSH2 0x6C SWAP2 SWAP1 PUSH2 0x447 JUMP JUMPDEST PUSH1 0x40 MLOAD DUP1 SWAP2 SUB SWAP1 RETURN JUMPDEST PUSH1 0x0 PUSH1 0x40 MLOAD DUP1 PUSH1 0x40 ADD PUSH1 0x40 MSTORE DUP1 PUSH1 0x0 DUP2 MSTORE PUSH1 0x20 ADD DUP4 DUP2 MSTORE POP SWAP1 DUP1 PUSH1 0x1 DUP2 SLOAD ADD DUP1 DUP3 SSTORE DUP1 SWAP2 POP POP PUSH1 0x1 SWAP1 SUB SWAP1 PUSH1 0x0 MSTORE PUSH1 0x20 PUSH1 0x0 KECCAK256 SWAP1 PUSH1 0x2 MUL ADD PUSH1 0x0 SWAP1 SWAP2 SWAP1 SWAP2 SWAP1 SWAP2 POP PUSH1 0x0 DUP3 ADD MLOAD DUP2 PUSH1 0x0 ADD SSTORE PUSH1 0x20 DUP3 ADD MLOAD DUP2 PUSH1 0x1 ADD SWAP1 DUP1 MLOAD SWAP1 PUSH1 0x20 ADD SWAP1 PUSH2 0xDC SWAP3 SWAP2 SWAP1 PUSH2 0x1DD JUMP JUMPDEST POP POP POP POP JUMP JUMPDEST PUSH1 0x60 PUSH1 0x0 DUP1 SLOAD DUP1 PUSH1 0x20 MUL PUSH1 0x20 ADD PUSH1 0x40 MLOAD SWAP1 DUP2 ADD PUSH1 0x40 MSTORE DUP1 SWAP3 SWAP2 SWAP1 DUP2 DUP2 MSTORE PUSH1 0x20 ADD PUSH1 0x0 SWAP1 JUMPDEST DUP3 DUP3 LT ISZERO PUSH2 0x1D4 JUMPI DUP4 DUP3 SWAP1 PUSH1 0x0 MSTORE PUSH1 0x20 PUSH1 0x0 KECCAK256 SWAP1 PUSH1 0x2 MUL ADD PUSH1 0x40 MLOAD DUP1 PUSH1 0x40 ADD PUSH1 0x40 MSTORE SWAP1 DUP2 PUSH1 0x0 DUP3 ADD SLOAD DUP2 MSTORE PUSH1 0x20 ADD PUSH1 0x1 DUP3 ADD DUP1 SLOAD PUSH2 0x143 SWAP1 PUSH2 0x560 JUMP JUMPDEST DUP1 PUSH1 0x1F ADD PUSH1 0x20 DUP1 SWAP2 DIV MUL PUSH1 0x20 ADD PUSH1 0x40 MLOAD SWAP1 DUP2 ADD PUSH1 0x40 MSTORE DUP1 SWAP3 SWAP2 SWAP1 DUP2 DUP2 MSTORE PUSH1 0x20 ADD DUP3 DUP1 SLOAD PUSH2 0x16F SWAP1 PUSH2 0x560 JUMP JUMPDEST DUP1 ISZERO PUSH2 0x1BC JUMPI DUP1 PUSH1 0x1F LT PUSH2 0x191 JUMPI PUSH2 0x100 DUP1 DUP4 SLOAD DIV MUL DUP4 MSTORE SWAP2 PUSH1 0x20 ADD SWAP2 PUSH2 0x1BC JUMP JUMPDEST DUP3 ADD SWAP2 SWAP1 PUSH1 0x0 MSTORE PUSH1 0x20 PUSH1 0x0 KECCAK256 SWAP1 JUMPDEST DUP2 SLOAD DUP2 MSTORE SWAP1 PUSH1 0x1 ADD SWAP1 PUSH1 0x20 ADD DUP1 DUP4 GT PUSH2 0x19F JUMPI DUP3 SWAP1 SUB PUSH1 0x1F AND DUP3 ADD SWAP2 JUMPDEST POP POP POP POP POP DUP2 MSTORE POP POP DUP2 MSTORE PUSH1 0x20 ADD SWAP1 PUSH1 0x1 ADD SWAP1 PUSH2 0x106 JUMP JUMPDEST POP POP POP POP SWAP1 POP SWAP1 JUMP JUMPDEST DUP3 DUP1 SLOAD PUSH2 0x1E9 SWAP1 PUSH2 0x560 JUMP JUMPDEST SWAP1 PUSH1 0x0 MSTORE PUSH1 0x20 PUSH1 0x0 KECCAK256 SWAP1 PUSH1 0x1F ADD PUSH1 0x20 SWAP1 DIV DUP2 ADD SWAP3 DUP3 PUSH2 0x20B JUMPI PUSH1 0x0 DUP6 SSTORE PUSH2 0x252 JUMP JUMPDEST DUP3 PUSH1 0x1F LT PUSH2 0x224 JUMPI DUP1 MLOAD PUSH1 0xFF NOT AND DUP4 DUP1 ADD OR DUP6 SSTORE PUSH2 0x252 JUMP JUMPDEST DUP3 DUP1 ADD PUSH1 0x1 ADD DUP6 SSTORE DUP3 ISZERO PUSH2 0x252 JUMPI SWAP2 DUP3 ADD JUMPDEST DUP3 DUP2 GT ISZERO PUSH2 0x251 JUMPI DUP3 MLOAD DUP3 SSTORE SWAP2 PUSH1 0x20 ADD SWAP2 SWAP1 PUSH1 0x1 ADD SWAP1 PUSH2 0x236 JUMP JUMPDEST JUMPDEST POP SWAP1 POP PUSH2 0x25F SWAP2 SWAP1 PUSH2 0x263 JUMP JUMPDEST POP SWAP1 JUMP JUMPDEST JUMPDEST DUP1 DUP3 GT ISZERO PUSH2 0x27C JUMPI PUSH1 0x0 DUP2 PUSH1 0x0 SWAP1 SSTORE POP PUSH1 0x1 ADD PUSH2 0x264 JUMP JUMPDEST POP SWAP1 JUMP JUMPDEST PUSH1 0x0 PUSH2 0x293 PUSH2 0x28E DUP5 PUSH2 0x48E JUMP JUMPDEST PUSH2 0x469 JUMP JUMPDEST SWAP1 POP DUP3 DUP2 MSTORE PUSH1 0x20 DUP2 ADD DUP5 DUP5 DUP5 ADD GT ISZERO PUSH2 0x2AF JUMPI PUSH2 0x2AE PUSH2 0x626 JUMP JUMPDEST JUMPDEST PUSH2 0x2BA DUP5 DUP3 DUP6 PUSH2 0x51E JUMP JUMPDEST POP SWAP4 SWAP3 POP POP POP JUMP JUMPDEST PUSH1 0x0 DUP3 PUSH1 0x1F DUP4 ADD SLT PUSH2 0x2D7 JUMPI PUSH2 0x2D6 PUSH2 0x621 JUMP JUMPDEST JUMPDEST DUP2 CALLDATALOAD PUSH2 0x2E7 DUP5 DUP3 PUSH1 0x20 DUP7 ADD PUSH2 0x280 JUMP JUMPDEST SWAP2 POP POP SWAP3 SWAP2 POP POP JUMP JUMPDEST PUSH1 0x0 PUSH1 0x20 DUP3 DUP5 SUB SLT ISZERO PUSH2 0x306 JUMPI PUSH2 0x305 PUSH2 0x630 JUMP JUMPDEST JUMPDEST PUSH1 0x0 DUP3 ADD CALLDATALOAD PUSH8 0xFFFFFFFFFFFFFFFF DUP2 GT ISZERO PUSH2 0x324 JUMPI PUSH2 0x323 PUSH2 0x62B JUMP JUMPDEST JUMPDEST PUSH2 0x330 DUP5 DUP3 DUP6 ADD PUSH2 0x2C2 JUMP JUMPDEST SWAP2 POP POP SWAP3 SWAP2 POP POP JUMP JUMPDEST PUSH1 0x0 PUSH2 0x345 DUP4 DUP4 PUSH2 0x3FB JUMP JUMPDEST SWAP1 POP SWAP3 SWAP2 POP POP JUMP JUMPDEST PUSH1 0x0 PUSH2 0x358 DUP3 PUSH2 0x4CF JUMP JUMPDEST PUSH2 0x362 DUP2 DUP6 PUSH2 0x4F2 JUMP JUMPDEST SWAP4 POP DUP4 PUSH1 0x20 DUP3 MUL DUP6 ADD PUSH2 0x374 DUP6 PUSH2 0x4BF JUMP JUMPDEST DUP1 PUSH1 0x0 JUMPDEST DUP6 DUP2 LT ISZERO PUSH2 0x3B0 JUMPI DUP5 DUP5 SUB DUP10 MSTORE DUP2 MLOAD PUSH2 0x391 DUP6 DUP3 PUSH2 0x339 JUMP JUMPDEST SWAP5 POP PUSH2 0x39C DUP4 PUSH2 0x4E5 JUMP JUMPDEST SWAP3 POP PUSH1 0x20 DUP11 ADD SWAP10 POP POP PUSH1 0x1 DUP2 ADD SWAP1 POP PUSH2 0x378 JUMP JUMPDEST POP DUP3 SWAP8 POP DUP8 SWAP6 POP POP POP POP POP POP SWAP3 SWAP2 POP POP JUMP JUMPDEST PUSH1 0x0 PUSH2 0x3CD DUP3 PUSH2 0x4DA JUMP JUMPDEST PUSH2 0x3D7 DUP2 DUP6 PUSH2 0x503 JUMP JUMPDEST SWAP4 POP PUSH2 0x3E7 DUP2 DUP6 PUSH1 0x20 DUP7 ADD PUSH2 0x52D JUMP JUMPDEST PUSH2 0x3F0 DUP2 PUSH2 0x635 JUMP JUMPDEST DUP5 ADD SWAP2 POP POP SWAP3 SWAP2 POP POP JUMP JUMPDEST PUSH1 0x0 PUSH1 0x40 DUP4 ADD PUSH1 0x0 DUP4 ADD MLOAD PUSH2 0x413 PUSH1 0x0 DUP7 ADD DUP3 PUSH2 0x438 JUMP JUMPDEST POP PUSH1 0x20 DUP4 ADD MLOAD DUP5 DUP3 SUB PUSH1 0x20 DUP7 ADD MSTORE PUSH2 0x42B DUP3 DUP3 PUSH2 0x3C2 JUMP JUMPDEST SWAP2 POP POP DUP1 SWAP2 POP POP SWAP3 SWAP2 POP POP JUMP JUMPDEST PUSH2 0x441 DUP2 PUSH2 0x514 JUMP JUMPDEST DUP3 MSTORE POP POP JUMP JUMPDEST PUSH1 0x0 PUSH1 0x20 DUP3 ADD SWAP1 POP DUP2 DUP2 SUB PUSH1 0x0 DUP4 ADD MSTORE PUSH2 0x461 DUP2 DUP5 PUSH2 0x34D JUMP JUMPDEST SWAP1 POP SWAP3 SWAP2 POP POP JUMP JUMPDEST PUSH1 0x0 PUSH2 0x473 PUSH2 0x484 JUMP JUMPDEST SWAP1 POP PUSH2 0x47F DUP3 DUP3 PUSH2 0x592 JUMP JUMPDEST SWAP2 SWAP1 POP JUMP JUMPDEST PUSH1 0x0 PUSH1 0x40 MLOAD SWAP1 POP SWAP1 JUMP JUMPDEST PUSH1 0x0 PUSH8 0xFFFFFFFFFFFFFFFF DUP3 GT ISZERO PUSH2 0x4A9 JUMPI PUSH2 0x4A8 PUSH2 0x5F2 JUMP JUMPDEST JUMPDEST PUSH2 0x4B2 DUP3 PUSH2 0x635 JUMP JUMPDEST SWAP1 POP PUSH1 0x20 DUP2 ADD SWAP1 POP SWAP2 SWAP1 POP JUMP JUMPDEST PUSH1 0x0 DUP2 SWAP1 POP PUSH1 0x20 DUP3 ADD SWAP1 POP SWAP2 SWAP1 POP JUMP JUMPDEST PUSH1 0x0 DUP2 MLOAD SWAP1 POP SWAP2 SWAP1 POP JUMP JUMPDEST PUSH1 0x0 DUP2 MLOAD SWAP1 POP SWAP2 SWAP1 POP JUMP JUMPDEST PUSH1 0x0 PUSH1 0x20 DUP3 ADD SWAP1 POP SWAP2 SWAP1 POP JUMP JUMPDEST PUSH1 0x0 DUP3 DUP3 MSTORE PUSH1 0x20 DUP3 ADD SWAP1 POP SWAP3 SWAP2 POP POP JUMP JUMPDEST PUSH1 0x0 DUP3 DUP3 MSTORE PUSH1 0x20 DUP3 ADD SWAP1 POP SWAP3 SWAP2 POP POP JUMP JUMPDEST PUSH1 0x0 DUP2 SWAP1 POP SWAP2 SWAP1 POP JUMP JUMPDEST DUP3 DUP2 DUP4 CALLDATACOPY PUSH1 0x0 DUP4 DUP4 ADD MSTORE POP POP POP JUMP JUMPDEST PUSH1 0x0 JUMPDEST DUP4 DUP2 LT ISZERO PUSH2 0x54B JUMPI DUP1 DUP3 ADD MLOAD DUP2 DUP5 ADD MSTORE PUSH1 0x20 DUP2 ADD SWAP1 POP PUSH2 0x530 JUMP JUMPDEST DUP4 DUP2 GT ISZERO PUSH2 0x55A JUMPI PUSH1 0x0 DUP5 DUP5 ADD MSTORE JUMPDEST POP POP POP POP JUMP JUMPDEST PUSH1 0x0 PUSH1 0x2 DUP3 DIV SWAP1 POP PUSH1 0x1 DUP3 AND DUP1 PUSH2 0x578 JUMPI PUSH1 0x7F DUP3 AND SWAP2 POP JUMPDEST PUSH1 0x20 DUP3 LT DUP2 EQ ISZERO PUSH2 0x58C JUMPI PUSH2 0x58B PUSH2 0x5C3 JUMP JUMPDEST JUMPDEST POP SWAP2 SWAP1 POP JUMP JUMPDEST PUSH2 0x59B DUP3 PUSH2 0x635 JUMP JUMPDEST DUP2 ADD DUP2 DUP2 LT PUSH8 0xFFFFFFFFFFFFFFFF DUP3 GT OR ISZERO PUSH2 0x5BA JUMPI PUSH2 0x5B9 PUSH2 0x5F2 JUMP JUMPDEST JUMPDEST DUP1 PUSH1 0x40 MSTORE POP POP POP JUMP JUMPDEST PUSH32 0x4E487B7100000000000000000000000000000000000000000000000000000000 PUSH1 0x0 MSTORE PUSH1 0x22 PUSH1 0x4 MSTORE PUSH1 0x24 PUSH1 0x0 REVERT JUMPDEST PUSH32 0x4E487B7100000000000000000000000000000000000000000000000000000000 PUSH1 0x0 MSTORE PUSH1 0x41 PUSH1 0x4 MSTORE PUSH1 0x24 PUSH1 0x0 REVERT JUMPDEST PUSH1 0x0 DUP1 REVERT JUMPDEST PUSH1 0x0 DUP1 REVERT JUMPDEST PUSH1 0x0 DUP1 REVERT JUMPDEST PUSH1 0x0 DUP1 REVERT JUMPDEST PUSH1 0x0 PUSH1 0x1F NOT PUSH1 0x1F DUP4 ADD AND SWAP1 POP SWAP2 SWAP1 POP JUMP INVALID LOG2 PUSH5 0x6970667358 0x22 SLT KECCAK256 0xC5 XOR 0xDB 0xD8 LOG0 PUSH14 0xF1C70C0A6922A816963F02ED00A8 DUP15 POP DUP7 LOG3 0xDD 0xCC ADD GASLIMIT STATICCALL GASLIMIT SWAP3 MSTORE8 PUSH5 0x736F6C6343 STOP ADDMOD SMOD STOP CALLER "
				},
				"gasEstimates": {
					"creation": {
						"codeDepositCost": "332000",
						"executionCost": "368",
						"totalCost": "332368"
					},
					"external": {
						"createReadList(string)": "infinite",
						"getReadList()": "infinite"
					}
				},
				"methodIdentifiers": {
					"createReadList(string)": "234c6686",
					"getReadList()": "2f528c59"
				}
			},
			"storageLayout": {
				"storage": [
					{
						"astId": 10,
						"contract": "array.sol:ArrayTest",
						"label": "list",
						"offset": 0,
						"slot": "0",
						"type": "t_array(t_struct(Book)6_storage)dyn_storage"
					}
				],
				"types": {
					"t_array(t_struct(Book)6_storage)dyn_storage": {
						"base": "t_struct(Book)6_storage",
						"encoding": "dynamic_array",
						"label": "struct ArrayTest.Book[]",
						"numberOfBytes": "32"
					},
					"t_string_storage": {
						"encoding": "bytes",
						"label": "string",
						"numberOfBytes": "32"
					},
					"t_struct(Book)6_storage": {
						"encoding": "inplace",
						"label": "struct ArrayTest.Book",
						"members": [
							{
								"astId": 3,
								"contract": "array.sol:ArrayTest",
								"label": "status",
								"offset": 0,
								"slot": "0",
								"type": "t_uint256"
							},
							{
								"astId": 5,
								"contract": "array.sol:ArrayTest",
								"label": "bookName",
								"offset": 0,
								"slot": "1",
								"type": "t_string_storage"
							}
						],
						"numberOfBytes": "64"
					},
					"t_uint256": {
						"encoding": "inplace",
						"label": "uint256",
						"numberOfBytes": "32"
					}
				}
			},
			"userdoc": {
				"kind": "user",
				"methods": {},
				"version": 1
			}
		}
	}
}