{
	"extends.sol": {
		"Man": {
			"abi": [
				{
					"inputs": [],
					"name": "f1",
					"outputs": [
						{
							"internalType": "string",
							"name": "",
							"type": "string"
						}
					],
					"stateMutability": "view",
					"type": "function"
				},
				{
					"inputs": [],
					"name": "getAge",
					"outputs": [
						{
							"internalType": "uint256",
							"name": "",
							"type": "uint256"
						}
					],
					"stateMutability": "view",
					"type": "function"
				},
				{
					"inputs": [],
					"name": "getUser",
					"outputs": [
						{
							"internalType": "string",
							"name": "",
							"type": "string"
						}
					],
					"stateMutability": "view",
					"type": "function"
				},
				{
					"inputs": [
						{
							"internalType": "uint8",
							"name": "_age",
							"type": "uint8"
						}
					],
					"name": "setAge",
					"outputs": [],
					"stateMutability": "nonpayable",
					"type": "function"
				},
				{
					"inputs": [
						{
							"internalType": "string",
							"name": "_user",
							"type": "string"
						}
					],
					"name": "setUser",
					"outputs": [],
					"stateMutability": "nonpayable",
					"type": "function"
				}
			],
			"devdoc": {
				"kind": "dev",
				"methods": {},
				"version": 1
			},
			"evm": {
				"assembly": "    /* \"extends.sol\":452:570  contract Man is Person {\r... */\n  mstore(0x40, 0x80)\n  callvalue\n  dup1\n  iszero\n  tag_1\n  jumpi\n  0x00\n  dup1\n  revert\ntag_1:\n  pop\n  dataSize(sub_0)\n  dup1\n  dataOffset(sub_0)\n  0x00\n  codecopy\n  0x00\n  return\nstop\n\nsub_0: assembly {\n        /* \"extends.sol\":452:570  contract Man is Person {\r... */\n      mstore(0x40, 0x80)\n      callvalue\n      dup1\n      iszero\n      tag_1\n      jumpi\n      0x00\n      dup1\n      revert\n    tag_1:\n      pop\n      jumpi(tag_2, lt(calldatasize, 0x04))\n      shr(0xe0, calldataload(0x00))\n      dup1\n      0x5b0c8d70\n      eq\n      tag_3\n      jumpi\n      dup1\n      0x832880e7\n      eq\n      tag_4\n      jumpi\n      dup1\n      0x967e6e65\n      eq\n      tag_5\n      jumpi\n      dup1\n      0xc27fc305\n      eq\n      tag_6\n      jumpi\n      dup1\n      0xd0020fad\n      eq\n      tag_7\n      jumpi\n    tag_2:\n      0x00\n      dup1\n      revert\n        /* \"extends.sol\":381:445  function setAge(uint8 _age) public {\r... */\n    tag_3:\n      tag_8\n      0x04\n      dup1\n      calldatasize\n      sub\n      dup2\n      add\n      swap1\n      tag_9\n      swap2\n      swap1\n      tag_10\n      jump\t// in\n    tag_9:\n      tag_11\n      jump\t// in\n    tag_8:\n      stop\n        /* \"extends.sol\":118:203  function getUser() public view returns (string memory) {\r... */\n    tag_4:\n      tag_12\n      tag_13\n      jump\t// in\n    tag_12:\n      mload(0x40)\n      tag_14\n      swap2\n      swap1\n      tag_15\n      jump\t// in\n    tag_14:\n      mload(0x40)\n      dup1\n      swap2\n      sub\n      swap1\n      return\n        /* \"extends.sol\":211:285  function getAge() public view returns (uint) {\r... */\n    tag_5:\n      tag_16\n      tag_17\n      jump\t// in\n    tag_16:\n      mload(0x40)\n      tag_18\n      swap2\n      swap1\n      tag_19\n      jump\t// in\n    tag_18:\n      mload(0x40)\n      dup1\n      swap2\n      sub\n      swap1\n      return\n        /* \"extends.sol\":482:567  function f1() public view returns (string memory) {\r... */\n    tag_6:\n      tag_20\n      tag_21\n      jump\t// in\n    tag_20:\n      mload(0x40)\n      tag_22\n      swap2\n      swap1\n      tag_15\n      jump\t// in\n    tag_22:\n      mload(0x40)\n      dup1\n      swap2\n      sub\n      swap1\n      return\n        /* \"extends.sol\":293:369  function setUser(string memory _user) public {\r... */\n    tag_7:\n      tag_23\n      0x04\n      dup1\n      calldatasize\n      sub\n      dup2\n      add\n      swap1\n      tag_24\n      swap2\n      swap1\n      tag_25\n      jump\t// in\n    tag_24:\n      tag_26\n      jump\t// in\n    tag_23:\n      stop\n        /* \"extends.sol\":381:445  function setAge(uint8 _age) public {\r... */\n    tag_11:\n        /* \"extends.sol\":433:437  _age */\n      dup1\n        /* \"extends.sol\":427:430  age */\n      0x01\n      0x00\n        /* \"extends.sol\":427:437  age = _age */\n      0x0100\n      exp\n      dup2\n      sload\n      dup2\n      0xff\n      mul\n      not\n      and\n      swap1\n      dup4\n      0xff\n      and\n      mul\n      or\n      swap1\n      sstore\n      pop\n        /* \"extends.sol\":381:445  function setAge(uint8 _age) public {\r... */\n      pop\n      jump\t// out\n        /* \"extends.sol\":118:203  function getUser() public view returns (string memory) {\r... */\n    tag_13:\n        /* \"extends.sol\":158:171  string memory */\n      0x60\n        /* \"extends.sol\":191:195  user */\n      0x00\n        /* \"extends.sol\":184:195  return user */\n      dup1\n      sload\n      tag_29\n      swap1\n      tag_30\n      jump\t// in\n    tag_29:\n      dup1\n      0x1f\n      add\n      0x20\n      dup1\n      swap2\n      div\n      mul\n      0x20\n      add\n      mload(0x40)\n      swap1\n      dup2\n      add\n      0x40\n      mstore\n      dup1\n      swap3\n      swap2\n      swap1\n      dup2\n      dup2\n      mstore\n      0x20\n      add\n      dup3\n      dup1\n      sload\n      tag_31\n      swap1\n      tag_30\n      jump\t// in\n    tag_31:\n      dup1\n      iszero\n      tag_32\n      jumpi\n      dup1\n      0x1f\n      lt\n      tag_33\n      jumpi\n      0x0100\n      dup1\n      dup4\n      sload\n      div\n      mul\n      dup4\n      mstore\n      swap2\n      0x20\n      add\n      swap2\n      jump(tag_32)\n    tag_33:\n      dup3\n      add\n      swap2\n      swap1\n      0x00\n      mstore\n      keccak256(0x00, 0x20)\n      swap1\n    tag_34:\n      dup2\n      sload\n      dup2\n      mstore\n      swap1\n      0x01\n      add\n      swap1\n      0x20\n      add\n      dup1\n      dup4\n      gt\n      tag_34\n      jumpi\n      dup3\n      swap1\n      sub\n      0x1f\n      and\n      dup3\n      add\n      swap2\n    tag_32:\n      pop\n      pop\n      pop\n      pop\n      pop\n      swap1\n      pop\n        /* \"extends.sol\":118:203  function getUser() public view returns (string memory) {\r... */\n      swap1\n      jump\t// out\n        /* \"extends.sol\":211:285  function getAge() public view returns (uint) {\r... */\n    tag_17:\n        /* \"extends.sol\":250:254  uint */\n      0x00\n        /* \"extends.sol\":274:277  age */\n      0x01\n      0x00\n      swap1\n      sload\n      swap1\n      0x0100\n      exp\n      swap1\n      div\n      0xff\n      and\n        /* \"extends.sol\":267:277  return age */\n      0xff\n      and\n      swap1\n      pop\n        /* \"extends.sol\":211:285  function getAge() public view returns (uint) {\r... */\n      swap1\n      jump\t// out\n        /* \"extends.sol\":482:567  function f1() public view returns (string memory) {\r... */\n    tag_21:\n        /* \"extends.sol\":517:530  string memory */\n      0x60\n        /* \"extends.sol\":550:559  getUser() */\n      tag_37\n        /* \"extends.sol\":550:557  getUser */\n      tag_13\n        /* \"extends.sol\":550:559  getUser() */\n      jump\t// in\n    tag_37:\n        /* \"extends.sol\":543:559  return getUser() */\n      swap1\n      pop\n        /* \"extends.sol\":482:567  function f1() public view returns (string memory) {\r... */\n      swap1\n      jump\t// out\n        /* \"extends.sol\":293:369  function setUser(string memory _user) public {\r... */\n    tag_26:\n        /* \"extends.sol\":356:361  _user */\n      dup1\n        /* \"extends.sol\":349:353  user */\n      0x00\n        /* \"extends.sol\":349:361  user = _user */\n      swap1\n      dup1\n      mload\n      swap1\n      0x20\n      add\n      swap1\n      tag_39\n      swap3\n      swap2\n      swap1\n      tag_40\n      jump\t// in\n    tag_39:\n      pop\n        /* \"extends.sol\":293:369  function setUser(string memory _user) public {\r... */\n      pop\n      jump\t// out\n    tag_40:\n      dup3\n      dup1\n      sload\n      tag_41\n      swap1\n      tag_30\n      jump\t// in\n    tag_41:\n      swap1\n      0x00\n      mstore\n      keccak256(0x00, 0x20)\n      swap1\n      0x1f\n      add\n      0x20\n      swap1\n      div\n      dup2\n      add\n      swap3\n      dup3\n      tag_43\n      jumpi\n      0x00\n      dup6\n      sstore\n      jump(tag_42)\n    tag_43:\n      dup3\n      0x1f\n      lt\n      tag_44\n      jumpi\n      dup1\n      mload\n      not(0xff)\n      and\n      dup4\n      dup1\n      add\n      or\n      dup6\n      sstore\n      jump(tag_42)\n    tag_44:\n      dup3\n      dup1\n      add\n      0x01\n      add\n      dup6\n      sstore\n      dup3\n      iszero\n      tag_42\n      jumpi\n      swap2\n      dup3\n      add\n    tag_45:\n      dup3\n      dup2\n      gt\n      iszero\n      tag_46\n      jumpi\n      dup3\n      mload\n      dup3\n      sstore\n      swap2\n      0x20\n      add\n      swap2\n      swap1\n      0x01\n      add\n      swap1\n      jump(tag_45)\n    tag_46:\n    tag_42:\n      pop\n      swap1\n      pop\n      tag_47\n      swap2\n      swap1\n      tag_48\n      jump\t// in\n    tag_47:\n      pop\n      swap1\n      jump\t// out\n    tag_48:\n    tag_49:\n      dup1\n      dup3\n      gt\n      iszero\n      tag_50\n      jumpi\n      0x00\n      dup2\n      0x00\n      swap1\n      sstore\n      pop\n      0x01\n      add\n      jump(tag_49)\n    tag_50:\n      pop\n      swap1\n      jump\t// out\n        /* \"#utility.yul\":7:419   */\n    tag_52:\n        /* \"#utility.yul\":85:90   */\n      0x00\n        /* \"#utility.yul\":110:176   */\n      tag_54\n        /* \"#utility.yul\":126:175   */\n      tag_55\n        /* \"#utility.yul\":168:174   */\n      dup5\n        /* \"#utility.yul\":126:175   */\n      tag_56\n      jump\t// in\n    tag_55:\n        /* \"#utility.yul\":110:176   */\n      tag_57\n      jump\t// in\n    tag_54:\n        /* \"#utility.yul\":101:176   */\n      swap1\n      pop\n        /* \"#utility.yul\":199:205   */\n      dup3\n        /* \"#utility.yul\":192:197   */\n      dup2\n        /* \"#utility.yul\":185:206   */\n      mstore\n        /* \"#utility.yul\":237:241   */\n      0x20\n        /* \"#utility.yul\":230:235   */\n      dup2\n        /* \"#utility.yul\":226:242   */\n      add\n        /* \"#utility.yul\":275:278   */\n      dup5\n        /* \"#utility.yul\":266:272   */\n      dup5\n        /* \"#utility.yul\":261:264   */\n      dup5\n        /* \"#utility.yul\":257:273   */\n      add\n        /* \"#utility.yul\":254:279   */\n      gt\n        /* \"#utility.yul\":251:363   */\n      iszero\n      tag_58\n      jumpi\n        /* \"#utility.yul\":282:361   */\n      tag_59\n      tag_60\n      jump\t// in\n    tag_59:\n        /* \"#utility.yul\":251:363   */\n    tag_58:\n        /* \"#utility.yul\":372:413   */\n      tag_61\n        /* \"#utility.yul\":406:412   */\n      dup5\n        /* \"#utility.yul\":401:404   */\n      dup3\n        /* \"#utility.yul\":396:399   */\n      dup6\n        /* \"#utility.yul\":372:413   */\n      tag_62\n      jump\t// in\n    tag_61:\n        /* \"#utility.yul\":91:419   */\n      pop\n        /* \"#utility.yul\":7:419   */\n      swap4\n      swap3\n      pop\n      pop\n      pop\n      jump\t// out\n        /* \"#utility.yul\":439:779   */\n    tag_63:\n        /* \"#utility.yul\":495:500   */\n      0x00\n        /* \"#utility.yul\":544:547   */\n      dup3\n        /* \"#utility.yul\":537:541   */\n      0x1f\n        /* \"#utility.yul\":529:535   */\n      dup4\n        /* \"#utility.yul\":525:542   */\n      add\n        /* \"#utility.yul\":521:548   */\n      slt\n        /* \"#utility.yul\":511:633   */\n      tag_65\n      jumpi\n        /* \"#utility.yul\":552:631   */\n      tag_66\n      tag_67\n      jump\t// in\n    tag_66:\n        /* \"#utility.yul\":511:633   */\n    tag_65:\n        /* \"#utility.yul\":669:675   */\n      dup2\n        /* \"#utility.yul\":656:676   */\n      calldataload\n        /* \"#utility.yul\":694:773   */\n      tag_68\n        /* \"#utility.yul\":769:772   */\n      dup5\n        /* \"#utility.yul\":761:767   */\n      dup3\n        /* \"#utility.yul\":754:758   */\n      0x20\n        /* \"#utility.yul\":746:752   */\n      dup7\n        /* \"#utility.yul\":742:759   */\n      add\n        /* \"#utility.yul\":694:773   */\n      tag_52\n      jump\t// in\n    tag_68:\n        /* \"#utility.yul\":685:773   */\n      swap2\n      pop\n        /* \"#utility.yul\":501:779   */\n      pop\n        /* \"#utility.yul\":439:779   */\n      swap3\n      swap2\n      pop\n      pop\n      jump\t// out\n        /* \"#utility.yul\":785:920   */\n    tag_69:\n        /* \"#utility.yul\":829:834   */\n      0x00\n        /* \"#utility.yul\":867:873   */\n      dup2\n        /* \"#utility.yul\":854:874   */\n      calldataload\n        /* \"#utility.yul\":845:874   */\n      swap1\n      pop\n        /* \"#utility.yul\":883:914   */\n      tag_71\n        /* \"#utility.yul\":908:913   */\n      dup2\n        /* \"#utility.yul\":883:914   */\n      tag_72\n      jump\t// in\n    tag_71:\n        /* \"#utility.yul\":785:920   */\n      swap3\n      swap2\n      pop\n      pop\n      jump\t// out\n        /* \"#utility.yul\":926:1435   */\n    tag_25:\n        /* \"#utility.yul\":995:1001   */\n      0x00\n        /* \"#utility.yul\":1044:1046   */\n      0x20\n        /* \"#utility.yul\":1032:1041   */\n      dup3\n        /* \"#utility.yul\":1023:1030   */\n      dup5\n        /* \"#utility.yul\":1019:1042   */\n      sub\n        /* \"#utility.yul\":1015:1047   */\n      slt\n        /* \"#utility.yul\":1012:1131   */\n      iszero\n      tag_74\n      jumpi\n        /* \"#utility.yul\":1050:1129   */\n      tag_75\n      tag_76\n      jump\t// in\n    tag_75:\n        /* \"#utility.yul\":1012:1131   */\n    tag_74:\n        /* \"#utility.yul\":1198:1199   */\n      0x00\n        /* \"#utility.yul\":1187:1196   */\n      dup3\n        /* \"#utility.yul\":1183:1200   */\n      add\n        /* \"#utility.yul\":1170:1201   */\n      calldataload\n        /* \"#utility.yul\":1228:1246   */\n      0xffffffffffffffff\n        /* \"#utility.yul\":1220:1226   */\n      dup2\n        /* \"#utility.yul\":1217:1247   */\n      gt\n        /* \"#utility.yul\":1214:1331   */\n      iszero\n      tag_77\n      jumpi\n        /* \"#utility.yul\":1250:1329   */\n      tag_78\n      tag_79\n      jump\t// in\n    tag_78:\n        /* \"#utility.yul\":1214:1331   */\n    tag_77:\n        /* \"#utility.yul\":1355:1418   */\n      tag_80\n        /* \"#utility.yul\":1410:1417   */\n      dup5\n        /* \"#utility.yul\":1401:1407   */\n      dup3\n        /* \"#utility.yul\":1390:1399   */\n      dup6\n        /* \"#utility.yul\":1386:1408   */\n      add\n        /* \"#utility.yul\":1355:1418   */\n      tag_63\n      jump\t// in\n    tag_80:\n        /* \"#utility.yul\":1345:1418   */\n      swap2\n      pop\n        /* \"#utility.yul\":1141:1428   */\n      pop\n        /* \"#utility.yul\":926:1435   */\n      swap3\n      swap2\n      pop\n      pop\n      jump\t// out\n        /* \"#utility.yul\":1441:1766   */\n    tag_10:\n        /* \"#utility.yul\":1498:1504   */\n      0x00\n        /* \"#utility.yul\":1547:1549   */\n      0x20\n        /* \"#utility.yul\":1535:1544   */\n      dup3\n        /* \"#utility.yul\":1526:1533   */\n      dup5\n        /* \"#utility.yul\":1522:1545   */\n      sub\n        /* \"#utility.yul\":1518:1550   */\n      slt\n        /* \"#utility.yul\":1515:1634   */\n      iszero\n      tag_82\n      jumpi\n        /* \"#utility.yul\":1553:1632   */\n      tag_83\n      tag_76\n      jump\t// in\n    tag_83:\n        /* \"#utility.yul\":1515:1634   */\n    tag_82:\n        /* \"#utility.yul\":1673:1674   */\n      0x00\n        /* \"#utility.yul\":1698:1749   */\n      tag_84\n        /* \"#utility.yul\":1741:1748   */\n      dup5\n        /* \"#utility.yul\":1732:1738   */\n      dup3\n        /* \"#utility.yul\":1721:1730   */\n      dup6\n        /* \"#utility.yul\":1717:1739   */\n      add\n        /* \"#utility.yul\":1698:1749   */\n      tag_69\n      jump\t// in\n    tag_84:\n        /* \"#utility.yul\":1688:1749   */\n      swap2\n      pop\n        /* \"#utility.yul\":1644:1759   */\n      pop\n        /* \"#utility.yul\":1441:1766   */\n      swap3\n      swap2\n      pop\n      pop\n      jump\t// out\n        /* \"#utility.yul\":1772:2136   */\n    tag_85:\n        /* \"#utility.yul\":1860:1863   */\n      0x00\n        /* \"#utility.yul\":1888:1927   */\n      tag_87\n        /* \"#utility.yul\":1921:1926   */\n      dup3\n        /* \"#utility.yul\":1888:1927   */\n      tag_88\n      jump\t// in\n    tag_87:\n        /* \"#utility.yul\":1943:2014   */\n      tag_89\n        /* \"#utility.yul\":2007:2013   */\n      dup2\n        /* \"#utility.yul\":2002:2005   */\n      dup6\n        /* \"#utility.yul\":1943:2014   */\n      tag_90\n      jump\t// in\n    tag_89:\n        /* \"#utility.yul\":1936:2014   */\n      swap4\n      pop\n        /* \"#utility.yul\":2023:2075   */\n      tag_91\n        /* \"#utility.yul\":2068:2074   */\n      dup2\n        /* \"#utility.yul\":2063:2066   */\n      dup6\n        /* \"#utility.yul\":2056:2060   */\n      0x20\n        /* \"#utility.yul\":2049:2054   */\n      dup7\n        /* \"#utility.yul\":2045:2061   */\n      add\n        /* \"#utility.yul\":2023:2075   */\n      tag_92\n      jump\t// in\n    tag_91:\n        /* \"#utility.yul\":2100:2129   */\n      tag_93\n        /* \"#utility.yul\":2122:2128   */\n      dup2\n        /* \"#utility.yul\":2100:2129   */\n      tag_94\n      jump\t// in\n    tag_93:\n        /* \"#utility.yul\":2095:2098   */\n      dup5\n        /* \"#utility.yul\":2091:2130   */\n      add\n        /* \"#utility.yul\":2084:2130   */\n      swap2\n      pop\n        /* \"#utility.yul\":1864:2136   */\n      pop\n        /* \"#utility.yul\":1772:2136   */\n      swap3\n      swap2\n      pop\n      pop\n      jump\t// out\n        /* \"#utility.yul\":2142:2260   */\n    tag_95:\n        /* \"#utility.yul\":2229:2253   */\n      tag_97\n        /* \"#utility.yul\":2247:2252   */\n      dup2\n        /* \"#utility.yul\":2229:2253   */\n      tag_98\n      jump\t// in\n    tag_97:\n        /* \"#utility.yul\":2224:2227   */\n      dup3\n        /* \"#utility.yul\":2217:2254   */\n      mstore\n        /* \"#utility.yul\":2142:2260   */\n      pop\n      pop\n      jump\t// out\n        /* \"#utility.yul\":2266:2579   */\n    tag_15:\n        /* \"#utility.yul\":2379:2383   */\n      0x00\n        /* \"#utility.yul\":2417:2419   */\n      0x20\n        /* \"#utility.yul\":2406:2415   */\n      dup3\n        /* \"#utility.yul\":2402:2420   */\n      add\n        /* \"#utility.yul\":2394:2420   */\n      swap1\n      pop\n        /* \"#utility.yul\":2466:2475   */\n      dup2\n        /* \"#utility.yul\":2460:2464   */\n      dup2\n        /* \"#utility.yul\":2456:2476   */\n      sub\n        /* \"#utility.yul\":2452:2453   */\n      0x00\n        /* \"#utility.yul\":2441:2450   */\n      dup4\n        /* \"#utility.yul\":2437:2454   */\n      add\n        /* \"#utility.yul\":2430:2477   */\n      mstore\n        /* \"#utility.yul\":2494:2572   */\n      tag_100\n        /* \"#utility.yul\":2567:2571   */\n      dup2\n        /* \"#utility.yul\":2558:2564   */\n      dup5\n        /* \"#utility.yul\":2494:2572   */\n      tag_85\n      jump\t// in\n    tag_100:\n        /* \"#utility.yul\":2486:2572   */\n      swap1\n      pop\n        /* \"#utility.yul\":2266:2579   */\n      swap3\n      swap2\n      pop\n      pop\n      jump\t// out\n        /* \"#utility.yul\":2585:2807   */\n    tag_19:\n        /* \"#utility.yul\":2678:2682   */\n      0x00\n        /* \"#utility.yul\":2716:2718   */\n      0x20\n        /* \"#utility.yul\":2705:2714   */\n      dup3\n        /* \"#utility.yul\":2701:2719   */\n      add\n        /* \"#utility.yul\":2693:2719   */\n      swap1\n      pop\n        /* \"#utility.yul\":2729:2800   */\n      tag_102\n        /* \"#utility.yul\":2797:2798   */\n      0x00\n        /* \"#utility.yul\":2786:2795   */\n      dup4\n        /* \"#utility.yul\":2782:2799   */\n      add\n        /* \"#utility.yul\":2773:2779   */\n      dup5\n        /* \"#utility.yul\":2729:2800   */\n      tag_95\n      jump\t// in\n    tag_102:\n        /* \"#utility.yul\":2585:2807   */\n      swap3\n      swap2\n      pop\n      pop\n      jump\t// out\n        /* \"#utility.yul\":2813:2942   */\n    tag_57:\n        /* \"#utility.yul\":2847:2853   */\n      0x00\n        /* \"#utility.yul\":2874:2894   */\n      tag_104\n      tag_105\n      jump\t// in\n    tag_104:\n        /* \"#utility.yul\":2864:2894   */\n      swap1\n      pop\n        /* \"#utility.yul\":2903:2936   */\n      tag_106\n        /* \"#utility.yul\":2931:2935   */\n      dup3\n        /* \"#utility.yul\":2923:2929   */\n      dup3\n        /* \"#utility.yul\":2903:2936   */\n      tag_107\n      jump\t// in\n    tag_106:\n        /* \"#utility.yul\":2813:2942   */\n      swap2\n      swap1\n      pop\n      jump\t// out\n        /* \"#utility.yul\":2948:3023   */\n    tag_105:\n        /* \"#utility.yul\":2981:2987   */\n      0x00\n        /* \"#utility.yul\":3014:3016   */\n      0x40\n        /* \"#utility.yul\":3008:3017   */\n      mload\n        /* \"#utility.yul\":2998:3017   */\n      swap1\n      pop\n        /* \"#utility.yul\":2948:3023   */\n      swap1\n      jump\t// out\n        /* \"#utility.yul\":3029:3337   */\n    tag_56:\n        /* \"#utility.yul\":3091:3095   */\n      0x00\n        /* \"#utility.yul\":3181:3199   */\n      0xffffffffffffffff\n        /* \"#utility.yul\":3173:3179   */\n      dup3\n        /* \"#utility.yul\":3170:3200   */\n      gt\n        /* \"#utility.yul\":3167:3223   */\n      iszero\n      tag_110\n      jumpi\n        /* \"#utility.yul\":3203:3221   */\n      tag_111\n      tag_112\n      jump\t// in\n    tag_111:\n        /* \"#utility.yul\":3167:3223   */\n    tag_110:\n        /* \"#utility.yul\":3241:3270   */\n      tag_113\n        /* \"#utility.yul\":3263:3269   */\n      dup3\n        /* \"#utility.yul\":3241:3270   */\n      tag_94\n      jump\t// in\n    tag_113:\n        /* \"#utility.yul\":3233:3270   */\n      swap1\n      pop\n        /* \"#utility.yul\":3325:3329   */\n      0x20\n        /* \"#utility.yul\":3319:3323   */\n      dup2\n        /* \"#utility.yul\":3315:3330   */\n      add\n        /* \"#utility.yul\":3307:3330   */\n      swap1\n      pop\n        /* \"#utility.yul\":3029:3337   */\n      swap2\n      swap1\n      pop\n      jump\t// out\n        /* \"#utility.yul\":3343:3442   */\n    tag_88:\n        /* \"#utility.yul\":3395:3401   */\n      0x00\n        /* \"#utility.yul\":3429:3434   */\n      dup2\n        /* \"#utility.yul\":3423:3435   */\n      mload\n        /* \"#utility.yul\":3413:3435   */\n      swap1\n      pop\n        /* \"#utility.yul\":3343:3442   */\n      swap2\n      swap1\n      pop\n      jump\t// out\n        /* \"#utility.yul\":3448:3617   */\n    tag_90:\n        /* \"#utility.yul\":3532:3543   */\n      0x00\n        /* \"#utility.yul\":3566:3572   */\n      dup3\n        /* \"#utility.yul\":3561:3564   */\n      dup3\n        /* \"#utility.yul\":3554:3573   */\n      mstore\n        /* \"#utility.yul\":3606:3610   */\n      0x20\n        /* \"#utility.yul\":3601:3604   */\n      dup3\n        /* \"#utility.yul\":3597:3611   */\n      add\n        /* \"#utility.yul\":3582:3611   */\n      swap1\n      pop\n        /* \"#utility.yul\":3448:3617   */\n      swap3\n      swap2\n      pop\n      pop\n      jump\t// out\n        /* \"#utility.yul\":3623:3700   */\n    tag_98:\n        /* \"#utility.yul\":3660:3667   */\n      0x00\n        /* \"#utility.yul\":3689:3694   */\n      dup2\n        /* \"#utility.yul\":3678:3694   */\n      swap1\n      pop\n        /* \"#utility.yul\":3623:3700   */\n      swap2\n      swap1\n      pop\n      jump\t// out\n        /* \"#utility.yul\":3706:3792   */\n    tag_117:\n        /* \"#utility.yul\":3741:3748   */\n      0x00\n        /* \"#utility.yul\":3781:3785   */\n      0xff\n        /* \"#utility.yul\":3774:3779   */\n      dup3\n        /* \"#utility.yul\":3770:3786   */\n      and\n        /* \"#utility.yul\":3759:3786   */\n      swap1\n      pop\n        /* \"#utility.yul\":3706:3792   */\n      swap2\n      swap1\n      pop\n      jump\t// out\n        /* \"#utility.yul\":3798:3952   */\n    tag_62:\n        /* \"#utility.yul\":3882:3888   */\n      dup3\n        /* \"#utility.yul\":3877:3880   */\n      dup2\n        /* \"#utility.yul\":3872:3875   */\n      dup4\n        /* \"#utility.yul\":3859:3889   */\n      calldatacopy\n        /* \"#utility.yul\":3944:3945   */\n      0x00\n        /* \"#utility.yul\":3935:3941   */\n      dup4\n        /* \"#utility.yul\":3930:3933   */\n      dup4\n        /* \"#utility.yul\":3926:3942   */\n      add\n        /* \"#utility.yul\":3919:3946   */\n      mstore\n        /* \"#utility.yul\":3798:3952   */\n      pop\n      pop\n      pop\n      jump\t// out\n        /* \"#utility.yul\":3958:4265   */\n    tag_92:\n        /* \"#utility.yul\":4026:4027   */\n      0x00\n        /* \"#utility.yul\":4036:4149   */\n    tag_121:\n        /* \"#utility.yul\":4050:4056   */\n      dup4\n        /* \"#utility.yul\":4047:4048   */\n      dup2\n        /* \"#utility.yul\":4044:4057   */\n      lt\n        /* \"#utility.yul\":4036:4149   */\n      iszero\n      tag_123\n      jumpi\n        /* \"#utility.yul\":4135:4136   */\n      dup1\n        /* \"#utility.yul\":4130:4133   */\n      dup3\n        /* \"#utility.yul\":4126:4137   */\n      add\n        /* \"#utility.yul\":4120:4138   */\n      mload\n        /* \"#utility.yul\":4116:4117   */\n      dup2\n        /* \"#utility.yul\":4111:4114   */\n      dup5\n        /* \"#utility.yul\":4107:4118   */\n      add\n        /* \"#utility.yul\":4100:4139   */\n      mstore\n        /* \"#utility.yul\":4072:4074   */\n      0x20\n        /* \"#utility.yul\":4069:4070   */\n      dup2\n        /* \"#utility.yul\":4065:4075   */\n      add\n        /* \"#utility.yul\":4060:4075   */\n      swap1\n      pop\n        /* \"#utility.yul\":4036:4149   */\n      jump(tag_121)\n    tag_123:\n        /* \"#utility.yul\":4167:4173   */\n      dup4\n        /* \"#utility.yul\":4164:4165   */\n      dup2\n        /* \"#utility.yul\":4161:4174   */\n      gt\n        /* \"#utility.yul\":4158:4259   */\n      iszero\n      tag_124\n      jumpi\n        /* \"#utility.yul\":4247:4248   */\n      0x00\n        /* \"#utility.yul\":4238:4244   */\n      dup5\n        /* \"#utility.yul\":4233:4236   */\n      dup5\n        /* \"#utility.yul\":4229:4245   */\n      add\n        /* \"#utility.yul\":4222:4249   */\n      mstore\n        /* \"#utility.yul\":4158:4259   */\n    tag_124:\n        /* \"#utility.yul\":4007:4265   */\n      pop\n        /* \"#utility.yul\":3958:4265   */\n      pop\n      pop\n      pop\n      jump\t// out\n        /* \"#utility.yul\":4271:4591   */\n    tag_30:\n        /* \"#utility.yul\":4315:4321   */\n      0x00\n        /* \"#utility.yul\":4352:4353   */\n      0x02\n        /* \"#utility.yul\":4346:4350   */\n      dup3\n        /* \"#utility.yul\":4342:4354   */\n      div\n        /* \"#utility.yul\":4332:4354   */\n      swap1\n      pop\n        /* \"#utility.yul\":4399:4400   */\n      0x01\n        /* \"#utility.yul\":4393:4397   */\n      dup3\n        /* \"#utility.yul\":4389:4401   */\n      and\n        /* \"#utility.yul\":4420:4438   */\n      dup1\n        /* \"#utility.yul\":4410:4491   */\n      tag_126\n      jumpi\n        /* \"#utility.yul\":4476:4480   */\n      0x7f\n        /* \"#utility.yul\":4468:4474   */\n      dup3\n        /* \"#utility.yul\":4464:4481   */\n      and\n        /* \"#utility.yul\":4454:4481   */\n      swap2\n      pop\n        /* \"#utility.yul\":4410:4491   */\n    tag_126:\n        /* \"#utility.yul\":4538:4540   */\n      0x20\n        /* \"#utility.yul\":4530:4536   */\n      dup3\n        /* \"#utility.yul\":4527:4541   */\n      lt\n        /* \"#utility.yul\":4507:4525   */\n      dup2\n        /* \"#utility.yul\":4504:4542   */\n      eq\n        /* \"#utility.yul\":4501:4585   */\n      iszero\n      tag_127\n      jumpi\n        /* \"#utility.yul\":4557:4575   */\n      tag_128\n      tag_129\n      jump\t// in\n    tag_128:\n        /* \"#utility.yul\":4501:4585   */\n    tag_127:\n        /* \"#utility.yul\":4322:4591   */\n      pop\n        /* \"#utility.yul\":4271:4591   */\n      swap2\n      swap1\n      pop\n      jump\t// out\n        /* \"#utility.yul\":4597:4878   */\n    tag_107:\n        /* \"#utility.yul\":4680:4707   */\n      tag_131\n        /* \"#utility.yul\":4702:4706   */\n      dup3\n        /* \"#utility.yul\":4680:4707   */\n      tag_94\n      jump\t// in\n    tag_131:\n        /* \"#utility.yul\":4672:4678   */\n      dup2\n        /* \"#utility.yul\":4668:4708   */\n      add\n        /* \"#utility.yul\":4810:4816   */\n      dup2\n        /* \"#utility.yul\":4798:4808   */\n      dup2\n        /* \"#utility.yul\":4795:4817   */\n      lt\n        /* \"#utility.yul\":4774:4792   */\n      0xffffffffffffffff\n        /* \"#utility.yul\":4762:4772   */\n      dup3\n        /* \"#utility.yul\":4759:4793   */\n      gt\n        /* \"#utility.yul\":4756:4818   */\n      or\n        /* \"#utility.yul\":4753:4841   */\n      iszero\n      tag_132\n      jumpi\n        /* \"#utility.yul\":4821:4839   */\n      tag_133\n      tag_112\n      jump\t// in\n    tag_133:\n        /* \"#utility.yul\":4753:4841   */\n    tag_132:\n        /* \"#utility.yul\":4861:4871   */\n      dup1\n        /* \"#utility.yul\":4857:4859   */\n      0x40\n        /* \"#utility.yul\":4850:4872   */\n      mstore\n        /* \"#utility.yul\":4640:4878   */\n      pop\n        /* \"#utility.yul\":4597:4878   */\n      pop\n      pop\n      jump\t// out\n        /* \"#utility.yul\":4884:5064   */\n    tag_129:\n        /* \"#utility.yul\":4932:5009   */\n      0x4e487b7100000000000000000000000000000000000000000000000000000000\n        /* \"#utility.yul\":4929:4930   */\n      0x00\n        /* \"#utility.yul\":4922:5010   */\n      mstore\n        /* \"#utility.yul\":5029:5033   */\n      0x22\n        /* \"#utility.yul\":5026:5027   */\n      0x04\n        /* \"#utility.yul\":5019:5034   */\n      mstore\n        /* \"#utility.yul\":5053:5057   */\n      0x24\n        /* \"#utility.yul\":5050:5051   */\n      0x00\n        /* \"#utility.yul\":5043:5058   */\n      revert\n        /* \"#utility.yul\":5070:5250   */\n    tag_112:\n        /* \"#utility.yul\":5118:5195   */\n      0x4e487b7100000000000000000000000000000000000000000000000000000000\n        /* \"#utility.yul\":5115:5116   */\n      0x00\n        /* \"#utility.yul\":5108:5196   */\n      mstore\n        /* \"#utility.yul\":5215:5219   */\n      0x41\n        /* \"#utility.yul\":5212:5213   */\n      0x04\n        /* \"#utility.yul\":5205:5220   */\n      mstore\n        /* \"#utility.yul\":5239:5243   */\n      0x24\n        /* \"#utility.yul\":5236:5237   */\n      0x00\n        /* \"#utility.yul\":5229:5244   */\n      revert\n        /* \"#utility.yul\":5256:5373   */\n    tag_67:\n        /* \"#utility.yul\":5365:5366   */\n      0x00\n        /* \"#utility.yul\":5362:5363   */\n      dup1\n        /* \"#utility.yul\":5355:5367   */\n      revert\n        /* \"#utility.yul\":5379:5496   */\n    tag_60:\n        /* \"#utility.yul\":5488:5489   */\n      0x00\n        /* \"#utility.yul\":5485:5486   */\n      dup1\n        /* \"#utility.yul\":5478:5490   */\n      revert\n        /* \"#utility.yul\":5502:5619   */\n    tag_79:\n        /* \"#utility.yul\":5611:5612   */\n      0x00\n        /* \"#utility.yul\":5608:5609   */\n      dup1\n        /* \"#utility.yul\":5601:5613   */\n      revert\n        /* \"#utility.yul\":5625:5742   */\n    tag_76:\n        /* \"#utility.yul\":5734:5735   */\n      0x00\n        /* \"#utility.yul\":5731:5732   */\n      dup1\n        /* \"#utility.yul\":5724:5736   */\n      revert\n        /* \"#utility.yul\":5748:5850   */\n    tag_94:\n        /* \"#utility.yul\":5789:5795   */\n      0x00\n        /* \"#utility.yul\":5840:5842   */\n      0x1f\n        /* \"#utility.yul\":5836:5843   */\n      not\n        /* \"#utility.yul\":5831:5833   */\n      0x1f\n        /* \"#utility.yul\":5824:5829   */\n      dup4\n        /* \"#utility.yul\":5820:5834   */\n      add\n        /* \"#utility.yul\":5816:5844   */\n      and\n        /* \"#utility.yul\":5806:5844   */\n      swap1\n      pop\n        /* \"#utility.yul\":5748:5850   */\n      swap2\n      swap1\n      pop\n      jump\t// out\n        /* \"#utility.yul\":5856:5974   */\n    tag_72:\n        /* \"#utility.yul\":5927:5949   */\n      tag_142\n        /* \"#utility.yul\":5943:5948   */\n      dup2\n        /* \"#utility.yul\":5927:5949   */\n      tag_117\n      jump\t// in\n    tag_142:\n        /* \"#utility.yul\":5920:5925   */\n      dup2\n        /* \"#utility.yul\":5917:5950   */\n      eq\n        /* \"#utility.yul\":5907:5968   */\n      tag_143\n      jumpi\n        /* \"#utility.yul\":5964:5965   */\n      0x00\n        /* \"#utility.yul\":5961:5962   */\n      dup1\n        /* \"#utility.yul\":5954:5966   */\n      revert\n        /* \"#utility.yul\":5907:5968   */\n    tag_143:\n        /* \"#utility.yul\":5856:5974   */\n      pop\n      jump\t// out\n\n    auxdata: 0xa2646970667358221220cbd302f8d56ca4510e07705b0d467bd31f580291171f9a33c6140d5bb893a17764736f6c63430008070033\n}\n",
				"bytecode": {
					"linkReferences": {},
					"object": "608060405234801561001057600080fd5b50610602806100206000396000f3fe608060405234801561001057600080fd5b50600436106100575760003560e01c80635b0c8d701461005c578063832880e714610078578063967e6e6514610096578063c27fc305146100b4578063d0020fad146100d2575b600080fd5b61007660048036038101906100719190610352565b6100ee565b005b61008061010c565b60405161008d91906103c7565b60405180910390f35b61009e61019e565b6040516100ab91906103e9565b60405180910390f35b6100bc6101b8565b6040516100c991906103c7565b60405180910390f35b6100ec60048036038101906100e79190610309565b6101c7565b005b80600160006101000a81548160ff021916908360ff16021790555050565b60606000805461011b906104cf565b80601f0160208091040260200160405190810160405280929190818152602001828054610147906104cf565b80156101945780601f1061016957610100808354040283529160200191610194565b820191906000526020600020905b81548152906001019060200180831161017757829003601f168201915b5050505050905090565b6000600160009054906101000a900460ff1660ff16905090565b60606101c261010c565b905090565b80600090805190602001906101dd9291906101e1565b5050565b8280546101ed906104cf565b90600052602060002090601f01602090048101928261020f5760008555610256565b82601f1061022857805160ff1916838001178555610256565b82800160010185558215610256579182015b8281111561025557825182559160200191906001019061023a565b5b5090506102639190610267565b5090565b5b80821115610280576000816000905550600101610268565b5090565b600061029761029284610429565b610404565b9050828152602081018484840111156102b3576102b2610595565b5b6102be84828561048d565b509392505050565b600082601f8301126102db576102da610590565b5b81356102eb848260208601610284565b91505092915050565b600081359050610303816105b5565b92915050565b60006020828403121561031f5761031e61059f565b5b600082013567ffffffffffffffff81111561033d5761033c61059a565b5b610349848285016102c6565b91505092915050565b6000602082840312156103685761036761059f565b5b6000610376848285016102f4565b91505092915050565b600061038a8261045a565b6103948185610465565b93506103a481856020860161049c565b6103ad816105a4565b840191505092915050565b6103c181610476565b82525050565b600060208201905081810360008301526103e1818461037f565b905092915050565b60006020820190506103fe60008301846103b8565b92915050565b600061040e61041f565b905061041a8282610501565b919050565b6000604051905090565b600067ffffffffffffffff82111561044457610443610561565b5b61044d826105a4565b9050602081019050919050565b600081519050919050565b600082825260208201905092915050565b6000819050919050565b600060ff82169050919050565b82818337600083830152505050565b60005b838110156104ba57808201518184015260208101905061049f565b838111156104c9576000848401525b50505050565b600060028204905060018216806104e757607f821691505b602082108114156104fb576104fa610532565b5b50919050565b61050a826105a4565b810181811067ffffffffffffffff8211171561052957610528610561565b5b80604052505050565b7f4e487b7100000000000000000000000000000000000000000000000000000000600052602260045260246000fd5b7f4e487b7100000000000000000000000000000000000000000000000000000000600052604160045260246000fd5b600080fd5b600080fd5b600080fd5b600080fd5b6000601f19601f8301169050919050565b6105be81610480565b81146105c957600080fd5b5056fea2646970667358221220cbd302f8d56ca4510e07705b0d467bd31f580291171f9a33c6140d5bb893a17764736f6c63430008070033",
					"opcodes": "PUSH1 0x80 PUSH1 0x40 MSTORE CALLVALUE DUP1 ISZERO PUSH2 0x10 JUMPI PUSH1 0x0 DUP1 REVERT JUMPDEST POP PUSH2 0x602 DUP1 PUSH2 0x20 PUSH1 0x0 CODECOPY PUSH1 0x0 RETURN INVALID PUSH1 0x80 PUSH1 0x40 MSTORE CALLVALUE DUP1 ISZERO PUSH2 0x10 JUMPI PUSH1 0x0 DUP1 REVERT JUMPDEST POP PUSH1 0x4 CALLDATASIZE LT PUSH2 0x57 JUMPI PUSH1 0x0 CALLDATALOAD PUSH1 0xE0 SHR DUP1 PUSH4 0x5B0C8D70 EQ PUSH2 0x5C JUMPI DUP1 PUSH4 0x832880E7 EQ PUSH2 0x78 JUMPI DUP1 PUSH4 0x967E6E65 EQ PUSH2 0x96 JUMPI DUP1 PUSH4 0xC27FC305 EQ PUSH2 0xB4 JUMPI DUP1 PUSH4 0xD0020FAD EQ PUSH2 0xD2 JUMPI JUMPDEST PUSH1 0x0 DUP1 REVERT JUMPDEST PUSH2 0x76 PUSH1 0x4 DUP1 CALLDATASIZE SUB DUP2 ADD SWAP1 PUSH2 0x71 SWAP2 SWAP1 PUSH2 0x352 JUMP JUMPDEST PUSH2 0xEE JUMP JUMPDEST STOP JUMPDEST PUSH2 0x80 PUSH2 0x10C JUMP JUMPDEST PUSH1 0x40 MLOAD PUSH2 0x8D SWAP2 SWAP1 PUSH2 0x3C7 JUMP JUMPDEST PUSH1 0x40 MLOAD DUP1 SWAP2 SUB SWAP1 RETURN JUMPDEST PUSH2 0x9E PUSH2 0x19E JUMP JUMPDEST PUSH1 0x40 MLOAD PUSH2 0xAB SWAP2 SWAP1 PUSH2 0x3E9 JUMP JUMPDEST PUSH1 0x40 MLOAD DUP1 SWAP2 SUB SWAP1 RETURN JUMPDEST PUSH2 0xBC PUSH2 0x1B8 JUMP JUMPDEST PUSH1 0x40 MLOAD PUSH2 0xC9 SWAP2 SWAP1 PUSH2 0x3C7 JUMP JUMPDEST PUSH1 0x40 MLOAD DUP1 SWAP2 SUB SWAP1 RETURN JUMPDEST PUSH2 0xEC PUSH1 0x4 DUP1 CALLDATASIZE SUB DUP2 ADD SWAP1 PUSH2 0xE7 SWAP2 SWAP1 PUSH2 0x309 JUMP JUMPDEST PUSH2 0x1C7 JUMP JUMPDEST STOP JUMPDEST DUP1 PUSH1 0x1 PUSH1 0x0 PUSH2 0x100 EXP DUP2 SLOAD DUP2 PUSH1 0xFF MUL NOT AND SWAP1 DUP4 PUSH1 0xFF AND MUL OR SWAP1 SSTORE POP POP JUMP JUMPDEST PUSH1 0x60 PUSH1 0x0 DUP1 SLOAD PUSH2 0x11B SWAP1 PUSH2 0x4CF JUMP JUMPDEST DUP1 PUSH1 0x1F ADD PUSH1 0x20 DUP1 SWAP2 DIV MUL PUSH1 0x20 ADD PUSH1 0x40 MLOAD SWAP1 DUP2 ADD PUSH1 0x40 MSTORE DUP1 SWAP3 SWAP2 SWAP1 DUP2 DUP2 MSTORE PUSH1 0x20 ADD DUP3 DUP1 SLOAD PUSH2 0x147 SWAP1 PUSH2 0x4CF JUMP JUMPDEST DUP1 ISZERO PUSH2 0x194 JUMPI DUP1 PUSH1 0x1F LT PUSH2 0x169 JUMPI PUSH2 0x100 DUP1 DUP4 SLOAD DIV MUL DUP4 MSTORE SWAP2 PUSH1 0x20 ADD SWAP2 PUSH2 0x194 JUMP JUMPDEST DUP3 ADD SWAP2 SWAP1 PUSH1 0x0 MSTORE PUSH1 0x20 PUSH1 0x0 KECCAK256 SWAP1 JUMPDEST DUP2 SLOAD DUP2 MSTORE SWAP1 PUSH1 0x1 ADD SWAP1 PUSH1 0x20 ADD DUP1 DUP4 GT PUSH2 0x177 JUMPI DUP3 SWAP1 SUB PUSH1 0x1F AND DUP3 ADD SWAP2 JUMPDEST POP POP POP POP POP SWAP1 POP SWAP1 JUMP JUMPDEST PUSH1 0x0 PUSH1 0x1 PUSH1 0x0 SWAP1 SLOAD SWAP1 PUSH2 0x100 EXP SWAP1 DIV PUSH1 0xFF AND PUSH1 0xFF AND SWAP1 POP SWAP1 JUMP JUMPDEST PUSH1 0x60 PUSH2 0x1C2 PUSH2 0x10C JUMP JUMPDEST SWAP1 POP SWAP1 JUMP JUMPDEST DUP1 PUSH1 0x0 SWAP1 DUP1 MLOAD SWAP1 PUSH1 0x20 ADD SWAP1 PUSH2 0x1DD SWAP3 SWAP2 SWAP1 PUSH2 0x1E1 JUMP JUMPDEST POP POP JUMP JUMPDEST DUP3 DUP1 SLOAD PUSH2 0x1ED SWAP1 PUSH2 0x4CF JUMP JUMPDEST SWAP1 PUSH1 0x0 MSTORE PUSH1 0x20 PUSH1 0x0 KECCAK256 SWAP1 PUSH1 0x1F ADD PUSH1 0x20 SWAP1 DIV DUP2 ADD SWAP3 DUP3 PUSH2 0x20F JUMPI PUSH1 0x0 DUP6 SSTORE PUSH2 0x256 JUMP JUMPDEST DUP3 PUSH1 0x1F LT PUSH2 0x228 JUMPI DUP1 MLOAD PUSH1 0xFF NOT AND DUP4 DUP1 ADD OR DUP6 SSTORE PUSH2 0x256 JUMP JUMPDEST DUP3 DUP1 ADD PUSH1 0x1 ADD DUP6 SSTORE DUP3 ISZERO PUSH2 0x256 JUMPI SWAP2 DUP3 ADD JUMPDEST DUP3 DUP2 GT ISZERO PUSH2 0x255 JUMPI DUP3 MLOAD DUP3 SSTORE SWAP2 PUSH1 0x20 ADD SWAP2 SWAP1 PUSH1 0x1 ADD SWAP1 PUSH2 0x23A JUMP JUMPDEST JUMPDEST POP SWAP1 POP PUSH2 0x263 SWAP2 SWAP1 PUSH2 0x267 JUMP JUMPDEST POP SWAP1 JUMP JUMPDEST JUMPDEST DUP1 DUP3 GT ISZERO PUSH2 0x280 JUMPI PUSH1 0x0 DUP2 PUSH1 0x0 SWAP1 SSTORE POP PUSH1 0x1 ADD PUSH2 0x268 JUMP JUMPDEST POP SWAP1 JUMP JUMPDEST PUSH1 0x0 PUSH2 0x297 PUSH2 0x292 DUP5 PUSH2 0x429 JUMP JUMPDEST PUSH2 0x404 JUMP JUMPDEST SWAP1 POP DUP3 DUP2 MSTORE PUSH1 0x20 DUP2 ADD DUP5 DUP5 DUP5 ADD GT ISZERO PUSH2 0x2B3 JUMPI PUSH2 0x2B2 PUSH2 0x595 JUMP JUMPDEST JUMPDEST PUSH2 0x2BE DUP5 DUP3 DUP6 PUSH2 0x48D JUMP JUMPDEST POP SWAP4 SWAP3 POP POP POP JUMP JUMPDEST PUSH1 0x0 DUP3 PUSH1 0x1F DUP4 ADD SLT PUSH2 0x2DB JUMPI PUSH2 0x2DA PUSH2 0x590 JUMP JUMPDEST JUMPDEST DUP2 CALLDATALOAD PUSH2 0x2EB DUP5 DUP3 PUSH1 0x20 DUP7 ADD PUSH2 0x284 JUMP JUMPDEST SWAP2 POP POP SWAP3 SWAP2 POP POP JUMP JUMPDEST PUSH1 0x0 DUP2 CALLDATALOAD SWAP1 POP PUSH2 0x303 DUP2 PUSH2 0x5B5 JUMP JUMPDEST SWAP3 SWAP2 POP POP JUMP JUMPDEST PUSH1 0x0 PUSH1 0x20 DUP3 DUP5 SUB SLT ISZERO PUSH2 0x31F JUMPI PUSH2 0x31E PUSH2 0x59F JUMP JUMPDEST JUMPDEST PUSH1 0x0 DUP3 ADD CALLDATALOAD PUSH8 0xFFFFFFFFFFFFFFFF DUP2 GT ISZERO PUSH2 0x33D JUMPI PUSH2 0x33C PUSH2 0x59A JUMP JUMPDEST JUMPDEST PUSH2 0x349 DUP5 DUP3 DUP6 ADD PUSH2 0x2C6 JUMP JUMPDEST SWAP2 POP POP SWAP3 SWAP2 POP POP JUMP JUMPDEST PUSH1 0x0 PUSH1 0x20 DUP3 DUP5 SUB SLT ISZERO PUSH2 0x368 JUMPI PUSH2 0x367 PUSH2 0x59F JUMP JUMPDEST JUMPDEST PUSH1 0x0 PUSH2 0x376 DUP5 DUP3 DUP6 ADD PUSH2 0x2F4 JUMP JUMPDEST SWAP2 POP POP SWAP3 SWAP2 POP POP JUMP JUMPDEST PUSH1 0x0 PUSH2 0x38A DUP3 PUSH2 0x45A JUMP JUMPDEST PUSH2 0x394 DUP2 DUP6 PUSH2 0x465 JUMP JUMPDEST SWAP4 POP PUSH2 0x3A4 DUP2 DUP6 PUSH1 0x20 DUP7 ADD PUSH2 0x49C JUMP JUMPDEST PUSH2 0x3AD DUP2 PUSH2 0x5A4 JUMP JUMPDEST DUP5 ADD SWAP2 POP POP SWAP3 SWAP2 POP POP JUMP JUMPDEST PUSH2 0x3C1 DUP2 PUSH2 0x476 JUMP JUMPDEST DUP3 MSTORE POP POP JUMP JUMPDEST PUSH1 0x0 PUSH1 0x20 DUP3 ADD SWAP1 POP DUP2 DUP2 SUB PUSH1 0x0 DUP4 ADD MSTORE PUSH2 0x3E1 DUP2 DUP5 PUSH2 0x37F JUMP JUMPDEST SWAP1 POP SWAP3 SWAP2 POP POP JUMP JUMPDEST PUSH1 0x0 PUSH1 0x20 DUP3 ADD SWAP1 POP PUSH2 0x3FE PUSH1 0x0 DUP4 ADD DUP5 PUSH2 0x3B8 JUMP JUMPDEST SWAP3 SWAP2 POP POP JUMP JUMPDEST PUSH1 0x0 PUSH2 0x40E PUSH2 0x41F JUMP JUMPDEST SWAP1 POP PUSH2 0x41A DUP3 DUP3 PUSH2 0x501 JUMP JUMPDEST SWAP2 SWAP1 POP JUMP JUMPDEST PUSH1 0x0 PUSH1 0x40 MLOAD SWAP1 POP SWAP1 JUMP JUMPDEST PUSH1 0x0 PUSH8 0xFFFFFFFFFFFFFFFF DUP3 GT ISZERO PUSH2 0x444 JUMPI PUSH2 0x443 PUSH2 0x561 JUMP JUMPDEST JUMPDEST PUSH2 0x44D DUP3 PUSH2 0x5A4 JUMP JUMPDEST SWAP1 POP PUSH1 0x20 DUP2 ADD SWAP1 POP SWAP2 SWAP1 POP JUMP JUMPDEST PUSH1 0x0 DUP2 MLOAD SWAP1 POP SWAP2 SWAP1 POP JUMP JUMPDEST PUSH1 0x0 DUP3 DUP3 MSTORE PUSH1 0x20 DUP3 ADD SWAP1 POP SWAP3 SWAP2 POP POP JUMP JUMPDEST PUSH1 0x0 DUP2 SWAP1 POP SWAP2 SWAP1 POP JUMP JUMPDEST PUSH1 0x0 PUSH1 0xFF DUP3 AND SWAP1 POP SWAP2 SWAP1 POP JUMP JUMPDEST DUP3 DUP2 DUP4 CALLDATACOPY PUSH1 0x0 DUP4 DUP4 ADD MSTORE POP POP POP JUMP JUMPDEST PUSH1 0x0 JUMPDEST DUP4 DUP2 LT ISZERO PUSH2 0x4BA JUMPI DUP1 DUP3 ADD MLOAD DUP2 DUP5 ADD MSTORE PUSH1 0x20 DUP2 ADD SWAP1 POP PUSH2 0x49F JUMP JUMPDEST DUP4 DUP2 GT ISZERO PUSH2 0x4C9 JUMPI PUSH1 0x0 DUP5 DUP5 ADD MSTORE JUMPDEST POP POP POP POP JUMP JUMPDEST PUSH1 0x0 PUSH1 0x2 DUP3 DIV SWAP1 POP PUSH1 0x1 DUP3 AND DUP1 PUSH2 0x4E7 JUMPI PUSH1 0x7F DUP3 AND SWAP2 POP JUMPDEST PUSH1 0x20 DUP3 LT DUP2 EQ ISZERO PUSH2 0x4FB JUMPI PUSH2 0x4FA PUSH2 0x532 JUMP JUMPDEST JUMPDEST POP SWAP2 SWAP1 POP JUMP JUMPDEST PUSH2 0x50A DUP3 PUSH2 0x5A4 JUMP JUMPDEST DUP2 ADD DUP2 DUP2 LT PUSH8 0xFFFFFFFFFFFFFFFF DUP3 GT OR ISZERO PUSH2 0x529 JUMPI PUSH2 0x528 PUSH2 0x561 JUMP JUMPDEST JUMPDEST DUP1 PUSH1 0x40 MSTORE POP POP POP JUMP JUMPDEST PUSH32 0x4E487B7100000000000000000000000000000000000000000000000000000000 PUSH1 0x0 MSTORE PUSH1 0x22 PUSH1 0x4 MSTORE PUSH1 0x24 PUSH1 0x0 REVERT JUMPDEST PUSH32 0x4E487B7100000000000000000000000000000000000000000000000000000000 PUSH1 0x0 MSTORE PUSH1 0x41 PUSH1 0x4 MSTORE PUSH1 0x24 PUSH1 0x0 REVERT JUMPDEST PUSH1 0x0 DUP1 REVERT JUMPDEST PUSH1 0x0 DUP1 REVERT JUMPDEST PUSH1 0x0 DUP1 REVERT JUMPDEST PUSH1 0x0 DUP1 REVERT JUMPDEST PUSH1 0x0 PUSH1 0x1F NOT PUSH1 0x1F DUP4 ADD AND SWAP1 POP SWAP2 SWAP1 POP JUMP JUMPDEST PUSH2 0x5BE DUP2 PUSH2 0x480 JUMP JUMPDEST DUP2 EQ PUSH2 0x5C9 JUMPI PUSH1 0x0 DUP1 REVERT JUMPDEST POP JUMP INVALID LOG2 PUSH5 0x6970667358 0x22 SLT KECCAK256 0xCB 0xD3 MUL 0xF8 0xD5 PUSH13 0xA4510E07705B0D467BD31F5802 SWAP2 OR 0x1F SWAP11 CALLER 0xC6 EQ 0xD JUMPDEST 0xB8 SWAP4 LOG1 PUSH24 0x64736F6C6343000807003300000000000000000000000000 "
				},
				"gasEstimates": {
					"creation": {
						"codeDepositCost": "307600",
						"executionCost": "349",
						"totalCost": "307949"
					},
					"external": {
						"f1()": "infinite",
						"getAge()": "2501",
						"getUser()": "infinite",
						"setAge(uint8)": "24657",
						"setUser(string)": "infinite"
					}
				},
				"methodIdentifiers": {
					"f1()": "c27fc305",
					"getAge()": "967e6e65",
					"getUser()": "832880e7",
					"setAge(uint8)": "5b0c8d70",
					"setUser(string)": "d0020fad"
				}
			},
			"storageLayout": {
				"storage": [
					{
						"astId": 3,
						"contract": "extends.sol:Man",
						"label": "user",
						"offset": 0,
						"slot": "0",
						"type": "t_string_storage"
					},
					{
						"astId": 5,
						"contract": "extends.sol:Man",
						"label": "age",
						"offset": 0,
						"slot": "1",
						"type": "t_uint8"
					}
				],
				"types": {
					"t_string_storage": {
						"encoding": "bytes",
						"label": "string",
						"numberOfBytes": "32"
					},
					"t_uint8": {
						"encoding": "inplace",
						"label": "uint8",
						"numberOfBytes": "1"
					}
				}
			},
			"userdoc": {
				"kind": "user",
				"methods": {},
				"version": 1
			}
		}
	}
}