{
	"array.sol": {
		"ArrayTest": {
			"abi": [
				{
					"inputs": [
						{
							"internalType": "string",
							"name": "_bookName",
							"type": "string"
						}
					],
					"name": "createReadList",
					"outputs": [],
					"stateMutability": "nonpayable",
					"type": "function"
				},
				{
					"inputs": [
						{
							"internalType": "string",
							"name": "bookName",
							"type": "string"
						},
						{
							"internalType": "uint256",
							"name": "_status",
							"type": "uint256"
						}
					],
					"name": "editReadList",
					"outputs": [],
					"stateMutability": "nonpayable",
					"type": "function"
				},
				{
					"inputs": [
						{
							"internalType": "uint256",
							"name": "status",
							"type": "uint256"
						}
					],
					"name": "getReadList",
					"outputs": [
						{
							"components": [
								{
									"internalType": "uint256",
									"name": "status",
									"type": "uint256"
								},
								{
									"internalType": "string",
									"name": "bookName",
									"type": "string"
								}
							],
							"internalType": "struct ArrayTest.Book",
							"name": "",
							"type": "tuple"
						}
					],
					"stateMutability": "view",
					"type": "function"
				}
			],
			"devdoc": {
				"kind": "dev",
				"methods": {},
				"version": 1
			},
			"evm": {
				"assembly": "    /* \"array.sol\":61:724  contract ArrayTest {\r... */\n  mstore(0x40, 0x80)\n  callvalue\n  dup1\n  iszero\n  tag_1\n  jumpi\n  0x00\n  dup1\n  revert\ntag_1:\n  pop\n  dataSize(sub_0)\n  dup1\n  dataOffset(sub_0)\n  0x00\n  codecopy\n  0x00\n  return\nstop\n\nsub_0: assembly {\n        /* \"array.sol\":61:724  contract ArrayTest {\r... */\n      mstore(0x40, 0x80)\n      callvalue\n      dup1\n      iszero\n      tag_1\n      jumpi\n      0x00\n      dup1\n      revert\n    tag_1:\n      pop\n      jumpi(tag_2, lt(calldatasize, 0x04))\n      shr(0xe0, calldataload(0x00))\n      dup1\n      0x234c6686\n      eq\n      tag_3\n      jumpi\n      dup1\n      0x904d54d2\n      eq\n      tag_4\n      jumpi\n      dup1\n      0xfb2996fd\n      eq\n      tag_5\n      jumpi\n    tag_2:\n      0x00\n      dup1\n      revert\n        /* \"array.sol\":324:483  function createReadList(string memory _bookName) public {\r... */\n    tag_3:\n      tag_6\n      0x04\n      dup1\n      calldatasize\n      sub\n      dup2\n      add\n      swap1\n      tag_7\n      swap2\n      swap1\n      tag_8\n      jump\t// in\n    tag_7:\n      tag_9\n      jump\t// in\n    tag_6:\n      stop\n        /* \"array.sol\":615:721  function getReadList(uint status) public view returns (Book memory) {\r... */\n    tag_4:\n      tag_10\n      0x04\n      dup1\n      calldatasize\n      sub\n      dup2\n      add\n      swap1\n      tag_11\n      swap2\n      swap1\n      tag_12\n      jump\t// in\n    tag_11:\n      tag_13\n      jump\t// in\n    tag_10:\n      mload(0x40)\n      tag_14\n      swap2\n      swap1\n      tag_15\n      jump\t// in\n    tag_14:\n      mload(0x40)\n      dup1\n      swap2\n      sub\n      swap1\n      return\n        /* \"array.sol\":491:607  function editReadList(string memory bookName,uint _status) public {\r... */\n    tag_5:\n      tag_16\n      0x04\n      dup1\n      calldatasize\n      sub\n      dup2\n      add\n      swap1\n      tag_17\n      swap2\n      swap1\n      tag_18\n      jump\t// in\n    tag_17:\n      tag_19\n      jump\t// in\n    tag_16:\n      stop\n        /* \"array.sol\":324:483  function createReadList(string memory _bookName) public {\r... */\n    tag_9:\n        /* \"array.sol\":391:395  list */\n      0x00\n        /* \"array.sol\":401:474  Book({\r... */\n      mload(0x40)\n      dup1\n      0x40\n      add\n      0x40\n      mstore\n      dup1\n        /* \"array.sol\":428:429  0 */\n      0x00\n        /* \"array.sol\":401:474  Book({\r... */\n      dup2\n      mstore\n      0x20\n      add\n        /* \"array.sol\":453:462  _bookName */\n      dup4\n        /* \"array.sol\":401:474  Book({\r... */\n      dup2\n      mstore\n      pop\n        /* \"array.sol\":391:475  list.push(Book({\r... */\n      swap1\n      dup1\n      0x01\n      dup2\n      sload\n      add\n      dup1\n      dup3\n      sstore\n      dup1\n      swap2\n      pop\n      pop\n      0x01\n      swap1\n      sub\n      swap1\n      0x00\n      mstore\n      keccak256(0x00, 0x20)\n      swap1\n      0x02\n      mul\n      add\n      0x00\n      swap1\n      swap2\n      swap1\n      swap2\n      swap1\n      swap2\n      pop\n      0x00\n      dup3\n      add\n      mload\n      dup2\n      0x00\n      add\n      sstore\n      0x20\n      dup3\n      add\n      mload\n      dup2\n      0x01\n      add\n      swap1\n      dup1\n      mload\n      swap1\n      0x20\n      add\n      swap1\n      tag_22\n      swap3\n      swap2\n      swap1\n      tag_23\n      jump\t// in\n    tag_22:\n      pop\n      pop\n      pop\n        /* \"array.sol\":324:483  function createReadList(string memory _bookName) public {\r... */\n      pop\n      jump\t// out\n        /* \"array.sol\":615:721  function getReadList(uint status) public view returns (Book memory) {\r... */\n    tag_13:\n        /* \"array.sol\":670:681  Book memory */\n      tag_24\n      tag_25\n      jump\t// in\n    tag_24:\n        /* \"array.sol\":701:705  book */\n      0x01\n        /* \"array.sol\":701:713  book[status] */\n      0x00\n        /* \"array.sol\":706:712  status */\n      dup4\n        /* \"array.sol\":701:713  book[status] */\n      dup2\n      mstore\n      0x20\n      add\n      swap1\n      dup2\n      mstore\n      0x20\n      add\n      0x00\n      keccak256\n        /* \"array.sol\":694:713  return book[status] */\n      mload(0x40)\n      dup1\n      0x40\n      add\n      0x40\n      mstore\n      swap1\n      dup2\n      0x00\n      dup3\n      add\n      sload\n      dup2\n      mstore\n      0x20\n      add\n      0x01\n      dup3\n      add\n      dup1\n      sload\n      tag_27\n      swap1\n      tag_28\n      jump\t// in\n    tag_27:\n      dup1\n      0x1f\n      add\n      0x20\n      dup1\n      swap2\n      div\n      mul\n      0x20\n      add\n      mload(0x40)\n      swap1\n      dup2\n      add\n      0x40\n      mstore\n      dup1\n      swap3\n      swap2\n      swap1\n      dup2\n      dup2\n      mstore\n      0x20\n      add\n      dup3\n      dup1\n      sload\n      tag_29\n      swap1\n      tag_28\n      jump\t// in\n    tag_29:\n      dup1\n      iszero\n      tag_30\n      jumpi\n      dup1\n      0x1f\n      lt\n      tag_31\n      jumpi\n      0x0100\n      dup1\n      dup4\n      sload\n      div\n      mul\n      dup4\n      mstore\n      swap2\n      0x20\n      add\n      swap2\n      jump(tag_30)\n    tag_31:\n      dup3\n      add\n      swap2\n      swap1\n      0x00\n      mstore\n      keccak256(0x00, 0x20)\n      swap1\n    tag_32:\n      dup2\n      sload\n      dup2\n      mstore\n      swap1\n      0x01\n      add\n      swap1\n      0x20\n      add\n      dup1\n      dup4\n      gt\n      tag_32\n      jumpi\n      dup3\n      swap1\n      sub\n      0x1f\n      and\n      dup3\n      add\n      swap2\n    tag_30:\n      pop\n      pop\n      pop\n      pop\n      pop\n      dup2\n      mstore\n      pop\n      pop\n      swap1\n      pop\n        /* \"array.sol\":615:721  function getReadList(uint status) public view returns (Book memory) {\r... */\n      swap2\n      swap1\n      pop\n      jump\t// out\n        /* \"array.sol\":491:607  function editReadList(string memory bookName,uint _status) public {\r... */\n    tag_19:\n      pop\n      pop\n      jump\t// out\n    tag_23:\n      dup3\n      dup1\n      sload\n      tag_34\n      swap1\n      tag_28\n      jump\t// in\n    tag_34:\n      swap1\n      0x00\n      mstore\n      keccak256(0x00, 0x20)\n      swap1\n      0x1f\n      add\n      0x20\n      swap1\n      div\n      dup2\n      add\n      swap3\n      dup3\n      tag_36\n      jumpi\n      0x00\n      dup6\n      sstore\n      jump(tag_35)\n    tag_36:\n      dup3\n      0x1f\n      lt\n      tag_37\n      jumpi\n      dup1\n      mload\n      not(0xff)\n      and\n      dup4\n      dup1\n      add\n      or\n      dup6\n      sstore\n      jump(tag_35)\n    tag_37:\n      dup3\n      dup1\n      add\n      0x01\n      add\n      dup6\n      sstore\n      dup3\n      iszero\n      tag_35\n      jumpi\n      swap2\n      dup3\n      add\n    tag_38:\n      dup3\n      dup2\n      gt\n      iszero\n      tag_39\n      jumpi\n      dup3\n      mload\n      dup3\n      sstore\n      swap2\n      0x20\n      add\n      swap2\n      swap1\n      0x01\n      add\n      swap1\n      jump(tag_38)\n    tag_39:\n    tag_35:\n      pop\n      swap1\n      pop\n      tag_40\n      swap2\n      swap1\n      tag_41\n      jump\t// in\n    tag_40:\n      pop\n      swap1\n      jump\t// out\n    tag_25:\n      mload(0x40)\n      dup1\n      0x40\n      add\n      0x40\n      mstore\n      dup1\n      0x00\n      dup2\n      mstore\n      0x20\n      add\n      0x60\n      dup2\n      mstore\n      pop\n      swap1\n      jump\t// out\n    tag_41:\n    tag_42:\n      dup1\n      dup3\n      gt\n      iszero\n      tag_43\n      jumpi\n      0x00\n      dup2\n      0x00\n      swap1\n      sstore\n      pop\n      0x01\n      add\n      jump(tag_42)\n    tag_43:\n      pop\n      swap1\n      jump\t// out\n        /* \"#utility.yul\":7:419   */\n    tag_45:\n        /* \"#utility.yul\":85:90   */\n      0x00\n        /* \"#utility.yul\":110:176   */\n      tag_47\n        /* \"#utility.yul\":126:175   */\n      tag_48\n        /* \"#utility.yul\":168:174   */\n      dup5\n        /* \"#utility.yul\":126:175   */\n      tag_49\n      jump\t// in\n    tag_48:\n        /* \"#utility.yul\":110:176   */\n      tag_50\n      jump\t// in\n    tag_47:\n        /* \"#utility.yul\":101:176   */\n      swap1\n      pop\n        /* \"#utility.yul\":199:205   */\n      dup3\n        /* \"#utility.yul\":192:197   */\n      dup2\n        /* \"#utility.yul\":185:206   */\n      mstore\n        /* \"#utility.yul\":237:241   */\n      0x20\n        /* \"#utility.yul\":230:235   */\n      dup2\n        /* \"#utility.yul\":226:242   */\n      add\n        /* \"#utility.yul\":275:278   */\n      dup5\n        /* \"#utility.yul\":266:272   */\n      dup5\n        /* \"#utility.yul\":261:264   */\n      dup5\n        /* \"#utility.yul\":257:273   */\n      add\n        /* \"#utility.yul\":254:279   */\n      gt\n        /* \"#utility.yul\":251:363   */\n      iszero\n      tag_51\n      jumpi\n        /* \"#utility.yul\":282:361   */\n      tag_52\n      tag_53\n      jump\t// in\n    tag_52:\n        /* \"#utility.yul\":251:363   */\n    tag_51:\n        /* \"#utility.yul\":372:413   */\n      tag_54\n        /* \"#utility.yul\":406:412   */\n      dup5\n        /* \"#utility.yul\":401:404   */\n      dup3\n        /* \"#utility.yul\":396:399   */\n      dup6\n        /* \"#utility.yul\":372:413   */\n      tag_55\n      jump\t// in\n    tag_54:\n        /* \"#utility.yul\":91:419   */\n      pop\n        /* \"#utility.yul\":7:419   */\n      swap4\n      swap3\n      pop\n      pop\n      pop\n      jump\t// out\n        /* \"#utility.yul\":439:779   */\n    tag_56:\n        /* \"#utility.yul\":495:500   */\n      0x00\n        /* \"#utility.yul\":544:547   */\n      dup3\n        /* \"#utility.yul\":537:541   */\n      0x1f\n        /* \"#utility.yul\":529:535   */\n      dup4\n        /* \"#utility.yul\":525:542   */\n      add\n        /* \"#utility.yul\":521:548   */\n      slt\n        /* \"#utility.yul\":511:633   */\n      tag_58\n      jumpi\n        /* \"#utility.yul\":552:631   */\n      tag_59\n      tag_60\n      jump\t// in\n    tag_59:\n        /* \"#utility.yul\":511:633   */\n    tag_58:\n        /* \"#utility.yul\":669:675   */\n      dup2\n        /* \"#utility.yul\":656:676   */\n      calldataload\n        /* \"#utility.yul\":694:773   */\n      tag_61\n        /* \"#utility.yul\":769:772   */\n      dup5\n        /* \"#utility.yul\":761:767   */\n      dup3\n        /* \"#utility.yul\":754:758   */\n      0x20\n        /* \"#utility.yul\":746:752   */\n      dup7\n        /* \"#utility.yul\":742:759   */\n      add\n        /* \"#utility.yul\":694:773   */\n      tag_45\n      jump\t// in\n    tag_61:\n        /* \"#utility.yul\":685:773   */\n      swap2\n      pop\n        /* \"#utility.yul\":501:779   */\n      pop\n        /* \"#utility.yul\":439:779   */\n      swap3\n      swap2\n      pop\n      pop\n      jump\t// out\n        /* \"#utility.yul\":785:924   */\n    tag_62:\n        /* \"#utility.yul\":831:836   */\n      0x00\n        /* \"#utility.yul\":869:875   */\n      dup2\n        /* \"#utility.yul\":856:876   */\n      calldataload\n        /* \"#utility.yul\":847:876   */\n      swap1\n      pop\n        /* \"#utility.yul\":885:918   */\n      tag_64\n        /* \"#utility.yul\":912:917   */\n      dup2\n        /* \"#utility.yul\":885:918   */\n      tag_65\n      jump\t// in\n    tag_64:\n        /* \"#utility.yul\":785:924   */\n      swap3\n      swap2\n      pop\n      pop\n      jump\t// out\n        /* \"#utility.yul\":930:1439   */\n    tag_8:\n        /* \"#utility.yul\":999:1005   */\n      0x00\n        /* \"#utility.yul\":1048:1050   */\n      0x20\n        /* \"#utility.yul\":1036:1045   */\n      dup3\n        /* \"#utility.yul\":1027:1034   */\n      dup5\n        /* \"#utility.yul\":1023:1046   */\n      sub\n        /* \"#utility.yul\":1019:1051   */\n      slt\n        /* \"#utility.yul\":1016:1135   */\n      iszero\n      tag_67\n      jumpi\n        /* \"#utility.yul\":1054:1133   */\n      tag_68\n      tag_69\n      jump\t// in\n    tag_68:\n        /* \"#utility.yul\":1016:1135   */\n    tag_67:\n        /* \"#utility.yul\":1202:1203   */\n      0x00\n        /* \"#utility.yul\":1191:1200   */\n      dup3\n        /* \"#utility.yul\":1187:1204   */\n      add\n        /* \"#utility.yul\":1174:1205   */\n      calldataload\n        /* \"#utility.yul\":1232:1250   */\n      0xffffffffffffffff\n        /* \"#utility.yul\":1224:1230   */\n      dup2\n        /* \"#utility.yul\":1221:1251   */\n      gt\n        /* \"#utility.yul\":1218:1335   */\n      iszero\n      tag_70\n      jumpi\n        /* \"#utility.yul\":1254:1333   */\n      tag_71\n      tag_72\n      jump\t// in\n    tag_71:\n        /* \"#utility.yul\":1218:1335   */\n    tag_70:\n        /* \"#utility.yul\":1359:1422   */\n      tag_73\n        /* \"#utility.yul\":1414:1421   */\n      dup5\n        /* \"#utility.yul\":1405:1411   */\n      dup3\n        /* \"#utility.yul\":1394:1403   */\n      dup6\n        /* \"#utility.yul\":1390:1412   */\n      add\n        /* \"#utility.yul\":1359:1422   */\n      tag_56\n      jump\t// in\n    tag_73:\n        /* \"#utility.yul\":1349:1422   */\n      swap2\n      pop\n        /* \"#utility.yul\":1145:1432   */\n      pop\n        /* \"#utility.yul\":930:1439   */\n      swap3\n      swap2\n      pop\n      pop\n      jump\t// out\n        /* \"#utility.yul\":1445:2099   */\n    tag_18:\n        /* \"#utility.yul\":1523:1529   */\n      0x00\n        /* \"#utility.yul\":1531:1537   */\n      dup1\n        /* \"#utility.yul\":1580:1582   */\n      0x40\n        /* \"#utility.yul\":1568:1577   */\n      dup4\n        /* \"#utility.yul\":1559:1566   */\n      dup6\n        /* \"#utility.yul\":1555:1578   */\n      sub\n        /* \"#utility.yul\":1551:1583   */\n      slt\n        /* \"#utility.yul\":1548:1667   */\n      iszero\n      tag_75\n      jumpi\n        /* \"#utility.yul\":1586:1665   */\n      tag_76\n      tag_69\n      jump\t// in\n    tag_76:\n        /* \"#utility.yul\":1548:1667   */\n    tag_75:\n        /* \"#utility.yul\":1734:1735   */\n      0x00\n        /* \"#utility.yul\":1723:1732   */\n      dup4\n        /* \"#utility.yul\":1719:1736   */\n      add\n        /* \"#utility.yul\":1706:1737   */\n      calldataload\n        /* \"#utility.yul\":1764:1782   */\n      0xffffffffffffffff\n        /* \"#utility.yul\":1756:1762   */\n      dup2\n        /* \"#utility.yul\":1753:1783   */\n      gt\n        /* \"#utility.yul\":1750:1867   */\n      iszero\n      tag_77\n      jumpi\n        /* \"#utility.yul\":1786:1865   */\n      tag_78\n      tag_72\n      jump\t// in\n    tag_78:\n        /* \"#utility.yul\":1750:1867   */\n    tag_77:\n        /* \"#utility.yul\":1891:1954   */\n      tag_79\n        /* \"#utility.yul\":1946:1953   */\n      dup6\n        /* \"#utility.yul\":1937:1943   */\n      dup3\n        /* \"#utility.yul\":1926:1935   */\n      dup7\n        /* \"#utility.yul\":1922:1944   */\n      add\n        /* \"#utility.yul\":1891:1954   */\n      tag_56\n      jump\t// in\n    tag_79:\n        /* \"#utility.yul\":1881:1954   */\n      swap3\n      pop\n        /* \"#utility.yul\":1677:1964   */\n      pop\n        /* \"#utility.yul\":2003:2005   */\n      0x20\n        /* \"#utility.yul\":2029:2082   */\n      tag_80\n        /* \"#utility.yul\":2074:2081   */\n      dup6\n        /* \"#utility.yul\":2065:2071   */\n      dup3\n        /* \"#utility.yul\":2054:2063   */\n      dup7\n        /* \"#utility.yul\":2050:2072   */\n      add\n        /* \"#utility.yul\":2029:2082   */\n      tag_62\n      jump\t// in\n    tag_80:\n        /* \"#utility.yul\":2019:2082   */\n      swap2\n      pop\n        /* \"#utility.yul\":1974:2092   */\n      pop\n        /* \"#utility.yul\":1445:2099   */\n      swap3\n      pop\n      swap3\n      swap1\n      pop\n      jump\t// out\n        /* \"#utility.yul\":2105:2434   */\n    tag_12:\n        /* \"#utility.yul\":2164:2170   */\n      0x00\n        /* \"#utility.yul\":2213:2215   */\n      0x20\n        /* \"#utility.yul\":2201:2210   */\n      dup3\n        /* \"#utility.yul\":2192:2199   */\n      dup5\n        /* \"#utility.yul\":2188:2211   */\n      sub\n        /* \"#utility.yul\":2184:2216   */\n      slt\n        /* \"#utility.yul\":2181:2300   */\n      iszero\n      tag_82\n      jumpi\n        /* \"#utility.yul\":2219:2298   */\n      tag_83\n      tag_69\n      jump\t// in\n    tag_83:\n        /* \"#utility.yul\":2181:2300   */\n    tag_82:\n        /* \"#utility.yul\":2339:2340   */\n      0x00\n        /* \"#utility.yul\":2364:2417   */\n      tag_84\n        /* \"#utility.yul\":2409:2416   */\n      dup5\n        /* \"#utility.yul\":2400:2406   */\n      dup3\n        /* \"#utility.yul\":2389:2398   */\n      dup6\n        /* \"#utility.yul\":2385:2407   */\n      add\n        /* \"#utility.yul\":2364:2417   */\n      tag_62\n      jump\t// in\n    tag_84:\n        /* \"#utility.yul\":2354:2417   */\n      swap2\n      pop\n        /* \"#utility.yul\":2310:2427   */\n      pop\n        /* \"#utility.yul\":2105:2434   */\n      swap3\n      swap2\n      pop\n      pop\n      jump\t// out\n        /* \"#utility.yul\":2440:2784   */\n    tag_85:\n        /* \"#utility.yul\":2518:2521   */\n      0x00\n        /* \"#utility.yul\":2546:2585   */\n      tag_87\n        /* \"#utility.yul\":2579:2584   */\n      dup3\n        /* \"#utility.yul\":2546:2585   */\n      tag_88\n      jump\t// in\n    tag_87:\n        /* \"#utility.yul\":2601:2662   */\n      tag_89\n        /* \"#utility.yul\":2655:2661   */\n      dup2\n        /* \"#utility.yul\":2650:2653   */\n      dup6\n        /* \"#utility.yul\":2601:2662   */\n      tag_90\n      jump\t// in\n    tag_89:\n        /* \"#utility.yul\":2594:2662   */\n      swap4\n      pop\n        /* \"#utility.yul\":2671:2723   */\n      tag_91\n        /* \"#utility.yul\":2716:2722   */\n      dup2\n        /* \"#utility.yul\":2711:2714   */\n      dup6\n        /* \"#utility.yul\":2704:2708   */\n      0x20\n        /* \"#utility.yul\":2697:2702   */\n      dup7\n        /* \"#utility.yul\":2693:2709   */\n      add\n        /* \"#utility.yul\":2671:2723   */\n      tag_92\n      jump\t// in\n    tag_91:\n        /* \"#utility.yul\":2748:2777   */\n      tag_93\n        /* \"#utility.yul\":2770:2776   */\n      dup2\n        /* \"#utility.yul\":2748:2777   */\n      tag_94\n      jump\t// in\n    tag_93:\n        /* \"#utility.yul\":2743:2746   */\n      dup5\n        /* \"#utility.yul\":2739:2778   */\n      add\n        /* \"#utility.yul\":2732:2778   */\n      swap2\n      pop\n        /* \"#utility.yul\":2522:2784   */\n      pop\n        /* \"#utility.yul\":2440:2784   */\n      swap3\n      swap2\n      pop\n      pop\n      jump\t// out\n        /* \"#utility.yul\":2844:3444   */\n    tag_95:\n        /* \"#utility.yul\":2951:2954   */\n      0x00\n        /* \"#utility.yul\":2987:2991   */\n      0x40\n        /* \"#utility.yul\":2982:2985   */\n      dup4\n        /* \"#utility.yul\":2978:2992   */\n      add\n        /* \"#utility.yul\":3076:3080   */\n      0x00\n        /* \"#utility.yul\":3069:3074   */\n      dup4\n        /* \"#utility.yul\":3065:3081   */\n      add\n        /* \"#utility.yul\":3059:3082   */\n      mload\n        /* \"#utility.yul\":3095:3158   */\n      tag_97\n        /* \"#utility.yul\":3152:3156   */\n      0x00\n        /* \"#utility.yul\":3147:3150   */\n      dup7\n        /* \"#utility.yul\":3143:3157   */\n      add\n        /* \"#utility.yul\":3129:3141   */\n      dup3\n        /* \"#utility.yul\":3095:3158   */\n      tag_98\n      jump\t// in\n    tag_97:\n        /* \"#utility.yul\":3002:3168   */\n      pop\n        /* \"#utility.yul\":3254:3258   */\n      0x20\n        /* \"#utility.yul\":3247:3252   */\n      dup4\n        /* \"#utility.yul\":3243:3259   */\n      add\n        /* \"#utility.yul\":3237:3260   */\n      mload\n        /* \"#utility.yul\":3307:3310   */\n      dup5\n        /* \"#utility.yul\":3301:3305   */\n      dup3\n        /* \"#utility.yul\":3297:3311   */\n      sub\n        /* \"#utility.yul\":3290:3294   */\n      0x20\n        /* \"#utility.yul\":3285:3288   */\n      dup7\n        /* \"#utility.yul\":3281:3295   */\n      add\n        /* \"#utility.yul\":3274:3312   */\n      mstore\n        /* \"#utility.yul\":3333:3406   */\n      tag_99\n        /* \"#utility.yul\":3401:3405   */\n      dup3\n        /* \"#utility.yul\":3387:3399   */\n      dup3\n        /* \"#utility.yul\":3333:3406   */\n      tag_85\n      jump\t// in\n    tag_99:\n        /* \"#utility.yul\":3325:3406   */\n      swap2\n      pop\n        /* \"#utility.yul\":3178:3417   */\n      pop\n        /* \"#utility.yul\":3434:3438   */\n      dup1\n        /* \"#utility.yul\":3427:3438   */\n      swap2\n      pop\n        /* \"#utility.yul\":2956:3444   */\n      pop\n        /* \"#utility.yul\":2844:3444   */\n      swap3\n      swap2\n      pop\n      pop\n      jump\t// out\n        /* \"#utility.yul\":3450:3558   */\n    tag_98:\n        /* \"#utility.yul\":3527:3551   */\n      tag_101\n        /* \"#utility.yul\":3545:3550   */\n      dup2\n        /* \"#utility.yul\":3527:3551   */\n      tag_102\n      jump\t// in\n    tag_101:\n        /* \"#utility.yul\":3522:3525   */\n      dup3\n        /* \"#utility.yul\":3515:3552   */\n      mstore\n        /* \"#utility.yul\":3450:3558   */\n      pop\n      pop\n      jump\t// out\n        /* \"#utility.yul\":3564:3913   */\n    tag_15:\n        /* \"#utility.yul\":3695:3699   */\n      0x00\n        /* \"#utility.yul\":3733:3735   */\n      0x20\n        /* \"#utility.yul\":3722:3731   */\n      dup3\n        /* \"#utility.yul\":3718:3736   */\n      add\n        /* \"#utility.yul\":3710:3736   */\n      swap1\n      pop\n        /* \"#utility.yul\":3782:3791   */\n      dup2\n        /* \"#utility.yul\":3776:3780   */\n      dup2\n        /* \"#utility.yul\":3772:3792   */\n      sub\n        /* \"#utility.yul\":3768:3769   */\n      0x00\n        /* \"#utility.yul\":3757:3766   */\n      dup4\n        /* \"#utility.yul\":3753:3770   */\n      add\n        /* \"#utility.yul\":3746:3793   */\n      mstore\n        /* \"#utility.yul\":3810:3906   */\n      tag_104\n        /* \"#utility.yul\":3901:3905   */\n      dup2\n        /* \"#utility.yul\":3892:3898   */\n      dup5\n        /* \"#utility.yul\":3810:3906   */\n      tag_95\n      jump\t// in\n    tag_104:\n        /* \"#utility.yul\":3802:3906   */\n      swap1\n      pop\n        /* \"#utility.yul\":3564:3913   */\n      swap3\n      swap2\n      pop\n      pop\n      jump\t// out\n        /* \"#utility.yul\":3919:4048   */\n    tag_50:\n        /* \"#utility.yul\":3953:3959   */\n      0x00\n        /* \"#utility.yul\":3980:4000   */\n      tag_106\n      tag_107\n      jump\t// in\n    tag_106:\n        /* \"#utility.yul\":3970:4000   */\n      swap1\n      pop\n        /* \"#utility.yul\":4009:4042   */\n      tag_108\n        /* \"#utility.yul\":4037:4041   */\n      dup3\n        /* \"#utility.yul\":4029:4035   */\n      dup3\n        /* \"#utility.yul\":4009:4042   */\n      tag_109\n      jump\t// in\n    tag_108:\n        /* \"#utility.yul\":3919:4048   */\n      swap2\n      swap1\n      pop\n      jump\t// out\n        /* \"#utility.yul\":4054:4129   */\n    tag_107:\n        /* \"#utility.yul\":4087:4093   */\n      0x00\n        /* \"#utility.yul\":4120:4122   */\n      0x40\n        /* \"#utility.yul\":4114:4123   */\n      mload\n        /* \"#utility.yul\":4104:4123   */\n      swap1\n      pop\n        /* \"#utility.yul\":4054:4129   */\n      swap1\n      jump\t// out\n        /* \"#utility.yul\":4135:4443   */\n    tag_49:\n        /* \"#utility.yul\":4197:4201   */\n      0x00\n        /* \"#utility.yul\":4287:4305   */\n      0xffffffffffffffff\n        /* \"#utility.yul\":4279:4285   */\n      dup3\n        /* \"#utility.yul\":4276:4306   */\n      gt\n        /* \"#utility.yul\":4273:4329   */\n      iszero\n      tag_112\n      jumpi\n        /* \"#utility.yul\":4309:4327   */\n      tag_113\n      tag_114\n      jump\t// in\n    tag_113:\n        /* \"#utility.yul\":4273:4329   */\n    tag_112:\n        /* \"#utility.yul\":4347:4376   */\n      tag_115\n        /* \"#utility.yul\":4369:4375   */\n      dup3\n        /* \"#utility.yul\":4347:4376   */\n      tag_94\n      jump\t// in\n    tag_115:\n        /* \"#utility.yul\":4339:4376   */\n      swap1\n      pop\n        /* \"#utility.yul\":4431:4435   */\n      0x20\n        /* \"#utility.yul\":4425:4429   */\n      dup2\n        /* \"#utility.yul\":4421:4436   */\n      add\n        /* \"#utility.yul\":4413:4436   */\n      swap1\n      pop\n        /* \"#utility.yul\":4135:4443   */\n      swap2\n      swap1\n      pop\n      jump\t// out\n        /* \"#utility.yul\":4449:4548   */\n    tag_88:\n        /* \"#utility.yul\":4501:4507   */\n      0x00\n        /* \"#utility.yul\":4535:4540   */\n      dup2\n        /* \"#utility.yul\":4529:4541   */\n      mload\n        /* \"#utility.yul\":4519:4541   */\n      swap1\n      pop\n        /* \"#utility.yul\":4449:4548   */\n      swap2\n      swap1\n      pop\n      jump\t// out\n        /* \"#utility.yul\":4554:4713   */\n    tag_90:\n        /* \"#utility.yul\":4628:4639   */\n      0x00\n        /* \"#utility.yul\":4662:4668   */\n      dup3\n        /* \"#utility.yul\":4657:4660   */\n      dup3\n        /* \"#utility.yul\":4650:4669   */\n      mstore\n        /* \"#utility.yul\":4702:4706   */\n      0x20\n        /* \"#utility.yul\":4697:4700   */\n      dup3\n        /* \"#utility.yul\":4693:4707   */\n      add\n        /* \"#utility.yul\":4678:4707   */\n      swap1\n      pop\n        /* \"#utility.yul\":4554:4713   */\n      swap3\n      swap2\n      pop\n      pop\n      jump\t// out\n        /* \"#utility.yul\":4719:4796   */\n    tag_102:\n        /* \"#utility.yul\":4756:4763   */\n      0x00\n        /* \"#utility.yul\":4785:4790   */\n      dup2\n        /* \"#utility.yul\":4774:4790   */\n      swap1\n      pop\n        /* \"#utility.yul\":4719:4796   */\n      swap2\n      swap1\n      pop\n      jump\t// out\n        /* \"#utility.yul\":4802:4956   */\n    tag_55:\n        /* \"#utility.yul\":4886:4892   */\n      dup3\n        /* \"#utility.yul\":4881:4884   */\n      dup2\n        /* \"#utility.yul\":4876:4879   */\n      dup4\n        /* \"#utility.yul\":4863:4893   */\n      calldatacopy\n        /* \"#utility.yul\":4948:4949   */\n      0x00\n        /* \"#utility.yul\":4939:4945   */\n      dup4\n        /* \"#utility.yul\":4934:4937   */\n      dup4\n        /* \"#utility.yul\":4930:4946   */\n      add\n        /* \"#utility.yul\":4923:4950   */\n      mstore\n        /* \"#utility.yul\":4802:4956   */\n      pop\n      pop\n      pop\n      jump\t// out\n        /* \"#utility.yul\":4962:5269   */\n    tag_92:\n        /* \"#utility.yul\":5030:5031   */\n      0x00\n        /* \"#utility.yul\":5040:5153   */\n    tag_121:\n        /* \"#utility.yul\":5054:5060   */\n      dup4\n        /* \"#utility.yul\":5051:5052   */\n      dup2\n        /* \"#utility.yul\":5048:5061   */\n      lt\n        /* \"#utility.yul\":5040:5153   */\n      iszero\n      tag_123\n      jumpi\n        /* \"#utility.yul\":5139:5140   */\n      dup1\n        /* \"#utility.yul\":5134:5137   */\n      dup3\n        /* \"#utility.yul\":5130:5141   */\n      add\n        /* \"#utility.yul\":5124:5142   */\n      mload\n        /* \"#utility.yul\":5120:5121   */\n      dup2\n        /* \"#utility.yul\":5115:5118   */\n      dup5\n        /* \"#utility.yul\":5111:5122   */\n      add\n        /* \"#utility.yul\":5104:5143   */\n      mstore\n        /* \"#utility.yul\":5076:5078   */\n      0x20\n        /* \"#utility.yul\":5073:5074   */\n      dup2\n        /* \"#utility.yul\":5069:5079   */\n      add\n        /* \"#utility.yul\":5064:5079   */\n      swap1\n      pop\n        /* \"#utility.yul\":5040:5153   */\n      jump(tag_121)\n    tag_123:\n        /* \"#utility.yul\":5171:5177   */\n      dup4\n        /* \"#utility.yul\":5168:5169   */\n      dup2\n        /* \"#utility.yul\":5165:5178   */\n      gt\n        /* \"#utility.yul\":5162:5263   */\n      iszero\n      tag_124\n      jumpi\n        /* \"#utility.yul\":5251:5252   */\n      0x00\n        /* \"#utility.yul\":5242:5248   */\n      dup5\n        /* \"#utility.yul\":5237:5240   */\n      dup5\n        /* \"#utility.yul\":5233:5249   */\n      add\n        /* \"#utility.yul\":5226:5253   */\n      mstore\n        /* \"#utility.yul\":5162:5263   */\n    tag_124:\n        /* \"#utility.yul\":5011:5269   */\n      pop\n        /* \"#utility.yul\":4962:5269   */\n      pop\n      pop\n      pop\n      jump\t// out\n        /* \"#utility.yul\":5275:5595   */\n    tag_28:\n        /* \"#utility.yul\":5319:5325   */\n      0x00\n        /* \"#utility.yul\":5356:5357   */\n      0x02\n        /* \"#utility.yul\":5350:5354   */\n      dup3\n        /* \"#utility.yul\":5346:5358   */\n      div\n        /* \"#utility.yul\":5336:5358   */\n      swap1\n      pop\n        /* \"#utility.yul\":5403:5404   */\n      0x01\n        /* \"#utility.yul\":5397:5401   */\n      dup3\n        /* \"#utility.yul\":5393:5405   */\n      and\n        /* \"#utility.yul\":5424:5442   */\n      dup1\n        /* \"#utility.yul\":5414:5495   */\n      tag_126\n      jumpi\n        /* \"#utility.yul\":5480:5484   */\n      0x7f\n        /* \"#utility.yul\":5472:5478   */\n      dup3\n        /* \"#utility.yul\":5468:5485   */\n      and\n        /* \"#utility.yul\":5458:5485   */\n      swap2\n      pop\n        /* \"#utility.yul\":5414:5495   */\n    tag_126:\n        /* \"#utility.yul\":5542:5544   */\n      0x20\n        /* \"#utility.yul\":5534:5540   */\n      dup3\n        /* \"#utility.yul\":5531:5545   */\n      lt\n        /* \"#utility.yul\":5511:5529   */\n      dup2\n        /* \"#utility.yul\":5508:5546   */\n      eq\n        /* \"#utility.yul\":5505:5589   */\n      iszero\n      tag_127\n      jumpi\n        /* \"#utility.yul\":5561:5579   */\n      tag_128\n      tag_129\n      jump\t// in\n    tag_128:\n        /* \"#utility.yul\":5505:5589   */\n    tag_127:\n        /* \"#utility.yul\":5326:5595   */\n      pop\n        /* \"#utility.yul\":5275:5595   */\n      swap2\n      swap1\n      pop\n      jump\t// out\n        /* \"#utility.yul\":5601:5882   */\n    tag_109:\n        /* \"#utility.yul\":5684:5711   */\n      tag_131\n        /* \"#utility.yul\":5706:5710   */\n      dup3\n        /* \"#utility.yul\":5684:5711   */\n      tag_94\n      jump\t// in\n    tag_131:\n        /* \"#utility.yul\":5676:5682   */\n      dup2\n        /* \"#utility.yul\":5672:5712   */\n      add\n        /* \"#utility.yul\":5814:5820   */\n      dup2\n        /* \"#utility.yul\":5802:5812   */\n      dup2\n        /* \"#utility.yul\":5799:5821   */\n      lt\n        /* \"#utility.yul\":5778:5796   */\n      0xffffffffffffffff\n        /* \"#utility.yul\":5766:5776   */\n      dup3\n        /* \"#utility.yul\":5763:5797   */\n      gt\n        /* \"#utility.yul\":5760:5822   */\n      or\n        /* \"#utility.yul\":5757:5845   */\n      iszero\n      tag_132\n      jumpi\n        /* \"#utility.yul\":5825:5843   */\n      tag_133\n      tag_114\n      jump\t// in\n    tag_133:\n        /* \"#utility.yul\":5757:5845   */\n    tag_132:\n        /* \"#utility.yul\":5865:5875   */\n      dup1\n        /* \"#utility.yul\":5861:5863   */\n      0x40\n        /* \"#utility.yul\":5854:5876   */\n      mstore\n        /* \"#utility.yul\":5644:5882   */\n      pop\n        /* \"#utility.yul\":5601:5882   */\n      pop\n      pop\n      jump\t// out\n        /* \"#utility.yul\":5888:6068   */\n    tag_129:\n        /* \"#utility.yul\":5936:6013   */\n      0x4e487b7100000000000000000000000000000000000000000000000000000000\n        /* \"#utility.yul\":5933:5934   */\n      0x00\n        /* \"#utility.yul\":5926:6014   */\n      mstore\n        /* \"#utility.yul\":6033:6037   */\n      0x22\n        /* \"#utility.yul\":6030:6031   */\n      0x04\n        /* \"#utility.yul\":6023:6038   */\n      mstore\n        /* \"#utility.yul\":6057:6061   */\n      0x24\n        /* \"#utility.yul\":6054:6055   */\n      0x00\n        /* \"#utility.yul\":6047:6062   */\n      revert\n        /* \"#utility.yul\":6074:6254   */\n    tag_114:\n        /* \"#utility.yul\":6122:6199   */\n      0x4e487b7100000000000000000000000000000000000000000000000000000000\n        /* \"#utility.yul\":6119:6120   */\n      0x00\n        /* \"#utility.yul\":6112:6200   */\n      mstore\n        /* \"#utility.yul\":6219:6223   */\n      0x41\n        /* \"#utility.yul\":6216:6217   */\n      0x04\n        /* \"#utility.yul\":6209:6224   */\n      mstore\n        /* \"#utility.yul\":6243:6247   */\n      0x24\n        /* \"#utility.yul\":6240:6241   */\n      0x00\n        /* \"#utility.yul\":6233:6248   */\n      revert\n        /* \"#utility.yul\":6260:6377   */\n    tag_60:\n        /* \"#utility.yul\":6369:6370   */\n      0x00\n        /* \"#utility.yul\":6366:6367   */\n      dup1\n        /* \"#utility.yul\":6359:6371   */\n      revert\n        /* \"#utility.yul\":6383:6500   */\n    tag_53:\n        /* \"#utility.yul\":6492:6493   */\n      0x00\n        /* \"#utility.yul\":6489:6490   */\n      dup1\n        /* \"#utility.yul\":6482:6494   */\n      revert\n        /* \"#utility.yul\":6506:6623   */\n    tag_72:\n        /* \"#utility.yul\":6615:6616   */\n      0x00\n        /* \"#utility.yul\":6612:6613   */\n      dup1\n        /* \"#utility.yul\":6605:6617   */\n      revert\n        /* \"#utility.yul\":6629:6746   */\n    tag_69:\n        /* \"#utility.yul\":6738:6739   */\n      0x00\n        /* \"#utility.yul\":6735:6736   */\n      dup1\n        /* \"#utility.yul\":6728:6740   */\n      revert\n        /* \"#utility.yul\":6752:6854   */\n    tag_94:\n        /* \"#utility.yul\":6793:6799   */\n      0x00\n        /* \"#utility.yul\":6844:6846   */\n      0x1f\n        /* \"#utility.yul\":6840:6847   */\n      not\n        /* \"#utility.yul\":6835:6837   */\n      0x1f\n        /* \"#utility.yul\":6828:6833   */\n      dup4\n        /* \"#utility.yul\":6824:6838   */\n      add\n        /* \"#utility.yul\":6820:6848   */\n      and\n        /* \"#utility.yul\":6810:6848   */\n      swap1\n      pop\n        /* \"#utility.yul\":6752:6854   */\n      swap2\n      swap1\n      pop\n      jump\t// out\n        /* \"#utility.yul\":6860:6982   */\n    tag_65:\n        /* \"#utility.yul\":6933:6957   */\n      tag_142\n        /* \"#utility.yul\":6951:6956   */\n      dup2\n        /* \"#utility.yul\":6933:6957   */\n      tag_102\n      jump\t// in\n    tag_142:\n        /* \"#utility.yul\":6926:6931   */\n      dup2\n        /* \"#utility.yul\":6923:6958   */\n      eq\n        /* \"#utility.yul\":6913:6976   */\n      tag_143\n      jumpi\n        /* \"#utility.yul\":6972:6973   */\n      0x00\n        /* \"#utility.yul\":6969:6970   */\n      dup1\n        /* \"#utility.yul\":6962:6974   */\n      revert\n        /* \"#utility.yul\":6913:6976   */\n    tag_143:\n        /* \"#utility.yul\":6860:6982   */\n      pop\n      jump\t// out\n\n    auxdata: 0xa2646970667358221220c1b183d62bc66108796bb4b025d60bfc5d14acc71383664883393d90452698f364736f6c63430008070033\n}\n",
				"bytecode": {
					"linkReferences": {},
					"object": "608060405234801561001057600080fd5b50610694806100206000396000f3fe608060405234801561001057600080fd5b50600436106100415760003560e01c8063234c668614610046578063904d54d214610062578063fb2996fd14610092575b600080fd5b610060600480360381019061005b919061032a565b6100ae565b005b61007c600480360381019061007791906103cf565b61011b565b6040516100899190610481565b60405180910390f35b6100ac60048036038101906100a79190610373565b6101e4565b005b60006040518060400160405280600081526020018381525090806001815401808255809150506001900390600052602060002090600202016000909190919091506000820151816000015560208201518160010190805190602001906101159291906101e8565b50505050565b61012361026e565b600160008381526020019081526020016000206040518060400160405290816000820154815260200160018201805461015b90610561565b80601f016020809104026020016040519081016040528092919081815260200182805461018790610561565b80156101d45780601f106101a9576101008083540402835291602001916101d4565b820191906000526020600020905b8154815290600101906020018083116101b757829003601f168201915b5050505050815250509050919050565b5050565b8280546101f490610561565b90600052602060002090601f016020900481019282610216576000855561025d565b82601f1061022f57805160ff191683800117855561025d565b8280016001018555821561025d579182015b8281111561025c578251825591602001919060010190610241565b5b50905061026a9190610288565b5090565b604051806040016040528060008152602001606081525090565b5b808211156102a1576000816000905550600101610289565b5090565b60006102b86102b3846104c8565b6104a3565b9050828152602081018484840111156102d4576102d3610627565b5b6102df84828561051f565b509392505050565b600082601f8301126102fc576102fb610622565b5b813561030c8482602086016102a5565b91505092915050565b60008135905061032481610647565b92915050565b6000602082840312156103405761033f610631565b5b600082013567ffffffffffffffff81111561035e5761035d61062c565b5b61036a848285016102e7565b91505092915050565b6000806040838503121561038a57610389610631565b5b600083013567ffffffffffffffff8111156103a8576103a761062c565b5b6103b4858286016102e7565b92505060206103c585828601610315565b9150509250929050565b6000602082840312156103e5576103e4610631565b5b60006103f384828501610315565b91505092915050565b6000610407826104f9565b6104118185610504565b935061042181856020860161052e565b61042a81610636565b840191505092915050565b600060408301600083015161044d6000860182610472565b506020830151848203602086015261046582826103fc565b9150508091505092915050565b61047b81610515565b82525050565b6000602082019050818103600083015261049b8184610435565b905092915050565b60006104ad6104be565b90506104b98282610593565b919050565b6000604051905090565b600067ffffffffffffffff8211156104e3576104e26105f3565b5b6104ec82610636565b9050602081019050919050565b600081519050919050565b600082825260208201905092915050565b6000819050919050565b82818337600083830152505050565b60005b8381101561054c578082015181840152602081019050610531565b8381111561055b576000848401525b50505050565b6000600282049050600182168061057957607f821691505b6020821081141561058d5761058c6105c4565b5b50919050565b61059c82610636565b810181811067ffffffffffffffff821117156105bb576105ba6105f3565b5b80604052505050565b7f4e487b7100000000000000000000000000000000000000000000000000000000600052602260045260246000fd5b7f4e487b7100000000000000000000000000000000000000000000000000000000600052604160045260246000fd5b600080fd5b600080fd5b600080fd5b600080fd5b6000601f19601f8301169050919050565b61065081610515565b811461065b57600080fd5b5056fea2646970667358221220c1b183d62bc66108796bb4b025d60bfc5d14acc71383664883393d90452698f364736f6c63430008070033",
					"opcodes": "PUSH1 0x80 PUSH1 0x40 MSTORE CALLVALUE DUP1 ISZERO PUSH2 0x10 JUMPI PUSH1 0x0 DUP1 REVERT JUMPDEST POP PUSH2 0x694 DUP1 PUSH2 0x20 PUSH1 0x0 CODECOPY PUSH1 0x0 RETURN INVALID PUSH1 0x80 PUSH1 0x40 MSTORE CALLVALUE DUP1 ISZERO PUSH2 0x10 JUMPI PUSH1 0x0 DUP1 REVERT JUMPDEST POP PUSH1 0x4 CALLDATASIZE LT PUSH2 0x41 JUMPI PUSH1 0x0 CALLDATALOAD PUSH1 0xE0 SHR DUP1 PUSH4 0x234C6686 EQ PUSH2 0x46 JUMPI DUP1 PUSH4 0x904D54D2 EQ PUSH2 0x62 JUMPI DUP1 PUSH4 0xFB2996FD EQ PUSH2 0x92 JUMPI JUMPDEST PUSH1 0x0 DUP1 REVERT JUMPDEST PUSH2 0x60 PUSH1 0x4 DUP1 CALLDATASIZE SUB DUP2 ADD SWAP1 PUSH2 0x5B SWAP2 SWAP1 PUSH2 0x32A JUMP JUMPDEST PUSH2 0xAE JUMP JUMPDEST STOP JUMPDEST PUSH2 0x7C PUSH1 0x4 DUP1 CALLDATASIZE SUB DUP2 ADD SWAP1 PUSH2 0x77 SWAP2 SWAP1 PUSH2 0x3CF JUMP JUMPDEST PUSH2 0x11B JUMP JUMPDEST PUSH1 0x40 MLOAD PUSH2 0x89 SWAP2 SWAP1 PUSH2 0x481 JUMP JUMPDEST PUSH1 0x40 MLOAD DUP1 SWAP2 SUB SWAP1 RETURN JUMPDEST PUSH2 0xAC PUSH1 0x4 DUP1 CALLDATASIZE SUB DUP2 ADD SWAP1 PUSH2 0xA7 SWAP2 SWAP1 PUSH2 0x373 JUMP JUMPDEST PUSH2 0x1E4 JUMP JUMPDEST STOP JUMPDEST PUSH1 0x0 PUSH1 0x40 MLOAD DUP1 PUSH1 0x40 ADD PUSH1 0x40 MSTORE DUP1 PUSH1 0x0 DUP2 MSTORE PUSH1 0x20 ADD DUP4 DUP2 MSTORE POP SWAP1 DUP1 PUSH1 0x1 DUP2 SLOAD ADD DUP1 DUP3 SSTORE DUP1 SWAP2 POP POP PUSH1 0x1 SWAP1 SUB SWAP1 PUSH1 0x0 MSTORE PUSH1 0x20 PUSH1 0x0 KECCAK256 SWAP1 PUSH1 0x2 MUL ADD PUSH1 0x0 SWAP1 SWAP2 SWAP1 SWAP2 SWAP1 SWAP2 POP PUSH1 0x0 DUP3 ADD MLOAD DUP2 PUSH1 0x0 ADD SSTORE PUSH1 0x20 DUP3 ADD MLOAD DUP2 PUSH1 0x1 ADD SWAP1 DUP1 MLOAD SWAP1 PUSH1 0x20 ADD SWAP1 PUSH2 0x115 SWAP3 SWAP2 SWAP1 PUSH2 0x1E8 JUMP JUMPDEST POP POP POP POP JUMP JUMPDEST PUSH2 0x123 PUSH2 0x26E JUMP JUMPDEST PUSH1 0x1 PUSH1 0x0 DUP4 DUP2 MSTORE PUSH1 0x20 ADD SWAP1 DUP2 MSTORE PUSH1 0x20 ADD PUSH1 0x0 KECCAK256 PUSH1 0x40 MLOAD DUP1 PUSH1 0x40 ADD PUSH1 0x40 MSTORE SWAP1 DUP2 PUSH1 0x0 DUP3 ADD SLOAD DUP2 MSTORE PUSH1 0x20 ADD PUSH1 0x1 DUP3 ADD DUP1 SLOAD PUSH2 0x15B SWAP1 PUSH2 0x561 JUMP JUMPDEST DUP1 PUSH1 0x1F ADD PUSH1 0x20 DUP1 SWAP2 DIV MUL PUSH1 0x20 ADD PUSH1 0x40 MLOAD SWAP1 DUP2 ADD PUSH1 0x40 MSTORE DUP1 SWAP3 SWAP2 SWAP1 DUP2 DUP2 MSTORE PUSH1 0x20 ADD DUP3 DUP1 SLOAD PUSH2 0x187 SWAP1 PUSH2 0x561 JUMP JUMPDEST DUP1 ISZERO PUSH2 0x1D4 JUMPI DUP1 PUSH1 0x1F LT PUSH2 0x1A9 JUMPI PUSH2 0x100 DUP1 DUP4 SLOAD DIV MUL DUP4 MSTORE SWAP2 PUSH1 0x20 ADD SWAP2 PUSH2 0x1D4 JUMP JUMPDEST DUP3 ADD SWAP2 SWAP1 PUSH1 0x0 MSTORE PUSH1 0x20 PUSH1 0x0 KECCAK256 SWAP1 JUMPDEST DUP2 SLOAD DUP2 MSTORE SWAP1 PUSH1 0x1 ADD SWAP1 PUSH1 0x20 ADD DUP1 DUP4 GT PUSH2 0x1B7 JUMPI DUP3 SWAP1 SUB PUSH1 0x1F AND DUP3 ADD SWAP2 JUMPDEST POP POP POP POP POP DUP2 MSTORE POP POP SWAP1 POP SWAP2 SWAP1 POP JUMP JUMPDEST POP POP JUMP JUMPDEST DUP3 DUP1 SLOAD PUSH2 0x1F4 SWAP1 PUSH2 0x561 JUMP JUMPDEST SWAP1 PUSH1 0x0 MSTORE PUSH1 0x20 PUSH1 0x0 KECCAK256 SWAP1 PUSH1 0x1F ADD PUSH1 0x20 SWAP1 DIV DUP2 ADD SWAP3 DUP3 PUSH2 0x216 JUMPI PUSH1 0x0 DUP6 SSTORE PUSH2 0x25D JUMP JUMPDEST DUP3 PUSH1 0x1F LT PUSH2 0x22F JUMPI DUP1 MLOAD PUSH1 0xFF NOT AND DUP4 DUP1 ADD OR DUP6 SSTORE PUSH2 0x25D JUMP JUMPDEST DUP3 DUP1 ADD PUSH1 0x1 ADD DUP6 SSTORE DUP3 ISZERO PUSH2 0x25D JUMPI SWAP2 DUP3 ADD JUMPDEST DUP3 DUP2 GT ISZERO PUSH2 0x25C JUMPI DUP3 MLOAD DUP3 SSTORE SWAP2 PUSH1 0x20 ADD SWAP2 SWAP1 PUSH1 0x1 ADD SWAP1 PUSH2 0x241 JUMP JUMPDEST JUMPDEST POP SWAP1 POP PUSH2 0x26A SWAP2 SWAP1 PUSH2 0x288 JUMP JUMPDEST POP SWAP1 JUMP JUMPDEST PUSH1 0x40 MLOAD DUP1 PUSH1 0x40 ADD PUSH1 0x40 MSTORE DUP1 PUSH1 0x0 DUP2 MSTORE PUSH1 0x20 ADD PUSH1 0x60 DUP2 MSTORE POP SWAP1 JUMP JUMPDEST JUMPDEST DUP1 DUP3 GT ISZERO PUSH2 0x2A1 JUMPI PUSH1 0x0 DUP2 PUSH1 0x0 SWAP1 SSTORE POP PUSH1 0x1 ADD PUSH2 0x289 JUMP JUMPDEST POP SWAP1 JUMP JUMPDEST PUSH1 0x0 PUSH2 0x2B8 PUSH2 0x2B3 DUP5 PUSH2 0x4C8 JUMP JUMPDEST PUSH2 0x4A3 JUMP JUMPDEST SWAP1 POP DUP3 DUP2 MSTORE PUSH1 0x20 DUP2 ADD DUP5 DUP5 DUP5 ADD GT ISZERO PUSH2 0x2D4 JUMPI PUSH2 0x2D3 PUSH2 0x627 JUMP JUMPDEST JUMPDEST PUSH2 0x2DF DUP5 DUP3 DUP6 PUSH2 0x51F JUMP JUMPDEST POP SWAP4 SWAP3 POP POP POP JUMP JUMPDEST PUSH1 0x0 DUP3 PUSH1 0x1F DUP4 ADD SLT PUSH2 0x2FC JUMPI PUSH2 0x2FB PUSH2 0x622 JUMP JUMPDEST JUMPDEST DUP2 CALLDATALOAD PUSH2 0x30C DUP5 DUP3 PUSH1 0x20 DUP7 ADD PUSH2 0x2A5 JUMP JUMPDEST SWAP2 POP POP SWAP3 SWAP2 POP POP JUMP JUMPDEST PUSH1 0x0 DUP2 CALLDATALOAD SWAP1 POP PUSH2 0x324 DUP2 PUSH2 0x647 JUMP JUMPDEST SWAP3 SWAP2 POP POP JUMP JUMPDEST PUSH1 0x0 PUSH1 0x20 DUP3 DUP5 SUB SLT ISZERO PUSH2 0x340 JUMPI PUSH2 0x33F PUSH2 0x631 JUMP JUMPDEST JUMPDEST PUSH1 0x0 DUP3 ADD CALLDATALOAD PUSH8 0xFFFFFFFFFFFFFFFF DUP2 GT ISZERO PUSH2 0x35E JUMPI PUSH2 0x35D PUSH2 0x62C JUMP JUMPDEST JUMPDEST PUSH2 0x36A DUP5 DUP3 DUP6 ADD PUSH2 0x2E7 JUMP JUMPDEST SWAP2 POP POP SWAP3 SWAP2 POP POP JUMP JUMPDEST PUSH1 0x0 DUP1 PUSH1 0x40 DUP4 DUP6 SUB SLT ISZERO PUSH2 0x38A JUMPI PUSH2 0x389 PUSH2 0x631 JUMP JUMPDEST JUMPDEST PUSH1 0x0 DUP4 ADD CALLDATALOAD PUSH8 0xFFFFFFFFFFFFFFFF DUP2 GT ISZERO PUSH2 0x3A8 JUMPI PUSH2 0x3A7 PUSH2 0x62C JUMP JUMPDEST JUMPDEST PUSH2 0x3B4 DUP6 DUP3 DUP7 ADD PUSH2 0x2E7 JUMP JUMPDEST SWAP3 POP POP PUSH1 0x20 PUSH2 0x3C5 DUP6 DUP3 DUP7 ADD PUSH2 0x315 JUMP JUMPDEST SWAP2 POP POP SWAP3 POP SWAP3 SWAP1 POP JUMP JUMPDEST PUSH1 0x0 PUSH1 0x20 DUP3 DUP5 SUB SLT ISZERO PUSH2 0x3E5 JUMPI PUSH2 0x3E4 PUSH2 0x631 JUMP JUMPDEST JUMPDEST PUSH1 0x0 PUSH2 0x3F3 DUP5 DUP3 DUP6 ADD PUSH2 0x315 JUMP JUMPDEST SWAP2 POP POP SWAP3 SWAP2 POP POP JUMP JUMPDEST PUSH1 0x0 PUSH2 0x407 DUP3 PUSH2 0x4F9 JUMP JUMPDEST PUSH2 0x411 DUP2 DUP6 PUSH2 0x504 JUMP JUMPDEST SWAP4 POP PUSH2 0x421 DUP2 DUP6 PUSH1 0x20 DUP7 ADD PUSH2 0x52E JUMP JUMPDEST PUSH2 0x42A DUP2 PUSH2 0x636 JUMP JUMPDEST DUP5 ADD SWAP2 POP POP SWAP3 SWAP2 POP POP JUMP JUMPDEST PUSH1 0x0 PUSH1 0x40 DUP4 ADD PUSH1 0x0 DUP4 ADD MLOAD PUSH2 0x44D PUSH1 0x0 DUP7 ADD DUP3 PUSH2 0x472 JUMP JUMPDEST POP PUSH1 0x20 DUP4 ADD MLOAD DUP5 DUP3 SUB PUSH1 0x20 DUP7 ADD MSTORE PUSH2 0x465 DUP3 DUP3 PUSH2 0x3FC JUMP JUMPDEST SWAP2 POP POP DUP1 SWAP2 POP POP SWAP3 SWAP2 POP POP JUMP JUMPDEST PUSH2 0x47B DUP2 PUSH2 0x515 JUMP JUMPDEST DUP3 MSTORE POP POP JUMP JUMPDEST PUSH1 0x0 PUSH1 0x20 DUP3 ADD SWAP1 POP DUP2 DUP2 SUB PUSH1 0x0 DUP4 ADD MSTORE PUSH2 0x49B DUP2 DUP5 PUSH2 0x435 JUMP JUMPDEST SWAP1 POP SWAP3 SWAP2 POP POP JUMP JUMPDEST PUSH1 0x0 PUSH2 0x4AD PUSH2 0x4BE JUMP JUMPDEST SWAP1 POP PUSH2 0x4B9 DUP3 DUP3 PUSH2 0x593 JUMP JUMPDEST SWAP2 SWAP1 POP JUMP JUMPDEST PUSH1 0x0 PUSH1 0x40 MLOAD SWAP1 POP SWAP1 JUMP JUMPDEST PUSH1 0x0 PUSH8 0xFFFFFFFFFFFFFFFF DUP3 GT ISZERO PUSH2 0x4E3 JUMPI PUSH2 0x4E2 PUSH2 0x5F3 JUMP JUMPDEST JUMPDEST PUSH2 0x4EC DUP3 PUSH2 0x636 JUMP JUMPDEST SWAP1 POP PUSH1 0x20 DUP2 ADD SWAP1 POP SWAP2 SWAP1 POP JUMP JUMPDEST PUSH1 0x0 DUP2 MLOAD SWAP1 POP SWAP2 SWAP1 POP JUMP JUMPDEST PUSH1 0x0 DUP3 DUP3 MSTORE PUSH1 0x20 DUP3 ADD SWAP1 POP SWAP3 SWAP2 POP POP JUMP JUMPDEST PUSH1 0x0 DUP2 SWAP1 POP SWAP2 SWAP1 POP JUMP JUMPDEST DUP3 DUP2 DUP4 CALLDATACOPY PUSH1 0x0 DUP4 DUP4 ADD MSTORE POP POP POP JUMP JUMPDEST PUSH1 0x0 JUMPDEST DUP4 DUP2 LT ISZERO PUSH2 0x54C JUMPI DUP1 DUP3 ADD MLOAD DUP2 DUP5 ADD MSTORE PUSH1 0x20 DUP2 ADD SWAP1 POP PUSH2 0x531 JUMP JUMPDEST DUP4 DUP2 GT ISZERO PUSH2 0x55B JUMPI PUSH1 0x0 DUP5 DUP5 ADD MSTORE JUMPDEST POP POP POP POP JUMP JUMPDEST PUSH1 0x0 PUSH1 0x2 DUP3 DIV SWAP1 POP PUSH1 0x1 DUP3 AND DUP1 PUSH2 0x579 JUMPI PUSH1 0x7F DUP3 AND SWAP2 POP JUMPDEST PUSH1 0x20 DUP3 LT DUP2 EQ ISZERO PUSH2 0x58D JUMPI PUSH2 0x58C PUSH2 0x5C4 JUMP JUMPDEST JUMPDEST POP SWAP2 SWAP1 POP JUMP JUMPDEST PUSH2 0x59C DUP3 PUSH2 0x636 JUMP JUMPDEST DUP2 ADD DUP2 DUP2 LT PUSH8 0xFFFFFFFFFFFFFFFF DUP3 GT OR ISZERO PUSH2 0x5BB JUMPI PUSH2 0x5BA PUSH2 0x5F3 JUMP JUMPDEST JUMPDEST DUP1 PUSH1 0x40 MSTORE POP POP POP JUMP JUMPDEST PUSH32 0x4E487B7100000000000000000000000000000000000000000000000000000000 PUSH1 0x0 MSTORE PUSH1 0x22 PUSH1 0x4 MSTORE PUSH1 0x24 PUSH1 0x0 REVERT JUMPDEST PUSH32 0x4E487B7100000000000000000000000000000000000000000000000000000000 PUSH1 0x0 MSTORE PUSH1 0x41 PUSH1 0x4 MSTORE PUSH1 0x24 PUSH1 0x0 REVERT JUMPDEST PUSH1 0x0 DUP1 REVERT JUMPDEST PUSH1 0x0 DUP1 REVERT JUMPDEST PUSH1 0x0 DUP1 REVERT JUMPDEST PUSH1 0x0 DUP1 REVERT JUMPDEST PUSH1 0x0 PUSH1 0x1F NOT PUSH1 0x1F DUP4 ADD AND SWAP1 POP SWAP2 SWAP1 POP JUMP JUMPDEST PUSH2 0x650 DUP2 PUSH2 0x515 JUMP JUMPDEST DUP2 EQ PUSH2 0x65B JUMPI PUSH1 0x0 DUP1 REVERT JUMPDEST POP JUMP INVALID LOG2 PUSH5 0x6970667358 0x22 SLT KECCAK256 0xC1 0xB1 DUP4 0xD6 0x2B 0xC6 PUSH2 0x879 PUSH12 0xB4B025D60BFC5D14ACC71383 PUSH7 0x4883393D904526 SWAP9 RETURN PUSH5 0x736F6C6343 STOP ADDMOD SMOD STOP CALLER "
				},
				"gasEstimates": {
					"creation": {
						"codeDepositCost": "336800",
						"executionCost": "374",
						"totalCost": "337174"
					},
					"external": {
						"createReadList(string)": "infinite",
						"editReadList(string,uint256)": "infinite",
						"getReadList(uint256)": "infinite"
					}
				},
				"methodIdentifiers": {
					"createReadList(string)": "234c6686",
					"editReadList(string,uint256)": "fb2996fd",
					"getReadList(uint256)": "904d54d2"
				}
			},
			"storageLayout": {
				"storage": [
					{
						"astId": 10,
						"contract": "array.sol:ArrayTest",
						"label": "list",
						"offset": 0,
						"slot": "0",
						"type": "t_array(t_struct(Book)6_storage)dyn_storage"
					},
					{
						"astId": 15,
						"contract": "array.sol:ArrayTest",
						"label": "book",
						"offset": 0,
						"slot": "1",
						"type": "t_mapping(t_uint256,t_struct(Book)6_storage)"
					},
					{
						"astId": 20,
						"contract": "array.sol:ArrayTest",
						"label": "editBook",
						"offset": 0,
						"slot": "2",
						"type": "t_mapping(t_string_memory_ptr,t_struct(Book)6_storage)"
					}
				],
				"types": {
					"t_array(t_struct(Book)6_storage)dyn_storage": {
						"base": "t_struct(Book)6_storage",
						"encoding": "dynamic_array",
						"label": "struct ArrayTest.Book[]",
						"numberOfBytes": "32"
					},
					"t_mapping(t_string_memory_ptr,t_struct(Book)6_storage)": {
						"encoding": "mapping",
						"key": "t_string_memory_ptr",
						"label": "mapping(string => struct ArrayTest.Book)",
						"numberOfBytes": "32",
						"value": "t_struct(Book)6_storage"
					},
					"t_mapping(t_uint256,t_struct(Book)6_storage)": {
						"encoding": "mapping",
						"key": "t_uint256",
						"label": "mapping(uint256 => struct ArrayTest.Book)",
						"numberOfBytes": "32",
						"value": "t_struct(Book)6_storage"
					},
					"t_string_memory_ptr": {
						"encoding": "bytes",
						"label": "string",
						"numberOfBytes": "32"
					},
					"t_string_storage": {
						"encoding": "bytes",
						"label": "string",
						"numberOfBytes": "32"
					},
					"t_struct(Book)6_storage": {
						"encoding": "inplace",
						"label": "struct ArrayTest.Book",
						"members": [
							{
								"astId": 3,
								"contract": "array.sol:ArrayTest",
								"label": "status",
								"offset": 0,
								"slot": "0",
								"type": "t_uint256"
							},
							{
								"astId": 5,
								"contract": "array.sol:ArrayTest",
								"label": "bookName",
								"offset": 0,
								"slot": "1",
								"type": "t_string_storage"
							}
						],
						"numberOfBytes": "64"
					},
					"t_uint256": {
						"encoding": "inplace",
						"label": "uint256",
						"numberOfBytes": "32"
					}
				}
			},
			"userdoc": {
				"kind": "user",
				"methods": {},
				"version": 1
			}
		}
	}
}