{
	"crowdfunding.sol": {
		"CrowdfundingContract": {
			"abi": [
				{
					"anonymous": false,
					"inputs": [
						{
							"indexed": false,
							"internalType": "address",
							"name": "msg",
							"type": "address"
						}
					],
					"name": "Log",
					"type": "event"
				},
				{
					"inputs": [
						{
							"internalType": "string",
							"name": "_title",
							"type": "string"
						},
						{
							"internalType": "address",
							"name": "_recipient",
							"type": "address"
						},
						{
							"internalType": "uint256",
							"name": "_expectAmout",
							"type": "uint256"
						}
					],
					"name": "createCrowdfunding",
					"outputs": [],
					"stateMutability": "nonpayable",
					"type": "function"
				},
				{
					"inputs": [
						{
							"internalType": "uint256",
							"name": "_status",
							"type": "uint256"
						}
					],
					"name": "getCrowdfundingByStatus",
					"outputs": [
						{
							"components": [
								{
									"internalType": "uint256",
									"name": "num",
									"type": "uint256"
								},
								{
									"internalType": "string",
									"name": "title",
									"type": "string"
								},
								{
									"internalType": "uint256",
									"name": "status",
									"type": "uint256"
								},
								{
									"internalType": "address",
									"name": "creator",
									"type": "address"
								},
								{
									"internalType": "address",
									"name": "recipient",
									"type": "address"
								},
								{
									"internalType": "uint256",
									"name": "joinNum",
									"type": "uint256"
								},
								{
									"internalType": "uint256",
									"name": "expectAmout",
									"type": "uint256"
								},
								{
									"internalType": "uint256",
									"name": "actualAmount",
									"type": "uint256"
								}
							],
							"internalType": "struct CrowdfundingContract.Crowdfunding[]",
							"name": "",
							"type": "tuple[]"
						}
					],
					"stateMutability": "view",
					"type": "function"
				},
				{
					"inputs": [
						{
							"internalType": "address",
							"name": "addr",
							"type": "address"
						}
					],
					"name": "getMyCrowdfunding",
					"outputs": [
						{
							"components": [
								{
									"internalType": "uint256",
									"name": "num",
									"type": "uint256"
								},
								{
									"internalType": "string",
									"name": "title",
									"type": "string"
								},
								{
									"internalType": "uint256",
									"name": "status",
									"type": "uint256"
								},
								{
									"internalType": "address",
									"name": "creator",
									"type": "address"
								},
								{
									"internalType": "address",
									"name": "recipient",
									"type": "address"
								},
								{
									"internalType": "uint256",
									"name": "joinNum",
									"type": "uint256"
								},
								{
									"internalType": "uint256",
									"name": "expectAmout",
									"type": "uint256"
								},
								{
									"internalType": "uint256",
									"name": "actualAmount",
									"type": "uint256"
								}
							],
							"internalType": "struct CrowdfundingContract.Crowdfunding[]",
							"name": "",
							"type": "tuple[]"
						}
					],
					"stateMutability": "view",
					"type": "function"
				},
				{
					"inputs": [
						{
							"internalType": "uint256",
							"name": "num",
							"type": "uint256"
						},
						{
							"internalType": "uint256",
							"name": "amount",
							"type": "uint256"
						},
						{
							"internalType": "address",
							"name": "addr",
							"type": "address"
						}
					],
					"name": "join",
					"outputs": [],
					"stateMutability": "nonpayable",
					"type": "function"
				},
				{
					"inputs": [
						{
							"internalType": "uint256",
							"name": "",
							"type": "uint256"
						}
					],
					"name": "list",
					"outputs": [
						{
							"internalType": "uint256",
							"name": "num",
							"type": "uint256"
						},
						{
							"internalType": "string",
							"name": "title",
							"type": "string"
						},
						{
							"internalType": "uint256",
							"name": "status",
							"type": "uint256"
						},
						{
							"internalType": "address",
							"name": "creator",
							"type": "address"
						},
						{
							"internalType": "address",
							"name": "recipient",
							"type": "address"
						},
						{
							"internalType": "uint256",
							"name": "joinNum",
							"type": "uint256"
						},
						{
							"internalType": "uint256",
							"name": "expectAmout",
							"type": "uint256"
						},
						{
							"internalType": "uint256",
							"name": "actualAmount",
							"type": "uint256"
						}
					],
					"stateMutability": "view",
					"type": "function"
				},
				{
					"inputs": [
						{
							"internalType": "uint256",
							"name": "num",
							"type": "uint256"
						}
					],
					"name": "setStatus",
					"outputs": [],
					"stateMutability": "nonpayable",
					"type": "function"
				},
				{
					"inputs": [
						{
							"internalType": "uint256",
							"name": "num",
							"type": "uint256"
						},
						{
							"internalType": "string",
							"name": "title",
							"type": "string"
						}
					],
					"name": "setTitle",
					"outputs": [],
					"stateMutability": "nonpayable",
					"type": "function"
				},
				{
					"inputs": [
						{
							"internalType": "string",
							"name": "s",
							"type": "string"
						}
					],
					"name": "stringToInt",
					"outputs": [
						{
							"internalType": "uint256",
							"name": "",
							"type": "uint256"
						}
					],
					"stateMutability": "pure",
					"type": "function"
				},
				{
					"inputs": [
						{
							"internalType": "address",
							"name": "a",
							"type": "address"
						}
					],
					"name": "test",
					"outputs": [
						{
							"internalType": "address",
							"name": "",
							"type": "address"
						},
						{
							"internalType": "address",
							"name": "",
							"type": "address"
						}
					],
					"stateMutability": "view",
					"type": "function"
				},
				{
					"inputs": [
						{
							"internalType": "address",
							"name": "a",
							"type": "address"
						}
					],
					"name": "test2",
					"outputs": [
						{
							"internalType": "bool",
							"name": "",
							"type": "bool"
						}
					],
					"stateMutability": "view",
					"type": "function"
				}
			],
			"devdoc": {
				"kind": "dev",
				"methods": {},
				"version": 1
			},
			"evm": {
				"assembly": "    /* \"crowdfunding.sol\":290:4607  contract CrowdfundingContract {\r... */\n  mstore(0x40, 0x80)\n  callvalue\n  dup1\n  iszero\n  tag_1\n  jumpi\n  0x00\n  dup1\n  revert\ntag_1:\n  pop\n  dataSize(sub_0)\n  dup1\n  dataOffset(sub_0)\n  0x00\n  codecopy\n  0x00\n  return\nstop\n\nsub_0: assembly {\n        /* \"crowdfunding.sol\":290:4607  contract CrowdfundingContract {\r... */\n      mstore(0x40, 0x80)\n      callvalue\n      dup1\n      iszero\n      tag_1\n      jumpi\n      0x00\n      dup1\n      revert\n    tag_1:\n      pop\n      jumpi(tag_2, lt(calldatasize, 0x04))\n      shr(0xe0, calldataload(0x00))\n      dup1\n      0x904cc175\n      gt\n      tag_13\n      jumpi\n      dup1\n      0x904cc175\n      eq\n      tag_8\n      jumpi\n      dup1\n      0xac8b1300\n      eq\n      tag_9\n      jumpi\n      dup1\n      0xb11bead4\n      eq\n      tag_10\n      jumpi\n      dup1\n      0xbb29998e\n      eq\n      tag_11\n      jumpi\n      dup1\n      0xf8a02d84\n      eq\n      tag_12\n      jumpi\n      jump(tag_2)\n    tag_13:\n      dup1\n      0x377e6ff7\n      eq\n      tag_3\n      jumpi\n      dup1\n      0x5102bc9d\n      eq\n      tag_4\n      jumpi\n      dup1\n      0x575b70d0\n      eq\n      tag_5\n      jumpi\n      dup1\n      0x69ba1a75\n      eq\n      tag_6\n      jumpi\n      dup1\n      0x80c9419e\n      eq\n      tag_7\n      jumpi\n    tag_2:\n      0x00\n      dup1\n      revert\n        /* \"crowdfunding.sol\":4258:4389  function getMyCrowdfunding(address addr) public view returns (Crowdfunding[] memory) {\r... */\n    tag_3:\n      tag_14\n      0x04\n      dup1\n      calldatasize\n      sub\n      dup2\n      add\n      swap1\n      tag_15\n      swap2\n      swap1\n      tag_16\n      jump\t// in\n    tag_15:\n      tag_17\n      jump\t// in\n    tag_14:\n      mload(0x40)\n      tag_18\n      swap2\n      swap1\n      tag_19\n      jump\t// in\n    tag_18:\n      mload(0x40)\n      dup1\n      swap2\n      sub\n      swap1\n      return\n        /* \"crowdfunding.sol\":2867:2966  function setTitle(uint num,string memory title) public {\r... */\n    tag_4:\n      tag_20\n      0x04\n      dup1\n      calldatasize\n      sub\n      dup2\n      add\n      swap1\n      tag_21\n      swap2\n      swap1\n      tag_22\n      jump\t// in\n    tag_21:\n      tag_23\n      jump\t// in\n    tag_20:\n      stop\n        /* \"crowdfunding.sol\":3067:3973  function join(uint num,uint amount,address addr) public {\r... */\n    tag_5:\n      tag_24\n      0x04\n      dup1\n      calldatasize\n      sub\n      dup2\n      add\n      swap1\n      tag_25\n      swap2\n      swap1\n      tag_26\n      jump\t// in\n    tag_25:\n      tag_27\n      jump\t// in\n    tag_24:\n      stop\n        /* \"crowdfunding.sol\":2192:2784  function setStatus(uint num) public {\r... */\n    tag_6:\n      tag_28\n      0x04\n      dup1\n      calldatasize\n      sub\n      dup2\n      add\n      swap1\n      tag_29\n      swap2\n      swap1\n      tag_30\n      jump\t// in\n    tag_29:\n      tag_31\n      jump\t// in\n    tag_28:\n      stop\n        /* \"crowdfunding.sol\":814:840  Crowdfunding[] public list */\n    tag_7:\n      tag_32\n      0x04\n      dup1\n      calldatasize\n      sub\n      dup2\n      add\n      swap1\n      tag_33\n      swap2\n      swap1\n      tag_30\n      jump\t// in\n    tag_33:\n      tag_34\n      jump\t// in\n    tag_32:\n      mload(0x40)\n      tag_35\n      swap9\n      swap8\n      swap7\n      swap6\n      swap5\n      swap4\n      swap3\n      swap2\n      swap1\n      tag_36\n      jump\t// in\n    tag_35:\n      mload(0x40)\n      dup1\n      swap2\n      sub\n      swap1\n      return\n        /* \"crowdfunding.sol\":4025:4208  function getCrowdfundingByStatus(uint _status) public view returns (Crowdfunding[] memory) {\r... */\n    tag_8:\n      tag_37\n      0x04\n      dup1\n      calldatasize\n      sub\n      dup2\n      add\n      swap1\n      tag_38\n      swap2\n      swap1\n      tag_30\n      jump\t// in\n    tag_38:\n      tag_39\n      jump\t// in\n    tag_37:\n      mload(0x40)\n      tag_40\n      swap2\n      swap1\n      tag_19\n      jump\t// in\n    tag_40:\n      mload(0x40)\n      dup1\n      swap2\n      sub\n      swap1\n      return\n        /* \"crowdfunding.sol\":1508:2113  function createCrowdfunding(string memory _title,address _recipient, uint _expectAmout) public {\r... */\n    tag_9:\n      tag_41\n      0x04\n      dup1\n      calldatasize\n      sub\n      dup2\n      add\n      swap1\n      tag_42\n      swap2\n      swap1\n      tag_43\n      jump\t// in\n    tag_42:\n      tag_44\n      jump\t// in\n    tag_41:\n      stop\n        /* \"crowdfunding.sol\":4509:4604  function test2 (address a) public view returns (bool) {\r... */\n    tag_10:\n      tag_45\n      0x04\n      dup1\n      calldatasize\n      sub\n      dup2\n      add\n      swap1\n      tag_46\n      swap2\n      swap1\n      tag_16\n      jump\t// in\n    tag_46:\n      tag_47\n      jump\t// in\n    tag_45:\n      mload(0x40)\n      tag_48\n      swap2\n      swap1\n      tag_49\n      jump\t// in\n    tag_48:\n      mload(0x40)\n      dup1\n      swap2\n      sub\n      swap1\n      return\n        /* \"crowdfunding.sol\":4397:4501  function test (address a) public view returns (address,address) {\r... */\n    tag_11:\n      tag_50\n      0x04\n      dup1\n      calldatasize\n      sub\n      dup2\n      add\n      swap1\n      tag_51\n      swap2\n      swap1\n      tag_16\n      jump\t// in\n    tag_51:\n      tag_52\n      jump\t// in\n    tag_50:\n      mload(0x40)\n      tag_53\n      swap3\n      swap2\n      swap1\n      tag_54\n      jump\t// in\n    tag_53:\n      mload(0x40)\n      dup1\n      swap2\n      sub\n      swap1\n      return\n        /* \"crowdfunding.sol\":1130:1500  function stringToInt(string memory s) public pure returns (uint){\r... */\n    tag_12:\n      tag_55\n      0x04\n      dup1\n      calldatasize\n      sub\n      dup2\n      add\n      swap1\n      tag_56\n      swap2\n      swap1\n      tag_57\n      jump\t// in\n    tag_56:\n      tag_58\n      jump\t// in\n    tag_55:\n      mload(0x40)\n      tag_59\n      swap2\n      swap1\n      tag_60\n      jump\t// in\n    tag_59:\n      mload(0x40)\n      dup1\n      swap2\n      sub\n      swap1\n      return\n        /* \"crowdfunding.sol\":4258:4389  function getMyCrowdfunding(address addr) public view returns (Crowdfunding[] memory) {\r... */\n    tag_17:\n        /* \"crowdfunding.sol\":4320:4341  Crowdfunding[] memory */\n      0x60\n        /* \"crowdfunding.sol\":4361:4375  myCrowdfunding */\n      0x03\n        /* \"crowdfunding.sol\":4361:4381  myCrowdfunding[addr] */\n      0x00\n        /* \"crowdfunding.sol\":4376:4380  addr */\n      dup4\n        /* \"crowdfunding.sol\":4361:4381  myCrowdfunding[addr] */\n      0xffffffffffffffffffffffffffffffffffffffff\n      and\n      0xffffffffffffffffffffffffffffffffffffffff\n      and\n      dup2\n      mstore\n      0x20\n      add\n      swap1\n      dup2\n      mstore\n      0x20\n      add\n      0x00\n      keccak256\n        /* \"crowdfunding.sol\":4354:4381  return myCrowdfunding[addr] */\n      dup1\n      sload\n      dup1\n      0x20\n      mul\n      0x20\n      add\n      mload(0x40)\n      swap1\n      dup2\n      add\n      0x40\n      mstore\n      dup1\n      swap3\n      swap2\n      swap1\n      dup2\n      dup2\n      mstore\n      0x20\n      add\n      0x00\n      swap1\n    tag_62:\n      dup3\n      dup3\n      lt\n      iszero\n      tag_63\n      jumpi\n      dup4\n      dup3\n      swap1\n      0x00\n      mstore\n      keccak256(0x00, 0x20)\n      swap1\n      0x08\n      mul\n      add\n      mload(0x40)\n      dup1\n      0x0100\n      add\n      0x40\n      mstore\n      swap1\n      dup2\n      0x00\n      dup3\n      add\n      sload\n      dup2\n      mstore\n      0x20\n      add\n      0x01\n      dup3\n      add\n      dup1\n      sload\n      tag_65\n      swap1\n      tag_66\n      jump\t// in\n    tag_65:\n      dup1\n      0x1f\n      add\n      0x20\n      dup1\n      swap2\n      div\n      mul\n      0x20\n      add\n      mload(0x40)\n      swap1\n      dup2\n      add\n      0x40\n      mstore\n      dup1\n      swap3\n      swap2\n      swap1\n      dup2\n      dup2\n      mstore\n      0x20\n      add\n      dup3\n      dup1\n      sload\n      tag_67\n      swap1\n      tag_66\n      jump\t// in\n    tag_67:\n      dup1\n      iszero\n      tag_68\n      jumpi\n      dup1\n      0x1f\n      lt\n      tag_69\n      jumpi\n      0x0100\n      dup1\n      dup4\n      sload\n      div\n      mul\n      dup4\n      mstore\n      swap2\n      0x20\n      add\n      swap2\n      jump(tag_68)\n    tag_69:\n      dup3\n      add\n      swap2\n      swap1\n      0x00\n      mstore\n      keccak256(0x00, 0x20)\n      swap1\n    tag_70:\n      dup2\n      sload\n      dup2\n      mstore\n      swap1\n      0x01\n      add\n      swap1\n      0x20\n      add\n      dup1\n      dup4\n      gt\n      tag_70\n      jumpi\n      dup3\n      swap1\n      sub\n      0x1f\n      and\n      dup3\n      add\n      swap2\n    tag_68:\n      pop\n      pop\n      pop\n      pop\n      pop\n      dup2\n      mstore\n      0x20\n      add\n      0x02\n      dup3\n      add\n      sload\n      dup2\n      mstore\n      0x20\n      add\n      0x03\n      dup3\n      add\n      0x00\n      swap1\n      sload\n      swap1\n      0x0100\n      exp\n      swap1\n      div\n      0xffffffffffffffffffffffffffffffffffffffff\n      and\n      0xffffffffffffffffffffffffffffffffffffffff\n      and\n      0xffffffffffffffffffffffffffffffffffffffff\n      and\n      dup2\n      mstore\n      0x20\n      add\n      0x04\n      dup3\n      add\n      0x00\n      swap1\n      sload\n      swap1\n      0x0100\n      exp\n      swap1\n      div\n      0xffffffffffffffffffffffffffffffffffffffff\n      and\n      0xffffffffffffffffffffffffffffffffffffffff\n      and\n      0xffffffffffffffffffffffffffffffffffffffff\n      and\n      dup2\n      mstore\n      0x20\n      add\n      0x05\n      dup3\n      add\n      sload\n      dup2\n      mstore\n      0x20\n      add\n      0x06\n      dup3\n      add\n      sload\n      dup2\n      mstore\n      0x20\n      add\n      0x07\n      dup3\n      add\n      sload\n      dup2\n      mstore\n      pop\n      pop\n      dup2\n      mstore\n      0x20\n      add\n      swap1\n      0x01\n      add\n      swap1\n      jump(tag_62)\n    tag_63:\n      pop\n      pop\n      pop\n      pop\n      swap1\n      pop\n        /* \"crowdfunding.sol\":4258:4389  function getMyCrowdfunding(address addr) public view returns (Crowdfunding[] memory) {\r... */\n      swap2\n      swap1\n      pop\n      jump\t// out\n        /* \"crowdfunding.sol\":2867:2966  function setTitle(uint num,string memory title) public {\r... */\n    tag_23:\n        /* \"crowdfunding.sol\":2953:2958  title */\n      dup1\n        /* \"crowdfunding.sol\":2933:2937  list */\n      0x01\n        /* \"crowdfunding.sol\":2942:2943  1 */\n      dup1\n        /* \"crowdfunding.sol\":2938:2941  num */\n      dup5\n        /* \"crowdfunding.sol\":2938:2943  num-1 */\n      tag_72\n      swap2\n      swap1\n      tag_73\n      jump\t// in\n    tag_72:\n        /* \"crowdfunding.sol\":2933:2944  list[num-1] */\n      dup2\n      sload\n      dup2\n      lt\n      tag_74\n      jumpi\n      tag_75\n      tag_76\n      jump\t// in\n    tag_75:\n    tag_74:\n      swap1\n      0x00\n      mstore\n      keccak256(0x00, 0x20)\n      swap1\n      0x08\n      mul\n      add\n        /* \"crowdfunding.sol\":2933:2950  list[num-1].title */\n      0x01\n      add\n        /* \"crowdfunding.sol\":2933:2958  list[num-1].title = title */\n      swap1\n      dup1\n      mload\n      swap1\n      0x20\n      add\n      swap1\n      tag_78\n      swap3\n      swap2\n      swap1\n      tag_79\n      jump\t// in\n    tag_78:\n      pop\n        /* \"crowdfunding.sol\":2867:2966  function setTitle(uint num,string memory title) public {\r... */\n      pop\n      pop\n      jump\t// out\n        /* \"crowdfunding.sol\":3067:3973  function join(uint num,uint amount,address addr) public {\r... */\n    tag_27:\n        /* \"crowdfunding.sol\":3134:3150  bool isFirstJoin */\n      0x00\n        /* \"crowdfunding.sol\":3174:3183  Log(addr) */\n      0xb8a00d6d8ca1be30bfec34d8f97e55f0f0fd9eeb7fb46e030516363d4cfe1ad6\n        /* \"crowdfunding.sol\":3178:3182  addr */\n      dup3\n        /* \"crowdfunding.sol\":3174:3183  Log(addr) */\n      mload(0x40)\n      tag_81\n      swap2\n      swap1\n      tag_82\n      jump\t// in\n    tag_81:\n      mload(0x40)\n      dup1\n      swap2\n      sub\n      swap1\n      log1\n        /* \"crowdfunding.sol\":3199:3205  uint i */\n      0x00\n        /* \"crowdfunding.sol\":3195:3462  for(uint i = 0; i < calcJoinNum[num].length;i++) {\r... */\n    tag_83:\n        /* \"crowdfunding.sol\":3215:3226  calcJoinNum */\n      0x04\n        /* \"crowdfunding.sol\":3215:3231  calcJoinNum[num] */\n      0x00\n        /* \"crowdfunding.sol\":3227:3230  num */\n      dup7\n        /* \"crowdfunding.sol\":3215:3231  calcJoinNum[num] */\n      dup2\n      mstore\n      0x20\n      add\n      swap1\n      dup2\n      mstore\n      0x20\n      add\n      0x00\n      keccak256\n        /* \"crowdfunding.sol\":3215:3238  calcJoinNum[num].length */\n      dup1\n      sload\n      swap1\n      pop\n        /* \"crowdfunding.sol\":3211:3212  i */\n      dup2\n        /* \"crowdfunding.sol\":3211:3238  i < calcJoinNum[num].length */\n      lt\n        /* \"crowdfunding.sol\":3195:3462  for(uint i = 0; i < calcJoinNum[num].length;i++) {\r... */\n      iszero\n      tag_84\n      jumpi\n        /* \"crowdfunding.sol\":3299:3325  Log(calcJoinNum[num-1][i]) */\n      0xb8a00d6d8ca1be30bfec34d8f97e55f0f0fd9eeb7fb46e030516363d4cfe1ad6\n        /* \"crowdfunding.sol\":3303:3314  calcJoinNum */\n      0x04\n        /* \"crowdfunding.sol\":3303:3321  calcJoinNum[num-1] */\n      0x00\n        /* \"crowdfunding.sol\":3319:3320  1 */\n      0x01\n        /* \"crowdfunding.sol\":3315:3318  num */\n      dup9\n        /* \"crowdfunding.sol\":3315:3320  num-1 */\n      tag_86\n      swap2\n      swap1\n      tag_73\n      jump\t// in\n    tag_86:\n        /* \"crowdfunding.sol\":3303:3321  calcJoinNum[num-1] */\n      dup2\n      mstore\n      0x20\n      add\n      swap1\n      dup2\n      mstore\n      0x20\n      add\n      0x00\n      keccak256\n        /* \"crowdfunding.sol\":3322:3323  i */\n      dup3\n        /* \"crowdfunding.sol\":3303:3324  calcJoinNum[num-1][i] */\n      dup2\n      sload\n      dup2\n      lt\n      tag_87\n      jumpi\n      tag_88\n      tag_76\n      jump\t// in\n    tag_88:\n    tag_87:\n      swap1\n      0x00\n      mstore\n      keccak256(0x00, 0x20)\n      add\n      0x00\n      swap1\n      sload\n      swap1\n      0x0100\n      exp\n      swap1\n      div\n      0xffffffffffffffffffffffffffffffffffffffff\n      and\n        /* \"crowdfunding.sol\":3299:3325  Log(calcJoinNum[num-1][i]) */\n      mload(0x40)\n      tag_90\n      swap2\n      swap1\n      tag_82\n      jump\t// in\n    tag_90:\n      mload(0x40)\n      dup1\n      swap2\n      sub\n      swap1\n      log1\n        /* \"crowdfunding.sol\":3368:3372  addr */\n      dup3\n        /* \"crowdfunding.sol\":3343:3372  calcJoinNum[num-1][i] != addr */\n      0xffffffffffffffffffffffffffffffffffffffff\n      and\n        /* \"crowdfunding.sol\":3343:3354  calcJoinNum */\n      0x04\n        /* \"crowdfunding.sol\":3343:3361  calcJoinNum[num-1] */\n      0x00\n        /* \"crowdfunding.sol\":3359:3360  1 */\n      0x01\n        /* \"crowdfunding.sol\":3355:3358  num */\n      dup9\n        /* \"crowdfunding.sol\":3355:3360  num-1 */\n      tag_91\n      swap2\n      swap1\n      tag_73\n      jump\t// in\n    tag_91:\n        /* \"crowdfunding.sol\":3343:3361  calcJoinNum[num-1] */\n      dup2\n      mstore\n      0x20\n      add\n      swap1\n      dup2\n      mstore\n      0x20\n      add\n      0x00\n      keccak256\n        /* \"crowdfunding.sol\":3362:3363  i */\n      dup3\n        /* \"crowdfunding.sol\":3343:3364  calcJoinNum[num-1][i] */\n      dup2\n      sload\n      dup2\n      lt\n      tag_92\n      jumpi\n      tag_93\n      tag_76\n      jump\t// in\n    tag_93:\n    tag_92:\n      swap1\n      0x00\n      mstore\n      keccak256(0x00, 0x20)\n      add\n      0x00\n      swap1\n      sload\n      swap1\n      0x0100\n      exp\n      swap1\n      div\n      0xffffffffffffffffffffffffffffffffffffffff\n      and\n        /* \"crowdfunding.sol\":3343:3372  calcJoinNum[num-1][i] != addr */\n      0xffffffffffffffffffffffffffffffffffffffff\n      and\n      eq\n        /* \"crowdfunding.sol\":3340:3451  if(calcJoinNum[num-1][i] != addr) {\r... */\n      tag_95\n      jumpi\n        /* \"crowdfunding.sol\":3407:3411  true */\n      0x01\n        /* \"crowdfunding.sol\":3393:3411  isFirstJoin = true */\n      swap2\n      pop\n        /* \"crowdfunding.sol\":3430:3435  break */\n      jump(tag_84)\n        /* \"crowdfunding.sol\":3340:3451  if(calcJoinNum[num-1][i] != addr) {\r... */\n    tag_95:\n        /* \"crowdfunding.sol\":3239:3242  i++ */\n      dup1\n      dup1\n      tag_96\n      swap1\n      tag_97\n      jump\t// in\n    tag_96:\n      swap2\n      pop\n      pop\n        /* \"crowdfunding.sol\":3195:3462  for(uint i = 0; i < calcJoinNum[num].length;i++) {\r... */\n      jump(tag_83)\n    tag_84:\n      pop\n        /* \"crowdfunding.sol\":3477:3488  isFirstJoin */\n      dup1\n        /* \"crowdfunding.sol\":3474:3598  if(isFirstJoin) {\r... */\n      iszero\n      tag_98\n      jumpi\n        /* \"crowdfunding.sol\":3528:3529  1 */\n      0x01\n        /* \"crowdfunding.sol\":3505:3509  list */\n      dup1\n        /* \"crowdfunding.sol\":3514:3515  1 */\n      0x01\n        /* \"crowdfunding.sol\":3510:3513  num */\n      dup7\n        /* \"crowdfunding.sol\":3510:3515  num-1 */\n      tag_99\n      swap2\n      swap1\n      tag_73\n      jump\t// in\n    tag_99:\n        /* \"crowdfunding.sol\":3505:3516  list[num-1] */\n      dup2\n      sload\n      dup2\n      lt\n      tag_100\n      jumpi\n      tag_101\n      tag_76\n      jump\t// in\n    tag_101:\n    tag_100:\n      swap1\n      0x00\n      mstore\n      keccak256(0x00, 0x20)\n      swap1\n      0x08\n      mul\n      add\n        /* \"crowdfunding.sol\":3505:3524  list[num-1].joinNum */\n      0x05\n      add\n      0x00\n        /* \"crowdfunding.sol\":3505:3529  list[num-1].joinNum += 1 */\n      dup3\n      dup3\n      sload\n      tag_103\n      swap2\n      swap1\n      tag_104\n      jump\t// in\n    tag_103:\n      swap3\n      pop\n      pop\n      dup2\n      swap1\n      sstore\n      pop\n        /* \"crowdfunding.sol\":3474:3598  if(isFirstJoin) {\r... */\n      jump(tag_105)\n    tag_98:\n        /* \"crowdfunding.sol\":3584:3586  10 */\n      0x0a\n        /* \"crowdfunding.sol\":3561:3565  list */\n      0x01\n        /* \"crowdfunding.sol\":3570:3571  1 */\n      dup1\n        /* \"crowdfunding.sol\":3566:3569  num */\n      dup7\n        /* \"crowdfunding.sol\":3566:3571  num-1 */\n      tag_106\n      swap2\n      swap1\n      tag_73\n      jump\t// in\n    tag_106:\n        /* \"crowdfunding.sol\":3561:3572  list[num-1] */\n      dup2\n      sload\n      dup2\n      lt\n      tag_107\n      jumpi\n      tag_108\n      tag_76\n      jump\t// in\n    tag_108:\n    tag_107:\n      swap1\n      0x00\n      mstore\n      keccak256(0x00, 0x20)\n      swap1\n      0x08\n      mul\n      add\n        /* \"crowdfunding.sol\":3561:3580  list[num-1].joinNum */\n      0x05\n      add\n      0x00\n        /* \"crowdfunding.sol\":3561:3586  list[num-1].joinNum += 10 */\n      dup3\n      dup3\n      sload\n      tag_110\n      swap2\n      swap1\n      tag_104\n      jump\t// in\n    tag_110:\n      swap3\n      pop\n      pop\n      dup2\n      swap1\n      sstore\n      pop\n        /* \"crowdfunding.sol\":3474:3598  if(isFirstJoin) {\r... */\n    tag_105:\n        /* \"crowdfunding.sol\":3610:3621  calcJoinNum */\n      0x04\n        /* \"crowdfunding.sol\":3610:3628  calcJoinNum[num-1] */\n      0x00\n        /* \"crowdfunding.sol\":3626:3627  1 */\n      0x01\n        /* \"crowdfunding.sol\":3622:3625  num */\n      dup7\n        /* \"crowdfunding.sol\":3622:3627  num-1 */\n      tag_111\n      swap2\n      swap1\n      tag_73\n      jump\t// in\n    tag_111:\n        /* \"crowdfunding.sol\":3610:3628  calcJoinNum[num-1] */\n      dup2\n      mstore\n      0x20\n      add\n      swap1\n      dup2\n      mstore\n      0x20\n      add\n      0x00\n      keccak256\n        /* \"crowdfunding.sol\":3634:3638  addr */\n      dup3\n        /* \"crowdfunding.sol\":3610:3639  calcJoinNum[num-1].push(addr) */\n      swap1\n      dup1\n      0x01\n      dup2\n      sload\n      add\n      dup1\n      dup3\n      sstore\n      dup1\n      swap2\n      pop\n      pop\n      0x01\n      swap1\n      sub\n      swap1\n      0x00\n      mstore\n      keccak256(0x00, 0x20)\n      add\n      0x00\n      swap1\n      swap2\n      swap1\n      swap2\n      swap1\n      swap2\n      0x0100\n      exp\n      dup2\n      sload\n      dup2\n      0xffffffffffffffffffffffffffffffffffffffff\n      mul\n      not\n      and\n      swap1\n      dup4\n      0xffffffffffffffffffffffffffffffffffffffff\n      and\n      mul\n      or\n      swap1\n      sstore\n      pop\n        /* \"crowdfunding.sol\":3739:3745  amount */\n      dup3\n        /* \"crowdfunding.sol\":3712:3716  list */\n      0x01\n        /* \"crowdfunding.sol\":3721:3722  1 */\n      dup1\n        /* \"crowdfunding.sol\":3717:3720  num */\n      dup7\n        /* \"crowdfunding.sol\":3717:3722  num-1 */\n      tag_113\n      swap2\n      swap1\n      tag_73\n      jump\t// in\n    tag_113:\n        /* \"crowdfunding.sol\":3712:3723  list[num-1] */\n      dup2\n      sload\n      dup2\n      lt\n      tag_114\n      jumpi\n      tag_115\n      tag_76\n      jump\t// in\n    tag_115:\n    tag_114:\n      swap1\n      0x00\n      mstore\n      keccak256(0x00, 0x20)\n      swap1\n      0x08\n      mul\n      add\n        /* \"crowdfunding.sol\":3712:3736  list[num-1].actualAmount */\n      0x07\n      add\n      sload\n        /* \"crowdfunding.sol\":3712:3745  list[num-1].actualAmount + amount */\n      tag_117\n      swap2\n      swap1\n      tag_104\n      jump\t// in\n    tag_117:\n        /* \"crowdfunding.sol\":3685:3689  list */\n      0x01\n        /* \"crowdfunding.sol\":3694:3695  1 */\n      dup1\n        /* \"crowdfunding.sol\":3690:3693  num */\n      dup7\n        /* \"crowdfunding.sol\":3690:3695  num-1 */\n      tag_118\n      swap2\n      swap1\n      tag_73\n      jump\t// in\n    tag_118:\n        /* \"crowdfunding.sol\":3685:3696  list[num-1] */\n      dup2\n      sload\n      dup2\n      lt\n      tag_119\n      jumpi\n      tag_120\n      tag_76\n      jump\t// in\n    tag_120:\n    tag_119:\n      swap1\n      0x00\n      mstore\n      keccak256(0x00, 0x20)\n      swap1\n      0x08\n      mul\n      add\n        /* \"crowdfunding.sol\":3685:3709  list[num-1].actualAmount */\n      0x07\n      add\n        /* \"crowdfunding.sol\":3685:3745  list[num-1].actualAmount = list[num-1].actualAmount + amount */\n      dup2\n      swap1\n      sstore\n      pop\n        /* \"crowdfunding.sol\":3787:3791  list */\n      0x01\n        /* \"crowdfunding.sol\":3796:3797  1 */\n      dup1\n        /* \"crowdfunding.sol\":3792:3795  num */\n      dup6\n        /* \"crowdfunding.sol\":3792:3797  num-1 */\n      tag_122\n      swap2\n      swap1\n      tag_73\n      jump\t// in\n    tag_122:\n        /* \"crowdfunding.sol\":3787:3798  list[num-1] */\n      dup2\n      sload\n      dup2\n      lt\n      tag_123\n      jumpi\n      tag_124\n      tag_76\n      jump\t// in\n    tag_124:\n    tag_123:\n      swap1\n      0x00\n      mstore\n      keccak256(0x00, 0x20)\n      swap1\n      0x08\n      mul\n      add\n        /* \"crowdfunding.sol\":3787:3810  list[num-1].expectAmout */\n      0x06\n      add\n      sload\n        /* \"crowdfunding.sol\":3759:3763  list */\n      0x01\n        /* \"crowdfunding.sol\":3768:3769  1 */\n      dup1\n        /* \"crowdfunding.sol\":3764:3767  num */\n      dup7\n        /* \"crowdfunding.sol\":3764:3769  num-1 */\n      tag_126\n      swap2\n      swap1\n      tag_73\n      jump\t// in\n    tag_126:\n        /* \"crowdfunding.sol\":3759:3770  list[num-1] */\n      dup2\n      sload\n      dup2\n      lt\n      tag_127\n      jumpi\n      tag_128\n      tag_76\n      jump\t// in\n    tag_128:\n    tag_127:\n      swap1\n      0x00\n      mstore\n      keccak256(0x00, 0x20)\n      swap1\n      0x08\n      mul\n      add\n        /* \"crowdfunding.sol\":3759:3783  list[num-1].actualAmount */\n      0x07\n      add\n      sload\n        /* \"crowdfunding.sol\":3759:3810  list[num-1].actualAmount >= list[num-1].expectAmout */\n      lt\n        /* \"crowdfunding.sol\":3756:3966  if(list[num-1].actualAmount >= list[num-1].expectAmout){\r... */\n      tag_130\n      jumpi\n        /* \"crowdfunding.sol\":3914:3915  2 */\n      0x02\n        /* \"crowdfunding.sol\":3893:3897  list */\n      0x01\n        /* \"crowdfunding.sol\":3902:3903  1 */\n      dup1\n        /* \"crowdfunding.sol\":3898:3901  num */\n      dup7\n        /* \"crowdfunding.sol\":3898:3903  num-1 */\n      tag_131\n      swap2\n      swap1\n      tag_73\n      jump\t// in\n    tag_131:\n        /* \"crowdfunding.sol\":3893:3904  list[num-1] */\n      dup2\n      sload\n      dup2\n      lt\n      tag_132\n      jumpi\n      tag_133\n      tag_76\n      jump\t// in\n    tag_133:\n    tag_132:\n      swap1\n      0x00\n      mstore\n      keccak256(0x00, 0x20)\n      swap1\n      0x08\n      mul\n      add\n        /* \"crowdfunding.sol\":3893:3911  list[num-1].status */\n      0x02\n      add\n        /* \"crowdfunding.sol\":3893:3915  list[num-1].status = 2 */\n      dup2\n      swap1\n      sstore\n      pop\n        /* \"crowdfunding.sol\":3756:3966  if(list[num-1].actualAmount >= list[num-1].expectAmout){\r... */\n    tag_130:\n        /* \"crowdfunding.sol\":3123:3973  {\r... */\n      pop\n        /* \"crowdfunding.sol\":3067:3973  function join(uint num,uint amount,address addr) public {\r... */\n      pop\n      pop\n      pop\n      jump\t// out\n        /* \"crowdfunding.sol\":2192:2784  function setStatus(uint num) public {\r... */\n    tag_31:\n        /* \"crowdfunding.sol\":2260:2261  3 */\n      0x03\n        /* \"crowdfunding.sol\":2239:2243  list */\n      0x01\n        /* \"crowdfunding.sol\":2248:2249  1 */\n      dup1\n        /* \"crowdfunding.sol\":2244:2247  num */\n      dup4\n        /* \"crowdfunding.sol\":2244:2249  num-1 */\n      tag_136\n      swap2\n      swap1\n      tag_73\n      jump\t// in\n    tag_136:\n        /* \"crowdfunding.sol\":2239:2250  list[num-1] */\n      dup2\n      sload\n      dup2\n      lt\n      tag_137\n      jumpi\n      tag_138\n      tag_76\n      jump\t// in\n    tag_138:\n    tag_137:\n      swap1\n      0x00\n      mstore\n      keccak256(0x00, 0x20)\n      swap1\n      0x08\n      mul\n      add\n        /* \"crowdfunding.sol\":2239:2257  list[num-1].status */\n      0x02\n      add\n        /* \"crowdfunding.sol\":2239:2261  list[num-1].status = 3 */\n      dup2\n      swap1\n      sstore\n      pop\n        /* \"crowdfunding.sol\":2370:2371  1 */\n      0x01\n        /* \"crowdfunding.sol\":2338:2356  filterDataByStatus */\n      0x02\n        /* \"crowdfunding.sol\":2338:2359  filterDataByStatus[1] */\n      0x00\n        /* \"crowdfunding.sol\":2357:2358  1 */\n      0x01\n        /* \"crowdfunding.sol\":2338:2359  filterDataByStatus[1] */\n      dup2\n      mstore\n      0x20\n      add\n      swap1\n      dup2\n      mstore\n      0x20\n      add\n      0x00\n      keccak256\n        /* \"crowdfunding.sol\":2338:2366  filterDataByStatus[1].length */\n      dup1\n      sload\n      swap1\n      pop\n        /* \"crowdfunding.sol\":2338:2371  filterDataByStatus[1].length == 1 */\n      eq\n        /* \"crowdfunding.sol\":2335:2727  if(filterDataByStatus[1].length == 1){\r... */\n      iszero\n      tag_140\n      jumpi\n        /* \"crowdfunding.sol\":2387:2405  filterDataByStatus */\n      0x02\n        /* \"crowdfunding.sol\":2387:2408  filterDataByStatus[1] */\n      0x00\n        /* \"crowdfunding.sol\":2406:2407  1 */\n      0x01\n        /* \"crowdfunding.sol\":2387:2408  filterDataByStatus[1] */\n      dup2\n      mstore\n      0x20\n      add\n      swap1\n      dup2\n      mstore\n      0x20\n      add\n      0x00\n      keccak256\n        /* \"crowdfunding.sol\":2387:2414  filterDataByStatus[1].pop() */\n      dup1\n      sload\n      dup1\n      tag_141\n      jumpi\n      tag_142\n      tag_143\n      jump\t// in\n    tag_142:\n    tag_141:\n      0x01\n      swap1\n      sub\n      dup2\n      dup2\n      swap1\n      0x00\n      mstore\n      keccak256(0x00, 0x20)\n      swap1\n      0x08\n      mul\n      add\n      0x00\n      dup1\n      dup3\n      add\n      0x00\n      swap1\n      sstore\n      0x01\n      dup3\n      add\n      0x00\n      tag_145\n      swap2\n      swap1\n      tag_146\n      jump\t// in\n    tag_145:\n      0x02\n      dup3\n      add\n      0x00\n      swap1\n      sstore\n      0x03\n      dup3\n      add\n      exp(0x0100, 0x00)\n      dup2\n      sload\n      swap1\n      0xffffffffffffffffffffffffffffffffffffffff\n      mul\n      not\n      and\n      swap1\n      sstore\n      0x04\n      dup3\n      add\n      exp(0x0100, 0x00)\n      dup2\n      sload\n      swap1\n      0xffffffffffffffffffffffffffffffffffffffff\n      mul\n      not\n      and\n      swap1\n      sstore\n      0x05\n      dup3\n      add\n      0x00\n      swap1\n      sstore\n      0x06\n      dup3\n      add\n      0x00\n      swap1\n      sstore\n      0x07\n      dup3\n      add\n      0x00\n      swap1\n      sstore\n      pop\n      pop\n      swap1\n      sstore\n        /* \"crowdfunding.sol\":2335:2727  if(filterDataByStatus[1].length == 1){\r... */\n      jump(tag_147)\n    tag_140:\n        /* \"crowdfunding.sol\":2449:2455  uint i */\n      0x00\n        /* \"crowdfunding.sol\":2445:2674  for(uint i = 0; i < filterDataByStatus[1].length - 1; i++) {\r... */\n    tag_148:\n        /* \"crowdfunding.sol\":2496:2497  1 */\n      0x01\n        /* \"crowdfunding.sol\":2465:2483  filterDataByStatus */\n      0x02\n        /* \"crowdfunding.sol\":2465:2486  filterDataByStatus[1] */\n      0x00\n        /* \"crowdfunding.sol\":2484:2485  1 */\n      0x01\n        /* \"crowdfunding.sol\":2465:2486  filterDataByStatus[1] */\n      dup2\n      mstore\n      0x20\n      add\n      swap1\n      dup2\n      mstore\n      0x20\n      add\n      0x00\n      keccak256\n        /* \"crowdfunding.sol\":2465:2493  filterDataByStatus[1].length */\n      dup1\n      sload\n      swap1\n      pop\n        /* \"crowdfunding.sol\":2465:2497  filterDataByStatus[1].length - 1 */\n      tag_151\n      swap2\n      swap1\n      tag_73\n      jump\t// in\n    tag_151:\n        /* \"crowdfunding.sol\":2461:2462  i */\n      dup2\n        /* \"crowdfunding.sol\":2461:2497  i < filterDataByStatus[1].length - 1 */\n      lt\n        /* \"crowdfunding.sol\":2445:2674  for(uint i = 0; i < filterDataByStatus[1].length - 1; i++) {\r... */\n      iszero\n      tag_149\n      jumpi\n        /* \"crowdfunding.sol\":2558:2561  num */\n      dup2\n        /* \"crowdfunding.sol\":2526:2544  filterDataByStatus */\n      0x02\n        /* \"crowdfunding.sol\":2526:2547  filterDataByStatus[1] */\n      0x00\n        /* \"crowdfunding.sol\":2545:2546  1 */\n      0x01\n        /* \"crowdfunding.sol\":2526:2547  filterDataByStatus[1] */\n      dup2\n      mstore\n      0x20\n      add\n      swap1\n      dup2\n      mstore\n      0x20\n      add\n      0x00\n      keccak256\n        /* \"crowdfunding.sol\":2548:2549  i */\n      dup3\n        /* \"crowdfunding.sol\":2526:2550  filterDataByStatus[1][i] */\n      dup2\n      sload\n      dup2\n      lt\n      tag_152\n      jumpi\n      tag_153\n      tag_76\n      jump\t// in\n    tag_153:\n    tag_152:\n      swap1\n      0x00\n      mstore\n      keccak256(0x00, 0x20)\n      swap1\n      0x08\n      mul\n      add\n        /* \"crowdfunding.sol\":2526:2554  filterDataByStatus[1][i].num */\n      0x00\n      add\n      sload\n        /* \"crowdfunding.sol\":2526:2561  filterDataByStatus[1][i].num == num */\n      eq\n        /* \"crowdfunding.sol\":2523:2659  if(filterDataByStatus[1][i].num == num) {\r... */\n      iszero\n      tag_155\n      jumpi\n        /* \"crowdfunding.sol\":2613:2631  filterDataByStatus */\n      0x02\n        /* \"crowdfunding.sol\":2613:2634  filterDataByStatus[1] */\n      0x00\n        /* \"crowdfunding.sol\":2632:2633  1 */\n      0x01\n        /* \"crowdfunding.sol\":2613:2634  filterDataByStatus[1] */\n      dup2\n      mstore\n      0x20\n      add\n      swap1\n      dup2\n      mstore\n      0x20\n      add\n      0x00\n      keccak256\n        /* \"crowdfunding.sol\":2637:2638  1 */\n      0x01\n        /* \"crowdfunding.sol\":2635:2636  i */\n      dup3\n        /* \"crowdfunding.sol\":2635:2638  i+1 */\n      tag_156\n      swap2\n      swap1\n      tag_104\n      jump\t// in\n    tag_156:\n        /* \"crowdfunding.sol\":2613:2639  filterDataByStatus[1][i+1] */\n      dup2\n      sload\n      dup2\n      lt\n      tag_157\n      jumpi\n      tag_158\n      tag_76\n      jump\t// in\n    tag_158:\n    tag_157:\n      swap1\n      0x00\n      mstore\n      keccak256(0x00, 0x20)\n      swap1\n      0x08\n      mul\n      add\n        /* \"crowdfunding.sol\":2586:2604  filterDataByStatus */\n      0x02\n        /* \"crowdfunding.sol\":2586:2607  filterDataByStatus[1] */\n      0x00\n        /* \"crowdfunding.sol\":2605:2606  1 */\n      0x01\n        /* \"crowdfunding.sol\":2586:2607  filterDataByStatus[1] */\n      dup2\n      mstore\n      0x20\n      add\n      swap1\n      dup2\n      mstore\n      0x20\n      add\n      0x00\n      keccak256\n        /* \"crowdfunding.sol\":2608:2609  i */\n      dup3\n        /* \"crowdfunding.sol\":2586:2610  filterDataByStatus[1][i] */\n      dup2\n      sload\n      dup2\n      lt\n      tag_160\n      jumpi\n      tag_161\n      tag_76\n      jump\t// in\n    tag_161:\n    tag_160:\n      swap1\n      0x00\n      mstore\n      keccak256(0x00, 0x20)\n      swap1\n      0x08\n      mul\n      add\n        /* \"crowdfunding.sol\":2586:2639  filterDataByStatus[1][i] = filterDataByStatus[1][i+1] */\n      0x00\n      dup3\n      add\n      sload\n      dup2\n      0x00\n      add\n      sstore\n      0x01\n      dup3\n      add\n      dup2\n      0x01\n      add\n      swap1\n      dup1\n      sload\n      tag_163\n      swap1\n      tag_66\n      jump\t// in\n    tag_163:\n      tag_164\n      swap3\n      swap2\n      swap1\n      tag_165\n      jump\t// in\n    tag_164:\n      pop\n      0x02\n      dup3\n      add\n      sload\n      dup2\n      0x02\n      add\n      sstore\n      0x03\n      dup3\n      add\n      0x00\n      swap1\n      sload\n      swap1\n      0x0100\n      exp\n      swap1\n      div\n      0xffffffffffffffffffffffffffffffffffffffff\n      and\n      dup2\n      0x03\n      add\n      exp(0x0100, 0x00)\n      dup2\n      sload\n      dup2\n      0xffffffffffffffffffffffffffffffffffffffff\n      mul\n      not\n      and\n      swap1\n      dup4\n      0xffffffffffffffffffffffffffffffffffffffff\n      and\n      mul\n      or\n      swap1\n      sstore\n      pop\n      0x04\n      dup3\n      add\n      0x00\n      swap1\n      sload\n      swap1\n      0x0100\n      exp\n      swap1\n      div\n      0xffffffffffffffffffffffffffffffffffffffff\n      and\n      dup2\n      0x04\n      add\n      exp(0x0100, 0x00)\n      dup2\n      sload\n      dup2\n      0xffffffffffffffffffffffffffffffffffffffff\n      mul\n      not\n      and\n      swap1\n      dup4\n      0xffffffffffffffffffffffffffffffffffffffff\n      and\n      mul\n      or\n      swap1\n      sstore\n      pop\n      0x05\n      dup3\n      add\n      sload\n      dup2\n      0x05\n      add\n      sstore\n      0x06\n      dup3\n      add\n      sload\n      dup2\n      0x06\n      add\n      sstore\n      0x07\n      dup3\n      add\n      sload\n      dup2\n      0x07\n      add\n      sstore\n      swap1\n      pop\n      pop\n        /* \"crowdfunding.sol\":2523:2659  if(filterDataByStatus[1][i].num == num) {\r... */\n    tag_155:\n        /* \"crowdfunding.sol\":2499:2502  i++ */\n      dup1\n      dup1\n      tag_166\n      swap1\n      tag_97\n      jump\t// in\n    tag_166:\n      swap2\n      pop\n      pop\n        /* \"crowdfunding.sol\":2445:2674  for(uint i = 0; i < filterDataByStatus[1].length - 1; i++) {\r... */\n      jump(tag_148)\n    tag_149:\n      pop\n        /* \"crowdfunding.sol\":2688:2706  filterDataByStatus */\n      0x02\n        /* \"crowdfunding.sol\":2688:2709  filterDataByStatus[1] */\n      0x00\n        /* \"crowdfunding.sol\":2707:2708  1 */\n      0x01\n        /* \"crowdfunding.sol\":2688:2709  filterDataByStatus[1] */\n      dup2\n      mstore\n      0x20\n      add\n      swap1\n      dup2\n      mstore\n      0x20\n      add\n      0x00\n      keccak256\n        /* \"crowdfunding.sol\":2688:2715  filterDataByStatus[1].pop() */\n      dup1\n      sload\n      dup1\n      tag_167\n      jumpi\n      tag_168\n      tag_143\n      jump\t// in\n    tag_168:\n    tag_167:\n      0x01\n      swap1\n      sub\n      dup2\n      dup2\n      swap1\n      0x00\n      mstore\n      keccak256(0x00, 0x20)\n      swap1\n      0x08\n      mul\n      add\n      0x00\n      dup1\n      dup3\n      add\n      0x00\n      swap1\n      sstore\n      0x01\n      dup3\n      add\n      0x00\n      tag_170\n      swap2\n      swap1\n      tag_146\n      jump\t// in\n    tag_170:\n      0x02\n      dup3\n      add\n      0x00\n      swap1\n      sstore\n      0x03\n      dup3\n      add\n      exp(0x0100, 0x00)\n      dup2\n      sload\n      swap1\n      0xffffffffffffffffffffffffffffffffffffffff\n      mul\n      not\n      and\n      swap1\n      sstore\n      0x04\n      dup3\n      add\n      exp(0x0100, 0x00)\n      dup2\n      sload\n      swap1\n      0xffffffffffffffffffffffffffffffffffffffff\n      mul\n      not\n      and\n      swap1\n      sstore\n      0x05\n      dup3\n      add\n      0x00\n      swap1\n      sstore\n      0x06\n      dup3\n      add\n      0x00\n      swap1\n      sstore\n      0x07\n      dup3\n      add\n      0x00\n      swap1\n      sstore\n      pop\n      pop\n      swap1\n      sstore\n        /* \"crowdfunding.sol\":2335:2727  if(filterDataByStatus[1].length == 1){\r... */\n    tag_147:\n        /* \"crowdfunding.sol\":2737:2755  filterDataByStatus */\n      0x02\n        /* \"crowdfunding.sol\":2737:2758  filterDataByStatus[3] */\n      0x00\n        /* \"crowdfunding.sol\":2756:2757  3 */\n      0x03\n        /* \"crowdfunding.sol\":2737:2758  filterDataByStatus[3] */\n      dup2\n      mstore\n      0x20\n      add\n      swap1\n      dup2\n      mstore\n      0x20\n      add\n      0x00\n      keccak256\n        /* \"crowdfunding.sol\":2764:2768  list */\n      0x01\n        /* \"crowdfunding.sol\":2773:2774  1 */\n      dup1\n        /* \"crowdfunding.sol\":2769:2772  num */\n      dup4\n        /* \"crowdfunding.sol\":2769:2774  num-1 */\n      tag_171\n      swap2\n      swap1\n      tag_73\n      jump\t// in\n    tag_171:\n        /* \"crowdfunding.sol\":2764:2775  list[num-1] */\n      dup2\n      sload\n      dup2\n      lt\n      tag_172\n      jumpi\n      tag_173\n      tag_76\n      jump\t// in\n    tag_173:\n    tag_172:\n      swap1\n      0x00\n      mstore\n      keccak256(0x00, 0x20)\n      swap1\n      0x08\n      mul\n      add\n        /* \"crowdfunding.sol\":2737:2776  filterDataByStatus[3].push(list[num-1]) */\n      swap1\n      dup1\n      0x01\n      dup2\n      sload\n      add\n      dup1\n      dup3\n      sstore\n      dup1\n      swap2\n      pop\n      pop\n      0x01\n      swap1\n      sub\n      swap1\n      0x00\n      mstore\n      keccak256(0x00, 0x20)\n      swap1\n      0x08\n      mul\n      add\n      0x00\n      swap1\n      swap2\n      swap1\n      swap2\n      swap1\n      swap2\n      pop\n      0x00\n      dup3\n      add\n      sload\n      dup2\n      0x00\n      add\n      sstore\n      0x01\n      dup3\n      add\n      dup2\n      0x01\n      add\n      swap1\n      dup1\n      sload\n      tag_176\n      swap1\n      tag_66\n      jump\t// in\n    tag_176:\n      tag_177\n      swap3\n      swap2\n      swap1\n      tag_165\n      jump\t// in\n    tag_177:\n      pop\n      0x02\n      dup3\n      add\n      sload\n      dup2\n      0x02\n      add\n      sstore\n      0x03\n      dup3\n      add\n      0x00\n      swap1\n      sload\n      swap1\n      0x0100\n      exp\n      swap1\n      div\n      0xffffffffffffffffffffffffffffffffffffffff\n      and\n      dup2\n      0x03\n      add\n      exp(0x0100, 0x00)\n      dup2\n      sload\n      dup2\n      0xffffffffffffffffffffffffffffffffffffffff\n      mul\n      not\n      and\n      swap1\n      dup4\n      0xffffffffffffffffffffffffffffffffffffffff\n      and\n      mul\n      or\n      swap1\n      sstore\n      pop\n      0x04\n      dup3\n      add\n      0x00\n      swap1\n      sload\n      swap1\n      0x0100\n      exp\n      swap1\n      div\n      0xffffffffffffffffffffffffffffffffffffffff\n      and\n      dup2\n      0x04\n      add\n      exp(0x0100, 0x00)\n      dup2\n      sload\n      dup2\n      0xffffffffffffffffffffffffffffffffffffffff\n      mul\n      not\n      and\n      swap1\n      dup4\n      0xffffffffffffffffffffffffffffffffffffffff\n      and\n      mul\n      or\n      swap1\n      sstore\n      pop\n      0x05\n      dup3\n      add\n      sload\n      dup2\n      0x05\n      add\n      sstore\n      0x06\n      dup3\n      add\n      sload\n      dup2\n      0x06\n      add\n      sstore\n      0x07\n      dup3\n      add\n      sload\n      dup2\n      0x07\n      add\n      sstore\n      pop\n      pop\n        /* \"crowdfunding.sol\":2192:2784  function setStatus(uint num) public {\r... */\n      pop\n      jump\t// out\n        /* \"crowdfunding.sol\":814:840  Crowdfunding[] public list */\n    tag_34:\n      0x01\n      dup2\n      dup2\n      sload\n      dup2\n      lt\n      tag_178\n      jumpi\n      0x00\n      dup1\n      revert\n    tag_178:\n      swap1\n      0x00\n      mstore\n      keccak256(0x00, 0x20)\n      swap1\n      0x08\n      mul\n      add\n      0x00\n      swap2\n      pop\n      swap1\n      pop\n      dup1\n      0x00\n      add\n      sload\n      swap1\n      dup1\n      0x01\n      add\n      dup1\n      sload\n      tag_180\n      swap1\n      tag_66\n      jump\t// in\n    tag_180:\n      dup1\n      0x1f\n      add\n      0x20\n      dup1\n      swap2\n      div\n      mul\n      0x20\n      add\n      mload(0x40)\n      swap1\n      dup2\n      add\n      0x40\n      mstore\n      dup1\n      swap3\n      swap2\n      swap1\n      dup2\n      dup2\n      mstore\n      0x20\n      add\n      dup3\n      dup1\n      sload\n      tag_181\n      swap1\n      tag_66\n      jump\t// in\n    tag_181:\n      dup1\n      iszero\n      tag_182\n      jumpi\n      dup1\n      0x1f\n      lt\n      tag_183\n      jumpi\n      0x0100\n      dup1\n      dup4\n      sload\n      div\n      mul\n      dup4\n      mstore\n      swap2\n      0x20\n      add\n      swap2\n      jump(tag_182)\n    tag_183:\n      dup3\n      add\n      swap2\n      swap1\n      0x00\n      mstore\n      keccak256(0x00, 0x20)\n      swap1\n    tag_184:\n      dup2\n      sload\n      dup2\n      mstore\n      swap1\n      0x01\n      add\n      swap1\n      0x20\n      add\n      dup1\n      dup4\n      gt\n      tag_184\n      jumpi\n      dup3\n      swap1\n      sub\n      0x1f\n      and\n      dup3\n      add\n      swap2\n    tag_182:\n      pop\n      pop\n      pop\n      pop\n      pop\n      swap1\n      dup1\n      0x02\n      add\n      sload\n      swap1\n      dup1\n      0x03\n      add\n      0x00\n      swap1\n      sload\n      swap1\n      0x0100\n      exp\n      swap1\n      div\n      0xffffffffffffffffffffffffffffffffffffffff\n      and\n      swap1\n      dup1\n      0x04\n      add\n      0x00\n      swap1\n      sload\n      swap1\n      0x0100\n      exp\n      swap1\n      div\n      0xffffffffffffffffffffffffffffffffffffffff\n      and\n      swap1\n      dup1\n      0x05\n      add\n      sload\n      swap1\n      dup1\n      0x06\n      add\n      sload\n      swap1\n      dup1\n      0x07\n      add\n      sload\n      swap1\n      pop\n      dup9\n      jump\t// out\n        /* \"crowdfunding.sol\":4025:4208  function getCrowdfundingByStatus(uint _status) public view returns (Crowdfunding[] memory) {\r... */\n    tag_39:\n        /* \"crowdfunding.sol\":4093:4114  Crowdfunding[] memory */\n      0x60\n        /* \"crowdfunding.sol\":4141:4142  0 */\n      0x00\n        /* \"crowdfunding.sol\":4130:4137  _status */\n      dup3\n        /* \"crowdfunding.sol\":4130:4142  _status == 0 */\n      eq\n        /* \"crowdfunding.sol\":4127:4155  if(_status == 0) return list */\n      iszero\n      tag_186\n      jumpi\n        /* \"crowdfunding.sol\":4151:4155  list */\n      0x01\n        /* \"crowdfunding.sol\":4144:4155  return list */\n      dup1\n      sload\n      dup1\n      0x20\n      mul\n      0x20\n      add\n      mload(0x40)\n      swap1\n      dup2\n      add\n      0x40\n      mstore\n      dup1\n      swap3\n      swap2\n      swap1\n      dup2\n      dup2\n      mstore\n      0x20\n      add\n      0x00\n      swap1\n    tag_187:\n      dup3\n      dup3\n      lt\n      iszero\n      tag_188\n      jumpi\n      dup4\n      dup3\n      swap1\n      0x00\n      mstore\n      keccak256(0x00, 0x20)\n      swap1\n      0x08\n      mul\n      add\n      mload(0x40)\n      dup1\n      0x0100\n      add\n      0x40\n      mstore\n      swap1\n      dup2\n      0x00\n      dup3\n      add\n      sload\n      dup2\n      mstore\n      0x20\n      add\n      0x01\n      dup3\n      add\n      dup1\n      sload\n      tag_190\n      swap1\n      tag_66\n      jump\t// in\n    tag_190:\n      dup1\n      0x1f\n      add\n      0x20\n      dup1\n      swap2\n      div\n      mul\n      0x20\n      add\n      mload(0x40)\n      swap1\n      dup2\n      add\n      0x40\n      mstore\n      dup1\n      swap3\n      swap2\n      swap1\n      dup2\n      dup2\n      mstore\n      0x20\n      add\n      dup3\n      dup1\n      sload\n      tag_191\n      swap1\n      tag_66\n      jump\t// in\n    tag_191:\n      dup1\n      iszero\n      tag_192\n      jumpi\n      dup1\n      0x1f\n      lt\n      tag_193\n      jumpi\n      0x0100\n      dup1\n      dup4\n      sload\n      div\n      mul\n      dup4\n      mstore\n      swap2\n      0x20\n      add\n      swap2\n      jump(tag_192)\n    tag_193:\n      dup3\n      add\n      swap2\n      swap1\n      0x00\n      mstore\n      keccak256(0x00, 0x20)\n      swap1\n    tag_194:\n      dup2\n      sload\n      dup2\n      mstore\n      swap1\n      0x01\n      add\n      swap1\n      0x20\n      add\n      dup1\n      dup4\n      gt\n      tag_194\n      jumpi\n      dup3\n      swap1\n      sub\n      0x1f\n      and\n      dup3\n      add\n      swap2\n    tag_192:\n      pop\n      pop\n      pop\n      pop\n      pop\n      dup2\n      mstore\n      0x20\n      add\n      0x02\n      dup3\n      add\n      sload\n      dup2\n      mstore\n      0x20\n      add\n      0x03\n      dup3\n      add\n      0x00\n      swap1\n      sload\n      swap1\n      0x0100\n      exp\n      swap1\n      div\n      0xffffffffffffffffffffffffffffffffffffffff\n      and\n      0xffffffffffffffffffffffffffffffffffffffff\n      and\n      0xffffffffffffffffffffffffffffffffffffffff\n      and\n      dup2\n      mstore\n      0x20\n      add\n      0x04\n      dup3\n      add\n      0x00\n      swap1\n      sload\n      swap1\n      0x0100\n      exp\n      swap1\n      div\n      0xffffffffffffffffffffffffffffffffffffffff\n      and\n      0xffffffffffffffffffffffffffffffffffffffff\n      and\n      0xffffffffffffffffffffffffffffffffffffffff\n      and\n      dup2\n      mstore\n      0x20\n      add\n      0x05\n      dup3\n      add\n      sload\n      dup2\n      mstore\n      0x20\n      add\n      0x06\n      dup3\n      add\n      sload\n      dup2\n      mstore\n      0x20\n      add\n      0x07\n      dup3\n      add\n      sload\n      dup2\n      mstore\n      pop\n      pop\n      dup2\n      mstore\n      0x20\n      add\n      swap1\n      0x01\n      add\n      swap1\n      jump(tag_187)\n    tag_188:\n      pop\n      pop\n      pop\n      pop\n      swap1\n      pop\n      jump(tag_185)\n        /* \"crowdfunding.sol\":4127:4155  if(_status == 0) return list */\n    tag_186:\n        /* \"crowdfunding.sol\":4173:4191  filterDataByStatus */\n      0x02\n        /* \"crowdfunding.sol\":4173:4200  filterDataByStatus[_status] */\n      0x00\n        /* \"crowdfunding.sol\":4192:4199  _status */\n      dup4\n        /* \"crowdfunding.sol\":4173:4200  filterDataByStatus[_status] */\n      dup2\n      mstore\n      0x20\n      add\n      swap1\n      dup2\n      mstore\n      0x20\n      add\n      0x00\n      keccak256\n        /* \"crowdfunding.sol\":4166:4200  return filterDataByStatus[_status] */\n      dup1\n      sload\n      dup1\n      0x20\n      mul\n      0x20\n      add\n      mload(0x40)\n      swap1\n      dup2\n      add\n      0x40\n      mstore\n      dup1\n      swap3\n      swap2\n      swap1\n      dup2\n      dup2\n      mstore\n      0x20\n      add\n      0x00\n      swap1\n    tag_195:\n      dup3\n      dup3\n      lt\n      iszero\n      tag_196\n      jumpi\n      dup4\n      dup3\n      swap1\n      0x00\n      mstore\n      keccak256(0x00, 0x20)\n      swap1\n      0x08\n      mul\n      add\n      mload(0x40)\n      dup1\n      0x0100\n      add\n      0x40\n      mstore\n      swap1\n      dup2\n      0x00\n      dup3\n      add\n      sload\n      dup2\n      mstore\n      0x20\n      add\n      0x01\n      dup3\n      add\n      dup1\n      sload\n      tag_198\n      swap1\n      tag_66\n      jump\t// in\n    tag_198:\n      dup1\n      0x1f\n      add\n      0x20\n      dup1\n      swap2\n      div\n      mul\n      0x20\n      add\n      mload(0x40)\n      swap1\n      dup2\n      add\n      0x40\n      mstore\n      dup1\n      swap3\n      swap2\n      swap1\n      dup2\n      dup2\n      mstore\n      0x20\n      add\n      dup3\n      dup1\n      sload\n      tag_199\n      swap1\n      tag_66\n      jump\t// in\n    tag_199:\n      dup1\n      iszero\n      tag_200\n      jumpi\n      dup1\n      0x1f\n      lt\n      tag_201\n      jumpi\n      0x0100\n      dup1\n      dup4\n      sload\n      div\n      mul\n      dup4\n      mstore\n      swap2\n      0x20\n      add\n      swap2\n      jump(tag_200)\n    tag_201:\n      dup3\n      add\n      swap2\n      swap1\n      0x00\n      mstore\n      keccak256(0x00, 0x20)\n      swap1\n    tag_202:\n      dup2\n      sload\n      dup2\n      mstore\n      swap1\n      0x01\n      add\n      swap1\n      0x20\n      add\n      dup1\n      dup4\n      gt\n      tag_202\n      jumpi\n      dup3\n      swap1\n      sub\n      0x1f\n      and\n      dup3\n      add\n      swap2\n    tag_200:\n      pop\n      pop\n      pop\n      pop\n      pop\n      dup2\n      mstore\n      0x20\n      add\n      0x02\n      dup3\n      add\n      sload\n      dup2\n      mstore\n      0x20\n      add\n      0x03\n      dup3\n      add\n      0x00\n      swap1\n      sload\n      swap1\n      0x0100\n      exp\n      swap1\n      div\n      0xffffffffffffffffffffffffffffffffffffffff\n      and\n      0xffffffffffffffffffffffffffffffffffffffff\n      and\n      0xffffffffffffffffffffffffffffffffffffffff\n      and\n      dup2\n      mstore\n      0x20\n      add\n      0x04\n      dup3\n      add\n      0x00\n      swap1\n      sload\n      swap1\n      0x0100\n      exp\n      swap1\n      div\n      0xffffffffffffffffffffffffffffffffffffffff\n      and\n      0xffffffffffffffffffffffffffffffffffffffff\n      and\n      0xffffffffffffffffffffffffffffffffffffffff\n      and\n      dup2\n      mstore\n      0x20\n      add\n      0x05\n      dup3\n      add\n      sload\n      dup2\n      mstore\n      0x20\n      add\n      0x06\n      dup3\n      add\n      sload\n      dup2\n      mstore\n      0x20\n      add\n      0x07\n      dup3\n      add\n      sload\n      dup2\n      mstore\n      pop\n      pop\n      dup2\n      mstore\n      0x20\n      add\n      swap1\n      0x01\n      add\n      swap1\n      jump(tag_195)\n    tag_196:\n      pop\n      pop\n      pop\n      pop\n      swap1\n      pop\n        /* \"crowdfunding.sol\":4025:4208  function getCrowdfundingByStatus(uint _status) public view returns (Crowdfunding[] memory) {\r... */\n    tag_185:\n      swap2\n      swap1\n      pop\n      jump\t// out\n        /* \"crowdfunding.sol\":1508:2113  function createCrowdfunding(string memory _title,address _recipient, uint _expectAmout) public {\r... */\n    tag_44:\n        /* \"crowdfunding.sol\":1614:1616  No */\n      0x00\n      dup1\n        /* \"crowdfunding.sol\":1614:1618  No++ */\n      dup2\n      sload\n      dup1\n      swap3\n      swap2\n      swap1\n      tag_204\n      swap1\n      tag_97\n      jump\t// in\n    tag_204:\n      swap2\n      swap1\n      pop\n      sstore\n      pop\n        /* \"crowdfunding.sol\":1629:1650  Crowdfunding memory c */\n      0x00\n        /* \"crowdfunding.sol\":1653:1923  Crowdfunding({\r... */\n      mload(0x40)\n      dup1\n      0x0100\n      add\n      0x40\n      mstore\n      dup1\n        /* \"crowdfunding.sol\":1686:1688  No */\n      sload(0x00)\n        /* \"crowdfunding.sol\":1653:1923  Crowdfunding({\r... */\n      dup2\n      mstore\n      0x20\n      add\n        /* \"crowdfunding.sol\":1709:1715  _title */\n      dup6\n        /* \"crowdfunding.sol\":1653:1923  Crowdfunding({\r... */\n      dup2\n      mstore\n      0x20\n      add\n        /* \"crowdfunding.sol\":1738:1739  1 */\n      0x01\n        /* \"crowdfunding.sol\":1653:1923  Crowdfunding({\r... */\n      dup2\n      mstore\n      0x20\n      add\n        /* \"crowdfunding.sol\":1763:1773  msg.sender */\n      caller\n        /* \"crowdfunding.sol\":1653:1923  Crowdfunding({\r... */\n      0xffffffffffffffffffffffffffffffffffffffff\n      and\n      dup2\n      mstore\n      0x20\n      add\n        /* \"crowdfunding.sol\":1799:1809  _recipient */\n      dup5\n        /* \"crowdfunding.sol\":1653:1923  Crowdfunding({\r... */\n      0xffffffffffffffffffffffffffffffffffffffff\n      and\n      dup2\n      mstore\n      0x20\n      add\n        /* \"crowdfunding.sol\":1833:1834  0 */\n      0x00\n        /* \"crowdfunding.sol\":1653:1923  Crowdfunding({\r... */\n      dup2\n      mstore\n      0x20\n      add\n        /* \"crowdfunding.sol\":1869:1881  _expectAmout */\n      dup4\n        /* \"crowdfunding.sol\":1653:1923  Crowdfunding({\r... */\n      dup2\n      mstore\n      0x20\n      add\n        /* \"crowdfunding.sol\":1910:1911  0 */\n      0x00\n        /* \"crowdfunding.sol\":1653:1923  Crowdfunding({\r... */\n      dup2\n      mstore\n      pop\n        /* \"crowdfunding.sol\":1629:1923  Crowdfunding memory c = Crowdfunding({\r... */\n      swap1\n      pop\n        /* \"crowdfunding.sol\":1934:1938  list */\n      0x01\n        /* \"crowdfunding.sol\":1944:1945  c */\n      dup2\n        /* \"crowdfunding.sol\":1934:1946  list.push(c) */\n      swap1\n      dup1\n      0x01\n      dup2\n      sload\n      add\n      dup1\n      dup3\n      sstore\n      dup1\n      swap2\n      pop\n      pop\n      0x01\n      swap1\n      sub\n      swap1\n      0x00\n      mstore\n      keccak256(0x00, 0x20)\n      swap1\n      0x08\n      mul\n      add\n      0x00\n      swap1\n      swap2\n      swap1\n      swap2\n      swap1\n      swap2\n      pop\n      0x00\n      dup3\n      add\n      mload\n      dup2\n      0x00\n      add\n      sstore\n      0x20\n      dup3\n      add\n      mload\n      dup2\n      0x01\n      add\n      swap1\n      dup1\n      mload\n      swap1\n      0x20\n      add\n      swap1\n      tag_206\n      swap3\n      swap2\n      swap1\n      tag_79\n      jump\t// in\n    tag_206:\n      pop\n      0x40\n      dup3\n      add\n      mload\n      dup2\n      0x02\n      add\n      sstore\n      0x60\n      dup3\n      add\n      mload\n      dup2\n      0x03\n      add\n      exp(0x0100, 0x00)\n      dup2\n      sload\n      dup2\n      0xffffffffffffffffffffffffffffffffffffffff\n      mul\n      not\n      and\n      swap1\n      dup4\n      0xffffffffffffffffffffffffffffffffffffffff\n      and\n      mul\n      or\n      swap1\n      sstore\n      pop\n      0x80\n      dup3\n      add\n      mload\n      dup2\n      0x04\n      add\n      exp(0x0100, 0x00)\n      dup2\n      sload\n      dup2\n      0xffffffffffffffffffffffffffffffffffffffff\n      mul\n      not\n      and\n      swap1\n      dup4\n      0xffffffffffffffffffffffffffffffffffffffff\n      and\n      mul\n      or\n      swap1\n      sstore\n      pop\n      0xa0\n      dup3\n      add\n      mload\n      dup2\n      0x05\n      add\n      sstore\n      0xc0\n      dup3\n      add\n      mload\n      dup2\n      0x06\n      add\n      sstore\n      0xe0\n      dup3\n      add\n      mload\n      dup2\n      0x07\n      add\n      sstore\n      pop\n      pop\n        /* \"crowdfunding.sol\":2031:2049  filterDataByStatus */\n      0x02\n        /* \"crowdfunding.sol\":2031:2052  filterDataByStatus[1] */\n      0x00\n        /* \"crowdfunding.sol\":2050:2051  1 */\n      0x01\n        /* \"crowdfunding.sol\":2031:2052  filterDataByStatus[1] */\n      dup2\n      mstore\n      0x20\n      add\n      swap1\n      dup2\n      mstore\n      0x20\n      add\n      0x00\n      keccak256\n        /* \"crowdfunding.sol\":2058:2059  c */\n      dup2\n        /* \"crowdfunding.sol\":2031:2060  filterDataByStatus[1].push(c) */\n      swap1\n      dup1\n      0x01\n      dup2\n      sload\n      add\n      dup1\n      dup3\n      sstore\n      dup1\n      swap2\n      pop\n      pop\n      0x01\n      swap1\n      sub\n      swap1\n      0x00\n      mstore\n      keccak256(0x00, 0x20)\n      swap1\n      0x08\n      mul\n      add\n      0x00\n      swap1\n      swap2\n      swap1\n      swap2\n      swap1\n      swap2\n      pop\n      0x00\n      dup3\n      add\n      mload\n      dup2\n      0x00\n      add\n      sstore\n      0x20\n      dup3\n      add\n      mload\n      dup2\n      0x01\n      add\n      swap1\n      dup1\n      mload\n      swap1\n      0x20\n      add\n      swap1\n      tag_208\n      swap3\n      swap2\n      swap1\n      tag_79\n      jump\t// in\n    tag_208:\n      pop\n      0x40\n      dup3\n      add\n      mload\n      dup2\n      0x02\n      add\n      sstore\n      0x60\n      dup3\n      add\n      mload\n      dup2\n      0x03\n      add\n      exp(0x0100, 0x00)\n      dup2\n      sload\n      dup2\n      0xffffffffffffffffffffffffffffffffffffffff\n      mul\n      not\n      and\n      swap1\n      dup4\n      0xffffffffffffffffffffffffffffffffffffffff\n      and\n      mul\n      or\n      swap1\n      sstore\n      pop\n      0x80\n      dup3\n      add\n      mload\n      dup2\n      0x04\n      add\n      exp(0x0100, 0x00)\n      dup2\n      sload\n      dup2\n      0xffffffffffffffffffffffffffffffffffffffff\n      mul\n      not\n      and\n      swap1\n      dup4\n      0xffffffffffffffffffffffffffffffffffffffff\n      and\n      mul\n      or\n      swap1\n      sstore\n      pop\n      0xa0\n      dup3\n      add\n      mload\n      dup2\n      0x05\n      add\n      sstore\n      0xc0\n      dup3\n      add\n      mload\n      dup2\n      0x06\n      add\n      sstore\n      0xe0\n      dup3\n      add\n      mload\n      dup2\n      0x07\n      add\n      sstore\n      pop\n      pop\n        /* \"crowdfunding.sol\":2071:2085  myCrowdfunding */\n      0x03\n        /* \"crowdfunding.sol\":2071:2097  myCrowdfunding[msg.sender] */\n      0x00\n        /* \"crowdfunding.sol\":2086:2096  msg.sender */\n      caller\n        /* \"crowdfunding.sol\":2071:2097  myCrowdfunding[msg.sender] */\n      0xffffffffffffffffffffffffffffffffffffffff\n      and\n      0xffffffffffffffffffffffffffffffffffffffff\n      and\n      dup2\n      mstore\n      0x20\n      add\n      swap1\n      dup2\n      mstore\n      0x20\n      add\n      0x00\n      keccak256\n        /* \"crowdfunding.sol\":2103:2104  c */\n      dup2\n        /* \"crowdfunding.sol\":2071:2105  myCrowdfunding[msg.sender].push(c) */\n      swap1\n      dup1\n      0x01\n      dup2\n      sload\n      add\n      dup1\n      dup3\n      sstore\n      dup1\n      swap2\n      pop\n      pop\n      0x01\n      swap1\n      sub\n      swap1\n      0x00\n      mstore\n      keccak256(0x00, 0x20)\n      swap1\n      0x08\n      mul\n      add\n      0x00\n      swap1\n      swap2\n      swap1\n      swap2\n      swap1\n      swap2\n      pop\n      0x00\n      dup3\n      add\n      mload\n      dup2\n      0x00\n      add\n      sstore\n      0x20\n      dup3\n      add\n      mload\n      dup2\n      0x01\n      add\n      swap1\n      dup1\n      mload\n      swap1\n      0x20\n      add\n      swap1\n      tag_210\n      swap3\n      swap2\n      swap1\n      tag_79\n      jump\t// in\n    tag_210:\n      pop\n      0x40\n      dup3\n      add\n      mload\n      dup2\n      0x02\n      add\n      sstore\n      0x60\n      dup3\n      add\n      mload\n      dup2\n      0x03\n      add\n      exp(0x0100, 0x00)\n      dup2\n      sload\n      dup2\n      0xffffffffffffffffffffffffffffffffffffffff\n      mul\n      not\n      and\n      swap1\n      dup4\n      0xffffffffffffffffffffffffffffffffffffffff\n      and\n      mul\n      or\n      swap1\n      sstore\n      pop\n      0x80\n      dup3\n      add\n      mload\n      dup2\n      0x04\n      add\n      exp(0x0100, 0x00)\n      dup2\n      sload\n      dup2\n      0xffffffffffffffffffffffffffffffffffffffff\n      mul\n      not\n      and\n      swap1\n      dup4\n      0xffffffffffffffffffffffffffffffffffffffff\n      and\n      mul\n      or\n      swap1\n      sstore\n      pop\n      0xa0\n      dup3\n      add\n      mload\n      dup2\n      0x05\n      add\n      sstore\n      0xc0\n      dup3\n      add\n      mload\n      dup2\n      0x06\n      add\n      sstore\n      0xe0\n      dup3\n      add\n      mload\n      dup2\n      0x07\n      add\n      sstore\n      pop\n      pop\n        /* \"crowdfunding.sol\":1603:2113  {\r... */\n      pop\n        /* \"crowdfunding.sol\":1508:2113  function createCrowdfunding(string memory _title,address _recipient, uint _expectAmout) public {\r... */\n      pop\n      pop\n      pop\n      jump\t// out\n        /* \"crowdfunding.sol\":4509:4604  function test2 (address a) public view returns (bool) {\r... */\n    tag_47:\n        /* \"crowdfunding.sol\":4557:4561  bool */\n      0x00\n        /* \"crowdfunding.sol\":4586:4596  msg.sender */\n      caller\n        /* \"crowdfunding.sol\":4581:4596  a == msg.sender */\n      0xffffffffffffffffffffffffffffffffffffffff\n      and\n        /* \"crowdfunding.sol\":4581:4582  a */\n      dup3\n        /* \"crowdfunding.sol\":4581:4596  a == msg.sender */\n      0xffffffffffffffffffffffffffffffffffffffff\n      and\n      eq\n        /* \"crowdfunding.sol\":4574:4596  return a == msg.sender */\n      swap1\n      pop\n        /* \"crowdfunding.sol\":4509:4604  function test2 (address a) public view returns (bool) {\r... */\n      swap2\n      swap1\n      pop\n      jump\t// out\n        /* \"crowdfunding.sol\":4397:4501  function test (address a) public view returns (address,address) {\r... */\n    tag_52:\n        /* \"crowdfunding.sol\":4444:4451  address */\n      0x00\n        /* \"crowdfunding.sol\":4452:4459  address */\n      dup1\n        /* \"crowdfunding.sol\":4480:4481  a */\n      dup3\n        /* \"crowdfunding.sol\":4482:4492  msg.sender */\n      caller\n        /* \"crowdfunding.sol\":4472:4493  return (a,msg.sender) */\n      swap2\n      pop\n      swap2\n      pop\n        /* \"crowdfunding.sol\":4397:4501  function test (address a) public view returns (address,address) {\r... */\n      swap2\n      pop\n      swap2\n      jump\t// out\n        /* \"crowdfunding.sol\":1130:1500  function stringToInt(string memory s) public pure returns (uint){\r... */\n    tag_58:\n        /* \"crowdfunding.sol\":1189:1193  uint */\n      0x00\n        /* \"crowdfunding.sol\":1205:1219  bytes memory b */\n      dup1\n        /* \"crowdfunding.sol\":1228:1229  s */\n      dup3\n        /* \"crowdfunding.sol\":1205:1230  bytes memory b = bytes(s) */\n      swap1\n      pop\n        /* \"crowdfunding.sol\":1241:1252  uint result */\n      0x00\n        /* \"crowdfunding.sol\":1272:1281  uint256 i */\n      dup1\n        /* \"crowdfunding.sol\":1267:1469  for (uint256 i = 0; i < b.length; i++) {\r... */\n    tag_214:\n        /* \"crowdfunding.sol\":1291:1292  b */\n      dup3\n        /* \"crowdfunding.sol\":1291:1299  b.length */\n      mload\n        /* \"crowdfunding.sol\":1287:1288  i */\n      dup2\n        /* \"crowdfunding.sol\":1287:1299  i < b.length */\n      lt\n        /* \"crowdfunding.sol\":1267:1469  for (uint256 i = 0; i < b.length; i++) {\r... */\n      iszero\n      tag_215\n      jumpi\n        /* \"crowdfunding.sol\":1321:1330  uint256 c */\n      0x00\n        /* \"crowdfunding.sol\":1347:1348  b */\n      dup4\n        /* \"crowdfunding.sol\":1349:1350  i */\n      dup3\n        /* \"crowdfunding.sol\":1347:1351  b[i] */\n      dup2\n      mload\n      dup2\n      lt\n      tag_217\n      jumpi\n      tag_218\n      tag_76\n      jump\t// in\n    tag_218:\n    tag_217:\n      0x20\n      add\n      add\n      mload\n      0xf8\n      shr\n      0xf8\n      shl\n        /* \"crowdfunding.sol\":1341:1352  uint8(b[i]) */\n      0xf8\n      shr\n        /* \"crowdfunding.sol\":1333:1353  uint256(uint8(b[i])) */\n      0xff\n      and\n        /* \"crowdfunding.sol\":1321:1353  uint256 c = uint256(uint8(b[i])) */\n      swap1\n      pop\n        /* \"crowdfunding.sol\":1377:1379  48 */\n      0x30\n        /* \"crowdfunding.sol\":1372:1373  c */\n      dup2\n        /* \"crowdfunding.sol\":1372:1379  c >= 48 */\n      lt\n      iszero\n        /* \"crowdfunding.sol\":1372:1390  c >= 48 && c <= 57 */\n      dup1\n      iszero\n      tag_219\n      jumpi\n      pop\n        /* \"crowdfunding.sol\":1388:1390  57 */\n      0x39\n        /* \"crowdfunding.sol\":1383:1384  c */\n      dup2\n        /* \"crowdfunding.sol\":1383:1390  c <= 57 */\n      gt\n      iszero\n        /* \"crowdfunding.sol\":1372:1390  c >= 48 && c <= 57 */\n    tag_219:\n        /* \"crowdfunding.sol\":1368:1458  if (c >= 48 && c <= 57) {\r... */\n      iszero\n      tag_220\n      jumpi\n        /* \"crowdfunding.sol\":1439:1441  48 */\n      0x30\n        /* \"crowdfunding.sol\":1435:1436  c */\n      dup2\n        /* \"crowdfunding.sol\":1435:1441  c - 48 */\n      tag_221\n      swap2\n      swap1\n      tag_73\n      jump\t// in\n    tag_221:\n        /* \"crowdfunding.sol\":1429:1431  10 */\n      0x0a\n        /* \"crowdfunding.sol\":1420:1426  result */\n      dup5\n        /* \"crowdfunding.sol\":1420:1431  result * 10 */\n      tag_222\n      swap2\n      swap1\n      tag_223\n      jump\t// in\n    tag_222:\n        /* \"crowdfunding.sol\":1420:1442  result * 10 + (c - 48) */\n      tag_224\n      swap2\n      swap1\n      tag_104\n      jump\t// in\n    tag_224:\n        /* \"crowdfunding.sol\":1411:1442  result = result * 10 + (c - 48) */\n      swap3\n      pop\n        /* \"crowdfunding.sol\":1368:1458  if (c >= 48 && c <= 57) {\r... */\n    tag_220:\n        /* \"crowdfunding.sol\":1306:1469  {\r... */\n      pop\n        /* \"crowdfunding.sol\":1301:1304  i++ */\n      dup1\n      dup1\n      tag_225\n      swap1\n      tag_97\n      jump\t// in\n    tag_225:\n      swap2\n      pop\n      pop\n        /* \"crowdfunding.sol\":1267:1469  for (uint256 i = 0; i < b.length; i++) {\r... */\n      jump(tag_214)\n    tag_215:\n      pop\n        /* \"crowdfunding.sol\":1486:1492  result */\n      dup1\n        /* \"crowdfunding.sol\":1479:1492  return result */\n      swap3\n      pop\n      pop\n      pop\n        /* \"crowdfunding.sol\":1130:1500  function stringToInt(string memory s) public pure returns (uint){\r... */\n      swap2\n      swap1\n      pop\n      jump\t// out\n    tag_79:\n      dup3\n      dup1\n      sload\n      tag_226\n      swap1\n      tag_66\n      jump\t// in\n    tag_226:\n      swap1\n      0x00\n      mstore\n      keccak256(0x00, 0x20)\n      swap1\n      0x1f\n      add\n      0x20\n      swap1\n      div\n      dup2\n      add\n      swap3\n      dup3\n      tag_228\n      jumpi\n      0x00\n      dup6\n      sstore\n      jump(tag_227)\n    tag_228:\n      dup3\n      0x1f\n      lt\n      tag_229\n      jumpi\n      dup1\n      mload\n      not(0xff)\n      and\n      dup4\n      dup1\n      add\n      or\n      dup6\n      sstore\n      jump(tag_227)\n    tag_229:\n      dup3\n      dup1\n      add\n      0x01\n      add\n      dup6\n      sstore\n      dup3\n      iszero\n      tag_227\n      jumpi\n      swap2\n      dup3\n      add\n    tag_230:\n      dup3\n      dup2\n      gt\n      iszero\n      tag_231\n      jumpi\n      dup3\n      mload\n      dup3\n      sstore\n      swap2\n      0x20\n      add\n      swap2\n      swap1\n      0x01\n      add\n      swap1\n      jump(tag_230)\n    tag_231:\n    tag_227:\n      pop\n      swap1\n      pop\n      tag_232\n      swap2\n      swap1\n      tag_233\n      jump\t// in\n    tag_232:\n      pop\n      swap1\n      jump\t// out\n    tag_146:\n      pop\n      dup1\n      sload\n      tag_234\n      swap1\n      tag_66\n      jump\t// in\n    tag_234:\n      0x00\n      dup3\n      sstore\n      dup1\n      0x1f\n      lt\n      tag_236\n      jumpi\n      pop\n      jump(tag_235)\n    tag_236:\n      0x1f\n      add\n      0x20\n      swap1\n      div\n      swap1\n      0x00\n      mstore\n      keccak256(0x00, 0x20)\n      swap1\n      dup2\n      add\n      swap1\n      tag_237\n      swap2\n      swap1\n      tag_233\n      jump\t// in\n    tag_237:\n    tag_235:\n      pop\n      jump\t// out\n    tag_165:\n      dup3\n      dup1\n      sload\n      tag_238\n      swap1\n      tag_66\n      jump\t// in\n    tag_238:\n      swap1\n      0x00\n      mstore\n      keccak256(0x00, 0x20)\n      swap1\n      0x1f\n      add\n      0x20\n      swap1\n      div\n      dup2\n      add\n      swap3\n      dup3\n      tag_240\n      jumpi\n      0x00\n      dup6\n      sstore\n      jump(tag_239)\n    tag_240:\n      dup3\n      0x1f\n      lt\n      tag_241\n      jumpi\n      dup1\n      sload\n      dup6\n      sstore\n      jump(tag_239)\n    tag_241:\n      dup3\n      dup1\n      add\n      0x01\n      add\n      dup6\n      sstore\n      dup3\n      iszero\n      tag_239\n      jumpi\n      0x00\n      mstore\n      keccak256(0x00, 0x20)\n      swap2\n      0x1f\n      add\n      0x20\n      swap1\n      div\n      dup3\n      add\n    tag_242:\n      dup3\n      dup2\n      gt\n      iszero\n      tag_243\n      jumpi\n      dup3\n      sload\n      dup3\n      sstore\n      swap2\n      0x01\n      add\n      swap2\n      swap1\n      0x01\n      add\n      swap1\n      jump(tag_242)\n    tag_243:\n    tag_239:\n      pop\n      swap1\n      pop\n      tag_244\n      swap2\n      swap1\n      tag_233\n      jump\t// in\n    tag_244:\n      pop\n      swap1\n      jump\t// out\n    tag_233:\n    tag_245:\n      dup1\n      dup3\n      gt\n      iszero\n      tag_246\n      jumpi\n      0x00\n      dup2\n      0x00\n      swap1\n      sstore\n      pop\n      0x01\n      add\n      jump(tag_245)\n    tag_246:\n      pop\n      swap1\n      jump\t// out\n        /* \"#utility.yul\":7:419   */\n    tag_248:\n        /* \"#utility.yul\":85:90   */\n      0x00\n        /* \"#utility.yul\":110:176   */\n      tag_250\n        /* \"#utility.yul\":126:175   */\n      tag_251\n        /* \"#utility.yul\":168:174   */\n      dup5\n        /* \"#utility.yul\":126:175   */\n      tag_252\n      jump\t// in\n    tag_251:\n        /* \"#utility.yul\":110:176   */\n      tag_253\n      jump\t// in\n    tag_250:\n        /* \"#utility.yul\":101:176   */\n      swap1\n      pop\n        /* \"#utility.yul\":199:205   */\n      dup3\n        /* \"#utility.yul\":192:197   */\n      dup2\n        /* \"#utility.yul\":185:206   */\n      mstore\n        /* \"#utility.yul\":237:241   */\n      0x20\n        /* \"#utility.yul\":230:235   */\n      dup2\n        /* \"#utility.yul\":226:242   */\n      add\n        /* \"#utility.yul\":275:278   */\n      dup5\n        /* \"#utility.yul\":266:272   */\n      dup5\n        /* \"#utility.yul\":261:264   */\n      dup5\n        /* \"#utility.yul\":257:273   */\n      add\n        /* \"#utility.yul\":254:279   */\n      gt\n        /* \"#utility.yul\":251:363   */\n      iszero\n      tag_254\n      jumpi\n        /* \"#utility.yul\":282:361   */\n      tag_255\n      tag_256\n      jump\t// in\n    tag_255:\n        /* \"#utility.yul\":251:363   */\n    tag_254:\n        /* \"#utility.yul\":372:413   */\n      tag_257\n        /* \"#utility.yul\":406:412   */\n      dup5\n        /* \"#utility.yul\":401:404   */\n      dup3\n        /* \"#utility.yul\":396:399   */\n      dup6\n        /* \"#utility.yul\":372:413   */\n      tag_258\n      jump\t// in\n    tag_257:\n        /* \"#utility.yul\":91:419   */\n      pop\n        /* \"#utility.yul\":7:419   */\n      swap4\n      swap3\n      pop\n      pop\n      pop\n      jump\t// out\n        /* \"#utility.yul\":425:564   */\n    tag_259:\n        /* \"#utility.yul\":471:476   */\n      0x00\n        /* \"#utility.yul\":509:515   */\n      dup2\n        /* \"#utility.yul\":496:516   */\n      calldataload\n        /* \"#utility.yul\":487:516   */\n      swap1\n      pop\n        /* \"#utility.yul\":525:558   */\n      tag_261\n        /* \"#utility.yul\":552:557   */\n      dup2\n        /* \"#utility.yul\":525:558   */\n      tag_262\n      jump\t// in\n    tag_261:\n        /* \"#utility.yul\":425:564   */\n      swap3\n      swap2\n      pop\n      pop\n      jump\t// out\n        /* \"#utility.yul\":584:924   */\n    tag_263:\n        /* \"#utility.yul\":640:645   */\n      0x00\n        /* \"#utility.yul\":689:692   */\n      dup3\n        /* \"#utility.yul\":682:686   */\n      0x1f\n        /* \"#utility.yul\":674:680   */\n      dup4\n        /* \"#utility.yul\":670:687   */\n      add\n        /* \"#utility.yul\":666:693   */\n      slt\n        /* \"#utility.yul\":656:778   */\n      tag_265\n      jumpi\n        /* \"#utility.yul\":697:776   */\n      tag_266\n      tag_267\n      jump\t// in\n    tag_266:\n        /* \"#utility.yul\":656:778   */\n    tag_265:\n        /* \"#utility.yul\":814:820   */\n      dup2\n        /* \"#utility.yul\":801:821   */\n      calldataload\n        /* \"#utility.yul\":839:918   */\n      tag_268\n        /* \"#utility.yul\":914:917   */\n      dup5\n        /* \"#utility.yul\":906:912   */\n      dup3\n        /* \"#utility.yul\":899:903   */\n      0x20\n        /* \"#utility.yul\":891:897   */\n      dup7\n        /* \"#utility.yul\":887:904   */\n      add\n        /* \"#utility.yul\":839:918   */\n      tag_248\n      jump\t// in\n    tag_268:\n        /* \"#utility.yul\":830:918   */\n      swap2\n      pop\n        /* \"#utility.yul\":646:924   */\n      pop\n        /* \"#utility.yul\":584:924   */\n      swap3\n      swap2\n      pop\n      pop\n      jump\t// out\n        /* \"#utility.yul\":930:1069   */\n    tag_269:\n        /* \"#utility.yul\":976:981   */\n      0x00\n        /* \"#utility.yul\":1014:1020   */\n      dup2\n        /* \"#utility.yul\":1001:1021   */\n      calldataload\n        /* \"#utility.yul\":992:1021   */\n      swap1\n      pop\n        /* \"#utility.yul\":1030:1063   */\n      tag_271\n        /* \"#utility.yul\":1057:1062   */\n      dup2\n        /* \"#utility.yul\":1030:1063   */\n      tag_272\n      jump\t// in\n    tag_271:\n        /* \"#utility.yul\":930:1069   */\n      swap3\n      swap2\n      pop\n      pop\n      jump\t// out\n        /* \"#utility.yul\":1075:1404   */\n    tag_16:\n        /* \"#utility.yul\":1134:1140   */\n      0x00\n        /* \"#utility.yul\":1183:1185   */\n      0x20\n        /* \"#utility.yul\":1171:1180   */\n      dup3\n        /* \"#utility.yul\":1162:1169   */\n      dup5\n        /* \"#utility.yul\":1158:1181   */\n      sub\n        /* \"#utility.yul\":1154:1186   */\n      slt\n        /* \"#utility.yul\":1151:1270   */\n      iszero\n      tag_274\n      jumpi\n        /* \"#utility.yul\":1189:1268   */\n      tag_275\n      tag_276\n      jump\t// in\n    tag_275:\n        /* \"#utility.yul\":1151:1270   */\n    tag_274:\n        /* \"#utility.yul\":1309:1310   */\n      0x00\n        /* \"#utility.yul\":1334:1387   */\n      tag_277\n        /* \"#utility.yul\":1379:1386   */\n      dup5\n        /* \"#utility.yul\":1370:1376   */\n      dup3\n        /* \"#utility.yul\":1359:1368   */\n      dup6\n        /* \"#utility.yul\":1355:1377   */\n      add\n        /* \"#utility.yul\":1334:1387   */\n      tag_259\n      jump\t// in\n    tag_277:\n        /* \"#utility.yul\":1324:1387   */\n      swap2\n      pop\n        /* \"#utility.yul\":1280:1397   */\n      pop\n        /* \"#utility.yul\":1075:1404   */\n      swap3\n      swap2\n      pop\n      pop\n      jump\t// out\n        /* \"#utility.yul\":1410:1919   */\n    tag_57:\n        /* \"#utility.yul\":1479:1485   */\n      0x00\n        /* \"#utility.yul\":1528:1530   */\n      0x20\n        /* \"#utility.yul\":1516:1525   */\n      dup3\n        /* \"#utility.yul\":1507:1514   */\n      dup5\n        /* \"#utility.yul\":1503:1526   */\n      sub\n        /* \"#utility.yul\":1499:1531   */\n      slt\n        /* \"#utility.yul\":1496:1615   */\n      iszero\n      tag_279\n      jumpi\n        /* \"#utility.yul\":1534:1613   */\n      tag_280\n      tag_276\n      jump\t// in\n    tag_280:\n        /* \"#utility.yul\":1496:1615   */\n    tag_279:\n        /* \"#utility.yul\":1682:1683   */\n      0x00\n        /* \"#utility.yul\":1671:1680   */\n      dup3\n        /* \"#utility.yul\":1667:1684   */\n      add\n        /* \"#utility.yul\":1654:1685   */\n      calldataload\n        /* \"#utility.yul\":1712:1730   */\n      0xffffffffffffffff\n        /* \"#utility.yul\":1704:1710   */\n      dup2\n        /* \"#utility.yul\":1701:1731   */\n      gt\n        /* \"#utility.yul\":1698:1815   */\n      iszero\n      tag_281\n      jumpi\n        /* \"#utility.yul\":1734:1813   */\n      tag_282\n      tag_283\n      jump\t// in\n    tag_282:\n        /* \"#utility.yul\":1698:1815   */\n    tag_281:\n        /* \"#utility.yul\":1839:1902   */\n      tag_284\n        /* \"#utility.yul\":1894:1901   */\n      dup5\n        /* \"#utility.yul\":1885:1891   */\n      dup3\n        /* \"#utility.yul\":1874:1883   */\n      dup6\n        /* \"#utility.yul\":1870:1892   */\n      add\n        /* \"#utility.yul\":1839:1902   */\n      tag_263\n      jump\t// in\n    tag_284:\n        /* \"#utility.yul\":1829:1902   */\n      swap2\n      pop\n        /* \"#utility.yul\":1625:1912   */\n      pop\n        /* \"#utility.yul\":1410:1919   */\n      swap3\n      swap2\n      pop\n      pop\n      jump\t// out\n        /* \"#utility.yul\":1925:2724   */\n    tag_43:\n        /* \"#utility.yul\":2012:2018   */\n      0x00\n        /* \"#utility.yul\":2020:2026   */\n      dup1\n        /* \"#utility.yul\":2028:2034   */\n      0x00\n        /* \"#utility.yul\":2077:2079   */\n      0x60\n        /* \"#utility.yul\":2065:2074   */\n      dup5\n        /* \"#utility.yul\":2056:2063   */\n      dup7\n        /* \"#utility.yul\":2052:2075   */\n      sub\n        /* \"#utility.yul\":2048:2080   */\n      slt\n        /* \"#utility.yul\":2045:2164   */\n      iszero\n      tag_286\n      jumpi\n        /* \"#utility.yul\":2083:2162   */\n      tag_287\n      tag_276\n      jump\t// in\n    tag_287:\n        /* \"#utility.yul\":2045:2164   */\n    tag_286:\n        /* \"#utility.yul\":2231:2232   */\n      0x00\n        /* \"#utility.yul\":2220:2229   */\n      dup5\n        /* \"#utility.yul\":2216:2233   */\n      add\n        /* \"#utility.yul\":2203:2234   */\n      calldataload\n        /* \"#utility.yul\":2261:2279   */\n      0xffffffffffffffff\n        /* \"#utility.yul\":2253:2259   */\n      dup2\n        /* \"#utility.yul\":2250:2280   */\n      gt\n        /* \"#utility.yul\":2247:2364   */\n      iszero\n      tag_288\n      jumpi\n        /* \"#utility.yul\":2283:2362   */\n      tag_289\n      tag_283\n      jump\t// in\n    tag_289:\n        /* \"#utility.yul\":2247:2364   */\n    tag_288:\n        /* \"#utility.yul\":2388:2451   */\n      tag_290\n        /* \"#utility.yul\":2443:2450   */\n      dup7\n        /* \"#utility.yul\":2434:2440   */\n      dup3\n        /* \"#utility.yul\":2423:2432   */\n      dup8\n        /* \"#utility.yul\":2419:2441   */\n      add\n        /* \"#utility.yul\":2388:2451   */\n      tag_263\n      jump\t// in\n    tag_290:\n        /* \"#utility.yul\":2378:2451   */\n      swap4\n      pop\n        /* \"#utility.yul\":2174:2461   */\n      pop\n        /* \"#utility.yul\":2500:2502   */\n      0x20\n        /* \"#utility.yul\":2526:2579   */\n      tag_291\n        /* \"#utility.yul\":2571:2578   */\n      dup7\n        /* \"#utility.yul\":2562:2568   */\n      dup3\n        /* \"#utility.yul\":2551:2560   */\n      dup8\n        /* \"#utility.yul\":2547:2569   */\n      add\n        /* \"#utility.yul\":2526:2579   */\n      tag_259\n      jump\t// in\n    tag_291:\n        /* \"#utility.yul\":2516:2579   */\n      swap3\n      pop\n        /* \"#utility.yul\":2471:2589   */\n      pop\n        /* \"#utility.yul\":2628:2630   */\n      0x40\n        /* \"#utility.yul\":2654:2707   */\n      tag_292\n        /* \"#utility.yul\":2699:2706   */\n      dup7\n        /* \"#utility.yul\":2690:2696   */\n      dup3\n        /* \"#utility.yul\":2679:2688   */\n      dup8\n        /* \"#utility.yul\":2675:2697   */\n      add\n        /* \"#utility.yul\":2654:2707   */\n      tag_269\n      jump\t// in\n    tag_292:\n        /* \"#utility.yul\":2644:2707   */\n      swap2\n      pop\n        /* \"#utility.yul\":2599:2717   */\n      pop\n        /* \"#utility.yul\":1925:2724   */\n      swap3\n      pop\n      swap3\n      pop\n      swap3\n      jump\t// out\n        /* \"#utility.yul\":2730:3059   */\n    tag_30:\n        /* \"#utility.yul\":2789:2795   */\n      0x00\n        /* \"#utility.yul\":2838:2840   */\n      0x20\n        /* \"#utility.yul\":2826:2835   */\n      dup3\n        /* \"#utility.yul\":2817:2824   */\n      dup5\n        /* \"#utility.yul\":2813:2836   */\n      sub\n        /* \"#utility.yul\":2809:2841   */\n      slt\n        /* \"#utility.yul\":2806:2925   */\n      iszero\n      tag_294\n      jumpi\n        /* \"#utility.yul\":2844:2923   */\n      tag_295\n      tag_276\n      jump\t// in\n    tag_295:\n        /* \"#utility.yul\":2806:2925   */\n    tag_294:\n        /* \"#utility.yul\":2964:2965   */\n      0x00\n        /* \"#utility.yul\":2989:3042   */\n      tag_296\n        /* \"#utility.yul\":3034:3041   */\n      dup5\n        /* \"#utility.yul\":3025:3031   */\n      dup3\n        /* \"#utility.yul\":3014:3023   */\n      dup6\n        /* \"#utility.yul\":3010:3032   */\n      add\n        /* \"#utility.yul\":2989:3042   */\n      tag_269\n      jump\t// in\n    tag_296:\n        /* \"#utility.yul\":2979:3042   */\n      swap2\n      pop\n        /* \"#utility.yul\":2935:3052   */\n      pop\n        /* \"#utility.yul\":2730:3059   */\n      swap3\n      swap2\n      pop\n      pop\n      jump\t// out\n        /* \"#utility.yul\":3065:3719   */\n    tag_22:\n        /* \"#utility.yul\":3143:3149   */\n      0x00\n        /* \"#utility.yul\":3151:3157   */\n      dup1\n        /* \"#utility.yul\":3200:3202   */\n      0x40\n        /* \"#utility.yul\":3188:3197   */\n      dup4\n        /* \"#utility.yul\":3179:3186   */\n      dup6\n        /* \"#utility.yul\":3175:3198   */\n      sub\n        /* \"#utility.yul\":3171:3203   */\n      slt\n        /* \"#utility.yul\":3168:3287   */\n      iszero\n      tag_298\n      jumpi\n        /* \"#utility.yul\":3206:3285   */\n      tag_299\n      tag_276\n      jump\t// in\n    tag_299:\n        /* \"#utility.yul\":3168:3287   */\n    tag_298:\n        /* \"#utility.yul\":3326:3327   */\n      0x00\n        /* \"#utility.yul\":3351:3404   */\n      tag_300\n        /* \"#utility.yul\":3396:3403   */\n      dup6\n        /* \"#utility.yul\":3387:3393   */\n      dup3\n        /* \"#utility.yul\":3376:3385   */\n      dup7\n        /* \"#utility.yul\":3372:3394   */\n      add\n        /* \"#utility.yul\":3351:3404   */\n      tag_269\n      jump\t// in\n    tag_300:\n        /* \"#utility.yul\":3341:3404   */\n      swap3\n      pop\n        /* \"#utility.yul\":3297:3414   */\n      pop\n        /* \"#utility.yul\":3481:3483   */\n      0x20\n        /* \"#utility.yul\":3470:3479   */\n      dup4\n        /* \"#utility.yul\":3466:3484   */\n      add\n        /* \"#utility.yul\":3453:3485   */\n      calldataload\n        /* \"#utility.yul\":3512:3530   */\n      0xffffffffffffffff\n        /* \"#utility.yul\":3504:3510   */\n      dup2\n        /* \"#utility.yul\":3501:3531   */\n      gt\n        /* \"#utility.yul\":3498:3615   */\n      iszero\n      tag_301\n      jumpi\n        /* \"#utility.yul\":3534:3613   */\n      tag_302\n      tag_283\n      jump\t// in\n    tag_302:\n        /* \"#utility.yul\":3498:3615   */\n    tag_301:\n        /* \"#utility.yul\":3639:3702   */\n      tag_303\n        /* \"#utility.yul\":3694:3701   */\n      dup6\n        /* \"#utility.yul\":3685:3691   */\n      dup3\n        /* \"#utility.yul\":3674:3683   */\n      dup7\n        /* \"#utility.yul\":3670:3692   */\n      add\n        /* \"#utility.yul\":3639:3702   */\n      tag_263\n      jump\t// in\n    tag_303:\n        /* \"#utility.yul\":3629:3702   */\n      swap2\n      pop\n        /* \"#utility.yul\":3424:3712   */\n      pop\n        /* \"#utility.yul\":3065:3719   */\n      swap3\n      pop\n      swap3\n      swap1\n      pop\n      jump\t// out\n        /* \"#utility.yul\":3725:4344   */\n    tag_26:\n        /* \"#utility.yul\":3802:3808   */\n      0x00\n        /* \"#utility.yul\":3810:3816   */\n      dup1\n        /* \"#utility.yul\":3818:3824   */\n      0x00\n        /* \"#utility.yul\":3867:3869   */\n      0x60\n        /* \"#utility.yul\":3855:3864   */\n      dup5\n        /* \"#utility.yul\":3846:3853   */\n      dup7\n        /* \"#utility.yul\":3842:3865   */\n      sub\n        /* \"#utility.yul\":3838:3870   */\n      slt\n        /* \"#utility.yul\":3835:3954   */\n      iszero\n      tag_305\n      jumpi\n        /* \"#utility.yul\":3873:3952   */\n      tag_306\n      tag_276\n      jump\t// in\n    tag_306:\n        /* \"#utility.yul\":3835:3954   */\n    tag_305:\n        /* \"#utility.yul\":3993:3994   */\n      0x00\n        /* \"#utility.yul\":4018:4071   */\n      tag_307\n        /* \"#utility.yul\":4063:4070   */\n      dup7\n        /* \"#utility.yul\":4054:4060   */\n      dup3\n        /* \"#utility.yul\":4043:4052   */\n      dup8\n        /* \"#utility.yul\":4039:4061   */\n      add\n        /* \"#utility.yul\":4018:4071   */\n      tag_269\n      jump\t// in\n    tag_307:\n        /* \"#utility.yul\":4008:4071   */\n      swap4\n      pop\n        /* \"#utility.yul\":3964:4081   */\n      pop\n        /* \"#utility.yul\":4120:4122   */\n      0x20\n        /* \"#utility.yul\":4146:4199   */\n      tag_308\n        /* \"#utility.yul\":4191:4198   */\n      dup7\n        /* \"#utility.yul\":4182:4188   */\n      dup3\n        /* \"#utility.yul\":4171:4180   */\n      dup8\n        /* \"#utility.yul\":4167:4189   */\n      add\n        /* \"#utility.yul\":4146:4199   */\n      tag_269\n      jump\t// in\n    tag_308:\n        /* \"#utility.yul\":4136:4199   */\n      swap3\n      pop\n        /* \"#utility.yul\":4091:4209   */\n      pop\n        /* \"#utility.yul\":4248:4250   */\n      0x40\n        /* \"#utility.yul\":4274:4327   */\n      tag_309\n        /* \"#utility.yul\":4319:4326   */\n      dup7\n        /* \"#utility.yul\":4310:4316   */\n      dup3\n        /* \"#utility.yul\":4299:4308   */\n      dup8\n        /* \"#utility.yul\":4295:4317   */\n      add\n        /* \"#utility.yul\":4274:4327   */\n      tag_259\n      jump\t// in\n    tag_309:\n        /* \"#utility.yul\":4264:4327   */\n      swap2\n      pop\n        /* \"#utility.yul\":4219:4337   */\n      pop\n        /* \"#utility.yul\":3725:4344   */\n      swap3\n      pop\n      swap3\n      pop\n      swap3\n      jump\t// out\n        /* \"#utility.yul\":4350:4618   */\n    tag_310:\n        /* \"#utility.yul\":4475:4485   */\n      0x00\n        /* \"#utility.yul\":4510:4612   */\n      tag_312\n        /* \"#utility.yul\":4608:4611   */\n      dup4\n        /* \"#utility.yul\":4600:4606   */\n      dup4\n        /* \"#utility.yul\":4510:4612   */\n      tag_313\n      jump\t// in\n    tag_312:\n        /* \"#utility.yul\":4496:4612   */\n      swap1\n      pop\n        /* \"#utility.yul\":4350:4618   */\n      swap3\n      swap2\n      pop\n      pop\n      jump\t// out\n        /* \"#utility.yul\":4624:4732   */\n    tag_314:\n        /* \"#utility.yul\":4701:4725   */\n      tag_316\n        /* \"#utility.yul\":4719:4724   */\n      dup2\n        /* \"#utility.yul\":4701:4725   */\n      tag_317\n      jump\t// in\n    tag_316:\n        /* \"#utility.yul\":4696:4699   */\n      dup3\n        /* \"#utility.yul\":4689:4726   */\n      mstore\n        /* \"#utility.yul\":4624:4732   */\n      pop\n      pop\n      jump\t// out\n        /* \"#utility.yul\":4738:4856   */\n    tag_318:\n        /* \"#utility.yul\":4825:4849   */\n      tag_320\n        /* \"#utility.yul\":4843:4848   */\n      dup2\n        /* \"#utility.yul\":4825:4849   */\n      tag_317\n      jump\t// in\n    tag_320:\n        /* \"#utility.yul\":4820:4823   */\n      dup3\n        /* \"#utility.yul\":4813:4850   */\n      mstore\n        /* \"#utility.yul\":4738:4856   */\n      pop\n      pop\n      jump\t// out\n        /* \"#utility.yul\":4958:6093   */\n    tag_321:\n        /* \"#utility.yul\":5133:5136   */\n      0x00\n        /* \"#utility.yul\":5162:5244   */\n      tag_323\n        /* \"#utility.yul\":5238:5243   */\n      dup3\n        /* \"#utility.yul\":5162:5244   */\n      tag_324\n      jump\t// in\n    tag_323:\n        /* \"#utility.yul\":5260:5374   */\n      tag_325\n        /* \"#utility.yul\":5367:5373   */\n      dup2\n        /* \"#utility.yul\":5362:5365   */\n      dup6\n        /* \"#utility.yul\":5260:5374   */\n      tag_326\n      jump\t// in\n    tag_325:\n        /* \"#utility.yul\":5253:5374   */\n      swap4\n      pop\n        /* \"#utility.yul\":5400:5403   */\n      dup4\n        /* \"#utility.yul\":5445:5449   */\n      0x20\n        /* \"#utility.yul\":5437:5443   */\n      dup3\n        /* \"#utility.yul\":5433:5450   */\n      mul\n        /* \"#utility.yul\":5428:5431   */\n      dup6\n        /* \"#utility.yul\":5424:5451   */\n      add\n        /* \"#utility.yul\":5475:5559   */\n      tag_327\n        /* \"#utility.yul\":5553:5558   */\n      dup6\n        /* \"#utility.yul\":5475:5559   */\n      tag_328\n      jump\t// in\n    tag_327:\n        /* \"#utility.yul\":5582:5589   */\n      dup1\n        /* \"#utility.yul\":5613:5614   */\n      0x00\n        /* \"#utility.yul\":5598:6048   */\n    tag_329:\n        /* \"#utility.yul\":5623:5629   */\n      dup6\n        /* \"#utility.yul\":5620:5621   */\n      dup2\n        /* \"#utility.yul\":5617:5630   */\n      lt\n        /* \"#utility.yul\":5598:6048   */\n      iszero\n      tag_331\n      jumpi\n        /* \"#utility.yul\":5694:5703   */\n      dup5\n        /* \"#utility.yul\":5688:5692   */\n      dup5\n        /* \"#utility.yul\":5684:5704   */\n      sub\n        /* \"#utility.yul\":5679:5682   */\n      dup10\n        /* \"#utility.yul\":5672:5705   */\n      mstore\n        /* \"#utility.yul\":5745:5751   */\n      dup2\n        /* \"#utility.yul\":5739:5752   */\n      mload\n        /* \"#utility.yul\":5773:5893   */\n      tag_332\n        /* \"#utility.yul\":5888:5892   */\n      dup6\n        /* \"#utility.yul\":5873:5886   */\n      dup3\n        /* \"#utility.yul\":5773:5893   */\n      tag_310\n      jump\t// in\n    tag_332:\n        /* \"#utility.yul\":5765:5893   */\n      swap5\n      pop\n        /* \"#utility.yul\":5916:6004   */\n      tag_333\n        /* \"#utility.yul\":5997:6003   */\n      dup4\n        /* \"#utility.yul\":5916:6004   */\n      tag_334\n      jump\t// in\n    tag_333:\n        /* \"#utility.yul\":5906:6004   */\n      swap3\n      pop\n        /* \"#utility.yul\":6033:6037   */\n      0x20\n        /* \"#utility.yul\":6028:6031   */\n      dup11\n        /* \"#utility.yul\":6024:6038   */\n      add\n        /* \"#utility.yul\":6017:6038   */\n      swap10\n      pop\n        /* \"#utility.yul\":5658:6048   */\n      pop\n        /* \"#utility.yul\":5645:5646   */\n      0x01\n        /* \"#utility.yul\":5642:5643   */\n      dup2\n        /* \"#utility.yul\":5638:5647   */\n      add\n        /* \"#utility.yul\":5633:5647   */\n      swap1\n      pop\n        /* \"#utility.yul\":5598:6048   */\n      jump(tag_329)\n    tag_331:\n        /* \"#utility.yul\":5602:5616   */\n      pop\n        /* \"#utility.yul\":6064:6068   */\n      dup3\n        /* \"#utility.yul\":6057:6068   */\n      swap8\n      pop\n        /* \"#utility.yul\":6084:6087   */\n      dup8\n        /* \"#utility.yul\":6077:6087   */\n      swap6\n      pop\n        /* \"#utility.yul\":5138:6093   */\n      pop\n      pop\n      pop\n      pop\n      pop\n        /* \"#utility.yul\":4958:6093   */\n      swap3\n      swap2\n      pop\n      pop\n      jump\t// out\n        /* \"#utility.yul\":6099:6208   */\n    tag_335:\n        /* \"#utility.yul\":6180:6201   */\n      tag_337\n        /* \"#utility.yul\":6195:6200   */\n      dup2\n        /* \"#utility.yul\":6180:6201   */\n      tag_338\n      jump\t// in\n    tag_337:\n        /* \"#utility.yul\":6175:6178   */\n      dup3\n        /* \"#utility.yul\":6168:6202   */\n      mstore\n        /* \"#utility.yul\":6099:6208   */\n      pop\n      pop\n      jump\t// out\n        /* \"#utility.yul\":6214:6558   */\n    tag_339:\n        /* \"#utility.yul\":6292:6295   */\n      0x00\n        /* \"#utility.yul\":6320:6359   */\n      tag_341\n        /* \"#utility.yul\":6353:6358   */\n      dup3\n        /* \"#utility.yul\":6320:6359   */\n      tag_342\n      jump\t// in\n    tag_341:\n        /* \"#utility.yul\":6375:6436   */\n      tag_343\n        /* \"#utility.yul\":6429:6435   */\n      dup2\n        /* \"#utility.yul\":6424:6427   */\n      dup6\n        /* \"#utility.yul\":6375:6436   */\n      tag_344\n      jump\t// in\n    tag_343:\n        /* \"#utility.yul\":6368:6436   */\n      swap4\n      pop\n        /* \"#utility.yul\":6445:6497   */\n      tag_345\n        /* \"#utility.yul\":6490:6496   */\n      dup2\n        /* \"#utility.yul\":6485:6488   */\n      dup6\n        /* \"#utility.yul\":6478:6482   */\n      0x20\n        /* \"#utility.yul\":6471:6476   */\n      dup7\n        /* \"#utility.yul\":6467:6483   */\n      add\n        /* \"#utility.yul\":6445:6497   */\n      tag_346\n      jump\t// in\n    tag_345:\n        /* \"#utility.yul\":6522:6551   */\n      tag_347\n        /* \"#utility.yul\":6544:6550   */\n      dup2\n        /* \"#utility.yul\":6522:6551   */\n      tag_348\n      jump\t// in\n    tag_347:\n        /* \"#utility.yul\":6517:6520   */\n      dup5\n        /* \"#utility.yul\":6513:6552   */\n      add\n        /* \"#utility.yul\":6506:6552   */\n      swap2\n      pop\n        /* \"#utility.yul\":6296:6558   */\n      pop\n        /* \"#utility.yul\":6214:6558   */\n      swap3\n      swap2\n      pop\n      pop\n      jump\t// out\n        /* \"#utility.yul\":6564:6928   */\n    tag_349:\n        /* \"#utility.yul\":6652:6655   */\n      0x00\n        /* \"#utility.yul\":6680:6719   */\n      tag_351\n        /* \"#utility.yul\":6713:6718   */\n      dup3\n        /* \"#utility.yul\":6680:6719   */\n      tag_342\n      jump\t// in\n    tag_351:\n        /* \"#utility.yul\":6735:6806   */\n      tag_352\n        /* \"#utility.yul\":6799:6805   */\n      dup2\n        /* \"#utility.yul\":6794:6797   */\n      dup6\n        /* \"#utility.yul\":6735:6806   */\n      tag_353\n      jump\t// in\n    tag_352:\n        /* \"#utility.yul\":6728:6806   */\n      swap4\n      pop\n        /* \"#utility.yul\":6815:6867   */\n      tag_354\n        /* \"#utility.yul\":6860:6866   */\n      dup2\n        /* \"#utility.yul\":6855:6858   */\n      dup6\n        /* \"#utility.yul\":6848:6852   */\n      0x20\n        /* \"#utility.yul\":6841:6846   */\n      dup7\n        /* \"#utility.yul\":6837:6853   */\n      add\n        /* \"#utility.yul\":6815:6867   */\n      tag_346\n      jump\t// in\n    tag_354:\n        /* \"#utility.yul\":6892:6921   */\n      tag_355\n        /* \"#utility.yul\":6914:6920   */\n      dup2\n        /* \"#utility.yul\":6892:6921   */\n      tag_348\n      jump\t// in\n    tag_355:\n        /* \"#utility.yul\":6887:6890   */\n      dup5\n        /* \"#utility.yul\":6883:6922   */\n      add\n        /* \"#utility.yul\":6876:6922   */\n      swap2\n      pop\n        /* \"#utility.yul\":6656:6928   */\n      pop\n        /* \"#utility.yul\":6564:6928   */\n      swap3\n      swap2\n      pop\n      pop\n      jump\t// out\n        /* \"#utility.yul\":7026:8702   */\n    tag_313:\n        /* \"#utility.yul\":7141:7144   */\n      0x00\n        /* \"#utility.yul\":7177:7183   */\n      0x0100\n        /* \"#utility.yul\":7172:7175   */\n      dup4\n        /* \"#utility.yul\":7168:7184   */\n      add\n        /* \"#utility.yul\":7265:7269   */\n      0x00\n        /* \"#utility.yul\":7258:7263   */\n      dup4\n        /* \"#utility.yul\":7254:7270   */\n      add\n        /* \"#utility.yul\":7248:7271   */\n      mload\n        /* \"#utility.yul\":7284:7347   */\n      tag_357\n        /* \"#utility.yul\":7341:7345   */\n      0x00\n        /* \"#utility.yul\":7336:7339   */\n      dup7\n        /* \"#utility.yul\":7332:7346   */\n      add\n        /* \"#utility.yul\":7318:7330   */\n      dup3\n        /* \"#utility.yul\":7284:7347   */\n      tag_358\n      jump\t// in\n    tag_357:\n        /* \"#utility.yul\":7194:7357   */\n      pop\n        /* \"#utility.yul\":7440:7444   */\n      0x20\n        /* \"#utility.yul\":7433:7438   */\n      dup4\n        /* \"#utility.yul\":7429:7445   */\n      add\n        /* \"#utility.yul\":7423:7446   */\n      mload\n        /* \"#utility.yul\":7493:7496   */\n      dup5\n        /* \"#utility.yul\":7487:7491   */\n      dup3\n        /* \"#utility.yul\":7483:7497   */\n      sub\n        /* \"#utility.yul\":7476:7480   */\n      0x20\n        /* \"#utility.yul\":7471:7474   */\n      dup7\n        /* \"#utility.yul\":7467:7481   */\n      add\n        /* \"#utility.yul\":7460:7498   */\n      mstore\n        /* \"#utility.yul\":7519:7592   */\n      tag_359\n        /* \"#utility.yul\":7587:7591   */\n      dup3\n        /* \"#utility.yul\":7573:7585   */\n      dup3\n        /* \"#utility.yul\":7519:7592   */\n      tag_339\n      jump\t// in\n    tag_359:\n        /* \"#utility.yul\":7511:7592   */\n      swap2\n      pop\n        /* \"#utility.yul\":7367:7603   */\n      pop\n        /* \"#utility.yul\":7687:7691   */\n      0x40\n        /* \"#utility.yul\":7680:7685   */\n      dup4\n        /* \"#utility.yul\":7676:7692   */\n      add\n        /* \"#utility.yul\":7670:7693   */\n      mload\n        /* \"#utility.yul\":7706:7769   */\n      tag_360\n        /* \"#utility.yul\":7763:7767   */\n      0x40\n        /* \"#utility.yul\":7758:7761   */\n      dup7\n        /* \"#utility.yul\":7754:7768   */\n      add\n        /* \"#utility.yul\":7740:7752   */\n      dup3\n        /* \"#utility.yul\":7706:7769   */\n      tag_358\n      jump\t// in\n    tag_360:\n        /* \"#utility.yul\":7613:7779   */\n      pop\n        /* \"#utility.yul\":7864:7868   */\n      0x60\n        /* \"#utility.yul\":7857:7862   */\n      dup4\n        /* \"#utility.yul\":7853:7869   */\n      add\n        /* \"#utility.yul\":7847:7870   */\n      mload\n        /* \"#utility.yul\":7883:7946   */\n      tag_361\n        /* \"#utility.yul\":7940:7944   */\n      0x60\n        /* \"#utility.yul\":7935:7938   */\n      dup7\n        /* \"#utility.yul\":7931:7945   */\n      add\n        /* \"#utility.yul\":7917:7929   */\n      dup3\n        /* \"#utility.yul\":7883:7946   */\n      tag_314\n      jump\t// in\n    tag_361:\n        /* \"#utility.yul\":7789:7956   */\n      pop\n        /* \"#utility.yul\":8043:8047   */\n      0x80\n        /* \"#utility.yul\":8036:8041   */\n      dup4\n        /* \"#utility.yul\":8032:8048   */\n      add\n        /* \"#utility.yul\":8026:8049   */\n      mload\n        /* \"#utility.yul\":8062:8125   */\n      tag_362\n        /* \"#utility.yul\":8119:8123   */\n      0x80\n        /* \"#utility.yul\":8114:8117   */\n      dup7\n        /* \"#utility.yul\":8110:8124   */\n      add\n        /* \"#utility.yul\":8096:8108   */\n      dup3\n        /* \"#utility.yul\":8062:8125   */\n      tag_314\n      jump\t// in\n    tag_362:\n        /* \"#utility.yul\":7966:8135   */\n      pop\n        /* \"#utility.yul\":8220:8224   */\n      0xa0\n        /* \"#utility.yul\":8213:8218   */\n      dup4\n        /* \"#utility.yul\":8209:8225   */\n      add\n        /* \"#utility.yul\":8203:8226   */\n      mload\n        /* \"#utility.yul\":8239:8302   */\n      tag_363\n        /* \"#utility.yul\":8296:8300   */\n      0xa0\n        /* \"#utility.yul\":8291:8294   */\n      dup7\n        /* \"#utility.yul\":8287:8301   */\n      add\n        /* \"#utility.yul\":8273:8285   */\n      dup3\n        /* \"#utility.yul\":8239:8302   */\n      tag_358\n      jump\t// in\n    tag_363:\n        /* \"#utility.yul\":8145:8312   */\n      pop\n        /* \"#utility.yul\":8401:8405   */\n      0xc0\n        /* \"#utility.yul\":8394:8399   */\n      dup4\n        /* \"#utility.yul\":8390:8406   */\n      add\n        /* \"#utility.yul\":8384:8407   */\n      mload\n        /* \"#utility.yul\":8420:8483   */\n      tag_364\n        /* \"#utility.yul\":8477:8481   */\n      0xc0\n        /* \"#utility.yul\":8472:8475   */\n      dup7\n        /* \"#utility.yul\":8468:8482   */\n      add\n        /* \"#utility.yul\":8454:8466   */\n      dup3\n        /* \"#utility.yul\":8420:8483   */\n      tag_358\n      jump\t// in\n    tag_364:\n        /* \"#utility.yul\":8322:8493   */\n      pop\n        /* \"#utility.yul\":8583:8587   */\n      0xe0\n        /* \"#utility.yul\":8576:8581   */\n      dup4\n        /* \"#utility.yul\":8572:8588   */\n      add\n        /* \"#utility.yul\":8566:8589   */\n      mload\n        /* \"#utility.yul\":8602:8665   */\n      tag_365\n        /* \"#utility.yul\":8659:8663   */\n      0xe0\n        /* \"#utility.yul\":8654:8657   */\n      dup7\n        /* \"#utility.yul\":8650:8664   */\n      add\n        /* \"#utility.yul\":8636:8648   */\n      dup3\n        /* \"#utility.yul\":8602:8665   */\n      tag_358\n      jump\t// in\n    tag_365:\n        /* \"#utility.yul\":8503:8675   */\n      pop\n        /* \"#utility.yul\":8692:8696   */\n      dup1\n        /* \"#utility.yul\":8685:8696   */\n      swap2\n      pop\n        /* \"#utility.yul\":7146:8702   */\n      pop\n        /* \"#utility.yul\":7026:8702   */\n      swap3\n      swap2\n      pop\n      pop\n      jump\t// out\n        /* \"#utility.yul\":8708:8816   */\n    tag_358:\n        /* \"#utility.yul\":8785:8809   */\n      tag_367\n        /* \"#utility.yul\":8803:8808   */\n      dup2\n        /* \"#utility.yul\":8785:8809   */\n      tag_368\n      jump\t// in\n    tag_367:\n        /* \"#utility.yul\":8780:8783   */\n      dup3\n        /* \"#utility.yul\":8773:8810   */\n      mstore\n        /* \"#utility.yul\":8708:8816   */\n      pop\n      pop\n      jump\t// out\n        /* \"#utility.yul\":8822:8940   */\n    tag_369:\n        /* \"#utility.yul\":8909:8933   */\n      tag_371\n        /* \"#utility.yul\":8927:8932   */\n      dup2\n        /* \"#utility.yul\":8909:8933   */\n      tag_368\n      jump\t// in\n    tag_371:\n        /* \"#utility.yul\":8904:8907   */\n      dup3\n        /* \"#utility.yul\":8897:8934   */\n      mstore\n        /* \"#utility.yul\":8822:8940   */\n      pop\n      pop\n      jump\t// out\n        /* \"#utility.yul\":8946:9168   */\n    tag_82:\n        /* \"#utility.yul\":9039:9043   */\n      0x00\n        /* \"#utility.yul\":9077:9079   */\n      0x20\n        /* \"#utility.yul\":9066:9075   */\n      dup3\n        /* \"#utility.yul\":9062:9080   */\n      add\n        /* \"#utility.yul\":9054:9080   */\n      swap1\n      pop\n        /* \"#utility.yul\":9090:9161   */\n      tag_373\n        /* \"#utility.yul\":9158:9159   */\n      0x00\n        /* \"#utility.yul\":9147:9156   */\n      dup4\n        /* \"#utility.yul\":9143:9160   */\n      add\n        /* \"#utility.yul\":9134:9140   */\n      dup5\n        /* \"#utility.yul\":9090:9161   */\n      tag_318\n      jump\t// in\n    tag_373:\n        /* \"#utility.yul\":8946:9168   */\n      swap3\n      swap2\n      pop\n      pop\n      jump\t// out\n        /* \"#utility.yul\":9174:9506   */\n    tag_54:\n        /* \"#utility.yul\":9295:9299   */\n      0x00\n        /* \"#utility.yul\":9333:9335   */\n      0x40\n        /* \"#utility.yul\":9322:9331   */\n      dup3\n        /* \"#utility.yul\":9318:9336   */\n      add\n        /* \"#utility.yul\":9310:9336   */\n      swap1\n      pop\n        /* \"#utility.yul\":9346:9417   */\n      tag_375\n        /* \"#utility.yul\":9414:9415   */\n      0x00\n        /* \"#utility.yul\":9403:9412   */\n      dup4\n        /* \"#utility.yul\":9399:9416   */\n      add\n        /* \"#utility.yul\":9390:9396   */\n      dup6\n        /* \"#utility.yul\":9346:9417   */\n      tag_318\n      jump\t// in\n    tag_375:\n        /* \"#utility.yul\":9427:9499   */\n      tag_376\n        /* \"#utility.yul\":9495:9497   */\n      0x20\n        /* \"#utility.yul\":9484:9493   */\n      dup4\n        /* \"#utility.yul\":9480:9498   */\n      add\n        /* \"#utility.yul\":9471:9477   */\n      dup5\n        /* \"#utility.yul\":9427:9499   */\n      tag_318\n      jump\t// in\n    tag_376:\n        /* \"#utility.yul\":9174:9506   */\n      swap4\n      swap3\n      pop\n      pop\n      pop\n      jump\t// out\n        /* \"#utility.yul\":9512:9997   */\n    tag_19:\n        /* \"#utility.yul\":9711:9715   */\n      0x00\n        /* \"#utility.yul\":9749:9751   */\n      0x20\n        /* \"#utility.yul\":9738:9747   */\n      dup3\n        /* \"#utility.yul\":9734:9752   */\n      add\n        /* \"#utility.yul\":9726:9752   */\n      swap1\n      pop\n        /* \"#utility.yul\":9798:9807   */\n      dup2\n        /* \"#utility.yul\":9792:9796   */\n      dup2\n        /* \"#utility.yul\":9788:9808   */\n      sub\n        /* \"#utility.yul\":9784:9785   */\n      0x00\n        /* \"#utility.yul\":9773:9782   */\n      dup4\n        /* \"#utility.yul\":9769:9786   */\n      add\n        /* \"#utility.yul\":9762:9809   */\n      mstore\n        /* \"#utility.yul\":9826:9990   */\n      tag_378\n        /* \"#utility.yul\":9985:9989   */\n      dup2\n        /* \"#utility.yul\":9976:9982   */\n      dup5\n        /* \"#utility.yul\":9826:9990   */\n      tag_321\n      jump\t// in\n    tag_378:\n        /* \"#utility.yul\":9818:9990   */\n      swap1\n      pop\n        /* \"#utility.yul\":9512:9997   */\n      swap3\n      swap2\n      pop\n      pop\n      jump\t// out\n        /* \"#utility.yul\":10003:10213   */\n    tag_49:\n        /* \"#utility.yul\":10090:10094   */\n      0x00\n        /* \"#utility.yul\":10128:10130   */\n      0x20\n        /* \"#utility.yul\":10117:10126   */\n      dup3\n        /* \"#utility.yul\":10113:10131   */\n      add\n        /* \"#utility.yul\":10105:10131   */\n      swap1\n      pop\n        /* \"#utility.yul\":10141:10206   */\n      tag_380\n        /* \"#utility.yul\":10203:10204   */\n      0x00\n        /* \"#utility.yul\":10192:10201   */\n      dup4\n        /* \"#utility.yul\":10188:10205   */\n      add\n        /* \"#utility.yul\":10179:10185   */\n      dup5\n        /* \"#utility.yul\":10141:10206   */\n      tag_335\n      jump\t// in\n    tag_380:\n        /* \"#utility.yul\":10003:10213   */\n      swap3\n      swap2\n      pop\n      pop\n      jump\t// out\n        /* \"#utility.yul\":10219:10441   */\n    tag_60:\n        /* \"#utility.yul\":10312:10316   */\n      0x00\n        /* \"#utility.yul\":10350:10352   */\n      0x20\n        /* \"#utility.yul\":10339:10348   */\n      dup3\n        /* \"#utility.yul\":10335:10353   */\n      add\n        /* \"#utility.yul\":10327:10353   */\n      swap1\n      pop\n        /* \"#utility.yul\":10363:10434   */\n      tag_382\n        /* \"#utility.yul\":10431:10432   */\n      0x00\n        /* \"#utility.yul\":10420:10429   */\n      dup4\n        /* \"#utility.yul\":10416:10433   */\n      add\n        /* \"#utility.yul\":10407:10413   */\n      dup5\n        /* \"#utility.yul\":10363:10434   */\n      tag_369\n      jump\t// in\n    tag_382:\n        /* \"#utility.yul\":10219:10441   */\n      swap3\n      swap2\n      pop\n      pop\n      jump\t// out\n        /* \"#utility.yul\":10447:11535   */\n    tag_36:\n        /* \"#utility.yul\":10756:10760   */\n      0x00\n        /* \"#utility.yul\":10794:10797   */\n      0x0100\n        /* \"#utility.yul\":10783:10792   */\n      dup3\n        /* \"#utility.yul\":10779:10798   */\n      add\n        /* \"#utility.yul\":10771:10798   */\n      swap1\n      pop\n        /* \"#utility.yul\":10808:10879   */\n      tag_384\n        /* \"#utility.yul\":10876:10877   */\n      0x00\n        /* \"#utility.yul\":10865:10874   */\n      dup4\n        /* \"#utility.yul\":10861:10878   */\n      add\n        /* \"#utility.yul\":10852:10858   */\n      dup12\n        /* \"#utility.yul\":10808:10879   */\n      tag_369\n      jump\t// in\n    tag_384:\n        /* \"#utility.yul\":10926:10935   */\n      dup2\n        /* \"#utility.yul\":10920:10924   */\n      dup2\n        /* \"#utility.yul\":10916:10936   */\n      sub\n        /* \"#utility.yul\":10911:10913   */\n      0x20\n        /* \"#utility.yul\":10900:10909   */\n      dup4\n        /* \"#utility.yul\":10896:10914   */\n      add\n        /* \"#utility.yul\":10889:10937   */\n      mstore\n        /* \"#utility.yul\":10954:11032   */\n      tag_385\n        /* \"#utility.yul\":11027:11031   */\n      dup2\n        /* \"#utility.yul\":11018:11024   */\n      dup11\n        /* \"#utility.yul\":10954:11032   */\n      tag_349\n      jump\t// in\n    tag_385:\n        /* \"#utility.yul\":10946:11032   */\n      swap1\n      pop\n        /* \"#utility.yul\":11042:11114   */\n      tag_386\n        /* \"#utility.yul\":11110:11112   */\n      0x40\n        /* \"#utility.yul\":11099:11108   */\n      dup4\n        /* \"#utility.yul\":11095:11113   */\n      add\n        /* \"#utility.yul\":11086:11092   */\n      dup10\n        /* \"#utility.yul\":11042:11114   */\n      tag_369\n      jump\t// in\n    tag_386:\n        /* \"#utility.yul\":11124:11196   */\n      tag_387\n        /* \"#utility.yul\":11192:11194   */\n      0x60\n        /* \"#utility.yul\":11181:11190   */\n      dup4\n        /* \"#utility.yul\":11177:11195   */\n      add\n        /* \"#utility.yul\":11168:11174   */\n      dup9\n        /* \"#utility.yul\":11124:11196   */\n      tag_318\n      jump\t// in\n    tag_387:\n        /* \"#utility.yul\":11206:11279   */\n      tag_388\n        /* \"#utility.yul\":11274:11277   */\n      0x80\n        /* \"#utility.yul\":11263:11272   */\n      dup4\n        /* \"#utility.yul\":11259:11278   */\n      add\n        /* \"#utility.yul\":11250:11256   */\n      dup8\n        /* \"#utility.yul\":11206:11279   */\n      tag_318\n      jump\t// in\n    tag_388:\n        /* \"#utility.yul\":11289:11362   */\n      tag_389\n        /* \"#utility.yul\":11357:11360   */\n      0xa0\n        /* \"#utility.yul\":11346:11355   */\n      dup4\n        /* \"#utility.yul\":11342:11361   */\n      add\n        /* \"#utility.yul\":11333:11339   */\n      dup7\n        /* \"#utility.yul\":11289:11362   */\n      tag_369\n      jump\t// in\n    tag_389:\n        /* \"#utility.yul\":11372:11445   */\n      tag_390\n        /* \"#utility.yul\":11440:11443   */\n      0xc0\n        /* \"#utility.yul\":11429:11438   */\n      dup4\n        /* \"#utility.yul\":11425:11444   */\n      add\n        /* \"#utility.yul\":11416:11422   */\n      dup6\n        /* \"#utility.yul\":11372:11445   */\n      tag_369\n      jump\t// in\n    tag_390:\n        /* \"#utility.yul\":11455:11528   */\n      tag_391\n        /* \"#utility.yul\":11523:11526   */\n      0xe0\n        /* \"#utility.yul\":11512:11521   */\n      dup4\n        /* \"#utility.yul\":11508:11527   */\n      add\n        /* \"#utility.yul\":11499:11505   */\n      dup5\n        /* \"#utility.yul\":11455:11528   */\n      tag_369\n      jump\t// in\n    tag_391:\n        /* \"#utility.yul\":10447:11535   */\n      swap10\n      swap9\n      pop\n      pop\n      pop\n      pop\n      pop\n      pop\n      pop\n      pop\n      pop\n      jump\t// out\n        /* \"#utility.yul\":11541:11670   */\n    tag_253:\n        /* \"#utility.yul\":11575:11581   */\n      0x00\n        /* \"#utility.yul\":11602:11622   */\n      tag_393\n      tag_394\n      jump\t// in\n    tag_393:\n        /* \"#utility.yul\":11592:11622   */\n      swap1\n      pop\n        /* \"#utility.yul\":11631:11664   */\n      tag_395\n        /* \"#utility.yul\":11659:11663   */\n      dup3\n        /* \"#utility.yul\":11651:11657   */\n      dup3\n        /* \"#utility.yul\":11631:11664   */\n      tag_396\n      jump\t// in\n    tag_395:\n        /* \"#utility.yul\":11541:11670   */\n      swap2\n      swap1\n      pop\n      jump\t// out\n        /* \"#utility.yul\":11676:11751   */\n    tag_394:\n        /* \"#utility.yul\":11709:11715   */\n      0x00\n        /* \"#utility.yul\":11742:11744   */\n      0x40\n        /* \"#utility.yul\":11736:11745   */\n      mload\n        /* \"#utility.yul\":11726:11745   */\n      swap1\n      pop\n        /* \"#utility.yul\":11676:11751   */\n      swap1\n      jump\t// out\n        /* \"#utility.yul\":11757:12065   */\n    tag_252:\n        /* \"#utility.yul\":11819:11823   */\n      0x00\n        /* \"#utility.yul\":11909:11927   */\n      0xffffffffffffffff\n        /* \"#utility.yul\":11901:11907   */\n      dup3\n        /* \"#utility.yul\":11898:11928   */\n      gt\n        /* \"#utility.yul\":11895:11951   */\n      iszero\n      tag_399\n      jumpi\n        /* \"#utility.yul\":11931:11949   */\n      tag_400\n      tag_401\n      jump\t// in\n    tag_400:\n        /* \"#utility.yul\":11895:11951   */\n    tag_399:\n        /* \"#utility.yul\":11969:11998   */\n      tag_402\n        /* \"#utility.yul\":11991:11997   */\n      dup3\n        /* \"#utility.yul\":11969:11998   */\n      tag_348\n      jump\t// in\n    tag_402:\n        /* \"#utility.yul\":11961:11998   */\n      swap1\n      pop\n        /* \"#utility.yul\":12053:12057   */\n      0x20\n        /* \"#utility.yul\":12047:12051   */\n      dup2\n        /* \"#utility.yul\":12043:12058   */\n      add\n        /* \"#utility.yul\":12035:12058   */\n      swap1\n      pop\n        /* \"#utility.yul\":11757:12065   */\n      swap2\n      swap1\n      pop\n      jump\t// out\n        /* \"#utility.yul\":12071:12231   */\n    tag_328:\n        /* \"#utility.yul\":12166:12170   */\n      0x00\n        /* \"#utility.yul\":12189:12192   */\n      dup2\n        /* \"#utility.yul\":12181:12192   */\n      swap1\n      pop\n        /* \"#utility.yul\":12219:12223   */\n      0x20\n        /* \"#utility.yul\":12214:12217   */\n      dup3\n        /* \"#utility.yul\":12210:12224   */\n      add\n        /* \"#utility.yul\":12202:12224   */\n      swap1\n      pop\n        /* \"#utility.yul\":12071:12231   */\n      swap2\n      swap1\n      pop\n      jump\t// out\n        /* \"#utility.yul\":12237:12379   */\n    tag_324:\n        /* \"#utility.yul\":12332:12338   */\n      0x00\n        /* \"#utility.yul\":12366:12371   */\n      dup2\n        /* \"#utility.yul\":12360:12372   */\n      mload\n        /* \"#utility.yul\":12350:12372   */\n      swap1\n      pop\n        /* \"#utility.yul\":12237:12379   */\n      swap2\n      swap1\n      pop\n      jump\t// out\n        /* \"#utility.yul\":12385:12484   */\n    tag_342:\n        /* \"#utility.yul\":12437:12443   */\n      0x00\n        /* \"#utility.yul\":12471:12476   */\n      dup2\n        /* \"#utility.yul\":12465:12477   */\n      mload\n        /* \"#utility.yul\":12455:12477   */\n      swap1\n      pop\n        /* \"#utility.yul\":12385:12484   */\n      swap2\n      swap1\n      pop\n      jump\t// out\n        /* \"#utility.yul\":12490:12631   */\n    tag_334:\n        /* \"#utility.yul\":12588:12592   */\n      0x00\n        /* \"#utility.yul\":12620:12624   */\n      0x20\n        /* \"#utility.yul\":12615:12618   */\n      dup3\n        /* \"#utility.yul\":12611:12625   */\n      add\n        /* \"#utility.yul\":12603:12625   */\n      swap1\n      pop\n        /* \"#utility.yul\":12490:12631   */\n      swap2\n      swap1\n      pop\n      jump\t// out\n        /* \"#utility.yul\":12637:12849   */\n    tag_326:\n        /* \"#utility.yul\":12764:12775   */\n      0x00\n        /* \"#utility.yul\":12798:12804   */\n      dup3\n        /* \"#utility.yul\":12793:12796   */\n      dup3\n        /* \"#utility.yul\":12786:12805   */\n      mstore\n        /* \"#utility.yul\":12838:12842   */\n      0x20\n        /* \"#utility.yul\":12833:12836   */\n      dup3\n        /* \"#utility.yul\":12829:12843   */\n      add\n        /* \"#utility.yul\":12814:12843   */\n      swap1\n      pop\n        /* \"#utility.yul\":12637:12849   */\n      swap3\n      swap2\n      pop\n      pop\n      jump\t// out\n        /* \"#utility.yul\":12855:13014   */\n    tag_344:\n        /* \"#utility.yul\":12929:12940   */\n      0x00\n        /* \"#utility.yul\":12963:12969   */\n      dup3\n        /* \"#utility.yul\":12958:12961   */\n      dup3\n        /* \"#utility.yul\":12951:12970   */\n      mstore\n        /* \"#utility.yul\":13003:13007   */\n      0x20\n        /* \"#utility.yul\":12998:13001   */\n      dup3\n        /* \"#utility.yul\":12994:13008   */\n      add\n        /* \"#utility.yul\":12979:13008   */\n      swap1\n      pop\n        /* \"#utility.yul\":12855:13014   */\n      swap3\n      swap2\n      pop\n      pop\n      jump\t// out\n        /* \"#utility.yul\":13020:13189   */\n    tag_353:\n        /* \"#utility.yul\":13104:13115   */\n      0x00\n        /* \"#utility.yul\":13138:13144   */\n      dup3\n        /* \"#utility.yul\":13133:13136   */\n      dup3\n        /* \"#utility.yul\":13126:13145   */\n      mstore\n        /* \"#utility.yul\":13178:13182   */\n      0x20\n        /* \"#utility.yul\":13173:13176   */\n      dup3\n        /* \"#utility.yul\":13169:13183   */\n      add\n        /* \"#utility.yul\":13154:13183   */\n      swap1\n      pop\n        /* \"#utility.yul\":13020:13189   */\n      swap3\n      swap2\n      pop\n      pop\n      jump\t// out\n        /* \"#utility.yul\":13195:13500   */\n    tag_104:\n        /* \"#utility.yul\":13235:13238   */\n      0x00\n        /* \"#utility.yul\":13254:13274   */\n      tag_411\n        /* \"#utility.yul\":13272:13273   */\n      dup3\n        /* \"#utility.yul\":13254:13274   */\n      tag_368\n      jump\t// in\n    tag_411:\n        /* \"#utility.yul\":13249:13274   */\n      swap2\n      pop\n        /* \"#utility.yul\":13288:13308   */\n      tag_412\n        /* \"#utility.yul\":13306:13307   */\n      dup4\n        /* \"#utility.yul\":13288:13308   */\n      tag_368\n      jump\t// in\n    tag_412:\n        /* \"#utility.yul\":13283:13308   */\n      swap3\n      pop\n        /* \"#utility.yul\":13442:13443   */\n      dup3\n        /* \"#utility.yul\":13374:13440   */\n      0xffffffffffffffffffffffffffffffffffffffffffffffffffffffffffffffff\n        /* \"#utility.yul\":13370:13444   */\n      sub\n        /* \"#utility.yul\":13367:13368   */\n      dup3\n        /* \"#utility.yul\":13364:13445   */\n      gt\n        /* \"#utility.yul\":13361:13468   */\n      iszero\n      tag_413\n      jumpi\n        /* \"#utility.yul\":13448:13466   */\n      tag_414\n      tag_415\n      jump\t// in\n    tag_414:\n        /* \"#utility.yul\":13361:13468   */\n    tag_413:\n        /* \"#utility.yul\":13492:13493   */\n      dup3\n        /* \"#utility.yul\":13489:13490   */\n      dup3\n        /* \"#utility.yul\":13485:13494   */\n      add\n        /* \"#utility.yul\":13478:13494   */\n      swap1\n      pop\n        /* \"#utility.yul\":13195:13500   */\n      swap3\n      swap2\n      pop\n      pop\n      jump\t// out\n        /* \"#utility.yul\":13506:13854   */\n    tag_223:\n        /* \"#utility.yul\":13546:13553   */\n      0x00\n        /* \"#utility.yul\":13569:13589   */\n      tag_417\n        /* \"#utility.yul\":13587:13588   */\n      dup3\n        /* \"#utility.yul\":13569:13589   */\n      tag_368\n      jump\t// in\n    tag_417:\n        /* \"#utility.yul\":13564:13589   */\n      swap2\n      pop\n        /* \"#utility.yul\":13603:13623   */\n      tag_418\n        /* \"#utility.yul\":13621:13622   */\n      dup4\n        /* \"#utility.yul\":13603:13623   */\n      tag_368\n      jump\t// in\n    tag_418:\n        /* \"#utility.yul\":13598:13623   */\n      swap3\n      pop\n        /* \"#utility.yul\":13791:13792   */\n      dup2\n        /* \"#utility.yul\":13723:13789   */\n      0xffffffffffffffffffffffffffffffffffffffffffffffffffffffffffffffff\n        /* \"#utility.yul\":13719:13793   */\n      div\n        /* \"#utility.yul\":13716:13717   */\n      dup4\n        /* \"#utility.yul\":13713:13794   */\n      gt\n        /* \"#utility.yul\":13708:13709   */\n      dup3\n        /* \"#utility.yul\":13701:13710   */\n      iszero\n        /* \"#utility.yul\":13694:13711   */\n      iszero\n        /* \"#utility.yul\":13690:13795   */\n      and\n        /* \"#utility.yul\":13687:13818   */\n      iszero\n      tag_419\n      jumpi\n        /* \"#utility.yul\":13798:13816   */\n      tag_420\n      tag_415\n      jump\t// in\n    tag_420:\n        /* \"#utility.yul\":13687:13818   */\n    tag_419:\n        /* \"#utility.yul\":13846:13847   */\n      dup3\n        /* \"#utility.yul\":13843:13844   */\n      dup3\n        /* \"#utility.yul\":13839:13848   */\n      mul\n        /* \"#utility.yul\":13828:13848   */\n      swap1\n      pop\n        /* \"#utility.yul\":13506:13854   */\n      swap3\n      swap2\n      pop\n      pop\n      jump\t// out\n        /* \"#utility.yul\":13860:14051   */\n    tag_73:\n        /* \"#utility.yul\":13900:13904   */\n      0x00\n        /* \"#utility.yul\":13920:13940   */\n      tag_422\n        /* \"#utility.yul\":13938:13939   */\n      dup3\n        /* \"#utility.yul\":13920:13940   */\n      tag_368\n      jump\t// in\n    tag_422:\n        /* \"#utility.yul\":13915:13940   */\n      swap2\n      pop\n        /* \"#utility.yul\":13954:13974   */\n      tag_423\n        /* \"#utility.yul\":13972:13973   */\n      dup4\n        /* \"#utility.yul\":13954:13974   */\n      tag_368\n      jump\t// in\n    tag_423:\n        /* \"#utility.yul\":13949:13974   */\n      swap3\n      pop\n        /* \"#utility.yul\":13993:13994   */\n      dup3\n        /* \"#utility.yul\":13990:13991   */\n      dup3\n        /* \"#utility.yul\":13987:13995   */\n      lt\n        /* \"#utility.yul\":13984:14018   */\n      iszero\n      tag_424\n      jumpi\n        /* \"#utility.yul\":13998:14016   */\n      tag_425\n      tag_415\n      jump\t// in\n    tag_425:\n        /* \"#utility.yul\":13984:14018   */\n    tag_424:\n        /* \"#utility.yul\":14043:14044   */\n      dup3\n        /* \"#utility.yul\":14040:14041   */\n      dup3\n        /* \"#utility.yul\":14036:14045   */\n      sub\n        /* \"#utility.yul\":14028:14045   */\n      swap1\n      pop\n        /* \"#utility.yul\":13860:14051   */\n      swap3\n      swap2\n      pop\n      pop\n      jump\t// out\n        /* \"#utility.yul\":14057:14153   */\n    tag_317:\n        /* \"#utility.yul\":14094:14101   */\n      0x00\n        /* \"#utility.yul\":14123:14147   */\n      tag_427\n        /* \"#utility.yul\":14141:14146   */\n      dup3\n        /* \"#utility.yul\":14123:14147   */\n      tag_428\n      jump\t// in\n    tag_427:\n        /* \"#utility.yul\":14112:14147   */\n      swap1\n      pop\n        /* \"#utility.yul\":14057:14153   */\n      swap2\n      swap1\n      pop\n      jump\t// out\n        /* \"#utility.yul\":14159:14249   */\n    tag_338:\n        /* \"#utility.yul\":14193:14200   */\n      0x00\n        /* \"#utility.yul\":14236:14241   */\n      dup2\n        /* \"#utility.yul\":14229:14242   */\n      iszero\n        /* \"#utility.yul\":14222:14243   */\n      iszero\n        /* \"#utility.yul\":14211:14243   */\n      swap1\n      pop\n        /* \"#utility.yul\":14159:14249   */\n      swap2\n      swap1\n      pop\n      jump\t// out\n        /* \"#utility.yul\":14255:14381   */\n    tag_428:\n        /* \"#utility.yul\":14292:14299   */\n      0x00\n        /* \"#utility.yul\":14332:14374   */\n      0xffffffffffffffffffffffffffffffffffffffff\n        /* \"#utility.yul\":14325:14330   */\n      dup3\n        /* \"#utility.yul\":14321:14375   */\n      and\n        /* \"#utility.yul\":14310:14375   */\n      swap1\n      pop\n        /* \"#utility.yul\":14255:14381   */\n      swap2\n      swap1\n      pop\n      jump\t// out\n        /* \"#utility.yul\":14387:14464   */\n    tag_368:\n        /* \"#utility.yul\":14424:14431   */\n      0x00\n        /* \"#utility.yul\":14453:14458   */\n      dup2\n        /* \"#utility.yul\":14442:14458   */\n      swap1\n      pop\n        /* \"#utility.yul\":14387:14464   */\n      swap2\n      swap1\n      pop\n      jump\t// out\n        /* \"#utility.yul\":14470:14624   */\n    tag_258:\n        /* \"#utility.yul\":14554:14560   */\n      dup3\n        /* \"#utility.yul\":14549:14552   */\n      dup2\n        /* \"#utility.yul\":14544:14547   */\n      dup4\n        /* \"#utility.yul\":14531:14561   */\n      calldatacopy\n        /* \"#utility.yul\":14616:14617   */\n      0x00\n        /* \"#utility.yul\":14607:14613   */\n      dup4\n        /* \"#utility.yul\":14602:14605   */\n      dup4\n        /* \"#utility.yul\":14598:14614   */\n      add\n        /* \"#utility.yul\":14591:14618   */\n      mstore\n        /* \"#utility.yul\":14470:14624   */\n      pop\n      pop\n      pop\n      jump\t// out\n        /* \"#utility.yul\":14630:14937   */\n    tag_346:\n        /* \"#utility.yul\":14698:14699   */\n      0x00\n        /* \"#utility.yul\":14708:14821   */\n    tag_434:\n        /* \"#utility.yul\":14722:14728   */\n      dup4\n        /* \"#utility.yul\":14719:14720   */\n      dup2\n        /* \"#utility.yul\":14716:14729   */\n      lt\n        /* \"#utility.yul\":14708:14821   */\n      iszero\n      tag_436\n      jumpi\n        /* \"#utility.yul\":14807:14808   */\n      dup1\n        /* \"#utility.yul\":14802:14805   */\n      dup3\n        /* \"#utility.yul\":14798:14809   */\n      add\n        /* \"#utility.yul\":14792:14810   */\n      mload\n        /* \"#utility.yul\":14788:14789   */\n      dup2\n        /* \"#utility.yul\":14783:14786   */\n      dup5\n        /* \"#utility.yul\":14779:14790   */\n      add\n        /* \"#utility.yul\":14772:14811   */\n      mstore\n        /* \"#utility.yul\":14744:14746   */\n      0x20\n        /* \"#utility.yul\":14741:14742   */\n      dup2\n        /* \"#utility.yul\":14737:14747   */\n      add\n        /* \"#utility.yul\":14732:14747   */\n      swap1\n      pop\n        /* \"#utility.yul\":14708:14821   */\n      jump(tag_434)\n    tag_436:\n        /* \"#utility.yul\":14839:14845   */\n      dup4\n        /* \"#utility.yul\":14836:14837   */\n      dup2\n        /* \"#utility.yul\":14833:14846   */\n      gt\n        /* \"#utility.yul\":14830:14931   */\n      iszero\n      tag_437\n      jumpi\n        /* \"#utility.yul\":14919:14920   */\n      0x00\n        /* \"#utility.yul\":14910:14916   */\n      dup5\n        /* \"#utility.yul\":14905:14908   */\n      dup5\n        /* \"#utility.yul\":14901:14917   */\n      add\n        /* \"#utility.yul\":14894:14921   */\n      mstore\n        /* \"#utility.yul\":14830:14931   */\n    tag_437:\n        /* \"#utility.yul\":14679:14937   */\n      pop\n        /* \"#utility.yul\":14630:14937   */\n      pop\n      pop\n      pop\n      jump\t// out\n        /* \"#utility.yul\":14943:15263   */\n    tag_66:\n        /* \"#utility.yul\":14987:14993   */\n      0x00\n        /* \"#utility.yul\":15024:15025   */\n      0x02\n        /* \"#utility.yul\":15018:15022   */\n      dup3\n        /* \"#utility.yul\":15014:15026   */\n      div\n        /* \"#utility.yul\":15004:15026   */\n      swap1\n      pop\n        /* \"#utility.yul\":15071:15072   */\n      0x01\n        /* \"#utility.yul\":15065:15069   */\n      dup3\n        /* \"#utility.yul\":15061:15073   */\n      and\n        /* \"#utility.yul\":15092:15110   */\n      dup1\n        /* \"#utility.yul\":15082:15163   */\n      tag_439\n      jumpi\n        /* \"#utility.yul\":15148:15152   */\n      0x7f\n        /* \"#utility.yul\":15140:15146   */\n      dup3\n        /* \"#utility.yul\":15136:15153   */\n      and\n        /* \"#utility.yul\":15126:15153   */\n      swap2\n      pop\n        /* \"#utility.yul\":15082:15163   */\n    tag_439:\n        /* \"#utility.yul\":15210:15212   */\n      0x20\n        /* \"#utility.yul\":15202:15208   */\n      dup3\n        /* \"#utility.yul\":15199:15213   */\n      lt\n        /* \"#utility.yul\":15179:15197   */\n      dup2\n        /* \"#utility.yul\":15176:15214   */\n      eq\n        /* \"#utility.yul\":15173:15257   */\n      iszero\n      tag_440\n      jumpi\n        /* \"#utility.yul\":15229:15247   */\n      tag_441\n      tag_442\n      jump\t// in\n    tag_441:\n        /* \"#utility.yul\":15173:15257   */\n    tag_440:\n        /* \"#utility.yul\":14994:15263   */\n      pop\n        /* \"#utility.yul\":14943:15263   */\n      swap2\n      swap1\n      pop\n      jump\t// out\n        /* \"#utility.yul\":15269:15550   */\n    tag_396:\n        /* \"#utility.yul\":15352:15379   */\n      tag_444\n        /* \"#utility.yul\":15374:15378   */\n      dup3\n        /* \"#utility.yul\":15352:15379   */\n      tag_348\n      jump\t// in\n    tag_444:\n        /* \"#utility.yul\":15344:15350   */\n      dup2\n        /* \"#utility.yul\":15340:15380   */\n      add\n        /* \"#utility.yul\":15482:15488   */\n      dup2\n        /* \"#utility.yul\":15470:15480   */\n      dup2\n        /* \"#utility.yul\":15467:15489   */\n      lt\n        /* \"#utility.yul\":15446:15464   */\n      0xffffffffffffffff\n        /* \"#utility.yul\":15434:15444   */\n      dup3\n        /* \"#utility.yul\":15431:15465   */\n      gt\n        /* \"#utility.yul\":15428:15490   */\n      or\n        /* \"#utility.yul\":15425:15513   */\n      iszero\n      tag_445\n      jumpi\n        /* \"#utility.yul\":15493:15511   */\n      tag_446\n      tag_401\n      jump\t// in\n    tag_446:\n        /* \"#utility.yul\":15425:15513   */\n    tag_445:\n        /* \"#utility.yul\":15533:15543   */\n      dup1\n        /* \"#utility.yul\":15529:15531   */\n      0x40\n        /* \"#utility.yul\":15522:15544   */\n      mstore\n        /* \"#utility.yul\":15312:15550   */\n      pop\n        /* \"#utility.yul\":15269:15550   */\n      pop\n      pop\n      jump\t// out\n        /* \"#utility.yul\":15556:15789   */\n    tag_97:\n        /* \"#utility.yul\":15595:15598   */\n      0x00\n        /* \"#utility.yul\":15618:15642   */\n      tag_448\n        /* \"#utility.yul\":15636:15641   */\n      dup3\n        /* \"#utility.yul\":15618:15642   */\n      tag_368\n      jump\t// in\n    tag_448:\n        /* \"#utility.yul\":15609:15642   */\n      swap2\n      pop\n        /* \"#utility.yul\":15664:15730   */\n      0xffffffffffffffffffffffffffffffffffffffffffffffffffffffffffffffff\n        /* \"#utility.yul\":15657:15662   */\n      dup3\n        /* \"#utility.yul\":15654:15731   */\n      eq\n        /* \"#utility.yul\":15651:15754   */\n      iszero\n      tag_449\n      jumpi\n        /* \"#utility.yul\":15734:15752   */\n      tag_450\n      tag_415\n      jump\t// in\n    tag_450:\n        /* \"#utility.yul\":15651:15754   */\n    tag_449:\n        /* \"#utility.yul\":15781:15782   */\n      0x01\n        /* \"#utility.yul\":15774:15779   */\n      dup3\n        /* \"#utility.yul\":15770:15783   */\n      add\n        /* \"#utility.yul\":15763:15783   */\n      swap1\n      pop\n        /* \"#utility.yul\":15556:15789   */\n      swap2\n      swap1\n      pop\n      jump\t// out\n        /* \"#utility.yul\":15795:15975   */\n    tag_415:\n        /* \"#utility.yul\":15843:15920   */\n      0x4e487b7100000000000000000000000000000000000000000000000000000000\n        /* \"#utility.yul\":15840:15841   */\n      0x00\n        /* \"#utility.yul\":15833:15921   */\n      mstore\n        /* \"#utility.yul\":15940:15944   */\n      0x11\n        /* \"#utility.yul\":15937:15938   */\n      0x04\n        /* \"#utility.yul\":15930:15945   */\n      mstore\n        /* \"#utility.yul\":15964:15968   */\n      0x24\n        /* \"#utility.yul\":15961:15962   */\n      0x00\n        /* \"#utility.yul\":15954:15969   */\n      revert\n        /* \"#utility.yul\":15981:16161   */\n    tag_442:\n        /* \"#utility.yul\":16029:16106   */\n      0x4e487b7100000000000000000000000000000000000000000000000000000000\n        /* \"#utility.yul\":16026:16027   */\n      0x00\n        /* \"#utility.yul\":16019:16107   */\n      mstore\n        /* \"#utility.yul\":16126:16130   */\n      0x22\n        /* \"#utility.yul\":16123:16124   */\n      0x04\n        /* \"#utility.yul\":16116:16131   */\n      mstore\n        /* \"#utility.yul\":16150:16154   */\n      0x24\n        /* \"#utility.yul\":16147:16148   */\n      0x00\n        /* \"#utility.yul\":16140:16155   */\n      revert\n        /* \"#utility.yul\":16167:16347   */\n    tag_143:\n        /* \"#utility.yul\":16215:16292   */\n      0x4e487b7100000000000000000000000000000000000000000000000000000000\n        /* \"#utility.yul\":16212:16213   */\n      0x00\n        /* \"#utility.yul\":16205:16293   */\n      mstore\n        /* \"#utility.yul\":16312:16316   */\n      0x31\n        /* \"#utility.yul\":16309:16310   */\n      0x04\n        /* \"#utility.yul\":16302:16317   */\n      mstore\n        /* \"#utility.yul\":16336:16340   */\n      0x24\n        /* \"#utility.yul\":16333:16334   */\n      0x00\n        /* \"#utility.yul\":16326:16341   */\n      revert\n        /* \"#utility.yul\":16353:16533   */\n    tag_76:\n        /* \"#utility.yul\":16401:16478   */\n      0x4e487b7100000000000000000000000000000000000000000000000000000000\n        /* \"#utility.yul\":16398:16399   */\n      0x00\n        /* \"#utility.yul\":16391:16479   */\n      mstore\n        /* \"#utility.yul\":16498:16502   */\n      0x32\n        /* \"#utility.yul\":16495:16496   */\n      0x04\n        /* \"#utility.yul\":16488:16503   */\n      mstore\n        /* \"#utility.yul\":16522:16526   */\n      0x24\n        /* \"#utility.yul\":16519:16520   */\n      0x00\n        /* \"#utility.yul\":16512:16527   */\n      revert\n        /* \"#utility.yul\":16539:16719   */\n    tag_401:\n        /* \"#utility.yul\":16587:16664   */\n      0x4e487b7100000000000000000000000000000000000000000000000000000000\n        /* \"#utility.yul\":16584:16585   */\n      0x00\n        /* \"#utility.yul\":16577:16665   */\n      mstore\n        /* \"#utility.yul\":16684:16688   */\n      0x41\n        /* \"#utility.yul\":16681:16682   */\n      0x04\n        /* \"#utility.yul\":16674:16689   */\n      mstore\n        /* \"#utility.yul\":16708:16712   */\n      0x24\n        /* \"#utility.yul\":16705:16706   */\n      0x00\n        /* \"#utility.yul\":16698:16713   */\n      revert\n        /* \"#utility.yul\":16725:16842   */\n    tag_267:\n        /* \"#utility.yul\":16834:16835   */\n      0x00\n        /* \"#utility.yul\":16831:16832   */\n      dup1\n        /* \"#utility.yul\":16824:16836   */\n      revert\n        /* \"#utility.yul\":16848:16965   */\n    tag_256:\n        /* \"#utility.yul\":16957:16958   */\n      0x00\n        /* \"#utility.yul\":16954:16955   */\n      dup1\n        /* \"#utility.yul\":16947:16959   */\n      revert\n        /* \"#utility.yul\":16971:17088   */\n    tag_283:\n        /* \"#utility.yul\":17080:17081   */\n      0x00\n        /* \"#utility.yul\":17077:17078   */\n      dup1\n        /* \"#utility.yul\":17070:17082   */\n      revert\n        /* \"#utility.yul\":17094:17211   */\n    tag_276:\n        /* \"#utility.yul\":17203:17204   */\n      0x00\n        /* \"#utility.yul\":17200:17201   */\n      dup1\n        /* \"#utility.yul\":17193:17205   */\n      revert\n        /* \"#utility.yul\":17217:17319   */\n    tag_348:\n        /* \"#utility.yul\":17258:17264   */\n      0x00\n        /* \"#utility.yul\":17309:17311   */\n      0x1f\n        /* \"#utility.yul\":17305:17312   */\n      not\n        /* \"#utility.yul\":17300:17302   */\n      0x1f\n        /* \"#utility.yul\":17293:17298   */\n      dup4\n        /* \"#utility.yul\":17289:17303   */\n      add\n        /* \"#utility.yul\":17285:17313   */\n      and\n        /* \"#utility.yul\":17275:17313   */\n      swap1\n      pop\n        /* \"#utility.yul\":17217:17319   */\n      swap2\n      swap1\n      pop\n      jump\t// out\n        /* \"#utility.yul\":17325:17447   */\n    tag_262:\n        /* \"#utility.yul\":17398:17422   */\n      tag_462\n        /* \"#utility.yul\":17416:17421   */\n      dup2\n        /* \"#utility.yul\":17398:17422   */\n      tag_317\n      jump\t// in\n    tag_462:\n        /* \"#utility.yul\":17391:17396   */\n      dup2\n        /* \"#utility.yul\":17388:17423   */\n      eq\n        /* \"#utility.yul\":17378:17441   */\n      tag_463\n      jumpi\n        /* \"#utility.yul\":17437:17438   */\n      0x00\n        /* \"#utility.yul\":17434:17435   */\n      dup1\n        /* \"#utility.yul\":17427:17439   */\n      revert\n        /* \"#utility.yul\":17378:17441   */\n    tag_463:\n        /* \"#utility.yul\":17325:17447   */\n      pop\n      jump\t// out\n        /* \"#utility.yul\":17453:17575   */\n    tag_272:\n        /* \"#utility.yul\":17526:17550   */\n      tag_465\n        /* \"#utility.yul\":17544:17549   */\n      dup2\n        /* \"#utility.yul\":17526:17550   */\n      tag_368\n      jump\t// in\n    tag_465:\n        /* \"#utility.yul\":17519:17524   */\n      dup2\n        /* \"#utility.yul\":17516:17551   */\n      eq\n        /* \"#utility.yul\":17506:17569   */\n      tag_466\n      jumpi\n        /* \"#utility.yul\":17565:17566   */\n      0x00\n        /* \"#utility.yul\":17562:17563   */\n      dup1\n        /* \"#utility.yul\":17555:17567   */\n      revert\n        /* \"#utility.yul\":17506:17569   */\n    tag_466:\n        /* \"#utility.yul\":17453:17575   */\n      pop\n      jump\t// out\n\n    auxdata: 0xa264697066735822122052dba3470b20e581836c49c08051f9dd6211f046ffc1881efc0734de40b0a66864736f6c63430008070033\n}\n",
				"bytecode": {
					"linkReferences": {},
					"object": "608060405234801561001057600080fd5b506122c7806100206000396000f3fe608060405234801561001057600080fd5b506004361061009e5760003560e01c8063904cc17511610066578063904cc1751461015e578063ac8b13001461018e578063b11bead4146101aa578063bb29998e146101da578063f8a02d841461020b5761009e565b8063377e6ff7146100a35780635102bc9d146100d3578063575b70d0146100ef57806369ba1a751461010b57806380c9419e14610127575b600080fd5b6100bd60048036038101906100b891906119a5565b61023b565b6040516100ca9190611da0565b60405180910390f35b6100ed60048036038101906100e89190611ab7565b61044a565b005b61010960048036038101906101049190611b13565b610493565b005b61012560048036038101906101209190611a8a565b61085a565b005b610141600480360381019061013c9190611a8a565b610de4565b604051610155989796959493929190611df8565b60405180910390f35b61017860048036038101906101739190611a8a565b610f04565b6040516101859190611da0565b60405180910390f35b6101a860048036038101906101a39190611a1b565b6112c1565b005b6101c460048036038101906101bf91906119a5565b6116bd565b6040516101d19190611dc2565b60405180910390f35b6101f460048036038101906101ef91906119a5565b6116f5565b604051610202929190611d77565b60405180910390f35b610225600480360381019061022091906119d2565b611703565b6040516102329190611ddd565b60405180910390f35b6060600360008373ffffffffffffffffffffffffffffffffffffffff1673ffffffffffffffffffffffffffffffffffffffff168152602001908152602001600020805480602002602001604051908101604052809291908181526020016000905b8282101561043f578382906000526020600020906008020160405180610100016040529081600082015481526020016001820180546102da906120a7565b80601f0160208091040260200160405190810160405280929190818152602001828054610306906120a7565b80156103535780601f1061032857610100808354040283529160200191610353565b820191906000526020600020905b81548152906001019060200180831161033657829003601f168201915b50505050508152602001600282015481526020016003820160009054906101000a900473ffffffffffffffffffffffffffffffffffffffff1673ffffffffffffffffffffffffffffffffffffffff1673ffffffffffffffffffffffffffffffffffffffff1681526020016004820160009054906101000a900473ffffffffffffffffffffffffffffffffffffffff1673ffffffffffffffffffffffffffffffffffffffff1673ffffffffffffffffffffffffffffffffffffffff16815260200160058201548152602001600682015481526020016007820154815250508152602001906001019061029c565b505050509050919050565b80600180846104599190611fe9565b8154811061046a576104696121e0565b5b9060005260206000209060080201600101908051906020019061048e92919061179b565b505050565b60007fb8a00d6d8ca1be30bfec34d8f97e55f0f0fd9eeb7fb46e030516363d4cfe1ad6826040516104c49190611d5c565b60405180910390a160005b6004600086815260200190815260200160002080549050811015610629577fb8a00d6d8ca1be30bfec34d8f97e55f0f0fd9eeb7fb46e030516363d4cfe1ad66004600060018861051f9190611fe9565b8152602001908152602001600020828154811061053f5761053e6121e0565b5b9060005260206000200160009054906101000a900473ffffffffffffffffffffffffffffffffffffffff166040516105779190611d5c565b60405180910390a18273ffffffffffffffffffffffffffffffffffffffff16600460006001886105a79190611fe9565b815260200190815260200160002082815481106105c7576105c66121e0565b5b9060005260206000200160009054906101000a900473ffffffffffffffffffffffffffffffffffffffff1673ffffffffffffffffffffffffffffffffffffffff16146106165760019150610629565b80806106219061210a565b9150506104cf565b50801561067d576001806001866106409190611fe9565b81548110610651576106506121e0565b5b906000526020600020906008020160050160008282546106719190611f39565b925050819055506106c6565b600a6001808661068d9190611fe9565b8154811061069e5761069d6121e0565b5b906000526020600020906008020160050160008282546106be9190611f39565b925050819055505b600460006001866106d79190611fe9565b8152602001908152602001600020829080600181540180825580915050600190039060005260206000200160009091909190916101000a81548173ffffffffffffffffffffffffffffffffffffffff021916908373ffffffffffffffffffffffffffffffffffffffff16021790555082600180866107559190611fe9565b81548110610766576107656121e0565b5b9060005260206000209060080201600701546107829190611f39565b600180866107909190611fe9565b815481106107a1576107a06121e0565b5b906000526020600020906008020160070181905550600180856107c49190611fe9565b815481106107d5576107d46121e0565b5b906000526020600020906008020160060154600180866107f59190611fe9565b81548110610806576108056121e0565b5b906000526020600020906008020160070154106108545760026001808661082d9190611fe9565b8154811061083e5761083d6121e0565b5b9060005260206000209060080201600201819055505b50505050565b60036001808361086a9190611fe9565b8154811061087b5761087a6121e0565b5b906000526020600020906008020160020181905550600160026000600181526020019081526020016000208054905014156109785760026000600181526020019081526020016000208054806108d4576108d36121b1565b5b60019003818190600052602060002090600802016000808201600090556001820160006109019190611821565b60028201600090556003820160006101000a81549073ffffffffffffffffffffffffffffffffffffffff02191690556004820160006101000a81549073ffffffffffffffffffffffffffffffffffffffff021916905560058201600090556006820160009055600782016000905550509055610c55565b60005b600160026000600181526020019081526020016000208054905061099f9190611fe9565b811015610b905781600260006001815260200190815260200160002082815481106109cd576109cc6121e0565b5b9060005260206000209060080201600001541415610b7d576002600060018152602001908152602001600020600182610a069190611f39565b81548110610a1757610a166121e0565b5b906000526020600020906008020160026000600181526020019081526020016000208281548110610a4b57610a4a6121e0565b5b9060005260206000209060080201600082015481600001556001820181600101908054610a77906120a7565b610a82929190611861565b50600282015481600201556003820160009054906101000a900473ffffffffffffffffffffffffffffffffffffffff168160030160006101000a81548173ffffffffffffffffffffffffffffffffffffffff021916908373ffffffffffffffffffffffffffffffffffffffff1602179055506004820160009054906101000a900473ffffffffffffffffffffffffffffffffffffffff168160040160006101000a81548173ffffffffffffffffffffffffffffffffffffffff021916908373ffffffffffffffffffffffffffffffffffffffff1602179055506005820154816005015560068201548160060155600782015481600701559050505b8080610b889061210a565b91505061097b565b506002600060018152602001908152602001600020805480610bb557610bb46121b1565b5b6001900381819060005260206000209060080201600080820160009055600182016000610be29190611821565b60028201600090556003820160006101000a81549073ffffffffffffffffffffffffffffffffffffffff02191690556004820160006101000a81549073ffffffffffffffffffffffffffffffffffffffff0219169055600582016000905560068201600090556007820160009055505090555b600260006003815260200190815260200160002060018083610c779190611fe9565b81548110610c8857610c876121e0565b5b90600052602060002090600802019080600181540180825580915050600190039060005260206000209060080201600090919091909150600082015481600001556001820181600101908054610cdd906120a7565b610ce8929190611861565b50600282015481600201556003820160009054906101000a900473ffffffffffffffffffffffffffffffffffffffff168160030160006101000a81548173ffffffffffffffffffffffffffffffffffffffff021916908373ffffffffffffffffffffffffffffffffffffffff1602179055506004820160009054906101000a900473ffffffffffffffffffffffffffffffffffffffff168160040160006101000a81548173ffffffffffffffffffffffffffffffffffffffff021916908373ffffffffffffffffffffffffffffffffffffffff160217905550600582015481600501556006820154816006015560078201548160070155505050565b60018181548110610df457600080fd5b9060005260206000209060080201600091509050806000015490806001018054610e1d906120a7565b80601f0160208091040260200160405190810160405280929190818152602001828054610e49906120a7565b8015610e965780601f10610e6b57610100808354040283529160200191610e96565b820191906000526020600020905b815481529060010190602001808311610e7957829003601f168201915b5050505050908060020154908060030160009054906101000a900473ffffffffffffffffffffffffffffffffffffffff16908060040160009054906101000a900473ffffffffffffffffffffffffffffffffffffffff16908060050154908060060154908060070154905088565b606060008214156110df576001805480602002602001604051908101604052809291908181526020016000905b828210156110d457838290600052602060002090600802016040518061010001604052908160008201548152602001600182018054610f6f906120a7565b80601f0160208091040260200160405190810160405280929190818152602001828054610f9b906120a7565b8015610fe85780601f10610fbd57610100808354040283529160200191610fe8565b820191906000526020600020905b815481529060010190602001808311610fcb57829003601f168201915b50505050508152602001600282015481526020016003820160009054906101000a900473ffffffffffffffffffffffffffffffffffffffff1673ffffffffffffffffffffffffffffffffffffffff1673ffffffffffffffffffffffffffffffffffffffff1681526020016004820160009054906101000a900473ffffffffffffffffffffffffffffffffffffffff1673ffffffffffffffffffffffffffffffffffffffff1673ffffffffffffffffffffffffffffffffffffffff168152602001600582015481526020016006820154815260200160078201548152505081526020019060010190610f31565b5050505090506112bc565b60026000838152602001908152602001600020805480602002602001604051908101604052809291908181526020016000905b828210156112b557838290600052602060002090600802016040518061010001604052908160008201548152602001600182018054611150906120a7565b80601f016020809104026020016040519081016040528092919081815260200182805461117c906120a7565b80156111c95780601f1061119e576101008083540402835291602001916111c9565b820191906000526020600020905b8154815290600101906020018083116111ac57829003601f168201915b50505050508152602001600282015481526020016003820160009054906101000a900473ffffffffffffffffffffffffffffffffffffffff1673ffffffffffffffffffffffffffffffffffffffff1673ffffffffffffffffffffffffffffffffffffffff1681526020016004820160009054906101000a900473ffffffffffffffffffffffffffffffffffffffff1673ffffffffffffffffffffffffffffffffffffffff1673ffffffffffffffffffffffffffffffffffffffff168152602001600582015481526020016006820154815260200160078201548152505081526020019060010190611112565b5050505090505b919050565b6000808154809291906112d39061210a565b919050555060006040518061010001604052806000548152602001858152602001600181526020013373ffffffffffffffffffffffffffffffffffffffff1681526020018473ffffffffffffffffffffffffffffffffffffffff1681526020016000815260200183815260200160008152509050600181908060018154018082558091505060019003906000526020600020906008020160009091909190915060008201518160000155602082015181600101908051906020019061139992919061179b565b506040820151816002015560608201518160030160006101000a81548173ffffffffffffffffffffffffffffffffffffffff021916908373ffffffffffffffffffffffffffffffffffffffff16021790555060808201518160040160006101000a81548173ffffffffffffffffffffffffffffffffffffffff021916908373ffffffffffffffffffffffffffffffffffffffff16021790555060a0820151816005015560c0820151816006015560e08201518160070155505060026000600181526020019081526020016000208190806001815401808255809150506001900390600052602060002090600802016000909190919091506000820151816000015560208201518160010190805190602001906114b692919061179b565b506040820151816002015560608201518160030160006101000a81548173ffffffffffffffffffffffffffffffffffffffff021916908373ffffffffffffffffffffffffffffffffffffffff16021790555060808201518160040160006101000a81548173ffffffffffffffffffffffffffffffffffffffff021916908373ffffffffffffffffffffffffffffffffffffffff16021790555060a0820151816005015560c0820151816006015560e082015181600701555050600360003373ffffffffffffffffffffffffffffffffffffffff1673ffffffffffffffffffffffffffffffffffffffff1681526020019081526020016000208190806001815401808255809150506001900390600052602060002090600802016000909190919091506000820151816000015560208201518160010190805190602001906115fe92919061179b565b506040820151816002015560608201518160030160006101000a81548173ffffffffffffffffffffffffffffffffffffffff021916908373ffffffffffffffffffffffffffffffffffffffff16021790555060808201518160040160006101000a81548173ffffffffffffffffffffffffffffffffffffffff021916908373ffffffffffffffffffffffffffffffffffffffff16021790555060a0820151816005015560c0820151816006015560e08201518160070155505050505050565b60003373ffffffffffffffffffffffffffffffffffffffff168273ffffffffffffffffffffffffffffffffffffffff16149050919050565b600080823391509150915091565b6000808290506000805b825181101561179057600083828151811061172b5761172a6121e0565b5b602001015160f81c60f81b60f81c60ff16905060308110158015611750575060398111155b1561177c576030816117629190611fe9565b600a8461176f9190611f8f565b6117799190611f39565b92505b5080806117889061210a565b91505061170d565b508092505050919050565b8280546117a7906120a7565b90600052602060002090601f0160209004810192826117c95760008555611810565b82601f106117e257805160ff1916838001178555611810565b82800160010185558215611810579182015b8281111561180f5782518255916020019190600101906117f4565b5b50905061181d91906118ee565b5090565b50805461182d906120a7565b6000825580601f1061183f575061185e565b601f01602090049060005260206000209081019061185d91906118ee565b5b50565b82805461186d906120a7565b90600052602060002090601f01602090048101928261188f57600085556118dd565b82601f106118a057805485556118dd565b828001600101855582156118dd57600052602060002091601f016020900482015b828111156118dc5782548255916001019190600101906118c1565b5b5090506118ea91906118ee565b5090565b5b808211156119075760008160009055506001016118ef565b5090565b600061191e61191984611ea2565b611e7d565b90508281526020810184848401111561193a57611939612243565b5b611945848285612065565b509392505050565b60008135905061195c81612263565b92915050565b600082601f8301126119775761197661223e565b5b813561198784826020860161190b565b91505092915050565b60008135905061199f8161227a565b92915050565b6000602082840312156119bb576119ba61224d565b5b60006119c98482850161194d565b91505092915050565b6000602082840312156119e8576119e761224d565b5b600082013567ffffffffffffffff811115611a0657611a05612248565b5b611a1284828501611962565b91505092915050565b600080600060608486031215611a3457611a3361224d565b5b600084013567ffffffffffffffff811115611a5257611a51612248565b5b611a5e86828701611962565b9350506020611a6f8682870161194d565b9250506040611a8086828701611990565b9150509250925092565b600060208284031215611aa057611a9f61224d565b5b6000611aae84828501611990565b91505092915050565b60008060408385031215611ace57611acd61224d565b5b6000611adc85828601611990565b925050602083013567ffffffffffffffff811115611afd57611afc612248565b5b611b0985828601611962565b9150509250929050565b600080600060608486031215611b2c57611b2b61224d565b5b6000611b3a86828701611990565b9350506020611b4b86828701611990565b9250506040611b5c8682870161194d565b9150509250925092565b6000611b728383611c8e565b905092915050565b611b838161201d565b82525050565b611b928161201d565b82525050565b6000611ba382611ee3565b611bad8185611f06565b935083602082028501611bbf85611ed3565b8060005b85811015611bfb5784840389528151611bdc8582611b66565b9450611be783611ef9565b925060208a01995050600181019050611bc3565b50829750879550505050505092915050565b611c168161202f565b82525050565b6000611c2782611eee565b611c318185611f17565b9350611c41818560208601612074565b611c4a81612252565b840191505092915050565b6000611c6082611eee565b611c6a8185611f28565b9350611c7a818560208601612074565b611c8381612252565b840191505092915050565b600061010083016000830151611ca76000860182611d3e565b5060208301518482036020860152611cbf8282611c1c565b9150506040830151611cd46040860182611d3e565b506060830151611ce76060860182611b7a565b506080830151611cfa6080860182611b7a565b5060a0830151611d0d60a0860182611d3e565b5060c0830151611d2060c0860182611d3e565b5060e0830151611d3360e0860182611d3e565b508091505092915050565b611d478161205b565b82525050565b611d568161205b565b82525050565b6000602082019050611d716000830184611b89565b92915050565b6000604082019050611d8c6000830185611b89565b611d996020830184611b89565b9392505050565b60006020820190508181036000830152611dba8184611b98565b905092915050565b6000602082019050611dd76000830184611c0d565b92915050565b6000602082019050611df26000830184611d4d565b92915050565b600061010082019050611e0e600083018b611d4d565b8181036020830152611e20818a611c55565b9050611e2f6040830189611d4d565b611e3c6060830188611b89565b611e496080830187611b89565b611e5660a0830186611d4d565b611e6360c0830185611d4d565b611e7060e0830184611d4d565b9998505050505050505050565b6000611e87611e98565b9050611e9382826120d9565b919050565b6000604051905090565b600067ffffffffffffffff821115611ebd57611ebc61220f565b5b611ec682612252565b9050602081019050919050565b6000819050602082019050919050565b600081519050919050565b600081519050919050565b6000602082019050919050565b600082825260208201905092915050565b600082825260208201905092915050565b600082825260208201905092915050565b6000611f448261205b565b9150611f4f8361205b565b9250827fffffffffffffffffffffffffffffffffffffffffffffffffffffffffffffffff03821115611f8457611f83612153565b5b828201905092915050565b6000611f9a8261205b565b9150611fa58361205b565b9250817fffffffffffffffffffffffffffffffffffffffffffffffffffffffffffffffff0483118215151615611fde57611fdd612153565b5b828202905092915050565b6000611ff48261205b565b9150611fff8361205b565b92508282101561201257612011612153565b5b828203905092915050565b60006120288261203b565b9050919050565b60008115159050919050565b600073ffffffffffffffffffffffffffffffffffffffff82169050919050565b6000819050919050565b82818337600083830152505050565b60005b83811015612092578082015181840152602081019050612077565b838111156120a1576000848401525b50505050565b600060028204905060018216806120bf57607f821691505b602082108114156120d3576120d2612182565b5b50919050565b6120e282612252565b810181811067ffffffffffffffff821117156121015761210061220f565b5b80604052505050565b60006121158261205b565b91507fffffffffffffffffffffffffffffffffffffffffffffffffffffffffffffffff82141561214857612147612153565b5b600182019050919050565b7f4e487b7100000000000000000000000000000000000000000000000000000000600052601160045260246000fd5b7f4e487b7100000000000000000000000000000000000000000000000000000000600052602260045260246000fd5b7f4e487b7100000000000000000000000000000000000000000000000000000000600052603160045260246000fd5b7f4e487b7100000000000000000000000000000000000000000000000000000000600052603260045260246000fd5b7f4e487b7100000000000000000000000000000000000000000000000000000000600052604160045260246000fd5b600080fd5b600080fd5b600080fd5b600080fd5b6000601f19601f8301169050919050565b61226c8161201d565b811461227757600080fd5b50565b6122838161205b565b811461228e57600080fd5b5056fea264697066735822122052dba3470b20e581836c49c08051f9dd6211f046ffc1881efc0734de40b0a66864736f6c63430008070033",
					"opcodes": "PUSH1 0x80 PUSH1 0x40 MSTORE CALLVALUE DUP1 ISZERO PUSH2 0x10 JUMPI PUSH1 0x0 DUP1 REVERT JUMPDEST POP PUSH2 0x22C7 DUP1 PUSH2 0x20 PUSH1 0x0 CODECOPY PUSH1 0x0 RETURN INVALID PUSH1 0x80 PUSH1 0x40 MSTORE CALLVALUE DUP1 ISZERO PUSH2 0x10 JUMPI PUSH1 0x0 DUP1 REVERT JUMPDEST POP PUSH1 0x4 CALLDATASIZE LT PUSH2 0x9E JUMPI PUSH1 0x0 CALLDATALOAD PUSH1 0xE0 SHR DUP1 PUSH4 0x904CC175 GT PUSH2 0x66 JUMPI DUP1 PUSH4 0x904CC175 EQ PUSH2 0x15E JUMPI DUP1 PUSH4 0xAC8B1300 EQ PUSH2 0x18E JUMPI DUP1 PUSH4 0xB11BEAD4 EQ PUSH2 0x1AA JUMPI DUP1 PUSH4 0xBB29998E EQ PUSH2 0x1DA JUMPI DUP1 PUSH4 0xF8A02D84 EQ PUSH2 0x20B JUMPI PUSH2 0x9E JUMP JUMPDEST DUP1 PUSH4 0x377E6FF7 EQ PUSH2 0xA3 JUMPI DUP1 PUSH4 0x5102BC9D EQ PUSH2 0xD3 JUMPI DUP1 PUSH4 0x575B70D0 EQ PUSH2 0xEF JUMPI DUP1 PUSH4 0x69BA1A75 EQ PUSH2 0x10B JUMPI DUP1 PUSH4 0x80C9419E EQ PUSH2 0x127 JUMPI JUMPDEST PUSH1 0x0 DUP1 REVERT JUMPDEST PUSH2 0xBD PUSH1 0x4 DUP1 CALLDATASIZE SUB DUP2 ADD SWAP1 PUSH2 0xB8 SWAP2 SWAP1 PUSH2 0x19A5 JUMP JUMPDEST PUSH2 0x23B JUMP JUMPDEST PUSH1 0x40 MLOAD PUSH2 0xCA SWAP2 SWAP1 PUSH2 0x1DA0 JUMP JUMPDEST PUSH1 0x40 MLOAD DUP1 SWAP2 SUB SWAP1 RETURN JUMPDEST PUSH2 0xED PUSH1 0x4 DUP1 CALLDATASIZE SUB DUP2 ADD SWAP1 PUSH2 0xE8 SWAP2 SWAP1 PUSH2 0x1AB7 JUMP JUMPDEST PUSH2 0x44A JUMP JUMPDEST STOP JUMPDEST PUSH2 0x109 PUSH1 0x4 DUP1 CALLDATASIZE SUB DUP2 ADD SWAP1 PUSH2 0x104 SWAP2 SWAP1 PUSH2 0x1B13 JUMP JUMPDEST PUSH2 0x493 JUMP JUMPDEST STOP JUMPDEST PUSH2 0x125 PUSH1 0x4 DUP1 CALLDATASIZE SUB DUP2 ADD SWAP1 PUSH2 0x120 SWAP2 SWAP1 PUSH2 0x1A8A JUMP JUMPDEST PUSH2 0x85A JUMP JUMPDEST STOP JUMPDEST PUSH2 0x141 PUSH1 0x4 DUP1 CALLDATASIZE SUB DUP2 ADD SWAP1 PUSH2 0x13C SWAP2 SWAP1 PUSH2 0x1A8A JUMP JUMPDEST PUSH2 0xDE4 JUMP JUMPDEST PUSH1 0x40 MLOAD PUSH2 0x155 SWAP9 SWAP8 SWAP7 SWAP6 SWAP5 SWAP4 SWAP3 SWAP2 SWAP1 PUSH2 0x1DF8 JUMP JUMPDEST PUSH1 0x40 MLOAD DUP1 SWAP2 SUB SWAP1 RETURN JUMPDEST PUSH2 0x178 PUSH1 0x4 DUP1 CALLDATASIZE SUB DUP2 ADD SWAP1 PUSH2 0x173 SWAP2 SWAP1 PUSH2 0x1A8A JUMP JUMPDEST PUSH2 0xF04 JUMP JUMPDEST PUSH1 0x40 MLOAD PUSH2 0x185 SWAP2 SWAP1 PUSH2 0x1DA0 JUMP JUMPDEST PUSH1 0x40 MLOAD DUP1 SWAP2 SUB SWAP1 RETURN JUMPDEST PUSH2 0x1A8 PUSH1 0x4 DUP1 CALLDATASIZE SUB DUP2 ADD SWAP1 PUSH2 0x1A3 SWAP2 SWAP1 PUSH2 0x1A1B JUMP JUMPDEST PUSH2 0x12C1 JUMP JUMPDEST STOP JUMPDEST PUSH2 0x1C4 PUSH1 0x4 DUP1 CALLDATASIZE SUB DUP2 ADD SWAP1 PUSH2 0x1BF SWAP2 SWAP1 PUSH2 0x19A5 JUMP JUMPDEST PUSH2 0x16BD JUMP JUMPDEST PUSH1 0x40 MLOAD PUSH2 0x1D1 SWAP2 SWAP1 PUSH2 0x1DC2 JUMP JUMPDEST PUSH1 0x40 MLOAD DUP1 SWAP2 SUB SWAP1 RETURN JUMPDEST PUSH2 0x1F4 PUSH1 0x4 DUP1 CALLDATASIZE SUB DUP2 ADD SWAP1 PUSH2 0x1EF SWAP2 SWAP1 PUSH2 0x19A5 JUMP JUMPDEST PUSH2 0x16F5 JUMP JUMPDEST PUSH1 0x40 MLOAD PUSH2 0x202 SWAP3 SWAP2 SWAP1 PUSH2 0x1D77 JUMP JUMPDEST PUSH1 0x40 MLOAD DUP1 SWAP2 SUB SWAP1 RETURN JUMPDEST PUSH2 0x225 PUSH1 0x4 DUP1 CALLDATASIZE SUB DUP2 ADD SWAP1 PUSH2 0x220 SWAP2 SWAP1 PUSH2 0x19D2 JUMP JUMPDEST PUSH2 0x1703 JUMP JUMPDEST PUSH1 0x40 MLOAD PUSH2 0x232 SWAP2 SWAP1 PUSH2 0x1DDD JUMP JUMPDEST PUSH1 0x40 MLOAD DUP1 SWAP2 SUB SWAP1 RETURN JUMPDEST PUSH1 0x60 PUSH1 0x3 PUSH1 0x0 DUP4 PUSH20 0xFFFFFFFFFFFFFFFFFFFFFFFFFFFFFFFFFFFFFFFF AND PUSH20 0xFFFFFFFFFFFFFFFFFFFFFFFFFFFFFFFFFFFFFFFF AND DUP2 MSTORE PUSH1 0x20 ADD SWAP1 DUP2 MSTORE PUSH1 0x20 ADD PUSH1 0x0 KECCAK256 DUP1 SLOAD DUP1 PUSH1 0x20 MUL PUSH1 0x20 ADD PUSH1 0x40 MLOAD SWAP1 DUP2 ADD PUSH1 0x40 MSTORE DUP1 SWAP3 SWAP2 SWAP1 DUP2 DUP2 MSTORE PUSH1 0x20 ADD PUSH1 0x0 SWAP1 JUMPDEST DUP3 DUP3 LT ISZERO PUSH2 0x43F JUMPI DUP4 DUP3 SWAP1 PUSH1 0x0 MSTORE PUSH1 0x20 PUSH1 0x0 KECCAK256 SWAP1 PUSH1 0x8 MUL ADD PUSH1 0x40 MLOAD DUP1 PUSH2 0x100 ADD PUSH1 0x40 MSTORE SWAP1 DUP2 PUSH1 0x0 DUP3 ADD SLOAD DUP2 MSTORE PUSH1 0x20 ADD PUSH1 0x1 DUP3 ADD DUP1 SLOAD PUSH2 0x2DA SWAP1 PUSH2 0x20A7 JUMP JUMPDEST DUP1 PUSH1 0x1F ADD PUSH1 0x20 DUP1 SWAP2 DIV MUL PUSH1 0x20 ADD PUSH1 0x40 MLOAD SWAP1 DUP2 ADD PUSH1 0x40 MSTORE DUP1 SWAP3 SWAP2 SWAP1 DUP2 DUP2 MSTORE PUSH1 0x20 ADD DUP3 DUP1 SLOAD PUSH2 0x306 SWAP1 PUSH2 0x20A7 JUMP JUMPDEST DUP1 ISZERO PUSH2 0x353 JUMPI DUP1 PUSH1 0x1F LT PUSH2 0x328 JUMPI PUSH2 0x100 DUP1 DUP4 SLOAD DIV MUL DUP4 MSTORE SWAP2 PUSH1 0x20 ADD SWAP2 PUSH2 0x353 JUMP JUMPDEST DUP3 ADD SWAP2 SWAP1 PUSH1 0x0 MSTORE PUSH1 0x20 PUSH1 0x0 KECCAK256 SWAP1 JUMPDEST DUP2 SLOAD DUP2 MSTORE SWAP1 PUSH1 0x1 ADD SWAP1 PUSH1 0x20 ADD DUP1 DUP4 GT PUSH2 0x336 JUMPI DUP3 SWAP1 SUB PUSH1 0x1F AND DUP3 ADD SWAP2 JUMPDEST POP POP POP POP POP DUP2 MSTORE PUSH1 0x20 ADD PUSH1 0x2 DUP3 ADD SLOAD DUP2 MSTORE PUSH1 0x20 ADD PUSH1 0x3 DUP3 ADD PUSH1 0x0 SWAP1 SLOAD SWAP1 PUSH2 0x100 EXP SWAP1 DIV PUSH20 0xFFFFFFFFFFFFFFFFFFFFFFFFFFFFFFFFFFFFFFFF AND PUSH20 0xFFFFFFFFFFFFFFFFFFFFFFFFFFFFFFFFFFFFFFFF AND PUSH20 0xFFFFFFFFFFFFFFFFFFFFFFFFFFFFFFFFFFFFFFFF AND DUP2 MSTORE PUSH1 0x20 ADD PUSH1 0x4 DUP3 ADD PUSH1 0x0 SWAP1 SLOAD SWAP1 PUSH2 0x100 EXP SWAP1 DIV PUSH20 0xFFFFFFFFFFFFFFFFFFFFFFFFFFFFFFFFFFFFFFFF AND PUSH20 0xFFFFFFFFFFFFFFFFFFFFFFFFFFFFFFFFFFFFFFFF AND PUSH20 0xFFFFFFFFFFFFFFFFFFFFFFFFFFFFFFFFFFFFFFFF AND DUP2 MSTORE PUSH1 0x20 ADD PUSH1 0x5 DUP3 ADD SLOAD DUP2 MSTORE PUSH1 0x20 ADD PUSH1 0x6 DUP3 ADD SLOAD DUP2 MSTORE PUSH1 0x20 ADD PUSH1 0x7 DUP3 ADD SLOAD DUP2 MSTORE POP POP DUP2 MSTORE PUSH1 0x20 ADD SWAP1 PUSH1 0x1 ADD SWAP1 PUSH2 0x29C JUMP JUMPDEST POP POP POP POP SWAP1 POP SWAP2 SWAP1 POP JUMP JUMPDEST DUP1 PUSH1 0x1 DUP1 DUP5 PUSH2 0x459 SWAP2 SWAP1 PUSH2 0x1FE9 JUMP JUMPDEST DUP2 SLOAD DUP2 LT PUSH2 0x46A JUMPI PUSH2 0x469 PUSH2 0x21E0 JUMP JUMPDEST JUMPDEST SWAP1 PUSH1 0x0 MSTORE PUSH1 0x20 PUSH1 0x0 KECCAK256 SWAP1 PUSH1 0x8 MUL ADD PUSH1 0x1 ADD SWAP1 DUP1 MLOAD SWAP1 PUSH1 0x20 ADD SWAP1 PUSH2 0x48E SWAP3 SWAP2 SWAP1 PUSH2 0x179B JUMP JUMPDEST POP POP POP JUMP JUMPDEST PUSH1 0x0 PUSH32 0xB8A00D6D8CA1BE30BFEC34D8F97E55F0F0FD9EEB7FB46E030516363D4CFE1AD6 DUP3 PUSH1 0x40 MLOAD PUSH2 0x4C4 SWAP2 SWAP1 PUSH2 0x1D5C JUMP JUMPDEST PUSH1 0x40 MLOAD DUP1 SWAP2 SUB SWAP1 LOG1 PUSH1 0x0 JUMPDEST PUSH1 0x4 PUSH1 0x0 DUP7 DUP2 MSTORE PUSH1 0x20 ADD SWAP1 DUP2 MSTORE PUSH1 0x20 ADD PUSH1 0x0 KECCAK256 DUP1 SLOAD SWAP1 POP DUP2 LT ISZERO PUSH2 0x629 JUMPI PUSH32 0xB8A00D6D8CA1BE30BFEC34D8F97E55F0F0FD9EEB7FB46E030516363D4CFE1AD6 PUSH1 0x4 PUSH1 0x0 PUSH1 0x1 DUP9 PUSH2 0x51F SWAP2 SWAP1 PUSH2 0x1FE9 JUMP JUMPDEST DUP2 MSTORE PUSH1 0x20 ADD SWAP1 DUP2 MSTORE PUSH1 0x20 ADD PUSH1 0x0 KECCAK256 DUP3 DUP2 SLOAD DUP2 LT PUSH2 0x53F JUMPI PUSH2 0x53E PUSH2 0x21E0 JUMP JUMPDEST JUMPDEST SWAP1 PUSH1 0x0 MSTORE PUSH1 0x20 PUSH1 0x0 KECCAK256 ADD PUSH1 0x0 SWAP1 SLOAD SWAP1 PUSH2 0x100 EXP SWAP1 DIV PUSH20 0xFFFFFFFFFFFFFFFFFFFFFFFFFFFFFFFFFFFFFFFF AND PUSH1 0x40 MLOAD PUSH2 0x577 SWAP2 SWAP1 PUSH2 0x1D5C JUMP JUMPDEST PUSH1 0x40 MLOAD DUP1 SWAP2 SUB SWAP1 LOG1 DUP3 PUSH20 0xFFFFFFFFFFFFFFFFFFFFFFFFFFFFFFFFFFFFFFFF AND PUSH1 0x4 PUSH1 0x0 PUSH1 0x1 DUP9 PUSH2 0x5A7 SWAP2 SWAP1 PUSH2 0x1FE9 JUMP JUMPDEST DUP2 MSTORE PUSH1 0x20 ADD SWAP1 DUP2 MSTORE PUSH1 0x20 ADD PUSH1 0x0 KECCAK256 DUP3 DUP2 SLOAD DUP2 LT PUSH2 0x5C7 JUMPI PUSH2 0x5C6 PUSH2 0x21E0 JUMP JUMPDEST JUMPDEST SWAP1 PUSH1 0x0 MSTORE PUSH1 0x20 PUSH1 0x0 KECCAK256 ADD PUSH1 0x0 SWAP1 SLOAD SWAP1 PUSH2 0x100 EXP SWAP1 DIV PUSH20 0xFFFFFFFFFFFFFFFFFFFFFFFFFFFFFFFFFFFFFFFF AND PUSH20 0xFFFFFFFFFFFFFFFFFFFFFFFFFFFFFFFFFFFFFFFF AND EQ PUSH2 0x616 JUMPI PUSH1 0x1 SWAP2 POP PUSH2 0x629 JUMP JUMPDEST DUP1 DUP1 PUSH2 0x621 SWAP1 PUSH2 0x210A JUMP JUMPDEST SWAP2 POP POP PUSH2 0x4CF JUMP JUMPDEST POP DUP1 ISZERO PUSH2 0x67D JUMPI PUSH1 0x1 DUP1 PUSH1 0x1 DUP7 PUSH2 0x640 SWAP2 SWAP1 PUSH2 0x1FE9 JUMP JUMPDEST DUP2 SLOAD DUP2 LT PUSH2 0x651 JUMPI PUSH2 0x650 PUSH2 0x21E0 JUMP JUMPDEST JUMPDEST SWAP1 PUSH1 0x0 MSTORE PUSH1 0x20 PUSH1 0x0 KECCAK256 SWAP1 PUSH1 0x8 MUL ADD PUSH1 0x5 ADD PUSH1 0x0 DUP3 DUP3 SLOAD PUSH2 0x671 SWAP2 SWAP1 PUSH2 0x1F39 JUMP JUMPDEST SWAP3 POP POP DUP2 SWAP1 SSTORE POP PUSH2 0x6C6 JUMP JUMPDEST PUSH1 0xA PUSH1 0x1 DUP1 DUP7 PUSH2 0x68D SWAP2 SWAP1 PUSH2 0x1FE9 JUMP JUMPDEST DUP2 SLOAD DUP2 LT PUSH2 0x69E JUMPI PUSH2 0x69D PUSH2 0x21E0 JUMP JUMPDEST JUMPDEST SWAP1 PUSH1 0x0 MSTORE PUSH1 0x20 PUSH1 0x0 KECCAK256 SWAP1 PUSH1 0x8 MUL ADD PUSH1 0x5 ADD PUSH1 0x0 DUP3 DUP3 SLOAD PUSH2 0x6BE SWAP2 SWAP1 PUSH2 0x1F39 JUMP JUMPDEST SWAP3 POP POP DUP2 SWAP1 SSTORE POP JUMPDEST PUSH1 0x4 PUSH1 0x0 PUSH1 0x1 DUP7 PUSH2 0x6D7 SWAP2 SWAP1 PUSH2 0x1FE9 JUMP JUMPDEST DUP2 MSTORE PUSH1 0x20 ADD SWAP1 DUP2 MSTORE PUSH1 0x20 ADD PUSH1 0x0 KECCAK256 DUP3 SWAP1 DUP1 PUSH1 0x1 DUP2 SLOAD ADD DUP1 DUP3 SSTORE DUP1 SWAP2 POP POP PUSH1 0x1 SWAP1 SUB SWAP1 PUSH1 0x0 MSTORE PUSH1 0x20 PUSH1 0x0 KECCAK256 ADD PUSH1 0x0 SWAP1 SWAP2 SWAP1 SWAP2 SWAP1 SWAP2 PUSH2 0x100 EXP DUP2 SLOAD DUP2 PUSH20 0xFFFFFFFFFFFFFFFFFFFFFFFFFFFFFFFFFFFFFFFF MUL NOT AND SWAP1 DUP4 PUSH20 0xFFFFFFFFFFFFFFFFFFFFFFFFFFFFFFFFFFFFFFFF AND MUL OR SWAP1 SSTORE POP DUP3 PUSH1 0x1 DUP1 DUP7 PUSH2 0x755 SWAP2 SWAP1 PUSH2 0x1FE9 JUMP JUMPDEST DUP2 SLOAD DUP2 LT PUSH2 0x766 JUMPI PUSH2 0x765 PUSH2 0x21E0 JUMP JUMPDEST JUMPDEST SWAP1 PUSH1 0x0 MSTORE PUSH1 0x20 PUSH1 0x0 KECCAK256 SWAP1 PUSH1 0x8 MUL ADD PUSH1 0x7 ADD SLOAD PUSH2 0x782 SWAP2 SWAP1 PUSH2 0x1F39 JUMP JUMPDEST PUSH1 0x1 DUP1 DUP7 PUSH2 0x790 SWAP2 SWAP1 PUSH2 0x1FE9 JUMP JUMPDEST DUP2 SLOAD DUP2 LT PUSH2 0x7A1 JUMPI PUSH2 0x7A0 PUSH2 0x21E0 JUMP JUMPDEST JUMPDEST SWAP1 PUSH1 0x0 MSTORE PUSH1 0x20 PUSH1 0x0 KECCAK256 SWAP1 PUSH1 0x8 MUL ADD PUSH1 0x7 ADD DUP2 SWAP1 SSTORE POP PUSH1 0x1 DUP1 DUP6 PUSH2 0x7C4 SWAP2 SWAP1 PUSH2 0x1FE9 JUMP JUMPDEST DUP2 SLOAD DUP2 LT PUSH2 0x7D5 JUMPI PUSH2 0x7D4 PUSH2 0x21E0 JUMP JUMPDEST JUMPDEST SWAP1 PUSH1 0x0 MSTORE PUSH1 0x20 PUSH1 0x0 KECCAK256 SWAP1 PUSH1 0x8 MUL ADD PUSH1 0x6 ADD SLOAD PUSH1 0x1 DUP1 DUP7 PUSH2 0x7F5 SWAP2 SWAP1 PUSH2 0x1FE9 JUMP JUMPDEST DUP2 SLOAD DUP2 LT PUSH2 0x806 JUMPI PUSH2 0x805 PUSH2 0x21E0 JUMP JUMPDEST JUMPDEST SWAP1 PUSH1 0x0 MSTORE PUSH1 0x20 PUSH1 0x0 KECCAK256 SWAP1 PUSH1 0x8 MUL ADD PUSH1 0x7 ADD SLOAD LT PUSH2 0x854 JUMPI PUSH1 0x2 PUSH1 0x1 DUP1 DUP7 PUSH2 0x82D SWAP2 SWAP1 PUSH2 0x1FE9 JUMP JUMPDEST DUP2 SLOAD DUP2 LT PUSH2 0x83E JUMPI PUSH2 0x83D PUSH2 0x21E0 JUMP JUMPDEST JUMPDEST SWAP1 PUSH1 0x0 MSTORE PUSH1 0x20 PUSH1 0x0 KECCAK256 SWAP1 PUSH1 0x8 MUL ADD PUSH1 0x2 ADD DUP2 SWAP1 SSTORE POP JUMPDEST POP POP POP POP JUMP JUMPDEST PUSH1 0x3 PUSH1 0x1 DUP1 DUP4 PUSH2 0x86A SWAP2 SWAP1 PUSH2 0x1FE9 JUMP JUMPDEST DUP2 SLOAD DUP2 LT PUSH2 0x87B JUMPI PUSH2 0x87A PUSH2 0x21E0 JUMP JUMPDEST JUMPDEST SWAP1 PUSH1 0x0 MSTORE PUSH1 0x20 PUSH1 0x0 KECCAK256 SWAP1 PUSH1 0x8 MUL ADD PUSH1 0x2 ADD DUP2 SWAP1 SSTORE POP PUSH1 0x1 PUSH1 0x2 PUSH1 0x0 PUSH1 0x1 DUP2 MSTORE PUSH1 0x20 ADD SWAP1 DUP2 MSTORE PUSH1 0x20 ADD PUSH1 0x0 KECCAK256 DUP1 SLOAD SWAP1 POP EQ ISZERO PUSH2 0x978 JUMPI PUSH1 0x2 PUSH1 0x0 PUSH1 0x1 DUP2 MSTORE PUSH1 0x20 ADD SWAP1 DUP2 MSTORE PUSH1 0x20 ADD PUSH1 0x0 KECCAK256 DUP1 SLOAD DUP1 PUSH2 0x8D4 JUMPI PUSH2 0x8D3 PUSH2 0x21B1 JUMP JUMPDEST JUMPDEST PUSH1 0x1 SWAP1 SUB DUP2 DUP2 SWAP1 PUSH1 0x0 MSTORE PUSH1 0x20 PUSH1 0x0 KECCAK256 SWAP1 PUSH1 0x8 MUL ADD PUSH1 0x0 DUP1 DUP3 ADD PUSH1 0x0 SWAP1 SSTORE PUSH1 0x1 DUP3 ADD PUSH1 0x0 PUSH2 0x901 SWAP2 SWAP1 PUSH2 0x1821 JUMP JUMPDEST PUSH1 0x2 DUP3 ADD PUSH1 0x0 SWAP1 SSTORE PUSH1 0x3 DUP3 ADD PUSH1 0x0 PUSH2 0x100 EXP DUP2 SLOAD SWAP1 PUSH20 0xFFFFFFFFFFFFFFFFFFFFFFFFFFFFFFFFFFFFFFFF MUL NOT AND SWAP1 SSTORE PUSH1 0x4 DUP3 ADD PUSH1 0x0 PUSH2 0x100 EXP DUP2 SLOAD SWAP1 PUSH20 0xFFFFFFFFFFFFFFFFFFFFFFFFFFFFFFFFFFFFFFFF MUL NOT AND SWAP1 SSTORE PUSH1 0x5 DUP3 ADD PUSH1 0x0 SWAP1 SSTORE PUSH1 0x6 DUP3 ADD PUSH1 0x0 SWAP1 SSTORE PUSH1 0x7 DUP3 ADD PUSH1 0x0 SWAP1 SSTORE POP POP SWAP1 SSTORE PUSH2 0xC55 JUMP JUMPDEST PUSH1 0x0 JUMPDEST PUSH1 0x1 PUSH1 0x2 PUSH1 0x0 PUSH1 0x1 DUP2 MSTORE PUSH1 0x20 ADD SWAP1 DUP2 MSTORE PUSH1 0x20 ADD PUSH1 0x0 KECCAK256 DUP1 SLOAD SWAP1 POP PUSH2 0x99F SWAP2 SWAP1 PUSH2 0x1FE9 JUMP JUMPDEST DUP2 LT ISZERO PUSH2 0xB90 JUMPI DUP2 PUSH1 0x2 PUSH1 0x0 PUSH1 0x1 DUP2 MSTORE PUSH1 0x20 ADD SWAP1 DUP2 MSTORE PUSH1 0x20 ADD PUSH1 0x0 KECCAK256 DUP3 DUP2 SLOAD DUP2 LT PUSH2 0x9CD JUMPI PUSH2 0x9CC PUSH2 0x21E0 JUMP JUMPDEST JUMPDEST SWAP1 PUSH1 0x0 MSTORE PUSH1 0x20 PUSH1 0x0 KECCAK256 SWAP1 PUSH1 0x8 MUL ADD PUSH1 0x0 ADD SLOAD EQ ISZERO PUSH2 0xB7D JUMPI PUSH1 0x2 PUSH1 0x0 PUSH1 0x1 DUP2 MSTORE PUSH1 0x20 ADD SWAP1 DUP2 MSTORE PUSH1 0x20 ADD PUSH1 0x0 KECCAK256 PUSH1 0x1 DUP3 PUSH2 0xA06 SWAP2 SWAP1 PUSH2 0x1F39 JUMP JUMPDEST DUP2 SLOAD DUP2 LT PUSH2 0xA17 JUMPI PUSH2 0xA16 PUSH2 0x21E0 JUMP JUMPDEST JUMPDEST SWAP1 PUSH1 0x0 MSTORE PUSH1 0x20 PUSH1 0x0 KECCAK256 SWAP1 PUSH1 0x8 MUL ADD PUSH1 0x2 PUSH1 0x0 PUSH1 0x1 DUP2 MSTORE PUSH1 0x20 ADD SWAP1 DUP2 MSTORE PUSH1 0x20 ADD PUSH1 0x0 KECCAK256 DUP3 DUP2 SLOAD DUP2 LT PUSH2 0xA4B JUMPI PUSH2 0xA4A PUSH2 0x21E0 JUMP JUMPDEST JUMPDEST SWAP1 PUSH1 0x0 MSTORE PUSH1 0x20 PUSH1 0x0 KECCAK256 SWAP1 PUSH1 0x8 MUL ADD PUSH1 0x0 DUP3 ADD SLOAD DUP2 PUSH1 0x0 ADD SSTORE PUSH1 0x1 DUP3 ADD DUP2 PUSH1 0x1 ADD SWAP1 DUP1 SLOAD PUSH2 0xA77 SWAP1 PUSH2 0x20A7 JUMP JUMPDEST PUSH2 0xA82 SWAP3 SWAP2 SWAP1 PUSH2 0x1861 JUMP JUMPDEST POP PUSH1 0x2 DUP3 ADD SLOAD DUP2 PUSH1 0x2 ADD SSTORE PUSH1 0x3 DUP3 ADD PUSH1 0x0 SWAP1 SLOAD SWAP1 PUSH2 0x100 EXP SWAP1 DIV PUSH20 0xFFFFFFFFFFFFFFFFFFFFFFFFFFFFFFFFFFFFFFFF AND DUP2 PUSH1 0x3 ADD PUSH1 0x0 PUSH2 0x100 EXP DUP2 SLOAD DUP2 PUSH20 0xFFFFFFFFFFFFFFFFFFFFFFFFFFFFFFFFFFFFFFFF MUL NOT AND SWAP1 DUP4 PUSH20 0xFFFFFFFFFFFFFFFFFFFFFFFFFFFFFFFFFFFFFFFF AND MUL OR SWAP1 SSTORE POP PUSH1 0x4 DUP3 ADD PUSH1 0x0 SWAP1 SLOAD SWAP1 PUSH2 0x100 EXP SWAP1 DIV PUSH20 0xFFFFFFFFFFFFFFFFFFFFFFFFFFFFFFFFFFFFFFFF AND DUP2 PUSH1 0x4 ADD PUSH1 0x0 PUSH2 0x100 EXP DUP2 SLOAD DUP2 PUSH20 0xFFFFFFFFFFFFFFFFFFFFFFFFFFFFFFFFFFFFFFFF MUL NOT AND SWAP1 DUP4 PUSH20 0xFFFFFFFFFFFFFFFFFFFFFFFFFFFFFFFFFFFFFFFF AND MUL OR SWAP1 SSTORE POP PUSH1 0x5 DUP3 ADD SLOAD DUP2 PUSH1 0x5 ADD SSTORE PUSH1 0x6 DUP3 ADD SLOAD DUP2 PUSH1 0x6 ADD SSTORE PUSH1 0x7 DUP3 ADD SLOAD DUP2 PUSH1 0x7 ADD SSTORE SWAP1 POP POP JUMPDEST DUP1 DUP1 PUSH2 0xB88 SWAP1 PUSH2 0x210A JUMP JUMPDEST SWAP2 POP POP PUSH2 0x97B JUMP JUMPDEST POP PUSH1 0x2 PUSH1 0x0 PUSH1 0x1 DUP2 MSTORE PUSH1 0x20 ADD SWAP1 DUP2 MSTORE PUSH1 0x20 ADD PUSH1 0x0 KECCAK256 DUP1 SLOAD DUP1 PUSH2 0xBB5 JUMPI PUSH2 0xBB4 PUSH2 0x21B1 JUMP JUMPDEST JUMPDEST PUSH1 0x1 SWAP1 SUB DUP2 DUP2 SWAP1 PUSH1 0x0 MSTORE PUSH1 0x20 PUSH1 0x0 KECCAK256 SWAP1 PUSH1 0x8 MUL ADD PUSH1 0x0 DUP1 DUP3 ADD PUSH1 0x0 SWAP1 SSTORE PUSH1 0x1 DUP3 ADD PUSH1 0x0 PUSH2 0xBE2 SWAP2 SWAP1 PUSH2 0x1821 JUMP JUMPDEST PUSH1 0x2 DUP3 ADD PUSH1 0x0 SWAP1 SSTORE PUSH1 0x3 DUP3 ADD PUSH1 0x0 PUSH2 0x100 EXP DUP2 SLOAD SWAP1 PUSH20 0xFFFFFFFFFFFFFFFFFFFFFFFFFFFFFFFFFFFFFFFF MUL NOT AND SWAP1 SSTORE PUSH1 0x4 DUP3 ADD PUSH1 0x0 PUSH2 0x100 EXP DUP2 SLOAD SWAP1 PUSH20 0xFFFFFFFFFFFFFFFFFFFFFFFFFFFFFFFFFFFFFFFF MUL NOT AND SWAP1 SSTORE PUSH1 0x5 DUP3 ADD PUSH1 0x0 SWAP1 SSTORE PUSH1 0x6 DUP3 ADD PUSH1 0x0 SWAP1 SSTORE PUSH1 0x7 DUP3 ADD PUSH1 0x0 SWAP1 SSTORE POP POP SWAP1 SSTORE JUMPDEST PUSH1 0x2 PUSH1 0x0 PUSH1 0x3 DUP2 MSTORE PUSH1 0x20 ADD SWAP1 DUP2 MSTORE PUSH1 0x20 ADD PUSH1 0x0 KECCAK256 PUSH1 0x1 DUP1 DUP4 PUSH2 0xC77 SWAP2 SWAP1 PUSH2 0x1FE9 JUMP JUMPDEST DUP2 SLOAD DUP2 LT PUSH2 0xC88 JUMPI PUSH2 0xC87 PUSH2 0x21E0 JUMP JUMPDEST JUMPDEST SWAP1 PUSH1 0x0 MSTORE PUSH1 0x20 PUSH1 0x0 KECCAK256 SWAP1 PUSH1 0x8 MUL ADD SWAP1 DUP1 PUSH1 0x1 DUP2 SLOAD ADD DUP1 DUP3 SSTORE DUP1 SWAP2 POP POP PUSH1 0x1 SWAP1 SUB SWAP1 PUSH1 0x0 MSTORE PUSH1 0x20 PUSH1 0x0 KECCAK256 SWAP1 PUSH1 0x8 MUL ADD PUSH1 0x0 SWAP1 SWAP2 SWAP1 SWAP2 SWAP1 SWAP2 POP PUSH1 0x0 DUP3 ADD SLOAD DUP2 PUSH1 0x0 ADD SSTORE PUSH1 0x1 DUP3 ADD DUP2 PUSH1 0x1 ADD SWAP1 DUP1 SLOAD PUSH2 0xCDD SWAP1 PUSH2 0x20A7 JUMP JUMPDEST PUSH2 0xCE8 SWAP3 SWAP2 SWAP1 PUSH2 0x1861 JUMP JUMPDEST POP PUSH1 0x2 DUP3 ADD SLOAD DUP2 PUSH1 0x2 ADD SSTORE PUSH1 0x3 DUP3 ADD PUSH1 0x0 SWAP1 SLOAD SWAP1 PUSH2 0x100 EXP SWAP1 DIV PUSH20 0xFFFFFFFFFFFFFFFFFFFFFFFFFFFFFFFFFFFFFFFF AND DUP2 PUSH1 0x3 ADD PUSH1 0x0 PUSH2 0x100 EXP DUP2 SLOAD DUP2 PUSH20 0xFFFFFFFFFFFFFFFFFFFFFFFFFFFFFFFFFFFFFFFF MUL NOT AND SWAP1 DUP4 PUSH20 0xFFFFFFFFFFFFFFFFFFFFFFFFFFFFFFFFFFFFFFFF AND MUL OR SWAP1 SSTORE POP PUSH1 0x4 DUP3 ADD PUSH1 0x0 SWAP1 SLOAD SWAP1 PUSH2 0x100 EXP SWAP1 DIV PUSH20 0xFFFFFFFFFFFFFFFFFFFFFFFFFFFFFFFFFFFFFFFF AND DUP2 PUSH1 0x4 ADD PUSH1 0x0 PUSH2 0x100 EXP DUP2 SLOAD DUP2 PUSH20 0xFFFFFFFFFFFFFFFFFFFFFFFFFFFFFFFFFFFFFFFF MUL NOT AND SWAP1 DUP4 PUSH20 0xFFFFFFFFFFFFFFFFFFFFFFFFFFFFFFFFFFFFFFFF AND MUL OR SWAP1 SSTORE POP PUSH1 0x5 DUP3 ADD SLOAD DUP2 PUSH1 0x5 ADD SSTORE PUSH1 0x6 DUP3 ADD SLOAD DUP2 PUSH1 0x6 ADD SSTORE PUSH1 0x7 DUP3 ADD SLOAD DUP2 PUSH1 0x7 ADD SSTORE POP POP POP JUMP JUMPDEST PUSH1 0x1 DUP2 DUP2 SLOAD DUP2 LT PUSH2 0xDF4 JUMPI PUSH1 0x0 DUP1 REVERT JUMPDEST SWAP1 PUSH1 0x0 MSTORE PUSH1 0x20 PUSH1 0x0 KECCAK256 SWAP1 PUSH1 0x8 MUL ADD PUSH1 0x0 SWAP2 POP SWAP1 POP DUP1 PUSH1 0x0 ADD SLOAD SWAP1 DUP1 PUSH1 0x1 ADD DUP1 SLOAD PUSH2 0xE1D SWAP1 PUSH2 0x20A7 JUMP JUMPDEST DUP1 PUSH1 0x1F ADD PUSH1 0x20 DUP1 SWAP2 DIV MUL PUSH1 0x20 ADD PUSH1 0x40 MLOAD SWAP1 DUP2 ADD PUSH1 0x40 MSTORE DUP1 SWAP3 SWAP2 SWAP1 DUP2 DUP2 MSTORE PUSH1 0x20 ADD DUP3 DUP1 SLOAD PUSH2 0xE49 SWAP1 PUSH2 0x20A7 JUMP JUMPDEST DUP1 ISZERO PUSH2 0xE96 JUMPI DUP1 PUSH1 0x1F LT PUSH2 0xE6B JUMPI PUSH2 0x100 DUP1 DUP4 SLOAD DIV MUL DUP4 MSTORE SWAP2 PUSH1 0x20 ADD SWAP2 PUSH2 0xE96 JUMP JUMPDEST DUP3 ADD SWAP2 SWAP1 PUSH1 0x0 MSTORE PUSH1 0x20 PUSH1 0x0 KECCAK256 SWAP1 JUMPDEST DUP2 SLOAD DUP2 MSTORE SWAP1 PUSH1 0x1 ADD SWAP1 PUSH1 0x20 ADD DUP1 DUP4 GT PUSH2 0xE79 JUMPI DUP3 SWAP1 SUB PUSH1 0x1F AND DUP3 ADD SWAP2 JUMPDEST POP POP POP POP POP SWAP1 DUP1 PUSH1 0x2 ADD SLOAD SWAP1 DUP1 PUSH1 0x3 ADD PUSH1 0x0 SWAP1 SLOAD SWAP1 PUSH2 0x100 EXP SWAP1 DIV PUSH20 0xFFFFFFFFFFFFFFFFFFFFFFFFFFFFFFFFFFFFFFFF AND SWAP1 DUP1 PUSH1 0x4 ADD PUSH1 0x0 SWAP1 SLOAD SWAP1 PUSH2 0x100 EXP SWAP1 DIV PUSH20 0xFFFFFFFFFFFFFFFFFFFFFFFFFFFFFFFFFFFFFFFF AND SWAP1 DUP1 PUSH1 0x5 ADD SLOAD SWAP1 DUP1 PUSH1 0x6 ADD SLOAD SWAP1 DUP1 PUSH1 0x7 ADD SLOAD SWAP1 POP DUP9 JUMP JUMPDEST PUSH1 0x60 PUSH1 0x0 DUP3 EQ ISZERO PUSH2 0x10DF JUMPI PUSH1 0x1 DUP1 SLOAD DUP1 PUSH1 0x20 MUL PUSH1 0x20 ADD PUSH1 0x40 MLOAD SWAP1 DUP2 ADD PUSH1 0x40 MSTORE DUP1 SWAP3 SWAP2 SWAP1 DUP2 DUP2 MSTORE PUSH1 0x20 ADD PUSH1 0x0 SWAP1 JUMPDEST DUP3 DUP3 LT ISZERO PUSH2 0x10D4 JUMPI DUP4 DUP3 SWAP1 PUSH1 0x0 MSTORE PUSH1 0x20 PUSH1 0x0 KECCAK256 SWAP1 PUSH1 0x8 MUL ADD PUSH1 0x40 MLOAD DUP1 PUSH2 0x100 ADD PUSH1 0x40 MSTORE SWAP1 DUP2 PUSH1 0x0 DUP3 ADD SLOAD DUP2 MSTORE PUSH1 0x20 ADD PUSH1 0x1 DUP3 ADD DUP1 SLOAD PUSH2 0xF6F SWAP1 PUSH2 0x20A7 JUMP JUMPDEST DUP1 PUSH1 0x1F ADD PUSH1 0x20 DUP1 SWAP2 DIV MUL PUSH1 0x20 ADD PUSH1 0x40 MLOAD SWAP1 DUP2 ADD PUSH1 0x40 MSTORE DUP1 SWAP3 SWAP2 SWAP1 DUP2 DUP2 MSTORE PUSH1 0x20 ADD DUP3 DUP1 SLOAD PUSH2 0xF9B SWAP1 PUSH2 0x20A7 JUMP JUMPDEST DUP1 ISZERO PUSH2 0xFE8 JUMPI DUP1 PUSH1 0x1F LT PUSH2 0xFBD JUMPI PUSH2 0x100 DUP1 DUP4 SLOAD DIV MUL DUP4 MSTORE SWAP2 PUSH1 0x20 ADD SWAP2 PUSH2 0xFE8 JUMP JUMPDEST DUP3 ADD SWAP2 SWAP1 PUSH1 0x0 MSTORE PUSH1 0x20 PUSH1 0x0 KECCAK256 SWAP1 JUMPDEST DUP2 SLOAD DUP2 MSTORE SWAP1 PUSH1 0x1 ADD SWAP1 PUSH1 0x20 ADD DUP1 DUP4 GT PUSH2 0xFCB JUMPI DUP3 SWAP1 SUB PUSH1 0x1F AND DUP3 ADD SWAP2 JUMPDEST POP POP POP POP POP DUP2 MSTORE PUSH1 0x20 ADD PUSH1 0x2 DUP3 ADD SLOAD DUP2 MSTORE PUSH1 0x20 ADD PUSH1 0x3 DUP3 ADD PUSH1 0x0 SWAP1 SLOAD SWAP1 PUSH2 0x100 EXP SWAP1 DIV PUSH20 0xFFFFFFFFFFFFFFFFFFFFFFFFFFFFFFFFFFFFFFFF AND PUSH20 0xFFFFFFFFFFFFFFFFFFFFFFFFFFFFFFFFFFFFFFFF AND PUSH20 0xFFFFFFFFFFFFFFFFFFFFFFFFFFFFFFFFFFFFFFFF AND DUP2 MSTORE PUSH1 0x20 ADD PUSH1 0x4 DUP3 ADD PUSH1 0x0 SWAP1 SLOAD SWAP1 PUSH2 0x100 EXP SWAP1 DIV PUSH20 0xFFFFFFFFFFFFFFFFFFFFFFFFFFFFFFFFFFFFFFFF AND PUSH20 0xFFFFFFFFFFFFFFFFFFFFFFFFFFFFFFFFFFFFFFFF AND PUSH20 0xFFFFFFFFFFFFFFFFFFFFFFFFFFFFFFFFFFFFFFFF AND DUP2 MSTORE PUSH1 0x20 ADD PUSH1 0x5 DUP3 ADD SLOAD DUP2 MSTORE PUSH1 0x20 ADD PUSH1 0x6 DUP3 ADD SLOAD DUP2 MSTORE PUSH1 0x20 ADD PUSH1 0x7 DUP3 ADD SLOAD DUP2 MSTORE POP POP DUP2 MSTORE PUSH1 0x20 ADD SWAP1 PUSH1 0x1 ADD SWAP1 PUSH2 0xF31 JUMP JUMPDEST POP POP POP POP SWAP1 POP PUSH2 0x12BC JUMP JUMPDEST PUSH1 0x2 PUSH1 0x0 DUP4 DUP2 MSTORE PUSH1 0x20 ADD SWAP1 DUP2 MSTORE PUSH1 0x20 ADD PUSH1 0x0 KECCAK256 DUP1 SLOAD DUP1 PUSH1 0x20 MUL PUSH1 0x20 ADD PUSH1 0x40 MLOAD SWAP1 DUP2 ADD PUSH1 0x40 MSTORE DUP1 SWAP3 SWAP2 SWAP1 DUP2 DUP2 MSTORE PUSH1 0x20 ADD PUSH1 0x0 SWAP1 JUMPDEST DUP3 DUP3 LT ISZERO PUSH2 0x12B5 JUMPI DUP4 DUP3 SWAP1 PUSH1 0x0 MSTORE PUSH1 0x20 PUSH1 0x0 KECCAK256 SWAP1 PUSH1 0x8 MUL ADD PUSH1 0x40 MLOAD DUP1 PUSH2 0x100 ADD PUSH1 0x40 MSTORE SWAP1 DUP2 PUSH1 0x0 DUP3 ADD SLOAD DUP2 MSTORE PUSH1 0x20 ADD PUSH1 0x1 DUP3 ADD DUP1 SLOAD PUSH2 0x1150 SWAP1 PUSH2 0x20A7 JUMP JUMPDEST DUP1 PUSH1 0x1F ADD PUSH1 0x20 DUP1 SWAP2 DIV MUL PUSH1 0x20 ADD PUSH1 0x40 MLOAD SWAP1 DUP2 ADD PUSH1 0x40 MSTORE DUP1 SWAP3 SWAP2 SWAP1 DUP2 DUP2 MSTORE PUSH1 0x20 ADD DUP3 DUP1 SLOAD PUSH2 0x117C SWAP1 PUSH2 0x20A7 JUMP JUMPDEST DUP1 ISZERO PUSH2 0x11C9 JUMPI DUP1 PUSH1 0x1F LT PUSH2 0x119E JUMPI PUSH2 0x100 DUP1 DUP4 SLOAD DIV MUL DUP4 MSTORE SWAP2 PUSH1 0x20 ADD SWAP2 PUSH2 0x11C9 JUMP JUMPDEST DUP3 ADD SWAP2 SWAP1 PUSH1 0x0 MSTORE PUSH1 0x20 PUSH1 0x0 KECCAK256 SWAP1 JUMPDEST DUP2 SLOAD DUP2 MSTORE SWAP1 PUSH1 0x1 ADD SWAP1 PUSH1 0x20 ADD DUP1 DUP4 GT PUSH2 0x11AC JUMPI DUP3 SWAP1 SUB PUSH1 0x1F AND DUP3 ADD SWAP2 JUMPDEST POP POP POP POP POP DUP2 MSTORE PUSH1 0x20 ADD PUSH1 0x2 DUP3 ADD SLOAD DUP2 MSTORE PUSH1 0x20 ADD PUSH1 0x3 DUP3 ADD PUSH1 0x0 SWAP1 SLOAD SWAP1 PUSH2 0x100 EXP SWAP1 DIV PUSH20 0xFFFFFFFFFFFFFFFFFFFFFFFFFFFFFFFFFFFFFFFF AND PUSH20 0xFFFFFFFFFFFFFFFFFFFFFFFFFFFFFFFFFFFFFFFF AND PUSH20 0xFFFFFFFFFFFFFFFFFFFFFFFFFFFFFFFFFFFFFFFF AND DUP2 MSTORE PUSH1 0x20 ADD PUSH1 0x4 DUP3 ADD PUSH1 0x0 SWAP1 SLOAD SWAP1 PUSH2 0x100 EXP SWAP1 DIV PUSH20 0xFFFFFFFFFFFFFFFFFFFFFFFFFFFFFFFFFFFFFFFF AND PUSH20 0xFFFFFFFFFFFFFFFFFFFFFFFFFFFFFFFFFFFFFFFF AND PUSH20 0xFFFFFFFFFFFFFFFFFFFFFFFFFFFFFFFFFFFFFFFF AND DUP2 MSTORE PUSH1 0x20 ADD PUSH1 0x5 DUP3 ADD SLOAD DUP2 MSTORE PUSH1 0x20 ADD PUSH1 0x6 DUP3 ADD SLOAD DUP2 MSTORE PUSH1 0x20 ADD PUSH1 0x7 DUP3 ADD SLOAD DUP2 MSTORE POP POP DUP2 MSTORE PUSH1 0x20 ADD SWAP1 PUSH1 0x1 ADD SWAP1 PUSH2 0x1112 JUMP JUMPDEST POP POP POP POP SWAP1 POP JUMPDEST SWAP2 SWAP1 POP JUMP JUMPDEST PUSH1 0x0 DUP1 DUP2 SLOAD DUP1 SWAP3 SWAP2 SWAP1 PUSH2 0x12D3 SWAP1 PUSH2 0x210A JUMP JUMPDEST SWAP2 SWAP1 POP SSTORE POP PUSH1 0x0 PUSH1 0x40 MLOAD DUP1 PUSH2 0x100 ADD PUSH1 0x40 MSTORE DUP1 PUSH1 0x0 SLOAD DUP2 MSTORE PUSH1 0x20 ADD DUP6 DUP2 MSTORE PUSH1 0x20 ADD PUSH1 0x1 DUP2 MSTORE PUSH1 0x20 ADD CALLER PUSH20 0xFFFFFFFFFFFFFFFFFFFFFFFFFFFFFFFFFFFFFFFF AND DUP2 MSTORE PUSH1 0x20 ADD DUP5 PUSH20 0xFFFFFFFFFFFFFFFFFFFFFFFFFFFFFFFFFFFFFFFF AND DUP2 MSTORE PUSH1 0x20 ADD PUSH1 0x0 DUP2 MSTORE PUSH1 0x20 ADD DUP4 DUP2 MSTORE PUSH1 0x20 ADD PUSH1 0x0 DUP2 MSTORE POP SWAP1 POP PUSH1 0x1 DUP2 SWAP1 DUP1 PUSH1 0x1 DUP2 SLOAD ADD DUP1 DUP3 SSTORE DUP1 SWAP2 POP POP PUSH1 0x1 SWAP1 SUB SWAP1 PUSH1 0x0 MSTORE PUSH1 0x20 PUSH1 0x0 KECCAK256 SWAP1 PUSH1 0x8 MUL ADD PUSH1 0x0 SWAP1 SWAP2 SWAP1 SWAP2 SWAP1 SWAP2 POP PUSH1 0x0 DUP3 ADD MLOAD DUP2 PUSH1 0x0 ADD SSTORE PUSH1 0x20 DUP3 ADD MLOAD DUP2 PUSH1 0x1 ADD SWAP1 DUP1 MLOAD SWAP1 PUSH1 0x20 ADD SWAP1 PUSH2 0x1399 SWAP3 SWAP2 SWAP1 PUSH2 0x179B JUMP JUMPDEST POP PUSH1 0x40 DUP3 ADD MLOAD DUP2 PUSH1 0x2 ADD SSTORE PUSH1 0x60 DUP3 ADD MLOAD DUP2 PUSH1 0x3 ADD PUSH1 0x0 PUSH2 0x100 EXP DUP2 SLOAD DUP2 PUSH20 0xFFFFFFFFFFFFFFFFFFFFFFFFFFFFFFFFFFFFFFFF MUL NOT AND SWAP1 DUP4 PUSH20 0xFFFFFFFFFFFFFFFFFFFFFFFFFFFFFFFFFFFFFFFF AND MUL OR SWAP1 SSTORE POP PUSH1 0x80 DUP3 ADD MLOAD DUP2 PUSH1 0x4 ADD PUSH1 0x0 PUSH2 0x100 EXP DUP2 SLOAD DUP2 PUSH20 0xFFFFFFFFFFFFFFFFFFFFFFFFFFFFFFFFFFFFFFFF MUL NOT AND SWAP1 DUP4 PUSH20 0xFFFFFFFFFFFFFFFFFFFFFFFFFFFFFFFFFFFFFFFF AND MUL OR SWAP1 SSTORE POP PUSH1 0xA0 DUP3 ADD MLOAD DUP2 PUSH1 0x5 ADD SSTORE PUSH1 0xC0 DUP3 ADD MLOAD DUP2 PUSH1 0x6 ADD SSTORE PUSH1 0xE0 DUP3 ADD MLOAD DUP2 PUSH1 0x7 ADD SSTORE POP POP PUSH1 0x2 PUSH1 0x0 PUSH1 0x1 DUP2 MSTORE PUSH1 0x20 ADD SWAP1 DUP2 MSTORE PUSH1 0x20 ADD PUSH1 0x0 KECCAK256 DUP2 SWAP1 DUP1 PUSH1 0x1 DUP2 SLOAD ADD DUP1 DUP3 SSTORE DUP1 SWAP2 POP POP PUSH1 0x1 SWAP1 SUB SWAP1 PUSH1 0x0 MSTORE PUSH1 0x20 PUSH1 0x0 KECCAK256 SWAP1 PUSH1 0x8 MUL ADD PUSH1 0x0 SWAP1 SWAP2 SWAP1 SWAP2 SWAP1 SWAP2 POP PUSH1 0x0 DUP3 ADD MLOAD DUP2 PUSH1 0x0 ADD SSTORE PUSH1 0x20 DUP3 ADD MLOAD DUP2 PUSH1 0x1 ADD SWAP1 DUP1 MLOAD SWAP1 PUSH1 0x20 ADD SWAP1 PUSH2 0x14B6 SWAP3 SWAP2 SWAP1 PUSH2 0x179B JUMP JUMPDEST POP PUSH1 0x40 DUP3 ADD MLOAD DUP2 PUSH1 0x2 ADD SSTORE PUSH1 0x60 DUP3 ADD MLOAD DUP2 PUSH1 0x3 ADD PUSH1 0x0 PUSH2 0x100 EXP DUP2 SLOAD DUP2 PUSH20 0xFFFFFFFFFFFFFFFFFFFFFFFFFFFFFFFFFFFFFFFF MUL NOT AND SWAP1 DUP4 PUSH20 0xFFFFFFFFFFFFFFFFFFFFFFFFFFFFFFFFFFFFFFFF AND MUL OR SWAP1 SSTORE POP PUSH1 0x80 DUP3 ADD MLOAD DUP2 PUSH1 0x4 ADD PUSH1 0x0 PUSH2 0x100 EXP DUP2 SLOAD DUP2 PUSH20 0xFFFFFFFFFFFFFFFFFFFFFFFFFFFFFFFFFFFFFFFF MUL NOT AND SWAP1 DUP4 PUSH20 0xFFFFFFFFFFFFFFFFFFFFFFFFFFFFFFFFFFFFFFFF AND MUL OR SWAP1 SSTORE POP PUSH1 0xA0 DUP3 ADD MLOAD DUP2 PUSH1 0x5 ADD SSTORE PUSH1 0xC0 DUP3 ADD MLOAD DUP2 PUSH1 0x6 ADD SSTORE PUSH1 0xE0 DUP3 ADD MLOAD DUP2 PUSH1 0x7 ADD SSTORE POP POP PUSH1 0x3 PUSH1 0x0 CALLER PUSH20 0xFFFFFFFFFFFFFFFFFFFFFFFFFFFFFFFFFFFFFFFF AND PUSH20 0xFFFFFFFFFFFFFFFFFFFFFFFFFFFFFFFFFFFFFFFF AND DUP2 MSTORE PUSH1 0x20 ADD SWAP1 DUP2 MSTORE PUSH1 0x20 ADD PUSH1 0x0 KECCAK256 DUP2 SWAP1 DUP1 PUSH1 0x1 DUP2 SLOAD ADD DUP1 DUP3 SSTORE DUP1 SWAP2 POP POP PUSH1 0x1 SWAP1 SUB SWAP1 PUSH1 0x0 MSTORE PUSH1 0x20 PUSH1 0x0 KECCAK256 SWAP1 PUSH1 0x8 MUL ADD PUSH1 0x0 SWAP1 SWAP2 SWAP1 SWAP2 SWAP1 SWAP2 POP PUSH1 0x0 DUP3 ADD MLOAD DUP2 PUSH1 0x0 ADD SSTORE PUSH1 0x20 DUP3 ADD MLOAD DUP2 PUSH1 0x1 ADD SWAP1 DUP1 MLOAD SWAP1 PUSH1 0x20 ADD SWAP1 PUSH2 0x15FE SWAP3 SWAP2 SWAP1 PUSH2 0x179B JUMP JUMPDEST POP PUSH1 0x40 DUP3 ADD MLOAD DUP2 PUSH1 0x2 ADD SSTORE PUSH1 0x60 DUP3 ADD MLOAD DUP2 PUSH1 0x3 ADD PUSH1 0x0 PUSH2 0x100 EXP DUP2 SLOAD DUP2 PUSH20 0xFFFFFFFFFFFFFFFFFFFFFFFFFFFFFFFFFFFFFFFF MUL NOT AND SWAP1 DUP4 PUSH20 0xFFFFFFFFFFFFFFFFFFFFFFFFFFFFFFFFFFFFFFFF AND MUL OR SWAP1 SSTORE POP PUSH1 0x80 DUP3 ADD MLOAD DUP2 PUSH1 0x4 ADD PUSH1 0x0 PUSH2 0x100 EXP DUP2 SLOAD DUP2 PUSH20 0xFFFFFFFFFFFFFFFFFFFFFFFFFFFFFFFFFFFFFFFF MUL NOT AND SWAP1 DUP4 PUSH20 0xFFFFFFFFFFFFFFFFFFFFFFFFFFFFFFFFFFFFFFFF AND MUL OR SWAP1 SSTORE POP PUSH1 0xA0 DUP3 ADD MLOAD DUP2 PUSH1 0x5 ADD SSTORE PUSH1 0xC0 DUP3 ADD MLOAD DUP2 PUSH1 0x6 ADD SSTORE PUSH1 0xE0 DUP3 ADD MLOAD DUP2 PUSH1 0x7 ADD SSTORE POP POP POP POP POP POP JUMP JUMPDEST PUSH1 0x0 CALLER PUSH20 0xFFFFFFFFFFFFFFFFFFFFFFFFFFFFFFFFFFFFFFFF AND DUP3 PUSH20 0xFFFFFFFFFFFFFFFFFFFFFFFFFFFFFFFFFFFFFFFF AND EQ SWAP1 POP SWAP2 SWAP1 POP JUMP JUMPDEST PUSH1 0x0 DUP1 DUP3 CALLER SWAP2 POP SWAP2 POP SWAP2 POP SWAP2 JUMP JUMPDEST PUSH1 0x0 DUP1 DUP3 SWAP1 POP PUSH1 0x0 DUP1 JUMPDEST DUP3 MLOAD DUP2 LT ISZERO PUSH2 0x1790 JUMPI PUSH1 0x0 DUP4 DUP3 DUP2 MLOAD DUP2 LT PUSH2 0x172B JUMPI PUSH2 0x172A PUSH2 0x21E0 JUMP JUMPDEST JUMPDEST PUSH1 0x20 ADD ADD MLOAD PUSH1 0xF8 SHR PUSH1 0xF8 SHL PUSH1 0xF8 SHR PUSH1 0xFF AND SWAP1 POP PUSH1 0x30 DUP2 LT ISZERO DUP1 ISZERO PUSH2 0x1750 JUMPI POP PUSH1 0x39 DUP2 GT ISZERO JUMPDEST ISZERO PUSH2 0x177C JUMPI PUSH1 0x30 DUP2 PUSH2 0x1762 SWAP2 SWAP1 PUSH2 0x1FE9 JUMP JUMPDEST PUSH1 0xA DUP5 PUSH2 0x176F SWAP2 SWAP1 PUSH2 0x1F8F JUMP JUMPDEST PUSH2 0x1779 SWAP2 SWAP1 PUSH2 0x1F39 JUMP JUMPDEST SWAP3 POP JUMPDEST POP DUP1 DUP1 PUSH2 0x1788 SWAP1 PUSH2 0x210A JUMP JUMPDEST SWAP2 POP POP PUSH2 0x170D JUMP JUMPDEST POP DUP1 SWAP3 POP POP POP SWAP2 SWAP1 POP JUMP JUMPDEST DUP3 DUP1 SLOAD PUSH2 0x17A7 SWAP1 PUSH2 0x20A7 JUMP JUMPDEST SWAP1 PUSH1 0x0 MSTORE PUSH1 0x20 PUSH1 0x0 KECCAK256 SWAP1 PUSH1 0x1F ADD PUSH1 0x20 SWAP1 DIV DUP2 ADD SWAP3 DUP3 PUSH2 0x17C9 JUMPI PUSH1 0x0 DUP6 SSTORE PUSH2 0x1810 JUMP JUMPDEST DUP3 PUSH1 0x1F LT PUSH2 0x17E2 JUMPI DUP1 MLOAD PUSH1 0xFF NOT AND DUP4 DUP1 ADD OR DUP6 SSTORE PUSH2 0x1810 JUMP JUMPDEST DUP3 DUP1 ADD PUSH1 0x1 ADD DUP6 SSTORE DUP3 ISZERO PUSH2 0x1810 JUMPI SWAP2 DUP3 ADD JUMPDEST DUP3 DUP2 GT ISZERO PUSH2 0x180F JUMPI DUP3 MLOAD DUP3 SSTORE SWAP2 PUSH1 0x20 ADD SWAP2 SWAP1 PUSH1 0x1 ADD SWAP1 PUSH2 0x17F4 JUMP JUMPDEST JUMPDEST POP SWAP1 POP PUSH2 0x181D SWAP2 SWAP1 PUSH2 0x18EE JUMP JUMPDEST POP SWAP1 JUMP JUMPDEST POP DUP1 SLOAD PUSH2 0x182D SWAP1 PUSH2 0x20A7 JUMP JUMPDEST PUSH1 0x0 DUP3 SSTORE DUP1 PUSH1 0x1F LT PUSH2 0x183F JUMPI POP PUSH2 0x185E JUMP JUMPDEST PUSH1 0x1F ADD PUSH1 0x20 SWAP1 DIV SWAP1 PUSH1 0x0 MSTORE PUSH1 0x20 PUSH1 0x0 KECCAK256 SWAP1 DUP2 ADD SWAP1 PUSH2 0x185D SWAP2 SWAP1 PUSH2 0x18EE JUMP JUMPDEST JUMPDEST POP JUMP JUMPDEST DUP3 DUP1 SLOAD PUSH2 0x186D SWAP1 PUSH2 0x20A7 JUMP JUMPDEST SWAP1 PUSH1 0x0 MSTORE PUSH1 0x20 PUSH1 0x0 KECCAK256 SWAP1 PUSH1 0x1F ADD PUSH1 0x20 SWAP1 DIV DUP2 ADD SWAP3 DUP3 PUSH2 0x188F JUMPI PUSH1 0x0 DUP6 SSTORE PUSH2 0x18DD JUMP JUMPDEST DUP3 PUSH1 0x1F LT PUSH2 0x18A0 JUMPI DUP1 SLOAD DUP6 SSTORE PUSH2 0x18DD JUMP JUMPDEST DUP3 DUP1 ADD PUSH1 0x1 ADD DUP6 SSTORE DUP3 ISZERO PUSH2 0x18DD JUMPI PUSH1 0x0 MSTORE PUSH1 0x20 PUSH1 0x0 KECCAK256 SWAP2 PUSH1 0x1F ADD PUSH1 0x20 SWAP1 DIV DUP3 ADD JUMPDEST DUP3 DUP2 GT ISZERO PUSH2 0x18DC JUMPI DUP3 SLOAD DUP3 SSTORE SWAP2 PUSH1 0x1 ADD SWAP2 SWAP1 PUSH1 0x1 ADD SWAP1 PUSH2 0x18C1 JUMP JUMPDEST JUMPDEST POP SWAP1 POP PUSH2 0x18EA SWAP2 SWAP1 PUSH2 0x18EE JUMP JUMPDEST POP SWAP1 JUMP JUMPDEST JUMPDEST DUP1 DUP3 GT ISZERO PUSH2 0x1907 JUMPI PUSH1 0x0 DUP2 PUSH1 0x0 SWAP1 SSTORE POP PUSH1 0x1 ADD PUSH2 0x18EF JUMP JUMPDEST POP SWAP1 JUMP JUMPDEST PUSH1 0x0 PUSH2 0x191E PUSH2 0x1919 DUP5 PUSH2 0x1EA2 JUMP JUMPDEST PUSH2 0x1E7D JUMP JUMPDEST SWAP1 POP DUP3 DUP2 MSTORE PUSH1 0x20 DUP2 ADD DUP5 DUP5 DUP5 ADD GT ISZERO PUSH2 0x193A JUMPI PUSH2 0x1939 PUSH2 0x2243 JUMP JUMPDEST JUMPDEST PUSH2 0x1945 DUP5 DUP3 DUP6 PUSH2 0x2065 JUMP JUMPDEST POP SWAP4 SWAP3 POP POP POP JUMP JUMPDEST PUSH1 0x0 DUP2 CALLDATALOAD SWAP1 POP PUSH2 0x195C DUP2 PUSH2 0x2263 JUMP JUMPDEST SWAP3 SWAP2 POP POP JUMP JUMPDEST PUSH1 0x0 DUP3 PUSH1 0x1F DUP4 ADD SLT PUSH2 0x1977 JUMPI PUSH2 0x1976 PUSH2 0x223E JUMP JUMPDEST JUMPDEST DUP2 CALLDATALOAD PUSH2 0x1987 DUP5 DUP3 PUSH1 0x20 DUP7 ADD PUSH2 0x190B JUMP JUMPDEST SWAP2 POP POP SWAP3 SWAP2 POP POP JUMP JUMPDEST PUSH1 0x0 DUP2 CALLDATALOAD SWAP1 POP PUSH2 0x199F DUP2 PUSH2 0x227A JUMP JUMPDEST SWAP3 SWAP2 POP POP JUMP JUMPDEST PUSH1 0x0 PUSH1 0x20 DUP3 DUP5 SUB SLT ISZERO PUSH2 0x19BB JUMPI PUSH2 0x19BA PUSH2 0x224D JUMP JUMPDEST JUMPDEST PUSH1 0x0 PUSH2 0x19C9 DUP5 DUP3 DUP6 ADD PUSH2 0x194D JUMP JUMPDEST SWAP2 POP POP SWAP3 SWAP2 POP POP JUMP JUMPDEST PUSH1 0x0 PUSH1 0x20 DUP3 DUP5 SUB SLT ISZERO PUSH2 0x19E8 JUMPI PUSH2 0x19E7 PUSH2 0x224D JUMP JUMPDEST JUMPDEST PUSH1 0x0 DUP3 ADD CALLDATALOAD PUSH8 0xFFFFFFFFFFFFFFFF DUP2 GT ISZERO PUSH2 0x1A06 JUMPI PUSH2 0x1A05 PUSH2 0x2248 JUMP JUMPDEST JUMPDEST PUSH2 0x1A12 DUP5 DUP3 DUP6 ADD PUSH2 0x1962 JUMP JUMPDEST SWAP2 POP POP SWAP3 SWAP2 POP POP JUMP JUMPDEST PUSH1 0x0 DUP1 PUSH1 0x0 PUSH1 0x60 DUP5 DUP7 SUB SLT ISZERO PUSH2 0x1A34 JUMPI PUSH2 0x1A33 PUSH2 0x224D JUMP JUMPDEST JUMPDEST PUSH1 0x0 DUP5 ADD CALLDATALOAD PUSH8 0xFFFFFFFFFFFFFFFF DUP2 GT ISZERO PUSH2 0x1A52 JUMPI PUSH2 0x1A51 PUSH2 0x2248 JUMP JUMPDEST JUMPDEST PUSH2 0x1A5E DUP7 DUP3 DUP8 ADD PUSH2 0x1962 JUMP JUMPDEST SWAP4 POP POP PUSH1 0x20 PUSH2 0x1A6F DUP7 DUP3 DUP8 ADD PUSH2 0x194D JUMP JUMPDEST SWAP3 POP POP PUSH1 0x40 PUSH2 0x1A80 DUP7 DUP3 DUP8 ADD PUSH2 0x1990 JUMP JUMPDEST SWAP2 POP POP SWAP3 POP SWAP3 POP SWAP3 JUMP JUMPDEST PUSH1 0x0 PUSH1 0x20 DUP3 DUP5 SUB SLT ISZERO PUSH2 0x1AA0 JUMPI PUSH2 0x1A9F PUSH2 0x224D JUMP JUMPDEST JUMPDEST PUSH1 0x0 PUSH2 0x1AAE DUP5 DUP3 DUP6 ADD PUSH2 0x1990 JUMP JUMPDEST SWAP2 POP POP SWAP3 SWAP2 POP POP JUMP JUMPDEST PUSH1 0x0 DUP1 PUSH1 0x40 DUP4 DUP6 SUB SLT ISZERO PUSH2 0x1ACE JUMPI PUSH2 0x1ACD PUSH2 0x224D JUMP JUMPDEST JUMPDEST PUSH1 0x0 PUSH2 0x1ADC DUP6 DUP3 DUP7 ADD PUSH2 0x1990 JUMP JUMPDEST SWAP3 POP POP PUSH1 0x20 DUP4 ADD CALLDATALOAD PUSH8 0xFFFFFFFFFFFFFFFF DUP2 GT ISZERO PUSH2 0x1AFD JUMPI PUSH2 0x1AFC PUSH2 0x2248 JUMP JUMPDEST JUMPDEST PUSH2 0x1B09 DUP6 DUP3 DUP7 ADD PUSH2 0x1962 JUMP JUMPDEST SWAP2 POP POP SWAP3 POP SWAP3 SWAP1 POP JUMP JUMPDEST PUSH1 0x0 DUP1 PUSH1 0x0 PUSH1 0x60 DUP5 DUP7 SUB SLT ISZERO PUSH2 0x1B2C JUMPI PUSH2 0x1B2B PUSH2 0x224D JUMP JUMPDEST JUMPDEST PUSH1 0x0 PUSH2 0x1B3A DUP7 DUP3 DUP8 ADD PUSH2 0x1990 JUMP JUMPDEST SWAP4 POP POP PUSH1 0x20 PUSH2 0x1B4B DUP7 DUP3 DUP8 ADD PUSH2 0x1990 JUMP JUMPDEST SWAP3 POP POP PUSH1 0x40 PUSH2 0x1B5C DUP7 DUP3 DUP8 ADD PUSH2 0x194D JUMP JUMPDEST SWAP2 POP POP SWAP3 POP SWAP3 POP SWAP3 JUMP JUMPDEST PUSH1 0x0 PUSH2 0x1B72 DUP4 DUP4 PUSH2 0x1C8E JUMP JUMPDEST SWAP1 POP SWAP3 SWAP2 POP POP JUMP JUMPDEST PUSH2 0x1B83 DUP2 PUSH2 0x201D JUMP JUMPDEST DUP3 MSTORE POP POP JUMP JUMPDEST PUSH2 0x1B92 DUP2 PUSH2 0x201D JUMP JUMPDEST DUP3 MSTORE POP POP JUMP JUMPDEST PUSH1 0x0 PUSH2 0x1BA3 DUP3 PUSH2 0x1EE3 JUMP JUMPDEST PUSH2 0x1BAD DUP2 DUP6 PUSH2 0x1F06 JUMP JUMPDEST SWAP4 POP DUP4 PUSH1 0x20 DUP3 MUL DUP6 ADD PUSH2 0x1BBF DUP6 PUSH2 0x1ED3 JUMP JUMPDEST DUP1 PUSH1 0x0 JUMPDEST DUP6 DUP2 LT ISZERO PUSH2 0x1BFB JUMPI DUP5 DUP5 SUB DUP10 MSTORE DUP2 MLOAD PUSH2 0x1BDC DUP6 DUP3 PUSH2 0x1B66 JUMP JUMPDEST SWAP5 POP PUSH2 0x1BE7 DUP4 PUSH2 0x1EF9 JUMP JUMPDEST SWAP3 POP PUSH1 0x20 DUP11 ADD SWAP10 POP POP PUSH1 0x1 DUP2 ADD SWAP1 POP PUSH2 0x1BC3 JUMP JUMPDEST POP DUP3 SWAP8 POP DUP8 SWAP6 POP POP POP POP POP POP SWAP3 SWAP2 POP POP JUMP JUMPDEST PUSH2 0x1C16 DUP2 PUSH2 0x202F JUMP JUMPDEST DUP3 MSTORE POP POP JUMP JUMPDEST PUSH1 0x0 PUSH2 0x1C27 DUP3 PUSH2 0x1EEE JUMP JUMPDEST PUSH2 0x1C31 DUP2 DUP6 PUSH2 0x1F17 JUMP JUMPDEST SWAP4 POP PUSH2 0x1C41 DUP2 DUP6 PUSH1 0x20 DUP7 ADD PUSH2 0x2074 JUMP JUMPDEST PUSH2 0x1C4A DUP2 PUSH2 0x2252 JUMP JUMPDEST DUP5 ADD SWAP2 POP POP SWAP3 SWAP2 POP POP JUMP JUMPDEST PUSH1 0x0 PUSH2 0x1C60 DUP3 PUSH2 0x1EEE JUMP JUMPDEST PUSH2 0x1C6A DUP2 DUP6 PUSH2 0x1F28 JUMP JUMPDEST SWAP4 POP PUSH2 0x1C7A DUP2 DUP6 PUSH1 0x20 DUP7 ADD PUSH2 0x2074 JUMP JUMPDEST PUSH2 0x1C83 DUP2 PUSH2 0x2252 JUMP JUMPDEST DUP5 ADD SWAP2 POP POP SWAP3 SWAP2 POP POP JUMP JUMPDEST PUSH1 0x0 PUSH2 0x100 DUP4 ADD PUSH1 0x0 DUP4 ADD MLOAD PUSH2 0x1CA7 PUSH1 0x0 DUP7 ADD DUP3 PUSH2 0x1D3E JUMP JUMPDEST POP PUSH1 0x20 DUP4 ADD MLOAD DUP5 DUP3 SUB PUSH1 0x20 DUP7 ADD MSTORE PUSH2 0x1CBF DUP3 DUP3 PUSH2 0x1C1C JUMP JUMPDEST SWAP2 POP POP PUSH1 0x40 DUP4 ADD MLOAD PUSH2 0x1CD4 PUSH1 0x40 DUP7 ADD DUP3 PUSH2 0x1D3E JUMP JUMPDEST POP PUSH1 0x60 DUP4 ADD MLOAD PUSH2 0x1CE7 PUSH1 0x60 DUP7 ADD DUP3 PUSH2 0x1B7A JUMP JUMPDEST POP PUSH1 0x80 DUP4 ADD MLOAD PUSH2 0x1CFA PUSH1 0x80 DUP7 ADD DUP3 PUSH2 0x1B7A JUMP JUMPDEST POP PUSH1 0xA0 DUP4 ADD MLOAD PUSH2 0x1D0D PUSH1 0xA0 DUP7 ADD DUP3 PUSH2 0x1D3E JUMP JUMPDEST POP PUSH1 0xC0 DUP4 ADD MLOAD PUSH2 0x1D20 PUSH1 0xC0 DUP7 ADD DUP3 PUSH2 0x1D3E JUMP JUMPDEST POP PUSH1 0xE0 DUP4 ADD MLOAD PUSH2 0x1D33 PUSH1 0xE0 DUP7 ADD DUP3 PUSH2 0x1D3E JUMP JUMPDEST POP DUP1 SWAP2 POP POP SWAP3 SWAP2 POP POP JUMP JUMPDEST PUSH2 0x1D47 DUP2 PUSH2 0x205B JUMP JUMPDEST DUP3 MSTORE POP POP JUMP JUMPDEST PUSH2 0x1D56 DUP2 PUSH2 0x205B JUMP JUMPDEST DUP3 MSTORE POP POP JUMP JUMPDEST PUSH1 0x0 PUSH1 0x20 DUP3 ADD SWAP1 POP PUSH2 0x1D71 PUSH1 0x0 DUP4 ADD DUP5 PUSH2 0x1B89 JUMP JUMPDEST SWAP3 SWAP2 POP POP JUMP JUMPDEST PUSH1 0x0 PUSH1 0x40 DUP3 ADD SWAP1 POP PUSH2 0x1D8C PUSH1 0x0 DUP4 ADD DUP6 PUSH2 0x1B89 JUMP JUMPDEST PUSH2 0x1D99 PUSH1 0x20 DUP4 ADD DUP5 PUSH2 0x1B89 JUMP JUMPDEST SWAP4 SWAP3 POP POP POP JUMP JUMPDEST PUSH1 0x0 PUSH1 0x20 DUP3 ADD SWAP1 POP DUP2 DUP2 SUB PUSH1 0x0 DUP4 ADD MSTORE PUSH2 0x1DBA DUP2 DUP5 PUSH2 0x1B98 JUMP JUMPDEST SWAP1 POP SWAP3 SWAP2 POP POP JUMP JUMPDEST PUSH1 0x0 PUSH1 0x20 DUP3 ADD SWAP1 POP PUSH2 0x1DD7 PUSH1 0x0 DUP4 ADD DUP5 PUSH2 0x1C0D JUMP JUMPDEST SWAP3 SWAP2 POP POP JUMP JUMPDEST PUSH1 0x0 PUSH1 0x20 DUP3 ADD SWAP1 POP PUSH2 0x1DF2 PUSH1 0x0 DUP4 ADD DUP5 PUSH2 0x1D4D JUMP JUMPDEST SWAP3 SWAP2 POP POP JUMP JUMPDEST PUSH1 0x0 PUSH2 0x100 DUP3 ADD SWAP1 POP PUSH2 0x1E0E PUSH1 0x0 DUP4 ADD DUP12 PUSH2 0x1D4D JUMP JUMPDEST DUP2 DUP2 SUB PUSH1 0x20 DUP4 ADD MSTORE PUSH2 0x1E20 DUP2 DUP11 PUSH2 0x1C55 JUMP JUMPDEST SWAP1 POP PUSH2 0x1E2F PUSH1 0x40 DUP4 ADD DUP10 PUSH2 0x1D4D JUMP JUMPDEST PUSH2 0x1E3C PUSH1 0x60 DUP4 ADD DUP9 PUSH2 0x1B89 JUMP JUMPDEST PUSH2 0x1E49 PUSH1 0x80 DUP4 ADD DUP8 PUSH2 0x1B89 JUMP JUMPDEST PUSH2 0x1E56 PUSH1 0xA0 DUP4 ADD DUP7 PUSH2 0x1D4D JUMP JUMPDEST PUSH2 0x1E63 PUSH1 0xC0 DUP4 ADD DUP6 PUSH2 0x1D4D JUMP JUMPDEST PUSH2 0x1E70 PUSH1 0xE0 DUP4 ADD DUP5 PUSH2 0x1D4D JUMP JUMPDEST SWAP10 SWAP9 POP POP POP POP POP POP POP POP POP JUMP JUMPDEST PUSH1 0x0 PUSH2 0x1E87 PUSH2 0x1E98 JUMP JUMPDEST SWAP1 POP PUSH2 0x1E93 DUP3 DUP3 PUSH2 0x20D9 JUMP JUMPDEST SWAP2 SWAP1 POP JUMP JUMPDEST PUSH1 0x0 PUSH1 0x40 MLOAD SWAP1 POP SWAP1 JUMP JUMPDEST PUSH1 0x0 PUSH8 0xFFFFFFFFFFFFFFFF DUP3 GT ISZERO PUSH2 0x1EBD JUMPI PUSH2 0x1EBC PUSH2 0x220F JUMP JUMPDEST JUMPDEST PUSH2 0x1EC6 DUP3 PUSH2 0x2252 JUMP JUMPDEST SWAP1 POP PUSH1 0x20 DUP2 ADD SWAP1 POP SWAP2 SWAP1 POP JUMP JUMPDEST PUSH1 0x0 DUP2 SWAP1 POP PUSH1 0x20 DUP3 ADD SWAP1 POP SWAP2 SWAP1 POP JUMP JUMPDEST PUSH1 0x0 DUP2 MLOAD SWAP1 POP SWAP2 SWAP1 POP JUMP JUMPDEST PUSH1 0x0 DUP2 MLOAD SWAP1 POP SWAP2 SWAP1 POP JUMP JUMPDEST PUSH1 0x0 PUSH1 0x20 DUP3 ADD SWAP1 POP SWAP2 SWAP1 POP JUMP JUMPDEST PUSH1 0x0 DUP3 DUP3 MSTORE PUSH1 0x20 DUP3 ADD SWAP1 POP SWAP3 SWAP2 POP POP JUMP JUMPDEST PUSH1 0x0 DUP3 DUP3 MSTORE PUSH1 0x20 DUP3 ADD SWAP1 POP SWAP3 SWAP2 POP POP JUMP JUMPDEST PUSH1 0x0 DUP3 DUP3 MSTORE PUSH1 0x20 DUP3 ADD SWAP1 POP SWAP3 SWAP2 POP POP JUMP JUMPDEST PUSH1 0x0 PUSH2 0x1F44 DUP3 PUSH2 0x205B JUMP JUMPDEST SWAP2 POP PUSH2 0x1F4F DUP4 PUSH2 0x205B JUMP JUMPDEST SWAP3 POP DUP3 PUSH32 0xFFFFFFFFFFFFFFFFFFFFFFFFFFFFFFFFFFFFFFFFFFFFFFFFFFFFFFFFFFFFFFFF SUB DUP3 GT ISZERO PUSH2 0x1F84 JUMPI PUSH2 0x1F83 PUSH2 0x2153 JUMP JUMPDEST JUMPDEST DUP3 DUP3 ADD SWAP1 POP SWAP3 SWAP2 POP POP JUMP JUMPDEST PUSH1 0x0 PUSH2 0x1F9A DUP3 PUSH2 0x205B JUMP JUMPDEST SWAP2 POP PUSH2 0x1FA5 DUP4 PUSH2 0x205B JUMP JUMPDEST SWAP3 POP DUP2 PUSH32 0xFFFFFFFFFFFFFFFFFFFFFFFFFFFFFFFFFFFFFFFFFFFFFFFFFFFFFFFFFFFFFFFF DIV DUP4 GT DUP3 ISZERO ISZERO AND ISZERO PUSH2 0x1FDE JUMPI PUSH2 0x1FDD PUSH2 0x2153 JUMP JUMPDEST JUMPDEST DUP3 DUP3 MUL SWAP1 POP SWAP3 SWAP2 POP POP JUMP JUMPDEST PUSH1 0x0 PUSH2 0x1FF4 DUP3 PUSH2 0x205B JUMP JUMPDEST SWAP2 POP PUSH2 0x1FFF DUP4 PUSH2 0x205B JUMP JUMPDEST SWAP3 POP DUP3 DUP3 LT ISZERO PUSH2 0x2012 JUMPI PUSH2 0x2011 PUSH2 0x2153 JUMP JUMPDEST JUMPDEST DUP3 DUP3 SUB SWAP1 POP SWAP3 SWAP2 POP POP JUMP JUMPDEST PUSH1 0x0 PUSH2 0x2028 DUP3 PUSH2 0x203B JUMP JUMPDEST SWAP1 POP SWAP2 SWAP1 POP JUMP JUMPDEST PUSH1 0x0 DUP2 ISZERO ISZERO SWAP1 POP SWAP2 SWAP1 POP JUMP JUMPDEST PUSH1 0x0 PUSH20 0xFFFFFFFFFFFFFFFFFFFFFFFFFFFFFFFFFFFFFFFF DUP3 AND SWAP1 POP SWAP2 SWAP1 POP JUMP JUMPDEST PUSH1 0x0 DUP2 SWAP1 POP SWAP2 SWAP1 POP JUMP JUMPDEST DUP3 DUP2 DUP4 CALLDATACOPY PUSH1 0x0 DUP4 DUP4 ADD MSTORE POP POP POP JUMP JUMPDEST PUSH1 0x0 JUMPDEST DUP4 DUP2 LT ISZERO PUSH2 0x2092 JUMPI DUP1 DUP3 ADD MLOAD DUP2 DUP5 ADD MSTORE PUSH1 0x20 DUP2 ADD SWAP1 POP PUSH2 0x2077 JUMP JUMPDEST DUP4 DUP2 GT ISZERO PUSH2 0x20A1 JUMPI PUSH1 0x0 DUP5 DUP5 ADD MSTORE JUMPDEST POP POP POP POP JUMP JUMPDEST PUSH1 0x0 PUSH1 0x2 DUP3 DIV SWAP1 POP PUSH1 0x1 DUP3 AND DUP1 PUSH2 0x20BF JUMPI PUSH1 0x7F DUP3 AND SWAP2 POP JUMPDEST PUSH1 0x20 DUP3 LT DUP2 EQ ISZERO PUSH2 0x20D3 JUMPI PUSH2 0x20D2 PUSH2 0x2182 JUMP JUMPDEST JUMPDEST POP SWAP2 SWAP1 POP JUMP JUMPDEST PUSH2 0x20E2 DUP3 PUSH2 0x2252 JUMP JUMPDEST DUP2 ADD DUP2 DUP2 LT PUSH8 0xFFFFFFFFFFFFFFFF DUP3 GT OR ISZERO PUSH2 0x2101 JUMPI PUSH2 0x2100 PUSH2 0x220F JUMP JUMPDEST JUMPDEST DUP1 PUSH1 0x40 MSTORE POP POP POP JUMP JUMPDEST PUSH1 0x0 PUSH2 0x2115 DUP3 PUSH2 0x205B JUMP JUMPDEST SWAP2 POP PUSH32 0xFFFFFFFFFFFFFFFFFFFFFFFFFFFFFFFFFFFFFFFFFFFFFFFFFFFFFFFFFFFFFFFF DUP3 EQ ISZERO PUSH2 0x2148 JUMPI PUSH2 0x2147 PUSH2 0x2153 JUMP JUMPDEST JUMPDEST PUSH1 0x1 DUP3 ADD SWAP1 POP SWAP2 SWAP1 POP JUMP JUMPDEST PUSH32 0x4E487B7100000000000000000000000000000000000000000000000000000000 PUSH1 0x0 MSTORE PUSH1 0x11 PUSH1 0x4 MSTORE PUSH1 0x24 PUSH1 0x0 REVERT JUMPDEST PUSH32 0x4E487B7100000000000000000000000000000000000000000000000000000000 PUSH1 0x0 MSTORE PUSH1 0x22 PUSH1 0x4 MSTORE PUSH1 0x24 PUSH1 0x0 REVERT JUMPDEST PUSH32 0x4E487B7100000000000000000000000000000000000000000000000000000000 PUSH1 0x0 MSTORE PUSH1 0x31 PUSH1 0x4 MSTORE PUSH1 0x24 PUSH1 0x0 REVERT JUMPDEST PUSH32 0x4E487B7100000000000000000000000000000000000000000000000000000000 PUSH1 0x0 MSTORE PUSH1 0x32 PUSH1 0x4 MSTORE PUSH1 0x24 PUSH1 0x0 REVERT JUMPDEST PUSH32 0x4E487B7100000000000000000000000000000000000000000000000000000000 PUSH1 0x0 MSTORE PUSH1 0x41 PUSH1 0x4 MSTORE PUSH1 0x24 PUSH1 0x0 REVERT JUMPDEST PUSH1 0x0 DUP1 REVERT JUMPDEST PUSH1 0x0 DUP1 REVERT JUMPDEST PUSH1 0x0 DUP1 REVERT JUMPDEST PUSH1 0x0 DUP1 REVERT JUMPDEST PUSH1 0x0 PUSH1 0x1F NOT PUSH1 0x1F DUP4 ADD AND SWAP1 POP SWAP2 SWAP1 POP JUMP JUMPDEST PUSH2 0x226C DUP2 PUSH2 0x201D JUMP JUMPDEST DUP2 EQ PUSH2 0x2277 JUMPI PUSH1 0x0 DUP1 REVERT JUMPDEST POP JUMP JUMPDEST PUSH2 0x2283 DUP2 PUSH2 0x205B JUMP JUMPDEST DUP2 EQ PUSH2 0x228E JUMPI PUSH1 0x0 DUP1 REVERT JUMPDEST POP JUMP INVALID LOG2 PUSH5 0x6970667358 0x22 SLT KECCAK256 MSTORE 0xDB LOG3 SELFBALANCE SIGNEXTEND KECCAK256 0xE5 DUP2 DUP4 PUSH13 0x49C08051F9DD6211F046FFC188 0x1E 0xFC SMOD CALLVALUE 0xDE BLOCKHASH 0xB0 0xA6 PUSH9 0x64736F6C6343000807 STOP CALLER "
				},
				"gasEstimates": {
					"creation": {
						"codeDepositCost": "1780600",
						"executionCost": "1877",
						"totalCost": "1782477"
					},
					"external": {
						"createCrowdfunding(string,address,uint256)": "infinite",
						"getCrowdfundingByStatus(uint256)": "infinite",
						"getMyCrowdfunding(address)": "infinite",
						"join(uint256,uint256,address)": "infinite",
						"list(uint256)": "infinite",
						"setStatus(uint256)": "infinite",
						"setTitle(uint256,string)": "infinite",
						"stringToInt(string)": "infinite",
						"test(address)": "infinite",
						"test2(address)": "718"
					}
				},
				"methodIdentifiers": {
					"createCrowdfunding(string,address,uint256)": "ac8b1300",
					"getCrowdfundingByStatus(uint256)": "904cc175",
					"getMyCrowdfunding(address)": "377e6ff7",
					"join(uint256,uint256,address)": "575b70d0",
					"list(uint256)": "80c9419e",
					"setStatus(uint256)": "69ba1a75",
					"setTitle(uint256,string)": "5102bc9d",
					"stringToInt(string)": "f8a02d84",
					"test(address)": "bb29998e",
					"test2(address)": "b11bead4"
				}
			},
			"storageLayout": {
				"storage": [
					{
						"astId": 3,
						"contract": "crowdfunding.sol:CrowdfundingContract",
						"label": "No",
						"offset": 0,
						"slot": "0",
						"type": "t_uint256"
					},
					{
						"astId": 24,
						"contract": "crowdfunding.sol:CrowdfundingContract",
						"label": "list",
						"offset": 0,
						"slot": "1",
						"type": "t_array(t_struct(Crowdfunding)20_storage)dyn_storage"
					},
					{
						"astId": 30,
						"contract": "crowdfunding.sol:CrowdfundingContract",
						"label": "filterDataByStatus",
						"offset": 0,
						"slot": "2",
						"type": "t_mapping(t_uint256,t_array(t_struct(Crowdfunding)20_storage)dyn_storage)"
					},
					{
						"astId": 36,
						"contract": "crowdfunding.sol:CrowdfundingContract",
						"label": "myCrowdfunding",
						"offset": 0,
						"slot": "3",
						"type": "t_mapping(t_address,t_array(t_struct(Crowdfunding)20_storage)dyn_storage)"
					},
					{
						"astId": 41,
						"contract": "crowdfunding.sol:CrowdfundingContract",
						"label": "calcJoinNum",
						"offset": 0,
						"slot": "4",
						"type": "t_mapping(t_uint256,t_array(t_address)dyn_storage)"
					}
				],
				"types": {
					"t_address": {
						"encoding": "inplace",
						"label": "address",
						"numberOfBytes": "20"
					},
					"t_array(t_address)dyn_storage": {
						"base": "t_address",
						"encoding": "dynamic_array",
						"label": "address[]",
						"numberOfBytes": "32"
					},
					"t_array(t_struct(Crowdfunding)20_storage)dyn_storage": {
						"base": "t_struct(Crowdfunding)20_storage",
						"encoding": "dynamic_array",
						"label": "struct CrowdfundingContract.Crowdfunding[]",
						"numberOfBytes": "32"
					},
					"t_mapping(t_address,t_array(t_struct(Crowdfunding)20_storage)dyn_storage)": {
						"encoding": "mapping",
						"key": "t_address",
						"label": "mapping(address => struct CrowdfundingContract.Crowdfunding[])",
						"numberOfBytes": "32",
						"value": "t_array(t_struct(Crowdfunding)20_storage)dyn_storage"
					},
					"t_mapping(t_uint256,t_array(t_address)dyn_storage)": {
						"encoding": "mapping",
						"key": "t_uint256",
						"label": "mapping(uint256 => address[])",
						"numberOfBytes": "32",
						"value": "t_array(t_address)dyn_storage"
					},
					"t_mapping(t_uint256,t_array(t_struct(Crowdfunding)20_storage)dyn_storage)": {
						"encoding": "mapping",
						"key": "t_uint256",
						"label": "mapping(uint256 => struct CrowdfundingContract.Crowdfunding[])",
						"numberOfBytes": "32",
						"value": "t_array(t_struct(Crowdfunding)20_storage)dyn_storage"
					},
					"t_string_storage": {
						"encoding": "bytes",
						"label": "string",
						"numberOfBytes": "32"
					},
					"t_struct(Crowdfunding)20_storage": {
						"encoding": "inplace",
						"label": "struct CrowdfundingContract.Crowdfunding",
						"members": [
							{
								"astId": 5,
								"contract": "crowdfunding.sol:CrowdfundingContract",
								"label": "num",
								"offset": 0,
								"slot": "0",
								"type": "t_uint256"
							},
							{
								"astId": 7,
								"contract": "crowdfunding.sol:CrowdfundingContract",
								"label": "title",
								"offset": 0,
								"slot": "1",
								"type": "t_string_storage"
							},
							{
								"astId": 9,
								"contract": "crowdfunding.sol:CrowdfundingContract",
								"label": "status",
								"offset": 0,
								"slot": "2",
								"type": "t_uint256"
							},
							{
								"astId": 11,
								"contract": "crowdfunding.sol:CrowdfundingContract",
								"label": "creator",
								"offset": 0,
								"slot": "3",
								"type": "t_address"
							},
							{
								"astId": 13,
								"contract": "crowdfunding.sol:CrowdfundingContract",
								"label": "recipient",
								"offset": 0,
								"slot": "4",
								"type": "t_address"
							},
							{
								"astId": 15,
								"contract": "crowdfunding.sol:CrowdfundingContract",
								"label": "joinNum",
								"offset": 0,
								"slot": "5",
								"type": "t_uint256"
							},
							{
								"astId": 17,
								"contract": "crowdfunding.sol:CrowdfundingContract",
								"label": "expectAmout",
								"offset": 0,
								"slot": "6",
								"type": "t_uint256"
							},
							{
								"astId": 19,
								"contract": "crowdfunding.sol:CrowdfundingContract",
								"label": "actualAmount",
								"offset": 0,
								"slot": "7",
								"type": "t_uint256"
							}
						],
						"numberOfBytes": "256"
					},
					"t_uint256": {
						"encoding": "inplace",
						"label": "uint256",
						"numberOfBytes": "32"
					}
				}
			},
			"userdoc": {
				"kind": "user",
				"methods": {},
				"version": 1
			}
		}
	}
}