{
	"crowdfunding.sol": {
		"CrowdfundingContract": {
			"abi": [
				{
					"inputs": [
						{
							"internalType": "string",
							"name": "_title",
							"type": "string"
						},
						{
							"internalType": "address",
							"name": "_recipient",
							"type": "address"
						},
						{
							"internalType": "string",
							"name": "_expectAmout",
							"type": "string"
						}
					],
					"name": "createCrowdfunding",
					"outputs": [],
					"stateMutability": "nonpayable",
					"type": "function"
				},
				{
					"inputs": [
						{
							"internalType": "uint256",
							"name": "_status",
							"type": "uint256"
						}
					],
					"name": "getCrowdfundingByStatus",
					"outputs": [
						{
							"components": [
								{
									"internalType": "uint256",
									"name": "num",
									"type": "uint256"
								},
								{
									"internalType": "string",
									"name": "title",
									"type": "string"
								},
								{
									"internalType": "uint256",
									"name": "status",
									"type": "uint256"
								},
								{
									"internalType": "address",
									"name": "creator",
									"type": "address"
								},
								{
									"internalType": "address",
									"name": "recipient",
									"type": "address"
								},
								{
									"internalType": "uint256",
									"name": "joinNum",
									"type": "uint256"
								},
								{
									"internalType": "string",
									"name": "expectAmout",
									"type": "string"
								},
								{
									"internalType": "string",
									"name": "actualAmount",
									"type": "string"
								}
							],
							"internalType": "struct CrowdfundingContract.Crowdfunding[]",
							"name": "",
							"type": "tuple[]"
						}
					],
					"stateMutability": "view",
					"type": "function"
				},
				{
					"inputs": [
						{
							"internalType": "address",
							"name": "addr",
							"type": "address"
						}
					],
					"name": "getMyCrowdfunding",
					"outputs": [
						{
							"components": [
								{
									"internalType": "uint256",
									"name": "num",
									"type": "uint256"
								},
								{
									"internalType": "string",
									"name": "title",
									"type": "string"
								},
								{
									"internalType": "uint256",
									"name": "status",
									"type": "uint256"
								},
								{
									"internalType": "address",
									"name": "creator",
									"type": "address"
								},
								{
									"internalType": "address",
									"name": "recipient",
									"type": "address"
								},
								{
									"internalType": "uint256",
									"name": "joinNum",
									"type": "uint256"
								},
								{
									"internalType": "string",
									"name": "expectAmout",
									"type": "string"
								},
								{
									"internalType": "string",
									"name": "actualAmount",
									"type": "string"
								}
							],
							"internalType": "struct CrowdfundingContract.Crowdfunding[]",
							"name": "",
							"type": "tuple[]"
						}
					],
					"stateMutability": "view",
					"type": "function"
				},
				{
					"inputs": [
						{
							"internalType": "uint256",
							"name": "",
							"type": "uint256"
						}
					],
					"name": "list",
					"outputs": [
						{
							"internalType": "uint256",
							"name": "num",
							"type": "uint256"
						},
						{
							"internalType": "string",
							"name": "title",
							"type": "string"
						},
						{
							"internalType": "uint256",
							"name": "status",
							"type": "uint256"
						},
						{
							"internalType": "address",
							"name": "creator",
							"type": "address"
						},
						{
							"internalType": "address",
							"name": "recipient",
							"type": "address"
						},
						{
							"internalType": "uint256",
							"name": "joinNum",
							"type": "uint256"
						},
						{
							"internalType": "string",
							"name": "expectAmout",
							"type": "string"
						},
						{
							"internalType": "string",
							"name": "actualAmount",
							"type": "string"
						}
					],
					"stateMutability": "view",
					"type": "function"
				},
				{
					"inputs": [
						{
							"internalType": "uint256",
							"name": "num",
							"type": "uint256"
						}
					],
					"name": "setStatus",
					"outputs": [],
					"stateMutability": "nonpayable",
					"type": "function"
				},
				{
					"inputs": [
						{
							"internalType": "uint256",
							"name": "num",
							"type": "uint256"
						},
						{
							"internalType": "string",
							"name": "title",
							"type": "string"
						}
					],
					"name": "setTitle",
					"outputs": [],
					"stateMutability": "nonpayable",
					"type": "function"
				}
			],
			"devdoc": {
				"kind": "dev",
				"methods": {},
				"version": 1
			},
			"evm": {
				"assembly": "    /* \"crowdfunding.sol\":290:2849  contract CrowdfundingContract {\r... */\n  mstore(0x40, 0x80)\n  callvalue\n  dup1\n  iszero\n  tag_1\n  jumpi\n  0x00\n  dup1\n  revert\ntag_1:\n  pop\n  dataSize(sub_0)\n  dup1\n  dataOffset(sub_0)\n  0x00\n  codecopy\n  0x00\n  return\nstop\n\nsub_0: assembly {\n        /* \"crowdfunding.sol\":290:2849  contract CrowdfundingContract {\r... */\n      mstore(0x40, 0x80)\n      callvalue\n      dup1\n      iszero\n      tag_1\n      jumpi\n      0x00\n      dup1\n      revert\n    tag_1:\n      pop\n      jumpi(tag_2, lt(calldatasize, 0x04))\n      shr(0xe0, calldataload(0x00))\n      dup1\n      0x377e6ff7\n      eq\n      tag_3\n      jumpi\n      dup1\n      0x5102bc9d\n      eq\n      tag_4\n      jumpi\n      dup1\n      0x69ba1a75\n      eq\n      tag_5\n      jumpi\n      dup1\n      0x80c9419e\n      eq\n      tag_6\n      jumpi\n      dup1\n      0x904cc175\n      eq\n      tag_7\n      jumpi\n      dup1\n      0xa97af4d5\n      eq\n      tag_8\n      jumpi\n    tag_2:\n      0x00\n      dup1\n      revert\n        /* \"crowdfunding.sol\":2715:2846  function getMyCrowdfunding(address addr) public view returns (Crowdfunding[] memory) {\r... */\n    tag_3:\n      tag_9\n      0x04\n      dup1\n      calldatasize\n      sub\n      dup2\n      add\n      swap1\n      tag_10\n      swap2\n      swap1\n      tag_11\n      jump\t// in\n    tag_10:\n      tag_12\n      jump\t// in\n    tag_9:\n      mload(0x40)\n      tag_13\n      swap2\n      swap1\n      tag_14\n      jump\t// in\n    tag_13:\n      mload(0x40)\n      dup1\n      swap2\n      sub\n      swap1\n      return\n        /* \"crowdfunding.sol\":2329:2428  function setTitle(uint num,string memory title) public {\r... */\n    tag_4:\n      tag_15\n      0x04\n      dup1\n      calldatasize\n      sub\n      dup2\n      add\n      swap1\n      tag_16\n      swap2\n      swap1\n      tag_17\n      jump\t// in\n    tag_16:\n      tag_18\n      jump\t// in\n    tag_15:\n      stop\n        /* \"crowdfunding.sol\":1654:2246  function setStatus(uint num) public {\r... */\n    tag_5:\n      tag_19\n      0x04\n      dup1\n      calldatasize\n      sub\n      dup2\n      add\n      swap1\n      tag_20\n      swap2\n      swap1\n      tag_21\n      jump\t// in\n    tag_20:\n      tag_22\n      jump\t// in\n    tag_19:\n      stop\n        /* \"crowdfunding.sol\":813:839  Crowdfunding[] public list */\n    tag_6:\n      tag_23\n      0x04\n      dup1\n      calldatasize\n      sub\n      dup2\n      add\n      swap1\n      tag_24\n      swap2\n      swap1\n      tag_21\n      jump\t// in\n    tag_24:\n      tag_25\n      jump\t// in\n    tag_23:\n      mload(0x40)\n      tag_26\n      swap9\n      swap8\n      swap7\n      swap6\n      swap5\n      swap4\n      swap3\n      swap2\n      swap1\n      tag_27\n      jump\t// in\n    tag_26:\n      mload(0x40)\n      dup1\n      swap2\n      sub\n      swap1\n      return\n        /* \"crowdfunding.sol\":2482:2665  function getCrowdfundingByStatus(uint _status) public view returns (Crowdfunding[] memory) {\r... */\n    tag_7:\n      tag_28\n      0x04\n      dup1\n      calldatasize\n      sub\n      dup2\n      add\n      swap1\n      tag_29\n      swap2\n      swap1\n      tag_21\n      jump\t// in\n    tag_29:\n      tag_30\n      jump\t// in\n    tag_28:\n      mload(0x40)\n      tag_31\n      swap2\n      swap1\n      tag_14\n      jump\t// in\n    tag_31:\n      mload(0x40)\n      dup1\n      swap2\n      sub\n      swap1\n      return\n        /* \"crowdfunding.sol\":959:1575  function createCrowdfunding(string memory _title,address _recipient, string memory _expectAmout) public {\r... */\n    tag_8:\n      tag_32\n      0x04\n      dup1\n      calldatasize\n      sub\n      dup2\n      add\n      swap1\n      tag_33\n      swap2\n      swap1\n      tag_34\n      jump\t// in\n    tag_33:\n      tag_35\n      jump\t// in\n    tag_32:\n      stop\n        /* \"crowdfunding.sol\":2715:2846  function getMyCrowdfunding(address addr) public view returns (Crowdfunding[] memory) {\r... */\n    tag_12:\n        /* \"crowdfunding.sol\":2777:2798  Crowdfunding[] memory */\n      0x60\n        /* \"crowdfunding.sol\":2818:2832  myCrowdfunding */\n      0x03\n        /* \"crowdfunding.sol\":2818:2838  myCrowdfunding[addr] */\n      0x00\n        /* \"crowdfunding.sol\":2833:2837  addr */\n      dup4\n        /* \"crowdfunding.sol\":2818:2838  myCrowdfunding[addr] */\n      0xffffffffffffffffffffffffffffffffffffffff\n      and\n      0xffffffffffffffffffffffffffffffffffffffff\n      and\n      dup2\n      mstore\n      0x20\n      add\n      swap1\n      dup2\n      mstore\n      0x20\n      add\n      0x00\n      keccak256\n        /* \"crowdfunding.sol\":2811:2838  return myCrowdfunding[addr] */\n      dup1\n      sload\n      dup1\n      0x20\n      mul\n      0x20\n      add\n      mload(0x40)\n      swap1\n      dup2\n      add\n      0x40\n      mstore\n      dup1\n      swap3\n      swap2\n      swap1\n      dup2\n      dup2\n      mstore\n      0x20\n      add\n      0x00\n      swap1\n    tag_37:\n      dup3\n      dup3\n      lt\n      iszero\n      tag_38\n      jumpi\n      dup4\n      dup3\n      swap1\n      0x00\n      mstore\n      keccak256(0x00, 0x20)\n      swap1\n      0x08\n      mul\n      add\n      mload(0x40)\n      dup1\n      0x0100\n      add\n      0x40\n      mstore\n      swap1\n      dup2\n      0x00\n      dup3\n      add\n      sload\n      dup2\n      mstore\n      0x20\n      add\n      0x01\n      dup3\n      add\n      dup1\n      sload\n      tag_40\n      swap1\n      tag_41\n      jump\t// in\n    tag_40:\n      dup1\n      0x1f\n      add\n      0x20\n      dup1\n      swap2\n      div\n      mul\n      0x20\n      add\n      mload(0x40)\n      swap1\n      dup2\n      add\n      0x40\n      mstore\n      dup1\n      swap3\n      swap2\n      swap1\n      dup2\n      dup2\n      mstore\n      0x20\n      add\n      dup3\n      dup1\n      sload\n      tag_42\n      swap1\n      tag_41\n      jump\t// in\n    tag_42:\n      dup1\n      iszero\n      tag_43\n      jumpi\n      dup1\n      0x1f\n      lt\n      tag_44\n      jumpi\n      0x0100\n      dup1\n      dup4\n      sload\n      div\n      mul\n      dup4\n      mstore\n      swap2\n      0x20\n      add\n      swap2\n      jump(tag_43)\n    tag_44:\n      dup3\n      add\n      swap2\n      swap1\n      0x00\n      mstore\n      keccak256(0x00, 0x20)\n      swap1\n    tag_45:\n      dup2\n      sload\n      dup2\n      mstore\n      swap1\n      0x01\n      add\n      swap1\n      0x20\n      add\n      dup1\n      dup4\n      gt\n      tag_45\n      jumpi\n      dup3\n      swap1\n      sub\n      0x1f\n      and\n      dup3\n      add\n      swap2\n    tag_43:\n      pop\n      pop\n      pop\n      pop\n      pop\n      dup2\n      mstore\n      0x20\n      add\n      0x02\n      dup3\n      add\n      sload\n      dup2\n      mstore\n      0x20\n      add\n      0x03\n      dup3\n      add\n      0x00\n      swap1\n      sload\n      swap1\n      0x0100\n      exp\n      swap1\n      div\n      0xffffffffffffffffffffffffffffffffffffffff\n      and\n      0xffffffffffffffffffffffffffffffffffffffff\n      and\n      0xffffffffffffffffffffffffffffffffffffffff\n      and\n      dup2\n      mstore\n      0x20\n      add\n      0x04\n      dup3\n      add\n      0x00\n      swap1\n      sload\n      swap1\n      0x0100\n      exp\n      swap1\n      div\n      0xffffffffffffffffffffffffffffffffffffffff\n      and\n      0xffffffffffffffffffffffffffffffffffffffff\n      and\n      0xffffffffffffffffffffffffffffffffffffffff\n      and\n      dup2\n      mstore\n      0x20\n      add\n      0x05\n      dup3\n      add\n      sload\n      dup2\n      mstore\n      0x20\n      add\n      0x06\n      dup3\n      add\n      dup1\n      sload\n      tag_46\n      swap1\n      tag_41\n      jump\t// in\n    tag_46:\n      dup1\n      0x1f\n      add\n      0x20\n      dup1\n      swap2\n      div\n      mul\n      0x20\n      add\n      mload(0x40)\n      swap1\n      dup2\n      add\n      0x40\n      mstore\n      dup1\n      swap3\n      swap2\n      swap1\n      dup2\n      dup2\n      mstore\n      0x20\n      add\n      dup3\n      dup1\n      sload\n      tag_47\n      swap1\n      tag_41\n      jump\t// in\n    tag_47:\n      dup1\n      iszero\n      tag_48\n      jumpi\n      dup1\n      0x1f\n      lt\n      tag_49\n      jumpi\n      0x0100\n      dup1\n      dup4\n      sload\n      div\n      mul\n      dup4\n      mstore\n      swap2\n      0x20\n      add\n      swap2\n      jump(tag_48)\n    tag_49:\n      dup3\n      add\n      swap2\n      swap1\n      0x00\n      mstore\n      keccak256(0x00, 0x20)\n      swap1\n    tag_50:\n      dup2\n      sload\n      dup2\n      mstore\n      swap1\n      0x01\n      add\n      swap1\n      0x20\n      add\n      dup1\n      dup4\n      gt\n      tag_50\n      jumpi\n      dup3\n      swap1\n      sub\n      0x1f\n      and\n      dup3\n      add\n      swap2\n    tag_48:\n      pop\n      pop\n      pop\n      pop\n      pop\n      dup2\n      mstore\n      0x20\n      add\n      0x07\n      dup3\n      add\n      dup1\n      sload\n      tag_51\n      swap1\n      tag_41\n      jump\t// in\n    tag_51:\n      dup1\n      0x1f\n      add\n      0x20\n      dup1\n      swap2\n      div\n      mul\n      0x20\n      add\n      mload(0x40)\n      swap1\n      dup2\n      add\n      0x40\n      mstore\n      dup1\n      swap3\n      swap2\n      swap1\n      dup2\n      dup2\n      mstore\n      0x20\n      add\n      dup3\n      dup1\n      sload\n      tag_52\n      swap1\n      tag_41\n      jump\t// in\n    tag_52:\n      dup1\n      iszero\n      tag_53\n      jumpi\n      dup1\n      0x1f\n      lt\n      tag_54\n      jumpi\n      0x0100\n      dup1\n      dup4\n      sload\n      div\n      mul\n      dup4\n      mstore\n      swap2\n      0x20\n      add\n      swap2\n      jump(tag_53)\n    tag_54:\n      dup3\n      add\n      swap2\n      swap1\n      0x00\n      mstore\n      keccak256(0x00, 0x20)\n      swap1\n    tag_55:\n      dup2\n      sload\n      dup2\n      mstore\n      swap1\n      0x01\n      add\n      swap1\n      0x20\n      add\n      dup1\n      dup4\n      gt\n      tag_55\n      jumpi\n      dup3\n      swap1\n      sub\n      0x1f\n      and\n      dup3\n      add\n      swap2\n    tag_53:\n      pop\n      pop\n      pop\n      pop\n      pop\n      dup2\n      mstore\n      pop\n      pop\n      dup2\n      mstore\n      0x20\n      add\n      swap1\n      0x01\n      add\n      swap1\n      jump(tag_37)\n    tag_38:\n      pop\n      pop\n      pop\n      pop\n      swap1\n      pop\n        /* \"crowdfunding.sol\":2715:2846  function getMyCrowdfunding(address addr) public view returns (Crowdfunding[] memory) {\r... */\n      swap2\n      swap1\n      pop\n      jump\t// out\n        /* \"crowdfunding.sol\":2329:2428  function setTitle(uint num,string memory title) public {\r... */\n    tag_18:\n        /* \"crowdfunding.sol\":2415:2420  title */\n      dup1\n        /* \"crowdfunding.sol\":2395:2399  list */\n      0x01\n        /* \"crowdfunding.sol\":2404:2405  1 */\n      dup1\n        /* \"crowdfunding.sol\":2400:2403  num */\n      dup5\n        /* \"crowdfunding.sol\":2400:2405  num-1 */\n      tag_57\n      swap2\n      swap1\n      tag_58\n      jump\t// in\n    tag_57:\n        /* \"crowdfunding.sol\":2395:2406  list[num-1] */\n      dup2\n      sload\n      dup2\n      lt\n      tag_59\n      jumpi\n      tag_60\n      tag_61\n      jump\t// in\n    tag_60:\n    tag_59:\n      swap1\n      0x00\n      mstore\n      keccak256(0x00, 0x20)\n      swap1\n      0x08\n      mul\n      add\n        /* \"crowdfunding.sol\":2395:2412  list[num-1].title */\n      0x01\n      add\n        /* \"crowdfunding.sol\":2395:2420  list[num-1].title = title */\n      swap1\n      dup1\n      mload\n      swap1\n      0x20\n      add\n      swap1\n      tag_63\n      swap3\n      swap2\n      swap1\n      tag_64\n      jump\t// in\n    tag_63:\n      pop\n        /* \"crowdfunding.sol\":2329:2428  function setTitle(uint num,string memory title) public {\r... */\n      pop\n      pop\n      jump\t// out\n        /* \"crowdfunding.sol\":1654:2246  function setStatus(uint num) public {\r... */\n    tag_22:\n        /* \"crowdfunding.sol\":1722:1723  3 */\n      0x03\n        /* \"crowdfunding.sol\":1701:1705  list */\n      0x01\n        /* \"crowdfunding.sol\":1710:1711  1 */\n      dup1\n        /* \"crowdfunding.sol\":1706:1709  num */\n      dup4\n        /* \"crowdfunding.sol\":1706:1711  num-1 */\n      tag_66\n      swap2\n      swap1\n      tag_58\n      jump\t// in\n    tag_66:\n        /* \"crowdfunding.sol\":1701:1712  list[num-1] */\n      dup2\n      sload\n      dup2\n      lt\n      tag_67\n      jumpi\n      tag_68\n      tag_61\n      jump\t// in\n    tag_68:\n    tag_67:\n      swap1\n      0x00\n      mstore\n      keccak256(0x00, 0x20)\n      swap1\n      0x08\n      mul\n      add\n        /* \"crowdfunding.sol\":1701:1719  list[num-1].status */\n      0x02\n      add\n        /* \"crowdfunding.sol\":1701:1723  list[num-1].status = 3 */\n      dup2\n      swap1\n      sstore\n      pop\n        /* \"crowdfunding.sol\":1832:1833  1 */\n      0x01\n        /* \"crowdfunding.sol\":1800:1818  filterDataByStatus */\n      0x02\n        /* \"crowdfunding.sol\":1800:1821  filterDataByStatus[1] */\n      0x00\n        /* \"crowdfunding.sol\":1819:1820  1 */\n      0x01\n        /* \"crowdfunding.sol\":1800:1821  filterDataByStatus[1] */\n      dup2\n      mstore\n      0x20\n      add\n      swap1\n      dup2\n      mstore\n      0x20\n      add\n      0x00\n      keccak256\n        /* \"crowdfunding.sol\":1800:1828  filterDataByStatus[1].length */\n      dup1\n      sload\n      swap1\n      pop\n        /* \"crowdfunding.sol\":1800:1833  filterDataByStatus[1].length == 1 */\n      eq\n        /* \"crowdfunding.sol\":1797:2189  if(filterDataByStatus[1].length == 1){\r... */\n      iszero\n      tag_70\n      jumpi\n        /* \"crowdfunding.sol\":1849:1867  filterDataByStatus */\n      0x02\n        /* \"crowdfunding.sol\":1849:1870  filterDataByStatus[1] */\n      0x00\n        /* \"crowdfunding.sol\":1868:1869  1 */\n      0x01\n        /* \"crowdfunding.sol\":1849:1870  filterDataByStatus[1] */\n      dup2\n      mstore\n      0x20\n      add\n      swap1\n      dup2\n      mstore\n      0x20\n      add\n      0x00\n      keccak256\n        /* \"crowdfunding.sol\":1849:1876  filterDataByStatus[1].pop() */\n      dup1\n      sload\n      dup1\n      tag_71\n      jumpi\n      tag_72\n      tag_73\n      jump\t// in\n    tag_72:\n    tag_71:\n      0x01\n      swap1\n      sub\n      dup2\n      dup2\n      swap1\n      0x00\n      mstore\n      keccak256(0x00, 0x20)\n      swap1\n      0x08\n      mul\n      add\n      0x00\n      dup1\n      dup3\n      add\n      0x00\n      swap1\n      sstore\n      0x01\n      dup3\n      add\n      0x00\n      tag_75\n      swap2\n      swap1\n      tag_76\n      jump\t// in\n    tag_75:\n      0x02\n      dup3\n      add\n      0x00\n      swap1\n      sstore\n      0x03\n      dup3\n      add\n      exp(0x0100, 0x00)\n      dup2\n      sload\n      swap1\n      0xffffffffffffffffffffffffffffffffffffffff\n      mul\n      not\n      and\n      swap1\n      sstore\n      0x04\n      dup3\n      add\n      exp(0x0100, 0x00)\n      dup2\n      sload\n      swap1\n      0xffffffffffffffffffffffffffffffffffffffff\n      mul\n      not\n      and\n      swap1\n      sstore\n      0x05\n      dup3\n      add\n      0x00\n      swap1\n      sstore\n      0x06\n      dup3\n      add\n      0x00\n      tag_77\n      swap2\n      swap1\n      tag_76\n      jump\t// in\n    tag_77:\n      0x07\n      dup3\n      add\n      0x00\n      tag_78\n      swap2\n      swap1\n      tag_76\n      jump\t// in\n    tag_78:\n      pop\n      pop\n      swap1\n      sstore\n        /* \"crowdfunding.sol\":1797:2189  if(filterDataByStatus[1].length == 1){\r... */\n      jump(tag_79)\n    tag_70:\n        /* \"crowdfunding.sol\":1911:1917  uint i */\n      0x00\n        /* \"crowdfunding.sol\":1907:2136  for(uint i = 0; i < filterDataByStatus[1].length - 1; i++) {\r... */\n    tag_80:\n        /* \"crowdfunding.sol\":1958:1959  1 */\n      0x01\n        /* \"crowdfunding.sol\":1927:1945  filterDataByStatus */\n      0x02\n        /* \"crowdfunding.sol\":1927:1948  filterDataByStatus[1] */\n      0x00\n        /* \"crowdfunding.sol\":1946:1947  1 */\n      0x01\n        /* \"crowdfunding.sol\":1927:1948  filterDataByStatus[1] */\n      dup2\n      mstore\n      0x20\n      add\n      swap1\n      dup2\n      mstore\n      0x20\n      add\n      0x00\n      keccak256\n        /* \"crowdfunding.sol\":1927:1955  filterDataByStatus[1].length */\n      dup1\n      sload\n      swap1\n      pop\n        /* \"crowdfunding.sol\":1927:1959  filterDataByStatus[1].length - 1 */\n      tag_83\n      swap2\n      swap1\n      tag_58\n      jump\t// in\n    tag_83:\n        /* \"crowdfunding.sol\":1923:1924  i */\n      dup2\n        /* \"crowdfunding.sol\":1923:1959  i < filterDataByStatus[1].length - 1 */\n      lt\n        /* \"crowdfunding.sol\":1907:2136  for(uint i = 0; i < filterDataByStatus[1].length - 1; i++) {\r... */\n      iszero\n      tag_81\n      jumpi\n        /* \"crowdfunding.sol\":2020:2023  num */\n      dup2\n        /* \"crowdfunding.sol\":1988:2006  filterDataByStatus */\n      0x02\n        /* \"crowdfunding.sol\":1988:2009  filterDataByStatus[1] */\n      0x00\n        /* \"crowdfunding.sol\":2007:2008  1 */\n      0x01\n        /* \"crowdfunding.sol\":1988:2009  filterDataByStatus[1] */\n      dup2\n      mstore\n      0x20\n      add\n      swap1\n      dup2\n      mstore\n      0x20\n      add\n      0x00\n      keccak256\n        /* \"crowdfunding.sol\":2010:2011  i */\n      dup3\n        /* \"crowdfunding.sol\":1988:2012  filterDataByStatus[1][i] */\n      dup2\n      sload\n      dup2\n      lt\n      tag_84\n      jumpi\n      tag_85\n      tag_61\n      jump\t// in\n    tag_85:\n    tag_84:\n      swap1\n      0x00\n      mstore\n      keccak256(0x00, 0x20)\n      swap1\n      0x08\n      mul\n      add\n        /* \"crowdfunding.sol\":1988:2016  filterDataByStatus[1][i].num */\n      0x00\n      add\n      sload\n        /* \"crowdfunding.sol\":1988:2023  filterDataByStatus[1][i].num == num */\n      eq\n        /* \"crowdfunding.sol\":1985:2121  if(filterDataByStatus[1][i].num == num) {\r... */\n      iszero\n      tag_87\n      jumpi\n        /* \"crowdfunding.sol\":2075:2093  filterDataByStatus */\n      0x02\n        /* \"crowdfunding.sol\":2075:2096  filterDataByStatus[1] */\n      0x00\n        /* \"crowdfunding.sol\":2094:2095  1 */\n      0x01\n        /* \"crowdfunding.sol\":2075:2096  filterDataByStatus[1] */\n      dup2\n      mstore\n      0x20\n      add\n      swap1\n      dup2\n      mstore\n      0x20\n      add\n      0x00\n      keccak256\n        /* \"crowdfunding.sol\":2099:2100  1 */\n      0x01\n        /* \"crowdfunding.sol\":2097:2098  i */\n      dup3\n        /* \"crowdfunding.sol\":2097:2100  i+1 */\n      tag_88\n      swap2\n      swap1\n      tag_89\n      jump\t// in\n    tag_88:\n        /* \"crowdfunding.sol\":2075:2101  filterDataByStatus[1][i+1] */\n      dup2\n      sload\n      dup2\n      lt\n      tag_90\n      jumpi\n      tag_91\n      tag_61\n      jump\t// in\n    tag_91:\n    tag_90:\n      swap1\n      0x00\n      mstore\n      keccak256(0x00, 0x20)\n      swap1\n      0x08\n      mul\n      add\n        /* \"crowdfunding.sol\":2048:2066  filterDataByStatus */\n      0x02\n        /* \"crowdfunding.sol\":2048:2069  filterDataByStatus[1] */\n      0x00\n        /* \"crowdfunding.sol\":2067:2068  1 */\n      0x01\n        /* \"crowdfunding.sol\":2048:2069  filterDataByStatus[1] */\n      dup2\n      mstore\n      0x20\n      add\n      swap1\n      dup2\n      mstore\n      0x20\n      add\n      0x00\n      keccak256\n        /* \"crowdfunding.sol\":2070:2071  i */\n      dup3\n        /* \"crowdfunding.sol\":2048:2072  filterDataByStatus[1][i] */\n      dup2\n      sload\n      dup2\n      lt\n      tag_93\n      jumpi\n      tag_94\n      tag_61\n      jump\t// in\n    tag_94:\n    tag_93:\n      swap1\n      0x00\n      mstore\n      keccak256(0x00, 0x20)\n      swap1\n      0x08\n      mul\n      add\n        /* \"crowdfunding.sol\":2048:2101  filterDataByStatus[1][i] = filterDataByStatus[1][i+1] */\n      0x00\n      dup3\n      add\n      sload\n      dup2\n      0x00\n      add\n      sstore\n      0x01\n      dup3\n      add\n      dup2\n      0x01\n      add\n      swap1\n      dup1\n      sload\n      tag_96\n      swap1\n      tag_41\n      jump\t// in\n    tag_96:\n      tag_97\n      swap3\n      swap2\n      swap1\n      tag_98\n      jump\t// in\n    tag_97:\n      pop\n      0x02\n      dup3\n      add\n      sload\n      dup2\n      0x02\n      add\n      sstore\n      0x03\n      dup3\n      add\n      0x00\n      swap1\n      sload\n      swap1\n      0x0100\n      exp\n      swap1\n      div\n      0xffffffffffffffffffffffffffffffffffffffff\n      and\n      dup2\n      0x03\n      add\n      exp(0x0100, 0x00)\n      dup2\n      sload\n      dup2\n      0xffffffffffffffffffffffffffffffffffffffff\n      mul\n      not\n      and\n      swap1\n      dup4\n      0xffffffffffffffffffffffffffffffffffffffff\n      and\n      mul\n      or\n      swap1\n      sstore\n      pop\n      0x04\n      dup3\n      add\n      0x00\n      swap1\n      sload\n      swap1\n      0x0100\n      exp\n      swap1\n      div\n      0xffffffffffffffffffffffffffffffffffffffff\n      and\n      dup2\n      0x04\n      add\n      exp(0x0100, 0x00)\n      dup2\n      sload\n      dup2\n      0xffffffffffffffffffffffffffffffffffffffff\n      mul\n      not\n      and\n      swap1\n      dup4\n      0xffffffffffffffffffffffffffffffffffffffff\n      and\n      mul\n      or\n      swap1\n      sstore\n      pop\n      0x05\n      dup3\n      add\n      sload\n      dup2\n      0x05\n      add\n      sstore\n      0x06\n      dup3\n      add\n      dup2\n      0x06\n      add\n      swap1\n      dup1\n      sload\n      tag_99\n      swap1\n      tag_41\n      jump\t// in\n    tag_99:\n      tag_100\n      swap3\n      swap2\n      swap1\n      tag_98\n      jump\t// in\n    tag_100:\n      pop\n      0x07\n      dup3\n      add\n      dup2\n      0x07\n      add\n      swap1\n      dup1\n      sload\n      tag_101\n      swap1\n      tag_41\n      jump\t// in\n    tag_101:\n      tag_102\n      swap3\n      swap2\n      swap1\n      tag_98\n      jump\t// in\n    tag_102:\n      pop\n      swap1\n      pop\n      pop\n        /* \"crowdfunding.sol\":1985:2121  if(filterDataByStatus[1][i].num == num) {\r... */\n    tag_87:\n        /* \"crowdfunding.sol\":1961:1964  i++ */\n      dup1\n      dup1\n      tag_103\n      swap1\n      tag_104\n      jump\t// in\n    tag_103:\n      swap2\n      pop\n      pop\n        /* \"crowdfunding.sol\":1907:2136  for(uint i = 0; i < filterDataByStatus[1].length - 1; i++) {\r... */\n      jump(tag_80)\n    tag_81:\n      pop\n        /* \"crowdfunding.sol\":2150:2168  filterDataByStatus */\n      0x02\n        /* \"crowdfunding.sol\":2150:2171  filterDataByStatus[1] */\n      0x00\n        /* \"crowdfunding.sol\":2169:2170  1 */\n      0x01\n        /* \"crowdfunding.sol\":2150:2171  filterDataByStatus[1] */\n      dup2\n      mstore\n      0x20\n      add\n      swap1\n      dup2\n      mstore\n      0x20\n      add\n      0x00\n      keccak256\n        /* \"crowdfunding.sol\":2150:2177  filterDataByStatus[1].pop() */\n      dup1\n      sload\n      dup1\n      tag_105\n      jumpi\n      tag_106\n      tag_73\n      jump\t// in\n    tag_106:\n    tag_105:\n      0x01\n      swap1\n      sub\n      dup2\n      dup2\n      swap1\n      0x00\n      mstore\n      keccak256(0x00, 0x20)\n      swap1\n      0x08\n      mul\n      add\n      0x00\n      dup1\n      dup3\n      add\n      0x00\n      swap1\n      sstore\n      0x01\n      dup3\n      add\n      0x00\n      tag_108\n      swap2\n      swap1\n      tag_76\n      jump\t// in\n    tag_108:\n      0x02\n      dup3\n      add\n      0x00\n      swap1\n      sstore\n      0x03\n      dup3\n      add\n      exp(0x0100, 0x00)\n      dup2\n      sload\n      swap1\n      0xffffffffffffffffffffffffffffffffffffffff\n      mul\n      not\n      and\n      swap1\n      sstore\n      0x04\n      dup3\n      add\n      exp(0x0100, 0x00)\n      dup2\n      sload\n      swap1\n      0xffffffffffffffffffffffffffffffffffffffff\n      mul\n      not\n      and\n      swap1\n      sstore\n      0x05\n      dup3\n      add\n      0x00\n      swap1\n      sstore\n      0x06\n      dup3\n      add\n      0x00\n      tag_109\n      swap2\n      swap1\n      tag_76\n      jump\t// in\n    tag_109:\n      0x07\n      dup3\n      add\n      0x00\n      tag_110\n      swap2\n      swap1\n      tag_76\n      jump\t// in\n    tag_110:\n      pop\n      pop\n      swap1\n      sstore\n        /* \"crowdfunding.sol\":1797:2189  if(filterDataByStatus[1].length == 1){\r... */\n    tag_79:\n        /* \"crowdfunding.sol\":2199:2217  filterDataByStatus */\n      0x02\n        /* \"crowdfunding.sol\":2199:2220  filterDataByStatus[3] */\n      0x00\n        /* \"crowdfunding.sol\":2218:2219  3 */\n      0x03\n        /* \"crowdfunding.sol\":2199:2220  filterDataByStatus[3] */\n      dup2\n      mstore\n      0x20\n      add\n      swap1\n      dup2\n      mstore\n      0x20\n      add\n      0x00\n      keccak256\n        /* \"crowdfunding.sol\":2226:2230  list */\n      0x01\n        /* \"crowdfunding.sol\":2235:2236  1 */\n      dup1\n        /* \"crowdfunding.sol\":2231:2234  num */\n      dup4\n        /* \"crowdfunding.sol\":2231:2236  num-1 */\n      tag_111\n      swap2\n      swap1\n      tag_58\n      jump\t// in\n    tag_111:\n        /* \"crowdfunding.sol\":2226:2237  list[num-1] */\n      dup2\n      sload\n      dup2\n      lt\n      tag_112\n      jumpi\n      tag_113\n      tag_61\n      jump\t// in\n    tag_113:\n    tag_112:\n      swap1\n      0x00\n      mstore\n      keccak256(0x00, 0x20)\n      swap1\n      0x08\n      mul\n      add\n        /* \"crowdfunding.sol\":2199:2238  filterDataByStatus[3].push(list[num-1]) */\n      swap1\n      dup1\n      0x01\n      dup2\n      sload\n      add\n      dup1\n      dup3\n      sstore\n      dup1\n      swap2\n      pop\n      pop\n      0x01\n      swap1\n      sub\n      swap1\n      0x00\n      mstore\n      keccak256(0x00, 0x20)\n      swap1\n      0x08\n      mul\n      add\n      0x00\n      swap1\n      swap2\n      swap1\n      swap2\n      swap1\n      swap2\n      pop\n      0x00\n      dup3\n      add\n      sload\n      dup2\n      0x00\n      add\n      sstore\n      0x01\n      dup3\n      add\n      dup2\n      0x01\n      add\n      swap1\n      dup1\n      sload\n      tag_116\n      swap1\n      tag_41\n      jump\t// in\n    tag_116:\n      tag_117\n      swap3\n      swap2\n      swap1\n      tag_98\n      jump\t// in\n    tag_117:\n      pop\n      0x02\n      dup3\n      add\n      sload\n      dup2\n      0x02\n      add\n      sstore\n      0x03\n      dup3\n      add\n      0x00\n      swap1\n      sload\n      swap1\n      0x0100\n      exp\n      swap1\n      div\n      0xffffffffffffffffffffffffffffffffffffffff\n      and\n      dup2\n      0x03\n      add\n      exp(0x0100, 0x00)\n      dup2\n      sload\n      dup2\n      0xffffffffffffffffffffffffffffffffffffffff\n      mul\n      not\n      and\n      swap1\n      dup4\n      0xffffffffffffffffffffffffffffffffffffffff\n      and\n      mul\n      or\n      swap1\n      sstore\n      pop\n      0x04\n      dup3\n      add\n      0x00\n      swap1\n      sload\n      swap1\n      0x0100\n      exp\n      swap1\n      div\n      0xffffffffffffffffffffffffffffffffffffffff\n      and\n      dup2\n      0x04\n      add\n      exp(0x0100, 0x00)\n      dup2\n      sload\n      dup2\n      0xffffffffffffffffffffffffffffffffffffffff\n      mul\n      not\n      and\n      swap1\n      dup4\n      0xffffffffffffffffffffffffffffffffffffffff\n      and\n      mul\n      or\n      swap1\n      sstore\n      pop\n      0x05\n      dup3\n      add\n      sload\n      dup2\n      0x05\n      add\n      sstore\n      0x06\n      dup3\n      add\n      dup2\n      0x06\n      add\n      swap1\n      dup1\n      sload\n      tag_118\n      swap1\n      tag_41\n      jump\t// in\n    tag_118:\n      tag_119\n      swap3\n      swap2\n      swap1\n      tag_98\n      jump\t// in\n    tag_119:\n      pop\n      0x07\n      dup3\n      add\n      dup2\n      0x07\n      add\n      swap1\n      dup1\n      sload\n      tag_120\n      swap1\n      tag_41\n      jump\t// in\n    tag_120:\n      tag_121\n      swap3\n      swap2\n      swap1\n      tag_98\n      jump\t// in\n    tag_121:\n      pop\n      pop\n      pop\n        /* \"crowdfunding.sol\":1654:2246  function setStatus(uint num) public {\r... */\n      pop\n      jump\t// out\n        /* \"crowdfunding.sol\":813:839  Crowdfunding[] public list */\n    tag_25:\n      0x01\n      dup2\n      dup2\n      sload\n      dup2\n      lt\n      tag_122\n      jumpi\n      0x00\n      dup1\n      revert\n    tag_122:\n      swap1\n      0x00\n      mstore\n      keccak256(0x00, 0x20)\n      swap1\n      0x08\n      mul\n      add\n      0x00\n      swap2\n      pop\n      swap1\n      pop\n      dup1\n      0x00\n      add\n      sload\n      swap1\n      dup1\n      0x01\n      add\n      dup1\n      sload\n      tag_124\n      swap1\n      tag_41\n      jump\t// in\n    tag_124:\n      dup1\n      0x1f\n      add\n      0x20\n      dup1\n      swap2\n      div\n      mul\n      0x20\n      add\n      mload(0x40)\n      swap1\n      dup2\n      add\n      0x40\n      mstore\n      dup1\n      swap3\n      swap2\n      swap1\n      dup2\n      dup2\n      mstore\n      0x20\n      add\n      dup3\n      dup1\n      sload\n      tag_125\n      swap1\n      tag_41\n      jump\t// in\n    tag_125:\n      dup1\n      iszero\n      tag_126\n      jumpi\n      dup1\n      0x1f\n      lt\n      tag_127\n      jumpi\n      0x0100\n      dup1\n      dup4\n      sload\n      div\n      mul\n      dup4\n      mstore\n      swap2\n      0x20\n      add\n      swap2\n      jump(tag_126)\n    tag_127:\n      dup3\n      add\n      swap2\n      swap1\n      0x00\n      mstore\n      keccak256(0x00, 0x20)\n      swap1\n    tag_128:\n      dup2\n      sload\n      dup2\n      mstore\n      swap1\n      0x01\n      add\n      swap1\n      0x20\n      add\n      dup1\n      dup4\n      gt\n      tag_128\n      jumpi\n      dup3\n      swap1\n      sub\n      0x1f\n      and\n      dup3\n      add\n      swap2\n    tag_126:\n      pop\n      pop\n      pop\n      pop\n      pop\n      swap1\n      dup1\n      0x02\n      add\n      sload\n      swap1\n      dup1\n      0x03\n      add\n      0x00\n      swap1\n      sload\n      swap1\n      0x0100\n      exp\n      swap1\n      div\n      0xffffffffffffffffffffffffffffffffffffffff\n      and\n      swap1\n      dup1\n      0x04\n      add\n      0x00\n      swap1\n      sload\n      swap1\n      0x0100\n      exp\n      swap1\n      div\n      0xffffffffffffffffffffffffffffffffffffffff\n      and\n      swap1\n      dup1\n      0x05\n      add\n      sload\n      swap1\n      dup1\n      0x06\n      add\n      dup1\n      sload\n      tag_129\n      swap1\n      tag_41\n      jump\t// in\n    tag_129:\n      dup1\n      0x1f\n      add\n      0x20\n      dup1\n      swap2\n      div\n      mul\n      0x20\n      add\n      mload(0x40)\n      swap1\n      dup2\n      add\n      0x40\n      mstore\n      dup1\n      swap3\n      swap2\n      swap1\n      dup2\n      dup2\n      mstore\n      0x20\n      add\n      dup3\n      dup1\n      sload\n      tag_130\n      swap1\n      tag_41\n      jump\t// in\n    tag_130:\n      dup1\n      iszero\n      tag_131\n      jumpi\n      dup1\n      0x1f\n      lt\n      tag_132\n      jumpi\n      0x0100\n      dup1\n      dup4\n      sload\n      div\n      mul\n      dup4\n      mstore\n      swap2\n      0x20\n      add\n      swap2\n      jump(tag_131)\n    tag_132:\n      dup3\n      add\n      swap2\n      swap1\n      0x00\n      mstore\n      keccak256(0x00, 0x20)\n      swap1\n    tag_133:\n      dup2\n      sload\n      dup2\n      mstore\n      swap1\n      0x01\n      add\n      swap1\n      0x20\n      add\n      dup1\n      dup4\n      gt\n      tag_133\n      jumpi\n      dup3\n      swap1\n      sub\n      0x1f\n      and\n      dup3\n      add\n      swap2\n    tag_131:\n      pop\n      pop\n      pop\n      pop\n      pop\n      swap1\n      dup1\n      0x07\n      add\n      dup1\n      sload\n      tag_134\n      swap1\n      tag_41\n      jump\t// in\n    tag_134:\n      dup1\n      0x1f\n      add\n      0x20\n      dup1\n      swap2\n      div\n      mul\n      0x20\n      add\n      mload(0x40)\n      swap1\n      dup2\n      add\n      0x40\n      mstore\n      dup1\n      swap3\n      swap2\n      swap1\n      dup2\n      dup2\n      mstore\n      0x20\n      add\n      dup3\n      dup1\n      sload\n      tag_135\n      swap1\n      tag_41\n      jump\t// in\n    tag_135:\n      dup1\n      iszero\n      tag_136\n      jumpi\n      dup1\n      0x1f\n      lt\n      tag_137\n      jumpi\n      0x0100\n      dup1\n      dup4\n      sload\n      div\n      mul\n      dup4\n      mstore\n      swap2\n      0x20\n      add\n      swap2\n      jump(tag_136)\n    tag_137:\n      dup3\n      add\n      swap2\n      swap1\n      0x00\n      mstore\n      keccak256(0x00, 0x20)\n      swap1\n    tag_138:\n      dup2\n      sload\n      dup2\n      mstore\n      swap1\n      0x01\n      add\n      swap1\n      0x20\n      add\n      dup1\n      dup4\n      gt\n      tag_138\n      jumpi\n      dup3\n      swap1\n      sub\n      0x1f\n      and\n      dup3\n      add\n      swap2\n    tag_136:\n      pop\n      pop\n      pop\n      pop\n      pop\n      swap1\n      pop\n      dup9\n      jump\t// out\n        /* \"crowdfunding.sol\":2482:2665  function getCrowdfundingByStatus(uint _status) public view returns (Crowdfunding[] memory) {\r... */\n    tag_30:\n        /* \"crowdfunding.sol\":2550:2571  Crowdfunding[] memory */\n      0x60\n        /* \"crowdfunding.sol\":2598:2599  0 */\n      0x00\n        /* \"crowdfunding.sol\":2587:2594  _status */\n      dup3\n        /* \"crowdfunding.sol\":2587:2599  _status == 0 */\n      eq\n        /* \"crowdfunding.sol\":2584:2612  if(_status == 0) return list */\n      iszero\n      tag_140\n      jumpi\n        /* \"crowdfunding.sol\":2608:2612  list */\n      0x01\n        /* \"crowdfunding.sol\":2601:2612  return list */\n      dup1\n      sload\n      dup1\n      0x20\n      mul\n      0x20\n      add\n      mload(0x40)\n      swap1\n      dup2\n      add\n      0x40\n      mstore\n      dup1\n      swap3\n      swap2\n      swap1\n      dup2\n      dup2\n      mstore\n      0x20\n      add\n      0x00\n      swap1\n    tag_141:\n      dup3\n      dup3\n      lt\n      iszero\n      tag_142\n      jumpi\n      dup4\n      dup3\n      swap1\n      0x00\n      mstore\n      keccak256(0x00, 0x20)\n      swap1\n      0x08\n      mul\n      add\n      mload(0x40)\n      dup1\n      0x0100\n      add\n      0x40\n      mstore\n      swap1\n      dup2\n      0x00\n      dup3\n      add\n      sload\n      dup2\n      mstore\n      0x20\n      add\n      0x01\n      dup3\n      add\n      dup1\n      sload\n      tag_144\n      swap1\n      tag_41\n      jump\t// in\n    tag_144:\n      dup1\n      0x1f\n      add\n      0x20\n      dup1\n      swap2\n      div\n      mul\n      0x20\n      add\n      mload(0x40)\n      swap1\n      dup2\n      add\n      0x40\n      mstore\n      dup1\n      swap3\n      swap2\n      swap1\n      dup2\n      dup2\n      mstore\n      0x20\n      add\n      dup3\n      dup1\n      sload\n      tag_145\n      swap1\n      tag_41\n      jump\t// in\n    tag_145:\n      dup1\n      iszero\n      tag_146\n      jumpi\n      dup1\n      0x1f\n      lt\n      tag_147\n      jumpi\n      0x0100\n      dup1\n      dup4\n      sload\n      div\n      mul\n      dup4\n      mstore\n      swap2\n      0x20\n      add\n      swap2\n      jump(tag_146)\n    tag_147:\n      dup3\n      add\n      swap2\n      swap1\n      0x00\n      mstore\n      keccak256(0x00, 0x20)\n      swap1\n    tag_148:\n      dup2\n      sload\n      dup2\n      mstore\n      swap1\n      0x01\n      add\n      swap1\n      0x20\n      add\n      dup1\n      dup4\n      gt\n      tag_148\n      jumpi\n      dup3\n      swap1\n      sub\n      0x1f\n      and\n      dup3\n      add\n      swap2\n    tag_146:\n      pop\n      pop\n      pop\n      pop\n      pop\n      dup2\n      mstore\n      0x20\n      add\n      0x02\n      dup3\n      add\n      sload\n      dup2\n      mstore\n      0x20\n      add\n      0x03\n      dup3\n      add\n      0x00\n      swap1\n      sload\n      swap1\n      0x0100\n      exp\n      swap1\n      div\n      0xffffffffffffffffffffffffffffffffffffffff\n      and\n      0xffffffffffffffffffffffffffffffffffffffff\n      and\n      0xffffffffffffffffffffffffffffffffffffffff\n      and\n      dup2\n      mstore\n      0x20\n      add\n      0x04\n      dup3\n      add\n      0x00\n      swap1\n      sload\n      swap1\n      0x0100\n      exp\n      swap1\n      div\n      0xffffffffffffffffffffffffffffffffffffffff\n      and\n      0xffffffffffffffffffffffffffffffffffffffff\n      and\n      0xffffffffffffffffffffffffffffffffffffffff\n      and\n      dup2\n      mstore\n      0x20\n      add\n      0x05\n      dup3\n      add\n      sload\n      dup2\n      mstore\n      0x20\n      add\n      0x06\n      dup3\n      add\n      dup1\n      sload\n      tag_149\n      swap1\n      tag_41\n      jump\t// in\n    tag_149:\n      dup1\n      0x1f\n      add\n      0x20\n      dup1\n      swap2\n      div\n      mul\n      0x20\n      add\n      mload(0x40)\n      swap1\n      dup2\n      add\n      0x40\n      mstore\n      dup1\n      swap3\n      swap2\n      swap1\n      dup2\n      dup2\n      mstore\n      0x20\n      add\n      dup3\n      dup1\n      sload\n      tag_150\n      swap1\n      tag_41\n      jump\t// in\n    tag_150:\n      dup1\n      iszero\n      tag_151\n      jumpi\n      dup1\n      0x1f\n      lt\n      tag_152\n      jumpi\n      0x0100\n      dup1\n      dup4\n      sload\n      div\n      mul\n      dup4\n      mstore\n      swap2\n      0x20\n      add\n      swap2\n      jump(tag_151)\n    tag_152:\n      dup3\n      add\n      swap2\n      swap1\n      0x00\n      mstore\n      keccak256(0x00, 0x20)\n      swap1\n    tag_153:\n      dup2\n      sload\n      dup2\n      mstore\n      swap1\n      0x01\n      add\n      swap1\n      0x20\n      add\n      dup1\n      dup4\n      gt\n      tag_153\n      jumpi\n      dup3\n      swap1\n      sub\n      0x1f\n      and\n      dup3\n      add\n      swap2\n    tag_151:\n      pop\n      pop\n      pop\n      pop\n      pop\n      dup2\n      mstore\n      0x20\n      add\n      0x07\n      dup3\n      add\n      dup1\n      sload\n      tag_154\n      swap1\n      tag_41\n      jump\t// in\n    tag_154:\n      dup1\n      0x1f\n      add\n      0x20\n      dup1\n      swap2\n      div\n      mul\n      0x20\n      add\n      mload(0x40)\n      swap1\n      dup2\n      add\n      0x40\n      mstore\n      dup1\n      swap3\n      swap2\n      swap1\n      dup2\n      dup2\n      mstore\n      0x20\n      add\n      dup3\n      dup1\n      sload\n      tag_155\n      swap1\n      tag_41\n      jump\t// in\n    tag_155:\n      dup1\n      iszero\n      tag_156\n      jumpi\n      dup1\n      0x1f\n      lt\n      tag_157\n      jumpi\n      0x0100\n      dup1\n      dup4\n      sload\n      div\n      mul\n      dup4\n      mstore\n      swap2\n      0x20\n      add\n      swap2\n      jump(tag_156)\n    tag_157:\n      dup3\n      add\n      swap2\n      swap1\n      0x00\n      mstore\n      keccak256(0x00, 0x20)\n      swap1\n    tag_158:\n      dup2\n      sload\n      dup2\n      mstore\n      swap1\n      0x01\n      add\n      swap1\n      0x20\n      add\n      dup1\n      dup4\n      gt\n      tag_158\n      jumpi\n      dup3\n      swap1\n      sub\n      0x1f\n      and\n      dup3\n      add\n      swap2\n    tag_156:\n      pop\n      pop\n      pop\n      pop\n      pop\n      dup2\n      mstore\n      pop\n      pop\n      dup2\n      mstore\n      0x20\n      add\n      swap1\n      0x01\n      add\n      swap1\n      jump(tag_141)\n    tag_142:\n      pop\n      pop\n      pop\n      pop\n      swap1\n      pop\n      jump(tag_139)\n        /* \"crowdfunding.sol\":2584:2612  if(_status == 0) return list */\n    tag_140:\n        /* \"crowdfunding.sol\":2630:2648  filterDataByStatus */\n      0x02\n        /* \"crowdfunding.sol\":2630:2657  filterDataByStatus[_status] */\n      0x00\n        /* \"crowdfunding.sol\":2649:2656  _status */\n      dup4\n        /* \"crowdfunding.sol\":2630:2657  filterDataByStatus[_status] */\n      dup2\n      mstore\n      0x20\n      add\n      swap1\n      dup2\n      mstore\n      0x20\n      add\n      0x00\n      keccak256\n        /* \"crowdfunding.sol\":2623:2657  return filterDataByStatus[_status] */\n      dup1\n      sload\n      dup1\n      0x20\n      mul\n      0x20\n      add\n      mload(0x40)\n      swap1\n      dup2\n      add\n      0x40\n      mstore\n      dup1\n      swap3\n      swap2\n      swap1\n      dup2\n      dup2\n      mstore\n      0x20\n      add\n      0x00\n      swap1\n    tag_159:\n      dup3\n      dup3\n      lt\n      iszero\n      tag_160\n      jumpi\n      dup4\n      dup3\n      swap1\n      0x00\n      mstore\n      keccak256(0x00, 0x20)\n      swap1\n      0x08\n      mul\n      add\n      mload(0x40)\n      dup1\n      0x0100\n      add\n      0x40\n      mstore\n      swap1\n      dup2\n      0x00\n      dup3\n      add\n      sload\n      dup2\n      mstore\n      0x20\n      add\n      0x01\n      dup3\n      add\n      dup1\n      sload\n      tag_162\n      swap1\n      tag_41\n      jump\t// in\n    tag_162:\n      dup1\n      0x1f\n      add\n      0x20\n      dup1\n      swap2\n      div\n      mul\n      0x20\n      add\n      mload(0x40)\n      swap1\n      dup2\n      add\n      0x40\n      mstore\n      dup1\n      swap3\n      swap2\n      swap1\n      dup2\n      dup2\n      mstore\n      0x20\n      add\n      dup3\n      dup1\n      sload\n      tag_163\n      swap1\n      tag_41\n      jump\t// in\n    tag_163:\n      dup1\n      iszero\n      tag_164\n      jumpi\n      dup1\n      0x1f\n      lt\n      tag_165\n      jumpi\n      0x0100\n      dup1\n      dup4\n      sload\n      div\n      mul\n      dup4\n      mstore\n      swap2\n      0x20\n      add\n      swap2\n      jump(tag_164)\n    tag_165:\n      dup3\n      add\n      swap2\n      swap1\n      0x00\n      mstore\n      keccak256(0x00, 0x20)\n      swap1\n    tag_166:\n      dup2\n      sload\n      dup2\n      mstore\n      swap1\n      0x01\n      add\n      swap1\n      0x20\n      add\n      dup1\n      dup4\n      gt\n      tag_166\n      jumpi\n      dup3\n      swap1\n      sub\n      0x1f\n      and\n      dup3\n      add\n      swap2\n    tag_164:\n      pop\n      pop\n      pop\n      pop\n      pop\n      dup2\n      mstore\n      0x20\n      add\n      0x02\n      dup3\n      add\n      sload\n      dup2\n      mstore\n      0x20\n      add\n      0x03\n      dup3\n      add\n      0x00\n      swap1\n      sload\n      swap1\n      0x0100\n      exp\n      swap1\n      div\n      0xffffffffffffffffffffffffffffffffffffffff\n      and\n      0xffffffffffffffffffffffffffffffffffffffff\n      and\n      0xffffffffffffffffffffffffffffffffffffffff\n      and\n      dup2\n      mstore\n      0x20\n      add\n      0x04\n      dup3\n      add\n      0x00\n      swap1\n      sload\n      swap1\n      0x0100\n      exp\n      swap1\n      div\n      0xffffffffffffffffffffffffffffffffffffffff\n      and\n      0xffffffffffffffffffffffffffffffffffffffff\n      and\n      0xffffffffffffffffffffffffffffffffffffffff\n      and\n      dup2\n      mstore\n      0x20\n      add\n      0x05\n      dup3\n      add\n      sload\n      dup2\n      mstore\n      0x20\n      add\n      0x06\n      dup3\n      add\n      dup1\n      sload\n      tag_167\n      swap1\n      tag_41\n      jump\t// in\n    tag_167:\n      dup1\n      0x1f\n      add\n      0x20\n      dup1\n      swap2\n      div\n      mul\n      0x20\n      add\n      mload(0x40)\n      swap1\n      dup2\n      add\n      0x40\n      mstore\n      dup1\n      swap3\n      swap2\n      swap1\n      dup2\n      dup2\n      mstore\n      0x20\n      add\n      dup3\n      dup1\n      sload\n      tag_168\n      swap1\n      tag_41\n      jump\t// in\n    tag_168:\n      dup1\n      iszero\n      tag_169\n      jumpi\n      dup1\n      0x1f\n      lt\n      tag_170\n      jumpi\n      0x0100\n      dup1\n      dup4\n      sload\n      div\n      mul\n      dup4\n      mstore\n      swap2\n      0x20\n      add\n      swap2\n      jump(tag_169)\n    tag_170:\n      dup3\n      add\n      swap2\n      swap1\n      0x00\n      mstore\n      keccak256(0x00, 0x20)\n      swap1\n    tag_171:\n      dup2\n      sload\n      dup2\n      mstore\n      swap1\n      0x01\n      add\n      swap1\n      0x20\n      add\n      dup1\n      dup4\n      gt\n      tag_171\n      jumpi\n      dup3\n      swap1\n      sub\n      0x1f\n      and\n      dup3\n      add\n      swap2\n    tag_169:\n      pop\n      pop\n      pop\n      pop\n      pop\n      dup2\n      mstore\n      0x20\n      add\n      0x07\n      dup3\n      add\n      dup1\n      sload\n      tag_172\n      swap1\n      tag_41\n      jump\t// in\n    tag_172:\n      dup1\n      0x1f\n      add\n      0x20\n      dup1\n      swap2\n      div\n      mul\n      0x20\n      add\n      mload(0x40)\n      swap1\n      dup2\n      add\n      0x40\n      mstore\n      dup1\n      swap3\n      swap2\n      swap1\n      dup2\n      dup2\n      mstore\n      0x20\n      add\n      dup3\n      dup1\n      sload\n      tag_173\n      swap1\n      tag_41\n      jump\t// in\n    tag_173:\n      dup1\n      iszero\n      tag_174\n      jumpi\n      dup1\n      0x1f\n      lt\n      tag_175\n      jumpi\n      0x0100\n      dup1\n      dup4\n      sload\n      div\n      mul\n      dup4\n      mstore\n      swap2\n      0x20\n      add\n      swap2\n      jump(tag_174)\n    tag_175:\n      dup3\n      add\n      swap2\n      swap1\n      0x00\n      mstore\n      keccak256(0x00, 0x20)\n      swap1\n    tag_176:\n      dup2\n      sload\n      dup2\n      mstore\n      swap1\n      0x01\n      add\n      swap1\n      0x20\n      add\n      dup1\n      dup4\n      gt\n      tag_176\n      jumpi\n      dup3\n      swap1\n      sub\n      0x1f\n      and\n      dup3\n      add\n      swap2\n    tag_174:\n      pop\n      pop\n      pop\n      pop\n      pop\n      dup2\n      mstore\n      pop\n      pop\n      dup2\n      mstore\n      0x20\n      add\n      swap1\n      0x01\n      add\n      swap1\n      jump(tag_159)\n    tag_160:\n      pop\n      pop\n      pop\n      pop\n      swap1\n      pop\n        /* \"crowdfunding.sol\":2482:2665  function getCrowdfundingByStatus(uint _status) public view returns (Crowdfunding[] memory) {\r... */\n    tag_139:\n      swap2\n      swap1\n      pop\n      jump\t// out\n        /* \"crowdfunding.sol\":959:1575  function createCrowdfunding(string memory _title,address _recipient, string memory _expectAmout) public {\r... */\n    tag_35:\n        /* \"crowdfunding.sol\":1074:1076  No */\n      0x00\n      dup1\n        /* \"crowdfunding.sol\":1074:1078  No++ */\n      dup2\n      sload\n      dup1\n      swap3\n      swap2\n      swap1\n      tag_178\n      swap1\n      tag_104\n      jump\t// in\n    tag_178:\n      swap2\n      swap1\n      pop\n      sstore\n      pop\n        /* \"crowdfunding.sol\":1089:1110  Crowdfunding memory c */\n      0x00\n        /* \"crowdfunding.sol\":1113:1385  Crowdfunding({\r... */\n      mload(0x40)\n      dup1\n      0x0100\n      add\n      0x40\n      mstore\n      dup1\n        /* \"crowdfunding.sol\":1146:1148  No */\n      sload(0x00)\n        /* \"crowdfunding.sol\":1113:1385  Crowdfunding({\r... */\n      dup2\n      mstore\n      0x20\n      add\n        /* \"crowdfunding.sol\":1169:1175  _title */\n      dup6\n        /* \"crowdfunding.sol\":1113:1385  Crowdfunding({\r... */\n      dup2\n      mstore\n      0x20\n      add\n        /* \"crowdfunding.sol\":1198:1199  1 */\n      0x01\n        /* \"crowdfunding.sol\":1113:1385  Crowdfunding({\r... */\n      dup2\n      mstore\n      0x20\n      add\n        /* \"crowdfunding.sol\":1223:1233  msg.sender */\n      caller\n        /* \"crowdfunding.sol\":1113:1385  Crowdfunding({\r... */\n      0xffffffffffffffffffffffffffffffffffffffff\n      and\n      dup2\n      mstore\n      0x20\n      add\n        /* \"crowdfunding.sol\":1259:1269  _recipient */\n      dup5\n        /* \"crowdfunding.sol\":1113:1385  Crowdfunding({\r... */\n      0xffffffffffffffffffffffffffffffffffffffff\n      and\n      dup2\n      mstore\n      0x20\n      add\n        /* \"crowdfunding.sol\":1293:1294  0 */\n      0x00\n        /* \"crowdfunding.sol\":1113:1385  Crowdfunding({\r... */\n      dup2\n      mstore\n      0x20\n      add\n        /* \"crowdfunding.sol\":1329:1341  _expectAmout */\n      dup4\n        /* \"crowdfunding.sol\":1113:1385  Crowdfunding({\r... */\n      dup2\n      mstore\n      0x20\n      add\n      mload(0x40)\n      dup1\n      0x40\n      add\n      0x40\n      mstore\n      dup1\n      0x01\n      dup2\n      mstore\n      0x20\n      add\n      0x3000000000000000000000000000000000000000000000000000000000000000\n      dup2\n      mstore\n      pop\n      dup2\n      mstore\n      pop\n        /* \"crowdfunding.sol\":1089:1385  Crowdfunding memory c = Crowdfunding({\r... */\n      swap1\n      pop\n        /* \"crowdfunding.sol\":1396:1400  list */\n      0x01\n        /* \"crowdfunding.sol\":1406:1407  c */\n      dup2\n        /* \"crowdfunding.sol\":1396:1408  list.push(c) */\n      swap1\n      dup1\n      0x01\n      dup2\n      sload\n      add\n      dup1\n      dup3\n      sstore\n      dup1\n      swap2\n      pop\n      pop\n      0x01\n      swap1\n      sub\n      swap1\n      0x00\n      mstore\n      keccak256(0x00, 0x20)\n      swap1\n      0x08\n      mul\n      add\n      0x00\n      swap1\n      swap2\n      swap1\n      swap2\n      swap1\n      swap2\n      pop\n      0x00\n      dup3\n      add\n      mload\n      dup2\n      0x00\n      add\n      sstore\n      0x20\n      dup3\n      add\n      mload\n      dup2\n      0x01\n      add\n      swap1\n      dup1\n      mload\n      swap1\n      0x20\n      add\n      swap1\n      tag_180\n      swap3\n      swap2\n      swap1\n      tag_64\n      jump\t// in\n    tag_180:\n      pop\n      0x40\n      dup3\n      add\n      mload\n      dup2\n      0x02\n      add\n      sstore\n      0x60\n      dup3\n      add\n      mload\n      dup2\n      0x03\n      add\n      exp(0x0100, 0x00)\n      dup2\n      sload\n      dup2\n      0xffffffffffffffffffffffffffffffffffffffff\n      mul\n      not\n      and\n      swap1\n      dup4\n      0xffffffffffffffffffffffffffffffffffffffff\n      and\n      mul\n      or\n      swap1\n      sstore\n      pop\n      0x80\n      dup3\n      add\n      mload\n      dup2\n      0x04\n      add\n      exp(0x0100, 0x00)\n      dup2\n      sload\n      dup2\n      0xffffffffffffffffffffffffffffffffffffffff\n      mul\n      not\n      and\n      swap1\n      dup4\n      0xffffffffffffffffffffffffffffffffffffffff\n      and\n      mul\n      or\n      swap1\n      sstore\n      pop\n      0xa0\n      dup3\n      add\n      mload\n      dup2\n      0x05\n      add\n      sstore\n      0xc0\n      dup3\n      add\n      mload\n      dup2\n      0x06\n      add\n      swap1\n      dup1\n      mload\n      swap1\n      0x20\n      add\n      swap1\n      tag_181\n      swap3\n      swap2\n      swap1\n      tag_64\n      jump\t// in\n    tag_181:\n      pop\n      0xe0\n      dup3\n      add\n      mload\n      dup2\n      0x07\n      add\n      swap1\n      dup1\n      mload\n      swap1\n      0x20\n      add\n      swap1\n      tag_182\n      swap3\n      swap2\n      swap1\n      tag_64\n      jump\t// in\n    tag_182:\n      pop\n      pop\n      pop\n        /* \"crowdfunding.sol\":1493:1511  filterDataByStatus */\n      0x02\n        /* \"crowdfunding.sol\":1493:1514  filterDataByStatus[1] */\n      0x00\n        /* \"crowdfunding.sol\":1512:1513  1 */\n      0x01\n        /* \"crowdfunding.sol\":1493:1514  filterDataByStatus[1] */\n      dup2\n      mstore\n      0x20\n      add\n      swap1\n      dup2\n      mstore\n      0x20\n      add\n      0x00\n      keccak256\n        /* \"crowdfunding.sol\":1520:1521  c */\n      dup2\n        /* \"crowdfunding.sol\":1493:1522  filterDataByStatus[1].push(c) */\n      swap1\n      dup1\n      0x01\n      dup2\n      sload\n      add\n      dup1\n      dup3\n      sstore\n      dup1\n      swap2\n      pop\n      pop\n      0x01\n      swap1\n      sub\n      swap1\n      0x00\n      mstore\n      keccak256(0x00, 0x20)\n      swap1\n      0x08\n      mul\n      add\n      0x00\n      swap1\n      swap2\n      swap1\n      swap2\n      swap1\n      swap2\n      pop\n      0x00\n      dup3\n      add\n      mload\n      dup2\n      0x00\n      add\n      sstore\n      0x20\n      dup3\n      add\n      mload\n      dup2\n      0x01\n      add\n      swap1\n      dup1\n      mload\n      swap1\n      0x20\n      add\n      swap1\n      tag_184\n      swap3\n      swap2\n      swap1\n      tag_64\n      jump\t// in\n    tag_184:\n      pop\n      0x40\n      dup3\n      add\n      mload\n      dup2\n      0x02\n      add\n      sstore\n      0x60\n      dup3\n      add\n      mload\n      dup2\n      0x03\n      add\n      exp(0x0100, 0x00)\n      dup2\n      sload\n      dup2\n      0xffffffffffffffffffffffffffffffffffffffff\n      mul\n      not\n      and\n      swap1\n      dup4\n      0xffffffffffffffffffffffffffffffffffffffff\n      and\n      mul\n      or\n      swap1\n      sstore\n      pop\n      0x80\n      dup3\n      add\n      mload\n      dup2\n      0x04\n      add\n      exp(0x0100, 0x00)\n      dup2\n      sload\n      dup2\n      0xffffffffffffffffffffffffffffffffffffffff\n      mul\n      not\n      and\n      swap1\n      dup4\n      0xffffffffffffffffffffffffffffffffffffffff\n      and\n      mul\n      or\n      swap1\n      sstore\n      pop\n      0xa0\n      dup3\n      add\n      mload\n      dup2\n      0x05\n      add\n      sstore\n      0xc0\n      dup3\n      add\n      mload\n      dup2\n      0x06\n      add\n      swap1\n      dup1\n      mload\n      swap1\n      0x20\n      add\n      swap1\n      tag_185\n      swap3\n      swap2\n      swap1\n      tag_64\n      jump\t// in\n    tag_185:\n      pop\n      0xe0\n      dup3\n      add\n      mload\n      dup2\n      0x07\n      add\n      swap1\n      dup1\n      mload\n      swap1\n      0x20\n      add\n      swap1\n      tag_186\n      swap3\n      swap2\n      swap1\n      tag_64\n      jump\t// in\n    tag_186:\n      pop\n      pop\n      pop\n        /* \"crowdfunding.sol\":1533:1547  myCrowdfunding */\n      0x03\n        /* \"crowdfunding.sol\":1533:1559  myCrowdfunding[msg.sender] */\n      0x00\n        /* \"crowdfunding.sol\":1548:1558  msg.sender */\n      caller\n        /* \"crowdfunding.sol\":1533:1559  myCrowdfunding[msg.sender] */\n      0xffffffffffffffffffffffffffffffffffffffff\n      and\n      0xffffffffffffffffffffffffffffffffffffffff\n      and\n      dup2\n      mstore\n      0x20\n      add\n      swap1\n      dup2\n      mstore\n      0x20\n      add\n      0x00\n      keccak256\n        /* \"crowdfunding.sol\":1565:1566  c */\n      dup2\n        /* \"crowdfunding.sol\":1533:1567  myCrowdfunding[msg.sender].push(c) */\n      swap1\n      dup1\n      0x01\n      dup2\n      sload\n      add\n      dup1\n      dup3\n      sstore\n      dup1\n      swap2\n      pop\n      pop\n      0x01\n      swap1\n      sub\n      swap1\n      0x00\n      mstore\n      keccak256(0x00, 0x20)\n      swap1\n      0x08\n      mul\n      add\n      0x00\n      swap1\n      swap2\n      swap1\n      swap2\n      swap1\n      swap2\n      pop\n      0x00\n      dup3\n      add\n      mload\n      dup2\n      0x00\n      add\n      sstore\n      0x20\n      dup3\n      add\n      mload\n      dup2\n      0x01\n      add\n      swap1\n      dup1\n      mload\n      swap1\n      0x20\n      add\n      swap1\n      tag_188\n      swap3\n      swap2\n      swap1\n      tag_64\n      jump\t// in\n    tag_188:\n      pop\n      0x40\n      dup3\n      add\n      mload\n      dup2\n      0x02\n      add\n      sstore\n      0x60\n      dup3\n      add\n      mload\n      dup2\n      0x03\n      add\n      exp(0x0100, 0x00)\n      dup2\n      sload\n      dup2\n      0xffffffffffffffffffffffffffffffffffffffff\n      mul\n      not\n      and\n      swap1\n      dup4\n      0xffffffffffffffffffffffffffffffffffffffff\n      and\n      mul\n      or\n      swap1\n      sstore\n      pop\n      0x80\n      dup3\n      add\n      mload\n      dup2\n      0x04\n      add\n      exp(0x0100, 0x00)\n      dup2\n      sload\n      dup2\n      0xffffffffffffffffffffffffffffffffffffffff\n      mul\n      not\n      and\n      swap1\n      dup4\n      0xffffffffffffffffffffffffffffffffffffffff\n      and\n      mul\n      or\n      swap1\n      sstore\n      pop\n      0xa0\n      dup3\n      add\n      mload\n      dup2\n      0x05\n      add\n      sstore\n      0xc0\n      dup3\n      add\n      mload\n      dup2\n      0x06\n      add\n      swap1\n      dup1\n      mload\n      swap1\n      0x20\n      add\n      swap1\n      tag_189\n      swap3\n      swap2\n      swap1\n      tag_64\n      jump\t// in\n    tag_189:\n      pop\n      0xe0\n      dup3\n      add\n      mload\n      dup2\n      0x07\n      add\n      swap1\n      dup1\n      mload\n      swap1\n      0x20\n      add\n      swap1\n      tag_190\n      swap3\n      swap2\n      swap1\n      tag_64\n      jump\t// in\n    tag_190:\n      pop\n      pop\n      pop\n        /* \"crowdfunding.sol\":1063:1575  {\r... */\n      pop\n        /* \"crowdfunding.sol\":959:1575  function createCrowdfunding(string memory _title,address _recipient, string memory _expectAmout) public {\r... */\n      pop\n      pop\n      pop\n      jump\t// out\n    tag_64:\n      dup3\n      dup1\n      sload\n      tag_191\n      swap1\n      tag_41\n      jump\t// in\n    tag_191:\n      swap1\n      0x00\n      mstore\n      keccak256(0x00, 0x20)\n      swap1\n      0x1f\n      add\n      0x20\n      swap1\n      div\n      dup2\n      add\n      swap3\n      dup3\n      tag_193\n      jumpi\n      0x00\n      dup6\n      sstore\n      jump(tag_192)\n    tag_193:\n      dup3\n      0x1f\n      lt\n      tag_194\n      jumpi\n      dup1\n      mload\n      not(0xff)\n      and\n      dup4\n      dup1\n      add\n      or\n      dup6\n      sstore\n      jump(tag_192)\n    tag_194:\n      dup3\n      dup1\n      add\n      0x01\n      add\n      dup6\n      sstore\n      dup3\n      iszero\n      tag_192\n      jumpi\n      swap2\n      dup3\n      add\n    tag_195:\n      dup3\n      dup2\n      gt\n      iszero\n      tag_196\n      jumpi\n      dup3\n      mload\n      dup3\n      sstore\n      swap2\n      0x20\n      add\n      swap2\n      swap1\n      0x01\n      add\n      swap1\n      jump(tag_195)\n    tag_196:\n    tag_192:\n      pop\n      swap1\n      pop\n      tag_197\n      swap2\n      swap1\n      tag_198\n      jump\t// in\n    tag_197:\n      pop\n      swap1\n      jump\t// out\n    tag_76:\n      pop\n      dup1\n      sload\n      tag_199\n      swap1\n      tag_41\n      jump\t// in\n    tag_199:\n      0x00\n      dup3\n      sstore\n      dup1\n      0x1f\n      lt\n      tag_201\n      jumpi\n      pop\n      jump(tag_200)\n    tag_201:\n      0x1f\n      add\n      0x20\n      swap1\n      div\n      swap1\n      0x00\n      mstore\n      keccak256(0x00, 0x20)\n      swap1\n      dup2\n      add\n      swap1\n      tag_202\n      swap2\n      swap1\n      tag_198\n      jump\t// in\n    tag_202:\n    tag_200:\n      pop\n      jump\t// out\n    tag_98:\n      dup3\n      dup1\n      sload\n      tag_203\n      swap1\n      tag_41\n      jump\t// in\n    tag_203:\n      swap1\n      0x00\n      mstore\n      keccak256(0x00, 0x20)\n      swap1\n      0x1f\n      add\n      0x20\n      swap1\n      div\n      dup2\n      add\n      swap3\n      dup3\n      tag_205\n      jumpi\n      0x00\n      dup6\n      sstore\n      jump(tag_204)\n    tag_205:\n      dup3\n      0x1f\n      lt\n      tag_206\n      jumpi\n      dup1\n      sload\n      dup6\n      sstore\n      jump(tag_204)\n    tag_206:\n      dup3\n      dup1\n      add\n      0x01\n      add\n      dup6\n      sstore\n      dup3\n      iszero\n      tag_204\n      jumpi\n      0x00\n      mstore\n      keccak256(0x00, 0x20)\n      swap2\n      0x1f\n      add\n      0x20\n      swap1\n      div\n      dup3\n      add\n    tag_207:\n      dup3\n      dup2\n      gt\n      iszero\n      tag_208\n      jumpi\n      dup3\n      sload\n      dup3\n      sstore\n      swap2\n      0x01\n      add\n      swap2\n      swap1\n      0x01\n      add\n      swap1\n      jump(tag_207)\n    tag_208:\n    tag_204:\n      pop\n      swap1\n      pop\n      tag_209\n      swap2\n      swap1\n      tag_198\n      jump\t// in\n    tag_209:\n      pop\n      swap1\n      jump\t// out\n    tag_198:\n    tag_210:\n      dup1\n      dup3\n      gt\n      iszero\n      tag_211\n      jumpi\n      0x00\n      dup2\n      0x00\n      swap1\n      sstore\n      pop\n      0x01\n      add\n      jump(tag_210)\n    tag_211:\n      pop\n      swap1\n      jump\t// out\n        /* \"#utility.yul\":7:419   */\n    tag_213:\n        /* \"#utility.yul\":85:90   */\n      0x00\n        /* \"#utility.yul\":110:176   */\n      tag_215\n        /* \"#utility.yul\":126:175   */\n      tag_216\n        /* \"#utility.yul\":168:174   */\n      dup5\n        /* \"#utility.yul\":126:175   */\n      tag_217\n      jump\t// in\n    tag_216:\n        /* \"#utility.yul\":110:176   */\n      tag_218\n      jump\t// in\n    tag_215:\n        /* \"#utility.yul\":101:176   */\n      swap1\n      pop\n        /* \"#utility.yul\":199:205   */\n      dup3\n        /* \"#utility.yul\":192:197   */\n      dup2\n        /* \"#utility.yul\":185:206   */\n      mstore\n        /* \"#utility.yul\":237:241   */\n      0x20\n        /* \"#utility.yul\":230:235   */\n      dup2\n        /* \"#utility.yul\":226:242   */\n      add\n        /* \"#utility.yul\":275:278   */\n      dup5\n        /* \"#utility.yul\":266:272   */\n      dup5\n        /* \"#utility.yul\":261:264   */\n      dup5\n        /* \"#utility.yul\":257:273   */\n      add\n        /* \"#utility.yul\":254:279   */\n      gt\n        /* \"#utility.yul\":251:363   */\n      iszero\n      tag_219\n      jumpi\n        /* \"#utility.yul\":282:361   */\n      tag_220\n      tag_221\n      jump\t// in\n    tag_220:\n        /* \"#utility.yul\":251:363   */\n    tag_219:\n        /* \"#utility.yul\":372:413   */\n      tag_222\n        /* \"#utility.yul\":406:412   */\n      dup5\n        /* \"#utility.yul\":401:404   */\n      dup3\n        /* \"#utility.yul\":396:399   */\n      dup6\n        /* \"#utility.yul\":372:413   */\n      tag_223\n      jump\t// in\n    tag_222:\n        /* \"#utility.yul\":91:419   */\n      pop\n        /* \"#utility.yul\":7:419   */\n      swap4\n      swap3\n      pop\n      pop\n      pop\n      jump\t// out\n        /* \"#utility.yul\":425:564   */\n    tag_224:\n        /* \"#utility.yul\":471:476   */\n      0x00\n        /* \"#utility.yul\":509:515   */\n      dup2\n        /* \"#utility.yul\":496:516   */\n      calldataload\n        /* \"#utility.yul\":487:516   */\n      swap1\n      pop\n        /* \"#utility.yul\":525:558   */\n      tag_226\n        /* \"#utility.yul\":552:557   */\n      dup2\n        /* \"#utility.yul\":525:558   */\n      tag_227\n      jump\t// in\n    tag_226:\n        /* \"#utility.yul\":425:564   */\n      swap3\n      swap2\n      pop\n      pop\n      jump\t// out\n        /* \"#utility.yul\":584:924   */\n    tag_228:\n        /* \"#utility.yul\":640:645   */\n      0x00\n        /* \"#utility.yul\":689:692   */\n      dup3\n        /* \"#utility.yul\":682:686   */\n      0x1f\n        /* \"#utility.yul\":674:680   */\n      dup4\n        /* \"#utility.yul\":670:687   */\n      add\n        /* \"#utility.yul\":666:693   */\n      slt\n        /* \"#utility.yul\":656:778   */\n      tag_230\n      jumpi\n        /* \"#utility.yul\":697:776   */\n      tag_231\n      tag_232\n      jump\t// in\n    tag_231:\n        /* \"#utility.yul\":656:778   */\n    tag_230:\n        /* \"#utility.yul\":814:820   */\n      dup2\n        /* \"#utility.yul\":801:821   */\n      calldataload\n        /* \"#utility.yul\":839:918   */\n      tag_233\n        /* \"#utility.yul\":914:917   */\n      dup5\n        /* \"#utility.yul\":906:912   */\n      dup3\n        /* \"#utility.yul\":899:903   */\n      0x20\n        /* \"#utility.yul\":891:897   */\n      dup7\n        /* \"#utility.yul\":887:904   */\n      add\n        /* \"#utility.yul\":839:918   */\n      tag_213\n      jump\t// in\n    tag_233:\n        /* \"#utility.yul\":830:918   */\n      swap2\n      pop\n        /* \"#utility.yul\":646:924   */\n      pop\n        /* \"#utility.yul\":584:924   */\n      swap3\n      swap2\n      pop\n      pop\n      jump\t// out\n        /* \"#utility.yul\":930:1069   */\n    tag_234:\n        /* \"#utility.yul\":976:981   */\n      0x00\n        /* \"#utility.yul\":1014:1020   */\n      dup2\n        /* \"#utility.yul\":1001:1021   */\n      calldataload\n        /* \"#utility.yul\":992:1021   */\n      swap1\n      pop\n        /* \"#utility.yul\":1030:1063   */\n      tag_236\n        /* \"#utility.yul\":1057:1062   */\n      dup2\n        /* \"#utility.yul\":1030:1063   */\n      tag_237\n      jump\t// in\n    tag_236:\n        /* \"#utility.yul\":930:1069   */\n      swap3\n      swap2\n      pop\n      pop\n      jump\t// out\n        /* \"#utility.yul\":1075:1404   */\n    tag_11:\n        /* \"#utility.yul\":1134:1140   */\n      0x00\n        /* \"#utility.yul\":1183:1185   */\n      0x20\n        /* \"#utility.yul\":1171:1180   */\n      dup3\n        /* \"#utility.yul\":1162:1169   */\n      dup5\n        /* \"#utility.yul\":1158:1181   */\n      sub\n        /* \"#utility.yul\":1154:1186   */\n      slt\n        /* \"#utility.yul\":1151:1270   */\n      iszero\n      tag_239\n      jumpi\n        /* \"#utility.yul\":1189:1268   */\n      tag_240\n      tag_241\n      jump\t// in\n    tag_240:\n        /* \"#utility.yul\":1151:1270   */\n    tag_239:\n        /* \"#utility.yul\":1309:1310   */\n      0x00\n        /* \"#utility.yul\":1334:1387   */\n      tag_242\n        /* \"#utility.yul\":1379:1386   */\n      dup5\n        /* \"#utility.yul\":1370:1376   */\n      dup3\n        /* \"#utility.yul\":1359:1368   */\n      dup6\n        /* \"#utility.yul\":1355:1377   */\n      add\n        /* \"#utility.yul\":1334:1387   */\n      tag_224\n      jump\t// in\n    tag_242:\n        /* \"#utility.yul\":1324:1387   */\n      swap2\n      pop\n        /* \"#utility.yul\":1280:1397   */\n      pop\n        /* \"#utility.yul\":1075:1404   */\n      swap3\n      swap2\n      pop\n      pop\n      jump\t// out\n        /* \"#utility.yul\":1410:2389   */\n    tag_34:\n        /* \"#utility.yul\":1507:1513   */\n      0x00\n        /* \"#utility.yul\":1515:1521   */\n      dup1\n        /* \"#utility.yul\":1523:1529   */\n      0x00\n        /* \"#utility.yul\":1572:1574   */\n      0x60\n        /* \"#utility.yul\":1560:1569   */\n      dup5\n        /* \"#utility.yul\":1551:1558   */\n      dup7\n        /* \"#utility.yul\":1547:1570   */\n      sub\n        /* \"#utility.yul\":1543:1575   */\n      slt\n        /* \"#utility.yul\":1540:1659   */\n      iszero\n      tag_244\n      jumpi\n        /* \"#utility.yul\":1578:1657   */\n      tag_245\n      tag_241\n      jump\t// in\n    tag_245:\n        /* \"#utility.yul\":1540:1659   */\n    tag_244:\n        /* \"#utility.yul\":1726:1727   */\n      0x00\n        /* \"#utility.yul\":1715:1724   */\n      dup5\n        /* \"#utility.yul\":1711:1728   */\n      add\n        /* \"#utility.yul\":1698:1729   */\n      calldataload\n        /* \"#utility.yul\":1756:1774   */\n      0xffffffffffffffff\n        /* \"#utility.yul\":1748:1754   */\n      dup2\n        /* \"#utility.yul\":1745:1775   */\n      gt\n        /* \"#utility.yul\":1742:1859   */\n      iszero\n      tag_246\n      jumpi\n        /* \"#utility.yul\":1778:1857   */\n      tag_247\n      tag_248\n      jump\t// in\n    tag_247:\n        /* \"#utility.yul\":1742:1859   */\n    tag_246:\n        /* \"#utility.yul\":1883:1946   */\n      tag_249\n        /* \"#utility.yul\":1938:1945   */\n      dup7\n        /* \"#utility.yul\":1929:1935   */\n      dup3\n        /* \"#utility.yul\":1918:1927   */\n      dup8\n        /* \"#utility.yul\":1914:1936   */\n      add\n        /* \"#utility.yul\":1883:1946   */\n      tag_228\n      jump\t// in\n    tag_249:\n        /* \"#utility.yul\":1873:1946   */\n      swap4\n      pop\n        /* \"#utility.yul\":1669:1956   */\n      pop\n        /* \"#utility.yul\":1995:1997   */\n      0x20\n        /* \"#utility.yul\":2021:2074   */\n      tag_250\n        /* \"#utility.yul\":2066:2073   */\n      dup7\n        /* \"#utility.yul\":2057:2063   */\n      dup3\n        /* \"#utility.yul\":2046:2055   */\n      dup8\n        /* \"#utility.yul\":2042:2064   */\n      add\n        /* \"#utility.yul\":2021:2074   */\n      tag_224\n      jump\t// in\n    tag_250:\n        /* \"#utility.yul\":2011:2074   */\n      swap3\n      pop\n        /* \"#utility.yul\":1966:2084   */\n      pop\n        /* \"#utility.yul\":2151:2153   */\n      0x40\n        /* \"#utility.yul\":2140:2149   */\n      dup5\n        /* \"#utility.yul\":2136:2154   */\n      add\n        /* \"#utility.yul\":2123:2155   */\n      calldataload\n        /* \"#utility.yul\":2182:2200   */\n      0xffffffffffffffff\n        /* \"#utility.yul\":2174:2180   */\n      dup2\n        /* \"#utility.yul\":2171:2201   */\n      gt\n        /* \"#utility.yul\":2168:2285   */\n      iszero\n      tag_251\n      jumpi\n        /* \"#utility.yul\":2204:2283   */\n      tag_252\n      tag_248\n      jump\t// in\n    tag_252:\n        /* \"#utility.yul\":2168:2285   */\n    tag_251:\n        /* \"#utility.yul\":2309:2372   */\n      tag_253\n        /* \"#utility.yul\":2364:2371   */\n      dup7\n        /* \"#utility.yul\":2355:2361   */\n      dup3\n        /* \"#utility.yul\":2344:2353   */\n      dup8\n        /* \"#utility.yul\":2340:2362   */\n      add\n        /* \"#utility.yul\":2309:2372   */\n      tag_228\n      jump\t// in\n    tag_253:\n        /* \"#utility.yul\":2299:2372   */\n      swap2\n      pop\n        /* \"#utility.yul\":2094:2382   */\n      pop\n        /* \"#utility.yul\":1410:2389   */\n      swap3\n      pop\n      swap3\n      pop\n      swap3\n      jump\t// out\n        /* \"#utility.yul\":2395:2724   */\n    tag_21:\n        /* \"#utility.yul\":2454:2460   */\n      0x00\n        /* \"#utility.yul\":2503:2505   */\n      0x20\n        /* \"#utility.yul\":2491:2500   */\n      dup3\n        /* \"#utility.yul\":2482:2489   */\n      dup5\n        /* \"#utility.yul\":2478:2501   */\n      sub\n        /* \"#utility.yul\":2474:2506   */\n      slt\n        /* \"#utility.yul\":2471:2590   */\n      iszero\n      tag_255\n      jumpi\n        /* \"#utility.yul\":2509:2588   */\n      tag_256\n      tag_241\n      jump\t// in\n    tag_256:\n        /* \"#utility.yul\":2471:2590   */\n    tag_255:\n        /* \"#utility.yul\":2629:2630   */\n      0x00\n        /* \"#utility.yul\":2654:2707   */\n      tag_257\n        /* \"#utility.yul\":2699:2706   */\n      dup5\n        /* \"#utility.yul\":2690:2696   */\n      dup3\n        /* \"#utility.yul\":2679:2688   */\n      dup6\n        /* \"#utility.yul\":2675:2697   */\n      add\n        /* \"#utility.yul\":2654:2707   */\n      tag_234\n      jump\t// in\n    tag_257:\n        /* \"#utility.yul\":2644:2707   */\n      swap2\n      pop\n        /* \"#utility.yul\":2600:2717   */\n      pop\n        /* \"#utility.yul\":2395:2724   */\n      swap3\n      swap2\n      pop\n      pop\n      jump\t// out\n        /* \"#utility.yul\":2730:3384   */\n    tag_17:\n        /* \"#utility.yul\":2808:2814   */\n      0x00\n        /* \"#utility.yul\":2816:2822   */\n      dup1\n        /* \"#utility.yul\":2865:2867   */\n      0x40\n        /* \"#utility.yul\":2853:2862   */\n      dup4\n        /* \"#utility.yul\":2844:2851   */\n      dup6\n        /* \"#utility.yul\":2840:2863   */\n      sub\n        /* \"#utility.yul\":2836:2868   */\n      slt\n        /* \"#utility.yul\":2833:2952   */\n      iszero\n      tag_259\n      jumpi\n        /* \"#utility.yul\":2871:2950   */\n      tag_260\n      tag_241\n      jump\t// in\n    tag_260:\n        /* \"#utility.yul\":2833:2952   */\n    tag_259:\n        /* \"#utility.yul\":2991:2992   */\n      0x00\n        /* \"#utility.yul\":3016:3069   */\n      tag_261\n        /* \"#utility.yul\":3061:3068   */\n      dup6\n        /* \"#utility.yul\":3052:3058   */\n      dup3\n        /* \"#utility.yul\":3041:3050   */\n      dup7\n        /* \"#utility.yul\":3037:3059   */\n      add\n        /* \"#utility.yul\":3016:3069   */\n      tag_234\n      jump\t// in\n    tag_261:\n        /* \"#utility.yul\":3006:3069   */\n      swap3\n      pop\n        /* \"#utility.yul\":2962:3079   */\n      pop\n        /* \"#utility.yul\":3146:3148   */\n      0x20\n        /* \"#utility.yul\":3135:3144   */\n      dup4\n        /* \"#utility.yul\":3131:3149   */\n      add\n        /* \"#utility.yul\":3118:3150   */\n      calldataload\n        /* \"#utility.yul\":3177:3195   */\n      0xffffffffffffffff\n        /* \"#utility.yul\":3169:3175   */\n      dup2\n        /* \"#utility.yul\":3166:3196   */\n      gt\n        /* \"#utility.yul\":3163:3280   */\n      iszero\n      tag_262\n      jumpi\n        /* \"#utility.yul\":3199:3278   */\n      tag_263\n      tag_248\n      jump\t// in\n    tag_263:\n        /* \"#utility.yul\":3163:3280   */\n    tag_262:\n        /* \"#utility.yul\":3304:3367   */\n      tag_264\n        /* \"#utility.yul\":3359:3366   */\n      dup6\n        /* \"#utility.yul\":3350:3356   */\n      dup3\n        /* \"#utility.yul\":3339:3348   */\n      dup7\n        /* \"#utility.yul\":3335:3357   */\n      add\n        /* \"#utility.yul\":3304:3367   */\n      tag_228\n      jump\t// in\n    tag_264:\n        /* \"#utility.yul\":3294:3367   */\n      swap2\n      pop\n        /* \"#utility.yul\":3089:3377   */\n      pop\n        /* \"#utility.yul\":2730:3384   */\n      swap3\n      pop\n      swap3\n      swap1\n      pop\n      jump\t// out\n        /* \"#utility.yul\":3390:3658   */\n    tag_265:\n        /* \"#utility.yul\":3515:3525   */\n      0x00\n        /* \"#utility.yul\":3550:3652   */\n      tag_267\n        /* \"#utility.yul\":3648:3651   */\n      dup4\n        /* \"#utility.yul\":3640:3646   */\n      dup4\n        /* \"#utility.yul\":3550:3652   */\n      tag_268\n      jump\t// in\n    tag_267:\n        /* \"#utility.yul\":3536:3652   */\n      swap1\n      pop\n        /* \"#utility.yul\":3390:3658   */\n      swap3\n      swap2\n      pop\n      pop\n      jump\t// out\n        /* \"#utility.yul\":3664:3772   */\n    tag_269:\n        /* \"#utility.yul\":3741:3765   */\n      tag_271\n        /* \"#utility.yul\":3759:3764   */\n      dup2\n        /* \"#utility.yul\":3741:3765   */\n      tag_272\n      jump\t// in\n    tag_271:\n        /* \"#utility.yul\":3736:3739   */\n      dup3\n        /* \"#utility.yul\":3729:3766   */\n      mstore\n        /* \"#utility.yul\":3664:3772   */\n      pop\n      pop\n      jump\t// out\n        /* \"#utility.yul\":3778:3896   */\n    tag_273:\n        /* \"#utility.yul\":3865:3889   */\n      tag_275\n        /* \"#utility.yul\":3883:3888   */\n      dup2\n        /* \"#utility.yul\":3865:3889   */\n      tag_272\n      jump\t// in\n    tag_275:\n        /* \"#utility.yul\":3860:3863   */\n      dup3\n        /* \"#utility.yul\":3853:3890   */\n      mstore\n        /* \"#utility.yul\":3778:3896   */\n      pop\n      pop\n      jump\t// out\n        /* \"#utility.yul\":3998:5133   */\n    tag_276:\n        /* \"#utility.yul\":4173:4176   */\n      0x00\n        /* \"#utility.yul\":4202:4284   */\n      tag_278\n        /* \"#utility.yul\":4278:4283   */\n      dup3\n        /* \"#utility.yul\":4202:4284   */\n      tag_279\n      jump\t// in\n    tag_278:\n        /* \"#utility.yul\":4300:4414   */\n      tag_280\n        /* \"#utility.yul\":4407:4413   */\n      dup2\n        /* \"#utility.yul\":4402:4405   */\n      dup6\n        /* \"#utility.yul\":4300:4414   */\n      tag_281\n      jump\t// in\n    tag_280:\n        /* \"#utility.yul\":4293:4414   */\n      swap4\n      pop\n        /* \"#utility.yul\":4440:4443   */\n      dup4\n        /* \"#utility.yul\":4485:4489   */\n      0x20\n        /* \"#utility.yul\":4477:4483   */\n      dup3\n        /* \"#utility.yul\":4473:4490   */\n      mul\n        /* \"#utility.yul\":4468:4471   */\n      dup6\n        /* \"#utility.yul\":4464:4491   */\n      add\n        /* \"#utility.yul\":4515:4599   */\n      tag_282\n        /* \"#utility.yul\":4593:4598   */\n      dup6\n        /* \"#utility.yul\":4515:4599   */\n      tag_283\n      jump\t// in\n    tag_282:\n        /* \"#utility.yul\":4622:4629   */\n      dup1\n        /* \"#utility.yul\":4653:4654   */\n      0x00\n        /* \"#utility.yul\":4638:5088   */\n    tag_284:\n        /* \"#utility.yul\":4663:4669   */\n      dup6\n        /* \"#utility.yul\":4660:4661   */\n      dup2\n        /* \"#utility.yul\":4657:4670   */\n      lt\n        /* \"#utility.yul\":4638:5088   */\n      iszero\n      tag_286\n      jumpi\n        /* \"#utility.yul\":4734:4743   */\n      dup5\n        /* \"#utility.yul\":4728:4732   */\n      dup5\n        /* \"#utility.yul\":4724:4744   */\n      sub\n        /* \"#utility.yul\":4719:4722   */\n      dup10\n        /* \"#utility.yul\":4712:4745   */\n      mstore\n        /* \"#utility.yul\":4785:4791   */\n      dup2\n        /* \"#utility.yul\":4779:4792   */\n      mload\n        /* \"#utility.yul\":4813:4933   */\n      tag_287\n        /* \"#utility.yul\":4928:4932   */\n      dup6\n        /* \"#utility.yul\":4913:4926   */\n      dup3\n        /* \"#utility.yul\":4813:4933   */\n      tag_265\n      jump\t// in\n    tag_287:\n        /* \"#utility.yul\":4805:4933   */\n      swap5\n      pop\n        /* \"#utility.yul\":4956:5044   */\n      tag_288\n        /* \"#utility.yul\":5037:5043   */\n      dup4\n        /* \"#utility.yul\":4956:5044   */\n      tag_289\n      jump\t// in\n    tag_288:\n        /* \"#utility.yul\":4946:5044   */\n      swap3\n      pop\n        /* \"#utility.yul\":5073:5077   */\n      0x20\n        /* \"#utility.yul\":5068:5071   */\n      dup11\n        /* \"#utility.yul\":5064:5078   */\n      add\n        /* \"#utility.yul\":5057:5078   */\n      swap10\n      pop\n        /* \"#utility.yul\":4698:5088   */\n      pop\n        /* \"#utility.yul\":4685:4686   */\n      0x01\n        /* \"#utility.yul\":4682:4683   */\n      dup2\n        /* \"#utility.yul\":4678:4687   */\n      add\n        /* \"#utility.yul\":4673:4687   */\n      swap1\n      pop\n        /* \"#utility.yul\":4638:5088   */\n      jump(tag_284)\n    tag_286:\n        /* \"#utility.yul\":4642:4656   */\n      pop\n        /* \"#utility.yul\":5104:5108   */\n      dup3\n        /* \"#utility.yul\":5097:5108   */\n      swap8\n      pop\n        /* \"#utility.yul\":5124:5127   */\n      dup8\n        /* \"#utility.yul\":5117:5127   */\n      swap6\n      pop\n        /* \"#utility.yul\":4178:5133   */\n      pop\n      pop\n      pop\n      pop\n      pop\n        /* \"#utility.yul\":3998:5133   */\n      swap3\n      swap2\n      pop\n      pop\n      jump\t// out\n        /* \"#utility.yul\":5139:5483   */\n    tag_290:\n        /* \"#utility.yul\":5217:5220   */\n      0x00\n        /* \"#utility.yul\":5245:5284   */\n      tag_292\n        /* \"#utility.yul\":5278:5283   */\n      dup3\n        /* \"#utility.yul\":5245:5284   */\n      tag_293\n      jump\t// in\n    tag_292:\n        /* \"#utility.yul\":5300:5361   */\n      tag_294\n        /* \"#utility.yul\":5354:5360   */\n      dup2\n        /* \"#utility.yul\":5349:5352   */\n      dup6\n        /* \"#utility.yul\":5300:5361   */\n      tag_295\n      jump\t// in\n    tag_294:\n        /* \"#utility.yul\":5293:5361   */\n      swap4\n      pop\n        /* \"#utility.yul\":5370:5422   */\n      tag_296\n        /* \"#utility.yul\":5415:5421   */\n      dup2\n        /* \"#utility.yul\":5410:5413   */\n      dup6\n        /* \"#utility.yul\":5403:5407   */\n      0x20\n        /* \"#utility.yul\":5396:5401   */\n      dup7\n        /* \"#utility.yul\":5392:5408   */\n      add\n        /* \"#utility.yul\":5370:5422   */\n      tag_297\n      jump\t// in\n    tag_296:\n        /* \"#utility.yul\":5447:5476   */\n      tag_298\n        /* \"#utility.yul\":5469:5475   */\n      dup2\n        /* \"#utility.yul\":5447:5476   */\n      tag_299\n      jump\t// in\n    tag_298:\n        /* \"#utility.yul\":5442:5445   */\n      dup5\n        /* \"#utility.yul\":5438:5477   */\n      add\n        /* \"#utility.yul\":5431:5477   */\n      swap2\n      pop\n        /* \"#utility.yul\":5221:5483   */\n      pop\n        /* \"#utility.yul\":5139:5483   */\n      swap3\n      swap2\n      pop\n      pop\n      jump\t// out\n        /* \"#utility.yul\":5489:5853   */\n    tag_300:\n        /* \"#utility.yul\":5577:5580   */\n      0x00\n        /* \"#utility.yul\":5605:5644   */\n      tag_302\n        /* \"#utility.yul\":5638:5643   */\n      dup3\n        /* \"#utility.yul\":5605:5644   */\n      tag_293\n      jump\t// in\n    tag_302:\n        /* \"#utility.yul\":5660:5731   */\n      tag_303\n        /* \"#utility.yul\":5724:5730   */\n      dup2\n        /* \"#utility.yul\":5719:5722   */\n      dup6\n        /* \"#utility.yul\":5660:5731   */\n      tag_304\n      jump\t// in\n    tag_303:\n        /* \"#utility.yul\":5653:5731   */\n      swap4\n      pop\n        /* \"#utility.yul\":5740:5792   */\n      tag_305\n        /* \"#utility.yul\":5785:5791   */\n      dup2\n        /* \"#utility.yul\":5780:5783   */\n      dup6\n        /* \"#utility.yul\":5773:5777   */\n      0x20\n        /* \"#utility.yul\":5766:5771   */\n      dup7\n        /* \"#utility.yul\":5762:5778   */\n      add\n        /* \"#utility.yul\":5740:5792   */\n      tag_297\n      jump\t// in\n    tag_305:\n        /* \"#utility.yul\":5817:5846   */\n      tag_306\n        /* \"#utility.yul\":5839:5845   */\n      dup2\n        /* \"#utility.yul\":5817:5846   */\n      tag_299\n      jump\t// in\n    tag_306:\n        /* \"#utility.yul\":5812:5815   */\n      dup5\n        /* \"#utility.yul\":5808:5847   */\n      add\n        /* \"#utility.yul\":5801:5847   */\n      swap2\n      pop\n        /* \"#utility.yul\":5581:5853   */\n      pop\n        /* \"#utility.yul\":5489:5853   */\n      swap3\n      swap2\n      pop\n      pop\n      jump\t// out\n        /* \"#utility.yul\":5951:7769   */\n    tag_268:\n        /* \"#utility.yul\":6066:6069   */\n      0x00\n        /* \"#utility.yul\":6102:6108   */\n      0x0100\n        /* \"#utility.yul\":6097:6100   */\n      dup4\n        /* \"#utility.yul\":6093:6109   */\n      add\n        /* \"#utility.yul\":6190:6194   */\n      0x00\n        /* \"#utility.yul\":6183:6188   */\n      dup4\n        /* \"#utility.yul\":6179:6195   */\n      add\n        /* \"#utility.yul\":6173:6196   */\n      mload\n        /* \"#utility.yul\":6209:6272   */\n      tag_308\n        /* \"#utility.yul\":6266:6270   */\n      0x00\n        /* \"#utility.yul\":6261:6264   */\n      dup7\n        /* \"#utility.yul\":6257:6271   */\n      add\n        /* \"#utility.yul\":6243:6255   */\n      dup3\n        /* \"#utility.yul\":6209:6272   */\n      tag_309\n      jump\t// in\n    tag_308:\n        /* \"#utility.yul\":6119:6282   */\n      pop\n        /* \"#utility.yul\":6365:6369   */\n      0x20\n        /* \"#utility.yul\":6358:6363   */\n      dup4\n        /* \"#utility.yul\":6354:6370   */\n      add\n        /* \"#utility.yul\":6348:6371   */\n      mload\n        /* \"#utility.yul\":6418:6421   */\n      dup5\n        /* \"#utility.yul\":6412:6416   */\n      dup3\n        /* \"#utility.yul\":6408:6422   */\n      sub\n        /* \"#utility.yul\":6401:6405   */\n      0x20\n        /* \"#utility.yul\":6396:6399   */\n      dup7\n        /* \"#utility.yul\":6392:6406   */\n      add\n        /* \"#utility.yul\":6385:6423   */\n      mstore\n        /* \"#utility.yul\":6444:6517   */\n      tag_310\n        /* \"#utility.yul\":6512:6516   */\n      dup3\n        /* \"#utility.yul\":6498:6510   */\n      dup3\n        /* \"#utility.yul\":6444:6517   */\n      tag_290\n      jump\t// in\n    tag_310:\n        /* \"#utility.yul\":6436:6517   */\n      swap2\n      pop\n        /* \"#utility.yul\":6292:6528   */\n      pop\n        /* \"#utility.yul\":6612:6616   */\n      0x40\n        /* \"#utility.yul\":6605:6610   */\n      dup4\n        /* \"#utility.yul\":6601:6617   */\n      add\n        /* \"#utility.yul\":6595:6618   */\n      mload\n        /* \"#utility.yul\":6631:6694   */\n      tag_311\n        /* \"#utility.yul\":6688:6692   */\n      0x40\n        /* \"#utility.yul\":6683:6686   */\n      dup7\n        /* \"#utility.yul\":6679:6693   */\n      add\n        /* \"#utility.yul\":6665:6677   */\n      dup3\n        /* \"#utility.yul\":6631:6694   */\n      tag_309\n      jump\t// in\n    tag_311:\n        /* \"#utility.yul\":6538:6704   */\n      pop\n        /* \"#utility.yul\":6789:6793   */\n      0x60\n        /* \"#utility.yul\":6782:6787   */\n      dup4\n        /* \"#utility.yul\":6778:6794   */\n      add\n        /* \"#utility.yul\":6772:6795   */\n      mload\n        /* \"#utility.yul\":6808:6871   */\n      tag_312\n        /* \"#utility.yul\":6865:6869   */\n      0x60\n        /* \"#utility.yul\":6860:6863   */\n      dup7\n        /* \"#utility.yul\":6856:6870   */\n      add\n        /* \"#utility.yul\":6842:6854   */\n      dup3\n        /* \"#utility.yul\":6808:6871   */\n      tag_269\n      jump\t// in\n    tag_312:\n        /* \"#utility.yul\":6714:6881   */\n      pop\n        /* \"#utility.yul\":6968:6972   */\n      0x80\n        /* \"#utility.yul\":6961:6966   */\n      dup4\n        /* \"#utility.yul\":6957:6973   */\n      add\n        /* \"#utility.yul\":6951:6974   */\n      mload\n        /* \"#utility.yul\":6987:7050   */\n      tag_313\n        /* \"#utility.yul\":7044:7048   */\n      0x80\n        /* \"#utility.yul\":7039:7042   */\n      dup7\n        /* \"#utility.yul\":7035:7049   */\n      add\n        /* \"#utility.yul\":7021:7033   */\n      dup3\n        /* \"#utility.yul\":6987:7050   */\n      tag_269\n      jump\t// in\n    tag_313:\n        /* \"#utility.yul\":6891:7060   */\n      pop\n        /* \"#utility.yul\":7145:7149   */\n      0xa0\n        /* \"#utility.yul\":7138:7143   */\n      dup4\n        /* \"#utility.yul\":7134:7150   */\n      add\n        /* \"#utility.yul\":7128:7151   */\n      mload\n        /* \"#utility.yul\":7164:7227   */\n      tag_314\n        /* \"#utility.yul\":7221:7225   */\n      0xa0\n        /* \"#utility.yul\":7216:7219   */\n      dup7\n        /* \"#utility.yul\":7212:7226   */\n      add\n        /* \"#utility.yul\":7198:7210   */\n      dup3\n        /* \"#utility.yul\":7164:7227   */\n      tag_309\n      jump\t// in\n    tag_314:\n        /* \"#utility.yul\":7070:7237   */\n      pop\n        /* \"#utility.yul\":7326:7330   */\n      0xc0\n        /* \"#utility.yul\":7319:7324   */\n      dup4\n        /* \"#utility.yul\":7315:7331   */\n      add\n        /* \"#utility.yul\":7309:7332   */\n      mload\n        /* \"#utility.yul\":7379:7382   */\n      dup5\n        /* \"#utility.yul\":7373:7377   */\n      dup3\n        /* \"#utility.yul\":7369:7383   */\n      sub\n        /* \"#utility.yul\":7362:7366   */\n      0xc0\n        /* \"#utility.yul\":7357:7360   */\n      dup7\n        /* \"#utility.yul\":7353:7367   */\n      add\n        /* \"#utility.yul\":7346:7384   */\n      mstore\n        /* \"#utility.yul\":7405:7478   */\n      tag_315\n        /* \"#utility.yul\":7473:7477   */\n      dup3\n        /* \"#utility.yul\":7459:7471   */\n      dup3\n        /* \"#utility.yul\":7405:7478   */\n      tag_290\n      jump\t// in\n    tag_315:\n        /* \"#utility.yul\":7397:7478   */\n      swap2\n      pop\n        /* \"#utility.yul\":7247:7489   */\n      pop\n        /* \"#utility.yul\":7579:7583   */\n      0xe0\n        /* \"#utility.yul\":7572:7577   */\n      dup4\n        /* \"#utility.yul\":7568:7584   */\n      add\n        /* \"#utility.yul\":7562:7585   */\n      mload\n        /* \"#utility.yul\":7632:7635   */\n      dup5\n        /* \"#utility.yul\":7626:7630   */\n      dup3\n        /* \"#utility.yul\":7622:7636   */\n      sub\n        /* \"#utility.yul\":7615:7619   */\n      0xe0\n        /* \"#utility.yul\":7610:7613   */\n      dup7\n        /* \"#utility.yul\":7606:7620   */\n      add\n        /* \"#utility.yul\":7599:7637   */\n      mstore\n        /* \"#utility.yul\":7658:7731   */\n      tag_316\n        /* \"#utility.yul\":7726:7730   */\n      dup3\n        /* \"#utility.yul\":7712:7724   */\n      dup3\n        /* \"#utility.yul\":7658:7731   */\n      tag_290\n      jump\t// in\n    tag_316:\n        /* \"#utility.yul\":7650:7731   */\n      swap2\n      pop\n        /* \"#utility.yul\":7499:7742   */\n      pop\n        /* \"#utility.yul\":7759:7763   */\n      dup1\n        /* \"#utility.yul\":7752:7763   */\n      swap2\n      pop\n        /* \"#utility.yul\":6071:7769   */\n      pop\n        /* \"#utility.yul\":5951:7769   */\n      swap3\n      swap2\n      pop\n      pop\n      jump\t// out\n        /* \"#utility.yul\":7775:7883   */\n    tag_309:\n        /* \"#utility.yul\":7852:7876   */\n      tag_318\n        /* \"#utility.yul\":7870:7875   */\n      dup2\n        /* \"#utility.yul\":7852:7876   */\n      tag_319\n      jump\t// in\n    tag_318:\n        /* \"#utility.yul\":7847:7850   */\n      dup3\n        /* \"#utility.yul\":7840:7877   */\n      mstore\n        /* \"#utility.yul\":7775:7883   */\n      pop\n      pop\n      jump\t// out\n        /* \"#utility.yul\":7889:8007   */\n    tag_320:\n        /* \"#utility.yul\":7976:8000   */\n      tag_322\n        /* \"#utility.yul\":7994:7999   */\n      dup2\n        /* \"#utility.yul\":7976:8000   */\n      tag_319\n      jump\t// in\n    tag_322:\n        /* \"#utility.yul\":7971:7974   */\n      dup3\n        /* \"#utility.yul\":7964:8001   */\n      mstore\n        /* \"#utility.yul\":7889:8007   */\n      pop\n      pop\n      jump\t// out\n        /* \"#utility.yul\":8013:8498   */\n    tag_14:\n        /* \"#utility.yul\":8212:8216   */\n      0x00\n        /* \"#utility.yul\":8250:8252   */\n      0x20\n        /* \"#utility.yul\":8239:8248   */\n      dup3\n        /* \"#utility.yul\":8235:8253   */\n      add\n        /* \"#utility.yul\":8227:8253   */\n      swap1\n      pop\n        /* \"#utility.yul\":8299:8308   */\n      dup2\n        /* \"#utility.yul\":8293:8297   */\n      dup2\n        /* \"#utility.yul\":8289:8309   */\n      sub\n        /* \"#utility.yul\":8285:8286   */\n      0x00\n        /* \"#utility.yul\":8274:8283   */\n      dup4\n        /* \"#utility.yul\":8270:8287   */\n      add\n        /* \"#utility.yul\":8263:8310   */\n      mstore\n        /* \"#utility.yul\":8327:8491   */\n      tag_324\n        /* \"#utility.yul\":8486:8490   */\n      dup2\n        /* \"#utility.yul\":8477:8483   */\n      dup5\n        /* \"#utility.yul\":8327:8491   */\n      tag_276\n      jump\t// in\n    tag_324:\n        /* \"#utility.yul\":8319:8491   */\n      swap1\n      pop\n        /* \"#utility.yul\":8013:8498   */\n      swap3\n      swap2\n      pop\n      pop\n      jump\t// out\n        /* \"#utility.yul\":8504:9774   */\n    tag_27:\n        /* \"#utility.yul\":8853:8857   */\n      0x00\n        /* \"#utility.yul\":8891:8894   */\n      0x0100\n        /* \"#utility.yul\":8880:8889   */\n      dup3\n        /* \"#utility.yul\":8876:8895   */\n      add\n        /* \"#utility.yul\":8868:8895   */\n      swap1\n      pop\n        /* \"#utility.yul\":8905:8976   */\n      tag_326\n        /* \"#utility.yul\":8973:8974   */\n      0x00\n        /* \"#utility.yul\":8962:8971   */\n      dup4\n        /* \"#utility.yul\":8958:8975   */\n      add\n        /* \"#utility.yul\":8949:8955   */\n      dup12\n        /* \"#utility.yul\":8905:8976   */\n      tag_320\n      jump\t// in\n    tag_326:\n        /* \"#utility.yul\":9023:9032   */\n      dup2\n        /* \"#utility.yul\":9017:9021   */\n      dup2\n        /* \"#utility.yul\":9013:9033   */\n      sub\n        /* \"#utility.yul\":9008:9010   */\n      0x20\n        /* \"#utility.yul\":8997:9006   */\n      dup4\n        /* \"#utility.yul\":8993:9011   */\n      add\n        /* \"#utility.yul\":8986:9034   */\n      mstore\n        /* \"#utility.yul\":9051:9129   */\n      tag_327\n        /* \"#utility.yul\":9124:9128   */\n      dup2\n        /* \"#utility.yul\":9115:9121   */\n      dup11\n        /* \"#utility.yul\":9051:9129   */\n      tag_300\n      jump\t// in\n    tag_327:\n        /* \"#utility.yul\":9043:9129   */\n      swap1\n      pop\n        /* \"#utility.yul\":9139:9211   */\n      tag_328\n        /* \"#utility.yul\":9207:9209   */\n      0x40\n        /* \"#utility.yul\":9196:9205   */\n      dup4\n        /* \"#utility.yul\":9192:9210   */\n      add\n        /* \"#utility.yul\":9183:9189   */\n      dup10\n        /* \"#utility.yul\":9139:9211   */\n      tag_320\n      jump\t// in\n    tag_328:\n        /* \"#utility.yul\":9221:9293   */\n      tag_329\n        /* \"#utility.yul\":9289:9291   */\n      0x60\n        /* \"#utility.yul\":9278:9287   */\n      dup4\n        /* \"#utility.yul\":9274:9292   */\n      add\n        /* \"#utility.yul\":9265:9271   */\n      dup9\n        /* \"#utility.yul\":9221:9293   */\n      tag_273\n      jump\t// in\n    tag_329:\n        /* \"#utility.yul\":9303:9376   */\n      tag_330\n        /* \"#utility.yul\":9371:9374   */\n      0x80\n        /* \"#utility.yul\":9360:9369   */\n      dup4\n        /* \"#utility.yul\":9356:9375   */\n      add\n        /* \"#utility.yul\":9347:9353   */\n      dup8\n        /* \"#utility.yul\":9303:9376   */\n      tag_273\n      jump\t// in\n    tag_330:\n        /* \"#utility.yul\":9386:9459   */\n      tag_331\n        /* \"#utility.yul\":9454:9457   */\n      0xa0\n        /* \"#utility.yul\":9443:9452   */\n      dup4\n        /* \"#utility.yul\":9439:9458   */\n      add\n        /* \"#utility.yul\":9430:9436   */\n      dup7\n        /* \"#utility.yul\":9386:9459   */\n      tag_320\n      jump\t// in\n    tag_331:\n        /* \"#utility.yul\":9507:9516   */\n      dup2\n        /* \"#utility.yul\":9501:9505   */\n      dup2\n        /* \"#utility.yul\":9497:9517   */\n      sub\n        /* \"#utility.yul\":9491:9494   */\n      0xc0\n        /* \"#utility.yul\":9480:9489   */\n      dup4\n        /* \"#utility.yul\":9476:9495   */\n      add\n        /* \"#utility.yul\":9469:9518   */\n      mstore\n        /* \"#utility.yul\":9535:9613   */\n      tag_332\n        /* \"#utility.yul\":9608:9612   */\n      dup2\n        /* \"#utility.yul\":9599:9605   */\n      dup6\n        /* \"#utility.yul\":9535:9613   */\n      tag_300\n      jump\t// in\n    tag_332:\n        /* \"#utility.yul\":9527:9613   */\n      swap1\n      pop\n        /* \"#utility.yul\":9661:9670   */\n      dup2\n        /* \"#utility.yul\":9655:9659   */\n      dup2\n        /* \"#utility.yul\":9651:9671   */\n      sub\n        /* \"#utility.yul\":9645:9648   */\n      0xe0\n        /* \"#utility.yul\":9634:9643   */\n      dup4\n        /* \"#utility.yul\":9630:9649   */\n      add\n        /* \"#utility.yul\":9623:9672   */\n      mstore\n        /* \"#utility.yul\":9689:9767   */\n      tag_333\n        /* \"#utility.yul\":9762:9766   */\n      dup2\n        /* \"#utility.yul\":9753:9759   */\n      dup5\n        /* \"#utility.yul\":9689:9767   */\n      tag_300\n      jump\t// in\n    tag_333:\n        /* \"#utility.yul\":9681:9767   */\n      swap1\n      pop\n        /* \"#utility.yul\":8504:9774   */\n      swap10\n      swap9\n      pop\n      pop\n      pop\n      pop\n      pop\n      pop\n      pop\n      pop\n      pop\n      jump\t// out\n        /* \"#utility.yul\":9780:9909   */\n    tag_218:\n        /* \"#utility.yul\":9814:9820   */\n      0x00\n        /* \"#utility.yul\":9841:9861   */\n      tag_335\n      tag_336\n      jump\t// in\n    tag_335:\n        /* \"#utility.yul\":9831:9861   */\n      swap1\n      pop\n        /* \"#utility.yul\":9870:9903   */\n      tag_337\n        /* \"#utility.yul\":9898:9902   */\n      dup3\n        /* \"#utility.yul\":9890:9896   */\n      dup3\n        /* \"#utility.yul\":9870:9903   */\n      tag_338\n      jump\t// in\n    tag_337:\n        /* \"#utility.yul\":9780:9909   */\n      swap2\n      swap1\n      pop\n      jump\t// out\n        /* \"#utility.yul\":9915:9990   */\n    tag_336:\n        /* \"#utility.yul\":9948:9954   */\n      0x00\n        /* \"#utility.yul\":9981:9983   */\n      0x40\n        /* \"#utility.yul\":9975:9984   */\n      mload\n        /* \"#utility.yul\":9965:9984   */\n      swap1\n      pop\n        /* \"#utility.yul\":9915:9990   */\n      swap1\n      jump\t// out\n        /* \"#utility.yul\":9996:10304   */\n    tag_217:\n        /* \"#utility.yul\":10058:10062   */\n      0x00\n        /* \"#utility.yul\":10148:10166   */\n      0xffffffffffffffff\n        /* \"#utility.yul\":10140:10146   */\n      dup3\n        /* \"#utility.yul\":10137:10167   */\n      gt\n        /* \"#utility.yul\":10134:10190   */\n      iszero\n      tag_341\n      jumpi\n        /* \"#utility.yul\":10170:10188   */\n      tag_342\n      tag_343\n      jump\t// in\n    tag_342:\n        /* \"#utility.yul\":10134:10190   */\n    tag_341:\n        /* \"#utility.yul\":10208:10237   */\n      tag_344\n        /* \"#utility.yul\":10230:10236   */\n      dup3\n        /* \"#utility.yul\":10208:10237   */\n      tag_299\n      jump\t// in\n    tag_344:\n        /* \"#utility.yul\":10200:10237   */\n      swap1\n      pop\n        /* \"#utility.yul\":10292:10296   */\n      0x20\n        /* \"#utility.yul\":10286:10290   */\n      dup2\n        /* \"#utility.yul\":10282:10297   */\n      add\n        /* \"#utility.yul\":10274:10297   */\n      swap1\n      pop\n        /* \"#utility.yul\":9996:10304   */\n      swap2\n      swap1\n      pop\n      jump\t// out\n        /* \"#utility.yul\":10310:10470   */\n    tag_283:\n        /* \"#utility.yul\":10405:10409   */\n      0x00\n        /* \"#utility.yul\":10428:10431   */\n      dup2\n        /* \"#utility.yul\":10420:10431   */\n      swap1\n      pop\n        /* \"#utility.yul\":10458:10462   */\n      0x20\n        /* \"#utility.yul\":10453:10456   */\n      dup3\n        /* \"#utility.yul\":10449:10463   */\n      add\n        /* \"#utility.yul\":10441:10463   */\n      swap1\n      pop\n        /* \"#utility.yul\":10310:10470   */\n      swap2\n      swap1\n      pop\n      jump\t// out\n        /* \"#utility.yul\":10476:10618   */\n    tag_279:\n        /* \"#utility.yul\":10571:10577   */\n      0x00\n        /* \"#utility.yul\":10605:10610   */\n      dup2\n        /* \"#utility.yul\":10599:10611   */\n      mload\n        /* \"#utility.yul\":10589:10611   */\n      swap1\n      pop\n        /* \"#utility.yul\":10476:10618   */\n      swap2\n      swap1\n      pop\n      jump\t// out\n        /* \"#utility.yul\":10624:10723   */\n    tag_293:\n        /* \"#utility.yul\":10676:10682   */\n      0x00\n        /* \"#utility.yul\":10710:10715   */\n      dup2\n        /* \"#utility.yul\":10704:10716   */\n      mload\n        /* \"#utility.yul\":10694:10716   */\n      swap1\n      pop\n        /* \"#utility.yul\":10624:10723   */\n      swap2\n      swap1\n      pop\n      jump\t// out\n        /* \"#utility.yul\":10729:10870   */\n    tag_289:\n        /* \"#utility.yul\":10827:10831   */\n      0x00\n        /* \"#utility.yul\":10859:10863   */\n      0x20\n        /* \"#utility.yul\":10854:10857   */\n      dup3\n        /* \"#utility.yul\":10850:10864   */\n      add\n        /* \"#utility.yul\":10842:10864   */\n      swap1\n      pop\n        /* \"#utility.yul\":10729:10870   */\n      swap2\n      swap1\n      pop\n      jump\t// out\n        /* \"#utility.yul\":10876:11088   */\n    tag_281:\n        /* \"#utility.yul\":11003:11014   */\n      0x00\n        /* \"#utility.yul\":11037:11043   */\n      dup3\n        /* \"#utility.yul\":11032:11035   */\n      dup3\n        /* \"#utility.yul\":11025:11044   */\n      mstore\n        /* \"#utility.yul\":11077:11081   */\n      0x20\n        /* \"#utility.yul\":11072:11075   */\n      dup3\n        /* \"#utility.yul\":11068:11082   */\n      add\n        /* \"#utility.yul\":11053:11082   */\n      swap1\n      pop\n        /* \"#utility.yul\":10876:11088   */\n      swap3\n      swap2\n      pop\n      pop\n      jump\t// out\n        /* \"#utility.yul\":11094:11253   */\n    tag_295:\n        /* \"#utility.yul\":11168:11179   */\n      0x00\n        /* \"#utility.yul\":11202:11208   */\n      dup3\n        /* \"#utility.yul\":11197:11200   */\n      dup3\n        /* \"#utility.yul\":11190:11209   */\n      mstore\n        /* \"#utility.yul\":11242:11246   */\n      0x20\n        /* \"#utility.yul\":11237:11240   */\n      dup3\n        /* \"#utility.yul\":11233:11247   */\n      add\n        /* \"#utility.yul\":11218:11247   */\n      swap1\n      pop\n        /* \"#utility.yul\":11094:11253   */\n      swap3\n      swap2\n      pop\n      pop\n      jump\t// out\n        /* \"#utility.yul\":11259:11428   */\n    tag_304:\n        /* \"#utility.yul\":11343:11354   */\n      0x00\n        /* \"#utility.yul\":11377:11383   */\n      dup3\n        /* \"#utility.yul\":11372:11375   */\n      dup3\n        /* \"#utility.yul\":11365:11384   */\n      mstore\n        /* \"#utility.yul\":11417:11421   */\n      0x20\n        /* \"#utility.yul\":11412:11415   */\n      dup3\n        /* \"#utility.yul\":11408:11422   */\n      add\n        /* \"#utility.yul\":11393:11422   */\n      swap1\n      pop\n        /* \"#utility.yul\":11259:11428   */\n      swap3\n      swap2\n      pop\n      pop\n      jump\t// out\n        /* \"#utility.yul\":11434:11739   */\n    tag_89:\n        /* \"#utility.yul\":11474:11477   */\n      0x00\n        /* \"#utility.yul\":11493:11513   */\n      tag_353\n        /* \"#utility.yul\":11511:11512   */\n      dup3\n        /* \"#utility.yul\":11493:11513   */\n      tag_319\n      jump\t// in\n    tag_353:\n        /* \"#utility.yul\":11488:11513   */\n      swap2\n      pop\n        /* \"#utility.yul\":11527:11547   */\n      tag_354\n        /* \"#utility.yul\":11545:11546   */\n      dup4\n        /* \"#utility.yul\":11527:11547   */\n      tag_319\n      jump\t// in\n    tag_354:\n        /* \"#utility.yul\":11522:11547   */\n      swap3\n      pop\n        /* \"#utility.yul\":11681:11682   */\n      dup3\n        /* \"#utility.yul\":11613:11679   */\n      0xffffffffffffffffffffffffffffffffffffffffffffffffffffffffffffffff\n        /* \"#utility.yul\":11609:11683   */\n      sub\n        /* \"#utility.yul\":11606:11607   */\n      dup3\n        /* \"#utility.yul\":11603:11684   */\n      gt\n        /* \"#utility.yul\":11600:11707   */\n      iszero\n      tag_355\n      jumpi\n        /* \"#utility.yul\":11687:11705   */\n      tag_356\n      tag_357\n      jump\t// in\n    tag_356:\n        /* \"#utility.yul\":11600:11707   */\n    tag_355:\n        /* \"#utility.yul\":11731:11732   */\n      dup3\n        /* \"#utility.yul\":11728:11729   */\n      dup3\n        /* \"#utility.yul\":11724:11733   */\n      add\n        /* \"#utility.yul\":11717:11733   */\n      swap1\n      pop\n        /* \"#utility.yul\":11434:11739   */\n      swap3\n      swap2\n      pop\n      pop\n      jump\t// out\n        /* \"#utility.yul\":11745:11936   */\n    tag_58:\n        /* \"#utility.yul\":11785:11789   */\n      0x00\n        /* \"#utility.yul\":11805:11825   */\n      tag_359\n        /* \"#utility.yul\":11823:11824   */\n      dup3\n        /* \"#utility.yul\":11805:11825   */\n      tag_319\n      jump\t// in\n    tag_359:\n        /* \"#utility.yul\":11800:11825   */\n      swap2\n      pop\n        /* \"#utility.yul\":11839:11859   */\n      tag_360\n        /* \"#utility.yul\":11857:11858   */\n      dup4\n        /* \"#utility.yul\":11839:11859   */\n      tag_319\n      jump\t// in\n    tag_360:\n        /* \"#utility.yul\":11834:11859   */\n      swap3\n      pop\n        /* \"#utility.yul\":11878:11879   */\n      dup3\n        /* \"#utility.yul\":11875:11876   */\n      dup3\n        /* \"#utility.yul\":11872:11880   */\n      lt\n        /* \"#utility.yul\":11869:11903   */\n      iszero\n      tag_361\n      jumpi\n        /* \"#utility.yul\":11883:11901   */\n      tag_362\n      tag_357\n      jump\t// in\n    tag_362:\n        /* \"#utility.yul\":11869:11903   */\n    tag_361:\n        /* \"#utility.yul\":11928:11929   */\n      dup3\n        /* \"#utility.yul\":11925:11926   */\n      dup3\n        /* \"#utility.yul\":11921:11930   */\n      sub\n        /* \"#utility.yul\":11913:11930   */\n      swap1\n      pop\n        /* \"#utility.yul\":11745:11936   */\n      swap3\n      swap2\n      pop\n      pop\n      jump\t// out\n        /* \"#utility.yul\":11942:12038   */\n    tag_272:\n        /* \"#utility.yul\":11979:11986   */\n      0x00\n        /* \"#utility.yul\":12008:12032   */\n      tag_364\n        /* \"#utility.yul\":12026:12031   */\n      dup3\n        /* \"#utility.yul\":12008:12032   */\n      tag_365\n      jump\t// in\n    tag_364:\n        /* \"#utility.yul\":11997:12032   */\n      swap1\n      pop\n        /* \"#utility.yul\":11942:12038   */\n      swap2\n      swap1\n      pop\n      jump\t// out\n        /* \"#utility.yul\":12044:12170   */\n    tag_365:\n        /* \"#utility.yul\":12081:12088   */\n      0x00\n        /* \"#utility.yul\":12121:12163   */\n      0xffffffffffffffffffffffffffffffffffffffff\n        /* \"#utility.yul\":12114:12119   */\n      dup3\n        /* \"#utility.yul\":12110:12164   */\n      and\n        /* \"#utility.yul\":12099:12164   */\n      swap1\n      pop\n        /* \"#utility.yul\":12044:12170   */\n      swap2\n      swap1\n      pop\n      jump\t// out\n        /* \"#utility.yul\":12176:12253   */\n    tag_319:\n        /* \"#utility.yul\":12213:12220   */\n      0x00\n        /* \"#utility.yul\":12242:12247   */\n      dup2\n        /* \"#utility.yul\":12231:12247   */\n      swap1\n      pop\n        /* \"#utility.yul\":12176:12253   */\n      swap2\n      swap1\n      pop\n      jump\t// out\n        /* \"#utility.yul\":12259:12413   */\n    tag_223:\n        /* \"#utility.yul\":12343:12349   */\n      dup3\n        /* \"#utility.yul\":12338:12341   */\n      dup2\n        /* \"#utility.yul\":12333:12336   */\n      dup4\n        /* \"#utility.yul\":12320:12350   */\n      calldatacopy\n        /* \"#utility.yul\":12405:12406   */\n      0x00\n        /* \"#utility.yul\":12396:12402   */\n      dup4\n        /* \"#utility.yul\":12391:12394   */\n      dup4\n        /* \"#utility.yul\":12387:12403   */\n      add\n        /* \"#utility.yul\":12380:12407   */\n      mstore\n        /* \"#utility.yul\":12259:12413   */\n      pop\n      pop\n      pop\n      jump\t// out\n        /* \"#utility.yul\":12419:12726   */\n    tag_297:\n        /* \"#utility.yul\":12487:12488   */\n      0x00\n        /* \"#utility.yul\":12497:12610   */\n    tag_370:\n        /* \"#utility.yul\":12511:12517   */\n      dup4\n        /* \"#utility.yul\":12508:12509   */\n      dup2\n        /* \"#utility.yul\":12505:12518   */\n      lt\n        /* \"#utility.yul\":12497:12610   */\n      iszero\n      tag_372\n      jumpi\n        /* \"#utility.yul\":12596:12597   */\n      dup1\n        /* \"#utility.yul\":12591:12594   */\n      dup3\n        /* \"#utility.yul\":12587:12598   */\n      add\n        /* \"#utility.yul\":12581:12599   */\n      mload\n        /* \"#utility.yul\":12577:12578   */\n      dup2\n        /* \"#utility.yul\":12572:12575   */\n      dup5\n        /* \"#utility.yul\":12568:12579   */\n      add\n        /* \"#utility.yul\":12561:12600   */\n      mstore\n        /* \"#utility.yul\":12533:12535   */\n      0x20\n        /* \"#utility.yul\":12530:12531   */\n      dup2\n        /* \"#utility.yul\":12526:12536   */\n      add\n        /* \"#utility.yul\":12521:12536   */\n      swap1\n      pop\n        /* \"#utility.yul\":12497:12610   */\n      jump(tag_370)\n    tag_372:\n        /* \"#utility.yul\":12628:12634   */\n      dup4\n        /* \"#utility.yul\":12625:12626   */\n      dup2\n        /* \"#utility.yul\":12622:12635   */\n      gt\n        /* \"#utility.yul\":12619:12720   */\n      iszero\n      tag_373\n      jumpi\n        /* \"#utility.yul\":12708:12709   */\n      0x00\n        /* \"#utility.yul\":12699:12705   */\n      dup5\n        /* \"#utility.yul\":12694:12697   */\n      dup5\n        /* \"#utility.yul\":12690:12706   */\n      add\n        /* \"#utility.yul\":12683:12710   */\n      mstore\n        /* \"#utility.yul\":12619:12720   */\n    tag_373:\n        /* \"#utility.yul\":12468:12726   */\n      pop\n        /* \"#utility.yul\":12419:12726   */\n      pop\n      pop\n      pop\n      jump\t// out\n        /* \"#utility.yul\":12732:13052   */\n    tag_41:\n        /* \"#utility.yul\":12776:12782   */\n      0x00\n        /* \"#utility.yul\":12813:12814   */\n      0x02\n        /* \"#utility.yul\":12807:12811   */\n      dup3\n        /* \"#utility.yul\":12803:12815   */\n      div\n        /* \"#utility.yul\":12793:12815   */\n      swap1\n      pop\n        /* \"#utility.yul\":12860:12861   */\n      0x01\n        /* \"#utility.yul\":12854:12858   */\n      dup3\n        /* \"#utility.yul\":12850:12862   */\n      and\n        /* \"#utility.yul\":12881:12899   */\n      dup1\n        /* \"#utility.yul\":12871:12952   */\n      tag_375\n      jumpi\n        /* \"#utility.yul\":12937:12941   */\n      0x7f\n        /* \"#utility.yul\":12929:12935   */\n      dup3\n        /* \"#utility.yul\":12925:12942   */\n      and\n        /* \"#utility.yul\":12915:12942   */\n      swap2\n      pop\n        /* \"#utility.yul\":12871:12952   */\n    tag_375:\n        /* \"#utility.yul\":12999:13001   */\n      0x20\n        /* \"#utility.yul\":12991:12997   */\n      dup3\n        /* \"#utility.yul\":12988:13002   */\n      lt\n        /* \"#utility.yul\":12968:12986   */\n      dup2\n        /* \"#utility.yul\":12965:13003   */\n      eq\n        /* \"#utility.yul\":12962:13046   */\n      iszero\n      tag_376\n      jumpi\n        /* \"#utility.yul\":13018:13036   */\n      tag_377\n      tag_378\n      jump\t// in\n    tag_377:\n        /* \"#utility.yul\":12962:13046   */\n    tag_376:\n        /* \"#utility.yul\":12783:13052   */\n      pop\n        /* \"#utility.yul\":12732:13052   */\n      swap2\n      swap1\n      pop\n      jump\t// out\n        /* \"#utility.yul\":13058:13339   */\n    tag_338:\n        /* \"#utility.yul\":13141:13168   */\n      tag_380\n        /* \"#utility.yul\":13163:13167   */\n      dup3\n        /* \"#utility.yul\":13141:13168   */\n      tag_299\n      jump\t// in\n    tag_380:\n        /* \"#utility.yul\":13133:13139   */\n      dup2\n        /* \"#utility.yul\":13129:13169   */\n      add\n        /* \"#utility.yul\":13271:13277   */\n      dup2\n        /* \"#utility.yul\":13259:13269   */\n      dup2\n        /* \"#utility.yul\":13256:13278   */\n      lt\n        /* \"#utility.yul\":13235:13253   */\n      0xffffffffffffffff\n        /* \"#utility.yul\":13223:13233   */\n      dup3\n        /* \"#utility.yul\":13220:13254   */\n      gt\n        /* \"#utility.yul\":13217:13279   */\n      or\n        /* \"#utility.yul\":13214:13302   */\n      iszero\n      tag_381\n      jumpi\n        /* \"#utility.yul\":13282:13300   */\n      tag_382\n      tag_343\n      jump\t// in\n    tag_382:\n        /* \"#utility.yul\":13214:13302   */\n    tag_381:\n        /* \"#utility.yul\":13322:13332   */\n      dup1\n        /* \"#utility.yul\":13318:13320   */\n      0x40\n        /* \"#utility.yul\":13311:13333   */\n      mstore\n        /* \"#utility.yul\":13101:13339   */\n      pop\n        /* \"#utility.yul\":13058:13339   */\n      pop\n      pop\n      jump\t// out\n        /* \"#utility.yul\":13345:13578   */\n    tag_104:\n        /* \"#utility.yul\":13384:13387   */\n      0x00\n        /* \"#utility.yul\":13407:13431   */\n      tag_384\n        /* \"#utility.yul\":13425:13430   */\n      dup3\n        /* \"#utility.yul\":13407:13431   */\n      tag_319\n      jump\t// in\n    tag_384:\n        /* \"#utility.yul\":13398:13431   */\n      swap2\n      pop\n        /* \"#utility.yul\":13453:13519   */\n      0xffffffffffffffffffffffffffffffffffffffffffffffffffffffffffffffff\n        /* \"#utility.yul\":13446:13451   */\n      dup3\n        /* \"#utility.yul\":13443:13520   */\n      eq\n        /* \"#utility.yul\":13440:13543   */\n      iszero\n      tag_385\n      jumpi\n        /* \"#utility.yul\":13523:13541   */\n      tag_386\n      tag_357\n      jump\t// in\n    tag_386:\n        /* \"#utility.yul\":13440:13543   */\n    tag_385:\n        /* \"#utility.yul\":13570:13571   */\n      0x01\n        /* \"#utility.yul\":13563:13568   */\n      dup3\n        /* \"#utility.yul\":13559:13572   */\n      add\n        /* \"#utility.yul\":13552:13572   */\n      swap1\n      pop\n        /* \"#utility.yul\":13345:13578   */\n      swap2\n      swap1\n      pop\n      jump\t// out\n        /* \"#utility.yul\":13584:13764   */\n    tag_357:\n        /* \"#utility.yul\":13632:13709   */\n      0x4e487b7100000000000000000000000000000000000000000000000000000000\n        /* \"#utility.yul\":13629:13630   */\n      0x00\n        /* \"#utility.yul\":13622:13710   */\n      mstore\n        /* \"#utility.yul\":13729:13733   */\n      0x11\n        /* \"#utility.yul\":13726:13727   */\n      0x04\n        /* \"#utility.yul\":13719:13734   */\n      mstore\n        /* \"#utility.yul\":13753:13757   */\n      0x24\n        /* \"#utility.yul\":13750:13751   */\n      0x00\n        /* \"#utility.yul\":13743:13758   */\n      revert\n        /* \"#utility.yul\":13770:13950   */\n    tag_378:\n        /* \"#utility.yul\":13818:13895   */\n      0x4e487b7100000000000000000000000000000000000000000000000000000000\n        /* \"#utility.yul\":13815:13816   */\n      0x00\n        /* \"#utility.yul\":13808:13896   */\n      mstore\n        /* \"#utility.yul\":13915:13919   */\n      0x22\n        /* \"#utility.yul\":13912:13913   */\n      0x04\n        /* \"#utility.yul\":13905:13920   */\n      mstore\n        /* \"#utility.yul\":13939:13943   */\n      0x24\n        /* \"#utility.yul\":13936:13937   */\n      0x00\n        /* \"#utility.yul\":13929:13944   */\n      revert\n        /* \"#utility.yul\":13956:14136   */\n    tag_73:\n        /* \"#utility.yul\":14004:14081   */\n      0x4e487b7100000000000000000000000000000000000000000000000000000000\n        /* \"#utility.yul\":14001:14002   */\n      0x00\n        /* \"#utility.yul\":13994:14082   */\n      mstore\n        /* \"#utility.yul\":14101:14105   */\n      0x31\n        /* \"#utility.yul\":14098:14099   */\n      0x04\n        /* \"#utility.yul\":14091:14106   */\n      mstore\n        /* \"#utility.yul\":14125:14129   */\n      0x24\n        /* \"#utility.yul\":14122:14123   */\n      0x00\n        /* \"#utility.yul\":14115:14130   */\n      revert\n        /* \"#utility.yul\":14142:14322   */\n    tag_61:\n        /* \"#utility.yul\":14190:14267   */\n      0x4e487b7100000000000000000000000000000000000000000000000000000000\n        /* \"#utility.yul\":14187:14188   */\n      0x00\n        /* \"#utility.yul\":14180:14268   */\n      mstore\n        /* \"#utility.yul\":14287:14291   */\n      0x32\n        /* \"#utility.yul\":14284:14285   */\n      0x04\n        /* \"#utility.yul\":14277:14292   */\n      mstore\n        /* \"#utility.yul\":14311:14315   */\n      0x24\n        /* \"#utility.yul\":14308:14309   */\n      0x00\n        /* \"#utility.yul\":14301:14316   */\n      revert\n        /* \"#utility.yul\":14328:14508   */\n    tag_343:\n        /* \"#utility.yul\":14376:14453   */\n      0x4e487b7100000000000000000000000000000000000000000000000000000000\n        /* \"#utility.yul\":14373:14374   */\n      0x00\n        /* \"#utility.yul\":14366:14454   */\n      mstore\n        /* \"#utility.yul\":14473:14477   */\n      0x41\n        /* \"#utility.yul\":14470:14471   */\n      0x04\n        /* \"#utility.yul\":14463:14478   */\n      mstore\n        /* \"#utility.yul\":14497:14501   */\n      0x24\n        /* \"#utility.yul\":14494:14495   */\n      0x00\n        /* \"#utility.yul\":14487:14502   */\n      revert\n        /* \"#utility.yul\":14514:14631   */\n    tag_232:\n        /* \"#utility.yul\":14623:14624   */\n      0x00\n        /* \"#utility.yul\":14620:14621   */\n      dup1\n        /* \"#utility.yul\":14613:14625   */\n      revert\n        /* \"#utility.yul\":14637:14754   */\n    tag_221:\n        /* \"#utility.yul\":14746:14747   */\n      0x00\n        /* \"#utility.yul\":14743:14744   */\n      dup1\n        /* \"#utility.yul\":14736:14748   */\n      revert\n        /* \"#utility.yul\":14760:14877   */\n    tag_248:\n        /* \"#utility.yul\":14869:14870   */\n      0x00\n        /* \"#utility.yul\":14866:14867   */\n      dup1\n        /* \"#utility.yul\":14859:14871   */\n      revert\n        /* \"#utility.yul\":14883:15000   */\n    tag_241:\n        /* \"#utility.yul\":14992:14993   */\n      0x00\n        /* \"#utility.yul\":14989:14990   */\n      dup1\n        /* \"#utility.yul\":14982:14994   */\n      revert\n        /* \"#utility.yul\":15006:15108   */\n    tag_299:\n        /* \"#utility.yul\":15047:15053   */\n      0x00\n        /* \"#utility.yul\":15098:15100   */\n      0x1f\n        /* \"#utility.yul\":15094:15101   */\n      not\n        /* \"#utility.yul\":15089:15091   */\n      0x1f\n        /* \"#utility.yul\":15082:15087   */\n      dup4\n        /* \"#utility.yul\":15078:15092   */\n      add\n        /* \"#utility.yul\":15074:15102   */\n      and\n        /* \"#utility.yul\":15064:15102   */\n      swap1\n      pop\n        /* \"#utility.yul\":15006:15108   */\n      swap2\n      swap1\n      pop\n      jump\t// out\n        /* \"#utility.yul\":15114:15236   */\n    tag_227:\n        /* \"#utility.yul\":15187:15211   */\n      tag_398\n        /* \"#utility.yul\":15205:15210   */\n      dup2\n        /* \"#utility.yul\":15187:15211   */\n      tag_272\n      jump\t// in\n    tag_398:\n        /* \"#utility.yul\":15180:15185   */\n      dup2\n        /* \"#utility.yul\":15177:15212   */\n      eq\n        /* \"#utility.yul\":15167:15230   */\n      tag_399\n      jumpi\n        /* \"#utility.yul\":15226:15227   */\n      0x00\n        /* \"#utility.yul\":15223:15224   */\n      dup1\n        /* \"#utility.yul\":15216:15228   */\n      revert\n        /* \"#utility.yul\":15167:15230   */\n    tag_399:\n        /* \"#utility.yul\":15114:15236   */\n      pop\n      jump\t// out\n        /* \"#utility.yul\":15242:15364   */\n    tag_237:\n        /* \"#utility.yul\":15315:15339   */\n      tag_401\n        /* \"#utility.yul\":15333:15338   */\n      dup2\n        /* \"#utility.yul\":15315:15339   */\n      tag_319\n      jump\t// in\n    tag_401:\n        /* \"#utility.yul\":15308:15313   */\n      dup2\n        /* \"#utility.yul\":15305:15340   */\n      eq\n        /* \"#utility.yul\":15295:15358   */\n      tag_402\n      jumpi\n        /* \"#utility.yul\":15354:15355   */\n      0x00\n        /* \"#utility.yul\":15351:15352   */\n      dup1\n        /* \"#utility.yul\":15344:15356   */\n      revert\n        /* \"#utility.yul\":15295:15358   */\n    tag_402:\n        /* \"#utility.yul\":15242:15364   */\n      pop\n      jump\t// out\n\n    auxdata: 0xa2646970667358221220af5249c854f2a8ae5035f9a3de2ad2542260685f8af28ac9808f78e27292321064736f6c63430008070033\n}\n",
				"bytecode": {
					"linkReferences": {},
					"object": "608060405234801561001057600080fd5b50612144806100206000396000f3fe608060405234801561001057600080fd5b50600436106100625760003560e01c8063377e6ff7146100675780635102bc9d1461009757806369ba1a75146100b357806380c9419e146100cf578063904cc17514610106578063a97af4d514610136575b600080fd5b610081600480360381019061007c9190611975565b610152565b60405161008e9190611cab565b60405180910390f35b6100b160048036038101906100ac9190611a5a565b610471565b005b6100cd60048036038101906100c89190611a2d565b6104ba565b005b6100e960048036038101906100e49190611a2d565b610abc565b6040516100fd989796959493929190611ccd565b60405180910390f35b610120600480360381019061011b9190611a2d565b610cec565b60405161012d9190611cab565b60405180910390f35b610150600480360381019061014b91906119a2565b6112c9565b005b6060600360008373ffffffffffffffffffffffffffffffffffffffff1673ffffffffffffffffffffffffffffffffffffffff168152602001908152602001600020805480602002602001604051908101604052809291908181526020016000905b82821015610466578382906000526020600020906008020160405180610100016040529081600082015481526020016001820180546101f190611f24565b80601f016020809104026020016040519081016040528092919081815260200182805461021d90611f24565b801561026a5780601f1061023f5761010080835404028352916020019161026a565b820191906000526020600020905b81548152906001019060200180831161024d57829003601f168201915b50505050508152602001600282015481526020016003820160009054906101000a900473ffffffffffffffffffffffffffffffffffffffff1673ffffffffffffffffffffffffffffffffffffffff1673ffffffffffffffffffffffffffffffffffffffff1681526020016004820160009054906101000a900473ffffffffffffffffffffffffffffffffffffffff1673ffffffffffffffffffffffffffffffffffffffff1673ffffffffffffffffffffffffffffffffffffffff1681526020016005820154815260200160068201805461034390611f24565b80601f016020809104026020016040519081016040528092919081815260200182805461036f90611f24565b80156103bc5780601f10610391576101008083540402835291602001916103bc565b820191906000526020600020905b81548152906001019060200180831161039f57829003601f168201915b505050505081526020016007820180546103d590611f24565b80601f016020809104026020016040519081016040528092919081815260200182805461040190611f24565b801561044e5780601f106104235761010080835404028352916020019161044e565b820191906000526020600020905b81548152906001019060200180831161043157829003601f168201915b505050505081525050815260200190600101906101b3565b505050509050919050565b80600180846104809190611e72565b815481106104915761049061205d565b5b906000526020600020906008020160010190805190602001906104b592919061176b565b505050565b6003600180836104ca9190611e72565b815481106104db576104da61205d565b5b906000526020600020906008020160020181905550600160026000600181526020019081526020016000208054905014156105e85760026000600181526020019081526020016000208054806105345761053361202e565b5b600190038181906000526020600020906008020160008082016000905560018201600061056191906117f1565b60028201600090556003820160006101000a81549073ffffffffffffffffffffffffffffffffffffffff02191690556004820160006101000a81549073ffffffffffffffffffffffffffffffffffffffff021916905560058201600090556006820160006105cf91906117f1565b6007820160006105df91906117f1565b50509055610901565b60005b600160026000600181526020019081526020016000208054905061060f9190611e72565b81101561082c57816002600060018152602001908152602001600020828154811061063d5761063c61205d565b5b90600052602060002090600802016000015414156108195760026000600181526020019081526020016000206001826106769190611e1c565b815481106106875761068661205d565b5b9060005260206000209060080201600260006001815260200190815260200160002082815481106106bb576106ba61205d565b5b90600052602060002090600802016000820154816000015560018201816001019080546106e790611f24565b6106f2929190611831565b50600282015481600201556003820160009054906101000a900473ffffffffffffffffffffffffffffffffffffffff168160030160006101000a81548173ffffffffffffffffffffffffffffffffffffffff021916908373ffffffffffffffffffffffffffffffffffffffff1602179055506004820160009054906101000a900473ffffffffffffffffffffffffffffffffffffffff168160040160006101000a81548173ffffffffffffffffffffffffffffffffffffffff021916908373ffffffffffffffffffffffffffffffffffffffff1602179055506005820154816005015560068201816006019080546107e990611f24565b6107f4929190611831565b50600782018160070190805461080990611f24565b610814929190611831565b509050505b808061082490611f87565b9150506105eb565b5060026000600181526020019081526020016000208054806108515761085061202e565b5b600190038181906000526020600020906008020160008082016000905560018201600061087e91906117f1565b60028201600090556003820160006101000a81549073ffffffffffffffffffffffffffffffffffffffff02191690556004820160006101000a81549073ffffffffffffffffffffffffffffffffffffffff021916905560058201600090556006820160006108ec91906117f1565b6007820160006108fc91906117f1565b505090555b6002600060038152602001908152602001600020600180836109239190611e72565b815481106109345761093361205d565b5b9060005260206000209060080201908060018154018082558091505060019003906000526020600020906008020160009091909190915060008201548160000155600182018160010190805461098990611f24565b610994929190611831565b50600282015481600201556003820160009054906101000a900473ffffffffffffffffffffffffffffffffffffffff168160030160006101000a81548173ffffffffffffffffffffffffffffffffffffffff021916908373ffffffffffffffffffffffffffffffffffffffff1602179055506004820160009054906101000a900473ffffffffffffffffffffffffffffffffffffffff168160040160006101000a81548173ffffffffffffffffffffffffffffffffffffffff021916908373ffffffffffffffffffffffffffffffffffffffff160217905550600582015481600501556006820181600601908054610a8b90611f24565b610a96929190611831565b506007820181600701908054610aab90611f24565b610ab6929190611831565b50505050565b60018181548110610acc57600080fd5b9060005260206000209060080201600091509050806000015490806001018054610af590611f24565b80601f0160208091040260200160405190810160405280929190818152602001828054610b2190611f24565b8015610b6e5780601f10610b4357610100808354040283529160200191610b6e565b820191906000526020600020905b815481529060010190602001808311610b5157829003601f168201915b5050505050908060020154908060030160009054906101000a900473ffffffffffffffffffffffffffffffffffffffff16908060040160009054906101000a900473ffffffffffffffffffffffffffffffffffffffff1690806005015490806006018054610bdb90611f24565b80601f0160208091040260200160405190810160405280929190818152602001828054610c0790611f24565b8015610c545780601f10610c2957610100808354040283529160200191610c54565b820191906000526020600020905b815481529060010190602001808311610c3757829003601f168201915b505050505090806007018054610c6990611f24565b80601f0160208091040260200160405190810160405280929190818152602001828054610c9590611f24565b8015610ce25780601f10610cb757610100808354040283529160200191610ce2565b820191906000526020600020905b815481529060010190602001808311610cc557829003601f168201915b5050505050905088565b60606000821415610fd7576001805480602002602001604051908101604052809291908181526020016000905b82821015610fcc57838290600052602060002090600802016040518061010001604052908160008201548152602001600182018054610d5790611f24565b80601f0160208091040260200160405190810160405280929190818152602001828054610d8390611f24565b8015610dd05780601f10610da557610100808354040283529160200191610dd0565b820191906000526020600020905b815481529060010190602001808311610db357829003601f168201915b50505050508152602001600282015481526020016003820160009054906101000a900473ffffffffffffffffffffffffffffffffffffffff1673ffffffffffffffffffffffffffffffffffffffff1673ffffffffffffffffffffffffffffffffffffffff1681526020016004820160009054906101000a900473ffffffffffffffffffffffffffffffffffffffff1673ffffffffffffffffffffffffffffffffffffffff1673ffffffffffffffffffffffffffffffffffffffff16815260200160058201548152602001600682018054610ea990611f24565b80601f0160208091040260200160405190810160405280929190818152602001828054610ed590611f24565b8015610f225780601f10610ef757610100808354040283529160200191610f22565b820191906000526020600020905b815481529060010190602001808311610f0557829003601f168201915b50505050508152602001600782018054610f3b90611f24565b80601f0160208091040260200160405190810160405280929190818152602001828054610f6790611f24565b8015610fb45780601f10610f8957610100808354040283529160200191610fb4565b820191906000526020600020905b815481529060010190602001808311610f9757829003601f168201915b50505050508152505081526020019060010190610d19565b5050505090506112c4565b60026000838152602001908152602001600020805480602002602001604051908101604052809291908181526020016000905b828210156112bd5783829060005260206000209060080201604051806101000160405290816000820154815260200160018201805461104890611f24565b80601f016020809104026020016040519081016040528092919081815260200182805461107490611f24565b80156110c15780601f10611096576101008083540402835291602001916110c1565b820191906000526020600020905b8154815290600101906020018083116110a457829003601f168201915b50505050508152602001600282015481526020016003820160009054906101000a900473ffffffffffffffffffffffffffffffffffffffff1673ffffffffffffffffffffffffffffffffffffffff1673ffffffffffffffffffffffffffffffffffffffff1681526020016004820160009054906101000a900473ffffffffffffffffffffffffffffffffffffffff1673ffffffffffffffffffffffffffffffffffffffff1673ffffffffffffffffffffffffffffffffffffffff1681526020016005820154815260200160068201805461119a90611f24565b80601f01602080910402602001604051908101604052809291908181526020018280546111c690611f24565b80156112135780601f106111e857610100808354040283529160200191611213565b820191906000526020600020905b8154815290600101906020018083116111f657829003601f168201915b5050505050815260200160078201805461122c90611f24565b80601f016020809104026020016040519081016040528092919081815260200182805461125890611f24565b80156112a55780601f1061127a576101008083540402835291602001916112a5565b820191906000526020600020905b81548152906001019060200180831161128857829003601f168201915b5050505050815250508152602001906001019061100a565b5050505090505b919050565b6000808154809291906112db90611f87565b919050555060006040518061010001604052806000548152602001858152602001600181526020013373ffffffffffffffffffffffffffffffffffffffff1681526020018473ffffffffffffffffffffffffffffffffffffffff168152602001600081526020018381526020016040518060400160405280600181526020017f3000000000000000000000000000000000000000000000000000000000000000815250815250905060018190806001815401808255809150506001900390600052602060002090600802016000909190919091506000820151816000015560208201518160010190805190602001906113d592919061176b565b506040820151816002015560608201518160030160006101000a81548173ffffffffffffffffffffffffffffffffffffffff021916908373ffffffffffffffffffffffffffffffffffffffff16021790555060808201518160040160006101000a81548173ffffffffffffffffffffffffffffffffffffffff021916908373ffffffffffffffffffffffffffffffffffffffff16021790555060a0820151816005015560c082015181600601908051906020019061149492919061176b565b5060e08201518160070190805190602001906114b192919061176b565b505050600260006001815260200190815260200160002081908060018154018082558091505060019003906000526020600020906008020160009091909190915060008201518160000155602082015181600101908051906020019061151892919061176b565b506040820151816002015560608201518160030160006101000a81548173ffffffffffffffffffffffffffffffffffffffff021916908373ffffffffffffffffffffffffffffffffffffffff16021790555060808201518160040160006101000a81548173ffffffffffffffffffffffffffffffffffffffff021916908373ffffffffffffffffffffffffffffffffffffffff16021790555060a0820151816005015560c08201518160060190805190602001906115d792919061176b565b5060e08201518160070190805190602001906115f492919061176b565b505050600360003373ffffffffffffffffffffffffffffffffffffffff1673ffffffffffffffffffffffffffffffffffffffff16815260200190815260200160002081908060018154018082558091505060019003906000526020600020906008020160009091909190915060008201518160000155602082015181600101908051906020019061168692919061176b565b506040820151816002015560608201518160030160006101000a81548173ffffffffffffffffffffffffffffffffffffffff021916908373ffffffffffffffffffffffffffffffffffffffff16021790555060808201518160040160006101000a81548173ffffffffffffffffffffffffffffffffffffffff021916908373ffffffffffffffffffffffffffffffffffffffff16021790555060a0820151816005015560c082015181600601908051906020019061174592919061176b565b5060e082015181600701908051906020019061176292919061176b565b50505050505050565b82805461177790611f24565b90600052602060002090601f01602090048101928261179957600085556117e0565b82601f106117b257805160ff19168380011785556117e0565b828001600101855582156117e0579182015b828111156117df5782518255916020019190600101906117c4565b5b5090506117ed91906118be565b5090565b5080546117fd90611f24565b6000825580601f1061180f575061182e565b601f01602090049060005260206000209081019061182d91906118be565b5b50565b82805461183d90611f24565b90600052602060002090601f01602090048101928261185f57600085556118ad565b82601f1061187057805485556118ad565b828001600101855582156118ad57600052602060002091601f016020900482015b828111156118ac578254825591600101919060010190611891565b5b5090506118ba91906118be565b5090565b5b808211156118d75760008160009055506001016118bf565b5090565b60006118ee6118e984611d85565b611d60565b90508281526020810184848401111561190a576119096120c0565b5b611915848285611ee2565b509392505050565b60008135905061192c816120e0565b92915050565b600082601f830112611947576119466120bb565b5b81356119578482602086016118db565b91505092915050565b60008135905061196f816120f7565b92915050565b60006020828403121561198b5761198a6120ca565b5b60006119998482850161191d565b91505092915050565b6000806000606084860312156119bb576119ba6120ca565b5b600084013567ffffffffffffffff8111156119d9576119d86120c5565b5b6119e586828701611932565b93505060206119f68682870161191d565b925050604084013567ffffffffffffffff811115611a1757611a166120c5565b5b611a2386828701611932565b9150509250925092565b600060208284031215611a4357611a426120ca565b5b6000611a5184828501611960565b91505092915050565b60008060408385031215611a7157611a706120ca565b5b6000611a7f85828601611960565b925050602083013567ffffffffffffffff811115611aa057611a9f6120c5565b5b611aac85828601611932565b9150509250929050565b6000611ac28383611bcf565b905092915050565b611ad381611ea6565b82525050565b611ae281611ea6565b82525050565b6000611af382611dc6565b611afd8185611de9565b935083602082028501611b0f85611db6565b8060005b85811015611b4b5784840389528151611b2c8582611ab6565b9450611b3783611ddc565b925060208a01995050600181019050611b13565b50829750879550505050505092915050565b6000611b6882611dd1565b611b728185611dfa565b9350611b82818560208601611ef1565b611b8b816120cf565b840191505092915050565b6000611ba182611dd1565b611bab8185611e0b565b9350611bbb818560208601611ef1565b611bc4816120cf565b840191505092915050565b600061010083016000830151611be86000860182611c8d565b5060208301518482036020860152611c008282611b5d565b9150506040830151611c156040860182611c8d565b506060830151611c286060860182611aca565b506080830151611c3b6080860182611aca565b5060a0830151611c4e60a0860182611c8d565b5060c083015184820360c0860152611c668282611b5d565b91505060e083015184820360e0860152611c808282611b5d565b9150508091505092915050565b611c9681611ed8565b82525050565b611ca581611ed8565b82525050565b60006020820190508181036000830152611cc58184611ae8565b905092915050565b600061010082019050611ce3600083018b611c9c565b8181036020830152611cf5818a611b96565b9050611d046040830189611c9c565b611d116060830188611ad9565b611d1e6080830187611ad9565b611d2b60a0830186611c9c565b81810360c0830152611d3d8185611b96565b905081810360e0830152611d518184611b96565b90509998505050505050505050565b6000611d6a611d7b565b9050611d768282611f56565b919050565b6000604051905090565b600067ffffffffffffffff821115611da057611d9f61208c565b5b611da9826120cf565b9050602081019050919050565b6000819050602082019050919050565b600081519050919050565b600081519050919050565b6000602082019050919050565b600082825260208201905092915050565b600082825260208201905092915050565b600082825260208201905092915050565b6000611e2782611ed8565b9150611e3283611ed8565b9250827fffffffffffffffffffffffffffffffffffffffffffffffffffffffffffffffff03821115611e6757611e66611fd0565b5b828201905092915050565b6000611e7d82611ed8565b9150611e8883611ed8565b925082821015611e9b57611e9a611fd0565b5b828203905092915050565b6000611eb182611eb8565b9050919050565b600073ffffffffffffffffffffffffffffffffffffffff82169050919050565b6000819050919050565b82818337600083830152505050565b60005b83811015611f0f578082015181840152602081019050611ef4565b83811115611f1e576000848401525b50505050565b60006002820490506001821680611f3c57607f821691505b60208210811415611f5057611f4f611fff565b5b50919050565b611f5f826120cf565b810181811067ffffffffffffffff82111715611f7e57611f7d61208c565b5b80604052505050565b6000611f9282611ed8565b91507fffffffffffffffffffffffffffffffffffffffffffffffffffffffffffffffff821415611fc557611fc4611fd0565b5b600182019050919050565b7f4e487b7100000000000000000000000000000000000000000000000000000000600052601160045260246000fd5b7f4e487b7100000000000000000000000000000000000000000000000000000000600052602260045260246000fd5b7f4e487b7100000000000000000000000000000000000000000000000000000000600052603160045260246000fd5b7f4e487b7100000000000000000000000000000000000000000000000000000000600052603260045260246000fd5b7f4e487b7100000000000000000000000000000000000000000000000000000000600052604160045260246000fd5b600080fd5b600080fd5b600080fd5b600080fd5b6000601f19601f8301169050919050565b6120e981611ea6565b81146120f457600080fd5b50565b61210081611ed8565b811461210b57600080fd5b5056fea2646970667358221220af5249c854f2a8ae5035f9a3de2ad2542260685f8af28ac9808f78e27292321064736f6c63430008070033",
					"opcodes": "PUSH1 0x80 PUSH1 0x40 MSTORE CALLVALUE DUP1 ISZERO PUSH2 0x10 JUMPI PUSH1 0x0 DUP1 REVERT JUMPDEST POP PUSH2 0x2144 DUP1 PUSH2 0x20 PUSH1 0x0 CODECOPY PUSH1 0x0 RETURN INVALID PUSH1 0x80 PUSH1 0x40 MSTORE CALLVALUE DUP1 ISZERO PUSH2 0x10 JUMPI PUSH1 0x0 DUP1 REVERT JUMPDEST POP PUSH1 0x4 CALLDATASIZE LT PUSH2 0x62 JUMPI PUSH1 0x0 CALLDATALOAD PUSH1 0xE0 SHR DUP1 PUSH4 0x377E6FF7 EQ PUSH2 0x67 JUMPI DUP1 PUSH4 0x5102BC9D EQ PUSH2 0x97 JUMPI DUP1 PUSH4 0x69BA1A75 EQ PUSH2 0xB3 JUMPI DUP1 PUSH4 0x80C9419E EQ PUSH2 0xCF JUMPI DUP1 PUSH4 0x904CC175 EQ PUSH2 0x106 JUMPI DUP1 PUSH4 0xA97AF4D5 EQ PUSH2 0x136 JUMPI JUMPDEST PUSH1 0x0 DUP1 REVERT JUMPDEST PUSH2 0x81 PUSH1 0x4 DUP1 CALLDATASIZE SUB DUP2 ADD SWAP1 PUSH2 0x7C SWAP2 SWAP1 PUSH2 0x1975 JUMP JUMPDEST PUSH2 0x152 JUMP JUMPDEST PUSH1 0x40 MLOAD PUSH2 0x8E SWAP2 SWAP1 PUSH2 0x1CAB JUMP JUMPDEST PUSH1 0x40 MLOAD DUP1 SWAP2 SUB SWAP1 RETURN JUMPDEST PUSH2 0xB1 PUSH1 0x4 DUP1 CALLDATASIZE SUB DUP2 ADD SWAP1 PUSH2 0xAC SWAP2 SWAP1 PUSH2 0x1A5A JUMP JUMPDEST PUSH2 0x471 JUMP JUMPDEST STOP JUMPDEST PUSH2 0xCD PUSH1 0x4 DUP1 CALLDATASIZE SUB DUP2 ADD SWAP1 PUSH2 0xC8 SWAP2 SWAP1 PUSH2 0x1A2D JUMP JUMPDEST PUSH2 0x4BA JUMP JUMPDEST STOP JUMPDEST PUSH2 0xE9 PUSH1 0x4 DUP1 CALLDATASIZE SUB DUP2 ADD SWAP1 PUSH2 0xE4 SWAP2 SWAP1 PUSH2 0x1A2D JUMP JUMPDEST PUSH2 0xABC JUMP JUMPDEST PUSH1 0x40 MLOAD PUSH2 0xFD SWAP9 SWAP8 SWAP7 SWAP6 SWAP5 SWAP4 SWAP3 SWAP2 SWAP1 PUSH2 0x1CCD JUMP JUMPDEST PUSH1 0x40 MLOAD DUP1 SWAP2 SUB SWAP1 RETURN JUMPDEST PUSH2 0x120 PUSH1 0x4 DUP1 CALLDATASIZE SUB DUP2 ADD SWAP1 PUSH2 0x11B SWAP2 SWAP1 PUSH2 0x1A2D JUMP JUMPDEST PUSH2 0xCEC JUMP JUMPDEST PUSH1 0x40 MLOAD PUSH2 0x12D SWAP2 SWAP1 PUSH2 0x1CAB JUMP JUMPDEST PUSH1 0x40 MLOAD DUP1 SWAP2 SUB SWAP1 RETURN JUMPDEST PUSH2 0x150 PUSH1 0x4 DUP1 CALLDATASIZE SUB DUP2 ADD SWAP1 PUSH2 0x14B SWAP2 SWAP1 PUSH2 0x19A2 JUMP JUMPDEST PUSH2 0x12C9 JUMP JUMPDEST STOP JUMPDEST PUSH1 0x60 PUSH1 0x3 PUSH1 0x0 DUP4 PUSH20 0xFFFFFFFFFFFFFFFFFFFFFFFFFFFFFFFFFFFFFFFF AND PUSH20 0xFFFFFFFFFFFFFFFFFFFFFFFFFFFFFFFFFFFFFFFF AND DUP2 MSTORE PUSH1 0x20 ADD SWAP1 DUP2 MSTORE PUSH1 0x20 ADD PUSH1 0x0 KECCAK256 DUP1 SLOAD DUP1 PUSH1 0x20 MUL PUSH1 0x20 ADD PUSH1 0x40 MLOAD SWAP1 DUP2 ADD PUSH1 0x40 MSTORE DUP1 SWAP3 SWAP2 SWAP1 DUP2 DUP2 MSTORE PUSH1 0x20 ADD PUSH1 0x0 SWAP1 JUMPDEST DUP3 DUP3 LT ISZERO PUSH2 0x466 JUMPI DUP4 DUP3 SWAP1 PUSH1 0x0 MSTORE PUSH1 0x20 PUSH1 0x0 KECCAK256 SWAP1 PUSH1 0x8 MUL ADD PUSH1 0x40 MLOAD DUP1 PUSH2 0x100 ADD PUSH1 0x40 MSTORE SWAP1 DUP2 PUSH1 0x0 DUP3 ADD SLOAD DUP2 MSTORE PUSH1 0x20 ADD PUSH1 0x1 DUP3 ADD DUP1 SLOAD PUSH2 0x1F1 SWAP1 PUSH2 0x1F24 JUMP JUMPDEST DUP1 PUSH1 0x1F ADD PUSH1 0x20 DUP1 SWAP2 DIV MUL PUSH1 0x20 ADD PUSH1 0x40 MLOAD SWAP1 DUP2 ADD PUSH1 0x40 MSTORE DUP1 SWAP3 SWAP2 SWAP1 DUP2 DUP2 MSTORE PUSH1 0x20 ADD DUP3 DUP1 SLOAD PUSH2 0x21D SWAP1 PUSH2 0x1F24 JUMP JUMPDEST DUP1 ISZERO PUSH2 0x26A JUMPI DUP1 PUSH1 0x1F LT PUSH2 0x23F JUMPI PUSH2 0x100 DUP1 DUP4 SLOAD DIV MUL DUP4 MSTORE SWAP2 PUSH1 0x20 ADD SWAP2 PUSH2 0x26A JUMP JUMPDEST DUP3 ADD SWAP2 SWAP1 PUSH1 0x0 MSTORE PUSH1 0x20 PUSH1 0x0 KECCAK256 SWAP1 JUMPDEST DUP2 SLOAD DUP2 MSTORE SWAP1 PUSH1 0x1 ADD SWAP1 PUSH1 0x20 ADD DUP1 DUP4 GT PUSH2 0x24D JUMPI DUP3 SWAP1 SUB PUSH1 0x1F AND DUP3 ADD SWAP2 JUMPDEST POP POP POP POP POP DUP2 MSTORE PUSH1 0x20 ADD PUSH1 0x2 DUP3 ADD SLOAD DUP2 MSTORE PUSH1 0x20 ADD PUSH1 0x3 DUP3 ADD PUSH1 0x0 SWAP1 SLOAD SWAP1 PUSH2 0x100 EXP SWAP1 DIV PUSH20 0xFFFFFFFFFFFFFFFFFFFFFFFFFFFFFFFFFFFFFFFF AND PUSH20 0xFFFFFFFFFFFFFFFFFFFFFFFFFFFFFFFFFFFFFFFF AND PUSH20 0xFFFFFFFFFFFFFFFFFFFFFFFFFFFFFFFFFFFFFFFF AND DUP2 MSTORE PUSH1 0x20 ADD PUSH1 0x4 DUP3 ADD PUSH1 0x0 SWAP1 SLOAD SWAP1 PUSH2 0x100 EXP SWAP1 DIV PUSH20 0xFFFFFFFFFFFFFFFFFFFFFFFFFFFFFFFFFFFFFFFF AND PUSH20 0xFFFFFFFFFFFFFFFFFFFFFFFFFFFFFFFFFFFFFFFF AND PUSH20 0xFFFFFFFFFFFFFFFFFFFFFFFFFFFFFFFFFFFFFFFF AND DUP2 MSTORE PUSH1 0x20 ADD PUSH1 0x5 DUP3 ADD SLOAD DUP2 MSTORE PUSH1 0x20 ADD PUSH1 0x6 DUP3 ADD DUP1 SLOAD PUSH2 0x343 SWAP1 PUSH2 0x1F24 JUMP JUMPDEST DUP1 PUSH1 0x1F ADD PUSH1 0x20 DUP1 SWAP2 DIV MUL PUSH1 0x20 ADD PUSH1 0x40 MLOAD SWAP1 DUP2 ADD PUSH1 0x40 MSTORE DUP1 SWAP3 SWAP2 SWAP1 DUP2 DUP2 MSTORE PUSH1 0x20 ADD DUP3 DUP1 SLOAD PUSH2 0x36F SWAP1 PUSH2 0x1F24 JUMP JUMPDEST DUP1 ISZERO PUSH2 0x3BC JUMPI DUP1 PUSH1 0x1F LT PUSH2 0x391 JUMPI PUSH2 0x100 DUP1 DUP4 SLOAD DIV MUL DUP4 MSTORE SWAP2 PUSH1 0x20 ADD SWAP2 PUSH2 0x3BC JUMP JUMPDEST DUP3 ADD SWAP2 SWAP1 PUSH1 0x0 MSTORE PUSH1 0x20 PUSH1 0x0 KECCAK256 SWAP1 JUMPDEST DUP2 SLOAD DUP2 MSTORE SWAP1 PUSH1 0x1 ADD SWAP1 PUSH1 0x20 ADD DUP1 DUP4 GT PUSH2 0x39F JUMPI DUP3 SWAP1 SUB PUSH1 0x1F AND DUP3 ADD SWAP2 JUMPDEST POP POP POP POP POP DUP2 MSTORE PUSH1 0x20 ADD PUSH1 0x7 DUP3 ADD DUP1 SLOAD PUSH2 0x3D5 SWAP1 PUSH2 0x1F24 JUMP JUMPDEST DUP1 PUSH1 0x1F ADD PUSH1 0x20 DUP1 SWAP2 DIV MUL PUSH1 0x20 ADD PUSH1 0x40 MLOAD SWAP1 DUP2 ADD PUSH1 0x40 MSTORE DUP1 SWAP3 SWAP2 SWAP1 DUP2 DUP2 MSTORE PUSH1 0x20 ADD DUP3 DUP1 SLOAD PUSH2 0x401 SWAP1 PUSH2 0x1F24 JUMP JUMPDEST DUP1 ISZERO PUSH2 0x44E JUMPI DUP1 PUSH1 0x1F LT PUSH2 0x423 JUMPI PUSH2 0x100 DUP1 DUP4 SLOAD DIV MUL DUP4 MSTORE SWAP2 PUSH1 0x20 ADD SWAP2 PUSH2 0x44E JUMP JUMPDEST DUP3 ADD SWAP2 SWAP1 PUSH1 0x0 MSTORE PUSH1 0x20 PUSH1 0x0 KECCAK256 SWAP1 JUMPDEST DUP2 SLOAD DUP2 MSTORE SWAP1 PUSH1 0x1 ADD SWAP1 PUSH1 0x20 ADD DUP1 DUP4 GT PUSH2 0x431 JUMPI DUP3 SWAP1 SUB PUSH1 0x1F AND DUP3 ADD SWAP2 JUMPDEST POP POP POP POP POP DUP2 MSTORE POP POP DUP2 MSTORE PUSH1 0x20 ADD SWAP1 PUSH1 0x1 ADD SWAP1 PUSH2 0x1B3 JUMP JUMPDEST POP POP POP POP SWAP1 POP SWAP2 SWAP1 POP JUMP JUMPDEST DUP1 PUSH1 0x1 DUP1 DUP5 PUSH2 0x480 SWAP2 SWAP1 PUSH2 0x1E72 JUMP JUMPDEST DUP2 SLOAD DUP2 LT PUSH2 0x491 JUMPI PUSH2 0x490 PUSH2 0x205D JUMP JUMPDEST JUMPDEST SWAP1 PUSH1 0x0 MSTORE PUSH1 0x20 PUSH1 0x0 KECCAK256 SWAP1 PUSH1 0x8 MUL ADD PUSH1 0x1 ADD SWAP1 DUP1 MLOAD SWAP1 PUSH1 0x20 ADD SWAP1 PUSH2 0x4B5 SWAP3 SWAP2 SWAP1 PUSH2 0x176B JUMP JUMPDEST POP POP POP JUMP JUMPDEST PUSH1 0x3 PUSH1 0x1 DUP1 DUP4 PUSH2 0x4CA SWAP2 SWAP1 PUSH2 0x1E72 JUMP JUMPDEST DUP2 SLOAD DUP2 LT PUSH2 0x4DB JUMPI PUSH2 0x4DA PUSH2 0x205D JUMP JUMPDEST JUMPDEST SWAP1 PUSH1 0x0 MSTORE PUSH1 0x20 PUSH1 0x0 KECCAK256 SWAP1 PUSH1 0x8 MUL ADD PUSH1 0x2 ADD DUP2 SWAP1 SSTORE POP PUSH1 0x1 PUSH1 0x2 PUSH1 0x0 PUSH1 0x1 DUP2 MSTORE PUSH1 0x20 ADD SWAP1 DUP2 MSTORE PUSH1 0x20 ADD PUSH1 0x0 KECCAK256 DUP1 SLOAD SWAP1 POP EQ ISZERO PUSH2 0x5E8 JUMPI PUSH1 0x2 PUSH1 0x0 PUSH1 0x1 DUP2 MSTORE PUSH1 0x20 ADD SWAP1 DUP2 MSTORE PUSH1 0x20 ADD PUSH1 0x0 KECCAK256 DUP1 SLOAD DUP1 PUSH2 0x534 JUMPI PUSH2 0x533 PUSH2 0x202E JUMP JUMPDEST JUMPDEST PUSH1 0x1 SWAP1 SUB DUP2 DUP2 SWAP1 PUSH1 0x0 MSTORE PUSH1 0x20 PUSH1 0x0 KECCAK256 SWAP1 PUSH1 0x8 MUL ADD PUSH1 0x0 DUP1 DUP3 ADD PUSH1 0x0 SWAP1 SSTORE PUSH1 0x1 DUP3 ADD PUSH1 0x0 PUSH2 0x561 SWAP2 SWAP1 PUSH2 0x17F1 JUMP JUMPDEST PUSH1 0x2 DUP3 ADD PUSH1 0x0 SWAP1 SSTORE PUSH1 0x3 DUP3 ADD PUSH1 0x0 PUSH2 0x100 EXP DUP2 SLOAD SWAP1 PUSH20 0xFFFFFFFFFFFFFFFFFFFFFFFFFFFFFFFFFFFFFFFF MUL NOT AND SWAP1 SSTORE PUSH1 0x4 DUP3 ADD PUSH1 0x0 PUSH2 0x100 EXP DUP2 SLOAD SWAP1 PUSH20 0xFFFFFFFFFFFFFFFFFFFFFFFFFFFFFFFFFFFFFFFF MUL NOT AND SWAP1 SSTORE PUSH1 0x5 DUP3 ADD PUSH1 0x0 SWAP1 SSTORE PUSH1 0x6 DUP3 ADD PUSH1 0x0 PUSH2 0x5CF SWAP2 SWAP1 PUSH2 0x17F1 JUMP JUMPDEST PUSH1 0x7 DUP3 ADD PUSH1 0x0 PUSH2 0x5DF SWAP2 SWAP1 PUSH2 0x17F1 JUMP JUMPDEST POP POP SWAP1 SSTORE PUSH2 0x901 JUMP JUMPDEST PUSH1 0x0 JUMPDEST PUSH1 0x1 PUSH1 0x2 PUSH1 0x0 PUSH1 0x1 DUP2 MSTORE PUSH1 0x20 ADD SWAP1 DUP2 MSTORE PUSH1 0x20 ADD PUSH1 0x0 KECCAK256 DUP1 SLOAD SWAP1 POP PUSH2 0x60F SWAP2 SWAP1 PUSH2 0x1E72 JUMP JUMPDEST DUP2 LT ISZERO PUSH2 0x82C JUMPI DUP2 PUSH1 0x2 PUSH1 0x0 PUSH1 0x1 DUP2 MSTORE PUSH1 0x20 ADD SWAP1 DUP2 MSTORE PUSH1 0x20 ADD PUSH1 0x0 KECCAK256 DUP3 DUP2 SLOAD DUP2 LT PUSH2 0x63D JUMPI PUSH2 0x63C PUSH2 0x205D JUMP JUMPDEST JUMPDEST SWAP1 PUSH1 0x0 MSTORE PUSH1 0x20 PUSH1 0x0 KECCAK256 SWAP1 PUSH1 0x8 MUL ADD PUSH1 0x0 ADD SLOAD EQ ISZERO PUSH2 0x819 JUMPI PUSH1 0x2 PUSH1 0x0 PUSH1 0x1 DUP2 MSTORE PUSH1 0x20 ADD SWAP1 DUP2 MSTORE PUSH1 0x20 ADD PUSH1 0x0 KECCAK256 PUSH1 0x1 DUP3 PUSH2 0x676 SWAP2 SWAP1 PUSH2 0x1E1C JUMP JUMPDEST DUP2 SLOAD DUP2 LT PUSH2 0x687 JUMPI PUSH2 0x686 PUSH2 0x205D JUMP JUMPDEST JUMPDEST SWAP1 PUSH1 0x0 MSTORE PUSH1 0x20 PUSH1 0x0 KECCAK256 SWAP1 PUSH1 0x8 MUL ADD PUSH1 0x2 PUSH1 0x0 PUSH1 0x1 DUP2 MSTORE PUSH1 0x20 ADD SWAP1 DUP2 MSTORE PUSH1 0x20 ADD PUSH1 0x0 KECCAK256 DUP3 DUP2 SLOAD DUP2 LT PUSH2 0x6BB JUMPI PUSH2 0x6BA PUSH2 0x205D JUMP JUMPDEST JUMPDEST SWAP1 PUSH1 0x0 MSTORE PUSH1 0x20 PUSH1 0x0 KECCAK256 SWAP1 PUSH1 0x8 MUL ADD PUSH1 0x0 DUP3 ADD SLOAD DUP2 PUSH1 0x0 ADD SSTORE PUSH1 0x1 DUP3 ADD DUP2 PUSH1 0x1 ADD SWAP1 DUP1 SLOAD PUSH2 0x6E7 SWAP1 PUSH2 0x1F24 JUMP JUMPDEST PUSH2 0x6F2 SWAP3 SWAP2 SWAP1 PUSH2 0x1831 JUMP JUMPDEST POP PUSH1 0x2 DUP3 ADD SLOAD DUP2 PUSH1 0x2 ADD SSTORE PUSH1 0x3 DUP3 ADD PUSH1 0x0 SWAP1 SLOAD SWAP1 PUSH2 0x100 EXP SWAP1 DIV PUSH20 0xFFFFFFFFFFFFFFFFFFFFFFFFFFFFFFFFFFFFFFFF AND DUP2 PUSH1 0x3 ADD PUSH1 0x0 PUSH2 0x100 EXP DUP2 SLOAD DUP2 PUSH20 0xFFFFFFFFFFFFFFFFFFFFFFFFFFFFFFFFFFFFFFFF MUL NOT AND SWAP1 DUP4 PUSH20 0xFFFFFFFFFFFFFFFFFFFFFFFFFFFFFFFFFFFFFFFF AND MUL OR SWAP1 SSTORE POP PUSH1 0x4 DUP3 ADD PUSH1 0x0 SWAP1 SLOAD SWAP1 PUSH2 0x100 EXP SWAP1 DIV PUSH20 0xFFFFFFFFFFFFFFFFFFFFFFFFFFFFFFFFFFFFFFFF AND DUP2 PUSH1 0x4 ADD PUSH1 0x0 PUSH2 0x100 EXP DUP2 SLOAD DUP2 PUSH20 0xFFFFFFFFFFFFFFFFFFFFFFFFFFFFFFFFFFFFFFFF MUL NOT AND SWAP1 DUP4 PUSH20 0xFFFFFFFFFFFFFFFFFFFFFFFFFFFFFFFFFFFFFFFF AND MUL OR SWAP1 SSTORE POP PUSH1 0x5 DUP3 ADD SLOAD DUP2 PUSH1 0x5 ADD SSTORE PUSH1 0x6 DUP3 ADD DUP2 PUSH1 0x6 ADD SWAP1 DUP1 SLOAD PUSH2 0x7E9 SWAP1 PUSH2 0x1F24 JUMP JUMPDEST PUSH2 0x7F4 SWAP3 SWAP2 SWAP1 PUSH2 0x1831 JUMP JUMPDEST POP PUSH1 0x7 DUP3 ADD DUP2 PUSH1 0x7 ADD SWAP1 DUP1 SLOAD PUSH2 0x809 SWAP1 PUSH2 0x1F24 JUMP JUMPDEST PUSH2 0x814 SWAP3 SWAP2 SWAP1 PUSH2 0x1831 JUMP JUMPDEST POP SWAP1 POP POP JUMPDEST DUP1 DUP1 PUSH2 0x824 SWAP1 PUSH2 0x1F87 JUMP JUMPDEST SWAP2 POP POP PUSH2 0x5EB JUMP JUMPDEST POP PUSH1 0x2 PUSH1 0x0 PUSH1 0x1 DUP2 MSTORE PUSH1 0x20 ADD SWAP1 DUP2 MSTORE PUSH1 0x20 ADD PUSH1 0x0 KECCAK256 DUP1 SLOAD DUP1 PUSH2 0x851 JUMPI PUSH2 0x850 PUSH2 0x202E JUMP JUMPDEST JUMPDEST PUSH1 0x1 SWAP1 SUB DUP2 DUP2 SWAP1 PUSH1 0x0 MSTORE PUSH1 0x20 PUSH1 0x0 KECCAK256 SWAP1 PUSH1 0x8 MUL ADD PUSH1 0x0 DUP1 DUP3 ADD PUSH1 0x0 SWAP1 SSTORE PUSH1 0x1 DUP3 ADD PUSH1 0x0 PUSH2 0x87E SWAP2 SWAP1 PUSH2 0x17F1 JUMP JUMPDEST PUSH1 0x2 DUP3 ADD PUSH1 0x0 SWAP1 SSTORE PUSH1 0x3 DUP3 ADD PUSH1 0x0 PUSH2 0x100 EXP DUP2 SLOAD SWAP1 PUSH20 0xFFFFFFFFFFFFFFFFFFFFFFFFFFFFFFFFFFFFFFFF MUL NOT AND SWAP1 SSTORE PUSH1 0x4 DUP3 ADD PUSH1 0x0 PUSH2 0x100 EXP DUP2 SLOAD SWAP1 PUSH20 0xFFFFFFFFFFFFFFFFFFFFFFFFFFFFFFFFFFFFFFFF MUL NOT AND SWAP1 SSTORE PUSH1 0x5 DUP3 ADD PUSH1 0x0 SWAP1 SSTORE PUSH1 0x6 DUP3 ADD PUSH1 0x0 PUSH2 0x8EC SWAP2 SWAP1 PUSH2 0x17F1 JUMP JUMPDEST PUSH1 0x7 DUP3 ADD PUSH1 0x0 PUSH2 0x8FC SWAP2 SWAP1 PUSH2 0x17F1 JUMP JUMPDEST POP POP SWAP1 SSTORE JUMPDEST PUSH1 0x2 PUSH1 0x0 PUSH1 0x3 DUP2 MSTORE PUSH1 0x20 ADD SWAP1 DUP2 MSTORE PUSH1 0x20 ADD PUSH1 0x0 KECCAK256 PUSH1 0x1 DUP1 DUP4 PUSH2 0x923 SWAP2 SWAP1 PUSH2 0x1E72 JUMP JUMPDEST DUP2 SLOAD DUP2 LT PUSH2 0x934 JUMPI PUSH2 0x933 PUSH2 0x205D JUMP JUMPDEST JUMPDEST SWAP1 PUSH1 0x0 MSTORE PUSH1 0x20 PUSH1 0x0 KECCAK256 SWAP1 PUSH1 0x8 MUL ADD SWAP1 DUP1 PUSH1 0x1 DUP2 SLOAD ADD DUP1 DUP3 SSTORE DUP1 SWAP2 POP POP PUSH1 0x1 SWAP1 SUB SWAP1 PUSH1 0x0 MSTORE PUSH1 0x20 PUSH1 0x0 KECCAK256 SWAP1 PUSH1 0x8 MUL ADD PUSH1 0x0 SWAP1 SWAP2 SWAP1 SWAP2 SWAP1 SWAP2 POP PUSH1 0x0 DUP3 ADD SLOAD DUP2 PUSH1 0x0 ADD SSTORE PUSH1 0x1 DUP3 ADD DUP2 PUSH1 0x1 ADD SWAP1 DUP1 SLOAD PUSH2 0x989 SWAP1 PUSH2 0x1F24 JUMP JUMPDEST PUSH2 0x994 SWAP3 SWAP2 SWAP1 PUSH2 0x1831 JUMP JUMPDEST POP PUSH1 0x2 DUP3 ADD SLOAD DUP2 PUSH1 0x2 ADD SSTORE PUSH1 0x3 DUP3 ADD PUSH1 0x0 SWAP1 SLOAD SWAP1 PUSH2 0x100 EXP SWAP1 DIV PUSH20 0xFFFFFFFFFFFFFFFFFFFFFFFFFFFFFFFFFFFFFFFF AND DUP2 PUSH1 0x3 ADD PUSH1 0x0 PUSH2 0x100 EXP DUP2 SLOAD DUP2 PUSH20 0xFFFFFFFFFFFFFFFFFFFFFFFFFFFFFFFFFFFFFFFF MUL NOT AND SWAP1 DUP4 PUSH20 0xFFFFFFFFFFFFFFFFFFFFFFFFFFFFFFFFFFFFFFFF AND MUL OR SWAP1 SSTORE POP PUSH1 0x4 DUP3 ADD PUSH1 0x0 SWAP1 SLOAD SWAP1 PUSH2 0x100 EXP SWAP1 DIV PUSH20 0xFFFFFFFFFFFFFFFFFFFFFFFFFFFFFFFFFFFFFFFF AND DUP2 PUSH1 0x4 ADD PUSH1 0x0 PUSH2 0x100 EXP DUP2 SLOAD DUP2 PUSH20 0xFFFFFFFFFFFFFFFFFFFFFFFFFFFFFFFFFFFFFFFF MUL NOT AND SWAP1 DUP4 PUSH20 0xFFFFFFFFFFFFFFFFFFFFFFFFFFFFFFFFFFFFFFFF AND MUL OR SWAP1 SSTORE POP PUSH1 0x5 DUP3 ADD SLOAD DUP2 PUSH1 0x5 ADD SSTORE PUSH1 0x6 DUP3 ADD DUP2 PUSH1 0x6 ADD SWAP1 DUP1 SLOAD PUSH2 0xA8B SWAP1 PUSH2 0x1F24 JUMP JUMPDEST PUSH2 0xA96 SWAP3 SWAP2 SWAP1 PUSH2 0x1831 JUMP JUMPDEST POP PUSH1 0x7 DUP3 ADD DUP2 PUSH1 0x7 ADD SWAP1 DUP1 SLOAD PUSH2 0xAAB SWAP1 PUSH2 0x1F24 JUMP JUMPDEST PUSH2 0xAB6 SWAP3 SWAP2 SWAP1 PUSH2 0x1831 JUMP JUMPDEST POP POP POP POP JUMP JUMPDEST PUSH1 0x1 DUP2 DUP2 SLOAD DUP2 LT PUSH2 0xACC JUMPI PUSH1 0x0 DUP1 REVERT JUMPDEST SWAP1 PUSH1 0x0 MSTORE PUSH1 0x20 PUSH1 0x0 KECCAK256 SWAP1 PUSH1 0x8 MUL ADD PUSH1 0x0 SWAP2 POP SWAP1 POP DUP1 PUSH1 0x0 ADD SLOAD SWAP1 DUP1 PUSH1 0x1 ADD DUP1 SLOAD PUSH2 0xAF5 SWAP1 PUSH2 0x1F24 JUMP JUMPDEST DUP1 PUSH1 0x1F ADD PUSH1 0x20 DUP1 SWAP2 DIV MUL PUSH1 0x20 ADD PUSH1 0x40 MLOAD SWAP1 DUP2 ADD PUSH1 0x40 MSTORE DUP1 SWAP3 SWAP2 SWAP1 DUP2 DUP2 MSTORE PUSH1 0x20 ADD DUP3 DUP1 SLOAD PUSH2 0xB21 SWAP1 PUSH2 0x1F24 JUMP JUMPDEST DUP1 ISZERO PUSH2 0xB6E JUMPI DUP1 PUSH1 0x1F LT PUSH2 0xB43 JUMPI PUSH2 0x100 DUP1 DUP4 SLOAD DIV MUL DUP4 MSTORE SWAP2 PUSH1 0x20 ADD SWAP2 PUSH2 0xB6E JUMP JUMPDEST DUP3 ADD SWAP2 SWAP1 PUSH1 0x0 MSTORE PUSH1 0x20 PUSH1 0x0 KECCAK256 SWAP1 JUMPDEST DUP2 SLOAD DUP2 MSTORE SWAP1 PUSH1 0x1 ADD SWAP1 PUSH1 0x20 ADD DUP1 DUP4 GT PUSH2 0xB51 JUMPI DUP3 SWAP1 SUB PUSH1 0x1F AND DUP3 ADD SWAP2 JUMPDEST POP POP POP POP POP SWAP1 DUP1 PUSH1 0x2 ADD SLOAD SWAP1 DUP1 PUSH1 0x3 ADD PUSH1 0x0 SWAP1 SLOAD SWAP1 PUSH2 0x100 EXP SWAP1 DIV PUSH20 0xFFFFFFFFFFFFFFFFFFFFFFFFFFFFFFFFFFFFFFFF AND SWAP1 DUP1 PUSH1 0x4 ADD PUSH1 0x0 SWAP1 SLOAD SWAP1 PUSH2 0x100 EXP SWAP1 DIV PUSH20 0xFFFFFFFFFFFFFFFFFFFFFFFFFFFFFFFFFFFFFFFF AND SWAP1 DUP1 PUSH1 0x5 ADD SLOAD SWAP1 DUP1 PUSH1 0x6 ADD DUP1 SLOAD PUSH2 0xBDB SWAP1 PUSH2 0x1F24 JUMP JUMPDEST DUP1 PUSH1 0x1F ADD PUSH1 0x20 DUP1 SWAP2 DIV MUL PUSH1 0x20 ADD PUSH1 0x40 MLOAD SWAP1 DUP2 ADD PUSH1 0x40 MSTORE DUP1 SWAP3 SWAP2 SWAP1 DUP2 DUP2 MSTORE PUSH1 0x20 ADD DUP3 DUP1 SLOAD PUSH2 0xC07 SWAP1 PUSH2 0x1F24 JUMP JUMPDEST DUP1 ISZERO PUSH2 0xC54 JUMPI DUP1 PUSH1 0x1F LT PUSH2 0xC29 JUMPI PUSH2 0x100 DUP1 DUP4 SLOAD DIV MUL DUP4 MSTORE SWAP2 PUSH1 0x20 ADD SWAP2 PUSH2 0xC54 JUMP JUMPDEST DUP3 ADD SWAP2 SWAP1 PUSH1 0x0 MSTORE PUSH1 0x20 PUSH1 0x0 KECCAK256 SWAP1 JUMPDEST DUP2 SLOAD DUP2 MSTORE SWAP1 PUSH1 0x1 ADD SWAP1 PUSH1 0x20 ADD DUP1 DUP4 GT PUSH2 0xC37 JUMPI DUP3 SWAP1 SUB PUSH1 0x1F AND DUP3 ADD SWAP2 JUMPDEST POP POP POP POP POP SWAP1 DUP1 PUSH1 0x7 ADD DUP1 SLOAD PUSH2 0xC69 SWAP1 PUSH2 0x1F24 JUMP JUMPDEST DUP1 PUSH1 0x1F ADD PUSH1 0x20 DUP1 SWAP2 DIV MUL PUSH1 0x20 ADD PUSH1 0x40 MLOAD SWAP1 DUP2 ADD PUSH1 0x40 MSTORE DUP1 SWAP3 SWAP2 SWAP1 DUP2 DUP2 MSTORE PUSH1 0x20 ADD DUP3 DUP1 SLOAD PUSH2 0xC95 SWAP1 PUSH2 0x1F24 JUMP JUMPDEST DUP1 ISZERO PUSH2 0xCE2 JUMPI DUP1 PUSH1 0x1F LT PUSH2 0xCB7 JUMPI PUSH2 0x100 DUP1 DUP4 SLOAD DIV MUL DUP4 MSTORE SWAP2 PUSH1 0x20 ADD SWAP2 PUSH2 0xCE2 JUMP JUMPDEST DUP3 ADD SWAP2 SWAP1 PUSH1 0x0 MSTORE PUSH1 0x20 PUSH1 0x0 KECCAK256 SWAP1 JUMPDEST DUP2 SLOAD DUP2 MSTORE SWAP1 PUSH1 0x1 ADD SWAP1 PUSH1 0x20 ADD DUP1 DUP4 GT PUSH2 0xCC5 JUMPI DUP3 SWAP1 SUB PUSH1 0x1F AND DUP3 ADD SWAP2 JUMPDEST POP POP POP POP POP SWAP1 POP DUP9 JUMP JUMPDEST PUSH1 0x60 PUSH1 0x0 DUP3 EQ ISZERO PUSH2 0xFD7 JUMPI PUSH1 0x1 DUP1 SLOAD DUP1 PUSH1 0x20 MUL PUSH1 0x20 ADD PUSH1 0x40 MLOAD SWAP1 DUP2 ADD PUSH1 0x40 MSTORE DUP1 SWAP3 SWAP2 SWAP1 DUP2 DUP2 MSTORE PUSH1 0x20 ADD PUSH1 0x0 SWAP1 JUMPDEST DUP3 DUP3 LT ISZERO PUSH2 0xFCC JUMPI DUP4 DUP3 SWAP1 PUSH1 0x0 MSTORE PUSH1 0x20 PUSH1 0x0 KECCAK256 SWAP1 PUSH1 0x8 MUL ADD PUSH1 0x40 MLOAD DUP1 PUSH2 0x100 ADD PUSH1 0x40 MSTORE SWAP1 DUP2 PUSH1 0x0 DUP3 ADD SLOAD DUP2 MSTORE PUSH1 0x20 ADD PUSH1 0x1 DUP3 ADD DUP1 SLOAD PUSH2 0xD57 SWAP1 PUSH2 0x1F24 JUMP JUMPDEST DUP1 PUSH1 0x1F ADD PUSH1 0x20 DUP1 SWAP2 DIV MUL PUSH1 0x20 ADD PUSH1 0x40 MLOAD SWAP1 DUP2 ADD PUSH1 0x40 MSTORE DUP1 SWAP3 SWAP2 SWAP1 DUP2 DUP2 MSTORE PUSH1 0x20 ADD DUP3 DUP1 SLOAD PUSH2 0xD83 SWAP1 PUSH2 0x1F24 JUMP JUMPDEST DUP1 ISZERO PUSH2 0xDD0 JUMPI DUP1 PUSH1 0x1F LT PUSH2 0xDA5 JUMPI PUSH2 0x100 DUP1 DUP4 SLOAD DIV MUL DUP4 MSTORE SWAP2 PUSH1 0x20 ADD SWAP2 PUSH2 0xDD0 JUMP JUMPDEST DUP3 ADD SWAP2 SWAP1 PUSH1 0x0 MSTORE PUSH1 0x20 PUSH1 0x0 KECCAK256 SWAP1 JUMPDEST DUP2 SLOAD DUP2 MSTORE SWAP1 PUSH1 0x1 ADD SWAP1 PUSH1 0x20 ADD DUP1 DUP4 GT PUSH2 0xDB3 JUMPI DUP3 SWAP1 SUB PUSH1 0x1F AND DUP3 ADD SWAP2 JUMPDEST POP POP POP POP POP DUP2 MSTORE PUSH1 0x20 ADD PUSH1 0x2 DUP3 ADD SLOAD DUP2 MSTORE PUSH1 0x20 ADD PUSH1 0x3 DUP3 ADD PUSH1 0x0 SWAP1 SLOAD SWAP1 PUSH2 0x100 EXP SWAP1 DIV PUSH20 0xFFFFFFFFFFFFFFFFFFFFFFFFFFFFFFFFFFFFFFFF AND PUSH20 0xFFFFFFFFFFFFFFFFFFFFFFFFFFFFFFFFFFFFFFFF AND PUSH20 0xFFFFFFFFFFFFFFFFFFFFFFFFFFFFFFFFFFFFFFFF AND DUP2 MSTORE PUSH1 0x20 ADD PUSH1 0x4 DUP3 ADD PUSH1 0x0 SWAP1 SLOAD SWAP1 PUSH2 0x100 EXP SWAP1 DIV PUSH20 0xFFFFFFFFFFFFFFFFFFFFFFFFFFFFFFFFFFFFFFFF AND PUSH20 0xFFFFFFFFFFFFFFFFFFFFFFFFFFFFFFFFFFFFFFFF AND PUSH20 0xFFFFFFFFFFFFFFFFFFFFFFFFFFFFFFFFFFFFFFFF AND DUP2 MSTORE PUSH1 0x20 ADD PUSH1 0x5 DUP3 ADD SLOAD DUP2 MSTORE PUSH1 0x20 ADD PUSH1 0x6 DUP3 ADD DUP1 SLOAD PUSH2 0xEA9 SWAP1 PUSH2 0x1F24 JUMP JUMPDEST DUP1 PUSH1 0x1F ADD PUSH1 0x20 DUP1 SWAP2 DIV MUL PUSH1 0x20 ADD PUSH1 0x40 MLOAD SWAP1 DUP2 ADD PUSH1 0x40 MSTORE DUP1 SWAP3 SWAP2 SWAP1 DUP2 DUP2 MSTORE PUSH1 0x20 ADD DUP3 DUP1 SLOAD PUSH2 0xED5 SWAP1 PUSH2 0x1F24 JUMP JUMPDEST DUP1 ISZERO PUSH2 0xF22 JUMPI DUP1 PUSH1 0x1F LT PUSH2 0xEF7 JUMPI PUSH2 0x100 DUP1 DUP4 SLOAD DIV MUL DUP4 MSTORE SWAP2 PUSH1 0x20 ADD SWAP2 PUSH2 0xF22 JUMP JUMPDEST DUP3 ADD SWAP2 SWAP1 PUSH1 0x0 MSTORE PUSH1 0x20 PUSH1 0x0 KECCAK256 SWAP1 JUMPDEST DUP2 SLOAD DUP2 MSTORE SWAP1 PUSH1 0x1 ADD SWAP1 PUSH1 0x20 ADD DUP1 DUP4 GT PUSH2 0xF05 JUMPI DUP3 SWAP1 SUB PUSH1 0x1F AND DUP3 ADD SWAP2 JUMPDEST POP POP POP POP POP DUP2 MSTORE PUSH1 0x20 ADD PUSH1 0x7 DUP3 ADD DUP1 SLOAD PUSH2 0xF3B SWAP1 PUSH2 0x1F24 JUMP JUMPDEST DUP1 PUSH1 0x1F ADD PUSH1 0x20 DUP1 SWAP2 DIV MUL PUSH1 0x20 ADD PUSH1 0x40 MLOAD SWAP1 DUP2 ADD PUSH1 0x40 MSTORE DUP1 SWAP3 SWAP2 SWAP1 DUP2 DUP2 MSTORE PUSH1 0x20 ADD DUP3 DUP1 SLOAD PUSH2 0xF67 SWAP1 PUSH2 0x1F24 JUMP JUMPDEST DUP1 ISZERO PUSH2 0xFB4 JUMPI DUP1 PUSH1 0x1F LT PUSH2 0xF89 JUMPI PUSH2 0x100 DUP1 DUP4 SLOAD DIV MUL DUP4 MSTORE SWAP2 PUSH1 0x20 ADD SWAP2 PUSH2 0xFB4 JUMP JUMPDEST DUP3 ADD SWAP2 SWAP1 PUSH1 0x0 MSTORE PUSH1 0x20 PUSH1 0x0 KECCAK256 SWAP1 JUMPDEST DUP2 SLOAD DUP2 MSTORE SWAP1 PUSH1 0x1 ADD SWAP1 PUSH1 0x20 ADD DUP1 DUP4 GT PUSH2 0xF97 JUMPI DUP3 SWAP1 SUB PUSH1 0x1F AND DUP3 ADD SWAP2 JUMPDEST POP POP POP POP POP DUP2 MSTORE POP POP DUP2 MSTORE PUSH1 0x20 ADD SWAP1 PUSH1 0x1 ADD SWAP1 PUSH2 0xD19 JUMP JUMPDEST POP POP POP POP SWAP1 POP PUSH2 0x12C4 JUMP JUMPDEST PUSH1 0x2 PUSH1 0x0 DUP4 DUP2 MSTORE PUSH1 0x20 ADD SWAP1 DUP2 MSTORE PUSH1 0x20 ADD PUSH1 0x0 KECCAK256 DUP1 SLOAD DUP1 PUSH1 0x20 MUL PUSH1 0x20 ADD PUSH1 0x40 MLOAD SWAP1 DUP2 ADD PUSH1 0x40 MSTORE DUP1 SWAP3 SWAP2 SWAP1 DUP2 DUP2 MSTORE PUSH1 0x20 ADD PUSH1 0x0 SWAP1 JUMPDEST DUP3 DUP3 LT ISZERO PUSH2 0x12BD JUMPI DUP4 DUP3 SWAP1 PUSH1 0x0 MSTORE PUSH1 0x20 PUSH1 0x0 KECCAK256 SWAP1 PUSH1 0x8 MUL ADD PUSH1 0x40 MLOAD DUP1 PUSH2 0x100 ADD PUSH1 0x40 MSTORE SWAP1 DUP2 PUSH1 0x0 DUP3 ADD SLOAD DUP2 MSTORE PUSH1 0x20 ADD PUSH1 0x1 DUP3 ADD DUP1 SLOAD PUSH2 0x1048 SWAP1 PUSH2 0x1F24 JUMP JUMPDEST DUP1 PUSH1 0x1F ADD PUSH1 0x20 DUP1 SWAP2 DIV MUL PUSH1 0x20 ADD PUSH1 0x40 MLOAD SWAP1 DUP2 ADD PUSH1 0x40 MSTORE DUP1 SWAP3 SWAP2 SWAP1 DUP2 DUP2 MSTORE PUSH1 0x20 ADD DUP3 DUP1 SLOAD PUSH2 0x1074 SWAP1 PUSH2 0x1F24 JUMP JUMPDEST DUP1 ISZERO PUSH2 0x10C1 JUMPI DUP1 PUSH1 0x1F LT PUSH2 0x1096 JUMPI PUSH2 0x100 DUP1 DUP4 SLOAD DIV MUL DUP4 MSTORE SWAP2 PUSH1 0x20 ADD SWAP2 PUSH2 0x10C1 JUMP JUMPDEST DUP3 ADD SWAP2 SWAP1 PUSH1 0x0 MSTORE PUSH1 0x20 PUSH1 0x0 KECCAK256 SWAP1 JUMPDEST DUP2 SLOAD DUP2 MSTORE SWAP1 PUSH1 0x1 ADD SWAP1 PUSH1 0x20 ADD DUP1 DUP4 GT PUSH2 0x10A4 JUMPI DUP3 SWAP1 SUB PUSH1 0x1F AND DUP3 ADD SWAP2 JUMPDEST POP POP POP POP POP DUP2 MSTORE PUSH1 0x20 ADD PUSH1 0x2 DUP3 ADD SLOAD DUP2 MSTORE PUSH1 0x20 ADD PUSH1 0x3 DUP3 ADD PUSH1 0x0 SWAP1 SLOAD SWAP1 PUSH2 0x100 EXP SWAP1 DIV PUSH20 0xFFFFFFFFFFFFFFFFFFFFFFFFFFFFFFFFFFFFFFFF AND PUSH20 0xFFFFFFFFFFFFFFFFFFFFFFFFFFFFFFFFFFFFFFFF AND PUSH20 0xFFFFFFFFFFFFFFFFFFFFFFFFFFFFFFFFFFFFFFFF AND DUP2 MSTORE PUSH1 0x20 ADD PUSH1 0x4 DUP3 ADD PUSH1 0x0 SWAP1 SLOAD SWAP1 PUSH2 0x100 EXP SWAP1 DIV PUSH20 0xFFFFFFFFFFFFFFFFFFFFFFFFFFFFFFFFFFFFFFFF AND PUSH20 0xFFFFFFFFFFFFFFFFFFFFFFFFFFFFFFFFFFFFFFFF AND PUSH20 0xFFFFFFFFFFFFFFFFFFFFFFFFFFFFFFFFFFFFFFFF AND DUP2 MSTORE PUSH1 0x20 ADD PUSH1 0x5 DUP3 ADD SLOAD DUP2 MSTORE PUSH1 0x20 ADD PUSH1 0x6 DUP3 ADD DUP1 SLOAD PUSH2 0x119A SWAP1 PUSH2 0x1F24 JUMP JUMPDEST DUP1 PUSH1 0x1F ADD PUSH1 0x20 DUP1 SWAP2 DIV MUL PUSH1 0x20 ADD PUSH1 0x40 MLOAD SWAP1 DUP2 ADD PUSH1 0x40 MSTORE DUP1 SWAP3 SWAP2 SWAP1 DUP2 DUP2 MSTORE PUSH1 0x20 ADD DUP3 DUP1 SLOAD PUSH2 0x11C6 SWAP1 PUSH2 0x1F24 JUMP JUMPDEST DUP1 ISZERO PUSH2 0x1213 JUMPI DUP1 PUSH1 0x1F LT PUSH2 0x11E8 JUMPI PUSH2 0x100 DUP1 DUP4 SLOAD DIV MUL DUP4 MSTORE SWAP2 PUSH1 0x20 ADD SWAP2 PUSH2 0x1213 JUMP JUMPDEST DUP3 ADD SWAP2 SWAP1 PUSH1 0x0 MSTORE PUSH1 0x20 PUSH1 0x0 KECCAK256 SWAP1 JUMPDEST DUP2 SLOAD DUP2 MSTORE SWAP1 PUSH1 0x1 ADD SWAP1 PUSH1 0x20 ADD DUP1 DUP4 GT PUSH2 0x11F6 JUMPI DUP3 SWAP1 SUB PUSH1 0x1F AND DUP3 ADD SWAP2 JUMPDEST POP POP POP POP POP DUP2 MSTORE PUSH1 0x20 ADD PUSH1 0x7 DUP3 ADD DUP1 SLOAD PUSH2 0x122C SWAP1 PUSH2 0x1F24 JUMP JUMPDEST DUP1 PUSH1 0x1F ADD PUSH1 0x20 DUP1 SWAP2 DIV MUL PUSH1 0x20 ADD PUSH1 0x40 MLOAD SWAP1 DUP2 ADD PUSH1 0x40 MSTORE DUP1 SWAP3 SWAP2 SWAP1 DUP2 DUP2 MSTORE PUSH1 0x20 ADD DUP3 DUP1 SLOAD PUSH2 0x1258 SWAP1 PUSH2 0x1F24 JUMP JUMPDEST DUP1 ISZERO PUSH2 0x12A5 JUMPI DUP1 PUSH1 0x1F LT PUSH2 0x127A JUMPI PUSH2 0x100 DUP1 DUP4 SLOAD DIV MUL DUP4 MSTORE SWAP2 PUSH1 0x20 ADD SWAP2 PUSH2 0x12A5 JUMP JUMPDEST DUP3 ADD SWAP2 SWAP1 PUSH1 0x0 MSTORE PUSH1 0x20 PUSH1 0x0 KECCAK256 SWAP1 JUMPDEST DUP2 SLOAD DUP2 MSTORE SWAP1 PUSH1 0x1 ADD SWAP1 PUSH1 0x20 ADD DUP1 DUP4 GT PUSH2 0x1288 JUMPI DUP3 SWAP1 SUB PUSH1 0x1F AND DUP3 ADD SWAP2 JUMPDEST POP POP POP POP POP DUP2 MSTORE POP POP DUP2 MSTORE PUSH1 0x20 ADD SWAP1 PUSH1 0x1 ADD SWAP1 PUSH2 0x100A JUMP JUMPDEST POP POP POP POP SWAP1 POP JUMPDEST SWAP2 SWAP1 POP JUMP JUMPDEST PUSH1 0x0 DUP1 DUP2 SLOAD DUP1 SWAP3 SWAP2 SWAP1 PUSH2 0x12DB SWAP1 PUSH2 0x1F87 JUMP JUMPDEST SWAP2 SWAP1 POP SSTORE POP PUSH1 0x0 PUSH1 0x40 MLOAD DUP1 PUSH2 0x100 ADD PUSH1 0x40 MSTORE DUP1 PUSH1 0x0 SLOAD DUP2 MSTORE PUSH1 0x20 ADD DUP6 DUP2 MSTORE PUSH1 0x20 ADD PUSH1 0x1 DUP2 MSTORE PUSH1 0x20 ADD CALLER PUSH20 0xFFFFFFFFFFFFFFFFFFFFFFFFFFFFFFFFFFFFFFFF AND DUP2 MSTORE PUSH1 0x20 ADD DUP5 PUSH20 0xFFFFFFFFFFFFFFFFFFFFFFFFFFFFFFFFFFFFFFFF AND DUP2 MSTORE PUSH1 0x20 ADD PUSH1 0x0 DUP2 MSTORE PUSH1 0x20 ADD DUP4 DUP2 MSTORE PUSH1 0x20 ADD PUSH1 0x40 MLOAD DUP1 PUSH1 0x40 ADD PUSH1 0x40 MSTORE DUP1 PUSH1 0x1 DUP2 MSTORE PUSH1 0x20 ADD PUSH32 0x3000000000000000000000000000000000000000000000000000000000000000 DUP2 MSTORE POP DUP2 MSTORE POP SWAP1 POP PUSH1 0x1 DUP2 SWAP1 DUP1 PUSH1 0x1 DUP2 SLOAD ADD DUP1 DUP3 SSTORE DUP1 SWAP2 POP POP PUSH1 0x1 SWAP1 SUB SWAP1 PUSH1 0x0 MSTORE PUSH1 0x20 PUSH1 0x0 KECCAK256 SWAP1 PUSH1 0x8 MUL ADD PUSH1 0x0 SWAP1 SWAP2 SWAP1 SWAP2 SWAP1 SWAP2 POP PUSH1 0x0 DUP3 ADD MLOAD DUP2 PUSH1 0x0 ADD SSTORE PUSH1 0x20 DUP3 ADD MLOAD DUP2 PUSH1 0x1 ADD SWAP1 DUP1 MLOAD SWAP1 PUSH1 0x20 ADD SWAP1 PUSH2 0x13D5 SWAP3 SWAP2 SWAP1 PUSH2 0x176B JUMP JUMPDEST POP PUSH1 0x40 DUP3 ADD MLOAD DUP2 PUSH1 0x2 ADD SSTORE PUSH1 0x60 DUP3 ADD MLOAD DUP2 PUSH1 0x3 ADD PUSH1 0x0 PUSH2 0x100 EXP DUP2 SLOAD DUP2 PUSH20 0xFFFFFFFFFFFFFFFFFFFFFFFFFFFFFFFFFFFFFFFF MUL NOT AND SWAP1 DUP4 PUSH20 0xFFFFFFFFFFFFFFFFFFFFFFFFFFFFFFFFFFFFFFFF AND MUL OR SWAP1 SSTORE POP PUSH1 0x80 DUP3 ADD MLOAD DUP2 PUSH1 0x4 ADD PUSH1 0x0 PUSH2 0x100 EXP DUP2 SLOAD DUP2 PUSH20 0xFFFFFFFFFFFFFFFFFFFFFFFFFFFFFFFFFFFFFFFF MUL NOT AND SWAP1 DUP4 PUSH20 0xFFFFFFFFFFFFFFFFFFFFFFFFFFFFFFFFFFFFFFFF AND MUL OR SWAP1 SSTORE POP PUSH1 0xA0 DUP3 ADD MLOAD DUP2 PUSH1 0x5 ADD SSTORE PUSH1 0xC0 DUP3 ADD MLOAD DUP2 PUSH1 0x6 ADD SWAP1 DUP1 MLOAD SWAP1 PUSH1 0x20 ADD SWAP1 PUSH2 0x1494 SWAP3 SWAP2 SWAP1 PUSH2 0x176B JUMP JUMPDEST POP PUSH1 0xE0 DUP3 ADD MLOAD DUP2 PUSH1 0x7 ADD SWAP1 DUP1 MLOAD SWAP1 PUSH1 0x20 ADD SWAP1 PUSH2 0x14B1 SWAP3 SWAP2 SWAP1 PUSH2 0x176B JUMP JUMPDEST POP POP POP PUSH1 0x2 PUSH1 0x0 PUSH1 0x1 DUP2 MSTORE PUSH1 0x20 ADD SWAP1 DUP2 MSTORE PUSH1 0x20 ADD PUSH1 0x0 KECCAK256 DUP2 SWAP1 DUP1 PUSH1 0x1 DUP2 SLOAD ADD DUP1 DUP3 SSTORE DUP1 SWAP2 POP POP PUSH1 0x1 SWAP1 SUB SWAP1 PUSH1 0x0 MSTORE PUSH1 0x20 PUSH1 0x0 KECCAK256 SWAP1 PUSH1 0x8 MUL ADD PUSH1 0x0 SWAP1 SWAP2 SWAP1 SWAP2 SWAP1 SWAP2 POP PUSH1 0x0 DUP3 ADD MLOAD DUP2 PUSH1 0x0 ADD SSTORE PUSH1 0x20 DUP3 ADD MLOAD DUP2 PUSH1 0x1 ADD SWAP1 DUP1 MLOAD SWAP1 PUSH1 0x20 ADD SWAP1 PUSH2 0x1518 SWAP3 SWAP2 SWAP1 PUSH2 0x176B JUMP JUMPDEST POP PUSH1 0x40 DUP3 ADD MLOAD DUP2 PUSH1 0x2 ADD SSTORE PUSH1 0x60 DUP3 ADD MLOAD DUP2 PUSH1 0x3 ADD PUSH1 0x0 PUSH2 0x100 EXP DUP2 SLOAD DUP2 PUSH20 0xFFFFFFFFFFFFFFFFFFFFFFFFFFFFFFFFFFFFFFFF MUL NOT AND SWAP1 DUP4 PUSH20 0xFFFFFFFFFFFFFFFFFFFFFFFFFFFFFFFFFFFFFFFF AND MUL OR SWAP1 SSTORE POP PUSH1 0x80 DUP3 ADD MLOAD DUP2 PUSH1 0x4 ADD PUSH1 0x0 PUSH2 0x100 EXP DUP2 SLOAD DUP2 PUSH20 0xFFFFFFFFFFFFFFFFFFFFFFFFFFFFFFFFFFFFFFFF MUL NOT AND SWAP1 DUP4 PUSH20 0xFFFFFFFFFFFFFFFFFFFFFFFFFFFFFFFFFFFFFFFF AND MUL OR SWAP1 SSTORE POP PUSH1 0xA0 DUP3 ADD MLOAD DUP2 PUSH1 0x5 ADD SSTORE PUSH1 0xC0 DUP3 ADD MLOAD DUP2 PUSH1 0x6 ADD SWAP1 DUP1 MLOAD SWAP1 PUSH1 0x20 ADD SWAP1 PUSH2 0x15D7 SWAP3 SWAP2 SWAP1 PUSH2 0x176B JUMP JUMPDEST POP PUSH1 0xE0 DUP3 ADD MLOAD DUP2 PUSH1 0x7 ADD SWAP1 DUP1 MLOAD SWAP1 PUSH1 0x20 ADD SWAP1 PUSH2 0x15F4 SWAP3 SWAP2 SWAP1 PUSH2 0x176B JUMP JUMPDEST POP POP POP PUSH1 0x3 PUSH1 0x0 CALLER PUSH20 0xFFFFFFFFFFFFFFFFFFFFFFFFFFFFFFFFFFFFFFFF AND PUSH20 0xFFFFFFFFFFFFFFFFFFFFFFFFFFFFFFFFFFFFFFFF AND DUP2 MSTORE PUSH1 0x20 ADD SWAP1 DUP2 MSTORE PUSH1 0x20 ADD PUSH1 0x0 KECCAK256 DUP2 SWAP1 DUP1 PUSH1 0x1 DUP2 SLOAD ADD DUP1 DUP3 SSTORE DUP1 SWAP2 POP POP PUSH1 0x1 SWAP1 SUB SWAP1 PUSH1 0x0 MSTORE PUSH1 0x20 PUSH1 0x0 KECCAK256 SWAP1 PUSH1 0x8 MUL ADD PUSH1 0x0 SWAP1 SWAP2 SWAP1 SWAP2 SWAP1 SWAP2 POP PUSH1 0x0 DUP3 ADD MLOAD DUP2 PUSH1 0x0 ADD SSTORE PUSH1 0x20 DUP3 ADD MLOAD DUP2 PUSH1 0x1 ADD SWAP1 DUP1 MLOAD SWAP1 PUSH1 0x20 ADD SWAP1 PUSH2 0x1686 SWAP3 SWAP2 SWAP1 PUSH2 0x176B JUMP JUMPDEST POP PUSH1 0x40 DUP3 ADD MLOAD DUP2 PUSH1 0x2 ADD SSTORE PUSH1 0x60 DUP3 ADD MLOAD DUP2 PUSH1 0x3 ADD PUSH1 0x0 PUSH2 0x100 EXP DUP2 SLOAD DUP2 PUSH20 0xFFFFFFFFFFFFFFFFFFFFFFFFFFFFFFFFFFFFFFFF MUL NOT AND SWAP1 DUP4 PUSH20 0xFFFFFFFFFFFFFFFFFFFFFFFFFFFFFFFFFFFFFFFF AND MUL OR SWAP1 SSTORE POP PUSH1 0x80 DUP3 ADD MLOAD DUP2 PUSH1 0x4 ADD PUSH1 0x0 PUSH2 0x100 EXP DUP2 SLOAD DUP2 PUSH20 0xFFFFFFFFFFFFFFFFFFFFFFFFFFFFFFFFFFFFFFFF MUL NOT AND SWAP1 DUP4 PUSH20 0xFFFFFFFFFFFFFFFFFFFFFFFFFFFFFFFFFFFFFFFF AND MUL OR SWAP1 SSTORE POP PUSH1 0xA0 DUP3 ADD MLOAD DUP2 PUSH1 0x5 ADD SSTORE PUSH1 0xC0 DUP3 ADD MLOAD DUP2 PUSH1 0x6 ADD SWAP1 DUP1 MLOAD SWAP1 PUSH1 0x20 ADD SWAP1 PUSH2 0x1745 SWAP3 SWAP2 SWAP1 PUSH2 0x176B JUMP JUMPDEST POP PUSH1 0xE0 DUP3 ADD MLOAD DUP2 PUSH1 0x7 ADD SWAP1 DUP1 MLOAD SWAP1 PUSH1 0x20 ADD SWAP1 PUSH2 0x1762 SWAP3 SWAP2 SWAP1 PUSH2 0x176B JUMP JUMPDEST POP POP POP POP POP POP POP JUMP JUMPDEST DUP3 DUP1 SLOAD PUSH2 0x1777 SWAP1 PUSH2 0x1F24 JUMP JUMPDEST SWAP1 PUSH1 0x0 MSTORE PUSH1 0x20 PUSH1 0x0 KECCAK256 SWAP1 PUSH1 0x1F ADD PUSH1 0x20 SWAP1 DIV DUP2 ADD SWAP3 DUP3 PUSH2 0x1799 JUMPI PUSH1 0x0 DUP6 SSTORE PUSH2 0x17E0 JUMP JUMPDEST DUP3 PUSH1 0x1F LT PUSH2 0x17B2 JUMPI DUP1 MLOAD PUSH1 0xFF NOT AND DUP4 DUP1 ADD OR DUP6 SSTORE PUSH2 0x17E0 JUMP JUMPDEST DUP3 DUP1 ADD PUSH1 0x1 ADD DUP6 SSTORE DUP3 ISZERO PUSH2 0x17E0 JUMPI SWAP2 DUP3 ADD JUMPDEST DUP3 DUP2 GT ISZERO PUSH2 0x17DF JUMPI DUP3 MLOAD DUP3 SSTORE SWAP2 PUSH1 0x20 ADD SWAP2 SWAP1 PUSH1 0x1 ADD SWAP1 PUSH2 0x17C4 JUMP JUMPDEST JUMPDEST POP SWAP1 POP PUSH2 0x17ED SWAP2 SWAP1 PUSH2 0x18BE JUMP JUMPDEST POP SWAP1 JUMP JUMPDEST POP DUP1 SLOAD PUSH2 0x17FD SWAP1 PUSH2 0x1F24 JUMP JUMPDEST PUSH1 0x0 DUP3 SSTORE DUP1 PUSH1 0x1F LT PUSH2 0x180F JUMPI POP PUSH2 0x182E JUMP JUMPDEST PUSH1 0x1F ADD PUSH1 0x20 SWAP1 DIV SWAP1 PUSH1 0x0 MSTORE PUSH1 0x20 PUSH1 0x0 KECCAK256 SWAP1 DUP2 ADD SWAP1 PUSH2 0x182D SWAP2 SWAP1 PUSH2 0x18BE JUMP JUMPDEST JUMPDEST POP JUMP JUMPDEST DUP3 DUP1 SLOAD PUSH2 0x183D SWAP1 PUSH2 0x1F24 JUMP JUMPDEST SWAP1 PUSH1 0x0 MSTORE PUSH1 0x20 PUSH1 0x0 KECCAK256 SWAP1 PUSH1 0x1F ADD PUSH1 0x20 SWAP1 DIV DUP2 ADD SWAP3 DUP3 PUSH2 0x185F JUMPI PUSH1 0x0 DUP6 SSTORE PUSH2 0x18AD JUMP JUMPDEST DUP3 PUSH1 0x1F LT PUSH2 0x1870 JUMPI DUP1 SLOAD DUP6 SSTORE PUSH2 0x18AD JUMP JUMPDEST DUP3 DUP1 ADD PUSH1 0x1 ADD DUP6 SSTORE DUP3 ISZERO PUSH2 0x18AD JUMPI PUSH1 0x0 MSTORE PUSH1 0x20 PUSH1 0x0 KECCAK256 SWAP2 PUSH1 0x1F ADD PUSH1 0x20 SWAP1 DIV DUP3 ADD JUMPDEST DUP3 DUP2 GT ISZERO PUSH2 0x18AC JUMPI DUP3 SLOAD DUP3 SSTORE SWAP2 PUSH1 0x1 ADD SWAP2 SWAP1 PUSH1 0x1 ADD SWAP1 PUSH2 0x1891 JUMP JUMPDEST JUMPDEST POP SWAP1 POP PUSH2 0x18BA SWAP2 SWAP1 PUSH2 0x18BE JUMP JUMPDEST POP SWAP1 JUMP JUMPDEST JUMPDEST DUP1 DUP3 GT ISZERO PUSH2 0x18D7 JUMPI PUSH1 0x0 DUP2 PUSH1 0x0 SWAP1 SSTORE POP PUSH1 0x1 ADD PUSH2 0x18BF JUMP JUMPDEST POP SWAP1 JUMP JUMPDEST PUSH1 0x0 PUSH2 0x18EE PUSH2 0x18E9 DUP5 PUSH2 0x1D85 JUMP JUMPDEST PUSH2 0x1D60 JUMP JUMPDEST SWAP1 POP DUP3 DUP2 MSTORE PUSH1 0x20 DUP2 ADD DUP5 DUP5 DUP5 ADD GT ISZERO PUSH2 0x190A JUMPI PUSH2 0x1909 PUSH2 0x20C0 JUMP JUMPDEST JUMPDEST PUSH2 0x1915 DUP5 DUP3 DUP6 PUSH2 0x1EE2 JUMP JUMPDEST POP SWAP4 SWAP3 POP POP POP JUMP JUMPDEST PUSH1 0x0 DUP2 CALLDATALOAD SWAP1 POP PUSH2 0x192C DUP2 PUSH2 0x20E0 JUMP JUMPDEST SWAP3 SWAP2 POP POP JUMP JUMPDEST PUSH1 0x0 DUP3 PUSH1 0x1F DUP4 ADD SLT PUSH2 0x1947 JUMPI PUSH2 0x1946 PUSH2 0x20BB JUMP JUMPDEST JUMPDEST DUP2 CALLDATALOAD PUSH2 0x1957 DUP5 DUP3 PUSH1 0x20 DUP7 ADD PUSH2 0x18DB JUMP JUMPDEST SWAP2 POP POP SWAP3 SWAP2 POP POP JUMP JUMPDEST PUSH1 0x0 DUP2 CALLDATALOAD SWAP1 POP PUSH2 0x196F DUP2 PUSH2 0x20F7 JUMP JUMPDEST SWAP3 SWAP2 POP POP JUMP JUMPDEST PUSH1 0x0 PUSH1 0x20 DUP3 DUP5 SUB SLT ISZERO PUSH2 0x198B JUMPI PUSH2 0x198A PUSH2 0x20CA JUMP JUMPDEST JUMPDEST PUSH1 0x0 PUSH2 0x1999 DUP5 DUP3 DUP6 ADD PUSH2 0x191D JUMP JUMPDEST SWAP2 POP POP SWAP3 SWAP2 POP POP JUMP JUMPDEST PUSH1 0x0 DUP1 PUSH1 0x0 PUSH1 0x60 DUP5 DUP7 SUB SLT ISZERO PUSH2 0x19BB JUMPI PUSH2 0x19BA PUSH2 0x20CA JUMP JUMPDEST JUMPDEST PUSH1 0x0 DUP5 ADD CALLDATALOAD PUSH8 0xFFFFFFFFFFFFFFFF DUP2 GT ISZERO PUSH2 0x19D9 JUMPI PUSH2 0x19D8 PUSH2 0x20C5 JUMP JUMPDEST JUMPDEST PUSH2 0x19E5 DUP7 DUP3 DUP8 ADD PUSH2 0x1932 JUMP JUMPDEST SWAP4 POP POP PUSH1 0x20 PUSH2 0x19F6 DUP7 DUP3 DUP8 ADD PUSH2 0x191D JUMP JUMPDEST SWAP3 POP POP PUSH1 0x40 DUP5 ADD CALLDATALOAD PUSH8 0xFFFFFFFFFFFFFFFF DUP2 GT ISZERO PUSH2 0x1A17 JUMPI PUSH2 0x1A16 PUSH2 0x20C5 JUMP JUMPDEST JUMPDEST PUSH2 0x1A23 DUP7 DUP3 DUP8 ADD PUSH2 0x1932 JUMP JUMPDEST SWAP2 POP POP SWAP3 POP SWAP3 POP SWAP3 JUMP JUMPDEST PUSH1 0x0 PUSH1 0x20 DUP3 DUP5 SUB SLT ISZERO PUSH2 0x1A43 JUMPI PUSH2 0x1A42 PUSH2 0x20CA JUMP JUMPDEST JUMPDEST PUSH1 0x0 PUSH2 0x1A51 DUP5 DUP3 DUP6 ADD PUSH2 0x1960 JUMP JUMPDEST SWAP2 POP POP SWAP3 SWAP2 POP POP JUMP JUMPDEST PUSH1 0x0 DUP1 PUSH1 0x40 DUP4 DUP6 SUB SLT ISZERO PUSH2 0x1A71 JUMPI PUSH2 0x1A70 PUSH2 0x20CA JUMP JUMPDEST JUMPDEST PUSH1 0x0 PUSH2 0x1A7F DUP6 DUP3 DUP7 ADD PUSH2 0x1960 JUMP JUMPDEST SWAP3 POP POP PUSH1 0x20 DUP4 ADD CALLDATALOAD PUSH8 0xFFFFFFFFFFFFFFFF DUP2 GT ISZERO PUSH2 0x1AA0 JUMPI PUSH2 0x1A9F PUSH2 0x20C5 JUMP JUMPDEST JUMPDEST PUSH2 0x1AAC DUP6 DUP3 DUP7 ADD PUSH2 0x1932 JUMP JUMPDEST SWAP2 POP POP SWAP3 POP SWAP3 SWAP1 POP JUMP JUMPDEST PUSH1 0x0 PUSH2 0x1AC2 DUP4 DUP4 PUSH2 0x1BCF JUMP JUMPDEST SWAP1 POP SWAP3 SWAP2 POP POP JUMP JUMPDEST PUSH2 0x1AD3 DUP2 PUSH2 0x1EA6 JUMP JUMPDEST DUP3 MSTORE POP POP JUMP JUMPDEST PUSH2 0x1AE2 DUP2 PUSH2 0x1EA6 JUMP JUMPDEST DUP3 MSTORE POP POP JUMP JUMPDEST PUSH1 0x0 PUSH2 0x1AF3 DUP3 PUSH2 0x1DC6 JUMP JUMPDEST PUSH2 0x1AFD DUP2 DUP6 PUSH2 0x1DE9 JUMP JUMPDEST SWAP4 POP DUP4 PUSH1 0x20 DUP3 MUL DUP6 ADD PUSH2 0x1B0F DUP6 PUSH2 0x1DB6 JUMP JUMPDEST DUP1 PUSH1 0x0 JUMPDEST DUP6 DUP2 LT ISZERO PUSH2 0x1B4B JUMPI DUP5 DUP5 SUB DUP10 MSTORE DUP2 MLOAD PUSH2 0x1B2C DUP6 DUP3 PUSH2 0x1AB6 JUMP JUMPDEST SWAP5 POP PUSH2 0x1B37 DUP4 PUSH2 0x1DDC JUMP JUMPDEST SWAP3 POP PUSH1 0x20 DUP11 ADD SWAP10 POP POP PUSH1 0x1 DUP2 ADD SWAP1 POP PUSH2 0x1B13 JUMP JUMPDEST POP DUP3 SWAP8 POP DUP8 SWAP6 POP POP POP POP POP POP SWAP3 SWAP2 POP POP JUMP JUMPDEST PUSH1 0x0 PUSH2 0x1B68 DUP3 PUSH2 0x1DD1 JUMP JUMPDEST PUSH2 0x1B72 DUP2 DUP6 PUSH2 0x1DFA JUMP JUMPDEST SWAP4 POP PUSH2 0x1B82 DUP2 DUP6 PUSH1 0x20 DUP7 ADD PUSH2 0x1EF1 JUMP JUMPDEST PUSH2 0x1B8B DUP2 PUSH2 0x20CF JUMP JUMPDEST DUP5 ADD SWAP2 POP POP SWAP3 SWAP2 POP POP JUMP JUMPDEST PUSH1 0x0 PUSH2 0x1BA1 DUP3 PUSH2 0x1DD1 JUMP JUMPDEST PUSH2 0x1BAB DUP2 DUP6 PUSH2 0x1E0B JUMP JUMPDEST SWAP4 POP PUSH2 0x1BBB DUP2 DUP6 PUSH1 0x20 DUP7 ADD PUSH2 0x1EF1 JUMP JUMPDEST PUSH2 0x1BC4 DUP2 PUSH2 0x20CF JUMP JUMPDEST DUP5 ADD SWAP2 POP POP SWAP3 SWAP2 POP POP JUMP JUMPDEST PUSH1 0x0 PUSH2 0x100 DUP4 ADD PUSH1 0x0 DUP4 ADD MLOAD PUSH2 0x1BE8 PUSH1 0x0 DUP7 ADD DUP3 PUSH2 0x1C8D JUMP JUMPDEST POP PUSH1 0x20 DUP4 ADD MLOAD DUP5 DUP3 SUB PUSH1 0x20 DUP7 ADD MSTORE PUSH2 0x1C00 DUP3 DUP3 PUSH2 0x1B5D JUMP JUMPDEST SWAP2 POP POP PUSH1 0x40 DUP4 ADD MLOAD PUSH2 0x1C15 PUSH1 0x40 DUP7 ADD DUP3 PUSH2 0x1C8D JUMP JUMPDEST POP PUSH1 0x60 DUP4 ADD MLOAD PUSH2 0x1C28 PUSH1 0x60 DUP7 ADD DUP3 PUSH2 0x1ACA JUMP JUMPDEST POP PUSH1 0x80 DUP4 ADD MLOAD PUSH2 0x1C3B PUSH1 0x80 DUP7 ADD DUP3 PUSH2 0x1ACA JUMP JUMPDEST POP PUSH1 0xA0 DUP4 ADD MLOAD PUSH2 0x1C4E PUSH1 0xA0 DUP7 ADD DUP3 PUSH2 0x1C8D JUMP JUMPDEST POP PUSH1 0xC0 DUP4 ADD MLOAD DUP5 DUP3 SUB PUSH1 0xC0 DUP7 ADD MSTORE PUSH2 0x1C66 DUP3 DUP3 PUSH2 0x1B5D JUMP JUMPDEST SWAP2 POP POP PUSH1 0xE0 DUP4 ADD MLOAD DUP5 DUP3 SUB PUSH1 0xE0 DUP7 ADD MSTORE PUSH2 0x1C80 DUP3 DUP3 PUSH2 0x1B5D JUMP JUMPDEST SWAP2 POP POP DUP1 SWAP2 POP POP SWAP3 SWAP2 POP POP JUMP JUMPDEST PUSH2 0x1C96 DUP2 PUSH2 0x1ED8 JUMP JUMPDEST DUP3 MSTORE POP POP JUMP JUMPDEST PUSH2 0x1CA5 DUP2 PUSH2 0x1ED8 JUMP JUMPDEST DUP3 MSTORE POP POP JUMP JUMPDEST PUSH1 0x0 PUSH1 0x20 DUP3 ADD SWAP1 POP DUP2 DUP2 SUB PUSH1 0x0 DUP4 ADD MSTORE PUSH2 0x1CC5 DUP2 DUP5 PUSH2 0x1AE8 JUMP JUMPDEST SWAP1 POP SWAP3 SWAP2 POP POP JUMP JUMPDEST PUSH1 0x0 PUSH2 0x100 DUP3 ADD SWAP1 POP PUSH2 0x1CE3 PUSH1 0x0 DUP4 ADD DUP12 PUSH2 0x1C9C JUMP JUMPDEST DUP2 DUP2 SUB PUSH1 0x20 DUP4 ADD MSTORE PUSH2 0x1CF5 DUP2 DUP11 PUSH2 0x1B96 JUMP JUMPDEST SWAP1 POP PUSH2 0x1D04 PUSH1 0x40 DUP4 ADD DUP10 PUSH2 0x1C9C JUMP JUMPDEST PUSH2 0x1D11 PUSH1 0x60 DUP4 ADD DUP9 PUSH2 0x1AD9 JUMP JUMPDEST PUSH2 0x1D1E PUSH1 0x80 DUP4 ADD DUP8 PUSH2 0x1AD9 JUMP JUMPDEST PUSH2 0x1D2B PUSH1 0xA0 DUP4 ADD DUP7 PUSH2 0x1C9C JUMP JUMPDEST DUP2 DUP2 SUB PUSH1 0xC0 DUP4 ADD MSTORE PUSH2 0x1D3D DUP2 DUP6 PUSH2 0x1B96 JUMP JUMPDEST SWAP1 POP DUP2 DUP2 SUB PUSH1 0xE0 DUP4 ADD MSTORE PUSH2 0x1D51 DUP2 DUP5 PUSH2 0x1B96 JUMP JUMPDEST SWAP1 POP SWAP10 SWAP9 POP POP POP POP POP POP POP POP POP JUMP JUMPDEST PUSH1 0x0 PUSH2 0x1D6A PUSH2 0x1D7B JUMP JUMPDEST SWAP1 POP PUSH2 0x1D76 DUP3 DUP3 PUSH2 0x1F56 JUMP JUMPDEST SWAP2 SWAP1 POP JUMP JUMPDEST PUSH1 0x0 PUSH1 0x40 MLOAD SWAP1 POP SWAP1 JUMP JUMPDEST PUSH1 0x0 PUSH8 0xFFFFFFFFFFFFFFFF DUP3 GT ISZERO PUSH2 0x1DA0 JUMPI PUSH2 0x1D9F PUSH2 0x208C JUMP JUMPDEST JUMPDEST PUSH2 0x1DA9 DUP3 PUSH2 0x20CF JUMP JUMPDEST SWAP1 POP PUSH1 0x20 DUP2 ADD SWAP1 POP SWAP2 SWAP1 POP JUMP JUMPDEST PUSH1 0x0 DUP2 SWAP1 POP PUSH1 0x20 DUP3 ADD SWAP1 POP SWAP2 SWAP1 POP JUMP JUMPDEST PUSH1 0x0 DUP2 MLOAD SWAP1 POP SWAP2 SWAP1 POP JUMP JUMPDEST PUSH1 0x0 DUP2 MLOAD SWAP1 POP SWAP2 SWAP1 POP JUMP JUMPDEST PUSH1 0x0 PUSH1 0x20 DUP3 ADD SWAP1 POP SWAP2 SWAP1 POP JUMP JUMPDEST PUSH1 0x0 DUP3 DUP3 MSTORE PUSH1 0x20 DUP3 ADD SWAP1 POP SWAP3 SWAP2 POP POP JUMP JUMPDEST PUSH1 0x0 DUP3 DUP3 MSTORE PUSH1 0x20 DUP3 ADD SWAP1 POP SWAP3 SWAP2 POP POP JUMP JUMPDEST PUSH1 0x0 DUP3 DUP3 MSTORE PUSH1 0x20 DUP3 ADD SWAP1 POP SWAP3 SWAP2 POP POP JUMP JUMPDEST PUSH1 0x0 PUSH2 0x1E27 DUP3 PUSH2 0x1ED8 JUMP JUMPDEST SWAP2 POP PUSH2 0x1E32 DUP4 PUSH2 0x1ED8 JUMP JUMPDEST SWAP3 POP DUP3 PUSH32 0xFFFFFFFFFFFFFFFFFFFFFFFFFFFFFFFFFFFFFFFFFFFFFFFFFFFFFFFFFFFFFFFF SUB DUP3 GT ISZERO PUSH2 0x1E67 JUMPI PUSH2 0x1E66 PUSH2 0x1FD0 JUMP JUMPDEST JUMPDEST DUP3 DUP3 ADD SWAP1 POP SWAP3 SWAP2 POP POP JUMP JUMPDEST PUSH1 0x0 PUSH2 0x1E7D DUP3 PUSH2 0x1ED8 JUMP JUMPDEST SWAP2 POP PUSH2 0x1E88 DUP4 PUSH2 0x1ED8 JUMP JUMPDEST SWAP3 POP DUP3 DUP3 LT ISZERO PUSH2 0x1E9B JUMPI PUSH2 0x1E9A PUSH2 0x1FD0 JUMP JUMPDEST JUMPDEST DUP3 DUP3 SUB SWAP1 POP SWAP3 SWAP2 POP POP JUMP JUMPDEST PUSH1 0x0 PUSH2 0x1EB1 DUP3 PUSH2 0x1EB8 JUMP JUMPDEST SWAP1 POP SWAP2 SWAP1 POP JUMP JUMPDEST PUSH1 0x0 PUSH20 0xFFFFFFFFFFFFFFFFFFFFFFFFFFFFFFFFFFFFFFFF DUP3 AND SWAP1 POP SWAP2 SWAP1 POP JUMP JUMPDEST PUSH1 0x0 DUP2 SWAP1 POP SWAP2 SWAP1 POP JUMP JUMPDEST DUP3 DUP2 DUP4 CALLDATACOPY PUSH1 0x0 DUP4 DUP4 ADD MSTORE POP POP POP JUMP JUMPDEST PUSH1 0x0 JUMPDEST DUP4 DUP2 LT ISZERO PUSH2 0x1F0F JUMPI DUP1 DUP3 ADD MLOAD DUP2 DUP5 ADD MSTORE PUSH1 0x20 DUP2 ADD SWAP1 POP PUSH2 0x1EF4 JUMP JUMPDEST DUP4 DUP2 GT ISZERO PUSH2 0x1F1E JUMPI PUSH1 0x0 DUP5 DUP5 ADD MSTORE JUMPDEST POP POP POP POP JUMP JUMPDEST PUSH1 0x0 PUSH1 0x2 DUP3 DIV SWAP1 POP PUSH1 0x1 DUP3 AND DUP1 PUSH2 0x1F3C JUMPI PUSH1 0x7F DUP3 AND SWAP2 POP JUMPDEST PUSH1 0x20 DUP3 LT DUP2 EQ ISZERO PUSH2 0x1F50 JUMPI PUSH2 0x1F4F PUSH2 0x1FFF JUMP JUMPDEST JUMPDEST POP SWAP2 SWAP1 POP JUMP JUMPDEST PUSH2 0x1F5F DUP3 PUSH2 0x20CF JUMP JUMPDEST DUP2 ADD DUP2 DUP2 LT PUSH8 0xFFFFFFFFFFFFFFFF DUP3 GT OR ISZERO PUSH2 0x1F7E JUMPI PUSH2 0x1F7D PUSH2 0x208C JUMP JUMPDEST JUMPDEST DUP1 PUSH1 0x40 MSTORE POP POP POP JUMP JUMPDEST PUSH1 0x0 PUSH2 0x1F92 DUP3 PUSH2 0x1ED8 JUMP JUMPDEST SWAP2 POP PUSH32 0xFFFFFFFFFFFFFFFFFFFFFFFFFFFFFFFFFFFFFFFFFFFFFFFFFFFFFFFFFFFFFFFF DUP3 EQ ISZERO PUSH2 0x1FC5 JUMPI PUSH2 0x1FC4 PUSH2 0x1FD0 JUMP JUMPDEST JUMPDEST PUSH1 0x1 DUP3 ADD SWAP1 POP SWAP2 SWAP1 POP JUMP JUMPDEST PUSH32 0x4E487B7100000000000000000000000000000000000000000000000000000000 PUSH1 0x0 MSTORE PUSH1 0x11 PUSH1 0x4 MSTORE PUSH1 0x24 PUSH1 0x0 REVERT JUMPDEST PUSH32 0x4E487B7100000000000000000000000000000000000000000000000000000000 PUSH1 0x0 MSTORE PUSH1 0x22 PUSH1 0x4 MSTORE PUSH1 0x24 PUSH1 0x0 REVERT JUMPDEST PUSH32 0x4E487B7100000000000000000000000000000000000000000000000000000000 PUSH1 0x0 MSTORE PUSH1 0x31 PUSH1 0x4 MSTORE PUSH1 0x24 PUSH1 0x0 REVERT JUMPDEST PUSH32 0x4E487B7100000000000000000000000000000000000000000000000000000000 PUSH1 0x0 MSTORE PUSH1 0x32 PUSH1 0x4 MSTORE PUSH1 0x24 PUSH1 0x0 REVERT JUMPDEST PUSH32 0x4E487B7100000000000000000000000000000000000000000000000000000000 PUSH1 0x0 MSTORE PUSH1 0x41 PUSH1 0x4 MSTORE PUSH1 0x24 PUSH1 0x0 REVERT JUMPDEST PUSH1 0x0 DUP1 REVERT JUMPDEST PUSH1 0x0 DUP1 REVERT JUMPDEST PUSH1 0x0 DUP1 REVERT JUMPDEST PUSH1 0x0 DUP1 REVERT JUMPDEST PUSH1 0x0 PUSH1 0x1F NOT PUSH1 0x1F DUP4 ADD AND SWAP1 POP SWAP2 SWAP1 POP JUMP JUMPDEST PUSH2 0x20E9 DUP2 PUSH2 0x1EA6 JUMP JUMPDEST DUP2 EQ PUSH2 0x20F4 JUMPI PUSH1 0x0 DUP1 REVERT JUMPDEST POP JUMP JUMPDEST PUSH2 0x2100 DUP2 PUSH2 0x1ED8 JUMP JUMPDEST DUP2 EQ PUSH2 0x210B JUMPI PUSH1 0x0 DUP1 REVERT JUMPDEST POP JUMP INVALID LOG2 PUSH5 0x6970667358 0x22 SLT KECCAK256 0xAF MSTORE 0x49 0xC8 SLOAD CALLCODE 0xA8 0xAE POP CALLDATALOAD 0xF9 LOG3 0xDE 0x2A 0xD2 SLOAD 0x22 PUSH1 0x68 0x5F DUP11 CALLCODE DUP11 0xC9 DUP1 DUP16 PUSH25 0xE27292321064736F6C63430008070033000000000000000000 "
				},
				"gasEstimates": {
					"creation": {
						"codeDepositCost": "1703200",
						"executionCost": "1792",
						"totalCost": "1704992"
					},
					"external": {
						"createCrowdfunding(string,address,string)": "infinite",
						"getCrowdfundingByStatus(uint256)": "infinite",
						"getMyCrowdfunding(address)": "infinite",
						"list(uint256)": "infinite",
						"setStatus(uint256)": "infinite",
						"setTitle(uint256,string)": "infinite"
					}
				},
				"methodIdentifiers": {
					"createCrowdfunding(string,address,string)": "a97af4d5",
					"getCrowdfundingByStatus(uint256)": "904cc175",
					"getMyCrowdfunding(address)": "377e6ff7",
					"list(uint256)": "80c9419e",
					"setStatus(uint256)": "69ba1a75",
					"setTitle(uint256,string)": "5102bc9d"
				}
			},
			"storageLayout": {
				"storage": [
					{
						"astId": 3,
						"contract": "crowdfunding.sol:CrowdfundingContract",
						"label": "No",
						"offset": 0,
						"slot": "0",
						"type": "t_uint256"
					},
					{
						"astId": 24,
						"contract": "crowdfunding.sol:CrowdfundingContract",
						"label": "list",
						"offset": 0,
						"slot": "1",
						"type": "t_array(t_struct(Crowdfunding)20_storage)dyn_storage"
					},
					{
						"astId": 30,
						"contract": "crowdfunding.sol:CrowdfundingContract",
						"label": "filterDataByStatus",
						"offset": 0,
						"slot": "2",
						"type": "t_mapping(t_uint256,t_array(t_struct(Crowdfunding)20_storage)dyn_storage)"
					},
					{
						"astId": 36,
						"contract": "crowdfunding.sol:CrowdfundingContract",
						"label": "myCrowdfunding",
						"offset": 0,
						"slot": "3",
						"type": "t_mapping(t_address,t_array(t_struct(Crowdfunding)20_storage)dyn_storage)"
					}
				],
				"types": {
					"t_address": {
						"encoding": "inplace",
						"label": "address",
						"numberOfBytes": "20"
					},
					"t_array(t_struct(Crowdfunding)20_storage)dyn_storage": {
						"base": "t_struct(Crowdfunding)20_storage",
						"encoding": "dynamic_array",
						"label": "struct CrowdfundingContract.Crowdfunding[]",
						"numberOfBytes": "32"
					},
					"t_mapping(t_address,t_array(t_struct(Crowdfunding)20_storage)dyn_storage)": {
						"encoding": "mapping",
						"key": "t_address",
						"label": "mapping(address => struct CrowdfundingContract.Crowdfunding[])",
						"numberOfBytes": "32",
						"value": "t_array(t_struct(Crowdfunding)20_storage)dyn_storage"
					},
					"t_mapping(t_uint256,t_array(t_struct(Crowdfunding)20_storage)dyn_storage)": {
						"encoding": "mapping",
						"key": "t_uint256",
						"label": "mapping(uint256 => struct CrowdfundingContract.Crowdfunding[])",
						"numberOfBytes": "32",
						"value": "t_array(t_struct(Crowdfunding)20_storage)dyn_storage"
					},
					"t_string_storage": {
						"encoding": "bytes",
						"label": "string",
						"numberOfBytes": "32"
					},
					"t_struct(Crowdfunding)20_storage": {
						"encoding": "inplace",
						"label": "struct CrowdfundingContract.Crowdfunding",
						"members": [
							{
								"astId": 5,
								"contract": "crowdfunding.sol:CrowdfundingContract",
								"label": "num",
								"offset": 0,
								"slot": "0",
								"type": "t_uint256"
							},
							{
								"astId": 7,
								"contract": "crowdfunding.sol:CrowdfundingContract",
								"label": "title",
								"offset": 0,
								"slot": "1",
								"type": "t_string_storage"
							},
							{
								"astId": 9,
								"contract": "crowdfunding.sol:CrowdfundingContract",
								"label": "status",
								"offset": 0,
								"slot": "2",
								"type": "t_uint256"
							},
							{
								"astId": 11,
								"contract": "crowdfunding.sol:CrowdfundingContract",
								"label": "creator",
								"offset": 0,
								"slot": "3",
								"type": "t_address"
							},
							{
								"astId": 13,
								"contract": "crowdfunding.sol:CrowdfundingContract",
								"label": "recipient",
								"offset": 0,
								"slot": "4",
								"type": "t_address"
							},
							{
								"astId": 15,
								"contract": "crowdfunding.sol:CrowdfundingContract",
								"label": "joinNum",
								"offset": 0,
								"slot": "5",
								"type": "t_uint256"
							},
							{
								"astId": 17,
								"contract": "crowdfunding.sol:CrowdfundingContract",
								"label": "expectAmout",
								"offset": 0,
								"slot": "6",
								"type": "t_string_storage"
							},
							{
								"astId": 19,
								"contract": "crowdfunding.sol:CrowdfundingContract",
								"label": "actualAmount",
								"offset": 0,
								"slot": "7",
								"type": "t_string_storage"
							}
						],
						"numberOfBytes": "256"
					},
					"t_uint256": {
						"encoding": "inplace",
						"label": "uint256",
						"numberOfBytes": "32"
					}
				}
			},
			"userdoc": {
				"kind": "user",
				"methods": {},
				"version": 1
			}
		}
	}
}