{
	"extends.sol": {
		"Man": {
			"abi": [
				{
					"inputs": [],
					"name": "age",
					"outputs": [
						{
							"internalType": "uint8",
							"name": "",
							"type": "uint8"
						}
					],
					"stateMutability": "view",
					"type": "function"
				},
				{
					"inputs": [],
					"name": "f1",
					"outputs": [
						{
							"internalType": "string",
							"name": "",
							"type": "string"
						},
						{
							"internalType": "uint8",
							"name": "",
							"type": "uint8"
						}
					],
					"stateMutability": "view",
					"type": "function"
				},
				{
					"inputs": [],
					"name": "getAge",
					"outputs": [
						{
							"internalType": "uint256",
							"name": "",
							"type": "uint256"
						}
					],
					"stateMutability": "view",
					"type": "function"
				},
				{
					"inputs": [],
					"name": "getUser",
					"outputs": [
						{
							"internalType": "string",
							"name": "",
							"type": "string"
						}
					],
					"stateMutability": "view",
					"type": "function"
				},
				{
					"inputs": [
						{
							"internalType": "uint8",
							"name": "_age",
							"type": "uint8"
						}
					],
					"name": "setAge",
					"outputs": [],
					"stateMutability": "nonpayable",
					"type": "function"
				},
				{
					"inputs": [
						{
							"internalType": "string",
							"name": "_user",
							"type": "string"
						}
					],
					"name": "setUser",
					"outputs": [],
					"stateMutability": "nonpayable",
					"type": "function"
				},
				{
					"inputs": [],
					"name": "user",
					"outputs": [
						{
							"internalType": "string",
							"name": "",
							"type": "string"
						}
					],
					"stateMutability": "view",
					"type": "function"
				}
			],
			"devdoc": {
				"kind": "dev",
				"methods": {},
				"version": 1
			},
			"evm": {
				"assembly": "    /* \"extends.sol\":572:708  contract Man is Person('blue',30) {\r... */\n  mstore(0x40, 0x80)\n  callvalue\n  dup1\n  iszero\n  tag_1\n  jumpi\n  0x00\n  dup1\n  revert\ntag_1:\n  pop\n    /* \"extends.sol\":134:230  constructor(string memory _user,uint8 _age) {\r... */\n  mload(0x40)\n  dup1\n  0x40\n  add\n  0x40\n  mstore\n  dup1\n  0x04\n  dup2\n  mstore\n  0x20\n  add\n  0x626c756500000000000000000000000000000000000000000000000000000000\n  dup2\n  mstore\n  pop\n    /* \"extends.sol\":602:604  30 */\n  0x1e\n    /* \"extends.sol\":196:201  _user */\n  dup2\n    /* \"extends.sol\":189:193  user */\n  0x00\n    /* \"extends.sol\":189:201  user = _user */\n  swap1\n  dup1\n  mload\n  swap1\n  0x20\n  add\n  swap1\n  tag_4\n  swap3\n  swap2\n  swap1\n  tag_5\n  jump\t// in\ntag_4:\n  pop\n    /* \"extends.sol\":218:222  _age */\n  dup1\n    /* \"extends.sol\":212:215  age */\n  0x01\n  0x00\n    /* \"extends.sol\":212:222  age = _age */\n  0x0100\n  exp\n  dup2\n  sload\n  dup2\n  0xff\n  mul\n  not\n  and\n  swap1\n  dup4\n  0xff\n  and\n  mul\n  or\n  swap1\n  sstore\n  pop\n    /* \"extends.sol\":134:230  constructor(string memory _user,uint8 _age) {\r... */\n  pop\n  pop\n    /* \"extends.sol\":572:708  contract Man is Person('blue',30) {\r... */\n  jump(tag_6)\ntag_5:\n  dup3\n  dup1\n  sload\n  tag_7\n  swap1\n  tag_8\n  jump\t// in\ntag_7:\n  swap1\n  0x00\n  mstore\n  keccak256(0x00, 0x20)\n  swap1\n  0x1f\n  add\n  0x20\n  swap1\n  div\n  dup2\n  add\n  swap3\n  dup3\n  tag_10\n  jumpi\n  0x00\n  dup6\n  sstore\n  jump(tag_9)\ntag_10:\n  dup3\n  0x1f\n  lt\n  tag_11\n  jumpi\n  dup1\n  mload\n  not(0xff)\n  and\n  dup4\n  dup1\n  add\n  or\n  dup6\n  sstore\n  jump(tag_9)\ntag_11:\n  dup3\n  dup1\n  add\n  0x01\n  add\n  dup6\n  sstore\n  dup3\n  iszero\n  tag_9\n  jumpi\n  swap2\n  dup3\n  add\ntag_12:\n  dup3\n  dup2\n  gt\n  iszero\n  tag_13\n  jumpi\n  dup3\n  mload\n  dup3\n  sstore\n  swap2\n  0x20\n  add\n  swap2\n  swap1\n  0x01\n  add\n  swap1\n  jump(tag_12)\ntag_13:\ntag_9:\n  pop\n  swap1\n  pop\n  tag_14\n  swap2\n  swap1\n  tag_15\n  jump\t// in\ntag_14:\n  pop\n  swap1\n  jump\t// out\ntag_15:\ntag_16:\n  dup1\n  dup3\n  gt\n  iszero\n  tag_17\n  jumpi\n  0x00\n  dup2\n  0x00\n  swap1\n  sstore\n  pop\n  0x01\n  add\n  jump(tag_16)\ntag_17:\n  pop\n  swap1\n  jump\t// out\n    /* \"#utility.yul\":7:327   */\ntag_8:\n    /* \"#utility.yul\":51:57   */\n  0x00\n    /* \"#utility.yul\":88:89   */\n  0x02\n    /* \"#utility.yul\":82:86   */\n  dup3\n    /* \"#utility.yul\":78:90   */\n  div\n    /* \"#utility.yul\":68:90   */\n  swap1\n  pop\n    /* \"#utility.yul\":135:136   */\n  0x01\n    /* \"#utility.yul\":129:133   */\n  dup3\n    /* \"#utility.yul\":125:137   */\n  and\n    /* \"#utility.yul\":156:174   */\n  dup1\n    /* \"#utility.yul\":146:227   */\n  tag_20\n  jumpi\n    /* \"#utility.yul\":212:216   */\n  0x7f\n    /* \"#utility.yul\":204:210   */\n  dup3\n    /* \"#utility.yul\":200:217   */\n  and\n    /* \"#utility.yul\":190:217   */\n  swap2\n  pop\n    /* \"#utility.yul\":146:227   */\ntag_20:\n    /* \"#utility.yul\":274:276   */\n  0x20\n    /* \"#utility.yul\":266:272   */\n  dup3\n    /* \"#utility.yul\":263:277   */\n  lt\n    /* \"#utility.yul\":243:261   */\n  dup2\n    /* \"#utility.yul\":240:278   */\n  eq\n    /* \"#utility.yul\":237:321   */\n  iszero\n  tag_21\n  jumpi\n    /* \"#utility.yul\":293:311   */\n  tag_22\n  tag_23\n  jump\t// in\ntag_22:\n    /* \"#utility.yul\":237:321   */\ntag_21:\n    /* \"#utility.yul\":58:327   */\n  pop\n    /* \"#utility.yul\":7:327   */\n  swap2\n  swap1\n  pop\n  jump\t// out\n    /* \"#utility.yul\":333:513   */\ntag_23:\n    /* \"#utility.yul\":381:458   */\n  0x4e487b7100000000000000000000000000000000000000000000000000000000\n    /* \"#utility.yul\":378:379   */\n  0x00\n    /* \"#utility.yul\":371:459   */\n  mstore\n    /* \"#utility.yul\":478:482   */\n  0x22\n    /* \"#utility.yul\":475:476   */\n  0x04\n    /* \"#utility.yul\":468:483   */\n  mstore\n    /* \"#utility.yul\":502:506   */\n  0x24\n    /* \"#utility.yul\":499:500   */\n  0x00\n    /* \"#utility.yul\":492:507   */\n  revert\n    /* \"extends.sol\":572:708  contract Man is Person('blue',30) {\r... */\ntag_6:\n  dataSize(sub_0)\n  dup1\n  dataOffset(sub_0)\n  0x00\n  codecopy\n  0x00\n  return\nstop\n\nsub_0: assembly {\n        /* \"extends.sol\":572:708  contract Man is Person('blue',30) {\r... */\n      mstore(0x40, 0x80)\n      callvalue\n      dup1\n      iszero\n      tag_1\n      jumpi\n      0x00\n      dup1\n      revert\n    tag_1:\n      pop\n      jumpi(tag_2, lt(calldatasize, 0x04))\n      shr(0xe0, calldataload(0x00))\n      dup1\n      0x832880e7\n      gt\n      tag_10\n      jumpi\n      dup1\n      0x832880e7\n      eq\n      tag_6\n      jumpi\n      dup1\n      0x967e6e65\n      eq\n      tag_7\n      jumpi\n      dup1\n      0xc27fc305\n      eq\n      tag_8\n      jumpi\n      dup1\n      0xd0020fad\n      eq\n      tag_9\n      jumpi\n      jump(tag_2)\n    tag_10:\n      dup1\n      0x262a9dff\n      eq\n      tag_3\n      jumpi\n      dup1\n      0x4f8632ba\n      eq\n      tag_4\n      jumpi\n      dup1\n      0x5b0c8d70\n      eq\n      tag_5\n      jumpi\n    tag_2:\n      0x00\n      dup1\n      revert\n        /* \"extends.sol\":109:125  uint8 public age */\n    tag_3:\n      tag_11\n      tag_12\n      jump\t// in\n    tag_11:\n      mload(0x40)\n      tag_13\n      swap2\n      swap1\n      tag_14\n      jump\t// in\n    tag_13:\n      mload(0x40)\n      dup1\n      swap2\n      sub\n      swap1\n      return\n        /* \"extends.sol\":84:102  string public user */\n    tag_4:\n      tag_15\n      tag_16\n      jump\t// in\n    tag_15:\n      mload(0x40)\n      tag_17\n      swap2\n      swap1\n      tag_18\n      jump\t// in\n    tag_17:\n      mload(0x40)\n      dup1\n      swap2\n      sub\n      swap1\n      return\n        /* \"extends.sol\":501:565  function setAge(uint8 _age) public {\r... */\n    tag_5:\n      tag_19\n      0x04\n      dup1\n      calldatasize\n      sub\n      dup2\n      add\n      swap1\n      tag_20\n      swap2\n      swap1\n      tag_21\n      jump\t// in\n    tag_20:\n      tag_22\n      jump\t// in\n    tag_19:\n      stop\n        /* \"extends.sol\":238:323  function getUser() public view returns (string memory) {\r... */\n    tag_6:\n      tag_23\n      tag_24\n      jump\t// in\n    tag_23:\n      mload(0x40)\n      tag_25\n      swap2\n      swap1\n      tag_18\n      jump\t// in\n    tag_25:\n      mload(0x40)\n      dup1\n      swap2\n      sub\n      swap1\n      return\n        /* \"extends.sol\":331:405  function getAge() public view returns (uint) {\r... */\n    tag_7:\n      tag_26\n      tag_27\n      jump\t// in\n    tag_26:\n      mload(0x40)\n      tag_28\n      swap2\n      swap1\n      tag_29\n      jump\t// in\n    tag_28:\n      mload(0x40)\n      dup1\n      swap2\n      sub\n      swap1\n      return\n        /* \"extends.sol\":613:705  function f1() public view returns (string memory,uint8) {\r... */\n    tag_8:\n      tag_30\n      tag_31\n      jump\t// in\n    tag_30:\n      mload(0x40)\n      tag_32\n      swap3\n      swap2\n      swap1\n      tag_33\n      jump\t// in\n    tag_32:\n      mload(0x40)\n      dup1\n      swap2\n      sub\n      swap1\n      return\n        /* \"extends.sol\":413:489  function setUser(string memory _user) public {\r... */\n    tag_9:\n      tag_34\n      0x04\n      dup1\n      calldatasize\n      sub\n      dup2\n      add\n      swap1\n      tag_35\n      swap2\n      swap1\n      tag_36\n      jump\t// in\n    tag_35:\n      tag_37\n      jump\t// in\n    tag_34:\n      stop\n        /* \"extends.sol\":109:125  uint8 public age */\n    tag_12:\n      0x01\n      0x00\n      swap1\n      sload\n      swap1\n      0x0100\n      exp\n      swap1\n      div\n      0xff\n      and\n      dup2\n      jump\t// out\n        /* \"extends.sol\":84:102  string public user */\n    tag_16:\n      0x00\n      dup1\n      sload\n      tag_38\n      swap1\n      tag_39\n      jump\t// in\n    tag_38:\n      dup1\n      0x1f\n      add\n      0x20\n      dup1\n      swap2\n      div\n      mul\n      0x20\n      add\n      mload(0x40)\n      swap1\n      dup2\n      add\n      0x40\n      mstore\n      dup1\n      swap3\n      swap2\n      swap1\n      dup2\n      dup2\n      mstore\n      0x20\n      add\n      dup3\n      dup1\n      sload\n      tag_40\n      swap1\n      tag_39\n      jump\t// in\n    tag_40:\n      dup1\n      iszero\n      tag_41\n      jumpi\n      dup1\n      0x1f\n      lt\n      tag_42\n      jumpi\n      0x0100\n      dup1\n      dup4\n      sload\n      div\n      mul\n      dup4\n      mstore\n      swap2\n      0x20\n      add\n      swap2\n      jump(tag_41)\n    tag_42:\n      dup3\n      add\n      swap2\n      swap1\n      0x00\n      mstore\n      keccak256(0x00, 0x20)\n      swap1\n    tag_43:\n      dup2\n      sload\n      dup2\n      mstore\n      swap1\n      0x01\n      add\n      swap1\n      0x20\n      add\n      dup1\n      dup4\n      gt\n      tag_43\n      jumpi\n      dup3\n      swap1\n      sub\n      0x1f\n      and\n      dup3\n      add\n      swap2\n    tag_41:\n      pop\n      pop\n      pop\n      pop\n      pop\n      dup2\n      jump\t// out\n        /* \"extends.sol\":501:565  function setAge(uint8 _age) public {\r... */\n    tag_22:\n        /* \"extends.sol\":553:557  _age */\n      dup1\n        /* \"extends.sol\":547:550  age */\n      0x01\n      0x00\n        /* \"extends.sol\":547:557  age = _age */\n      0x0100\n      exp\n      dup2\n      sload\n      dup2\n      0xff\n      mul\n      not\n      and\n      swap1\n      dup4\n      0xff\n      and\n      mul\n      or\n      swap1\n      sstore\n      pop\n        /* \"extends.sol\":501:565  function setAge(uint8 _age) public {\r... */\n      pop\n      jump\t// out\n        /* \"extends.sol\":238:323  function getUser() public view returns (string memory) {\r... */\n    tag_24:\n        /* \"extends.sol\":278:291  string memory */\n      0x60\n        /* \"extends.sol\":311:315  user */\n      0x00\n        /* \"extends.sol\":304:315  return user */\n      dup1\n      sload\n      tag_46\n      swap1\n      tag_39\n      jump\t// in\n    tag_46:\n      dup1\n      0x1f\n      add\n      0x20\n      dup1\n      swap2\n      div\n      mul\n      0x20\n      add\n      mload(0x40)\n      swap1\n      dup2\n      add\n      0x40\n      mstore\n      dup1\n      swap3\n      swap2\n      swap1\n      dup2\n      dup2\n      mstore\n      0x20\n      add\n      dup3\n      dup1\n      sload\n      tag_47\n      swap1\n      tag_39\n      jump\t// in\n    tag_47:\n      dup1\n      iszero\n      tag_48\n      jumpi\n      dup1\n      0x1f\n      lt\n      tag_49\n      jumpi\n      0x0100\n      dup1\n      dup4\n      sload\n      div\n      mul\n      dup4\n      mstore\n      swap2\n      0x20\n      add\n      swap2\n      jump(tag_48)\n    tag_49:\n      dup3\n      add\n      swap2\n      swap1\n      0x00\n      mstore\n      keccak256(0x00, 0x20)\n      swap1\n    tag_50:\n      dup2\n      sload\n      dup2\n      mstore\n      swap1\n      0x01\n      add\n      swap1\n      0x20\n      add\n      dup1\n      dup4\n      gt\n      tag_50\n      jumpi\n      dup3\n      swap1\n      sub\n      0x1f\n      and\n      dup3\n      add\n      swap2\n    tag_48:\n      pop\n      pop\n      pop\n      pop\n      pop\n      swap1\n      pop\n        /* \"extends.sol\":238:323  function getUser() public view returns (string memory) {\r... */\n      swap1\n      jump\t// out\n        /* \"extends.sol\":331:405  function getAge() public view returns (uint) {\r... */\n    tag_27:\n        /* \"extends.sol\":370:374  uint */\n      0x00\n        /* \"extends.sol\":394:397  age */\n      0x01\n      0x00\n      swap1\n      sload\n      swap1\n      0x0100\n      exp\n      swap1\n      div\n      0xff\n      and\n        /* \"extends.sol\":387:397  return age */\n      0xff\n      and\n      swap1\n      pop\n        /* \"extends.sol\":331:405  function getAge() public view returns (uint) {\r... */\n      swap1\n      jump\t// out\n        /* \"extends.sol\":613:705  function f1() public view returns (string memory,uint8) {\r... */\n    tag_31:\n        /* \"extends.sol\":648:661  string memory */\n      0x60\n        /* \"extends.sol\":662:667  uint8 */\n      0x00\n        /* \"extends.sol\":688:692  user */\n      dup1\n        /* \"extends.sol\":693:696  age */\n      0x01\n      0x00\n      swap1\n      sload\n      swap1\n      0x0100\n      exp\n      swap1\n      div\n      0xff\n      and\n        /* \"extends.sol\":680:697  return (user,age) */\n      dup2\n      dup1\n      sload\n      tag_53\n      swap1\n      tag_39\n      jump\t// in\n    tag_53:\n      dup1\n      0x1f\n      add\n      0x20\n      dup1\n      swap2\n      div\n      mul\n      0x20\n      add\n      mload(0x40)\n      swap1\n      dup2\n      add\n      0x40\n      mstore\n      dup1\n      swap3\n      swap2\n      swap1\n      dup2\n      dup2\n      mstore\n      0x20\n      add\n      dup3\n      dup1\n      sload\n      tag_54\n      swap1\n      tag_39\n      jump\t// in\n    tag_54:\n      dup1\n      iszero\n      tag_55\n      jumpi\n      dup1\n      0x1f\n      lt\n      tag_56\n      jumpi\n      0x0100\n      dup1\n      dup4\n      sload\n      div\n      mul\n      dup4\n      mstore\n      swap2\n      0x20\n      add\n      swap2\n      jump(tag_55)\n    tag_56:\n      dup3\n      add\n      swap2\n      swap1\n      0x00\n      mstore\n      keccak256(0x00, 0x20)\n      swap1\n    tag_57:\n      dup2\n      sload\n      dup2\n      mstore\n      swap1\n      0x01\n      add\n      swap1\n      0x20\n      add\n      dup1\n      dup4\n      gt\n      tag_57\n      jumpi\n      dup3\n      swap1\n      sub\n      0x1f\n      and\n      dup3\n      add\n      swap2\n    tag_55:\n      pop\n      pop\n      pop\n      pop\n      pop\n      swap2\n      pop\n      swap2\n      pop\n      swap2\n      pop\n        /* \"extends.sol\":613:705  function f1() public view returns (string memory,uint8) {\r... */\n      swap1\n      swap2\n      jump\t// out\n        /* \"extends.sol\":413:489  function setUser(string memory _user) public {\r... */\n    tag_37:\n        /* \"extends.sol\":476:481  _user */\n      dup1\n        /* \"extends.sol\":469:473  user */\n      0x00\n        /* \"extends.sol\":469:481  user = _user */\n      swap1\n      dup1\n      mload\n      swap1\n      0x20\n      add\n      swap1\n      tag_59\n      swap3\n      swap2\n      swap1\n      tag_60\n      jump\t// in\n    tag_59:\n      pop\n        /* \"extends.sol\":413:489  function setUser(string memory _user) public {\r... */\n      pop\n      jump\t// out\n    tag_60:\n      dup3\n      dup1\n      sload\n      tag_61\n      swap1\n      tag_39\n      jump\t// in\n    tag_61:\n      swap1\n      0x00\n      mstore\n      keccak256(0x00, 0x20)\n      swap1\n      0x1f\n      add\n      0x20\n      swap1\n      div\n      dup2\n      add\n      swap3\n      dup3\n      tag_63\n      jumpi\n      0x00\n      dup6\n      sstore\n      jump(tag_62)\n    tag_63:\n      dup3\n      0x1f\n      lt\n      tag_64\n      jumpi\n      dup1\n      mload\n      not(0xff)\n      and\n      dup4\n      dup1\n      add\n      or\n      dup6\n      sstore\n      jump(tag_62)\n    tag_64:\n      dup3\n      dup1\n      add\n      0x01\n      add\n      dup6\n      sstore\n      dup3\n      iszero\n      tag_62\n      jumpi\n      swap2\n      dup3\n      add\n    tag_65:\n      dup3\n      dup2\n      gt\n      iszero\n      tag_66\n      jumpi\n      dup3\n      mload\n      dup3\n      sstore\n      swap2\n      0x20\n      add\n      swap2\n      swap1\n      0x01\n      add\n      swap1\n      jump(tag_65)\n    tag_66:\n    tag_62:\n      pop\n      swap1\n      pop\n      tag_67\n      swap2\n      swap1\n      tag_68\n      jump\t// in\n    tag_67:\n      pop\n      swap1\n      jump\t// out\n    tag_68:\n    tag_69:\n      dup1\n      dup3\n      gt\n      iszero\n      tag_70\n      jumpi\n      0x00\n      dup2\n      0x00\n      swap1\n      sstore\n      pop\n      0x01\n      add\n      jump(tag_69)\n    tag_70:\n      pop\n      swap1\n      jump\t// out\n        /* \"#utility.yul\":7:419   */\n    tag_72:\n        /* \"#utility.yul\":85:90   */\n      0x00\n        /* \"#utility.yul\":110:176   */\n      tag_74\n        /* \"#utility.yul\":126:175   */\n      tag_75\n        /* \"#utility.yul\":168:174   */\n      dup5\n        /* \"#utility.yul\":126:175   */\n      tag_76\n      jump\t// in\n    tag_75:\n        /* \"#utility.yul\":110:176   */\n      tag_77\n      jump\t// in\n    tag_74:\n        /* \"#utility.yul\":101:176   */\n      swap1\n      pop\n        /* \"#utility.yul\":199:205   */\n      dup3\n        /* \"#utility.yul\":192:197   */\n      dup2\n        /* \"#utility.yul\":185:206   */\n      mstore\n        /* \"#utility.yul\":237:241   */\n      0x20\n        /* \"#utility.yul\":230:235   */\n      dup2\n        /* \"#utility.yul\":226:242   */\n      add\n        /* \"#utility.yul\":275:278   */\n      dup5\n        /* \"#utility.yul\":266:272   */\n      dup5\n        /* \"#utility.yul\":261:264   */\n      dup5\n        /* \"#utility.yul\":257:273   */\n      add\n        /* \"#utility.yul\":254:279   */\n      gt\n        /* \"#utility.yul\":251:363   */\n      iszero\n      tag_78\n      jumpi\n        /* \"#utility.yul\":282:361   */\n      tag_79\n      tag_80\n      jump\t// in\n    tag_79:\n        /* \"#utility.yul\":251:363   */\n    tag_78:\n        /* \"#utility.yul\":372:413   */\n      tag_81\n        /* \"#utility.yul\":406:412   */\n      dup5\n        /* \"#utility.yul\":401:404   */\n      dup3\n        /* \"#utility.yul\":396:399   */\n      dup6\n        /* \"#utility.yul\":372:413   */\n      tag_82\n      jump\t// in\n    tag_81:\n        /* \"#utility.yul\":91:419   */\n      pop\n        /* \"#utility.yul\":7:419   */\n      swap4\n      swap3\n      pop\n      pop\n      pop\n      jump\t// out\n        /* \"#utility.yul\":439:779   */\n    tag_83:\n        /* \"#utility.yul\":495:500   */\n      0x00\n        /* \"#utility.yul\":544:547   */\n      dup3\n        /* \"#utility.yul\":537:541   */\n      0x1f\n        /* \"#utility.yul\":529:535   */\n      dup4\n        /* \"#utility.yul\":525:542   */\n      add\n        /* \"#utility.yul\":521:548   */\n      slt\n        /* \"#utility.yul\":511:633   */\n      tag_85\n      jumpi\n        /* \"#utility.yul\":552:631   */\n      tag_86\n      tag_87\n      jump\t// in\n    tag_86:\n        /* \"#utility.yul\":511:633   */\n    tag_85:\n        /* \"#utility.yul\":669:675   */\n      dup2\n        /* \"#utility.yul\":656:676   */\n      calldataload\n        /* \"#utility.yul\":694:773   */\n      tag_88\n        /* \"#utility.yul\":769:772   */\n      dup5\n        /* \"#utility.yul\":761:767   */\n      dup3\n        /* \"#utility.yul\":754:758   */\n      0x20\n        /* \"#utility.yul\":746:752   */\n      dup7\n        /* \"#utility.yul\":742:759   */\n      add\n        /* \"#utility.yul\":694:773   */\n      tag_72\n      jump\t// in\n    tag_88:\n        /* \"#utility.yul\":685:773   */\n      swap2\n      pop\n        /* \"#utility.yul\":501:779   */\n      pop\n        /* \"#utility.yul\":439:779   */\n      swap3\n      swap2\n      pop\n      pop\n      jump\t// out\n        /* \"#utility.yul\":785:920   */\n    tag_89:\n        /* \"#utility.yul\":829:834   */\n      0x00\n        /* \"#utility.yul\":867:873   */\n      dup2\n        /* \"#utility.yul\":854:874   */\n      calldataload\n        /* \"#utility.yul\":845:874   */\n      swap1\n      pop\n        /* \"#utility.yul\":883:914   */\n      tag_91\n        /* \"#utility.yul\":908:913   */\n      dup2\n        /* \"#utility.yul\":883:914   */\n      tag_92\n      jump\t// in\n    tag_91:\n        /* \"#utility.yul\":785:920   */\n      swap3\n      swap2\n      pop\n      pop\n      jump\t// out\n        /* \"#utility.yul\":926:1435   */\n    tag_36:\n        /* \"#utility.yul\":995:1001   */\n      0x00\n        /* \"#utility.yul\":1044:1046   */\n      0x20\n        /* \"#utility.yul\":1032:1041   */\n      dup3\n        /* \"#utility.yul\":1023:1030   */\n      dup5\n        /* \"#utility.yul\":1019:1042   */\n      sub\n        /* \"#utility.yul\":1015:1047   */\n      slt\n        /* \"#utility.yul\":1012:1131   */\n      iszero\n      tag_94\n      jumpi\n        /* \"#utility.yul\":1050:1129   */\n      tag_95\n      tag_96\n      jump\t// in\n    tag_95:\n        /* \"#utility.yul\":1012:1131   */\n    tag_94:\n        /* \"#utility.yul\":1198:1199   */\n      0x00\n        /* \"#utility.yul\":1187:1196   */\n      dup3\n        /* \"#utility.yul\":1183:1200   */\n      add\n        /* \"#utility.yul\":1170:1201   */\n      calldataload\n        /* \"#utility.yul\":1228:1246   */\n      0xffffffffffffffff\n        /* \"#utility.yul\":1220:1226   */\n      dup2\n        /* \"#utility.yul\":1217:1247   */\n      gt\n        /* \"#utility.yul\":1214:1331   */\n      iszero\n      tag_97\n      jumpi\n        /* \"#utility.yul\":1250:1329   */\n      tag_98\n      tag_99\n      jump\t// in\n    tag_98:\n        /* \"#utility.yul\":1214:1331   */\n    tag_97:\n        /* \"#utility.yul\":1355:1418   */\n      tag_100\n        /* \"#utility.yul\":1410:1417   */\n      dup5\n        /* \"#utility.yul\":1401:1407   */\n      dup3\n        /* \"#utility.yul\":1390:1399   */\n      dup6\n        /* \"#utility.yul\":1386:1408   */\n      add\n        /* \"#utility.yul\":1355:1418   */\n      tag_83\n      jump\t// in\n    tag_100:\n        /* \"#utility.yul\":1345:1418   */\n      swap2\n      pop\n        /* \"#utility.yul\":1141:1428   */\n      pop\n        /* \"#utility.yul\":926:1435   */\n      swap3\n      swap2\n      pop\n      pop\n      jump\t// out\n        /* \"#utility.yul\":1441:1766   */\n    tag_21:\n        /* \"#utility.yul\":1498:1504   */\n      0x00\n        /* \"#utility.yul\":1547:1549   */\n      0x20\n        /* \"#utility.yul\":1535:1544   */\n      dup3\n        /* \"#utility.yul\":1526:1533   */\n      dup5\n        /* \"#utility.yul\":1522:1545   */\n      sub\n        /* \"#utility.yul\":1518:1550   */\n      slt\n        /* \"#utility.yul\":1515:1634   */\n      iszero\n      tag_102\n      jumpi\n        /* \"#utility.yul\":1553:1632   */\n      tag_103\n      tag_96\n      jump\t// in\n    tag_103:\n        /* \"#utility.yul\":1515:1634   */\n    tag_102:\n        /* \"#utility.yul\":1673:1674   */\n      0x00\n        /* \"#utility.yul\":1698:1749   */\n      tag_104\n        /* \"#utility.yul\":1741:1748   */\n      dup5\n        /* \"#utility.yul\":1732:1738   */\n      dup3\n        /* \"#utility.yul\":1721:1730   */\n      dup6\n        /* \"#utility.yul\":1717:1739   */\n      add\n        /* \"#utility.yul\":1698:1749   */\n      tag_89\n      jump\t// in\n    tag_104:\n        /* \"#utility.yul\":1688:1749   */\n      swap2\n      pop\n        /* \"#utility.yul\":1644:1759   */\n      pop\n        /* \"#utility.yul\":1441:1766   */\n      swap3\n      swap2\n      pop\n      pop\n      jump\t// out\n        /* \"#utility.yul\":1772:2136   */\n    tag_105:\n        /* \"#utility.yul\":1860:1863   */\n      0x00\n        /* \"#utility.yul\":1888:1927   */\n      tag_107\n        /* \"#utility.yul\":1921:1926   */\n      dup3\n        /* \"#utility.yul\":1888:1927   */\n      tag_108\n      jump\t// in\n    tag_107:\n        /* \"#utility.yul\":1943:2014   */\n      tag_109\n        /* \"#utility.yul\":2007:2013   */\n      dup2\n        /* \"#utility.yul\":2002:2005   */\n      dup6\n        /* \"#utility.yul\":1943:2014   */\n      tag_110\n      jump\t// in\n    tag_109:\n        /* \"#utility.yul\":1936:2014   */\n      swap4\n      pop\n        /* \"#utility.yul\":2023:2075   */\n      tag_111\n        /* \"#utility.yul\":2068:2074   */\n      dup2\n        /* \"#utility.yul\":2063:2066   */\n      dup6\n        /* \"#utility.yul\":2056:2060   */\n      0x20\n        /* \"#utility.yul\":2049:2054   */\n      dup7\n        /* \"#utility.yul\":2045:2061   */\n      add\n        /* \"#utility.yul\":2023:2075   */\n      tag_112\n      jump\t// in\n    tag_111:\n        /* \"#utility.yul\":2100:2129   */\n      tag_113\n        /* \"#utility.yul\":2122:2128   */\n      dup2\n        /* \"#utility.yul\":2100:2129   */\n      tag_114\n      jump\t// in\n    tag_113:\n        /* \"#utility.yul\":2095:2098   */\n      dup5\n        /* \"#utility.yul\":2091:2130   */\n      add\n        /* \"#utility.yul\":2084:2130   */\n      swap2\n      pop\n        /* \"#utility.yul\":1864:2136   */\n      pop\n        /* \"#utility.yul\":1772:2136   */\n      swap3\n      swap2\n      pop\n      pop\n      jump\t// out\n        /* \"#utility.yul\":2142:2260   */\n    tag_115:\n        /* \"#utility.yul\":2229:2253   */\n      tag_117\n        /* \"#utility.yul\":2247:2252   */\n      dup2\n        /* \"#utility.yul\":2229:2253   */\n      tag_118\n      jump\t// in\n    tag_117:\n        /* \"#utility.yul\":2224:2227   */\n      dup3\n        /* \"#utility.yul\":2217:2254   */\n      mstore\n        /* \"#utility.yul\":2142:2260   */\n      pop\n      pop\n      jump\t// out\n        /* \"#utility.yul\":2266:2378   */\n    tag_119:\n        /* \"#utility.yul\":2349:2371   */\n      tag_121\n        /* \"#utility.yul\":2365:2370   */\n      dup2\n        /* \"#utility.yul\":2349:2371   */\n      tag_122\n      jump\t// in\n    tag_121:\n        /* \"#utility.yul\":2344:2347   */\n      dup3\n        /* \"#utility.yul\":2337:2372   */\n      mstore\n        /* \"#utility.yul\":2266:2378   */\n      pop\n      pop\n      jump\t// out\n        /* \"#utility.yul\":2384:2697   */\n    tag_18:\n        /* \"#utility.yul\":2497:2501   */\n      0x00\n        /* \"#utility.yul\":2535:2537   */\n      0x20\n        /* \"#utility.yul\":2524:2533   */\n      dup3\n        /* \"#utility.yul\":2520:2538   */\n      add\n        /* \"#utility.yul\":2512:2538   */\n      swap1\n      pop\n        /* \"#utility.yul\":2584:2593   */\n      dup2\n        /* \"#utility.yul\":2578:2582   */\n      dup2\n        /* \"#utility.yul\":2574:2594   */\n      sub\n        /* \"#utility.yul\":2570:2571   */\n      0x00\n        /* \"#utility.yul\":2559:2568   */\n      dup4\n        /* \"#utility.yul\":2555:2572   */\n      add\n        /* \"#utility.yul\":2548:2595   */\n      mstore\n        /* \"#utility.yul\":2612:2690   */\n      tag_124\n        /* \"#utility.yul\":2685:2689   */\n      dup2\n        /* \"#utility.yul\":2676:2682   */\n      dup5\n        /* \"#utility.yul\":2612:2690   */\n      tag_105\n      jump\t// in\n    tag_124:\n        /* \"#utility.yul\":2604:2690   */\n      swap1\n      pop\n        /* \"#utility.yul\":2384:2697   */\n      swap3\n      swap2\n      pop\n      pop\n      jump\t// out\n        /* \"#utility.yul\":2703:3118   */\n    tag_33:\n        /* \"#utility.yul\":2840:2844   */\n      0x00\n        /* \"#utility.yul\":2878:2880   */\n      0x40\n        /* \"#utility.yul\":2867:2876   */\n      dup3\n        /* \"#utility.yul\":2863:2881   */\n      add\n        /* \"#utility.yul\":2855:2881   */\n      swap1\n      pop\n        /* \"#utility.yul\":2927:2936   */\n      dup2\n        /* \"#utility.yul\":2921:2925   */\n      dup2\n        /* \"#utility.yul\":2917:2937   */\n      sub\n        /* \"#utility.yul\":2913:2914   */\n      0x00\n        /* \"#utility.yul\":2902:2911   */\n      dup4\n        /* \"#utility.yul\":2898:2915   */\n      add\n        /* \"#utility.yul\":2891:2938   */\n      mstore\n        /* \"#utility.yul\":2955:3033   */\n      tag_126\n        /* \"#utility.yul\":3028:3032   */\n      dup2\n        /* \"#utility.yul\":3019:3025   */\n      dup6\n        /* \"#utility.yul\":2955:3033   */\n      tag_105\n      jump\t// in\n    tag_126:\n        /* \"#utility.yul\":2947:3033   */\n      swap1\n      pop\n        /* \"#utility.yul\":3043:3111   */\n      tag_127\n        /* \"#utility.yul\":3107:3109   */\n      0x20\n        /* \"#utility.yul\":3096:3105   */\n      dup4\n        /* \"#utility.yul\":3092:3110   */\n      add\n        /* \"#utility.yul\":3083:3089   */\n      dup5\n        /* \"#utility.yul\":3043:3111   */\n      tag_119\n      jump\t// in\n    tag_127:\n        /* \"#utility.yul\":2703:3118   */\n      swap4\n      swap3\n      pop\n      pop\n      pop\n      jump\t// out\n        /* \"#utility.yul\":3124:3346   */\n    tag_29:\n        /* \"#utility.yul\":3217:3221   */\n      0x00\n        /* \"#utility.yul\":3255:3257   */\n      0x20\n        /* \"#utility.yul\":3244:3253   */\n      dup3\n        /* \"#utility.yul\":3240:3258   */\n      add\n        /* \"#utility.yul\":3232:3258   */\n      swap1\n      pop\n        /* \"#utility.yul\":3268:3339   */\n      tag_129\n        /* \"#utility.yul\":3336:3337   */\n      0x00\n        /* \"#utility.yul\":3325:3334   */\n      dup4\n        /* \"#utility.yul\":3321:3338   */\n      add\n        /* \"#utility.yul\":3312:3318   */\n      dup5\n        /* \"#utility.yul\":3268:3339   */\n      tag_115\n      jump\t// in\n    tag_129:\n        /* \"#utility.yul\":3124:3346   */\n      swap3\n      swap2\n      pop\n      pop\n      jump\t// out\n        /* \"#utility.yul\":3352:3566   */\n    tag_14:\n        /* \"#utility.yul\":3441:3445   */\n      0x00\n        /* \"#utility.yul\":3479:3481   */\n      0x20\n        /* \"#utility.yul\":3468:3477   */\n      dup3\n        /* \"#utility.yul\":3464:3482   */\n      add\n        /* \"#utility.yul\":3456:3482   */\n      swap1\n      pop\n        /* \"#utility.yul\":3492:3559   */\n      tag_131\n        /* \"#utility.yul\":3556:3557   */\n      0x00\n        /* \"#utility.yul\":3545:3554   */\n      dup4\n        /* \"#utility.yul\":3541:3558   */\n      add\n        /* \"#utility.yul\":3532:3538   */\n      dup5\n        /* \"#utility.yul\":3492:3559   */\n      tag_119\n      jump\t// in\n    tag_131:\n        /* \"#utility.yul\":3352:3566   */\n      swap3\n      swap2\n      pop\n      pop\n      jump\t// out\n        /* \"#utility.yul\":3572:3701   */\n    tag_77:\n        /* \"#utility.yul\":3606:3612   */\n      0x00\n        /* \"#utility.yul\":3633:3653   */\n      tag_133\n      tag_134\n      jump\t// in\n    tag_133:\n        /* \"#utility.yul\":3623:3653   */\n      swap1\n      pop\n        /* \"#utility.yul\":3662:3695   */\n      tag_135\n        /* \"#utility.yul\":3690:3694   */\n      dup3\n        /* \"#utility.yul\":3682:3688   */\n      dup3\n        /* \"#utility.yul\":3662:3695   */\n      tag_136\n      jump\t// in\n    tag_135:\n        /* \"#utility.yul\":3572:3701   */\n      swap2\n      swap1\n      pop\n      jump\t// out\n        /* \"#utility.yul\":3707:3782   */\n    tag_134:\n        /* \"#utility.yul\":3740:3746   */\n      0x00\n        /* \"#utility.yul\":3773:3775   */\n      0x40\n        /* \"#utility.yul\":3767:3776   */\n      mload\n        /* \"#utility.yul\":3757:3776   */\n      swap1\n      pop\n        /* \"#utility.yul\":3707:3782   */\n      swap1\n      jump\t// out\n        /* \"#utility.yul\":3788:4096   */\n    tag_76:\n        /* \"#utility.yul\":3850:3854   */\n      0x00\n        /* \"#utility.yul\":3940:3958   */\n      0xffffffffffffffff\n        /* \"#utility.yul\":3932:3938   */\n      dup3\n        /* \"#utility.yul\":3929:3959   */\n      gt\n        /* \"#utility.yul\":3926:3982   */\n      iszero\n      tag_139\n      jumpi\n        /* \"#utility.yul\":3962:3980   */\n      tag_140\n      tag_141\n      jump\t// in\n    tag_140:\n        /* \"#utility.yul\":3926:3982   */\n    tag_139:\n        /* \"#utility.yul\":4000:4029   */\n      tag_142\n        /* \"#utility.yul\":4022:4028   */\n      dup3\n        /* \"#utility.yul\":4000:4029   */\n      tag_114\n      jump\t// in\n    tag_142:\n        /* \"#utility.yul\":3992:4029   */\n      swap1\n      pop\n        /* \"#utility.yul\":4084:4088   */\n      0x20\n        /* \"#utility.yul\":4078:4082   */\n      dup2\n        /* \"#utility.yul\":4074:4089   */\n      add\n        /* \"#utility.yul\":4066:4089   */\n      swap1\n      pop\n        /* \"#utility.yul\":3788:4096   */\n      swap2\n      swap1\n      pop\n      jump\t// out\n        /* \"#utility.yul\":4102:4201   */\n    tag_108:\n        /* \"#utility.yul\":4154:4160   */\n      0x00\n        /* \"#utility.yul\":4188:4193   */\n      dup2\n        /* \"#utility.yul\":4182:4194   */\n      mload\n        /* \"#utility.yul\":4172:4194   */\n      swap1\n      pop\n        /* \"#utility.yul\":4102:4201   */\n      swap2\n      swap1\n      pop\n      jump\t// out\n        /* \"#utility.yul\":4207:4376   */\n    tag_110:\n        /* \"#utility.yul\":4291:4302   */\n      0x00\n        /* \"#utility.yul\":4325:4331   */\n      dup3\n        /* \"#utility.yul\":4320:4323   */\n      dup3\n        /* \"#utility.yul\":4313:4332   */\n      mstore\n        /* \"#utility.yul\":4365:4369   */\n      0x20\n        /* \"#utility.yul\":4360:4363   */\n      dup3\n        /* \"#utility.yul\":4356:4370   */\n      add\n        /* \"#utility.yul\":4341:4370   */\n      swap1\n      pop\n        /* \"#utility.yul\":4207:4376   */\n      swap3\n      swap2\n      pop\n      pop\n      jump\t// out\n        /* \"#utility.yul\":4382:4459   */\n    tag_118:\n        /* \"#utility.yul\":4419:4426   */\n      0x00\n        /* \"#utility.yul\":4448:4453   */\n      dup2\n        /* \"#utility.yul\":4437:4453   */\n      swap1\n      pop\n        /* \"#utility.yul\":4382:4459   */\n      swap2\n      swap1\n      pop\n      jump\t// out\n        /* \"#utility.yul\":4465:4551   */\n    tag_122:\n        /* \"#utility.yul\":4500:4507   */\n      0x00\n        /* \"#utility.yul\":4540:4544   */\n      0xff\n        /* \"#utility.yul\":4533:4538   */\n      dup3\n        /* \"#utility.yul\":4529:4545   */\n      and\n        /* \"#utility.yul\":4518:4545   */\n      swap1\n      pop\n        /* \"#utility.yul\":4465:4551   */\n      swap2\n      swap1\n      pop\n      jump\t// out\n        /* \"#utility.yul\":4557:4711   */\n    tag_82:\n        /* \"#utility.yul\":4641:4647   */\n      dup3\n        /* \"#utility.yul\":4636:4639   */\n      dup2\n        /* \"#utility.yul\":4631:4634   */\n      dup4\n        /* \"#utility.yul\":4618:4648   */\n      calldatacopy\n        /* \"#utility.yul\":4703:4704   */\n      0x00\n        /* \"#utility.yul\":4694:4700   */\n      dup4\n        /* \"#utility.yul\":4689:4692   */\n      dup4\n        /* \"#utility.yul\":4685:4701   */\n      add\n        /* \"#utility.yul\":4678:4705   */\n      mstore\n        /* \"#utility.yul\":4557:4711   */\n      pop\n      pop\n      pop\n      jump\t// out\n        /* \"#utility.yul\":4717:5024   */\n    tag_112:\n        /* \"#utility.yul\":4785:4786   */\n      0x00\n        /* \"#utility.yul\":4795:4908   */\n    tag_149:\n        /* \"#utility.yul\":4809:4815   */\n      dup4\n        /* \"#utility.yul\":4806:4807   */\n      dup2\n        /* \"#utility.yul\":4803:4816   */\n      lt\n        /* \"#utility.yul\":4795:4908   */\n      iszero\n      tag_151\n      jumpi\n        /* \"#utility.yul\":4894:4895   */\n      dup1\n        /* \"#utility.yul\":4889:4892   */\n      dup3\n        /* \"#utility.yul\":4885:4896   */\n      add\n        /* \"#utility.yul\":4879:4897   */\n      mload\n        /* \"#utility.yul\":4875:4876   */\n      dup2\n        /* \"#utility.yul\":4870:4873   */\n      dup5\n        /* \"#utility.yul\":4866:4877   */\n      add\n        /* \"#utility.yul\":4859:4898   */\n      mstore\n        /* \"#utility.yul\":4831:4833   */\n      0x20\n        /* \"#utility.yul\":4828:4829   */\n      dup2\n        /* \"#utility.yul\":4824:4834   */\n      add\n        /* \"#utility.yul\":4819:4834   */\n      swap1\n      pop\n        /* \"#utility.yul\":4795:4908   */\n      jump(tag_149)\n    tag_151:\n        /* \"#utility.yul\":4926:4932   */\n      dup4\n        /* \"#utility.yul\":4923:4924   */\n      dup2\n        /* \"#utility.yul\":4920:4933   */\n      gt\n        /* \"#utility.yul\":4917:5018   */\n      iszero\n      tag_152\n      jumpi\n        /* \"#utility.yul\":5006:5007   */\n      0x00\n        /* \"#utility.yul\":4997:5003   */\n      dup5\n        /* \"#utility.yul\":4992:4995   */\n      dup5\n        /* \"#utility.yul\":4988:5004   */\n      add\n        /* \"#utility.yul\":4981:5008   */\n      mstore\n        /* \"#utility.yul\":4917:5018   */\n    tag_152:\n        /* \"#utility.yul\":4766:5024   */\n      pop\n        /* \"#utility.yul\":4717:5024   */\n      pop\n      pop\n      pop\n      jump\t// out\n        /* \"#utility.yul\":5030:5350   */\n    tag_39:\n        /* \"#utility.yul\":5074:5080   */\n      0x00\n        /* \"#utility.yul\":5111:5112   */\n      0x02\n        /* \"#utility.yul\":5105:5109   */\n      dup3\n        /* \"#utility.yul\":5101:5113   */\n      div\n        /* \"#utility.yul\":5091:5113   */\n      swap1\n      pop\n        /* \"#utility.yul\":5158:5159   */\n      0x01\n        /* \"#utility.yul\":5152:5156   */\n      dup3\n        /* \"#utility.yul\":5148:5160   */\n      and\n        /* \"#utility.yul\":5179:5197   */\n      dup1\n        /* \"#utility.yul\":5169:5250   */\n      tag_154\n      jumpi\n        /* \"#utility.yul\":5235:5239   */\n      0x7f\n        /* \"#utility.yul\":5227:5233   */\n      dup3\n        /* \"#utility.yul\":5223:5240   */\n      and\n        /* \"#utility.yul\":5213:5240   */\n      swap2\n      pop\n        /* \"#utility.yul\":5169:5250   */\n    tag_154:\n        /* \"#utility.yul\":5297:5299   */\n      0x20\n        /* \"#utility.yul\":5289:5295   */\n      dup3\n        /* \"#utility.yul\":5286:5300   */\n      lt\n        /* \"#utility.yul\":5266:5284   */\n      dup2\n        /* \"#utility.yul\":5263:5301   */\n      eq\n        /* \"#utility.yul\":5260:5344   */\n      iszero\n      tag_155\n      jumpi\n        /* \"#utility.yul\":5316:5334   */\n      tag_156\n      tag_157\n      jump\t// in\n    tag_156:\n        /* \"#utility.yul\":5260:5344   */\n    tag_155:\n        /* \"#utility.yul\":5081:5350   */\n      pop\n        /* \"#utility.yul\":5030:5350   */\n      swap2\n      swap1\n      pop\n      jump\t// out\n        /* \"#utility.yul\":5356:5637   */\n    tag_136:\n        /* \"#utility.yul\":5439:5466   */\n      tag_159\n        /* \"#utility.yul\":5461:5465   */\n      dup3\n        /* \"#utility.yul\":5439:5466   */\n      tag_114\n      jump\t// in\n    tag_159:\n        /* \"#utility.yul\":5431:5437   */\n      dup2\n        /* \"#utility.yul\":5427:5467   */\n      add\n        /* \"#utility.yul\":5569:5575   */\n      dup2\n        /* \"#utility.yul\":5557:5567   */\n      dup2\n        /* \"#utility.yul\":5554:5576   */\n      lt\n        /* \"#utility.yul\":5533:5551   */\n      0xffffffffffffffff\n        /* \"#utility.yul\":5521:5531   */\n      dup3\n        /* \"#utility.yul\":5518:5552   */\n      gt\n        /* \"#utility.yul\":5515:5577   */\n      or\n        /* \"#utility.yul\":5512:5600   */\n      iszero\n      tag_160\n      jumpi\n        /* \"#utility.yul\":5580:5598   */\n      tag_161\n      tag_141\n      jump\t// in\n    tag_161:\n        /* \"#utility.yul\":5512:5600   */\n    tag_160:\n        /* \"#utility.yul\":5620:5630   */\n      dup1\n        /* \"#utility.yul\":5616:5618   */\n      0x40\n        /* \"#utility.yul\":5609:5631   */\n      mstore\n        /* \"#utility.yul\":5399:5637   */\n      pop\n        /* \"#utility.yul\":5356:5637   */\n      pop\n      pop\n      jump\t// out\n        /* \"#utility.yul\":5643:5823   */\n    tag_157:\n        /* \"#utility.yul\":5691:5768   */\n      0x4e487b7100000000000000000000000000000000000000000000000000000000\n        /* \"#utility.yul\":5688:5689   */\n      0x00\n        /* \"#utility.yul\":5681:5769   */\n      mstore\n        /* \"#utility.yul\":5788:5792   */\n      0x22\n        /* \"#utility.yul\":5785:5786   */\n      0x04\n        /* \"#utility.yul\":5778:5793   */\n      mstore\n        /* \"#utility.yul\":5812:5816   */\n      0x24\n        /* \"#utility.yul\":5809:5810   */\n      0x00\n        /* \"#utility.yul\":5802:5817   */\n      revert\n        /* \"#utility.yul\":5829:6009   */\n    tag_141:\n        /* \"#utility.yul\":5877:5954   */\n      0x4e487b7100000000000000000000000000000000000000000000000000000000\n        /* \"#utility.yul\":5874:5875   */\n      0x00\n        /* \"#utility.yul\":5867:5955   */\n      mstore\n        /* \"#utility.yul\":5974:5978   */\n      0x41\n        /* \"#utility.yul\":5971:5972   */\n      0x04\n        /* \"#utility.yul\":5964:5979   */\n      mstore\n        /* \"#utility.yul\":5998:6002   */\n      0x24\n        /* \"#utility.yul\":5995:5996   */\n      0x00\n        /* \"#utility.yul\":5988:6003   */\n      revert\n        /* \"#utility.yul\":6015:6132   */\n    tag_87:\n        /* \"#utility.yul\":6124:6125   */\n      0x00\n        /* \"#utility.yul\":6121:6122   */\n      dup1\n        /* \"#utility.yul\":6114:6126   */\n      revert\n        /* \"#utility.yul\":6138:6255   */\n    tag_80:\n        /* \"#utility.yul\":6247:6248   */\n      0x00\n        /* \"#utility.yul\":6244:6245   */\n      dup1\n        /* \"#utility.yul\":6237:6249   */\n      revert\n        /* \"#utility.yul\":6261:6378   */\n    tag_99:\n        /* \"#utility.yul\":6370:6371   */\n      0x00\n        /* \"#utility.yul\":6367:6368   */\n      dup1\n        /* \"#utility.yul\":6360:6372   */\n      revert\n        /* \"#utility.yul\":6384:6501   */\n    tag_96:\n        /* \"#utility.yul\":6493:6494   */\n      0x00\n        /* \"#utility.yul\":6490:6491   */\n      dup1\n        /* \"#utility.yul\":6483:6495   */\n      revert\n        /* \"#utility.yul\":6507:6609   */\n    tag_114:\n        /* \"#utility.yul\":6548:6554   */\n      0x00\n        /* \"#utility.yul\":6599:6601   */\n      0x1f\n        /* \"#utility.yul\":6595:6602   */\n      not\n        /* \"#utility.yul\":6590:6592   */\n      0x1f\n        /* \"#utility.yul\":6583:6588   */\n      dup4\n        /* \"#utility.yul\":6579:6593   */\n      add\n        /* \"#utility.yul\":6575:6603   */\n      and\n        /* \"#utility.yul\":6565:6603   */\n      swap1\n      pop\n        /* \"#utility.yul\":6507:6609   */\n      swap2\n      swap1\n      pop\n      jump\t// out\n        /* \"#utility.yul\":6615:6733   */\n    tag_92:\n        /* \"#utility.yul\":6686:6708   */\n      tag_170\n        /* \"#utility.yul\":6702:6707   */\n      dup2\n        /* \"#utility.yul\":6686:6708   */\n      tag_122\n      jump\t// in\n    tag_170:\n        /* \"#utility.yul\":6679:6684   */\n      dup2\n        /* \"#utility.yul\":6676:6709   */\n      eq\n        /* \"#utility.yul\":6666:6727   */\n      tag_171\n      jumpi\n        /* \"#utility.yul\":6723:6724   */\n      0x00\n        /* \"#utility.yul\":6720:6721   */\n      dup1\n        /* \"#utility.yul\":6713:6725   */\n      revert\n        /* \"#utility.yul\":6666:6727   */\n    tag_171:\n        /* \"#utility.yul\":6615:6733   */\n      pop\n      jump\t// out\n\n    auxdata: 0xa26469706673582212204595c1ef4bad6ffdafe48d1489cc4db6f7be3a7415b63690e109a0c67eb2827664736f6c63430008070033\n}\n",
				"bytecode": {
					"linkReferences": {},
					"object": "608060405234801561001057600080fd5b506040518060400160405280600481526020017f626c756500000000000000000000000000000000000000000000000000000000815250601e816000908051906020019061005f929190610082565b5080600160006101000a81548160ff021916908360ff1602179055505050610186565b82805461008e90610125565b90600052602060002090601f0160209004810192826100b057600085556100f7565b82601f106100c957805160ff19168380011785556100f7565b828001600101855582156100f7579182015b828111156100f65782518255916020019190600101906100db565b5b5090506101049190610108565b5090565b5b80821115610121576000816000905550600101610109565b5090565b6000600282049050600182168061013d57607f821691505b6020821081141561015157610150610157565b5b50919050565b7f4e487b7100000000000000000000000000000000000000000000000000000000600052602260045260246000fd5b6107fa806101956000396000f3fe608060405234801561001057600080fd5b506004361061007d5760003560e01c8063832880e71161005b578063832880e7146100da578063967e6e65146100f8578063c27fc30514610116578063d0020fad146101355761007d565b8063262a9dff146100825780634f8632ba146100a05780635b0c8d70146100be575b600080fd5b61008a610151565b60405161009791906105e1565b60405180910390f35b6100a8610164565b6040516100b59190610574565b60405180910390f35b6100d860048036038101906100d391906104f0565b6101f2565b005b6100e2610210565b6040516100ef9190610574565b60405180910390f35b6101006102a2565b60405161010d91906105c6565b60405180910390f35b61011e6102bc565b60405161012c929190610596565b60405180910390f35b61014f600480360381019061014a91906104a7565b610365565b005b600160009054906101000a900460ff1681565b60008054610171906106c7565b80601f016020809104026020016040519081016040528092919081815260200182805461019d906106c7565b80156101ea5780601f106101bf576101008083540402835291602001916101ea565b820191906000526020600020905b8154815290600101906020018083116101cd57829003601f168201915b505050505081565b80600160006101000a81548160ff021916908360ff16021790555050565b60606000805461021f906106c7565b80601f016020809104026020016040519081016040528092919081815260200182805461024b906106c7565b80156102985780601f1061026d57610100808354040283529160200191610298565b820191906000526020600020905b81548152906001019060200180831161027b57829003601f168201915b5050505050905090565b6000600160009054906101000a900460ff1660ff16905090565b6060600080600160009054906101000a900460ff168180546102dd906106c7565b80601f0160208091040260200160405190810160405280929190818152602001828054610309906106c7565b80156103565780601f1061032b57610100808354040283529160200191610356565b820191906000526020600020905b81548152906001019060200180831161033957829003601f168201915b50505050509150915091509091565b806000908051906020019061037b92919061037f565b5050565b82805461038b906106c7565b90600052602060002090601f0160209004810192826103ad57600085556103f4565b82601f106103c657805160ff19168380011785556103f4565b828001600101855582156103f4579182015b828111156103f35782518255916020019190600101906103d8565b5b5090506104019190610405565b5090565b5b8082111561041e576000816000905550600101610406565b5090565b600061043561043084610621565b6105fc565b9050828152602081018484840111156104515761045061078d565b5b61045c848285610685565b509392505050565b600082601f83011261047957610478610788565b5b8135610489848260208601610422565b91505092915050565b6000813590506104a1816107ad565b92915050565b6000602082840312156104bd576104bc610797565b5b600082013567ffffffffffffffff8111156104db576104da610792565b5b6104e784828501610464565b91505092915050565b60006020828403121561050657610505610797565b5b600061051484828501610492565b91505092915050565b600061052882610652565b610532818561065d565b9350610542818560208601610694565b61054b8161079c565b840191505092915050565b61055f8161066e565b82525050565b61056e81610678565b82525050565b6000602082019050818103600083015261058e818461051d565b905092915050565b600060408201905081810360008301526105b0818561051d565b90506105bf6020830184610565565b9392505050565b60006020820190506105db6000830184610556565b92915050565b60006020820190506105f66000830184610565565b92915050565b6000610606610617565b905061061282826106f9565b919050565b6000604051905090565b600067ffffffffffffffff82111561063c5761063b610759565b5b6106458261079c565b9050602081019050919050565b600081519050919050565b600082825260208201905092915050565b6000819050919050565b600060ff82169050919050565b82818337600083830152505050565b60005b838110156106b2578082015181840152602081019050610697565b838111156106c1576000848401525b50505050565b600060028204905060018216806106df57607f821691505b602082108114156106f3576106f261072a565b5b50919050565b6107028261079c565b810181811067ffffffffffffffff8211171561072157610720610759565b5b80604052505050565b7f4e487b7100000000000000000000000000000000000000000000000000000000600052602260045260246000fd5b7f4e487b7100000000000000000000000000000000000000000000000000000000600052604160045260246000fd5b600080fd5b600080fd5b600080fd5b600080fd5b6000601f19601f8301169050919050565b6107b681610678565b81146107c157600080fd5b5056fea26469706673582212204595c1ef4bad6ffdafe48d1489cc4db6f7be3a7415b63690e109a0c67eb2827664736f6c63430008070033",
					"opcodes": "PUSH1 0x80 PUSH1 0x40 MSTORE CALLVALUE DUP1 ISZERO PUSH2 0x10 JUMPI PUSH1 0x0 DUP1 REVERT JUMPDEST POP PUSH1 0x40 MLOAD DUP1 PUSH1 0x40 ADD PUSH1 0x40 MSTORE DUP1 PUSH1 0x4 DUP2 MSTORE PUSH1 0x20 ADD PUSH32 0x626C756500000000000000000000000000000000000000000000000000000000 DUP2 MSTORE POP PUSH1 0x1E DUP2 PUSH1 0x0 SWAP1 DUP1 MLOAD SWAP1 PUSH1 0x20 ADD SWAP1 PUSH2 0x5F SWAP3 SWAP2 SWAP1 PUSH2 0x82 JUMP JUMPDEST POP DUP1 PUSH1 0x1 PUSH1 0x0 PUSH2 0x100 EXP DUP2 SLOAD DUP2 PUSH1 0xFF MUL NOT AND SWAP1 DUP4 PUSH1 0xFF AND MUL OR SWAP1 SSTORE POP POP POP PUSH2 0x186 JUMP JUMPDEST DUP3 DUP1 SLOAD PUSH2 0x8E SWAP1 PUSH2 0x125 JUMP JUMPDEST SWAP1 PUSH1 0x0 MSTORE PUSH1 0x20 PUSH1 0x0 KECCAK256 SWAP1 PUSH1 0x1F ADD PUSH1 0x20 SWAP1 DIV DUP2 ADD SWAP3 DUP3 PUSH2 0xB0 JUMPI PUSH1 0x0 DUP6 SSTORE PUSH2 0xF7 JUMP JUMPDEST DUP3 PUSH1 0x1F LT PUSH2 0xC9 JUMPI DUP1 MLOAD PUSH1 0xFF NOT AND DUP4 DUP1 ADD OR DUP6 SSTORE PUSH2 0xF7 JUMP JUMPDEST DUP3 DUP1 ADD PUSH1 0x1 ADD DUP6 SSTORE DUP3 ISZERO PUSH2 0xF7 JUMPI SWAP2 DUP3 ADD JUMPDEST DUP3 DUP2 GT ISZERO PUSH2 0xF6 JUMPI DUP3 MLOAD DUP3 SSTORE SWAP2 PUSH1 0x20 ADD SWAP2 SWAP1 PUSH1 0x1 ADD SWAP1 PUSH2 0xDB JUMP JUMPDEST JUMPDEST POP SWAP1 POP PUSH2 0x104 SWAP2 SWAP1 PUSH2 0x108 JUMP JUMPDEST POP SWAP1 JUMP JUMPDEST JUMPDEST DUP1 DUP3 GT ISZERO PUSH2 0x121 JUMPI PUSH1 0x0 DUP2 PUSH1 0x0 SWAP1 SSTORE POP PUSH1 0x1 ADD PUSH2 0x109 JUMP JUMPDEST POP SWAP1 JUMP JUMPDEST PUSH1 0x0 PUSH1 0x2 DUP3 DIV SWAP1 POP PUSH1 0x1 DUP3 AND DUP1 PUSH2 0x13D JUMPI PUSH1 0x7F DUP3 AND SWAP2 POP JUMPDEST PUSH1 0x20 DUP3 LT DUP2 EQ ISZERO PUSH2 0x151 JUMPI PUSH2 0x150 PUSH2 0x157 JUMP JUMPDEST JUMPDEST POP SWAP2 SWAP1 POP JUMP JUMPDEST PUSH32 0x4E487B7100000000000000000000000000000000000000000000000000000000 PUSH1 0x0 MSTORE PUSH1 0x22 PUSH1 0x4 MSTORE PUSH1 0x24 PUSH1 0x0 REVERT JUMPDEST PUSH2 0x7FA DUP1 PUSH2 0x195 PUSH1 0x0 CODECOPY PUSH1 0x0 RETURN INVALID PUSH1 0x80 PUSH1 0x40 MSTORE CALLVALUE DUP1 ISZERO PUSH2 0x10 JUMPI PUSH1 0x0 DUP1 REVERT JUMPDEST POP PUSH1 0x4 CALLDATASIZE LT PUSH2 0x7D JUMPI PUSH1 0x0 CALLDATALOAD PUSH1 0xE0 SHR DUP1 PUSH4 0x832880E7 GT PUSH2 0x5B JUMPI DUP1 PUSH4 0x832880E7 EQ PUSH2 0xDA JUMPI DUP1 PUSH4 0x967E6E65 EQ PUSH2 0xF8 JUMPI DUP1 PUSH4 0xC27FC305 EQ PUSH2 0x116 JUMPI DUP1 PUSH4 0xD0020FAD EQ PUSH2 0x135 JUMPI PUSH2 0x7D JUMP JUMPDEST DUP1 PUSH4 0x262A9DFF EQ PUSH2 0x82 JUMPI DUP1 PUSH4 0x4F8632BA EQ PUSH2 0xA0 JUMPI DUP1 PUSH4 0x5B0C8D70 EQ PUSH2 0xBE JUMPI JUMPDEST PUSH1 0x0 DUP1 REVERT JUMPDEST PUSH2 0x8A PUSH2 0x151 JUMP JUMPDEST PUSH1 0x40 MLOAD PUSH2 0x97 SWAP2 SWAP1 PUSH2 0x5E1 JUMP JUMPDEST PUSH1 0x40 MLOAD DUP1 SWAP2 SUB SWAP1 RETURN JUMPDEST PUSH2 0xA8 PUSH2 0x164 JUMP JUMPDEST PUSH1 0x40 MLOAD PUSH2 0xB5 SWAP2 SWAP1 PUSH2 0x574 JUMP JUMPDEST PUSH1 0x40 MLOAD DUP1 SWAP2 SUB SWAP1 RETURN JUMPDEST PUSH2 0xD8 PUSH1 0x4 DUP1 CALLDATASIZE SUB DUP2 ADD SWAP1 PUSH2 0xD3 SWAP2 SWAP1 PUSH2 0x4F0 JUMP JUMPDEST PUSH2 0x1F2 JUMP JUMPDEST STOP JUMPDEST PUSH2 0xE2 PUSH2 0x210 JUMP JUMPDEST PUSH1 0x40 MLOAD PUSH2 0xEF SWAP2 SWAP1 PUSH2 0x574 JUMP JUMPDEST PUSH1 0x40 MLOAD DUP1 SWAP2 SUB SWAP1 RETURN JUMPDEST PUSH2 0x100 PUSH2 0x2A2 JUMP JUMPDEST PUSH1 0x40 MLOAD PUSH2 0x10D SWAP2 SWAP1 PUSH2 0x5C6 JUMP JUMPDEST PUSH1 0x40 MLOAD DUP1 SWAP2 SUB SWAP1 RETURN JUMPDEST PUSH2 0x11E PUSH2 0x2BC JUMP JUMPDEST PUSH1 0x40 MLOAD PUSH2 0x12C SWAP3 SWAP2 SWAP1 PUSH2 0x596 JUMP JUMPDEST PUSH1 0x40 MLOAD DUP1 SWAP2 SUB SWAP1 RETURN JUMPDEST PUSH2 0x14F PUSH1 0x4 DUP1 CALLDATASIZE SUB DUP2 ADD SWAP1 PUSH2 0x14A SWAP2 SWAP1 PUSH2 0x4A7 JUMP JUMPDEST PUSH2 0x365 JUMP JUMPDEST STOP JUMPDEST PUSH1 0x1 PUSH1 0x0 SWAP1 SLOAD SWAP1 PUSH2 0x100 EXP SWAP1 DIV PUSH1 0xFF AND DUP2 JUMP JUMPDEST PUSH1 0x0 DUP1 SLOAD PUSH2 0x171 SWAP1 PUSH2 0x6C7 JUMP JUMPDEST DUP1 PUSH1 0x1F ADD PUSH1 0x20 DUP1 SWAP2 DIV MUL PUSH1 0x20 ADD PUSH1 0x40 MLOAD SWAP1 DUP2 ADD PUSH1 0x40 MSTORE DUP1 SWAP3 SWAP2 SWAP1 DUP2 DUP2 MSTORE PUSH1 0x20 ADD DUP3 DUP1 SLOAD PUSH2 0x19D SWAP1 PUSH2 0x6C7 JUMP JUMPDEST DUP1 ISZERO PUSH2 0x1EA JUMPI DUP1 PUSH1 0x1F LT PUSH2 0x1BF JUMPI PUSH2 0x100 DUP1 DUP4 SLOAD DIV MUL DUP4 MSTORE SWAP2 PUSH1 0x20 ADD SWAP2 PUSH2 0x1EA JUMP JUMPDEST DUP3 ADD SWAP2 SWAP1 PUSH1 0x0 MSTORE PUSH1 0x20 PUSH1 0x0 KECCAK256 SWAP1 JUMPDEST DUP2 SLOAD DUP2 MSTORE SWAP1 PUSH1 0x1 ADD SWAP1 PUSH1 0x20 ADD DUP1 DUP4 GT PUSH2 0x1CD JUMPI DUP3 SWAP1 SUB PUSH1 0x1F AND DUP3 ADD SWAP2 JUMPDEST POP POP POP POP POP DUP2 JUMP JUMPDEST DUP1 PUSH1 0x1 PUSH1 0x0 PUSH2 0x100 EXP DUP2 SLOAD DUP2 PUSH1 0xFF MUL NOT AND SWAP1 DUP4 PUSH1 0xFF AND MUL OR SWAP1 SSTORE POP POP JUMP JUMPDEST PUSH1 0x60 PUSH1 0x0 DUP1 SLOAD PUSH2 0x21F SWAP1 PUSH2 0x6C7 JUMP JUMPDEST DUP1 PUSH1 0x1F ADD PUSH1 0x20 DUP1 SWAP2 DIV MUL PUSH1 0x20 ADD PUSH1 0x40 MLOAD SWAP1 DUP2 ADD PUSH1 0x40 MSTORE DUP1 SWAP3 SWAP2 SWAP1 DUP2 DUP2 MSTORE PUSH1 0x20 ADD DUP3 DUP1 SLOAD PUSH2 0x24B SWAP1 PUSH2 0x6C7 JUMP JUMPDEST DUP1 ISZERO PUSH2 0x298 JUMPI DUP1 PUSH1 0x1F LT PUSH2 0x26D JUMPI PUSH2 0x100 DUP1 DUP4 SLOAD DIV MUL DUP4 MSTORE SWAP2 PUSH1 0x20 ADD SWAP2 PUSH2 0x298 JUMP JUMPDEST DUP3 ADD SWAP2 SWAP1 PUSH1 0x0 MSTORE PUSH1 0x20 PUSH1 0x0 KECCAK256 SWAP1 JUMPDEST DUP2 SLOAD DUP2 MSTORE SWAP1 PUSH1 0x1 ADD SWAP1 PUSH1 0x20 ADD DUP1 DUP4 GT PUSH2 0x27B JUMPI DUP3 SWAP1 SUB PUSH1 0x1F AND DUP3 ADD SWAP2 JUMPDEST POP POP POP POP POP SWAP1 POP SWAP1 JUMP JUMPDEST PUSH1 0x0 PUSH1 0x1 PUSH1 0x0 SWAP1 SLOAD SWAP1 PUSH2 0x100 EXP SWAP1 DIV PUSH1 0xFF AND PUSH1 0xFF AND SWAP1 POP SWAP1 JUMP JUMPDEST PUSH1 0x60 PUSH1 0x0 DUP1 PUSH1 0x1 PUSH1 0x0 SWAP1 SLOAD SWAP1 PUSH2 0x100 EXP SWAP1 DIV PUSH1 0xFF AND DUP2 DUP1 SLOAD PUSH2 0x2DD SWAP1 PUSH2 0x6C7 JUMP JUMPDEST DUP1 PUSH1 0x1F ADD PUSH1 0x20 DUP1 SWAP2 DIV MUL PUSH1 0x20 ADD PUSH1 0x40 MLOAD SWAP1 DUP2 ADD PUSH1 0x40 MSTORE DUP1 SWAP3 SWAP2 SWAP1 DUP2 DUP2 MSTORE PUSH1 0x20 ADD DUP3 DUP1 SLOAD PUSH2 0x309 SWAP1 PUSH2 0x6C7 JUMP JUMPDEST DUP1 ISZERO PUSH2 0x356 JUMPI DUP1 PUSH1 0x1F LT PUSH2 0x32B JUMPI PUSH2 0x100 DUP1 DUP4 SLOAD DIV MUL DUP4 MSTORE SWAP2 PUSH1 0x20 ADD SWAP2 PUSH2 0x356 JUMP JUMPDEST DUP3 ADD SWAP2 SWAP1 PUSH1 0x0 MSTORE PUSH1 0x20 PUSH1 0x0 KECCAK256 SWAP1 JUMPDEST DUP2 SLOAD DUP2 MSTORE SWAP1 PUSH1 0x1 ADD SWAP1 PUSH1 0x20 ADD DUP1 DUP4 GT PUSH2 0x339 JUMPI DUP3 SWAP1 SUB PUSH1 0x1F AND DUP3 ADD SWAP2 JUMPDEST POP POP POP POP POP SWAP2 POP SWAP2 POP SWAP2 POP SWAP1 SWAP2 JUMP JUMPDEST DUP1 PUSH1 0x0 SWAP1 DUP1 MLOAD SWAP1 PUSH1 0x20 ADD SWAP1 PUSH2 0x37B SWAP3 SWAP2 SWAP1 PUSH2 0x37F JUMP JUMPDEST POP POP JUMP JUMPDEST DUP3 DUP1 SLOAD PUSH2 0x38B SWAP1 PUSH2 0x6C7 JUMP JUMPDEST SWAP1 PUSH1 0x0 MSTORE PUSH1 0x20 PUSH1 0x0 KECCAK256 SWAP1 PUSH1 0x1F ADD PUSH1 0x20 SWAP1 DIV DUP2 ADD SWAP3 DUP3 PUSH2 0x3AD JUMPI PUSH1 0x0 DUP6 SSTORE PUSH2 0x3F4 JUMP JUMPDEST DUP3 PUSH1 0x1F LT PUSH2 0x3C6 JUMPI DUP1 MLOAD PUSH1 0xFF NOT AND DUP4 DUP1 ADD OR DUP6 SSTORE PUSH2 0x3F4 JUMP JUMPDEST DUP3 DUP1 ADD PUSH1 0x1 ADD DUP6 SSTORE DUP3 ISZERO PUSH2 0x3F4 JUMPI SWAP2 DUP3 ADD JUMPDEST DUP3 DUP2 GT ISZERO PUSH2 0x3F3 JUMPI DUP3 MLOAD DUP3 SSTORE SWAP2 PUSH1 0x20 ADD SWAP2 SWAP1 PUSH1 0x1 ADD SWAP1 PUSH2 0x3D8 JUMP JUMPDEST JUMPDEST POP SWAP1 POP PUSH2 0x401 SWAP2 SWAP1 PUSH2 0x405 JUMP JUMPDEST POP SWAP1 JUMP JUMPDEST JUMPDEST DUP1 DUP3 GT ISZERO PUSH2 0x41E JUMPI PUSH1 0x0 DUP2 PUSH1 0x0 SWAP1 SSTORE POP PUSH1 0x1 ADD PUSH2 0x406 JUMP JUMPDEST POP SWAP1 JUMP JUMPDEST PUSH1 0x0 PUSH2 0x435 PUSH2 0x430 DUP5 PUSH2 0x621 JUMP JUMPDEST PUSH2 0x5FC JUMP JUMPDEST SWAP1 POP DUP3 DUP2 MSTORE PUSH1 0x20 DUP2 ADD DUP5 DUP5 DUP5 ADD GT ISZERO PUSH2 0x451 JUMPI PUSH2 0x450 PUSH2 0x78D JUMP JUMPDEST JUMPDEST PUSH2 0x45C DUP5 DUP3 DUP6 PUSH2 0x685 JUMP JUMPDEST POP SWAP4 SWAP3 POP POP POP JUMP JUMPDEST PUSH1 0x0 DUP3 PUSH1 0x1F DUP4 ADD SLT PUSH2 0x479 JUMPI PUSH2 0x478 PUSH2 0x788 JUMP JUMPDEST JUMPDEST DUP2 CALLDATALOAD PUSH2 0x489 DUP5 DUP3 PUSH1 0x20 DUP7 ADD PUSH2 0x422 JUMP JUMPDEST SWAP2 POP POP SWAP3 SWAP2 POP POP JUMP JUMPDEST PUSH1 0x0 DUP2 CALLDATALOAD SWAP1 POP PUSH2 0x4A1 DUP2 PUSH2 0x7AD JUMP JUMPDEST SWAP3 SWAP2 POP POP JUMP JUMPDEST PUSH1 0x0 PUSH1 0x20 DUP3 DUP5 SUB SLT ISZERO PUSH2 0x4BD JUMPI PUSH2 0x4BC PUSH2 0x797 JUMP JUMPDEST JUMPDEST PUSH1 0x0 DUP3 ADD CALLDATALOAD PUSH8 0xFFFFFFFFFFFFFFFF DUP2 GT ISZERO PUSH2 0x4DB JUMPI PUSH2 0x4DA PUSH2 0x792 JUMP JUMPDEST JUMPDEST PUSH2 0x4E7 DUP5 DUP3 DUP6 ADD PUSH2 0x464 JUMP JUMPDEST SWAP2 POP POP SWAP3 SWAP2 POP POP JUMP JUMPDEST PUSH1 0x0 PUSH1 0x20 DUP3 DUP5 SUB SLT ISZERO PUSH2 0x506 JUMPI PUSH2 0x505 PUSH2 0x797 JUMP JUMPDEST JUMPDEST PUSH1 0x0 PUSH2 0x514 DUP5 DUP3 DUP6 ADD PUSH2 0x492 JUMP JUMPDEST SWAP2 POP POP SWAP3 SWAP2 POP POP JUMP JUMPDEST PUSH1 0x0 PUSH2 0x528 DUP3 PUSH2 0x652 JUMP JUMPDEST PUSH2 0x532 DUP2 DUP6 PUSH2 0x65D JUMP JUMPDEST SWAP4 POP PUSH2 0x542 DUP2 DUP6 PUSH1 0x20 DUP7 ADD PUSH2 0x694 JUMP JUMPDEST PUSH2 0x54B DUP2 PUSH2 0x79C JUMP JUMPDEST DUP5 ADD SWAP2 POP POP SWAP3 SWAP2 POP POP JUMP JUMPDEST PUSH2 0x55F DUP2 PUSH2 0x66E JUMP JUMPDEST DUP3 MSTORE POP POP JUMP JUMPDEST PUSH2 0x56E DUP2 PUSH2 0x678 JUMP JUMPDEST DUP3 MSTORE POP POP JUMP JUMPDEST PUSH1 0x0 PUSH1 0x20 DUP3 ADD SWAP1 POP DUP2 DUP2 SUB PUSH1 0x0 DUP4 ADD MSTORE PUSH2 0x58E DUP2 DUP5 PUSH2 0x51D JUMP JUMPDEST SWAP1 POP SWAP3 SWAP2 POP POP JUMP JUMPDEST PUSH1 0x0 PUSH1 0x40 DUP3 ADD SWAP1 POP DUP2 DUP2 SUB PUSH1 0x0 DUP4 ADD MSTORE PUSH2 0x5B0 DUP2 DUP6 PUSH2 0x51D JUMP JUMPDEST SWAP1 POP PUSH2 0x5BF PUSH1 0x20 DUP4 ADD DUP5 PUSH2 0x565 JUMP JUMPDEST SWAP4 SWAP3 POP POP POP JUMP JUMPDEST PUSH1 0x0 PUSH1 0x20 DUP3 ADD SWAP1 POP PUSH2 0x5DB PUSH1 0x0 DUP4 ADD DUP5 PUSH2 0x556 JUMP JUMPDEST SWAP3 SWAP2 POP POP JUMP JUMPDEST PUSH1 0x0 PUSH1 0x20 DUP3 ADD SWAP1 POP PUSH2 0x5F6 PUSH1 0x0 DUP4 ADD DUP5 PUSH2 0x565 JUMP JUMPDEST SWAP3 SWAP2 POP POP JUMP JUMPDEST PUSH1 0x0 PUSH2 0x606 PUSH2 0x617 JUMP JUMPDEST SWAP1 POP PUSH2 0x612 DUP3 DUP3 PUSH2 0x6F9 JUMP JUMPDEST SWAP2 SWAP1 POP JUMP JUMPDEST PUSH1 0x0 PUSH1 0x40 MLOAD SWAP1 POP SWAP1 JUMP JUMPDEST PUSH1 0x0 PUSH8 0xFFFFFFFFFFFFFFFF DUP3 GT ISZERO PUSH2 0x63C JUMPI PUSH2 0x63B PUSH2 0x759 JUMP JUMPDEST JUMPDEST PUSH2 0x645 DUP3 PUSH2 0x79C JUMP JUMPDEST SWAP1 POP PUSH1 0x20 DUP2 ADD SWAP1 POP SWAP2 SWAP1 POP JUMP JUMPDEST PUSH1 0x0 DUP2 MLOAD SWAP1 POP SWAP2 SWAP1 POP JUMP JUMPDEST PUSH1 0x0 DUP3 DUP3 MSTORE PUSH1 0x20 DUP3 ADD SWAP1 POP SWAP3 SWAP2 POP POP JUMP JUMPDEST PUSH1 0x0 DUP2 SWAP1 POP SWAP2 SWAP1 POP JUMP JUMPDEST PUSH1 0x0 PUSH1 0xFF DUP3 AND SWAP1 POP SWAP2 SWAP1 POP JUMP JUMPDEST DUP3 DUP2 DUP4 CALLDATACOPY PUSH1 0x0 DUP4 DUP4 ADD MSTORE POP POP POP JUMP JUMPDEST PUSH1 0x0 JUMPDEST DUP4 DUP2 LT ISZERO PUSH2 0x6B2 JUMPI DUP1 DUP3 ADD MLOAD DUP2 DUP5 ADD MSTORE PUSH1 0x20 DUP2 ADD SWAP1 POP PUSH2 0x697 JUMP JUMPDEST DUP4 DUP2 GT ISZERO PUSH2 0x6C1 JUMPI PUSH1 0x0 DUP5 DUP5 ADD MSTORE JUMPDEST POP POP POP POP JUMP JUMPDEST PUSH1 0x0 PUSH1 0x2 DUP3 DIV SWAP1 POP PUSH1 0x1 DUP3 AND DUP1 PUSH2 0x6DF JUMPI PUSH1 0x7F DUP3 AND SWAP2 POP JUMPDEST PUSH1 0x20 DUP3 LT DUP2 EQ ISZERO PUSH2 0x6F3 JUMPI PUSH2 0x6F2 PUSH2 0x72A JUMP JUMPDEST JUMPDEST POP SWAP2 SWAP1 POP JUMP JUMPDEST PUSH2 0x702 DUP3 PUSH2 0x79C JUMP JUMPDEST DUP2 ADD DUP2 DUP2 LT PUSH8 0xFFFFFFFFFFFFFFFF DUP3 GT OR ISZERO PUSH2 0x721 JUMPI PUSH2 0x720 PUSH2 0x759 JUMP JUMPDEST JUMPDEST DUP1 PUSH1 0x40 MSTORE POP POP POP JUMP JUMPDEST PUSH32 0x4E487B7100000000000000000000000000000000000000000000000000000000 PUSH1 0x0 MSTORE PUSH1 0x22 PUSH1 0x4 MSTORE PUSH1 0x24 PUSH1 0x0 REVERT JUMPDEST PUSH32 0x4E487B7100000000000000000000000000000000000000000000000000000000 PUSH1 0x0 MSTORE PUSH1 0x41 PUSH1 0x4 MSTORE PUSH1 0x24 PUSH1 0x0 REVERT JUMPDEST PUSH1 0x0 DUP1 REVERT JUMPDEST PUSH1 0x0 DUP1 REVERT JUMPDEST PUSH1 0x0 DUP1 REVERT JUMPDEST PUSH1 0x0 DUP1 REVERT JUMPDEST PUSH1 0x0 PUSH1 0x1F NOT PUSH1 0x1F DUP4 ADD AND SWAP1 POP SWAP2 SWAP1 POP JUMP JUMPDEST PUSH2 0x7B6 DUP2 PUSH2 0x678 JUMP JUMPDEST DUP2 EQ PUSH2 0x7C1 JUMPI PUSH1 0x0 DUP1 REVERT JUMPDEST POP JUMP INVALID LOG2 PUSH5 0x6970667358 0x22 SLT KECCAK256 GASLIMIT SWAP6 0xC1 0xEF 0x4B 0xAD PUSH16 0xFDAFE48D1489CC4DB6F7BE3A7415B636 SWAP1 0xE1 MULMOD LOG0 0xC6 PUSH31 0xB2827664736F6C634300080700330000000000000000000000000000000000 "
				},
				"gasEstimates": {
					"creation": {
						"codeDepositCost": "408400",
						"executionCost": "infinite",
						"totalCost": "infinite"
					},
					"external": {
						"age()": "2472",
						"f1()": "infinite",
						"getAge()": "2501",
						"getUser()": "infinite",
						"setAge(uint8)": "24724",
						"setUser(string)": "infinite",
						"user()": "infinite"
					}
				},
				"methodIdentifiers": {
					"age()": "262a9dff",
					"f1()": "c27fc305",
					"getAge()": "967e6e65",
					"getUser()": "832880e7",
					"setAge(uint8)": "5b0c8d70",
					"setUser(string)": "d0020fad",
					"user()": "4f8632ba"
				}
			},
			"storageLayout": {
				"storage": [
					{
						"astId": 3,
						"contract": "extends.sol:Man",
						"label": "user",
						"offset": 0,
						"slot": "0",
						"type": "t_string_storage"
					},
					{
						"astId": 5,
						"contract": "extends.sol:Man",
						"label": "age",
						"offset": 0,
						"slot": "1",
						"type": "t_uint8"
					}
				],
				"types": {
					"t_string_storage": {
						"encoding": "bytes",
						"label": "string",
						"numberOfBytes": "32"
					},
					"t_uint8": {
						"encoding": "inplace",
						"label": "uint8",
						"numberOfBytes": "1"
					}
				}
			},
			"userdoc": {
				"kind": "user",
				"methods": {},
				"version": 1
			}
		}
	}
}