{
	"extends.sol": {
		"Person": {
			"abi": [
				{
					"inputs": [
						{
							"internalType": "string",
							"name": "_user",
							"type": "string"
						},
						{
							"internalType": "uint8",
							"name": "_age",
							"type": "uint8"
						}
					],
					"stateMutability": "nonpayable",
					"type": "constructor"
				},
				{
					"inputs": [],
					"name": "age",
					"outputs": [
						{
							"internalType": "uint8",
							"name": "",
							"type": "uint8"
						}
					],
					"stateMutability": "view",
					"type": "function"
				},
				{
					"inputs": [],
					"name": "getAge",
					"outputs": [
						{
							"internalType": "uint256",
							"name": "",
							"type": "uint256"
						}
					],
					"stateMutability": "view",
					"type": "function"
				},
				{
					"inputs": [],
					"name": "getUser",
					"outputs": [
						{
							"internalType": "string",
							"name": "",
							"type": "string"
						}
					],
					"stateMutability": "view",
					"type": "function"
				},
				{
					"inputs": [
						{
							"internalType": "uint8",
							"name": "_age",
							"type": "uint8"
						}
					],
					"name": "setAge",
					"outputs": [],
					"stateMutability": "nonpayable",
					"type": "function"
				},
				{
					"inputs": [
						{
							"internalType": "string",
							"name": "_user",
							"type": "string"
						}
					],
					"name": "setUser",
					"outputs": [],
					"stateMutability": "nonpayable",
					"type": "function"
				},
				{
					"inputs": [],
					"name": "user",
					"outputs": [
						{
							"internalType": "string",
							"name": "",
							"type": "string"
						}
					],
					"stateMutability": "view",
					"type": "function"
				}
			],
			"devdoc": {
				"kind": "dev",
				"methods": {},
				"version": 1
			},
			"evm": {
				"assembly": "    /* \"extends.sol\":61:568  contract Person {\r... */\n  mstore(0x40, 0x80)\n    /* \"extends.sol\":134:230  constructor(string memory _user,uint8 _age) {\r... */\n  callvalue\n  dup1\n  iszero\n  tag_1\n  jumpi\n  0x00\n  dup1\n  revert\ntag_1:\n  pop\n  mload(0x40)\n  sub(codesize, bytecodeSize)\n  dup1\n  bytecodeSize\n  dup4\n  codecopy\n  dup2\n  dup2\n  add\n  0x40\n  mstore\n  dup2\n  add\n  swap1\n  tag_2\n  swap2\n  swap1\n  tag_3\n  jump\t// in\ntag_2:\n    /* \"extends.sol\":196:201  _user */\n  dup2\n    /* \"extends.sol\":189:193  user */\n  0x00\n    /* \"extends.sol\":189:201  user = _user */\n  swap1\n  dup1\n  mload\n  swap1\n  0x20\n  add\n  swap1\n  tag_6\n  swap3\n  swap2\n  swap1\n  tag_7\n  jump\t// in\ntag_6:\n  pop\n    /* \"extends.sol\":218:222  _age */\n  dup1\n    /* \"extends.sol\":212:215  age */\n  0x01\n  0x00\n    /* \"extends.sol\":212:222  age = _age */\n  0x0100\n  exp\n  dup2\n  sload\n  dup2\n  0xff\n  mul\n  not\n  and\n  swap1\n  dup4\n  0xff\n  and\n  mul\n  or\n  swap1\n  sstore\n  pop\n    /* \"extends.sol\":134:230  constructor(string memory _user,uint8 _age) {\r... */\n  pop\n  pop\n    /* \"extends.sol\":61:568  contract Person {\r... */\n  jump(tag_8)\ntag_7:\n  dup3\n  dup1\n  sload\n  tag_9\n  swap1\n  tag_10\n  jump\t// in\ntag_9:\n  swap1\n  0x00\n  mstore\n  keccak256(0x00, 0x20)\n  swap1\n  0x1f\n  add\n  0x20\n  swap1\n  div\n  dup2\n  add\n  swap3\n  dup3\n  tag_12\n  jumpi\n  0x00\n  dup6\n  sstore\n  jump(tag_11)\ntag_12:\n  dup3\n  0x1f\n  lt\n  tag_13\n  jumpi\n  dup1\n  mload\n  not(0xff)\n  and\n  dup4\n  dup1\n  add\n  or\n  dup6\n  sstore\n  jump(tag_11)\ntag_13:\n  dup3\n  dup1\n  add\n  0x01\n  add\n  dup6\n  sstore\n  dup3\n  iszero\n  tag_11\n  jumpi\n  swap2\n  dup3\n  add\ntag_14:\n  dup3\n  dup2\n  gt\n  iszero\n  tag_15\n  jumpi\n  dup3\n  mload\n  dup3\n  sstore\n  swap2\n  0x20\n  add\n  swap2\n  swap1\n  0x01\n  add\n  swap1\n  jump(tag_14)\ntag_15:\ntag_11:\n  pop\n  swap1\n  pop\n  tag_16\n  swap2\n  swap1\n  tag_17\n  jump\t// in\ntag_16:\n  pop\n  swap1\n  jump\t// out\ntag_17:\ntag_18:\n  dup1\n  dup3\n  gt\n  iszero\n  tag_19\n  jumpi\n  0x00\n  dup2\n  0x00\n  swap1\n  sstore\n  pop\n  0x01\n  add\n  jump(tag_18)\ntag_19:\n  pop\n  swap1\n  jump\t// out\n    /* \"#utility.yul\":7:428   */\ntag_21:\n    /* \"#utility.yul\":96:101   */\n  0x00\n    /* \"#utility.yul\":121:187   */\n  tag_23\n    /* \"#utility.yul\":137:186   */\n  tag_24\n    /* \"#utility.yul\":179:185   */\n  dup5\n    /* \"#utility.yul\":137:186   */\n  tag_25\n  jump\t// in\ntag_24:\n    /* \"#utility.yul\":121:187   */\n  tag_26\n  jump\t// in\ntag_23:\n    /* \"#utility.yul\":112:187   */\n  swap1\n  pop\n    /* \"#utility.yul\":210:216   */\n  dup3\n    /* \"#utility.yul\":203:208   */\n  dup2\n    /* \"#utility.yul\":196:217   */\n  mstore\n    /* \"#utility.yul\":248:252   */\n  0x20\n    /* \"#utility.yul\":241:246   */\n  dup2\n    /* \"#utility.yul\":237:253   */\n  add\n    /* \"#utility.yul\":286:289   */\n  dup5\n    /* \"#utility.yul\":277:283   */\n  dup5\n    /* \"#utility.yul\":272:275   */\n  dup5\n    /* \"#utility.yul\":268:284   */\n  add\n    /* \"#utility.yul\":265:290   */\n  gt\n    /* \"#utility.yul\":262:374   */\n  iszero\n  tag_27\n  jumpi\n    /* \"#utility.yul\":293:372   */\n  tag_28\n  tag_29\n  jump\t// in\ntag_28:\n    /* \"#utility.yul\":262:374   */\ntag_27:\n    /* \"#utility.yul\":383:422   */\n  tag_30\n    /* \"#utility.yul\":415:421   */\n  dup5\n    /* \"#utility.yul\":410:413   */\n  dup3\n    /* \"#utility.yul\":405:408   */\n  dup6\n    /* \"#utility.yul\":383:422   */\n  tag_31\n  jump\t// in\ntag_30:\n    /* \"#utility.yul\":102:428   */\n  pop\n    /* \"#utility.yul\":7:428   */\n  swap4\n  swap3\n  pop\n  pop\n  pop\n  jump\t// out\n    /* \"#utility.yul\":448:803   */\ntag_32:\n    /* \"#utility.yul\":515:520   */\n  0x00\n    /* \"#utility.yul\":564:567   */\n  dup3\n    /* \"#utility.yul\":557:561   */\n  0x1f\n    /* \"#utility.yul\":549:555   */\n  dup4\n    /* \"#utility.yul\":545:562   */\n  add\n    /* \"#utility.yul\":541:568   */\n  slt\n    /* \"#utility.yul\":531:653   */\n  tag_34\n  jumpi\n    /* \"#utility.yul\":572:651   */\n  tag_35\n  tag_36\n  jump\t// in\ntag_35:\n    /* \"#utility.yul\":531:653   */\ntag_34:\n    /* \"#utility.yul\":682:688   */\n  dup2\n    /* \"#utility.yul\":676:689   */\n  mload\n    /* \"#utility.yul\":707:797   */\n  tag_37\n    /* \"#utility.yul\":793:796   */\n  dup5\n    /* \"#utility.yul\":785:791   */\n  dup3\n    /* \"#utility.yul\":778:782   */\n  0x20\n    /* \"#utility.yul\":770:776   */\n  dup7\n    /* \"#utility.yul\":766:783   */\n  add\n    /* \"#utility.yul\":707:797   */\n  tag_21\n  jump\t// in\ntag_37:\n    /* \"#utility.yul\":698:797   */\n  swap2\n  pop\n    /* \"#utility.yul\":521:803   */\n  pop\n    /* \"#utility.yul\":448:803   */\n  swap3\n  swap2\n  pop\n  pop\n  jump\t// out\n    /* \"#utility.yul\":809:948   */\ntag_38:\n    /* \"#utility.yul\":864:869   */\n  0x00\n    /* \"#utility.yul\":895:901   */\n  dup2\n    /* \"#utility.yul\":889:902   */\n  mload\n    /* \"#utility.yul\":880:902   */\n  swap1\n  pop\n    /* \"#utility.yul\":911:942   */\n  tag_40\n    /* \"#utility.yul\":936:941   */\n  dup2\n    /* \"#utility.yul\":911:942   */\n  tag_41\n  jump\t// in\ntag_40:\n    /* \"#utility.yul\":809:948   */\n  swap3\n  swap2\n  pop\n  pop\n  jump\t// out\n    /* \"#utility.yul\":954:1630   */\ntag_3:\n    /* \"#utility.yul\":1041:1047   */\n  0x00\n    /* \"#utility.yul\":1049:1055   */\n  dup1\n    /* \"#utility.yul\":1098:1100   */\n  0x40\n    /* \"#utility.yul\":1086:1095   */\n  dup4\n    /* \"#utility.yul\":1077:1084   */\n  dup6\n    /* \"#utility.yul\":1073:1096   */\n  sub\n    /* \"#utility.yul\":1069:1101   */\n  slt\n    /* \"#utility.yul\":1066:1185   */\n  iszero\n  tag_43\n  jumpi\n    /* \"#utility.yul\":1104:1183   */\n  tag_44\n  tag_45\n  jump\t// in\ntag_44:\n    /* \"#utility.yul\":1066:1185   */\ntag_43:\n    /* \"#utility.yul\":1245:1246   */\n  0x00\n    /* \"#utility.yul\":1234:1243   */\n  dup4\n    /* \"#utility.yul\":1230:1247   */\n  add\n    /* \"#utility.yul\":1224:1248   */\n  mload\n    /* \"#utility.yul\":1275:1293   */\n  0xffffffffffffffff\n    /* \"#utility.yul\":1267:1273   */\n  dup2\n    /* \"#utility.yul\":1264:1294   */\n  gt\n    /* \"#utility.yul\":1261:1378   */\n  iszero\n  tag_46\n  jumpi\n    /* \"#utility.yul\":1297:1376   */\n  tag_47\n  tag_48\n  jump\t// in\ntag_47:\n    /* \"#utility.yul\":1261:1378   */\ntag_46:\n    /* \"#utility.yul\":1402:1476   */\n  tag_49\n    /* \"#utility.yul\":1468:1475   */\n  dup6\n    /* \"#utility.yul\":1459:1465   */\n  dup3\n    /* \"#utility.yul\":1448:1457   */\n  dup7\n    /* \"#utility.yul\":1444:1466   */\n  add\n    /* \"#utility.yul\":1402:1476   */\n  tag_32\n  jump\t// in\ntag_49:\n    /* \"#utility.yul\":1392:1476   */\n  swap3\n  pop\n    /* \"#utility.yul\":1195:1486   */\n  pop\n    /* \"#utility.yul\":1525:1527   */\n  0x20\n    /* \"#utility.yul\":1551:1613   */\n  tag_50\n    /* \"#utility.yul\":1605:1612   */\n  dup6\n    /* \"#utility.yul\":1596:1602   */\n  dup3\n    /* \"#utility.yul\":1585:1594   */\n  dup7\n    /* \"#utility.yul\":1581:1603   */\n  add\n    /* \"#utility.yul\":1551:1613   */\n  tag_38\n  jump\t// in\ntag_50:\n    /* \"#utility.yul\":1541:1613   */\n  swap2\n  pop\n    /* \"#utility.yul\":1496:1623   */\n  pop\n    /* \"#utility.yul\":954:1630   */\n  swap3\n  pop\n  swap3\n  swap1\n  pop\n  jump\t// out\n    /* \"#utility.yul\":1636:1765   */\ntag_26:\n    /* \"#utility.yul\":1670:1676   */\n  0x00\n    /* \"#utility.yul\":1697:1717   */\n  tag_52\n  tag_53\n  jump\t// in\ntag_52:\n    /* \"#utility.yul\":1687:1717   */\n  swap1\n  pop\n    /* \"#utility.yul\":1726:1759   */\n  tag_54\n    /* \"#utility.yul\":1754:1758   */\n  dup3\n    /* \"#utility.yul\":1746:1752   */\n  dup3\n    /* \"#utility.yul\":1726:1759   */\n  tag_55\n  jump\t// in\ntag_54:\n    /* \"#utility.yul\":1636:1765   */\n  swap2\n  swap1\n  pop\n  jump\t// out\n    /* \"#utility.yul\":1771:1846   */\ntag_53:\n    /* \"#utility.yul\":1804:1810   */\n  0x00\n    /* \"#utility.yul\":1837:1839   */\n  0x40\n    /* \"#utility.yul\":1831:1840   */\n  mload\n    /* \"#utility.yul\":1821:1840   */\n  swap1\n  pop\n    /* \"#utility.yul\":1771:1846   */\n  swap1\n  jump\t// out\n    /* \"#utility.yul\":1852:2160   */\ntag_25:\n    /* \"#utility.yul\":1914:1918   */\n  0x00\n    /* \"#utility.yul\":2004:2022   */\n  0xffffffffffffffff\n    /* \"#utility.yul\":1996:2002   */\n  dup3\n    /* \"#utility.yul\":1993:2023   */\n  gt\n    /* \"#utility.yul\":1990:2046   */\n  iszero\n  tag_58\n  jumpi\n    /* \"#utility.yul\":2026:2044   */\n  tag_59\n  tag_60\n  jump\t// in\ntag_59:\n    /* \"#utility.yul\":1990:2046   */\ntag_58:\n    /* \"#utility.yul\":2064:2093   */\n  tag_61\n    /* \"#utility.yul\":2086:2092   */\n  dup3\n    /* \"#utility.yul\":2064:2093   */\n  tag_62\n  jump\t// in\ntag_61:\n    /* \"#utility.yul\":2056:2093   */\n  swap1\n  pop\n    /* \"#utility.yul\":2148:2152   */\n  0x20\n    /* \"#utility.yul\":2142:2146   */\n  dup2\n    /* \"#utility.yul\":2138:2153   */\n  add\n    /* \"#utility.yul\":2130:2153   */\n  swap1\n  pop\n    /* \"#utility.yul\":1852:2160   */\n  swap2\n  swap1\n  pop\n  jump\t// out\n    /* \"#utility.yul\":2166:2252   */\ntag_63:\n    /* \"#utility.yul\":2201:2208   */\n  0x00\n    /* \"#utility.yul\":2241:2245   */\n  0xff\n    /* \"#utility.yul\":2234:2239   */\n  dup3\n    /* \"#utility.yul\":2230:2246   */\n  and\n    /* \"#utility.yul\":2219:2246   */\n  swap1\n  pop\n    /* \"#utility.yul\":2166:2252   */\n  swap2\n  swap1\n  pop\n  jump\t// out\n    /* \"#utility.yul\":2258:2565   */\ntag_31:\n    /* \"#utility.yul\":2326:2327   */\n  0x00\n    /* \"#utility.yul\":2336:2449   */\ntag_66:\n    /* \"#utility.yul\":2350:2356   */\n  dup4\n    /* \"#utility.yul\":2347:2348   */\n  dup2\n    /* \"#utility.yul\":2344:2357   */\n  lt\n    /* \"#utility.yul\":2336:2449   */\n  iszero\n  tag_68\n  jumpi\n    /* \"#utility.yul\":2435:2436   */\n  dup1\n    /* \"#utility.yul\":2430:2433   */\n  dup3\n    /* \"#utility.yul\":2426:2437   */\n  add\n    /* \"#utility.yul\":2420:2438   */\n  mload\n    /* \"#utility.yul\":2416:2417   */\n  dup2\n    /* \"#utility.yul\":2411:2414   */\n  dup5\n    /* \"#utility.yul\":2407:2418   */\n  add\n    /* \"#utility.yul\":2400:2439   */\n  mstore\n    /* \"#utility.yul\":2372:2374   */\n  0x20\n    /* \"#utility.yul\":2369:2370   */\n  dup2\n    /* \"#utility.yul\":2365:2375   */\n  add\n    /* \"#utility.yul\":2360:2375   */\n  swap1\n  pop\n    /* \"#utility.yul\":2336:2449   */\n  jump(tag_66)\ntag_68:\n    /* \"#utility.yul\":2467:2473   */\n  dup4\n    /* \"#utility.yul\":2464:2465   */\n  dup2\n    /* \"#utility.yul\":2461:2474   */\n  gt\n    /* \"#utility.yul\":2458:2559   */\n  iszero\n  tag_69\n  jumpi\n    /* \"#utility.yul\":2547:2548   */\n  0x00\n    /* \"#utility.yul\":2538:2544   */\n  dup5\n    /* \"#utility.yul\":2533:2536   */\n  dup5\n    /* \"#utility.yul\":2529:2545   */\n  add\n    /* \"#utility.yul\":2522:2549   */\n  mstore\n    /* \"#utility.yul\":2458:2559   */\ntag_69:\n    /* \"#utility.yul\":2307:2565   */\n  pop\n    /* \"#utility.yul\":2258:2565   */\n  pop\n  pop\n  pop\n  jump\t// out\n    /* \"#utility.yul\":2571:2891   */\ntag_10:\n    /* \"#utility.yul\":2615:2621   */\n  0x00\n    /* \"#utility.yul\":2652:2653   */\n  0x02\n    /* \"#utility.yul\":2646:2650   */\n  dup3\n    /* \"#utility.yul\":2642:2654   */\n  div\n    /* \"#utility.yul\":2632:2654   */\n  swap1\n  pop\n    /* \"#utility.yul\":2699:2700   */\n  0x01\n    /* \"#utility.yul\":2693:2697   */\n  dup3\n    /* \"#utility.yul\":2689:2701   */\n  and\n    /* \"#utility.yul\":2720:2738   */\n  dup1\n    /* \"#utility.yul\":2710:2791   */\n  tag_71\n  jumpi\n    /* \"#utility.yul\":2776:2780   */\n  0x7f\n    /* \"#utility.yul\":2768:2774   */\n  dup3\n    /* \"#utility.yul\":2764:2781   */\n  and\n    /* \"#utility.yul\":2754:2781   */\n  swap2\n  pop\n    /* \"#utility.yul\":2710:2791   */\ntag_71:\n    /* \"#utility.yul\":2838:2840   */\n  0x20\n    /* \"#utility.yul\":2830:2836   */\n  dup3\n    /* \"#utility.yul\":2827:2841   */\n  lt\n    /* \"#utility.yul\":2807:2825   */\n  dup2\n    /* \"#utility.yul\":2804:2842   */\n  eq\n    /* \"#utility.yul\":2801:2885   */\n  iszero\n  tag_72\n  jumpi\n    /* \"#utility.yul\":2857:2875   */\n  tag_73\n  tag_74\n  jump\t// in\ntag_73:\n    /* \"#utility.yul\":2801:2885   */\ntag_72:\n    /* \"#utility.yul\":2622:2891   */\n  pop\n    /* \"#utility.yul\":2571:2891   */\n  swap2\n  swap1\n  pop\n  jump\t// out\n    /* \"#utility.yul\":2897:3178   */\ntag_55:\n    /* \"#utility.yul\":2980:3007   */\n  tag_76\n    /* \"#utility.yul\":3002:3006   */\n  dup3\n    /* \"#utility.yul\":2980:3007   */\n  tag_62\n  jump\t// in\ntag_76:\n    /* \"#utility.yul\":2972:2978   */\n  dup2\n    /* \"#utility.yul\":2968:3008   */\n  add\n    /* \"#utility.yul\":3110:3116   */\n  dup2\n    /* \"#utility.yul\":3098:3108   */\n  dup2\n    /* \"#utility.yul\":3095:3117   */\n  lt\n    /* \"#utility.yul\":3074:3092   */\n  0xffffffffffffffff\n    /* \"#utility.yul\":3062:3072   */\n  dup3\n    /* \"#utility.yul\":3059:3093   */\n  gt\n    /* \"#utility.yul\":3056:3118   */\n  or\n    /* \"#utility.yul\":3053:3141   */\n  iszero\n  tag_77\n  jumpi\n    /* \"#utility.yul\":3121:3139   */\n  tag_78\n  tag_60\n  jump\t// in\ntag_78:\n    /* \"#utility.yul\":3053:3141   */\ntag_77:\n    /* \"#utility.yul\":3161:3171   */\n  dup1\n    /* \"#utility.yul\":3157:3159   */\n  0x40\n    /* \"#utility.yul\":3150:3172   */\n  mstore\n    /* \"#utility.yul\":2940:3178   */\n  pop\n    /* \"#utility.yul\":2897:3178   */\n  pop\n  pop\n  jump\t// out\n    /* \"#utility.yul\":3184:3364   */\ntag_74:\n    /* \"#utility.yul\":3232:3309   */\n  0x4e487b7100000000000000000000000000000000000000000000000000000000\n    /* \"#utility.yul\":3229:3230   */\n  0x00\n    /* \"#utility.yul\":3222:3310   */\n  mstore\n    /* \"#utility.yul\":3329:3333   */\n  0x22\n    /* \"#utility.yul\":3326:3327   */\n  0x04\n    /* \"#utility.yul\":3319:3334   */\n  mstore\n    /* \"#utility.yul\":3353:3357   */\n  0x24\n    /* \"#utility.yul\":3350:3351   */\n  0x00\n    /* \"#utility.yul\":3343:3358   */\n  revert\n    /* \"#utility.yul\":3370:3550   */\ntag_60:\n    /* \"#utility.yul\":3418:3495   */\n  0x4e487b7100000000000000000000000000000000000000000000000000000000\n    /* \"#utility.yul\":3415:3416   */\n  0x00\n    /* \"#utility.yul\":3408:3496   */\n  mstore\n    /* \"#utility.yul\":3515:3519   */\n  0x41\n    /* \"#utility.yul\":3512:3513   */\n  0x04\n    /* \"#utility.yul\":3505:3520   */\n  mstore\n    /* \"#utility.yul\":3539:3543   */\n  0x24\n    /* \"#utility.yul\":3536:3537   */\n  0x00\n    /* \"#utility.yul\":3529:3544   */\n  revert\n    /* \"#utility.yul\":3556:3673   */\ntag_36:\n    /* \"#utility.yul\":3665:3666   */\n  0x00\n    /* \"#utility.yul\":3662:3663   */\n  dup1\n    /* \"#utility.yul\":3655:3667   */\n  revert\n    /* \"#utility.yul\":3679:3796   */\ntag_29:\n    /* \"#utility.yul\":3788:3789   */\n  0x00\n    /* \"#utility.yul\":3785:3786   */\n  dup1\n    /* \"#utility.yul\":3778:3790   */\n  revert\n    /* \"#utility.yul\":3802:3919   */\ntag_48:\n    /* \"#utility.yul\":3911:3912   */\n  0x00\n    /* \"#utility.yul\":3908:3909   */\n  dup1\n    /* \"#utility.yul\":3901:3913   */\n  revert\n    /* \"#utility.yul\":3925:4042   */\ntag_45:\n    /* \"#utility.yul\":4034:4035   */\n  0x00\n    /* \"#utility.yul\":4031:4032   */\n  dup1\n    /* \"#utility.yul\":4024:4036   */\n  revert\n    /* \"#utility.yul\":4048:4150   */\ntag_62:\n    /* \"#utility.yul\":4089:4095   */\n  0x00\n    /* \"#utility.yul\":4140:4142   */\n  0x1f\n    /* \"#utility.yul\":4136:4143   */\n  not\n    /* \"#utility.yul\":4131:4133   */\n  0x1f\n    /* \"#utility.yul\":4124:4129   */\n  dup4\n    /* \"#utility.yul\":4120:4134   */\n  add\n    /* \"#utility.yul\":4116:4144   */\n  and\n    /* \"#utility.yul\":4106:4144   */\n  swap1\n  pop\n    /* \"#utility.yul\":4048:4150   */\n  swap2\n  swap1\n  pop\n  jump\t// out\n    /* \"#utility.yul\":4156:4274   */\ntag_41:\n    /* \"#utility.yul\":4227:4249   */\n  tag_87\n    /* \"#utility.yul\":4243:4248   */\n  dup2\n    /* \"#utility.yul\":4227:4249   */\n  tag_63\n  jump\t// in\ntag_87:\n    /* \"#utility.yul\":4220:4225   */\n  dup2\n    /* \"#utility.yul\":4217:4250   */\n  eq\n    /* \"#utility.yul\":4207:4268   */\n  tag_88\n  jumpi\n    /* \"#utility.yul\":4264:4265   */\n  0x00\n    /* \"#utility.yul\":4261:4262   */\n  dup1\n    /* \"#utility.yul\":4254:4266   */\n  revert\n    /* \"#utility.yul\":4207:4268   */\ntag_88:\n    /* \"#utility.yul\":4156:4274   */\n  pop\n  jump\t// out\n    /* \"extends.sol\":61:568  contract Person {\r... */\ntag_8:\n  dataSize(sub_0)\n  dup1\n  dataOffset(sub_0)\n  0x00\n  codecopy\n  0x00\n  return\nstop\n\nsub_0: assembly {\n        /* \"extends.sol\":61:568  contract Person {\r... */\n      mstore(0x40, 0x80)\n      callvalue\n      dup1\n      iszero\n      tag_1\n      jumpi\n      0x00\n      dup1\n      revert\n    tag_1:\n      pop\n      jumpi(tag_2, lt(calldatasize, 0x04))\n      shr(0xe0, calldataload(0x00))\n      dup1\n      0x262a9dff\n      eq\n      tag_3\n      jumpi\n      dup1\n      0x4f8632ba\n      eq\n      tag_4\n      jumpi\n      dup1\n      0x5b0c8d70\n      eq\n      tag_5\n      jumpi\n      dup1\n      0x832880e7\n      eq\n      tag_6\n      jumpi\n      dup1\n      0x967e6e65\n      eq\n      tag_7\n      jumpi\n      dup1\n      0xd0020fad\n      eq\n      tag_8\n      jumpi\n    tag_2:\n      0x00\n      dup1\n      revert\n        /* \"extends.sol\":109:125  uint8 public age */\n    tag_3:\n      tag_9\n      tag_10\n      jump\t// in\n    tag_9:\n      mload(0x40)\n      tag_11\n      swap2\n      swap1\n      tag_12\n      jump\t// in\n    tag_11:\n      mload(0x40)\n      dup1\n      swap2\n      sub\n      swap1\n      return\n        /* \"extends.sol\":84:102  string public user */\n    tag_4:\n      tag_13\n      tag_14\n      jump\t// in\n    tag_13:\n      mload(0x40)\n      tag_15\n      swap2\n      swap1\n      tag_16\n      jump\t// in\n    tag_15:\n      mload(0x40)\n      dup1\n      swap2\n      sub\n      swap1\n      return\n        /* \"extends.sol\":501:565  function setAge(uint8 _age) public {\r... */\n    tag_5:\n      tag_17\n      0x04\n      dup1\n      calldatasize\n      sub\n      dup2\n      add\n      swap1\n      tag_18\n      swap2\n      swap1\n      tag_19\n      jump\t// in\n    tag_18:\n      tag_20\n      jump\t// in\n    tag_17:\n      stop\n        /* \"extends.sol\":238:323  function getUser() public view returns (string memory) {\r... */\n    tag_6:\n      tag_21\n      tag_22\n      jump\t// in\n    tag_21:\n      mload(0x40)\n      tag_23\n      swap2\n      swap1\n      tag_16\n      jump\t// in\n    tag_23:\n      mload(0x40)\n      dup1\n      swap2\n      sub\n      swap1\n      return\n        /* \"extends.sol\":331:405  function getAge() public view returns (uint) {\r... */\n    tag_7:\n      tag_24\n      tag_25\n      jump\t// in\n    tag_24:\n      mload(0x40)\n      tag_26\n      swap2\n      swap1\n      tag_27\n      jump\t// in\n    tag_26:\n      mload(0x40)\n      dup1\n      swap2\n      sub\n      swap1\n      return\n        /* \"extends.sol\":413:489  function setUser(string memory _user) public {\r... */\n    tag_8:\n      tag_28\n      0x04\n      dup1\n      calldatasize\n      sub\n      dup2\n      add\n      swap1\n      tag_29\n      swap2\n      swap1\n      tag_30\n      jump\t// in\n    tag_29:\n      tag_31\n      jump\t// in\n    tag_28:\n      stop\n        /* \"extends.sol\":109:125  uint8 public age */\n    tag_10:\n      0x01\n      0x00\n      swap1\n      sload\n      swap1\n      0x0100\n      exp\n      swap1\n      div\n      0xff\n      and\n      dup2\n      jump\t// out\n        /* \"extends.sol\":84:102  string public user */\n    tag_14:\n      0x00\n      dup1\n      sload\n      tag_32\n      swap1\n      tag_33\n      jump\t// in\n    tag_32:\n      dup1\n      0x1f\n      add\n      0x20\n      dup1\n      swap2\n      div\n      mul\n      0x20\n      add\n      mload(0x40)\n      swap1\n      dup2\n      add\n      0x40\n      mstore\n      dup1\n      swap3\n      swap2\n      swap1\n      dup2\n      dup2\n      mstore\n      0x20\n      add\n      dup3\n      dup1\n      sload\n      tag_34\n      swap1\n      tag_33\n      jump\t// in\n    tag_34:\n      dup1\n      iszero\n      tag_35\n      jumpi\n      dup1\n      0x1f\n      lt\n      tag_36\n      jumpi\n      0x0100\n      dup1\n      dup4\n      sload\n      div\n      mul\n      dup4\n      mstore\n      swap2\n      0x20\n      add\n      swap2\n      jump(tag_35)\n    tag_36:\n      dup3\n      add\n      swap2\n      swap1\n      0x00\n      mstore\n      keccak256(0x00, 0x20)\n      swap1\n    tag_37:\n      dup2\n      sload\n      dup2\n      mstore\n      swap1\n      0x01\n      add\n      swap1\n      0x20\n      add\n      dup1\n      dup4\n      gt\n      tag_37\n      jumpi\n      dup3\n      swap1\n      sub\n      0x1f\n      and\n      dup3\n      add\n      swap2\n    tag_35:\n      pop\n      pop\n      pop\n      pop\n      pop\n      dup2\n      jump\t// out\n        /* \"extends.sol\":501:565  function setAge(uint8 _age) public {\r... */\n    tag_20:\n        /* \"extends.sol\":553:557  _age */\n      dup1\n        /* \"extends.sol\":547:550  age */\n      0x01\n      0x00\n        /* \"extends.sol\":547:557  age = _age */\n      0x0100\n      exp\n      dup2\n      sload\n      dup2\n      0xff\n      mul\n      not\n      and\n      swap1\n      dup4\n      0xff\n      and\n      mul\n      or\n      swap1\n      sstore\n      pop\n        /* \"extends.sol\":501:565  function setAge(uint8 _age) public {\r... */\n      pop\n      jump\t// out\n        /* \"extends.sol\":238:323  function getUser() public view returns (string memory) {\r... */\n    tag_22:\n        /* \"extends.sol\":278:291  string memory */\n      0x60\n        /* \"extends.sol\":311:315  user */\n      0x00\n        /* \"extends.sol\":304:315  return user */\n      dup1\n      sload\n      tag_40\n      swap1\n      tag_33\n      jump\t// in\n    tag_40:\n      dup1\n      0x1f\n      add\n      0x20\n      dup1\n      swap2\n      div\n      mul\n      0x20\n      add\n      mload(0x40)\n      swap1\n      dup2\n      add\n      0x40\n      mstore\n      dup1\n      swap3\n      swap2\n      swap1\n      dup2\n      dup2\n      mstore\n      0x20\n      add\n      dup3\n      dup1\n      sload\n      tag_41\n      swap1\n      tag_33\n      jump\t// in\n    tag_41:\n      dup1\n      iszero\n      tag_42\n      jumpi\n      dup1\n      0x1f\n      lt\n      tag_43\n      jumpi\n      0x0100\n      dup1\n      dup4\n      sload\n      div\n      mul\n      dup4\n      mstore\n      swap2\n      0x20\n      add\n      swap2\n      jump(tag_42)\n    tag_43:\n      dup3\n      add\n      swap2\n      swap1\n      0x00\n      mstore\n      keccak256(0x00, 0x20)\n      swap1\n    tag_44:\n      dup2\n      sload\n      dup2\n      mstore\n      swap1\n      0x01\n      add\n      swap1\n      0x20\n      add\n      dup1\n      dup4\n      gt\n      tag_44\n      jumpi\n      dup3\n      swap1\n      sub\n      0x1f\n      and\n      dup3\n      add\n      swap2\n    tag_42:\n      pop\n      pop\n      pop\n      pop\n      pop\n      swap1\n      pop\n        /* \"extends.sol\":238:323  function getUser() public view returns (string memory) {\r... */\n      swap1\n      jump\t// out\n        /* \"extends.sol\":331:405  function getAge() public view returns (uint) {\r... */\n    tag_25:\n        /* \"extends.sol\":370:374  uint */\n      0x00\n        /* \"extends.sol\":394:397  age */\n      0x01\n      0x00\n      swap1\n      sload\n      swap1\n      0x0100\n      exp\n      swap1\n      div\n      0xff\n      and\n        /* \"extends.sol\":387:397  return age */\n      0xff\n      and\n      swap1\n      pop\n        /* \"extends.sol\":331:405  function getAge() public view returns (uint) {\r... */\n      swap1\n      jump\t// out\n        /* \"extends.sol\":413:489  function setUser(string memory _user) public {\r... */\n    tag_31:\n        /* \"extends.sol\":476:481  _user */\n      dup1\n        /* \"extends.sol\":469:473  user */\n      0x00\n        /* \"extends.sol\":469:481  user = _user */\n      swap1\n      dup1\n      mload\n      swap1\n      0x20\n      add\n      swap1\n      tag_47\n      swap3\n      swap2\n      swap1\n      tag_48\n      jump\t// in\n    tag_47:\n      pop\n        /* \"extends.sol\":413:489  function setUser(string memory _user) public {\r... */\n      pop\n      jump\t// out\n    tag_48:\n      dup3\n      dup1\n      sload\n      tag_49\n      swap1\n      tag_33\n      jump\t// in\n    tag_49:\n      swap1\n      0x00\n      mstore\n      keccak256(0x00, 0x20)\n      swap1\n      0x1f\n      add\n      0x20\n      swap1\n      div\n      dup2\n      add\n      swap3\n      dup3\n      tag_51\n      jumpi\n      0x00\n      dup6\n      sstore\n      jump(tag_50)\n    tag_51:\n      dup3\n      0x1f\n      lt\n      tag_52\n      jumpi\n      dup1\n      mload\n      not(0xff)\n      and\n      dup4\n      dup1\n      add\n      or\n      dup6\n      sstore\n      jump(tag_50)\n    tag_52:\n      dup3\n      dup1\n      add\n      0x01\n      add\n      dup6\n      sstore\n      dup3\n      iszero\n      tag_50\n      jumpi\n      swap2\n      dup3\n      add\n    tag_53:\n      dup3\n      dup2\n      gt\n      iszero\n      tag_54\n      jumpi\n      dup3\n      mload\n      dup3\n      sstore\n      swap2\n      0x20\n      add\n      swap2\n      swap1\n      0x01\n      add\n      swap1\n      jump(tag_53)\n    tag_54:\n    tag_50:\n      pop\n      swap1\n      pop\n      tag_55\n      swap2\n      swap1\n      tag_56\n      jump\t// in\n    tag_55:\n      pop\n      swap1\n      jump\t// out\n    tag_56:\n    tag_57:\n      dup1\n      dup3\n      gt\n      iszero\n      tag_58\n      jumpi\n      0x00\n      dup2\n      0x00\n      swap1\n      sstore\n      pop\n      0x01\n      add\n      jump(tag_57)\n    tag_58:\n      pop\n      swap1\n      jump\t// out\n        /* \"#utility.yul\":7:419   */\n    tag_60:\n        /* \"#utility.yul\":85:90   */\n      0x00\n        /* \"#utility.yul\":110:176   */\n      tag_62\n        /* \"#utility.yul\":126:175   */\n      tag_63\n        /* \"#utility.yul\":168:174   */\n      dup5\n        /* \"#utility.yul\":126:175   */\n      tag_64\n      jump\t// in\n    tag_63:\n        /* \"#utility.yul\":110:176   */\n      tag_65\n      jump\t// in\n    tag_62:\n        /* \"#utility.yul\":101:176   */\n      swap1\n      pop\n        /* \"#utility.yul\":199:205   */\n      dup3\n        /* \"#utility.yul\":192:197   */\n      dup2\n        /* \"#utility.yul\":185:206   */\n      mstore\n        /* \"#utility.yul\":237:241   */\n      0x20\n        /* \"#utility.yul\":230:235   */\n      dup2\n        /* \"#utility.yul\":226:242   */\n      add\n        /* \"#utility.yul\":275:278   */\n      dup5\n        /* \"#utility.yul\":266:272   */\n      dup5\n        /* \"#utility.yul\":261:264   */\n      dup5\n        /* \"#utility.yul\":257:273   */\n      add\n        /* \"#utility.yul\":254:279   */\n      gt\n        /* \"#utility.yul\":251:363   */\n      iszero\n      tag_66\n      jumpi\n        /* \"#utility.yul\":282:361   */\n      tag_67\n      tag_68\n      jump\t// in\n    tag_67:\n        /* \"#utility.yul\":251:363   */\n    tag_66:\n        /* \"#utility.yul\":372:413   */\n      tag_69\n        /* \"#utility.yul\":406:412   */\n      dup5\n        /* \"#utility.yul\":401:404   */\n      dup3\n        /* \"#utility.yul\":396:399   */\n      dup6\n        /* \"#utility.yul\":372:413   */\n      tag_70\n      jump\t// in\n    tag_69:\n        /* \"#utility.yul\":91:419   */\n      pop\n        /* \"#utility.yul\":7:419   */\n      swap4\n      swap3\n      pop\n      pop\n      pop\n      jump\t// out\n        /* \"#utility.yul\":439:779   */\n    tag_71:\n        /* \"#utility.yul\":495:500   */\n      0x00\n        /* \"#utility.yul\":544:547   */\n      dup3\n        /* \"#utility.yul\":537:541   */\n      0x1f\n        /* \"#utility.yul\":529:535   */\n      dup4\n        /* \"#utility.yul\":525:542   */\n      add\n        /* \"#utility.yul\":521:548   */\n      slt\n        /* \"#utility.yul\":511:633   */\n      tag_73\n      jumpi\n        /* \"#utility.yul\":552:631   */\n      tag_74\n      tag_75\n      jump\t// in\n    tag_74:\n        /* \"#utility.yul\":511:633   */\n    tag_73:\n        /* \"#utility.yul\":669:675   */\n      dup2\n        /* \"#utility.yul\":656:676   */\n      calldataload\n        /* \"#utility.yul\":694:773   */\n      tag_76\n        /* \"#utility.yul\":769:772   */\n      dup5\n        /* \"#utility.yul\":761:767   */\n      dup3\n        /* \"#utility.yul\":754:758   */\n      0x20\n        /* \"#utility.yul\":746:752   */\n      dup7\n        /* \"#utility.yul\":742:759   */\n      add\n        /* \"#utility.yul\":694:773   */\n      tag_60\n      jump\t// in\n    tag_76:\n        /* \"#utility.yul\":685:773   */\n      swap2\n      pop\n        /* \"#utility.yul\":501:779   */\n      pop\n        /* \"#utility.yul\":439:779   */\n      swap3\n      swap2\n      pop\n      pop\n      jump\t// out\n        /* \"#utility.yul\":785:920   */\n    tag_77:\n        /* \"#utility.yul\":829:834   */\n      0x00\n        /* \"#utility.yul\":867:873   */\n      dup2\n        /* \"#utility.yul\":854:874   */\n      calldataload\n        /* \"#utility.yul\":845:874   */\n      swap1\n      pop\n        /* \"#utility.yul\":883:914   */\n      tag_79\n        /* \"#utility.yul\":908:913   */\n      dup2\n        /* \"#utility.yul\":883:914   */\n      tag_80\n      jump\t// in\n    tag_79:\n        /* \"#utility.yul\":785:920   */\n      swap3\n      swap2\n      pop\n      pop\n      jump\t// out\n        /* \"#utility.yul\":926:1435   */\n    tag_30:\n        /* \"#utility.yul\":995:1001   */\n      0x00\n        /* \"#utility.yul\":1044:1046   */\n      0x20\n        /* \"#utility.yul\":1032:1041   */\n      dup3\n        /* \"#utility.yul\":1023:1030   */\n      dup5\n        /* \"#utility.yul\":1019:1042   */\n      sub\n        /* \"#utility.yul\":1015:1047   */\n      slt\n        /* \"#utility.yul\":1012:1131   */\n      iszero\n      tag_82\n      jumpi\n        /* \"#utility.yul\":1050:1129   */\n      tag_83\n      tag_84\n      jump\t// in\n    tag_83:\n        /* \"#utility.yul\":1012:1131   */\n    tag_82:\n        /* \"#utility.yul\":1198:1199   */\n      0x00\n        /* \"#utility.yul\":1187:1196   */\n      dup3\n        /* \"#utility.yul\":1183:1200   */\n      add\n        /* \"#utility.yul\":1170:1201   */\n      calldataload\n        /* \"#utility.yul\":1228:1246   */\n      0xffffffffffffffff\n        /* \"#utility.yul\":1220:1226   */\n      dup2\n        /* \"#utility.yul\":1217:1247   */\n      gt\n        /* \"#utility.yul\":1214:1331   */\n      iszero\n      tag_85\n      jumpi\n        /* \"#utility.yul\":1250:1329   */\n      tag_86\n      tag_87\n      jump\t// in\n    tag_86:\n        /* \"#utility.yul\":1214:1331   */\n    tag_85:\n        /* \"#utility.yul\":1355:1418   */\n      tag_88\n        /* \"#utility.yul\":1410:1417   */\n      dup5\n        /* \"#utility.yul\":1401:1407   */\n      dup3\n        /* \"#utility.yul\":1390:1399   */\n      dup6\n        /* \"#utility.yul\":1386:1408   */\n      add\n        /* \"#utility.yul\":1355:1418   */\n      tag_71\n      jump\t// in\n    tag_88:\n        /* \"#utility.yul\":1345:1418   */\n      swap2\n      pop\n        /* \"#utility.yul\":1141:1428   */\n      pop\n        /* \"#utility.yul\":926:1435   */\n      swap3\n      swap2\n      pop\n      pop\n      jump\t// out\n        /* \"#utility.yul\":1441:1766   */\n    tag_19:\n        /* \"#utility.yul\":1498:1504   */\n      0x00\n        /* \"#utility.yul\":1547:1549   */\n      0x20\n        /* \"#utility.yul\":1535:1544   */\n      dup3\n        /* \"#utility.yul\":1526:1533   */\n      dup5\n        /* \"#utility.yul\":1522:1545   */\n      sub\n        /* \"#utility.yul\":1518:1550   */\n      slt\n        /* \"#utility.yul\":1515:1634   */\n      iszero\n      tag_90\n      jumpi\n        /* \"#utility.yul\":1553:1632   */\n      tag_91\n      tag_84\n      jump\t// in\n    tag_91:\n        /* \"#utility.yul\":1515:1634   */\n    tag_90:\n        /* \"#utility.yul\":1673:1674   */\n      0x00\n        /* \"#utility.yul\":1698:1749   */\n      tag_92\n        /* \"#utility.yul\":1741:1748   */\n      dup5\n        /* \"#utility.yul\":1732:1738   */\n      dup3\n        /* \"#utility.yul\":1721:1730   */\n      dup6\n        /* \"#utility.yul\":1717:1739   */\n      add\n        /* \"#utility.yul\":1698:1749   */\n      tag_77\n      jump\t// in\n    tag_92:\n        /* \"#utility.yul\":1688:1749   */\n      swap2\n      pop\n        /* \"#utility.yul\":1644:1759   */\n      pop\n        /* \"#utility.yul\":1441:1766   */\n      swap3\n      swap2\n      pop\n      pop\n      jump\t// out\n        /* \"#utility.yul\":1772:2136   */\n    tag_93:\n        /* \"#utility.yul\":1860:1863   */\n      0x00\n        /* \"#utility.yul\":1888:1927   */\n      tag_95\n        /* \"#utility.yul\":1921:1926   */\n      dup3\n        /* \"#utility.yul\":1888:1927   */\n      tag_96\n      jump\t// in\n    tag_95:\n        /* \"#utility.yul\":1943:2014   */\n      tag_97\n        /* \"#utility.yul\":2007:2013   */\n      dup2\n        /* \"#utility.yul\":2002:2005   */\n      dup6\n        /* \"#utility.yul\":1943:2014   */\n      tag_98\n      jump\t// in\n    tag_97:\n        /* \"#utility.yul\":1936:2014   */\n      swap4\n      pop\n        /* \"#utility.yul\":2023:2075   */\n      tag_99\n        /* \"#utility.yul\":2068:2074   */\n      dup2\n        /* \"#utility.yul\":2063:2066   */\n      dup6\n        /* \"#utility.yul\":2056:2060   */\n      0x20\n        /* \"#utility.yul\":2049:2054   */\n      dup7\n        /* \"#utility.yul\":2045:2061   */\n      add\n        /* \"#utility.yul\":2023:2075   */\n      tag_100\n      jump\t// in\n    tag_99:\n        /* \"#utility.yul\":2100:2129   */\n      tag_101\n        /* \"#utility.yul\":2122:2128   */\n      dup2\n        /* \"#utility.yul\":2100:2129   */\n      tag_102\n      jump\t// in\n    tag_101:\n        /* \"#utility.yul\":2095:2098   */\n      dup5\n        /* \"#utility.yul\":2091:2130   */\n      add\n        /* \"#utility.yul\":2084:2130   */\n      swap2\n      pop\n        /* \"#utility.yul\":1864:2136   */\n      pop\n        /* \"#utility.yul\":1772:2136   */\n      swap3\n      swap2\n      pop\n      pop\n      jump\t// out\n        /* \"#utility.yul\":2142:2260   */\n    tag_103:\n        /* \"#utility.yul\":2229:2253   */\n      tag_105\n        /* \"#utility.yul\":2247:2252   */\n      dup2\n        /* \"#utility.yul\":2229:2253   */\n      tag_106\n      jump\t// in\n    tag_105:\n        /* \"#utility.yul\":2224:2227   */\n      dup3\n        /* \"#utility.yul\":2217:2254   */\n      mstore\n        /* \"#utility.yul\":2142:2260   */\n      pop\n      pop\n      jump\t// out\n        /* \"#utility.yul\":2266:2378   */\n    tag_107:\n        /* \"#utility.yul\":2349:2371   */\n      tag_109\n        /* \"#utility.yul\":2365:2370   */\n      dup2\n        /* \"#utility.yul\":2349:2371   */\n      tag_110\n      jump\t// in\n    tag_109:\n        /* \"#utility.yul\":2344:2347   */\n      dup3\n        /* \"#utility.yul\":2337:2372   */\n      mstore\n        /* \"#utility.yul\":2266:2378   */\n      pop\n      pop\n      jump\t// out\n        /* \"#utility.yul\":2384:2697   */\n    tag_16:\n        /* \"#utility.yul\":2497:2501   */\n      0x00\n        /* \"#utility.yul\":2535:2537   */\n      0x20\n        /* \"#utility.yul\":2524:2533   */\n      dup3\n        /* \"#utility.yul\":2520:2538   */\n      add\n        /* \"#utility.yul\":2512:2538   */\n      swap1\n      pop\n        /* \"#utility.yul\":2584:2593   */\n      dup2\n        /* \"#utility.yul\":2578:2582   */\n      dup2\n        /* \"#utility.yul\":2574:2594   */\n      sub\n        /* \"#utility.yul\":2570:2571   */\n      0x00\n        /* \"#utility.yul\":2559:2568   */\n      dup4\n        /* \"#utility.yul\":2555:2572   */\n      add\n        /* \"#utility.yul\":2548:2595   */\n      mstore\n        /* \"#utility.yul\":2612:2690   */\n      tag_112\n        /* \"#utility.yul\":2685:2689   */\n      dup2\n        /* \"#utility.yul\":2676:2682   */\n      dup5\n        /* \"#utility.yul\":2612:2690   */\n      tag_93\n      jump\t// in\n    tag_112:\n        /* \"#utility.yul\":2604:2690   */\n      swap1\n      pop\n        /* \"#utility.yul\":2384:2697   */\n      swap3\n      swap2\n      pop\n      pop\n      jump\t// out\n        /* \"#utility.yul\":2703:2925   */\n    tag_27:\n        /* \"#utility.yul\":2796:2800   */\n      0x00\n        /* \"#utility.yul\":2834:2836   */\n      0x20\n        /* \"#utility.yul\":2823:2832   */\n      dup3\n        /* \"#utility.yul\":2819:2837   */\n      add\n        /* \"#utility.yul\":2811:2837   */\n      swap1\n      pop\n        /* \"#utility.yul\":2847:2918   */\n      tag_114\n        /* \"#utility.yul\":2915:2916   */\n      0x00\n        /* \"#utility.yul\":2904:2913   */\n      dup4\n        /* \"#utility.yul\":2900:2917   */\n      add\n        /* \"#utility.yul\":2891:2897   */\n      dup5\n        /* \"#utility.yul\":2847:2918   */\n      tag_103\n      jump\t// in\n    tag_114:\n        /* \"#utility.yul\":2703:2925   */\n      swap3\n      swap2\n      pop\n      pop\n      jump\t// out\n        /* \"#utility.yul\":2931:3145   */\n    tag_12:\n        /* \"#utility.yul\":3020:3024   */\n      0x00\n        /* \"#utility.yul\":3058:3060   */\n      0x20\n        /* \"#utility.yul\":3047:3056   */\n      dup3\n        /* \"#utility.yul\":3043:3061   */\n      add\n        /* \"#utility.yul\":3035:3061   */\n      swap1\n      pop\n        /* \"#utility.yul\":3071:3138   */\n      tag_116\n        /* \"#utility.yul\":3135:3136   */\n      0x00\n        /* \"#utility.yul\":3124:3133   */\n      dup4\n        /* \"#utility.yul\":3120:3137   */\n      add\n        /* \"#utility.yul\":3111:3117   */\n      dup5\n        /* \"#utility.yul\":3071:3138   */\n      tag_107\n      jump\t// in\n    tag_116:\n        /* \"#utility.yul\":2931:3145   */\n      swap3\n      swap2\n      pop\n      pop\n      jump\t// out\n        /* \"#utility.yul\":3151:3280   */\n    tag_65:\n        /* \"#utility.yul\":3185:3191   */\n      0x00\n        /* \"#utility.yul\":3212:3232   */\n      tag_118\n      tag_119\n      jump\t// in\n    tag_118:\n        /* \"#utility.yul\":3202:3232   */\n      swap1\n      pop\n        /* \"#utility.yul\":3241:3274   */\n      tag_120\n        /* \"#utility.yul\":3269:3273   */\n      dup3\n        /* \"#utility.yul\":3261:3267   */\n      dup3\n        /* \"#utility.yul\":3241:3274   */\n      tag_121\n      jump\t// in\n    tag_120:\n        /* \"#utility.yul\":3151:3280   */\n      swap2\n      swap1\n      pop\n      jump\t// out\n        /* \"#utility.yul\":3286:3361   */\n    tag_119:\n        /* \"#utility.yul\":3319:3325   */\n      0x00\n        /* \"#utility.yul\":3352:3354   */\n      0x40\n        /* \"#utility.yul\":3346:3355   */\n      mload\n        /* \"#utility.yul\":3336:3355   */\n      swap1\n      pop\n        /* \"#utility.yul\":3286:3361   */\n      swap1\n      jump\t// out\n        /* \"#utility.yul\":3367:3675   */\n    tag_64:\n        /* \"#utility.yul\":3429:3433   */\n      0x00\n        /* \"#utility.yul\":3519:3537   */\n      0xffffffffffffffff\n        /* \"#utility.yul\":3511:3517   */\n      dup3\n        /* \"#utility.yul\":3508:3538   */\n      gt\n        /* \"#utility.yul\":3505:3561   */\n      iszero\n      tag_124\n      jumpi\n        /* \"#utility.yul\":3541:3559   */\n      tag_125\n      tag_126\n      jump\t// in\n    tag_125:\n        /* \"#utility.yul\":3505:3561   */\n    tag_124:\n        /* \"#utility.yul\":3579:3608   */\n      tag_127\n        /* \"#utility.yul\":3601:3607   */\n      dup3\n        /* \"#utility.yul\":3579:3608   */\n      tag_102\n      jump\t// in\n    tag_127:\n        /* \"#utility.yul\":3571:3608   */\n      swap1\n      pop\n        /* \"#utility.yul\":3663:3667   */\n      0x20\n        /* \"#utility.yul\":3657:3661   */\n      dup2\n        /* \"#utility.yul\":3653:3668   */\n      add\n        /* \"#utility.yul\":3645:3668   */\n      swap1\n      pop\n        /* \"#utility.yul\":3367:3675   */\n      swap2\n      swap1\n      pop\n      jump\t// out\n        /* \"#utility.yul\":3681:3780   */\n    tag_96:\n        /* \"#utility.yul\":3733:3739   */\n      0x00\n        /* \"#utility.yul\":3767:3772   */\n      dup2\n        /* \"#utility.yul\":3761:3773   */\n      mload\n        /* \"#utility.yul\":3751:3773   */\n      swap1\n      pop\n        /* \"#utility.yul\":3681:3780   */\n      swap2\n      swap1\n      pop\n      jump\t// out\n        /* \"#utility.yul\":3786:3955   */\n    tag_98:\n        /* \"#utility.yul\":3870:3881   */\n      0x00\n        /* \"#utility.yul\":3904:3910   */\n      dup3\n        /* \"#utility.yul\":3899:3902   */\n      dup3\n        /* \"#utility.yul\":3892:3911   */\n      mstore\n        /* \"#utility.yul\":3944:3948   */\n      0x20\n        /* \"#utility.yul\":3939:3942   */\n      dup3\n        /* \"#utility.yul\":3935:3949   */\n      add\n        /* \"#utility.yul\":3920:3949   */\n      swap1\n      pop\n        /* \"#utility.yul\":3786:3955   */\n      swap3\n      swap2\n      pop\n      pop\n      jump\t// out\n        /* \"#utility.yul\":3961:4038   */\n    tag_106:\n        /* \"#utility.yul\":3998:4005   */\n      0x00\n        /* \"#utility.yul\":4027:4032   */\n      dup2\n        /* \"#utility.yul\":4016:4032   */\n      swap1\n      pop\n        /* \"#utility.yul\":3961:4038   */\n      swap2\n      swap1\n      pop\n      jump\t// out\n        /* \"#utility.yul\":4044:4130   */\n    tag_110:\n        /* \"#utility.yul\":4079:4086   */\n      0x00\n        /* \"#utility.yul\":4119:4123   */\n      0xff\n        /* \"#utility.yul\":4112:4117   */\n      dup3\n        /* \"#utility.yul\":4108:4124   */\n      and\n        /* \"#utility.yul\":4097:4124   */\n      swap1\n      pop\n        /* \"#utility.yul\":4044:4130   */\n      swap2\n      swap1\n      pop\n      jump\t// out\n        /* \"#utility.yul\":4136:4290   */\n    tag_70:\n        /* \"#utility.yul\":4220:4226   */\n      dup3\n        /* \"#utility.yul\":4215:4218   */\n      dup2\n        /* \"#utility.yul\":4210:4213   */\n      dup4\n        /* \"#utility.yul\":4197:4227   */\n      calldatacopy\n        /* \"#utility.yul\":4282:4283   */\n      0x00\n        /* \"#utility.yul\":4273:4279   */\n      dup4\n        /* \"#utility.yul\":4268:4271   */\n      dup4\n        /* \"#utility.yul\":4264:4280   */\n      add\n        /* \"#utility.yul\":4257:4284   */\n      mstore\n        /* \"#utility.yul\":4136:4290   */\n      pop\n      pop\n      pop\n      jump\t// out\n        /* \"#utility.yul\":4296:4603   */\n    tag_100:\n        /* \"#utility.yul\":4364:4365   */\n      0x00\n        /* \"#utility.yul\":4374:4487   */\n    tag_134:\n        /* \"#utility.yul\":4388:4394   */\n      dup4\n        /* \"#utility.yul\":4385:4386   */\n      dup2\n        /* \"#utility.yul\":4382:4395   */\n      lt\n        /* \"#utility.yul\":4374:4487   */\n      iszero\n      tag_136\n      jumpi\n        /* \"#utility.yul\":4473:4474   */\n      dup1\n        /* \"#utility.yul\":4468:4471   */\n      dup3\n        /* \"#utility.yul\":4464:4475   */\n      add\n        /* \"#utility.yul\":4458:4476   */\n      mload\n        /* \"#utility.yul\":4454:4455   */\n      dup2\n        /* \"#utility.yul\":4449:4452   */\n      dup5\n        /* \"#utility.yul\":4445:4456   */\n      add\n        /* \"#utility.yul\":4438:4477   */\n      mstore\n        /* \"#utility.yul\":4410:4412   */\n      0x20\n        /* \"#utility.yul\":4407:4408   */\n      dup2\n        /* \"#utility.yul\":4403:4413   */\n      add\n        /* \"#utility.yul\":4398:4413   */\n      swap1\n      pop\n        /* \"#utility.yul\":4374:4487   */\n      jump(tag_134)\n    tag_136:\n        /* \"#utility.yul\":4505:4511   */\n      dup4\n        /* \"#utility.yul\":4502:4503   */\n      dup2\n        /* \"#utility.yul\":4499:4512   */\n      gt\n        /* \"#utility.yul\":4496:4597   */\n      iszero\n      tag_137\n      jumpi\n        /* \"#utility.yul\":4585:4586   */\n      0x00\n        /* \"#utility.yul\":4576:4582   */\n      dup5\n        /* \"#utility.yul\":4571:4574   */\n      dup5\n        /* \"#utility.yul\":4567:4583   */\n      add\n        /* \"#utility.yul\":4560:4587   */\n      mstore\n        /* \"#utility.yul\":4496:4597   */\n    tag_137:\n        /* \"#utility.yul\":4345:4603   */\n      pop\n        /* \"#utility.yul\":4296:4603   */\n      pop\n      pop\n      pop\n      jump\t// out\n        /* \"#utility.yul\":4609:4929   */\n    tag_33:\n        /* \"#utility.yul\":4653:4659   */\n      0x00\n        /* \"#utility.yul\":4690:4691   */\n      0x02\n        /* \"#utility.yul\":4684:4688   */\n      dup3\n        /* \"#utility.yul\":4680:4692   */\n      div\n        /* \"#utility.yul\":4670:4692   */\n      swap1\n      pop\n        /* \"#utility.yul\":4737:4738   */\n      0x01\n        /* \"#utility.yul\":4731:4735   */\n      dup3\n        /* \"#utility.yul\":4727:4739   */\n      and\n        /* \"#utility.yul\":4758:4776   */\n      dup1\n        /* \"#utility.yul\":4748:4829   */\n      tag_139\n      jumpi\n        /* \"#utility.yul\":4814:4818   */\n      0x7f\n        /* \"#utility.yul\":4806:4812   */\n      dup3\n        /* \"#utility.yul\":4802:4819   */\n      and\n        /* \"#utility.yul\":4792:4819   */\n      swap2\n      pop\n        /* \"#utility.yul\":4748:4829   */\n    tag_139:\n        /* \"#utility.yul\":4876:4878   */\n      0x20\n        /* \"#utility.yul\":4868:4874   */\n      dup3\n        /* \"#utility.yul\":4865:4879   */\n      lt\n        /* \"#utility.yul\":4845:4863   */\n      dup2\n        /* \"#utility.yul\":4842:4880   */\n      eq\n        /* \"#utility.yul\":4839:4923   */\n      iszero\n      tag_140\n      jumpi\n        /* \"#utility.yul\":4895:4913   */\n      tag_141\n      tag_142\n      jump\t// in\n    tag_141:\n        /* \"#utility.yul\":4839:4923   */\n    tag_140:\n        /* \"#utility.yul\":4660:4929   */\n      pop\n        /* \"#utility.yul\":4609:4929   */\n      swap2\n      swap1\n      pop\n      jump\t// out\n        /* \"#utility.yul\":4935:5216   */\n    tag_121:\n        /* \"#utility.yul\":5018:5045   */\n      tag_144\n        /* \"#utility.yul\":5040:5044   */\n      dup3\n        /* \"#utility.yul\":5018:5045   */\n      tag_102\n      jump\t// in\n    tag_144:\n        /* \"#utility.yul\":5010:5016   */\n      dup2\n        /* \"#utility.yul\":5006:5046   */\n      add\n        /* \"#utility.yul\":5148:5154   */\n      dup2\n        /* \"#utility.yul\":5136:5146   */\n      dup2\n        /* \"#utility.yul\":5133:5155   */\n      lt\n        /* \"#utility.yul\":5112:5130   */\n      0xffffffffffffffff\n        /* \"#utility.yul\":5100:5110   */\n      dup3\n        /* \"#utility.yul\":5097:5131   */\n      gt\n        /* \"#utility.yul\":5094:5156   */\n      or\n        /* \"#utility.yul\":5091:5179   */\n      iszero\n      tag_145\n      jumpi\n        /* \"#utility.yul\":5159:5177   */\n      tag_146\n      tag_126\n      jump\t// in\n    tag_146:\n        /* \"#utility.yul\":5091:5179   */\n    tag_145:\n        /* \"#utility.yul\":5199:5209   */\n      dup1\n        /* \"#utility.yul\":5195:5197   */\n      0x40\n        /* \"#utility.yul\":5188:5210   */\n      mstore\n        /* \"#utility.yul\":4978:5216   */\n      pop\n        /* \"#utility.yul\":4935:5216   */\n      pop\n      pop\n      jump\t// out\n        /* \"#utility.yul\":5222:5402   */\n    tag_142:\n        /* \"#utility.yul\":5270:5347   */\n      0x4e487b7100000000000000000000000000000000000000000000000000000000\n        /* \"#utility.yul\":5267:5268   */\n      0x00\n        /* \"#utility.yul\":5260:5348   */\n      mstore\n        /* \"#utility.yul\":5367:5371   */\n      0x22\n        /* \"#utility.yul\":5364:5365   */\n      0x04\n        /* \"#utility.yul\":5357:5372   */\n      mstore\n        /* \"#utility.yul\":5391:5395   */\n      0x24\n        /* \"#utility.yul\":5388:5389   */\n      0x00\n        /* \"#utility.yul\":5381:5396   */\n      revert\n        /* \"#utility.yul\":5408:5588   */\n    tag_126:\n        /* \"#utility.yul\":5456:5533   */\n      0x4e487b7100000000000000000000000000000000000000000000000000000000\n        /* \"#utility.yul\":5453:5454   */\n      0x00\n        /* \"#utility.yul\":5446:5534   */\n      mstore\n        /* \"#utility.yul\":5553:5557   */\n      0x41\n        /* \"#utility.yul\":5550:5551   */\n      0x04\n        /* \"#utility.yul\":5543:5558   */\n      mstore\n        /* \"#utility.yul\":5577:5581   */\n      0x24\n        /* \"#utility.yul\":5574:5575   */\n      0x00\n        /* \"#utility.yul\":5567:5582   */\n      revert\n        /* \"#utility.yul\":5594:5711   */\n    tag_75:\n        /* \"#utility.yul\":5703:5704   */\n      0x00\n        /* \"#utility.yul\":5700:5701   */\n      dup1\n        /* \"#utility.yul\":5693:5705   */\n      revert\n        /* \"#utility.yul\":5717:5834   */\n    tag_68:\n        /* \"#utility.yul\":5826:5827   */\n      0x00\n        /* \"#utility.yul\":5823:5824   */\n      dup1\n        /* \"#utility.yul\":5816:5828   */\n      revert\n        /* \"#utility.yul\":5840:5957   */\n    tag_87:\n        /* \"#utility.yul\":5949:5950   */\n      0x00\n        /* \"#utility.yul\":5946:5947   */\n      dup1\n        /* \"#utility.yul\":5939:5951   */\n      revert\n        /* \"#utility.yul\":5963:6080   */\n    tag_84:\n        /* \"#utility.yul\":6072:6073   */\n      0x00\n        /* \"#utility.yul\":6069:6070   */\n      dup1\n        /* \"#utility.yul\":6062:6074   */\n      revert\n        /* \"#utility.yul\":6086:6188   */\n    tag_102:\n        /* \"#utility.yul\":6127:6133   */\n      0x00\n        /* \"#utility.yul\":6178:6180   */\n      0x1f\n        /* \"#utility.yul\":6174:6181   */\n      not\n        /* \"#utility.yul\":6169:6171   */\n      0x1f\n        /* \"#utility.yul\":6162:6167   */\n      dup4\n        /* \"#utility.yul\":6158:6172   */\n      add\n        /* \"#utility.yul\":6154:6182   */\n      and\n        /* \"#utility.yul\":6144:6182   */\n      swap1\n      pop\n        /* \"#utility.yul\":6086:6188   */\n      swap2\n      swap1\n      pop\n      jump\t// out\n        /* \"#utility.yul\":6194:6312   */\n    tag_80:\n        /* \"#utility.yul\":6265:6287   */\n      tag_155\n        /* \"#utility.yul\":6281:6286   */\n      dup2\n        /* \"#utility.yul\":6265:6287   */\n      tag_110\n      jump\t// in\n    tag_155:\n        /* \"#utility.yul\":6258:6263   */\n      dup2\n        /* \"#utility.yul\":6255:6288   */\n      eq\n        /* \"#utility.yul\":6245:6306   */\n      tag_156\n      jumpi\n        /* \"#utility.yul\":6302:6303   */\n      0x00\n        /* \"#utility.yul\":6299:6300   */\n      dup1\n        /* \"#utility.yul\":6292:6304   */\n      revert\n        /* \"#utility.yul\":6245:6306   */\n    tag_156:\n        /* \"#utility.yul\":6194:6312   */\n      pop\n      jump\t// out\n\n    auxdata: 0xa2646970667358221220212d0e5202f37b624ca80539132b33d01c686b64228218a141a8abe6180d271864736f6c63430008070033\n}\n",
				"bytecode": {
					"linkReferences": {},
					"object": "60806040523480156200001157600080fd5b5060405162000ac038038062000ac08339818101604052810190620000379190620001b8565b81600090805190602001906200004f92919062000073565b5080600160006101000a81548160ff021916908360ff1602179055505050620003c9565b8280546200008190620002c0565b90600052602060002090601f016020900481019282620000a55760008555620000f1565b82601f10620000c057805160ff1916838001178555620000f1565b82800160010185558215620000f1579182015b82811115620000f0578251825591602001919060010190620000d3565b5b50905062000100919062000104565b5090565b5b808211156200011f57600081600090555060010162000105565b5090565b60006200013a620001348462000247565b6200021e565b9050828152602081018484840111156200015957620001586200038f565b5b620001668482856200028a565b509392505050565b600082601f8301126200018657620001856200038a565b5b81516200019884826020860162000123565b91505092915050565b600081519050620001b281620003af565b92915050565b60008060408385031215620001d257620001d162000399565b5b600083015167ffffffffffffffff811115620001f357620001f262000394565b5b62000201858286016200016e565b92505060206200021485828601620001a1565b9150509250929050565b60006200022a6200023d565b9050620002388282620002f6565b919050565b6000604051905090565b600067ffffffffffffffff8211156200026557620002646200035b565b5b62000270826200039e565b9050602081019050919050565b600060ff82169050919050565b60005b83811015620002aa5780820151818401526020810190506200028d565b83811115620002ba576000848401525b50505050565b60006002820490506001821680620002d957607f821691505b60208210811415620002f057620002ef6200032c565b5b50919050565b62000301826200039e565b810181811067ffffffffffffffff821117156200032357620003226200035b565b5b80604052505050565b7f4e487b7100000000000000000000000000000000000000000000000000000000600052602260045260246000fd5b7f4e487b7100000000000000000000000000000000000000000000000000000000600052604160045260246000fd5b600080fd5b600080fd5b600080fd5b600080fd5b6000601f19601f8301169050919050565b620003ba816200027d565b8114620003c657600080fd5b50565b6106e780620003d96000396000f3fe608060405234801561001057600080fd5b50600436106100625760003560e01c8063262a9dff146100675780634f8632ba146100855780635b0c8d70146100a3578063832880e7146100bf578063967e6e65146100dd578063d0020fad146100fb575b600080fd5b61006f610117565b60405161007c91906104ce565b60405180910390f35b61008d61012a565b60405161009a9190610491565b60405180910390f35b6100bd60048036038101906100b8919061040d565b6101b8565b005b6100c76101d6565b6040516100d49190610491565b60405180910390f35b6100e5610268565b6040516100f291906104b3565b60405180910390f35b610115600480360381019061011091906103c4565b610282565b005b600160009054906101000a900460ff1681565b60008054610137906105b4565b80601f0160208091040260200160405190810160405280929190818152602001828054610163906105b4565b80156101b05780601f10610185576101008083540402835291602001916101b0565b820191906000526020600020905b81548152906001019060200180831161019357829003601f168201915b505050505081565b80600160006101000a81548160ff021916908360ff16021790555050565b6060600080546101e5906105b4565b80601f0160208091040260200160405190810160405280929190818152602001828054610211906105b4565b801561025e5780601f106102335761010080835404028352916020019161025e565b820191906000526020600020905b81548152906001019060200180831161024157829003601f168201915b5050505050905090565b6000600160009054906101000a900460ff1660ff16905090565b806000908051906020019061029892919061029c565b5050565b8280546102a8906105b4565b90600052602060002090601f0160209004810192826102ca5760008555610311565b82601f106102e357805160ff1916838001178555610311565b82800160010185558215610311579182015b828111156103105782518255916020019190600101906102f5565b5b50905061031e9190610322565b5090565b5b8082111561033b576000816000905550600101610323565b5090565b600061035261034d8461050e565b6104e9565b90508281526020810184848401111561036e5761036d61067a565b5b610379848285610572565b509392505050565b600082601f83011261039657610395610675565b5b81356103a684826020860161033f565b91505092915050565b6000813590506103be8161069a565b92915050565b6000602082840312156103da576103d9610684565b5b600082013567ffffffffffffffff8111156103f8576103f761067f565b5b61040484828501610381565b91505092915050565b60006020828403121561042357610422610684565b5b6000610431848285016103af565b91505092915050565b60006104458261053f565b61044f818561054a565b935061045f818560208601610581565b61046881610689565b840191505092915050565b61047c8161055b565b82525050565b61048b81610565565b82525050565b600060208201905081810360008301526104ab818461043a565b905092915050565b60006020820190506104c86000830184610473565b92915050565b60006020820190506104e36000830184610482565b92915050565b60006104f3610504565b90506104ff82826105e6565b919050565b6000604051905090565b600067ffffffffffffffff82111561052957610528610646565b5b61053282610689565b9050602081019050919050565b600081519050919050565b600082825260208201905092915050565b6000819050919050565b600060ff82169050919050565b82818337600083830152505050565b60005b8381101561059f578082015181840152602081019050610584565b838111156105ae576000848401525b50505050565b600060028204905060018216806105cc57607f821691505b602082108114156105e0576105df610617565b5b50919050565b6105ef82610689565b810181811067ffffffffffffffff8211171561060e5761060d610646565b5b80604052505050565b7f4e487b7100000000000000000000000000000000000000000000000000000000600052602260045260246000fd5b7f4e487b7100000000000000000000000000000000000000000000000000000000600052604160045260246000fd5b600080fd5b600080fd5b600080fd5b600080fd5b6000601f19601f8301169050919050565b6106a381610565565b81146106ae57600080fd5b5056fea2646970667358221220212d0e5202f37b624ca80539132b33d01c686b64228218a141a8abe6180d271864736f6c63430008070033",
					"opcodes": "PUSH1 0x80 PUSH1 0x40 MSTORE CALLVALUE DUP1 ISZERO PUSH3 0x11 JUMPI PUSH1 0x0 DUP1 REVERT JUMPDEST POP PUSH1 0x40 MLOAD PUSH3 0xAC0 CODESIZE SUB DUP1 PUSH3 0xAC0 DUP4 CODECOPY DUP2 DUP2 ADD PUSH1 0x40 MSTORE DUP2 ADD SWAP1 PUSH3 0x37 SWAP2 SWAP1 PUSH3 0x1B8 JUMP JUMPDEST DUP2 PUSH1 0x0 SWAP1 DUP1 MLOAD SWAP1 PUSH1 0x20 ADD SWAP1 PUSH3 0x4F SWAP3 SWAP2 SWAP1 PUSH3 0x73 JUMP JUMPDEST POP DUP1 PUSH1 0x1 PUSH1 0x0 PUSH2 0x100 EXP DUP2 SLOAD DUP2 PUSH1 0xFF MUL NOT AND SWAP1 DUP4 PUSH1 0xFF AND MUL OR SWAP1 SSTORE POP POP POP PUSH3 0x3C9 JUMP JUMPDEST DUP3 DUP1 SLOAD PUSH3 0x81 SWAP1 PUSH3 0x2C0 JUMP JUMPDEST SWAP1 PUSH1 0x0 MSTORE PUSH1 0x20 PUSH1 0x0 KECCAK256 SWAP1 PUSH1 0x1F ADD PUSH1 0x20 SWAP1 DIV DUP2 ADD SWAP3 DUP3 PUSH3 0xA5 JUMPI PUSH1 0x0 DUP6 SSTORE PUSH3 0xF1 JUMP JUMPDEST DUP3 PUSH1 0x1F LT PUSH3 0xC0 JUMPI DUP1 MLOAD PUSH1 0xFF NOT AND DUP4 DUP1 ADD OR DUP6 SSTORE PUSH3 0xF1 JUMP JUMPDEST DUP3 DUP1 ADD PUSH1 0x1 ADD DUP6 SSTORE DUP3 ISZERO PUSH3 0xF1 JUMPI SWAP2 DUP3 ADD JUMPDEST DUP3 DUP2 GT ISZERO PUSH3 0xF0 JUMPI DUP3 MLOAD DUP3 SSTORE SWAP2 PUSH1 0x20 ADD SWAP2 SWAP1 PUSH1 0x1 ADD SWAP1 PUSH3 0xD3 JUMP JUMPDEST JUMPDEST POP SWAP1 POP PUSH3 0x100 SWAP2 SWAP1 PUSH3 0x104 JUMP JUMPDEST POP SWAP1 JUMP JUMPDEST JUMPDEST DUP1 DUP3 GT ISZERO PUSH3 0x11F JUMPI PUSH1 0x0 DUP2 PUSH1 0x0 SWAP1 SSTORE POP PUSH1 0x1 ADD PUSH3 0x105 JUMP JUMPDEST POP SWAP1 JUMP JUMPDEST PUSH1 0x0 PUSH3 0x13A PUSH3 0x134 DUP5 PUSH3 0x247 JUMP JUMPDEST PUSH3 0x21E JUMP JUMPDEST SWAP1 POP DUP3 DUP2 MSTORE PUSH1 0x20 DUP2 ADD DUP5 DUP5 DUP5 ADD GT ISZERO PUSH3 0x159 JUMPI PUSH3 0x158 PUSH3 0x38F JUMP JUMPDEST JUMPDEST PUSH3 0x166 DUP5 DUP3 DUP6 PUSH3 0x28A JUMP JUMPDEST POP SWAP4 SWAP3 POP POP POP JUMP JUMPDEST PUSH1 0x0 DUP3 PUSH1 0x1F DUP4 ADD SLT PUSH3 0x186 JUMPI PUSH3 0x185 PUSH3 0x38A JUMP JUMPDEST JUMPDEST DUP2 MLOAD PUSH3 0x198 DUP5 DUP3 PUSH1 0x20 DUP7 ADD PUSH3 0x123 JUMP JUMPDEST SWAP2 POP POP SWAP3 SWAP2 POP POP JUMP JUMPDEST PUSH1 0x0 DUP2 MLOAD SWAP1 POP PUSH3 0x1B2 DUP2 PUSH3 0x3AF JUMP JUMPDEST SWAP3 SWAP2 POP POP JUMP JUMPDEST PUSH1 0x0 DUP1 PUSH1 0x40 DUP4 DUP6 SUB SLT ISZERO PUSH3 0x1D2 JUMPI PUSH3 0x1D1 PUSH3 0x399 JUMP JUMPDEST JUMPDEST PUSH1 0x0 DUP4 ADD MLOAD PUSH8 0xFFFFFFFFFFFFFFFF DUP2 GT ISZERO PUSH3 0x1F3 JUMPI PUSH3 0x1F2 PUSH3 0x394 JUMP JUMPDEST JUMPDEST PUSH3 0x201 DUP6 DUP3 DUP7 ADD PUSH3 0x16E JUMP JUMPDEST SWAP3 POP POP PUSH1 0x20 PUSH3 0x214 DUP6 DUP3 DUP7 ADD PUSH3 0x1A1 JUMP JUMPDEST SWAP2 POP POP SWAP3 POP SWAP3 SWAP1 POP JUMP JUMPDEST PUSH1 0x0 PUSH3 0x22A PUSH3 0x23D JUMP JUMPDEST SWAP1 POP PUSH3 0x238 DUP3 DUP3 PUSH3 0x2F6 JUMP JUMPDEST SWAP2 SWAP1 POP JUMP JUMPDEST PUSH1 0x0 PUSH1 0x40 MLOAD SWAP1 POP SWAP1 JUMP JUMPDEST PUSH1 0x0 PUSH8 0xFFFFFFFFFFFFFFFF DUP3 GT ISZERO PUSH3 0x265 JUMPI PUSH3 0x264 PUSH3 0x35B JUMP JUMPDEST JUMPDEST PUSH3 0x270 DUP3 PUSH3 0x39E JUMP JUMPDEST SWAP1 POP PUSH1 0x20 DUP2 ADD SWAP1 POP SWAP2 SWAP1 POP JUMP JUMPDEST PUSH1 0x0 PUSH1 0xFF DUP3 AND SWAP1 POP SWAP2 SWAP1 POP JUMP JUMPDEST PUSH1 0x0 JUMPDEST DUP4 DUP2 LT ISZERO PUSH3 0x2AA JUMPI DUP1 DUP3 ADD MLOAD DUP2 DUP5 ADD MSTORE PUSH1 0x20 DUP2 ADD SWAP1 POP PUSH3 0x28D JUMP JUMPDEST DUP4 DUP2 GT ISZERO PUSH3 0x2BA JUMPI PUSH1 0x0 DUP5 DUP5 ADD MSTORE JUMPDEST POP POP POP POP JUMP JUMPDEST PUSH1 0x0 PUSH1 0x2 DUP3 DIV SWAP1 POP PUSH1 0x1 DUP3 AND DUP1 PUSH3 0x2D9 JUMPI PUSH1 0x7F DUP3 AND SWAP2 POP JUMPDEST PUSH1 0x20 DUP3 LT DUP2 EQ ISZERO PUSH3 0x2F0 JUMPI PUSH3 0x2EF PUSH3 0x32C JUMP JUMPDEST JUMPDEST POP SWAP2 SWAP1 POP JUMP JUMPDEST PUSH3 0x301 DUP3 PUSH3 0x39E JUMP JUMPDEST DUP2 ADD DUP2 DUP2 LT PUSH8 0xFFFFFFFFFFFFFFFF DUP3 GT OR ISZERO PUSH3 0x323 JUMPI PUSH3 0x322 PUSH3 0x35B JUMP JUMPDEST JUMPDEST DUP1 PUSH1 0x40 MSTORE POP POP POP JUMP JUMPDEST PUSH32 0x4E487B7100000000000000000000000000000000000000000000000000000000 PUSH1 0x0 MSTORE PUSH1 0x22 PUSH1 0x4 MSTORE PUSH1 0x24 PUSH1 0x0 REVERT JUMPDEST PUSH32 0x4E487B7100000000000000000000000000000000000000000000000000000000 PUSH1 0x0 MSTORE PUSH1 0x41 PUSH1 0x4 MSTORE PUSH1 0x24 PUSH1 0x0 REVERT JUMPDEST PUSH1 0x0 DUP1 REVERT JUMPDEST PUSH1 0x0 DUP1 REVERT JUMPDEST PUSH1 0x0 DUP1 REVERT JUMPDEST PUSH1 0x0 DUP1 REVERT JUMPDEST PUSH1 0x0 PUSH1 0x1F NOT PUSH1 0x1F DUP4 ADD AND SWAP1 POP SWAP2 SWAP1 POP JUMP JUMPDEST PUSH3 0x3BA DUP2 PUSH3 0x27D JUMP JUMPDEST DUP2 EQ PUSH3 0x3C6 JUMPI PUSH1 0x0 DUP1 REVERT JUMPDEST POP JUMP JUMPDEST PUSH2 0x6E7 DUP1 PUSH3 0x3D9 PUSH1 0x0 CODECOPY PUSH1 0x0 RETURN INVALID PUSH1 0x80 PUSH1 0x40 MSTORE CALLVALUE DUP1 ISZERO PUSH2 0x10 JUMPI PUSH1 0x0 DUP1 REVERT JUMPDEST POP PUSH1 0x4 CALLDATASIZE LT PUSH2 0x62 JUMPI PUSH1 0x0 CALLDATALOAD PUSH1 0xE0 SHR DUP1 PUSH4 0x262A9DFF EQ PUSH2 0x67 JUMPI DUP1 PUSH4 0x4F8632BA EQ PUSH2 0x85 JUMPI DUP1 PUSH4 0x5B0C8D70 EQ PUSH2 0xA3 JUMPI DUP1 PUSH4 0x832880E7 EQ PUSH2 0xBF JUMPI DUP1 PUSH4 0x967E6E65 EQ PUSH2 0xDD JUMPI DUP1 PUSH4 0xD0020FAD EQ PUSH2 0xFB JUMPI JUMPDEST PUSH1 0x0 DUP1 REVERT JUMPDEST PUSH2 0x6F PUSH2 0x117 JUMP JUMPDEST PUSH1 0x40 MLOAD PUSH2 0x7C SWAP2 SWAP1 PUSH2 0x4CE JUMP JUMPDEST PUSH1 0x40 MLOAD DUP1 SWAP2 SUB SWAP1 RETURN JUMPDEST PUSH2 0x8D PUSH2 0x12A JUMP JUMPDEST PUSH1 0x40 MLOAD PUSH2 0x9A SWAP2 SWAP1 PUSH2 0x491 JUMP JUMPDEST PUSH1 0x40 MLOAD DUP1 SWAP2 SUB SWAP1 RETURN JUMPDEST PUSH2 0xBD PUSH1 0x4 DUP1 CALLDATASIZE SUB DUP2 ADD SWAP1 PUSH2 0xB8 SWAP2 SWAP1 PUSH2 0x40D JUMP JUMPDEST PUSH2 0x1B8 JUMP JUMPDEST STOP JUMPDEST PUSH2 0xC7 PUSH2 0x1D6 JUMP JUMPDEST PUSH1 0x40 MLOAD PUSH2 0xD4 SWAP2 SWAP1 PUSH2 0x491 JUMP JUMPDEST PUSH1 0x40 MLOAD DUP1 SWAP2 SUB SWAP1 RETURN JUMPDEST PUSH2 0xE5 PUSH2 0x268 JUMP JUMPDEST PUSH1 0x40 MLOAD PUSH2 0xF2 SWAP2 SWAP1 PUSH2 0x4B3 JUMP JUMPDEST PUSH1 0x40 MLOAD DUP1 SWAP2 SUB SWAP1 RETURN JUMPDEST PUSH2 0x115 PUSH1 0x4 DUP1 CALLDATASIZE SUB DUP2 ADD SWAP1 PUSH2 0x110 SWAP2 SWAP1 PUSH2 0x3C4 JUMP JUMPDEST PUSH2 0x282 JUMP JUMPDEST STOP JUMPDEST PUSH1 0x1 PUSH1 0x0 SWAP1 SLOAD SWAP1 PUSH2 0x100 EXP SWAP1 DIV PUSH1 0xFF AND DUP2 JUMP JUMPDEST PUSH1 0x0 DUP1 SLOAD PUSH2 0x137 SWAP1 PUSH2 0x5B4 JUMP JUMPDEST DUP1 PUSH1 0x1F ADD PUSH1 0x20 DUP1 SWAP2 DIV MUL PUSH1 0x20 ADD PUSH1 0x40 MLOAD SWAP1 DUP2 ADD PUSH1 0x40 MSTORE DUP1 SWAP3 SWAP2 SWAP1 DUP2 DUP2 MSTORE PUSH1 0x20 ADD DUP3 DUP1 SLOAD PUSH2 0x163 SWAP1 PUSH2 0x5B4 JUMP JUMPDEST DUP1 ISZERO PUSH2 0x1B0 JUMPI DUP1 PUSH1 0x1F LT PUSH2 0x185 JUMPI PUSH2 0x100 DUP1 DUP4 SLOAD DIV MUL DUP4 MSTORE SWAP2 PUSH1 0x20 ADD SWAP2 PUSH2 0x1B0 JUMP JUMPDEST DUP3 ADD SWAP2 SWAP1 PUSH1 0x0 MSTORE PUSH1 0x20 PUSH1 0x0 KECCAK256 SWAP1 JUMPDEST DUP2 SLOAD DUP2 MSTORE SWAP1 PUSH1 0x1 ADD SWAP1 PUSH1 0x20 ADD DUP1 DUP4 GT PUSH2 0x193 JUMPI DUP3 SWAP1 SUB PUSH1 0x1F AND DUP3 ADD SWAP2 JUMPDEST POP POP POP POP POP DUP2 JUMP JUMPDEST DUP1 PUSH1 0x1 PUSH1 0x0 PUSH2 0x100 EXP DUP2 SLOAD DUP2 PUSH1 0xFF MUL NOT AND SWAP1 DUP4 PUSH1 0xFF AND MUL OR SWAP1 SSTORE POP POP JUMP JUMPDEST PUSH1 0x60 PUSH1 0x0 DUP1 SLOAD PUSH2 0x1E5 SWAP1 PUSH2 0x5B4 JUMP JUMPDEST DUP1 PUSH1 0x1F ADD PUSH1 0x20 DUP1 SWAP2 DIV MUL PUSH1 0x20 ADD PUSH1 0x40 MLOAD SWAP1 DUP2 ADD PUSH1 0x40 MSTORE DUP1 SWAP3 SWAP2 SWAP1 DUP2 DUP2 MSTORE PUSH1 0x20 ADD DUP3 DUP1 SLOAD PUSH2 0x211 SWAP1 PUSH2 0x5B4 JUMP JUMPDEST DUP1 ISZERO PUSH2 0x25E JUMPI DUP1 PUSH1 0x1F LT PUSH2 0x233 JUMPI PUSH2 0x100 DUP1 DUP4 SLOAD DIV MUL DUP4 MSTORE SWAP2 PUSH1 0x20 ADD SWAP2 PUSH2 0x25E JUMP JUMPDEST DUP3 ADD SWAP2 SWAP1 PUSH1 0x0 MSTORE PUSH1 0x20 PUSH1 0x0 KECCAK256 SWAP1 JUMPDEST DUP2 SLOAD DUP2 MSTORE SWAP1 PUSH1 0x1 ADD SWAP1 PUSH1 0x20 ADD DUP1 DUP4 GT PUSH2 0x241 JUMPI DUP3 SWAP1 SUB PUSH1 0x1F AND DUP3 ADD SWAP2 JUMPDEST POP POP POP POP POP SWAP1 POP SWAP1 JUMP JUMPDEST PUSH1 0x0 PUSH1 0x1 PUSH1 0x0 SWAP1 SLOAD SWAP1 PUSH2 0x100 EXP SWAP1 DIV PUSH1 0xFF AND PUSH1 0xFF AND SWAP1 POP SWAP1 JUMP JUMPDEST DUP1 PUSH1 0x0 SWAP1 DUP1 MLOAD SWAP1 PUSH1 0x20 ADD SWAP1 PUSH2 0x298 SWAP3 SWAP2 SWAP1 PUSH2 0x29C JUMP JUMPDEST POP POP JUMP JUMPDEST DUP3 DUP1 SLOAD PUSH2 0x2A8 SWAP1 PUSH2 0x5B4 JUMP JUMPDEST SWAP1 PUSH1 0x0 MSTORE PUSH1 0x20 PUSH1 0x0 KECCAK256 SWAP1 PUSH1 0x1F ADD PUSH1 0x20 SWAP1 DIV DUP2 ADD SWAP3 DUP3 PUSH2 0x2CA JUMPI PUSH1 0x0 DUP6 SSTORE PUSH2 0x311 JUMP JUMPDEST DUP3 PUSH1 0x1F LT PUSH2 0x2E3 JUMPI DUP1 MLOAD PUSH1 0xFF NOT AND DUP4 DUP1 ADD OR DUP6 SSTORE PUSH2 0x311 JUMP JUMPDEST DUP3 DUP1 ADD PUSH1 0x1 ADD DUP6 SSTORE DUP3 ISZERO PUSH2 0x311 JUMPI SWAP2 DUP3 ADD JUMPDEST DUP3 DUP2 GT ISZERO PUSH2 0x310 JUMPI DUP3 MLOAD DUP3 SSTORE SWAP2 PUSH1 0x20 ADD SWAP2 SWAP1 PUSH1 0x1 ADD SWAP1 PUSH2 0x2F5 JUMP JUMPDEST JUMPDEST POP SWAP1 POP PUSH2 0x31E SWAP2 SWAP1 PUSH2 0x322 JUMP JUMPDEST POP SWAP1 JUMP JUMPDEST JUMPDEST DUP1 DUP3 GT ISZERO PUSH2 0x33B JUMPI PUSH1 0x0 DUP2 PUSH1 0x0 SWAP1 SSTORE POP PUSH1 0x1 ADD PUSH2 0x323 JUMP JUMPDEST POP SWAP1 JUMP JUMPDEST PUSH1 0x0 PUSH2 0x352 PUSH2 0x34D DUP5 PUSH2 0x50E JUMP JUMPDEST PUSH2 0x4E9 JUMP JUMPDEST SWAP1 POP DUP3 DUP2 MSTORE PUSH1 0x20 DUP2 ADD DUP5 DUP5 DUP5 ADD GT ISZERO PUSH2 0x36E JUMPI PUSH2 0x36D PUSH2 0x67A JUMP JUMPDEST JUMPDEST PUSH2 0x379 DUP5 DUP3 DUP6 PUSH2 0x572 JUMP JUMPDEST POP SWAP4 SWAP3 POP POP POP JUMP JUMPDEST PUSH1 0x0 DUP3 PUSH1 0x1F DUP4 ADD SLT PUSH2 0x396 JUMPI PUSH2 0x395 PUSH2 0x675 JUMP JUMPDEST JUMPDEST DUP2 CALLDATALOAD PUSH2 0x3A6 DUP5 DUP3 PUSH1 0x20 DUP7 ADD PUSH2 0x33F JUMP JUMPDEST SWAP2 POP POP SWAP3 SWAP2 POP POP JUMP JUMPDEST PUSH1 0x0 DUP2 CALLDATALOAD SWAP1 POP PUSH2 0x3BE DUP2 PUSH2 0x69A JUMP JUMPDEST SWAP3 SWAP2 POP POP JUMP JUMPDEST PUSH1 0x0 PUSH1 0x20 DUP3 DUP5 SUB SLT ISZERO PUSH2 0x3DA JUMPI PUSH2 0x3D9 PUSH2 0x684 JUMP JUMPDEST JUMPDEST PUSH1 0x0 DUP3 ADD CALLDATALOAD PUSH8 0xFFFFFFFFFFFFFFFF DUP2 GT ISZERO PUSH2 0x3F8 JUMPI PUSH2 0x3F7 PUSH2 0x67F JUMP JUMPDEST JUMPDEST PUSH2 0x404 DUP5 DUP3 DUP6 ADD PUSH2 0x381 JUMP JUMPDEST SWAP2 POP POP SWAP3 SWAP2 POP POP JUMP JUMPDEST PUSH1 0x0 PUSH1 0x20 DUP3 DUP5 SUB SLT ISZERO PUSH2 0x423 JUMPI PUSH2 0x422 PUSH2 0x684 JUMP JUMPDEST JUMPDEST PUSH1 0x0 PUSH2 0x431 DUP5 DUP3 DUP6 ADD PUSH2 0x3AF JUMP JUMPDEST SWAP2 POP POP SWAP3 SWAP2 POP POP JUMP JUMPDEST PUSH1 0x0 PUSH2 0x445 DUP3 PUSH2 0x53F JUMP JUMPDEST PUSH2 0x44F DUP2 DUP6 PUSH2 0x54A JUMP JUMPDEST SWAP4 POP PUSH2 0x45F DUP2 DUP6 PUSH1 0x20 DUP7 ADD PUSH2 0x581 JUMP JUMPDEST PUSH2 0x468 DUP2 PUSH2 0x689 JUMP JUMPDEST DUP5 ADD SWAP2 POP POP SWAP3 SWAP2 POP POP JUMP JUMPDEST PUSH2 0x47C DUP2 PUSH2 0x55B JUMP JUMPDEST DUP3 MSTORE POP POP JUMP JUMPDEST PUSH2 0x48B DUP2 PUSH2 0x565 JUMP JUMPDEST DUP3 MSTORE POP POP JUMP JUMPDEST PUSH1 0x0 PUSH1 0x20 DUP3 ADD SWAP1 POP DUP2 DUP2 SUB PUSH1 0x0 DUP4 ADD MSTORE PUSH2 0x4AB DUP2 DUP5 PUSH2 0x43A JUMP JUMPDEST SWAP1 POP SWAP3 SWAP2 POP POP JUMP JUMPDEST PUSH1 0x0 PUSH1 0x20 DUP3 ADD SWAP1 POP PUSH2 0x4C8 PUSH1 0x0 DUP4 ADD DUP5 PUSH2 0x473 JUMP JUMPDEST SWAP3 SWAP2 POP POP JUMP JUMPDEST PUSH1 0x0 PUSH1 0x20 DUP3 ADD SWAP1 POP PUSH2 0x4E3 PUSH1 0x0 DUP4 ADD DUP5 PUSH2 0x482 JUMP JUMPDEST SWAP3 SWAP2 POP POP JUMP JUMPDEST PUSH1 0x0 PUSH2 0x4F3 PUSH2 0x504 JUMP JUMPDEST SWAP1 POP PUSH2 0x4FF DUP3 DUP3 PUSH2 0x5E6 JUMP JUMPDEST SWAP2 SWAP1 POP JUMP JUMPDEST PUSH1 0x0 PUSH1 0x40 MLOAD SWAP1 POP SWAP1 JUMP JUMPDEST PUSH1 0x0 PUSH8 0xFFFFFFFFFFFFFFFF DUP3 GT ISZERO PUSH2 0x529 JUMPI PUSH2 0x528 PUSH2 0x646 JUMP JUMPDEST JUMPDEST PUSH2 0x532 DUP3 PUSH2 0x689 JUMP JUMPDEST SWAP1 POP PUSH1 0x20 DUP2 ADD SWAP1 POP SWAP2 SWAP1 POP JUMP JUMPDEST PUSH1 0x0 DUP2 MLOAD SWAP1 POP SWAP2 SWAP1 POP JUMP JUMPDEST PUSH1 0x0 DUP3 DUP3 MSTORE PUSH1 0x20 DUP3 ADD SWAP1 POP SWAP3 SWAP2 POP POP JUMP JUMPDEST PUSH1 0x0 DUP2 SWAP1 POP SWAP2 SWAP1 POP JUMP JUMPDEST PUSH1 0x0 PUSH1 0xFF DUP3 AND SWAP1 POP SWAP2 SWAP1 POP JUMP JUMPDEST DUP3 DUP2 DUP4 CALLDATACOPY PUSH1 0x0 DUP4 DUP4 ADD MSTORE POP POP POP JUMP JUMPDEST PUSH1 0x0 JUMPDEST DUP4 DUP2 LT ISZERO PUSH2 0x59F JUMPI DUP1 DUP3 ADD MLOAD DUP2 DUP5 ADD MSTORE PUSH1 0x20 DUP2 ADD SWAP1 POP PUSH2 0x584 JUMP JUMPDEST DUP4 DUP2 GT ISZERO PUSH2 0x5AE JUMPI PUSH1 0x0 DUP5 DUP5 ADD MSTORE JUMPDEST POP POP POP POP JUMP JUMPDEST PUSH1 0x0 PUSH1 0x2 DUP3 DIV SWAP1 POP PUSH1 0x1 DUP3 AND DUP1 PUSH2 0x5CC JUMPI PUSH1 0x7F DUP3 AND SWAP2 POP JUMPDEST PUSH1 0x20 DUP3 LT DUP2 EQ ISZERO PUSH2 0x5E0 JUMPI PUSH2 0x5DF PUSH2 0x617 JUMP JUMPDEST JUMPDEST POP SWAP2 SWAP1 POP JUMP JUMPDEST PUSH2 0x5EF DUP3 PUSH2 0x689 JUMP JUMPDEST DUP2 ADD DUP2 DUP2 LT PUSH8 0xFFFFFFFFFFFFFFFF DUP3 GT OR ISZERO PUSH2 0x60E JUMPI PUSH2 0x60D PUSH2 0x646 JUMP JUMPDEST JUMPDEST DUP1 PUSH1 0x40 MSTORE POP POP POP JUMP JUMPDEST PUSH32 0x4E487B7100000000000000000000000000000000000000000000000000000000 PUSH1 0x0 MSTORE PUSH1 0x22 PUSH1 0x4 MSTORE PUSH1 0x24 PUSH1 0x0 REVERT JUMPDEST PUSH32 0x4E487B7100000000000000000000000000000000000000000000000000000000 PUSH1 0x0 MSTORE PUSH1 0x41 PUSH1 0x4 MSTORE PUSH1 0x24 PUSH1 0x0 REVERT JUMPDEST PUSH1 0x0 DUP1 REVERT JUMPDEST PUSH1 0x0 DUP1 REVERT JUMPDEST PUSH1 0x0 DUP1 REVERT JUMPDEST PUSH1 0x0 DUP1 REVERT JUMPDEST PUSH1 0x0 PUSH1 0x1F NOT PUSH1 0x1F DUP4 ADD AND SWAP1 POP SWAP2 SWAP1 POP JUMP JUMPDEST PUSH2 0x6A3 DUP2 PUSH2 0x565 JUMP JUMPDEST DUP2 EQ PUSH2 0x6AE JUMPI PUSH1 0x0 DUP1 REVERT JUMPDEST POP JUMP INVALID LOG2 PUSH5 0x6970667358 0x22 SLT KECCAK256 0x21 0x2D 0xE MSTORE MUL RETURN PUSH28 0x624CA80539132B33D01C686B64228218A141A8ABE6180D271864736F PUSH13 0x63430008070033000000000000 "
				},
				"gasEstimates": {
					"creation": {
						"codeDepositCost": "353400",
						"executionCost": "infinite",
						"totalCost": "infinite"
					},
					"external": {
						"age()": "2449",
						"getAge()": "2545",
						"getUser()": "infinite",
						"setAge(uint8)": "24701",
						"setUser(string)": "infinite",
						"user()": "infinite"
					}
				},
				"methodIdentifiers": {
					"age()": "262a9dff",
					"getAge()": "967e6e65",
					"getUser()": "832880e7",
					"setAge(uint8)": "5b0c8d70",
					"setUser(string)": "d0020fad",
					"user()": "4f8632ba"
				}
			},
			"storageLayout": {
				"storage": [
					{
						"astId": 3,
						"contract": "extends.sol:Person",
						"label": "user",
						"offset": 0,
						"slot": "0",
						"type": "t_string_storage"
					},
					{
						"astId": 5,
						"contract": "extends.sol:Person",
						"label": "age",
						"offset": 0,
						"slot": "1",
						"type": "t_uint8"
					}
				],
				"types": {
					"t_string_storage": {
						"encoding": "bytes",
						"label": "string",
						"numberOfBytes": "32"
					},
					"t_uint8": {
						"encoding": "inplace",
						"label": "uint8",
						"numberOfBytes": "1"
					}
				}
			},
			"userdoc": {
				"kind": "user",
				"methods": {},
				"version": 1
			}
		}
	}
}