{
	"array2.sol": {
		"ArrayTest": {
			"abi": [
				{
					"inputs": [
						{
							"internalType": "string",
							"name": "_name",
							"type": "string"
						},
						{
							"internalType": "uint256",
							"name": "_age",
							"type": "uint256"
						}
					],
					"name": "add",
					"outputs": [],
					"stateMutability": "nonpayable",
					"type": "function"
				}
			],
			"devdoc": {
				"kind": "dev",
				"methods": {},
				"version": 1
			},
			"evm": {
				"assembly": "    /* \"array2.sol\":152:378  contract ArrayTest {... */\n  mstore(0x40, 0x80)\n  callvalue\n  dup1\n  iszero\n  tag_1\n  jumpi\n  0x00\n  dup1\n  revert\ntag_1:\n  pop\n  dataSize(sub_0)\n  dup1\n  dataOffset(sub_0)\n  0x00\n  codecopy\n  0x00\n  return\nstop\n\nsub_0: assembly {\n        /* \"array2.sol\":152:378  contract ArrayTest {... */\n      mstore(0x40, 0x80)\n      callvalue\n      dup1\n      iszero\n      tag_1\n      jumpi\n      0x00\n      dup1\n      revert\n    tag_1:\n      pop\n      jumpi(tag_2, lt(calldatasize, 0x04))\n      shr(0xe0, calldataload(0x00))\n      dup1\n      0x36555b85\n      eq\n      tag_3\n      jumpi\n    tag_2:\n      0x00\n      dup1\n      revert\n        /* \"array2.sol\":267:375  function add(string memory _name,uint _age) public {... */\n    tag_3:\n      tag_4\n      0x04\n      dup1\n      calldatasize\n      sub\n      dup2\n      add\n      swap1\n      tag_5\n      swap2\n      swap1\n      tag_6\n      jump\t// in\n    tag_5:\n      tag_7\n      jump\t// in\n    tag_4:\n      stop\n    tag_7:\n        /* \"array2.sol\":329:333  list */\n      0x00\n        /* \"array2.sol\":339:366  User({name:_name,age:_age}) */\n      mload(0x40)\n      dup1\n      0x40\n      add\n      0x40\n      mstore\n      dup1\n        /* \"array2.sol\":350:355  _name */\n      dup5\n        /* \"array2.sol\":339:366  User({name:_name,age:_age}) */\n      dup2\n      mstore\n      0x20\n      add\n        /* \"array2.sol\":360:364  _age */\n      dup4\n        /* \"array2.sol\":339:366  User({name:_name,age:_age}) */\n      dup2\n      mstore\n      pop\n        /* \"array2.sol\":329:367  list.push(User({name:_name,age:_age})) */\n      swap1\n      dup1\n      0x01\n      dup2\n      sload\n      add\n      dup1\n      dup3\n      sstore\n      dup1\n      swap2\n      pop\n      pop\n      0x01\n      swap1\n      sub\n      swap1\n      0x00\n      mstore\n      keccak256(0x00, 0x20)\n      swap1\n      0x02\n      mul\n      add\n      0x00\n      swap1\n      swap2\n      swap1\n      swap2\n      swap1\n      swap2\n      pop\n      0x00\n      dup3\n      add\n      mload\n      dup2\n      0x00\n      add\n      swap1\n      dup2\n      tag_10\n      swap2\n      swap1\n      tag_11\n      jump\t// in\n    tag_10:\n      pop\n      0x20\n      dup3\n      add\n      mload\n      dup2\n      0x01\n      add\n      sstore\n      pop\n      pop\n        /* \"array2.sol\":267:375  function add(string memory _name,uint _age) public {... */\n      pop\n      pop\n      jump\t// out\n        /* \"#utility.yul\":7:82   */\n    tag_12:\n        /* \"#utility.yul\":40:46   */\n      0x00\n        /* \"#utility.yul\":73:75   */\n      0x40\n        /* \"#utility.yul\":67:76   */\n      mload\n        /* \"#utility.yul\":57:76   */\n      swap1\n      pop\n        /* \"#utility.yul\":7:82   */\n      swap1\n      jump\t// out\n        /* \"#utility.yul\":88:205   */\n    tag_13:\n        /* \"#utility.yul\":197:198   */\n      0x00\n        /* \"#utility.yul\":194:195   */\n      dup1\n        /* \"#utility.yul\":187:199   */\n      revert\n        /* \"#utility.yul\":211:328   */\n    tag_14:\n        /* \"#utility.yul\":320:321   */\n      0x00\n        /* \"#utility.yul\":317:318   */\n      dup1\n        /* \"#utility.yul\":310:322   */\n      revert\n        /* \"#utility.yul\":334:451   */\n    tag_15:\n        /* \"#utility.yul\":443:444   */\n      0x00\n        /* \"#utility.yul\":440:441   */\n      dup1\n        /* \"#utility.yul\":433:445   */\n      revert\n        /* \"#utility.yul\":457:574   */\n    tag_16:\n        /* \"#utility.yul\":566:567   */\n      0x00\n        /* \"#utility.yul\":563:564   */\n      dup1\n        /* \"#utility.yul\":556:568   */\n      revert\n        /* \"#utility.yul\":580:682   */\n    tag_17:\n        /* \"#utility.yul\":621:627   */\n      0x00\n        /* \"#utility.yul\":672:674   */\n      0x1f\n        /* \"#utility.yul\":668:675   */\n      not\n        /* \"#utility.yul\":663:665   */\n      0x1f\n        /* \"#utility.yul\":656:661   */\n      dup4\n        /* \"#utility.yul\":652:666   */\n      add\n        /* \"#utility.yul\":648:676   */\n      and\n        /* \"#utility.yul\":638:676   */\n      swap1\n      pop\n        /* \"#utility.yul\":580:682   */\n      swap2\n      swap1\n      pop\n      jump\t// out\n        /* \"#utility.yul\":688:868   */\n    tag_18:\n        /* \"#utility.yul\":736:813   */\n      0x4e487b7100000000000000000000000000000000000000000000000000000000\n        /* \"#utility.yul\":733:734   */\n      0x00\n        /* \"#utility.yul\":726:814   */\n      mstore\n        /* \"#utility.yul\":833:837   */\n      0x41\n        /* \"#utility.yul\":830:831   */\n      0x04\n        /* \"#utility.yul\":823:838   */\n      mstore\n        /* \"#utility.yul\":857:861   */\n      0x24\n        /* \"#utility.yul\":854:855   */\n      0x00\n        /* \"#utility.yul\":847:862   */\n      revert\n        /* \"#utility.yul\":874:1155   */\n    tag_19:\n        /* \"#utility.yul\":957:984   */\n      tag_55\n        /* \"#utility.yul\":979:983   */\n      dup3\n        /* \"#utility.yul\":957:984   */\n      tag_17\n      jump\t// in\n    tag_55:\n        /* \"#utility.yul\":949:955   */\n      dup2\n        /* \"#utility.yul\":945:985   */\n      add\n        /* \"#utility.yul\":1087:1093   */\n      dup2\n        /* \"#utility.yul\":1075:1085   */\n      dup2\n        /* \"#utility.yul\":1072:1094   */\n      lt\n        /* \"#utility.yul\":1051:1069   */\n      0xffffffffffffffff\n        /* \"#utility.yul\":1039:1049   */\n      dup3\n        /* \"#utility.yul\":1036:1070   */\n      gt\n        /* \"#utility.yul\":1033:1095   */\n      or\n        /* \"#utility.yul\":1030:1118   */\n      iszero\n      tag_56\n      jumpi\n        /* \"#utility.yul\":1098:1116   */\n      tag_57\n      tag_18\n      jump\t// in\n    tag_57:\n        /* \"#utility.yul\":1030:1118   */\n    tag_56:\n        /* \"#utility.yul\":1138:1148   */\n      dup1\n        /* \"#utility.yul\":1134:1136   */\n      0x40\n        /* \"#utility.yul\":1127:1149   */\n      mstore\n        /* \"#utility.yul\":917:1155   */\n      pop\n        /* \"#utility.yul\":874:1155   */\n      pop\n      pop\n      jump\t// out\n        /* \"#utility.yul\":1161:1290   */\n    tag_20:\n        /* \"#utility.yul\":1195:1201   */\n      0x00\n        /* \"#utility.yul\":1222:1242   */\n      tag_59\n      tag_12\n      jump\t// in\n    tag_59:\n        /* \"#utility.yul\":1212:1242   */\n      swap1\n      pop\n        /* \"#utility.yul\":1251:1284   */\n      tag_60\n        /* \"#utility.yul\":1279:1283   */\n      dup3\n        /* \"#utility.yul\":1271:1277   */\n      dup3\n        /* \"#utility.yul\":1251:1284   */\n      tag_19\n      jump\t// in\n    tag_60:\n        /* \"#utility.yul\":1161:1290   */\n      swap2\n      swap1\n      pop\n      jump\t// out\n        /* \"#utility.yul\":1296:1604   */\n    tag_21:\n        /* \"#utility.yul\":1358:1362   */\n      0x00\n        /* \"#utility.yul\":1448:1466   */\n      0xffffffffffffffff\n        /* \"#utility.yul\":1440:1446   */\n      dup3\n        /* \"#utility.yul\":1437:1467   */\n      gt\n        /* \"#utility.yul\":1434:1490   */\n      iszero\n      tag_62\n      jumpi\n        /* \"#utility.yul\":1470:1488   */\n      tag_63\n      tag_18\n      jump\t// in\n    tag_63:\n        /* \"#utility.yul\":1434:1490   */\n    tag_62:\n        /* \"#utility.yul\":1508:1537   */\n      tag_64\n        /* \"#utility.yul\":1530:1536   */\n      dup3\n        /* \"#utility.yul\":1508:1537   */\n      tag_17\n      jump\t// in\n    tag_64:\n        /* \"#utility.yul\":1500:1537   */\n      swap1\n      pop\n        /* \"#utility.yul\":1592:1596   */\n      0x20\n        /* \"#utility.yul\":1586:1590   */\n      dup2\n        /* \"#utility.yul\":1582:1597   */\n      add\n        /* \"#utility.yul\":1574:1597   */\n      swap1\n      pop\n        /* \"#utility.yul\":1296:1604   */\n      swap2\n      swap1\n      pop\n      jump\t// out\n        /* \"#utility.yul\":1610:1764   */\n    tag_22:\n        /* \"#utility.yul\":1694:1700   */\n      dup3\n        /* \"#utility.yul\":1689:1692   */\n      dup2\n        /* \"#utility.yul\":1684:1687   */\n      dup4\n        /* \"#utility.yul\":1671:1701   */\n      calldatacopy\n        /* \"#utility.yul\":1756:1757   */\n      0x00\n        /* \"#utility.yul\":1747:1753   */\n      dup4\n        /* \"#utility.yul\":1742:1745   */\n      dup4\n        /* \"#utility.yul\":1738:1754   */\n      add\n        /* \"#utility.yul\":1731:1758   */\n      mstore\n        /* \"#utility.yul\":1610:1764   */\n      pop\n      pop\n      pop\n      jump\t// out\n        /* \"#utility.yul\":1770:2182   */\n    tag_23:\n        /* \"#utility.yul\":1848:1853   */\n      0x00\n        /* \"#utility.yul\":1873:1939   */\n      tag_67\n        /* \"#utility.yul\":1889:1938   */\n      tag_68\n        /* \"#utility.yul\":1931:1937   */\n      dup5\n        /* \"#utility.yul\":1889:1938   */\n      tag_21\n      jump\t// in\n    tag_68:\n        /* \"#utility.yul\":1873:1939   */\n      tag_20\n      jump\t// in\n    tag_67:\n        /* \"#utility.yul\":1864:1939   */\n      swap1\n      pop\n        /* \"#utility.yul\":1962:1968   */\n      dup3\n        /* \"#utility.yul\":1955:1960   */\n      dup2\n        /* \"#utility.yul\":1948:1969   */\n      mstore\n        /* \"#utility.yul\":2000:2004   */\n      0x20\n        /* \"#utility.yul\":1993:1998   */\n      dup2\n        /* \"#utility.yul\":1989:2005   */\n      add\n        /* \"#utility.yul\":2038:2041   */\n      dup5\n        /* \"#utility.yul\":2029:2035   */\n      dup5\n        /* \"#utility.yul\":2024:2027   */\n      dup5\n        /* \"#utility.yul\":2020:2036   */\n      add\n        /* \"#utility.yul\":2017:2042   */\n      gt\n        /* \"#utility.yul\":2014:2126   */\n      iszero\n      tag_69\n      jumpi\n        /* \"#utility.yul\":2045:2124   */\n      tag_70\n      tag_16\n      jump\t// in\n    tag_70:\n        /* \"#utility.yul\":2014:2126   */\n    tag_69:\n        /* \"#utility.yul\":2135:2176   */\n      tag_71\n        /* \"#utility.yul\":2169:2175   */\n      dup5\n        /* \"#utility.yul\":2164:2167   */\n      dup3\n        /* \"#utility.yul\":2159:2162   */\n      dup6\n        /* \"#utility.yul\":2135:2176   */\n      tag_22\n      jump\t// in\n    tag_71:\n        /* \"#utility.yul\":1854:2182   */\n      pop\n        /* \"#utility.yul\":1770:2182   */\n      swap4\n      swap3\n      pop\n      pop\n      pop\n      jump\t// out\n        /* \"#utility.yul\":2202:2542   */\n    tag_24:\n        /* \"#utility.yul\":2258:2263   */\n      0x00\n        /* \"#utility.yul\":2307:2310   */\n      dup3\n        /* \"#utility.yul\":2300:2304   */\n      0x1f\n        /* \"#utility.yul\":2292:2298   */\n      dup4\n        /* \"#utility.yul\":2288:2305   */\n      add\n        /* \"#utility.yul\":2284:2311   */\n      slt\n        /* \"#utility.yul\":2274:2396   */\n      tag_73\n      jumpi\n        /* \"#utility.yul\":2315:2394   */\n      tag_74\n      tag_15\n      jump\t// in\n    tag_74:\n        /* \"#utility.yul\":2274:2396   */\n    tag_73:\n        /* \"#utility.yul\":2432:2438   */\n      dup2\n        /* \"#utility.yul\":2419:2439   */\n      calldataload\n        /* \"#utility.yul\":2457:2536   */\n      tag_75\n        /* \"#utility.yul\":2532:2535   */\n      dup5\n        /* \"#utility.yul\":2524:2530   */\n      dup3\n        /* \"#utility.yul\":2517:2521   */\n      0x20\n        /* \"#utility.yul\":2509:2515   */\n      dup7\n        /* \"#utility.yul\":2505:2522   */\n      add\n        /* \"#utility.yul\":2457:2536   */\n      tag_23\n      jump\t// in\n    tag_75:\n        /* \"#utility.yul\":2448:2536   */\n      swap2\n      pop\n        /* \"#utility.yul\":2264:2542   */\n      pop\n        /* \"#utility.yul\":2202:2542   */\n      swap3\n      swap2\n      pop\n      pop\n      jump\t// out\n        /* \"#utility.yul\":2548:2625   */\n    tag_25:\n        /* \"#utility.yul\":2585:2592   */\n      0x00\n        /* \"#utility.yul\":2614:2619   */\n      dup2\n        /* \"#utility.yul\":2603:2619   */\n      swap1\n      pop\n        /* \"#utility.yul\":2548:2625   */\n      swap2\n      swap1\n      pop\n      jump\t// out\n        /* \"#utility.yul\":2631:2753   */\n    tag_26:\n        /* \"#utility.yul\":2704:2728   */\n      tag_78\n        /* \"#utility.yul\":2722:2727   */\n      dup2\n        /* \"#utility.yul\":2704:2728   */\n      tag_25\n      jump\t// in\n    tag_78:\n        /* \"#utility.yul\":2697:2702   */\n      dup2\n        /* \"#utility.yul\":2694:2729   */\n      eq\n        /* \"#utility.yul\":2684:2747   */\n      tag_79\n      jumpi\n        /* \"#utility.yul\":2743:2744   */\n      0x00\n        /* \"#utility.yul\":2740:2741   */\n      dup1\n        /* \"#utility.yul\":2733:2745   */\n      revert\n        /* \"#utility.yul\":2684:2747   */\n    tag_79:\n        /* \"#utility.yul\":2631:2753   */\n      pop\n      jump\t// out\n        /* \"#utility.yul\":2759:2898   */\n    tag_27:\n        /* \"#utility.yul\":2805:2810   */\n      0x00\n        /* \"#utility.yul\":2843:2849   */\n      dup2\n        /* \"#utility.yul\":2830:2850   */\n      calldataload\n        /* \"#utility.yul\":2821:2850   */\n      swap1\n      pop\n        /* \"#utility.yul\":2859:2892   */\n      tag_81\n        /* \"#utility.yul\":2886:2891   */\n      dup2\n        /* \"#utility.yul\":2859:2892   */\n      tag_26\n      jump\t// in\n    tag_81:\n        /* \"#utility.yul\":2759:2898   */\n      swap3\n      swap2\n      pop\n      pop\n      jump\t// out\n        /* \"#utility.yul\":2904:3558   */\n    tag_6:\n        /* \"#utility.yul\":2982:2988   */\n      0x00\n        /* \"#utility.yul\":2990:2996   */\n      dup1\n        /* \"#utility.yul\":3039:3041   */\n      0x40\n        /* \"#utility.yul\":3027:3036   */\n      dup4\n        /* \"#utility.yul\":3018:3025   */\n      dup6\n        /* \"#utility.yul\":3014:3037   */\n      sub\n        /* \"#utility.yul\":3010:3042   */\n      slt\n        /* \"#utility.yul\":3007:3126   */\n      iszero\n      tag_83\n      jumpi\n        /* \"#utility.yul\":3045:3124   */\n      tag_84\n      tag_13\n      jump\t// in\n    tag_84:\n        /* \"#utility.yul\":3007:3126   */\n    tag_83:\n        /* \"#utility.yul\":3193:3194   */\n      0x00\n        /* \"#utility.yul\":3182:3191   */\n      dup4\n        /* \"#utility.yul\":3178:3195   */\n      add\n        /* \"#utility.yul\":3165:3196   */\n      calldataload\n        /* \"#utility.yul\":3223:3241   */\n      0xffffffffffffffff\n        /* \"#utility.yul\":3215:3221   */\n      dup2\n        /* \"#utility.yul\":3212:3242   */\n      gt\n        /* \"#utility.yul\":3209:3326   */\n      iszero\n      tag_85\n      jumpi\n        /* \"#utility.yul\":3245:3324   */\n      tag_86\n      tag_14\n      jump\t// in\n    tag_86:\n        /* \"#utility.yul\":3209:3326   */\n    tag_85:\n        /* \"#utility.yul\":3350:3413   */\n      tag_87\n        /* \"#utility.yul\":3405:3412   */\n      dup6\n        /* \"#utility.yul\":3396:3402   */\n      dup3\n        /* \"#utility.yul\":3385:3394   */\n      dup7\n        /* \"#utility.yul\":3381:3403   */\n      add\n        /* \"#utility.yul\":3350:3413   */\n      tag_24\n      jump\t// in\n    tag_87:\n        /* \"#utility.yul\":3340:3413   */\n      swap3\n      pop\n        /* \"#utility.yul\":3136:3423   */\n      pop\n        /* \"#utility.yul\":3462:3464   */\n      0x20\n        /* \"#utility.yul\":3488:3541   */\n      tag_88\n        /* \"#utility.yul\":3533:3540   */\n      dup6\n        /* \"#utility.yul\":3524:3530   */\n      dup3\n        /* \"#utility.yul\":3513:3522   */\n      dup7\n        /* \"#utility.yul\":3509:3531   */\n      add\n        /* \"#utility.yul\":3488:3541   */\n      tag_27\n      jump\t// in\n    tag_88:\n        /* \"#utility.yul\":3478:3541   */\n      swap2\n      pop\n        /* \"#utility.yul\":3433:3551   */\n      pop\n        /* \"#utility.yul\":2904:3558   */\n      swap3\n      pop\n      swap3\n      swap1\n      pop\n      jump\t// out\n        /* \"#utility.yul\":3564:3663   */\n    tag_28:\n        /* \"#utility.yul\":3616:3622   */\n      0x00\n        /* \"#utility.yul\":3650:3655   */\n      dup2\n        /* \"#utility.yul\":3644:3656   */\n      mload\n        /* \"#utility.yul\":3634:3656   */\n      swap1\n      pop\n        /* \"#utility.yul\":3564:3663   */\n      swap2\n      swap1\n      pop\n      jump\t// out\n        /* \"#utility.yul\":3669:3849   */\n    tag_29:\n        /* \"#utility.yul\":3717:3794   */\n      0x4e487b7100000000000000000000000000000000000000000000000000000000\n        /* \"#utility.yul\":3714:3715   */\n      0x00\n        /* \"#utility.yul\":3707:3795   */\n      mstore\n        /* \"#utility.yul\":3814:3818   */\n      0x22\n        /* \"#utility.yul\":3811:3812   */\n      0x04\n        /* \"#utility.yul\":3804:3819   */\n      mstore\n        /* \"#utility.yul\":3838:3842   */\n      0x24\n        /* \"#utility.yul\":3835:3836   */\n      0x00\n        /* \"#utility.yul\":3828:3843   */\n      revert\n        /* \"#utility.yul\":3855:4175   */\n    tag_30:\n        /* \"#utility.yul\":3899:3905   */\n      0x00\n        /* \"#utility.yul\":3936:3937   */\n      0x02\n        /* \"#utility.yul\":3930:3934   */\n      dup3\n        /* \"#utility.yul\":3926:3938   */\n      div\n        /* \"#utility.yul\":3916:3938   */\n      swap1\n      pop\n        /* \"#utility.yul\":3983:3984   */\n      0x01\n        /* \"#utility.yul\":3977:3981   */\n      dup3\n        /* \"#utility.yul\":3973:3985   */\n      and\n        /* \"#utility.yul\":4004:4022   */\n      dup1\n        /* \"#utility.yul\":3994:4075   */\n      tag_92\n      jumpi\n        /* \"#utility.yul\":4060:4064   */\n      0x7f\n        /* \"#utility.yul\":4052:4058   */\n      dup3\n        /* \"#utility.yul\":4048:4065   */\n      and\n        /* \"#utility.yul\":4038:4065   */\n      swap2\n      pop\n        /* \"#utility.yul\":3994:4075   */\n    tag_92:\n        /* \"#utility.yul\":4122:4124   */\n      0x20\n        /* \"#utility.yul\":4114:4120   */\n      dup3\n        /* \"#utility.yul\":4111:4125   */\n      lt\n        /* \"#utility.yul\":4091:4109   */\n      dup2\n        /* \"#utility.yul\":4088:4126   */\n      sub\n        /* \"#utility.yul\":4085:4169   */\n      tag_93\n      jumpi\n        /* \"#utility.yul\":4141:4159   */\n      tag_94\n      tag_29\n      jump\t// in\n    tag_94:\n        /* \"#utility.yul\":4085:4169   */\n    tag_93:\n        /* \"#utility.yul\":3906:4175   */\n      pop\n        /* \"#utility.yul\":3855:4175   */\n      swap2\n      swap1\n      pop\n      jump\t// out\n        /* \"#utility.yul\":4181:4322   */\n    tag_31:\n        /* \"#utility.yul\":4230:4234   */\n      0x00\n        /* \"#utility.yul\":4253:4256   */\n      dup2\n        /* \"#utility.yul\":4245:4256   */\n      swap1\n      pop\n        /* \"#utility.yul\":4276:4279   */\n      dup2\n        /* \"#utility.yul\":4273:4274   */\n      0x00\n        /* \"#utility.yul\":4266:4280   */\n      mstore\n        /* \"#utility.yul\":4310:4314   */\n      0x20\n        /* \"#utility.yul\":4307:4308   */\n      0x00\n        /* \"#utility.yul\":4297:4315   */\n      keccak256\n        /* \"#utility.yul\":4289:4315   */\n      swap1\n      pop\n        /* \"#utility.yul\":4181:4322   */\n      swap2\n      swap1\n      pop\n      jump\t// out\n        /* \"#utility.yul\":4328:4421   */\n    tag_32:\n        /* \"#utility.yul\":4365:4371   */\n      0x00\n        /* \"#utility.yul\":4412:4414   */\n      0x20\n        /* \"#utility.yul\":4407:4409   */\n      0x1f\n        /* \"#utility.yul\":4400:4405   */\n      dup4\n        /* \"#utility.yul\":4396:4410   */\n      add\n        /* \"#utility.yul\":4392:4415   */\n      div\n        /* \"#utility.yul\":4382:4415   */\n      swap1\n      pop\n        /* \"#utility.yul\":4328:4421   */\n      swap2\n      swap1\n      pop\n      jump\t// out\n        /* \"#utility.yul\":4427:4534   */\n    tag_33:\n        /* \"#utility.yul\":4471:4479   */\n      0x00\n        /* \"#utility.yul\":4521:4526   */\n      dup3\n        /* \"#utility.yul\":4515:4519   */\n      dup3\n        /* \"#utility.yul\":4511:4527   */\n      shl\n        /* \"#utility.yul\":4490:4527   */\n      swap1\n      pop\n        /* \"#utility.yul\":4427:4534   */\n      swap3\n      swap2\n      pop\n      pop\n      jump\t// out\n        /* \"#utility.yul\":4540:4933   */\n    tag_34:\n        /* \"#utility.yul\":4609:4615   */\n      0x00\n        /* \"#utility.yul\":4659:4660   */\n      0x08\n        /* \"#utility.yul\":4647:4657   */\n      dup4\n        /* \"#utility.yul\":4643:4661   */\n      mul\n        /* \"#utility.yul\":4682:4779   */\n      tag_99\n        /* \"#utility.yul\":4712:4778   */\n      0xffffffffffffffffffffffffffffffffffffffffffffffffffffffffffffffff\n        /* \"#utility.yul\":4701:4710   */\n      dup3\n        /* \"#utility.yul\":4682:4779   */\n      tag_33\n      jump\t// in\n    tag_99:\n        /* \"#utility.yul\":4800:4839   */\n      tag_100\n        /* \"#utility.yul\":4830:4838   */\n      dup7\n        /* \"#utility.yul\":4819:4828   */\n      dup4\n        /* \"#utility.yul\":4800:4839   */\n      tag_33\n      jump\t// in\n    tag_100:\n        /* \"#utility.yul\":4788:4839   */\n      swap6\n      pop\n        /* \"#utility.yul\":4872:4876   */\n      dup1\n        /* \"#utility.yul\":4868:4877   */\n      not\n        /* \"#utility.yul\":4861:4866   */\n      dup5\n        /* \"#utility.yul\":4857:4878   */\n      and\n        /* \"#utility.yul\":4848:4878   */\n      swap4\n      pop\n        /* \"#utility.yul\":4921:4925   */\n      dup1\n        /* \"#utility.yul\":4911:4919   */\n      dup7\n        /* \"#utility.yul\":4907:4926   */\n      and\n        /* \"#utility.yul\":4900:4905   */\n      dup5\n        /* \"#utility.yul\":4897:4927   */\n      or\n        /* \"#utility.yul\":4887:4927   */\n      swap3\n      pop\n        /* \"#utility.yul\":4616:4933   */\n      pop\n      pop\n        /* \"#utility.yul\":4540:4933   */\n      swap4\n      swap3\n      pop\n      pop\n      pop\n      jump\t// out\n        /* \"#utility.yul\":4939:4999   */\n    tag_35:\n        /* \"#utility.yul\":4967:4970   */\n      0x00\n        /* \"#utility.yul\":4988:4993   */\n      dup2\n        /* \"#utility.yul\":4981:4993   */\n      swap1\n      pop\n        /* \"#utility.yul\":4939:4999   */\n      swap2\n      swap1\n      pop\n      jump\t// out\n        /* \"#utility.yul\":5005:5147   */\n    tag_36:\n        /* \"#utility.yul\":5055:5064   */\n      0x00\n        /* \"#utility.yul\":5088:5141   */\n      tag_103\n        /* \"#utility.yul\":5106:5140   */\n      tag_104\n        /* \"#utility.yul\":5115:5139   */\n      tag_105\n        /* \"#utility.yul\":5133:5138   */\n      dup5\n        /* \"#utility.yul\":5115:5139   */\n      tag_25\n      jump\t// in\n    tag_105:\n        /* \"#utility.yul\":5106:5140   */\n      tag_35\n      jump\t// in\n    tag_104:\n        /* \"#utility.yul\":5088:5141   */\n      tag_25\n      jump\t// in\n    tag_103:\n        /* \"#utility.yul\":5075:5141   */\n      swap1\n      pop\n        /* \"#utility.yul\":5005:5147   */\n      swap2\n      swap1\n      pop\n      jump\t// out\n        /* \"#utility.yul\":5153:5228   */\n    tag_37:\n        /* \"#utility.yul\":5196:5199   */\n      0x00\n        /* \"#utility.yul\":5217:5222   */\n      dup2\n        /* \"#utility.yul\":5210:5222   */\n      swap1\n      pop\n        /* \"#utility.yul\":5153:5228   */\n      swap2\n      swap1\n      pop\n      jump\t// out\n        /* \"#utility.yul\":5234:5503   */\n    tag_38:\n        /* \"#utility.yul\":5344:5383   */\n      tag_108\n        /* \"#utility.yul\":5375:5382   */\n      dup4\n        /* \"#utility.yul\":5344:5383   */\n      tag_36\n      jump\t// in\n    tag_108:\n        /* \"#utility.yul\":5405:5496   */\n      tag_109\n        /* \"#utility.yul\":5454:5495   */\n      tag_110\n        /* \"#utility.yul\":5478:5494   */\n      dup3\n        /* \"#utility.yul\":5454:5495   */\n      tag_37\n      jump\t// in\n    tag_110:\n        /* \"#utility.yul\":5446:5452   */\n      dup5\n        /* \"#utility.yul\":5439:5443   */\n      dup5\n        /* \"#utility.yul\":5433:5444   */\n      sload\n        /* \"#utility.yul\":5405:5496   */\n      tag_34\n      jump\t// in\n    tag_109:\n        /* \"#utility.yul\":5399:5403   */\n      dup3\n        /* \"#utility.yul\":5392:5497   */\n      sstore\n        /* \"#utility.yul\":5310:5503   */\n      pop\n        /* \"#utility.yul\":5234:5503   */\n      pop\n      pop\n      pop\n      jump\t// out\n        /* \"#utility.yul\":5509:5582   */\n    tag_39:\n        /* \"#utility.yul\":5554:5557   */\n      0x00\n        /* \"#utility.yul\":5509:5582   */\n      swap1\n      jump\t// out\n        /* \"#utility.yul\":5588:5777   */\n    tag_40:\n        /* \"#utility.yul\":5665:5697   */\n      tag_113\n      tag_39\n      jump\t// in\n    tag_113:\n        /* \"#utility.yul\":5706:5771   */\n      tag_114\n        /* \"#utility.yul\":5764:5770   */\n      dup2\n        /* \"#utility.yul\":5756:5762   */\n      dup5\n        /* \"#utility.yul\":5750:5754   */\n      dup5\n        /* \"#utility.yul\":5706:5771   */\n      tag_38\n      jump\t// in\n    tag_114:\n        /* \"#utility.yul\":5641:5777   */\n      pop\n        /* \"#utility.yul\":5588:5777   */\n      pop\n      pop\n      jump\t// out\n        /* \"#utility.yul\":5783:5969   */\n    tag_41:\n        /* \"#utility.yul\":5843:5963   */\n    tag_116:\n        /* \"#utility.yul\":5860:5863   */\n      dup2\n        /* \"#utility.yul\":5853:5858   */\n      dup2\n        /* \"#utility.yul\":5850:5864   */\n      lt\n        /* \"#utility.yul\":5843:5963   */\n      iszero\n      tag_118\n      jumpi\n        /* \"#utility.yul\":5914:5953   */\n      tag_119\n        /* \"#utility.yul\":5951:5952   */\n      0x00\n        /* \"#utility.yul\":5944:5949   */\n      dup3\n        /* \"#utility.yul\":5914:5953   */\n      tag_40\n      jump\t// in\n    tag_119:\n        /* \"#utility.yul\":5887:5888   */\n      0x01\n        /* \"#utility.yul\":5880:5885   */\n      dup2\n        /* \"#utility.yul\":5876:5889   */\n      add\n        /* \"#utility.yul\":5867:5889   */\n      swap1\n      pop\n        /* \"#utility.yul\":5843:5963   */\n      jump(tag_116)\n    tag_118:\n        /* \"#utility.yul\":5783:5969   */\n      pop\n      pop\n      jump\t// out\n        /* \"#utility.yul\":5975:6518   */\n    tag_42:\n        /* \"#utility.yul\":6076:6078   */\n      0x1f\n        /* \"#utility.yul\":6071:6074   */\n      dup3\n        /* \"#utility.yul\":6068:6079   */\n      gt\n        /* \"#utility.yul\":6065:6511   */\n      iszero\n      tag_121\n      jumpi\n        /* \"#utility.yul\":6110:6148   */\n      tag_122\n        /* \"#utility.yul\":6142:6147   */\n      dup2\n        /* \"#utility.yul\":6110:6148   */\n      tag_31\n      jump\t// in\n    tag_122:\n        /* \"#utility.yul\":6194:6223   */\n      tag_123\n        /* \"#utility.yul\":6212:6222   */\n      dup5\n        /* \"#utility.yul\":6194:6223   */\n      tag_32\n      jump\t// in\n    tag_123:\n        /* \"#utility.yul\":6184:6192   */\n      dup2\n        /* \"#utility.yul\":6180:6224   */\n      add\n        /* \"#utility.yul\":6377:6379   */\n      0x20\n        /* \"#utility.yul\":6365:6375   */\n      dup6\n        /* \"#utility.yul\":6362:6380   */\n      lt\n        /* \"#utility.yul\":6359:6408   */\n      iszero\n      tag_124\n      jumpi\n        /* \"#utility.yul\":6398:6406   */\n      dup2\n        /* \"#utility.yul\":6383:6406   */\n      swap1\n      pop\n        /* \"#utility.yul\":6359:6408   */\n    tag_124:\n        /* \"#utility.yul\":6421:6501   */\n      tag_125\n        /* \"#utility.yul\":6477:6499   */\n      tag_126\n        /* \"#utility.yul\":6495:6498   */\n      dup6\n        /* \"#utility.yul\":6477:6499   */\n      tag_32\n      jump\t// in\n    tag_126:\n        /* \"#utility.yul\":6467:6475   */\n      dup4\n        /* \"#utility.yul\":6463:6500   */\n      add\n        /* \"#utility.yul\":6450:6461   */\n      dup3\n        /* \"#utility.yul\":6421:6501   */\n      tag_41\n      jump\t// in\n    tag_125:\n        /* \"#utility.yul\":6080:6511   */\n      pop\n      pop\n        /* \"#utility.yul\":6065:6511   */\n    tag_121:\n        /* \"#utility.yul\":5975:6518   */\n      pop\n      pop\n      pop\n      jump\t// out\n        /* \"#utility.yul\":6524:6641   */\n    tag_43:\n        /* \"#utility.yul\":6578:6586   */\n      0x00\n        /* \"#utility.yul\":6628:6633   */\n      dup3\n        /* \"#utility.yul\":6622:6626   */\n      dup3\n        /* \"#utility.yul\":6618:6634   */\n      shr\n        /* \"#utility.yul\":6597:6634   */\n      swap1\n      pop\n        /* \"#utility.yul\":6524:6641   */\n      swap3\n      swap2\n      pop\n      pop\n      jump\t// out\n        /* \"#utility.yul\":6647:6816   */\n    tag_44:\n        /* \"#utility.yul\":6691:6697   */\n      0x00\n        /* \"#utility.yul\":6724:6775   */\n      tag_129\n        /* \"#utility.yul\":6772:6773   */\n      0x00\n        /* \"#utility.yul\":6768:6774   */\n      not\n        /* \"#utility.yul\":6760:6765   */\n      dup5\n        /* \"#utility.yul\":6757:6758   */\n      0x08\n        /* \"#utility.yul\":6753:6766   */\n      mul\n        /* \"#utility.yul\":6724:6775   */\n      tag_43\n      jump\t// in\n    tag_129:\n        /* \"#utility.yul\":6720:6776   */\n      not\n        /* \"#utility.yul\":6805:6809   */\n      dup1\n        /* \"#utility.yul\":6799:6803   */\n      dup4\n        /* \"#utility.yul\":6795:6810   */\n      and\n        /* \"#utility.yul\":6785:6810   */\n      swap2\n      pop\n        /* \"#utility.yul\":6698:6816   */\n      pop\n        /* \"#utility.yul\":6647:6816   */\n      swap3\n      swap2\n      pop\n      pop\n      jump\t// out\n        /* \"#utility.yul\":6821:7116   */\n    tag_45:\n        /* \"#utility.yul\":6897:6901   */\n      0x00\n        /* \"#utility.yul\":7043:7072   */\n      tag_131\n        /* \"#utility.yul\":7068:7071   */\n      dup4\n        /* \"#utility.yul\":7062:7066   */\n      dup4\n        /* \"#utility.yul\":7043:7072   */\n      tag_44\n      jump\t// in\n    tag_131:\n        /* \"#utility.yul\":7035:7072   */\n      swap2\n      pop\n        /* \"#utility.yul\":7105:7108   */\n      dup3\n        /* \"#utility.yul\":7102:7103   */\n      0x02\n        /* \"#utility.yul\":7098:7109   */\n      mul\n        /* \"#utility.yul\":7092:7096   */\n      dup3\n        /* \"#utility.yul\":7089:7110   */\n      or\n        /* \"#utility.yul\":7081:7110   */\n      swap1\n      pop\n        /* \"#utility.yul\":6821:7116   */\n      swap3\n      swap2\n      pop\n      pop\n      jump\t// out\n        /* \"#utility.yul\":7121:8516   */\n    tag_11:\n        /* \"#utility.yul\":7238:7275   */\n      tag_133\n        /* \"#utility.yul\":7271:7274   */\n      dup3\n        /* \"#utility.yul\":7238:7275   */\n      tag_28\n      jump\t// in\n    tag_133:\n        /* \"#utility.yul\":7340:7358   */\n      0xffffffffffffffff\n        /* \"#utility.yul\":7332:7338   */\n      dup2\n        /* \"#utility.yul\":7329:7359   */\n      gt\n        /* \"#utility.yul\":7326:7382   */\n      iszero\n      tag_134\n      jumpi\n        /* \"#utility.yul\":7362:7380   */\n      tag_135\n      tag_18\n      jump\t// in\n    tag_135:\n        /* \"#utility.yul\":7326:7382   */\n    tag_134:\n        /* \"#utility.yul\":7406:7444   */\n      tag_136\n        /* \"#utility.yul\":7438:7442   */\n      dup3\n        /* \"#utility.yul\":7432:7443   */\n      sload\n        /* \"#utility.yul\":7406:7444   */\n      tag_30\n      jump\t// in\n    tag_136:\n        /* \"#utility.yul\":7491:7558   */\n      tag_137\n        /* \"#utility.yul\":7551:7557   */\n      dup3\n        /* \"#utility.yul\":7543:7549   */\n      dup3\n        /* \"#utility.yul\":7537:7541   */\n      dup6\n        /* \"#utility.yul\":7491:7558   */\n      tag_42\n      jump\t// in\n    tag_137:\n        /* \"#utility.yul\":7585:7586   */\n      0x00\n        /* \"#utility.yul\":7609:7613   */\n      0x20\n        /* \"#utility.yul\":7596:7613   */\n      swap1\n      pop\n        /* \"#utility.yul\":7641:7643   */\n      0x1f\n        /* \"#utility.yul\":7633:7639   */\n      dup4\n        /* \"#utility.yul\":7630:7644   */\n      gt\n        /* \"#utility.yul\":7658:7659   */\n      0x01\n        /* \"#utility.yul\":7653:8271   */\n      dup2\n      eq\n      tag_139\n      jumpi\n        /* \"#utility.yul\":8315:8316   */\n      0x00\n        /* \"#utility.yul\":8332:8338   */\n      dup5\n        /* \"#utility.yul\":8329:8406   */\n      iszero\n      tag_140\n      jumpi\n        /* \"#utility.yul\":8381:8390   */\n      dup3\n        /* \"#utility.yul\":8376:8379   */\n      dup8\n        /* \"#utility.yul\":8372:8391   */\n      add\n        /* \"#utility.yul\":8366:8392   */\n      mload\n        /* \"#utility.yul\":8357:8392   */\n      swap1\n      pop\n        /* \"#utility.yul\":8329:8406   */\n    tag_140:\n        /* \"#utility.yul\":8432:8499   */\n      tag_141\n        /* \"#utility.yul\":8492:8498   */\n      dup6\n        /* \"#utility.yul\":8485:8490   */\n      dup3\n        /* \"#utility.yul\":8432:8499   */\n      tag_45\n      jump\t// in\n    tag_141:\n        /* \"#utility.yul\":8426:8430   */\n      dup7\n        /* \"#utility.yul\":8419:8500   */\n      sstore\n        /* \"#utility.yul\":8288:8510   */\n      pop\n        /* \"#utility.yul\":7623:8510   */\n      jump(tag_138)\n        /* \"#utility.yul\":7653:8271   */\n    tag_139:\n        /* \"#utility.yul\":7705:7709   */\n      0x1f\n        /* \"#utility.yul\":7701:7710   */\n      not\n        /* \"#utility.yul\":7693:7699   */\n      dup5\n        /* \"#utility.yul\":7689:7711   */\n      and\n        /* \"#utility.yul\":7739:7776   */\n      tag_142\n        /* \"#utility.yul\":7771:7775   */\n      dup7\n        /* \"#utility.yul\":7739:7776   */\n      tag_31\n      jump\t// in\n    tag_142:\n        /* \"#utility.yul\":7798:7799   */\n      0x00\n        /* \"#utility.yul\":7812:8020   */\n    tag_143:\n        /* \"#utility.yul\":7826:7833   */\n      dup3\n        /* \"#utility.yul\":7823:7824   */\n      dup2\n        /* \"#utility.yul\":7820:7834   */\n      lt\n        /* \"#utility.yul\":7812:8020   */\n      iszero\n      tag_145\n      jumpi\n        /* \"#utility.yul\":7905:7914   */\n      dup5\n        /* \"#utility.yul\":7900:7903   */\n      dup10\n        /* \"#utility.yul\":7896:7915   */\n      add\n        /* \"#utility.yul\":7890:7916   */\n      mload\n        /* \"#utility.yul\":7882:7888   */\n      dup3\n        /* \"#utility.yul\":7875:7917   */\n      sstore\n        /* \"#utility.yul\":7956:7957   */\n      0x01\n        /* \"#utility.yul\":7948:7954   */\n      dup3\n        /* \"#utility.yul\":7944:7958   */\n      add\n        /* \"#utility.yul\":7934:7958   */\n      swap2\n      pop\n        /* \"#utility.yul\":8003:8005   */\n      0x20\n        /* \"#utility.yul\":7992:8001   */\n      dup6\n        /* \"#utility.yul\":7988:8006   */\n      add\n        /* \"#utility.yul\":7975:8006   */\n      swap5\n      pop\n        /* \"#utility.yul\":7849:7853   */\n      0x20\n        /* \"#utility.yul\":7846:7847   */\n      dup2\n        /* \"#utility.yul\":7842:7854   */\n      add\n        /* \"#utility.yul\":7837:7854   */\n      swap1\n      pop\n        /* \"#utility.yul\":7812:8020   */\n      jump(tag_143)\n    tag_145:\n        /* \"#utility.yul\":8048:8054   */\n      dup7\n        /* \"#utility.yul\":8039:8046   */\n      dup4\n        /* \"#utility.yul\":8036:8055   */\n      lt\n        /* \"#utility.yul\":8033:8212   */\n      iszero\n      tag_146\n      jumpi\n        /* \"#utility.yul\":8106:8115   */\n      dup5\n        /* \"#utility.yul\":8101:8104   */\n      dup10\n        /* \"#utility.yul\":8097:8116   */\n      add\n        /* \"#utility.yul\":8091:8117   */\n      mload\n        /* \"#utility.yul\":8149:8197   */\n      tag_147\n        /* \"#utility.yul\":8191:8195   */\n      0x1f\n        /* \"#utility.yul\":8183:8189   */\n      dup10\n        /* \"#utility.yul\":8179:8196   */\n      and\n        /* \"#utility.yul\":8168:8177   */\n      dup3\n        /* \"#utility.yul\":8149:8197   */\n      tag_44\n      jump\t// in\n    tag_147:\n        /* \"#utility.yul\":8141:8147   */\n      dup4\n        /* \"#utility.yul\":8134:8198   */\n      sstore\n        /* \"#utility.yul\":8056:8212   */\n      pop\n        /* \"#utility.yul\":8033:8212   */\n    tag_146:\n        /* \"#utility.yul\":8258:8259   */\n      0x01\n        /* \"#utility.yul\":8254:8255   */\n      0x02\n        /* \"#utility.yul\":8246:8252   */\n      dup9\n        /* \"#utility.yul\":8242:8256   */\n      mul\n        /* \"#utility.yul\":8238:8260   */\n      add\n        /* \"#utility.yul\":8232:8236   */\n      dup9\n        /* \"#utility.yul\":8225:8261   */\n      sstore\n        /* \"#utility.yul\":7660:8271   */\n      pop\n      pop\n      pop\n        /* \"#utility.yul\":7623:8510   */\n    tag_138:\n      pop\n        /* \"#utility.yul\":7213:8516   */\n      pop\n      pop\n      pop\n        /* \"#utility.yul\":7121:8516   */\n      pop\n      pop\n      jump\t// out\n\n    auxdata: 0xa2646970667358221220d5b1b3e36625ba99008f5eb28f13db77a7b21f909ffe8571b121f3283d1f13fa64736f6c634300080f0033\n}\n",
				"bytecode": {
					"linkReferences": {},
					"object": "608060405234801561001057600080fd5b506105bd806100206000396000f3fe608060405234801561001057600080fd5b506004361061002b5760003560e01c806336555b8514610030575b600080fd5b61004a60048036038101906100459190610242565b61004c565b005b6000604051806040016040528084815260200183815250908060018154018082558091505060019003906000526020600020906002020160009091909190915060008201518160000190816100a191906104b5565b506020820151816001015550505050565b6000604051905090565b600080fd5b600080fd5b600080fd5b600080fd5b6000601f19601f8301169050919050565b7f4e487b7100000000000000000000000000000000000000000000000000000000600052604160045260246000fd5b610119826100d0565b810181811067ffffffffffffffff82111715610138576101376100e1565b5b80604052505050565b600061014b6100b2565b90506101578282610110565b919050565b600067ffffffffffffffff821115610177576101766100e1565b5b610180826100d0565b9050602081019050919050565b82818337600083830152505050565b60006101af6101aa8461015c565b610141565b9050828152602081018484840111156101cb576101ca6100cb565b5b6101d684828561018d565b509392505050565b600082601f8301126101f3576101f26100c6565b5b813561020384826020860161019c565b91505092915050565b6000819050919050565b61021f8161020c565b811461022a57600080fd5b50565b60008135905061023c81610216565b92915050565b60008060408385031215610259576102586100bc565b5b600083013567ffffffffffffffff811115610277576102766100c1565b5b610283858286016101de565b92505060206102948582860161022d565b9150509250929050565b600081519050919050565b7f4e487b7100000000000000000000000000000000000000000000000000000000600052602260045260246000fd5b600060028204905060018216806102f057607f821691505b602082108103610303576103026102a9565b5b50919050565b60008190508160005260206000209050919050565b60006020601f8301049050919050565b600082821b905092915050565b60006008830261036b7fffffffffffffffffffffffffffffffffffffffffffffffffffffffffffffffff8261032e565b610375868361032e565b95508019841693508086168417925050509392505050565b6000819050919050565b60006103b26103ad6103a88461020c565b61038d565b61020c565b9050919050565b6000819050919050565b6103cc83610397565b6103e06103d8826103b9565b84845461033b565b825550505050565b600090565b6103f56103e8565b6104008184846103c3565b505050565b5b81811015610424576104196000826103ed565b600181019050610406565b5050565b601f8211156104695761043a81610309565b6104438461031e565b81016020851015610452578190505b61046661045e8561031e565b830182610405565b50505b505050565b600082821c905092915050565b600061048c6000198460080261046e565b1980831691505092915050565b60006104a5838361047b565b9150826002028217905092915050565b6104be8261029e565b67ffffffffffffffff8111156104d7576104d66100e1565b5b6104e182546102d8565b6104ec828285610428565b600060209050601f83116001811461051f576000841561050d578287015190505b6105178582610499565b86555061057f565b601f19841661052d86610309565b60005b8281101561055557848901518255600182019150602085019450602081019050610530565b86831015610572578489015161056e601f89168261047b565b8355505b6001600288020188555050505b50505050505056fea2646970667358221220d5b1b3e36625ba99008f5eb28f13db77a7b21f909ffe8571b121f3283d1f13fa64736f6c634300080f0033",
					"opcodes": "PUSH1 0x80 PUSH1 0x40 MSTORE CALLVALUE DUP1 ISZERO PUSH2 0x10 JUMPI PUSH1 0x0 DUP1 REVERT JUMPDEST POP PUSH2 0x5BD DUP1 PUSH2 0x20 PUSH1 0x0 CODECOPY PUSH1 0x0 RETURN INVALID PUSH1 0x80 PUSH1 0x40 MSTORE CALLVALUE DUP1 ISZERO PUSH2 0x10 JUMPI PUSH1 0x0 DUP1 REVERT JUMPDEST POP PUSH1 0x4 CALLDATASIZE LT PUSH2 0x2B JUMPI PUSH1 0x0 CALLDATALOAD PUSH1 0xE0 SHR DUP1 PUSH4 0x36555B85 EQ PUSH2 0x30 JUMPI JUMPDEST PUSH1 0x0 DUP1 REVERT JUMPDEST PUSH2 0x4A PUSH1 0x4 DUP1 CALLDATASIZE SUB DUP2 ADD SWAP1 PUSH2 0x45 SWAP2 SWAP1 PUSH2 0x242 JUMP JUMPDEST PUSH2 0x4C JUMP JUMPDEST STOP JUMPDEST PUSH1 0x0 PUSH1 0x40 MLOAD DUP1 PUSH1 0x40 ADD PUSH1 0x40 MSTORE DUP1 DUP5 DUP2 MSTORE PUSH1 0x20 ADD DUP4 DUP2 MSTORE POP SWAP1 DUP1 PUSH1 0x1 DUP2 SLOAD ADD DUP1 DUP3 SSTORE DUP1 SWAP2 POP POP PUSH1 0x1 SWAP1 SUB SWAP1 PUSH1 0x0 MSTORE PUSH1 0x20 PUSH1 0x0 KECCAK256 SWAP1 PUSH1 0x2 MUL ADD PUSH1 0x0 SWAP1 SWAP2 SWAP1 SWAP2 SWAP1 SWAP2 POP PUSH1 0x0 DUP3 ADD MLOAD DUP2 PUSH1 0x0 ADD SWAP1 DUP2 PUSH2 0xA1 SWAP2 SWAP1 PUSH2 0x4B5 JUMP JUMPDEST POP PUSH1 0x20 DUP3 ADD MLOAD DUP2 PUSH1 0x1 ADD SSTORE POP POP POP POP JUMP JUMPDEST PUSH1 0x0 PUSH1 0x40 MLOAD SWAP1 POP SWAP1 JUMP JUMPDEST PUSH1 0x0 DUP1 REVERT JUMPDEST PUSH1 0x0 DUP1 REVERT JUMPDEST PUSH1 0x0 DUP1 REVERT JUMPDEST PUSH1 0x0 DUP1 REVERT JUMPDEST PUSH1 0x0 PUSH1 0x1F NOT PUSH1 0x1F DUP4 ADD AND SWAP1 POP SWAP2 SWAP1 POP JUMP JUMPDEST PUSH32 0x4E487B7100000000000000000000000000000000000000000000000000000000 PUSH1 0x0 MSTORE PUSH1 0x41 PUSH1 0x4 MSTORE PUSH1 0x24 PUSH1 0x0 REVERT JUMPDEST PUSH2 0x119 DUP3 PUSH2 0xD0 JUMP JUMPDEST DUP2 ADD DUP2 DUP2 LT PUSH8 0xFFFFFFFFFFFFFFFF DUP3 GT OR ISZERO PUSH2 0x138 JUMPI PUSH2 0x137 PUSH2 0xE1 JUMP JUMPDEST JUMPDEST DUP1 PUSH1 0x40 MSTORE POP POP POP JUMP JUMPDEST PUSH1 0x0 PUSH2 0x14B PUSH2 0xB2 JUMP JUMPDEST SWAP1 POP PUSH2 0x157 DUP3 DUP3 PUSH2 0x110 JUMP JUMPDEST SWAP2 SWAP1 POP JUMP JUMPDEST PUSH1 0x0 PUSH8 0xFFFFFFFFFFFFFFFF DUP3 GT ISZERO PUSH2 0x177 JUMPI PUSH2 0x176 PUSH2 0xE1 JUMP JUMPDEST JUMPDEST PUSH2 0x180 DUP3 PUSH2 0xD0 JUMP JUMPDEST SWAP1 POP PUSH1 0x20 DUP2 ADD SWAP1 POP SWAP2 SWAP1 POP JUMP JUMPDEST DUP3 DUP2 DUP4 CALLDATACOPY PUSH1 0x0 DUP4 DUP4 ADD MSTORE POP POP POP JUMP JUMPDEST PUSH1 0x0 PUSH2 0x1AF PUSH2 0x1AA DUP5 PUSH2 0x15C JUMP JUMPDEST PUSH2 0x141 JUMP JUMPDEST SWAP1 POP DUP3 DUP2 MSTORE PUSH1 0x20 DUP2 ADD DUP5 DUP5 DUP5 ADD GT ISZERO PUSH2 0x1CB JUMPI PUSH2 0x1CA PUSH2 0xCB JUMP JUMPDEST JUMPDEST PUSH2 0x1D6 DUP5 DUP3 DUP6 PUSH2 0x18D JUMP JUMPDEST POP SWAP4 SWAP3 POP POP POP JUMP JUMPDEST PUSH1 0x0 DUP3 PUSH1 0x1F DUP4 ADD SLT PUSH2 0x1F3 JUMPI PUSH2 0x1F2 PUSH2 0xC6 JUMP JUMPDEST JUMPDEST DUP2 CALLDATALOAD PUSH2 0x203 DUP5 DUP3 PUSH1 0x20 DUP7 ADD PUSH2 0x19C JUMP JUMPDEST SWAP2 POP POP SWAP3 SWAP2 POP POP JUMP JUMPDEST PUSH1 0x0 DUP2 SWAP1 POP SWAP2 SWAP1 POP JUMP JUMPDEST PUSH2 0x21F DUP2 PUSH2 0x20C JUMP JUMPDEST DUP2 EQ PUSH2 0x22A JUMPI PUSH1 0x0 DUP1 REVERT JUMPDEST POP JUMP JUMPDEST PUSH1 0x0 DUP2 CALLDATALOAD SWAP1 POP PUSH2 0x23C DUP2 PUSH2 0x216 JUMP JUMPDEST SWAP3 SWAP2 POP POP JUMP JUMPDEST PUSH1 0x0 DUP1 PUSH1 0x40 DUP4 DUP6 SUB SLT ISZERO PUSH2 0x259 JUMPI PUSH2 0x258 PUSH2 0xBC JUMP JUMPDEST JUMPDEST PUSH1 0x0 DUP4 ADD CALLDATALOAD PUSH8 0xFFFFFFFFFFFFFFFF DUP2 GT ISZERO PUSH2 0x277 JUMPI PUSH2 0x276 PUSH2 0xC1 JUMP JUMPDEST JUMPDEST PUSH2 0x283 DUP6 DUP3 DUP7 ADD PUSH2 0x1DE JUMP JUMPDEST SWAP3 POP POP PUSH1 0x20 PUSH2 0x294 DUP6 DUP3 DUP7 ADD PUSH2 0x22D JUMP JUMPDEST SWAP2 POP POP SWAP3 POP SWAP3 SWAP1 POP JUMP JUMPDEST PUSH1 0x0 DUP2 MLOAD SWAP1 POP SWAP2 SWAP1 POP JUMP JUMPDEST PUSH32 0x4E487B7100000000000000000000000000000000000000000000000000000000 PUSH1 0x0 MSTORE PUSH1 0x22 PUSH1 0x4 MSTORE PUSH1 0x24 PUSH1 0x0 REVERT JUMPDEST PUSH1 0x0 PUSH1 0x2 DUP3 DIV SWAP1 POP PUSH1 0x1 DUP3 AND DUP1 PUSH2 0x2F0 JUMPI PUSH1 0x7F DUP3 AND SWAP2 POP JUMPDEST PUSH1 0x20 DUP3 LT DUP2 SUB PUSH2 0x303 JUMPI PUSH2 0x302 PUSH2 0x2A9 JUMP JUMPDEST JUMPDEST POP SWAP2 SWAP1 POP JUMP JUMPDEST PUSH1 0x0 DUP2 SWAP1 POP DUP2 PUSH1 0x0 MSTORE PUSH1 0x20 PUSH1 0x0 KECCAK256 SWAP1 POP SWAP2 SWAP1 POP JUMP JUMPDEST PUSH1 0x0 PUSH1 0x20 PUSH1 0x1F DUP4 ADD DIV SWAP1 POP SWAP2 SWAP1 POP JUMP JUMPDEST PUSH1 0x0 DUP3 DUP3 SHL SWAP1 POP SWAP3 SWAP2 POP POP JUMP JUMPDEST PUSH1 0x0 PUSH1 0x8 DUP4 MUL PUSH2 0x36B PUSH32 0xFFFFFFFFFFFFFFFFFFFFFFFFFFFFFFFFFFFFFFFFFFFFFFFFFFFFFFFFFFFFFFFF DUP3 PUSH2 0x32E JUMP JUMPDEST PUSH2 0x375 DUP7 DUP4 PUSH2 0x32E JUMP JUMPDEST SWAP6 POP DUP1 NOT DUP5 AND SWAP4 POP DUP1 DUP7 AND DUP5 OR SWAP3 POP POP POP SWAP4 SWAP3 POP POP POP JUMP JUMPDEST PUSH1 0x0 DUP2 SWAP1 POP SWAP2 SWAP1 POP JUMP JUMPDEST PUSH1 0x0 PUSH2 0x3B2 PUSH2 0x3AD PUSH2 0x3A8 DUP5 PUSH2 0x20C JUMP JUMPDEST PUSH2 0x38D JUMP JUMPDEST PUSH2 0x20C JUMP JUMPDEST SWAP1 POP SWAP2 SWAP1 POP JUMP JUMPDEST PUSH1 0x0 DUP2 SWAP1 POP SWAP2 SWAP1 POP JUMP JUMPDEST PUSH2 0x3CC DUP4 PUSH2 0x397 JUMP JUMPDEST PUSH2 0x3E0 PUSH2 0x3D8 DUP3 PUSH2 0x3B9 JUMP JUMPDEST DUP5 DUP5 SLOAD PUSH2 0x33B JUMP JUMPDEST DUP3 SSTORE POP POP POP POP JUMP JUMPDEST PUSH1 0x0 SWAP1 JUMP JUMPDEST PUSH2 0x3F5 PUSH2 0x3E8 JUMP JUMPDEST PUSH2 0x400 DUP2 DUP5 DUP5 PUSH2 0x3C3 JUMP JUMPDEST POP POP POP JUMP JUMPDEST JUMPDEST DUP2 DUP2 LT ISZERO PUSH2 0x424 JUMPI PUSH2 0x419 PUSH1 0x0 DUP3 PUSH2 0x3ED JUMP JUMPDEST PUSH1 0x1 DUP2 ADD SWAP1 POP PUSH2 0x406 JUMP JUMPDEST POP POP JUMP JUMPDEST PUSH1 0x1F DUP3 GT ISZERO PUSH2 0x469 JUMPI PUSH2 0x43A DUP2 PUSH2 0x309 JUMP JUMPDEST PUSH2 0x443 DUP5 PUSH2 0x31E JUMP JUMPDEST DUP2 ADD PUSH1 0x20 DUP6 LT ISZERO PUSH2 0x452 JUMPI DUP2 SWAP1 POP JUMPDEST PUSH2 0x466 PUSH2 0x45E DUP6 PUSH2 0x31E JUMP JUMPDEST DUP4 ADD DUP3 PUSH2 0x405 JUMP JUMPDEST POP POP JUMPDEST POP POP POP JUMP JUMPDEST PUSH1 0x0 DUP3 DUP3 SHR SWAP1 POP SWAP3 SWAP2 POP POP JUMP JUMPDEST PUSH1 0x0 PUSH2 0x48C PUSH1 0x0 NOT DUP5 PUSH1 0x8 MUL PUSH2 0x46E JUMP JUMPDEST NOT DUP1 DUP4 AND SWAP2 POP POP SWAP3 SWAP2 POP POP JUMP JUMPDEST PUSH1 0x0 PUSH2 0x4A5 DUP4 DUP4 PUSH2 0x47B JUMP JUMPDEST SWAP2 POP DUP3 PUSH1 0x2 MUL DUP3 OR SWAP1 POP SWAP3 SWAP2 POP POP JUMP JUMPDEST PUSH2 0x4BE DUP3 PUSH2 0x29E JUMP JUMPDEST PUSH8 0xFFFFFFFFFFFFFFFF DUP2 GT ISZERO PUSH2 0x4D7 JUMPI PUSH2 0x4D6 PUSH2 0xE1 JUMP JUMPDEST JUMPDEST PUSH2 0x4E1 DUP3 SLOAD PUSH2 0x2D8 JUMP JUMPDEST PUSH2 0x4EC DUP3 DUP3 DUP6 PUSH2 0x428 JUMP JUMPDEST PUSH1 0x0 PUSH1 0x20 SWAP1 POP PUSH1 0x1F DUP4 GT PUSH1 0x1 DUP2 EQ PUSH2 0x51F JUMPI PUSH1 0x0 DUP5 ISZERO PUSH2 0x50D JUMPI DUP3 DUP8 ADD MLOAD SWAP1 POP JUMPDEST PUSH2 0x517 DUP6 DUP3 PUSH2 0x499 JUMP JUMPDEST DUP7 SSTORE POP PUSH2 0x57F JUMP JUMPDEST PUSH1 0x1F NOT DUP5 AND PUSH2 0x52D DUP7 PUSH2 0x309 JUMP JUMPDEST PUSH1 0x0 JUMPDEST DUP3 DUP2 LT ISZERO PUSH2 0x555 JUMPI DUP5 DUP10 ADD MLOAD DUP3 SSTORE PUSH1 0x1 DUP3 ADD SWAP2 POP PUSH1 0x20 DUP6 ADD SWAP5 POP PUSH1 0x20 DUP2 ADD SWAP1 POP PUSH2 0x530 JUMP JUMPDEST DUP7 DUP4 LT ISZERO PUSH2 0x572 JUMPI DUP5 DUP10 ADD MLOAD PUSH2 0x56E PUSH1 0x1F DUP10 AND DUP3 PUSH2 0x47B JUMP JUMPDEST DUP4 SSTORE POP JUMPDEST PUSH1 0x1 PUSH1 0x2 DUP9 MUL ADD DUP9 SSTORE POP POP POP JUMPDEST POP POP POP POP POP POP JUMP INVALID LOG2 PUSH5 0x6970667358 0x22 SLT KECCAK256 0xD5 0xB1 0xB3 0xE3 PUSH7 0x25BA99008F5EB2 DUP16 SGT 0xDB PUSH24 0xA7B21F909FFE8571B121F3283D1F13FA64736F6C63430008 0xF STOP CALLER "
				},
				"gasEstimates": {
					"creation": {
						"codeDepositCost": "293800",
						"executionCost": "331",
						"totalCost": "294131"
					},
					"external": {
						"add(string,uint256)": "infinite"
					}
				},
				"methodIdentifiers": {
					"add(string,uint256)": "36555b85"
				}
			},
			"storageLayout": {
				"storage": [
					{
						"astId": 10,
						"contract": "array2.sol:ArrayTest",
						"label": "list",
						"offset": 0,
						"slot": "0",
						"type": "t_array(t_struct(User)6_storage)dyn_storage"
					}
				],
				"types": {
					"t_array(t_struct(User)6_storage)dyn_storage": {
						"base": "t_struct(User)6_storage",
						"encoding": "dynamic_array",
						"label": "struct ArrayTest.User[]",
						"numberOfBytes": "32"
					},
					"t_string_storage": {
						"encoding": "bytes",
						"label": "string",
						"numberOfBytes": "32"
					},
					"t_struct(User)6_storage": {
						"encoding": "inplace",
						"label": "struct ArrayTest.User",
						"members": [
							{
								"astId": 3,
								"contract": "array2.sol:ArrayTest",
								"label": "name",
								"offset": 0,
								"slot": "0",
								"type": "t_string_storage"
							},
							{
								"astId": 5,
								"contract": "array2.sol:ArrayTest",
								"label": "age",
								"offset": 0,
								"slot": "1",
								"type": "t_uint256"
							}
						],
						"numberOfBytes": "64"
					},
					"t_uint256": {
						"encoding": "inplace",
						"label": "uint256",
						"numberOfBytes": "32"
					}
				}
			},
			"userdoc": {
				"kind": "user",
				"methods": {},
				"version": 1
			}
		}
	}
}