{
	"crowdfunding.sol": {
		"CrowdfundingContract": {
			"abi": [
				{
					"inputs": [
						{
							"internalType": "string",
							"name": "_title",
							"type": "string"
						},
						{
							"internalType": "address",
							"name": "_recipient",
							"type": "address"
						},
						{
							"internalType": "uint256",
							"name": "_expectAmout",
							"type": "uint256"
						}
					],
					"name": "createCrowdfunding",
					"outputs": [],
					"stateMutability": "nonpayable",
					"type": "function"
				},
				{
					"inputs": [
						{
							"internalType": "uint256",
							"name": "_status",
							"type": "uint256"
						}
					],
					"name": "getCrowdfundingByStatus",
					"outputs": [
						{
							"components": [
								{
									"internalType": "uint256",
									"name": "num",
									"type": "uint256"
								},
								{
									"internalType": "string",
									"name": "title",
									"type": "string"
								},
								{
									"internalType": "uint256",
									"name": "status",
									"type": "uint256"
								},
								{
									"internalType": "address",
									"name": "creator",
									"type": "address"
								},
								{
									"internalType": "address",
									"name": "recipient",
									"type": "address"
								},
								{
									"internalType": "uint256",
									"name": "joinNum",
									"type": "uint256"
								},
								{
									"internalType": "uint256",
									"name": "expectAmout",
									"type": "uint256"
								},
								{
									"internalType": "uint256",
									"name": "actualAmount",
									"type": "uint256"
								}
							],
							"internalType": "struct CrowdfundingContract.Crowdfunding[]",
							"name": "",
							"type": "tuple[]"
						}
					],
					"stateMutability": "view",
					"type": "function"
				},
				{
					"inputs": [
						{
							"internalType": "address",
							"name": "addr",
							"type": "address"
						}
					],
					"name": "getMyCrowdfunding",
					"outputs": [
						{
							"components": [
								{
									"internalType": "uint256",
									"name": "num",
									"type": "uint256"
								},
								{
									"internalType": "string",
									"name": "title",
									"type": "string"
								},
								{
									"internalType": "uint256",
									"name": "status",
									"type": "uint256"
								},
								{
									"internalType": "address",
									"name": "creator",
									"type": "address"
								},
								{
									"internalType": "address",
									"name": "recipient",
									"type": "address"
								},
								{
									"internalType": "uint256",
									"name": "joinNum",
									"type": "uint256"
								},
								{
									"internalType": "uint256",
									"name": "expectAmout",
									"type": "uint256"
								},
								{
									"internalType": "uint256",
									"name": "actualAmount",
									"type": "uint256"
								}
							],
							"internalType": "struct CrowdfundingContract.Crowdfunding[]",
							"name": "",
							"type": "tuple[]"
						}
					],
					"stateMutability": "view",
					"type": "function"
				},
				{
					"inputs": [
						{
							"internalType": "uint256",
							"name": "num",
							"type": "uint256"
						},
						{
							"internalType": "string",
							"name": "amount",
							"type": "string"
						},
						{
							"internalType": "address",
							"name": "addr",
							"type": "address"
						}
					],
					"name": "join",
					"outputs": [],
					"stateMutability": "nonpayable",
					"type": "function"
				},
				{
					"inputs": [
						{
							"internalType": "uint256",
							"name": "",
							"type": "uint256"
						}
					],
					"name": "list",
					"outputs": [
						{
							"internalType": "uint256",
							"name": "num",
							"type": "uint256"
						},
						{
							"internalType": "string",
							"name": "title",
							"type": "string"
						},
						{
							"internalType": "uint256",
							"name": "status",
							"type": "uint256"
						},
						{
							"internalType": "address",
							"name": "creator",
							"type": "address"
						},
						{
							"internalType": "address",
							"name": "recipient",
							"type": "address"
						},
						{
							"internalType": "uint256",
							"name": "joinNum",
							"type": "uint256"
						},
						{
							"internalType": "uint256",
							"name": "expectAmout",
							"type": "uint256"
						},
						{
							"internalType": "uint256",
							"name": "actualAmount",
							"type": "uint256"
						}
					],
					"stateMutability": "view",
					"type": "function"
				},
				{
					"inputs": [
						{
							"internalType": "uint256",
							"name": "num",
							"type": "uint256"
						}
					],
					"name": "setStatus",
					"outputs": [],
					"stateMutability": "nonpayable",
					"type": "function"
				},
				{
					"inputs": [
						{
							"internalType": "uint256",
							"name": "num",
							"type": "uint256"
						},
						{
							"internalType": "string",
							"name": "title",
							"type": "string"
						}
					],
					"name": "setTitle",
					"outputs": [],
					"stateMutability": "nonpayable",
					"type": "function"
				}
			],
			"devdoc": {
				"kind": "dev",
				"methods": {},
				"version": 1
			},
			"evm": {
				"assembly": "    /* \"crowdfunding.sol\":290:3397  contract CrowdfundingContract {\r... */\n  mstore(0x40, 0x80)\n  callvalue\n  dup1\n  iszero\n  tag_1\n  jumpi\n  0x00\n  dup1\n  revert\ntag_1:\n  pop\n  dataSize(sub_0)\n  dup1\n  dataOffset(sub_0)\n  0x00\n  codecopy\n  0x00\n  return\nstop\n\nsub_0: assembly {\n        /* \"crowdfunding.sol\":290:3397  contract CrowdfundingContract {\r... */\n      mstore(0x40, 0x80)\n      callvalue\n      dup1\n      iszero\n      tag_1\n      jumpi\n      0x00\n      dup1\n      revert\n    tag_1:\n      pop\n      jumpi(tag_2, lt(calldatasize, 0x04))\n      shr(0xe0, calldataload(0x00))\n      dup1\n      0x69ba1a75\n      gt\n      tag_10\n      jumpi\n      dup1\n      0x69ba1a75\n      eq\n      tag_6\n      jumpi\n      dup1\n      0x80c9419e\n      eq\n      tag_7\n      jumpi\n      dup1\n      0x904cc175\n      eq\n      tag_8\n      jumpi\n      dup1\n      0xac8b1300\n      eq\n      tag_9\n      jumpi\n      jump(tag_2)\n    tag_10:\n      dup1\n      0x2d01cf03\n      eq\n      tag_3\n      jumpi\n      dup1\n      0x377e6ff7\n      eq\n      tag_4\n      jumpi\n      dup1\n      0x5102bc9d\n      eq\n      tag_5\n      jumpi\n    tag_2:\n      0x00\n      dup1\n      revert\n        /* \"crowdfunding.sol\":2581:2978  function join(uint num,string memory amount,address addr) public {\r... */\n    tag_3:\n      tag_11\n      0x04\n      dup1\n      calldatasize\n      sub\n      dup2\n      add\n      swap1\n      tag_12\n      swap2\n      swap1\n      tag_13\n      jump\t// in\n    tag_12:\n      tag_14\n      jump\t// in\n    tag_11:\n      stop\n        /* \"crowdfunding.sol\":3263:3394  function getMyCrowdfunding(address addr) public view returns (Crowdfunding[] memory) {\r... */\n    tag_4:\n      tag_15\n      0x04\n      dup1\n      calldatasize\n      sub\n      dup2\n      add\n      swap1\n      tag_16\n      swap2\n      swap1\n      tag_17\n      jump\t// in\n    tag_16:\n      tag_18\n      jump\t// in\n    tag_15:\n      mload(0x40)\n      tag_19\n      swap2\n      swap1\n      tag_20\n      jump\t// in\n    tag_19:\n      mload(0x40)\n      dup1\n      swap2\n      sub\n      swap1\n      return\n        /* \"crowdfunding.sol\":2450:2549  function setTitle(uint num,string memory title) public {\r... */\n    tag_5:\n      tag_21\n      0x04\n      dup1\n      calldatasize\n      sub\n      dup2\n      add\n      swap1\n      tag_22\n      swap2\n      swap1\n      tag_23\n      jump\t// in\n    tag_22:\n      tag_24\n      jump\t// in\n    tag_21:\n      stop\n        /* \"crowdfunding.sol\":1775:2367  function setStatus(uint num) public {\r... */\n    tag_6:\n      tag_25\n      0x04\n      dup1\n      calldatasize\n      sub\n      dup2\n      add\n      swap1\n      tag_26\n      swap2\n      swap1\n      tag_27\n      jump\t// in\n    tag_26:\n      tag_28\n      jump\t// in\n    tag_25:\n      stop\n        /* \"crowdfunding.sol\":809:835  Crowdfunding[] public list */\n    tag_7:\n      tag_29\n      0x04\n      dup1\n      calldatasize\n      sub\n      dup2\n      add\n      swap1\n      tag_30\n      swap2\n      swap1\n      tag_27\n      jump\t// in\n    tag_30:\n      tag_31\n      jump\t// in\n    tag_29:\n      mload(0x40)\n      tag_32\n      swap9\n      swap8\n      swap7\n      swap6\n      swap5\n      swap4\n      swap3\n      swap2\n      swap1\n      tag_33\n      jump\t// in\n    tag_32:\n      mload(0x40)\n      dup1\n      swap2\n      sub\n      swap1\n      return\n        /* \"crowdfunding.sol\":3030:3213  function getCrowdfundingByStatus(uint _status) public view returns (Crowdfunding[] memory) {\r... */\n    tag_8:\n      tag_34\n      0x04\n      dup1\n      calldatasize\n      sub\n      dup2\n      add\n      swap1\n      tag_35\n      swap2\n      swap1\n      tag_27\n      jump\t// in\n    tag_35:\n      tag_36\n      jump\t// in\n    tag_34:\n      mload(0x40)\n      tag_37\n      swap2\n      swap1\n      tag_20\n      jump\t// in\n    tag_37:\n      mload(0x40)\n      dup1\n      swap2\n      sub\n      swap1\n      return\n        /* \"crowdfunding.sol\":1091:1696  function createCrowdfunding(string memory _title,address _recipient, uint _expectAmout) public {\r... */\n    tag_9:\n      tag_38\n      0x04\n      dup1\n      calldatasize\n      sub\n      dup2\n      add\n      swap1\n      tag_39\n      swap2\n      swap1\n      tag_40\n      jump\t// in\n    tag_39:\n      tag_41\n      jump\t// in\n    tag_38:\n      stop\n        /* \"crowdfunding.sol\":2581:2978  function join(uint num,string memory amount,address addr) public {\r... */\n    tag_14:\n        /* \"crowdfunding.sol\":2661:2667  uint i */\n      0x00\n        /* \"crowdfunding.sol\":2657:2969  for(uint i = 0; i < calcJoinNum[num].length;i++){\r... */\n    tag_43:\n        /* \"crowdfunding.sol\":2677:2688  calcJoinNum */\n      0x04\n        /* \"crowdfunding.sol\":2677:2693  calcJoinNum[num] */\n      0x00\n        /* \"crowdfunding.sol\":2689:2692  num */\n      dup6\n        /* \"crowdfunding.sol\":2677:2693  calcJoinNum[num] */\n      dup2\n      mstore\n      0x20\n      add\n      swap1\n      dup2\n      mstore\n      0x20\n      add\n      0x00\n      keccak256\n        /* \"crowdfunding.sol\":2677:2700  calcJoinNum[num].length */\n      dup1\n      sload\n      swap1\n      pop\n        /* \"crowdfunding.sol\":2673:2674  i */\n      dup2\n        /* \"crowdfunding.sol\":2673:2700  i < calcJoinNum[num].length */\n      lt\n        /* \"crowdfunding.sol\":2657:2969  for(uint i = 0; i < calcJoinNum[num].length;i++){\r... */\n      iszero\n      tag_44\n      jumpi\n        /* \"crowdfunding.sol\":2748:2752  addr */\n      dup2\n        /* \"crowdfunding.sol\":2723:2752  calcJoinNum[num-1][i] == addr */\n      0xffffffffffffffffffffffffffffffffffffffff\n      and\n        /* \"crowdfunding.sol\":2723:2734  calcJoinNum */\n      0x04\n        /* \"crowdfunding.sol\":2723:2741  calcJoinNum[num-1] */\n      0x00\n        /* \"crowdfunding.sol\":2739:2740  1 */\n      0x01\n        /* \"crowdfunding.sol\":2735:2738  num */\n      dup8\n        /* \"crowdfunding.sol\":2735:2740  num-1 */\n      tag_46\n      swap2\n      swap1\n      tag_47\n      jump\t// in\n    tag_46:\n        /* \"crowdfunding.sol\":2723:2741  calcJoinNum[num-1] */\n      dup2\n      mstore\n      0x20\n      add\n      swap1\n      dup2\n      mstore\n      0x20\n      add\n      0x00\n      keccak256\n        /* \"crowdfunding.sol\":2742:2743  i */\n      dup3\n        /* \"crowdfunding.sol\":2723:2744  calcJoinNum[num-1][i] */\n      dup2\n      sload\n      dup2\n      lt\n      tag_48\n      jumpi\n      tag_49\n      tag_50\n      jump\t// in\n    tag_49:\n    tag_48:\n      swap1\n      0x00\n      mstore\n      keccak256(0x00, 0x20)\n      add\n      0x00\n      swap1\n      sload\n      swap1\n      0x0100\n      exp\n      swap1\n      div\n      0xffffffffffffffffffffffffffffffffffffffff\n      and\n        /* \"crowdfunding.sol\":2723:2752  calcJoinNum[num-1][i] == addr */\n      0xffffffffffffffffffffffffffffffffffffffff\n      and\n      eq\n        /* \"crowdfunding.sol\":2720:2880  if(calcJoinNum[num-1][i] == addr){\r... */\n      iszero\n      tag_52\n      jumpi\n      jump(tag_53)\n    tag_52:\n        /* \"crowdfunding.sol\":2815:2816  1 */\n      0x01\n        /* \"crowdfunding.sol\":2792:2796  list */\n      dup1\n        /* \"crowdfunding.sol\":2801:2802  1 */\n      0x01\n        /* \"crowdfunding.sol\":2797:2800  num */\n      dup7\n        /* \"crowdfunding.sol\":2797:2802  num-1 */\n      tag_54\n      swap2\n      swap1\n      tag_47\n      jump\t// in\n    tag_54:\n        /* \"crowdfunding.sol\":2792:2803  list[num-1] */\n      dup2\n      sload\n      dup2\n      lt\n      tag_55\n      jumpi\n      tag_56\n      tag_50\n      jump\t// in\n    tag_56:\n    tag_55:\n      swap1\n      0x00\n      mstore\n      keccak256(0x00, 0x20)\n      swap1\n      0x08\n      mul\n      add\n        /* \"crowdfunding.sol\":2792:2811  list[num-1].joinNum */\n      0x05\n      add\n      0x00\n        /* \"crowdfunding.sol\":2792:2816  list[num-1].joinNum += 1 */\n      dup3\n      dup3\n      sload\n      tag_58\n      swap2\n      swap1\n      tag_59\n      jump\t// in\n    tag_58:\n      swap3\n      pop\n      pop\n      dup2\n      swap1\n      sstore\n      pop\n        /* \"crowdfunding.sol\":2835:2846  calcJoinNum */\n      0x04\n        /* \"crowdfunding.sol\":2835:2853  calcJoinNum[num-1] */\n      0x00\n        /* \"crowdfunding.sol\":2851:2852  1 */\n      0x01\n        /* \"crowdfunding.sol\":2847:2850  num */\n      dup7\n        /* \"crowdfunding.sol\":2847:2852  num-1 */\n      tag_60\n      swap2\n      swap1\n      tag_47\n      jump\t// in\n    tag_60:\n        /* \"crowdfunding.sol\":2835:2853  calcJoinNum[num-1] */\n      dup2\n      mstore\n      0x20\n      add\n      swap1\n      dup2\n      mstore\n      0x20\n      add\n      0x00\n      keccak256\n        /* \"crowdfunding.sol\":2859:2863  addr */\n      dup3\n        /* \"crowdfunding.sol\":2835:2864  calcJoinNum[num-1].push(addr) */\n      swap1\n      dup1\n      0x01\n      dup2\n      sload\n      add\n      dup1\n      dup3\n      sstore\n      dup1\n      swap2\n      pop\n      pop\n      0x01\n      swap1\n      sub\n      swap1\n      0x00\n      mstore\n      keccak256(0x00, 0x20)\n      add\n      0x00\n      swap1\n      swap2\n      swap1\n      swap2\n      swap1\n      swap2\n      0x0100\n      exp\n      dup2\n      sload\n      dup2\n      0xffffffffffffffffffffffffffffffffffffffff\n      mul\n      not\n      and\n      swap1\n      dup4\n      0xffffffffffffffffffffffffffffffffffffffff\n      and\n      mul\n      or\n      swap1\n      sstore\n      pop\n        /* \"crowdfunding.sol\":2720:2880  if(calcJoinNum[num-1][i] == addr){\r... */\n    tag_53:\n        /* \"crowdfunding.sol\":2701:2704  i++ */\n      dup1\n      dup1\n      tag_62\n      swap1\n      tag_63\n      jump\t// in\n    tag_62:\n      swap2\n      pop\n      pop\n        /* \"crowdfunding.sol\":2657:2969  for(uint i = 0; i < calcJoinNum[num].length;i++){\r... */\n      jump(tag_43)\n    tag_44:\n      pop\n        /* \"crowdfunding.sol\":2581:2978  function join(uint num,string memory amount,address addr) public {\r... */\n      pop\n      pop\n      pop\n      jump\t// out\n        /* \"crowdfunding.sol\":3263:3394  function getMyCrowdfunding(address addr) public view returns (Crowdfunding[] memory) {\r... */\n    tag_18:\n        /* \"crowdfunding.sol\":3325:3346  Crowdfunding[] memory */\n      0x60\n        /* \"crowdfunding.sol\":3366:3380  myCrowdfunding */\n      0x03\n        /* \"crowdfunding.sol\":3366:3386  myCrowdfunding[addr] */\n      0x00\n        /* \"crowdfunding.sol\":3381:3385  addr */\n      dup4\n        /* \"crowdfunding.sol\":3366:3386  myCrowdfunding[addr] */\n      0xffffffffffffffffffffffffffffffffffffffff\n      and\n      0xffffffffffffffffffffffffffffffffffffffff\n      and\n      dup2\n      mstore\n      0x20\n      add\n      swap1\n      dup2\n      mstore\n      0x20\n      add\n      0x00\n      keccak256\n        /* \"crowdfunding.sol\":3359:3386  return myCrowdfunding[addr] */\n      dup1\n      sload\n      dup1\n      0x20\n      mul\n      0x20\n      add\n      mload(0x40)\n      swap1\n      dup2\n      add\n      0x40\n      mstore\n      dup1\n      swap3\n      swap2\n      swap1\n      dup2\n      dup2\n      mstore\n      0x20\n      add\n      0x00\n      swap1\n    tag_65:\n      dup3\n      dup3\n      lt\n      iszero\n      tag_66\n      jumpi\n      dup4\n      dup3\n      swap1\n      0x00\n      mstore\n      keccak256(0x00, 0x20)\n      swap1\n      0x08\n      mul\n      add\n      mload(0x40)\n      dup1\n      0x0100\n      add\n      0x40\n      mstore\n      swap1\n      dup2\n      0x00\n      dup3\n      add\n      sload\n      dup2\n      mstore\n      0x20\n      add\n      0x01\n      dup3\n      add\n      dup1\n      sload\n      tag_68\n      swap1\n      tag_69\n      jump\t// in\n    tag_68:\n      dup1\n      0x1f\n      add\n      0x20\n      dup1\n      swap2\n      div\n      mul\n      0x20\n      add\n      mload(0x40)\n      swap1\n      dup2\n      add\n      0x40\n      mstore\n      dup1\n      swap3\n      swap2\n      swap1\n      dup2\n      dup2\n      mstore\n      0x20\n      add\n      dup3\n      dup1\n      sload\n      tag_70\n      swap1\n      tag_69\n      jump\t// in\n    tag_70:\n      dup1\n      iszero\n      tag_71\n      jumpi\n      dup1\n      0x1f\n      lt\n      tag_72\n      jumpi\n      0x0100\n      dup1\n      dup4\n      sload\n      div\n      mul\n      dup4\n      mstore\n      swap2\n      0x20\n      add\n      swap2\n      jump(tag_71)\n    tag_72:\n      dup3\n      add\n      swap2\n      swap1\n      0x00\n      mstore\n      keccak256(0x00, 0x20)\n      swap1\n    tag_73:\n      dup2\n      sload\n      dup2\n      mstore\n      swap1\n      0x01\n      add\n      swap1\n      0x20\n      add\n      dup1\n      dup4\n      gt\n      tag_73\n      jumpi\n      dup3\n      swap1\n      sub\n      0x1f\n      and\n      dup3\n      add\n      swap2\n    tag_71:\n      pop\n      pop\n      pop\n      pop\n      pop\n      dup2\n      mstore\n      0x20\n      add\n      0x02\n      dup3\n      add\n      sload\n      dup2\n      mstore\n      0x20\n      add\n      0x03\n      dup3\n      add\n      0x00\n      swap1\n      sload\n      swap1\n      0x0100\n      exp\n      swap1\n      div\n      0xffffffffffffffffffffffffffffffffffffffff\n      and\n      0xffffffffffffffffffffffffffffffffffffffff\n      and\n      0xffffffffffffffffffffffffffffffffffffffff\n      and\n      dup2\n      mstore\n      0x20\n      add\n      0x04\n      dup3\n      add\n      0x00\n      swap1\n      sload\n      swap1\n      0x0100\n      exp\n      swap1\n      div\n      0xffffffffffffffffffffffffffffffffffffffff\n      and\n      0xffffffffffffffffffffffffffffffffffffffff\n      and\n      0xffffffffffffffffffffffffffffffffffffffff\n      and\n      dup2\n      mstore\n      0x20\n      add\n      0x05\n      dup3\n      add\n      sload\n      dup2\n      mstore\n      0x20\n      add\n      0x06\n      dup3\n      add\n      sload\n      dup2\n      mstore\n      0x20\n      add\n      0x07\n      dup3\n      add\n      sload\n      dup2\n      mstore\n      pop\n      pop\n      dup2\n      mstore\n      0x20\n      add\n      swap1\n      0x01\n      add\n      swap1\n      jump(tag_65)\n    tag_66:\n      pop\n      pop\n      pop\n      pop\n      swap1\n      pop\n        /* \"crowdfunding.sol\":3263:3394  function getMyCrowdfunding(address addr) public view returns (Crowdfunding[] memory) {\r... */\n      swap2\n      swap1\n      pop\n      jump\t// out\n        /* \"crowdfunding.sol\":2450:2549  function setTitle(uint num,string memory title) public {\r... */\n    tag_24:\n        /* \"crowdfunding.sol\":2536:2541  title */\n      dup1\n        /* \"crowdfunding.sol\":2516:2520  list */\n      0x01\n        /* \"crowdfunding.sol\":2525:2526  1 */\n      dup1\n        /* \"crowdfunding.sol\":2521:2524  num */\n      dup5\n        /* \"crowdfunding.sol\":2521:2526  num-1 */\n      tag_75\n      swap2\n      swap1\n      tag_47\n      jump\t// in\n    tag_75:\n        /* \"crowdfunding.sol\":2516:2527  list[num-1] */\n      dup2\n      sload\n      dup2\n      lt\n      tag_76\n      jumpi\n      tag_77\n      tag_50\n      jump\t// in\n    tag_77:\n    tag_76:\n      swap1\n      0x00\n      mstore\n      keccak256(0x00, 0x20)\n      swap1\n      0x08\n      mul\n      add\n        /* \"crowdfunding.sol\":2516:2533  list[num-1].title */\n      0x01\n      add\n        /* \"crowdfunding.sol\":2516:2541  list[num-1].title = title */\n      swap1\n      dup1\n      mload\n      swap1\n      0x20\n      add\n      swap1\n      tag_79\n      swap3\n      swap2\n      swap1\n      tag_80\n      jump\t// in\n    tag_79:\n      pop\n        /* \"crowdfunding.sol\":2450:2549  function setTitle(uint num,string memory title) public {\r... */\n      pop\n      pop\n      jump\t// out\n        /* \"crowdfunding.sol\":1775:2367  function setStatus(uint num) public {\r... */\n    tag_28:\n        /* \"crowdfunding.sol\":1843:1844  3 */\n      0x03\n        /* \"crowdfunding.sol\":1822:1826  list */\n      0x01\n        /* \"crowdfunding.sol\":1831:1832  1 */\n      dup1\n        /* \"crowdfunding.sol\":1827:1830  num */\n      dup4\n        /* \"crowdfunding.sol\":1827:1832  num-1 */\n      tag_82\n      swap2\n      swap1\n      tag_47\n      jump\t// in\n    tag_82:\n        /* \"crowdfunding.sol\":1822:1833  list[num-1] */\n      dup2\n      sload\n      dup2\n      lt\n      tag_83\n      jumpi\n      tag_84\n      tag_50\n      jump\t// in\n    tag_84:\n    tag_83:\n      swap1\n      0x00\n      mstore\n      keccak256(0x00, 0x20)\n      swap1\n      0x08\n      mul\n      add\n        /* \"crowdfunding.sol\":1822:1840  list[num-1].status */\n      0x02\n      add\n        /* \"crowdfunding.sol\":1822:1844  list[num-1].status = 3 */\n      dup2\n      swap1\n      sstore\n      pop\n        /* \"crowdfunding.sol\":1953:1954  1 */\n      0x01\n        /* \"crowdfunding.sol\":1921:1939  filterDataByStatus */\n      0x02\n        /* \"crowdfunding.sol\":1921:1942  filterDataByStatus[1] */\n      0x00\n        /* \"crowdfunding.sol\":1940:1941  1 */\n      0x01\n        /* \"crowdfunding.sol\":1921:1942  filterDataByStatus[1] */\n      dup2\n      mstore\n      0x20\n      add\n      swap1\n      dup2\n      mstore\n      0x20\n      add\n      0x00\n      keccak256\n        /* \"crowdfunding.sol\":1921:1949  filterDataByStatus[1].length */\n      dup1\n      sload\n      swap1\n      pop\n        /* \"crowdfunding.sol\":1921:1954  filterDataByStatus[1].length == 1 */\n      eq\n        /* \"crowdfunding.sol\":1918:2310  if(filterDataByStatus[1].length == 1){\r... */\n      iszero\n      tag_86\n      jumpi\n        /* \"crowdfunding.sol\":1970:1988  filterDataByStatus */\n      0x02\n        /* \"crowdfunding.sol\":1970:1991  filterDataByStatus[1] */\n      0x00\n        /* \"crowdfunding.sol\":1989:1990  1 */\n      0x01\n        /* \"crowdfunding.sol\":1970:1991  filterDataByStatus[1] */\n      dup2\n      mstore\n      0x20\n      add\n      swap1\n      dup2\n      mstore\n      0x20\n      add\n      0x00\n      keccak256\n        /* \"crowdfunding.sol\":1970:1997  filterDataByStatus[1].pop() */\n      dup1\n      sload\n      dup1\n      tag_87\n      jumpi\n      tag_88\n      tag_89\n      jump\t// in\n    tag_88:\n    tag_87:\n      0x01\n      swap1\n      sub\n      dup2\n      dup2\n      swap1\n      0x00\n      mstore\n      keccak256(0x00, 0x20)\n      swap1\n      0x08\n      mul\n      add\n      0x00\n      dup1\n      dup3\n      add\n      0x00\n      swap1\n      sstore\n      0x01\n      dup3\n      add\n      0x00\n      tag_91\n      swap2\n      swap1\n      tag_92\n      jump\t// in\n    tag_91:\n      0x02\n      dup3\n      add\n      0x00\n      swap1\n      sstore\n      0x03\n      dup3\n      add\n      exp(0x0100, 0x00)\n      dup2\n      sload\n      swap1\n      0xffffffffffffffffffffffffffffffffffffffff\n      mul\n      not\n      and\n      swap1\n      sstore\n      0x04\n      dup3\n      add\n      exp(0x0100, 0x00)\n      dup2\n      sload\n      swap1\n      0xffffffffffffffffffffffffffffffffffffffff\n      mul\n      not\n      and\n      swap1\n      sstore\n      0x05\n      dup3\n      add\n      0x00\n      swap1\n      sstore\n      0x06\n      dup3\n      add\n      0x00\n      swap1\n      sstore\n      0x07\n      dup3\n      add\n      0x00\n      swap1\n      sstore\n      pop\n      pop\n      swap1\n      sstore\n        /* \"crowdfunding.sol\":1918:2310  if(filterDataByStatus[1].length == 1){\r... */\n      jump(tag_93)\n    tag_86:\n        /* \"crowdfunding.sol\":2032:2038  uint i */\n      0x00\n        /* \"crowdfunding.sol\":2028:2257  for(uint i = 0; i < filterDataByStatus[1].length - 1; i++) {\r... */\n    tag_94:\n        /* \"crowdfunding.sol\":2079:2080  1 */\n      0x01\n        /* \"crowdfunding.sol\":2048:2066  filterDataByStatus */\n      0x02\n        /* \"crowdfunding.sol\":2048:2069  filterDataByStatus[1] */\n      0x00\n        /* \"crowdfunding.sol\":2067:2068  1 */\n      0x01\n        /* \"crowdfunding.sol\":2048:2069  filterDataByStatus[1] */\n      dup2\n      mstore\n      0x20\n      add\n      swap1\n      dup2\n      mstore\n      0x20\n      add\n      0x00\n      keccak256\n        /* \"crowdfunding.sol\":2048:2076  filterDataByStatus[1].length */\n      dup1\n      sload\n      swap1\n      pop\n        /* \"crowdfunding.sol\":2048:2080  filterDataByStatus[1].length - 1 */\n      tag_97\n      swap2\n      swap1\n      tag_47\n      jump\t// in\n    tag_97:\n        /* \"crowdfunding.sol\":2044:2045  i */\n      dup2\n        /* \"crowdfunding.sol\":2044:2080  i < filterDataByStatus[1].length - 1 */\n      lt\n        /* \"crowdfunding.sol\":2028:2257  for(uint i = 0; i < filterDataByStatus[1].length - 1; i++) {\r... */\n      iszero\n      tag_95\n      jumpi\n        /* \"crowdfunding.sol\":2141:2144  num */\n      dup2\n        /* \"crowdfunding.sol\":2109:2127  filterDataByStatus */\n      0x02\n        /* \"crowdfunding.sol\":2109:2130  filterDataByStatus[1] */\n      0x00\n        /* \"crowdfunding.sol\":2128:2129  1 */\n      0x01\n        /* \"crowdfunding.sol\":2109:2130  filterDataByStatus[1] */\n      dup2\n      mstore\n      0x20\n      add\n      swap1\n      dup2\n      mstore\n      0x20\n      add\n      0x00\n      keccak256\n        /* \"crowdfunding.sol\":2131:2132  i */\n      dup3\n        /* \"crowdfunding.sol\":2109:2133  filterDataByStatus[1][i] */\n      dup2\n      sload\n      dup2\n      lt\n      tag_98\n      jumpi\n      tag_99\n      tag_50\n      jump\t// in\n    tag_99:\n    tag_98:\n      swap1\n      0x00\n      mstore\n      keccak256(0x00, 0x20)\n      swap1\n      0x08\n      mul\n      add\n        /* \"crowdfunding.sol\":2109:2137  filterDataByStatus[1][i].num */\n      0x00\n      add\n      sload\n        /* \"crowdfunding.sol\":2109:2144  filterDataByStatus[1][i].num == num */\n      eq\n        /* \"crowdfunding.sol\":2106:2242  if(filterDataByStatus[1][i].num == num) {\r... */\n      iszero\n      tag_101\n      jumpi\n        /* \"crowdfunding.sol\":2196:2214  filterDataByStatus */\n      0x02\n        /* \"crowdfunding.sol\":2196:2217  filterDataByStatus[1] */\n      0x00\n        /* \"crowdfunding.sol\":2215:2216  1 */\n      0x01\n        /* \"crowdfunding.sol\":2196:2217  filterDataByStatus[1] */\n      dup2\n      mstore\n      0x20\n      add\n      swap1\n      dup2\n      mstore\n      0x20\n      add\n      0x00\n      keccak256\n        /* \"crowdfunding.sol\":2220:2221  1 */\n      0x01\n        /* \"crowdfunding.sol\":2218:2219  i */\n      dup3\n        /* \"crowdfunding.sol\":2218:2221  i+1 */\n      tag_102\n      swap2\n      swap1\n      tag_59\n      jump\t// in\n    tag_102:\n        /* \"crowdfunding.sol\":2196:2222  filterDataByStatus[1][i+1] */\n      dup2\n      sload\n      dup2\n      lt\n      tag_103\n      jumpi\n      tag_104\n      tag_50\n      jump\t// in\n    tag_104:\n    tag_103:\n      swap1\n      0x00\n      mstore\n      keccak256(0x00, 0x20)\n      swap1\n      0x08\n      mul\n      add\n        /* \"crowdfunding.sol\":2169:2187  filterDataByStatus */\n      0x02\n        /* \"crowdfunding.sol\":2169:2190  filterDataByStatus[1] */\n      0x00\n        /* \"crowdfunding.sol\":2188:2189  1 */\n      0x01\n        /* \"crowdfunding.sol\":2169:2190  filterDataByStatus[1] */\n      dup2\n      mstore\n      0x20\n      add\n      swap1\n      dup2\n      mstore\n      0x20\n      add\n      0x00\n      keccak256\n        /* \"crowdfunding.sol\":2191:2192  i */\n      dup3\n        /* \"crowdfunding.sol\":2169:2193  filterDataByStatus[1][i] */\n      dup2\n      sload\n      dup2\n      lt\n      tag_106\n      jumpi\n      tag_107\n      tag_50\n      jump\t// in\n    tag_107:\n    tag_106:\n      swap1\n      0x00\n      mstore\n      keccak256(0x00, 0x20)\n      swap1\n      0x08\n      mul\n      add\n        /* \"crowdfunding.sol\":2169:2222  filterDataByStatus[1][i] = filterDataByStatus[1][i+1] */\n      0x00\n      dup3\n      add\n      sload\n      dup2\n      0x00\n      add\n      sstore\n      0x01\n      dup3\n      add\n      dup2\n      0x01\n      add\n      swap1\n      dup1\n      sload\n      tag_109\n      swap1\n      tag_69\n      jump\t// in\n    tag_109:\n      tag_110\n      swap3\n      swap2\n      swap1\n      tag_111\n      jump\t// in\n    tag_110:\n      pop\n      0x02\n      dup3\n      add\n      sload\n      dup2\n      0x02\n      add\n      sstore\n      0x03\n      dup3\n      add\n      0x00\n      swap1\n      sload\n      swap1\n      0x0100\n      exp\n      swap1\n      div\n      0xffffffffffffffffffffffffffffffffffffffff\n      and\n      dup2\n      0x03\n      add\n      exp(0x0100, 0x00)\n      dup2\n      sload\n      dup2\n      0xffffffffffffffffffffffffffffffffffffffff\n      mul\n      not\n      and\n      swap1\n      dup4\n      0xffffffffffffffffffffffffffffffffffffffff\n      and\n      mul\n      or\n      swap1\n      sstore\n      pop\n      0x04\n      dup3\n      add\n      0x00\n      swap1\n      sload\n      swap1\n      0x0100\n      exp\n      swap1\n      div\n      0xffffffffffffffffffffffffffffffffffffffff\n      and\n      dup2\n      0x04\n      add\n      exp(0x0100, 0x00)\n      dup2\n      sload\n      dup2\n      0xffffffffffffffffffffffffffffffffffffffff\n      mul\n      not\n      and\n      swap1\n      dup4\n      0xffffffffffffffffffffffffffffffffffffffff\n      and\n      mul\n      or\n      swap1\n      sstore\n      pop\n      0x05\n      dup3\n      add\n      sload\n      dup2\n      0x05\n      add\n      sstore\n      0x06\n      dup3\n      add\n      sload\n      dup2\n      0x06\n      add\n      sstore\n      0x07\n      dup3\n      add\n      sload\n      dup2\n      0x07\n      add\n      sstore\n      swap1\n      pop\n      pop\n        /* \"crowdfunding.sol\":2106:2242  if(filterDataByStatus[1][i].num == num) {\r... */\n    tag_101:\n        /* \"crowdfunding.sol\":2082:2085  i++ */\n      dup1\n      dup1\n      tag_112\n      swap1\n      tag_63\n      jump\t// in\n    tag_112:\n      swap2\n      pop\n      pop\n        /* \"crowdfunding.sol\":2028:2257  for(uint i = 0; i < filterDataByStatus[1].length - 1; i++) {\r... */\n      jump(tag_94)\n    tag_95:\n      pop\n        /* \"crowdfunding.sol\":2271:2289  filterDataByStatus */\n      0x02\n        /* \"crowdfunding.sol\":2271:2292  filterDataByStatus[1] */\n      0x00\n        /* \"crowdfunding.sol\":2290:2291  1 */\n      0x01\n        /* \"crowdfunding.sol\":2271:2292  filterDataByStatus[1] */\n      dup2\n      mstore\n      0x20\n      add\n      swap1\n      dup2\n      mstore\n      0x20\n      add\n      0x00\n      keccak256\n        /* \"crowdfunding.sol\":2271:2298  filterDataByStatus[1].pop() */\n      dup1\n      sload\n      dup1\n      tag_113\n      jumpi\n      tag_114\n      tag_89\n      jump\t// in\n    tag_114:\n    tag_113:\n      0x01\n      swap1\n      sub\n      dup2\n      dup2\n      swap1\n      0x00\n      mstore\n      keccak256(0x00, 0x20)\n      swap1\n      0x08\n      mul\n      add\n      0x00\n      dup1\n      dup3\n      add\n      0x00\n      swap1\n      sstore\n      0x01\n      dup3\n      add\n      0x00\n      tag_116\n      swap2\n      swap1\n      tag_92\n      jump\t// in\n    tag_116:\n      0x02\n      dup3\n      add\n      0x00\n      swap1\n      sstore\n      0x03\n      dup3\n      add\n      exp(0x0100, 0x00)\n      dup2\n      sload\n      swap1\n      0xffffffffffffffffffffffffffffffffffffffff\n      mul\n      not\n      and\n      swap1\n      sstore\n      0x04\n      dup3\n      add\n      exp(0x0100, 0x00)\n      dup2\n      sload\n      swap1\n      0xffffffffffffffffffffffffffffffffffffffff\n      mul\n      not\n      and\n      swap1\n      sstore\n      0x05\n      dup3\n      add\n      0x00\n      swap1\n      sstore\n      0x06\n      dup3\n      add\n      0x00\n      swap1\n      sstore\n      0x07\n      dup3\n      add\n      0x00\n      swap1\n      sstore\n      pop\n      pop\n      swap1\n      sstore\n        /* \"crowdfunding.sol\":1918:2310  if(filterDataByStatus[1].length == 1){\r... */\n    tag_93:\n        /* \"crowdfunding.sol\":2320:2338  filterDataByStatus */\n      0x02\n        /* \"crowdfunding.sol\":2320:2341  filterDataByStatus[3] */\n      0x00\n        /* \"crowdfunding.sol\":2339:2340  3 */\n      0x03\n        /* \"crowdfunding.sol\":2320:2341  filterDataByStatus[3] */\n      dup2\n      mstore\n      0x20\n      add\n      swap1\n      dup2\n      mstore\n      0x20\n      add\n      0x00\n      keccak256\n        /* \"crowdfunding.sol\":2347:2351  list */\n      0x01\n        /* \"crowdfunding.sol\":2356:2357  1 */\n      dup1\n        /* \"crowdfunding.sol\":2352:2355  num */\n      dup4\n        /* \"crowdfunding.sol\":2352:2357  num-1 */\n      tag_117\n      swap2\n      swap1\n      tag_47\n      jump\t// in\n    tag_117:\n        /* \"crowdfunding.sol\":2347:2358  list[num-1] */\n      dup2\n      sload\n      dup2\n      lt\n      tag_118\n      jumpi\n      tag_119\n      tag_50\n      jump\t// in\n    tag_119:\n    tag_118:\n      swap1\n      0x00\n      mstore\n      keccak256(0x00, 0x20)\n      swap1\n      0x08\n      mul\n      add\n        /* \"crowdfunding.sol\":2320:2359  filterDataByStatus[3].push(list[num-1]) */\n      swap1\n      dup1\n      0x01\n      dup2\n      sload\n      add\n      dup1\n      dup3\n      sstore\n      dup1\n      swap2\n      pop\n      pop\n      0x01\n      swap1\n      sub\n      swap1\n      0x00\n      mstore\n      keccak256(0x00, 0x20)\n      swap1\n      0x08\n      mul\n      add\n      0x00\n      swap1\n      swap2\n      swap1\n      swap2\n      swap1\n      swap2\n      pop\n      0x00\n      dup3\n      add\n      sload\n      dup2\n      0x00\n      add\n      sstore\n      0x01\n      dup3\n      add\n      dup2\n      0x01\n      add\n      swap1\n      dup1\n      sload\n      tag_122\n      swap1\n      tag_69\n      jump\t// in\n    tag_122:\n      tag_123\n      swap3\n      swap2\n      swap1\n      tag_111\n      jump\t// in\n    tag_123:\n      pop\n      0x02\n      dup3\n      add\n      sload\n      dup2\n      0x02\n      add\n      sstore\n      0x03\n      dup3\n      add\n      0x00\n      swap1\n      sload\n      swap1\n      0x0100\n      exp\n      swap1\n      div\n      0xffffffffffffffffffffffffffffffffffffffff\n      and\n      dup2\n      0x03\n      add\n      exp(0x0100, 0x00)\n      dup2\n      sload\n      dup2\n      0xffffffffffffffffffffffffffffffffffffffff\n      mul\n      not\n      and\n      swap1\n      dup4\n      0xffffffffffffffffffffffffffffffffffffffff\n      and\n      mul\n      or\n      swap1\n      sstore\n      pop\n      0x04\n      dup3\n      add\n      0x00\n      swap1\n      sload\n      swap1\n      0x0100\n      exp\n      swap1\n      div\n      0xffffffffffffffffffffffffffffffffffffffff\n      and\n      dup2\n      0x04\n      add\n      exp(0x0100, 0x00)\n      dup2\n      sload\n      dup2\n      0xffffffffffffffffffffffffffffffffffffffff\n      mul\n      not\n      and\n      swap1\n      dup4\n      0xffffffffffffffffffffffffffffffffffffffff\n      and\n      mul\n      or\n      swap1\n      sstore\n      pop\n      0x05\n      dup3\n      add\n      sload\n      dup2\n      0x05\n      add\n      sstore\n      0x06\n      dup3\n      add\n      sload\n      dup2\n      0x06\n      add\n      sstore\n      0x07\n      dup3\n      add\n      sload\n      dup2\n      0x07\n      add\n      sstore\n      pop\n      pop\n        /* \"crowdfunding.sol\":1775:2367  function setStatus(uint num) public {\r... */\n      pop\n      jump\t// out\n        /* \"crowdfunding.sol\":809:835  Crowdfunding[] public list */\n    tag_31:\n      0x01\n      dup2\n      dup2\n      sload\n      dup2\n      lt\n      tag_124\n      jumpi\n      0x00\n      dup1\n      revert\n    tag_124:\n      swap1\n      0x00\n      mstore\n      keccak256(0x00, 0x20)\n      swap1\n      0x08\n      mul\n      add\n      0x00\n      swap2\n      pop\n      swap1\n      pop\n      dup1\n      0x00\n      add\n      sload\n      swap1\n      dup1\n      0x01\n      add\n      dup1\n      sload\n      tag_126\n      swap1\n      tag_69\n      jump\t// in\n    tag_126:\n      dup1\n      0x1f\n      add\n      0x20\n      dup1\n      swap2\n      div\n      mul\n      0x20\n      add\n      mload(0x40)\n      swap1\n      dup2\n      add\n      0x40\n      mstore\n      dup1\n      swap3\n      swap2\n      swap1\n      dup2\n      dup2\n      mstore\n      0x20\n      add\n      dup3\n      dup1\n      sload\n      tag_127\n      swap1\n      tag_69\n      jump\t// in\n    tag_127:\n      dup1\n      iszero\n      tag_128\n      jumpi\n      dup1\n      0x1f\n      lt\n      tag_129\n      jumpi\n      0x0100\n      dup1\n      dup4\n      sload\n      div\n      mul\n      dup4\n      mstore\n      swap2\n      0x20\n      add\n      swap2\n      jump(tag_128)\n    tag_129:\n      dup3\n      add\n      swap2\n      swap1\n      0x00\n      mstore\n      keccak256(0x00, 0x20)\n      swap1\n    tag_130:\n      dup2\n      sload\n      dup2\n      mstore\n      swap1\n      0x01\n      add\n      swap1\n      0x20\n      add\n      dup1\n      dup4\n      gt\n      tag_130\n      jumpi\n      dup3\n      swap1\n      sub\n      0x1f\n      and\n      dup3\n      add\n      swap2\n    tag_128:\n      pop\n      pop\n      pop\n      pop\n      pop\n      swap1\n      dup1\n      0x02\n      add\n      sload\n      swap1\n      dup1\n      0x03\n      add\n      0x00\n      swap1\n      sload\n      swap1\n      0x0100\n      exp\n      swap1\n      div\n      0xffffffffffffffffffffffffffffffffffffffff\n      and\n      swap1\n      dup1\n      0x04\n      add\n      0x00\n      swap1\n      sload\n      swap1\n      0x0100\n      exp\n      swap1\n      div\n      0xffffffffffffffffffffffffffffffffffffffff\n      and\n      swap1\n      dup1\n      0x05\n      add\n      sload\n      swap1\n      dup1\n      0x06\n      add\n      sload\n      swap1\n      dup1\n      0x07\n      add\n      sload\n      swap1\n      pop\n      dup9\n      jump\t// out\n        /* \"crowdfunding.sol\":3030:3213  function getCrowdfundingByStatus(uint _status) public view returns (Crowdfunding[] memory) {\r... */\n    tag_36:\n        /* \"crowdfunding.sol\":3098:3119  Crowdfunding[] memory */\n      0x60\n        /* \"crowdfunding.sol\":3146:3147  0 */\n      0x00\n        /* \"crowdfunding.sol\":3135:3142  _status */\n      dup3\n        /* \"crowdfunding.sol\":3135:3147  _status == 0 */\n      eq\n        /* \"crowdfunding.sol\":3132:3160  if(_status == 0) return list */\n      iszero\n      tag_132\n      jumpi\n        /* \"crowdfunding.sol\":3156:3160  list */\n      0x01\n        /* \"crowdfunding.sol\":3149:3160  return list */\n      dup1\n      sload\n      dup1\n      0x20\n      mul\n      0x20\n      add\n      mload(0x40)\n      swap1\n      dup2\n      add\n      0x40\n      mstore\n      dup1\n      swap3\n      swap2\n      swap1\n      dup2\n      dup2\n      mstore\n      0x20\n      add\n      0x00\n      swap1\n    tag_133:\n      dup3\n      dup3\n      lt\n      iszero\n      tag_134\n      jumpi\n      dup4\n      dup3\n      swap1\n      0x00\n      mstore\n      keccak256(0x00, 0x20)\n      swap1\n      0x08\n      mul\n      add\n      mload(0x40)\n      dup1\n      0x0100\n      add\n      0x40\n      mstore\n      swap1\n      dup2\n      0x00\n      dup3\n      add\n      sload\n      dup2\n      mstore\n      0x20\n      add\n      0x01\n      dup3\n      add\n      dup1\n      sload\n      tag_136\n      swap1\n      tag_69\n      jump\t// in\n    tag_136:\n      dup1\n      0x1f\n      add\n      0x20\n      dup1\n      swap2\n      div\n      mul\n      0x20\n      add\n      mload(0x40)\n      swap1\n      dup2\n      add\n      0x40\n      mstore\n      dup1\n      swap3\n      swap2\n      swap1\n      dup2\n      dup2\n      mstore\n      0x20\n      add\n      dup3\n      dup1\n      sload\n      tag_137\n      swap1\n      tag_69\n      jump\t// in\n    tag_137:\n      dup1\n      iszero\n      tag_138\n      jumpi\n      dup1\n      0x1f\n      lt\n      tag_139\n      jumpi\n      0x0100\n      dup1\n      dup4\n      sload\n      div\n      mul\n      dup4\n      mstore\n      swap2\n      0x20\n      add\n      swap2\n      jump(tag_138)\n    tag_139:\n      dup3\n      add\n      swap2\n      swap1\n      0x00\n      mstore\n      keccak256(0x00, 0x20)\n      swap1\n    tag_140:\n      dup2\n      sload\n      dup2\n      mstore\n      swap1\n      0x01\n      add\n      swap1\n      0x20\n      add\n      dup1\n      dup4\n      gt\n      tag_140\n      jumpi\n      dup3\n      swap1\n      sub\n      0x1f\n      and\n      dup3\n      add\n      swap2\n    tag_138:\n      pop\n      pop\n      pop\n      pop\n      pop\n      dup2\n      mstore\n      0x20\n      add\n      0x02\n      dup3\n      add\n      sload\n      dup2\n      mstore\n      0x20\n      add\n      0x03\n      dup3\n      add\n      0x00\n      swap1\n      sload\n      swap1\n      0x0100\n      exp\n      swap1\n      div\n      0xffffffffffffffffffffffffffffffffffffffff\n      and\n      0xffffffffffffffffffffffffffffffffffffffff\n      and\n      0xffffffffffffffffffffffffffffffffffffffff\n      and\n      dup2\n      mstore\n      0x20\n      add\n      0x04\n      dup3\n      add\n      0x00\n      swap1\n      sload\n      swap1\n      0x0100\n      exp\n      swap1\n      div\n      0xffffffffffffffffffffffffffffffffffffffff\n      and\n      0xffffffffffffffffffffffffffffffffffffffff\n      and\n      0xffffffffffffffffffffffffffffffffffffffff\n      and\n      dup2\n      mstore\n      0x20\n      add\n      0x05\n      dup3\n      add\n      sload\n      dup2\n      mstore\n      0x20\n      add\n      0x06\n      dup3\n      add\n      sload\n      dup2\n      mstore\n      0x20\n      add\n      0x07\n      dup3\n      add\n      sload\n      dup2\n      mstore\n      pop\n      pop\n      dup2\n      mstore\n      0x20\n      add\n      swap1\n      0x01\n      add\n      swap1\n      jump(tag_133)\n    tag_134:\n      pop\n      pop\n      pop\n      pop\n      swap1\n      pop\n      jump(tag_131)\n        /* \"crowdfunding.sol\":3132:3160  if(_status == 0) return list */\n    tag_132:\n        /* \"crowdfunding.sol\":3178:3196  filterDataByStatus */\n      0x02\n        /* \"crowdfunding.sol\":3178:3205  filterDataByStatus[_status] */\n      0x00\n        /* \"crowdfunding.sol\":3197:3204  _status */\n      dup4\n        /* \"crowdfunding.sol\":3178:3205  filterDataByStatus[_status] */\n      dup2\n      mstore\n      0x20\n      add\n      swap1\n      dup2\n      mstore\n      0x20\n      add\n      0x00\n      keccak256\n        /* \"crowdfunding.sol\":3171:3205  return filterDataByStatus[_status] */\n      dup1\n      sload\n      dup1\n      0x20\n      mul\n      0x20\n      add\n      mload(0x40)\n      swap1\n      dup2\n      add\n      0x40\n      mstore\n      dup1\n      swap3\n      swap2\n      swap1\n      dup2\n      dup2\n      mstore\n      0x20\n      add\n      0x00\n      swap1\n    tag_141:\n      dup3\n      dup3\n      lt\n      iszero\n      tag_142\n      jumpi\n      dup4\n      dup3\n      swap1\n      0x00\n      mstore\n      keccak256(0x00, 0x20)\n      swap1\n      0x08\n      mul\n      add\n      mload(0x40)\n      dup1\n      0x0100\n      add\n      0x40\n      mstore\n      swap1\n      dup2\n      0x00\n      dup3\n      add\n      sload\n      dup2\n      mstore\n      0x20\n      add\n      0x01\n      dup3\n      add\n      dup1\n      sload\n      tag_144\n      swap1\n      tag_69\n      jump\t// in\n    tag_144:\n      dup1\n      0x1f\n      add\n      0x20\n      dup1\n      swap2\n      div\n      mul\n      0x20\n      add\n      mload(0x40)\n      swap1\n      dup2\n      add\n      0x40\n      mstore\n      dup1\n      swap3\n      swap2\n      swap1\n      dup2\n      dup2\n      mstore\n      0x20\n      add\n      dup3\n      dup1\n      sload\n      tag_145\n      swap1\n      tag_69\n      jump\t// in\n    tag_145:\n      dup1\n      iszero\n      tag_146\n      jumpi\n      dup1\n      0x1f\n      lt\n      tag_147\n      jumpi\n      0x0100\n      dup1\n      dup4\n      sload\n      div\n      mul\n      dup4\n      mstore\n      swap2\n      0x20\n      add\n      swap2\n      jump(tag_146)\n    tag_147:\n      dup3\n      add\n      swap2\n      swap1\n      0x00\n      mstore\n      keccak256(0x00, 0x20)\n      swap1\n    tag_148:\n      dup2\n      sload\n      dup2\n      mstore\n      swap1\n      0x01\n      add\n      swap1\n      0x20\n      add\n      dup1\n      dup4\n      gt\n      tag_148\n      jumpi\n      dup3\n      swap1\n      sub\n      0x1f\n      and\n      dup3\n      add\n      swap2\n    tag_146:\n      pop\n      pop\n      pop\n      pop\n      pop\n      dup2\n      mstore\n      0x20\n      add\n      0x02\n      dup3\n      add\n      sload\n      dup2\n      mstore\n      0x20\n      add\n      0x03\n      dup3\n      add\n      0x00\n      swap1\n      sload\n      swap1\n      0x0100\n      exp\n      swap1\n      div\n      0xffffffffffffffffffffffffffffffffffffffff\n      and\n      0xffffffffffffffffffffffffffffffffffffffff\n      and\n      0xffffffffffffffffffffffffffffffffffffffff\n      and\n      dup2\n      mstore\n      0x20\n      add\n      0x04\n      dup3\n      add\n      0x00\n      swap1\n      sload\n      swap1\n      0x0100\n      exp\n      swap1\n      div\n      0xffffffffffffffffffffffffffffffffffffffff\n      and\n      0xffffffffffffffffffffffffffffffffffffffff\n      and\n      0xffffffffffffffffffffffffffffffffffffffff\n      and\n      dup2\n      mstore\n      0x20\n      add\n      0x05\n      dup3\n      add\n      sload\n      dup2\n      mstore\n      0x20\n      add\n      0x06\n      dup3\n      add\n      sload\n      dup2\n      mstore\n      0x20\n      add\n      0x07\n      dup3\n      add\n      sload\n      dup2\n      mstore\n      pop\n      pop\n      dup2\n      mstore\n      0x20\n      add\n      swap1\n      0x01\n      add\n      swap1\n      jump(tag_141)\n    tag_142:\n      pop\n      pop\n      pop\n      pop\n      swap1\n      pop\n        /* \"crowdfunding.sol\":3030:3213  function getCrowdfundingByStatus(uint _status) public view returns (Crowdfunding[] memory) {\r... */\n    tag_131:\n      swap2\n      swap1\n      pop\n      jump\t// out\n        /* \"crowdfunding.sol\":1091:1696  function createCrowdfunding(string memory _title,address _recipient, uint _expectAmout) public {\r... */\n    tag_41:\n        /* \"crowdfunding.sol\":1197:1199  No */\n      0x00\n      dup1\n        /* \"crowdfunding.sol\":1197:1201  No++ */\n      dup2\n      sload\n      dup1\n      swap3\n      swap2\n      swap1\n      tag_150\n      swap1\n      tag_63\n      jump\t// in\n    tag_150:\n      swap2\n      swap1\n      pop\n      sstore\n      pop\n        /* \"crowdfunding.sol\":1212:1233  Crowdfunding memory c */\n      0x00\n        /* \"crowdfunding.sol\":1236:1506  Crowdfunding({\r... */\n      mload(0x40)\n      dup1\n      0x0100\n      add\n      0x40\n      mstore\n      dup1\n        /* \"crowdfunding.sol\":1269:1271  No */\n      sload(0x00)\n        /* \"crowdfunding.sol\":1236:1506  Crowdfunding({\r... */\n      dup2\n      mstore\n      0x20\n      add\n        /* \"crowdfunding.sol\":1292:1298  _title */\n      dup6\n        /* \"crowdfunding.sol\":1236:1506  Crowdfunding({\r... */\n      dup2\n      mstore\n      0x20\n      add\n        /* \"crowdfunding.sol\":1321:1322  1 */\n      0x01\n        /* \"crowdfunding.sol\":1236:1506  Crowdfunding({\r... */\n      dup2\n      mstore\n      0x20\n      add\n        /* \"crowdfunding.sol\":1346:1356  msg.sender */\n      caller\n        /* \"crowdfunding.sol\":1236:1506  Crowdfunding({\r... */\n      0xffffffffffffffffffffffffffffffffffffffff\n      and\n      dup2\n      mstore\n      0x20\n      add\n        /* \"crowdfunding.sol\":1382:1392  _recipient */\n      dup5\n        /* \"crowdfunding.sol\":1236:1506  Crowdfunding({\r... */\n      0xffffffffffffffffffffffffffffffffffffffff\n      and\n      dup2\n      mstore\n      0x20\n      add\n        /* \"crowdfunding.sol\":1416:1417  0 */\n      0x00\n        /* \"crowdfunding.sol\":1236:1506  Crowdfunding({\r... */\n      dup2\n      mstore\n      0x20\n      add\n        /* \"crowdfunding.sol\":1452:1464  _expectAmout */\n      dup4\n        /* \"crowdfunding.sol\":1236:1506  Crowdfunding({\r... */\n      dup2\n      mstore\n      0x20\n      add\n        /* \"crowdfunding.sol\":1493:1494  0 */\n      0x00\n        /* \"crowdfunding.sol\":1236:1506  Crowdfunding({\r... */\n      dup2\n      mstore\n      pop\n        /* \"crowdfunding.sol\":1212:1506  Crowdfunding memory c = Crowdfunding({\r... */\n      swap1\n      pop\n        /* \"crowdfunding.sol\":1517:1521  list */\n      0x01\n        /* \"crowdfunding.sol\":1527:1528  c */\n      dup2\n        /* \"crowdfunding.sol\":1517:1529  list.push(c) */\n      swap1\n      dup1\n      0x01\n      dup2\n      sload\n      add\n      dup1\n      dup3\n      sstore\n      dup1\n      swap2\n      pop\n      pop\n      0x01\n      swap1\n      sub\n      swap1\n      0x00\n      mstore\n      keccak256(0x00, 0x20)\n      swap1\n      0x08\n      mul\n      add\n      0x00\n      swap1\n      swap2\n      swap1\n      swap2\n      swap1\n      swap2\n      pop\n      0x00\n      dup3\n      add\n      mload\n      dup2\n      0x00\n      add\n      sstore\n      0x20\n      dup3\n      add\n      mload\n      dup2\n      0x01\n      add\n      swap1\n      dup1\n      mload\n      swap1\n      0x20\n      add\n      swap1\n      tag_152\n      swap3\n      swap2\n      swap1\n      tag_80\n      jump\t// in\n    tag_152:\n      pop\n      0x40\n      dup3\n      add\n      mload\n      dup2\n      0x02\n      add\n      sstore\n      0x60\n      dup3\n      add\n      mload\n      dup2\n      0x03\n      add\n      exp(0x0100, 0x00)\n      dup2\n      sload\n      dup2\n      0xffffffffffffffffffffffffffffffffffffffff\n      mul\n      not\n      and\n      swap1\n      dup4\n      0xffffffffffffffffffffffffffffffffffffffff\n      and\n      mul\n      or\n      swap1\n      sstore\n      pop\n      0x80\n      dup3\n      add\n      mload\n      dup2\n      0x04\n      add\n      exp(0x0100, 0x00)\n      dup2\n      sload\n      dup2\n      0xffffffffffffffffffffffffffffffffffffffff\n      mul\n      not\n      and\n      swap1\n      dup4\n      0xffffffffffffffffffffffffffffffffffffffff\n      and\n      mul\n      or\n      swap1\n      sstore\n      pop\n      0xa0\n      dup3\n      add\n      mload\n      dup2\n      0x05\n      add\n      sstore\n      0xc0\n      dup3\n      add\n      mload\n      dup2\n      0x06\n      add\n      sstore\n      0xe0\n      dup3\n      add\n      mload\n      dup2\n      0x07\n      add\n      sstore\n      pop\n      pop\n        /* \"crowdfunding.sol\":1614:1632  filterDataByStatus */\n      0x02\n        /* \"crowdfunding.sol\":1614:1635  filterDataByStatus[1] */\n      0x00\n        /* \"crowdfunding.sol\":1633:1634  1 */\n      0x01\n        /* \"crowdfunding.sol\":1614:1635  filterDataByStatus[1] */\n      dup2\n      mstore\n      0x20\n      add\n      swap1\n      dup2\n      mstore\n      0x20\n      add\n      0x00\n      keccak256\n        /* \"crowdfunding.sol\":1641:1642  c */\n      dup2\n        /* \"crowdfunding.sol\":1614:1643  filterDataByStatus[1].push(c) */\n      swap1\n      dup1\n      0x01\n      dup2\n      sload\n      add\n      dup1\n      dup3\n      sstore\n      dup1\n      swap2\n      pop\n      pop\n      0x01\n      swap1\n      sub\n      swap1\n      0x00\n      mstore\n      keccak256(0x00, 0x20)\n      swap1\n      0x08\n      mul\n      add\n      0x00\n      swap1\n      swap2\n      swap1\n      swap2\n      swap1\n      swap2\n      pop\n      0x00\n      dup3\n      add\n      mload\n      dup2\n      0x00\n      add\n      sstore\n      0x20\n      dup3\n      add\n      mload\n      dup2\n      0x01\n      add\n      swap1\n      dup1\n      mload\n      swap1\n      0x20\n      add\n      swap1\n      tag_154\n      swap3\n      swap2\n      swap1\n      tag_80\n      jump\t// in\n    tag_154:\n      pop\n      0x40\n      dup3\n      add\n      mload\n      dup2\n      0x02\n      add\n      sstore\n      0x60\n      dup3\n      add\n      mload\n      dup2\n      0x03\n      add\n      exp(0x0100, 0x00)\n      dup2\n      sload\n      dup2\n      0xffffffffffffffffffffffffffffffffffffffff\n      mul\n      not\n      and\n      swap1\n      dup4\n      0xffffffffffffffffffffffffffffffffffffffff\n      and\n      mul\n      or\n      swap1\n      sstore\n      pop\n      0x80\n      dup3\n      add\n      mload\n      dup2\n      0x04\n      add\n      exp(0x0100, 0x00)\n      dup2\n      sload\n      dup2\n      0xffffffffffffffffffffffffffffffffffffffff\n      mul\n      not\n      and\n      swap1\n      dup4\n      0xffffffffffffffffffffffffffffffffffffffff\n      and\n      mul\n      or\n      swap1\n      sstore\n      pop\n      0xa0\n      dup3\n      add\n      mload\n      dup2\n      0x05\n      add\n      sstore\n      0xc0\n      dup3\n      add\n      mload\n      dup2\n      0x06\n      add\n      sstore\n      0xe0\n      dup3\n      add\n      mload\n      dup2\n      0x07\n      add\n      sstore\n      pop\n      pop\n        /* \"crowdfunding.sol\":1654:1668  myCrowdfunding */\n      0x03\n        /* \"crowdfunding.sol\":1654:1680  myCrowdfunding[msg.sender] */\n      0x00\n        /* \"crowdfunding.sol\":1669:1679  msg.sender */\n      caller\n        /* \"crowdfunding.sol\":1654:1680  myCrowdfunding[msg.sender] */\n      0xffffffffffffffffffffffffffffffffffffffff\n      and\n      0xffffffffffffffffffffffffffffffffffffffff\n      and\n      dup2\n      mstore\n      0x20\n      add\n      swap1\n      dup2\n      mstore\n      0x20\n      add\n      0x00\n      keccak256\n        /* \"crowdfunding.sol\":1686:1687  c */\n      dup2\n        /* \"crowdfunding.sol\":1654:1688  myCrowdfunding[msg.sender].push(c) */\n      swap1\n      dup1\n      0x01\n      dup2\n      sload\n      add\n      dup1\n      dup3\n      sstore\n      dup1\n      swap2\n      pop\n      pop\n      0x01\n      swap1\n      sub\n      swap1\n      0x00\n      mstore\n      keccak256(0x00, 0x20)\n      swap1\n      0x08\n      mul\n      add\n      0x00\n      swap1\n      swap2\n      swap1\n      swap2\n      swap1\n      swap2\n      pop\n      0x00\n      dup3\n      add\n      mload\n      dup2\n      0x00\n      add\n      sstore\n      0x20\n      dup3\n      add\n      mload\n      dup2\n      0x01\n      add\n      swap1\n      dup1\n      mload\n      swap1\n      0x20\n      add\n      swap1\n      tag_156\n      swap3\n      swap2\n      swap1\n      tag_80\n      jump\t// in\n    tag_156:\n      pop\n      0x40\n      dup3\n      add\n      mload\n      dup2\n      0x02\n      add\n      sstore\n      0x60\n      dup3\n      add\n      mload\n      dup2\n      0x03\n      add\n      exp(0x0100, 0x00)\n      dup2\n      sload\n      dup2\n      0xffffffffffffffffffffffffffffffffffffffff\n      mul\n      not\n      and\n      swap1\n      dup4\n      0xffffffffffffffffffffffffffffffffffffffff\n      and\n      mul\n      or\n      swap1\n      sstore\n      pop\n      0x80\n      dup3\n      add\n      mload\n      dup2\n      0x04\n      add\n      exp(0x0100, 0x00)\n      dup2\n      sload\n      dup2\n      0xffffffffffffffffffffffffffffffffffffffff\n      mul\n      not\n      and\n      swap1\n      dup4\n      0xffffffffffffffffffffffffffffffffffffffff\n      and\n      mul\n      or\n      swap1\n      sstore\n      pop\n      0xa0\n      dup3\n      add\n      mload\n      dup2\n      0x05\n      add\n      sstore\n      0xc0\n      dup3\n      add\n      mload\n      dup2\n      0x06\n      add\n      sstore\n      0xe0\n      dup3\n      add\n      mload\n      dup2\n      0x07\n      add\n      sstore\n      pop\n      pop\n        /* \"crowdfunding.sol\":1186:1696  {\r... */\n      pop\n        /* \"crowdfunding.sol\":1091:1696  function createCrowdfunding(string memory _title,address _recipient, uint _expectAmout) public {\r... */\n      pop\n      pop\n      pop\n      jump\t// out\n    tag_80:\n      dup3\n      dup1\n      sload\n      tag_157\n      swap1\n      tag_69\n      jump\t// in\n    tag_157:\n      swap1\n      0x00\n      mstore\n      keccak256(0x00, 0x20)\n      swap1\n      0x1f\n      add\n      0x20\n      swap1\n      div\n      dup2\n      add\n      swap3\n      dup3\n      tag_159\n      jumpi\n      0x00\n      dup6\n      sstore\n      jump(tag_158)\n    tag_159:\n      dup3\n      0x1f\n      lt\n      tag_160\n      jumpi\n      dup1\n      mload\n      not(0xff)\n      and\n      dup4\n      dup1\n      add\n      or\n      dup6\n      sstore\n      jump(tag_158)\n    tag_160:\n      dup3\n      dup1\n      add\n      0x01\n      add\n      dup6\n      sstore\n      dup3\n      iszero\n      tag_158\n      jumpi\n      swap2\n      dup3\n      add\n    tag_161:\n      dup3\n      dup2\n      gt\n      iszero\n      tag_162\n      jumpi\n      dup3\n      mload\n      dup3\n      sstore\n      swap2\n      0x20\n      add\n      swap2\n      swap1\n      0x01\n      add\n      swap1\n      jump(tag_161)\n    tag_162:\n    tag_158:\n      pop\n      swap1\n      pop\n      tag_163\n      swap2\n      swap1\n      tag_164\n      jump\t// in\n    tag_163:\n      pop\n      swap1\n      jump\t// out\n    tag_92:\n      pop\n      dup1\n      sload\n      tag_165\n      swap1\n      tag_69\n      jump\t// in\n    tag_165:\n      0x00\n      dup3\n      sstore\n      dup1\n      0x1f\n      lt\n      tag_167\n      jumpi\n      pop\n      jump(tag_166)\n    tag_167:\n      0x1f\n      add\n      0x20\n      swap1\n      div\n      swap1\n      0x00\n      mstore\n      keccak256(0x00, 0x20)\n      swap1\n      dup2\n      add\n      swap1\n      tag_168\n      swap2\n      swap1\n      tag_164\n      jump\t// in\n    tag_168:\n    tag_166:\n      pop\n      jump\t// out\n    tag_111:\n      dup3\n      dup1\n      sload\n      tag_169\n      swap1\n      tag_69\n      jump\t// in\n    tag_169:\n      swap1\n      0x00\n      mstore\n      keccak256(0x00, 0x20)\n      swap1\n      0x1f\n      add\n      0x20\n      swap1\n      div\n      dup2\n      add\n      swap3\n      dup3\n      tag_171\n      jumpi\n      0x00\n      dup6\n      sstore\n      jump(tag_170)\n    tag_171:\n      dup3\n      0x1f\n      lt\n      tag_172\n      jumpi\n      dup1\n      sload\n      dup6\n      sstore\n      jump(tag_170)\n    tag_172:\n      dup3\n      dup1\n      add\n      0x01\n      add\n      dup6\n      sstore\n      dup3\n      iszero\n      tag_170\n      jumpi\n      0x00\n      mstore\n      keccak256(0x00, 0x20)\n      swap2\n      0x1f\n      add\n      0x20\n      swap1\n      div\n      dup3\n      add\n    tag_173:\n      dup3\n      dup2\n      gt\n      iszero\n      tag_174\n      jumpi\n      dup3\n      sload\n      dup3\n      sstore\n      swap2\n      0x01\n      add\n      swap2\n      swap1\n      0x01\n      add\n      swap1\n      jump(tag_173)\n    tag_174:\n    tag_170:\n      pop\n      swap1\n      pop\n      tag_175\n      swap2\n      swap1\n      tag_164\n      jump\t// in\n    tag_175:\n      pop\n      swap1\n      jump\t// out\n    tag_164:\n    tag_176:\n      dup1\n      dup3\n      gt\n      iszero\n      tag_177\n      jumpi\n      0x00\n      dup2\n      0x00\n      swap1\n      sstore\n      pop\n      0x01\n      add\n      jump(tag_176)\n    tag_177:\n      pop\n      swap1\n      jump\t// out\n        /* \"#utility.yul\":7:419   */\n    tag_179:\n        /* \"#utility.yul\":85:90   */\n      0x00\n        /* \"#utility.yul\":110:176   */\n      tag_181\n        /* \"#utility.yul\":126:175   */\n      tag_182\n        /* \"#utility.yul\":168:174   */\n      dup5\n        /* \"#utility.yul\":126:175   */\n      tag_183\n      jump\t// in\n    tag_182:\n        /* \"#utility.yul\":110:176   */\n      tag_184\n      jump\t// in\n    tag_181:\n        /* \"#utility.yul\":101:176   */\n      swap1\n      pop\n        /* \"#utility.yul\":199:205   */\n      dup3\n        /* \"#utility.yul\":192:197   */\n      dup2\n        /* \"#utility.yul\":185:206   */\n      mstore\n        /* \"#utility.yul\":237:241   */\n      0x20\n        /* \"#utility.yul\":230:235   */\n      dup2\n        /* \"#utility.yul\":226:242   */\n      add\n        /* \"#utility.yul\":275:278   */\n      dup5\n        /* \"#utility.yul\":266:272   */\n      dup5\n        /* \"#utility.yul\":261:264   */\n      dup5\n        /* \"#utility.yul\":257:273   */\n      add\n        /* \"#utility.yul\":254:279   */\n      gt\n        /* \"#utility.yul\":251:363   */\n      iszero\n      tag_185\n      jumpi\n        /* \"#utility.yul\":282:361   */\n      tag_186\n      tag_187\n      jump\t// in\n    tag_186:\n        /* \"#utility.yul\":251:363   */\n    tag_185:\n        /* \"#utility.yul\":372:413   */\n      tag_188\n        /* \"#utility.yul\":406:412   */\n      dup5\n        /* \"#utility.yul\":401:404   */\n      dup3\n        /* \"#utility.yul\":396:399   */\n      dup6\n        /* \"#utility.yul\":372:413   */\n      tag_189\n      jump\t// in\n    tag_188:\n        /* \"#utility.yul\":91:419   */\n      pop\n        /* \"#utility.yul\":7:419   */\n      swap4\n      swap3\n      pop\n      pop\n      pop\n      jump\t// out\n        /* \"#utility.yul\":425:564   */\n    tag_190:\n        /* \"#utility.yul\":471:476   */\n      0x00\n        /* \"#utility.yul\":509:515   */\n      dup2\n        /* \"#utility.yul\":496:516   */\n      calldataload\n        /* \"#utility.yul\":487:516   */\n      swap1\n      pop\n        /* \"#utility.yul\":525:558   */\n      tag_192\n        /* \"#utility.yul\":552:557   */\n      dup2\n        /* \"#utility.yul\":525:558   */\n      tag_193\n      jump\t// in\n    tag_192:\n        /* \"#utility.yul\":425:564   */\n      swap3\n      swap2\n      pop\n      pop\n      jump\t// out\n        /* \"#utility.yul\":584:924   */\n    tag_194:\n        /* \"#utility.yul\":640:645   */\n      0x00\n        /* \"#utility.yul\":689:692   */\n      dup3\n        /* \"#utility.yul\":682:686   */\n      0x1f\n        /* \"#utility.yul\":674:680   */\n      dup4\n        /* \"#utility.yul\":670:687   */\n      add\n        /* \"#utility.yul\":666:693   */\n      slt\n        /* \"#utility.yul\":656:778   */\n      tag_196\n      jumpi\n        /* \"#utility.yul\":697:776   */\n      tag_197\n      tag_198\n      jump\t// in\n    tag_197:\n        /* \"#utility.yul\":656:778   */\n    tag_196:\n        /* \"#utility.yul\":814:820   */\n      dup2\n        /* \"#utility.yul\":801:821   */\n      calldataload\n        /* \"#utility.yul\":839:918   */\n      tag_199\n        /* \"#utility.yul\":914:917   */\n      dup5\n        /* \"#utility.yul\":906:912   */\n      dup3\n        /* \"#utility.yul\":899:903   */\n      0x20\n        /* \"#utility.yul\":891:897   */\n      dup7\n        /* \"#utility.yul\":887:904   */\n      add\n        /* \"#utility.yul\":839:918   */\n      tag_179\n      jump\t// in\n    tag_199:\n        /* \"#utility.yul\":830:918   */\n      swap2\n      pop\n        /* \"#utility.yul\":646:924   */\n      pop\n        /* \"#utility.yul\":584:924   */\n      swap3\n      swap2\n      pop\n      pop\n      jump\t// out\n        /* \"#utility.yul\":930:1069   */\n    tag_200:\n        /* \"#utility.yul\":976:981   */\n      0x00\n        /* \"#utility.yul\":1014:1020   */\n      dup2\n        /* \"#utility.yul\":1001:1021   */\n      calldataload\n        /* \"#utility.yul\":992:1021   */\n      swap1\n      pop\n        /* \"#utility.yul\":1030:1063   */\n      tag_202\n        /* \"#utility.yul\":1057:1062   */\n      dup2\n        /* \"#utility.yul\":1030:1063   */\n      tag_203\n      jump\t// in\n    tag_202:\n        /* \"#utility.yul\":930:1069   */\n      swap3\n      swap2\n      pop\n      pop\n      jump\t// out\n        /* \"#utility.yul\":1075:1404   */\n    tag_17:\n        /* \"#utility.yul\":1134:1140   */\n      0x00\n        /* \"#utility.yul\":1183:1185   */\n      0x20\n        /* \"#utility.yul\":1171:1180   */\n      dup3\n        /* \"#utility.yul\":1162:1169   */\n      dup5\n        /* \"#utility.yul\":1158:1181   */\n      sub\n        /* \"#utility.yul\":1154:1186   */\n      slt\n        /* \"#utility.yul\":1151:1270   */\n      iszero\n      tag_205\n      jumpi\n        /* \"#utility.yul\":1189:1268   */\n      tag_206\n      tag_207\n      jump\t// in\n    tag_206:\n        /* \"#utility.yul\":1151:1270   */\n    tag_205:\n        /* \"#utility.yul\":1309:1310   */\n      0x00\n        /* \"#utility.yul\":1334:1387   */\n      tag_208\n        /* \"#utility.yul\":1379:1386   */\n      dup5\n        /* \"#utility.yul\":1370:1376   */\n      dup3\n        /* \"#utility.yul\":1359:1368   */\n      dup6\n        /* \"#utility.yul\":1355:1377   */\n      add\n        /* \"#utility.yul\":1334:1387   */\n      tag_190\n      jump\t// in\n    tag_208:\n        /* \"#utility.yul\":1324:1387   */\n      swap2\n      pop\n        /* \"#utility.yul\":1280:1397   */\n      pop\n        /* \"#utility.yul\":1075:1404   */\n      swap3\n      swap2\n      pop\n      pop\n      jump\t// out\n        /* \"#utility.yul\":1410:2209   */\n    tag_40:\n        /* \"#utility.yul\":1497:1503   */\n      0x00\n        /* \"#utility.yul\":1505:1511   */\n      dup1\n        /* \"#utility.yul\":1513:1519   */\n      0x00\n        /* \"#utility.yul\":1562:1564   */\n      0x60\n        /* \"#utility.yul\":1550:1559   */\n      dup5\n        /* \"#utility.yul\":1541:1548   */\n      dup7\n        /* \"#utility.yul\":1537:1560   */\n      sub\n        /* \"#utility.yul\":1533:1565   */\n      slt\n        /* \"#utility.yul\":1530:1649   */\n      iszero\n      tag_210\n      jumpi\n        /* \"#utility.yul\":1568:1647   */\n      tag_211\n      tag_207\n      jump\t// in\n    tag_211:\n        /* \"#utility.yul\":1530:1649   */\n    tag_210:\n        /* \"#utility.yul\":1716:1717   */\n      0x00\n        /* \"#utility.yul\":1705:1714   */\n      dup5\n        /* \"#utility.yul\":1701:1718   */\n      add\n        /* \"#utility.yul\":1688:1719   */\n      calldataload\n        /* \"#utility.yul\":1746:1764   */\n      0xffffffffffffffff\n        /* \"#utility.yul\":1738:1744   */\n      dup2\n        /* \"#utility.yul\":1735:1765   */\n      gt\n        /* \"#utility.yul\":1732:1849   */\n      iszero\n      tag_212\n      jumpi\n        /* \"#utility.yul\":1768:1847   */\n      tag_213\n      tag_214\n      jump\t// in\n    tag_213:\n        /* \"#utility.yul\":1732:1849   */\n    tag_212:\n        /* \"#utility.yul\":1873:1936   */\n      tag_215\n        /* \"#utility.yul\":1928:1935   */\n      dup7\n        /* \"#utility.yul\":1919:1925   */\n      dup3\n        /* \"#utility.yul\":1908:1917   */\n      dup8\n        /* \"#utility.yul\":1904:1926   */\n      add\n        /* \"#utility.yul\":1873:1936   */\n      tag_194\n      jump\t// in\n    tag_215:\n        /* \"#utility.yul\":1863:1936   */\n      swap4\n      pop\n        /* \"#utility.yul\":1659:1946   */\n      pop\n        /* \"#utility.yul\":1985:1987   */\n      0x20\n        /* \"#utility.yul\":2011:2064   */\n      tag_216\n        /* \"#utility.yul\":2056:2063   */\n      dup7\n        /* \"#utility.yul\":2047:2053   */\n      dup3\n        /* \"#utility.yul\":2036:2045   */\n      dup8\n        /* \"#utility.yul\":2032:2054   */\n      add\n        /* \"#utility.yul\":2011:2064   */\n      tag_190\n      jump\t// in\n    tag_216:\n        /* \"#utility.yul\":2001:2064   */\n      swap3\n      pop\n        /* \"#utility.yul\":1956:2074   */\n      pop\n        /* \"#utility.yul\":2113:2115   */\n      0x40\n        /* \"#utility.yul\":2139:2192   */\n      tag_217\n        /* \"#utility.yul\":2184:2191   */\n      dup7\n        /* \"#utility.yul\":2175:2181   */\n      dup3\n        /* \"#utility.yul\":2164:2173   */\n      dup8\n        /* \"#utility.yul\":2160:2182   */\n      add\n        /* \"#utility.yul\":2139:2192   */\n      tag_200\n      jump\t// in\n    tag_217:\n        /* \"#utility.yul\":2129:2192   */\n      swap2\n      pop\n        /* \"#utility.yul\":2084:2202   */\n      pop\n        /* \"#utility.yul\":1410:2209   */\n      swap3\n      pop\n      swap3\n      pop\n      swap3\n      jump\t// out\n        /* \"#utility.yul\":2215:2544   */\n    tag_27:\n        /* \"#utility.yul\":2274:2280   */\n      0x00\n        /* \"#utility.yul\":2323:2325   */\n      0x20\n        /* \"#utility.yul\":2311:2320   */\n      dup3\n        /* \"#utility.yul\":2302:2309   */\n      dup5\n        /* \"#utility.yul\":2298:2321   */\n      sub\n        /* \"#utility.yul\":2294:2326   */\n      slt\n        /* \"#utility.yul\":2291:2410   */\n      iszero\n      tag_219\n      jumpi\n        /* \"#utility.yul\":2329:2408   */\n      tag_220\n      tag_207\n      jump\t// in\n    tag_220:\n        /* \"#utility.yul\":2291:2410   */\n    tag_219:\n        /* \"#utility.yul\":2449:2450   */\n      0x00\n        /* \"#utility.yul\":2474:2527   */\n      tag_221\n        /* \"#utility.yul\":2519:2526   */\n      dup5\n        /* \"#utility.yul\":2510:2516   */\n      dup3\n        /* \"#utility.yul\":2499:2508   */\n      dup6\n        /* \"#utility.yul\":2495:2517   */\n      add\n        /* \"#utility.yul\":2474:2527   */\n      tag_200\n      jump\t// in\n    tag_221:\n        /* \"#utility.yul\":2464:2527   */\n      swap2\n      pop\n        /* \"#utility.yul\":2420:2537   */\n      pop\n        /* \"#utility.yul\":2215:2544   */\n      swap3\n      swap2\n      pop\n      pop\n      jump\t// out\n        /* \"#utility.yul\":2550:3204   */\n    tag_23:\n        /* \"#utility.yul\":2628:2634   */\n      0x00\n        /* \"#utility.yul\":2636:2642   */\n      dup1\n        /* \"#utility.yul\":2685:2687   */\n      0x40\n        /* \"#utility.yul\":2673:2682   */\n      dup4\n        /* \"#utility.yul\":2664:2671   */\n      dup6\n        /* \"#utility.yul\":2660:2683   */\n      sub\n        /* \"#utility.yul\":2656:2688   */\n      slt\n        /* \"#utility.yul\":2653:2772   */\n      iszero\n      tag_223\n      jumpi\n        /* \"#utility.yul\":2691:2770   */\n      tag_224\n      tag_207\n      jump\t// in\n    tag_224:\n        /* \"#utility.yul\":2653:2772   */\n    tag_223:\n        /* \"#utility.yul\":2811:2812   */\n      0x00\n        /* \"#utility.yul\":2836:2889   */\n      tag_225\n        /* \"#utility.yul\":2881:2888   */\n      dup6\n        /* \"#utility.yul\":2872:2878   */\n      dup3\n        /* \"#utility.yul\":2861:2870   */\n      dup7\n        /* \"#utility.yul\":2857:2879   */\n      add\n        /* \"#utility.yul\":2836:2889   */\n      tag_200\n      jump\t// in\n    tag_225:\n        /* \"#utility.yul\":2826:2889   */\n      swap3\n      pop\n        /* \"#utility.yul\":2782:2899   */\n      pop\n        /* \"#utility.yul\":2966:2968   */\n      0x20\n        /* \"#utility.yul\":2955:2964   */\n      dup4\n        /* \"#utility.yul\":2951:2969   */\n      add\n        /* \"#utility.yul\":2938:2970   */\n      calldataload\n        /* \"#utility.yul\":2997:3015   */\n      0xffffffffffffffff\n        /* \"#utility.yul\":2989:2995   */\n      dup2\n        /* \"#utility.yul\":2986:3016   */\n      gt\n        /* \"#utility.yul\":2983:3100   */\n      iszero\n      tag_226\n      jumpi\n        /* \"#utility.yul\":3019:3098   */\n      tag_227\n      tag_214\n      jump\t// in\n    tag_227:\n        /* \"#utility.yul\":2983:3100   */\n    tag_226:\n        /* \"#utility.yul\":3124:3187   */\n      tag_228\n        /* \"#utility.yul\":3179:3186   */\n      dup6\n        /* \"#utility.yul\":3170:3176   */\n      dup3\n        /* \"#utility.yul\":3159:3168   */\n      dup7\n        /* \"#utility.yul\":3155:3177   */\n      add\n        /* \"#utility.yul\":3124:3187   */\n      tag_194\n      jump\t// in\n    tag_228:\n        /* \"#utility.yul\":3114:3187   */\n      swap2\n      pop\n        /* \"#utility.yul\":2909:3197   */\n      pop\n        /* \"#utility.yul\":2550:3204   */\n      swap3\n      pop\n      swap3\n      swap1\n      pop\n      jump\t// out\n        /* \"#utility.yul\":3210:4009   */\n    tag_13:\n        /* \"#utility.yul\":3297:3303   */\n      0x00\n        /* \"#utility.yul\":3305:3311   */\n      dup1\n        /* \"#utility.yul\":3313:3319   */\n      0x00\n        /* \"#utility.yul\":3362:3364   */\n      0x60\n        /* \"#utility.yul\":3350:3359   */\n      dup5\n        /* \"#utility.yul\":3341:3348   */\n      dup7\n        /* \"#utility.yul\":3337:3360   */\n      sub\n        /* \"#utility.yul\":3333:3365   */\n      slt\n        /* \"#utility.yul\":3330:3449   */\n      iszero\n      tag_230\n      jumpi\n        /* \"#utility.yul\":3368:3447   */\n      tag_231\n      tag_207\n      jump\t// in\n    tag_231:\n        /* \"#utility.yul\":3330:3449   */\n    tag_230:\n        /* \"#utility.yul\":3488:3489   */\n      0x00\n        /* \"#utility.yul\":3513:3566   */\n      tag_232\n        /* \"#utility.yul\":3558:3565   */\n      dup7\n        /* \"#utility.yul\":3549:3555   */\n      dup3\n        /* \"#utility.yul\":3538:3547   */\n      dup8\n        /* \"#utility.yul\":3534:3556   */\n      add\n        /* \"#utility.yul\":3513:3566   */\n      tag_200\n      jump\t// in\n    tag_232:\n        /* \"#utility.yul\":3503:3566   */\n      swap4\n      pop\n        /* \"#utility.yul\":3459:3576   */\n      pop\n        /* \"#utility.yul\":3643:3645   */\n      0x20\n        /* \"#utility.yul\":3632:3641   */\n      dup5\n        /* \"#utility.yul\":3628:3646   */\n      add\n        /* \"#utility.yul\":3615:3647   */\n      calldataload\n        /* \"#utility.yul\":3674:3692   */\n      0xffffffffffffffff\n        /* \"#utility.yul\":3666:3672   */\n      dup2\n        /* \"#utility.yul\":3663:3693   */\n      gt\n        /* \"#utility.yul\":3660:3777   */\n      iszero\n      tag_233\n      jumpi\n        /* \"#utility.yul\":3696:3775   */\n      tag_234\n      tag_214\n      jump\t// in\n    tag_234:\n        /* \"#utility.yul\":3660:3777   */\n    tag_233:\n        /* \"#utility.yul\":3801:3864   */\n      tag_235\n        /* \"#utility.yul\":3856:3863   */\n      dup7\n        /* \"#utility.yul\":3847:3853   */\n      dup3\n        /* \"#utility.yul\":3836:3845   */\n      dup8\n        /* \"#utility.yul\":3832:3854   */\n      add\n        /* \"#utility.yul\":3801:3864   */\n      tag_194\n      jump\t// in\n    tag_235:\n        /* \"#utility.yul\":3791:3864   */\n      swap3\n      pop\n        /* \"#utility.yul\":3586:3874   */\n      pop\n        /* \"#utility.yul\":3913:3915   */\n      0x40\n        /* \"#utility.yul\":3939:3992   */\n      tag_236\n        /* \"#utility.yul\":3984:3991   */\n      dup7\n        /* \"#utility.yul\":3975:3981   */\n      dup3\n        /* \"#utility.yul\":3964:3973   */\n      dup8\n        /* \"#utility.yul\":3960:3982   */\n      add\n        /* \"#utility.yul\":3939:3992   */\n      tag_190\n      jump\t// in\n    tag_236:\n        /* \"#utility.yul\":3929:3992   */\n      swap2\n      pop\n        /* \"#utility.yul\":3884:4002   */\n      pop\n        /* \"#utility.yul\":3210:4009   */\n      swap3\n      pop\n      swap3\n      pop\n      swap3\n      jump\t// out\n        /* \"#utility.yul\":4015:4283   */\n    tag_237:\n        /* \"#utility.yul\":4140:4150   */\n      0x00\n        /* \"#utility.yul\":4175:4277   */\n      tag_239\n        /* \"#utility.yul\":4273:4276   */\n      dup4\n        /* \"#utility.yul\":4265:4271   */\n      dup4\n        /* \"#utility.yul\":4175:4277   */\n      tag_240\n      jump\t// in\n    tag_239:\n        /* \"#utility.yul\":4161:4277   */\n      swap1\n      pop\n        /* \"#utility.yul\":4015:4283   */\n      swap3\n      swap2\n      pop\n      pop\n      jump\t// out\n        /* \"#utility.yul\":4289:4397   */\n    tag_241:\n        /* \"#utility.yul\":4366:4390   */\n      tag_243\n        /* \"#utility.yul\":4384:4389   */\n      dup2\n        /* \"#utility.yul\":4366:4390   */\n      tag_244\n      jump\t// in\n    tag_243:\n        /* \"#utility.yul\":4361:4364   */\n      dup3\n        /* \"#utility.yul\":4354:4391   */\n      mstore\n        /* \"#utility.yul\":4289:4397   */\n      pop\n      pop\n      jump\t// out\n        /* \"#utility.yul\":4403:4521   */\n    tag_245:\n        /* \"#utility.yul\":4490:4514   */\n      tag_247\n        /* \"#utility.yul\":4508:4513   */\n      dup2\n        /* \"#utility.yul\":4490:4514   */\n      tag_244\n      jump\t// in\n    tag_247:\n        /* \"#utility.yul\":4485:4488   */\n      dup3\n        /* \"#utility.yul\":4478:4515   */\n      mstore\n        /* \"#utility.yul\":4403:4521   */\n      pop\n      pop\n      jump\t// out\n        /* \"#utility.yul\":4623:5758   */\n    tag_248:\n        /* \"#utility.yul\":4798:4801   */\n      0x00\n        /* \"#utility.yul\":4827:4909   */\n      tag_250\n        /* \"#utility.yul\":4903:4908   */\n      dup3\n        /* \"#utility.yul\":4827:4909   */\n      tag_251\n      jump\t// in\n    tag_250:\n        /* \"#utility.yul\":4925:5039   */\n      tag_252\n        /* \"#utility.yul\":5032:5038   */\n      dup2\n        /* \"#utility.yul\":5027:5030   */\n      dup6\n        /* \"#utility.yul\":4925:5039   */\n      tag_253\n      jump\t// in\n    tag_252:\n        /* \"#utility.yul\":4918:5039   */\n      swap4\n      pop\n        /* \"#utility.yul\":5065:5068   */\n      dup4\n        /* \"#utility.yul\":5110:5114   */\n      0x20\n        /* \"#utility.yul\":5102:5108   */\n      dup3\n        /* \"#utility.yul\":5098:5115   */\n      mul\n        /* \"#utility.yul\":5093:5096   */\n      dup6\n        /* \"#utility.yul\":5089:5116   */\n      add\n        /* \"#utility.yul\":5140:5224   */\n      tag_254\n        /* \"#utility.yul\":5218:5223   */\n      dup6\n        /* \"#utility.yul\":5140:5224   */\n      tag_255\n      jump\t// in\n    tag_254:\n        /* \"#utility.yul\":5247:5254   */\n      dup1\n        /* \"#utility.yul\":5278:5279   */\n      0x00\n        /* \"#utility.yul\":5263:5713   */\n    tag_256:\n        /* \"#utility.yul\":5288:5294   */\n      dup6\n        /* \"#utility.yul\":5285:5286   */\n      dup2\n        /* \"#utility.yul\":5282:5295   */\n      lt\n        /* \"#utility.yul\":5263:5713   */\n      iszero\n      tag_258\n      jumpi\n        /* \"#utility.yul\":5359:5368   */\n      dup5\n        /* \"#utility.yul\":5353:5357   */\n      dup5\n        /* \"#utility.yul\":5349:5369   */\n      sub\n        /* \"#utility.yul\":5344:5347   */\n      dup10\n        /* \"#utility.yul\":5337:5370   */\n      mstore\n        /* \"#utility.yul\":5410:5416   */\n      dup2\n        /* \"#utility.yul\":5404:5417   */\n      mload\n        /* \"#utility.yul\":5438:5558   */\n      tag_259\n        /* \"#utility.yul\":5553:5557   */\n      dup6\n        /* \"#utility.yul\":5538:5551   */\n      dup3\n        /* \"#utility.yul\":5438:5558   */\n      tag_237\n      jump\t// in\n    tag_259:\n        /* \"#utility.yul\":5430:5558   */\n      swap5\n      pop\n        /* \"#utility.yul\":5581:5669   */\n      tag_260\n        /* \"#utility.yul\":5662:5668   */\n      dup4\n        /* \"#utility.yul\":5581:5669   */\n      tag_261\n      jump\t// in\n    tag_260:\n        /* \"#utility.yul\":5571:5669   */\n      swap3\n      pop\n        /* \"#utility.yul\":5698:5702   */\n      0x20\n        /* \"#utility.yul\":5693:5696   */\n      dup11\n        /* \"#utility.yul\":5689:5703   */\n      add\n        /* \"#utility.yul\":5682:5703   */\n      swap10\n      pop\n        /* \"#utility.yul\":5323:5713   */\n      pop\n        /* \"#utility.yul\":5310:5311   */\n      0x01\n        /* \"#utility.yul\":5307:5308   */\n      dup2\n        /* \"#utility.yul\":5303:5312   */\n      add\n        /* \"#utility.yul\":5298:5312   */\n      swap1\n      pop\n        /* \"#utility.yul\":5263:5713   */\n      jump(tag_256)\n    tag_258:\n        /* \"#utility.yul\":5267:5281   */\n      pop\n        /* \"#utility.yul\":5729:5733   */\n      dup3\n        /* \"#utility.yul\":5722:5733   */\n      swap8\n      pop\n        /* \"#utility.yul\":5749:5752   */\n      dup8\n        /* \"#utility.yul\":5742:5752   */\n      swap6\n      pop\n        /* \"#utility.yul\":4803:5758   */\n      pop\n      pop\n      pop\n      pop\n      pop\n        /* \"#utility.yul\":4623:5758   */\n      swap3\n      swap2\n      pop\n      pop\n      jump\t// out\n        /* \"#utility.yul\":5764:6108   */\n    tag_262:\n        /* \"#utility.yul\":5842:5845   */\n      0x00\n        /* \"#utility.yul\":5870:5909   */\n      tag_264\n        /* \"#utility.yul\":5903:5908   */\n      dup3\n        /* \"#utility.yul\":5870:5909   */\n      tag_265\n      jump\t// in\n    tag_264:\n        /* \"#utility.yul\":5925:5986   */\n      tag_266\n        /* \"#utility.yul\":5979:5985   */\n      dup2\n        /* \"#utility.yul\":5974:5977   */\n      dup6\n        /* \"#utility.yul\":5925:5986   */\n      tag_267\n      jump\t// in\n    tag_266:\n        /* \"#utility.yul\":5918:5986   */\n      swap4\n      pop\n        /* \"#utility.yul\":5995:6047   */\n      tag_268\n        /* \"#utility.yul\":6040:6046   */\n      dup2\n        /* \"#utility.yul\":6035:6038   */\n      dup6\n        /* \"#utility.yul\":6028:6032   */\n      0x20\n        /* \"#utility.yul\":6021:6026   */\n      dup7\n        /* \"#utility.yul\":6017:6033   */\n      add\n        /* \"#utility.yul\":5995:6047   */\n      tag_269\n      jump\t// in\n    tag_268:\n        /* \"#utility.yul\":6072:6101   */\n      tag_270\n        /* \"#utility.yul\":6094:6100   */\n      dup2\n        /* \"#utility.yul\":6072:6101   */\n      tag_271\n      jump\t// in\n    tag_270:\n        /* \"#utility.yul\":6067:6070   */\n      dup5\n        /* \"#utility.yul\":6063:6102   */\n      add\n        /* \"#utility.yul\":6056:6102   */\n      swap2\n      pop\n        /* \"#utility.yul\":5846:6108   */\n      pop\n        /* \"#utility.yul\":5764:6108   */\n      swap3\n      swap2\n      pop\n      pop\n      jump\t// out\n        /* \"#utility.yul\":6114:6478   */\n    tag_272:\n        /* \"#utility.yul\":6202:6205   */\n      0x00\n        /* \"#utility.yul\":6230:6269   */\n      tag_274\n        /* \"#utility.yul\":6263:6268   */\n      dup3\n        /* \"#utility.yul\":6230:6269   */\n      tag_265\n      jump\t// in\n    tag_274:\n        /* \"#utility.yul\":6285:6356   */\n      tag_275\n        /* \"#utility.yul\":6349:6355   */\n      dup2\n        /* \"#utility.yul\":6344:6347   */\n      dup6\n        /* \"#utility.yul\":6285:6356   */\n      tag_276\n      jump\t// in\n    tag_275:\n        /* \"#utility.yul\":6278:6356   */\n      swap4\n      pop\n        /* \"#utility.yul\":6365:6417   */\n      tag_277\n        /* \"#utility.yul\":6410:6416   */\n      dup2\n        /* \"#utility.yul\":6405:6408   */\n      dup6\n        /* \"#utility.yul\":6398:6402   */\n      0x20\n        /* \"#utility.yul\":6391:6396   */\n      dup7\n        /* \"#utility.yul\":6387:6403   */\n      add\n        /* \"#utility.yul\":6365:6417   */\n      tag_269\n      jump\t// in\n    tag_277:\n        /* \"#utility.yul\":6442:6471   */\n      tag_278\n        /* \"#utility.yul\":6464:6470   */\n      dup2\n        /* \"#utility.yul\":6442:6471   */\n      tag_271\n      jump\t// in\n    tag_278:\n        /* \"#utility.yul\":6437:6440   */\n      dup5\n        /* \"#utility.yul\":6433:6472   */\n      add\n        /* \"#utility.yul\":6426:6472   */\n      swap2\n      pop\n        /* \"#utility.yul\":6206:6478   */\n      pop\n        /* \"#utility.yul\":6114:6478   */\n      swap3\n      swap2\n      pop\n      pop\n      jump\t// out\n        /* \"#utility.yul\":6576:8252   */\n    tag_240:\n        /* \"#utility.yul\":6691:6694   */\n      0x00\n        /* \"#utility.yul\":6727:6733   */\n      0x0100\n        /* \"#utility.yul\":6722:6725   */\n      dup4\n        /* \"#utility.yul\":6718:6734   */\n      add\n        /* \"#utility.yul\":6815:6819   */\n      0x00\n        /* \"#utility.yul\":6808:6813   */\n      dup4\n        /* \"#utility.yul\":6804:6820   */\n      add\n        /* \"#utility.yul\":6798:6821   */\n      mload\n        /* \"#utility.yul\":6834:6897   */\n      tag_280\n        /* \"#utility.yul\":6891:6895   */\n      0x00\n        /* \"#utility.yul\":6886:6889   */\n      dup7\n        /* \"#utility.yul\":6882:6896   */\n      add\n        /* \"#utility.yul\":6868:6880   */\n      dup3\n        /* \"#utility.yul\":6834:6897   */\n      tag_281\n      jump\t// in\n    tag_280:\n        /* \"#utility.yul\":6744:6907   */\n      pop\n        /* \"#utility.yul\":6990:6994   */\n      0x20\n        /* \"#utility.yul\":6983:6988   */\n      dup4\n        /* \"#utility.yul\":6979:6995   */\n      add\n        /* \"#utility.yul\":6973:6996   */\n      mload\n        /* \"#utility.yul\":7043:7046   */\n      dup5\n        /* \"#utility.yul\":7037:7041   */\n      dup3\n        /* \"#utility.yul\":7033:7047   */\n      sub\n        /* \"#utility.yul\":7026:7030   */\n      0x20\n        /* \"#utility.yul\":7021:7024   */\n      dup7\n        /* \"#utility.yul\":7017:7031   */\n      add\n        /* \"#utility.yul\":7010:7048   */\n      mstore\n        /* \"#utility.yul\":7069:7142   */\n      tag_282\n        /* \"#utility.yul\":7137:7141   */\n      dup3\n        /* \"#utility.yul\":7123:7135   */\n      dup3\n        /* \"#utility.yul\":7069:7142   */\n      tag_262\n      jump\t// in\n    tag_282:\n        /* \"#utility.yul\":7061:7142   */\n      swap2\n      pop\n        /* \"#utility.yul\":6917:7153   */\n      pop\n        /* \"#utility.yul\":7237:7241   */\n      0x40\n        /* \"#utility.yul\":7230:7235   */\n      dup4\n        /* \"#utility.yul\":7226:7242   */\n      add\n        /* \"#utility.yul\":7220:7243   */\n      mload\n        /* \"#utility.yul\":7256:7319   */\n      tag_283\n        /* \"#utility.yul\":7313:7317   */\n      0x40\n        /* \"#utility.yul\":7308:7311   */\n      dup7\n        /* \"#utility.yul\":7304:7318   */\n      add\n        /* \"#utility.yul\":7290:7302   */\n      dup3\n        /* \"#utility.yul\":7256:7319   */\n      tag_281\n      jump\t// in\n    tag_283:\n        /* \"#utility.yul\":7163:7329   */\n      pop\n        /* \"#utility.yul\":7414:7418   */\n      0x60\n        /* \"#utility.yul\":7407:7412   */\n      dup4\n        /* \"#utility.yul\":7403:7419   */\n      add\n        /* \"#utility.yul\":7397:7420   */\n      mload\n        /* \"#utility.yul\":7433:7496   */\n      tag_284\n        /* \"#utility.yul\":7490:7494   */\n      0x60\n        /* \"#utility.yul\":7485:7488   */\n      dup7\n        /* \"#utility.yul\":7481:7495   */\n      add\n        /* \"#utility.yul\":7467:7479   */\n      dup3\n        /* \"#utility.yul\":7433:7496   */\n      tag_241\n      jump\t// in\n    tag_284:\n        /* \"#utility.yul\":7339:7506   */\n      pop\n        /* \"#utility.yul\":7593:7597   */\n      0x80\n        /* \"#utility.yul\":7586:7591   */\n      dup4\n        /* \"#utility.yul\":7582:7598   */\n      add\n        /* \"#utility.yul\":7576:7599   */\n      mload\n        /* \"#utility.yul\":7612:7675   */\n      tag_285\n        /* \"#utility.yul\":7669:7673   */\n      0x80\n        /* \"#utility.yul\":7664:7667   */\n      dup7\n        /* \"#utility.yul\":7660:7674   */\n      add\n        /* \"#utility.yul\":7646:7658   */\n      dup3\n        /* \"#utility.yul\":7612:7675   */\n      tag_241\n      jump\t// in\n    tag_285:\n        /* \"#utility.yul\":7516:7685   */\n      pop\n        /* \"#utility.yul\":7770:7774   */\n      0xa0\n        /* \"#utility.yul\":7763:7768   */\n      dup4\n        /* \"#utility.yul\":7759:7775   */\n      add\n        /* \"#utility.yul\":7753:7776   */\n      mload\n        /* \"#utility.yul\":7789:7852   */\n      tag_286\n        /* \"#utility.yul\":7846:7850   */\n      0xa0\n        /* \"#utility.yul\":7841:7844   */\n      dup7\n        /* \"#utility.yul\":7837:7851   */\n      add\n        /* \"#utility.yul\":7823:7835   */\n      dup3\n        /* \"#utility.yul\":7789:7852   */\n      tag_281\n      jump\t// in\n    tag_286:\n        /* \"#utility.yul\":7695:7862   */\n      pop\n        /* \"#utility.yul\":7951:7955   */\n      0xc0\n        /* \"#utility.yul\":7944:7949   */\n      dup4\n        /* \"#utility.yul\":7940:7956   */\n      add\n        /* \"#utility.yul\":7934:7957   */\n      mload\n        /* \"#utility.yul\":7970:8033   */\n      tag_287\n        /* \"#utility.yul\":8027:8031   */\n      0xc0\n        /* \"#utility.yul\":8022:8025   */\n      dup7\n        /* \"#utility.yul\":8018:8032   */\n      add\n        /* \"#utility.yul\":8004:8016   */\n      dup3\n        /* \"#utility.yul\":7970:8033   */\n      tag_281\n      jump\t// in\n    tag_287:\n        /* \"#utility.yul\":7872:8043   */\n      pop\n        /* \"#utility.yul\":8133:8137   */\n      0xe0\n        /* \"#utility.yul\":8126:8131   */\n      dup4\n        /* \"#utility.yul\":8122:8138   */\n      add\n        /* \"#utility.yul\":8116:8139   */\n      mload\n        /* \"#utility.yul\":8152:8215   */\n      tag_288\n        /* \"#utility.yul\":8209:8213   */\n      0xe0\n        /* \"#utility.yul\":8204:8207   */\n      dup7\n        /* \"#utility.yul\":8200:8214   */\n      add\n        /* \"#utility.yul\":8186:8198   */\n      dup3\n        /* \"#utility.yul\":8152:8215   */\n      tag_281\n      jump\t// in\n    tag_288:\n        /* \"#utility.yul\":8053:8225   */\n      pop\n        /* \"#utility.yul\":8242:8246   */\n      dup1\n        /* \"#utility.yul\":8235:8246   */\n      swap2\n      pop\n        /* \"#utility.yul\":6696:8252   */\n      pop\n        /* \"#utility.yul\":6576:8252   */\n      swap3\n      swap2\n      pop\n      pop\n      jump\t// out\n        /* \"#utility.yul\":8258:8366   */\n    tag_281:\n        /* \"#utility.yul\":8335:8359   */\n      tag_290\n        /* \"#utility.yul\":8353:8358   */\n      dup2\n        /* \"#utility.yul\":8335:8359   */\n      tag_291\n      jump\t// in\n    tag_290:\n        /* \"#utility.yul\":8330:8333   */\n      dup3\n        /* \"#utility.yul\":8323:8360   */\n      mstore\n        /* \"#utility.yul\":8258:8366   */\n      pop\n      pop\n      jump\t// out\n        /* \"#utility.yul\":8372:8490   */\n    tag_292:\n        /* \"#utility.yul\":8459:8483   */\n      tag_294\n        /* \"#utility.yul\":8477:8482   */\n      dup2\n        /* \"#utility.yul\":8459:8483   */\n      tag_291\n      jump\t// in\n    tag_294:\n        /* \"#utility.yul\":8454:8457   */\n      dup3\n        /* \"#utility.yul\":8447:8484   */\n      mstore\n        /* \"#utility.yul\":8372:8490   */\n      pop\n      pop\n      jump\t// out\n        /* \"#utility.yul\":8496:8981   */\n    tag_20:\n        /* \"#utility.yul\":8695:8699   */\n      0x00\n        /* \"#utility.yul\":8733:8735   */\n      0x20\n        /* \"#utility.yul\":8722:8731   */\n      dup3\n        /* \"#utility.yul\":8718:8736   */\n      add\n        /* \"#utility.yul\":8710:8736   */\n      swap1\n      pop\n        /* \"#utility.yul\":8782:8791   */\n      dup2\n        /* \"#utility.yul\":8776:8780   */\n      dup2\n        /* \"#utility.yul\":8772:8792   */\n      sub\n        /* \"#utility.yul\":8768:8769   */\n      0x00\n        /* \"#utility.yul\":8757:8766   */\n      dup4\n        /* \"#utility.yul\":8753:8770   */\n      add\n        /* \"#utility.yul\":8746:8793   */\n      mstore\n        /* \"#utility.yul\":8810:8974   */\n      tag_296\n        /* \"#utility.yul\":8969:8973   */\n      dup2\n        /* \"#utility.yul\":8960:8966   */\n      dup5\n        /* \"#utility.yul\":8810:8974   */\n      tag_248\n      jump\t// in\n    tag_296:\n        /* \"#utility.yul\":8802:8974   */\n      swap1\n      pop\n        /* \"#utility.yul\":8496:8981   */\n      swap3\n      swap2\n      pop\n      pop\n      jump\t// out\n        /* \"#utility.yul\":8987:10075   */\n    tag_33:\n        /* \"#utility.yul\":9296:9300   */\n      0x00\n        /* \"#utility.yul\":9334:9337   */\n      0x0100\n        /* \"#utility.yul\":9323:9332   */\n      dup3\n        /* \"#utility.yul\":9319:9338   */\n      add\n        /* \"#utility.yul\":9311:9338   */\n      swap1\n      pop\n        /* \"#utility.yul\":9348:9419   */\n      tag_298\n        /* \"#utility.yul\":9416:9417   */\n      0x00\n        /* \"#utility.yul\":9405:9414   */\n      dup4\n        /* \"#utility.yul\":9401:9418   */\n      add\n        /* \"#utility.yul\":9392:9398   */\n      dup12\n        /* \"#utility.yul\":9348:9419   */\n      tag_292\n      jump\t// in\n    tag_298:\n        /* \"#utility.yul\":9466:9475   */\n      dup2\n        /* \"#utility.yul\":9460:9464   */\n      dup2\n        /* \"#utility.yul\":9456:9476   */\n      sub\n        /* \"#utility.yul\":9451:9453   */\n      0x20\n        /* \"#utility.yul\":9440:9449   */\n      dup4\n        /* \"#utility.yul\":9436:9454   */\n      add\n        /* \"#utility.yul\":9429:9477   */\n      mstore\n        /* \"#utility.yul\":9494:9572   */\n      tag_299\n        /* \"#utility.yul\":9567:9571   */\n      dup2\n        /* \"#utility.yul\":9558:9564   */\n      dup11\n        /* \"#utility.yul\":9494:9572   */\n      tag_272\n      jump\t// in\n    tag_299:\n        /* \"#utility.yul\":9486:9572   */\n      swap1\n      pop\n        /* \"#utility.yul\":9582:9654   */\n      tag_300\n        /* \"#utility.yul\":9650:9652   */\n      0x40\n        /* \"#utility.yul\":9639:9648   */\n      dup4\n        /* \"#utility.yul\":9635:9653   */\n      add\n        /* \"#utility.yul\":9626:9632   */\n      dup10\n        /* \"#utility.yul\":9582:9654   */\n      tag_292\n      jump\t// in\n    tag_300:\n        /* \"#utility.yul\":9664:9736   */\n      tag_301\n        /* \"#utility.yul\":9732:9734   */\n      0x60\n        /* \"#utility.yul\":9721:9730   */\n      dup4\n        /* \"#utility.yul\":9717:9735   */\n      add\n        /* \"#utility.yul\":9708:9714   */\n      dup9\n        /* \"#utility.yul\":9664:9736   */\n      tag_245\n      jump\t// in\n    tag_301:\n        /* \"#utility.yul\":9746:9819   */\n      tag_302\n        /* \"#utility.yul\":9814:9817   */\n      0x80\n        /* \"#utility.yul\":9803:9812   */\n      dup4\n        /* \"#utility.yul\":9799:9818   */\n      add\n        /* \"#utility.yul\":9790:9796   */\n      dup8\n        /* \"#utility.yul\":9746:9819   */\n      tag_245\n      jump\t// in\n    tag_302:\n        /* \"#utility.yul\":9829:9902   */\n      tag_303\n        /* \"#utility.yul\":9897:9900   */\n      0xa0\n        /* \"#utility.yul\":9886:9895   */\n      dup4\n        /* \"#utility.yul\":9882:9901   */\n      add\n        /* \"#utility.yul\":9873:9879   */\n      dup7\n        /* \"#utility.yul\":9829:9902   */\n      tag_292\n      jump\t// in\n    tag_303:\n        /* \"#utility.yul\":9912:9985   */\n      tag_304\n        /* \"#utility.yul\":9980:9983   */\n      0xc0\n        /* \"#utility.yul\":9969:9978   */\n      dup4\n        /* \"#utility.yul\":9965:9984   */\n      add\n        /* \"#utility.yul\":9956:9962   */\n      dup6\n        /* \"#utility.yul\":9912:9985   */\n      tag_292\n      jump\t// in\n    tag_304:\n        /* \"#utility.yul\":9995:10068   */\n      tag_305\n        /* \"#utility.yul\":10063:10066   */\n      0xe0\n        /* \"#utility.yul\":10052:10061   */\n      dup4\n        /* \"#utility.yul\":10048:10067   */\n      add\n        /* \"#utility.yul\":10039:10045   */\n      dup5\n        /* \"#utility.yul\":9995:10068   */\n      tag_292\n      jump\t// in\n    tag_305:\n        /* \"#utility.yul\":8987:10075   */\n      swap10\n      swap9\n      pop\n      pop\n      pop\n      pop\n      pop\n      pop\n      pop\n      pop\n      pop\n      jump\t// out\n        /* \"#utility.yul\":10081:10210   */\n    tag_184:\n        /* \"#utility.yul\":10115:10121   */\n      0x00\n        /* \"#utility.yul\":10142:10162   */\n      tag_307\n      tag_308\n      jump\t// in\n    tag_307:\n        /* \"#utility.yul\":10132:10162   */\n      swap1\n      pop\n        /* \"#utility.yul\":10171:10204   */\n      tag_309\n        /* \"#utility.yul\":10199:10203   */\n      dup3\n        /* \"#utility.yul\":10191:10197   */\n      dup3\n        /* \"#utility.yul\":10171:10204   */\n      tag_310\n      jump\t// in\n    tag_309:\n        /* \"#utility.yul\":10081:10210   */\n      swap2\n      swap1\n      pop\n      jump\t// out\n        /* \"#utility.yul\":10216:10291   */\n    tag_308:\n        /* \"#utility.yul\":10249:10255   */\n      0x00\n        /* \"#utility.yul\":10282:10284   */\n      0x40\n        /* \"#utility.yul\":10276:10285   */\n      mload\n        /* \"#utility.yul\":10266:10285   */\n      swap1\n      pop\n        /* \"#utility.yul\":10216:10291   */\n      swap1\n      jump\t// out\n        /* \"#utility.yul\":10297:10605   */\n    tag_183:\n        /* \"#utility.yul\":10359:10363   */\n      0x00\n        /* \"#utility.yul\":10449:10467   */\n      0xffffffffffffffff\n        /* \"#utility.yul\":10441:10447   */\n      dup3\n        /* \"#utility.yul\":10438:10468   */\n      gt\n        /* \"#utility.yul\":10435:10491   */\n      iszero\n      tag_313\n      jumpi\n        /* \"#utility.yul\":10471:10489   */\n      tag_314\n      tag_315\n      jump\t// in\n    tag_314:\n        /* \"#utility.yul\":10435:10491   */\n    tag_313:\n        /* \"#utility.yul\":10509:10538   */\n      tag_316\n        /* \"#utility.yul\":10531:10537   */\n      dup3\n        /* \"#utility.yul\":10509:10538   */\n      tag_271\n      jump\t// in\n    tag_316:\n        /* \"#utility.yul\":10501:10538   */\n      swap1\n      pop\n        /* \"#utility.yul\":10593:10597   */\n      0x20\n        /* \"#utility.yul\":10587:10591   */\n      dup2\n        /* \"#utility.yul\":10583:10598   */\n      add\n        /* \"#utility.yul\":10575:10598   */\n      swap1\n      pop\n        /* \"#utility.yul\":10297:10605   */\n      swap2\n      swap1\n      pop\n      jump\t// out\n        /* \"#utility.yul\":10611:10771   */\n    tag_255:\n        /* \"#utility.yul\":10706:10710   */\n      0x00\n        /* \"#utility.yul\":10729:10732   */\n      dup2\n        /* \"#utility.yul\":10721:10732   */\n      swap1\n      pop\n        /* \"#utility.yul\":10759:10763   */\n      0x20\n        /* \"#utility.yul\":10754:10757   */\n      dup3\n        /* \"#utility.yul\":10750:10764   */\n      add\n        /* \"#utility.yul\":10742:10764   */\n      swap1\n      pop\n        /* \"#utility.yul\":10611:10771   */\n      swap2\n      swap1\n      pop\n      jump\t// out\n        /* \"#utility.yul\":10777:10919   */\n    tag_251:\n        /* \"#utility.yul\":10872:10878   */\n      0x00\n        /* \"#utility.yul\":10906:10911   */\n      dup2\n        /* \"#utility.yul\":10900:10912   */\n      mload\n        /* \"#utility.yul\":10890:10912   */\n      swap1\n      pop\n        /* \"#utility.yul\":10777:10919   */\n      swap2\n      swap1\n      pop\n      jump\t// out\n        /* \"#utility.yul\":10925:11024   */\n    tag_265:\n        /* \"#utility.yul\":10977:10983   */\n      0x00\n        /* \"#utility.yul\":11011:11016   */\n      dup2\n        /* \"#utility.yul\":11005:11017   */\n      mload\n        /* \"#utility.yul\":10995:11017   */\n      swap1\n      pop\n        /* \"#utility.yul\":10925:11024   */\n      swap2\n      swap1\n      pop\n      jump\t// out\n        /* \"#utility.yul\":11030:11171   */\n    tag_261:\n        /* \"#utility.yul\":11128:11132   */\n      0x00\n        /* \"#utility.yul\":11160:11164   */\n      0x20\n        /* \"#utility.yul\":11155:11158   */\n      dup3\n        /* \"#utility.yul\":11151:11165   */\n      add\n        /* \"#utility.yul\":11143:11165   */\n      swap1\n      pop\n        /* \"#utility.yul\":11030:11171   */\n      swap2\n      swap1\n      pop\n      jump\t// out\n        /* \"#utility.yul\":11177:11389   */\n    tag_253:\n        /* \"#utility.yul\":11304:11315   */\n      0x00\n        /* \"#utility.yul\":11338:11344   */\n      dup3\n        /* \"#utility.yul\":11333:11336   */\n      dup3\n        /* \"#utility.yul\":11326:11345   */\n      mstore\n        /* \"#utility.yul\":11378:11382   */\n      0x20\n        /* \"#utility.yul\":11373:11376   */\n      dup3\n        /* \"#utility.yul\":11369:11383   */\n      add\n        /* \"#utility.yul\":11354:11383   */\n      swap1\n      pop\n        /* \"#utility.yul\":11177:11389   */\n      swap3\n      swap2\n      pop\n      pop\n      jump\t// out\n        /* \"#utility.yul\":11395:11554   */\n    tag_267:\n        /* \"#utility.yul\":11469:11480   */\n      0x00\n        /* \"#utility.yul\":11503:11509   */\n      dup3\n        /* \"#utility.yul\":11498:11501   */\n      dup3\n        /* \"#utility.yul\":11491:11510   */\n      mstore\n        /* \"#utility.yul\":11543:11547   */\n      0x20\n        /* \"#utility.yul\":11538:11541   */\n      dup3\n        /* \"#utility.yul\":11534:11548   */\n      add\n        /* \"#utility.yul\":11519:11548   */\n      swap1\n      pop\n        /* \"#utility.yul\":11395:11554   */\n      swap3\n      swap2\n      pop\n      pop\n      jump\t// out\n        /* \"#utility.yul\":11560:11729   */\n    tag_276:\n        /* \"#utility.yul\":11644:11655   */\n      0x00\n        /* \"#utility.yul\":11678:11684   */\n      dup3\n        /* \"#utility.yul\":11673:11676   */\n      dup3\n        /* \"#utility.yul\":11666:11685   */\n      mstore\n        /* \"#utility.yul\":11718:11722   */\n      0x20\n        /* \"#utility.yul\":11713:11716   */\n      dup3\n        /* \"#utility.yul\":11709:11723   */\n      add\n        /* \"#utility.yul\":11694:11723   */\n      swap1\n      pop\n        /* \"#utility.yul\":11560:11729   */\n      swap3\n      swap2\n      pop\n      pop\n      jump\t// out\n        /* \"#utility.yul\":11735:12040   */\n    tag_59:\n        /* \"#utility.yul\":11775:11778   */\n      0x00\n        /* \"#utility.yul\":11794:11814   */\n      tag_325\n        /* \"#utility.yul\":11812:11813   */\n      dup3\n        /* \"#utility.yul\":11794:11814   */\n      tag_291\n      jump\t// in\n    tag_325:\n        /* \"#utility.yul\":11789:11814   */\n      swap2\n      pop\n        /* \"#utility.yul\":11828:11848   */\n      tag_326\n        /* \"#utility.yul\":11846:11847   */\n      dup4\n        /* \"#utility.yul\":11828:11848   */\n      tag_291\n      jump\t// in\n    tag_326:\n        /* \"#utility.yul\":11823:11848   */\n      swap3\n      pop\n        /* \"#utility.yul\":11982:11983   */\n      dup3\n        /* \"#utility.yul\":11914:11980   */\n      0xffffffffffffffffffffffffffffffffffffffffffffffffffffffffffffffff\n        /* \"#utility.yul\":11910:11984   */\n      sub\n        /* \"#utility.yul\":11907:11908   */\n      dup3\n        /* \"#utility.yul\":11904:11985   */\n      gt\n        /* \"#utility.yul\":11901:12008   */\n      iszero\n      tag_327\n      jumpi\n        /* \"#utility.yul\":11988:12006   */\n      tag_328\n      tag_329\n      jump\t// in\n    tag_328:\n        /* \"#utility.yul\":11901:12008   */\n    tag_327:\n        /* \"#utility.yul\":12032:12033   */\n      dup3\n        /* \"#utility.yul\":12029:12030   */\n      dup3\n        /* \"#utility.yul\":12025:12034   */\n      add\n        /* \"#utility.yul\":12018:12034   */\n      swap1\n      pop\n        /* \"#utility.yul\":11735:12040   */\n      swap3\n      swap2\n      pop\n      pop\n      jump\t// out\n        /* \"#utility.yul\":12046:12237   */\n    tag_47:\n        /* \"#utility.yul\":12086:12090   */\n      0x00\n        /* \"#utility.yul\":12106:12126   */\n      tag_331\n        /* \"#utility.yul\":12124:12125   */\n      dup3\n        /* \"#utility.yul\":12106:12126   */\n      tag_291\n      jump\t// in\n    tag_331:\n        /* \"#utility.yul\":12101:12126   */\n      swap2\n      pop\n        /* \"#utility.yul\":12140:12160   */\n      tag_332\n        /* \"#utility.yul\":12158:12159   */\n      dup4\n        /* \"#utility.yul\":12140:12160   */\n      tag_291\n      jump\t// in\n    tag_332:\n        /* \"#utility.yul\":12135:12160   */\n      swap3\n      pop\n        /* \"#utility.yul\":12179:12180   */\n      dup3\n        /* \"#utility.yul\":12176:12177   */\n      dup3\n        /* \"#utility.yul\":12173:12181   */\n      lt\n        /* \"#utility.yul\":12170:12204   */\n      iszero\n      tag_333\n      jumpi\n        /* \"#utility.yul\":12184:12202   */\n      tag_334\n      tag_329\n      jump\t// in\n    tag_334:\n        /* \"#utility.yul\":12170:12204   */\n    tag_333:\n        /* \"#utility.yul\":12229:12230   */\n      dup3\n        /* \"#utility.yul\":12226:12227   */\n      dup3\n        /* \"#utility.yul\":12222:12231   */\n      sub\n        /* \"#utility.yul\":12214:12231   */\n      swap1\n      pop\n        /* \"#utility.yul\":12046:12237   */\n      swap3\n      swap2\n      pop\n      pop\n      jump\t// out\n        /* \"#utility.yul\":12243:12339   */\n    tag_244:\n        /* \"#utility.yul\":12280:12287   */\n      0x00\n        /* \"#utility.yul\":12309:12333   */\n      tag_336\n        /* \"#utility.yul\":12327:12332   */\n      dup3\n        /* \"#utility.yul\":12309:12333   */\n      tag_337\n      jump\t// in\n    tag_336:\n        /* \"#utility.yul\":12298:12333   */\n      swap1\n      pop\n        /* \"#utility.yul\":12243:12339   */\n      swap2\n      swap1\n      pop\n      jump\t// out\n        /* \"#utility.yul\":12345:12471   */\n    tag_337:\n        /* \"#utility.yul\":12382:12389   */\n      0x00\n        /* \"#utility.yul\":12422:12464   */\n      0xffffffffffffffffffffffffffffffffffffffff\n        /* \"#utility.yul\":12415:12420   */\n      dup3\n        /* \"#utility.yul\":12411:12465   */\n      and\n        /* \"#utility.yul\":12400:12465   */\n      swap1\n      pop\n        /* \"#utility.yul\":12345:12471   */\n      swap2\n      swap1\n      pop\n      jump\t// out\n        /* \"#utility.yul\":12477:12554   */\n    tag_291:\n        /* \"#utility.yul\":12514:12521   */\n      0x00\n        /* \"#utility.yul\":12543:12548   */\n      dup2\n        /* \"#utility.yul\":12532:12548   */\n      swap1\n      pop\n        /* \"#utility.yul\":12477:12554   */\n      swap2\n      swap1\n      pop\n      jump\t// out\n        /* \"#utility.yul\":12560:12714   */\n    tag_189:\n        /* \"#utility.yul\":12644:12650   */\n      dup3\n        /* \"#utility.yul\":12639:12642   */\n      dup2\n        /* \"#utility.yul\":12634:12637   */\n      dup4\n        /* \"#utility.yul\":12621:12651   */\n      calldatacopy\n        /* \"#utility.yul\":12706:12707   */\n      0x00\n        /* \"#utility.yul\":12697:12703   */\n      dup4\n        /* \"#utility.yul\":12692:12695   */\n      dup4\n        /* \"#utility.yul\":12688:12704   */\n      add\n        /* \"#utility.yul\":12681:12708   */\n      mstore\n        /* \"#utility.yul\":12560:12714   */\n      pop\n      pop\n      pop\n      jump\t// out\n        /* \"#utility.yul\":12720:13027   */\n    tag_269:\n        /* \"#utility.yul\":12788:12789   */\n      0x00\n        /* \"#utility.yul\":12798:12911   */\n    tag_342:\n        /* \"#utility.yul\":12812:12818   */\n      dup4\n        /* \"#utility.yul\":12809:12810   */\n      dup2\n        /* \"#utility.yul\":12806:12819   */\n      lt\n        /* \"#utility.yul\":12798:12911   */\n      iszero\n      tag_344\n      jumpi\n        /* \"#utility.yul\":12897:12898   */\n      dup1\n        /* \"#utility.yul\":12892:12895   */\n      dup3\n        /* \"#utility.yul\":12888:12899   */\n      add\n        /* \"#utility.yul\":12882:12900   */\n      mload\n        /* \"#utility.yul\":12878:12879   */\n      dup2\n        /* \"#utility.yul\":12873:12876   */\n      dup5\n        /* \"#utility.yul\":12869:12880   */\n      add\n        /* \"#utility.yul\":12862:12901   */\n      mstore\n        /* \"#utility.yul\":12834:12836   */\n      0x20\n        /* \"#utility.yul\":12831:12832   */\n      dup2\n        /* \"#utility.yul\":12827:12837   */\n      add\n        /* \"#utility.yul\":12822:12837   */\n      swap1\n      pop\n        /* \"#utility.yul\":12798:12911   */\n      jump(tag_342)\n    tag_344:\n        /* \"#utility.yul\":12929:12935   */\n      dup4\n        /* \"#utility.yul\":12926:12927   */\n      dup2\n        /* \"#utility.yul\":12923:12936   */\n      gt\n        /* \"#utility.yul\":12920:13021   */\n      iszero\n      tag_345\n      jumpi\n        /* \"#utility.yul\":13009:13010   */\n      0x00\n        /* \"#utility.yul\":13000:13006   */\n      dup5\n        /* \"#utility.yul\":12995:12998   */\n      dup5\n        /* \"#utility.yul\":12991:13007   */\n      add\n        /* \"#utility.yul\":12984:13011   */\n      mstore\n        /* \"#utility.yul\":12920:13021   */\n    tag_345:\n        /* \"#utility.yul\":12769:13027   */\n      pop\n        /* \"#utility.yul\":12720:13027   */\n      pop\n      pop\n      pop\n      jump\t// out\n        /* \"#utility.yul\":13033:13353   */\n    tag_69:\n        /* \"#utility.yul\":13077:13083   */\n      0x00\n        /* \"#utility.yul\":13114:13115   */\n      0x02\n        /* \"#utility.yul\":13108:13112   */\n      dup3\n        /* \"#utility.yul\":13104:13116   */\n      div\n        /* \"#utility.yul\":13094:13116   */\n      swap1\n      pop\n        /* \"#utility.yul\":13161:13162   */\n      0x01\n        /* \"#utility.yul\":13155:13159   */\n      dup3\n        /* \"#utility.yul\":13151:13163   */\n      and\n        /* \"#utility.yul\":13182:13200   */\n      dup1\n        /* \"#utility.yul\":13172:13253   */\n      tag_347\n      jumpi\n        /* \"#utility.yul\":13238:13242   */\n      0x7f\n        /* \"#utility.yul\":13230:13236   */\n      dup3\n        /* \"#utility.yul\":13226:13243   */\n      and\n        /* \"#utility.yul\":13216:13243   */\n      swap2\n      pop\n        /* \"#utility.yul\":13172:13253   */\n    tag_347:\n        /* \"#utility.yul\":13300:13302   */\n      0x20\n        /* \"#utility.yul\":13292:13298   */\n      dup3\n        /* \"#utility.yul\":13289:13303   */\n      lt\n        /* \"#utility.yul\":13269:13287   */\n      dup2\n        /* \"#utility.yul\":13266:13304   */\n      eq\n        /* \"#utility.yul\":13263:13347   */\n      iszero\n      tag_348\n      jumpi\n        /* \"#utility.yul\":13319:13337   */\n      tag_349\n      tag_350\n      jump\t// in\n    tag_349:\n        /* \"#utility.yul\":13263:13347   */\n    tag_348:\n        /* \"#utility.yul\":13084:13353   */\n      pop\n        /* \"#utility.yul\":13033:13353   */\n      swap2\n      swap1\n      pop\n      jump\t// out\n        /* \"#utility.yul\":13359:13640   */\n    tag_310:\n        /* \"#utility.yul\":13442:13469   */\n      tag_352\n        /* \"#utility.yul\":13464:13468   */\n      dup3\n        /* \"#utility.yul\":13442:13469   */\n      tag_271\n      jump\t// in\n    tag_352:\n        /* \"#utility.yul\":13434:13440   */\n      dup2\n        /* \"#utility.yul\":13430:13470   */\n      add\n        /* \"#utility.yul\":13572:13578   */\n      dup2\n        /* \"#utility.yul\":13560:13570   */\n      dup2\n        /* \"#utility.yul\":13557:13579   */\n      lt\n        /* \"#utility.yul\":13536:13554   */\n      0xffffffffffffffff\n        /* \"#utility.yul\":13524:13534   */\n      dup3\n        /* \"#utility.yul\":13521:13555   */\n      gt\n        /* \"#utility.yul\":13518:13580   */\n      or\n        /* \"#utility.yul\":13515:13603   */\n      iszero\n      tag_353\n      jumpi\n        /* \"#utility.yul\":13583:13601   */\n      tag_354\n      tag_315\n      jump\t// in\n    tag_354:\n        /* \"#utility.yul\":13515:13603   */\n    tag_353:\n        /* \"#utility.yul\":13623:13633   */\n      dup1\n        /* \"#utility.yul\":13619:13621   */\n      0x40\n        /* \"#utility.yul\":13612:13634   */\n      mstore\n        /* \"#utility.yul\":13402:13640   */\n      pop\n        /* \"#utility.yul\":13359:13640   */\n      pop\n      pop\n      jump\t// out\n        /* \"#utility.yul\":13646:13879   */\n    tag_63:\n        /* \"#utility.yul\":13685:13688   */\n      0x00\n        /* \"#utility.yul\":13708:13732   */\n      tag_356\n        /* \"#utility.yul\":13726:13731   */\n      dup3\n        /* \"#utility.yul\":13708:13732   */\n      tag_291\n      jump\t// in\n    tag_356:\n        /* \"#utility.yul\":13699:13732   */\n      swap2\n      pop\n        /* \"#utility.yul\":13754:13820   */\n      0xffffffffffffffffffffffffffffffffffffffffffffffffffffffffffffffff\n        /* \"#utility.yul\":13747:13752   */\n      dup3\n        /* \"#utility.yul\":13744:13821   */\n      eq\n        /* \"#utility.yul\":13741:13844   */\n      iszero\n      tag_357\n      jumpi\n        /* \"#utility.yul\":13824:13842   */\n      tag_358\n      tag_329\n      jump\t// in\n    tag_358:\n        /* \"#utility.yul\":13741:13844   */\n    tag_357:\n        /* \"#utility.yul\":13871:13872   */\n      0x01\n        /* \"#utility.yul\":13864:13869   */\n      dup3\n        /* \"#utility.yul\":13860:13873   */\n      add\n        /* \"#utility.yul\":13853:13873   */\n      swap1\n      pop\n        /* \"#utility.yul\":13646:13879   */\n      swap2\n      swap1\n      pop\n      jump\t// out\n        /* \"#utility.yul\":13885:14065   */\n    tag_329:\n        /* \"#utility.yul\":13933:14010   */\n      0x4e487b7100000000000000000000000000000000000000000000000000000000\n        /* \"#utility.yul\":13930:13931   */\n      0x00\n        /* \"#utility.yul\":13923:14011   */\n      mstore\n        /* \"#utility.yul\":14030:14034   */\n      0x11\n        /* \"#utility.yul\":14027:14028   */\n      0x04\n        /* \"#utility.yul\":14020:14035   */\n      mstore\n        /* \"#utility.yul\":14054:14058   */\n      0x24\n        /* \"#utility.yul\":14051:14052   */\n      0x00\n        /* \"#utility.yul\":14044:14059   */\n      revert\n        /* \"#utility.yul\":14071:14251   */\n    tag_350:\n        /* \"#utility.yul\":14119:14196   */\n      0x4e487b7100000000000000000000000000000000000000000000000000000000\n        /* \"#utility.yul\":14116:14117   */\n      0x00\n        /* \"#utility.yul\":14109:14197   */\n      mstore\n        /* \"#utility.yul\":14216:14220   */\n      0x22\n        /* \"#utility.yul\":14213:14214   */\n      0x04\n        /* \"#utility.yul\":14206:14221   */\n      mstore\n        /* \"#utility.yul\":14240:14244   */\n      0x24\n        /* \"#utility.yul\":14237:14238   */\n      0x00\n        /* \"#utility.yul\":14230:14245   */\n      revert\n        /* \"#utility.yul\":14257:14437   */\n    tag_89:\n        /* \"#utility.yul\":14305:14382   */\n      0x4e487b7100000000000000000000000000000000000000000000000000000000\n        /* \"#utility.yul\":14302:14303   */\n      0x00\n        /* \"#utility.yul\":14295:14383   */\n      mstore\n        /* \"#utility.yul\":14402:14406   */\n      0x31\n        /* \"#utility.yul\":14399:14400   */\n      0x04\n        /* \"#utility.yul\":14392:14407   */\n      mstore\n        /* \"#utility.yul\":14426:14430   */\n      0x24\n        /* \"#utility.yul\":14423:14424   */\n      0x00\n        /* \"#utility.yul\":14416:14431   */\n      revert\n        /* \"#utility.yul\":14443:14623   */\n    tag_50:\n        /* \"#utility.yul\":14491:14568   */\n      0x4e487b7100000000000000000000000000000000000000000000000000000000\n        /* \"#utility.yul\":14488:14489   */\n      0x00\n        /* \"#utility.yul\":14481:14569   */\n      mstore\n        /* \"#utility.yul\":14588:14592   */\n      0x32\n        /* \"#utility.yul\":14585:14586   */\n      0x04\n        /* \"#utility.yul\":14578:14593   */\n      mstore\n        /* \"#utility.yul\":14612:14616   */\n      0x24\n        /* \"#utility.yul\":14609:14610   */\n      0x00\n        /* \"#utility.yul\":14602:14617   */\n      revert\n        /* \"#utility.yul\":14629:14809   */\n    tag_315:\n        /* \"#utility.yul\":14677:14754   */\n      0x4e487b7100000000000000000000000000000000000000000000000000000000\n        /* \"#utility.yul\":14674:14675   */\n      0x00\n        /* \"#utility.yul\":14667:14755   */\n      mstore\n        /* \"#utility.yul\":14774:14778   */\n      0x41\n        /* \"#utility.yul\":14771:14772   */\n      0x04\n        /* \"#utility.yul\":14764:14779   */\n      mstore\n        /* \"#utility.yul\":14798:14802   */\n      0x24\n        /* \"#utility.yul\":14795:14796   */\n      0x00\n        /* \"#utility.yul\":14788:14803   */\n      revert\n        /* \"#utility.yul\":14815:14932   */\n    tag_198:\n        /* \"#utility.yul\":14924:14925   */\n      0x00\n        /* \"#utility.yul\":14921:14922   */\n      dup1\n        /* \"#utility.yul\":14914:14926   */\n      revert\n        /* \"#utility.yul\":14938:15055   */\n    tag_187:\n        /* \"#utility.yul\":15047:15048   */\n      0x00\n        /* \"#utility.yul\":15044:15045   */\n      dup1\n        /* \"#utility.yul\":15037:15049   */\n      revert\n        /* \"#utility.yul\":15061:15178   */\n    tag_214:\n        /* \"#utility.yul\":15170:15171   */\n      0x00\n        /* \"#utility.yul\":15167:15168   */\n      dup1\n        /* \"#utility.yul\":15160:15172   */\n      revert\n        /* \"#utility.yul\":15184:15301   */\n    tag_207:\n        /* \"#utility.yul\":15293:15294   */\n      0x00\n        /* \"#utility.yul\":15290:15291   */\n      dup1\n        /* \"#utility.yul\":15283:15295   */\n      revert\n        /* \"#utility.yul\":15307:15409   */\n    tag_271:\n        /* \"#utility.yul\":15348:15354   */\n      0x00\n        /* \"#utility.yul\":15399:15401   */\n      0x1f\n        /* \"#utility.yul\":15395:15402   */\n      not\n        /* \"#utility.yul\":15390:15392   */\n      0x1f\n        /* \"#utility.yul\":15383:15388   */\n      dup4\n        /* \"#utility.yul\":15379:15393   */\n      add\n        /* \"#utility.yul\":15375:15403   */\n      and\n        /* \"#utility.yul\":15365:15403   */\n      swap1\n      pop\n        /* \"#utility.yul\":15307:15409   */\n      swap2\n      swap1\n      pop\n      jump\t// out\n        /* \"#utility.yul\":15415:15537   */\n    tag_193:\n        /* \"#utility.yul\":15488:15512   */\n      tag_370\n        /* \"#utility.yul\":15506:15511   */\n      dup2\n        /* \"#utility.yul\":15488:15512   */\n      tag_244\n      jump\t// in\n    tag_370:\n        /* \"#utility.yul\":15481:15486   */\n      dup2\n        /* \"#utility.yul\":15478:15513   */\n      eq\n        /* \"#utility.yul\":15468:15531   */\n      tag_371\n      jumpi\n        /* \"#utility.yul\":15527:15528   */\n      0x00\n        /* \"#utility.yul\":15524:15525   */\n      dup1\n        /* \"#utility.yul\":15517:15529   */\n      revert\n        /* \"#utility.yul\":15468:15531   */\n    tag_371:\n        /* \"#utility.yul\":15415:15537   */\n      pop\n      jump\t// out\n        /* \"#utility.yul\":15543:15665   */\n    tag_203:\n        /* \"#utility.yul\":15616:15640   */\n      tag_373\n        /* \"#utility.yul\":15634:15639   */\n      dup2\n        /* \"#utility.yul\":15616:15640   */\n      tag_291\n      jump\t// in\n    tag_373:\n        /* \"#utility.yul\":15609:15614   */\n      dup2\n        /* \"#utility.yul\":15606:15641   */\n      eq\n        /* \"#utility.yul\":15596:15659   */\n      tag_374\n      jumpi\n        /* \"#utility.yul\":15655:15656   */\n      0x00\n        /* \"#utility.yul\":15652:15653   */\n      dup1\n        /* \"#utility.yul\":15645:15657   */\n      revert\n        /* \"#utility.yul\":15596:15659   */\n    tag_374:\n        /* \"#utility.yul\":15543:15665   */\n      pop\n      jump\t// out\n\n    auxdata: 0xa2646970667358221220d8e60ad06f7b73c30f2581298149d6db6cd1387471493dea36e41b4f15eada9764736f6c63430008070033\n}\n",
				"bytecode": {
					"linkReferences": {},
					"object": "608060405234801561001057600080fd5b50611deb806100206000396000f3fe608060405234801561001057600080fd5b506004361061007d5760003560e01c806369ba1a751161005b57806369ba1a75146100ea57806380c9419e14610106578063904cc1751461013d578063ac8b13001461016d5761007d565b80632d01cf0314610082578063377e6ff71461009e5780635102bc9d146100ce575b600080fd5b61009c6004803603810190610097919061170a565b610189565b005b6100b860048036038101906100b391906115e5565b610320565b6040516100c59190611960565b60405180910390f35b6100e860048036038101906100e391906116ae565b61052f565b005b61010460048036038101906100ff9190611681565b610578565b005b610120600480360381019061011b9190611681565b610b02565b604051610134989796959493929190611982565b60405180910390f35b61015760048036038101906101529190611681565b610c22565b6040516101649190611960565b60405180910390f35b61018760048036038101906101829190611612565b610fdf565b005b60005b600460008581526020019081526020016000208054905081101561031a578173ffffffffffffffffffffffffffffffffffffffff16600460006001876101d29190611b19565b815260200190815260200160002082815481106101f2576101f1611d04565b5b9060005260206000200160009054906101000a900473ffffffffffffffffffffffffffffffffffffffff1673ffffffffffffffffffffffffffffffffffffffff16141561023e57610307565b60018060018661024e9190611b19565b8154811061025f5761025e611d04565b5b9060005260206000209060080201600501600082825461027f9190611ac3565b92505081905550600460006001866102979190611b19565b8152602001908152602001600020829080600181540180825580915050600190039060005260206000200160009091909190916101000a81548173ffffffffffffffffffffffffffffffffffffffff021916908373ffffffffffffffffffffffffffffffffffffffff1602179055505b808061031290611c2e565b91505061018c565b50505050565b6060600360008373ffffffffffffffffffffffffffffffffffffffff1673ffffffffffffffffffffffffffffffffffffffff168152602001908152602001600020805480602002602001604051908101604052809291908181526020016000905b82821015610524578382906000526020600020906008020160405180610100016040529081600082015481526020016001820180546103bf90611bcb565b80601f01602080910402602001604051908101604052809291908181526020018280546103eb90611bcb565b80156104385780601f1061040d57610100808354040283529160200191610438565b820191906000526020600020905b81548152906001019060200180831161041b57829003601f168201915b50505050508152602001600282015481526020016003820160009054906101000a900473ffffffffffffffffffffffffffffffffffffffff1673ffffffffffffffffffffffffffffffffffffffff1673ffffffffffffffffffffffffffffffffffffffff1681526020016004820160009054906101000a900473ffffffffffffffffffffffffffffffffffffffff1673ffffffffffffffffffffffffffffffffffffffff1673ffffffffffffffffffffffffffffffffffffffff168152602001600582015481526020016006820154815260200160078201548152505081526020019060010190610381565b505050509050919050565b806001808461053e9190611b19565b8154811061054f5761054e611d04565b5b906000526020600020906008020160010190805190602001906105739291906113db565b505050565b6003600180836105889190611b19565b8154811061059957610598611d04565b5b906000526020600020906008020160020181905550600160026000600181526020019081526020016000208054905014156106965760026000600181526020019081526020016000208054806105f2576105f1611cd5565b5b600190038181906000526020600020906008020160008082016000905560018201600061061f9190611461565b60028201600090556003820160006101000a81549073ffffffffffffffffffffffffffffffffffffffff02191690556004820160006101000a81549073ffffffffffffffffffffffffffffffffffffffff021916905560058201600090556006820160009055600782016000905550509055610973565b60005b60016002600060018152602001908152602001600020805490506106bd9190611b19565b8110156108ae5781600260006001815260200190815260200160002082815481106106eb576106ea611d04565b5b906000526020600020906008020160000154141561089b5760026000600181526020019081526020016000206001826107249190611ac3565b8154811061073557610734611d04565b5b90600052602060002090600802016002600060018152602001908152602001600020828154811061076957610768611d04565b5b906000526020600020906008020160008201548160000155600182018160010190805461079590611bcb565b6107a09291906114a1565b50600282015481600201556003820160009054906101000a900473ffffffffffffffffffffffffffffffffffffffff168160030160006101000a81548173ffffffffffffffffffffffffffffffffffffffff021916908373ffffffffffffffffffffffffffffffffffffffff1602179055506004820160009054906101000a900473ffffffffffffffffffffffffffffffffffffffff168160040160006101000a81548173ffffffffffffffffffffffffffffffffffffffff021916908373ffffffffffffffffffffffffffffffffffffffff1602179055506005820154816005015560068201548160060155600782015481600701559050505b80806108a690611c2e565b915050610699565b5060026000600181526020019081526020016000208054806108d3576108d2611cd5565b5b60019003818190600052602060002090600802016000808201600090556001820160006109009190611461565b60028201600090556003820160006101000a81549073ffffffffffffffffffffffffffffffffffffffff02191690556004820160006101000a81549073ffffffffffffffffffffffffffffffffffffffff0219169055600582016000905560068201600090556007820160009055505090555b6002600060038152602001908152602001600020600180836109959190611b19565b815481106109a6576109a5611d04565b5b906000526020600020906008020190806001815401808255809150506001900390600052602060002090600802016000909190919091506000820154816000015560018201816001019080546109fb90611bcb565b610a069291906114a1565b50600282015481600201556003820160009054906101000a900473ffffffffffffffffffffffffffffffffffffffff168160030160006101000a81548173ffffffffffffffffffffffffffffffffffffffff021916908373ffffffffffffffffffffffffffffffffffffffff1602179055506004820160009054906101000a900473ffffffffffffffffffffffffffffffffffffffff168160040160006101000a81548173ffffffffffffffffffffffffffffffffffffffff021916908373ffffffffffffffffffffffffffffffffffffffff160217905550600582015481600501556006820154816006015560078201548160070155505050565b60018181548110610b1257600080fd5b9060005260206000209060080201600091509050806000015490806001018054610b3b90611bcb565b80601f0160208091040260200160405190810160405280929190818152602001828054610b6790611bcb565b8015610bb45780601f10610b8957610100808354040283529160200191610bb4565b820191906000526020600020905b815481529060010190602001808311610b9757829003601f168201915b5050505050908060020154908060030160009054906101000a900473ffffffffffffffffffffffffffffffffffffffff16908060040160009054906101000a900473ffffffffffffffffffffffffffffffffffffffff16908060050154908060060154908060070154905088565b60606000821415610dfd576001805480602002602001604051908101604052809291908181526020016000905b82821015610df257838290600052602060002090600802016040518061010001604052908160008201548152602001600182018054610c8d90611bcb565b80601f0160208091040260200160405190810160405280929190818152602001828054610cb990611bcb565b8015610d065780601f10610cdb57610100808354040283529160200191610d06565b820191906000526020600020905b815481529060010190602001808311610ce957829003601f168201915b50505050508152602001600282015481526020016003820160009054906101000a900473ffffffffffffffffffffffffffffffffffffffff1673ffffffffffffffffffffffffffffffffffffffff1673ffffffffffffffffffffffffffffffffffffffff1681526020016004820160009054906101000a900473ffffffffffffffffffffffffffffffffffffffff1673ffffffffffffffffffffffffffffffffffffffff1673ffffffffffffffffffffffffffffffffffffffff168152602001600582015481526020016006820154815260200160078201548152505081526020019060010190610c4f565b505050509050610fda565b60026000838152602001908152602001600020805480602002602001604051908101604052809291908181526020016000905b82821015610fd357838290600052602060002090600802016040518061010001604052908160008201548152602001600182018054610e6e90611bcb565b80601f0160208091040260200160405190810160405280929190818152602001828054610e9a90611bcb565b8015610ee75780601f10610ebc57610100808354040283529160200191610ee7565b820191906000526020600020905b815481529060010190602001808311610eca57829003601f168201915b50505050508152602001600282015481526020016003820160009054906101000a900473ffffffffffffffffffffffffffffffffffffffff1673ffffffffffffffffffffffffffffffffffffffff1673ffffffffffffffffffffffffffffffffffffffff1681526020016004820160009054906101000a900473ffffffffffffffffffffffffffffffffffffffff1673ffffffffffffffffffffffffffffffffffffffff1673ffffffffffffffffffffffffffffffffffffffff168152602001600582015481526020016006820154815260200160078201548152505081526020019060010190610e30565b5050505090505b919050565b600080815480929190610ff190611c2e565b919050555060006040518061010001604052806000548152602001858152602001600181526020013373ffffffffffffffffffffffffffffffffffffffff1681526020018473ffffffffffffffffffffffffffffffffffffffff168152602001600081526020018381526020016000815250905060018190806001815401808255809150506001900390600052602060002090600802016000909190919091506000820151816000015560208201518160010190805190602001906110b79291906113db565b506040820151816002015560608201518160030160006101000a81548173ffffffffffffffffffffffffffffffffffffffff021916908373ffffffffffffffffffffffffffffffffffffffff16021790555060808201518160040160006101000a81548173ffffffffffffffffffffffffffffffffffffffff021916908373ffffffffffffffffffffffffffffffffffffffff16021790555060a0820151816005015560c0820151816006015560e08201518160070155505060026000600181526020019081526020016000208190806001815401808255809150506001900390600052602060002090600802016000909190919091506000820151816000015560208201518160010190805190602001906111d49291906113db565b506040820151816002015560608201518160030160006101000a81548173ffffffffffffffffffffffffffffffffffffffff021916908373ffffffffffffffffffffffffffffffffffffffff16021790555060808201518160040160006101000a81548173ffffffffffffffffffffffffffffffffffffffff021916908373ffffffffffffffffffffffffffffffffffffffff16021790555060a0820151816005015560c0820151816006015560e082015181600701555050600360003373ffffffffffffffffffffffffffffffffffffffff1673ffffffffffffffffffffffffffffffffffffffff16815260200190815260200160002081908060018154018082558091505060019003906000526020600020906008020160009091909190915060008201518160000155602082015181600101908051906020019061131c9291906113db565b506040820151816002015560608201518160030160006101000a81548173ffffffffffffffffffffffffffffffffffffffff021916908373ffffffffffffffffffffffffffffffffffffffff16021790555060808201518160040160006101000a81548173ffffffffffffffffffffffffffffffffffffffff021916908373ffffffffffffffffffffffffffffffffffffffff16021790555060a0820151816005015560c0820151816006015560e08201518160070155505050505050565b8280546113e790611bcb565b90600052602060002090601f0160209004810192826114095760008555611450565b82601f1061142257805160ff1916838001178555611450565b82800160010185558215611450579182015b8281111561144f578251825591602001919060010190611434565b5b50905061145d919061152e565b5090565b50805461146d90611bcb565b6000825580601f1061147f575061149e565b601f01602090049060005260206000209081019061149d919061152e565b5b50565b8280546114ad90611bcb565b90600052602060002090601f0160209004810192826114cf576000855561151d565b82601f106114e0578054855561151d565b8280016001018555821561151d57600052602060002091601f016020900482015b8281111561151c578254825591600101919060010190611501565b5b50905061152a919061152e565b5090565b5b8082111561154757600081600090555060010161152f565b5090565b600061155e61155984611a2c565b611a07565b90508281526020810184848401111561157a57611579611d67565b5b611585848285611b89565b509392505050565b60008135905061159c81611d87565b92915050565b600082601f8301126115b7576115b6611d62565b5b81356115c784826020860161154b565b91505092915050565b6000813590506115df81611d9e565b92915050565b6000602082840312156115fb576115fa611d71565b5b60006116098482850161158d565b91505092915050565b60008060006060848603121561162b5761162a611d71565b5b600084013567ffffffffffffffff81111561164957611648611d6c565b5b611655868287016115a2565b93505060206116668682870161158d565b9250506040611677868287016115d0565b9150509250925092565b60006020828403121561169757611696611d71565b5b60006116a5848285016115d0565b91505092915050565b600080604083850312156116c5576116c4611d71565b5b60006116d3858286016115d0565b925050602083013567ffffffffffffffff8111156116f4576116f3611d6c565b5b611700858286016115a2565b9150509250929050565b60008060006060848603121561172357611722611d71565b5b6000611731868287016115d0565b935050602084013567ffffffffffffffff81111561175257611751611d6c565b5b61175e868287016115a2565b925050604061176f8682870161158d565b9150509250925092565b60006117858383611892565b905092915050565b61179681611b4d565b82525050565b6117a581611b4d565b82525050565b60006117b682611a6d565b6117c08185611a90565b9350836020820285016117d285611a5d565b8060005b8581101561180e57848403895281516117ef8582611779565b94506117fa83611a83565b925060208a019950506001810190506117d6565b50829750879550505050505092915050565b600061182b82611a78565b6118358185611aa1565b9350611845818560208601611b98565b61184e81611d76565b840191505092915050565b600061186482611a78565b61186e8185611ab2565b935061187e818560208601611b98565b61188781611d76565b840191505092915050565b6000610100830160008301516118ab6000860182611942565b50602083015184820360208601526118c38282611820565b91505060408301516118d86040860182611942565b5060608301516118eb606086018261178d565b5060808301516118fe608086018261178d565b5060a083015161191160a0860182611942565b5060c083015161192460c0860182611942565b5060e083015161193760e0860182611942565b508091505092915050565b61194b81611b7f565b82525050565b61195a81611b7f565b82525050565b6000602082019050818103600083015261197a81846117ab565b905092915050565b600061010082019050611998600083018b611951565b81810360208301526119aa818a611859565b90506119b96040830189611951565b6119c6606083018861179c565b6119d3608083018761179c565b6119e060a0830186611951565b6119ed60c0830185611951565b6119fa60e0830184611951565b9998505050505050505050565b6000611a11611a22565b9050611a1d8282611bfd565b919050565b6000604051905090565b600067ffffffffffffffff821115611a4757611a46611d33565b5b611a5082611d76565b9050602081019050919050565b6000819050602082019050919050565b600081519050919050565b600081519050919050565b6000602082019050919050565b600082825260208201905092915050565b600082825260208201905092915050565b600082825260208201905092915050565b6000611ace82611b7f565b9150611ad983611b7f565b9250827fffffffffffffffffffffffffffffffffffffffffffffffffffffffffffffffff03821115611b0e57611b0d611c77565b5b828201905092915050565b6000611b2482611b7f565b9150611b2f83611b7f565b925082821015611b4257611b41611c77565b5b828203905092915050565b6000611b5882611b5f565b9050919050565b600073ffffffffffffffffffffffffffffffffffffffff82169050919050565b6000819050919050565b82818337600083830152505050565b60005b83811015611bb6578082015181840152602081019050611b9b565b83811115611bc5576000848401525b50505050565b60006002820490506001821680611be357607f821691505b60208210811415611bf757611bf6611ca6565b5b50919050565b611c0682611d76565b810181811067ffffffffffffffff82111715611c2557611c24611d33565b5b80604052505050565b6000611c3982611b7f565b91507fffffffffffffffffffffffffffffffffffffffffffffffffffffffffffffffff821415611c6c57611c6b611c77565b5b600182019050919050565b7f4e487b7100000000000000000000000000000000000000000000000000000000600052601160045260246000fd5b7f4e487b7100000000000000000000000000000000000000000000000000000000600052602260045260246000fd5b7f4e487b7100000000000000000000000000000000000000000000000000000000600052603160045260246000fd5b7f4e487b7100000000000000000000000000000000000000000000000000000000600052603260045260246000fd5b7f4e487b7100000000000000000000000000000000000000000000000000000000600052604160045260246000fd5b600080fd5b600080fd5b600080fd5b600080fd5b6000601f19601f8301169050919050565b611d9081611b4d565b8114611d9b57600080fd5b50565b611da781611b7f565b8114611db257600080fd5b5056fea2646970667358221220d8e60ad06f7b73c30f2581298149d6db6cd1387471493dea36e41b4f15eada9764736f6c63430008070033",
					"opcodes": "PUSH1 0x80 PUSH1 0x40 MSTORE CALLVALUE DUP1 ISZERO PUSH2 0x10 JUMPI PUSH1 0x0 DUP1 REVERT JUMPDEST POP PUSH2 0x1DEB DUP1 PUSH2 0x20 PUSH1 0x0 CODECOPY PUSH1 0x0 RETURN INVALID PUSH1 0x80 PUSH1 0x40 MSTORE CALLVALUE DUP1 ISZERO PUSH2 0x10 JUMPI PUSH1 0x0 DUP1 REVERT JUMPDEST POP PUSH1 0x4 CALLDATASIZE LT PUSH2 0x7D JUMPI PUSH1 0x0 CALLDATALOAD PUSH1 0xE0 SHR DUP1 PUSH4 0x69BA1A75 GT PUSH2 0x5B JUMPI DUP1 PUSH4 0x69BA1A75 EQ PUSH2 0xEA JUMPI DUP1 PUSH4 0x80C9419E EQ PUSH2 0x106 JUMPI DUP1 PUSH4 0x904CC175 EQ PUSH2 0x13D JUMPI DUP1 PUSH4 0xAC8B1300 EQ PUSH2 0x16D JUMPI PUSH2 0x7D JUMP JUMPDEST DUP1 PUSH4 0x2D01CF03 EQ PUSH2 0x82 JUMPI DUP1 PUSH4 0x377E6FF7 EQ PUSH2 0x9E JUMPI DUP1 PUSH4 0x5102BC9D EQ PUSH2 0xCE JUMPI JUMPDEST PUSH1 0x0 DUP1 REVERT JUMPDEST PUSH2 0x9C PUSH1 0x4 DUP1 CALLDATASIZE SUB DUP2 ADD SWAP1 PUSH2 0x97 SWAP2 SWAP1 PUSH2 0x170A JUMP JUMPDEST PUSH2 0x189 JUMP JUMPDEST STOP JUMPDEST PUSH2 0xB8 PUSH1 0x4 DUP1 CALLDATASIZE SUB DUP2 ADD SWAP1 PUSH2 0xB3 SWAP2 SWAP1 PUSH2 0x15E5 JUMP JUMPDEST PUSH2 0x320 JUMP JUMPDEST PUSH1 0x40 MLOAD PUSH2 0xC5 SWAP2 SWAP1 PUSH2 0x1960 JUMP JUMPDEST PUSH1 0x40 MLOAD DUP1 SWAP2 SUB SWAP1 RETURN JUMPDEST PUSH2 0xE8 PUSH1 0x4 DUP1 CALLDATASIZE SUB DUP2 ADD SWAP1 PUSH2 0xE3 SWAP2 SWAP1 PUSH2 0x16AE JUMP JUMPDEST PUSH2 0x52F JUMP JUMPDEST STOP JUMPDEST PUSH2 0x104 PUSH1 0x4 DUP1 CALLDATASIZE SUB DUP2 ADD SWAP1 PUSH2 0xFF SWAP2 SWAP1 PUSH2 0x1681 JUMP JUMPDEST PUSH2 0x578 JUMP JUMPDEST STOP JUMPDEST PUSH2 0x120 PUSH1 0x4 DUP1 CALLDATASIZE SUB DUP2 ADD SWAP1 PUSH2 0x11B SWAP2 SWAP1 PUSH2 0x1681 JUMP JUMPDEST PUSH2 0xB02 JUMP JUMPDEST PUSH1 0x40 MLOAD PUSH2 0x134 SWAP9 SWAP8 SWAP7 SWAP6 SWAP5 SWAP4 SWAP3 SWAP2 SWAP1 PUSH2 0x1982 JUMP JUMPDEST PUSH1 0x40 MLOAD DUP1 SWAP2 SUB SWAP1 RETURN JUMPDEST PUSH2 0x157 PUSH1 0x4 DUP1 CALLDATASIZE SUB DUP2 ADD SWAP1 PUSH2 0x152 SWAP2 SWAP1 PUSH2 0x1681 JUMP JUMPDEST PUSH2 0xC22 JUMP JUMPDEST PUSH1 0x40 MLOAD PUSH2 0x164 SWAP2 SWAP1 PUSH2 0x1960 JUMP JUMPDEST PUSH1 0x40 MLOAD DUP1 SWAP2 SUB SWAP1 RETURN JUMPDEST PUSH2 0x187 PUSH1 0x4 DUP1 CALLDATASIZE SUB DUP2 ADD SWAP1 PUSH2 0x182 SWAP2 SWAP1 PUSH2 0x1612 JUMP JUMPDEST PUSH2 0xFDF JUMP JUMPDEST STOP JUMPDEST PUSH1 0x0 JUMPDEST PUSH1 0x4 PUSH1 0x0 DUP6 DUP2 MSTORE PUSH1 0x20 ADD SWAP1 DUP2 MSTORE PUSH1 0x20 ADD PUSH1 0x0 KECCAK256 DUP1 SLOAD SWAP1 POP DUP2 LT ISZERO PUSH2 0x31A JUMPI DUP2 PUSH20 0xFFFFFFFFFFFFFFFFFFFFFFFFFFFFFFFFFFFFFFFF AND PUSH1 0x4 PUSH1 0x0 PUSH1 0x1 DUP8 PUSH2 0x1D2 SWAP2 SWAP1 PUSH2 0x1B19 JUMP JUMPDEST DUP2 MSTORE PUSH1 0x20 ADD SWAP1 DUP2 MSTORE PUSH1 0x20 ADD PUSH1 0x0 KECCAK256 DUP3 DUP2 SLOAD DUP2 LT PUSH2 0x1F2 JUMPI PUSH2 0x1F1 PUSH2 0x1D04 JUMP JUMPDEST JUMPDEST SWAP1 PUSH1 0x0 MSTORE PUSH1 0x20 PUSH1 0x0 KECCAK256 ADD PUSH1 0x0 SWAP1 SLOAD SWAP1 PUSH2 0x100 EXP SWAP1 DIV PUSH20 0xFFFFFFFFFFFFFFFFFFFFFFFFFFFFFFFFFFFFFFFF AND PUSH20 0xFFFFFFFFFFFFFFFFFFFFFFFFFFFFFFFFFFFFFFFF AND EQ ISZERO PUSH2 0x23E JUMPI PUSH2 0x307 JUMP JUMPDEST PUSH1 0x1 DUP1 PUSH1 0x1 DUP7 PUSH2 0x24E SWAP2 SWAP1 PUSH2 0x1B19 JUMP JUMPDEST DUP2 SLOAD DUP2 LT PUSH2 0x25F JUMPI PUSH2 0x25E PUSH2 0x1D04 JUMP JUMPDEST JUMPDEST SWAP1 PUSH1 0x0 MSTORE PUSH1 0x20 PUSH1 0x0 KECCAK256 SWAP1 PUSH1 0x8 MUL ADD PUSH1 0x5 ADD PUSH1 0x0 DUP3 DUP3 SLOAD PUSH2 0x27F SWAP2 SWAP1 PUSH2 0x1AC3 JUMP JUMPDEST SWAP3 POP POP DUP2 SWAP1 SSTORE POP PUSH1 0x4 PUSH1 0x0 PUSH1 0x1 DUP7 PUSH2 0x297 SWAP2 SWAP1 PUSH2 0x1B19 JUMP JUMPDEST DUP2 MSTORE PUSH1 0x20 ADD SWAP1 DUP2 MSTORE PUSH1 0x20 ADD PUSH1 0x0 KECCAK256 DUP3 SWAP1 DUP1 PUSH1 0x1 DUP2 SLOAD ADD DUP1 DUP3 SSTORE DUP1 SWAP2 POP POP PUSH1 0x1 SWAP1 SUB SWAP1 PUSH1 0x0 MSTORE PUSH1 0x20 PUSH1 0x0 KECCAK256 ADD PUSH1 0x0 SWAP1 SWAP2 SWAP1 SWAP2 SWAP1 SWAP2 PUSH2 0x100 EXP DUP2 SLOAD DUP2 PUSH20 0xFFFFFFFFFFFFFFFFFFFFFFFFFFFFFFFFFFFFFFFF MUL NOT AND SWAP1 DUP4 PUSH20 0xFFFFFFFFFFFFFFFFFFFFFFFFFFFFFFFFFFFFFFFF AND MUL OR SWAP1 SSTORE POP JUMPDEST DUP1 DUP1 PUSH2 0x312 SWAP1 PUSH2 0x1C2E JUMP JUMPDEST SWAP2 POP POP PUSH2 0x18C JUMP JUMPDEST POP POP POP POP JUMP JUMPDEST PUSH1 0x60 PUSH1 0x3 PUSH1 0x0 DUP4 PUSH20 0xFFFFFFFFFFFFFFFFFFFFFFFFFFFFFFFFFFFFFFFF AND PUSH20 0xFFFFFFFFFFFFFFFFFFFFFFFFFFFFFFFFFFFFFFFF AND DUP2 MSTORE PUSH1 0x20 ADD SWAP1 DUP2 MSTORE PUSH1 0x20 ADD PUSH1 0x0 KECCAK256 DUP1 SLOAD DUP1 PUSH1 0x20 MUL PUSH1 0x20 ADD PUSH1 0x40 MLOAD SWAP1 DUP2 ADD PUSH1 0x40 MSTORE DUP1 SWAP3 SWAP2 SWAP1 DUP2 DUP2 MSTORE PUSH1 0x20 ADD PUSH1 0x0 SWAP1 JUMPDEST DUP3 DUP3 LT ISZERO PUSH2 0x524 JUMPI DUP4 DUP3 SWAP1 PUSH1 0x0 MSTORE PUSH1 0x20 PUSH1 0x0 KECCAK256 SWAP1 PUSH1 0x8 MUL ADD PUSH1 0x40 MLOAD DUP1 PUSH2 0x100 ADD PUSH1 0x40 MSTORE SWAP1 DUP2 PUSH1 0x0 DUP3 ADD SLOAD DUP2 MSTORE PUSH1 0x20 ADD PUSH1 0x1 DUP3 ADD DUP1 SLOAD PUSH2 0x3BF SWAP1 PUSH2 0x1BCB JUMP JUMPDEST DUP1 PUSH1 0x1F ADD PUSH1 0x20 DUP1 SWAP2 DIV MUL PUSH1 0x20 ADD PUSH1 0x40 MLOAD SWAP1 DUP2 ADD PUSH1 0x40 MSTORE DUP1 SWAP3 SWAP2 SWAP1 DUP2 DUP2 MSTORE PUSH1 0x20 ADD DUP3 DUP1 SLOAD PUSH2 0x3EB SWAP1 PUSH2 0x1BCB JUMP JUMPDEST DUP1 ISZERO PUSH2 0x438 JUMPI DUP1 PUSH1 0x1F LT PUSH2 0x40D JUMPI PUSH2 0x100 DUP1 DUP4 SLOAD DIV MUL DUP4 MSTORE SWAP2 PUSH1 0x20 ADD SWAP2 PUSH2 0x438 JUMP JUMPDEST DUP3 ADD SWAP2 SWAP1 PUSH1 0x0 MSTORE PUSH1 0x20 PUSH1 0x0 KECCAK256 SWAP1 JUMPDEST DUP2 SLOAD DUP2 MSTORE SWAP1 PUSH1 0x1 ADD SWAP1 PUSH1 0x20 ADD DUP1 DUP4 GT PUSH2 0x41B JUMPI DUP3 SWAP1 SUB PUSH1 0x1F AND DUP3 ADD SWAP2 JUMPDEST POP POP POP POP POP DUP2 MSTORE PUSH1 0x20 ADD PUSH1 0x2 DUP3 ADD SLOAD DUP2 MSTORE PUSH1 0x20 ADD PUSH1 0x3 DUP3 ADD PUSH1 0x0 SWAP1 SLOAD SWAP1 PUSH2 0x100 EXP SWAP1 DIV PUSH20 0xFFFFFFFFFFFFFFFFFFFFFFFFFFFFFFFFFFFFFFFF AND PUSH20 0xFFFFFFFFFFFFFFFFFFFFFFFFFFFFFFFFFFFFFFFF AND PUSH20 0xFFFFFFFFFFFFFFFFFFFFFFFFFFFFFFFFFFFFFFFF AND DUP2 MSTORE PUSH1 0x20 ADD PUSH1 0x4 DUP3 ADD PUSH1 0x0 SWAP1 SLOAD SWAP1 PUSH2 0x100 EXP SWAP1 DIV PUSH20 0xFFFFFFFFFFFFFFFFFFFFFFFFFFFFFFFFFFFFFFFF AND PUSH20 0xFFFFFFFFFFFFFFFFFFFFFFFFFFFFFFFFFFFFFFFF AND PUSH20 0xFFFFFFFFFFFFFFFFFFFFFFFFFFFFFFFFFFFFFFFF AND DUP2 MSTORE PUSH1 0x20 ADD PUSH1 0x5 DUP3 ADD SLOAD DUP2 MSTORE PUSH1 0x20 ADD PUSH1 0x6 DUP3 ADD SLOAD DUP2 MSTORE PUSH1 0x20 ADD PUSH1 0x7 DUP3 ADD SLOAD DUP2 MSTORE POP POP DUP2 MSTORE PUSH1 0x20 ADD SWAP1 PUSH1 0x1 ADD SWAP1 PUSH2 0x381 JUMP JUMPDEST POP POP POP POP SWAP1 POP SWAP2 SWAP1 POP JUMP JUMPDEST DUP1 PUSH1 0x1 DUP1 DUP5 PUSH2 0x53E SWAP2 SWAP1 PUSH2 0x1B19 JUMP JUMPDEST DUP2 SLOAD DUP2 LT PUSH2 0x54F JUMPI PUSH2 0x54E PUSH2 0x1D04 JUMP JUMPDEST JUMPDEST SWAP1 PUSH1 0x0 MSTORE PUSH1 0x20 PUSH1 0x0 KECCAK256 SWAP1 PUSH1 0x8 MUL ADD PUSH1 0x1 ADD SWAP1 DUP1 MLOAD SWAP1 PUSH1 0x20 ADD SWAP1 PUSH2 0x573 SWAP3 SWAP2 SWAP1 PUSH2 0x13DB JUMP JUMPDEST POP POP POP JUMP JUMPDEST PUSH1 0x3 PUSH1 0x1 DUP1 DUP4 PUSH2 0x588 SWAP2 SWAP1 PUSH2 0x1B19 JUMP JUMPDEST DUP2 SLOAD DUP2 LT PUSH2 0x599 JUMPI PUSH2 0x598 PUSH2 0x1D04 JUMP JUMPDEST JUMPDEST SWAP1 PUSH1 0x0 MSTORE PUSH1 0x20 PUSH1 0x0 KECCAK256 SWAP1 PUSH1 0x8 MUL ADD PUSH1 0x2 ADD DUP2 SWAP1 SSTORE POP PUSH1 0x1 PUSH1 0x2 PUSH1 0x0 PUSH1 0x1 DUP2 MSTORE PUSH1 0x20 ADD SWAP1 DUP2 MSTORE PUSH1 0x20 ADD PUSH1 0x0 KECCAK256 DUP1 SLOAD SWAP1 POP EQ ISZERO PUSH2 0x696 JUMPI PUSH1 0x2 PUSH1 0x0 PUSH1 0x1 DUP2 MSTORE PUSH1 0x20 ADD SWAP1 DUP2 MSTORE PUSH1 0x20 ADD PUSH1 0x0 KECCAK256 DUP1 SLOAD DUP1 PUSH2 0x5F2 JUMPI PUSH2 0x5F1 PUSH2 0x1CD5 JUMP JUMPDEST JUMPDEST PUSH1 0x1 SWAP1 SUB DUP2 DUP2 SWAP1 PUSH1 0x0 MSTORE PUSH1 0x20 PUSH1 0x0 KECCAK256 SWAP1 PUSH1 0x8 MUL ADD PUSH1 0x0 DUP1 DUP3 ADD PUSH1 0x0 SWAP1 SSTORE PUSH1 0x1 DUP3 ADD PUSH1 0x0 PUSH2 0x61F SWAP2 SWAP1 PUSH2 0x1461 JUMP JUMPDEST PUSH1 0x2 DUP3 ADD PUSH1 0x0 SWAP1 SSTORE PUSH1 0x3 DUP3 ADD PUSH1 0x0 PUSH2 0x100 EXP DUP2 SLOAD SWAP1 PUSH20 0xFFFFFFFFFFFFFFFFFFFFFFFFFFFFFFFFFFFFFFFF MUL NOT AND SWAP1 SSTORE PUSH1 0x4 DUP3 ADD PUSH1 0x0 PUSH2 0x100 EXP DUP2 SLOAD SWAP1 PUSH20 0xFFFFFFFFFFFFFFFFFFFFFFFFFFFFFFFFFFFFFFFF MUL NOT AND SWAP1 SSTORE PUSH1 0x5 DUP3 ADD PUSH1 0x0 SWAP1 SSTORE PUSH1 0x6 DUP3 ADD PUSH1 0x0 SWAP1 SSTORE PUSH1 0x7 DUP3 ADD PUSH1 0x0 SWAP1 SSTORE POP POP SWAP1 SSTORE PUSH2 0x973 JUMP JUMPDEST PUSH1 0x0 JUMPDEST PUSH1 0x1 PUSH1 0x2 PUSH1 0x0 PUSH1 0x1 DUP2 MSTORE PUSH1 0x20 ADD SWAP1 DUP2 MSTORE PUSH1 0x20 ADD PUSH1 0x0 KECCAK256 DUP1 SLOAD SWAP1 POP PUSH2 0x6BD SWAP2 SWAP1 PUSH2 0x1B19 JUMP JUMPDEST DUP2 LT ISZERO PUSH2 0x8AE JUMPI DUP2 PUSH1 0x2 PUSH1 0x0 PUSH1 0x1 DUP2 MSTORE PUSH1 0x20 ADD SWAP1 DUP2 MSTORE PUSH1 0x20 ADD PUSH1 0x0 KECCAK256 DUP3 DUP2 SLOAD DUP2 LT PUSH2 0x6EB JUMPI PUSH2 0x6EA PUSH2 0x1D04 JUMP JUMPDEST JUMPDEST SWAP1 PUSH1 0x0 MSTORE PUSH1 0x20 PUSH1 0x0 KECCAK256 SWAP1 PUSH1 0x8 MUL ADD PUSH1 0x0 ADD SLOAD EQ ISZERO PUSH2 0x89B JUMPI PUSH1 0x2 PUSH1 0x0 PUSH1 0x1 DUP2 MSTORE PUSH1 0x20 ADD SWAP1 DUP2 MSTORE PUSH1 0x20 ADD PUSH1 0x0 KECCAK256 PUSH1 0x1 DUP3 PUSH2 0x724 SWAP2 SWAP1 PUSH2 0x1AC3 JUMP JUMPDEST DUP2 SLOAD DUP2 LT PUSH2 0x735 JUMPI PUSH2 0x734 PUSH2 0x1D04 JUMP JUMPDEST JUMPDEST SWAP1 PUSH1 0x0 MSTORE PUSH1 0x20 PUSH1 0x0 KECCAK256 SWAP1 PUSH1 0x8 MUL ADD PUSH1 0x2 PUSH1 0x0 PUSH1 0x1 DUP2 MSTORE PUSH1 0x20 ADD SWAP1 DUP2 MSTORE PUSH1 0x20 ADD PUSH1 0x0 KECCAK256 DUP3 DUP2 SLOAD DUP2 LT PUSH2 0x769 JUMPI PUSH2 0x768 PUSH2 0x1D04 JUMP JUMPDEST JUMPDEST SWAP1 PUSH1 0x0 MSTORE PUSH1 0x20 PUSH1 0x0 KECCAK256 SWAP1 PUSH1 0x8 MUL ADD PUSH1 0x0 DUP3 ADD SLOAD DUP2 PUSH1 0x0 ADD SSTORE PUSH1 0x1 DUP3 ADD DUP2 PUSH1 0x1 ADD SWAP1 DUP1 SLOAD PUSH2 0x795 SWAP1 PUSH2 0x1BCB JUMP JUMPDEST PUSH2 0x7A0 SWAP3 SWAP2 SWAP1 PUSH2 0x14A1 JUMP JUMPDEST POP PUSH1 0x2 DUP3 ADD SLOAD DUP2 PUSH1 0x2 ADD SSTORE PUSH1 0x3 DUP3 ADD PUSH1 0x0 SWAP1 SLOAD SWAP1 PUSH2 0x100 EXP SWAP1 DIV PUSH20 0xFFFFFFFFFFFFFFFFFFFFFFFFFFFFFFFFFFFFFFFF AND DUP2 PUSH1 0x3 ADD PUSH1 0x0 PUSH2 0x100 EXP DUP2 SLOAD DUP2 PUSH20 0xFFFFFFFFFFFFFFFFFFFFFFFFFFFFFFFFFFFFFFFF MUL NOT AND SWAP1 DUP4 PUSH20 0xFFFFFFFFFFFFFFFFFFFFFFFFFFFFFFFFFFFFFFFF AND MUL OR SWAP1 SSTORE POP PUSH1 0x4 DUP3 ADD PUSH1 0x0 SWAP1 SLOAD SWAP1 PUSH2 0x100 EXP SWAP1 DIV PUSH20 0xFFFFFFFFFFFFFFFFFFFFFFFFFFFFFFFFFFFFFFFF AND DUP2 PUSH1 0x4 ADD PUSH1 0x0 PUSH2 0x100 EXP DUP2 SLOAD DUP2 PUSH20 0xFFFFFFFFFFFFFFFFFFFFFFFFFFFFFFFFFFFFFFFF MUL NOT AND SWAP1 DUP4 PUSH20 0xFFFFFFFFFFFFFFFFFFFFFFFFFFFFFFFFFFFFFFFF AND MUL OR SWAP1 SSTORE POP PUSH1 0x5 DUP3 ADD SLOAD DUP2 PUSH1 0x5 ADD SSTORE PUSH1 0x6 DUP3 ADD SLOAD DUP2 PUSH1 0x6 ADD SSTORE PUSH1 0x7 DUP3 ADD SLOAD DUP2 PUSH1 0x7 ADD SSTORE SWAP1 POP POP JUMPDEST DUP1 DUP1 PUSH2 0x8A6 SWAP1 PUSH2 0x1C2E JUMP JUMPDEST SWAP2 POP POP PUSH2 0x699 JUMP JUMPDEST POP PUSH1 0x2 PUSH1 0x0 PUSH1 0x1 DUP2 MSTORE PUSH1 0x20 ADD SWAP1 DUP2 MSTORE PUSH1 0x20 ADD PUSH1 0x0 KECCAK256 DUP1 SLOAD DUP1 PUSH2 0x8D3 JUMPI PUSH2 0x8D2 PUSH2 0x1CD5 JUMP JUMPDEST JUMPDEST PUSH1 0x1 SWAP1 SUB DUP2 DUP2 SWAP1 PUSH1 0x0 MSTORE PUSH1 0x20 PUSH1 0x0 KECCAK256 SWAP1 PUSH1 0x8 MUL ADD PUSH1 0x0 DUP1 DUP3 ADD PUSH1 0x0 SWAP1 SSTORE PUSH1 0x1 DUP3 ADD PUSH1 0x0 PUSH2 0x900 SWAP2 SWAP1 PUSH2 0x1461 JUMP JUMPDEST PUSH1 0x2 DUP3 ADD PUSH1 0x0 SWAP1 SSTORE PUSH1 0x3 DUP3 ADD PUSH1 0x0 PUSH2 0x100 EXP DUP2 SLOAD SWAP1 PUSH20 0xFFFFFFFFFFFFFFFFFFFFFFFFFFFFFFFFFFFFFFFF MUL NOT AND SWAP1 SSTORE PUSH1 0x4 DUP3 ADD PUSH1 0x0 PUSH2 0x100 EXP DUP2 SLOAD SWAP1 PUSH20 0xFFFFFFFFFFFFFFFFFFFFFFFFFFFFFFFFFFFFFFFF MUL NOT AND SWAP1 SSTORE PUSH1 0x5 DUP3 ADD PUSH1 0x0 SWAP1 SSTORE PUSH1 0x6 DUP3 ADD PUSH1 0x0 SWAP1 SSTORE PUSH1 0x7 DUP3 ADD PUSH1 0x0 SWAP1 SSTORE POP POP SWAP1 SSTORE JUMPDEST PUSH1 0x2 PUSH1 0x0 PUSH1 0x3 DUP2 MSTORE PUSH1 0x20 ADD SWAP1 DUP2 MSTORE PUSH1 0x20 ADD PUSH1 0x0 KECCAK256 PUSH1 0x1 DUP1 DUP4 PUSH2 0x995 SWAP2 SWAP1 PUSH2 0x1B19 JUMP JUMPDEST DUP2 SLOAD DUP2 LT PUSH2 0x9A6 JUMPI PUSH2 0x9A5 PUSH2 0x1D04 JUMP JUMPDEST JUMPDEST SWAP1 PUSH1 0x0 MSTORE PUSH1 0x20 PUSH1 0x0 KECCAK256 SWAP1 PUSH1 0x8 MUL ADD SWAP1 DUP1 PUSH1 0x1 DUP2 SLOAD ADD DUP1 DUP3 SSTORE DUP1 SWAP2 POP POP PUSH1 0x1 SWAP1 SUB SWAP1 PUSH1 0x0 MSTORE PUSH1 0x20 PUSH1 0x0 KECCAK256 SWAP1 PUSH1 0x8 MUL ADD PUSH1 0x0 SWAP1 SWAP2 SWAP1 SWAP2 SWAP1 SWAP2 POP PUSH1 0x0 DUP3 ADD SLOAD DUP2 PUSH1 0x0 ADD SSTORE PUSH1 0x1 DUP3 ADD DUP2 PUSH1 0x1 ADD SWAP1 DUP1 SLOAD PUSH2 0x9FB SWAP1 PUSH2 0x1BCB JUMP JUMPDEST PUSH2 0xA06 SWAP3 SWAP2 SWAP1 PUSH2 0x14A1 JUMP JUMPDEST POP PUSH1 0x2 DUP3 ADD SLOAD DUP2 PUSH1 0x2 ADD SSTORE PUSH1 0x3 DUP3 ADD PUSH1 0x0 SWAP1 SLOAD SWAP1 PUSH2 0x100 EXP SWAP1 DIV PUSH20 0xFFFFFFFFFFFFFFFFFFFFFFFFFFFFFFFFFFFFFFFF AND DUP2 PUSH1 0x3 ADD PUSH1 0x0 PUSH2 0x100 EXP DUP2 SLOAD DUP2 PUSH20 0xFFFFFFFFFFFFFFFFFFFFFFFFFFFFFFFFFFFFFFFF MUL NOT AND SWAP1 DUP4 PUSH20 0xFFFFFFFFFFFFFFFFFFFFFFFFFFFFFFFFFFFFFFFF AND MUL OR SWAP1 SSTORE POP PUSH1 0x4 DUP3 ADD PUSH1 0x0 SWAP1 SLOAD SWAP1 PUSH2 0x100 EXP SWAP1 DIV PUSH20 0xFFFFFFFFFFFFFFFFFFFFFFFFFFFFFFFFFFFFFFFF AND DUP2 PUSH1 0x4 ADD PUSH1 0x0 PUSH2 0x100 EXP DUP2 SLOAD DUP2 PUSH20 0xFFFFFFFFFFFFFFFFFFFFFFFFFFFFFFFFFFFFFFFF MUL NOT AND SWAP1 DUP4 PUSH20 0xFFFFFFFFFFFFFFFFFFFFFFFFFFFFFFFFFFFFFFFF AND MUL OR SWAP1 SSTORE POP PUSH1 0x5 DUP3 ADD SLOAD DUP2 PUSH1 0x5 ADD SSTORE PUSH1 0x6 DUP3 ADD SLOAD DUP2 PUSH1 0x6 ADD SSTORE PUSH1 0x7 DUP3 ADD SLOAD DUP2 PUSH1 0x7 ADD SSTORE POP POP POP JUMP JUMPDEST PUSH1 0x1 DUP2 DUP2 SLOAD DUP2 LT PUSH2 0xB12 JUMPI PUSH1 0x0 DUP1 REVERT JUMPDEST SWAP1 PUSH1 0x0 MSTORE PUSH1 0x20 PUSH1 0x0 KECCAK256 SWAP1 PUSH1 0x8 MUL ADD PUSH1 0x0 SWAP2 POP SWAP1 POP DUP1 PUSH1 0x0 ADD SLOAD SWAP1 DUP1 PUSH1 0x1 ADD DUP1 SLOAD PUSH2 0xB3B SWAP1 PUSH2 0x1BCB JUMP JUMPDEST DUP1 PUSH1 0x1F ADD PUSH1 0x20 DUP1 SWAP2 DIV MUL PUSH1 0x20 ADD PUSH1 0x40 MLOAD SWAP1 DUP2 ADD PUSH1 0x40 MSTORE DUP1 SWAP3 SWAP2 SWAP1 DUP2 DUP2 MSTORE PUSH1 0x20 ADD DUP3 DUP1 SLOAD PUSH2 0xB67 SWAP1 PUSH2 0x1BCB JUMP JUMPDEST DUP1 ISZERO PUSH2 0xBB4 JUMPI DUP1 PUSH1 0x1F LT PUSH2 0xB89 JUMPI PUSH2 0x100 DUP1 DUP4 SLOAD DIV MUL DUP4 MSTORE SWAP2 PUSH1 0x20 ADD SWAP2 PUSH2 0xBB4 JUMP JUMPDEST DUP3 ADD SWAP2 SWAP1 PUSH1 0x0 MSTORE PUSH1 0x20 PUSH1 0x0 KECCAK256 SWAP1 JUMPDEST DUP2 SLOAD DUP2 MSTORE SWAP1 PUSH1 0x1 ADD SWAP1 PUSH1 0x20 ADD DUP1 DUP4 GT PUSH2 0xB97 JUMPI DUP3 SWAP1 SUB PUSH1 0x1F AND DUP3 ADD SWAP2 JUMPDEST POP POP POP POP POP SWAP1 DUP1 PUSH1 0x2 ADD SLOAD SWAP1 DUP1 PUSH1 0x3 ADD PUSH1 0x0 SWAP1 SLOAD SWAP1 PUSH2 0x100 EXP SWAP1 DIV PUSH20 0xFFFFFFFFFFFFFFFFFFFFFFFFFFFFFFFFFFFFFFFF AND SWAP1 DUP1 PUSH1 0x4 ADD PUSH1 0x0 SWAP1 SLOAD SWAP1 PUSH2 0x100 EXP SWAP1 DIV PUSH20 0xFFFFFFFFFFFFFFFFFFFFFFFFFFFFFFFFFFFFFFFF AND SWAP1 DUP1 PUSH1 0x5 ADD SLOAD SWAP1 DUP1 PUSH1 0x6 ADD SLOAD SWAP1 DUP1 PUSH1 0x7 ADD SLOAD SWAP1 POP DUP9 JUMP JUMPDEST PUSH1 0x60 PUSH1 0x0 DUP3 EQ ISZERO PUSH2 0xDFD JUMPI PUSH1 0x1 DUP1 SLOAD DUP1 PUSH1 0x20 MUL PUSH1 0x20 ADD PUSH1 0x40 MLOAD SWAP1 DUP2 ADD PUSH1 0x40 MSTORE DUP1 SWAP3 SWAP2 SWAP1 DUP2 DUP2 MSTORE PUSH1 0x20 ADD PUSH1 0x0 SWAP1 JUMPDEST DUP3 DUP3 LT ISZERO PUSH2 0xDF2 JUMPI DUP4 DUP3 SWAP1 PUSH1 0x0 MSTORE PUSH1 0x20 PUSH1 0x0 KECCAK256 SWAP1 PUSH1 0x8 MUL ADD PUSH1 0x40 MLOAD DUP1 PUSH2 0x100 ADD PUSH1 0x40 MSTORE SWAP1 DUP2 PUSH1 0x0 DUP3 ADD SLOAD DUP2 MSTORE PUSH1 0x20 ADD PUSH1 0x1 DUP3 ADD DUP1 SLOAD PUSH2 0xC8D SWAP1 PUSH2 0x1BCB JUMP JUMPDEST DUP1 PUSH1 0x1F ADD PUSH1 0x20 DUP1 SWAP2 DIV MUL PUSH1 0x20 ADD PUSH1 0x40 MLOAD SWAP1 DUP2 ADD PUSH1 0x40 MSTORE DUP1 SWAP3 SWAP2 SWAP1 DUP2 DUP2 MSTORE PUSH1 0x20 ADD DUP3 DUP1 SLOAD PUSH2 0xCB9 SWAP1 PUSH2 0x1BCB JUMP JUMPDEST DUP1 ISZERO PUSH2 0xD06 JUMPI DUP1 PUSH1 0x1F LT PUSH2 0xCDB JUMPI PUSH2 0x100 DUP1 DUP4 SLOAD DIV MUL DUP4 MSTORE SWAP2 PUSH1 0x20 ADD SWAP2 PUSH2 0xD06 JUMP JUMPDEST DUP3 ADD SWAP2 SWAP1 PUSH1 0x0 MSTORE PUSH1 0x20 PUSH1 0x0 KECCAK256 SWAP1 JUMPDEST DUP2 SLOAD DUP2 MSTORE SWAP1 PUSH1 0x1 ADD SWAP1 PUSH1 0x20 ADD DUP1 DUP4 GT PUSH2 0xCE9 JUMPI DUP3 SWAP1 SUB PUSH1 0x1F AND DUP3 ADD SWAP2 JUMPDEST POP POP POP POP POP DUP2 MSTORE PUSH1 0x20 ADD PUSH1 0x2 DUP3 ADD SLOAD DUP2 MSTORE PUSH1 0x20 ADD PUSH1 0x3 DUP3 ADD PUSH1 0x0 SWAP1 SLOAD SWAP1 PUSH2 0x100 EXP SWAP1 DIV PUSH20 0xFFFFFFFFFFFFFFFFFFFFFFFFFFFFFFFFFFFFFFFF AND PUSH20 0xFFFFFFFFFFFFFFFFFFFFFFFFFFFFFFFFFFFFFFFF AND PUSH20 0xFFFFFFFFFFFFFFFFFFFFFFFFFFFFFFFFFFFFFFFF AND DUP2 MSTORE PUSH1 0x20 ADD PUSH1 0x4 DUP3 ADD PUSH1 0x0 SWAP1 SLOAD SWAP1 PUSH2 0x100 EXP SWAP1 DIV PUSH20 0xFFFFFFFFFFFFFFFFFFFFFFFFFFFFFFFFFFFFFFFF AND PUSH20 0xFFFFFFFFFFFFFFFFFFFFFFFFFFFFFFFFFFFFFFFF AND PUSH20 0xFFFFFFFFFFFFFFFFFFFFFFFFFFFFFFFFFFFFFFFF AND DUP2 MSTORE PUSH1 0x20 ADD PUSH1 0x5 DUP3 ADD SLOAD DUP2 MSTORE PUSH1 0x20 ADD PUSH1 0x6 DUP3 ADD SLOAD DUP2 MSTORE PUSH1 0x20 ADD PUSH1 0x7 DUP3 ADD SLOAD DUP2 MSTORE POP POP DUP2 MSTORE PUSH1 0x20 ADD SWAP1 PUSH1 0x1 ADD SWAP1 PUSH2 0xC4F JUMP JUMPDEST POP POP POP POP SWAP1 POP PUSH2 0xFDA JUMP JUMPDEST PUSH1 0x2 PUSH1 0x0 DUP4 DUP2 MSTORE PUSH1 0x20 ADD SWAP1 DUP2 MSTORE PUSH1 0x20 ADD PUSH1 0x0 KECCAK256 DUP1 SLOAD DUP1 PUSH1 0x20 MUL PUSH1 0x20 ADD PUSH1 0x40 MLOAD SWAP1 DUP2 ADD PUSH1 0x40 MSTORE DUP1 SWAP3 SWAP2 SWAP1 DUP2 DUP2 MSTORE PUSH1 0x20 ADD PUSH1 0x0 SWAP1 JUMPDEST DUP3 DUP3 LT ISZERO PUSH2 0xFD3 JUMPI DUP4 DUP3 SWAP1 PUSH1 0x0 MSTORE PUSH1 0x20 PUSH1 0x0 KECCAK256 SWAP1 PUSH1 0x8 MUL ADD PUSH1 0x40 MLOAD DUP1 PUSH2 0x100 ADD PUSH1 0x40 MSTORE SWAP1 DUP2 PUSH1 0x0 DUP3 ADD SLOAD DUP2 MSTORE PUSH1 0x20 ADD PUSH1 0x1 DUP3 ADD DUP1 SLOAD PUSH2 0xE6E SWAP1 PUSH2 0x1BCB JUMP JUMPDEST DUP1 PUSH1 0x1F ADD PUSH1 0x20 DUP1 SWAP2 DIV MUL PUSH1 0x20 ADD PUSH1 0x40 MLOAD SWAP1 DUP2 ADD PUSH1 0x40 MSTORE DUP1 SWAP3 SWAP2 SWAP1 DUP2 DUP2 MSTORE PUSH1 0x20 ADD DUP3 DUP1 SLOAD PUSH2 0xE9A SWAP1 PUSH2 0x1BCB JUMP JUMPDEST DUP1 ISZERO PUSH2 0xEE7 JUMPI DUP1 PUSH1 0x1F LT PUSH2 0xEBC JUMPI PUSH2 0x100 DUP1 DUP4 SLOAD DIV MUL DUP4 MSTORE SWAP2 PUSH1 0x20 ADD SWAP2 PUSH2 0xEE7 JUMP JUMPDEST DUP3 ADD SWAP2 SWAP1 PUSH1 0x0 MSTORE PUSH1 0x20 PUSH1 0x0 KECCAK256 SWAP1 JUMPDEST DUP2 SLOAD DUP2 MSTORE SWAP1 PUSH1 0x1 ADD SWAP1 PUSH1 0x20 ADD DUP1 DUP4 GT PUSH2 0xECA JUMPI DUP3 SWAP1 SUB PUSH1 0x1F AND DUP3 ADD SWAP2 JUMPDEST POP POP POP POP POP DUP2 MSTORE PUSH1 0x20 ADD PUSH1 0x2 DUP3 ADD SLOAD DUP2 MSTORE PUSH1 0x20 ADD PUSH1 0x3 DUP3 ADD PUSH1 0x0 SWAP1 SLOAD SWAP1 PUSH2 0x100 EXP SWAP1 DIV PUSH20 0xFFFFFFFFFFFFFFFFFFFFFFFFFFFFFFFFFFFFFFFF AND PUSH20 0xFFFFFFFFFFFFFFFFFFFFFFFFFFFFFFFFFFFFFFFF AND PUSH20 0xFFFFFFFFFFFFFFFFFFFFFFFFFFFFFFFFFFFFFFFF AND DUP2 MSTORE PUSH1 0x20 ADD PUSH1 0x4 DUP3 ADD PUSH1 0x0 SWAP1 SLOAD SWAP1 PUSH2 0x100 EXP SWAP1 DIV PUSH20 0xFFFFFFFFFFFFFFFFFFFFFFFFFFFFFFFFFFFFFFFF AND PUSH20 0xFFFFFFFFFFFFFFFFFFFFFFFFFFFFFFFFFFFFFFFF AND PUSH20 0xFFFFFFFFFFFFFFFFFFFFFFFFFFFFFFFFFFFFFFFF AND DUP2 MSTORE PUSH1 0x20 ADD PUSH1 0x5 DUP3 ADD SLOAD DUP2 MSTORE PUSH1 0x20 ADD PUSH1 0x6 DUP3 ADD SLOAD DUP2 MSTORE PUSH1 0x20 ADD PUSH1 0x7 DUP3 ADD SLOAD DUP2 MSTORE POP POP DUP2 MSTORE PUSH1 0x20 ADD SWAP1 PUSH1 0x1 ADD SWAP1 PUSH2 0xE30 JUMP JUMPDEST POP POP POP POP SWAP1 POP JUMPDEST SWAP2 SWAP1 POP JUMP JUMPDEST PUSH1 0x0 DUP1 DUP2 SLOAD DUP1 SWAP3 SWAP2 SWAP1 PUSH2 0xFF1 SWAP1 PUSH2 0x1C2E JUMP JUMPDEST SWAP2 SWAP1 POP SSTORE POP PUSH1 0x0 PUSH1 0x40 MLOAD DUP1 PUSH2 0x100 ADD PUSH1 0x40 MSTORE DUP1 PUSH1 0x0 SLOAD DUP2 MSTORE PUSH1 0x20 ADD DUP6 DUP2 MSTORE PUSH1 0x20 ADD PUSH1 0x1 DUP2 MSTORE PUSH1 0x20 ADD CALLER PUSH20 0xFFFFFFFFFFFFFFFFFFFFFFFFFFFFFFFFFFFFFFFF AND DUP2 MSTORE PUSH1 0x20 ADD DUP5 PUSH20 0xFFFFFFFFFFFFFFFFFFFFFFFFFFFFFFFFFFFFFFFF AND DUP2 MSTORE PUSH1 0x20 ADD PUSH1 0x0 DUP2 MSTORE PUSH1 0x20 ADD DUP4 DUP2 MSTORE PUSH1 0x20 ADD PUSH1 0x0 DUP2 MSTORE POP SWAP1 POP PUSH1 0x1 DUP2 SWAP1 DUP1 PUSH1 0x1 DUP2 SLOAD ADD DUP1 DUP3 SSTORE DUP1 SWAP2 POP POP PUSH1 0x1 SWAP1 SUB SWAP1 PUSH1 0x0 MSTORE PUSH1 0x20 PUSH1 0x0 KECCAK256 SWAP1 PUSH1 0x8 MUL ADD PUSH1 0x0 SWAP1 SWAP2 SWAP1 SWAP2 SWAP1 SWAP2 POP PUSH1 0x0 DUP3 ADD MLOAD DUP2 PUSH1 0x0 ADD SSTORE PUSH1 0x20 DUP3 ADD MLOAD DUP2 PUSH1 0x1 ADD SWAP1 DUP1 MLOAD SWAP1 PUSH1 0x20 ADD SWAP1 PUSH2 0x10B7 SWAP3 SWAP2 SWAP1 PUSH2 0x13DB JUMP JUMPDEST POP PUSH1 0x40 DUP3 ADD MLOAD DUP2 PUSH1 0x2 ADD SSTORE PUSH1 0x60 DUP3 ADD MLOAD DUP2 PUSH1 0x3 ADD PUSH1 0x0 PUSH2 0x100 EXP DUP2 SLOAD DUP2 PUSH20 0xFFFFFFFFFFFFFFFFFFFFFFFFFFFFFFFFFFFFFFFF MUL NOT AND SWAP1 DUP4 PUSH20 0xFFFFFFFFFFFFFFFFFFFFFFFFFFFFFFFFFFFFFFFF AND MUL OR SWAP1 SSTORE POP PUSH1 0x80 DUP3 ADD MLOAD DUP2 PUSH1 0x4 ADD PUSH1 0x0 PUSH2 0x100 EXP DUP2 SLOAD DUP2 PUSH20 0xFFFFFFFFFFFFFFFFFFFFFFFFFFFFFFFFFFFFFFFF MUL NOT AND SWAP1 DUP4 PUSH20 0xFFFFFFFFFFFFFFFFFFFFFFFFFFFFFFFFFFFFFFFF AND MUL OR SWAP1 SSTORE POP PUSH1 0xA0 DUP3 ADD MLOAD DUP2 PUSH1 0x5 ADD SSTORE PUSH1 0xC0 DUP3 ADD MLOAD DUP2 PUSH1 0x6 ADD SSTORE PUSH1 0xE0 DUP3 ADD MLOAD DUP2 PUSH1 0x7 ADD SSTORE POP POP PUSH1 0x2 PUSH1 0x0 PUSH1 0x1 DUP2 MSTORE PUSH1 0x20 ADD SWAP1 DUP2 MSTORE PUSH1 0x20 ADD PUSH1 0x0 KECCAK256 DUP2 SWAP1 DUP1 PUSH1 0x1 DUP2 SLOAD ADD DUP1 DUP3 SSTORE DUP1 SWAP2 POP POP PUSH1 0x1 SWAP1 SUB SWAP1 PUSH1 0x0 MSTORE PUSH1 0x20 PUSH1 0x0 KECCAK256 SWAP1 PUSH1 0x8 MUL ADD PUSH1 0x0 SWAP1 SWAP2 SWAP1 SWAP2 SWAP1 SWAP2 POP PUSH1 0x0 DUP3 ADD MLOAD DUP2 PUSH1 0x0 ADD SSTORE PUSH1 0x20 DUP3 ADD MLOAD DUP2 PUSH1 0x1 ADD SWAP1 DUP1 MLOAD SWAP1 PUSH1 0x20 ADD SWAP1 PUSH2 0x11D4 SWAP3 SWAP2 SWAP1 PUSH2 0x13DB JUMP JUMPDEST POP PUSH1 0x40 DUP3 ADD MLOAD DUP2 PUSH1 0x2 ADD SSTORE PUSH1 0x60 DUP3 ADD MLOAD DUP2 PUSH1 0x3 ADD PUSH1 0x0 PUSH2 0x100 EXP DUP2 SLOAD DUP2 PUSH20 0xFFFFFFFFFFFFFFFFFFFFFFFFFFFFFFFFFFFFFFFF MUL NOT AND SWAP1 DUP4 PUSH20 0xFFFFFFFFFFFFFFFFFFFFFFFFFFFFFFFFFFFFFFFF AND MUL OR SWAP1 SSTORE POP PUSH1 0x80 DUP3 ADD MLOAD DUP2 PUSH1 0x4 ADD PUSH1 0x0 PUSH2 0x100 EXP DUP2 SLOAD DUP2 PUSH20 0xFFFFFFFFFFFFFFFFFFFFFFFFFFFFFFFFFFFFFFFF MUL NOT AND SWAP1 DUP4 PUSH20 0xFFFFFFFFFFFFFFFFFFFFFFFFFFFFFFFFFFFFFFFF AND MUL OR SWAP1 SSTORE POP PUSH1 0xA0 DUP3 ADD MLOAD DUP2 PUSH1 0x5 ADD SSTORE PUSH1 0xC0 DUP3 ADD MLOAD DUP2 PUSH1 0x6 ADD SSTORE PUSH1 0xE0 DUP3 ADD MLOAD DUP2 PUSH1 0x7 ADD SSTORE POP POP PUSH1 0x3 PUSH1 0x0 CALLER PUSH20 0xFFFFFFFFFFFFFFFFFFFFFFFFFFFFFFFFFFFFFFFF AND PUSH20 0xFFFFFFFFFFFFFFFFFFFFFFFFFFFFFFFFFFFFFFFF AND DUP2 MSTORE PUSH1 0x20 ADD SWAP1 DUP2 MSTORE PUSH1 0x20 ADD PUSH1 0x0 KECCAK256 DUP2 SWAP1 DUP1 PUSH1 0x1 DUP2 SLOAD ADD DUP1 DUP3 SSTORE DUP1 SWAP2 POP POP PUSH1 0x1 SWAP1 SUB SWAP1 PUSH1 0x0 MSTORE PUSH1 0x20 PUSH1 0x0 KECCAK256 SWAP1 PUSH1 0x8 MUL ADD PUSH1 0x0 SWAP1 SWAP2 SWAP1 SWAP2 SWAP1 SWAP2 POP PUSH1 0x0 DUP3 ADD MLOAD DUP2 PUSH1 0x0 ADD SSTORE PUSH1 0x20 DUP3 ADD MLOAD DUP2 PUSH1 0x1 ADD SWAP1 DUP1 MLOAD SWAP1 PUSH1 0x20 ADD SWAP1 PUSH2 0x131C SWAP3 SWAP2 SWAP1 PUSH2 0x13DB JUMP JUMPDEST POP PUSH1 0x40 DUP3 ADD MLOAD DUP2 PUSH1 0x2 ADD SSTORE PUSH1 0x60 DUP3 ADD MLOAD DUP2 PUSH1 0x3 ADD PUSH1 0x0 PUSH2 0x100 EXP DUP2 SLOAD DUP2 PUSH20 0xFFFFFFFFFFFFFFFFFFFFFFFFFFFFFFFFFFFFFFFF MUL NOT AND SWAP1 DUP4 PUSH20 0xFFFFFFFFFFFFFFFFFFFFFFFFFFFFFFFFFFFFFFFF AND MUL OR SWAP1 SSTORE POP PUSH1 0x80 DUP3 ADD MLOAD DUP2 PUSH1 0x4 ADD PUSH1 0x0 PUSH2 0x100 EXP DUP2 SLOAD DUP2 PUSH20 0xFFFFFFFFFFFFFFFFFFFFFFFFFFFFFFFFFFFFFFFF MUL NOT AND SWAP1 DUP4 PUSH20 0xFFFFFFFFFFFFFFFFFFFFFFFFFFFFFFFFFFFFFFFF AND MUL OR SWAP1 SSTORE POP PUSH1 0xA0 DUP3 ADD MLOAD DUP2 PUSH1 0x5 ADD SSTORE PUSH1 0xC0 DUP3 ADD MLOAD DUP2 PUSH1 0x6 ADD SSTORE PUSH1 0xE0 DUP3 ADD MLOAD DUP2 PUSH1 0x7 ADD SSTORE POP POP POP POP POP POP JUMP JUMPDEST DUP3 DUP1 SLOAD PUSH2 0x13E7 SWAP1 PUSH2 0x1BCB JUMP JUMPDEST SWAP1 PUSH1 0x0 MSTORE PUSH1 0x20 PUSH1 0x0 KECCAK256 SWAP1 PUSH1 0x1F ADD PUSH1 0x20 SWAP1 DIV DUP2 ADD SWAP3 DUP3 PUSH2 0x1409 JUMPI PUSH1 0x0 DUP6 SSTORE PUSH2 0x1450 JUMP JUMPDEST DUP3 PUSH1 0x1F LT PUSH2 0x1422 JUMPI DUP1 MLOAD PUSH1 0xFF NOT AND DUP4 DUP1 ADD OR DUP6 SSTORE PUSH2 0x1450 JUMP JUMPDEST DUP3 DUP1 ADD PUSH1 0x1 ADD DUP6 SSTORE DUP3 ISZERO PUSH2 0x1450 JUMPI SWAP2 DUP3 ADD JUMPDEST DUP3 DUP2 GT ISZERO PUSH2 0x144F JUMPI DUP3 MLOAD DUP3 SSTORE SWAP2 PUSH1 0x20 ADD SWAP2 SWAP1 PUSH1 0x1 ADD SWAP1 PUSH2 0x1434 JUMP JUMPDEST JUMPDEST POP SWAP1 POP PUSH2 0x145D SWAP2 SWAP1 PUSH2 0x152E JUMP JUMPDEST POP SWAP1 JUMP JUMPDEST POP DUP1 SLOAD PUSH2 0x146D SWAP1 PUSH2 0x1BCB JUMP JUMPDEST PUSH1 0x0 DUP3 SSTORE DUP1 PUSH1 0x1F LT PUSH2 0x147F JUMPI POP PUSH2 0x149E JUMP JUMPDEST PUSH1 0x1F ADD PUSH1 0x20 SWAP1 DIV SWAP1 PUSH1 0x0 MSTORE PUSH1 0x20 PUSH1 0x0 KECCAK256 SWAP1 DUP2 ADD SWAP1 PUSH2 0x149D SWAP2 SWAP1 PUSH2 0x152E JUMP JUMPDEST JUMPDEST POP JUMP JUMPDEST DUP3 DUP1 SLOAD PUSH2 0x14AD SWAP1 PUSH2 0x1BCB JUMP JUMPDEST SWAP1 PUSH1 0x0 MSTORE PUSH1 0x20 PUSH1 0x0 KECCAK256 SWAP1 PUSH1 0x1F ADD PUSH1 0x20 SWAP1 DIV DUP2 ADD SWAP3 DUP3 PUSH2 0x14CF JUMPI PUSH1 0x0 DUP6 SSTORE PUSH2 0x151D JUMP JUMPDEST DUP3 PUSH1 0x1F LT PUSH2 0x14E0 JUMPI DUP1 SLOAD DUP6 SSTORE PUSH2 0x151D JUMP JUMPDEST DUP3 DUP1 ADD PUSH1 0x1 ADD DUP6 SSTORE DUP3 ISZERO PUSH2 0x151D JUMPI PUSH1 0x0 MSTORE PUSH1 0x20 PUSH1 0x0 KECCAK256 SWAP2 PUSH1 0x1F ADD PUSH1 0x20 SWAP1 DIV DUP3 ADD JUMPDEST DUP3 DUP2 GT ISZERO PUSH2 0x151C JUMPI DUP3 SLOAD DUP3 SSTORE SWAP2 PUSH1 0x1 ADD SWAP2 SWAP1 PUSH1 0x1 ADD SWAP1 PUSH2 0x1501 JUMP JUMPDEST JUMPDEST POP SWAP1 POP PUSH2 0x152A SWAP2 SWAP1 PUSH2 0x152E JUMP JUMPDEST POP SWAP1 JUMP JUMPDEST JUMPDEST DUP1 DUP3 GT ISZERO PUSH2 0x1547 JUMPI PUSH1 0x0 DUP2 PUSH1 0x0 SWAP1 SSTORE POP PUSH1 0x1 ADD PUSH2 0x152F JUMP JUMPDEST POP SWAP1 JUMP JUMPDEST PUSH1 0x0 PUSH2 0x155E PUSH2 0x1559 DUP5 PUSH2 0x1A2C JUMP JUMPDEST PUSH2 0x1A07 JUMP JUMPDEST SWAP1 POP DUP3 DUP2 MSTORE PUSH1 0x20 DUP2 ADD DUP5 DUP5 DUP5 ADD GT ISZERO PUSH2 0x157A JUMPI PUSH2 0x1579 PUSH2 0x1D67 JUMP JUMPDEST JUMPDEST PUSH2 0x1585 DUP5 DUP3 DUP6 PUSH2 0x1B89 JUMP JUMPDEST POP SWAP4 SWAP3 POP POP POP JUMP JUMPDEST PUSH1 0x0 DUP2 CALLDATALOAD SWAP1 POP PUSH2 0x159C DUP2 PUSH2 0x1D87 JUMP JUMPDEST SWAP3 SWAP2 POP POP JUMP JUMPDEST PUSH1 0x0 DUP3 PUSH1 0x1F DUP4 ADD SLT PUSH2 0x15B7 JUMPI PUSH2 0x15B6 PUSH2 0x1D62 JUMP JUMPDEST JUMPDEST DUP2 CALLDATALOAD PUSH2 0x15C7 DUP5 DUP3 PUSH1 0x20 DUP7 ADD PUSH2 0x154B JUMP JUMPDEST SWAP2 POP POP SWAP3 SWAP2 POP POP JUMP JUMPDEST PUSH1 0x0 DUP2 CALLDATALOAD SWAP1 POP PUSH2 0x15DF DUP2 PUSH2 0x1D9E JUMP JUMPDEST SWAP3 SWAP2 POP POP JUMP JUMPDEST PUSH1 0x0 PUSH1 0x20 DUP3 DUP5 SUB SLT ISZERO PUSH2 0x15FB JUMPI PUSH2 0x15FA PUSH2 0x1D71 JUMP JUMPDEST JUMPDEST PUSH1 0x0 PUSH2 0x1609 DUP5 DUP3 DUP6 ADD PUSH2 0x158D JUMP JUMPDEST SWAP2 POP POP SWAP3 SWAP2 POP POP JUMP JUMPDEST PUSH1 0x0 DUP1 PUSH1 0x0 PUSH1 0x60 DUP5 DUP7 SUB SLT ISZERO PUSH2 0x162B JUMPI PUSH2 0x162A PUSH2 0x1D71 JUMP JUMPDEST JUMPDEST PUSH1 0x0 DUP5 ADD CALLDATALOAD PUSH8 0xFFFFFFFFFFFFFFFF DUP2 GT ISZERO PUSH2 0x1649 JUMPI PUSH2 0x1648 PUSH2 0x1D6C JUMP JUMPDEST JUMPDEST PUSH2 0x1655 DUP7 DUP3 DUP8 ADD PUSH2 0x15A2 JUMP JUMPDEST SWAP4 POP POP PUSH1 0x20 PUSH2 0x1666 DUP7 DUP3 DUP8 ADD PUSH2 0x158D JUMP JUMPDEST SWAP3 POP POP PUSH1 0x40 PUSH2 0x1677 DUP7 DUP3 DUP8 ADD PUSH2 0x15D0 JUMP JUMPDEST SWAP2 POP POP SWAP3 POP SWAP3 POP SWAP3 JUMP JUMPDEST PUSH1 0x0 PUSH1 0x20 DUP3 DUP5 SUB SLT ISZERO PUSH2 0x1697 JUMPI PUSH2 0x1696 PUSH2 0x1D71 JUMP JUMPDEST JUMPDEST PUSH1 0x0 PUSH2 0x16A5 DUP5 DUP3 DUP6 ADD PUSH2 0x15D0 JUMP JUMPDEST SWAP2 POP POP SWAP3 SWAP2 POP POP JUMP JUMPDEST PUSH1 0x0 DUP1 PUSH1 0x40 DUP4 DUP6 SUB SLT ISZERO PUSH2 0x16C5 JUMPI PUSH2 0x16C4 PUSH2 0x1D71 JUMP JUMPDEST JUMPDEST PUSH1 0x0 PUSH2 0x16D3 DUP6 DUP3 DUP7 ADD PUSH2 0x15D0 JUMP JUMPDEST SWAP3 POP POP PUSH1 0x20 DUP4 ADD CALLDATALOAD PUSH8 0xFFFFFFFFFFFFFFFF DUP2 GT ISZERO PUSH2 0x16F4 JUMPI PUSH2 0x16F3 PUSH2 0x1D6C JUMP JUMPDEST JUMPDEST PUSH2 0x1700 DUP6 DUP3 DUP7 ADD PUSH2 0x15A2 JUMP JUMPDEST SWAP2 POP POP SWAP3 POP SWAP3 SWAP1 POP JUMP JUMPDEST PUSH1 0x0 DUP1 PUSH1 0x0 PUSH1 0x60 DUP5 DUP7 SUB SLT ISZERO PUSH2 0x1723 JUMPI PUSH2 0x1722 PUSH2 0x1D71 JUMP JUMPDEST JUMPDEST PUSH1 0x0 PUSH2 0x1731 DUP7 DUP3 DUP8 ADD PUSH2 0x15D0 JUMP JUMPDEST SWAP4 POP POP PUSH1 0x20 DUP5 ADD CALLDATALOAD PUSH8 0xFFFFFFFFFFFFFFFF DUP2 GT ISZERO PUSH2 0x1752 JUMPI PUSH2 0x1751 PUSH2 0x1D6C JUMP JUMPDEST JUMPDEST PUSH2 0x175E DUP7 DUP3 DUP8 ADD PUSH2 0x15A2 JUMP JUMPDEST SWAP3 POP POP PUSH1 0x40 PUSH2 0x176F DUP7 DUP3 DUP8 ADD PUSH2 0x158D JUMP JUMPDEST SWAP2 POP POP SWAP3 POP SWAP3 POP SWAP3 JUMP JUMPDEST PUSH1 0x0 PUSH2 0x1785 DUP4 DUP4 PUSH2 0x1892 JUMP JUMPDEST SWAP1 POP SWAP3 SWAP2 POP POP JUMP JUMPDEST PUSH2 0x1796 DUP2 PUSH2 0x1B4D JUMP JUMPDEST DUP3 MSTORE POP POP JUMP JUMPDEST PUSH2 0x17A5 DUP2 PUSH2 0x1B4D JUMP JUMPDEST DUP3 MSTORE POP POP JUMP JUMPDEST PUSH1 0x0 PUSH2 0x17B6 DUP3 PUSH2 0x1A6D JUMP JUMPDEST PUSH2 0x17C0 DUP2 DUP6 PUSH2 0x1A90 JUMP JUMPDEST SWAP4 POP DUP4 PUSH1 0x20 DUP3 MUL DUP6 ADD PUSH2 0x17D2 DUP6 PUSH2 0x1A5D JUMP JUMPDEST DUP1 PUSH1 0x0 JUMPDEST DUP6 DUP2 LT ISZERO PUSH2 0x180E JUMPI DUP5 DUP5 SUB DUP10 MSTORE DUP2 MLOAD PUSH2 0x17EF DUP6 DUP3 PUSH2 0x1779 JUMP JUMPDEST SWAP5 POP PUSH2 0x17FA DUP4 PUSH2 0x1A83 JUMP JUMPDEST SWAP3 POP PUSH1 0x20 DUP11 ADD SWAP10 POP POP PUSH1 0x1 DUP2 ADD SWAP1 POP PUSH2 0x17D6 JUMP JUMPDEST POP DUP3 SWAP8 POP DUP8 SWAP6 POP POP POP POP POP POP SWAP3 SWAP2 POP POP JUMP JUMPDEST PUSH1 0x0 PUSH2 0x182B DUP3 PUSH2 0x1A78 JUMP JUMPDEST PUSH2 0x1835 DUP2 DUP6 PUSH2 0x1AA1 JUMP JUMPDEST SWAP4 POP PUSH2 0x1845 DUP2 DUP6 PUSH1 0x20 DUP7 ADD PUSH2 0x1B98 JUMP JUMPDEST PUSH2 0x184E DUP2 PUSH2 0x1D76 JUMP JUMPDEST DUP5 ADD SWAP2 POP POP SWAP3 SWAP2 POP POP JUMP JUMPDEST PUSH1 0x0 PUSH2 0x1864 DUP3 PUSH2 0x1A78 JUMP JUMPDEST PUSH2 0x186E DUP2 DUP6 PUSH2 0x1AB2 JUMP JUMPDEST SWAP4 POP PUSH2 0x187E DUP2 DUP6 PUSH1 0x20 DUP7 ADD PUSH2 0x1B98 JUMP JUMPDEST PUSH2 0x1887 DUP2 PUSH2 0x1D76 JUMP JUMPDEST DUP5 ADD SWAP2 POP POP SWAP3 SWAP2 POP POP JUMP JUMPDEST PUSH1 0x0 PUSH2 0x100 DUP4 ADD PUSH1 0x0 DUP4 ADD MLOAD PUSH2 0x18AB PUSH1 0x0 DUP7 ADD DUP3 PUSH2 0x1942 JUMP JUMPDEST POP PUSH1 0x20 DUP4 ADD MLOAD DUP5 DUP3 SUB PUSH1 0x20 DUP7 ADD MSTORE PUSH2 0x18C3 DUP3 DUP3 PUSH2 0x1820 JUMP JUMPDEST SWAP2 POP POP PUSH1 0x40 DUP4 ADD MLOAD PUSH2 0x18D8 PUSH1 0x40 DUP7 ADD DUP3 PUSH2 0x1942 JUMP JUMPDEST POP PUSH1 0x60 DUP4 ADD MLOAD PUSH2 0x18EB PUSH1 0x60 DUP7 ADD DUP3 PUSH2 0x178D JUMP JUMPDEST POP PUSH1 0x80 DUP4 ADD MLOAD PUSH2 0x18FE PUSH1 0x80 DUP7 ADD DUP3 PUSH2 0x178D JUMP JUMPDEST POP PUSH1 0xA0 DUP4 ADD MLOAD PUSH2 0x1911 PUSH1 0xA0 DUP7 ADD DUP3 PUSH2 0x1942 JUMP JUMPDEST POP PUSH1 0xC0 DUP4 ADD MLOAD PUSH2 0x1924 PUSH1 0xC0 DUP7 ADD DUP3 PUSH2 0x1942 JUMP JUMPDEST POP PUSH1 0xE0 DUP4 ADD MLOAD PUSH2 0x1937 PUSH1 0xE0 DUP7 ADD DUP3 PUSH2 0x1942 JUMP JUMPDEST POP DUP1 SWAP2 POP POP SWAP3 SWAP2 POP POP JUMP JUMPDEST PUSH2 0x194B DUP2 PUSH2 0x1B7F JUMP JUMPDEST DUP3 MSTORE POP POP JUMP JUMPDEST PUSH2 0x195A DUP2 PUSH2 0x1B7F JUMP JUMPDEST DUP3 MSTORE POP POP JUMP JUMPDEST PUSH1 0x0 PUSH1 0x20 DUP3 ADD SWAP1 POP DUP2 DUP2 SUB PUSH1 0x0 DUP4 ADD MSTORE PUSH2 0x197A DUP2 DUP5 PUSH2 0x17AB JUMP JUMPDEST SWAP1 POP SWAP3 SWAP2 POP POP JUMP JUMPDEST PUSH1 0x0 PUSH2 0x100 DUP3 ADD SWAP1 POP PUSH2 0x1998 PUSH1 0x0 DUP4 ADD DUP12 PUSH2 0x1951 JUMP JUMPDEST DUP2 DUP2 SUB PUSH1 0x20 DUP4 ADD MSTORE PUSH2 0x19AA DUP2 DUP11 PUSH2 0x1859 JUMP JUMPDEST SWAP1 POP PUSH2 0x19B9 PUSH1 0x40 DUP4 ADD DUP10 PUSH2 0x1951 JUMP JUMPDEST PUSH2 0x19C6 PUSH1 0x60 DUP4 ADD DUP9 PUSH2 0x179C JUMP JUMPDEST PUSH2 0x19D3 PUSH1 0x80 DUP4 ADD DUP8 PUSH2 0x179C JUMP JUMPDEST PUSH2 0x19E0 PUSH1 0xA0 DUP4 ADD DUP7 PUSH2 0x1951 JUMP JUMPDEST PUSH2 0x19ED PUSH1 0xC0 DUP4 ADD DUP6 PUSH2 0x1951 JUMP JUMPDEST PUSH2 0x19FA PUSH1 0xE0 DUP4 ADD DUP5 PUSH2 0x1951 JUMP JUMPDEST SWAP10 SWAP9 POP POP POP POP POP POP POP POP POP JUMP JUMPDEST PUSH1 0x0 PUSH2 0x1A11 PUSH2 0x1A22 JUMP JUMPDEST SWAP1 POP PUSH2 0x1A1D DUP3 DUP3 PUSH2 0x1BFD JUMP JUMPDEST SWAP2 SWAP1 POP JUMP JUMPDEST PUSH1 0x0 PUSH1 0x40 MLOAD SWAP1 POP SWAP1 JUMP JUMPDEST PUSH1 0x0 PUSH8 0xFFFFFFFFFFFFFFFF DUP3 GT ISZERO PUSH2 0x1A47 JUMPI PUSH2 0x1A46 PUSH2 0x1D33 JUMP JUMPDEST JUMPDEST PUSH2 0x1A50 DUP3 PUSH2 0x1D76 JUMP JUMPDEST SWAP1 POP PUSH1 0x20 DUP2 ADD SWAP1 POP SWAP2 SWAP1 POP JUMP JUMPDEST PUSH1 0x0 DUP2 SWAP1 POP PUSH1 0x20 DUP3 ADD SWAP1 POP SWAP2 SWAP1 POP JUMP JUMPDEST PUSH1 0x0 DUP2 MLOAD SWAP1 POP SWAP2 SWAP1 POP JUMP JUMPDEST PUSH1 0x0 DUP2 MLOAD SWAP1 POP SWAP2 SWAP1 POP JUMP JUMPDEST PUSH1 0x0 PUSH1 0x20 DUP3 ADD SWAP1 POP SWAP2 SWAP1 POP JUMP JUMPDEST PUSH1 0x0 DUP3 DUP3 MSTORE PUSH1 0x20 DUP3 ADD SWAP1 POP SWAP3 SWAP2 POP POP JUMP JUMPDEST PUSH1 0x0 DUP3 DUP3 MSTORE PUSH1 0x20 DUP3 ADD SWAP1 POP SWAP3 SWAP2 POP POP JUMP JUMPDEST PUSH1 0x0 DUP3 DUP3 MSTORE PUSH1 0x20 DUP3 ADD SWAP1 POP SWAP3 SWAP2 POP POP JUMP JUMPDEST PUSH1 0x0 PUSH2 0x1ACE DUP3 PUSH2 0x1B7F JUMP JUMPDEST SWAP2 POP PUSH2 0x1AD9 DUP4 PUSH2 0x1B7F JUMP JUMPDEST SWAP3 POP DUP3 PUSH32 0xFFFFFFFFFFFFFFFFFFFFFFFFFFFFFFFFFFFFFFFFFFFFFFFFFFFFFFFFFFFFFFFF SUB DUP3 GT ISZERO PUSH2 0x1B0E JUMPI PUSH2 0x1B0D PUSH2 0x1C77 JUMP JUMPDEST JUMPDEST DUP3 DUP3 ADD SWAP1 POP SWAP3 SWAP2 POP POP JUMP JUMPDEST PUSH1 0x0 PUSH2 0x1B24 DUP3 PUSH2 0x1B7F JUMP JUMPDEST SWAP2 POP PUSH2 0x1B2F DUP4 PUSH2 0x1B7F JUMP JUMPDEST SWAP3 POP DUP3 DUP3 LT ISZERO PUSH2 0x1B42 JUMPI PUSH2 0x1B41 PUSH2 0x1C77 JUMP JUMPDEST JUMPDEST DUP3 DUP3 SUB SWAP1 POP SWAP3 SWAP2 POP POP JUMP JUMPDEST PUSH1 0x0 PUSH2 0x1B58 DUP3 PUSH2 0x1B5F JUMP JUMPDEST SWAP1 POP SWAP2 SWAP1 POP JUMP JUMPDEST PUSH1 0x0 PUSH20 0xFFFFFFFFFFFFFFFFFFFFFFFFFFFFFFFFFFFFFFFF DUP3 AND SWAP1 POP SWAP2 SWAP1 POP JUMP JUMPDEST PUSH1 0x0 DUP2 SWAP1 POP SWAP2 SWAP1 POP JUMP JUMPDEST DUP3 DUP2 DUP4 CALLDATACOPY PUSH1 0x0 DUP4 DUP4 ADD MSTORE POP POP POP JUMP JUMPDEST PUSH1 0x0 JUMPDEST DUP4 DUP2 LT ISZERO PUSH2 0x1BB6 JUMPI DUP1 DUP3 ADD MLOAD DUP2 DUP5 ADD MSTORE PUSH1 0x20 DUP2 ADD SWAP1 POP PUSH2 0x1B9B JUMP JUMPDEST DUP4 DUP2 GT ISZERO PUSH2 0x1BC5 JUMPI PUSH1 0x0 DUP5 DUP5 ADD MSTORE JUMPDEST POP POP POP POP JUMP JUMPDEST PUSH1 0x0 PUSH1 0x2 DUP3 DIV SWAP1 POP PUSH1 0x1 DUP3 AND DUP1 PUSH2 0x1BE3 JUMPI PUSH1 0x7F DUP3 AND SWAP2 POP JUMPDEST PUSH1 0x20 DUP3 LT DUP2 EQ ISZERO PUSH2 0x1BF7 JUMPI PUSH2 0x1BF6 PUSH2 0x1CA6 JUMP JUMPDEST JUMPDEST POP SWAP2 SWAP1 POP JUMP JUMPDEST PUSH2 0x1C06 DUP3 PUSH2 0x1D76 JUMP JUMPDEST DUP2 ADD DUP2 DUP2 LT PUSH8 0xFFFFFFFFFFFFFFFF DUP3 GT OR ISZERO PUSH2 0x1C25 JUMPI PUSH2 0x1C24 PUSH2 0x1D33 JUMP JUMPDEST JUMPDEST DUP1 PUSH1 0x40 MSTORE POP POP POP JUMP JUMPDEST PUSH1 0x0 PUSH2 0x1C39 DUP3 PUSH2 0x1B7F JUMP JUMPDEST SWAP2 POP PUSH32 0xFFFFFFFFFFFFFFFFFFFFFFFFFFFFFFFFFFFFFFFFFFFFFFFFFFFFFFFFFFFFFFFF DUP3 EQ ISZERO PUSH2 0x1C6C JUMPI PUSH2 0x1C6B PUSH2 0x1C77 JUMP JUMPDEST JUMPDEST PUSH1 0x1 DUP3 ADD SWAP1 POP SWAP2 SWAP1 POP JUMP JUMPDEST PUSH32 0x4E487B7100000000000000000000000000000000000000000000000000000000 PUSH1 0x0 MSTORE PUSH1 0x11 PUSH1 0x4 MSTORE PUSH1 0x24 PUSH1 0x0 REVERT JUMPDEST PUSH32 0x4E487B7100000000000000000000000000000000000000000000000000000000 PUSH1 0x0 MSTORE PUSH1 0x22 PUSH1 0x4 MSTORE PUSH1 0x24 PUSH1 0x0 REVERT JUMPDEST PUSH32 0x4E487B7100000000000000000000000000000000000000000000000000000000 PUSH1 0x0 MSTORE PUSH1 0x31 PUSH1 0x4 MSTORE PUSH1 0x24 PUSH1 0x0 REVERT JUMPDEST PUSH32 0x4E487B7100000000000000000000000000000000000000000000000000000000 PUSH1 0x0 MSTORE PUSH1 0x32 PUSH1 0x4 MSTORE PUSH1 0x24 PUSH1 0x0 REVERT JUMPDEST PUSH32 0x4E487B7100000000000000000000000000000000000000000000000000000000 PUSH1 0x0 MSTORE PUSH1 0x41 PUSH1 0x4 MSTORE PUSH1 0x24 PUSH1 0x0 REVERT JUMPDEST PUSH1 0x0 DUP1 REVERT JUMPDEST PUSH1 0x0 DUP1 REVERT JUMPDEST PUSH1 0x0 DUP1 REVERT JUMPDEST PUSH1 0x0 DUP1 REVERT JUMPDEST PUSH1 0x0 PUSH1 0x1F NOT PUSH1 0x1F DUP4 ADD AND SWAP1 POP SWAP2 SWAP1 POP JUMP JUMPDEST PUSH2 0x1D90 DUP2 PUSH2 0x1B4D JUMP JUMPDEST DUP2 EQ PUSH2 0x1D9B JUMPI PUSH1 0x0 DUP1 REVERT JUMPDEST POP JUMP JUMPDEST PUSH2 0x1DA7 DUP2 PUSH2 0x1B7F JUMP JUMPDEST DUP2 EQ PUSH2 0x1DB2 JUMPI PUSH1 0x0 DUP1 REVERT JUMPDEST POP JUMP INVALID LOG2 PUSH5 0x6970667358 0x22 SLT KECCAK256 0xD8 0xE6 EXP 0xD0 PUSH16 0x7B73C30F2581298149D6DB6CD1387471 0x49 RETURNDATASIZE 0xEA CALLDATASIZE 0xE4 SHL 0x4F ISZERO 0xEA 0xDA SWAP8 PUSH5 0x736F6C6343 STOP ADDMOD SMOD STOP CALLER "
				},
				"gasEstimates": {
					"creation": {
						"codeDepositCost": "1531800",
						"executionCost": "1603",
						"totalCost": "1533403"
					},
					"external": {
						"createCrowdfunding(string,address,uint256)": "infinite",
						"getCrowdfundingByStatus(uint256)": "infinite",
						"getMyCrowdfunding(address)": "infinite",
						"join(uint256,string,address)": "infinite",
						"list(uint256)": "infinite",
						"setStatus(uint256)": "infinite",
						"setTitle(uint256,string)": "infinite"
					}
				},
				"methodIdentifiers": {
					"createCrowdfunding(string,address,uint256)": "ac8b1300",
					"getCrowdfundingByStatus(uint256)": "904cc175",
					"getMyCrowdfunding(address)": "377e6ff7",
					"join(uint256,string,address)": "2d01cf03",
					"list(uint256)": "80c9419e",
					"setStatus(uint256)": "69ba1a75",
					"setTitle(uint256,string)": "5102bc9d"
				}
			},
			"storageLayout": {
				"storage": [
					{
						"astId": 3,
						"contract": "crowdfunding.sol:CrowdfundingContract",
						"label": "No",
						"offset": 0,
						"slot": "0",
						"type": "t_uint256"
					},
					{
						"astId": 24,
						"contract": "crowdfunding.sol:CrowdfundingContract",
						"label": "list",
						"offset": 0,
						"slot": "1",
						"type": "t_array(t_struct(Crowdfunding)20_storage)dyn_storage"
					},
					{
						"astId": 30,
						"contract": "crowdfunding.sol:CrowdfundingContract",
						"label": "filterDataByStatus",
						"offset": 0,
						"slot": "2",
						"type": "t_mapping(t_uint256,t_array(t_struct(Crowdfunding)20_storage)dyn_storage)"
					},
					{
						"astId": 36,
						"contract": "crowdfunding.sol:CrowdfundingContract",
						"label": "myCrowdfunding",
						"offset": 0,
						"slot": "3",
						"type": "t_mapping(t_address,t_array(t_struct(Crowdfunding)20_storage)dyn_storage)"
					},
					{
						"astId": 41,
						"contract": "crowdfunding.sol:CrowdfundingContract",
						"label": "calcJoinNum",
						"offset": 0,
						"slot": "4",
						"type": "t_mapping(t_uint256,t_array(t_address)dyn_storage)"
					}
				],
				"types": {
					"t_address": {
						"encoding": "inplace",
						"label": "address",
						"numberOfBytes": "20"
					},
					"t_array(t_address)dyn_storage": {
						"base": "t_address",
						"encoding": "dynamic_array",
						"label": "address[]",
						"numberOfBytes": "32"
					},
					"t_array(t_struct(Crowdfunding)20_storage)dyn_storage": {
						"base": "t_struct(Crowdfunding)20_storage",
						"encoding": "dynamic_array",
						"label": "struct CrowdfundingContract.Crowdfunding[]",
						"numberOfBytes": "32"
					},
					"t_mapping(t_address,t_array(t_struct(Crowdfunding)20_storage)dyn_storage)": {
						"encoding": "mapping",
						"key": "t_address",
						"label": "mapping(address => struct CrowdfundingContract.Crowdfunding[])",
						"numberOfBytes": "32",
						"value": "t_array(t_struct(Crowdfunding)20_storage)dyn_storage"
					},
					"t_mapping(t_uint256,t_array(t_address)dyn_storage)": {
						"encoding": "mapping",
						"key": "t_uint256",
						"label": "mapping(uint256 => address[])",
						"numberOfBytes": "32",
						"value": "t_array(t_address)dyn_storage"
					},
					"t_mapping(t_uint256,t_array(t_struct(Crowdfunding)20_storage)dyn_storage)": {
						"encoding": "mapping",
						"key": "t_uint256",
						"label": "mapping(uint256 => struct CrowdfundingContract.Crowdfunding[])",
						"numberOfBytes": "32",
						"value": "t_array(t_struct(Crowdfunding)20_storage)dyn_storage"
					},
					"t_string_storage": {
						"encoding": "bytes",
						"label": "string",
						"numberOfBytes": "32"
					},
					"t_struct(Crowdfunding)20_storage": {
						"encoding": "inplace",
						"label": "struct CrowdfundingContract.Crowdfunding",
						"members": [
							{
								"astId": 5,
								"contract": "crowdfunding.sol:CrowdfundingContract",
								"label": "num",
								"offset": 0,
								"slot": "0",
								"type": "t_uint256"
							},
							{
								"astId": 7,
								"contract": "crowdfunding.sol:CrowdfundingContract",
								"label": "title",
								"offset": 0,
								"slot": "1",
								"type": "t_string_storage"
							},
							{
								"astId": 9,
								"contract": "crowdfunding.sol:CrowdfundingContract",
								"label": "status",
								"offset": 0,
								"slot": "2",
								"type": "t_uint256"
							},
							{
								"astId": 11,
								"contract": "crowdfunding.sol:CrowdfundingContract",
								"label": "creator",
								"offset": 0,
								"slot": "3",
								"type": "t_address"
							},
							{
								"astId": 13,
								"contract": "crowdfunding.sol:CrowdfundingContract",
								"label": "recipient",
								"offset": 0,
								"slot": "4",
								"type": "t_address"
							},
							{
								"astId": 15,
								"contract": "crowdfunding.sol:CrowdfundingContract",
								"label": "joinNum",
								"offset": 0,
								"slot": "5",
								"type": "t_uint256"
							},
							{
								"astId": 17,
								"contract": "crowdfunding.sol:CrowdfundingContract",
								"label": "expectAmout",
								"offset": 0,
								"slot": "6",
								"type": "t_uint256"
							},
							{
								"astId": 19,
								"contract": "crowdfunding.sol:CrowdfundingContract",
								"label": "actualAmount",
								"offset": 0,
								"slot": "7",
								"type": "t_uint256"
							}
						],
						"numberOfBytes": "256"
					},
					"t_uint256": {
						"encoding": "inplace",
						"label": "uint256",
						"numberOfBytes": "32"
					}
				}
			},
			"userdoc": {
				"kind": "user",
				"methods": {},
				"version": 1
			}
		}
	}
}