{
	"crowdfunding.sol": {
		"CrowdfundingContract": {
			"abi": [
				{
					"anonymous": false,
					"inputs": [
						{
							"indexed": false,
							"internalType": "address",
							"name": "msg",
							"type": "address"
						}
					],
					"name": "Log",
					"type": "event"
				},
				{
					"inputs": [
						{
							"internalType": "string",
							"name": "_title",
							"type": "string"
						},
						{
							"internalType": "address",
							"name": "_recipient",
							"type": "address"
						},
						{
							"internalType": "uint256",
							"name": "_expectAmout",
							"type": "uint256"
						}
					],
					"name": "createCrowdfunding",
					"outputs": [],
					"stateMutability": "nonpayable",
					"type": "function"
				},
				{
					"inputs": [
						{
							"internalType": "uint256",
							"name": "_status",
							"type": "uint256"
						}
					],
					"name": "getCrowdfundingByStatus",
					"outputs": [
						{
							"components": [
								{
									"internalType": "uint256",
									"name": "num",
									"type": "uint256"
								},
								{
									"internalType": "string",
									"name": "title",
									"type": "string"
								},
								{
									"internalType": "uint256",
									"name": "status",
									"type": "uint256"
								},
								{
									"internalType": "address",
									"name": "creator",
									"type": "address"
								},
								{
									"internalType": "address",
									"name": "recipient",
									"type": "address"
								},
								{
									"internalType": "uint256",
									"name": "joinNum",
									"type": "uint256"
								},
								{
									"internalType": "uint256",
									"name": "expectAmout",
									"type": "uint256"
								},
								{
									"internalType": "uint256",
									"name": "actualAmount",
									"type": "uint256"
								}
							],
							"internalType": "struct CrowdfundingContract.Crowdfunding[]",
							"name": "",
							"type": "tuple[]"
						}
					],
					"stateMutability": "view",
					"type": "function"
				},
				{
					"inputs": [
						{
							"internalType": "address",
							"name": "addr",
							"type": "address"
						}
					],
					"name": "getMyCrowdfunding",
					"outputs": [
						{
							"components": [
								{
									"internalType": "uint256",
									"name": "num",
									"type": "uint256"
								},
								{
									"internalType": "string",
									"name": "title",
									"type": "string"
								},
								{
									"internalType": "uint256",
									"name": "status",
									"type": "uint256"
								},
								{
									"internalType": "address",
									"name": "creator",
									"type": "address"
								},
								{
									"internalType": "address",
									"name": "recipient",
									"type": "address"
								},
								{
									"internalType": "uint256",
									"name": "joinNum",
									"type": "uint256"
								},
								{
									"internalType": "uint256",
									"name": "expectAmout",
									"type": "uint256"
								},
								{
									"internalType": "uint256",
									"name": "actualAmount",
									"type": "uint256"
								}
							],
							"internalType": "struct CrowdfundingContract.Crowdfunding[]",
							"name": "",
							"type": "tuple[]"
						}
					],
					"stateMutability": "view",
					"type": "function"
				},
				{
					"inputs": [
						{
							"internalType": "uint256",
							"name": "num",
							"type": "uint256"
						},
						{
							"internalType": "uint256",
							"name": "amount",
							"type": "uint256"
						},
						{
							"internalType": "address",
							"name": "addr",
							"type": "address"
						}
					],
					"name": "join",
					"outputs": [],
					"stateMutability": "nonpayable",
					"type": "function"
				},
				{
					"inputs": [
						{
							"internalType": "uint256",
							"name": "",
							"type": "uint256"
						}
					],
					"name": "list",
					"outputs": [
						{
							"internalType": "uint256",
							"name": "num",
							"type": "uint256"
						},
						{
							"internalType": "string",
							"name": "title",
							"type": "string"
						},
						{
							"internalType": "uint256",
							"name": "status",
							"type": "uint256"
						},
						{
							"internalType": "address",
							"name": "creator",
							"type": "address"
						},
						{
							"internalType": "address",
							"name": "recipient",
							"type": "address"
						},
						{
							"internalType": "uint256",
							"name": "joinNum",
							"type": "uint256"
						},
						{
							"internalType": "uint256",
							"name": "expectAmout",
							"type": "uint256"
						},
						{
							"internalType": "uint256",
							"name": "actualAmount",
							"type": "uint256"
						}
					],
					"stateMutability": "view",
					"type": "function"
				},
				{
					"inputs": [
						{
							"internalType": "uint256",
							"name": "num",
							"type": "uint256"
						}
					],
					"name": "setStatus",
					"outputs": [],
					"stateMutability": "nonpayable",
					"type": "function"
				},
				{
					"inputs": [
						{
							"internalType": "uint256",
							"name": "num",
							"type": "uint256"
						},
						{
							"internalType": "string",
							"name": "title",
							"type": "string"
						}
					],
					"name": "setTitle",
					"outputs": [],
					"stateMutability": "nonpayable",
					"type": "function"
				},
				{
					"inputs": [
						{
							"internalType": "string",
							"name": "s",
							"type": "string"
						}
					],
					"name": "stringToInt",
					"outputs": [
						{
							"internalType": "uint256",
							"name": "",
							"type": "uint256"
						}
					],
					"stateMutability": "pure",
					"type": "function"
				},
				{
					"inputs": [
						{
							"internalType": "address",
							"name": "a",
							"type": "address"
						}
					],
					"name": "test",
					"outputs": [
						{
							"internalType": "address",
							"name": "",
							"type": "address"
						},
						{
							"internalType": "address",
							"name": "",
							"type": "address"
						}
					],
					"stateMutability": "view",
					"type": "function"
				}
			],
			"devdoc": {
				"kind": "dev",
				"methods": {},
				"version": 1
			},
			"evm": {
				"assembly": "    /* \"crowdfunding.sol\":290:4461  contract CrowdfundingContract {\r... */\n  mstore(0x40, 0x80)\n  callvalue\n  dup1\n  iszero\n  tag_1\n  jumpi\n  0x00\n  dup1\n  revert\ntag_1:\n  pop\n  dataSize(sub_0)\n  dup1\n  dataOffset(sub_0)\n  0x00\n  codecopy\n  0x00\n  return\nstop\n\nsub_0: assembly {\n        /* \"crowdfunding.sol\":290:4461  contract CrowdfundingContract {\r... */\n      mstore(0x40, 0x80)\n      callvalue\n      dup1\n      iszero\n      tag_1\n      jumpi\n      0x00\n      dup1\n      revert\n    tag_1:\n      pop\n      jumpi(tag_2, lt(calldatasize, 0x04))\n      shr(0xe0, calldataload(0x00))\n      dup1\n      0x80c9419e\n      gt\n      tag_12\n      jumpi\n      dup1\n      0x80c9419e\n      eq\n      tag_7\n      jumpi\n      dup1\n      0x904cc175\n      eq\n      tag_8\n      jumpi\n      dup1\n      0xac8b1300\n      eq\n      tag_9\n      jumpi\n      dup1\n      0xbb29998e\n      eq\n      tag_10\n      jumpi\n      dup1\n      0xf8a02d84\n      eq\n      tag_11\n      jumpi\n      jump(tag_2)\n    tag_12:\n      dup1\n      0x377e6ff7\n      eq\n      tag_3\n      jumpi\n      dup1\n      0x5102bc9d\n      eq\n      tag_4\n      jumpi\n      dup1\n      0x575b70d0\n      eq\n      tag_5\n      jumpi\n      dup1\n      0x69ba1a75\n      eq\n      tag_6\n      jumpi\n    tag_2:\n      0x00\n      dup1\n      revert\n        /* \"crowdfunding.sol\":4215:4346  function getMyCrowdfunding(address addr) public view returns (Crowdfunding[] memory) {\r... */\n    tag_3:\n      tag_13\n      0x04\n      dup1\n      calldatasize\n      sub\n      dup2\n      add\n      swap1\n      tag_14\n      swap2\n      swap1\n      tag_15\n      jump\t// in\n    tag_14:\n      tag_16\n      jump\t// in\n    tag_13:\n      mload(0x40)\n      tag_17\n      swap2\n      swap1\n      tag_18\n      jump\t// in\n    tag_17:\n      mload(0x40)\n      dup1\n      swap2\n      sub\n      swap1\n      return\n        /* \"crowdfunding.sol\":2867:2966  function setTitle(uint num,string memory title) public {\r... */\n    tag_4:\n      tag_19\n      0x04\n      dup1\n      calldatasize\n      sub\n      dup2\n      add\n      swap1\n      tag_20\n      swap2\n      swap1\n      tag_21\n      jump\t// in\n    tag_20:\n      tag_22\n      jump\t// in\n    tag_19:\n      stop\n        /* \"crowdfunding.sol\":3067:3930  function join(uint num,uint amount,address addr) public {\r... */\n    tag_5:\n      tag_23\n      0x04\n      dup1\n      calldatasize\n      sub\n      dup2\n      add\n      swap1\n      tag_24\n      swap2\n      swap1\n      tag_25\n      jump\t// in\n    tag_24:\n      tag_26\n      jump\t// in\n    tag_23:\n      stop\n        /* \"crowdfunding.sol\":2192:2784  function setStatus(uint num) public {\r... */\n    tag_6:\n      tag_27\n      0x04\n      dup1\n      calldatasize\n      sub\n      dup2\n      add\n      swap1\n      tag_28\n      swap2\n      swap1\n      tag_29\n      jump\t// in\n    tag_28:\n      tag_30\n      jump\t// in\n    tag_27:\n      stop\n        /* \"crowdfunding.sol\":814:840  Crowdfunding[] public list */\n    tag_7:\n      tag_31\n      0x04\n      dup1\n      calldatasize\n      sub\n      dup2\n      add\n      swap1\n      tag_32\n      swap2\n      swap1\n      tag_29\n      jump\t// in\n    tag_32:\n      tag_33\n      jump\t// in\n    tag_31:\n      mload(0x40)\n      tag_34\n      swap9\n      swap8\n      swap7\n      swap6\n      swap5\n      swap4\n      swap3\n      swap2\n      swap1\n      tag_35\n      jump\t// in\n    tag_34:\n      mload(0x40)\n      dup1\n      swap2\n      sub\n      swap1\n      return\n        /* \"crowdfunding.sol\":3982:4165  function getCrowdfundingByStatus(uint _status) public view returns (Crowdfunding[] memory) {\r... */\n    tag_8:\n      tag_36\n      0x04\n      dup1\n      calldatasize\n      sub\n      dup2\n      add\n      swap1\n      tag_37\n      swap2\n      swap1\n      tag_29\n      jump\t// in\n    tag_37:\n      tag_38\n      jump\t// in\n    tag_36:\n      mload(0x40)\n      tag_39\n      swap2\n      swap1\n      tag_18\n      jump\t// in\n    tag_39:\n      mload(0x40)\n      dup1\n      swap2\n      sub\n      swap1\n      return\n        /* \"crowdfunding.sol\":1508:2113  function createCrowdfunding(string memory _title,address _recipient, uint _expectAmout) public {\r... */\n    tag_9:\n      tag_40\n      0x04\n      dup1\n      calldatasize\n      sub\n      dup2\n      add\n      swap1\n      tag_41\n      swap2\n      swap1\n      tag_42\n      jump\t// in\n    tag_41:\n      tag_43\n      jump\t// in\n    tag_40:\n      stop\n        /* \"crowdfunding.sol\":4354:4458  function test (address a) public view returns (address,address) {\r... */\n    tag_10:\n      tag_44\n      0x04\n      dup1\n      calldatasize\n      sub\n      dup2\n      add\n      swap1\n      tag_45\n      swap2\n      swap1\n      tag_15\n      jump\t// in\n    tag_45:\n      tag_46\n      jump\t// in\n    tag_44:\n      mload(0x40)\n      tag_47\n      swap3\n      swap2\n      swap1\n      tag_48\n      jump\t// in\n    tag_47:\n      mload(0x40)\n      dup1\n      swap2\n      sub\n      swap1\n      return\n        /* \"crowdfunding.sol\":1130:1500  function stringToInt(string memory s) public pure returns (uint){\r... */\n    tag_11:\n      tag_49\n      0x04\n      dup1\n      calldatasize\n      sub\n      dup2\n      add\n      swap1\n      tag_50\n      swap2\n      swap1\n      tag_51\n      jump\t// in\n    tag_50:\n      tag_52\n      jump\t// in\n    tag_49:\n      mload(0x40)\n      tag_53\n      swap2\n      swap1\n      tag_54\n      jump\t// in\n    tag_53:\n      mload(0x40)\n      dup1\n      swap2\n      sub\n      swap1\n      return\n        /* \"crowdfunding.sol\":4215:4346  function getMyCrowdfunding(address addr) public view returns (Crowdfunding[] memory) {\r... */\n    tag_16:\n        /* \"crowdfunding.sol\":4277:4298  Crowdfunding[] memory */\n      0x60\n        /* \"crowdfunding.sol\":4318:4332  myCrowdfunding */\n      0x03\n        /* \"crowdfunding.sol\":4318:4338  myCrowdfunding[addr] */\n      0x00\n        /* \"crowdfunding.sol\":4333:4337  addr */\n      dup4\n        /* \"crowdfunding.sol\":4318:4338  myCrowdfunding[addr] */\n      0xffffffffffffffffffffffffffffffffffffffff\n      and\n      0xffffffffffffffffffffffffffffffffffffffff\n      and\n      dup2\n      mstore\n      0x20\n      add\n      swap1\n      dup2\n      mstore\n      0x20\n      add\n      0x00\n      keccak256\n        /* \"crowdfunding.sol\":4311:4338  return myCrowdfunding[addr] */\n      dup1\n      sload\n      dup1\n      0x20\n      mul\n      0x20\n      add\n      mload(0x40)\n      swap1\n      dup2\n      add\n      0x40\n      mstore\n      dup1\n      swap3\n      swap2\n      swap1\n      dup2\n      dup2\n      mstore\n      0x20\n      add\n      0x00\n      swap1\n    tag_56:\n      dup3\n      dup3\n      lt\n      iszero\n      tag_57\n      jumpi\n      dup4\n      dup3\n      swap1\n      0x00\n      mstore\n      keccak256(0x00, 0x20)\n      swap1\n      0x08\n      mul\n      add\n      mload(0x40)\n      dup1\n      0x0100\n      add\n      0x40\n      mstore\n      swap1\n      dup2\n      0x00\n      dup3\n      add\n      sload\n      dup2\n      mstore\n      0x20\n      add\n      0x01\n      dup3\n      add\n      dup1\n      sload\n      tag_59\n      swap1\n      tag_60\n      jump\t// in\n    tag_59:\n      dup1\n      0x1f\n      add\n      0x20\n      dup1\n      swap2\n      div\n      mul\n      0x20\n      add\n      mload(0x40)\n      swap1\n      dup2\n      add\n      0x40\n      mstore\n      dup1\n      swap3\n      swap2\n      swap1\n      dup2\n      dup2\n      mstore\n      0x20\n      add\n      dup3\n      dup1\n      sload\n      tag_61\n      swap1\n      tag_60\n      jump\t// in\n    tag_61:\n      dup1\n      iszero\n      tag_62\n      jumpi\n      dup1\n      0x1f\n      lt\n      tag_63\n      jumpi\n      0x0100\n      dup1\n      dup4\n      sload\n      div\n      mul\n      dup4\n      mstore\n      swap2\n      0x20\n      add\n      swap2\n      jump(tag_62)\n    tag_63:\n      dup3\n      add\n      swap2\n      swap1\n      0x00\n      mstore\n      keccak256(0x00, 0x20)\n      swap1\n    tag_64:\n      dup2\n      sload\n      dup2\n      mstore\n      swap1\n      0x01\n      add\n      swap1\n      0x20\n      add\n      dup1\n      dup4\n      gt\n      tag_64\n      jumpi\n      dup3\n      swap1\n      sub\n      0x1f\n      and\n      dup3\n      add\n      swap2\n    tag_62:\n      pop\n      pop\n      pop\n      pop\n      pop\n      dup2\n      mstore\n      0x20\n      add\n      0x02\n      dup3\n      add\n      sload\n      dup2\n      mstore\n      0x20\n      add\n      0x03\n      dup3\n      add\n      0x00\n      swap1\n      sload\n      swap1\n      0x0100\n      exp\n      swap1\n      div\n      0xffffffffffffffffffffffffffffffffffffffff\n      and\n      0xffffffffffffffffffffffffffffffffffffffff\n      and\n      0xffffffffffffffffffffffffffffffffffffffff\n      and\n      dup2\n      mstore\n      0x20\n      add\n      0x04\n      dup3\n      add\n      0x00\n      swap1\n      sload\n      swap1\n      0x0100\n      exp\n      swap1\n      div\n      0xffffffffffffffffffffffffffffffffffffffff\n      and\n      0xffffffffffffffffffffffffffffffffffffffff\n      and\n      0xffffffffffffffffffffffffffffffffffffffff\n      and\n      dup2\n      mstore\n      0x20\n      add\n      0x05\n      dup3\n      add\n      sload\n      dup2\n      mstore\n      0x20\n      add\n      0x06\n      dup3\n      add\n      sload\n      dup2\n      mstore\n      0x20\n      add\n      0x07\n      dup3\n      add\n      sload\n      dup2\n      mstore\n      pop\n      pop\n      dup2\n      mstore\n      0x20\n      add\n      swap1\n      0x01\n      add\n      swap1\n      jump(tag_56)\n    tag_57:\n      pop\n      pop\n      pop\n      pop\n      swap1\n      pop\n        /* \"crowdfunding.sol\":4215:4346  function getMyCrowdfunding(address addr) public view returns (Crowdfunding[] memory) {\r... */\n      swap2\n      swap1\n      pop\n      jump\t// out\n        /* \"crowdfunding.sol\":2867:2966  function setTitle(uint num,string memory title) public {\r... */\n    tag_22:\n        /* \"crowdfunding.sol\":2953:2958  title */\n      dup1\n        /* \"crowdfunding.sol\":2933:2937  list */\n      0x01\n        /* \"crowdfunding.sol\":2942:2943  1 */\n      dup1\n        /* \"crowdfunding.sol\":2938:2941  num */\n      dup5\n        /* \"crowdfunding.sol\":2938:2943  num-1 */\n      tag_66\n      swap2\n      swap1\n      tag_67\n      jump\t// in\n    tag_66:\n        /* \"crowdfunding.sol\":2933:2944  list[num-1] */\n      dup2\n      sload\n      dup2\n      lt\n      tag_68\n      jumpi\n      tag_69\n      tag_70\n      jump\t// in\n    tag_69:\n    tag_68:\n      swap1\n      0x00\n      mstore\n      keccak256(0x00, 0x20)\n      swap1\n      0x08\n      mul\n      add\n        /* \"crowdfunding.sol\":2933:2950  list[num-1].title */\n      0x01\n      add\n        /* \"crowdfunding.sol\":2933:2958  list[num-1].title = title */\n      swap1\n      dup1\n      mload\n      swap1\n      0x20\n      add\n      swap1\n      tag_72\n      swap3\n      swap2\n      swap1\n      tag_73\n      jump\t// in\n    tag_72:\n      pop\n        /* \"crowdfunding.sol\":2867:2966  function setTitle(uint num,string memory title) public {\r... */\n      pop\n      pop\n      jump\t// out\n        /* \"crowdfunding.sol\":3067:3930  function join(uint num,uint amount,address addr) public {\r... */\n    tag_26:\n        /* \"crowdfunding.sol\":3134:3150  bool isFirstJoin */\n      0x00\n        /* \"crowdfunding.sol\":3202:3208  uint i */\n      dup1\n        /* \"crowdfunding.sol\":3198:3419  for(uint i = 0; i < calcJoinNum[num].length;i++) {\r... */\n    tag_75:\n        /* \"crowdfunding.sol\":3218:3229  calcJoinNum */\n      0x04\n        /* \"crowdfunding.sol\":3218:3234  calcJoinNum[num] */\n      0x00\n        /* \"crowdfunding.sol\":3230:3233  num */\n      dup7\n        /* \"crowdfunding.sol\":3218:3234  calcJoinNum[num] */\n      dup2\n      mstore\n      0x20\n      add\n      swap1\n      dup2\n      mstore\n      0x20\n      add\n      0x00\n      keccak256\n        /* \"crowdfunding.sol\":3218:3241  calcJoinNum[num].length */\n      dup1\n      sload\n      swap1\n      pop\n        /* \"crowdfunding.sol\":3214:3215  i */\n      dup2\n        /* \"crowdfunding.sol\":3214:3241  i < calcJoinNum[num].length */\n      lt\n        /* \"crowdfunding.sol\":3198:3419  for(uint i = 0; i < calcJoinNum[num].length;i++) {\r... */\n      iszero\n      tag_76\n      jumpi\n        /* \"crowdfunding.sol\":3325:3329  addr */\n      dup3\n        /* \"crowdfunding.sol\":3300:3329  calcJoinNum[num-1][i] != addr */\n      0xffffffffffffffffffffffffffffffffffffffff\n      and\n        /* \"crowdfunding.sol\":3300:3311  calcJoinNum */\n      0x04\n        /* \"crowdfunding.sol\":3300:3318  calcJoinNum[num-1] */\n      0x00\n        /* \"crowdfunding.sol\":3316:3317  1 */\n      0x01\n        /* \"crowdfunding.sol\":3312:3315  num */\n      dup9\n        /* \"crowdfunding.sol\":3312:3317  num-1 */\n      tag_78\n      swap2\n      swap1\n      tag_67\n      jump\t// in\n    tag_78:\n        /* \"crowdfunding.sol\":3300:3318  calcJoinNum[num-1] */\n      dup2\n      mstore\n      0x20\n      add\n      swap1\n      dup2\n      mstore\n      0x20\n      add\n      0x00\n      keccak256\n        /* \"crowdfunding.sol\":3319:3320  i */\n      dup3\n        /* \"crowdfunding.sol\":3300:3321  calcJoinNum[num-1][i] */\n      dup2\n      sload\n      dup2\n      lt\n      tag_79\n      jumpi\n      tag_80\n      tag_70\n      jump\t// in\n    tag_80:\n    tag_79:\n      swap1\n      0x00\n      mstore\n      keccak256(0x00, 0x20)\n      add\n      0x00\n      swap1\n      sload\n      swap1\n      0x0100\n      exp\n      swap1\n      div\n      0xffffffffffffffffffffffffffffffffffffffff\n      and\n        /* \"crowdfunding.sol\":3300:3329  calcJoinNum[num-1][i] != addr */\n      0xffffffffffffffffffffffffffffffffffffffff\n      and\n      eq\n        /* \"crowdfunding.sol\":3297:3408  if(calcJoinNum[num-1][i] != addr) {\r... */\n      tag_82\n      jumpi\n        /* \"crowdfunding.sol\":3364:3368  true */\n      0x01\n        /* \"crowdfunding.sol\":3350:3368  isFirstJoin = true */\n      swap2\n      pop\n        /* \"crowdfunding.sol\":3387:3392  break */\n      jump(tag_76)\n        /* \"crowdfunding.sol\":3297:3408  if(calcJoinNum[num-1][i] != addr) {\r... */\n    tag_82:\n        /* \"crowdfunding.sol\":3242:3245  i++ */\n      dup1\n      dup1\n      tag_83\n      swap1\n      tag_84\n      jump\t// in\n    tag_83:\n      swap2\n      pop\n      pop\n        /* \"crowdfunding.sol\":3198:3419  for(uint i = 0; i < calcJoinNum[num].length;i++) {\r... */\n      jump(tag_75)\n    tag_76:\n      pop\n        /* \"crowdfunding.sol\":3434:3445  isFirstJoin */\n      dup1\n        /* \"crowdfunding.sol\":3431:3555  if(isFirstJoin) {\r... */\n      iszero\n      tag_85\n      jumpi\n        /* \"crowdfunding.sol\":3485:3486  1 */\n      0x01\n        /* \"crowdfunding.sol\":3462:3466  list */\n      dup1\n        /* \"crowdfunding.sol\":3471:3472  1 */\n      0x01\n        /* \"crowdfunding.sol\":3467:3470  num */\n      dup7\n        /* \"crowdfunding.sol\":3467:3472  num-1 */\n      tag_86\n      swap2\n      swap1\n      tag_67\n      jump\t// in\n    tag_86:\n        /* \"crowdfunding.sol\":3462:3473  list[num-1] */\n      dup2\n      sload\n      dup2\n      lt\n      tag_87\n      jumpi\n      tag_88\n      tag_70\n      jump\t// in\n    tag_88:\n    tag_87:\n      swap1\n      0x00\n      mstore\n      keccak256(0x00, 0x20)\n      swap1\n      0x08\n      mul\n      add\n        /* \"crowdfunding.sol\":3462:3481  list[num-1].joinNum */\n      0x05\n      add\n      0x00\n        /* \"crowdfunding.sol\":3462:3486  list[num-1].joinNum += 1 */\n      dup3\n      dup3\n      sload\n      tag_90\n      swap2\n      swap1\n      tag_91\n      jump\t// in\n    tag_90:\n      swap3\n      pop\n      pop\n      dup2\n      swap1\n      sstore\n      pop\n        /* \"crowdfunding.sol\":3431:3555  if(isFirstJoin) {\r... */\n      jump(tag_92)\n    tag_85:\n        /* \"crowdfunding.sol\":3541:3543  10 */\n      0x0a\n        /* \"crowdfunding.sol\":3518:3522  list */\n      0x01\n        /* \"crowdfunding.sol\":3527:3528  1 */\n      dup1\n        /* \"crowdfunding.sol\":3523:3526  num */\n      dup7\n        /* \"crowdfunding.sol\":3523:3528  num-1 */\n      tag_93\n      swap2\n      swap1\n      tag_67\n      jump\t// in\n    tag_93:\n        /* \"crowdfunding.sol\":3518:3529  list[num-1] */\n      dup2\n      sload\n      dup2\n      lt\n      tag_94\n      jumpi\n      tag_95\n      tag_70\n      jump\t// in\n    tag_95:\n    tag_94:\n      swap1\n      0x00\n      mstore\n      keccak256(0x00, 0x20)\n      swap1\n      0x08\n      mul\n      add\n        /* \"crowdfunding.sol\":3518:3537  list[num-1].joinNum */\n      0x05\n      add\n      0x00\n        /* \"crowdfunding.sol\":3518:3543  list[num-1].joinNum += 10 */\n      dup3\n      dup3\n      sload\n      tag_97\n      swap2\n      swap1\n      tag_91\n      jump\t// in\n    tag_97:\n      swap3\n      pop\n      pop\n      dup2\n      swap1\n      sstore\n      pop\n        /* \"crowdfunding.sol\":3431:3555  if(isFirstJoin) {\r... */\n    tag_92:\n        /* \"crowdfunding.sol\":3567:3578  calcJoinNum */\n      0x04\n        /* \"crowdfunding.sol\":3567:3585  calcJoinNum[num-1] */\n      0x00\n        /* \"crowdfunding.sol\":3583:3584  1 */\n      0x01\n        /* \"crowdfunding.sol\":3579:3582  num */\n      dup7\n        /* \"crowdfunding.sol\":3579:3584  num-1 */\n      tag_98\n      swap2\n      swap1\n      tag_67\n      jump\t// in\n    tag_98:\n        /* \"crowdfunding.sol\":3567:3585  calcJoinNum[num-1] */\n      dup2\n      mstore\n      0x20\n      add\n      swap1\n      dup2\n      mstore\n      0x20\n      add\n      0x00\n      keccak256\n        /* \"crowdfunding.sol\":3591:3595  addr */\n      dup3\n        /* \"crowdfunding.sol\":3567:3596  calcJoinNum[num-1].push(addr) */\n      swap1\n      dup1\n      0x01\n      dup2\n      sload\n      add\n      dup1\n      dup3\n      sstore\n      dup1\n      swap2\n      pop\n      pop\n      0x01\n      swap1\n      sub\n      swap1\n      0x00\n      mstore\n      keccak256(0x00, 0x20)\n      add\n      0x00\n      swap1\n      swap2\n      swap1\n      swap2\n      swap1\n      swap2\n      0x0100\n      exp\n      dup2\n      sload\n      dup2\n      0xffffffffffffffffffffffffffffffffffffffff\n      mul\n      not\n      and\n      swap1\n      dup4\n      0xffffffffffffffffffffffffffffffffffffffff\n      and\n      mul\n      or\n      swap1\n      sstore\n      pop\n        /* \"crowdfunding.sol\":3696:3702  amount */\n      dup3\n        /* \"crowdfunding.sol\":3669:3673  list */\n      0x01\n        /* \"crowdfunding.sol\":3678:3679  1 */\n      dup1\n        /* \"crowdfunding.sol\":3674:3677  num */\n      dup7\n        /* \"crowdfunding.sol\":3674:3679  num-1 */\n      tag_100\n      swap2\n      swap1\n      tag_67\n      jump\t// in\n    tag_100:\n        /* \"crowdfunding.sol\":3669:3680  list[num-1] */\n      dup2\n      sload\n      dup2\n      lt\n      tag_101\n      jumpi\n      tag_102\n      tag_70\n      jump\t// in\n    tag_102:\n    tag_101:\n      swap1\n      0x00\n      mstore\n      keccak256(0x00, 0x20)\n      swap1\n      0x08\n      mul\n      add\n        /* \"crowdfunding.sol\":3669:3693  list[num-1].actualAmount */\n      0x07\n      add\n      sload\n        /* \"crowdfunding.sol\":3669:3702  list[num-1].actualAmount + amount */\n      tag_104\n      swap2\n      swap1\n      tag_91\n      jump\t// in\n    tag_104:\n        /* \"crowdfunding.sol\":3642:3646  list */\n      0x01\n        /* \"crowdfunding.sol\":3651:3652  1 */\n      dup1\n        /* \"crowdfunding.sol\":3647:3650  num */\n      dup7\n        /* \"crowdfunding.sol\":3647:3652  num-1 */\n      tag_105\n      swap2\n      swap1\n      tag_67\n      jump\t// in\n    tag_105:\n        /* \"crowdfunding.sol\":3642:3653  list[num-1] */\n      dup2\n      sload\n      dup2\n      lt\n      tag_106\n      jumpi\n      tag_107\n      tag_70\n      jump\t// in\n    tag_107:\n    tag_106:\n      swap1\n      0x00\n      mstore\n      keccak256(0x00, 0x20)\n      swap1\n      0x08\n      mul\n      add\n        /* \"crowdfunding.sol\":3642:3666  list[num-1].actualAmount */\n      0x07\n      add\n        /* \"crowdfunding.sol\":3642:3702  list[num-1].actualAmount = list[num-1].actualAmount + amount */\n      dup2\n      swap1\n      sstore\n      pop\n        /* \"crowdfunding.sol\":3744:3748  list */\n      0x01\n        /* \"crowdfunding.sol\":3753:3754  1 */\n      dup1\n        /* \"crowdfunding.sol\":3749:3752  num */\n      dup6\n        /* \"crowdfunding.sol\":3749:3754  num-1 */\n      tag_109\n      swap2\n      swap1\n      tag_67\n      jump\t// in\n    tag_109:\n        /* \"crowdfunding.sol\":3744:3755  list[num-1] */\n      dup2\n      sload\n      dup2\n      lt\n      tag_110\n      jumpi\n      tag_111\n      tag_70\n      jump\t// in\n    tag_111:\n    tag_110:\n      swap1\n      0x00\n      mstore\n      keccak256(0x00, 0x20)\n      swap1\n      0x08\n      mul\n      add\n        /* \"crowdfunding.sol\":3744:3767  list[num-1].expectAmout */\n      0x06\n      add\n      sload\n        /* \"crowdfunding.sol\":3716:3720  list */\n      0x01\n        /* \"crowdfunding.sol\":3725:3726  1 */\n      dup1\n        /* \"crowdfunding.sol\":3721:3724  num */\n      dup7\n        /* \"crowdfunding.sol\":3721:3726  num-1 */\n      tag_113\n      swap2\n      swap1\n      tag_67\n      jump\t// in\n    tag_113:\n        /* \"crowdfunding.sol\":3716:3727  list[num-1] */\n      dup2\n      sload\n      dup2\n      lt\n      tag_114\n      jumpi\n      tag_115\n      tag_70\n      jump\t// in\n    tag_115:\n    tag_114:\n      swap1\n      0x00\n      mstore\n      keccak256(0x00, 0x20)\n      swap1\n      0x08\n      mul\n      add\n        /* \"crowdfunding.sol\":3716:3740  list[num-1].actualAmount */\n      0x07\n      add\n      sload\n        /* \"crowdfunding.sol\":3716:3767  list[num-1].actualAmount >= list[num-1].expectAmout */\n      lt\n        /* \"crowdfunding.sol\":3713:3923  if(list[num-1].actualAmount >= list[num-1].expectAmout){\r... */\n      tag_117\n      jumpi\n        /* \"crowdfunding.sol\":3871:3872  2 */\n      0x02\n        /* \"crowdfunding.sol\":3850:3854  list */\n      0x01\n        /* \"crowdfunding.sol\":3859:3860  1 */\n      dup1\n        /* \"crowdfunding.sol\":3855:3858  num */\n      dup7\n        /* \"crowdfunding.sol\":3855:3860  num-1 */\n      tag_118\n      swap2\n      swap1\n      tag_67\n      jump\t// in\n    tag_118:\n        /* \"crowdfunding.sol\":3850:3861  list[num-1] */\n      dup2\n      sload\n      dup2\n      lt\n      tag_119\n      jumpi\n      tag_120\n      tag_70\n      jump\t// in\n    tag_120:\n    tag_119:\n      swap1\n      0x00\n      mstore\n      keccak256(0x00, 0x20)\n      swap1\n      0x08\n      mul\n      add\n        /* \"crowdfunding.sol\":3850:3868  list[num-1].status */\n      0x02\n      add\n        /* \"crowdfunding.sol\":3850:3872  list[num-1].status = 2 */\n      dup2\n      swap1\n      sstore\n      pop\n        /* \"crowdfunding.sol\":3713:3923  if(list[num-1].actualAmount >= list[num-1].expectAmout){\r... */\n    tag_117:\n        /* \"crowdfunding.sol\":3123:3930  {\r... */\n      pop\n        /* \"crowdfunding.sol\":3067:3930  function join(uint num,uint amount,address addr) public {\r... */\n      pop\n      pop\n      pop\n      jump\t// out\n        /* \"crowdfunding.sol\":2192:2784  function setStatus(uint num) public {\r... */\n    tag_30:\n        /* \"crowdfunding.sol\":2260:2261  3 */\n      0x03\n        /* \"crowdfunding.sol\":2239:2243  list */\n      0x01\n        /* \"crowdfunding.sol\":2248:2249  1 */\n      dup1\n        /* \"crowdfunding.sol\":2244:2247  num */\n      dup4\n        /* \"crowdfunding.sol\":2244:2249  num-1 */\n      tag_123\n      swap2\n      swap1\n      tag_67\n      jump\t// in\n    tag_123:\n        /* \"crowdfunding.sol\":2239:2250  list[num-1] */\n      dup2\n      sload\n      dup2\n      lt\n      tag_124\n      jumpi\n      tag_125\n      tag_70\n      jump\t// in\n    tag_125:\n    tag_124:\n      swap1\n      0x00\n      mstore\n      keccak256(0x00, 0x20)\n      swap1\n      0x08\n      mul\n      add\n        /* \"crowdfunding.sol\":2239:2257  list[num-1].status */\n      0x02\n      add\n        /* \"crowdfunding.sol\":2239:2261  list[num-1].status = 3 */\n      dup2\n      swap1\n      sstore\n      pop\n        /* \"crowdfunding.sol\":2370:2371  1 */\n      0x01\n        /* \"crowdfunding.sol\":2338:2356  filterDataByStatus */\n      0x02\n        /* \"crowdfunding.sol\":2338:2359  filterDataByStatus[1] */\n      0x00\n        /* \"crowdfunding.sol\":2357:2358  1 */\n      0x01\n        /* \"crowdfunding.sol\":2338:2359  filterDataByStatus[1] */\n      dup2\n      mstore\n      0x20\n      add\n      swap1\n      dup2\n      mstore\n      0x20\n      add\n      0x00\n      keccak256\n        /* \"crowdfunding.sol\":2338:2366  filterDataByStatus[1].length */\n      dup1\n      sload\n      swap1\n      pop\n        /* \"crowdfunding.sol\":2338:2371  filterDataByStatus[1].length == 1 */\n      eq\n        /* \"crowdfunding.sol\":2335:2727  if(filterDataByStatus[1].length == 1){\r... */\n      iszero\n      tag_127\n      jumpi\n        /* \"crowdfunding.sol\":2387:2405  filterDataByStatus */\n      0x02\n        /* \"crowdfunding.sol\":2387:2408  filterDataByStatus[1] */\n      0x00\n        /* \"crowdfunding.sol\":2406:2407  1 */\n      0x01\n        /* \"crowdfunding.sol\":2387:2408  filterDataByStatus[1] */\n      dup2\n      mstore\n      0x20\n      add\n      swap1\n      dup2\n      mstore\n      0x20\n      add\n      0x00\n      keccak256\n        /* \"crowdfunding.sol\":2387:2414  filterDataByStatus[1].pop() */\n      dup1\n      sload\n      dup1\n      tag_128\n      jumpi\n      tag_129\n      tag_130\n      jump\t// in\n    tag_129:\n    tag_128:\n      0x01\n      swap1\n      sub\n      dup2\n      dup2\n      swap1\n      0x00\n      mstore\n      keccak256(0x00, 0x20)\n      swap1\n      0x08\n      mul\n      add\n      0x00\n      dup1\n      dup3\n      add\n      0x00\n      swap1\n      sstore\n      0x01\n      dup3\n      add\n      0x00\n      tag_132\n      swap2\n      swap1\n      tag_133\n      jump\t// in\n    tag_132:\n      0x02\n      dup3\n      add\n      0x00\n      swap1\n      sstore\n      0x03\n      dup3\n      add\n      exp(0x0100, 0x00)\n      dup2\n      sload\n      swap1\n      0xffffffffffffffffffffffffffffffffffffffff\n      mul\n      not\n      and\n      swap1\n      sstore\n      0x04\n      dup3\n      add\n      exp(0x0100, 0x00)\n      dup2\n      sload\n      swap1\n      0xffffffffffffffffffffffffffffffffffffffff\n      mul\n      not\n      and\n      swap1\n      sstore\n      0x05\n      dup3\n      add\n      0x00\n      swap1\n      sstore\n      0x06\n      dup3\n      add\n      0x00\n      swap1\n      sstore\n      0x07\n      dup3\n      add\n      0x00\n      swap1\n      sstore\n      pop\n      pop\n      swap1\n      sstore\n        /* \"crowdfunding.sol\":2335:2727  if(filterDataByStatus[1].length == 1){\r... */\n      jump(tag_134)\n    tag_127:\n        /* \"crowdfunding.sol\":2449:2455  uint i */\n      0x00\n        /* \"crowdfunding.sol\":2445:2674  for(uint i = 0; i < filterDataByStatus[1].length - 1; i++) {\r... */\n    tag_135:\n        /* \"crowdfunding.sol\":2496:2497  1 */\n      0x01\n        /* \"crowdfunding.sol\":2465:2483  filterDataByStatus */\n      0x02\n        /* \"crowdfunding.sol\":2465:2486  filterDataByStatus[1] */\n      0x00\n        /* \"crowdfunding.sol\":2484:2485  1 */\n      0x01\n        /* \"crowdfunding.sol\":2465:2486  filterDataByStatus[1] */\n      dup2\n      mstore\n      0x20\n      add\n      swap1\n      dup2\n      mstore\n      0x20\n      add\n      0x00\n      keccak256\n        /* \"crowdfunding.sol\":2465:2493  filterDataByStatus[1].length */\n      dup1\n      sload\n      swap1\n      pop\n        /* \"crowdfunding.sol\":2465:2497  filterDataByStatus[1].length - 1 */\n      tag_138\n      swap2\n      swap1\n      tag_67\n      jump\t// in\n    tag_138:\n        /* \"crowdfunding.sol\":2461:2462  i */\n      dup2\n        /* \"crowdfunding.sol\":2461:2497  i < filterDataByStatus[1].length - 1 */\n      lt\n        /* \"crowdfunding.sol\":2445:2674  for(uint i = 0; i < filterDataByStatus[1].length - 1; i++) {\r... */\n      iszero\n      tag_136\n      jumpi\n        /* \"crowdfunding.sol\":2558:2561  num */\n      dup2\n        /* \"crowdfunding.sol\":2526:2544  filterDataByStatus */\n      0x02\n        /* \"crowdfunding.sol\":2526:2547  filterDataByStatus[1] */\n      0x00\n        /* \"crowdfunding.sol\":2545:2546  1 */\n      0x01\n        /* \"crowdfunding.sol\":2526:2547  filterDataByStatus[1] */\n      dup2\n      mstore\n      0x20\n      add\n      swap1\n      dup2\n      mstore\n      0x20\n      add\n      0x00\n      keccak256\n        /* \"crowdfunding.sol\":2548:2549  i */\n      dup3\n        /* \"crowdfunding.sol\":2526:2550  filterDataByStatus[1][i] */\n      dup2\n      sload\n      dup2\n      lt\n      tag_139\n      jumpi\n      tag_140\n      tag_70\n      jump\t// in\n    tag_140:\n    tag_139:\n      swap1\n      0x00\n      mstore\n      keccak256(0x00, 0x20)\n      swap1\n      0x08\n      mul\n      add\n        /* \"crowdfunding.sol\":2526:2554  filterDataByStatus[1][i].num */\n      0x00\n      add\n      sload\n        /* \"crowdfunding.sol\":2526:2561  filterDataByStatus[1][i].num == num */\n      eq\n        /* \"crowdfunding.sol\":2523:2659  if(filterDataByStatus[1][i].num == num) {\r... */\n      iszero\n      tag_142\n      jumpi\n        /* \"crowdfunding.sol\":2613:2631  filterDataByStatus */\n      0x02\n        /* \"crowdfunding.sol\":2613:2634  filterDataByStatus[1] */\n      0x00\n        /* \"crowdfunding.sol\":2632:2633  1 */\n      0x01\n        /* \"crowdfunding.sol\":2613:2634  filterDataByStatus[1] */\n      dup2\n      mstore\n      0x20\n      add\n      swap1\n      dup2\n      mstore\n      0x20\n      add\n      0x00\n      keccak256\n        /* \"crowdfunding.sol\":2637:2638  1 */\n      0x01\n        /* \"crowdfunding.sol\":2635:2636  i */\n      dup3\n        /* \"crowdfunding.sol\":2635:2638  i+1 */\n      tag_143\n      swap2\n      swap1\n      tag_91\n      jump\t// in\n    tag_143:\n        /* \"crowdfunding.sol\":2613:2639  filterDataByStatus[1][i+1] */\n      dup2\n      sload\n      dup2\n      lt\n      tag_144\n      jumpi\n      tag_145\n      tag_70\n      jump\t// in\n    tag_145:\n    tag_144:\n      swap1\n      0x00\n      mstore\n      keccak256(0x00, 0x20)\n      swap1\n      0x08\n      mul\n      add\n        /* \"crowdfunding.sol\":2586:2604  filterDataByStatus */\n      0x02\n        /* \"crowdfunding.sol\":2586:2607  filterDataByStatus[1] */\n      0x00\n        /* \"crowdfunding.sol\":2605:2606  1 */\n      0x01\n        /* \"crowdfunding.sol\":2586:2607  filterDataByStatus[1] */\n      dup2\n      mstore\n      0x20\n      add\n      swap1\n      dup2\n      mstore\n      0x20\n      add\n      0x00\n      keccak256\n        /* \"crowdfunding.sol\":2608:2609  i */\n      dup3\n        /* \"crowdfunding.sol\":2586:2610  filterDataByStatus[1][i] */\n      dup2\n      sload\n      dup2\n      lt\n      tag_147\n      jumpi\n      tag_148\n      tag_70\n      jump\t// in\n    tag_148:\n    tag_147:\n      swap1\n      0x00\n      mstore\n      keccak256(0x00, 0x20)\n      swap1\n      0x08\n      mul\n      add\n        /* \"crowdfunding.sol\":2586:2639  filterDataByStatus[1][i] = filterDataByStatus[1][i+1] */\n      0x00\n      dup3\n      add\n      sload\n      dup2\n      0x00\n      add\n      sstore\n      0x01\n      dup3\n      add\n      dup2\n      0x01\n      add\n      swap1\n      dup1\n      sload\n      tag_150\n      swap1\n      tag_60\n      jump\t// in\n    tag_150:\n      tag_151\n      swap3\n      swap2\n      swap1\n      tag_152\n      jump\t// in\n    tag_151:\n      pop\n      0x02\n      dup3\n      add\n      sload\n      dup2\n      0x02\n      add\n      sstore\n      0x03\n      dup3\n      add\n      0x00\n      swap1\n      sload\n      swap1\n      0x0100\n      exp\n      swap1\n      div\n      0xffffffffffffffffffffffffffffffffffffffff\n      and\n      dup2\n      0x03\n      add\n      exp(0x0100, 0x00)\n      dup2\n      sload\n      dup2\n      0xffffffffffffffffffffffffffffffffffffffff\n      mul\n      not\n      and\n      swap1\n      dup4\n      0xffffffffffffffffffffffffffffffffffffffff\n      and\n      mul\n      or\n      swap1\n      sstore\n      pop\n      0x04\n      dup3\n      add\n      0x00\n      swap1\n      sload\n      swap1\n      0x0100\n      exp\n      swap1\n      div\n      0xffffffffffffffffffffffffffffffffffffffff\n      and\n      dup2\n      0x04\n      add\n      exp(0x0100, 0x00)\n      dup2\n      sload\n      dup2\n      0xffffffffffffffffffffffffffffffffffffffff\n      mul\n      not\n      and\n      swap1\n      dup4\n      0xffffffffffffffffffffffffffffffffffffffff\n      and\n      mul\n      or\n      swap1\n      sstore\n      pop\n      0x05\n      dup3\n      add\n      sload\n      dup2\n      0x05\n      add\n      sstore\n      0x06\n      dup3\n      add\n      sload\n      dup2\n      0x06\n      add\n      sstore\n      0x07\n      dup3\n      add\n      sload\n      dup2\n      0x07\n      add\n      sstore\n      swap1\n      pop\n      pop\n        /* \"crowdfunding.sol\":2523:2659  if(filterDataByStatus[1][i].num == num) {\r... */\n    tag_142:\n        /* \"crowdfunding.sol\":2499:2502  i++ */\n      dup1\n      dup1\n      tag_153\n      swap1\n      tag_84\n      jump\t// in\n    tag_153:\n      swap2\n      pop\n      pop\n        /* \"crowdfunding.sol\":2445:2674  for(uint i = 0; i < filterDataByStatus[1].length - 1; i++) {\r... */\n      jump(tag_135)\n    tag_136:\n      pop\n        /* \"crowdfunding.sol\":2688:2706  filterDataByStatus */\n      0x02\n        /* \"crowdfunding.sol\":2688:2709  filterDataByStatus[1] */\n      0x00\n        /* \"crowdfunding.sol\":2707:2708  1 */\n      0x01\n        /* \"crowdfunding.sol\":2688:2709  filterDataByStatus[1] */\n      dup2\n      mstore\n      0x20\n      add\n      swap1\n      dup2\n      mstore\n      0x20\n      add\n      0x00\n      keccak256\n        /* \"crowdfunding.sol\":2688:2715  filterDataByStatus[1].pop() */\n      dup1\n      sload\n      dup1\n      tag_154\n      jumpi\n      tag_155\n      tag_130\n      jump\t// in\n    tag_155:\n    tag_154:\n      0x01\n      swap1\n      sub\n      dup2\n      dup2\n      swap1\n      0x00\n      mstore\n      keccak256(0x00, 0x20)\n      swap1\n      0x08\n      mul\n      add\n      0x00\n      dup1\n      dup3\n      add\n      0x00\n      swap1\n      sstore\n      0x01\n      dup3\n      add\n      0x00\n      tag_157\n      swap2\n      swap1\n      tag_133\n      jump\t// in\n    tag_157:\n      0x02\n      dup3\n      add\n      0x00\n      swap1\n      sstore\n      0x03\n      dup3\n      add\n      exp(0x0100, 0x00)\n      dup2\n      sload\n      swap1\n      0xffffffffffffffffffffffffffffffffffffffff\n      mul\n      not\n      and\n      swap1\n      sstore\n      0x04\n      dup3\n      add\n      exp(0x0100, 0x00)\n      dup2\n      sload\n      swap1\n      0xffffffffffffffffffffffffffffffffffffffff\n      mul\n      not\n      and\n      swap1\n      sstore\n      0x05\n      dup3\n      add\n      0x00\n      swap1\n      sstore\n      0x06\n      dup3\n      add\n      0x00\n      swap1\n      sstore\n      0x07\n      dup3\n      add\n      0x00\n      swap1\n      sstore\n      pop\n      pop\n      swap1\n      sstore\n        /* \"crowdfunding.sol\":2335:2727  if(filterDataByStatus[1].length == 1){\r... */\n    tag_134:\n        /* \"crowdfunding.sol\":2737:2755  filterDataByStatus */\n      0x02\n        /* \"crowdfunding.sol\":2737:2758  filterDataByStatus[3] */\n      0x00\n        /* \"crowdfunding.sol\":2756:2757  3 */\n      0x03\n        /* \"crowdfunding.sol\":2737:2758  filterDataByStatus[3] */\n      dup2\n      mstore\n      0x20\n      add\n      swap1\n      dup2\n      mstore\n      0x20\n      add\n      0x00\n      keccak256\n        /* \"crowdfunding.sol\":2764:2768  list */\n      0x01\n        /* \"crowdfunding.sol\":2773:2774  1 */\n      dup1\n        /* \"crowdfunding.sol\":2769:2772  num */\n      dup4\n        /* \"crowdfunding.sol\":2769:2774  num-1 */\n      tag_158\n      swap2\n      swap1\n      tag_67\n      jump\t// in\n    tag_158:\n        /* \"crowdfunding.sol\":2764:2775  list[num-1] */\n      dup2\n      sload\n      dup2\n      lt\n      tag_159\n      jumpi\n      tag_160\n      tag_70\n      jump\t// in\n    tag_160:\n    tag_159:\n      swap1\n      0x00\n      mstore\n      keccak256(0x00, 0x20)\n      swap1\n      0x08\n      mul\n      add\n        /* \"crowdfunding.sol\":2737:2776  filterDataByStatus[3].push(list[num-1]) */\n      swap1\n      dup1\n      0x01\n      dup2\n      sload\n      add\n      dup1\n      dup3\n      sstore\n      dup1\n      swap2\n      pop\n      pop\n      0x01\n      swap1\n      sub\n      swap1\n      0x00\n      mstore\n      keccak256(0x00, 0x20)\n      swap1\n      0x08\n      mul\n      add\n      0x00\n      swap1\n      swap2\n      swap1\n      swap2\n      swap1\n      swap2\n      pop\n      0x00\n      dup3\n      add\n      sload\n      dup2\n      0x00\n      add\n      sstore\n      0x01\n      dup3\n      add\n      dup2\n      0x01\n      add\n      swap1\n      dup1\n      sload\n      tag_163\n      swap1\n      tag_60\n      jump\t// in\n    tag_163:\n      tag_164\n      swap3\n      swap2\n      swap1\n      tag_152\n      jump\t// in\n    tag_164:\n      pop\n      0x02\n      dup3\n      add\n      sload\n      dup2\n      0x02\n      add\n      sstore\n      0x03\n      dup3\n      add\n      0x00\n      swap1\n      sload\n      swap1\n      0x0100\n      exp\n      swap1\n      div\n      0xffffffffffffffffffffffffffffffffffffffff\n      and\n      dup2\n      0x03\n      add\n      exp(0x0100, 0x00)\n      dup2\n      sload\n      dup2\n      0xffffffffffffffffffffffffffffffffffffffff\n      mul\n      not\n      and\n      swap1\n      dup4\n      0xffffffffffffffffffffffffffffffffffffffff\n      and\n      mul\n      or\n      swap1\n      sstore\n      pop\n      0x04\n      dup3\n      add\n      0x00\n      swap1\n      sload\n      swap1\n      0x0100\n      exp\n      swap1\n      div\n      0xffffffffffffffffffffffffffffffffffffffff\n      and\n      dup2\n      0x04\n      add\n      exp(0x0100, 0x00)\n      dup2\n      sload\n      dup2\n      0xffffffffffffffffffffffffffffffffffffffff\n      mul\n      not\n      and\n      swap1\n      dup4\n      0xffffffffffffffffffffffffffffffffffffffff\n      and\n      mul\n      or\n      swap1\n      sstore\n      pop\n      0x05\n      dup3\n      add\n      sload\n      dup2\n      0x05\n      add\n      sstore\n      0x06\n      dup3\n      add\n      sload\n      dup2\n      0x06\n      add\n      sstore\n      0x07\n      dup3\n      add\n      sload\n      dup2\n      0x07\n      add\n      sstore\n      pop\n      pop\n        /* \"crowdfunding.sol\":2192:2784  function setStatus(uint num) public {\r... */\n      pop\n      jump\t// out\n        /* \"crowdfunding.sol\":814:840  Crowdfunding[] public list */\n    tag_33:\n      0x01\n      dup2\n      dup2\n      sload\n      dup2\n      lt\n      tag_165\n      jumpi\n      0x00\n      dup1\n      revert\n    tag_165:\n      swap1\n      0x00\n      mstore\n      keccak256(0x00, 0x20)\n      swap1\n      0x08\n      mul\n      add\n      0x00\n      swap2\n      pop\n      swap1\n      pop\n      dup1\n      0x00\n      add\n      sload\n      swap1\n      dup1\n      0x01\n      add\n      dup1\n      sload\n      tag_167\n      swap1\n      tag_60\n      jump\t// in\n    tag_167:\n      dup1\n      0x1f\n      add\n      0x20\n      dup1\n      swap2\n      div\n      mul\n      0x20\n      add\n      mload(0x40)\n      swap1\n      dup2\n      add\n      0x40\n      mstore\n      dup1\n      swap3\n      swap2\n      swap1\n      dup2\n      dup2\n      mstore\n      0x20\n      add\n      dup3\n      dup1\n      sload\n      tag_168\n      swap1\n      tag_60\n      jump\t// in\n    tag_168:\n      dup1\n      iszero\n      tag_169\n      jumpi\n      dup1\n      0x1f\n      lt\n      tag_170\n      jumpi\n      0x0100\n      dup1\n      dup4\n      sload\n      div\n      mul\n      dup4\n      mstore\n      swap2\n      0x20\n      add\n      swap2\n      jump(tag_169)\n    tag_170:\n      dup3\n      add\n      swap2\n      swap1\n      0x00\n      mstore\n      keccak256(0x00, 0x20)\n      swap1\n    tag_171:\n      dup2\n      sload\n      dup2\n      mstore\n      swap1\n      0x01\n      add\n      swap1\n      0x20\n      add\n      dup1\n      dup4\n      gt\n      tag_171\n      jumpi\n      dup3\n      swap1\n      sub\n      0x1f\n      and\n      dup3\n      add\n      swap2\n    tag_169:\n      pop\n      pop\n      pop\n      pop\n      pop\n      swap1\n      dup1\n      0x02\n      add\n      sload\n      swap1\n      dup1\n      0x03\n      add\n      0x00\n      swap1\n      sload\n      swap1\n      0x0100\n      exp\n      swap1\n      div\n      0xffffffffffffffffffffffffffffffffffffffff\n      and\n      swap1\n      dup1\n      0x04\n      add\n      0x00\n      swap1\n      sload\n      swap1\n      0x0100\n      exp\n      swap1\n      div\n      0xffffffffffffffffffffffffffffffffffffffff\n      and\n      swap1\n      dup1\n      0x05\n      add\n      sload\n      swap1\n      dup1\n      0x06\n      add\n      sload\n      swap1\n      dup1\n      0x07\n      add\n      sload\n      swap1\n      pop\n      dup9\n      jump\t// out\n        /* \"crowdfunding.sol\":3982:4165  function getCrowdfundingByStatus(uint _status) public view returns (Crowdfunding[] memory) {\r... */\n    tag_38:\n        /* \"crowdfunding.sol\":4050:4071  Crowdfunding[] memory */\n      0x60\n        /* \"crowdfunding.sol\":4098:4099  0 */\n      0x00\n        /* \"crowdfunding.sol\":4087:4094  _status */\n      dup3\n        /* \"crowdfunding.sol\":4087:4099  _status == 0 */\n      eq\n        /* \"crowdfunding.sol\":4084:4112  if(_status == 0) return list */\n      iszero\n      tag_173\n      jumpi\n        /* \"crowdfunding.sol\":4108:4112  list */\n      0x01\n        /* \"crowdfunding.sol\":4101:4112  return list */\n      dup1\n      sload\n      dup1\n      0x20\n      mul\n      0x20\n      add\n      mload(0x40)\n      swap1\n      dup2\n      add\n      0x40\n      mstore\n      dup1\n      swap3\n      swap2\n      swap1\n      dup2\n      dup2\n      mstore\n      0x20\n      add\n      0x00\n      swap1\n    tag_174:\n      dup3\n      dup3\n      lt\n      iszero\n      tag_175\n      jumpi\n      dup4\n      dup3\n      swap1\n      0x00\n      mstore\n      keccak256(0x00, 0x20)\n      swap1\n      0x08\n      mul\n      add\n      mload(0x40)\n      dup1\n      0x0100\n      add\n      0x40\n      mstore\n      swap1\n      dup2\n      0x00\n      dup3\n      add\n      sload\n      dup2\n      mstore\n      0x20\n      add\n      0x01\n      dup3\n      add\n      dup1\n      sload\n      tag_177\n      swap1\n      tag_60\n      jump\t// in\n    tag_177:\n      dup1\n      0x1f\n      add\n      0x20\n      dup1\n      swap2\n      div\n      mul\n      0x20\n      add\n      mload(0x40)\n      swap1\n      dup2\n      add\n      0x40\n      mstore\n      dup1\n      swap3\n      swap2\n      swap1\n      dup2\n      dup2\n      mstore\n      0x20\n      add\n      dup3\n      dup1\n      sload\n      tag_178\n      swap1\n      tag_60\n      jump\t// in\n    tag_178:\n      dup1\n      iszero\n      tag_179\n      jumpi\n      dup1\n      0x1f\n      lt\n      tag_180\n      jumpi\n      0x0100\n      dup1\n      dup4\n      sload\n      div\n      mul\n      dup4\n      mstore\n      swap2\n      0x20\n      add\n      swap2\n      jump(tag_179)\n    tag_180:\n      dup3\n      add\n      swap2\n      swap1\n      0x00\n      mstore\n      keccak256(0x00, 0x20)\n      swap1\n    tag_181:\n      dup2\n      sload\n      dup2\n      mstore\n      swap1\n      0x01\n      add\n      swap1\n      0x20\n      add\n      dup1\n      dup4\n      gt\n      tag_181\n      jumpi\n      dup3\n      swap1\n      sub\n      0x1f\n      and\n      dup3\n      add\n      swap2\n    tag_179:\n      pop\n      pop\n      pop\n      pop\n      pop\n      dup2\n      mstore\n      0x20\n      add\n      0x02\n      dup3\n      add\n      sload\n      dup2\n      mstore\n      0x20\n      add\n      0x03\n      dup3\n      add\n      0x00\n      swap1\n      sload\n      swap1\n      0x0100\n      exp\n      swap1\n      div\n      0xffffffffffffffffffffffffffffffffffffffff\n      and\n      0xffffffffffffffffffffffffffffffffffffffff\n      and\n      0xffffffffffffffffffffffffffffffffffffffff\n      and\n      dup2\n      mstore\n      0x20\n      add\n      0x04\n      dup3\n      add\n      0x00\n      swap1\n      sload\n      swap1\n      0x0100\n      exp\n      swap1\n      div\n      0xffffffffffffffffffffffffffffffffffffffff\n      and\n      0xffffffffffffffffffffffffffffffffffffffff\n      and\n      0xffffffffffffffffffffffffffffffffffffffff\n      and\n      dup2\n      mstore\n      0x20\n      add\n      0x05\n      dup3\n      add\n      sload\n      dup2\n      mstore\n      0x20\n      add\n      0x06\n      dup3\n      add\n      sload\n      dup2\n      mstore\n      0x20\n      add\n      0x07\n      dup3\n      add\n      sload\n      dup2\n      mstore\n      pop\n      pop\n      dup2\n      mstore\n      0x20\n      add\n      swap1\n      0x01\n      add\n      swap1\n      jump(tag_174)\n    tag_175:\n      pop\n      pop\n      pop\n      pop\n      swap1\n      pop\n      jump(tag_172)\n        /* \"crowdfunding.sol\":4084:4112  if(_status == 0) return list */\n    tag_173:\n        /* \"crowdfunding.sol\":4130:4148  filterDataByStatus */\n      0x02\n        /* \"crowdfunding.sol\":4130:4157  filterDataByStatus[_status] */\n      0x00\n        /* \"crowdfunding.sol\":4149:4156  _status */\n      dup4\n        /* \"crowdfunding.sol\":4130:4157  filterDataByStatus[_status] */\n      dup2\n      mstore\n      0x20\n      add\n      swap1\n      dup2\n      mstore\n      0x20\n      add\n      0x00\n      keccak256\n        /* \"crowdfunding.sol\":4123:4157  return filterDataByStatus[_status] */\n      dup1\n      sload\n      dup1\n      0x20\n      mul\n      0x20\n      add\n      mload(0x40)\n      swap1\n      dup2\n      add\n      0x40\n      mstore\n      dup1\n      swap3\n      swap2\n      swap1\n      dup2\n      dup2\n      mstore\n      0x20\n      add\n      0x00\n      swap1\n    tag_182:\n      dup3\n      dup3\n      lt\n      iszero\n      tag_183\n      jumpi\n      dup4\n      dup3\n      swap1\n      0x00\n      mstore\n      keccak256(0x00, 0x20)\n      swap1\n      0x08\n      mul\n      add\n      mload(0x40)\n      dup1\n      0x0100\n      add\n      0x40\n      mstore\n      swap1\n      dup2\n      0x00\n      dup3\n      add\n      sload\n      dup2\n      mstore\n      0x20\n      add\n      0x01\n      dup3\n      add\n      dup1\n      sload\n      tag_185\n      swap1\n      tag_60\n      jump\t// in\n    tag_185:\n      dup1\n      0x1f\n      add\n      0x20\n      dup1\n      swap2\n      div\n      mul\n      0x20\n      add\n      mload(0x40)\n      swap1\n      dup2\n      add\n      0x40\n      mstore\n      dup1\n      swap3\n      swap2\n      swap1\n      dup2\n      dup2\n      mstore\n      0x20\n      add\n      dup3\n      dup1\n      sload\n      tag_186\n      swap1\n      tag_60\n      jump\t// in\n    tag_186:\n      dup1\n      iszero\n      tag_187\n      jumpi\n      dup1\n      0x1f\n      lt\n      tag_188\n      jumpi\n      0x0100\n      dup1\n      dup4\n      sload\n      div\n      mul\n      dup4\n      mstore\n      swap2\n      0x20\n      add\n      swap2\n      jump(tag_187)\n    tag_188:\n      dup3\n      add\n      swap2\n      swap1\n      0x00\n      mstore\n      keccak256(0x00, 0x20)\n      swap1\n    tag_189:\n      dup2\n      sload\n      dup2\n      mstore\n      swap1\n      0x01\n      add\n      swap1\n      0x20\n      add\n      dup1\n      dup4\n      gt\n      tag_189\n      jumpi\n      dup3\n      swap1\n      sub\n      0x1f\n      and\n      dup3\n      add\n      swap2\n    tag_187:\n      pop\n      pop\n      pop\n      pop\n      pop\n      dup2\n      mstore\n      0x20\n      add\n      0x02\n      dup3\n      add\n      sload\n      dup2\n      mstore\n      0x20\n      add\n      0x03\n      dup3\n      add\n      0x00\n      swap1\n      sload\n      swap1\n      0x0100\n      exp\n      swap1\n      div\n      0xffffffffffffffffffffffffffffffffffffffff\n      and\n      0xffffffffffffffffffffffffffffffffffffffff\n      and\n      0xffffffffffffffffffffffffffffffffffffffff\n      and\n      dup2\n      mstore\n      0x20\n      add\n      0x04\n      dup3\n      add\n      0x00\n      swap1\n      sload\n      swap1\n      0x0100\n      exp\n      swap1\n      div\n      0xffffffffffffffffffffffffffffffffffffffff\n      and\n      0xffffffffffffffffffffffffffffffffffffffff\n      and\n      0xffffffffffffffffffffffffffffffffffffffff\n      and\n      dup2\n      mstore\n      0x20\n      add\n      0x05\n      dup3\n      add\n      sload\n      dup2\n      mstore\n      0x20\n      add\n      0x06\n      dup3\n      add\n      sload\n      dup2\n      mstore\n      0x20\n      add\n      0x07\n      dup3\n      add\n      sload\n      dup2\n      mstore\n      pop\n      pop\n      dup2\n      mstore\n      0x20\n      add\n      swap1\n      0x01\n      add\n      swap1\n      jump(tag_182)\n    tag_183:\n      pop\n      pop\n      pop\n      pop\n      swap1\n      pop\n        /* \"crowdfunding.sol\":3982:4165  function getCrowdfundingByStatus(uint _status) public view returns (Crowdfunding[] memory) {\r... */\n    tag_172:\n      swap2\n      swap1\n      pop\n      jump\t// out\n        /* \"crowdfunding.sol\":1508:2113  function createCrowdfunding(string memory _title,address _recipient, uint _expectAmout) public {\r... */\n    tag_43:\n        /* \"crowdfunding.sol\":1614:1616  No */\n      0x00\n      dup1\n        /* \"crowdfunding.sol\":1614:1618  No++ */\n      dup2\n      sload\n      dup1\n      swap3\n      swap2\n      swap1\n      tag_191\n      swap1\n      tag_84\n      jump\t// in\n    tag_191:\n      swap2\n      swap1\n      pop\n      sstore\n      pop\n        /* \"crowdfunding.sol\":1629:1650  Crowdfunding memory c */\n      0x00\n        /* \"crowdfunding.sol\":1653:1923  Crowdfunding({\r... */\n      mload(0x40)\n      dup1\n      0x0100\n      add\n      0x40\n      mstore\n      dup1\n        /* \"crowdfunding.sol\":1686:1688  No */\n      sload(0x00)\n        /* \"crowdfunding.sol\":1653:1923  Crowdfunding({\r... */\n      dup2\n      mstore\n      0x20\n      add\n        /* \"crowdfunding.sol\":1709:1715  _title */\n      dup6\n        /* \"crowdfunding.sol\":1653:1923  Crowdfunding({\r... */\n      dup2\n      mstore\n      0x20\n      add\n        /* \"crowdfunding.sol\":1738:1739  1 */\n      0x01\n        /* \"crowdfunding.sol\":1653:1923  Crowdfunding({\r... */\n      dup2\n      mstore\n      0x20\n      add\n        /* \"crowdfunding.sol\":1763:1773  msg.sender */\n      caller\n        /* \"crowdfunding.sol\":1653:1923  Crowdfunding({\r... */\n      0xffffffffffffffffffffffffffffffffffffffff\n      and\n      dup2\n      mstore\n      0x20\n      add\n        /* \"crowdfunding.sol\":1799:1809  _recipient */\n      dup5\n        /* \"crowdfunding.sol\":1653:1923  Crowdfunding({\r... */\n      0xffffffffffffffffffffffffffffffffffffffff\n      and\n      dup2\n      mstore\n      0x20\n      add\n        /* \"crowdfunding.sol\":1833:1834  0 */\n      0x00\n        /* \"crowdfunding.sol\":1653:1923  Crowdfunding({\r... */\n      dup2\n      mstore\n      0x20\n      add\n        /* \"crowdfunding.sol\":1869:1881  _expectAmout */\n      dup4\n        /* \"crowdfunding.sol\":1653:1923  Crowdfunding({\r... */\n      dup2\n      mstore\n      0x20\n      add\n        /* \"crowdfunding.sol\":1910:1911  0 */\n      0x00\n        /* \"crowdfunding.sol\":1653:1923  Crowdfunding({\r... */\n      dup2\n      mstore\n      pop\n        /* \"crowdfunding.sol\":1629:1923  Crowdfunding memory c = Crowdfunding({\r... */\n      swap1\n      pop\n        /* \"crowdfunding.sol\":1934:1938  list */\n      0x01\n        /* \"crowdfunding.sol\":1944:1945  c */\n      dup2\n        /* \"crowdfunding.sol\":1934:1946  list.push(c) */\n      swap1\n      dup1\n      0x01\n      dup2\n      sload\n      add\n      dup1\n      dup3\n      sstore\n      dup1\n      swap2\n      pop\n      pop\n      0x01\n      swap1\n      sub\n      swap1\n      0x00\n      mstore\n      keccak256(0x00, 0x20)\n      swap1\n      0x08\n      mul\n      add\n      0x00\n      swap1\n      swap2\n      swap1\n      swap2\n      swap1\n      swap2\n      pop\n      0x00\n      dup3\n      add\n      mload\n      dup2\n      0x00\n      add\n      sstore\n      0x20\n      dup3\n      add\n      mload\n      dup2\n      0x01\n      add\n      swap1\n      dup1\n      mload\n      swap1\n      0x20\n      add\n      swap1\n      tag_193\n      swap3\n      swap2\n      swap1\n      tag_73\n      jump\t// in\n    tag_193:\n      pop\n      0x40\n      dup3\n      add\n      mload\n      dup2\n      0x02\n      add\n      sstore\n      0x60\n      dup3\n      add\n      mload\n      dup2\n      0x03\n      add\n      exp(0x0100, 0x00)\n      dup2\n      sload\n      dup2\n      0xffffffffffffffffffffffffffffffffffffffff\n      mul\n      not\n      and\n      swap1\n      dup4\n      0xffffffffffffffffffffffffffffffffffffffff\n      and\n      mul\n      or\n      swap1\n      sstore\n      pop\n      0x80\n      dup3\n      add\n      mload\n      dup2\n      0x04\n      add\n      exp(0x0100, 0x00)\n      dup2\n      sload\n      dup2\n      0xffffffffffffffffffffffffffffffffffffffff\n      mul\n      not\n      and\n      swap1\n      dup4\n      0xffffffffffffffffffffffffffffffffffffffff\n      and\n      mul\n      or\n      swap1\n      sstore\n      pop\n      0xa0\n      dup3\n      add\n      mload\n      dup2\n      0x05\n      add\n      sstore\n      0xc0\n      dup3\n      add\n      mload\n      dup2\n      0x06\n      add\n      sstore\n      0xe0\n      dup3\n      add\n      mload\n      dup2\n      0x07\n      add\n      sstore\n      pop\n      pop\n        /* \"crowdfunding.sol\":2031:2049  filterDataByStatus */\n      0x02\n        /* \"crowdfunding.sol\":2031:2052  filterDataByStatus[1] */\n      0x00\n        /* \"crowdfunding.sol\":2050:2051  1 */\n      0x01\n        /* \"crowdfunding.sol\":2031:2052  filterDataByStatus[1] */\n      dup2\n      mstore\n      0x20\n      add\n      swap1\n      dup2\n      mstore\n      0x20\n      add\n      0x00\n      keccak256\n        /* \"crowdfunding.sol\":2058:2059  c */\n      dup2\n        /* \"crowdfunding.sol\":2031:2060  filterDataByStatus[1].push(c) */\n      swap1\n      dup1\n      0x01\n      dup2\n      sload\n      add\n      dup1\n      dup3\n      sstore\n      dup1\n      swap2\n      pop\n      pop\n      0x01\n      swap1\n      sub\n      swap1\n      0x00\n      mstore\n      keccak256(0x00, 0x20)\n      swap1\n      0x08\n      mul\n      add\n      0x00\n      swap1\n      swap2\n      swap1\n      swap2\n      swap1\n      swap2\n      pop\n      0x00\n      dup3\n      add\n      mload\n      dup2\n      0x00\n      add\n      sstore\n      0x20\n      dup3\n      add\n      mload\n      dup2\n      0x01\n      add\n      swap1\n      dup1\n      mload\n      swap1\n      0x20\n      add\n      swap1\n      tag_195\n      swap3\n      swap2\n      swap1\n      tag_73\n      jump\t// in\n    tag_195:\n      pop\n      0x40\n      dup3\n      add\n      mload\n      dup2\n      0x02\n      add\n      sstore\n      0x60\n      dup3\n      add\n      mload\n      dup2\n      0x03\n      add\n      exp(0x0100, 0x00)\n      dup2\n      sload\n      dup2\n      0xffffffffffffffffffffffffffffffffffffffff\n      mul\n      not\n      and\n      swap1\n      dup4\n      0xffffffffffffffffffffffffffffffffffffffff\n      and\n      mul\n      or\n      swap1\n      sstore\n      pop\n      0x80\n      dup3\n      add\n      mload\n      dup2\n      0x04\n      add\n      exp(0x0100, 0x00)\n      dup2\n      sload\n      dup2\n      0xffffffffffffffffffffffffffffffffffffffff\n      mul\n      not\n      and\n      swap1\n      dup4\n      0xffffffffffffffffffffffffffffffffffffffff\n      and\n      mul\n      or\n      swap1\n      sstore\n      pop\n      0xa0\n      dup3\n      add\n      mload\n      dup2\n      0x05\n      add\n      sstore\n      0xc0\n      dup3\n      add\n      mload\n      dup2\n      0x06\n      add\n      sstore\n      0xe0\n      dup3\n      add\n      mload\n      dup2\n      0x07\n      add\n      sstore\n      pop\n      pop\n        /* \"crowdfunding.sol\":2071:2085  myCrowdfunding */\n      0x03\n        /* \"crowdfunding.sol\":2071:2097  myCrowdfunding[msg.sender] */\n      0x00\n        /* \"crowdfunding.sol\":2086:2096  msg.sender */\n      caller\n        /* \"crowdfunding.sol\":2071:2097  myCrowdfunding[msg.sender] */\n      0xffffffffffffffffffffffffffffffffffffffff\n      and\n      0xffffffffffffffffffffffffffffffffffffffff\n      and\n      dup2\n      mstore\n      0x20\n      add\n      swap1\n      dup2\n      mstore\n      0x20\n      add\n      0x00\n      keccak256\n        /* \"crowdfunding.sol\":2103:2104  c */\n      dup2\n        /* \"crowdfunding.sol\":2071:2105  myCrowdfunding[msg.sender].push(c) */\n      swap1\n      dup1\n      0x01\n      dup2\n      sload\n      add\n      dup1\n      dup3\n      sstore\n      dup1\n      swap2\n      pop\n      pop\n      0x01\n      swap1\n      sub\n      swap1\n      0x00\n      mstore\n      keccak256(0x00, 0x20)\n      swap1\n      0x08\n      mul\n      add\n      0x00\n      swap1\n      swap2\n      swap1\n      swap2\n      swap1\n      swap2\n      pop\n      0x00\n      dup3\n      add\n      mload\n      dup2\n      0x00\n      add\n      sstore\n      0x20\n      dup3\n      add\n      mload\n      dup2\n      0x01\n      add\n      swap1\n      dup1\n      mload\n      swap1\n      0x20\n      add\n      swap1\n      tag_197\n      swap3\n      swap2\n      swap1\n      tag_73\n      jump\t// in\n    tag_197:\n      pop\n      0x40\n      dup3\n      add\n      mload\n      dup2\n      0x02\n      add\n      sstore\n      0x60\n      dup3\n      add\n      mload\n      dup2\n      0x03\n      add\n      exp(0x0100, 0x00)\n      dup2\n      sload\n      dup2\n      0xffffffffffffffffffffffffffffffffffffffff\n      mul\n      not\n      and\n      swap1\n      dup4\n      0xffffffffffffffffffffffffffffffffffffffff\n      and\n      mul\n      or\n      swap1\n      sstore\n      pop\n      0x80\n      dup3\n      add\n      mload\n      dup2\n      0x04\n      add\n      exp(0x0100, 0x00)\n      dup2\n      sload\n      dup2\n      0xffffffffffffffffffffffffffffffffffffffff\n      mul\n      not\n      and\n      swap1\n      dup4\n      0xffffffffffffffffffffffffffffffffffffffff\n      and\n      mul\n      or\n      swap1\n      sstore\n      pop\n      0xa0\n      dup3\n      add\n      mload\n      dup2\n      0x05\n      add\n      sstore\n      0xc0\n      dup3\n      add\n      mload\n      dup2\n      0x06\n      add\n      sstore\n      0xe0\n      dup3\n      add\n      mload\n      dup2\n      0x07\n      add\n      sstore\n      pop\n      pop\n        /* \"crowdfunding.sol\":1603:2113  {\r... */\n      pop\n        /* \"crowdfunding.sol\":1508:2113  function createCrowdfunding(string memory _title,address _recipient, uint _expectAmout) public {\r... */\n      pop\n      pop\n      pop\n      jump\t// out\n        /* \"crowdfunding.sol\":4354:4458  function test (address a) public view returns (address,address) {\r... */\n    tag_46:\n        /* \"crowdfunding.sol\":4401:4408  address */\n      0x00\n        /* \"crowdfunding.sol\":4409:4416  address */\n      dup1\n        /* \"crowdfunding.sol\":4437:4438  a */\n      dup3\n        /* \"crowdfunding.sol\":4439:4449  msg.sender */\n      caller\n        /* \"crowdfunding.sol\":4429:4450  return (a,msg.sender) */\n      swap2\n      pop\n      swap2\n      pop\n        /* \"crowdfunding.sol\":4354:4458  function test (address a) public view returns (address,address) {\r... */\n      swap2\n      pop\n      swap2\n      jump\t// out\n        /* \"crowdfunding.sol\":1130:1500  function stringToInt(string memory s) public pure returns (uint){\r... */\n    tag_52:\n        /* \"crowdfunding.sol\":1189:1193  uint */\n      0x00\n        /* \"crowdfunding.sol\":1205:1219  bytes memory b */\n      dup1\n        /* \"crowdfunding.sol\":1228:1229  s */\n      dup3\n        /* \"crowdfunding.sol\":1205:1230  bytes memory b = bytes(s) */\n      swap1\n      pop\n        /* \"crowdfunding.sol\":1241:1252  uint result */\n      0x00\n        /* \"crowdfunding.sol\":1272:1281  uint256 i */\n      dup1\n        /* \"crowdfunding.sol\":1267:1469  for (uint256 i = 0; i < b.length; i++) {\r... */\n    tag_200:\n        /* \"crowdfunding.sol\":1291:1292  b */\n      dup3\n        /* \"crowdfunding.sol\":1291:1299  b.length */\n      mload\n        /* \"crowdfunding.sol\":1287:1288  i */\n      dup2\n        /* \"crowdfunding.sol\":1287:1299  i < b.length */\n      lt\n        /* \"crowdfunding.sol\":1267:1469  for (uint256 i = 0; i < b.length; i++) {\r... */\n      iszero\n      tag_201\n      jumpi\n        /* \"crowdfunding.sol\":1321:1330  uint256 c */\n      0x00\n        /* \"crowdfunding.sol\":1347:1348  b */\n      dup4\n        /* \"crowdfunding.sol\":1349:1350  i */\n      dup3\n        /* \"crowdfunding.sol\":1347:1351  b[i] */\n      dup2\n      mload\n      dup2\n      lt\n      tag_203\n      jumpi\n      tag_204\n      tag_70\n      jump\t// in\n    tag_204:\n    tag_203:\n      0x20\n      add\n      add\n      mload\n      0xf8\n      shr\n      0xf8\n      shl\n        /* \"crowdfunding.sol\":1341:1352  uint8(b[i]) */\n      0xf8\n      shr\n        /* \"crowdfunding.sol\":1333:1353  uint256(uint8(b[i])) */\n      0xff\n      and\n        /* \"crowdfunding.sol\":1321:1353  uint256 c = uint256(uint8(b[i])) */\n      swap1\n      pop\n        /* \"crowdfunding.sol\":1377:1379  48 */\n      0x30\n        /* \"crowdfunding.sol\":1372:1373  c */\n      dup2\n        /* \"crowdfunding.sol\":1372:1379  c >= 48 */\n      lt\n      iszero\n        /* \"crowdfunding.sol\":1372:1390  c >= 48 && c <= 57 */\n      dup1\n      iszero\n      tag_205\n      jumpi\n      pop\n        /* \"crowdfunding.sol\":1388:1390  57 */\n      0x39\n        /* \"crowdfunding.sol\":1383:1384  c */\n      dup2\n        /* \"crowdfunding.sol\":1383:1390  c <= 57 */\n      gt\n      iszero\n        /* \"crowdfunding.sol\":1372:1390  c >= 48 && c <= 57 */\n    tag_205:\n        /* \"crowdfunding.sol\":1368:1458  if (c >= 48 && c <= 57) {\r... */\n      iszero\n      tag_206\n      jumpi\n        /* \"crowdfunding.sol\":1439:1441  48 */\n      0x30\n        /* \"crowdfunding.sol\":1435:1436  c */\n      dup2\n        /* \"crowdfunding.sol\":1435:1441  c - 48 */\n      tag_207\n      swap2\n      swap1\n      tag_67\n      jump\t// in\n    tag_207:\n        /* \"crowdfunding.sol\":1429:1431  10 */\n      0x0a\n        /* \"crowdfunding.sol\":1420:1426  result */\n      dup5\n        /* \"crowdfunding.sol\":1420:1431  result * 10 */\n      tag_208\n      swap2\n      swap1\n      tag_209\n      jump\t// in\n    tag_208:\n        /* \"crowdfunding.sol\":1420:1442  result * 10 + (c - 48) */\n      tag_210\n      swap2\n      swap1\n      tag_91\n      jump\t// in\n    tag_210:\n        /* \"crowdfunding.sol\":1411:1442  result = result * 10 + (c - 48) */\n      swap3\n      pop\n        /* \"crowdfunding.sol\":1368:1458  if (c >= 48 && c <= 57) {\r... */\n    tag_206:\n        /* \"crowdfunding.sol\":1306:1469  {\r... */\n      pop\n        /* \"crowdfunding.sol\":1301:1304  i++ */\n      dup1\n      dup1\n      tag_211\n      swap1\n      tag_84\n      jump\t// in\n    tag_211:\n      swap2\n      pop\n      pop\n        /* \"crowdfunding.sol\":1267:1469  for (uint256 i = 0; i < b.length; i++) {\r... */\n      jump(tag_200)\n    tag_201:\n      pop\n        /* \"crowdfunding.sol\":1486:1492  result */\n      dup1\n        /* \"crowdfunding.sol\":1479:1492  return result */\n      swap3\n      pop\n      pop\n      pop\n        /* \"crowdfunding.sol\":1130:1500  function stringToInt(string memory s) public pure returns (uint){\r... */\n      swap2\n      swap1\n      pop\n      jump\t// out\n    tag_73:\n      dup3\n      dup1\n      sload\n      tag_212\n      swap1\n      tag_60\n      jump\t// in\n    tag_212:\n      swap1\n      0x00\n      mstore\n      keccak256(0x00, 0x20)\n      swap1\n      0x1f\n      add\n      0x20\n      swap1\n      div\n      dup2\n      add\n      swap3\n      dup3\n      tag_214\n      jumpi\n      0x00\n      dup6\n      sstore\n      jump(tag_213)\n    tag_214:\n      dup3\n      0x1f\n      lt\n      tag_215\n      jumpi\n      dup1\n      mload\n      not(0xff)\n      and\n      dup4\n      dup1\n      add\n      or\n      dup6\n      sstore\n      jump(tag_213)\n    tag_215:\n      dup3\n      dup1\n      add\n      0x01\n      add\n      dup6\n      sstore\n      dup3\n      iszero\n      tag_213\n      jumpi\n      swap2\n      dup3\n      add\n    tag_216:\n      dup3\n      dup2\n      gt\n      iszero\n      tag_217\n      jumpi\n      dup3\n      mload\n      dup3\n      sstore\n      swap2\n      0x20\n      add\n      swap2\n      swap1\n      0x01\n      add\n      swap1\n      jump(tag_216)\n    tag_217:\n    tag_213:\n      pop\n      swap1\n      pop\n      tag_218\n      swap2\n      swap1\n      tag_219\n      jump\t// in\n    tag_218:\n      pop\n      swap1\n      jump\t// out\n    tag_133:\n      pop\n      dup1\n      sload\n      tag_220\n      swap1\n      tag_60\n      jump\t// in\n    tag_220:\n      0x00\n      dup3\n      sstore\n      dup1\n      0x1f\n      lt\n      tag_222\n      jumpi\n      pop\n      jump(tag_221)\n    tag_222:\n      0x1f\n      add\n      0x20\n      swap1\n      div\n      swap1\n      0x00\n      mstore\n      keccak256(0x00, 0x20)\n      swap1\n      dup2\n      add\n      swap1\n      tag_223\n      swap2\n      swap1\n      tag_219\n      jump\t// in\n    tag_223:\n    tag_221:\n      pop\n      jump\t// out\n    tag_152:\n      dup3\n      dup1\n      sload\n      tag_224\n      swap1\n      tag_60\n      jump\t// in\n    tag_224:\n      swap1\n      0x00\n      mstore\n      keccak256(0x00, 0x20)\n      swap1\n      0x1f\n      add\n      0x20\n      swap1\n      div\n      dup2\n      add\n      swap3\n      dup3\n      tag_226\n      jumpi\n      0x00\n      dup6\n      sstore\n      jump(tag_225)\n    tag_226:\n      dup3\n      0x1f\n      lt\n      tag_227\n      jumpi\n      dup1\n      sload\n      dup6\n      sstore\n      jump(tag_225)\n    tag_227:\n      dup3\n      dup1\n      add\n      0x01\n      add\n      dup6\n      sstore\n      dup3\n      iszero\n      tag_225\n      jumpi\n      0x00\n      mstore\n      keccak256(0x00, 0x20)\n      swap2\n      0x1f\n      add\n      0x20\n      swap1\n      div\n      dup3\n      add\n    tag_228:\n      dup3\n      dup2\n      gt\n      iszero\n      tag_229\n      jumpi\n      dup3\n      sload\n      dup3\n      sstore\n      swap2\n      0x01\n      add\n      swap2\n      swap1\n      0x01\n      add\n      swap1\n      jump(tag_228)\n    tag_229:\n    tag_225:\n      pop\n      swap1\n      pop\n      tag_230\n      swap2\n      swap1\n      tag_219\n      jump\t// in\n    tag_230:\n      pop\n      swap1\n      jump\t// out\n    tag_219:\n    tag_231:\n      dup1\n      dup3\n      gt\n      iszero\n      tag_232\n      jumpi\n      0x00\n      dup2\n      0x00\n      swap1\n      sstore\n      pop\n      0x01\n      add\n      jump(tag_231)\n    tag_232:\n      pop\n      swap1\n      jump\t// out\n        /* \"#utility.yul\":7:419   */\n    tag_234:\n        /* \"#utility.yul\":85:90   */\n      0x00\n        /* \"#utility.yul\":110:176   */\n      tag_236\n        /* \"#utility.yul\":126:175   */\n      tag_237\n        /* \"#utility.yul\":168:174   */\n      dup5\n        /* \"#utility.yul\":126:175   */\n      tag_238\n      jump\t// in\n    tag_237:\n        /* \"#utility.yul\":110:176   */\n      tag_239\n      jump\t// in\n    tag_236:\n        /* \"#utility.yul\":101:176   */\n      swap1\n      pop\n        /* \"#utility.yul\":199:205   */\n      dup3\n        /* \"#utility.yul\":192:197   */\n      dup2\n        /* \"#utility.yul\":185:206   */\n      mstore\n        /* \"#utility.yul\":237:241   */\n      0x20\n        /* \"#utility.yul\":230:235   */\n      dup2\n        /* \"#utility.yul\":226:242   */\n      add\n        /* \"#utility.yul\":275:278   */\n      dup5\n        /* \"#utility.yul\":266:272   */\n      dup5\n        /* \"#utility.yul\":261:264   */\n      dup5\n        /* \"#utility.yul\":257:273   */\n      add\n        /* \"#utility.yul\":254:279   */\n      gt\n        /* \"#utility.yul\":251:363   */\n      iszero\n      tag_240\n      jumpi\n        /* \"#utility.yul\":282:361   */\n      tag_241\n      tag_242\n      jump\t// in\n    tag_241:\n        /* \"#utility.yul\":251:363   */\n    tag_240:\n        /* \"#utility.yul\":372:413   */\n      tag_243\n        /* \"#utility.yul\":406:412   */\n      dup5\n        /* \"#utility.yul\":401:404   */\n      dup3\n        /* \"#utility.yul\":396:399   */\n      dup6\n        /* \"#utility.yul\":372:413   */\n      tag_244\n      jump\t// in\n    tag_243:\n        /* \"#utility.yul\":91:419   */\n      pop\n        /* \"#utility.yul\":7:419   */\n      swap4\n      swap3\n      pop\n      pop\n      pop\n      jump\t// out\n        /* \"#utility.yul\":425:564   */\n    tag_245:\n        /* \"#utility.yul\":471:476   */\n      0x00\n        /* \"#utility.yul\":509:515   */\n      dup2\n        /* \"#utility.yul\":496:516   */\n      calldataload\n        /* \"#utility.yul\":487:516   */\n      swap1\n      pop\n        /* \"#utility.yul\":525:558   */\n      tag_247\n        /* \"#utility.yul\":552:557   */\n      dup2\n        /* \"#utility.yul\":525:558   */\n      tag_248\n      jump\t// in\n    tag_247:\n        /* \"#utility.yul\":425:564   */\n      swap3\n      swap2\n      pop\n      pop\n      jump\t// out\n        /* \"#utility.yul\":584:924   */\n    tag_249:\n        /* \"#utility.yul\":640:645   */\n      0x00\n        /* \"#utility.yul\":689:692   */\n      dup3\n        /* \"#utility.yul\":682:686   */\n      0x1f\n        /* \"#utility.yul\":674:680   */\n      dup4\n        /* \"#utility.yul\":670:687   */\n      add\n        /* \"#utility.yul\":666:693   */\n      slt\n        /* \"#utility.yul\":656:778   */\n      tag_251\n      jumpi\n        /* \"#utility.yul\":697:776   */\n      tag_252\n      tag_253\n      jump\t// in\n    tag_252:\n        /* \"#utility.yul\":656:778   */\n    tag_251:\n        /* \"#utility.yul\":814:820   */\n      dup2\n        /* \"#utility.yul\":801:821   */\n      calldataload\n        /* \"#utility.yul\":839:918   */\n      tag_254\n        /* \"#utility.yul\":914:917   */\n      dup5\n        /* \"#utility.yul\":906:912   */\n      dup3\n        /* \"#utility.yul\":899:903   */\n      0x20\n        /* \"#utility.yul\":891:897   */\n      dup7\n        /* \"#utility.yul\":887:904   */\n      add\n        /* \"#utility.yul\":839:918   */\n      tag_234\n      jump\t// in\n    tag_254:\n        /* \"#utility.yul\":830:918   */\n      swap2\n      pop\n        /* \"#utility.yul\":646:924   */\n      pop\n        /* \"#utility.yul\":584:924   */\n      swap3\n      swap2\n      pop\n      pop\n      jump\t// out\n        /* \"#utility.yul\":930:1069   */\n    tag_255:\n        /* \"#utility.yul\":976:981   */\n      0x00\n        /* \"#utility.yul\":1014:1020   */\n      dup2\n        /* \"#utility.yul\":1001:1021   */\n      calldataload\n        /* \"#utility.yul\":992:1021   */\n      swap1\n      pop\n        /* \"#utility.yul\":1030:1063   */\n      tag_257\n        /* \"#utility.yul\":1057:1062   */\n      dup2\n        /* \"#utility.yul\":1030:1063   */\n      tag_258\n      jump\t// in\n    tag_257:\n        /* \"#utility.yul\":930:1069   */\n      swap3\n      swap2\n      pop\n      pop\n      jump\t// out\n        /* \"#utility.yul\":1075:1404   */\n    tag_15:\n        /* \"#utility.yul\":1134:1140   */\n      0x00\n        /* \"#utility.yul\":1183:1185   */\n      0x20\n        /* \"#utility.yul\":1171:1180   */\n      dup3\n        /* \"#utility.yul\":1162:1169   */\n      dup5\n        /* \"#utility.yul\":1158:1181   */\n      sub\n        /* \"#utility.yul\":1154:1186   */\n      slt\n        /* \"#utility.yul\":1151:1270   */\n      iszero\n      tag_260\n      jumpi\n        /* \"#utility.yul\":1189:1268   */\n      tag_261\n      tag_262\n      jump\t// in\n    tag_261:\n        /* \"#utility.yul\":1151:1270   */\n    tag_260:\n        /* \"#utility.yul\":1309:1310   */\n      0x00\n        /* \"#utility.yul\":1334:1387   */\n      tag_263\n        /* \"#utility.yul\":1379:1386   */\n      dup5\n        /* \"#utility.yul\":1370:1376   */\n      dup3\n        /* \"#utility.yul\":1359:1368   */\n      dup6\n        /* \"#utility.yul\":1355:1377   */\n      add\n        /* \"#utility.yul\":1334:1387   */\n      tag_245\n      jump\t// in\n    tag_263:\n        /* \"#utility.yul\":1324:1387   */\n      swap2\n      pop\n        /* \"#utility.yul\":1280:1397   */\n      pop\n        /* \"#utility.yul\":1075:1404   */\n      swap3\n      swap2\n      pop\n      pop\n      jump\t// out\n        /* \"#utility.yul\":1410:1919   */\n    tag_51:\n        /* \"#utility.yul\":1479:1485   */\n      0x00\n        /* \"#utility.yul\":1528:1530   */\n      0x20\n        /* \"#utility.yul\":1516:1525   */\n      dup3\n        /* \"#utility.yul\":1507:1514   */\n      dup5\n        /* \"#utility.yul\":1503:1526   */\n      sub\n        /* \"#utility.yul\":1499:1531   */\n      slt\n        /* \"#utility.yul\":1496:1615   */\n      iszero\n      tag_265\n      jumpi\n        /* \"#utility.yul\":1534:1613   */\n      tag_266\n      tag_262\n      jump\t// in\n    tag_266:\n        /* \"#utility.yul\":1496:1615   */\n    tag_265:\n        /* \"#utility.yul\":1682:1683   */\n      0x00\n        /* \"#utility.yul\":1671:1680   */\n      dup3\n        /* \"#utility.yul\":1667:1684   */\n      add\n        /* \"#utility.yul\":1654:1685   */\n      calldataload\n        /* \"#utility.yul\":1712:1730   */\n      0xffffffffffffffff\n        /* \"#utility.yul\":1704:1710   */\n      dup2\n        /* \"#utility.yul\":1701:1731   */\n      gt\n        /* \"#utility.yul\":1698:1815   */\n      iszero\n      tag_267\n      jumpi\n        /* \"#utility.yul\":1734:1813   */\n      tag_268\n      tag_269\n      jump\t// in\n    tag_268:\n        /* \"#utility.yul\":1698:1815   */\n    tag_267:\n        /* \"#utility.yul\":1839:1902   */\n      tag_270\n        /* \"#utility.yul\":1894:1901   */\n      dup5\n        /* \"#utility.yul\":1885:1891   */\n      dup3\n        /* \"#utility.yul\":1874:1883   */\n      dup6\n        /* \"#utility.yul\":1870:1892   */\n      add\n        /* \"#utility.yul\":1839:1902   */\n      tag_249\n      jump\t// in\n    tag_270:\n        /* \"#utility.yul\":1829:1902   */\n      swap2\n      pop\n        /* \"#utility.yul\":1625:1912   */\n      pop\n        /* \"#utility.yul\":1410:1919   */\n      swap3\n      swap2\n      pop\n      pop\n      jump\t// out\n        /* \"#utility.yul\":1925:2724   */\n    tag_42:\n        /* \"#utility.yul\":2012:2018   */\n      0x00\n        /* \"#utility.yul\":2020:2026   */\n      dup1\n        /* \"#utility.yul\":2028:2034   */\n      0x00\n        /* \"#utility.yul\":2077:2079   */\n      0x60\n        /* \"#utility.yul\":2065:2074   */\n      dup5\n        /* \"#utility.yul\":2056:2063   */\n      dup7\n        /* \"#utility.yul\":2052:2075   */\n      sub\n        /* \"#utility.yul\":2048:2080   */\n      slt\n        /* \"#utility.yul\":2045:2164   */\n      iszero\n      tag_272\n      jumpi\n        /* \"#utility.yul\":2083:2162   */\n      tag_273\n      tag_262\n      jump\t// in\n    tag_273:\n        /* \"#utility.yul\":2045:2164   */\n    tag_272:\n        /* \"#utility.yul\":2231:2232   */\n      0x00\n        /* \"#utility.yul\":2220:2229   */\n      dup5\n        /* \"#utility.yul\":2216:2233   */\n      add\n        /* \"#utility.yul\":2203:2234   */\n      calldataload\n        /* \"#utility.yul\":2261:2279   */\n      0xffffffffffffffff\n        /* \"#utility.yul\":2253:2259   */\n      dup2\n        /* \"#utility.yul\":2250:2280   */\n      gt\n        /* \"#utility.yul\":2247:2364   */\n      iszero\n      tag_274\n      jumpi\n        /* \"#utility.yul\":2283:2362   */\n      tag_275\n      tag_269\n      jump\t// in\n    tag_275:\n        /* \"#utility.yul\":2247:2364   */\n    tag_274:\n        /* \"#utility.yul\":2388:2451   */\n      tag_276\n        /* \"#utility.yul\":2443:2450   */\n      dup7\n        /* \"#utility.yul\":2434:2440   */\n      dup3\n        /* \"#utility.yul\":2423:2432   */\n      dup8\n        /* \"#utility.yul\":2419:2441   */\n      add\n        /* \"#utility.yul\":2388:2451   */\n      tag_249\n      jump\t// in\n    tag_276:\n        /* \"#utility.yul\":2378:2451   */\n      swap4\n      pop\n        /* \"#utility.yul\":2174:2461   */\n      pop\n        /* \"#utility.yul\":2500:2502   */\n      0x20\n        /* \"#utility.yul\":2526:2579   */\n      tag_277\n        /* \"#utility.yul\":2571:2578   */\n      dup7\n        /* \"#utility.yul\":2562:2568   */\n      dup3\n        /* \"#utility.yul\":2551:2560   */\n      dup8\n        /* \"#utility.yul\":2547:2569   */\n      add\n        /* \"#utility.yul\":2526:2579   */\n      tag_245\n      jump\t// in\n    tag_277:\n        /* \"#utility.yul\":2516:2579   */\n      swap3\n      pop\n        /* \"#utility.yul\":2471:2589   */\n      pop\n        /* \"#utility.yul\":2628:2630   */\n      0x40\n        /* \"#utility.yul\":2654:2707   */\n      tag_278\n        /* \"#utility.yul\":2699:2706   */\n      dup7\n        /* \"#utility.yul\":2690:2696   */\n      dup3\n        /* \"#utility.yul\":2679:2688   */\n      dup8\n        /* \"#utility.yul\":2675:2697   */\n      add\n        /* \"#utility.yul\":2654:2707   */\n      tag_255\n      jump\t// in\n    tag_278:\n        /* \"#utility.yul\":2644:2707   */\n      swap2\n      pop\n        /* \"#utility.yul\":2599:2717   */\n      pop\n        /* \"#utility.yul\":1925:2724   */\n      swap3\n      pop\n      swap3\n      pop\n      swap3\n      jump\t// out\n        /* \"#utility.yul\":2730:3059   */\n    tag_29:\n        /* \"#utility.yul\":2789:2795   */\n      0x00\n        /* \"#utility.yul\":2838:2840   */\n      0x20\n        /* \"#utility.yul\":2826:2835   */\n      dup3\n        /* \"#utility.yul\":2817:2824   */\n      dup5\n        /* \"#utility.yul\":2813:2836   */\n      sub\n        /* \"#utility.yul\":2809:2841   */\n      slt\n        /* \"#utility.yul\":2806:2925   */\n      iszero\n      tag_280\n      jumpi\n        /* \"#utility.yul\":2844:2923   */\n      tag_281\n      tag_262\n      jump\t// in\n    tag_281:\n        /* \"#utility.yul\":2806:2925   */\n    tag_280:\n        /* \"#utility.yul\":2964:2965   */\n      0x00\n        /* \"#utility.yul\":2989:3042   */\n      tag_282\n        /* \"#utility.yul\":3034:3041   */\n      dup5\n        /* \"#utility.yul\":3025:3031   */\n      dup3\n        /* \"#utility.yul\":3014:3023   */\n      dup6\n        /* \"#utility.yul\":3010:3032   */\n      add\n        /* \"#utility.yul\":2989:3042   */\n      tag_255\n      jump\t// in\n    tag_282:\n        /* \"#utility.yul\":2979:3042   */\n      swap2\n      pop\n        /* \"#utility.yul\":2935:3052   */\n      pop\n        /* \"#utility.yul\":2730:3059   */\n      swap3\n      swap2\n      pop\n      pop\n      jump\t// out\n        /* \"#utility.yul\":3065:3719   */\n    tag_21:\n        /* \"#utility.yul\":3143:3149   */\n      0x00\n        /* \"#utility.yul\":3151:3157   */\n      dup1\n        /* \"#utility.yul\":3200:3202   */\n      0x40\n        /* \"#utility.yul\":3188:3197   */\n      dup4\n        /* \"#utility.yul\":3179:3186   */\n      dup6\n        /* \"#utility.yul\":3175:3198   */\n      sub\n        /* \"#utility.yul\":3171:3203   */\n      slt\n        /* \"#utility.yul\":3168:3287   */\n      iszero\n      tag_284\n      jumpi\n        /* \"#utility.yul\":3206:3285   */\n      tag_285\n      tag_262\n      jump\t// in\n    tag_285:\n        /* \"#utility.yul\":3168:3287   */\n    tag_284:\n        /* \"#utility.yul\":3326:3327   */\n      0x00\n        /* \"#utility.yul\":3351:3404   */\n      tag_286\n        /* \"#utility.yul\":3396:3403   */\n      dup6\n        /* \"#utility.yul\":3387:3393   */\n      dup3\n        /* \"#utility.yul\":3376:3385   */\n      dup7\n        /* \"#utility.yul\":3372:3394   */\n      add\n        /* \"#utility.yul\":3351:3404   */\n      tag_255\n      jump\t// in\n    tag_286:\n        /* \"#utility.yul\":3341:3404   */\n      swap3\n      pop\n        /* \"#utility.yul\":3297:3414   */\n      pop\n        /* \"#utility.yul\":3481:3483   */\n      0x20\n        /* \"#utility.yul\":3470:3479   */\n      dup4\n        /* \"#utility.yul\":3466:3484   */\n      add\n        /* \"#utility.yul\":3453:3485   */\n      calldataload\n        /* \"#utility.yul\":3512:3530   */\n      0xffffffffffffffff\n        /* \"#utility.yul\":3504:3510   */\n      dup2\n        /* \"#utility.yul\":3501:3531   */\n      gt\n        /* \"#utility.yul\":3498:3615   */\n      iszero\n      tag_287\n      jumpi\n        /* \"#utility.yul\":3534:3613   */\n      tag_288\n      tag_269\n      jump\t// in\n    tag_288:\n        /* \"#utility.yul\":3498:3615   */\n    tag_287:\n        /* \"#utility.yul\":3639:3702   */\n      tag_289\n        /* \"#utility.yul\":3694:3701   */\n      dup6\n        /* \"#utility.yul\":3685:3691   */\n      dup3\n        /* \"#utility.yul\":3674:3683   */\n      dup7\n        /* \"#utility.yul\":3670:3692   */\n      add\n        /* \"#utility.yul\":3639:3702   */\n      tag_249\n      jump\t// in\n    tag_289:\n        /* \"#utility.yul\":3629:3702   */\n      swap2\n      pop\n        /* \"#utility.yul\":3424:3712   */\n      pop\n        /* \"#utility.yul\":3065:3719   */\n      swap3\n      pop\n      swap3\n      swap1\n      pop\n      jump\t// out\n        /* \"#utility.yul\":3725:4344   */\n    tag_25:\n        /* \"#utility.yul\":3802:3808   */\n      0x00\n        /* \"#utility.yul\":3810:3816   */\n      dup1\n        /* \"#utility.yul\":3818:3824   */\n      0x00\n        /* \"#utility.yul\":3867:3869   */\n      0x60\n        /* \"#utility.yul\":3855:3864   */\n      dup5\n        /* \"#utility.yul\":3846:3853   */\n      dup7\n        /* \"#utility.yul\":3842:3865   */\n      sub\n        /* \"#utility.yul\":3838:3870   */\n      slt\n        /* \"#utility.yul\":3835:3954   */\n      iszero\n      tag_291\n      jumpi\n        /* \"#utility.yul\":3873:3952   */\n      tag_292\n      tag_262\n      jump\t// in\n    tag_292:\n        /* \"#utility.yul\":3835:3954   */\n    tag_291:\n        /* \"#utility.yul\":3993:3994   */\n      0x00\n        /* \"#utility.yul\":4018:4071   */\n      tag_293\n        /* \"#utility.yul\":4063:4070   */\n      dup7\n        /* \"#utility.yul\":4054:4060   */\n      dup3\n        /* \"#utility.yul\":4043:4052   */\n      dup8\n        /* \"#utility.yul\":4039:4061   */\n      add\n        /* \"#utility.yul\":4018:4071   */\n      tag_255\n      jump\t// in\n    tag_293:\n        /* \"#utility.yul\":4008:4071   */\n      swap4\n      pop\n        /* \"#utility.yul\":3964:4081   */\n      pop\n        /* \"#utility.yul\":4120:4122   */\n      0x20\n        /* \"#utility.yul\":4146:4199   */\n      tag_294\n        /* \"#utility.yul\":4191:4198   */\n      dup7\n        /* \"#utility.yul\":4182:4188   */\n      dup3\n        /* \"#utility.yul\":4171:4180   */\n      dup8\n        /* \"#utility.yul\":4167:4189   */\n      add\n        /* \"#utility.yul\":4146:4199   */\n      tag_255\n      jump\t// in\n    tag_294:\n        /* \"#utility.yul\":4136:4199   */\n      swap3\n      pop\n        /* \"#utility.yul\":4091:4209   */\n      pop\n        /* \"#utility.yul\":4248:4250   */\n      0x40\n        /* \"#utility.yul\":4274:4327   */\n      tag_295\n        /* \"#utility.yul\":4319:4326   */\n      dup7\n        /* \"#utility.yul\":4310:4316   */\n      dup3\n        /* \"#utility.yul\":4299:4308   */\n      dup8\n        /* \"#utility.yul\":4295:4317   */\n      add\n        /* \"#utility.yul\":4274:4327   */\n      tag_245\n      jump\t// in\n    tag_295:\n        /* \"#utility.yul\":4264:4327   */\n      swap2\n      pop\n        /* \"#utility.yul\":4219:4337   */\n      pop\n        /* \"#utility.yul\":3725:4344   */\n      swap3\n      pop\n      swap3\n      pop\n      swap3\n      jump\t// out\n        /* \"#utility.yul\":4350:4618   */\n    tag_296:\n        /* \"#utility.yul\":4475:4485   */\n      0x00\n        /* \"#utility.yul\":4510:4612   */\n      tag_298\n        /* \"#utility.yul\":4608:4611   */\n      dup4\n        /* \"#utility.yul\":4600:4606   */\n      dup4\n        /* \"#utility.yul\":4510:4612   */\n      tag_299\n      jump\t// in\n    tag_298:\n        /* \"#utility.yul\":4496:4612   */\n      swap1\n      pop\n        /* \"#utility.yul\":4350:4618   */\n      swap3\n      swap2\n      pop\n      pop\n      jump\t// out\n        /* \"#utility.yul\":4624:4732   */\n    tag_300:\n        /* \"#utility.yul\":4701:4725   */\n      tag_302\n        /* \"#utility.yul\":4719:4724   */\n      dup2\n        /* \"#utility.yul\":4701:4725   */\n      tag_303\n      jump\t// in\n    tag_302:\n        /* \"#utility.yul\":4696:4699   */\n      dup3\n        /* \"#utility.yul\":4689:4726   */\n      mstore\n        /* \"#utility.yul\":4624:4732   */\n      pop\n      pop\n      jump\t// out\n        /* \"#utility.yul\":4738:4856   */\n    tag_304:\n        /* \"#utility.yul\":4825:4849   */\n      tag_306\n        /* \"#utility.yul\":4843:4848   */\n      dup2\n        /* \"#utility.yul\":4825:4849   */\n      tag_303\n      jump\t// in\n    tag_306:\n        /* \"#utility.yul\":4820:4823   */\n      dup3\n        /* \"#utility.yul\":4813:4850   */\n      mstore\n        /* \"#utility.yul\":4738:4856   */\n      pop\n      pop\n      jump\t// out\n        /* \"#utility.yul\":4958:6093   */\n    tag_307:\n        /* \"#utility.yul\":5133:5136   */\n      0x00\n        /* \"#utility.yul\":5162:5244   */\n      tag_309\n        /* \"#utility.yul\":5238:5243   */\n      dup3\n        /* \"#utility.yul\":5162:5244   */\n      tag_310\n      jump\t// in\n    tag_309:\n        /* \"#utility.yul\":5260:5374   */\n      tag_311\n        /* \"#utility.yul\":5367:5373   */\n      dup2\n        /* \"#utility.yul\":5362:5365   */\n      dup6\n        /* \"#utility.yul\":5260:5374   */\n      tag_312\n      jump\t// in\n    tag_311:\n        /* \"#utility.yul\":5253:5374   */\n      swap4\n      pop\n        /* \"#utility.yul\":5400:5403   */\n      dup4\n        /* \"#utility.yul\":5445:5449   */\n      0x20\n        /* \"#utility.yul\":5437:5443   */\n      dup3\n        /* \"#utility.yul\":5433:5450   */\n      mul\n        /* \"#utility.yul\":5428:5431   */\n      dup6\n        /* \"#utility.yul\":5424:5451   */\n      add\n        /* \"#utility.yul\":5475:5559   */\n      tag_313\n        /* \"#utility.yul\":5553:5558   */\n      dup6\n        /* \"#utility.yul\":5475:5559   */\n      tag_314\n      jump\t// in\n    tag_313:\n        /* \"#utility.yul\":5582:5589   */\n      dup1\n        /* \"#utility.yul\":5613:5614   */\n      0x00\n        /* \"#utility.yul\":5598:6048   */\n    tag_315:\n        /* \"#utility.yul\":5623:5629   */\n      dup6\n        /* \"#utility.yul\":5620:5621   */\n      dup2\n        /* \"#utility.yul\":5617:5630   */\n      lt\n        /* \"#utility.yul\":5598:6048   */\n      iszero\n      tag_317\n      jumpi\n        /* \"#utility.yul\":5694:5703   */\n      dup5\n        /* \"#utility.yul\":5688:5692   */\n      dup5\n        /* \"#utility.yul\":5684:5704   */\n      sub\n        /* \"#utility.yul\":5679:5682   */\n      dup10\n        /* \"#utility.yul\":5672:5705   */\n      mstore\n        /* \"#utility.yul\":5745:5751   */\n      dup2\n        /* \"#utility.yul\":5739:5752   */\n      mload\n        /* \"#utility.yul\":5773:5893   */\n      tag_318\n        /* \"#utility.yul\":5888:5892   */\n      dup6\n        /* \"#utility.yul\":5873:5886   */\n      dup3\n        /* \"#utility.yul\":5773:5893   */\n      tag_296\n      jump\t// in\n    tag_318:\n        /* \"#utility.yul\":5765:5893   */\n      swap5\n      pop\n        /* \"#utility.yul\":5916:6004   */\n      tag_319\n        /* \"#utility.yul\":5997:6003   */\n      dup4\n        /* \"#utility.yul\":5916:6004   */\n      tag_320\n      jump\t// in\n    tag_319:\n        /* \"#utility.yul\":5906:6004   */\n      swap3\n      pop\n        /* \"#utility.yul\":6033:6037   */\n      0x20\n        /* \"#utility.yul\":6028:6031   */\n      dup11\n        /* \"#utility.yul\":6024:6038   */\n      add\n        /* \"#utility.yul\":6017:6038   */\n      swap10\n      pop\n        /* \"#utility.yul\":5658:6048   */\n      pop\n        /* \"#utility.yul\":5645:5646   */\n      0x01\n        /* \"#utility.yul\":5642:5643   */\n      dup2\n        /* \"#utility.yul\":5638:5647   */\n      add\n        /* \"#utility.yul\":5633:5647   */\n      swap1\n      pop\n        /* \"#utility.yul\":5598:6048   */\n      jump(tag_315)\n    tag_317:\n        /* \"#utility.yul\":5602:5616   */\n      pop\n        /* \"#utility.yul\":6064:6068   */\n      dup3\n        /* \"#utility.yul\":6057:6068   */\n      swap8\n      pop\n        /* \"#utility.yul\":6084:6087   */\n      dup8\n        /* \"#utility.yul\":6077:6087   */\n      swap6\n      pop\n        /* \"#utility.yul\":5138:6093   */\n      pop\n      pop\n      pop\n      pop\n      pop\n        /* \"#utility.yul\":4958:6093   */\n      swap3\n      swap2\n      pop\n      pop\n      jump\t// out\n        /* \"#utility.yul\":6099:6443   */\n    tag_321:\n        /* \"#utility.yul\":6177:6180   */\n      0x00\n        /* \"#utility.yul\":6205:6244   */\n      tag_323\n        /* \"#utility.yul\":6238:6243   */\n      dup3\n        /* \"#utility.yul\":6205:6244   */\n      tag_324\n      jump\t// in\n    tag_323:\n        /* \"#utility.yul\":6260:6321   */\n      tag_325\n        /* \"#utility.yul\":6314:6320   */\n      dup2\n        /* \"#utility.yul\":6309:6312   */\n      dup6\n        /* \"#utility.yul\":6260:6321   */\n      tag_326\n      jump\t// in\n    tag_325:\n        /* \"#utility.yul\":6253:6321   */\n      swap4\n      pop\n        /* \"#utility.yul\":6330:6382   */\n      tag_327\n        /* \"#utility.yul\":6375:6381   */\n      dup2\n        /* \"#utility.yul\":6370:6373   */\n      dup6\n        /* \"#utility.yul\":6363:6367   */\n      0x20\n        /* \"#utility.yul\":6356:6361   */\n      dup7\n        /* \"#utility.yul\":6352:6368   */\n      add\n        /* \"#utility.yul\":6330:6382   */\n      tag_328\n      jump\t// in\n    tag_327:\n        /* \"#utility.yul\":6407:6436   */\n      tag_329\n        /* \"#utility.yul\":6429:6435   */\n      dup2\n        /* \"#utility.yul\":6407:6436   */\n      tag_330\n      jump\t// in\n    tag_329:\n        /* \"#utility.yul\":6402:6405   */\n      dup5\n        /* \"#utility.yul\":6398:6437   */\n      add\n        /* \"#utility.yul\":6391:6437   */\n      swap2\n      pop\n        /* \"#utility.yul\":6181:6443   */\n      pop\n        /* \"#utility.yul\":6099:6443   */\n      swap3\n      swap2\n      pop\n      pop\n      jump\t// out\n        /* \"#utility.yul\":6449:6813   */\n    tag_331:\n        /* \"#utility.yul\":6537:6540   */\n      0x00\n        /* \"#utility.yul\":6565:6604   */\n      tag_333\n        /* \"#utility.yul\":6598:6603   */\n      dup3\n        /* \"#utility.yul\":6565:6604   */\n      tag_324\n      jump\t// in\n    tag_333:\n        /* \"#utility.yul\":6620:6691   */\n      tag_334\n        /* \"#utility.yul\":6684:6690   */\n      dup2\n        /* \"#utility.yul\":6679:6682   */\n      dup6\n        /* \"#utility.yul\":6620:6691   */\n      tag_335\n      jump\t// in\n    tag_334:\n        /* \"#utility.yul\":6613:6691   */\n      swap4\n      pop\n        /* \"#utility.yul\":6700:6752   */\n      tag_336\n        /* \"#utility.yul\":6745:6751   */\n      dup2\n        /* \"#utility.yul\":6740:6743   */\n      dup6\n        /* \"#utility.yul\":6733:6737   */\n      0x20\n        /* \"#utility.yul\":6726:6731   */\n      dup7\n        /* \"#utility.yul\":6722:6738   */\n      add\n        /* \"#utility.yul\":6700:6752   */\n      tag_328\n      jump\t// in\n    tag_336:\n        /* \"#utility.yul\":6777:6806   */\n      tag_337\n        /* \"#utility.yul\":6799:6805   */\n      dup2\n        /* \"#utility.yul\":6777:6806   */\n      tag_330\n      jump\t// in\n    tag_337:\n        /* \"#utility.yul\":6772:6775   */\n      dup5\n        /* \"#utility.yul\":6768:6807   */\n      add\n        /* \"#utility.yul\":6761:6807   */\n      swap2\n      pop\n        /* \"#utility.yul\":6541:6813   */\n      pop\n        /* \"#utility.yul\":6449:6813   */\n      swap3\n      swap2\n      pop\n      pop\n      jump\t// out\n        /* \"#utility.yul\":6911:8587   */\n    tag_299:\n        /* \"#utility.yul\":7026:7029   */\n      0x00\n        /* \"#utility.yul\":7062:7068   */\n      0x0100\n        /* \"#utility.yul\":7057:7060   */\n      dup4\n        /* \"#utility.yul\":7053:7069   */\n      add\n        /* \"#utility.yul\":7150:7154   */\n      0x00\n        /* \"#utility.yul\":7143:7148   */\n      dup4\n        /* \"#utility.yul\":7139:7155   */\n      add\n        /* \"#utility.yul\":7133:7156   */\n      mload\n        /* \"#utility.yul\":7169:7232   */\n      tag_339\n        /* \"#utility.yul\":7226:7230   */\n      0x00\n        /* \"#utility.yul\":7221:7224   */\n      dup7\n        /* \"#utility.yul\":7217:7231   */\n      add\n        /* \"#utility.yul\":7203:7215   */\n      dup3\n        /* \"#utility.yul\":7169:7232   */\n      tag_340\n      jump\t// in\n    tag_339:\n        /* \"#utility.yul\":7079:7242   */\n      pop\n        /* \"#utility.yul\":7325:7329   */\n      0x20\n        /* \"#utility.yul\":7318:7323   */\n      dup4\n        /* \"#utility.yul\":7314:7330   */\n      add\n        /* \"#utility.yul\":7308:7331   */\n      mload\n        /* \"#utility.yul\":7378:7381   */\n      dup5\n        /* \"#utility.yul\":7372:7376   */\n      dup3\n        /* \"#utility.yul\":7368:7382   */\n      sub\n        /* \"#utility.yul\":7361:7365   */\n      0x20\n        /* \"#utility.yul\":7356:7359   */\n      dup7\n        /* \"#utility.yul\":7352:7366   */\n      add\n        /* \"#utility.yul\":7345:7383   */\n      mstore\n        /* \"#utility.yul\":7404:7477   */\n      tag_341\n        /* \"#utility.yul\":7472:7476   */\n      dup3\n        /* \"#utility.yul\":7458:7470   */\n      dup3\n        /* \"#utility.yul\":7404:7477   */\n      tag_321\n      jump\t// in\n    tag_341:\n        /* \"#utility.yul\":7396:7477   */\n      swap2\n      pop\n        /* \"#utility.yul\":7252:7488   */\n      pop\n        /* \"#utility.yul\":7572:7576   */\n      0x40\n        /* \"#utility.yul\":7565:7570   */\n      dup4\n        /* \"#utility.yul\":7561:7577   */\n      add\n        /* \"#utility.yul\":7555:7578   */\n      mload\n        /* \"#utility.yul\":7591:7654   */\n      tag_342\n        /* \"#utility.yul\":7648:7652   */\n      0x40\n        /* \"#utility.yul\":7643:7646   */\n      dup7\n        /* \"#utility.yul\":7639:7653   */\n      add\n        /* \"#utility.yul\":7625:7637   */\n      dup3\n        /* \"#utility.yul\":7591:7654   */\n      tag_340\n      jump\t// in\n    tag_342:\n        /* \"#utility.yul\":7498:7664   */\n      pop\n        /* \"#utility.yul\":7749:7753   */\n      0x60\n        /* \"#utility.yul\":7742:7747   */\n      dup4\n        /* \"#utility.yul\":7738:7754   */\n      add\n        /* \"#utility.yul\":7732:7755   */\n      mload\n        /* \"#utility.yul\":7768:7831   */\n      tag_343\n        /* \"#utility.yul\":7825:7829   */\n      0x60\n        /* \"#utility.yul\":7820:7823   */\n      dup7\n        /* \"#utility.yul\":7816:7830   */\n      add\n        /* \"#utility.yul\":7802:7814   */\n      dup3\n        /* \"#utility.yul\":7768:7831   */\n      tag_300\n      jump\t// in\n    tag_343:\n        /* \"#utility.yul\":7674:7841   */\n      pop\n        /* \"#utility.yul\":7928:7932   */\n      0x80\n        /* \"#utility.yul\":7921:7926   */\n      dup4\n        /* \"#utility.yul\":7917:7933   */\n      add\n        /* \"#utility.yul\":7911:7934   */\n      mload\n        /* \"#utility.yul\":7947:8010   */\n      tag_344\n        /* \"#utility.yul\":8004:8008   */\n      0x80\n        /* \"#utility.yul\":7999:8002   */\n      dup7\n        /* \"#utility.yul\":7995:8009   */\n      add\n        /* \"#utility.yul\":7981:7993   */\n      dup3\n        /* \"#utility.yul\":7947:8010   */\n      tag_300\n      jump\t// in\n    tag_344:\n        /* \"#utility.yul\":7851:8020   */\n      pop\n        /* \"#utility.yul\":8105:8109   */\n      0xa0\n        /* \"#utility.yul\":8098:8103   */\n      dup4\n        /* \"#utility.yul\":8094:8110   */\n      add\n        /* \"#utility.yul\":8088:8111   */\n      mload\n        /* \"#utility.yul\":8124:8187   */\n      tag_345\n        /* \"#utility.yul\":8181:8185   */\n      0xa0\n        /* \"#utility.yul\":8176:8179   */\n      dup7\n        /* \"#utility.yul\":8172:8186   */\n      add\n        /* \"#utility.yul\":8158:8170   */\n      dup3\n        /* \"#utility.yul\":8124:8187   */\n      tag_340\n      jump\t// in\n    tag_345:\n        /* \"#utility.yul\":8030:8197   */\n      pop\n        /* \"#utility.yul\":8286:8290   */\n      0xc0\n        /* \"#utility.yul\":8279:8284   */\n      dup4\n        /* \"#utility.yul\":8275:8291   */\n      add\n        /* \"#utility.yul\":8269:8292   */\n      mload\n        /* \"#utility.yul\":8305:8368   */\n      tag_346\n        /* \"#utility.yul\":8362:8366   */\n      0xc0\n        /* \"#utility.yul\":8357:8360   */\n      dup7\n        /* \"#utility.yul\":8353:8367   */\n      add\n        /* \"#utility.yul\":8339:8351   */\n      dup3\n        /* \"#utility.yul\":8305:8368   */\n      tag_340\n      jump\t// in\n    tag_346:\n        /* \"#utility.yul\":8207:8378   */\n      pop\n        /* \"#utility.yul\":8468:8472   */\n      0xe0\n        /* \"#utility.yul\":8461:8466   */\n      dup4\n        /* \"#utility.yul\":8457:8473   */\n      add\n        /* \"#utility.yul\":8451:8474   */\n      mload\n        /* \"#utility.yul\":8487:8550   */\n      tag_347\n        /* \"#utility.yul\":8544:8548   */\n      0xe0\n        /* \"#utility.yul\":8539:8542   */\n      dup7\n        /* \"#utility.yul\":8535:8549   */\n      add\n        /* \"#utility.yul\":8521:8533   */\n      dup3\n        /* \"#utility.yul\":8487:8550   */\n      tag_340\n      jump\t// in\n    tag_347:\n        /* \"#utility.yul\":8388:8560   */\n      pop\n        /* \"#utility.yul\":8577:8581   */\n      dup1\n        /* \"#utility.yul\":8570:8581   */\n      swap2\n      pop\n        /* \"#utility.yul\":7031:8587   */\n      pop\n        /* \"#utility.yul\":6911:8587   */\n      swap3\n      swap2\n      pop\n      pop\n      jump\t// out\n        /* \"#utility.yul\":8593:8701   */\n    tag_340:\n        /* \"#utility.yul\":8670:8694   */\n      tag_349\n        /* \"#utility.yul\":8688:8693   */\n      dup2\n        /* \"#utility.yul\":8670:8694   */\n      tag_350\n      jump\t// in\n    tag_349:\n        /* \"#utility.yul\":8665:8668   */\n      dup3\n        /* \"#utility.yul\":8658:8695   */\n      mstore\n        /* \"#utility.yul\":8593:8701   */\n      pop\n      pop\n      jump\t// out\n        /* \"#utility.yul\":8707:8825   */\n    tag_351:\n        /* \"#utility.yul\":8794:8818   */\n      tag_353\n        /* \"#utility.yul\":8812:8817   */\n      dup2\n        /* \"#utility.yul\":8794:8818   */\n      tag_350\n      jump\t// in\n    tag_353:\n        /* \"#utility.yul\":8789:8792   */\n      dup3\n        /* \"#utility.yul\":8782:8819   */\n      mstore\n        /* \"#utility.yul\":8707:8825   */\n      pop\n      pop\n      jump\t// out\n        /* \"#utility.yul\":8831:9163   */\n    tag_48:\n        /* \"#utility.yul\":8952:8956   */\n      0x00\n        /* \"#utility.yul\":8990:8992   */\n      0x40\n        /* \"#utility.yul\":8979:8988   */\n      dup3\n        /* \"#utility.yul\":8975:8993   */\n      add\n        /* \"#utility.yul\":8967:8993   */\n      swap1\n      pop\n        /* \"#utility.yul\":9003:9074   */\n      tag_355\n        /* \"#utility.yul\":9071:9072   */\n      0x00\n        /* \"#utility.yul\":9060:9069   */\n      dup4\n        /* \"#utility.yul\":9056:9073   */\n      add\n        /* \"#utility.yul\":9047:9053   */\n      dup6\n        /* \"#utility.yul\":9003:9074   */\n      tag_304\n      jump\t// in\n    tag_355:\n        /* \"#utility.yul\":9084:9156   */\n      tag_356\n        /* \"#utility.yul\":9152:9154   */\n      0x20\n        /* \"#utility.yul\":9141:9150   */\n      dup4\n        /* \"#utility.yul\":9137:9155   */\n      add\n        /* \"#utility.yul\":9128:9134   */\n      dup5\n        /* \"#utility.yul\":9084:9156   */\n      tag_304\n      jump\t// in\n    tag_356:\n        /* \"#utility.yul\":8831:9163   */\n      swap4\n      swap3\n      pop\n      pop\n      pop\n      jump\t// out\n        /* \"#utility.yul\":9169:9654   */\n    tag_18:\n        /* \"#utility.yul\":9368:9372   */\n      0x00\n        /* \"#utility.yul\":9406:9408   */\n      0x20\n        /* \"#utility.yul\":9395:9404   */\n      dup3\n        /* \"#utility.yul\":9391:9409   */\n      add\n        /* \"#utility.yul\":9383:9409   */\n      swap1\n      pop\n        /* \"#utility.yul\":9455:9464   */\n      dup2\n        /* \"#utility.yul\":9449:9453   */\n      dup2\n        /* \"#utility.yul\":9445:9465   */\n      sub\n        /* \"#utility.yul\":9441:9442   */\n      0x00\n        /* \"#utility.yul\":9430:9439   */\n      dup4\n        /* \"#utility.yul\":9426:9443   */\n      add\n        /* \"#utility.yul\":9419:9466   */\n      mstore\n        /* \"#utility.yul\":9483:9647   */\n      tag_358\n        /* \"#utility.yul\":9642:9646   */\n      dup2\n        /* \"#utility.yul\":9633:9639   */\n      dup5\n        /* \"#utility.yul\":9483:9647   */\n      tag_307\n      jump\t// in\n    tag_358:\n        /* \"#utility.yul\":9475:9647   */\n      swap1\n      pop\n        /* \"#utility.yul\":9169:9654   */\n      swap3\n      swap2\n      pop\n      pop\n      jump\t// out\n        /* \"#utility.yul\":9660:9882   */\n    tag_54:\n        /* \"#utility.yul\":9753:9757   */\n      0x00\n        /* \"#utility.yul\":9791:9793   */\n      0x20\n        /* \"#utility.yul\":9780:9789   */\n      dup3\n        /* \"#utility.yul\":9776:9794   */\n      add\n        /* \"#utility.yul\":9768:9794   */\n      swap1\n      pop\n        /* \"#utility.yul\":9804:9875   */\n      tag_360\n        /* \"#utility.yul\":9872:9873   */\n      0x00\n        /* \"#utility.yul\":9861:9870   */\n      dup4\n        /* \"#utility.yul\":9857:9874   */\n      add\n        /* \"#utility.yul\":9848:9854   */\n      dup5\n        /* \"#utility.yul\":9804:9875   */\n      tag_351\n      jump\t// in\n    tag_360:\n        /* \"#utility.yul\":9660:9882   */\n      swap3\n      swap2\n      pop\n      pop\n      jump\t// out\n        /* \"#utility.yul\":9888:10976   */\n    tag_35:\n        /* \"#utility.yul\":10197:10201   */\n      0x00\n        /* \"#utility.yul\":10235:10238   */\n      0x0100\n        /* \"#utility.yul\":10224:10233   */\n      dup3\n        /* \"#utility.yul\":10220:10239   */\n      add\n        /* \"#utility.yul\":10212:10239   */\n      swap1\n      pop\n        /* \"#utility.yul\":10249:10320   */\n      tag_362\n        /* \"#utility.yul\":10317:10318   */\n      0x00\n        /* \"#utility.yul\":10306:10315   */\n      dup4\n        /* \"#utility.yul\":10302:10319   */\n      add\n        /* \"#utility.yul\":10293:10299   */\n      dup12\n        /* \"#utility.yul\":10249:10320   */\n      tag_351\n      jump\t// in\n    tag_362:\n        /* \"#utility.yul\":10367:10376   */\n      dup2\n        /* \"#utility.yul\":10361:10365   */\n      dup2\n        /* \"#utility.yul\":10357:10377   */\n      sub\n        /* \"#utility.yul\":10352:10354   */\n      0x20\n        /* \"#utility.yul\":10341:10350   */\n      dup4\n        /* \"#utility.yul\":10337:10355   */\n      add\n        /* \"#utility.yul\":10330:10378   */\n      mstore\n        /* \"#utility.yul\":10395:10473   */\n      tag_363\n        /* \"#utility.yul\":10468:10472   */\n      dup2\n        /* \"#utility.yul\":10459:10465   */\n      dup11\n        /* \"#utility.yul\":10395:10473   */\n      tag_331\n      jump\t// in\n    tag_363:\n        /* \"#utility.yul\":10387:10473   */\n      swap1\n      pop\n        /* \"#utility.yul\":10483:10555   */\n      tag_364\n        /* \"#utility.yul\":10551:10553   */\n      0x40\n        /* \"#utility.yul\":10540:10549   */\n      dup4\n        /* \"#utility.yul\":10536:10554   */\n      add\n        /* \"#utility.yul\":10527:10533   */\n      dup10\n        /* \"#utility.yul\":10483:10555   */\n      tag_351\n      jump\t// in\n    tag_364:\n        /* \"#utility.yul\":10565:10637   */\n      tag_365\n        /* \"#utility.yul\":10633:10635   */\n      0x60\n        /* \"#utility.yul\":10622:10631   */\n      dup4\n        /* \"#utility.yul\":10618:10636   */\n      add\n        /* \"#utility.yul\":10609:10615   */\n      dup9\n        /* \"#utility.yul\":10565:10637   */\n      tag_304\n      jump\t// in\n    tag_365:\n        /* \"#utility.yul\":10647:10720   */\n      tag_366\n        /* \"#utility.yul\":10715:10718   */\n      0x80\n        /* \"#utility.yul\":10704:10713   */\n      dup4\n        /* \"#utility.yul\":10700:10719   */\n      add\n        /* \"#utility.yul\":10691:10697   */\n      dup8\n        /* \"#utility.yul\":10647:10720   */\n      tag_304\n      jump\t// in\n    tag_366:\n        /* \"#utility.yul\":10730:10803   */\n      tag_367\n        /* \"#utility.yul\":10798:10801   */\n      0xa0\n        /* \"#utility.yul\":10787:10796   */\n      dup4\n        /* \"#utility.yul\":10783:10802   */\n      add\n        /* \"#utility.yul\":10774:10780   */\n      dup7\n        /* \"#utility.yul\":10730:10803   */\n      tag_351\n      jump\t// in\n    tag_367:\n        /* \"#utility.yul\":10813:10886   */\n      tag_368\n        /* \"#utility.yul\":10881:10884   */\n      0xc0\n        /* \"#utility.yul\":10870:10879   */\n      dup4\n        /* \"#utility.yul\":10866:10885   */\n      add\n        /* \"#utility.yul\":10857:10863   */\n      dup6\n        /* \"#utility.yul\":10813:10886   */\n      tag_351\n      jump\t// in\n    tag_368:\n        /* \"#utility.yul\":10896:10969   */\n      tag_369\n        /* \"#utility.yul\":10964:10967   */\n      0xe0\n        /* \"#utility.yul\":10953:10962   */\n      dup4\n        /* \"#utility.yul\":10949:10968   */\n      add\n        /* \"#utility.yul\":10940:10946   */\n      dup5\n        /* \"#utility.yul\":10896:10969   */\n      tag_351\n      jump\t// in\n    tag_369:\n        /* \"#utility.yul\":9888:10976   */\n      swap10\n      swap9\n      pop\n      pop\n      pop\n      pop\n      pop\n      pop\n      pop\n      pop\n      pop\n      jump\t// out\n        /* \"#utility.yul\":10982:11111   */\n    tag_239:\n        /* \"#utility.yul\":11016:11022   */\n      0x00\n        /* \"#utility.yul\":11043:11063   */\n      tag_371\n      tag_372\n      jump\t// in\n    tag_371:\n        /* \"#utility.yul\":11033:11063   */\n      swap1\n      pop\n        /* \"#utility.yul\":11072:11105   */\n      tag_373\n        /* \"#utility.yul\":11100:11104   */\n      dup3\n        /* \"#utility.yul\":11092:11098   */\n      dup3\n        /* \"#utility.yul\":11072:11105   */\n      tag_374\n      jump\t// in\n    tag_373:\n        /* \"#utility.yul\":10982:11111   */\n      swap2\n      swap1\n      pop\n      jump\t// out\n        /* \"#utility.yul\":11117:11192   */\n    tag_372:\n        /* \"#utility.yul\":11150:11156   */\n      0x00\n        /* \"#utility.yul\":11183:11185   */\n      0x40\n        /* \"#utility.yul\":11177:11186   */\n      mload\n        /* \"#utility.yul\":11167:11186   */\n      swap1\n      pop\n        /* \"#utility.yul\":11117:11192   */\n      swap1\n      jump\t// out\n        /* \"#utility.yul\":11198:11506   */\n    tag_238:\n        /* \"#utility.yul\":11260:11264   */\n      0x00\n        /* \"#utility.yul\":11350:11368   */\n      0xffffffffffffffff\n        /* \"#utility.yul\":11342:11348   */\n      dup3\n        /* \"#utility.yul\":11339:11369   */\n      gt\n        /* \"#utility.yul\":11336:11392   */\n      iszero\n      tag_377\n      jumpi\n        /* \"#utility.yul\":11372:11390   */\n      tag_378\n      tag_379\n      jump\t// in\n    tag_378:\n        /* \"#utility.yul\":11336:11392   */\n    tag_377:\n        /* \"#utility.yul\":11410:11439   */\n      tag_380\n        /* \"#utility.yul\":11432:11438   */\n      dup3\n        /* \"#utility.yul\":11410:11439   */\n      tag_330\n      jump\t// in\n    tag_380:\n        /* \"#utility.yul\":11402:11439   */\n      swap1\n      pop\n        /* \"#utility.yul\":11494:11498   */\n      0x20\n        /* \"#utility.yul\":11488:11492   */\n      dup2\n        /* \"#utility.yul\":11484:11499   */\n      add\n        /* \"#utility.yul\":11476:11499   */\n      swap1\n      pop\n        /* \"#utility.yul\":11198:11506   */\n      swap2\n      swap1\n      pop\n      jump\t// out\n        /* \"#utility.yul\":11512:11672   */\n    tag_314:\n        /* \"#utility.yul\":11607:11611   */\n      0x00\n        /* \"#utility.yul\":11630:11633   */\n      dup2\n        /* \"#utility.yul\":11622:11633   */\n      swap1\n      pop\n        /* \"#utility.yul\":11660:11664   */\n      0x20\n        /* \"#utility.yul\":11655:11658   */\n      dup3\n        /* \"#utility.yul\":11651:11665   */\n      add\n        /* \"#utility.yul\":11643:11665   */\n      swap1\n      pop\n        /* \"#utility.yul\":11512:11672   */\n      swap2\n      swap1\n      pop\n      jump\t// out\n        /* \"#utility.yul\":11678:11820   */\n    tag_310:\n        /* \"#utility.yul\":11773:11779   */\n      0x00\n        /* \"#utility.yul\":11807:11812   */\n      dup2\n        /* \"#utility.yul\":11801:11813   */\n      mload\n        /* \"#utility.yul\":11791:11813   */\n      swap1\n      pop\n        /* \"#utility.yul\":11678:11820   */\n      swap2\n      swap1\n      pop\n      jump\t// out\n        /* \"#utility.yul\":11826:11925   */\n    tag_324:\n        /* \"#utility.yul\":11878:11884   */\n      0x00\n        /* \"#utility.yul\":11912:11917   */\n      dup2\n        /* \"#utility.yul\":11906:11918   */\n      mload\n        /* \"#utility.yul\":11896:11918   */\n      swap1\n      pop\n        /* \"#utility.yul\":11826:11925   */\n      swap2\n      swap1\n      pop\n      jump\t// out\n        /* \"#utility.yul\":11931:12072   */\n    tag_320:\n        /* \"#utility.yul\":12029:12033   */\n      0x00\n        /* \"#utility.yul\":12061:12065   */\n      0x20\n        /* \"#utility.yul\":12056:12059   */\n      dup3\n        /* \"#utility.yul\":12052:12066   */\n      add\n        /* \"#utility.yul\":12044:12066   */\n      swap1\n      pop\n        /* \"#utility.yul\":11931:12072   */\n      swap2\n      swap1\n      pop\n      jump\t// out\n        /* \"#utility.yul\":12078:12290   */\n    tag_312:\n        /* \"#utility.yul\":12205:12216   */\n      0x00\n        /* \"#utility.yul\":12239:12245   */\n      dup3\n        /* \"#utility.yul\":12234:12237   */\n      dup3\n        /* \"#utility.yul\":12227:12246   */\n      mstore\n        /* \"#utility.yul\":12279:12283   */\n      0x20\n        /* \"#utility.yul\":12274:12277   */\n      dup3\n        /* \"#utility.yul\":12270:12284   */\n      add\n        /* \"#utility.yul\":12255:12284   */\n      swap1\n      pop\n        /* \"#utility.yul\":12078:12290   */\n      swap3\n      swap2\n      pop\n      pop\n      jump\t// out\n        /* \"#utility.yul\":12296:12455   */\n    tag_326:\n        /* \"#utility.yul\":12370:12381   */\n      0x00\n        /* \"#utility.yul\":12404:12410   */\n      dup3\n        /* \"#utility.yul\":12399:12402   */\n      dup3\n        /* \"#utility.yul\":12392:12411   */\n      mstore\n        /* \"#utility.yul\":12444:12448   */\n      0x20\n        /* \"#utility.yul\":12439:12442   */\n      dup3\n        /* \"#utility.yul\":12435:12449   */\n      add\n        /* \"#utility.yul\":12420:12449   */\n      swap1\n      pop\n        /* \"#utility.yul\":12296:12455   */\n      swap3\n      swap2\n      pop\n      pop\n      jump\t// out\n        /* \"#utility.yul\":12461:12630   */\n    tag_335:\n        /* \"#utility.yul\":12545:12556   */\n      0x00\n        /* \"#utility.yul\":12579:12585   */\n      dup3\n        /* \"#utility.yul\":12574:12577   */\n      dup3\n        /* \"#utility.yul\":12567:12586   */\n      mstore\n        /* \"#utility.yul\":12619:12623   */\n      0x20\n        /* \"#utility.yul\":12614:12617   */\n      dup3\n        /* \"#utility.yul\":12610:12624   */\n      add\n        /* \"#utility.yul\":12595:12624   */\n      swap1\n      pop\n        /* \"#utility.yul\":12461:12630   */\n      swap3\n      swap2\n      pop\n      pop\n      jump\t// out\n        /* \"#utility.yul\":12636:12941   */\n    tag_91:\n        /* \"#utility.yul\":12676:12679   */\n      0x00\n        /* \"#utility.yul\":12695:12715   */\n      tag_389\n        /* \"#utility.yul\":12713:12714   */\n      dup3\n        /* \"#utility.yul\":12695:12715   */\n      tag_350\n      jump\t// in\n    tag_389:\n        /* \"#utility.yul\":12690:12715   */\n      swap2\n      pop\n        /* \"#utility.yul\":12729:12749   */\n      tag_390\n        /* \"#utility.yul\":12747:12748   */\n      dup4\n        /* \"#utility.yul\":12729:12749   */\n      tag_350\n      jump\t// in\n    tag_390:\n        /* \"#utility.yul\":12724:12749   */\n      swap3\n      pop\n        /* \"#utility.yul\":12883:12884   */\n      dup3\n        /* \"#utility.yul\":12815:12881   */\n      0xffffffffffffffffffffffffffffffffffffffffffffffffffffffffffffffff\n        /* \"#utility.yul\":12811:12885   */\n      sub\n        /* \"#utility.yul\":12808:12809   */\n      dup3\n        /* \"#utility.yul\":12805:12886   */\n      gt\n        /* \"#utility.yul\":12802:12909   */\n      iszero\n      tag_391\n      jumpi\n        /* \"#utility.yul\":12889:12907   */\n      tag_392\n      tag_393\n      jump\t// in\n    tag_392:\n        /* \"#utility.yul\":12802:12909   */\n    tag_391:\n        /* \"#utility.yul\":12933:12934   */\n      dup3\n        /* \"#utility.yul\":12930:12931   */\n      dup3\n        /* \"#utility.yul\":12926:12935   */\n      add\n        /* \"#utility.yul\":12919:12935   */\n      swap1\n      pop\n        /* \"#utility.yul\":12636:12941   */\n      swap3\n      swap2\n      pop\n      pop\n      jump\t// out\n        /* \"#utility.yul\":12947:13295   */\n    tag_209:\n        /* \"#utility.yul\":12987:12994   */\n      0x00\n        /* \"#utility.yul\":13010:13030   */\n      tag_395\n        /* \"#utility.yul\":13028:13029   */\n      dup3\n        /* \"#utility.yul\":13010:13030   */\n      tag_350\n      jump\t// in\n    tag_395:\n        /* \"#utility.yul\":13005:13030   */\n      swap2\n      pop\n        /* \"#utility.yul\":13044:13064   */\n      tag_396\n        /* \"#utility.yul\":13062:13063   */\n      dup4\n        /* \"#utility.yul\":13044:13064   */\n      tag_350\n      jump\t// in\n    tag_396:\n        /* \"#utility.yul\":13039:13064   */\n      swap3\n      pop\n        /* \"#utility.yul\":13232:13233   */\n      dup2\n        /* \"#utility.yul\":13164:13230   */\n      0xffffffffffffffffffffffffffffffffffffffffffffffffffffffffffffffff\n        /* \"#utility.yul\":13160:13234   */\n      div\n        /* \"#utility.yul\":13157:13158   */\n      dup4\n        /* \"#utility.yul\":13154:13235   */\n      gt\n        /* \"#utility.yul\":13149:13150   */\n      dup3\n        /* \"#utility.yul\":13142:13151   */\n      iszero\n        /* \"#utility.yul\":13135:13152   */\n      iszero\n        /* \"#utility.yul\":13131:13236   */\n      and\n        /* \"#utility.yul\":13128:13259   */\n      iszero\n      tag_397\n      jumpi\n        /* \"#utility.yul\":13239:13257   */\n      tag_398\n      tag_393\n      jump\t// in\n    tag_398:\n        /* \"#utility.yul\":13128:13259   */\n    tag_397:\n        /* \"#utility.yul\":13287:13288   */\n      dup3\n        /* \"#utility.yul\":13284:13285   */\n      dup3\n        /* \"#utility.yul\":13280:13289   */\n      mul\n        /* \"#utility.yul\":13269:13289   */\n      swap1\n      pop\n        /* \"#utility.yul\":12947:13295   */\n      swap3\n      swap2\n      pop\n      pop\n      jump\t// out\n        /* \"#utility.yul\":13301:13492   */\n    tag_67:\n        /* \"#utility.yul\":13341:13345   */\n      0x00\n        /* \"#utility.yul\":13361:13381   */\n      tag_400\n        /* \"#utility.yul\":13379:13380   */\n      dup3\n        /* \"#utility.yul\":13361:13381   */\n      tag_350\n      jump\t// in\n    tag_400:\n        /* \"#utility.yul\":13356:13381   */\n      swap2\n      pop\n        /* \"#utility.yul\":13395:13415   */\n      tag_401\n        /* \"#utility.yul\":13413:13414   */\n      dup4\n        /* \"#utility.yul\":13395:13415   */\n      tag_350\n      jump\t// in\n    tag_401:\n        /* \"#utility.yul\":13390:13415   */\n      swap3\n      pop\n        /* \"#utility.yul\":13434:13435   */\n      dup3\n        /* \"#utility.yul\":13431:13432   */\n      dup3\n        /* \"#utility.yul\":13428:13436   */\n      lt\n        /* \"#utility.yul\":13425:13459   */\n      iszero\n      tag_402\n      jumpi\n        /* \"#utility.yul\":13439:13457   */\n      tag_403\n      tag_393\n      jump\t// in\n    tag_403:\n        /* \"#utility.yul\":13425:13459   */\n    tag_402:\n        /* \"#utility.yul\":13484:13485   */\n      dup3\n        /* \"#utility.yul\":13481:13482   */\n      dup3\n        /* \"#utility.yul\":13477:13486   */\n      sub\n        /* \"#utility.yul\":13469:13486   */\n      swap1\n      pop\n        /* \"#utility.yul\":13301:13492   */\n      swap3\n      swap2\n      pop\n      pop\n      jump\t// out\n        /* \"#utility.yul\":13498:13594   */\n    tag_303:\n        /* \"#utility.yul\":13535:13542   */\n      0x00\n        /* \"#utility.yul\":13564:13588   */\n      tag_405\n        /* \"#utility.yul\":13582:13587   */\n      dup3\n        /* \"#utility.yul\":13564:13588   */\n      tag_406\n      jump\t// in\n    tag_405:\n        /* \"#utility.yul\":13553:13588   */\n      swap1\n      pop\n        /* \"#utility.yul\":13498:13594   */\n      swap2\n      swap1\n      pop\n      jump\t// out\n        /* \"#utility.yul\":13600:13726   */\n    tag_406:\n        /* \"#utility.yul\":13637:13644   */\n      0x00\n        /* \"#utility.yul\":13677:13719   */\n      0xffffffffffffffffffffffffffffffffffffffff\n        /* \"#utility.yul\":13670:13675   */\n      dup3\n        /* \"#utility.yul\":13666:13720   */\n      and\n        /* \"#utility.yul\":13655:13720   */\n      swap1\n      pop\n        /* \"#utility.yul\":13600:13726   */\n      swap2\n      swap1\n      pop\n      jump\t// out\n        /* \"#utility.yul\":13732:13809   */\n    tag_350:\n        /* \"#utility.yul\":13769:13776   */\n      0x00\n        /* \"#utility.yul\":13798:13803   */\n      dup2\n        /* \"#utility.yul\":13787:13803   */\n      swap1\n      pop\n        /* \"#utility.yul\":13732:13809   */\n      swap2\n      swap1\n      pop\n      jump\t// out\n        /* \"#utility.yul\":13815:13969   */\n    tag_244:\n        /* \"#utility.yul\":13899:13905   */\n      dup3\n        /* \"#utility.yul\":13894:13897   */\n      dup2\n        /* \"#utility.yul\":13889:13892   */\n      dup4\n        /* \"#utility.yul\":13876:13906   */\n      calldatacopy\n        /* \"#utility.yul\":13961:13962   */\n      0x00\n        /* \"#utility.yul\":13952:13958   */\n      dup4\n        /* \"#utility.yul\":13947:13950   */\n      dup4\n        /* \"#utility.yul\":13943:13959   */\n      add\n        /* \"#utility.yul\":13936:13963   */\n      mstore\n        /* \"#utility.yul\":13815:13969   */\n      pop\n      pop\n      pop\n      jump\t// out\n        /* \"#utility.yul\":13975:14282   */\n    tag_328:\n        /* \"#utility.yul\":14043:14044   */\n      0x00\n        /* \"#utility.yul\":14053:14166   */\n    tag_411:\n        /* \"#utility.yul\":14067:14073   */\n      dup4\n        /* \"#utility.yul\":14064:14065   */\n      dup2\n        /* \"#utility.yul\":14061:14074   */\n      lt\n        /* \"#utility.yul\":14053:14166   */\n      iszero\n      tag_413\n      jumpi\n        /* \"#utility.yul\":14152:14153   */\n      dup1\n        /* \"#utility.yul\":14147:14150   */\n      dup3\n        /* \"#utility.yul\":14143:14154   */\n      add\n        /* \"#utility.yul\":14137:14155   */\n      mload\n        /* \"#utility.yul\":14133:14134   */\n      dup2\n        /* \"#utility.yul\":14128:14131   */\n      dup5\n        /* \"#utility.yul\":14124:14135   */\n      add\n        /* \"#utility.yul\":14117:14156   */\n      mstore\n        /* \"#utility.yul\":14089:14091   */\n      0x20\n        /* \"#utility.yul\":14086:14087   */\n      dup2\n        /* \"#utility.yul\":14082:14092   */\n      add\n        /* \"#utility.yul\":14077:14092   */\n      swap1\n      pop\n        /* \"#utility.yul\":14053:14166   */\n      jump(tag_411)\n    tag_413:\n        /* \"#utility.yul\":14184:14190   */\n      dup4\n        /* \"#utility.yul\":14181:14182   */\n      dup2\n        /* \"#utility.yul\":14178:14191   */\n      gt\n        /* \"#utility.yul\":14175:14276   */\n      iszero\n      tag_414\n      jumpi\n        /* \"#utility.yul\":14264:14265   */\n      0x00\n        /* \"#utility.yul\":14255:14261   */\n      dup5\n        /* \"#utility.yul\":14250:14253   */\n      dup5\n        /* \"#utility.yul\":14246:14262   */\n      add\n        /* \"#utility.yul\":14239:14266   */\n      mstore\n        /* \"#utility.yul\":14175:14276   */\n    tag_414:\n        /* \"#utility.yul\":14024:14282   */\n      pop\n        /* \"#utility.yul\":13975:14282   */\n      pop\n      pop\n      pop\n      jump\t// out\n        /* \"#utility.yul\":14288:14608   */\n    tag_60:\n        /* \"#utility.yul\":14332:14338   */\n      0x00\n        /* \"#utility.yul\":14369:14370   */\n      0x02\n        /* \"#utility.yul\":14363:14367   */\n      dup3\n        /* \"#utility.yul\":14359:14371   */\n      div\n        /* \"#utility.yul\":14349:14371   */\n      swap1\n      pop\n        /* \"#utility.yul\":14416:14417   */\n      0x01\n        /* \"#utility.yul\":14410:14414   */\n      dup3\n        /* \"#utility.yul\":14406:14418   */\n      and\n        /* \"#utility.yul\":14437:14455   */\n      dup1\n        /* \"#utility.yul\":14427:14508   */\n      tag_416\n      jumpi\n        /* \"#utility.yul\":14493:14497   */\n      0x7f\n        /* \"#utility.yul\":14485:14491   */\n      dup3\n        /* \"#utility.yul\":14481:14498   */\n      and\n        /* \"#utility.yul\":14471:14498   */\n      swap2\n      pop\n        /* \"#utility.yul\":14427:14508   */\n    tag_416:\n        /* \"#utility.yul\":14555:14557   */\n      0x20\n        /* \"#utility.yul\":14547:14553   */\n      dup3\n        /* \"#utility.yul\":14544:14558   */\n      lt\n        /* \"#utility.yul\":14524:14542   */\n      dup2\n        /* \"#utility.yul\":14521:14559   */\n      eq\n        /* \"#utility.yul\":14518:14602   */\n      iszero\n      tag_417\n      jumpi\n        /* \"#utility.yul\":14574:14592   */\n      tag_418\n      tag_419\n      jump\t// in\n    tag_418:\n        /* \"#utility.yul\":14518:14602   */\n    tag_417:\n        /* \"#utility.yul\":14339:14608   */\n      pop\n        /* \"#utility.yul\":14288:14608   */\n      swap2\n      swap1\n      pop\n      jump\t// out\n        /* \"#utility.yul\":14614:14895   */\n    tag_374:\n        /* \"#utility.yul\":14697:14724   */\n      tag_421\n        /* \"#utility.yul\":14719:14723   */\n      dup3\n        /* \"#utility.yul\":14697:14724   */\n      tag_330\n      jump\t// in\n    tag_421:\n        /* \"#utility.yul\":14689:14695   */\n      dup2\n        /* \"#utility.yul\":14685:14725   */\n      add\n        /* \"#utility.yul\":14827:14833   */\n      dup2\n        /* \"#utility.yul\":14815:14825   */\n      dup2\n        /* \"#utility.yul\":14812:14834   */\n      lt\n        /* \"#utility.yul\":14791:14809   */\n      0xffffffffffffffff\n        /* \"#utility.yul\":14779:14789   */\n      dup3\n        /* \"#utility.yul\":14776:14810   */\n      gt\n        /* \"#utility.yul\":14773:14835   */\n      or\n        /* \"#utility.yul\":14770:14858   */\n      iszero\n      tag_422\n      jumpi\n        /* \"#utility.yul\":14838:14856   */\n      tag_423\n      tag_379\n      jump\t// in\n    tag_423:\n        /* \"#utility.yul\":14770:14858   */\n    tag_422:\n        /* \"#utility.yul\":14878:14888   */\n      dup1\n        /* \"#utility.yul\":14874:14876   */\n      0x40\n        /* \"#utility.yul\":14867:14889   */\n      mstore\n        /* \"#utility.yul\":14657:14895   */\n      pop\n        /* \"#utility.yul\":14614:14895   */\n      pop\n      pop\n      jump\t// out\n        /* \"#utility.yul\":14901:15134   */\n    tag_84:\n        /* \"#utility.yul\":14940:14943   */\n      0x00\n        /* \"#utility.yul\":14963:14987   */\n      tag_425\n        /* \"#utility.yul\":14981:14986   */\n      dup3\n        /* \"#utility.yul\":14963:14987   */\n      tag_350\n      jump\t// in\n    tag_425:\n        /* \"#utility.yul\":14954:14987   */\n      swap2\n      pop\n        /* \"#utility.yul\":15009:15075   */\n      0xffffffffffffffffffffffffffffffffffffffffffffffffffffffffffffffff\n        /* \"#utility.yul\":15002:15007   */\n      dup3\n        /* \"#utility.yul\":14999:15076   */\n      eq\n        /* \"#utility.yul\":14996:15099   */\n      iszero\n      tag_426\n      jumpi\n        /* \"#utility.yul\":15079:15097   */\n      tag_427\n      tag_393\n      jump\t// in\n    tag_427:\n        /* \"#utility.yul\":14996:15099   */\n    tag_426:\n        /* \"#utility.yul\":15126:15127   */\n      0x01\n        /* \"#utility.yul\":15119:15124   */\n      dup3\n        /* \"#utility.yul\":15115:15128   */\n      add\n        /* \"#utility.yul\":15108:15128   */\n      swap1\n      pop\n        /* \"#utility.yul\":14901:15134   */\n      swap2\n      swap1\n      pop\n      jump\t// out\n        /* \"#utility.yul\":15140:15320   */\n    tag_393:\n        /* \"#utility.yul\":15188:15265   */\n      0x4e487b7100000000000000000000000000000000000000000000000000000000\n        /* \"#utility.yul\":15185:15186   */\n      0x00\n        /* \"#utility.yul\":15178:15266   */\n      mstore\n        /* \"#utility.yul\":15285:15289   */\n      0x11\n        /* \"#utility.yul\":15282:15283   */\n      0x04\n        /* \"#utility.yul\":15275:15290   */\n      mstore\n        /* \"#utility.yul\":15309:15313   */\n      0x24\n        /* \"#utility.yul\":15306:15307   */\n      0x00\n        /* \"#utility.yul\":15299:15314   */\n      revert\n        /* \"#utility.yul\":15326:15506   */\n    tag_419:\n        /* \"#utility.yul\":15374:15451   */\n      0x4e487b7100000000000000000000000000000000000000000000000000000000\n        /* \"#utility.yul\":15371:15372   */\n      0x00\n        /* \"#utility.yul\":15364:15452   */\n      mstore\n        /* \"#utility.yul\":15471:15475   */\n      0x22\n        /* \"#utility.yul\":15468:15469   */\n      0x04\n        /* \"#utility.yul\":15461:15476   */\n      mstore\n        /* \"#utility.yul\":15495:15499   */\n      0x24\n        /* \"#utility.yul\":15492:15493   */\n      0x00\n        /* \"#utility.yul\":15485:15500   */\n      revert\n        /* \"#utility.yul\":15512:15692   */\n    tag_130:\n        /* \"#utility.yul\":15560:15637   */\n      0x4e487b7100000000000000000000000000000000000000000000000000000000\n        /* \"#utility.yul\":15557:15558   */\n      0x00\n        /* \"#utility.yul\":15550:15638   */\n      mstore\n        /* \"#utility.yul\":15657:15661   */\n      0x31\n        /* \"#utility.yul\":15654:15655   */\n      0x04\n        /* \"#utility.yul\":15647:15662   */\n      mstore\n        /* \"#utility.yul\":15681:15685   */\n      0x24\n        /* \"#utility.yul\":15678:15679   */\n      0x00\n        /* \"#utility.yul\":15671:15686   */\n      revert\n        /* \"#utility.yul\":15698:15878   */\n    tag_70:\n        /* \"#utility.yul\":15746:15823   */\n      0x4e487b7100000000000000000000000000000000000000000000000000000000\n        /* \"#utility.yul\":15743:15744   */\n      0x00\n        /* \"#utility.yul\":15736:15824   */\n      mstore\n        /* \"#utility.yul\":15843:15847   */\n      0x32\n        /* \"#utility.yul\":15840:15841   */\n      0x04\n        /* \"#utility.yul\":15833:15848   */\n      mstore\n        /* \"#utility.yul\":15867:15871   */\n      0x24\n        /* \"#utility.yul\":15864:15865   */\n      0x00\n        /* \"#utility.yul\":15857:15872   */\n      revert\n        /* \"#utility.yul\":15884:16064   */\n    tag_379:\n        /* \"#utility.yul\":15932:16009   */\n      0x4e487b7100000000000000000000000000000000000000000000000000000000\n        /* \"#utility.yul\":15929:15930   */\n      0x00\n        /* \"#utility.yul\":15922:16010   */\n      mstore\n        /* \"#utility.yul\":16029:16033   */\n      0x41\n        /* \"#utility.yul\":16026:16027   */\n      0x04\n        /* \"#utility.yul\":16019:16034   */\n      mstore\n        /* \"#utility.yul\":16053:16057   */\n      0x24\n        /* \"#utility.yul\":16050:16051   */\n      0x00\n        /* \"#utility.yul\":16043:16058   */\n      revert\n        /* \"#utility.yul\":16070:16187   */\n    tag_253:\n        /* \"#utility.yul\":16179:16180   */\n      0x00\n        /* \"#utility.yul\":16176:16177   */\n      dup1\n        /* \"#utility.yul\":16169:16181   */\n      revert\n        /* \"#utility.yul\":16193:16310   */\n    tag_242:\n        /* \"#utility.yul\":16302:16303   */\n      0x00\n        /* \"#utility.yul\":16299:16300   */\n      dup1\n        /* \"#utility.yul\":16292:16304   */\n      revert\n        /* \"#utility.yul\":16316:16433   */\n    tag_269:\n        /* \"#utility.yul\":16425:16426   */\n      0x00\n        /* \"#utility.yul\":16422:16423   */\n      dup1\n        /* \"#utility.yul\":16415:16427   */\n      revert\n        /* \"#utility.yul\":16439:16556   */\n    tag_262:\n        /* \"#utility.yul\":16548:16549   */\n      0x00\n        /* \"#utility.yul\":16545:16546   */\n      dup1\n        /* \"#utility.yul\":16538:16550   */\n      revert\n        /* \"#utility.yul\":16562:16664   */\n    tag_330:\n        /* \"#utility.yul\":16603:16609   */\n      0x00\n        /* \"#utility.yul\":16654:16656   */\n      0x1f\n        /* \"#utility.yul\":16650:16657   */\n      not\n        /* \"#utility.yul\":16645:16647   */\n      0x1f\n        /* \"#utility.yul\":16638:16643   */\n      dup4\n        /* \"#utility.yul\":16634:16648   */\n      add\n        /* \"#utility.yul\":16630:16658   */\n      and\n        /* \"#utility.yul\":16620:16658   */\n      swap1\n      pop\n        /* \"#utility.yul\":16562:16664   */\n      swap2\n      swap1\n      pop\n      jump\t// out\n        /* \"#utility.yul\":16670:16792   */\n    tag_248:\n        /* \"#utility.yul\":16743:16767   */\n      tag_439\n        /* \"#utility.yul\":16761:16766   */\n      dup2\n        /* \"#utility.yul\":16743:16767   */\n      tag_303\n      jump\t// in\n    tag_439:\n        /* \"#utility.yul\":16736:16741   */\n      dup2\n        /* \"#utility.yul\":16733:16768   */\n      eq\n        /* \"#utility.yul\":16723:16786   */\n      tag_440\n      jumpi\n        /* \"#utility.yul\":16782:16783   */\n      0x00\n        /* \"#utility.yul\":16779:16780   */\n      dup1\n        /* \"#utility.yul\":16772:16784   */\n      revert\n        /* \"#utility.yul\":16723:16786   */\n    tag_440:\n        /* \"#utility.yul\":16670:16792   */\n      pop\n      jump\t// out\n        /* \"#utility.yul\":16798:16920   */\n    tag_258:\n        /* \"#utility.yul\":16871:16895   */\n      tag_442\n        /* \"#utility.yul\":16889:16894   */\n      dup2\n        /* \"#utility.yul\":16871:16895   */\n      tag_350\n      jump\t// in\n    tag_442:\n        /* \"#utility.yul\":16864:16869   */\n      dup2\n        /* \"#utility.yul\":16861:16896   */\n      eq\n        /* \"#utility.yul\":16851:16914   */\n      tag_443\n      jumpi\n        /* \"#utility.yul\":16910:16911   */\n      0x00\n        /* \"#utility.yul\":16907:16908   */\n      dup1\n        /* \"#utility.yul\":16900:16912   */\n      revert\n        /* \"#utility.yul\":16851:16914   */\n    tag_443:\n        /* \"#utility.yul\":16798:16920   */\n      pop\n      jump\t// out\n\n    auxdata: 0xa2646970667358221220b9720ca1b81952e2e6768f69fd7232175ea4c92b2b2b605d9e58aad15eb4330364736f6c63430008070033\n}\n",
				"bytecode": {
					"linkReferences": {},
					"object": "608060405234801561001057600080fd5b50612139806100206000396000f3fe608060405234801561001057600080fd5b50600436106100935760003560e01c806380c9419e1161006657806380c9419e1461011c578063904cc17514610153578063ac8b130014610183578063bb29998e1461019f578063f8a02d84146101d057610093565b8063377e6ff7146100985780635102bc9d146100c8578063575b70d0146100e457806369ba1a7514610100575b600080fd5b6100b260048036038101906100ad9190611868565b610200565b6040516100bf9190611c39565b60405180910390f35b6100e260048036038101906100dd919061197a565b61040f565b005b6100fe60048036038101906100f991906119d6565b610458565b005b61011a6004803603810190610115919061194d565b610755565b005b6101366004803603810190610131919061194d565b610cdf565b60405161014a989796959493929190611c76565b60405180910390f35b61016d6004803603810190610168919061194d565b610dff565b60405161017a9190611c39565b60405180910390f35b61019d600480360381019061019891906118de565b6111bc565b005b6101b960048036038101906101b49190611868565b6115b8565b6040516101c7929190611c10565b60405180910390f35b6101ea60048036038101906101e59190611895565b6115c6565b6040516101f79190611c5b565b60405180910390f35b6060600360008373ffffffffffffffffffffffffffffffffffffffff1673ffffffffffffffffffffffffffffffffffffffff168152602001908152602001600020805480602002602001604051908101604052809291908181526020016000905b828210156104045783829060005260206000209060080201604051806101000160405290816000820154815260200160018201805461029f90611f19565b80601f01602080910402602001604051908101604052809291908181526020018280546102cb90611f19565b80156103185780601f106102ed57610100808354040283529160200191610318565b820191906000526020600020905b8154815290600101906020018083116102fb57829003601f168201915b50505050508152602001600282015481526020016003820160009054906101000a900473ffffffffffffffffffffffffffffffffffffffff1673ffffffffffffffffffffffffffffffffffffffff1673ffffffffffffffffffffffffffffffffffffffff1681526020016004820160009054906101000a900473ffffffffffffffffffffffffffffffffffffffff1673ffffffffffffffffffffffffffffffffffffffff1673ffffffffffffffffffffffffffffffffffffffff168152602001600582015481526020016006820154815260200160078201548152505081526020019060010190610261565b505050509050919050565b806001808461041e9190611e67565b8154811061042f5761042e612052565b5b9060005260206000209060080201600101908051906020019061045392919061165e565b505050565b6000805b6004600086815260200190815260200160002080549050811015610524578273ffffffffffffffffffffffffffffffffffffffff16600460006001886104a29190611e67565b815260200190815260200160002082815481106104c2576104c1612052565b5b9060005260206000200160009054906101000a900473ffffffffffffffffffffffffffffffffffffffff1673ffffffffffffffffffffffffffffffffffffffff16146105115760019150610524565b808061051c90611f7c565b91505061045c565b5080156105785760018060018661053b9190611e67565b8154811061054c5761054b612052565b5b9060005260206000209060080201600501600082825461056c9190611db7565b925050819055506105c1565b600a600180866105889190611e67565b8154811061059957610598612052565b5b906000526020600020906008020160050160008282546105b99190611db7565b925050819055505b600460006001866105d29190611e67565b8152602001908152602001600020829080600181540180825580915050600190039060005260206000200160009091909190916101000a81548173ffffffffffffffffffffffffffffffffffffffff021916908373ffffffffffffffffffffffffffffffffffffffff16021790555082600180866106509190611e67565b8154811061066157610660612052565b5b90600052602060002090600802016007015461067d9190611db7565b6001808661068b9190611e67565b8154811061069c5761069b612052565b5b906000526020600020906008020160070181905550600180856106bf9190611e67565b815481106106d0576106cf612052565b5b906000526020600020906008020160060154600180866106f09190611e67565b8154811061070157610700612052565b5b9060005260206000209060080201600701541061074f576002600180866107289190611e67565b8154811061073957610738612052565b5b9060005260206000209060080201600201819055505b50505050565b6003600180836107659190611e67565b8154811061077657610775612052565b5b906000526020600020906008020160020181905550600160026000600181526020019081526020016000208054905014156108735760026000600181526020019081526020016000208054806107cf576107ce612023565b5b60019003818190600052602060002090600802016000808201600090556001820160006107fc91906116e4565b60028201600090556003820160006101000a81549073ffffffffffffffffffffffffffffffffffffffff02191690556004820160006101000a81549073ffffffffffffffffffffffffffffffffffffffff021916905560058201600090556006820160009055600782016000905550509055610b50565b60005b600160026000600181526020019081526020016000208054905061089a9190611e67565b811015610a8b5781600260006001815260200190815260200160002082815481106108c8576108c7612052565b5b9060005260206000209060080201600001541415610a785760026000600181526020019081526020016000206001826109019190611db7565b8154811061091257610911612052565b5b90600052602060002090600802016002600060018152602001908152602001600020828154811061094657610945612052565b5b906000526020600020906008020160008201548160000155600182018160010190805461097290611f19565b61097d929190611724565b50600282015481600201556003820160009054906101000a900473ffffffffffffffffffffffffffffffffffffffff168160030160006101000a81548173ffffffffffffffffffffffffffffffffffffffff021916908373ffffffffffffffffffffffffffffffffffffffff1602179055506004820160009054906101000a900473ffffffffffffffffffffffffffffffffffffffff168160040160006101000a81548173ffffffffffffffffffffffffffffffffffffffff021916908373ffffffffffffffffffffffffffffffffffffffff1602179055506005820154816005015560068201548160060155600782015481600701559050505b8080610a8390611f7c565b915050610876565b506002600060018152602001908152602001600020805480610ab057610aaf612023565b5b6001900381819060005260206000209060080201600080820160009055600182016000610add91906116e4565b60028201600090556003820160006101000a81549073ffffffffffffffffffffffffffffffffffffffff02191690556004820160006101000a81549073ffffffffffffffffffffffffffffffffffffffff0219169055600582016000905560068201600090556007820160009055505090555b600260006003815260200190815260200160002060018083610b729190611e67565b81548110610b8357610b82612052565b5b90600052602060002090600802019080600181540180825580915050600190039060005260206000209060080201600090919091909150600082015481600001556001820181600101908054610bd890611f19565b610be3929190611724565b50600282015481600201556003820160009054906101000a900473ffffffffffffffffffffffffffffffffffffffff168160030160006101000a81548173ffffffffffffffffffffffffffffffffffffffff021916908373ffffffffffffffffffffffffffffffffffffffff1602179055506004820160009054906101000a900473ffffffffffffffffffffffffffffffffffffffff168160040160006101000a81548173ffffffffffffffffffffffffffffffffffffffff021916908373ffffffffffffffffffffffffffffffffffffffff160217905550600582015481600501556006820154816006015560078201548160070155505050565b60018181548110610cef57600080fd5b9060005260206000209060080201600091509050806000015490806001018054610d1890611f19565b80601f0160208091040260200160405190810160405280929190818152602001828054610d4490611f19565b8015610d915780601f10610d6657610100808354040283529160200191610d91565b820191906000526020600020905b815481529060010190602001808311610d7457829003601f168201915b5050505050908060020154908060030160009054906101000a900473ffffffffffffffffffffffffffffffffffffffff16908060040160009054906101000a900473ffffffffffffffffffffffffffffffffffffffff16908060050154908060060154908060070154905088565b60606000821415610fda576001805480602002602001604051908101604052809291908181526020016000905b82821015610fcf57838290600052602060002090600802016040518061010001604052908160008201548152602001600182018054610e6a90611f19565b80601f0160208091040260200160405190810160405280929190818152602001828054610e9690611f19565b8015610ee35780601f10610eb857610100808354040283529160200191610ee3565b820191906000526020600020905b815481529060010190602001808311610ec657829003601f168201915b50505050508152602001600282015481526020016003820160009054906101000a900473ffffffffffffffffffffffffffffffffffffffff1673ffffffffffffffffffffffffffffffffffffffff1673ffffffffffffffffffffffffffffffffffffffff1681526020016004820160009054906101000a900473ffffffffffffffffffffffffffffffffffffffff1673ffffffffffffffffffffffffffffffffffffffff1673ffffffffffffffffffffffffffffffffffffffff168152602001600582015481526020016006820154815260200160078201548152505081526020019060010190610e2c565b5050505090506111b7565b60026000838152602001908152602001600020805480602002602001604051908101604052809291908181526020016000905b828210156111b05783829060005260206000209060080201604051806101000160405290816000820154815260200160018201805461104b90611f19565b80601f016020809104026020016040519081016040528092919081815260200182805461107790611f19565b80156110c45780601f10611099576101008083540402835291602001916110c4565b820191906000526020600020905b8154815290600101906020018083116110a757829003601f168201915b50505050508152602001600282015481526020016003820160009054906101000a900473ffffffffffffffffffffffffffffffffffffffff1673ffffffffffffffffffffffffffffffffffffffff1673ffffffffffffffffffffffffffffffffffffffff1681526020016004820160009054906101000a900473ffffffffffffffffffffffffffffffffffffffff1673ffffffffffffffffffffffffffffffffffffffff1673ffffffffffffffffffffffffffffffffffffffff16815260200160058201548152602001600682015481526020016007820154815250508152602001906001019061100d565b5050505090505b919050565b6000808154809291906111ce90611f7c565b919050555060006040518061010001604052806000548152602001858152602001600181526020013373ffffffffffffffffffffffffffffffffffffffff1681526020018473ffffffffffffffffffffffffffffffffffffffff1681526020016000815260200183815260200160008152509050600181908060018154018082558091505060019003906000526020600020906008020160009091909190915060008201518160000155602082015181600101908051906020019061129492919061165e565b506040820151816002015560608201518160030160006101000a81548173ffffffffffffffffffffffffffffffffffffffff021916908373ffffffffffffffffffffffffffffffffffffffff16021790555060808201518160040160006101000a81548173ffffffffffffffffffffffffffffffffffffffff021916908373ffffffffffffffffffffffffffffffffffffffff16021790555060a0820151816005015560c0820151816006015560e08201518160070155505060026000600181526020019081526020016000208190806001815401808255809150506001900390600052602060002090600802016000909190919091506000820151816000015560208201518160010190805190602001906113b192919061165e565b506040820151816002015560608201518160030160006101000a81548173ffffffffffffffffffffffffffffffffffffffff021916908373ffffffffffffffffffffffffffffffffffffffff16021790555060808201518160040160006101000a81548173ffffffffffffffffffffffffffffffffffffffff021916908373ffffffffffffffffffffffffffffffffffffffff16021790555060a0820151816005015560c0820151816006015560e082015181600701555050600360003373ffffffffffffffffffffffffffffffffffffffff1673ffffffffffffffffffffffffffffffffffffffff1681526020019081526020016000208190806001815401808255809150506001900390600052602060002090600802016000909190919091506000820151816000015560208201518160010190805190602001906114f992919061165e565b506040820151816002015560608201518160030160006101000a81548173ffffffffffffffffffffffffffffffffffffffff021916908373ffffffffffffffffffffffffffffffffffffffff16021790555060808201518160040160006101000a81548173ffffffffffffffffffffffffffffffffffffffff021916908373ffffffffffffffffffffffffffffffffffffffff16021790555060a0820151816005015560c0820151816006015560e08201518160070155505050505050565b600080823391509150915091565b6000808290506000805b82518110156116535760008382815181106115ee576115ed612052565b5b602001015160f81c60f81b60f81c60ff16905060308110158015611613575060398111155b1561163f576030816116259190611e67565b600a846116329190611e0d565b61163c9190611db7565b92505b50808061164b90611f7c565b9150506115d0565b508092505050919050565b82805461166a90611f19565b90600052602060002090601f01602090048101928261168c57600085556116d3565b82601f106116a557805160ff19168380011785556116d3565b828001600101855582156116d3579182015b828111156116d25782518255916020019190600101906116b7565b5b5090506116e091906117b1565b5090565b5080546116f090611f19565b6000825580601f106117025750611721565b601f01602090049060005260206000209081019061172091906117b1565b5b50565b82805461173090611f19565b90600052602060002090601f01602090048101928261175257600085556117a0565b82601f1061176357805485556117a0565b828001600101855582156117a057600052602060002091601f016020900482015b8281111561179f578254825591600101919060010190611784565b5b5090506117ad91906117b1565b5090565b5b808211156117ca5760008160009055506001016117b2565b5090565b60006117e16117dc84611d20565b611cfb565b9050828152602081018484840111156117fd576117fc6120b5565b5b611808848285611ed7565b509392505050565b60008135905061181f816120d5565b92915050565b600082601f83011261183a576118396120b0565b5b813561184a8482602086016117ce565b91505092915050565b600081359050611862816120ec565b92915050565b60006020828403121561187e5761187d6120bf565b5b600061188c84828501611810565b91505092915050565b6000602082840312156118ab576118aa6120bf565b5b600082013567ffffffffffffffff8111156118c9576118c86120ba565b5b6118d584828501611825565b91505092915050565b6000806000606084860312156118f7576118f66120bf565b5b600084013567ffffffffffffffff811115611915576119146120ba565b5b61192186828701611825565b935050602061193286828701611810565b925050604061194386828701611853565b9150509250925092565b600060208284031215611963576119626120bf565b5b600061197184828501611853565b91505092915050565b60008060408385031215611991576119906120bf565b5b600061199f85828601611853565b925050602083013567ffffffffffffffff8111156119c0576119bf6120ba565b5b6119cc85828601611825565b9150509250929050565b6000806000606084860312156119ef576119ee6120bf565b5b60006119fd86828701611853565b9350506020611a0e86828701611853565b9250506040611a1f86828701611810565b9150509250925092565b6000611a358383611b42565b905092915050565b611a4681611e9b565b82525050565b611a5581611e9b565b82525050565b6000611a6682611d61565b611a708185611d84565b935083602082028501611a8285611d51565b8060005b85811015611abe5784840389528151611a9f8582611a29565b9450611aaa83611d77565b925060208a01995050600181019050611a86565b50829750879550505050505092915050565b6000611adb82611d6c565b611ae58185611d95565b9350611af5818560208601611ee6565b611afe816120c4565b840191505092915050565b6000611b1482611d6c565b611b1e8185611da6565b9350611b2e818560208601611ee6565b611b37816120c4565b840191505092915050565b600061010083016000830151611b5b6000860182611bf2565b5060208301518482036020860152611b738282611ad0565b9150506040830151611b886040860182611bf2565b506060830151611b9b6060860182611a3d565b506080830151611bae6080860182611a3d565b5060a0830151611bc160a0860182611bf2565b5060c0830151611bd460c0860182611bf2565b5060e0830151611be760e0860182611bf2565b508091505092915050565b611bfb81611ecd565b82525050565b611c0a81611ecd565b82525050565b6000604082019050611c256000830185611a4c565b611c326020830184611a4c565b9392505050565b60006020820190508181036000830152611c538184611a5b565b905092915050565b6000602082019050611c706000830184611c01565b92915050565b600061010082019050611c8c600083018b611c01565b8181036020830152611c9e818a611b09565b9050611cad6040830189611c01565b611cba6060830188611a4c565b611cc76080830187611a4c565b611cd460a0830186611c01565b611ce160c0830185611c01565b611cee60e0830184611c01565b9998505050505050505050565b6000611d05611d16565b9050611d118282611f4b565b919050565b6000604051905090565b600067ffffffffffffffff821115611d3b57611d3a612081565b5b611d44826120c4565b9050602081019050919050565b6000819050602082019050919050565b600081519050919050565b600081519050919050565b6000602082019050919050565b600082825260208201905092915050565b600082825260208201905092915050565b600082825260208201905092915050565b6000611dc282611ecd565b9150611dcd83611ecd565b9250827fffffffffffffffffffffffffffffffffffffffffffffffffffffffffffffffff03821115611e0257611e01611fc5565b5b828201905092915050565b6000611e1882611ecd565b9150611e2383611ecd565b9250817fffffffffffffffffffffffffffffffffffffffffffffffffffffffffffffffff0483118215151615611e5c57611e5b611fc5565b5b828202905092915050565b6000611e7282611ecd565b9150611e7d83611ecd565b925082821015611e9057611e8f611fc5565b5b828203905092915050565b6000611ea682611ead565b9050919050565b600073ffffffffffffffffffffffffffffffffffffffff82169050919050565b6000819050919050565b82818337600083830152505050565b60005b83811015611f04578082015181840152602081019050611ee9565b83811115611f13576000848401525b50505050565b60006002820490506001821680611f3157607f821691505b60208210811415611f4557611f44611ff4565b5b50919050565b611f54826120c4565b810181811067ffffffffffffffff82111715611f7357611f72612081565b5b80604052505050565b6000611f8782611ecd565b91507fffffffffffffffffffffffffffffffffffffffffffffffffffffffffffffffff821415611fba57611fb9611fc5565b5b600182019050919050565b7f4e487b7100000000000000000000000000000000000000000000000000000000600052601160045260246000fd5b7f4e487b7100000000000000000000000000000000000000000000000000000000600052602260045260246000fd5b7f4e487b7100000000000000000000000000000000000000000000000000000000600052603160045260246000fd5b7f4e487b7100000000000000000000000000000000000000000000000000000000600052603260045260246000fd5b7f4e487b7100000000000000000000000000000000000000000000000000000000600052604160045260246000fd5b600080fd5b600080fd5b600080fd5b600080fd5b6000601f19601f8301169050919050565b6120de81611e9b565b81146120e957600080fd5b50565b6120f581611ecd565b811461210057600080fd5b5056fea2646970667358221220b9720ca1b81952e2e6768f69fd7232175ea4c92b2b2b605d9e58aad15eb4330364736f6c63430008070033",
					"opcodes": "PUSH1 0x80 PUSH1 0x40 MSTORE CALLVALUE DUP1 ISZERO PUSH2 0x10 JUMPI PUSH1 0x0 DUP1 REVERT JUMPDEST POP PUSH2 0x2139 DUP1 PUSH2 0x20 PUSH1 0x0 CODECOPY PUSH1 0x0 RETURN INVALID PUSH1 0x80 PUSH1 0x40 MSTORE CALLVALUE DUP1 ISZERO PUSH2 0x10 JUMPI PUSH1 0x0 DUP1 REVERT JUMPDEST POP PUSH1 0x4 CALLDATASIZE LT PUSH2 0x93 JUMPI PUSH1 0x0 CALLDATALOAD PUSH1 0xE0 SHR DUP1 PUSH4 0x80C9419E GT PUSH2 0x66 JUMPI DUP1 PUSH4 0x80C9419E EQ PUSH2 0x11C JUMPI DUP1 PUSH4 0x904CC175 EQ PUSH2 0x153 JUMPI DUP1 PUSH4 0xAC8B1300 EQ PUSH2 0x183 JUMPI DUP1 PUSH4 0xBB29998E EQ PUSH2 0x19F JUMPI DUP1 PUSH4 0xF8A02D84 EQ PUSH2 0x1D0 JUMPI PUSH2 0x93 JUMP JUMPDEST DUP1 PUSH4 0x377E6FF7 EQ PUSH2 0x98 JUMPI DUP1 PUSH4 0x5102BC9D EQ PUSH2 0xC8 JUMPI DUP1 PUSH4 0x575B70D0 EQ PUSH2 0xE4 JUMPI DUP1 PUSH4 0x69BA1A75 EQ PUSH2 0x100 JUMPI JUMPDEST PUSH1 0x0 DUP1 REVERT JUMPDEST PUSH2 0xB2 PUSH1 0x4 DUP1 CALLDATASIZE SUB DUP2 ADD SWAP1 PUSH2 0xAD SWAP2 SWAP1 PUSH2 0x1868 JUMP JUMPDEST PUSH2 0x200 JUMP JUMPDEST PUSH1 0x40 MLOAD PUSH2 0xBF SWAP2 SWAP1 PUSH2 0x1C39 JUMP JUMPDEST PUSH1 0x40 MLOAD DUP1 SWAP2 SUB SWAP1 RETURN JUMPDEST PUSH2 0xE2 PUSH1 0x4 DUP1 CALLDATASIZE SUB DUP2 ADD SWAP1 PUSH2 0xDD SWAP2 SWAP1 PUSH2 0x197A JUMP JUMPDEST PUSH2 0x40F JUMP JUMPDEST STOP JUMPDEST PUSH2 0xFE PUSH1 0x4 DUP1 CALLDATASIZE SUB DUP2 ADD SWAP1 PUSH2 0xF9 SWAP2 SWAP1 PUSH2 0x19D6 JUMP JUMPDEST PUSH2 0x458 JUMP JUMPDEST STOP JUMPDEST PUSH2 0x11A PUSH1 0x4 DUP1 CALLDATASIZE SUB DUP2 ADD SWAP1 PUSH2 0x115 SWAP2 SWAP1 PUSH2 0x194D JUMP JUMPDEST PUSH2 0x755 JUMP JUMPDEST STOP JUMPDEST PUSH2 0x136 PUSH1 0x4 DUP1 CALLDATASIZE SUB DUP2 ADD SWAP1 PUSH2 0x131 SWAP2 SWAP1 PUSH2 0x194D JUMP JUMPDEST PUSH2 0xCDF JUMP JUMPDEST PUSH1 0x40 MLOAD PUSH2 0x14A SWAP9 SWAP8 SWAP7 SWAP6 SWAP5 SWAP4 SWAP3 SWAP2 SWAP1 PUSH2 0x1C76 JUMP JUMPDEST PUSH1 0x40 MLOAD DUP1 SWAP2 SUB SWAP1 RETURN JUMPDEST PUSH2 0x16D PUSH1 0x4 DUP1 CALLDATASIZE SUB DUP2 ADD SWAP1 PUSH2 0x168 SWAP2 SWAP1 PUSH2 0x194D JUMP JUMPDEST PUSH2 0xDFF JUMP JUMPDEST PUSH1 0x40 MLOAD PUSH2 0x17A SWAP2 SWAP1 PUSH2 0x1C39 JUMP JUMPDEST PUSH1 0x40 MLOAD DUP1 SWAP2 SUB SWAP1 RETURN JUMPDEST PUSH2 0x19D PUSH1 0x4 DUP1 CALLDATASIZE SUB DUP2 ADD SWAP1 PUSH2 0x198 SWAP2 SWAP1 PUSH2 0x18DE JUMP JUMPDEST PUSH2 0x11BC JUMP JUMPDEST STOP JUMPDEST PUSH2 0x1B9 PUSH1 0x4 DUP1 CALLDATASIZE SUB DUP2 ADD SWAP1 PUSH2 0x1B4 SWAP2 SWAP1 PUSH2 0x1868 JUMP JUMPDEST PUSH2 0x15B8 JUMP JUMPDEST PUSH1 0x40 MLOAD PUSH2 0x1C7 SWAP3 SWAP2 SWAP1 PUSH2 0x1C10 JUMP JUMPDEST PUSH1 0x40 MLOAD DUP1 SWAP2 SUB SWAP1 RETURN JUMPDEST PUSH2 0x1EA PUSH1 0x4 DUP1 CALLDATASIZE SUB DUP2 ADD SWAP1 PUSH2 0x1E5 SWAP2 SWAP1 PUSH2 0x1895 JUMP JUMPDEST PUSH2 0x15C6 JUMP JUMPDEST PUSH1 0x40 MLOAD PUSH2 0x1F7 SWAP2 SWAP1 PUSH2 0x1C5B JUMP JUMPDEST PUSH1 0x40 MLOAD DUP1 SWAP2 SUB SWAP1 RETURN JUMPDEST PUSH1 0x60 PUSH1 0x3 PUSH1 0x0 DUP4 PUSH20 0xFFFFFFFFFFFFFFFFFFFFFFFFFFFFFFFFFFFFFFFF AND PUSH20 0xFFFFFFFFFFFFFFFFFFFFFFFFFFFFFFFFFFFFFFFF AND DUP2 MSTORE PUSH1 0x20 ADD SWAP1 DUP2 MSTORE PUSH1 0x20 ADD PUSH1 0x0 KECCAK256 DUP1 SLOAD DUP1 PUSH1 0x20 MUL PUSH1 0x20 ADD PUSH1 0x40 MLOAD SWAP1 DUP2 ADD PUSH1 0x40 MSTORE DUP1 SWAP3 SWAP2 SWAP1 DUP2 DUP2 MSTORE PUSH1 0x20 ADD PUSH1 0x0 SWAP1 JUMPDEST DUP3 DUP3 LT ISZERO PUSH2 0x404 JUMPI DUP4 DUP3 SWAP1 PUSH1 0x0 MSTORE PUSH1 0x20 PUSH1 0x0 KECCAK256 SWAP1 PUSH1 0x8 MUL ADD PUSH1 0x40 MLOAD DUP1 PUSH2 0x100 ADD PUSH1 0x40 MSTORE SWAP1 DUP2 PUSH1 0x0 DUP3 ADD SLOAD DUP2 MSTORE PUSH1 0x20 ADD PUSH1 0x1 DUP3 ADD DUP1 SLOAD PUSH2 0x29F SWAP1 PUSH2 0x1F19 JUMP JUMPDEST DUP1 PUSH1 0x1F ADD PUSH1 0x20 DUP1 SWAP2 DIV MUL PUSH1 0x20 ADD PUSH1 0x40 MLOAD SWAP1 DUP2 ADD PUSH1 0x40 MSTORE DUP1 SWAP3 SWAP2 SWAP1 DUP2 DUP2 MSTORE PUSH1 0x20 ADD DUP3 DUP1 SLOAD PUSH2 0x2CB SWAP1 PUSH2 0x1F19 JUMP JUMPDEST DUP1 ISZERO PUSH2 0x318 JUMPI DUP1 PUSH1 0x1F LT PUSH2 0x2ED JUMPI PUSH2 0x100 DUP1 DUP4 SLOAD DIV MUL DUP4 MSTORE SWAP2 PUSH1 0x20 ADD SWAP2 PUSH2 0x318 JUMP JUMPDEST DUP3 ADD SWAP2 SWAP1 PUSH1 0x0 MSTORE PUSH1 0x20 PUSH1 0x0 KECCAK256 SWAP1 JUMPDEST DUP2 SLOAD DUP2 MSTORE SWAP1 PUSH1 0x1 ADD SWAP1 PUSH1 0x20 ADD DUP1 DUP4 GT PUSH2 0x2FB JUMPI DUP3 SWAP1 SUB PUSH1 0x1F AND DUP3 ADD SWAP2 JUMPDEST POP POP POP POP POP DUP2 MSTORE PUSH1 0x20 ADD PUSH1 0x2 DUP3 ADD SLOAD DUP2 MSTORE PUSH1 0x20 ADD PUSH1 0x3 DUP3 ADD PUSH1 0x0 SWAP1 SLOAD SWAP1 PUSH2 0x100 EXP SWAP1 DIV PUSH20 0xFFFFFFFFFFFFFFFFFFFFFFFFFFFFFFFFFFFFFFFF AND PUSH20 0xFFFFFFFFFFFFFFFFFFFFFFFFFFFFFFFFFFFFFFFF AND PUSH20 0xFFFFFFFFFFFFFFFFFFFFFFFFFFFFFFFFFFFFFFFF AND DUP2 MSTORE PUSH1 0x20 ADD PUSH1 0x4 DUP3 ADD PUSH1 0x0 SWAP1 SLOAD SWAP1 PUSH2 0x100 EXP SWAP1 DIV PUSH20 0xFFFFFFFFFFFFFFFFFFFFFFFFFFFFFFFFFFFFFFFF AND PUSH20 0xFFFFFFFFFFFFFFFFFFFFFFFFFFFFFFFFFFFFFFFF AND PUSH20 0xFFFFFFFFFFFFFFFFFFFFFFFFFFFFFFFFFFFFFFFF AND DUP2 MSTORE PUSH1 0x20 ADD PUSH1 0x5 DUP3 ADD SLOAD DUP2 MSTORE PUSH1 0x20 ADD PUSH1 0x6 DUP3 ADD SLOAD DUP2 MSTORE PUSH1 0x20 ADD PUSH1 0x7 DUP3 ADD SLOAD DUP2 MSTORE POP POP DUP2 MSTORE PUSH1 0x20 ADD SWAP1 PUSH1 0x1 ADD SWAP1 PUSH2 0x261 JUMP JUMPDEST POP POP POP POP SWAP1 POP SWAP2 SWAP1 POP JUMP JUMPDEST DUP1 PUSH1 0x1 DUP1 DUP5 PUSH2 0x41E SWAP2 SWAP1 PUSH2 0x1E67 JUMP JUMPDEST DUP2 SLOAD DUP2 LT PUSH2 0x42F JUMPI PUSH2 0x42E PUSH2 0x2052 JUMP JUMPDEST JUMPDEST SWAP1 PUSH1 0x0 MSTORE PUSH1 0x20 PUSH1 0x0 KECCAK256 SWAP1 PUSH1 0x8 MUL ADD PUSH1 0x1 ADD SWAP1 DUP1 MLOAD SWAP1 PUSH1 0x20 ADD SWAP1 PUSH2 0x453 SWAP3 SWAP2 SWAP1 PUSH2 0x165E JUMP JUMPDEST POP POP POP JUMP JUMPDEST PUSH1 0x0 DUP1 JUMPDEST PUSH1 0x4 PUSH1 0x0 DUP7 DUP2 MSTORE PUSH1 0x20 ADD SWAP1 DUP2 MSTORE PUSH1 0x20 ADD PUSH1 0x0 KECCAK256 DUP1 SLOAD SWAP1 POP DUP2 LT ISZERO PUSH2 0x524 JUMPI DUP3 PUSH20 0xFFFFFFFFFFFFFFFFFFFFFFFFFFFFFFFFFFFFFFFF AND PUSH1 0x4 PUSH1 0x0 PUSH1 0x1 DUP9 PUSH2 0x4A2 SWAP2 SWAP1 PUSH2 0x1E67 JUMP JUMPDEST DUP2 MSTORE PUSH1 0x20 ADD SWAP1 DUP2 MSTORE PUSH1 0x20 ADD PUSH1 0x0 KECCAK256 DUP3 DUP2 SLOAD DUP2 LT PUSH2 0x4C2 JUMPI PUSH2 0x4C1 PUSH2 0x2052 JUMP JUMPDEST JUMPDEST SWAP1 PUSH1 0x0 MSTORE PUSH1 0x20 PUSH1 0x0 KECCAK256 ADD PUSH1 0x0 SWAP1 SLOAD SWAP1 PUSH2 0x100 EXP SWAP1 DIV PUSH20 0xFFFFFFFFFFFFFFFFFFFFFFFFFFFFFFFFFFFFFFFF AND PUSH20 0xFFFFFFFFFFFFFFFFFFFFFFFFFFFFFFFFFFFFFFFF AND EQ PUSH2 0x511 JUMPI PUSH1 0x1 SWAP2 POP PUSH2 0x524 JUMP JUMPDEST DUP1 DUP1 PUSH2 0x51C SWAP1 PUSH2 0x1F7C JUMP JUMPDEST SWAP2 POP POP PUSH2 0x45C JUMP JUMPDEST POP DUP1 ISZERO PUSH2 0x578 JUMPI PUSH1 0x1 DUP1 PUSH1 0x1 DUP7 PUSH2 0x53B SWAP2 SWAP1 PUSH2 0x1E67 JUMP JUMPDEST DUP2 SLOAD DUP2 LT PUSH2 0x54C JUMPI PUSH2 0x54B PUSH2 0x2052 JUMP JUMPDEST JUMPDEST SWAP1 PUSH1 0x0 MSTORE PUSH1 0x20 PUSH1 0x0 KECCAK256 SWAP1 PUSH1 0x8 MUL ADD PUSH1 0x5 ADD PUSH1 0x0 DUP3 DUP3 SLOAD PUSH2 0x56C SWAP2 SWAP1 PUSH2 0x1DB7 JUMP JUMPDEST SWAP3 POP POP DUP2 SWAP1 SSTORE POP PUSH2 0x5C1 JUMP JUMPDEST PUSH1 0xA PUSH1 0x1 DUP1 DUP7 PUSH2 0x588 SWAP2 SWAP1 PUSH2 0x1E67 JUMP JUMPDEST DUP2 SLOAD DUP2 LT PUSH2 0x599 JUMPI PUSH2 0x598 PUSH2 0x2052 JUMP JUMPDEST JUMPDEST SWAP1 PUSH1 0x0 MSTORE PUSH1 0x20 PUSH1 0x0 KECCAK256 SWAP1 PUSH1 0x8 MUL ADD PUSH1 0x5 ADD PUSH1 0x0 DUP3 DUP3 SLOAD PUSH2 0x5B9 SWAP2 SWAP1 PUSH2 0x1DB7 JUMP JUMPDEST SWAP3 POP POP DUP2 SWAP1 SSTORE POP JUMPDEST PUSH1 0x4 PUSH1 0x0 PUSH1 0x1 DUP7 PUSH2 0x5D2 SWAP2 SWAP1 PUSH2 0x1E67 JUMP JUMPDEST DUP2 MSTORE PUSH1 0x20 ADD SWAP1 DUP2 MSTORE PUSH1 0x20 ADD PUSH1 0x0 KECCAK256 DUP3 SWAP1 DUP1 PUSH1 0x1 DUP2 SLOAD ADD DUP1 DUP3 SSTORE DUP1 SWAP2 POP POP PUSH1 0x1 SWAP1 SUB SWAP1 PUSH1 0x0 MSTORE PUSH1 0x20 PUSH1 0x0 KECCAK256 ADD PUSH1 0x0 SWAP1 SWAP2 SWAP1 SWAP2 SWAP1 SWAP2 PUSH2 0x100 EXP DUP2 SLOAD DUP2 PUSH20 0xFFFFFFFFFFFFFFFFFFFFFFFFFFFFFFFFFFFFFFFF MUL NOT AND SWAP1 DUP4 PUSH20 0xFFFFFFFFFFFFFFFFFFFFFFFFFFFFFFFFFFFFFFFF AND MUL OR SWAP1 SSTORE POP DUP3 PUSH1 0x1 DUP1 DUP7 PUSH2 0x650 SWAP2 SWAP1 PUSH2 0x1E67 JUMP JUMPDEST DUP2 SLOAD DUP2 LT PUSH2 0x661 JUMPI PUSH2 0x660 PUSH2 0x2052 JUMP JUMPDEST JUMPDEST SWAP1 PUSH1 0x0 MSTORE PUSH1 0x20 PUSH1 0x0 KECCAK256 SWAP1 PUSH1 0x8 MUL ADD PUSH1 0x7 ADD SLOAD PUSH2 0x67D SWAP2 SWAP1 PUSH2 0x1DB7 JUMP JUMPDEST PUSH1 0x1 DUP1 DUP7 PUSH2 0x68B SWAP2 SWAP1 PUSH2 0x1E67 JUMP JUMPDEST DUP2 SLOAD DUP2 LT PUSH2 0x69C JUMPI PUSH2 0x69B PUSH2 0x2052 JUMP JUMPDEST JUMPDEST SWAP1 PUSH1 0x0 MSTORE PUSH1 0x20 PUSH1 0x0 KECCAK256 SWAP1 PUSH1 0x8 MUL ADD PUSH1 0x7 ADD DUP2 SWAP1 SSTORE POP PUSH1 0x1 DUP1 DUP6 PUSH2 0x6BF SWAP2 SWAP1 PUSH2 0x1E67 JUMP JUMPDEST DUP2 SLOAD DUP2 LT PUSH2 0x6D0 JUMPI PUSH2 0x6CF PUSH2 0x2052 JUMP JUMPDEST JUMPDEST SWAP1 PUSH1 0x0 MSTORE PUSH1 0x20 PUSH1 0x0 KECCAK256 SWAP1 PUSH1 0x8 MUL ADD PUSH1 0x6 ADD SLOAD PUSH1 0x1 DUP1 DUP7 PUSH2 0x6F0 SWAP2 SWAP1 PUSH2 0x1E67 JUMP JUMPDEST DUP2 SLOAD DUP2 LT PUSH2 0x701 JUMPI PUSH2 0x700 PUSH2 0x2052 JUMP JUMPDEST JUMPDEST SWAP1 PUSH1 0x0 MSTORE PUSH1 0x20 PUSH1 0x0 KECCAK256 SWAP1 PUSH1 0x8 MUL ADD PUSH1 0x7 ADD SLOAD LT PUSH2 0x74F JUMPI PUSH1 0x2 PUSH1 0x1 DUP1 DUP7 PUSH2 0x728 SWAP2 SWAP1 PUSH2 0x1E67 JUMP JUMPDEST DUP2 SLOAD DUP2 LT PUSH2 0x739 JUMPI PUSH2 0x738 PUSH2 0x2052 JUMP JUMPDEST JUMPDEST SWAP1 PUSH1 0x0 MSTORE PUSH1 0x20 PUSH1 0x0 KECCAK256 SWAP1 PUSH1 0x8 MUL ADD PUSH1 0x2 ADD DUP2 SWAP1 SSTORE POP JUMPDEST POP POP POP POP JUMP JUMPDEST PUSH1 0x3 PUSH1 0x1 DUP1 DUP4 PUSH2 0x765 SWAP2 SWAP1 PUSH2 0x1E67 JUMP JUMPDEST DUP2 SLOAD DUP2 LT PUSH2 0x776 JUMPI PUSH2 0x775 PUSH2 0x2052 JUMP JUMPDEST JUMPDEST SWAP1 PUSH1 0x0 MSTORE PUSH1 0x20 PUSH1 0x0 KECCAK256 SWAP1 PUSH1 0x8 MUL ADD PUSH1 0x2 ADD DUP2 SWAP1 SSTORE POP PUSH1 0x1 PUSH1 0x2 PUSH1 0x0 PUSH1 0x1 DUP2 MSTORE PUSH1 0x20 ADD SWAP1 DUP2 MSTORE PUSH1 0x20 ADD PUSH1 0x0 KECCAK256 DUP1 SLOAD SWAP1 POP EQ ISZERO PUSH2 0x873 JUMPI PUSH1 0x2 PUSH1 0x0 PUSH1 0x1 DUP2 MSTORE PUSH1 0x20 ADD SWAP1 DUP2 MSTORE PUSH1 0x20 ADD PUSH1 0x0 KECCAK256 DUP1 SLOAD DUP1 PUSH2 0x7CF JUMPI PUSH2 0x7CE PUSH2 0x2023 JUMP JUMPDEST JUMPDEST PUSH1 0x1 SWAP1 SUB DUP2 DUP2 SWAP1 PUSH1 0x0 MSTORE PUSH1 0x20 PUSH1 0x0 KECCAK256 SWAP1 PUSH1 0x8 MUL ADD PUSH1 0x0 DUP1 DUP3 ADD PUSH1 0x0 SWAP1 SSTORE PUSH1 0x1 DUP3 ADD PUSH1 0x0 PUSH2 0x7FC SWAP2 SWAP1 PUSH2 0x16E4 JUMP JUMPDEST PUSH1 0x2 DUP3 ADD PUSH1 0x0 SWAP1 SSTORE PUSH1 0x3 DUP3 ADD PUSH1 0x0 PUSH2 0x100 EXP DUP2 SLOAD SWAP1 PUSH20 0xFFFFFFFFFFFFFFFFFFFFFFFFFFFFFFFFFFFFFFFF MUL NOT AND SWAP1 SSTORE PUSH1 0x4 DUP3 ADD PUSH1 0x0 PUSH2 0x100 EXP DUP2 SLOAD SWAP1 PUSH20 0xFFFFFFFFFFFFFFFFFFFFFFFFFFFFFFFFFFFFFFFF MUL NOT AND SWAP1 SSTORE PUSH1 0x5 DUP3 ADD PUSH1 0x0 SWAP1 SSTORE PUSH1 0x6 DUP3 ADD PUSH1 0x0 SWAP1 SSTORE PUSH1 0x7 DUP3 ADD PUSH1 0x0 SWAP1 SSTORE POP POP SWAP1 SSTORE PUSH2 0xB50 JUMP JUMPDEST PUSH1 0x0 JUMPDEST PUSH1 0x1 PUSH1 0x2 PUSH1 0x0 PUSH1 0x1 DUP2 MSTORE PUSH1 0x20 ADD SWAP1 DUP2 MSTORE PUSH1 0x20 ADD PUSH1 0x0 KECCAK256 DUP1 SLOAD SWAP1 POP PUSH2 0x89A SWAP2 SWAP1 PUSH2 0x1E67 JUMP JUMPDEST DUP2 LT ISZERO PUSH2 0xA8B JUMPI DUP2 PUSH1 0x2 PUSH1 0x0 PUSH1 0x1 DUP2 MSTORE PUSH1 0x20 ADD SWAP1 DUP2 MSTORE PUSH1 0x20 ADD PUSH1 0x0 KECCAK256 DUP3 DUP2 SLOAD DUP2 LT PUSH2 0x8C8 JUMPI PUSH2 0x8C7 PUSH2 0x2052 JUMP JUMPDEST JUMPDEST SWAP1 PUSH1 0x0 MSTORE PUSH1 0x20 PUSH1 0x0 KECCAK256 SWAP1 PUSH1 0x8 MUL ADD PUSH1 0x0 ADD SLOAD EQ ISZERO PUSH2 0xA78 JUMPI PUSH1 0x2 PUSH1 0x0 PUSH1 0x1 DUP2 MSTORE PUSH1 0x20 ADD SWAP1 DUP2 MSTORE PUSH1 0x20 ADD PUSH1 0x0 KECCAK256 PUSH1 0x1 DUP3 PUSH2 0x901 SWAP2 SWAP1 PUSH2 0x1DB7 JUMP JUMPDEST DUP2 SLOAD DUP2 LT PUSH2 0x912 JUMPI PUSH2 0x911 PUSH2 0x2052 JUMP JUMPDEST JUMPDEST SWAP1 PUSH1 0x0 MSTORE PUSH1 0x20 PUSH1 0x0 KECCAK256 SWAP1 PUSH1 0x8 MUL ADD PUSH1 0x2 PUSH1 0x0 PUSH1 0x1 DUP2 MSTORE PUSH1 0x20 ADD SWAP1 DUP2 MSTORE PUSH1 0x20 ADD PUSH1 0x0 KECCAK256 DUP3 DUP2 SLOAD DUP2 LT PUSH2 0x946 JUMPI PUSH2 0x945 PUSH2 0x2052 JUMP JUMPDEST JUMPDEST SWAP1 PUSH1 0x0 MSTORE PUSH1 0x20 PUSH1 0x0 KECCAK256 SWAP1 PUSH1 0x8 MUL ADD PUSH1 0x0 DUP3 ADD SLOAD DUP2 PUSH1 0x0 ADD SSTORE PUSH1 0x1 DUP3 ADD DUP2 PUSH1 0x1 ADD SWAP1 DUP1 SLOAD PUSH2 0x972 SWAP1 PUSH2 0x1F19 JUMP JUMPDEST PUSH2 0x97D SWAP3 SWAP2 SWAP1 PUSH2 0x1724 JUMP JUMPDEST POP PUSH1 0x2 DUP3 ADD SLOAD DUP2 PUSH1 0x2 ADD SSTORE PUSH1 0x3 DUP3 ADD PUSH1 0x0 SWAP1 SLOAD SWAP1 PUSH2 0x100 EXP SWAP1 DIV PUSH20 0xFFFFFFFFFFFFFFFFFFFFFFFFFFFFFFFFFFFFFFFF AND DUP2 PUSH1 0x3 ADD PUSH1 0x0 PUSH2 0x100 EXP DUP2 SLOAD DUP2 PUSH20 0xFFFFFFFFFFFFFFFFFFFFFFFFFFFFFFFFFFFFFFFF MUL NOT AND SWAP1 DUP4 PUSH20 0xFFFFFFFFFFFFFFFFFFFFFFFFFFFFFFFFFFFFFFFF AND MUL OR SWAP1 SSTORE POP PUSH1 0x4 DUP3 ADD PUSH1 0x0 SWAP1 SLOAD SWAP1 PUSH2 0x100 EXP SWAP1 DIV PUSH20 0xFFFFFFFFFFFFFFFFFFFFFFFFFFFFFFFFFFFFFFFF AND DUP2 PUSH1 0x4 ADD PUSH1 0x0 PUSH2 0x100 EXP DUP2 SLOAD DUP2 PUSH20 0xFFFFFFFFFFFFFFFFFFFFFFFFFFFFFFFFFFFFFFFF MUL NOT AND SWAP1 DUP4 PUSH20 0xFFFFFFFFFFFFFFFFFFFFFFFFFFFFFFFFFFFFFFFF AND MUL OR SWAP1 SSTORE POP PUSH1 0x5 DUP3 ADD SLOAD DUP2 PUSH1 0x5 ADD SSTORE PUSH1 0x6 DUP3 ADD SLOAD DUP2 PUSH1 0x6 ADD SSTORE PUSH1 0x7 DUP3 ADD SLOAD DUP2 PUSH1 0x7 ADD SSTORE SWAP1 POP POP JUMPDEST DUP1 DUP1 PUSH2 0xA83 SWAP1 PUSH2 0x1F7C JUMP JUMPDEST SWAP2 POP POP PUSH2 0x876 JUMP JUMPDEST POP PUSH1 0x2 PUSH1 0x0 PUSH1 0x1 DUP2 MSTORE PUSH1 0x20 ADD SWAP1 DUP2 MSTORE PUSH1 0x20 ADD PUSH1 0x0 KECCAK256 DUP1 SLOAD DUP1 PUSH2 0xAB0 JUMPI PUSH2 0xAAF PUSH2 0x2023 JUMP JUMPDEST JUMPDEST PUSH1 0x1 SWAP1 SUB DUP2 DUP2 SWAP1 PUSH1 0x0 MSTORE PUSH1 0x20 PUSH1 0x0 KECCAK256 SWAP1 PUSH1 0x8 MUL ADD PUSH1 0x0 DUP1 DUP3 ADD PUSH1 0x0 SWAP1 SSTORE PUSH1 0x1 DUP3 ADD PUSH1 0x0 PUSH2 0xADD SWAP2 SWAP1 PUSH2 0x16E4 JUMP JUMPDEST PUSH1 0x2 DUP3 ADD PUSH1 0x0 SWAP1 SSTORE PUSH1 0x3 DUP3 ADD PUSH1 0x0 PUSH2 0x100 EXP DUP2 SLOAD SWAP1 PUSH20 0xFFFFFFFFFFFFFFFFFFFFFFFFFFFFFFFFFFFFFFFF MUL NOT AND SWAP1 SSTORE PUSH1 0x4 DUP3 ADD PUSH1 0x0 PUSH2 0x100 EXP DUP2 SLOAD SWAP1 PUSH20 0xFFFFFFFFFFFFFFFFFFFFFFFFFFFFFFFFFFFFFFFF MUL NOT AND SWAP1 SSTORE PUSH1 0x5 DUP3 ADD PUSH1 0x0 SWAP1 SSTORE PUSH1 0x6 DUP3 ADD PUSH1 0x0 SWAP1 SSTORE PUSH1 0x7 DUP3 ADD PUSH1 0x0 SWAP1 SSTORE POP POP SWAP1 SSTORE JUMPDEST PUSH1 0x2 PUSH1 0x0 PUSH1 0x3 DUP2 MSTORE PUSH1 0x20 ADD SWAP1 DUP2 MSTORE PUSH1 0x20 ADD PUSH1 0x0 KECCAK256 PUSH1 0x1 DUP1 DUP4 PUSH2 0xB72 SWAP2 SWAP1 PUSH2 0x1E67 JUMP JUMPDEST DUP2 SLOAD DUP2 LT PUSH2 0xB83 JUMPI PUSH2 0xB82 PUSH2 0x2052 JUMP JUMPDEST JUMPDEST SWAP1 PUSH1 0x0 MSTORE PUSH1 0x20 PUSH1 0x0 KECCAK256 SWAP1 PUSH1 0x8 MUL ADD SWAP1 DUP1 PUSH1 0x1 DUP2 SLOAD ADD DUP1 DUP3 SSTORE DUP1 SWAP2 POP POP PUSH1 0x1 SWAP1 SUB SWAP1 PUSH1 0x0 MSTORE PUSH1 0x20 PUSH1 0x0 KECCAK256 SWAP1 PUSH1 0x8 MUL ADD PUSH1 0x0 SWAP1 SWAP2 SWAP1 SWAP2 SWAP1 SWAP2 POP PUSH1 0x0 DUP3 ADD SLOAD DUP2 PUSH1 0x0 ADD SSTORE PUSH1 0x1 DUP3 ADD DUP2 PUSH1 0x1 ADD SWAP1 DUP1 SLOAD PUSH2 0xBD8 SWAP1 PUSH2 0x1F19 JUMP JUMPDEST PUSH2 0xBE3 SWAP3 SWAP2 SWAP1 PUSH2 0x1724 JUMP JUMPDEST POP PUSH1 0x2 DUP3 ADD SLOAD DUP2 PUSH1 0x2 ADD SSTORE PUSH1 0x3 DUP3 ADD PUSH1 0x0 SWAP1 SLOAD SWAP1 PUSH2 0x100 EXP SWAP1 DIV PUSH20 0xFFFFFFFFFFFFFFFFFFFFFFFFFFFFFFFFFFFFFFFF AND DUP2 PUSH1 0x3 ADD PUSH1 0x0 PUSH2 0x100 EXP DUP2 SLOAD DUP2 PUSH20 0xFFFFFFFFFFFFFFFFFFFFFFFFFFFFFFFFFFFFFFFF MUL NOT AND SWAP1 DUP4 PUSH20 0xFFFFFFFFFFFFFFFFFFFFFFFFFFFFFFFFFFFFFFFF AND MUL OR SWAP1 SSTORE POP PUSH1 0x4 DUP3 ADD PUSH1 0x0 SWAP1 SLOAD SWAP1 PUSH2 0x100 EXP SWAP1 DIV PUSH20 0xFFFFFFFFFFFFFFFFFFFFFFFFFFFFFFFFFFFFFFFF AND DUP2 PUSH1 0x4 ADD PUSH1 0x0 PUSH2 0x100 EXP DUP2 SLOAD DUP2 PUSH20 0xFFFFFFFFFFFFFFFFFFFFFFFFFFFFFFFFFFFFFFFF MUL NOT AND SWAP1 DUP4 PUSH20 0xFFFFFFFFFFFFFFFFFFFFFFFFFFFFFFFFFFFFFFFF AND MUL OR SWAP1 SSTORE POP PUSH1 0x5 DUP3 ADD SLOAD DUP2 PUSH1 0x5 ADD SSTORE PUSH1 0x6 DUP3 ADD SLOAD DUP2 PUSH1 0x6 ADD SSTORE PUSH1 0x7 DUP3 ADD SLOAD DUP2 PUSH1 0x7 ADD SSTORE POP POP POP JUMP JUMPDEST PUSH1 0x1 DUP2 DUP2 SLOAD DUP2 LT PUSH2 0xCEF JUMPI PUSH1 0x0 DUP1 REVERT JUMPDEST SWAP1 PUSH1 0x0 MSTORE PUSH1 0x20 PUSH1 0x0 KECCAK256 SWAP1 PUSH1 0x8 MUL ADD PUSH1 0x0 SWAP2 POP SWAP1 POP DUP1 PUSH1 0x0 ADD SLOAD SWAP1 DUP1 PUSH1 0x1 ADD DUP1 SLOAD PUSH2 0xD18 SWAP1 PUSH2 0x1F19 JUMP JUMPDEST DUP1 PUSH1 0x1F ADD PUSH1 0x20 DUP1 SWAP2 DIV MUL PUSH1 0x20 ADD PUSH1 0x40 MLOAD SWAP1 DUP2 ADD PUSH1 0x40 MSTORE DUP1 SWAP3 SWAP2 SWAP1 DUP2 DUP2 MSTORE PUSH1 0x20 ADD DUP3 DUP1 SLOAD PUSH2 0xD44 SWAP1 PUSH2 0x1F19 JUMP JUMPDEST DUP1 ISZERO PUSH2 0xD91 JUMPI DUP1 PUSH1 0x1F LT PUSH2 0xD66 JUMPI PUSH2 0x100 DUP1 DUP4 SLOAD DIV MUL DUP4 MSTORE SWAP2 PUSH1 0x20 ADD SWAP2 PUSH2 0xD91 JUMP JUMPDEST DUP3 ADD SWAP2 SWAP1 PUSH1 0x0 MSTORE PUSH1 0x20 PUSH1 0x0 KECCAK256 SWAP1 JUMPDEST DUP2 SLOAD DUP2 MSTORE SWAP1 PUSH1 0x1 ADD SWAP1 PUSH1 0x20 ADD DUP1 DUP4 GT PUSH2 0xD74 JUMPI DUP3 SWAP1 SUB PUSH1 0x1F AND DUP3 ADD SWAP2 JUMPDEST POP POP POP POP POP SWAP1 DUP1 PUSH1 0x2 ADD SLOAD SWAP1 DUP1 PUSH1 0x3 ADD PUSH1 0x0 SWAP1 SLOAD SWAP1 PUSH2 0x100 EXP SWAP1 DIV PUSH20 0xFFFFFFFFFFFFFFFFFFFFFFFFFFFFFFFFFFFFFFFF AND SWAP1 DUP1 PUSH1 0x4 ADD PUSH1 0x0 SWAP1 SLOAD SWAP1 PUSH2 0x100 EXP SWAP1 DIV PUSH20 0xFFFFFFFFFFFFFFFFFFFFFFFFFFFFFFFFFFFFFFFF AND SWAP1 DUP1 PUSH1 0x5 ADD SLOAD SWAP1 DUP1 PUSH1 0x6 ADD SLOAD SWAP1 DUP1 PUSH1 0x7 ADD SLOAD SWAP1 POP DUP9 JUMP JUMPDEST PUSH1 0x60 PUSH1 0x0 DUP3 EQ ISZERO PUSH2 0xFDA JUMPI PUSH1 0x1 DUP1 SLOAD DUP1 PUSH1 0x20 MUL PUSH1 0x20 ADD PUSH1 0x40 MLOAD SWAP1 DUP2 ADD PUSH1 0x40 MSTORE DUP1 SWAP3 SWAP2 SWAP1 DUP2 DUP2 MSTORE PUSH1 0x20 ADD PUSH1 0x0 SWAP1 JUMPDEST DUP3 DUP3 LT ISZERO PUSH2 0xFCF JUMPI DUP4 DUP3 SWAP1 PUSH1 0x0 MSTORE PUSH1 0x20 PUSH1 0x0 KECCAK256 SWAP1 PUSH1 0x8 MUL ADD PUSH1 0x40 MLOAD DUP1 PUSH2 0x100 ADD PUSH1 0x40 MSTORE SWAP1 DUP2 PUSH1 0x0 DUP3 ADD SLOAD DUP2 MSTORE PUSH1 0x20 ADD PUSH1 0x1 DUP3 ADD DUP1 SLOAD PUSH2 0xE6A SWAP1 PUSH2 0x1F19 JUMP JUMPDEST DUP1 PUSH1 0x1F ADD PUSH1 0x20 DUP1 SWAP2 DIV MUL PUSH1 0x20 ADD PUSH1 0x40 MLOAD SWAP1 DUP2 ADD PUSH1 0x40 MSTORE DUP1 SWAP3 SWAP2 SWAP1 DUP2 DUP2 MSTORE PUSH1 0x20 ADD DUP3 DUP1 SLOAD PUSH2 0xE96 SWAP1 PUSH2 0x1F19 JUMP JUMPDEST DUP1 ISZERO PUSH2 0xEE3 JUMPI DUP1 PUSH1 0x1F LT PUSH2 0xEB8 JUMPI PUSH2 0x100 DUP1 DUP4 SLOAD DIV MUL DUP4 MSTORE SWAP2 PUSH1 0x20 ADD SWAP2 PUSH2 0xEE3 JUMP JUMPDEST DUP3 ADD SWAP2 SWAP1 PUSH1 0x0 MSTORE PUSH1 0x20 PUSH1 0x0 KECCAK256 SWAP1 JUMPDEST DUP2 SLOAD DUP2 MSTORE SWAP1 PUSH1 0x1 ADD SWAP1 PUSH1 0x20 ADD DUP1 DUP4 GT PUSH2 0xEC6 JUMPI DUP3 SWAP1 SUB PUSH1 0x1F AND DUP3 ADD SWAP2 JUMPDEST POP POP POP POP POP DUP2 MSTORE PUSH1 0x20 ADD PUSH1 0x2 DUP3 ADD SLOAD DUP2 MSTORE PUSH1 0x20 ADD PUSH1 0x3 DUP3 ADD PUSH1 0x0 SWAP1 SLOAD SWAP1 PUSH2 0x100 EXP SWAP1 DIV PUSH20 0xFFFFFFFFFFFFFFFFFFFFFFFFFFFFFFFFFFFFFFFF AND PUSH20 0xFFFFFFFFFFFFFFFFFFFFFFFFFFFFFFFFFFFFFFFF AND PUSH20 0xFFFFFFFFFFFFFFFFFFFFFFFFFFFFFFFFFFFFFFFF AND DUP2 MSTORE PUSH1 0x20 ADD PUSH1 0x4 DUP3 ADD PUSH1 0x0 SWAP1 SLOAD SWAP1 PUSH2 0x100 EXP SWAP1 DIV PUSH20 0xFFFFFFFFFFFFFFFFFFFFFFFFFFFFFFFFFFFFFFFF AND PUSH20 0xFFFFFFFFFFFFFFFFFFFFFFFFFFFFFFFFFFFFFFFF AND PUSH20 0xFFFFFFFFFFFFFFFFFFFFFFFFFFFFFFFFFFFFFFFF AND DUP2 MSTORE PUSH1 0x20 ADD PUSH1 0x5 DUP3 ADD SLOAD DUP2 MSTORE PUSH1 0x20 ADD PUSH1 0x6 DUP3 ADD SLOAD DUP2 MSTORE PUSH1 0x20 ADD PUSH1 0x7 DUP3 ADD SLOAD DUP2 MSTORE POP POP DUP2 MSTORE PUSH1 0x20 ADD SWAP1 PUSH1 0x1 ADD SWAP1 PUSH2 0xE2C JUMP JUMPDEST POP POP POP POP SWAP1 POP PUSH2 0x11B7 JUMP JUMPDEST PUSH1 0x2 PUSH1 0x0 DUP4 DUP2 MSTORE PUSH1 0x20 ADD SWAP1 DUP2 MSTORE PUSH1 0x20 ADD PUSH1 0x0 KECCAK256 DUP1 SLOAD DUP1 PUSH1 0x20 MUL PUSH1 0x20 ADD PUSH1 0x40 MLOAD SWAP1 DUP2 ADD PUSH1 0x40 MSTORE DUP1 SWAP3 SWAP2 SWAP1 DUP2 DUP2 MSTORE PUSH1 0x20 ADD PUSH1 0x0 SWAP1 JUMPDEST DUP3 DUP3 LT ISZERO PUSH2 0x11B0 JUMPI DUP4 DUP3 SWAP1 PUSH1 0x0 MSTORE PUSH1 0x20 PUSH1 0x0 KECCAK256 SWAP1 PUSH1 0x8 MUL ADD PUSH1 0x40 MLOAD DUP1 PUSH2 0x100 ADD PUSH1 0x40 MSTORE SWAP1 DUP2 PUSH1 0x0 DUP3 ADD SLOAD DUP2 MSTORE PUSH1 0x20 ADD PUSH1 0x1 DUP3 ADD DUP1 SLOAD PUSH2 0x104B SWAP1 PUSH2 0x1F19 JUMP JUMPDEST DUP1 PUSH1 0x1F ADD PUSH1 0x20 DUP1 SWAP2 DIV MUL PUSH1 0x20 ADD PUSH1 0x40 MLOAD SWAP1 DUP2 ADD PUSH1 0x40 MSTORE DUP1 SWAP3 SWAP2 SWAP1 DUP2 DUP2 MSTORE PUSH1 0x20 ADD DUP3 DUP1 SLOAD PUSH2 0x1077 SWAP1 PUSH2 0x1F19 JUMP JUMPDEST DUP1 ISZERO PUSH2 0x10C4 JUMPI DUP1 PUSH1 0x1F LT PUSH2 0x1099 JUMPI PUSH2 0x100 DUP1 DUP4 SLOAD DIV MUL DUP4 MSTORE SWAP2 PUSH1 0x20 ADD SWAP2 PUSH2 0x10C4 JUMP JUMPDEST DUP3 ADD SWAP2 SWAP1 PUSH1 0x0 MSTORE PUSH1 0x20 PUSH1 0x0 KECCAK256 SWAP1 JUMPDEST DUP2 SLOAD DUP2 MSTORE SWAP1 PUSH1 0x1 ADD SWAP1 PUSH1 0x20 ADD DUP1 DUP4 GT PUSH2 0x10A7 JUMPI DUP3 SWAP1 SUB PUSH1 0x1F AND DUP3 ADD SWAP2 JUMPDEST POP POP POP POP POP DUP2 MSTORE PUSH1 0x20 ADD PUSH1 0x2 DUP3 ADD SLOAD DUP2 MSTORE PUSH1 0x20 ADD PUSH1 0x3 DUP3 ADD PUSH1 0x0 SWAP1 SLOAD SWAP1 PUSH2 0x100 EXP SWAP1 DIV PUSH20 0xFFFFFFFFFFFFFFFFFFFFFFFFFFFFFFFFFFFFFFFF AND PUSH20 0xFFFFFFFFFFFFFFFFFFFFFFFFFFFFFFFFFFFFFFFF AND PUSH20 0xFFFFFFFFFFFFFFFFFFFFFFFFFFFFFFFFFFFFFFFF AND DUP2 MSTORE PUSH1 0x20 ADD PUSH1 0x4 DUP3 ADD PUSH1 0x0 SWAP1 SLOAD SWAP1 PUSH2 0x100 EXP SWAP1 DIV PUSH20 0xFFFFFFFFFFFFFFFFFFFFFFFFFFFFFFFFFFFFFFFF AND PUSH20 0xFFFFFFFFFFFFFFFFFFFFFFFFFFFFFFFFFFFFFFFF AND PUSH20 0xFFFFFFFFFFFFFFFFFFFFFFFFFFFFFFFFFFFFFFFF AND DUP2 MSTORE PUSH1 0x20 ADD PUSH1 0x5 DUP3 ADD SLOAD DUP2 MSTORE PUSH1 0x20 ADD PUSH1 0x6 DUP3 ADD SLOAD DUP2 MSTORE PUSH1 0x20 ADD PUSH1 0x7 DUP3 ADD SLOAD DUP2 MSTORE POP POP DUP2 MSTORE PUSH1 0x20 ADD SWAP1 PUSH1 0x1 ADD SWAP1 PUSH2 0x100D JUMP JUMPDEST POP POP POP POP SWAP1 POP JUMPDEST SWAP2 SWAP1 POP JUMP JUMPDEST PUSH1 0x0 DUP1 DUP2 SLOAD DUP1 SWAP3 SWAP2 SWAP1 PUSH2 0x11CE SWAP1 PUSH2 0x1F7C JUMP JUMPDEST SWAP2 SWAP1 POP SSTORE POP PUSH1 0x0 PUSH1 0x40 MLOAD DUP1 PUSH2 0x100 ADD PUSH1 0x40 MSTORE DUP1 PUSH1 0x0 SLOAD DUP2 MSTORE PUSH1 0x20 ADD DUP6 DUP2 MSTORE PUSH1 0x20 ADD PUSH1 0x1 DUP2 MSTORE PUSH1 0x20 ADD CALLER PUSH20 0xFFFFFFFFFFFFFFFFFFFFFFFFFFFFFFFFFFFFFFFF AND DUP2 MSTORE PUSH1 0x20 ADD DUP5 PUSH20 0xFFFFFFFFFFFFFFFFFFFFFFFFFFFFFFFFFFFFFFFF AND DUP2 MSTORE PUSH1 0x20 ADD PUSH1 0x0 DUP2 MSTORE PUSH1 0x20 ADD DUP4 DUP2 MSTORE PUSH1 0x20 ADD PUSH1 0x0 DUP2 MSTORE POP SWAP1 POP PUSH1 0x1 DUP2 SWAP1 DUP1 PUSH1 0x1 DUP2 SLOAD ADD DUP1 DUP3 SSTORE DUP1 SWAP2 POP POP PUSH1 0x1 SWAP1 SUB SWAP1 PUSH1 0x0 MSTORE PUSH1 0x20 PUSH1 0x0 KECCAK256 SWAP1 PUSH1 0x8 MUL ADD PUSH1 0x0 SWAP1 SWAP2 SWAP1 SWAP2 SWAP1 SWAP2 POP PUSH1 0x0 DUP3 ADD MLOAD DUP2 PUSH1 0x0 ADD SSTORE PUSH1 0x20 DUP3 ADD MLOAD DUP2 PUSH1 0x1 ADD SWAP1 DUP1 MLOAD SWAP1 PUSH1 0x20 ADD SWAP1 PUSH2 0x1294 SWAP3 SWAP2 SWAP1 PUSH2 0x165E JUMP JUMPDEST POP PUSH1 0x40 DUP3 ADD MLOAD DUP2 PUSH1 0x2 ADD SSTORE PUSH1 0x60 DUP3 ADD MLOAD DUP2 PUSH1 0x3 ADD PUSH1 0x0 PUSH2 0x100 EXP DUP2 SLOAD DUP2 PUSH20 0xFFFFFFFFFFFFFFFFFFFFFFFFFFFFFFFFFFFFFFFF MUL NOT AND SWAP1 DUP4 PUSH20 0xFFFFFFFFFFFFFFFFFFFFFFFFFFFFFFFFFFFFFFFF AND MUL OR SWAP1 SSTORE POP PUSH1 0x80 DUP3 ADD MLOAD DUP2 PUSH1 0x4 ADD PUSH1 0x0 PUSH2 0x100 EXP DUP2 SLOAD DUP2 PUSH20 0xFFFFFFFFFFFFFFFFFFFFFFFFFFFFFFFFFFFFFFFF MUL NOT AND SWAP1 DUP4 PUSH20 0xFFFFFFFFFFFFFFFFFFFFFFFFFFFFFFFFFFFFFFFF AND MUL OR SWAP1 SSTORE POP PUSH1 0xA0 DUP3 ADD MLOAD DUP2 PUSH1 0x5 ADD SSTORE PUSH1 0xC0 DUP3 ADD MLOAD DUP2 PUSH1 0x6 ADD SSTORE PUSH1 0xE0 DUP3 ADD MLOAD DUP2 PUSH1 0x7 ADD SSTORE POP POP PUSH1 0x2 PUSH1 0x0 PUSH1 0x1 DUP2 MSTORE PUSH1 0x20 ADD SWAP1 DUP2 MSTORE PUSH1 0x20 ADD PUSH1 0x0 KECCAK256 DUP2 SWAP1 DUP1 PUSH1 0x1 DUP2 SLOAD ADD DUP1 DUP3 SSTORE DUP1 SWAP2 POP POP PUSH1 0x1 SWAP1 SUB SWAP1 PUSH1 0x0 MSTORE PUSH1 0x20 PUSH1 0x0 KECCAK256 SWAP1 PUSH1 0x8 MUL ADD PUSH1 0x0 SWAP1 SWAP2 SWAP1 SWAP2 SWAP1 SWAP2 POP PUSH1 0x0 DUP3 ADD MLOAD DUP2 PUSH1 0x0 ADD SSTORE PUSH1 0x20 DUP3 ADD MLOAD DUP2 PUSH1 0x1 ADD SWAP1 DUP1 MLOAD SWAP1 PUSH1 0x20 ADD SWAP1 PUSH2 0x13B1 SWAP3 SWAP2 SWAP1 PUSH2 0x165E JUMP JUMPDEST POP PUSH1 0x40 DUP3 ADD MLOAD DUP2 PUSH1 0x2 ADD SSTORE PUSH1 0x60 DUP3 ADD MLOAD DUP2 PUSH1 0x3 ADD PUSH1 0x0 PUSH2 0x100 EXP DUP2 SLOAD DUP2 PUSH20 0xFFFFFFFFFFFFFFFFFFFFFFFFFFFFFFFFFFFFFFFF MUL NOT AND SWAP1 DUP4 PUSH20 0xFFFFFFFFFFFFFFFFFFFFFFFFFFFFFFFFFFFFFFFF AND MUL OR SWAP1 SSTORE POP PUSH1 0x80 DUP3 ADD MLOAD DUP2 PUSH1 0x4 ADD PUSH1 0x0 PUSH2 0x100 EXP DUP2 SLOAD DUP2 PUSH20 0xFFFFFFFFFFFFFFFFFFFFFFFFFFFFFFFFFFFFFFFF MUL NOT AND SWAP1 DUP4 PUSH20 0xFFFFFFFFFFFFFFFFFFFFFFFFFFFFFFFFFFFFFFFF AND MUL OR SWAP1 SSTORE POP PUSH1 0xA0 DUP3 ADD MLOAD DUP2 PUSH1 0x5 ADD SSTORE PUSH1 0xC0 DUP3 ADD MLOAD DUP2 PUSH1 0x6 ADD SSTORE PUSH1 0xE0 DUP3 ADD MLOAD DUP2 PUSH1 0x7 ADD SSTORE POP POP PUSH1 0x3 PUSH1 0x0 CALLER PUSH20 0xFFFFFFFFFFFFFFFFFFFFFFFFFFFFFFFFFFFFFFFF AND PUSH20 0xFFFFFFFFFFFFFFFFFFFFFFFFFFFFFFFFFFFFFFFF AND DUP2 MSTORE PUSH1 0x20 ADD SWAP1 DUP2 MSTORE PUSH1 0x20 ADD PUSH1 0x0 KECCAK256 DUP2 SWAP1 DUP1 PUSH1 0x1 DUP2 SLOAD ADD DUP1 DUP3 SSTORE DUP1 SWAP2 POP POP PUSH1 0x1 SWAP1 SUB SWAP1 PUSH1 0x0 MSTORE PUSH1 0x20 PUSH1 0x0 KECCAK256 SWAP1 PUSH1 0x8 MUL ADD PUSH1 0x0 SWAP1 SWAP2 SWAP1 SWAP2 SWAP1 SWAP2 POP PUSH1 0x0 DUP3 ADD MLOAD DUP2 PUSH1 0x0 ADD SSTORE PUSH1 0x20 DUP3 ADD MLOAD DUP2 PUSH1 0x1 ADD SWAP1 DUP1 MLOAD SWAP1 PUSH1 0x20 ADD SWAP1 PUSH2 0x14F9 SWAP3 SWAP2 SWAP1 PUSH2 0x165E JUMP JUMPDEST POP PUSH1 0x40 DUP3 ADD MLOAD DUP2 PUSH1 0x2 ADD SSTORE PUSH1 0x60 DUP3 ADD MLOAD DUP2 PUSH1 0x3 ADD PUSH1 0x0 PUSH2 0x100 EXP DUP2 SLOAD DUP2 PUSH20 0xFFFFFFFFFFFFFFFFFFFFFFFFFFFFFFFFFFFFFFFF MUL NOT AND SWAP1 DUP4 PUSH20 0xFFFFFFFFFFFFFFFFFFFFFFFFFFFFFFFFFFFFFFFF AND MUL OR SWAP1 SSTORE POP PUSH1 0x80 DUP3 ADD MLOAD DUP2 PUSH1 0x4 ADD PUSH1 0x0 PUSH2 0x100 EXP DUP2 SLOAD DUP2 PUSH20 0xFFFFFFFFFFFFFFFFFFFFFFFFFFFFFFFFFFFFFFFF MUL NOT AND SWAP1 DUP4 PUSH20 0xFFFFFFFFFFFFFFFFFFFFFFFFFFFFFFFFFFFFFFFF AND MUL OR SWAP1 SSTORE POP PUSH1 0xA0 DUP3 ADD MLOAD DUP2 PUSH1 0x5 ADD SSTORE PUSH1 0xC0 DUP3 ADD MLOAD DUP2 PUSH1 0x6 ADD SSTORE PUSH1 0xE0 DUP3 ADD MLOAD DUP2 PUSH1 0x7 ADD SSTORE POP POP POP POP POP POP JUMP JUMPDEST PUSH1 0x0 DUP1 DUP3 CALLER SWAP2 POP SWAP2 POP SWAP2 POP SWAP2 JUMP JUMPDEST PUSH1 0x0 DUP1 DUP3 SWAP1 POP PUSH1 0x0 DUP1 JUMPDEST DUP3 MLOAD DUP2 LT ISZERO PUSH2 0x1653 JUMPI PUSH1 0x0 DUP4 DUP3 DUP2 MLOAD DUP2 LT PUSH2 0x15EE JUMPI PUSH2 0x15ED PUSH2 0x2052 JUMP JUMPDEST JUMPDEST PUSH1 0x20 ADD ADD MLOAD PUSH1 0xF8 SHR PUSH1 0xF8 SHL PUSH1 0xF8 SHR PUSH1 0xFF AND SWAP1 POP PUSH1 0x30 DUP2 LT ISZERO DUP1 ISZERO PUSH2 0x1613 JUMPI POP PUSH1 0x39 DUP2 GT ISZERO JUMPDEST ISZERO PUSH2 0x163F JUMPI PUSH1 0x30 DUP2 PUSH2 0x1625 SWAP2 SWAP1 PUSH2 0x1E67 JUMP JUMPDEST PUSH1 0xA DUP5 PUSH2 0x1632 SWAP2 SWAP1 PUSH2 0x1E0D JUMP JUMPDEST PUSH2 0x163C SWAP2 SWAP1 PUSH2 0x1DB7 JUMP JUMPDEST SWAP3 POP JUMPDEST POP DUP1 DUP1 PUSH2 0x164B SWAP1 PUSH2 0x1F7C JUMP JUMPDEST SWAP2 POP POP PUSH2 0x15D0 JUMP JUMPDEST POP DUP1 SWAP3 POP POP POP SWAP2 SWAP1 POP JUMP JUMPDEST DUP3 DUP1 SLOAD PUSH2 0x166A SWAP1 PUSH2 0x1F19 JUMP JUMPDEST SWAP1 PUSH1 0x0 MSTORE PUSH1 0x20 PUSH1 0x0 KECCAK256 SWAP1 PUSH1 0x1F ADD PUSH1 0x20 SWAP1 DIV DUP2 ADD SWAP3 DUP3 PUSH2 0x168C JUMPI PUSH1 0x0 DUP6 SSTORE PUSH2 0x16D3 JUMP JUMPDEST DUP3 PUSH1 0x1F LT PUSH2 0x16A5 JUMPI DUP1 MLOAD PUSH1 0xFF NOT AND DUP4 DUP1 ADD OR DUP6 SSTORE PUSH2 0x16D3 JUMP JUMPDEST DUP3 DUP1 ADD PUSH1 0x1 ADD DUP6 SSTORE DUP3 ISZERO PUSH2 0x16D3 JUMPI SWAP2 DUP3 ADD JUMPDEST DUP3 DUP2 GT ISZERO PUSH2 0x16D2 JUMPI DUP3 MLOAD DUP3 SSTORE SWAP2 PUSH1 0x20 ADD SWAP2 SWAP1 PUSH1 0x1 ADD SWAP1 PUSH2 0x16B7 JUMP JUMPDEST JUMPDEST POP SWAP1 POP PUSH2 0x16E0 SWAP2 SWAP1 PUSH2 0x17B1 JUMP JUMPDEST POP SWAP1 JUMP JUMPDEST POP DUP1 SLOAD PUSH2 0x16F0 SWAP1 PUSH2 0x1F19 JUMP JUMPDEST PUSH1 0x0 DUP3 SSTORE DUP1 PUSH1 0x1F LT PUSH2 0x1702 JUMPI POP PUSH2 0x1721 JUMP JUMPDEST PUSH1 0x1F ADD PUSH1 0x20 SWAP1 DIV SWAP1 PUSH1 0x0 MSTORE PUSH1 0x20 PUSH1 0x0 KECCAK256 SWAP1 DUP2 ADD SWAP1 PUSH2 0x1720 SWAP2 SWAP1 PUSH2 0x17B1 JUMP JUMPDEST JUMPDEST POP JUMP JUMPDEST DUP3 DUP1 SLOAD PUSH2 0x1730 SWAP1 PUSH2 0x1F19 JUMP JUMPDEST SWAP1 PUSH1 0x0 MSTORE PUSH1 0x20 PUSH1 0x0 KECCAK256 SWAP1 PUSH1 0x1F ADD PUSH1 0x20 SWAP1 DIV DUP2 ADD SWAP3 DUP3 PUSH2 0x1752 JUMPI PUSH1 0x0 DUP6 SSTORE PUSH2 0x17A0 JUMP JUMPDEST DUP3 PUSH1 0x1F LT PUSH2 0x1763 JUMPI DUP1 SLOAD DUP6 SSTORE PUSH2 0x17A0 JUMP JUMPDEST DUP3 DUP1 ADD PUSH1 0x1 ADD DUP6 SSTORE DUP3 ISZERO PUSH2 0x17A0 JUMPI PUSH1 0x0 MSTORE PUSH1 0x20 PUSH1 0x0 KECCAK256 SWAP2 PUSH1 0x1F ADD PUSH1 0x20 SWAP1 DIV DUP3 ADD JUMPDEST DUP3 DUP2 GT ISZERO PUSH2 0x179F JUMPI DUP3 SLOAD DUP3 SSTORE SWAP2 PUSH1 0x1 ADD SWAP2 SWAP1 PUSH1 0x1 ADD SWAP1 PUSH2 0x1784 JUMP JUMPDEST JUMPDEST POP SWAP1 POP PUSH2 0x17AD SWAP2 SWAP1 PUSH2 0x17B1 JUMP JUMPDEST POP SWAP1 JUMP JUMPDEST JUMPDEST DUP1 DUP3 GT ISZERO PUSH2 0x17CA JUMPI PUSH1 0x0 DUP2 PUSH1 0x0 SWAP1 SSTORE POP PUSH1 0x1 ADD PUSH2 0x17B2 JUMP JUMPDEST POP SWAP1 JUMP JUMPDEST PUSH1 0x0 PUSH2 0x17E1 PUSH2 0x17DC DUP5 PUSH2 0x1D20 JUMP JUMPDEST PUSH2 0x1CFB JUMP JUMPDEST SWAP1 POP DUP3 DUP2 MSTORE PUSH1 0x20 DUP2 ADD DUP5 DUP5 DUP5 ADD GT ISZERO PUSH2 0x17FD JUMPI PUSH2 0x17FC PUSH2 0x20B5 JUMP JUMPDEST JUMPDEST PUSH2 0x1808 DUP5 DUP3 DUP6 PUSH2 0x1ED7 JUMP JUMPDEST POP SWAP4 SWAP3 POP POP POP JUMP JUMPDEST PUSH1 0x0 DUP2 CALLDATALOAD SWAP1 POP PUSH2 0x181F DUP2 PUSH2 0x20D5 JUMP JUMPDEST SWAP3 SWAP2 POP POP JUMP JUMPDEST PUSH1 0x0 DUP3 PUSH1 0x1F DUP4 ADD SLT PUSH2 0x183A JUMPI PUSH2 0x1839 PUSH2 0x20B0 JUMP JUMPDEST JUMPDEST DUP2 CALLDATALOAD PUSH2 0x184A DUP5 DUP3 PUSH1 0x20 DUP7 ADD PUSH2 0x17CE JUMP JUMPDEST SWAP2 POP POP SWAP3 SWAP2 POP POP JUMP JUMPDEST PUSH1 0x0 DUP2 CALLDATALOAD SWAP1 POP PUSH2 0x1862 DUP2 PUSH2 0x20EC JUMP JUMPDEST SWAP3 SWAP2 POP POP JUMP JUMPDEST PUSH1 0x0 PUSH1 0x20 DUP3 DUP5 SUB SLT ISZERO PUSH2 0x187E JUMPI PUSH2 0x187D PUSH2 0x20BF JUMP JUMPDEST JUMPDEST PUSH1 0x0 PUSH2 0x188C DUP5 DUP3 DUP6 ADD PUSH2 0x1810 JUMP JUMPDEST SWAP2 POP POP SWAP3 SWAP2 POP POP JUMP JUMPDEST PUSH1 0x0 PUSH1 0x20 DUP3 DUP5 SUB SLT ISZERO PUSH2 0x18AB JUMPI PUSH2 0x18AA PUSH2 0x20BF JUMP JUMPDEST JUMPDEST PUSH1 0x0 DUP3 ADD CALLDATALOAD PUSH8 0xFFFFFFFFFFFFFFFF DUP2 GT ISZERO PUSH2 0x18C9 JUMPI PUSH2 0x18C8 PUSH2 0x20BA JUMP JUMPDEST JUMPDEST PUSH2 0x18D5 DUP5 DUP3 DUP6 ADD PUSH2 0x1825 JUMP JUMPDEST SWAP2 POP POP SWAP3 SWAP2 POP POP JUMP JUMPDEST PUSH1 0x0 DUP1 PUSH1 0x0 PUSH1 0x60 DUP5 DUP7 SUB SLT ISZERO PUSH2 0x18F7 JUMPI PUSH2 0x18F6 PUSH2 0x20BF JUMP JUMPDEST JUMPDEST PUSH1 0x0 DUP5 ADD CALLDATALOAD PUSH8 0xFFFFFFFFFFFFFFFF DUP2 GT ISZERO PUSH2 0x1915 JUMPI PUSH2 0x1914 PUSH2 0x20BA JUMP JUMPDEST JUMPDEST PUSH2 0x1921 DUP7 DUP3 DUP8 ADD PUSH2 0x1825 JUMP JUMPDEST SWAP4 POP POP PUSH1 0x20 PUSH2 0x1932 DUP7 DUP3 DUP8 ADD PUSH2 0x1810 JUMP JUMPDEST SWAP3 POP POP PUSH1 0x40 PUSH2 0x1943 DUP7 DUP3 DUP8 ADD PUSH2 0x1853 JUMP JUMPDEST SWAP2 POP POP SWAP3 POP SWAP3 POP SWAP3 JUMP JUMPDEST PUSH1 0x0 PUSH1 0x20 DUP3 DUP5 SUB SLT ISZERO PUSH2 0x1963 JUMPI PUSH2 0x1962 PUSH2 0x20BF JUMP JUMPDEST JUMPDEST PUSH1 0x0 PUSH2 0x1971 DUP5 DUP3 DUP6 ADD PUSH2 0x1853 JUMP JUMPDEST SWAP2 POP POP SWAP3 SWAP2 POP POP JUMP JUMPDEST PUSH1 0x0 DUP1 PUSH1 0x40 DUP4 DUP6 SUB SLT ISZERO PUSH2 0x1991 JUMPI PUSH2 0x1990 PUSH2 0x20BF JUMP JUMPDEST JUMPDEST PUSH1 0x0 PUSH2 0x199F DUP6 DUP3 DUP7 ADD PUSH2 0x1853 JUMP JUMPDEST SWAP3 POP POP PUSH1 0x20 DUP4 ADD CALLDATALOAD PUSH8 0xFFFFFFFFFFFFFFFF DUP2 GT ISZERO PUSH2 0x19C0 JUMPI PUSH2 0x19BF PUSH2 0x20BA JUMP JUMPDEST JUMPDEST PUSH2 0x19CC DUP6 DUP3 DUP7 ADD PUSH2 0x1825 JUMP JUMPDEST SWAP2 POP POP SWAP3 POP SWAP3 SWAP1 POP JUMP JUMPDEST PUSH1 0x0 DUP1 PUSH1 0x0 PUSH1 0x60 DUP5 DUP7 SUB SLT ISZERO PUSH2 0x19EF JUMPI PUSH2 0x19EE PUSH2 0x20BF JUMP JUMPDEST JUMPDEST PUSH1 0x0 PUSH2 0x19FD DUP7 DUP3 DUP8 ADD PUSH2 0x1853 JUMP JUMPDEST SWAP4 POP POP PUSH1 0x20 PUSH2 0x1A0E DUP7 DUP3 DUP8 ADD PUSH2 0x1853 JUMP JUMPDEST SWAP3 POP POP PUSH1 0x40 PUSH2 0x1A1F DUP7 DUP3 DUP8 ADD PUSH2 0x1810 JUMP JUMPDEST SWAP2 POP POP SWAP3 POP SWAP3 POP SWAP3 JUMP JUMPDEST PUSH1 0x0 PUSH2 0x1A35 DUP4 DUP4 PUSH2 0x1B42 JUMP JUMPDEST SWAP1 POP SWAP3 SWAP2 POP POP JUMP JUMPDEST PUSH2 0x1A46 DUP2 PUSH2 0x1E9B JUMP JUMPDEST DUP3 MSTORE POP POP JUMP JUMPDEST PUSH2 0x1A55 DUP2 PUSH2 0x1E9B JUMP JUMPDEST DUP3 MSTORE POP POP JUMP JUMPDEST PUSH1 0x0 PUSH2 0x1A66 DUP3 PUSH2 0x1D61 JUMP JUMPDEST PUSH2 0x1A70 DUP2 DUP6 PUSH2 0x1D84 JUMP JUMPDEST SWAP4 POP DUP4 PUSH1 0x20 DUP3 MUL DUP6 ADD PUSH2 0x1A82 DUP6 PUSH2 0x1D51 JUMP JUMPDEST DUP1 PUSH1 0x0 JUMPDEST DUP6 DUP2 LT ISZERO PUSH2 0x1ABE JUMPI DUP5 DUP5 SUB DUP10 MSTORE DUP2 MLOAD PUSH2 0x1A9F DUP6 DUP3 PUSH2 0x1A29 JUMP JUMPDEST SWAP5 POP PUSH2 0x1AAA DUP4 PUSH2 0x1D77 JUMP JUMPDEST SWAP3 POP PUSH1 0x20 DUP11 ADD SWAP10 POP POP PUSH1 0x1 DUP2 ADD SWAP1 POP PUSH2 0x1A86 JUMP JUMPDEST POP DUP3 SWAP8 POP DUP8 SWAP6 POP POP POP POP POP POP SWAP3 SWAP2 POP POP JUMP JUMPDEST PUSH1 0x0 PUSH2 0x1ADB DUP3 PUSH2 0x1D6C JUMP JUMPDEST PUSH2 0x1AE5 DUP2 DUP6 PUSH2 0x1D95 JUMP JUMPDEST SWAP4 POP PUSH2 0x1AF5 DUP2 DUP6 PUSH1 0x20 DUP7 ADD PUSH2 0x1EE6 JUMP JUMPDEST PUSH2 0x1AFE DUP2 PUSH2 0x20C4 JUMP JUMPDEST DUP5 ADD SWAP2 POP POP SWAP3 SWAP2 POP POP JUMP JUMPDEST PUSH1 0x0 PUSH2 0x1B14 DUP3 PUSH2 0x1D6C JUMP JUMPDEST PUSH2 0x1B1E DUP2 DUP6 PUSH2 0x1DA6 JUMP JUMPDEST SWAP4 POP PUSH2 0x1B2E DUP2 DUP6 PUSH1 0x20 DUP7 ADD PUSH2 0x1EE6 JUMP JUMPDEST PUSH2 0x1B37 DUP2 PUSH2 0x20C4 JUMP JUMPDEST DUP5 ADD SWAP2 POP POP SWAP3 SWAP2 POP POP JUMP JUMPDEST PUSH1 0x0 PUSH2 0x100 DUP4 ADD PUSH1 0x0 DUP4 ADD MLOAD PUSH2 0x1B5B PUSH1 0x0 DUP7 ADD DUP3 PUSH2 0x1BF2 JUMP JUMPDEST POP PUSH1 0x20 DUP4 ADD MLOAD DUP5 DUP3 SUB PUSH1 0x20 DUP7 ADD MSTORE PUSH2 0x1B73 DUP3 DUP3 PUSH2 0x1AD0 JUMP JUMPDEST SWAP2 POP POP PUSH1 0x40 DUP4 ADD MLOAD PUSH2 0x1B88 PUSH1 0x40 DUP7 ADD DUP3 PUSH2 0x1BF2 JUMP JUMPDEST POP PUSH1 0x60 DUP4 ADD MLOAD PUSH2 0x1B9B PUSH1 0x60 DUP7 ADD DUP3 PUSH2 0x1A3D JUMP JUMPDEST POP PUSH1 0x80 DUP4 ADD MLOAD PUSH2 0x1BAE PUSH1 0x80 DUP7 ADD DUP3 PUSH2 0x1A3D JUMP JUMPDEST POP PUSH1 0xA0 DUP4 ADD MLOAD PUSH2 0x1BC1 PUSH1 0xA0 DUP7 ADD DUP3 PUSH2 0x1BF2 JUMP JUMPDEST POP PUSH1 0xC0 DUP4 ADD MLOAD PUSH2 0x1BD4 PUSH1 0xC0 DUP7 ADD DUP3 PUSH2 0x1BF2 JUMP JUMPDEST POP PUSH1 0xE0 DUP4 ADD MLOAD PUSH2 0x1BE7 PUSH1 0xE0 DUP7 ADD DUP3 PUSH2 0x1BF2 JUMP JUMPDEST POP DUP1 SWAP2 POP POP SWAP3 SWAP2 POP POP JUMP JUMPDEST PUSH2 0x1BFB DUP2 PUSH2 0x1ECD JUMP JUMPDEST DUP3 MSTORE POP POP JUMP JUMPDEST PUSH2 0x1C0A DUP2 PUSH2 0x1ECD JUMP JUMPDEST DUP3 MSTORE POP POP JUMP JUMPDEST PUSH1 0x0 PUSH1 0x40 DUP3 ADD SWAP1 POP PUSH2 0x1C25 PUSH1 0x0 DUP4 ADD DUP6 PUSH2 0x1A4C JUMP JUMPDEST PUSH2 0x1C32 PUSH1 0x20 DUP4 ADD DUP5 PUSH2 0x1A4C JUMP JUMPDEST SWAP4 SWAP3 POP POP POP JUMP JUMPDEST PUSH1 0x0 PUSH1 0x20 DUP3 ADD SWAP1 POP DUP2 DUP2 SUB PUSH1 0x0 DUP4 ADD MSTORE PUSH2 0x1C53 DUP2 DUP5 PUSH2 0x1A5B JUMP JUMPDEST SWAP1 POP SWAP3 SWAP2 POP POP JUMP JUMPDEST PUSH1 0x0 PUSH1 0x20 DUP3 ADD SWAP1 POP PUSH2 0x1C70 PUSH1 0x0 DUP4 ADD DUP5 PUSH2 0x1C01 JUMP JUMPDEST SWAP3 SWAP2 POP POP JUMP JUMPDEST PUSH1 0x0 PUSH2 0x100 DUP3 ADD SWAP1 POP PUSH2 0x1C8C PUSH1 0x0 DUP4 ADD DUP12 PUSH2 0x1C01 JUMP JUMPDEST DUP2 DUP2 SUB PUSH1 0x20 DUP4 ADD MSTORE PUSH2 0x1C9E DUP2 DUP11 PUSH2 0x1B09 JUMP JUMPDEST SWAP1 POP PUSH2 0x1CAD PUSH1 0x40 DUP4 ADD DUP10 PUSH2 0x1C01 JUMP JUMPDEST PUSH2 0x1CBA PUSH1 0x60 DUP4 ADD DUP9 PUSH2 0x1A4C JUMP JUMPDEST PUSH2 0x1CC7 PUSH1 0x80 DUP4 ADD DUP8 PUSH2 0x1A4C JUMP JUMPDEST PUSH2 0x1CD4 PUSH1 0xA0 DUP4 ADD DUP7 PUSH2 0x1C01 JUMP JUMPDEST PUSH2 0x1CE1 PUSH1 0xC0 DUP4 ADD DUP6 PUSH2 0x1C01 JUMP JUMPDEST PUSH2 0x1CEE PUSH1 0xE0 DUP4 ADD DUP5 PUSH2 0x1C01 JUMP JUMPDEST SWAP10 SWAP9 POP POP POP POP POP POP POP POP POP JUMP JUMPDEST PUSH1 0x0 PUSH2 0x1D05 PUSH2 0x1D16 JUMP JUMPDEST SWAP1 POP PUSH2 0x1D11 DUP3 DUP3 PUSH2 0x1F4B JUMP JUMPDEST SWAP2 SWAP1 POP JUMP JUMPDEST PUSH1 0x0 PUSH1 0x40 MLOAD SWAP1 POP SWAP1 JUMP JUMPDEST PUSH1 0x0 PUSH8 0xFFFFFFFFFFFFFFFF DUP3 GT ISZERO PUSH2 0x1D3B JUMPI PUSH2 0x1D3A PUSH2 0x2081 JUMP JUMPDEST JUMPDEST PUSH2 0x1D44 DUP3 PUSH2 0x20C4 JUMP JUMPDEST SWAP1 POP PUSH1 0x20 DUP2 ADD SWAP1 POP SWAP2 SWAP1 POP JUMP JUMPDEST PUSH1 0x0 DUP2 SWAP1 POP PUSH1 0x20 DUP3 ADD SWAP1 POP SWAP2 SWAP1 POP JUMP JUMPDEST PUSH1 0x0 DUP2 MLOAD SWAP1 POP SWAP2 SWAP1 POP JUMP JUMPDEST PUSH1 0x0 DUP2 MLOAD SWAP1 POP SWAP2 SWAP1 POP JUMP JUMPDEST PUSH1 0x0 PUSH1 0x20 DUP3 ADD SWAP1 POP SWAP2 SWAP1 POP JUMP JUMPDEST PUSH1 0x0 DUP3 DUP3 MSTORE PUSH1 0x20 DUP3 ADD SWAP1 POP SWAP3 SWAP2 POP POP JUMP JUMPDEST PUSH1 0x0 DUP3 DUP3 MSTORE PUSH1 0x20 DUP3 ADD SWAP1 POP SWAP3 SWAP2 POP POP JUMP JUMPDEST PUSH1 0x0 DUP3 DUP3 MSTORE PUSH1 0x20 DUP3 ADD SWAP1 POP SWAP3 SWAP2 POP POP JUMP JUMPDEST PUSH1 0x0 PUSH2 0x1DC2 DUP3 PUSH2 0x1ECD JUMP JUMPDEST SWAP2 POP PUSH2 0x1DCD DUP4 PUSH2 0x1ECD JUMP JUMPDEST SWAP3 POP DUP3 PUSH32 0xFFFFFFFFFFFFFFFFFFFFFFFFFFFFFFFFFFFFFFFFFFFFFFFFFFFFFFFFFFFFFFFF SUB DUP3 GT ISZERO PUSH2 0x1E02 JUMPI PUSH2 0x1E01 PUSH2 0x1FC5 JUMP JUMPDEST JUMPDEST DUP3 DUP3 ADD SWAP1 POP SWAP3 SWAP2 POP POP JUMP JUMPDEST PUSH1 0x0 PUSH2 0x1E18 DUP3 PUSH2 0x1ECD JUMP JUMPDEST SWAP2 POP PUSH2 0x1E23 DUP4 PUSH2 0x1ECD JUMP JUMPDEST SWAP3 POP DUP2 PUSH32 0xFFFFFFFFFFFFFFFFFFFFFFFFFFFFFFFFFFFFFFFFFFFFFFFFFFFFFFFFFFFFFFFF DIV DUP4 GT DUP3 ISZERO ISZERO AND ISZERO PUSH2 0x1E5C JUMPI PUSH2 0x1E5B PUSH2 0x1FC5 JUMP JUMPDEST JUMPDEST DUP3 DUP3 MUL SWAP1 POP SWAP3 SWAP2 POP POP JUMP JUMPDEST PUSH1 0x0 PUSH2 0x1E72 DUP3 PUSH2 0x1ECD JUMP JUMPDEST SWAP2 POP PUSH2 0x1E7D DUP4 PUSH2 0x1ECD JUMP JUMPDEST SWAP3 POP DUP3 DUP3 LT ISZERO PUSH2 0x1E90 JUMPI PUSH2 0x1E8F PUSH2 0x1FC5 JUMP JUMPDEST JUMPDEST DUP3 DUP3 SUB SWAP1 POP SWAP3 SWAP2 POP POP JUMP JUMPDEST PUSH1 0x0 PUSH2 0x1EA6 DUP3 PUSH2 0x1EAD JUMP JUMPDEST SWAP1 POP SWAP2 SWAP1 POP JUMP JUMPDEST PUSH1 0x0 PUSH20 0xFFFFFFFFFFFFFFFFFFFFFFFFFFFFFFFFFFFFFFFF DUP3 AND SWAP1 POP SWAP2 SWAP1 POP JUMP JUMPDEST PUSH1 0x0 DUP2 SWAP1 POP SWAP2 SWAP1 POP JUMP JUMPDEST DUP3 DUP2 DUP4 CALLDATACOPY PUSH1 0x0 DUP4 DUP4 ADD MSTORE POP POP POP JUMP JUMPDEST PUSH1 0x0 JUMPDEST DUP4 DUP2 LT ISZERO PUSH2 0x1F04 JUMPI DUP1 DUP3 ADD MLOAD DUP2 DUP5 ADD MSTORE PUSH1 0x20 DUP2 ADD SWAP1 POP PUSH2 0x1EE9 JUMP JUMPDEST DUP4 DUP2 GT ISZERO PUSH2 0x1F13 JUMPI PUSH1 0x0 DUP5 DUP5 ADD MSTORE JUMPDEST POP POP POP POP JUMP JUMPDEST PUSH1 0x0 PUSH1 0x2 DUP3 DIV SWAP1 POP PUSH1 0x1 DUP3 AND DUP1 PUSH2 0x1F31 JUMPI PUSH1 0x7F DUP3 AND SWAP2 POP JUMPDEST PUSH1 0x20 DUP3 LT DUP2 EQ ISZERO PUSH2 0x1F45 JUMPI PUSH2 0x1F44 PUSH2 0x1FF4 JUMP JUMPDEST JUMPDEST POP SWAP2 SWAP1 POP JUMP JUMPDEST PUSH2 0x1F54 DUP3 PUSH2 0x20C4 JUMP JUMPDEST DUP2 ADD DUP2 DUP2 LT PUSH8 0xFFFFFFFFFFFFFFFF DUP3 GT OR ISZERO PUSH2 0x1F73 JUMPI PUSH2 0x1F72 PUSH2 0x2081 JUMP JUMPDEST JUMPDEST DUP1 PUSH1 0x40 MSTORE POP POP POP JUMP JUMPDEST PUSH1 0x0 PUSH2 0x1F87 DUP3 PUSH2 0x1ECD JUMP JUMPDEST SWAP2 POP PUSH32 0xFFFFFFFFFFFFFFFFFFFFFFFFFFFFFFFFFFFFFFFFFFFFFFFFFFFFFFFFFFFFFFFF DUP3 EQ ISZERO PUSH2 0x1FBA JUMPI PUSH2 0x1FB9 PUSH2 0x1FC5 JUMP JUMPDEST JUMPDEST PUSH1 0x1 DUP3 ADD SWAP1 POP SWAP2 SWAP1 POP JUMP JUMPDEST PUSH32 0x4E487B7100000000000000000000000000000000000000000000000000000000 PUSH1 0x0 MSTORE PUSH1 0x11 PUSH1 0x4 MSTORE PUSH1 0x24 PUSH1 0x0 REVERT JUMPDEST PUSH32 0x4E487B7100000000000000000000000000000000000000000000000000000000 PUSH1 0x0 MSTORE PUSH1 0x22 PUSH1 0x4 MSTORE PUSH1 0x24 PUSH1 0x0 REVERT JUMPDEST PUSH32 0x4E487B7100000000000000000000000000000000000000000000000000000000 PUSH1 0x0 MSTORE PUSH1 0x31 PUSH1 0x4 MSTORE PUSH1 0x24 PUSH1 0x0 REVERT JUMPDEST PUSH32 0x4E487B7100000000000000000000000000000000000000000000000000000000 PUSH1 0x0 MSTORE PUSH1 0x32 PUSH1 0x4 MSTORE PUSH1 0x24 PUSH1 0x0 REVERT JUMPDEST PUSH32 0x4E487B7100000000000000000000000000000000000000000000000000000000 PUSH1 0x0 MSTORE PUSH1 0x41 PUSH1 0x4 MSTORE PUSH1 0x24 PUSH1 0x0 REVERT JUMPDEST PUSH1 0x0 DUP1 REVERT JUMPDEST PUSH1 0x0 DUP1 REVERT JUMPDEST PUSH1 0x0 DUP1 REVERT JUMPDEST PUSH1 0x0 DUP1 REVERT JUMPDEST PUSH1 0x0 PUSH1 0x1F NOT PUSH1 0x1F DUP4 ADD AND SWAP1 POP SWAP2 SWAP1 POP JUMP JUMPDEST PUSH2 0x20DE DUP2 PUSH2 0x1E9B JUMP JUMPDEST DUP2 EQ PUSH2 0x20E9 JUMPI PUSH1 0x0 DUP1 REVERT JUMPDEST POP JUMP JUMPDEST PUSH2 0x20F5 DUP2 PUSH2 0x1ECD JUMP JUMPDEST DUP2 EQ PUSH2 0x2100 JUMPI PUSH1 0x0 DUP1 REVERT JUMPDEST POP JUMP INVALID LOG2 PUSH5 0x6970667358 0x22 SLT KECCAK256 0xB9 PUSH19 0xCA1B81952E2E6768F69FD7232175EA4C92B2B 0x2B PUSH1 0x5D SWAP15 PC 0xAA 0xD1 0x5E 0xB4 CALLER SUB PUSH5 0x736F6C6343 STOP ADDMOD SMOD STOP CALLER "
				},
				"gasEstimates": {
					"creation": {
						"codeDepositCost": "1701000",
						"executionCost": "1785",
						"totalCost": "1702785"
					},
					"external": {
						"createCrowdfunding(string,address,uint256)": "infinite",
						"getCrowdfundingByStatus(uint256)": "infinite",
						"getMyCrowdfunding(address)": "infinite",
						"join(uint256,uint256,address)": "infinite",
						"list(uint256)": "infinite",
						"setStatus(uint256)": "infinite",
						"setTitle(uint256,string)": "infinite",
						"stringToInt(string)": "infinite",
						"test(address)": "infinite"
					}
				},
				"methodIdentifiers": {
					"createCrowdfunding(string,address,uint256)": "ac8b1300",
					"getCrowdfundingByStatus(uint256)": "904cc175",
					"getMyCrowdfunding(address)": "377e6ff7",
					"join(uint256,uint256,address)": "575b70d0",
					"list(uint256)": "80c9419e",
					"setStatus(uint256)": "69ba1a75",
					"setTitle(uint256,string)": "5102bc9d",
					"stringToInt(string)": "f8a02d84",
					"test(address)": "bb29998e"
				}
			},
			"storageLayout": {
				"storage": [
					{
						"astId": 3,
						"contract": "crowdfunding.sol:CrowdfundingContract",
						"label": "No",
						"offset": 0,
						"slot": "0",
						"type": "t_uint256"
					},
					{
						"astId": 24,
						"contract": "crowdfunding.sol:CrowdfundingContract",
						"label": "list",
						"offset": 0,
						"slot": "1",
						"type": "t_array(t_struct(Crowdfunding)20_storage)dyn_storage"
					},
					{
						"astId": 30,
						"contract": "crowdfunding.sol:CrowdfundingContract",
						"label": "filterDataByStatus",
						"offset": 0,
						"slot": "2",
						"type": "t_mapping(t_uint256,t_array(t_struct(Crowdfunding)20_storage)dyn_storage)"
					},
					{
						"astId": 36,
						"contract": "crowdfunding.sol:CrowdfundingContract",
						"label": "myCrowdfunding",
						"offset": 0,
						"slot": "3",
						"type": "t_mapping(t_address,t_array(t_struct(Crowdfunding)20_storage)dyn_storage)"
					},
					{
						"astId": 41,
						"contract": "crowdfunding.sol:CrowdfundingContract",
						"label": "calcJoinNum",
						"offset": 0,
						"slot": "4",
						"type": "t_mapping(t_uint256,t_array(t_address)dyn_storage)"
					}
				],
				"types": {
					"t_address": {
						"encoding": "inplace",
						"label": "address",
						"numberOfBytes": "20"
					},
					"t_array(t_address)dyn_storage": {
						"base": "t_address",
						"encoding": "dynamic_array",
						"label": "address[]",
						"numberOfBytes": "32"
					},
					"t_array(t_struct(Crowdfunding)20_storage)dyn_storage": {
						"base": "t_struct(Crowdfunding)20_storage",
						"encoding": "dynamic_array",
						"label": "struct CrowdfundingContract.Crowdfunding[]",
						"numberOfBytes": "32"
					},
					"t_mapping(t_address,t_array(t_struct(Crowdfunding)20_storage)dyn_storage)": {
						"encoding": "mapping",
						"key": "t_address",
						"label": "mapping(address => struct CrowdfundingContract.Crowdfunding[])",
						"numberOfBytes": "32",
						"value": "t_array(t_struct(Crowdfunding)20_storage)dyn_storage"
					},
					"t_mapping(t_uint256,t_array(t_address)dyn_storage)": {
						"encoding": "mapping",
						"key": "t_uint256",
						"label": "mapping(uint256 => address[])",
						"numberOfBytes": "32",
						"value": "t_array(t_address)dyn_storage"
					},
					"t_mapping(t_uint256,t_array(t_struct(Crowdfunding)20_storage)dyn_storage)": {
						"encoding": "mapping",
						"key": "t_uint256",
						"label": "mapping(uint256 => struct CrowdfundingContract.Crowdfunding[])",
						"numberOfBytes": "32",
						"value": "t_array(t_struct(Crowdfunding)20_storage)dyn_storage"
					},
					"t_string_storage": {
						"encoding": "bytes",
						"label": "string",
						"numberOfBytes": "32"
					},
					"t_struct(Crowdfunding)20_storage": {
						"encoding": "inplace",
						"label": "struct CrowdfundingContract.Crowdfunding",
						"members": [
							{
								"astId": 5,
								"contract": "crowdfunding.sol:CrowdfundingContract",
								"label": "num",
								"offset": 0,
								"slot": "0",
								"type": "t_uint256"
							},
							{
								"astId": 7,
								"contract": "crowdfunding.sol:CrowdfundingContract",
								"label": "title",
								"offset": 0,
								"slot": "1",
								"type": "t_string_storage"
							},
							{
								"astId": 9,
								"contract": "crowdfunding.sol:CrowdfundingContract",
								"label": "status",
								"offset": 0,
								"slot": "2",
								"type": "t_uint256"
							},
							{
								"astId": 11,
								"contract": "crowdfunding.sol:CrowdfundingContract",
								"label": "creator",
								"offset": 0,
								"slot": "3",
								"type": "t_address"
							},
							{
								"astId": 13,
								"contract": "crowdfunding.sol:CrowdfundingContract",
								"label": "recipient",
								"offset": 0,
								"slot": "4",
								"type": "t_address"
							},
							{
								"astId": 15,
								"contract": "crowdfunding.sol:CrowdfundingContract",
								"label": "joinNum",
								"offset": 0,
								"slot": "5",
								"type": "t_uint256"
							},
							{
								"astId": 17,
								"contract": "crowdfunding.sol:CrowdfundingContract",
								"label": "expectAmout",
								"offset": 0,
								"slot": "6",
								"type": "t_uint256"
							},
							{
								"astId": 19,
								"contract": "crowdfunding.sol:CrowdfundingContract",
								"label": "actualAmount",
								"offset": 0,
								"slot": "7",
								"type": "t_uint256"
							}
						],
						"numberOfBytes": "256"
					},
					"t_uint256": {
						"encoding": "inplace",
						"label": "uint256",
						"numberOfBytes": "32"
					}
				}
			},
			"userdoc": {
				"kind": "user",
				"methods": {},
				"version": 1
			}
		}
	}
}