{
	"function.sol": {
		"Function": {
			"abi": [
				{
					"inputs": [],
					"name": "callInternal",
					"outputs": [],
					"stateMutability": "nonpayable",
					"type": "function"
				}
			],
			"devdoc": {
				"kind": "dev",
				"methods": {},
				"version": 1
			},
			"evm": {
				"assembly": "    /* \"function.sol\":61:246  contract Function {\r... */\n  mstore(0x40, 0x80)\n  callvalue\n  dup1\n  iszero\n  tag_1\n  jumpi\n  0x00\n  dup1\n  revert\ntag_1:\n  pop\n  dataSize(sub_0)\n  dup1\n  dataOffset(sub_0)\n  0x00\n  codecopy\n  0x00\n  return\nstop\n\nsub_0: assembly {\n        /* \"function.sol\":61:246  contract Function {\r... */\n      mstore(0x40, 0x80)\n      callvalue\n      dup1\n      iszero\n      tag_1\n      jumpi\n      0x00\n      dup1\n      revert\n    tag_1:\n      pop\n      jumpi(tag_2, lt(calldatasize, 0x04))\n      shr(0xe0, calldataload(0x00))\n      dup1\n      0x8aa573c6\n      eq\n      tag_3\n      jumpi\n    tag_2:\n      0x00\n      dup1\n      revert\n        /* \"function.sol\":190:243  function callInternal() public {\r... */\n    tag_3:\n      tag_4\n      tag_5\n      jump\t// in\n    tag_4:\n      stop\n    tag_5:\n        /* \"function.sol\":232:235  f() */\n      tag_7\n        /* \"function.sol\":232:233  f */\n      tag_8\n        /* \"function.sol\":232:235  f() */\n      jump\t// in\n    tag_7:\n      pop\n        /* \"function.sol\":190:243  function callInternal() public {\r... */\n      jump\t// out\n        /* \"function.sol\":88:180  function f() internal pure returns(bool) {\r... */\n    tag_8:\n        /* \"function.sol\":123:127  bool */\n      0x00\n        /* \"function.sol\":140:146  bool b */\n      dup1\n        /* \"function.sol\":149:153  true */\n      0x01\n        /* \"function.sol\":140:153  bool b = true */\n      swap1\n      pop\n        /* \"function.sol\":171:172  b */\n      dup1\n        /* \"function.sol\":164:172  return b */\n      swap2\n      pop\n      pop\n        /* \"function.sol\":88:180  function f() internal pure returns(bool) {\r... */\n      swap1\n      jump\t// out\n\n    auxdata: 0xa2646970667358221220b3f72381d9e342803c5dce5fea019dc501fae24ea47be6f8cb258c00ef308daa64736f6c63430008070033\n}\n",
				"bytecode": {
					"linkReferences": {},
					"object": "6080604052348015600f57600080fd5b5060828061001e6000396000f3fe6080604052348015600f57600080fd5b506004361060285760003560e01c80638aa573c614602d575b600080fd5b60336035565b005b603b603e565b50565b60008060019050809150509056fea2646970667358221220b3f72381d9e342803c5dce5fea019dc501fae24ea47be6f8cb258c00ef308daa64736f6c63430008070033",
					"opcodes": "PUSH1 0x80 PUSH1 0x40 MSTORE CALLVALUE DUP1 ISZERO PUSH1 0xF JUMPI PUSH1 0x0 DUP1 REVERT JUMPDEST POP PUSH1 0x82 DUP1 PUSH2 0x1E PUSH1 0x0 CODECOPY PUSH1 0x0 RETURN INVALID PUSH1 0x80 PUSH1 0x40 MSTORE CALLVALUE DUP1 ISZERO PUSH1 0xF JUMPI PUSH1 0x0 DUP1 REVERT JUMPDEST POP PUSH1 0x4 CALLDATASIZE LT PUSH1 0x28 JUMPI PUSH1 0x0 CALLDATALOAD PUSH1 0xE0 SHR DUP1 PUSH4 0x8AA573C6 EQ PUSH1 0x2D JUMPI JUMPDEST PUSH1 0x0 DUP1 REVERT JUMPDEST PUSH1 0x33 PUSH1 0x35 JUMP JUMPDEST STOP JUMPDEST PUSH1 0x3B PUSH1 0x3E JUMP JUMPDEST POP JUMP JUMPDEST PUSH1 0x0 DUP1 PUSH1 0x1 SWAP1 POP DUP1 SWAP2 POP POP SWAP1 JUMP INVALID LOG2 PUSH5 0x6970667358 0x22 SLT KECCAK256 0xB3 0xF7 0x23 DUP2 0xD9 0xE3 TIMESTAMP DUP1 EXTCODECOPY 0x5D 0xCE 0x5F 0xEA ADD SWAP14 0xC5 ADD STATICCALL 0xE2 0x4E LOG4 PUSH28 0xE6F8CB258C00EF308DAA64736F6C6343000807003300000000000000 "
				},
				"gasEstimates": {
					"creation": {
						"codeDepositCost": "26000",
						"executionCost": "81",
						"totalCost": "26081"
					},
					"external": {
						"callInternal()": "175"
					},
					"internal": {
						"f()": "36"
					}
				},
				"methodIdentifiers": {
					"callInternal()": "8aa573c6"
				}
			},
			"storageLayout": {
				"storage": [],
				"types": null
			},
			"userdoc": {
				"kind": "user",
				"methods": {},
				"version": 1
			}
		}
	}
}