{
	"functionReturns.sol": {
		"testFunctionReturns": {
			"abi": [
				{
					"inputs": [],
					"name": "f1",
					"outputs": [
						{
							"internalType": "uint256",
							"name": "",
							"type": "uint256"
						},
						{
							"internalType": "bool",
							"name": "",
							"type": "bool"
						}
					],
					"stateMutability": "pure",
					"type": "function"
				},
				{
					"inputs": [],
					"name": "f2",
					"outputs": [
						{
							"internalType": "uint256",
							"name": "u",
							"type": "uint256"
						},
						{
							"internalType": "bool",
							"name": "b",
							"type": "bool"
						}
					],
					"stateMutability": "pure",
					"type": "function"
				},
				{
					"inputs": [],
					"name": "f3",
					"outputs": [
						{
							"internalType": "uint256",
							"name": "u",
							"type": "uint256"
						},
						{
							"internalType": "bool",
							"name": "b",
							"type": "bool"
						}
					],
					"stateMutability": "pure",
					"type": "function"
				},
				{
					"inputs": [],
					"name": "f4",
					"outputs": [],
					"stateMutability": "pure",
					"type": "function"
				}
			],
			"devdoc": {
				"kind": "dev",
				"methods": {},
				"version": 1
			},
			"evm": {
				"assembly": "    /* \"functionReturns.sol\":93:508  contract testFunctionReturns {... */\n  mstore(0x40, 0x80)\n  callvalue\n  dup1\n  iszero\n  tag_1\n  jumpi\n  0x00\n  dup1\n  revert\ntag_1:\n  pop\n  dataSize(sub_0)\n  dup1\n  dataOffset(sub_0)\n  0x00\n  codecopy\n  0x00\n  return\nstop\n\nsub_0: assembly {\n        /* \"functionReturns.sol\":93:508  contract testFunctionReturns {... */\n      mstore(0x40, 0x80)\n      callvalue\n      dup1\n      iszero\n      tag_1\n      jumpi\n      0x00\n      dup1\n      revert\n    tag_1:\n      pop\n      jumpi(tag_2, lt(calldatasize, 0x04))\n      shr(0xe0, calldataload(0x00))\n      dup1\n      0x9942ec6f\n      eq\n      tag_3\n      jumpi\n      dup1\n      0xaaf05f3d\n      eq\n      tag_4\n      jumpi\n      dup1\n      0xc27fc305\n      eq\n      tag_5\n      jumpi\n      dup1\n      0xc3f90202\n      eq\n      tag_6\n      jumpi\n    tag_2:\n      0x00\n      dup1\n      revert\n        /* \"functionReturns.sol\":216:300  function f2() public pure returns (uint u,bool b){... */\n    tag_3:\n      tag_7\n      tag_8\n      jump\t// in\n    tag_7:\n      mload(0x40)\n      tag_9\n      swap3\n      swap2\n      swap1\n      tag_10\n      jump\t// in\n    tag_9:\n      mload(0x40)\n      dup1\n      swap2\n      sub\n      swap1\n      return\n        /* \"functionReturns.sol\":308:400  function f3() public pure returns (uint u,bool b){... */\n    tag_4:\n      tag_11\n      tag_12\n      jump\t// in\n    tag_11:\n      mload(0x40)\n      tag_13\n      swap3\n      swap2\n      swap1\n      tag_10\n      jump\t// in\n    tag_13:\n      mload(0x40)\n      dup1\n      swap2\n      sub\n      swap1\n      return\n        /* \"functionReturns.sol\":129:208  function f1() public pure returns (uint,bool){... */\n    tag_5:\n      tag_14\n      tag_15\n      jump\t// in\n    tag_14:\n      mload(0x40)\n      tag_16\n      swap3\n      swap2\n      swap1\n      tag_10\n      jump\t// in\n    tag_16:\n      mload(0x40)\n      dup1\n      swap2\n      sub\n      swap1\n      return\n        /* \"functionReturns.sol\":408:505  function f4() public pure {... */\n    tag_6:\n      tag_17\n      tag_18\n      jump\t// in\n    tag_17:\n      stop\n        /* \"functionReturns.sol\":216:300  function f2() public pure returns (uint u,bool b){... */\n    tag_8:\n        /* \"functionReturns.sol\":251:257  uint u */\n      0x00\n        /* \"functionReturns.sol\":258:264  bool b */\n      dup1\n        /* \"functionReturns.sol\":284:285  2 */\n      0x02\n        /* \"functionReturns.sol\":286:291  false */\n      0x00\n        /* \"functionReturns.sol\":276:292  return (2,false) */\n      swap2\n      pop\n      swap2\n      pop\n        /* \"functionReturns.sol\":216:300  function f2() public pure returns (uint u,bool b){... */\n      swap1\n      swap2\n      jump\t// out\n        /* \"functionReturns.sol\":308:400  function f3() public pure returns (uint u,bool b){... */\n    tag_12:\n        /* \"functionReturns.sol\":343:349  uint u */\n      0x00\n        /* \"functionReturns.sol\":350:356  bool b */\n      dup1\n        /* \"functionReturns.sol\":372:373  3 */\n      0x03\n        /* \"functionReturns.sol\":368:373  u = 3 */\n      swap2\n      pop\n        /* \"functionReturns.sol\":388:392  true */\n      0x01\n        /* \"functionReturns.sol\":384:392  b = true */\n      swap1\n      pop\n        /* \"functionReturns.sol\":308:400  function f3() public pure returns (uint u,bool b){... */\n      swap1\n      swap2\n      jump\t// out\n        /* \"functionReturns.sol\":129:208  function f1() public pure returns (uint,bool){... */\n    tag_15:\n        /* \"functionReturns.sol\":164:168  uint */\n      0x00\n        /* \"functionReturns.sol\":169:173  bool */\n      dup1\n        /* \"functionReturns.sol\":193:194  1 */\n      0x01\n        /* \"functionReturns.sol\":195:199  true */\n      dup1\n        /* \"functionReturns.sol\":185:200  return (1,true) */\n      swap2\n      pop\n      swap2\n      pop\n        /* \"functionReturns.sol\":129:208  function f1() public pure returns (uint,bool){... */\n      swap1\n      swap2\n      jump\t// out\n        /* \"functionReturns.sol\":408:505  function f4() public pure {... */\n    tag_18:\n        /* \"functionReturns.sol\":445:452  uint n1 */\n      0x00\n        /* \"functionReturns.sol\":463:470  bool b1 */\n      dup1\n        /* \"functionReturns.sol\":493:497  f1() */\n      tag_23\n        /* \"functionReturns.sol\":493:495  f1 */\n      tag_15\n        /* \"functionReturns.sol\":493:497  f1() */\n      jump\t// in\n    tag_23:\n        /* \"functionReturns.sol\":483:497  (n1,b1) = f1() */\n      dup1\n      swap3\n      pop\n      dup2\n      swap4\n      pop\n      pop\n      pop\n        /* \"functionReturns.sol\":434:505  {... */\n      pop\n      pop\n        /* \"functionReturns.sol\":408:505  function f4() public pure {... */\n      jump\t// out\n        /* \"#utility.yul\":7:84   */\n    tag_24:\n        /* \"#utility.yul\":44:51   */\n      0x00\n        /* \"#utility.yul\":73:78   */\n      dup2\n        /* \"#utility.yul\":62:78   */\n      swap1\n      pop\n        /* \"#utility.yul\":7:84   */\n      swap2\n      swap1\n      pop\n      jump\t// out\n        /* \"#utility.yul\":90:208   */\n    tag_25:\n        /* \"#utility.yul\":177:201   */\n      tag_31\n        /* \"#utility.yul\":195:200   */\n      dup2\n        /* \"#utility.yul\":177:201   */\n      tag_24\n      jump\t// in\n    tag_31:\n        /* \"#utility.yul\":172:175   */\n      dup3\n        /* \"#utility.yul\":165:202   */\n      mstore\n        /* \"#utility.yul\":90:208   */\n      pop\n      pop\n      jump\t// out\n        /* \"#utility.yul\":214:304   */\n    tag_26:\n        /* \"#utility.yul\":248:255   */\n      0x00\n        /* \"#utility.yul\":291:296   */\n      dup2\n        /* \"#utility.yul\":284:297   */\n      iszero\n        /* \"#utility.yul\":277:298   */\n      iszero\n        /* \"#utility.yul\":266:298   */\n      swap1\n      pop\n        /* \"#utility.yul\":214:304   */\n      swap2\n      swap1\n      pop\n      jump\t// out\n        /* \"#utility.yul\":310:419   */\n    tag_27:\n        /* \"#utility.yul\":391:412   */\n      tag_34\n        /* \"#utility.yul\":406:411   */\n      dup2\n        /* \"#utility.yul\":391:412   */\n      tag_26\n      jump\t// in\n    tag_34:\n        /* \"#utility.yul\":386:389   */\n      dup3\n        /* \"#utility.yul\":379:413   */\n      mstore\n        /* \"#utility.yul\":310:419   */\n      pop\n      pop\n      jump\t// out\n        /* \"#utility.yul\":425:745   */\n    tag_10:\n        /* \"#utility.yul\":540:544   */\n      0x00\n        /* \"#utility.yul\":578:580   */\n      0x40\n        /* \"#utility.yul\":567:576   */\n      dup3\n        /* \"#utility.yul\":563:581   */\n      add\n        /* \"#utility.yul\":555:581   */\n      swap1\n      pop\n        /* \"#utility.yul\":591:662   */\n      tag_36\n        /* \"#utility.yul\":659:660   */\n      0x00\n        /* \"#utility.yul\":648:657   */\n      dup4\n        /* \"#utility.yul\":644:661   */\n      add\n        /* \"#utility.yul\":635:641   */\n      dup6\n        /* \"#utility.yul\":591:662   */\n      tag_25\n      jump\t// in\n    tag_36:\n        /* \"#utility.yul\":672:738   */\n      tag_37\n        /* \"#utility.yul\":734:736   */\n      0x20\n        /* \"#utility.yul\":723:732   */\n      dup4\n        /* \"#utility.yul\":719:737   */\n      add\n        /* \"#utility.yul\":710:716   */\n      dup5\n        /* \"#utility.yul\":672:738   */\n      tag_27\n      jump\t// in\n    tag_37:\n        /* \"#utility.yul\":425:745   */\n      swap4\n      swap3\n      pop\n      pop\n      pop\n      jump\t// out\n\n    auxdata: 0xa2646970667358221220102e78faff41d8dc324d7f36115f108e4da280609922b8dfac71f32090b0ca5264736f6c634300080f0033\n}\n",
				"bytecode": {
					"linkReferences": {},
					"object": "608060405234801561001057600080fd5b5061018e806100206000396000f3fe608060405234801561001057600080fd5b506004361061004c5760003560e01c80639942ec6f14610051578063aaf05f3d14610070578063c27fc3051461008f578063c3f90202146100ae575b600080fd5b6100596100b8565b60405161006792919061012f565b60405180910390f35b6100786100c7565b60405161008692919061012f565b60405180910390f35b6100976100d6565b6040516100a592919061012f565b60405180910390f35b6100b66100e4565b005b60008060026000915091509091565b60008060039150600190509091565b600080600180915091509091565b6000806100ef6100d6565b80925081935050505050565b6000819050919050565b61010e816100fb565b82525050565b60008115159050919050565b61012981610114565b82525050565b60006040820190506101446000830185610105565b6101516020830184610120565b939250505056fea2646970667358221220102e78faff41d8dc324d7f36115f108e4da280609922b8dfac71f32090b0ca5264736f6c634300080f0033",
					"opcodes": "PUSH1 0x80 PUSH1 0x40 MSTORE CALLVALUE DUP1 ISZERO PUSH2 0x10 JUMPI PUSH1 0x0 DUP1 REVERT JUMPDEST POP PUSH2 0x18E DUP1 PUSH2 0x20 PUSH1 0x0 CODECOPY PUSH1 0x0 RETURN INVALID PUSH1 0x80 PUSH1 0x40 MSTORE CALLVALUE DUP1 ISZERO PUSH2 0x10 JUMPI PUSH1 0x0 DUP1 REVERT JUMPDEST POP PUSH1 0x4 CALLDATASIZE LT PUSH2 0x4C JUMPI PUSH1 0x0 CALLDATALOAD PUSH1 0xE0 SHR DUP1 PUSH4 0x9942EC6F EQ PUSH2 0x51 JUMPI DUP1 PUSH4 0xAAF05F3D EQ PUSH2 0x70 JUMPI DUP1 PUSH4 0xC27FC305 EQ PUSH2 0x8F JUMPI DUP1 PUSH4 0xC3F90202 EQ PUSH2 0xAE JUMPI JUMPDEST PUSH1 0x0 DUP1 REVERT JUMPDEST PUSH2 0x59 PUSH2 0xB8 JUMP JUMPDEST PUSH1 0x40 MLOAD PUSH2 0x67 SWAP3 SWAP2 SWAP1 PUSH2 0x12F JUMP JUMPDEST PUSH1 0x40 MLOAD DUP1 SWAP2 SUB SWAP1 RETURN JUMPDEST PUSH2 0x78 PUSH2 0xC7 JUMP JUMPDEST PUSH1 0x40 MLOAD PUSH2 0x86 SWAP3 SWAP2 SWAP1 PUSH2 0x12F JUMP JUMPDEST PUSH1 0x40 MLOAD DUP1 SWAP2 SUB SWAP1 RETURN JUMPDEST PUSH2 0x97 PUSH2 0xD6 JUMP JUMPDEST PUSH1 0x40 MLOAD PUSH2 0xA5 SWAP3 SWAP2 SWAP1 PUSH2 0x12F JUMP JUMPDEST PUSH1 0x40 MLOAD DUP1 SWAP2 SUB SWAP1 RETURN JUMPDEST PUSH2 0xB6 PUSH2 0xE4 JUMP JUMPDEST STOP JUMPDEST PUSH1 0x0 DUP1 PUSH1 0x2 PUSH1 0x0 SWAP2 POP SWAP2 POP SWAP1 SWAP2 JUMP JUMPDEST PUSH1 0x0 DUP1 PUSH1 0x3 SWAP2 POP PUSH1 0x1 SWAP1 POP SWAP1 SWAP2 JUMP JUMPDEST PUSH1 0x0 DUP1 PUSH1 0x1 DUP1 SWAP2 POP SWAP2 POP SWAP1 SWAP2 JUMP JUMPDEST PUSH1 0x0 DUP1 PUSH2 0xEF PUSH2 0xD6 JUMP JUMPDEST DUP1 SWAP3 POP DUP2 SWAP4 POP POP POP POP POP JUMP JUMPDEST PUSH1 0x0 DUP2 SWAP1 POP SWAP2 SWAP1 POP JUMP JUMPDEST PUSH2 0x10E DUP2 PUSH2 0xFB JUMP JUMPDEST DUP3 MSTORE POP POP JUMP JUMPDEST PUSH1 0x0 DUP2 ISZERO ISZERO SWAP1 POP SWAP2 SWAP1 POP JUMP JUMPDEST PUSH2 0x129 DUP2 PUSH2 0x114 JUMP JUMPDEST DUP3 MSTORE POP POP JUMP JUMPDEST PUSH1 0x0 PUSH1 0x40 DUP3 ADD SWAP1 POP PUSH2 0x144 PUSH1 0x0 DUP4 ADD DUP6 PUSH2 0x105 JUMP JUMPDEST PUSH2 0x151 PUSH1 0x20 DUP4 ADD DUP5 PUSH2 0x120 JUMP JUMPDEST SWAP4 SWAP3 POP POP POP JUMP INVALID LOG2 PUSH5 0x6970667358 0x22 SLT KECCAK256 LT 0x2E PUSH25 0xFAFF41D8DC324D7F36115F108E4DA280609922B8DFAC71F320 SWAP1 0xB0 0xCA MSTORE PUSH5 0x736F6C6343 STOP ADDMOD 0xF STOP CALLER "
				},
				"gasEstimates": {
					"creation": {
						"codeDepositCost": "79600",
						"executionCost": "129",
						"totalCost": "79729"
					},
					"external": {
						"f1()": "479",
						"f2()": "435",
						"f3()": "457",
						"f4()": "270"
					}
				},
				"methodIdentifiers": {
					"f1()": "c27fc305",
					"f2()": "9942ec6f",
					"f3()": "aaf05f3d",
					"f4()": "c3f90202"
				}
			},
			"storageLayout": {
				"storage": [],
				"types": null
			},
			"userdoc": {
				"kind": "user",
				"methods": {},
				"version": 1
			}
		}
	}
}