{
	"crowdfunding.sol": {
		"CrowdfundingContract": {
			"abi": [
				{
					"inputs": [
						{
							"internalType": "string",
							"name": "_title",
							"type": "string"
						},
						{
							"internalType": "address",
							"name": "_recipient",
							"type": "address"
						},
						{
							"internalType": "string",
							"name": "_expectAmout",
							"type": "string"
						}
					],
					"name": "createCrowdfunding",
					"outputs": [],
					"stateMutability": "nonpayable",
					"type": "function"
				},
				{
					"inputs": [
						{
							"internalType": "uint256",
							"name": "_status",
							"type": "uint256"
						}
					],
					"name": "getCrowdfundingByStatus",
					"outputs": [
						{
							"components": [
								{
									"internalType": "uint256",
									"name": "num",
									"type": "uint256"
								},
								{
									"internalType": "string",
									"name": "title",
									"type": "string"
								},
								{
									"internalType": "uint256",
									"name": "status",
									"type": "uint256"
								},
								{
									"internalType": "address",
									"name": "creator",
									"type": "address"
								},
								{
									"internalType": "address",
									"name": "recipient",
									"type": "address"
								},
								{
									"internalType": "uint256",
									"name": "joinNum",
									"type": "uint256"
								},
								{
									"internalType": "string",
									"name": "expectAmout",
									"type": "string"
								},
								{
									"internalType": "string",
									"name": "actualAmount",
									"type": "string"
								}
							],
							"internalType": "struct CrowdfundingContract.Crowdfunding[]",
							"name": "",
							"type": "tuple[]"
						}
					],
					"stateMutability": "view",
					"type": "function"
				},
				{
					"inputs": [
						{
							"internalType": "address",
							"name": "addr",
							"type": "address"
						}
					],
					"name": "getMyCrowdfunding",
					"outputs": [
						{
							"components": [
								{
									"internalType": "uint256",
									"name": "num",
									"type": "uint256"
								},
								{
									"internalType": "string",
									"name": "title",
									"type": "string"
								},
								{
									"internalType": "uint256",
									"name": "status",
									"type": "uint256"
								},
								{
									"internalType": "address",
									"name": "creator",
									"type": "address"
								},
								{
									"internalType": "address",
									"name": "recipient",
									"type": "address"
								},
								{
									"internalType": "uint256",
									"name": "joinNum",
									"type": "uint256"
								},
								{
									"internalType": "string",
									"name": "expectAmout",
									"type": "string"
								},
								{
									"internalType": "string",
									"name": "actualAmount",
									"type": "string"
								}
							],
							"internalType": "struct CrowdfundingContract.Crowdfunding[]",
							"name": "",
							"type": "tuple[]"
						}
					],
					"stateMutability": "view",
					"type": "function"
				},
				{
					"inputs": [
						{
							"internalType": "uint256",
							"name": "num",
							"type": "uint256"
						},
						{
							"internalType": "string",
							"name": "amount",
							"type": "string"
						},
						{
							"internalType": "address",
							"name": "addr",
							"type": "address"
						}
					],
					"name": "join",
					"outputs": [],
					"stateMutability": "nonpayable",
					"type": "function"
				},
				{
					"inputs": [
						{
							"internalType": "uint256",
							"name": "",
							"type": "uint256"
						}
					],
					"name": "list",
					"outputs": [
						{
							"internalType": "uint256",
							"name": "num",
							"type": "uint256"
						},
						{
							"internalType": "string",
							"name": "title",
							"type": "string"
						},
						{
							"internalType": "uint256",
							"name": "status",
							"type": "uint256"
						},
						{
							"internalType": "address",
							"name": "creator",
							"type": "address"
						},
						{
							"internalType": "address",
							"name": "recipient",
							"type": "address"
						},
						{
							"internalType": "uint256",
							"name": "joinNum",
							"type": "uint256"
						},
						{
							"internalType": "string",
							"name": "expectAmout",
							"type": "string"
						},
						{
							"internalType": "string",
							"name": "actualAmount",
							"type": "string"
						}
					],
					"stateMutability": "view",
					"type": "function"
				},
				{
					"inputs": [
						{
							"internalType": "uint256",
							"name": "num",
							"type": "uint256"
						}
					],
					"name": "setStatus",
					"outputs": [],
					"stateMutability": "nonpayable",
					"type": "function"
				},
				{
					"inputs": [
						{
							"internalType": "uint256",
							"name": "num",
							"type": "uint256"
						},
						{
							"internalType": "string",
							"name": "title",
							"type": "string"
						}
					],
					"name": "setTitle",
					"outputs": [],
					"stateMutability": "nonpayable",
					"type": "function"
				}
			],
			"devdoc": {
				"kind": "dev",
				"methods": {},
				"version": 1
			},
			"evm": {
				"assembly": "    /* \"crowdfunding.sol\":290:3158  contract CrowdfundingContract {\r... */\n  mstore(0x40, 0x80)\n  callvalue\n  dup1\n  iszero\n  tag_1\n  jumpi\n  0x00\n  dup1\n  revert\ntag_1:\n  pop\n  dataSize(sub_0)\n  dup1\n  dataOffset(sub_0)\n  0x00\n  codecopy\n  0x00\n  return\nstop\n\nsub_0: assembly {\n        /* \"crowdfunding.sol\":290:3158  contract CrowdfundingContract {\r... */\n      mstore(0x40, 0x80)\n      callvalue\n      dup1\n      iszero\n      tag_1\n      jumpi\n      0x00\n      dup1\n      revert\n    tag_1:\n      pop\n      jumpi(tag_2, lt(calldatasize, 0x04))\n      shr(0xe0, calldataload(0x00))\n      dup1\n      0x69ba1a75\n      gt\n      tag_10\n      jumpi\n      dup1\n      0x69ba1a75\n      eq\n      tag_6\n      jumpi\n      dup1\n      0x80c9419e\n      eq\n      tag_7\n      jumpi\n      dup1\n      0x904cc175\n      eq\n      tag_8\n      jumpi\n      dup1\n      0xa97af4d5\n      eq\n      tag_9\n      jumpi\n      jump(tag_2)\n    tag_10:\n      dup1\n      0x2d01cf03\n      eq\n      tag_3\n      jumpi\n      dup1\n      0x377e6ff7\n      eq\n      tag_4\n      jumpi\n      dup1\n      0x5102bc9d\n      eq\n      tag_5\n      jumpi\n    tag_2:\n      0x00\n      dup1\n      revert\n        /* \"crowdfunding.sol\":2596:2739  function join(uint num,string memory amount,address addr) public {\r... */\n    tag_3:\n      tag_11\n      0x04\n      dup1\n      calldatasize\n      sub\n      dup2\n      add\n      swap1\n      tag_12\n      swap2\n      swap1\n      tag_13\n      jump\t// in\n    tag_12:\n      tag_14\n      jump\t// in\n    tag_11:\n      stop\n        /* \"crowdfunding.sol\":3024:3155  function getMyCrowdfunding(address addr) public view returns (Crowdfunding[] memory) {\r... */\n    tag_4:\n      tag_15\n      0x04\n      dup1\n      calldatasize\n      sub\n      dup2\n      add\n      swap1\n      tag_16\n      swap2\n      swap1\n      tag_17\n      jump\t// in\n    tag_16:\n      tag_18\n      jump\t// in\n    tag_15:\n      mload(0x40)\n      tag_19\n      swap2\n      swap1\n      tag_20\n      jump\t// in\n    tag_19:\n      mload(0x40)\n      dup1\n      swap2\n      sub\n      swap1\n      return\n        /* \"crowdfunding.sol\":2465:2564  function setTitle(uint num,string memory title) public {\r... */\n    tag_5:\n      tag_21\n      0x04\n      dup1\n      calldatasize\n      sub\n      dup2\n      add\n      swap1\n      tag_22\n      swap2\n      swap1\n      tag_23\n      jump\t// in\n    tag_22:\n      tag_24\n      jump\t// in\n    tag_21:\n      stop\n        /* \"crowdfunding.sol\":1790:2382  function setStatus(uint num) public {\r... */\n    tag_6:\n      tag_25\n      0x04\n      dup1\n      calldatasize\n      sub\n      dup2\n      add\n      swap1\n      tag_26\n      swap2\n      swap1\n      tag_27\n      jump\t// in\n    tag_26:\n      tag_28\n      jump\t// in\n    tag_25:\n      stop\n        /* \"crowdfunding.sol\":813:839  Crowdfunding[] public list */\n    tag_7:\n      tag_29\n      0x04\n      dup1\n      calldatasize\n      sub\n      dup2\n      add\n      swap1\n      tag_30\n      swap2\n      swap1\n      tag_27\n      jump\t// in\n    tag_30:\n      tag_31\n      jump\t// in\n    tag_29:\n      mload(0x40)\n      tag_32\n      swap9\n      swap8\n      swap7\n      swap6\n      swap5\n      swap4\n      swap3\n      swap2\n      swap1\n      tag_33\n      jump\t// in\n    tag_32:\n      mload(0x40)\n      dup1\n      swap2\n      sub\n      swap1\n      return\n        /* \"crowdfunding.sol\":2791:2974  function getCrowdfundingByStatus(uint _status) public view returns (Crowdfunding[] memory) {\r... */\n    tag_8:\n      tag_34\n      0x04\n      dup1\n      calldatasize\n      sub\n      dup2\n      add\n      swap1\n      tag_35\n      swap2\n      swap1\n      tag_27\n      jump\t// in\n    tag_35:\n      tag_36\n      jump\t// in\n    tag_34:\n      mload(0x40)\n      tag_37\n      swap2\n      swap1\n      tag_20\n      jump\t// in\n    tag_37:\n      mload(0x40)\n      dup1\n      swap2\n      sub\n      swap1\n      return\n        /* \"crowdfunding.sol\":1095:1711  function createCrowdfunding(string memory _title,address _recipient, string memory _expectAmout) public {\r... */\n    tag_9:\n      tag_38\n      0x04\n      dup1\n      calldatasize\n      sub\n      dup2\n      add\n      swap1\n      tag_39\n      swap2\n      swap1\n      tag_40\n      jump\t// in\n    tag_39:\n      tag_41\n      jump\t// in\n    tag_38:\n      stop\n        /* \"crowdfunding.sol\":2596:2739  function join(uint num,string memory amount,address addr) public {\r... */\n    tag_14:\n      pop\n      pop\n      pop\n      jump\t// out\n        /* \"crowdfunding.sol\":3024:3155  function getMyCrowdfunding(address addr) public view returns (Crowdfunding[] memory) {\r... */\n    tag_18:\n        /* \"crowdfunding.sol\":3086:3107  Crowdfunding[] memory */\n      0x60\n        /* \"crowdfunding.sol\":3127:3141  myCrowdfunding */\n      0x03\n        /* \"crowdfunding.sol\":3127:3147  myCrowdfunding[addr] */\n      0x00\n        /* \"crowdfunding.sol\":3142:3146  addr */\n      dup4\n        /* \"crowdfunding.sol\":3127:3147  myCrowdfunding[addr] */\n      0xffffffffffffffffffffffffffffffffffffffff\n      and\n      0xffffffffffffffffffffffffffffffffffffffff\n      and\n      dup2\n      mstore\n      0x20\n      add\n      swap1\n      dup2\n      mstore\n      0x20\n      add\n      0x00\n      keccak256\n        /* \"crowdfunding.sol\":3120:3147  return myCrowdfunding[addr] */\n      dup1\n      sload\n      dup1\n      0x20\n      mul\n      0x20\n      add\n      mload(0x40)\n      swap1\n      dup2\n      add\n      0x40\n      mstore\n      dup1\n      swap3\n      swap2\n      swap1\n      dup2\n      dup2\n      mstore\n      0x20\n      add\n      0x00\n      swap1\n    tag_44:\n      dup3\n      dup3\n      lt\n      iszero\n      tag_45\n      jumpi\n      dup4\n      dup3\n      swap1\n      0x00\n      mstore\n      keccak256(0x00, 0x20)\n      swap1\n      0x08\n      mul\n      add\n      mload(0x40)\n      dup1\n      0x0100\n      add\n      0x40\n      mstore\n      swap1\n      dup2\n      0x00\n      dup3\n      add\n      sload\n      dup2\n      mstore\n      0x20\n      add\n      0x01\n      dup3\n      add\n      dup1\n      sload\n      tag_47\n      swap1\n      tag_48\n      jump\t// in\n    tag_47:\n      dup1\n      0x1f\n      add\n      0x20\n      dup1\n      swap2\n      div\n      mul\n      0x20\n      add\n      mload(0x40)\n      swap1\n      dup2\n      add\n      0x40\n      mstore\n      dup1\n      swap3\n      swap2\n      swap1\n      dup2\n      dup2\n      mstore\n      0x20\n      add\n      dup3\n      dup1\n      sload\n      tag_49\n      swap1\n      tag_48\n      jump\t// in\n    tag_49:\n      dup1\n      iszero\n      tag_50\n      jumpi\n      dup1\n      0x1f\n      lt\n      tag_51\n      jumpi\n      0x0100\n      dup1\n      dup4\n      sload\n      div\n      mul\n      dup4\n      mstore\n      swap2\n      0x20\n      add\n      swap2\n      jump(tag_50)\n    tag_51:\n      dup3\n      add\n      swap2\n      swap1\n      0x00\n      mstore\n      keccak256(0x00, 0x20)\n      swap1\n    tag_52:\n      dup2\n      sload\n      dup2\n      mstore\n      swap1\n      0x01\n      add\n      swap1\n      0x20\n      add\n      dup1\n      dup4\n      gt\n      tag_52\n      jumpi\n      dup3\n      swap1\n      sub\n      0x1f\n      and\n      dup3\n      add\n      swap2\n    tag_50:\n      pop\n      pop\n      pop\n      pop\n      pop\n      dup2\n      mstore\n      0x20\n      add\n      0x02\n      dup3\n      add\n      sload\n      dup2\n      mstore\n      0x20\n      add\n      0x03\n      dup3\n      add\n      0x00\n      swap1\n      sload\n      swap1\n      0x0100\n      exp\n      swap1\n      div\n      0xffffffffffffffffffffffffffffffffffffffff\n      and\n      0xffffffffffffffffffffffffffffffffffffffff\n      and\n      0xffffffffffffffffffffffffffffffffffffffff\n      and\n      dup2\n      mstore\n      0x20\n      add\n      0x04\n      dup3\n      add\n      0x00\n      swap1\n      sload\n      swap1\n      0x0100\n      exp\n      swap1\n      div\n      0xffffffffffffffffffffffffffffffffffffffff\n      and\n      0xffffffffffffffffffffffffffffffffffffffff\n      and\n      0xffffffffffffffffffffffffffffffffffffffff\n      and\n      dup2\n      mstore\n      0x20\n      add\n      0x05\n      dup3\n      add\n      sload\n      dup2\n      mstore\n      0x20\n      add\n      0x06\n      dup3\n      add\n      dup1\n      sload\n      tag_53\n      swap1\n      tag_48\n      jump\t// in\n    tag_53:\n      dup1\n      0x1f\n      add\n      0x20\n      dup1\n      swap2\n      div\n      mul\n      0x20\n      add\n      mload(0x40)\n      swap1\n      dup2\n      add\n      0x40\n      mstore\n      dup1\n      swap3\n      swap2\n      swap1\n      dup2\n      dup2\n      mstore\n      0x20\n      add\n      dup3\n      dup1\n      sload\n      tag_54\n      swap1\n      tag_48\n      jump\t// in\n    tag_54:\n      dup1\n      iszero\n      tag_55\n      jumpi\n      dup1\n      0x1f\n      lt\n      tag_56\n      jumpi\n      0x0100\n      dup1\n      dup4\n      sload\n      div\n      mul\n      dup4\n      mstore\n      swap2\n      0x20\n      add\n      swap2\n      jump(tag_55)\n    tag_56:\n      dup3\n      add\n      swap2\n      swap1\n      0x00\n      mstore\n      keccak256(0x00, 0x20)\n      swap1\n    tag_57:\n      dup2\n      sload\n      dup2\n      mstore\n      swap1\n      0x01\n      add\n      swap1\n      0x20\n      add\n      dup1\n      dup4\n      gt\n      tag_57\n      jumpi\n      dup3\n      swap1\n      sub\n      0x1f\n      and\n      dup3\n      add\n      swap2\n    tag_55:\n      pop\n      pop\n      pop\n      pop\n      pop\n      dup2\n      mstore\n      0x20\n      add\n      0x07\n      dup3\n      add\n      dup1\n      sload\n      tag_58\n      swap1\n      tag_48\n      jump\t// in\n    tag_58:\n      dup1\n      0x1f\n      add\n      0x20\n      dup1\n      swap2\n      div\n      mul\n      0x20\n      add\n      mload(0x40)\n      swap1\n      dup2\n      add\n      0x40\n      mstore\n      dup1\n      swap3\n      swap2\n      swap1\n      dup2\n      dup2\n      mstore\n      0x20\n      add\n      dup3\n      dup1\n      sload\n      tag_59\n      swap1\n      tag_48\n      jump\t// in\n    tag_59:\n      dup1\n      iszero\n      tag_60\n      jumpi\n      dup1\n      0x1f\n      lt\n      tag_61\n      jumpi\n      0x0100\n      dup1\n      dup4\n      sload\n      div\n      mul\n      dup4\n      mstore\n      swap2\n      0x20\n      add\n      swap2\n      jump(tag_60)\n    tag_61:\n      dup3\n      add\n      swap2\n      swap1\n      0x00\n      mstore\n      keccak256(0x00, 0x20)\n      swap1\n    tag_62:\n      dup2\n      sload\n      dup2\n      mstore\n      swap1\n      0x01\n      add\n      swap1\n      0x20\n      add\n      dup1\n      dup4\n      gt\n      tag_62\n      jumpi\n      dup3\n      swap1\n      sub\n      0x1f\n      and\n      dup3\n      add\n      swap2\n    tag_60:\n      pop\n      pop\n      pop\n      pop\n      pop\n      dup2\n      mstore\n      pop\n      pop\n      dup2\n      mstore\n      0x20\n      add\n      swap1\n      0x01\n      add\n      swap1\n      jump(tag_44)\n    tag_45:\n      pop\n      pop\n      pop\n      pop\n      swap1\n      pop\n        /* \"crowdfunding.sol\":3024:3155  function getMyCrowdfunding(address addr) public view returns (Crowdfunding[] memory) {\r... */\n      swap2\n      swap1\n      pop\n      jump\t// out\n        /* \"crowdfunding.sol\":2465:2564  function setTitle(uint num,string memory title) public {\r... */\n    tag_24:\n        /* \"crowdfunding.sol\":2551:2556  title */\n      dup1\n        /* \"crowdfunding.sol\":2531:2535  list */\n      0x01\n        /* \"crowdfunding.sol\":2540:2541  1 */\n      dup1\n        /* \"crowdfunding.sol\":2536:2539  num */\n      dup5\n        /* \"crowdfunding.sol\":2536:2541  num-1 */\n      tag_64\n      swap2\n      swap1\n      tag_65\n      jump\t// in\n    tag_64:\n        /* \"crowdfunding.sol\":2531:2542  list[num-1] */\n      dup2\n      sload\n      dup2\n      lt\n      tag_66\n      jumpi\n      tag_67\n      tag_68\n      jump\t// in\n    tag_67:\n    tag_66:\n      swap1\n      0x00\n      mstore\n      keccak256(0x00, 0x20)\n      swap1\n      0x08\n      mul\n      add\n        /* \"crowdfunding.sol\":2531:2548  list[num-1].title */\n      0x01\n      add\n        /* \"crowdfunding.sol\":2531:2556  list[num-1].title = title */\n      swap1\n      dup1\n      mload\n      swap1\n      0x20\n      add\n      swap1\n      tag_70\n      swap3\n      swap2\n      swap1\n      tag_71\n      jump\t// in\n    tag_70:\n      pop\n        /* \"crowdfunding.sol\":2465:2564  function setTitle(uint num,string memory title) public {\r... */\n      pop\n      pop\n      jump\t// out\n        /* \"crowdfunding.sol\":1790:2382  function setStatus(uint num) public {\r... */\n    tag_28:\n        /* \"crowdfunding.sol\":1858:1859  3 */\n      0x03\n        /* \"crowdfunding.sol\":1837:1841  list */\n      0x01\n        /* \"crowdfunding.sol\":1846:1847  1 */\n      dup1\n        /* \"crowdfunding.sol\":1842:1845  num */\n      dup4\n        /* \"crowdfunding.sol\":1842:1847  num-1 */\n      tag_73\n      swap2\n      swap1\n      tag_65\n      jump\t// in\n    tag_73:\n        /* \"crowdfunding.sol\":1837:1848  list[num-1] */\n      dup2\n      sload\n      dup2\n      lt\n      tag_74\n      jumpi\n      tag_75\n      tag_68\n      jump\t// in\n    tag_75:\n    tag_74:\n      swap1\n      0x00\n      mstore\n      keccak256(0x00, 0x20)\n      swap1\n      0x08\n      mul\n      add\n        /* \"crowdfunding.sol\":1837:1855  list[num-1].status */\n      0x02\n      add\n        /* \"crowdfunding.sol\":1837:1859  list[num-1].status = 3 */\n      dup2\n      swap1\n      sstore\n      pop\n        /* \"crowdfunding.sol\":1968:1969  1 */\n      0x01\n        /* \"crowdfunding.sol\":1936:1954  filterDataByStatus */\n      0x02\n        /* \"crowdfunding.sol\":1936:1957  filterDataByStatus[1] */\n      0x00\n        /* \"crowdfunding.sol\":1955:1956  1 */\n      0x01\n        /* \"crowdfunding.sol\":1936:1957  filterDataByStatus[1] */\n      dup2\n      mstore\n      0x20\n      add\n      swap1\n      dup2\n      mstore\n      0x20\n      add\n      0x00\n      keccak256\n        /* \"crowdfunding.sol\":1936:1964  filterDataByStatus[1].length */\n      dup1\n      sload\n      swap1\n      pop\n        /* \"crowdfunding.sol\":1936:1969  filterDataByStatus[1].length == 1 */\n      eq\n        /* \"crowdfunding.sol\":1933:2325  if(filterDataByStatus[1].length == 1){\r... */\n      iszero\n      tag_77\n      jumpi\n        /* \"crowdfunding.sol\":1985:2003  filterDataByStatus */\n      0x02\n        /* \"crowdfunding.sol\":1985:2006  filterDataByStatus[1] */\n      0x00\n        /* \"crowdfunding.sol\":2004:2005  1 */\n      0x01\n        /* \"crowdfunding.sol\":1985:2006  filterDataByStatus[1] */\n      dup2\n      mstore\n      0x20\n      add\n      swap1\n      dup2\n      mstore\n      0x20\n      add\n      0x00\n      keccak256\n        /* \"crowdfunding.sol\":1985:2012  filterDataByStatus[1].pop() */\n      dup1\n      sload\n      dup1\n      tag_78\n      jumpi\n      tag_79\n      tag_80\n      jump\t// in\n    tag_79:\n    tag_78:\n      0x01\n      swap1\n      sub\n      dup2\n      dup2\n      swap1\n      0x00\n      mstore\n      keccak256(0x00, 0x20)\n      swap1\n      0x08\n      mul\n      add\n      0x00\n      dup1\n      dup3\n      add\n      0x00\n      swap1\n      sstore\n      0x01\n      dup3\n      add\n      0x00\n      tag_82\n      swap2\n      swap1\n      tag_83\n      jump\t// in\n    tag_82:\n      0x02\n      dup3\n      add\n      0x00\n      swap1\n      sstore\n      0x03\n      dup3\n      add\n      exp(0x0100, 0x00)\n      dup2\n      sload\n      swap1\n      0xffffffffffffffffffffffffffffffffffffffff\n      mul\n      not\n      and\n      swap1\n      sstore\n      0x04\n      dup3\n      add\n      exp(0x0100, 0x00)\n      dup2\n      sload\n      swap1\n      0xffffffffffffffffffffffffffffffffffffffff\n      mul\n      not\n      and\n      swap1\n      sstore\n      0x05\n      dup3\n      add\n      0x00\n      swap1\n      sstore\n      0x06\n      dup3\n      add\n      0x00\n      tag_84\n      swap2\n      swap1\n      tag_83\n      jump\t// in\n    tag_84:\n      0x07\n      dup3\n      add\n      0x00\n      tag_85\n      swap2\n      swap1\n      tag_83\n      jump\t// in\n    tag_85:\n      pop\n      pop\n      swap1\n      sstore\n        /* \"crowdfunding.sol\":1933:2325  if(filterDataByStatus[1].length == 1){\r... */\n      jump(tag_86)\n    tag_77:\n        /* \"crowdfunding.sol\":2047:2053  uint i */\n      0x00\n        /* \"crowdfunding.sol\":2043:2272  for(uint i = 0; i < filterDataByStatus[1].length - 1; i++) {\r... */\n    tag_87:\n        /* \"crowdfunding.sol\":2094:2095  1 */\n      0x01\n        /* \"crowdfunding.sol\":2063:2081  filterDataByStatus */\n      0x02\n        /* \"crowdfunding.sol\":2063:2084  filterDataByStatus[1] */\n      0x00\n        /* \"crowdfunding.sol\":2082:2083  1 */\n      0x01\n        /* \"crowdfunding.sol\":2063:2084  filterDataByStatus[1] */\n      dup2\n      mstore\n      0x20\n      add\n      swap1\n      dup2\n      mstore\n      0x20\n      add\n      0x00\n      keccak256\n        /* \"crowdfunding.sol\":2063:2091  filterDataByStatus[1].length */\n      dup1\n      sload\n      swap1\n      pop\n        /* \"crowdfunding.sol\":2063:2095  filterDataByStatus[1].length - 1 */\n      tag_90\n      swap2\n      swap1\n      tag_65\n      jump\t// in\n    tag_90:\n        /* \"crowdfunding.sol\":2059:2060  i */\n      dup2\n        /* \"crowdfunding.sol\":2059:2095  i < filterDataByStatus[1].length - 1 */\n      lt\n        /* \"crowdfunding.sol\":2043:2272  for(uint i = 0; i < filterDataByStatus[1].length - 1; i++) {\r... */\n      iszero\n      tag_88\n      jumpi\n        /* \"crowdfunding.sol\":2156:2159  num */\n      dup2\n        /* \"crowdfunding.sol\":2124:2142  filterDataByStatus */\n      0x02\n        /* \"crowdfunding.sol\":2124:2145  filterDataByStatus[1] */\n      0x00\n        /* \"crowdfunding.sol\":2143:2144  1 */\n      0x01\n        /* \"crowdfunding.sol\":2124:2145  filterDataByStatus[1] */\n      dup2\n      mstore\n      0x20\n      add\n      swap1\n      dup2\n      mstore\n      0x20\n      add\n      0x00\n      keccak256\n        /* \"crowdfunding.sol\":2146:2147  i */\n      dup3\n        /* \"crowdfunding.sol\":2124:2148  filterDataByStatus[1][i] */\n      dup2\n      sload\n      dup2\n      lt\n      tag_91\n      jumpi\n      tag_92\n      tag_68\n      jump\t// in\n    tag_92:\n    tag_91:\n      swap1\n      0x00\n      mstore\n      keccak256(0x00, 0x20)\n      swap1\n      0x08\n      mul\n      add\n        /* \"crowdfunding.sol\":2124:2152  filterDataByStatus[1][i].num */\n      0x00\n      add\n      sload\n        /* \"crowdfunding.sol\":2124:2159  filterDataByStatus[1][i].num == num */\n      eq\n        /* \"crowdfunding.sol\":2121:2257  if(filterDataByStatus[1][i].num == num) {\r... */\n      iszero\n      tag_94\n      jumpi\n        /* \"crowdfunding.sol\":2211:2229  filterDataByStatus */\n      0x02\n        /* \"crowdfunding.sol\":2211:2232  filterDataByStatus[1] */\n      0x00\n        /* \"crowdfunding.sol\":2230:2231  1 */\n      0x01\n        /* \"crowdfunding.sol\":2211:2232  filterDataByStatus[1] */\n      dup2\n      mstore\n      0x20\n      add\n      swap1\n      dup2\n      mstore\n      0x20\n      add\n      0x00\n      keccak256\n        /* \"crowdfunding.sol\":2235:2236  1 */\n      0x01\n        /* \"crowdfunding.sol\":2233:2234  i */\n      dup3\n        /* \"crowdfunding.sol\":2233:2236  i+1 */\n      tag_95\n      swap2\n      swap1\n      tag_96\n      jump\t// in\n    tag_95:\n        /* \"crowdfunding.sol\":2211:2237  filterDataByStatus[1][i+1] */\n      dup2\n      sload\n      dup2\n      lt\n      tag_97\n      jumpi\n      tag_98\n      tag_68\n      jump\t// in\n    tag_98:\n    tag_97:\n      swap1\n      0x00\n      mstore\n      keccak256(0x00, 0x20)\n      swap1\n      0x08\n      mul\n      add\n        /* \"crowdfunding.sol\":2184:2202  filterDataByStatus */\n      0x02\n        /* \"crowdfunding.sol\":2184:2205  filterDataByStatus[1] */\n      0x00\n        /* \"crowdfunding.sol\":2203:2204  1 */\n      0x01\n        /* \"crowdfunding.sol\":2184:2205  filterDataByStatus[1] */\n      dup2\n      mstore\n      0x20\n      add\n      swap1\n      dup2\n      mstore\n      0x20\n      add\n      0x00\n      keccak256\n        /* \"crowdfunding.sol\":2206:2207  i */\n      dup3\n        /* \"crowdfunding.sol\":2184:2208  filterDataByStatus[1][i] */\n      dup2\n      sload\n      dup2\n      lt\n      tag_100\n      jumpi\n      tag_101\n      tag_68\n      jump\t// in\n    tag_101:\n    tag_100:\n      swap1\n      0x00\n      mstore\n      keccak256(0x00, 0x20)\n      swap1\n      0x08\n      mul\n      add\n        /* \"crowdfunding.sol\":2184:2237  filterDataByStatus[1][i] = filterDataByStatus[1][i+1] */\n      0x00\n      dup3\n      add\n      sload\n      dup2\n      0x00\n      add\n      sstore\n      0x01\n      dup3\n      add\n      dup2\n      0x01\n      add\n      swap1\n      dup1\n      sload\n      tag_103\n      swap1\n      tag_48\n      jump\t// in\n    tag_103:\n      tag_104\n      swap3\n      swap2\n      swap1\n      tag_105\n      jump\t// in\n    tag_104:\n      pop\n      0x02\n      dup3\n      add\n      sload\n      dup2\n      0x02\n      add\n      sstore\n      0x03\n      dup3\n      add\n      0x00\n      swap1\n      sload\n      swap1\n      0x0100\n      exp\n      swap1\n      div\n      0xffffffffffffffffffffffffffffffffffffffff\n      and\n      dup2\n      0x03\n      add\n      exp(0x0100, 0x00)\n      dup2\n      sload\n      dup2\n      0xffffffffffffffffffffffffffffffffffffffff\n      mul\n      not\n      and\n      swap1\n      dup4\n      0xffffffffffffffffffffffffffffffffffffffff\n      and\n      mul\n      or\n      swap1\n      sstore\n      pop\n      0x04\n      dup3\n      add\n      0x00\n      swap1\n      sload\n      swap1\n      0x0100\n      exp\n      swap1\n      div\n      0xffffffffffffffffffffffffffffffffffffffff\n      and\n      dup2\n      0x04\n      add\n      exp(0x0100, 0x00)\n      dup2\n      sload\n      dup2\n      0xffffffffffffffffffffffffffffffffffffffff\n      mul\n      not\n      and\n      swap1\n      dup4\n      0xffffffffffffffffffffffffffffffffffffffff\n      and\n      mul\n      or\n      swap1\n      sstore\n      pop\n      0x05\n      dup3\n      add\n      sload\n      dup2\n      0x05\n      add\n      sstore\n      0x06\n      dup3\n      add\n      dup2\n      0x06\n      add\n      swap1\n      dup1\n      sload\n      tag_106\n      swap1\n      tag_48\n      jump\t// in\n    tag_106:\n      tag_107\n      swap3\n      swap2\n      swap1\n      tag_105\n      jump\t// in\n    tag_107:\n      pop\n      0x07\n      dup3\n      add\n      dup2\n      0x07\n      add\n      swap1\n      dup1\n      sload\n      tag_108\n      swap1\n      tag_48\n      jump\t// in\n    tag_108:\n      tag_109\n      swap3\n      swap2\n      swap1\n      tag_105\n      jump\t// in\n    tag_109:\n      pop\n      swap1\n      pop\n      pop\n        /* \"crowdfunding.sol\":2121:2257  if(filterDataByStatus[1][i].num == num) {\r... */\n    tag_94:\n        /* \"crowdfunding.sol\":2097:2100  i++ */\n      dup1\n      dup1\n      tag_110\n      swap1\n      tag_111\n      jump\t// in\n    tag_110:\n      swap2\n      pop\n      pop\n        /* \"crowdfunding.sol\":2043:2272  for(uint i = 0; i < filterDataByStatus[1].length - 1; i++) {\r... */\n      jump(tag_87)\n    tag_88:\n      pop\n        /* \"crowdfunding.sol\":2286:2304  filterDataByStatus */\n      0x02\n        /* \"crowdfunding.sol\":2286:2307  filterDataByStatus[1] */\n      0x00\n        /* \"crowdfunding.sol\":2305:2306  1 */\n      0x01\n        /* \"crowdfunding.sol\":2286:2307  filterDataByStatus[1] */\n      dup2\n      mstore\n      0x20\n      add\n      swap1\n      dup2\n      mstore\n      0x20\n      add\n      0x00\n      keccak256\n        /* \"crowdfunding.sol\":2286:2313  filterDataByStatus[1].pop() */\n      dup1\n      sload\n      dup1\n      tag_112\n      jumpi\n      tag_113\n      tag_80\n      jump\t// in\n    tag_113:\n    tag_112:\n      0x01\n      swap1\n      sub\n      dup2\n      dup2\n      swap1\n      0x00\n      mstore\n      keccak256(0x00, 0x20)\n      swap1\n      0x08\n      mul\n      add\n      0x00\n      dup1\n      dup3\n      add\n      0x00\n      swap1\n      sstore\n      0x01\n      dup3\n      add\n      0x00\n      tag_115\n      swap2\n      swap1\n      tag_83\n      jump\t// in\n    tag_115:\n      0x02\n      dup3\n      add\n      0x00\n      swap1\n      sstore\n      0x03\n      dup3\n      add\n      exp(0x0100, 0x00)\n      dup2\n      sload\n      swap1\n      0xffffffffffffffffffffffffffffffffffffffff\n      mul\n      not\n      and\n      swap1\n      sstore\n      0x04\n      dup3\n      add\n      exp(0x0100, 0x00)\n      dup2\n      sload\n      swap1\n      0xffffffffffffffffffffffffffffffffffffffff\n      mul\n      not\n      and\n      swap1\n      sstore\n      0x05\n      dup3\n      add\n      0x00\n      swap1\n      sstore\n      0x06\n      dup3\n      add\n      0x00\n      tag_116\n      swap2\n      swap1\n      tag_83\n      jump\t// in\n    tag_116:\n      0x07\n      dup3\n      add\n      0x00\n      tag_117\n      swap2\n      swap1\n      tag_83\n      jump\t// in\n    tag_117:\n      pop\n      pop\n      swap1\n      sstore\n        /* \"crowdfunding.sol\":1933:2325  if(filterDataByStatus[1].length == 1){\r... */\n    tag_86:\n        /* \"crowdfunding.sol\":2335:2353  filterDataByStatus */\n      0x02\n        /* \"crowdfunding.sol\":2335:2356  filterDataByStatus[3] */\n      0x00\n        /* \"crowdfunding.sol\":2354:2355  3 */\n      0x03\n        /* \"crowdfunding.sol\":2335:2356  filterDataByStatus[3] */\n      dup2\n      mstore\n      0x20\n      add\n      swap1\n      dup2\n      mstore\n      0x20\n      add\n      0x00\n      keccak256\n        /* \"crowdfunding.sol\":2362:2366  list */\n      0x01\n        /* \"crowdfunding.sol\":2371:2372  1 */\n      dup1\n        /* \"crowdfunding.sol\":2367:2370  num */\n      dup4\n        /* \"crowdfunding.sol\":2367:2372  num-1 */\n      tag_118\n      swap2\n      swap1\n      tag_65\n      jump\t// in\n    tag_118:\n        /* \"crowdfunding.sol\":2362:2373  list[num-1] */\n      dup2\n      sload\n      dup2\n      lt\n      tag_119\n      jumpi\n      tag_120\n      tag_68\n      jump\t// in\n    tag_120:\n    tag_119:\n      swap1\n      0x00\n      mstore\n      keccak256(0x00, 0x20)\n      swap1\n      0x08\n      mul\n      add\n        /* \"crowdfunding.sol\":2335:2374  filterDataByStatus[3].push(list[num-1]) */\n      swap1\n      dup1\n      0x01\n      dup2\n      sload\n      add\n      dup1\n      dup3\n      sstore\n      dup1\n      swap2\n      pop\n      pop\n      0x01\n      swap1\n      sub\n      swap1\n      0x00\n      mstore\n      keccak256(0x00, 0x20)\n      swap1\n      0x08\n      mul\n      add\n      0x00\n      swap1\n      swap2\n      swap1\n      swap2\n      swap1\n      swap2\n      pop\n      0x00\n      dup3\n      add\n      sload\n      dup2\n      0x00\n      add\n      sstore\n      0x01\n      dup3\n      add\n      dup2\n      0x01\n      add\n      swap1\n      dup1\n      sload\n      tag_123\n      swap1\n      tag_48\n      jump\t// in\n    tag_123:\n      tag_124\n      swap3\n      swap2\n      swap1\n      tag_105\n      jump\t// in\n    tag_124:\n      pop\n      0x02\n      dup3\n      add\n      sload\n      dup2\n      0x02\n      add\n      sstore\n      0x03\n      dup3\n      add\n      0x00\n      swap1\n      sload\n      swap1\n      0x0100\n      exp\n      swap1\n      div\n      0xffffffffffffffffffffffffffffffffffffffff\n      and\n      dup2\n      0x03\n      add\n      exp(0x0100, 0x00)\n      dup2\n      sload\n      dup2\n      0xffffffffffffffffffffffffffffffffffffffff\n      mul\n      not\n      and\n      swap1\n      dup4\n      0xffffffffffffffffffffffffffffffffffffffff\n      and\n      mul\n      or\n      swap1\n      sstore\n      pop\n      0x04\n      dup3\n      add\n      0x00\n      swap1\n      sload\n      swap1\n      0x0100\n      exp\n      swap1\n      div\n      0xffffffffffffffffffffffffffffffffffffffff\n      and\n      dup2\n      0x04\n      add\n      exp(0x0100, 0x00)\n      dup2\n      sload\n      dup2\n      0xffffffffffffffffffffffffffffffffffffffff\n      mul\n      not\n      and\n      swap1\n      dup4\n      0xffffffffffffffffffffffffffffffffffffffff\n      and\n      mul\n      or\n      swap1\n      sstore\n      pop\n      0x05\n      dup3\n      add\n      sload\n      dup2\n      0x05\n      add\n      sstore\n      0x06\n      dup3\n      add\n      dup2\n      0x06\n      add\n      swap1\n      dup1\n      sload\n      tag_125\n      swap1\n      tag_48\n      jump\t// in\n    tag_125:\n      tag_126\n      swap3\n      swap2\n      swap1\n      tag_105\n      jump\t// in\n    tag_126:\n      pop\n      0x07\n      dup3\n      add\n      dup2\n      0x07\n      add\n      swap1\n      dup1\n      sload\n      tag_127\n      swap1\n      tag_48\n      jump\t// in\n    tag_127:\n      tag_128\n      swap3\n      swap2\n      swap1\n      tag_105\n      jump\t// in\n    tag_128:\n      pop\n      pop\n      pop\n        /* \"crowdfunding.sol\":1790:2382  function setStatus(uint num) public {\r... */\n      pop\n      jump\t// out\n        /* \"crowdfunding.sol\":813:839  Crowdfunding[] public list */\n    tag_31:\n      0x01\n      dup2\n      dup2\n      sload\n      dup2\n      lt\n      tag_129\n      jumpi\n      0x00\n      dup1\n      revert\n    tag_129:\n      swap1\n      0x00\n      mstore\n      keccak256(0x00, 0x20)\n      swap1\n      0x08\n      mul\n      add\n      0x00\n      swap2\n      pop\n      swap1\n      pop\n      dup1\n      0x00\n      add\n      sload\n      swap1\n      dup1\n      0x01\n      add\n      dup1\n      sload\n      tag_131\n      swap1\n      tag_48\n      jump\t// in\n    tag_131:\n      dup1\n      0x1f\n      add\n      0x20\n      dup1\n      swap2\n      div\n      mul\n      0x20\n      add\n      mload(0x40)\n      swap1\n      dup2\n      add\n      0x40\n      mstore\n      dup1\n      swap3\n      swap2\n      swap1\n      dup2\n      dup2\n      mstore\n      0x20\n      add\n      dup3\n      dup1\n      sload\n      tag_132\n      swap1\n      tag_48\n      jump\t// in\n    tag_132:\n      dup1\n      iszero\n      tag_133\n      jumpi\n      dup1\n      0x1f\n      lt\n      tag_134\n      jumpi\n      0x0100\n      dup1\n      dup4\n      sload\n      div\n      mul\n      dup4\n      mstore\n      swap2\n      0x20\n      add\n      swap2\n      jump(tag_133)\n    tag_134:\n      dup3\n      add\n      swap2\n      swap1\n      0x00\n      mstore\n      keccak256(0x00, 0x20)\n      swap1\n    tag_135:\n      dup2\n      sload\n      dup2\n      mstore\n      swap1\n      0x01\n      add\n      swap1\n      0x20\n      add\n      dup1\n      dup4\n      gt\n      tag_135\n      jumpi\n      dup3\n      swap1\n      sub\n      0x1f\n      and\n      dup3\n      add\n      swap2\n    tag_133:\n      pop\n      pop\n      pop\n      pop\n      pop\n      swap1\n      dup1\n      0x02\n      add\n      sload\n      swap1\n      dup1\n      0x03\n      add\n      0x00\n      swap1\n      sload\n      swap1\n      0x0100\n      exp\n      swap1\n      div\n      0xffffffffffffffffffffffffffffffffffffffff\n      and\n      swap1\n      dup1\n      0x04\n      add\n      0x00\n      swap1\n      sload\n      swap1\n      0x0100\n      exp\n      swap1\n      div\n      0xffffffffffffffffffffffffffffffffffffffff\n      and\n      swap1\n      dup1\n      0x05\n      add\n      sload\n      swap1\n      dup1\n      0x06\n      add\n      dup1\n      sload\n      tag_136\n      swap1\n      tag_48\n      jump\t// in\n    tag_136:\n      dup1\n      0x1f\n      add\n      0x20\n      dup1\n      swap2\n      div\n      mul\n      0x20\n      add\n      mload(0x40)\n      swap1\n      dup2\n      add\n      0x40\n      mstore\n      dup1\n      swap3\n      swap2\n      swap1\n      dup2\n      dup2\n      mstore\n      0x20\n      add\n      dup3\n      dup1\n      sload\n      tag_137\n      swap1\n      tag_48\n      jump\t// in\n    tag_137:\n      dup1\n      iszero\n      tag_138\n      jumpi\n      dup1\n      0x1f\n      lt\n      tag_139\n      jumpi\n      0x0100\n      dup1\n      dup4\n      sload\n      div\n      mul\n      dup4\n      mstore\n      swap2\n      0x20\n      add\n      swap2\n      jump(tag_138)\n    tag_139:\n      dup3\n      add\n      swap2\n      swap1\n      0x00\n      mstore\n      keccak256(0x00, 0x20)\n      swap1\n    tag_140:\n      dup2\n      sload\n      dup2\n      mstore\n      swap1\n      0x01\n      add\n      swap1\n      0x20\n      add\n      dup1\n      dup4\n      gt\n      tag_140\n      jumpi\n      dup3\n      swap1\n      sub\n      0x1f\n      and\n      dup3\n      add\n      swap2\n    tag_138:\n      pop\n      pop\n      pop\n      pop\n      pop\n      swap1\n      dup1\n      0x07\n      add\n      dup1\n      sload\n      tag_141\n      swap1\n      tag_48\n      jump\t// in\n    tag_141:\n      dup1\n      0x1f\n      add\n      0x20\n      dup1\n      swap2\n      div\n      mul\n      0x20\n      add\n      mload(0x40)\n      swap1\n      dup2\n      add\n      0x40\n      mstore\n      dup1\n      swap3\n      swap2\n      swap1\n      dup2\n      dup2\n      mstore\n      0x20\n      add\n      dup3\n      dup1\n      sload\n      tag_142\n      swap1\n      tag_48\n      jump\t// in\n    tag_142:\n      dup1\n      iszero\n      tag_143\n      jumpi\n      dup1\n      0x1f\n      lt\n      tag_144\n      jumpi\n      0x0100\n      dup1\n      dup4\n      sload\n      div\n      mul\n      dup4\n      mstore\n      swap2\n      0x20\n      add\n      swap2\n      jump(tag_143)\n    tag_144:\n      dup3\n      add\n      swap2\n      swap1\n      0x00\n      mstore\n      keccak256(0x00, 0x20)\n      swap1\n    tag_145:\n      dup2\n      sload\n      dup2\n      mstore\n      swap1\n      0x01\n      add\n      swap1\n      0x20\n      add\n      dup1\n      dup4\n      gt\n      tag_145\n      jumpi\n      dup3\n      swap1\n      sub\n      0x1f\n      and\n      dup3\n      add\n      swap2\n    tag_143:\n      pop\n      pop\n      pop\n      pop\n      pop\n      swap1\n      pop\n      dup9\n      jump\t// out\n        /* \"crowdfunding.sol\":2791:2974  function getCrowdfundingByStatus(uint _status) public view returns (Crowdfunding[] memory) {\r... */\n    tag_36:\n        /* \"crowdfunding.sol\":2859:2880  Crowdfunding[] memory */\n      0x60\n        /* \"crowdfunding.sol\":2907:2908  0 */\n      0x00\n        /* \"crowdfunding.sol\":2896:2903  _status */\n      dup3\n        /* \"crowdfunding.sol\":2896:2908  _status == 0 */\n      eq\n        /* \"crowdfunding.sol\":2893:2921  if(_status == 0) return list */\n      iszero\n      tag_147\n      jumpi\n        /* \"crowdfunding.sol\":2917:2921  list */\n      0x01\n        /* \"crowdfunding.sol\":2910:2921  return list */\n      dup1\n      sload\n      dup1\n      0x20\n      mul\n      0x20\n      add\n      mload(0x40)\n      swap1\n      dup2\n      add\n      0x40\n      mstore\n      dup1\n      swap3\n      swap2\n      swap1\n      dup2\n      dup2\n      mstore\n      0x20\n      add\n      0x00\n      swap1\n    tag_148:\n      dup3\n      dup3\n      lt\n      iszero\n      tag_149\n      jumpi\n      dup4\n      dup3\n      swap1\n      0x00\n      mstore\n      keccak256(0x00, 0x20)\n      swap1\n      0x08\n      mul\n      add\n      mload(0x40)\n      dup1\n      0x0100\n      add\n      0x40\n      mstore\n      swap1\n      dup2\n      0x00\n      dup3\n      add\n      sload\n      dup2\n      mstore\n      0x20\n      add\n      0x01\n      dup3\n      add\n      dup1\n      sload\n      tag_151\n      swap1\n      tag_48\n      jump\t// in\n    tag_151:\n      dup1\n      0x1f\n      add\n      0x20\n      dup1\n      swap2\n      div\n      mul\n      0x20\n      add\n      mload(0x40)\n      swap1\n      dup2\n      add\n      0x40\n      mstore\n      dup1\n      swap3\n      swap2\n      swap1\n      dup2\n      dup2\n      mstore\n      0x20\n      add\n      dup3\n      dup1\n      sload\n      tag_152\n      swap1\n      tag_48\n      jump\t// in\n    tag_152:\n      dup1\n      iszero\n      tag_153\n      jumpi\n      dup1\n      0x1f\n      lt\n      tag_154\n      jumpi\n      0x0100\n      dup1\n      dup4\n      sload\n      div\n      mul\n      dup4\n      mstore\n      swap2\n      0x20\n      add\n      swap2\n      jump(tag_153)\n    tag_154:\n      dup3\n      add\n      swap2\n      swap1\n      0x00\n      mstore\n      keccak256(0x00, 0x20)\n      swap1\n    tag_155:\n      dup2\n      sload\n      dup2\n      mstore\n      swap1\n      0x01\n      add\n      swap1\n      0x20\n      add\n      dup1\n      dup4\n      gt\n      tag_155\n      jumpi\n      dup3\n      swap1\n      sub\n      0x1f\n      and\n      dup3\n      add\n      swap2\n    tag_153:\n      pop\n      pop\n      pop\n      pop\n      pop\n      dup2\n      mstore\n      0x20\n      add\n      0x02\n      dup3\n      add\n      sload\n      dup2\n      mstore\n      0x20\n      add\n      0x03\n      dup3\n      add\n      0x00\n      swap1\n      sload\n      swap1\n      0x0100\n      exp\n      swap1\n      div\n      0xffffffffffffffffffffffffffffffffffffffff\n      and\n      0xffffffffffffffffffffffffffffffffffffffff\n      and\n      0xffffffffffffffffffffffffffffffffffffffff\n      and\n      dup2\n      mstore\n      0x20\n      add\n      0x04\n      dup3\n      add\n      0x00\n      swap1\n      sload\n      swap1\n      0x0100\n      exp\n      swap1\n      div\n      0xffffffffffffffffffffffffffffffffffffffff\n      and\n      0xffffffffffffffffffffffffffffffffffffffff\n      and\n      0xffffffffffffffffffffffffffffffffffffffff\n      and\n      dup2\n      mstore\n      0x20\n      add\n      0x05\n      dup3\n      add\n      sload\n      dup2\n      mstore\n      0x20\n      add\n      0x06\n      dup3\n      add\n      dup1\n      sload\n      tag_156\n      swap1\n      tag_48\n      jump\t// in\n    tag_156:\n      dup1\n      0x1f\n      add\n      0x20\n      dup1\n      swap2\n      div\n      mul\n      0x20\n      add\n      mload(0x40)\n      swap1\n      dup2\n      add\n      0x40\n      mstore\n      dup1\n      swap3\n      swap2\n      swap1\n      dup2\n      dup2\n      mstore\n      0x20\n      add\n      dup3\n      dup1\n      sload\n      tag_157\n      swap1\n      tag_48\n      jump\t// in\n    tag_157:\n      dup1\n      iszero\n      tag_158\n      jumpi\n      dup1\n      0x1f\n      lt\n      tag_159\n      jumpi\n      0x0100\n      dup1\n      dup4\n      sload\n      div\n      mul\n      dup4\n      mstore\n      swap2\n      0x20\n      add\n      swap2\n      jump(tag_158)\n    tag_159:\n      dup3\n      add\n      swap2\n      swap1\n      0x00\n      mstore\n      keccak256(0x00, 0x20)\n      swap1\n    tag_160:\n      dup2\n      sload\n      dup2\n      mstore\n      swap1\n      0x01\n      add\n      swap1\n      0x20\n      add\n      dup1\n      dup4\n      gt\n      tag_160\n      jumpi\n      dup3\n      swap1\n      sub\n      0x1f\n      and\n      dup3\n      add\n      swap2\n    tag_158:\n      pop\n      pop\n      pop\n      pop\n      pop\n      dup2\n      mstore\n      0x20\n      add\n      0x07\n      dup3\n      add\n      dup1\n      sload\n      tag_161\n      swap1\n      tag_48\n      jump\t// in\n    tag_161:\n      dup1\n      0x1f\n      add\n      0x20\n      dup1\n      swap2\n      div\n      mul\n      0x20\n      add\n      mload(0x40)\n      swap1\n      dup2\n      add\n      0x40\n      mstore\n      dup1\n      swap3\n      swap2\n      swap1\n      dup2\n      dup2\n      mstore\n      0x20\n      add\n      dup3\n      dup1\n      sload\n      tag_162\n      swap1\n      tag_48\n      jump\t// in\n    tag_162:\n      dup1\n      iszero\n      tag_163\n      jumpi\n      dup1\n      0x1f\n      lt\n      tag_164\n      jumpi\n      0x0100\n      dup1\n      dup4\n      sload\n      div\n      mul\n      dup4\n      mstore\n      swap2\n      0x20\n      add\n      swap2\n      jump(tag_163)\n    tag_164:\n      dup3\n      add\n      swap2\n      swap1\n      0x00\n      mstore\n      keccak256(0x00, 0x20)\n      swap1\n    tag_165:\n      dup2\n      sload\n      dup2\n      mstore\n      swap1\n      0x01\n      add\n      swap1\n      0x20\n      add\n      dup1\n      dup4\n      gt\n      tag_165\n      jumpi\n      dup3\n      swap1\n      sub\n      0x1f\n      and\n      dup3\n      add\n      swap2\n    tag_163:\n      pop\n      pop\n      pop\n      pop\n      pop\n      dup2\n      mstore\n      pop\n      pop\n      dup2\n      mstore\n      0x20\n      add\n      swap1\n      0x01\n      add\n      swap1\n      jump(tag_148)\n    tag_149:\n      pop\n      pop\n      pop\n      pop\n      swap1\n      pop\n      jump(tag_146)\n        /* \"crowdfunding.sol\":2893:2921  if(_status == 0) return list */\n    tag_147:\n        /* \"crowdfunding.sol\":2939:2957  filterDataByStatus */\n      0x02\n        /* \"crowdfunding.sol\":2939:2966  filterDataByStatus[_status] */\n      0x00\n        /* \"crowdfunding.sol\":2958:2965  _status */\n      dup4\n        /* \"crowdfunding.sol\":2939:2966  filterDataByStatus[_status] */\n      dup2\n      mstore\n      0x20\n      add\n      swap1\n      dup2\n      mstore\n      0x20\n      add\n      0x00\n      keccak256\n        /* \"crowdfunding.sol\":2932:2966  return filterDataByStatus[_status] */\n      dup1\n      sload\n      dup1\n      0x20\n      mul\n      0x20\n      add\n      mload(0x40)\n      swap1\n      dup2\n      add\n      0x40\n      mstore\n      dup1\n      swap3\n      swap2\n      swap1\n      dup2\n      dup2\n      mstore\n      0x20\n      add\n      0x00\n      swap1\n    tag_166:\n      dup3\n      dup3\n      lt\n      iszero\n      tag_167\n      jumpi\n      dup4\n      dup3\n      swap1\n      0x00\n      mstore\n      keccak256(0x00, 0x20)\n      swap1\n      0x08\n      mul\n      add\n      mload(0x40)\n      dup1\n      0x0100\n      add\n      0x40\n      mstore\n      swap1\n      dup2\n      0x00\n      dup3\n      add\n      sload\n      dup2\n      mstore\n      0x20\n      add\n      0x01\n      dup3\n      add\n      dup1\n      sload\n      tag_169\n      swap1\n      tag_48\n      jump\t// in\n    tag_169:\n      dup1\n      0x1f\n      add\n      0x20\n      dup1\n      swap2\n      div\n      mul\n      0x20\n      add\n      mload(0x40)\n      swap1\n      dup2\n      add\n      0x40\n      mstore\n      dup1\n      swap3\n      swap2\n      swap1\n      dup2\n      dup2\n      mstore\n      0x20\n      add\n      dup3\n      dup1\n      sload\n      tag_170\n      swap1\n      tag_48\n      jump\t// in\n    tag_170:\n      dup1\n      iszero\n      tag_171\n      jumpi\n      dup1\n      0x1f\n      lt\n      tag_172\n      jumpi\n      0x0100\n      dup1\n      dup4\n      sload\n      div\n      mul\n      dup4\n      mstore\n      swap2\n      0x20\n      add\n      swap2\n      jump(tag_171)\n    tag_172:\n      dup3\n      add\n      swap2\n      swap1\n      0x00\n      mstore\n      keccak256(0x00, 0x20)\n      swap1\n    tag_173:\n      dup2\n      sload\n      dup2\n      mstore\n      swap1\n      0x01\n      add\n      swap1\n      0x20\n      add\n      dup1\n      dup4\n      gt\n      tag_173\n      jumpi\n      dup3\n      swap1\n      sub\n      0x1f\n      and\n      dup3\n      add\n      swap2\n    tag_171:\n      pop\n      pop\n      pop\n      pop\n      pop\n      dup2\n      mstore\n      0x20\n      add\n      0x02\n      dup3\n      add\n      sload\n      dup2\n      mstore\n      0x20\n      add\n      0x03\n      dup3\n      add\n      0x00\n      swap1\n      sload\n      swap1\n      0x0100\n      exp\n      swap1\n      div\n      0xffffffffffffffffffffffffffffffffffffffff\n      and\n      0xffffffffffffffffffffffffffffffffffffffff\n      and\n      0xffffffffffffffffffffffffffffffffffffffff\n      and\n      dup2\n      mstore\n      0x20\n      add\n      0x04\n      dup3\n      add\n      0x00\n      swap1\n      sload\n      swap1\n      0x0100\n      exp\n      swap1\n      div\n      0xffffffffffffffffffffffffffffffffffffffff\n      and\n      0xffffffffffffffffffffffffffffffffffffffff\n      and\n      0xffffffffffffffffffffffffffffffffffffffff\n      and\n      dup2\n      mstore\n      0x20\n      add\n      0x05\n      dup3\n      add\n      sload\n      dup2\n      mstore\n      0x20\n      add\n      0x06\n      dup3\n      add\n      dup1\n      sload\n      tag_174\n      swap1\n      tag_48\n      jump\t// in\n    tag_174:\n      dup1\n      0x1f\n      add\n      0x20\n      dup1\n      swap2\n      div\n      mul\n      0x20\n      add\n      mload(0x40)\n      swap1\n      dup2\n      add\n      0x40\n      mstore\n      dup1\n      swap3\n      swap2\n      swap1\n      dup2\n      dup2\n      mstore\n      0x20\n      add\n      dup3\n      dup1\n      sload\n      tag_175\n      swap1\n      tag_48\n      jump\t// in\n    tag_175:\n      dup1\n      iszero\n      tag_176\n      jumpi\n      dup1\n      0x1f\n      lt\n      tag_177\n      jumpi\n      0x0100\n      dup1\n      dup4\n      sload\n      div\n      mul\n      dup4\n      mstore\n      swap2\n      0x20\n      add\n      swap2\n      jump(tag_176)\n    tag_177:\n      dup3\n      add\n      swap2\n      swap1\n      0x00\n      mstore\n      keccak256(0x00, 0x20)\n      swap1\n    tag_178:\n      dup2\n      sload\n      dup2\n      mstore\n      swap1\n      0x01\n      add\n      swap1\n      0x20\n      add\n      dup1\n      dup4\n      gt\n      tag_178\n      jumpi\n      dup3\n      swap1\n      sub\n      0x1f\n      and\n      dup3\n      add\n      swap2\n    tag_176:\n      pop\n      pop\n      pop\n      pop\n      pop\n      dup2\n      mstore\n      0x20\n      add\n      0x07\n      dup3\n      add\n      dup1\n      sload\n      tag_179\n      swap1\n      tag_48\n      jump\t// in\n    tag_179:\n      dup1\n      0x1f\n      add\n      0x20\n      dup1\n      swap2\n      div\n      mul\n      0x20\n      add\n      mload(0x40)\n      swap1\n      dup2\n      add\n      0x40\n      mstore\n      dup1\n      swap3\n      swap2\n      swap1\n      dup2\n      dup2\n      mstore\n      0x20\n      add\n      dup3\n      dup1\n      sload\n      tag_180\n      swap1\n      tag_48\n      jump\t// in\n    tag_180:\n      dup1\n      iszero\n      tag_181\n      jumpi\n      dup1\n      0x1f\n      lt\n      tag_182\n      jumpi\n      0x0100\n      dup1\n      dup4\n      sload\n      div\n      mul\n      dup4\n      mstore\n      swap2\n      0x20\n      add\n      swap2\n      jump(tag_181)\n    tag_182:\n      dup3\n      add\n      swap2\n      swap1\n      0x00\n      mstore\n      keccak256(0x00, 0x20)\n      swap1\n    tag_183:\n      dup2\n      sload\n      dup2\n      mstore\n      swap1\n      0x01\n      add\n      swap1\n      0x20\n      add\n      dup1\n      dup4\n      gt\n      tag_183\n      jumpi\n      dup3\n      swap1\n      sub\n      0x1f\n      and\n      dup3\n      add\n      swap2\n    tag_181:\n      pop\n      pop\n      pop\n      pop\n      pop\n      dup2\n      mstore\n      pop\n      pop\n      dup2\n      mstore\n      0x20\n      add\n      swap1\n      0x01\n      add\n      swap1\n      jump(tag_166)\n    tag_167:\n      pop\n      pop\n      pop\n      pop\n      swap1\n      pop\n        /* \"crowdfunding.sol\":2791:2974  function getCrowdfundingByStatus(uint _status) public view returns (Crowdfunding[] memory) {\r... */\n    tag_146:\n      swap2\n      swap1\n      pop\n      jump\t// out\n        /* \"crowdfunding.sol\":1095:1711  function createCrowdfunding(string memory _title,address _recipient, string memory _expectAmout) public {\r... */\n    tag_41:\n        /* \"crowdfunding.sol\":1210:1212  No */\n      0x00\n      dup1\n        /* \"crowdfunding.sol\":1210:1214  No++ */\n      dup2\n      sload\n      dup1\n      swap3\n      swap2\n      swap1\n      tag_185\n      swap1\n      tag_111\n      jump\t// in\n    tag_185:\n      swap2\n      swap1\n      pop\n      sstore\n      pop\n        /* \"crowdfunding.sol\":1225:1246  Crowdfunding memory c */\n      0x00\n        /* \"crowdfunding.sol\":1249:1521  Crowdfunding({\r... */\n      mload(0x40)\n      dup1\n      0x0100\n      add\n      0x40\n      mstore\n      dup1\n        /* \"crowdfunding.sol\":1282:1284  No */\n      sload(0x00)\n        /* \"crowdfunding.sol\":1249:1521  Crowdfunding({\r... */\n      dup2\n      mstore\n      0x20\n      add\n        /* \"crowdfunding.sol\":1305:1311  _title */\n      dup6\n        /* \"crowdfunding.sol\":1249:1521  Crowdfunding({\r... */\n      dup2\n      mstore\n      0x20\n      add\n        /* \"crowdfunding.sol\":1334:1335  1 */\n      0x01\n        /* \"crowdfunding.sol\":1249:1521  Crowdfunding({\r... */\n      dup2\n      mstore\n      0x20\n      add\n        /* \"crowdfunding.sol\":1359:1369  msg.sender */\n      caller\n        /* \"crowdfunding.sol\":1249:1521  Crowdfunding({\r... */\n      0xffffffffffffffffffffffffffffffffffffffff\n      and\n      dup2\n      mstore\n      0x20\n      add\n        /* \"crowdfunding.sol\":1395:1405  _recipient */\n      dup5\n        /* \"crowdfunding.sol\":1249:1521  Crowdfunding({\r... */\n      0xffffffffffffffffffffffffffffffffffffffff\n      and\n      dup2\n      mstore\n      0x20\n      add\n        /* \"crowdfunding.sol\":1429:1430  0 */\n      0x00\n        /* \"crowdfunding.sol\":1249:1521  Crowdfunding({\r... */\n      dup2\n      mstore\n      0x20\n      add\n        /* \"crowdfunding.sol\":1465:1477  _expectAmout */\n      dup4\n        /* \"crowdfunding.sol\":1249:1521  Crowdfunding({\r... */\n      dup2\n      mstore\n      0x20\n      add\n      mload(0x40)\n      dup1\n      0x40\n      add\n      0x40\n      mstore\n      dup1\n      0x01\n      dup2\n      mstore\n      0x20\n      add\n      0x3000000000000000000000000000000000000000000000000000000000000000\n      dup2\n      mstore\n      pop\n      dup2\n      mstore\n      pop\n        /* \"crowdfunding.sol\":1225:1521  Crowdfunding memory c = Crowdfunding({\r... */\n      swap1\n      pop\n        /* \"crowdfunding.sol\":1532:1536  list */\n      0x01\n        /* \"crowdfunding.sol\":1542:1543  c */\n      dup2\n        /* \"crowdfunding.sol\":1532:1544  list.push(c) */\n      swap1\n      dup1\n      0x01\n      dup2\n      sload\n      add\n      dup1\n      dup3\n      sstore\n      dup1\n      swap2\n      pop\n      pop\n      0x01\n      swap1\n      sub\n      swap1\n      0x00\n      mstore\n      keccak256(0x00, 0x20)\n      swap1\n      0x08\n      mul\n      add\n      0x00\n      swap1\n      swap2\n      swap1\n      swap2\n      swap1\n      swap2\n      pop\n      0x00\n      dup3\n      add\n      mload\n      dup2\n      0x00\n      add\n      sstore\n      0x20\n      dup3\n      add\n      mload\n      dup2\n      0x01\n      add\n      swap1\n      dup1\n      mload\n      swap1\n      0x20\n      add\n      swap1\n      tag_187\n      swap3\n      swap2\n      swap1\n      tag_71\n      jump\t// in\n    tag_187:\n      pop\n      0x40\n      dup3\n      add\n      mload\n      dup2\n      0x02\n      add\n      sstore\n      0x60\n      dup3\n      add\n      mload\n      dup2\n      0x03\n      add\n      exp(0x0100, 0x00)\n      dup2\n      sload\n      dup2\n      0xffffffffffffffffffffffffffffffffffffffff\n      mul\n      not\n      and\n      swap1\n      dup4\n      0xffffffffffffffffffffffffffffffffffffffff\n      and\n      mul\n      or\n      swap1\n      sstore\n      pop\n      0x80\n      dup3\n      add\n      mload\n      dup2\n      0x04\n      add\n      exp(0x0100, 0x00)\n      dup2\n      sload\n      dup2\n      0xffffffffffffffffffffffffffffffffffffffff\n      mul\n      not\n      and\n      swap1\n      dup4\n      0xffffffffffffffffffffffffffffffffffffffff\n      and\n      mul\n      or\n      swap1\n      sstore\n      pop\n      0xa0\n      dup3\n      add\n      mload\n      dup2\n      0x05\n      add\n      sstore\n      0xc0\n      dup3\n      add\n      mload\n      dup2\n      0x06\n      add\n      swap1\n      dup1\n      mload\n      swap1\n      0x20\n      add\n      swap1\n      tag_188\n      swap3\n      swap2\n      swap1\n      tag_71\n      jump\t// in\n    tag_188:\n      pop\n      0xe0\n      dup3\n      add\n      mload\n      dup2\n      0x07\n      add\n      swap1\n      dup1\n      mload\n      swap1\n      0x20\n      add\n      swap1\n      tag_189\n      swap3\n      swap2\n      swap1\n      tag_71\n      jump\t// in\n    tag_189:\n      pop\n      pop\n      pop\n        /* \"crowdfunding.sol\":1629:1647  filterDataByStatus */\n      0x02\n        /* \"crowdfunding.sol\":1629:1650  filterDataByStatus[1] */\n      0x00\n        /* \"crowdfunding.sol\":1648:1649  1 */\n      0x01\n        /* \"crowdfunding.sol\":1629:1650  filterDataByStatus[1] */\n      dup2\n      mstore\n      0x20\n      add\n      swap1\n      dup2\n      mstore\n      0x20\n      add\n      0x00\n      keccak256\n        /* \"crowdfunding.sol\":1656:1657  c */\n      dup2\n        /* \"crowdfunding.sol\":1629:1658  filterDataByStatus[1].push(c) */\n      swap1\n      dup1\n      0x01\n      dup2\n      sload\n      add\n      dup1\n      dup3\n      sstore\n      dup1\n      swap2\n      pop\n      pop\n      0x01\n      swap1\n      sub\n      swap1\n      0x00\n      mstore\n      keccak256(0x00, 0x20)\n      swap1\n      0x08\n      mul\n      add\n      0x00\n      swap1\n      swap2\n      swap1\n      swap2\n      swap1\n      swap2\n      pop\n      0x00\n      dup3\n      add\n      mload\n      dup2\n      0x00\n      add\n      sstore\n      0x20\n      dup3\n      add\n      mload\n      dup2\n      0x01\n      add\n      swap1\n      dup1\n      mload\n      swap1\n      0x20\n      add\n      swap1\n      tag_191\n      swap3\n      swap2\n      swap1\n      tag_71\n      jump\t// in\n    tag_191:\n      pop\n      0x40\n      dup3\n      add\n      mload\n      dup2\n      0x02\n      add\n      sstore\n      0x60\n      dup3\n      add\n      mload\n      dup2\n      0x03\n      add\n      exp(0x0100, 0x00)\n      dup2\n      sload\n      dup2\n      0xffffffffffffffffffffffffffffffffffffffff\n      mul\n      not\n      and\n      swap1\n      dup4\n      0xffffffffffffffffffffffffffffffffffffffff\n      and\n      mul\n      or\n      swap1\n      sstore\n      pop\n      0x80\n      dup3\n      add\n      mload\n      dup2\n      0x04\n      add\n      exp(0x0100, 0x00)\n      dup2\n      sload\n      dup2\n      0xffffffffffffffffffffffffffffffffffffffff\n      mul\n      not\n      and\n      swap1\n      dup4\n      0xffffffffffffffffffffffffffffffffffffffff\n      and\n      mul\n      or\n      swap1\n      sstore\n      pop\n      0xa0\n      dup3\n      add\n      mload\n      dup2\n      0x05\n      add\n      sstore\n      0xc0\n      dup3\n      add\n      mload\n      dup2\n      0x06\n      add\n      swap1\n      dup1\n      mload\n      swap1\n      0x20\n      add\n      swap1\n      tag_192\n      swap3\n      swap2\n      swap1\n      tag_71\n      jump\t// in\n    tag_192:\n      pop\n      0xe0\n      dup3\n      add\n      mload\n      dup2\n      0x07\n      add\n      swap1\n      dup1\n      mload\n      swap1\n      0x20\n      add\n      swap1\n      tag_193\n      swap3\n      swap2\n      swap1\n      tag_71\n      jump\t// in\n    tag_193:\n      pop\n      pop\n      pop\n        /* \"crowdfunding.sol\":1669:1683  myCrowdfunding */\n      0x03\n        /* \"crowdfunding.sol\":1669:1695  myCrowdfunding[msg.sender] */\n      0x00\n        /* \"crowdfunding.sol\":1684:1694  msg.sender */\n      caller\n        /* \"crowdfunding.sol\":1669:1695  myCrowdfunding[msg.sender] */\n      0xffffffffffffffffffffffffffffffffffffffff\n      and\n      0xffffffffffffffffffffffffffffffffffffffff\n      and\n      dup2\n      mstore\n      0x20\n      add\n      swap1\n      dup2\n      mstore\n      0x20\n      add\n      0x00\n      keccak256\n        /* \"crowdfunding.sol\":1701:1702  c */\n      dup2\n        /* \"crowdfunding.sol\":1669:1703  myCrowdfunding[msg.sender].push(c) */\n      swap1\n      dup1\n      0x01\n      dup2\n      sload\n      add\n      dup1\n      dup3\n      sstore\n      dup1\n      swap2\n      pop\n      pop\n      0x01\n      swap1\n      sub\n      swap1\n      0x00\n      mstore\n      keccak256(0x00, 0x20)\n      swap1\n      0x08\n      mul\n      add\n      0x00\n      swap1\n      swap2\n      swap1\n      swap2\n      swap1\n      swap2\n      pop\n      0x00\n      dup3\n      add\n      mload\n      dup2\n      0x00\n      add\n      sstore\n      0x20\n      dup3\n      add\n      mload\n      dup2\n      0x01\n      add\n      swap1\n      dup1\n      mload\n      swap1\n      0x20\n      add\n      swap1\n      tag_195\n      swap3\n      swap2\n      swap1\n      tag_71\n      jump\t// in\n    tag_195:\n      pop\n      0x40\n      dup3\n      add\n      mload\n      dup2\n      0x02\n      add\n      sstore\n      0x60\n      dup3\n      add\n      mload\n      dup2\n      0x03\n      add\n      exp(0x0100, 0x00)\n      dup2\n      sload\n      dup2\n      0xffffffffffffffffffffffffffffffffffffffff\n      mul\n      not\n      and\n      swap1\n      dup4\n      0xffffffffffffffffffffffffffffffffffffffff\n      and\n      mul\n      or\n      swap1\n      sstore\n      pop\n      0x80\n      dup3\n      add\n      mload\n      dup2\n      0x04\n      add\n      exp(0x0100, 0x00)\n      dup2\n      sload\n      dup2\n      0xffffffffffffffffffffffffffffffffffffffff\n      mul\n      not\n      and\n      swap1\n      dup4\n      0xffffffffffffffffffffffffffffffffffffffff\n      and\n      mul\n      or\n      swap1\n      sstore\n      pop\n      0xa0\n      dup3\n      add\n      mload\n      dup2\n      0x05\n      add\n      sstore\n      0xc0\n      dup3\n      add\n      mload\n      dup2\n      0x06\n      add\n      swap1\n      dup1\n      mload\n      swap1\n      0x20\n      add\n      swap1\n      tag_196\n      swap3\n      swap2\n      swap1\n      tag_71\n      jump\t// in\n    tag_196:\n      pop\n      0xe0\n      dup3\n      add\n      mload\n      dup2\n      0x07\n      add\n      swap1\n      dup1\n      mload\n      swap1\n      0x20\n      add\n      swap1\n      tag_197\n      swap3\n      swap2\n      swap1\n      tag_71\n      jump\t// in\n    tag_197:\n      pop\n      pop\n      pop\n        /* \"crowdfunding.sol\":1199:1711  {\r... */\n      pop\n        /* \"crowdfunding.sol\":1095:1711  function createCrowdfunding(string memory _title,address _recipient, string memory _expectAmout) public {\r... */\n      pop\n      pop\n      pop\n      jump\t// out\n    tag_71:\n      dup3\n      dup1\n      sload\n      tag_198\n      swap1\n      tag_48\n      jump\t// in\n    tag_198:\n      swap1\n      0x00\n      mstore\n      keccak256(0x00, 0x20)\n      swap1\n      0x1f\n      add\n      0x20\n      swap1\n      div\n      dup2\n      add\n      swap3\n      dup3\n      tag_200\n      jumpi\n      0x00\n      dup6\n      sstore\n      jump(tag_199)\n    tag_200:\n      dup3\n      0x1f\n      lt\n      tag_201\n      jumpi\n      dup1\n      mload\n      not(0xff)\n      and\n      dup4\n      dup1\n      add\n      or\n      dup6\n      sstore\n      jump(tag_199)\n    tag_201:\n      dup3\n      dup1\n      add\n      0x01\n      add\n      dup6\n      sstore\n      dup3\n      iszero\n      tag_199\n      jumpi\n      swap2\n      dup3\n      add\n    tag_202:\n      dup3\n      dup2\n      gt\n      iszero\n      tag_203\n      jumpi\n      dup3\n      mload\n      dup3\n      sstore\n      swap2\n      0x20\n      add\n      swap2\n      swap1\n      0x01\n      add\n      swap1\n      jump(tag_202)\n    tag_203:\n    tag_199:\n      pop\n      swap1\n      pop\n      tag_204\n      swap2\n      swap1\n      tag_205\n      jump\t// in\n    tag_204:\n      pop\n      swap1\n      jump\t// out\n    tag_83:\n      pop\n      dup1\n      sload\n      tag_206\n      swap1\n      tag_48\n      jump\t// in\n    tag_206:\n      0x00\n      dup3\n      sstore\n      dup1\n      0x1f\n      lt\n      tag_208\n      jumpi\n      pop\n      jump(tag_207)\n    tag_208:\n      0x1f\n      add\n      0x20\n      swap1\n      div\n      swap1\n      0x00\n      mstore\n      keccak256(0x00, 0x20)\n      swap1\n      dup2\n      add\n      swap1\n      tag_209\n      swap2\n      swap1\n      tag_205\n      jump\t// in\n    tag_209:\n    tag_207:\n      pop\n      jump\t// out\n    tag_105:\n      dup3\n      dup1\n      sload\n      tag_210\n      swap1\n      tag_48\n      jump\t// in\n    tag_210:\n      swap1\n      0x00\n      mstore\n      keccak256(0x00, 0x20)\n      swap1\n      0x1f\n      add\n      0x20\n      swap1\n      div\n      dup2\n      add\n      swap3\n      dup3\n      tag_212\n      jumpi\n      0x00\n      dup6\n      sstore\n      jump(tag_211)\n    tag_212:\n      dup3\n      0x1f\n      lt\n      tag_213\n      jumpi\n      dup1\n      sload\n      dup6\n      sstore\n      jump(tag_211)\n    tag_213:\n      dup3\n      dup1\n      add\n      0x01\n      add\n      dup6\n      sstore\n      dup3\n      iszero\n      tag_211\n      jumpi\n      0x00\n      mstore\n      keccak256(0x00, 0x20)\n      swap2\n      0x1f\n      add\n      0x20\n      swap1\n      div\n      dup3\n      add\n    tag_214:\n      dup3\n      dup2\n      gt\n      iszero\n      tag_215\n      jumpi\n      dup3\n      sload\n      dup3\n      sstore\n      swap2\n      0x01\n      add\n      swap2\n      swap1\n      0x01\n      add\n      swap1\n      jump(tag_214)\n    tag_215:\n    tag_211:\n      pop\n      swap1\n      pop\n      tag_216\n      swap2\n      swap1\n      tag_205\n      jump\t// in\n    tag_216:\n      pop\n      swap1\n      jump\t// out\n    tag_205:\n    tag_217:\n      dup1\n      dup3\n      gt\n      iszero\n      tag_218\n      jumpi\n      0x00\n      dup2\n      0x00\n      swap1\n      sstore\n      pop\n      0x01\n      add\n      jump(tag_217)\n    tag_218:\n      pop\n      swap1\n      jump\t// out\n        /* \"#utility.yul\":7:419   */\n    tag_220:\n        /* \"#utility.yul\":85:90   */\n      0x00\n        /* \"#utility.yul\":110:176   */\n      tag_222\n        /* \"#utility.yul\":126:175   */\n      tag_223\n        /* \"#utility.yul\":168:174   */\n      dup5\n        /* \"#utility.yul\":126:175   */\n      tag_224\n      jump\t// in\n    tag_223:\n        /* \"#utility.yul\":110:176   */\n      tag_225\n      jump\t// in\n    tag_222:\n        /* \"#utility.yul\":101:176   */\n      swap1\n      pop\n        /* \"#utility.yul\":199:205   */\n      dup3\n        /* \"#utility.yul\":192:197   */\n      dup2\n        /* \"#utility.yul\":185:206   */\n      mstore\n        /* \"#utility.yul\":237:241   */\n      0x20\n        /* \"#utility.yul\":230:235   */\n      dup2\n        /* \"#utility.yul\":226:242   */\n      add\n        /* \"#utility.yul\":275:278   */\n      dup5\n        /* \"#utility.yul\":266:272   */\n      dup5\n        /* \"#utility.yul\":261:264   */\n      dup5\n        /* \"#utility.yul\":257:273   */\n      add\n        /* \"#utility.yul\":254:279   */\n      gt\n        /* \"#utility.yul\":251:363   */\n      iszero\n      tag_226\n      jumpi\n        /* \"#utility.yul\":282:361   */\n      tag_227\n      tag_228\n      jump\t// in\n    tag_227:\n        /* \"#utility.yul\":251:363   */\n    tag_226:\n        /* \"#utility.yul\":372:413   */\n      tag_229\n        /* \"#utility.yul\":406:412   */\n      dup5\n        /* \"#utility.yul\":401:404   */\n      dup3\n        /* \"#utility.yul\":396:399   */\n      dup6\n        /* \"#utility.yul\":372:413   */\n      tag_230\n      jump\t// in\n    tag_229:\n        /* \"#utility.yul\":91:419   */\n      pop\n        /* \"#utility.yul\":7:419   */\n      swap4\n      swap3\n      pop\n      pop\n      pop\n      jump\t// out\n        /* \"#utility.yul\":425:564   */\n    tag_231:\n        /* \"#utility.yul\":471:476   */\n      0x00\n        /* \"#utility.yul\":509:515   */\n      dup2\n        /* \"#utility.yul\":496:516   */\n      calldataload\n        /* \"#utility.yul\":487:516   */\n      swap1\n      pop\n        /* \"#utility.yul\":525:558   */\n      tag_233\n        /* \"#utility.yul\":552:557   */\n      dup2\n        /* \"#utility.yul\":525:558   */\n      tag_234\n      jump\t// in\n    tag_233:\n        /* \"#utility.yul\":425:564   */\n      swap3\n      swap2\n      pop\n      pop\n      jump\t// out\n        /* \"#utility.yul\":584:924   */\n    tag_235:\n        /* \"#utility.yul\":640:645   */\n      0x00\n        /* \"#utility.yul\":689:692   */\n      dup3\n        /* \"#utility.yul\":682:686   */\n      0x1f\n        /* \"#utility.yul\":674:680   */\n      dup4\n        /* \"#utility.yul\":670:687   */\n      add\n        /* \"#utility.yul\":666:693   */\n      slt\n        /* \"#utility.yul\":656:778   */\n      tag_237\n      jumpi\n        /* \"#utility.yul\":697:776   */\n      tag_238\n      tag_239\n      jump\t// in\n    tag_238:\n        /* \"#utility.yul\":656:778   */\n    tag_237:\n        /* \"#utility.yul\":814:820   */\n      dup2\n        /* \"#utility.yul\":801:821   */\n      calldataload\n        /* \"#utility.yul\":839:918   */\n      tag_240\n        /* \"#utility.yul\":914:917   */\n      dup5\n        /* \"#utility.yul\":906:912   */\n      dup3\n        /* \"#utility.yul\":899:903   */\n      0x20\n        /* \"#utility.yul\":891:897   */\n      dup7\n        /* \"#utility.yul\":887:904   */\n      add\n        /* \"#utility.yul\":839:918   */\n      tag_220\n      jump\t// in\n    tag_240:\n        /* \"#utility.yul\":830:918   */\n      swap2\n      pop\n        /* \"#utility.yul\":646:924   */\n      pop\n        /* \"#utility.yul\":584:924   */\n      swap3\n      swap2\n      pop\n      pop\n      jump\t// out\n        /* \"#utility.yul\":930:1069   */\n    tag_241:\n        /* \"#utility.yul\":976:981   */\n      0x00\n        /* \"#utility.yul\":1014:1020   */\n      dup2\n        /* \"#utility.yul\":1001:1021   */\n      calldataload\n        /* \"#utility.yul\":992:1021   */\n      swap1\n      pop\n        /* \"#utility.yul\":1030:1063   */\n      tag_243\n        /* \"#utility.yul\":1057:1062   */\n      dup2\n        /* \"#utility.yul\":1030:1063   */\n      tag_244\n      jump\t// in\n    tag_243:\n        /* \"#utility.yul\":930:1069   */\n      swap3\n      swap2\n      pop\n      pop\n      jump\t// out\n        /* \"#utility.yul\":1075:1404   */\n    tag_17:\n        /* \"#utility.yul\":1134:1140   */\n      0x00\n        /* \"#utility.yul\":1183:1185   */\n      0x20\n        /* \"#utility.yul\":1171:1180   */\n      dup3\n        /* \"#utility.yul\":1162:1169   */\n      dup5\n        /* \"#utility.yul\":1158:1181   */\n      sub\n        /* \"#utility.yul\":1154:1186   */\n      slt\n        /* \"#utility.yul\":1151:1270   */\n      iszero\n      tag_246\n      jumpi\n        /* \"#utility.yul\":1189:1268   */\n      tag_247\n      tag_248\n      jump\t// in\n    tag_247:\n        /* \"#utility.yul\":1151:1270   */\n    tag_246:\n        /* \"#utility.yul\":1309:1310   */\n      0x00\n        /* \"#utility.yul\":1334:1387   */\n      tag_249\n        /* \"#utility.yul\":1379:1386   */\n      dup5\n        /* \"#utility.yul\":1370:1376   */\n      dup3\n        /* \"#utility.yul\":1359:1368   */\n      dup6\n        /* \"#utility.yul\":1355:1377   */\n      add\n        /* \"#utility.yul\":1334:1387   */\n      tag_231\n      jump\t// in\n    tag_249:\n        /* \"#utility.yul\":1324:1387   */\n      swap2\n      pop\n        /* \"#utility.yul\":1280:1397   */\n      pop\n        /* \"#utility.yul\":1075:1404   */\n      swap3\n      swap2\n      pop\n      pop\n      jump\t// out\n        /* \"#utility.yul\":1410:2389   */\n    tag_40:\n        /* \"#utility.yul\":1507:1513   */\n      0x00\n        /* \"#utility.yul\":1515:1521   */\n      dup1\n        /* \"#utility.yul\":1523:1529   */\n      0x00\n        /* \"#utility.yul\":1572:1574   */\n      0x60\n        /* \"#utility.yul\":1560:1569   */\n      dup5\n        /* \"#utility.yul\":1551:1558   */\n      dup7\n        /* \"#utility.yul\":1547:1570   */\n      sub\n        /* \"#utility.yul\":1543:1575   */\n      slt\n        /* \"#utility.yul\":1540:1659   */\n      iszero\n      tag_251\n      jumpi\n        /* \"#utility.yul\":1578:1657   */\n      tag_252\n      tag_248\n      jump\t// in\n    tag_252:\n        /* \"#utility.yul\":1540:1659   */\n    tag_251:\n        /* \"#utility.yul\":1726:1727   */\n      0x00\n        /* \"#utility.yul\":1715:1724   */\n      dup5\n        /* \"#utility.yul\":1711:1728   */\n      add\n        /* \"#utility.yul\":1698:1729   */\n      calldataload\n        /* \"#utility.yul\":1756:1774   */\n      0xffffffffffffffff\n        /* \"#utility.yul\":1748:1754   */\n      dup2\n        /* \"#utility.yul\":1745:1775   */\n      gt\n        /* \"#utility.yul\":1742:1859   */\n      iszero\n      tag_253\n      jumpi\n        /* \"#utility.yul\":1778:1857   */\n      tag_254\n      tag_255\n      jump\t// in\n    tag_254:\n        /* \"#utility.yul\":1742:1859   */\n    tag_253:\n        /* \"#utility.yul\":1883:1946   */\n      tag_256\n        /* \"#utility.yul\":1938:1945   */\n      dup7\n        /* \"#utility.yul\":1929:1935   */\n      dup3\n        /* \"#utility.yul\":1918:1927   */\n      dup8\n        /* \"#utility.yul\":1914:1936   */\n      add\n        /* \"#utility.yul\":1883:1946   */\n      tag_235\n      jump\t// in\n    tag_256:\n        /* \"#utility.yul\":1873:1946   */\n      swap4\n      pop\n        /* \"#utility.yul\":1669:1956   */\n      pop\n        /* \"#utility.yul\":1995:1997   */\n      0x20\n        /* \"#utility.yul\":2021:2074   */\n      tag_257\n        /* \"#utility.yul\":2066:2073   */\n      dup7\n        /* \"#utility.yul\":2057:2063   */\n      dup3\n        /* \"#utility.yul\":2046:2055   */\n      dup8\n        /* \"#utility.yul\":2042:2064   */\n      add\n        /* \"#utility.yul\":2021:2074   */\n      tag_231\n      jump\t// in\n    tag_257:\n        /* \"#utility.yul\":2011:2074   */\n      swap3\n      pop\n        /* \"#utility.yul\":1966:2084   */\n      pop\n        /* \"#utility.yul\":2151:2153   */\n      0x40\n        /* \"#utility.yul\":2140:2149   */\n      dup5\n        /* \"#utility.yul\":2136:2154   */\n      add\n        /* \"#utility.yul\":2123:2155   */\n      calldataload\n        /* \"#utility.yul\":2182:2200   */\n      0xffffffffffffffff\n        /* \"#utility.yul\":2174:2180   */\n      dup2\n        /* \"#utility.yul\":2171:2201   */\n      gt\n        /* \"#utility.yul\":2168:2285   */\n      iszero\n      tag_258\n      jumpi\n        /* \"#utility.yul\":2204:2283   */\n      tag_259\n      tag_255\n      jump\t// in\n    tag_259:\n        /* \"#utility.yul\":2168:2285   */\n    tag_258:\n        /* \"#utility.yul\":2309:2372   */\n      tag_260\n        /* \"#utility.yul\":2364:2371   */\n      dup7\n        /* \"#utility.yul\":2355:2361   */\n      dup3\n        /* \"#utility.yul\":2344:2353   */\n      dup8\n        /* \"#utility.yul\":2340:2362   */\n      add\n        /* \"#utility.yul\":2309:2372   */\n      tag_235\n      jump\t// in\n    tag_260:\n        /* \"#utility.yul\":2299:2372   */\n      swap2\n      pop\n        /* \"#utility.yul\":2094:2382   */\n      pop\n        /* \"#utility.yul\":1410:2389   */\n      swap3\n      pop\n      swap3\n      pop\n      swap3\n      jump\t// out\n        /* \"#utility.yul\":2395:2724   */\n    tag_27:\n        /* \"#utility.yul\":2454:2460   */\n      0x00\n        /* \"#utility.yul\":2503:2505   */\n      0x20\n        /* \"#utility.yul\":2491:2500   */\n      dup3\n        /* \"#utility.yul\":2482:2489   */\n      dup5\n        /* \"#utility.yul\":2478:2501   */\n      sub\n        /* \"#utility.yul\":2474:2506   */\n      slt\n        /* \"#utility.yul\":2471:2590   */\n      iszero\n      tag_262\n      jumpi\n        /* \"#utility.yul\":2509:2588   */\n      tag_263\n      tag_248\n      jump\t// in\n    tag_263:\n        /* \"#utility.yul\":2471:2590   */\n    tag_262:\n        /* \"#utility.yul\":2629:2630   */\n      0x00\n        /* \"#utility.yul\":2654:2707   */\n      tag_264\n        /* \"#utility.yul\":2699:2706   */\n      dup5\n        /* \"#utility.yul\":2690:2696   */\n      dup3\n        /* \"#utility.yul\":2679:2688   */\n      dup6\n        /* \"#utility.yul\":2675:2697   */\n      add\n        /* \"#utility.yul\":2654:2707   */\n      tag_241\n      jump\t// in\n    tag_264:\n        /* \"#utility.yul\":2644:2707   */\n      swap2\n      pop\n        /* \"#utility.yul\":2600:2717   */\n      pop\n        /* \"#utility.yul\":2395:2724   */\n      swap3\n      swap2\n      pop\n      pop\n      jump\t// out\n        /* \"#utility.yul\":2730:3384   */\n    tag_23:\n        /* \"#utility.yul\":2808:2814   */\n      0x00\n        /* \"#utility.yul\":2816:2822   */\n      dup1\n        /* \"#utility.yul\":2865:2867   */\n      0x40\n        /* \"#utility.yul\":2853:2862   */\n      dup4\n        /* \"#utility.yul\":2844:2851   */\n      dup6\n        /* \"#utility.yul\":2840:2863   */\n      sub\n        /* \"#utility.yul\":2836:2868   */\n      slt\n        /* \"#utility.yul\":2833:2952   */\n      iszero\n      tag_266\n      jumpi\n        /* \"#utility.yul\":2871:2950   */\n      tag_267\n      tag_248\n      jump\t// in\n    tag_267:\n        /* \"#utility.yul\":2833:2952   */\n    tag_266:\n        /* \"#utility.yul\":2991:2992   */\n      0x00\n        /* \"#utility.yul\":3016:3069   */\n      tag_268\n        /* \"#utility.yul\":3061:3068   */\n      dup6\n        /* \"#utility.yul\":3052:3058   */\n      dup3\n        /* \"#utility.yul\":3041:3050   */\n      dup7\n        /* \"#utility.yul\":3037:3059   */\n      add\n        /* \"#utility.yul\":3016:3069   */\n      tag_241\n      jump\t// in\n    tag_268:\n        /* \"#utility.yul\":3006:3069   */\n      swap3\n      pop\n        /* \"#utility.yul\":2962:3079   */\n      pop\n        /* \"#utility.yul\":3146:3148   */\n      0x20\n        /* \"#utility.yul\":3135:3144   */\n      dup4\n        /* \"#utility.yul\":3131:3149   */\n      add\n        /* \"#utility.yul\":3118:3150   */\n      calldataload\n        /* \"#utility.yul\":3177:3195   */\n      0xffffffffffffffff\n        /* \"#utility.yul\":3169:3175   */\n      dup2\n        /* \"#utility.yul\":3166:3196   */\n      gt\n        /* \"#utility.yul\":3163:3280   */\n      iszero\n      tag_269\n      jumpi\n        /* \"#utility.yul\":3199:3278   */\n      tag_270\n      tag_255\n      jump\t// in\n    tag_270:\n        /* \"#utility.yul\":3163:3280   */\n    tag_269:\n        /* \"#utility.yul\":3304:3367   */\n      tag_271\n        /* \"#utility.yul\":3359:3366   */\n      dup6\n        /* \"#utility.yul\":3350:3356   */\n      dup3\n        /* \"#utility.yul\":3339:3348   */\n      dup7\n        /* \"#utility.yul\":3335:3357   */\n      add\n        /* \"#utility.yul\":3304:3367   */\n      tag_235\n      jump\t// in\n    tag_271:\n        /* \"#utility.yul\":3294:3367   */\n      swap2\n      pop\n        /* \"#utility.yul\":3089:3377   */\n      pop\n        /* \"#utility.yul\":2730:3384   */\n      swap3\n      pop\n      swap3\n      swap1\n      pop\n      jump\t// out\n        /* \"#utility.yul\":3390:4189   */\n    tag_13:\n        /* \"#utility.yul\":3477:3483   */\n      0x00\n        /* \"#utility.yul\":3485:3491   */\n      dup1\n        /* \"#utility.yul\":3493:3499   */\n      0x00\n        /* \"#utility.yul\":3542:3544   */\n      0x60\n        /* \"#utility.yul\":3530:3539   */\n      dup5\n        /* \"#utility.yul\":3521:3528   */\n      dup7\n        /* \"#utility.yul\":3517:3540   */\n      sub\n        /* \"#utility.yul\":3513:3545   */\n      slt\n        /* \"#utility.yul\":3510:3629   */\n      iszero\n      tag_273\n      jumpi\n        /* \"#utility.yul\":3548:3627   */\n      tag_274\n      tag_248\n      jump\t// in\n    tag_274:\n        /* \"#utility.yul\":3510:3629   */\n    tag_273:\n        /* \"#utility.yul\":3668:3669   */\n      0x00\n        /* \"#utility.yul\":3693:3746   */\n      tag_275\n        /* \"#utility.yul\":3738:3745   */\n      dup7\n        /* \"#utility.yul\":3729:3735   */\n      dup3\n        /* \"#utility.yul\":3718:3727   */\n      dup8\n        /* \"#utility.yul\":3714:3736   */\n      add\n        /* \"#utility.yul\":3693:3746   */\n      tag_241\n      jump\t// in\n    tag_275:\n        /* \"#utility.yul\":3683:3746   */\n      swap4\n      pop\n        /* \"#utility.yul\":3639:3756   */\n      pop\n        /* \"#utility.yul\":3823:3825   */\n      0x20\n        /* \"#utility.yul\":3812:3821   */\n      dup5\n        /* \"#utility.yul\":3808:3826   */\n      add\n        /* \"#utility.yul\":3795:3827   */\n      calldataload\n        /* \"#utility.yul\":3854:3872   */\n      0xffffffffffffffff\n        /* \"#utility.yul\":3846:3852   */\n      dup2\n        /* \"#utility.yul\":3843:3873   */\n      gt\n        /* \"#utility.yul\":3840:3957   */\n      iszero\n      tag_276\n      jumpi\n        /* \"#utility.yul\":3876:3955   */\n      tag_277\n      tag_255\n      jump\t// in\n    tag_277:\n        /* \"#utility.yul\":3840:3957   */\n    tag_276:\n        /* \"#utility.yul\":3981:4044   */\n      tag_278\n        /* \"#utility.yul\":4036:4043   */\n      dup7\n        /* \"#utility.yul\":4027:4033   */\n      dup3\n        /* \"#utility.yul\":4016:4025   */\n      dup8\n        /* \"#utility.yul\":4012:4034   */\n      add\n        /* \"#utility.yul\":3981:4044   */\n      tag_235\n      jump\t// in\n    tag_278:\n        /* \"#utility.yul\":3971:4044   */\n      swap3\n      pop\n        /* \"#utility.yul\":3766:4054   */\n      pop\n        /* \"#utility.yul\":4093:4095   */\n      0x40\n        /* \"#utility.yul\":4119:4172   */\n      tag_279\n        /* \"#utility.yul\":4164:4171   */\n      dup7\n        /* \"#utility.yul\":4155:4161   */\n      dup3\n        /* \"#utility.yul\":4144:4153   */\n      dup8\n        /* \"#utility.yul\":4140:4162   */\n      add\n        /* \"#utility.yul\":4119:4172   */\n      tag_231\n      jump\t// in\n    tag_279:\n        /* \"#utility.yul\":4109:4172   */\n      swap2\n      pop\n        /* \"#utility.yul\":4064:4182   */\n      pop\n        /* \"#utility.yul\":3390:4189   */\n      swap3\n      pop\n      swap3\n      pop\n      swap3\n      jump\t// out\n        /* \"#utility.yul\":4195:4463   */\n    tag_280:\n        /* \"#utility.yul\":4320:4330   */\n      0x00\n        /* \"#utility.yul\":4355:4457   */\n      tag_282\n        /* \"#utility.yul\":4453:4456   */\n      dup4\n        /* \"#utility.yul\":4445:4451   */\n      dup4\n        /* \"#utility.yul\":4355:4457   */\n      tag_283\n      jump\t// in\n    tag_282:\n        /* \"#utility.yul\":4341:4457   */\n      swap1\n      pop\n        /* \"#utility.yul\":4195:4463   */\n      swap3\n      swap2\n      pop\n      pop\n      jump\t// out\n        /* \"#utility.yul\":4469:4577   */\n    tag_284:\n        /* \"#utility.yul\":4546:4570   */\n      tag_286\n        /* \"#utility.yul\":4564:4569   */\n      dup2\n        /* \"#utility.yul\":4546:4570   */\n      tag_287\n      jump\t// in\n    tag_286:\n        /* \"#utility.yul\":4541:4544   */\n      dup3\n        /* \"#utility.yul\":4534:4571   */\n      mstore\n        /* \"#utility.yul\":4469:4577   */\n      pop\n      pop\n      jump\t// out\n        /* \"#utility.yul\":4583:4701   */\n    tag_288:\n        /* \"#utility.yul\":4670:4694   */\n      tag_290\n        /* \"#utility.yul\":4688:4693   */\n      dup2\n        /* \"#utility.yul\":4670:4694   */\n      tag_287\n      jump\t// in\n    tag_290:\n        /* \"#utility.yul\":4665:4668   */\n      dup3\n        /* \"#utility.yul\":4658:4695   */\n      mstore\n        /* \"#utility.yul\":4583:4701   */\n      pop\n      pop\n      jump\t// out\n        /* \"#utility.yul\":4803:5938   */\n    tag_291:\n        /* \"#utility.yul\":4978:4981   */\n      0x00\n        /* \"#utility.yul\":5007:5089   */\n      tag_293\n        /* \"#utility.yul\":5083:5088   */\n      dup3\n        /* \"#utility.yul\":5007:5089   */\n      tag_294\n      jump\t// in\n    tag_293:\n        /* \"#utility.yul\":5105:5219   */\n      tag_295\n        /* \"#utility.yul\":5212:5218   */\n      dup2\n        /* \"#utility.yul\":5207:5210   */\n      dup6\n        /* \"#utility.yul\":5105:5219   */\n      tag_296\n      jump\t// in\n    tag_295:\n        /* \"#utility.yul\":5098:5219   */\n      swap4\n      pop\n        /* \"#utility.yul\":5245:5248   */\n      dup4\n        /* \"#utility.yul\":5290:5294   */\n      0x20\n        /* \"#utility.yul\":5282:5288   */\n      dup3\n        /* \"#utility.yul\":5278:5295   */\n      mul\n        /* \"#utility.yul\":5273:5276   */\n      dup6\n        /* \"#utility.yul\":5269:5296   */\n      add\n        /* \"#utility.yul\":5320:5404   */\n      tag_297\n        /* \"#utility.yul\":5398:5403   */\n      dup6\n        /* \"#utility.yul\":5320:5404   */\n      tag_298\n      jump\t// in\n    tag_297:\n        /* \"#utility.yul\":5427:5434   */\n      dup1\n        /* \"#utility.yul\":5458:5459   */\n      0x00\n        /* \"#utility.yul\":5443:5893   */\n    tag_299:\n        /* \"#utility.yul\":5468:5474   */\n      dup6\n        /* \"#utility.yul\":5465:5466   */\n      dup2\n        /* \"#utility.yul\":5462:5475   */\n      lt\n        /* \"#utility.yul\":5443:5893   */\n      iszero\n      tag_301\n      jumpi\n        /* \"#utility.yul\":5539:5548   */\n      dup5\n        /* \"#utility.yul\":5533:5537   */\n      dup5\n        /* \"#utility.yul\":5529:5549   */\n      sub\n        /* \"#utility.yul\":5524:5527   */\n      dup10\n        /* \"#utility.yul\":5517:5550   */\n      mstore\n        /* \"#utility.yul\":5590:5596   */\n      dup2\n        /* \"#utility.yul\":5584:5597   */\n      mload\n        /* \"#utility.yul\":5618:5738   */\n      tag_302\n        /* \"#utility.yul\":5733:5737   */\n      dup6\n        /* \"#utility.yul\":5718:5731   */\n      dup3\n        /* \"#utility.yul\":5618:5738   */\n      tag_280\n      jump\t// in\n    tag_302:\n        /* \"#utility.yul\":5610:5738   */\n      swap5\n      pop\n        /* \"#utility.yul\":5761:5849   */\n      tag_303\n        /* \"#utility.yul\":5842:5848   */\n      dup4\n        /* \"#utility.yul\":5761:5849   */\n      tag_304\n      jump\t// in\n    tag_303:\n        /* \"#utility.yul\":5751:5849   */\n      swap3\n      pop\n        /* \"#utility.yul\":5878:5882   */\n      0x20\n        /* \"#utility.yul\":5873:5876   */\n      dup11\n        /* \"#utility.yul\":5869:5883   */\n      add\n        /* \"#utility.yul\":5862:5883   */\n      swap10\n      pop\n        /* \"#utility.yul\":5503:5893   */\n      pop\n        /* \"#utility.yul\":5490:5491   */\n      0x01\n        /* \"#utility.yul\":5487:5488   */\n      dup2\n        /* \"#utility.yul\":5483:5492   */\n      add\n        /* \"#utility.yul\":5478:5492   */\n      swap1\n      pop\n        /* \"#utility.yul\":5443:5893   */\n      jump(tag_299)\n    tag_301:\n        /* \"#utility.yul\":5447:5461   */\n      pop\n        /* \"#utility.yul\":5909:5913   */\n      dup3\n        /* \"#utility.yul\":5902:5913   */\n      swap8\n      pop\n        /* \"#utility.yul\":5929:5932   */\n      dup8\n        /* \"#utility.yul\":5922:5932   */\n      swap6\n      pop\n        /* \"#utility.yul\":4983:5938   */\n      pop\n      pop\n      pop\n      pop\n      pop\n        /* \"#utility.yul\":4803:5938   */\n      swap3\n      swap2\n      pop\n      pop\n      jump\t// out\n        /* \"#utility.yul\":5944:6288   */\n    tag_305:\n        /* \"#utility.yul\":6022:6025   */\n      0x00\n        /* \"#utility.yul\":6050:6089   */\n      tag_307\n        /* \"#utility.yul\":6083:6088   */\n      dup3\n        /* \"#utility.yul\":6050:6089   */\n      tag_308\n      jump\t// in\n    tag_307:\n        /* \"#utility.yul\":6105:6166   */\n      tag_309\n        /* \"#utility.yul\":6159:6165   */\n      dup2\n        /* \"#utility.yul\":6154:6157   */\n      dup6\n        /* \"#utility.yul\":6105:6166   */\n      tag_310\n      jump\t// in\n    tag_309:\n        /* \"#utility.yul\":6098:6166   */\n      swap4\n      pop\n        /* \"#utility.yul\":6175:6227   */\n      tag_311\n        /* \"#utility.yul\":6220:6226   */\n      dup2\n        /* \"#utility.yul\":6215:6218   */\n      dup6\n        /* \"#utility.yul\":6208:6212   */\n      0x20\n        /* \"#utility.yul\":6201:6206   */\n      dup7\n        /* \"#utility.yul\":6197:6213   */\n      add\n        /* \"#utility.yul\":6175:6227   */\n      tag_312\n      jump\t// in\n    tag_311:\n        /* \"#utility.yul\":6252:6281   */\n      tag_313\n        /* \"#utility.yul\":6274:6280   */\n      dup2\n        /* \"#utility.yul\":6252:6281   */\n      tag_314\n      jump\t// in\n    tag_313:\n        /* \"#utility.yul\":6247:6250   */\n      dup5\n        /* \"#utility.yul\":6243:6282   */\n      add\n        /* \"#utility.yul\":6236:6282   */\n      swap2\n      pop\n        /* \"#utility.yul\":6026:6288   */\n      pop\n        /* \"#utility.yul\":5944:6288   */\n      swap3\n      swap2\n      pop\n      pop\n      jump\t// out\n        /* \"#utility.yul\":6294:6658   */\n    tag_315:\n        /* \"#utility.yul\":6382:6385   */\n      0x00\n        /* \"#utility.yul\":6410:6449   */\n      tag_317\n        /* \"#utility.yul\":6443:6448   */\n      dup3\n        /* \"#utility.yul\":6410:6449   */\n      tag_308\n      jump\t// in\n    tag_317:\n        /* \"#utility.yul\":6465:6536   */\n      tag_318\n        /* \"#utility.yul\":6529:6535   */\n      dup2\n        /* \"#utility.yul\":6524:6527   */\n      dup6\n        /* \"#utility.yul\":6465:6536   */\n      tag_319\n      jump\t// in\n    tag_318:\n        /* \"#utility.yul\":6458:6536   */\n      swap4\n      pop\n        /* \"#utility.yul\":6545:6597   */\n      tag_320\n        /* \"#utility.yul\":6590:6596   */\n      dup2\n        /* \"#utility.yul\":6585:6588   */\n      dup6\n        /* \"#utility.yul\":6578:6582   */\n      0x20\n        /* \"#utility.yul\":6571:6576   */\n      dup7\n        /* \"#utility.yul\":6567:6583   */\n      add\n        /* \"#utility.yul\":6545:6597   */\n      tag_312\n      jump\t// in\n    tag_320:\n        /* \"#utility.yul\":6622:6651   */\n      tag_321\n        /* \"#utility.yul\":6644:6650   */\n      dup2\n        /* \"#utility.yul\":6622:6651   */\n      tag_314\n      jump\t// in\n    tag_321:\n        /* \"#utility.yul\":6617:6620   */\n      dup5\n        /* \"#utility.yul\":6613:6652   */\n      add\n        /* \"#utility.yul\":6606:6652   */\n      swap2\n      pop\n        /* \"#utility.yul\":6386:6658   */\n      pop\n        /* \"#utility.yul\":6294:6658   */\n      swap3\n      swap2\n      pop\n      pop\n      jump\t// out\n        /* \"#utility.yul\":6756:8574   */\n    tag_283:\n        /* \"#utility.yul\":6871:6874   */\n      0x00\n        /* \"#utility.yul\":6907:6913   */\n      0x0100\n        /* \"#utility.yul\":6902:6905   */\n      dup4\n        /* \"#utility.yul\":6898:6914   */\n      add\n        /* \"#utility.yul\":6995:6999   */\n      0x00\n        /* \"#utility.yul\":6988:6993   */\n      dup4\n        /* \"#utility.yul\":6984:7000   */\n      add\n        /* \"#utility.yul\":6978:7001   */\n      mload\n        /* \"#utility.yul\":7014:7077   */\n      tag_323\n        /* \"#utility.yul\":7071:7075   */\n      0x00\n        /* \"#utility.yul\":7066:7069   */\n      dup7\n        /* \"#utility.yul\":7062:7076   */\n      add\n        /* \"#utility.yul\":7048:7060   */\n      dup3\n        /* \"#utility.yul\":7014:7077   */\n      tag_324\n      jump\t// in\n    tag_323:\n        /* \"#utility.yul\":6924:7087   */\n      pop\n        /* \"#utility.yul\":7170:7174   */\n      0x20\n        /* \"#utility.yul\":7163:7168   */\n      dup4\n        /* \"#utility.yul\":7159:7175   */\n      add\n        /* \"#utility.yul\":7153:7176   */\n      mload\n        /* \"#utility.yul\":7223:7226   */\n      dup5\n        /* \"#utility.yul\":7217:7221   */\n      dup3\n        /* \"#utility.yul\":7213:7227   */\n      sub\n        /* \"#utility.yul\":7206:7210   */\n      0x20\n        /* \"#utility.yul\":7201:7204   */\n      dup7\n        /* \"#utility.yul\":7197:7211   */\n      add\n        /* \"#utility.yul\":7190:7228   */\n      mstore\n        /* \"#utility.yul\":7249:7322   */\n      tag_325\n        /* \"#utility.yul\":7317:7321   */\n      dup3\n        /* \"#utility.yul\":7303:7315   */\n      dup3\n        /* \"#utility.yul\":7249:7322   */\n      tag_305\n      jump\t// in\n    tag_325:\n        /* \"#utility.yul\":7241:7322   */\n      swap2\n      pop\n        /* \"#utility.yul\":7097:7333   */\n      pop\n        /* \"#utility.yul\":7417:7421   */\n      0x40\n        /* \"#utility.yul\":7410:7415   */\n      dup4\n        /* \"#utility.yul\":7406:7422   */\n      add\n        /* \"#utility.yul\":7400:7423   */\n      mload\n        /* \"#utility.yul\":7436:7499   */\n      tag_326\n        /* \"#utility.yul\":7493:7497   */\n      0x40\n        /* \"#utility.yul\":7488:7491   */\n      dup7\n        /* \"#utility.yul\":7484:7498   */\n      add\n        /* \"#utility.yul\":7470:7482   */\n      dup3\n        /* \"#utility.yul\":7436:7499   */\n      tag_324\n      jump\t// in\n    tag_326:\n        /* \"#utility.yul\":7343:7509   */\n      pop\n        /* \"#utility.yul\":7594:7598   */\n      0x60\n        /* \"#utility.yul\":7587:7592   */\n      dup4\n        /* \"#utility.yul\":7583:7599   */\n      add\n        /* \"#utility.yul\":7577:7600   */\n      mload\n        /* \"#utility.yul\":7613:7676   */\n      tag_327\n        /* \"#utility.yul\":7670:7674   */\n      0x60\n        /* \"#utility.yul\":7665:7668   */\n      dup7\n        /* \"#utility.yul\":7661:7675   */\n      add\n        /* \"#utility.yul\":7647:7659   */\n      dup3\n        /* \"#utility.yul\":7613:7676   */\n      tag_284\n      jump\t// in\n    tag_327:\n        /* \"#utility.yul\":7519:7686   */\n      pop\n        /* \"#utility.yul\":7773:7777   */\n      0x80\n        /* \"#utility.yul\":7766:7771   */\n      dup4\n        /* \"#utility.yul\":7762:7778   */\n      add\n        /* \"#utility.yul\":7756:7779   */\n      mload\n        /* \"#utility.yul\":7792:7855   */\n      tag_328\n        /* \"#utility.yul\":7849:7853   */\n      0x80\n        /* \"#utility.yul\":7844:7847   */\n      dup7\n        /* \"#utility.yul\":7840:7854   */\n      add\n        /* \"#utility.yul\":7826:7838   */\n      dup3\n        /* \"#utility.yul\":7792:7855   */\n      tag_284\n      jump\t// in\n    tag_328:\n        /* \"#utility.yul\":7696:7865   */\n      pop\n        /* \"#utility.yul\":7950:7954   */\n      0xa0\n        /* \"#utility.yul\":7943:7948   */\n      dup4\n        /* \"#utility.yul\":7939:7955   */\n      add\n        /* \"#utility.yul\":7933:7956   */\n      mload\n        /* \"#utility.yul\":7969:8032   */\n      tag_329\n        /* \"#utility.yul\":8026:8030   */\n      0xa0\n        /* \"#utility.yul\":8021:8024   */\n      dup7\n        /* \"#utility.yul\":8017:8031   */\n      add\n        /* \"#utility.yul\":8003:8015   */\n      dup3\n        /* \"#utility.yul\":7969:8032   */\n      tag_324\n      jump\t// in\n    tag_329:\n        /* \"#utility.yul\":7875:8042   */\n      pop\n        /* \"#utility.yul\":8131:8135   */\n      0xc0\n        /* \"#utility.yul\":8124:8129   */\n      dup4\n        /* \"#utility.yul\":8120:8136   */\n      add\n        /* \"#utility.yul\":8114:8137   */\n      mload\n        /* \"#utility.yul\":8184:8187   */\n      dup5\n        /* \"#utility.yul\":8178:8182   */\n      dup3\n        /* \"#utility.yul\":8174:8188   */\n      sub\n        /* \"#utility.yul\":8167:8171   */\n      0xc0\n        /* \"#utility.yul\":8162:8165   */\n      dup7\n        /* \"#utility.yul\":8158:8172   */\n      add\n        /* \"#utility.yul\":8151:8189   */\n      mstore\n        /* \"#utility.yul\":8210:8283   */\n      tag_330\n        /* \"#utility.yul\":8278:8282   */\n      dup3\n        /* \"#utility.yul\":8264:8276   */\n      dup3\n        /* \"#utility.yul\":8210:8283   */\n      tag_305\n      jump\t// in\n    tag_330:\n        /* \"#utility.yul\":8202:8283   */\n      swap2\n      pop\n        /* \"#utility.yul\":8052:8294   */\n      pop\n        /* \"#utility.yul\":8384:8388   */\n      0xe0\n        /* \"#utility.yul\":8377:8382   */\n      dup4\n        /* \"#utility.yul\":8373:8389   */\n      add\n        /* \"#utility.yul\":8367:8390   */\n      mload\n        /* \"#utility.yul\":8437:8440   */\n      dup5\n        /* \"#utility.yul\":8431:8435   */\n      dup3\n        /* \"#utility.yul\":8427:8441   */\n      sub\n        /* \"#utility.yul\":8420:8424   */\n      0xe0\n        /* \"#utility.yul\":8415:8418   */\n      dup7\n        /* \"#utility.yul\":8411:8425   */\n      add\n        /* \"#utility.yul\":8404:8442   */\n      mstore\n        /* \"#utility.yul\":8463:8536   */\n      tag_331\n        /* \"#utility.yul\":8531:8535   */\n      dup3\n        /* \"#utility.yul\":8517:8529   */\n      dup3\n        /* \"#utility.yul\":8463:8536   */\n      tag_305\n      jump\t// in\n    tag_331:\n        /* \"#utility.yul\":8455:8536   */\n      swap2\n      pop\n        /* \"#utility.yul\":8304:8547   */\n      pop\n        /* \"#utility.yul\":8564:8568   */\n      dup1\n        /* \"#utility.yul\":8557:8568   */\n      swap2\n      pop\n        /* \"#utility.yul\":6876:8574   */\n      pop\n        /* \"#utility.yul\":6756:8574   */\n      swap3\n      swap2\n      pop\n      pop\n      jump\t// out\n        /* \"#utility.yul\":8580:8688   */\n    tag_324:\n        /* \"#utility.yul\":8657:8681   */\n      tag_333\n        /* \"#utility.yul\":8675:8680   */\n      dup2\n        /* \"#utility.yul\":8657:8681   */\n      tag_334\n      jump\t// in\n    tag_333:\n        /* \"#utility.yul\":8652:8655   */\n      dup3\n        /* \"#utility.yul\":8645:8682   */\n      mstore\n        /* \"#utility.yul\":8580:8688   */\n      pop\n      pop\n      jump\t// out\n        /* \"#utility.yul\":8694:8812   */\n    tag_335:\n        /* \"#utility.yul\":8781:8805   */\n      tag_337\n        /* \"#utility.yul\":8799:8804   */\n      dup2\n        /* \"#utility.yul\":8781:8805   */\n      tag_334\n      jump\t// in\n    tag_337:\n        /* \"#utility.yul\":8776:8779   */\n      dup3\n        /* \"#utility.yul\":8769:8806   */\n      mstore\n        /* \"#utility.yul\":8694:8812   */\n      pop\n      pop\n      jump\t// out\n        /* \"#utility.yul\":8818:9303   */\n    tag_20:\n        /* \"#utility.yul\":9017:9021   */\n      0x00\n        /* \"#utility.yul\":9055:9057   */\n      0x20\n        /* \"#utility.yul\":9044:9053   */\n      dup3\n        /* \"#utility.yul\":9040:9058   */\n      add\n        /* \"#utility.yul\":9032:9058   */\n      swap1\n      pop\n        /* \"#utility.yul\":9104:9113   */\n      dup2\n        /* \"#utility.yul\":9098:9102   */\n      dup2\n        /* \"#utility.yul\":9094:9114   */\n      sub\n        /* \"#utility.yul\":9090:9091   */\n      0x00\n        /* \"#utility.yul\":9079:9088   */\n      dup4\n        /* \"#utility.yul\":9075:9092   */\n      add\n        /* \"#utility.yul\":9068:9115   */\n      mstore\n        /* \"#utility.yul\":9132:9296   */\n      tag_339\n        /* \"#utility.yul\":9291:9295   */\n      dup2\n        /* \"#utility.yul\":9282:9288   */\n      dup5\n        /* \"#utility.yul\":9132:9296   */\n      tag_291\n      jump\t// in\n    tag_339:\n        /* \"#utility.yul\":9124:9296   */\n      swap1\n      pop\n        /* \"#utility.yul\":8818:9303   */\n      swap3\n      swap2\n      pop\n      pop\n      jump\t// out\n        /* \"#utility.yul\":9309:10579   */\n    tag_33:\n        /* \"#utility.yul\":9658:9662   */\n      0x00\n        /* \"#utility.yul\":9696:9699   */\n      0x0100\n        /* \"#utility.yul\":9685:9694   */\n      dup3\n        /* \"#utility.yul\":9681:9700   */\n      add\n        /* \"#utility.yul\":9673:9700   */\n      swap1\n      pop\n        /* \"#utility.yul\":9710:9781   */\n      tag_341\n        /* \"#utility.yul\":9778:9779   */\n      0x00\n        /* \"#utility.yul\":9767:9776   */\n      dup4\n        /* \"#utility.yul\":9763:9780   */\n      add\n        /* \"#utility.yul\":9754:9760   */\n      dup12\n        /* \"#utility.yul\":9710:9781   */\n      tag_335\n      jump\t// in\n    tag_341:\n        /* \"#utility.yul\":9828:9837   */\n      dup2\n        /* \"#utility.yul\":9822:9826   */\n      dup2\n        /* \"#utility.yul\":9818:9838   */\n      sub\n        /* \"#utility.yul\":9813:9815   */\n      0x20\n        /* \"#utility.yul\":9802:9811   */\n      dup4\n        /* \"#utility.yul\":9798:9816   */\n      add\n        /* \"#utility.yul\":9791:9839   */\n      mstore\n        /* \"#utility.yul\":9856:9934   */\n      tag_342\n        /* \"#utility.yul\":9929:9933   */\n      dup2\n        /* \"#utility.yul\":9920:9926   */\n      dup11\n        /* \"#utility.yul\":9856:9934   */\n      tag_315\n      jump\t// in\n    tag_342:\n        /* \"#utility.yul\":9848:9934   */\n      swap1\n      pop\n        /* \"#utility.yul\":9944:10016   */\n      tag_343\n        /* \"#utility.yul\":10012:10014   */\n      0x40\n        /* \"#utility.yul\":10001:10010   */\n      dup4\n        /* \"#utility.yul\":9997:10015   */\n      add\n        /* \"#utility.yul\":9988:9994   */\n      dup10\n        /* \"#utility.yul\":9944:10016   */\n      tag_335\n      jump\t// in\n    tag_343:\n        /* \"#utility.yul\":10026:10098   */\n      tag_344\n        /* \"#utility.yul\":10094:10096   */\n      0x60\n        /* \"#utility.yul\":10083:10092   */\n      dup4\n        /* \"#utility.yul\":10079:10097   */\n      add\n        /* \"#utility.yul\":10070:10076   */\n      dup9\n        /* \"#utility.yul\":10026:10098   */\n      tag_288\n      jump\t// in\n    tag_344:\n        /* \"#utility.yul\":10108:10181   */\n      tag_345\n        /* \"#utility.yul\":10176:10179   */\n      0x80\n        /* \"#utility.yul\":10165:10174   */\n      dup4\n        /* \"#utility.yul\":10161:10180   */\n      add\n        /* \"#utility.yul\":10152:10158   */\n      dup8\n        /* \"#utility.yul\":10108:10181   */\n      tag_288\n      jump\t// in\n    tag_345:\n        /* \"#utility.yul\":10191:10264   */\n      tag_346\n        /* \"#utility.yul\":10259:10262   */\n      0xa0\n        /* \"#utility.yul\":10248:10257   */\n      dup4\n        /* \"#utility.yul\":10244:10263   */\n      add\n        /* \"#utility.yul\":10235:10241   */\n      dup7\n        /* \"#utility.yul\":10191:10264   */\n      tag_335\n      jump\t// in\n    tag_346:\n        /* \"#utility.yul\":10312:10321   */\n      dup2\n        /* \"#utility.yul\":10306:10310   */\n      dup2\n        /* \"#utility.yul\":10302:10322   */\n      sub\n        /* \"#utility.yul\":10296:10299   */\n      0xc0\n        /* \"#utility.yul\":10285:10294   */\n      dup4\n        /* \"#utility.yul\":10281:10300   */\n      add\n        /* \"#utility.yul\":10274:10323   */\n      mstore\n        /* \"#utility.yul\":10340:10418   */\n      tag_347\n        /* \"#utility.yul\":10413:10417   */\n      dup2\n        /* \"#utility.yul\":10404:10410   */\n      dup6\n        /* \"#utility.yul\":10340:10418   */\n      tag_315\n      jump\t// in\n    tag_347:\n        /* \"#utility.yul\":10332:10418   */\n      swap1\n      pop\n        /* \"#utility.yul\":10466:10475   */\n      dup2\n        /* \"#utility.yul\":10460:10464   */\n      dup2\n        /* \"#utility.yul\":10456:10476   */\n      sub\n        /* \"#utility.yul\":10450:10453   */\n      0xe0\n        /* \"#utility.yul\":10439:10448   */\n      dup4\n        /* \"#utility.yul\":10435:10454   */\n      add\n        /* \"#utility.yul\":10428:10477   */\n      mstore\n        /* \"#utility.yul\":10494:10572   */\n      tag_348\n        /* \"#utility.yul\":10567:10571   */\n      dup2\n        /* \"#utility.yul\":10558:10564   */\n      dup5\n        /* \"#utility.yul\":10494:10572   */\n      tag_315\n      jump\t// in\n    tag_348:\n        /* \"#utility.yul\":10486:10572   */\n      swap1\n      pop\n        /* \"#utility.yul\":9309:10579   */\n      swap10\n      swap9\n      pop\n      pop\n      pop\n      pop\n      pop\n      pop\n      pop\n      pop\n      pop\n      jump\t// out\n        /* \"#utility.yul\":10585:10714   */\n    tag_225:\n        /* \"#utility.yul\":10619:10625   */\n      0x00\n        /* \"#utility.yul\":10646:10666   */\n      tag_350\n      tag_351\n      jump\t// in\n    tag_350:\n        /* \"#utility.yul\":10636:10666   */\n      swap1\n      pop\n        /* \"#utility.yul\":10675:10708   */\n      tag_352\n        /* \"#utility.yul\":10703:10707   */\n      dup3\n        /* \"#utility.yul\":10695:10701   */\n      dup3\n        /* \"#utility.yul\":10675:10708   */\n      tag_353\n      jump\t// in\n    tag_352:\n        /* \"#utility.yul\":10585:10714   */\n      swap2\n      swap1\n      pop\n      jump\t// out\n        /* \"#utility.yul\":10720:10795   */\n    tag_351:\n        /* \"#utility.yul\":10753:10759   */\n      0x00\n        /* \"#utility.yul\":10786:10788   */\n      0x40\n        /* \"#utility.yul\":10780:10789   */\n      mload\n        /* \"#utility.yul\":10770:10789   */\n      swap1\n      pop\n        /* \"#utility.yul\":10720:10795   */\n      swap1\n      jump\t// out\n        /* \"#utility.yul\":10801:11109   */\n    tag_224:\n        /* \"#utility.yul\":10863:10867   */\n      0x00\n        /* \"#utility.yul\":10953:10971   */\n      0xffffffffffffffff\n        /* \"#utility.yul\":10945:10951   */\n      dup3\n        /* \"#utility.yul\":10942:10972   */\n      gt\n        /* \"#utility.yul\":10939:10995   */\n      iszero\n      tag_356\n      jumpi\n        /* \"#utility.yul\":10975:10993   */\n      tag_357\n      tag_358\n      jump\t// in\n    tag_357:\n        /* \"#utility.yul\":10939:10995   */\n    tag_356:\n        /* \"#utility.yul\":11013:11042   */\n      tag_359\n        /* \"#utility.yul\":11035:11041   */\n      dup3\n        /* \"#utility.yul\":11013:11042   */\n      tag_314\n      jump\t// in\n    tag_359:\n        /* \"#utility.yul\":11005:11042   */\n      swap1\n      pop\n        /* \"#utility.yul\":11097:11101   */\n      0x20\n        /* \"#utility.yul\":11091:11095   */\n      dup2\n        /* \"#utility.yul\":11087:11102   */\n      add\n        /* \"#utility.yul\":11079:11102   */\n      swap1\n      pop\n        /* \"#utility.yul\":10801:11109   */\n      swap2\n      swap1\n      pop\n      jump\t// out\n        /* \"#utility.yul\":11115:11275   */\n    tag_298:\n        /* \"#utility.yul\":11210:11214   */\n      0x00\n        /* \"#utility.yul\":11233:11236   */\n      dup2\n        /* \"#utility.yul\":11225:11236   */\n      swap1\n      pop\n        /* \"#utility.yul\":11263:11267   */\n      0x20\n        /* \"#utility.yul\":11258:11261   */\n      dup3\n        /* \"#utility.yul\":11254:11268   */\n      add\n        /* \"#utility.yul\":11246:11268   */\n      swap1\n      pop\n        /* \"#utility.yul\":11115:11275   */\n      swap2\n      swap1\n      pop\n      jump\t// out\n        /* \"#utility.yul\":11281:11423   */\n    tag_294:\n        /* \"#utility.yul\":11376:11382   */\n      0x00\n        /* \"#utility.yul\":11410:11415   */\n      dup2\n        /* \"#utility.yul\":11404:11416   */\n      mload\n        /* \"#utility.yul\":11394:11416   */\n      swap1\n      pop\n        /* \"#utility.yul\":11281:11423   */\n      swap2\n      swap1\n      pop\n      jump\t// out\n        /* \"#utility.yul\":11429:11528   */\n    tag_308:\n        /* \"#utility.yul\":11481:11487   */\n      0x00\n        /* \"#utility.yul\":11515:11520   */\n      dup2\n        /* \"#utility.yul\":11509:11521   */\n      mload\n        /* \"#utility.yul\":11499:11521   */\n      swap1\n      pop\n        /* \"#utility.yul\":11429:11528   */\n      swap2\n      swap1\n      pop\n      jump\t// out\n        /* \"#utility.yul\":11534:11675   */\n    tag_304:\n        /* \"#utility.yul\":11632:11636   */\n      0x00\n        /* \"#utility.yul\":11664:11668   */\n      0x20\n        /* \"#utility.yul\":11659:11662   */\n      dup3\n        /* \"#utility.yul\":11655:11669   */\n      add\n        /* \"#utility.yul\":11647:11669   */\n      swap1\n      pop\n        /* \"#utility.yul\":11534:11675   */\n      swap2\n      swap1\n      pop\n      jump\t// out\n        /* \"#utility.yul\":11681:11893   */\n    tag_296:\n        /* \"#utility.yul\":11808:11819   */\n      0x00\n        /* \"#utility.yul\":11842:11848   */\n      dup3\n        /* \"#utility.yul\":11837:11840   */\n      dup3\n        /* \"#utility.yul\":11830:11849   */\n      mstore\n        /* \"#utility.yul\":11882:11886   */\n      0x20\n        /* \"#utility.yul\":11877:11880   */\n      dup3\n        /* \"#utility.yul\":11873:11887   */\n      add\n        /* \"#utility.yul\":11858:11887   */\n      swap1\n      pop\n        /* \"#utility.yul\":11681:11893   */\n      swap3\n      swap2\n      pop\n      pop\n      jump\t// out\n        /* \"#utility.yul\":11899:12058   */\n    tag_310:\n        /* \"#utility.yul\":11973:11984   */\n      0x00\n        /* \"#utility.yul\":12007:12013   */\n      dup3\n        /* \"#utility.yul\":12002:12005   */\n      dup3\n        /* \"#utility.yul\":11995:12014   */\n      mstore\n        /* \"#utility.yul\":12047:12051   */\n      0x20\n        /* \"#utility.yul\":12042:12045   */\n      dup3\n        /* \"#utility.yul\":12038:12052   */\n      add\n        /* \"#utility.yul\":12023:12052   */\n      swap1\n      pop\n        /* \"#utility.yul\":11899:12058   */\n      swap3\n      swap2\n      pop\n      pop\n      jump\t// out\n        /* \"#utility.yul\":12064:12233   */\n    tag_319:\n        /* \"#utility.yul\":12148:12159   */\n      0x00\n        /* \"#utility.yul\":12182:12188   */\n      dup3\n        /* \"#utility.yul\":12177:12180   */\n      dup3\n        /* \"#utility.yul\":12170:12189   */\n      mstore\n        /* \"#utility.yul\":12222:12226   */\n      0x20\n        /* \"#utility.yul\":12217:12220   */\n      dup3\n        /* \"#utility.yul\":12213:12227   */\n      add\n        /* \"#utility.yul\":12198:12227   */\n      swap1\n      pop\n        /* \"#utility.yul\":12064:12233   */\n      swap3\n      swap2\n      pop\n      pop\n      jump\t// out\n        /* \"#utility.yul\":12239:12544   */\n    tag_96:\n        /* \"#utility.yul\":12279:12282   */\n      0x00\n        /* \"#utility.yul\":12298:12318   */\n      tag_368\n        /* \"#utility.yul\":12316:12317   */\n      dup3\n        /* \"#utility.yul\":12298:12318   */\n      tag_334\n      jump\t// in\n    tag_368:\n        /* \"#utility.yul\":12293:12318   */\n      swap2\n      pop\n        /* \"#utility.yul\":12332:12352   */\n      tag_369\n        /* \"#utility.yul\":12350:12351   */\n      dup4\n        /* \"#utility.yul\":12332:12352   */\n      tag_334\n      jump\t// in\n    tag_369:\n        /* \"#utility.yul\":12327:12352   */\n      swap3\n      pop\n        /* \"#utility.yul\":12486:12487   */\n      dup3\n        /* \"#utility.yul\":12418:12484   */\n      0xffffffffffffffffffffffffffffffffffffffffffffffffffffffffffffffff\n        /* \"#utility.yul\":12414:12488   */\n      sub\n        /* \"#utility.yul\":12411:12412   */\n      dup3\n        /* \"#utility.yul\":12408:12489   */\n      gt\n        /* \"#utility.yul\":12405:12512   */\n      iszero\n      tag_370\n      jumpi\n        /* \"#utility.yul\":12492:12510   */\n      tag_371\n      tag_372\n      jump\t// in\n    tag_371:\n        /* \"#utility.yul\":12405:12512   */\n    tag_370:\n        /* \"#utility.yul\":12536:12537   */\n      dup3\n        /* \"#utility.yul\":12533:12534   */\n      dup3\n        /* \"#utility.yul\":12529:12538   */\n      add\n        /* \"#utility.yul\":12522:12538   */\n      swap1\n      pop\n        /* \"#utility.yul\":12239:12544   */\n      swap3\n      swap2\n      pop\n      pop\n      jump\t// out\n        /* \"#utility.yul\":12550:12741   */\n    tag_65:\n        /* \"#utility.yul\":12590:12594   */\n      0x00\n        /* \"#utility.yul\":12610:12630   */\n      tag_374\n        /* \"#utility.yul\":12628:12629   */\n      dup3\n        /* \"#utility.yul\":12610:12630   */\n      tag_334\n      jump\t// in\n    tag_374:\n        /* \"#utility.yul\":12605:12630   */\n      swap2\n      pop\n        /* \"#utility.yul\":12644:12664   */\n      tag_375\n        /* \"#utility.yul\":12662:12663   */\n      dup4\n        /* \"#utility.yul\":12644:12664   */\n      tag_334\n      jump\t// in\n    tag_375:\n        /* \"#utility.yul\":12639:12664   */\n      swap3\n      pop\n        /* \"#utility.yul\":12683:12684   */\n      dup3\n        /* \"#utility.yul\":12680:12681   */\n      dup3\n        /* \"#utility.yul\":12677:12685   */\n      lt\n        /* \"#utility.yul\":12674:12708   */\n      iszero\n      tag_376\n      jumpi\n        /* \"#utility.yul\":12688:12706   */\n      tag_377\n      tag_372\n      jump\t// in\n    tag_377:\n        /* \"#utility.yul\":12674:12708   */\n    tag_376:\n        /* \"#utility.yul\":12733:12734   */\n      dup3\n        /* \"#utility.yul\":12730:12731   */\n      dup3\n        /* \"#utility.yul\":12726:12735   */\n      sub\n        /* \"#utility.yul\":12718:12735   */\n      swap1\n      pop\n        /* \"#utility.yul\":12550:12741   */\n      swap3\n      swap2\n      pop\n      pop\n      jump\t// out\n        /* \"#utility.yul\":12747:12843   */\n    tag_287:\n        /* \"#utility.yul\":12784:12791   */\n      0x00\n        /* \"#utility.yul\":12813:12837   */\n      tag_379\n        /* \"#utility.yul\":12831:12836   */\n      dup3\n        /* \"#utility.yul\":12813:12837   */\n      tag_380\n      jump\t// in\n    tag_379:\n        /* \"#utility.yul\":12802:12837   */\n      swap1\n      pop\n        /* \"#utility.yul\":12747:12843   */\n      swap2\n      swap1\n      pop\n      jump\t// out\n        /* \"#utility.yul\":12849:12975   */\n    tag_380:\n        /* \"#utility.yul\":12886:12893   */\n      0x00\n        /* \"#utility.yul\":12926:12968   */\n      0xffffffffffffffffffffffffffffffffffffffff\n        /* \"#utility.yul\":12919:12924   */\n      dup3\n        /* \"#utility.yul\":12915:12969   */\n      and\n        /* \"#utility.yul\":12904:12969   */\n      swap1\n      pop\n        /* \"#utility.yul\":12849:12975   */\n      swap2\n      swap1\n      pop\n      jump\t// out\n        /* \"#utility.yul\":12981:13058   */\n    tag_334:\n        /* \"#utility.yul\":13018:13025   */\n      0x00\n        /* \"#utility.yul\":13047:13052   */\n      dup2\n        /* \"#utility.yul\":13036:13052   */\n      swap1\n      pop\n        /* \"#utility.yul\":12981:13058   */\n      swap2\n      swap1\n      pop\n      jump\t// out\n        /* \"#utility.yul\":13064:13218   */\n    tag_230:\n        /* \"#utility.yul\":13148:13154   */\n      dup3\n        /* \"#utility.yul\":13143:13146   */\n      dup2\n        /* \"#utility.yul\":13138:13141   */\n      dup4\n        /* \"#utility.yul\":13125:13155   */\n      calldatacopy\n        /* \"#utility.yul\":13210:13211   */\n      0x00\n        /* \"#utility.yul\":13201:13207   */\n      dup4\n        /* \"#utility.yul\":13196:13199   */\n      dup4\n        /* \"#utility.yul\":13192:13208   */\n      add\n        /* \"#utility.yul\":13185:13212   */\n      mstore\n        /* \"#utility.yul\":13064:13218   */\n      pop\n      pop\n      pop\n      jump\t// out\n        /* \"#utility.yul\":13224:13531   */\n    tag_312:\n        /* \"#utility.yul\":13292:13293   */\n      0x00\n        /* \"#utility.yul\":13302:13415   */\n    tag_385:\n        /* \"#utility.yul\":13316:13322   */\n      dup4\n        /* \"#utility.yul\":13313:13314   */\n      dup2\n        /* \"#utility.yul\":13310:13323   */\n      lt\n        /* \"#utility.yul\":13302:13415   */\n      iszero\n      tag_387\n      jumpi\n        /* \"#utility.yul\":13401:13402   */\n      dup1\n        /* \"#utility.yul\":13396:13399   */\n      dup3\n        /* \"#utility.yul\":13392:13403   */\n      add\n        /* \"#utility.yul\":13386:13404   */\n      mload\n        /* \"#utility.yul\":13382:13383   */\n      dup2\n        /* \"#utility.yul\":13377:13380   */\n      dup5\n        /* \"#utility.yul\":13373:13384   */\n      add\n        /* \"#utility.yul\":13366:13405   */\n      mstore\n        /* \"#utility.yul\":13338:13340   */\n      0x20\n        /* \"#utility.yul\":13335:13336   */\n      dup2\n        /* \"#utility.yul\":13331:13341   */\n      add\n        /* \"#utility.yul\":13326:13341   */\n      swap1\n      pop\n        /* \"#utility.yul\":13302:13415   */\n      jump(tag_385)\n    tag_387:\n        /* \"#utility.yul\":13433:13439   */\n      dup4\n        /* \"#utility.yul\":13430:13431   */\n      dup2\n        /* \"#utility.yul\":13427:13440   */\n      gt\n        /* \"#utility.yul\":13424:13525   */\n      iszero\n      tag_388\n      jumpi\n        /* \"#utility.yul\":13513:13514   */\n      0x00\n        /* \"#utility.yul\":13504:13510   */\n      dup5\n        /* \"#utility.yul\":13499:13502   */\n      dup5\n        /* \"#utility.yul\":13495:13511   */\n      add\n        /* \"#utility.yul\":13488:13515   */\n      mstore\n        /* \"#utility.yul\":13424:13525   */\n    tag_388:\n        /* \"#utility.yul\":13273:13531   */\n      pop\n        /* \"#utility.yul\":13224:13531   */\n      pop\n      pop\n      pop\n      jump\t// out\n        /* \"#utility.yul\":13537:13857   */\n    tag_48:\n        /* \"#utility.yul\":13581:13587   */\n      0x00\n        /* \"#utility.yul\":13618:13619   */\n      0x02\n        /* \"#utility.yul\":13612:13616   */\n      dup3\n        /* \"#utility.yul\":13608:13620   */\n      div\n        /* \"#utility.yul\":13598:13620   */\n      swap1\n      pop\n        /* \"#utility.yul\":13665:13666   */\n      0x01\n        /* \"#utility.yul\":13659:13663   */\n      dup3\n        /* \"#utility.yul\":13655:13667   */\n      and\n        /* \"#utility.yul\":13686:13704   */\n      dup1\n        /* \"#utility.yul\":13676:13757   */\n      tag_390\n      jumpi\n        /* \"#utility.yul\":13742:13746   */\n      0x7f\n        /* \"#utility.yul\":13734:13740   */\n      dup3\n        /* \"#utility.yul\":13730:13747   */\n      and\n        /* \"#utility.yul\":13720:13747   */\n      swap2\n      pop\n        /* \"#utility.yul\":13676:13757   */\n    tag_390:\n        /* \"#utility.yul\":13804:13806   */\n      0x20\n        /* \"#utility.yul\":13796:13802   */\n      dup3\n        /* \"#utility.yul\":13793:13807   */\n      lt\n        /* \"#utility.yul\":13773:13791   */\n      dup2\n        /* \"#utility.yul\":13770:13808   */\n      eq\n        /* \"#utility.yul\":13767:13851   */\n      iszero\n      tag_391\n      jumpi\n        /* \"#utility.yul\":13823:13841   */\n      tag_392\n      tag_393\n      jump\t// in\n    tag_392:\n        /* \"#utility.yul\":13767:13851   */\n    tag_391:\n        /* \"#utility.yul\":13588:13857   */\n      pop\n        /* \"#utility.yul\":13537:13857   */\n      swap2\n      swap1\n      pop\n      jump\t// out\n        /* \"#utility.yul\":13863:14144   */\n    tag_353:\n        /* \"#utility.yul\":13946:13973   */\n      tag_395\n        /* \"#utility.yul\":13968:13972   */\n      dup3\n        /* \"#utility.yul\":13946:13973   */\n      tag_314\n      jump\t// in\n    tag_395:\n        /* \"#utility.yul\":13938:13944   */\n      dup2\n        /* \"#utility.yul\":13934:13974   */\n      add\n        /* \"#utility.yul\":14076:14082   */\n      dup2\n        /* \"#utility.yul\":14064:14074   */\n      dup2\n        /* \"#utility.yul\":14061:14083   */\n      lt\n        /* \"#utility.yul\":14040:14058   */\n      0xffffffffffffffff\n        /* \"#utility.yul\":14028:14038   */\n      dup3\n        /* \"#utility.yul\":14025:14059   */\n      gt\n        /* \"#utility.yul\":14022:14084   */\n      or\n        /* \"#utility.yul\":14019:14107   */\n      iszero\n      tag_396\n      jumpi\n        /* \"#utility.yul\":14087:14105   */\n      tag_397\n      tag_358\n      jump\t// in\n    tag_397:\n        /* \"#utility.yul\":14019:14107   */\n    tag_396:\n        /* \"#utility.yul\":14127:14137   */\n      dup1\n        /* \"#utility.yul\":14123:14125   */\n      0x40\n        /* \"#utility.yul\":14116:14138   */\n      mstore\n        /* \"#utility.yul\":13906:14144   */\n      pop\n        /* \"#utility.yul\":13863:14144   */\n      pop\n      pop\n      jump\t// out\n        /* \"#utility.yul\":14150:14383   */\n    tag_111:\n        /* \"#utility.yul\":14189:14192   */\n      0x00\n        /* \"#utility.yul\":14212:14236   */\n      tag_399\n        /* \"#utility.yul\":14230:14235   */\n      dup3\n        /* \"#utility.yul\":14212:14236   */\n      tag_334\n      jump\t// in\n    tag_399:\n        /* \"#utility.yul\":14203:14236   */\n      swap2\n      pop\n        /* \"#utility.yul\":14258:14324   */\n      0xffffffffffffffffffffffffffffffffffffffffffffffffffffffffffffffff\n        /* \"#utility.yul\":14251:14256   */\n      dup3\n        /* \"#utility.yul\":14248:14325   */\n      eq\n        /* \"#utility.yul\":14245:14348   */\n      iszero\n      tag_400\n      jumpi\n        /* \"#utility.yul\":14328:14346   */\n      tag_401\n      tag_372\n      jump\t// in\n    tag_401:\n        /* \"#utility.yul\":14245:14348   */\n    tag_400:\n        /* \"#utility.yul\":14375:14376   */\n      0x01\n        /* \"#utility.yul\":14368:14373   */\n      dup3\n        /* \"#utility.yul\":14364:14377   */\n      add\n        /* \"#utility.yul\":14357:14377   */\n      swap1\n      pop\n        /* \"#utility.yul\":14150:14383   */\n      swap2\n      swap1\n      pop\n      jump\t// out\n        /* \"#utility.yul\":14389:14569   */\n    tag_372:\n        /* \"#utility.yul\":14437:14514   */\n      0x4e487b7100000000000000000000000000000000000000000000000000000000\n        /* \"#utility.yul\":14434:14435   */\n      0x00\n        /* \"#utility.yul\":14427:14515   */\n      mstore\n        /* \"#utility.yul\":14534:14538   */\n      0x11\n        /* \"#utility.yul\":14531:14532   */\n      0x04\n        /* \"#utility.yul\":14524:14539   */\n      mstore\n        /* \"#utility.yul\":14558:14562   */\n      0x24\n        /* \"#utility.yul\":14555:14556   */\n      0x00\n        /* \"#utility.yul\":14548:14563   */\n      revert\n        /* \"#utility.yul\":14575:14755   */\n    tag_393:\n        /* \"#utility.yul\":14623:14700   */\n      0x4e487b7100000000000000000000000000000000000000000000000000000000\n        /* \"#utility.yul\":14620:14621   */\n      0x00\n        /* \"#utility.yul\":14613:14701   */\n      mstore\n        /* \"#utility.yul\":14720:14724   */\n      0x22\n        /* \"#utility.yul\":14717:14718   */\n      0x04\n        /* \"#utility.yul\":14710:14725   */\n      mstore\n        /* \"#utility.yul\":14744:14748   */\n      0x24\n        /* \"#utility.yul\":14741:14742   */\n      0x00\n        /* \"#utility.yul\":14734:14749   */\n      revert\n        /* \"#utility.yul\":14761:14941   */\n    tag_80:\n        /* \"#utility.yul\":14809:14886   */\n      0x4e487b7100000000000000000000000000000000000000000000000000000000\n        /* \"#utility.yul\":14806:14807   */\n      0x00\n        /* \"#utility.yul\":14799:14887   */\n      mstore\n        /* \"#utility.yul\":14906:14910   */\n      0x31\n        /* \"#utility.yul\":14903:14904   */\n      0x04\n        /* \"#utility.yul\":14896:14911   */\n      mstore\n        /* \"#utility.yul\":14930:14934   */\n      0x24\n        /* \"#utility.yul\":14927:14928   */\n      0x00\n        /* \"#utility.yul\":14920:14935   */\n      revert\n        /* \"#utility.yul\":14947:15127   */\n    tag_68:\n        /* \"#utility.yul\":14995:15072   */\n      0x4e487b7100000000000000000000000000000000000000000000000000000000\n        /* \"#utility.yul\":14992:14993   */\n      0x00\n        /* \"#utility.yul\":14985:15073   */\n      mstore\n        /* \"#utility.yul\":15092:15096   */\n      0x32\n        /* \"#utility.yul\":15089:15090   */\n      0x04\n        /* \"#utility.yul\":15082:15097   */\n      mstore\n        /* \"#utility.yul\":15116:15120   */\n      0x24\n        /* \"#utility.yul\":15113:15114   */\n      0x00\n        /* \"#utility.yul\":15106:15121   */\n      revert\n        /* \"#utility.yul\":15133:15313   */\n    tag_358:\n        /* \"#utility.yul\":15181:15258   */\n      0x4e487b7100000000000000000000000000000000000000000000000000000000\n        /* \"#utility.yul\":15178:15179   */\n      0x00\n        /* \"#utility.yul\":15171:15259   */\n      mstore\n        /* \"#utility.yul\":15278:15282   */\n      0x41\n        /* \"#utility.yul\":15275:15276   */\n      0x04\n        /* \"#utility.yul\":15268:15283   */\n      mstore\n        /* \"#utility.yul\":15302:15306   */\n      0x24\n        /* \"#utility.yul\":15299:15300   */\n      0x00\n        /* \"#utility.yul\":15292:15307   */\n      revert\n        /* \"#utility.yul\":15319:15436   */\n    tag_239:\n        /* \"#utility.yul\":15428:15429   */\n      0x00\n        /* \"#utility.yul\":15425:15426   */\n      dup1\n        /* \"#utility.yul\":15418:15430   */\n      revert\n        /* \"#utility.yul\":15442:15559   */\n    tag_228:\n        /* \"#utility.yul\":15551:15552   */\n      0x00\n        /* \"#utility.yul\":15548:15549   */\n      dup1\n        /* \"#utility.yul\":15541:15553   */\n      revert\n        /* \"#utility.yul\":15565:15682   */\n    tag_255:\n        /* \"#utility.yul\":15674:15675   */\n      0x00\n        /* \"#utility.yul\":15671:15672   */\n      dup1\n        /* \"#utility.yul\":15664:15676   */\n      revert\n        /* \"#utility.yul\":15688:15805   */\n    tag_248:\n        /* \"#utility.yul\":15797:15798   */\n      0x00\n        /* \"#utility.yul\":15794:15795   */\n      dup1\n        /* \"#utility.yul\":15787:15799   */\n      revert\n        /* \"#utility.yul\":15811:15913   */\n    tag_314:\n        /* \"#utility.yul\":15852:15858   */\n      0x00\n        /* \"#utility.yul\":15903:15905   */\n      0x1f\n        /* \"#utility.yul\":15899:15906   */\n      not\n        /* \"#utility.yul\":15894:15896   */\n      0x1f\n        /* \"#utility.yul\":15887:15892   */\n      dup4\n        /* \"#utility.yul\":15883:15897   */\n      add\n        /* \"#utility.yul\":15879:15907   */\n      and\n        /* \"#utility.yul\":15869:15907   */\n      swap1\n      pop\n        /* \"#utility.yul\":15811:15913   */\n      swap2\n      swap1\n      pop\n      jump\t// out\n        /* \"#utility.yul\":15919:16041   */\n    tag_234:\n        /* \"#utility.yul\":15992:16016   */\n      tag_413\n        /* \"#utility.yul\":16010:16015   */\n      dup2\n        /* \"#utility.yul\":15992:16016   */\n      tag_287\n      jump\t// in\n    tag_413:\n        /* \"#utility.yul\":15985:15990   */\n      dup2\n        /* \"#utility.yul\":15982:16017   */\n      eq\n        /* \"#utility.yul\":15972:16035   */\n      tag_414\n      jumpi\n        /* \"#utility.yul\":16031:16032   */\n      0x00\n        /* \"#utility.yul\":16028:16029   */\n      dup1\n        /* \"#utility.yul\":16021:16033   */\n      revert\n        /* \"#utility.yul\":15972:16035   */\n    tag_414:\n        /* \"#utility.yul\":15919:16041   */\n      pop\n      jump\t// out\n        /* \"#utility.yul\":16047:16169   */\n    tag_244:\n        /* \"#utility.yul\":16120:16144   */\n      tag_416\n        /* \"#utility.yul\":16138:16143   */\n      dup2\n        /* \"#utility.yul\":16120:16144   */\n      tag_334\n      jump\t// in\n    tag_416:\n        /* \"#utility.yul\":16113:16118   */\n      dup2\n        /* \"#utility.yul\":16110:16145   */\n      eq\n        /* \"#utility.yul\":16100:16163   */\n      tag_417\n      jumpi\n        /* \"#utility.yul\":16159:16160   */\n      0x00\n        /* \"#utility.yul\":16156:16157   */\n      dup1\n        /* \"#utility.yul\":16149:16161   */\n      revert\n        /* \"#utility.yul\":16100:16163   */\n    tag_417:\n        /* \"#utility.yul\":16047:16169   */\n      pop\n      jump\t// out\n\n    auxdata: 0xa26469706673582212201e2c03b6e8f254367ee0cba7af649cc85e0d112ced6f56ee2069dd4828a8680e64736f6c63430008070033\n}\n",
				"bytecode": {
					"linkReferences": {},
					"object": "608060405234801561001057600080fd5b506121ef806100206000396000f3fe608060405234801561001057600080fd5b506004361061007d5760003560e01c806369ba1a751161005b57806369ba1a75146100ea57806380c9419e14610106578063904cc1751461013d578063a97af4d51461016d5761007d565b80632d01cf0314610082578063377e6ff71461009e5780635102bc9d146100ce575b600080fd5b61009c60048036038101906100979190611af2565b610189565b005b6100b860048036038101906100b391906119b1565b61018e565b6040516100c59190611d56565b60405180910390f35b6100e860048036038101906100e39190611a96565b6104ad565b005b61010460048036038101906100ff9190611a69565b6104f6565b005b610120600480360381019061011b9190611a69565b610af8565b604051610134989796959493929190611d78565b60405180910390f35b61015760048036038101906101529190611a69565b610d28565b6040516101649190611d56565b60405180910390f35b610187600480360381019061018291906119de565b611305565b005b505050565b6060600360008373ffffffffffffffffffffffffffffffffffffffff1673ffffffffffffffffffffffffffffffffffffffff168152602001908152602001600020805480602002602001604051908101604052809291908181526020016000905b828210156104a25783829060005260206000209060080201604051806101000160405290816000820154815260200160018201805461022d90611fcf565b80601f016020809104026020016040519081016040528092919081815260200182805461025990611fcf565b80156102a65780601f1061027b576101008083540402835291602001916102a6565b820191906000526020600020905b81548152906001019060200180831161028957829003601f168201915b50505050508152602001600282015481526020016003820160009054906101000a900473ffffffffffffffffffffffffffffffffffffffff1673ffffffffffffffffffffffffffffffffffffffff1673ffffffffffffffffffffffffffffffffffffffff1681526020016004820160009054906101000a900473ffffffffffffffffffffffffffffffffffffffff1673ffffffffffffffffffffffffffffffffffffffff1673ffffffffffffffffffffffffffffffffffffffff1681526020016005820154815260200160068201805461037f90611fcf565b80601f01602080910402602001604051908101604052809291908181526020018280546103ab90611fcf565b80156103f85780601f106103cd576101008083540402835291602001916103f8565b820191906000526020600020905b8154815290600101906020018083116103db57829003601f168201915b5050505050815260200160078201805461041190611fcf565b80601f016020809104026020016040519081016040528092919081815260200182805461043d90611fcf565b801561048a5780601f1061045f5761010080835404028352916020019161048a565b820191906000526020600020905b81548152906001019060200180831161046d57829003601f168201915b505050505081525050815260200190600101906101ef565b505050509050919050565b80600180846104bc9190611f1d565b815481106104cd576104cc612108565b5b906000526020600020906008020160010190805190602001906104f19291906117a7565b505050565b6003600180836105069190611f1d565b8154811061051757610516612108565b5b906000526020600020906008020160020181905550600160026000600181526020019081526020016000208054905014156106245760026000600181526020019081526020016000208054806105705761056f6120d9565b5b600190038181906000526020600020906008020160008082016000905560018201600061059d919061182d565b60028201600090556003820160006101000a81549073ffffffffffffffffffffffffffffffffffffffff02191690556004820160006101000a81549073ffffffffffffffffffffffffffffffffffffffff0219169055600582016000905560068201600061060b919061182d565b60078201600061061b919061182d565b5050905561093d565b60005b600160026000600181526020019081526020016000208054905061064b9190611f1d565b81101561086857816002600060018152602001908152602001600020828154811061067957610678612108565b5b90600052602060002090600802016000015414156108555760026000600181526020019081526020016000206001826106b29190611ec7565b815481106106c3576106c2612108565b5b9060005260206000209060080201600260006001815260200190815260200160002082815481106106f7576106f6612108565b5b906000526020600020906008020160008201548160000155600182018160010190805461072390611fcf565b61072e92919061186d565b50600282015481600201556003820160009054906101000a900473ffffffffffffffffffffffffffffffffffffffff168160030160006101000a81548173ffffffffffffffffffffffffffffffffffffffff021916908373ffffffffffffffffffffffffffffffffffffffff1602179055506004820160009054906101000a900473ffffffffffffffffffffffffffffffffffffffff168160040160006101000a81548173ffffffffffffffffffffffffffffffffffffffff021916908373ffffffffffffffffffffffffffffffffffffffff16021790555060058201548160050155600682018160060190805461082590611fcf565b61083092919061186d565b50600782018160070190805461084590611fcf565b61085092919061186d565b509050505b808061086090612032565b915050610627565b50600260006001815260200190815260200160002080548061088d5761088c6120d9565b5b60019003818190600052602060002090600802016000808201600090556001820160006108ba919061182d565b60028201600090556003820160006101000a81549073ffffffffffffffffffffffffffffffffffffffff02191690556004820160006101000a81549073ffffffffffffffffffffffffffffffffffffffff02191690556005820160009055600682016000610928919061182d565b600782016000610938919061182d565b505090555b60026000600381526020019081526020016000206001808361095f9190611f1d565b815481106109705761096f612108565b5b906000526020600020906008020190806001815401808255809150506001900390600052602060002090600802016000909190919091506000820154816000015560018201816001019080546109c590611fcf565b6109d092919061186d565b50600282015481600201556003820160009054906101000a900473ffffffffffffffffffffffffffffffffffffffff168160030160006101000a81548173ffffffffffffffffffffffffffffffffffffffff021916908373ffffffffffffffffffffffffffffffffffffffff1602179055506004820160009054906101000a900473ffffffffffffffffffffffffffffffffffffffff168160040160006101000a81548173ffffffffffffffffffffffffffffffffffffffff021916908373ffffffffffffffffffffffffffffffffffffffff160217905550600582015481600501556006820181600601908054610ac790611fcf565b610ad292919061186d565b506007820181600701908054610ae790611fcf565b610af292919061186d565b50505050565b60018181548110610b0857600080fd5b9060005260206000209060080201600091509050806000015490806001018054610b3190611fcf565b80601f0160208091040260200160405190810160405280929190818152602001828054610b5d90611fcf565b8015610baa5780601f10610b7f57610100808354040283529160200191610baa565b820191906000526020600020905b815481529060010190602001808311610b8d57829003601f168201915b5050505050908060020154908060030160009054906101000a900473ffffffffffffffffffffffffffffffffffffffff16908060040160009054906101000a900473ffffffffffffffffffffffffffffffffffffffff1690806005015490806006018054610c1790611fcf565b80601f0160208091040260200160405190810160405280929190818152602001828054610c4390611fcf565b8015610c905780601f10610c6557610100808354040283529160200191610c90565b820191906000526020600020905b815481529060010190602001808311610c7357829003601f168201915b505050505090806007018054610ca590611fcf565b80601f0160208091040260200160405190810160405280929190818152602001828054610cd190611fcf565b8015610d1e5780601f10610cf357610100808354040283529160200191610d1e565b820191906000526020600020905b815481529060010190602001808311610d0157829003601f168201915b5050505050905088565b60606000821415611013576001805480602002602001604051908101604052809291908181526020016000905b8282101561100857838290600052602060002090600802016040518061010001604052908160008201548152602001600182018054610d9390611fcf565b80601f0160208091040260200160405190810160405280929190818152602001828054610dbf90611fcf565b8015610e0c5780601f10610de157610100808354040283529160200191610e0c565b820191906000526020600020905b815481529060010190602001808311610def57829003601f168201915b50505050508152602001600282015481526020016003820160009054906101000a900473ffffffffffffffffffffffffffffffffffffffff1673ffffffffffffffffffffffffffffffffffffffff1673ffffffffffffffffffffffffffffffffffffffff1681526020016004820160009054906101000a900473ffffffffffffffffffffffffffffffffffffffff1673ffffffffffffffffffffffffffffffffffffffff1673ffffffffffffffffffffffffffffffffffffffff16815260200160058201548152602001600682018054610ee590611fcf565b80601f0160208091040260200160405190810160405280929190818152602001828054610f1190611fcf565b8015610f5e5780601f10610f3357610100808354040283529160200191610f5e565b820191906000526020600020905b815481529060010190602001808311610f4157829003601f168201915b50505050508152602001600782018054610f7790611fcf565b80601f0160208091040260200160405190810160405280929190818152602001828054610fa390611fcf565b8015610ff05780601f10610fc557610100808354040283529160200191610ff0565b820191906000526020600020905b815481529060010190602001808311610fd357829003601f168201915b50505050508152505081526020019060010190610d55565b505050509050611300565b60026000838152602001908152602001600020805480602002602001604051908101604052809291908181526020016000905b828210156112f95783829060005260206000209060080201604051806101000160405290816000820154815260200160018201805461108490611fcf565b80601f01602080910402602001604051908101604052809291908181526020018280546110b090611fcf565b80156110fd5780601f106110d2576101008083540402835291602001916110fd565b820191906000526020600020905b8154815290600101906020018083116110e057829003601f168201915b50505050508152602001600282015481526020016003820160009054906101000a900473ffffffffffffffffffffffffffffffffffffffff1673ffffffffffffffffffffffffffffffffffffffff1673ffffffffffffffffffffffffffffffffffffffff1681526020016004820160009054906101000a900473ffffffffffffffffffffffffffffffffffffffff1673ffffffffffffffffffffffffffffffffffffffff1673ffffffffffffffffffffffffffffffffffffffff168152602001600582015481526020016006820180546111d690611fcf565b80601f016020809104026020016040519081016040528092919081815260200182805461120290611fcf565b801561124f5780601f106112245761010080835404028352916020019161124f565b820191906000526020600020905b81548152906001019060200180831161123257829003601f168201915b5050505050815260200160078201805461126890611fcf565b80601f016020809104026020016040519081016040528092919081815260200182805461129490611fcf565b80156112e15780601f106112b6576101008083540402835291602001916112e1565b820191906000526020600020905b8154815290600101906020018083116112c457829003601f168201915b50505050508152505081526020019060010190611046565b5050505090505b919050565b60008081548092919061131790612032565b919050555060006040518061010001604052806000548152602001858152602001600181526020013373ffffffffffffffffffffffffffffffffffffffff1681526020018473ffffffffffffffffffffffffffffffffffffffff168152602001600081526020018381526020016040518060400160405280600181526020017f3000000000000000000000000000000000000000000000000000000000000000815250815250905060018190806001815401808255809150506001900390600052602060002090600802016000909190919091506000820151816000015560208201518160010190805190602001906114119291906117a7565b506040820151816002015560608201518160030160006101000a81548173ffffffffffffffffffffffffffffffffffffffff021916908373ffffffffffffffffffffffffffffffffffffffff16021790555060808201518160040160006101000a81548173ffffffffffffffffffffffffffffffffffffffff021916908373ffffffffffffffffffffffffffffffffffffffff16021790555060a0820151816005015560c08201518160060190805190602001906114d09291906117a7565b5060e08201518160070190805190602001906114ed9291906117a7565b50505060026000600181526020019081526020016000208190806001815401808255809150506001900390600052602060002090600802016000909190919091506000820151816000015560208201518160010190805190602001906115549291906117a7565b506040820151816002015560608201518160030160006101000a81548173ffffffffffffffffffffffffffffffffffffffff021916908373ffffffffffffffffffffffffffffffffffffffff16021790555060808201518160040160006101000a81548173ffffffffffffffffffffffffffffffffffffffff021916908373ffffffffffffffffffffffffffffffffffffffff16021790555060a0820151816005015560c08201518160060190805190602001906116139291906117a7565b5060e08201518160070190805190602001906116309291906117a7565b505050600360003373ffffffffffffffffffffffffffffffffffffffff1673ffffffffffffffffffffffffffffffffffffffff1681526020019081526020016000208190806001815401808255809150506001900390600052602060002090600802016000909190919091506000820151816000015560208201518160010190805190602001906116c29291906117a7565b506040820151816002015560608201518160030160006101000a81548173ffffffffffffffffffffffffffffffffffffffff021916908373ffffffffffffffffffffffffffffffffffffffff16021790555060808201518160040160006101000a81548173ffffffffffffffffffffffffffffffffffffffff021916908373ffffffffffffffffffffffffffffffffffffffff16021790555060a0820151816005015560c08201518160060190805190602001906117819291906117a7565b5060e082015181600701908051906020019061179e9291906117a7565b50505050505050565b8280546117b390611fcf565b90600052602060002090601f0160209004810192826117d5576000855561181c565b82601f106117ee57805160ff191683800117855561181c565b8280016001018555821561181c579182015b8281111561181b578251825591602001919060010190611800565b5b50905061182991906118fa565b5090565b50805461183990611fcf565b6000825580601f1061184b575061186a565b601f01602090049060005260206000209081019061186991906118fa565b5b50565b82805461187990611fcf565b90600052602060002090601f01602090048101928261189b57600085556118e9565b82601f106118ac57805485556118e9565b828001600101855582156118e957600052602060002091601f016020900482015b828111156118e85782548255916001019190600101906118cd565b5b5090506118f691906118fa565b5090565b5b808211156119135760008160009055506001016118fb565b5090565b600061192a61192584611e30565b611e0b565b9050828152602081018484840111156119465761194561216b565b5b611951848285611f8d565b509392505050565b6000813590506119688161218b565b92915050565b600082601f83011261198357611982612166565b5b8135611993848260208601611917565b91505092915050565b6000813590506119ab816121a2565b92915050565b6000602082840312156119c7576119c6612175565b5b60006119d584828501611959565b91505092915050565b6000806000606084860312156119f7576119f6612175565b5b600084013567ffffffffffffffff811115611a1557611a14612170565b5b611a218682870161196e565b9350506020611a3286828701611959565b925050604084013567ffffffffffffffff811115611a5357611a52612170565b5b611a5f8682870161196e565b9150509250925092565b600060208284031215611a7f57611a7e612175565b5b6000611a8d8482850161199c565b91505092915050565b60008060408385031215611aad57611aac612175565b5b6000611abb8582860161199c565b925050602083013567ffffffffffffffff811115611adc57611adb612170565b5b611ae88582860161196e565b9150509250929050565b600080600060608486031215611b0b57611b0a612175565b5b6000611b198682870161199c565b935050602084013567ffffffffffffffff811115611b3a57611b39612170565b5b611b468682870161196e565b9250506040611b5786828701611959565b9150509250925092565b6000611b6d8383611c7a565b905092915050565b611b7e81611f51565b82525050565b611b8d81611f51565b82525050565b6000611b9e82611e71565b611ba88185611e94565b935083602082028501611bba85611e61565b8060005b85811015611bf65784840389528151611bd78582611b61565b9450611be283611e87565b925060208a01995050600181019050611bbe565b50829750879550505050505092915050565b6000611c1382611e7c565b611c1d8185611ea5565b9350611c2d818560208601611f9c565b611c368161217a565b840191505092915050565b6000611c4c82611e7c565b611c568185611eb6565b9350611c66818560208601611f9c565b611c6f8161217a565b840191505092915050565b600061010083016000830151611c936000860182611d38565b5060208301518482036020860152611cab8282611c08565b9150506040830151611cc06040860182611d38565b506060830151611cd36060860182611b75565b506080830151611ce66080860182611b75565b5060a0830151611cf960a0860182611d38565b5060c083015184820360c0860152611d118282611c08565b91505060e083015184820360e0860152611d2b8282611c08565b9150508091505092915050565b611d4181611f83565b82525050565b611d5081611f83565b82525050565b60006020820190508181036000830152611d708184611b93565b905092915050565b600061010082019050611d8e600083018b611d47565b8181036020830152611da0818a611c41565b9050611daf6040830189611d47565b611dbc6060830188611b84565b611dc96080830187611b84565b611dd660a0830186611d47565b81810360c0830152611de88185611c41565b905081810360e0830152611dfc8184611c41565b90509998505050505050505050565b6000611e15611e26565b9050611e218282612001565b919050565b6000604051905090565b600067ffffffffffffffff821115611e4b57611e4a612137565b5b611e548261217a565b9050602081019050919050565b6000819050602082019050919050565b600081519050919050565b600081519050919050565b6000602082019050919050565b600082825260208201905092915050565b600082825260208201905092915050565b600082825260208201905092915050565b6000611ed282611f83565b9150611edd83611f83565b9250827fffffffffffffffffffffffffffffffffffffffffffffffffffffffffffffffff03821115611f1257611f1161207b565b5b828201905092915050565b6000611f2882611f83565b9150611f3383611f83565b925082821015611f4657611f4561207b565b5b828203905092915050565b6000611f5c82611f63565b9050919050565b600073ffffffffffffffffffffffffffffffffffffffff82169050919050565b6000819050919050565b82818337600083830152505050565b60005b83811015611fba578082015181840152602081019050611f9f565b83811115611fc9576000848401525b50505050565b60006002820490506001821680611fe757607f821691505b60208210811415611ffb57611ffa6120aa565b5b50919050565b61200a8261217a565b810181811067ffffffffffffffff8211171561202957612028612137565b5b80604052505050565b600061203d82611f83565b91507fffffffffffffffffffffffffffffffffffffffffffffffffffffffffffffffff8214156120705761206f61207b565b5b600182019050919050565b7f4e487b7100000000000000000000000000000000000000000000000000000000600052601160045260246000fd5b7f4e487b7100000000000000000000000000000000000000000000000000000000600052602260045260246000fd5b7f4e487b7100000000000000000000000000000000000000000000000000000000600052603160045260246000fd5b7f4e487b7100000000000000000000000000000000000000000000000000000000600052603260045260246000fd5b7f4e487b7100000000000000000000000000000000000000000000000000000000600052604160045260246000fd5b600080fd5b600080fd5b600080fd5b600080fd5b6000601f19601f8301169050919050565b61219481611f51565b811461219f57600080fd5b50565b6121ab81611f83565b81146121b657600080fd5b5056fea26469706673582212201e2c03b6e8f254367ee0cba7af649cc85e0d112ced6f56ee2069dd4828a8680e64736f6c63430008070033",
					"opcodes": "PUSH1 0x80 PUSH1 0x40 MSTORE CALLVALUE DUP1 ISZERO PUSH2 0x10 JUMPI PUSH1 0x0 DUP1 REVERT JUMPDEST POP PUSH2 0x21EF DUP1 PUSH2 0x20 PUSH1 0x0 CODECOPY PUSH1 0x0 RETURN INVALID PUSH1 0x80 PUSH1 0x40 MSTORE CALLVALUE DUP1 ISZERO PUSH2 0x10 JUMPI PUSH1 0x0 DUP1 REVERT JUMPDEST POP PUSH1 0x4 CALLDATASIZE LT PUSH2 0x7D JUMPI PUSH1 0x0 CALLDATALOAD PUSH1 0xE0 SHR DUP1 PUSH4 0x69BA1A75 GT PUSH2 0x5B JUMPI DUP1 PUSH4 0x69BA1A75 EQ PUSH2 0xEA JUMPI DUP1 PUSH4 0x80C9419E EQ PUSH2 0x106 JUMPI DUP1 PUSH4 0x904CC175 EQ PUSH2 0x13D JUMPI DUP1 PUSH4 0xA97AF4D5 EQ PUSH2 0x16D JUMPI PUSH2 0x7D JUMP JUMPDEST DUP1 PUSH4 0x2D01CF03 EQ PUSH2 0x82 JUMPI DUP1 PUSH4 0x377E6FF7 EQ PUSH2 0x9E JUMPI DUP1 PUSH4 0x5102BC9D EQ PUSH2 0xCE JUMPI JUMPDEST PUSH1 0x0 DUP1 REVERT JUMPDEST PUSH2 0x9C PUSH1 0x4 DUP1 CALLDATASIZE SUB DUP2 ADD SWAP1 PUSH2 0x97 SWAP2 SWAP1 PUSH2 0x1AF2 JUMP JUMPDEST PUSH2 0x189 JUMP JUMPDEST STOP JUMPDEST PUSH2 0xB8 PUSH1 0x4 DUP1 CALLDATASIZE SUB DUP2 ADD SWAP1 PUSH2 0xB3 SWAP2 SWAP1 PUSH2 0x19B1 JUMP JUMPDEST PUSH2 0x18E JUMP JUMPDEST PUSH1 0x40 MLOAD PUSH2 0xC5 SWAP2 SWAP1 PUSH2 0x1D56 JUMP JUMPDEST PUSH1 0x40 MLOAD DUP1 SWAP2 SUB SWAP1 RETURN JUMPDEST PUSH2 0xE8 PUSH1 0x4 DUP1 CALLDATASIZE SUB DUP2 ADD SWAP1 PUSH2 0xE3 SWAP2 SWAP1 PUSH2 0x1A96 JUMP JUMPDEST PUSH2 0x4AD JUMP JUMPDEST STOP JUMPDEST PUSH2 0x104 PUSH1 0x4 DUP1 CALLDATASIZE SUB DUP2 ADD SWAP1 PUSH2 0xFF SWAP2 SWAP1 PUSH2 0x1A69 JUMP JUMPDEST PUSH2 0x4F6 JUMP JUMPDEST STOP JUMPDEST PUSH2 0x120 PUSH1 0x4 DUP1 CALLDATASIZE SUB DUP2 ADD SWAP1 PUSH2 0x11B SWAP2 SWAP1 PUSH2 0x1A69 JUMP JUMPDEST PUSH2 0xAF8 JUMP JUMPDEST PUSH1 0x40 MLOAD PUSH2 0x134 SWAP9 SWAP8 SWAP7 SWAP6 SWAP5 SWAP4 SWAP3 SWAP2 SWAP1 PUSH2 0x1D78 JUMP JUMPDEST PUSH1 0x40 MLOAD DUP1 SWAP2 SUB SWAP1 RETURN JUMPDEST PUSH2 0x157 PUSH1 0x4 DUP1 CALLDATASIZE SUB DUP2 ADD SWAP1 PUSH2 0x152 SWAP2 SWAP1 PUSH2 0x1A69 JUMP JUMPDEST PUSH2 0xD28 JUMP JUMPDEST PUSH1 0x40 MLOAD PUSH2 0x164 SWAP2 SWAP1 PUSH2 0x1D56 JUMP JUMPDEST PUSH1 0x40 MLOAD DUP1 SWAP2 SUB SWAP1 RETURN JUMPDEST PUSH2 0x187 PUSH1 0x4 DUP1 CALLDATASIZE SUB DUP2 ADD SWAP1 PUSH2 0x182 SWAP2 SWAP1 PUSH2 0x19DE JUMP JUMPDEST PUSH2 0x1305 JUMP JUMPDEST STOP JUMPDEST POP POP POP JUMP JUMPDEST PUSH1 0x60 PUSH1 0x3 PUSH1 0x0 DUP4 PUSH20 0xFFFFFFFFFFFFFFFFFFFFFFFFFFFFFFFFFFFFFFFF AND PUSH20 0xFFFFFFFFFFFFFFFFFFFFFFFFFFFFFFFFFFFFFFFF AND DUP2 MSTORE PUSH1 0x20 ADD SWAP1 DUP2 MSTORE PUSH1 0x20 ADD PUSH1 0x0 KECCAK256 DUP1 SLOAD DUP1 PUSH1 0x20 MUL PUSH1 0x20 ADD PUSH1 0x40 MLOAD SWAP1 DUP2 ADD PUSH1 0x40 MSTORE DUP1 SWAP3 SWAP2 SWAP1 DUP2 DUP2 MSTORE PUSH1 0x20 ADD PUSH1 0x0 SWAP1 JUMPDEST DUP3 DUP3 LT ISZERO PUSH2 0x4A2 JUMPI DUP4 DUP3 SWAP1 PUSH1 0x0 MSTORE PUSH1 0x20 PUSH1 0x0 KECCAK256 SWAP1 PUSH1 0x8 MUL ADD PUSH1 0x40 MLOAD DUP1 PUSH2 0x100 ADD PUSH1 0x40 MSTORE SWAP1 DUP2 PUSH1 0x0 DUP3 ADD SLOAD DUP2 MSTORE PUSH1 0x20 ADD PUSH1 0x1 DUP3 ADD DUP1 SLOAD PUSH2 0x22D SWAP1 PUSH2 0x1FCF JUMP JUMPDEST DUP1 PUSH1 0x1F ADD PUSH1 0x20 DUP1 SWAP2 DIV MUL PUSH1 0x20 ADD PUSH1 0x40 MLOAD SWAP1 DUP2 ADD PUSH1 0x40 MSTORE DUP1 SWAP3 SWAP2 SWAP1 DUP2 DUP2 MSTORE PUSH1 0x20 ADD DUP3 DUP1 SLOAD PUSH2 0x259 SWAP1 PUSH2 0x1FCF JUMP JUMPDEST DUP1 ISZERO PUSH2 0x2A6 JUMPI DUP1 PUSH1 0x1F LT PUSH2 0x27B JUMPI PUSH2 0x100 DUP1 DUP4 SLOAD DIV MUL DUP4 MSTORE SWAP2 PUSH1 0x20 ADD SWAP2 PUSH2 0x2A6 JUMP JUMPDEST DUP3 ADD SWAP2 SWAP1 PUSH1 0x0 MSTORE PUSH1 0x20 PUSH1 0x0 KECCAK256 SWAP1 JUMPDEST DUP2 SLOAD DUP2 MSTORE SWAP1 PUSH1 0x1 ADD SWAP1 PUSH1 0x20 ADD DUP1 DUP4 GT PUSH2 0x289 JUMPI DUP3 SWAP1 SUB PUSH1 0x1F AND DUP3 ADD SWAP2 JUMPDEST POP POP POP POP POP DUP2 MSTORE PUSH1 0x20 ADD PUSH1 0x2 DUP3 ADD SLOAD DUP2 MSTORE PUSH1 0x20 ADD PUSH1 0x3 DUP3 ADD PUSH1 0x0 SWAP1 SLOAD SWAP1 PUSH2 0x100 EXP SWAP1 DIV PUSH20 0xFFFFFFFFFFFFFFFFFFFFFFFFFFFFFFFFFFFFFFFF AND PUSH20 0xFFFFFFFFFFFFFFFFFFFFFFFFFFFFFFFFFFFFFFFF AND PUSH20 0xFFFFFFFFFFFFFFFFFFFFFFFFFFFFFFFFFFFFFFFF AND DUP2 MSTORE PUSH1 0x20 ADD PUSH1 0x4 DUP3 ADD PUSH1 0x0 SWAP1 SLOAD SWAP1 PUSH2 0x100 EXP SWAP1 DIV PUSH20 0xFFFFFFFFFFFFFFFFFFFFFFFFFFFFFFFFFFFFFFFF AND PUSH20 0xFFFFFFFFFFFFFFFFFFFFFFFFFFFFFFFFFFFFFFFF AND PUSH20 0xFFFFFFFFFFFFFFFFFFFFFFFFFFFFFFFFFFFFFFFF AND DUP2 MSTORE PUSH1 0x20 ADD PUSH1 0x5 DUP3 ADD SLOAD DUP2 MSTORE PUSH1 0x20 ADD PUSH1 0x6 DUP3 ADD DUP1 SLOAD PUSH2 0x37F SWAP1 PUSH2 0x1FCF JUMP JUMPDEST DUP1 PUSH1 0x1F ADD PUSH1 0x20 DUP1 SWAP2 DIV MUL PUSH1 0x20 ADD PUSH1 0x40 MLOAD SWAP1 DUP2 ADD PUSH1 0x40 MSTORE DUP1 SWAP3 SWAP2 SWAP1 DUP2 DUP2 MSTORE PUSH1 0x20 ADD DUP3 DUP1 SLOAD PUSH2 0x3AB SWAP1 PUSH2 0x1FCF JUMP JUMPDEST DUP1 ISZERO PUSH2 0x3F8 JUMPI DUP1 PUSH1 0x1F LT PUSH2 0x3CD JUMPI PUSH2 0x100 DUP1 DUP4 SLOAD DIV MUL DUP4 MSTORE SWAP2 PUSH1 0x20 ADD SWAP2 PUSH2 0x3F8 JUMP JUMPDEST DUP3 ADD SWAP2 SWAP1 PUSH1 0x0 MSTORE PUSH1 0x20 PUSH1 0x0 KECCAK256 SWAP1 JUMPDEST DUP2 SLOAD DUP2 MSTORE SWAP1 PUSH1 0x1 ADD SWAP1 PUSH1 0x20 ADD DUP1 DUP4 GT PUSH2 0x3DB JUMPI DUP3 SWAP1 SUB PUSH1 0x1F AND DUP3 ADD SWAP2 JUMPDEST POP POP POP POP POP DUP2 MSTORE PUSH1 0x20 ADD PUSH1 0x7 DUP3 ADD DUP1 SLOAD PUSH2 0x411 SWAP1 PUSH2 0x1FCF JUMP JUMPDEST DUP1 PUSH1 0x1F ADD PUSH1 0x20 DUP1 SWAP2 DIV MUL PUSH1 0x20 ADD PUSH1 0x40 MLOAD SWAP1 DUP2 ADD PUSH1 0x40 MSTORE DUP1 SWAP3 SWAP2 SWAP1 DUP2 DUP2 MSTORE PUSH1 0x20 ADD DUP3 DUP1 SLOAD PUSH2 0x43D SWAP1 PUSH2 0x1FCF JUMP JUMPDEST DUP1 ISZERO PUSH2 0x48A JUMPI DUP1 PUSH1 0x1F LT PUSH2 0x45F JUMPI PUSH2 0x100 DUP1 DUP4 SLOAD DIV MUL DUP4 MSTORE SWAP2 PUSH1 0x20 ADD SWAP2 PUSH2 0x48A JUMP JUMPDEST DUP3 ADD SWAP2 SWAP1 PUSH1 0x0 MSTORE PUSH1 0x20 PUSH1 0x0 KECCAK256 SWAP1 JUMPDEST DUP2 SLOAD DUP2 MSTORE SWAP1 PUSH1 0x1 ADD SWAP1 PUSH1 0x20 ADD DUP1 DUP4 GT PUSH2 0x46D JUMPI DUP3 SWAP1 SUB PUSH1 0x1F AND DUP3 ADD SWAP2 JUMPDEST POP POP POP POP POP DUP2 MSTORE POP POP DUP2 MSTORE PUSH1 0x20 ADD SWAP1 PUSH1 0x1 ADD SWAP1 PUSH2 0x1EF JUMP JUMPDEST POP POP POP POP SWAP1 POP SWAP2 SWAP1 POP JUMP JUMPDEST DUP1 PUSH1 0x1 DUP1 DUP5 PUSH2 0x4BC SWAP2 SWAP1 PUSH2 0x1F1D JUMP JUMPDEST DUP2 SLOAD DUP2 LT PUSH2 0x4CD JUMPI PUSH2 0x4CC PUSH2 0x2108 JUMP JUMPDEST JUMPDEST SWAP1 PUSH1 0x0 MSTORE PUSH1 0x20 PUSH1 0x0 KECCAK256 SWAP1 PUSH1 0x8 MUL ADD PUSH1 0x1 ADD SWAP1 DUP1 MLOAD SWAP1 PUSH1 0x20 ADD SWAP1 PUSH2 0x4F1 SWAP3 SWAP2 SWAP1 PUSH2 0x17A7 JUMP JUMPDEST POP POP POP JUMP JUMPDEST PUSH1 0x3 PUSH1 0x1 DUP1 DUP4 PUSH2 0x506 SWAP2 SWAP1 PUSH2 0x1F1D JUMP JUMPDEST DUP2 SLOAD DUP2 LT PUSH2 0x517 JUMPI PUSH2 0x516 PUSH2 0x2108 JUMP JUMPDEST JUMPDEST SWAP1 PUSH1 0x0 MSTORE PUSH1 0x20 PUSH1 0x0 KECCAK256 SWAP1 PUSH1 0x8 MUL ADD PUSH1 0x2 ADD DUP2 SWAP1 SSTORE POP PUSH1 0x1 PUSH1 0x2 PUSH1 0x0 PUSH1 0x1 DUP2 MSTORE PUSH1 0x20 ADD SWAP1 DUP2 MSTORE PUSH1 0x20 ADD PUSH1 0x0 KECCAK256 DUP1 SLOAD SWAP1 POP EQ ISZERO PUSH2 0x624 JUMPI PUSH1 0x2 PUSH1 0x0 PUSH1 0x1 DUP2 MSTORE PUSH1 0x20 ADD SWAP1 DUP2 MSTORE PUSH1 0x20 ADD PUSH1 0x0 KECCAK256 DUP1 SLOAD DUP1 PUSH2 0x570 JUMPI PUSH2 0x56F PUSH2 0x20D9 JUMP JUMPDEST JUMPDEST PUSH1 0x1 SWAP1 SUB DUP2 DUP2 SWAP1 PUSH1 0x0 MSTORE PUSH1 0x20 PUSH1 0x0 KECCAK256 SWAP1 PUSH1 0x8 MUL ADD PUSH1 0x0 DUP1 DUP3 ADD PUSH1 0x0 SWAP1 SSTORE PUSH1 0x1 DUP3 ADD PUSH1 0x0 PUSH2 0x59D SWAP2 SWAP1 PUSH2 0x182D JUMP JUMPDEST PUSH1 0x2 DUP3 ADD PUSH1 0x0 SWAP1 SSTORE PUSH1 0x3 DUP3 ADD PUSH1 0x0 PUSH2 0x100 EXP DUP2 SLOAD SWAP1 PUSH20 0xFFFFFFFFFFFFFFFFFFFFFFFFFFFFFFFFFFFFFFFF MUL NOT AND SWAP1 SSTORE PUSH1 0x4 DUP3 ADD PUSH1 0x0 PUSH2 0x100 EXP DUP2 SLOAD SWAP1 PUSH20 0xFFFFFFFFFFFFFFFFFFFFFFFFFFFFFFFFFFFFFFFF MUL NOT AND SWAP1 SSTORE PUSH1 0x5 DUP3 ADD PUSH1 0x0 SWAP1 SSTORE PUSH1 0x6 DUP3 ADD PUSH1 0x0 PUSH2 0x60B SWAP2 SWAP1 PUSH2 0x182D JUMP JUMPDEST PUSH1 0x7 DUP3 ADD PUSH1 0x0 PUSH2 0x61B SWAP2 SWAP1 PUSH2 0x182D JUMP JUMPDEST POP POP SWAP1 SSTORE PUSH2 0x93D JUMP JUMPDEST PUSH1 0x0 JUMPDEST PUSH1 0x1 PUSH1 0x2 PUSH1 0x0 PUSH1 0x1 DUP2 MSTORE PUSH1 0x20 ADD SWAP1 DUP2 MSTORE PUSH1 0x20 ADD PUSH1 0x0 KECCAK256 DUP1 SLOAD SWAP1 POP PUSH2 0x64B SWAP2 SWAP1 PUSH2 0x1F1D JUMP JUMPDEST DUP2 LT ISZERO PUSH2 0x868 JUMPI DUP2 PUSH1 0x2 PUSH1 0x0 PUSH1 0x1 DUP2 MSTORE PUSH1 0x20 ADD SWAP1 DUP2 MSTORE PUSH1 0x20 ADD PUSH1 0x0 KECCAK256 DUP3 DUP2 SLOAD DUP2 LT PUSH2 0x679 JUMPI PUSH2 0x678 PUSH2 0x2108 JUMP JUMPDEST JUMPDEST SWAP1 PUSH1 0x0 MSTORE PUSH1 0x20 PUSH1 0x0 KECCAK256 SWAP1 PUSH1 0x8 MUL ADD PUSH1 0x0 ADD SLOAD EQ ISZERO PUSH2 0x855 JUMPI PUSH1 0x2 PUSH1 0x0 PUSH1 0x1 DUP2 MSTORE PUSH1 0x20 ADD SWAP1 DUP2 MSTORE PUSH1 0x20 ADD PUSH1 0x0 KECCAK256 PUSH1 0x1 DUP3 PUSH2 0x6B2 SWAP2 SWAP1 PUSH2 0x1EC7 JUMP JUMPDEST DUP2 SLOAD DUP2 LT PUSH2 0x6C3 JUMPI PUSH2 0x6C2 PUSH2 0x2108 JUMP JUMPDEST JUMPDEST SWAP1 PUSH1 0x0 MSTORE PUSH1 0x20 PUSH1 0x0 KECCAK256 SWAP1 PUSH1 0x8 MUL ADD PUSH1 0x2 PUSH1 0x0 PUSH1 0x1 DUP2 MSTORE PUSH1 0x20 ADD SWAP1 DUP2 MSTORE PUSH1 0x20 ADD PUSH1 0x0 KECCAK256 DUP3 DUP2 SLOAD DUP2 LT PUSH2 0x6F7 JUMPI PUSH2 0x6F6 PUSH2 0x2108 JUMP JUMPDEST JUMPDEST SWAP1 PUSH1 0x0 MSTORE PUSH1 0x20 PUSH1 0x0 KECCAK256 SWAP1 PUSH1 0x8 MUL ADD PUSH1 0x0 DUP3 ADD SLOAD DUP2 PUSH1 0x0 ADD SSTORE PUSH1 0x1 DUP3 ADD DUP2 PUSH1 0x1 ADD SWAP1 DUP1 SLOAD PUSH2 0x723 SWAP1 PUSH2 0x1FCF JUMP JUMPDEST PUSH2 0x72E SWAP3 SWAP2 SWAP1 PUSH2 0x186D JUMP JUMPDEST POP PUSH1 0x2 DUP3 ADD SLOAD DUP2 PUSH1 0x2 ADD SSTORE PUSH1 0x3 DUP3 ADD PUSH1 0x0 SWAP1 SLOAD SWAP1 PUSH2 0x100 EXP SWAP1 DIV PUSH20 0xFFFFFFFFFFFFFFFFFFFFFFFFFFFFFFFFFFFFFFFF AND DUP2 PUSH1 0x3 ADD PUSH1 0x0 PUSH2 0x100 EXP DUP2 SLOAD DUP2 PUSH20 0xFFFFFFFFFFFFFFFFFFFFFFFFFFFFFFFFFFFFFFFF MUL NOT AND SWAP1 DUP4 PUSH20 0xFFFFFFFFFFFFFFFFFFFFFFFFFFFFFFFFFFFFFFFF AND MUL OR SWAP1 SSTORE POP PUSH1 0x4 DUP3 ADD PUSH1 0x0 SWAP1 SLOAD SWAP1 PUSH2 0x100 EXP SWAP1 DIV PUSH20 0xFFFFFFFFFFFFFFFFFFFFFFFFFFFFFFFFFFFFFFFF AND DUP2 PUSH1 0x4 ADD PUSH1 0x0 PUSH2 0x100 EXP DUP2 SLOAD DUP2 PUSH20 0xFFFFFFFFFFFFFFFFFFFFFFFFFFFFFFFFFFFFFFFF MUL NOT AND SWAP1 DUP4 PUSH20 0xFFFFFFFFFFFFFFFFFFFFFFFFFFFFFFFFFFFFFFFF AND MUL OR SWAP1 SSTORE POP PUSH1 0x5 DUP3 ADD SLOAD DUP2 PUSH1 0x5 ADD SSTORE PUSH1 0x6 DUP3 ADD DUP2 PUSH1 0x6 ADD SWAP1 DUP1 SLOAD PUSH2 0x825 SWAP1 PUSH2 0x1FCF JUMP JUMPDEST PUSH2 0x830 SWAP3 SWAP2 SWAP1 PUSH2 0x186D JUMP JUMPDEST POP PUSH1 0x7 DUP3 ADD DUP2 PUSH1 0x7 ADD SWAP1 DUP1 SLOAD PUSH2 0x845 SWAP1 PUSH2 0x1FCF JUMP JUMPDEST PUSH2 0x850 SWAP3 SWAP2 SWAP1 PUSH2 0x186D JUMP JUMPDEST POP SWAP1 POP POP JUMPDEST DUP1 DUP1 PUSH2 0x860 SWAP1 PUSH2 0x2032 JUMP JUMPDEST SWAP2 POP POP PUSH2 0x627 JUMP JUMPDEST POP PUSH1 0x2 PUSH1 0x0 PUSH1 0x1 DUP2 MSTORE PUSH1 0x20 ADD SWAP1 DUP2 MSTORE PUSH1 0x20 ADD PUSH1 0x0 KECCAK256 DUP1 SLOAD DUP1 PUSH2 0x88D JUMPI PUSH2 0x88C PUSH2 0x20D9 JUMP JUMPDEST JUMPDEST PUSH1 0x1 SWAP1 SUB DUP2 DUP2 SWAP1 PUSH1 0x0 MSTORE PUSH1 0x20 PUSH1 0x0 KECCAK256 SWAP1 PUSH1 0x8 MUL ADD PUSH1 0x0 DUP1 DUP3 ADD PUSH1 0x0 SWAP1 SSTORE PUSH1 0x1 DUP3 ADD PUSH1 0x0 PUSH2 0x8BA SWAP2 SWAP1 PUSH2 0x182D JUMP JUMPDEST PUSH1 0x2 DUP3 ADD PUSH1 0x0 SWAP1 SSTORE PUSH1 0x3 DUP3 ADD PUSH1 0x0 PUSH2 0x100 EXP DUP2 SLOAD SWAP1 PUSH20 0xFFFFFFFFFFFFFFFFFFFFFFFFFFFFFFFFFFFFFFFF MUL NOT AND SWAP1 SSTORE PUSH1 0x4 DUP3 ADD PUSH1 0x0 PUSH2 0x100 EXP DUP2 SLOAD SWAP1 PUSH20 0xFFFFFFFFFFFFFFFFFFFFFFFFFFFFFFFFFFFFFFFF MUL NOT AND SWAP1 SSTORE PUSH1 0x5 DUP3 ADD PUSH1 0x0 SWAP1 SSTORE PUSH1 0x6 DUP3 ADD PUSH1 0x0 PUSH2 0x928 SWAP2 SWAP1 PUSH2 0x182D JUMP JUMPDEST PUSH1 0x7 DUP3 ADD PUSH1 0x0 PUSH2 0x938 SWAP2 SWAP1 PUSH2 0x182D JUMP JUMPDEST POP POP SWAP1 SSTORE JUMPDEST PUSH1 0x2 PUSH1 0x0 PUSH1 0x3 DUP2 MSTORE PUSH1 0x20 ADD SWAP1 DUP2 MSTORE PUSH1 0x20 ADD PUSH1 0x0 KECCAK256 PUSH1 0x1 DUP1 DUP4 PUSH2 0x95F SWAP2 SWAP1 PUSH2 0x1F1D JUMP JUMPDEST DUP2 SLOAD DUP2 LT PUSH2 0x970 JUMPI PUSH2 0x96F PUSH2 0x2108 JUMP JUMPDEST JUMPDEST SWAP1 PUSH1 0x0 MSTORE PUSH1 0x20 PUSH1 0x0 KECCAK256 SWAP1 PUSH1 0x8 MUL ADD SWAP1 DUP1 PUSH1 0x1 DUP2 SLOAD ADD DUP1 DUP3 SSTORE DUP1 SWAP2 POP POP PUSH1 0x1 SWAP1 SUB SWAP1 PUSH1 0x0 MSTORE PUSH1 0x20 PUSH1 0x0 KECCAK256 SWAP1 PUSH1 0x8 MUL ADD PUSH1 0x0 SWAP1 SWAP2 SWAP1 SWAP2 SWAP1 SWAP2 POP PUSH1 0x0 DUP3 ADD SLOAD DUP2 PUSH1 0x0 ADD SSTORE PUSH1 0x1 DUP3 ADD DUP2 PUSH1 0x1 ADD SWAP1 DUP1 SLOAD PUSH2 0x9C5 SWAP1 PUSH2 0x1FCF JUMP JUMPDEST PUSH2 0x9D0 SWAP3 SWAP2 SWAP1 PUSH2 0x186D JUMP JUMPDEST POP PUSH1 0x2 DUP3 ADD SLOAD DUP2 PUSH1 0x2 ADD SSTORE PUSH1 0x3 DUP3 ADD PUSH1 0x0 SWAP1 SLOAD SWAP1 PUSH2 0x100 EXP SWAP1 DIV PUSH20 0xFFFFFFFFFFFFFFFFFFFFFFFFFFFFFFFFFFFFFFFF AND DUP2 PUSH1 0x3 ADD PUSH1 0x0 PUSH2 0x100 EXP DUP2 SLOAD DUP2 PUSH20 0xFFFFFFFFFFFFFFFFFFFFFFFFFFFFFFFFFFFFFFFF MUL NOT AND SWAP1 DUP4 PUSH20 0xFFFFFFFFFFFFFFFFFFFFFFFFFFFFFFFFFFFFFFFF AND MUL OR SWAP1 SSTORE POP PUSH1 0x4 DUP3 ADD PUSH1 0x0 SWAP1 SLOAD SWAP1 PUSH2 0x100 EXP SWAP1 DIV PUSH20 0xFFFFFFFFFFFFFFFFFFFFFFFFFFFFFFFFFFFFFFFF AND DUP2 PUSH1 0x4 ADD PUSH1 0x0 PUSH2 0x100 EXP DUP2 SLOAD DUP2 PUSH20 0xFFFFFFFFFFFFFFFFFFFFFFFFFFFFFFFFFFFFFFFF MUL NOT AND SWAP1 DUP4 PUSH20 0xFFFFFFFFFFFFFFFFFFFFFFFFFFFFFFFFFFFFFFFF AND MUL OR SWAP1 SSTORE POP PUSH1 0x5 DUP3 ADD SLOAD DUP2 PUSH1 0x5 ADD SSTORE PUSH1 0x6 DUP3 ADD DUP2 PUSH1 0x6 ADD SWAP1 DUP1 SLOAD PUSH2 0xAC7 SWAP1 PUSH2 0x1FCF JUMP JUMPDEST PUSH2 0xAD2 SWAP3 SWAP2 SWAP1 PUSH2 0x186D JUMP JUMPDEST POP PUSH1 0x7 DUP3 ADD DUP2 PUSH1 0x7 ADD SWAP1 DUP1 SLOAD PUSH2 0xAE7 SWAP1 PUSH2 0x1FCF JUMP JUMPDEST PUSH2 0xAF2 SWAP3 SWAP2 SWAP1 PUSH2 0x186D JUMP JUMPDEST POP POP POP POP JUMP JUMPDEST PUSH1 0x1 DUP2 DUP2 SLOAD DUP2 LT PUSH2 0xB08 JUMPI PUSH1 0x0 DUP1 REVERT JUMPDEST SWAP1 PUSH1 0x0 MSTORE PUSH1 0x20 PUSH1 0x0 KECCAK256 SWAP1 PUSH1 0x8 MUL ADD PUSH1 0x0 SWAP2 POP SWAP1 POP DUP1 PUSH1 0x0 ADD SLOAD SWAP1 DUP1 PUSH1 0x1 ADD DUP1 SLOAD PUSH2 0xB31 SWAP1 PUSH2 0x1FCF JUMP JUMPDEST DUP1 PUSH1 0x1F ADD PUSH1 0x20 DUP1 SWAP2 DIV MUL PUSH1 0x20 ADD PUSH1 0x40 MLOAD SWAP1 DUP2 ADD PUSH1 0x40 MSTORE DUP1 SWAP3 SWAP2 SWAP1 DUP2 DUP2 MSTORE PUSH1 0x20 ADD DUP3 DUP1 SLOAD PUSH2 0xB5D SWAP1 PUSH2 0x1FCF JUMP JUMPDEST DUP1 ISZERO PUSH2 0xBAA JUMPI DUP1 PUSH1 0x1F LT PUSH2 0xB7F JUMPI PUSH2 0x100 DUP1 DUP4 SLOAD DIV MUL DUP4 MSTORE SWAP2 PUSH1 0x20 ADD SWAP2 PUSH2 0xBAA JUMP JUMPDEST DUP3 ADD SWAP2 SWAP1 PUSH1 0x0 MSTORE PUSH1 0x20 PUSH1 0x0 KECCAK256 SWAP1 JUMPDEST DUP2 SLOAD DUP2 MSTORE SWAP1 PUSH1 0x1 ADD SWAP1 PUSH1 0x20 ADD DUP1 DUP4 GT PUSH2 0xB8D JUMPI DUP3 SWAP1 SUB PUSH1 0x1F AND DUP3 ADD SWAP2 JUMPDEST POP POP POP POP POP SWAP1 DUP1 PUSH1 0x2 ADD SLOAD SWAP1 DUP1 PUSH1 0x3 ADD PUSH1 0x0 SWAP1 SLOAD SWAP1 PUSH2 0x100 EXP SWAP1 DIV PUSH20 0xFFFFFFFFFFFFFFFFFFFFFFFFFFFFFFFFFFFFFFFF AND SWAP1 DUP1 PUSH1 0x4 ADD PUSH1 0x0 SWAP1 SLOAD SWAP1 PUSH2 0x100 EXP SWAP1 DIV PUSH20 0xFFFFFFFFFFFFFFFFFFFFFFFFFFFFFFFFFFFFFFFF AND SWAP1 DUP1 PUSH1 0x5 ADD SLOAD SWAP1 DUP1 PUSH1 0x6 ADD DUP1 SLOAD PUSH2 0xC17 SWAP1 PUSH2 0x1FCF JUMP JUMPDEST DUP1 PUSH1 0x1F ADD PUSH1 0x20 DUP1 SWAP2 DIV MUL PUSH1 0x20 ADD PUSH1 0x40 MLOAD SWAP1 DUP2 ADD PUSH1 0x40 MSTORE DUP1 SWAP3 SWAP2 SWAP1 DUP2 DUP2 MSTORE PUSH1 0x20 ADD DUP3 DUP1 SLOAD PUSH2 0xC43 SWAP1 PUSH2 0x1FCF JUMP JUMPDEST DUP1 ISZERO PUSH2 0xC90 JUMPI DUP1 PUSH1 0x1F LT PUSH2 0xC65 JUMPI PUSH2 0x100 DUP1 DUP4 SLOAD DIV MUL DUP4 MSTORE SWAP2 PUSH1 0x20 ADD SWAP2 PUSH2 0xC90 JUMP JUMPDEST DUP3 ADD SWAP2 SWAP1 PUSH1 0x0 MSTORE PUSH1 0x20 PUSH1 0x0 KECCAK256 SWAP1 JUMPDEST DUP2 SLOAD DUP2 MSTORE SWAP1 PUSH1 0x1 ADD SWAP1 PUSH1 0x20 ADD DUP1 DUP4 GT PUSH2 0xC73 JUMPI DUP3 SWAP1 SUB PUSH1 0x1F AND DUP3 ADD SWAP2 JUMPDEST POP POP POP POP POP SWAP1 DUP1 PUSH1 0x7 ADD DUP1 SLOAD PUSH2 0xCA5 SWAP1 PUSH2 0x1FCF JUMP JUMPDEST DUP1 PUSH1 0x1F ADD PUSH1 0x20 DUP1 SWAP2 DIV MUL PUSH1 0x20 ADD PUSH1 0x40 MLOAD SWAP1 DUP2 ADD PUSH1 0x40 MSTORE DUP1 SWAP3 SWAP2 SWAP1 DUP2 DUP2 MSTORE PUSH1 0x20 ADD DUP3 DUP1 SLOAD PUSH2 0xCD1 SWAP1 PUSH2 0x1FCF JUMP JUMPDEST DUP1 ISZERO PUSH2 0xD1E JUMPI DUP1 PUSH1 0x1F LT PUSH2 0xCF3 JUMPI PUSH2 0x100 DUP1 DUP4 SLOAD DIV MUL DUP4 MSTORE SWAP2 PUSH1 0x20 ADD SWAP2 PUSH2 0xD1E JUMP JUMPDEST DUP3 ADD SWAP2 SWAP1 PUSH1 0x0 MSTORE PUSH1 0x20 PUSH1 0x0 KECCAK256 SWAP1 JUMPDEST DUP2 SLOAD DUP2 MSTORE SWAP1 PUSH1 0x1 ADD SWAP1 PUSH1 0x20 ADD DUP1 DUP4 GT PUSH2 0xD01 JUMPI DUP3 SWAP1 SUB PUSH1 0x1F AND DUP3 ADD SWAP2 JUMPDEST POP POP POP POP POP SWAP1 POP DUP9 JUMP JUMPDEST PUSH1 0x60 PUSH1 0x0 DUP3 EQ ISZERO PUSH2 0x1013 JUMPI PUSH1 0x1 DUP1 SLOAD DUP1 PUSH1 0x20 MUL PUSH1 0x20 ADD PUSH1 0x40 MLOAD SWAP1 DUP2 ADD PUSH1 0x40 MSTORE DUP1 SWAP3 SWAP2 SWAP1 DUP2 DUP2 MSTORE PUSH1 0x20 ADD PUSH1 0x0 SWAP1 JUMPDEST DUP3 DUP3 LT ISZERO PUSH2 0x1008 JUMPI DUP4 DUP3 SWAP1 PUSH1 0x0 MSTORE PUSH1 0x20 PUSH1 0x0 KECCAK256 SWAP1 PUSH1 0x8 MUL ADD PUSH1 0x40 MLOAD DUP1 PUSH2 0x100 ADD PUSH1 0x40 MSTORE SWAP1 DUP2 PUSH1 0x0 DUP3 ADD SLOAD DUP2 MSTORE PUSH1 0x20 ADD PUSH1 0x1 DUP3 ADD DUP1 SLOAD PUSH2 0xD93 SWAP1 PUSH2 0x1FCF JUMP JUMPDEST DUP1 PUSH1 0x1F ADD PUSH1 0x20 DUP1 SWAP2 DIV MUL PUSH1 0x20 ADD PUSH1 0x40 MLOAD SWAP1 DUP2 ADD PUSH1 0x40 MSTORE DUP1 SWAP3 SWAP2 SWAP1 DUP2 DUP2 MSTORE PUSH1 0x20 ADD DUP3 DUP1 SLOAD PUSH2 0xDBF SWAP1 PUSH2 0x1FCF JUMP JUMPDEST DUP1 ISZERO PUSH2 0xE0C JUMPI DUP1 PUSH1 0x1F LT PUSH2 0xDE1 JUMPI PUSH2 0x100 DUP1 DUP4 SLOAD DIV MUL DUP4 MSTORE SWAP2 PUSH1 0x20 ADD SWAP2 PUSH2 0xE0C JUMP JUMPDEST DUP3 ADD SWAP2 SWAP1 PUSH1 0x0 MSTORE PUSH1 0x20 PUSH1 0x0 KECCAK256 SWAP1 JUMPDEST DUP2 SLOAD DUP2 MSTORE SWAP1 PUSH1 0x1 ADD SWAP1 PUSH1 0x20 ADD DUP1 DUP4 GT PUSH2 0xDEF JUMPI DUP3 SWAP1 SUB PUSH1 0x1F AND DUP3 ADD SWAP2 JUMPDEST POP POP POP POP POP DUP2 MSTORE PUSH1 0x20 ADD PUSH1 0x2 DUP3 ADD SLOAD DUP2 MSTORE PUSH1 0x20 ADD PUSH1 0x3 DUP3 ADD PUSH1 0x0 SWAP1 SLOAD SWAP1 PUSH2 0x100 EXP SWAP1 DIV PUSH20 0xFFFFFFFFFFFFFFFFFFFFFFFFFFFFFFFFFFFFFFFF AND PUSH20 0xFFFFFFFFFFFFFFFFFFFFFFFFFFFFFFFFFFFFFFFF AND PUSH20 0xFFFFFFFFFFFFFFFFFFFFFFFFFFFFFFFFFFFFFFFF AND DUP2 MSTORE PUSH1 0x20 ADD PUSH1 0x4 DUP3 ADD PUSH1 0x0 SWAP1 SLOAD SWAP1 PUSH2 0x100 EXP SWAP1 DIV PUSH20 0xFFFFFFFFFFFFFFFFFFFFFFFFFFFFFFFFFFFFFFFF AND PUSH20 0xFFFFFFFFFFFFFFFFFFFFFFFFFFFFFFFFFFFFFFFF AND PUSH20 0xFFFFFFFFFFFFFFFFFFFFFFFFFFFFFFFFFFFFFFFF AND DUP2 MSTORE PUSH1 0x20 ADD PUSH1 0x5 DUP3 ADD SLOAD DUP2 MSTORE PUSH1 0x20 ADD PUSH1 0x6 DUP3 ADD DUP1 SLOAD PUSH2 0xEE5 SWAP1 PUSH2 0x1FCF JUMP JUMPDEST DUP1 PUSH1 0x1F ADD PUSH1 0x20 DUP1 SWAP2 DIV MUL PUSH1 0x20 ADD PUSH1 0x40 MLOAD SWAP1 DUP2 ADD PUSH1 0x40 MSTORE DUP1 SWAP3 SWAP2 SWAP1 DUP2 DUP2 MSTORE PUSH1 0x20 ADD DUP3 DUP1 SLOAD PUSH2 0xF11 SWAP1 PUSH2 0x1FCF JUMP JUMPDEST DUP1 ISZERO PUSH2 0xF5E JUMPI DUP1 PUSH1 0x1F LT PUSH2 0xF33 JUMPI PUSH2 0x100 DUP1 DUP4 SLOAD DIV MUL DUP4 MSTORE SWAP2 PUSH1 0x20 ADD SWAP2 PUSH2 0xF5E JUMP JUMPDEST DUP3 ADD SWAP2 SWAP1 PUSH1 0x0 MSTORE PUSH1 0x20 PUSH1 0x0 KECCAK256 SWAP1 JUMPDEST DUP2 SLOAD DUP2 MSTORE SWAP1 PUSH1 0x1 ADD SWAP1 PUSH1 0x20 ADD DUP1 DUP4 GT PUSH2 0xF41 JUMPI DUP3 SWAP1 SUB PUSH1 0x1F AND DUP3 ADD SWAP2 JUMPDEST POP POP POP POP POP DUP2 MSTORE PUSH1 0x20 ADD PUSH1 0x7 DUP3 ADD DUP1 SLOAD PUSH2 0xF77 SWAP1 PUSH2 0x1FCF JUMP JUMPDEST DUP1 PUSH1 0x1F ADD PUSH1 0x20 DUP1 SWAP2 DIV MUL PUSH1 0x20 ADD PUSH1 0x40 MLOAD SWAP1 DUP2 ADD PUSH1 0x40 MSTORE DUP1 SWAP3 SWAP2 SWAP1 DUP2 DUP2 MSTORE PUSH1 0x20 ADD DUP3 DUP1 SLOAD PUSH2 0xFA3 SWAP1 PUSH2 0x1FCF JUMP JUMPDEST DUP1 ISZERO PUSH2 0xFF0 JUMPI DUP1 PUSH1 0x1F LT PUSH2 0xFC5 JUMPI PUSH2 0x100 DUP1 DUP4 SLOAD DIV MUL DUP4 MSTORE SWAP2 PUSH1 0x20 ADD SWAP2 PUSH2 0xFF0 JUMP JUMPDEST DUP3 ADD SWAP2 SWAP1 PUSH1 0x0 MSTORE PUSH1 0x20 PUSH1 0x0 KECCAK256 SWAP1 JUMPDEST DUP2 SLOAD DUP2 MSTORE SWAP1 PUSH1 0x1 ADD SWAP1 PUSH1 0x20 ADD DUP1 DUP4 GT PUSH2 0xFD3 JUMPI DUP3 SWAP1 SUB PUSH1 0x1F AND DUP3 ADD SWAP2 JUMPDEST POP POP POP POP POP DUP2 MSTORE POP POP DUP2 MSTORE PUSH1 0x20 ADD SWAP1 PUSH1 0x1 ADD SWAP1 PUSH2 0xD55 JUMP JUMPDEST POP POP POP POP SWAP1 POP PUSH2 0x1300 JUMP JUMPDEST PUSH1 0x2 PUSH1 0x0 DUP4 DUP2 MSTORE PUSH1 0x20 ADD SWAP1 DUP2 MSTORE PUSH1 0x20 ADD PUSH1 0x0 KECCAK256 DUP1 SLOAD DUP1 PUSH1 0x20 MUL PUSH1 0x20 ADD PUSH1 0x40 MLOAD SWAP1 DUP2 ADD PUSH1 0x40 MSTORE DUP1 SWAP3 SWAP2 SWAP1 DUP2 DUP2 MSTORE PUSH1 0x20 ADD PUSH1 0x0 SWAP1 JUMPDEST DUP3 DUP3 LT ISZERO PUSH2 0x12F9 JUMPI DUP4 DUP3 SWAP1 PUSH1 0x0 MSTORE PUSH1 0x20 PUSH1 0x0 KECCAK256 SWAP1 PUSH1 0x8 MUL ADD PUSH1 0x40 MLOAD DUP1 PUSH2 0x100 ADD PUSH1 0x40 MSTORE SWAP1 DUP2 PUSH1 0x0 DUP3 ADD SLOAD DUP2 MSTORE PUSH1 0x20 ADD PUSH1 0x1 DUP3 ADD DUP1 SLOAD PUSH2 0x1084 SWAP1 PUSH2 0x1FCF JUMP JUMPDEST DUP1 PUSH1 0x1F ADD PUSH1 0x20 DUP1 SWAP2 DIV MUL PUSH1 0x20 ADD PUSH1 0x40 MLOAD SWAP1 DUP2 ADD PUSH1 0x40 MSTORE DUP1 SWAP3 SWAP2 SWAP1 DUP2 DUP2 MSTORE PUSH1 0x20 ADD DUP3 DUP1 SLOAD PUSH2 0x10B0 SWAP1 PUSH2 0x1FCF JUMP JUMPDEST DUP1 ISZERO PUSH2 0x10FD JUMPI DUP1 PUSH1 0x1F LT PUSH2 0x10D2 JUMPI PUSH2 0x100 DUP1 DUP4 SLOAD DIV MUL DUP4 MSTORE SWAP2 PUSH1 0x20 ADD SWAP2 PUSH2 0x10FD JUMP JUMPDEST DUP3 ADD SWAP2 SWAP1 PUSH1 0x0 MSTORE PUSH1 0x20 PUSH1 0x0 KECCAK256 SWAP1 JUMPDEST DUP2 SLOAD DUP2 MSTORE SWAP1 PUSH1 0x1 ADD SWAP1 PUSH1 0x20 ADD DUP1 DUP4 GT PUSH2 0x10E0 JUMPI DUP3 SWAP1 SUB PUSH1 0x1F AND DUP3 ADD SWAP2 JUMPDEST POP POP POP POP POP DUP2 MSTORE PUSH1 0x20 ADD PUSH1 0x2 DUP3 ADD SLOAD DUP2 MSTORE PUSH1 0x20 ADD PUSH1 0x3 DUP3 ADD PUSH1 0x0 SWAP1 SLOAD SWAP1 PUSH2 0x100 EXP SWAP1 DIV PUSH20 0xFFFFFFFFFFFFFFFFFFFFFFFFFFFFFFFFFFFFFFFF AND PUSH20 0xFFFFFFFFFFFFFFFFFFFFFFFFFFFFFFFFFFFFFFFF AND PUSH20 0xFFFFFFFFFFFFFFFFFFFFFFFFFFFFFFFFFFFFFFFF AND DUP2 MSTORE PUSH1 0x20 ADD PUSH1 0x4 DUP3 ADD PUSH1 0x0 SWAP1 SLOAD SWAP1 PUSH2 0x100 EXP SWAP1 DIV PUSH20 0xFFFFFFFFFFFFFFFFFFFFFFFFFFFFFFFFFFFFFFFF AND PUSH20 0xFFFFFFFFFFFFFFFFFFFFFFFFFFFFFFFFFFFFFFFF AND PUSH20 0xFFFFFFFFFFFFFFFFFFFFFFFFFFFFFFFFFFFFFFFF AND DUP2 MSTORE PUSH1 0x20 ADD PUSH1 0x5 DUP3 ADD SLOAD DUP2 MSTORE PUSH1 0x20 ADD PUSH1 0x6 DUP3 ADD DUP1 SLOAD PUSH2 0x11D6 SWAP1 PUSH2 0x1FCF JUMP JUMPDEST DUP1 PUSH1 0x1F ADD PUSH1 0x20 DUP1 SWAP2 DIV MUL PUSH1 0x20 ADD PUSH1 0x40 MLOAD SWAP1 DUP2 ADD PUSH1 0x40 MSTORE DUP1 SWAP3 SWAP2 SWAP1 DUP2 DUP2 MSTORE PUSH1 0x20 ADD DUP3 DUP1 SLOAD PUSH2 0x1202 SWAP1 PUSH2 0x1FCF JUMP JUMPDEST DUP1 ISZERO PUSH2 0x124F JUMPI DUP1 PUSH1 0x1F LT PUSH2 0x1224 JUMPI PUSH2 0x100 DUP1 DUP4 SLOAD DIV MUL DUP4 MSTORE SWAP2 PUSH1 0x20 ADD SWAP2 PUSH2 0x124F JUMP JUMPDEST DUP3 ADD SWAP2 SWAP1 PUSH1 0x0 MSTORE PUSH1 0x20 PUSH1 0x0 KECCAK256 SWAP1 JUMPDEST DUP2 SLOAD DUP2 MSTORE SWAP1 PUSH1 0x1 ADD SWAP1 PUSH1 0x20 ADD DUP1 DUP4 GT PUSH2 0x1232 JUMPI DUP3 SWAP1 SUB PUSH1 0x1F AND DUP3 ADD SWAP2 JUMPDEST POP POP POP POP POP DUP2 MSTORE PUSH1 0x20 ADD PUSH1 0x7 DUP3 ADD DUP1 SLOAD PUSH2 0x1268 SWAP1 PUSH2 0x1FCF JUMP JUMPDEST DUP1 PUSH1 0x1F ADD PUSH1 0x20 DUP1 SWAP2 DIV MUL PUSH1 0x20 ADD PUSH1 0x40 MLOAD SWAP1 DUP2 ADD PUSH1 0x40 MSTORE DUP1 SWAP3 SWAP2 SWAP1 DUP2 DUP2 MSTORE PUSH1 0x20 ADD DUP3 DUP1 SLOAD PUSH2 0x1294 SWAP1 PUSH2 0x1FCF JUMP JUMPDEST DUP1 ISZERO PUSH2 0x12E1 JUMPI DUP1 PUSH1 0x1F LT PUSH2 0x12B6 JUMPI PUSH2 0x100 DUP1 DUP4 SLOAD DIV MUL DUP4 MSTORE SWAP2 PUSH1 0x20 ADD SWAP2 PUSH2 0x12E1 JUMP JUMPDEST DUP3 ADD SWAP2 SWAP1 PUSH1 0x0 MSTORE PUSH1 0x20 PUSH1 0x0 KECCAK256 SWAP1 JUMPDEST DUP2 SLOAD DUP2 MSTORE SWAP1 PUSH1 0x1 ADD SWAP1 PUSH1 0x20 ADD DUP1 DUP4 GT PUSH2 0x12C4 JUMPI DUP3 SWAP1 SUB PUSH1 0x1F AND DUP3 ADD SWAP2 JUMPDEST POP POP POP POP POP DUP2 MSTORE POP POP DUP2 MSTORE PUSH1 0x20 ADD SWAP1 PUSH1 0x1 ADD SWAP1 PUSH2 0x1046 JUMP JUMPDEST POP POP POP POP SWAP1 POP JUMPDEST SWAP2 SWAP1 POP JUMP JUMPDEST PUSH1 0x0 DUP1 DUP2 SLOAD DUP1 SWAP3 SWAP2 SWAP1 PUSH2 0x1317 SWAP1 PUSH2 0x2032 JUMP JUMPDEST SWAP2 SWAP1 POP SSTORE POP PUSH1 0x0 PUSH1 0x40 MLOAD DUP1 PUSH2 0x100 ADD PUSH1 0x40 MSTORE DUP1 PUSH1 0x0 SLOAD DUP2 MSTORE PUSH1 0x20 ADD DUP6 DUP2 MSTORE PUSH1 0x20 ADD PUSH1 0x1 DUP2 MSTORE PUSH1 0x20 ADD CALLER PUSH20 0xFFFFFFFFFFFFFFFFFFFFFFFFFFFFFFFFFFFFFFFF AND DUP2 MSTORE PUSH1 0x20 ADD DUP5 PUSH20 0xFFFFFFFFFFFFFFFFFFFFFFFFFFFFFFFFFFFFFFFF AND DUP2 MSTORE PUSH1 0x20 ADD PUSH1 0x0 DUP2 MSTORE PUSH1 0x20 ADD DUP4 DUP2 MSTORE PUSH1 0x20 ADD PUSH1 0x40 MLOAD DUP1 PUSH1 0x40 ADD PUSH1 0x40 MSTORE DUP1 PUSH1 0x1 DUP2 MSTORE PUSH1 0x20 ADD PUSH32 0x3000000000000000000000000000000000000000000000000000000000000000 DUP2 MSTORE POP DUP2 MSTORE POP SWAP1 POP PUSH1 0x1 DUP2 SWAP1 DUP1 PUSH1 0x1 DUP2 SLOAD ADD DUP1 DUP3 SSTORE DUP1 SWAP2 POP POP PUSH1 0x1 SWAP1 SUB SWAP1 PUSH1 0x0 MSTORE PUSH1 0x20 PUSH1 0x0 KECCAK256 SWAP1 PUSH1 0x8 MUL ADD PUSH1 0x0 SWAP1 SWAP2 SWAP1 SWAP2 SWAP1 SWAP2 POP PUSH1 0x0 DUP3 ADD MLOAD DUP2 PUSH1 0x0 ADD SSTORE PUSH1 0x20 DUP3 ADD MLOAD DUP2 PUSH1 0x1 ADD SWAP1 DUP1 MLOAD SWAP1 PUSH1 0x20 ADD SWAP1 PUSH2 0x1411 SWAP3 SWAP2 SWAP1 PUSH2 0x17A7 JUMP JUMPDEST POP PUSH1 0x40 DUP3 ADD MLOAD DUP2 PUSH1 0x2 ADD SSTORE PUSH1 0x60 DUP3 ADD MLOAD DUP2 PUSH1 0x3 ADD PUSH1 0x0 PUSH2 0x100 EXP DUP2 SLOAD DUP2 PUSH20 0xFFFFFFFFFFFFFFFFFFFFFFFFFFFFFFFFFFFFFFFF MUL NOT AND SWAP1 DUP4 PUSH20 0xFFFFFFFFFFFFFFFFFFFFFFFFFFFFFFFFFFFFFFFF AND MUL OR SWAP1 SSTORE POP PUSH1 0x80 DUP3 ADD MLOAD DUP2 PUSH1 0x4 ADD PUSH1 0x0 PUSH2 0x100 EXP DUP2 SLOAD DUP2 PUSH20 0xFFFFFFFFFFFFFFFFFFFFFFFFFFFFFFFFFFFFFFFF MUL NOT AND SWAP1 DUP4 PUSH20 0xFFFFFFFFFFFFFFFFFFFFFFFFFFFFFFFFFFFFFFFF AND MUL OR SWAP1 SSTORE POP PUSH1 0xA0 DUP3 ADD MLOAD DUP2 PUSH1 0x5 ADD SSTORE PUSH1 0xC0 DUP3 ADD MLOAD DUP2 PUSH1 0x6 ADD SWAP1 DUP1 MLOAD SWAP1 PUSH1 0x20 ADD SWAP1 PUSH2 0x14D0 SWAP3 SWAP2 SWAP1 PUSH2 0x17A7 JUMP JUMPDEST POP PUSH1 0xE0 DUP3 ADD MLOAD DUP2 PUSH1 0x7 ADD SWAP1 DUP1 MLOAD SWAP1 PUSH1 0x20 ADD SWAP1 PUSH2 0x14ED SWAP3 SWAP2 SWAP1 PUSH2 0x17A7 JUMP JUMPDEST POP POP POP PUSH1 0x2 PUSH1 0x0 PUSH1 0x1 DUP2 MSTORE PUSH1 0x20 ADD SWAP1 DUP2 MSTORE PUSH1 0x20 ADD PUSH1 0x0 KECCAK256 DUP2 SWAP1 DUP1 PUSH1 0x1 DUP2 SLOAD ADD DUP1 DUP3 SSTORE DUP1 SWAP2 POP POP PUSH1 0x1 SWAP1 SUB SWAP1 PUSH1 0x0 MSTORE PUSH1 0x20 PUSH1 0x0 KECCAK256 SWAP1 PUSH1 0x8 MUL ADD PUSH1 0x0 SWAP1 SWAP2 SWAP1 SWAP2 SWAP1 SWAP2 POP PUSH1 0x0 DUP3 ADD MLOAD DUP2 PUSH1 0x0 ADD SSTORE PUSH1 0x20 DUP3 ADD MLOAD DUP2 PUSH1 0x1 ADD SWAP1 DUP1 MLOAD SWAP1 PUSH1 0x20 ADD SWAP1 PUSH2 0x1554 SWAP3 SWAP2 SWAP1 PUSH2 0x17A7 JUMP JUMPDEST POP PUSH1 0x40 DUP3 ADD MLOAD DUP2 PUSH1 0x2 ADD SSTORE PUSH1 0x60 DUP3 ADD MLOAD DUP2 PUSH1 0x3 ADD PUSH1 0x0 PUSH2 0x100 EXP DUP2 SLOAD DUP2 PUSH20 0xFFFFFFFFFFFFFFFFFFFFFFFFFFFFFFFFFFFFFFFF MUL NOT AND SWAP1 DUP4 PUSH20 0xFFFFFFFFFFFFFFFFFFFFFFFFFFFFFFFFFFFFFFFF AND MUL OR SWAP1 SSTORE POP PUSH1 0x80 DUP3 ADD MLOAD DUP2 PUSH1 0x4 ADD PUSH1 0x0 PUSH2 0x100 EXP DUP2 SLOAD DUP2 PUSH20 0xFFFFFFFFFFFFFFFFFFFFFFFFFFFFFFFFFFFFFFFF MUL NOT AND SWAP1 DUP4 PUSH20 0xFFFFFFFFFFFFFFFFFFFFFFFFFFFFFFFFFFFFFFFF AND MUL OR SWAP1 SSTORE POP PUSH1 0xA0 DUP3 ADD MLOAD DUP2 PUSH1 0x5 ADD SSTORE PUSH1 0xC0 DUP3 ADD MLOAD DUP2 PUSH1 0x6 ADD SWAP1 DUP1 MLOAD SWAP1 PUSH1 0x20 ADD SWAP1 PUSH2 0x1613 SWAP3 SWAP2 SWAP1 PUSH2 0x17A7 JUMP JUMPDEST POP PUSH1 0xE0 DUP3 ADD MLOAD DUP2 PUSH1 0x7 ADD SWAP1 DUP1 MLOAD SWAP1 PUSH1 0x20 ADD SWAP1 PUSH2 0x1630 SWAP3 SWAP2 SWAP1 PUSH2 0x17A7 JUMP JUMPDEST POP POP POP PUSH1 0x3 PUSH1 0x0 CALLER PUSH20 0xFFFFFFFFFFFFFFFFFFFFFFFFFFFFFFFFFFFFFFFF AND PUSH20 0xFFFFFFFFFFFFFFFFFFFFFFFFFFFFFFFFFFFFFFFF AND DUP2 MSTORE PUSH1 0x20 ADD SWAP1 DUP2 MSTORE PUSH1 0x20 ADD PUSH1 0x0 KECCAK256 DUP2 SWAP1 DUP1 PUSH1 0x1 DUP2 SLOAD ADD DUP1 DUP3 SSTORE DUP1 SWAP2 POP POP PUSH1 0x1 SWAP1 SUB SWAP1 PUSH1 0x0 MSTORE PUSH1 0x20 PUSH1 0x0 KECCAK256 SWAP1 PUSH1 0x8 MUL ADD PUSH1 0x0 SWAP1 SWAP2 SWAP1 SWAP2 SWAP1 SWAP2 POP PUSH1 0x0 DUP3 ADD MLOAD DUP2 PUSH1 0x0 ADD SSTORE PUSH1 0x20 DUP3 ADD MLOAD DUP2 PUSH1 0x1 ADD SWAP1 DUP1 MLOAD SWAP1 PUSH1 0x20 ADD SWAP1 PUSH2 0x16C2 SWAP3 SWAP2 SWAP1 PUSH2 0x17A7 JUMP JUMPDEST POP PUSH1 0x40 DUP3 ADD MLOAD DUP2 PUSH1 0x2 ADD SSTORE PUSH1 0x60 DUP3 ADD MLOAD DUP2 PUSH1 0x3 ADD PUSH1 0x0 PUSH2 0x100 EXP DUP2 SLOAD DUP2 PUSH20 0xFFFFFFFFFFFFFFFFFFFFFFFFFFFFFFFFFFFFFFFF MUL NOT AND SWAP1 DUP4 PUSH20 0xFFFFFFFFFFFFFFFFFFFFFFFFFFFFFFFFFFFFFFFF AND MUL OR SWAP1 SSTORE POP PUSH1 0x80 DUP3 ADD MLOAD DUP2 PUSH1 0x4 ADD PUSH1 0x0 PUSH2 0x100 EXP DUP2 SLOAD DUP2 PUSH20 0xFFFFFFFFFFFFFFFFFFFFFFFFFFFFFFFFFFFFFFFF MUL NOT AND SWAP1 DUP4 PUSH20 0xFFFFFFFFFFFFFFFFFFFFFFFFFFFFFFFFFFFFFFFF AND MUL OR SWAP1 SSTORE POP PUSH1 0xA0 DUP3 ADD MLOAD DUP2 PUSH1 0x5 ADD SSTORE PUSH1 0xC0 DUP3 ADD MLOAD DUP2 PUSH1 0x6 ADD SWAP1 DUP1 MLOAD SWAP1 PUSH1 0x20 ADD SWAP1 PUSH2 0x1781 SWAP3 SWAP2 SWAP1 PUSH2 0x17A7 JUMP JUMPDEST POP PUSH1 0xE0 DUP3 ADD MLOAD DUP2 PUSH1 0x7 ADD SWAP1 DUP1 MLOAD SWAP1 PUSH1 0x20 ADD SWAP1 PUSH2 0x179E SWAP3 SWAP2 SWAP1 PUSH2 0x17A7 JUMP JUMPDEST POP POP POP POP POP POP POP JUMP JUMPDEST DUP3 DUP1 SLOAD PUSH2 0x17B3 SWAP1 PUSH2 0x1FCF JUMP JUMPDEST SWAP1 PUSH1 0x0 MSTORE PUSH1 0x20 PUSH1 0x0 KECCAK256 SWAP1 PUSH1 0x1F ADD PUSH1 0x20 SWAP1 DIV DUP2 ADD SWAP3 DUP3 PUSH2 0x17D5 JUMPI PUSH1 0x0 DUP6 SSTORE PUSH2 0x181C JUMP JUMPDEST DUP3 PUSH1 0x1F LT PUSH2 0x17EE JUMPI DUP1 MLOAD PUSH1 0xFF NOT AND DUP4 DUP1 ADD OR DUP6 SSTORE PUSH2 0x181C JUMP JUMPDEST DUP3 DUP1 ADD PUSH1 0x1 ADD DUP6 SSTORE DUP3 ISZERO PUSH2 0x181C JUMPI SWAP2 DUP3 ADD JUMPDEST DUP3 DUP2 GT ISZERO PUSH2 0x181B JUMPI DUP3 MLOAD DUP3 SSTORE SWAP2 PUSH1 0x20 ADD SWAP2 SWAP1 PUSH1 0x1 ADD SWAP1 PUSH2 0x1800 JUMP JUMPDEST JUMPDEST POP SWAP1 POP PUSH2 0x1829 SWAP2 SWAP1 PUSH2 0x18FA JUMP JUMPDEST POP SWAP1 JUMP JUMPDEST POP DUP1 SLOAD PUSH2 0x1839 SWAP1 PUSH2 0x1FCF JUMP JUMPDEST PUSH1 0x0 DUP3 SSTORE DUP1 PUSH1 0x1F LT PUSH2 0x184B JUMPI POP PUSH2 0x186A JUMP JUMPDEST PUSH1 0x1F ADD PUSH1 0x20 SWAP1 DIV SWAP1 PUSH1 0x0 MSTORE PUSH1 0x20 PUSH1 0x0 KECCAK256 SWAP1 DUP2 ADD SWAP1 PUSH2 0x1869 SWAP2 SWAP1 PUSH2 0x18FA JUMP JUMPDEST JUMPDEST POP JUMP JUMPDEST DUP3 DUP1 SLOAD PUSH2 0x1879 SWAP1 PUSH2 0x1FCF JUMP JUMPDEST SWAP1 PUSH1 0x0 MSTORE PUSH1 0x20 PUSH1 0x0 KECCAK256 SWAP1 PUSH1 0x1F ADD PUSH1 0x20 SWAP1 DIV DUP2 ADD SWAP3 DUP3 PUSH2 0x189B JUMPI PUSH1 0x0 DUP6 SSTORE PUSH2 0x18E9 JUMP JUMPDEST DUP3 PUSH1 0x1F LT PUSH2 0x18AC JUMPI DUP1 SLOAD DUP6 SSTORE PUSH2 0x18E9 JUMP JUMPDEST DUP3 DUP1 ADD PUSH1 0x1 ADD DUP6 SSTORE DUP3 ISZERO PUSH2 0x18E9 JUMPI PUSH1 0x0 MSTORE PUSH1 0x20 PUSH1 0x0 KECCAK256 SWAP2 PUSH1 0x1F ADD PUSH1 0x20 SWAP1 DIV DUP3 ADD JUMPDEST DUP3 DUP2 GT ISZERO PUSH2 0x18E8 JUMPI DUP3 SLOAD DUP3 SSTORE SWAP2 PUSH1 0x1 ADD SWAP2 SWAP1 PUSH1 0x1 ADD SWAP1 PUSH2 0x18CD JUMP JUMPDEST JUMPDEST POP SWAP1 POP PUSH2 0x18F6 SWAP2 SWAP1 PUSH2 0x18FA JUMP JUMPDEST POP SWAP1 JUMP JUMPDEST JUMPDEST DUP1 DUP3 GT ISZERO PUSH2 0x1913 JUMPI PUSH1 0x0 DUP2 PUSH1 0x0 SWAP1 SSTORE POP PUSH1 0x1 ADD PUSH2 0x18FB JUMP JUMPDEST POP SWAP1 JUMP JUMPDEST PUSH1 0x0 PUSH2 0x192A PUSH2 0x1925 DUP5 PUSH2 0x1E30 JUMP JUMPDEST PUSH2 0x1E0B JUMP JUMPDEST SWAP1 POP DUP3 DUP2 MSTORE PUSH1 0x20 DUP2 ADD DUP5 DUP5 DUP5 ADD GT ISZERO PUSH2 0x1946 JUMPI PUSH2 0x1945 PUSH2 0x216B JUMP JUMPDEST JUMPDEST PUSH2 0x1951 DUP5 DUP3 DUP6 PUSH2 0x1F8D JUMP JUMPDEST POP SWAP4 SWAP3 POP POP POP JUMP JUMPDEST PUSH1 0x0 DUP2 CALLDATALOAD SWAP1 POP PUSH2 0x1968 DUP2 PUSH2 0x218B JUMP JUMPDEST SWAP3 SWAP2 POP POP JUMP JUMPDEST PUSH1 0x0 DUP3 PUSH1 0x1F DUP4 ADD SLT PUSH2 0x1983 JUMPI PUSH2 0x1982 PUSH2 0x2166 JUMP JUMPDEST JUMPDEST DUP2 CALLDATALOAD PUSH2 0x1993 DUP5 DUP3 PUSH1 0x20 DUP7 ADD PUSH2 0x1917 JUMP JUMPDEST SWAP2 POP POP SWAP3 SWAP2 POP POP JUMP JUMPDEST PUSH1 0x0 DUP2 CALLDATALOAD SWAP1 POP PUSH2 0x19AB DUP2 PUSH2 0x21A2 JUMP JUMPDEST SWAP3 SWAP2 POP POP JUMP JUMPDEST PUSH1 0x0 PUSH1 0x20 DUP3 DUP5 SUB SLT ISZERO PUSH2 0x19C7 JUMPI PUSH2 0x19C6 PUSH2 0x2175 JUMP JUMPDEST JUMPDEST PUSH1 0x0 PUSH2 0x19D5 DUP5 DUP3 DUP6 ADD PUSH2 0x1959 JUMP JUMPDEST SWAP2 POP POP SWAP3 SWAP2 POP POP JUMP JUMPDEST PUSH1 0x0 DUP1 PUSH1 0x0 PUSH1 0x60 DUP5 DUP7 SUB SLT ISZERO PUSH2 0x19F7 JUMPI PUSH2 0x19F6 PUSH2 0x2175 JUMP JUMPDEST JUMPDEST PUSH1 0x0 DUP5 ADD CALLDATALOAD PUSH8 0xFFFFFFFFFFFFFFFF DUP2 GT ISZERO PUSH2 0x1A15 JUMPI PUSH2 0x1A14 PUSH2 0x2170 JUMP JUMPDEST JUMPDEST PUSH2 0x1A21 DUP7 DUP3 DUP8 ADD PUSH2 0x196E JUMP JUMPDEST SWAP4 POP POP PUSH1 0x20 PUSH2 0x1A32 DUP7 DUP3 DUP8 ADD PUSH2 0x1959 JUMP JUMPDEST SWAP3 POP POP PUSH1 0x40 DUP5 ADD CALLDATALOAD PUSH8 0xFFFFFFFFFFFFFFFF DUP2 GT ISZERO PUSH2 0x1A53 JUMPI PUSH2 0x1A52 PUSH2 0x2170 JUMP JUMPDEST JUMPDEST PUSH2 0x1A5F DUP7 DUP3 DUP8 ADD PUSH2 0x196E JUMP JUMPDEST SWAP2 POP POP SWAP3 POP SWAP3 POP SWAP3 JUMP JUMPDEST PUSH1 0x0 PUSH1 0x20 DUP3 DUP5 SUB SLT ISZERO PUSH2 0x1A7F JUMPI PUSH2 0x1A7E PUSH2 0x2175 JUMP JUMPDEST JUMPDEST PUSH1 0x0 PUSH2 0x1A8D DUP5 DUP3 DUP6 ADD PUSH2 0x199C JUMP JUMPDEST SWAP2 POP POP SWAP3 SWAP2 POP POP JUMP JUMPDEST PUSH1 0x0 DUP1 PUSH1 0x40 DUP4 DUP6 SUB SLT ISZERO PUSH2 0x1AAD JUMPI PUSH2 0x1AAC PUSH2 0x2175 JUMP JUMPDEST JUMPDEST PUSH1 0x0 PUSH2 0x1ABB DUP6 DUP3 DUP7 ADD PUSH2 0x199C JUMP JUMPDEST SWAP3 POP POP PUSH1 0x20 DUP4 ADD CALLDATALOAD PUSH8 0xFFFFFFFFFFFFFFFF DUP2 GT ISZERO PUSH2 0x1ADC JUMPI PUSH2 0x1ADB PUSH2 0x2170 JUMP JUMPDEST JUMPDEST PUSH2 0x1AE8 DUP6 DUP3 DUP7 ADD PUSH2 0x196E JUMP JUMPDEST SWAP2 POP POP SWAP3 POP SWAP3 SWAP1 POP JUMP JUMPDEST PUSH1 0x0 DUP1 PUSH1 0x0 PUSH1 0x60 DUP5 DUP7 SUB SLT ISZERO PUSH2 0x1B0B JUMPI PUSH2 0x1B0A PUSH2 0x2175 JUMP JUMPDEST JUMPDEST PUSH1 0x0 PUSH2 0x1B19 DUP7 DUP3 DUP8 ADD PUSH2 0x199C JUMP JUMPDEST SWAP4 POP POP PUSH1 0x20 DUP5 ADD CALLDATALOAD PUSH8 0xFFFFFFFFFFFFFFFF DUP2 GT ISZERO PUSH2 0x1B3A JUMPI PUSH2 0x1B39 PUSH2 0x2170 JUMP JUMPDEST JUMPDEST PUSH2 0x1B46 DUP7 DUP3 DUP8 ADD PUSH2 0x196E JUMP JUMPDEST SWAP3 POP POP PUSH1 0x40 PUSH2 0x1B57 DUP7 DUP3 DUP8 ADD PUSH2 0x1959 JUMP JUMPDEST SWAP2 POP POP SWAP3 POP SWAP3 POP SWAP3 JUMP JUMPDEST PUSH1 0x0 PUSH2 0x1B6D DUP4 DUP4 PUSH2 0x1C7A JUMP JUMPDEST SWAP1 POP SWAP3 SWAP2 POP POP JUMP JUMPDEST PUSH2 0x1B7E DUP2 PUSH2 0x1F51 JUMP JUMPDEST DUP3 MSTORE POP POP JUMP JUMPDEST PUSH2 0x1B8D DUP2 PUSH2 0x1F51 JUMP JUMPDEST DUP3 MSTORE POP POP JUMP JUMPDEST PUSH1 0x0 PUSH2 0x1B9E DUP3 PUSH2 0x1E71 JUMP JUMPDEST PUSH2 0x1BA8 DUP2 DUP6 PUSH2 0x1E94 JUMP JUMPDEST SWAP4 POP DUP4 PUSH1 0x20 DUP3 MUL DUP6 ADD PUSH2 0x1BBA DUP6 PUSH2 0x1E61 JUMP JUMPDEST DUP1 PUSH1 0x0 JUMPDEST DUP6 DUP2 LT ISZERO PUSH2 0x1BF6 JUMPI DUP5 DUP5 SUB DUP10 MSTORE DUP2 MLOAD PUSH2 0x1BD7 DUP6 DUP3 PUSH2 0x1B61 JUMP JUMPDEST SWAP5 POP PUSH2 0x1BE2 DUP4 PUSH2 0x1E87 JUMP JUMPDEST SWAP3 POP PUSH1 0x20 DUP11 ADD SWAP10 POP POP PUSH1 0x1 DUP2 ADD SWAP1 POP PUSH2 0x1BBE JUMP JUMPDEST POP DUP3 SWAP8 POP DUP8 SWAP6 POP POP POP POP POP POP SWAP3 SWAP2 POP POP JUMP JUMPDEST PUSH1 0x0 PUSH2 0x1C13 DUP3 PUSH2 0x1E7C JUMP JUMPDEST PUSH2 0x1C1D DUP2 DUP6 PUSH2 0x1EA5 JUMP JUMPDEST SWAP4 POP PUSH2 0x1C2D DUP2 DUP6 PUSH1 0x20 DUP7 ADD PUSH2 0x1F9C JUMP JUMPDEST PUSH2 0x1C36 DUP2 PUSH2 0x217A JUMP JUMPDEST DUP5 ADD SWAP2 POP POP SWAP3 SWAP2 POP POP JUMP JUMPDEST PUSH1 0x0 PUSH2 0x1C4C DUP3 PUSH2 0x1E7C JUMP JUMPDEST PUSH2 0x1C56 DUP2 DUP6 PUSH2 0x1EB6 JUMP JUMPDEST SWAP4 POP PUSH2 0x1C66 DUP2 DUP6 PUSH1 0x20 DUP7 ADD PUSH2 0x1F9C JUMP JUMPDEST PUSH2 0x1C6F DUP2 PUSH2 0x217A JUMP JUMPDEST DUP5 ADD SWAP2 POP POP SWAP3 SWAP2 POP POP JUMP JUMPDEST PUSH1 0x0 PUSH2 0x100 DUP4 ADD PUSH1 0x0 DUP4 ADD MLOAD PUSH2 0x1C93 PUSH1 0x0 DUP7 ADD DUP3 PUSH2 0x1D38 JUMP JUMPDEST POP PUSH1 0x20 DUP4 ADD MLOAD DUP5 DUP3 SUB PUSH1 0x20 DUP7 ADD MSTORE PUSH2 0x1CAB DUP3 DUP3 PUSH2 0x1C08 JUMP JUMPDEST SWAP2 POP POP PUSH1 0x40 DUP4 ADD MLOAD PUSH2 0x1CC0 PUSH1 0x40 DUP7 ADD DUP3 PUSH2 0x1D38 JUMP JUMPDEST POP PUSH1 0x60 DUP4 ADD MLOAD PUSH2 0x1CD3 PUSH1 0x60 DUP7 ADD DUP3 PUSH2 0x1B75 JUMP JUMPDEST POP PUSH1 0x80 DUP4 ADD MLOAD PUSH2 0x1CE6 PUSH1 0x80 DUP7 ADD DUP3 PUSH2 0x1B75 JUMP JUMPDEST POP PUSH1 0xA0 DUP4 ADD MLOAD PUSH2 0x1CF9 PUSH1 0xA0 DUP7 ADD DUP3 PUSH2 0x1D38 JUMP JUMPDEST POP PUSH1 0xC0 DUP4 ADD MLOAD DUP5 DUP3 SUB PUSH1 0xC0 DUP7 ADD MSTORE PUSH2 0x1D11 DUP3 DUP3 PUSH2 0x1C08 JUMP JUMPDEST SWAP2 POP POP PUSH1 0xE0 DUP4 ADD MLOAD DUP5 DUP3 SUB PUSH1 0xE0 DUP7 ADD MSTORE PUSH2 0x1D2B DUP3 DUP3 PUSH2 0x1C08 JUMP JUMPDEST SWAP2 POP POP DUP1 SWAP2 POP POP SWAP3 SWAP2 POP POP JUMP JUMPDEST PUSH2 0x1D41 DUP2 PUSH2 0x1F83 JUMP JUMPDEST DUP3 MSTORE POP POP JUMP JUMPDEST PUSH2 0x1D50 DUP2 PUSH2 0x1F83 JUMP JUMPDEST DUP3 MSTORE POP POP JUMP JUMPDEST PUSH1 0x0 PUSH1 0x20 DUP3 ADD SWAP1 POP DUP2 DUP2 SUB PUSH1 0x0 DUP4 ADD MSTORE PUSH2 0x1D70 DUP2 DUP5 PUSH2 0x1B93 JUMP JUMPDEST SWAP1 POP SWAP3 SWAP2 POP POP JUMP JUMPDEST PUSH1 0x0 PUSH2 0x100 DUP3 ADD SWAP1 POP PUSH2 0x1D8E PUSH1 0x0 DUP4 ADD DUP12 PUSH2 0x1D47 JUMP JUMPDEST DUP2 DUP2 SUB PUSH1 0x20 DUP4 ADD MSTORE PUSH2 0x1DA0 DUP2 DUP11 PUSH2 0x1C41 JUMP JUMPDEST SWAP1 POP PUSH2 0x1DAF PUSH1 0x40 DUP4 ADD DUP10 PUSH2 0x1D47 JUMP JUMPDEST PUSH2 0x1DBC PUSH1 0x60 DUP4 ADD DUP9 PUSH2 0x1B84 JUMP JUMPDEST PUSH2 0x1DC9 PUSH1 0x80 DUP4 ADD DUP8 PUSH2 0x1B84 JUMP JUMPDEST PUSH2 0x1DD6 PUSH1 0xA0 DUP4 ADD DUP7 PUSH2 0x1D47 JUMP JUMPDEST DUP2 DUP2 SUB PUSH1 0xC0 DUP4 ADD MSTORE PUSH2 0x1DE8 DUP2 DUP6 PUSH2 0x1C41 JUMP JUMPDEST SWAP1 POP DUP2 DUP2 SUB PUSH1 0xE0 DUP4 ADD MSTORE PUSH2 0x1DFC DUP2 DUP5 PUSH2 0x1C41 JUMP JUMPDEST SWAP1 POP SWAP10 SWAP9 POP POP POP POP POP POP POP POP POP JUMP JUMPDEST PUSH1 0x0 PUSH2 0x1E15 PUSH2 0x1E26 JUMP JUMPDEST SWAP1 POP PUSH2 0x1E21 DUP3 DUP3 PUSH2 0x2001 JUMP JUMPDEST SWAP2 SWAP1 POP JUMP JUMPDEST PUSH1 0x0 PUSH1 0x40 MLOAD SWAP1 POP SWAP1 JUMP JUMPDEST PUSH1 0x0 PUSH8 0xFFFFFFFFFFFFFFFF DUP3 GT ISZERO PUSH2 0x1E4B JUMPI PUSH2 0x1E4A PUSH2 0x2137 JUMP JUMPDEST JUMPDEST PUSH2 0x1E54 DUP3 PUSH2 0x217A JUMP JUMPDEST SWAP1 POP PUSH1 0x20 DUP2 ADD SWAP1 POP SWAP2 SWAP1 POP JUMP JUMPDEST PUSH1 0x0 DUP2 SWAP1 POP PUSH1 0x20 DUP3 ADD SWAP1 POP SWAP2 SWAP1 POP JUMP JUMPDEST PUSH1 0x0 DUP2 MLOAD SWAP1 POP SWAP2 SWAP1 POP JUMP JUMPDEST PUSH1 0x0 DUP2 MLOAD SWAP1 POP SWAP2 SWAP1 POP JUMP JUMPDEST PUSH1 0x0 PUSH1 0x20 DUP3 ADD SWAP1 POP SWAP2 SWAP1 POP JUMP JUMPDEST PUSH1 0x0 DUP3 DUP3 MSTORE PUSH1 0x20 DUP3 ADD SWAP1 POP SWAP3 SWAP2 POP POP JUMP JUMPDEST PUSH1 0x0 DUP3 DUP3 MSTORE PUSH1 0x20 DUP3 ADD SWAP1 POP SWAP3 SWAP2 POP POP JUMP JUMPDEST PUSH1 0x0 DUP3 DUP3 MSTORE PUSH1 0x20 DUP3 ADD SWAP1 POP SWAP3 SWAP2 POP POP JUMP JUMPDEST PUSH1 0x0 PUSH2 0x1ED2 DUP3 PUSH2 0x1F83 JUMP JUMPDEST SWAP2 POP PUSH2 0x1EDD DUP4 PUSH2 0x1F83 JUMP JUMPDEST SWAP3 POP DUP3 PUSH32 0xFFFFFFFFFFFFFFFFFFFFFFFFFFFFFFFFFFFFFFFFFFFFFFFFFFFFFFFFFFFFFFFF SUB DUP3 GT ISZERO PUSH2 0x1F12 JUMPI PUSH2 0x1F11 PUSH2 0x207B JUMP JUMPDEST JUMPDEST DUP3 DUP3 ADD SWAP1 POP SWAP3 SWAP2 POP POP JUMP JUMPDEST PUSH1 0x0 PUSH2 0x1F28 DUP3 PUSH2 0x1F83 JUMP JUMPDEST SWAP2 POP PUSH2 0x1F33 DUP4 PUSH2 0x1F83 JUMP JUMPDEST SWAP3 POP DUP3 DUP3 LT ISZERO PUSH2 0x1F46 JUMPI PUSH2 0x1F45 PUSH2 0x207B JUMP JUMPDEST JUMPDEST DUP3 DUP3 SUB SWAP1 POP SWAP3 SWAP2 POP POP JUMP JUMPDEST PUSH1 0x0 PUSH2 0x1F5C DUP3 PUSH2 0x1F63 JUMP JUMPDEST SWAP1 POP SWAP2 SWAP1 POP JUMP JUMPDEST PUSH1 0x0 PUSH20 0xFFFFFFFFFFFFFFFFFFFFFFFFFFFFFFFFFFFFFFFF DUP3 AND SWAP1 POP SWAP2 SWAP1 POP JUMP JUMPDEST PUSH1 0x0 DUP2 SWAP1 POP SWAP2 SWAP1 POP JUMP JUMPDEST DUP3 DUP2 DUP4 CALLDATACOPY PUSH1 0x0 DUP4 DUP4 ADD MSTORE POP POP POP JUMP JUMPDEST PUSH1 0x0 JUMPDEST DUP4 DUP2 LT ISZERO PUSH2 0x1FBA JUMPI DUP1 DUP3 ADD MLOAD DUP2 DUP5 ADD MSTORE PUSH1 0x20 DUP2 ADD SWAP1 POP PUSH2 0x1F9F JUMP JUMPDEST DUP4 DUP2 GT ISZERO PUSH2 0x1FC9 JUMPI PUSH1 0x0 DUP5 DUP5 ADD MSTORE JUMPDEST POP POP POP POP JUMP JUMPDEST PUSH1 0x0 PUSH1 0x2 DUP3 DIV SWAP1 POP PUSH1 0x1 DUP3 AND DUP1 PUSH2 0x1FE7 JUMPI PUSH1 0x7F DUP3 AND SWAP2 POP JUMPDEST PUSH1 0x20 DUP3 LT DUP2 EQ ISZERO PUSH2 0x1FFB JUMPI PUSH2 0x1FFA PUSH2 0x20AA JUMP JUMPDEST JUMPDEST POP SWAP2 SWAP1 POP JUMP JUMPDEST PUSH2 0x200A DUP3 PUSH2 0x217A JUMP JUMPDEST DUP2 ADD DUP2 DUP2 LT PUSH8 0xFFFFFFFFFFFFFFFF DUP3 GT OR ISZERO PUSH2 0x2029 JUMPI PUSH2 0x2028 PUSH2 0x2137 JUMP JUMPDEST JUMPDEST DUP1 PUSH1 0x40 MSTORE POP POP POP JUMP JUMPDEST PUSH1 0x0 PUSH2 0x203D DUP3 PUSH2 0x1F83 JUMP JUMPDEST SWAP2 POP PUSH32 0xFFFFFFFFFFFFFFFFFFFFFFFFFFFFFFFFFFFFFFFFFFFFFFFFFFFFFFFFFFFFFFFF DUP3 EQ ISZERO PUSH2 0x2070 JUMPI PUSH2 0x206F PUSH2 0x207B JUMP JUMPDEST JUMPDEST PUSH1 0x1 DUP3 ADD SWAP1 POP SWAP2 SWAP1 POP JUMP JUMPDEST PUSH32 0x4E487B7100000000000000000000000000000000000000000000000000000000 PUSH1 0x0 MSTORE PUSH1 0x11 PUSH1 0x4 MSTORE PUSH1 0x24 PUSH1 0x0 REVERT JUMPDEST PUSH32 0x4E487B7100000000000000000000000000000000000000000000000000000000 PUSH1 0x0 MSTORE PUSH1 0x22 PUSH1 0x4 MSTORE PUSH1 0x24 PUSH1 0x0 REVERT JUMPDEST PUSH32 0x4E487B7100000000000000000000000000000000000000000000000000000000 PUSH1 0x0 MSTORE PUSH1 0x31 PUSH1 0x4 MSTORE PUSH1 0x24 PUSH1 0x0 REVERT JUMPDEST PUSH32 0x4E487B7100000000000000000000000000000000000000000000000000000000 PUSH1 0x0 MSTORE PUSH1 0x32 PUSH1 0x4 MSTORE PUSH1 0x24 PUSH1 0x0 REVERT JUMPDEST PUSH32 0x4E487B7100000000000000000000000000000000000000000000000000000000 PUSH1 0x0 MSTORE PUSH1 0x41 PUSH1 0x4 MSTORE PUSH1 0x24 PUSH1 0x0 REVERT JUMPDEST PUSH1 0x0 DUP1 REVERT JUMPDEST PUSH1 0x0 DUP1 REVERT JUMPDEST PUSH1 0x0 DUP1 REVERT JUMPDEST PUSH1 0x0 DUP1 REVERT JUMPDEST PUSH1 0x0 PUSH1 0x1F NOT PUSH1 0x1F DUP4 ADD AND SWAP1 POP SWAP2 SWAP1 POP JUMP JUMPDEST PUSH2 0x2194 DUP2 PUSH2 0x1F51 JUMP JUMPDEST DUP2 EQ PUSH2 0x219F JUMPI PUSH1 0x0 DUP1 REVERT JUMPDEST POP JUMP JUMPDEST PUSH2 0x21AB DUP2 PUSH2 0x1F83 JUMP JUMPDEST DUP2 EQ PUSH2 0x21B6 JUMPI PUSH1 0x0 DUP1 REVERT JUMPDEST POP JUMP INVALID LOG2 PUSH5 0x6970667358 0x22 SLT KECCAK256 0x1E 0x2C SUB 0xB6 0xE8 CALLCODE SLOAD CALLDATASIZE PUSH31 0xE0CBA7AF649CC85E0D112CED6F56EE2069DD4828A8680E64736F6C63430008 SMOD STOP CALLER "
				},
				"gasEstimates": {
					"creation": {
						"codeDepositCost": "1737400",
						"executionCost": "1827",
						"totalCost": "1739227"
					},
					"external": {
						"createCrowdfunding(string,address,string)": "infinite",
						"getCrowdfundingByStatus(uint256)": "infinite",
						"getMyCrowdfunding(address)": "infinite",
						"join(uint256,string,address)": "infinite",
						"list(uint256)": "infinite",
						"setStatus(uint256)": "infinite",
						"setTitle(uint256,string)": "infinite"
					}
				},
				"methodIdentifiers": {
					"createCrowdfunding(string,address,string)": "a97af4d5",
					"getCrowdfundingByStatus(uint256)": "904cc175",
					"getMyCrowdfunding(address)": "377e6ff7",
					"join(uint256,string,address)": "2d01cf03",
					"list(uint256)": "80c9419e",
					"setStatus(uint256)": "69ba1a75",
					"setTitle(uint256,string)": "5102bc9d"
				}
			},
			"storageLayout": {
				"storage": [
					{
						"astId": 3,
						"contract": "crowdfunding.sol:CrowdfundingContract",
						"label": "No",
						"offset": 0,
						"slot": "0",
						"type": "t_uint256"
					},
					{
						"astId": 24,
						"contract": "crowdfunding.sol:CrowdfundingContract",
						"label": "list",
						"offset": 0,
						"slot": "1",
						"type": "t_array(t_struct(Crowdfunding)20_storage)dyn_storage"
					},
					{
						"astId": 30,
						"contract": "crowdfunding.sol:CrowdfundingContract",
						"label": "filterDataByStatus",
						"offset": 0,
						"slot": "2",
						"type": "t_mapping(t_uint256,t_array(t_struct(Crowdfunding)20_storage)dyn_storage)"
					},
					{
						"astId": 36,
						"contract": "crowdfunding.sol:CrowdfundingContract",
						"label": "myCrowdfunding",
						"offset": 0,
						"slot": "3",
						"type": "t_mapping(t_address,t_array(t_struct(Crowdfunding)20_storage)dyn_storage)"
					},
					{
						"astId": 41,
						"contract": "crowdfunding.sol:CrowdfundingContract",
						"label": "calcJoinNum",
						"offset": 0,
						"slot": "4",
						"type": "t_mapping(t_uint256,t_array(t_address)dyn_storage)"
					}
				],
				"types": {
					"t_address": {
						"encoding": "inplace",
						"label": "address",
						"numberOfBytes": "20"
					},
					"t_array(t_address)dyn_storage": {
						"base": "t_address",
						"encoding": "dynamic_array",
						"label": "address[]",
						"numberOfBytes": "32"
					},
					"t_array(t_struct(Crowdfunding)20_storage)dyn_storage": {
						"base": "t_struct(Crowdfunding)20_storage",
						"encoding": "dynamic_array",
						"label": "struct CrowdfundingContract.Crowdfunding[]",
						"numberOfBytes": "32"
					},
					"t_mapping(t_address,t_array(t_struct(Crowdfunding)20_storage)dyn_storage)": {
						"encoding": "mapping",
						"key": "t_address",
						"label": "mapping(address => struct CrowdfundingContract.Crowdfunding[])",
						"numberOfBytes": "32",
						"value": "t_array(t_struct(Crowdfunding)20_storage)dyn_storage"
					},
					"t_mapping(t_uint256,t_array(t_address)dyn_storage)": {
						"encoding": "mapping",
						"key": "t_uint256",
						"label": "mapping(uint256 => address[])",
						"numberOfBytes": "32",
						"value": "t_array(t_address)dyn_storage"
					},
					"t_mapping(t_uint256,t_array(t_struct(Crowdfunding)20_storage)dyn_storage)": {
						"encoding": "mapping",
						"key": "t_uint256",
						"label": "mapping(uint256 => struct CrowdfundingContract.Crowdfunding[])",
						"numberOfBytes": "32",
						"value": "t_array(t_struct(Crowdfunding)20_storage)dyn_storage"
					},
					"t_string_storage": {
						"encoding": "bytes",
						"label": "string",
						"numberOfBytes": "32"
					},
					"t_struct(Crowdfunding)20_storage": {
						"encoding": "inplace",
						"label": "struct CrowdfundingContract.Crowdfunding",
						"members": [
							{
								"astId": 5,
								"contract": "crowdfunding.sol:CrowdfundingContract",
								"label": "num",
								"offset": 0,
								"slot": "0",
								"type": "t_uint256"
							},
							{
								"astId": 7,
								"contract": "crowdfunding.sol:CrowdfundingContract",
								"label": "title",
								"offset": 0,
								"slot": "1",
								"type": "t_string_storage"
							},
							{
								"astId": 9,
								"contract": "crowdfunding.sol:CrowdfundingContract",
								"label": "status",
								"offset": 0,
								"slot": "2",
								"type": "t_uint256"
							},
							{
								"astId": 11,
								"contract": "crowdfunding.sol:CrowdfundingContract",
								"label": "creator",
								"offset": 0,
								"slot": "3",
								"type": "t_address"
							},
							{
								"astId": 13,
								"contract": "crowdfunding.sol:CrowdfundingContract",
								"label": "recipient",
								"offset": 0,
								"slot": "4",
								"type": "t_address"
							},
							{
								"astId": 15,
								"contract": "crowdfunding.sol:CrowdfundingContract",
								"label": "joinNum",
								"offset": 0,
								"slot": "5",
								"type": "t_uint256"
							},
							{
								"astId": 17,
								"contract": "crowdfunding.sol:CrowdfundingContract",
								"label": "expectAmout",
								"offset": 0,
								"slot": "6",
								"type": "t_string_storage"
							},
							{
								"astId": 19,
								"contract": "crowdfunding.sol:CrowdfundingContract",
								"label": "actualAmount",
								"offset": 0,
								"slot": "7",
								"type": "t_string_storage"
							}
						],
						"numberOfBytes": "256"
					},
					"t_uint256": {
						"encoding": "inplace",
						"label": "uint256",
						"numberOfBytes": "32"
					}
				}
			},
			"userdoc": {
				"kind": "user",
				"methods": {},
				"version": 1
			}
		}
	}
}