{
	"delegatecall.sol": {
		"Data": {
			"abi": [
				{
					"inputs": [
						{
							"internalType": "address",
							"name": "_contract",
							"type": "address"
						},
						{
							"internalType": "string",
							"name": "_method",
							"type": "string"
						}
					],
					"name": "f1",
					"outputs": [],
					"stateMutability": "nonpayable",
					"type": "function"
				},
				{
					"inputs": [],
					"name": "getSupply",
					"outputs": [
						{
							"internalType": "uint256",
							"name": "",
							"type": "uint256"
						}
					],
					"stateMutability": "view",
					"type": "function"
				},
				{
					"inputs": [
						{
							"internalType": "uint256",
							"name": "_amount",
							"type": "uint256"
						}
					],
					"name": "setSupply",
					"outputs": [],
					"stateMutability": "nonpayable",
					"type": "function"
				}
			],
			"devdoc": {
				"kind": "dev",
				"methods": {},
				"version": 1
			},
			"evm": {
				"assembly": "    /* \"delegatecall.sol\":63:521  contract Data {... */\n  mstore(0x40, 0x80)\n  callvalue\n  dup1\n  iszero\n  tag_1\n  jumpi\n  0x00\n  dup1\n  revert\ntag_1:\n  pop\n  dataSize(sub_0)\n  dup1\n  dataOffset(sub_0)\n  0x00\n  codecopy\n  0x00\n  return\nstop\n\nsub_0: assembly {\n        /* \"delegatecall.sol\":63:521  contract Data {... */\n      mstore(0x40, 0x80)\n      callvalue\n      dup1\n      iszero\n      tag_1\n      jumpi\n      0x00\n      dup1\n      revert\n    tag_1:\n      pop\n      jumpi(tag_2, lt(calldatasize, 0x04))\n      shr(0xe0, calldataload(0x00))\n      dup1\n      0x3b4c4b25\n      eq\n      tag_3\n      jumpi\n      dup1\n      0x6c9c2faf\n      eq\n      tag_4\n      jumpi\n      dup1\n      0xc869ed42\n      eq\n      tag_5\n      jumpi\n    tag_2:\n      0x00\n      dup1\n      revert\n        /* \"delegatecall.sol\":192:267  function setSupply(uint _amount) public {... */\n    tag_3:\n      tag_6\n      0x04\n      dup1\n      calldatasize\n      sub\n      dup2\n      add\n      swap1\n      tag_7\n      swap2\n      swap1\n      tag_8\n      jump\t// in\n    tag_7:\n      tag_9\n      jump\t// in\n    tag_6:\n      stop\n        /* \"delegatecall.sol\":104:184  function getSupply() public view returns (uint) {... */\n    tag_4:\n      tag_10\n      tag_11\n      jump\t// in\n    tag_10:\n      mload(0x40)\n      tag_12\n      swap2\n      swap1\n      tag_13\n      jump\t// in\n    tag_12:\n      mload(0x40)\n      dup1\n      swap2\n      sub\n      swap1\n      return\n        /* \"delegatecall.sol\":274:518  function f1(address _contract,string memory _method) public {... */\n    tag_5:\n      tag_14\n      0x04\n      dup1\n      calldatasize\n      sub\n      dup2\n      add\n      swap1\n      tag_15\n      swap2\n      swap1\n      tag_16\n      jump\t// in\n    tag_15:\n      tag_17\n      jump\t// in\n    tag_14:\n      stop\n        /* \"delegatecall.sol\":192:267  function setSupply(uint _amount) public {... */\n    tag_9:\n        /* \"delegatecall.sol\":252:259  _amount */\n      dup1\n        /* \"delegatecall.sol\":243:249  supply */\n      0x00\n        /* \"delegatecall.sol\":243:259  supply = _amount */\n      dup2\n      swap1\n      sstore\n      pop\n        /* \"delegatecall.sol\":192:267  function setSupply(uint _amount) public {... */\n      pop\n      jump\t// out\n        /* \"delegatecall.sol\":104:184  function getSupply() public view returns (uint) {... */\n    tag_11:\n        /* \"delegatecall.sol\":146:150  uint */\n      0x00\n        /* \"delegatecall.sol\":170:176  supply */\n      dup1\n      sload\n        /* \"delegatecall.sol\":163:176  return supply */\n      swap1\n      pop\n        /* \"delegatecall.sol\":104:184  function getSupply() public view returns (uint) {... */\n      swap1\n      jump\t// out\n        /* \"delegatecall.sol\":274:518  function f1(address _contract,string memory _method) public {... */\n    tag_17:\n        /* \"delegatecall.sol\":346:358  bool success */\n      0x00\n        /* \"delegatecall.sol\":359:376  bytes memory data */\n      dup1\n        /* \"delegatecall.sol\":380:389  _contract */\n      dup4\n        /* \"delegatecall.sol\":380:402  _contract.delegatecall */\n      0xffffffffffffffffffffffffffffffffffffffff\n      and\n        /* \"delegatecall.sol\":427:434  _method */\n      dup4\n        /* \"delegatecall.sol\":403:435  abi.encodeWithSignature(_method) */\n      add(0x24, mload(0x40))\n      mload(0x40)\n      0x20\n      dup2\n      dup4\n      sub\n      sub\n      dup2\n      mstore\n      swap1\n      0x40\n      mstore\n      swap1\n      mload(0x40)\n      tag_21\n      swap2\n      swap1\n      tag_22\n      jump\t// in\n    tag_21:\n      mload(0x40)\n      dup1\n      swap2\n      sub\n      swap1\n      keccak256\n      not(0xffffffffffffffffffffffffffffffffffffffffffffffffffffffff)\n      and\n      0x20\n      dup3\n      add\n      dup1\n      mload\n      0xffffffffffffffffffffffffffffffffffffffffffffffffffffffff\n      dup4\n      dup2\n      dup4\n      and\n      or\n      dup4\n      mstore\n      pop\n      pop\n      pop\n      pop\n        /* \"delegatecall.sol\":380:436  _contract.delegatecall(abi.encodeWithSignature(_method)) */\n      mload(0x40)\n      tag_23\n      swap2\n      swap1\n      tag_24\n      jump\t// in\n    tag_23:\n      0x00\n      mload(0x40)\n      dup1\n      dup4\n      sub\n      dup2\n      dup6\n      gas\n      delegatecall\n      swap2\n      pop\n      pop\n      returndatasize\n      dup1\n      0x00\n      dup2\n      eq\n      tag_27\n      jumpi\n      mload(0x40)\n      swap2\n      pop\n      and(add(returndatasize, 0x3f), not(0x1f))\n      dup3\n      add\n      0x40\n      mstore\n      returndatasize\n      dup3\n      mstore\n      returndatasize\n      0x00\n      0x20\n      dup5\n      add\n      returndatacopy\n      jump(tag_26)\n    tag_27:\n      0x60\n      swap2\n      pop\n    tag_26:\n      pop\n        /* \"delegatecall.sol\":345:436  (bool success,bytes memory data) = _contract.delegatecall(abi.encodeWithSignature(_method)) */\n      swap2\n      pop\n      swap2\n      pop\n        /* \"delegatecall.sol\":334:518  {... */\n      pop\n      pop\n        /* \"delegatecall.sol\":274:518  function f1(address _contract,string memory _method) public {... */\n      pop\n      pop\n      jump\t// out\n        /* \"#utility.yul\":7:82   */\n    tag_28:\n        /* \"#utility.yul\":40:46   */\n      0x00\n        /* \"#utility.yul\":73:75   */\n      0x40\n        /* \"#utility.yul\":67:76   */\n      mload\n        /* \"#utility.yul\":57:76   */\n      swap1\n      pop\n        /* \"#utility.yul\":7:82   */\n      swap1\n      jump\t// out\n        /* \"#utility.yul\":88:205   */\n    tag_29:\n        /* \"#utility.yul\":197:198   */\n      0x00\n        /* \"#utility.yul\":194:195   */\n      dup1\n        /* \"#utility.yul\":187:199   */\n      revert\n        /* \"#utility.yul\":211:328   */\n    tag_30:\n        /* \"#utility.yul\":320:321   */\n      0x00\n        /* \"#utility.yul\":317:318   */\n      dup1\n        /* \"#utility.yul\":310:322   */\n      revert\n        /* \"#utility.yul\":334:411   */\n    tag_31:\n        /* \"#utility.yul\":371:378   */\n      0x00\n        /* \"#utility.yul\":400:405   */\n      dup2\n        /* \"#utility.yul\":389:405   */\n      swap1\n      pop\n        /* \"#utility.yul\":334:411   */\n      swap2\n      swap1\n      pop\n      jump\t// out\n        /* \"#utility.yul\":417:539   */\n    tag_32:\n        /* \"#utility.yul\":490:514   */\n      tag_62\n        /* \"#utility.yul\":508:513   */\n      dup2\n        /* \"#utility.yul\":490:514   */\n      tag_31\n      jump\t// in\n    tag_62:\n        /* \"#utility.yul\":483:488   */\n      dup2\n        /* \"#utility.yul\":480:515   */\n      eq\n        /* \"#utility.yul\":470:533   */\n      tag_63\n      jumpi\n        /* \"#utility.yul\":529:530   */\n      0x00\n        /* \"#utility.yul\":526:527   */\n      dup1\n        /* \"#utility.yul\":519:531   */\n      revert\n        /* \"#utility.yul\":470:533   */\n    tag_63:\n        /* \"#utility.yul\":417:539   */\n      pop\n      jump\t// out\n        /* \"#utility.yul\":545:684   */\n    tag_33:\n        /* \"#utility.yul\":591:596   */\n      0x00\n        /* \"#utility.yul\":629:635   */\n      dup2\n        /* \"#utility.yul\":616:636   */\n      calldataload\n        /* \"#utility.yul\":607:636   */\n      swap1\n      pop\n        /* \"#utility.yul\":645:678   */\n      tag_65\n        /* \"#utility.yul\":672:677   */\n      dup2\n        /* \"#utility.yul\":645:678   */\n      tag_32\n      jump\t// in\n    tag_65:\n        /* \"#utility.yul\":545:684   */\n      swap3\n      swap2\n      pop\n      pop\n      jump\t// out\n        /* \"#utility.yul\":690:1019   */\n    tag_8:\n        /* \"#utility.yul\":749:755   */\n      0x00\n        /* \"#utility.yul\":798:800   */\n      0x20\n        /* \"#utility.yul\":786:795   */\n      dup3\n        /* \"#utility.yul\":777:784   */\n      dup5\n        /* \"#utility.yul\":773:796   */\n      sub\n        /* \"#utility.yul\":769:801   */\n      slt\n        /* \"#utility.yul\":766:885   */\n      iszero\n      tag_67\n      jumpi\n        /* \"#utility.yul\":804:883   */\n      tag_68\n      tag_29\n      jump\t// in\n    tag_68:\n        /* \"#utility.yul\":766:885   */\n    tag_67:\n        /* \"#utility.yul\":924:925   */\n      0x00\n        /* \"#utility.yul\":949:1002   */\n      tag_69\n        /* \"#utility.yul\":994:1001   */\n      dup5\n        /* \"#utility.yul\":985:991   */\n      dup3\n        /* \"#utility.yul\":974:983   */\n      dup6\n        /* \"#utility.yul\":970:992   */\n      add\n        /* \"#utility.yul\":949:1002   */\n      tag_33\n      jump\t// in\n    tag_69:\n        /* \"#utility.yul\":939:1002   */\n      swap2\n      pop\n        /* \"#utility.yul\":895:1012   */\n      pop\n        /* \"#utility.yul\":690:1019   */\n      swap3\n      swap2\n      pop\n      pop\n      jump\t// out\n        /* \"#utility.yul\":1025:1143   */\n    tag_34:\n        /* \"#utility.yul\":1112:1136   */\n      tag_71\n        /* \"#utility.yul\":1130:1135   */\n      dup2\n        /* \"#utility.yul\":1112:1136   */\n      tag_31\n      jump\t// in\n    tag_71:\n        /* \"#utility.yul\":1107:1110   */\n      dup3\n        /* \"#utility.yul\":1100:1137   */\n      mstore\n        /* \"#utility.yul\":1025:1143   */\n      pop\n      pop\n      jump\t// out\n        /* \"#utility.yul\":1149:1371   */\n    tag_13:\n        /* \"#utility.yul\":1242:1246   */\n      0x00\n        /* \"#utility.yul\":1280:1282   */\n      0x20\n        /* \"#utility.yul\":1269:1278   */\n      dup3\n        /* \"#utility.yul\":1265:1283   */\n      add\n        /* \"#utility.yul\":1257:1283   */\n      swap1\n      pop\n        /* \"#utility.yul\":1293:1364   */\n      tag_73\n        /* \"#utility.yul\":1361:1362   */\n      0x00\n        /* \"#utility.yul\":1350:1359   */\n      dup4\n        /* \"#utility.yul\":1346:1363   */\n      add\n        /* \"#utility.yul\":1337:1343   */\n      dup5\n        /* \"#utility.yul\":1293:1364   */\n      tag_34\n      jump\t// in\n    tag_73:\n        /* \"#utility.yul\":1149:1371   */\n      swap3\n      swap2\n      pop\n      pop\n      jump\t// out\n        /* \"#utility.yul\":1377:1503   */\n    tag_35:\n        /* \"#utility.yul\":1414:1421   */\n      0x00\n        /* \"#utility.yul\":1454:1496   */\n      0xffffffffffffffffffffffffffffffffffffffff\n        /* \"#utility.yul\":1447:1452   */\n      dup3\n        /* \"#utility.yul\":1443:1497   */\n      and\n        /* \"#utility.yul\":1432:1497   */\n      swap1\n      pop\n        /* \"#utility.yul\":1377:1503   */\n      swap2\n      swap1\n      pop\n      jump\t// out\n        /* \"#utility.yul\":1509:1605   */\n    tag_36:\n        /* \"#utility.yul\":1546:1553   */\n      0x00\n        /* \"#utility.yul\":1575:1599   */\n      tag_76\n        /* \"#utility.yul\":1593:1598   */\n      dup3\n        /* \"#utility.yul\":1575:1599   */\n      tag_35\n      jump\t// in\n    tag_76:\n        /* \"#utility.yul\":1564:1599   */\n      swap1\n      pop\n        /* \"#utility.yul\":1509:1605   */\n      swap2\n      swap1\n      pop\n      jump\t// out\n        /* \"#utility.yul\":1611:1733   */\n    tag_37:\n        /* \"#utility.yul\":1684:1708   */\n      tag_78\n        /* \"#utility.yul\":1702:1707   */\n      dup2\n        /* \"#utility.yul\":1684:1708   */\n      tag_36\n      jump\t// in\n    tag_78:\n        /* \"#utility.yul\":1677:1682   */\n      dup2\n        /* \"#utility.yul\":1674:1709   */\n      eq\n        /* \"#utility.yul\":1664:1727   */\n      tag_79\n      jumpi\n        /* \"#utility.yul\":1723:1724   */\n      0x00\n        /* \"#utility.yul\":1720:1721   */\n      dup1\n        /* \"#utility.yul\":1713:1725   */\n      revert\n        /* \"#utility.yul\":1664:1727   */\n    tag_79:\n        /* \"#utility.yul\":1611:1733   */\n      pop\n      jump\t// out\n        /* \"#utility.yul\":1739:1878   */\n    tag_38:\n        /* \"#utility.yul\":1785:1790   */\n      0x00\n        /* \"#utility.yul\":1823:1829   */\n      dup2\n        /* \"#utility.yul\":1810:1830   */\n      calldataload\n        /* \"#utility.yul\":1801:1830   */\n      swap1\n      pop\n        /* \"#utility.yul\":1839:1872   */\n      tag_81\n        /* \"#utility.yul\":1866:1871   */\n      dup2\n        /* \"#utility.yul\":1839:1872   */\n      tag_37\n      jump\t// in\n    tag_81:\n        /* \"#utility.yul\":1739:1878   */\n      swap3\n      swap2\n      pop\n      pop\n      jump\t// out\n        /* \"#utility.yul\":1884:2001   */\n    tag_39:\n        /* \"#utility.yul\":1993:1994   */\n      0x00\n        /* \"#utility.yul\":1990:1991   */\n      dup1\n        /* \"#utility.yul\":1983:1995   */\n      revert\n        /* \"#utility.yul\":2007:2124   */\n    tag_40:\n        /* \"#utility.yul\":2116:2117   */\n      0x00\n        /* \"#utility.yul\":2113:2114   */\n      dup1\n        /* \"#utility.yul\":2106:2118   */\n      revert\n        /* \"#utility.yul\":2130:2232   */\n    tag_41:\n        /* \"#utility.yul\":2171:2177   */\n      0x00\n        /* \"#utility.yul\":2222:2224   */\n      0x1f\n        /* \"#utility.yul\":2218:2225   */\n      not\n        /* \"#utility.yul\":2213:2215   */\n      0x1f\n        /* \"#utility.yul\":2206:2211   */\n      dup4\n        /* \"#utility.yul\":2202:2216   */\n      add\n        /* \"#utility.yul\":2198:2226   */\n      and\n        /* \"#utility.yul\":2188:2226   */\n      swap1\n      pop\n        /* \"#utility.yul\":2130:2232   */\n      swap2\n      swap1\n      pop\n      jump\t// out\n        /* \"#utility.yul\":2238:2418   */\n    tag_42:\n        /* \"#utility.yul\":2286:2363   */\n      0x4e487b7100000000000000000000000000000000000000000000000000000000\n        /* \"#utility.yul\":2283:2284   */\n      0x00\n        /* \"#utility.yul\":2276:2364   */\n      mstore\n        /* \"#utility.yul\":2383:2387   */\n      0x41\n        /* \"#utility.yul\":2380:2381   */\n      0x04\n        /* \"#utility.yul\":2373:2388   */\n      mstore\n        /* \"#utility.yul\":2407:2411   */\n      0x24\n        /* \"#utility.yul\":2404:2405   */\n      0x00\n        /* \"#utility.yul\":2397:2412   */\n      revert\n        /* \"#utility.yul\":2424:2705   */\n    tag_43:\n        /* \"#utility.yul\":2507:2534   */\n      tag_87\n        /* \"#utility.yul\":2529:2533   */\n      dup3\n        /* \"#utility.yul\":2507:2534   */\n      tag_41\n      jump\t// in\n    tag_87:\n        /* \"#utility.yul\":2499:2505   */\n      dup2\n        /* \"#utility.yul\":2495:2535   */\n      add\n        /* \"#utility.yul\":2637:2643   */\n      dup2\n        /* \"#utility.yul\":2625:2635   */\n      dup2\n        /* \"#utility.yul\":2622:2644   */\n      lt\n        /* \"#utility.yul\":2601:2619   */\n      0xffffffffffffffff\n        /* \"#utility.yul\":2589:2599   */\n      dup3\n        /* \"#utility.yul\":2586:2620   */\n      gt\n        /* \"#utility.yul\":2583:2645   */\n      or\n        /* \"#utility.yul\":2580:2668   */\n      iszero\n      tag_88\n      jumpi\n        /* \"#utility.yul\":2648:2666   */\n      tag_89\n      tag_42\n      jump\t// in\n    tag_89:\n        /* \"#utility.yul\":2580:2668   */\n    tag_88:\n        /* \"#utility.yul\":2688:2698   */\n      dup1\n        /* \"#utility.yul\":2684:2686   */\n      0x40\n        /* \"#utility.yul\":2677:2699   */\n      mstore\n        /* \"#utility.yul\":2467:2705   */\n      pop\n        /* \"#utility.yul\":2424:2705   */\n      pop\n      pop\n      jump\t// out\n        /* \"#utility.yul\":2711:2840   */\n    tag_44:\n        /* \"#utility.yul\":2745:2751   */\n      0x00\n        /* \"#utility.yul\":2772:2792   */\n      tag_91\n      tag_28\n      jump\t// in\n    tag_91:\n        /* \"#utility.yul\":2762:2792   */\n      swap1\n      pop\n        /* \"#utility.yul\":2801:2834   */\n      tag_92\n        /* \"#utility.yul\":2829:2833   */\n      dup3\n        /* \"#utility.yul\":2821:2827   */\n      dup3\n        /* \"#utility.yul\":2801:2834   */\n      tag_43\n      jump\t// in\n    tag_92:\n        /* \"#utility.yul\":2711:2840   */\n      swap2\n      swap1\n      pop\n      jump\t// out\n        /* \"#utility.yul\":2846:3154   */\n    tag_45:\n        /* \"#utility.yul\":2908:2912   */\n      0x00\n        /* \"#utility.yul\":2998:3016   */\n      0xffffffffffffffff\n        /* \"#utility.yul\":2990:2996   */\n      dup3\n        /* \"#utility.yul\":2987:3017   */\n      gt\n        /* \"#utility.yul\":2984:3040   */\n      iszero\n      tag_94\n      jumpi\n        /* \"#utility.yul\":3020:3038   */\n      tag_95\n      tag_42\n      jump\t// in\n    tag_95:\n        /* \"#utility.yul\":2984:3040   */\n    tag_94:\n        /* \"#utility.yul\":3058:3087   */\n      tag_96\n        /* \"#utility.yul\":3080:3086   */\n      dup3\n        /* \"#utility.yul\":3058:3087   */\n      tag_41\n      jump\t// in\n    tag_96:\n        /* \"#utility.yul\":3050:3087   */\n      swap1\n      pop\n        /* \"#utility.yul\":3142:3146   */\n      0x20\n        /* \"#utility.yul\":3136:3140   */\n      dup2\n        /* \"#utility.yul\":3132:3147   */\n      add\n        /* \"#utility.yul\":3124:3147   */\n      swap1\n      pop\n        /* \"#utility.yul\":2846:3154   */\n      swap2\n      swap1\n      pop\n      jump\t// out\n        /* \"#utility.yul\":3160:3306   */\n    tag_46:\n        /* \"#utility.yul\":3257:3263   */\n      dup3\n        /* \"#utility.yul\":3252:3255   */\n      dup2\n        /* \"#utility.yul\":3247:3250   */\n      dup4\n        /* \"#utility.yul\":3234:3264   */\n      calldatacopy\n        /* \"#utility.yul\":3298:3299   */\n      0x00\n        /* \"#utility.yul\":3289:3295   */\n      dup4\n        /* \"#utility.yul\":3284:3287   */\n      dup4\n        /* \"#utility.yul\":3280:3296   */\n      add\n        /* \"#utility.yul\":3273:3300   */\n      mstore\n        /* \"#utility.yul\":3160:3306   */\n      pop\n      pop\n      pop\n      jump\t// out\n        /* \"#utility.yul\":3312:3737   */\n    tag_47:\n        /* \"#utility.yul\":3390:3395   */\n      0x00\n        /* \"#utility.yul\":3415:3481   */\n      tag_99\n        /* \"#utility.yul\":3431:3480   */\n      tag_100\n        /* \"#utility.yul\":3473:3479   */\n      dup5\n        /* \"#utility.yul\":3431:3480   */\n      tag_45\n      jump\t// in\n    tag_100:\n        /* \"#utility.yul\":3415:3481   */\n      tag_44\n      jump\t// in\n    tag_99:\n        /* \"#utility.yul\":3406:3481   */\n      swap1\n      pop\n        /* \"#utility.yul\":3504:3510   */\n      dup3\n        /* \"#utility.yul\":3497:3502   */\n      dup2\n        /* \"#utility.yul\":3490:3511   */\n      mstore\n        /* \"#utility.yul\":3542:3546   */\n      0x20\n        /* \"#utility.yul\":3535:3540   */\n      dup2\n        /* \"#utility.yul\":3531:3547   */\n      add\n        /* \"#utility.yul\":3580:3583   */\n      dup5\n        /* \"#utility.yul\":3571:3577   */\n      dup5\n        /* \"#utility.yul\":3566:3569   */\n      dup5\n        /* \"#utility.yul\":3562:3578   */\n      add\n        /* \"#utility.yul\":3559:3584   */\n      gt\n        /* \"#utility.yul\":3556:3668   */\n      iszero\n      tag_101\n      jumpi\n        /* \"#utility.yul\":3587:3666   */\n      tag_102\n      tag_40\n      jump\t// in\n    tag_102:\n        /* \"#utility.yul\":3556:3668   */\n    tag_101:\n        /* \"#utility.yul\":3677:3731   */\n      tag_103\n        /* \"#utility.yul\":3724:3730   */\n      dup5\n        /* \"#utility.yul\":3719:3722   */\n      dup3\n        /* \"#utility.yul\":3714:3717   */\n      dup6\n        /* \"#utility.yul\":3677:3731   */\n      tag_46\n      jump\t// in\n    tag_103:\n        /* \"#utility.yul\":3396:3737   */\n      pop\n        /* \"#utility.yul\":3312:3737   */\n      swap4\n      swap3\n      pop\n      pop\n      pop\n      jump\t// out\n        /* \"#utility.yul\":3757:4097   */\n    tag_48:\n        /* \"#utility.yul\":3813:3818   */\n      0x00\n        /* \"#utility.yul\":3862:3865   */\n      dup3\n        /* \"#utility.yul\":3855:3859   */\n      0x1f\n        /* \"#utility.yul\":3847:3853   */\n      dup4\n        /* \"#utility.yul\":3843:3860   */\n      add\n        /* \"#utility.yul\":3839:3866   */\n      slt\n        /* \"#utility.yul\":3829:3951   */\n      tag_105\n      jumpi\n        /* \"#utility.yul\":3870:3949   */\n      tag_106\n      tag_39\n      jump\t// in\n    tag_106:\n        /* \"#utility.yul\":3829:3951   */\n    tag_105:\n        /* \"#utility.yul\":3987:3993   */\n      dup2\n        /* \"#utility.yul\":3974:3994   */\n      calldataload\n        /* \"#utility.yul\":4012:4091   */\n      tag_107\n        /* \"#utility.yul\":4087:4090   */\n      dup5\n        /* \"#utility.yul\":4079:4085   */\n      dup3\n        /* \"#utility.yul\":4072:4076   */\n      0x20\n        /* \"#utility.yul\":4064:4070   */\n      dup7\n        /* \"#utility.yul\":4060:4077   */\n      add\n        /* \"#utility.yul\":4012:4091   */\n      tag_47\n      jump\t// in\n    tag_107:\n        /* \"#utility.yul\":4003:4091   */\n      swap2\n      pop\n        /* \"#utility.yul\":3819:4097   */\n      pop\n        /* \"#utility.yul\":3757:4097   */\n      swap3\n      swap2\n      pop\n      pop\n      jump\t// out\n        /* \"#utility.yul\":4103:4757   */\n    tag_16:\n        /* \"#utility.yul\":4181:4187   */\n      0x00\n        /* \"#utility.yul\":4189:4195   */\n      dup1\n        /* \"#utility.yul\":4238:4240   */\n      0x40\n        /* \"#utility.yul\":4226:4235   */\n      dup4\n        /* \"#utility.yul\":4217:4224   */\n      dup6\n        /* \"#utility.yul\":4213:4236   */\n      sub\n        /* \"#utility.yul\":4209:4241   */\n      slt\n        /* \"#utility.yul\":4206:4325   */\n      iszero\n      tag_109\n      jumpi\n        /* \"#utility.yul\":4244:4323   */\n      tag_110\n      tag_29\n      jump\t// in\n    tag_110:\n        /* \"#utility.yul\":4206:4325   */\n    tag_109:\n        /* \"#utility.yul\":4364:4365   */\n      0x00\n        /* \"#utility.yul\":4389:4442   */\n      tag_111\n        /* \"#utility.yul\":4434:4441   */\n      dup6\n        /* \"#utility.yul\":4425:4431   */\n      dup3\n        /* \"#utility.yul\":4414:4423   */\n      dup7\n        /* \"#utility.yul\":4410:4432   */\n      add\n        /* \"#utility.yul\":4389:4442   */\n      tag_38\n      jump\t// in\n    tag_111:\n        /* \"#utility.yul\":4379:4442   */\n      swap3\n      pop\n        /* \"#utility.yul\":4335:4452   */\n      pop\n        /* \"#utility.yul\":4519:4521   */\n      0x20\n        /* \"#utility.yul\":4508:4517   */\n      dup4\n        /* \"#utility.yul\":4504:4522   */\n      add\n        /* \"#utility.yul\":4491:4523   */\n      calldataload\n        /* \"#utility.yul\":4550:4568   */\n      0xffffffffffffffff\n        /* \"#utility.yul\":4542:4548   */\n      dup2\n        /* \"#utility.yul\":4539:4569   */\n      gt\n        /* \"#utility.yul\":4536:4653   */\n      iszero\n      tag_112\n      jumpi\n        /* \"#utility.yul\":4572:4651   */\n      tag_113\n      tag_30\n      jump\t// in\n    tag_113:\n        /* \"#utility.yul\":4536:4653   */\n    tag_112:\n        /* \"#utility.yul\":4677:4740   */\n      tag_114\n        /* \"#utility.yul\":4732:4739   */\n      dup6\n        /* \"#utility.yul\":4723:4729   */\n      dup3\n        /* \"#utility.yul\":4712:4721   */\n      dup7\n        /* \"#utility.yul\":4708:4730   */\n      add\n        /* \"#utility.yul\":4677:4740   */\n      tag_48\n      jump\t// in\n    tag_114:\n        /* \"#utility.yul\":4667:4740   */\n      swap2\n      pop\n        /* \"#utility.yul\":4462:4750   */\n      pop\n        /* \"#utility.yul\":4103:4757   */\n      swap3\n      pop\n      swap3\n      swap1\n      pop\n      jump\t// out\n        /* \"#utility.yul\":4763:4862   */\n    tag_49:\n        /* \"#utility.yul\":4815:4821   */\n      0x00\n        /* \"#utility.yul\":4849:4854   */\n      dup2\n        /* \"#utility.yul\":4843:4855   */\n      mload\n        /* \"#utility.yul\":4833:4855   */\n      swap1\n      pop\n        /* \"#utility.yul\":4763:4862   */\n      swap2\n      swap1\n      pop\n      jump\t// out\n        /* \"#utility.yul\":4868:5016   */\n    tag_50:\n        /* \"#utility.yul\":4970:4981   */\n      0x00\n        /* \"#utility.yul\":5007:5010   */\n      dup2\n        /* \"#utility.yul\":4992:5010   */\n      swap1\n      pop\n        /* \"#utility.yul\":4868:5016   */\n      swap3\n      swap2\n      pop\n      pop\n      jump\t// out\n        /* \"#utility.yul\":5022:5268   */\n    tag_51:\n        /* \"#utility.yul\":5103:5104   */\n      0x00\n        /* \"#utility.yul\":5113:5226   */\n    tag_118:\n        /* \"#utility.yul\":5127:5133   */\n      dup4\n        /* \"#utility.yul\":5124:5125   */\n      dup2\n        /* \"#utility.yul\":5121:5134   */\n      lt\n        /* \"#utility.yul\":5113:5226   */\n      iszero\n      tag_120\n      jumpi\n        /* \"#utility.yul\":5212:5213   */\n      dup1\n        /* \"#utility.yul\":5207:5210   */\n      dup3\n        /* \"#utility.yul\":5203:5214   */\n      add\n        /* \"#utility.yul\":5197:5215   */\n      mload\n        /* \"#utility.yul\":5193:5194   */\n      dup2\n        /* \"#utility.yul\":5188:5191   */\n      dup5\n        /* \"#utility.yul\":5184:5195   */\n      add\n        /* \"#utility.yul\":5177:5216   */\n      mstore\n        /* \"#utility.yul\":5149:5151   */\n      0x20\n        /* \"#utility.yul\":5146:5147   */\n      dup2\n        /* \"#utility.yul\":5142:5152   */\n      add\n        /* \"#utility.yul\":5137:5152   */\n      swap1\n      pop\n        /* \"#utility.yul\":5113:5226   */\n      jump(tag_118)\n    tag_120:\n        /* \"#utility.yul\":5260:5261   */\n      0x00\n        /* \"#utility.yul\":5251:5257   */\n      dup5\n        /* \"#utility.yul\":5246:5249   */\n      dup5\n        /* \"#utility.yul\":5242:5258   */\n      add\n        /* \"#utility.yul\":5235:5262   */\n      mstore\n        /* \"#utility.yul\":5084:5268   */\n      pop\n        /* \"#utility.yul\":5022:5268   */\n      pop\n      pop\n      pop\n      jump\t// out\n        /* \"#utility.yul\":5274:5664   */\n    tag_52:\n        /* \"#utility.yul\":5380:5383   */\n      0x00\n        /* \"#utility.yul\":5408:5447   */\n      tag_122\n        /* \"#utility.yul\":5441:5446   */\n      dup3\n        /* \"#utility.yul\":5408:5447   */\n      tag_49\n      jump\t// in\n    tag_122:\n        /* \"#utility.yul\":5463:5552   */\n      tag_123\n        /* \"#utility.yul\":5545:5551   */\n      dup2\n        /* \"#utility.yul\":5540:5543   */\n      dup6\n        /* \"#utility.yul\":5463:5552   */\n      tag_50\n      jump\t// in\n    tag_123:\n        /* \"#utility.yul\":5456:5552   */\n      swap4\n      pop\n        /* \"#utility.yul\":5561:5626   */\n      tag_124\n        /* \"#utility.yul\":5619:5625   */\n      dup2\n        /* \"#utility.yul\":5614:5617   */\n      dup6\n        /* \"#utility.yul\":5607:5611   */\n      0x20\n        /* \"#utility.yul\":5600:5605   */\n      dup7\n        /* \"#utility.yul\":5596:5612   */\n      add\n        /* \"#utility.yul\":5561:5626   */\n      tag_51\n      jump\t// in\n    tag_124:\n        /* \"#utility.yul\":5651:5657   */\n      dup1\n        /* \"#utility.yul\":5646:5649   */\n      dup5\n        /* \"#utility.yul\":5642:5658   */\n      add\n        /* \"#utility.yul\":5635:5658   */\n      swap2\n      pop\n        /* \"#utility.yul\":5384:5664   */\n      pop\n        /* \"#utility.yul\":5274:5664   */\n      swap3\n      swap2\n      pop\n      pop\n      jump\t// out\n        /* \"#utility.yul\":5670:5945   */\n    tag_22:\n        /* \"#utility.yul\":5802:5805   */\n      0x00\n        /* \"#utility.yul\":5824:5919   */\n      tag_126\n        /* \"#utility.yul\":5915:5918   */\n      dup3\n        /* \"#utility.yul\":5906:5912   */\n      dup5\n        /* \"#utility.yul\":5824:5919   */\n      tag_52\n      jump\t// in\n    tag_126:\n        /* \"#utility.yul\":5817:5919   */\n      swap2\n      pop\n        /* \"#utility.yul\":5936:5939   */\n      dup2\n        /* \"#utility.yul\":5929:5939   */\n      swap1\n      pop\n        /* \"#utility.yul\":5670:5945   */\n      swap3\n      swap2\n      pop\n      pop\n      jump\t// out\n        /* \"#utility.yul\":5951:6049   */\n    tag_53:\n        /* \"#utility.yul\":6002:6008   */\n      0x00\n        /* \"#utility.yul\":6036:6041   */\n      dup2\n        /* \"#utility.yul\":6030:6042   */\n      mload\n        /* \"#utility.yul\":6020:6042   */\n      swap1\n      pop\n        /* \"#utility.yul\":5951:6049   */\n      swap2\n      swap1\n      pop\n      jump\t// out\n        /* \"#utility.yul\":6055:6202   */\n    tag_54:\n        /* \"#utility.yul\":6156:6167   */\n      0x00\n        /* \"#utility.yul\":6193:6196   */\n      dup2\n        /* \"#utility.yul\":6178:6196   */\n      swap1\n      pop\n        /* \"#utility.yul\":6055:6202   */\n      swap3\n      swap2\n      pop\n      pop\n      jump\t// out\n        /* \"#utility.yul\":6208:6594   */\n    tag_55:\n        /* \"#utility.yul\":6312:6315   */\n      0x00\n        /* \"#utility.yul\":6340:6378   */\n      tag_130\n        /* \"#utility.yul\":6372:6377   */\n      dup3\n        /* \"#utility.yul\":6340:6378   */\n      tag_53\n      jump\t// in\n    tag_130:\n        /* \"#utility.yul\":6394:6482   */\n      tag_131\n        /* \"#utility.yul\":6475:6481   */\n      dup2\n        /* \"#utility.yul\":6470:6473   */\n      dup6\n        /* \"#utility.yul\":6394:6482   */\n      tag_54\n      jump\t// in\n    tag_131:\n        /* \"#utility.yul\":6387:6482   */\n      swap4\n      pop\n        /* \"#utility.yul\":6491:6556   */\n      tag_132\n        /* \"#utility.yul\":6549:6555   */\n      dup2\n        /* \"#utility.yul\":6544:6547   */\n      dup6\n        /* \"#utility.yul\":6537:6541   */\n      0x20\n        /* \"#utility.yul\":6530:6535   */\n      dup7\n        /* \"#utility.yul\":6526:6542   */\n      add\n        /* \"#utility.yul\":6491:6556   */\n      tag_51\n      jump\t// in\n    tag_132:\n        /* \"#utility.yul\":6581:6587   */\n      dup1\n        /* \"#utility.yul\":6576:6579   */\n      dup5\n        /* \"#utility.yul\":6572:6588   */\n      add\n        /* \"#utility.yul\":6565:6588   */\n      swap2\n      pop\n        /* \"#utility.yul\":6316:6594   */\n      pop\n        /* \"#utility.yul\":6208:6594   */\n      swap3\n      swap2\n      pop\n      pop\n      jump\t// out\n        /* \"#utility.yul\":6600:6871   */\n    tag_24:\n        /* \"#utility.yul\":6730:6733   */\n      0x00\n        /* \"#utility.yul\":6752:6845   */\n      tag_134\n        /* \"#utility.yul\":6841:6844   */\n      dup3\n        /* \"#utility.yul\":6832:6838   */\n      dup5\n        /* \"#utility.yul\":6752:6845   */\n      tag_55\n      jump\t// in\n    tag_134:\n        /* \"#utility.yul\":6745:6845   */\n      swap2\n      pop\n        /* \"#utility.yul\":6862:6865   */\n      dup2\n        /* \"#utility.yul\":6855:6865   */\n      swap1\n      pop\n        /* \"#utility.yul\":6600:6871   */\n      swap3\n      swap2\n      pop\n      pop\n      jump\t// out\n\n    auxdata: 0xa26469706673582212207294c54fc50d6f8358882dced6c7596a779609c4e91fb0c33d2d49aa604b36f664736f6c63430008100033\n}\n",
				"bytecode": {
					"linkReferences": {},
					"object": "608060405234801561001057600080fd5b50610557806100206000396000f3fe608060405234801561001057600080fd5b50600436106100415760003560e01c80633b4c4b25146100465780636c9c2faf14610062578063c869ed4214610080575b600080fd5b610060600480360381019061005b91906101e4565b61009c565b005b61006a6100a6565b6040516100779190610220565b60405180910390f35b61009a600480360381019061009591906103df565b6100af565b005b8060008190555050565b60008054905090565b6000808373ffffffffffffffffffffffffffffffffffffffff1683604051602401604051602081830303815290604052906040516100ed91906104ac565b60405180910390207bffffffffffffffffffffffffffffffffffffffffffffffffffffffff19166020820180517bffffffffffffffffffffffffffffffffffffffffffffffffffffffff838183161783525050505060405161014f919061050a565b600060405180830381855af49150503d806000811461018a576040519150601f19603f3d011682016040523d82523d6000602084013e61018f565b606091505b509150915050505050565b6000604051905090565b600080fd5b600080fd5b6000819050919050565b6101c1816101ae565b81146101cc57600080fd5b50565b6000813590506101de816101b8565b92915050565b6000602082840312156101fa576101f96101a4565b5b6000610208848285016101cf565b91505092915050565b61021a816101ae565b82525050565b60006020820190506102356000830184610211565b92915050565b600073ffffffffffffffffffffffffffffffffffffffff82169050919050565b60006102668261023b565b9050919050565b6102768161025b565b811461028157600080fd5b50565b6000813590506102938161026d565b92915050565b600080fd5b600080fd5b6000601f19601f8301169050919050565b7f4e487b7100000000000000000000000000000000000000000000000000000000600052604160045260246000fd5b6102ec826102a3565b810181811067ffffffffffffffff8211171561030b5761030a6102b4565b5b80604052505050565b600061031e61019a565b905061032a82826102e3565b919050565b600067ffffffffffffffff82111561034a576103496102b4565b5b610353826102a3565b9050602081019050919050565b82818337600083830152505050565b600061038261037d8461032f565b610314565b90508281526020810184848401111561039e5761039d61029e565b5b6103a9848285610360565b509392505050565b600082601f8301126103c6576103c5610299565b5b81356103d684826020860161036f565b91505092915050565b600080604083850312156103f6576103f56101a4565b5b600061040485828601610284565b925050602083013567ffffffffffffffff811115610425576104246101a9565b5b610431858286016103b1565b9150509250929050565b600081519050919050565b600081905092915050565b60005b8381101561046f578082015181840152602081019050610454565b60008484015250505050565b60006104868261043b565b6104908185610446565b93506104a0818560208601610451565b80840191505092915050565b60006104b8828461047b565b915081905092915050565b600081519050919050565b600081905092915050565b60006104e4826104c3565b6104ee81856104ce565b93506104fe818560208601610451565b80840191505092915050565b600061051682846104d9565b91508190509291505056fea26469706673582212207294c54fc50d6f8358882dced6c7596a779609c4e91fb0c33d2d49aa604b36f664736f6c63430008100033",
					"opcodes": "PUSH1 0x80 PUSH1 0x40 MSTORE CALLVALUE DUP1 ISZERO PUSH2 0x10 JUMPI PUSH1 0x0 DUP1 REVERT JUMPDEST POP PUSH2 0x557 DUP1 PUSH2 0x20 PUSH1 0x0 CODECOPY PUSH1 0x0 RETURN INVALID PUSH1 0x80 PUSH1 0x40 MSTORE CALLVALUE DUP1 ISZERO PUSH2 0x10 JUMPI PUSH1 0x0 DUP1 REVERT JUMPDEST POP PUSH1 0x4 CALLDATASIZE LT PUSH2 0x41 JUMPI PUSH1 0x0 CALLDATALOAD PUSH1 0xE0 SHR DUP1 PUSH4 0x3B4C4B25 EQ PUSH2 0x46 JUMPI DUP1 PUSH4 0x6C9C2FAF EQ PUSH2 0x62 JUMPI DUP1 PUSH4 0xC869ED42 EQ PUSH2 0x80 JUMPI JUMPDEST PUSH1 0x0 DUP1 REVERT JUMPDEST PUSH2 0x60 PUSH1 0x4 DUP1 CALLDATASIZE SUB DUP2 ADD SWAP1 PUSH2 0x5B SWAP2 SWAP1 PUSH2 0x1E4 JUMP JUMPDEST PUSH2 0x9C JUMP JUMPDEST STOP JUMPDEST PUSH2 0x6A PUSH2 0xA6 JUMP JUMPDEST PUSH1 0x40 MLOAD PUSH2 0x77 SWAP2 SWAP1 PUSH2 0x220 JUMP JUMPDEST PUSH1 0x40 MLOAD DUP1 SWAP2 SUB SWAP1 RETURN JUMPDEST PUSH2 0x9A PUSH1 0x4 DUP1 CALLDATASIZE SUB DUP2 ADD SWAP1 PUSH2 0x95 SWAP2 SWAP1 PUSH2 0x3DF JUMP JUMPDEST PUSH2 0xAF JUMP JUMPDEST STOP JUMPDEST DUP1 PUSH1 0x0 DUP2 SWAP1 SSTORE POP POP JUMP JUMPDEST PUSH1 0x0 DUP1 SLOAD SWAP1 POP SWAP1 JUMP JUMPDEST PUSH1 0x0 DUP1 DUP4 PUSH20 0xFFFFFFFFFFFFFFFFFFFFFFFFFFFFFFFFFFFFFFFF AND DUP4 PUSH1 0x40 MLOAD PUSH1 0x24 ADD PUSH1 0x40 MLOAD PUSH1 0x20 DUP2 DUP4 SUB SUB DUP2 MSTORE SWAP1 PUSH1 0x40 MSTORE SWAP1 PUSH1 0x40 MLOAD PUSH2 0xED SWAP2 SWAP1 PUSH2 0x4AC JUMP JUMPDEST PUSH1 0x40 MLOAD DUP1 SWAP2 SUB SWAP1 KECCAK256 PUSH28 0xFFFFFFFFFFFFFFFFFFFFFFFFFFFFFFFFFFFFFFFFFFFFFFFFFFFFFFFF NOT AND PUSH1 0x20 DUP3 ADD DUP1 MLOAD PUSH28 0xFFFFFFFFFFFFFFFFFFFFFFFFFFFFFFFFFFFFFFFFFFFFFFFFFFFFFFFF DUP4 DUP2 DUP4 AND OR DUP4 MSTORE POP POP POP POP PUSH1 0x40 MLOAD PUSH2 0x14F SWAP2 SWAP1 PUSH2 0x50A JUMP JUMPDEST PUSH1 0x0 PUSH1 0x40 MLOAD DUP1 DUP4 SUB DUP2 DUP6 GAS DELEGATECALL SWAP2 POP POP RETURNDATASIZE DUP1 PUSH1 0x0 DUP2 EQ PUSH2 0x18A JUMPI PUSH1 0x40 MLOAD SWAP2 POP PUSH1 0x1F NOT PUSH1 0x3F RETURNDATASIZE ADD AND DUP3 ADD PUSH1 0x40 MSTORE RETURNDATASIZE DUP3 MSTORE RETURNDATASIZE PUSH1 0x0 PUSH1 0x20 DUP5 ADD RETURNDATACOPY PUSH2 0x18F JUMP JUMPDEST PUSH1 0x60 SWAP2 POP JUMPDEST POP SWAP2 POP SWAP2 POP POP POP POP POP JUMP JUMPDEST PUSH1 0x0 PUSH1 0x40 MLOAD SWAP1 POP SWAP1 JUMP JUMPDEST PUSH1 0x0 DUP1 REVERT JUMPDEST PUSH1 0x0 DUP1 REVERT JUMPDEST PUSH1 0x0 DUP2 SWAP1 POP SWAP2 SWAP1 POP JUMP JUMPDEST PUSH2 0x1C1 DUP2 PUSH2 0x1AE JUMP JUMPDEST DUP2 EQ PUSH2 0x1CC JUMPI PUSH1 0x0 DUP1 REVERT JUMPDEST POP JUMP JUMPDEST PUSH1 0x0 DUP2 CALLDATALOAD SWAP1 POP PUSH2 0x1DE DUP2 PUSH2 0x1B8 JUMP JUMPDEST SWAP3 SWAP2 POP POP JUMP JUMPDEST PUSH1 0x0 PUSH1 0x20 DUP3 DUP5 SUB SLT ISZERO PUSH2 0x1FA JUMPI PUSH2 0x1F9 PUSH2 0x1A4 JUMP JUMPDEST JUMPDEST PUSH1 0x0 PUSH2 0x208 DUP5 DUP3 DUP6 ADD PUSH2 0x1CF JUMP JUMPDEST SWAP2 POP POP SWAP3 SWAP2 POP POP JUMP JUMPDEST PUSH2 0x21A DUP2 PUSH2 0x1AE JUMP JUMPDEST DUP3 MSTORE POP POP JUMP JUMPDEST PUSH1 0x0 PUSH1 0x20 DUP3 ADD SWAP1 POP PUSH2 0x235 PUSH1 0x0 DUP4 ADD DUP5 PUSH2 0x211 JUMP JUMPDEST SWAP3 SWAP2 POP POP JUMP JUMPDEST PUSH1 0x0 PUSH20 0xFFFFFFFFFFFFFFFFFFFFFFFFFFFFFFFFFFFFFFFF DUP3 AND SWAP1 POP SWAP2 SWAP1 POP JUMP JUMPDEST PUSH1 0x0 PUSH2 0x266 DUP3 PUSH2 0x23B JUMP JUMPDEST SWAP1 POP SWAP2 SWAP1 POP JUMP JUMPDEST PUSH2 0x276 DUP2 PUSH2 0x25B JUMP JUMPDEST DUP2 EQ PUSH2 0x281 JUMPI PUSH1 0x0 DUP1 REVERT JUMPDEST POP JUMP JUMPDEST PUSH1 0x0 DUP2 CALLDATALOAD SWAP1 POP PUSH2 0x293 DUP2 PUSH2 0x26D JUMP JUMPDEST SWAP3 SWAP2 POP POP JUMP JUMPDEST PUSH1 0x0 DUP1 REVERT JUMPDEST PUSH1 0x0 DUP1 REVERT JUMPDEST PUSH1 0x0 PUSH1 0x1F NOT PUSH1 0x1F DUP4 ADD AND SWAP1 POP SWAP2 SWAP1 POP JUMP JUMPDEST PUSH32 0x4E487B7100000000000000000000000000000000000000000000000000000000 PUSH1 0x0 MSTORE PUSH1 0x41 PUSH1 0x4 MSTORE PUSH1 0x24 PUSH1 0x0 REVERT JUMPDEST PUSH2 0x2EC DUP3 PUSH2 0x2A3 JUMP JUMPDEST DUP2 ADD DUP2 DUP2 LT PUSH8 0xFFFFFFFFFFFFFFFF DUP3 GT OR ISZERO PUSH2 0x30B JUMPI PUSH2 0x30A PUSH2 0x2B4 JUMP JUMPDEST JUMPDEST DUP1 PUSH1 0x40 MSTORE POP POP POP JUMP JUMPDEST PUSH1 0x0 PUSH2 0x31E PUSH2 0x19A JUMP JUMPDEST SWAP1 POP PUSH2 0x32A DUP3 DUP3 PUSH2 0x2E3 JUMP JUMPDEST SWAP2 SWAP1 POP JUMP JUMPDEST PUSH1 0x0 PUSH8 0xFFFFFFFFFFFFFFFF DUP3 GT ISZERO PUSH2 0x34A JUMPI PUSH2 0x349 PUSH2 0x2B4 JUMP JUMPDEST JUMPDEST PUSH2 0x353 DUP3 PUSH2 0x2A3 JUMP JUMPDEST SWAP1 POP PUSH1 0x20 DUP2 ADD SWAP1 POP SWAP2 SWAP1 POP JUMP JUMPDEST DUP3 DUP2 DUP4 CALLDATACOPY PUSH1 0x0 DUP4 DUP4 ADD MSTORE POP POP POP JUMP JUMPDEST PUSH1 0x0 PUSH2 0x382 PUSH2 0x37D DUP5 PUSH2 0x32F JUMP JUMPDEST PUSH2 0x314 JUMP JUMPDEST SWAP1 POP DUP3 DUP2 MSTORE PUSH1 0x20 DUP2 ADD DUP5 DUP5 DUP5 ADD GT ISZERO PUSH2 0x39E JUMPI PUSH2 0x39D PUSH2 0x29E JUMP JUMPDEST JUMPDEST PUSH2 0x3A9 DUP5 DUP3 DUP6 PUSH2 0x360 JUMP JUMPDEST POP SWAP4 SWAP3 POP POP POP JUMP JUMPDEST PUSH1 0x0 DUP3 PUSH1 0x1F DUP4 ADD SLT PUSH2 0x3C6 JUMPI PUSH2 0x3C5 PUSH2 0x299 JUMP JUMPDEST JUMPDEST DUP2 CALLDATALOAD PUSH2 0x3D6 DUP5 DUP3 PUSH1 0x20 DUP7 ADD PUSH2 0x36F JUMP JUMPDEST SWAP2 POP POP SWAP3 SWAP2 POP POP JUMP JUMPDEST PUSH1 0x0 DUP1 PUSH1 0x40 DUP4 DUP6 SUB SLT ISZERO PUSH2 0x3F6 JUMPI PUSH2 0x3F5 PUSH2 0x1A4 JUMP JUMPDEST JUMPDEST PUSH1 0x0 PUSH2 0x404 DUP6 DUP3 DUP7 ADD PUSH2 0x284 JUMP JUMPDEST SWAP3 POP POP PUSH1 0x20 DUP4 ADD CALLDATALOAD PUSH8 0xFFFFFFFFFFFFFFFF DUP2 GT ISZERO PUSH2 0x425 JUMPI PUSH2 0x424 PUSH2 0x1A9 JUMP JUMPDEST JUMPDEST PUSH2 0x431 DUP6 DUP3 DUP7 ADD PUSH2 0x3B1 JUMP JUMPDEST SWAP2 POP POP SWAP3 POP SWAP3 SWAP1 POP JUMP JUMPDEST PUSH1 0x0 DUP2 MLOAD SWAP1 POP SWAP2 SWAP1 POP JUMP JUMPDEST PUSH1 0x0 DUP2 SWAP1 POP SWAP3 SWAP2 POP POP JUMP JUMPDEST PUSH1 0x0 JUMPDEST DUP4 DUP2 LT ISZERO PUSH2 0x46F JUMPI DUP1 DUP3 ADD MLOAD DUP2 DUP5 ADD MSTORE PUSH1 0x20 DUP2 ADD SWAP1 POP PUSH2 0x454 JUMP JUMPDEST PUSH1 0x0 DUP5 DUP5 ADD MSTORE POP POP POP POP JUMP JUMPDEST PUSH1 0x0 PUSH2 0x486 DUP3 PUSH2 0x43B JUMP JUMPDEST PUSH2 0x490 DUP2 DUP6 PUSH2 0x446 JUMP JUMPDEST SWAP4 POP PUSH2 0x4A0 DUP2 DUP6 PUSH1 0x20 DUP7 ADD PUSH2 0x451 JUMP JUMPDEST DUP1 DUP5 ADD SWAP2 POP POP SWAP3 SWAP2 POP POP JUMP JUMPDEST PUSH1 0x0 PUSH2 0x4B8 DUP3 DUP5 PUSH2 0x47B JUMP JUMPDEST SWAP2 POP DUP2 SWAP1 POP SWAP3 SWAP2 POP POP JUMP JUMPDEST PUSH1 0x0 DUP2 MLOAD SWAP1 POP SWAP2 SWAP1 POP JUMP JUMPDEST PUSH1 0x0 DUP2 SWAP1 POP SWAP3 SWAP2 POP POP JUMP JUMPDEST PUSH1 0x0 PUSH2 0x4E4 DUP3 PUSH2 0x4C3 JUMP JUMPDEST PUSH2 0x4EE DUP2 DUP6 PUSH2 0x4CE JUMP JUMPDEST SWAP4 POP PUSH2 0x4FE DUP2 DUP6 PUSH1 0x20 DUP7 ADD PUSH2 0x451 JUMP JUMPDEST DUP1 DUP5 ADD SWAP2 POP POP SWAP3 SWAP2 POP POP JUMP JUMPDEST PUSH1 0x0 PUSH2 0x516 DUP3 DUP5 PUSH2 0x4D9 JUMP JUMPDEST SWAP2 POP DUP2 SWAP1 POP SWAP3 SWAP2 POP POP JUMP INVALID LOG2 PUSH5 0x6970667358 0x22 SLT KECCAK256 PUSH19 0x94C54FC50D6F8358882DCED6C7596A779609C4 0xE9 0x1F 0xB0 0xC3 RETURNDATASIZE 0x2D 0x49 0xAA PUSH1 0x4B CALLDATASIZE 0xF6 PUSH5 0x736F6C6343 STOP ADDMOD LT STOP CALLER "
				},
				"gasEstimates": {
					"creation": {
						"codeDepositCost": "273400",
						"executionCost": "312",
						"totalCost": "273712"
					},
					"external": {
						"f1(address,string)": "infinite",
						"getSupply()": "2437",
						"setSupply(uint256)": "22498"
					}
				},
				"methodIdentifiers": {
					"f1(address,string)": "c869ed42",
					"getSupply()": "6c9c2faf",
					"setSupply(uint256)": "3b4c4b25"
				}
			},
			"storageLayout": {
				"storage": [
					{
						"astId": 3,
						"contract": "delegatecall.sol:Data",
						"label": "supply",
						"offset": 0,
						"slot": "0",
						"type": "t_uint256"
					}
				],
				"types": {
					"t_uint256": {
						"encoding": "inplace",
						"label": "uint256",
						"numberOfBytes": "32"
					}
				}
			},
			"userdoc": {
				"kind": "user",
				"methods": {},
				"version": 1
			}
		}
	}
}