{
	"variable.sol": {
		"Variable": {
			"abi": [
				{
					"inputs": [
						{
							"internalType": "string",
							"name": "val",
							"type": "string"
						}
					],
					"name": "addTask",
					"outputs": [],
					"stateMutability": "nonpayable",
					"type": "function"
				},
				{
					"inputs": [],
					"name": "f1",
					"outputs": [
						{
							"internalType": "address",
							"name": "",
							"type": "address"
						},
						{
							"internalType": "uint256",
							"name": "",
							"type": "uint256"
						},
						{
							"internalType": "uint256",
							"name": "",
							"type": "uint256"
						}
					],
					"stateMutability": "view",
					"type": "function"
				},
				{
					"inputs": [
						{
							"internalType": "uint256",
							"name": "",
							"type": "uint256"
						}
					],
					"name": "list",
					"outputs": [
						{
							"internalType": "string",
							"name": "",
							"type": "string"
						}
					],
					"stateMutability": "view",
					"type": "function"
				},
				{
					"inputs": [],
					"name": "taskList",
					"outputs": [
						{
							"internalType": "string[]",
							"name": "",
							"type": "string[]"
						}
					],
					"stateMutability": "view",
					"type": "function"
				}
			],
			"devdoc": {
				"kind": "dev",
				"methods": {},
				"version": 1
			},
			"evm": {
				"assembly": "    /* \"variable.sol\":63:678  contract Variable {\r... */\n  mstore(0x40, 0x80)\n  callvalue\n  dup1\n  iszero\n  tag_1\n  jumpi\n  0x00\n  dup1\n  revert\ntag_1:\n  pop\n  dataSize(sub_0)\n  dup1\n  dataOffset(sub_0)\n  0x00\n  codecopy\n  0x00\n  return\nstop\n\nsub_0: assembly {\n        /* \"variable.sol\":63:678  contract Variable {\r... */\n      mstore(0x40, 0x80)\n      callvalue\n      dup1\n      iszero\n      tag_1\n      jumpi\n      0x00\n      dup1\n      revert\n    tag_1:\n      pop\n      jumpi(tag_2, lt(calldatasize, 0x04))\n      shr(0xe0, calldataload(0x00))\n      dup1\n      0x67238562\n      eq\n      tag_3\n      jumpi\n      dup1\n      0x80c9419e\n      eq\n      tag_4\n      jumpi\n      dup1\n      0xc27fc305\n      eq\n      tag_5\n      jumpi\n      dup1\n      0xeb7e7f1a\n      eq\n      tag_6\n      jumpi\n    tag_2:\n      0x00\n      dup1\n      revert\n        /* \"variable.sol\":264:340  function addTask(string memory val) public {\r... */\n    tag_3:\n      tag_7\n      0x04\n      dup1\n      calldatasize\n      sub\n      dup2\n      add\n      swap1\n      tag_8\n      swap2\n      swap1\n      tag_9\n      jump\t// in\n    tag_8:\n      tag_10\n      jump\t// in\n    tag_7:\n      stop\n        /* \"variable.sol\":237:257  string[] public list */\n    tag_4:\n      tag_11\n      0x04\n      dup1\n      calldatasize\n      sub\n      dup2\n      add\n      swap1\n      tag_12\n      swap2\n      swap1\n      tag_13\n      jump\t// in\n    tag_12:\n      tag_14\n      jump\t// in\n    tag_11:\n      mload(0x40)\n      tag_15\n      swap2\n      swap1\n      tag_16\n      jump\t// in\n    tag_15:\n      mload(0x40)\n      dup1\n      swap2\n      sub\n      swap1\n      return\n        /* \"variable.sol\":444:673  function f1() external view returns (address,uint,uint) {\r... */\n    tag_5:\n      tag_17\n      tag_18\n      jump\t// in\n    tag_17:\n      mload(0x40)\n      tag_19\n      swap4\n      swap3\n      swap2\n      swap1\n      tag_20\n      jump\t// in\n    tag_19:\n      mload(0x40)\n      dup1\n      swap2\n      sub\n      swap1\n      return\n        /* \"variable.sol\":348:436  function taskList() public view returns (string[] memory) {\r... */\n    tag_6:\n      tag_21\n      tag_22\n      jump\t// in\n    tag_21:\n      mload(0x40)\n      tag_23\n      swap2\n      swap1\n      tag_24\n      jump\t// in\n    tag_23:\n      mload(0x40)\n      dup1\n      swap2\n      sub\n      swap1\n      return\n        /* \"variable.sol\":264:340  function addTask(string memory val) public {\r... */\n    tag_10:\n        /* \"variable.sol\":318:322  list */\n      0x00\n        /* \"variable.sol\":328:331  val */\n      dup2\n        /* \"variable.sol\":318:332  list.push(val) */\n      swap1\n      dup1\n      0x01\n      dup2\n      sload\n      add\n      dup1\n      dup3\n      sstore\n      dup1\n      swap2\n      pop\n      pop\n      0x01\n      swap1\n      sub\n      swap1\n      0x00\n      mstore\n      keccak256(0x00, 0x20)\n      add\n      0x00\n      swap1\n      swap2\n      swap1\n      swap2\n      swap1\n      swap2\n      pop\n      swap1\n      dup1\n      mload\n      swap1\n      0x20\n      add\n      swap1\n      tag_27\n      swap3\n      swap2\n      swap1\n      tag_28\n      jump\t// in\n    tag_27:\n      pop\n        /* \"variable.sol\":264:340  function addTask(string memory val) public {\r... */\n      pop\n      jump\t// out\n        /* \"variable.sol\":237:257  string[] public list */\n    tag_14:\n      0x00\n      dup2\n      dup2\n      sload\n      dup2\n      lt\n      tag_29\n      jumpi\n      0x00\n      dup1\n      revert\n    tag_29:\n      swap1\n      0x00\n      mstore\n      keccak256(0x00, 0x20)\n      add\n      0x00\n      swap2\n      pop\n      swap1\n      pop\n      dup1\n      sload\n      tag_31\n      swap1\n      tag_32\n      jump\t// in\n    tag_31:\n      dup1\n      0x1f\n      add\n      0x20\n      dup1\n      swap2\n      div\n      mul\n      0x20\n      add\n      mload(0x40)\n      swap1\n      dup2\n      add\n      0x40\n      mstore\n      dup1\n      swap3\n      swap2\n      swap1\n      dup2\n      dup2\n      mstore\n      0x20\n      add\n      dup3\n      dup1\n      sload\n      tag_33\n      swap1\n      tag_32\n      jump\t// in\n    tag_33:\n      dup1\n      iszero\n      tag_34\n      jumpi\n      dup1\n      0x1f\n      lt\n      tag_35\n      jumpi\n      0x0100\n      dup1\n      dup4\n      sload\n      div\n      mul\n      dup4\n      mstore\n      swap2\n      0x20\n      add\n      swap2\n      jump(tag_34)\n    tag_35:\n      dup3\n      add\n      swap2\n      swap1\n      0x00\n      mstore\n      keccak256(0x00, 0x20)\n      swap1\n    tag_36:\n      dup2\n      sload\n      dup2\n      mstore\n      swap1\n      0x01\n      add\n      swap1\n      0x20\n      add\n      dup1\n      dup4\n      gt\n      tag_36\n      jumpi\n      dup3\n      swap1\n      sub\n      0x1f\n      and\n      dup3\n      add\n      swap2\n    tag_34:\n      pop\n      pop\n      pop\n      pop\n      pop\n      dup2\n      jump\t// out\n        /* \"variable.sol\":444:673  function f1() external view returns (address,uint,uint) {\r... */\n    tag_18:\n        /* \"variable.sol\":481:488  address */\n      0x00\n        /* \"variable.sol\":489:493  uint */\n      dup1\n        /* \"variable.sol\":494:498  uint */\n      0x00\n        /* \"variable.sol\":511:525  address sender */\n      dup1\n        /* \"variable.sol\":528:538  msg.sender */\n      caller\n        /* \"variable.sol\":511:538  address sender = msg.sender */\n      swap1\n      pop\n        /* \"variable.sol\":549:563  uint timestamp */\n      0x00\n        /* \"variable.sol\":566:581  block.timestamp */\n      timestamp\n        /* \"variable.sol\":549:581  uint timestamp = block.timestamp */\n      swap1\n      pop\n        /* \"variable.sol\":592:605  uint blockNum */\n      0x00\n        /* \"variable.sol\":608:620  block.number */\n      number\n        /* \"variable.sol\":592:620  uint blockNum = block.number */\n      swap1\n      pop\n        /* \"variable.sol\":639:645  sender */\n      dup3\n        /* \"variable.sol\":646:655  timestamp */\n      dup3\n        /* \"variable.sol\":656:664  blockNum */\n      dup3\n        /* \"variable.sol\":631:665  return (sender,timestamp,blockNum) */\n      swap6\n      pop\n      swap6\n      pop\n      swap6\n      pop\n      pop\n      pop\n      pop\n        /* \"variable.sol\":444:673  function f1() external view returns (address,uint,uint) {\r... */\n      swap1\n      swap2\n      swap3\n      jump\t// out\n        /* \"variable.sol\":348:436  function taskList() public view returns (string[] memory) {\r... */\n    tag_22:\n        /* \"variable.sol\":389:404  string[] memory */\n      0x60\n        /* \"variable.sol\":424:428  list */\n      0x00\n        /* \"variable.sol\":417:428  return list */\n      dup1\n      sload\n      dup1\n      0x20\n      mul\n      0x20\n      add\n      mload(0x40)\n      swap1\n      dup2\n      add\n      0x40\n      mstore\n      dup1\n      swap3\n      swap2\n      swap1\n      dup2\n      dup2\n      mstore\n      0x20\n      add\n      0x00\n      swap1\n    tag_39:\n      dup3\n      dup3\n      lt\n      iszero\n      tag_40\n      jumpi\n      dup4\n      dup3\n      swap1\n      0x00\n      mstore\n      keccak256(0x00, 0x20)\n      add\n      dup1\n      sload\n      tag_42\n      swap1\n      tag_32\n      jump\t// in\n    tag_42:\n      dup1\n      0x1f\n      add\n      0x20\n      dup1\n      swap2\n      div\n      mul\n      0x20\n      add\n      mload(0x40)\n      swap1\n      dup2\n      add\n      0x40\n      mstore\n      dup1\n      swap3\n      swap2\n      swap1\n      dup2\n      dup2\n      mstore\n      0x20\n      add\n      dup3\n      dup1\n      sload\n      tag_43\n      swap1\n      tag_32\n      jump\t// in\n    tag_43:\n      dup1\n      iszero\n      tag_44\n      jumpi\n      dup1\n      0x1f\n      lt\n      tag_45\n      jumpi\n      0x0100\n      dup1\n      dup4\n      sload\n      div\n      mul\n      dup4\n      mstore\n      swap2\n      0x20\n      add\n      swap2\n      jump(tag_44)\n    tag_45:\n      dup3\n      add\n      swap2\n      swap1\n      0x00\n      mstore\n      keccak256(0x00, 0x20)\n      swap1\n    tag_46:\n      dup2\n      sload\n      dup2\n      mstore\n      swap1\n      0x01\n      add\n      swap1\n      0x20\n      add\n      dup1\n      dup4\n      gt\n      tag_46\n      jumpi\n      dup3\n      swap1\n      sub\n      0x1f\n      and\n      dup3\n      add\n      swap2\n    tag_44:\n      pop\n      pop\n      pop\n      pop\n      pop\n      dup2\n      mstore\n      0x20\n      add\n      swap1\n      0x01\n      add\n      swap1\n      jump(tag_39)\n    tag_40:\n      pop\n      pop\n      pop\n      pop\n      swap1\n      pop\n        /* \"variable.sol\":348:436  function taskList() public view returns (string[] memory) {\r... */\n      swap1\n      jump\t// out\n    tag_28:\n      dup3\n      dup1\n      sload\n      tag_47\n      swap1\n      tag_32\n      jump\t// in\n    tag_47:\n      swap1\n      0x00\n      mstore\n      keccak256(0x00, 0x20)\n      swap1\n      0x1f\n      add\n      0x20\n      swap1\n      div\n      dup2\n      add\n      swap3\n      dup3\n      tag_49\n      jumpi\n      0x00\n      dup6\n      sstore\n      jump(tag_48)\n    tag_49:\n      dup3\n      0x1f\n      lt\n      tag_50\n      jumpi\n      dup1\n      mload\n      not(0xff)\n      and\n      dup4\n      dup1\n      add\n      or\n      dup6\n      sstore\n      jump(tag_48)\n    tag_50:\n      dup3\n      dup1\n      add\n      0x01\n      add\n      dup6\n      sstore\n      dup3\n      iszero\n      tag_48\n      jumpi\n      swap2\n      dup3\n      add\n    tag_51:\n      dup3\n      dup2\n      gt\n      iszero\n      tag_52\n      jumpi\n      dup3\n      mload\n      dup3\n      sstore\n      swap2\n      0x20\n      add\n      swap2\n      swap1\n      0x01\n      add\n      swap1\n      jump(tag_51)\n    tag_52:\n    tag_48:\n      pop\n      swap1\n      pop\n      tag_53\n      swap2\n      swap1\n      tag_54\n      jump\t// in\n    tag_53:\n      pop\n      swap1\n      jump\t// out\n    tag_54:\n    tag_55:\n      dup1\n      dup3\n      gt\n      iszero\n      tag_56\n      jumpi\n      0x00\n      dup2\n      0x00\n      swap1\n      sstore\n      pop\n      0x01\n      add\n      jump(tag_55)\n    tag_56:\n      pop\n      swap1\n      jump\t// out\n        /* \"#utility.yul\":7:419   */\n    tag_58:\n        /* \"#utility.yul\":85:90   */\n      0x00\n        /* \"#utility.yul\":110:176   */\n      tag_60\n        /* \"#utility.yul\":126:175   */\n      tag_61\n        /* \"#utility.yul\":168:174   */\n      dup5\n        /* \"#utility.yul\":126:175   */\n      tag_62\n      jump\t// in\n    tag_61:\n        /* \"#utility.yul\":110:176   */\n      tag_63\n      jump\t// in\n    tag_60:\n        /* \"#utility.yul\":101:176   */\n      swap1\n      pop\n        /* \"#utility.yul\":199:205   */\n      dup3\n        /* \"#utility.yul\":192:197   */\n      dup2\n        /* \"#utility.yul\":185:206   */\n      mstore\n        /* \"#utility.yul\":237:241   */\n      0x20\n        /* \"#utility.yul\":230:235   */\n      dup2\n        /* \"#utility.yul\":226:242   */\n      add\n        /* \"#utility.yul\":275:278   */\n      dup5\n        /* \"#utility.yul\":266:272   */\n      dup5\n        /* \"#utility.yul\":261:264   */\n      dup5\n        /* \"#utility.yul\":257:273   */\n      add\n        /* \"#utility.yul\":254:279   */\n      gt\n        /* \"#utility.yul\":251:363   */\n      iszero\n      tag_64\n      jumpi\n        /* \"#utility.yul\":282:361   */\n      tag_65\n      tag_66\n      jump\t// in\n    tag_65:\n        /* \"#utility.yul\":251:363   */\n    tag_64:\n        /* \"#utility.yul\":372:413   */\n      tag_67\n        /* \"#utility.yul\":406:412   */\n      dup5\n        /* \"#utility.yul\":401:404   */\n      dup3\n        /* \"#utility.yul\":396:399   */\n      dup6\n        /* \"#utility.yul\":372:413   */\n      tag_68\n      jump\t// in\n    tag_67:\n        /* \"#utility.yul\":91:419   */\n      pop\n        /* \"#utility.yul\":7:419   */\n      swap4\n      swap3\n      pop\n      pop\n      pop\n      jump\t// out\n        /* \"#utility.yul\":439:779   */\n    tag_69:\n        /* \"#utility.yul\":495:500   */\n      0x00\n        /* \"#utility.yul\":544:547   */\n      dup3\n        /* \"#utility.yul\":537:541   */\n      0x1f\n        /* \"#utility.yul\":529:535   */\n      dup4\n        /* \"#utility.yul\":525:542   */\n      add\n        /* \"#utility.yul\":521:548   */\n      slt\n        /* \"#utility.yul\":511:633   */\n      tag_71\n      jumpi\n        /* \"#utility.yul\":552:631   */\n      tag_72\n      tag_73\n      jump\t// in\n    tag_72:\n        /* \"#utility.yul\":511:633   */\n    tag_71:\n        /* \"#utility.yul\":669:675   */\n      dup2\n        /* \"#utility.yul\":656:676   */\n      calldataload\n        /* \"#utility.yul\":694:773   */\n      tag_74\n        /* \"#utility.yul\":769:772   */\n      dup5\n        /* \"#utility.yul\":761:767   */\n      dup3\n        /* \"#utility.yul\":754:758   */\n      0x20\n        /* \"#utility.yul\":746:752   */\n      dup7\n        /* \"#utility.yul\":742:759   */\n      add\n        /* \"#utility.yul\":694:773   */\n      tag_58\n      jump\t// in\n    tag_74:\n        /* \"#utility.yul\":685:773   */\n      swap2\n      pop\n        /* \"#utility.yul\":501:779   */\n      pop\n        /* \"#utility.yul\":439:779   */\n      swap3\n      swap2\n      pop\n      pop\n      jump\t// out\n        /* \"#utility.yul\":785:924   */\n    tag_75:\n        /* \"#utility.yul\":831:836   */\n      0x00\n        /* \"#utility.yul\":869:875   */\n      dup2\n        /* \"#utility.yul\":856:876   */\n      calldataload\n        /* \"#utility.yul\":847:876   */\n      swap1\n      pop\n        /* \"#utility.yul\":885:918   */\n      tag_77\n        /* \"#utility.yul\":912:917   */\n      dup2\n        /* \"#utility.yul\":885:918   */\n      tag_78\n      jump\t// in\n    tag_77:\n        /* \"#utility.yul\":785:924   */\n      swap3\n      swap2\n      pop\n      pop\n      jump\t// out\n        /* \"#utility.yul\":930:1439   */\n    tag_9:\n        /* \"#utility.yul\":999:1005   */\n      0x00\n        /* \"#utility.yul\":1048:1050   */\n      0x20\n        /* \"#utility.yul\":1036:1045   */\n      dup3\n        /* \"#utility.yul\":1027:1034   */\n      dup5\n        /* \"#utility.yul\":1023:1046   */\n      sub\n        /* \"#utility.yul\":1019:1051   */\n      slt\n        /* \"#utility.yul\":1016:1135   */\n      iszero\n      tag_80\n      jumpi\n        /* \"#utility.yul\":1054:1133   */\n      tag_81\n      tag_82\n      jump\t// in\n    tag_81:\n        /* \"#utility.yul\":1016:1135   */\n    tag_80:\n        /* \"#utility.yul\":1202:1203   */\n      0x00\n        /* \"#utility.yul\":1191:1200   */\n      dup3\n        /* \"#utility.yul\":1187:1204   */\n      add\n        /* \"#utility.yul\":1174:1205   */\n      calldataload\n        /* \"#utility.yul\":1232:1250   */\n      0xffffffffffffffff\n        /* \"#utility.yul\":1224:1230   */\n      dup2\n        /* \"#utility.yul\":1221:1251   */\n      gt\n        /* \"#utility.yul\":1218:1335   */\n      iszero\n      tag_83\n      jumpi\n        /* \"#utility.yul\":1254:1333   */\n      tag_84\n      tag_85\n      jump\t// in\n    tag_84:\n        /* \"#utility.yul\":1218:1335   */\n    tag_83:\n        /* \"#utility.yul\":1359:1422   */\n      tag_86\n        /* \"#utility.yul\":1414:1421   */\n      dup5\n        /* \"#utility.yul\":1405:1411   */\n      dup3\n        /* \"#utility.yul\":1394:1403   */\n      dup6\n        /* \"#utility.yul\":1390:1412   */\n      add\n        /* \"#utility.yul\":1359:1422   */\n      tag_69\n      jump\t// in\n    tag_86:\n        /* \"#utility.yul\":1349:1422   */\n      swap2\n      pop\n        /* \"#utility.yul\":1145:1432   */\n      pop\n        /* \"#utility.yul\":930:1439   */\n      swap3\n      swap2\n      pop\n      pop\n      jump\t// out\n        /* \"#utility.yul\":1445:1774   */\n    tag_13:\n        /* \"#utility.yul\":1504:1510   */\n      0x00\n        /* \"#utility.yul\":1553:1555   */\n      0x20\n        /* \"#utility.yul\":1541:1550   */\n      dup3\n        /* \"#utility.yul\":1532:1539   */\n      dup5\n        /* \"#utility.yul\":1528:1551   */\n      sub\n        /* \"#utility.yul\":1524:1556   */\n      slt\n        /* \"#utility.yul\":1521:1640   */\n      iszero\n      tag_88\n      jumpi\n        /* \"#utility.yul\":1559:1638   */\n      tag_89\n      tag_82\n      jump\t// in\n    tag_89:\n        /* \"#utility.yul\":1521:1640   */\n    tag_88:\n        /* \"#utility.yul\":1679:1680   */\n      0x00\n        /* \"#utility.yul\":1704:1757   */\n      tag_90\n        /* \"#utility.yul\":1749:1756   */\n      dup5\n        /* \"#utility.yul\":1740:1746   */\n      dup3\n        /* \"#utility.yul\":1729:1738   */\n      dup6\n        /* \"#utility.yul\":1725:1747   */\n      add\n        /* \"#utility.yul\":1704:1757   */\n      tag_75\n      jump\t// in\n    tag_90:\n        /* \"#utility.yul\":1694:1757   */\n      swap2\n      pop\n        /* \"#utility.yul\":1650:1767   */\n      pop\n        /* \"#utility.yul\":1445:1774   */\n      swap3\n      swap2\n      pop\n      pop\n      jump\t// out\n        /* \"#utility.yul\":1780:1976   */\n    tag_91:\n        /* \"#utility.yul\":1869:1879   */\n      0x00\n        /* \"#utility.yul\":1904:1970   */\n      tag_93\n        /* \"#utility.yul\":1966:1969   */\n      dup4\n        /* \"#utility.yul\":1958:1964   */\n      dup4\n        /* \"#utility.yul\":1904:1970   */\n      tag_94\n      jump\t// in\n    tag_93:\n        /* \"#utility.yul\":1890:1970   */\n      swap1\n      pop\n        /* \"#utility.yul\":1780:1976   */\n      swap3\n      swap2\n      pop\n      pop\n      jump\t// out\n        /* \"#utility.yul\":1982:2100   */\n    tag_95:\n        /* \"#utility.yul\":2069:2093   */\n      tag_97\n        /* \"#utility.yul\":2087:2092   */\n      dup2\n        /* \"#utility.yul\":2069:2093   */\n      tag_98\n      jump\t// in\n    tag_97:\n        /* \"#utility.yul\":2064:2067   */\n      dup3\n        /* \"#utility.yul\":2057:2094   */\n      mstore\n        /* \"#utility.yul\":1982:2100   */\n      pop\n      pop\n      jump\t// out\n        /* \"#utility.yul\":2134:3125   */\n    tag_99:\n        /* \"#utility.yul\":2273:2276   */\n      0x00\n        /* \"#utility.yul\":2302:2366   */\n      tag_101\n        /* \"#utility.yul\":2360:2365   */\n      dup3\n        /* \"#utility.yul\":2302:2366   */\n      tag_102\n      jump\t// in\n    tag_101:\n        /* \"#utility.yul\":2382:2478   */\n      tag_103\n        /* \"#utility.yul\":2471:2477   */\n      dup2\n        /* \"#utility.yul\":2466:2469   */\n      dup6\n        /* \"#utility.yul\":2382:2478   */\n      tag_104\n      jump\t// in\n    tag_103:\n        /* \"#utility.yul\":2375:2478   */\n      swap4\n      pop\n        /* \"#utility.yul\":2504:2507   */\n      dup4\n        /* \"#utility.yul\":2549:2553   */\n      0x20\n        /* \"#utility.yul\":2541:2547   */\n      dup3\n        /* \"#utility.yul\":2537:2554   */\n      mul\n        /* \"#utility.yul\":2532:2535   */\n      dup6\n        /* \"#utility.yul\":2528:2555   */\n      add\n        /* \"#utility.yul\":2579:2645   */\n      tag_105\n        /* \"#utility.yul\":2639:2644   */\n      dup6\n        /* \"#utility.yul\":2579:2645   */\n      tag_106\n      jump\t// in\n    tag_105:\n        /* \"#utility.yul\":2668:2675   */\n      dup1\n        /* \"#utility.yul\":2699:2700   */\n      0x00\n        /* \"#utility.yul\":2684:3080   */\n    tag_107:\n        /* \"#utility.yul\":2709:2715   */\n      dup6\n        /* \"#utility.yul\":2706:2707   */\n      dup2\n        /* \"#utility.yul\":2703:2716   */\n      lt\n        /* \"#utility.yul\":2684:3080   */\n      iszero\n      tag_109\n      jumpi\n        /* \"#utility.yul\":2780:2789   */\n      dup5\n        /* \"#utility.yul\":2774:2778   */\n      dup5\n        /* \"#utility.yul\":2770:2790   */\n      sub\n        /* \"#utility.yul\":2765:2768   */\n      dup10\n        /* \"#utility.yul\":2758:2791   */\n      mstore\n        /* \"#utility.yul\":2831:2837   */\n      dup2\n        /* \"#utility.yul\":2825:2838   */\n      mload\n        /* \"#utility.yul\":2859:2943   */\n      tag_110\n        /* \"#utility.yul\":2938:2942   */\n      dup6\n        /* \"#utility.yul\":2923:2936   */\n      dup3\n        /* \"#utility.yul\":2859:2943   */\n      tag_91\n      jump\t// in\n    tag_110:\n        /* \"#utility.yul\":2851:2943   */\n      swap5\n      pop\n        /* \"#utility.yul\":2966:3036   */\n      tag_111\n        /* \"#utility.yul\":3029:3035   */\n      dup4\n        /* \"#utility.yul\":2966:3036   */\n      tag_112\n      jump\t// in\n    tag_111:\n        /* \"#utility.yul\":2956:3036   */\n      swap3\n      pop\n        /* \"#utility.yul\":3065:3069   */\n      0x20\n        /* \"#utility.yul\":3060:3063   */\n      dup11\n        /* \"#utility.yul\":3056:3070   */\n      add\n        /* \"#utility.yul\":3049:3070   */\n      swap10\n      pop\n        /* \"#utility.yul\":2744:3080   */\n      pop\n        /* \"#utility.yul\":2731:2732   */\n      0x01\n        /* \"#utility.yul\":2728:2729   */\n      dup2\n        /* \"#utility.yul\":2724:2733   */\n      add\n        /* \"#utility.yul\":2719:2733   */\n      swap1\n      pop\n        /* \"#utility.yul\":2684:3080   */\n      jump(tag_107)\n    tag_109:\n        /* \"#utility.yul\":2688:2702   */\n      pop\n        /* \"#utility.yul\":3096:3100   */\n      dup3\n        /* \"#utility.yul\":3089:3100   */\n      swap8\n      pop\n        /* \"#utility.yul\":3116:3119   */\n      dup8\n        /* \"#utility.yul\":3109:3119   */\n      swap6\n      pop\n        /* \"#utility.yul\":2278:3125   */\n      pop\n      pop\n      pop\n      pop\n      pop\n        /* \"#utility.yul\":2134:3125   */\n      swap3\n      swap2\n      pop\n      pop\n      jump\t// out\n        /* \"#utility.yul\":3131:3475   */\n    tag_94:\n        /* \"#utility.yul\":3209:3212   */\n      0x00\n        /* \"#utility.yul\":3237:3276   */\n      tag_114\n        /* \"#utility.yul\":3270:3275   */\n      dup3\n        /* \"#utility.yul\":3237:3276   */\n      tag_115\n      jump\t// in\n    tag_114:\n        /* \"#utility.yul\":3292:3353   */\n      tag_116\n        /* \"#utility.yul\":3346:3352   */\n      dup2\n        /* \"#utility.yul\":3341:3344   */\n      dup6\n        /* \"#utility.yul\":3292:3353   */\n      tag_117\n      jump\t// in\n    tag_116:\n        /* \"#utility.yul\":3285:3353   */\n      swap4\n      pop\n        /* \"#utility.yul\":3362:3414   */\n      tag_118\n        /* \"#utility.yul\":3407:3413   */\n      dup2\n        /* \"#utility.yul\":3402:3405   */\n      dup6\n        /* \"#utility.yul\":3395:3399   */\n      0x20\n        /* \"#utility.yul\":3388:3393   */\n      dup7\n        /* \"#utility.yul\":3384:3400   */\n      add\n        /* \"#utility.yul\":3362:3414   */\n      tag_119\n      jump\t// in\n    tag_118:\n        /* \"#utility.yul\":3439:3468   */\n      tag_120\n        /* \"#utility.yul\":3461:3467   */\n      dup2\n        /* \"#utility.yul\":3439:3468   */\n      tag_121\n      jump\t// in\n    tag_120:\n        /* \"#utility.yul\":3434:3437   */\n      dup5\n        /* \"#utility.yul\":3430:3469   */\n      add\n        /* \"#utility.yul\":3423:3469   */\n      swap2\n      pop\n        /* \"#utility.yul\":3213:3475   */\n      pop\n        /* \"#utility.yul\":3131:3475   */\n      swap3\n      swap2\n      pop\n      pop\n      jump\t// out\n        /* \"#utility.yul\":3481:3845   */\n    tag_122:\n        /* \"#utility.yul\":3569:3572   */\n      0x00\n        /* \"#utility.yul\":3597:3636   */\n      tag_124\n        /* \"#utility.yul\":3630:3635   */\n      dup3\n        /* \"#utility.yul\":3597:3636   */\n      tag_115\n      jump\t// in\n    tag_124:\n        /* \"#utility.yul\":3652:3723   */\n      tag_125\n        /* \"#utility.yul\":3716:3722   */\n      dup2\n        /* \"#utility.yul\":3711:3714   */\n      dup6\n        /* \"#utility.yul\":3652:3723   */\n      tag_126\n      jump\t// in\n    tag_125:\n        /* \"#utility.yul\":3645:3723   */\n      swap4\n      pop\n        /* \"#utility.yul\":3732:3784   */\n      tag_127\n        /* \"#utility.yul\":3777:3783   */\n      dup2\n        /* \"#utility.yul\":3772:3775   */\n      dup6\n        /* \"#utility.yul\":3765:3769   */\n      0x20\n        /* \"#utility.yul\":3758:3763   */\n      dup7\n        /* \"#utility.yul\":3754:3770   */\n      add\n        /* \"#utility.yul\":3732:3784   */\n      tag_119\n      jump\t// in\n    tag_127:\n        /* \"#utility.yul\":3809:3838   */\n      tag_128\n        /* \"#utility.yul\":3831:3837   */\n      dup2\n        /* \"#utility.yul\":3809:3838   */\n      tag_121\n      jump\t// in\n    tag_128:\n        /* \"#utility.yul\":3804:3807   */\n      dup5\n        /* \"#utility.yul\":3800:3839   */\n      add\n        /* \"#utility.yul\":3793:3839   */\n      swap2\n      pop\n        /* \"#utility.yul\":3573:3845   */\n      pop\n        /* \"#utility.yul\":3481:3845   */\n      swap3\n      swap2\n      pop\n      pop\n      jump\t// out\n        /* \"#utility.yul\":3851:3969   */\n    tag_129:\n        /* \"#utility.yul\":3938:3962   */\n      tag_131\n        /* \"#utility.yul\":3956:3961   */\n      dup2\n        /* \"#utility.yul\":3938:3962   */\n      tag_132\n      jump\t// in\n    tag_131:\n        /* \"#utility.yul\":3933:3936   */\n      dup3\n        /* \"#utility.yul\":3926:3963   */\n      mstore\n        /* \"#utility.yul\":3851:3969   */\n      pop\n      pop\n      jump\t// out\n        /* \"#utility.yul\":3975:4417   */\n    tag_20:\n        /* \"#utility.yul\":4124:4128   */\n      0x00\n        /* \"#utility.yul\":4162:4164   */\n      0x60\n        /* \"#utility.yul\":4151:4160   */\n      dup3\n        /* \"#utility.yul\":4147:4165   */\n      add\n        /* \"#utility.yul\":4139:4165   */\n      swap1\n      pop\n        /* \"#utility.yul\":4175:4246   */\n      tag_134\n        /* \"#utility.yul\":4243:4244   */\n      0x00\n        /* \"#utility.yul\":4232:4241   */\n      dup4\n        /* \"#utility.yul\":4228:4245   */\n      add\n        /* \"#utility.yul\":4219:4225   */\n      dup7\n        /* \"#utility.yul\":4175:4246   */\n      tag_95\n      jump\t// in\n    tag_134:\n        /* \"#utility.yul\":4256:4328   */\n      tag_135\n        /* \"#utility.yul\":4324:4326   */\n      0x20\n        /* \"#utility.yul\":4313:4322   */\n      dup4\n        /* \"#utility.yul\":4309:4327   */\n      add\n        /* \"#utility.yul\":4300:4306   */\n      dup6\n        /* \"#utility.yul\":4256:4328   */\n      tag_129\n      jump\t// in\n    tag_135:\n        /* \"#utility.yul\":4338:4410   */\n      tag_136\n        /* \"#utility.yul\":4406:4408   */\n      0x40\n        /* \"#utility.yul\":4395:4404   */\n      dup4\n        /* \"#utility.yul\":4391:4409   */\n      add\n        /* \"#utility.yul\":4382:4388   */\n      dup5\n        /* \"#utility.yul\":4338:4410   */\n      tag_129\n      jump\t// in\n    tag_136:\n        /* \"#utility.yul\":3975:4417   */\n      swap5\n      swap4\n      pop\n      pop\n      pop\n      pop\n      jump\t// out\n        /* \"#utility.yul\":4423:4836   */\n    tag_24:\n        /* \"#utility.yul\":4586:4590   */\n      0x00\n        /* \"#utility.yul\":4624:4626   */\n      0x20\n        /* \"#utility.yul\":4613:4622   */\n      dup3\n        /* \"#utility.yul\":4609:4627   */\n      add\n        /* \"#utility.yul\":4601:4627   */\n      swap1\n      pop\n        /* \"#utility.yul\":4673:4682   */\n      dup2\n        /* \"#utility.yul\":4667:4671   */\n      dup2\n        /* \"#utility.yul\":4663:4683   */\n      sub\n        /* \"#utility.yul\":4659:4660   */\n      0x00\n        /* \"#utility.yul\":4648:4657   */\n      dup4\n        /* \"#utility.yul\":4644:4661   */\n      add\n        /* \"#utility.yul\":4637:4684   */\n      mstore\n        /* \"#utility.yul\":4701:4829   */\n      tag_138\n        /* \"#utility.yul\":4824:4828   */\n      dup2\n        /* \"#utility.yul\":4815:4821   */\n      dup5\n        /* \"#utility.yul\":4701:4829   */\n      tag_99\n      jump\t// in\n    tag_138:\n        /* \"#utility.yul\":4693:4829   */\n      swap1\n      pop\n        /* \"#utility.yul\":4423:4836   */\n      swap3\n      swap2\n      pop\n      pop\n      jump\t// out\n        /* \"#utility.yul\":4842:5155   */\n    tag_16:\n        /* \"#utility.yul\":4955:4959   */\n      0x00\n        /* \"#utility.yul\":4993:4995   */\n      0x20\n        /* \"#utility.yul\":4982:4991   */\n      dup3\n        /* \"#utility.yul\":4978:4996   */\n      add\n        /* \"#utility.yul\":4970:4996   */\n      swap1\n      pop\n        /* \"#utility.yul\":5042:5051   */\n      dup2\n        /* \"#utility.yul\":5036:5040   */\n      dup2\n        /* \"#utility.yul\":5032:5052   */\n      sub\n        /* \"#utility.yul\":5028:5029   */\n      0x00\n        /* \"#utility.yul\":5017:5026   */\n      dup4\n        /* \"#utility.yul\":5013:5030   */\n      add\n        /* \"#utility.yul\":5006:5053   */\n      mstore\n        /* \"#utility.yul\":5070:5148   */\n      tag_140\n        /* \"#utility.yul\":5143:5147   */\n      dup2\n        /* \"#utility.yul\":5134:5140   */\n      dup5\n        /* \"#utility.yul\":5070:5148   */\n      tag_122\n      jump\t// in\n    tag_140:\n        /* \"#utility.yul\":5062:5148   */\n      swap1\n      pop\n        /* \"#utility.yul\":4842:5155   */\n      swap3\n      swap2\n      pop\n      pop\n      jump\t// out\n        /* \"#utility.yul\":5161:5290   */\n    tag_63:\n        /* \"#utility.yul\":5195:5201   */\n      0x00\n        /* \"#utility.yul\":5222:5242   */\n      tag_142\n      tag_143\n      jump\t// in\n    tag_142:\n        /* \"#utility.yul\":5212:5242   */\n      swap1\n      pop\n        /* \"#utility.yul\":5251:5284   */\n      tag_144\n        /* \"#utility.yul\":5279:5283   */\n      dup3\n        /* \"#utility.yul\":5271:5277   */\n      dup3\n        /* \"#utility.yul\":5251:5284   */\n      tag_145\n      jump\t// in\n    tag_144:\n        /* \"#utility.yul\":5161:5290   */\n      swap2\n      swap1\n      pop\n      jump\t// out\n        /* \"#utility.yul\":5296:5371   */\n    tag_143:\n        /* \"#utility.yul\":5329:5335   */\n      0x00\n        /* \"#utility.yul\":5362:5364   */\n      0x40\n        /* \"#utility.yul\":5356:5365   */\n      mload\n        /* \"#utility.yul\":5346:5365   */\n      swap1\n      pop\n        /* \"#utility.yul\":5296:5371   */\n      swap1\n      jump\t// out\n        /* \"#utility.yul\":5377:5685   */\n    tag_62:\n        /* \"#utility.yul\":5439:5443   */\n      0x00\n        /* \"#utility.yul\":5529:5547   */\n      0xffffffffffffffff\n        /* \"#utility.yul\":5521:5527   */\n      dup3\n        /* \"#utility.yul\":5518:5548   */\n      gt\n        /* \"#utility.yul\":5515:5571   */\n      iszero\n      tag_148\n      jumpi\n        /* \"#utility.yul\":5551:5569   */\n      tag_149\n      tag_150\n      jump\t// in\n    tag_149:\n        /* \"#utility.yul\":5515:5571   */\n    tag_148:\n        /* \"#utility.yul\":5589:5618   */\n      tag_151\n        /* \"#utility.yul\":5611:5617   */\n      dup3\n        /* \"#utility.yul\":5589:5618   */\n      tag_121\n      jump\t// in\n    tag_151:\n        /* \"#utility.yul\":5581:5618   */\n      swap1\n      pop\n        /* \"#utility.yul\":5673:5677   */\n      0x20\n        /* \"#utility.yul\":5667:5671   */\n      dup2\n        /* \"#utility.yul\":5663:5678   */\n      add\n        /* \"#utility.yul\":5655:5678   */\n      swap1\n      pop\n        /* \"#utility.yul\":5377:5685   */\n      swap2\n      swap1\n      pop\n      jump\t// out\n        /* \"#utility.yul\":5691:5833   */\n    tag_106:\n        /* \"#utility.yul\":5768:5772   */\n      0x00\n        /* \"#utility.yul\":5791:5794   */\n      dup2\n        /* \"#utility.yul\":5783:5794   */\n      swap1\n      pop\n        /* \"#utility.yul\":5821:5825   */\n      0x20\n        /* \"#utility.yul\":5816:5819   */\n      dup3\n        /* \"#utility.yul\":5812:5826   */\n      add\n        /* \"#utility.yul\":5804:5826   */\n      swap1\n      pop\n        /* \"#utility.yul\":5691:5833   */\n      swap2\n      swap1\n      pop\n      jump\t// out\n        /* \"#utility.yul\":5839:5963   */\n    tag_102:\n        /* \"#utility.yul\":5916:5922   */\n      0x00\n        /* \"#utility.yul\":5950:5955   */\n      dup2\n        /* \"#utility.yul\":5944:5956   */\n      mload\n        /* \"#utility.yul\":5934:5956   */\n      swap1\n      pop\n        /* \"#utility.yul\":5839:5963   */\n      swap2\n      swap1\n      pop\n      jump\t// out\n        /* \"#utility.yul\":5969:6068   */\n    tag_115:\n        /* \"#utility.yul\":6021:6027   */\n      0x00\n        /* \"#utility.yul\":6055:6060   */\n      dup2\n        /* \"#utility.yul\":6049:6061   */\n      mload\n        /* \"#utility.yul\":6039:6061   */\n      swap1\n      pop\n        /* \"#utility.yul\":5969:6068   */\n      swap2\n      swap1\n      pop\n      jump\t// out\n        /* \"#utility.yul\":6074:6197   */\n    tag_112:\n        /* \"#utility.yul\":6154:6158   */\n      0x00\n        /* \"#utility.yul\":6186:6190   */\n      0x20\n        /* \"#utility.yul\":6181:6184   */\n      dup3\n        /* \"#utility.yul\":6177:6191   */\n      add\n        /* \"#utility.yul\":6169:6191   */\n      swap1\n      pop\n        /* \"#utility.yul\":6074:6197   */\n      swap2\n      swap1\n      pop\n      jump\t// out\n        /* \"#utility.yul\":6203:6397   */\n    tag_104:\n        /* \"#utility.yul\":6312:6323   */\n      0x00\n        /* \"#utility.yul\":6346:6352   */\n      dup3\n        /* \"#utility.yul\":6341:6344   */\n      dup3\n        /* \"#utility.yul\":6334:6353   */\n      mstore\n        /* \"#utility.yul\":6386:6390   */\n      0x20\n        /* \"#utility.yul\":6381:6384   */\n      dup3\n        /* \"#utility.yul\":6377:6391   */\n      add\n        /* \"#utility.yul\":6362:6391   */\n      swap1\n      pop\n        /* \"#utility.yul\":6203:6397   */\n      swap3\n      swap2\n      pop\n      pop\n      jump\t// out\n        /* \"#utility.yul\":6403:6562   */\n    tag_117:\n        /* \"#utility.yul\":6477:6488   */\n      0x00\n        /* \"#utility.yul\":6511:6517   */\n      dup3\n        /* \"#utility.yul\":6506:6509   */\n      dup3\n        /* \"#utility.yul\":6499:6518   */\n      mstore\n        /* \"#utility.yul\":6551:6555   */\n      0x20\n        /* \"#utility.yul\":6546:6549   */\n      dup3\n        /* \"#utility.yul\":6542:6556   */\n      add\n        /* \"#utility.yul\":6527:6556   */\n      swap1\n      pop\n        /* \"#utility.yul\":6403:6562   */\n      swap3\n      swap2\n      pop\n      pop\n      jump\t// out\n        /* \"#utility.yul\":6568:6737   */\n    tag_126:\n        /* \"#utility.yul\":6652:6663   */\n      0x00\n        /* \"#utility.yul\":6686:6692   */\n      dup3\n        /* \"#utility.yul\":6681:6684   */\n      dup3\n        /* \"#utility.yul\":6674:6693   */\n      mstore\n        /* \"#utility.yul\":6726:6730   */\n      0x20\n        /* \"#utility.yul\":6721:6724   */\n      dup3\n        /* \"#utility.yul\":6717:6731   */\n      add\n        /* \"#utility.yul\":6702:6731   */\n      swap1\n      pop\n        /* \"#utility.yul\":6568:6737   */\n      swap3\n      swap2\n      pop\n      pop\n      jump\t// out\n        /* \"#utility.yul\":6743:6839   */\n    tag_98:\n        /* \"#utility.yul\":6780:6787   */\n      0x00\n        /* \"#utility.yul\":6809:6833   */\n      tag_160\n        /* \"#utility.yul\":6827:6832   */\n      dup3\n        /* \"#utility.yul\":6809:6833   */\n      tag_161\n      jump\t// in\n    tag_160:\n        /* \"#utility.yul\":6798:6833   */\n      swap1\n      pop\n        /* \"#utility.yul\":6743:6839   */\n      swap2\n      swap1\n      pop\n      jump\t// out\n        /* \"#utility.yul\":6845:6971   */\n    tag_161:\n        /* \"#utility.yul\":6882:6889   */\n      0x00\n        /* \"#utility.yul\":6922:6964   */\n      0xffffffffffffffffffffffffffffffffffffffff\n        /* \"#utility.yul\":6915:6920   */\n      dup3\n        /* \"#utility.yul\":6911:6965   */\n      and\n        /* \"#utility.yul\":6900:6965   */\n      swap1\n      pop\n        /* \"#utility.yul\":6845:6971   */\n      swap2\n      swap1\n      pop\n      jump\t// out\n        /* \"#utility.yul\":6977:7054   */\n    tag_132:\n        /* \"#utility.yul\":7014:7021   */\n      0x00\n        /* \"#utility.yul\":7043:7048   */\n      dup2\n        /* \"#utility.yul\":7032:7048   */\n      swap1\n      pop\n        /* \"#utility.yul\":6977:7054   */\n      swap2\n      swap1\n      pop\n      jump\t// out\n        /* \"#utility.yul\":7060:7214   */\n    tag_68:\n        /* \"#utility.yul\":7144:7150   */\n      dup3\n        /* \"#utility.yul\":7139:7142   */\n      dup2\n        /* \"#utility.yul\":7134:7137   */\n      dup4\n        /* \"#utility.yul\":7121:7151   */\n      calldatacopy\n        /* \"#utility.yul\":7206:7207   */\n      0x00\n        /* \"#utility.yul\":7197:7203   */\n      dup4\n        /* \"#utility.yul\":7192:7195   */\n      dup4\n        /* \"#utility.yul\":7188:7204   */\n      add\n        /* \"#utility.yul\":7181:7208   */\n      mstore\n        /* \"#utility.yul\":7060:7214   */\n      pop\n      pop\n      pop\n      jump\t// out\n        /* \"#utility.yul\":7220:7527   */\n    tag_119:\n        /* \"#utility.yul\":7288:7289   */\n      0x00\n        /* \"#utility.yul\":7298:7411   */\n    tag_166:\n        /* \"#utility.yul\":7312:7318   */\n      dup4\n        /* \"#utility.yul\":7309:7310   */\n      dup2\n        /* \"#utility.yul\":7306:7319   */\n      lt\n        /* \"#utility.yul\":7298:7411   */\n      iszero\n      tag_168\n      jumpi\n        /* \"#utility.yul\":7397:7398   */\n      dup1\n        /* \"#utility.yul\":7392:7395   */\n      dup3\n        /* \"#utility.yul\":7388:7399   */\n      add\n        /* \"#utility.yul\":7382:7400   */\n      mload\n        /* \"#utility.yul\":7378:7379   */\n      dup2\n        /* \"#utility.yul\":7373:7376   */\n      dup5\n        /* \"#utility.yul\":7369:7380   */\n      add\n        /* \"#utility.yul\":7362:7401   */\n      mstore\n        /* \"#utility.yul\":7334:7336   */\n      0x20\n        /* \"#utility.yul\":7331:7332   */\n      dup2\n        /* \"#utility.yul\":7327:7337   */\n      add\n        /* \"#utility.yul\":7322:7337   */\n      swap1\n      pop\n        /* \"#utility.yul\":7298:7411   */\n      jump(tag_166)\n    tag_168:\n        /* \"#utility.yul\":7429:7435   */\n      dup4\n        /* \"#utility.yul\":7426:7427   */\n      dup2\n        /* \"#utility.yul\":7423:7436   */\n      gt\n        /* \"#utility.yul\":7420:7521   */\n      iszero\n      tag_169\n      jumpi\n        /* \"#utility.yul\":7509:7510   */\n      0x00\n        /* \"#utility.yul\":7500:7506   */\n      dup5\n        /* \"#utility.yul\":7495:7498   */\n      dup5\n        /* \"#utility.yul\":7491:7507   */\n      add\n        /* \"#utility.yul\":7484:7511   */\n      mstore\n        /* \"#utility.yul\":7420:7521   */\n    tag_169:\n        /* \"#utility.yul\":7269:7527   */\n      pop\n        /* \"#utility.yul\":7220:7527   */\n      pop\n      pop\n      pop\n      jump\t// out\n        /* \"#utility.yul\":7533:7853   */\n    tag_32:\n        /* \"#utility.yul\":7577:7583   */\n      0x00\n        /* \"#utility.yul\":7614:7615   */\n      0x02\n        /* \"#utility.yul\":7608:7612   */\n      dup3\n        /* \"#utility.yul\":7604:7616   */\n      div\n        /* \"#utility.yul\":7594:7616   */\n      swap1\n      pop\n        /* \"#utility.yul\":7661:7662   */\n      0x01\n        /* \"#utility.yul\":7655:7659   */\n      dup3\n        /* \"#utility.yul\":7651:7663   */\n      and\n        /* \"#utility.yul\":7682:7700   */\n      dup1\n        /* \"#utility.yul\":7672:7753   */\n      tag_171\n      jumpi\n        /* \"#utility.yul\":7738:7742   */\n      0x7f\n        /* \"#utility.yul\":7730:7736   */\n      dup3\n        /* \"#utility.yul\":7726:7743   */\n      and\n        /* \"#utility.yul\":7716:7743   */\n      swap2\n      pop\n        /* \"#utility.yul\":7672:7753   */\n    tag_171:\n        /* \"#utility.yul\":7800:7802   */\n      0x20\n        /* \"#utility.yul\":7792:7798   */\n      dup3\n        /* \"#utility.yul\":7789:7803   */\n      lt\n        /* \"#utility.yul\":7769:7787   */\n      dup2\n        /* \"#utility.yul\":7766:7804   */\n      eq\n        /* \"#utility.yul\":7763:7847   */\n      iszero\n      tag_172\n      jumpi\n        /* \"#utility.yul\":7819:7837   */\n      tag_173\n      tag_174\n      jump\t// in\n    tag_173:\n        /* \"#utility.yul\":7763:7847   */\n    tag_172:\n        /* \"#utility.yul\":7584:7853   */\n      pop\n        /* \"#utility.yul\":7533:7853   */\n      swap2\n      swap1\n      pop\n      jump\t// out\n        /* \"#utility.yul\":7859:8140   */\n    tag_145:\n        /* \"#utility.yul\":7942:7969   */\n      tag_176\n        /* \"#utility.yul\":7964:7968   */\n      dup3\n        /* \"#utility.yul\":7942:7969   */\n      tag_121\n      jump\t// in\n    tag_176:\n        /* \"#utility.yul\":7934:7940   */\n      dup2\n        /* \"#utility.yul\":7930:7970   */\n      add\n        /* \"#utility.yul\":8072:8078   */\n      dup2\n        /* \"#utility.yul\":8060:8070   */\n      dup2\n        /* \"#utility.yul\":8057:8079   */\n      lt\n        /* \"#utility.yul\":8036:8054   */\n      0xffffffffffffffff\n        /* \"#utility.yul\":8024:8034   */\n      dup3\n        /* \"#utility.yul\":8021:8055   */\n      gt\n        /* \"#utility.yul\":8018:8080   */\n      or\n        /* \"#utility.yul\":8015:8103   */\n      iszero\n      tag_177\n      jumpi\n        /* \"#utility.yul\":8083:8101   */\n      tag_178\n      tag_150\n      jump\t// in\n    tag_178:\n        /* \"#utility.yul\":8015:8103   */\n    tag_177:\n        /* \"#utility.yul\":8123:8133   */\n      dup1\n        /* \"#utility.yul\":8119:8121   */\n      0x40\n        /* \"#utility.yul\":8112:8134   */\n      mstore\n        /* \"#utility.yul\":7902:8140   */\n      pop\n        /* \"#utility.yul\":7859:8140   */\n      pop\n      pop\n      jump\t// out\n        /* \"#utility.yul\":8146:8326   */\n    tag_174:\n        /* \"#utility.yul\":8194:8271   */\n      0x4e487b7100000000000000000000000000000000000000000000000000000000\n        /* \"#utility.yul\":8191:8192   */\n      0x00\n        /* \"#utility.yul\":8184:8272   */\n      mstore\n        /* \"#utility.yul\":8291:8295   */\n      0x22\n        /* \"#utility.yul\":8288:8289   */\n      0x04\n        /* \"#utility.yul\":8281:8296   */\n      mstore\n        /* \"#utility.yul\":8315:8319   */\n      0x24\n        /* \"#utility.yul\":8312:8313   */\n      0x00\n        /* \"#utility.yul\":8305:8320   */\n      revert\n        /* \"#utility.yul\":8332:8512   */\n    tag_150:\n        /* \"#utility.yul\":8380:8457   */\n      0x4e487b7100000000000000000000000000000000000000000000000000000000\n        /* \"#utility.yul\":8377:8378   */\n      0x00\n        /* \"#utility.yul\":8370:8458   */\n      mstore\n        /* \"#utility.yul\":8477:8481   */\n      0x41\n        /* \"#utility.yul\":8474:8475   */\n      0x04\n        /* \"#utility.yul\":8467:8482   */\n      mstore\n        /* \"#utility.yul\":8501:8505   */\n      0x24\n        /* \"#utility.yul\":8498:8499   */\n      0x00\n        /* \"#utility.yul\":8491:8506   */\n      revert\n        /* \"#utility.yul\":8518:8635   */\n    tag_73:\n        /* \"#utility.yul\":8627:8628   */\n      0x00\n        /* \"#utility.yul\":8624:8625   */\n      dup1\n        /* \"#utility.yul\":8617:8629   */\n      revert\n        /* \"#utility.yul\":8641:8758   */\n    tag_66:\n        /* \"#utility.yul\":8750:8751   */\n      0x00\n        /* \"#utility.yul\":8747:8748   */\n      dup1\n        /* \"#utility.yul\":8740:8752   */\n      revert\n        /* \"#utility.yul\":8764:8881   */\n    tag_85:\n        /* \"#utility.yul\":8873:8874   */\n      0x00\n        /* \"#utility.yul\":8870:8871   */\n      dup1\n        /* \"#utility.yul\":8863:8875   */\n      revert\n        /* \"#utility.yul\":8887:9004   */\n    tag_82:\n        /* \"#utility.yul\":8996:8997   */\n      0x00\n        /* \"#utility.yul\":8993:8994   */\n      dup1\n        /* \"#utility.yul\":8986:8998   */\n      revert\n        /* \"#utility.yul\":9010:9112   */\n    tag_121:\n        /* \"#utility.yul\":9051:9057   */\n      0x00\n        /* \"#utility.yul\":9102:9104   */\n      0x1f\n        /* \"#utility.yul\":9098:9105   */\n      not\n        /* \"#utility.yul\":9093:9095   */\n      0x1f\n        /* \"#utility.yul\":9086:9091   */\n      dup4\n        /* \"#utility.yul\":9082:9096   */\n      add\n        /* \"#utility.yul\":9078:9106   */\n      and\n        /* \"#utility.yul\":9068:9106   */\n      swap1\n      pop\n        /* \"#utility.yul\":9010:9112   */\n      swap2\n      swap1\n      pop\n      jump\t// out\n        /* \"#utility.yul\":9118:9240   */\n    tag_78:\n        /* \"#utility.yul\":9191:9215   */\n      tag_187\n        /* \"#utility.yul\":9209:9214   */\n      dup2\n        /* \"#utility.yul\":9191:9215   */\n      tag_132\n      jump\t// in\n    tag_187:\n        /* \"#utility.yul\":9184:9189   */\n      dup2\n        /* \"#utility.yul\":9181:9216   */\n      eq\n        /* \"#utility.yul\":9171:9234   */\n      tag_188\n      jumpi\n        /* \"#utility.yul\":9230:9231   */\n      0x00\n        /* \"#utility.yul\":9227:9228   */\n      dup1\n        /* \"#utility.yul\":9220:9232   */\n      revert\n        /* \"#utility.yul\":9171:9234   */\n    tag_188:\n        /* \"#utility.yul\":9118:9240   */\n      pop\n      jump\t// out\n\n    auxdata: 0xa26469706673582212207556f6386b124253c68e81566e5b1cb7a352ec4e0945587d4a6b24113997511964736f6c63430008070033\n}\n",
				"bytecode": {
					"linkReferences": {},
					"object": "608060405234801561001057600080fd5b50610862806100206000396000f3fe608060405234801561001057600080fd5b506004361061004c5760003560e01c8063672385621461005157806380c9419e1461006d578063c27fc3051461009d578063eb7e7f1a146100bd575b600080fd5b61006b600480360381019061006691906103eb565b6100db565b005b61008760048036038101906100829190610434565b61011a565b60405161009491906105d3565b60405180910390f35b6100a56101c6565b6040516100b49392919061057a565b60405180910390f35b6100c56101ea565b6040516100d291906105b1565b60405180910390f35b6000819080600181540180825580915050600190039060005260206000200160009091909190915090805190602001906101169291906102c3565b5050565b6000818154811061012a57600080fd5b9060005260206000200160009150905080546101459061072f565b80601f01602080910402602001604051908101604052809291908181526020018280546101719061072f565b80156101be5780601f10610193576101008083540402835291602001916101be565b820191906000526020600020905b8154815290600101906020018083116101a157829003601f168201915b505050505081565b60008060008033905060004290506000439050828282955095509550505050909192565b60606000805480602002602001604051908101604052809291908181526020016000905b828210156102ba57838290600052602060002001805461022d9061072f565b80601f01602080910402602001604051908101604052809291908181526020018280546102599061072f565b80156102a65780601f1061027b576101008083540402835291602001916102a6565b820191906000526020600020905b81548152906001019060200180831161028957829003601f168201915b50505050508152602001906001019061020e565b50505050905090565b8280546102cf9061072f565b90600052602060002090601f0160209004810192826102f15760008555610338565b82601f1061030a57805160ff1916838001178555610338565b82800160010185558215610338579182015b8281111561033757825182559160200191906001019061031c565b5b5090506103459190610349565b5090565b5b8082111561036257600081600090555060010161034a565b5090565b60006103796103748461061a565b6105f5565b905082815260208101848484011115610395576103946107f5565b5b6103a08482856106ed565b509392505050565b600082601f8301126103bd576103bc6107f0565b5b81356103cd848260208601610366565b91505092915050565b6000813590506103e581610815565b92915050565b600060208284031215610401576104006107ff565b5b600082013567ffffffffffffffff81111561041f5761041e6107fa565b5b61042b848285016103a8565b91505092915050565b60006020828403121561044a576104496107ff565b5b6000610458848285016103d6565b91505092915050565b600061046d83836104f9565b905092915050565b61047e816106b1565b82525050565b600061048f8261065b565b610499818561067e565b9350836020820285016104ab8561064b565b8060005b858110156104e757848403895281516104c88582610461565b94506104d383610671565b925060208a019950506001810190506104af565b50829750879550505050505092915050565b600061050482610666565b61050e818561068f565b935061051e8185602086016106fc565b61052781610804565b840191505092915050565b600061053d82610666565b61054781856106a0565b93506105578185602086016106fc565b61056081610804565b840191505092915050565b610574816106e3565b82525050565b600060608201905061058f6000830186610475565b61059c602083018561056b565b6105a9604083018461056b565b949350505050565b600060208201905081810360008301526105cb8184610484565b905092915050565b600060208201905081810360008301526105ed8184610532565b905092915050565b60006105ff610610565b905061060b8282610761565b919050565b6000604051905090565b600067ffffffffffffffff821115610635576106346107c1565b5b61063e82610804565b9050602081019050919050565b6000819050602082019050919050565b600081519050919050565b600081519050919050565b6000602082019050919050565b600082825260208201905092915050565b600082825260208201905092915050565b600082825260208201905092915050565b60006106bc826106c3565b9050919050565b600073ffffffffffffffffffffffffffffffffffffffff82169050919050565b6000819050919050565b82818337600083830152505050565b60005b8381101561071a5780820151818401526020810190506106ff565b83811115610729576000848401525b50505050565b6000600282049050600182168061074757607f821691505b6020821081141561075b5761075a610792565b5b50919050565b61076a82610804565b810181811067ffffffffffffffff82111715610789576107886107c1565b5b80604052505050565b7f4e487b7100000000000000000000000000000000000000000000000000000000600052602260045260246000fd5b7f4e487b7100000000000000000000000000000000000000000000000000000000600052604160045260246000fd5b600080fd5b600080fd5b600080fd5b600080fd5b6000601f19601f8301169050919050565b61081e816106e3565b811461082957600080fd5b5056fea26469706673582212207556f6386b124253c68e81566e5b1cb7a352ec4e0945587d4a6b24113997511964736f6c63430008070033",
					"opcodes": "PUSH1 0x80 PUSH1 0x40 MSTORE CALLVALUE DUP1 ISZERO PUSH2 0x10 JUMPI PUSH1 0x0 DUP1 REVERT JUMPDEST POP PUSH2 0x862 DUP1 PUSH2 0x20 PUSH1 0x0 CODECOPY PUSH1 0x0 RETURN INVALID PUSH1 0x80 PUSH1 0x40 MSTORE CALLVALUE DUP1 ISZERO PUSH2 0x10 JUMPI PUSH1 0x0 DUP1 REVERT JUMPDEST POP PUSH1 0x4 CALLDATASIZE LT PUSH2 0x4C JUMPI PUSH1 0x0 CALLDATALOAD PUSH1 0xE0 SHR DUP1 PUSH4 0x67238562 EQ PUSH2 0x51 JUMPI DUP1 PUSH4 0x80C9419E EQ PUSH2 0x6D JUMPI DUP1 PUSH4 0xC27FC305 EQ PUSH2 0x9D JUMPI DUP1 PUSH4 0xEB7E7F1A EQ PUSH2 0xBD JUMPI JUMPDEST PUSH1 0x0 DUP1 REVERT JUMPDEST PUSH2 0x6B PUSH1 0x4 DUP1 CALLDATASIZE SUB DUP2 ADD SWAP1 PUSH2 0x66 SWAP2 SWAP1 PUSH2 0x3EB JUMP JUMPDEST PUSH2 0xDB JUMP JUMPDEST STOP JUMPDEST PUSH2 0x87 PUSH1 0x4 DUP1 CALLDATASIZE SUB DUP2 ADD SWAP1 PUSH2 0x82 SWAP2 SWAP1 PUSH2 0x434 JUMP JUMPDEST PUSH2 0x11A JUMP JUMPDEST PUSH1 0x40 MLOAD PUSH2 0x94 SWAP2 SWAP1 PUSH2 0x5D3 JUMP JUMPDEST PUSH1 0x40 MLOAD DUP1 SWAP2 SUB SWAP1 RETURN JUMPDEST PUSH2 0xA5 PUSH2 0x1C6 JUMP JUMPDEST PUSH1 0x40 MLOAD PUSH2 0xB4 SWAP4 SWAP3 SWAP2 SWAP1 PUSH2 0x57A JUMP JUMPDEST PUSH1 0x40 MLOAD DUP1 SWAP2 SUB SWAP1 RETURN JUMPDEST PUSH2 0xC5 PUSH2 0x1EA JUMP JUMPDEST PUSH1 0x40 MLOAD PUSH2 0xD2 SWAP2 SWAP1 PUSH2 0x5B1 JUMP JUMPDEST PUSH1 0x40 MLOAD DUP1 SWAP2 SUB SWAP1 RETURN JUMPDEST PUSH1 0x0 DUP2 SWAP1 DUP1 PUSH1 0x1 DUP2 SLOAD ADD DUP1 DUP3 SSTORE DUP1 SWAP2 POP POP PUSH1 0x1 SWAP1 SUB SWAP1 PUSH1 0x0 MSTORE PUSH1 0x20 PUSH1 0x0 KECCAK256 ADD PUSH1 0x0 SWAP1 SWAP2 SWAP1 SWAP2 SWAP1 SWAP2 POP SWAP1 DUP1 MLOAD SWAP1 PUSH1 0x20 ADD SWAP1 PUSH2 0x116 SWAP3 SWAP2 SWAP1 PUSH2 0x2C3 JUMP JUMPDEST POP POP JUMP JUMPDEST PUSH1 0x0 DUP2 DUP2 SLOAD DUP2 LT PUSH2 0x12A JUMPI PUSH1 0x0 DUP1 REVERT JUMPDEST SWAP1 PUSH1 0x0 MSTORE PUSH1 0x20 PUSH1 0x0 KECCAK256 ADD PUSH1 0x0 SWAP2 POP SWAP1 POP DUP1 SLOAD PUSH2 0x145 SWAP1 PUSH2 0x72F JUMP JUMPDEST DUP1 PUSH1 0x1F ADD PUSH1 0x20 DUP1 SWAP2 DIV MUL PUSH1 0x20 ADD PUSH1 0x40 MLOAD SWAP1 DUP2 ADD PUSH1 0x40 MSTORE DUP1 SWAP3 SWAP2 SWAP1 DUP2 DUP2 MSTORE PUSH1 0x20 ADD DUP3 DUP1 SLOAD PUSH2 0x171 SWAP1 PUSH2 0x72F JUMP JUMPDEST DUP1 ISZERO PUSH2 0x1BE JUMPI DUP1 PUSH1 0x1F LT PUSH2 0x193 JUMPI PUSH2 0x100 DUP1 DUP4 SLOAD DIV MUL DUP4 MSTORE SWAP2 PUSH1 0x20 ADD SWAP2 PUSH2 0x1BE JUMP JUMPDEST DUP3 ADD SWAP2 SWAP1 PUSH1 0x0 MSTORE PUSH1 0x20 PUSH1 0x0 KECCAK256 SWAP1 JUMPDEST DUP2 SLOAD DUP2 MSTORE SWAP1 PUSH1 0x1 ADD SWAP1 PUSH1 0x20 ADD DUP1 DUP4 GT PUSH2 0x1A1 JUMPI DUP3 SWAP1 SUB PUSH1 0x1F AND DUP3 ADD SWAP2 JUMPDEST POP POP POP POP POP DUP2 JUMP JUMPDEST PUSH1 0x0 DUP1 PUSH1 0x0 DUP1 CALLER SWAP1 POP PUSH1 0x0 TIMESTAMP SWAP1 POP PUSH1 0x0 NUMBER SWAP1 POP DUP3 DUP3 DUP3 SWAP6 POP SWAP6 POP SWAP6 POP POP POP POP SWAP1 SWAP2 SWAP3 JUMP JUMPDEST PUSH1 0x60 PUSH1 0x0 DUP1 SLOAD DUP1 PUSH1 0x20 MUL PUSH1 0x20 ADD PUSH1 0x40 MLOAD SWAP1 DUP2 ADD PUSH1 0x40 MSTORE DUP1 SWAP3 SWAP2 SWAP1 DUP2 DUP2 MSTORE PUSH1 0x20 ADD PUSH1 0x0 SWAP1 JUMPDEST DUP3 DUP3 LT ISZERO PUSH2 0x2BA JUMPI DUP4 DUP3 SWAP1 PUSH1 0x0 MSTORE PUSH1 0x20 PUSH1 0x0 KECCAK256 ADD DUP1 SLOAD PUSH2 0x22D SWAP1 PUSH2 0x72F JUMP JUMPDEST DUP1 PUSH1 0x1F ADD PUSH1 0x20 DUP1 SWAP2 DIV MUL PUSH1 0x20 ADD PUSH1 0x40 MLOAD SWAP1 DUP2 ADD PUSH1 0x40 MSTORE DUP1 SWAP3 SWAP2 SWAP1 DUP2 DUP2 MSTORE PUSH1 0x20 ADD DUP3 DUP1 SLOAD PUSH2 0x259 SWAP1 PUSH2 0x72F JUMP JUMPDEST DUP1 ISZERO PUSH2 0x2A6 JUMPI DUP1 PUSH1 0x1F LT PUSH2 0x27B JUMPI PUSH2 0x100 DUP1 DUP4 SLOAD DIV MUL DUP4 MSTORE SWAP2 PUSH1 0x20 ADD SWAP2 PUSH2 0x2A6 JUMP JUMPDEST DUP3 ADD SWAP2 SWAP1 PUSH1 0x0 MSTORE PUSH1 0x20 PUSH1 0x0 KECCAK256 SWAP1 JUMPDEST DUP2 SLOAD DUP2 MSTORE SWAP1 PUSH1 0x1 ADD SWAP1 PUSH1 0x20 ADD DUP1 DUP4 GT PUSH2 0x289 JUMPI DUP3 SWAP1 SUB PUSH1 0x1F AND DUP3 ADD SWAP2 JUMPDEST POP POP POP POP POP DUP2 MSTORE PUSH1 0x20 ADD SWAP1 PUSH1 0x1 ADD SWAP1 PUSH2 0x20E JUMP JUMPDEST POP POP POP POP SWAP1 POP SWAP1 JUMP JUMPDEST DUP3 DUP1 SLOAD PUSH2 0x2CF SWAP1 PUSH2 0x72F JUMP JUMPDEST SWAP1 PUSH1 0x0 MSTORE PUSH1 0x20 PUSH1 0x0 KECCAK256 SWAP1 PUSH1 0x1F ADD PUSH1 0x20 SWAP1 DIV DUP2 ADD SWAP3 DUP3 PUSH2 0x2F1 JUMPI PUSH1 0x0 DUP6 SSTORE PUSH2 0x338 JUMP JUMPDEST DUP3 PUSH1 0x1F LT PUSH2 0x30A JUMPI DUP1 MLOAD PUSH1 0xFF NOT AND DUP4 DUP1 ADD OR DUP6 SSTORE PUSH2 0x338 JUMP JUMPDEST DUP3 DUP1 ADD PUSH1 0x1 ADD DUP6 SSTORE DUP3 ISZERO PUSH2 0x338 JUMPI SWAP2 DUP3 ADD JUMPDEST DUP3 DUP2 GT ISZERO PUSH2 0x337 JUMPI DUP3 MLOAD DUP3 SSTORE SWAP2 PUSH1 0x20 ADD SWAP2 SWAP1 PUSH1 0x1 ADD SWAP1 PUSH2 0x31C JUMP JUMPDEST JUMPDEST POP SWAP1 POP PUSH2 0x345 SWAP2 SWAP1 PUSH2 0x349 JUMP JUMPDEST POP SWAP1 JUMP JUMPDEST JUMPDEST DUP1 DUP3 GT ISZERO PUSH2 0x362 JUMPI PUSH1 0x0 DUP2 PUSH1 0x0 SWAP1 SSTORE POP PUSH1 0x1 ADD PUSH2 0x34A JUMP JUMPDEST POP SWAP1 JUMP JUMPDEST PUSH1 0x0 PUSH2 0x379 PUSH2 0x374 DUP5 PUSH2 0x61A JUMP JUMPDEST PUSH2 0x5F5 JUMP JUMPDEST SWAP1 POP DUP3 DUP2 MSTORE PUSH1 0x20 DUP2 ADD DUP5 DUP5 DUP5 ADD GT ISZERO PUSH2 0x395 JUMPI PUSH2 0x394 PUSH2 0x7F5 JUMP JUMPDEST JUMPDEST PUSH2 0x3A0 DUP5 DUP3 DUP6 PUSH2 0x6ED JUMP JUMPDEST POP SWAP4 SWAP3 POP POP POP JUMP JUMPDEST PUSH1 0x0 DUP3 PUSH1 0x1F DUP4 ADD SLT PUSH2 0x3BD JUMPI PUSH2 0x3BC PUSH2 0x7F0 JUMP JUMPDEST JUMPDEST DUP2 CALLDATALOAD PUSH2 0x3CD DUP5 DUP3 PUSH1 0x20 DUP7 ADD PUSH2 0x366 JUMP JUMPDEST SWAP2 POP POP SWAP3 SWAP2 POP POP JUMP JUMPDEST PUSH1 0x0 DUP2 CALLDATALOAD SWAP1 POP PUSH2 0x3E5 DUP2 PUSH2 0x815 JUMP JUMPDEST SWAP3 SWAP2 POP POP JUMP JUMPDEST PUSH1 0x0 PUSH1 0x20 DUP3 DUP5 SUB SLT ISZERO PUSH2 0x401 JUMPI PUSH2 0x400 PUSH2 0x7FF JUMP JUMPDEST JUMPDEST PUSH1 0x0 DUP3 ADD CALLDATALOAD PUSH8 0xFFFFFFFFFFFFFFFF DUP2 GT ISZERO PUSH2 0x41F JUMPI PUSH2 0x41E PUSH2 0x7FA JUMP JUMPDEST JUMPDEST PUSH2 0x42B DUP5 DUP3 DUP6 ADD PUSH2 0x3A8 JUMP JUMPDEST SWAP2 POP POP SWAP3 SWAP2 POP POP JUMP JUMPDEST PUSH1 0x0 PUSH1 0x20 DUP3 DUP5 SUB SLT ISZERO PUSH2 0x44A JUMPI PUSH2 0x449 PUSH2 0x7FF JUMP JUMPDEST JUMPDEST PUSH1 0x0 PUSH2 0x458 DUP5 DUP3 DUP6 ADD PUSH2 0x3D6 JUMP JUMPDEST SWAP2 POP POP SWAP3 SWAP2 POP POP JUMP JUMPDEST PUSH1 0x0 PUSH2 0x46D DUP4 DUP4 PUSH2 0x4F9 JUMP JUMPDEST SWAP1 POP SWAP3 SWAP2 POP POP JUMP JUMPDEST PUSH2 0x47E DUP2 PUSH2 0x6B1 JUMP JUMPDEST DUP3 MSTORE POP POP JUMP JUMPDEST PUSH1 0x0 PUSH2 0x48F DUP3 PUSH2 0x65B JUMP JUMPDEST PUSH2 0x499 DUP2 DUP6 PUSH2 0x67E JUMP JUMPDEST SWAP4 POP DUP4 PUSH1 0x20 DUP3 MUL DUP6 ADD PUSH2 0x4AB DUP6 PUSH2 0x64B JUMP JUMPDEST DUP1 PUSH1 0x0 JUMPDEST DUP6 DUP2 LT ISZERO PUSH2 0x4E7 JUMPI DUP5 DUP5 SUB DUP10 MSTORE DUP2 MLOAD PUSH2 0x4C8 DUP6 DUP3 PUSH2 0x461 JUMP JUMPDEST SWAP5 POP PUSH2 0x4D3 DUP4 PUSH2 0x671 JUMP JUMPDEST SWAP3 POP PUSH1 0x20 DUP11 ADD SWAP10 POP POP PUSH1 0x1 DUP2 ADD SWAP1 POP PUSH2 0x4AF JUMP JUMPDEST POP DUP3 SWAP8 POP DUP8 SWAP6 POP POP POP POP POP POP SWAP3 SWAP2 POP POP JUMP JUMPDEST PUSH1 0x0 PUSH2 0x504 DUP3 PUSH2 0x666 JUMP JUMPDEST PUSH2 0x50E DUP2 DUP6 PUSH2 0x68F JUMP JUMPDEST SWAP4 POP PUSH2 0x51E DUP2 DUP6 PUSH1 0x20 DUP7 ADD PUSH2 0x6FC JUMP JUMPDEST PUSH2 0x527 DUP2 PUSH2 0x804 JUMP JUMPDEST DUP5 ADD SWAP2 POP POP SWAP3 SWAP2 POP POP JUMP JUMPDEST PUSH1 0x0 PUSH2 0x53D DUP3 PUSH2 0x666 JUMP JUMPDEST PUSH2 0x547 DUP2 DUP6 PUSH2 0x6A0 JUMP JUMPDEST SWAP4 POP PUSH2 0x557 DUP2 DUP6 PUSH1 0x20 DUP7 ADD PUSH2 0x6FC JUMP JUMPDEST PUSH2 0x560 DUP2 PUSH2 0x804 JUMP JUMPDEST DUP5 ADD SWAP2 POP POP SWAP3 SWAP2 POP POP JUMP JUMPDEST PUSH2 0x574 DUP2 PUSH2 0x6E3 JUMP JUMPDEST DUP3 MSTORE POP POP JUMP JUMPDEST PUSH1 0x0 PUSH1 0x60 DUP3 ADD SWAP1 POP PUSH2 0x58F PUSH1 0x0 DUP4 ADD DUP7 PUSH2 0x475 JUMP JUMPDEST PUSH2 0x59C PUSH1 0x20 DUP4 ADD DUP6 PUSH2 0x56B JUMP JUMPDEST PUSH2 0x5A9 PUSH1 0x40 DUP4 ADD DUP5 PUSH2 0x56B JUMP JUMPDEST SWAP5 SWAP4 POP POP POP POP JUMP JUMPDEST PUSH1 0x0 PUSH1 0x20 DUP3 ADD SWAP1 POP DUP2 DUP2 SUB PUSH1 0x0 DUP4 ADD MSTORE PUSH2 0x5CB DUP2 DUP5 PUSH2 0x484 JUMP JUMPDEST SWAP1 POP SWAP3 SWAP2 POP POP JUMP JUMPDEST PUSH1 0x0 PUSH1 0x20 DUP3 ADD SWAP1 POP DUP2 DUP2 SUB PUSH1 0x0 DUP4 ADD MSTORE PUSH2 0x5ED DUP2 DUP5 PUSH2 0x532 JUMP JUMPDEST SWAP1 POP SWAP3 SWAP2 POP POP JUMP JUMPDEST PUSH1 0x0 PUSH2 0x5FF PUSH2 0x610 JUMP JUMPDEST SWAP1 POP PUSH2 0x60B DUP3 DUP3 PUSH2 0x761 JUMP JUMPDEST SWAP2 SWAP1 POP JUMP JUMPDEST PUSH1 0x0 PUSH1 0x40 MLOAD SWAP1 POP SWAP1 JUMP JUMPDEST PUSH1 0x0 PUSH8 0xFFFFFFFFFFFFFFFF DUP3 GT ISZERO PUSH2 0x635 JUMPI PUSH2 0x634 PUSH2 0x7C1 JUMP JUMPDEST JUMPDEST PUSH2 0x63E DUP3 PUSH2 0x804 JUMP JUMPDEST SWAP1 POP PUSH1 0x20 DUP2 ADD SWAP1 POP SWAP2 SWAP1 POP JUMP JUMPDEST PUSH1 0x0 DUP2 SWAP1 POP PUSH1 0x20 DUP3 ADD SWAP1 POP SWAP2 SWAP1 POP JUMP JUMPDEST PUSH1 0x0 DUP2 MLOAD SWAP1 POP SWAP2 SWAP1 POP JUMP JUMPDEST PUSH1 0x0 DUP2 MLOAD SWAP1 POP SWAP2 SWAP1 POP JUMP JUMPDEST PUSH1 0x0 PUSH1 0x20 DUP3 ADD SWAP1 POP SWAP2 SWAP1 POP JUMP JUMPDEST PUSH1 0x0 DUP3 DUP3 MSTORE PUSH1 0x20 DUP3 ADD SWAP1 POP SWAP3 SWAP2 POP POP JUMP JUMPDEST PUSH1 0x0 DUP3 DUP3 MSTORE PUSH1 0x20 DUP3 ADD SWAP1 POP SWAP3 SWAP2 POP POP JUMP JUMPDEST PUSH1 0x0 DUP3 DUP3 MSTORE PUSH1 0x20 DUP3 ADD SWAP1 POP SWAP3 SWAP2 POP POP JUMP JUMPDEST PUSH1 0x0 PUSH2 0x6BC DUP3 PUSH2 0x6C3 JUMP JUMPDEST SWAP1 POP SWAP2 SWAP1 POP JUMP JUMPDEST PUSH1 0x0 PUSH20 0xFFFFFFFFFFFFFFFFFFFFFFFFFFFFFFFFFFFFFFFF DUP3 AND SWAP1 POP SWAP2 SWAP1 POP JUMP JUMPDEST PUSH1 0x0 DUP2 SWAP1 POP SWAP2 SWAP1 POP JUMP JUMPDEST DUP3 DUP2 DUP4 CALLDATACOPY PUSH1 0x0 DUP4 DUP4 ADD MSTORE POP POP POP JUMP JUMPDEST PUSH1 0x0 JUMPDEST DUP4 DUP2 LT ISZERO PUSH2 0x71A JUMPI DUP1 DUP3 ADD MLOAD DUP2 DUP5 ADD MSTORE PUSH1 0x20 DUP2 ADD SWAP1 POP PUSH2 0x6FF JUMP JUMPDEST DUP4 DUP2 GT ISZERO PUSH2 0x729 JUMPI PUSH1 0x0 DUP5 DUP5 ADD MSTORE JUMPDEST POP POP POP POP JUMP JUMPDEST PUSH1 0x0 PUSH1 0x2 DUP3 DIV SWAP1 POP PUSH1 0x1 DUP3 AND DUP1 PUSH2 0x747 JUMPI PUSH1 0x7F DUP3 AND SWAP2 POP JUMPDEST PUSH1 0x20 DUP3 LT DUP2 EQ ISZERO PUSH2 0x75B JUMPI PUSH2 0x75A PUSH2 0x792 JUMP JUMPDEST JUMPDEST POP SWAP2 SWAP1 POP JUMP JUMPDEST PUSH2 0x76A DUP3 PUSH2 0x804 JUMP JUMPDEST DUP2 ADD DUP2 DUP2 LT PUSH8 0xFFFFFFFFFFFFFFFF DUP3 GT OR ISZERO PUSH2 0x789 JUMPI PUSH2 0x788 PUSH2 0x7C1 JUMP JUMPDEST JUMPDEST DUP1 PUSH1 0x40 MSTORE POP POP POP JUMP JUMPDEST PUSH32 0x4E487B7100000000000000000000000000000000000000000000000000000000 PUSH1 0x0 MSTORE PUSH1 0x22 PUSH1 0x4 MSTORE PUSH1 0x24 PUSH1 0x0 REVERT JUMPDEST PUSH32 0x4E487B7100000000000000000000000000000000000000000000000000000000 PUSH1 0x0 MSTORE PUSH1 0x41 PUSH1 0x4 MSTORE PUSH1 0x24 PUSH1 0x0 REVERT JUMPDEST PUSH1 0x0 DUP1 REVERT JUMPDEST PUSH1 0x0 DUP1 REVERT JUMPDEST PUSH1 0x0 DUP1 REVERT JUMPDEST PUSH1 0x0 DUP1 REVERT JUMPDEST PUSH1 0x0 PUSH1 0x1F NOT PUSH1 0x1F DUP4 ADD AND SWAP1 POP SWAP2 SWAP1 POP JUMP JUMPDEST PUSH2 0x81E DUP2 PUSH2 0x6E3 JUMP JUMPDEST DUP2 EQ PUSH2 0x829 JUMPI PUSH1 0x0 DUP1 REVERT JUMPDEST POP JUMP INVALID LOG2 PUSH5 0x6970667358 0x22 SLT KECCAK256 PUSH22 0x56F6386B124253C68E81566E5B1CB7A352EC4E094558 PUSH30 0x4A6B24113997511964736F6C634300080700330000000000000000000000 "
				},
				"gasEstimates": {
					"creation": {
						"codeDepositCost": "429200",
						"executionCost": "468",
						"totalCost": "429668"
					},
					"external": {
						"addTask(string)": "infinite",
						"f1()": "infinite",
						"list(uint256)": "infinite",
						"taskList()": "infinite"
					}
				},
				"methodIdentifiers": {
					"addTask(string)": "67238562",
					"f1()": "c27fc305",
					"list(uint256)": "80c9419e",
					"taskList()": "eb7e7f1a"
				}
			},
			"storageLayout": {
				"storage": [
					{
						"astId": 4,
						"contract": "variable.sol:Variable",
						"label": "list",
						"offset": 0,
						"slot": "0",
						"type": "t_array(t_string_storage)dyn_storage"
					}
				],
				"types": {
					"t_array(t_string_storage)dyn_storage": {
						"base": "t_string_storage",
						"encoding": "dynamic_array",
						"label": "string[]",
						"numberOfBytes": "32"
					},
					"t_string_storage": {
						"encoding": "bytes",
						"label": "string",
						"numberOfBytes": "32"
					}
				}
			},
			"userdoc": {
				"kind": "user",
				"methods": {},
				"version": 1
			}
		}
	}
}