{
	"array.sol": {
		"ArrayTest": {
			"abi": [
				{
					"inputs": [
						{
							"internalType": "string",
							"name": "_bookName",
							"type": "string"
						}
					],
					"name": "createReadList",
					"outputs": [],
					"stateMutability": "nonpayable",
					"type": "function"
				},
				{
					"inputs": [],
					"name": "fn",
					"outputs": [
						{
							"internalType": "uint256[]",
							"name": "",
							"type": "uint256[]"
						}
					],
					"stateMutability": "view",
					"type": "function"
				},
				{
					"inputs": [
						{
							"internalType": "uint256",
							"name": "_status",
							"type": "uint256"
						}
					],
					"name": "getFilterReadList",
					"outputs": [
						{
							"components": [
								{
									"internalType": "uint256",
									"name": "status",
									"type": "uint256"
								},
								{
									"internalType": "string",
									"name": "bookName",
									"type": "string"
								}
							],
							"internalType": "struct ArrayTest.Book[]",
							"name": "",
							"type": "tuple[]"
						}
					],
					"stateMutability": "view",
					"type": "function"
				},
				{
					"inputs": [],
					"name": "getList",
					"outputs": [
						{
							"components": [
								{
									"internalType": "uint256",
									"name": "status",
									"type": "uint256"
								},
								{
									"internalType": "string",
									"name": "bookName",
									"type": "string"
								}
							],
							"internalType": "struct ArrayTest.Book[]",
							"name": "",
							"type": "tuple[]"
						}
					],
					"stateMutability": "view",
					"type": "function"
				}
			],
			"devdoc": {
				"kind": "dev",
				"methods": {},
				"version": 1
			},
			"evm": {
				"assembly": "    /* \"array.sol\":61:1018  contract ArrayTest {\r... */\n  mstore(0x40, 0x80)\n  callvalue\n  dup1\n  iszero\n  tag_1\n  jumpi\n  0x00\n  dup1\n  revert\ntag_1:\n  pop\n  dataSize(sub_0)\n  dup1\n  dataOffset(sub_0)\n  0x00\n  codecopy\n  0x00\n  return\nstop\n\nsub_0: assembly {\n        /* \"array.sol\":61:1018  contract ArrayTest {\r... */\n      mstore(0x40, 0x80)\n      callvalue\n      dup1\n      iszero\n      tag_1\n      jumpi\n      0x00\n      dup1\n      revert\n    tag_1:\n      pop\n      jumpi(tag_2, lt(calldatasize, 0x04))\n      shr(0xe0, calldataload(0x00))\n      dup1\n      0x234c6686\n      eq\n      tag_3\n      jumpi\n      dup1\n      0x942b765a\n      eq\n      tag_4\n      jumpi\n      dup1\n      0xa4a2c40b\n      eq\n      tag_5\n      jumpi\n      dup1\n      0xb868ef57\n      eq\n      tag_6\n      jumpi\n    tag_2:\n      0x00\n      dup1\n      revert\n        /* \"array.sol\":267:426  function createReadList(string memory _bookName) public {\r... */\n    tag_3:\n      tag_7\n      0x04\n      dup1\n      calldatasize\n      sub\n      dup2\n      add\n      swap1\n      tag_8\n      swap2\n      swap1\n      tag_9\n      jump\t// in\n    tag_8:\n      tag_10\n      jump\t// in\n    tag_7:\n      stop\n        /* \"array.sol\":930:1015  function getList() public view returns (Book[] memory) {\r... */\n    tag_4:\n      tag_11\n      tag_12\n      jump\t// in\n    tag_11:\n      mload(0x40)\n      tag_13\n      swap2\n      swap1\n      tag_14\n      jump\t// in\n    tag_13:\n      mload(0x40)\n      dup1\n      swap2\n      sub\n      swap1\n      return\n        /* \"array.sol\":434:627  function fn() public view returns (uint[] memory) {\r... */\n    tag_5:\n      tag_15\n      tag_16\n      jump\t// in\n    tag_15:\n      mload(0x40)\n      tag_17\n      swap2\n      swap1\n      tag_18\n      jump\t// in\n    tag_17:\n      mload(0x40)\n      dup1\n      swap2\n      sub\n      swap1\n      return\n        /* \"array.sol\":635:922  function getFilterReadList(uint _status) public view returns (Book[] memory) {\r... */\n    tag_6:\n      tag_19\n      0x04\n      dup1\n      calldatasize\n      sub\n      dup2\n      add\n      swap1\n      tag_20\n      swap2\n      swap1\n      tag_21\n      jump\t// in\n    tag_20:\n      tag_22\n      jump\t// in\n    tag_19:\n      mload(0x40)\n      tag_23\n      swap2\n      swap1\n      tag_14\n      jump\t// in\n    tag_23:\n      mload(0x40)\n      dup1\n      swap2\n      sub\n      swap1\n      return\n        /* \"array.sol\":267:426  function createReadList(string memory _bookName) public {\r... */\n    tag_10:\n        /* \"array.sol\":334:338  list */\n      0x00\n        /* \"array.sol\":344:417  Book({\r... */\n      mload(0x40)\n      dup1\n      0x40\n      add\n      0x40\n      mstore\n      dup1\n        /* \"array.sol\":371:372  0 */\n      0x00\n        /* \"array.sol\":344:417  Book({\r... */\n      dup2\n      mstore\n      0x20\n      add\n        /* \"array.sol\":396:405  _bookName */\n      dup4\n        /* \"array.sol\":344:417  Book({\r... */\n      dup2\n      mstore\n      pop\n        /* \"array.sol\":334:418  list.push(Book({\r... */\n      swap1\n      dup1\n      0x01\n      dup2\n      sload\n      add\n      dup1\n      dup3\n      sstore\n      dup1\n      swap2\n      pop\n      pop\n      0x01\n      swap1\n      sub\n      swap1\n      0x00\n      mstore\n      keccak256(0x00, 0x20)\n      swap1\n      0x02\n      mul\n      add\n      0x00\n      swap1\n      swap2\n      swap1\n      swap2\n      swap1\n      swap2\n      pop\n      0x00\n      dup3\n      add\n      mload\n      dup2\n      0x00\n      add\n      sstore\n      0x20\n      dup3\n      add\n      mload\n      dup2\n      0x01\n      add\n      swap1\n      dup1\n      mload\n      swap1\n      0x20\n      add\n      swap1\n      tag_26\n      swap3\n      swap2\n      swap1\n      tag_27\n      jump\t// in\n    tag_26:\n      pop\n      pop\n      pop\n        /* \"array.sol\":267:426  function createReadList(string memory _bookName) public {\r... */\n      pop\n      jump\t// out\n        /* \"array.sol\":930:1015  function getList() public view returns (Book[] memory) {\r... */\n    tag_12:\n        /* \"array.sol\":970:983  Book[] memory */\n      0x60\n        /* \"array.sol\":1003:1007  list */\n      0x00\n        /* \"array.sol\":996:1007  return list */\n      dup1\n      sload\n      dup1\n      0x20\n      mul\n      0x20\n      add\n      mload(0x40)\n      swap1\n      dup2\n      add\n      0x40\n      mstore\n      dup1\n      swap3\n      swap2\n      swap1\n      dup2\n      dup2\n      mstore\n      0x20\n      add\n      0x00\n      swap1\n    tag_29:\n      dup3\n      dup3\n      lt\n      iszero\n      tag_30\n      jumpi\n      dup4\n      dup3\n      swap1\n      0x00\n      mstore\n      keccak256(0x00, 0x20)\n      swap1\n      0x02\n      mul\n      add\n      mload(0x40)\n      dup1\n      0x40\n      add\n      0x40\n      mstore\n      swap1\n      dup2\n      0x00\n      dup3\n      add\n      sload\n      dup2\n      mstore\n      0x20\n      add\n      0x01\n      dup3\n      add\n      dup1\n      sload\n      tag_32\n      swap1\n      tag_33\n      jump\t// in\n    tag_32:\n      dup1\n      0x1f\n      add\n      0x20\n      dup1\n      swap2\n      div\n      mul\n      0x20\n      add\n      mload(0x40)\n      swap1\n      dup2\n      add\n      0x40\n      mstore\n      dup1\n      swap3\n      swap2\n      swap1\n      dup2\n      dup2\n      mstore\n      0x20\n      add\n      dup3\n      dup1\n      sload\n      tag_34\n      swap1\n      tag_33\n      jump\t// in\n    tag_34:\n      dup1\n      iszero\n      tag_35\n      jumpi\n      dup1\n      0x1f\n      lt\n      tag_36\n      jumpi\n      0x0100\n      dup1\n      dup4\n      sload\n      div\n      mul\n      dup4\n      mstore\n      swap2\n      0x20\n      add\n      swap2\n      jump(tag_35)\n    tag_36:\n      dup3\n      add\n      swap2\n      swap1\n      0x00\n      mstore\n      keccak256(0x00, 0x20)\n      swap1\n    tag_37:\n      dup2\n      sload\n      dup2\n      mstore\n      swap1\n      0x01\n      add\n      swap1\n      0x20\n      add\n      dup1\n      dup4\n      gt\n      tag_37\n      jumpi\n      dup3\n      swap1\n      sub\n      0x1f\n      and\n      dup3\n      add\n      swap2\n    tag_35:\n      pop\n      pop\n      pop\n      pop\n      pop\n      dup2\n      mstore\n      pop\n      pop\n      dup2\n      mstore\n      0x20\n      add\n      swap1\n      0x01\n      add\n      swap1\n      jump(tag_29)\n    tag_30:\n      pop\n      pop\n      pop\n      pop\n      swap1\n      pop\n        /* \"array.sol\":930:1015  function getList() public view returns (Book[] memory) {\r... */\n      swap1\n      jump\t// out\n        /* \"array.sol\":434:627  function fn() public view returns (uint[] memory) {\r... */\n    tag_16:\n        /* \"array.sol\":469:482  uint[] memory */\n      0x60\n        /* \"array.sol\":495:512  uint[] memory tmp */\n      dup1\n        /* \"array.sol\":527:533  uint i */\n      0x00\n        /* \"array.sol\":523:599  for(uint i = 0;i < arr.length;i++){\r... */\n    tag_39:\n        /* \"array.sol\":542:545  arr */\n      0x01\n        /* \"array.sol\":542:552  arr.length */\n      dup1\n      sload\n      swap1\n      pop\n        /* \"array.sol\":538:539  i */\n      dup2\n        /* \"array.sol\":538:552  i < arr.length */\n      lt\n        /* \"array.sol\":523:599  for(uint i = 0;i < arr.length;i++){\r... */\n      iszero\n      tag_40\n      jumpi\n        /* \"array.sol\":581:584  arr */\n      0x01\n        /* \"array.sol\":585:586  i */\n      dup2\n        /* \"array.sol\":581:587  arr[i] */\n      dup2\n      sload\n      dup2\n      lt\n      tag_42\n      jumpi\n      tag_43\n      tag_44\n      jump\t// in\n    tag_43:\n    tag_42:\n      swap1\n      0x00\n      mstore\n      keccak256(0x00, 0x20)\n      add\n      sload\n        /* \"array.sol\":572:575  tmp */\n      dup3\n        /* \"array.sol\":576:577  i */\n      dup3\n        /* \"array.sol\":572:578  tmp[i] */\n      dup2\n      mload\n      dup2\n      lt\n      tag_46\n      jumpi\n      tag_47\n      tag_44\n      jump\t// in\n    tag_47:\n    tag_46:\n      0x20\n      mul\n      0x20\n      add\n      add\n        /* \"array.sol\":572:587  tmp[i] = arr[i] */\n      dup2\n      dup2\n      mstore\n      pop\n      pop\n        /* \"array.sol\":553:556  i++ */\n      dup1\n      dup1\n      tag_48\n      swap1\n      tag_49\n      jump\t// in\n    tag_48:\n      swap2\n      pop\n      pop\n        /* \"array.sol\":523:599  for(uint i = 0;i < arr.length;i++){\r... */\n      jump(tag_39)\n    tag_40:\n      pop\n        /* \"array.sol\":616:619  tmp */\n      dup1\n        /* \"array.sol\":609:619  return tmp */\n      swap2\n      pop\n      pop\n        /* \"array.sol\":434:627  function fn() public view returns (uint[] memory) {\r... */\n      swap1\n      jump\t// out\n        /* \"array.sol\":635:922  function getFilterReadList(uint _status) public view returns (Book[] memory) {\r... */\n    tag_22:\n        /* \"array.sol\":697:710  Book[] memory */\n      0x60\n        /* \"array.sol\":723:740  Book[] memory tmp */\n      dup1\n        /* \"array.sol\":755:761  uint i */\n      0x00\n        /* \"array.sol\":751:894  for(uint i = 0;i<list.length;i++){\r... */\n    tag_51:\n        /* \"array.sol\":768:772  list */\n      0x00\n        /* \"array.sol\":768:779  list.length */\n      dup1\n      sload\n      swap1\n      pop\n        /* \"array.sol\":766:767  i */\n      dup2\n        /* \"array.sol\":766:779  i<list.length */\n      lt\n        /* \"array.sol\":751:894  for(uint i = 0;i<list.length;i++){\r... */\n      iszero\n      tag_52\n      jumpi\n        /* \"array.sol\":820:827  _status */\n      dup4\n        /* \"array.sol\":802:806  list */\n      0x00\n        /* \"array.sol\":807:808  i */\n      dup3\n        /* \"array.sol\":802:809  list[i] */\n      dup2\n      sload\n      dup2\n      lt\n      tag_54\n      jumpi\n      tag_55\n      tag_44\n      jump\t// in\n    tag_55:\n    tag_54:\n      swap1\n      0x00\n      mstore\n      keccak256(0x00, 0x20)\n      swap1\n      pop\n      pop\n        /* \"array.sol\":802:827  list[i].status == _status */\n      pop\n        /* \"array.sol\":780:783  i++ */\n      dup1\n      dup1\n      tag_58\n      swap1\n      tag_49\n      jump\t// in\n    tag_58:\n      swap2\n      pop\n      pop\n        /* \"array.sol\":751:894  for(uint i = 0;i<list.length;i++){\r... */\n      jump(tag_51)\n    tag_52:\n      pop\n        /* \"array.sol\":911:914  tmp */\n      dup1\n        /* \"array.sol\":904:914  return tmp */\n      swap2\n      pop\n      pop\n        /* \"array.sol\":635:922  function getFilterReadList(uint _status) public view returns (Book[] memory) {\r... */\n      swap2\n      swap1\n      pop\n      jump\t// out\n    tag_27:\n      dup3\n      dup1\n      sload\n      tag_59\n      swap1\n      tag_33\n      jump\t// in\n    tag_59:\n      swap1\n      0x00\n      mstore\n      keccak256(0x00, 0x20)\n      swap1\n      0x1f\n      add\n      0x20\n      swap1\n      div\n      dup2\n      add\n      swap3\n      dup3\n      tag_61\n      jumpi\n      0x00\n      dup6\n      sstore\n      jump(tag_60)\n    tag_61:\n      dup3\n      0x1f\n      lt\n      tag_62\n      jumpi\n      dup1\n      mload\n      not(0xff)\n      and\n      dup4\n      dup1\n      add\n      or\n      dup6\n      sstore\n      jump(tag_60)\n    tag_62:\n      dup3\n      dup1\n      add\n      0x01\n      add\n      dup6\n      sstore\n      dup3\n      iszero\n      tag_60\n      jumpi\n      swap2\n      dup3\n      add\n    tag_63:\n      dup3\n      dup2\n      gt\n      iszero\n      tag_64\n      jumpi\n      dup3\n      mload\n      dup3\n      sstore\n      swap2\n      0x20\n      add\n      swap2\n      swap1\n      0x01\n      add\n      swap1\n      jump(tag_63)\n    tag_64:\n    tag_60:\n      pop\n      swap1\n      pop\n      tag_65\n      swap2\n      swap1\n      tag_66\n      jump\t// in\n    tag_65:\n      pop\n      swap1\n      jump\t// out\n    tag_66:\n    tag_67:\n      dup1\n      dup3\n      gt\n      iszero\n      tag_68\n      jumpi\n      0x00\n      dup2\n      0x00\n      swap1\n      sstore\n      pop\n      0x01\n      add\n      jump(tag_67)\n    tag_68:\n      pop\n      swap1\n      jump\t// out\n        /* \"#utility.yul\":7:419   */\n    tag_70:\n        /* \"#utility.yul\":85:90   */\n      0x00\n        /* \"#utility.yul\":110:176   */\n      tag_72\n        /* \"#utility.yul\":126:175   */\n      tag_73\n        /* \"#utility.yul\":168:174   */\n      dup5\n        /* \"#utility.yul\":126:175   */\n      tag_74\n      jump\t// in\n    tag_73:\n        /* \"#utility.yul\":110:176   */\n      tag_75\n      jump\t// in\n    tag_72:\n        /* \"#utility.yul\":101:176   */\n      swap1\n      pop\n        /* \"#utility.yul\":199:205   */\n      dup3\n        /* \"#utility.yul\":192:197   */\n      dup2\n        /* \"#utility.yul\":185:206   */\n      mstore\n        /* \"#utility.yul\":237:241   */\n      0x20\n        /* \"#utility.yul\":230:235   */\n      dup2\n        /* \"#utility.yul\":226:242   */\n      add\n        /* \"#utility.yul\":275:278   */\n      dup5\n        /* \"#utility.yul\":266:272   */\n      dup5\n        /* \"#utility.yul\":261:264   */\n      dup5\n        /* \"#utility.yul\":257:273   */\n      add\n        /* \"#utility.yul\":254:279   */\n      gt\n        /* \"#utility.yul\":251:363   */\n      iszero\n      tag_76\n      jumpi\n        /* \"#utility.yul\":282:361   */\n      tag_77\n      tag_78\n      jump\t// in\n    tag_77:\n        /* \"#utility.yul\":251:363   */\n    tag_76:\n        /* \"#utility.yul\":372:413   */\n      tag_79\n        /* \"#utility.yul\":406:412   */\n      dup5\n        /* \"#utility.yul\":401:404   */\n      dup3\n        /* \"#utility.yul\":396:399   */\n      dup6\n        /* \"#utility.yul\":372:413   */\n      tag_80\n      jump\t// in\n    tag_79:\n        /* \"#utility.yul\":91:419   */\n      pop\n        /* \"#utility.yul\":7:419   */\n      swap4\n      swap3\n      pop\n      pop\n      pop\n      jump\t// out\n        /* \"#utility.yul\":439:779   */\n    tag_81:\n        /* \"#utility.yul\":495:500   */\n      0x00\n        /* \"#utility.yul\":544:547   */\n      dup3\n        /* \"#utility.yul\":537:541   */\n      0x1f\n        /* \"#utility.yul\":529:535   */\n      dup4\n        /* \"#utility.yul\":525:542   */\n      add\n        /* \"#utility.yul\":521:548   */\n      slt\n        /* \"#utility.yul\":511:633   */\n      tag_83\n      jumpi\n        /* \"#utility.yul\":552:631   */\n      tag_84\n      tag_85\n      jump\t// in\n    tag_84:\n        /* \"#utility.yul\":511:633   */\n    tag_83:\n        /* \"#utility.yul\":669:675   */\n      dup2\n        /* \"#utility.yul\":656:676   */\n      calldataload\n        /* \"#utility.yul\":694:773   */\n      tag_86\n        /* \"#utility.yul\":769:772   */\n      dup5\n        /* \"#utility.yul\":761:767   */\n      dup3\n        /* \"#utility.yul\":754:758   */\n      0x20\n        /* \"#utility.yul\":746:752   */\n      dup7\n        /* \"#utility.yul\":742:759   */\n      add\n        /* \"#utility.yul\":694:773   */\n      tag_70\n      jump\t// in\n    tag_86:\n        /* \"#utility.yul\":685:773   */\n      swap2\n      pop\n        /* \"#utility.yul\":501:779   */\n      pop\n        /* \"#utility.yul\":439:779   */\n      swap3\n      swap2\n      pop\n      pop\n      jump\t// out\n        /* \"#utility.yul\":785:924   */\n    tag_87:\n        /* \"#utility.yul\":831:836   */\n      0x00\n        /* \"#utility.yul\":869:875   */\n      dup2\n        /* \"#utility.yul\":856:876   */\n      calldataload\n        /* \"#utility.yul\":847:876   */\n      swap1\n      pop\n        /* \"#utility.yul\":885:918   */\n      tag_89\n        /* \"#utility.yul\":912:917   */\n      dup2\n        /* \"#utility.yul\":885:918   */\n      tag_90\n      jump\t// in\n    tag_89:\n        /* \"#utility.yul\":785:924   */\n      swap3\n      swap2\n      pop\n      pop\n      jump\t// out\n        /* \"#utility.yul\":930:1439   */\n    tag_9:\n        /* \"#utility.yul\":999:1005   */\n      0x00\n        /* \"#utility.yul\":1048:1050   */\n      0x20\n        /* \"#utility.yul\":1036:1045   */\n      dup3\n        /* \"#utility.yul\":1027:1034   */\n      dup5\n        /* \"#utility.yul\":1023:1046   */\n      sub\n        /* \"#utility.yul\":1019:1051   */\n      slt\n        /* \"#utility.yul\":1016:1135   */\n      iszero\n      tag_92\n      jumpi\n        /* \"#utility.yul\":1054:1133   */\n      tag_93\n      tag_94\n      jump\t// in\n    tag_93:\n        /* \"#utility.yul\":1016:1135   */\n    tag_92:\n        /* \"#utility.yul\":1202:1203   */\n      0x00\n        /* \"#utility.yul\":1191:1200   */\n      dup3\n        /* \"#utility.yul\":1187:1204   */\n      add\n        /* \"#utility.yul\":1174:1205   */\n      calldataload\n        /* \"#utility.yul\":1232:1250   */\n      0xffffffffffffffff\n        /* \"#utility.yul\":1224:1230   */\n      dup2\n        /* \"#utility.yul\":1221:1251   */\n      gt\n        /* \"#utility.yul\":1218:1335   */\n      iszero\n      tag_95\n      jumpi\n        /* \"#utility.yul\":1254:1333   */\n      tag_96\n      tag_97\n      jump\t// in\n    tag_96:\n        /* \"#utility.yul\":1218:1335   */\n    tag_95:\n        /* \"#utility.yul\":1359:1422   */\n      tag_98\n        /* \"#utility.yul\":1414:1421   */\n      dup5\n        /* \"#utility.yul\":1405:1411   */\n      dup3\n        /* \"#utility.yul\":1394:1403   */\n      dup6\n        /* \"#utility.yul\":1390:1412   */\n      add\n        /* \"#utility.yul\":1359:1422   */\n      tag_81\n      jump\t// in\n    tag_98:\n        /* \"#utility.yul\":1349:1422   */\n      swap2\n      pop\n        /* \"#utility.yul\":1145:1432   */\n      pop\n        /* \"#utility.yul\":930:1439   */\n      swap3\n      swap2\n      pop\n      pop\n      jump\t// out\n        /* \"#utility.yul\":1445:1774   */\n    tag_21:\n        /* \"#utility.yul\":1504:1510   */\n      0x00\n        /* \"#utility.yul\":1553:1555   */\n      0x20\n        /* \"#utility.yul\":1541:1550   */\n      dup3\n        /* \"#utility.yul\":1532:1539   */\n      dup5\n        /* \"#utility.yul\":1528:1551   */\n      sub\n        /* \"#utility.yul\":1524:1556   */\n      slt\n        /* \"#utility.yul\":1521:1640   */\n      iszero\n      tag_100\n      jumpi\n        /* \"#utility.yul\":1559:1638   */\n      tag_101\n      tag_94\n      jump\t// in\n    tag_101:\n        /* \"#utility.yul\":1521:1640   */\n    tag_100:\n        /* \"#utility.yul\":1679:1680   */\n      0x00\n        /* \"#utility.yul\":1704:1757   */\n      tag_102\n        /* \"#utility.yul\":1749:1756   */\n      dup5\n        /* \"#utility.yul\":1740:1746   */\n      dup3\n        /* \"#utility.yul\":1729:1738   */\n      dup6\n        /* \"#utility.yul\":1725:1747   */\n      add\n        /* \"#utility.yul\":1704:1757   */\n      tag_87\n      jump\t// in\n    tag_102:\n        /* \"#utility.yul\":1694:1757   */\n      swap2\n      pop\n        /* \"#utility.yul\":1650:1767   */\n      pop\n        /* \"#utility.yul\":1445:1774   */\n      swap3\n      swap2\n      pop\n      pop\n      jump\t// out\n        /* \"#utility.yul\":1780:2012   */\n    tag_103:\n        /* \"#utility.yul\":1887:1897   */\n      0x00\n        /* \"#utility.yul\":1922:2006   */\n      tag_105\n        /* \"#utility.yul\":2002:2005   */\n      dup4\n        /* \"#utility.yul\":1994:2000   */\n      dup4\n        /* \"#utility.yul\":1922:2006   */\n      tag_106\n      jump\t// in\n    tag_105:\n        /* \"#utility.yul\":1908:2006   */\n      swap1\n      pop\n        /* \"#utility.yul\":1780:2012   */\n      swap3\n      swap2\n      pop\n      pop\n      jump\t// out\n        /* \"#utility.yul\":2018:2197   */\n    tag_107:\n        /* \"#utility.yul\":2087:2097   */\n      0x00\n        /* \"#utility.yul\":2108:2154   */\n      tag_109\n        /* \"#utility.yul\":2150:2153   */\n      dup4\n        /* \"#utility.yul\":2142:2148   */\n      dup4\n        /* \"#utility.yul\":2108:2154   */\n      tag_110\n      jump\t// in\n    tag_109:\n        /* \"#utility.yul\":2186:2190   */\n      0x20\n        /* \"#utility.yul\":2181:2184   */\n      dup4\n        /* \"#utility.yul\":2177:2191   */\n      add\n        /* \"#utility.yul\":2163:2191   */\n      swap1\n      pop\n        /* \"#utility.yul\":2018:2197   */\n      swap3\n      swap2\n      pop\n      pop\n      jump\t// out\n        /* \"#utility.yul\":2261:3324   */\n    tag_111:\n        /* \"#utility.yul\":2418:2421   */\n      0x00\n        /* \"#utility.yul\":2447:2520   */\n      tag_113\n        /* \"#utility.yul\":2514:2519   */\n      dup3\n        /* \"#utility.yul\":2447:2520   */\n      tag_114\n      jump\t// in\n    tag_113:\n        /* \"#utility.yul\":2536:2641   */\n      tag_115\n        /* \"#utility.yul\":2634:2640   */\n      dup2\n        /* \"#utility.yul\":2629:2632   */\n      dup6\n        /* \"#utility.yul\":2536:2641   */\n      tag_116\n      jump\t// in\n    tag_115:\n        /* \"#utility.yul\":2529:2641   */\n      swap4\n      pop\n        /* \"#utility.yul\":2667:2670   */\n      dup4\n        /* \"#utility.yul\":2712:2716   */\n      0x20\n        /* \"#utility.yul\":2704:2710   */\n      dup3\n        /* \"#utility.yul\":2700:2717   */\n      mul\n        /* \"#utility.yul\":2695:2698   */\n      dup6\n        /* \"#utility.yul\":2691:2718   */\n      add\n        /* \"#utility.yul\":2742:2817   */\n      tag_117\n        /* \"#utility.yul\":2811:2816   */\n      dup6\n        /* \"#utility.yul\":2742:2817   */\n      tag_118\n      jump\t// in\n    tag_117:\n        /* \"#utility.yul\":2840:2847   */\n      dup1\n        /* \"#utility.yul\":2871:2872   */\n      0x00\n        /* \"#utility.yul\":2856:3279   */\n    tag_119:\n        /* \"#utility.yul\":2881:2887   */\n      dup6\n        /* \"#utility.yul\":2878:2879   */\n      dup2\n        /* \"#utility.yul\":2875:2888   */\n      lt\n        /* \"#utility.yul\":2856:3279   */\n      iszero\n      tag_121\n      jumpi\n        /* \"#utility.yul\":2952:2961   */\n      dup5\n        /* \"#utility.yul\":2946:2950   */\n      dup5\n        /* \"#utility.yul\":2942:2962   */\n      sub\n        /* \"#utility.yul\":2937:2940   */\n      dup10\n        /* \"#utility.yul\":2930:2963   */\n      mstore\n        /* \"#utility.yul\":3003:3009   */\n      dup2\n        /* \"#utility.yul\":2997:3010   */\n      mload\n        /* \"#utility.yul\":3031:3133   */\n      tag_122\n        /* \"#utility.yul\":3128:3132   */\n      dup6\n        /* \"#utility.yul\":3113:3126   */\n      dup3\n        /* \"#utility.yul\":3031:3133   */\n      tag_103\n      jump\t// in\n    tag_122:\n        /* \"#utility.yul\":3023:3133   */\n      swap5\n      pop\n        /* \"#utility.yul\":3156:3235   */\n      tag_123\n        /* \"#utility.yul\":3228:3234   */\n      dup4\n        /* \"#utility.yul\":3156:3235   */\n      tag_124\n      jump\t// in\n    tag_123:\n        /* \"#utility.yul\":3146:3235   */\n      swap3\n      pop\n        /* \"#utility.yul\":3264:3268   */\n      0x20\n        /* \"#utility.yul\":3259:3262   */\n      dup11\n        /* \"#utility.yul\":3255:3269   */\n      add\n        /* \"#utility.yul\":3248:3269   */\n      swap10\n      pop\n        /* \"#utility.yul\":2916:3279   */\n      pop\n        /* \"#utility.yul\":2903:2904   */\n      0x01\n        /* \"#utility.yul\":2900:2901   */\n      dup2\n        /* \"#utility.yul\":2896:2905   */\n      add\n        /* \"#utility.yul\":2891:2905   */\n      swap1\n      pop\n        /* \"#utility.yul\":2856:3279   */\n      jump(tag_119)\n    tag_121:\n        /* \"#utility.yul\":2860:2874   */\n      pop\n        /* \"#utility.yul\":3295:3299   */\n      dup3\n        /* \"#utility.yul\":3288:3299   */\n      swap8\n      pop\n        /* \"#utility.yul\":3315:3318   */\n      dup8\n        /* \"#utility.yul\":3308:3318   */\n      swap6\n      pop\n        /* \"#utility.yul\":2423:3324   */\n      pop\n      pop\n      pop\n      pop\n      pop\n        /* \"#utility.yul\":2261:3324   */\n      swap3\n      swap2\n      pop\n      pop\n      jump\t// out\n        /* \"#utility.yul\":3360:4092   */\n    tag_125:\n        /* \"#utility.yul\":3479:3482   */\n      0x00\n        /* \"#utility.yul\":3508:3562   */\n      tag_127\n        /* \"#utility.yul\":3556:3561   */\n      dup3\n        /* \"#utility.yul\":3508:3562   */\n      tag_128\n      jump\t// in\n    tag_127:\n        /* \"#utility.yul\":3578:3664   */\n      tag_129\n        /* \"#utility.yul\":3657:3663   */\n      dup2\n        /* \"#utility.yul\":3652:3655   */\n      dup6\n        /* \"#utility.yul\":3578:3664   */\n      tag_130\n      jump\t// in\n    tag_129:\n        /* \"#utility.yul\":3571:3664   */\n      swap4\n      pop\n        /* \"#utility.yul\":3688:3744   */\n      tag_131\n        /* \"#utility.yul\":3738:3743   */\n      dup4\n        /* \"#utility.yul\":3688:3744   */\n      tag_132\n      jump\t// in\n    tag_131:\n        /* \"#utility.yul\":3767:3774   */\n      dup1\n        /* \"#utility.yul\":3798:3799   */\n      0x00\n        /* \"#utility.yul\":3783:4067   */\n    tag_133:\n        /* \"#utility.yul\":3808:3814   */\n      dup4\n        /* \"#utility.yul\":3805:3806   */\n      dup2\n        /* \"#utility.yul\":3802:3815   */\n      lt\n        /* \"#utility.yul\":3783:4067   */\n      iszero\n      tag_135\n      jumpi\n        /* \"#utility.yul\":3884:3890   */\n      dup2\n        /* \"#utility.yul\":3878:3891   */\n      mload\n        /* \"#utility.yul\":3911:3974   */\n      tag_136\n        /* \"#utility.yul\":3970:3973   */\n      dup9\n        /* \"#utility.yul\":3955:3968   */\n      dup3\n        /* \"#utility.yul\":3911:3974   */\n      tag_107\n      jump\t// in\n    tag_136:\n        /* \"#utility.yul\":3904:3974   */\n      swap8\n      pop\n        /* \"#utility.yul\":3997:4057   */\n      tag_137\n        /* \"#utility.yul\":4050:4056   */\n      dup4\n        /* \"#utility.yul\":3997:4057   */\n      tag_138\n      jump\t// in\n    tag_137:\n        /* \"#utility.yul\":3987:4057   */\n      swap3\n      pop\n        /* \"#utility.yul\":3843:4067   */\n      pop\n        /* \"#utility.yul\":3830:3831   */\n      0x01\n        /* \"#utility.yul\":3827:3828   */\n      dup2\n        /* \"#utility.yul\":3823:3832   */\n      add\n        /* \"#utility.yul\":3818:3832   */\n      swap1\n      pop\n        /* \"#utility.yul\":3783:4067   */\n      jump(tag_133)\n    tag_135:\n        /* \"#utility.yul\":3787:3801   */\n      pop\n        /* \"#utility.yul\":4083:4086   */\n      dup6\n        /* \"#utility.yul\":4076:4086   */\n      swap4\n      pop\n        /* \"#utility.yul\":3484:4092   */\n      pop\n      pop\n      pop\n        /* \"#utility.yul\":3360:4092   */\n      swap3\n      swap2\n      pop\n      pop\n      jump\t// out\n        /* \"#utility.yul\":4098:4442   */\n    tag_139:\n        /* \"#utility.yul\":4176:4179   */\n      0x00\n        /* \"#utility.yul\":4204:4243   */\n      tag_141\n        /* \"#utility.yul\":4237:4242   */\n      dup3\n        /* \"#utility.yul\":4204:4243   */\n      tag_142\n      jump\t// in\n    tag_141:\n        /* \"#utility.yul\":4259:4320   */\n      tag_143\n        /* \"#utility.yul\":4313:4319   */\n      dup2\n        /* \"#utility.yul\":4308:4311   */\n      dup6\n        /* \"#utility.yul\":4259:4320   */\n      tag_144\n      jump\t// in\n    tag_143:\n        /* \"#utility.yul\":4252:4320   */\n      swap4\n      pop\n        /* \"#utility.yul\":4329:4381   */\n      tag_145\n        /* \"#utility.yul\":4374:4380   */\n      dup2\n        /* \"#utility.yul\":4369:4372   */\n      dup6\n        /* \"#utility.yul\":4362:4366   */\n      0x20\n        /* \"#utility.yul\":4355:4360   */\n      dup7\n        /* \"#utility.yul\":4351:4367   */\n      add\n        /* \"#utility.yul\":4329:4381   */\n      tag_146\n      jump\t// in\n    tag_145:\n        /* \"#utility.yul\":4406:4435   */\n      tag_147\n        /* \"#utility.yul\":4428:4434   */\n      dup2\n        /* \"#utility.yul\":4406:4435   */\n      tag_148\n      jump\t// in\n    tag_147:\n        /* \"#utility.yul\":4401:4404   */\n      dup5\n        /* \"#utility.yul\":4397:4436   */\n      add\n        /* \"#utility.yul\":4390:4436   */\n      swap2\n      pop\n        /* \"#utility.yul\":4180:4442   */\n      pop\n        /* \"#utility.yul\":4098:4442   */\n      swap3\n      swap2\n      pop\n      pop\n      jump\t// out\n        /* \"#utility.yul\":4502:5092   */\n    tag_106:\n        /* \"#utility.yul\":4599:4602   */\n      0x00\n        /* \"#utility.yul\":4635:4639   */\n      0x40\n        /* \"#utility.yul\":4630:4633   */\n      dup4\n        /* \"#utility.yul\":4626:4640   */\n      add\n        /* \"#utility.yul\":4724:4728   */\n      0x00\n        /* \"#utility.yul\":4717:4722   */\n      dup4\n        /* \"#utility.yul\":4713:4729   */\n      add\n        /* \"#utility.yul\":4707:4730   */\n      mload\n        /* \"#utility.yul\":4743:4806   */\n      tag_150\n        /* \"#utility.yul\":4800:4804   */\n      0x00\n        /* \"#utility.yul\":4795:4798   */\n      dup7\n        /* \"#utility.yul\":4791:4805   */\n      add\n        /* \"#utility.yul\":4777:4789   */\n      dup3\n        /* \"#utility.yul\":4743:4806   */\n      tag_110\n      jump\t// in\n    tag_150:\n        /* \"#utility.yul\":4650:4816   */\n      pop\n        /* \"#utility.yul\":4902:4906   */\n      0x20\n        /* \"#utility.yul\":4895:4900   */\n      dup4\n        /* \"#utility.yul\":4891:4907   */\n      add\n        /* \"#utility.yul\":4885:4908   */\n      mload\n        /* \"#utility.yul\":4955:4958   */\n      dup5\n        /* \"#utility.yul\":4949:4953   */\n      dup3\n        /* \"#utility.yul\":4945:4959   */\n      sub\n        /* \"#utility.yul\":4938:4942   */\n      0x20\n        /* \"#utility.yul\":4933:4936   */\n      dup7\n        /* \"#utility.yul\":4929:4943   */\n      add\n        /* \"#utility.yul\":4922:4960   */\n      mstore\n        /* \"#utility.yul\":4981:5054   */\n      tag_151\n        /* \"#utility.yul\":5049:5053   */\n      dup3\n        /* \"#utility.yul\":5035:5047   */\n      dup3\n        /* \"#utility.yul\":4981:5054   */\n      tag_139\n      jump\t// in\n    tag_151:\n        /* \"#utility.yul\":4973:5054   */\n      swap2\n      pop\n        /* \"#utility.yul\":4826:5065   */\n      pop\n        /* \"#utility.yul\":5082:5086   */\n      dup1\n        /* \"#utility.yul\":5075:5086   */\n      swap2\n      pop\n        /* \"#utility.yul\":4604:5092   */\n      pop\n        /* \"#utility.yul\":4502:5092   */\n      swap3\n      swap2\n      pop\n      pop\n      jump\t// out\n        /* \"#utility.yul\":5098:5206   */\n    tag_110:\n        /* \"#utility.yul\":5175:5199   */\n      tag_153\n        /* \"#utility.yul\":5193:5198   */\n      dup2\n        /* \"#utility.yul\":5175:5199   */\n      tag_154\n      jump\t// in\n    tag_153:\n        /* \"#utility.yul\":5170:5173   */\n      dup3\n        /* \"#utility.yul\":5163:5200   */\n      mstore\n        /* \"#utility.yul\":5098:5206   */\n      pop\n      pop\n      jump\t// out\n        /* \"#utility.yul\":5212:5661   */\n    tag_14:\n        /* \"#utility.yul\":5393:5397   */\n      0x00\n        /* \"#utility.yul\":5431:5433   */\n      0x20\n        /* \"#utility.yul\":5420:5429   */\n      dup3\n        /* \"#utility.yul\":5416:5434   */\n      add\n        /* \"#utility.yul\":5408:5434   */\n      swap1\n      pop\n        /* \"#utility.yul\":5480:5489   */\n      dup2\n        /* \"#utility.yul\":5474:5478   */\n      dup2\n        /* \"#utility.yul\":5470:5490   */\n      sub\n        /* \"#utility.yul\":5466:5467   */\n      0x00\n        /* \"#utility.yul\":5455:5464   */\n      dup4\n        /* \"#utility.yul\":5451:5468   */\n      add\n        /* \"#utility.yul\":5444:5491   */\n      mstore\n        /* \"#utility.yul\":5508:5654   */\n      tag_156\n        /* \"#utility.yul\":5649:5653   */\n      dup2\n        /* \"#utility.yul\":5640:5646   */\n      dup5\n        /* \"#utility.yul\":5508:5654   */\n      tag_111\n      jump\t// in\n    tag_156:\n        /* \"#utility.yul\":5500:5654   */\n      swap1\n      pop\n        /* \"#utility.yul\":5212:5661   */\n      swap3\n      swap2\n      pop\n      pop\n      jump\t// out\n        /* \"#utility.yul\":5667:6040   */\n    tag_18:\n        /* \"#utility.yul\":5810:5814   */\n      0x00\n        /* \"#utility.yul\":5848:5850   */\n      0x20\n        /* \"#utility.yul\":5837:5846   */\n      dup3\n        /* \"#utility.yul\":5833:5851   */\n      add\n        /* \"#utility.yul\":5825:5851   */\n      swap1\n      pop\n        /* \"#utility.yul\":5897:5906   */\n      dup2\n        /* \"#utility.yul\":5891:5895   */\n      dup2\n        /* \"#utility.yul\":5887:5907   */\n      sub\n        /* \"#utility.yul\":5883:5884   */\n      0x00\n        /* \"#utility.yul\":5872:5881   */\n      dup4\n        /* \"#utility.yul\":5868:5885   */\n      add\n        /* \"#utility.yul\":5861:5908   */\n      mstore\n        /* \"#utility.yul\":5925:6033   */\n      tag_158\n        /* \"#utility.yul\":6028:6032   */\n      dup2\n        /* \"#utility.yul\":6019:6025   */\n      dup5\n        /* \"#utility.yul\":5925:6033   */\n      tag_125\n      jump\t// in\n    tag_158:\n        /* \"#utility.yul\":5917:6033   */\n      swap1\n      pop\n        /* \"#utility.yul\":5667:6040   */\n      swap3\n      swap2\n      pop\n      pop\n      jump\t// out\n        /* \"#utility.yul\":6046:6175   */\n    tag_75:\n        /* \"#utility.yul\":6080:6086   */\n      0x00\n        /* \"#utility.yul\":6107:6127   */\n      tag_160\n      tag_161\n      jump\t// in\n    tag_160:\n        /* \"#utility.yul\":6097:6127   */\n      swap1\n      pop\n        /* \"#utility.yul\":6136:6169   */\n      tag_162\n        /* \"#utility.yul\":6164:6168   */\n      dup3\n        /* \"#utility.yul\":6156:6162   */\n      dup3\n        /* \"#utility.yul\":6136:6169   */\n      tag_163\n      jump\t// in\n    tag_162:\n        /* \"#utility.yul\":6046:6175   */\n      swap2\n      swap1\n      pop\n      jump\t// out\n        /* \"#utility.yul\":6181:6256   */\n    tag_161:\n        /* \"#utility.yul\":6214:6220   */\n      0x00\n        /* \"#utility.yul\":6247:6249   */\n      0x40\n        /* \"#utility.yul\":6241:6250   */\n      mload\n        /* \"#utility.yul\":6231:6250   */\n      swap1\n      pop\n        /* \"#utility.yul\":6181:6256   */\n      swap1\n      jump\t// out\n        /* \"#utility.yul\":6262:6570   */\n    tag_74:\n        /* \"#utility.yul\":6324:6328   */\n      0x00\n        /* \"#utility.yul\":6414:6432   */\n      0xffffffffffffffff\n        /* \"#utility.yul\":6406:6412   */\n      dup3\n        /* \"#utility.yul\":6403:6433   */\n      gt\n        /* \"#utility.yul\":6400:6456   */\n      iszero\n      tag_166\n      jumpi\n        /* \"#utility.yul\":6436:6454   */\n      tag_167\n      tag_168\n      jump\t// in\n    tag_167:\n        /* \"#utility.yul\":6400:6456   */\n    tag_166:\n        /* \"#utility.yul\":6474:6503   */\n      tag_169\n        /* \"#utility.yul\":6496:6502   */\n      dup3\n        /* \"#utility.yul\":6474:6503   */\n      tag_148\n      jump\t// in\n    tag_169:\n        /* \"#utility.yul\":6466:6503   */\n      swap1\n      pop\n        /* \"#utility.yul\":6558:6562   */\n      0x20\n        /* \"#utility.yul\":6552:6556   */\n      dup2\n        /* \"#utility.yul\":6548:6563   */\n      add\n        /* \"#utility.yul\":6540:6563   */\n      swap1\n      pop\n        /* \"#utility.yul\":6262:6570   */\n      swap2\n      swap1\n      pop\n      jump\t// out\n        /* \"#utility.yul\":6576:6727   */\n    tag_118:\n        /* \"#utility.yul\":6662:6666   */\n      0x00\n        /* \"#utility.yul\":6685:6688   */\n      dup2\n        /* \"#utility.yul\":6677:6688   */\n      swap1\n      pop\n        /* \"#utility.yul\":6715:6719   */\n      0x20\n        /* \"#utility.yul\":6710:6713   */\n      dup3\n        /* \"#utility.yul\":6706:6720   */\n      add\n        /* \"#utility.yul\":6698:6720   */\n      swap1\n      pop\n        /* \"#utility.yul\":6576:6727   */\n      swap2\n      swap1\n      pop\n      jump\t// out\n        /* \"#utility.yul\":6733:6865   */\n    tag_132:\n        /* \"#utility.yul\":6800:6804   */\n      0x00\n        /* \"#utility.yul\":6823:6826   */\n      dup2\n        /* \"#utility.yul\":6815:6826   */\n      swap1\n      pop\n        /* \"#utility.yul\":6853:6857   */\n      0x20\n        /* \"#utility.yul\":6848:6851   */\n      dup3\n        /* \"#utility.yul\":6844:6858   */\n      add\n        /* \"#utility.yul\":6836:6858   */\n      swap1\n      pop\n        /* \"#utility.yul\":6733:6865   */\n      swap2\n      swap1\n      pop\n      jump\t// out\n        /* \"#utility.yul\":6871:7004   */\n    tag_114:\n        /* \"#utility.yul\":6957:6963   */\n      0x00\n        /* \"#utility.yul\":6991:6996   */\n      dup2\n        /* \"#utility.yul\":6985:6997   */\n      mload\n        /* \"#utility.yul\":6975:6997   */\n      swap1\n      pop\n        /* \"#utility.yul\":6871:7004   */\n      swap2\n      swap1\n      pop\n      jump\t// out\n        /* \"#utility.yul\":7010:7124   */\n    tag_128:\n        /* \"#utility.yul\":7077:7083   */\n      0x00\n        /* \"#utility.yul\":7111:7116   */\n      dup2\n        /* \"#utility.yul\":7105:7117   */\n      mload\n        /* \"#utility.yul\":7095:7117   */\n      swap1\n      pop\n        /* \"#utility.yul\":7010:7124   */\n      swap2\n      swap1\n      pop\n      jump\t// out\n        /* \"#utility.yul\":7130:7229   */\n    tag_142:\n        /* \"#utility.yul\":7182:7188   */\n      0x00\n        /* \"#utility.yul\":7216:7221   */\n      dup2\n        /* \"#utility.yul\":7210:7222   */\n      mload\n        /* \"#utility.yul\":7200:7222   */\n      swap1\n      pop\n        /* \"#utility.yul\":7130:7229   */\n      swap2\n      swap1\n      pop\n      jump\t// out\n        /* \"#utility.yul\":7235:7367   */\n    tag_124:\n        /* \"#utility.yul\":7324:7328   */\n      0x00\n        /* \"#utility.yul\":7356:7360   */\n      0x20\n        /* \"#utility.yul\":7351:7354   */\n      dup3\n        /* \"#utility.yul\":7347:7361   */\n      add\n        /* \"#utility.yul\":7339:7361   */\n      swap1\n      pop\n        /* \"#utility.yul\":7235:7367   */\n      swap2\n      swap1\n      pop\n      jump\t// out\n        /* \"#utility.yul\":7373:7486   */\n    tag_138:\n        /* \"#utility.yul\":7443:7447   */\n      0x00\n        /* \"#utility.yul\":7475:7479   */\n      0x20\n        /* \"#utility.yul\":7470:7473   */\n      dup3\n        /* \"#utility.yul\":7466:7480   */\n      add\n        /* \"#utility.yul\":7458:7480   */\n      swap1\n      pop\n        /* \"#utility.yul\":7373:7486   */\n      swap2\n      swap1\n      pop\n      jump\t// out\n        /* \"#utility.yul\":7492:7695   */\n    tag_116:\n        /* \"#utility.yul\":7610:7621   */\n      0x00\n        /* \"#utility.yul\":7644:7650   */\n      dup3\n        /* \"#utility.yul\":7639:7642   */\n      dup3\n        /* \"#utility.yul\":7632:7651   */\n      mstore\n        /* \"#utility.yul\":7684:7688   */\n      0x20\n        /* \"#utility.yul\":7679:7682   */\n      dup3\n        /* \"#utility.yul\":7675:7689   */\n      add\n        /* \"#utility.yul\":7660:7689   */\n      swap1\n      pop\n        /* \"#utility.yul\":7492:7695   */\n      swap3\n      swap2\n      pop\n      pop\n      jump\t// out\n        /* \"#utility.yul\":7701:7885   */\n    tag_130:\n        /* \"#utility.yul\":7800:7811   */\n      0x00\n        /* \"#utility.yul\":7834:7840   */\n      dup3\n        /* \"#utility.yul\":7829:7832   */\n      dup3\n        /* \"#utility.yul\":7822:7841   */\n      mstore\n        /* \"#utility.yul\":7874:7878   */\n      0x20\n        /* \"#utility.yul\":7869:7872   */\n      dup3\n        /* \"#utility.yul\":7865:7879   */\n      add\n        /* \"#utility.yul\":7850:7879   */\n      swap1\n      pop\n        /* \"#utility.yul\":7701:7885   */\n      swap3\n      swap2\n      pop\n      pop\n      jump\t// out\n        /* \"#utility.yul\":7891:8050   */\n    tag_144:\n        /* \"#utility.yul\":7965:7976   */\n      0x00\n        /* \"#utility.yul\":7999:8005   */\n      dup3\n        /* \"#utility.yul\":7994:7997   */\n      dup3\n        /* \"#utility.yul\":7987:8006   */\n      mstore\n        /* \"#utility.yul\":8039:8043   */\n      0x20\n        /* \"#utility.yul\":8034:8037   */\n      dup3\n        /* \"#utility.yul\":8030:8044   */\n      add\n        /* \"#utility.yul\":8015:8044   */\n      swap1\n      pop\n        /* \"#utility.yul\":7891:8050   */\n      swap3\n      swap2\n      pop\n      pop\n      jump\t// out\n        /* \"#utility.yul\":8056:8133   */\n    tag_154:\n        /* \"#utility.yul\":8093:8100   */\n      0x00\n        /* \"#utility.yul\":8122:8127   */\n      dup2\n        /* \"#utility.yul\":8111:8127   */\n      swap1\n      pop\n        /* \"#utility.yul\":8056:8133   */\n      swap2\n      swap1\n      pop\n      jump\t// out\n        /* \"#utility.yul\":8139:8293   */\n    tag_80:\n        /* \"#utility.yul\":8223:8229   */\n      dup3\n        /* \"#utility.yul\":8218:8221   */\n      dup2\n        /* \"#utility.yul\":8213:8216   */\n      dup4\n        /* \"#utility.yul\":8200:8230   */\n      calldatacopy\n        /* \"#utility.yul\":8285:8286   */\n      0x00\n        /* \"#utility.yul\":8276:8282   */\n      dup4\n        /* \"#utility.yul\":8271:8274   */\n      dup4\n        /* \"#utility.yul\":8267:8283   */\n      add\n        /* \"#utility.yul\":8260:8287   */\n      mstore\n        /* \"#utility.yul\":8139:8293   */\n      pop\n      pop\n      pop\n      jump\t// out\n        /* \"#utility.yul\":8299:8606   */\n    tag_146:\n        /* \"#utility.yul\":8367:8368   */\n      0x00\n        /* \"#utility.yul\":8377:8490   */\n    tag_183:\n        /* \"#utility.yul\":8391:8397   */\n      dup4\n        /* \"#utility.yul\":8388:8389   */\n      dup2\n        /* \"#utility.yul\":8385:8398   */\n      lt\n        /* \"#utility.yul\":8377:8490   */\n      iszero\n      tag_185\n      jumpi\n        /* \"#utility.yul\":8476:8477   */\n      dup1\n        /* \"#utility.yul\":8471:8474   */\n      dup3\n        /* \"#utility.yul\":8467:8478   */\n      add\n        /* \"#utility.yul\":8461:8479   */\n      mload\n        /* \"#utility.yul\":8457:8458   */\n      dup2\n        /* \"#utility.yul\":8452:8455   */\n      dup5\n        /* \"#utility.yul\":8448:8459   */\n      add\n        /* \"#utility.yul\":8441:8480   */\n      mstore\n        /* \"#utility.yul\":8413:8415   */\n      0x20\n        /* \"#utility.yul\":8410:8411   */\n      dup2\n        /* \"#utility.yul\":8406:8416   */\n      add\n        /* \"#utility.yul\":8401:8416   */\n      swap1\n      pop\n        /* \"#utility.yul\":8377:8490   */\n      jump(tag_183)\n    tag_185:\n        /* \"#utility.yul\":8508:8514   */\n      dup4\n        /* \"#utility.yul\":8505:8506   */\n      dup2\n        /* \"#utility.yul\":8502:8515   */\n      gt\n        /* \"#utility.yul\":8499:8600   */\n      iszero\n      tag_186\n      jumpi\n        /* \"#utility.yul\":8588:8589   */\n      0x00\n        /* \"#utility.yul\":8579:8585   */\n      dup5\n        /* \"#utility.yul\":8574:8577   */\n      dup5\n        /* \"#utility.yul\":8570:8586   */\n      add\n        /* \"#utility.yul\":8563:8590   */\n      mstore\n        /* \"#utility.yul\":8499:8600   */\n    tag_186:\n        /* \"#utility.yul\":8348:8606   */\n      pop\n        /* \"#utility.yul\":8299:8606   */\n      pop\n      pop\n      pop\n      jump\t// out\n        /* \"#utility.yul\":8612:8932   */\n    tag_33:\n        /* \"#utility.yul\":8656:8662   */\n      0x00\n        /* \"#utility.yul\":8693:8694   */\n      0x02\n        /* \"#utility.yul\":8687:8691   */\n      dup3\n        /* \"#utility.yul\":8683:8695   */\n      div\n        /* \"#utility.yul\":8673:8695   */\n      swap1\n      pop\n        /* \"#utility.yul\":8740:8741   */\n      0x01\n        /* \"#utility.yul\":8734:8738   */\n      dup3\n        /* \"#utility.yul\":8730:8742   */\n      and\n        /* \"#utility.yul\":8761:8779   */\n      dup1\n        /* \"#utility.yul\":8751:8832   */\n      tag_188\n      jumpi\n        /* \"#utility.yul\":8817:8821   */\n      0x7f\n        /* \"#utility.yul\":8809:8815   */\n      dup3\n        /* \"#utility.yul\":8805:8822   */\n      and\n        /* \"#utility.yul\":8795:8822   */\n      swap2\n      pop\n        /* \"#utility.yul\":8751:8832   */\n    tag_188:\n        /* \"#utility.yul\":8879:8881   */\n      0x20\n        /* \"#utility.yul\":8871:8877   */\n      dup3\n        /* \"#utility.yul\":8868:8882   */\n      lt\n        /* \"#utility.yul\":8848:8866   */\n      dup2\n        /* \"#utility.yul\":8845:8883   */\n      eq\n        /* \"#utility.yul\":8842:8926   */\n      iszero\n      tag_189\n      jumpi\n        /* \"#utility.yul\":8898:8916   */\n      tag_190\n      tag_191\n      jump\t// in\n    tag_190:\n        /* \"#utility.yul\":8842:8926   */\n    tag_189:\n        /* \"#utility.yul\":8663:8932   */\n      pop\n        /* \"#utility.yul\":8612:8932   */\n      swap2\n      swap1\n      pop\n      jump\t// out\n        /* \"#utility.yul\":8938:9219   */\n    tag_163:\n        /* \"#utility.yul\":9021:9048   */\n      tag_193\n        /* \"#utility.yul\":9043:9047   */\n      dup3\n        /* \"#utility.yul\":9021:9048   */\n      tag_148\n      jump\t// in\n    tag_193:\n        /* \"#utility.yul\":9013:9019   */\n      dup2\n        /* \"#utility.yul\":9009:9049   */\n      add\n        /* \"#utility.yul\":9151:9157   */\n      dup2\n        /* \"#utility.yul\":9139:9149   */\n      dup2\n        /* \"#utility.yul\":9136:9158   */\n      lt\n        /* \"#utility.yul\":9115:9133   */\n      0xffffffffffffffff\n        /* \"#utility.yul\":9103:9113   */\n      dup3\n        /* \"#utility.yul\":9100:9134   */\n      gt\n        /* \"#utility.yul\":9097:9159   */\n      or\n        /* \"#utility.yul\":9094:9182   */\n      iszero\n      tag_194\n      jumpi\n        /* \"#utility.yul\":9162:9180   */\n      tag_195\n      tag_168\n      jump\t// in\n    tag_195:\n        /* \"#utility.yul\":9094:9182   */\n    tag_194:\n        /* \"#utility.yul\":9202:9212   */\n      dup1\n        /* \"#utility.yul\":9198:9200   */\n      0x40\n        /* \"#utility.yul\":9191:9213   */\n      mstore\n        /* \"#utility.yul\":8981:9219   */\n      pop\n        /* \"#utility.yul\":8938:9219   */\n      pop\n      pop\n      jump\t// out\n        /* \"#utility.yul\":9225:9458   */\n    tag_49:\n        /* \"#utility.yul\":9264:9267   */\n      0x00\n        /* \"#utility.yul\":9287:9311   */\n      tag_197\n        /* \"#utility.yul\":9305:9310   */\n      dup3\n        /* \"#utility.yul\":9287:9311   */\n      tag_154\n      jump\t// in\n    tag_197:\n        /* \"#utility.yul\":9278:9311   */\n      swap2\n      pop\n        /* \"#utility.yul\":9333:9399   */\n      0xffffffffffffffffffffffffffffffffffffffffffffffffffffffffffffffff\n        /* \"#utility.yul\":9326:9331   */\n      dup3\n        /* \"#utility.yul\":9323:9400   */\n      eq\n        /* \"#utility.yul\":9320:9423   */\n      iszero\n      tag_198\n      jumpi\n        /* \"#utility.yul\":9403:9421   */\n      tag_199\n      tag_200\n      jump\t// in\n    tag_199:\n        /* \"#utility.yul\":9320:9423   */\n    tag_198:\n        /* \"#utility.yul\":9450:9451   */\n      0x01\n        /* \"#utility.yul\":9443:9448   */\n      dup3\n        /* \"#utility.yul\":9439:9452   */\n      add\n        /* \"#utility.yul\":9432:9452   */\n      swap1\n      pop\n        /* \"#utility.yul\":9225:9458   */\n      swap2\n      swap1\n      pop\n      jump\t// out\n        /* \"#utility.yul\":9464:9644   */\n    tag_200:\n        /* \"#utility.yul\":9512:9589   */\n      0x4e487b7100000000000000000000000000000000000000000000000000000000\n        /* \"#utility.yul\":9509:9510   */\n      0x00\n        /* \"#utility.yul\":9502:9590   */\n      mstore\n        /* \"#utility.yul\":9609:9613   */\n      0x11\n        /* \"#utility.yul\":9606:9607   */\n      0x04\n        /* \"#utility.yul\":9599:9614   */\n      mstore\n        /* \"#utility.yul\":9633:9637   */\n      0x24\n        /* \"#utility.yul\":9630:9631   */\n      0x00\n        /* \"#utility.yul\":9623:9638   */\n      revert\n        /* \"#utility.yul\":9650:9830   */\n    tag_191:\n        /* \"#utility.yul\":9698:9775   */\n      0x4e487b7100000000000000000000000000000000000000000000000000000000\n        /* \"#utility.yul\":9695:9696   */\n      0x00\n        /* \"#utility.yul\":9688:9776   */\n      mstore\n        /* \"#utility.yul\":9795:9799   */\n      0x22\n        /* \"#utility.yul\":9792:9793   */\n      0x04\n        /* \"#utility.yul\":9785:9800   */\n      mstore\n        /* \"#utility.yul\":9819:9823   */\n      0x24\n        /* \"#utility.yul\":9816:9817   */\n      0x00\n        /* \"#utility.yul\":9809:9824   */\n      revert\n        /* \"#utility.yul\":9836:10016   */\n    tag_44:\n        /* \"#utility.yul\":9884:9961   */\n      0x4e487b7100000000000000000000000000000000000000000000000000000000\n        /* \"#utility.yul\":9881:9882   */\n      0x00\n        /* \"#utility.yul\":9874:9962   */\n      mstore\n        /* \"#utility.yul\":9981:9985   */\n      0x32\n        /* \"#utility.yul\":9978:9979   */\n      0x04\n        /* \"#utility.yul\":9971:9986   */\n      mstore\n        /* \"#utility.yul\":10005:10009   */\n      0x24\n        /* \"#utility.yul\":10002:10003   */\n      0x00\n        /* \"#utility.yul\":9995:10010   */\n      revert\n        /* \"#utility.yul\":10022:10202   */\n    tag_168:\n        /* \"#utility.yul\":10070:10147   */\n      0x4e487b7100000000000000000000000000000000000000000000000000000000\n        /* \"#utility.yul\":10067:10068   */\n      0x00\n        /* \"#utility.yul\":10060:10148   */\n      mstore\n        /* \"#utility.yul\":10167:10171   */\n      0x41\n        /* \"#utility.yul\":10164:10165   */\n      0x04\n        /* \"#utility.yul\":10157:10172   */\n      mstore\n        /* \"#utility.yul\":10191:10195   */\n      0x24\n        /* \"#utility.yul\":10188:10189   */\n      0x00\n        /* \"#utility.yul\":10181:10196   */\n      revert\n        /* \"#utility.yul\":10208:10325   */\n    tag_85:\n        /* \"#utility.yul\":10317:10318   */\n      0x00\n        /* \"#utility.yul\":10314:10315   */\n      dup1\n        /* \"#utility.yul\":10307:10319   */\n      revert\n        /* \"#utility.yul\":10331:10448   */\n    tag_78:\n        /* \"#utility.yul\":10440:10441   */\n      0x00\n        /* \"#utility.yul\":10437:10438   */\n      dup1\n        /* \"#utility.yul\":10430:10442   */\n      revert\n        /* \"#utility.yul\":10454:10571   */\n    tag_97:\n        /* \"#utility.yul\":10563:10564   */\n      0x00\n        /* \"#utility.yul\":10560:10561   */\n      dup1\n        /* \"#utility.yul\":10553:10565   */\n      revert\n        /* \"#utility.yul\":10577:10694   */\n    tag_94:\n        /* \"#utility.yul\":10686:10687   */\n      0x00\n        /* \"#utility.yul\":10683:10684   */\n      dup1\n        /* \"#utility.yul\":10676:10688   */\n      revert\n        /* \"#utility.yul\":10700:10802   */\n    tag_148:\n        /* \"#utility.yul\":10741:10747   */\n      0x00\n        /* \"#utility.yul\":10792:10794   */\n      0x1f\n        /* \"#utility.yul\":10788:10795   */\n      not\n        /* \"#utility.yul\":10783:10785   */\n      0x1f\n        /* \"#utility.yul\":10776:10781   */\n      dup4\n        /* \"#utility.yul\":10772:10786   */\n      add\n        /* \"#utility.yul\":10768:10796   */\n      and\n        /* \"#utility.yul\":10758:10796   */\n      swap1\n      pop\n        /* \"#utility.yul\":10700:10802   */\n      swap2\n      swap1\n      pop\n      jump\t// out\n        /* \"#utility.yul\":10808:10930   */\n    tag_90:\n        /* \"#utility.yul\":10881:10905   */\n      tag_211\n        /* \"#utility.yul\":10899:10904   */\n      dup2\n        /* \"#utility.yul\":10881:10905   */\n      tag_154\n      jump\t// in\n    tag_211:\n        /* \"#utility.yul\":10874:10879   */\n      dup2\n        /* \"#utility.yul\":10871:10906   */\n      eq\n        /* \"#utility.yul\":10861:10924   */\n      tag_212\n      jumpi\n        /* \"#utility.yul\":10920:10921   */\n      0x00\n        /* \"#utility.yul\":10917:10918   */\n      dup1\n        /* \"#utility.yul\":10910:10922   */\n      revert\n        /* \"#utility.yul\":10861:10924   */\n    tag_212:\n        /* \"#utility.yul\":10808:10930   */\n      pop\n      jump\t// out\n\n    auxdata: 0xa26469706673582212202674ac5b9238ec57adb39ee73dad00d130c21e863efbabd7a4deb8e12169961464736f6c63430008070033\n}\n",
				"bytecode": {
					"linkReferences": {},
					"object": "608060405234801561001057600080fd5b5061096f806100206000396000f3fe608060405234801561001057600080fd5b506004361061004c5760003560e01c8063234c668614610051578063942b765a1461006d578063a4a2c40b1461008b578063b868ef57146100a9575b600080fd5b61006b60048036038101906100669190610427565b6100d9565b005b610075610146565b6040516100829190610621565b60405180910390f35b610093610241565b6040516100a09190610643565b60405180910390f35b6100c360048036038101906100be9190610470565b6102ad565b6040516100d09190610621565b60405180910390f35b60006040518060400160405280600081526020018381525090806001815401808255809150506001900390600052602060002090600202016000909190919091506000820151816000015560208201518160010190805190602001906101409291906102ff565b50505050565b60606000805480602002602001604051908101604052809291908181526020016000905b828210156102385783829060005260206000209060020201604051806040016040529081600082015481526020016001820180546101a790610795565b80601f01602080910402602001604051908101604052809291908181526020018280546101d390610795565b80156102205780601f106101f557610100808354040283529160200191610220565b820191906000526020600020905b81548152906001019060200180831161020357829003601f168201915b5050505050815250508152602001906001019061016a565b50505050905090565b60608060005b6001805490508110156102a557600181815481106102685761026761089f565b5b90600052602060002001548282815181106102865761028561089f565b5b602002602001018181525050808061029d906107f8565b915050610247565b508091505090565b60608060005b6000805490508110156102f55783600082815481106102d5576102d461089f565b5b9060005260206000209050505080806102ed906107f8565b9150506102b3565b5080915050919050565b82805461030b90610795565b90600052602060002090601f01602090048101928261032d5760008555610374565b82601f1061034657805160ff1916838001178555610374565b82800160010185558215610374579182015b82811115610373578251825591602001919060010190610358565b5b5090506103819190610385565b5090565b5b8082111561039e576000816000905550600101610386565b5090565b60006103b56103b08461068a565b610665565b9050828152602081018484840111156103d1576103d0610902565b5b6103dc848285610753565b509392505050565b600082601f8301126103f9576103f86108fd565b5b81356104098482602086016103a2565b91505092915050565b60008135905061042181610922565b92915050565b60006020828403121561043d5761043c61090c565b5b600082013567ffffffffffffffff81111561045b5761045a610907565b5b610467848285016103e4565b91505092915050565b6000602082840312156104865761048561090c565b5b600061049484828501610412565b91505092915050565b60006104a983836105d5565b905092915050565b60006104bd8383610612565b60208301905092915050565b60006104d4826106db565b6104de8185610716565b9350836020820285016104f0856106bb565b8060005b8581101561052c578484038952815161050d858261049d565b9450610518836106fc565b925060208a019950506001810190506104f4565b50829750879550505050505092915050565b6000610549826106e6565b6105538185610727565b935061055e836106cb565b8060005b8381101561058f57815161057688826104b1565b975061058183610709565b925050600181019050610562565b5085935050505092915050565b60006105a7826106f1565b6105b18185610738565b93506105c1818560208601610762565b6105ca81610911565b840191505092915050565b60006040830160008301516105ed6000860182610612565b5060208301518482036020860152610605828261059c565b9150508091505092915050565b61061b81610749565b82525050565b6000602082019050818103600083015261063b81846104c9565b905092915050565b6000602082019050818103600083015261065d818461053e565b905092915050565b600061066f610680565b905061067b82826107c7565b919050565b6000604051905090565b600067ffffffffffffffff8211156106a5576106a46108ce565b5b6106ae82610911565b9050602081019050919050565b6000819050602082019050919050565b6000819050602082019050919050565b600081519050919050565b600081519050919050565b600081519050919050565b6000602082019050919050565b6000602082019050919050565b600082825260208201905092915050565b600082825260208201905092915050565b600082825260208201905092915050565b6000819050919050565b82818337600083830152505050565b60005b83811015610780578082015181840152602081019050610765565b8381111561078f576000848401525b50505050565b600060028204905060018216806107ad57607f821691505b602082108114156107c1576107c0610870565b5b50919050565b6107d082610911565b810181811067ffffffffffffffff821117156107ef576107ee6108ce565b5b80604052505050565b600061080382610749565b91507fffffffffffffffffffffffffffffffffffffffffffffffffffffffffffffffff82141561083657610835610841565b5b600182019050919050565b7f4e487b7100000000000000000000000000000000000000000000000000000000600052601160045260246000fd5b7f4e487b7100000000000000000000000000000000000000000000000000000000600052602260045260246000fd5b7f4e487b7100000000000000000000000000000000000000000000000000000000600052603260045260246000fd5b7f4e487b7100000000000000000000000000000000000000000000000000000000600052604160045260246000fd5b600080fd5b600080fd5b600080fd5b600080fd5b6000601f19601f8301169050919050565b61092b81610749565b811461093657600080fd5b5056fea26469706673582212202674ac5b9238ec57adb39ee73dad00d130c21e863efbabd7a4deb8e12169961464736f6c63430008070033",
					"opcodes": "PUSH1 0x80 PUSH1 0x40 MSTORE CALLVALUE DUP1 ISZERO PUSH2 0x10 JUMPI PUSH1 0x0 DUP1 REVERT JUMPDEST POP PUSH2 0x96F DUP1 PUSH2 0x20 PUSH1 0x0 CODECOPY PUSH1 0x0 RETURN INVALID PUSH1 0x80 PUSH1 0x40 MSTORE CALLVALUE DUP1 ISZERO PUSH2 0x10 JUMPI PUSH1 0x0 DUP1 REVERT JUMPDEST POP PUSH1 0x4 CALLDATASIZE LT PUSH2 0x4C JUMPI PUSH1 0x0 CALLDATALOAD PUSH1 0xE0 SHR DUP1 PUSH4 0x234C6686 EQ PUSH2 0x51 JUMPI DUP1 PUSH4 0x942B765A EQ PUSH2 0x6D JUMPI DUP1 PUSH4 0xA4A2C40B EQ PUSH2 0x8B JUMPI DUP1 PUSH4 0xB868EF57 EQ PUSH2 0xA9 JUMPI JUMPDEST PUSH1 0x0 DUP1 REVERT JUMPDEST PUSH2 0x6B PUSH1 0x4 DUP1 CALLDATASIZE SUB DUP2 ADD SWAP1 PUSH2 0x66 SWAP2 SWAP1 PUSH2 0x427 JUMP JUMPDEST PUSH2 0xD9 JUMP JUMPDEST STOP JUMPDEST PUSH2 0x75 PUSH2 0x146 JUMP JUMPDEST PUSH1 0x40 MLOAD PUSH2 0x82 SWAP2 SWAP1 PUSH2 0x621 JUMP JUMPDEST PUSH1 0x40 MLOAD DUP1 SWAP2 SUB SWAP1 RETURN JUMPDEST PUSH2 0x93 PUSH2 0x241 JUMP JUMPDEST PUSH1 0x40 MLOAD PUSH2 0xA0 SWAP2 SWAP1 PUSH2 0x643 JUMP JUMPDEST PUSH1 0x40 MLOAD DUP1 SWAP2 SUB SWAP1 RETURN JUMPDEST PUSH2 0xC3 PUSH1 0x4 DUP1 CALLDATASIZE SUB DUP2 ADD SWAP1 PUSH2 0xBE SWAP2 SWAP1 PUSH2 0x470 JUMP JUMPDEST PUSH2 0x2AD JUMP JUMPDEST PUSH1 0x40 MLOAD PUSH2 0xD0 SWAP2 SWAP1 PUSH2 0x621 JUMP JUMPDEST PUSH1 0x40 MLOAD DUP1 SWAP2 SUB SWAP1 RETURN JUMPDEST PUSH1 0x0 PUSH1 0x40 MLOAD DUP1 PUSH1 0x40 ADD PUSH1 0x40 MSTORE DUP1 PUSH1 0x0 DUP2 MSTORE PUSH1 0x20 ADD DUP4 DUP2 MSTORE POP SWAP1 DUP1 PUSH1 0x1 DUP2 SLOAD ADD DUP1 DUP3 SSTORE DUP1 SWAP2 POP POP PUSH1 0x1 SWAP1 SUB SWAP1 PUSH1 0x0 MSTORE PUSH1 0x20 PUSH1 0x0 KECCAK256 SWAP1 PUSH1 0x2 MUL ADD PUSH1 0x0 SWAP1 SWAP2 SWAP1 SWAP2 SWAP1 SWAP2 POP PUSH1 0x0 DUP3 ADD MLOAD DUP2 PUSH1 0x0 ADD SSTORE PUSH1 0x20 DUP3 ADD MLOAD DUP2 PUSH1 0x1 ADD SWAP1 DUP1 MLOAD SWAP1 PUSH1 0x20 ADD SWAP1 PUSH2 0x140 SWAP3 SWAP2 SWAP1 PUSH2 0x2FF JUMP JUMPDEST POP POP POP POP JUMP JUMPDEST PUSH1 0x60 PUSH1 0x0 DUP1 SLOAD DUP1 PUSH1 0x20 MUL PUSH1 0x20 ADD PUSH1 0x40 MLOAD SWAP1 DUP2 ADD PUSH1 0x40 MSTORE DUP1 SWAP3 SWAP2 SWAP1 DUP2 DUP2 MSTORE PUSH1 0x20 ADD PUSH1 0x0 SWAP1 JUMPDEST DUP3 DUP3 LT ISZERO PUSH2 0x238 JUMPI DUP4 DUP3 SWAP1 PUSH1 0x0 MSTORE PUSH1 0x20 PUSH1 0x0 KECCAK256 SWAP1 PUSH1 0x2 MUL ADD PUSH1 0x40 MLOAD DUP1 PUSH1 0x40 ADD PUSH1 0x40 MSTORE SWAP1 DUP2 PUSH1 0x0 DUP3 ADD SLOAD DUP2 MSTORE PUSH1 0x20 ADD PUSH1 0x1 DUP3 ADD DUP1 SLOAD PUSH2 0x1A7 SWAP1 PUSH2 0x795 JUMP JUMPDEST DUP1 PUSH1 0x1F ADD PUSH1 0x20 DUP1 SWAP2 DIV MUL PUSH1 0x20 ADD PUSH1 0x40 MLOAD SWAP1 DUP2 ADD PUSH1 0x40 MSTORE DUP1 SWAP3 SWAP2 SWAP1 DUP2 DUP2 MSTORE PUSH1 0x20 ADD DUP3 DUP1 SLOAD PUSH2 0x1D3 SWAP1 PUSH2 0x795 JUMP JUMPDEST DUP1 ISZERO PUSH2 0x220 JUMPI DUP1 PUSH1 0x1F LT PUSH2 0x1F5 JUMPI PUSH2 0x100 DUP1 DUP4 SLOAD DIV MUL DUP4 MSTORE SWAP2 PUSH1 0x20 ADD SWAP2 PUSH2 0x220 JUMP JUMPDEST DUP3 ADD SWAP2 SWAP1 PUSH1 0x0 MSTORE PUSH1 0x20 PUSH1 0x0 KECCAK256 SWAP1 JUMPDEST DUP2 SLOAD DUP2 MSTORE SWAP1 PUSH1 0x1 ADD SWAP1 PUSH1 0x20 ADD DUP1 DUP4 GT PUSH2 0x203 JUMPI DUP3 SWAP1 SUB PUSH1 0x1F AND DUP3 ADD SWAP2 JUMPDEST POP POP POP POP POP DUP2 MSTORE POP POP DUP2 MSTORE PUSH1 0x20 ADD SWAP1 PUSH1 0x1 ADD SWAP1 PUSH2 0x16A JUMP JUMPDEST POP POP POP POP SWAP1 POP SWAP1 JUMP JUMPDEST PUSH1 0x60 DUP1 PUSH1 0x0 JUMPDEST PUSH1 0x1 DUP1 SLOAD SWAP1 POP DUP2 LT ISZERO PUSH2 0x2A5 JUMPI PUSH1 0x1 DUP2 DUP2 SLOAD DUP2 LT PUSH2 0x268 JUMPI PUSH2 0x267 PUSH2 0x89F JUMP JUMPDEST JUMPDEST SWAP1 PUSH1 0x0 MSTORE PUSH1 0x20 PUSH1 0x0 KECCAK256 ADD SLOAD DUP3 DUP3 DUP2 MLOAD DUP2 LT PUSH2 0x286 JUMPI PUSH2 0x285 PUSH2 0x89F JUMP JUMPDEST JUMPDEST PUSH1 0x20 MUL PUSH1 0x20 ADD ADD DUP2 DUP2 MSTORE POP POP DUP1 DUP1 PUSH2 0x29D SWAP1 PUSH2 0x7F8 JUMP JUMPDEST SWAP2 POP POP PUSH2 0x247 JUMP JUMPDEST POP DUP1 SWAP2 POP POP SWAP1 JUMP JUMPDEST PUSH1 0x60 DUP1 PUSH1 0x0 JUMPDEST PUSH1 0x0 DUP1 SLOAD SWAP1 POP DUP2 LT ISZERO PUSH2 0x2F5 JUMPI DUP4 PUSH1 0x0 DUP3 DUP2 SLOAD DUP2 LT PUSH2 0x2D5 JUMPI PUSH2 0x2D4 PUSH2 0x89F JUMP JUMPDEST JUMPDEST SWAP1 PUSH1 0x0 MSTORE PUSH1 0x20 PUSH1 0x0 KECCAK256 SWAP1 POP POP POP DUP1 DUP1 PUSH2 0x2ED SWAP1 PUSH2 0x7F8 JUMP JUMPDEST SWAP2 POP POP PUSH2 0x2B3 JUMP JUMPDEST POP DUP1 SWAP2 POP POP SWAP2 SWAP1 POP JUMP JUMPDEST DUP3 DUP1 SLOAD PUSH2 0x30B SWAP1 PUSH2 0x795 JUMP JUMPDEST SWAP1 PUSH1 0x0 MSTORE PUSH1 0x20 PUSH1 0x0 KECCAK256 SWAP1 PUSH1 0x1F ADD PUSH1 0x20 SWAP1 DIV DUP2 ADD SWAP3 DUP3 PUSH2 0x32D JUMPI PUSH1 0x0 DUP6 SSTORE PUSH2 0x374 JUMP JUMPDEST DUP3 PUSH1 0x1F LT PUSH2 0x346 JUMPI DUP1 MLOAD PUSH1 0xFF NOT AND DUP4 DUP1 ADD OR DUP6 SSTORE PUSH2 0x374 JUMP JUMPDEST DUP3 DUP1 ADD PUSH1 0x1 ADD DUP6 SSTORE DUP3 ISZERO PUSH2 0x374 JUMPI SWAP2 DUP3 ADD JUMPDEST DUP3 DUP2 GT ISZERO PUSH2 0x373 JUMPI DUP3 MLOAD DUP3 SSTORE SWAP2 PUSH1 0x20 ADD SWAP2 SWAP1 PUSH1 0x1 ADD SWAP1 PUSH2 0x358 JUMP JUMPDEST JUMPDEST POP SWAP1 POP PUSH2 0x381 SWAP2 SWAP1 PUSH2 0x385 JUMP JUMPDEST POP SWAP1 JUMP JUMPDEST JUMPDEST DUP1 DUP3 GT ISZERO PUSH2 0x39E JUMPI PUSH1 0x0 DUP2 PUSH1 0x0 SWAP1 SSTORE POP PUSH1 0x1 ADD PUSH2 0x386 JUMP JUMPDEST POP SWAP1 JUMP JUMPDEST PUSH1 0x0 PUSH2 0x3B5 PUSH2 0x3B0 DUP5 PUSH2 0x68A JUMP JUMPDEST PUSH2 0x665 JUMP JUMPDEST SWAP1 POP DUP3 DUP2 MSTORE PUSH1 0x20 DUP2 ADD DUP5 DUP5 DUP5 ADD GT ISZERO PUSH2 0x3D1 JUMPI PUSH2 0x3D0 PUSH2 0x902 JUMP JUMPDEST JUMPDEST PUSH2 0x3DC DUP5 DUP3 DUP6 PUSH2 0x753 JUMP JUMPDEST POP SWAP4 SWAP3 POP POP POP JUMP JUMPDEST PUSH1 0x0 DUP3 PUSH1 0x1F DUP4 ADD SLT PUSH2 0x3F9 JUMPI PUSH2 0x3F8 PUSH2 0x8FD JUMP JUMPDEST JUMPDEST DUP2 CALLDATALOAD PUSH2 0x409 DUP5 DUP3 PUSH1 0x20 DUP7 ADD PUSH2 0x3A2 JUMP JUMPDEST SWAP2 POP POP SWAP3 SWAP2 POP POP JUMP JUMPDEST PUSH1 0x0 DUP2 CALLDATALOAD SWAP1 POP PUSH2 0x421 DUP2 PUSH2 0x922 JUMP JUMPDEST SWAP3 SWAP2 POP POP JUMP JUMPDEST PUSH1 0x0 PUSH1 0x20 DUP3 DUP5 SUB SLT ISZERO PUSH2 0x43D JUMPI PUSH2 0x43C PUSH2 0x90C JUMP JUMPDEST JUMPDEST PUSH1 0x0 DUP3 ADD CALLDATALOAD PUSH8 0xFFFFFFFFFFFFFFFF DUP2 GT ISZERO PUSH2 0x45B JUMPI PUSH2 0x45A PUSH2 0x907 JUMP JUMPDEST JUMPDEST PUSH2 0x467 DUP5 DUP3 DUP6 ADD PUSH2 0x3E4 JUMP JUMPDEST SWAP2 POP POP SWAP3 SWAP2 POP POP JUMP JUMPDEST PUSH1 0x0 PUSH1 0x20 DUP3 DUP5 SUB SLT ISZERO PUSH2 0x486 JUMPI PUSH2 0x485 PUSH2 0x90C JUMP JUMPDEST JUMPDEST PUSH1 0x0 PUSH2 0x494 DUP5 DUP3 DUP6 ADD PUSH2 0x412 JUMP JUMPDEST SWAP2 POP POP SWAP3 SWAP2 POP POP JUMP JUMPDEST PUSH1 0x0 PUSH2 0x4A9 DUP4 DUP4 PUSH2 0x5D5 JUMP JUMPDEST SWAP1 POP SWAP3 SWAP2 POP POP JUMP JUMPDEST PUSH1 0x0 PUSH2 0x4BD DUP4 DUP4 PUSH2 0x612 JUMP JUMPDEST PUSH1 0x20 DUP4 ADD SWAP1 POP SWAP3 SWAP2 POP POP JUMP JUMPDEST PUSH1 0x0 PUSH2 0x4D4 DUP3 PUSH2 0x6DB JUMP JUMPDEST PUSH2 0x4DE DUP2 DUP6 PUSH2 0x716 JUMP JUMPDEST SWAP4 POP DUP4 PUSH1 0x20 DUP3 MUL DUP6 ADD PUSH2 0x4F0 DUP6 PUSH2 0x6BB JUMP JUMPDEST DUP1 PUSH1 0x0 JUMPDEST DUP6 DUP2 LT ISZERO PUSH2 0x52C JUMPI DUP5 DUP5 SUB DUP10 MSTORE DUP2 MLOAD PUSH2 0x50D DUP6 DUP3 PUSH2 0x49D JUMP JUMPDEST SWAP5 POP PUSH2 0x518 DUP4 PUSH2 0x6FC JUMP JUMPDEST SWAP3 POP PUSH1 0x20 DUP11 ADD SWAP10 POP POP PUSH1 0x1 DUP2 ADD SWAP1 POP PUSH2 0x4F4 JUMP JUMPDEST POP DUP3 SWAP8 POP DUP8 SWAP6 POP POP POP POP POP POP SWAP3 SWAP2 POP POP JUMP JUMPDEST PUSH1 0x0 PUSH2 0x549 DUP3 PUSH2 0x6E6 JUMP JUMPDEST PUSH2 0x553 DUP2 DUP6 PUSH2 0x727 JUMP JUMPDEST SWAP4 POP PUSH2 0x55E DUP4 PUSH2 0x6CB JUMP JUMPDEST DUP1 PUSH1 0x0 JUMPDEST DUP4 DUP2 LT ISZERO PUSH2 0x58F JUMPI DUP2 MLOAD PUSH2 0x576 DUP9 DUP3 PUSH2 0x4B1 JUMP JUMPDEST SWAP8 POP PUSH2 0x581 DUP4 PUSH2 0x709 JUMP JUMPDEST SWAP3 POP POP PUSH1 0x1 DUP2 ADD SWAP1 POP PUSH2 0x562 JUMP JUMPDEST POP DUP6 SWAP4 POP POP POP POP SWAP3 SWAP2 POP POP JUMP JUMPDEST PUSH1 0x0 PUSH2 0x5A7 DUP3 PUSH2 0x6F1 JUMP JUMPDEST PUSH2 0x5B1 DUP2 DUP6 PUSH2 0x738 JUMP JUMPDEST SWAP4 POP PUSH2 0x5C1 DUP2 DUP6 PUSH1 0x20 DUP7 ADD PUSH2 0x762 JUMP JUMPDEST PUSH2 0x5CA DUP2 PUSH2 0x911 JUMP JUMPDEST DUP5 ADD SWAP2 POP POP SWAP3 SWAP2 POP POP JUMP JUMPDEST PUSH1 0x0 PUSH1 0x40 DUP4 ADD PUSH1 0x0 DUP4 ADD MLOAD PUSH2 0x5ED PUSH1 0x0 DUP7 ADD DUP3 PUSH2 0x612 JUMP JUMPDEST POP PUSH1 0x20 DUP4 ADD MLOAD DUP5 DUP3 SUB PUSH1 0x20 DUP7 ADD MSTORE PUSH2 0x605 DUP3 DUP3 PUSH2 0x59C JUMP JUMPDEST SWAP2 POP POP DUP1 SWAP2 POP POP SWAP3 SWAP2 POP POP JUMP JUMPDEST PUSH2 0x61B DUP2 PUSH2 0x749 JUMP JUMPDEST DUP3 MSTORE POP POP JUMP JUMPDEST PUSH1 0x0 PUSH1 0x20 DUP3 ADD SWAP1 POP DUP2 DUP2 SUB PUSH1 0x0 DUP4 ADD MSTORE PUSH2 0x63B DUP2 DUP5 PUSH2 0x4C9 JUMP JUMPDEST SWAP1 POP SWAP3 SWAP2 POP POP JUMP JUMPDEST PUSH1 0x0 PUSH1 0x20 DUP3 ADD SWAP1 POP DUP2 DUP2 SUB PUSH1 0x0 DUP4 ADD MSTORE PUSH2 0x65D DUP2 DUP5 PUSH2 0x53E JUMP JUMPDEST SWAP1 POP SWAP3 SWAP2 POP POP JUMP JUMPDEST PUSH1 0x0 PUSH2 0x66F PUSH2 0x680 JUMP JUMPDEST SWAP1 POP PUSH2 0x67B DUP3 DUP3 PUSH2 0x7C7 JUMP JUMPDEST SWAP2 SWAP1 POP JUMP JUMPDEST PUSH1 0x0 PUSH1 0x40 MLOAD SWAP1 POP SWAP1 JUMP JUMPDEST PUSH1 0x0 PUSH8 0xFFFFFFFFFFFFFFFF DUP3 GT ISZERO PUSH2 0x6A5 JUMPI PUSH2 0x6A4 PUSH2 0x8CE JUMP JUMPDEST JUMPDEST PUSH2 0x6AE DUP3 PUSH2 0x911 JUMP JUMPDEST SWAP1 POP PUSH1 0x20 DUP2 ADD SWAP1 POP SWAP2 SWAP1 POP JUMP JUMPDEST PUSH1 0x0 DUP2 SWAP1 POP PUSH1 0x20 DUP3 ADD SWAP1 POP SWAP2 SWAP1 POP JUMP JUMPDEST PUSH1 0x0 DUP2 SWAP1 POP PUSH1 0x20 DUP3 ADD SWAP1 POP SWAP2 SWAP1 POP JUMP JUMPDEST PUSH1 0x0 DUP2 MLOAD SWAP1 POP SWAP2 SWAP1 POP JUMP JUMPDEST PUSH1 0x0 DUP2 MLOAD SWAP1 POP SWAP2 SWAP1 POP JUMP JUMPDEST PUSH1 0x0 DUP2 MLOAD SWAP1 POP SWAP2 SWAP1 POP JUMP JUMPDEST PUSH1 0x0 PUSH1 0x20 DUP3 ADD SWAP1 POP SWAP2 SWAP1 POP JUMP JUMPDEST PUSH1 0x0 PUSH1 0x20 DUP3 ADD SWAP1 POP SWAP2 SWAP1 POP JUMP JUMPDEST PUSH1 0x0 DUP3 DUP3 MSTORE PUSH1 0x20 DUP3 ADD SWAP1 POP SWAP3 SWAP2 POP POP JUMP JUMPDEST PUSH1 0x0 DUP3 DUP3 MSTORE PUSH1 0x20 DUP3 ADD SWAP1 POP SWAP3 SWAP2 POP POP JUMP JUMPDEST PUSH1 0x0 DUP3 DUP3 MSTORE PUSH1 0x20 DUP3 ADD SWAP1 POP SWAP3 SWAP2 POP POP JUMP JUMPDEST PUSH1 0x0 DUP2 SWAP1 POP SWAP2 SWAP1 POP JUMP JUMPDEST DUP3 DUP2 DUP4 CALLDATACOPY PUSH1 0x0 DUP4 DUP4 ADD MSTORE POP POP POP JUMP JUMPDEST PUSH1 0x0 JUMPDEST DUP4 DUP2 LT ISZERO PUSH2 0x780 JUMPI DUP1 DUP3 ADD MLOAD DUP2 DUP5 ADD MSTORE PUSH1 0x20 DUP2 ADD SWAP1 POP PUSH2 0x765 JUMP JUMPDEST DUP4 DUP2 GT ISZERO PUSH2 0x78F JUMPI PUSH1 0x0 DUP5 DUP5 ADD MSTORE JUMPDEST POP POP POP POP JUMP JUMPDEST PUSH1 0x0 PUSH1 0x2 DUP3 DIV SWAP1 POP PUSH1 0x1 DUP3 AND DUP1 PUSH2 0x7AD JUMPI PUSH1 0x7F DUP3 AND SWAP2 POP JUMPDEST PUSH1 0x20 DUP3 LT DUP2 EQ ISZERO PUSH2 0x7C1 JUMPI PUSH2 0x7C0 PUSH2 0x870 JUMP JUMPDEST JUMPDEST POP SWAP2 SWAP1 POP JUMP JUMPDEST PUSH2 0x7D0 DUP3 PUSH2 0x911 JUMP JUMPDEST DUP2 ADD DUP2 DUP2 LT PUSH8 0xFFFFFFFFFFFFFFFF DUP3 GT OR ISZERO PUSH2 0x7EF JUMPI PUSH2 0x7EE PUSH2 0x8CE JUMP JUMPDEST JUMPDEST DUP1 PUSH1 0x40 MSTORE POP POP POP JUMP JUMPDEST PUSH1 0x0 PUSH2 0x803 DUP3 PUSH2 0x749 JUMP JUMPDEST SWAP2 POP PUSH32 0xFFFFFFFFFFFFFFFFFFFFFFFFFFFFFFFFFFFFFFFFFFFFFFFFFFFFFFFFFFFFFFFF DUP3 EQ ISZERO PUSH2 0x836 JUMPI PUSH2 0x835 PUSH2 0x841 JUMP JUMPDEST JUMPDEST PUSH1 0x1 DUP3 ADD SWAP1 POP SWAP2 SWAP1 POP JUMP JUMPDEST PUSH32 0x4E487B7100000000000000000000000000000000000000000000000000000000 PUSH1 0x0 MSTORE PUSH1 0x11 PUSH1 0x4 MSTORE PUSH1 0x24 PUSH1 0x0 REVERT JUMPDEST PUSH32 0x4E487B7100000000000000000000000000000000000000000000000000000000 PUSH1 0x0 MSTORE PUSH1 0x22 PUSH1 0x4 MSTORE PUSH1 0x24 PUSH1 0x0 REVERT JUMPDEST PUSH32 0x4E487B7100000000000000000000000000000000000000000000000000000000 PUSH1 0x0 MSTORE PUSH1 0x32 PUSH1 0x4 MSTORE PUSH1 0x24 PUSH1 0x0 REVERT JUMPDEST PUSH32 0x4E487B7100000000000000000000000000000000000000000000000000000000 PUSH1 0x0 MSTORE PUSH1 0x41 PUSH1 0x4 MSTORE PUSH1 0x24 PUSH1 0x0 REVERT JUMPDEST PUSH1 0x0 DUP1 REVERT JUMPDEST PUSH1 0x0 DUP1 REVERT JUMPDEST PUSH1 0x0 DUP1 REVERT JUMPDEST PUSH1 0x0 DUP1 REVERT JUMPDEST PUSH1 0x0 PUSH1 0x1F NOT PUSH1 0x1F DUP4 ADD AND SWAP1 POP SWAP2 SWAP1 POP JUMP JUMPDEST PUSH2 0x92B DUP2 PUSH2 0x749 JUMP JUMPDEST DUP2 EQ PUSH2 0x936 JUMPI PUSH1 0x0 DUP1 REVERT JUMPDEST POP JUMP INVALID LOG2 PUSH5 0x6970667358 0x22 SLT KECCAK256 0x26 PUSH21 0xAC5B9238EC57ADB39EE73DAD00D130C21E863EFBAB 0xD7 LOG4 0xDE 0xB8 0xE1 0x21 PUSH10 0x961464736F6C63430008 SMOD STOP CALLER "
				},
				"gasEstimates": {
					"creation": {
						"codeDepositCost": "483000",
						"executionCost": "518",
						"totalCost": "483518"
					},
					"external": {
						"createReadList(string)": "infinite",
						"fn()": "infinite",
						"getFilterReadList(uint256)": "infinite",
						"getList()": "infinite"
					}
				},
				"methodIdentifiers": {
					"createReadList(string)": "234c6686",
					"fn()": "a4a2c40b",
					"getFilterReadList(uint256)": "b868ef57",
					"getList()": "942b765a"
				}
			},
			"storageLayout": {
				"storage": [
					{
						"astId": 10,
						"contract": "array.sol:ArrayTest",
						"label": "list",
						"offset": 0,
						"slot": "0",
						"type": "t_array(t_struct(Book)6_storage)dyn_storage"
					},
					{
						"astId": 13,
						"contract": "array.sol:ArrayTest",
						"label": "arr",
						"offset": 0,
						"slot": "1",
						"type": "t_array(t_uint256)dyn_storage"
					}
				],
				"types": {
					"t_array(t_struct(Book)6_storage)dyn_storage": {
						"base": "t_struct(Book)6_storage",
						"encoding": "dynamic_array",
						"label": "struct ArrayTest.Book[]",
						"numberOfBytes": "32"
					},
					"t_array(t_uint256)dyn_storage": {
						"base": "t_uint256",
						"encoding": "dynamic_array",
						"label": "uint256[]",
						"numberOfBytes": "32"
					},
					"t_string_storage": {
						"encoding": "bytes",
						"label": "string",
						"numberOfBytes": "32"
					},
					"t_struct(Book)6_storage": {
						"encoding": "inplace",
						"label": "struct ArrayTest.Book",
						"members": [
							{
								"astId": 3,
								"contract": "array.sol:ArrayTest",
								"label": "status",
								"offset": 0,
								"slot": "0",
								"type": "t_uint256"
							},
							{
								"astId": 5,
								"contract": "array.sol:ArrayTest",
								"label": "bookName",
								"offset": 0,
								"slot": "1",
								"type": "t_string_storage"
							}
						],
						"numberOfBytes": "64"
					},
					"t_uint256": {
						"encoding": "inplace",
						"label": "uint256",
						"numberOfBytes": "32"
					}
				}
			},
			"userdoc": {
				"kind": "user",
				"methods": {},
				"version": 1
			}
		}
	}
}