{
	"array2.sol": {
		"ArrayTest": {
			"abi": [
				{
					"inputs": [],
					"name": "f1",
					"outputs": [],
					"stateMutability": "pure",
					"type": "function"
				}
			],
			"devdoc": {
				"kind": "dev",
				"methods": {},
				"version": 1
			},
			"evm": {
				"assembly": "    /* \"array2.sol\":88:453  contract ArrayTest {... */\n  mstore(0x40, 0x80)\n  callvalue\n  dup1\n  iszero\n  tag_1\n  jumpi\n  0x00\n  dup1\n  revert\ntag_1:\n  pop\n  dataSize(sub_0)\n  dup1\n  dataOffset(sub_0)\n  0x00\n  codecopy\n  0x00\n  return\nstop\n\nsub_0: assembly {\n        /* \"array2.sol\":88:453  contract ArrayTest {... */\n      mstore(0x40, 0x80)\n      callvalue\n      dup1\n      iszero\n      tag_1\n      jumpi\n      0x00\n      dup1\n      revert\n    tag_1:\n      pop\n      jumpi(tag_2, lt(calldatasize, 0x04))\n      shr(0xe0, calldataload(0x00))\n      dup1\n      0xc27fc305\n      eq\n      tag_3\n      jumpi\n    tag_2:\n      0x00\n      dup1\n      revert\n        /* \"array2.sol\":183:440  function f1() public pure {... */\n    tag_3:\n      tag_4\n      tag_5\n      jump\t// in\n    tag_4:\n      stop\n    tag_5:\n        /* \"array2.sol\":220:237  uint[] memory arr */\n      0x00\n        /* \"array2.sol\":251:252  5 */\n      0x05\n        /* \"array2.sol\":240:253  new uint[](5) */\n      0xffffffffffffffff\n      dup2\n      gt\n      iszero\n      tag_7\n      jumpi\n      tag_8\n      tag_9\n      jump\t// in\n    tag_8:\n    tag_7:\n      mload(0x40)\n      swap1\n      dup1\n      dup3\n      mstore\n      dup1\n      0x20\n      mul\n      0x20\n      add\n      dup3\n      add\n      0x40\n      mstore\n      dup1\n      iszero\n      tag_10\n      jumpi\n      dup2\n      0x20\n      add\n      0x20\n      dup3\n      mul\n      dup1\n      calldatasize\n      dup4\n      calldatacopy\n      dup1\n      dup3\n      add\n      swap2\n      pop\n      pop\n      swap1\n      pop\n    tag_10:\n      pop\n        /* \"array2.sol\":220:253  uint[] memory arr = new uint[](5) */\n      swap1\n      pop\n        /* \"array2.sol\":321:322  1 */\n      0x01\n        /* \"array2.sol\":312:315  arr */\n      dup2\n        /* \"array2.sol\":316:317  0 */\n      0x00\n        /* \"array2.sol\":312:318  arr[0] */\n      dup2\n      mload\n      dup2\n      lt\n      tag_11\n      jumpi\n      tag_12\n      tag_13\n      jump\t// in\n    tag_12:\n    tag_11:\n      0x20\n      mul\n      0x20\n      add\n      add\n        /* \"array2.sol\":312:322  arr[0] = 1 */\n      dup2\n      dup2\n      mstore\n      pop\n      pop\n        /* \"array2.sol\":342:343  2 */\n      0x02\n        /* \"array2.sol\":333:336  arr */\n      dup2\n        /* \"array2.sol\":337:338  1 */\n      0x01\n        /* \"array2.sol\":333:339  arr[1] */\n      dup2\n      mload\n      dup2\n      lt\n      tag_14\n      jumpi\n      tag_15\n      tag_13\n      jump\t// in\n    tag_15:\n    tag_14:\n      0x20\n      mul\n      0x20\n      add\n      add\n        /* \"array2.sol\":333:343  arr[1] = 2 */\n      dup2\n      dup2\n      mstore\n      pop\n      pop\n        /* \"array2.sol\":363:364  3 */\n      0x03\n        /* \"array2.sol\":354:357  arr */\n      dup2\n        /* \"array2.sol\":358:359  2 */\n      0x02\n        /* \"array2.sol\":354:360  arr[2] */\n      dup2\n      mload\n      dup2\n      lt\n      tag_16\n      jumpi\n      tag_17\n      tag_13\n      jump\t// in\n    tag_17:\n    tag_16:\n      0x20\n      mul\n      0x20\n      add\n      add\n        /* \"array2.sol\":354:364  arr[2] = 3 */\n      dup2\n      dup2\n      mstore\n      pop\n      pop\n        /* \"array2.sol\":384:385  4 */\n      0x04\n        /* \"array2.sol\":375:378  arr */\n      dup2\n        /* \"array2.sol\":379:380  3 */\n      0x03\n        /* \"array2.sol\":375:381  arr[3] */\n      dup2\n      mload\n      dup2\n      lt\n      tag_18\n      jumpi\n      tag_19\n      tag_13\n      jump\t// in\n    tag_19:\n    tag_18:\n      0x20\n      mul\n      0x20\n      add\n      add\n        /* \"array2.sol\":375:385  arr[3] = 4 */\n      dup2\n      dup2\n      mstore\n      pop\n      pop\n        /* \"array2.sol\":405:406  5 */\n      0x05\n        /* \"array2.sol\":396:399  arr */\n      dup2\n        /* \"array2.sol\":400:401  4 */\n      0x04\n        /* \"array2.sol\":396:402  arr[4] */\n      dup2\n      mload\n      dup2\n      lt\n      tag_20\n      jumpi\n      tag_21\n      tag_13\n      jump\t// in\n    tag_21:\n    tag_20:\n      0x20\n      mul\n      0x20\n      add\n      add\n        /* \"array2.sol\":396:406  arr[4] = 5 */\n      dup2\n      dup2\n      mstore\n      pop\n      pop\n        /* \"array2.sol\":426:429  arr */\n      dup1\n        /* \"array2.sol\":430:431  4 */\n      0x04\n        /* \"array2.sol\":426:432  arr[4] */\n      dup2\n      mload\n      dup2\n      lt\n      tag_22\n      jumpi\n      tag_23\n      tag_13\n      jump\t// in\n    tag_23:\n    tag_22:\n      0x20\n      mul\n      0x20\n      add\n      add\n        /* \"array2.sol\":419:432  delete arr[4] */\n      0x00\n      dup2\n      mstore\n      pop\n        /* \"array2.sol\":209:440  {... */\n      pop\n        /* \"array2.sol\":183:440  function f1() public pure {... */\n      jump\t// out\n        /* \"#utility.yul\":7:187   */\n    tag_9:\n        /* \"#utility.yul\":55:132   */\n      0x4e487b7100000000000000000000000000000000000000000000000000000000\n        /* \"#utility.yul\":52:53   */\n      0x00\n        /* \"#utility.yul\":45:133   */\n      mstore\n        /* \"#utility.yul\":152:156   */\n      0x41\n        /* \"#utility.yul\":149:150   */\n      0x04\n        /* \"#utility.yul\":142:157   */\n      mstore\n        /* \"#utility.yul\":176:180   */\n      0x24\n        /* \"#utility.yul\":173:174   */\n      0x00\n        /* \"#utility.yul\":166:181   */\n      revert\n        /* \"#utility.yul\":193:373   */\n    tag_13:\n        /* \"#utility.yul\":241:318   */\n      0x4e487b7100000000000000000000000000000000000000000000000000000000\n        /* \"#utility.yul\":238:239   */\n      0x00\n        /* \"#utility.yul\":231:319   */\n      mstore\n        /* \"#utility.yul\":338:342   */\n      0x32\n        /* \"#utility.yul\":335:336   */\n      0x04\n        /* \"#utility.yul\":328:343   */\n      mstore\n        /* \"#utility.yul\":362:366   */\n      0x24\n        /* \"#utility.yul\":359:360   */\n      0x00\n        /* \"#utility.yul\":352:367   */\n      revert\n\n    auxdata: 0xa264697066735822122035d7d9c7f8df784317d3ca34a7e7788c835dc5a5902d35a9cddf8cca2e6b8ac564736f6c634300080f0033\n}\n",
				"bytecode": {
					"linkReferences": {},
					"object": "608060405234801561001057600080fd5b506101e9806100206000396000f3fe608060405234801561001057600080fd5b506004361061002b5760003560e01c8063c27fc30514610030575b600080fd5b61003861003a565b005b6000600567ffffffffffffffff81111561005757610056610155565b5b6040519080825280602002602001820160405280156100855781602001602082028036833780820191505090505b50905060018160008151811061009e5761009d610184565b5b6020026020010181815250506002816001815181106100c0576100bf610184565b5b6020026020010181815250506003816002815181106100e2576100e1610184565b5b60200260200101818152505060048160038151811061010457610103610184565b5b60200260200101818152505060058160048151811061012657610125610184565b5b6020026020010181815250508060048151811061014657610145610184565b5b60200260200101600081525050565b7f4e487b7100000000000000000000000000000000000000000000000000000000600052604160045260246000fd5b7f4e487b7100000000000000000000000000000000000000000000000000000000600052603260045260246000fdfea264697066735822122035d7d9c7f8df784317d3ca34a7e7788c835dc5a5902d35a9cddf8cca2e6b8ac564736f6c634300080f0033",
					"opcodes": "PUSH1 0x80 PUSH1 0x40 MSTORE CALLVALUE DUP1 ISZERO PUSH2 0x10 JUMPI PUSH1 0x0 DUP1 REVERT JUMPDEST POP PUSH2 0x1E9 DUP1 PUSH2 0x20 PUSH1 0x0 CODECOPY PUSH1 0x0 RETURN INVALID PUSH1 0x80 PUSH1 0x40 MSTORE CALLVALUE DUP1 ISZERO PUSH2 0x10 JUMPI PUSH1 0x0 DUP1 REVERT JUMPDEST POP PUSH1 0x4 CALLDATASIZE LT PUSH2 0x2B JUMPI PUSH1 0x0 CALLDATALOAD PUSH1 0xE0 SHR DUP1 PUSH4 0xC27FC305 EQ PUSH2 0x30 JUMPI JUMPDEST PUSH1 0x0 DUP1 REVERT JUMPDEST PUSH2 0x38 PUSH2 0x3A JUMP JUMPDEST STOP JUMPDEST PUSH1 0x0 PUSH1 0x5 PUSH8 0xFFFFFFFFFFFFFFFF DUP2 GT ISZERO PUSH2 0x57 JUMPI PUSH2 0x56 PUSH2 0x155 JUMP JUMPDEST JUMPDEST PUSH1 0x40 MLOAD SWAP1 DUP1 DUP3 MSTORE DUP1 PUSH1 0x20 MUL PUSH1 0x20 ADD DUP3 ADD PUSH1 0x40 MSTORE DUP1 ISZERO PUSH2 0x85 JUMPI DUP2 PUSH1 0x20 ADD PUSH1 0x20 DUP3 MUL DUP1 CALLDATASIZE DUP4 CALLDATACOPY DUP1 DUP3 ADD SWAP2 POP POP SWAP1 POP JUMPDEST POP SWAP1 POP PUSH1 0x1 DUP2 PUSH1 0x0 DUP2 MLOAD DUP2 LT PUSH2 0x9E JUMPI PUSH2 0x9D PUSH2 0x184 JUMP JUMPDEST JUMPDEST PUSH1 0x20 MUL PUSH1 0x20 ADD ADD DUP2 DUP2 MSTORE POP POP PUSH1 0x2 DUP2 PUSH1 0x1 DUP2 MLOAD DUP2 LT PUSH2 0xC0 JUMPI PUSH2 0xBF PUSH2 0x184 JUMP JUMPDEST JUMPDEST PUSH1 0x20 MUL PUSH1 0x20 ADD ADD DUP2 DUP2 MSTORE POP POP PUSH1 0x3 DUP2 PUSH1 0x2 DUP2 MLOAD DUP2 LT PUSH2 0xE2 JUMPI PUSH2 0xE1 PUSH2 0x184 JUMP JUMPDEST JUMPDEST PUSH1 0x20 MUL PUSH1 0x20 ADD ADD DUP2 DUP2 MSTORE POP POP PUSH1 0x4 DUP2 PUSH1 0x3 DUP2 MLOAD DUP2 LT PUSH2 0x104 JUMPI PUSH2 0x103 PUSH2 0x184 JUMP JUMPDEST JUMPDEST PUSH1 0x20 MUL PUSH1 0x20 ADD ADD DUP2 DUP2 MSTORE POP POP PUSH1 0x5 DUP2 PUSH1 0x4 DUP2 MLOAD DUP2 LT PUSH2 0x126 JUMPI PUSH2 0x125 PUSH2 0x184 JUMP JUMPDEST JUMPDEST PUSH1 0x20 MUL PUSH1 0x20 ADD ADD DUP2 DUP2 MSTORE POP POP DUP1 PUSH1 0x4 DUP2 MLOAD DUP2 LT PUSH2 0x146 JUMPI PUSH2 0x145 PUSH2 0x184 JUMP JUMPDEST JUMPDEST PUSH1 0x20 MUL PUSH1 0x20 ADD ADD PUSH1 0x0 DUP2 MSTORE POP POP JUMP JUMPDEST PUSH32 0x4E487B7100000000000000000000000000000000000000000000000000000000 PUSH1 0x0 MSTORE PUSH1 0x41 PUSH1 0x4 MSTORE PUSH1 0x24 PUSH1 0x0 REVERT JUMPDEST PUSH32 0x4E487B7100000000000000000000000000000000000000000000000000000000 PUSH1 0x0 MSTORE PUSH1 0x32 PUSH1 0x4 MSTORE PUSH1 0x24 PUSH1 0x0 REVERT INVALID LOG2 PUSH5 0x6970667358 0x22 SLT KECCAK256 CALLDATALOAD 0xD7 0xD9 0xC7 0xF8 0xDF PUSH25 0x4317D3CA34A7E7788C835DC5A5902D35A9CDDF8CCA2E6B8AC5 PUSH5 0x736F6C6343 STOP ADDMOD 0xF STOP CALLER "
				},
				"gasEstimates": {
					"creation": {
						"codeDepositCost": "97800",
						"executionCost": "147",
						"totalCost": "97947"
					},
					"external": {
						"f1()": "703"
					}
				},
				"methodIdentifiers": {
					"f1()": "c27fc305"
				}
			},
			"storageLayout": {
				"storage": [],
				"types": null
			},
			"userdoc": {
				"kind": "user",
				"methods": {},
				"version": 1
			}
		}
	}
}