{
	"crowdfunding.sol": {
		"CrowdfundingContract": {
			"abi": [
				{
					"inputs": [
						{
							"internalType": "string",
							"name": "_title",
							"type": "string"
						},
						{
							"internalType": "address",
							"name": "_recipient",
							"type": "address"
						},
						{
							"internalType": "string",
							"name": "_expectAmout",
							"type": "string"
						}
					],
					"name": "createCrowdfunding",
					"outputs": [],
					"stateMutability": "nonpayable",
					"type": "function"
				},
				{
					"inputs": [
						{
							"internalType": "uint256",
							"name": "_status",
							"type": "uint256"
						}
					],
					"name": "getCrowdfundingByStatus",
					"outputs": [
						{
							"components": [
								{
									"internalType": "uint256",
									"name": "num",
									"type": "uint256"
								},
								{
									"internalType": "string",
									"name": "title",
									"type": "string"
								},
								{
									"internalType": "uint256",
									"name": "status",
									"type": "uint256"
								},
								{
									"internalType": "address",
									"name": "creator",
									"type": "address"
								},
								{
									"internalType": "address",
									"name": "recipient",
									"type": "address"
								},
								{
									"internalType": "uint256",
									"name": "joinNum",
									"type": "uint256"
								},
								{
									"internalType": "string",
									"name": "expectAmout",
									"type": "string"
								},
								{
									"internalType": "string",
									"name": "actualAmount",
									"type": "string"
								}
							],
							"internalType": "struct CrowdfundingContract.Crowdfunding[]",
							"name": "",
							"type": "tuple[]"
						}
					],
					"stateMutability": "view",
					"type": "function"
				},
				{
					"inputs": [],
					"name": "getList",
					"outputs": [
						{
							"components": [
								{
									"internalType": "uint256",
									"name": "num",
									"type": "uint256"
								},
								{
									"internalType": "string",
									"name": "title",
									"type": "string"
								},
								{
									"internalType": "uint256",
									"name": "status",
									"type": "uint256"
								},
								{
									"internalType": "address",
									"name": "creator",
									"type": "address"
								},
								{
									"internalType": "address",
									"name": "recipient",
									"type": "address"
								},
								{
									"internalType": "uint256",
									"name": "joinNum",
									"type": "uint256"
								},
								{
									"internalType": "string",
									"name": "expectAmout",
									"type": "string"
								},
								{
									"internalType": "string",
									"name": "actualAmount",
									"type": "string"
								}
							],
							"internalType": "struct CrowdfundingContract.Crowdfunding[]",
							"name": "",
							"type": "tuple[]"
						}
					],
					"stateMutability": "view",
					"type": "function"
				},
				{
					"inputs": [
						{
							"internalType": "uint256",
							"name": "",
							"type": "uint256"
						}
					],
					"name": "list",
					"outputs": [
						{
							"internalType": "uint256",
							"name": "num",
							"type": "uint256"
						},
						{
							"internalType": "string",
							"name": "title",
							"type": "string"
						},
						{
							"internalType": "uint256",
							"name": "status",
							"type": "uint256"
						},
						{
							"internalType": "address",
							"name": "creator",
							"type": "address"
						},
						{
							"internalType": "address",
							"name": "recipient",
							"type": "address"
						},
						{
							"internalType": "uint256",
							"name": "joinNum",
							"type": "uint256"
						},
						{
							"internalType": "string",
							"name": "expectAmout",
							"type": "string"
						},
						{
							"internalType": "string",
							"name": "actualAmount",
							"type": "string"
						}
					],
					"stateMutability": "view",
					"type": "function"
				},
				{
					"inputs": [
						{
							"internalType": "uint256",
							"name": "num",
							"type": "uint256"
						},
						{
							"internalType": "uint256",
							"name": "val",
							"type": "uint256"
						}
					],
					"name": "setStatus",
					"outputs": [],
					"stateMutability": "nonpayable",
					"type": "function"
				}
			],
			"devdoc": {
				"kind": "dev",
				"methods": {},
				"version": 1
			},
			"evm": {
				"assembly": "    /* \"crowdfunding.sol\":60:1605  contract CrowdfundingContract {... */\n  mstore(0x40, 0x80)\n  callvalue\n  dup1\n  iszero\n  tag_1\n  jumpi\n  0x00\n  dup1\n  revert\ntag_1:\n  pop\n  dataSize(sub_0)\n  dup1\n  dataOffset(sub_0)\n  0x00\n  codecopy\n  0x00\n  return\nstop\n\nsub_0: assembly {\n        /* \"crowdfunding.sol\":60:1605  contract CrowdfundingContract {... */\n      mstore(0x40, 0x80)\n      callvalue\n      dup1\n      iszero\n      tag_1\n      jumpi\n      0x00\n      dup1\n      revert\n    tag_1:\n      pop\n      jumpi(tag_2, lt(calldatasize, 0x04))\n      shr(0xe0, calldataload(0x00))\n      dup1\n      0x80c9419e\n      eq\n      tag_3\n      jumpi\n      dup1\n      0x82e40813\n      eq\n      tag_4\n      jumpi\n      dup1\n      0x904cc175\n      eq\n      tag_5\n      jumpi\n      dup1\n      0x942b765a\n      eq\n      tag_6\n      jumpi\n      dup1\n      0xa97af4d5\n      eq\n      tag_7\n      jumpi\n    tag_2:\n      0x00\n      dup1\n      revert\n        /* \"crowdfunding.sol\":583:609  Crowdfunding[] public list */\n    tag_3:\n      tag_8\n      0x04\n      dup1\n      calldatasize\n      sub\n      dup2\n      add\n      swap1\n      tag_9\n      swap2\n      swap1\n      tag_10\n      jump\t// in\n    tag_9:\n      tag_11\n      jump\t// in\n    tag_8:\n      mload(0x40)\n      tag_12\n      swap9\n      swap8\n      swap7\n      swap6\n      swap5\n      swap4\n      swap3\n      swap2\n      swap1\n      tag_13\n      jump\t// in\n    tag_12:\n      mload(0x40)\n      dup1\n      swap2\n      sub\n      swap1\n      return\n        /* \"crowdfunding.sol\":1212:1348  function setStatus(uint num,uint val) public {... */\n    tag_4:\n      tag_14\n      0x04\n      dup1\n      calldatasize\n      sub\n      dup2\n      add\n      swap1\n      tag_15\n      swap2\n      swap1\n      tag_16\n      jump\t// in\n    tag_15:\n      tag_17\n      jump\t// in\n    tag_14:\n      stop\n        /* \"crowdfunding.sol\":1356:1499  function getCrowdfundingByStatus(uint _status) public view returns (Crowdfunding[] memory){... */\n    tag_5:\n      tag_18\n      0x04\n      dup1\n      calldatasize\n      sub\n      dup2\n      add\n      swap1\n      tag_19\n      swap2\n      swap1\n      tag_10\n      jump\t// in\n    tag_19:\n      tag_20\n      jump\t// in\n    tag_18:\n      mload(0x40)\n      tag_21\n      swap2\n      swap1\n      tag_22\n      jump\t// in\n    tag_21:\n      mload(0x40)\n      dup1\n      swap2\n      sub\n      swap1\n      return\n        /* \"crowdfunding.sol\":1507:1600  function getList() public view returns (Crowdfunding[] memory) {... */\n    tag_6:\n      tag_23\n      tag_24\n      jump\t// in\n    tag_23:\n      mload(0x40)\n      tag_25\n      swap2\n      swap1\n      tag_22\n      jump\t// in\n    tag_25:\n      mload(0x40)\n      dup1\n      swap2\n      sub\n      swap1\n      return\n        /* \"crowdfunding.sol\":674:1171  function createCrowdfunding(string memory _title,address _recipient, string memory _expectAmout) public {... */\n    tag_7:\n      tag_26\n      0x04\n      dup1\n      calldatasize\n      sub\n      dup2\n      add\n      swap1\n      tag_27\n      swap2\n      swap1\n      tag_28\n      jump\t// in\n    tag_27:\n      tag_29\n      jump\t// in\n    tag_26:\n      stop\n        /* \"crowdfunding.sol\":583:609  Crowdfunding[] public list */\n    tag_11:\n      0x01\n      dup2\n      dup2\n      sload\n      dup2\n      lt\n      tag_30\n      jumpi\n      0x00\n      dup1\n      revert\n    tag_30:\n      swap1\n      0x00\n      mstore\n      keccak256(0x00, 0x20)\n      swap1\n      0x08\n      mul\n      add\n      0x00\n      swap2\n      pop\n      swap1\n      pop\n      dup1\n      0x00\n      add\n      sload\n      swap1\n      dup1\n      0x01\n      add\n      dup1\n      sload\n      tag_32\n      swap1\n      tag_33\n      jump\t// in\n    tag_32:\n      dup1\n      0x1f\n      add\n      0x20\n      dup1\n      swap2\n      div\n      mul\n      0x20\n      add\n      mload(0x40)\n      swap1\n      dup2\n      add\n      0x40\n      mstore\n      dup1\n      swap3\n      swap2\n      swap1\n      dup2\n      dup2\n      mstore\n      0x20\n      add\n      dup3\n      dup1\n      sload\n      tag_34\n      swap1\n      tag_33\n      jump\t// in\n    tag_34:\n      dup1\n      iszero\n      tag_35\n      jumpi\n      dup1\n      0x1f\n      lt\n      tag_36\n      jumpi\n      0x0100\n      dup1\n      dup4\n      sload\n      div\n      mul\n      dup4\n      mstore\n      swap2\n      0x20\n      add\n      swap2\n      jump(tag_35)\n    tag_36:\n      dup3\n      add\n      swap2\n      swap1\n      0x00\n      mstore\n      keccak256(0x00, 0x20)\n      swap1\n    tag_37:\n      dup2\n      sload\n      dup2\n      mstore\n      swap1\n      0x01\n      add\n      swap1\n      0x20\n      add\n      dup1\n      dup4\n      gt\n      tag_37\n      jumpi\n      dup3\n      swap1\n      sub\n      0x1f\n      and\n      dup3\n      add\n      swap2\n    tag_35:\n      pop\n      pop\n      pop\n      pop\n      pop\n      swap1\n      dup1\n      0x02\n      add\n      sload\n      swap1\n      dup1\n      0x03\n      add\n      0x00\n      swap1\n      sload\n      swap1\n      0x0100\n      exp\n      swap1\n      div\n      0xffffffffffffffffffffffffffffffffffffffff\n      and\n      swap1\n      dup1\n      0x04\n      add\n      0x00\n      swap1\n      sload\n      swap1\n      0x0100\n      exp\n      swap1\n      div\n      0xffffffffffffffffffffffffffffffffffffffff\n      and\n      swap1\n      dup1\n      0x05\n      add\n      sload\n      swap1\n      dup1\n      0x06\n      add\n      dup1\n      sload\n      tag_38\n      swap1\n      tag_33\n      jump\t// in\n    tag_38:\n      dup1\n      0x1f\n      add\n      0x20\n      dup1\n      swap2\n      div\n      mul\n      0x20\n      add\n      mload(0x40)\n      swap1\n      dup2\n      add\n      0x40\n      mstore\n      dup1\n      swap3\n      swap2\n      swap1\n      dup2\n      dup2\n      mstore\n      0x20\n      add\n      dup3\n      dup1\n      sload\n      tag_39\n      swap1\n      tag_33\n      jump\t// in\n    tag_39:\n      dup1\n      iszero\n      tag_40\n      jumpi\n      dup1\n      0x1f\n      lt\n      tag_41\n      jumpi\n      0x0100\n      dup1\n      dup4\n      sload\n      div\n      mul\n      dup4\n      mstore\n      swap2\n      0x20\n      add\n      swap2\n      jump(tag_40)\n    tag_41:\n      dup3\n      add\n      swap2\n      swap1\n      0x00\n      mstore\n      keccak256(0x00, 0x20)\n      swap1\n    tag_42:\n      dup2\n      sload\n      dup2\n      mstore\n      swap1\n      0x01\n      add\n      swap1\n      0x20\n      add\n      dup1\n      dup4\n      gt\n      tag_42\n      jumpi\n      dup3\n      swap1\n      sub\n      0x1f\n      and\n      dup3\n      add\n      swap2\n    tag_40:\n      pop\n      pop\n      pop\n      pop\n      pop\n      swap1\n      dup1\n      0x07\n      add\n      dup1\n      sload\n      tag_43\n      swap1\n      tag_33\n      jump\t// in\n    tag_43:\n      dup1\n      0x1f\n      add\n      0x20\n      dup1\n      swap2\n      div\n      mul\n      0x20\n      add\n      mload(0x40)\n      swap1\n      dup2\n      add\n      0x40\n      mstore\n      dup1\n      swap3\n      swap2\n      swap1\n      dup2\n      dup2\n      mstore\n      0x20\n      add\n      dup3\n      dup1\n      sload\n      tag_44\n      swap1\n      tag_33\n      jump\t// in\n    tag_44:\n      dup1\n      iszero\n      tag_45\n      jumpi\n      dup1\n      0x1f\n      lt\n      tag_46\n      jumpi\n      0x0100\n      dup1\n      dup4\n      sload\n      div\n      mul\n      dup4\n      mstore\n      swap2\n      0x20\n      add\n      swap2\n      jump(tag_45)\n    tag_46:\n      dup3\n      add\n      swap2\n      swap1\n      0x00\n      mstore\n      keccak256(0x00, 0x20)\n      swap1\n    tag_47:\n      dup2\n      sload\n      dup2\n      mstore\n      swap1\n      0x01\n      add\n      swap1\n      0x20\n      add\n      dup1\n      dup4\n      gt\n      tag_47\n      jumpi\n      dup3\n      swap1\n      sub\n      0x1f\n      and\n      dup3\n      add\n      swap2\n    tag_45:\n      pop\n      pop\n      pop\n      pop\n      pop\n      swap1\n      pop\n      dup9\n      jump\t// out\n        /* \"crowdfunding.sol\":1212:1348  function setStatus(uint num,uint val) public {... */\n    tag_17:\n        /* \"crowdfunding.sol\":1287:1290  val */\n      dup1\n        /* \"crowdfunding.sol\":1268:1272  list */\n      0x01\n        /* \"crowdfunding.sol\":1273:1276  num */\n      dup4\n        /* \"crowdfunding.sol\":1268:1277  list[num] */\n      dup2\n      sload\n      dup2\n      lt\n      tag_49\n      jumpi\n      tag_50\n      tag_51\n      jump\t// in\n    tag_50:\n    tag_49:\n      swap1\n      0x00\n      mstore\n      keccak256(0x00, 0x20)\n      swap1\n      0x08\n      mul\n      add\n        /* \"crowdfunding.sol\":1268:1284  list[num].status */\n      0x02\n      add\n        /* \"crowdfunding.sol\":1268:1290  list[num].status = val */\n      dup2\n      swap1\n      sstore\n      pop\n        /* \"crowdfunding.sol\":1301:1319  filterDataByStatus */\n      0x02\n        /* \"crowdfunding.sol\":1301:1324  filterDataByStatus[val] */\n      0x00\n        /* \"crowdfunding.sol\":1320:1323  val */\n      dup3\n        /* \"crowdfunding.sol\":1301:1324  filterDataByStatus[val] */\n      dup2\n      mstore\n      0x20\n      add\n      swap1\n      dup2\n      mstore\n      0x20\n      add\n      0x00\n      keccak256\n        /* \"crowdfunding.sol\":1330:1334  list */\n      0x01\n        /* \"crowdfunding.sol\":1335:1338  num */\n      dup4\n        /* \"crowdfunding.sol\":1330:1339  list[num] */\n      dup2\n      sload\n      dup2\n      lt\n      tag_53\n      jumpi\n      tag_54\n      tag_51\n      jump\t// in\n    tag_54:\n    tag_53:\n      swap1\n      0x00\n      mstore\n      keccak256(0x00, 0x20)\n      swap1\n      0x08\n      mul\n      add\n        /* \"crowdfunding.sol\":1301:1340  filterDataByStatus[val].push(list[num]) */\n      swap1\n      dup1\n      0x01\n      dup2\n      sload\n      add\n      dup1\n      dup3\n      sstore\n      dup1\n      swap2\n      pop\n      pop\n      0x01\n      swap1\n      sub\n      swap1\n      0x00\n      mstore\n      keccak256(0x00, 0x20)\n      swap1\n      0x08\n      mul\n      add\n      0x00\n      swap1\n      swap2\n      swap1\n      swap2\n      swap1\n      swap2\n      pop\n      0x00\n      dup3\n      add\n      sload\n      dup2\n      0x00\n      add\n      sstore\n      0x01\n      dup3\n      add\n      dup2\n      0x01\n      add\n      swap1\n      dup2\n      tag_57\n      swap2\n      swap1\n      tag_58\n      jump\t// in\n    tag_57:\n      pop\n      0x02\n      dup3\n      add\n      sload\n      dup2\n      0x02\n      add\n      sstore\n      0x03\n      dup3\n      add\n      0x00\n      swap1\n      sload\n      swap1\n      0x0100\n      exp\n      swap1\n      div\n      0xffffffffffffffffffffffffffffffffffffffff\n      and\n      dup2\n      0x03\n      add\n      exp(0x0100, 0x00)\n      dup2\n      sload\n      dup2\n      0xffffffffffffffffffffffffffffffffffffffff\n      mul\n      not\n      and\n      swap1\n      dup4\n      0xffffffffffffffffffffffffffffffffffffffff\n      and\n      mul\n      or\n      swap1\n      sstore\n      pop\n      0x04\n      dup3\n      add\n      0x00\n      swap1\n      sload\n      swap1\n      0x0100\n      exp\n      swap1\n      div\n      0xffffffffffffffffffffffffffffffffffffffff\n      and\n      dup2\n      0x04\n      add\n      exp(0x0100, 0x00)\n      dup2\n      sload\n      dup2\n      0xffffffffffffffffffffffffffffffffffffffff\n      mul\n      not\n      and\n      swap1\n      dup4\n      0xffffffffffffffffffffffffffffffffffffffff\n      and\n      mul\n      or\n      swap1\n      sstore\n      pop\n      0x05\n      dup3\n      add\n      sload\n      dup2\n      0x05\n      add\n      sstore\n      0x06\n      dup3\n      add\n      dup2\n      0x06\n      add\n      swap1\n      dup2\n      tag_59\n      swap2\n      swap1\n      tag_58\n      jump\t// in\n    tag_59:\n      pop\n      0x07\n      dup3\n      add\n      dup2\n      0x07\n      add\n      swap1\n      dup2\n      tag_60\n      swap2\n      swap1\n      tag_58\n      jump\t// in\n    tag_60:\n      pop\n      pop\n      pop\n        /* \"crowdfunding.sol\":1212:1348  function setStatus(uint num,uint val) public {... */\n      pop\n      pop\n      jump\t// out\n        /* \"crowdfunding.sol\":1356:1499  function getCrowdfundingByStatus(uint _status) public view returns (Crowdfunding[] memory){... */\n    tag_20:\n        /* \"crowdfunding.sol\":1424:1445  Crowdfunding[] memory */\n      0x60\n        /* \"crowdfunding.sol\":1464:1482  filterDataByStatus */\n      0x02\n        /* \"crowdfunding.sol\":1464:1491  filterDataByStatus[_status] */\n      0x00\n        /* \"crowdfunding.sol\":1483:1490  _status */\n      dup4\n        /* \"crowdfunding.sol\":1464:1491  filterDataByStatus[_status] */\n      dup2\n      mstore\n      0x20\n      add\n      swap1\n      dup2\n      mstore\n      0x20\n      add\n      0x00\n      keccak256\n        /* \"crowdfunding.sol\":1457:1491  return filterDataByStatus[_status] */\n      dup1\n      sload\n      dup1\n      0x20\n      mul\n      0x20\n      add\n      mload(0x40)\n      swap1\n      dup2\n      add\n      0x40\n      mstore\n      dup1\n      swap3\n      swap2\n      swap1\n      dup2\n      dup2\n      mstore\n      0x20\n      add\n      0x00\n      swap1\n    tag_62:\n      dup3\n      dup3\n      lt\n      iszero\n      tag_63\n      jumpi\n      dup4\n      dup3\n      swap1\n      0x00\n      mstore\n      keccak256(0x00, 0x20)\n      swap1\n      0x08\n      mul\n      add\n      mload(0x40)\n      dup1\n      0x0100\n      add\n      0x40\n      mstore\n      swap1\n      dup2\n      0x00\n      dup3\n      add\n      sload\n      dup2\n      mstore\n      0x20\n      add\n      0x01\n      dup3\n      add\n      dup1\n      sload\n      tag_65\n      swap1\n      tag_33\n      jump\t// in\n    tag_65:\n      dup1\n      0x1f\n      add\n      0x20\n      dup1\n      swap2\n      div\n      mul\n      0x20\n      add\n      mload(0x40)\n      swap1\n      dup2\n      add\n      0x40\n      mstore\n      dup1\n      swap3\n      swap2\n      swap1\n      dup2\n      dup2\n      mstore\n      0x20\n      add\n      dup3\n      dup1\n      sload\n      tag_66\n      swap1\n      tag_33\n      jump\t// in\n    tag_66:\n      dup1\n      iszero\n      tag_67\n      jumpi\n      dup1\n      0x1f\n      lt\n      tag_68\n      jumpi\n      0x0100\n      dup1\n      dup4\n      sload\n      div\n      mul\n      dup4\n      mstore\n      swap2\n      0x20\n      add\n      swap2\n      jump(tag_67)\n    tag_68:\n      dup3\n      add\n      swap2\n      swap1\n      0x00\n      mstore\n      keccak256(0x00, 0x20)\n      swap1\n    tag_69:\n      dup2\n      sload\n      dup2\n      mstore\n      swap1\n      0x01\n      add\n      swap1\n      0x20\n      add\n      dup1\n      dup4\n      gt\n      tag_69\n      jumpi\n      dup3\n      swap1\n      sub\n      0x1f\n      and\n      dup3\n      add\n      swap2\n    tag_67:\n      pop\n      pop\n      pop\n      pop\n      pop\n      dup2\n      mstore\n      0x20\n      add\n      0x02\n      dup3\n      add\n      sload\n      dup2\n      mstore\n      0x20\n      add\n      0x03\n      dup3\n      add\n      0x00\n      swap1\n      sload\n      swap1\n      0x0100\n      exp\n      swap1\n      div\n      0xffffffffffffffffffffffffffffffffffffffff\n      and\n      0xffffffffffffffffffffffffffffffffffffffff\n      and\n      0xffffffffffffffffffffffffffffffffffffffff\n      and\n      dup2\n      mstore\n      0x20\n      add\n      0x04\n      dup3\n      add\n      0x00\n      swap1\n      sload\n      swap1\n      0x0100\n      exp\n      swap1\n      div\n      0xffffffffffffffffffffffffffffffffffffffff\n      and\n      0xffffffffffffffffffffffffffffffffffffffff\n      and\n      0xffffffffffffffffffffffffffffffffffffffff\n      and\n      dup2\n      mstore\n      0x20\n      add\n      0x05\n      dup3\n      add\n      sload\n      dup2\n      mstore\n      0x20\n      add\n      0x06\n      dup3\n      add\n      dup1\n      sload\n      tag_70\n      swap1\n      tag_33\n      jump\t// in\n    tag_70:\n      dup1\n      0x1f\n      add\n      0x20\n      dup1\n      swap2\n      div\n      mul\n      0x20\n      add\n      mload(0x40)\n      swap1\n      dup2\n      add\n      0x40\n      mstore\n      dup1\n      swap3\n      swap2\n      swap1\n      dup2\n      dup2\n      mstore\n      0x20\n      add\n      dup3\n      dup1\n      sload\n      tag_71\n      swap1\n      tag_33\n      jump\t// in\n    tag_71:\n      dup1\n      iszero\n      tag_72\n      jumpi\n      dup1\n      0x1f\n      lt\n      tag_73\n      jumpi\n      0x0100\n      dup1\n      dup4\n      sload\n      div\n      mul\n      dup4\n      mstore\n      swap2\n      0x20\n      add\n      swap2\n      jump(tag_72)\n    tag_73:\n      dup3\n      add\n      swap2\n      swap1\n      0x00\n      mstore\n      keccak256(0x00, 0x20)\n      swap1\n    tag_74:\n      dup2\n      sload\n      dup2\n      mstore\n      swap1\n      0x01\n      add\n      swap1\n      0x20\n      add\n      dup1\n      dup4\n      gt\n      tag_74\n      jumpi\n      dup3\n      swap1\n      sub\n      0x1f\n      and\n      dup3\n      add\n      swap2\n    tag_72:\n      pop\n      pop\n      pop\n      pop\n      pop\n      dup2\n      mstore\n      0x20\n      add\n      0x07\n      dup3\n      add\n      dup1\n      sload\n      tag_75\n      swap1\n      tag_33\n      jump\t// in\n    tag_75:\n      dup1\n      0x1f\n      add\n      0x20\n      dup1\n      swap2\n      div\n      mul\n      0x20\n      add\n      mload(0x40)\n      swap1\n      dup2\n      add\n      0x40\n      mstore\n      dup1\n      swap3\n      swap2\n      swap1\n      dup2\n      dup2\n      mstore\n      0x20\n      add\n      dup3\n      dup1\n      sload\n      tag_76\n      swap1\n      tag_33\n      jump\t// in\n    tag_76:\n      dup1\n      iszero\n      tag_77\n      jumpi\n      dup1\n      0x1f\n      lt\n      tag_78\n      jumpi\n      0x0100\n      dup1\n      dup4\n      sload\n      div\n      mul\n      dup4\n      mstore\n      swap2\n      0x20\n      add\n      swap2\n      jump(tag_77)\n    tag_78:\n      dup3\n      add\n      swap2\n      swap1\n      0x00\n      mstore\n      keccak256(0x00, 0x20)\n      swap1\n    tag_79:\n      dup2\n      sload\n      dup2\n      mstore\n      swap1\n      0x01\n      add\n      swap1\n      0x20\n      add\n      dup1\n      dup4\n      gt\n      tag_79\n      jumpi\n      dup3\n      swap1\n      sub\n      0x1f\n      and\n      dup3\n      add\n      swap2\n    tag_77:\n      pop\n      pop\n      pop\n      pop\n      pop\n      dup2\n      mstore\n      pop\n      pop\n      dup2\n      mstore\n      0x20\n      add\n      swap1\n      0x01\n      add\n      swap1\n      jump(tag_62)\n    tag_63:\n      pop\n      pop\n      pop\n      pop\n      swap1\n      pop\n        /* \"crowdfunding.sol\":1356:1499  function getCrowdfundingByStatus(uint _status) public view returns (Crowdfunding[] memory){... */\n      swap2\n      swap1\n      pop\n      jump\t// out\n        /* \"crowdfunding.sol\":1507:1600  function getList() public view returns (Crowdfunding[] memory) {... */\n    tag_24:\n        /* \"crowdfunding.sol\":1547:1568  Crowdfunding[] memory */\n      0x60\n        /* \"crowdfunding.sol\":1588:1592  list */\n      0x01\n        /* \"crowdfunding.sol\":1581:1592  return list */\n      dup1\n      sload\n      dup1\n      0x20\n      mul\n      0x20\n      add\n      mload(0x40)\n      swap1\n      dup2\n      add\n      0x40\n      mstore\n      dup1\n      swap3\n      swap2\n      swap1\n      dup2\n      dup2\n      mstore\n      0x20\n      add\n      0x00\n      swap1\n    tag_81:\n      dup3\n      dup3\n      lt\n      iszero\n      tag_82\n      jumpi\n      dup4\n      dup3\n      swap1\n      0x00\n      mstore\n      keccak256(0x00, 0x20)\n      swap1\n      0x08\n      mul\n      add\n      mload(0x40)\n      dup1\n      0x0100\n      add\n      0x40\n      mstore\n      swap1\n      dup2\n      0x00\n      dup3\n      add\n      sload\n      dup2\n      mstore\n      0x20\n      add\n      0x01\n      dup3\n      add\n      dup1\n      sload\n      tag_84\n      swap1\n      tag_33\n      jump\t// in\n    tag_84:\n      dup1\n      0x1f\n      add\n      0x20\n      dup1\n      swap2\n      div\n      mul\n      0x20\n      add\n      mload(0x40)\n      swap1\n      dup2\n      add\n      0x40\n      mstore\n      dup1\n      swap3\n      swap2\n      swap1\n      dup2\n      dup2\n      mstore\n      0x20\n      add\n      dup3\n      dup1\n      sload\n      tag_85\n      swap1\n      tag_33\n      jump\t// in\n    tag_85:\n      dup1\n      iszero\n      tag_86\n      jumpi\n      dup1\n      0x1f\n      lt\n      tag_87\n      jumpi\n      0x0100\n      dup1\n      dup4\n      sload\n      div\n      mul\n      dup4\n      mstore\n      swap2\n      0x20\n      add\n      swap2\n      jump(tag_86)\n    tag_87:\n      dup3\n      add\n      swap2\n      swap1\n      0x00\n      mstore\n      keccak256(0x00, 0x20)\n      swap1\n    tag_88:\n      dup2\n      sload\n      dup2\n      mstore\n      swap1\n      0x01\n      add\n      swap1\n      0x20\n      add\n      dup1\n      dup4\n      gt\n      tag_88\n      jumpi\n      dup3\n      swap1\n      sub\n      0x1f\n      and\n      dup3\n      add\n      swap2\n    tag_86:\n      pop\n      pop\n      pop\n      pop\n      pop\n      dup2\n      mstore\n      0x20\n      add\n      0x02\n      dup3\n      add\n      sload\n      dup2\n      mstore\n      0x20\n      add\n      0x03\n      dup3\n      add\n      0x00\n      swap1\n      sload\n      swap1\n      0x0100\n      exp\n      swap1\n      div\n      0xffffffffffffffffffffffffffffffffffffffff\n      and\n      0xffffffffffffffffffffffffffffffffffffffff\n      and\n      0xffffffffffffffffffffffffffffffffffffffff\n      and\n      dup2\n      mstore\n      0x20\n      add\n      0x04\n      dup3\n      add\n      0x00\n      swap1\n      sload\n      swap1\n      0x0100\n      exp\n      swap1\n      div\n      0xffffffffffffffffffffffffffffffffffffffff\n      and\n      0xffffffffffffffffffffffffffffffffffffffff\n      and\n      0xffffffffffffffffffffffffffffffffffffffff\n      and\n      dup2\n      mstore\n      0x20\n      add\n      0x05\n      dup3\n      add\n      sload\n      dup2\n      mstore\n      0x20\n      add\n      0x06\n      dup3\n      add\n      dup1\n      sload\n      tag_89\n      swap1\n      tag_33\n      jump\t// in\n    tag_89:\n      dup1\n      0x1f\n      add\n      0x20\n      dup1\n      swap2\n      div\n      mul\n      0x20\n      add\n      mload(0x40)\n      swap1\n      dup2\n      add\n      0x40\n      mstore\n      dup1\n      swap3\n      swap2\n      swap1\n      dup2\n      dup2\n      mstore\n      0x20\n      add\n      dup3\n      dup1\n      sload\n      tag_90\n      swap1\n      tag_33\n      jump\t// in\n    tag_90:\n      dup1\n      iszero\n      tag_91\n      jumpi\n      dup1\n      0x1f\n      lt\n      tag_92\n      jumpi\n      0x0100\n      dup1\n      dup4\n      sload\n      div\n      mul\n      dup4\n      mstore\n      swap2\n      0x20\n      add\n      swap2\n      jump(tag_91)\n    tag_92:\n      dup3\n      add\n      swap2\n      swap1\n      0x00\n      mstore\n      keccak256(0x00, 0x20)\n      swap1\n    tag_93:\n      dup2\n      sload\n      dup2\n      mstore\n      swap1\n      0x01\n      add\n      swap1\n      0x20\n      add\n      dup1\n      dup4\n      gt\n      tag_93\n      jumpi\n      dup3\n      swap1\n      sub\n      0x1f\n      and\n      dup3\n      add\n      swap2\n    tag_91:\n      pop\n      pop\n      pop\n      pop\n      pop\n      dup2\n      mstore\n      0x20\n      add\n      0x07\n      dup3\n      add\n      dup1\n      sload\n      tag_94\n      swap1\n      tag_33\n      jump\t// in\n    tag_94:\n      dup1\n      0x1f\n      add\n      0x20\n      dup1\n      swap2\n      div\n      mul\n      0x20\n      add\n      mload(0x40)\n      swap1\n      dup2\n      add\n      0x40\n      mstore\n      dup1\n      swap3\n      swap2\n      swap1\n      dup2\n      dup2\n      mstore\n      0x20\n      add\n      dup3\n      dup1\n      sload\n      tag_95\n      swap1\n      tag_33\n      jump\t// in\n    tag_95:\n      dup1\n      iszero\n      tag_96\n      jumpi\n      dup1\n      0x1f\n      lt\n      tag_97\n      jumpi\n      0x0100\n      dup1\n      dup4\n      sload\n      div\n      mul\n      dup4\n      mstore\n      swap2\n      0x20\n      add\n      swap2\n      jump(tag_96)\n    tag_97:\n      dup3\n      add\n      swap2\n      swap1\n      0x00\n      mstore\n      keccak256(0x00, 0x20)\n      swap1\n    tag_98:\n      dup2\n      sload\n      dup2\n      mstore\n      swap1\n      0x01\n      add\n      swap1\n      0x20\n      add\n      dup1\n      dup4\n      gt\n      tag_98\n      jumpi\n      dup3\n      swap1\n      sub\n      0x1f\n      and\n      dup3\n      add\n      swap2\n    tag_96:\n      pop\n      pop\n      pop\n      pop\n      pop\n      dup2\n      mstore\n      pop\n      pop\n      dup2\n      mstore\n      0x20\n      add\n      swap1\n      0x01\n      add\n      swap1\n      jump(tag_81)\n    tag_82:\n      pop\n      pop\n      pop\n      pop\n      swap1\n      pop\n        /* \"crowdfunding.sol\":1507:1600  function getList() public view returns (Crowdfunding[] memory) {... */\n      swap1\n      jump\t// out\n        /* \"crowdfunding.sol\":674:1171  function createCrowdfunding(string memory _title,address _recipient, string memory _expectAmout) public {... */\n    tag_29:\n        /* \"crowdfunding.sol\":789:791  No */\n      0x00\n      dup1\n        /* \"crowdfunding.sol\":789:793  No++ */\n      dup2\n      sload\n      dup1\n      swap3\n      swap2\n      swap1\n      tag_100\n      swap1\n      tag_101\n      jump\t// in\n    tag_100:\n      swap2\n      swap1\n      pop\n      sstore\n      pop\n        /* \"crowdfunding.sol\":804:825  Crowdfunding memory c */\n      0x00\n        /* \"crowdfunding.sol\":828:1100  Crowdfunding({... */\n      mload(0x40)\n      dup1\n      0x0100\n      add\n      0x40\n      mstore\n      dup1\n        /* \"crowdfunding.sol\":861:863  No */\n      sload(0x00)\n        /* \"crowdfunding.sol\":828:1100  Crowdfunding({... */\n      dup2\n      mstore\n      0x20\n      add\n        /* \"crowdfunding.sol\":884:890  _title */\n      dup6\n        /* \"crowdfunding.sol\":828:1100  Crowdfunding({... */\n      dup2\n      mstore\n      0x20\n      add\n        /* \"crowdfunding.sol\":913:914  0 */\n      0x00\n        /* \"crowdfunding.sol\":828:1100  Crowdfunding({... */\n      dup2\n      mstore\n      0x20\n      add\n        /* \"crowdfunding.sol\":938:948  msg.sender */\n      caller\n        /* \"crowdfunding.sol\":828:1100  Crowdfunding({... */\n      0xffffffffffffffffffffffffffffffffffffffff\n      and\n      dup2\n      mstore\n      0x20\n      add\n        /* \"crowdfunding.sol\":974:984  _recipient */\n      dup5\n        /* \"crowdfunding.sol\":828:1100  Crowdfunding({... */\n      0xffffffffffffffffffffffffffffffffffffffff\n      and\n      dup2\n      mstore\n      0x20\n      add\n        /* \"crowdfunding.sol\":1008:1009  0 */\n      0x00\n        /* \"crowdfunding.sol\":828:1100  Crowdfunding({... */\n      dup2\n      mstore\n      0x20\n      add\n        /* \"crowdfunding.sol\":1044:1056  _expectAmout */\n      dup4\n        /* \"crowdfunding.sol\":828:1100  Crowdfunding({... */\n      dup2\n      mstore\n      0x20\n      add\n      mload(0x40)\n      dup1\n      0x40\n      add\n      0x40\n      mstore\n      dup1\n      0x01\n      dup2\n      mstore\n      0x20\n      add\n      0x3000000000000000000000000000000000000000000000000000000000000000\n      dup2\n      mstore\n      pop\n      dup2\n      mstore\n      pop\n        /* \"crowdfunding.sol\":804:1100  Crowdfunding memory c = Crowdfunding({... */\n      swap1\n      pop\n        /* \"crowdfunding.sol\":1111:1115  list */\n      0x01\n        /* \"crowdfunding.sol\":1121:1122  c */\n      dup2\n        /* \"crowdfunding.sol\":1111:1123  list.push(c) */\n      swap1\n      dup1\n      0x01\n      dup2\n      sload\n      add\n      dup1\n      dup3\n      sstore\n      dup1\n      swap2\n      pop\n      pop\n      0x01\n      swap1\n      sub\n      swap1\n      0x00\n      mstore\n      keccak256(0x00, 0x20)\n      swap1\n      0x08\n      mul\n      add\n      0x00\n      swap1\n      swap2\n      swap1\n      swap2\n      swap1\n      swap2\n      pop\n      0x00\n      dup3\n      add\n      mload\n      dup2\n      0x00\n      add\n      sstore\n      0x20\n      dup3\n      add\n      mload\n      dup2\n      0x01\n      add\n      swap1\n      dup2\n      tag_103\n      swap2\n      swap1\n      tag_104\n      jump\t// in\n    tag_103:\n      pop\n      0x40\n      dup3\n      add\n      mload\n      dup2\n      0x02\n      add\n      sstore\n      0x60\n      dup3\n      add\n      mload\n      dup2\n      0x03\n      add\n      exp(0x0100, 0x00)\n      dup2\n      sload\n      dup2\n      0xffffffffffffffffffffffffffffffffffffffff\n      mul\n      not\n      and\n      swap1\n      dup4\n      0xffffffffffffffffffffffffffffffffffffffff\n      and\n      mul\n      or\n      swap1\n      sstore\n      pop\n      0x80\n      dup3\n      add\n      mload\n      dup2\n      0x04\n      add\n      exp(0x0100, 0x00)\n      dup2\n      sload\n      dup2\n      0xffffffffffffffffffffffffffffffffffffffff\n      mul\n      not\n      and\n      swap1\n      dup4\n      0xffffffffffffffffffffffffffffffffffffffff\n      and\n      mul\n      or\n      swap1\n      sstore\n      pop\n      0xa0\n      dup3\n      add\n      mload\n      dup2\n      0x05\n      add\n      sstore\n      0xc0\n      dup3\n      add\n      mload\n      dup2\n      0x06\n      add\n      swap1\n      dup2\n      tag_105\n      swap2\n      swap1\n      tag_104\n      jump\t// in\n    tag_105:\n      pop\n      0xe0\n      dup3\n      add\n      mload\n      dup2\n      0x07\n      add\n      swap1\n      dup2\n      tag_106\n      swap2\n      swap1\n      tag_104\n      jump\t// in\n    tag_106:\n      pop\n      pop\n      pop\n        /* \"crowdfunding.sol\":1134:1152  filterDataByStatus */\n      0x02\n        /* \"crowdfunding.sol\":1134:1155  filterDataByStatus[0] */\n      0x00\n        /* \"crowdfunding.sol\":1153:1154  0 */\n      dup1\n        /* \"crowdfunding.sol\":1134:1155  filterDataByStatus[0] */\n      dup2\n      mstore\n      0x20\n      add\n      swap1\n      dup2\n      mstore\n      0x20\n      add\n      0x00\n      keccak256\n        /* \"crowdfunding.sol\":1161:1162  c */\n      dup2\n        /* \"crowdfunding.sol\":1134:1163  filterDataByStatus[0].push(c) */\n      swap1\n      dup1\n      0x01\n      dup2\n      sload\n      add\n      dup1\n      dup3\n      sstore\n      dup1\n      swap2\n      pop\n      pop\n      0x01\n      swap1\n      sub\n      swap1\n      0x00\n      mstore\n      keccak256(0x00, 0x20)\n      swap1\n      0x08\n      mul\n      add\n      0x00\n      swap1\n      swap2\n      swap1\n      swap2\n      swap1\n      swap2\n      pop\n      0x00\n      dup3\n      add\n      mload\n      dup2\n      0x00\n      add\n      sstore\n      0x20\n      dup3\n      add\n      mload\n      dup2\n      0x01\n      add\n      swap1\n      dup2\n      tag_108\n      swap2\n      swap1\n      tag_104\n      jump\t// in\n    tag_108:\n      pop\n      0x40\n      dup3\n      add\n      mload\n      dup2\n      0x02\n      add\n      sstore\n      0x60\n      dup3\n      add\n      mload\n      dup2\n      0x03\n      add\n      exp(0x0100, 0x00)\n      dup2\n      sload\n      dup2\n      0xffffffffffffffffffffffffffffffffffffffff\n      mul\n      not\n      and\n      swap1\n      dup4\n      0xffffffffffffffffffffffffffffffffffffffff\n      and\n      mul\n      or\n      swap1\n      sstore\n      pop\n      0x80\n      dup3\n      add\n      mload\n      dup2\n      0x04\n      add\n      exp(0x0100, 0x00)\n      dup2\n      sload\n      dup2\n      0xffffffffffffffffffffffffffffffffffffffff\n      mul\n      not\n      and\n      swap1\n      dup4\n      0xffffffffffffffffffffffffffffffffffffffff\n      and\n      mul\n      or\n      swap1\n      sstore\n      pop\n      0xa0\n      dup3\n      add\n      mload\n      dup2\n      0x05\n      add\n      sstore\n      0xc0\n      dup3\n      add\n      mload\n      dup2\n      0x06\n      add\n      swap1\n      dup2\n      tag_109\n      swap2\n      swap1\n      tag_104\n      jump\t// in\n    tag_109:\n      pop\n      0xe0\n      dup3\n      add\n      mload\n      dup2\n      0x07\n      add\n      swap1\n      dup2\n      tag_110\n      swap2\n      swap1\n      tag_104\n      jump\t// in\n    tag_110:\n      pop\n      pop\n      pop\n        /* \"crowdfunding.sol\":778:1171  {... */\n      pop\n        /* \"crowdfunding.sol\":674:1171  function createCrowdfunding(string memory _title,address _recipient, string memory _expectAmout) public {... */\n      pop\n      pop\n      pop\n      jump\t// out\n        /* \"#utility.yul\":7:82   */\n    tag_111:\n        /* \"#utility.yul\":40:46   */\n      0x00\n        /* \"#utility.yul\":73:75   */\n      0x40\n        /* \"#utility.yul\":67:76   */\n      mload\n        /* \"#utility.yul\":57:76   */\n      swap1\n      pop\n        /* \"#utility.yul\":7:82   */\n      swap1\n      jump\t// out\n        /* \"#utility.yul\":88:205   */\n    tag_112:\n        /* \"#utility.yul\":197:198   */\n      0x00\n        /* \"#utility.yul\":194:195   */\n      dup1\n        /* \"#utility.yul\":187:199   */\n      revert\n        /* \"#utility.yul\":211:328   */\n    tag_113:\n        /* \"#utility.yul\":320:321   */\n      0x00\n        /* \"#utility.yul\":317:318   */\n      dup1\n        /* \"#utility.yul\":310:322   */\n      revert\n        /* \"#utility.yul\":334:411   */\n    tag_114:\n        /* \"#utility.yul\":371:378   */\n      0x00\n        /* \"#utility.yul\":400:405   */\n      dup2\n        /* \"#utility.yul\":389:405   */\n      swap1\n      pop\n        /* \"#utility.yul\":334:411   */\n      swap2\n      swap1\n      pop\n      jump\t// out\n        /* \"#utility.yul\":417:539   */\n    tag_115:\n        /* \"#utility.yul\":490:514   */\n      tag_172\n        /* \"#utility.yul\":508:513   */\n      dup2\n        /* \"#utility.yul\":490:514   */\n      tag_114\n      jump\t// in\n    tag_172:\n        /* \"#utility.yul\":483:488   */\n      dup2\n        /* \"#utility.yul\":480:515   */\n      eq\n        /* \"#utility.yul\":470:533   */\n      tag_173\n      jumpi\n        /* \"#utility.yul\":529:530   */\n      0x00\n        /* \"#utility.yul\":526:527   */\n      dup1\n        /* \"#utility.yul\":519:531   */\n      revert\n        /* \"#utility.yul\":470:533   */\n    tag_173:\n        /* \"#utility.yul\":417:539   */\n      pop\n      jump\t// out\n        /* \"#utility.yul\":545:684   */\n    tag_116:\n        /* \"#utility.yul\":591:596   */\n      0x00\n        /* \"#utility.yul\":629:635   */\n      dup2\n        /* \"#utility.yul\":616:636   */\n      calldataload\n        /* \"#utility.yul\":607:636   */\n      swap1\n      pop\n        /* \"#utility.yul\":645:678   */\n      tag_175\n        /* \"#utility.yul\":672:677   */\n      dup2\n        /* \"#utility.yul\":645:678   */\n      tag_115\n      jump\t// in\n    tag_175:\n        /* \"#utility.yul\":545:684   */\n      swap3\n      swap2\n      pop\n      pop\n      jump\t// out\n        /* \"#utility.yul\":690:1019   */\n    tag_10:\n        /* \"#utility.yul\":749:755   */\n      0x00\n        /* \"#utility.yul\":798:800   */\n      0x20\n        /* \"#utility.yul\":786:795   */\n      dup3\n        /* \"#utility.yul\":777:784   */\n      dup5\n        /* \"#utility.yul\":773:796   */\n      sub\n        /* \"#utility.yul\":769:801   */\n      slt\n        /* \"#utility.yul\":766:885   */\n      iszero\n      tag_177\n      jumpi\n        /* \"#utility.yul\":804:883   */\n      tag_178\n      tag_112\n      jump\t// in\n    tag_178:\n        /* \"#utility.yul\":766:885   */\n    tag_177:\n        /* \"#utility.yul\":924:925   */\n      0x00\n        /* \"#utility.yul\":949:1002   */\n      tag_179\n        /* \"#utility.yul\":994:1001   */\n      dup5\n        /* \"#utility.yul\":985:991   */\n      dup3\n        /* \"#utility.yul\":974:983   */\n      dup6\n        /* \"#utility.yul\":970:992   */\n      add\n        /* \"#utility.yul\":949:1002   */\n      tag_116\n      jump\t// in\n    tag_179:\n        /* \"#utility.yul\":939:1002   */\n      swap2\n      pop\n        /* \"#utility.yul\":895:1012   */\n      pop\n        /* \"#utility.yul\":690:1019   */\n      swap3\n      swap2\n      pop\n      pop\n      jump\t// out\n        /* \"#utility.yul\":1025:1143   */\n    tag_117:\n        /* \"#utility.yul\":1112:1136   */\n      tag_181\n        /* \"#utility.yul\":1130:1135   */\n      dup2\n        /* \"#utility.yul\":1112:1136   */\n      tag_114\n      jump\t// in\n    tag_181:\n        /* \"#utility.yul\":1107:1110   */\n      dup3\n        /* \"#utility.yul\":1100:1137   */\n      mstore\n        /* \"#utility.yul\":1025:1143   */\n      pop\n      pop\n      jump\t// out\n        /* \"#utility.yul\":1149:1248   */\n    tag_118:\n        /* \"#utility.yul\":1201:1207   */\n      0x00\n        /* \"#utility.yul\":1235:1240   */\n      dup2\n        /* \"#utility.yul\":1229:1241   */\n      mload\n        /* \"#utility.yul\":1219:1241   */\n      swap1\n      pop\n        /* \"#utility.yul\":1149:1248   */\n      swap2\n      swap1\n      pop\n      jump\t// out\n        /* \"#utility.yul\":1254:1423   */\n    tag_119:\n        /* \"#utility.yul\":1338:1349   */\n      0x00\n        /* \"#utility.yul\":1372:1378   */\n      dup3\n        /* \"#utility.yul\":1367:1370   */\n      dup3\n        /* \"#utility.yul\":1360:1379   */\n      mstore\n        /* \"#utility.yul\":1412:1416   */\n      0x20\n        /* \"#utility.yul\":1407:1410   */\n      dup3\n        /* \"#utility.yul\":1403:1417   */\n      add\n        /* \"#utility.yul\":1388:1417   */\n      swap1\n      pop\n        /* \"#utility.yul\":1254:1423   */\n      swap3\n      swap2\n      pop\n      pop\n      jump\t// out\n        /* \"#utility.yul\":1429:1736   */\n    tag_120:\n        /* \"#utility.yul\":1497:1498   */\n      0x00\n        /* \"#utility.yul\":1507:1620   */\n    tag_185:\n        /* \"#utility.yul\":1521:1527   */\n      dup4\n        /* \"#utility.yul\":1518:1519   */\n      dup2\n        /* \"#utility.yul\":1515:1528   */\n      lt\n        /* \"#utility.yul\":1507:1620   */\n      iszero\n      tag_187\n      jumpi\n        /* \"#utility.yul\":1606:1607   */\n      dup1\n        /* \"#utility.yul\":1601:1604   */\n      dup3\n        /* \"#utility.yul\":1597:1608   */\n      add\n        /* \"#utility.yul\":1591:1609   */\n      mload\n        /* \"#utility.yul\":1587:1588   */\n      dup2\n        /* \"#utility.yul\":1582:1585   */\n      dup5\n        /* \"#utility.yul\":1578:1589   */\n      add\n        /* \"#utility.yul\":1571:1610   */\n      mstore\n        /* \"#utility.yul\":1543:1545   */\n      0x20\n        /* \"#utility.yul\":1540:1541   */\n      dup2\n        /* \"#utility.yul\":1536:1546   */\n      add\n        /* \"#utility.yul\":1531:1546   */\n      swap1\n      pop\n        /* \"#utility.yul\":1507:1620   */\n      jump(tag_185)\n    tag_187:\n        /* \"#utility.yul\":1638:1644   */\n      dup4\n        /* \"#utility.yul\":1635:1636   */\n      dup2\n        /* \"#utility.yul\":1632:1645   */\n      gt\n        /* \"#utility.yul\":1629:1730   */\n      iszero\n      tag_188\n      jumpi\n        /* \"#utility.yul\":1718:1719   */\n      0x00\n        /* \"#utility.yul\":1709:1715   */\n      dup5\n        /* \"#utility.yul\":1704:1707   */\n      dup5\n        /* \"#utility.yul\":1700:1716   */\n      add\n        /* \"#utility.yul\":1693:1720   */\n      mstore\n        /* \"#utility.yul\":1629:1730   */\n    tag_188:\n        /* \"#utility.yul\":1478:1736   */\n      pop\n        /* \"#utility.yul\":1429:1736   */\n      pop\n      pop\n      pop\n      jump\t// out\n        /* \"#utility.yul\":1742:1844   */\n    tag_121:\n        /* \"#utility.yul\":1783:1789   */\n      0x00\n        /* \"#utility.yul\":1834:1836   */\n      0x1f\n        /* \"#utility.yul\":1830:1837   */\n      not\n        /* \"#utility.yul\":1825:1827   */\n      0x1f\n        /* \"#utility.yul\":1818:1823   */\n      dup4\n        /* \"#utility.yul\":1814:1828   */\n      add\n        /* \"#utility.yul\":1810:1838   */\n      and\n        /* \"#utility.yul\":1800:1838   */\n      swap1\n      pop\n        /* \"#utility.yul\":1742:1844   */\n      swap2\n      swap1\n      pop\n      jump\t// out\n        /* \"#utility.yul\":1850:2214   */\n    tag_122:\n        /* \"#utility.yul\":1938:1941   */\n      0x00\n        /* \"#utility.yul\":1966:2005   */\n      tag_191\n        /* \"#utility.yul\":1999:2004   */\n      dup3\n        /* \"#utility.yul\":1966:2005   */\n      tag_118\n      jump\t// in\n    tag_191:\n        /* \"#utility.yul\":2021:2092   */\n      tag_192\n        /* \"#utility.yul\":2085:2091   */\n      dup2\n        /* \"#utility.yul\":2080:2083   */\n      dup6\n        /* \"#utility.yul\":2021:2092   */\n      tag_119\n      jump\t// in\n    tag_192:\n        /* \"#utility.yul\":2014:2092   */\n      swap4\n      pop\n        /* \"#utility.yul\":2101:2153   */\n      tag_193\n        /* \"#utility.yul\":2146:2152   */\n      dup2\n        /* \"#utility.yul\":2141:2144   */\n      dup6\n        /* \"#utility.yul\":2134:2138   */\n      0x20\n        /* \"#utility.yul\":2127:2132   */\n      dup7\n        /* \"#utility.yul\":2123:2139   */\n      add\n        /* \"#utility.yul\":2101:2153   */\n      tag_120\n      jump\t// in\n    tag_193:\n        /* \"#utility.yul\":2178:2207   */\n      tag_194\n        /* \"#utility.yul\":2200:2206   */\n      dup2\n        /* \"#utility.yul\":2178:2207   */\n      tag_121\n      jump\t// in\n    tag_194:\n        /* \"#utility.yul\":2173:2176   */\n      dup5\n        /* \"#utility.yul\":2169:2208   */\n      add\n        /* \"#utility.yul\":2162:2208   */\n      swap2\n      pop\n        /* \"#utility.yul\":1942:2214   */\n      pop\n        /* \"#utility.yul\":1850:2214   */\n      swap3\n      swap2\n      pop\n      pop\n      jump\t// out\n        /* \"#utility.yul\":2220:2346   */\n    tag_123:\n        /* \"#utility.yul\":2257:2264   */\n      0x00\n        /* \"#utility.yul\":2297:2339   */\n      0xffffffffffffffffffffffffffffffffffffffff\n        /* \"#utility.yul\":2290:2295   */\n      dup3\n        /* \"#utility.yul\":2286:2340   */\n      and\n        /* \"#utility.yul\":2275:2340   */\n      swap1\n      pop\n        /* \"#utility.yul\":2220:2346   */\n      swap2\n      swap1\n      pop\n      jump\t// out\n        /* \"#utility.yul\":2352:2448   */\n    tag_124:\n        /* \"#utility.yul\":2389:2396   */\n      0x00\n        /* \"#utility.yul\":2418:2442   */\n      tag_197\n        /* \"#utility.yul\":2436:2441   */\n      dup3\n        /* \"#utility.yul\":2418:2442   */\n      tag_123\n      jump\t// in\n    tag_197:\n        /* \"#utility.yul\":2407:2442   */\n      swap1\n      pop\n        /* \"#utility.yul\":2352:2448   */\n      swap2\n      swap1\n      pop\n      jump\t// out\n        /* \"#utility.yul\":2454:2572   */\n    tag_125:\n        /* \"#utility.yul\":2541:2565   */\n      tag_199\n        /* \"#utility.yul\":2559:2564   */\n      dup2\n        /* \"#utility.yul\":2541:2565   */\n      tag_124\n      jump\t// in\n    tag_199:\n        /* \"#utility.yul\":2536:2539   */\n      dup3\n        /* \"#utility.yul\":2529:2566   */\n      mstore\n        /* \"#utility.yul\":2454:2572   */\n      pop\n      pop\n      jump\t// out\n        /* \"#utility.yul\":2578:3848   */\n    tag_13:\n        /* \"#utility.yul\":2927:2931   */\n      0x00\n        /* \"#utility.yul\":2965:2968   */\n      0x0100\n        /* \"#utility.yul\":2954:2963   */\n      dup3\n        /* \"#utility.yul\":2950:2969   */\n      add\n        /* \"#utility.yul\":2942:2969   */\n      swap1\n      pop\n        /* \"#utility.yul\":2979:3050   */\n      tag_201\n        /* \"#utility.yul\":3047:3048   */\n      0x00\n        /* \"#utility.yul\":3036:3045   */\n      dup4\n        /* \"#utility.yul\":3032:3049   */\n      add\n        /* \"#utility.yul\":3023:3029   */\n      dup12\n        /* \"#utility.yul\":2979:3050   */\n      tag_117\n      jump\t// in\n    tag_201:\n        /* \"#utility.yul\":3097:3106   */\n      dup2\n        /* \"#utility.yul\":3091:3095   */\n      dup2\n        /* \"#utility.yul\":3087:3107   */\n      sub\n        /* \"#utility.yul\":3082:3084   */\n      0x20\n        /* \"#utility.yul\":3071:3080   */\n      dup4\n        /* \"#utility.yul\":3067:3085   */\n      add\n        /* \"#utility.yul\":3060:3108   */\n      mstore\n        /* \"#utility.yul\":3125:3203   */\n      tag_202\n        /* \"#utility.yul\":3198:3202   */\n      dup2\n        /* \"#utility.yul\":3189:3195   */\n      dup11\n        /* \"#utility.yul\":3125:3203   */\n      tag_122\n      jump\t// in\n    tag_202:\n        /* \"#utility.yul\":3117:3203   */\n      swap1\n      pop\n        /* \"#utility.yul\":3213:3285   */\n      tag_203\n        /* \"#utility.yul\":3281:3283   */\n      0x40\n        /* \"#utility.yul\":3270:3279   */\n      dup4\n        /* \"#utility.yul\":3266:3284   */\n      add\n        /* \"#utility.yul\":3257:3263   */\n      dup10\n        /* \"#utility.yul\":3213:3285   */\n      tag_117\n      jump\t// in\n    tag_203:\n        /* \"#utility.yul\":3295:3367   */\n      tag_204\n        /* \"#utility.yul\":3363:3365   */\n      0x60\n        /* \"#utility.yul\":3352:3361   */\n      dup4\n        /* \"#utility.yul\":3348:3366   */\n      add\n        /* \"#utility.yul\":3339:3345   */\n      dup9\n        /* \"#utility.yul\":3295:3367   */\n      tag_125\n      jump\t// in\n    tag_204:\n        /* \"#utility.yul\":3377:3450   */\n      tag_205\n        /* \"#utility.yul\":3445:3448   */\n      0x80\n        /* \"#utility.yul\":3434:3443   */\n      dup4\n        /* \"#utility.yul\":3430:3449   */\n      add\n        /* \"#utility.yul\":3421:3427   */\n      dup8\n        /* \"#utility.yul\":3377:3450   */\n      tag_125\n      jump\t// in\n    tag_205:\n        /* \"#utility.yul\":3460:3533   */\n      tag_206\n        /* \"#utility.yul\":3528:3531   */\n      0xa0\n        /* \"#utility.yul\":3517:3526   */\n      dup4\n        /* \"#utility.yul\":3513:3532   */\n      add\n        /* \"#utility.yul\":3504:3510   */\n      dup7\n        /* \"#utility.yul\":3460:3533   */\n      tag_117\n      jump\t// in\n    tag_206:\n        /* \"#utility.yul\":3581:3590   */\n      dup2\n        /* \"#utility.yul\":3575:3579   */\n      dup2\n        /* \"#utility.yul\":3571:3591   */\n      sub\n        /* \"#utility.yul\":3565:3568   */\n      0xc0\n        /* \"#utility.yul\":3554:3563   */\n      dup4\n        /* \"#utility.yul\":3550:3569   */\n      add\n        /* \"#utility.yul\":3543:3592   */\n      mstore\n        /* \"#utility.yul\":3609:3687   */\n      tag_207\n        /* \"#utility.yul\":3682:3686   */\n      dup2\n        /* \"#utility.yul\":3673:3679   */\n      dup6\n        /* \"#utility.yul\":3609:3687   */\n      tag_122\n      jump\t// in\n    tag_207:\n        /* \"#utility.yul\":3601:3687   */\n      swap1\n      pop\n        /* \"#utility.yul\":3735:3744   */\n      dup2\n        /* \"#utility.yul\":3729:3733   */\n      dup2\n        /* \"#utility.yul\":3725:3745   */\n      sub\n        /* \"#utility.yul\":3719:3722   */\n      0xe0\n        /* \"#utility.yul\":3708:3717   */\n      dup4\n        /* \"#utility.yul\":3704:3723   */\n      add\n        /* \"#utility.yul\":3697:3746   */\n      mstore\n        /* \"#utility.yul\":3763:3841   */\n      tag_208\n        /* \"#utility.yul\":3836:3840   */\n      dup2\n        /* \"#utility.yul\":3827:3833   */\n      dup5\n        /* \"#utility.yul\":3763:3841   */\n      tag_122\n      jump\t// in\n    tag_208:\n        /* \"#utility.yul\":3755:3841   */\n      swap1\n      pop\n        /* \"#utility.yul\":2578:3848   */\n      swap10\n      swap9\n      pop\n      pop\n      pop\n      pop\n      pop\n      pop\n      pop\n      pop\n      pop\n      jump\t// out\n        /* \"#utility.yul\":3854:4328   */\n    tag_16:\n        /* \"#utility.yul\":3922:3928   */\n      0x00\n        /* \"#utility.yul\":3930:3936   */\n      dup1\n        /* \"#utility.yul\":3979:3981   */\n      0x40\n        /* \"#utility.yul\":3967:3976   */\n      dup4\n        /* \"#utility.yul\":3958:3965   */\n      dup6\n        /* \"#utility.yul\":3954:3977   */\n      sub\n        /* \"#utility.yul\":3950:3982   */\n      slt\n        /* \"#utility.yul\":3947:4066   */\n      iszero\n      tag_210\n      jumpi\n        /* \"#utility.yul\":3985:4064   */\n      tag_211\n      tag_112\n      jump\t// in\n    tag_211:\n        /* \"#utility.yul\":3947:4066   */\n    tag_210:\n        /* \"#utility.yul\":4105:4106   */\n      0x00\n        /* \"#utility.yul\":4130:4183   */\n      tag_212\n        /* \"#utility.yul\":4175:4182   */\n      dup6\n        /* \"#utility.yul\":4166:4172   */\n      dup3\n        /* \"#utility.yul\":4155:4164   */\n      dup7\n        /* \"#utility.yul\":4151:4173   */\n      add\n        /* \"#utility.yul\":4130:4183   */\n      tag_116\n      jump\t// in\n    tag_212:\n        /* \"#utility.yul\":4120:4183   */\n      swap3\n      pop\n        /* \"#utility.yul\":4076:4193   */\n      pop\n        /* \"#utility.yul\":4232:4234   */\n      0x20\n        /* \"#utility.yul\":4258:4311   */\n      tag_213\n        /* \"#utility.yul\":4303:4310   */\n      dup6\n        /* \"#utility.yul\":4294:4300   */\n      dup3\n        /* \"#utility.yul\":4283:4292   */\n      dup7\n        /* \"#utility.yul\":4279:4301   */\n      add\n        /* \"#utility.yul\":4258:4311   */\n      tag_116\n      jump\t// in\n    tag_213:\n        /* \"#utility.yul\":4248:4311   */\n      swap2\n      pop\n        /* \"#utility.yul\":4203:4321   */\n      pop\n        /* \"#utility.yul\":3854:4328   */\n      swap3\n      pop\n      swap3\n      swap1\n      pop\n      jump\t// out\n        /* \"#utility.yul\":4334:4476   */\n    tag_126:\n        /* \"#utility.yul\":4429:4435   */\n      0x00\n        /* \"#utility.yul\":4463:4468   */\n      dup2\n        /* \"#utility.yul\":4457:4469   */\n      mload\n        /* \"#utility.yul\":4447:4469   */\n      swap1\n      pop\n        /* \"#utility.yul\":4334:4476   */\n      swap2\n      swap1\n      pop\n      jump\t// out\n        /* \"#utility.yul\":4482:4694   */\n    tag_127:\n        /* \"#utility.yul\":4609:4620   */\n      0x00\n        /* \"#utility.yul\":4643:4649   */\n      dup3\n        /* \"#utility.yul\":4638:4641   */\n      dup3\n        /* \"#utility.yul\":4631:4650   */\n      mstore\n        /* \"#utility.yul\":4683:4687   */\n      0x20\n        /* \"#utility.yul\":4678:4681   */\n      dup3\n        /* \"#utility.yul\":4674:4688   */\n      add\n        /* \"#utility.yul\":4659:4688   */\n      swap1\n      pop\n        /* \"#utility.yul\":4482:4694   */\n      swap3\n      swap2\n      pop\n      pop\n      jump\t// out\n        /* \"#utility.yul\":4700:4860   */\n    tag_128:\n        /* \"#utility.yul\":4795:4799   */\n      0x00\n        /* \"#utility.yul\":4818:4821   */\n      dup2\n        /* \"#utility.yul\":4810:4821   */\n      swap1\n      pop\n        /* \"#utility.yul\":4848:4852   */\n      0x20\n        /* \"#utility.yul\":4843:4846   */\n      dup3\n        /* \"#utility.yul\":4839:4853   */\n      add\n        /* \"#utility.yul\":4831:4853   */\n      swap1\n      pop\n        /* \"#utility.yul\":4700:4860   */\n      swap2\n      swap1\n      pop\n      jump\t// out\n        /* \"#utility.yul\":4866:4974   */\n    tag_129:\n        /* \"#utility.yul\":4943:4967   */\n      tag_218\n        /* \"#utility.yul\":4961:4966   */\n      dup2\n        /* \"#utility.yul\":4943:4967   */\n      tag_114\n      jump\t// in\n    tag_218:\n        /* \"#utility.yul\":4938:4941   */\n      dup3\n        /* \"#utility.yul\":4931:4968   */\n      mstore\n        /* \"#utility.yul\":4866:4974   */\n      pop\n      pop\n      jump\t// out\n        /* \"#utility.yul\":4980:5139   */\n    tag_130:\n        /* \"#utility.yul\":5054:5065   */\n      0x00\n        /* \"#utility.yul\":5088:5094   */\n      dup3\n        /* \"#utility.yul\":5083:5086   */\n      dup3\n        /* \"#utility.yul\":5076:5095   */\n      mstore\n        /* \"#utility.yul\":5128:5132   */\n      0x20\n        /* \"#utility.yul\":5123:5126   */\n      dup3\n        /* \"#utility.yul\":5119:5133   */\n      add\n        /* \"#utility.yul\":5104:5133   */\n      swap1\n      pop\n        /* \"#utility.yul\":4980:5139   */\n      swap3\n      swap2\n      pop\n      pop\n      jump\t// out\n        /* \"#utility.yul\":5145:5489   */\n    tag_131:\n        /* \"#utility.yul\":5223:5226   */\n      0x00\n        /* \"#utility.yul\":5251:5290   */\n      tag_221\n        /* \"#utility.yul\":5284:5289   */\n      dup3\n        /* \"#utility.yul\":5251:5290   */\n      tag_118\n      jump\t// in\n    tag_221:\n        /* \"#utility.yul\":5306:5367   */\n      tag_222\n        /* \"#utility.yul\":5360:5366   */\n      dup2\n        /* \"#utility.yul\":5355:5358   */\n      dup6\n        /* \"#utility.yul\":5306:5367   */\n      tag_130\n      jump\t// in\n    tag_222:\n        /* \"#utility.yul\":5299:5367   */\n      swap4\n      pop\n        /* \"#utility.yul\":5376:5428   */\n      tag_223\n        /* \"#utility.yul\":5421:5427   */\n      dup2\n        /* \"#utility.yul\":5416:5419   */\n      dup6\n        /* \"#utility.yul\":5409:5413   */\n      0x20\n        /* \"#utility.yul\":5402:5407   */\n      dup7\n        /* \"#utility.yul\":5398:5414   */\n      add\n        /* \"#utility.yul\":5376:5428   */\n      tag_120\n      jump\t// in\n    tag_223:\n        /* \"#utility.yul\":5453:5482   */\n      tag_224\n        /* \"#utility.yul\":5475:5481   */\n      dup2\n        /* \"#utility.yul\":5453:5482   */\n      tag_121\n      jump\t// in\n    tag_224:\n        /* \"#utility.yul\":5448:5451   */\n      dup5\n        /* \"#utility.yul\":5444:5483   */\n      add\n        /* \"#utility.yul\":5437:5483   */\n      swap2\n      pop\n        /* \"#utility.yul\":5227:5489   */\n      pop\n        /* \"#utility.yul\":5145:5489   */\n      swap3\n      swap2\n      pop\n      pop\n      jump\t// out\n        /* \"#utility.yul\":5495:5603   */\n    tag_132:\n        /* \"#utility.yul\":5572:5596   */\n      tag_226\n        /* \"#utility.yul\":5590:5595   */\n      dup2\n        /* \"#utility.yul\":5572:5596   */\n      tag_124\n      jump\t// in\n    tag_226:\n        /* \"#utility.yul\":5567:5570   */\n      dup3\n        /* \"#utility.yul\":5560:5597   */\n      mstore\n        /* \"#utility.yul\":5495:5603   */\n      pop\n      pop\n      jump\t// out\n        /* \"#utility.yul\":5701:7519   */\n    tag_133:\n        /* \"#utility.yul\":5816:5819   */\n      0x00\n        /* \"#utility.yul\":5852:5858   */\n      0x0100\n        /* \"#utility.yul\":5847:5850   */\n      dup4\n        /* \"#utility.yul\":5843:5859   */\n      add\n        /* \"#utility.yul\":5940:5944   */\n      0x00\n        /* \"#utility.yul\":5933:5938   */\n      dup4\n        /* \"#utility.yul\":5929:5945   */\n      add\n        /* \"#utility.yul\":5923:5946   */\n      mload\n        /* \"#utility.yul\":5959:6022   */\n      tag_228\n        /* \"#utility.yul\":6016:6020   */\n      0x00\n        /* \"#utility.yul\":6011:6014   */\n      dup7\n        /* \"#utility.yul\":6007:6021   */\n      add\n        /* \"#utility.yul\":5993:6005   */\n      dup3\n        /* \"#utility.yul\":5959:6022   */\n      tag_129\n      jump\t// in\n    tag_228:\n        /* \"#utility.yul\":5869:6032   */\n      pop\n        /* \"#utility.yul\":6115:6119   */\n      0x20\n        /* \"#utility.yul\":6108:6113   */\n      dup4\n        /* \"#utility.yul\":6104:6120   */\n      add\n        /* \"#utility.yul\":6098:6121   */\n      mload\n        /* \"#utility.yul\":6168:6171   */\n      dup5\n        /* \"#utility.yul\":6162:6166   */\n      dup3\n        /* \"#utility.yul\":6158:6172   */\n      sub\n        /* \"#utility.yul\":6151:6155   */\n      0x20\n        /* \"#utility.yul\":6146:6149   */\n      dup7\n        /* \"#utility.yul\":6142:6156   */\n      add\n        /* \"#utility.yul\":6135:6173   */\n      mstore\n        /* \"#utility.yul\":6194:6267   */\n      tag_229\n        /* \"#utility.yul\":6262:6266   */\n      dup3\n        /* \"#utility.yul\":6248:6260   */\n      dup3\n        /* \"#utility.yul\":6194:6267   */\n      tag_131\n      jump\t// in\n    tag_229:\n        /* \"#utility.yul\":6186:6267   */\n      swap2\n      pop\n        /* \"#utility.yul\":6042:6278   */\n      pop\n        /* \"#utility.yul\":6362:6366   */\n      0x40\n        /* \"#utility.yul\":6355:6360   */\n      dup4\n        /* \"#utility.yul\":6351:6367   */\n      add\n        /* \"#utility.yul\":6345:6368   */\n      mload\n        /* \"#utility.yul\":6381:6444   */\n      tag_230\n        /* \"#utility.yul\":6438:6442   */\n      0x40\n        /* \"#utility.yul\":6433:6436   */\n      dup7\n        /* \"#utility.yul\":6429:6443   */\n      add\n        /* \"#utility.yul\":6415:6427   */\n      dup3\n        /* \"#utility.yul\":6381:6444   */\n      tag_129\n      jump\t// in\n    tag_230:\n        /* \"#utility.yul\":6288:6454   */\n      pop\n        /* \"#utility.yul\":6539:6543   */\n      0x60\n        /* \"#utility.yul\":6532:6537   */\n      dup4\n        /* \"#utility.yul\":6528:6544   */\n      add\n        /* \"#utility.yul\":6522:6545   */\n      mload\n        /* \"#utility.yul\":6558:6621   */\n      tag_231\n        /* \"#utility.yul\":6615:6619   */\n      0x60\n        /* \"#utility.yul\":6610:6613   */\n      dup7\n        /* \"#utility.yul\":6606:6620   */\n      add\n        /* \"#utility.yul\":6592:6604   */\n      dup3\n        /* \"#utility.yul\":6558:6621   */\n      tag_132\n      jump\t// in\n    tag_231:\n        /* \"#utility.yul\":6464:6631   */\n      pop\n        /* \"#utility.yul\":6718:6722   */\n      0x80\n        /* \"#utility.yul\":6711:6716   */\n      dup4\n        /* \"#utility.yul\":6707:6723   */\n      add\n        /* \"#utility.yul\":6701:6724   */\n      mload\n        /* \"#utility.yul\":6737:6800   */\n      tag_232\n        /* \"#utility.yul\":6794:6798   */\n      0x80\n        /* \"#utility.yul\":6789:6792   */\n      dup7\n        /* \"#utility.yul\":6785:6799   */\n      add\n        /* \"#utility.yul\":6771:6783   */\n      dup3\n        /* \"#utility.yul\":6737:6800   */\n      tag_132\n      jump\t// in\n    tag_232:\n        /* \"#utility.yul\":6641:6810   */\n      pop\n        /* \"#utility.yul\":6895:6899   */\n      0xa0\n        /* \"#utility.yul\":6888:6893   */\n      dup4\n        /* \"#utility.yul\":6884:6900   */\n      add\n        /* \"#utility.yul\":6878:6901   */\n      mload\n        /* \"#utility.yul\":6914:6977   */\n      tag_233\n        /* \"#utility.yul\":6971:6975   */\n      0xa0\n        /* \"#utility.yul\":6966:6969   */\n      dup7\n        /* \"#utility.yul\":6962:6976   */\n      add\n        /* \"#utility.yul\":6948:6960   */\n      dup3\n        /* \"#utility.yul\":6914:6977   */\n      tag_129\n      jump\t// in\n    tag_233:\n        /* \"#utility.yul\":6820:6987   */\n      pop\n        /* \"#utility.yul\":7076:7080   */\n      0xc0\n        /* \"#utility.yul\":7069:7074   */\n      dup4\n        /* \"#utility.yul\":7065:7081   */\n      add\n        /* \"#utility.yul\":7059:7082   */\n      mload\n        /* \"#utility.yul\":7129:7132   */\n      dup5\n        /* \"#utility.yul\":7123:7127   */\n      dup3\n        /* \"#utility.yul\":7119:7133   */\n      sub\n        /* \"#utility.yul\":7112:7116   */\n      0xc0\n        /* \"#utility.yul\":7107:7110   */\n      dup7\n        /* \"#utility.yul\":7103:7117   */\n      add\n        /* \"#utility.yul\":7096:7134   */\n      mstore\n        /* \"#utility.yul\":7155:7228   */\n      tag_234\n        /* \"#utility.yul\":7223:7227   */\n      dup3\n        /* \"#utility.yul\":7209:7221   */\n      dup3\n        /* \"#utility.yul\":7155:7228   */\n      tag_131\n      jump\t// in\n    tag_234:\n        /* \"#utility.yul\":7147:7228   */\n      swap2\n      pop\n        /* \"#utility.yul\":6997:7239   */\n      pop\n        /* \"#utility.yul\":7329:7333   */\n      0xe0\n        /* \"#utility.yul\":7322:7327   */\n      dup4\n        /* \"#utility.yul\":7318:7334   */\n      add\n        /* \"#utility.yul\":7312:7335   */\n      mload\n        /* \"#utility.yul\":7382:7385   */\n      dup5\n        /* \"#utility.yul\":7376:7380   */\n      dup3\n        /* \"#utility.yul\":7372:7386   */\n      sub\n        /* \"#utility.yul\":7365:7369   */\n      0xe0\n        /* \"#utility.yul\":7360:7363   */\n      dup7\n        /* \"#utility.yul\":7356:7370   */\n      add\n        /* \"#utility.yul\":7349:7387   */\n      mstore\n        /* \"#utility.yul\":7408:7481   */\n      tag_235\n        /* \"#utility.yul\":7476:7480   */\n      dup3\n        /* \"#utility.yul\":7462:7474   */\n      dup3\n        /* \"#utility.yul\":7408:7481   */\n      tag_131\n      jump\t// in\n    tag_235:\n        /* \"#utility.yul\":7400:7481   */\n      swap2\n      pop\n        /* \"#utility.yul\":7249:7492   */\n      pop\n        /* \"#utility.yul\":7509:7513   */\n      dup1\n        /* \"#utility.yul\":7502:7513   */\n      swap2\n      pop\n        /* \"#utility.yul\":5821:7519   */\n      pop\n        /* \"#utility.yul\":5701:7519   */\n      swap3\n      swap2\n      pop\n      pop\n      jump\t// out\n        /* \"#utility.yul\":7525:7793   */\n    tag_134:\n        /* \"#utility.yul\":7650:7660   */\n      0x00\n        /* \"#utility.yul\":7685:7787   */\n      tag_237\n        /* \"#utility.yul\":7783:7786   */\n      dup4\n        /* \"#utility.yul\":7775:7781   */\n      dup4\n        /* \"#utility.yul\":7685:7787   */\n      tag_133\n      jump\t// in\n    tag_237:\n        /* \"#utility.yul\":7671:7787   */\n      swap1\n      pop\n        /* \"#utility.yul\":7525:7793   */\n      swap3\n      swap2\n      pop\n      pop\n      jump\t// out\n        /* \"#utility.yul\":7799:7940   */\n    tag_135:\n        /* \"#utility.yul\":7897:7901   */\n      0x00\n        /* \"#utility.yul\":7929:7933   */\n      0x20\n        /* \"#utility.yul\":7924:7927   */\n      dup3\n        /* \"#utility.yul\":7920:7934   */\n      add\n        /* \"#utility.yul\":7912:7934   */\n      swap1\n      pop\n        /* \"#utility.yul\":7799:7940   */\n      swap2\n      swap1\n      pop\n      jump\t// out\n        /* \"#utility.yul\":8042:9177   */\n    tag_136:\n        /* \"#utility.yul\":8217:8220   */\n      0x00\n        /* \"#utility.yul\":8246:8328   */\n      tag_240\n        /* \"#utility.yul\":8322:8327   */\n      dup3\n        /* \"#utility.yul\":8246:8328   */\n      tag_126\n      jump\t// in\n    tag_240:\n        /* \"#utility.yul\":8344:8458   */\n      tag_241\n        /* \"#utility.yul\":8451:8457   */\n      dup2\n        /* \"#utility.yul\":8446:8449   */\n      dup6\n        /* \"#utility.yul\":8344:8458   */\n      tag_127\n      jump\t// in\n    tag_241:\n        /* \"#utility.yul\":8337:8458   */\n      swap4\n      pop\n        /* \"#utility.yul\":8484:8487   */\n      dup4\n        /* \"#utility.yul\":8529:8533   */\n      0x20\n        /* \"#utility.yul\":8521:8527   */\n      dup3\n        /* \"#utility.yul\":8517:8534   */\n      mul\n        /* \"#utility.yul\":8512:8515   */\n      dup6\n        /* \"#utility.yul\":8508:8535   */\n      add\n        /* \"#utility.yul\":8559:8643   */\n      tag_242\n        /* \"#utility.yul\":8637:8642   */\n      dup6\n        /* \"#utility.yul\":8559:8643   */\n      tag_128\n      jump\t// in\n    tag_242:\n        /* \"#utility.yul\":8666:8673   */\n      dup1\n        /* \"#utility.yul\":8697:8698   */\n      0x00\n        /* \"#utility.yul\":8682:9132   */\n    tag_243:\n        /* \"#utility.yul\":8707:8713   */\n      dup6\n        /* \"#utility.yul\":8704:8705   */\n      dup2\n        /* \"#utility.yul\":8701:8714   */\n      lt\n        /* \"#utility.yul\":8682:9132   */\n      iszero\n      tag_245\n      jumpi\n        /* \"#utility.yul\":8778:8787   */\n      dup5\n        /* \"#utility.yul\":8772:8776   */\n      dup5\n        /* \"#utility.yul\":8768:8788   */\n      sub\n        /* \"#utility.yul\":8763:8766   */\n      dup10\n        /* \"#utility.yul\":8756:8789   */\n      mstore\n        /* \"#utility.yul\":8829:8835   */\n      dup2\n        /* \"#utility.yul\":8823:8836   */\n      mload\n        /* \"#utility.yul\":8857:8977   */\n      tag_246\n        /* \"#utility.yul\":8972:8976   */\n      dup6\n        /* \"#utility.yul\":8957:8970   */\n      dup3\n        /* \"#utility.yul\":8857:8977   */\n      tag_134\n      jump\t// in\n    tag_246:\n        /* \"#utility.yul\":8849:8977   */\n      swap5\n      pop\n        /* \"#utility.yul\":9000:9088   */\n      tag_247\n        /* \"#utility.yul\":9081:9087   */\n      dup4\n        /* \"#utility.yul\":9000:9088   */\n      tag_135\n      jump\t// in\n    tag_247:\n        /* \"#utility.yul\":8990:9088   */\n      swap3\n      pop\n        /* \"#utility.yul\":9117:9121   */\n      0x20\n        /* \"#utility.yul\":9112:9115   */\n      dup11\n        /* \"#utility.yul\":9108:9122   */\n      add\n        /* \"#utility.yul\":9101:9122   */\n      swap10\n      pop\n        /* \"#utility.yul\":8742:9132   */\n      pop\n        /* \"#utility.yul\":8729:8730   */\n      0x01\n        /* \"#utility.yul\":8726:8727   */\n      dup2\n        /* \"#utility.yul\":8722:8731   */\n      add\n        /* \"#utility.yul\":8717:8731   */\n      swap1\n      pop\n        /* \"#utility.yul\":8682:9132   */\n      jump(tag_243)\n    tag_245:\n        /* \"#utility.yul\":8686:8700   */\n      pop\n        /* \"#utility.yul\":9148:9152   */\n      dup3\n        /* \"#utility.yul\":9141:9152   */\n      swap8\n      pop\n        /* \"#utility.yul\":9168:9171   */\n      dup8\n        /* \"#utility.yul\":9161:9171   */\n      swap6\n      pop\n        /* \"#utility.yul\":8222:9177   */\n      pop\n      pop\n      pop\n      pop\n      pop\n        /* \"#utility.yul\":8042:9177   */\n      swap3\n      swap2\n      pop\n      pop\n      jump\t// out\n        /* \"#utility.yul\":9183:9668   */\n    tag_22:\n        /* \"#utility.yul\":9382:9386   */\n      0x00\n        /* \"#utility.yul\":9420:9422   */\n      0x20\n        /* \"#utility.yul\":9409:9418   */\n      dup3\n        /* \"#utility.yul\":9405:9423   */\n      add\n        /* \"#utility.yul\":9397:9423   */\n      swap1\n      pop\n        /* \"#utility.yul\":9469:9478   */\n      dup2\n        /* \"#utility.yul\":9463:9467   */\n      dup2\n        /* \"#utility.yul\":9459:9479   */\n      sub\n        /* \"#utility.yul\":9455:9456   */\n      0x00\n        /* \"#utility.yul\":9444:9453   */\n      dup4\n        /* \"#utility.yul\":9440:9457   */\n      add\n        /* \"#utility.yul\":9433:9480   */\n      mstore\n        /* \"#utility.yul\":9497:9661   */\n      tag_249\n        /* \"#utility.yul\":9656:9660   */\n      dup2\n        /* \"#utility.yul\":9647:9653   */\n      dup5\n        /* \"#utility.yul\":9497:9661   */\n      tag_136\n      jump\t// in\n    tag_249:\n        /* \"#utility.yul\":9489:9661   */\n      swap1\n      pop\n        /* \"#utility.yul\":9183:9668   */\n      swap3\n      swap2\n      pop\n      pop\n      jump\t// out\n        /* \"#utility.yul\":9674:9791   */\n    tag_137:\n        /* \"#utility.yul\":9783:9784   */\n      0x00\n        /* \"#utility.yul\":9780:9781   */\n      dup1\n        /* \"#utility.yul\":9773:9785   */\n      revert\n        /* \"#utility.yul\":9797:9914   */\n    tag_138:\n        /* \"#utility.yul\":9906:9907   */\n      0x00\n        /* \"#utility.yul\":9903:9904   */\n      dup1\n        /* \"#utility.yul\":9896:9908   */\n      revert\n        /* \"#utility.yul\":9920:10100   */\n    tag_139:\n        /* \"#utility.yul\":9968:10045   */\n      0x4e487b7100000000000000000000000000000000000000000000000000000000\n        /* \"#utility.yul\":9965:9966   */\n      0x00\n        /* \"#utility.yul\":9958:10046   */\n      mstore\n        /* \"#utility.yul\":10065:10069   */\n      0x41\n        /* \"#utility.yul\":10062:10063   */\n      0x04\n        /* \"#utility.yul\":10055:10070   */\n      mstore\n        /* \"#utility.yul\":10089:10093   */\n      0x24\n        /* \"#utility.yul\":10086:10087   */\n      0x00\n        /* \"#utility.yul\":10079:10094   */\n      revert\n        /* \"#utility.yul\":10106:10387   */\n    tag_140:\n        /* \"#utility.yul\":10189:10216   */\n      tag_254\n        /* \"#utility.yul\":10211:10215   */\n      dup3\n        /* \"#utility.yul\":10189:10216   */\n      tag_121\n      jump\t// in\n    tag_254:\n        /* \"#utility.yul\":10181:10187   */\n      dup2\n        /* \"#utility.yul\":10177:10217   */\n      add\n        /* \"#utility.yul\":10319:10325   */\n      dup2\n        /* \"#utility.yul\":10307:10317   */\n      dup2\n        /* \"#utility.yul\":10304:10326   */\n      lt\n        /* \"#utility.yul\":10283:10301   */\n      0xffffffffffffffff\n        /* \"#utility.yul\":10271:10281   */\n      dup3\n        /* \"#utility.yul\":10268:10302   */\n      gt\n        /* \"#utility.yul\":10265:10327   */\n      or\n        /* \"#utility.yul\":10262:10350   */\n      iszero\n      tag_255\n      jumpi\n        /* \"#utility.yul\":10330:10348   */\n      tag_256\n      tag_139\n      jump\t// in\n    tag_256:\n        /* \"#utility.yul\":10262:10350   */\n    tag_255:\n        /* \"#utility.yul\":10370:10380   */\n      dup1\n        /* \"#utility.yul\":10366:10368   */\n      0x40\n        /* \"#utility.yul\":10359:10381   */\n      mstore\n        /* \"#utility.yul\":10149:10387   */\n      pop\n        /* \"#utility.yul\":10106:10387   */\n      pop\n      pop\n      jump\t// out\n        /* \"#utility.yul\":10393:10522   */\n    tag_141:\n        /* \"#utility.yul\":10427:10433   */\n      0x00\n        /* \"#utility.yul\":10454:10474   */\n      tag_258\n      tag_111\n      jump\t// in\n    tag_258:\n        /* \"#utility.yul\":10444:10474   */\n      swap1\n      pop\n        /* \"#utility.yul\":10483:10516   */\n      tag_259\n        /* \"#utility.yul\":10511:10515   */\n      dup3\n        /* \"#utility.yul\":10503:10509   */\n      dup3\n        /* \"#utility.yul\":10483:10516   */\n      tag_140\n      jump\t// in\n    tag_259:\n        /* \"#utility.yul\":10393:10522   */\n      swap2\n      swap1\n      pop\n      jump\t// out\n        /* \"#utility.yul\":10528:10836   */\n    tag_142:\n        /* \"#utility.yul\":10590:10594   */\n      0x00\n        /* \"#utility.yul\":10680:10698   */\n      0xffffffffffffffff\n        /* \"#utility.yul\":10672:10678   */\n      dup3\n        /* \"#utility.yul\":10669:10699   */\n      gt\n        /* \"#utility.yul\":10666:10722   */\n      iszero\n      tag_261\n      jumpi\n        /* \"#utility.yul\":10702:10720   */\n      tag_262\n      tag_139\n      jump\t// in\n    tag_262:\n        /* \"#utility.yul\":10666:10722   */\n    tag_261:\n        /* \"#utility.yul\":10740:10769   */\n      tag_263\n        /* \"#utility.yul\":10762:10768   */\n      dup3\n        /* \"#utility.yul\":10740:10769   */\n      tag_121\n      jump\t// in\n    tag_263:\n        /* \"#utility.yul\":10732:10769   */\n      swap1\n      pop\n        /* \"#utility.yul\":10824:10828   */\n      0x20\n        /* \"#utility.yul\":10818:10822   */\n      dup2\n        /* \"#utility.yul\":10814:10829   */\n      add\n        /* \"#utility.yul\":10806:10829   */\n      swap1\n      pop\n        /* \"#utility.yul\":10528:10836   */\n      swap2\n      swap1\n      pop\n      jump\t// out\n        /* \"#utility.yul\":10842:10996   */\n    tag_143:\n        /* \"#utility.yul\":10926:10932   */\n      dup3\n        /* \"#utility.yul\":10921:10924   */\n      dup2\n        /* \"#utility.yul\":10916:10919   */\n      dup4\n        /* \"#utility.yul\":10903:10933   */\n      calldatacopy\n        /* \"#utility.yul\":10988:10989   */\n      0x00\n        /* \"#utility.yul\":10979:10985   */\n      dup4\n        /* \"#utility.yul\":10974:10977   */\n      dup4\n        /* \"#utility.yul\":10970:10986   */\n      add\n        /* \"#utility.yul\":10963:10990   */\n      mstore\n        /* \"#utility.yul\":10842:10996   */\n      pop\n      pop\n      pop\n      jump\t// out\n        /* \"#utility.yul\":11002:11414   */\n    tag_144:\n        /* \"#utility.yul\":11080:11085   */\n      0x00\n        /* \"#utility.yul\":11105:11171   */\n      tag_266\n        /* \"#utility.yul\":11121:11170   */\n      tag_267\n        /* \"#utility.yul\":11163:11169   */\n      dup5\n        /* \"#utility.yul\":11121:11170   */\n      tag_142\n      jump\t// in\n    tag_267:\n        /* \"#utility.yul\":11105:11171   */\n      tag_141\n      jump\t// in\n    tag_266:\n        /* \"#utility.yul\":11096:11171   */\n      swap1\n      pop\n        /* \"#utility.yul\":11194:11200   */\n      dup3\n        /* \"#utility.yul\":11187:11192   */\n      dup2\n        /* \"#utility.yul\":11180:11201   */\n      mstore\n        /* \"#utility.yul\":11232:11236   */\n      0x20\n        /* \"#utility.yul\":11225:11230   */\n      dup2\n        /* \"#utility.yul\":11221:11237   */\n      add\n        /* \"#utility.yul\":11270:11273   */\n      dup5\n        /* \"#utility.yul\":11261:11267   */\n      dup5\n        /* \"#utility.yul\":11256:11259   */\n      dup5\n        /* \"#utility.yul\":11252:11268   */\n      add\n        /* \"#utility.yul\":11249:11274   */\n      gt\n        /* \"#utility.yul\":11246:11358   */\n      iszero\n      tag_268\n      jumpi\n        /* \"#utility.yul\":11277:11356   */\n      tag_269\n      tag_138\n      jump\t// in\n    tag_269:\n        /* \"#utility.yul\":11246:11358   */\n    tag_268:\n        /* \"#utility.yul\":11367:11408   */\n      tag_270\n        /* \"#utility.yul\":11401:11407   */\n      dup5\n        /* \"#utility.yul\":11396:11399   */\n      dup3\n        /* \"#utility.yul\":11391:11394   */\n      dup6\n        /* \"#utility.yul\":11367:11408   */\n      tag_143\n      jump\t// in\n    tag_270:\n        /* \"#utility.yul\":11086:11414   */\n      pop\n        /* \"#utility.yul\":11002:11414   */\n      swap4\n      swap3\n      pop\n      pop\n      pop\n      jump\t// out\n        /* \"#utility.yul\":11434:11774   */\n    tag_145:\n        /* \"#utility.yul\":11490:11495   */\n      0x00\n        /* \"#utility.yul\":11539:11542   */\n      dup3\n        /* \"#utility.yul\":11532:11536   */\n      0x1f\n        /* \"#utility.yul\":11524:11530   */\n      dup4\n        /* \"#utility.yul\":11520:11537   */\n      add\n        /* \"#utility.yul\":11516:11543   */\n      slt\n        /* \"#utility.yul\":11506:11628   */\n      tag_272\n      jumpi\n        /* \"#utility.yul\":11547:11626   */\n      tag_273\n      tag_137\n      jump\t// in\n    tag_273:\n        /* \"#utility.yul\":11506:11628   */\n    tag_272:\n        /* \"#utility.yul\":11664:11670   */\n      dup2\n        /* \"#utility.yul\":11651:11671   */\n      calldataload\n        /* \"#utility.yul\":11689:11768   */\n      tag_274\n        /* \"#utility.yul\":11764:11767   */\n      dup5\n        /* \"#utility.yul\":11756:11762   */\n      dup3\n        /* \"#utility.yul\":11749:11753   */\n      0x20\n        /* \"#utility.yul\":11741:11747   */\n      dup7\n        /* \"#utility.yul\":11737:11754   */\n      add\n        /* \"#utility.yul\":11689:11768   */\n      tag_144\n      jump\t// in\n    tag_274:\n        /* \"#utility.yul\":11680:11768   */\n      swap2\n      pop\n        /* \"#utility.yul\":11496:11774   */\n      pop\n        /* \"#utility.yul\":11434:11774   */\n      swap3\n      swap2\n      pop\n      pop\n      jump\t// out\n        /* \"#utility.yul\":11780:11902   */\n    tag_146:\n        /* \"#utility.yul\":11853:11877   */\n      tag_276\n        /* \"#utility.yul\":11871:11876   */\n      dup2\n        /* \"#utility.yul\":11853:11877   */\n      tag_124\n      jump\t// in\n    tag_276:\n        /* \"#utility.yul\":11846:11851   */\n      dup2\n        /* \"#utility.yul\":11843:11878   */\n      eq\n        /* \"#utility.yul\":11833:11896   */\n      tag_277\n      jumpi\n        /* \"#utility.yul\":11892:11893   */\n      0x00\n        /* \"#utility.yul\":11889:11890   */\n      dup1\n        /* \"#utility.yul\":11882:11894   */\n      revert\n        /* \"#utility.yul\":11833:11896   */\n    tag_277:\n        /* \"#utility.yul\":11780:11902   */\n      pop\n      jump\t// out\n        /* \"#utility.yul\":11908:12047   */\n    tag_147:\n        /* \"#utility.yul\":11954:11959   */\n      0x00\n        /* \"#utility.yul\":11992:11998   */\n      dup2\n        /* \"#utility.yul\":11979:11999   */\n      calldataload\n        /* \"#utility.yul\":11970:11999   */\n      swap1\n      pop\n        /* \"#utility.yul\":12008:12041   */\n      tag_279\n        /* \"#utility.yul\":12035:12040   */\n      dup2\n        /* \"#utility.yul\":12008:12041   */\n      tag_146\n      jump\t// in\n    tag_279:\n        /* \"#utility.yul\":11908:12047   */\n      swap3\n      swap2\n      pop\n      pop\n      jump\t// out\n        /* \"#utility.yul\":12053:13032   */\n    tag_28:\n        /* \"#utility.yul\":12150:12156   */\n      0x00\n        /* \"#utility.yul\":12158:12164   */\n      dup1\n        /* \"#utility.yul\":12166:12172   */\n      0x00\n        /* \"#utility.yul\":12215:12217   */\n      0x60\n        /* \"#utility.yul\":12203:12212   */\n      dup5\n        /* \"#utility.yul\":12194:12201   */\n      dup7\n        /* \"#utility.yul\":12190:12213   */\n      sub\n        /* \"#utility.yul\":12186:12218   */\n      slt\n        /* \"#utility.yul\":12183:12302   */\n      iszero\n      tag_281\n      jumpi\n        /* \"#utility.yul\":12221:12300   */\n      tag_282\n      tag_112\n      jump\t// in\n    tag_282:\n        /* \"#utility.yul\":12183:12302   */\n    tag_281:\n        /* \"#utility.yul\":12369:12370   */\n      0x00\n        /* \"#utility.yul\":12358:12367   */\n      dup5\n        /* \"#utility.yul\":12354:12371   */\n      add\n        /* \"#utility.yul\":12341:12372   */\n      calldataload\n        /* \"#utility.yul\":12399:12417   */\n      0xffffffffffffffff\n        /* \"#utility.yul\":12391:12397   */\n      dup2\n        /* \"#utility.yul\":12388:12418   */\n      gt\n        /* \"#utility.yul\":12385:12502   */\n      iszero\n      tag_283\n      jumpi\n        /* \"#utility.yul\":12421:12500   */\n      tag_284\n      tag_113\n      jump\t// in\n    tag_284:\n        /* \"#utility.yul\":12385:12502   */\n    tag_283:\n        /* \"#utility.yul\":12526:12589   */\n      tag_285\n        /* \"#utility.yul\":12581:12588   */\n      dup7\n        /* \"#utility.yul\":12572:12578   */\n      dup3\n        /* \"#utility.yul\":12561:12570   */\n      dup8\n        /* \"#utility.yul\":12557:12579   */\n      add\n        /* \"#utility.yul\":12526:12589   */\n      tag_145\n      jump\t// in\n    tag_285:\n        /* \"#utility.yul\":12516:12589   */\n      swap4\n      pop\n        /* \"#utility.yul\":12312:12599   */\n      pop\n        /* \"#utility.yul\":12638:12640   */\n      0x20\n        /* \"#utility.yul\":12664:12717   */\n      tag_286\n        /* \"#utility.yul\":12709:12716   */\n      dup7\n        /* \"#utility.yul\":12700:12706   */\n      dup3\n        /* \"#utility.yul\":12689:12698   */\n      dup8\n        /* \"#utility.yul\":12685:12707   */\n      add\n        /* \"#utility.yul\":12664:12717   */\n      tag_147\n      jump\t// in\n    tag_286:\n        /* \"#utility.yul\":12654:12717   */\n      swap3\n      pop\n        /* \"#utility.yul\":12609:12727   */\n      pop\n        /* \"#utility.yul\":12794:12796   */\n      0x40\n        /* \"#utility.yul\":12783:12792   */\n      dup5\n        /* \"#utility.yul\":12779:12797   */\n      add\n        /* \"#utility.yul\":12766:12798   */\n      calldataload\n        /* \"#utility.yul\":12825:12843   */\n      0xffffffffffffffff\n        /* \"#utility.yul\":12817:12823   */\n      dup2\n        /* \"#utility.yul\":12814:12844   */\n      gt\n        /* \"#utility.yul\":12811:12928   */\n      iszero\n      tag_287\n      jumpi\n        /* \"#utility.yul\":12847:12926   */\n      tag_288\n      tag_113\n      jump\t// in\n    tag_288:\n        /* \"#utility.yul\":12811:12928   */\n    tag_287:\n        /* \"#utility.yul\":12952:13015   */\n      tag_289\n        /* \"#utility.yul\":13007:13014   */\n      dup7\n        /* \"#utility.yul\":12998:13004   */\n      dup3\n        /* \"#utility.yul\":12987:12996   */\n      dup8\n        /* \"#utility.yul\":12983:13005   */\n      add\n        /* \"#utility.yul\":12952:13015   */\n      tag_145\n      jump\t// in\n    tag_289:\n        /* \"#utility.yul\":12942:13015   */\n      swap2\n      pop\n        /* \"#utility.yul\":12737:13025   */\n      pop\n        /* \"#utility.yul\":12053:13032   */\n      swap3\n      pop\n      swap3\n      pop\n      swap3\n      jump\t// out\n        /* \"#utility.yul\":13038:13218   */\n    tag_148:\n        /* \"#utility.yul\":13086:13163   */\n      0x4e487b7100000000000000000000000000000000000000000000000000000000\n        /* \"#utility.yul\":13083:13084   */\n      0x00\n        /* \"#utility.yul\":13076:13164   */\n      mstore\n        /* \"#utility.yul\":13183:13187   */\n      0x22\n        /* \"#utility.yul\":13180:13181   */\n      0x04\n        /* \"#utility.yul\":13173:13188   */\n      mstore\n        /* \"#utility.yul\":13207:13211   */\n      0x24\n        /* \"#utility.yul\":13204:13205   */\n      0x00\n        /* \"#utility.yul\":13197:13212   */\n      revert\n        /* \"#utility.yul\":13224:13544   */\n    tag_33:\n        /* \"#utility.yul\":13268:13274   */\n      0x00\n        /* \"#utility.yul\":13305:13306   */\n      0x02\n        /* \"#utility.yul\":13299:13303   */\n      dup3\n        /* \"#utility.yul\":13295:13307   */\n      div\n        /* \"#utility.yul\":13285:13307   */\n      swap1\n      pop\n        /* \"#utility.yul\":13352:13353   */\n      0x01\n        /* \"#utility.yul\":13346:13350   */\n      dup3\n        /* \"#utility.yul\":13342:13354   */\n      and\n        /* \"#utility.yul\":13373:13391   */\n      dup1\n        /* \"#utility.yul\":13363:13444   */\n      tag_292\n      jumpi\n        /* \"#utility.yul\":13429:13433   */\n      0x7f\n        /* \"#utility.yul\":13421:13427   */\n      dup3\n        /* \"#utility.yul\":13417:13434   */\n      and\n        /* \"#utility.yul\":13407:13434   */\n      swap2\n      pop\n        /* \"#utility.yul\":13363:13444   */\n    tag_292:\n        /* \"#utility.yul\":13491:13493   */\n      0x20\n        /* \"#utility.yul\":13483:13489   */\n      dup3\n        /* \"#utility.yul\":13480:13494   */\n      lt\n        /* \"#utility.yul\":13460:13478   */\n      dup2\n        /* \"#utility.yul\":13457:13495   */\n      sub\n        /* \"#utility.yul\":13454:13538   */\n      tag_293\n      jumpi\n        /* \"#utility.yul\":13510:13528   */\n      tag_294\n      tag_148\n      jump\t// in\n    tag_294:\n        /* \"#utility.yul\":13454:13538   */\n    tag_293:\n        /* \"#utility.yul\":13275:13544   */\n      pop\n        /* \"#utility.yul\":13224:13544   */\n      swap2\n      swap1\n      pop\n      jump\t// out\n        /* \"#utility.yul\":13550:13730   */\n    tag_51:\n        /* \"#utility.yul\":13598:13675   */\n      0x4e487b7100000000000000000000000000000000000000000000000000000000\n        /* \"#utility.yul\":13595:13596   */\n      0x00\n        /* \"#utility.yul\":13588:13676   */\n      mstore\n        /* \"#utility.yul\":13695:13699   */\n      0x32\n        /* \"#utility.yul\":13692:13693   */\n      0x04\n        /* \"#utility.yul\":13685:13700   */\n      mstore\n        /* \"#utility.yul\":13719:13723   */\n      0x24\n        /* \"#utility.yul\":13716:13717   */\n      0x00\n        /* \"#utility.yul\":13709:13724   */\n      revert\n        /* \"#utility.yul\":13736:13885   */\n    tag_149:\n        /* \"#utility.yul\":13785:13791   */\n      0x00\n        /* \"#utility.yul\":13819:13824   */\n      dup2\n        /* \"#utility.yul\":13813:13825   */\n      sload\n        /* \"#utility.yul\":13803:13825   */\n      swap1\n      pop\n        /* \"#utility.yul\":13845:13878   */\n      tag_297\n        /* \"#utility.yul\":13871:13877   */\n      dup2\n        /* \"#utility.yul\":13845:13878   */\n      tag_33\n      jump\t// in\n    tag_297:\n        /* \"#utility.yul\":13835:13878   */\n      swap1\n      pop\n        /* \"#utility.yul\":13736:13885   */\n      swap2\n      swap1\n      pop\n      jump\t// out\n        /* \"#utility.yul\":13891:14032   */\n    tag_150:\n        /* \"#utility.yul\":13940:13944   */\n      0x00\n        /* \"#utility.yul\":13963:13966   */\n      dup2\n        /* \"#utility.yul\":13955:13966   */\n      swap1\n      pop\n        /* \"#utility.yul\":13986:13989   */\n      dup2\n        /* \"#utility.yul\":13983:13984   */\n      0x00\n        /* \"#utility.yul\":13976:13990   */\n      mstore\n        /* \"#utility.yul\":14020:14024   */\n      0x20\n        /* \"#utility.yul\":14017:14018   */\n      0x00\n        /* \"#utility.yul\":14007:14025   */\n      keccak256\n        /* \"#utility.yul\":13999:14025   */\n      swap1\n      pop\n        /* \"#utility.yul\":13891:14032   */\n      swap2\n      swap1\n      pop\n      jump\t// out\n        /* \"#utility.yul\":14038:14131   */\n    tag_151:\n        /* \"#utility.yul\":14075:14081   */\n      0x00\n        /* \"#utility.yul\":14122:14124   */\n      0x20\n        /* \"#utility.yul\":14117:14119   */\n      0x1f\n        /* \"#utility.yul\":14110:14115   */\n      dup4\n        /* \"#utility.yul\":14106:14120   */\n      add\n        /* \"#utility.yul\":14102:14125   */\n      div\n        /* \"#utility.yul\":14092:14125   */\n      swap1\n      pop\n        /* \"#utility.yul\":14038:14131   */\n      swap2\n      swap1\n      pop\n      jump\t// out\n        /* \"#utility.yul\":14137:14244   */\n    tag_152:\n        /* \"#utility.yul\":14181:14189   */\n      0x00\n        /* \"#utility.yul\":14231:14236   */\n      dup3\n        /* \"#utility.yul\":14225:14229   */\n      dup3\n        /* \"#utility.yul\":14221:14237   */\n      shl\n        /* \"#utility.yul\":14200:14237   */\n      swap1\n      pop\n        /* \"#utility.yul\":14137:14244   */\n      swap3\n      swap2\n      pop\n      pop\n      jump\t// out\n        /* \"#utility.yul\":14250:14643   */\n    tag_153:\n        /* \"#utility.yul\":14319:14325   */\n      0x00\n        /* \"#utility.yul\":14369:14370   */\n      0x08\n        /* \"#utility.yul\":14357:14367   */\n      dup4\n        /* \"#utility.yul\":14353:14371   */\n      mul\n        /* \"#utility.yul\":14392:14489   */\n      tag_302\n        /* \"#utility.yul\":14422:14488   */\n      0xffffffffffffffffffffffffffffffffffffffffffffffffffffffffffffffff\n        /* \"#utility.yul\":14411:14420   */\n      dup3\n        /* \"#utility.yul\":14392:14489   */\n      tag_152\n      jump\t// in\n    tag_302:\n        /* \"#utility.yul\":14510:14549   */\n      tag_303\n        /* \"#utility.yul\":14540:14548   */\n      dup7\n        /* \"#utility.yul\":14529:14538   */\n      dup4\n        /* \"#utility.yul\":14510:14549   */\n      tag_152\n      jump\t// in\n    tag_303:\n        /* \"#utility.yul\":14498:14549   */\n      swap6\n      pop\n        /* \"#utility.yul\":14582:14586   */\n      dup1\n        /* \"#utility.yul\":14578:14587   */\n      not\n        /* \"#utility.yul\":14571:14576   */\n      dup5\n        /* \"#utility.yul\":14567:14588   */\n      and\n        /* \"#utility.yul\":14558:14588   */\n      swap4\n      pop\n        /* \"#utility.yul\":14631:14635   */\n      dup1\n        /* \"#utility.yul\":14621:14629   */\n      dup7\n        /* \"#utility.yul\":14617:14636   */\n      and\n        /* \"#utility.yul\":14610:14615   */\n      dup5\n        /* \"#utility.yul\":14607:14637   */\n      or\n        /* \"#utility.yul\":14597:14637   */\n      swap3\n      pop\n        /* \"#utility.yul\":14326:14643   */\n      pop\n      pop\n        /* \"#utility.yul\":14250:14643   */\n      swap4\n      swap3\n      pop\n      pop\n      pop\n      jump\t// out\n        /* \"#utility.yul\":14649:14709   */\n    tag_154:\n        /* \"#utility.yul\":14677:14680   */\n      0x00\n        /* \"#utility.yul\":14698:14703   */\n      dup2\n        /* \"#utility.yul\":14691:14703   */\n      swap1\n      pop\n        /* \"#utility.yul\":14649:14709   */\n      swap2\n      swap1\n      pop\n      jump\t// out\n        /* \"#utility.yul\":14715:14857   */\n    tag_155:\n        /* \"#utility.yul\":14765:14774   */\n      0x00\n        /* \"#utility.yul\":14798:14851   */\n      tag_306\n        /* \"#utility.yul\":14816:14850   */\n      tag_307\n        /* \"#utility.yul\":14825:14849   */\n      tag_308\n        /* \"#utility.yul\":14843:14848   */\n      dup5\n        /* \"#utility.yul\":14825:14849   */\n      tag_114\n      jump\t// in\n    tag_308:\n        /* \"#utility.yul\":14816:14850   */\n      tag_154\n      jump\t// in\n    tag_307:\n        /* \"#utility.yul\":14798:14851   */\n      tag_114\n      jump\t// in\n    tag_306:\n        /* \"#utility.yul\":14785:14851   */\n      swap1\n      pop\n        /* \"#utility.yul\":14715:14857   */\n      swap2\n      swap1\n      pop\n      jump\t// out\n        /* \"#utility.yul\":14863:14938   */\n    tag_156:\n        /* \"#utility.yul\":14906:14909   */\n      0x00\n        /* \"#utility.yul\":14927:14932   */\n      dup2\n        /* \"#utility.yul\":14920:14932   */\n      swap1\n      pop\n        /* \"#utility.yul\":14863:14938   */\n      swap2\n      swap1\n      pop\n      jump\t// out\n        /* \"#utility.yul\":14944:15213   */\n    tag_157:\n        /* \"#utility.yul\":15054:15093   */\n      tag_311\n        /* \"#utility.yul\":15085:15092   */\n      dup4\n        /* \"#utility.yul\":15054:15093   */\n      tag_155\n      jump\t// in\n    tag_311:\n        /* \"#utility.yul\":15115:15206   */\n      tag_312\n        /* \"#utility.yul\":15164:15205   */\n      tag_313\n        /* \"#utility.yul\":15188:15204   */\n      dup3\n        /* \"#utility.yul\":15164:15205   */\n      tag_156\n      jump\t// in\n    tag_313:\n        /* \"#utility.yul\":15156:15162   */\n      dup5\n        /* \"#utility.yul\":15149:15153   */\n      dup5\n        /* \"#utility.yul\":15143:15154   */\n      sload\n        /* \"#utility.yul\":15115:15206   */\n      tag_153\n      jump\t// in\n    tag_312:\n        /* \"#utility.yul\":15109:15113   */\n      dup3\n        /* \"#utility.yul\":15102:15207   */\n      sstore\n        /* \"#utility.yul\":15020:15213   */\n      pop\n        /* \"#utility.yul\":14944:15213   */\n      pop\n      pop\n      pop\n      jump\t// out\n        /* \"#utility.yul\":15219:15292   */\n    tag_158:\n        /* \"#utility.yul\":15264:15267   */\n      0x00\n        /* \"#utility.yul\":15219:15292   */\n      swap1\n      jump\t// out\n        /* \"#utility.yul\":15298:15487   */\n    tag_159:\n        /* \"#utility.yul\":15375:15407   */\n      tag_316\n      tag_158\n      jump\t// in\n    tag_316:\n        /* \"#utility.yul\":15416:15481   */\n      tag_317\n        /* \"#utility.yul\":15474:15480   */\n      dup2\n        /* \"#utility.yul\":15466:15472   */\n      dup5\n        /* \"#utility.yul\":15460:15464   */\n      dup5\n        /* \"#utility.yul\":15416:15481   */\n      tag_157\n      jump\t// in\n    tag_317:\n        /* \"#utility.yul\":15351:15487   */\n      pop\n        /* \"#utility.yul\":15298:15487   */\n      pop\n      pop\n      jump\t// out\n        /* \"#utility.yul\":15493:15679   */\n    tag_160:\n        /* \"#utility.yul\":15553:15673   */\n    tag_319:\n        /* \"#utility.yul\":15570:15573   */\n      dup2\n        /* \"#utility.yul\":15563:15568   */\n      dup2\n        /* \"#utility.yul\":15560:15574   */\n      lt\n        /* \"#utility.yul\":15553:15673   */\n      iszero\n      tag_321\n      jumpi\n        /* \"#utility.yul\":15624:15663   */\n      tag_322\n        /* \"#utility.yul\":15661:15662   */\n      0x00\n        /* \"#utility.yul\":15654:15659   */\n      dup3\n        /* \"#utility.yul\":15624:15663   */\n      tag_159\n      jump\t// in\n    tag_322:\n        /* \"#utility.yul\":15597:15598   */\n      0x01\n        /* \"#utility.yul\":15590:15595   */\n      dup2\n        /* \"#utility.yul\":15586:15599   */\n      add\n        /* \"#utility.yul\":15577:15599   */\n      swap1\n      pop\n        /* \"#utility.yul\":15553:15673   */\n      jump(tag_319)\n    tag_321:\n        /* \"#utility.yul\":15493:15679   */\n      pop\n      pop\n      jump\t// out\n        /* \"#utility.yul\":15685:16228   */\n    tag_161:\n        /* \"#utility.yul\":15786:15788   */\n      0x1f\n        /* \"#utility.yul\":15781:15784   */\n      dup3\n        /* \"#utility.yul\":15778:15789   */\n      gt\n        /* \"#utility.yul\":15775:16221   */\n      iszero\n      tag_324\n      jumpi\n        /* \"#utility.yul\":15820:15858   */\n      tag_325\n        /* \"#utility.yul\":15852:15857   */\n      dup2\n        /* \"#utility.yul\":15820:15858   */\n      tag_150\n      jump\t// in\n    tag_325:\n        /* \"#utility.yul\":15904:15933   */\n      tag_326\n        /* \"#utility.yul\":15922:15932   */\n      dup5\n        /* \"#utility.yul\":15904:15933   */\n      tag_151\n      jump\t// in\n    tag_326:\n        /* \"#utility.yul\":15894:15902   */\n      dup2\n        /* \"#utility.yul\":15890:15934   */\n      add\n        /* \"#utility.yul\":16087:16089   */\n      0x20\n        /* \"#utility.yul\":16075:16085   */\n      dup6\n        /* \"#utility.yul\":16072:16090   */\n      lt\n        /* \"#utility.yul\":16069:16118   */\n      iszero\n      tag_327\n      jumpi\n        /* \"#utility.yul\":16108:16116   */\n      dup2\n        /* \"#utility.yul\":16093:16116   */\n      swap1\n      pop\n        /* \"#utility.yul\":16069:16118   */\n    tag_327:\n        /* \"#utility.yul\":16131:16211   */\n      tag_328\n        /* \"#utility.yul\":16187:16209   */\n      tag_329\n        /* \"#utility.yul\":16205:16208   */\n      dup6\n        /* \"#utility.yul\":16187:16209   */\n      tag_151\n      jump\t// in\n    tag_329:\n        /* \"#utility.yul\":16177:16185   */\n      dup4\n        /* \"#utility.yul\":16173:16210   */\n      add\n        /* \"#utility.yul\":16160:16171   */\n      dup3\n        /* \"#utility.yul\":16131:16211   */\n      tag_160\n      jump\t// in\n    tag_328:\n        /* \"#utility.yul\":15790:16221   */\n      pop\n      pop\n        /* \"#utility.yul\":15775:16221   */\n    tag_324:\n        /* \"#utility.yul\":15685:16228   */\n      pop\n      pop\n      pop\n      jump\t// out\n        /* \"#utility.yul\":16234:16351   */\n    tag_162:\n        /* \"#utility.yul\":16288:16296   */\n      0x00\n        /* \"#utility.yul\":16338:16343   */\n      dup3\n        /* \"#utility.yul\":16332:16336   */\n      dup3\n        /* \"#utility.yul\":16328:16344   */\n      shr\n        /* \"#utility.yul\":16307:16344   */\n      swap1\n      pop\n        /* \"#utility.yul\":16234:16351   */\n      swap3\n      swap2\n      pop\n      pop\n      jump\t// out\n        /* \"#utility.yul\":16357:16526   */\n    tag_163:\n        /* \"#utility.yul\":16401:16407   */\n      0x00\n        /* \"#utility.yul\":16434:16485   */\n      tag_332\n        /* \"#utility.yul\":16482:16483   */\n      0x00\n        /* \"#utility.yul\":16478:16484   */\n      not\n        /* \"#utility.yul\":16470:16475   */\n      dup5\n        /* \"#utility.yul\":16467:16468   */\n      0x08\n        /* \"#utility.yul\":16463:16476   */\n      mul\n        /* \"#utility.yul\":16434:16485   */\n      tag_162\n      jump\t// in\n    tag_332:\n        /* \"#utility.yul\":16430:16486   */\n      not\n        /* \"#utility.yul\":16515:16519   */\n      dup1\n        /* \"#utility.yul\":16509:16513   */\n      dup4\n        /* \"#utility.yul\":16505:16520   */\n      and\n        /* \"#utility.yul\":16495:16520   */\n      swap2\n      pop\n        /* \"#utility.yul\":16408:16526   */\n      pop\n        /* \"#utility.yul\":16357:16526   */\n      swap3\n      swap2\n      pop\n      pop\n      jump\t// out\n        /* \"#utility.yul\":16531:16826   */\n    tag_164:\n        /* \"#utility.yul\":16607:16611   */\n      0x00\n        /* \"#utility.yul\":16753:16782   */\n      tag_334\n        /* \"#utility.yul\":16778:16781   */\n      dup4\n        /* \"#utility.yul\":16772:16776   */\n      dup4\n        /* \"#utility.yul\":16753:16782   */\n      tag_163\n      jump\t// in\n    tag_334:\n        /* \"#utility.yul\":16745:16782   */\n      swap2\n      pop\n        /* \"#utility.yul\":16815:16818   */\n      dup3\n        /* \"#utility.yul\":16812:16813   */\n      0x02\n        /* \"#utility.yul\":16808:16819   */\n      mul\n        /* \"#utility.yul\":16802:16806   */\n      dup3\n        /* \"#utility.yul\":16799:16820   */\n      or\n        /* \"#utility.yul\":16791:16820   */\n      swap1\n      pop\n        /* \"#utility.yul\":16531:16826   */\n      swap3\n      swap2\n      pop\n      pop\n      jump\t// out\n        /* \"#utility.yul\":16831:18282   */\n    tag_58:\n        /* \"#utility.yul\":16942:16945   */\n      dup2\n        /* \"#utility.yul\":16936:16940   */\n      dup2\n        /* \"#utility.yul\":16933:16946   */\n      sub\n        /* \"#utility.yul\":16930:16956   */\n      tag_336\n      jumpi\n        /* \"#utility.yul\":16949:16954   */\n      pop\n      pop\n      jump(tag_335)\n        /* \"#utility.yul\":16930:16956   */\n    tag_336:\n        /* \"#utility.yul\":16980:17014   */\n      tag_337\n        /* \"#utility.yul\":17010:17013   */\n      dup3\n        /* \"#utility.yul\":16980:17014   */\n      tag_149\n      jump\t// in\n    tag_337:\n        /* \"#utility.yul\":17079:17097   */\n      0xffffffffffffffff\n        /* \"#utility.yul\":17071:17077   */\n      dup2\n        /* \"#utility.yul\":17068:17098   */\n      gt\n        /* \"#utility.yul\":17065:17121   */\n      iszero\n      tag_338\n      jumpi\n        /* \"#utility.yul\":17101:17119   */\n      tag_339\n      tag_139\n      jump\t// in\n    tag_339:\n        /* \"#utility.yul\":17065:17121   */\n    tag_338:\n        /* \"#utility.yul\":17145:17183   */\n      tag_340\n        /* \"#utility.yul\":17177:17181   */\n      dup3\n        /* \"#utility.yul\":17171:17182   */\n      sload\n        /* \"#utility.yul\":17145:17183   */\n      tag_33\n      jump\t// in\n    tag_340:\n        /* \"#utility.yul\":17230:17297   */\n      tag_341\n        /* \"#utility.yul\":17290:17296   */\n      dup3\n        /* \"#utility.yul\":17282:17288   */\n      dup3\n        /* \"#utility.yul\":17276:17280   */\n      dup6\n        /* \"#utility.yul\":17230:17297   */\n      tag_161\n      jump\t// in\n    tag_341:\n        /* \"#utility.yul\":17324:17325   */\n      0x00\n        /* \"#utility.yul\":17353:17355   */\n      0x1f\n        /* \"#utility.yul\":17345:17351   */\n      dup4\n        /* \"#utility.yul\":17342:17356   */\n      gt\n        /* \"#utility.yul\":17370:17371   */\n      0x01\n        /* \"#utility.yul\":17365:18037   */\n      dup2\n      eq\n      tag_343\n      jumpi\n        /* \"#utility.yul\":18081:18082   */\n      0x00\n        /* \"#utility.yul\":18098:18104   */\n      dup5\n        /* \"#utility.yul\":18095:18172   */\n      iszero\n      tag_344\n      jumpi\n        /* \"#utility.yul\":18147:18156   */\n      dup3\n        /* \"#utility.yul\":18142:18145   */\n      dup8\n        /* \"#utility.yul\":18138:18157   */\n      add\n        /* \"#utility.yul\":18132:18158   */\n      sload\n        /* \"#utility.yul\":18123:18158   */\n      swap1\n      pop\n        /* \"#utility.yul\":18095:18172   */\n    tag_344:\n        /* \"#utility.yul\":18198:18265   */\n      tag_345\n        /* \"#utility.yul\":18258:18264   */\n      dup6\n        /* \"#utility.yul\":18251:18256   */\n      dup3\n        /* \"#utility.yul\":18198:18265   */\n      tag_164\n      jump\t// in\n    tag_345:\n        /* \"#utility.yul\":18192:18196   */\n      dup7\n        /* \"#utility.yul\":18185:18266   */\n      sstore\n        /* \"#utility.yul\":18054:18276   */\n      pop\n        /* \"#utility.yul\":17335:18276   */\n      jump(tag_342)\n        /* \"#utility.yul\":17365:18037   */\n    tag_343:\n        /* \"#utility.yul\":17417:17421   */\n      0x1f\n        /* \"#utility.yul\":17413:17422   */\n      not\n        /* \"#utility.yul\":17405:17411   */\n      dup5\n        /* \"#utility.yul\":17401:17423   */\n      and\n        /* \"#utility.yul\":17443:17479   */\n      tag_346\n        /* \"#utility.yul\":17475:17478   */\n      dup8\n        /* \"#utility.yul\":17443:17479   */\n      tag_150\n      jump\t// in\n    tag_346:\n        /* \"#utility.yul\":17436:17479   */\n      swap7\n      pop\n        /* \"#utility.yul\":17506:17543   */\n      tag_347\n        /* \"#utility.yul\":17538:17542   */\n      dup7\n        /* \"#utility.yul\":17506:17543   */\n      tag_150\n      jump\t// in\n    tag_347:\n        /* \"#utility.yul\":17565:17566   */\n      0x00\n        /* \"#utility.yul\":17579:17786   */\n    tag_348:\n        /* \"#utility.yul\":17593:17600   */\n      dup3\n        /* \"#utility.yul\":17590:17591   */\n      dup2\n        /* \"#utility.yul\":17587:17601   */\n      lt\n        /* \"#utility.yul\":17579:17786   */\n      iszero\n      tag_350\n      jumpi\n        /* \"#utility.yul\":17672:17681   */\n      dup5\n        /* \"#utility.yul\":17667:17670   */\n      dup10\n        /* \"#utility.yul\":17663:17682   */\n      add\n        /* \"#utility.yul\":17657:17683   */\n      sload\n        /* \"#utility.yul\":17649:17655   */\n      dup3\n        /* \"#utility.yul\":17642:17684   */\n      sstore\n        /* \"#utility.yul\":17723:17724   */\n      0x01\n        /* \"#utility.yul\":17715:17721   */\n      dup3\n        /* \"#utility.yul\":17711:17725   */\n      add\n        /* \"#utility.yul\":17701:17725   */\n      swap2\n      pop\n        /* \"#utility.yul\":17770:17771   */\n      0x01\n        /* \"#utility.yul\":17759:17768   */\n      dup6\n        /* \"#utility.yul\":17755:17772   */\n      add\n        /* \"#utility.yul\":17742:17772   */\n      swap5\n      pop\n        /* \"#utility.yul\":17616:17620   */\n      0x20\n        /* \"#utility.yul\":17613:17614   */\n      dup2\n        /* \"#utility.yul\":17609:17621   */\n      add\n        /* \"#utility.yul\":17604:17621   */\n      swap1\n      pop\n        /* \"#utility.yul\":17579:17786   */\n      jump(tag_348)\n    tag_350:\n        /* \"#utility.yul\":17814:17820   */\n      dup7\n        /* \"#utility.yul\":17805:17812   */\n      dup4\n        /* \"#utility.yul\":17802:17821   */\n      lt\n        /* \"#utility.yul\":17799:17978   */\n      iszero\n      tag_351\n      jumpi\n        /* \"#utility.yul\":17872:17881   */\n      dup5\n        /* \"#utility.yul\":17867:17870   */\n      dup10\n        /* \"#utility.yul\":17863:17882   */\n      add\n        /* \"#utility.yul\":17857:17883   */\n      sload\n        /* \"#utility.yul\":17915:17963   */\n      tag_352\n        /* \"#utility.yul\":17957:17961   */\n      0x1f\n        /* \"#utility.yul\":17949:17955   */\n      dup10\n        /* \"#utility.yul\":17945:17962   */\n      and\n        /* \"#utility.yul\":17934:17943   */\n      dup3\n        /* \"#utility.yul\":17915:17963   */\n      tag_163\n      jump\t// in\n    tag_352:\n        /* \"#utility.yul\":17907:17913   */\n      dup4\n        /* \"#utility.yul\":17900:17964   */\n      sstore\n        /* \"#utility.yul\":17822:17978   */\n      pop\n        /* \"#utility.yul\":17799:17978   */\n    tag_351:\n        /* \"#utility.yul\":18024:18025   */\n      0x01\n        /* \"#utility.yul\":18020:18021   */\n      0x02\n        /* \"#utility.yul\":18012:18018   */\n      dup9\n        /* \"#utility.yul\":18008:18022   */\n      mul\n        /* \"#utility.yul\":18004:18026   */\n      add\n        /* \"#utility.yul\":17998:18002   */\n      dup9\n        /* \"#utility.yul\":17991:18027   */\n      sstore\n        /* \"#utility.yul\":17372:18037   */\n      pop\n      pop\n      pop\n        /* \"#utility.yul\":17335:18276   */\n    tag_342:\n      pop\n        /* \"#utility.yul\":16920:18282   */\n      pop\n      pop\n      pop\n        /* \"#utility.yul\":16831:18282   */\n      pop\n      pop\n    tag_335:\n      jump\t// out\n        /* \"#utility.yul\":18288:18468   */\n    tag_165:\n        /* \"#utility.yul\":18336:18413   */\n      0x4e487b7100000000000000000000000000000000000000000000000000000000\n        /* \"#utility.yul\":18333:18334   */\n      0x00\n        /* \"#utility.yul\":18326:18414   */\n      mstore\n        /* \"#utility.yul\":18433:18437   */\n      0x11\n        /* \"#utility.yul\":18430:18431   */\n      0x04\n        /* \"#utility.yul\":18423:18438   */\n      mstore\n        /* \"#utility.yul\":18457:18461   */\n      0x24\n        /* \"#utility.yul\":18454:18455   */\n      0x00\n        /* \"#utility.yul\":18447:18462   */\n      revert\n        /* \"#utility.yul\":18474:18707   */\n    tag_101:\n        /* \"#utility.yul\":18513:18516   */\n      0x00\n        /* \"#utility.yul\":18536:18560   */\n      tag_355\n        /* \"#utility.yul\":18554:18559   */\n      dup3\n        /* \"#utility.yul\":18536:18560   */\n      tag_114\n      jump\t// in\n    tag_355:\n        /* \"#utility.yul\":18527:18560   */\n      swap2\n      pop\n        /* \"#utility.yul\":18582:18648   */\n      0xffffffffffffffffffffffffffffffffffffffffffffffffffffffffffffffff\n        /* \"#utility.yul\":18575:18580   */\n      dup3\n        /* \"#utility.yul\":18572:18649   */\n      sub\n        /* \"#utility.yul\":18569:18672   */\n      tag_356\n      jumpi\n        /* \"#utility.yul\":18652:18670   */\n      tag_357\n      tag_165\n      jump\t// in\n    tag_357:\n        /* \"#utility.yul\":18569:18672   */\n    tag_356:\n        /* \"#utility.yul\":18699:18700   */\n      0x01\n        /* \"#utility.yul\":18692:18697   */\n      dup3\n        /* \"#utility.yul\":18688:18701   */\n      add\n        /* \"#utility.yul\":18681:18701   */\n      swap1\n      pop\n        /* \"#utility.yul\":18474:18707   */\n      swap2\n      swap1\n      pop\n      jump\t// out\n        /* \"#utility.yul\":18713:20108   */\n    tag_104:\n        /* \"#utility.yul\":18830:18867   */\n      tag_359\n        /* \"#utility.yul\":18863:18866   */\n      dup3\n        /* \"#utility.yul\":18830:18867   */\n      tag_118\n      jump\t// in\n    tag_359:\n        /* \"#utility.yul\":18932:18950   */\n      0xffffffffffffffff\n        /* \"#utility.yul\":18924:18930   */\n      dup2\n        /* \"#utility.yul\":18921:18951   */\n      gt\n        /* \"#utility.yul\":18918:18974   */\n      iszero\n      tag_360\n      jumpi\n        /* \"#utility.yul\":18954:18972   */\n      tag_361\n      tag_139\n      jump\t// in\n    tag_361:\n        /* \"#utility.yul\":18918:18974   */\n    tag_360:\n        /* \"#utility.yul\":18998:19036   */\n      tag_362\n        /* \"#utility.yul\":19030:19034   */\n      dup3\n        /* \"#utility.yul\":19024:19035   */\n      sload\n        /* \"#utility.yul\":18998:19036   */\n      tag_33\n      jump\t// in\n    tag_362:\n        /* \"#utility.yul\":19083:19150   */\n      tag_363\n        /* \"#utility.yul\":19143:19149   */\n      dup3\n        /* \"#utility.yul\":19135:19141   */\n      dup3\n        /* \"#utility.yul\":19129:19133   */\n      dup6\n        /* \"#utility.yul\":19083:19150   */\n      tag_161\n      jump\t// in\n    tag_363:\n        /* \"#utility.yul\":19177:19178   */\n      0x00\n        /* \"#utility.yul\":19201:19205   */\n      0x20\n        /* \"#utility.yul\":19188:19205   */\n      swap1\n      pop\n        /* \"#utility.yul\":19233:19235   */\n      0x1f\n        /* \"#utility.yul\":19225:19231   */\n      dup4\n        /* \"#utility.yul\":19222:19236   */\n      gt\n        /* \"#utility.yul\":19250:19251   */\n      0x01\n        /* \"#utility.yul\":19245:19863   */\n      dup2\n      eq\n      tag_365\n      jumpi\n        /* \"#utility.yul\":19907:19908   */\n      0x00\n        /* \"#utility.yul\":19924:19930   */\n      dup5\n        /* \"#utility.yul\":19921:19998   */\n      iszero\n      tag_366\n      jumpi\n        /* \"#utility.yul\":19973:19982   */\n      dup3\n        /* \"#utility.yul\":19968:19971   */\n      dup8\n        /* \"#utility.yul\":19964:19983   */\n      add\n        /* \"#utility.yul\":19958:19984   */\n      mload\n        /* \"#utility.yul\":19949:19984   */\n      swap1\n      pop\n        /* \"#utility.yul\":19921:19998   */\n    tag_366:\n        /* \"#utility.yul\":20024:20091   */\n      tag_367\n        /* \"#utility.yul\":20084:20090   */\n      dup6\n        /* \"#utility.yul\":20077:20082   */\n      dup3\n        /* \"#utility.yul\":20024:20091   */\n      tag_164\n      jump\t// in\n    tag_367:\n        /* \"#utility.yul\":20018:20022   */\n      dup7\n        /* \"#utility.yul\":20011:20092   */\n      sstore\n        /* \"#utility.yul\":19880:20102   */\n      pop\n        /* \"#utility.yul\":19215:20102   */\n      jump(tag_364)\n        /* \"#utility.yul\":19245:19863   */\n    tag_365:\n        /* \"#utility.yul\":19297:19301   */\n      0x1f\n        /* \"#utility.yul\":19293:19302   */\n      not\n        /* \"#utility.yul\":19285:19291   */\n      dup5\n        /* \"#utility.yul\":19281:19303   */\n      and\n        /* \"#utility.yul\":19331:19368   */\n      tag_368\n        /* \"#utility.yul\":19363:19367   */\n      dup7\n        /* \"#utility.yul\":19331:19368   */\n      tag_150\n      jump\t// in\n    tag_368:\n        /* \"#utility.yul\":19390:19391   */\n      0x00\n        /* \"#utility.yul\":19404:19612   */\n    tag_369:\n        /* \"#utility.yul\":19418:19425   */\n      dup3\n        /* \"#utility.yul\":19415:19416   */\n      dup2\n        /* \"#utility.yul\":19412:19426   */\n      lt\n        /* \"#utility.yul\":19404:19612   */\n      iszero\n      tag_371\n      jumpi\n        /* \"#utility.yul\":19497:19506   */\n      dup5\n        /* \"#utility.yul\":19492:19495   */\n      dup10\n        /* \"#utility.yul\":19488:19507   */\n      add\n        /* \"#utility.yul\":19482:19508   */\n      mload\n        /* \"#utility.yul\":19474:19480   */\n      dup3\n        /* \"#utility.yul\":19467:19509   */\n      sstore\n        /* \"#utility.yul\":19548:19549   */\n      0x01\n        /* \"#utility.yul\":19540:19546   */\n      dup3\n        /* \"#utility.yul\":19536:19550   */\n      add\n        /* \"#utility.yul\":19526:19550   */\n      swap2\n      pop\n        /* \"#utility.yul\":19595:19597   */\n      0x20\n        /* \"#utility.yul\":19584:19593   */\n      dup6\n        /* \"#utility.yul\":19580:19598   */\n      add\n        /* \"#utility.yul\":19567:19598   */\n      swap5\n      pop\n        /* \"#utility.yul\":19441:19445   */\n      0x20\n        /* \"#utility.yul\":19438:19439   */\n      dup2\n        /* \"#utility.yul\":19434:19446   */\n      add\n        /* \"#utility.yul\":19429:19446   */\n      swap1\n      pop\n        /* \"#utility.yul\":19404:19612   */\n      jump(tag_369)\n    tag_371:\n        /* \"#utility.yul\":19640:19646   */\n      dup7\n        /* \"#utility.yul\":19631:19638   */\n      dup4\n        /* \"#utility.yul\":19628:19647   */\n      lt\n        /* \"#utility.yul\":19625:19804   */\n      iszero\n      tag_372\n      jumpi\n        /* \"#utility.yul\":19698:19707   */\n      dup5\n        /* \"#utility.yul\":19693:19696   */\n      dup10\n        /* \"#utility.yul\":19689:19708   */\n      add\n        /* \"#utility.yul\":19683:19709   */\n      mload\n        /* \"#utility.yul\":19741:19789   */\n      tag_373\n        /* \"#utility.yul\":19783:19787   */\n      0x1f\n        /* \"#utility.yul\":19775:19781   */\n      dup10\n        /* \"#utility.yul\":19771:19788   */\n      and\n        /* \"#utility.yul\":19760:19769   */\n      dup3\n        /* \"#utility.yul\":19741:19789   */\n      tag_163\n      jump\t// in\n    tag_373:\n        /* \"#utility.yul\":19733:19739   */\n      dup4\n        /* \"#utility.yul\":19726:19790   */\n      sstore\n        /* \"#utility.yul\":19648:19804   */\n      pop\n        /* \"#utility.yul\":19625:19804   */\n    tag_372:\n        /* \"#utility.yul\":19850:19851   */\n      0x01\n        /* \"#utility.yul\":19846:19847   */\n      0x02\n        /* \"#utility.yul\":19838:19844   */\n      dup9\n        /* \"#utility.yul\":19834:19848   */\n      mul\n        /* \"#utility.yul\":19830:19852   */\n      add\n        /* \"#utility.yul\":19824:19828   */\n      dup9\n        /* \"#utility.yul\":19817:19853   */\n      sstore\n        /* \"#utility.yul\":19252:19863   */\n      pop\n      pop\n      pop\n        /* \"#utility.yul\":19215:20102   */\n    tag_364:\n      pop\n        /* \"#utility.yul\":18805:20108   */\n      pop\n      pop\n      pop\n        /* \"#utility.yul\":18713:20108   */\n      pop\n      pop\n      jump\t// out\n\n    auxdata: 0xa26469706673582212202f1bb5b2349b12529a0571331d1842ff92165a6baa3856880dffff52f32a18d164736f6c634300080f0033\n}\n",
				"bytecode": {
					"linkReferences": {},
					"object": "608060405234801561001057600080fd5b506118bf806100206000396000f3fe608060405234801561001057600080fd5b50600436106100575760003560e01c806380c9419e1461005c57806382e4081314610093578063904cc175146100af578063942b765a146100df578063a97af4d5146100fd575b600080fd5b61007660048036038101906100719190610e28565b610119565b60405161008a989796959493929190610f3e565b60405180910390f35b6100ad60048036038101906100a89190610fd1565b610349565b005b6100c960048036038101906100c49190610e28565b610502565b6040516100d691906111f9565b60405180910390f35b6100e76107f5565b6040516100f491906111f9565b60405180910390f35b6101176004803603810190610112919061137c565b610ad5565b005b6001818154811061012957600080fd5b906000526020600020906008020160009150905080600001549080600101805461015290611436565b80601f016020809104026020016040519081016040528092919081815260200182805461017e90611436565b80156101cb5780601f106101a0576101008083540402835291602001916101cb565b820191906000526020600020905b8154815290600101906020018083116101ae57829003601f168201915b5050505050908060020154908060030160009054906101000a900473ffffffffffffffffffffffffffffffffffffffff16908060040160009054906101000a900473ffffffffffffffffffffffffffffffffffffffff169080600501549080600601805461023890611436565b80601f016020809104026020016040519081016040528092919081815260200182805461026490611436565b80156102b15780601f10610286576101008083540402835291602001916102b1565b820191906000526020600020905b81548152906001019060200180831161029457829003601f168201915b5050505050908060070180546102c690611436565b80601f01602080910402602001604051908101604052809291908181526020018280546102f290611436565b801561033f5780601f106103145761010080835404028352916020019161033f565b820191906000526020600020905b81548152906001019060200180831161032257829003601f168201915b5050505050905088565b806001838154811061035e5761035d611467565b5b906000526020600020906008020160020181905550600260008281526020019081526020016000206001838154811061039a57610399611467565b5b9060005260206000209060080201908060018154018082558091505060019003906000526020600020906008020160009091909190915060008201548160000155600182018160010190816103ef9190611658565b50600282015481600201556003820160009054906101000a900473ffffffffffffffffffffffffffffffffffffffff168160030160006101000a81548173ffffffffffffffffffffffffffffffffffffffff021916908373ffffffffffffffffffffffffffffffffffffffff1602179055506004820160009054906101000a900473ffffffffffffffffffffffffffffffffffffffff168160040160006101000a81548173ffffffffffffffffffffffffffffffffffffffff021916908373ffffffffffffffffffffffffffffffffffffffff16021790555060058201548160050155600682018160060190816104e69190611658565b50600782018160070190816104fb9190611658565b5050505050565b606060026000838152602001908152602001600020805480602002602001604051908101604052809291908181526020016000905b828210156107ea5783829060005260206000209060080201604051806101000160405290816000820154815260200160018201805461057590611436565b80601f01602080910402602001604051908101604052809291908181526020018280546105a190611436565b80156105ee5780601f106105c3576101008083540402835291602001916105ee565b820191906000526020600020905b8154815290600101906020018083116105d157829003601f168201915b50505050508152602001600282015481526020016003820160009054906101000a900473ffffffffffffffffffffffffffffffffffffffff1673ffffffffffffffffffffffffffffffffffffffff1673ffffffffffffffffffffffffffffffffffffffff1681526020016004820160009054906101000a900473ffffffffffffffffffffffffffffffffffffffff1673ffffffffffffffffffffffffffffffffffffffff1673ffffffffffffffffffffffffffffffffffffffff168152602001600582015481526020016006820180546106c790611436565b80601f01602080910402602001604051908101604052809291908181526020018280546106f390611436565b80156107405780601f1061071557610100808354040283529160200191610740565b820191906000526020600020905b81548152906001019060200180831161072357829003601f168201915b5050505050815260200160078201805461075990611436565b80601f016020809104026020016040519081016040528092919081815260200182805461078590611436565b80156107d25780601f106107a7576101008083540402835291602001916107d2565b820191906000526020600020905b8154815290600101906020018083116107b557829003601f168201915b50505050508152505081526020019060010190610537565b505050509050919050565b60606001805480602002602001604051908101604052809291908181526020016000905b82821015610acc5783829060005260206000209060080201604051806101000160405290816000820154815260200160018201805461085790611436565b80601f016020809104026020016040519081016040528092919081815260200182805461088390611436565b80156108d05780601f106108a5576101008083540402835291602001916108d0565b820191906000526020600020905b8154815290600101906020018083116108b357829003601f168201915b50505050508152602001600282015481526020016003820160009054906101000a900473ffffffffffffffffffffffffffffffffffffffff1673ffffffffffffffffffffffffffffffffffffffff1673ffffffffffffffffffffffffffffffffffffffff1681526020016004820160009054906101000a900473ffffffffffffffffffffffffffffffffffffffff1673ffffffffffffffffffffffffffffffffffffffff1673ffffffffffffffffffffffffffffffffffffffff168152602001600582015481526020016006820180546109a990611436565b80601f01602080910402602001604051908101604052809291908181526020018280546109d590611436565b8015610a225780601f106109f757610100808354040283529160200191610a22565b820191906000526020600020905b815481529060010190602001808311610a0557829003601f168201915b50505050508152602001600782018054610a3b90611436565b80601f0160208091040260200160405190810160405280929190818152602001828054610a6790611436565b8015610ab45780601f10610a8957610100808354040283529160200191610ab4565b820191906000526020600020905b815481529060010190602001808311610a9757829003601f168201915b50505050508152505081526020019060010190610819565b50505050905090565b600080815480929190610ae79061176f565b919050555060006040518061010001604052806000548152602001858152602001600081526020013373ffffffffffffffffffffffffffffffffffffffff1681526020018473ffffffffffffffffffffffffffffffffffffffff168152602001600081526020018381526020016040518060400160405280600181526020017f300000000000000000000000000000000000000000000000000000000000000081525081525090506001819080600181540180825580915050600190039060005260206000209060080201600090919091909150600082015181600001556020820151816001019081610bda91906117b7565b506040820151816002015560608201518160030160006101000a81548173ffffffffffffffffffffffffffffffffffffffff021916908373ffffffffffffffffffffffffffffffffffffffff16021790555060808201518160040160006101000a81548173ffffffffffffffffffffffffffffffffffffffff021916908373ffffffffffffffffffffffffffffffffffffffff16021790555060a0820151816005015560c0820151816006019081610c9291906117b7565b5060e0820151816007019081610ca891906117b7565b50505060026000808152602001908152602001600020819080600181540180825580915050600190039060005260206000209060080201600090919091909150600082015181600001556020820151816001019081610d0791906117b7565b506040820151816002015560608201518160030160006101000a81548173ffffffffffffffffffffffffffffffffffffffff021916908373ffffffffffffffffffffffffffffffffffffffff16021790555060808201518160040160006101000a81548173ffffffffffffffffffffffffffffffffffffffff021916908373ffffffffffffffffffffffffffffffffffffffff16021790555060a0820151816005015560c0820151816006019081610dbf91906117b7565b5060e0820151816007019081610dd591906117b7565b50505050505050565b6000604051905090565b600080fd5b600080fd5b6000819050919050565b610e0581610df2565b8114610e1057600080fd5b50565b600081359050610e2281610dfc565b92915050565b600060208284031215610e3e57610e3d610de8565b5b6000610e4c84828501610e13565b91505092915050565b610e5e81610df2565b82525050565b600081519050919050565b600082825260208201905092915050565b60005b83811015610e9e578082015181840152602081019050610e83565b83811115610ead576000848401525b50505050565b6000601f19601f8301169050919050565b6000610ecf82610e64565b610ed98185610e6f565b9350610ee9818560208601610e80565b610ef281610eb3565b840191505092915050565b600073ffffffffffffffffffffffffffffffffffffffff82169050919050565b6000610f2882610efd565b9050919050565b610f3881610f1d565b82525050565b600061010082019050610f54600083018b610e55565b8181036020830152610f66818a610ec4565b9050610f756040830189610e55565b610f826060830188610f2f565b610f8f6080830187610f2f565b610f9c60a0830186610e55565b81810360c0830152610fae8185610ec4565b905081810360e0830152610fc28184610ec4565b90509998505050505050505050565b60008060408385031215610fe857610fe7610de8565b5b6000610ff685828601610e13565b925050602061100785828601610e13565b9150509250929050565b600081519050919050565b600082825260208201905092915050565b6000819050602082019050919050565b61104681610df2565b82525050565b600082825260208201905092915050565b600061106882610e64565b611072818561104c565b9350611082818560208601610e80565b61108b81610eb3565b840191505092915050565b61109f81610f1d565b82525050565b6000610100830160008301516110be600086018261103d565b50602083015184820360208601526110d6828261105d565b91505060408301516110eb604086018261103d565b5060608301516110fe6060860182611096565b5060808301516111116080860182611096565b5060a083015161112460a086018261103d565b5060c083015184820360c086015261113c828261105d565b91505060e083015184820360e0860152611156828261105d565b9150508091505092915050565b600061116f83836110a5565b905092915050565b6000602082019050919050565b600061118f82611011565b611199818561101c565b9350836020820285016111ab8561102d565b8060005b858110156111e757848403895281516111c88582611163565b94506111d383611177565b925060208a019950506001810190506111af565b50829750879550505050505092915050565b600060208201905081810360008301526112138184611184565b905092915050565b600080fd5b600080fd5b7f4e487b7100000000000000000000000000000000000000000000000000000000600052604160045260246000fd5b61125d82610eb3565b810181811067ffffffffffffffff8211171561127c5761127b611225565b5b80604052505050565b600061128f610dde565b905061129b8282611254565b919050565b600067ffffffffffffffff8211156112bb576112ba611225565b5b6112c482610eb3565b9050602081019050919050565b82818337600083830152505050565b60006112f36112ee846112a0565b611285565b90508281526020810184848401111561130f5761130e611220565b5b61131a8482856112d1565b509392505050565b600082601f8301126113375761133661121b565b5b81356113478482602086016112e0565b91505092915050565b61135981610f1d565b811461136457600080fd5b50565b60008135905061137681611350565b92915050565b60008060006060848603121561139557611394610de8565b5b600084013567ffffffffffffffff8111156113b3576113b2610ded565b5b6113bf86828701611322565b93505060206113d086828701611367565b925050604084013567ffffffffffffffff8111156113f1576113f0610ded565b5b6113fd86828701611322565b9150509250925092565b7f4e487b7100000000000000000000000000000000000000000000000000000000600052602260045260246000fd5b6000600282049050600182168061144e57607f821691505b60208210810361146157611460611407565b5b50919050565b7f4e487b7100000000000000000000000000000000000000000000000000000000600052603260045260246000fd5b6000815490506114a581611436565b9050919050565b60008190508160005260206000209050919050565b60006020601f8301049050919050565b600082821b905092915050565b60006008830261150e7fffffffffffffffffffffffffffffffffffffffffffffffffffffffffffffffff826114d1565b61151886836114d1565b95508019841693508086168417925050509392505050565b6000819050919050565b600061155561155061154b84610df2565b611530565b610df2565b9050919050565b6000819050919050565b61156f8361153a565b61158361157b8261155c565b8484546114de565b825550505050565b600090565b61159861158b565b6115a3818484611566565b505050565b5b818110156115c7576115bc600082611590565b6001810190506115a9565b5050565b601f82111561160c576115dd816114ac565b6115e6846114c1565b810160208510156115f5578190505b611609611601856114c1565b8301826115a8565b50505b505050565b600082821c905092915050565b600061162f60001984600802611611565b1980831691505092915050565b6000611648838361161e565b9150826002028217905092915050565b81810361166657505061173e565b61166f82611496565b67ffffffffffffffff81111561168857611687611225565b5b6116928254611436565b61169d8282856115cb565b6000601f8311600181146116cc57600084156116ba578287015490505b6116c4858261163c565b865550611737565b601f1984166116da876114ac565b96506116e5866114ac565b60005b8281101561170d578489015482556001820191506001850194506020810190506116e8565b8683101561172a5784890154611726601f89168261161e565b8355505b6001600288020188555050505b5050505050505b565b7f4e487b7100000000000000000000000000000000000000000000000000000000600052601160045260246000fd5b600061177a82610df2565b91507fffffffffffffffffffffffffffffffffffffffffffffffffffffffffffffffff82036117ac576117ab611740565b5b600182019050919050565b6117c082610e64565b67ffffffffffffffff8111156117d9576117d8611225565b5b6117e38254611436565b6117ee8282856115cb565b600060209050601f831160018114611821576000841561180f578287015190505b611819858261163c565b865550611881565b601f19841661182f866114ac565b60005b8281101561185757848901518255600182019150602085019450602081019050611832565b868310156118745784890151611870601f89168261161e565b8355505b6001600288020188555050505b50505050505056fea26469706673582212202f1bb5b2349b12529a0571331d1842ff92165a6baa3856880dffff52f32a18d164736f6c634300080f0033",
					"opcodes": "PUSH1 0x80 PUSH1 0x40 MSTORE CALLVALUE DUP1 ISZERO PUSH2 0x10 JUMPI PUSH1 0x0 DUP1 REVERT JUMPDEST POP PUSH2 0x18BF DUP1 PUSH2 0x20 PUSH1 0x0 CODECOPY PUSH1 0x0 RETURN INVALID PUSH1 0x80 PUSH1 0x40 MSTORE CALLVALUE DUP1 ISZERO PUSH2 0x10 JUMPI PUSH1 0x0 DUP1 REVERT JUMPDEST POP PUSH1 0x4 CALLDATASIZE LT PUSH2 0x57 JUMPI PUSH1 0x0 CALLDATALOAD PUSH1 0xE0 SHR DUP1 PUSH4 0x80C9419E EQ PUSH2 0x5C JUMPI DUP1 PUSH4 0x82E40813 EQ PUSH2 0x93 JUMPI DUP1 PUSH4 0x904CC175 EQ PUSH2 0xAF JUMPI DUP1 PUSH4 0x942B765A EQ PUSH2 0xDF JUMPI DUP1 PUSH4 0xA97AF4D5 EQ PUSH2 0xFD JUMPI JUMPDEST PUSH1 0x0 DUP1 REVERT JUMPDEST PUSH2 0x76 PUSH1 0x4 DUP1 CALLDATASIZE SUB DUP2 ADD SWAP1 PUSH2 0x71 SWAP2 SWAP1 PUSH2 0xE28 JUMP JUMPDEST PUSH2 0x119 JUMP JUMPDEST PUSH1 0x40 MLOAD PUSH2 0x8A SWAP9 SWAP8 SWAP7 SWAP6 SWAP5 SWAP4 SWAP3 SWAP2 SWAP1 PUSH2 0xF3E JUMP JUMPDEST PUSH1 0x40 MLOAD DUP1 SWAP2 SUB SWAP1 RETURN JUMPDEST PUSH2 0xAD PUSH1 0x4 DUP1 CALLDATASIZE SUB DUP2 ADD SWAP1 PUSH2 0xA8 SWAP2 SWAP1 PUSH2 0xFD1 JUMP JUMPDEST PUSH2 0x349 JUMP JUMPDEST STOP JUMPDEST PUSH2 0xC9 PUSH1 0x4 DUP1 CALLDATASIZE SUB DUP2 ADD SWAP1 PUSH2 0xC4 SWAP2 SWAP1 PUSH2 0xE28 JUMP JUMPDEST PUSH2 0x502 JUMP JUMPDEST PUSH1 0x40 MLOAD PUSH2 0xD6 SWAP2 SWAP1 PUSH2 0x11F9 JUMP JUMPDEST PUSH1 0x40 MLOAD DUP1 SWAP2 SUB SWAP1 RETURN JUMPDEST PUSH2 0xE7 PUSH2 0x7F5 JUMP JUMPDEST PUSH1 0x40 MLOAD PUSH2 0xF4 SWAP2 SWAP1 PUSH2 0x11F9 JUMP JUMPDEST PUSH1 0x40 MLOAD DUP1 SWAP2 SUB SWAP1 RETURN JUMPDEST PUSH2 0x117 PUSH1 0x4 DUP1 CALLDATASIZE SUB DUP2 ADD SWAP1 PUSH2 0x112 SWAP2 SWAP1 PUSH2 0x137C JUMP JUMPDEST PUSH2 0xAD5 JUMP JUMPDEST STOP JUMPDEST PUSH1 0x1 DUP2 DUP2 SLOAD DUP2 LT PUSH2 0x129 JUMPI PUSH1 0x0 DUP1 REVERT JUMPDEST SWAP1 PUSH1 0x0 MSTORE PUSH1 0x20 PUSH1 0x0 KECCAK256 SWAP1 PUSH1 0x8 MUL ADD PUSH1 0x0 SWAP2 POP SWAP1 POP DUP1 PUSH1 0x0 ADD SLOAD SWAP1 DUP1 PUSH1 0x1 ADD DUP1 SLOAD PUSH2 0x152 SWAP1 PUSH2 0x1436 JUMP JUMPDEST DUP1 PUSH1 0x1F ADD PUSH1 0x20 DUP1 SWAP2 DIV MUL PUSH1 0x20 ADD PUSH1 0x40 MLOAD SWAP1 DUP2 ADD PUSH1 0x40 MSTORE DUP1 SWAP3 SWAP2 SWAP1 DUP2 DUP2 MSTORE PUSH1 0x20 ADD DUP3 DUP1 SLOAD PUSH2 0x17E SWAP1 PUSH2 0x1436 JUMP JUMPDEST DUP1 ISZERO PUSH2 0x1CB JUMPI DUP1 PUSH1 0x1F LT PUSH2 0x1A0 JUMPI PUSH2 0x100 DUP1 DUP4 SLOAD DIV MUL DUP4 MSTORE SWAP2 PUSH1 0x20 ADD SWAP2 PUSH2 0x1CB JUMP JUMPDEST DUP3 ADD SWAP2 SWAP1 PUSH1 0x0 MSTORE PUSH1 0x20 PUSH1 0x0 KECCAK256 SWAP1 JUMPDEST DUP2 SLOAD DUP2 MSTORE SWAP1 PUSH1 0x1 ADD SWAP1 PUSH1 0x20 ADD DUP1 DUP4 GT PUSH2 0x1AE JUMPI DUP3 SWAP1 SUB PUSH1 0x1F AND DUP3 ADD SWAP2 JUMPDEST POP POP POP POP POP SWAP1 DUP1 PUSH1 0x2 ADD SLOAD SWAP1 DUP1 PUSH1 0x3 ADD PUSH1 0x0 SWAP1 SLOAD SWAP1 PUSH2 0x100 EXP SWAP1 DIV PUSH20 0xFFFFFFFFFFFFFFFFFFFFFFFFFFFFFFFFFFFFFFFF AND SWAP1 DUP1 PUSH1 0x4 ADD PUSH1 0x0 SWAP1 SLOAD SWAP1 PUSH2 0x100 EXP SWAP1 DIV PUSH20 0xFFFFFFFFFFFFFFFFFFFFFFFFFFFFFFFFFFFFFFFF AND SWAP1 DUP1 PUSH1 0x5 ADD SLOAD SWAP1 DUP1 PUSH1 0x6 ADD DUP1 SLOAD PUSH2 0x238 SWAP1 PUSH2 0x1436 JUMP JUMPDEST DUP1 PUSH1 0x1F ADD PUSH1 0x20 DUP1 SWAP2 DIV MUL PUSH1 0x20 ADD PUSH1 0x40 MLOAD SWAP1 DUP2 ADD PUSH1 0x40 MSTORE DUP1 SWAP3 SWAP2 SWAP1 DUP2 DUP2 MSTORE PUSH1 0x20 ADD DUP3 DUP1 SLOAD PUSH2 0x264 SWAP1 PUSH2 0x1436 JUMP JUMPDEST DUP1 ISZERO PUSH2 0x2B1 JUMPI DUP1 PUSH1 0x1F LT PUSH2 0x286 JUMPI PUSH2 0x100 DUP1 DUP4 SLOAD DIV MUL DUP4 MSTORE SWAP2 PUSH1 0x20 ADD SWAP2 PUSH2 0x2B1 JUMP JUMPDEST DUP3 ADD SWAP2 SWAP1 PUSH1 0x0 MSTORE PUSH1 0x20 PUSH1 0x0 KECCAK256 SWAP1 JUMPDEST DUP2 SLOAD DUP2 MSTORE SWAP1 PUSH1 0x1 ADD SWAP1 PUSH1 0x20 ADD DUP1 DUP4 GT PUSH2 0x294 JUMPI DUP3 SWAP1 SUB PUSH1 0x1F AND DUP3 ADD SWAP2 JUMPDEST POP POP POP POP POP SWAP1 DUP1 PUSH1 0x7 ADD DUP1 SLOAD PUSH2 0x2C6 SWAP1 PUSH2 0x1436 JUMP JUMPDEST DUP1 PUSH1 0x1F ADD PUSH1 0x20 DUP1 SWAP2 DIV MUL PUSH1 0x20 ADD PUSH1 0x40 MLOAD SWAP1 DUP2 ADD PUSH1 0x40 MSTORE DUP1 SWAP3 SWAP2 SWAP1 DUP2 DUP2 MSTORE PUSH1 0x20 ADD DUP3 DUP1 SLOAD PUSH2 0x2F2 SWAP1 PUSH2 0x1436 JUMP JUMPDEST DUP1 ISZERO PUSH2 0x33F JUMPI DUP1 PUSH1 0x1F LT PUSH2 0x314 JUMPI PUSH2 0x100 DUP1 DUP4 SLOAD DIV MUL DUP4 MSTORE SWAP2 PUSH1 0x20 ADD SWAP2 PUSH2 0x33F JUMP JUMPDEST DUP3 ADD SWAP2 SWAP1 PUSH1 0x0 MSTORE PUSH1 0x20 PUSH1 0x0 KECCAK256 SWAP1 JUMPDEST DUP2 SLOAD DUP2 MSTORE SWAP1 PUSH1 0x1 ADD SWAP1 PUSH1 0x20 ADD DUP1 DUP4 GT PUSH2 0x322 JUMPI DUP3 SWAP1 SUB PUSH1 0x1F AND DUP3 ADD SWAP2 JUMPDEST POP POP POP POP POP SWAP1 POP DUP9 JUMP JUMPDEST DUP1 PUSH1 0x1 DUP4 DUP2 SLOAD DUP2 LT PUSH2 0x35E JUMPI PUSH2 0x35D PUSH2 0x1467 JUMP JUMPDEST JUMPDEST SWAP1 PUSH1 0x0 MSTORE PUSH1 0x20 PUSH1 0x0 KECCAK256 SWAP1 PUSH1 0x8 MUL ADD PUSH1 0x2 ADD DUP2 SWAP1 SSTORE POP PUSH1 0x2 PUSH1 0x0 DUP3 DUP2 MSTORE PUSH1 0x20 ADD SWAP1 DUP2 MSTORE PUSH1 0x20 ADD PUSH1 0x0 KECCAK256 PUSH1 0x1 DUP4 DUP2 SLOAD DUP2 LT PUSH2 0x39A JUMPI PUSH2 0x399 PUSH2 0x1467 JUMP JUMPDEST JUMPDEST SWAP1 PUSH1 0x0 MSTORE PUSH1 0x20 PUSH1 0x0 KECCAK256 SWAP1 PUSH1 0x8 MUL ADD SWAP1 DUP1 PUSH1 0x1 DUP2 SLOAD ADD DUP1 DUP3 SSTORE DUP1 SWAP2 POP POP PUSH1 0x1 SWAP1 SUB SWAP1 PUSH1 0x0 MSTORE PUSH1 0x20 PUSH1 0x0 KECCAK256 SWAP1 PUSH1 0x8 MUL ADD PUSH1 0x0 SWAP1 SWAP2 SWAP1 SWAP2 SWAP1 SWAP2 POP PUSH1 0x0 DUP3 ADD SLOAD DUP2 PUSH1 0x0 ADD SSTORE PUSH1 0x1 DUP3 ADD DUP2 PUSH1 0x1 ADD SWAP1 DUP2 PUSH2 0x3EF SWAP2 SWAP1 PUSH2 0x1658 JUMP JUMPDEST POP PUSH1 0x2 DUP3 ADD SLOAD DUP2 PUSH1 0x2 ADD SSTORE PUSH1 0x3 DUP3 ADD PUSH1 0x0 SWAP1 SLOAD SWAP1 PUSH2 0x100 EXP SWAP1 DIV PUSH20 0xFFFFFFFFFFFFFFFFFFFFFFFFFFFFFFFFFFFFFFFF AND DUP2 PUSH1 0x3 ADD PUSH1 0x0 PUSH2 0x100 EXP DUP2 SLOAD DUP2 PUSH20 0xFFFFFFFFFFFFFFFFFFFFFFFFFFFFFFFFFFFFFFFF MUL NOT AND SWAP1 DUP4 PUSH20 0xFFFFFFFFFFFFFFFFFFFFFFFFFFFFFFFFFFFFFFFF AND MUL OR SWAP1 SSTORE POP PUSH1 0x4 DUP3 ADD PUSH1 0x0 SWAP1 SLOAD SWAP1 PUSH2 0x100 EXP SWAP1 DIV PUSH20 0xFFFFFFFFFFFFFFFFFFFFFFFFFFFFFFFFFFFFFFFF AND DUP2 PUSH1 0x4 ADD PUSH1 0x0 PUSH2 0x100 EXP DUP2 SLOAD DUP2 PUSH20 0xFFFFFFFFFFFFFFFFFFFFFFFFFFFFFFFFFFFFFFFF MUL NOT AND SWAP1 DUP4 PUSH20 0xFFFFFFFFFFFFFFFFFFFFFFFFFFFFFFFFFFFFFFFF AND MUL OR SWAP1 SSTORE POP PUSH1 0x5 DUP3 ADD SLOAD DUP2 PUSH1 0x5 ADD SSTORE PUSH1 0x6 DUP3 ADD DUP2 PUSH1 0x6 ADD SWAP1 DUP2 PUSH2 0x4E6 SWAP2 SWAP1 PUSH2 0x1658 JUMP JUMPDEST POP PUSH1 0x7 DUP3 ADD DUP2 PUSH1 0x7 ADD SWAP1 DUP2 PUSH2 0x4FB SWAP2 SWAP1 PUSH2 0x1658 JUMP JUMPDEST POP POP POP POP POP JUMP JUMPDEST PUSH1 0x60 PUSH1 0x2 PUSH1 0x0 DUP4 DUP2 MSTORE PUSH1 0x20 ADD SWAP1 DUP2 MSTORE PUSH1 0x20 ADD PUSH1 0x0 KECCAK256 DUP1 SLOAD DUP1 PUSH1 0x20 MUL PUSH1 0x20 ADD PUSH1 0x40 MLOAD SWAP1 DUP2 ADD PUSH1 0x40 MSTORE DUP1 SWAP3 SWAP2 SWAP1 DUP2 DUP2 MSTORE PUSH1 0x20 ADD PUSH1 0x0 SWAP1 JUMPDEST DUP3 DUP3 LT ISZERO PUSH2 0x7EA JUMPI DUP4 DUP3 SWAP1 PUSH1 0x0 MSTORE PUSH1 0x20 PUSH1 0x0 KECCAK256 SWAP1 PUSH1 0x8 MUL ADD PUSH1 0x40 MLOAD DUP1 PUSH2 0x100 ADD PUSH1 0x40 MSTORE SWAP1 DUP2 PUSH1 0x0 DUP3 ADD SLOAD DUP2 MSTORE PUSH1 0x20 ADD PUSH1 0x1 DUP3 ADD DUP1 SLOAD PUSH2 0x575 SWAP1 PUSH2 0x1436 JUMP JUMPDEST DUP1 PUSH1 0x1F ADD PUSH1 0x20 DUP1 SWAP2 DIV MUL PUSH1 0x20 ADD PUSH1 0x40 MLOAD SWAP1 DUP2 ADD PUSH1 0x40 MSTORE DUP1 SWAP3 SWAP2 SWAP1 DUP2 DUP2 MSTORE PUSH1 0x20 ADD DUP3 DUP1 SLOAD PUSH2 0x5A1 SWAP1 PUSH2 0x1436 JUMP JUMPDEST DUP1 ISZERO PUSH2 0x5EE JUMPI DUP1 PUSH1 0x1F LT PUSH2 0x5C3 JUMPI PUSH2 0x100 DUP1 DUP4 SLOAD DIV MUL DUP4 MSTORE SWAP2 PUSH1 0x20 ADD SWAP2 PUSH2 0x5EE JUMP JUMPDEST DUP3 ADD SWAP2 SWAP1 PUSH1 0x0 MSTORE PUSH1 0x20 PUSH1 0x0 KECCAK256 SWAP1 JUMPDEST DUP2 SLOAD DUP2 MSTORE SWAP1 PUSH1 0x1 ADD SWAP1 PUSH1 0x20 ADD DUP1 DUP4 GT PUSH2 0x5D1 JUMPI DUP3 SWAP1 SUB PUSH1 0x1F AND DUP3 ADD SWAP2 JUMPDEST POP POP POP POP POP DUP2 MSTORE PUSH1 0x20 ADD PUSH1 0x2 DUP3 ADD SLOAD DUP2 MSTORE PUSH1 0x20 ADD PUSH1 0x3 DUP3 ADD PUSH1 0x0 SWAP1 SLOAD SWAP1 PUSH2 0x100 EXP SWAP1 DIV PUSH20 0xFFFFFFFFFFFFFFFFFFFFFFFFFFFFFFFFFFFFFFFF AND PUSH20 0xFFFFFFFFFFFFFFFFFFFFFFFFFFFFFFFFFFFFFFFF AND PUSH20 0xFFFFFFFFFFFFFFFFFFFFFFFFFFFFFFFFFFFFFFFF AND DUP2 MSTORE PUSH1 0x20 ADD PUSH1 0x4 DUP3 ADD PUSH1 0x0 SWAP1 SLOAD SWAP1 PUSH2 0x100 EXP SWAP1 DIV PUSH20 0xFFFFFFFFFFFFFFFFFFFFFFFFFFFFFFFFFFFFFFFF AND PUSH20 0xFFFFFFFFFFFFFFFFFFFFFFFFFFFFFFFFFFFFFFFF AND PUSH20 0xFFFFFFFFFFFFFFFFFFFFFFFFFFFFFFFFFFFFFFFF AND DUP2 MSTORE PUSH1 0x20 ADD PUSH1 0x5 DUP3 ADD SLOAD DUP2 MSTORE PUSH1 0x20 ADD PUSH1 0x6 DUP3 ADD DUP1 SLOAD PUSH2 0x6C7 SWAP1 PUSH2 0x1436 JUMP JUMPDEST DUP1 PUSH1 0x1F ADD PUSH1 0x20 DUP1 SWAP2 DIV MUL PUSH1 0x20 ADD PUSH1 0x40 MLOAD SWAP1 DUP2 ADD PUSH1 0x40 MSTORE DUP1 SWAP3 SWAP2 SWAP1 DUP2 DUP2 MSTORE PUSH1 0x20 ADD DUP3 DUP1 SLOAD PUSH2 0x6F3 SWAP1 PUSH2 0x1436 JUMP JUMPDEST DUP1 ISZERO PUSH2 0x740 JUMPI DUP1 PUSH1 0x1F LT PUSH2 0x715 JUMPI PUSH2 0x100 DUP1 DUP4 SLOAD DIV MUL DUP4 MSTORE SWAP2 PUSH1 0x20 ADD SWAP2 PUSH2 0x740 JUMP JUMPDEST DUP3 ADD SWAP2 SWAP1 PUSH1 0x0 MSTORE PUSH1 0x20 PUSH1 0x0 KECCAK256 SWAP1 JUMPDEST DUP2 SLOAD DUP2 MSTORE SWAP1 PUSH1 0x1 ADD SWAP1 PUSH1 0x20 ADD DUP1 DUP4 GT PUSH2 0x723 JUMPI DUP3 SWAP1 SUB PUSH1 0x1F AND DUP3 ADD SWAP2 JUMPDEST POP POP POP POP POP DUP2 MSTORE PUSH1 0x20 ADD PUSH1 0x7 DUP3 ADD DUP1 SLOAD PUSH2 0x759 SWAP1 PUSH2 0x1436 JUMP JUMPDEST DUP1 PUSH1 0x1F ADD PUSH1 0x20 DUP1 SWAP2 DIV MUL PUSH1 0x20 ADD PUSH1 0x40 MLOAD SWAP1 DUP2 ADD PUSH1 0x40 MSTORE DUP1 SWAP3 SWAP2 SWAP1 DUP2 DUP2 MSTORE PUSH1 0x20 ADD DUP3 DUP1 SLOAD PUSH2 0x785 SWAP1 PUSH2 0x1436 JUMP JUMPDEST DUP1 ISZERO PUSH2 0x7D2 JUMPI DUP1 PUSH1 0x1F LT PUSH2 0x7A7 JUMPI PUSH2 0x100 DUP1 DUP4 SLOAD DIV MUL DUP4 MSTORE SWAP2 PUSH1 0x20 ADD SWAP2 PUSH2 0x7D2 JUMP JUMPDEST DUP3 ADD SWAP2 SWAP1 PUSH1 0x0 MSTORE PUSH1 0x20 PUSH1 0x0 KECCAK256 SWAP1 JUMPDEST DUP2 SLOAD DUP2 MSTORE SWAP1 PUSH1 0x1 ADD SWAP1 PUSH1 0x20 ADD DUP1 DUP4 GT PUSH2 0x7B5 JUMPI DUP3 SWAP1 SUB PUSH1 0x1F AND DUP3 ADD SWAP2 JUMPDEST POP POP POP POP POP DUP2 MSTORE POP POP DUP2 MSTORE PUSH1 0x20 ADD SWAP1 PUSH1 0x1 ADD SWAP1 PUSH2 0x537 JUMP JUMPDEST POP POP POP POP SWAP1 POP SWAP2 SWAP1 POP JUMP JUMPDEST PUSH1 0x60 PUSH1 0x1 DUP1 SLOAD DUP1 PUSH1 0x20 MUL PUSH1 0x20 ADD PUSH1 0x40 MLOAD SWAP1 DUP2 ADD PUSH1 0x40 MSTORE DUP1 SWAP3 SWAP2 SWAP1 DUP2 DUP2 MSTORE PUSH1 0x20 ADD PUSH1 0x0 SWAP1 JUMPDEST DUP3 DUP3 LT ISZERO PUSH2 0xACC JUMPI DUP4 DUP3 SWAP1 PUSH1 0x0 MSTORE PUSH1 0x20 PUSH1 0x0 KECCAK256 SWAP1 PUSH1 0x8 MUL ADD PUSH1 0x40 MLOAD DUP1 PUSH2 0x100 ADD PUSH1 0x40 MSTORE SWAP1 DUP2 PUSH1 0x0 DUP3 ADD SLOAD DUP2 MSTORE PUSH1 0x20 ADD PUSH1 0x1 DUP3 ADD DUP1 SLOAD PUSH2 0x857 SWAP1 PUSH2 0x1436 JUMP JUMPDEST DUP1 PUSH1 0x1F ADD PUSH1 0x20 DUP1 SWAP2 DIV MUL PUSH1 0x20 ADD PUSH1 0x40 MLOAD SWAP1 DUP2 ADD PUSH1 0x40 MSTORE DUP1 SWAP3 SWAP2 SWAP1 DUP2 DUP2 MSTORE PUSH1 0x20 ADD DUP3 DUP1 SLOAD PUSH2 0x883 SWAP1 PUSH2 0x1436 JUMP JUMPDEST DUP1 ISZERO PUSH2 0x8D0 JUMPI DUP1 PUSH1 0x1F LT PUSH2 0x8A5 JUMPI PUSH2 0x100 DUP1 DUP4 SLOAD DIV MUL DUP4 MSTORE SWAP2 PUSH1 0x20 ADD SWAP2 PUSH2 0x8D0 JUMP JUMPDEST DUP3 ADD SWAP2 SWAP1 PUSH1 0x0 MSTORE PUSH1 0x20 PUSH1 0x0 KECCAK256 SWAP1 JUMPDEST DUP2 SLOAD DUP2 MSTORE SWAP1 PUSH1 0x1 ADD SWAP1 PUSH1 0x20 ADD DUP1 DUP4 GT PUSH2 0x8B3 JUMPI DUP3 SWAP1 SUB PUSH1 0x1F AND DUP3 ADD SWAP2 JUMPDEST POP POP POP POP POP DUP2 MSTORE PUSH1 0x20 ADD PUSH1 0x2 DUP3 ADD SLOAD DUP2 MSTORE PUSH1 0x20 ADD PUSH1 0x3 DUP3 ADD PUSH1 0x0 SWAP1 SLOAD SWAP1 PUSH2 0x100 EXP SWAP1 DIV PUSH20 0xFFFFFFFFFFFFFFFFFFFFFFFFFFFFFFFFFFFFFFFF AND PUSH20 0xFFFFFFFFFFFFFFFFFFFFFFFFFFFFFFFFFFFFFFFF AND PUSH20 0xFFFFFFFFFFFFFFFFFFFFFFFFFFFFFFFFFFFFFFFF AND DUP2 MSTORE PUSH1 0x20 ADD PUSH1 0x4 DUP3 ADD PUSH1 0x0 SWAP1 SLOAD SWAP1 PUSH2 0x100 EXP SWAP1 DIV PUSH20 0xFFFFFFFFFFFFFFFFFFFFFFFFFFFFFFFFFFFFFFFF AND PUSH20 0xFFFFFFFFFFFFFFFFFFFFFFFFFFFFFFFFFFFFFFFF AND PUSH20 0xFFFFFFFFFFFFFFFFFFFFFFFFFFFFFFFFFFFFFFFF AND DUP2 MSTORE PUSH1 0x20 ADD PUSH1 0x5 DUP3 ADD SLOAD DUP2 MSTORE PUSH1 0x20 ADD PUSH1 0x6 DUP3 ADD DUP1 SLOAD PUSH2 0x9A9 SWAP1 PUSH2 0x1436 JUMP JUMPDEST DUP1 PUSH1 0x1F ADD PUSH1 0x20 DUP1 SWAP2 DIV MUL PUSH1 0x20 ADD PUSH1 0x40 MLOAD SWAP1 DUP2 ADD PUSH1 0x40 MSTORE DUP1 SWAP3 SWAP2 SWAP1 DUP2 DUP2 MSTORE PUSH1 0x20 ADD DUP3 DUP1 SLOAD PUSH2 0x9D5 SWAP1 PUSH2 0x1436 JUMP JUMPDEST DUP1 ISZERO PUSH2 0xA22 JUMPI DUP1 PUSH1 0x1F LT PUSH2 0x9F7 JUMPI PUSH2 0x100 DUP1 DUP4 SLOAD DIV MUL DUP4 MSTORE SWAP2 PUSH1 0x20 ADD SWAP2 PUSH2 0xA22 JUMP JUMPDEST DUP3 ADD SWAP2 SWAP1 PUSH1 0x0 MSTORE PUSH1 0x20 PUSH1 0x0 KECCAK256 SWAP1 JUMPDEST DUP2 SLOAD DUP2 MSTORE SWAP1 PUSH1 0x1 ADD SWAP1 PUSH1 0x20 ADD DUP1 DUP4 GT PUSH2 0xA05 JUMPI DUP3 SWAP1 SUB PUSH1 0x1F AND DUP3 ADD SWAP2 JUMPDEST POP POP POP POP POP DUP2 MSTORE PUSH1 0x20 ADD PUSH1 0x7 DUP3 ADD DUP1 SLOAD PUSH2 0xA3B SWAP1 PUSH2 0x1436 JUMP JUMPDEST DUP1 PUSH1 0x1F ADD PUSH1 0x20 DUP1 SWAP2 DIV MUL PUSH1 0x20 ADD PUSH1 0x40 MLOAD SWAP1 DUP2 ADD PUSH1 0x40 MSTORE DUP1 SWAP3 SWAP2 SWAP1 DUP2 DUP2 MSTORE PUSH1 0x20 ADD DUP3 DUP1 SLOAD PUSH2 0xA67 SWAP1 PUSH2 0x1436 JUMP JUMPDEST DUP1 ISZERO PUSH2 0xAB4 JUMPI DUP1 PUSH1 0x1F LT PUSH2 0xA89 JUMPI PUSH2 0x100 DUP1 DUP4 SLOAD DIV MUL DUP4 MSTORE SWAP2 PUSH1 0x20 ADD SWAP2 PUSH2 0xAB4 JUMP JUMPDEST DUP3 ADD SWAP2 SWAP1 PUSH1 0x0 MSTORE PUSH1 0x20 PUSH1 0x0 KECCAK256 SWAP1 JUMPDEST DUP2 SLOAD DUP2 MSTORE SWAP1 PUSH1 0x1 ADD SWAP1 PUSH1 0x20 ADD DUP1 DUP4 GT PUSH2 0xA97 JUMPI DUP3 SWAP1 SUB PUSH1 0x1F AND DUP3 ADD SWAP2 JUMPDEST POP POP POP POP POP DUP2 MSTORE POP POP DUP2 MSTORE PUSH1 0x20 ADD SWAP1 PUSH1 0x1 ADD SWAP1 PUSH2 0x819 JUMP JUMPDEST POP POP POP POP SWAP1 POP SWAP1 JUMP JUMPDEST PUSH1 0x0 DUP1 DUP2 SLOAD DUP1 SWAP3 SWAP2 SWAP1 PUSH2 0xAE7 SWAP1 PUSH2 0x176F JUMP JUMPDEST SWAP2 SWAP1 POP SSTORE POP PUSH1 0x0 PUSH1 0x40 MLOAD DUP1 PUSH2 0x100 ADD PUSH1 0x40 MSTORE DUP1 PUSH1 0x0 SLOAD DUP2 MSTORE PUSH1 0x20 ADD DUP6 DUP2 MSTORE PUSH1 0x20 ADD PUSH1 0x0 DUP2 MSTORE PUSH1 0x20 ADD CALLER PUSH20 0xFFFFFFFFFFFFFFFFFFFFFFFFFFFFFFFFFFFFFFFF AND DUP2 MSTORE PUSH1 0x20 ADD DUP5 PUSH20 0xFFFFFFFFFFFFFFFFFFFFFFFFFFFFFFFFFFFFFFFF AND DUP2 MSTORE PUSH1 0x20 ADD PUSH1 0x0 DUP2 MSTORE PUSH1 0x20 ADD DUP4 DUP2 MSTORE PUSH1 0x20 ADD PUSH1 0x40 MLOAD DUP1 PUSH1 0x40 ADD PUSH1 0x40 MSTORE DUP1 PUSH1 0x1 DUP2 MSTORE PUSH1 0x20 ADD PUSH32 0x3000000000000000000000000000000000000000000000000000000000000000 DUP2 MSTORE POP DUP2 MSTORE POP SWAP1 POP PUSH1 0x1 DUP2 SWAP1 DUP1 PUSH1 0x1 DUP2 SLOAD ADD DUP1 DUP3 SSTORE DUP1 SWAP2 POP POP PUSH1 0x1 SWAP1 SUB SWAP1 PUSH1 0x0 MSTORE PUSH1 0x20 PUSH1 0x0 KECCAK256 SWAP1 PUSH1 0x8 MUL ADD PUSH1 0x0 SWAP1 SWAP2 SWAP1 SWAP2 SWAP1 SWAP2 POP PUSH1 0x0 DUP3 ADD MLOAD DUP2 PUSH1 0x0 ADD SSTORE PUSH1 0x20 DUP3 ADD MLOAD DUP2 PUSH1 0x1 ADD SWAP1 DUP2 PUSH2 0xBDA SWAP2 SWAP1 PUSH2 0x17B7 JUMP JUMPDEST POP PUSH1 0x40 DUP3 ADD MLOAD DUP2 PUSH1 0x2 ADD SSTORE PUSH1 0x60 DUP3 ADD MLOAD DUP2 PUSH1 0x3 ADD PUSH1 0x0 PUSH2 0x100 EXP DUP2 SLOAD DUP2 PUSH20 0xFFFFFFFFFFFFFFFFFFFFFFFFFFFFFFFFFFFFFFFF MUL NOT AND SWAP1 DUP4 PUSH20 0xFFFFFFFFFFFFFFFFFFFFFFFFFFFFFFFFFFFFFFFF AND MUL OR SWAP1 SSTORE POP PUSH1 0x80 DUP3 ADD MLOAD DUP2 PUSH1 0x4 ADD PUSH1 0x0 PUSH2 0x100 EXP DUP2 SLOAD DUP2 PUSH20 0xFFFFFFFFFFFFFFFFFFFFFFFFFFFFFFFFFFFFFFFF MUL NOT AND SWAP1 DUP4 PUSH20 0xFFFFFFFFFFFFFFFFFFFFFFFFFFFFFFFFFFFFFFFF AND MUL OR SWAP1 SSTORE POP PUSH1 0xA0 DUP3 ADD MLOAD DUP2 PUSH1 0x5 ADD SSTORE PUSH1 0xC0 DUP3 ADD MLOAD DUP2 PUSH1 0x6 ADD SWAP1 DUP2 PUSH2 0xC92 SWAP2 SWAP1 PUSH2 0x17B7 JUMP JUMPDEST POP PUSH1 0xE0 DUP3 ADD MLOAD DUP2 PUSH1 0x7 ADD SWAP1 DUP2 PUSH2 0xCA8 SWAP2 SWAP1 PUSH2 0x17B7 JUMP JUMPDEST POP POP POP PUSH1 0x2 PUSH1 0x0 DUP1 DUP2 MSTORE PUSH1 0x20 ADD SWAP1 DUP2 MSTORE PUSH1 0x20 ADD PUSH1 0x0 KECCAK256 DUP2 SWAP1 DUP1 PUSH1 0x1 DUP2 SLOAD ADD DUP1 DUP3 SSTORE DUP1 SWAP2 POP POP PUSH1 0x1 SWAP1 SUB SWAP1 PUSH1 0x0 MSTORE PUSH1 0x20 PUSH1 0x0 KECCAK256 SWAP1 PUSH1 0x8 MUL ADD PUSH1 0x0 SWAP1 SWAP2 SWAP1 SWAP2 SWAP1 SWAP2 POP PUSH1 0x0 DUP3 ADD MLOAD DUP2 PUSH1 0x0 ADD SSTORE PUSH1 0x20 DUP3 ADD MLOAD DUP2 PUSH1 0x1 ADD SWAP1 DUP2 PUSH2 0xD07 SWAP2 SWAP1 PUSH2 0x17B7 JUMP JUMPDEST POP PUSH1 0x40 DUP3 ADD MLOAD DUP2 PUSH1 0x2 ADD SSTORE PUSH1 0x60 DUP3 ADD MLOAD DUP2 PUSH1 0x3 ADD PUSH1 0x0 PUSH2 0x100 EXP DUP2 SLOAD DUP2 PUSH20 0xFFFFFFFFFFFFFFFFFFFFFFFFFFFFFFFFFFFFFFFF MUL NOT AND SWAP1 DUP4 PUSH20 0xFFFFFFFFFFFFFFFFFFFFFFFFFFFFFFFFFFFFFFFF AND MUL OR SWAP1 SSTORE POP PUSH1 0x80 DUP3 ADD MLOAD DUP2 PUSH1 0x4 ADD PUSH1 0x0 PUSH2 0x100 EXP DUP2 SLOAD DUP2 PUSH20 0xFFFFFFFFFFFFFFFFFFFFFFFFFFFFFFFFFFFFFFFF MUL NOT AND SWAP1 DUP4 PUSH20 0xFFFFFFFFFFFFFFFFFFFFFFFFFFFFFFFFFFFFFFFF AND MUL OR SWAP1 SSTORE POP PUSH1 0xA0 DUP3 ADD MLOAD DUP2 PUSH1 0x5 ADD SSTORE PUSH1 0xC0 DUP3 ADD MLOAD DUP2 PUSH1 0x6 ADD SWAP1 DUP2 PUSH2 0xDBF SWAP2 SWAP1 PUSH2 0x17B7 JUMP JUMPDEST POP PUSH1 0xE0 DUP3 ADD MLOAD DUP2 PUSH1 0x7 ADD SWAP1 DUP2 PUSH2 0xDD5 SWAP2 SWAP1 PUSH2 0x17B7 JUMP JUMPDEST POP POP POP POP POP POP POP JUMP JUMPDEST PUSH1 0x0 PUSH1 0x40 MLOAD SWAP1 POP SWAP1 JUMP JUMPDEST PUSH1 0x0 DUP1 REVERT JUMPDEST PUSH1 0x0 DUP1 REVERT JUMPDEST PUSH1 0x0 DUP2 SWAP1 POP SWAP2 SWAP1 POP JUMP JUMPDEST PUSH2 0xE05 DUP2 PUSH2 0xDF2 JUMP JUMPDEST DUP2 EQ PUSH2 0xE10 JUMPI PUSH1 0x0 DUP1 REVERT JUMPDEST POP JUMP JUMPDEST PUSH1 0x0 DUP2 CALLDATALOAD SWAP1 POP PUSH2 0xE22 DUP2 PUSH2 0xDFC JUMP JUMPDEST SWAP3 SWAP2 POP POP JUMP JUMPDEST PUSH1 0x0 PUSH1 0x20 DUP3 DUP5 SUB SLT ISZERO PUSH2 0xE3E JUMPI PUSH2 0xE3D PUSH2 0xDE8 JUMP JUMPDEST JUMPDEST PUSH1 0x0 PUSH2 0xE4C DUP5 DUP3 DUP6 ADD PUSH2 0xE13 JUMP JUMPDEST SWAP2 POP POP SWAP3 SWAP2 POP POP JUMP JUMPDEST PUSH2 0xE5E DUP2 PUSH2 0xDF2 JUMP JUMPDEST DUP3 MSTORE POP POP JUMP JUMPDEST PUSH1 0x0 DUP2 MLOAD SWAP1 POP SWAP2 SWAP1 POP JUMP JUMPDEST PUSH1 0x0 DUP3 DUP3 MSTORE PUSH1 0x20 DUP3 ADD SWAP1 POP SWAP3 SWAP2 POP POP JUMP JUMPDEST PUSH1 0x0 JUMPDEST DUP4 DUP2 LT ISZERO PUSH2 0xE9E JUMPI DUP1 DUP3 ADD MLOAD DUP2 DUP5 ADD MSTORE PUSH1 0x20 DUP2 ADD SWAP1 POP PUSH2 0xE83 JUMP JUMPDEST DUP4 DUP2 GT ISZERO PUSH2 0xEAD JUMPI PUSH1 0x0 DUP5 DUP5 ADD MSTORE JUMPDEST POP POP POP POP JUMP JUMPDEST PUSH1 0x0 PUSH1 0x1F NOT PUSH1 0x1F DUP4 ADD AND SWAP1 POP SWAP2 SWAP1 POP JUMP JUMPDEST PUSH1 0x0 PUSH2 0xECF DUP3 PUSH2 0xE64 JUMP JUMPDEST PUSH2 0xED9 DUP2 DUP6 PUSH2 0xE6F JUMP JUMPDEST SWAP4 POP PUSH2 0xEE9 DUP2 DUP6 PUSH1 0x20 DUP7 ADD PUSH2 0xE80 JUMP JUMPDEST PUSH2 0xEF2 DUP2 PUSH2 0xEB3 JUMP JUMPDEST DUP5 ADD SWAP2 POP POP SWAP3 SWAP2 POP POP JUMP JUMPDEST PUSH1 0x0 PUSH20 0xFFFFFFFFFFFFFFFFFFFFFFFFFFFFFFFFFFFFFFFF DUP3 AND SWAP1 POP SWAP2 SWAP1 POP JUMP JUMPDEST PUSH1 0x0 PUSH2 0xF28 DUP3 PUSH2 0xEFD JUMP JUMPDEST SWAP1 POP SWAP2 SWAP1 POP JUMP JUMPDEST PUSH2 0xF38 DUP2 PUSH2 0xF1D JUMP JUMPDEST DUP3 MSTORE POP POP JUMP JUMPDEST PUSH1 0x0 PUSH2 0x100 DUP3 ADD SWAP1 POP PUSH2 0xF54 PUSH1 0x0 DUP4 ADD DUP12 PUSH2 0xE55 JUMP JUMPDEST DUP2 DUP2 SUB PUSH1 0x20 DUP4 ADD MSTORE PUSH2 0xF66 DUP2 DUP11 PUSH2 0xEC4 JUMP JUMPDEST SWAP1 POP PUSH2 0xF75 PUSH1 0x40 DUP4 ADD DUP10 PUSH2 0xE55 JUMP JUMPDEST PUSH2 0xF82 PUSH1 0x60 DUP4 ADD DUP9 PUSH2 0xF2F JUMP JUMPDEST PUSH2 0xF8F PUSH1 0x80 DUP4 ADD DUP8 PUSH2 0xF2F JUMP JUMPDEST PUSH2 0xF9C PUSH1 0xA0 DUP4 ADD DUP7 PUSH2 0xE55 JUMP JUMPDEST DUP2 DUP2 SUB PUSH1 0xC0 DUP4 ADD MSTORE PUSH2 0xFAE DUP2 DUP6 PUSH2 0xEC4 JUMP JUMPDEST SWAP1 POP DUP2 DUP2 SUB PUSH1 0xE0 DUP4 ADD MSTORE PUSH2 0xFC2 DUP2 DUP5 PUSH2 0xEC4 JUMP JUMPDEST SWAP1 POP SWAP10 SWAP9 POP POP POP POP POP POP POP POP POP JUMP JUMPDEST PUSH1 0x0 DUP1 PUSH1 0x40 DUP4 DUP6 SUB SLT ISZERO PUSH2 0xFE8 JUMPI PUSH2 0xFE7 PUSH2 0xDE8 JUMP JUMPDEST JUMPDEST PUSH1 0x0 PUSH2 0xFF6 DUP6 DUP3 DUP7 ADD PUSH2 0xE13 JUMP JUMPDEST SWAP3 POP POP PUSH1 0x20 PUSH2 0x1007 DUP6 DUP3 DUP7 ADD PUSH2 0xE13 JUMP JUMPDEST SWAP2 POP POP SWAP3 POP SWAP3 SWAP1 POP JUMP JUMPDEST PUSH1 0x0 DUP2 MLOAD SWAP1 POP SWAP2 SWAP1 POP JUMP JUMPDEST PUSH1 0x0 DUP3 DUP3 MSTORE PUSH1 0x20 DUP3 ADD SWAP1 POP SWAP3 SWAP2 POP POP JUMP JUMPDEST PUSH1 0x0 DUP2 SWAP1 POP PUSH1 0x20 DUP3 ADD SWAP1 POP SWAP2 SWAP1 POP JUMP JUMPDEST PUSH2 0x1046 DUP2 PUSH2 0xDF2 JUMP JUMPDEST DUP3 MSTORE POP POP JUMP JUMPDEST PUSH1 0x0 DUP3 DUP3 MSTORE PUSH1 0x20 DUP3 ADD SWAP1 POP SWAP3 SWAP2 POP POP JUMP JUMPDEST PUSH1 0x0 PUSH2 0x1068 DUP3 PUSH2 0xE64 JUMP JUMPDEST PUSH2 0x1072 DUP2 DUP6 PUSH2 0x104C JUMP JUMPDEST SWAP4 POP PUSH2 0x1082 DUP2 DUP6 PUSH1 0x20 DUP7 ADD PUSH2 0xE80 JUMP JUMPDEST PUSH2 0x108B DUP2 PUSH2 0xEB3 JUMP JUMPDEST DUP5 ADD SWAP2 POP POP SWAP3 SWAP2 POP POP JUMP JUMPDEST PUSH2 0x109F DUP2 PUSH2 0xF1D JUMP JUMPDEST DUP3 MSTORE POP POP JUMP JUMPDEST PUSH1 0x0 PUSH2 0x100 DUP4 ADD PUSH1 0x0 DUP4 ADD MLOAD PUSH2 0x10BE PUSH1 0x0 DUP7 ADD DUP3 PUSH2 0x103D JUMP JUMPDEST POP PUSH1 0x20 DUP4 ADD MLOAD DUP5 DUP3 SUB PUSH1 0x20 DUP7 ADD MSTORE PUSH2 0x10D6 DUP3 DUP3 PUSH2 0x105D JUMP JUMPDEST SWAP2 POP POP PUSH1 0x40 DUP4 ADD MLOAD PUSH2 0x10EB PUSH1 0x40 DUP7 ADD DUP3 PUSH2 0x103D JUMP JUMPDEST POP PUSH1 0x60 DUP4 ADD MLOAD PUSH2 0x10FE PUSH1 0x60 DUP7 ADD DUP3 PUSH2 0x1096 JUMP JUMPDEST POP PUSH1 0x80 DUP4 ADD MLOAD PUSH2 0x1111 PUSH1 0x80 DUP7 ADD DUP3 PUSH2 0x1096 JUMP JUMPDEST POP PUSH1 0xA0 DUP4 ADD MLOAD PUSH2 0x1124 PUSH1 0xA0 DUP7 ADD DUP3 PUSH2 0x103D JUMP JUMPDEST POP PUSH1 0xC0 DUP4 ADD MLOAD DUP5 DUP3 SUB PUSH1 0xC0 DUP7 ADD MSTORE PUSH2 0x113C DUP3 DUP3 PUSH2 0x105D JUMP JUMPDEST SWAP2 POP POP PUSH1 0xE0 DUP4 ADD MLOAD DUP5 DUP3 SUB PUSH1 0xE0 DUP7 ADD MSTORE PUSH2 0x1156 DUP3 DUP3 PUSH2 0x105D JUMP JUMPDEST SWAP2 POP POP DUP1 SWAP2 POP POP SWAP3 SWAP2 POP POP JUMP JUMPDEST PUSH1 0x0 PUSH2 0x116F DUP4 DUP4 PUSH2 0x10A5 JUMP JUMPDEST SWAP1 POP SWAP3 SWAP2 POP POP JUMP JUMPDEST PUSH1 0x0 PUSH1 0x20 DUP3 ADD SWAP1 POP SWAP2 SWAP1 POP JUMP JUMPDEST PUSH1 0x0 PUSH2 0x118F DUP3 PUSH2 0x1011 JUMP JUMPDEST PUSH2 0x1199 DUP2 DUP6 PUSH2 0x101C JUMP JUMPDEST SWAP4 POP DUP4 PUSH1 0x20 DUP3 MUL DUP6 ADD PUSH2 0x11AB DUP6 PUSH2 0x102D JUMP JUMPDEST DUP1 PUSH1 0x0 JUMPDEST DUP6 DUP2 LT ISZERO PUSH2 0x11E7 JUMPI DUP5 DUP5 SUB DUP10 MSTORE DUP2 MLOAD PUSH2 0x11C8 DUP6 DUP3 PUSH2 0x1163 JUMP JUMPDEST SWAP5 POP PUSH2 0x11D3 DUP4 PUSH2 0x1177 JUMP JUMPDEST SWAP3 POP PUSH1 0x20 DUP11 ADD SWAP10 POP POP PUSH1 0x1 DUP2 ADD SWAP1 POP PUSH2 0x11AF JUMP JUMPDEST POP DUP3 SWAP8 POP DUP8 SWAP6 POP POP POP POP POP POP SWAP3 SWAP2 POP POP JUMP JUMPDEST PUSH1 0x0 PUSH1 0x20 DUP3 ADD SWAP1 POP DUP2 DUP2 SUB PUSH1 0x0 DUP4 ADD MSTORE PUSH2 0x1213 DUP2 DUP5 PUSH2 0x1184 JUMP JUMPDEST SWAP1 POP SWAP3 SWAP2 POP POP JUMP JUMPDEST PUSH1 0x0 DUP1 REVERT JUMPDEST PUSH1 0x0 DUP1 REVERT JUMPDEST PUSH32 0x4E487B7100000000000000000000000000000000000000000000000000000000 PUSH1 0x0 MSTORE PUSH1 0x41 PUSH1 0x4 MSTORE PUSH1 0x24 PUSH1 0x0 REVERT JUMPDEST PUSH2 0x125D DUP3 PUSH2 0xEB3 JUMP JUMPDEST DUP2 ADD DUP2 DUP2 LT PUSH8 0xFFFFFFFFFFFFFFFF DUP3 GT OR ISZERO PUSH2 0x127C JUMPI PUSH2 0x127B PUSH2 0x1225 JUMP JUMPDEST JUMPDEST DUP1 PUSH1 0x40 MSTORE POP POP POP JUMP JUMPDEST PUSH1 0x0 PUSH2 0x128F PUSH2 0xDDE JUMP JUMPDEST SWAP1 POP PUSH2 0x129B DUP3 DUP3 PUSH2 0x1254 JUMP JUMPDEST SWAP2 SWAP1 POP JUMP JUMPDEST PUSH1 0x0 PUSH8 0xFFFFFFFFFFFFFFFF DUP3 GT ISZERO PUSH2 0x12BB JUMPI PUSH2 0x12BA PUSH2 0x1225 JUMP JUMPDEST JUMPDEST PUSH2 0x12C4 DUP3 PUSH2 0xEB3 JUMP JUMPDEST SWAP1 POP PUSH1 0x20 DUP2 ADD SWAP1 POP SWAP2 SWAP1 POP JUMP JUMPDEST DUP3 DUP2 DUP4 CALLDATACOPY PUSH1 0x0 DUP4 DUP4 ADD MSTORE POP POP POP JUMP JUMPDEST PUSH1 0x0 PUSH2 0x12F3 PUSH2 0x12EE DUP5 PUSH2 0x12A0 JUMP JUMPDEST PUSH2 0x1285 JUMP JUMPDEST SWAP1 POP DUP3 DUP2 MSTORE PUSH1 0x20 DUP2 ADD DUP5 DUP5 DUP5 ADD GT ISZERO PUSH2 0x130F JUMPI PUSH2 0x130E PUSH2 0x1220 JUMP JUMPDEST JUMPDEST PUSH2 0x131A DUP5 DUP3 DUP6 PUSH2 0x12D1 JUMP JUMPDEST POP SWAP4 SWAP3 POP POP POP JUMP JUMPDEST PUSH1 0x0 DUP3 PUSH1 0x1F DUP4 ADD SLT PUSH2 0x1337 JUMPI PUSH2 0x1336 PUSH2 0x121B JUMP JUMPDEST JUMPDEST DUP2 CALLDATALOAD PUSH2 0x1347 DUP5 DUP3 PUSH1 0x20 DUP7 ADD PUSH2 0x12E0 JUMP JUMPDEST SWAP2 POP POP SWAP3 SWAP2 POP POP JUMP JUMPDEST PUSH2 0x1359 DUP2 PUSH2 0xF1D JUMP JUMPDEST DUP2 EQ PUSH2 0x1364 JUMPI PUSH1 0x0 DUP1 REVERT JUMPDEST POP JUMP JUMPDEST PUSH1 0x0 DUP2 CALLDATALOAD SWAP1 POP PUSH2 0x1376 DUP2 PUSH2 0x1350 JUMP JUMPDEST SWAP3 SWAP2 POP POP JUMP JUMPDEST PUSH1 0x0 DUP1 PUSH1 0x0 PUSH1 0x60 DUP5 DUP7 SUB SLT ISZERO PUSH2 0x1395 JUMPI PUSH2 0x1394 PUSH2 0xDE8 JUMP JUMPDEST JUMPDEST PUSH1 0x0 DUP5 ADD CALLDATALOAD PUSH8 0xFFFFFFFFFFFFFFFF DUP2 GT ISZERO PUSH2 0x13B3 JUMPI PUSH2 0x13B2 PUSH2 0xDED JUMP JUMPDEST JUMPDEST PUSH2 0x13BF DUP7 DUP3 DUP8 ADD PUSH2 0x1322 JUMP JUMPDEST SWAP4 POP POP PUSH1 0x20 PUSH2 0x13D0 DUP7 DUP3 DUP8 ADD PUSH2 0x1367 JUMP JUMPDEST SWAP3 POP POP PUSH1 0x40 DUP5 ADD CALLDATALOAD PUSH8 0xFFFFFFFFFFFFFFFF DUP2 GT ISZERO PUSH2 0x13F1 JUMPI PUSH2 0x13F0 PUSH2 0xDED JUMP JUMPDEST JUMPDEST PUSH2 0x13FD DUP7 DUP3 DUP8 ADD PUSH2 0x1322 JUMP JUMPDEST SWAP2 POP POP SWAP3 POP SWAP3 POP SWAP3 JUMP JUMPDEST PUSH32 0x4E487B7100000000000000000000000000000000000000000000000000000000 PUSH1 0x0 MSTORE PUSH1 0x22 PUSH1 0x4 MSTORE PUSH1 0x24 PUSH1 0x0 REVERT JUMPDEST PUSH1 0x0 PUSH1 0x2 DUP3 DIV SWAP1 POP PUSH1 0x1 DUP3 AND DUP1 PUSH2 0x144E JUMPI PUSH1 0x7F DUP3 AND SWAP2 POP JUMPDEST PUSH1 0x20 DUP3 LT DUP2 SUB PUSH2 0x1461 JUMPI PUSH2 0x1460 PUSH2 0x1407 JUMP JUMPDEST JUMPDEST POP SWAP2 SWAP1 POP JUMP JUMPDEST PUSH32 0x4E487B7100000000000000000000000000000000000000000000000000000000 PUSH1 0x0 MSTORE PUSH1 0x32 PUSH1 0x4 MSTORE PUSH1 0x24 PUSH1 0x0 REVERT JUMPDEST PUSH1 0x0 DUP2 SLOAD SWAP1 POP PUSH2 0x14A5 DUP2 PUSH2 0x1436 JUMP JUMPDEST SWAP1 POP SWAP2 SWAP1 POP JUMP JUMPDEST PUSH1 0x0 DUP2 SWAP1 POP DUP2 PUSH1 0x0 MSTORE PUSH1 0x20 PUSH1 0x0 KECCAK256 SWAP1 POP SWAP2 SWAP1 POP JUMP JUMPDEST PUSH1 0x0 PUSH1 0x20 PUSH1 0x1F DUP4 ADD DIV SWAP1 POP SWAP2 SWAP1 POP JUMP JUMPDEST PUSH1 0x0 DUP3 DUP3 SHL SWAP1 POP SWAP3 SWAP2 POP POP JUMP JUMPDEST PUSH1 0x0 PUSH1 0x8 DUP4 MUL PUSH2 0x150E PUSH32 0xFFFFFFFFFFFFFFFFFFFFFFFFFFFFFFFFFFFFFFFFFFFFFFFFFFFFFFFFFFFFFFFF DUP3 PUSH2 0x14D1 JUMP JUMPDEST PUSH2 0x1518 DUP7 DUP4 PUSH2 0x14D1 JUMP JUMPDEST SWAP6 POP DUP1 NOT DUP5 AND SWAP4 POP DUP1 DUP7 AND DUP5 OR SWAP3 POP POP POP SWAP4 SWAP3 POP POP POP JUMP JUMPDEST PUSH1 0x0 DUP2 SWAP1 POP SWAP2 SWAP1 POP JUMP JUMPDEST PUSH1 0x0 PUSH2 0x1555 PUSH2 0x1550 PUSH2 0x154B DUP5 PUSH2 0xDF2 JUMP JUMPDEST PUSH2 0x1530 JUMP JUMPDEST PUSH2 0xDF2 JUMP JUMPDEST SWAP1 POP SWAP2 SWAP1 POP JUMP JUMPDEST PUSH1 0x0 DUP2 SWAP1 POP SWAP2 SWAP1 POP JUMP JUMPDEST PUSH2 0x156F DUP4 PUSH2 0x153A JUMP JUMPDEST PUSH2 0x1583 PUSH2 0x157B DUP3 PUSH2 0x155C JUMP JUMPDEST DUP5 DUP5 SLOAD PUSH2 0x14DE JUMP JUMPDEST DUP3 SSTORE POP POP POP POP JUMP JUMPDEST PUSH1 0x0 SWAP1 JUMP JUMPDEST PUSH2 0x1598 PUSH2 0x158B JUMP JUMPDEST PUSH2 0x15A3 DUP2 DUP5 DUP5 PUSH2 0x1566 JUMP JUMPDEST POP POP POP JUMP JUMPDEST JUMPDEST DUP2 DUP2 LT ISZERO PUSH2 0x15C7 JUMPI PUSH2 0x15BC PUSH1 0x0 DUP3 PUSH2 0x1590 JUMP JUMPDEST PUSH1 0x1 DUP2 ADD SWAP1 POP PUSH2 0x15A9 JUMP JUMPDEST POP POP JUMP JUMPDEST PUSH1 0x1F DUP3 GT ISZERO PUSH2 0x160C JUMPI PUSH2 0x15DD DUP2 PUSH2 0x14AC JUMP JUMPDEST PUSH2 0x15E6 DUP5 PUSH2 0x14C1 JUMP JUMPDEST DUP2 ADD PUSH1 0x20 DUP6 LT ISZERO PUSH2 0x15F5 JUMPI DUP2 SWAP1 POP JUMPDEST PUSH2 0x1609 PUSH2 0x1601 DUP6 PUSH2 0x14C1 JUMP JUMPDEST DUP4 ADD DUP3 PUSH2 0x15A8 JUMP JUMPDEST POP POP JUMPDEST POP POP POP JUMP JUMPDEST PUSH1 0x0 DUP3 DUP3 SHR SWAP1 POP SWAP3 SWAP2 POP POP JUMP JUMPDEST PUSH1 0x0 PUSH2 0x162F PUSH1 0x0 NOT DUP5 PUSH1 0x8 MUL PUSH2 0x1611 JUMP JUMPDEST NOT DUP1 DUP4 AND SWAP2 POP POP SWAP3 SWAP2 POP POP JUMP JUMPDEST PUSH1 0x0 PUSH2 0x1648 DUP4 DUP4 PUSH2 0x161E JUMP JUMPDEST SWAP2 POP DUP3 PUSH1 0x2 MUL DUP3 OR SWAP1 POP SWAP3 SWAP2 POP POP JUMP JUMPDEST DUP2 DUP2 SUB PUSH2 0x1666 JUMPI POP POP PUSH2 0x173E JUMP JUMPDEST PUSH2 0x166F DUP3 PUSH2 0x1496 JUMP JUMPDEST PUSH8 0xFFFFFFFFFFFFFFFF DUP2 GT ISZERO PUSH2 0x1688 JUMPI PUSH2 0x1687 PUSH2 0x1225 JUMP JUMPDEST JUMPDEST PUSH2 0x1692 DUP3 SLOAD PUSH2 0x1436 JUMP JUMPDEST PUSH2 0x169D DUP3 DUP3 DUP6 PUSH2 0x15CB JUMP JUMPDEST PUSH1 0x0 PUSH1 0x1F DUP4 GT PUSH1 0x1 DUP2 EQ PUSH2 0x16CC JUMPI PUSH1 0x0 DUP5 ISZERO PUSH2 0x16BA JUMPI DUP3 DUP8 ADD SLOAD SWAP1 POP JUMPDEST PUSH2 0x16C4 DUP6 DUP3 PUSH2 0x163C JUMP JUMPDEST DUP7 SSTORE POP PUSH2 0x1737 JUMP JUMPDEST PUSH1 0x1F NOT DUP5 AND PUSH2 0x16DA DUP8 PUSH2 0x14AC JUMP JUMPDEST SWAP7 POP PUSH2 0x16E5 DUP7 PUSH2 0x14AC JUMP JUMPDEST PUSH1 0x0 JUMPDEST DUP3 DUP2 LT ISZERO PUSH2 0x170D JUMPI DUP5 DUP10 ADD SLOAD DUP3 SSTORE PUSH1 0x1 DUP3 ADD SWAP2 POP PUSH1 0x1 DUP6 ADD SWAP5 POP PUSH1 0x20 DUP2 ADD SWAP1 POP PUSH2 0x16E8 JUMP JUMPDEST DUP7 DUP4 LT ISZERO PUSH2 0x172A JUMPI DUP5 DUP10 ADD SLOAD PUSH2 0x1726 PUSH1 0x1F DUP10 AND DUP3 PUSH2 0x161E JUMP JUMPDEST DUP4 SSTORE POP JUMPDEST PUSH1 0x1 PUSH1 0x2 DUP9 MUL ADD DUP9 SSTORE POP POP POP JUMPDEST POP POP POP POP POP POP JUMPDEST JUMP JUMPDEST PUSH32 0x4E487B7100000000000000000000000000000000000000000000000000000000 PUSH1 0x0 MSTORE PUSH1 0x11 PUSH1 0x4 MSTORE PUSH1 0x24 PUSH1 0x0 REVERT JUMPDEST PUSH1 0x0 PUSH2 0x177A DUP3 PUSH2 0xDF2 JUMP JUMPDEST SWAP2 POP PUSH32 0xFFFFFFFFFFFFFFFFFFFFFFFFFFFFFFFFFFFFFFFFFFFFFFFFFFFFFFFFFFFFFFFF DUP3 SUB PUSH2 0x17AC JUMPI PUSH2 0x17AB PUSH2 0x1740 JUMP JUMPDEST JUMPDEST PUSH1 0x1 DUP3 ADD SWAP1 POP SWAP2 SWAP1 POP JUMP JUMPDEST PUSH2 0x17C0 DUP3 PUSH2 0xE64 JUMP JUMPDEST PUSH8 0xFFFFFFFFFFFFFFFF DUP2 GT ISZERO PUSH2 0x17D9 JUMPI PUSH2 0x17D8 PUSH2 0x1225 JUMP JUMPDEST JUMPDEST PUSH2 0x17E3 DUP3 SLOAD PUSH2 0x1436 JUMP JUMPDEST PUSH2 0x17EE DUP3 DUP3 DUP6 PUSH2 0x15CB JUMP JUMPDEST PUSH1 0x0 PUSH1 0x20 SWAP1 POP PUSH1 0x1F DUP4 GT PUSH1 0x1 DUP2 EQ PUSH2 0x1821 JUMPI PUSH1 0x0 DUP5 ISZERO PUSH2 0x180F JUMPI DUP3 DUP8 ADD MLOAD SWAP1 POP JUMPDEST PUSH2 0x1819 DUP6 DUP3 PUSH2 0x163C JUMP JUMPDEST DUP7 SSTORE POP PUSH2 0x1881 JUMP JUMPDEST PUSH1 0x1F NOT DUP5 AND PUSH2 0x182F DUP7 PUSH2 0x14AC JUMP JUMPDEST PUSH1 0x0 JUMPDEST DUP3 DUP2 LT ISZERO PUSH2 0x1857 JUMPI DUP5 DUP10 ADD MLOAD DUP3 SSTORE PUSH1 0x1 DUP3 ADD SWAP2 POP PUSH1 0x20 DUP6 ADD SWAP5 POP PUSH1 0x20 DUP2 ADD SWAP1 POP PUSH2 0x1832 JUMP JUMPDEST DUP7 DUP4 LT ISZERO PUSH2 0x1874 JUMPI DUP5 DUP10 ADD MLOAD PUSH2 0x1870 PUSH1 0x1F DUP10 AND DUP3 PUSH2 0x161E JUMP JUMPDEST DUP4 SSTORE POP JUMPDEST PUSH1 0x1 PUSH1 0x2 DUP9 MUL ADD DUP9 SSTORE POP POP POP JUMPDEST POP POP POP POP POP POP JUMP INVALID LOG2 PUSH5 0x6970667358 0x22 SLT KECCAK256 0x2F SHL 0xB5 0xB2 CALLVALUE SWAP12 SLT MSTORE SWAP11 SDIV PUSH18 0x331D1842FF92165A6BAA3856880DFFFF52F3 0x2A XOR 0xD1 PUSH5 0x736F6C6343 STOP ADDMOD 0xF STOP CALLER "
				},
				"gasEstimates": {
					"creation": {
						"codeDepositCost": "1267000",
						"executionCost": "1315",
						"totalCost": "1268315"
					},
					"external": {
						"createCrowdfunding(string,address,string)": "infinite",
						"getCrowdfundingByStatus(uint256)": "infinite",
						"getList()": "infinite",
						"list(uint256)": "infinite",
						"setStatus(uint256,uint256)": "infinite"
					}
				},
				"methodIdentifiers": {
					"createCrowdfunding(string,address,string)": "a97af4d5",
					"getCrowdfundingByStatus(uint256)": "904cc175",
					"getList()": "942b765a",
					"list(uint256)": "80c9419e",
					"setStatus(uint256,uint256)": "82e40813"
				}
			},
			"storageLayout": {
				"storage": [
					{
						"astId": 3,
						"contract": "crowdfunding.sol:CrowdfundingContract",
						"label": "No",
						"offset": 0,
						"slot": "0",
						"type": "t_uint256"
					},
					{
						"astId": 24,
						"contract": "crowdfunding.sol:CrowdfundingContract",
						"label": "list",
						"offset": 0,
						"slot": "1",
						"type": "t_array(t_struct(Crowdfunding)20_storage)dyn_storage"
					},
					{
						"astId": 30,
						"contract": "crowdfunding.sol:CrowdfundingContract",
						"label": "filterDataByStatus",
						"offset": 0,
						"slot": "2",
						"type": "t_mapping(t_uint256,t_array(t_struct(Crowdfunding)20_storage)dyn_storage)"
					}
				],
				"types": {
					"t_address": {
						"encoding": "inplace",
						"label": "address",
						"numberOfBytes": "20"
					},
					"t_array(t_struct(Crowdfunding)20_storage)dyn_storage": {
						"base": "t_struct(Crowdfunding)20_storage",
						"encoding": "dynamic_array",
						"label": "struct CrowdfundingContract.Crowdfunding[]",
						"numberOfBytes": "32"
					},
					"t_mapping(t_uint256,t_array(t_struct(Crowdfunding)20_storage)dyn_storage)": {
						"encoding": "mapping",
						"key": "t_uint256",
						"label": "mapping(uint256 => struct CrowdfundingContract.Crowdfunding[])",
						"numberOfBytes": "32",
						"value": "t_array(t_struct(Crowdfunding)20_storage)dyn_storage"
					},
					"t_string_storage": {
						"encoding": "bytes",
						"label": "string",
						"numberOfBytes": "32"
					},
					"t_struct(Crowdfunding)20_storage": {
						"encoding": "inplace",
						"label": "struct CrowdfundingContract.Crowdfunding",
						"members": [
							{
								"astId": 5,
								"contract": "crowdfunding.sol:CrowdfundingContract",
								"label": "num",
								"offset": 0,
								"slot": "0",
								"type": "t_uint256"
							},
							{
								"astId": 7,
								"contract": "crowdfunding.sol:CrowdfundingContract",
								"label": "title",
								"offset": 0,
								"slot": "1",
								"type": "t_string_storage"
							},
							{
								"astId": 9,
								"contract": "crowdfunding.sol:CrowdfundingContract",
								"label": "status",
								"offset": 0,
								"slot": "2",
								"type": "t_uint256"
							},
							{
								"astId": 11,
								"contract": "crowdfunding.sol:CrowdfundingContract",
								"label": "creator",
								"offset": 0,
								"slot": "3",
								"type": "t_address"
							},
							{
								"astId": 13,
								"contract": "crowdfunding.sol:CrowdfundingContract",
								"label": "recipient",
								"offset": 0,
								"slot": "4",
								"type": "t_address"
							},
							{
								"astId": 15,
								"contract": "crowdfunding.sol:CrowdfundingContract",
								"label": "joinNum",
								"offset": 0,
								"slot": "5",
								"type": "t_uint256"
							},
							{
								"astId": 17,
								"contract": "crowdfunding.sol:CrowdfundingContract",
								"label": "expectAmout",
								"offset": 0,
								"slot": "6",
								"type": "t_string_storage"
							},
							{
								"astId": 19,
								"contract": "crowdfunding.sol:CrowdfundingContract",
								"label": "actualAmount",
								"offset": 0,
								"slot": "7",
								"type": "t_string_storage"
							}
						],
						"numberOfBytes": "256"
					},
					"t_uint256": {
						"encoding": "inplace",
						"label": "uint256",
						"numberOfBytes": "32"
					}
				}
			},
			"userdoc": {
				"kind": "user",
				"methods": {},
				"version": 1
			}
		}
	}
}