{
	"string.sol": {
		"StringTest": {
			"abi": [
				{
					"inputs": [
						{
							"internalType": "string",
							"name": "s",
							"type": "string"
						}
					],
					"name": "stringToInt",
					"outputs": [
						{
							"internalType": "string",
							"name": "",
							"type": "string"
						},
						{
							"internalType": "uint256",
							"name": "",
							"type": "uint256"
						}
					],
					"stateMutability": "pure",
					"type": "function"
				}
			],
			"devdoc": {
				"kind": "dev",
				"methods": {},
				"version": 1
			},
			"evm": {
				"assembly": "    /* \"string.sol\":60:484  contract StringTest {\r... */\n  mstore(0x40, 0x80)\n  callvalue\n  dup1\n  iszero\n  tag_1\n  jumpi\n  0x00\n  dup1\n  revert\ntag_1:\n  pop\n  dataSize(sub_0)\n  dup1\n  dataOffset(sub_0)\n  0x00\n  codecopy\n  0x00\n  return\nstop\n\nsub_0: assembly {\n        /* \"string.sol\":60:484  contract StringTest {\r... */\n      mstore(0x40, 0x80)\n      callvalue\n      dup1\n      iszero\n      tag_1\n      jumpi\n      0x00\n      dup1\n      revert\n    tag_1:\n      pop\n      jumpi(tag_2, lt(calldatasize, 0x04))\n      shr(0xe0, calldataload(0x00))\n      dup1\n      0xf8a02d84\n      eq\n      tag_3\n      jumpi\n    tag_2:\n      0x00\n      dup1\n      revert\n        /* \"string.sol\":93:481  function stringToInt(string memory s) public pure returns (string memory,uint){\r... */\n    tag_3:\n      tag_4\n      0x04\n      dup1\n      calldatasize\n      sub\n      dup2\n      add\n      swap1\n      tag_5\n      swap2\n      swap1\n      tag_6\n      jump\t// in\n    tag_5:\n      tag_7\n      jump\t// in\n    tag_4:\n      mload(0x40)\n      tag_8\n      swap3\n      swap2\n      swap1\n      tag_9\n      jump\t// in\n    tag_8:\n      mload(0x40)\n      dup1\n      swap2\n      sub\n      swap1\n      return\n    tag_7:\n        /* \"string.sol\":152:165  string memory */\n      0x60\n        /* \"string.sol\":166:170  uint */\n      0x00\n        /* \"string.sol\":182:196  bytes memory b */\n      dup1\n        /* \"string.sol\":205:206  s */\n      dup4\n        /* \"string.sol\":182:207  bytes memory b = bytes(s) */\n      swap1\n      pop\n        /* \"string.sol\":218:229  uint result */\n      0x00\n        /* \"string.sol\":249:258  uint256 i */\n      dup1\n        /* \"string.sol\":244:446  for (uint256 i = 0; i < b.length; i++) {\r... */\n    tag_11:\n        /* \"string.sol\":268:269  b */\n      dup3\n        /* \"string.sol\":268:276  b.length */\n      mload\n        /* \"string.sol\":264:265  i */\n      dup2\n        /* \"string.sol\":264:276  i < b.length */\n      lt\n        /* \"string.sol\":244:446  for (uint256 i = 0; i < b.length; i++) {\r... */\n      iszero\n      tag_12\n      jumpi\n        /* \"string.sol\":298:307  uint256 c */\n      0x00\n        /* \"string.sol\":324:325  b */\n      dup4\n        /* \"string.sol\":326:327  i */\n      dup3\n        /* \"string.sol\":324:328  b[i] */\n      dup2\n      mload\n      dup2\n      lt\n      tag_14\n      jumpi\n      tag_15\n      tag_16\n      jump\t// in\n    tag_15:\n    tag_14:\n      0x20\n      add\n      add\n      mload\n      0xf8\n      shr\n      0xf8\n      shl\n        /* \"string.sol\":318:329  uint8(b[i]) */\n      0xf8\n      shr\n        /* \"string.sol\":310:330  uint256(uint8(b[i])) */\n      0xff\n      and\n        /* \"string.sol\":298:330  uint256 c = uint256(uint8(b[i])) */\n      swap1\n      pop\n        /* \"string.sol\":354:356  48 */\n      0x30\n        /* \"string.sol\":349:350  c */\n      dup2\n        /* \"string.sol\":349:356  c >= 48 */\n      lt\n      iszero\n        /* \"string.sol\":349:367  c >= 48 && c <= 57 */\n      dup1\n      iszero\n      tag_17\n      jumpi\n      pop\n        /* \"string.sol\":365:367  57 */\n      0x39\n        /* \"string.sol\":360:361  c */\n      dup2\n        /* \"string.sol\":360:367  c <= 57 */\n      gt\n      iszero\n        /* \"string.sol\":349:367  c >= 48 && c <= 57 */\n    tag_17:\n        /* \"string.sol\":345:435  if (c >= 48 && c <= 57) {\r... */\n      iszero\n      tag_18\n      jumpi\n        /* \"string.sol\":416:418  48 */\n      0x30\n        /* \"string.sol\":412:413  c */\n      dup2\n        /* \"string.sol\":412:418  c - 48 */\n      tag_19\n      swap2\n      swap1\n      tag_20\n      jump\t// in\n    tag_19:\n        /* \"string.sol\":406:408  10 */\n      0x0a\n        /* \"string.sol\":397:403  result */\n      dup5\n        /* \"string.sol\":397:408  result * 10 */\n      tag_21\n      swap2\n      swap1\n      tag_22\n      jump\t// in\n    tag_21:\n        /* \"string.sol\":397:419  result * 10 + (c - 48) */\n      tag_23\n      swap2\n      swap1\n      tag_24\n      jump\t// in\n    tag_23:\n        /* \"string.sol\":388:419  result = result * 10 + (c - 48) */\n      swap3\n      pop\n        /* \"string.sol\":345:435  if (c >= 48 && c <= 57) {\r... */\n    tag_18:\n        /* \"string.sol\":283:446  {\r... */\n      pop\n        /* \"string.sol\":278:281  i++ */\n      dup1\n      dup1\n      tag_25\n      swap1\n      tag_26\n      jump\t// in\n    tag_25:\n      swap2\n      pop\n      pop\n        /* \"string.sol\":244:446  for (uint256 i = 0; i < b.length; i++) {\r... */\n      jump(tag_11)\n    tag_12:\n      pop\n        /* \"string.sol\":464:465  s */\n      dup5\n        /* \"string.sol\":466:472  result */\n      dup2\n        /* \"string.sol\":456:473  return (s,result) */\n      swap4\n      pop\n      swap4\n      pop\n      pop\n      pop\n        /* \"string.sol\":93:481  function stringToInt(string memory s) public pure returns (string memory,uint){\r... */\n      swap2\n      pop\n      swap2\n      jump\t// out\n        /* \"#utility.yul\":7:419   */\n    tag_28:\n        /* \"#utility.yul\":85:90   */\n      0x00\n        /* \"#utility.yul\":110:176   */\n      tag_30\n        /* \"#utility.yul\":126:175   */\n      tag_31\n        /* \"#utility.yul\":168:174   */\n      dup5\n        /* \"#utility.yul\":126:175   */\n      tag_32\n      jump\t// in\n    tag_31:\n        /* \"#utility.yul\":110:176   */\n      tag_33\n      jump\t// in\n    tag_30:\n        /* \"#utility.yul\":101:176   */\n      swap1\n      pop\n        /* \"#utility.yul\":199:205   */\n      dup3\n        /* \"#utility.yul\":192:197   */\n      dup2\n        /* \"#utility.yul\":185:206   */\n      mstore\n        /* \"#utility.yul\":237:241   */\n      0x20\n        /* \"#utility.yul\":230:235   */\n      dup2\n        /* \"#utility.yul\":226:242   */\n      add\n        /* \"#utility.yul\":275:278   */\n      dup5\n        /* \"#utility.yul\":266:272   */\n      dup5\n        /* \"#utility.yul\":261:264   */\n      dup5\n        /* \"#utility.yul\":257:273   */\n      add\n        /* \"#utility.yul\":254:279   */\n      gt\n        /* \"#utility.yul\":251:363   */\n      iszero\n      tag_34\n      jumpi\n        /* \"#utility.yul\":282:361   */\n      tag_35\n      tag_36\n      jump\t// in\n    tag_35:\n        /* \"#utility.yul\":251:363   */\n    tag_34:\n        /* \"#utility.yul\":372:413   */\n      tag_37\n        /* \"#utility.yul\":406:412   */\n      dup5\n        /* \"#utility.yul\":401:404   */\n      dup3\n        /* \"#utility.yul\":396:399   */\n      dup6\n        /* \"#utility.yul\":372:413   */\n      tag_38\n      jump\t// in\n    tag_37:\n        /* \"#utility.yul\":91:419   */\n      pop\n        /* \"#utility.yul\":7:419   */\n      swap4\n      swap3\n      pop\n      pop\n      pop\n      jump\t// out\n        /* \"#utility.yul\":439:779   */\n    tag_39:\n        /* \"#utility.yul\":495:500   */\n      0x00\n        /* \"#utility.yul\":544:547   */\n      dup3\n        /* \"#utility.yul\":537:541   */\n      0x1f\n        /* \"#utility.yul\":529:535   */\n      dup4\n        /* \"#utility.yul\":525:542   */\n      add\n        /* \"#utility.yul\":521:548   */\n      slt\n        /* \"#utility.yul\":511:633   */\n      tag_41\n      jumpi\n        /* \"#utility.yul\":552:631   */\n      tag_42\n      tag_43\n      jump\t// in\n    tag_42:\n        /* \"#utility.yul\":511:633   */\n    tag_41:\n        /* \"#utility.yul\":669:675   */\n      dup2\n        /* \"#utility.yul\":656:676   */\n      calldataload\n        /* \"#utility.yul\":694:773   */\n      tag_44\n        /* \"#utility.yul\":769:772   */\n      dup5\n        /* \"#utility.yul\":761:767   */\n      dup3\n        /* \"#utility.yul\":754:758   */\n      0x20\n        /* \"#utility.yul\":746:752   */\n      dup7\n        /* \"#utility.yul\":742:759   */\n      add\n        /* \"#utility.yul\":694:773   */\n      tag_28\n      jump\t// in\n    tag_44:\n        /* \"#utility.yul\":685:773   */\n      swap2\n      pop\n        /* \"#utility.yul\":501:779   */\n      pop\n        /* \"#utility.yul\":439:779   */\n      swap3\n      swap2\n      pop\n      pop\n      jump\t// out\n        /* \"#utility.yul\":785:1294   */\n    tag_6:\n        /* \"#utility.yul\":854:860   */\n      0x00\n        /* \"#utility.yul\":903:905   */\n      0x20\n        /* \"#utility.yul\":891:900   */\n      dup3\n        /* \"#utility.yul\":882:889   */\n      dup5\n        /* \"#utility.yul\":878:901   */\n      sub\n        /* \"#utility.yul\":874:906   */\n      slt\n        /* \"#utility.yul\":871:990   */\n      iszero\n      tag_46\n      jumpi\n        /* \"#utility.yul\":909:988   */\n      tag_47\n      tag_48\n      jump\t// in\n    tag_47:\n        /* \"#utility.yul\":871:990   */\n    tag_46:\n        /* \"#utility.yul\":1057:1058   */\n      0x00\n        /* \"#utility.yul\":1046:1055   */\n      dup3\n        /* \"#utility.yul\":1042:1059   */\n      add\n        /* \"#utility.yul\":1029:1060   */\n      calldataload\n        /* \"#utility.yul\":1087:1105   */\n      0xffffffffffffffff\n        /* \"#utility.yul\":1079:1085   */\n      dup2\n        /* \"#utility.yul\":1076:1106   */\n      gt\n        /* \"#utility.yul\":1073:1190   */\n      iszero\n      tag_49\n      jumpi\n        /* \"#utility.yul\":1109:1188   */\n      tag_50\n      tag_51\n      jump\t// in\n    tag_50:\n        /* \"#utility.yul\":1073:1190   */\n    tag_49:\n        /* \"#utility.yul\":1214:1277   */\n      tag_52\n        /* \"#utility.yul\":1269:1276   */\n      dup5\n        /* \"#utility.yul\":1260:1266   */\n      dup3\n        /* \"#utility.yul\":1249:1258   */\n      dup6\n        /* \"#utility.yul\":1245:1267   */\n      add\n        /* \"#utility.yul\":1214:1277   */\n      tag_39\n      jump\t// in\n    tag_52:\n        /* \"#utility.yul\":1204:1277   */\n      swap2\n      pop\n        /* \"#utility.yul\":1000:1287   */\n      pop\n        /* \"#utility.yul\":785:1294   */\n      swap3\n      swap2\n      pop\n      pop\n      jump\t// out\n        /* \"#utility.yul\":1300:1664   */\n    tag_53:\n        /* \"#utility.yul\":1388:1391   */\n      0x00\n        /* \"#utility.yul\":1416:1455   */\n      tag_55\n        /* \"#utility.yul\":1449:1454   */\n      dup3\n        /* \"#utility.yul\":1416:1455   */\n      tag_56\n      jump\t// in\n    tag_55:\n        /* \"#utility.yul\":1471:1542   */\n      tag_57\n        /* \"#utility.yul\":1535:1541   */\n      dup2\n        /* \"#utility.yul\":1530:1533   */\n      dup6\n        /* \"#utility.yul\":1471:1542   */\n      tag_58\n      jump\t// in\n    tag_57:\n        /* \"#utility.yul\":1464:1542   */\n      swap4\n      pop\n        /* \"#utility.yul\":1551:1603   */\n      tag_59\n        /* \"#utility.yul\":1596:1602   */\n      dup2\n        /* \"#utility.yul\":1591:1594   */\n      dup6\n        /* \"#utility.yul\":1584:1588   */\n      0x20\n        /* \"#utility.yul\":1577:1582   */\n      dup7\n        /* \"#utility.yul\":1573:1589   */\n      add\n        /* \"#utility.yul\":1551:1603   */\n      tag_60\n      jump\t// in\n    tag_59:\n        /* \"#utility.yul\":1628:1657   */\n      tag_61\n        /* \"#utility.yul\":1650:1656   */\n      dup2\n        /* \"#utility.yul\":1628:1657   */\n      tag_62\n      jump\t// in\n    tag_61:\n        /* \"#utility.yul\":1623:1626   */\n      dup5\n        /* \"#utility.yul\":1619:1658   */\n      add\n        /* \"#utility.yul\":1612:1658   */\n      swap2\n      pop\n        /* \"#utility.yul\":1392:1664   */\n      pop\n        /* \"#utility.yul\":1300:1664   */\n      swap3\n      swap2\n      pop\n      pop\n      jump\t// out\n        /* \"#utility.yul\":1670:1788   */\n    tag_63:\n        /* \"#utility.yul\":1757:1781   */\n      tag_65\n        /* \"#utility.yul\":1775:1780   */\n      dup2\n        /* \"#utility.yul\":1757:1781   */\n      tag_66\n      jump\t// in\n    tag_65:\n        /* \"#utility.yul\":1752:1755   */\n      dup3\n        /* \"#utility.yul\":1745:1782   */\n      mstore\n        /* \"#utility.yul\":1670:1788   */\n      pop\n      pop\n      jump\t// out\n        /* \"#utility.yul\":1794:2217   */\n    tag_9:\n        /* \"#utility.yul\":1935:1939   */\n      0x00\n        /* \"#utility.yul\":1973:1975   */\n      0x40\n        /* \"#utility.yul\":1962:1971   */\n      dup3\n        /* \"#utility.yul\":1958:1976   */\n      add\n        /* \"#utility.yul\":1950:1976   */\n      swap1\n      pop\n        /* \"#utility.yul\":2022:2031   */\n      dup2\n        /* \"#utility.yul\":2016:2020   */\n      dup2\n        /* \"#utility.yul\":2012:2032   */\n      sub\n        /* \"#utility.yul\":2008:2009   */\n      0x00\n        /* \"#utility.yul\":1997:2006   */\n      dup4\n        /* \"#utility.yul\":1993:2010   */\n      add\n        /* \"#utility.yul\":1986:2033   */\n      mstore\n        /* \"#utility.yul\":2050:2128   */\n      tag_68\n        /* \"#utility.yul\":2123:2127   */\n      dup2\n        /* \"#utility.yul\":2114:2120   */\n      dup6\n        /* \"#utility.yul\":2050:2128   */\n      tag_53\n      jump\t// in\n    tag_68:\n        /* \"#utility.yul\":2042:2128   */\n      swap1\n      pop\n        /* \"#utility.yul\":2138:2210   */\n      tag_69\n        /* \"#utility.yul\":2206:2208   */\n      0x20\n        /* \"#utility.yul\":2195:2204   */\n      dup4\n        /* \"#utility.yul\":2191:2209   */\n      add\n        /* \"#utility.yul\":2182:2188   */\n      dup5\n        /* \"#utility.yul\":2138:2210   */\n      tag_63\n      jump\t// in\n    tag_69:\n        /* \"#utility.yul\":1794:2217   */\n      swap4\n      swap3\n      pop\n      pop\n      pop\n      jump\t// out\n        /* \"#utility.yul\":2223:2352   */\n    tag_33:\n        /* \"#utility.yul\":2257:2263   */\n      0x00\n        /* \"#utility.yul\":2284:2304   */\n      tag_71\n      tag_72\n      jump\t// in\n    tag_71:\n        /* \"#utility.yul\":2274:2304   */\n      swap1\n      pop\n        /* \"#utility.yul\":2313:2346   */\n      tag_73\n        /* \"#utility.yul\":2341:2345   */\n      dup3\n        /* \"#utility.yul\":2333:2339   */\n      dup3\n        /* \"#utility.yul\":2313:2346   */\n      tag_74\n      jump\t// in\n    tag_73:\n        /* \"#utility.yul\":2223:2352   */\n      swap2\n      swap1\n      pop\n      jump\t// out\n        /* \"#utility.yul\":2358:2433   */\n    tag_72:\n        /* \"#utility.yul\":2391:2397   */\n      0x00\n        /* \"#utility.yul\":2424:2426   */\n      0x40\n        /* \"#utility.yul\":2418:2427   */\n      mload\n        /* \"#utility.yul\":2408:2427   */\n      swap1\n      pop\n        /* \"#utility.yul\":2358:2433   */\n      swap1\n      jump\t// out\n        /* \"#utility.yul\":2439:2747   */\n    tag_32:\n        /* \"#utility.yul\":2501:2505   */\n      0x00\n        /* \"#utility.yul\":2591:2609   */\n      0xffffffffffffffff\n        /* \"#utility.yul\":2583:2589   */\n      dup3\n        /* \"#utility.yul\":2580:2610   */\n      gt\n        /* \"#utility.yul\":2577:2633   */\n      iszero\n      tag_77\n      jumpi\n        /* \"#utility.yul\":2613:2631   */\n      tag_78\n      tag_79\n      jump\t// in\n    tag_78:\n        /* \"#utility.yul\":2577:2633   */\n    tag_77:\n        /* \"#utility.yul\":2651:2680   */\n      tag_80\n        /* \"#utility.yul\":2673:2679   */\n      dup3\n        /* \"#utility.yul\":2651:2680   */\n      tag_62\n      jump\t// in\n    tag_80:\n        /* \"#utility.yul\":2643:2680   */\n      swap1\n      pop\n        /* \"#utility.yul\":2735:2739   */\n      0x20\n        /* \"#utility.yul\":2729:2733   */\n      dup2\n        /* \"#utility.yul\":2725:2740   */\n      add\n        /* \"#utility.yul\":2717:2740   */\n      swap1\n      pop\n        /* \"#utility.yul\":2439:2747   */\n      swap2\n      swap1\n      pop\n      jump\t// out\n        /* \"#utility.yul\":2753:2852   */\n    tag_56:\n        /* \"#utility.yul\":2805:2811   */\n      0x00\n        /* \"#utility.yul\":2839:2844   */\n      dup2\n        /* \"#utility.yul\":2833:2845   */\n      mload\n        /* \"#utility.yul\":2823:2845   */\n      swap1\n      pop\n        /* \"#utility.yul\":2753:2852   */\n      swap2\n      swap1\n      pop\n      jump\t// out\n        /* \"#utility.yul\":2858:3027   */\n    tag_58:\n        /* \"#utility.yul\":2942:2953   */\n      0x00\n        /* \"#utility.yul\":2976:2982   */\n      dup3\n        /* \"#utility.yul\":2971:2974   */\n      dup3\n        /* \"#utility.yul\":2964:2983   */\n      mstore\n        /* \"#utility.yul\":3016:3020   */\n      0x20\n        /* \"#utility.yul\":3011:3014   */\n      dup3\n        /* \"#utility.yul\":3007:3021   */\n      add\n        /* \"#utility.yul\":2992:3021   */\n      swap1\n      pop\n        /* \"#utility.yul\":2858:3027   */\n      swap3\n      swap2\n      pop\n      pop\n      jump\t// out\n        /* \"#utility.yul\":3033:3338   */\n    tag_24:\n        /* \"#utility.yul\":3073:3076   */\n      0x00\n        /* \"#utility.yul\":3092:3112   */\n      tag_84\n        /* \"#utility.yul\":3110:3111   */\n      dup3\n        /* \"#utility.yul\":3092:3112   */\n      tag_66\n      jump\t// in\n    tag_84:\n        /* \"#utility.yul\":3087:3112   */\n      swap2\n      pop\n        /* \"#utility.yul\":3126:3146   */\n      tag_85\n        /* \"#utility.yul\":3144:3145   */\n      dup4\n        /* \"#utility.yul\":3126:3146   */\n      tag_66\n      jump\t// in\n    tag_85:\n        /* \"#utility.yul\":3121:3146   */\n      swap3\n      pop\n        /* \"#utility.yul\":3280:3281   */\n      dup3\n        /* \"#utility.yul\":3212:3278   */\n      0xffffffffffffffffffffffffffffffffffffffffffffffffffffffffffffffff\n        /* \"#utility.yul\":3208:3282   */\n      sub\n        /* \"#utility.yul\":3205:3206   */\n      dup3\n        /* \"#utility.yul\":3202:3283   */\n      gt\n        /* \"#utility.yul\":3199:3306   */\n      iszero\n      tag_86\n      jumpi\n        /* \"#utility.yul\":3286:3304   */\n      tag_87\n      tag_88\n      jump\t// in\n    tag_87:\n        /* \"#utility.yul\":3199:3306   */\n    tag_86:\n        /* \"#utility.yul\":3330:3331   */\n      dup3\n        /* \"#utility.yul\":3327:3328   */\n      dup3\n        /* \"#utility.yul\":3323:3332   */\n      add\n        /* \"#utility.yul\":3316:3332   */\n      swap1\n      pop\n        /* \"#utility.yul\":3033:3338   */\n      swap3\n      swap2\n      pop\n      pop\n      jump\t// out\n        /* \"#utility.yul\":3344:3692   */\n    tag_22:\n        /* \"#utility.yul\":3384:3391   */\n      0x00\n        /* \"#utility.yul\":3407:3427   */\n      tag_90\n        /* \"#utility.yul\":3425:3426   */\n      dup3\n        /* \"#utility.yul\":3407:3427   */\n      tag_66\n      jump\t// in\n    tag_90:\n        /* \"#utility.yul\":3402:3427   */\n      swap2\n      pop\n        /* \"#utility.yul\":3441:3461   */\n      tag_91\n        /* \"#utility.yul\":3459:3460   */\n      dup4\n        /* \"#utility.yul\":3441:3461   */\n      tag_66\n      jump\t// in\n    tag_91:\n        /* \"#utility.yul\":3436:3461   */\n      swap3\n      pop\n        /* \"#utility.yul\":3629:3630   */\n      dup2\n        /* \"#utility.yul\":3561:3627   */\n      0xffffffffffffffffffffffffffffffffffffffffffffffffffffffffffffffff\n        /* \"#utility.yul\":3557:3631   */\n      div\n        /* \"#utility.yul\":3554:3555   */\n      dup4\n        /* \"#utility.yul\":3551:3632   */\n      gt\n        /* \"#utility.yul\":3546:3547   */\n      dup3\n        /* \"#utility.yul\":3539:3548   */\n      iszero\n        /* \"#utility.yul\":3532:3549   */\n      iszero\n        /* \"#utility.yul\":3528:3633   */\n      and\n        /* \"#utility.yul\":3525:3656   */\n      iszero\n      tag_92\n      jumpi\n        /* \"#utility.yul\":3636:3654   */\n      tag_93\n      tag_88\n      jump\t// in\n    tag_93:\n        /* \"#utility.yul\":3525:3656   */\n    tag_92:\n        /* \"#utility.yul\":3684:3685   */\n      dup3\n        /* \"#utility.yul\":3681:3682   */\n      dup3\n        /* \"#utility.yul\":3677:3686   */\n      mul\n        /* \"#utility.yul\":3666:3686   */\n      swap1\n      pop\n        /* \"#utility.yul\":3344:3692   */\n      swap3\n      swap2\n      pop\n      pop\n      jump\t// out\n        /* \"#utility.yul\":3698:3889   */\n    tag_20:\n        /* \"#utility.yul\":3738:3742   */\n      0x00\n        /* \"#utility.yul\":3758:3778   */\n      tag_95\n        /* \"#utility.yul\":3776:3777   */\n      dup3\n        /* \"#utility.yul\":3758:3778   */\n      tag_66\n      jump\t// in\n    tag_95:\n        /* \"#utility.yul\":3753:3778   */\n      swap2\n      pop\n        /* \"#utility.yul\":3792:3812   */\n      tag_96\n        /* \"#utility.yul\":3810:3811   */\n      dup4\n        /* \"#utility.yul\":3792:3812   */\n      tag_66\n      jump\t// in\n    tag_96:\n        /* \"#utility.yul\":3787:3812   */\n      swap3\n      pop\n        /* \"#utility.yul\":3831:3832   */\n      dup3\n        /* \"#utility.yul\":3828:3829   */\n      dup3\n        /* \"#utility.yul\":3825:3833   */\n      lt\n        /* \"#utility.yul\":3822:3856   */\n      iszero\n      tag_97\n      jumpi\n        /* \"#utility.yul\":3836:3854   */\n      tag_98\n      tag_88\n      jump\t// in\n    tag_98:\n        /* \"#utility.yul\":3822:3856   */\n    tag_97:\n        /* \"#utility.yul\":3881:3882   */\n      dup3\n        /* \"#utility.yul\":3878:3879   */\n      dup3\n        /* \"#utility.yul\":3874:3883   */\n      sub\n        /* \"#utility.yul\":3866:3883   */\n      swap1\n      pop\n        /* \"#utility.yul\":3698:3889   */\n      swap3\n      swap2\n      pop\n      pop\n      jump\t// out\n        /* \"#utility.yul\":3895:3972   */\n    tag_66:\n        /* \"#utility.yul\":3932:3939   */\n      0x00\n        /* \"#utility.yul\":3961:3966   */\n      dup2\n        /* \"#utility.yul\":3950:3966   */\n      swap1\n      pop\n        /* \"#utility.yul\":3895:3972   */\n      swap2\n      swap1\n      pop\n      jump\t// out\n        /* \"#utility.yul\":3978:4132   */\n    tag_38:\n        /* \"#utility.yul\":4062:4068   */\n      dup3\n        /* \"#utility.yul\":4057:4060   */\n      dup2\n        /* \"#utility.yul\":4052:4055   */\n      dup4\n        /* \"#utility.yul\":4039:4069   */\n      calldatacopy\n        /* \"#utility.yul\":4124:4125   */\n      0x00\n        /* \"#utility.yul\":4115:4121   */\n      dup4\n        /* \"#utility.yul\":4110:4113   */\n      dup4\n        /* \"#utility.yul\":4106:4122   */\n      add\n        /* \"#utility.yul\":4099:4126   */\n      mstore\n        /* \"#utility.yul\":3978:4132   */\n      pop\n      pop\n      pop\n      jump\t// out\n        /* \"#utility.yul\":4138:4445   */\n    tag_60:\n        /* \"#utility.yul\":4206:4207   */\n      0x00\n        /* \"#utility.yul\":4216:4329   */\n    tag_102:\n        /* \"#utility.yul\":4230:4236   */\n      dup4\n        /* \"#utility.yul\":4227:4228   */\n      dup2\n        /* \"#utility.yul\":4224:4237   */\n      lt\n        /* \"#utility.yul\":4216:4329   */\n      iszero\n      tag_104\n      jumpi\n        /* \"#utility.yul\":4315:4316   */\n      dup1\n        /* \"#utility.yul\":4310:4313   */\n      dup3\n        /* \"#utility.yul\":4306:4317   */\n      add\n        /* \"#utility.yul\":4300:4318   */\n      mload\n        /* \"#utility.yul\":4296:4297   */\n      dup2\n        /* \"#utility.yul\":4291:4294   */\n      dup5\n        /* \"#utility.yul\":4287:4298   */\n      add\n        /* \"#utility.yul\":4280:4319   */\n      mstore\n        /* \"#utility.yul\":4252:4254   */\n      0x20\n        /* \"#utility.yul\":4249:4250   */\n      dup2\n        /* \"#utility.yul\":4245:4255   */\n      add\n        /* \"#utility.yul\":4240:4255   */\n      swap1\n      pop\n        /* \"#utility.yul\":4216:4329   */\n      jump(tag_102)\n    tag_104:\n        /* \"#utility.yul\":4347:4353   */\n      dup4\n        /* \"#utility.yul\":4344:4345   */\n      dup2\n        /* \"#utility.yul\":4341:4354   */\n      gt\n        /* \"#utility.yul\":4338:4439   */\n      iszero\n      tag_105\n      jumpi\n        /* \"#utility.yul\":4427:4428   */\n      0x00\n        /* \"#utility.yul\":4418:4424   */\n      dup5\n        /* \"#utility.yul\":4413:4416   */\n      dup5\n        /* \"#utility.yul\":4409:4425   */\n      add\n        /* \"#utility.yul\":4402:4429   */\n      mstore\n        /* \"#utility.yul\":4338:4439   */\n    tag_105:\n        /* \"#utility.yul\":4187:4445   */\n      pop\n        /* \"#utility.yul\":4138:4445   */\n      pop\n      pop\n      pop\n      jump\t// out\n        /* \"#utility.yul\":4451:4732   */\n    tag_74:\n        /* \"#utility.yul\":4534:4561   */\n      tag_107\n        /* \"#utility.yul\":4556:4560   */\n      dup3\n        /* \"#utility.yul\":4534:4561   */\n      tag_62\n      jump\t// in\n    tag_107:\n        /* \"#utility.yul\":4526:4532   */\n      dup2\n        /* \"#utility.yul\":4522:4562   */\n      add\n        /* \"#utility.yul\":4664:4670   */\n      dup2\n        /* \"#utility.yul\":4652:4662   */\n      dup2\n        /* \"#utility.yul\":4649:4671   */\n      lt\n        /* \"#utility.yul\":4628:4646   */\n      0xffffffffffffffff\n        /* \"#utility.yul\":4616:4626   */\n      dup3\n        /* \"#utility.yul\":4613:4647   */\n      gt\n        /* \"#utility.yul\":4610:4672   */\n      or\n        /* \"#utility.yul\":4607:4695   */\n      iszero\n      tag_108\n      jumpi\n        /* \"#utility.yul\":4675:4693   */\n      tag_109\n      tag_79\n      jump\t// in\n    tag_109:\n        /* \"#utility.yul\":4607:4695   */\n    tag_108:\n        /* \"#utility.yul\":4715:4725   */\n      dup1\n        /* \"#utility.yul\":4711:4713   */\n      0x40\n        /* \"#utility.yul\":4704:4726   */\n      mstore\n        /* \"#utility.yul\":4494:4732   */\n      pop\n        /* \"#utility.yul\":4451:4732   */\n      pop\n      pop\n      jump\t// out\n        /* \"#utility.yul\":4738:4971   */\n    tag_26:\n        /* \"#utility.yul\":4777:4780   */\n      0x00\n        /* \"#utility.yul\":4800:4824   */\n      tag_111\n        /* \"#utility.yul\":4818:4823   */\n      dup3\n        /* \"#utility.yul\":4800:4824   */\n      tag_66\n      jump\t// in\n    tag_111:\n        /* \"#utility.yul\":4791:4824   */\n      swap2\n      pop\n        /* \"#utility.yul\":4846:4912   */\n      0xffffffffffffffffffffffffffffffffffffffffffffffffffffffffffffffff\n        /* \"#utility.yul\":4839:4844   */\n      dup3\n        /* \"#utility.yul\":4836:4913   */\n      eq\n        /* \"#utility.yul\":4833:4936   */\n      iszero\n      tag_112\n      jumpi\n        /* \"#utility.yul\":4916:4934   */\n      tag_113\n      tag_88\n      jump\t// in\n    tag_113:\n        /* \"#utility.yul\":4833:4936   */\n    tag_112:\n        /* \"#utility.yul\":4963:4964   */\n      0x01\n        /* \"#utility.yul\":4956:4961   */\n      dup3\n        /* \"#utility.yul\":4952:4965   */\n      add\n        /* \"#utility.yul\":4945:4965   */\n      swap1\n      pop\n        /* \"#utility.yul\":4738:4971   */\n      swap2\n      swap1\n      pop\n      jump\t// out\n        /* \"#utility.yul\":4977:5157   */\n    tag_88:\n        /* \"#utility.yul\":5025:5102   */\n      0x4e487b7100000000000000000000000000000000000000000000000000000000\n        /* \"#utility.yul\":5022:5023   */\n      0x00\n        /* \"#utility.yul\":5015:5103   */\n      mstore\n        /* \"#utility.yul\":5122:5126   */\n      0x11\n        /* \"#utility.yul\":5119:5120   */\n      0x04\n        /* \"#utility.yul\":5112:5127   */\n      mstore\n        /* \"#utility.yul\":5146:5150   */\n      0x24\n        /* \"#utility.yul\":5143:5144   */\n      0x00\n        /* \"#utility.yul\":5136:5151   */\n      revert\n        /* \"#utility.yul\":5163:5343   */\n    tag_16:\n        /* \"#utility.yul\":5211:5288   */\n      0x4e487b7100000000000000000000000000000000000000000000000000000000\n        /* \"#utility.yul\":5208:5209   */\n      0x00\n        /* \"#utility.yul\":5201:5289   */\n      mstore\n        /* \"#utility.yul\":5308:5312   */\n      0x32\n        /* \"#utility.yul\":5305:5306   */\n      0x04\n        /* \"#utility.yul\":5298:5313   */\n      mstore\n        /* \"#utility.yul\":5332:5336   */\n      0x24\n        /* \"#utility.yul\":5329:5330   */\n      0x00\n        /* \"#utility.yul\":5322:5337   */\n      revert\n        /* \"#utility.yul\":5349:5529   */\n    tag_79:\n        /* \"#utility.yul\":5397:5474   */\n      0x4e487b7100000000000000000000000000000000000000000000000000000000\n        /* \"#utility.yul\":5394:5395   */\n      0x00\n        /* \"#utility.yul\":5387:5475   */\n      mstore\n        /* \"#utility.yul\":5494:5498   */\n      0x41\n        /* \"#utility.yul\":5491:5492   */\n      0x04\n        /* \"#utility.yul\":5484:5499   */\n      mstore\n        /* \"#utility.yul\":5518:5522   */\n      0x24\n        /* \"#utility.yul\":5515:5516   */\n      0x00\n        /* \"#utility.yul\":5508:5523   */\n      revert\n        /* \"#utility.yul\":5535:5652   */\n    tag_43:\n        /* \"#utility.yul\":5644:5645   */\n      0x00\n        /* \"#utility.yul\":5641:5642   */\n      dup1\n        /* \"#utility.yul\":5634:5646   */\n      revert\n        /* \"#utility.yul\":5658:5775   */\n    tag_36:\n        /* \"#utility.yul\":5767:5768   */\n      0x00\n        /* \"#utility.yul\":5764:5765   */\n      dup1\n        /* \"#utility.yul\":5757:5769   */\n      revert\n        /* \"#utility.yul\":5781:5898   */\n    tag_51:\n        /* \"#utility.yul\":5890:5891   */\n      0x00\n        /* \"#utility.yul\":5887:5888   */\n      dup1\n        /* \"#utility.yul\":5880:5892   */\n      revert\n        /* \"#utility.yul\":5904:6021   */\n    tag_48:\n        /* \"#utility.yul\":6013:6014   */\n      0x00\n        /* \"#utility.yul\":6010:6011   */\n      dup1\n        /* \"#utility.yul\":6003:6015   */\n      revert\n        /* \"#utility.yul\":6027:6129   */\n    tag_62:\n        /* \"#utility.yul\":6068:6074   */\n      0x00\n        /* \"#utility.yul\":6119:6121   */\n      0x1f\n        /* \"#utility.yul\":6115:6122   */\n      not\n        /* \"#utility.yul\":6110:6112   */\n      0x1f\n        /* \"#utility.yul\":6103:6108   */\n      dup4\n        /* \"#utility.yul\":6099:6113   */\n      add\n        /* \"#utility.yul\":6095:6123   */\n      and\n        /* \"#utility.yul\":6085:6123   */\n      swap1\n      pop\n        /* \"#utility.yul\":6027:6129   */\n      swap2\n      swap1\n      pop\n      jump\t// out\n\n    auxdata: 0xa2646970667358221220d8ff377db5d00eebf68cfc7488d08121d6fc3438502dfdebdde528c749be651064736f6c63430008070033\n}\n",
				"bytecode": {
					"linkReferences": {},
					"object": "608060405234801561001057600080fd5b50610533806100206000396000f3fe608060405234801561001057600080fd5b506004361061002b5760003560e01c8063f8a02d8414610030575b600080fd5b61004a6004803603810190610045919061016e565b610061565b6040516100589291906101ff565b60405180910390f35b60606000808390506000805b82518110156100f057600083828151811061008b5761008a61047a565b5b602001015160f81c60f81b60f81c60ff169050603081101580156100b0575060398111155b156100dc576030816100c29190610351565b600a846100cf91906102f7565b6100d991906102a1565b92505b5080806100e890610402565b91505061006d565b508481935093505050915091565b600061011161010c84610254565b61022f565b90508281526020810184848401111561012d5761012c6104dd565b5b61013884828561038f565b509392505050565b600082601f830112610155576101546104d8565b5b81356101658482602086016100fe565b91505092915050565b600060208284031215610184576101836104e7565b5b600082013567ffffffffffffffff8111156101a2576101a16104e2565b5b6101ae84828501610140565b91505092915050565b60006101c282610285565b6101cc8185610290565b93506101dc81856020860161039e565b6101e5816104ec565b840191505092915050565b6101f981610385565b82525050565b6000604082019050818103600083015261021981856101b7565b905061022860208301846101f0565b9392505050565b600061023961024a565b905061024582826103d1565b919050565b6000604051905090565b600067ffffffffffffffff82111561026f5761026e6104a9565b5b610278826104ec565b9050602081019050919050565b600081519050919050565b600082825260208201905092915050565b60006102ac82610385565b91506102b783610385565b9250827fffffffffffffffffffffffffffffffffffffffffffffffffffffffffffffffff038211156102ec576102eb61044b565b5b828201905092915050565b600061030282610385565b915061030d83610385565b9250817fffffffffffffffffffffffffffffffffffffffffffffffffffffffffffffffff04831182151516156103465761034561044b565b5b828202905092915050565b600061035c82610385565b915061036783610385565b92508282101561037a5761037961044b565b5b828203905092915050565b6000819050919050565b82818337600083830152505050565b60005b838110156103bc5780820151818401526020810190506103a1565b838111156103cb576000848401525b50505050565b6103da826104ec565b810181811067ffffffffffffffff821117156103f9576103f86104a9565b5b80604052505050565b600061040d82610385565b91507fffffffffffffffffffffffffffffffffffffffffffffffffffffffffffffffff8214156104405761043f61044b565b5b600182019050919050565b7f4e487b7100000000000000000000000000000000000000000000000000000000600052601160045260246000fd5b7f4e487b7100000000000000000000000000000000000000000000000000000000600052603260045260246000fd5b7f4e487b7100000000000000000000000000000000000000000000000000000000600052604160045260246000fd5b600080fd5b600080fd5b600080fd5b600080fd5b6000601f19601f830116905091905056fea2646970667358221220d8ff377db5d00eebf68cfc7488d08121d6fc3438502dfdebdde528c749be651064736f6c63430008070033",
					"opcodes": "PUSH1 0x80 PUSH1 0x40 MSTORE CALLVALUE DUP1 ISZERO PUSH2 0x10 JUMPI PUSH1 0x0 DUP1 REVERT JUMPDEST POP PUSH2 0x533 DUP1 PUSH2 0x20 PUSH1 0x0 CODECOPY PUSH1 0x0 RETURN INVALID PUSH1 0x80 PUSH1 0x40 MSTORE CALLVALUE DUP1 ISZERO PUSH2 0x10 JUMPI PUSH1 0x0 DUP1 REVERT JUMPDEST POP PUSH1 0x4 CALLDATASIZE LT PUSH2 0x2B JUMPI PUSH1 0x0 CALLDATALOAD PUSH1 0xE0 SHR DUP1 PUSH4 0xF8A02D84 EQ PUSH2 0x30 JUMPI JUMPDEST PUSH1 0x0 DUP1 REVERT JUMPDEST PUSH2 0x4A PUSH1 0x4 DUP1 CALLDATASIZE SUB DUP2 ADD SWAP1 PUSH2 0x45 SWAP2 SWAP1 PUSH2 0x16E JUMP JUMPDEST PUSH2 0x61 JUMP JUMPDEST PUSH1 0x40 MLOAD PUSH2 0x58 SWAP3 SWAP2 SWAP1 PUSH2 0x1FF JUMP JUMPDEST PUSH1 0x40 MLOAD DUP1 SWAP2 SUB SWAP1 RETURN JUMPDEST PUSH1 0x60 PUSH1 0x0 DUP1 DUP4 SWAP1 POP PUSH1 0x0 DUP1 JUMPDEST DUP3 MLOAD DUP2 LT ISZERO PUSH2 0xF0 JUMPI PUSH1 0x0 DUP4 DUP3 DUP2 MLOAD DUP2 LT PUSH2 0x8B JUMPI PUSH2 0x8A PUSH2 0x47A JUMP JUMPDEST JUMPDEST PUSH1 0x20 ADD ADD MLOAD PUSH1 0xF8 SHR PUSH1 0xF8 SHL PUSH1 0xF8 SHR PUSH1 0xFF AND SWAP1 POP PUSH1 0x30 DUP2 LT ISZERO DUP1 ISZERO PUSH2 0xB0 JUMPI POP PUSH1 0x39 DUP2 GT ISZERO JUMPDEST ISZERO PUSH2 0xDC JUMPI PUSH1 0x30 DUP2 PUSH2 0xC2 SWAP2 SWAP1 PUSH2 0x351 JUMP JUMPDEST PUSH1 0xA DUP5 PUSH2 0xCF SWAP2 SWAP1 PUSH2 0x2F7 JUMP JUMPDEST PUSH2 0xD9 SWAP2 SWAP1 PUSH2 0x2A1 JUMP JUMPDEST SWAP3 POP JUMPDEST POP DUP1 DUP1 PUSH2 0xE8 SWAP1 PUSH2 0x402 JUMP JUMPDEST SWAP2 POP POP PUSH2 0x6D JUMP JUMPDEST POP DUP5 DUP2 SWAP4 POP SWAP4 POP POP POP SWAP2 POP SWAP2 JUMP JUMPDEST PUSH1 0x0 PUSH2 0x111 PUSH2 0x10C DUP5 PUSH2 0x254 JUMP JUMPDEST PUSH2 0x22F JUMP JUMPDEST SWAP1 POP DUP3 DUP2 MSTORE PUSH1 0x20 DUP2 ADD DUP5 DUP5 DUP5 ADD GT ISZERO PUSH2 0x12D JUMPI PUSH2 0x12C PUSH2 0x4DD JUMP JUMPDEST JUMPDEST PUSH2 0x138 DUP5 DUP3 DUP6 PUSH2 0x38F JUMP JUMPDEST POP SWAP4 SWAP3 POP POP POP JUMP JUMPDEST PUSH1 0x0 DUP3 PUSH1 0x1F DUP4 ADD SLT PUSH2 0x155 JUMPI PUSH2 0x154 PUSH2 0x4D8 JUMP JUMPDEST JUMPDEST DUP2 CALLDATALOAD PUSH2 0x165 DUP5 DUP3 PUSH1 0x20 DUP7 ADD PUSH2 0xFE JUMP JUMPDEST SWAP2 POP POP SWAP3 SWAP2 POP POP JUMP JUMPDEST PUSH1 0x0 PUSH1 0x20 DUP3 DUP5 SUB SLT ISZERO PUSH2 0x184 JUMPI PUSH2 0x183 PUSH2 0x4E7 JUMP JUMPDEST JUMPDEST PUSH1 0x0 DUP3 ADD CALLDATALOAD PUSH8 0xFFFFFFFFFFFFFFFF DUP2 GT ISZERO PUSH2 0x1A2 JUMPI PUSH2 0x1A1 PUSH2 0x4E2 JUMP JUMPDEST JUMPDEST PUSH2 0x1AE DUP5 DUP3 DUP6 ADD PUSH2 0x140 JUMP JUMPDEST SWAP2 POP POP SWAP3 SWAP2 POP POP JUMP JUMPDEST PUSH1 0x0 PUSH2 0x1C2 DUP3 PUSH2 0x285 JUMP JUMPDEST PUSH2 0x1CC DUP2 DUP6 PUSH2 0x290 JUMP JUMPDEST SWAP4 POP PUSH2 0x1DC DUP2 DUP6 PUSH1 0x20 DUP7 ADD PUSH2 0x39E JUMP JUMPDEST PUSH2 0x1E5 DUP2 PUSH2 0x4EC JUMP JUMPDEST DUP5 ADD SWAP2 POP POP SWAP3 SWAP2 POP POP JUMP JUMPDEST PUSH2 0x1F9 DUP2 PUSH2 0x385 JUMP JUMPDEST DUP3 MSTORE POP POP JUMP JUMPDEST PUSH1 0x0 PUSH1 0x40 DUP3 ADD SWAP1 POP DUP2 DUP2 SUB PUSH1 0x0 DUP4 ADD MSTORE PUSH2 0x219 DUP2 DUP6 PUSH2 0x1B7 JUMP JUMPDEST SWAP1 POP PUSH2 0x228 PUSH1 0x20 DUP4 ADD DUP5 PUSH2 0x1F0 JUMP JUMPDEST SWAP4 SWAP3 POP POP POP JUMP JUMPDEST PUSH1 0x0 PUSH2 0x239 PUSH2 0x24A JUMP JUMPDEST SWAP1 POP PUSH2 0x245 DUP3 DUP3 PUSH2 0x3D1 JUMP JUMPDEST SWAP2 SWAP1 POP JUMP JUMPDEST PUSH1 0x0 PUSH1 0x40 MLOAD SWAP1 POP SWAP1 JUMP JUMPDEST PUSH1 0x0 PUSH8 0xFFFFFFFFFFFFFFFF DUP3 GT ISZERO PUSH2 0x26F JUMPI PUSH2 0x26E PUSH2 0x4A9 JUMP JUMPDEST JUMPDEST PUSH2 0x278 DUP3 PUSH2 0x4EC JUMP JUMPDEST SWAP1 POP PUSH1 0x20 DUP2 ADD SWAP1 POP SWAP2 SWAP1 POP JUMP JUMPDEST PUSH1 0x0 DUP2 MLOAD SWAP1 POP SWAP2 SWAP1 POP JUMP JUMPDEST PUSH1 0x0 DUP3 DUP3 MSTORE PUSH1 0x20 DUP3 ADD SWAP1 POP SWAP3 SWAP2 POP POP JUMP JUMPDEST PUSH1 0x0 PUSH2 0x2AC DUP3 PUSH2 0x385 JUMP JUMPDEST SWAP2 POP PUSH2 0x2B7 DUP4 PUSH2 0x385 JUMP JUMPDEST SWAP3 POP DUP3 PUSH32 0xFFFFFFFFFFFFFFFFFFFFFFFFFFFFFFFFFFFFFFFFFFFFFFFFFFFFFFFFFFFFFFFF SUB DUP3 GT ISZERO PUSH2 0x2EC JUMPI PUSH2 0x2EB PUSH2 0x44B JUMP JUMPDEST JUMPDEST DUP3 DUP3 ADD SWAP1 POP SWAP3 SWAP2 POP POP JUMP JUMPDEST PUSH1 0x0 PUSH2 0x302 DUP3 PUSH2 0x385 JUMP JUMPDEST SWAP2 POP PUSH2 0x30D DUP4 PUSH2 0x385 JUMP JUMPDEST SWAP3 POP DUP2 PUSH32 0xFFFFFFFFFFFFFFFFFFFFFFFFFFFFFFFFFFFFFFFFFFFFFFFFFFFFFFFFFFFFFFFF DIV DUP4 GT DUP3 ISZERO ISZERO AND ISZERO PUSH2 0x346 JUMPI PUSH2 0x345 PUSH2 0x44B JUMP JUMPDEST JUMPDEST DUP3 DUP3 MUL SWAP1 POP SWAP3 SWAP2 POP POP JUMP JUMPDEST PUSH1 0x0 PUSH2 0x35C DUP3 PUSH2 0x385 JUMP JUMPDEST SWAP2 POP PUSH2 0x367 DUP4 PUSH2 0x385 JUMP JUMPDEST SWAP3 POP DUP3 DUP3 LT ISZERO PUSH2 0x37A JUMPI PUSH2 0x379 PUSH2 0x44B JUMP JUMPDEST JUMPDEST DUP3 DUP3 SUB SWAP1 POP SWAP3 SWAP2 POP POP JUMP JUMPDEST PUSH1 0x0 DUP2 SWAP1 POP SWAP2 SWAP1 POP JUMP JUMPDEST DUP3 DUP2 DUP4 CALLDATACOPY PUSH1 0x0 DUP4 DUP4 ADD MSTORE POP POP POP JUMP JUMPDEST PUSH1 0x0 JUMPDEST DUP4 DUP2 LT ISZERO PUSH2 0x3BC JUMPI DUP1 DUP3 ADD MLOAD DUP2 DUP5 ADD MSTORE PUSH1 0x20 DUP2 ADD SWAP1 POP PUSH2 0x3A1 JUMP JUMPDEST DUP4 DUP2 GT ISZERO PUSH2 0x3CB JUMPI PUSH1 0x0 DUP5 DUP5 ADD MSTORE JUMPDEST POP POP POP POP JUMP JUMPDEST PUSH2 0x3DA DUP3 PUSH2 0x4EC JUMP JUMPDEST DUP2 ADD DUP2 DUP2 LT PUSH8 0xFFFFFFFFFFFFFFFF DUP3 GT OR ISZERO PUSH2 0x3F9 JUMPI PUSH2 0x3F8 PUSH2 0x4A9 JUMP JUMPDEST JUMPDEST DUP1 PUSH1 0x40 MSTORE POP POP POP JUMP JUMPDEST PUSH1 0x0 PUSH2 0x40D DUP3 PUSH2 0x385 JUMP JUMPDEST SWAP2 POP PUSH32 0xFFFFFFFFFFFFFFFFFFFFFFFFFFFFFFFFFFFFFFFFFFFFFFFFFFFFFFFFFFFFFFFF DUP3 EQ ISZERO PUSH2 0x440 JUMPI PUSH2 0x43F PUSH2 0x44B JUMP JUMPDEST JUMPDEST PUSH1 0x1 DUP3 ADD SWAP1 POP SWAP2 SWAP1 POP JUMP JUMPDEST PUSH32 0x4E487B7100000000000000000000000000000000000000000000000000000000 PUSH1 0x0 MSTORE PUSH1 0x11 PUSH1 0x4 MSTORE PUSH1 0x24 PUSH1 0x0 REVERT JUMPDEST PUSH32 0x4E487B7100000000000000000000000000000000000000000000000000000000 PUSH1 0x0 MSTORE PUSH1 0x32 PUSH1 0x4 MSTORE PUSH1 0x24 PUSH1 0x0 REVERT JUMPDEST PUSH32 0x4E487B7100000000000000000000000000000000000000000000000000000000 PUSH1 0x0 MSTORE PUSH1 0x41 PUSH1 0x4 MSTORE PUSH1 0x24 PUSH1 0x0 REVERT JUMPDEST PUSH1 0x0 DUP1 REVERT JUMPDEST PUSH1 0x0 DUP1 REVERT JUMPDEST PUSH1 0x0 DUP1 REVERT JUMPDEST PUSH1 0x0 DUP1 REVERT JUMPDEST PUSH1 0x0 PUSH1 0x1F NOT PUSH1 0x1F DUP4 ADD AND SWAP1 POP SWAP2 SWAP1 POP JUMP INVALID LOG2 PUSH5 0x6970667358 0x22 SLT KECCAK256 0xD8 SELFDESTRUCT CALLDATACOPY PUSH30 0xB5D00EEBF68CFC7488D08121D6FC3438502DFDEBDDE528C749BE65106473 PUSH16 0x6C634300080700330000000000000000 "
				},
				"gasEstimates": {
					"creation": {
						"codeDepositCost": "266200",
						"executionCost": "306",
						"totalCost": "266506"
					},
					"external": {
						"stringToInt(string)": "infinite"
					}
				},
				"methodIdentifiers": {
					"stringToInt(string)": "f8a02d84"
				}
			},
			"storageLayout": {
				"storage": [],
				"types": null
			},
			"userdoc": {
				"kind": "user",
				"methods": {},
				"version": 1
			}
		}
	}
}