{
	"crowdfunding.sol": {
		"CrowdfundingContract": {
			"abi": [
				{
					"inputs": [
						{
							"internalType": "string",
							"name": "_title",
							"type": "string"
						},
						{
							"internalType": "address",
							"name": "_recipient",
							"type": "address"
						},
						{
							"internalType": "string",
							"name": "_expectAmout",
							"type": "string"
						}
					],
					"name": "createCrowdfunding",
					"outputs": [],
					"stateMutability": "nonpayable",
					"type": "function"
				},
				{
					"inputs": [
						{
							"internalType": "uint256",
							"name": "_status",
							"type": "uint256"
						}
					],
					"name": "getCrowdfundingByStatus",
					"outputs": [
						{
							"components": [
								{
									"internalType": "uint256",
									"name": "num",
									"type": "uint256"
								},
								{
									"internalType": "string",
									"name": "title",
									"type": "string"
								},
								{
									"internalType": "uint256",
									"name": "status",
									"type": "uint256"
								},
								{
									"internalType": "address",
									"name": "creator",
									"type": "address"
								},
								{
									"internalType": "address",
									"name": "recipient",
									"type": "address"
								},
								{
									"internalType": "uint256",
									"name": "joinNum",
									"type": "uint256"
								},
								{
									"internalType": "string",
									"name": "expectAmout",
									"type": "string"
								},
								{
									"internalType": "string",
									"name": "actualAmount",
									"type": "string"
								}
							],
							"internalType": "struct CrowdfundingContract.Crowdfunding[]",
							"name": "",
							"type": "tuple[]"
						}
					],
					"stateMutability": "view",
					"type": "function"
				},
				{
					"inputs": [
						{
							"internalType": "address",
							"name": "addr",
							"type": "address"
						}
					],
					"name": "getMyCrowdfunding",
					"outputs": [
						{
							"components": [
								{
									"internalType": "uint256",
									"name": "num",
									"type": "uint256"
								},
								{
									"internalType": "string",
									"name": "title",
									"type": "string"
								},
								{
									"internalType": "uint256",
									"name": "status",
									"type": "uint256"
								},
								{
									"internalType": "address",
									"name": "creator",
									"type": "address"
								},
								{
									"internalType": "address",
									"name": "recipient",
									"type": "address"
								},
								{
									"internalType": "uint256",
									"name": "joinNum",
									"type": "uint256"
								},
								{
									"internalType": "string",
									"name": "expectAmout",
									"type": "string"
								},
								{
									"internalType": "string",
									"name": "actualAmount",
									"type": "string"
								}
							],
							"internalType": "struct CrowdfundingContract.Crowdfunding[]",
							"name": "",
							"type": "tuple[]"
						}
					],
					"stateMutability": "view",
					"type": "function"
				},
				{
					"inputs": [
						{
							"internalType": "uint256",
							"name": "",
							"type": "uint256"
						}
					],
					"name": "list",
					"outputs": [
						{
							"internalType": "uint256",
							"name": "num",
							"type": "uint256"
						},
						{
							"internalType": "string",
							"name": "title",
							"type": "string"
						},
						{
							"internalType": "uint256",
							"name": "status",
							"type": "uint256"
						},
						{
							"internalType": "address",
							"name": "creator",
							"type": "address"
						},
						{
							"internalType": "address",
							"name": "recipient",
							"type": "address"
						},
						{
							"internalType": "uint256",
							"name": "joinNum",
							"type": "uint256"
						},
						{
							"internalType": "string",
							"name": "expectAmout",
							"type": "string"
						},
						{
							"internalType": "string",
							"name": "actualAmount",
							"type": "string"
						}
					],
					"stateMutability": "view",
					"type": "function"
				},
				{
					"inputs": [
						{
							"internalType": "uint256",
							"name": "num",
							"type": "uint256"
						}
					],
					"name": "setStatus",
					"outputs": [],
					"stateMutability": "nonpayable",
					"type": "function"
				}
			],
			"devdoc": {
				"kind": "dev",
				"methods": {},
				"version": 1
			},
			"evm": {
				"assembly": "    /* \"crowdfunding.sol\":290:2663  contract CrowdfundingContract {... */\n  mstore(0x40, 0x80)\n  callvalue\n  dup1\n  iszero\n  tag_1\n  jumpi\n  0x00\n  dup1\n  revert\ntag_1:\n  pop\n  dataSize(sub_0)\n  dup1\n  dataOffset(sub_0)\n  0x00\n  codecopy\n  0x00\n  return\nstop\n\nsub_0: assembly {\n        /* \"crowdfunding.sol\":290:2663  contract CrowdfundingContract {... */\n      mstore(0x40, 0x80)\n      callvalue\n      dup1\n      iszero\n      tag_1\n      jumpi\n      0x00\n      dup1\n      revert\n    tag_1:\n      pop\n      jumpi(tag_2, lt(calldatasize, 0x04))\n      shr(0xe0, calldataload(0x00))\n      dup1\n      0x377e6ff7\n      eq\n      tag_3\n      jumpi\n      dup1\n      0x69ba1a75\n      eq\n      tag_4\n      jumpi\n      dup1\n      0x80c9419e\n      eq\n      tag_5\n      jumpi\n      dup1\n      0x904cc175\n      eq\n      tag_6\n      jumpi\n      dup1\n      0xa97af4d5\n      eq\n      tag_7\n      jumpi\n    tag_2:\n      0x00\n      dup1\n      revert\n        /* \"crowdfunding.sol\":2529:2660  function getMyCrowdfunding(address addr) public view returns (Crowdfunding[] memory) {... */\n    tag_3:\n      tag_8\n      0x04\n      dup1\n      calldatasize\n      sub\n      dup2\n      add\n      swap1\n      tag_9\n      swap2\n      swap1\n      tag_10\n      jump\t// in\n    tag_9:\n      tag_11\n      jump\t// in\n    tag_8:\n      mload(0x40)\n      tag_12\n      swap2\n      swap1\n      tag_13\n      jump\t// in\n    tag_12:\n      mload(0x40)\n      dup1\n      swap2\n      sub\n      swap1\n      return\n        /* \"crowdfunding.sol\":1654:2246  function setStatus(uint num) public {... */\n    tag_4:\n      tag_14\n      0x04\n      dup1\n      calldatasize\n      sub\n      dup2\n      add\n      swap1\n      tag_15\n      swap2\n      swap1\n      tag_16\n      jump\t// in\n    tag_15:\n      tag_17\n      jump\t// in\n    tag_14:\n      stop\n        /* \"crowdfunding.sol\":813:839  Crowdfunding[] public list */\n    tag_5:\n      tag_18\n      0x04\n      dup1\n      calldatasize\n      sub\n      dup2\n      add\n      swap1\n      tag_19\n      swap2\n      swap1\n      tag_16\n      jump\t// in\n    tag_19:\n      tag_20\n      jump\t// in\n    tag_18:\n      mload(0x40)\n      tag_21\n      swap9\n      swap8\n      swap7\n      swap6\n      swap5\n      swap4\n      swap3\n      swap2\n      swap1\n      tag_22\n      jump\t// in\n    tag_21:\n      mload(0x40)\n      dup1\n      swap2\n      sub\n      swap1\n      return\n        /* \"crowdfunding.sol\":2296:2479  function getCrowdfundingByStatus(uint _status) public view returns (Crowdfunding[] memory) {... */\n    tag_6:\n      tag_23\n      0x04\n      dup1\n      calldatasize\n      sub\n      dup2\n      add\n      swap1\n      tag_24\n      swap2\n      swap1\n      tag_16\n      jump\t// in\n    tag_24:\n      tag_25\n      jump\t// in\n    tag_23:\n      mload(0x40)\n      tag_26\n      swap2\n      swap1\n      tag_13\n      jump\t// in\n    tag_26:\n      mload(0x40)\n      dup1\n      swap2\n      sub\n      swap1\n      return\n        /* \"crowdfunding.sol\":959:1575  function createCrowdfunding(string memory _title,address _recipient, string memory _expectAmout) public {... */\n    tag_7:\n      tag_27\n      0x04\n      dup1\n      calldatasize\n      sub\n      dup2\n      add\n      swap1\n      tag_28\n      swap2\n      swap1\n      tag_29\n      jump\t// in\n    tag_28:\n      tag_30\n      jump\t// in\n    tag_27:\n      stop\n        /* \"crowdfunding.sol\":2529:2660  function getMyCrowdfunding(address addr) public view returns (Crowdfunding[] memory) {... */\n    tag_11:\n        /* \"crowdfunding.sol\":2591:2612  Crowdfunding[] memory */\n      0x60\n        /* \"crowdfunding.sol\":2632:2646  myCrowdfunding */\n      0x03\n        /* \"crowdfunding.sol\":2632:2652  myCrowdfunding[addr] */\n      0x00\n        /* \"crowdfunding.sol\":2647:2651  addr */\n      dup4\n        /* \"crowdfunding.sol\":2632:2652  myCrowdfunding[addr] */\n      0xffffffffffffffffffffffffffffffffffffffff\n      and\n      0xffffffffffffffffffffffffffffffffffffffff\n      and\n      dup2\n      mstore\n      0x20\n      add\n      swap1\n      dup2\n      mstore\n      0x20\n      add\n      0x00\n      keccak256\n        /* \"crowdfunding.sol\":2625:2652  return myCrowdfunding[addr] */\n      dup1\n      sload\n      dup1\n      0x20\n      mul\n      0x20\n      add\n      mload(0x40)\n      swap1\n      dup2\n      add\n      0x40\n      mstore\n      dup1\n      swap3\n      swap2\n      swap1\n      dup2\n      dup2\n      mstore\n      0x20\n      add\n      0x00\n      swap1\n    tag_32:\n      dup3\n      dup3\n      lt\n      iszero\n      tag_33\n      jumpi\n      dup4\n      dup3\n      swap1\n      0x00\n      mstore\n      keccak256(0x00, 0x20)\n      swap1\n      0x08\n      mul\n      add\n      mload(0x40)\n      dup1\n      0x0100\n      add\n      0x40\n      mstore\n      swap1\n      dup2\n      0x00\n      dup3\n      add\n      sload\n      dup2\n      mstore\n      0x20\n      add\n      0x01\n      dup3\n      add\n      dup1\n      sload\n      tag_35\n      swap1\n      tag_36\n      jump\t// in\n    tag_35:\n      dup1\n      0x1f\n      add\n      0x20\n      dup1\n      swap2\n      div\n      mul\n      0x20\n      add\n      mload(0x40)\n      swap1\n      dup2\n      add\n      0x40\n      mstore\n      dup1\n      swap3\n      swap2\n      swap1\n      dup2\n      dup2\n      mstore\n      0x20\n      add\n      dup3\n      dup1\n      sload\n      tag_37\n      swap1\n      tag_36\n      jump\t// in\n    tag_37:\n      dup1\n      iszero\n      tag_38\n      jumpi\n      dup1\n      0x1f\n      lt\n      tag_39\n      jumpi\n      0x0100\n      dup1\n      dup4\n      sload\n      div\n      mul\n      dup4\n      mstore\n      swap2\n      0x20\n      add\n      swap2\n      jump(tag_38)\n    tag_39:\n      dup3\n      add\n      swap2\n      swap1\n      0x00\n      mstore\n      keccak256(0x00, 0x20)\n      swap1\n    tag_40:\n      dup2\n      sload\n      dup2\n      mstore\n      swap1\n      0x01\n      add\n      swap1\n      0x20\n      add\n      dup1\n      dup4\n      gt\n      tag_40\n      jumpi\n      dup3\n      swap1\n      sub\n      0x1f\n      and\n      dup3\n      add\n      swap2\n    tag_38:\n      pop\n      pop\n      pop\n      pop\n      pop\n      dup2\n      mstore\n      0x20\n      add\n      0x02\n      dup3\n      add\n      sload\n      dup2\n      mstore\n      0x20\n      add\n      0x03\n      dup3\n      add\n      0x00\n      swap1\n      sload\n      swap1\n      0x0100\n      exp\n      swap1\n      div\n      0xffffffffffffffffffffffffffffffffffffffff\n      and\n      0xffffffffffffffffffffffffffffffffffffffff\n      and\n      0xffffffffffffffffffffffffffffffffffffffff\n      and\n      dup2\n      mstore\n      0x20\n      add\n      0x04\n      dup3\n      add\n      0x00\n      swap1\n      sload\n      swap1\n      0x0100\n      exp\n      swap1\n      div\n      0xffffffffffffffffffffffffffffffffffffffff\n      and\n      0xffffffffffffffffffffffffffffffffffffffff\n      and\n      0xffffffffffffffffffffffffffffffffffffffff\n      and\n      dup2\n      mstore\n      0x20\n      add\n      0x05\n      dup3\n      add\n      sload\n      dup2\n      mstore\n      0x20\n      add\n      0x06\n      dup3\n      add\n      dup1\n      sload\n      tag_41\n      swap1\n      tag_36\n      jump\t// in\n    tag_41:\n      dup1\n      0x1f\n      add\n      0x20\n      dup1\n      swap2\n      div\n      mul\n      0x20\n      add\n      mload(0x40)\n      swap1\n      dup2\n      add\n      0x40\n      mstore\n      dup1\n      swap3\n      swap2\n      swap1\n      dup2\n      dup2\n      mstore\n      0x20\n      add\n      dup3\n      dup1\n      sload\n      tag_42\n      swap1\n      tag_36\n      jump\t// in\n    tag_42:\n      dup1\n      iszero\n      tag_43\n      jumpi\n      dup1\n      0x1f\n      lt\n      tag_44\n      jumpi\n      0x0100\n      dup1\n      dup4\n      sload\n      div\n      mul\n      dup4\n      mstore\n      swap2\n      0x20\n      add\n      swap2\n      jump(tag_43)\n    tag_44:\n      dup3\n      add\n      swap2\n      swap1\n      0x00\n      mstore\n      keccak256(0x00, 0x20)\n      swap1\n    tag_45:\n      dup2\n      sload\n      dup2\n      mstore\n      swap1\n      0x01\n      add\n      swap1\n      0x20\n      add\n      dup1\n      dup4\n      gt\n      tag_45\n      jumpi\n      dup3\n      swap1\n      sub\n      0x1f\n      and\n      dup3\n      add\n      swap2\n    tag_43:\n      pop\n      pop\n      pop\n      pop\n      pop\n      dup2\n      mstore\n      0x20\n      add\n      0x07\n      dup3\n      add\n      dup1\n      sload\n      tag_46\n      swap1\n      tag_36\n      jump\t// in\n    tag_46:\n      dup1\n      0x1f\n      add\n      0x20\n      dup1\n      swap2\n      div\n      mul\n      0x20\n      add\n      mload(0x40)\n      swap1\n      dup2\n      add\n      0x40\n      mstore\n      dup1\n      swap3\n      swap2\n      swap1\n      dup2\n      dup2\n      mstore\n      0x20\n      add\n      dup3\n      dup1\n      sload\n      tag_47\n      swap1\n      tag_36\n      jump\t// in\n    tag_47:\n      dup1\n      iszero\n      tag_48\n      jumpi\n      dup1\n      0x1f\n      lt\n      tag_49\n      jumpi\n      0x0100\n      dup1\n      dup4\n      sload\n      div\n      mul\n      dup4\n      mstore\n      swap2\n      0x20\n      add\n      swap2\n      jump(tag_48)\n    tag_49:\n      dup3\n      add\n      swap2\n      swap1\n      0x00\n      mstore\n      keccak256(0x00, 0x20)\n      swap1\n    tag_50:\n      dup2\n      sload\n      dup2\n      mstore\n      swap1\n      0x01\n      add\n      swap1\n      0x20\n      add\n      dup1\n      dup4\n      gt\n      tag_50\n      jumpi\n      dup3\n      swap1\n      sub\n      0x1f\n      and\n      dup3\n      add\n      swap2\n    tag_48:\n      pop\n      pop\n      pop\n      pop\n      pop\n      dup2\n      mstore\n      pop\n      pop\n      dup2\n      mstore\n      0x20\n      add\n      swap1\n      0x01\n      add\n      swap1\n      jump(tag_32)\n    tag_33:\n      pop\n      pop\n      pop\n      pop\n      swap1\n      pop\n        /* \"crowdfunding.sol\":2529:2660  function getMyCrowdfunding(address addr) public view returns (Crowdfunding[] memory) {... */\n      swap2\n      swap1\n      pop\n      jump\t// out\n        /* \"crowdfunding.sol\":1654:2246  function setStatus(uint num) public {... */\n    tag_17:\n        /* \"crowdfunding.sol\":1722:1723  3 */\n      0x03\n        /* \"crowdfunding.sol\":1701:1705  list */\n      0x01\n        /* \"crowdfunding.sol\":1710:1711  1 */\n      dup1\n        /* \"crowdfunding.sol\":1706:1709  num */\n      dup4\n        /* \"crowdfunding.sol\":1706:1711  num-1 */\n      tag_52\n      swap2\n      swap1\n      tag_53\n      jump\t// in\n    tag_52:\n        /* \"crowdfunding.sol\":1701:1712  list[num-1] */\n      dup2\n      sload\n      dup2\n      lt\n      tag_54\n      jumpi\n      tag_55\n      tag_56\n      jump\t// in\n    tag_55:\n    tag_54:\n      swap1\n      0x00\n      mstore\n      keccak256(0x00, 0x20)\n      swap1\n      0x08\n      mul\n      add\n        /* \"crowdfunding.sol\":1701:1719  list[num-1].status */\n      0x02\n      add\n        /* \"crowdfunding.sol\":1701:1723  list[num-1].status = 3 */\n      dup2\n      swap1\n      sstore\n      pop\n        /* \"crowdfunding.sol\":1832:1833  1 */\n      0x01\n        /* \"crowdfunding.sol\":1800:1818  filterDataByStatus */\n      0x02\n        /* \"crowdfunding.sol\":1800:1821  filterDataByStatus[1] */\n      0x00\n        /* \"crowdfunding.sol\":1819:1820  1 */\n      0x01\n        /* \"crowdfunding.sol\":1800:1821  filterDataByStatus[1] */\n      dup2\n      mstore\n      0x20\n      add\n      swap1\n      dup2\n      mstore\n      0x20\n      add\n      0x00\n      keccak256\n        /* \"crowdfunding.sol\":1800:1828  filterDataByStatus[1].length */\n      dup1\n      sload\n      swap1\n      pop\n        /* \"crowdfunding.sol\":1800:1833  filterDataByStatus[1].length == 1 */\n      sub\n        /* \"crowdfunding.sol\":1797:2189  if(filterDataByStatus[1].length == 1){... */\n      tag_58\n      jumpi\n        /* \"crowdfunding.sol\":1849:1867  filterDataByStatus */\n      0x02\n        /* \"crowdfunding.sol\":1849:1870  filterDataByStatus[1] */\n      0x00\n        /* \"crowdfunding.sol\":1868:1869  1 */\n      0x01\n        /* \"crowdfunding.sol\":1849:1870  filterDataByStatus[1] */\n      dup2\n      mstore\n      0x20\n      add\n      swap1\n      dup2\n      mstore\n      0x20\n      add\n      0x00\n      keccak256\n        /* \"crowdfunding.sol\":1849:1876  filterDataByStatus[1].pop() */\n      dup1\n      sload\n      dup1\n      tag_59\n      jumpi\n      tag_60\n      tag_61\n      jump\t// in\n    tag_60:\n    tag_59:\n      0x01\n      swap1\n      sub\n      dup2\n      dup2\n      swap1\n      0x00\n      mstore\n      keccak256(0x00, 0x20)\n      swap1\n      0x08\n      mul\n      add\n      0x00\n      dup1\n      dup3\n      add\n      0x00\n      swap1\n      sstore\n      0x01\n      dup3\n      add\n      0x00\n      tag_63\n      swap2\n      swap1\n      tag_64\n      jump\t// in\n    tag_63:\n      0x02\n      dup3\n      add\n      0x00\n      swap1\n      sstore\n      0x03\n      dup3\n      add\n      exp(0x0100, 0x00)\n      dup2\n      sload\n      swap1\n      0xffffffffffffffffffffffffffffffffffffffff\n      mul\n      not\n      and\n      swap1\n      sstore\n      0x04\n      dup3\n      add\n      exp(0x0100, 0x00)\n      dup2\n      sload\n      swap1\n      0xffffffffffffffffffffffffffffffffffffffff\n      mul\n      not\n      and\n      swap1\n      sstore\n      0x05\n      dup3\n      add\n      0x00\n      swap1\n      sstore\n      0x06\n      dup3\n      add\n      0x00\n      tag_65\n      swap2\n      swap1\n      tag_64\n      jump\t// in\n    tag_65:\n      0x07\n      dup3\n      add\n      0x00\n      tag_66\n      swap2\n      swap1\n      tag_64\n      jump\t// in\n    tag_66:\n      pop\n      pop\n      swap1\n      sstore\n        /* \"crowdfunding.sol\":1797:2189  if(filterDataByStatus[1].length == 1){... */\n      jump(tag_67)\n    tag_58:\n        /* \"crowdfunding.sol\":1911:1917  uint i */\n      0x00\n        /* \"crowdfunding.sol\":1907:2136  for(uint i = 0; i < filterDataByStatus[1].length - 1; i++) {... */\n    tag_68:\n        /* \"crowdfunding.sol\":1958:1959  1 */\n      0x01\n        /* \"crowdfunding.sol\":1927:1945  filterDataByStatus */\n      0x02\n        /* \"crowdfunding.sol\":1927:1948  filterDataByStatus[1] */\n      0x00\n        /* \"crowdfunding.sol\":1946:1947  1 */\n      0x01\n        /* \"crowdfunding.sol\":1927:1948  filterDataByStatus[1] */\n      dup2\n      mstore\n      0x20\n      add\n      swap1\n      dup2\n      mstore\n      0x20\n      add\n      0x00\n      keccak256\n        /* \"crowdfunding.sol\":1927:1955  filterDataByStatus[1].length */\n      dup1\n      sload\n      swap1\n      pop\n        /* \"crowdfunding.sol\":1927:1959  filterDataByStatus[1].length - 1 */\n      tag_71\n      swap2\n      swap1\n      tag_53\n      jump\t// in\n    tag_71:\n        /* \"crowdfunding.sol\":1923:1924  i */\n      dup2\n        /* \"crowdfunding.sol\":1923:1959  i < filterDataByStatus[1].length - 1 */\n      lt\n        /* \"crowdfunding.sol\":1907:2136  for(uint i = 0; i < filterDataByStatus[1].length - 1; i++) {... */\n      iszero\n      tag_69\n      jumpi\n        /* \"crowdfunding.sol\":2020:2023  num */\n      dup2\n        /* \"crowdfunding.sol\":1988:2006  filterDataByStatus */\n      0x02\n        /* \"crowdfunding.sol\":1988:2009  filterDataByStatus[1] */\n      0x00\n        /* \"crowdfunding.sol\":2007:2008  1 */\n      0x01\n        /* \"crowdfunding.sol\":1988:2009  filterDataByStatus[1] */\n      dup2\n      mstore\n      0x20\n      add\n      swap1\n      dup2\n      mstore\n      0x20\n      add\n      0x00\n      keccak256\n        /* \"crowdfunding.sol\":2010:2011  i */\n      dup3\n        /* \"crowdfunding.sol\":1988:2012  filterDataByStatus[1][i] */\n      dup2\n      sload\n      dup2\n      lt\n      tag_72\n      jumpi\n      tag_73\n      tag_56\n      jump\t// in\n    tag_73:\n    tag_72:\n      swap1\n      0x00\n      mstore\n      keccak256(0x00, 0x20)\n      swap1\n      0x08\n      mul\n      add\n        /* \"crowdfunding.sol\":1988:2016  filterDataByStatus[1][i].num */\n      0x00\n      add\n      sload\n        /* \"crowdfunding.sol\":1988:2023  filterDataByStatus[1][i].num == num */\n      sub\n        /* \"crowdfunding.sol\":1985:2121  if(filterDataByStatus[1][i].num == num) {... */\n      tag_75\n      jumpi\n        /* \"crowdfunding.sol\":2075:2093  filterDataByStatus */\n      0x02\n        /* \"crowdfunding.sol\":2075:2096  filterDataByStatus[1] */\n      0x00\n        /* \"crowdfunding.sol\":2094:2095  1 */\n      0x01\n        /* \"crowdfunding.sol\":2075:2096  filterDataByStatus[1] */\n      dup2\n      mstore\n      0x20\n      add\n      swap1\n      dup2\n      mstore\n      0x20\n      add\n      0x00\n      keccak256\n        /* \"crowdfunding.sol\":2099:2100  1 */\n      0x01\n        /* \"crowdfunding.sol\":2097:2098  i */\n      dup3\n        /* \"crowdfunding.sol\":2097:2100  i+1 */\n      tag_76\n      swap2\n      swap1\n      tag_77\n      jump\t// in\n    tag_76:\n        /* \"crowdfunding.sol\":2075:2101  filterDataByStatus[1][i+1] */\n      dup2\n      sload\n      dup2\n      lt\n      tag_78\n      jumpi\n      tag_79\n      tag_56\n      jump\t// in\n    tag_79:\n    tag_78:\n      swap1\n      0x00\n      mstore\n      keccak256(0x00, 0x20)\n      swap1\n      0x08\n      mul\n      add\n        /* \"crowdfunding.sol\":2048:2066  filterDataByStatus */\n      0x02\n        /* \"crowdfunding.sol\":2048:2069  filterDataByStatus[1] */\n      0x00\n        /* \"crowdfunding.sol\":2067:2068  1 */\n      0x01\n        /* \"crowdfunding.sol\":2048:2069  filterDataByStatus[1] */\n      dup2\n      mstore\n      0x20\n      add\n      swap1\n      dup2\n      mstore\n      0x20\n      add\n      0x00\n      keccak256\n        /* \"crowdfunding.sol\":2070:2071  i */\n      dup3\n        /* \"crowdfunding.sol\":2048:2072  filterDataByStatus[1][i] */\n      dup2\n      sload\n      dup2\n      lt\n      tag_81\n      jumpi\n      tag_82\n      tag_56\n      jump\t// in\n    tag_82:\n    tag_81:\n      swap1\n      0x00\n      mstore\n      keccak256(0x00, 0x20)\n      swap1\n      0x08\n      mul\n      add\n        /* \"crowdfunding.sol\":2048:2101  filterDataByStatus[1][i] = filterDataByStatus[1][i+1] */\n      0x00\n      dup3\n      add\n      sload\n      dup2\n      0x00\n      add\n      sstore\n      0x01\n      dup3\n      add\n      dup2\n      0x01\n      add\n      swap1\n      dup2\n      tag_84\n      swap2\n      swap1\n      tag_85\n      jump\t// in\n    tag_84:\n      pop\n      0x02\n      dup3\n      add\n      sload\n      dup2\n      0x02\n      add\n      sstore\n      0x03\n      dup3\n      add\n      0x00\n      swap1\n      sload\n      swap1\n      0x0100\n      exp\n      swap1\n      div\n      0xffffffffffffffffffffffffffffffffffffffff\n      and\n      dup2\n      0x03\n      add\n      exp(0x0100, 0x00)\n      dup2\n      sload\n      dup2\n      0xffffffffffffffffffffffffffffffffffffffff\n      mul\n      not\n      and\n      swap1\n      dup4\n      0xffffffffffffffffffffffffffffffffffffffff\n      and\n      mul\n      or\n      swap1\n      sstore\n      pop\n      0x04\n      dup3\n      add\n      0x00\n      swap1\n      sload\n      swap1\n      0x0100\n      exp\n      swap1\n      div\n      0xffffffffffffffffffffffffffffffffffffffff\n      and\n      dup2\n      0x04\n      add\n      exp(0x0100, 0x00)\n      dup2\n      sload\n      dup2\n      0xffffffffffffffffffffffffffffffffffffffff\n      mul\n      not\n      and\n      swap1\n      dup4\n      0xffffffffffffffffffffffffffffffffffffffff\n      and\n      mul\n      or\n      swap1\n      sstore\n      pop\n      0x05\n      dup3\n      add\n      sload\n      dup2\n      0x05\n      add\n      sstore\n      0x06\n      dup3\n      add\n      dup2\n      0x06\n      add\n      swap1\n      dup2\n      tag_86\n      swap2\n      swap1\n      tag_85\n      jump\t// in\n    tag_86:\n      pop\n      0x07\n      dup3\n      add\n      dup2\n      0x07\n      add\n      swap1\n      dup2\n      tag_87\n      swap2\n      swap1\n      tag_85\n      jump\t// in\n    tag_87:\n      pop\n      swap1\n      pop\n      pop\n        /* \"crowdfunding.sol\":1985:2121  if(filterDataByStatus[1][i].num == num) {... */\n    tag_75:\n        /* \"crowdfunding.sol\":1961:1964  i++ */\n      dup1\n      dup1\n      tag_88\n      swap1\n      tag_89\n      jump\t// in\n    tag_88:\n      swap2\n      pop\n      pop\n        /* \"crowdfunding.sol\":1907:2136  for(uint i = 0; i < filterDataByStatus[1].length - 1; i++) {... */\n      jump(tag_68)\n    tag_69:\n      pop\n        /* \"crowdfunding.sol\":2150:2168  filterDataByStatus */\n      0x02\n        /* \"crowdfunding.sol\":2150:2171  filterDataByStatus[1] */\n      0x00\n        /* \"crowdfunding.sol\":2169:2170  1 */\n      0x01\n        /* \"crowdfunding.sol\":2150:2171  filterDataByStatus[1] */\n      dup2\n      mstore\n      0x20\n      add\n      swap1\n      dup2\n      mstore\n      0x20\n      add\n      0x00\n      keccak256\n        /* \"crowdfunding.sol\":2150:2177  filterDataByStatus[1].pop() */\n      dup1\n      sload\n      dup1\n      tag_90\n      jumpi\n      tag_91\n      tag_61\n      jump\t// in\n    tag_91:\n    tag_90:\n      0x01\n      swap1\n      sub\n      dup2\n      dup2\n      swap1\n      0x00\n      mstore\n      keccak256(0x00, 0x20)\n      swap1\n      0x08\n      mul\n      add\n      0x00\n      dup1\n      dup3\n      add\n      0x00\n      swap1\n      sstore\n      0x01\n      dup3\n      add\n      0x00\n      tag_93\n      swap2\n      swap1\n      tag_64\n      jump\t// in\n    tag_93:\n      0x02\n      dup3\n      add\n      0x00\n      swap1\n      sstore\n      0x03\n      dup3\n      add\n      exp(0x0100, 0x00)\n      dup2\n      sload\n      swap1\n      0xffffffffffffffffffffffffffffffffffffffff\n      mul\n      not\n      and\n      swap1\n      sstore\n      0x04\n      dup3\n      add\n      exp(0x0100, 0x00)\n      dup2\n      sload\n      swap1\n      0xffffffffffffffffffffffffffffffffffffffff\n      mul\n      not\n      and\n      swap1\n      sstore\n      0x05\n      dup3\n      add\n      0x00\n      swap1\n      sstore\n      0x06\n      dup3\n      add\n      0x00\n      tag_94\n      swap2\n      swap1\n      tag_64\n      jump\t// in\n    tag_94:\n      0x07\n      dup3\n      add\n      0x00\n      tag_95\n      swap2\n      swap1\n      tag_64\n      jump\t// in\n    tag_95:\n      pop\n      pop\n      swap1\n      sstore\n        /* \"crowdfunding.sol\":1797:2189  if(filterDataByStatus[1].length == 1){... */\n    tag_67:\n        /* \"crowdfunding.sol\":2199:2217  filterDataByStatus */\n      0x02\n        /* \"crowdfunding.sol\":2199:2220  filterDataByStatus[3] */\n      0x00\n        /* \"crowdfunding.sol\":2218:2219  3 */\n      0x03\n        /* \"crowdfunding.sol\":2199:2220  filterDataByStatus[3] */\n      dup2\n      mstore\n      0x20\n      add\n      swap1\n      dup2\n      mstore\n      0x20\n      add\n      0x00\n      keccak256\n        /* \"crowdfunding.sol\":2226:2230  list */\n      0x01\n        /* \"crowdfunding.sol\":2235:2236  1 */\n      dup1\n        /* \"crowdfunding.sol\":2231:2234  num */\n      dup4\n        /* \"crowdfunding.sol\":2231:2236  num-1 */\n      tag_96\n      swap2\n      swap1\n      tag_53\n      jump\t// in\n    tag_96:\n        /* \"crowdfunding.sol\":2226:2237  list[num-1] */\n      dup2\n      sload\n      dup2\n      lt\n      tag_97\n      jumpi\n      tag_98\n      tag_56\n      jump\t// in\n    tag_98:\n    tag_97:\n      swap1\n      0x00\n      mstore\n      keccak256(0x00, 0x20)\n      swap1\n      0x08\n      mul\n      add\n        /* \"crowdfunding.sol\":2199:2238  filterDataByStatus[3].push(list[num-1]) */\n      swap1\n      dup1\n      0x01\n      dup2\n      sload\n      add\n      dup1\n      dup3\n      sstore\n      dup1\n      swap2\n      pop\n      pop\n      0x01\n      swap1\n      sub\n      swap1\n      0x00\n      mstore\n      keccak256(0x00, 0x20)\n      swap1\n      0x08\n      mul\n      add\n      0x00\n      swap1\n      swap2\n      swap1\n      swap2\n      swap1\n      swap2\n      pop\n      0x00\n      dup3\n      add\n      sload\n      dup2\n      0x00\n      add\n      sstore\n      0x01\n      dup3\n      add\n      dup2\n      0x01\n      add\n      swap1\n      dup2\n      tag_101\n      swap2\n      swap1\n      tag_85\n      jump\t// in\n    tag_101:\n      pop\n      0x02\n      dup3\n      add\n      sload\n      dup2\n      0x02\n      add\n      sstore\n      0x03\n      dup3\n      add\n      0x00\n      swap1\n      sload\n      swap1\n      0x0100\n      exp\n      swap1\n      div\n      0xffffffffffffffffffffffffffffffffffffffff\n      and\n      dup2\n      0x03\n      add\n      exp(0x0100, 0x00)\n      dup2\n      sload\n      dup2\n      0xffffffffffffffffffffffffffffffffffffffff\n      mul\n      not\n      and\n      swap1\n      dup4\n      0xffffffffffffffffffffffffffffffffffffffff\n      and\n      mul\n      or\n      swap1\n      sstore\n      pop\n      0x04\n      dup3\n      add\n      0x00\n      swap1\n      sload\n      swap1\n      0x0100\n      exp\n      swap1\n      div\n      0xffffffffffffffffffffffffffffffffffffffff\n      and\n      dup2\n      0x04\n      add\n      exp(0x0100, 0x00)\n      dup2\n      sload\n      dup2\n      0xffffffffffffffffffffffffffffffffffffffff\n      mul\n      not\n      and\n      swap1\n      dup4\n      0xffffffffffffffffffffffffffffffffffffffff\n      and\n      mul\n      or\n      swap1\n      sstore\n      pop\n      0x05\n      dup3\n      add\n      sload\n      dup2\n      0x05\n      add\n      sstore\n      0x06\n      dup3\n      add\n      dup2\n      0x06\n      add\n      swap1\n      dup2\n      tag_102\n      swap2\n      swap1\n      tag_85\n      jump\t// in\n    tag_102:\n      pop\n      0x07\n      dup3\n      add\n      dup2\n      0x07\n      add\n      swap1\n      dup2\n      tag_103\n      swap2\n      swap1\n      tag_85\n      jump\t// in\n    tag_103:\n      pop\n      pop\n      pop\n        /* \"crowdfunding.sol\":1654:2246  function setStatus(uint num) public {... */\n      pop\n      jump\t// out\n        /* \"crowdfunding.sol\":813:839  Crowdfunding[] public list */\n    tag_20:\n      0x01\n      dup2\n      dup2\n      sload\n      dup2\n      lt\n      tag_104\n      jumpi\n      0x00\n      dup1\n      revert\n    tag_104:\n      swap1\n      0x00\n      mstore\n      keccak256(0x00, 0x20)\n      swap1\n      0x08\n      mul\n      add\n      0x00\n      swap2\n      pop\n      swap1\n      pop\n      dup1\n      0x00\n      add\n      sload\n      swap1\n      dup1\n      0x01\n      add\n      dup1\n      sload\n      tag_106\n      swap1\n      tag_36\n      jump\t// in\n    tag_106:\n      dup1\n      0x1f\n      add\n      0x20\n      dup1\n      swap2\n      div\n      mul\n      0x20\n      add\n      mload(0x40)\n      swap1\n      dup2\n      add\n      0x40\n      mstore\n      dup1\n      swap3\n      swap2\n      swap1\n      dup2\n      dup2\n      mstore\n      0x20\n      add\n      dup3\n      dup1\n      sload\n      tag_107\n      swap1\n      tag_36\n      jump\t// in\n    tag_107:\n      dup1\n      iszero\n      tag_108\n      jumpi\n      dup1\n      0x1f\n      lt\n      tag_109\n      jumpi\n      0x0100\n      dup1\n      dup4\n      sload\n      div\n      mul\n      dup4\n      mstore\n      swap2\n      0x20\n      add\n      swap2\n      jump(tag_108)\n    tag_109:\n      dup3\n      add\n      swap2\n      swap1\n      0x00\n      mstore\n      keccak256(0x00, 0x20)\n      swap1\n    tag_110:\n      dup2\n      sload\n      dup2\n      mstore\n      swap1\n      0x01\n      add\n      swap1\n      0x20\n      add\n      dup1\n      dup4\n      gt\n      tag_110\n      jumpi\n      dup3\n      swap1\n      sub\n      0x1f\n      and\n      dup3\n      add\n      swap2\n    tag_108:\n      pop\n      pop\n      pop\n      pop\n      pop\n      swap1\n      dup1\n      0x02\n      add\n      sload\n      swap1\n      dup1\n      0x03\n      add\n      0x00\n      swap1\n      sload\n      swap1\n      0x0100\n      exp\n      swap1\n      div\n      0xffffffffffffffffffffffffffffffffffffffff\n      and\n      swap1\n      dup1\n      0x04\n      add\n      0x00\n      swap1\n      sload\n      swap1\n      0x0100\n      exp\n      swap1\n      div\n      0xffffffffffffffffffffffffffffffffffffffff\n      and\n      swap1\n      dup1\n      0x05\n      add\n      sload\n      swap1\n      dup1\n      0x06\n      add\n      dup1\n      sload\n      tag_111\n      swap1\n      tag_36\n      jump\t// in\n    tag_111:\n      dup1\n      0x1f\n      add\n      0x20\n      dup1\n      swap2\n      div\n      mul\n      0x20\n      add\n      mload(0x40)\n      swap1\n      dup2\n      add\n      0x40\n      mstore\n      dup1\n      swap3\n      swap2\n      swap1\n      dup2\n      dup2\n      mstore\n      0x20\n      add\n      dup3\n      dup1\n      sload\n      tag_112\n      swap1\n      tag_36\n      jump\t// in\n    tag_112:\n      dup1\n      iszero\n      tag_113\n      jumpi\n      dup1\n      0x1f\n      lt\n      tag_114\n      jumpi\n      0x0100\n      dup1\n      dup4\n      sload\n      div\n      mul\n      dup4\n      mstore\n      swap2\n      0x20\n      add\n      swap2\n      jump(tag_113)\n    tag_114:\n      dup3\n      add\n      swap2\n      swap1\n      0x00\n      mstore\n      keccak256(0x00, 0x20)\n      swap1\n    tag_115:\n      dup2\n      sload\n      dup2\n      mstore\n      swap1\n      0x01\n      add\n      swap1\n      0x20\n      add\n      dup1\n      dup4\n      gt\n      tag_115\n      jumpi\n      dup3\n      swap1\n      sub\n      0x1f\n      and\n      dup3\n      add\n      swap2\n    tag_113:\n      pop\n      pop\n      pop\n      pop\n      pop\n      swap1\n      dup1\n      0x07\n      add\n      dup1\n      sload\n      tag_116\n      swap1\n      tag_36\n      jump\t// in\n    tag_116:\n      dup1\n      0x1f\n      add\n      0x20\n      dup1\n      swap2\n      div\n      mul\n      0x20\n      add\n      mload(0x40)\n      swap1\n      dup2\n      add\n      0x40\n      mstore\n      dup1\n      swap3\n      swap2\n      swap1\n      dup2\n      dup2\n      mstore\n      0x20\n      add\n      dup3\n      dup1\n      sload\n      tag_117\n      swap1\n      tag_36\n      jump\t// in\n    tag_117:\n      dup1\n      iszero\n      tag_118\n      jumpi\n      dup1\n      0x1f\n      lt\n      tag_119\n      jumpi\n      0x0100\n      dup1\n      dup4\n      sload\n      div\n      mul\n      dup4\n      mstore\n      swap2\n      0x20\n      add\n      swap2\n      jump(tag_118)\n    tag_119:\n      dup3\n      add\n      swap2\n      swap1\n      0x00\n      mstore\n      keccak256(0x00, 0x20)\n      swap1\n    tag_120:\n      dup2\n      sload\n      dup2\n      mstore\n      swap1\n      0x01\n      add\n      swap1\n      0x20\n      add\n      dup1\n      dup4\n      gt\n      tag_120\n      jumpi\n      dup3\n      swap1\n      sub\n      0x1f\n      and\n      dup3\n      add\n      swap2\n    tag_118:\n      pop\n      pop\n      pop\n      pop\n      pop\n      swap1\n      pop\n      dup9\n      jump\t// out\n        /* \"crowdfunding.sol\":2296:2479  function getCrowdfundingByStatus(uint _status) public view returns (Crowdfunding[] memory) {... */\n    tag_25:\n        /* \"crowdfunding.sol\":2364:2385  Crowdfunding[] memory */\n      0x60\n        /* \"crowdfunding.sol\":2412:2413  0 */\n      0x00\n        /* \"crowdfunding.sol\":2401:2408  _status */\n      dup3\n        /* \"crowdfunding.sol\":2401:2413  _status == 0 */\n      sub\n        /* \"crowdfunding.sol\":2398:2426  if(_status == 0) return list */\n      tag_122\n      jumpi\n        /* \"crowdfunding.sol\":2422:2426  list */\n      0x01\n        /* \"crowdfunding.sol\":2415:2426  return list */\n      dup1\n      sload\n      dup1\n      0x20\n      mul\n      0x20\n      add\n      mload(0x40)\n      swap1\n      dup2\n      add\n      0x40\n      mstore\n      dup1\n      swap3\n      swap2\n      swap1\n      dup2\n      dup2\n      mstore\n      0x20\n      add\n      0x00\n      swap1\n    tag_123:\n      dup3\n      dup3\n      lt\n      iszero\n      tag_124\n      jumpi\n      dup4\n      dup3\n      swap1\n      0x00\n      mstore\n      keccak256(0x00, 0x20)\n      swap1\n      0x08\n      mul\n      add\n      mload(0x40)\n      dup1\n      0x0100\n      add\n      0x40\n      mstore\n      swap1\n      dup2\n      0x00\n      dup3\n      add\n      sload\n      dup2\n      mstore\n      0x20\n      add\n      0x01\n      dup3\n      add\n      dup1\n      sload\n      tag_126\n      swap1\n      tag_36\n      jump\t// in\n    tag_126:\n      dup1\n      0x1f\n      add\n      0x20\n      dup1\n      swap2\n      div\n      mul\n      0x20\n      add\n      mload(0x40)\n      swap1\n      dup2\n      add\n      0x40\n      mstore\n      dup1\n      swap3\n      swap2\n      swap1\n      dup2\n      dup2\n      mstore\n      0x20\n      add\n      dup3\n      dup1\n      sload\n      tag_127\n      swap1\n      tag_36\n      jump\t// in\n    tag_127:\n      dup1\n      iszero\n      tag_128\n      jumpi\n      dup1\n      0x1f\n      lt\n      tag_129\n      jumpi\n      0x0100\n      dup1\n      dup4\n      sload\n      div\n      mul\n      dup4\n      mstore\n      swap2\n      0x20\n      add\n      swap2\n      jump(tag_128)\n    tag_129:\n      dup3\n      add\n      swap2\n      swap1\n      0x00\n      mstore\n      keccak256(0x00, 0x20)\n      swap1\n    tag_130:\n      dup2\n      sload\n      dup2\n      mstore\n      swap1\n      0x01\n      add\n      swap1\n      0x20\n      add\n      dup1\n      dup4\n      gt\n      tag_130\n      jumpi\n      dup3\n      swap1\n      sub\n      0x1f\n      and\n      dup3\n      add\n      swap2\n    tag_128:\n      pop\n      pop\n      pop\n      pop\n      pop\n      dup2\n      mstore\n      0x20\n      add\n      0x02\n      dup3\n      add\n      sload\n      dup2\n      mstore\n      0x20\n      add\n      0x03\n      dup3\n      add\n      0x00\n      swap1\n      sload\n      swap1\n      0x0100\n      exp\n      swap1\n      div\n      0xffffffffffffffffffffffffffffffffffffffff\n      and\n      0xffffffffffffffffffffffffffffffffffffffff\n      and\n      0xffffffffffffffffffffffffffffffffffffffff\n      and\n      dup2\n      mstore\n      0x20\n      add\n      0x04\n      dup3\n      add\n      0x00\n      swap1\n      sload\n      swap1\n      0x0100\n      exp\n      swap1\n      div\n      0xffffffffffffffffffffffffffffffffffffffff\n      and\n      0xffffffffffffffffffffffffffffffffffffffff\n      and\n      0xffffffffffffffffffffffffffffffffffffffff\n      and\n      dup2\n      mstore\n      0x20\n      add\n      0x05\n      dup3\n      add\n      sload\n      dup2\n      mstore\n      0x20\n      add\n      0x06\n      dup3\n      add\n      dup1\n      sload\n      tag_131\n      swap1\n      tag_36\n      jump\t// in\n    tag_131:\n      dup1\n      0x1f\n      add\n      0x20\n      dup1\n      swap2\n      div\n      mul\n      0x20\n      add\n      mload(0x40)\n      swap1\n      dup2\n      add\n      0x40\n      mstore\n      dup1\n      swap3\n      swap2\n      swap1\n      dup2\n      dup2\n      mstore\n      0x20\n      add\n      dup3\n      dup1\n      sload\n      tag_132\n      swap1\n      tag_36\n      jump\t// in\n    tag_132:\n      dup1\n      iszero\n      tag_133\n      jumpi\n      dup1\n      0x1f\n      lt\n      tag_134\n      jumpi\n      0x0100\n      dup1\n      dup4\n      sload\n      div\n      mul\n      dup4\n      mstore\n      swap2\n      0x20\n      add\n      swap2\n      jump(tag_133)\n    tag_134:\n      dup3\n      add\n      swap2\n      swap1\n      0x00\n      mstore\n      keccak256(0x00, 0x20)\n      swap1\n    tag_135:\n      dup2\n      sload\n      dup2\n      mstore\n      swap1\n      0x01\n      add\n      swap1\n      0x20\n      add\n      dup1\n      dup4\n      gt\n      tag_135\n      jumpi\n      dup3\n      swap1\n      sub\n      0x1f\n      and\n      dup3\n      add\n      swap2\n    tag_133:\n      pop\n      pop\n      pop\n      pop\n      pop\n      dup2\n      mstore\n      0x20\n      add\n      0x07\n      dup3\n      add\n      dup1\n      sload\n      tag_136\n      swap1\n      tag_36\n      jump\t// in\n    tag_136:\n      dup1\n      0x1f\n      add\n      0x20\n      dup1\n      swap2\n      div\n      mul\n      0x20\n      add\n      mload(0x40)\n      swap1\n      dup2\n      add\n      0x40\n      mstore\n      dup1\n      swap3\n      swap2\n      swap1\n      dup2\n      dup2\n      mstore\n      0x20\n      add\n      dup3\n      dup1\n      sload\n      tag_137\n      swap1\n      tag_36\n      jump\t// in\n    tag_137:\n      dup1\n      iszero\n      tag_138\n      jumpi\n      dup1\n      0x1f\n      lt\n      tag_139\n      jumpi\n      0x0100\n      dup1\n      dup4\n      sload\n      div\n      mul\n      dup4\n      mstore\n      swap2\n      0x20\n      add\n      swap2\n      jump(tag_138)\n    tag_139:\n      dup3\n      add\n      swap2\n      swap1\n      0x00\n      mstore\n      keccak256(0x00, 0x20)\n      swap1\n    tag_140:\n      dup2\n      sload\n      dup2\n      mstore\n      swap1\n      0x01\n      add\n      swap1\n      0x20\n      add\n      dup1\n      dup4\n      gt\n      tag_140\n      jumpi\n      dup3\n      swap1\n      sub\n      0x1f\n      and\n      dup3\n      add\n      swap2\n    tag_138:\n      pop\n      pop\n      pop\n      pop\n      pop\n      dup2\n      mstore\n      pop\n      pop\n      dup2\n      mstore\n      0x20\n      add\n      swap1\n      0x01\n      add\n      swap1\n      jump(tag_123)\n    tag_124:\n      pop\n      pop\n      pop\n      pop\n      swap1\n      pop\n      jump(tag_121)\n        /* \"crowdfunding.sol\":2398:2426  if(_status == 0) return list */\n    tag_122:\n        /* \"crowdfunding.sol\":2444:2462  filterDataByStatus */\n      0x02\n        /* \"crowdfunding.sol\":2444:2471  filterDataByStatus[_status] */\n      0x00\n        /* \"crowdfunding.sol\":2463:2470  _status */\n      dup4\n        /* \"crowdfunding.sol\":2444:2471  filterDataByStatus[_status] */\n      dup2\n      mstore\n      0x20\n      add\n      swap1\n      dup2\n      mstore\n      0x20\n      add\n      0x00\n      keccak256\n        /* \"crowdfunding.sol\":2437:2471  return filterDataByStatus[_status] */\n      dup1\n      sload\n      dup1\n      0x20\n      mul\n      0x20\n      add\n      mload(0x40)\n      swap1\n      dup2\n      add\n      0x40\n      mstore\n      dup1\n      swap3\n      swap2\n      swap1\n      dup2\n      dup2\n      mstore\n      0x20\n      add\n      0x00\n      swap1\n    tag_141:\n      dup3\n      dup3\n      lt\n      iszero\n      tag_142\n      jumpi\n      dup4\n      dup3\n      swap1\n      0x00\n      mstore\n      keccak256(0x00, 0x20)\n      swap1\n      0x08\n      mul\n      add\n      mload(0x40)\n      dup1\n      0x0100\n      add\n      0x40\n      mstore\n      swap1\n      dup2\n      0x00\n      dup3\n      add\n      sload\n      dup2\n      mstore\n      0x20\n      add\n      0x01\n      dup3\n      add\n      dup1\n      sload\n      tag_144\n      swap1\n      tag_36\n      jump\t// in\n    tag_144:\n      dup1\n      0x1f\n      add\n      0x20\n      dup1\n      swap2\n      div\n      mul\n      0x20\n      add\n      mload(0x40)\n      swap1\n      dup2\n      add\n      0x40\n      mstore\n      dup1\n      swap3\n      swap2\n      swap1\n      dup2\n      dup2\n      mstore\n      0x20\n      add\n      dup3\n      dup1\n      sload\n      tag_145\n      swap1\n      tag_36\n      jump\t// in\n    tag_145:\n      dup1\n      iszero\n      tag_146\n      jumpi\n      dup1\n      0x1f\n      lt\n      tag_147\n      jumpi\n      0x0100\n      dup1\n      dup4\n      sload\n      div\n      mul\n      dup4\n      mstore\n      swap2\n      0x20\n      add\n      swap2\n      jump(tag_146)\n    tag_147:\n      dup3\n      add\n      swap2\n      swap1\n      0x00\n      mstore\n      keccak256(0x00, 0x20)\n      swap1\n    tag_148:\n      dup2\n      sload\n      dup2\n      mstore\n      swap1\n      0x01\n      add\n      swap1\n      0x20\n      add\n      dup1\n      dup4\n      gt\n      tag_148\n      jumpi\n      dup3\n      swap1\n      sub\n      0x1f\n      and\n      dup3\n      add\n      swap2\n    tag_146:\n      pop\n      pop\n      pop\n      pop\n      pop\n      dup2\n      mstore\n      0x20\n      add\n      0x02\n      dup3\n      add\n      sload\n      dup2\n      mstore\n      0x20\n      add\n      0x03\n      dup3\n      add\n      0x00\n      swap1\n      sload\n      swap1\n      0x0100\n      exp\n      swap1\n      div\n      0xffffffffffffffffffffffffffffffffffffffff\n      and\n      0xffffffffffffffffffffffffffffffffffffffff\n      and\n      0xffffffffffffffffffffffffffffffffffffffff\n      and\n      dup2\n      mstore\n      0x20\n      add\n      0x04\n      dup3\n      add\n      0x00\n      swap1\n      sload\n      swap1\n      0x0100\n      exp\n      swap1\n      div\n      0xffffffffffffffffffffffffffffffffffffffff\n      and\n      0xffffffffffffffffffffffffffffffffffffffff\n      and\n      0xffffffffffffffffffffffffffffffffffffffff\n      and\n      dup2\n      mstore\n      0x20\n      add\n      0x05\n      dup3\n      add\n      sload\n      dup2\n      mstore\n      0x20\n      add\n      0x06\n      dup3\n      add\n      dup1\n      sload\n      tag_149\n      swap1\n      tag_36\n      jump\t// in\n    tag_149:\n      dup1\n      0x1f\n      add\n      0x20\n      dup1\n      swap2\n      div\n      mul\n      0x20\n      add\n      mload(0x40)\n      swap1\n      dup2\n      add\n      0x40\n      mstore\n      dup1\n      swap3\n      swap2\n      swap1\n      dup2\n      dup2\n      mstore\n      0x20\n      add\n      dup3\n      dup1\n      sload\n      tag_150\n      swap1\n      tag_36\n      jump\t// in\n    tag_150:\n      dup1\n      iszero\n      tag_151\n      jumpi\n      dup1\n      0x1f\n      lt\n      tag_152\n      jumpi\n      0x0100\n      dup1\n      dup4\n      sload\n      div\n      mul\n      dup4\n      mstore\n      swap2\n      0x20\n      add\n      swap2\n      jump(tag_151)\n    tag_152:\n      dup3\n      add\n      swap2\n      swap1\n      0x00\n      mstore\n      keccak256(0x00, 0x20)\n      swap1\n    tag_153:\n      dup2\n      sload\n      dup2\n      mstore\n      swap1\n      0x01\n      add\n      swap1\n      0x20\n      add\n      dup1\n      dup4\n      gt\n      tag_153\n      jumpi\n      dup3\n      swap1\n      sub\n      0x1f\n      and\n      dup3\n      add\n      swap2\n    tag_151:\n      pop\n      pop\n      pop\n      pop\n      pop\n      dup2\n      mstore\n      0x20\n      add\n      0x07\n      dup3\n      add\n      dup1\n      sload\n      tag_154\n      swap1\n      tag_36\n      jump\t// in\n    tag_154:\n      dup1\n      0x1f\n      add\n      0x20\n      dup1\n      swap2\n      div\n      mul\n      0x20\n      add\n      mload(0x40)\n      swap1\n      dup2\n      add\n      0x40\n      mstore\n      dup1\n      swap3\n      swap2\n      swap1\n      dup2\n      dup2\n      mstore\n      0x20\n      add\n      dup3\n      dup1\n      sload\n      tag_155\n      swap1\n      tag_36\n      jump\t// in\n    tag_155:\n      dup1\n      iszero\n      tag_156\n      jumpi\n      dup1\n      0x1f\n      lt\n      tag_157\n      jumpi\n      0x0100\n      dup1\n      dup4\n      sload\n      div\n      mul\n      dup4\n      mstore\n      swap2\n      0x20\n      add\n      swap2\n      jump(tag_156)\n    tag_157:\n      dup3\n      add\n      swap2\n      swap1\n      0x00\n      mstore\n      keccak256(0x00, 0x20)\n      swap1\n    tag_158:\n      dup2\n      sload\n      dup2\n      mstore\n      swap1\n      0x01\n      add\n      swap1\n      0x20\n      add\n      dup1\n      dup4\n      gt\n      tag_158\n      jumpi\n      dup3\n      swap1\n      sub\n      0x1f\n      and\n      dup3\n      add\n      swap2\n    tag_156:\n      pop\n      pop\n      pop\n      pop\n      pop\n      dup2\n      mstore\n      pop\n      pop\n      dup2\n      mstore\n      0x20\n      add\n      swap1\n      0x01\n      add\n      swap1\n      jump(tag_141)\n    tag_142:\n      pop\n      pop\n      pop\n      pop\n      swap1\n      pop\n        /* \"crowdfunding.sol\":2296:2479  function getCrowdfundingByStatus(uint _status) public view returns (Crowdfunding[] memory) {... */\n    tag_121:\n      swap2\n      swap1\n      pop\n      jump\t// out\n        /* \"crowdfunding.sol\":959:1575  function createCrowdfunding(string memory _title,address _recipient, string memory _expectAmout) public {... */\n    tag_30:\n        /* \"crowdfunding.sol\":1074:1076  No */\n      0x00\n      dup1\n        /* \"crowdfunding.sol\":1074:1078  No++ */\n      dup2\n      sload\n      dup1\n      swap3\n      swap2\n      swap1\n      tag_160\n      swap1\n      tag_89\n      jump\t// in\n    tag_160:\n      swap2\n      swap1\n      pop\n      sstore\n      pop\n        /* \"crowdfunding.sol\":1089:1110  Crowdfunding memory c */\n      0x00\n        /* \"crowdfunding.sol\":1113:1385  Crowdfunding({... */\n      mload(0x40)\n      dup1\n      0x0100\n      add\n      0x40\n      mstore\n      dup1\n        /* \"crowdfunding.sol\":1146:1148  No */\n      sload(0x00)\n        /* \"crowdfunding.sol\":1113:1385  Crowdfunding({... */\n      dup2\n      mstore\n      0x20\n      add\n        /* \"crowdfunding.sol\":1169:1175  _title */\n      dup6\n        /* \"crowdfunding.sol\":1113:1385  Crowdfunding({... */\n      dup2\n      mstore\n      0x20\n      add\n        /* \"crowdfunding.sol\":1198:1199  1 */\n      0x01\n        /* \"crowdfunding.sol\":1113:1385  Crowdfunding({... */\n      dup2\n      mstore\n      0x20\n      add\n        /* \"crowdfunding.sol\":1223:1233  msg.sender */\n      caller\n        /* \"crowdfunding.sol\":1113:1385  Crowdfunding({... */\n      0xffffffffffffffffffffffffffffffffffffffff\n      and\n      dup2\n      mstore\n      0x20\n      add\n        /* \"crowdfunding.sol\":1259:1269  _recipient */\n      dup5\n        /* \"crowdfunding.sol\":1113:1385  Crowdfunding({... */\n      0xffffffffffffffffffffffffffffffffffffffff\n      and\n      dup2\n      mstore\n      0x20\n      add\n        /* \"crowdfunding.sol\":1293:1294  0 */\n      0x00\n        /* \"crowdfunding.sol\":1113:1385  Crowdfunding({... */\n      dup2\n      mstore\n      0x20\n      add\n        /* \"crowdfunding.sol\":1329:1341  _expectAmout */\n      dup4\n        /* \"crowdfunding.sol\":1113:1385  Crowdfunding({... */\n      dup2\n      mstore\n      0x20\n      add\n      mload(0x40)\n      dup1\n      0x40\n      add\n      0x40\n      mstore\n      dup1\n      0x01\n      dup2\n      mstore\n      0x20\n      add\n      0x3000000000000000000000000000000000000000000000000000000000000000\n      dup2\n      mstore\n      pop\n      dup2\n      mstore\n      pop\n        /* \"crowdfunding.sol\":1089:1385  Crowdfunding memory c = Crowdfunding({... */\n      swap1\n      pop\n        /* \"crowdfunding.sol\":1396:1400  list */\n      0x01\n        /* \"crowdfunding.sol\":1406:1407  c */\n      dup2\n        /* \"crowdfunding.sol\":1396:1408  list.push(c) */\n      swap1\n      dup1\n      0x01\n      dup2\n      sload\n      add\n      dup1\n      dup3\n      sstore\n      dup1\n      swap2\n      pop\n      pop\n      0x01\n      swap1\n      sub\n      swap1\n      0x00\n      mstore\n      keccak256(0x00, 0x20)\n      swap1\n      0x08\n      mul\n      add\n      0x00\n      swap1\n      swap2\n      swap1\n      swap2\n      swap1\n      swap2\n      pop\n      0x00\n      dup3\n      add\n      mload\n      dup2\n      0x00\n      add\n      sstore\n      0x20\n      dup3\n      add\n      mload\n      dup2\n      0x01\n      add\n      swap1\n      dup2\n      tag_162\n      swap2\n      swap1\n      tag_163\n      jump\t// in\n    tag_162:\n      pop\n      0x40\n      dup3\n      add\n      mload\n      dup2\n      0x02\n      add\n      sstore\n      0x60\n      dup3\n      add\n      mload\n      dup2\n      0x03\n      add\n      exp(0x0100, 0x00)\n      dup2\n      sload\n      dup2\n      0xffffffffffffffffffffffffffffffffffffffff\n      mul\n      not\n      and\n      swap1\n      dup4\n      0xffffffffffffffffffffffffffffffffffffffff\n      and\n      mul\n      or\n      swap1\n      sstore\n      pop\n      0x80\n      dup3\n      add\n      mload\n      dup2\n      0x04\n      add\n      exp(0x0100, 0x00)\n      dup2\n      sload\n      dup2\n      0xffffffffffffffffffffffffffffffffffffffff\n      mul\n      not\n      and\n      swap1\n      dup4\n      0xffffffffffffffffffffffffffffffffffffffff\n      and\n      mul\n      or\n      swap1\n      sstore\n      pop\n      0xa0\n      dup3\n      add\n      mload\n      dup2\n      0x05\n      add\n      sstore\n      0xc0\n      dup3\n      add\n      mload\n      dup2\n      0x06\n      add\n      swap1\n      dup2\n      tag_164\n      swap2\n      swap1\n      tag_163\n      jump\t// in\n    tag_164:\n      pop\n      0xe0\n      dup3\n      add\n      mload\n      dup2\n      0x07\n      add\n      swap1\n      dup2\n      tag_165\n      swap2\n      swap1\n      tag_163\n      jump\t// in\n    tag_165:\n      pop\n      pop\n      pop\n        /* \"crowdfunding.sol\":1493:1511  filterDataByStatus */\n      0x02\n        /* \"crowdfunding.sol\":1493:1514  filterDataByStatus[1] */\n      0x00\n        /* \"crowdfunding.sol\":1512:1513  1 */\n      0x01\n        /* \"crowdfunding.sol\":1493:1514  filterDataByStatus[1] */\n      dup2\n      mstore\n      0x20\n      add\n      swap1\n      dup2\n      mstore\n      0x20\n      add\n      0x00\n      keccak256\n        /* \"crowdfunding.sol\":1520:1521  c */\n      dup2\n        /* \"crowdfunding.sol\":1493:1522  filterDataByStatus[1].push(c) */\n      swap1\n      dup1\n      0x01\n      dup2\n      sload\n      add\n      dup1\n      dup3\n      sstore\n      dup1\n      swap2\n      pop\n      pop\n      0x01\n      swap1\n      sub\n      swap1\n      0x00\n      mstore\n      keccak256(0x00, 0x20)\n      swap1\n      0x08\n      mul\n      add\n      0x00\n      swap1\n      swap2\n      swap1\n      swap2\n      swap1\n      swap2\n      pop\n      0x00\n      dup3\n      add\n      mload\n      dup2\n      0x00\n      add\n      sstore\n      0x20\n      dup3\n      add\n      mload\n      dup2\n      0x01\n      add\n      swap1\n      dup2\n      tag_167\n      swap2\n      swap1\n      tag_163\n      jump\t// in\n    tag_167:\n      pop\n      0x40\n      dup3\n      add\n      mload\n      dup2\n      0x02\n      add\n      sstore\n      0x60\n      dup3\n      add\n      mload\n      dup2\n      0x03\n      add\n      exp(0x0100, 0x00)\n      dup2\n      sload\n      dup2\n      0xffffffffffffffffffffffffffffffffffffffff\n      mul\n      not\n      and\n      swap1\n      dup4\n      0xffffffffffffffffffffffffffffffffffffffff\n      and\n      mul\n      or\n      swap1\n      sstore\n      pop\n      0x80\n      dup3\n      add\n      mload\n      dup2\n      0x04\n      add\n      exp(0x0100, 0x00)\n      dup2\n      sload\n      dup2\n      0xffffffffffffffffffffffffffffffffffffffff\n      mul\n      not\n      and\n      swap1\n      dup4\n      0xffffffffffffffffffffffffffffffffffffffff\n      and\n      mul\n      or\n      swap1\n      sstore\n      pop\n      0xa0\n      dup3\n      add\n      mload\n      dup2\n      0x05\n      add\n      sstore\n      0xc0\n      dup3\n      add\n      mload\n      dup2\n      0x06\n      add\n      swap1\n      dup2\n      tag_168\n      swap2\n      swap1\n      tag_163\n      jump\t// in\n    tag_168:\n      pop\n      0xe0\n      dup3\n      add\n      mload\n      dup2\n      0x07\n      add\n      swap1\n      dup2\n      tag_169\n      swap2\n      swap1\n      tag_163\n      jump\t// in\n    tag_169:\n      pop\n      pop\n      pop\n        /* \"crowdfunding.sol\":1533:1547  myCrowdfunding */\n      0x03\n        /* \"crowdfunding.sol\":1533:1559  myCrowdfunding[msg.sender] */\n      0x00\n        /* \"crowdfunding.sol\":1548:1558  msg.sender */\n      caller\n        /* \"crowdfunding.sol\":1533:1559  myCrowdfunding[msg.sender] */\n      0xffffffffffffffffffffffffffffffffffffffff\n      and\n      0xffffffffffffffffffffffffffffffffffffffff\n      and\n      dup2\n      mstore\n      0x20\n      add\n      swap1\n      dup2\n      mstore\n      0x20\n      add\n      0x00\n      keccak256\n        /* \"crowdfunding.sol\":1565:1566  c */\n      dup2\n        /* \"crowdfunding.sol\":1533:1567  myCrowdfunding[msg.sender].push(c) */\n      swap1\n      dup1\n      0x01\n      dup2\n      sload\n      add\n      dup1\n      dup3\n      sstore\n      dup1\n      swap2\n      pop\n      pop\n      0x01\n      swap1\n      sub\n      swap1\n      0x00\n      mstore\n      keccak256(0x00, 0x20)\n      swap1\n      0x08\n      mul\n      add\n      0x00\n      swap1\n      swap2\n      swap1\n      swap2\n      swap1\n      swap2\n      pop\n      0x00\n      dup3\n      add\n      mload\n      dup2\n      0x00\n      add\n      sstore\n      0x20\n      dup3\n      add\n      mload\n      dup2\n      0x01\n      add\n      swap1\n      dup2\n      tag_171\n      swap2\n      swap1\n      tag_163\n      jump\t// in\n    tag_171:\n      pop\n      0x40\n      dup3\n      add\n      mload\n      dup2\n      0x02\n      add\n      sstore\n      0x60\n      dup3\n      add\n      mload\n      dup2\n      0x03\n      add\n      exp(0x0100, 0x00)\n      dup2\n      sload\n      dup2\n      0xffffffffffffffffffffffffffffffffffffffff\n      mul\n      not\n      and\n      swap1\n      dup4\n      0xffffffffffffffffffffffffffffffffffffffff\n      and\n      mul\n      or\n      swap1\n      sstore\n      pop\n      0x80\n      dup3\n      add\n      mload\n      dup2\n      0x04\n      add\n      exp(0x0100, 0x00)\n      dup2\n      sload\n      dup2\n      0xffffffffffffffffffffffffffffffffffffffff\n      mul\n      not\n      and\n      swap1\n      dup4\n      0xffffffffffffffffffffffffffffffffffffffff\n      and\n      mul\n      or\n      swap1\n      sstore\n      pop\n      0xa0\n      dup3\n      add\n      mload\n      dup2\n      0x05\n      add\n      sstore\n      0xc0\n      dup3\n      add\n      mload\n      dup2\n      0x06\n      add\n      swap1\n      dup2\n      tag_172\n      swap2\n      swap1\n      tag_163\n      jump\t// in\n    tag_172:\n      pop\n      0xe0\n      dup3\n      add\n      mload\n      dup2\n      0x07\n      add\n      swap1\n      dup2\n      tag_173\n      swap2\n      swap1\n      tag_163\n      jump\t// in\n    tag_173:\n      pop\n      pop\n      pop\n        /* \"crowdfunding.sol\":1063:1575  {... */\n      pop\n        /* \"crowdfunding.sol\":959:1575  function createCrowdfunding(string memory _title,address _recipient, string memory _expectAmout) public {... */\n      pop\n      pop\n      pop\n      jump\t// out\n    tag_64:\n      pop\n      dup1\n      sload\n      tag_174\n      swap1\n      tag_36\n      jump\t// in\n    tag_174:\n      0x00\n      dup3\n      sstore\n      dup1\n      0x1f\n      lt\n      tag_176\n      jumpi\n      pop\n      jump(tag_175)\n    tag_176:\n      0x1f\n      add\n      0x20\n      swap1\n      div\n      swap1\n      0x00\n      mstore\n      keccak256(0x00, 0x20)\n      swap1\n      dup2\n      add\n      swap1\n      tag_177\n      swap2\n      swap1\n      tag_178\n      jump\t// in\n    tag_177:\n    tag_175:\n      pop\n      jump\t// out\n    tag_178:\n    tag_179:\n      dup1\n      dup3\n      gt\n      iszero\n      tag_180\n      jumpi\n      0x00\n      dup2\n      0x00\n      swap1\n      sstore\n      pop\n      0x01\n      add\n      jump(tag_179)\n    tag_180:\n      pop\n      swap1\n      jump\t// out\n        /* \"#utility.yul\":7:82   */\n    tag_181:\n        /* \"#utility.yul\":40:46   */\n      0x00\n        /* \"#utility.yul\":73:75   */\n      0x40\n        /* \"#utility.yul\":67:76   */\n      mload\n        /* \"#utility.yul\":57:76   */\n      swap1\n      pop\n        /* \"#utility.yul\":7:82   */\n      swap1\n      jump\t// out\n        /* \"#utility.yul\":88:205   */\n    tag_182:\n        /* \"#utility.yul\":197:198   */\n      0x00\n        /* \"#utility.yul\":194:195   */\n      dup1\n        /* \"#utility.yul\":187:199   */\n      revert\n        /* \"#utility.yul\":211:328   */\n    tag_183:\n        /* \"#utility.yul\":320:321   */\n      0x00\n        /* \"#utility.yul\":317:318   */\n      dup1\n        /* \"#utility.yul\":310:322   */\n      revert\n        /* \"#utility.yul\":334:460   */\n    tag_184:\n        /* \"#utility.yul\":371:378   */\n      0x00\n        /* \"#utility.yul\":411:453   */\n      0xffffffffffffffffffffffffffffffffffffffff\n        /* \"#utility.yul\":404:409   */\n      dup3\n        /* \"#utility.yul\":400:454   */\n      and\n        /* \"#utility.yul\":389:454   */\n      swap1\n      pop\n        /* \"#utility.yul\":334:460   */\n      swap2\n      swap1\n      pop\n      jump\t// out\n        /* \"#utility.yul\":466:562   */\n    tag_185:\n        /* \"#utility.yul\":503:510   */\n      0x00\n        /* \"#utility.yul\":532:556   */\n      tag_242\n        /* \"#utility.yul\":550:555   */\n      dup3\n        /* \"#utility.yul\":532:556   */\n      tag_184\n      jump\t// in\n    tag_242:\n        /* \"#utility.yul\":521:556   */\n      swap1\n      pop\n        /* \"#utility.yul\":466:562   */\n      swap2\n      swap1\n      pop\n      jump\t// out\n        /* \"#utility.yul\":568:690   */\n    tag_186:\n        /* \"#utility.yul\":641:665   */\n      tag_244\n        /* \"#utility.yul\":659:664   */\n      dup2\n        /* \"#utility.yul\":641:665   */\n      tag_185\n      jump\t// in\n    tag_244:\n        /* \"#utility.yul\":634:639   */\n      dup2\n        /* \"#utility.yul\":631:666   */\n      eq\n        /* \"#utility.yul\":621:684   */\n      tag_245\n      jumpi\n        /* \"#utility.yul\":680:681   */\n      0x00\n        /* \"#utility.yul\":677:678   */\n      dup1\n        /* \"#utility.yul\":670:682   */\n      revert\n        /* \"#utility.yul\":621:684   */\n    tag_245:\n        /* \"#utility.yul\":568:690   */\n      pop\n      jump\t// out\n        /* \"#utility.yul\":696:835   */\n    tag_187:\n        /* \"#utility.yul\":742:747   */\n      0x00\n        /* \"#utility.yul\":780:786   */\n      dup2\n        /* \"#utility.yul\":767:787   */\n      calldataload\n        /* \"#utility.yul\":758:787   */\n      swap1\n      pop\n        /* \"#utility.yul\":796:829   */\n      tag_247\n        /* \"#utility.yul\":823:828   */\n      dup2\n        /* \"#utility.yul\":796:829   */\n      tag_186\n      jump\t// in\n    tag_247:\n        /* \"#utility.yul\":696:835   */\n      swap3\n      swap2\n      pop\n      pop\n      jump\t// out\n        /* \"#utility.yul\":841:1170   */\n    tag_10:\n        /* \"#utility.yul\":900:906   */\n      0x00\n        /* \"#utility.yul\":949:951   */\n      0x20\n        /* \"#utility.yul\":937:946   */\n      dup3\n        /* \"#utility.yul\":928:935   */\n      dup5\n        /* \"#utility.yul\":924:947   */\n      sub\n        /* \"#utility.yul\":920:952   */\n      slt\n        /* \"#utility.yul\":917:1036   */\n      iszero\n      tag_249\n      jumpi\n        /* \"#utility.yul\":955:1034   */\n      tag_250\n      tag_182\n      jump\t// in\n    tag_250:\n        /* \"#utility.yul\":917:1036   */\n    tag_249:\n        /* \"#utility.yul\":1075:1076   */\n      0x00\n        /* \"#utility.yul\":1100:1153   */\n      tag_251\n        /* \"#utility.yul\":1145:1152   */\n      dup5\n        /* \"#utility.yul\":1136:1142   */\n      dup3\n        /* \"#utility.yul\":1125:1134   */\n      dup6\n        /* \"#utility.yul\":1121:1143   */\n      add\n        /* \"#utility.yul\":1100:1153   */\n      tag_187\n      jump\t// in\n    tag_251:\n        /* \"#utility.yul\":1090:1153   */\n      swap2\n      pop\n        /* \"#utility.yul\":1046:1163   */\n      pop\n        /* \"#utility.yul\":841:1170   */\n      swap3\n      swap2\n      pop\n      pop\n      jump\t// out\n        /* \"#utility.yul\":1176:1318   */\n    tag_188:\n        /* \"#utility.yul\":1271:1277   */\n      0x00\n        /* \"#utility.yul\":1305:1310   */\n      dup2\n        /* \"#utility.yul\":1299:1311   */\n      mload\n        /* \"#utility.yul\":1289:1311   */\n      swap1\n      pop\n        /* \"#utility.yul\":1176:1318   */\n      swap2\n      swap1\n      pop\n      jump\t// out\n        /* \"#utility.yul\":1324:1536   */\n    tag_189:\n        /* \"#utility.yul\":1451:1462   */\n      0x00\n        /* \"#utility.yul\":1485:1491   */\n      dup3\n        /* \"#utility.yul\":1480:1483   */\n      dup3\n        /* \"#utility.yul\":1473:1492   */\n      mstore\n        /* \"#utility.yul\":1525:1529   */\n      0x20\n        /* \"#utility.yul\":1520:1523   */\n      dup3\n        /* \"#utility.yul\":1516:1530   */\n      add\n        /* \"#utility.yul\":1501:1530   */\n      swap1\n      pop\n        /* \"#utility.yul\":1324:1536   */\n      swap3\n      swap2\n      pop\n      pop\n      jump\t// out\n        /* \"#utility.yul\":1542:1702   */\n    tag_190:\n        /* \"#utility.yul\":1637:1641   */\n      0x00\n        /* \"#utility.yul\":1660:1663   */\n      dup2\n        /* \"#utility.yul\":1652:1663   */\n      swap1\n      pop\n        /* \"#utility.yul\":1690:1694   */\n      0x20\n        /* \"#utility.yul\":1685:1688   */\n      dup3\n        /* \"#utility.yul\":1681:1695   */\n      add\n        /* \"#utility.yul\":1673:1695   */\n      swap1\n      pop\n        /* \"#utility.yul\":1542:1702   */\n      swap2\n      swap1\n      pop\n      jump\t// out\n        /* \"#utility.yul\":1708:1785   */\n    tag_191:\n        /* \"#utility.yul\":1745:1752   */\n      0x00\n        /* \"#utility.yul\":1774:1779   */\n      dup2\n        /* \"#utility.yul\":1763:1779   */\n      swap1\n      pop\n        /* \"#utility.yul\":1708:1785   */\n      swap2\n      swap1\n      pop\n      jump\t// out\n        /* \"#utility.yul\":1791:1899   */\n    tag_192:\n        /* \"#utility.yul\":1868:1892   */\n      tag_257\n        /* \"#utility.yul\":1886:1891   */\n      dup2\n        /* \"#utility.yul\":1868:1892   */\n      tag_191\n      jump\t// in\n    tag_257:\n        /* \"#utility.yul\":1863:1866   */\n      dup3\n        /* \"#utility.yul\":1856:1893   */\n      mstore\n        /* \"#utility.yul\":1791:1899   */\n      pop\n      pop\n      jump\t// out\n        /* \"#utility.yul\":1905:2004   */\n    tag_193:\n        /* \"#utility.yul\":1957:1963   */\n      0x00\n        /* \"#utility.yul\":1991:1996   */\n      dup2\n        /* \"#utility.yul\":1985:1997   */\n      mload\n        /* \"#utility.yul\":1975:1997   */\n      swap1\n      pop\n        /* \"#utility.yul\":1905:2004   */\n      swap2\n      swap1\n      pop\n      jump\t// out\n        /* \"#utility.yul\":2010:2169   */\n    tag_194:\n        /* \"#utility.yul\":2084:2095   */\n      0x00\n        /* \"#utility.yul\":2118:2124   */\n      dup3\n        /* \"#utility.yul\":2113:2116   */\n      dup3\n        /* \"#utility.yul\":2106:2125   */\n      mstore\n        /* \"#utility.yul\":2158:2162   */\n      0x20\n        /* \"#utility.yul\":2153:2156   */\n      dup3\n        /* \"#utility.yul\":2149:2163   */\n      add\n        /* \"#utility.yul\":2134:2163   */\n      swap1\n      pop\n        /* \"#utility.yul\":2010:2169   */\n      swap3\n      swap2\n      pop\n      pop\n      jump\t// out\n        /* \"#utility.yul\":2175:2482   */\n    tag_195:\n        /* \"#utility.yul\":2243:2244   */\n      0x00\n        /* \"#utility.yul\":2253:2366   */\n    tag_261:\n        /* \"#utility.yul\":2267:2273   */\n      dup4\n        /* \"#utility.yul\":2264:2265   */\n      dup2\n        /* \"#utility.yul\":2261:2274   */\n      lt\n        /* \"#utility.yul\":2253:2366   */\n      iszero\n      tag_263\n      jumpi\n        /* \"#utility.yul\":2352:2353   */\n      dup1\n        /* \"#utility.yul\":2347:2350   */\n      dup3\n        /* \"#utility.yul\":2343:2354   */\n      add\n        /* \"#utility.yul\":2337:2355   */\n      mload\n        /* \"#utility.yul\":2333:2334   */\n      dup2\n        /* \"#utility.yul\":2328:2331   */\n      dup5\n        /* \"#utility.yul\":2324:2335   */\n      add\n        /* \"#utility.yul\":2317:2356   */\n      mstore\n        /* \"#utility.yul\":2289:2291   */\n      0x20\n        /* \"#utility.yul\":2286:2287   */\n      dup2\n        /* \"#utility.yul\":2282:2292   */\n      add\n        /* \"#utility.yul\":2277:2292   */\n      swap1\n      pop\n        /* \"#utility.yul\":2253:2366   */\n      jump(tag_261)\n    tag_263:\n        /* \"#utility.yul\":2384:2390   */\n      dup4\n        /* \"#utility.yul\":2381:2382   */\n      dup2\n        /* \"#utility.yul\":2378:2391   */\n      gt\n        /* \"#utility.yul\":2375:2476   */\n      iszero\n      tag_264\n      jumpi\n        /* \"#utility.yul\":2464:2465   */\n      0x00\n        /* \"#utility.yul\":2455:2461   */\n      dup5\n        /* \"#utility.yul\":2450:2453   */\n      dup5\n        /* \"#utility.yul\":2446:2462   */\n      add\n        /* \"#utility.yul\":2439:2466   */\n      mstore\n        /* \"#utility.yul\":2375:2476   */\n    tag_264:\n        /* \"#utility.yul\":2224:2482   */\n      pop\n        /* \"#utility.yul\":2175:2482   */\n      pop\n      pop\n      pop\n      jump\t// out\n        /* \"#utility.yul\":2488:2590   */\n    tag_196:\n        /* \"#utility.yul\":2529:2535   */\n      0x00\n        /* \"#utility.yul\":2580:2582   */\n      0x1f\n        /* \"#utility.yul\":2576:2583   */\n      not\n        /* \"#utility.yul\":2571:2573   */\n      0x1f\n        /* \"#utility.yul\":2564:2569   */\n      dup4\n        /* \"#utility.yul\":2560:2574   */\n      add\n        /* \"#utility.yul\":2556:2584   */\n      and\n        /* \"#utility.yul\":2546:2584   */\n      swap1\n      pop\n        /* \"#utility.yul\":2488:2590   */\n      swap2\n      swap1\n      pop\n      jump\t// out\n        /* \"#utility.yul\":2596:2940   */\n    tag_197:\n        /* \"#utility.yul\":2674:2677   */\n      0x00\n        /* \"#utility.yul\":2702:2741   */\n      tag_267\n        /* \"#utility.yul\":2735:2740   */\n      dup3\n        /* \"#utility.yul\":2702:2741   */\n      tag_193\n      jump\t// in\n    tag_267:\n        /* \"#utility.yul\":2757:2818   */\n      tag_268\n        /* \"#utility.yul\":2811:2817   */\n      dup2\n        /* \"#utility.yul\":2806:2809   */\n      dup6\n        /* \"#utility.yul\":2757:2818   */\n      tag_194\n      jump\t// in\n    tag_268:\n        /* \"#utility.yul\":2750:2818   */\n      swap4\n      pop\n        /* \"#utility.yul\":2827:2879   */\n      tag_269\n        /* \"#utility.yul\":2872:2878   */\n      dup2\n        /* \"#utility.yul\":2867:2870   */\n      dup6\n        /* \"#utility.yul\":2860:2864   */\n      0x20\n        /* \"#utility.yul\":2853:2858   */\n      dup7\n        /* \"#utility.yul\":2849:2865   */\n      add\n        /* \"#utility.yul\":2827:2879   */\n      tag_195\n      jump\t// in\n    tag_269:\n        /* \"#utility.yul\":2904:2933   */\n      tag_270\n        /* \"#utility.yul\":2926:2932   */\n      dup2\n        /* \"#utility.yul\":2904:2933   */\n      tag_196\n      jump\t// in\n    tag_270:\n        /* \"#utility.yul\":2899:2902   */\n      dup5\n        /* \"#utility.yul\":2895:2934   */\n      add\n        /* \"#utility.yul\":2888:2934   */\n      swap2\n      pop\n        /* \"#utility.yul\":2678:2940   */\n      pop\n        /* \"#utility.yul\":2596:2940   */\n      swap3\n      swap2\n      pop\n      pop\n      jump\t// out\n        /* \"#utility.yul\":2946:3054   */\n    tag_198:\n        /* \"#utility.yul\":3023:3047   */\n      tag_272\n        /* \"#utility.yul\":3041:3046   */\n      dup2\n        /* \"#utility.yul\":3023:3047   */\n      tag_185\n      jump\t// in\n    tag_272:\n        /* \"#utility.yul\":3018:3021   */\n      dup3\n        /* \"#utility.yul\":3011:3048   */\n      mstore\n        /* \"#utility.yul\":2946:3054   */\n      pop\n      pop\n      jump\t// out\n        /* \"#utility.yul\":3152:4970   */\n    tag_199:\n        /* \"#utility.yul\":3267:3270   */\n      0x00\n        /* \"#utility.yul\":3303:3309   */\n      0x0100\n        /* \"#utility.yul\":3298:3301   */\n      dup4\n        /* \"#utility.yul\":3294:3310   */\n      add\n        /* \"#utility.yul\":3391:3395   */\n      0x00\n        /* \"#utility.yul\":3384:3389   */\n      dup4\n        /* \"#utility.yul\":3380:3396   */\n      add\n        /* \"#utility.yul\":3374:3397   */\n      mload\n        /* \"#utility.yul\":3410:3473   */\n      tag_274\n        /* \"#utility.yul\":3467:3471   */\n      0x00\n        /* \"#utility.yul\":3462:3465   */\n      dup7\n        /* \"#utility.yul\":3458:3472   */\n      add\n        /* \"#utility.yul\":3444:3456   */\n      dup3\n        /* \"#utility.yul\":3410:3473   */\n      tag_192\n      jump\t// in\n    tag_274:\n        /* \"#utility.yul\":3320:3483   */\n      pop\n        /* \"#utility.yul\":3566:3570   */\n      0x20\n        /* \"#utility.yul\":3559:3564   */\n      dup4\n        /* \"#utility.yul\":3555:3571   */\n      add\n        /* \"#utility.yul\":3549:3572   */\n      mload\n        /* \"#utility.yul\":3619:3622   */\n      dup5\n        /* \"#utility.yul\":3613:3617   */\n      dup3\n        /* \"#utility.yul\":3609:3623   */\n      sub\n        /* \"#utility.yul\":3602:3606   */\n      0x20\n        /* \"#utility.yul\":3597:3600   */\n      dup7\n        /* \"#utility.yul\":3593:3607   */\n      add\n        /* \"#utility.yul\":3586:3624   */\n      mstore\n        /* \"#utility.yul\":3645:3718   */\n      tag_275\n        /* \"#utility.yul\":3713:3717   */\n      dup3\n        /* \"#utility.yul\":3699:3711   */\n      dup3\n        /* \"#utility.yul\":3645:3718   */\n      tag_197\n      jump\t// in\n    tag_275:\n        /* \"#utility.yul\":3637:3718   */\n      swap2\n      pop\n        /* \"#utility.yul\":3493:3729   */\n      pop\n        /* \"#utility.yul\":3813:3817   */\n      0x40\n        /* \"#utility.yul\":3806:3811   */\n      dup4\n        /* \"#utility.yul\":3802:3818   */\n      add\n        /* \"#utility.yul\":3796:3819   */\n      mload\n        /* \"#utility.yul\":3832:3895   */\n      tag_276\n        /* \"#utility.yul\":3889:3893   */\n      0x40\n        /* \"#utility.yul\":3884:3887   */\n      dup7\n        /* \"#utility.yul\":3880:3894   */\n      add\n        /* \"#utility.yul\":3866:3878   */\n      dup3\n        /* \"#utility.yul\":3832:3895   */\n      tag_192\n      jump\t// in\n    tag_276:\n        /* \"#utility.yul\":3739:3905   */\n      pop\n        /* \"#utility.yul\":3990:3994   */\n      0x60\n        /* \"#utility.yul\":3983:3988   */\n      dup4\n        /* \"#utility.yul\":3979:3995   */\n      add\n        /* \"#utility.yul\":3973:3996   */\n      mload\n        /* \"#utility.yul\":4009:4072   */\n      tag_277\n        /* \"#utility.yul\":4066:4070   */\n      0x60\n        /* \"#utility.yul\":4061:4064   */\n      dup7\n        /* \"#utility.yul\":4057:4071   */\n      add\n        /* \"#utility.yul\":4043:4055   */\n      dup3\n        /* \"#utility.yul\":4009:4072   */\n      tag_198\n      jump\t// in\n    tag_277:\n        /* \"#utility.yul\":3915:4082   */\n      pop\n        /* \"#utility.yul\":4169:4173   */\n      0x80\n        /* \"#utility.yul\":4162:4167   */\n      dup4\n        /* \"#utility.yul\":4158:4174   */\n      add\n        /* \"#utility.yul\":4152:4175   */\n      mload\n        /* \"#utility.yul\":4188:4251   */\n      tag_278\n        /* \"#utility.yul\":4245:4249   */\n      0x80\n        /* \"#utility.yul\":4240:4243   */\n      dup7\n        /* \"#utility.yul\":4236:4250   */\n      add\n        /* \"#utility.yul\":4222:4234   */\n      dup3\n        /* \"#utility.yul\":4188:4251   */\n      tag_198\n      jump\t// in\n    tag_278:\n        /* \"#utility.yul\":4092:4261   */\n      pop\n        /* \"#utility.yul\":4346:4350   */\n      0xa0\n        /* \"#utility.yul\":4339:4344   */\n      dup4\n        /* \"#utility.yul\":4335:4351   */\n      add\n        /* \"#utility.yul\":4329:4352   */\n      mload\n        /* \"#utility.yul\":4365:4428   */\n      tag_279\n        /* \"#utility.yul\":4422:4426   */\n      0xa0\n        /* \"#utility.yul\":4417:4420   */\n      dup7\n        /* \"#utility.yul\":4413:4427   */\n      add\n        /* \"#utility.yul\":4399:4411   */\n      dup3\n        /* \"#utility.yul\":4365:4428   */\n      tag_192\n      jump\t// in\n    tag_279:\n        /* \"#utility.yul\":4271:4438   */\n      pop\n        /* \"#utility.yul\":4527:4531   */\n      0xc0\n        /* \"#utility.yul\":4520:4525   */\n      dup4\n        /* \"#utility.yul\":4516:4532   */\n      add\n        /* \"#utility.yul\":4510:4533   */\n      mload\n        /* \"#utility.yul\":4580:4583   */\n      dup5\n        /* \"#utility.yul\":4574:4578   */\n      dup3\n        /* \"#utility.yul\":4570:4584   */\n      sub\n        /* \"#utility.yul\":4563:4567   */\n      0xc0\n        /* \"#utility.yul\":4558:4561   */\n      dup7\n        /* \"#utility.yul\":4554:4568   */\n      add\n        /* \"#utility.yul\":4547:4585   */\n      mstore\n        /* \"#utility.yul\":4606:4679   */\n      tag_280\n        /* \"#utility.yul\":4674:4678   */\n      dup3\n        /* \"#utility.yul\":4660:4672   */\n      dup3\n        /* \"#utility.yul\":4606:4679   */\n      tag_197\n      jump\t// in\n    tag_280:\n        /* \"#utility.yul\":4598:4679   */\n      swap2\n      pop\n        /* \"#utility.yul\":4448:4690   */\n      pop\n        /* \"#utility.yul\":4780:4784   */\n      0xe0\n        /* \"#utility.yul\":4773:4778   */\n      dup4\n        /* \"#utility.yul\":4769:4785   */\n      add\n        /* \"#utility.yul\":4763:4786   */\n      mload\n        /* \"#utility.yul\":4833:4836   */\n      dup5\n        /* \"#utility.yul\":4827:4831   */\n      dup3\n        /* \"#utility.yul\":4823:4837   */\n      sub\n        /* \"#utility.yul\":4816:4820   */\n      0xe0\n        /* \"#utility.yul\":4811:4814   */\n      dup7\n        /* \"#utility.yul\":4807:4821   */\n      add\n        /* \"#utility.yul\":4800:4838   */\n      mstore\n        /* \"#utility.yul\":4859:4932   */\n      tag_281\n        /* \"#utility.yul\":4927:4931   */\n      dup3\n        /* \"#utility.yul\":4913:4925   */\n      dup3\n        /* \"#utility.yul\":4859:4932   */\n      tag_197\n      jump\t// in\n    tag_281:\n        /* \"#utility.yul\":4851:4932   */\n      swap2\n      pop\n        /* \"#utility.yul\":4700:4943   */\n      pop\n        /* \"#utility.yul\":4960:4964   */\n      dup1\n        /* \"#utility.yul\":4953:4964   */\n      swap2\n      pop\n        /* \"#utility.yul\":3272:4970   */\n      pop\n        /* \"#utility.yul\":3152:4970   */\n      swap3\n      swap2\n      pop\n      pop\n      jump\t// out\n        /* \"#utility.yul\":4976:5244   */\n    tag_200:\n        /* \"#utility.yul\":5101:5111   */\n      0x00\n        /* \"#utility.yul\":5136:5238   */\n      tag_283\n        /* \"#utility.yul\":5234:5237   */\n      dup4\n        /* \"#utility.yul\":5226:5232   */\n      dup4\n        /* \"#utility.yul\":5136:5238   */\n      tag_199\n      jump\t// in\n    tag_283:\n        /* \"#utility.yul\":5122:5238   */\n      swap1\n      pop\n        /* \"#utility.yul\":4976:5244   */\n      swap3\n      swap2\n      pop\n      pop\n      jump\t// out\n        /* \"#utility.yul\":5250:5391   */\n    tag_201:\n        /* \"#utility.yul\":5348:5352   */\n      0x00\n        /* \"#utility.yul\":5380:5384   */\n      0x20\n        /* \"#utility.yul\":5375:5378   */\n      dup3\n        /* \"#utility.yul\":5371:5385   */\n      add\n        /* \"#utility.yul\":5363:5385   */\n      swap1\n      pop\n        /* \"#utility.yul\":5250:5391   */\n      swap2\n      swap1\n      pop\n      jump\t// out\n        /* \"#utility.yul\":5493:6628   */\n    tag_202:\n        /* \"#utility.yul\":5668:5671   */\n      0x00\n        /* \"#utility.yul\":5697:5779   */\n      tag_286\n        /* \"#utility.yul\":5773:5778   */\n      dup3\n        /* \"#utility.yul\":5697:5779   */\n      tag_188\n      jump\t// in\n    tag_286:\n        /* \"#utility.yul\":5795:5909   */\n      tag_287\n        /* \"#utility.yul\":5902:5908   */\n      dup2\n        /* \"#utility.yul\":5897:5900   */\n      dup6\n        /* \"#utility.yul\":5795:5909   */\n      tag_189\n      jump\t// in\n    tag_287:\n        /* \"#utility.yul\":5788:5909   */\n      swap4\n      pop\n        /* \"#utility.yul\":5935:5938   */\n      dup4\n        /* \"#utility.yul\":5980:5984   */\n      0x20\n        /* \"#utility.yul\":5972:5978   */\n      dup3\n        /* \"#utility.yul\":5968:5985   */\n      mul\n        /* \"#utility.yul\":5963:5966   */\n      dup6\n        /* \"#utility.yul\":5959:5986   */\n      add\n        /* \"#utility.yul\":6010:6094   */\n      tag_288\n        /* \"#utility.yul\":6088:6093   */\n      dup6\n        /* \"#utility.yul\":6010:6094   */\n      tag_190\n      jump\t// in\n    tag_288:\n        /* \"#utility.yul\":6117:6124   */\n      dup1\n        /* \"#utility.yul\":6148:6149   */\n      0x00\n        /* \"#utility.yul\":6133:6583   */\n    tag_289:\n        /* \"#utility.yul\":6158:6164   */\n      dup6\n        /* \"#utility.yul\":6155:6156   */\n      dup2\n        /* \"#utility.yul\":6152:6165   */\n      lt\n        /* \"#utility.yul\":6133:6583   */\n      iszero\n      tag_291\n      jumpi\n        /* \"#utility.yul\":6229:6238   */\n      dup5\n        /* \"#utility.yul\":6223:6227   */\n      dup5\n        /* \"#utility.yul\":6219:6239   */\n      sub\n        /* \"#utility.yul\":6214:6217   */\n      dup10\n        /* \"#utility.yul\":6207:6240   */\n      mstore\n        /* \"#utility.yul\":6280:6286   */\n      dup2\n        /* \"#utility.yul\":6274:6287   */\n      mload\n        /* \"#utility.yul\":6308:6428   */\n      tag_292\n        /* \"#utility.yul\":6423:6427   */\n      dup6\n        /* \"#utility.yul\":6408:6421   */\n      dup3\n        /* \"#utility.yul\":6308:6428   */\n      tag_200\n      jump\t// in\n    tag_292:\n        /* \"#utility.yul\":6300:6428   */\n      swap5\n      pop\n        /* \"#utility.yul\":6451:6539   */\n      tag_293\n        /* \"#utility.yul\":6532:6538   */\n      dup4\n        /* \"#utility.yul\":6451:6539   */\n      tag_201\n      jump\t// in\n    tag_293:\n        /* \"#utility.yul\":6441:6539   */\n      swap3\n      pop\n        /* \"#utility.yul\":6568:6572   */\n      0x20\n        /* \"#utility.yul\":6563:6566   */\n      dup11\n        /* \"#utility.yul\":6559:6573   */\n      add\n        /* \"#utility.yul\":6552:6573   */\n      swap10\n      pop\n        /* \"#utility.yul\":6193:6583   */\n      pop\n        /* \"#utility.yul\":6180:6181   */\n      0x01\n        /* \"#utility.yul\":6177:6178   */\n      dup2\n        /* \"#utility.yul\":6173:6182   */\n      add\n        /* \"#utility.yul\":6168:6182   */\n      swap1\n      pop\n        /* \"#utility.yul\":6133:6583   */\n      jump(tag_289)\n    tag_291:\n        /* \"#utility.yul\":6137:6151   */\n      pop\n        /* \"#utility.yul\":6599:6603   */\n      dup3\n        /* \"#utility.yul\":6592:6603   */\n      swap8\n      pop\n        /* \"#utility.yul\":6619:6622   */\n      dup8\n        /* \"#utility.yul\":6612:6622   */\n      swap6\n      pop\n        /* \"#utility.yul\":5673:6628   */\n      pop\n      pop\n      pop\n      pop\n      pop\n        /* \"#utility.yul\":5493:6628   */\n      swap3\n      swap2\n      pop\n      pop\n      jump\t// out\n        /* \"#utility.yul\":6634:7119   */\n    tag_13:\n        /* \"#utility.yul\":6833:6837   */\n      0x00\n        /* \"#utility.yul\":6871:6873   */\n      0x20\n        /* \"#utility.yul\":6860:6869   */\n      dup3\n        /* \"#utility.yul\":6856:6874   */\n      add\n        /* \"#utility.yul\":6848:6874   */\n      swap1\n      pop\n        /* \"#utility.yul\":6920:6929   */\n      dup2\n        /* \"#utility.yul\":6914:6918   */\n      dup2\n        /* \"#utility.yul\":6910:6930   */\n      sub\n        /* \"#utility.yul\":6906:6907   */\n      0x00\n        /* \"#utility.yul\":6895:6904   */\n      dup4\n        /* \"#utility.yul\":6891:6908   */\n      add\n        /* \"#utility.yul\":6884:6931   */\n      mstore\n        /* \"#utility.yul\":6948:7112   */\n      tag_295\n        /* \"#utility.yul\":7107:7111   */\n      dup2\n        /* \"#utility.yul\":7098:7104   */\n      dup5\n        /* \"#utility.yul\":6948:7112   */\n      tag_202\n      jump\t// in\n    tag_295:\n        /* \"#utility.yul\":6940:7112   */\n      swap1\n      pop\n        /* \"#utility.yul\":6634:7119   */\n      swap3\n      swap2\n      pop\n      pop\n      jump\t// out\n        /* \"#utility.yul\":7125:7247   */\n    tag_203:\n        /* \"#utility.yul\":7198:7222   */\n      tag_297\n        /* \"#utility.yul\":7216:7221   */\n      dup2\n        /* \"#utility.yul\":7198:7222   */\n      tag_191\n      jump\t// in\n    tag_297:\n        /* \"#utility.yul\":7191:7196   */\n      dup2\n        /* \"#utility.yul\":7188:7223   */\n      eq\n        /* \"#utility.yul\":7178:7241   */\n      tag_298\n      jumpi\n        /* \"#utility.yul\":7237:7238   */\n      0x00\n        /* \"#utility.yul\":7234:7235   */\n      dup1\n        /* \"#utility.yul\":7227:7239   */\n      revert\n        /* \"#utility.yul\":7178:7241   */\n    tag_298:\n        /* \"#utility.yul\":7125:7247   */\n      pop\n      jump\t// out\n        /* \"#utility.yul\":7253:7392   */\n    tag_204:\n        /* \"#utility.yul\":7299:7304   */\n      0x00\n        /* \"#utility.yul\":7337:7343   */\n      dup2\n        /* \"#utility.yul\":7324:7344   */\n      calldataload\n        /* \"#utility.yul\":7315:7344   */\n      swap1\n      pop\n        /* \"#utility.yul\":7353:7386   */\n      tag_300\n        /* \"#utility.yul\":7380:7385   */\n      dup2\n        /* \"#utility.yul\":7353:7386   */\n      tag_203\n      jump\t// in\n    tag_300:\n        /* \"#utility.yul\":7253:7392   */\n      swap3\n      swap2\n      pop\n      pop\n      jump\t// out\n        /* \"#utility.yul\":7398:7727   */\n    tag_16:\n        /* \"#utility.yul\":7457:7463   */\n      0x00\n        /* \"#utility.yul\":7506:7508   */\n      0x20\n        /* \"#utility.yul\":7494:7503   */\n      dup3\n        /* \"#utility.yul\":7485:7492   */\n      dup5\n        /* \"#utility.yul\":7481:7504   */\n      sub\n        /* \"#utility.yul\":7477:7509   */\n      slt\n        /* \"#utility.yul\":7474:7593   */\n      iszero\n      tag_302\n      jumpi\n        /* \"#utility.yul\":7512:7591   */\n      tag_303\n      tag_182\n      jump\t// in\n    tag_303:\n        /* \"#utility.yul\":7474:7593   */\n    tag_302:\n        /* \"#utility.yul\":7632:7633   */\n      0x00\n        /* \"#utility.yul\":7657:7710   */\n      tag_304\n        /* \"#utility.yul\":7702:7709   */\n      dup5\n        /* \"#utility.yul\":7693:7699   */\n      dup3\n        /* \"#utility.yul\":7682:7691   */\n      dup6\n        /* \"#utility.yul\":7678:7700   */\n      add\n        /* \"#utility.yul\":7657:7710   */\n      tag_204\n      jump\t// in\n    tag_304:\n        /* \"#utility.yul\":7647:7710   */\n      swap2\n      pop\n        /* \"#utility.yul\":7603:7720   */\n      pop\n        /* \"#utility.yul\":7398:7727   */\n      swap3\n      swap2\n      pop\n      pop\n      jump\t// out\n        /* \"#utility.yul\":7733:7851   */\n    tag_205:\n        /* \"#utility.yul\":7820:7844   */\n      tag_306\n        /* \"#utility.yul\":7838:7843   */\n      dup2\n        /* \"#utility.yul\":7820:7844   */\n      tag_191\n      jump\t// in\n    tag_306:\n        /* \"#utility.yul\":7815:7818   */\n      dup3\n        /* \"#utility.yul\":7808:7845   */\n      mstore\n        /* \"#utility.yul\":7733:7851   */\n      pop\n      pop\n      jump\t// out\n        /* \"#utility.yul\":7857:8026   */\n    tag_206:\n        /* \"#utility.yul\":7941:7952   */\n      0x00\n        /* \"#utility.yul\":7975:7981   */\n      dup3\n        /* \"#utility.yul\":7970:7973   */\n      dup3\n        /* \"#utility.yul\":7963:7982   */\n      mstore\n        /* \"#utility.yul\":8015:8019   */\n      0x20\n        /* \"#utility.yul\":8010:8013   */\n      dup3\n        /* \"#utility.yul\":8006:8020   */\n      add\n        /* \"#utility.yul\":7991:8020   */\n      swap1\n      pop\n        /* \"#utility.yul\":7857:8026   */\n      swap3\n      swap2\n      pop\n      pop\n      jump\t// out\n        /* \"#utility.yul\":8032:8396   */\n    tag_207:\n        /* \"#utility.yul\":8120:8123   */\n      0x00\n        /* \"#utility.yul\":8148:8187   */\n      tag_309\n        /* \"#utility.yul\":8181:8186   */\n      dup3\n        /* \"#utility.yul\":8148:8187   */\n      tag_193\n      jump\t// in\n    tag_309:\n        /* \"#utility.yul\":8203:8274   */\n      tag_310\n        /* \"#utility.yul\":8267:8273   */\n      dup2\n        /* \"#utility.yul\":8262:8265   */\n      dup6\n        /* \"#utility.yul\":8203:8274   */\n      tag_206\n      jump\t// in\n    tag_310:\n        /* \"#utility.yul\":8196:8274   */\n      swap4\n      pop\n        /* \"#utility.yul\":8283:8335   */\n      tag_311\n        /* \"#utility.yul\":8328:8334   */\n      dup2\n        /* \"#utility.yul\":8323:8326   */\n      dup6\n        /* \"#utility.yul\":8316:8320   */\n      0x20\n        /* \"#utility.yul\":8309:8314   */\n      dup7\n        /* \"#utility.yul\":8305:8321   */\n      add\n        /* \"#utility.yul\":8283:8335   */\n      tag_195\n      jump\t// in\n    tag_311:\n        /* \"#utility.yul\":8360:8389   */\n      tag_312\n        /* \"#utility.yul\":8382:8388   */\n      dup2\n        /* \"#utility.yul\":8360:8389   */\n      tag_196\n      jump\t// in\n    tag_312:\n        /* \"#utility.yul\":8355:8358   */\n      dup5\n        /* \"#utility.yul\":8351:8390   */\n      add\n        /* \"#utility.yul\":8344:8390   */\n      swap2\n      pop\n        /* \"#utility.yul\":8124:8396   */\n      pop\n        /* \"#utility.yul\":8032:8396   */\n      swap3\n      swap2\n      pop\n      pop\n      jump\t// out\n        /* \"#utility.yul\":8402:8520   */\n    tag_208:\n        /* \"#utility.yul\":8489:8513   */\n      tag_314\n        /* \"#utility.yul\":8507:8512   */\n      dup2\n        /* \"#utility.yul\":8489:8513   */\n      tag_185\n      jump\t// in\n    tag_314:\n        /* \"#utility.yul\":8484:8487   */\n      dup3\n        /* \"#utility.yul\":8477:8514   */\n      mstore\n        /* \"#utility.yul\":8402:8520   */\n      pop\n      pop\n      jump\t// out\n        /* \"#utility.yul\":8526:9796   */\n    tag_22:\n        /* \"#utility.yul\":8875:8879   */\n      0x00\n        /* \"#utility.yul\":8913:8916   */\n      0x0100\n        /* \"#utility.yul\":8902:8911   */\n      dup3\n        /* \"#utility.yul\":8898:8917   */\n      add\n        /* \"#utility.yul\":8890:8917   */\n      swap1\n      pop\n        /* \"#utility.yul\":8927:8998   */\n      tag_316\n        /* \"#utility.yul\":8995:8996   */\n      0x00\n        /* \"#utility.yul\":8984:8993   */\n      dup4\n        /* \"#utility.yul\":8980:8997   */\n      add\n        /* \"#utility.yul\":8971:8977   */\n      dup12\n        /* \"#utility.yul\":8927:8998   */\n      tag_205\n      jump\t// in\n    tag_316:\n        /* \"#utility.yul\":9045:9054   */\n      dup2\n        /* \"#utility.yul\":9039:9043   */\n      dup2\n        /* \"#utility.yul\":9035:9055   */\n      sub\n        /* \"#utility.yul\":9030:9032   */\n      0x20\n        /* \"#utility.yul\":9019:9028   */\n      dup4\n        /* \"#utility.yul\":9015:9033   */\n      add\n        /* \"#utility.yul\":9008:9056   */\n      mstore\n        /* \"#utility.yul\":9073:9151   */\n      tag_317\n        /* \"#utility.yul\":9146:9150   */\n      dup2\n        /* \"#utility.yul\":9137:9143   */\n      dup11\n        /* \"#utility.yul\":9073:9151   */\n      tag_207\n      jump\t// in\n    tag_317:\n        /* \"#utility.yul\":9065:9151   */\n      swap1\n      pop\n        /* \"#utility.yul\":9161:9233   */\n      tag_318\n        /* \"#utility.yul\":9229:9231   */\n      0x40\n        /* \"#utility.yul\":9218:9227   */\n      dup4\n        /* \"#utility.yul\":9214:9232   */\n      add\n        /* \"#utility.yul\":9205:9211   */\n      dup10\n        /* \"#utility.yul\":9161:9233   */\n      tag_205\n      jump\t// in\n    tag_318:\n        /* \"#utility.yul\":9243:9315   */\n      tag_319\n        /* \"#utility.yul\":9311:9313   */\n      0x60\n        /* \"#utility.yul\":9300:9309   */\n      dup4\n        /* \"#utility.yul\":9296:9314   */\n      add\n        /* \"#utility.yul\":9287:9293   */\n      dup9\n        /* \"#utility.yul\":9243:9315   */\n      tag_208\n      jump\t// in\n    tag_319:\n        /* \"#utility.yul\":9325:9398   */\n      tag_320\n        /* \"#utility.yul\":9393:9396   */\n      0x80\n        /* \"#utility.yul\":9382:9391   */\n      dup4\n        /* \"#utility.yul\":9378:9397   */\n      add\n        /* \"#utility.yul\":9369:9375   */\n      dup8\n        /* \"#utility.yul\":9325:9398   */\n      tag_208\n      jump\t// in\n    tag_320:\n        /* \"#utility.yul\":9408:9481   */\n      tag_321\n        /* \"#utility.yul\":9476:9479   */\n      0xa0\n        /* \"#utility.yul\":9465:9474   */\n      dup4\n        /* \"#utility.yul\":9461:9480   */\n      add\n        /* \"#utility.yul\":9452:9458   */\n      dup7\n        /* \"#utility.yul\":9408:9481   */\n      tag_205\n      jump\t// in\n    tag_321:\n        /* \"#utility.yul\":9529:9538   */\n      dup2\n        /* \"#utility.yul\":9523:9527   */\n      dup2\n        /* \"#utility.yul\":9519:9539   */\n      sub\n        /* \"#utility.yul\":9513:9516   */\n      0xc0\n        /* \"#utility.yul\":9502:9511   */\n      dup4\n        /* \"#utility.yul\":9498:9517   */\n      add\n        /* \"#utility.yul\":9491:9540   */\n      mstore\n        /* \"#utility.yul\":9557:9635   */\n      tag_322\n        /* \"#utility.yul\":9630:9634   */\n      dup2\n        /* \"#utility.yul\":9621:9627   */\n      dup6\n        /* \"#utility.yul\":9557:9635   */\n      tag_207\n      jump\t// in\n    tag_322:\n        /* \"#utility.yul\":9549:9635   */\n      swap1\n      pop\n        /* \"#utility.yul\":9683:9692   */\n      dup2\n        /* \"#utility.yul\":9677:9681   */\n      dup2\n        /* \"#utility.yul\":9673:9693   */\n      sub\n        /* \"#utility.yul\":9667:9670   */\n      0xe0\n        /* \"#utility.yul\":9656:9665   */\n      dup4\n        /* \"#utility.yul\":9652:9671   */\n      add\n        /* \"#utility.yul\":9645:9694   */\n      mstore\n        /* \"#utility.yul\":9711:9789   */\n      tag_323\n        /* \"#utility.yul\":9784:9788   */\n      dup2\n        /* \"#utility.yul\":9775:9781   */\n      dup5\n        /* \"#utility.yul\":9711:9789   */\n      tag_207\n      jump\t// in\n    tag_323:\n        /* \"#utility.yul\":9703:9789   */\n      swap1\n      pop\n        /* \"#utility.yul\":8526:9796   */\n      swap10\n      swap9\n      pop\n      pop\n      pop\n      pop\n      pop\n      pop\n      pop\n      pop\n      pop\n      jump\t// out\n        /* \"#utility.yul\":9802:9919   */\n    tag_209:\n        /* \"#utility.yul\":9911:9912   */\n      0x00\n        /* \"#utility.yul\":9908:9909   */\n      dup1\n        /* \"#utility.yul\":9901:9913   */\n      revert\n        /* \"#utility.yul\":9925:10042   */\n    tag_210:\n        /* \"#utility.yul\":10034:10035   */\n      0x00\n        /* \"#utility.yul\":10031:10032   */\n      dup1\n        /* \"#utility.yul\":10024:10036   */\n      revert\n        /* \"#utility.yul\":10048:10228   */\n    tag_211:\n        /* \"#utility.yul\":10096:10173   */\n      0x4e487b7100000000000000000000000000000000000000000000000000000000\n        /* \"#utility.yul\":10093:10094   */\n      0x00\n        /* \"#utility.yul\":10086:10174   */\n      mstore\n        /* \"#utility.yul\":10193:10197   */\n      0x41\n        /* \"#utility.yul\":10190:10191   */\n      0x04\n        /* \"#utility.yul\":10183:10198   */\n      mstore\n        /* \"#utility.yul\":10217:10221   */\n      0x24\n        /* \"#utility.yul\":10214:10215   */\n      0x00\n        /* \"#utility.yul\":10207:10222   */\n      revert\n        /* \"#utility.yul\":10234:10515   */\n    tag_212:\n        /* \"#utility.yul\":10317:10344   */\n      tag_328\n        /* \"#utility.yul\":10339:10343   */\n      dup3\n        /* \"#utility.yul\":10317:10344   */\n      tag_196\n      jump\t// in\n    tag_328:\n        /* \"#utility.yul\":10309:10315   */\n      dup2\n        /* \"#utility.yul\":10305:10345   */\n      add\n        /* \"#utility.yul\":10447:10453   */\n      dup2\n        /* \"#utility.yul\":10435:10445   */\n      dup2\n        /* \"#utility.yul\":10432:10454   */\n      lt\n        /* \"#utility.yul\":10411:10429   */\n      0xffffffffffffffff\n        /* \"#utility.yul\":10399:10409   */\n      dup3\n        /* \"#utility.yul\":10396:10430   */\n      gt\n        /* \"#utility.yul\":10393:10455   */\n      or\n        /* \"#utility.yul\":10390:10478   */\n      iszero\n      tag_329\n      jumpi\n        /* \"#utility.yul\":10458:10476   */\n      tag_330\n      tag_211\n      jump\t// in\n    tag_330:\n        /* \"#utility.yul\":10390:10478   */\n    tag_329:\n        /* \"#utility.yul\":10498:10508   */\n      dup1\n        /* \"#utility.yul\":10494:10496   */\n      0x40\n        /* \"#utility.yul\":10487:10509   */\n      mstore\n        /* \"#utility.yul\":10277:10515   */\n      pop\n        /* \"#utility.yul\":10234:10515   */\n      pop\n      pop\n      jump\t// out\n        /* \"#utility.yul\":10521:10650   */\n    tag_213:\n        /* \"#utility.yul\":10555:10561   */\n      0x00\n        /* \"#utility.yul\":10582:10602   */\n      tag_332\n      tag_181\n      jump\t// in\n    tag_332:\n        /* \"#utility.yul\":10572:10602   */\n      swap1\n      pop\n        /* \"#utility.yul\":10611:10644   */\n      tag_333\n        /* \"#utility.yul\":10639:10643   */\n      dup3\n        /* \"#utility.yul\":10631:10637   */\n      dup3\n        /* \"#utility.yul\":10611:10644   */\n      tag_212\n      jump\t// in\n    tag_333:\n        /* \"#utility.yul\":10521:10650   */\n      swap2\n      swap1\n      pop\n      jump\t// out\n        /* \"#utility.yul\":10656:10964   */\n    tag_214:\n        /* \"#utility.yul\":10718:10722   */\n      0x00\n        /* \"#utility.yul\":10808:10826   */\n      0xffffffffffffffff\n        /* \"#utility.yul\":10800:10806   */\n      dup3\n        /* \"#utility.yul\":10797:10827   */\n      gt\n        /* \"#utility.yul\":10794:10850   */\n      iszero\n      tag_335\n      jumpi\n        /* \"#utility.yul\":10830:10848   */\n      tag_336\n      tag_211\n      jump\t// in\n    tag_336:\n        /* \"#utility.yul\":10794:10850   */\n    tag_335:\n        /* \"#utility.yul\":10868:10897   */\n      tag_337\n        /* \"#utility.yul\":10890:10896   */\n      dup3\n        /* \"#utility.yul\":10868:10897   */\n      tag_196\n      jump\t// in\n    tag_337:\n        /* \"#utility.yul\":10860:10897   */\n      swap1\n      pop\n        /* \"#utility.yul\":10952:10956   */\n      0x20\n        /* \"#utility.yul\":10946:10950   */\n      dup2\n        /* \"#utility.yul\":10942:10957   */\n      add\n        /* \"#utility.yul\":10934:10957   */\n      swap1\n      pop\n        /* \"#utility.yul\":10656:10964   */\n      swap2\n      swap1\n      pop\n      jump\t// out\n        /* \"#utility.yul\":10970:11124   */\n    tag_215:\n        /* \"#utility.yul\":11054:11060   */\n      dup3\n        /* \"#utility.yul\":11049:11052   */\n      dup2\n        /* \"#utility.yul\":11044:11047   */\n      dup4\n        /* \"#utility.yul\":11031:11061   */\n      calldatacopy\n        /* \"#utility.yul\":11116:11117   */\n      0x00\n        /* \"#utility.yul\":11107:11113   */\n      dup4\n        /* \"#utility.yul\":11102:11105   */\n      dup4\n        /* \"#utility.yul\":11098:11114   */\n      add\n        /* \"#utility.yul\":11091:11118   */\n      mstore\n        /* \"#utility.yul\":10970:11124   */\n      pop\n      pop\n      pop\n      jump\t// out\n        /* \"#utility.yul\":11130:11542   */\n    tag_216:\n        /* \"#utility.yul\":11208:11213   */\n      0x00\n        /* \"#utility.yul\":11233:11299   */\n      tag_340\n        /* \"#utility.yul\":11249:11298   */\n      tag_341\n        /* \"#utility.yul\":11291:11297   */\n      dup5\n        /* \"#utility.yul\":11249:11298   */\n      tag_214\n      jump\t// in\n    tag_341:\n        /* \"#utility.yul\":11233:11299   */\n      tag_213\n      jump\t// in\n    tag_340:\n        /* \"#utility.yul\":11224:11299   */\n      swap1\n      pop\n        /* \"#utility.yul\":11322:11328   */\n      dup3\n        /* \"#utility.yul\":11315:11320   */\n      dup2\n        /* \"#utility.yul\":11308:11329   */\n      mstore\n        /* \"#utility.yul\":11360:11364   */\n      0x20\n        /* \"#utility.yul\":11353:11358   */\n      dup2\n        /* \"#utility.yul\":11349:11365   */\n      add\n        /* \"#utility.yul\":11398:11401   */\n      dup5\n        /* \"#utility.yul\":11389:11395   */\n      dup5\n        /* \"#utility.yul\":11384:11387   */\n      dup5\n        /* \"#utility.yul\":11380:11396   */\n      add\n        /* \"#utility.yul\":11377:11402   */\n      gt\n        /* \"#utility.yul\":11374:11486   */\n      iszero\n      tag_342\n      jumpi\n        /* \"#utility.yul\":11405:11484   */\n      tag_343\n      tag_210\n      jump\t// in\n    tag_343:\n        /* \"#utility.yul\":11374:11486   */\n    tag_342:\n        /* \"#utility.yul\":11495:11536   */\n      tag_344\n        /* \"#utility.yul\":11529:11535   */\n      dup5\n        /* \"#utility.yul\":11524:11527   */\n      dup3\n        /* \"#utility.yul\":11519:11522   */\n      dup6\n        /* \"#utility.yul\":11495:11536   */\n      tag_215\n      jump\t// in\n    tag_344:\n        /* \"#utility.yul\":11214:11542   */\n      pop\n        /* \"#utility.yul\":11130:11542   */\n      swap4\n      swap3\n      pop\n      pop\n      pop\n      jump\t// out\n        /* \"#utility.yul\":11562:11902   */\n    tag_217:\n        /* \"#utility.yul\":11618:11623   */\n      0x00\n        /* \"#utility.yul\":11667:11670   */\n      dup3\n        /* \"#utility.yul\":11660:11664   */\n      0x1f\n        /* \"#utility.yul\":11652:11658   */\n      dup4\n        /* \"#utility.yul\":11648:11665   */\n      add\n        /* \"#utility.yul\":11644:11671   */\n      slt\n        /* \"#utility.yul\":11634:11756   */\n      tag_346\n      jumpi\n        /* \"#utility.yul\":11675:11754   */\n      tag_347\n      tag_209\n      jump\t// in\n    tag_347:\n        /* \"#utility.yul\":11634:11756   */\n    tag_346:\n        /* \"#utility.yul\":11792:11798   */\n      dup2\n        /* \"#utility.yul\":11779:11799   */\n      calldataload\n        /* \"#utility.yul\":11817:11896   */\n      tag_348\n        /* \"#utility.yul\":11892:11895   */\n      dup5\n        /* \"#utility.yul\":11884:11890   */\n      dup3\n        /* \"#utility.yul\":11877:11881   */\n      0x20\n        /* \"#utility.yul\":11869:11875   */\n      dup7\n        /* \"#utility.yul\":11865:11882   */\n      add\n        /* \"#utility.yul\":11817:11896   */\n      tag_216\n      jump\t// in\n    tag_348:\n        /* \"#utility.yul\":11808:11896   */\n      swap2\n      pop\n        /* \"#utility.yul\":11624:11902   */\n      pop\n        /* \"#utility.yul\":11562:11902   */\n      swap3\n      swap2\n      pop\n      pop\n      jump\t// out\n        /* \"#utility.yul\":11908:12887   */\n    tag_29:\n        /* \"#utility.yul\":12005:12011   */\n      0x00\n        /* \"#utility.yul\":12013:12019   */\n      dup1\n        /* \"#utility.yul\":12021:12027   */\n      0x00\n        /* \"#utility.yul\":12070:12072   */\n      0x60\n        /* \"#utility.yul\":12058:12067   */\n      dup5\n        /* \"#utility.yul\":12049:12056   */\n      dup7\n        /* \"#utility.yul\":12045:12068   */\n      sub\n        /* \"#utility.yul\":12041:12073   */\n      slt\n        /* \"#utility.yul\":12038:12157   */\n      iszero\n      tag_350\n      jumpi\n        /* \"#utility.yul\":12076:12155   */\n      tag_351\n      tag_182\n      jump\t// in\n    tag_351:\n        /* \"#utility.yul\":12038:12157   */\n    tag_350:\n        /* \"#utility.yul\":12224:12225   */\n      0x00\n        /* \"#utility.yul\":12213:12222   */\n      dup5\n        /* \"#utility.yul\":12209:12226   */\n      add\n        /* \"#utility.yul\":12196:12227   */\n      calldataload\n        /* \"#utility.yul\":12254:12272   */\n      0xffffffffffffffff\n        /* \"#utility.yul\":12246:12252   */\n      dup2\n        /* \"#utility.yul\":12243:12273   */\n      gt\n        /* \"#utility.yul\":12240:12357   */\n      iszero\n      tag_352\n      jumpi\n        /* \"#utility.yul\":12276:12355   */\n      tag_353\n      tag_183\n      jump\t// in\n    tag_353:\n        /* \"#utility.yul\":12240:12357   */\n    tag_352:\n        /* \"#utility.yul\":12381:12444   */\n      tag_354\n        /* \"#utility.yul\":12436:12443   */\n      dup7\n        /* \"#utility.yul\":12427:12433   */\n      dup3\n        /* \"#utility.yul\":12416:12425   */\n      dup8\n        /* \"#utility.yul\":12412:12434   */\n      add\n        /* \"#utility.yul\":12381:12444   */\n      tag_217\n      jump\t// in\n    tag_354:\n        /* \"#utility.yul\":12371:12444   */\n      swap4\n      pop\n        /* \"#utility.yul\":12167:12454   */\n      pop\n        /* \"#utility.yul\":12493:12495   */\n      0x20\n        /* \"#utility.yul\":12519:12572   */\n      tag_355\n        /* \"#utility.yul\":12564:12571   */\n      dup7\n        /* \"#utility.yul\":12555:12561   */\n      dup3\n        /* \"#utility.yul\":12544:12553   */\n      dup8\n        /* \"#utility.yul\":12540:12562   */\n      add\n        /* \"#utility.yul\":12519:12572   */\n      tag_187\n      jump\t// in\n    tag_355:\n        /* \"#utility.yul\":12509:12572   */\n      swap3\n      pop\n        /* \"#utility.yul\":12464:12582   */\n      pop\n        /* \"#utility.yul\":12649:12651   */\n      0x40\n        /* \"#utility.yul\":12638:12647   */\n      dup5\n        /* \"#utility.yul\":12634:12652   */\n      add\n        /* \"#utility.yul\":12621:12653   */\n      calldataload\n        /* \"#utility.yul\":12680:12698   */\n      0xffffffffffffffff\n        /* \"#utility.yul\":12672:12678   */\n      dup2\n        /* \"#utility.yul\":12669:12699   */\n      gt\n        /* \"#utility.yul\":12666:12783   */\n      iszero\n      tag_356\n      jumpi\n        /* \"#utility.yul\":12702:12781   */\n      tag_357\n      tag_183\n      jump\t// in\n    tag_357:\n        /* \"#utility.yul\":12666:12783   */\n    tag_356:\n        /* \"#utility.yul\":12807:12870   */\n      tag_358\n        /* \"#utility.yul\":12862:12869   */\n      dup7\n        /* \"#utility.yul\":12853:12859   */\n      dup3\n        /* \"#utility.yul\":12842:12851   */\n      dup8\n        /* \"#utility.yul\":12838:12860   */\n      add\n        /* \"#utility.yul\":12807:12870   */\n      tag_217\n      jump\t// in\n    tag_358:\n        /* \"#utility.yul\":12797:12870   */\n      swap2\n      pop\n        /* \"#utility.yul\":12592:12880   */\n      pop\n        /* \"#utility.yul\":11908:12887   */\n      swap3\n      pop\n      swap3\n      pop\n      swap3\n      jump\t// out\n        /* \"#utility.yul\":12893:13073   */\n    tag_218:\n        /* \"#utility.yul\":12941:13018   */\n      0x4e487b7100000000000000000000000000000000000000000000000000000000\n        /* \"#utility.yul\":12938:12939   */\n      0x00\n        /* \"#utility.yul\":12931:13019   */\n      mstore\n        /* \"#utility.yul\":13038:13042   */\n      0x22\n        /* \"#utility.yul\":13035:13036   */\n      0x04\n        /* \"#utility.yul\":13028:13043   */\n      mstore\n        /* \"#utility.yul\":13062:13066   */\n      0x24\n        /* \"#utility.yul\":13059:13060   */\n      0x00\n        /* \"#utility.yul\":13052:13067   */\n      revert\n        /* \"#utility.yul\":13079:13399   */\n    tag_36:\n        /* \"#utility.yul\":13123:13129   */\n      0x00\n        /* \"#utility.yul\":13160:13161   */\n      0x02\n        /* \"#utility.yul\":13154:13158   */\n      dup3\n        /* \"#utility.yul\":13150:13162   */\n      div\n        /* \"#utility.yul\":13140:13162   */\n      swap1\n      pop\n        /* \"#utility.yul\":13207:13208   */\n      0x01\n        /* \"#utility.yul\":13201:13205   */\n      dup3\n        /* \"#utility.yul\":13197:13209   */\n      and\n        /* \"#utility.yul\":13228:13246   */\n      dup1\n        /* \"#utility.yul\":13218:13299   */\n      tag_361\n      jumpi\n        /* \"#utility.yul\":13284:13288   */\n      0x7f\n        /* \"#utility.yul\":13276:13282   */\n      dup3\n        /* \"#utility.yul\":13272:13289   */\n      and\n        /* \"#utility.yul\":13262:13289   */\n      swap2\n      pop\n        /* \"#utility.yul\":13218:13299   */\n    tag_361:\n        /* \"#utility.yul\":13346:13348   */\n      0x20\n        /* \"#utility.yul\":13338:13344   */\n      dup3\n        /* \"#utility.yul\":13335:13349   */\n      lt\n        /* \"#utility.yul\":13315:13333   */\n      dup2\n        /* \"#utility.yul\":13312:13350   */\n      sub\n        /* \"#utility.yul\":13309:13393   */\n      tag_362\n      jumpi\n        /* \"#utility.yul\":13365:13383   */\n      tag_363\n      tag_218\n      jump\t// in\n    tag_363:\n        /* \"#utility.yul\":13309:13393   */\n    tag_362:\n        /* \"#utility.yul\":13130:13399   */\n      pop\n        /* \"#utility.yul\":13079:13399   */\n      swap2\n      swap1\n      pop\n      jump\t// out\n        /* \"#utility.yul\":13405:13585   */\n    tag_219:\n        /* \"#utility.yul\":13453:13530   */\n      0x4e487b7100000000000000000000000000000000000000000000000000000000\n        /* \"#utility.yul\":13450:13451   */\n      0x00\n        /* \"#utility.yul\":13443:13531   */\n      mstore\n        /* \"#utility.yul\":13550:13554   */\n      0x11\n        /* \"#utility.yul\":13547:13548   */\n      0x04\n        /* \"#utility.yul\":13540:13555   */\n      mstore\n        /* \"#utility.yul\":13574:13578   */\n      0x24\n        /* \"#utility.yul\":13571:13572   */\n      0x00\n        /* \"#utility.yul\":13564:13579   */\n      revert\n        /* \"#utility.yul\":13591:13782   */\n    tag_53:\n        /* \"#utility.yul\":13631:13635   */\n      0x00\n        /* \"#utility.yul\":13651:13671   */\n      tag_366\n        /* \"#utility.yul\":13669:13670   */\n      dup3\n        /* \"#utility.yul\":13651:13671   */\n      tag_191\n      jump\t// in\n    tag_366:\n        /* \"#utility.yul\":13646:13671   */\n      swap2\n      pop\n        /* \"#utility.yul\":13685:13705   */\n      tag_367\n        /* \"#utility.yul\":13703:13704   */\n      dup4\n        /* \"#utility.yul\":13685:13705   */\n      tag_191\n      jump\t// in\n    tag_367:\n        /* \"#utility.yul\":13680:13705   */\n      swap3\n      pop\n        /* \"#utility.yul\":13724:13725   */\n      dup3\n        /* \"#utility.yul\":13721:13722   */\n      dup3\n        /* \"#utility.yul\":13718:13726   */\n      lt\n        /* \"#utility.yul\":13715:13749   */\n      iszero\n      tag_368\n      jumpi\n        /* \"#utility.yul\":13729:13747   */\n      tag_369\n      tag_219\n      jump\t// in\n    tag_369:\n        /* \"#utility.yul\":13715:13749   */\n    tag_368:\n        /* \"#utility.yul\":13774:13775   */\n      dup3\n        /* \"#utility.yul\":13771:13772   */\n      dup3\n        /* \"#utility.yul\":13767:13776   */\n      sub\n        /* \"#utility.yul\":13759:13776   */\n      swap1\n      pop\n        /* \"#utility.yul\":13591:13782   */\n      swap3\n      swap2\n      pop\n      pop\n      jump\t// out\n        /* \"#utility.yul\":13788:13968   */\n    tag_56:\n        /* \"#utility.yul\":13836:13913   */\n      0x4e487b7100000000000000000000000000000000000000000000000000000000\n        /* \"#utility.yul\":13833:13834   */\n      0x00\n        /* \"#utility.yul\":13826:13914   */\n      mstore\n        /* \"#utility.yul\":13933:13937   */\n      0x32\n        /* \"#utility.yul\":13930:13931   */\n      0x04\n        /* \"#utility.yul\":13923:13938   */\n      mstore\n        /* \"#utility.yul\":13957:13961   */\n      0x24\n        /* \"#utility.yul\":13954:13955   */\n      0x00\n        /* \"#utility.yul\":13947:13962   */\n      revert\n        /* \"#utility.yul\":13974:14154   */\n    tag_61:\n        /* \"#utility.yul\":14022:14099   */\n      0x4e487b7100000000000000000000000000000000000000000000000000000000\n        /* \"#utility.yul\":14019:14020   */\n      0x00\n        /* \"#utility.yul\":14012:14100   */\n      mstore\n        /* \"#utility.yul\":14119:14123   */\n      0x31\n        /* \"#utility.yul\":14116:14117   */\n      0x04\n        /* \"#utility.yul\":14109:14124   */\n      mstore\n        /* \"#utility.yul\":14143:14147   */\n      0x24\n        /* \"#utility.yul\":14140:14141   */\n      0x00\n        /* \"#utility.yul\":14133:14148   */\n      revert\n        /* \"#utility.yul\":14160:14465   */\n    tag_77:\n        /* \"#utility.yul\":14200:14203   */\n      0x00\n        /* \"#utility.yul\":14219:14239   */\n      tag_373\n        /* \"#utility.yul\":14237:14238   */\n      dup3\n        /* \"#utility.yul\":14219:14239   */\n      tag_191\n      jump\t// in\n    tag_373:\n        /* \"#utility.yul\":14214:14239   */\n      swap2\n      pop\n        /* \"#utility.yul\":14253:14273   */\n      tag_374\n        /* \"#utility.yul\":14271:14272   */\n      dup4\n        /* \"#utility.yul\":14253:14273   */\n      tag_191\n      jump\t// in\n    tag_374:\n        /* \"#utility.yul\":14248:14273   */\n      swap3\n      pop\n        /* \"#utility.yul\":14407:14408   */\n      dup3\n        /* \"#utility.yul\":14339:14405   */\n      0xffffffffffffffffffffffffffffffffffffffffffffffffffffffffffffffff\n        /* \"#utility.yul\":14335:14409   */\n      sub\n        /* \"#utility.yul\":14332:14333   */\n      dup3\n        /* \"#utility.yul\":14329:14410   */\n      gt\n        /* \"#utility.yul\":14326:14433   */\n      iszero\n      tag_375\n      jumpi\n        /* \"#utility.yul\":14413:14431   */\n      tag_376\n      tag_219\n      jump\t// in\n    tag_376:\n        /* \"#utility.yul\":14326:14433   */\n    tag_375:\n        /* \"#utility.yul\":14457:14458   */\n      dup3\n        /* \"#utility.yul\":14454:14455   */\n      dup3\n        /* \"#utility.yul\":14450:14459   */\n      add\n        /* \"#utility.yul\":14443:14459   */\n      swap1\n      pop\n        /* \"#utility.yul\":14160:14465   */\n      swap3\n      swap2\n      pop\n      pop\n      jump\t// out\n        /* \"#utility.yul\":14471:14620   */\n    tag_220:\n        /* \"#utility.yul\":14520:14526   */\n      0x00\n        /* \"#utility.yul\":14554:14559   */\n      dup2\n        /* \"#utility.yul\":14548:14560   */\n      sload\n        /* \"#utility.yul\":14538:14560   */\n      swap1\n      pop\n        /* \"#utility.yul\":14580:14613   */\n      tag_378\n        /* \"#utility.yul\":14606:14612   */\n      dup2\n        /* \"#utility.yul\":14580:14613   */\n      tag_36\n      jump\t// in\n    tag_378:\n        /* \"#utility.yul\":14570:14613   */\n      swap1\n      pop\n        /* \"#utility.yul\":14471:14620   */\n      swap2\n      swap1\n      pop\n      jump\t// out\n        /* \"#utility.yul\":14626:14767   */\n    tag_221:\n        /* \"#utility.yul\":14675:14679   */\n      0x00\n        /* \"#utility.yul\":14698:14701   */\n      dup2\n        /* \"#utility.yul\":14690:14701   */\n      swap1\n      pop\n        /* \"#utility.yul\":14721:14724   */\n      dup2\n        /* \"#utility.yul\":14718:14719   */\n      0x00\n        /* \"#utility.yul\":14711:14725   */\n      mstore\n        /* \"#utility.yul\":14755:14759   */\n      0x20\n        /* \"#utility.yul\":14752:14753   */\n      0x00\n        /* \"#utility.yul\":14742:14760   */\n      keccak256\n        /* \"#utility.yul\":14734:14760   */\n      swap1\n      pop\n        /* \"#utility.yul\":14626:14767   */\n      swap2\n      swap1\n      pop\n      jump\t// out\n        /* \"#utility.yul\":14773:14866   */\n    tag_222:\n        /* \"#utility.yul\":14810:14816   */\n      0x00\n        /* \"#utility.yul\":14857:14859   */\n      0x20\n        /* \"#utility.yul\":14852:14854   */\n      0x1f\n        /* \"#utility.yul\":14845:14850   */\n      dup4\n        /* \"#utility.yul\":14841:14855   */\n      add\n        /* \"#utility.yul\":14837:14860   */\n      div\n        /* \"#utility.yul\":14827:14860   */\n      swap1\n      pop\n        /* \"#utility.yul\":14773:14866   */\n      swap2\n      swap1\n      pop\n      jump\t// out\n        /* \"#utility.yul\":14872:14979   */\n    tag_223:\n        /* \"#utility.yul\":14916:14924   */\n      0x00\n        /* \"#utility.yul\":14966:14971   */\n      dup3\n        /* \"#utility.yul\":14960:14964   */\n      dup3\n        /* \"#utility.yul\":14956:14972   */\n      shl\n        /* \"#utility.yul\":14935:14972   */\n      swap1\n      pop\n        /* \"#utility.yul\":14872:14979   */\n      swap3\n      swap2\n      pop\n      pop\n      jump\t// out\n        /* \"#utility.yul\":14985:15378   */\n    tag_224:\n        /* \"#utility.yul\":15054:15060   */\n      0x00\n        /* \"#utility.yul\":15104:15105   */\n      0x08\n        /* \"#utility.yul\":15092:15102   */\n      dup4\n        /* \"#utility.yul\":15088:15106   */\n      mul\n        /* \"#utility.yul\":15127:15224   */\n      tag_383\n        /* \"#utility.yul\":15157:15223   */\n      0xffffffffffffffffffffffffffffffffffffffffffffffffffffffffffffffff\n        /* \"#utility.yul\":15146:15155   */\n      dup3\n        /* \"#utility.yul\":15127:15224   */\n      tag_223\n      jump\t// in\n    tag_383:\n        /* \"#utility.yul\":15245:15284   */\n      tag_384\n        /* \"#utility.yul\":15275:15283   */\n      dup7\n        /* \"#utility.yul\":15264:15273   */\n      dup4\n        /* \"#utility.yul\":15245:15284   */\n      tag_223\n      jump\t// in\n    tag_384:\n        /* \"#utility.yul\":15233:15284   */\n      swap6\n      pop\n        /* \"#utility.yul\":15317:15321   */\n      dup1\n        /* \"#utility.yul\":15313:15322   */\n      not\n        /* \"#utility.yul\":15306:15311   */\n      dup5\n        /* \"#utility.yul\":15302:15323   */\n      and\n        /* \"#utility.yul\":15293:15323   */\n      swap4\n      pop\n        /* \"#utility.yul\":15366:15370   */\n      dup1\n        /* \"#utility.yul\":15356:15364   */\n      dup7\n        /* \"#utility.yul\":15352:15371   */\n      and\n        /* \"#utility.yul\":15345:15350   */\n      dup5\n        /* \"#utility.yul\":15342:15372   */\n      or\n        /* \"#utility.yul\":15332:15372   */\n      swap3\n      pop\n        /* \"#utility.yul\":15061:15378   */\n      pop\n      pop\n        /* \"#utility.yul\":14985:15378   */\n      swap4\n      swap3\n      pop\n      pop\n      pop\n      jump\t// out\n        /* \"#utility.yul\":15384:15444   */\n    tag_225:\n        /* \"#utility.yul\":15412:15415   */\n      0x00\n        /* \"#utility.yul\":15433:15438   */\n      dup2\n        /* \"#utility.yul\":15426:15438   */\n      swap1\n      pop\n        /* \"#utility.yul\":15384:15444   */\n      swap2\n      swap1\n      pop\n      jump\t// out\n        /* \"#utility.yul\":15450:15592   */\n    tag_226:\n        /* \"#utility.yul\":15500:15509   */\n      0x00\n        /* \"#utility.yul\":15533:15586   */\n      tag_387\n        /* \"#utility.yul\":15551:15585   */\n      tag_388\n        /* \"#utility.yul\":15560:15584   */\n      tag_389\n        /* \"#utility.yul\":15578:15583   */\n      dup5\n        /* \"#utility.yul\":15560:15584   */\n      tag_191\n      jump\t// in\n    tag_389:\n        /* \"#utility.yul\":15551:15585   */\n      tag_225\n      jump\t// in\n    tag_388:\n        /* \"#utility.yul\":15533:15586   */\n      tag_191\n      jump\t// in\n    tag_387:\n        /* \"#utility.yul\":15520:15586   */\n      swap1\n      pop\n        /* \"#utility.yul\":15450:15592   */\n      swap2\n      swap1\n      pop\n      jump\t// out\n        /* \"#utility.yul\":15598:15673   */\n    tag_227:\n        /* \"#utility.yul\":15641:15644   */\n      0x00\n        /* \"#utility.yul\":15662:15667   */\n      dup2\n        /* \"#utility.yul\":15655:15667   */\n      swap1\n      pop\n        /* \"#utility.yul\":15598:15673   */\n      swap2\n      swap1\n      pop\n      jump\t// out\n        /* \"#utility.yul\":15679:15948   */\n    tag_228:\n        /* \"#utility.yul\":15789:15828   */\n      tag_392\n        /* \"#utility.yul\":15820:15827   */\n      dup4\n        /* \"#utility.yul\":15789:15828   */\n      tag_226\n      jump\t// in\n    tag_392:\n        /* \"#utility.yul\":15850:15941   */\n      tag_393\n        /* \"#utility.yul\":15899:15940   */\n      tag_394\n        /* \"#utility.yul\":15923:15939   */\n      dup3\n        /* \"#utility.yul\":15899:15940   */\n      tag_227\n      jump\t// in\n    tag_394:\n        /* \"#utility.yul\":15891:15897   */\n      dup5\n        /* \"#utility.yul\":15884:15888   */\n      dup5\n        /* \"#utility.yul\":15878:15889   */\n      sload\n        /* \"#utility.yul\":15850:15941   */\n      tag_224\n      jump\t// in\n    tag_393:\n        /* \"#utility.yul\":15844:15848   */\n      dup3\n        /* \"#utility.yul\":15837:15942   */\n      sstore\n        /* \"#utility.yul\":15755:15948   */\n      pop\n        /* \"#utility.yul\":15679:15948   */\n      pop\n      pop\n      pop\n      jump\t// out\n        /* \"#utility.yul\":15954:16027   */\n    tag_229:\n        /* \"#utility.yul\":15999:16002   */\n      0x00\n        /* \"#utility.yul\":15954:16027   */\n      swap1\n      jump\t// out\n        /* \"#utility.yul\":16033:16222   */\n    tag_230:\n        /* \"#utility.yul\":16110:16142   */\n      tag_397\n      tag_229\n      jump\t// in\n    tag_397:\n        /* \"#utility.yul\":16151:16216   */\n      tag_398\n        /* \"#utility.yul\":16209:16215   */\n      dup2\n        /* \"#utility.yul\":16201:16207   */\n      dup5\n        /* \"#utility.yul\":16195:16199   */\n      dup5\n        /* \"#utility.yul\":16151:16216   */\n      tag_228\n      jump\t// in\n    tag_398:\n        /* \"#utility.yul\":16086:16222   */\n      pop\n        /* \"#utility.yul\":16033:16222   */\n      pop\n      pop\n      jump\t// out\n        /* \"#utility.yul\":16228:16414   */\n    tag_231:\n        /* \"#utility.yul\":16288:16408   */\n    tag_400:\n        /* \"#utility.yul\":16305:16308   */\n      dup2\n        /* \"#utility.yul\":16298:16303   */\n      dup2\n        /* \"#utility.yul\":16295:16309   */\n      lt\n        /* \"#utility.yul\":16288:16408   */\n      iszero\n      tag_402\n      jumpi\n        /* \"#utility.yul\":16359:16398   */\n      tag_403\n        /* \"#utility.yul\":16396:16397   */\n      0x00\n        /* \"#utility.yul\":16389:16394   */\n      dup3\n        /* \"#utility.yul\":16359:16398   */\n      tag_230\n      jump\t// in\n    tag_403:\n        /* \"#utility.yul\":16332:16333   */\n      0x01\n        /* \"#utility.yul\":16325:16330   */\n      dup2\n        /* \"#utility.yul\":16321:16334   */\n      add\n        /* \"#utility.yul\":16312:16334   */\n      swap1\n      pop\n        /* \"#utility.yul\":16288:16408   */\n      jump(tag_400)\n    tag_402:\n        /* \"#utility.yul\":16228:16414   */\n      pop\n      pop\n      jump\t// out\n        /* \"#utility.yul\":16420:16963   */\n    tag_232:\n        /* \"#utility.yul\":16521:16523   */\n      0x1f\n        /* \"#utility.yul\":16516:16519   */\n      dup3\n        /* \"#utility.yul\":16513:16524   */\n      gt\n        /* \"#utility.yul\":16510:16956   */\n      iszero\n      tag_405\n      jumpi\n        /* \"#utility.yul\":16555:16593   */\n      tag_406\n        /* \"#utility.yul\":16587:16592   */\n      dup2\n        /* \"#utility.yul\":16555:16593   */\n      tag_221\n      jump\t// in\n    tag_406:\n        /* \"#utility.yul\":16639:16668   */\n      tag_407\n        /* \"#utility.yul\":16657:16667   */\n      dup5\n        /* \"#utility.yul\":16639:16668   */\n      tag_222\n      jump\t// in\n    tag_407:\n        /* \"#utility.yul\":16629:16637   */\n      dup2\n        /* \"#utility.yul\":16625:16669   */\n      add\n        /* \"#utility.yul\":16822:16824   */\n      0x20\n        /* \"#utility.yul\":16810:16820   */\n      dup6\n        /* \"#utility.yul\":16807:16825   */\n      lt\n        /* \"#utility.yul\":16804:16853   */\n      iszero\n      tag_408\n      jumpi\n        /* \"#utility.yul\":16843:16851   */\n      dup2\n        /* \"#utility.yul\":16828:16851   */\n      swap1\n      pop\n        /* \"#utility.yul\":16804:16853   */\n    tag_408:\n        /* \"#utility.yul\":16866:16946   */\n      tag_409\n        /* \"#utility.yul\":16922:16944   */\n      tag_410\n        /* \"#utility.yul\":16940:16943   */\n      dup6\n        /* \"#utility.yul\":16922:16944   */\n      tag_222\n      jump\t// in\n    tag_410:\n        /* \"#utility.yul\":16912:16920   */\n      dup4\n        /* \"#utility.yul\":16908:16945   */\n      add\n        /* \"#utility.yul\":16895:16906   */\n      dup3\n        /* \"#utility.yul\":16866:16946   */\n      tag_231\n      jump\t// in\n    tag_409:\n        /* \"#utility.yul\":16525:16956   */\n      pop\n      pop\n        /* \"#utility.yul\":16510:16956   */\n    tag_405:\n        /* \"#utility.yul\":16420:16963   */\n      pop\n      pop\n      pop\n      jump\t// out\n        /* \"#utility.yul\":16969:17086   */\n    tag_233:\n        /* \"#utility.yul\":17023:17031   */\n      0x00\n        /* \"#utility.yul\":17073:17078   */\n      dup3\n        /* \"#utility.yul\":17067:17071   */\n      dup3\n        /* \"#utility.yul\":17063:17079   */\n      shr\n        /* \"#utility.yul\":17042:17079   */\n      swap1\n      pop\n        /* \"#utility.yul\":16969:17086   */\n      swap3\n      swap2\n      pop\n      pop\n      jump\t// out\n        /* \"#utility.yul\":17092:17261   */\n    tag_234:\n        /* \"#utility.yul\":17136:17142   */\n      0x00\n        /* \"#utility.yul\":17169:17220   */\n      tag_413\n        /* \"#utility.yul\":17217:17218   */\n      0x00\n        /* \"#utility.yul\":17213:17219   */\n      not\n        /* \"#utility.yul\":17205:17210   */\n      dup5\n        /* \"#utility.yul\":17202:17203   */\n      0x08\n        /* \"#utility.yul\":17198:17211   */\n      mul\n        /* \"#utility.yul\":17169:17220   */\n      tag_233\n      jump\t// in\n    tag_413:\n        /* \"#utility.yul\":17165:17221   */\n      not\n        /* \"#utility.yul\":17250:17254   */\n      dup1\n        /* \"#utility.yul\":17244:17248   */\n      dup4\n        /* \"#utility.yul\":17240:17255   */\n      and\n        /* \"#utility.yul\":17230:17255   */\n      swap2\n      pop\n        /* \"#utility.yul\":17143:17261   */\n      pop\n        /* \"#utility.yul\":17092:17261   */\n      swap3\n      swap2\n      pop\n      pop\n      jump\t// out\n        /* \"#utility.yul\":17266:17561   */\n    tag_235:\n        /* \"#utility.yul\":17342:17346   */\n      0x00\n        /* \"#utility.yul\":17488:17517   */\n      tag_415\n        /* \"#utility.yul\":17513:17516   */\n      dup4\n        /* \"#utility.yul\":17507:17511   */\n      dup4\n        /* \"#utility.yul\":17488:17517   */\n      tag_234\n      jump\t// in\n    tag_415:\n        /* \"#utility.yul\":17480:17517   */\n      swap2\n      pop\n        /* \"#utility.yul\":17550:17553   */\n      dup3\n        /* \"#utility.yul\":17547:17548   */\n      0x02\n        /* \"#utility.yul\":17543:17554   */\n      mul\n        /* \"#utility.yul\":17537:17541   */\n      dup3\n        /* \"#utility.yul\":17534:17555   */\n      or\n        /* \"#utility.yul\":17526:17555   */\n      swap1\n      pop\n        /* \"#utility.yul\":17266:17561   */\n      swap3\n      swap2\n      pop\n      pop\n      jump\t// out\n        /* \"#utility.yul\":17566:19017   */\n    tag_85:\n        /* \"#utility.yul\":17677:17680   */\n      dup2\n        /* \"#utility.yul\":17671:17675   */\n      dup2\n        /* \"#utility.yul\":17668:17681   */\n      sub\n        /* \"#utility.yul\":17665:17691   */\n      tag_417\n      jumpi\n        /* \"#utility.yul\":17684:17689   */\n      pop\n      pop\n      jump(tag_416)\n        /* \"#utility.yul\":17665:17691   */\n    tag_417:\n        /* \"#utility.yul\":17715:17749   */\n      tag_418\n        /* \"#utility.yul\":17745:17748   */\n      dup3\n        /* \"#utility.yul\":17715:17749   */\n      tag_220\n      jump\t// in\n    tag_418:\n        /* \"#utility.yul\":17814:17832   */\n      0xffffffffffffffff\n        /* \"#utility.yul\":17806:17812   */\n      dup2\n        /* \"#utility.yul\":17803:17833   */\n      gt\n        /* \"#utility.yul\":17800:17856   */\n      iszero\n      tag_419\n      jumpi\n        /* \"#utility.yul\":17836:17854   */\n      tag_420\n      tag_211\n      jump\t// in\n    tag_420:\n        /* \"#utility.yul\":17800:17856   */\n    tag_419:\n        /* \"#utility.yul\":17880:17918   */\n      tag_421\n        /* \"#utility.yul\":17912:17916   */\n      dup3\n        /* \"#utility.yul\":17906:17917   */\n      sload\n        /* \"#utility.yul\":17880:17918   */\n      tag_36\n      jump\t// in\n    tag_421:\n        /* \"#utility.yul\":17965:18032   */\n      tag_422\n        /* \"#utility.yul\":18025:18031   */\n      dup3\n        /* \"#utility.yul\":18017:18023   */\n      dup3\n        /* \"#utility.yul\":18011:18015   */\n      dup6\n        /* \"#utility.yul\":17965:18032   */\n      tag_232\n      jump\t// in\n    tag_422:\n        /* \"#utility.yul\":18059:18060   */\n      0x00\n        /* \"#utility.yul\":18088:18090   */\n      0x1f\n        /* \"#utility.yul\":18080:18086   */\n      dup4\n        /* \"#utility.yul\":18077:18091   */\n      gt\n        /* \"#utility.yul\":18105:18106   */\n      0x01\n        /* \"#utility.yul\":18100:18772   */\n      dup2\n      eq\n      tag_424\n      jumpi\n        /* \"#utility.yul\":18816:18817   */\n      0x00\n        /* \"#utility.yul\":18833:18839   */\n      dup5\n        /* \"#utility.yul\":18830:18907   */\n      iszero\n      tag_425\n      jumpi\n        /* \"#utility.yul\":18882:18891   */\n      dup3\n        /* \"#utility.yul\":18877:18880   */\n      dup8\n        /* \"#utility.yul\":18873:18892   */\n      add\n        /* \"#utility.yul\":18867:18893   */\n      sload\n        /* \"#utility.yul\":18858:18893   */\n      swap1\n      pop\n        /* \"#utility.yul\":18830:18907   */\n    tag_425:\n        /* \"#utility.yul\":18933:19000   */\n      tag_426\n        /* \"#utility.yul\":18993:18999   */\n      dup6\n        /* \"#utility.yul\":18986:18991   */\n      dup3\n        /* \"#utility.yul\":18933:19000   */\n      tag_235\n      jump\t// in\n    tag_426:\n        /* \"#utility.yul\":18927:18931   */\n      dup7\n        /* \"#utility.yul\":18920:19001   */\n      sstore\n        /* \"#utility.yul\":18789:19011   */\n      pop\n        /* \"#utility.yul\":18070:19011   */\n      jump(tag_423)\n        /* \"#utility.yul\":18100:18772   */\n    tag_424:\n        /* \"#utility.yul\":18152:18156   */\n      0x1f\n        /* \"#utility.yul\":18148:18157   */\n      not\n        /* \"#utility.yul\":18140:18146   */\n      dup5\n        /* \"#utility.yul\":18136:18158   */\n      and\n        /* \"#utility.yul\":18178:18214   */\n      tag_427\n        /* \"#utility.yul\":18210:18213   */\n      dup8\n        /* \"#utility.yul\":18178:18214   */\n      tag_221\n      jump\t// in\n    tag_427:\n        /* \"#utility.yul\":18171:18214   */\n      swap7\n      pop\n        /* \"#utility.yul\":18241:18278   */\n      tag_428\n        /* \"#utility.yul\":18273:18277   */\n      dup7\n        /* \"#utility.yul\":18241:18278   */\n      tag_221\n      jump\t// in\n    tag_428:\n        /* \"#utility.yul\":18300:18301   */\n      0x00\n        /* \"#utility.yul\":18314:18521   */\n    tag_429:\n        /* \"#utility.yul\":18328:18335   */\n      dup3\n        /* \"#utility.yul\":18325:18326   */\n      dup2\n        /* \"#utility.yul\":18322:18336   */\n      lt\n        /* \"#utility.yul\":18314:18521   */\n      iszero\n      tag_431\n      jumpi\n        /* \"#utility.yul\":18407:18416   */\n      dup5\n        /* \"#utility.yul\":18402:18405   */\n      dup10\n        /* \"#utility.yul\":18398:18417   */\n      add\n        /* \"#utility.yul\":18392:18418   */\n      sload\n        /* \"#utility.yul\":18384:18390   */\n      dup3\n        /* \"#utility.yul\":18377:18419   */\n      sstore\n        /* \"#utility.yul\":18458:18459   */\n      0x01\n        /* \"#utility.yul\":18450:18456   */\n      dup3\n        /* \"#utility.yul\":18446:18460   */\n      add\n        /* \"#utility.yul\":18436:18460   */\n      swap2\n      pop\n        /* \"#utility.yul\":18505:18506   */\n      0x01\n        /* \"#utility.yul\":18494:18503   */\n      dup6\n        /* \"#utility.yul\":18490:18507   */\n      add\n        /* \"#utility.yul\":18477:18507   */\n      swap5\n      pop\n        /* \"#utility.yul\":18351:18355   */\n      0x20\n        /* \"#utility.yul\":18348:18349   */\n      dup2\n        /* \"#utility.yul\":18344:18356   */\n      add\n        /* \"#utility.yul\":18339:18356   */\n      swap1\n      pop\n        /* \"#utility.yul\":18314:18521   */\n      jump(tag_429)\n    tag_431:\n        /* \"#utility.yul\":18549:18555   */\n      dup7\n        /* \"#utility.yul\":18540:18547   */\n      dup4\n        /* \"#utility.yul\":18537:18556   */\n      lt\n        /* \"#utility.yul\":18534:18713   */\n      iszero\n      tag_432\n      jumpi\n        /* \"#utility.yul\":18607:18616   */\n      dup5\n        /* \"#utility.yul\":18602:18605   */\n      dup10\n        /* \"#utility.yul\":18598:18617   */\n      add\n        /* \"#utility.yul\":18592:18618   */\n      sload\n        /* \"#utility.yul\":18650:18698   */\n      tag_433\n        /* \"#utility.yul\":18692:18696   */\n      0x1f\n        /* \"#utility.yul\":18684:18690   */\n      dup10\n        /* \"#utility.yul\":18680:18697   */\n      and\n        /* \"#utility.yul\":18669:18678   */\n      dup3\n        /* \"#utility.yul\":18650:18698   */\n      tag_234\n      jump\t// in\n    tag_433:\n        /* \"#utility.yul\":18642:18648   */\n      dup4\n        /* \"#utility.yul\":18635:18699   */\n      sstore\n        /* \"#utility.yul\":18557:18713   */\n      pop\n        /* \"#utility.yul\":18534:18713   */\n    tag_432:\n        /* \"#utility.yul\":18759:18760   */\n      0x01\n        /* \"#utility.yul\":18755:18756   */\n      0x02\n        /* \"#utility.yul\":18747:18753   */\n      dup9\n        /* \"#utility.yul\":18743:18757   */\n      mul\n        /* \"#utility.yul\":18739:18761   */\n      add\n        /* \"#utility.yul\":18733:18737   */\n      dup9\n        /* \"#utility.yul\":18726:18762   */\n      sstore\n        /* \"#utility.yul\":18107:18772   */\n      pop\n      pop\n      pop\n        /* \"#utility.yul\":18070:19011   */\n    tag_423:\n      pop\n        /* \"#utility.yul\":17655:19017   */\n      pop\n      pop\n      pop\n        /* \"#utility.yul\":17566:19017   */\n      pop\n      pop\n    tag_416:\n      jump\t// out\n        /* \"#utility.yul\":19023:19256   */\n    tag_89:\n        /* \"#utility.yul\":19062:19065   */\n      0x00\n        /* \"#utility.yul\":19085:19109   */\n      tag_435\n        /* \"#utility.yul\":19103:19108   */\n      dup3\n        /* \"#utility.yul\":19085:19109   */\n      tag_191\n      jump\t// in\n    tag_435:\n        /* \"#utility.yul\":19076:19109   */\n      swap2\n      pop\n        /* \"#utility.yul\":19131:19197   */\n      0xffffffffffffffffffffffffffffffffffffffffffffffffffffffffffffffff\n        /* \"#utility.yul\":19124:19129   */\n      dup3\n        /* \"#utility.yul\":19121:19198   */\n      sub\n        /* \"#utility.yul\":19118:19221   */\n      tag_436\n      jumpi\n        /* \"#utility.yul\":19201:19219   */\n      tag_437\n      tag_219\n      jump\t// in\n    tag_437:\n        /* \"#utility.yul\":19118:19221   */\n    tag_436:\n        /* \"#utility.yul\":19248:19249   */\n      0x01\n        /* \"#utility.yul\":19241:19246   */\n      dup3\n        /* \"#utility.yul\":19237:19250   */\n      add\n        /* \"#utility.yul\":19230:19250   */\n      swap1\n      pop\n        /* \"#utility.yul\":19023:19256   */\n      swap2\n      swap1\n      pop\n      jump\t// out\n        /* \"#utility.yul\":19262:20657   */\n    tag_163:\n        /* \"#utility.yul\":19379:19416   */\n      tag_439\n        /* \"#utility.yul\":19412:19415   */\n      dup3\n        /* \"#utility.yul\":19379:19416   */\n      tag_193\n      jump\t// in\n    tag_439:\n        /* \"#utility.yul\":19481:19499   */\n      0xffffffffffffffff\n        /* \"#utility.yul\":19473:19479   */\n      dup2\n        /* \"#utility.yul\":19470:19500   */\n      gt\n        /* \"#utility.yul\":19467:19523   */\n      iszero\n      tag_440\n      jumpi\n        /* \"#utility.yul\":19503:19521   */\n      tag_441\n      tag_211\n      jump\t// in\n    tag_441:\n        /* \"#utility.yul\":19467:19523   */\n    tag_440:\n        /* \"#utility.yul\":19547:19585   */\n      tag_442\n        /* \"#utility.yul\":19579:19583   */\n      dup3\n        /* \"#utility.yul\":19573:19584   */\n      sload\n        /* \"#utility.yul\":19547:19585   */\n      tag_36\n      jump\t// in\n    tag_442:\n        /* \"#utility.yul\":19632:19699   */\n      tag_443\n        /* \"#utility.yul\":19692:19698   */\n      dup3\n        /* \"#utility.yul\":19684:19690   */\n      dup3\n        /* \"#utility.yul\":19678:19682   */\n      dup6\n        /* \"#utility.yul\":19632:19699   */\n      tag_232\n      jump\t// in\n    tag_443:\n        /* \"#utility.yul\":19726:19727   */\n      0x00\n        /* \"#utility.yul\":19750:19754   */\n      0x20\n        /* \"#utility.yul\":19737:19754   */\n      swap1\n      pop\n        /* \"#utility.yul\":19782:19784   */\n      0x1f\n        /* \"#utility.yul\":19774:19780   */\n      dup4\n        /* \"#utility.yul\":19771:19785   */\n      gt\n        /* \"#utility.yul\":19799:19800   */\n      0x01\n        /* \"#utility.yul\":19794:20412   */\n      dup2\n      eq\n      tag_445\n      jumpi\n        /* \"#utility.yul\":20456:20457   */\n      0x00\n        /* \"#utility.yul\":20473:20479   */\n      dup5\n        /* \"#utility.yul\":20470:20547   */\n      iszero\n      tag_446\n      jumpi\n        /* \"#utility.yul\":20522:20531   */\n      dup3\n        /* \"#utility.yul\":20517:20520   */\n      dup8\n        /* \"#utility.yul\":20513:20532   */\n      add\n        /* \"#utility.yul\":20507:20533   */\n      mload\n        /* \"#utility.yul\":20498:20533   */\n      swap1\n      pop\n        /* \"#utility.yul\":20470:20547   */\n    tag_446:\n        /* \"#utility.yul\":20573:20640   */\n      tag_447\n        /* \"#utility.yul\":20633:20639   */\n      dup6\n        /* \"#utility.yul\":20626:20631   */\n      dup3\n        /* \"#utility.yul\":20573:20640   */\n      tag_235\n      jump\t// in\n    tag_447:\n        /* \"#utility.yul\":20567:20571   */\n      dup7\n        /* \"#utility.yul\":20560:20641   */\n      sstore\n        /* \"#utility.yul\":20429:20651   */\n      pop\n        /* \"#utility.yul\":19764:20651   */\n      jump(tag_444)\n        /* \"#utility.yul\":19794:20412   */\n    tag_445:\n        /* \"#utility.yul\":19846:19850   */\n      0x1f\n        /* \"#utility.yul\":19842:19851   */\n      not\n        /* \"#utility.yul\":19834:19840   */\n      dup5\n        /* \"#utility.yul\":19830:19852   */\n      and\n        /* \"#utility.yul\":19880:19917   */\n      tag_448\n        /* \"#utility.yul\":19912:19916   */\n      dup7\n        /* \"#utility.yul\":19880:19917   */\n      tag_221\n      jump\t// in\n    tag_448:\n        /* \"#utility.yul\":19939:19940   */\n      0x00\n        /* \"#utility.yul\":19953:20161   */\n    tag_449:\n        /* \"#utility.yul\":19967:19974   */\n      dup3\n        /* \"#utility.yul\":19964:19965   */\n      dup2\n        /* \"#utility.yul\":19961:19975   */\n      lt\n        /* \"#utility.yul\":19953:20161   */\n      iszero\n      tag_451\n      jumpi\n        /* \"#utility.yul\":20046:20055   */\n      dup5\n        /* \"#utility.yul\":20041:20044   */\n      dup10\n        /* \"#utility.yul\":20037:20056   */\n      add\n        /* \"#utility.yul\":20031:20057   */\n      mload\n        /* \"#utility.yul\":20023:20029   */\n      dup3\n        /* \"#utility.yul\":20016:20058   */\n      sstore\n        /* \"#utility.yul\":20097:20098   */\n      0x01\n        /* \"#utility.yul\":20089:20095   */\n      dup3\n        /* \"#utility.yul\":20085:20099   */\n      add\n        /* \"#utility.yul\":20075:20099   */\n      swap2\n      pop\n        /* \"#utility.yul\":20144:20146   */\n      0x20\n        /* \"#utility.yul\":20133:20142   */\n      dup6\n        /* \"#utility.yul\":20129:20147   */\n      add\n        /* \"#utility.yul\":20116:20147   */\n      swap5\n      pop\n        /* \"#utility.yul\":19990:19994   */\n      0x20\n        /* \"#utility.yul\":19987:19988   */\n      dup2\n        /* \"#utility.yul\":19983:19995   */\n      add\n        /* \"#utility.yul\":19978:19995   */\n      swap1\n      pop\n        /* \"#utility.yul\":19953:20161   */\n      jump(tag_449)\n    tag_451:\n        /* \"#utility.yul\":20189:20195   */\n      dup7\n        /* \"#utility.yul\":20180:20187   */\n      dup4\n        /* \"#utility.yul\":20177:20196   */\n      lt\n        /* \"#utility.yul\":20174:20353   */\n      iszero\n      tag_452\n      jumpi\n        /* \"#utility.yul\":20247:20256   */\n      dup5\n        /* \"#utility.yul\":20242:20245   */\n      dup10\n        /* \"#utility.yul\":20238:20257   */\n      add\n        /* \"#utility.yul\":20232:20258   */\n      mload\n        /* \"#utility.yul\":20290:20338   */\n      tag_453\n        /* \"#utility.yul\":20332:20336   */\n      0x1f\n        /* \"#utility.yul\":20324:20330   */\n      dup10\n        /* \"#utility.yul\":20320:20337   */\n      and\n        /* \"#utility.yul\":20309:20318   */\n      dup3\n        /* \"#utility.yul\":20290:20338   */\n      tag_234\n      jump\t// in\n    tag_453:\n        /* \"#utility.yul\":20282:20288   */\n      dup4\n        /* \"#utility.yul\":20275:20339   */\n      sstore\n        /* \"#utility.yul\":20197:20353   */\n      pop\n        /* \"#utility.yul\":20174:20353   */\n    tag_452:\n        /* \"#utility.yul\":20399:20400   */\n      0x01\n        /* \"#utility.yul\":20395:20396   */\n      0x02\n        /* \"#utility.yul\":20387:20393   */\n      dup9\n        /* \"#utility.yul\":20383:20397   */\n      mul\n        /* \"#utility.yul\":20379:20401   */\n      add\n        /* \"#utility.yul\":20373:20377   */\n      dup9\n        /* \"#utility.yul\":20366:20402   */\n      sstore\n        /* \"#utility.yul\":19801:20412   */\n      pop\n      pop\n      pop\n        /* \"#utility.yul\":19764:20651   */\n    tag_444:\n      pop\n        /* \"#utility.yul\":19354:20657   */\n      pop\n      pop\n      pop\n        /* \"#utility.yul\":19262:20657   */\n      pop\n      pop\n      jump\t// out\n\n    auxdata: 0xa26469706673582212208aba4d5aaf581de4cb4cbe06bd2103deb8551adbdbb161f900c99ad84387024c64736f6c634300080f0033\n}\n",
				"bytecode": {
					"linkReferences": {},
					"object": "608060405234801561001057600080fd5b5061225b806100206000396000f3fe608060405234801561001057600080fd5b50600436106100575760003560e01c8063377e6ff71461005c57806369ba1a751461008c57806380c9419e146100a8578063904cc175146100df578063a97af4d51461010f575b600080fd5b61007660048036038101906100719190611746565b61012b565b60405161008391906119b4565b60405180910390f35b6100a660048036038101906100a19190611a02565b61044a565b005b6100c260048036038101906100bd9190611a02565b610a08565b6040516100d6989796959493929190611a97565b60405180910390f35b6100f960048036038101906100f49190611a02565b610c38565b60405161010691906119b4565b60405180910390f35b61012960048036038101906101249190611c5f565b611214565b005b6060600360008373ffffffffffffffffffffffffffffffffffffffff1673ffffffffffffffffffffffffffffffffffffffff168152602001908152602001600020805480602002602001604051908101604052809291908181526020016000905b8282101561043f578382906000526020600020906008020160405180610100016040529081600082015481526020016001820180546101ca90611d19565b80601f01602080910402602001604051908101604052809291908181526020018280546101f690611d19565b80156102435780601f1061021857610100808354040283529160200191610243565b820191906000526020600020905b81548152906001019060200180831161022657829003601f168201915b50505050508152602001600282015481526020016003820160009054906101000a900473ffffffffffffffffffffffffffffffffffffffff1673ffffffffffffffffffffffffffffffffffffffff1673ffffffffffffffffffffffffffffffffffffffff1681526020016004820160009054906101000a900473ffffffffffffffffffffffffffffffffffffffff1673ffffffffffffffffffffffffffffffffffffffff1673ffffffffffffffffffffffffffffffffffffffff1681526020016005820154815260200160068201805461031c90611d19565b80601f016020809104026020016040519081016040528092919081815260200182805461034890611d19565b80156103955780601f1061036a57610100808354040283529160200191610395565b820191906000526020600020905b81548152906001019060200180831161037857829003601f168201915b505050505081526020016007820180546103ae90611d19565b80601f01602080910402602001604051908101604052809291908181526020018280546103da90611d19565b80156104275780601f106103fc57610100808354040283529160200191610427565b820191906000526020600020905b81548152906001019060200180831161040a57829003601f168201915b5050505050815250508152602001906001019061018c565b505050509050919050565b60036001808361045a9190611d79565b8154811061046b5761046a611dad565b5b9060005260206000209060080201600201819055506001600260006001815260200190815260200160002080549050036105775760026000600181526020019081526020016000208054806104c3576104c2611ddc565b5b60019003818190600052602060002090600802016000808201600090556001820160006104f09190611677565b60028201600090556003820160006101000a81549073ffffffffffffffffffffffffffffffffffffffff02191690556004820160006101000a81549073ffffffffffffffffffffffffffffffffffffffff0219169055600582016000905560068201600061055e9190611677565b60078201600061056e9190611677565b5050905561086e565b60005b600160026000600181526020019081526020016000208054905061059e9190611d79565b8110156107995781600260006001815260200190815260200160002082815481106105cc576105cb611dad565b5b906000526020600020906008020160000154036107865760026000600181526020019081526020016000206001826106049190611e0b565b8154811061061557610614611dad565b5b90600052602060002090600802016002600060018152602001908152602001600020828154811061064957610648611dad565b5b906000526020600020906008020160008201548160000155600182018160010190816106759190612023565b50600282015481600201556003820160009054906101000a900473ffffffffffffffffffffffffffffffffffffffff168160030160006101000a81548173ffffffffffffffffffffffffffffffffffffffff021916908373ffffffffffffffffffffffffffffffffffffffff1602179055506004820160009054906101000a900473ffffffffffffffffffffffffffffffffffffffff168160040160006101000a81548173ffffffffffffffffffffffffffffffffffffffff021916908373ffffffffffffffffffffffffffffffffffffffff160217905550600582015481600501556006820181600601908161076c9190612023565b50600782018160070190816107819190612023565b509050505b80806107919061210b565b91505061057a565b5060026000600181526020019081526020016000208054806107be576107bd611ddc565b5b60019003818190600052602060002090600802016000808201600090556001820160006107eb9190611677565b60028201600090556003820160006101000a81549073ffffffffffffffffffffffffffffffffffffffff02191690556004820160006101000a81549073ffffffffffffffffffffffffffffffffffffffff021916905560058201600090556006820160006108599190611677565b6007820160006108699190611677565b505090555b6002600060038152602001908152602001600020600180836108909190611d79565b815481106108a1576108a0611dad565b5b9060005260206000209060080201908060018154018082558091505060019003906000526020600020906008020160009091909190915060008201548160000155600182018160010190816108f69190612023565b50600282015481600201556003820160009054906101000a900473ffffffffffffffffffffffffffffffffffffffff168160030160006101000a81548173ffffffffffffffffffffffffffffffffffffffff021916908373ffffffffffffffffffffffffffffffffffffffff1602179055506004820160009054906101000a900473ffffffffffffffffffffffffffffffffffffffff168160040160006101000a81548173ffffffffffffffffffffffffffffffffffffffff021916908373ffffffffffffffffffffffffffffffffffffffff16021790555060058201548160050155600682018160060190816109ed9190612023565b5060078201816007019081610a029190612023565b50505050565b60018181548110610a1857600080fd5b9060005260206000209060080201600091509050806000015490806001018054610a4190611d19565b80601f0160208091040260200160405190810160405280929190818152602001828054610a6d90611d19565b8015610aba5780601f10610a8f57610100808354040283529160200191610aba565b820191906000526020600020905b815481529060010190602001808311610a9d57829003601f168201915b5050505050908060020154908060030160009054906101000a900473ffffffffffffffffffffffffffffffffffffffff16908060040160009054906101000a900473ffffffffffffffffffffffffffffffffffffffff1690806005015490806006018054610b2790611d19565b80601f0160208091040260200160405190810160405280929190818152602001828054610b5390611d19565b8015610ba05780601f10610b7557610100808354040283529160200191610ba0565b820191906000526020600020905b815481529060010190602001808311610b8357829003601f168201915b505050505090806007018054610bb590611d19565b80601f0160208091040260200160405190810160405280929190818152602001828054610be190611d19565b8015610c2e5780601f10610c0357610100808354040283529160200191610c2e565b820191906000526020600020905b815481529060010190602001808311610c1157829003601f168201915b5050505050905088565b606060008203610f22576001805480602002602001604051908101604052809291908181526020016000905b82821015610f1757838290600052602060002090600802016040518061010001604052908160008201548152602001600182018054610ca290611d19565b80601f0160208091040260200160405190810160405280929190818152602001828054610cce90611d19565b8015610d1b5780601f10610cf057610100808354040283529160200191610d1b565b820191906000526020600020905b815481529060010190602001808311610cfe57829003601f168201915b50505050508152602001600282015481526020016003820160009054906101000a900473ffffffffffffffffffffffffffffffffffffffff1673ffffffffffffffffffffffffffffffffffffffff1673ffffffffffffffffffffffffffffffffffffffff1681526020016004820160009054906101000a900473ffffffffffffffffffffffffffffffffffffffff1673ffffffffffffffffffffffffffffffffffffffff1673ffffffffffffffffffffffffffffffffffffffff16815260200160058201548152602001600682018054610df490611d19565b80601f0160208091040260200160405190810160405280929190818152602001828054610e2090611d19565b8015610e6d5780601f10610e4257610100808354040283529160200191610e6d565b820191906000526020600020905b815481529060010190602001808311610e5057829003601f168201915b50505050508152602001600782018054610e8690611d19565b80601f0160208091040260200160405190810160405280929190818152602001828054610eb290611d19565b8015610eff5780601f10610ed457610100808354040283529160200191610eff565b820191906000526020600020905b815481529060010190602001808311610ee257829003601f168201915b50505050508152505081526020019060010190610c64565b50505050905061120f565b60026000838152602001908152602001600020805480602002602001604051908101604052809291908181526020016000905b8282101561120857838290600052602060002090600802016040518061010001604052908160008201548152602001600182018054610f9390611d19565b80601f0160208091040260200160405190810160405280929190818152602001828054610fbf90611d19565b801561100c5780601f10610fe15761010080835404028352916020019161100c565b820191906000526020600020905b815481529060010190602001808311610fef57829003601f168201915b50505050508152602001600282015481526020016003820160009054906101000a900473ffffffffffffffffffffffffffffffffffffffff1673ffffffffffffffffffffffffffffffffffffffff1673ffffffffffffffffffffffffffffffffffffffff1681526020016004820160009054906101000a900473ffffffffffffffffffffffffffffffffffffffff1673ffffffffffffffffffffffffffffffffffffffff1673ffffffffffffffffffffffffffffffffffffffff168152602001600582015481526020016006820180546110e590611d19565b80601f016020809104026020016040519081016040528092919081815260200182805461111190611d19565b801561115e5780601f106111335761010080835404028352916020019161115e565b820191906000526020600020905b81548152906001019060200180831161114157829003601f168201915b5050505050815260200160078201805461117790611d19565b80601f01602080910402602001604051908101604052809291908181526020018280546111a390611d19565b80156111f05780601f106111c5576101008083540402835291602001916111f0565b820191906000526020600020905b8154815290600101906020018083116111d357829003601f168201915b50505050508152505081526020019060010190610f55565b5050505090505b919050565b6000808154809291906112269061210b565b919050555060006040518061010001604052806000548152602001858152602001600181526020013373ffffffffffffffffffffffffffffffffffffffff1681526020018473ffffffffffffffffffffffffffffffffffffffff168152602001600081526020018381526020016040518060400160405280600181526020017f3000000000000000000000000000000000000000000000000000000000000000815250815250905060018190806001815401808255809150506001900390600052602060002090600802016000909190919091506000820151816000015560208201518160010190816113199190612153565b506040820151816002015560608201518160030160006101000a81548173ffffffffffffffffffffffffffffffffffffffff021916908373ffffffffffffffffffffffffffffffffffffffff16021790555060808201518160040160006101000a81548173ffffffffffffffffffffffffffffffffffffffff021916908373ffffffffffffffffffffffffffffffffffffffff16021790555060a0820151816005015560c08201518160060190816113d19190612153565b5060e08201518160070190816113e79190612153565b50505060026000600181526020019081526020016000208190806001815401808255809150506001900390600052602060002090600802016000909190919091506000820151816000015560208201518160010190816114479190612153565b506040820151816002015560608201518160030160006101000a81548173ffffffffffffffffffffffffffffffffffffffff021916908373ffffffffffffffffffffffffffffffffffffffff16021790555060808201518160040160006101000a81548173ffffffffffffffffffffffffffffffffffffffff021916908373ffffffffffffffffffffffffffffffffffffffff16021790555060a0820151816005015560c08201518160060190816114ff9190612153565b5060e08201518160070190816115159190612153565b505050600360003373ffffffffffffffffffffffffffffffffffffffff1673ffffffffffffffffffffffffffffffffffffffff1681526020019081526020016000208190806001815401808255809150506001900390600052602060002090600802016000909190919091506000820151816000015560208201518160010190816115a09190612153565b506040820151816002015560608201518160030160006101000a81548173ffffffffffffffffffffffffffffffffffffffff021916908373ffffffffffffffffffffffffffffffffffffffff16021790555060808201518160040160006101000a81548173ffffffffffffffffffffffffffffffffffffffff021916908373ffffffffffffffffffffffffffffffffffffffff16021790555060a0820151816005015560c08201518160060190816116589190612153565b5060e082015181600701908161166e9190612153565b50505050505050565b50805461168390611d19565b6000825580601f1061169557506116b4565b601f0160209004906000526020600020908101906116b391906116b7565b5b50565b5b808211156116d05760008160009055506001016116b8565b5090565b6000604051905090565b600080fd5b600080fd5b600073ffffffffffffffffffffffffffffffffffffffff82169050919050565b6000611713826116e8565b9050919050565b61172381611708565b811461172e57600080fd5b50565b6000813590506117408161171a565b92915050565b60006020828403121561175c5761175b6116de565b5b600061176a84828501611731565b91505092915050565b600081519050919050565b600082825260208201905092915050565b6000819050602082019050919050565b6000819050919050565b6117b28161179f565b82525050565b600081519050919050565b600082825260208201905092915050565b60005b838110156117f25780820151818401526020810190506117d7565b83811115611801576000848401525b50505050565b6000601f19601f8301169050919050565b6000611823826117b8565b61182d81856117c3565b935061183d8185602086016117d4565b61184681611807565b840191505092915050565b61185a81611708565b82525050565b60006101008301600083015161187960008601826117a9565b50602083015184820360208601526118918282611818565b91505060408301516118a660408601826117a9565b5060608301516118b96060860182611851565b5060808301516118cc6080860182611851565b5060a08301516118df60a08601826117a9565b5060c083015184820360c08601526118f78282611818565b91505060e083015184820360e08601526119118282611818565b9150508091505092915050565b600061192a8383611860565b905092915050565b6000602082019050919050565b600061194a82611773565b611954818561177e565b9350836020820285016119668561178f565b8060005b858110156119a25784840389528151611983858261191e565b945061198e83611932565b925060208a0199505060018101905061196a565b50829750879550505050505092915050565b600060208201905081810360008301526119ce818461193f565b905092915050565b6119df8161179f565b81146119ea57600080fd5b50565b6000813590506119fc816119d6565b92915050565b600060208284031215611a1857611a176116de565b5b6000611a26848285016119ed565b91505092915050565b611a388161179f565b82525050565b600082825260208201905092915050565b6000611a5a826117b8565b611a648185611a3e565b9350611a748185602086016117d4565b611a7d81611807565b840191505092915050565b611a9181611708565b82525050565b600061010082019050611aad600083018b611a2f565b8181036020830152611abf818a611a4f565b9050611ace6040830189611a2f565b611adb6060830188611a88565b611ae86080830187611a88565b611af560a0830186611a2f565b81810360c0830152611b078185611a4f565b905081810360e0830152611b1b8184611a4f565b90509998505050505050505050565b600080fd5b600080fd5b7f4e487b7100000000000000000000000000000000000000000000000000000000600052604160045260246000fd5b611b6c82611807565b810181811067ffffffffffffffff82111715611b8b57611b8a611b34565b5b80604052505050565b6000611b9e6116d4565b9050611baa8282611b63565b919050565b600067ffffffffffffffff821115611bca57611bc9611b34565b5b611bd382611807565b9050602081019050919050565b82818337600083830152505050565b6000611c02611bfd84611baf565b611b94565b905082815260208101848484011115611c1e57611c1d611b2f565b5b611c29848285611be0565b509392505050565b600082601f830112611c4657611c45611b2a565b5b8135611c56848260208601611bef565b91505092915050565b600080600060608486031215611c7857611c776116de565b5b600084013567ffffffffffffffff811115611c9657611c956116e3565b5b611ca286828701611c31565b9350506020611cb386828701611731565b925050604084013567ffffffffffffffff811115611cd457611cd36116e3565b5b611ce086828701611c31565b9150509250925092565b7f4e487b7100000000000000000000000000000000000000000000000000000000600052602260045260246000fd5b60006002820490506001821680611d3157607f821691505b602082108103611d4457611d43611cea565b5b50919050565b7f4e487b7100000000000000000000000000000000000000000000000000000000600052601160045260246000fd5b6000611d848261179f565b9150611d8f8361179f565b925082821015611da257611da1611d4a565b5b828203905092915050565b7f4e487b7100000000000000000000000000000000000000000000000000000000600052603260045260246000fd5b7f4e487b7100000000000000000000000000000000000000000000000000000000600052603160045260246000fd5b6000611e168261179f565b9150611e218361179f565b9250827fffffffffffffffffffffffffffffffffffffffffffffffffffffffffffffffff03821115611e5657611e55611d4a565b5b828201905092915050565b600081549050611e7081611d19565b9050919050565b60008190508160005260206000209050919050565b60006020601f8301049050919050565b600082821b905092915050565b600060088302611ed97fffffffffffffffffffffffffffffffffffffffffffffffffffffffffffffffff82611e9c565b611ee38683611e9c565b95508019841693508086168417925050509392505050565b6000819050919050565b6000611f20611f1b611f168461179f565b611efb565b61179f565b9050919050565b6000819050919050565b611f3a83611f05565b611f4e611f4682611f27565b848454611ea9565b825550505050565b600090565b611f63611f56565b611f6e818484611f31565b505050565b5b81811015611f9257611f87600082611f5b565b600181019050611f74565b5050565b601f821115611fd757611fa881611e77565b611fb184611e8c565b81016020851015611fc0578190505b611fd4611fcc85611e8c565b830182611f73565b50505b505050565b600082821c905092915050565b6000611ffa60001984600802611fdc565b1980831691505092915050565b60006120138383611fe9565b9150826002028217905092915050565b818103612031575050612109565b61203a82611e61565b67ffffffffffffffff81111561205357612052611b34565b5b61205d8254611d19565b612068828285611f96565b6000601f8311600181146120975760008415612085578287015490505b61208f8582612007565b865550612102565b601f1984166120a587611e77565b96506120b086611e77565b60005b828110156120d8578489015482556001820191506001850194506020810190506120b3565b868310156120f557848901546120f1601f891682611fe9565b8355505b6001600288020188555050505b5050505050505b565b60006121168261179f565b91507fffffffffffffffffffffffffffffffffffffffffffffffffffffffffffffffff820361214857612147611d4a565b5b600182019050919050565b61215c826117b8565b67ffffffffffffffff81111561217557612174611b34565b5b61217f8254611d19565b61218a828285611f96565b600060209050601f8311600181146121bd57600084156121ab578287015190505b6121b58582612007565b86555061221d565b601f1984166121cb86611e77565b60005b828110156121f3578489015182556001820191506020850194506020810190506121ce565b86831015612210578489015161220c601f891682611fe9565b8355505b6001600288020188555050505b50505050505056fea26469706673582212208aba4d5aaf581de4cb4cbe06bd2103deb8551adbdbb161f900c99ad84387024c64736f6c634300080f0033",
					"opcodes": "PUSH1 0x80 PUSH1 0x40 MSTORE CALLVALUE DUP1 ISZERO PUSH2 0x10 JUMPI PUSH1 0x0 DUP1 REVERT JUMPDEST POP PUSH2 0x225B DUP1 PUSH2 0x20 PUSH1 0x0 CODECOPY PUSH1 0x0 RETURN INVALID PUSH1 0x80 PUSH1 0x40 MSTORE CALLVALUE DUP1 ISZERO PUSH2 0x10 JUMPI PUSH1 0x0 DUP1 REVERT JUMPDEST POP PUSH1 0x4 CALLDATASIZE LT PUSH2 0x57 JUMPI PUSH1 0x0 CALLDATALOAD PUSH1 0xE0 SHR DUP1 PUSH4 0x377E6FF7 EQ PUSH2 0x5C JUMPI DUP1 PUSH4 0x69BA1A75 EQ PUSH2 0x8C JUMPI DUP1 PUSH4 0x80C9419E EQ PUSH2 0xA8 JUMPI DUP1 PUSH4 0x904CC175 EQ PUSH2 0xDF JUMPI DUP1 PUSH4 0xA97AF4D5 EQ PUSH2 0x10F JUMPI JUMPDEST PUSH1 0x0 DUP1 REVERT JUMPDEST PUSH2 0x76 PUSH1 0x4 DUP1 CALLDATASIZE SUB DUP2 ADD SWAP1 PUSH2 0x71 SWAP2 SWAP1 PUSH2 0x1746 JUMP JUMPDEST PUSH2 0x12B JUMP JUMPDEST PUSH1 0x40 MLOAD PUSH2 0x83 SWAP2 SWAP1 PUSH2 0x19B4 JUMP JUMPDEST PUSH1 0x40 MLOAD DUP1 SWAP2 SUB SWAP1 RETURN JUMPDEST PUSH2 0xA6 PUSH1 0x4 DUP1 CALLDATASIZE SUB DUP2 ADD SWAP1 PUSH2 0xA1 SWAP2 SWAP1 PUSH2 0x1A02 JUMP JUMPDEST PUSH2 0x44A JUMP JUMPDEST STOP JUMPDEST PUSH2 0xC2 PUSH1 0x4 DUP1 CALLDATASIZE SUB DUP2 ADD SWAP1 PUSH2 0xBD SWAP2 SWAP1 PUSH2 0x1A02 JUMP JUMPDEST PUSH2 0xA08 JUMP JUMPDEST PUSH1 0x40 MLOAD PUSH2 0xD6 SWAP9 SWAP8 SWAP7 SWAP6 SWAP5 SWAP4 SWAP3 SWAP2 SWAP1 PUSH2 0x1A97 JUMP JUMPDEST PUSH1 0x40 MLOAD DUP1 SWAP2 SUB SWAP1 RETURN JUMPDEST PUSH2 0xF9 PUSH1 0x4 DUP1 CALLDATASIZE SUB DUP2 ADD SWAP1 PUSH2 0xF4 SWAP2 SWAP1 PUSH2 0x1A02 JUMP JUMPDEST PUSH2 0xC38 JUMP JUMPDEST PUSH1 0x40 MLOAD PUSH2 0x106 SWAP2 SWAP1 PUSH2 0x19B4 JUMP JUMPDEST PUSH1 0x40 MLOAD DUP1 SWAP2 SUB SWAP1 RETURN JUMPDEST PUSH2 0x129 PUSH1 0x4 DUP1 CALLDATASIZE SUB DUP2 ADD SWAP1 PUSH2 0x124 SWAP2 SWAP1 PUSH2 0x1C5F JUMP JUMPDEST PUSH2 0x1214 JUMP JUMPDEST STOP JUMPDEST PUSH1 0x60 PUSH1 0x3 PUSH1 0x0 DUP4 PUSH20 0xFFFFFFFFFFFFFFFFFFFFFFFFFFFFFFFFFFFFFFFF AND PUSH20 0xFFFFFFFFFFFFFFFFFFFFFFFFFFFFFFFFFFFFFFFF AND DUP2 MSTORE PUSH1 0x20 ADD SWAP1 DUP2 MSTORE PUSH1 0x20 ADD PUSH1 0x0 KECCAK256 DUP1 SLOAD DUP1 PUSH1 0x20 MUL PUSH1 0x20 ADD PUSH1 0x40 MLOAD SWAP1 DUP2 ADD PUSH1 0x40 MSTORE DUP1 SWAP3 SWAP2 SWAP1 DUP2 DUP2 MSTORE PUSH1 0x20 ADD PUSH1 0x0 SWAP1 JUMPDEST DUP3 DUP3 LT ISZERO PUSH2 0x43F JUMPI DUP4 DUP3 SWAP1 PUSH1 0x0 MSTORE PUSH1 0x20 PUSH1 0x0 KECCAK256 SWAP1 PUSH1 0x8 MUL ADD PUSH1 0x40 MLOAD DUP1 PUSH2 0x100 ADD PUSH1 0x40 MSTORE SWAP1 DUP2 PUSH1 0x0 DUP3 ADD SLOAD DUP2 MSTORE PUSH1 0x20 ADD PUSH1 0x1 DUP3 ADD DUP1 SLOAD PUSH2 0x1CA SWAP1 PUSH2 0x1D19 JUMP JUMPDEST DUP1 PUSH1 0x1F ADD PUSH1 0x20 DUP1 SWAP2 DIV MUL PUSH1 0x20 ADD PUSH1 0x40 MLOAD SWAP1 DUP2 ADD PUSH1 0x40 MSTORE DUP1 SWAP3 SWAP2 SWAP1 DUP2 DUP2 MSTORE PUSH1 0x20 ADD DUP3 DUP1 SLOAD PUSH2 0x1F6 SWAP1 PUSH2 0x1D19 JUMP JUMPDEST DUP1 ISZERO PUSH2 0x243 JUMPI DUP1 PUSH1 0x1F LT PUSH2 0x218 JUMPI PUSH2 0x100 DUP1 DUP4 SLOAD DIV MUL DUP4 MSTORE SWAP2 PUSH1 0x20 ADD SWAP2 PUSH2 0x243 JUMP JUMPDEST DUP3 ADD SWAP2 SWAP1 PUSH1 0x0 MSTORE PUSH1 0x20 PUSH1 0x0 KECCAK256 SWAP1 JUMPDEST DUP2 SLOAD DUP2 MSTORE SWAP1 PUSH1 0x1 ADD SWAP1 PUSH1 0x20 ADD DUP1 DUP4 GT PUSH2 0x226 JUMPI DUP3 SWAP1 SUB PUSH1 0x1F AND DUP3 ADD SWAP2 JUMPDEST POP POP POP POP POP DUP2 MSTORE PUSH1 0x20 ADD PUSH1 0x2 DUP3 ADD SLOAD DUP2 MSTORE PUSH1 0x20 ADD PUSH1 0x3 DUP3 ADD PUSH1 0x0 SWAP1 SLOAD SWAP1 PUSH2 0x100 EXP SWAP1 DIV PUSH20 0xFFFFFFFFFFFFFFFFFFFFFFFFFFFFFFFFFFFFFFFF AND PUSH20 0xFFFFFFFFFFFFFFFFFFFFFFFFFFFFFFFFFFFFFFFF AND PUSH20 0xFFFFFFFFFFFFFFFFFFFFFFFFFFFFFFFFFFFFFFFF AND DUP2 MSTORE PUSH1 0x20 ADD PUSH1 0x4 DUP3 ADD PUSH1 0x0 SWAP1 SLOAD SWAP1 PUSH2 0x100 EXP SWAP1 DIV PUSH20 0xFFFFFFFFFFFFFFFFFFFFFFFFFFFFFFFFFFFFFFFF AND PUSH20 0xFFFFFFFFFFFFFFFFFFFFFFFFFFFFFFFFFFFFFFFF AND PUSH20 0xFFFFFFFFFFFFFFFFFFFFFFFFFFFFFFFFFFFFFFFF AND DUP2 MSTORE PUSH1 0x20 ADD PUSH1 0x5 DUP3 ADD SLOAD DUP2 MSTORE PUSH1 0x20 ADD PUSH1 0x6 DUP3 ADD DUP1 SLOAD PUSH2 0x31C SWAP1 PUSH2 0x1D19 JUMP JUMPDEST DUP1 PUSH1 0x1F ADD PUSH1 0x20 DUP1 SWAP2 DIV MUL PUSH1 0x20 ADD PUSH1 0x40 MLOAD SWAP1 DUP2 ADD PUSH1 0x40 MSTORE DUP1 SWAP3 SWAP2 SWAP1 DUP2 DUP2 MSTORE PUSH1 0x20 ADD DUP3 DUP1 SLOAD PUSH2 0x348 SWAP1 PUSH2 0x1D19 JUMP JUMPDEST DUP1 ISZERO PUSH2 0x395 JUMPI DUP1 PUSH1 0x1F LT PUSH2 0x36A JUMPI PUSH2 0x100 DUP1 DUP4 SLOAD DIV MUL DUP4 MSTORE SWAP2 PUSH1 0x20 ADD SWAP2 PUSH2 0x395 JUMP JUMPDEST DUP3 ADD SWAP2 SWAP1 PUSH1 0x0 MSTORE PUSH1 0x20 PUSH1 0x0 KECCAK256 SWAP1 JUMPDEST DUP2 SLOAD DUP2 MSTORE SWAP1 PUSH1 0x1 ADD SWAP1 PUSH1 0x20 ADD DUP1 DUP4 GT PUSH2 0x378 JUMPI DUP3 SWAP1 SUB PUSH1 0x1F AND DUP3 ADD SWAP2 JUMPDEST POP POP POP POP POP DUP2 MSTORE PUSH1 0x20 ADD PUSH1 0x7 DUP3 ADD DUP1 SLOAD PUSH2 0x3AE SWAP1 PUSH2 0x1D19 JUMP JUMPDEST DUP1 PUSH1 0x1F ADD PUSH1 0x20 DUP1 SWAP2 DIV MUL PUSH1 0x20 ADD PUSH1 0x40 MLOAD SWAP1 DUP2 ADD PUSH1 0x40 MSTORE DUP1 SWAP3 SWAP2 SWAP1 DUP2 DUP2 MSTORE PUSH1 0x20 ADD DUP3 DUP1 SLOAD PUSH2 0x3DA SWAP1 PUSH2 0x1D19 JUMP JUMPDEST DUP1 ISZERO PUSH2 0x427 JUMPI DUP1 PUSH1 0x1F LT PUSH2 0x3FC JUMPI PUSH2 0x100 DUP1 DUP4 SLOAD DIV MUL DUP4 MSTORE SWAP2 PUSH1 0x20 ADD SWAP2 PUSH2 0x427 JUMP JUMPDEST DUP3 ADD SWAP2 SWAP1 PUSH1 0x0 MSTORE PUSH1 0x20 PUSH1 0x0 KECCAK256 SWAP1 JUMPDEST DUP2 SLOAD DUP2 MSTORE SWAP1 PUSH1 0x1 ADD SWAP1 PUSH1 0x20 ADD DUP1 DUP4 GT PUSH2 0x40A JUMPI DUP3 SWAP1 SUB PUSH1 0x1F AND DUP3 ADD SWAP2 JUMPDEST POP POP POP POP POP DUP2 MSTORE POP POP DUP2 MSTORE PUSH1 0x20 ADD SWAP1 PUSH1 0x1 ADD SWAP1 PUSH2 0x18C JUMP JUMPDEST POP POP POP POP SWAP1 POP SWAP2 SWAP1 POP JUMP JUMPDEST PUSH1 0x3 PUSH1 0x1 DUP1 DUP4 PUSH2 0x45A SWAP2 SWAP1 PUSH2 0x1D79 JUMP JUMPDEST DUP2 SLOAD DUP2 LT PUSH2 0x46B JUMPI PUSH2 0x46A PUSH2 0x1DAD JUMP JUMPDEST JUMPDEST SWAP1 PUSH1 0x0 MSTORE PUSH1 0x20 PUSH1 0x0 KECCAK256 SWAP1 PUSH1 0x8 MUL ADD PUSH1 0x2 ADD DUP2 SWAP1 SSTORE POP PUSH1 0x1 PUSH1 0x2 PUSH1 0x0 PUSH1 0x1 DUP2 MSTORE PUSH1 0x20 ADD SWAP1 DUP2 MSTORE PUSH1 0x20 ADD PUSH1 0x0 KECCAK256 DUP1 SLOAD SWAP1 POP SUB PUSH2 0x577 JUMPI PUSH1 0x2 PUSH1 0x0 PUSH1 0x1 DUP2 MSTORE PUSH1 0x20 ADD SWAP1 DUP2 MSTORE PUSH1 0x20 ADD PUSH1 0x0 KECCAK256 DUP1 SLOAD DUP1 PUSH2 0x4C3 JUMPI PUSH2 0x4C2 PUSH2 0x1DDC JUMP JUMPDEST JUMPDEST PUSH1 0x1 SWAP1 SUB DUP2 DUP2 SWAP1 PUSH1 0x0 MSTORE PUSH1 0x20 PUSH1 0x0 KECCAK256 SWAP1 PUSH1 0x8 MUL ADD PUSH1 0x0 DUP1 DUP3 ADD PUSH1 0x0 SWAP1 SSTORE PUSH1 0x1 DUP3 ADD PUSH1 0x0 PUSH2 0x4F0 SWAP2 SWAP1 PUSH2 0x1677 JUMP JUMPDEST PUSH1 0x2 DUP3 ADD PUSH1 0x0 SWAP1 SSTORE PUSH1 0x3 DUP3 ADD PUSH1 0x0 PUSH2 0x100 EXP DUP2 SLOAD SWAP1 PUSH20 0xFFFFFFFFFFFFFFFFFFFFFFFFFFFFFFFFFFFFFFFF MUL NOT AND SWAP1 SSTORE PUSH1 0x4 DUP3 ADD PUSH1 0x0 PUSH2 0x100 EXP DUP2 SLOAD SWAP1 PUSH20 0xFFFFFFFFFFFFFFFFFFFFFFFFFFFFFFFFFFFFFFFF MUL NOT AND SWAP1 SSTORE PUSH1 0x5 DUP3 ADD PUSH1 0x0 SWAP1 SSTORE PUSH1 0x6 DUP3 ADD PUSH1 0x0 PUSH2 0x55E SWAP2 SWAP1 PUSH2 0x1677 JUMP JUMPDEST PUSH1 0x7 DUP3 ADD PUSH1 0x0 PUSH2 0x56E SWAP2 SWAP1 PUSH2 0x1677 JUMP JUMPDEST POP POP SWAP1 SSTORE PUSH2 0x86E JUMP JUMPDEST PUSH1 0x0 JUMPDEST PUSH1 0x1 PUSH1 0x2 PUSH1 0x0 PUSH1 0x1 DUP2 MSTORE PUSH1 0x20 ADD SWAP1 DUP2 MSTORE PUSH1 0x20 ADD PUSH1 0x0 KECCAK256 DUP1 SLOAD SWAP1 POP PUSH2 0x59E SWAP2 SWAP1 PUSH2 0x1D79 JUMP JUMPDEST DUP2 LT ISZERO PUSH2 0x799 JUMPI DUP2 PUSH1 0x2 PUSH1 0x0 PUSH1 0x1 DUP2 MSTORE PUSH1 0x20 ADD SWAP1 DUP2 MSTORE PUSH1 0x20 ADD PUSH1 0x0 KECCAK256 DUP3 DUP2 SLOAD DUP2 LT PUSH2 0x5CC JUMPI PUSH2 0x5CB PUSH2 0x1DAD JUMP JUMPDEST JUMPDEST SWAP1 PUSH1 0x0 MSTORE PUSH1 0x20 PUSH1 0x0 KECCAK256 SWAP1 PUSH1 0x8 MUL ADD PUSH1 0x0 ADD SLOAD SUB PUSH2 0x786 JUMPI PUSH1 0x2 PUSH1 0x0 PUSH1 0x1 DUP2 MSTORE PUSH1 0x20 ADD SWAP1 DUP2 MSTORE PUSH1 0x20 ADD PUSH1 0x0 KECCAK256 PUSH1 0x1 DUP3 PUSH2 0x604 SWAP2 SWAP1 PUSH2 0x1E0B JUMP JUMPDEST DUP2 SLOAD DUP2 LT PUSH2 0x615 JUMPI PUSH2 0x614 PUSH2 0x1DAD JUMP JUMPDEST JUMPDEST SWAP1 PUSH1 0x0 MSTORE PUSH1 0x20 PUSH1 0x0 KECCAK256 SWAP1 PUSH1 0x8 MUL ADD PUSH1 0x2 PUSH1 0x0 PUSH1 0x1 DUP2 MSTORE PUSH1 0x20 ADD SWAP1 DUP2 MSTORE PUSH1 0x20 ADD PUSH1 0x0 KECCAK256 DUP3 DUP2 SLOAD DUP2 LT PUSH2 0x649 JUMPI PUSH2 0x648 PUSH2 0x1DAD JUMP JUMPDEST JUMPDEST SWAP1 PUSH1 0x0 MSTORE PUSH1 0x20 PUSH1 0x0 KECCAK256 SWAP1 PUSH1 0x8 MUL ADD PUSH1 0x0 DUP3 ADD SLOAD DUP2 PUSH1 0x0 ADD SSTORE PUSH1 0x1 DUP3 ADD DUP2 PUSH1 0x1 ADD SWAP1 DUP2 PUSH2 0x675 SWAP2 SWAP1 PUSH2 0x2023 JUMP JUMPDEST POP PUSH1 0x2 DUP3 ADD SLOAD DUP2 PUSH1 0x2 ADD SSTORE PUSH1 0x3 DUP3 ADD PUSH1 0x0 SWAP1 SLOAD SWAP1 PUSH2 0x100 EXP SWAP1 DIV PUSH20 0xFFFFFFFFFFFFFFFFFFFFFFFFFFFFFFFFFFFFFFFF AND DUP2 PUSH1 0x3 ADD PUSH1 0x0 PUSH2 0x100 EXP DUP2 SLOAD DUP2 PUSH20 0xFFFFFFFFFFFFFFFFFFFFFFFFFFFFFFFFFFFFFFFF MUL NOT AND SWAP1 DUP4 PUSH20 0xFFFFFFFFFFFFFFFFFFFFFFFFFFFFFFFFFFFFFFFF AND MUL OR SWAP1 SSTORE POP PUSH1 0x4 DUP3 ADD PUSH1 0x0 SWAP1 SLOAD SWAP1 PUSH2 0x100 EXP SWAP1 DIV PUSH20 0xFFFFFFFFFFFFFFFFFFFFFFFFFFFFFFFFFFFFFFFF AND DUP2 PUSH1 0x4 ADD PUSH1 0x0 PUSH2 0x100 EXP DUP2 SLOAD DUP2 PUSH20 0xFFFFFFFFFFFFFFFFFFFFFFFFFFFFFFFFFFFFFFFF MUL NOT AND SWAP1 DUP4 PUSH20 0xFFFFFFFFFFFFFFFFFFFFFFFFFFFFFFFFFFFFFFFF AND MUL OR SWAP1 SSTORE POP PUSH1 0x5 DUP3 ADD SLOAD DUP2 PUSH1 0x5 ADD SSTORE PUSH1 0x6 DUP3 ADD DUP2 PUSH1 0x6 ADD SWAP1 DUP2 PUSH2 0x76C SWAP2 SWAP1 PUSH2 0x2023 JUMP JUMPDEST POP PUSH1 0x7 DUP3 ADD DUP2 PUSH1 0x7 ADD SWAP1 DUP2 PUSH2 0x781 SWAP2 SWAP1 PUSH2 0x2023 JUMP JUMPDEST POP SWAP1 POP POP JUMPDEST DUP1 DUP1 PUSH2 0x791 SWAP1 PUSH2 0x210B JUMP JUMPDEST SWAP2 POP POP PUSH2 0x57A JUMP JUMPDEST POP PUSH1 0x2 PUSH1 0x0 PUSH1 0x1 DUP2 MSTORE PUSH1 0x20 ADD SWAP1 DUP2 MSTORE PUSH1 0x20 ADD PUSH1 0x0 KECCAK256 DUP1 SLOAD DUP1 PUSH2 0x7BE JUMPI PUSH2 0x7BD PUSH2 0x1DDC JUMP JUMPDEST JUMPDEST PUSH1 0x1 SWAP1 SUB DUP2 DUP2 SWAP1 PUSH1 0x0 MSTORE PUSH1 0x20 PUSH1 0x0 KECCAK256 SWAP1 PUSH1 0x8 MUL ADD PUSH1 0x0 DUP1 DUP3 ADD PUSH1 0x0 SWAP1 SSTORE PUSH1 0x1 DUP3 ADD PUSH1 0x0 PUSH2 0x7EB SWAP2 SWAP1 PUSH2 0x1677 JUMP JUMPDEST PUSH1 0x2 DUP3 ADD PUSH1 0x0 SWAP1 SSTORE PUSH1 0x3 DUP3 ADD PUSH1 0x0 PUSH2 0x100 EXP DUP2 SLOAD SWAP1 PUSH20 0xFFFFFFFFFFFFFFFFFFFFFFFFFFFFFFFFFFFFFFFF MUL NOT AND SWAP1 SSTORE PUSH1 0x4 DUP3 ADD PUSH1 0x0 PUSH2 0x100 EXP DUP2 SLOAD SWAP1 PUSH20 0xFFFFFFFFFFFFFFFFFFFFFFFFFFFFFFFFFFFFFFFF MUL NOT AND SWAP1 SSTORE PUSH1 0x5 DUP3 ADD PUSH1 0x0 SWAP1 SSTORE PUSH1 0x6 DUP3 ADD PUSH1 0x0 PUSH2 0x859 SWAP2 SWAP1 PUSH2 0x1677 JUMP JUMPDEST PUSH1 0x7 DUP3 ADD PUSH1 0x0 PUSH2 0x869 SWAP2 SWAP1 PUSH2 0x1677 JUMP JUMPDEST POP POP SWAP1 SSTORE JUMPDEST PUSH1 0x2 PUSH1 0x0 PUSH1 0x3 DUP2 MSTORE PUSH1 0x20 ADD SWAP1 DUP2 MSTORE PUSH1 0x20 ADD PUSH1 0x0 KECCAK256 PUSH1 0x1 DUP1 DUP4 PUSH2 0x890 SWAP2 SWAP1 PUSH2 0x1D79 JUMP JUMPDEST DUP2 SLOAD DUP2 LT PUSH2 0x8A1 JUMPI PUSH2 0x8A0 PUSH2 0x1DAD JUMP JUMPDEST JUMPDEST SWAP1 PUSH1 0x0 MSTORE PUSH1 0x20 PUSH1 0x0 KECCAK256 SWAP1 PUSH1 0x8 MUL ADD SWAP1 DUP1 PUSH1 0x1 DUP2 SLOAD ADD DUP1 DUP3 SSTORE DUP1 SWAP2 POP POP PUSH1 0x1 SWAP1 SUB SWAP1 PUSH1 0x0 MSTORE PUSH1 0x20 PUSH1 0x0 KECCAK256 SWAP1 PUSH1 0x8 MUL ADD PUSH1 0x0 SWAP1 SWAP2 SWAP1 SWAP2 SWAP1 SWAP2 POP PUSH1 0x0 DUP3 ADD SLOAD DUP2 PUSH1 0x0 ADD SSTORE PUSH1 0x1 DUP3 ADD DUP2 PUSH1 0x1 ADD SWAP1 DUP2 PUSH2 0x8F6 SWAP2 SWAP1 PUSH2 0x2023 JUMP JUMPDEST POP PUSH1 0x2 DUP3 ADD SLOAD DUP2 PUSH1 0x2 ADD SSTORE PUSH1 0x3 DUP3 ADD PUSH1 0x0 SWAP1 SLOAD SWAP1 PUSH2 0x100 EXP SWAP1 DIV PUSH20 0xFFFFFFFFFFFFFFFFFFFFFFFFFFFFFFFFFFFFFFFF AND DUP2 PUSH1 0x3 ADD PUSH1 0x0 PUSH2 0x100 EXP DUP2 SLOAD DUP2 PUSH20 0xFFFFFFFFFFFFFFFFFFFFFFFFFFFFFFFFFFFFFFFF MUL NOT AND SWAP1 DUP4 PUSH20 0xFFFFFFFFFFFFFFFFFFFFFFFFFFFFFFFFFFFFFFFF AND MUL OR SWAP1 SSTORE POP PUSH1 0x4 DUP3 ADD PUSH1 0x0 SWAP1 SLOAD SWAP1 PUSH2 0x100 EXP SWAP1 DIV PUSH20 0xFFFFFFFFFFFFFFFFFFFFFFFFFFFFFFFFFFFFFFFF AND DUP2 PUSH1 0x4 ADD PUSH1 0x0 PUSH2 0x100 EXP DUP2 SLOAD DUP2 PUSH20 0xFFFFFFFFFFFFFFFFFFFFFFFFFFFFFFFFFFFFFFFF MUL NOT AND SWAP1 DUP4 PUSH20 0xFFFFFFFFFFFFFFFFFFFFFFFFFFFFFFFFFFFFFFFF AND MUL OR SWAP1 SSTORE POP PUSH1 0x5 DUP3 ADD SLOAD DUP2 PUSH1 0x5 ADD SSTORE PUSH1 0x6 DUP3 ADD DUP2 PUSH1 0x6 ADD SWAP1 DUP2 PUSH2 0x9ED SWAP2 SWAP1 PUSH2 0x2023 JUMP JUMPDEST POP PUSH1 0x7 DUP3 ADD DUP2 PUSH1 0x7 ADD SWAP1 DUP2 PUSH2 0xA02 SWAP2 SWAP1 PUSH2 0x2023 JUMP JUMPDEST POP POP POP POP JUMP JUMPDEST PUSH1 0x1 DUP2 DUP2 SLOAD DUP2 LT PUSH2 0xA18 JUMPI PUSH1 0x0 DUP1 REVERT JUMPDEST SWAP1 PUSH1 0x0 MSTORE PUSH1 0x20 PUSH1 0x0 KECCAK256 SWAP1 PUSH1 0x8 MUL ADD PUSH1 0x0 SWAP2 POP SWAP1 POP DUP1 PUSH1 0x0 ADD SLOAD SWAP1 DUP1 PUSH1 0x1 ADD DUP1 SLOAD PUSH2 0xA41 SWAP1 PUSH2 0x1D19 JUMP JUMPDEST DUP1 PUSH1 0x1F ADD PUSH1 0x20 DUP1 SWAP2 DIV MUL PUSH1 0x20 ADD PUSH1 0x40 MLOAD SWAP1 DUP2 ADD PUSH1 0x40 MSTORE DUP1 SWAP3 SWAP2 SWAP1 DUP2 DUP2 MSTORE PUSH1 0x20 ADD DUP3 DUP1 SLOAD PUSH2 0xA6D SWAP1 PUSH2 0x1D19 JUMP JUMPDEST DUP1 ISZERO PUSH2 0xABA JUMPI DUP1 PUSH1 0x1F LT PUSH2 0xA8F JUMPI PUSH2 0x100 DUP1 DUP4 SLOAD DIV MUL DUP4 MSTORE SWAP2 PUSH1 0x20 ADD SWAP2 PUSH2 0xABA JUMP JUMPDEST DUP3 ADD SWAP2 SWAP1 PUSH1 0x0 MSTORE PUSH1 0x20 PUSH1 0x0 KECCAK256 SWAP1 JUMPDEST DUP2 SLOAD DUP2 MSTORE SWAP1 PUSH1 0x1 ADD SWAP1 PUSH1 0x20 ADD DUP1 DUP4 GT PUSH2 0xA9D JUMPI DUP3 SWAP1 SUB PUSH1 0x1F AND DUP3 ADD SWAP2 JUMPDEST POP POP POP POP POP SWAP1 DUP1 PUSH1 0x2 ADD SLOAD SWAP1 DUP1 PUSH1 0x3 ADD PUSH1 0x0 SWAP1 SLOAD SWAP1 PUSH2 0x100 EXP SWAP1 DIV PUSH20 0xFFFFFFFFFFFFFFFFFFFFFFFFFFFFFFFFFFFFFFFF AND SWAP1 DUP1 PUSH1 0x4 ADD PUSH1 0x0 SWAP1 SLOAD SWAP1 PUSH2 0x100 EXP SWAP1 DIV PUSH20 0xFFFFFFFFFFFFFFFFFFFFFFFFFFFFFFFFFFFFFFFF AND SWAP1 DUP1 PUSH1 0x5 ADD SLOAD SWAP1 DUP1 PUSH1 0x6 ADD DUP1 SLOAD PUSH2 0xB27 SWAP1 PUSH2 0x1D19 JUMP JUMPDEST DUP1 PUSH1 0x1F ADD PUSH1 0x20 DUP1 SWAP2 DIV MUL PUSH1 0x20 ADD PUSH1 0x40 MLOAD SWAP1 DUP2 ADD PUSH1 0x40 MSTORE DUP1 SWAP3 SWAP2 SWAP1 DUP2 DUP2 MSTORE PUSH1 0x20 ADD DUP3 DUP1 SLOAD PUSH2 0xB53 SWAP1 PUSH2 0x1D19 JUMP JUMPDEST DUP1 ISZERO PUSH2 0xBA0 JUMPI DUP1 PUSH1 0x1F LT PUSH2 0xB75 JUMPI PUSH2 0x100 DUP1 DUP4 SLOAD DIV MUL DUP4 MSTORE SWAP2 PUSH1 0x20 ADD SWAP2 PUSH2 0xBA0 JUMP JUMPDEST DUP3 ADD SWAP2 SWAP1 PUSH1 0x0 MSTORE PUSH1 0x20 PUSH1 0x0 KECCAK256 SWAP1 JUMPDEST DUP2 SLOAD DUP2 MSTORE SWAP1 PUSH1 0x1 ADD SWAP1 PUSH1 0x20 ADD DUP1 DUP4 GT PUSH2 0xB83 JUMPI DUP3 SWAP1 SUB PUSH1 0x1F AND DUP3 ADD SWAP2 JUMPDEST POP POP POP POP POP SWAP1 DUP1 PUSH1 0x7 ADD DUP1 SLOAD PUSH2 0xBB5 SWAP1 PUSH2 0x1D19 JUMP JUMPDEST DUP1 PUSH1 0x1F ADD PUSH1 0x20 DUP1 SWAP2 DIV MUL PUSH1 0x20 ADD PUSH1 0x40 MLOAD SWAP1 DUP2 ADD PUSH1 0x40 MSTORE DUP1 SWAP3 SWAP2 SWAP1 DUP2 DUP2 MSTORE PUSH1 0x20 ADD DUP3 DUP1 SLOAD PUSH2 0xBE1 SWAP1 PUSH2 0x1D19 JUMP JUMPDEST DUP1 ISZERO PUSH2 0xC2E JUMPI DUP1 PUSH1 0x1F LT PUSH2 0xC03 JUMPI PUSH2 0x100 DUP1 DUP4 SLOAD DIV MUL DUP4 MSTORE SWAP2 PUSH1 0x20 ADD SWAP2 PUSH2 0xC2E JUMP JUMPDEST DUP3 ADD SWAP2 SWAP1 PUSH1 0x0 MSTORE PUSH1 0x20 PUSH1 0x0 KECCAK256 SWAP1 JUMPDEST DUP2 SLOAD DUP2 MSTORE SWAP1 PUSH1 0x1 ADD SWAP1 PUSH1 0x20 ADD DUP1 DUP4 GT PUSH2 0xC11 JUMPI DUP3 SWAP1 SUB PUSH1 0x1F AND DUP3 ADD SWAP2 JUMPDEST POP POP POP POP POP SWAP1 POP DUP9 JUMP JUMPDEST PUSH1 0x60 PUSH1 0x0 DUP3 SUB PUSH2 0xF22 JUMPI PUSH1 0x1 DUP1 SLOAD DUP1 PUSH1 0x20 MUL PUSH1 0x20 ADD PUSH1 0x40 MLOAD SWAP1 DUP2 ADD PUSH1 0x40 MSTORE DUP1 SWAP3 SWAP2 SWAP1 DUP2 DUP2 MSTORE PUSH1 0x20 ADD PUSH1 0x0 SWAP1 JUMPDEST DUP3 DUP3 LT ISZERO PUSH2 0xF17 JUMPI DUP4 DUP3 SWAP1 PUSH1 0x0 MSTORE PUSH1 0x20 PUSH1 0x0 KECCAK256 SWAP1 PUSH1 0x8 MUL ADD PUSH1 0x40 MLOAD DUP1 PUSH2 0x100 ADD PUSH1 0x40 MSTORE SWAP1 DUP2 PUSH1 0x0 DUP3 ADD SLOAD DUP2 MSTORE PUSH1 0x20 ADD PUSH1 0x1 DUP3 ADD DUP1 SLOAD PUSH2 0xCA2 SWAP1 PUSH2 0x1D19 JUMP JUMPDEST DUP1 PUSH1 0x1F ADD PUSH1 0x20 DUP1 SWAP2 DIV MUL PUSH1 0x20 ADD PUSH1 0x40 MLOAD SWAP1 DUP2 ADD PUSH1 0x40 MSTORE DUP1 SWAP3 SWAP2 SWAP1 DUP2 DUP2 MSTORE PUSH1 0x20 ADD DUP3 DUP1 SLOAD PUSH2 0xCCE SWAP1 PUSH2 0x1D19 JUMP JUMPDEST DUP1 ISZERO PUSH2 0xD1B JUMPI DUP1 PUSH1 0x1F LT PUSH2 0xCF0 JUMPI PUSH2 0x100 DUP1 DUP4 SLOAD DIV MUL DUP4 MSTORE SWAP2 PUSH1 0x20 ADD SWAP2 PUSH2 0xD1B JUMP JUMPDEST DUP3 ADD SWAP2 SWAP1 PUSH1 0x0 MSTORE PUSH1 0x20 PUSH1 0x0 KECCAK256 SWAP1 JUMPDEST DUP2 SLOAD DUP2 MSTORE SWAP1 PUSH1 0x1 ADD SWAP1 PUSH1 0x20 ADD DUP1 DUP4 GT PUSH2 0xCFE JUMPI DUP3 SWAP1 SUB PUSH1 0x1F AND DUP3 ADD SWAP2 JUMPDEST POP POP POP POP POP DUP2 MSTORE PUSH1 0x20 ADD PUSH1 0x2 DUP3 ADD SLOAD DUP2 MSTORE PUSH1 0x20 ADD PUSH1 0x3 DUP3 ADD PUSH1 0x0 SWAP1 SLOAD SWAP1 PUSH2 0x100 EXP SWAP1 DIV PUSH20 0xFFFFFFFFFFFFFFFFFFFFFFFFFFFFFFFFFFFFFFFF AND PUSH20 0xFFFFFFFFFFFFFFFFFFFFFFFFFFFFFFFFFFFFFFFF AND PUSH20 0xFFFFFFFFFFFFFFFFFFFFFFFFFFFFFFFFFFFFFFFF AND DUP2 MSTORE PUSH1 0x20 ADD PUSH1 0x4 DUP3 ADD PUSH1 0x0 SWAP1 SLOAD SWAP1 PUSH2 0x100 EXP SWAP1 DIV PUSH20 0xFFFFFFFFFFFFFFFFFFFFFFFFFFFFFFFFFFFFFFFF AND PUSH20 0xFFFFFFFFFFFFFFFFFFFFFFFFFFFFFFFFFFFFFFFF AND PUSH20 0xFFFFFFFFFFFFFFFFFFFFFFFFFFFFFFFFFFFFFFFF AND DUP2 MSTORE PUSH1 0x20 ADD PUSH1 0x5 DUP3 ADD SLOAD DUP2 MSTORE PUSH1 0x20 ADD PUSH1 0x6 DUP3 ADD DUP1 SLOAD PUSH2 0xDF4 SWAP1 PUSH2 0x1D19 JUMP JUMPDEST DUP1 PUSH1 0x1F ADD PUSH1 0x20 DUP1 SWAP2 DIV MUL PUSH1 0x20 ADD PUSH1 0x40 MLOAD SWAP1 DUP2 ADD PUSH1 0x40 MSTORE DUP1 SWAP3 SWAP2 SWAP1 DUP2 DUP2 MSTORE PUSH1 0x20 ADD DUP3 DUP1 SLOAD PUSH2 0xE20 SWAP1 PUSH2 0x1D19 JUMP JUMPDEST DUP1 ISZERO PUSH2 0xE6D JUMPI DUP1 PUSH1 0x1F LT PUSH2 0xE42 JUMPI PUSH2 0x100 DUP1 DUP4 SLOAD DIV MUL DUP4 MSTORE SWAP2 PUSH1 0x20 ADD SWAP2 PUSH2 0xE6D JUMP JUMPDEST DUP3 ADD SWAP2 SWAP1 PUSH1 0x0 MSTORE PUSH1 0x20 PUSH1 0x0 KECCAK256 SWAP1 JUMPDEST DUP2 SLOAD DUP2 MSTORE SWAP1 PUSH1 0x1 ADD SWAP1 PUSH1 0x20 ADD DUP1 DUP4 GT PUSH2 0xE50 JUMPI DUP3 SWAP1 SUB PUSH1 0x1F AND DUP3 ADD SWAP2 JUMPDEST POP POP POP POP POP DUP2 MSTORE PUSH1 0x20 ADD PUSH1 0x7 DUP3 ADD DUP1 SLOAD PUSH2 0xE86 SWAP1 PUSH2 0x1D19 JUMP JUMPDEST DUP1 PUSH1 0x1F ADD PUSH1 0x20 DUP1 SWAP2 DIV MUL PUSH1 0x20 ADD PUSH1 0x40 MLOAD SWAP1 DUP2 ADD PUSH1 0x40 MSTORE DUP1 SWAP3 SWAP2 SWAP1 DUP2 DUP2 MSTORE PUSH1 0x20 ADD DUP3 DUP1 SLOAD PUSH2 0xEB2 SWAP1 PUSH2 0x1D19 JUMP JUMPDEST DUP1 ISZERO PUSH2 0xEFF JUMPI DUP1 PUSH1 0x1F LT PUSH2 0xED4 JUMPI PUSH2 0x100 DUP1 DUP4 SLOAD DIV MUL DUP4 MSTORE SWAP2 PUSH1 0x20 ADD SWAP2 PUSH2 0xEFF JUMP JUMPDEST DUP3 ADD SWAP2 SWAP1 PUSH1 0x0 MSTORE PUSH1 0x20 PUSH1 0x0 KECCAK256 SWAP1 JUMPDEST DUP2 SLOAD DUP2 MSTORE SWAP1 PUSH1 0x1 ADD SWAP1 PUSH1 0x20 ADD DUP1 DUP4 GT PUSH2 0xEE2 JUMPI DUP3 SWAP1 SUB PUSH1 0x1F AND DUP3 ADD SWAP2 JUMPDEST POP POP POP POP POP DUP2 MSTORE POP POP DUP2 MSTORE PUSH1 0x20 ADD SWAP1 PUSH1 0x1 ADD SWAP1 PUSH2 0xC64 JUMP JUMPDEST POP POP POP POP SWAP1 POP PUSH2 0x120F JUMP JUMPDEST PUSH1 0x2 PUSH1 0x0 DUP4 DUP2 MSTORE PUSH1 0x20 ADD SWAP1 DUP2 MSTORE PUSH1 0x20 ADD PUSH1 0x0 KECCAK256 DUP1 SLOAD DUP1 PUSH1 0x20 MUL PUSH1 0x20 ADD PUSH1 0x40 MLOAD SWAP1 DUP2 ADD PUSH1 0x40 MSTORE DUP1 SWAP3 SWAP2 SWAP1 DUP2 DUP2 MSTORE PUSH1 0x20 ADD PUSH1 0x0 SWAP1 JUMPDEST DUP3 DUP3 LT ISZERO PUSH2 0x1208 JUMPI DUP4 DUP3 SWAP1 PUSH1 0x0 MSTORE PUSH1 0x20 PUSH1 0x0 KECCAK256 SWAP1 PUSH1 0x8 MUL ADD PUSH1 0x40 MLOAD DUP1 PUSH2 0x100 ADD PUSH1 0x40 MSTORE SWAP1 DUP2 PUSH1 0x0 DUP3 ADD SLOAD DUP2 MSTORE PUSH1 0x20 ADD PUSH1 0x1 DUP3 ADD DUP1 SLOAD PUSH2 0xF93 SWAP1 PUSH2 0x1D19 JUMP JUMPDEST DUP1 PUSH1 0x1F ADD PUSH1 0x20 DUP1 SWAP2 DIV MUL PUSH1 0x20 ADD PUSH1 0x40 MLOAD SWAP1 DUP2 ADD PUSH1 0x40 MSTORE DUP1 SWAP3 SWAP2 SWAP1 DUP2 DUP2 MSTORE PUSH1 0x20 ADD DUP3 DUP1 SLOAD PUSH2 0xFBF SWAP1 PUSH2 0x1D19 JUMP JUMPDEST DUP1 ISZERO PUSH2 0x100C JUMPI DUP1 PUSH1 0x1F LT PUSH2 0xFE1 JUMPI PUSH2 0x100 DUP1 DUP4 SLOAD DIV MUL DUP4 MSTORE SWAP2 PUSH1 0x20 ADD SWAP2 PUSH2 0x100C JUMP JUMPDEST DUP3 ADD SWAP2 SWAP1 PUSH1 0x0 MSTORE PUSH1 0x20 PUSH1 0x0 KECCAK256 SWAP1 JUMPDEST DUP2 SLOAD DUP2 MSTORE SWAP1 PUSH1 0x1 ADD SWAP1 PUSH1 0x20 ADD DUP1 DUP4 GT PUSH2 0xFEF JUMPI DUP3 SWAP1 SUB PUSH1 0x1F AND DUP3 ADD SWAP2 JUMPDEST POP POP POP POP POP DUP2 MSTORE PUSH1 0x20 ADD PUSH1 0x2 DUP3 ADD SLOAD DUP2 MSTORE PUSH1 0x20 ADD PUSH1 0x3 DUP3 ADD PUSH1 0x0 SWAP1 SLOAD SWAP1 PUSH2 0x100 EXP SWAP1 DIV PUSH20 0xFFFFFFFFFFFFFFFFFFFFFFFFFFFFFFFFFFFFFFFF AND PUSH20 0xFFFFFFFFFFFFFFFFFFFFFFFFFFFFFFFFFFFFFFFF AND PUSH20 0xFFFFFFFFFFFFFFFFFFFFFFFFFFFFFFFFFFFFFFFF AND DUP2 MSTORE PUSH1 0x20 ADD PUSH1 0x4 DUP3 ADD PUSH1 0x0 SWAP1 SLOAD SWAP1 PUSH2 0x100 EXP SWAP1 DIV PUSH20 0xFFFFFFFFFFFFFFFFFFFFFFFFFFFFFFFFFFFFFFFF AND PUSH20 0xFFFFFFFFFFFFFFFFFFFFFFFFFFFFFFFFFFFFFFFF AND PUSH20 0xFFFFFFFFFFFFFFFFFFFFFFFFFFFFFFFFFFFFFFFF AND DUP2 MSTORE PUSH1 0x20 ADD PUSH1 0x5 DUP3 ADD SLOAD DUP2 MSTORE PUSH1 0x20 ADD PUSH1 0x6 DUP3 ADD DUP1 SLOAD PUSH2 0x10E5 SWAP1 PUSH2 0x1D19 JUMP JUMPDEST DUP1 PUSH1 0x1F ADD PUSH1 0x20 DUP1 SWAP2 DIV MUL PUSH1 0x20 ADD PUSH1 0x40 MLOAD SWAP1 DUP2 ADD PUSH1 0x40 MSTORE DUP1 SWAP3 SWAP2 SWAP1 DUP2 DUP2 MSTORE PUSH1 0x20 ADD DUP3 DUP1 SLOAD PUSH2 0x1111 SWAP1 PUSH2 0x1D19 JUMP JUMPDEST DUP1 ISZERO PUSH2 0x115E JUMPI DUP1 PUSH1 0x1F LT PUSH2 0x1133 JUMPI PUSH2 0x100 DUP1 DUP4 SLOAD DIV MUL DUP4 MSTORE SWAP2 PUSH1 0x20 ADD SWAP2 PUSH2 0x115E JUMP JUMPDEST DUP3 ADD SWAP2 SWAP1 PUSH1 0x0 MSTORE PUSH1 0x20 PUSH1 0x0 KECCAK256 SWAP1 JUMPDEST DUP2 SLOAD DUP2 MSTORE SWAP1 PUSH1 0x1 ADD SWAP1 PUSH1 0x20 ADD DUP1 DUP4 GT PUSH2 0x1141 JUMPI DUP3 SWAP1 SUB PUSH1 0x1F AND DUP3 ADD SWAP2 JUMPDEST POP POP POP POP POP DUP2 MSTORE PUSH1 0x20 ADD PUSH1 0x7 DUP3 ADD DUP1 SLOAD PUSH2 0x1177 SWAP1 PUSH2 0x1D19 JUMP JUMPDEST DUP1 PUSH1 0x1F ADD PUSH1 0x20 DUP1 SWAP2 DIV MUL PUSH1 0x20 ADD PUSH1 0x40 MLOAD SWAP1 DUP2 ADD PUSH1 0x40 MSTORE DUP1 SWAP3 SWAP2 SWAP1 DUP2 DUP2 MSTORE PUSH1 0x20 ADD DUP3 DUP1 SLOAD PUSH2 0x11A3 SWAP1 PUSH2 0x1D19 JUMP JUMPDEST DUP1 ISZERO PUSH2 0x11F0 JUMPI DUP1 PUSH1 0x1F LT PUSH2 0x11C5 JUMPI PUSH2 0x100 DUP1 DUP4 SLOAD DIV MUL DUP4 MSTORE SWAP2 PUSH1 0x20 ADD SWAP2 PUSH2 0x11F0 JUMP JUMPDEST DUP3 ADD SWAP2 SWAP1 PUSH1 0x0 MSTORE PUSH1 0x20 PUSH1 0x0 KECCAK256 SWAP1 JUMPDEST DUP2 SLOAD DUP2 MSTORE SWAP1 PUSH1 0x1 ADD SWAP1 PUSH1 0x20 ADD DUP1 DUP4 GT PUSH2 0x11D3 JUMPI DUP3 SWAP1 SUB PUSH1 0x1F AND DUP3 ADD SWAP2 JUMPDEST POP POP POP POP POP DUP2 MSTORE POP POP DUP2 MSTORE PUSH1 0x20 ADD SWAP1 PUSH1 0x1 ADD SWAP1 PUSH2 0xF55 JUMP JUMPDEST POP POP POP POP SWAP1 POP JUMPDEST SWAP2 SWAP1 POP JUMP JUMPDEST PUSH1 0x0 DUP1 DUP2 SLOAD DUP1 SWAP3 SWAP2 SWAP1 PUSH2 0x1226 SWAP1 PUSH2 0x210B JUMP JUMPDEST SWAP2 SWAP1 POP SSTORE POP PUSH1 0x0 PUSH1 0x40 MLOAD DUP1 PUSH2 0x100 ADD PUSH1 0x40 MSTORE DUP1 PUSH1 0x0 SLOAD DUP2 MSTORE PUSH1 0x20 ADD DUP6 DUP2 MSTORE PUSH1 0x20 ADD PUSH1 0x1 DUP2 MSTORE PUSH1 0x20 ADD CALLER PUSH20 0xFFFFFFFFFFFFFFFFFFFFFFFFFFFFFFFFFFFFFFFF AND DUP2 MSTORE PUSH1 0x20 ADD DUP5 PUSH20 0xFFFFFFFFFFFFFFFFFFFFFFFFFFFFFFFFFFFFFFFF AND DUP2 MSTORE PUSH1 0x20 ADD PUSH1 0x0 DUP2 MSTORE PUSH1 0x20 ADD DUP4 DUP2 MSTORE PUSH1 0x20 ADD PUSH1 0x40 MLOAD DUP1 PUSH1 0x40 ADD PUSH1 0x40 MSTORE DUP1 PUSH1 0x1 DUP2 MSTORE PUSH1 0x20 ADD PUSH32 0x3000000000000000000000000000000000000000000000000000000000000000 DUP2 MSTORE POP DUP2 MSTORE POP SWAP1 POP PUSH1 0x1 DUP2 SWAP1 DUP1 PUSH1 0x1 DUP2 SLOAD ADD DUP1 DUP3 SSTORE DUP1 SWAP2 POP POP PUSH1 0x1 SWAP1 SUB SWAP1 PUSH1 0x0 MSTORE PUSH1 0x20 PUSH1 0x0 KECCAK256 SWAP1 PUSH1 0x8 MUL ADD PUSH1 0x0 SWAP1 SWAP2 SWAP1 SWAP2 SWAP1 SWAP2 POP PUSH1 0x0 DUP3 ADD MLOAD DUP2 PUSH1 0x0 ADD SSTORE PUSH1 0x20 DUP3 ADD MLOAD DUP2 PUSH1 0x1 ADD SWAP1 DUP2 PUSH2 0x1319 SWAP2 SWAP1 PUSH2 0x2153 JUMP JUMPDEST POP PUSH1 0x40 DUP3 ADD MLOAD DUP2 PUSH1 0x2 ADD SSTORE PUSH1 0x60 DUP3 ADD MLOAD DUP2 PUSH1 0x3 ADD PUSH1 0x0 PUSH2 0x100 EXP DUP2 SLOAD DUP2 PUSH20 0xFFFFFFFFFFFFFFFFFFFFFFFFFFFFFFFFFFFFFFFF MUL NOT AND SWAP1 DUP4 PUSH20 0xFFFFFFFFFFFFFFFFFFFFFFFFFFFFFFFFFFFFFFFF AND MUL OR SWAP1 SSTORE POP PUSH1 0x80 DUP3 ADD MLOAD DUP2 PUSH1 0x4 ADD PUSH1 0x0 PUSH2 0x100 EXP DUP2 SLOAD DUP2 PUSH20 0xFFFFFFFFFFFFFFFFFFFFFFFFFFFFFFFFFFFFFFFF MUL NOT AND SWAP1 DUP4 PUSH20 0xFFFFFFFFFFFFFFFFFFFFFFFFFFFFFFFFFFFFFFFF AND MUL OR SWAP1 SSTORE POP PUSH1 0xA0 DUP3 ADD MLOAD DUP2 PUSH1 0x5 ADD SSTORE PUSH1 0xC0 DUP3 ADD MLOAD DUP2 PUSH1 0x6 ADD SWAP1 DUP2 PUSH2 0x13D1 SWAP2 SWAP1 PUSH2 0x2153 JUMP JUMPDEST POP PUSH1 0xE0 DUP3 ADD MLOAD DUP2 PUSH1 0x7 ADD SWAP1 DUP2 PUSH2 0x13E7 SWAP2 SWAP1 PUSH2 0x2153 JUMP JUMPDEST POP POP POP PUSH1 0x2 PUSH1 0x0 PUSH1 0x1 DUP2 MSTORE PUSH1 0x20 ADD SWAP1 DUP2 MSTORE PUSH1 0x20 ADD PUSH1 0x0 KECCAK256 DUP2 SWAP1 DUP1 PUSH1 0x1 DUP2 SLOAD ADD DUP1 DUP3 SSTORE DUP1 SWAP2 POP POP PUSH1 0x1 SWAP1 SUB SWAP1 PUSH1 0x0 MSTORE PUSH1 0x20 PUSH1 0x0 KECCAK256 SWAP1 PUSH1 0x8 MUL ADD PUSH1 0x0 SWAP1 SWAP2 SWAP1 SWAP2 SWAP1 SWAP2 POP PUSH1 0x0 DUP3 ADD MLOAD DUP2 PUSH1 0x0 ADD SSTORE PUSH1 0x20 DUP3 ADD MLOAD DUP2 PUSH1 0x1 ADD SWAP1 DUP2 PUSH2 0x1447 SWAP2 SWAP1 PUSH2 0x2153 JUMP JUMPDEST POP PUSH1 0x40 DUP3 ADD MLOAD DUP2 PUSH1 0x2 ADD SSTORE PUSH1 0x60 DUP3 ADD MLOAD DUP2 PUSH1 0x3 ADD PUSH1 0x0 PUSH2 0x100 EXP DUP2 SLOAD DUP2 PUSH20 0xFFFFFFFFFFFFFFFFFFFFFFFFFFFFFFFFFFFFFFFF MUL NOT AND SWAP1 DUP4 PUSH20 0xFFFFFFFFFFFFFFFFFFFFFFFFFFFFFFFFFFFFFFFF AND MUL OR SWAP1 SSTORE POP PUSH1 0x80 DUP3 ADD MLOAD DUP2 PUSH1 0x4 ADD PUSH1 0x0 PUSH2 0x100 EXP DUP2 SLOAD DUP2 PUSH20 0xFFFFFFFFFFFFFFFFFFFFFFFFFFFFFFFFFFFFFFFF MUL NOT AND SWAP1 DUP4 PUSH20 0xFFFFFFFFFFFFFFFFFFFFFFFFFFFFFFFFFFFFFFFF AND MUL OR SWAP1 SSTORE POP PUSH1 0xA0 DUP3 ADD MLOAD DUP2 PUSH1 0x5 ADD SSTORE PUSH1 0xC0 DUP3 ADD MLOAD DUP2 PUSH1 0x6 ADD SWAP1 DUP2 PUSH2 0x14FF SWAP2 SWAP1 PUSH2 0x2153 JUMP JUMPDEST POP PUSH1 0xE0 DUP3 ADD MLOAD DUP2 PUSH1 0x7 ADD SWAP1 DUP2 PUSH2 0x1515 SWAP2 SWAP1 PUSH2 0x2153 JUMP JUMPDEST POP POP POP PUSH1 0x3 PUSH1 0x0 CALLER PUSH20 0xFFFFFFFFFFFFFFFFFFFFFFFFFFFFFFFFFFFFFFFF AND PUSH20 0xFFFFFFFFFFFFFFFFFFFFFFFFFFFFFFFFFFFFFFFF AND DUP2 MSTORE PUSH1 0x20 ADD SWAP1 DUP2 MSTORE PUSH1 0x20 ADD PUSH1 0x0 KECCAK256 DUP2 SWAP1 DUP1 PUSH1 0x1 DUP2 SLOAD ADD DUP1 DUP3 SSTORE DUP1 SWAP2 POP POP PUSH1 0x1 SWAP1 SUB SWAP1 PUSH1 0x0 MSTORE PUSH1 0x20 PUSH1 0x0 KECCAK256 SWAP1 PUSH1 0x8 MUL ADD PUSH1 0x0 SWAP1 SWAP2 SWAP1 SWAP2 SWAP1 SWAP2 POP PUSH1 0x0 DUP3 ADD MLOAD DUP2 PUSH1 0x0 ADD SSTORE PUSH1 0x20 DUP3 ADD MLOAD DUP2 PUSH1 0x1 ADD SWAP1 DUP2 PUSH2 0x15A0 SWAP2 SWAP1 PUSH2 0x2153 JUMP JUMPDEST POP PUSH1 0x40 DUP3 ADD MLOAD DUP2 PUSH1 0x2 ADD SSTORE PUSH1 0x60 DUP3 ADD MLOAD DUP2 PUSH1 0x3 ADD PUSH1 0x0 PUSH2 0x100 EXP DUP2 SLOAD DUP2 PUSH20 0xFFFFFFFFFFFFFFFFFFFFFFFFFFFFFFFFFFFFFFFF MUL NOT AND SWAP1 DUP4 PUSH20 0xFFFFFFFFFFFFFFFFFFFFFFFFFFFFFFFFFFFFFFFF AND MUL OR SWAP1 SSTORE POP PUSH1 0x80 DUP3 ADD MLOAD DUP2 PUSH1 0x4 ADD PUSH1 0x0 PUSH2 0x100 EXP DUP2 SLOAD DUP2 PUSH20 0xFFFFFFFFFFFFFFFFFFFFFFFFFFFFFFFFFFFFFFFF MUL NOT AND SWAP1 DUP4 PUSH20 0xFFFFFFFFFFFFFFFFFFFFFFFFFFFFFFFFFFFFFFFF AND MUL OR SWAP1 SSTORE POP PUSH1 0xA0 DUP3 ADD MLOAD DUP2 PUSH1 0x5 ADD SSTORE PUSH1 0xC0 DUP3 ADD MLOAD DUP2 PUSH1 0x6 ADD SWAP1 DUP2 PUSH2 0x1658 SWAP2 SWAP1 PUSH2 0x2153 JUMP JUMPDEST POP PUSH1 0xE0 DUP3 ADD MLOAD DUP2 PUSH1 0x7 ADD SWAP1 DUP2 PUSH2 0x166E SWAP2 SWAP1 PUSH2 0x2153 JUMP JUMPDEST POP POP POP POP POP POP POP JUMP JUMPDEST POP DUP1 SLOAD PUSH2 0x1683 SWAP1 PUSH2 0x1D19 JUMP JUMPDEST PUSH1 0x0 DUP3 SSTORE DUP1 PUSH1 0x1F LT PUSH2 0x1695 JUMPI POP PUSH2 0x16B4 JUMP JUMPDEST PUSH1 0x1F ADD PUSH1 0x20 SWAP1 DIV SWAP1 PUSH1 0x0 MSTORE PUSH1 0x20 PUSH1 0x0 KECCAK256 SWAP1 DUP2 ADD SWAP1 PUSH2 0x16B3 SWAP2 SWAP1 PUSH2 0x16B7 JUMP JUMPDEST JUMPDEST POP JUMP JUMPDEST JUMPDEST DUP1 DUP3 GT ISZERO PUSH2 0x16D0 JUMPI PUSH1 0x0 DUP2 PUSH1 0x0 SWAP1 SSTORE POP PUSH1 0x1 ADD PUSH2 0x16B8 JUMP JUMPDEST POP SWAP1 JUMP JUMPDEST PUSH1 0x0 PUSH1 0x40 MLOAD SWAP1 POP SWAP1 JUMP JUMPDEST PUSH1 0x0 DUP1 REVERT JUMPDEST PUSH1 0x0 DUP1 REVERT JUMPDEST PUSH1 0x0 PUSH20 0xFFFFFFFFFFFFFFFFFFFFFFFFFFFFFFFFFFFFFFFF DUP3 AND SWAP1 POP SWAP2 SWAP1 POP JUMP JUMPDEST PUSH1 0x0 PUSH2 0x1713 DUP3 PUSH2 0x16E8 JUMP JUMPDEST SWAP1 POP SWAP2 SWAP1 POP JUMP JUMPDEST PUSH2 0x1723 DUP2 PUSH2 0x1708 JUMP JUMPDEST DUP2 EQ PUSH2 0x172E JUMPI PUSH1 0x0 DUP1 REVERT JUMPDEST POP JUMP JUMPDEST PUSH1 0x0 DUP2 CALLDATALOAD SWAP1 POP PUSH2 0x1740 DUP2 PUSH2 0x171A JUMP JUMPDEST SWAP3 SWAP2 POP POP JUMP JUMPDEST PUSH1 0x0 PUSH1 0x20 DUP3 DUP5 SUB SLT ISZERO PUSH2 0x175C JUMPI PUSH2 0x175B PUSH2 0x16DE JUMP JUMPDEST JUMPDEST PUSH1 0x0 PUSH2 0x176A DUP5 DUP3 DUP6 ADD PUSH2 0x1731 JUMP JUMPDEST SWAP2 POP POP SWAP3 SWAP2 POP POP JUMP JUMPDEST PUSH1 0x0 DUP2 MLOAD SWAP1 POP SWAP2 SWAP1 POP JUMP JUMPDEST PUSH1 0x0 DUP3 DUP3 MSTORE PUSH1 0x20 DUP3 ADD SWAP1 POP SWAP3 SWAP2 POP POP JUMP JUMPDEST PUSH1 0x0 DUP2 SWAP1 POP PUSH1 0x20 DUP3 ADD SWAP1 POP SWAP2 SWAP1 POP JUMP JUMPDEST PUSH1 0x0 DUP2 SWAP1 POP SWAP2 SWAP1 POP JUMP JUMPDEST PUSH2 0x17B2 DUP2 PUSH2 0x179F JUMP JUMPDEST DUP3 MSTORE POP POP JUMP JUMPDEST PUSH1 0x0 DUP2 MLOAD SWAP1 POP SWAP2 SWAP1 POP JUMP JUMPDEST PUSH1 0x0 DUP3 DUP3 MSTORE PUSH1 0x20 DUP3 ADD SWAP1 POP SWAP3 SWAP2 POP POP JUMP JUMPDEST PUSH1 0x0 JUMPDEST DUP4 DUP2 LT ISZERO PUSH2 0x17F2 JUMPI DUP1 DUP3 ADD MLOAD DUP2 DUP5 ADD MSTORE PUSH1 0x20 DUP2 ADD SWAP1 POP PUSH2 0x17D7 JUMP JUMPDEST DUP4 DUP2 GT ISZERO PUSH2 0x1801 JUMPI PUSH1 0x0 DUP5 DUP5 ADD MSTORE JUMPDEST POP POP POP POP JUMP JUMPDEST PUSH1 0x0 PUSH1 0x1F NOT PUSH1 0x1F DUP4 ADD AND SWAP1 POP SWAP2 SWAP1 POP JUMP JUMPDEST PUSH1 0x0 PUSH2 0x1823 DUP3 PUSH2 0x17B8 JUMP JUMPDEST PUSH2 0x182D DUP2 DUP6 PUSH2 0x17C3 JUMP JUMPDEST SWAP4 POP PUSH2 0x183D DUP2 DUP6 PUSH1 0x20 DUP7 ADD PUSH2 0x17D4 JUMP JUMPDEST PUSH2 0x1846 DUP2 PUSH2 0x1807 JUMP JUMPDEST DUP5 ADD SWAP2 POP POP SWAP3 SWAP2 POP POP JUMP JUMPDEST PUSH2 0x185A DUP2 PUSH2 0x1708 JUMP JUMPDEST DUP3 MSTORE POP POP JUMP JUMPDEST PUSH1 0x0 PUSH2 0x100 DUP4 ADD PUSH1 0x0 DUP4 ADD MLOAD PUSH2 0x1879 PUSH1 0x0 DUP7 ADD DUP3 PUSH2 0x17A9 JUMP JUMPDEST POP PUSH1 0x20 DUP4 ADD MLOAD DUP5 DUP3 SUB PUSH1 0x20 DUP7 ADD MSTORE PUSH2 0x1891 DUP3 DUP3 PUSH2 0x1818 JUMP JUMPDEST SWAP2 POP POP PUSH1 0x40 DUP4 ADD MLOAD PUSH2 0x18A6 PUSH1 0x40 DUP7 ADD DUP3 PUSH2 0x17A9 JUMP JUMPDEST POP PUSH1 0x60 DUP4 ADD MLOAD PUSH2 0x18B9 PUSH1 0x60 DUP7 ADD DUP3 PUSH2 0x1851 JUMP JUMPDEST POP PUSH1 0x80 DUP4 ADD MLOAD PUSH2 0x18CC PUSH1 0x80 DUP7 ADD DUP3 PUSH2 0x1851 JUMP JUMPDEST POP PUSH1 0xA0 DUP4 ADD MLOAD PUSH2 0x18DF PUSH1 0xA0 DUP7 ADD DUP3 PUSH2 0x17A9 JUMP JUMPDEST POP PUSH1 0xC0 DUP4 ADD MLOAD DUP5 DUP3 SUB PUSH1 0xC0 DUP7 ADD MSTORE PUSH2 0x18F7 DUP3 DUP3 PUSH2 0x1818 JUMP JUMPDEST SWAP2 POP POP PUSH1 0xE0 DUP4 ADD MLOAD DUP5 DUP3 SUB PUSH1 0xE0 DUP7 ADD MSTORE PUSH2 0x1911 DUP3 DUP3 PUSH2 0x1818 JUMP JUMPDEST SWAP2 POP POP DUP1 SWAP2 POP POP SWAP3 SWAP2 POP POP JUMP JUMPDEST PUSH1 0x0 PUSH2 0x192A DUP4 DUP4 PUSH2 0x1860 JUMP JUMPDEST SWAP1 POP SWAP3 SWAP2 POP POP JUMP JUMPDEST PUSH1 0x0 PUSH1 0x20 DUP3 ADD SWAP1 POP SWAP2 SWAP1 POP JUMP JUMPDEST PUSH1 0x0 PUSH2 0x194A DUP3 PUSH2 0x1773 JUMP JUMPDEST PUSH2 0x1954 DUP2 DUP6 PUSH2 0x177E JUMP JUMPDEST SWAP4 POP DUP4 PUSH1 0x20 DUP3 MUL DUP6 ADD PUSH2 0x1966 DUP6 PUSH2 0x178F JUMP JUMPDEST DUP1 PUSH1 0x0 JUMPDEST DUP6 DUP2 LT ISZERO PUSH2 0x19A2 JUMPI DUP5 DUP5 SUB DUP10 MSTORE DUP2 MLOAD PUSH2 0x1983 DUP6 DUP3 PUSH2 0x191E JUMP JUMPDEST SWAP5 POP PUSH2 0x198E DUP4 PUSH2 0x1932 JUMP JUMPDEST SWAP3 POP PUSH1 0x20 DUP11 ADD SWAP10 POP POP PUSH1 0x1 DUP2 ADD SWAP1 POP PUSH2 0x196A JUMP JUMPDEST POP DUP3 SWAP8 POP DUP8 SWAP6 POP POP POP POP POP POP SWAP3 SWAP2 POP POP JUMP JUMPDEST PUSH1 0x0 PUSH1 0x20 DUP3 ADD SWAP1 POP DUP2 DUP2 SUB PUSH1 0x0 DUP4 ADD MSTORE PUSH2 0x19CE DUP2 DUP5 PUSH2 0x193F JUMP JUMPDEST SWAP1 POP SWAP3 SWAP2 POP POP JUMP JUMPDEST PUSH2 0x19DF DUP2 PUSH2 0x179F JUMP JUMPDEST DUP2 EQ PUSH2 0x19EA JUMPI PUSH1 0x0 DUP1 REVERT JUMPDEST POP JUMP JUMPDEST PUSH1 0x0 DUP2 CALLDATALOAD SWAP1 POP PUSH2 0x19FC DUP2 PUSH2 0x19D6 JUMP JUMPDEST SWAP3 SWAP2 POP POP JUMP JUMPDEST PUSH1 0x0 PUSH1 0x20 DUP3 DUP5 SUB SLT ISZERO PUSH2 0x1A18 JUMPI PUSH2 0x1A17 PUSH2 0x16DE JUMP JUMPDEST JUMPDEST PUSH1 0x0 PUSH2 0x1A26 DUP5 DUP3 DUP6 ADD PUSH2 0x19ED JUMP JUMPDEST SWAP2 POP POP SWAP3 SWAP2 POP POP JUMP JUMPDEST PUSH2 0x1A38 DUP2 PUSH2 0x179F JUMP JUMPDEST DUP3 MSTORE POP POP JUMP JUMPDEST PUSH1 0x0 DUP3 DUP3 MSTORE PUSH1 0x20 DUP3 ADD SWAP1 POP SWAP3 SWAP2 POP POP JUMP JUMPDEST PUSH1 0x0 PUSH2 0x1A5A DUP3 PUSH2 0x17B8 JUMP JUMPDEST PUSH2 0x1A64 DUP2 DUP6 PUSH2 0x1A3E JUMP JUMPDEST SWAP4 POP PUSH2 0x1A74 DUP2 DUP6 PUSH1 0x20 DUP7 ADD PUSH2 0x17D4 JUMP JUMPDEST PUSH2 0x1A7D DUP2 PUSH2 0x1807 JUMP JUMPDEST DUP5 ADD SWAP2 POP POP SWAP3 SWAP2 POP POP JUMP JUMPDEST PUSH2 0x1A91 DUP2 PUSH2 0x1708 JUMP JUMPDEST DUP3 MSTORE POP POP JUMP JUMPDEST PUSH1 0x0 PUSH2 0x100 DUP3 ADD SWAP1 POP PUSH2 0x1AAD PUSH1 0x0 DUP4 ADD DUP12 PUSH2 0x1A2F JUMP JUMPDEST DUP2 DUP2 SUB PUSH1 0x20 DUP4 ADD MSTORE PUSH2 0x1ABF DUP2 DUP11 PUSH2 0x1A4F JUMP JUMPDEST SWAP1 POP PUSH2 0x1ACE PUSH1 0x40 DUP4 ADD DUP10 PUSH2 0x1A2F JUMP JUMPDEST PUSH2 0x1ADB PUSH1 0x60 DUP4 ADD DUP9 PUSH2 0x1A88 JUMP JUMPDEST PUSH2 0x1AE8 PUSH1 0x80 DUP4 ADD DUP8 PUSH2 0x1A88 JUMP JUMPDEST PUSH2 0x1AF5 PUSH1 0xA0 DUP4 ADD DUP7 PUSH2 0x1A2F JUMP JUMPDEST DUP2 DUP2 SUB PUSH1 0xC0 DUP4 ADD MSTORE PUSH2 0x1B07 DUP2 DUP6 PUSH2 0x1A4F JUMP JUMPDEST SWAP1 POP DUP2 DUP2 SUB PUSH1 0xE0 DUP4 ADD MSTORE PUSH2 0x1B1B DUP2 DUP5 PUSH2 0x1A4F JUMP JUMPDEST SWAP1 POP SWAP10 SWAP9 POP POP POP POP POP POP POP POP POP JUMP JUMPDEST PUSH1 0x0 DUP1 REVERT JUMPDEST PUSH1 0x0 DUP1 REVERT JUMPDEST PUSH32 0x4E487B7100000000000000000000000000000000000000000000000000000000 PUSH1 0x0 MSTORE PUSH1 0x41 PUSH1 0x4 MSTORE PUSH1 0x24 PUSH1 0x0 REVERT JUMPDEST PUSH2 0x1B6C DUP3 PUSH2 0x1807 JUMP JUMPDEST DUP2 ADD DUP2 DUP2 LT PUSH8 0xFFFFFFFFFFFFFFFF DUP3 GT OR ISZERO PUSH2 0x1B8B JUMPI PUSH2 0x1B8A PUSH2 0x1B34 JUMP JUMPDEST JUMPDEST DUP1 PUSH1 0x40 MSTORE POP POP POP JUMP JUMPDEST PUSH1 0x0 PUSH2 0x1B9E PUSH2 0x16D4 JUMP JUMPDEST SWAP1 POP PUSH2 0x1BAA DUP3 DUP3 PUSH2 0x1B63 JUMP JUMPDEST SWAP2 SWAP1 POP JUMP JUMPDEST PUSH1 0x0 PUSH8 0xFFFFFFFFFFFFFFFF DUP3 GT ISZERO PUSH2 0x1BCA JUMPI PUSH2 0x1BC9 PUSH2 0x1B34 JUMP JUMPDEST JUMPDEST PUSH2 0x1BD3 DUP3 PUSH2 0x1807 JUMP JUMPDEST SWAP1 POP PUSH1 0x20 DUP2 ADD SWAP1 POP SWAP2 SWAP1 POP JUMP JUMPDEST DUP3 DUP2 DUP4 CALLDATACOPY PUSH1 0x0 DUP4 DUP4 ADD MSTORE POP POP POP JUMP JUMPDEST PUSH1 0x0 PUSH2 0x1C02 PUSH2 0x1BFD DUP5 PUSH2 0x1BAF JUMP JUMPDEST PUSH2 0x1B94 JUMP JUMPDEST SWAP1 POP DUP3 DUP2 MSTORE PUSH1 0x20 DUP2 ADD DUP5 DUP5 DUP5 ADD GT ISZERO PUSH2 0x1C1E JUMPI PUSH2 0x1C1D PUSH2 0x1B2F JUMP JUMPDEST JUMPDEST PUSH2 0x1C29 DUP5 DUP3 DUP6 PUSH2 0x1BE0 JUMP JUMPDEST POP SWAP4 SWAP3 POP POP POP JUMP JUMPDEST PUSH1 0x0 DUP3 PUSH1 0x1F DUP4 ADD SLT PUSH2 0x1C46 JUMPI PUSH2 0x1C45 PUSH2 0x1B2A JUMP JUMPDEST JUMPDEST DUP2 CALLDATALOAD PUSH2 0x1C56 DUP5 DUP3 PUSH1 0x20 DUP7 ADD PUSH2 0x1BEF JUMP JUMPDEST SWAP2 POP POP SWAP3 SWAP2 POP POP JUMP JUMPDEST PUSH1 0x0 DUP1 PUSH1 0x0 PUSH1 0x60 DUP5 DUP7 SUB SLT ISZERO PUSH2 0x1C78 JUMPI PUSH2 0x1C77 PUSH2 0x16DE JUMP JUMPDEST JUMPDEST PUSH1 0x0 DUP5 ADD CALLDATALOAD PUSH8 0xFFFFFFFFFFFFFFFF DUP2 GT ISZERO PUSH2 0x1C96 JUMPI PUSH2 0x1C95 PUSH2 0x16E3 JUMP JUMPDEST JUMPDEST PUSH2 0x1CA2 DUP7 DUP3 DUP8 ADD PUSH2 0x1C31 JUMP JUMPDEST SWAP4 POP POP PUSH1 0x20 PUSH2 0x1CB3 DUP7 DUP3 DUP8 ADD PUSH2 0x1731 JUMP JUMPDEST SWAP3 POP POP PUSH1 0x40 DUP5 ADD CALLDATALOAD PUSH8 0xFFFFFFFFFFFFFFFF DUP2 GT ISZERO PUSH2 0x1CD4 JUMPI PUSH2 0x1CD3 PUSH2 0x16E3 JUMP JUMPDEST JUMPDEST PUSH2 0x1CE0 DUP7 DUP3 DUP8 ADD PUSH2 0x1C31 JUMP JUMPDEST SWAP2 POP POP SWAP3 POP SWAP3 POP SWAP3 JUMP JUMPDEST PUSH32 0x4E487B7100000000000000000000000000000000000000000000000000000000 PUSH1 0x0 MSTORE PUSH1 0x22 PUSH1 0x4 MSTORE PUSH1 0x24 PUSH1 0x0 REVERT JUMPDEST PUSH1 0x0 PUSH1 0x2 DUP3 DIV SWAP1 POP PUSH1 0x1 DUP3 AND DUP1 PUSH2 0x1D31 JUMPI PUSH1 0x7F DUP3 AND SWAP2 POP JUMPDEST PUSH1 0x20 DUP3 LT DUP2 SUB PUSH2 0x1D44 JUMPI PUSH2 0x1D43 PUSH2 0x1CEA JUMP JUMPDEST JUMPDEST POP SWAP2 SWAP1 POP JUMP JUMPDEST PUSH32 0x4E487B7100000000000000000000000000000000000000000000000000000000 PUSH1 0x0 MSTORE PUSH1 0x11 PUSH1 0x4 MSTORE PUSH1 0x24 PUSH1 0x0 REVERT JUMPDEST PUSH1 0x0 PUSH2 0x1D84 DUP3 PUSH2 0x179F JUMP JUMPDEST SWAP2 POP PUSH2 0x1D8F DUP4 PUSH2 0x179F JUMP JUMPDEST SWAP3 POP DUP3 DUP3 LT ISZERO PUSH2 0x1DA2 JUMPI PUSH2 0x1DA1 PUSH2 0x1D4A JUMP JUMPDEST JUMPDEST DUP3 DUP3 SUB SWAP1 POP SWAP3 SWAP2 POP POP JUMP JUMPDEST PUSH32 0x4E487B7100000000000000000000000000000000000000000000000000000000 PUSH1 0x0 MSTORE PUSH1 0x32 PUSH1 0x4 MSTORE PUSH1 0x24 PUSH1 0x0 REVERT JUMPDEST PUSH32 0x4E487B7100000000000000000000000000000000000000000000000000000000 PUSH1 0x0 MSTORE PUSH1 0x31 PUSH1 0x4 MSTORE PUSH1 0x24 PUSH1 0x0 REVERT JUMPDEST PUSH1 0x0 PUSH2 0x1E16 DUP3 PUSH2 0x179F JUMP JUMPDEST SWAP2 POP PUSH2 0x1E21 DUP4 PUSH2 0x179F JUMP JUMPDEST SWAP3 POP DUP3 PUSH32 0xFFFFFFFFFFFFFFFFFFFFFFFFFFFFFFFFFFFFFFFFFFFFFFFFFFFFFFFFFFFFFFFF SUB DUP3 GT ISZERO PUSH2 0x1E56 JUMPI PUSH2 0x1E55 PUSH2 0x1D4A JUMP JUMPDEST JUMPDEST DUP3 DUP3 ADD SWAP1 POP SWAP3 SWAP2 POP POP JUMP JUMPDEST PUSH1 0x0 DUP2 SLOAD SWAP1 POP PUSH2 0x1E70 DUP2 PUSH2 0x1D19 JUMP JUMPDEST SWAP1 POP SWAP2 SWAP1 POP JUMP JUMPDEST PUSH1 0x0 DUP2 SWAP1 POP DUP2 PUSH1 0x0 MSTORE PUSH1 0x20 PUSH1 0x0 KECCAK256 SWAP1 POP SWAP2 SWAP1 POP JUMP JUMPDEST PUSH1 0x0 PUSH1 0x20 PUSH1 0x1F DUP4 ADD DIV SWAP1 POP SWAP2 SWAP1 POP JUMP JUMPDEST PUSH1 0x0 DUP3 DUP3 SHL SWAP1 POP SWAP3 SWAP2 POP POP JUMP JUMPDEST PUSH1 0x0 PUSH1 0x8 DUP4 MUL PUSH2 0x1ED9 PUSH32 0xFFFFFFFFFFFFFFFFFFFFFFFFFFFFFFFFFFFFFFFFFFFFFFFFFFFFFFFFFFFFFFFF DUP3 PUSH2 0x1E9C JUMP JUMPDEST PUSH2 0x1EE3 DUP7 DUP4 PUSH2 0x1E9C JUMP JUMPDEST SWAP6 POP DUP1 NOT DUP5 AND SWAP4 POP DUP1 DUP7 AND DUP5 OR SWAP3 POP POP POP SWAP4 SWAP3 POP POP POP JUMP JUMPDEST PUSH1 0x0 DUP2 SWAP1 POP SWAP2 SWAP1 POP JUMP JUMPDEST PUSH1 0x0 PUSH2 0x1F20 PUSH2 0x1F1B PUSH2 0x1F16 DUP5 PUSH2 0x179F JUMP JUMPDEST PUSH2 0x1EFB JUMP JUMPDEST PUSH2 0x179F JUMP JUMPDEST SWAP1 POP SWAP2 SWAP1 POP JUMP JUMPDEST PUSH1 0x0 DUP2 SWAP1 POP SWAP2 SWAP1 POP JUMP JUMPDEST PUSH2 0x1F3A DUP4 PUSH2 0x1F05 JUMP JUMPDEST PUSH2 0x1F4E PUSH2 0x1F46 DUP3 PUSH2 0x1F27 JUMP JUMPDEST DUP5 DUP5 SLOAD PUSH2 0x1EA9 JUMP JUMPDEST DUP3 SSTORE POP POP POP POP JUMP JUMPDEST PUSH1 0x0 SWAP1 JUMP JUMPDEST PUSH2 0x1F63 PUSH2 0x1F56 JUMP JUMPDEST PUSH2 0x1F6E DUP2 DUP5 DUP5 PUSH2 0x1F31 JUMP JUMPDEST POP POP POP JUMP JUMPDEST JUMPDEST DUP2 DUP2 LT ISZERO PUSH2 0x1F92 JUMPI PUSH2 0x1F87 PUSH1 0x0 DUP3 PUSH2 0x1F5B JUMP JUMPDEST PUSH1 0x1 DUP2 ADD SWAP1 POP PUSH2 0x1F74 JUMP JUMPDEST POP POP JUMP JUMPDEST PUSH1 0x1F DUP3 GT ISZERO PUSH2 0x1FD7 JUMPI PUSH2 0x1FA8 DUP2 PUSH2 0x1E77 JUMP JUMPDEST PUSH2 0x1FB1 DUP5 PUSH2 0x1E8C JUMP JUMPDEST DUP2 ADD PUSH1 0x20 DUP6 LT ISZERO PUSH2 0x1FC0 JUMPI DUP2 SWAP1 POP JUMPDEST PUSH2 0x1FD4 PUSH2 0x1FCC DUP6 PUSH2 0x1E8C JUMP JUMPDEST DUP4 ADD DUP3 PUSH2 0x1F73 JUMP JUMPDEST POP POP JUMPDEST POP POP POP JUMP JUMPDEST PUSH1 0x0 DUP3 DUP3 SHR SWAP1 POP SWAP3 SWAP2 POP POP JUMP JUMPDEST PUSH1 0x0 PUSH2 0x1FFA PUSH1 0x0 NOT DUP5 PUSH1 0x8 MUL PUSH2 0x1FDC JUMP JUMPDEST NOT DUP1 DUP4 AND SWAP2 POP POP SWAP3 SWAP2 POP POP JUMP JUMPDEST PUSH1 0x0 PUSH2 0x2013 DUP4 DUP4 PUSH2 0x1FE9 JUMP JUMPDEST SWAP2 POP DUP3 PUSH1 0x2 MUL DUP3 OR SWAP1 POP SWAP3 SWAP2 POP POP JUMP JUMPDEST DUP2 DUP2 SUB PUSH2 0x2031 JUMPI POP POP PUSH2 0x2109 JUMP JUMPDEST PUSH2 0x203A DUP3 PUSH2 0x1E61 JUMP JUMPDEST PUSH8 0xFFFFFFFFFFFFFFFF DUP2 GT ISZERO PUSH2 0x2053 JUMPI PUSH2 0x2052 PUSH2 0x1B34 JUMP JUMPDEST JUMPDEST PUSH2 0x205D DUP3 SLOAD PUSH2 0x1D19 JUMP JUMPDEST PUSH2 0x2068 DUP3 DUP3 DUP6 PUSH2 0x1F96 JUMP JUMPDEST PUSH1 0x0 PUSH1 0x1F DUP4 GT PUSH1 0x1 DUP2 EQ PUSH2 0x2097 JUMPI PUSH1 0x0 DUP5 ISZERO PUSH2 0x2085 JUMPI DUP3 DUP8 ADD SLOAD SWAP1 POP JUMPDEST PUSH2 0x208F DUP6 DUP3 PUSH2 0x2007 JUMP JUMPDEST DUP7 SSTORE POP PUSH2 0x2102 JUMP JUMPDEST PUSH1 0x1F NOT DUP5 AND PUSH2 0x20A5 DUP8 PUSH2 0x1E77 JUMP JUMPDEST SWAP7 POP PUSH2 0x20B0 DUP7 PUSH2 0x1E77 JUMP JUMPDEST PUSH1 0x0 JUMPDEST DUP3 DUP2 LT ISZERO PUSH2 0x20D8 JUMPI DUP5 DUP10 ADD SLOAD DUP3 SSTORE PUSH1 0x1 DUP3 ADD SWAP2 POP PUSH1 0x1 DUP6 ADD SWAP5 POP PUSH1 0x20 DUP2 ADD SWAP1 POP PUSH2 0x20B3 JUMP JUMPDEST DUP7 DUP4 LT ISZERO PUSH2 0x20F5 JUMPI DUP5 DUP10 ADD SLOAD PUSH2 0x20F1 PUSH1 0x1F DUP10 AND DUP3 PUSH2 0x1FE9 JUMP JUMPDEST DUP4 SSTORE POP JUMPDEST PUSH1 0x1 PUSH1 0x2 DUP9 MUL ADD DUP9 SSTORE POP POP POP JUMPDEST POP POP POP POP POP POP JUMPDEST JUMP JUMPDEST PUSH1 0x0 PUSH2 0x2116 DUP3 PUSH2 0x179F JUMP JUMPDEST SWAP2 POP PUSH32 0xFFFFFFFFFFFFFFFFFFFFFFFFFFFFFFFFFFFFFFFFFFFFFFFFFFFFFFFFFFFFFFFF DUP3 SUB PUSH2 0x2148 JUMPI PUSH2 0x2147 PUSH2 0x1D4A JUMP JUMPDEST JUMPDEST PUSH1 0x1 DUP3 ADD SWAP1 POP SWAP2 SWAP1 POP JUMP JUMPDEST PUSH2 0x215C DUP3 PUSH2 0x17B8 JUMP JUMPDEST PUSH8 0xFFFFFFFFFFFFFFFF DUP2 GT ISZERO PUSH2 0x2175 JUMPI PUSH2 0x2174 PUSH2 0x1B34 JUMP JUMPDEST JUMPDEST PUSH2 0x217F DUP3 SLOAD PUSH2 0x1D19 JUMP JUMPDEST PUSH2 0x218A DUP3 DUP3 DUP6 PUSH2 0x1F96 JUMP JUMPDEST PUSH1 0x0 PUSH1 0x20 SWAP1 POP PUSH1 0x1F DUP4 GT PUSH1 0x1 DUP2 EQ PUSH2 0x21BD JUMPI PUSH1 0x0 DUP5 ISZERO PUSH2 0x21AB JUMPI DUP3 DUP8 ADD MLOAD SWAP1 POP JUMPDEST PUSH2 0x21B5 DUP6 DUP3 PUSH2 0x2007 JUMP JUMPDEST DUP7 SSTORE POP PUSH2 0x221D JUMP JUMPDEST PUSH1 0x1F NOT DUP5 AND PUSH2 0x21CB DUP7 PUSH2 0x1E77 JUMP JUMPDEST PUSH1 0x0 JUMPDEST DUP3 DUP2 LT ISZERO PUSH2 0x21F3 JUMPI DUP5 DUP10 ADD MLOAD DUP3 SSTORE PUSH1 0x1 DUP3 ADD SWAP2 POP PUSH1 0x20 DUP6 ADD SWAP5 POP PUSH1 0x20 DUP2 ADD SWAP1 POP PUSH2 0x21CE JUMP JUMPDEST DUP7 DUP4 LT ISZERO PUSH2 0x2210 JUMPI DUP5 DUP10 ADD MLOAD PUSH2 0x220C PUSH1 0x1F DUP10 AND DUP3 PUSH2 0x1FE9 JUMP JUMPDEST DUP4 SSTORE POP JUMPDEST PUSH1 0x1 PUSH1 0x2 DUP9 MUL ADD DUP9 SSTORE POP POP POP JUMPDEST POP POP POP POP POP POP JUMP INVALID LOG2 PUSH5 0x6970667358 0x22 SLT KECCAK256 DUP11 0xBA 0x4D GAS 0xAF PC SAR 0xE4 0xCB 0x4C 0xBE MOD 0xBD 0x21 SUB 0xDE 0xB8 SSTORE BYTE 0xDB 0xDB 0xB1 PUSH2 0xF900 0xC9 SWAP11 0xD8 NUMBER DUP8 MUL 0x4C PUSH5 0x736F6C6343 STOP ADDMOD 0xF STOP CALLER "
				},
				"gasEstimates": {
					"creation": {
						"codeDepositCost": "1759000",
						"executionCost": "1848",
						"totalCost": "1760848"
					},
					"external": {
						"createCrowdfunding(string,address,string)": "infinite",
						"getCrowdfundingByStatus(uint256)": "infinite",
						"getMyCrowdfunding(address)": "infinite",
						"list(uint256)": "infinite",
						"setStatus(uint256)": "infinite"
					}
				},
				"methodIdentifiers": {
					"createCrowdfunding(string,address,string)": "a97af4d5",
					"getCrowdfundingByStatus(uint256)": "904cc175",
					"getMyCrowdfunding(address)": "377e6ff7",
					"list(uint256)": "80c9419e",
					"setStatus(uint256)": "69ba1a75"
				}
			},
			"storageLayout": {
				"storage": [
					{
						"astId": 3,
						"contract": "crowdfunding.sol:CrowdfundingContract",
						"label": "No",
						"offset": 0,
						"slot": "0",
						"type": "t_uint256"
					},
					{
						"astId": 24,
						"contract": "crowdfunding.sol:CrowdfundingContract",
						"label": "list",
						"offset": 0,
						"slot": "1",
						"type": "t_array(t_struct(Crowdfunding)20_storage)dyn_storage"
					},
					{
						"astId": 30,
						"contract": "crowdfunding.sol:CrowdfundingContract",
						"label": "filterDataByStatus",
						"offset": 0,
						"slot": "2",
						"type": "t_mapping(t_uint256,t_array(t_struct(Crowdfunding)20_storage)dyn_storage)"
					},
					{
						"astId": 36,
						"contract": "crowdfunding.sol:CrowdfundingContract",
						"label": "myCrowdfunding",
						"offset": 0,
						"slot": "3",
						"type": "t_mapping(t_address,t_array(t_struct(Crowdfunding)20_storage)dyn_storage)"
					}
				],
				"types": {
					"t_address": {
						"encoding": "inplace",
						"label": "address",
						"numberOfBytes": "20"
					},
					"t_array(t_struct(Crowdfunding)20_storage)dyn_storage": {
						"base": "t_struct(Crowdfunding)20_storage",
						"encoding": "dynamic_array",
						"label": "struct CrowdfundingContract.Crowdfunding[]",
						"numberOfBytes": "32"
					},
					"t_mapping(t_address,t_array(t_struct(Crowdfunding)20_storage)dyn_storage)": {
						"encoding": "mapping",
						"key": "t_address",
						"label": "mapping(address => struct CrowdfundingContract.Crowdfunding[])",
						"numberOfBytes": "32",
						"value": "t_array(t_struct(Crowdfunding)20_storage)dyn_storage"
					},
					"t_mapping(t_uint256,t_array(t_struct(Crowdfunding)20_storage)dyn_storage)": {
						"encoding": "mapping",
						"key": "t_uint256",
						"label": "mapping(uint256 => struct CrowdfundingContract.Crowdfunding[])",
						"numberOfBytes": "32",
						"value": "t_array(t_struct(Crowdfunding)20_storage)dyn_storage"
					},
					"t_string_storage": {
						"encoding": "bytes",
						"label": "string",
						"numberOfBytes": "32"
					},
					"t_struct(Crowdfunding)20_storage": {
						"encoding": "inplace",
						"label": "struct CrowdfundingContract.Crowdfunding",
						"members": [
							{
								"astId": 5,
								"contract": "crowdfunding.sol:CrowdfundingContract",
								"label": "num",
								"offset": 0,
								"slot": "0",
								"type": "t_uint256"
							},
							{
								"astId": 7,
								"contract": "crowdfunding.sol:CrowdfundingContract",
								"label": "title",
								"offset": 0,
								"slot": "1",
								"type": "t_string_storage"
							},
							{
								"astId": 9,
								"contract": "crowdfunding.sol:CrowdfundingContract",
								"label": "status",
								"offset": 0,
								"slot": "2",
								"type": "t_uint256"
							},
							{
								"astId": 11,
								"contract": "crowdfunding.sol:CrowdfundingContract",
								"label": "creator",
								"offset": 0,
								"slot": "3",
								"type": "t_address"
							},
							{
								"astId": 13,
								"contract": "crowdfunding.sol:CrowdfundingContract",
								"label": "recipient",
								"offset": 0,
								"slot": "4",
								"type": "t_address"
							},
							{
								"astId": 15,
								"contract": "crowdfunding.sol:CrowdfundingContract",
								"label": "joinNum",
								"offset": 0,
								"slot": "5",
								"type": "t_uint256"
							},
							{
								"astId": 17,
								"contract": "crowdfunding.sol:CrowdfundingContract",
								"label": "expectAmout",
								"offset": 0,
								"slot": "6",
								"type": "t_string_storage"
							},
							{
								"astId": 19,
								"contract": "crowdfunding.sol:CrowdfundingContract",
								"label": "actualAmount",
								"offset": 0,
								"slot": "7",
								"type": "t_string_storage"
							}
						],
						"numberOfBytes": "256"
					},
					"t_uint256": {
						"encoding": "inplace",
						"label": "uint256",
						"numberOfBytes": "32"
					}
				}
			},
			"userdoc": {
				"kind": "user",
				"methods": {},
				"version": 1
			}
		}
	}
}