{
	"functionReturns.sol": {
		"testFunctionReturns": {
			"abi": [
				{
					"inputs": [],
					"name": "f1",
					"outputs": [
						{
							"internalType": "uint256",
							"name": "",
							"type": "uint256"
						},
						{
							"internalType": "bool",
							"name": "",
							"type": "bool"
						}
					],
					"stateMutability": "pure",
					"type": "function"
				},
				{
					"inputs": [],
					"name": "f2",
					"outputs": [
						{
							"internalType": "uint256",
							"name": "u",
							"type": "uint256"
						},
						{
							"internalType": "bool",
							"name": "b",
							"type": "bool"
						}
					],
					"stateMutability": "pure",
					"type": "function"
				},
				{
					"inputs": [],
					"name": "f3",
					"outputs": [
						{
							"internalType": "uint256",
							"name": "u",
							"type": "uint256"
						},
						{
							"internalType": "bool",
							"name": "b",
							"type": "bool"
						}
					],
					"stateMutability": "pure",
					"type": "function"
				}
			],
			"devdoc": {
				"kind": "dev",
				"methods": {},
				"version": 1
			},
			"evm": {
				"assembly": "    /* \"functionReturns.sol\":93:403  contract testFunctionReturns {... */\n  mstore(0x40, 0x80)\n  callvalue\n  dup1\n  iszero\n  tag_1\n  jumpi\n  0x00\n  dup1\n  revert\ntag_1:\n  pop\n  dataSize(sub_0)\n  dup1\n  dataOffset(sub_0)\n  0x00\n  codecopy\n  0x00\n  return\nstop\n\nsub_0: assembly {\n        /* \"functionReturns.sol\":93:403  contract testFunctionReturns {... */\n      mstore(0x40, 0x80)\n      callvalue\n      dup1\n      iszero\n      tag_1\n      jumpi\n      0x00\n      dup1\n      revert\n    tag_1:\n      pop\n      jumpi(tag_2, lt(calldatasize, 0x04))\n      shr(0xe0, calldataload(0x00))\n      dup1\n      0x9942ec6f\n      eq\n      tag_3\n      jumpi\n      dup1\n      0xaaf05f3d\n      eq\n      tag_4\n      jumpi\n      dup1\n      0xc27fc305\n      eq\n      tag_5\n      jumpi\n    tag_2:\n      0x00\n      dup1\n      revert\n        /* \"functionReturns.sol\":216:300  function f2() public pure returns (uint u,bool b){... */\n    tag_3:\n      tag_6\n      tag_7\n      jump\t// in\n    tag_6:\n      mload(0x40)\n      tag_8\n      swap3\n      swap2\n      swap1\n      tag_9\n      jump\t// in\n    tag_8:\n      mload(0x40)\n      dup1\n      swap2\n      sub\n      swap1\n      return\n        /* \"functionReturns.sol\":308:400  function f3() public pure returns (uint u,bool b){... */\n    tag_4:\n      tag_10\n      tag_11\n      jump\t// in\n    tag_10:\n      mload(0x40)\n      tag_12\n      swap3\n      swap2\n      swap1\n      tag_9\n      jump\t// in\n    tag_12:\n      mload(0x40)\n      dup1\n      swap2\n      sub\n      swap1\n      return\n        /* \"functionReturns.sol\":129:208  function f1() public pure returns (uint,bool){... */\n    tag_5:\n      tag_13\n      tag_14\n      jump\t// in\n    tag_13:\n      mload(0x40)\n      tag_15\n      swap3\n      swap2\n      swap1\n      tag_9\n      jump\t// in\n    tag_15:\n      mload(0x40)\n      dup1\n      swap2\n      sub\n      swap1\n      return\n        /* \"functionReturns.sol\":216:300  function f2() public pure returns (uint u,bool b){... */\n    tag_7:\n        /* \"functionReturns.sol\":251:257  uint u */\n      0x00\n        /* \"functionReturns.sol\":258:264  bool b */\n      dup1\n        /* \"functionReturns.sol\":284:285  2 */\n      0x02\n        /* \"functionReturns.sol\":286:291  false */\n      0x00\n        /* \"functionReturns.sol\":276:292  return (2,false) */\n      swap2\n      pop\n      swap2\n      pop\n        /* \"functionReturns.sol\":216:300  function f2() public pure returns (uint u,bool b){... */\n      swap1\n      swap2\n      jump\t// out\n        /* \"functionReturns.sol\":308:400  function f3() public pure returns (uint u,bool b){... */\n    tag_11:\n        /* \"functionReturns.sol\":343:349  uint u */\n      0x00\n        /* \"functionReturns.sol\":350:356  bool b */\n      dup1\n        /* \"functionReturns.sol\":372:373  3 */\n      0x03\n        /* \"functionReturns.sol\":368:373  u = 3 */\n      swap2\n      pop\n        /* \"functionReturns.sol\":388:392  true */\n      0x01\n        /* \"functionReturns.sol\":384:392  b = true */\n      swap1\n      pop\n        /* \"functionReturns.sol\":308:400  function f3() public pure returns (uint u,bool b){... */\n      swap1\n      swap2\n      jump\t// out\n        /* \"functionReturns.sol\":129:208  function f1() public pure returns (uint,bool){... */\n    tag_14:\n        /* \"functionReturns.sol\":164:168  uint */\n      0x00\n        /* \"functionReturns.sol\":169:173  bool */\n      dup1\n        /* \"functionReturns.sol\":193:194  1 */\n      0x01\n        /* \"functionReturns.sol\":195:199  true */\n      dup1\n        /* \"functionReturns.sol\":185:200  return (1,true) */\n      swap2\n      pop\n      swap2\n      pop\n        /* \"functionReturns.sol\":129:208  function f1() public pure returns (uint,bool){... */\n      swap1\n      swap2\n      jump\t// out\n        /* \"#utility.yul\":7:84   */\n    tag_19:\n        /* \"#utility.yul\":44:51   */\n      0x00\n        /* \"#utility.yul\":73:78   */\n      dup2\n        /* \"#utility.yul\":62:78   */\n      swap1\n      pop\n        /* \"#utility.yul\":7:84   */\n      swap2\n      swap1\n      pop\n      jump\t// out\n        /* \"#utility.yul\":90:208   */\n    tag_20:\n        /* \"#utility.yul\":177:201   */\n      tag_26\n        /* \"#utility.yul\":195:200   */\n      dup2\n        /* \"#utility.yul\":177:201   */\n      tag_19\n      jump\t// in\n    tag_26:\n        /* \"#utility.yul\":172:175   */\n      dup3\n        /* \"#utility.yul\":165:202   */\n      mstore\n        /* \"#utility.yul\":90:208   */\n      pop\n      pop\n      jump\t// out\n        /* \"#utility.yul\":214:304   */\n    tag_21:\n        /* \"#utility.yul\":248:255   */\n      0x00\n        /* \"#utility.yul\":291:296   */\n      dup2\n        /* \"#utility.yul\":284:297   */\n      iszero\n        /* \"#utility.yul\":277:298   */\n      iszero\n        /* \"#utility.yul\":266:298   */\n      swap1\n      pop\n        /* \"#utility.yul\":214:304   */\n      swap2\n      swap1\n      pop\n      jump\t// out\n        /* \"#utility.yul\":310:419   */\n    tag_22:\n        /* \"#utility.yul\":391:412   */\n      tag_29\n        /* \"#utility.yul\":406:411   */\n      dup2\n        /* \"#utility.yul\":391:412   */\n      tag_21\n      jump\t// in\n    tag_29:\n        /* \"#utility.yul\":386:389   */\n      dup3\n        /* \"#utility.yul\":379:413   */\n      mstore\n        /* \"#utility.yul\":310:419   */\n      pop\n      pop\n      jump\t// out\n        /* \"#utility.yul\":425:745   */\n    tag_9:\n        /* \"#utility.yul\":540:544   */\n      0x00\n        /* \"#utility.yul\":578:580   */\n      0x40\n        /* \"#utility.yul\":567:576   */\n      dup3\n        /* \"#utility.yul\":563:581   */\n      add\n        /* \"#utility.yul\":555:581   */\n      swap1\n      pop\n        /* \"#utility.yul\":591:662   */\n      tag_31\n        /* \"#utility.yul\":659:660   */\n      0x00\n        /* \"#utility.yul\":648:657   */\n      dup4\n        /* \"#utility.yul\":644:661   */\n      add\n        /* \"#utility.yul\":635:641   */\n      dup6\n        /* \"#utility.yul\":591:662   */\n      tag_20\n      jump\t// in\n    tag_31:\n        /* \"#utility.yul\":672:738   */\n      tag_32\n        /* \"#utility.yul\":734:736   */\n      0x20\n        /* \"#utility.yul\":723:732   */\n      dup4\n        /* \"#utility.yul\":719:737   */\n      add\n        /* \"#utility.yul\":710:716   */\n      dup5\n        /* \"#utility.yul\":672:738   */\n      tag_22\n      jump\t// in\n    tag_32:\n        /* \"#utility.yul\":425:745   */\n      swap4\n      swap3\n      pop\n      pop\n      pop\n      jump\t// out\n\n    auxdata: 0xa2646970667358221220a2c032e3639b59b06aa91499f847e824047f0415458c3a11bf41bb55539f03c764736f6c634300080f0033\n}\n",
				"bytecode": {
					"linkReferences": {},
					"object": "608060405234801561001057600080fd5b50610162806100206000396000f3fe608060405234801561001057600080fd5b50600436106100415760003560e01c80639942ec6f14610046578063aaf05f3d14610065578063c27fc30514610084575b600080fd5b61004e6100a3565b60405161005c929190610103565b60405180910390f35b61006d6100b2565b60405161007b929190610103565b60405180910390f35b61008c6100c1565b60405161009a929190610103565b60405180910390f35b60008060026000915091509091565b60008060039150600190509091565b600080600180915091509091565b6000819050919050565b6100e2816100cf565b82525050565b60008115159050919050565b6100fd816100e8565b82525050565b600060408201905061011860008301856100d9565b61012560208301846100f4565b939250505056fea2646970667358221220a2c032e3639b59b06aa91499f847e824047f0415458c3a11bf41bb55539f03c764736f6c634300080f0033",
					"opcodes": "PUSH1 0x80 PUSH1 0x40 MSTORE CALLVALUE DUP1 ISZERO PUSH2 0x10 JUMPI PUSH1 0x0 DUP1 REVERT JUMPDEST POP PUSH2 0x162 DUP1 PUSH2 0x20 PUSH1 0x0 CODECOPY PUSH1 0x0 RETURN INVALID PUSH1 0x80 PUSH1 0x40 MSTORE CALLVALUE DUP1 ISZERO PUSH2 0x10 JUMPI PUSH1 0x0 DUP1 REVERT JUMPDEST POP PUSH1 0x4 CALLDATASIZE LT PUSH2 0x41 JUMPI PUSH1 0x0 CALLDATALOAD PUSH1 0xE0 SHR DUP1 PUSH4 0x9942EC6F EQ PUSH2 0x46 JUMPI DUP1 PUSH4 0xAAF05F3D EQ PUSH2 0x65 JUMPI DUP1 PUSH4 0xC27FC305 EQ PUSH2 0x84 JUMPI JUMPDEST PUSH1 0x0 DUP1 REVERT JUMPDEST PUSH2 0x4E PUSH2 0xA3 JUMP JUMPDEST PUSH1 0x40 MLOAD PUSH2 0x5C SWAP3 SWAP2 SWAP1 PUSH2 0x103 JUMP JUMPDEST PUSH1 0x40 MLOAD DUP1 SWAP2 SUB SWAP1 RETURN JUMPDEST PUSH2 0x6D PUSH2 0xB2 JUMP JUMPDEST PUSH1 0x40 MLOAD PUSH2 0x7B SWAP3 SWAP2 SWAP1 PUSH2 0x103 JUMP JUMPDEST PUSH1 0x40 MLOAD DUP1 SWAP2 SUB SWAP1 RETURN JUMPDEST PUSH2 0x8C PUSH2 0xC1 JUMP JUMPDEST PUSH1 0x40 MLOAD PUSH2 0x9A SWAP3 SWAP2 SWAP1 PUSH2 0x103 JUMP JUMPDEST PUSH1 0x40 MLOAD DUP1 SWAP2 SUB SWAP1 RETURN JUMPDEST PUSH1 0x0 DUP1 PUSH1 0x2 PUSH1 0x0 SWAP2 POP SWAP2 POP SWAP1 SWAP2 JUMP JUMPDEST PUSH1 0x0 DUP1 PUSH1 0x3 SWAP2 POP PUSH1 0x1 SWAP1 POP SWAP1 SWAP2 JUMP JUMPDEST PUSH1 0x0 DUP1 PUSH1 0x1 DUP1 SWAP2 POP SWAP2 POP SWAP1 SWAP2 JUMP JUMPDEST PUSH1 0x0 DUP2 SWAP1 POP SWAP2 SWAP1 POP JUMP JUMPDEST PUSH2 0xE2 DUP2 PUSH2 0xCF JUMP JUMPDEST DUP3 MSTORE POP POP JUMP JUMPDEST PUSH1 0x0 DUP2 ISZERO ISZERO SWAP1 POP SWAP2 SWAP1 POP JUMP JUMPDEST PUSH2 0xFD DUP2 PUSH2 0xE8 JUMP JUMPDEST DUP3 MSTORE POP POP JUMP JUMPDEST PUSH1 0x0 PUSH1 0x40 DUP3 ADD SWAP1 POP PUSH2 0x118 PUSH1 0x0 DUP4 ADD DUP6 PUSH2 0xD9 JUMP JUMPDEST PUSH2 0x125 PUSH1 0x20 DUP4 ADD DUP5 PUSH2 0xF4 JUMP JUMPDEST SWAP4 SWAP3 POP POP POP JUMP INVALID LOG2 PUSH5 0x6970667358 0x22 SLT KECCAK256 LOG2 0xC0 ORIGIN 0xE3 PUSH4 0x9B59B06A 0xA9 EQ SWAP10 0xF8 SELFBALANCE 0xE8 0x24 DIV PUSH32 0x415458C3A11BF41BB55539F03C764736F6C634300080F003300000000000000 "
				},
				"gasEstimates": {
					"creation": {
						"codeDepositCost": "70800",
						"executionCost": "123",
						"totalCost": "70923"
					},
					"external": {
						"f1()": "479",
						"f2()": "435",
						"f3()": "457"
					}
				},
				"methodIdentifiers": {
					"f1()": "c27fc305",
					"f2()": "9942ec6f",
					"f3()": "aaf05f3d"
				}
			},
			"storageLayout": {
				"storage": [],
				"types": null
			},
			"userdoc": {
				"kind": "user",
				"methods": {},
				"version": 1
			}
		}
	}
}