{
	"todoList.sol": {
		"TodoListData": {
			"abi": [
				{
					"inputs": [
						{
							"internalType": "uint256",
							"name": "_id",
							"type": "uint256"
						},
						{
							"internalType": "string",
							"name": "_val",
							"type": "string"
						}
					],
					"name": "addTask",
					"outputs": [],
					"stateMutability": "nonpayable",
					"type": "function"
				},
				{
					"inputs": [],
					"name": "getList",
					"outputs": [
						{
							"components": [
								{
									"internalType": "uint256",
									"name": "id",
									"type": "uint256"
								},
								{
									"internalType": "string",
									"name": "value",
									"type": "string"
								}
							],
							"internalType": "struct TodoListData.Task[]",
							"name": "",
							"type": "tuple[]"
						}
					],
					"stateMutability": "view",
					"type": "function"
				},
				{
					"inputs": [
						{
							"internalType": "uint256",
							"name": "",
							"type": "uint256"
						}
					],
					"name": "list",
					"outputs": [
						{
							"internalType": "uint256",
							"name": "id",
							"type": "uint256"
						},
						{
							"internalType": "string",
							"name": "value",
							"type": "string"
						}
					],
					"stateMutability": "view",
					"type": "function"
				}
			],
			"devdoc": {
				"kind": "dev",
				"methods": {},
				"version": 1
			},
			"evm": {
				"assembly": "    /* \"todoList.sol\":61:383  contract TodoListData {\r... */\n  mstore(0x40, 0x80)\n  callvalue\n  dup1\n  iszero\n  tag_1\n  jumpi\n  0x00\n  dup1\n  revert\ntag_1:\n  pop\n  dataSize(sub_0)\n  dup1\n  dataOffset(sub_0)\n  0x00\n  codecopy\n  0x00\n  return\nstop\n\nsub_0: assembly {\n        /* \"todoList.sol\":61:383  contract TodoListData {\r... */\n      mstore(0x40, 0x80)\n      callvalue\n      dup1\n      iszero\n      tag_1\n      jumpi\n      0x00\n      dup1\n      revert\n    tag_1:\n      pop\n      jumpi(tag_2, lt(calldatasize, 0x04))\n      shr(0xe0, calldataload(0x00))\n      dup1\n      0x58fcbbfd\n      eq\n      tag_3\n      jumpi\n      dup1\n      0x80c9419e\n      eq\n      tag_4\n      jumpi\n      dup1\n      0x942b765a\n      eq\n      tag_5\n      jumpi\n    tag_2:\n      0x00\n      dup1\n      revert\n        /* \"todoList.sol\":186:286  function addTask(uint _id, string memory _val) external {\r... */\n    tag_3:\n      tag_6\n      0x04\n      dup1\n      calldatasize\n      sub\n      dup2\n      add\n      swap1\n      tag_7\n      swap2\n      swap1\n      tag_8\n      jump\t// in\n    tag_7:\n      tag_9\n      jump\t// in\n    tag_6:\n      stop\n        /* \"todoList.sol\":159:177  Task[] public list */\n    tag_4:\n      tag_10\n      0x04\n      dup1\n      calldatasize\n      sub\n      dup2\n      add\n      swap1\n      tag_11\n      swap2\n      swap1\n      tag_12\n      jump\t// in\n    tag_11:\n      tag_13\n      jump\t// in\n    tag_10:\n      mload(0x40)\n      tag_14\n      swap3\n      swap2\n      swap1\n      tag_15\n      jump\t// in\n    tag_14:\n      mload(0x40)\n      dup1\n      swap2\n      sub\n      swap1\n      return\n        /* \"todoList.sol\":294:380  function getList () public view returns (Task[] memory) {\r... */\n    tag_5:\n      tag_16\n      tag_17\n      jump\t// in\n    tag_16:\n      mload(0x40)\n      tag_18\n      swap2\n      swap1\n      tag_19\n      jump\t// in\n    tag_18:\n      mload(0x40)\n      dup1\n      swap2\n      sub\n      swap1\n      return\n        /* \"todoList.sol\":186:286  function addTask(uint _id, string memory _val) external {\r... */\n    tag_9:\n        /* \"todoList.sol\":253:257  list */\n      0x00\n        /* \"todoList.sol\":263:277  Task(_id,_val) */\n      mload(0x40)\n      dup1\n      0x40\n      add\n      0x40\n      mstore\n      dup1\n        /* \"todoList.sol\":268:271  _id */\n      dup5\n        /* \"todoList.sol\":263:277  Task(_id,_val) */\n      dup2\n      mstore\n      0x20\n      add\n        /* \"todoList.sol\":272:276  _val */\n      dup4\n        /* \"todoList.sol\":263:277  Task(_id,_val) */\n      dup2\n      mstore\n      pop\n        /* \"todoList.sol\":253:278  list.push(Task(_id,_val)) */\n      swap1\n      dup1\n      0x01\n      dup2\n      sload\n      add\n      dup1\n      dup3\n      sstore\n      dup1\n      swap2\n      pop\n      pop\n      0x01\n      swap1\n      sub\n      swap1\n      0x00\n      mstore\n      keccak256(0x00, 0x20)\n      swap1\n      0x02\n      mul\n      add\n      0x00\n      swap1\n      swap2\n      swap1\n      swap2\n      swap1\n      swap2\n      pop\n      0x00\n      dup3\n      add\n      mload\n      dup2\n      0x00\n      add\n      sstore\n      0x20\n      dup3\n      add\n      mload\n      dup2\n      0x01\n      add\n      swap1\n      dup1\n      mload\n      swap1\n      0x20\n      add\n      swap1\n      tag_22\n      swap3\n      swap2\n      swap1\n      tag_23\n      jump\t// in\n    tag_22:\n      pop\n      pop\n      pop\n        /* \"todoList.sol\":186:286  function addTask(uint _id, string memory _val) external {\r... */\n      pop\n      pop\n      jump\t// out\n        /* \"todoList.sol\":159:177  Task[] public list */\n    tag_13:\n      0x00\n      dup2\n      dup2\n      sload\n      dup2\n      lt\n      tag_24\n      jumpi\n      0x00\n      dup1\n      revert\n    tag_24:\n      swap1\n      0x00\n      mstore\n      keccak256(0x00, 0x20)\n      swap1\n      0x02\n      mul\n      add\n      0x00\n      swap2\n      pop\n      swap1\n      pop\n      dup1\n      0x00\n      add\n      sload\n      swap1\n      dup1\n      0x01\n      add\n      dup1\n      sload\n      tag_26\n      swap1\n      tag_27\n      jump\t// in\n    tag_26:\n      dup1\n      0x1f\n      add\n      0x20\n      dup1\n      swap2\n      div\n      mul\n      0x20\n      add\n      mload(0x40)\n      swap1\n      dup2\n      add\n      0x40\n      mstore\n      dup1\n      swap3\n      swap2\n      swap1\n      dup2\n      dup2\n      mstore\n      0x20\n      add\n      dup3\n      dup1\n      sload\n      tag_28\n      swap1\n      tag_27\n      jump\t// in\n    tag_28:\n      dup1\n      iszero\n      tag_29\n      jumpi\n      dup1\n      0x1f\n      lt\n      tag_30\n      jumpi\n      0x0100\n      dup1\n      dup4\n      sload\n      div\n      mul\n      dup4\n      mstore\n      swap2\n      0x20\n      add\n      swap2\n      jump(tag_29)\n    tag_30:\n      dup3\n      add\n      swap2\n      swap1\n      0x00\n      mstore\n      keccak256(0x00, 0x20)\n      swap1\n    tag_31:\n      dup2\n      sload\n      dup2\n      mstore\n      swap1\n      0x01\n      add\n      swap1\n      0x20\n      add\n      dup1\n      dup4\n      gt\n      tag_31\n      jumpi\n      dup3\n      swap1\n      sub\n      0x1f\n      and\n      dup3\n      add\n      swap2\n    tag_29:\n      pop\n      pop\n      pop\n      pop\n      pop\n      swap1\n      pop\n      dup3\n      jump\t// out\n        /* \"todoList.sol\":294:380  function getList () public view returns (Task[] memory) {\r... */\n    tag_17:\n        /* \"todoList.sol\":335:348  Task[] memory */\n      0x60\n        /* \"todoList.sol\":368:372  list */\n      0x00\n        /* \"todoList.sol\":361:372  return list */\n      dup1\n      sload\n      dup1\n      0x20\n      mul\n      0x20\n      add\n      mload(0x40)\n      swap1\n      dup2\n      add\n      0x40\n      mstore\n      dup1\n      swap3\n      swap2\n      swap1\n      dup2\n      dup2\n      mstore\n      0x20\n      add\n      0x00\n      swap1\n    tag_33:\n      dup3\n      dup3\n      lt\n      iszero\n      tag_34\n      jumpi\n      dup4\n      dup3\n      swap1\n      0x00\n      mstore\n      keccak256(0x00, 0x20)\n      swap1\n      0x02\n      mul\n      add\n      mload(0x40)\n      dup1\n      0x40\n      add\n      0x40\n      mstore\n      swap1\n      dup2\n      0x00\n      dup3\n      add\n      sload\n      dup2\n      mstore\n      0x20\n      add\n      0x01\n      dup3\n      add\n      dup1\n      sload\n      tag_36\n      swap1\n      tag_27\n      jump\t// in\n    tag_36:\n      dup1\n      0x1f\n      add\n      0x20\n      dup1\n      swap2\n      div\n      mul\n      0x20\n      add\n      mload(0x40)\n      swap1\n      dup2\n      add\n      0x40\n      mstore\n      dup1\n      swap3\n      swap2\n      swap1\n      dup2\n      dup2\n      mstore\n      0x20\n      add\n      dup3\n      dup1\n      sload\n      tag_37\n      swap1\n      tag_27\n      jump\t// in\n    tag_37:\n      dup1\n      iszero\n      tag_38\n      jumpi\n      dup1\n      0x1f\n      lt\n      tag_39\n      jumpi\n      0x0100\n      dup1\n      dup4\n      sload\n      div\n      mul\n      dup4\n      mstore\n      swap2\n      0x20\n      add\n      swap2\n      jump(tag_38)\n    tag_39:\n      dup3\n      add\n      swap2\n      swap1\n      0x00\n      mstore\n      keccak256(0x00, 0x20)\n      swap1\n    tag_40:\n      dup2\n      sload\n      dup2\n      mstore\n      swap1\n      0x01\n      add\n      swap1\n      0x20\n      add\n      dup1\n      dup4\n      gt\n      tag_40\n      jumpi\n      dup3\n      swap1\n      sub\n      0x1f\n      and\n      dup3\n      add\n      swap2\n    tag_38:\n      pop\n      pop\n      pop\n      pop\n      pop\n      dup2\n      mstore\n      pop\n      pop\n      dup2\n      mstore\n      0x20\n      add\n      swap1\n      0x01\n      add\n      swap1\n      jump(tag_33)\n    tag_34:\n      pop\n      pop\n      pop\n      pop\n      swap1\n      pop\n        /* \"todoList.sol\":294:380  function getList () public view returns (Task[] memory) {\r... */\n      swap1\n      jump\t// out\n    tag_23:\n      dup3\n      dup1\n      sload\n      tag_41\n      swap1\n      tag_27\n      jump\t// in\n    tag_41:\n      swap1\n      0x00\n      mstore\n      keccak256(0x00, 0x20)\n      swap1\n      0x1f\n      add\n      0x20\n      swap1\n      div\n      dup2\n      add\n      swap3\n      dup3\n      tag_43\n      jumpi\n      0x00\n      dup6\n      sstore\n      jump(tag_42)\n    tag_43:\n      dup3\n      0x1f\n      lt\n      tag_44\n      jumpi\n      dup1\n      mload\n      not(0xff)\n      and\n      dup4\n      dup1\n      add\n      or\n      dup6\n      sstore\n      jump(tag_42)\n    tag_44:\n      dup3\n      dup1\n      add\n      0x01\n      add\n      dup6\n      sstore\n      dup3\n      iszero\n      tag_42\n      jumpi\n      swap2\n      dup3\n      add\n    tag_45:\n      dup3\n      dup2\n      gt\n      iszero\n      tag_46\n      jumpi\n      dup3\n      mload\n      dup3\n      sstore\n      swap2\n      0x20\n      add\n      swap2\n      swap1\n      0x01\n      add\n      swap1\n      jump(tag_45)\n    tag_46:\n    tag_42:\n      pop\n      swap1\n      pop\n      tag_47\n      swap2\n      swap1\n      tag_48\n      jump\t// in\n    tag_47:\n      pop\n      swap1\n      jump\t// out\n    tag_48:\n    tag_49:\n      dup1\n      dup3\n      gt\n      iszero\n      tag_50\n      jumpi\n      0x00\n      dup2\n      0x00\n      swap1\n      sstore\n      pop\n      0x01\n      add\n      jump(tag_49)\n    tag_50:\n      pop\n      swap1\n      jump\t// out\n        /* \"#utility.yul\":7:419   */\n    tag_52:\n        /* \"#utility.yul\":85:90   */\n      0x00\n        /* \"#utility.yul\":110:176   */\n      tag_54\n        /* \"#utility.yul\":126:175   */\n      tag_55\n        /* \"#utility.yul\":168:174   */\n      dup5\n        /* \"#utility.yul\":126:175   */\n      tag_56\n      jump\t// in\n    tag_55:\n        /* \"#utility.yul\":110:176   */\n      tag_57\n      jump\t// in\n    tag_54:\n        /* \"#utility.yul\":101:176   */\n      swap1\n      pop\n        /* \"#utility.yul\":199:205   */\n      dup3\n        /* \"#utility.yul\":192:197   */\n      dup2\n        /* \"#utility.yul\":185:206   */\n      mstore\n        /* \"#utility.yul\":237:241   */\n      0x20\n        /* \"#utility.yul\":230:235   */\n      dup2\n        /* \"#utility.yul\":226:242   */\n      add\n        /* \"#utility.yul\":275:278   */\n      dup5\n        /* \"#utility.yul\":266:272   */\n      dup5\n        /* \"#utility.yul\":261:264   */\n      dup5\n        /* \"#utility.yul\":257:273   */\n      add\n        /* \"#utility.yul\":254:279   */\n      gt\n        /* \"#utility.yul\":251:363   */\n      iszero\n      tag_58\n      jumpi\n        /* \"#utility.yul\":282:361   */\n      tag_59\n      tag_60\n      jump\t// in\n    tag_59:\n        /* \"#utility.yul\":251:363   */\n    tag_58:\n        /* \"#utility.yul\":372:413   */\n      tag_61\n        /* \"#utility.yul\":406:412   */\n      dup5\n        /* \"#utility.yul\":401:404   */\n      dup3\n        /* \"#utility.yul\":396:399   */\n      dup6\n        /* \"#utility.yul\":372:413   */\n      tag_62\n      jump\t// in\n    tag_61:\n        /* \"#utility.yul\":91:419   */\n      pop\n        /* \"#utility.yul\":7:419   */\n      swap4\n      swap3\n      pop\n      pop\n      pop\n      jump\t// out\n        /* \"#utility.yul\":439:779   */\n    tag_63:\n        /* \"#utility.yul\":495:500   */\n      0x00\n        /* \"#utility.yul\":544:547   */\n      dup3\n        /* \"#utility.yul\":537:541   */\n      0x1f\n        /* \"#utility.yul\":529:535   */\n      dup4\n        /* \"#utility.yul\":525:542   */\n      add\n        /* \"#utility.yul\":521:548   */\n      slt\n        /* \"#utility.yul\":511:633   */\n      tag_65\n      jumpi\n        /* \"#utility.yul\":552:631   */\n      tag_66\n      tag_67\n      jump\t// in\n    tag_66:\n        /* \"#utility.yul\":511:633   */\n    tag_65:\n        /* \"#utility.yul\":669:675   */\n      dup2\n        /* \"#utility.yul\":656:676   */\n      calldataload\n        /* \"#utility.yul\":694:773   */\n      tag_68\n        /* \"#utility.yul\":769:772   */\n      dup5\n        /* \"#utility.yul\":761:767   */\n      dup3\n        /* \"#utility.yul\":754:758   */\n      0x20\n        /* \"#utility.yul\":746:752   */\n      dup7\n        /* \"#utility.yul\":742:759   */\n      add\n        /* \"#utility.yul\":694:773   */\n      tag_52\n      jump\t// in\n    tag_68:\n        /* \"#utility.yul\":685:773   */\n      swap2\n      pop\n        /* \"#utility.yul\":501:779   */\n      pop\n        /* \"#utility.yul\":439:779   */\n      swap3\n      swap2\n      pop\n      pop\n      jump\t// out\n        /* \"#utility.yul\":785:924   */\n    tag_69:\n        /* \"#utility.yul\":831:836   */\n      0x00\n        /* \"#utility.yul\":869:875   */\n      dup2\n        /* \"#utility.yul\":856:876   */\n      calldataload\n        /* \"#utility.yul\":847:876   */\n      swap1\n      pop\n        /* \"#utility.yul\":885:918   */\n      tag_71\n        /* \"#utility.yul\":912:917   */\n      dup2\n        /* \"#utility.yul\":885:918   */\n      tag_72\n      jump\t// in\n    tag_71:\n        /* \"#utility.yul\":785:924   */\n      swap3\n      swap2\n      pop\n      pop\n      jump\t// out\n        /* \"#utility.yul\":930:1259   */\n    tag_12:\n        /* \"#utility.yul\":989:995   */\n      0x00\n        /* \"#utility.yul\":1038:1040   */\n      0x20\n        /* \"#utility.yul\":1026:1035   */\n      dup3\n        /* \"#utility.yul\":1017:1024   */\n      dup5\n        /* \"#utility.yul\":1013:1036   */\n      sub\n        /* \"#utility.yul\":1009:1041   */\n      slt\n        /* \"#utility.yul\":1006:1125   */\n      iszero\n      tag_74\n      jumpi\n        /* \"#utility.yul\":1044:1123   */\n      tag_75\n      tag_76\n      jump\t// in\n    tag_75:\n        /* \"#utility.yul\":1006:1125   */\n    tag_74:\n        /* \"#utility.yul\":1164:1165   */\n      0x00\n        /* \"#utility.yul\":1189:1242   */\n      tag_77\n        /* \"#utility.yul\":1234:1241   */\n      dup5\n        /* \"#utility.yul\":1225:1231   */\n      dup3\n        /* \"#utility.yul\":1214:1223   */\n      dup6\n        /* \"#utility.yul\":1210:1232   */\n      add\n        /* \"#utility.yul\":1189:1242   */\n      tag_69\n      jump\t// in\n    tag_77:\n        /* \"#utility.yul\":1179:1242   */\n      swap2\n      pop\n        /* \"#utility.yul\":1135:1252   */\n      pop\n        /* \"#utility.yul\":930:1259   */\n      swap3\n      swap2\n      pop\n      pop\n      jump\t// out\n        /* \"#utility.yul\":1265:1919   */\n    tag_8:\n        /* \"#utility.yul\":1343:1349   */\n      0x00\n        /* \"#utility.yul\":1351:1357   */\n      dup1\n        /* \"#utility.yul\":1400:1402   */\n      0x40\n        /* \"#utility.yul\":1388:1397   */\n      dup4\n        /* \"#utility.yul\":1379:1386   */\n      dup6\n        /* \"#utility.yul\":1375:1398   */\n      sub\n        /* \"#utility.yul\":1371:1403   */\n      slt\n        /* \"#utility.yul\":1368:1487   */\n      iszero\n      tag_79\n      jumpi\n        /* \"#utility.yul\":1406:1485   */\n      tag_80\n      tag_76\n      jump\t// in\n    tag_80:\n        /* \"#utility.yul\":1368:1487   */\n    tag_79:\n        /* \"#utility.yul\":1526:1527   */\n      0x00\n        /* \"#utility.yul\":1551:1604   */\n      tag_81\n        /* \"#utility.yul\":1596:1603   */\n      dup6\n        /* \"#utility.yul\":1587:1593   */\n      dup3\n        /* \"#utility.yul\":1576:1585   */\n      dup7\n        /* \"#utility.yul\":1572:1594   */\n      add\n        /* \"#utility.yul\":1551:1604   */\n      tag_69\n      jump\t// in\n    tag_81:\n        /* \"#utility.yul\":1541:1604   */\n      swap3\n      pop\n        /* \"#utility.yul\":1497:1614   */\n      pop\n        /* \"#utility.yul\":1681:1683   */\n      0x20\n        /* \"#utility.yul\":1670:1679   */\n      dup4\n        /* \"#utility.yul\":1666:1684   */\n      add\n        /* \"#utility.yul\":1653:1685   */\n      calldataload\n        /* \"#utility.yul\":1712:1730   */\n      0xffffffffffffffff\n        /* \"#utility.yul\":1704:1710   */\n      dup2\n        /* \"#utility.yul\":1701:1731   */\n      gt\n        /* \"#utility.yul\":1698:1815   */\n      iszero\n      tag_82\n      jumpi\n        /* \"#utility.yul\":1734:1813   */\n      tag_83\n      tag_84\n      jump\t// in\n    tag_83:\n        /* \"#utility.yul\":1698:1815   */\n    tag_82:\n        /* \"#utility.yul\":1839:1902   */\n      tag_85\n        /* \"#utility.yul\":1894:1901   */\n      dup6\n        /* \"#utility.yul\":1885:1891   */\n      dup3\n        /* \"#utility.yul\":1874:1883   */\n      dup7\n        /* \"#utility.yul\":1870:1892   */\n      add\n        /* \"#utility.yul\":1839:1902   */\n      tag_63\n      jump\t// in\n    tag_85:\n        /* \"#utility.yul\":1829:1902   */\n      swap2\n      pop\n        /* \"#utility.yul\":1624:1912   */\n      pop\n        /* \"#utility.yul\":1265:1919   */\n      swap3\n      pop\n      swap3\n      swap1\n      pop\n      jump\t// out\n        /* \"#utility.yul\":1925:2157   */\n    tag_86:\n        /* \"#utility.yul\":2032:2042   */\n      0x00\n        /* \"#utility.yul\":2067:2151   */\n      tag_88\n        /* \"#utility.yul\":2147:2150   */\n      dup4\n        /* \"#utility.yul\":2139:2145   */\n      dup4\n        /* \"#utility.yul\":2067:2151   */\n      tag_89\n      jump\t// in\n    tag_88:\n        /* \"#utility.yul\":2053:2151   */\n      swap1\n      pop\n        /* \"#utility.yul\":1925:2157   */\n      swap3\n      swap2\n      pop\n      pop\n      jump\t// out\n        /* \"#utility.yul\":2227:3290   */\n    tag_90:\n        /* \"#utility.yul\":2384:2387   */\n      0x00\n        /* \"#utility.yul\":2413:2486   */\n      tag_92\n        /* \"#utility.yul\":2480:2485   */\n      dup3\n        /* \"#utility.yul\":2413:2486   */\n      tag_93\n      jump\t// in\n    tag_92:\n        /* \"#utility.yul\":2502:2607   */\n      tag_94\n        /* \"#utility.yul\":2600:2606   */\n      dup2\n        /* \"#utility.yul\":2595:2598   */\n      dup6\n        /* \"#utility.yul\":2502:2607   */\n      tag_95\n      jump\t// in\n    tag_94:\n        /* \"#utility.yul\":2495:2607   */\n      swap4\n      pop\n        /* \"#utility.yul\":2633:2636   */\n      dup4\n        /* \"#utility.yul\":2678:2682   */\n      0x20\n        /* \"#utility.yul\":2670:2676   */\n      dup3\n        /* \"#utility.yul\":2666:2683   */\n      mul\n        /* \"#utility.yul\":2661:2664   */\n      dup6\n        /* \"#utility.yul\":2657:2684   */\n      add\n        /* \"#utility.yul\":2708:2783   */\n      tag_96\n        /* \"#utility.yul\":2777:2782   */\n      dup6\n        /* \"#utility.yul\":2708:2783   */\n      tag_97\n      jump\t// in\n    tag_96:\n        /* \"#utility.yul\":2806:2813   */\n      dup1\n        /* \"#utility.yul\":2837:2838   */\n      0x00\n        /* \"#utility.yul\":2822:3245   */\n    tag_98:\n        /* \"#utility.yul\":2847:2853   */\n      dup6\n        /* \"#utility.yul\":2844:2845   */\n      dup2\n        /* \"#utility.yul\":2841:2854   */\n      lt\n        /* \"#utility.yul\":2822:3245   */\n      iszero\n      tag_100\n      jumpi\n        /* \"#utility.yul\":2918:2927   */\n      dup5\n        /* \"#utility.yul\":2912:2916   */\n      dup5\n        /* \"#utility.yul\":2908:2928   */\n      sub\n        /* \"#utility.yul\":2903:2906   */\n      dup10\n        /* \"#utility.yul\":2896:2929   */\n      mstore\n        /* \"#utility.yul\":2969:2975   */\n      dup2\n        /* \"#utility.yul\":2963:2976   */\n      mload\n        /* \"#utility.yul\":2997:3099   */\n      tag_101\n        /* \"#utility.yul\":3094:3098   */\n      dup6\n        /* \"#utility.yul\":3079:3092   */\n      dup3\n        /* \"#utility.yul\":2997:3099   */\n      tag_86\n      jump\t// in\n    tag_101:\n        /* \"#utility.yul\":2989:3099   */\n      swap5\n      pop\n        /* \"#utility.yul\":3122:3201   */\n      tag_102\n        /* \"#utility.yul\":3194:3200   */\n      dup4\n        /* \"#utility.yul\":3122:3201   */\n      tag_103\n      jump\t// in\n    tag_102:\n        /* \"#utility.yul\":3112:3201   */\n      swap3\n      pop\n        /* \"#utility.yul\":3230:3234   */\n      0x20\n        /* \"#utility.yul\":3225:3228   */\n      dup11\n        /* \"#utility.yul\":3221:3235   */\n      add\n        /* \"#utility.yul\":3214:3235   */\n      swap10\n      pop\n        /* \"#utility.yul\":2882:3245   */\n      pop\n        /* \"#utility.yul\":2869:2870   */\n      0x01\n        /* \"#utility.yul\":2866:2867   */\n      dup2\n        /* \"#utility.yul\":2862:2871   */\n      add\n        /* \"#utility.yul\":2857:2871   */\n      swap1\n      pop\n        /* \"#utility.yul\":2822:3245   */\n      jump(tag_98)\n    tag_100:\n        /* \"#utility.yul\":2826:2840   */\n      pop\n        /* \"#utility.yul\":3261:3265   */\n      dup3\n        /* \"#utility.yul\":3254:3265   */\n      swap8\n      pop\n        /* \"#utility.yul\":3281:3284   */\n      dup8\n        /* \"#utility.yul\":3274:3284   */\n      swap6\n      pop\n        /* \"#utility.yul\":2389:3290   */\n      pop\n      pop\n      pop\n      pop\n      pop\n        /* \"#utility.yul\":2227:3290   */\n      swap3\n      swap2\n      pop\n      pop\n      jump\t// out\n        /* \"#utility.yul\":3296:3640   */\n    tag_104:\n        /* \"#utility.yul\":3374:3377   */\n      0x00\n        /* \"#utility.yul\":3402:3441   */\n      tag_106\n        /* \"#utility.yul\":3435:3440   */\n      dup3\n        /* \"#utility.yul\":3402:3441   */\n      tag_107\n      jump\t// in\n    tag_106:\n        /* \"#utility.yul\":3457:3518   */\n      tag_108\n        /* \"#utility.yul\":3511:3517   */\n      dup2\n        /* \"#utility.yul\":3506:3509   */\n      dup6\n        /* \"#utility.yul\":3457:3518   */\n      tag_109\n      jump\t// in\n    tag_108:\n        /* \"#utility.yul\":3450:3518   */\n      swap4\n      pop\n        /* \"#utility.yul\":3527:3579   */\n      tag_110\n        /* \"#utility.yul\":3572:3578   */\n      dup2\n        /* \"#utility.yul\":3567:3570   */\n      dup6\n        /* \"#utility.yul\":3560:3564   */\n      0x20\n        /* \"#utility.yul\":3553:3558   */\n      dup7\n        /* \"#utility.yul\":3549:3565   */\n      add\n        /* \"#utility.yul\":3527:3579   */\n      tag_111\n      jump\t// in\n    tag_110:\n        /* \"#utility.yul\":3604:3633   */\n      tag_112\n        /* \"#utility.yul\":3626:3632   */\n      dup2\n        /* \"#utility.yul\":3604:3633   */\n      tag_113\n      jump\t// in\n    tag_112:\n        /* \"#utility.yul\":3599:3602   */\n      dup5\n        /* \"#utility.yul\":3595:3634   */\n      add\n        /* \"#utility.yul\":3588:3634   */\n      swap2\n      pop\n        /* \"#utility.yul\":3378:3640   */\n      pop\n        /* \"#utility.yul\":3296:3640   */\n      swap3\n      swap2\n      pop\n      pop\n      jump\t// out\n        /* \"#utility.yul\":3646:4010   */\n    tag_114:\n        /* \"#utility.yul\":3734:3737   */\n      0x00\n        /* \"#utility.yul\":3762:3801   */\n      tag_116\n        /* \"#utility.yul\":3795:3800   */\n      dup3\n        /* \"#utility.yul\":3762:3801   */\n      tag_107\n      jump\t// in\n    tag_116:\n        /* \"#utility.yul\":3817:3888   */\n      tag_117\n        /* \"#utility.yul\":3881:3887   */\n      dup2\n        /* \"#utility.yul\":3876:3879   */\n      dup6\n        /* \"#utility.yul\":3817:3888   */\n      tag_118\n      jump\t// in\n    tag_117:\n        /* \"#utility.yul\":3810:3888   */\n      swap4\n      pop\n        /* \"#utility.yul\":3897:3949   */\n      tag_119\n        /* \"#utility.yul\":3942:3948   */\n      dup2\n        /* \"#utility.yul\":3937:3940   */\n      dup6\n        /* \"#utility.yul\":3930:3934   */\n      0x20\n        /* \"#utility.yul\":3923:3928   */\n      dup7\n        /* \"#utility.yul\":3919:3935   */\n      add\n        /* \"#utility.yul\":3897:3949   */\n      tag_111\n      jump\t// in\n    tag_119:\n        /* \"#utility.yul\":3974:4003   */\n      tag_120\n        /* \"#utility.yul\":3996:4002   */\n      dup2\n        /* \"#utility.yul\":3974:4003   */\n      tag_113\n      jump\t// in\n    tag_120:\n        /* \"#utility.yul\":3969:3972   */\n      dup5\n        /* \"#utility.yul\":3965:4004   */\n      add\n        /* \"#utility.yul\":3958:4004   */\n      swap2\n      pop\n        /* \"#utility.yul\":3738:4010   */\n      pop\n        /* \"#utility.yul\":3646:4010   */\n      swap3\n      swap2\n      pop\n      pop\n      jump\t// out\n        /* \"#utility.yul\":4076:4659   */\n    tag_89:\n        /* \"#utility.yul\":4173:4176   */\n      0x00\n        /* \"#utility.yul\":4209:4213   */\n      0x40\n        /* \"#utility.yul\":4204:4207   */\n      dup4\n        /* \"#utility.yul\":4200:4214   */\n      add\n        /* \"#utility.yul\":4294:4298   */\n      0x00\n        /* \"#utility.yul\":4287:4292   */\n      dup4\n        /* \"#utility.yul\":4283:4299   */\n      add\n        /* \"#utility.yul\":4277:4300   */\n      mload\n        /* \"#utility.yul\":4313:4376   */\n      tag_122\n        /* \"#utility.yul\":4370:4374   */\n      0x00\n        /* \"#utility.yul\":4365:4368   */\n      dup7\n        /* \"#utility.yul\":4361:4375   */\n      add\n        /* \"#utility.yul\":4347:4359   */\n      dup3\n        /* \"#utility.yul\":4313:4376   */\n      tag_123\n      jump\t// in\n    tag_122:\n        /* \"#utility.yul\":4224:4386   */\n      pop\n        /* \"#utility.yul\":4469:4473   */\n      0x20\n        /* \"#utility.yul\":4462:4467   */\n      dup4\n        /* \"#utility.yul\":4458:4474   */\n      add\n        /* \"#utility.yul\":4452:4475   */\n      mload\n        /* \"#utility.yul\":4522:4525   */\n      dup5\n        /* \"#utility.yul\":4516:4520   */\n      dup3\n        /* \"#utility.yul\":4512:4526   */\n      sub\n        /* \"#utility.yul\":4505:4509   */\n      0x20\n        /* \"#utility.yul\":4500:4503   */\n      dup7\n        /* \"#utility.yul\":4496:4510   */\n      add\n        /* \"#utility.yul\":4489:4527   */\n      mstore\n        /* \"#utility.yul\":4548:4621   */\n      tag_124\n        /* \"#utility.yul\":4616:4620   */\n      dup3\n        /* \"#utility.yul\":4602:4614   */\n      dup3\n        /* \"#utility.yul\":4548:4621   */\n      tag_104\n      jump\t// in\n    tag_124:\n        /* \"#utility.yul\":4540:4621   */\n      swap2\n      pop\n        /* \"#utility.yul\":4396:4632   */\n      pop\n        /* \"#utility.yul\":4649:4653   */\n      dup1\n        /* \"#utility.yul\":4642:4653   */\n      swap2\n      pop\n        /* \"#utility.yul\":4178:4659   */\n      pop\n        /* \"#utility.yul\":4076:4659   */\n      swap3\n      swap2\n      pop\n      pop\n      jump\t// out\n        /* \"#utility.yul\":4665:4773   */\n    tag_123:\n        /* \"#utility.yul\":4742:4766   */\n      tag_126\n        /* \"#utility.yul\":4760:4765   */\n      dup2\n        /* \"#utility.yul\":4742:4766   */\n      tag_127\n      jump\t// in\n    tag_126:\n        /* \"#utility.yul\":4737:4740   */\n      dup3\n        /* \"#utility.yul\":4730:4767   */\n      mstore\n        /* \"#utility.yul\":4665:4773   */\n      pop\n      pop\n      jump\t// out\n        /* \"#utility.yul\":4779:4897   */\n    tag_128:\n        /* \"#utility.yul\":4866:4890   */\n      tag_130\n        /* \"#utility.yul\":4884:4889   */\n      dup2\n        /* \"#utility.yul\":4866:4890   */\n      tag_127\n      jump\t// in\n    tag_130:\n        /* \"#utility.yul\":4861:4864   */\n      dup3\n        /* \"#utility.yul\":4854:4891   */\n      mstore\n        /* \"#utility.yul\":4779:4897   */\n      pop\n      pop\n      jump\t// out\n        /* \"#utility.yul\":4903:5352   */\n    tag_19:\n        /* \"#utility.yul\":5084:5088   */\n      0x00\n        /* \"#utility.yul\":5122:5124   */\n      0x20\n        /* \"#utility.yul\":5111:5120   */\n      dup3\n        /* \"#utility.yul\":5107:5125   */\n      add\n        /* \"#utility.yul\":5099:5125   */\n      swap1\n      pop\n        /* \"#utility.yul\":5171:5180   */\n      dup2\n        /* \"#utility.yul\":5165:5169   */\n      dup2\n        /* \"#utility.yul\":5161:5181   */\n      sub\n        /* \"#utility.yul\":5157:5158   */\n      0x00\n        /* \"#utility.yul\":5146:5155   */\n      dup4\n        /* \"#utility.yul\":5142:5159   */\n      add\n        /* \"#utility.yul\":5135:5182   */\n      mstore\n        /* \"#utility.yul\":5199:5345   */\n      tag_132\n        /* \"#utility.yul\":5340:5344   */\n      dup2\n        /* \"#utility.yul\":5331:5337   */\n      dup5\n        /* \"#utility.yul\":5199:5345   */\n      tag_90\n      jump\t// in\n    tag_132:\n        /* \"#utility.yul\":5191:5345   */\n      swap1\n      pop\n        /* \"#utility.yul\":4903:5352   */\n      swap3\n      swap2\n      pop\n      pop\n      jump\t// out\n        /* \"#utility.yul\":5358:5781   */\n    tag_15:\n        /* \"#utility.yul\":5499:5503   */\n      0x00\n        /* \"#utility.yul\":5537:5539   */\n      0x40\n        /* \"#utility.yul\":5526:5535   */\n      dup3\n        /* \"#utility.yul\":5522:5540   */\n      add\n        /* \"#utility.yul\":5514:5540   */\n      swap1\n      pop\n        /* \"#utility.yul\":5550:5621   */\n      tag_134\n        /* \"#utility.yul\":5618:5619   */\n      0x00\n        /* \"#utility.yul\":5607:5616   */\n      dup4\n        /* \"#utility.yul\":5603:5620   */\n      add\n        /* \"#utility.yul\":5594:5600   */\n      dup6\n        /* \"#utility.yul\":5550:5621   */\n      tag_128\n      jump\t// in\n    tag_134:\n        /* \"#utility.yul\":5668:5677   */\n      dup2\n        /* \"#utility.yul\":5662:5666   */\n      dup2\n        /* \"#utility.yul\":5658:5678   */\n      sub\n        /* \"#utility.yul\":5653:5655   */\n      0x20\n        /* \"#utility.yul\":5642:5651   */\n      dup4\n        /* \"#utility.yul\":5638:5656   */\n      add\n        /* \"#utility.yul\":5631:5679   */\n      mstore\n        /* \"#utility.yul\":5696:5774   */\n      tag_135\n        /* \"#utility.yul\":5769:5773   */\n      dup2\n        /* \"#utility.yul\":5760:5766   */\n      dup5\n        /* \"#utility.yul\":5696:5774   */\n      tag_114\n      jump\t// in\n    tag_135:\n        /* \"#utility.yul\":5688:5774   */\n      swap1\n      pop\n        /* \"#utility.yul\":5358:5781   */\n      swap4\n      swap3\n      pop\n      pop\n      pop\n      jump\t// out\n        /* \"#utility.yul\":5787:5916   */\n    tag_57:\n        /* \"#utility.yul\":5821:5827   */\n      0x00\n        /* \"#utility.yul\":5848:5868   */\n      tag_137\n      tag_138\n      jump\t// in\n    tag_137:\n        /* \"#utility.yul\":5838:5868   */\n      swap1\n      pop\n        /* \"#utility.yul\":5877:5910   */\n      tag_139\n        /* \"#utility.yul\":5905:5909   */\n      dup3\n        /* \"#utility.yul\":5897:5903   */\n      dup3\n        /* \"#utility.yul\":5877:5910   */\n      tag_140\n      jump\t// in\n    tag_139:\n        /* \"#utility.yul\":5787:5916   */\n      swap2\n      swap1\n      pop\n      jump\t// out\n        /* \"#utility.yul\":5922:5997   */\n    tag_138:\n        /* \"#utility.yul\":5955:5961   */\n      0x00\n        /* \"#utility.yul\":5988:5990   */\n      0x40\n        /* \"#utility.yul\":5982:5991   */\n      mload\n        /* \"#utility.yul\":5972:5991   */\n      swap1\n      pop\n        /* \"#utility.yul\":5922:5997   */\n      swap1\n      jump\t// out\n        /* \"#utility.yul\":6003:6311   */\n    tag_56:\n        /* \"#utility.yul\":6065:6069   */\n      0x00\n        /* \"#utility.yul\":6155:6173   */\n      0xffffffffffffffff\n        /* \"#utility.yul\":6147:6153   */\n      dup3\n        /* \"#utility.yul\":6144:6174   */\n      gt\n        /* \"#utility.yul\":6141:6197   */\n      iszero\n      tag_143\n      jumpi\n        /* \"#utility.yul\":6177:6195   */\n      tag_144\n      tag_145\n      jump\t// in\n    tag_144:\n        /* \"#utility.yul\":6141:6197   */\n    tag_143:\n        /* \"#utility.yul\":6215:6244   */\n      tag_146\n        /* \"#utility.yul\":6237:6243   */\n      dup3\n        /* \"#utility.yul\":6215:6244   */\n      tag_113\n      jump\t// in\n    tag_146:\n        /* \"#utility.yul\":6207:6244   */\n      swap1\n      pop\n        /* \"#utility.yul\":6299:6303   */\n      0x20\n        /* \"#utility.yul\":6293:6297   */\n      dup2\n        /* \"#utility.yul\":6289:6304   */\n      add\n        /* \"#utility.yul\":6281:6304   */\n      swap1\n      pop\n        /* \"#utility.yul\":6003:6311   */\n      swap2\n      swap1\n      pop\n      jump\t// out\n        /* \"#utility.yul\":6317:6468   */\n    tag_97:\n        /* \"#utility.yul\":6403:6407   */\n      0x00\n        /* \"#utility.yul\":6426:6429   */\n      dup2\n        /* \"#utility.yul\":6418:6429   */\n      swap1\n      pop\n        /* \"#utility.yul\":6456:6460   */\n      0x20\n        /* \"#utility.yul\":6451:6454   */\n      dup3\n        /* \"#utility.yul\":6447:6461   */\n      add\n        /* \"#utility.yul\":6439:6461   */\n      swap1\n      pop\n        /* \"#utility.yul\":6317:6468   */\n      swap2\n      swap1\n      pop\n      jump\t// out\n        /* \"#utility.yul\":6474:6607   */\n    tag_93:\n        /* \"#utility.yul\":6560:6566   */\n      0x00\n        /* \"#utility.yul\":6594:6599   */\n      dup2\n        /* \"#utility.yul\":6588:6600   */\n      mload\n        /* \"#utility.yul\":6578:6600   */\n      swap1\n      pop\n        /* \"#utility.yul\":6474:6607   */\n      swap2\n      swap1\n      pop\n      jump\t// out\n        /* \"#utility.yul\":6613:6712   */\n    tag_107:\n        /* \"#utility.yul\":6665:6671   */\n      0x00\n        /* \"#utility.yul\":6699:6704   */\n      dup2\n        /* \"#utility.yul\":6693:6705   */\n      mload\n        /* \"#utility.yul\":6683:6705   */\n      swap1\n      pop\n        /* \"#utility.yul\":6613:6712   */\n      swap2\n      swap1\n      pop\n      jump\t// out\n        /* \"#utility.yul\":6718:6850   */\n    tag_103:\n        /* \"#utility.yul\":6807:6811   */\n      0x00\n        /* \"#utility.yul\":6839:6843   */\n      0x20\n        /* \"#utility.yul\":6834:6837   */\n      dup3\n        /* \"#utility.yul\":6830:6844   */\n      add\n        /* \"#utility.yul\":6822:6844   */\n      swap1\n      pop\n        /* \"#utility.yul\":6718:6850   */\n      swap2\n      swap1\n      pop\n      jump\t// out\n        /* \"#utility.yul\":6856:7059   */\n    tag_95:\n        /* \"#utility.yul\":6974:6985   */\n      0x00\n        /* \"#utility.yul\":7008:7014   */\n      dup3\n        /* \"#utility.yul\":7003:7006   */\n      dup3\n        /* \"#utility.yul\":6996:7015   */\n      mstore\n        /* \"#utility.yul\":7048:7052   */\n      0x20\n        /* \"#utility.yul\":7043:7046   */\n      dup3\n        /* \"#utility.yul\":7039:7053   */\n      add\n        /* \"#utility.yul\":7024:7053   */\n      swap1\n      pop\n        /* \"#utility.yul\":6856:7059   */\n      swap3\n      swap2\n      pop\n      pop\n      jump\t// out\n        /* \"#utility.yul\":7065:7224   */\n    tag_109:\n        /* \"#utility.yul\":7139:7150   */\n      0x00\n        /* \"#utility.yul\":7173:7179   */\n      dup3\n        /* \"#utility.yul\":7168:7171   */\n      dup3\n        /* \"#utility.yul\":7161:7180   */\n      mstore\n        /* \"#utility.yul\":7213:7217   */\n      0x20\n        /* \"#utility.yul\":7208:7211   */\n      dup3\n        /* \"#utility.yul\":7204:7218   */\n      add\n        /* \"#utility.yul\":7189:7218   */\n      swap1\n      pop\n        /* \"#utility.yul\":7065:7224   */\n      swap3\n      swap2\n      pop\n      pop\n      jump\t// out\n        /* \"#utility.yul\":7230:7399   */\n    tag_118:\n        /* \"#utility.yul\":7314:7325   */\n      0x00\n        /* \"#utility.yul\":7348:7354   */\n      dup3\n        /* \"#utility.yul\":7343:7346   */\n      dup3\n        /* \"#utility.yul\":7336:7355   */\n      mstore\n        /* \"#utility.yul\":7388:7392   */\n      0x20\n        /* \"#utility.yul\":7383:7386   */\n      dup3\n        /* \"#utility.yul\":7379:7393   */\n      add\n        /* \"#utility.yul\":7364:7393   */\n      swap1\n      pop\n        /* \"#utility.yul\":7230:7399   */\n      swap3\n      swap2\n      pop\n      pop\n      jump\t// out\n        /* \"#utility.yul\":7405:7482   */\n    tag_127:\n        /* \"#utility.yul\":7442:7449   */\n      0x00\n        /* \"#utility.yul\":7471:7476   */\n      dup2\n        /* \"#utility.yul\":7460:7476   */\n      swap1\n      pop\n        /* \"#utility.yul\":7405:7482   */\n      swap2\n      swap1\n      pop\n      jump\t// out\n        /* \"#utility.yul\":7488:7642   */\n    tag_62:\n        /* \"#utility.yul\":7572:7578   */\n      dup3\n        /* \"#utility.yul\":7567:7570   */\n      dup2\n        /* \"#utility.yul\":7562:7565   */\n      dup4\n        /* \"#utility.yul\":7549:7579   */\n      calldatacopy\n        /* \"#utility.yul\":7634:7635   */\n      0x00\n        /* \"#utility.yul\":7625:7631   */\n      dup4\n        /* \"#utility.yul\":7620:7623   */\n      dup4\n        /* \"#utility.yul\":7616:7632   */\n      add\n        /* \"#utility.yul\":7609:7636   */\n      mstore\n        /* \"#utility.yul\":7488:7642   */\n      pop\n      pop\n      pop\n      jump\t// out\n        /* \"#utility.yul\":7648:7955   */\n    tag_111:\n        /* \"#utility.yul\":7716:7717   */\n      0x00\n        /* \"#utility.yul\":7726:7839   */\n    tag_157:\n        /* \"#utility.yul\":7740:7746   */\n      dup4\n        /* \"#utility.yul\":7737:7738   */\n      dup2\n        /* \"#utility.yul\":7734:7747   */\n      lt\n        /* \"#utility.yul\":7726:7839   */\n      iszero\n      tag_159\n      jumpi\n        /* \"#utility.yul\":7825:7826   */\n      dup1\n        /* \"#utility.yul\":7820:7823   */\n      dup3\n        /* \"#utility.yul\":7816:7827   */\n      add\n        /* \"#utility.yul\":7810:7828   */\n      mload\n        /* \"#utility.yul\":7806:7807   */\n      dup2\n        /* \"#utility.yul\":7801:7804   */\n      dup5\n        /* \"#utility.yul\":7797:7808   */\n      add\n        /* \"#utility.yul\":7790:7829   */\n      mstore\n        /* \"#utility.yul\":7762:7764   */\n      0x20\n        /* \"#utility.yul\":7759:7760   */\n      dup2\n        /* \"#utility.yul\":7755:7765   */\n      add\n        /* \"#utility.yul\":7750:7765   */\n      swap1\n      pop\n        /* \"#utility.yul\":7726:7839   */\n      jump(tag_157)\n    tag_159:\n        /* \"#utility.yul\":7857:7863   */\n      dup4\n        /* \"#utility.yul\":7854:7855   */\n      dup2\n        /* \"#utility.yul\":7851:7864   */\n      gt\n        /* \"#utility.yul\":7848:7949   */\n      iszero\n      tag_160\n      jumpi\n        /* \"#utility.yul\":7937:7938   */\n      0x00\n        /* \"#utility.yul\":7928:7934   */\n      dup5\n        /* \"#utility.yul\":7923:7926   */\n      dup5\n        /* \"#utility.yul\":7919:7935   */\n      add\n        /* \"#utility.yul\":7912:7939   */\n      mstore\n        /* \"#utility.yul\":7848:7949   */\n    tag_160:\n        /* \"#utility.yul\":7697:7955   */\n      pop\n        /* \"#utility.yul\":7648:7955   */\n      pop\n      pop\n      pop\n      jump\t// out\n        /* \"#utility.yul\":7961:8281   */\n    tag_27:\n        /* \"#utility.yul\":8005:8011   */\n      0x00\n        /* \"#utility.yul\":8042:8043   */\n      0x02\n        /* \"#utility.yul\":8036:8040   */\n      dup3\n        /* \"#utility.yul\":8032:8044   */\n      div\n        /* \"#utility.yul\":8022:8044   */\n      swap1\n      pop\n        /* \"#utility.yul\":8089:8090   */\n      0x01\n        /* \"#utility.yul\":8083:8087   */\n      dup3\n        /* \"#utility.yul\":8079:8091   */\n      and\n        /* \"#utility.yul\":8110:8128   */\n      dup1\n        /* \"#utility.yul\":8100:8181   */\n      tag_162\n      jumpi\n        /* \"#utility.yul\":8166:8170   */\n      0x7f\n        /* \"#utility.yul\":8158:8164   */\n      dup3\n        /* \"#utility.yul\":8154:8171   */\n      and\n        /* \"#utility.yul\":8144:8171   */\n      swap2\n      pop\n        /* \"#utility.yul\":8100:8181   */\n    tag_162:\n        /* \"#utility.yul\":8228:8230   */\n      0x20\n        /* \"#utility.yul\":8220:8226   */\n      dup3\n        /* \"#utility.yul\":8217:8231   */\n      lt\n        /* \"#utility.yul\":8197:8215   */\n      dup2\n        /* \"#utility.yul\":8194:8232   */\n      eq\n        /* \"#utility.yul\":8191:8275   */\n      iszero\n      tag_163\n      jumpi\n        /* \"#utility.yul\":8247:8265   */\n      tag_164\n      tag_165\n      jump\t// in\n    tag_164:\n        /* \"#utility.yul\":8191:8275   */\n    tag_163:\n        /* \"#utility.yul\":8012:8281   */\n      pop\n        /* \"#utility.yul\":7961:8281   */\n      swap2\n      swap1\n      pop\n      jump\t// out\n        /* \"#utility.yul\":8287:8568   */\n    tag_140:\n        /* \"#utility.yul\":8370:8397   */\n      tag_167\n        /* \"#utility.yul\":8392:8396   */\n      dup3\n        /* \"#utility.yul\":8370:8397   */\n      tag_113\n      jump\t// in\n    tag_167:\n        /* \"#utility.yul\":8362:8368   */\n      dup2\n        /* \"#utility.yul\":8358:8398   */\n      add\n        /* \"#utility.yul\":8500:8506   */\n      dup2\n        /* \"#utility.yul\":8488:8498   */\n      dup2\n        /* \"#utility.yul\":8485:8507   */\n      lt\n        /* \"#utility.yul\":8464:8482   */\n      0xffffffffffffffff\n        /* \"#utility.yul\":8452:8462   */\n      dup3\n        /* \"#utility.yul\":8449:8483   */\n      gt\n        /* \"#utility.yul\":8446:8508   */\n      or\n        /* \"#utility.yul\":8443:8531   */\n      iszero\n      tag_168\n      jumpi\n        /* \"#utility.yul\":8511:8529   */\n      tag_169\n      tag_145\n      jump\t// in\n    tag_169:\n        /* \"#utility.yul\":8443:8531   */\n    tag_168:\n        /* \"#utility.yul\":8551:8561   */\n      dup1\n        /* \"#utility.yul\":8547:8549   */\n      0x40\n        /* \"#utility.yul\":8540:8562   */\n      mstore\n        /* \"#utility.yul\":8330:8568   */\n      pop\n        /* \"#utility.yul\":8287:8568   */\n      pop\n      pop\n      jump\t// out\n        /* \"#utility.yul\":8574:8754   */\n    tag_165:\n        /* \"#utility.yul\":8622:8699   */\n      0x4e487b7100000000000000000000000000000000000000000000000000000000\n        /* \"#utility.yul\":8619:8620   */\n      0x00\n        /* \"#utility.yul\":8612:8700   */\n      mstore\n        /* \"#utility.yul\":8719:8723   */\n      0x22\n        /* \"#utility.yul\":8716:8717   */\n      0x04\n        /* \"#utility.yul\":8709:8724   */\n      mstore\n        /* \"#utility.yul\":8743:8747   */\n      0x24\n        /* \"#utility.yul\":8740:8741   */\n      0x00\n        /* \"#utility.yul\":8733:8748   */\n      revert\n        /* \"#utility.yul\":8760:8940   */\n    tag_145:\n        /* \"#utility.yul\":8808:8885   */\n      0x4e487b7100000000000000000000000000000000000000000000000000000000\n        /* \"#utility.yul\":8805:8806   */\n      0x00\n        /* \"#utility.yul\":8798:8886   */\n      mstore\n        /* \"#utility.yul\":8905:8909   */\n      0x41\n        /* \"#utility.yul\":8902:8903   */\n      0x04\n        /* \"#utility.yul\":8895:8910   */\n      mstore\n        /* \"#utility.yul\":8929:8933   */\n      0x24\n        /* \"#utility.yul\":8926:8927   */\n      0x00\n        /* \"#utility.yul\":8919:8934   */\n      revert\n        /* \"#utility.yul\":8946:9063   */\n    tag_67:\n        /* \"#utility.yul\":9055:9056   */\n      0x00\n        /* \"#utility.yul\":9052:9053   */\n      dup1\n        /* \"#utility.yul\":9045:9057   */\n      revert\n        /* \"#utility.yul\":9069:9186   */\n    tag_60:\n        /* \"#utility.yul\":9178:9179   */\n      0x00\n        /* \"#utility.yul\":9175:9176   */\n      dup1\n        /* \"#utility.yul\":9168:9180   */\n      revert\n        /* \"#utility.yul\":9192:9309   */\n    tag_84:\n        /* \"#utility.yul\":9301:9302   */\n      0x00\n        /* \"#utility.yul\":9298:9299   */\n      dup1\n        /* \"#utility.yul\":9291:9303   */\n      revert\n        /* \"#utility.yul\":9315:9432   */\n    tag_76:\n        /* \"#utility.yul\":9424:9425   */\n      0x00\n        /* \"#utility.yul\":9421:9422   */\n      dup1\n        /* \"#utility.yul\":9414:9426   */\n      revert\n        /* \"#utility.yul\":9438:9540   */\n    tag_113:\n        /* \"#utility.yul\":9479:9485   */\n      0x00\n        /* \"#utility.yul\":9530:9532   */\n      0x1f\n        /* \"#utility.yul\":9526:9533   */\n      not\n        /* \"#utility.yul\":9521:9523   */\n      0x1f\n        /* \"#utility.yul\":9514:9519   */\n      dup4\n        /* \"#utility.yul\":9510:9524   */\n      add\n        /* \"#utility.yul\":9506:9534   */\n      and\n        /* \"#utility.yul\":9496:9534   */\n      swap1\n      pop\n        /* \"#utility.yul\":9438:9540   */\n      swap2\n      swap1\n      pop\n      jump\t// out\n        /* \"#utility.yul\":9546:9668   */\n    tag_72:\n        /* \"#utility.yul\":9619:9643   */\n      tag_178\n        /* \"#utility.yul\":9637:9642   */\n      dup2\n        /* \"#utility.yul\":9619:9643   */\n      tag_127\n      jump\t// in\n    tag_178:\n        /* \"#utility.yul\":9612:9617   */\n      dup2\n        /* \"#utility.yul\":9609:9644   */\n      eq\n        /* \"#utility.yul\":9599:9662   */\n      tag_179\n      jumpi\n        /* \"#utility.yul\":9658:9659   */\n      0x00\n        /* \"#utility.yul\":9655:9656   */\n      dup1\n        /* \"#utility.yul\":9648:9660   */\n      revert\n        /* \"#utility.yul\":9599:9662   */\n    tag_179:\n        /* \"#utility.yul\":9546:9668   */\n      pop\n      jump\t// out\n\n    auxdata: 0xa2646970667358221220e7ff99245814584eaaa00f319aec51819ed74059780f65ae3e87ffa9527c9bea64736f6c63430008070033\n}\n",
				"bytecode": {
					"linkReferences": {},
					"object": "608060405234801561001057600080fd5b50610869806100206000396000f3fe608060405234801561001057600080fd5b50600436106100415760003560e01c806358fcbbfd1461004657806380c9419e14610062578063942b765a14610093575b600080fd5b610060600480360381019061005b919061042a565b6100b1565b005b61007c600480360381019061007791906103fd565b61011e565b60405161008a9291906105fe565b60405180910390f35b61009b6101da565b6040516100a891906105dc565b60405180910390f35b600060405180604001604052808481526020018381525090806001815401808255809150506001900390600052602060002090600202016000909190919091506000820151816000015560208201518160010190805190602001906101179291906102d5565b5050505050565b6000818154811061012e57600080fd5b906000526020600020906002020160009150905080600001549080600101805461015790610736565b80601f016020809104026020016040519081016040528092919081815260200182805461018390610736565b80156101d05780601f106101a5576101008083540402835291602001916101d0565b820191906000526020600020905b8154815290600101906020018083116101b357829003601f168201915b5050505050905082565b60606000805480602002602001604051908101604052809291908181526020016000905b828210156102cc57838290600052602060002090600202016040518060400160405290816000820154815260200160018201805461023b90610736565b80601f016020809104026020016040519081016040528092919081815260200182805461026790610736565b80156102b45780601f10610289576101008083540402835291602001916102b4565b820191906000526020600020905b81548152906001019060200180831161029757829003601f168201915b505050505081525050815260200190600101906101fe565b50505050905090565b8280546102e190610736565b90600052602060002090601f016020900481019282610303576000855561034a565b82601f1061031c57805160ff191683800117855561034a565b8280016001018555821561034a579182015b8281111561034957825182559160200191906001019061032e565b5b509050610357919061035b565b5090565b5b8082111561037457600081600090555060010161035c565b5090565b600061038b61038684610653565b61062e565b9050828152602081018484840111156103a7576103a66107fc565b5b6103b28482856106f4565b509392505050565b600082601f8301126103cf576103ce6107f7565b5b81356103df848260208601610378565b91505092915050565b6000813590506103f78161081c565b92915050565b60006020828403121561041357610412610806565b5b6000610421848285016103e8565b91505092915050565b6000806040838503121561044157610440610806565b5b600061044f858286016103e8565b925050602083013567ffffffffffffffff8111156104705761046f610801565b5b61047c858286016103ba565b9150509250929050565b60006104928383610581565b905092915050565b60006104a582610694565b6104af81856106b7565b9350836020820285016104c185610684565b8060005b858110156104fd57848403895281516104de8582610486565b94506104e9836106aa565b925060208a019950506001810190506104c5565b50829750879550505050505092915050565b600061051a8261069f565b61052481856106c8565b9350610534818560208601610703565b61053d8161080b565b840191505092915050565b60006105538261069f565b61055d81856106d9565b935061056d818560208601610703565b6105768161080b565b840191505092915050565b600060408301600083015161059960008601826105be565b50602083015184820360208601526105b1828261050f565b9150508091505092915050565b6105c7816106ea565b82525050565b6105d6816106ea565b82525050565b600060208201905081810360008301526105f6818461049a565b905092915050565b600060408201905061061360008301856105cd565b81810360208301526106258184610548565b90509392505050565b6000610638610649565b90506106448282610768565b919050565b6000604051905090565b600067ffffffffffffffff82111561066e5761066d6107c8565b5b6106778261080b565b9050602081019050919050565b6000819050602082019050919050565b600081519050919050565b600081519050919050565b6000602082019050919050565b600082825260208201905092915050565b600082825260208201905092915050565b600082825260208201905092915050565b6000819050919050565b82818337600083830152505050565b60005b83811015610721578082015181840152602081019050610706565b83811115610730576000848401525b50505050565b6000600282049050600182168061074e57607f821691505b6020821081141561076257610761610799565b5b50919050565b6107718261080b565b810181811067ffffffffffffffff821117156107905761078f6107c8565b5b80604052505050565b7f4e487b7100000000000000000000000000000000000000000000000000000000600052602260045260246000fd5b7f4e487b7100000000000000000000000000000000000000000000000000000000600052604160045260246000fd5b600080fd5b600080fd5b600080fd5b600080fd5b6000601f19601f8301169050919050565b610825816106ea565b811461083057600080fd5b5056fea2646970667358221220e7ff99245814584eaaa00f319aec51819ed74059780f65ae3e87ffa9527c9bea64736f6c63430008070033",
					"opcodes": "PUSH1 0x80 PUSH1 0x40 MSTORE CALLVALUE DUP1 ISZERO PUSH2 0x10 JUMPI PUSH1 0x0 DUP1 REVERT JUMPDEST POP PUSH2 0x869 DUP1 PUSH2 0x20 PUSH1 0x0 CODECOPY PUSH1 0x0 RETURN INVALID PUSH1 0x80 PUSH1 0x40 MSTORE CALLVALUE DUP1 ISZERO PUSH2 0x10 JUMPI PUSH1 0x0 DUP1 REVERT JUMPDEST POP PUSH1 0x4 CALLDATASIZE LT PUSH2 0x41 JUMPI PUSH1 0x0 CALLDATALOAD PUSH1 0xE0 SHR DUP1 PUSH4 0x58FCBBFD EQ PUSH2 0x46 JUMPI DUP1 PUSH4 0x80C9419E EQ PUSH2 0x62 JUMPI DUP1 PUSH4 0x942B765A EQ PUSH2 0x93 JUMPI JUMPDEST PUSH1 0x0 DUP1 REVERT JUMPDEST PUSH2 0x60 PUSH1 0x4 DUP1 CALLDATASIZE SUB DUP2 ADD SWAP1 PUSH2 0x5B SWAP2 SWAP1 PUSH2 0x42A JUMP JUMPDEST PUSH2 0xB1 JUMP JUMPDEST STOP JUMPDEST PUSH2 0x7C PUSH1 0x4 DUP1 CALLDATASIZE SUB DUP2 ADD SWAP1 PUSH2 0x77 SWAP2 SWAP1 PUSH2 0x3FD JUMP JUMPDEST PUSH2 0x11E JUMP JUMPDEST PUSH1 0x40 MLOAD PUSH2 0x8A SWAP3 SWAP2 SWAP1 PUSH2 0x5FE JUMP JUMPDEST PUSH1 0x40 MLOAD DUP1 SWAP2 SUB SWAP1 RETURN JUMPDEST PUSH2 0x9B PUSH2 0x1DA JUMP JUMPDEST PUSH1 0x40 MLOAD PUSH2 0xA8 SWAP2 SWAP1 PUSH2 0x5DC JUMP JUMPDEST PUSH1 0x40 MLOAD DUP1 SWAP2 SUB SWAP1 RETURN JUMPDEST PUSH1 0x0 PUSH1 0x40 MLOAD DUP1 PUSH1 0x40 ADD PUSH1 0x40 MSTORE DUP1 DUP5 DUP2 MSTORE PUSH1 0x20 ADD DUP4 DUP2 MSTORE POP SWAP1 DUP1 PUSH1 0x1 DUP2 SLOAD ADD DUP1 DUP3 SSTORE DUP1 SWAP2 POP POP PUSH1 0x1 SWAP1 SUB SWAP1 PUSH1 0x0 MSTORE PUSH1 0x20 PUSH1 0x0 KECCAK256 SWAP1 PUSH1 0x2 MUL ADD PUSH1 0x0 SWAP1 SWAP2 SWAP1 SWAP2 SWAP1 SWAP2 POP PUSH1 0x0 DUP3 ADD MLOAD DUP2 PUSH1 0x0 ADD SSTORE PUSH1 0x20 DUP3 ADD MLOAD DUP2 PUSH1 0x1 ADD SWAP1 DUP1 MLOAD SWAP1 PUSH1 0x20 ADD SWAP1 PUSH2 0x117 SWAP3 SWAP2 SWAP1 PUSH2 0x2D5 JUMP JUMPDEST POP POP POP POP POP JUMP JUMPDEST PUSH1 0x0 DUP2 DUP2 SLOAD DUP2 LT PUSH2 0x12E JUMPI PUSH1 0x0 DUP1 REVERT JUMPDEST SWAP1 PUSH1 0x0 MSTORE PUSH1 0x20 PUSH1 0x0 KECCAK256 SWAP1 PUSH1 0x2 MUL ADD PUSH1 0x0 SWAP2 POP SWAP1 POP DUP1 PUSH1 0x0 ADD SLOAD SWAP1 DUP1 PUSH1 0x1 ADD DUP1 SLOAD PUSH2 0x157 SWAP1 PUSH2 0x736 JUMP JUMPDEST DUP1 PUSH1 0x1F ADD PUSH1 0x20 DUP1 SWAP2 DIV MUL PUSH1 0x20 ADD PUSH1 0x40 MLOAD SWAP1 DUP2 ADD PUSH1 0x40 MSTORE DUP1 SWAP3 SWAP2 SWAP1 DUP2 DUP2 MSTORE PUSH1 0x20 ADD DUP3 DUP1 SLOAD PUSH2 0x183 SWAP1 PUSH2 0x736 JUMP JUMPDEST DUP1 ISZERO PUSH2 0x1D0 JUMPI DUP1 PUSH1 0x1F LT PUSH2 0x1A5 JUMPI PUSH2 0x100 DUP1 DUP4 SLOAD DIV MUL DUP4 MSTORE SWAP2 PUSH1 0x20 ADD SWAP2 PUSH2 0x1D0 JUMP JUMPDEST DUP3 ADD SWAP2 SWAP1 PUSH1 0x0 MSTORE PUSH1 0x20 PUSH1 0x0 KECCAK256 SWAP1 JUMPDEST DUP2 SLOAD DUP2 MSTORE SWAP1 PUSH1 0x1 ADD SWAP1 PUSH1 0x20 ADD DUP1 DUP4 GT PUSH2 0x1B3 JUMPI DUP3 SWAP1 SUB PUSH1 0x1F AND DUP3 ADD SWAP2 JUMPDEST POP POP POP POP POP SWAP1 POP DUP3 JUMP JUMPDEST PUSH1 0x60 PUSH1 0x0 DUP1 SLOAD DUP1 PUSH1 0x20 MUL PUSH1 0x20 ADD PUSH1 0x40 MLOAD SWAP1 DUP2 ADD PUSH1 0x40 MSTORE DUP1 SWAP3 SWAP2 SWAP1 DUP2 DUP2 MSTORE PUSH1 0x20 ADD PUSH1 0x0 SWAP1 JUMPDEST DUP3 DUP3 LT ISZERO PUSH2 0x2CC JUMPI DUP4 DUP3 SWAP1 PUSH1 0x0 MSTORE PUSH1 0x20 PUSH1 0x0 KECCAK256 SWAP1 PUSH1 0x2 MUL ADD PUSH1 0x40 MLOAD DUP1 PUSH1 0x40 ADD PUSH1 0x40 MSTORE SWAP1 DUP2 PUSH1 0x0 DUP3 ADD SLOAD DUP2 MSTORE PUSH1 0x20 ADD PUSH1 0x1 DUP3 ADD DUP1 SLOAD PUSH2 0x23B SWAP1 PUSH2 0x736 JUMP JUMPDEST DUP1 PUSH1 0x1F ADD PUSH1 0x20 DUP1 SWAP2 DIV MUL PUSH1 0x20 ADD PUSH1 0x40 MLOAD SWAP1 DUP2 ADD PUSH1 0x40 MSTORE DUP1 SWAP3 SWAP2 SWAP1 DUP2 DUP2 MSTORE PUSH1 0x20 ADD DUP3 DUP1 SLOAD PUSH2 0x267 SWAP1 PUSH2 0x736 JUMP JUMPDEST DUP1 ISZERO PUSH2 0x2B4 JUMPI DUP1 PUSH1 0x1F LT PUSH2 0x289 JUMPI PUSH2 0x100 DUP1 DUP4 SLOAD DIV MUL DUP4 MSTORE SWAP2 PUSH1 0x20 ADD SWAP2 PUSH2 0x2B4 JUMP JUMPDEST DUP3 ADD SWAP2 SWAP1 PUSH1 0x0 MSTORE PUSH1 0x20 PUSH1 0x0 KECCAK256 SWAP1 JUMPDEST DUP2 SLOAD DUP2 MSTORE SWAP1 PUSH1 0x1 ADD SWAP1 PUSH1 0x20 ADD DUP1 DUP4 GT PUSH2 0x297 JUMPI DUP3 SWAP1 SUB PUSH1 0x1F AND DUP3 ADD SWAP2 JUMPDEST POP POP POP POP POP DUP2 MSTORE POP POP DUP2 MSTORE PUSH1 0x20 ADD SWAP1 PUSH1 0x1 ADD SWAP1 PUSH2 0x1FE JUMP JUMPDEST POP POP POP POP SWAP1 POP SWAP1 JUMP JUMPDEST DUP3 DUP1 SLOAD PUSH2 0x2E1 SWAP1 PUSH2 0x736 JUMP JUMPDEST SWAP1 PUSH1 0x0 MSTORE PUSH1 0x20 PUSH1 0x0 KECCAK256 SWAP1 PUSH1 0x1F ADD PUSH1 0x20 SWAP1 DIV DUP2 ADD SWAP3 DUP3 PUSH2 0x303 JUMPI PUSH1 0x0 DUP6 SSTORE PUSH2 0x34A JUMP JUMPDEST DUP3 PUSH1 0x1F LT PUSH2 0x31C JUMPI DUP1 MLOAD PUSH1 0xFF NOT AND DUP4 DUP1 ADD OR DUP6 SSTORE PUSH2 0x34A JUMP JUMPDEST DUP3 DUP1 ADD PUSH1 0x1 ADD DUP6 SSTORE DUP3 ISZERO PUSH2 0x34A JUMPI SWAP2 DUP3 ADD JUMPDEST DUP3 DUP2 GT ISZERO PUSH2 0x349 JUMPI DUP3 MLOAD DUP3 SSTORE SWAP2 PUSH1 0x20 ADD SWAP2 SWAP1 PUSH1 0x1 ADD SWAP1 PUSH2 0x32E JUMP JUMPDEST JUMPDEST POP SWAP1 POP PUSH2 0x357 SWAP2 SWAP1 PUSH2 0x35B JUMP JUMPDEST POP SWAP1 JUMP JUMPDEST JUMPDEST DUP1 DUP3 GT ISZERO PUSH2 0x374 JUMPI PUSH1 0x0 DUP2 PUSH1 0x0 SWAP1 SSTORE POP PUSH1 0x1 ADD PUSH2 0x35C JUMP JUMPDEST POP SWAP1 JUMP JUMPDEST PUSH1 0x0 PUSH2 0x38B PUSH2 0x386 DUP5 PUSH2 0x653 JUMP JUMPDEST PUSH2 0x62E JUMP JUMPDEST SWAP1 POP DUP3 DUP2 MSTORE PUSH1 0x20 DUP2 ADD DUP5 DUP5 DUP5 ADD GT ISZERO PUSH2 0x3A7 JUMPI PUSH2 0x3A6 PUSH2 0x7FC JUMP JUMPDEST JUMPDEST PUSH2 0x3B2 DUP5 DUP3 DUP6 PUSH2 0x6F4 JUMP JUMPDEST POP SWAP4 SWAP3 POP POP POP JUMP JUMPDEST PUSH1 0x0 DUP3 PUSH1 0x1F DUP4 ADD SLT PUSH2 0x3CF JUMPI PUSH2 0x3CE PUSH2 0x7F7 JUMP JUMPDEST JUMPDEST DUP2 CALLDATALOAD PUSH2 0x3DF DUP5 DUP3 PUSH1 0x20 DUP7 ADD PUSH2 0x378 JUMP JUMPDEST SWAP2 POP POP SWAP3 SWAP2 POP POP JUMP JUMPDEST PUSH1 0x0 DUP2 CALLDATALOAD SWAP1 POP PUSH2 0x3F7 DUP2 PUSH2 0x81C JUMP JUMPDEST SWAP3 SWAP2 POP POP JUMP JUMPDEST PUSH1 0x0 PUSH1 0x20 DUP3 DUP5 SUB SLT ISZERO PUSH2 0x413 JUMPI PUSH2 0x412 PUSH2 0x806 JUMP JUMPDEST JUMPDEST PUSH1 0x0 PUSH2 0x421 DUP5 DUP3 DUP6 ADD PUSH2 0x3E8 JUMP JUMPDEST SWAP2 POP POP SWAP3 SWAP2 POP POP JUMP JUMPDEST PUSH1 0x0 DUP1 PUSH1 0x40 DUP4 DUP6 SUB SLT ISZERO PUSH2 0x441 JUMPI PUSH2 0x440 PUSH2 0x806 JUMP JUMPDEST JUMPDEST PUSH1 0x0 PUSH2 0x44F DUP6 DUP3 DUP7 ADD PUSH2 0x3E8 JUMP JUMPDEST SWAP3 POP POP PUSH1 0x20 DUP4 ADD CALLDATALOAD PUSH8 0xFFFFFFFFFFFFFFFF DUP2 GT ISZERO PUSH2 0x470 JUMPI PUSH2 0x46F PUSH2 0x801 JUMP JUMPDEST JUMPDEST PUSH2 0x47C DUP6 DUP3 DUP7 ADD PUSH2 0x3BA JUMP JUMPDEST SWAP2 POP POP SWAP3 POP SWAP3 SWAP1 POP JUMP JUMPDEST PUSH1 0x0 PUSH2 0x492 DUP4 DUP4 PUSH2 0x581 JUMP JUMPDEST SWAP1 POP SWAP3 SWAP2 POP POP JUMP JUMPDEST PUSH1 0x0 PUSH2 0x4A5 DUP3 PUSH2 0x694 JUMP JUMPDEST PUSH2 0x4AF DUP2 DUP6 PUSH2 0x6B7 JUMP JUMPDEST SWAP4 POP DUP4 PUSH1 0x20 DUP3 MUL DUP6 ADD PUSH2 0x4C1 DUP6 PUSH2 0x684 JUMP JUMPDEST DUP1 PUSH1 0x0 JUMPDEST DUP6 DUP2 LT ISZERO PUSH2 0x4FD JUMPI DUP5 DUP5 SUB DUP10 MSTORE DUP2 MLOAD PUSH2 0x4DE DUP6 DUP3 PUSH2 0x486 JUMP JUMPDEST SWAP5 POP PUSH2 0x4E9 DUP4 PUSH2 0x6AA JUMP JUMPDEST SWAP3 POP PUSH1 0x20 DUP11 ADD SWAP10 POP POP PUSH1 0x1 DUP2 ADD SWAP1 POP PUSH2 0x4C5 JUMP JUMPDEST POP DUP3 SWAP8 POP DUP8 SWAP6 POP POP POP POP POP POP SWAP3 SWAP2 POP POP JUMP JUMPDEST PUSH1 0x0 PUSH2 0x51A DUP3 PUSH2 0x69F JUMP JUMPDEST PUSH2 0x524 DUP2 DUP6 PUSH2 0x6C8 JUMP JUMPDEST SWAP4 POP PUSH2 0x534 DUP2 DUP6 PUSH1 0x20 DUP7 ADD PUSH2 0x703 JUMP JUMPDEST PUSH2 0x53D DUP2 PUSH2 0x80B JUMP JUMPDEST DUP5 ADD SWAP2 POP POP SWAP3 SWAP2 POP POP JUMP JUMPDEST PUSH1 0x0 PUSH2 0x553 DUP3 PUSH2 0x69F JUMP JUMPDEST PUSH2 0x55D DUP2 DUP6 PUSH2 0x6D9 JUMP JUMPDEST SWAP4 POP PUSH2 0x56D DUP2 DUP6 PUSH1 0x20 DUP7 ADD PUSH2 0x703 JUMP JUMPDEST PUSH2 0x576 DUP2 PUSH2 0x80B JUMP JUMPDEST DUP5 ADD SWAP2 POP POP SWAP3 SWAP2 POP POP JUMP JUMPDEST PUSH1 0x0 PUSH1 0x40 DUP4 ADD PUSH1 0x0 DUP4 ADD MLOAD PUSH2 0x599 PUSH1 0x0 DUP7 ADD DUP3 PUSH2 0x5BE JUMP JUMPDEST POP PUSH1 0x20 DUP4 ADD MLOAD DUP5 DUP3 SUB PUSH1 0x20 DUP7 ADD MSTORE PUSH2 0x5B1 DUP3 DUP3 PUSH2 0x50F JUMP JUMPDEST SWAP2 POP POP DUP1 SWAP2 POP POP SWAP3 SWAP2 POP POP JUMP JUMPDEST PUSH2 0x5C7 DUP2 PUSH2 0x6EA JUMP JUMPDEST DUP3 MSTORE POP POP JUMP JUMPDEST PUSH2 0x5D6 DUP2 PUSH2 0x6EA JUMP JUMPDEST DUP3 MSTORE POP POP JUMP JUMPDEST PUSH1 0x0 PUSH1 0x20 DUP3 ADD SWAP1 POP DUP2 DUP2 SUB PUSH1 0x0 DUP4 ADD MSTORE PUSH2 0x5F6 DUP2 DUP5 PUSH2 0x49A JUMP JUMPDEST SWAP1 POP SWAP3 SWAP2 POP POP JUMP JUMPDEST PUSH1 0x0 PUSH1 0x40 DUP3 ADD SWAP1 POP PUSH2 0x613 PUSH1 0x0 DUP4 ADD DUP6 PUSH2 0x5CD JUMP JUMPDEST DUP2 DUP2 SUB PUSH1 0x20 DUP4 ADD MSTORE PUSH2 0x625 DUP2 DUP5 PUSH2 0x548 JUMP JUMPDEST SWAP1 POP SWAP4 SWAP3 POP POP POP JUMP JUMPDEST PUSH1 0x0 PUSH2 0x638 PUSH2 0x649 JUMP JUMPDEST SWAP1 POP PUSH2 0x644 DUP3 DUP3 PUSH2 0x768 JUMP JUMPDEST SWAP2 SWAP1 POP JUMP JUMPDEST PUSH1 0x0 PUSH1 0x40 MLOAD SWAP1 POP SWAP1 JUMP JUMPDEST PUSH1 0x0 PUSH8 0xFFFFFFFFFFFFFFFF DUP3 GT ISZERO PUSH2 0x66E JUMPI PUSH2 0x66D PUSH2 0x7C8 JUMP JUMPDEST JUMPDEST PUSH2 0x677 DUP3 PUSH2 0x80B JUMP JUMPDEST SWAP1 POP PUSH1 0x20 DUP2 ADD SWAP1 POP SWAP2 SWAP1 POP JUMP JUMPDEST PUSH1 0x0 DUP2 SWAP1 POP PUSH1 0x20 DUP3 ADD SWAP1 POP SWAP2 SWAP1 POP JUMP JUMPDEST PUSH1 0x0 DUP2 MLOAD SWAP1 POP SWAP2 SWAP1 POP JUMP JUMPDEST PUSH1 0x0 DUP2 MLOAD SWAP1 POP SWAP2 SWAP1 POP JUMP JUMPDEST PUSH1 0x0 PUSH1 0x20 DUP3 ADD SWAP1 POP SWAP2 SWAP1 POP JUMP JUMPDEST PUSH1 0x0 DUP3 DUP3 MSTORE PUSH1 0x20 DUP3 ADD SWAP1 POP SWAP3 SWAP2 POP POP JUMP JUMPDEST PUSH1 0x0 DUP3 DUP3 MSTORE PUSH1 0x20 DUP3 ADD SWAP1 POP SWAP3 SWAP2 POP POP JUMP JUMPDEST PUSH1 0x0 DUP3 DUP3 MSTORE PUSH1 0x20 DUP3 ADD SWAP1 POP SWAP3 SWAP2 POP POP JUMP JUMPDEST PUSH1 0x0 DUP2 SWAP1 POP SWAP2 SWAP1 POP JUMP JUMPDEST DUP3 DUP2 DUP4 CALLDATACOPY PUSH1 0x0 DUP4 DUP4 ADD MSTORE POP POP POP JUMP JUMPDEST PUSH1 0x0 JUMPDEST DUP4 DUP2 LT ISZERO PUSH2 0x721 JUMPI DUP1 DUP3 ADD MLOAD DUP2 DUP5 ADD MSTORE PUSH1 0x20 DUP2 ADD SWAP1 POP PUSH2 0x706 JUMP JUMPDEST DUP4 DUP2 GT ISZERO PUSH2 0x730 JUMPI PUSH1 0x0 DUP5 DUP5 ADD MSTORE JUMPDEST POP POP POP POP JUMP JUMPDEST PUSH1 0x0 PUSH1 0x2 DUP3 DIV SWAP1 POP PUSH1 0x1 DUP3 AND DUP1 PUSH2 0x74E JUMPI PUSH1 0x7F DUP3 AND SWAP2 POP JUMPDEST PUSH1 0x20 DUP3 LT DUP2 EQ ISZERO PUSH2 0x762 JUMPI PUSH2 0x761 PUSH2 0x799 JUMP JUMPDEST JUMPDEST POP SWAP2 SWAP1 POP JUMP JUMPDEST PUSH2 0x771 DUP3 PUSH2 0x80B JUMP JUMPDEST DUP2 ADD DUP2 DUP2 LT PUSH8 0xFFFFFFFFFFFFFFFF DUP3 GT OR ISZERO PUSH2 0x790 JUMPI PUSH2 0x78F PUSH2 0x7C8 JUMP JUMPDEST JUMPDEST DUP1 PUSH1 0x40 MSTORE POP POP POP JUMP JUMPDEST PUSH32 0x4E487B7100000000000000000000000000000000000000000000000000000000 PUSH1 0x0 MSTORE PUSH1 0x22 PUSH1 0x4 MSTORE PUSH1 0x24 PUSH1 0x0 REVERT JUMPDEST PUSH32 0x4E487B7100000000000000000000000000000000000000000000000000000000 PUSH1 0x0 MSTORE PUSH1 0x41 PUSH1 0x4 MSTORE PUSH1 0x24 PUSH1 0x0 REVERT JUMPDEST PUSH1 0x0 DUP1 REVERT JUMPDEST PUSH1 0x0 DUP1 REVERT JUMPDEST PUSH1 0x0 DUP1 REVERT JUMPDEST PUSH1 0x0 DUP1 REVERT JUMPDEST PUSH1 0x0 PUSH1 0x1F NOT PUSH1 0x1F DUP4 ADD AND SWAP1 POP SWAP2 SWAP1 POP JUMP JUMPDEST PUSH2 0x825 DUP2 PUSH2 0x6EA JUMP JUMPDEST DUP2 EQ PUSH2 0x830 JUMPI PUSH1 0x0 DUP1 REVERT JUMPDEST POP JUMP INVALID LOG2 PUSH5 0x6970667358 0x22 SLT KECCAK256 0xE7 SELFDESTRUCT SWAP10 0x24 PC EQ PC 0x4E 0xAA LOG0 0xF BALANCE SWAP11 0xEC MLOAD DUP2 SWAP15 0xD7 BLOCKHASH MSIZE PUSH25 0xF65AE3E87FFA9527C9BEA64736F6C63430008070033000000 "
				},
				"gasEstimates": {
					"creation": {
						"codeDepositCost": "430600",
						"executionCost": "468",
						"totalCost": "431068"
					},
					"external": {
						"addTask(uint256,string)": "infinite",
						"getList()": "infinite",
						"list(uint256)": "infinite"
					}
				},
				"methodIdentifiers": {
					"addTask(uint256,string)": "58fcbbfd",
					"getList()": "942b765a",
					"list(uint256)": "80c9419e"
				}
			},
			"storageLayout": {
				"storage": [
					{
						"astId": 10,
						"contract": "todoList.sol:TodoListData",
						"label": "list",
						"offset": 0,
						"slot": "0",
						"type": "t_array(t_struct(Task)6_storage)dyn_storage"
					}
				],
				"types": {
					"t_array(t_struct(Task)6_storage)dyn_storage": {
						"base": "t_struct(Task)6_storage",
						"encoding": "dynamic_array",
						"label": "struct TodoListData.Task[]",
						"numberOfBytes": "32"
					},
					"t_string_storage": {
						"encoding": "bytes",
						"label": "string",
						"numberOfBytes": "32"
					},
					"t_struct(Task)6_storage": {
						"encoding": "inplace",
						"label": "struct TodoListData.Task",
						"members": [
							{
								"astId": 3,
								"contract": "todoList.sol:TodoListData",
								"label": "id",
								"offset": 0,
								"slot": "0",
								"type": "t_uint256"
							},
							{
								"astId": 5,
								"contract": "todoList.sol:TodoListData",
								"label": "value",
								"offset": 0,
								"slot": "1",
								"type": "t_string_storage"
							}
						],
						"numberOfBytes": "64"
					},
					"t_uint256": {
						"encoding": "inplace",
						"label": "uint256",
						"numberOfBytes": "32"
					}
				}
			},
			"userdoc": {
				"kind": "user",
				"methods": {},
				"version": 1
			}
		}
	}
}