{
	"storage.sol": {
		"StorageTest": {
			"abi": [
				{
					"inputs": [
						{
							"internalType": "string",
							"name": "n",
							"type": "string"
						}
					],
					"name": "f1",
					"outputs": [],
					"stateMutability": "nonpayable",
					"type": "function"
				},
				{
					"inputs": [],
					"name": "i",
					"outputs": [
						{
							"internalType": "int256",
							"name": "",
							"type": "int256"
						}
					],
					"stateMutability": "view",
					"type": "function"
				}
			],
			"devdoc": {
				"kind": "dev",
				"methods": {},
				"version": 1
			},
			"evm": {
				"assembly": "    /* \"storage.sol\":61:179  contract StorageTest {\r... */\n  mstore(0x40, 0x80)\n  callvalue\n  dup1\n  iszero\n  tag_1\n  jumpi\n  0x00\n  dup1\n  revert\ntag_1:\n  pop\n  dataSize(sub_0)\n  dup1\n  dataOffset(sub_0)\n  0x00\n  codecopy\n  0x00\n  return\nstop\n\nsub_0: assembly {\n        /* \"storage.sol\":61:179  contract StorageTest {\r... */\n      mstore(0x40, 0x80)\n      callvalue\n      dup1\n      iszero\n      tag_1\n      jumpi\n      0x00\n      dup1\n      revert\n    tag_1:\n      pop\n      jumpi(tag_2, lt(calldatasize, 0x04))\n      shr(0xe0, calldataload(0x00))\n      dup1\n      0x318f79d3\n      eq\n      tag_3\n      jumpi\n      dup1\n      0xe5aa3d58\n      eq\n      tag_4\n      jumpi\n    tag_2:\n      0x00\n      dup1\n      revert\n        /* \"storage.sol\":111:176  function f1(string memory n) external {\r... */\n    tag_3:\n      tag_5\n      0x04\n      dup1\n      calldatasize\n      sub\n      dup2\n      add\n      swap1\n      tag_6\n      swap2\n      swap1\n      tag_7\n      jump\t// in\n    tag_6:\n      tag_8\n      jump\t// in\n    tag_5:\n      stop\n        /* \"storage.sol\":89:102  int public  i */\n    tag_4:\n      tag_9\n      tag_10\n      jump\t// in\n    tag_9:\n      mload(0x40)\n      tag_11\n      swap2\n      swap1\n      tag_12\n      jump\t// in\n    tag_11:\n      mload(0x40)\n      dup1\n      swap2\n      sub\n      swap1\n      return\n        /* \"storage.sol\":111:176  function f1(string memory n) external {\r... */\n    tag_8:\n      pop\n      jump\t// out\n        /* \"storage.sol\":89:102  int public  i */\n    tag_10:\n      sload(0x00)\n      dup2\n      jump\t// out\n        /* \"#utility.yul\":7:419   */\n    tag_15:\n        /* \"#utility.yul\":85:90   */\n      0x00\n        /* \"#utility.yul\":110:176   */\n      tag_17\n        /* \"#utility.yul\":126:175   */\n      tag_18\n        /* \"#utility.yul\":168:174   */\n      dup5\n        /* \"#utility.yul\":126:175   */\n      tag_19\n      jump\t// in\n    tag_18:\n        /* \"#utility.yul\":110:176   */\n      tag_20\n      jump\t// in\n    tag_17:\n        /* \"#utility.yul\":101:176   */\n      swap1\n      pop\n        /* \"#utility.yul\":199:205   */\n      dup3\n        /* \"#utility.yul\":192:197   */\n      dup2\n        /* \"#utility.yul\":185:206   */\n      mstore\n        /* \"#utility.yul\":237:241   */\n      0x20\n        /* \"#utility.yul\":230:235   */\n      dup2\n        /* \"#utility.yul\":226:242   */\n      add\n        /* \"#utility.yul\":275:278   */\n      dup5\n        /* \"#utility.yul\":266:272   */\n      dup5\n        /* \"#utility.yul\":261:264   */\n      dup5\n        /* \"#utility.yul\":257:273   */\n      add\n        /* \"#utility.yul\":254:279   */\n      gt\n        /* \"#utility.yul\":251:363   */\n      iszero\n      tag_21\n      jumpi\n        /* \"#utility.yul\":282:361   */\n      tag_22\n      tag_23\n      jump\t// in\n    tag_22:\n        /* \"#utility.yul\":251:363   */\n    tag_21:\n        /* \"#utility.yul\":372:413   */\n      tag_24\n        /* \"#utility.yul\":406:412   */\n      dup5\n        /* \"#utility.yul\":401:404   */\n      dup3\n        /* \"#utility.yul\":396:399   */\n      dup6\n        /* \"#utility.yul\":372:413   */\n      tag_25\n      jump\t// in\n    tag_24:\n        /* \"#utility.yul\":91:419   */\n      pop\n        /* \"#utility.yul\":7:419   */\n      swap4\n      swap3\n      pop\n      pop\n      pop\n      jump\t// out\n        /* \"#utility.yul\":439:779   */\n    tag_26:\n        /* \"#utility.yul\":495:500   */\n      0x00\n        /* \"#utility.yul\":544:547   */\n      dup3\n        /* \"#utility.yul\":537:541   */\n      0x1f\n        /* \"#utility.yul\":529:535   */\n      dup4\n        /* \"#utility.yul\":525:542   */\n      add\n        /* \"#utility.yul\":521:548   */\n      slt\n        /* \"#utility.yul\":511:633   */\n      tag_28\n      jumpi\n        /* \"#utility.yul\":552:631   */\n      tag_29\n      tag_30\n      jump\t// in\n    tag_29:\n        /* \"#utility.yul\":511:633   */\n    tag_28:\n        /* \"#utility.yul\":669:675   */\n      dup2\n        /* \"#utility.yul\":656:676   */\n      calldataload\n        /* \"#utility.yul\":694:773   */\n      tag_31\n        /* \"#utility.yul\":769:772   */\n      dup5\n        /* \"#utility.yul\":761:767   */\n      dup3\n        /* \"#utility.yul\":754:758   */\n      0x20\n        /* \"#utility.yul\":746:752   */\n      dup7\n        /* \"#utility.yul\":742:759   */\n      add\n        /* \"#utility.yul\":694:773   */\n      tag_15\n      jump\t// in\n    tag_31:\n        /* \"#utility.yul\":685:773   */\n      swap2\n      pop\n        /* \"#utility.yul\":501:779   */\n      pop\n        /* \"#utility.yul\":439:779   */\n      swap3\n      swap2\n      pop\n      pop\n      jump\t// out\n        /* \"#utility.yul\":785:1294   */\n    tag_7:\n        /* \"#utility.yul\":854:860   */\n      0x00\n        /* \"#utility.yul\":903:905   */\n      0x20\n        /* \"#utility.yul\":891:900   */\n      dup3\n        /* \"#utility.yul\":882:889   */\n      dup5\n        /* \"#utility.yul\":878:901   */\n      sub\n        /* \"#utility.yul\":874:906   */\n      slt\n        /* \"#utility.yul\":871:990   */\n      iszero\n      tag_33\n      jumpi\n        /* \"#utility.yul\":909:988   */\n      tag_34\n      tag_35\n      jump\t// in\n    tag_34:\n        /* \"#utility.yul\":871:990   */\n    tag_33:\n        /* \"#utility.yul\":1057:1058   */\n      0x00\n        /* \"#utility.yul\":1046:1055   */\n      dup3\n        /* \"#utility.yul\":1042:1059   */\n      add\n        /* \"#utility.yul\":1029:1060   */\n      calldataload\n        /* \"#utility.yul\":1087:1105   */\n      0xffffffffffffffff\n        /* \"#utility.yul\":1079:1085   */\n      dup2\n        /* \"#utility.yul\":1076:1106   */\n      gt\n        /* \"#utility.yul\":1073:1190   */\n      iszero\n      tag_36\n      jumpi\n        /* \"#utility.yul\":1109:1188   */\n      tag_37\n      tag_38\n      jump\t// in\n    tag_37:\n        /* \"#utility.yul\":1073:1190   */\n    tag_36:\n        /* \"#utility.yul\":1214:1277   */\n      tag_39\n        /* \"#utility.yul\":1269:1276   */\n      dup5\n        /* \"#utility.yul\":1260:1266   */\n      dup3\n        /* \"#utility.yul\":1249:1258   */\n      dup6\n        /* \"#utility.yul\":1245:1267   */\n      add\n        /* \"#utility.yul\":1214:1277   */\n      tag_26\n      jump\t// in\n    tag_39:\n        /* \"#utility.yul\":1204:1277   */\n      swap2\n      pop\n        /* \"#utility.yul\":1000:1287   */\n      pop\n        /* \"#utility.yul\":785:1294   */\n      swap3\n      swap2\n      pop\n      pop\n      jump\t// out\n        /* \"#utility.yul\":1300:1415   */\n    tag_40:\n        /* \"#utility.yul\":1385:1408   */\n      tag_42\n        /* \"#utility.yul\":1402:1407   */\n      dup2\n        /* \"#utility.yul\":1385:1408   */\n      tag_43\n      jump\t// in\n    tag_42:\n        /* \"#utility.yul\":1380:1383   */\n      dup3\n        /* \"#utility.yul\":1373:1409   */\n      mstore\n        /* \"#utility.yul\":1300:1415   */\n      pop\n      pop\n      jump\t// out\n        /* \"#utility.yul\":1421:1639   */\n    tag_12:\n        /* \"#utility.yul\":1512:1516   */\n      0x00\n        /* \"#utility.yul\":1550:1552   */\n      0x20\n        /* \"#utility.yul\":1539:1548   */\n      dup3\n        /* \"#utility.yul\":1535:1553   */\n      add\n        /* \"#utility.yul\":1527:1553   */\n      swap1\n      pop\n        /* \"#utility.yul\":1563:1632   */\n      tag_45\n        /* \"#utility.yul\":1629:1630   */\n      0x00\n        /* \"#utility.yul\":1618:1627   */\n      dup4\n        /* \"#utility.yul\":1614:1631   */\n      add\n        /* \"#utility.yul\":1605:1611   */\n      dup5\n        /* \"#utility.yul\":1563:1632   */\n      tag_40\n      jump\t// in\n    tag_45:\n        /* \"#utility.yul\":1421:1639   */\n      swap3\n      swap2\n      pop\n      pop\n      jump\t// out\n        /* \"#utility.yul\":1645:1774   */\n    tag_20:\n        /* \"#utility.yul\":1679:1685   */\n      0x00\n        /* \"#utility.yul\":1706:1726   */\n      tag_47\n      tag_48\n      jump\t// in\n    tag_47:\n        /* \"#utility.yul\":1696:1726   */\n      swap1\n      pop\n        /* \"#utility.yul\":1735:1768   */\n      tag_49\n        /* \"#utility.yul\":1763:1767   */\n      dup3\n        /* \"#utility.yul\":1755:1761   */\n      dup3\n        /* \"#utility.yul\":1735:1768   */\n      tag_50\n      jump\t// in\n    tag_49:\n        /* \"#utility.yul\":1645:1774   */\n      swap2\n      swap1\n      pop\n      jump\t// out\n        /* \"#utility.yul\":1780:1855   */\n    tag_48:\n        /* \"#utility.yul\":1813:1819   */\n      0x00\n        /* \"#utility.yul\":1846:1848   */\n      0x40\n        /* \"#utility.yul\":1840:1849   */\n      mload\n        /* \"#utility.yul\":1830:1849   */\n      swap1\n      pop\n        /* \"#utility.yul\":1780:1855   */\n      swap1\n      jump\t// out\n        /* \"#utility.yul\":1861:2169   */\n    tag_19:\n        /* \"#utility.yul\":1923:1927   */\n      0x00\n        /* \"#utility.yul\":2013:2031   */\n      0xffffffffffffffff\n        /* \"#utility.yul\":2005:2011   */\n      dup3\n        /* \"#utility.yul\":2002:2032   */\n      gt\n        /* \"#utility.yul\":1999:2055   */\n      iszero\n      tag_53\n      jumpi\n        /* \"#utility.yul\":2035:2053   */\n      tag_54\n      tag_55\n      jump\t// in\n    tag_54:\n        /* \"#utility.yul\":1999:2055   */\n    tag_53:\n        /* \"#utility.yul\":2073:2102   */\n      tag_56\n        /* \"#utility.yul\":2095:2101   */\n      dup3\n        /* \"#utility.yul\":2073:2102   */\n      tag_57\n      jump\t// in\n    tag_56:\n        /* \"#utility.yul\":2065:2102   */\n      swap1\n      pop\n        /* \"#utility.yul\":2157:2161   */\n      0x20\n        /* \"#utility.yul\":2151:2155   */\n      dup2\n        /* \"#utility.yul\":2147:2162   */\n      add\n        /* \"#utility.yul\":2139:2162   */\n      swap1\n      pop\n        /* \"#utility.yul\":1861:2169   */\n      swap2\n      swap1\n      pop\n      jump\t// out\n        /* \"#utility.yul\":2175:2251   */\n    tag_43:\n        /* \"#utility.yul\":2211:2218   */\n      0x00\n        /* \"#utility.yul\":2240:2245   */\n      dup2\n        /* \"#utility.yul\":2229:2245   */\n      swap1\n      pop\n        /* \"#utility.yul\":2175:2251   */\n      swap2\n      swap1\n      pop\n      jump\t// out\n        /* \"#utility.yul\":2257:2411   */\n    tag_25:\n        /* \"#utility.yul\":2341:2347   */\n      dup3\n        /* \"#utility.yul\":2336:2339   */\n      dup2\n        /* \"#utility.yul\":2331:2334   */\n      dup4\n        /* \"#utility.yul\":2318:2348   */\n      calldatacopy\n        /* \"#utility.yul\":2403:2404   */\n      0x00\n        /* \"#utility.yul\":2394:2400   */\n      dup4\n        /* \"#utility.yul\":2389:2392   */\n      dup4\n        /* \"#utility.yul\":2385:2401   */\n      add\n        /* \"#utility.yul\":2378:2405   */\n      mstore\n        /* \"#utility.yul\":2257:2411   */\n      pop\n      pop\n      pop\n      jump\t// out\n        /* \"#utility.yul\":2417:2698   */\n    tag_50:\n        /* \"#utility.yul\":2500:2527   */\n      tag_61\n        /* \"#utility.yul\":2522:2526   */\n      dup3\n        /* \"#utility.yul\":2500:2527   */\n      tag_57\n      jump\t// in\n    tag_61:\n        /* \"#utility.yul\":2492:2498   */\n      dup2\n        /* \"#utility.yul\":2488:2528   */\n      add\n        /* \"#utility.yul\":2630:2636   */\n      dup2\n        /* \"#utility.yul\":2618:2628   */\n      dup2\n        /* \"#utility.yul\":2615:2637   */\n      lt\n        /* \"#utility.yul\":2594:2612   */\n      0xffffffffffffffff\n        /* \"#utility.yul\":2582:2592   */\n      dup3\n        /* \"#utility.yul\":2579:2613   */\n      gt\n        /* \"#utility.yul\":2576:2638   */\n      or\n        /* \"#utility.yul\":2573:2661   */\n      iszero\n      tag_62\n      jumpi\n        /* \"#utility.yul\":2641:2659   */\n      tag_63\n      tag_55\n      jump\t// in\n    tag_63:\n        /* \"#utility.yul\":2573:2661   */\n    tag_62:\n        /* \"#utility.yul\":2681:2691   */\n      dup1\n        /* \"#utility.yul\":2677:2679   */\n      0x40\n        /* \"#utility.yul\":2670:2692   */\n      mstore\n        /* \"#utility.yul\":2460:2698   */\n      pop\n        /* \"#utility.yul\":2417:2698   */\n      pop\n      pop\n      jump\t// out\n        /* \"#utility.yul\":2704:2884   */\n    tag_55:\n        /* \"#utility.yul\":2752:2829   */\n      0x4e487b7100000000000000000000000000000000000000000000000000000000\n        /* \"#utility.yul\":2749:2750   */\n      0x00\n        /* \"#utility.yul\":2742:2830   */\n      mstore\n        /* \"#utility.yul\":2849:2853   */\n      0x41\n        /* \"#utility.yul\":2846:2847   */\n      0x04\n        /* \"#utility.yul\":2839:2854   */\n      mstore\n        /* \"#utility.yul\":2873:2877   */\n      0x24\n        /* \"#utility.yul\":2870:2871   */\n      0x00\n        /* \"#utility.yul\":2863:2878   */\n      revert\n        /* \"#utility.yul\":2890:3007   */\n    tag_30:\n        /* \"#utility.yul\":2999:3000   */\n      0x00\n        /* \"#utility.yul\":2996:2997   */\n      dup1\n        /* \"#utility.yul\":2989:3001   */\n      revert\n        /* \"#utility.yul\":3013:3130   */\n    tag_23:\n        /* \"#utility.yul\":3122:3123   */\n      0x00\n        /* \"#utility.yul\":3119:3120   */\n      dup1\n        /* \"#utility.yul\":3112:3124   */\n      revert\n        /* \"#utility.yul\":3136:3253   */\n    tag_38:\n        /* \"#utility.yul\":3245:3246   */\n      0x00\n        /* \"#utility.yul\":3242:3243   */\n      dup1\n        /* \"#utility.yul\":3235:3247   */\n      revert\n        /* \"#utility.yul\":3259:3376   */\n    tag_35:\n        /* \"#utility.yul\":3368:3369   */\n      0x00\n        /* \"#utility.yul\":3365:3366   */\n      dup1\n        /* \"#utility.yul\":3358:3370   */\n      revert\n        /* \"#utility.yul\":3382:3484   */\n    tag_57:\n        /* \"#utility.yul\":3423:3429   */\n      0x00\n        /* \"#utility.yul\":3474:3476   */\n      0x1f\n        /* \"#utility.yul\":3470:3477   */\n      not\n        /* \"#utility.yul\":3465:3467   */\n      0x1f\n        /* \"#utility.yul\":3458:3463   */\n      dup4\n        /* \"#utility.yul\":3454:3468   */\n      add\n        /* \"#utility.yul\":3450:3478   */\n      and\n        /* \"#utility.yul\":3440:3478   */\n      swap1\n      pop\n        /* \"#utility.yul\":3382:3484   */\n      swap2\n      swap1\n      pop\n      jump\t// out\n\n    auxdata: 0xa2646970667358221220b4943074ac86d547d23c0804bba27674ab699c643fd5635c686cca9caf049f9764736f6c63430008070033\n}\n",
				"bytecode": {
					"linkReferences": {},
					"object": "608060405234801561001057600080fd5b5061028b806100206000396000f3fe608060405234801561001057600080fd5b50600436106100365760003560e01c8063318f79d31461003b578063e5aa3d5814610057575b600080fd5b610055600480360381019061005091906100ee565b610075565b005b61005f610078565b60405161006c9190610146565b60405180910390f35b50565b60005481565b600061009161008c84610186565b610161565b9050828152602081018484840111156100ad576100ac610235565b5b6100b88482856101c1565b509392505050565b600082601f8301126100d5576100d4610230565b5b81356100e584826020860161007e565b91505092915050565b6000602082840312156101045761010361023f565b5b600082013567ffffffffffffffff8111156101225761012161023a565b5b61012e848285016100c0565b91505092915050565b610140816101b7565b82525050565b600060208201905061015b6000830184610137565b92915050565b600061016b61017c565b905061017782826101d0565b919050565b6000604051905090565b600067ffffffffffffffff8211156101a1576101a0610201565b5b6101aa82610244565b9050602081019050919050565b6000819050919050565b82818337600083830152505050565b6101d982610244565b810181811067ffffffffffffffff821117156101f8576101f7610201565b5b80604052505050565b7f4e487b7100000000000000000000000000000000000000000000000000000000600052604160045260246000fd5b600080fd5b600080fd5b600080fd5b600080fd5b6000601f19601f830116905091905056fea2646970667358221220b4943074ac86d547d23c0804bba27674ab699c643fd5635c686cca9caf049f9764736f6c63430008070033",
					"opcodes": "PUSH1 0x80 PUSH1 0x40 MSTORE CALLVALUE DUP1 ISZERO PUSH2 0x10 JUMPI PUSH1 0x0 DUP1 REVERT JUMPDEST POP PUSH2 0x28B DUP1 PUSH2 0x20 PUSH1 0x0 CODECOPY PUSH1 0x0 RETURN INVALID PUSH1 0x80 PUSH1 0x40 MSTORE CALLVALUE DUP1 ISZERO PUSH2 0x10 JUMPI PUSH1 0x0 DUP1 REVERT JUMPDEST POP PUSH1 0x4 CALLDATASIZE LT PUSH2 0x36 JUMPI PUSH1 0x0 CALLDATALOAD PUSH1 0xE0 SHR DUP1 PUSH4 0x318F79D3 EQ PUSH2 0x3B JUMPI DUP1 PUSH4 0xE5AA3D58 EQ PUSH2 0x57 JUMPI JUMPDEST PUSH1 0x0 DUP1 REVERT JUMPDEST PUSH2 0x55 PUSH1 0x4 DUP1 CALLDATASIZE SUB DUP2 ADD SWAP1 PUSH2 0x50 SWAP2 SWAP1 PUSH2 0xEE JUMP JUMPDEST PUSH2 0x75 JUMP JUMPDEST STOP JUMPDEST PUSH2 0x5F PUSH2 0x78 JUMP JUMPDEST PUSH1 0x40 MLOAD PUSH2 0x6C SWAP2 SWAP1 PUSH2 0x146 JUMP JUMPDEST PUSH1 0x40 MLOAD DUP1 SWAP2 SUB SWAP1 RETURN JUMPDEST POP JUMP JUMPDEST PUSH1 0x0 SLOAD DUP2 JUMP JUMPDEST PUSH1 0x0 PUSH2 0x91 PUSH2 0x8C DUP5 PUSH2 0x186 JUMP JUMPDEST PUSH2 0x161 JUMP JUMPDEST SWAP1 POP DUP3 DUP2 MSTORE PUSH1 0x20 DUP2 ADD DUP5 DUP5 DUP5 ADD GT ISZERO PUSH2 0xAD JUMPI PUSH2 0xAC PUSH2 0x235 JUMP JUMPDEST JUMPDEST PUSH2 0xB8 DUP5 DUP3 DUP6 PUSH2 0x1C1 JUMP JUMPDEST POP SWAP4 SWAP3 POP POP POP JUMP JUMPDEST PUSH1 0x0 DUP3 PUSH1 0x1F DUP4 ADD SLT PUSH2 0xD5 JUMPI PUSH2 0xD4 PUSH2 0x230 JUMP JUMPDEST JUMPDEST DUP2 CALLDATALOAD PUSH2 0xE5 DUP5 DUP3 PUSH1 0x20 DUP7 ADD PUSH2 0x7E JUMP JUMPDEST SWAP2 POP POP SWAP3 SWAP2 POP POP JUMP JUMPDEST PUSH1 0x0 PUSH1 0x20 DUP3 DUP5 SUB SLT ISZERO PUSH2 0x104 JUMPI PUSH2 0x103 PUSH2 0x23F JUMP JUMPDEST JUMPDEST PUSH1 0x0 DUP3 ADD CALLDATALOAD PUSH8 0xFFFFFFFFFFFFFFFF DUP2 GT ISZERO PUSH2 0x122 JUMPI PUSH2 0x121 PUSH2 0x23A JUMP JUMPDEST JUMPDEST PUSH2 0x12E DUP5 DUP3 DUP6 ADD PUSH2 0xC0 JUMP JUMPDEST SWAP2 POP POP SWAP3 SWAP2 POP POP JUMP JUMPDEST PUSH2 0x140 DUP2 PUSH2 0x1B7 JUMP JUMPDEST DUP3 MSTORE POP POP JUMP JUMPDEST PUSH1 0x0 PUSH1 0x20 DUP3 ADD SWAP1 POP PUSH2 0x15B PUSH1 0x0 DUP4 ADD DUP5 PUSH2 0x137 JUMP JUMPDEST SWAP3 SWAP2 POP POP JUMP JUMPDEST PUSH1 0x0 PUSH2 0x16B PUSH2 0x17C JUMP JUMPDEST SWAP1 POP PUSH2 0x177 DUP3 DUP3 PUSH2 0x1D0 JUMP JUMPDEST SWAP2 SWAP1 POP JUMP JUMPDEST PUSH1 0x0 PUSH1 0x40 MLOAD SWAP1 POP SWAP1 JUMP JUMPDEST PUSH1 0x0 PUSH8 0xFFFFFFFFFFFFFFFF DUP3 GT ISZERO PUSH2 0x1A1 JUMPI PUSH2 0x1A0 PUSH2 0x201 JUMP JUMPDEST JUMPDEST PUSH2 0x1AA DUP3 PUSH2 0x244 JUMP JUMPDEST SWAP1 POP PUSH1 0x20 DUP2 ADD SWAP1 POP SWAP2 SWAP1 POP JUMP JUMPDEST PUSH1 0x0 DUP2 SWAP1 POP SWAP2 SWAP1 POP JUMP JUMPDEST DUP3 DUP2 DUP4 CALLDATACOPY PUSH1 0x0 DUP4 DUP4 ADD MSTORE POP POP POP JUMP JUMPDEST PUSH2 0x1D9 DUP3 PUSH2 0x244 JUMP JUMPDEST DUP2 ADD DUP2 DUP2 LT PUSH8 0xFFFFFFFFFFFFFFFF DUP3 GT OR ISZERO PUSH2 0x1F8 JUMPI PUSH2 0x1F7 PUSH2 0x201 JUMP JUMPDEST JUMPDEST DUP1 PUSH1 0x40 MSTORE POP POP POP JUMP JUMPDEST PUSH32 0x4E487B7100000000000000000000000000000000000000000000000000000000 PUSH1 0x0 MSTORE PUSH1 0x41 PUSH1 0x4 MSTORE PUSH1 0x24 PUSH1 0x0 REVERT JUMPDEST PUSH1 0x0 DUP1 REVERT JUMPDEST PUSH1 0x0 DUP1 REVERT JUMPDEST PUSH1 0x0 DUP1 REVERT JUMPDEST PUSH1 0x0 DUP1 REVERT JUMPDEST PUSH1 0x0 PUSH1 0x1F NOT PUSH1 0x1F DUP4 ADD AND SWAP1 POP SWAP2 SWAP1 POP JUMP INVALID LOG2 PUSH5 0x6970667358 0x22 SLT KECCAK256 0xB4 SWAP5 ADDRESS PUSH21 0xAC86D547D23C0804BBA27674AB699C643FD5635C68 PUSH13 0xCA9CAF049F9764736F6C634300 ADDMOD SMOD STOP CALLER "
				},
				"gasEstimates": {
					"creation": {
						"codeDepositCost": "130200",
						"executionCost": "177",
						"totalCost": "130377"
					},
					"external": {
						"f1(string)": "infinite",
						"i()": "2429"
					}
				},
				"methodIdentifiers": {
					"f1(string)": "318f79d3",
					"i()": "e5aa3d58"
				}
			},
			"storageLayout": {
				"storage": [
					{
						"astId": 3,
						"contract": "storage.sol:StorageTest",
						"label": "i",
						"offset": 0,
						"slot": "0",
						"type": "t_int256"
					}
				],
				"types": {
					"t_int256": {
						"encoding": "inplace",
						"label": "int256",
						"numberOfBytes": "32"
					}
				}
			},
			"userdoc": {
				"kind": "user",
				"methods": {},
				"version": 1
			}
		}
	}
}