{
	"todoList.sol": {
		"TodoList": {
			"abi": [
				{
					"inputs": [
						{
							"internalType": "address",
							"name": "adr",
							"type": "address"
						},
						{
							"internalType": "string",
							"name": "_val",
							"type": "string"
						}
					],
					"name": "addTask",
					"outputs": [],
					"stateMutability": "nonpayable",
					"type": "function"
				},
				{
					"inputs": [],
					"name": "getList",
					"outputs": [
						{
							"components": [
								{
									"internalType": "address",
									"name": "adr",
									"type": "address"
								},
								{
									"internalType": "string",
									"name": "value",
									"type": "string"
								}
							],
							"internalType": "struct TodoList.Task[]",
							"name": "",
							"type": "tuple[]"
						}
					],
					"stateMutability": "view",
					"type": "function"
				}
			],
			"devdoc": {
				"kind": "dev",
				"methods": {},
				"version": 1
			},
			"evm": {
				"assembly": "    /* \"todoList.sol\":61:378  contract TodoList {\r... */\n  mstore(0x40, 0x80)\n  callvalue\n  dup1\n  iszero\n  tag_1\n  jumpi\n  0x00\n  dup1\n  revert\ntag_1:\n  pop\n  dataSize(sub_0)\n  dup1\n  dataOffset(sub_0)\n  0x00\n  codecopy\n  0x00\n  return\nstop\n\nsub_0: assembly {\n        /* \"todoList.sol\":61:378  contract TodoList {\r... */\n      mstore(0x40, 0x80)\n      callvalue\n      dup1\n      iszero\n      tag_1\n      jumpi\n      0x00\n      dup1\n      revert\n    tag_1:\n      pop\n      jumpi(tag_2, lt(calldatasize, 0x04))\n      shr(0xe0, calldataload(0x00))\n      dup1\n      0x942b765a\n      eq\n      tag_3\n      jumpi\n      dup1\n      0xbc6d30ee\n      eq\n      tag_4\n      jumpi\n    tag_2:\n      0x00\n      dup1\n      revert\n        /* \"todoList.sol\":288:373  function getList () public view returns (Task[] memory){\r... */\n    tag_3:\n      tag_5\n      tag_6\n      jump\t// in\n    tag_5:\n      mload(0x40)\n      tag_7\n      swap2\n      swap1\n      tag_8\n      jump\t// in\n    tag_7:\n      mload(0x40)\n      dup1\n      swap2\n      sub\n      swap1\n      return\n        /* \"todoList.sol\":179:280  function addTask(address adr, string memory _val) public {\r... */\n    tag_4:\n      tag_9\n      0x04\n      dup1\n      calldatasize\n      sub\n      dup2\n      add\n      swap1\n      tag_10\n      swap2\n      swap1\n      tag_11\n      jump\t// in\n    tag_10:\n      tag_12\n      jump\t// in\n    tag_9:\n      stop\n        /* \"todoList.sol\":288:373  function getList () public view returns (Task[] memory){\r... */\n    tag_6:\n        /* \"todoList.sol\":329:342  Task[] memory */\n      0x60\n        /* \"todoList.sol\":361:365  list */\n      0x00\n        /* \"todoList.sol\":354:365  return list */\n      dup1\n      sload\n      dup1\n      0x20\n      mul\n      0x20\n      add\n      mload(0x40)\n      swap1\n      dup2\n      add\n      0x40\n      mstore\n      dup1\n      swap3\n      swap2\n      swap1\n      dup2\n      dup2\n      mstore\n      0x20\n      add\n      0x00\n      swap1\n    tag_14:\n      dup3\n      dup3\n      lt\n      iszero\n      tag_15\n      jumpi\n      dup4\n      dup3\n      swap1\n      0x00\n      mstore\n      keccak256(0x00, 0x20)\n      swap1\n      0x02\n      mul\n      add\n      mload(0x40)\n      dup1\n      0x40\n      add\n      0x40\n      mstore\n      swap1\n      dup2\n      0x00\n      dup3\n      add\n      0x00\n      swap1\n      sload\n      swap1\n      0x0100\n      exp\n      swap1\n      div\n      0xffffffffffffffffffffffffffffffffffffffff\n      and\n      0xffffffffffffffffffffffffffffffffffffffff\n      and\n      0xffffffffffffffffffffffffffffffffffffffff\n      and\n      dup2\n      mstore\n      0x20\n      add\n      0x01\n      dup3\n      add\n      dup1\n      sload\n      tag_17\n      swap1\n      tag_18\n      jump\t// in\n    tag_17:\n      dup1\n      0x1f\n      add\n      0x20\n      dup1\n      swap2\n      div\n      mul\n      0x20\n      add\n      mload(0x40)\n      swap1\n      dup2\n      add\n      0x40\n      mstore\n      dup1\n      swap3\n      swap2\n      swap1\n      dup2\n      dup2\n      mstore\n      0x20\n      add\n      dup3\n      dup1\n      sload\n      tag_19\n      swap1\n      tag_18\n      jump\t// in\n    tag_19:\n      dup1\n      iszero\n      tag_20\n      jumpi\n      dup1\n      0x1f\n      lt\n      tag_21\n      jumpi\n      0x0100\n      dup1\n      dup4\n      sload\n      div\n      mul\n      dup4\n      mstore\n      swap2\n      0x20\n      add\n      swap2\n      jump(tag_20)\n    tag_21:\n      dup3\n      add\n      swap2\n      swap1\n      0x00\n      mstore\n      keccak256(0x00, 0x20)\n      swap1\n    tag_22:\n      dup2\n      sload\n      dup2\n      mstore\n      swap1\n      0x01\n      add\n      swap1\n      0x20\n      add\n      dup1\n      dup4\n      gt\n      tag_22\n      jumpi\n      dup3\n      swap1\n      sub\n      0x1f\n      and\n      dup3\n      add\n      swap2\n    tag_20:\n      pop\n      pop\n      pop\n      pop\n      pop\n      dup2\n      mstore\n      pop\n      pop\n      dup2\n      mstore\n      0x20\n      add\n      swap1\n      0x01\n      add\n      swap1\n      jump(tag_14)\n    tag_15:\n      pop\n      pop\n      pop\n      pop\n      swap1\n      pop\n        /* \"todoList.sol\":288:373  function getList () public view returns (Task[] memory){\r... */\n      swap1\n      jump\t// out\n        /* \"todoList.sol\":179:280  function addTask(address adr, string memory _val) public {\r... */\n    tag_12:\n        /* \"todoList.sol\":247:251  list */\n      0x00\n        /* \"todoList.sol\":257:271  Task(adr,_val) */\n      mload(0x40)\n      dup1\n      0x40\n      add\n      0x40\n      mstore\n      dup1\n        /* \"todoList.sol\":262:265  adr */\n      dup5\n        /* \"todoList.sol\":257:271  Task(adr,_val) */\n      0xffffffffffffffffffffffffffffffffffffffff\n      and\n      dup2\n      mstore\n      0x20\n      add\n        /* \"todoList.sol\":266:270  _val */\n      dup4\n        /* \"todoList.sol\":257:271  Task(adr,_val) */\n      dup2\n      mstore\n      pop\n        /* \"todoList.sol\":247:272  list.push(Task(adr,_val)) */\n      swap1\n      dup1\n      0x01\n      dup2\n      sload\n      add\n      dup1\n      dup3\n      sstore\n      dup1\n      swap2\n      pop\n      pop\n      0x01\n      swap1\n      sub\n      swap1\n      0x00\n      mstore\n      keccak256(0x00, 0x20)\n      swap1\n      0x02\n      mul\n      add\n      0x00\n      swap1\n      swap2\n      swap1\n      swap2\n      swap1\n      swap2\n      pop\n      0x00\n      dup3\n      add\n      mload\n      dup2\n      0x00\n      add\n      exp(0x0100, 0x00)\n      dup2\n      sload\n      dup2\n      0xffffffffffffffffffffffffffffffffffffffff\n      mul\n      not\n      and\n      swap1\n      dup4\n      0xffffffffffffffffffffffffffffffffffffffff\n      and\n      mul\n      or\n      swap1\n      sstore\n      pop\n      0x20\n      dup3\n      add\n      mload\n      dup2\n      0x01\n      add\n      swap1\n      dup1\n      mload\n      swap1\n      0x20\n      add\n      swap1\n      tag_25\n      swap3\n      swap2\n      swap1\n      tag_26\n      jump\t// in\n    tag_25:\n      pop\n      pop\n      pop\n        /* \"todoList.sol\":179:280  function addTask(address adr, string memory _val) public {\r... */\n      pop\n      pop\n      jump\t// out\n    tag_26:\n      dup3\n      dup1\n      sload\n      tag_27\n      swap1\n      tag_18\n      jump\t// in\n    tag_27:\n      swap1\n      0x00\n      mstore\n      keccak256(0x00, 0x20)\n      swap1\n      0x1f\n      add\n      0x20\n      swap1\n      div\n      dup2\n      add\n      swap3\n      dup3\n      tag_29\n      jumpi\n      0x00\n      dup6\n      sstore\n      jump(tag_28)\n    tag_29:\n      dup3\n      0x1f\n      lt\n      tag_30\n      jumpi\n      dup1\n      mload\n      not(0xff)\n      and\n      dup4\n      dup1\n      add\n      or\n      dup6\n      sstore\n      jump(tag_28)\n    tag_30:\n      dup3\n      dup1\n      add\n      0x01\n      add\n      dup6\n      sstore\n      dup3\n      iszero\n      tag_28\n      jumpi\n      swap2\n      dup3\n      add\n    tag_31:\n      dup3\n      dup2\n      gt\n      iszero\n      tag_32\n      jumpi\n      dup3\n      mload\n      dup3\n      sstore\n      swap2\n      0x20\n      add\n      swap2\n      swap1\n      0x01\n      add\n      swap1\n      jump(tag_31)\n    tag_32:\n    tag_28:\n      pop\n      swap1\n      pop\n      tag_33\n      swap2\n      swap1\n      tag_34\n      jump\t// in\n    tag_33:\n      pop\n      swap1\n      jump\t// out\n    tag_34:\n    tag_35:\n      dup1\n      dup3\n      gt\n      iszero\n      tag_36\n      jumpi\n      0x00\n      dup2\n      0x00\n      swap1\n      sstore\n      pop\n      0x01\n      add\n      jump(tag_35)\n    tag_36:\n      pop\n      swap1\n      jump\t// out\n        /* \"#utility.yul\":7:419   */\n    tag_38:\n        /* \"#utility.yul\":85:90   */\n      0x00\n        /* \"#utility.yul\":110:176   */\n      tag_40\n        /* \"#utility.yul\":126:175   */\n      tag_41\n        /* \"#utility.yul\":168:174   */\n      dup5\n        /* \"#utility.yul\":126:175   */\n      tag_42\n      jump\t// in\n    tag_41:\n        /* \"#utility.yul\":110:176   */\n      tag_43\n      jump\t// in\n    tag_40:\n        /* \"#utility.yul\":101:176   */\n      swap1\n      pop\n        /* \"#utility.yul\":199:205   */\n      dup3\n        /* \"#utility.yul\":192:197   */\n      dup2\n        /* \"#utility.yul\":185:206   */\n      mstore\n        /* \"#utility.yul\":237:241   */\n      0x20\n        /* \"#utility.yul\":230:235   */\n      dup2\n        /* \"#utility.yul\":226:242   */\n      add\n        /* \"#utility.yul\":275:278   */\n      dup5\n        /* \"#utility.yul\":266:272   */\n      dup5\n        /* \"#utility.yul\":261:264   */\n      dup5\n        /* \"#utility.yul\":257:273   */\n      add\n        /* \"#utility.yul\":254:279   */\n      gt\n        /* \"#utility.yul\":251:363   */\n      iszero\n      tag_44\n      jumpi\n        /* \"#utility.yul\":282:361   */\n      tag_45\n      tag_46\n      jump\t// in\n    tag_45:\n        /* \"#utility.yul\":251:363   */\n    tag_44:\n        /* \"#utility.yul\":372:413   */\n      tag_47\n        /* \"#utility.yul\":406:412   */\n      dup5\n        /* \"#utility.yul\":401:404   */\n      dup3\n        /* \"#utility.yul\":396:399   */\n      dup6\n        /* \"#utility.yul\":372:413   */\n      tag_48\n      jump\t// in\n    tag_47:\n        /* \"#utility.yul\":91:419   */\n      pop\n        /* \"#utility.yul\":7:419   */\n      swap4\n      swap3\n      pop\n      pop\n      pop\n      jump\t// out\n        /* \"#utility.yul\":425:564   */\n    tag_49:\n        /* \"#utility.yul\":471:476   */\n      0x00\n        /* \"#utility.yul\":509:515   */\n      dup2\n        /* \"#utility.yul\":496:516   */\n      calldataload\n        /* \"#utility.yul\":487:516   */\n      swap1\n      pop\n        /* \"#utility.yul\":525:558   */\n      tag_51\n        /* \"#utility.yul\":552:557   */\n      dup2\n        /* \"#utility.yul\":525:558   */\n      tag_52\n      jump\t// in\n    tag_51:\n        /* \"#utility.yul\":425:564   */\n      swap3\n      swap2\n      pop\n      pop\n      jump\t// out\n        /* \"#utility.yul\":584:924   */\n    tag_53:\n        /* \"#utility.yul\":640:645   */\n      0x00\n        /* \"#utility.yul\":689:692   */\n      dup3\n        /* \"#utility.yul\":682:686   */\n      0x1f\n        /* \"#utility.yul\":674:680   */\n      dup4\n        /* \"#utility.yul\":670:687   */\n      add\n        /* \"#utility.yul\":666:693   */\n      slt\n        /* \"#utility.yul\":656:778   */\n      tag_55\n      jumpi\n        /* \"#utility.yul\":697:776   */\n      tag_56\n      tag_57\n      jump\t// in\n    tag_56:\n        /* \"#utility.yul\":656:778   */\n    tag_55:\n        /* \"#utility.yul\":814:820   */\n      dup2\n        /* \"#utility.yul\":801:821   */\n      calldataload\n        /* \"#utility.yul\":839:918   */\n      tag_58\n        /* \"#utility.yul\":914:917   */\n      dup5\n        /* \"#utility.yul\":906:912   */\n      dup3\n        /* \"#utility.yul\":899:903   */\n      0x20\n        /* \"#utility.yul\":891:897   */\n      dup7\n        /* \"#utility.yul\":887:904   */\n      add\n        /* \"#utility.yul\":839:918   */\n      tag_38\n      jump\t// in\n    tag_58:\n        /* \"#utility.yul\":830:918   */\n      swap2\n      pop\n        /* \"#utility.yul\":646:924   */\n      pop\n        /* \"#utility.yul\":584:924   */\n      swap3\n      swap2\n      pop\n      pop\n      jump\t// out\n        /* \"#utility.yul\":930:1584   */\n    tag_11:\n        /* \"#utility.yul\":1008:1014   */\n      0x00\n        /* \"#utility.yul\":1016:1022   */\n      dup1\n        /* \"#utility.yul\":1065:1067   */\n      0x40\n        /* \"#utility.yul\":1053:1062   */\n      dup4\n        /* \"#utility.yul\":1044:1051   */\n      dup6\n        /* \"#utility.yul\":1040:1063   */\n      sub\n        /* \"#utility.yul\":1036:1068   */\n      slt\n        /* \"#utility.yul\":1033:1152   */\n      iszero\n      tag_60\n      jumpi\n        /* \"#utility.yul\":1071:1150   */\n      tag_61\n      tag_62\n      jump\t// in\n    tag_61:\n        /* \"#utility.yul\":1033:1152   */\n    tag_60:\n        /* \"#utility.yul\":1191:1192   */\n      0x00\n        /* \"#utility.yul\":1216:1269   */\n      tag_63\n        /* \"#utility.yul\":1261:1268   */\n      dup6\n        /* \"#utility.yul\":1252:1258   */\n      dup3\n        /* \"#utility.yul\":1241:1250   */\n      dup7\n        /* \"#utility.yul\":1237:1259   */\n      add\n        /* \"#utility.yul\":1216:1269   */\n      tag_49\n      jump\t// in\n    tag_63:\n        /* \"#utility.yul\":1206:1269   */\n      swap3\n      pop\n        /* \"#utility.yul\":1162:1279   */\n      pop\n        /* \"#utility.yul\":1346:1348   */\n      0x20\n        /* \"#utility.yul\":1335:1344   */\n      dup4\n        /* \"#utility.yul\":1331:1349   */\n      add\n        /* \"#utility.yul\":1318:1350   */\n      calldataload\n        /* \"#utility.yul\":1377:1395   */\n      0xffffffffffffffff\n        /* \"#utility.yul\":1369:1375   */\n      dup2\n        /* \"#utility.yul\":1366:1396   */\n      gt\n        /* \"#utility.yul\":1363:1480   */\n      iszero\n      tag_64\n      jumpi\n        /* \"#utility.yul\":1399:1478   */\n      tag_65\n      tag_66\n      jump\t// in\n    tag_65:\n        /* \"#utility.yul\":1363:1480   */\n    tag_64:\n        /* \"#utility.yul\":1504:1567   */\n      tag_67\n        /* \"#utility.yul\":1559:1566   */\n      dup6\n        /* \"#utility.yul\":1550:1556   */\n      dup3\n        /* \"#utility.yul\":1539:1548   */\n      dup7\n        /* \"#utility.yul\":1535:1557   */\n      add\n        /* \"#utility.yul\":1504:1567   */\n      tag_53\n      jump\t// in\n    tag_67:\n        /* \"#utility.yul\":1494:1567   */\n      swap2\n      pop\n        /* \"#utility.yul\":1289:1577   */\n      pop\n        /* \"#utility.yul\":930:1584   */\n      swap3\n      pop\n      swap3\n      swap1\n      pop\n      jump\t// out\n        /* \"#utility.yul\":1590:1822   */\n    tag_68:\n        /* \"#utility.yul\":1697:1707   */\n      0x00\n        /* \"#utility.yul\":1732:1816   */\n      tag_70\n        /* \"#utility.yul\":1812:1815   */\n      dup4\n        /* \"#utility.yul\":1804:1810   */\n      dup4\n        /* \"#utility.yul\":1732:1816   */\n      tag_71\n      jump\t// in\n    tag_70:\n        /* \"#utility.yul\":1718:1816   */\n      swap1\n      pop\n        /* \"#utility.yul\":1590:1822   */\n      swap3\n      swap2\n      pop\n      pop\n      jump\t// out\n        /* \"#utility.yul\":1828:1936   */\n    tag_72:\n        /* \"#utility.yul\":1905:1929   */\n      tag_74\n        /* \"#utility.yul\":1923:1928   */\n      dup2\n        /* \"#utility.yul\":1905:1929   */\n      tag_75\n      jump\t// in\n    tag_74:\n        /* \"#utility.yul\":1900:1903   */\n      dup3\n        /* \"#utility.yul\":1893:1930   */\n      mstore\n        /* \"#utility.yul\":1828:1936   */\n      pop\n      pop\n      jump\t// out\n        /* \"#utility.yul\":1998:3061   */\n    tag_76:\n        /* \"#utility.yul\":2155:2158   */\n      0x00\n        /* \"#utility.yul\":2184:2257   */\n      tag_78\n        /* \"#utility.yul\":2251:2256   */\n      dup3\n        /* \"#utility.yul\":2184:2257   */\n      tag_79\n      jump\t// in\n    tag_78:\n        /* \"#utility.yul\":2273:2378   */\n      tag_80\n        /* \"#utility.yul\":2371:2377   */\n      dup2\n        /* \"#utility.yul\":2366:2369   */\n      dup6\n        /* \"#utility.yul\":2273:2378   */\n      tag_81\n      jump\t// in\n    tag_80:\n        /* \"#utility.yul\":2266:2378   */\n      swap4\n      pop\n        /* \"#utility.yul\":2404:2407   */\n      dup4\n        /* \"#utility.yul\":2449:2453   */\n      0x20\n        /* \"#utility.yul\":2441:2447   */\n      dup3\n        /* \"#utility.yul\":2437:2454   */\n      mul\n        /* \"#utility.yul\":2432:2435   */\n      dup6\n        /* \"#utility.yul\":2428:2455   */\n      add\n        /* \"#utility.yul\":2479:2554   */\n      tag_82\n        /* \"#utility.yul\":2548:2553   */\n      dup6\n        /* \"#utility.yul\":2479:2554   */\n      tag_83\n      jump\t// in\n    tag_82:\n        /* \"#utility.yul\":2577:2584   */\n      dup1\n        /* \"#utility.yul\":2608:2609   */\n      0x00\n        /* \"#utility.yul\":2593:3016   */\n    tag_84:\n        /* \"#utility.yul\":2618:2624   */\n      dup6\n        /* \"#utility.yul\":2615:2616   */\n      dup2\n        /* \"#utility.yul\":2612:2625   */\n      lt\n        /* \"#utility.yul\":2593:3016   */\n      iszero\n      tag_86\n      jumpi\n        /* \"#utility.yul\":2689:2698   */\n      dup5\n        /* \"#utility.yul\":2683:2687   */\n      dup5\n        /* \"#utility.yul\":2679:2699   */\n      sub\n        /* \"#utility.yul\":2674:2677   */\n      dup10\n        /* \"#utility.yul\":2667:2700   */\n      mstore\n        /* \"#utility.yul\":2740:2746   */\n      dup2\n        /* \"#utility.yul\":2734:2747   */\n      mload\n        /* \"#utility.yul\":2768:2870   */\n      tag_87\n        /* \"#utility.yul\":2865:2869   */\n      dup6\n        /* \"#utility.yul\":2850:2863   */\n      dup3\n        /* \"#utility.yul\":2768:2870   */\n      tag_68\n      jump\t// in\n    tag_87:\n        /* \"#utility.yul\":2760:2870   */\n      swap5\n      pop\n        /* \"#utility.yul\":2893:2972   */\n      tag_88\n        /* \"#utility.yul\":2965:2971   */\n      dup4\n        /* \"#utility.yul\":2893:2972   */\n      tag_89\n      jump\t// in\n    tag_88:\n        /* \"#utility.yul\":2883:2972   */\n      swap3\n      pop\n        /* \"#utility.yul\":3001:3005   */\n      0x20\n        /* \"#utility.yul\":2996:2999   */\n      dup11\n        /* \"#utility.yul\":2992:3006   */\n      add\n        /* \"#utility.yul\":2985:3006   */\n      swap10\n      pop\n        /* \"#utility.yul\":2653:3016   */\n      pop\n        /* \"#utility.yul\":2640:2641   */\n      0x01\n        /* \"#utility.yul\":2637:2638   */\n      dup2\n        /* \"#utility.yul\":2633:2642   */\n      add\n        /* \"#utility.yul\":2628:2642   */\n      swap1\n      pop\n        /* \"#utility.yul\":2593:3016   */\n      jump(tag_84)\n    tag_86:\n        /* \"#utility.yul\":2597:2611   */\n      pop\n        /* \"#utility.yul\":3032:3036   */\n      dup3\n        /* \"#utility.yul\":3025:3036   */\n      swap8\n      pop\n        /* \"#utility.yul\":3052:3055   */\n      dup8\n        /* \"#utility.yul\":3045:3055   */\n      swap6\n      pop\n        /* \"#utility.yul\":2160:3061   */\n      pop\n      pop\n      pop\n      pop\n      pop\n        /* \"#utility.yul\":1998:3061   */\n      swap3\n      swap2\n      pop\n      pop\n      jump\t// out\n        /* \"#utility.yul\":3067:3411   */\n    tag_90:\n        /* \"#utility.yul\":3145:3148   */\n      0x00\n        /* \"#utility.yul\":3173:3212   */\n      tag_92\n        /* \"#utility.yul\":3206:3211   */\n      dup3\n        /* \"#utility.yul\":3173:3212   */\n      tag_93\n      jump\t// in\n    tag_92:\n        /* \"#utility.yul\":3228:3289   */\n      tag_94\n        /* \"#utility.yul\":3282:3288   */\n      dup2\n        /* \"#utility.yul\":3277:3280   */\n      dup6\n        /* \"#utility.yul\":3228:3289   */\n      tag_95\n      jump\t// in\n    tag_94:\n        /* \"#utility.yul\":3221:3289   */\n      swap4\n      pop\n        /* \"#utility.yul\":3298:3350   */\n      tag_96\n        /* \"#utility.yul\":3343:3349   */\n      dup2\n        /* \"#utility.yul\":3338:3341   */\n      dup6\n        /* \"#utility.yul\":3331:3335   */\n      0x20\n        /* \"#utility.yul\":3324:3329   */\n      dup7\n        /* \"#utility.yul\":3320:3336   */\n      add\n        /* \"#utility.yul\":3298:3350   */\n      tag_97\n      jump\t// in\n    tag_96:\n        /* \"#utility.yul\":3375:3404   */\n      tag_98\n        /* \"#utility.yul\":3397:3403   */\n      dup2\n        /* \"#utility.yul\":3375:3404   */\n      tag_99\n      jump\t// in\n    tag_98:\n        /* \"#utility.yul\":3370:3373   */\n      dup5\n        /* \"#utility.yul\":3366:3405   */\n      add\n        /* \"#utility.yul\":3359:3405   */\n      swap2\n      pop\n        /* \"#utility.yul\":3149:3411   */\n      pop\n        /* \"#utility.yul\":3067:3411   */\n      swap3\n      swap2\n      pop\n      pop\n      jump\t// out\n        /* \"#utility.yul\":3469:4053   */\n    tag_71:\n        /* \"#utility.yul\":3566:3569   */\n      0x00\n        /* \"#utility.yul\":3602:3606   */\n      0x40\n        /* \"#utility.yul\":3597:3600   */\n      dup4\n        /* \"#utility.yul\":3593:3607   */\n      add\n        /* \"#utility.yul\":3688:3692   */\n      0x00\n        /* \"#utility.yul\":3681:3686   */\n      dup4\n        /* \"#utility.yul\":3677:3693   */\n      add\n        /* \"#utility.yul\":3671:3694   */\n      mload\n        /* \"#utility.yul\":3707:3770   */\n      tag_101\n        /* \"#utility.yul\":3764:3768   */\n      0x00\n        /* \"#utility.yul\":3759:3762   */\n      dup7\n        /* \"#utility.yul\":3755:3769   */\n      add\n        /* \"#utility.yul\":3741:3753   */\n      dup3\n        /* \"#utility.yul\":3707:3770   */\n      tag_72\n      jump\t// in\n    tag_101:\n        /* \"#utility.yul\":3617:3780   */\n      pop\n        /* \"#utility.yul\":3863:3867   */\n      0x20\n        /* \"#utility.yul\":3856:3861   */\n      dup4\n        /* \"#utility.yul\":3852:3868   */\n      add\n        /* \"#utility.yul\":3846:3869   */\n      mload\n        /* \"#utility.yul\":3916:3919   */\n      dup5\n        /* \"#utility.yul\":3910:3914   */\n      dup3\n        /* \"#utility.yul\":3906:3920   */\n      sub\n        /* \"#utility.yul\":3899:3903   */\n      0x20\n        /* \"#utility.yul\":3894:3897   */\n      dup7\n        /* \"#utility.yul\":3890:3904   */\n      add\n        /* \"#utility.yul\":3883:3921   */\n      mstore\n        /* \"#utility.yul\":3942:4015   */\n      tag_102\n        /* \"#utility.yul\":4010:4014   */\n      dup3\n        /* \"#utility.yul\":3996:4008   */\n      dup3\n        /* \"#utility.yul\":3942:4015   */\n      tag_90\n      jump\t// in\n    tag_102:\n        /* \"#utility.yul\":3934:4015   */\n      swap2\n      pop\n        /* \"#utility.yul\":3790:4026   */\n      pop\n        /* \"#utility.yul\":4043:4047   */\n      dup1\n        /* \"#utility.yul\":4036:4047   */\n      swap2\n      pop\n        /* \"#utility.yul\":3571:4053   */\n      pop\n        /* \"#utility.yul\":3469:4053   */\n      swap3\n      swap2\n      pop\n      pop\n      jump\t// out\n        /* \"#utility.yul\":4059:4508   */\n    tag_8:\n        /* \"#utility.yul\":4240:4244   */\n      0x00\n        /* \"#utility.yul\":4278:4280   */\n      0x20\n        /* \"#utility.yul\":4267:4276   */\n      dup3\n        /* \"#utility.yul\":4263:4281   */\n      add\n        /* \"#utility.yul\":4255:4281   */\n      swap1\n      pop\n        /* \"#utility.yul\":4327:4336   */\n      dup2\n        /* \"#utility.yul\":4321:4325   */\n      dup2\n        /* \"#utility.yul\":4317:4337   */\n      sub\n        /* \"#utility.yul\":4313:4314   */\n      0x00\n        /* \"#utility.yul\":4302:4311   */\n      dup4\n        /* \"#utility.yul\":4298:4315   */\n      add\n        /* \"#utility.yul\":4291:4338   */\n      mstore\n        /* \"#utility.yul\":4355:4501   */\n      tag_104\n        /* \"#utility.yul\":4496:4500   */\n      dup2\n        /* \"#utility.yul\":4487:4493   */\n      dup5\n        /* \"#utility.yul\":4355:4501   */\n      tag_76\n      jump\t// in\n    tag_104:\n        /* \"#utility.yul\":4347:4501   */\n      swap1\n      pop\n        /* \"#utility.yul\":4059:4508   */\n      swap3\n      swap2\n      pop\n      pop\n      jump\t// out\n        /* \"#utility.yul\":4514:4643   */\n    tag_43:\n        /* \"#utility.yul\":4548:4554   */\n      0x00\n        /* \"#utility.yul\":4575:4595   */\n      tag_106\n      tag_107\n      jump\t// in\n    tag_106:\n        /* \"#utility.yul\":4565:4595   */\n      swap1\n      pop\n        /* \"#utility.yul\":4604:4637   */\n      tag_108\n        /* \"#utility.yul\":4632:4636   */\n      dup3\n        /* \"#utility.yul\":4624:4630   */\n      dup3\n        /* \"#utility.yul\":4604:4637   */\n      tag_109\n      jump\t// in\n    tag_108:\n        /* \"#utility.yul\":4514:4643   */\n      swap2\n      swap1\n      pop\n      jump\t// out\n        /* \"#utility.yul\":4649:4724   */\n    tag_107:\n        /* \"#utility.yul\":4682:4688   */\n      0x00\n        /* \"#utility.yul\":4715:4717   */\n      0x40\n        /* \"#utility.yul\":4709:4718   */\n      mload\n        /* \"#utility.yul\":4699:4718   */\n      swap1\n      pop\n        /* \"#utility.yul\":4649:4724   */\n      swap1\n      jump\t// out\n        /* \"#utility.yul\":4730:5038   */\n    tag_42:\n        /* \"#utility.yul\":4792:4796   */\n      0x00\n        /* \"#utility.yul\":4882:4900   */\n      0xffffffffffffffff\n        /* \"#utility.yul\":4874:4880   */\n      dup3\n        /* \"#utility.yul\":4871:4901   */\n      gt\n        /* \"#utility.yul\":4868:4924   */\n      iszero\n      tag_112\n      jumpi\n        /* \"#utility.yul\":4904:4922   */\n      tag_113\n      tag_114\n      jump\t// in\n    tag_113:\n        /* \"#utility.yul\":4868:4924   */\n    tag_112:\n        /* \"#utility.yul\":4942:4971   */\n      tag_115\n        /* \"#utility.yul\":4964:4970   */\n      dup3\n        /* \"#utility.yul\":4942:4971   */\n      tag_99\n      jump\t// in\n    tag_115:\n        /* \"#utility.yul\":4934:4971   */\n      swap1\n      pop\n        /* \"#utility.yul\":5026:5030   */\n      0x20\n        /* \"#utility.yul\":5020:5024   */\n      dup2\n        /* \"#utility.yul\":5016:5031   */\n      add\n        /* \"#utility.yul\":5008:5031   */\n      swap1\n      pop\n        /* \"#utility.yul\":4730:5038   */\n      swap2\n      swap1\n      pop\n      jump\t// out\n        /* \"#utility.yul\":5044:5195   */\n    tag_83:\n        /* \"#utility.yul\":5130:5134   */\n      0x00\n        /* \"#utility.yul\":5153:5156   */\n      dup2\n        /* \"#utility.yul\":5145:5156   */\n      swap1\n      pop\n        /* \"#utility.yul\":5183:5187   */\n      0x20\n        /* \"#utility.yul\":5178:5181   */\n      dup3\n        /* \"#utility.yul\":5174:5188   */\n      add\n        /* \"#utility.yul\":5166:5188   */\n      swap1\n      pop\n        /* \"#utility.yul\":5044:5195   */\n      swap2\n      swap1\n      pop\n      jump\t// out\n        /* \"#utility.yul\":5201:5334   */\n    tag_79:\n        /* \"#utility.yul\":5287:5293   */\n      0x00\n        /* \"#utility.yul\":5321:5326   */\n      dup2\n        /* \"#utility.yul\":5315:5327   */\n      mload\n        /* \"#utility.yul\":5305:5327   */\n      swap1\n      pop\n        /* \"#utility.yul\":5201:5334   */\n      swap2\n      swap1\n      pop\n      jump\t// out\n        /* \"#utility.yul\":5340:5439   */\n    tag_93:\n        /* \"#utility.yul\":5392:5398   */\n      0x00\n        /* \"#utility.yul\":5426:5431   */\n      dup2\n        /* \"#utility.yul\":5420:5432   */\n      mload\n        /* \"#utility.yul\":5410:5432   */\n      swap1\n      pop\n        /* \"#utility.yul\":5340:5439   */\n      swap2\n      swap1\n      pop\n      jump\t// out\n        /* \"#utility.yul\":5445:5577   */\n    tag_89:\n        /* \"#utility.yul\":5534:5538   */\n      0x00\n        /* \"#utility.yul\":5566:5570   */\n      0x20\n        /* \"#utility.yul\":5561:5564   */\n      dup3\n        /* \"#utility.yul\":5557:5571   */\n      add\n        /* \"#utility.yul\":5549:5571   */\n      swap1\n      pop\n        /* \"#utility.yul\":5445:5577   */\n      swap2\n      swap1\n      pop\n      jump\t// out\n        /* \"#utility.yul\":5583:5786   */\n    tag_81:\n        /* \"#utility.yul\":5701:5712   */\n      0x00\n        /* \"#utility.yul\":5735:5741   */\n      dup3\n        /* \"#utility.yul\":5730:5733   */\n      dup3\n        /* \"#utility.yul\":5723:5742   */\n      mstore\n        /* \"#utility.yul\":5775:5779   */\n      0x20\n        /* \"#utility.yul\":5770:5773   */\n      dup3\n        /* \"#utility.yul\":5766:5780   */\n      add\n        /* \"#utility.yul\":5751:5780   */\n      swap1\n      pop\n        /* \"#utility.yul\":5583:5786   */\n      swap3\n      swap2\n      pop\n      pop\n      jump\t// out\n        /* \"#utility.yul\":5792:5951   */\n    tag_95:\n        /* \"#utility.yul\":5866:5877   */\n      0x00\n        /* \"#utility.yul\":5900:5906   */\n      dup3\n        /* \"#utility.yul\":5895:5898   */\n      dup3\n        /* \"#utility.yul\":5888:5907   */\n      mstore\n        /* \"#utility.yul\":5940:5944   */\n      0x20\n        /* \"#utility.yul\":5935:5938   */\n      dup3\n        /* \"#utility.yul\":5931:5945   */\n      add\n        /* \"#utility.yul\":5916:5945   */\n      swap1\n      pop\n        /* \"#utility.yul\":5792:5951   */\n      swap3\n      swap2\n      pop\n      pop\n      jump\t// out\n        /* \"#utility.yul\":5957:6053   */\n    tag_75:\n        /* \"#utility.yul\":5994:6001   */\n      0x00\n        /* \"#utility.yul\":6023:6047   */\n      tag_123\n        /* \"#utility.yul\":6041:6046   */\n      dup3\n        /* \"#utility.yul\":6023:6047   */\n      tag_124\n      jump\t// in\n    tag_123:\n        /* \"#utility.yul\":6012:6047   */\n      swap1\n      pop\n        /* \"#utility.yul\":5957:6053   */\n      swap2\n      swap1\n      pop\n      jump\t// out\n        /* \"#utility.yul\":6059:6185   */\n    tag_124:\n        /* \"#utility.yul\":6096:6103   */\n      0x00\n        /* \"#utility.yul\":6136:6178   */\n      0xffffffffffffffffffffffffffffffffffffffff\n        /* \"#utility.yul\":6129:6134   */\n      dup3\n        /* \"#utility.yul\":6125:6179   */\n      and\n        /* \"#utility.yul\":6114:6179   */\n      swap1\n      pop\n        /* \"#utility.yul\":6059:6185   */\n      swap2\n      swap1\n      pop\n      jump\t// out\n        /* \"#utility.yul\":6191:6345   */\n    tag_48:\n        /* \"#utility.yul\":6275:6281   */\n      dup3\n        /* \"#utility.yul\":6270:6273   */\n      dup2\n        /* \"#utility.yul\":6265:6268   */\n      dup4\n        /* \"#utility.yul\":6252:6282   */\n      calldatacopy\n        /* \"#utility.yul\":6337:6338   */\n      0x00\n        /* \"#utility.yul\":6328:6334   */\n      dup4\n        /* \"#utility.yul\":6323:6326   */\n      dup4\n        /* \"#utility.yul\":6319:6335   */\n      add\n        /* \"#utility.yul\":6312:6339   */\n      mstore\n        /* \"#utility.yul\":6191:6345   */\n      pop\n      pop\n      pop\n      jump\t// out\n        /* \"#utility.yul\":6351:6658   */\n    tag_97:\n        /* \"#utility.yul\":6419:6420   */\n      0x00\n        /* \"#utility.yul\":6429:6542   */\n    tag_128:\n        /* \"#utility.yul\":6443:6449   */\n      dup4\n        /* \"#utility.yul\":6440:6441   */\n      dup2\n        /* \"#utility.yul\":6437:6450   */\n      lt\n        /* \"#utility.yul\":6429:6542   */\n      iszero\n      tag_130\n      jumpi\n        /* \"#utility.yul\":6528:6529   */\n      dup1\n        /* \"#utility.yul\":6523:6526   */\n      dup3\n        /* \"#utility.yul\":6519:6530   */\n      add\n        /* \"#utility.yul\":6513:6531   */\n      mload\n        /* \"#utility.yul\":6509:6510   */\n      dup2\n        /* \"#utility.yul\":6504:6507   */\n      dup5\n        /* \"#utility.yul\":6500:6511   */\n      add\n        /* \"#utility.yul\":6493:6532   */\n      mstore\n        /* \"#utility.yul\":6465:6467   */\n      0x20\n        /* \"#utility.yul\":6462:6463   */\n      dup2\n        /* \"#utility.yul\":6458:6468   */\n      add\n        /* \"#utility.yul\":6453:6468   */\n      swap1\n      pop\n        /* \"#utility.yul\":6429:6542   */\n      jump(tag_128)\n    tag_130:\n        /* \"#utility.yul\":6560:6566   */\n      dup4\n        /* \"#utility.yul\":6557:6558   */\n      dup2\n        /* \"#utility.yul\":6554:6567   */\n      gt\n        /* \"#utility.yul\":6551:6652   */\n      iszero\n      tag_131\n      jumpi\n        /* \"#utility.yul\":6640:6641   */\n      0x00\n        /* \"#utility.yul\":6631:6637   */\n      dup5\n        /* \"#utility.yul\":6626:6629   */\n      dup5\n        /* \"#utility.yul\":6622:6638   */\n      add\n        /* \"#utility.yul\":6615:6642   */\n      mstore\n        /* \"#utility.yul\":6551:6652   */\n    tag_131:\n        /* \"#utility.yul\":6400:6658   */\n      pop\n        /* \"#utility.yul\":6351:6658   */\n      pop\n      pop\n      pop\n      jump\t// out\n        /* \"#utility.yul\":6664:6984   */\n    tag_18:\n        /* \"#utility.yul\":6708:6714   */\n      0x00\n        /* \"#utility.yul\":6745:6746   */\n      0x02\n        /* \"#utility.yul\":6739:6743   */\n      dup3\n        /* \"#utility.yul\":6735:6747   */\n      div\n        /* \"#utility.yul\":6725:6747   */\n      swap1\n      pop\n        /* \"#utility.yul\":6792:6793   */\n      0x01\n        /* \"#utility.yul\":6786:6790   */\n      dup3\n        /* \"#utility.yul\":6782:6794   */\n      and\n        /* \"#utility.yul\":6813:6831   */\n      dup1\n        /* \"#utility.yul\":6803:6884   */\n      tag_133\n      jumpi\n        /* \"#utility.yul\":6869:6873   */\n      0x7f\n        /* \"#utility.yul\":6861:6867   */\n      dup3\n        /* \"#utility.yul\":6857:6874   */\n      and\n        /* \"#utility.yul\":6847:6874   */\n      swap2\n      pop\n        /* \"#utility.yul\":6803:6884   */\n    tag_133:\n        /* \"#utility.yul\":6931:6933   */\n      0x20\n        /* \"#utility.yul\":6923:6929   */\n      dup3\n        /* \"#utility.yul\":6920:6934   */\n      lt\n        /* \"#utility.yul\":6900:6918   */\n      dup2\n        /* \"#utility.yul\":6897:6935   */\n      eq\n        /* \"#utility.yul\":6894:6978   */\n      iszero\n      tag_134\n      jumpi\n        /* \"#utility.yul\":6950:6968   */\n      tag_135\n      tag_136\n      jump\t// in\n    tag_135:\n        /* \"#utility.yul\":6894:6978   */\n    tag_134:\n        /* \"#utility.yul\":6715:6984   */\n      pop\n        /* \"#utility.yul\":6664:6984   */\n      swap2\n      swap1\n      pop\n      jump\t// out\n        /* \"#utility.yul\":6990:7271   */\n    tag_109:\n        /* \"#utility.yul\":7073:7100   */\n      tag_138\n        /* \"#utility.yul\":7095:7099   */\n      dup3\n        /* \"#utility.yul\":7073:7100   */\n      tag_99\n      jump\t// in\n    tag_138:\n        /* \"#utility.yul\":7065:7071   */\n      dup2\n        /* \"#utility.yul\":7061:7101   */\n      add\n        /* \"#utility.yul\":7203:7209   */\n      dup2\n        /* \"#utility.yul\":7191:7201   */\n      dup2\n        /* \"#utility.yul\":7188:7210   */\n      lt\n        /* \"#utility.yul\":7167:7185   */\n      0xffffffffffffffff\n        /* \"#utility.yul\":7155:7165   */\n      dup3\n        /* \"#utility.yul\":7152:7186   */\n      gt\n        /* \"#utility.yul\":7149:7211   */\n      or\n        /* \"#utility.yul\":7146:7234   */\n      iszero\n      tag_139\n      jumpi\n        /* \"#utility.yul\":7214:7232   */\n      tag_140\n      tag_114\n      jump\t// in\n    tag_140:\n        /* \"#utility.yul\":7146:7234   */\n    tag_139:\n        /* \"#utility.yul\":7254:7264   */\n      dup1\n        /* \"#utility.yul\":7250:7252   */\n      0x40\n        /* \"#utility.yul\":7243:7265   */\n      mstore\n        /* \"#utility.yul\":7033:7271   */\n      pop\n        /* \"#utility.yul\":6990:7271   */\n      pop\n      pop\n      jump\t// out\n        /* \"#utility.yul\":7277:7457   */\n    tag_136:\n        /* \"#utility.yul\":7325:7402   */\n      0x4e487b7100000000000000000000000000000000000000000000000000000000\n        /* \"#utility.yul\":7322:7323   */\n      0x00\n        /* \"#utility.yul\":7315:7403   */\n      mstore\n        /* \"#utility.yul\":7422:7426   */\n      0x22\n        /* \"#utility.yul\":7419:7420   */\n      0x04\n        /* \"#utility.yul\":7412:7427   */\n      mstore\n        /* \"#utility.yul\":7446:7450   */\n      0x24\n        /* \"#utility.yul\":7443:7444   */\n      0x00\n        /* \"#utility.yul\":7436:7451   */\n      revert\n        /* \"#utility.yul\":7463:7643   */\n    tag_114:\n        /* \"#utility.yul\":7511:7588   */\n      0x4e487b7100000000000000000000000000000000000000000000000000000000\n        /* \"#utility.yul\":7508:7509   */\n      0x00\n        /* \"#utility.yul\":7501:7589   */\n      mstore\n        /* \"#utility.yul\":7608:7612   */\n      0x41\n        /* \"#utility.yul\":7605:7606   */\n      0x04\n        /* \"#utility.yul\":7598:7613   */\n      mstore\n        /* \"#utility.yul\":7632:7636   */\n      0x24\n        /* \"#utility.yul\":7629:7630   */\n      0x00\n        /* \"#utility.yul\":7622:7637   */\n      revert\n        /* \"#utility.yul\":7649:7766   */\n    tag_57:\n        /* \"#utility.yul\":7758:7759   */\n      0x00\n        /* \"#utility.yul\":7755:7756   */\n      dup1\n        /* \"#utility.yul\":7748:7760   */\n      revert\n        /* \"#utility.yul\":7772:7889   */\n    tag_46:\n        /* \"#utility.yul\":7881:7882   */\n      0x00\n        /* \"#utility.yul\":7878:7879   */\n      dup1\n        /* \"#utility.yul\":7871:7883   */\n      revert\n        /* \"#utility.yul\":7895:8012   */\n    tag_66:\n        /* \"#utility.yul\":8004:8005   */\n      0x00\n        /* \"#utility.yul\":8001:8002   */\n      dup1\n        /* \"#utility.yul\":7994:8006   */\n      revert\n        /* \"#utility.yul\":8018:8135   */\n    tag_62:\n        /* \"#utility.yul\":8127:8128   */\n      0x00\n        /* \"#utility.yul\":8124:8125   */\n      dup1\n        /* \"#utility.yul\":8117:8129   */\n      revert\n        /* \"#utility.yul\":8141:8243   */\n    tag_99:\n        /* \"#utility.yul\":8182:8188   */\n      0x00\n        /* \"#utility.yul\":8233:8235   */\n      0x1f\n        /* \"#utility.yul\":8229:8236   */\n      not\n        /* \"#utility.yul\":8224:8226   */\n      0x1f\n        /* \"#utility.yul\":8217:8222   */\n      dup4\n        /* \"#utility.yul\":8213:8227   */\n      add\n        /* \"#utility.yul\":8209:8237   */\n      and\n        /* \"#utility.yul\":8199:8237   */\n      swap1\n      pop\n        /* \"#utility.yul\":8141:8243   */\n      swap2\n      swap1\n      pop\n      jump\t// out\n        /* \"#utility.yul\":8249:8371   */\n    tag_52:\n        /* \"#utility.yul\":8322:8346   */\n      tag_149\n        /* \"#utility.yul\":8340:8345   */\n      dup2\n        /* \"#utility.yul\":8322:8346   */\n      tag_75\n      jump\t// in\n    tag_149:\n        /* \"#utility.yul\":8315:8320   */\n      dup2\n        /* \"#utility.yul\":8312:8347   */\n      eq\n        /* \"#utility.yul\":8302:8365   */\n      tag_150\n      jumpi\n        /* \"#utility.yul\":8361:8362   */\n      0x00\n        /* \"#utility.yul\":8358:8359   */\n      dup1\n        /* \"#utility.yul\":8351:8363   */\n      revert\n        /* \"#utility.yul\":8302:8365   */\n    tag_150:\n        /* \"#utility.yul\":8249:8371   */\n      pop\n      jump\t// out\n\n    auxdata: 0xa26469706673582212202fbbce964ba83a651c7e200e6d29f2d5a0409c22edfa6f2f9969f70990d439c464736f6c63430008070033\n}\n",
				"bytecode": {
					"linkReferences": {},
					"object": "608060405234801561001057600080fd5b50610782806100206000396000f3fe608060405234801561001057600080fd5b50600436106100365760003560e01c8063942b765a1461003b578063bc6d30ee14610059575b600080fd5b610043610075565b604051610050919061050e565b60405180910390f35b610073600480360381019061006e91906103a4565b6101bc565b005b60606000805480602002602001604051908101604052809291908181526020016000905b828210156101b357838290600052602060002090600202016040518060400160405290816000820160009054906101000a900473ffffffffffffffffffffffffffffffffffffffff1673ffffffffffffffffffffffffffffffffffffffff1673ffffffffffffffffffffffffffffffffffffffff1681526020016001820180546101229061064f565b80601f016020809104026020016040519081016040528092919081815260200182805461014e9061064f565b801561019b5780601f106101705761010080835404028352916020019161019b565b820191906000526020600020905b81548152906001019060200180831161017e57829003601f168201915b50505050508152505081526020019060010190610099565b50505050905090565b600060405180604001604052808473ffffffffffffffffffffffffffffffffffffffff16815260200183815250908060018154018082558091505060019003906000526020600020906002020160009091909190915060008201518160000160006101000a81548173ffffffffffffffffffffffffffffffffffffffff021916908373ffffffffffffffffffffffffffffffffffffffff160217905550602082015181600101908051906020019061027592919061027c565b5050505050565b8280546102889061064f565b90600052602060002090601f0160209004810192826102aa57600085556102f1565b82601f106102c357805160ff19168380011785556102f1565b828001600101855582156102f1579182015b828111156102f05782518255916020019190600101906102d5565b5b5090506102fe9190610302565b5090565b5b8082111561031b576000816000905550600101610303565b5090565b600061033261032d84610555565b610530565b90508281526020810184848401111561034e5761034d610715565b5b61035984828561060d565b509392505050565b60008135905061037081610735565b92915050565b600082601f83011261038b5761038a610710565b5b813561039b84826020860161031f565b91505092915050565b600080604083850312156103bb576103ba61071f565b5b60006103c985828601610361565b925050602083013567ffffffffffffffff8111156103ea576103e961071a565b5b6103f685828601610376565b9150509250929050565b600061040c83836104d1565b905092915050565b61041d816105db565b82525050565b600061042e82610596565b61043881856105b9565b93508360208202850161044a85610586565b8060005b8581101561048657848403895281516104678582610400565b9450610472836105ac565b925060208a0199505060018101905061044e565b50829750879550505050505092915050565b60006104a3826105a1565b6104ad81856105ca565b93506104bd81856020860161061c565b6104c681610724565b840191505092915050565b60006040830160008301516104e96000860182610414565b50602083015184820360208601526105018282610498565b9150508091505092915050565b600060208201905081810360008301526105288184610423565b905092915050565b600061053a61054b565b90506105468282610681565b919050565b6000604051905090565b600067ffffffffffffffff8211156105705761056f6106e1565b5b61057982610724565b9050602081019050919050565b6000819050602082019050919050565b600081519050919050565b600081519050919050565b6000602082019050919050565b600082825260208201905092915050565b600082825260208201905092915050565b60006105e6826105ed565b9050919050565b600073ffffffffffffffffffffffffffffffffffffffff82169050919050565b82818337600083830152505050565b60005b8381101561063a57808201518184015260208101905061061f565b83811115610649576000848401525b50505050565b6000600282049050600182168061066757607f821691505b6020821081141561067b5761067a6106b2565b5b50919050565b61068a82610724565b810181811067ffffffffffffffff821117156106a9576106a86106e1565b5b80604052505050565b7f4e487b7100000000000000000000000000000000000000000000000000000000600052602260045260246000fd5b7f4e487b7100000000000000000000000000000000000000000000000000000000600052604160045260246000fd5b600080fd5b600080fd5b600080fd5b600080fd5b6000601f19601f8301169050919050565b61073e816105db565b811461074957600080fd5b5056fea26469706673582212202fbbce964ba83a651c7e200e6d29f2d5a0409c22edfa6f2f9969f70990d439c464736f6c63430008070033",
					"opcodes": "PUSH1 0x80 PUSH1 0x40 MSTORE CALLVALUE DUP1 ISZERO PUSH2 0x10 JUMPI PUSH1 0x0 DUP1 REVERT JUMPDEST POP PUSH2 0x782 DUP1 PUSH2 0x20 PUSH1 0x0 CODECOPY PUSH1 0x0 RETURN INVALID PUSH1 0x80 PUSH1 0x40 MSTORE CALLVALUE DUP1 ISZERO PUSH2 0x10 JUMPI PUSH1 0x0 DUP1 REVERT JUMPDEST POP PUSH1 0x4 CALLDATASIZE LT PUSH2 0x36 JUMPI PUSH1 0x0 CALLDATALOAD PUSH1 0xE0 SHR DUP1 PUSH4 0x942B765A EQ PUSH2 0x3B JUMPI DUP1 PUSH4 0xBC6D30EE EQ PUSH2 0x59 JUMPI JUMPDEST PUSH1 0x0 DUP1 REVERT JUMPDEST PUSH2 0x43 PUSH2 0x75 JUMP JUMPDEST PUSH1 0x40 MLOAD PUSH2 0x50 SWAP2 SWAP1 PUSH2 0x50E JUMP JUMPDEST PUSH1 0x40 MLOAD DUP1 SWAP2 SUB SWAP1 RETURN JUMPDEST PUSH2 0x73 PUSH1 0x4 DUP1 CALLDATASIZE SUB DUP2 ADD SWAP1 PUSH2 0x6E SWAP2 SWAP1 PUSH2 0x3A4 JUMP JUMPDEST PUSH2 0x1BC JUMP JUMPDEST STOP JUMPDEST PUSH1 0x60 PUSH1 0x0 DUP1 SLOAD DUP1 PUSH1 0x20 MUL PUSH1 0x20 ADD PUSH1 0x40 MLOAD SWAP1 DUP2 ADD PUSH1 0x40 MSTORE DUP1 SWAP3 SWAP2 SWAP1 DUP2 DUP2 MSTORE PUSH1 0x20 ADD PUSH1 0x0 SWAP1 JUMPDEST DUP3 DUP3 LT ISZERO PUSH2 0x1B3 JUMPI DUP4 DUP3 SWAP1 PUSH1 0x0 MSTORE PUSH1 0x20 PUSH1 0x0 KECCAK256 SWAP1 PUSH1 0x2 MUL ADD PUSH1 0x40 MLOAD DUP1 PUSH1 0x40 ADD PUSH1 0x40 MSTORE SWAP1 DUP2 PUSH1 0x0 DUP3 ADD PUSH1 0x0 SWAP1 SLOAD SWAP1 PUSH2 0x100 EXP SWAP1 DIV PUSH20 0xFFFFFFFFFFFFFFFFFFFFFFFFFFFFFFFFFFFFFFFF AND PUSH20 0xFFFFFFFFFFFFFFFFFFFFFFFFFFFFFFFFFFFFFFFF AND PUSH20 0xFFFFFFFFFFFFFFFFFFFFFFFFFFFFFFFFFFFFFFFF AND DUP2 MSTORE PUSH1 0x20 ADD PUSH1 0x1 DUP3 ADD DUP1 SLOAD PUSH2 0x122 SWAP1 PUSH2 0x64F JUMP JUMPDEST DUP1 PUSH1 0x1F ADD PUSH1 0x20 DUP1 SWAP2 DIV MUL PUSH1 0x20 ADD PUSH1 0x40 MLOAD SWAP1 DUP2 ADD PUSH1 0x40 MSTORE DUP1 SWAP3 SWAP2 SWAP1 DUP2 DUP2 MSTORE PUSH1 0x20 ADD DUP3 DUP1 SLOAD PUSH2 0x14E SWAP1 PUSH2 0x64F JUMP JUMPDEST DUP1 ISZERO PUSH2 0x19B JUMPI DUP1 PUSH1 0x1F LT PUSH2 0x170 JUMPI PUSH2 0x100 DUP1 DUP4 SLOAD DIV MUL DUP4 MSTORE SWAP2 PUSH1 0x20 ADD SWAP2 PUSH2 0x19B JUMP JUMPDEST DUP3 ADD SWAP2 SWAP1 PUSH1 0x0 MSTORE PUSH1 0x20 PUSH1 0x0 KECCAK256 SWAP1 JUMPDEST DUP2 SLOAD DUP2 MSTORE SWAP1 PUSH1 0x1 ADD SWAP1 PUSH1 0x20 ADD DUP1 DUP4 GT PUSH2 0x17E JUMPI DUP3 SWAP1 SUB PUSH1 0x1F AND DUP3 ADD SWAP2 JUMPDEST POP POP POP POP POP DUP2 MSTORE POP POP DUP2 MSTORE PUSH1 0x20 ADD SWAP1 PUSH1 0x1 ADD SWAP1 PUSH2 0x99 JUMP JUMPDEST POP POP POP POP SWAP1 POP SWAP1 JUMP JUMPDEST PUSH1 0x0 PUSH1 0x40 MLOAD DUP1 PUSH1 0x40 ADD PUSH1 0x40 MSTORE DUP1 DUP5 PUSH20 0xFFFFFFFFFFFFFFFFFFFFFFFFFFFFFFFFFFFFFFFF AND DUP2 MSTORE PUSH1 0x20 ADD DUP4 DUP2 MSTORE POP SWAP1 DUP1 PUSH1 0x1 DUP2 SLOAD ADD DUP1 DUP3 SSTORE DUP1 SWAP2 POP POP PUSH1 0x1 SWAP1 SUB SWAP1 PUSH1 0x0 MSTORE PUSH1 0x20 PUSH1 0x0 KECCAK256 SWAP1 PUSH1 0x2 MUL ADD PUSH1 0x0 SWAP1 SWAP2 SWAP1 SWAP2 SWAP1 SWAP2 POP PUSH1 0x0 DUP3 ADD MLOAD DUP2 PUSH1 0x0 ADD PUSH1 0x0 PUSH2 0x100 EXP DUP2 SLOAD DUP2 PUSH20 0xFFFFFFFFFFFFFFFFFFFFFFFFFFFFFFFFFFFFFFFF MUL NOT AND SWAP1 DUP4 PUSH20 0xFFFFFFFFFFFFFFFFFFFFFFFFFFFFFFFFFFFFFFFF AND MUL OR SWAP1 SSTORE POP PUSH1 0x20 DUP3 ADD MLOAD DUP2 PUSH1 0x1 ADD SWAP1 DUP1 MLOAD SWAP1 PUSH1 0x20 ADD SWAP1 PUSH2 0x275 SWAP3 SWAP2 SWAP1 PUSH2 0x27C JUMP JUMPDEST POP POP POP POP POP JUMP JUMPDEST DUP3 DUP1 SLOAD PUSH2 0x288 SWAP1 PUSH2 0x64F JUMP JUMPDEST SWAP1 PUSH1 0x0 MSTORE PUSH1 0x20 PUSH1 0x0 KECCAK256 SWAP1 PUSH1 0x1F ADD PUSH1 0x20 SWAP1 DIV DUP2 ADD SWAP3 DUP3 PUSH2 0x2AA JUMPI PUSH1 0x0 DUP6 SSTORE PUSH2 0x2F1 JUMP JUMPDEST DUP3 PUSH1 0x1F LT PUSH2 0x2C3 JUMPI DUP1 MLOAD PUSH1 0xFF NOT AND DUP4 DUP1 ADD OR DUP6 SSTORE PUSH2 0x2F1 JUMP JUMPDEST DUP3 DUP1 ADD PUSH1 0x1 ADD DUP6 SSTORE DUP3 ISZERO PUSH2 0x2F1 JUMPI SWAP2 DUP3 ADD JUMPDEST DUP3 DUP2 GT ISZERO PUSH2 0x2F0 JUMPI DUP3 MLOAD DUP3 SSTORE SWAP2 PUSH1 0x20 ADD SWAP2 SWAP1 PUSH1 0x1 ADD SWAP1 PUSH2 0x2D5 JUMP JUMPDEST JUMPDEST POP SWAP1 POP PUSH2 0x2FE SWAP2 SWAP1 PUSH2 0x302 JUMP JUMPDEST POP SWAP1 JUMP JUMPDEST JUMPDEST DUP1 DUP3 GT ISZERO PUSH2 0x31B JUMPI PUSH1 0x0 DUP2 PUSH1 0x0 SWAP1 SSTORE POP PUSH1 0x1 ADD PUSH2 0x303 JUMP JUMPDEST POP SWAP1 JUMP JUMPDEST PUSH1 0x0 PUSH2 0x332 PUSH2 0x32D DUP5 PUSH2 0x555 JUMP JUMPDEST PUSH2 0x530 JUMP JUMPDEST SWAP1 POP DUP3 DUP2 MSTORE PUSH1 0x20 DUP2 ADD DUP5 DUP5 DUP5 ADD GT ISZERO PUSH2 0x34E JUMPI PUSH2 0x34D PUSH2 0x715 JUMP JUMPDEST JUMPDEST PUSH2 0x359 DUP5 DUP3 DUP6 PUSH2 0x60D JUMP JUMPDEST POP SWAP4 SWAP3 POP POP POP JUMP JUMPDEST PUSH1 0x0 DUP2 CALLDATALOAD SWAP1 POP PUSH2 0x370 DUP2 PUSH2 0x735 JUMP JUMPDEST SWAP3 SWAP2 POP POP JUMP JUMPDEST PUSH1 0x0 DUP3 PUSH1 0x1F DUP4 ADD SLT PUSH2 0x38B JUMPI PUSH2 0x38A PUSH2 0x710 JUMP JUMPDEST JUMPDEST DUP2 CALLDATALOAD PUSH2 0x39B DUP5 DUP3 PUSH1 0x20 DUP7 ADD PUSH2 0x31F JUMP JUMPDEST SWAP2 POP POP SWAP3 SWAP2 POP POP JUMP JUMPDEST PUSH1 0x0 DUP1 PUSH1 0x40 DUP4 DUP6 SUB SLT ISZERO PUSH2 0x3BB JUMPI PUSH2 0x3BA PUSH2 0x71F JUMP JUMPDEST JUMPDEST PUSH1 0x0 PUSH2 0x3C9 DUP6 DUP3 DUP7 ADD PUSH2 0x361 JUMP JUMPDEST SWAP3 POP POP PUSH1 0x20 DUP4 ADD CALLDATALOAD PUSH8 0xFFFFFFFFFFFFFFFF DUP2 GT ISZERO PUSH2 0x3EA JUMPI PUSH2 0x3E9 PUSH2 0x71A JUMP JUMPDEST JUMPDEST PUSH2 0x3F6 DUP6 DUP3 DUP7 ADD PUSH2 0x376 JUMP JUMPDEST SWAP2 POP POP SWAP3 POP SWAP3 SWAP1 POP JUMP JUMPDEST PUSH1 0x0 PUSH2 0x40C DUP4 DUP4 PUSH2 0x4D1 JUMP JUMPDEST SWAP1 POP SWAP3 SWAP2 POP POP JUMP JUMPDEST PUSH2 0x41D DUP2 PUSH2 0x5DB JUMP JUMPDEST DUP3 MSTORE POP POP JUMP JUMPDEST PUSH1 0x0 PUSH2 0x42E DUP3 PUSH2 0x596 JUMP JUMPDEST PUSH2 0x438 DUP2 DUP6 PUSH2 0x5B9 JUMP JUMPDEST SWAP4 POP DUP4 PUSH1 0x20 DUP3 MUL DUP6 ADD PUSH2 0x44A DUP6 PUSH2 0x586 JUMP JUMPDEST DUP1 PUSH1 0x0 JUMPDEST DUP6 DUP2 LT ISZERO PUSH2 0x486 JUMPI DUP5 DUP5 SUB DUP10 MSTORE DUP2 MLOAD PUSH2 0x467 DUP6 DUP3 PUSH2 0x400 JUMP JUMPDEST SWAP5 POP PUSH2 0x472 DUP4 PUSH2 0x5AC JUMP JUMPDEST SWAP3 POP PUSH1 0x20 DUP11 ADD SWAP10 POP POP PUSH1 0x1 DUP2 ADD SWAP1 POP PUSH2 0x44E JUMP JUMPDEST POP DUP3 SWAP8 POP DUP8 SWAP6 POP POP POP POP POP POP SWAP3 SWAP2 POP POP JUMP JUMPDEST PUSH1 0x0 PUSH2 0x4A3 DUP3 PUSH2 0x5A1 JUMP JUMPDEST PUSH2 0x4AD DUP2 DUP6 PUSH2 0x5CA JUMP JUMPDEST SWAP4 POP PUSH2 0x4BD DUP2 DUP6 PUSH1 0x20 DUP7 ADD PUSH2 0x61C JUMP JUMPDEST PUSH2 0x4C6 DUP2 PUSH2 0x724 JUMP JUMPDEST DUP5 ADD SWAP2 POP POP SWAP3 SWAP2 POP POP JUMP JUMPDEST PUSH1 0x0 PUSH1 0x40 DUP4 ADD PUSH1 0x0 DUP4 ADD MLOAD PUSH2 0x4E9 PUSH1 0x0 DUP7 ADD DUP3 PUSH2 0x414 JUMP JUMPDEST POP PUSH1 0x20 DUP4 ADD MLOAD DUP5 DUP3 SUB PUSH1 0x20 DUP7 ADD MSTORE PUSH2 0x501 DUP3 DUP3 PUSH2 0x498 JUMP JUMPDEST SWAP2 POP POP DUP1 SWAP2 POP POP SWAP3 SWAP2 POP POP JUMP JUMPDEST PUSH1 0x0 PUSH1 0x20 DUP3 ADD SWAP1 POP DUP2 DUP2 SUB PUSH1 0x0 DUP4 ADD MSTORE PUSH2 0x528 DUP2 DUP5 PUSH2 0x423 JUMP JUMPDEST SWAP1 POP SWAP3 SWAP2 POP POP JUMP JUMPDEST PUSH1 0x0 PUSH2 0x53A PUSH2 0x54B JUMP JUMPDEST SWAP1 POP PUSH2 0x546 DUP3 DUP3 PUSH2 0x681 JUMP JUMPDEST SWAP2 SWAP1 POP JUMP JUMPDEST PUSH1 0x0 PUSH1 0x40 MLOAD SWAP1 POP SWAP1 JUMP JUMPDEST PUSH1 0x0 PUSH8 0xFFFFFFFFFFFFFFFF DUP3 GT ISZERO PUSH2 0x570 JUMPI PUSH2 0x56F PUSH2 0x6E1 JUMP JUMPDEST JUMPDEST PUSH2 0x579 DUP3 PUSH2 0x724 JUMP JUMPDEST SWAP1 POP PUSH1 0x20 DUP2 ADD SWAP1 POP SWAP2 SWAP1 POP JUMP JUMPDEST PUSH1 0x0 DUP2 SWAP1 POP PUSH1 0x20 DUP3 ADD SWAP1 POP SWAP2 SWAP1 POP JUMP JUMPDEST PUSH1 0x0 DUP2 MLOAD SWAP1 POP SWAP2 SWAP1 POP JUMP JUMPDEST PUSH1 0x0 DUP2 MLOAD SWAP1 POP SWAP2 SWAP1 POP JUMP JUMPDEST PUSH1 0x0 PUSH1 0x20 DUP3 ADD SWAP1 POP SWAP2 SWAP1 POP JUMP JUMPDEST PUSH1 0x0 DUP3 DUP3 MSTORE PUSH1 0x20 DUP3 ADD SWAP1 POP SWAP3 SWAP2 POP POP JUMP JUMPDEST PUSH1 0x0 DUP3 DUP3 MSTORE PUSH1 0x20 DUP3 ADD SWAP1 POP SWAP3 SWAP2 POP POP JUMP JUMPDEST PUSH1 0x0 PUSH2 0x5E6 DUP3 PUSH2 0x5ED JUMP JUMPDEST SWAP1 POP SWAP2 SWAP1 POP JUMP JUMPDEST PUSH1 0x0 PUSH20 0xFFFFFFFFFFFFFFFFFFFFFFFFFFFFFFFFFFFFFFFF DUP3 AND SWAP1 POP SWAP2 SWAP1 POP JUMP JUMPDEST DUP3 DUP2 DUP4 CALLDATACOPY PUSH1 0x0 DUP4 DUP4 ADD MSTORE POP POP POP JUMP JUMPDEST PUSH1 0x0 JUMPDEST DUP4 DUP2 LT ISZERO PUSH2 0x63A JUMPI DUP1 DUP3 ADD MLOAD DUP2 DUP5 ADD MSTORE PUSH1 0x20 DUP2 ADD SWAP1 POP PUSH2 0x61F JUMP JUMPDEST DUP4 DUP2 GT ISZERO PUSH2 0x649 JUMPI PUSH1 0x0 DUP5 DUP5 ADD MSTORE JUMPDEST POP POP POP POP JUMP JUMPDEST PUSH1 0x0 PUSH1 0x2 DUP3 DIV SWAP1 POP PUSH1 0x1 DUP3 AND DUP1 PUSH2 0x667 JUMPI PUSH1 0x7F DUP3 AND SWAP2 POP JUMPDEST PUSH1 0x20 DUP3 LT DUP2 EQ ISZERO PUSH2 0x67B JUMPI PUSH2 0x67A PUSH2 0x6B2 JUMP JUMPDEST JUMPDEST POP SWAP2 SWAP1 POP JUMP JUMPDEST PUSH2 0x68A DUP3 PUSH2 0x724 JUMP JUMPDEST DUP2 ADD DUP2 DUP2 LT PUSH8 0xFFFFFFFFFFFFFFFF DUP3 GT OR ISZERO PUSH2 0x6A9 JUMPI PUSH2 0x6A8 PUSH2 0x6E1 JUMP JUMPDEST JUMPDEST DUP1 PUSH1 0x40 MSTORE POP POP POP JUMP JUMPDEST PUSH32 0x4E487B7100000000000000000000000000000000000000000000000000000000 PUSH1 0x0 MSTORE PUSH1 0x22 PUSH1 0x4 MSTORE PUSH1 0x24 PUSH1 0x0 REVERT JUMPDEST PUSH32 0x4E487B7100000000000000000000000000000000000000000000000000000000 PUSH1 0x0 MSTORE PUSH1 0x41 PUSH1 0x4 MSTORE PUSH1 0x24 PUSH1 0x0 REVERT JUMPDEST PUSH1 0x0 DUP1 REVERT JUMPDEST PUSH1 0x0 DUP1 REVERT JUMPDEST PUSH1 0x0 DUP1 REVERT JUMPDEST PUSH1 0x0 DUP1 REVERT JUMPDEST PUSH1 0x0 PUSH1 0x1F NOT PUSH1 0x1F DUP4 ADD AND SWAP1 POP SWAP2 SWAP1 POP JUMP JUMPDEST PUSH2 0x73E DUP2 PUSH2 0x5DB JUMP JUMPDEST DUP2 EQ PUSH2 0x749 JUMPI PUSH1 0x0 DUP1 REVERT JUMPDEST POP JUMP INVALID LOG2 PUSH5 0x6970667358 0x22 SLT KECCAK256 0x2F 0xBB 0xCE SWAP7 0x4B 0xA8 GASPRICE PUSH6 0x1C7E200E6D29 CALLCODE 0xD5 LOG0 BLOCKHASH SWAP13 0x22 0xED STATICCALL PUSH16 0x2F9969F70990D439C464736F6C634300 ADDMOD SMOD STOP CALLER "
				},
				"gasEstimates": {
					"creation": {
						"codeDepositCost": "384400",
						"executionCost": "424",
						"totalCost": "384824"
					},
					"external": {
						"addTask(address,string)": "infinite",
						"getList()": "infinite"
					}
				},
				"methodIdentifiers": {
					"addTask(address,string)": "bc6d30ee",
					"getList()": "942b765a"
				}
			},
			"storageLayout": {
				"storage": [
					{
						"astId": 10,
						"contract": "todoList.sol:TodoList",
						"label": "list",
						"offset": 0,
						"slot": "0",
						"type": "t_array(t_struct(Task)6_storage)dyn_storage"
					}
				],
				"types": {
					"t_address": {
						"encoding": "inplace",
						"label": "address",
						"numberOfBytes": "20"
					},
					"t_array(t_struct(Task)6_storage)dyn_storage": {
						"base": "t_struct(Task)6_storage",
						"encoding": "dynamic_array",
						"label": "struct TodoList.Task[]",
						"numberOfBytes": "32"
					},
					"t_string_storage": {
						"encoding": "bytes",
						"label": "string",
						"numberOfBytes": "32"
					},
					"t_struct(Task)6_storage": {
						"encoding": "inplace",
						"label": "struct TodoList.Task",
						"members": [
							{
								"astId": 3,
								"contract": "todoList.sol:TodoList",
								"label": "adr",
								"offset": 0,
								"slot": "0",
								"type": "t_address"
							},
							{
								"astId": 5,
								"contract": "todoList.sol:TodoList",
								"label": "value",
								"offset": 0,
								"slot": "1",
								"type": "t_string_storage"
							}
						],
						"numberOfBytes": "64"
					}
				}
			},
			"userdoc": {
				"kind": "user",
				"methods": {},
				"version": 1
			}
		}
	}
}