{
	"mapping.sol": {
		"MappingTest": {
			"abi": [
				{
					"inputs": [
						{
							"internalType": "address",
							"name": "",
							"type": "address"
						}
					],
					"name": "balances",
					"outputs": [
						{
							"internalType": "uint256",
							"name": "",
							"type": "uint256"
						}
					],
					"stateMutability": "view",
					"type": "function"
				},
				{
					"inputs": [],
					"name": "getMsg",
					"outputs": [
						{
							"internalType": "address",
							"name": "",
							"type": "address"
						},
						{
							"internalType": "uint256",
							"name": "",
							"type": "uint256"
						}
					],
					"stateMutability": "view",
					"type": "function"
				},
				{
					"inputs": [
						{
							"internalType": "uint256",
							"name": "newBalance",
							"type": "uint256"
						}
					],
					"name": "updateBalance",
					"outputs": [],
					"stateMutability": "nonpayable",
					"type": "function"
				}
			],
			"devdoc": {
				"kind": "dev",
				"methods": {},
				"version": 1
			},
			"evm": {
				"assembly": "    /* \"mapping.sol\":61:360  contract MappingTest {\r... */\n  mstore(0x40, 0x80)\n  callvalue\n  dup1\n  iszero\n  tag_1\n  jumpi\n  0x00\n  dup1\n  revert\ntag_1:\n  pop\n  dataSize(sub_0)\n  dup1\n  dataOffset(sub_0)\n  0x00\n  codecopy\n  0x00\n  return\nstop\n\nsub_0: assembly {\n        /* \"mapping.sol\":61:360  contract MappingTest {\r... */\n      mstore(0x40, 0x80)\n      callvalue\n      dup1\n      iszero\n      tag_1\n      jumpi\n      0x00\n      dup1\n      revert\n    tag_1:\n      pop\n      jumpi(tag_2, lt(calldatasize, 0x04))\n      shr(0xe0, calldataload(0x00))\n      dup1\n      0x27e235e3\n      eq\n      tag_3\n      jumpi\n      dup1\n      0xb5fdeb23\n      eq\n      tag_4\n      jumpi\n      dup1\n      0xba7b37d4\n      eq\n      tag_5\n      jumpi\n    tag_2:\n      0x00\n      dup1\n      revert\n        /* \"mapping.sol\":89:129  mapping(address => uint) public balances */\n    tag_3:\n      tag_6\n      0x04\n      dup1\n      calldatasize\n      sub\n      dup2\n      add\n      swap1\n      tag_7\n      swap2\n      swap1\n      tag_8\n      jump\t// in\n    tag_7:\n      tag_9\n      jump\t// in\n    tag_6:\n      mload(0x40)\n      tag_10\n      swap2\n      swap1\n      tag_11\n      jump\t// in\n    tag_10:\n      mload(0x40)\n      dup1\n      swap2\n      sub\n      swap1\n      return\n        /* \"mapping.sol\":245:357  function getMsg() public view returns (address,uint) {\r... */\n    tag_4:\n      tag_12\n      tag_13\n      jump\t// in\n    tag_12:\n      mload(0x40)\n      tag_14\n      swap3\n      swap2\n      swap1\n      tag_15\n      jump\t// in\n    tag_14:\n      mload(0x40)\n      dup1\n      swap2\n      sub\n      swap1\n      return\n        /* \"mapping.sol\":138:237  function updateBalance(uint newBalance) public {\r... */\n    tag_5:\n      tag_16\n      0x04\n      dup1\n      calldatasize\n      sub\n      dup2\n      add\n      swap1\n      tag_17\n      swap2\n      swap1\n      tag_18\n      jump\t// in\n    tag_17:\n      tag_19\n      jump\t// in\n    tag_16:\n      stop\n        /* \"mapping.sol\":89:129  mapping(address => uint) public balances */\n    tag_9:\n      mstore(0x20, 0x00)\n      dup1\n      0x00\n      mstore\n      keccak256(0x00, 0x40)\n      0x00\n      swap2\n      pop\n      swap1\n      pop\n      sload\n      dup2\n      jump\t// out\n        /* \"mapping.sol\":245:357  function getMsg() public view returns (address,uint) {\r... */\n    tag_13:\n        /* \"mapping.sol\":284:291  address */\n      0x00\n        /* \"mapping.sol\":292:296  uint */\n      dup1\n        /* \"mapping.sol\":317:327  msg.sender */\n      caller\n        /* \"mapping.sol\":328:336  balances */\n      0x00\n        /* \"mapping.sol\":328:348  balances[msg.sender] */\n      dup1\n        /* \"mapping.sol\":337:347  msg.sender */\n      caller\n        /* \"mapping.sol\":328:348  balances[msg.sender] */\n      0xffffffffffffffffffffffffffffffffffffffff\n      and\n      0xffffffffffffffffffffffffffffffffffffffff\n      and\n      dup2\n      mstore\n      0x20\n      add\n      swap1\n      dup2\n      mstore\n      0x20\n      add\n      0x00\n      keccak256\n      sload\n        /* \"mapping.sol\":309:349  return (msg.sender,balances[msg.sender]) */\n      swap2\n      pop\n      swap2\n      pop\n        /* \"mapping.sol\":245:357  function getMsg() public view returns (address,uint) {\r... */\n      swap1\n      swap2\n      jump\t// out\n        /* \"mapping.sol\":138:237  function updateBalance(uint newBalance) public {\r... */\n    tag_19:\n        /* \"mapping.sol\":219:229  newBalance */\n      dup1\n        /* \"mapping.sol\":196:204  balances */\n      0x00\n        /* \"mapping.sol\":196:216  balances[msg.sender] */\n      dup1\n        /* \"mapping.sol\":205:215  msg.sender */\n      caller\n        /* \"mapping.sol\":196:216  balances[msg.sender] */\n      0xffffffffffffffffffffffffffffffffffffffff\n      and\n      0xffffffffffffffffffffffffffffffffffffffff\n      and\n      dup2\n      mstore\n      0x20\n      add\n      swap1\n      dup2\n      mstore\n      0x20\n      add\n      0x00\n      keccak256\n        /* \"mapping.sol\":196:229  balances[msg.sender] = newBalance */\n      dup2\n      swap1\n      sstore\n      pop\n        /* \"mapping.sol\":138:237  function updateBalance(uint newBalance) public {\r... */\n      pop\n      jump\t// out\n        /* \"#utility.yul\":7:146   */\n    tag_23:\n        /* \"#utility.yul\":53:58   */\n      0x00\n        /* \"#utility.yul\":91:97   */\n      dup2\n        /* \"#utility.yul\":78:98   */\n      calldataload\n        /* \"#utility.yul\":69:98   */\n      swap1\n      pop\n        /* \"#utility.yul\":107:140   */\n      tag_25\n        /* \"#utility.yul\":134:139   */\n      dup2\n        /* \"#utility.yul\":107:140   */\n      tag_26\n      jump\t// in\n    tag_25:\n        /* \"#utility.yul\":7:146   */\n      swap3\n      swap2\n      pop\n      pop\n      jump\t// out\n        /* \"#utility.yul\":152:291   */\n    tag_27:\n        /* \"#utility.yul\":198:203   */\n      0x00\n        /* \"#utility.yul\":236:242   */\n      dup2\n        /* \"#utility.yul\":223:243   */\n      calldataload\n        /* \"#utility.yul\":214:243   */\n      swap1\n      pop\n        /* \"#utility.yul\":252:285   */\n      tag_29\n        /* \"#utility.yul\":279:284   */\n      dup2\n        /* \"#utility.yul\":252:285   */\n      tag_30\n      jump\t// in\n    tag_29:\n        /* \"#utility.yul\":152:291   */\n      swap3\n      swap2\n      pop\n      pop\n      jump\t// out\n        /* \"#utility.yul\":297:626   */\n    tag_8:\n        /* \"#utility.yul\":356:362   */\n      0x00\n        /* \"#utility.yul\":405:407   */\n      0x20\n        /* \"#utility.yul\":393:402   */\n      dup3\n        /* \"#utility.yul\":384:391   */\n      dup5\n        /* \"#utility.yul\":380:403   */\n      sub\n        /* \"#utility.yul\":376:408   */\n      slt\n        /* \"#utility.yul\":373:492   */\n      iszero\n      tag_32\n      jumpi\n        /* \"#utility.yul\":411:490   */\n      tag_33\n      tag_34\n      jump\t// in\n    tag_33:\n        /* \"#utility.yul\":373:492   */\n    tag_32:\n        /* \"#utility.yul\":531:532   */\n      0x00\n        /* \"#utility.yul\":556:609   */\n      tag_35\n        /* \"#utility.yul\":601:608   */\n      dup5\n        /* \"#utility.yul\":592:598   */\n      dup3\n        /* \"#utility.yul\":581:590   */\n      dup6\n        /* \"#utility.yul\":577:599   */\n      add\n        /* \"#utility.yul\":556:609   */\n      tag_23\n      jump\t// in\n    tag_35:\n        /* \"#utility.yul\":546:609   */\n      swap2\n      pop\n        /* \"#utility.yul\":502:619   */\n      pop\n        /* \"#utility.yul\":297:626   */\n      swap3\n      swap2\n      pop\n      pop\n      jump\t// out\n        /* \"#utility.yul\":632:961   */\n    tag_18:\n        /* \"#utility.yul\":691:697   */\n      0x00\n        /* \"#utility.yul\":740:742   */\n      0x20\n        /* \"#utility.yul\":728:737   */\n      dup3\n        /* \"#utility.yul\":719:726   */\n      dup5\n        /* \"#utility.yul\":715:738   */\n      sub\n        /* \"#utility.yul\":711:743   */\n      slt\n        /* \"#utility.yul\":708:827   */\n      iszero\n      tag_37\n      jumpi\n        /* \"#utility.yul\":746:825   */\n      tag_38\n      tag_34\n      jump\t// in\n    tag_38:\n        /* \"#utility.yul\":708:827   */\n    tag_37:\n        /* \"#utility.yul\":866:867   */\n      0x00\n        /* \"#utility.yul\":891:944   */\n      tag_39\n        /* \"#utility.yul\":936:943   */\n      dup5\n        /* \"#utility.yul\":927:933   */\n      dup3\n        /* \"#utility.yul\":916:925   */\n      dup6\n        /* \"#utility.yul\":912:934   */\n      add\n        /* \"#utility.yul\":891:944   */\n      tag_27\n      jump\t// in\n    tag_39:\n        /* \"#utility.yul\":881:944   */\n      swap2\n      pop\n        /* \"#utility.yul\":837:954   */\n      pop\n        /* \"#utility.yul\":632:961   */\n      swap3\n      swap2\n      pop\n      pop\n      jump\t// out\n        /* \"#utility.yul\":967:1085   */\n    tag_40:\n        /* \"#utility.yul\":1054:1078   */\n      tag_42\n        /* \"#utility.yul\":1072:1077   */\n      dup2\n        /* \"#utility.yul\":1054:1078   */\n      tag_43\n      jump\t// in\n    tag_42:\n        /* \"#utility.yul\":1049:1052   */\n      dup3\n        /* \"#utility.yul\":1042:1079   */\n      mstore\n        /* \"#utility.yul\":967:1085   */\n      pop\n      pop\n      jump\t// out\n        /* \"#utility.yul\":1091:1209   */\n    tag_44:\n        /* \"#utility.yul\":1178:1202   */\n      tag_46\n        /* \"#utility.yul\":1196:1201   */\n      dup2\n        /* \"#utility.yul\":1178:1202   */\n      tag_47\n      jump\t// in\n    tag_46:\n        /* \"#utility.yul\":1173:1176   */\n      dup3\n        /* \"#utility.yul\":1166:1203   */\n      mstore\n        /* \"#utility.yul\":1091:1209   */\n      pop\n      pop\n      jump\t// out\n        /* \"#utility.yul\":1215:1547   */\n    tag_15:\n        /* \"#utility.yul\":1336:1340   */\n      0x00\n        /* \"#utility.yul\":1374:1376   */\n      0x40\n        /* \"#utility.yul\":1363:1372   */\n      dup3\n        /* \"#utility.yul\":1359:1377   */\n      add\n        /* \"#utility.yul\":1351:1377   */\n      swap1\n      pop\n        /* \"#utility.yul\":1387:1458   */\n      tag_49\n        /* \"#utility.yul\":1455:1456   */\n      0x00\n        /* \"#utility.yul\":1444:1453   */\n      dup4\n        /* \"#utility.yul\":1440:1457   */\n      add\n        /* \"#utility.yul\":1431:1437   */\n      dup6\n        /* \"#utility.yul\":1387:1458   */\n      tag_40\n      jump\t// in\n    tag_49:\n        /* \"#utility.yul\":1468:1540   */\n      tag_50\n        /* \"#utility.yul\":1536:1538   */\n      0x20\n        /* \"#utility.yul\":1525:1534   */\n      dup4\n        /* \"#utility.yul\":1521:1539   */\n      add\n        /* \"#utility.yul\":1512:1518   */\n      dup5\n        /* \"#utility.yul\":1468:1540   */\n      tag_44\n      jump\t// in\n    tag_50:\n        /* \"#utility.yul\":1215:1547   */\n      swap4\n      swap3\n      pop\n      pop\n      pop\n      jump\t// out\n        /* \"#utility.yul\":1553:1775   */\n    tag_11:\n        /* \"#utility.yul\":1646:1650   */\n      0x00\n        /* \"#utility.yul\":1684:1686   */\n      0x20\n        /* \"#utility.yul\":1673:1682   */\n      dup3\n        /* \"#utility.yul\":1669:1687   */\n      add\n        /* \"#utility.yul\":1661:1687   */\n      swap1\n      pop\n        /* \"#utility.yul\":1697:1768   */\n      tag_52\n        /* \"#utility.yul\":1765:1766   */\n      0x00\n        /* \"#utility.yul\":1754:1763   */\n      dup4\n        /* \"#utility.yul\":1750:1767   */\n      add\n        /* \"#utility.yul\":1741:1747   */\n      dup5\n        /* \"#utility.yul\":1697:1768   */\n      tag_44\n      jump\t// in\n    tag_52:\n        /* \"#utility.yul\":1553:1775   */\n      swap3\n      swap2\n      pop\n      pop\n      jump\t// out\n        /* \"#utility.yul\":1862:1958   */\n    tag_43:\n        /* \"#utility.yul\":1899:1906   */\n      0x00\n        /* \"#utility.yul\":1928:1952   */\n      tag_56\n        /* \"#utility.yul\":1946:1951   */\n      dup3\n        /* \"#utility.yul\":1928:1952   */\n      tag_57\n      jump\t// in\n    tag_56:\n        /* \"#utility.yul\":1917:1952   */\n      swap1\n      pop\n        /* \"#utility.yul\":1862:1958   */\n      swap2\n      swap1\n      pop\n      jump\t// out\n        /* \"#utility.yul\":1964:2090   */\n    tag_57:\n        /* \"#utility.yul\":2001:2008   */\n      0x00\n        /* \"#utility.yul\":2041:2083   */\n      0xffffffffffffffffffffffffffffffffffffffff\n        /* \"#utility.yul\":2034:2039   */\n      dup3\n        /* \"#utility.yul\":2030:2084   */\n      and\n        /* \"#utility.yul\":2019:2084   */\n      swap1\n      pop\n        /* \"#utility.yul\":1964:2090   */\n      swap2\n      swap1\n      pop\n      jump\t// out\n        /* \"#utility.yul\":2096:2173   */\n    tag_47:\n        /* \"#utility.yul\":2133:2140   */\n      0x00\n        /* \"#utility.yul\":2162:2167   */\n      dup2\n        /* \"#utility.yul\":2151:2167   */\n      swap1\n      pop\n        /* \"#utility.yul\":2096:2173   */\n      swap2\n      swap1\n      pop\n      jump\t// out\n        /* \"#utility.yul\":2302:2419   */\n    tag_34:\n        /* \"#utility.yul\":2411:2412   */\n      0x00\n        /* \"#utility.yul\":2408:2409   */\n      dup1\n        /* \"#utility.yul\":2401:2413   */\n      revert\n        /* \"#utility.yul\":2425:2547   */\n    tag_26:\n        /* \"#utility.yul\":2498:2522   */\n      tag_64\n        /* \"#utility.yul\":2516:2521   */\n      dup2\n        /* \"#utility.yul\":2498:2522   */\n      tag_43\n      jump\t// in\n    tag_64:\n        /* \"#utility.yul\":2491:2496   */\n      dup2\n        /* \"#utility.yul\":2488:2523   */\n      eq\n        /* \"#utility.yul\":2478:2541   */\n      tag_65\n      jumpi\n        /* \"#utility.yul\":2537:2538   */\n      0x00\n        /* \"#utility.yul\":2534:2535   */\n      dup1\n        /* \"#utility.yul\":2527:2539   */\n      revert\n        /* \"#utility.yul\":2478:2541   */\n    tag_65:\n        /* \"#utility.yul\":2425:2547   */\n      pop\n      jump\t// out\n        /* \"#utility.yul\":2553:2675   */\n    tag_30:\n        /* \"#utility.yul\":2626:2650   */\n      tag_67\n        /* \"#utility.yul\":2644:2649   */\n      dup2\n        /* \"#utility.yul\":2626:2650   */\n      tag_47\n      jump\t// in\n    tag_67:\n        /* \"#utility.yul\":2619:2624   */\n      dup2\n        /* \"#utility.yul\":2616:2651   */\n      eq\n        /* \"#utility.yul\":2606:2669   */\n      tag_68\n      jumpi\n        /* \"#utility.yul\":2665:2666   */\n      0x00\n        /* \"#utility.yul\":2662:2663   */\n      dup1\n        /* \"#utility.yul\":2655:2667   */\n      revert\n        /* \"#utility.yul\":2606:2669   */\n    tag_68:\n        /* \"#utility.yul\":2553:2675   */\n      pop\n      jump\t// out\n\n    auxdata: 0xa26469706673582212207197fc31a2f6237c217f0cf3aec7131113acef04c222c7f3dc9204aa1ebacc2264736f6c63430008070033\n}\n",
				"bytecode": {
					"linkReferences": {},
					"object": "608060405234801561001057600080fd5b506102e5806100206000396000f3fe608060405234801561001057600080fd5b50600436106100415760003560e01c806327e235e314610046578063b5fdeb2314610076578063ba7b37d414610095575b600080fd5b610060600480360381019061005b9190610184565b6100b1565b60405161006d9190610225565b60405180910390f35b61007e6100c9565b60405161008c9291906101fc565b60405180910390f35b6100af60048036038101906100aa91906101b1565b610114565b005b60006020528060005260406000206000915090505481565b600080336000803373ffffffffffffffffffffffffffffffffffffffff1673ffffffffffffffffffffffffffffffffffffffff16815260200190815260200160002054915091509091565b806000803373ffffffffffffffffffffffffffffffffffffffff1673ffffffffffffffffffffffffffffffffffffffff1681526020019081526020016000208190555050565b60008135905061016981610281565b92915050565b60008135905061017e81610298565b92915050565b60006020828403121561019a5761019961027c565b5b60006101a88482850161015a565b91505092915050565b6000602082840312156101c7576101c661027c565b5b60006101d58482850161016f565b91505092915050565b6101e781610240565b82525050565b6101f681610272565b82525050565b600060408201905061021160008301856101de565b61021e60208301846101ed565b9392505050565b600060208201905061023a60008301846101ed565b92915050565b600061024b82610252565b9050919050565b600073ffffffffffffffffffffffffffffffffffffffff82169050919050565b6000819050919050565b600080fd5b61028a81610240565b811461029557600080fd5b50565b6102a181610272565b81146102ac57600080fd5b5056fea26469706673582212207197fc31a2f6237c217f0cf3aec7131113acef04c222c7f3dc9204aa1ebacc2264736f6c63430008070033",
					"opcodes": "PUSH1 0x80 PUSH1 0x40 MSTORE CALLVALUE DUP1 ISZERO PUSH2 0x10 JUMPI PUSH1 0x0 DUP1 REVERT JUMPDEST POP PUSH2 0x2E5 DUP1 PUSH2 0x20 PUSH1 0x0 CODECOPY PUSH1 0x0 RETURN INVALID PUSH1 0x80 PUSH1 0x40 MSTORE CALLVALUE DUP1 ISZERO PUSH2 0x10 JUMPI PUSH1 0x0 DUP1 REVERT JUMPDEST POP PUSH1 0x4 CALLDATASIZE LT PUSH2 0x41 JUMPI PUSH1 0x0 CALLDATALOAD PUSH1 0xE0 SHR DUP1 PUSH4 0x27E235E3 EQ PUSH2 0x46 JUMPI DUP1 PUSH4 0xB5FDEB23 EQ PUSH2 0x76 JUMPI DUP1 PUSH4 0xBA7B37D4 EQ PUSH2 0x95 JUMPI JUMPDEST PUSH1 0x0 DUP1 REVERT JUMPDEST PUSH2 0x60 PUSH1 0x4 DUP1 CALLDATASIZE SUB DUP2 ADD SWAP1 PUSH2 0x5B SWAP2 SWAP1 PUSH2 0x184 JUMP JUMPDEST PUSH2 0xB1 JUMP JUMPDEST PUSH1 0x40 MLOAD PUSH2 0x6D SWAP2 SWAP1 PUSH2 0x225 JUMP JUMPDEST PUSH1 0x40 MLOAD DUP1 SWAP2 SUB SWAP1 RETURN JUMPDEST PUSH2 0x7E PUSH2 0xC9 JUMP JUMPDEST PUSH1 0x40 MLOAD PUSH2 0x8C SWAP3 SWAP2 SWAP1 PUSH2 0x1FC JUMP JUMPDEST PUSH1 0x40 MLOAD DUP1 SWAP2 SUB SWAP1 RETURN JUMPDEST PUSH2 0xAF PUSH1 0x4 DUP1 CALLDATASIZE SUB DUP2 ADD SWAP1 PUSH2 0xAA SWAP2 SWAP1 PUSH2 0x1B1 JUMP JUMPDEST PUSH2 0x114 JUMP JUMPDEST STOP JUMPDEST PUSH1 0x0 PUSH1 0x20 MSTORE DUP1 PUSH1 0x0 MSTORE PUSH1 0x40 PUSH1 0x0 KECCAK256 PUSH1 0x0 SWAP2 POP SWAP1 POP SLOAD DUP2 JUMP JUMPDEST PUSH1 0x0 DUP1 CALLER PUSH1 0x0 DUP1 CALLER PUSH20 0xFFFFFFFFFFFFFFFFFFFFFFFFFFFFFFFFFFFFFFFF AND PUSH20 0xFFFFFFFFFFFFFFFFFFFFFFFFFFFFFFFFFFFFFFFF AND DUP2 MSTORE PUSH1 0x20 ADD SWAP1 DUP2 MSTORE PUSH1 0x20 ADD PUSH1 0x0 KECCAK256 SLOAD SWAP2 POP SWAP2 POP SWAP1 SWAP2 JUMP JUMPDEST DUP1 PUSH1 0x0 DUP1 CALLER PUSH20 0xFFFFFFFFFFFFFFFFFFFFFFFFFFFFFFFFFFFFFFFF AND PUSH20 0xFFFFFFFFFFFFFFFFFFFFFFFFFFFFFFFFFFFFFFFF AND DUP2 MSTORE PUSH1 0x20 ADD SWAP1 DUP2 MSTORE PUSH1 0x20 ADD PUSH1 0x0 KECCAK256 DUP2 SWAP1 SSTORE POP POP JUMP JUMPDEST PUSH1 0x0 DUP2 CALLDATALOAD SWAP1 POP PUSH2 0x169 DUP2 PUSH2 0x281 JUMP JUMPDEST SWAP3 SWAP2 POP POP JUMP JUMPDEST PUSH1 0x0 DUP2 CALLDATALOAD SWAP1 POP PUSH2 0x17E DUP2 PUSH2 0x298 JUMP JUMPDEST SWAP3 SWAP2 POP POP JUMP JUMPDEST PUSH1 0x0 PUSH1 0x20 DUP3 DUP5 SUB SLT ISZERO PUSH2 0x19A JUMPI PUSH2 0x199 PUSH2 0x27C JUMP JUMPDEST JUMPDEST PUSH1 0x0 PUSH2 0x1A8 DUP5 DUP3 DUP6 ADD PUSH2 0x15A JUMP JUMPDEST SWAP2 POP POP SWAP3 SWAP2 POP POP JUMP JUMPDEST PUSH1 0x0 PUSH1 0x20 DUP3 DUP5 SUB SLT ISZERO PUSH2 0x1C7 JUMPI PUSH2 0x1C6 PUSH2 0x27C JUMP JUMPDEST JUMPDEST PUSH1 0x0 PUSH2 0x1D5 DUP5 DUP3 DUP6 ADD PUSH2 0x16F JUMP JUMPDEST SWAP2 POP POP SWAP3 SWAP2 POP POP JUMP JUMPDEST PUSH2 0x1E7 DUP2 PUSH2 0x240 JUMP JUMPDEST DUP3 MSTORE POP POP JUMP JUMPDEST PUSH2 0x1F6 DUP2 PUSH2 0x272 JUMP JUMPDEST DUP3 MSTORE POP POP JUMP JUMPDEST PUSH1 0x0 PUSH1 0x40 DUP3 ADD SWAP1 POP PUSH2 0x211 PUSH1 0x0 DUP4 ADD DUP6 PUSH2 0x1DE JUMP JUMPDEST PUSH2 0x21E PUSH1 0x20 DUP4 ADD DUP5 PUSH2 0x1ED JUMP JUMPDEST SWAP4 SWAP3 POP POP POP JUMP JUMPDEST PUSH1 0x0 PUSH1 0x20 DUP3 ADD SWAP1 POP PUSH2 0x23A PUSH1 0x0 DUP4 ADD DUP5 PUSH2 0x1ED JUMP JUMPDEST SWAP3 SWAP2 POP POP JUMP JUMPDEST PUSH1 0x0 PUSH2 0x24B DUP3 PUSH2 0x252 JUMP JUMPDEST SWAP1 POP SWAP2 SWAP1 POP JUMP JUMPDEST PUSH1 0x0 PUSH20 0xFFFFFFFFFFFFFFFFFFFFFFFFFFFFFFFFFFFFFFFF DUP3 AND SWAP1 POP SWAP2 SWAP1 POP JUMP JUMPDEST PUSH1 0x0 DUP2 SWAP1 POP SWAP2 SWAP1 POP JUMP JUMPDEST PUSH1 0x0 DUP1 REVERT JUMPDEST PUSH2 0x28A DUP2 PUSH2 0x240 JUMP JUMPDEST DUP2 EQ PUSH2 0x295 JUMPI PUSH1 0x0 DUP1 REVERT JUMPDEST POP JUMP JUMPDEST PUSH2 0x2A1 DUP2 PUSH2 0x272 JUMP JUMPDEST DUP2 EQ PUSH2 0x2AC JUMPI PUSH1 0x0 DUP1 REVERT JUMPDEST POP JUMP INVALID LOG2 PUSH5 0x6970667358 0x22 SLT KECCAK256 PUSH18 0x97FC31A2F6237C217F0CF3AEC7131113ACEF DIV 0xC2 0x22 0xC7 RETURN 0xDC SWAP3 DIV 0xAA 0x1E 0xBA 0xCC 0x22 PUSH5 0x736F6C6343 STOP ADDMOD SMOD STOP CALLER "
				},
				"gasEstimates": {
					"creation": {
						"codeDepositCost": "148200",
						"executionCost": "196",
						"totalCost": "148396"
					},
					"external": {
						"balances(address)": "2792",
						"getMsg()": "2688",
						"updateBalance(uint256)": "22631"
					}
				},
				"methodIdentifiers": {
					"balances(address)": "27e235e3",
					"getMsg()": "b5fdeb23",
					"updateBalance(uint256)": "ba7b37d4"
				}
			},
			"storageLayout": {
				"storage": [
					{
						"astId": 5,
						"contract": "mapping.sol:MappingTest",
						"label": "balances",
						"offset": 0,
						"slot": "0",
						"type": "t_mapping(t_address,t_uint256)"
					}
				],
				"types": {
					"t_address": {
						"encoding": "inplace",
						"label": "address",
						"numberOfBytes": "20"
					},
					"t_mapping(t_address,t_uint256)": {
						"encoding": "mapping",
						"key": "t_address",
						"label": "mapping(address => uint256)",
						"numberOfBytes": "32",
						"value": "t_uint256"
					},
					"t_uint256": {
						"encoding": "inplace",
						"label": "uint256",
						"numberOfBytes": "32"
					}
				}
			},
			"userdoc": {
				"kind": "user",
				"methods": {},
				"version": 1
			}
		}
	}
}