{
	"array2.sol": {
		"ArrayTest": {
			"abi": [
				{
					"inputs": [
						{
							"internalType": "string",
							"name": "_name",
							"type": "string"
						},
						{
							"internalType": "uint256",
							"name": "_age",
							"type": "uint256"
						}
					],
					"name": "add",
					"outputs": [],
					"stateMutability": "nonpayable",
					"type": "function"
				},
				{
					"inputs": [],
					"name": "getAllUser",
					"outputs": [
						{
							"components": [
								{
									"internalType": "string",
									"name": "name",
									"type": "string"
								},
								{
									"internalType": "uint256",
									"name": "age",
									"type": "uint256"
								}
							],
							"internalType": "struct ArrayTest.User[]",
							"name": "",
							"type": "tuple[]"
						}
					],
					"stateMutability": "view",
					"type": "function"
				}
			],
			"devdoc": {
				"kind": "dev",
				"methods": {},
				"version": 1
			},
			"evm": {
				"assembly": "    /* \"array2.sol\":152:473  contract ArrayTest {... */\n  mstore(0x40, 0x80)\n  callvalue\n  dup1\n  iszero\n  tag_1\n  jumpi\n  0x00\n  dup1\n  revert\ntag_1:\n  pop\n  dataSize(sub_0)\n  dup1\n  dataOffset(sub_0)\n  0x00\n  codecopy\n  0x00\n  return\nstop\n\nsub_0: assembly {\n        /* \"array2.sol\":152:473  contract ArrayTest {... */\n      mstore(0x40, 0x80)\n      callvalue\n      dup1\n      iszero\n      tag_1\n      jumpi\n      0x00\n      dup1\n      revert\n    tag_1:\n      pop\n      jumpi(tag_2, lt(calldatasize, 0x04))\n      shr(0xe0, calldataload(0x00))\n      dup1\n      0x36555b85\n      eq\n      tag_3\n      jumpi\n      dup1\n      0x47531df8\n      eq\n      tag_4\n      jumpi\n    tag_2:\n      0x00\n      dup1\n      revert\n        /* \"array2.sol\":267:375  function add(string memory _name,uint _age) public {... */\n    tag_3:\n      tag_5\n      0x04\n      dup1\n      calldatasize\n      sub\n      dup2\n      add\n      swap1\n      tag_6\n      swap2\n      swap1\n      tag_7\n      jump\t// in\n    tag_6:\n      tag_8\n      jump\t// in\n    tag_5:\n      stop\n        /* \"array2.sol\":383:470  function getAllUser() public view returns (User[] memory){... */\n    tag_4:\n      tag_9\n      tag_10\n      jump\t// in\n    tag_9:\n      mload(0x40)\n      tag_11\n      swap2\n      swap1\n      tag_12\n      jump\t// in\n    tag_11:\n      mload(0x40)\n      dup1\n      swap2\n      sub\n      swap1\n      return\n        /* \"array2.sol\":267:375  function add(string memory _name,uint _age) public {... */\n    tag_8:\n        /* \"array2.sol\":329:333  list */\n      0x00\n        /* \"array2.sol\":339:366  User({name:_name,age:_age}) */\n      mload(0x40)\n      dup1\n      0x40\n      add\n      0x40\n      mstore\n      dup1\n        /* \"array2.sol\":350:355  _name */\n      dup5\n        /* \"array2.sol\":339:366  User({name:_name,age:_age}) */\n      dup2\n      mstore\n      0x20\n      add\n        /* \"array2.sol\":360:364  _age */\n      dup4\n        /* \"array2.sol\":339:366  User({name:_name,age:_age}) */\n      dup2\n      mstore\n      pop\n        /* \"array2.sol\":329:367  list.push(User({name:_name,age:_age})) */\n      swap1\n      dup1\n      0x01\n      dup2\n      sload\n      add\n      dup1\n      dup3\n      sstore\n      dup1\n      swap2\n      pop\n      pop\n      0x01\n      swap1\n      sub\n      swap1\n      0x00\n      mstore\n      keccak256(0x00, 0x20)\n      swap1\n      0x02\n      mul\n      add\n      0x00\n      swap1\n      swap2\n      swap1\n      swap2\n      swap1\n      swap2\n      pop\n      0x00\n      dup3\n      add\n      mload\n      dup2\n      0x00\n      add\n      swap1\n      dup2\n      tag_15\n      swap2\n      swap1\n      tag_16\n      jump\t// in\n    tag_15:\n      pop\n      0x20\n      dup3\n      add\n      mload\n      dup2\n      0x01\n      add\n      sstore\n      pop\n      pop\n        /* \"array2.sol\":267:375  function add(string memory _name,uint _age) public {... */\n      pop\n      pop\n      jump\t// out\n        /* \"array2.sol\":383:470  function getAllUser() public view returns (User[] memory){... */\n    tag_10:\n        /* \"array2.sol\":426:439  User[] memory */\n      0x60\n        /* \"array2.sol\":458:462  list */\n      0x00\n        /* \"array2.sol\":451:462  return list */\n      dup1\n      sload\n      dup1\n      0x20\n      mul\n      0x20\n      add\n      mload(0x40)\n      swap1\n      dup2\n      add\n      0x40\n      mstore\n      dup1\n      swap3\n      swap2\n      swap1\n      dup2\n      dup2\n      mstore\n      0x20\n      add\n      0x00\n      swap1\n    tag_18:\n      dup3\n      dup3\n      lt\n      iszero\n      tag_19\n      jumpi\n      dup4\n      dup3\n      swap1\n      0x00\n      mstore\n      keccak256(0x00, 0x20)\n      swap1\n      0x02\n      mul\n      add\n      mload(0x40)\n      dup1\n      0x40\n      add\n      0x40\n      mstore\n      swap1\n      dup2\n      0x00\n      dup3\n      add\n      dup1\n      sload\n      tag_21\n      swap1\n      tag_22\n      jump\t// in\n    tag_21:\n      dup1\n      0x1f\n      add\n      0x20\n      dup1\n      swap2\n      div\n      mul\n      0x20\n      add\n      mload(0x40)\n      swap1\n      dup2\n      add\n      0x40\n      mstore\n      dup1\n      swap3\n      swap2\n      swap1\n      dup2\n      dup2\n      mstore\n      0x20\n      add\n      dup3\n      dup1\n      sload\n      tag_23\n      swap1\n      tag_22\n      jump\t// in\n    tag_23:\n      dup1\n      iszero\n      tag_24\n      jumpi\n      dup1\n      0x1f\n      lt\n      tag_25\n      jumpi\n      0x0100\n      dup1\n      dup4\n      sload\n      div\n      mul\n      dup4\n      mstore\n      swap2\n      0x20\n      add\n      swap2\n      jump(tag_24)\n    tag_25:\n      dup3\n      add\n      swap2\n      swap1\n      0x00\n      mstore\n      keccak256(0x00, 0x20)\n      swap1\n    tag_26:\n      dup2\n      sload\n      dup2\n      mstore\n      swap1\n      0x01\n      add\n      swap1\n      0x20\n      add\n      dup1\n      dup4\n      gt\n      tag_26\n      jumpi\n      dup3\n      swap1\n      sub\n      0x1f\n      and\n      dup3\n      add\n      swap2\n    tag_24:\n      pop\n      pop\n      pop\n      pop\n      pop\n      dup2\n      mstore\n      0x20\n      add\n      0x01\n      dup3\n      add\n      sload\n      dup2\n      mstore\n      pop\n      pop\n      dup2\n      mstore\n      0x20\n      add\n      swap1\n      0x01\n      add\n      swap1\n      jump(tag_18)\n    tag_19:\n      pop\n      pop\n      pop\n      pop\n      swap1\n      pop\n        /* \"array2.sol\":383:470  function getAllUser() public view returns (User[] memory){... */\n      swap1\n      jump\t// out\n        /* \"#utility.yul\":7:82   */\n    tag_27:\n        /* \"#utility.yul\":40:46   */\n      0x00\n        /* \"#utility.yul\":73:75   */\n      0x40\n        /* \"#utility.yul\":67:76   */\n      mload\n        /* \"#utility.yul\":57:76   */\n      swap1\n      pop\n        /* \"#utility.yul\":7:82   */\n      swap1\n      jump\t// out\n        /* \"#utility.yul\":88:205   */\n    tag_28:\n        /* \"#utility.yul\":197:198   */\n      0x00\n        /* \"#utility.yul\":194:195   */\n      dup1\n        /* \"#utility.yul\":187:199   */\n      revert\n        /* \"#utility.yul\":211:328   */\n    tag_29:\n        /* \"#utility.yul\":320:321   */\n      0x00\n        /* \"#utility.yul\":317:318   */\n      dup1\n        /* \"#utility.yul\":310:322   */\n      revert\n        /* \"#utility.yul\":334:451   */\n    tag_30:\n        /* \"#utility.yul\":443:444   */\n      0x00\n        /* \"#utility.yul\":440:441   */\n      dup1\n        /* \"#utility.yul\":433:445   */\n      revert\n        /* \"#utility.yul\":457:574   */\n    tag_31:\n        /* \"#utility.yul\":566:567   */\n      0x00\n        /* \"#utility.yul\":563:564   */\n      dup1\n        /* \"#utility.yul\":556:568   */\n      revert\n        /* \"#utility.yul\":580:682   */\n    tag_32:\n        /* \"#utility.yul\":621:627   */\n      0x00\n        /* \"#utility.yul\":672:674   */\n      0x1f\n        /* \"#utility.yul\":668:675   */\n      not\n        /* \"#utility.yul\":663:665   */\n      0x1f\n        /* \"#utility.yul\":656:661   */\n      dup4\n        /* \"#utility.yul\":652:666   */\n      add\n        /* \"#utility.yul\":648:676   */\n      and\n        /* \"#utility.yul\":638:676   */\n      swap1\n      pop\n        /* \"#utility.yul\":580:682   */\n      swap2\n      swap1\n      pop\n      jump\t// out\n        /* \"#utility.yul\":688:868   */\n    tag_33:\n        /* \"#utility.yul\":736:813   */\n      0x4e487b7100000000000000000000000000000000000000000000000000000000\n        /* \"#utility.yul\":733:734   */\n      0x00\n        /* \"#utility.yul\":726:814   */\n      mstore\n        /* \"#utility.yul\":833:837   */\n      0x41\n        /* \"#utility.yul\":830:831   */\n      0x04\n        /* \"#utility.yul\":823:838   */\n      mstore\n        /* \"#utility.yul\":857:861   */\n      0x24\n        /* \"#utility.yul\":854:855   */\n      0x00\n        /* \"#utility.yul\":847:862   */\n      revert\n        /* \"#utility.yul\":874:1155   */\n    tag_34:\n        /* \"#utility.yul\":957:984   */\n      tag_80\n        /* \"#utility.yul\":979:983   */\n      dup3\n        /* \"#utility.yul\":957:984   */\n      tag_32\n      jump\t// in\n    tag_80:\n        /* \"#utility.yul\":949:955   */\n      dup2\n        /* \"#utility.yul\":945:985   */\n      add\n        /* \"#utility.yul\":1087:1093   */\n      dup2\n        /* \"#utility.yul\":1075:1085   */\n      dup2\n        /* \"#utility.yul\":1072:1094   */\n      lt\n        /* \"#utility.yul\":1051:1069   */\n      0xffffffffffffffff\n        /* \"#utility.yul\":1039:1049   */\n      dup3\n        /* \"#utility.yul\":1036:1070   */\n      gt\n        /* \"#utility.yul\":1033:1095   */\n      or\n        /* \"#utility.yul\":1030:1118   */\n      iszero\n      tag_81\n      jumpi\n        /* \"#utility.yul\":1098:1116   */\n      tag_82\n      tag_33\n      jump\t// in\n    tag_82:\n        /* \"#utility.yul\":1030:1118   */\n    tag_81:\n        /* \"#utility.yul\":1138:1148   */\n      dup1\n        /* \"#utility.yul\":1134:1136   */\n      0x40\n        /* \"#utility.yul\":1127:1149   */\n      mstore\n        /* \"#utility.yul\":917:1155   */\n      pop\n        /* \"#utility.yul\":874:1155   */\n      pop\n      pop\n      jump\t// out\n        /* \"#utility.yul\":1161:1290   */\n    tag_35:\n        /* \"#utility.yul\":1195:1201   */\n      0x00\n        /* \"#utility.yul\":1222:1242   */\n      tag_84\n      tag_27\n      jump\t// in\n    tag_84:\n        /* \"#utility.yul\":1212:1242   */\n      swap1\n      pop\n        /* \"#utility.yul\":1251:1284   */\n      tag_85\n        /* \"#utility.yul\":1279:1283   */\n      dup3\n        /* \"#utility.yul\":1271:1277   */\n      dup3\n        /* \"#utility.yul\":1251:1284   */\n      tag_34\n      jump\t// in\n    tag_85:\n        /* \"#utility.yul\":1161:1290   */\n      swap2\n      swap1\n      pop\n      jump\t// out\n        /* \"#utility.yul\":1296:1604   */\n    tag_36:\n        /* \"#utility.yul\":1358:1362   */\n      0x00\n        /* \"#utility.yul\":1448:1466   */\n      0xffffffffffffffff\n        /* \"#utility.yul\":1440:1446   */\n      dup3\n        /* \"#utility.yul\":1437:1467   */\n      gt\n        /* \"#utility.yul\":1434:1490   */\n      iszero\n      tag_87\n      jumpi\n        /* \"#utility.yul\":1470:1488   */\n      tag_88\n      tag_33\n      jump\t// in\n    tag_88:\n        /* \"#utility.yul\":1434:1490   */\n    tag_87:\n        /* \"#utility.yul\":1508:1537   */\n      tag_89\n        /* \"#utility.yul\":1530:1536   */\n      dup3\n        /* \"#utility.yul\":1508:1537   */\n      tag_32\n      jump\t// in\n    tag_89:\n        /* \"#utility.yul\":1500:1537   */\n      swap1\n      pop\n        /* \"#utility.yul\":1592:1596   */\n      0x20\n        /* \"#utility.yul\":1586:1590   */\n      dup2\n        /* \"#utility.yul\":1582:1597   */\n      add\n        /* \"#utility.yul\":1574:1597   */\n      swap1\n      pop\n        /* \"#utility.yul\":1296:1604   */\n      swap2\n      swap1\n      pop\n      jump\t// out\n        /* \"#utility.yul\":1610:1764   */\n    tag_37:\n        /* \"#utility.yul\":1694:1700   */\n      dup3\n        /* \"#utility.yul\":1689:1692   */\n      dup2\n        /* \"#utility.yul\":1684:1687   */\n      dup4\n        /* \"#utility.yul\":1671:1701   */\n      calldatacopy\n        /* \"#utility.yul\":1756:1757   */\n      0x00\n        /* \"#utility.yul\":1747:1753   */\n      dup4\n        /* \"#utility.yul\":1742:1745   */\n      dup4\n        /* \"#utility.yul\":1738:1754   */\n      add\n        /* \"#utility.yul\":1731:1758   */\n      mstore\n        /* \"#utility.yul\":1610:1764   */\n      pop\n      pop\n      pop\n      jump\t// out\n        /* \"#utility.yul\":1770:2182   */\n    tag_38:\n        /* \"#utility.yul\":1848:1853   */\n      0x00\n        /* \"#utility.yul\":1873:1939   */\n      tag_92\n        /* \"#utility.yul\":1889:1938   */\n      tag_93\n        /* \"#utility.yul\":1931:1937   */\n      dup5\n        /* \"#utility.yul\":1889:1938   */\n      tag_36\n      jump\t// in\n    tag_93:\n        /* \"#utility.yul\":1873:1939   */\n      tag_35\n      jump\t// in\n    tag_92:\n        /* \"#utility.yul\":1864:1939   */\n      swap1\n      pop\n        /* \"#utility.yul\":1962:1968   */\n      dup3\n        /* \"#utility.yul\":1955:1960   */\n      dup2\n        /* \"#utility.yul\":1948:1969   */\n      mstore\n        /* \"#utility.yul\":2000:2004   */\n      0x20\n        /* \"#utility.yul\":1993:1998   */\n      dup2\n        /* \"#utility.yul\":1989:2005   */\n      add\n        /* \"#utility.yul\":2038:2041   */\n      dup5\n        /* \"#utility.yul\":2029:2035   */\n      dup5\n        /* \"#utility.yul\":2024:2027   */\n      dup5\n        /* \"#utility.yul\":2020:2036   */\n      add\n        /* \"#utility.yul\":2017:2042   */\n      gt\n        /* \"#utility.yul\":2014:2126   */\n      iszero\n      tag_94\n      jumpi\n        /* \"#utility.yul\":2045:2124   */\n      tag_95\n      tag_31\n      jump\t// in\n    tag_95:\n        /* \"#utility.yul\":2014:2126   */\n    tag_94:\n        /* \"#utility.yul\":2135:2176   */\n      tag_96\n        /* \"#utility.yul\":2169:2175   */\n      dup5\n        /* \"#utility.yul\":2164:2167   */\n      dup3\n        /* \"#utility.yul\":2159:2162   */\n      dup6\n        /* \"#utility.yul\":2135:2176   */\n      tag_37\n      jump\t// in\n    tag_96:\n        /* \"#utility.yul\":1854:2182   */\n      pop\n        /* \"#utility.yul\":1770:2182   */\n      swap4\n      swap3\n      pop\n      pop\n      pop\n      jump\t// out\n        /* \"#utility.yul\":2202:2542   */\n    tag_39:\n        /* \"#utility.yul\":2258:2263   */\n      0x00\n        /* \"#utility.yul\":2307:2310   */\n      dup3\n        /* \"#utility.yul\":2300:2304   */\n      0x1f\n        /* \"#utility.yul\":2292:2298   */\n      dup4\n        /* \"#utility.yul\":2288:2305   */\n      add\n        /* \"#utility.yul\":2284:2311   */\n      slt\n        /* \"#utility.yul\":2274:2396   */\n      tag_98\n      jumpi\n        /* \"#utility.yul\":2315:2394   */\n      tag_99\n      tag_30\n      jump\t// in\n    tag_99:\n        /* \"#utility.yul\":2274:2396   */\n    tag_98:\n        /* \"#utility.yul\":2432:2438   */\n      dup2\n        /* \"#utility.yul\":2419:2439   */\n      calldataload\n        /* \"#utility.yul\":2457:2536   */\n      tag_100\n        /* \"#utility.yul\":2532:2535   */\n      dup5\n        /* \"#utility.yul\":2524:2530   */\n      dup3\n        /* \"#utility.yul\":2517:2521   */\n      0x20\n        /* \"#utility.yul\":2509:2515   */\n      dup7\n        /* \"#utility.yul\":2505:2522   */\n      add\n        /* \"#utility.yul\":2457:2536   */\n      tag_38\n      jump\t// in\n    tag_100:\n        /* \"#utility.yul\":2448:2536   */\n      swap2\n      pop\n        /* \"#utility.yul\":2264:2542   */\n      pop\n        /* \"#utility.yul\":2202:2542   */\n      swap3\n      swap2\n      pop\n      pop\n      jump\t// out\n        /* \"#utility.yul\":2548:2625   */\n    tag_40:\n        /* \"#utility.yul\":2585:2592   */\n      0x00\n        /* \"#utility.yul\":2614:2619   */\n      dup2\n        /* \"#utility.yul\":2603:2619   */\n      swap1\n      pop\n        /* \"#utility.yul\":2548:2625   */\n      swap2\n      swap1\n      pop\n      jump\t// out\n        /* \"#utility.yul\":2631:2753   */\n    tag_41:\n        /* \"#utility.yul\":2704:2728   */\n      tag_103\n        /* \"#utility.yul\":2722:2727   */\n      dup2\n        /* \"#utility.yul\":2704:2728   */\n      tag_40\n      jump\t// in\n    tag_103:\n        /* \"#utility.yul\":2697:2702   */\n      dup2\n        /* \"#utility.yul\":2694:2729   */\n      eq\n        /* \"#utility.yul\":2684:2747   */\n      tag_104\n      jumpi\n        /* \"#utility.yul\":2743:2744   */\n      0x00\n        /* \"#utility.yul\":2740:2741   */\n      dup1\n        /* \"#utility.yul\":2733:2745   */\n      revert\n        /* \"#utility.yul\":2684:2747   */\n    tag_104:\n        /* \"#utility.yul\":2631:2753   */\n      pop\n      jump\t// out\n        /* \"#utility.yul\":2759:2898   */\n    tag_42:\n        /* \"#utility.yul\":2805:2810   */\n      0x00\n        /* \"#utility.yul\":2843:2849   */\n      dup2\n        /* \"#utility.yul\":2830:2850   */\n      calldataload\n        /* \"#utility.yul\":2821:2850   */\n      swap1\n      pop\n        /* \"#utility.yul\":2859:2892   */\n      tag_106\n        /* \"#utility.yul\":2886:2891   */\n      dup2\n        /* \"#utility.yul\":2859:2892   */\n      tag_41\n      jump\t// in\n    tag_106:\n        /* \"#utility.yul\":2759:2898   */\n      swap3\n      swap2\n      pop\n      pop\n      jump\t// out\n        /* \"#utility.yul\":2904:3558   */\n    tag_7:\n        /* \"#utility.yul\":2982:2988   */\n      0x00\n        /* \"#utility.yul\":2990:2996   */\n      dup1\n        /* \"#utility.yul\":3039:3041   */\n      0x40\n        /* \"#utility.yul\":3027:3036   */\n      dup4\n        /* \"#utility.yul\":3018:3025   */\n      dup6\n        /* \"#utility.yul\":3014:3037   */\n      sub\n        /* \"#utility.yul\":3010:3042   */\n      slt\n        /* \"#utility.yul\":3007:3126   */\n      iszero\n      tag_108\n      jumpi\n        /* \"#utility.yul\":3045:3124   */\n      tag_109\n      tag_28\n      jump\t// in\n    tag_109:\n        /* \"#utility.yul\":3007:3126   */\n    tag_108:\n        /* \"#utility.yul\":3193:3194   */\n      0x00\n        /* \"#utility.yul\":3182:3191   */\n      dup4\n        /* \"#utility.yul\":3178:3195   */\n      add\n        /* \"#utility.yul\":3165:3196   */\n      calldataload\n        /* \"#utility.yul\":3223:3241   */\n      0xffffffffffffffff\n        /* \"#utility.yul\":3215:3221   */\n      dup2\n        /* \"#utility.yul\":3212:3242   */\n      gt\n        /* \"#utility.yul\":3209:3326   */\n      iszero\n      tag_110\n      jumpi\n        /* \"#utility.yul\":3245:3324   */\n      tag_111\n      tag_29\n      jump\t// in\n    tag_111:\n        /* \"#utility.yul\":3209:3326   */\n    tag_110:\n        /* \"#utility.yul\":3350:3413   */\n      tag_112\n        /* \"#utility.yul\":3405:3412   */\n      dup6\n        /* \"#utility.yul\":3396:3402   */\n      dup3\n        /* \"#utility.yul\":3385:3394   */\n      dup7\n        /* \"#utility.yul\":3381:3403   */\n      add\n        /* \"#utility.yul\":3350:3413   */\n      tag_39\n      jump\t// in\n    tag_112:\n        /* \"#utility.yul\":3340:3413   */\n      swap3\n      pop\n        /* \"#utility.yul\":3136:3423   */\n      pop\n        /* \"#utility.yul\":3462:3464   */\n      0x20\n        /* \"#utility.yul\":3488:3541   */\n      tag_113\n        /* \"#utility.yul\":3533:3540   */\n      dup6\n        /* \"#utility.yul\":3524:3530   */\n      dup3\n        /* \"#utility.yul\":3513:3522   */\n      dup7\n        /* \"#utility.yul\":3509:3531   */\n      add\n        /* \"#utility.yul\":3488:3541   */\n      tag_42\n      jump\t// in\n    tag_113:\n        /* \"#utility.yul\":3478:3541   */\n      swap2\n      pop\n        /* \"#utility.yul\":3433:3551   */\n      pop\n        /* \"#utility.yul\":2904:3558   */\n      swap3\n      pop\n      swap3\n      swap1\n      pop\n      jump\t// out\n        /* \"#utility.yul\":3564:3697   */\n    tag_43:\n        /* \"#utility.yul\":3650:3656   */\n      0x00\n        /* \"#utility.yul\":3684:3689   */\n      dup2\n        /* \"#utility.yul\":3678:3690   */\n      mload\n        /* \"#utility.yul\":3668:3690   */\n      swap1\n      pop\n        /* \"#utility.yul\":3564:3697   */\n      swap2\n      swap1\n      pop\n      jump\t// out\n        /* \"#utility.yul\":3703:3906   */\n    tag_44:\n        /* \"#utility.yul\":3821:3832   */\n      0x00\n        /* \"#utility.yul\":3855:3861   */\n      dup3\n        /* \"#utility.yul\":3850:3853   */\n      dup3\n        /* \"#utility.yul\":3843:3862   */\n      mstore\n        /* \"#utility.yul\":3895:3899   */\n      0x20\n        /* \"#utility.yul\":3890:3893   */\n      dup3\n        /* \"#utility.yul\":3886:3900   */\n      add\n        /* \"#utility.yul\":3871:3900   */\n      swap1\n      pop\n        /* \"#utility.yul\":3703:3906   */\n      swap3\n      swap2\n      pop\n      pop\n      jump\t// out\n        /* \"#utility.yul\":3912:4063   */\n    tag_45:\n        /* \"#utility.yul\":3998:4002   */\n      0x00\n        /* \"#utility.yul\":4021:4024   */\n      dup2\n        /* \"#utility.yul\":4013:4024   */\n      swap1\n      pop\n        /* \"#utility.yul\":4051:4055   */\n      0x20\n        /* \"#utility.yul\":4046:4049   */\n      dup3\n        /* \"#utility.yul\":4042:4056   */\n      add\n        /* \"#utility.yul\":4034:4056   */\n      swap1\n      pop\n        /* \"#utility.yul\":3912:4063   */\n      swap2\n      swap1\n      pop\n      jump\t// out\n        /* \"#utility.yul\":4069:4168   */\n    tag_46:\n        /* \"#utility.yul\":4121:4127   */\n      0x00\n        /* \"#utility.yul\":4155:4160   */\n      dup2\n        /* \"#utility.yul\":4149:4161   */\n      mload\n        /* \"#utility.yul\":4139:4161   */\n      swap1\n      pop\n        /* \"#utility.yul\":4069:4168   */\n      swap2\n      swap1\n      pop\n      jump\t// out\n        /* \"#utility.yul\":4174:4333   */\n    tag_47:\n        /* \"#utility.yul\":4248:4259   */\n      0x00\n        /* \"#utility.yul\":4282:4288   */\n      dup3\n        /* \"#utility.yul\":4277:4280   */\n      dup3\n        /* \"#utility.yul\":4270:4289   */\n      mstore\n        /* \"#utility.yul\":4322:4326   */\n      0x20\n        /* \"#utility.yul\":4317:4320   */\n      dup3\n        /* \"#utility.yul\":4313:4327   */\n      add\n        /* \"#utility.yul\":4298:4327   */\n      swap1\n      pop\n        /* \"#utility.yul\":4174:4333   */\n      swap3\n      swap2\n      pop\n      pop\n      jump\t// out\n        /* \"#utility.yul\":4339:4646   */\n    tag_48:\n        /* \"#utility.yul\":4407:4408   */\n      0x00\n        /* \"#utility.yul\":4417:4530   */\n    tag_120:\n        /* \"#utility.yul\":4431:4437   */\n      dup4\n        /* \"#utility.yul\":4428:4429   */\n      dup2\n        /* \"#utility.yul\":4425:4438   */\n      lt\n        /* \"#utility.yul\":4417:4530   */\n      iszero\n      tag_122\n      jumpi\n        /* \"#utility.yul\":4516:4517   */\n      dup1\n        /* \"#utility.yul\":4511:4514   */\n      dup3\n        /* \"#utility.yul\":4507:4518   */\n      add\n        /* \"#utility.yul\":4501:4519   */\n      mload\n        /* \"#utility.yul\":4497:4498   */\n      dup2\n        /* \"#utility.yul\":4492:4495   */\n      dup5\n        /* \"#utility.yul\":4488:4499   */\n      add\n        /* \"#utility.yul\":4481:4520   */\n      mstore\n        /* \"#utility.yul\":4453:4455   */\n      0x20\n        /* \"#utility.yul\":4450:4451   */\n      dup2\n        /* \"#utility.yul\":4446:4456   */\n      add\n        /* \"#utility.yul\":4441:4456   */\n      swap1\n      pop\n        /* \"#utility.yul\":4417:4530   */\n      jump(tag_120)\n    tag_122:\n        /* \"#utility.yul\":4548:4554   */\n      dup4\n        /* \"#utility.yul\":4545:4546   */\n      dup2\n        /* \"#utility.yul\":4542:4555   */\n      gt\n        /* \"#utility.yul\":4539:4640   */\n      iszero\n      tag_123\n      jumpi\n        /* \"#utility.yul\":4628:4629   */\n      0x00\n        /* \"#utility.yul\":4619:4625   */\n      dup5\n        /* \"#utility.yul\":4614:4617   */\n      dup5\n        /* \"#utility.yul\":4610:4626   */\n      add\n        /* \"#utility.yul\":4603:4630   */\n      mstore\n        /* \"#utility.yul\":4539:4640   */\n    tag_123:\n        /* \"#utility.yul\":4388:4646   */\n      pop\n        /* \"#utility.yul\":4339:4646   */\n      pop\n      pop\n      pop\n      jump\t// out\n        /* \"#utility.yul\":4652:4996   */\n    tag_49:\n        /* \"#utility.yul\":4730:4733   */\n      0x00\n        /* \"#utility.yul\":4758:4797   */\n      tag_125\n        /* \"#utility.yul\":4791:4796   */\n      dup3\n        /* \"#utility.yul\":4758:4797   */\n      tag_46\n      jump\t// in\n    tag_125:\n        /* \"#utility.yul\":4813:4874   */\n      tag_126\n        /* \"#utility.yul\":4867:4873   */\n      dup2\n        /* \"#utility.yul\":4862:4865   */\n      dup6\n        /* \"#utility.yul\":4813:4874   */\n      tag_47\n      jump\t// in\n    tag_126:\n        /* \"#utility.yul\":4806:4874   */\n      swap4\n      pop\n        /* \"#utility.yul\":4883:4935   */\n      tag_127\n        /* \"#utility.yul\":4928:4934   */\n      dup2\n        /* \"#utility.yul\":4923:4926   */\n      dup6\n        /* \"#utility.yul\":4916:4920   */\n      0x20\n        /* \"#utility.yul\":4909:4914   */\n      dup7\n        /* \"#utility.yul\":4905:4921   */\n      add\n        /* \"#utility.yul\":4883:4935   */\n      tag_48\n      jump\t// in\n    tag_127:\n        /* \"#utility.yul\":4960:4989   */\n      tag_128\n        /* \"#utility.yul\":4982:4988   */\n      dup2\n        /* \"#utility.yul\":4960:4989   */\n      tag_32\n      jump\t// in\n    tag_128:\n        /* \"#utility.yul\":4955:4958   */\n      dup5\n        /* \"#utility.yul\":4951:4990   */\n      add\n        /* \"#utility.yul\":4944:4990   */\n      swap2\n      pop\n        /* \"#utility.yul\":4734:4996   */\n      pop\n        /* \"#utility.yul\":4652:4996   */\n      swap3\n      swap2\n      pop\n      pop\n      jump\t// out\n        /* \"#utility.yul\":5002:5110   */\n    tag_50:\n        /* \"#utility.yul\":5079:5103   */\n      tag_130\n        /* \"#utility.yul\":5097:5102   */\n      dup2\n        /* \"#utility.yul\":5079:5103   */\n      tag_40\n      jump\t// in\n    tag_130:\n        /* \"#utility.yul\":5074:5077   */\n      dup3\n        /* \"#utility.yul\":5067:5104   */\n      mstore\n        /* \"#utility.yul\":5002:5110   */\n      pop\n      pop\n      jump\t// out\n        /* \"#utility.yul\":5170:5753   */\n    tag_51:\n        /* \"#utility.yul\":5267:5270   */\n      0x00\n        /* \"#utility.yul\":5303:5307   */\n      0x40\n        /* \"#utility.yul\":5298:5301   */\n      dup4\n        /* \"#utility.yul\":5294:5308   */\n      add\n        /* \"#utility.yul\":5390:5394   */\n      0x00\n        /* \"#utility.yul\":5383:5388   */\n      dup4\n        /* \"#utility.yul\":5379:5395   */\n      add\n        /* \"#utility.yul\":5373:5396   */\n      mload\n        /* \"#utility.yul\":5443:5446   */\n      dup5\n        /* \"#utility.yul\":5437:5441   */\n      dup3\n        /* \"#utility.yul\":5433:5447   */\n      sub\n        /* \"#utility.yul\":5426:5430   */\n      0x00\n        /* \"#utility.yul\":5421:5424   */\n      dup7\n        /* \"#utility.yul\":5417:5431   */\n      add\n        /* \"#utility.yul\":5410:5448   */\n      mstore\n        /* \"#utility.yul\":5469:5542   */\n      tag_132\n        /* \"#utility.yul\":5537:5541   */\n      dup3\n        /* \"#utility.yul\":5523:5535   */\n      dup3\n        /* \"#utility.yul\":5469:5542   */\n      tag_49\n      jump\t// in\n    tag_132:\n        /* \"#utility.yul\":5461:5542   */\n      swap2\n      pop\n        /* \"#utility.yul\":5318:5553   */\n      pop\n        /* \"#utility.yul\":5634:5638   */\n      0x20\n        /* \"#utility.yul\":5627:5632   */\n      dup4\n        /* \"#utility.yul\":5623:5639   */\n      add\n        /* \"#utility.yul\":5617:5640   */\n      mload\n        /* \"#utility.yul\":5653:5716   */\n      tag_133\n        /* \"#utility.yul\":5710:5714   */\n      0x20\n        /* \"#utility.yul\":5705:5708   */\n      dup7\n        /* \"#utility.yul\":5701:5715   */\n      add\n        /* \"#utility.yul\":5687:5699   */\n      dup3\n        /* \"#utility.yul\":5653:5716   */\n      tag_50\n      jump\t// in\n    tag_133:\n        /* \"#utility.yul\":5563:5726   */\n      pop\n        /* \"#utility.yul\":5743:5747   */\n      dup1\n        /* \"#utility.yul\":5736:5747   */\n      swap2\n      pop\n        /* \"#utility.yul\":5272:5753   */\n      pop\n        /* \"#utility.yul\":5170:5753   */\n      swap3\n      swap2\n      pop\n      pop\n      jump\t// out\n        /* \"#utility.yul\":5759:5991   */\n    tag_52:\n        /* \"#utility.yul\":5866:5876   */\n      0x00\n        /* \"#utility.yul\":5901:5985   */\n      tag_135\n        /* \"#utility.yul\":5981:5984   */\n      dup4\n        /* \"#utility.yul\":5973:5979   */\n      dup4\n        /* \"#utility.yul\":5901:5985   */\n      tag_51\n      jump\t// in\n    tag_135:\n        /* \"#utility.yul\":5887:5985   */\n      swap1\n      pop\n        /* \"#utility.yul\":5759:5991   */\n      swap3\n      swap2\n      pop\n      pop\n      jump\t// out\n        /* \"#utility.yul\":5997:6129   */\n    tag_53:\n        /* \"#utility.yul\":6086:6090   */\n      0x00\n        /* \"#utility.yul\":6118:6122   */\n      0x20\n        /* \"#utility.yul\":6113:6116   */\n      dup3\n        /* \"#utility.yul\":6109:6123   */\n      add\n        /* \"#utility.yul\":6101:6123   */\n      swap1\n      pop\n        /* \"#utility.yul\":5997:6129   */\n      swap2\n      swap1\n      pop\n      jump\t// out\n        /* \"#utility.yul\":6193:7256   */\n    tag_54:\n        /* \"#utility.yul\":6350:6353   */\n      0x00\n        /* \"#utility.yul\":6379:6452   */\n      tag_138\n        /* \"#utility.yul\":6446:6451   */\n      dup3\n        /* \"#utility.yul\":6379:6452   */\n      tag_43\n      jump\t// in\n    tag_138:\n        /* \"#utility.yul\":6468:6573   */\n      tag_139\n        /* \"#utility.yul\":6566:6572   */\n      dup2\n        /* \"#utility.yul\":6561:6564   */\n      dup6\n        /* \"#utility.yul\":6468:6573   */\n      tag_44\n      jump\t// in\n    tag_139:\n        /* \"#utility.yul\":6461:6573   */\n      swap4\n      pop\n        /* \"#utility.yul\":6599:6602   */\n      dup4\n        /* \"#utility.yul\":6644:6648   */\n      0x20\n        /* \"#utility.yul\":6636:6642   */\n      dup3\n        /* \"#utility.yul\":6632:6649   */\n      mul\n        /* \"#utility.yul\":6627:6630   */\n      dup6\n        /* \"#utility.yul\":6623:6650   */\n      add\n        /* \"#utility.yul\":6674:6749   */\n      tag_140\n        /* \"#utility.yul\":6743:6748   */\n      dup6\n        /* \"#utility.yul\":6674:6749   */\n      tag_45\n      jump\t// in\n    tag_140:\n        /* \"#utility.yul\":6772:6779   */\n      dup1\n        /* \"#utility.yul\":6803:6804   */\n      0x00\n        /* \"#utility.yul\":6788:7211   */\n    tag_141:\n        /* \"#utility.yul\":6813:6819   */\n      dup6\n        /* \"#utility.yul\":6810:6811   */\n      dup2\n        /* \"#utility.yul\":6807:6820   */\n      lt\n        /* \"#utility.yul\":6788:7211   */\n      iszero\n      tag_143\n      jumpi\n        /* \"#utility.yul\":6884:6893   */\n      dup5\n        /* \"#utility.yul\":6878:6882   */\n      dup5\n        /* \"#utility.yul\":6874:6894   */\n      sub\n        /* \"#utility.yul\":6869:6872   */\n      dup10\n        /* \"#utility.yul\":6862:6895   */\n      mstore\n        /* \"#utility.yul\":6935:6941   */\n      dup2\n        /* \"#utility.yul\":6929:6942   */\n      mload\n        /* \"#utility.yul\":6963:7065   */\n      tag_144\n        /* \"#utility.yul\":7060:7064   */\n      dup6\n        /* \"#utility.yul\":7045:7058   */\n      dup3\n        /* \"#utility.yul\":6963:7065   */\n      tag_52\n      jump\t// in\n    tag_144:\n        /* \"#utility.yul\":6955:7065   */\n      swap5\n      pop\n        /* \"#utility.yul\":7088:7167   */\n      tag_145\n        /* \"#utility.yul\":7160:7166   */\n      dup4\n        /* \"#utility.yul\":7088:7167   */\n      tag_53\n      jump\t// in\n    tag_145:\n        /* \"#utility.yul\":7078:7167   */\n      swap3\n      pop\n        /* \"#utility.yul\":7196:7200   */\n      0x20\n        /* \"#utility.yul\":7191:7194   */\n      dup11\n        /* \"#utility.yul\":7187:7201   */\n      add\n        /* \"#utility.yul\":7180:7201   */\n      swap10\n      pop\n        /* \"#utility.yul\":6848:7211   */\n      pop\n        /* \"#utility.yul\":6835:6836   */\n      0x01\n        /* \"#utility.yul\":6832:6833   */\n      dup2\n        /* \"#utility.yul\":6828:6837   */\n      add\n        /* \"#utility.yul\":6823:6837   */\n      swap1\n      pop\n        /* \"#utility.yul\":6788:7211   */\n      jump(tag_141)\n    tag_143:\n        /* \"#utility.yul\":6792:6806   */\n      pop\n        /* \"#utility.yul\":7227:7231   */\n      dup3\n        /* \"#utility.yul\":7220:7231   */\n      swap8\n      pop\n        /* \"#utility.yul\":7247:7250   */\n      dup8\n        /* \"#utility.yul\":7240:7250   */\n      swap6\n      pop\n        /* \"#utility.yul\":6355:7256   */\n      pop\n      pop\n      pop\n      pop\n      pop\n        /* \"#utility.yul\":6193:7256   */\n      swap3\n      swap2\n      pop\n      pop\n      jump\t// out\n        /* \"#utility.yul\":7262:7711   */\n    tag_12:\n        /* \"#utility.yul\":7443:7447   */\n      0x00\n        /* \"#utility.yul\":7481:7483   */\n      0x20\n        /* \"#utility.yul\":7470:7479   */\n      dup3\n        /* \"#utility.yul\":7466:7484   */\n      add\n        /* \"#utility.yul\":7458:7484   */\n      swap1\n      pop\n        /* \"#utility.yul\":7530:7539   */\n      dup2\n        /* \"#utility.yul\":7524:7528   */\n      dup2\n        /* \"#utility.yul\":7520:7540   */\n      sub\n        /* \"#utility.yul\":7516:7517   */\n      0x00\n        /* \"#utility.yul\":7505:7514   */\n      dup4\n        /* \"#utility.yul\":7501:7518   */\n      add\n        /* \"#utility.yul\":7494:7541   */\n      mstore\n        /* \"#utility.yul\":7558:7704   */\n      tag_147\n        /* \"#utility.yul\":7699:7703   */\n      dup2\n        /* \"#utility.yul\":7690:7696   */\n      dup5\n        /* \"#utility.yul\":7558:7704   */\n      tag_54\n      jump\t// in\n    tag_147:\n        /* \"#utility.yul\":7550:7704   */\n      swap1\n      pop\n        /* \"#utility.yul\":7262:7711   */\n      swap3\n      swap2\n      pop\n      pop\n      jump\t// out\n        /* \"#utility.yul\":7717:7897   */\n    tag_55:\n        /* \"#utility.yul\":7765:7842   */\n      0x4e487b7100000000000000000000000000000000000000000000000000000000\n        /* \"#utility.yul\":7762:7763   */\n      0x00\n        /* \"#utility.yul\":7755:7843   */\n      mstore\n        /* \"#utility.yul\":7862:7866   */\n      0x22\n        /* \"#utility.yul\":7859:7860   */\n      0x04\n        /* \"#utility.yul\":7852:7867   */\n      mstore\n        /* \"#utility.yul\":7886:7890   */\n      0x24\n        /* \"#utility.yul\":7883:7884   */\n      0x00\n        /* \"#utility.yul\":7876:7891   */\n      revert\n        /* \"#utility.yul\":7903:8223   */\n    tag_22:\n        /* \"#utility.yul\":7947:7953   */\n      0x00\n        /* \"#utility.yul\":7984:7985   */\n      0x02\n        /* \"#utility.yul\":7978:7982   */\n      dup3\n        /* \"#utility.yul\":7974:7986   */\n      div\n        /* \"#utility.yul\":7964:7986   */\n      swap1\n      pop\n        /* \"#utility.yul\":8031:8032   */\n      0x01\n        /* \"#utility.yul\":8025:8029   */\n      dup3\n        /* \"#utility.yul\":8021:8033   */\n      and\n        /* \"#utility.yul\":8052:8070   */\n      dup1\n        /* \"#utility.yul\":8042:8123   */\n      tag_150\n      jumpi\n        /* \"#utility.yul\":8108:8112   */\n      0x7f\n        /* \"#utility.yul\":8100:8106   */\n      dup3\n        /* \"#utility.yul\":8096:8113   */\n      and\n        /* \"#utility.yul\":8086:8113   */\n      swap2\n      pop\n        /* \"#utility.yul\":8042:8123   */\n    tag_150:\n        /* \"#utility.yul\":8170:8172   */\n      0x20\n        /* \"#utility.yul\":8162:8168   */\n      dup3\n        /* \"#utility.yul\":8159:8173   */\n      lt\n        /* \"#utility.yul\":8139:8157   */\n      dup2\n        /* \"#utility.yul\":8136:8174   */\n      sub\n        /* \"#utility.yul\":8133:8217   */\n      tag_151\n      jumpi\n        /* \"#utility.yul\":8189:8207   */\n      tag_152\n      tag_55\n      jump\t// in\n    tag_152:\n        /* \"#utility.yul\":8133:8217   */\n    tag_151:\n        /* \"#utility.yul\":7954:8223   */\n      pop\n        /* \"#utility.yul\":7903:8223   */\n      swap2\n      swap1\n      pop\n      jump\t// out\n        /* \"#utility.yul\":8229:8370   */\n    tag_56:\n        /* \"#utility.yul\":8278:8282   */\n      0x00\n        /* \"#utility.yul\":8301:8304   */\n      dup2\n        /* \"#utility.yul\":8293:8304   */\n      swap1\n      pop\n        /* \"#utility.yul\":8324:8327   */\n      dup2\n        /* \"#utility.yul\":8321:8322   */\n      0x00\n        /* \"#utility.yul\":8314:8328   */\n      mstore\n        /* \"#utility.yul\":8358:8362   */\n      0x20\n        /* \"#utility.yul\":8355:8356   */\n      0x00\n        /* \"#utility.yul\":8345:8363   */\n      keccak256\n        /* \"#utility.yul\":8337:8363   */\n      swap1\n      pop\n        /* \"#utility.yul\":8229:8370   */\n      swap2\n      swap1\n      pop\n      jump\t// out\n        /* \"#utility.yul\":8376:8469   */\n    tag_57:\n        /* \"#utility.yul\":8413:8419   */\n      0x00\n        /* \"#utility.yul\":8460:8462   */\n      0x20\n        /* \"#utility.yul\":8455:8457   */\n      0x1f\n        /* \"#utility.yul\":8448:8453   */\n      dup4\n        /* \"#utility.yul\":8444:8458   */\n      add\n        /* \"#utility.yul\":8440:8463   */\n      div\n        /* \"#utility.yul\":8430:8463   */\n      swap1\n      pop\n        /* \"#utility.yul\":8376:8469   */\n      swap2\n      swap1\n      pop\n      jump\t// out\n        /* \"#utility.yul\":8475:8582   */\n    tag_58:\n        /* \"#utility.yul\":8519:8527   */\n      0x00\n        /* \"#utility.yul\":8569:8574   */\n      dup3\n        /* \"#utility.yul\":8563:8567   */\n      dup3\n        /* \"#utility.yul\":8559:8575   */\n      shl\n        /* \"#utility.yul\":8538:8575   */\n      swap1\n      pop\n        /* \"#utility.yul\":8475:8582   */\n      swap3\n      swap2\n      pop\n      pop\n      jump\t// out\n        /* \"#utility.yul\":8588:8981   */\n    tag_59:\n        /* \"#utility.yul\":8657:8663   */\n      0x00\n        /* \"#utility.yul\":8707:8708   */\n      0x08\n        /* \"#utility.yul\":8695:8705   */\n      dup4\n        /* \"#utility.yul\":8691:8709   */\n      mul\n        /* \"#utility.yul\":8730:8827   */\n      tag_157\n        /* \"#utility.yul\":8760:8826   */\n      0xffffffffffffffffffffffffffffffffffffffffffffffffffffffffffffffff\n        /* \"#utility.yul\":8749:8758   */\n      dup3\n        /* \"#utility.yul\":8730:8827   */\n      tag_58\n      jump\t// in\n    tag_157:\n        /* \"#utility.yul\":8848:8887   */\n      tag_158\n        /* \"#utility.yul\":8878:8886   */\n      dup7\n        /* \"#utility.yul\":8867:8876   */\n      dup4\n        /* \"#utility.yul\":8848:8887   */\n      tag_58\n      jump\t// in\n    tag_158:\n        /* \"#utility.yul\":8836:8887   */\n      swap6\n      pop\n        /* \"#utility.yul\":8920:8924   */\n      dup1\n        /* \"#utility.yul\":8916:8925   */\n      not\n        /* \"#utility.yul\":8909:8914   */\n      dup5\n        /* \"#utility.yul\":8905:8926   */\n      and\n        /* \"#utility.yul\":8896:8926   */\n      swap4\n      pop\n        /* \"#utility.yul\":8969:8973   */\n      dup1\n        /* \"#utility.yul\":8959:8967   */\n      dup7\n        /* \"#utility.yul\":8955:8974   */\n      and\n        /* \"#utility.yul\":8948:8953   */\n      dup5\n        /* \"#utility.yul\":8945:8975   */\n      or\n        /* \"#utility.yul\":8935:8975   */\n      swap3\n      pop\n        /* \"#utility.yul\":8664:8981   */\n      pop\n      pop\n        /* \"#utility.yul\":8588:8981   */\n      swap4\n      swap3\n      pop\n      pop\n      pop\n      jump\t// out\n        /* \"#utility.yul\":8987:9047   */\n    tag_60:\n        /* \"#utility.yul\":9015:9018   */\n      0x00\n        /* \"#utility.yul\":9036:9041   */\n      dup2\n        /* \"#utility.yul\":9029:9041   */\n      swap1\n      pop\n        /* \"#utility.yul\":8987:9047   */\n      swap2\n      swap1\n      pop\n      jump\t// out\n        /* \"#utility.yul\":9053:9195   */\n    tag_61:\n        /* \"#utility.yul\":9103:9112   */\n      0x00\n        /* \"#utility.yul\":9136:9189   */\n      tag_161\n        /* \"#utility.yul\":9154:9188   */\n      tag_162\n        /* \"#utility.yul\":9163:9187   */\n      tag_163\n        /* \"#utility.yul\":9181:9186   */\n      dup5\n        /* \"#utility.yul\":9163:9187   */\n      tag_40\n      jump\t// in\n    tag_163:\n        /* \"#utility.yul\":9154:9188   */\n      tag_60\n      jump\t// in\n    tag_162:\n        /* \"#utility.yul\":9136:9189   */\n      tag_40\n      jump\t// in\n    tag_161:\n        /* \"#utility.yul\":9123:9189   */\n      swap1\n      pop\n        /* \"#utility.yul\":9053:9195   */\n      swap2\n      swap1\n      pop\n      jump\t// out\n        /* \"#utility.yul\":9201:9276   */\n    tag_62:\n        /* \"#utility.yul\":9244:9247   */\n      0x00\n        /* \"#utility.yul\":9265:9270   */\n      dup2\n        /* \"#utility.yul\":9258:9270   */\n      swap1\n      pop\n        /* \"#utility.yul\":9201:9276   */\n      swap2\n      swap1\n      pop\n      jump\t// out\n        /* \"#utility.yul\":9282:9551   */\n    tag_63:\n        /* \"#utility.yul\":9392:9431   */\n      tag_166\n        /* \"#utility.yul\":9423:9430   */\n      dup4\n        /* \"#utility.yul\":9392:9431   */\n      tag_61\n      jump\t// in\n    tag_166:\n        /* \"#utility.yul\":9453:9544   */\n      tag_167\n        /* \"#utility.yul\":9502:9543   */\n      tag_168\n        /* \"#utility.yul\":9526:9542   */\n      dup3\n        /* \"#utility.yul\":9502:9543   */\n      tag_62\n      jump\t// in\n    tag_168:\n        /* \"#utility.yul\":9494:9500   */\n      dup5\n        /* \"#utility.yul\":9487:9491   */\n      dup5\n        /* \"#utility.yul\":9481:9492   */\n      sload\n        /* \"#utility.yul\":9453:9544   */\n      tag_59\n      jump\t// in\n    tag_167:\n        /* \"#utility.yul\":9447:9451   */\n      dup3\n        /* \"#utility.yul\":9440:9545   */\n      sstore\n        /* \"#utility.yul\":9358:9551   */\n      pop\n        /* \"#utility.yul\":9282:9551   */\n      pop\n      pop\n      pop\n      jump\t// out\n        /* \"#utility.yul\":9557:9630   */\n    tag_64:\n        /* \"#utility.yul\":9602:9605   */\n      0x00\n        /* \"#utility.yul\":9557:9630   */\n      swap1\n      jump\t// out\n        /* \"#utility.yul\":9636:9825   */\n    tag_65:\n        /* \"#utility.yul\":9713:9745   */\n      tag_171\n      tag_64\n      jump\t// in\n    tag_171:\n        /* \"#utility.yul\":9754:9819   */\n      tag_172\n        /* \"#utility.yul\":9812:9818   */\n      dup2\n        /* \"#utility.yul\":9804:9810   */\n      dup5\n        /* \"#utility.yul\":9798:9802   */\n      dup5\n        /* \"#utility.yul\":9754:9819   */\n      tag_63\n      jump\t// in\n    tag_172:\n        /* \"#utility.yul\":9689:9825   */\n      pop\n        /* \"#utility.yul\":9636:9825   */\n      pop\n      pop\n      jump\t// out\n        /* \"#utility.yul\":9831:10017   */\n    tag_66:\n        /* \"#utility.yul\":9891:10011   */\n    tag_174:\n        /* \"#utility.yul\":9908:9911   */\n      dup2\n        /* \"#utility.yul\":9901:9906   */\n      dup2\n        /* \"#utility.yul\":9898:9912   */\n      lt\n        /* \"#utility.yul\":9891:10011   */\n      iszero\n      tag_176\n      jumpi\n        /* \"#utility.yul\":9962:10001   */\n      tag_177\n        /* \"#utility.yul\":9999:10000   */\n      0x00\n        /* \"#utility.yul\":9992:9997   */\n      dup3\n        /* \"#utility.yul\":9962:10001   */\n      tag_65\n      jump\t// in\n    tag_177:\n        /* \"#utility.yul\":9935:9936   */\n      0x01\n        /* \"#utility.yul\":9928:9933   */\n      dup2\n        /* \"#utility.yul\":9924:9937   */\n      add\n        /* \"#utility.yul\":9915:9937   */\n      swap1\n      pop\n        /* \"#utility.yul\":9891:10011   */\n      jump(tag_174)\n    tag_176:\n        /* \"#utility.yul\":9831:10017   */\n      pop\n      pop\n      jump\t// out\n        /* \"#utility.yul\":10023:10566   */\n    tag_67:\n        /* \"#utility.yul\":10124:10126   */\n      0x1f\n        /* \"#utility.yul\":10119:10122   */\n      dup3\n        /* \"#utility.yul\":10116:10127   */\n      gt\n        /* \"#utility.yul\":10113:10559   */\n      iszero\n      tag_179\n      jumpi\n        /* \"#utility.yul\":10158:10196   */\n      tag_180\n        /* \"#utility.yul\":10190:10195   */\n      dup2\n        /* \"#utility.yul\":10158:10196   */\n      tag_56\n      jump\t// in\n    tag_180:\n        /* \"#utility.yul\":10242:10271   */\n      tag_181\n        /* \"#utility.yul\":10260:10270   */\n      dup5\n        /* \"#utility.yul\":10242:10271   */\n      tag_57\n      jump\t// in\n    tag_181:\n        /* \"#utility.yul\":10232:10240   */\n      dup2\n        /* \"#utility.yul\":10228:10272   */\n      add\n        /* \"#utility.yul\":10425:10427   */\n      0x20\n        /* \"#utility.yul\":10413:10423   */\n      dup6\n        /* \"#utility.yul\":10410:10428   */\n      lt\n        /* \"#utility.yul\":10407:10456   */\n      iszero\n      tag_182\n      jumpi\n        /* \"#utility.yul\":10446:10454   */\n      dup2\n        /* \"#utility.yul\":10431:10454   */\n      swap1\n      pop\n        /* \"#utility.yul\":10407:10456   */\n    tag_182:\n        /* \"#utility.yul\":10469:10549   */\n      tag_183\n        /* \"#utility.yul\":10525:10547   */\n      tag_184\n        /* \"#utility.yul\":10543:10546   */\n      dup6\n        /* \"#utility.yul\":10525:10547   */\n      tag_57\n      jump\t// in\n    tag_184:\n        /* \"#utility.yul\":10515:10523   */\n      dup4\n        /* \"#utility.yul\":10511:10548   */\n      add\n        /* \"#utility.yul\":10498:10509   */\n      dup3\n        /* \"#utility.yul\":10469:10549   */\n      tag_66\n      jump\t// in\n    tag_183:\n        /* \"#utility.yul\":10128:10559   */\n      pop\n      pop\n        /* \"#utility.yul\":10113:10559   */\n    tag_179:\n        /* \"#utility.yul\":10023:10566   */\n      pop\n      pop\n      pop\n      jump\t// out\n        /* \"#utility.yul\":10572:10689   */\n    tag_68:\n        /* \"#utility.yul\":10626:10634   */\n      0x00\n        /* \"#utility.yul\":10676:10681   */\n      dup3\n        /* \"#utility.yul\":10670:10674   */\n      dup3\n        /* \"#utility.yul\":10666:10682   */\n      shr\n        /* \"#utility.yul\":10645:10682   */\n      swap1\n      pop\n        /* \"#utility.yul\":10572:10689   */\n      swap3\n      swap2\n      pop\n      pop\n      jump\t// out\n        /* \"#utility.yul\":10695:10864   */\n    tag_69:\n        /* \"#utility.yul\":10739:10745   */\n      0x00\n        /* \"#utility.yul\":10772:10823   */\n      tag_187\n        /* \"#utility.yul\":10820:10821   */\n      0x00\n        /* \"#utility.yul\":10816:10822   */\n      not\n        /* \"#utility.yul\":10808:10813   */\n      dup5\n        /* \"#utility.yul\":10805:10806   */\n      0x08\n        /* \"#utility.yul\":10801:10814   */\n      mul\n        /* \"#utility.yul\":10772:10823   */\n      tag_68\n      jump\t// in\n    tag_187:\n        /* \"#utility.yul\":10768:10824   */\n      not\n        /* \"#utility.yul\":10853:10857   */\n      dup1\n        /* \"#utility.yul\":10847:10851   */\n      dup4\n        /* \"#utility.yul\":10843:10858   */\n      and\n        /* \"#utility.yul\":10833:10858   */\n      swap2\n      pop\n        /* \"#utility.yul\":10746:10864   */\n      pop\n        /* \"#utility.yul\":10695:10864   */\n      swap3\n      swap2\n      pop\n      pop\n      jump\t// out\n        /* \"#utility.yul\":10869:11164   */\n    tag_70:\n        /* \"#utility.yul\":10945:10949   */\n      0x00\n        /* \"#utility.yul\":11091:11120   */\n      tag_189\n        /* \"#utility.yul\":11116:11119   */\n      dup4\n        /* \"#utility.yul\":11110:11114   */\n      dup4\n        /* \"#utility.yul\":11091:11120   */\n      tag_69\n      jump\t// in\n    tag_189:\n        /* \"#utility.yul\":11083:11120   */\n      swap2\n      pop\n        /* \"#utility.yul\":11153:11156   */\n      dup3\n        /* \"#utility.yul\":11150:11151   */\n      0x02\n        /* \"#utility.yul\":11146:11157   */\n      mul\n        /* \"#utility.yul\":11140:11144   */\n      dup3\n        /* \"#utility.yul\":11137:11158   */\n      or\n        /* \"#utility.yul\":11129:11158   */\n      swap1\n      pop\n        /* \"#utility.yul\":10869:11164   */\n      swap3\n      swap2\n      pop\n      pop\n      jump\t// out\n        /* \"#utility.yul\":11169:12564   */\n    tag_16:\n        /* \"#utility.yul\":11286:11323   */\n      tag_191\n        /* \"#utility.yul\":11319:11322   */\n      dup3\n        /* \"#utility.yul\":11286:11323   */\n      tag_46\n      jump\t// in\n    tag_191:\n        /* \"#utility.yul\":11388:11406   */\n      0xffffffffffffffff\n        /* \"#utility.yul\":11380:11386   */\n      dup2\n        /* \"#utility.yul\":11377:11407   */\n      gt\n        /* \"#utility.yul\":11374:11430   */\n      iszero\n      tag_192\n      jumpi\n        /* \"#utility.yul\":11410:11428   */\n      tag_193\n      tag_33\n      jump\t// in\n    tag_193:\n        /* \"#utility.yul\":11374:11430   */\n    tag_192:\n        /* \"#utility.yul\":11454:11492   */\n      tag_194\n        /* \"#utility.yul\":11486:11490   */\n      dup3\n        /* \"#utility.yul\":11480:11491   */\n      sload\n        /* \"#utility.yul\":11454:11492   */\n      tag_22\n      jump\t// in\n    tag_194:\n        /* \"#utility.yul\":11539:11606   */\n      tag_195\n        /* \"#utility.yul\":11599:11605   */\n      dup3\n        /* \"#utility.yul\":11591:11597   */\n      dup3\n        /* \"#utility.yul\":11585:11589   */\n      dup6\n        /* \"#utility.yul\":11539:11606   */\n      tag_67\n      jump\t// in\n    tag_195:\n        /* \"#utility.yul\":11633:11634   */\n      0x00\n        /* \"#utility.yul\":11657:11661   */\n      0x20\n        /* \"#utility.yul\":11644:11661   */\n      swap1\n      pop\n        /* \"#utility.yul\":11689:11691   */\n      0x1f\n        /* \"#utility.yul\":11681:11687   */\n      dup4\n        /* \"#utility.yul\":11678:11692   */\n      gt\n        /* \"#utility.yul\":11706:11707   */\n      0x01\n        /* \"#utility.yul\":11701:12319   */\n      dup2\n      eq\n      tag_197\n      jumpi\n        /* \"#utility.yul\":12363:12364   */\n      0x00\n        /* \"#utility.yul\":12380:12386   */\n      dup5\n        /* \"#utility.yul\":12377:12454   */\n      iszero\n      tag_198\n      jumpi\n        /* \"#utility.yul\":12429:12438   */\n      dup3\n        /* \"#utility.yul\":12424:12427   */\n      dup8\n        /* \"#utility.yul\":12420:12439   */\n      add\n        /* \"#utility.yul\":12414:12440   */\n      mload\n        /* \"#utility.yul\":12405:12440   */\n      swap1\n      pop\n        /* \"#utility.yul\":12377:12454   */\n    tag_198:\n        /* \"#utility.yul\":12480:12547   */\n      tag_199\n        /* \"#utility.yul\":12540:12546   */\n      dup6\n        /* \"#utility.yul\":12533:12538   */\n      dup3\n        /* \"#utility.yul\":12480:12547   */\n      tag_70\n      jump\t// in\n    tag_199:\n        /* \"#utility.yul\":12474:12478   */\n      dup7\n        /* \"#utility.yul\":12467:12548   */\n      sstore\n        /* \"#utility.yul\":12336:12558   */\n      pop\n        /* \"#utility.yul\":11671:12558   */\n      jump(tag_196)\n        /* \"#utility.yul\":11701:12319   */\n    tag_197:\n        /* \"#utility.yul\":11753:11757   */\n      0x1f\n        /* \"#utility.yul\":11749:11758   */\n      not\n        /* \"#utility.yul\":11741:11747   */\n      dup5\n        /* \"#utility.yul\":11737:11759   */\n      and\n        /* \"#utility.yul\":11787:11824   */\n      tag_200\n        /* \"#utility.yul\":11819:11823   */\n      dup7\n        /* \"#utility.yul\":11787:11824   */\n      tag_56\n      jump\t// in\n    tag_200:\n        /* \"#utility.yul\":11846:11847   */\n      0x00\n        /* \"#utility.yul\":11860:12068   */\n    tag_201:\n        /* \"#utility.yul\":11874:11881   */\n      dup3\n        /* \"#utility.yul\":11871:11872   */\n      dup2\n        /* \"#utility.yul\":11868:11882   */\n      lt\n        /* \"#utility.yul\":11860:12068   */\n      iszero\n      tag_203\n      jumpi\n        /* \"#utility.yul\":11953:11962   */\n      dup5\n        /* \"#utility.yul\":11948:11951   */\n      dup10\n        /* \"#utility.yul\":11944:11963   */\n      add\n        /* \"#utility.yul\":11938:11964   */\n      mload\n        /* \"#utility.yul\":11930:11936   */\n      dup3\n        /* \"#utility.yul\":11923:11965   */\n      sstore\n        /* \"#utility.yul\":12004:12005   */\n      0x01\n        /* \"#utility.yul\":11996:12002   */\n      dup3\n        /* \"#utility.yul\":11992:12006   */\n      add\n        /* \"#utility.yul\":11982:12006   */\n      swap2\n      pop\n        /* \"#utility.yul\":12051:12053   */\n      0x20\n        /* \"#utility.yul\":12040:12049   */\n      dup6\n        /* \"#utility.yul\":12036:12054   */\n      add\n        /* \"#utility.yul\":12023:12054   */\n      swap5\n      pop\n        /* \"#utility.yul\":11897:11901   */\n      0x20\n        /* \"#utility.yul\":11894:11895   */\n      dup2\n        /* \"#utility.yul\":11890:11902   */\n      add\n        /* \"#utility.yul\":11885:11902   */\n      swap1\n      pop\n        /* \"#utility.yul\":11860:12068   */\n      jump(tag_201)\n    tag_203:\n        /* \"#utility.yul\":12096:12102   */\n      dup7\n        /* \"#utility.yul\":12087:12094   */\n      dup4\n        /* \"#utility.yul\":12084:12103   */\n      lt\n        /* \"#utility.yul\":12081:12260   */\n      iszero\n      tag_204\n      jumpi\n        /* \"#utility.yul\":12154:12163   */\n      dup5\n        /* \"#utility.yul\":12149:12152   */\n      dup10\n        /* \"#utility.yul\":12145:12164   */\n      add\n        /* \"#utility.yul\":12139:12165   */\n      mload\n        /* \"#utility.yul\":12197:12245   */\n      tag_205\n        /* \"#utility.yul\":12239:12243   */\n      0x1f\n        /* \"#utility.yul\":12231:12237   */\n      dup10\n        /* \"#utility.yul\":12227:12244   */\n      and\n        /* \"#utility.yul\":12216:12225   */\n      dup3\n        /* \"#utility.yul\":12197:12245   */\n      tag_69\n      jump\t// in\n    tag_205:\n        /* \"#utility.yul\":12189:12195   */\n      dup4\n        /* \"#utility.yul\":12182:12246   */\n      sstore\n        /* \"#utility.yul\":12104:12260   */\n      pop\n        /* \"#utility.yul\":12081:12260   */\n    tag_204:\n        /* \"#utility.yul\":12306:12307   */\n      0x01\n        /* \"#utility.yul\":12302:12303   */\n      0x02\n        /* \"#utility.yul\":12294:12300   */\n      dup9\n        /* \"#utility.yul\":12290:12304   */\n      mul\n        /* \"#utility.yul\":12286:12308   */\n      add\n        /* \"#utility.yul\":12280:12284   */\n      dup9\n        /* \"#utility.yul\":12273:12309   */\n      sstore\n        /* \"#utility.yul\":11708:12319   */\n      pop\n      pop\n      pop\n        /* \"#utility.yul\":11671:12558   */\n    tag_196:\n      pop\n        /* \"#utility.yul\":11261:12564   */\n      pop\n      pop\n      pop\n        /* \"#utility.yul\":11169:12564   */\n      pop\n      pop\n      jump\t// out\n\n    auxdata: 0xa2646970667358221220c29e6982fbd39e7a7689b0e07d96a62597174e904bf062ea33fa8280aa71802764736f6c634300080f0033\n}\n",
				"bytecode": {
					"linkReferences": {},
					"object": "608060405234801561001057600080fd5b5061088e806100206000396000f3fe608060405234801561001057600080fd5b50600436106100365760003560e01c806336555b851461003b57806347531df814610057575b600080fd5b61005560048036038101906100509190610366565b610075565b005b61005f6100db565b60405161006c9190610558565b60405180910390f35b6000604051806040016040528084815260200183815250908060018154018082558091505060019003906000526020600020906002020160009091909190915060008201518160000190816100ca9190610786565b506020820151816001015550505050565b60606000805480602002602001604051908101604052809291908181526020016000905b828210156101cd5783829060005260206000209060020201604051806040016040529081600082018054610132906105a9565b80601f016020809104026020016040519081016040528092919081815260200182805461015e906105a9565b80156101ab5780601f10610180576101008083540402835291602001916101ab565b820191906000526020600020905b81548152906001019060200180831161018e57829003601f168201915b50505050508152602001600182015481525050815260200190600101906100ff565b50505050905090565b6000604051905090565b600080fd5b600080fd5b600080fd5b600080fd5b6000601f19601f8301169050919050565b7f4e487b7100000000000000000000000000000000000000000000000000000000600052604160045260246000fd5b61023d826101f4565b810181811067ffffffffffffffff8211171561025c5761025b610205565b5b80604052505050565b600061026f6101d6565b905061027b8282610234565b919050565b600067ffffffffffffffff82111561029b5761029a610205565b5b6102a4826101f4565b9050602081019050919050565b82818337600083830152505050565b60006102d36102ce84610280565b610265565b9050828152602081018484840111156102ef576102ee6101ef565b5b6102fa8482856102b1565b509392505050565b600082601f830112610317576103166101ea565b5b81356103278482602086016102c0565b91505092915050565b6000819050919050565b61034381610330565b811461034e57600080fd5b50565b6000813590506103608161033a565b92915050565b6000806040838503121561037d5761037c6101e0565b5b600083013567ffffffffffffffff81111561039b5761039a6101e5565b5b6103a785828601610302565b92505060206103b885828601610351565b9150509250929050565b600081519050919050565b600082825260208201905092915050565b6000819050602082019050919050565b600081519050919050565b600082825260208201905092915050565b60005b8381101561042857808201518184015260208101905061040d565b83811115610437576000848401525b50505050565b6000610448826103ee565b61045281856103f9565b935061046281856020860161040a565b61046b816101f4565b840191505092915050565b61047f81610330565b82525050565b600060408301600083015184820360008601526104a2828261043d565b91505060208301516104b76020860182610476565b508091505092915050565b60006104ce8383610485565b905092915050565b6000602082019050919050565b60006104ee826103c2565b6104f881856103cd565b93508360208202850161050a856103de565b8060005b85811015610546578484038952815161052785826104c2565b9450610532836104d6565b925060208a0199505060018101905061050e565b50829750879550505050505092915050565b6000602082019050818103600083015261057281846104e3565b905092915050565b7f4e487b7100000000000000000000000000000000000000000000000000000000600052602260045260246000fd5b600060028204905060018216806105c157607f821691505b6020821081036105d4576105d361057a565b5b50919050565b60008190508160005260206000209050919050565b60006020601f8301049050919050565b600082821b905092915050565b60006008830261063c7fffffffffffffffffffffffffffffffffffffffffffffffffffffffffffffffff826105ff565b61064686836105ff565b95508019841693508086168417925050509392505050565b6000819050919050565b600061068361067e61067984610330565b61065e565b610330565b9050919050565b6000819050919050565b61069d83610668565b6106b16106a98261068a565b84845461060c565b825550505050565b600090565b6106c66106b9565b6106d1818484610694565b505050565b5b818110156106f5576106ea6000826106be565b6001810190506106d7565b5050565b601f82111561073a5761070b816105da565b610714846105ef565b81016020851015610723578190505b61073761072f856105ef565b8301826106d6565b50505b505050565b600082821c905092915050565b600061075d6000198460080261073f565b1980831691505092915050565b6000610776838361074c565b9150826002028217905092915050565b61078f826103ee565b67ffffffffffffffff8111156107a8576107a7610205565b5b6107b282546105a9565b6107bd8282856106f9565b600060209050601f8311600181146107f057600084156107de578287015190505b6107e8858261076a565b865550610850565b601f1984166107fe866105da565b60005b8281101561082657848901518255600182019150602085019450602081019050610801565b86831015610843578489015161083f601f89168261074c565b8355505b6001600288020188555050505b50505050505056fea2646970667358221220c29e6982fbd39e7a7689b0e07d96a62597174e904bf062ea33fa8280aa71802764736f6c634300080f0033",
					"opcodes": "PUSH1 0x80 PUSH1 0x40 MSTORE CALLVALUE DUP1 ISZERO PUSH2 0x10 JUMPI PUSH1 0x0 DUP1 REVERT JUMPDEST POP PUSH2 0x88E DUP1 PUSH2 0x20 PUSH1 0x0 CODECOPY PUSH1 0x0 RETURN INVALID PUSH1 0x80 PUSH1 0x40 MSTORE CALLVALUE DUP1 ISZERO PUSH2 0x10 JUMPI PUSH1 0x0 DUP1 REVERT JUMPDEST POP PUSH1 0x4 CALLDATASIZE LT PUSH2 0x36 JUMPI PUSH1 0x0 CALLDATALOAD PUSH1 0xE0 SHR DUP1 PUSH4 0x36555B85 EQ PUSH2 0x3B JUMPI DUP1 PUSH4 0x47531DF8 EQ PUSH2 0x57 JUMPI JUMPDEST PUSH1 0x0 DUP1 REVERT JUMPDEST PUSH2 0x55 PUSH1 0x4 DUP1 CALLDATASIZE SUB DUP2 ADD SWAP1 PUSH2 0x50 SWAP2 SWAP1 PUSH2 0x366 JUMP JUMPDEST PUSH2 0x75 JUMP JUMPDEST STOP JUMPDEST PUSH2 0x5F PUSH2 0xDB JUMP JUMPDEST PUSH1 0x40 MLOAD PUSH2 0x6C SWAP2 SWAP1 PUSH2 0x558 JUMP JUMPDEST PUSH1 0x40 MLOAD DUP1 SWAP2 SUB SWAP1 RETURN JUMPDEST PUSH1 0x0 PUSH1 0x40 MLOAD DUP1 PUSH1 0x40 ADD PUSH1 0x40 MSTORE DUP1 DUP5 DUP2 MSTORE PUSH1 0x20 ADD DUP4 DUP2 MSTORE POP SWAP1 DUP1 PUSH1 0x1 DUP2 SLOAD ADD DUP1 DUP3 SSTORE DUP1 SWAP2 POP POP PUSH1 0x1 SWAP1 SUB SWAP1 PUSH1 0x0 MSTORE PUSH1 0x20 PUSH1 0x0 KECCAK256 SWAP1 PUSH1 0x2 MUL ADD PUSH1 0x0 SWAP1 SWAP2 SWAP1 SWAP2 SWAP1 SWAP2 POP PUSH1 0x0 DUP3 ADD MLOAD DUP2 PUSH1 0x0 ADD SWAP1 DUP2 PUSH2 0xCA SWAP2 SWAP1 PUSH2 0x786 JUMP JUMPDEST POP PUSH1 0x20 DUP3 ADD MLOAD DUP2 PUSH1 0x1 ADD SSTORE POP POP POP POP JUMP JUMPDEST PUSH1 0x60 PUSH1 0x0 DUP1 SLOAD DUP1 PUSH1 0x20 MUL PUSH1 0x20 ADD PUSH1 0x40 MLOAD SWAP1 DUP2 ADD PUSH1 0x40 MSTORE DUP1 SWAP3 SWAP2 SWAP1 DUP2 DUP2 MSTORE PUSH1 0x20 ADD PUSH1 0x0 SWAP1 JUMPDEST DUP3 DUP3 LT ISZERO PUSH2 0x1CD JUMPI DUP4 DUP3 SWAP1 PUSH1 0x0 MSTORE PUSH1 0x20 PUSH1 0x0 KECCAK256 SWAP1 PUSH1 0x2 MUL ADD PUSH1 0x40 MLOAD DUP1 PUSH1 0x40 ADD PUSH1 0x40 MSTORE SWAP1 DUP2 PUSH1 0x0 DUP3 ADD DUP1 SLOAD PUSH2 0x132 SWAP1 PUSH2 0x5A9 JUMP JUMPDEST DUP1 PUSH1 0x1F ADD PUSH1 0x20 DUP1 SWAP2 DIV MUL PUSH1 0x20 ADD PUSH1 0x40 MLOAD SWAP1 DUP2 ADD PUSH1 0x40 MSTORE DUP1 SWAP3 SWAP2 SWAP1 DUP2 DUP2 MSTORE PUSH1 0x20 ADD DUP3 DUP1 SLOAD PUSH2 0x15E SWAP1 PUSH2 0x5A9 JUMP JUMPDEST DUP1 ISZERO PUSH2 0x1AB JUMPI DUP1 PUSH1 0x1F LT PUSH2 0x180 JUMPI PUSH2 0x100 DUP1 DUP4 SLOAD DIV MUL DUP4 MSTORE SWAP2 PUSH1 0x20 ADD SWAP2 PUSH2 0x1AB JUMP JUMPDEST DUP3 ADD SWAP2 SWAP1 PUSH1 0x0 MSTORE PUSH1 0x20 PUSH1 0x0 KECCAK256 SWAP1 JUMPDEST DUP2 SLOAD DUP2 MSTORE SWAP1 PUSH1 0x1 ADD SWAP1 PUSH1 0x20 ADD DUP1 DUP4 GT PUSH2 0x18E JUMPI DUP3 SWAP1 SUB PUSH1 0x1F AND DUP3 ADD SWAP2 JUMPDEST POP POP POP POP POP DUP2 MSTORE PUSH1 0x20 ADD PUSH1 0x1 DUP3 ADD SLOAD DUP2 MSTORE POP POP DUP2 MSTORE PUSH1 0x20 ADD SWAP1 PUSH1 0x1 ADD SWAP1 PUSH2 0xFF JUMP JUMPDEST POP POP POP POP SWAP1 POP SWAP1 JUMP JUMPDEST PUSH1 0x0 PUSH1 0x40 MLOAD SWAP1 POP SWAP1 JUMP JUMPDEST PUSH1 0x0 DUP1 REVERT JUMPDEST PUSH1 0x0 DUP1 REVERT JUMPDEST PUSH1 0x0 DUP1 REVERT JUMPDEST PUSH1 0x0 DUP1 REVERT JUMPDEST PUSH1 0x0 PUSH1 0x1F NOT PUSH1 0x1F DUP4 ADD AND SWAP1 POP SWAP2 SWAP1 POP JUMP JUMPDEST PUSH32 0x4E487B7100000000000000000000000000000000000000000000000000000000 PUSH1 0x0 MSTORE PUSH1 0x41 PUSH1 0x4 MSTORE PUSH1 0x24 PUSH1 0x0 REVERT JUMPDEST PUSH2 0x23D DUP3 PUSH2 0x1F4 JUMP JUMPDEST DUP2 ADD DUP2 DUP2 LT PUSH8 0xFFFFFFFFFFFFFFFF DUP3 GT OR ISZERO PUSH2 0x25C JUMPI PUSH2 0x25B PUSH2 0x205 JUMP JUMPDEST JUMPDEST DUP1 PUSH1 0x40 MSTORE POP POP POP JUMP JUMPDEST PUSH1 0x0 PUSH2 0x26F PUSH2 0x1D6 JUMP JUMPDEST SWAP1 POP PUSH2 0x27B DUP3 DUP3 PUSH2 0x234 JUMP JUMPDEST SWAP2 SWAP1 POP JUMP JUMPDEST PUSH1 0x0 PUSH8 0xFFFFFFFFFFFFFFFF DUP3 GT ISZERO PUSH2 0x29B JUMPI PUSH2 0x29A PUSH2 0x205 JUMP JUMPDEST JUMPDEST PUSH2 0x2A4 DUP3 PUSH2 0x1F4 JUMP JUMPDEST SWAP1 POP PUSH1 0x20 DUP2 ADD SWAP1 POP SWAP2 SWAP1 POP JUMP JUMPDEST DUP3 DUP2 DUP4 CALLDATACOPY PUSH1 0x0 DUP4 DUP4 ADD MSTORE POP POP POP JUMP JUMPDEST PUSH1 0x0 PUSH2 0x2D3 PUSH2 0x2CE DUP5 PUSH2 0x280 JUMP JUMPDEST PUSH2 0x265 JUMP JUMPDEST SWAP1 POP DUP3 DUP2 MSTORE PUSH1 0x20 DUP2 ADD DUP5 DUP5 DUP5 ADD GT ISZERO PUSH2 0x2EF JUMPI PUSH2 0x2EE PUSH2 0x1EF JUMP JUMPDEST JUMPDEST PUSH2 0x2FA DUP5 DUP3 DUP6 PUSH2 0x2B1 JUMP JUMPDEST POP SWAP4 SWAP3 POP POP POP JUMP JUMPDEST PUSH1 0x0 DUP3 PUSH1 0x1F DUP4 ADD SLT PUSH2 0x317 JUMPI PUSH2 0x316 PUSH2 0x1EA JUMP JUMPDEST JUMPDEST DUP2 CALLDATALOAD PUSH2 0x327 DUP5 DUP3 PUSH1 0x20 DUP7 ADD PUSH2 0x2C0 JUMP JUMPDEST SWAP2 POP POP SWAP3 SWAP2 POP POP JUMP JUMPDEST PUSH1 0x0 DUP2 SWAP1 POP SWAP2 SWAP1 POP JUMP JUMPDEST PUSH2 0x343 DUP2 PUSH2 0x330 JUMP JUMPDEST DUP2 EQ PUSH2 0x34E JUMPI PUSH1 0x0 DUP1 REVERT JUMPDEST POP JUMP JUMPDEST PUSH1 0x0 DUP2 CALLDATALOAD SWAP1 POP PUSH2 0x360 DUP2 PUSH2 0x33A JUMP JUMPDEST SWAP3 SWAP2 POP POP JUMP JUMPDEST PUSH1 0x0 DUP1 PUSH1 0x40 DUP4 DUP6 SUB SLT ISZERO PUSH2 0x37D JUMPI PUSH2 0x37C PUSH2 0x1E0 JUMP JUMPDEST JUMPDEST PUSH1 0x0 DUP4 ADD CALLDATALOAD PUSH8 0xFFFFFFFFFFFFFFFF DUP2 GT ISZERO PUSH2 0x39B JUMPI PUSH2 0x39A PUSH2 0x1E5 JUMP JUMPDEST JUMPDEST PUSH2 0x3A7 DUP6 DUP3 DUP7 ADD PUSH2 0x302 JUMP JUMPDEST SWAP3 POP POP PUSH1 0x20 PUSH2 0x3B8 DUP6 DUP3 DUP7 ADD PUSH2 0x351 JUMP JUMPDEST SWAP2 POP POP SWAP3 POP SWAP3 SWAP1 POP JUMP JUMPDEST PUSH1 0x0 DUP2 MLOAD SWAP1 POP SWAP2 SWAP1 POP JUMP JUMPDEST PUSH1 0x0 DUP3 DUP3 MSTORE PUSH1 0x20 DUP3 ADD SWAP1 POP SWAP3 SWAP2 POP POP JUMP JUMPDEST PUSH1 0x0 DUP2 SWAP1 POP PUSH1 0x20 DUP3 ADD SWAP1 POP SWAP2 SWAP1 POP JUMP JUMPDEST PUSH1 0x0 DUP2 MLOAD SWAP1 POP SWAP2 SWAP1 POP JUMP JUMPDEST PUSH1 0x0 DUP3 DUP3 MSTORE PUSH1 0x20 DUP3 ADD SWAP1 POP SWAP3 SWAP2 POP POP JUMP JUMPDEST PUSH1 0x0 JUMPDEST DUP4 DUP2 LT ISZERO PUSH2 0x428 JUMPI DUP1 DUP3 ADD MLOAD DUP2 DUP5 ADD MSTORE PUSH1 0x20 DUP2 ADD SWAP1 POP PUSH2 0x40D JUMP JUMPDEST DUP4 DUP2 GT ISZERO PUSH2 0x437 JUMPI PUSH1 0x0 DUP5 DUP5 ADD MSTORE JUMPDEST POP POP POP POP JUMP JUMPDEST PUSH1 0x0 PUSH2 0x448 DUP3 PUSH2 0x3EE JUMP JUMPDEST PUSH2 0x452 DUP2 DUP6 PUSH2 0x3F9 JUMP JUMPDEST SWAP4 POP PUSH2 0x462 DUP2 DUP6 PUSH1 0x20 DUP7 ADD PUSH2 0x40A JUMP JUMPDEST PUSH2 0x46B DUP2 PUSH2 0x1F4 JUMP JUMPDEST DUP5 ADD SWAP2 POP POP SWAP3 SWAP2 POP POP JUMP JUMPDEST PUSH2 0x47F DUP2 PUSH2 0x330 JUMP JUMPDEST DUP3 MSTORE POP POP JUMP JUMPDEST PUSH1 0x0 PUSH1 0x40 DUP4 ADD PUSH1 0x0 DUP4 ADD MLOAD DUP5 DUP3 SUB PUSH1 0x0 DUP7 ADD MSTORE PUSH2 0x4A2 DUP3 DUP3 PUSH2 0x43D JUMP JUMPDEST SWAP2 POP POP PUSH1 0x20 DUP4 ADD MLOAD PUSH2 0x4B7 PUSH1 0x20 DUP7 ADD DUP3 PUSH2 0x476 JUMP JUMPDEST POP DUP1 SWAP2 POP POP SWAP3 SWAP2 POP POP JUMP JUMPDEST PUSH1 0x0 PUSH2 0x4CE DUP4 DUP4 PUSH2 0x485 JUMP JUMPDEST SWAP1 POP SWAP3 SWAP2 POP POP JUMP JUMPDEST PUSH1 0x0 PUSH1 0x20 DUP3 ADD SWAP1 POP SWAP2 SWAP1 POP JUMP JUMPDEST PUSH1 0x0 PUSH2 0x4EE DUP3 PUSH2 0x3C2 JUMP JUMPDEST PUSH2 0x4F8 DUP2 DUP6 PUSH2 0x3CD JUMP JUMPDEST SWAP4 POP DUP4 PUSH1 0x20 DUP3 MUL DUP6 ADD PUSH2 0x50A DUP6 PUSH2 0x3DE JUMP JUMPDEST DUP1 PUSH1 0x0 JUMPDEST DUP6 DUP2 LT ISZERO PUSH2 0x546 JUMPI DUP5 DUP5 SUB DUP10 MSTORE DUP2 MLOAD PUSH2 0x527 DUP6 DUP3 PUSH2 0x4C2 JUMP JUMPDEST SWAP5 POP PUSH2 0x532 DUP4 PUSH2 0x4D6 JUMP JUMPDEST SWAP3 POP PUSH1 0x20 DUP11 ADD SWAP10 POP POP PUSH1 0x1 DUP2 ADD SWAP1 POP PUSH2 0x50E JUMP JUMPDEST POP DUP3 SWAP8 POP DUP8 SWAP6 POP POP POP POP POP POP SWAP3 SWAP2 POP POP JUMP JUMPDEST PUSH1 0x0 PUSH1 0x20 DUP3 ADD SWAP1 POP DUP2 DUP2 SUB PUSH1 0x0 DUP4 ADD MSTORE PUSH2 0x572 DUP2 DUP5 PUSH2 0x4E3 JUMP JUMPDEST SWAP1 POP SWAP3 SWAP2 POP POP JUMP JUMPDEST PUSH32 0x4E487B7100000000000000000000000000000000000000000000000000000000 PUSH1 0x0 MSTORE PUSH1 0x22 PUSH1 0x4 MSTORE PUSH1 0x24 PUSH1 0x0 REVERT JUMPDEST PUSH1 0x0 PUSH1 0x2 DUP3 DIV SWAP1 POP PUSH1 0x1 DUP3 AND DUP1 PUSH2 0x5C1 JUMPI PUSH1 0x7F DUP3 AND SWAP2 POP JUMPDEST PUSH1 0x20 DUP3 LT DUP2 SUB PUSH2 0x5D4 JUMPI PUSH2 0x5D3 PUSH2 0x57A JUMP JUMPDEST JUMPDEST POP SWAP2 SWAP1 POP JUMP JUMPDEST PUSH1 0x0 DUP2 SWAP1 POP DUP2 PUSH1 0x0 MSTORE PUSH1 0x20 PUSH1 0x0 KECCAK256 SWAP1 POP SWAP2 SWAP1 POP JUMP JUMPDEST PUSH1 0x0 PUSH1 0x20 PUSH1 0x1F DUP4 ADD DIV SWAP1 POP SWAP2 SWAP1 POP JUMP JUMPDEST PUSH1 0x0 DUP3 DUP3 SHL SWAP1 POP SWAP3 SWAP2 POP POP JUMP JUMPDEST PUSH1 0x0 PUSH1 0x8 DUP4 MUL PUSH2 0x63C PUSH32 0xFFFFFFFFFFFFFFFFFFFFFFFFFFFFFFFFFFFFFFFFFFFFFFFFFFFFFFFFFFFFFFFF DUP3 PUSH2 0x5FF JUMP JUMPDEST PUSH2 0x646 DUP7 DUP4 PUSH2 0x5FF JUMP JUMPDEST SWAP6 POP DUP1 NOT DUP5 AND SWAP4 POP DUP1 DUP7 AND DUP5 OR SWAP3 POP POP POP SWAP4 SWAP3 POP POP POP JUMP JUMPDEST PUSH1 0x0 DUP2 SWAP1 POP SWAP2 SWAP1 POP JUMP JUMPDEST PUSH1 0x0 PUSH2 0x683 PUSH2 0x67E PUSH2 0x679 DUP5 PUSH2 0x330 JUMP JUMPDEST PUSH2 0x65E JUMP JUMPDEST PUSH2 0x330 JUMP JUMPDEST SWAP1 POP SWAP2 SWAP1 POP JUMP JUMPDEST PUSH1 0x0 DUP2 SWAP1 POP SWAP2 SWAP1 POP JUMP JUMPDEST PUSH2 0x69D DUP4 PUSH2 0x668 JUMP JUMPDEST PUSH2 0x6B1 PUSH2 0x6A9 DUP3 PUSH2 0x68A JUMP JUMPDEST DUP5 DUP5 SLOAD PUSH2 0x60C JUMP JUMPDEST DUP3 SSTORE POP POP POP POP JUMP JUMPDEST PUSH1 0x0 SWAP1 JUMP JUMPDEST PUSH2 0x6C6 PUSH2 0x6B9 JUMP JUMPDEST PUSH2 0x6D1 DUP2 DUP5 DUP5 PUSH2 0x694 JUMP JUMPDEST POP POP POP JUMP JUMPDEST JUMPDEST DUP2 DUP2 LT ISZERO PUSH2 0x6F5 JUMPI PUSH2 0x6EA PUSH1 0x0 DUP3 PUSH2 0x6BE JUMP JUMPDEST PUSH1 0x1 DUP2 ADD SWAP1 POP PUSH2 0x6D7 JUMP JUMPDEST POP POP JUMP JUMPDEST PUSH1 0x1F DUP3 GT ISZERO PUSH2 0x73A JUMPI PUSH2 0x70B DUP2 PUSH2 0x5DA JUMP JUMPDEST PUSH2 0x714 DUP5 PUSH2 0x5EF JUMP JUMPDEST DUP2 ADD PUSH1 0x20 DUP6 LT ISZERO PUSH2 0x723 JUMPI DUP2 SWAP1 POP JUMPDEST PUSH2 0x737 PUSH2 0x72F DUP6 PUSH2 0x5EF JUMP JUMPDEST DUP4 ADD DUP3 PUSH2 0x6D6 JUMP JUMPDEST POP POP JUMPDEST POP POP POP JUMP JUMPDEST PUSH1 0x0 DUP3 DUP3 SHR SWAP1 POP SWAP3 SWAP2 POP POP JUMP JUMPDEST PUSH1 0x0 PUSH2 0x75D PUSH1 0x0 NOT DUP5 PUSH1 0x8 MUL PUSH2 0x73F JUMP JUMPDEST NOT DUP1 DUP4 AND SWAP2 POP POP SWAP3 SWAP2 POP POP JUMP JUMPDEST PUSH1 0x0 PUSH2 0x776 DUP4 DUP4 PUSH2 0x74C JUMP JUMPDEST SWAP2 POP DUP3 PUSH1 0x2 MUL DUP3 OR SWAP1 POP SWAP3 SWAP2 POP POP JUMP JUMPDEST PUSH2 0x78F DUP3 PUSH2 0x3EE JUMP JUMPDEST PUSH8 0xFFFFFFFFFFFFFFFF DUP2 GT ISZERO PUSH2 0x7A8 JUMPI PUSH2 0x7A7 PUSH2 0x205 JUMP JUMPDEST JUMPDEST PUSH2 0x7B2 DUP3 SLOAD PUSH2 0x5A9 JUMP JUMPDEST PUSH2 0x7BD DUP3 DUP3 DUP6 PUSH2 0x6F9 JUMP JUMPDEST PUSH1 0x0 PUSH1 0x20 SWAP1 POP PUSH1 0x1F DUP4 GT PUSH1 0x1 DUP2 EQ PUSH2 0x7F0 JUMPI PUSH1 0x0 DUP5 ISZERO PUSH2 0x7DE JUMPI DUP3 DUP8 ADD MLOAD SWAP1 POP JUMPDEST PUSH2 0x7E8 DUP6 DUP3 PUSH2 0x76A JUMP JUMPDEST DUP7 SSTORE POP PUSH2 0x850 JUMP JUMPDEST PUSH1 0x1F NOT DUP5 AND PUSH2 0x7FE DUP7 PUSH2 0x5DA JUMP JUMPDEST PUSH1 0x0 JUMPDEST DUP3 DUP2 LT ISZERO PUSH2 0x826 JUMPI DUP5 DUP10 ADD MLOAD DUP3 SSTORE PUSH1 0x1 DUP3 ADD SWAP2 POP PUSH1 0x20 DUP6 ADD SWAP5 POP PUSH1 0x20 DUP2 ADD SWAP1 POP PUSH2 0x801 JUMP JUMPDEST DUP7 DUP4 LT ISZERO PUSH2 0x843 JUMPI DUP5 DUP10 ADD MLOAD PUSH2 0x83F PUSH1 0x1F DUP10 AND DUP3 PUSH2 0x74C JUMP JUMPDEST DUP4 SSTORE POP JUMPDEST PUSH1 0x1 PUSH1 0x2 DUP9 MUL ADD DUP9 SSTORE POP POP POP JUMPDEST POP POP POP POP POP POP JUMP INVALID LOG2 PUSH5 0x6970667358 0x22 SLT KECCAK256 0xC2 SWAP15 PUSH10 0x82FBD39E7A7689B0E07D SWAP7 0xA6 0x25 SWAP8 OR 0x4E SWAP1 0x4B CREATE PUSH3 0xEA33FA DUP3 DUP1 0xAA PUSH18 0x802764736F6C634300080F00330000000000 "
				},
				"gasEstimates": {
					"creation": {
						"codeDepositCost": "438000",
						"executionCost": "474",
						"totalCost": "438474"
					},
					"external": {
						"add(string,uint256)": "infinite",
						"getAllUser()": "infinite"
					}
				},
				"methodIdentifiers": {
					"add(string,uint256)": "36555b85",
					"getAllUser()": "47531df8"
				}
			},
			"storageLayout": {
				"storage": [
					{
						"astId": 10,
						"contract": "array2.sol:ArrayTest",
						"label": "list",
						"offset": 0,
						"slot": "0",
						"type": "t_array(t_struct(User)6_storage)dyn_storage"
					}
				],
				"types": {
					"t_array(t_struct(User)6_storage)dyn_storage": {
						"base": "t_struct(User)6_storage",
						"encoding": "dynamic_array",
						"label": "struct ArrayTest.User[]",
						"numberOfBytes": "32"
					},
					"t_string_storage": {
						"encoding": "bytes",
						"label": "string",
						"numberOfBytes": "32"
					},
					"t_struct(User)6_storage": {
						"encoding": "inplace",
						"label": "struct ArrayTest.User",
						"members": [
							{
								"astId": 3,
								"contract": "array2.sol:ArrayTest",
								"label": "name",
								"offset": 0,
								"slot": "0",
								"type": "t_string_storage"
							},
							{
								"astId": 5,
								"contract": "array2.sol:ArrayTest",
								"label": "age",
								"offset": 0,
								"slot": "1",
								"type": "t_uint256"
							}
						],
						"numberOfBytes": "64"
					},
					"t_uint256": {
						"encoding": "inplace",
						"label": "uint256",
						"numberOfBytes": "32"
					}
				}
			},
			"userdoc": {
				"kind": "user",
				"methods": {},
				"version": 1
			}
		}
	}
}