{
	"crowdfunding.sol": {
		"CrowdfundingContract": {
			"abi": [
				{
					"inputs": [
						{
							"internalType": "string",
							"name": "_title",
							"type": "string"
						},
						{
							"internalType": "address",
							"name": "_recipient",
							"type": "address"
						},
						{
							"internalType": "string",
							"name": "_expectAmout",
							"type": "string"
						}
					],
					"name": "createCrowdfunding",
					"outputs": [],
					"stateMutability": "nonpayable",
					"type": "function"
				},
				{
					"inputs": [
						{
							"internalType": "uint256",
							"name": "_status",
							"type": "uint256"
						}
					],
					"name": "getCrowdfundingByStatus",
					"outputs": [
						{
							"components": [
								{
									"internalType": "uint256",
									"name": "num",
									"type": "uint256"
								},
								{
									"internalType": "string",
									"name": "title",
									"type": "string"
								},
								{
									"internalType": "uint256",
									"name": "status",
									"type": "uint256"
								},
								{
									"internalType": "address",
									"name": "creator",
									"type": "address"
								},
								{
									"internalType": "address",
									"name": "recipient",
									"type": "address"
								},
								{
									"internalType": "uint256",
									"name": "joinNum",
									"type": "uint256"
								},
								{
									"internalType": "string",
									"name": "expectAmout",
									"type": "string"
								},
								{
									"internalType": "string",
									"name": "actualAmount",
									"type": "string"
								}
							],
							"internalType": "struct CrowdfundingContract.Crowdfunding[]",
							"name": "",
							"type": "tuple[]"
						}
					],
					"stateMutability": "view",
					"type": "function"
				},
				{
					"inputs": [
						{
							"internalType": "address",
							"name": "addr",
							"type": "address"
						}
					],
					"name": "getMyCrowdfunding",
					"outputs": [
						{
							"components": [
								{
									"internalType": "uint256",
									"name": "num",
									"type": "uint256"
								},
								{
									"internalType": "string",
									"name": "title",
									"type": "string"
								},
								{
									"internalType": "uint256",
									"name": "status",
									"type": "uint256"
								},
								{
									"internalType": "address",
									"name": "creator",
									"type": "address"
								},
								{
									"internalType": "address",
									"name": "recipient",
									"type": "address"
								},
								{
									"internalType": "uint256",
									"name": "joinNum",
									"type": "uint256"
								},
								{
									"internalType": "string",
									"name": "expectAmout",
									"type": "string"
								},
								{
									"internalType": "string",
									"name": "actualAmount",
									"type": "string"
								}
							],
							"internalType": "struct CrowdfundingContract.Crowdfunding[]",
							"name": "",
							"type": "tuple[]"
						}
					],
					"stateMutability": "view",
					"type": "function"
				},
				{
					"inputs": [
						{
							"internalType": "uint256",
							"name": "",
							"type": "uint256"
						}
					],
					"name": "list",
					"outputs": [
						{
							"internalType": "uint256",
							"name": "num",
							"type": "uint256"
						},
						{
							"internalType": "string",
							"name": "title",
							"type": "string"
						},
						{
							"internalType": "uint256",
							"name": "status",
							"type": "uint256"
						},
						{
							"internalType": "address",
							"name": "creator",
							"type": "address"
						},
						{
							"internalType": "address",
							"name": "recipient",
							"type": "address"
						},
						{
							"internalType": "uint256",
							"name": "joinNum",
							"type": "uint256"
						},
						{
							"internalType": "string",
							"name": "expectAmout",
							"type": "string"
						},
						{
							"internalType": "string",
							"name": "actualAmount",
							"type": "string"
						}
					],
					"stateMutability": "view",
					"type": "function"
				},
				{
					"inputs": [
						{
							"internalType": "uint256",
							"name": "num",
							"type": "uint256"
						}
					],
					"name": "setStatus",
					"outputs": [],
					"stateMutability": "nonpayable",
					"type": "function"
				}
			],
			"devdoc": {
				"kind": "dev",
				"methods": {},
				"version": 1
			},
			"evm": {
				"assembly": "    /* \"crowdfunding.sol\":290:2518  contract CrowdfundingContract {... */\n  mstore(0x40, 0x80)\n  callvalue\n  dup1\n  iszero\n  tag_1\n  jumpi\n  0x00\n  dup1\n  revert\ntag_1:\n  pop\n  dataSize(sub_0)\n  dup1\n  dataOffset(sub_0)\n  0x00\n  codecopy\n  0x00\n  return\nstop\n\nsub_0: assembly {\n        /* \"crowdfunding.sol\":290:2518  contract CrowdfundingContract {... */\n      mstore(0x40, 0x80)\n      callvalue\n      dup1\n      iszero\n      tag_1\n      jumpi\n      0x00\n      dup1\n      revert\n    tag_1:\n      pop\n      jumpi(tag_2, lt(calldatasize, 0x04))\n      shr(0xe0, calldataload(0x00))\n      dup1\n      0x377e6ff7\n      eq\n      tag_3\n      jumpi\n      dup1\n      0x69ba1a75\n      eq\n      tag_4\n      jumpi\n      dup1\n      0x80c9419e\n      eq\n      tag_5\n      jumpi\n      dup1\n      0x904cc175\n      eq\n      tag_6\n      jumpi\n      dup1\n      0xa97af4d5\n      eq\n      tag_7\n      jumpi\n    tag_2:\n      0x00\n      dup1\n      revert\n        /* \"crowdfunding.sol\":2384:2515  function getMyCrowdfunding(address addr) public view returns (Crowdfunding[] memory) {... */\n    tag_3:\n      tag_8\n      0x04\n      dup1\n      calldatasize\n      sub\n      dup2\n      add\n      swap1\n      tag_9\n      swap2\n      swap1\n      tag_10\n      jump\t// in\n    tag_9:\n      tag_11\n      jump\t// in\n    tag_8:\n      mload(0x40)\n      tag_12\n      swap2\n      swap1\n      tag_13\n      jump\t// in\n    tag_12:\n      mload(0x40)\n      dup1\n      swap2\n      sub\n      swap1\n      return\n        /* \"crowdfunding.sol\":1654:2101  function setStatus(uint num) public {... */\n    tag_4:\n      tag_14\n      0x04\n      dup1\n      calldatasize\n      sub\n      dup2\n      add\n      swap1\n      tag_15\n      swap2\n      swap1\n      tag_16\n      jump\t// in\n    tag_15:\n      tag_17\n      jump\t// in\n    tag_14:\n      stop\n        /* \"crowdfunding.sol\":813:839  Crowdfunding[] public list */\n    tag_5:\n      tag_18\n      0x04\n      dup1\n      calldatasize\n      sub\n      dup2\n      add\n      swap1\n      tag_19\n      swap2\n      swap1\n      tag_16\n      jump\t// in\n    tag_19:\n      tag_20\n      jump\t// in\n    tag_18:\n      mload(0x40)\n      tag_21\n      swap9\n      swap8\n      swap7\n      swap6\n      swap5\n      swap4\n      swap3\n      swap2\n      swap1\n      tag_22\n      jump\t// in\n    tag_21:\n      mload(0x40)\n      dup1\n      swap2\n      sub\n      swap1\n      return\n        /* \"crowdfunding.sol\":2151:2334  function getCrowdfundingByStatus(uint _status) public view returns (Crowdfunding[] memory) {... */\n    tag_6:\n      tag_23\n      0x04\n      dup1\n      calldatasize\n      sub\n      dup2\n      add\n      swap1\n      tag_24\n      swap2\n      swap1\n      tag_16\n      jump\t// in\n    tag_24:\n      tag_25\n      jump\t// in\n    tag_23:\n      mload(0x40)\n      tag_26\n      swap2\n      swap1\n      tag_13\n      jump\t// in\n    tag_26:\n      mload(0x40)\n      dup1\n      swap2\n      sub\n      swap1\n      return\n        /* \"crowdfunding.sol\":959:1575  function createCrowdfunding(string memory _title,address _recipient, string memory _expectAmout) public {... */\n    tag_7:\n      tag_27\n      0x04\n      dup1\n      calldatasize\n      sub\n      dup2\n      add\n      swap1\n      tag_28\n      swap2\n      swap1\n      tag_29\n      jump\t// in\n    tag_28:\n      tag_30\n      jump\t// in\n    tag_27:\n      stop\n        /* \"crowdfunding.sol\":2384:2515  function getMyCrowdfunding(address addr) public view returns (Crowdfunding[] memory) {... */\n    tag_11:\n        /* \"crowdfunding.sol\":2446:2467  Crowdfunding[] memory */\n      0x60\n        /* \"crowdfunding.sol\":2487:2501  myCrowdfunding */\n      0x03\n        /* \"crowdfunding.sol\":2487:2507  myCrowdfunding[addr] */\n      0x00\n        /* \"crowdfunding.sol\":2502:2506  addr */\n      dup4\n        /* \"crowdfunding.sol\":2487:2507  myCrowdfunding[addr] */\n      0xffffffffffffffffffffffffffffffffffffffff\n      and\n      0xffffffffffffffffffffffffffffffffffffffff\n      and\n      dup2\n      mstore\n      0x20\n      add\n      swap1\n      dup2\n      mstore\n      0x20\n      add\n      0x00\n      keccak256\n        /* \"crowdfunding.sol\":2480:2507  return myCrowdfunding[addr] */\n      dup1\n      sload\n      dup1\n      0x20\n      mul\n      0x20\n      add\n      mload(0x40)\n      swap1\n      dup2\n      add\n      0x40\n      mstore\n      dup1\n      swap3\n      swap2\n      swap1\n      dup2\n      dup2\n      mstore\n      0x20\n      add\n      0x00\n      swap1\n    tag_32:\n      dup3\n      dup3\n      lt\n      iszero\n      tag_33\n      jumpi\n      dup4\n      dup3\n      swap1\n      0x00\n      mstore\n      keccak256(0x00, 0x20)\n      swap1\n      0x08\n      mul\n      add\n      mload(0x40)\n      dup1\n      0x0100\n      add\n      0x40\n      mstore\n      swap1\n      dup2\n      0x00\n      dup3\n      add\n      sload\n      dup2\n      mstore\n      0x20\n      add\n      0x01\n      dup3\n      add\n      dup1\n      sload\n      tag_35\n      swap1\n      tag_36\n      jump\t// in\n    tag_35:\n      dup1\n      0x1f\n      add\n      0x20\n      dup1\n      swap2\n      div\n      mul\n      0x20\n      add\n      mload(0x40)\n      swap1\n      dup2\n      add\n      0x40\n      mstore\n      dup1\n      swap3\n      swap2\n      swap1\n      dup2\n      dup2\n      mstore\n      0x20\n      add\n      dup3\n      dup1\n      sload\n      tag_37\n      swap1\n      tag_36\n      jump\t// in\n    tag_37:\n      dup1\n      iszero\n      tag_38\n      jumpi\n      dup1\n      0x1f\n      lt\n      tag_39\n      jumpi\n      0x0100\n      dup1\n      dup4\n      sload\n      div\n      mul\n      dup4\n      mstore\n      swap2\n      0x20\n      add\n      swap2\n      jump(tag_38)\n    tag_39:\n      dup3\n      add\n      swap2\n      swap1\n      0x00\n      mstore\n      keccak256(0x00, 0x20)\n      swap1\n    tag_40:\n      dup2\n      sload\n      dup2\n      mstore\n      swap1\n      0x01\n      add\n      swap1\n      0x20\n      add\n      dup1\n      dup4\n      gt\n      tag_40\n      jumpi\n      dup3\n      swap1\n      sub\n      0x1f\n      and\n      dup3\n      add\n      swap2\n    tag_38:\n      pop\n      pop\n      pop\n      pop\n      pop\n      dup2\n      mstore\n      0x20\n      add\n      0x02\n      dup3\n      add\n      sload\n      dup2\n      mstore\n      0x20\n      add\n      0x03\n      dup3\n      add\n      0x00\n      swap1\n      sload\n      swap1\n      0x0100\n      exp\n      swap1\n      div\n      0xffffffffffffffffffffffffffffffffffffffff\n      and\n      0xffffffffffffffffffffffffffffffffffffffff\n      and\n      0xffffffffffffffffffffffffffffffffffffffff\n      and\n      dup2\n      mstore\n      0x20\n      add\n      0x04\n      dup3\n      add\n      0x00\n      swap1\n      sload\n      swap1\n      0x0100\n      exp\n      swap1\n      div\n      0xffffffffffffffffffffffffffffffffffffffff\n      and\n      0xffffffffffffffffffffffffffffffffffffffff\n      and\n      0xffffffffffffffffffffffffffffffffffffffff\n      and\n      dup2\n      mstore\n      0x20\n      add\n      0x05\n      dup3\n      add\n      sload\n      dup2\n      mstore\n      0x20\n      add\n      0x06\n      dup3\n      add\n      dup1\n      sload\n      tag_41\n      swap1\n      tag_36\n      jump\t// in\n    tag_41:\n      dup1\n      0x1f\n      add\n      0x20\n      dup1\n      swap2\n      div\n      mul\n      0x20\n      add\n      mload(0x40)\n      swap1\n      dup2\n      add\n      0x40\n      mstore\n      dup1\n      swap3\n      swap2\n      swap1\n      dup2\n      dup2\n      mstore\n      0x20\n      add\n      dup3\n      dup1\n      sload\n      tag_42\n      swap1\n      tag_36\n      jump\t// in\n    tag_42:\n      dup1\n      iszero\n      tag_43\n      jumpi\n      dup1\n      0x1f\n      lt\n      tag_44\n      jumpi\n      0x0100\n      dup1\n      dup4\n      sload\n      div\n      mul\n      dup4\n      mstore\n      swap2\n      0x20\n      add\n      swap2\n      jump(tag_43)\n    tag_44:\n      dup3\n      add\n      swap2\n      swap1\n      0x00\n      mstore\n      keccak256(0x00, 0x20)\n      swap1\n    tag_45:\n      dup2\n      sload\n      dup2\n      mstore\n      swap1\n      0x01\n      add\n      swap1\n      0x20\n      add\n      dup1\n      dup4\n      gt\n      tag_45\n      jumpi\n      dup3\n      swap1\n      sub\n      0x1f\n      and\n      dup3\n      add\n      swap2\n    tag_43:\n      pop\n      pop\n      pop\n      pop\n      pop\n      dup2\n      mstore\n      0x20\n      add\n      0x07\n      dup3\n      add\n      dup1\n      sload\n      tag_46\n      swap1\n      tag_36\n      jump\t// in\n    tag_46:\n      dup1\n      0x1f\n      add\n      0x20\n      dup1\n      swap2\n      div\n      mul\n      0x20\n      add\n      mload(0x40)\n      swap1\n      dup2\n      add\n      0x40\n      mstore\n      dup1\n      swap3\n      swap2\n      swap1\n      dup2\n      dup2\n      mstore\n      0x20\n      add\n      dup3\n      dup1\n      sload\n      tag_47\n      swap1\n      tag_36\n      jump\t// in\n    tag_47:\n      dup1\n      iszero\n      tag_48\n      jumpi\n      dup1\n      0x1f\n      lt\n      tag_49\n      jumpi\n      0x0100\n      dup1\n      dup4\n      sload\n      div\n      mul\n      dup4\n      mstore\n      swap2\n      0x20\n      add\n      swap2\n      jump(tag_48)\n    tag_49:\n      dup3\n      add\n      swap2\n      swap1\n      0x00\n      mstore\n      keccak256(0x00, 0x20)\n      swap1\n    tag_50:\n      dup2\n      sload\n      dup2\n      mstore\n      swap1\n      0x01\n      add\n      swap1\n      0x20\n      add\n      dup1\n      dup4\n      gt\n      tag_50\n      jumpi\n      dup3\n      swap1\n      sub\n      0x1f\n      and\n      dup3\n      add\n      swap2\n    tag_48:\n      pop\n      pop\n      pop\n      pop\n      pop\n      dup2\n      mstore\n      pop\n      pop\n      dup2\n      mstore\n      0x20\n      add\n      swap1\n      0x01\n      add\n      swap1\n      jump(tag_32)\n    tag_33:\n      pop\n      pop\n      pop\n      pop\n      swap1\n      pop\n        /* \"crowdfunding.sol\":2384:2515  function getMyCrowdfunding(address addr) public view returns (Crowdfunding[] memory) {... */\n      swap2\n      swap1\n      pop\n      jump\t// out\n        /* \"crowdfunding.sol\":1654:2101  function setStatus(uint num) public {... */\n    tag_17:\n        /* \"crowdfunding.sol\":1720:1721  3 */\n      0x03\n        /* \"crowdfunding.sol\":1701:1705  list */\n      0x01\n        /* \"crowdfunding.sol\":1706:1709  num */\n      dup3\n        /* \"crowdfunding.sol\":1701:1710  list[num] */\n      dup2\n      sload\n      dup2\n      lt\n      tag_52\n      jumpi\n      tag_53\n      tag_54\n      jump\t// in\n    tag_53:\n    tag_52:\n      swap1\n      0x00\n      mstore\n      keccak256(0x00, 0x20)\n      swap1\n      0x08\n      mul\n      add\n        /* \"crowdfunding.sol\":1701:1717  list[num].status */\n      0x02\n      add\n        /* \"crowdfunding.sol\":1701:1721  list[num].status = 3 */\n      dup2\n      swap1\n      sstore\n      pop\n        /* \"crowdfunding.sol\":1799:1805  uint i */\n      0x00\n        /* \"crowdfunding.sol\":1795:2008  for(uint i = 0; i < filterDataByStatus[1].length - 1; i++) {... */\n    tag_56:\n        /* \"crowdfunding.sol\":1846:1847  1 */\n      0x01\n        /* \"crowdfunding.sol\":1815:1833  filterDataByStatus */\n      0x02\n        /* \"crowdfunding.sol\":1815:1836  filterDataByStatus[1] */\n      0x00\n        /* \"crowdfunding.sol\":1834:1835  1 */\n      0x01\n        /* \"crowdfunding.sol\":1815:1836  filterDataByStatus[1] */\n      dup2\n      mstore\n      0x20\n      add\n      swap1\n      dup2\n      mstore\n      0x20\n      add\n      0x00\n      keccak256\n        /* \"crowdfunding.sol\":1815:1843  filterDataByStatus[1].length */\n      dup1\n      sload\n      swap1\n      pop\n        /* \"crowdfunding.sol\":1815:1847  filterDataByStatus[1].length - 1 */\n      tag_59\n      swap2\n      swap1\n      tag_60\n      jump\t// in\n    tag_59:\n        /* \"crowdfunding.sol\":1811:1812  i */\n      dup2\n        /* \"crowdfunding.sol\":1811:1847  i < filterDataByStatus[1].length - 1 */\n      lt\n        /* \"crowdfunding.sol\":1795:2008  for(uint i = 0; i < filterDataByStatus[1].length - 1; i++) {... */\n      iszero\n      tag_57\n      jumpi\n        /* \"crowdfunding.sol\":1904:1907  num */\n      dup2\n        /* \"crowdfunding.sol\":1872:1890  filterDataByStatus */\n      0x02\n        /* \"crowdfunding.sol\":1872:1893  filterDataByStatus[1] */\n      0x00\n        /* \"crowdfunding.sol\":1891:1892  1 */\n      0x01\n        /* \"crowdfunding.sol\":1872:1893  filterDataByStatus[1] */\n      dup2\n      mstore\n      0x20\n      add\n      swap1\n      dup2\n      mstore\n      0x20\n      add\n      0x00\n      keccak256\n        /* \"crowdfunding.sol\":1894:1895  i */\n      dup3\n        /* \"crowdfunding.sol\":1872:1896  filterDataByStatus[1][i] */\n      dup2\n      sload\n      dup2\n      lt\n      tag_61\n      jumpi\n      tag_62\n      tag_54\n      jump\t// in\n    tag_62:\n    tag_61:\n      swap1\n      0x00\n      mstore\n      keccak256(0x00, 0x20)\n      swap1\n      0x08\n      mul\n      add\n        /* \"crowdfunding.sol\":1872:1900  filterDataByStatus[1][i].num */\n      0x00\n      add\n      sload\n        /* \"crowdfunding.sol\":1872:1907  filterDataByStatus[1][i].num == num */\n      sub\n        /* \"crowdfunding.sol\":1869:1997  if(filterDataByStatus[1][i].num == num) {... */\n      tag_64\n      jumpi\n        /* \"crowdfunding.sol\":1955:1973  filterDataByStatus */\n      0x02\n        /* \"crowdfunding.sol\":1955:1976  filterDataByStatus[1] */\n      0x00\n        /* \"crowdfunding.sol\":1974:1975  1 */\n      0x01\n        /* \"crowdfunding.sol\":1955:1976  filterDataByStatus[1] */\n      dup2\n      mstore\n      0x20\n      add\n      swap1\n      dup2\n      mstore\n      0x20\n      add\n      0x00\n      keccak256\n        /* \"crowdfunding.sol\":1979:1980  1 */\n      0x01\n        /* \"crowdfunding.sol\":1977:1978  i */\n      dup3\n        /* \"crowdfunding.sol\":1977:1980  i+1 */\n      tag_65\n      swap2\n      swap1\n      tag_66\n      jump\t// in\n    tag_65:\n        /* \"crowdfunding.sol\":1955:1981  filterDataByStatus[1][i+1] */\n      dup2\n      sload\n      dup2\n      lt\n      tag_67\n      jumpi\n      tag_68\n      tag_54\n      jump\t// in\n    tag_68:\n    tag_67:\n      swap1\n      0x00\n      mstore\n      keccak256(0x00, 0x20)\n      swap1\n      0x08\n      mul\n      add\n        /* \"crowdfunding.sol\":1928:1946  filterDataByStatus */\n      0x02\n        /* \"crowdfunding.sol\":1928:1949  filterDataByStatus[1] */\n      0x00\n        /* \"crowdfunding.sol\":1947:1948  1 */\n      0x01\n        /* \"crowdfunding.sol\":1928:1949  filterDataByStatus[1] */\n      dup2\n      mstore\n      0x20\n      add\n      swap1\n      dup2\n      mstore\n      0x20\n      add\n      0x00\n      keccak256\n        /* \"crowdfunding.sol\":1950:1951  i */\n      dup3\n        /* \"crowdfunding.sol\":1928:1952  filterDataByStatus[1][i] */\n      dup2\n      sload\n      dup2\n      lt\n      tag_70\n      jumpi\n      tag_71\n      tag_54\n      jump\t// in\n    tag_71:\n    tag_70:\n      swap1\n      0x00\n      mstore\n      keccak256(0x00, 0x20)\n      swap1\n      0x08\n      mul\n      add\n        /* \"crowdfunding.sol\":1928:1981  filterDataByStatus[1][i] = filterDataByStatus[1][i+1] */\n      0x00\n      dup3\n      add\n      sload\n      dup2\n      0x00\n      add\n      sstore\n      0x01\n      dup3\n      add\n      dup2\n      0x01\n      add\n      swap1\n      dup2\n      tag_73\n      swap2\n      swap1\n      tag_74\n      jump\t// in\n    tag_73:\n      pop\n      0x02\n      dup3\n      add\n      sload\n      dup2\n      0x02\n      add\n      sstore\n      0x03\n      dup3\n      add\n      0x00\n      swap1\n      sload\n      swap1\n      0x0100\n      exp\n      swap1\n      div\n      0xffffffffffffffffffffffffffffffffffffffff\n      and\n      dup2\n      0x03\n      add\n      exp(0x0100, 0x00)\n      dup2\n      sload\n      dup2\n      0xffffffffffffffffffffffffffffffffffffffff\n      mul\n      not\n      and\n      swap1\n      dup4\n      0xffffffffffffffffffffffffffffffffffffffff\n      and\n      mul\n      or\n      swap1\n      sstore\n      pop\n      0x04\n      dup3\n      add\n      0x00\n      swap1\n      sload\n      swap1\n      0x0100\n      exp\n      swap1\n      div\n      0xffffffffffffffffffffffffffffffffffffffff\n      and\n      dup2\n      0x04\n      add\n      exp(0x0100, 0x00)\n      dup2\n      sload\n      dup2\n      0xffffffffffffffffffffffffffffffffffffffff\n      mul\n      not\n      and\n      swap1\n      dup4\n      0xffffffffffffffffffffffffffffffffffffffff\n      and\n      mul\n      or\n      swap1\n      sstore\n      pop\n      0x05\n      dup3\n      add\n      sload\n      dup2\n      0x05\n      add\n      sstore\n      0x06\n      dup3\n      add\n      dup2\n      0x06\n      add\n      swap1\n      dup2\n      tag_75\n      swap2\n      swap1\n      tag_74\n      jump\t// in\n    tag_75:\n      pop\n      0x07\n      dup3\n      add\n      dup2\n      0x07\n      add\n      swap1\n      dup2\n      tag_76\n      swap2\n      swap1\n      tag_74\n      jump\t// in\n    tag_76:\n      pop\n      swap1\n      pop\n      pop\n        /* \"crowdfunding.sol\":1869:1997  if(filterDataByStatus[1][i].num == num) {... */\n    tag_64:\n        /* \"crowdfunding.sol\":1849:1852  i++ */\n      dup1\n      dup1\n      tag_77\n      swap1\n      tag_78\n      jump\t// in\n    tag_77:\n      swap2\n      pop\n      pop\n        /* \"crowdfunding.sol\":1795:2008  for(uint i = 0; i < filterDataByStatus[1].length - 1; i++) {... */\n      jump(tag_56)\n    tag_57:\n      pop\n        /* \"crowdfunding.sol\":2018:2036  filterDataByStatus */\n      0x02\n        /* \"crowdfunding.sol\":2018:2039  filterDataByStatus[1] */\n      0x00\n        /* \"crowdfunding.sol\":2037:2038  1 */\n      0x01\n        /* \"crowdfunding.sol\":2018:2039  filterDataByStatus[1] */\n      dup2\n      mstore\n      0x20\n      add\n      swap1\n      dup2\n      mstore\n      0x20\n      add\n      0x00\n      keccak256\n        /* \"crowdfunding.sol\":2018:2045  filterDataByStatus[1].pop() */\n      dup1\n      sload\n      dup1\n      tag_79\n      jumpi\n      tag_80\n      tag_81\n      jump\t// in\n    tag_80:\n    tag_79:\n      0x01\n      swap1\n      sub\n      dup2\n      dup2\n      swap1\n      0x00\n      mstore\n      keccak256(0x00, 0x20)\n      swap1\n      0x08\n      mul\n      add\n      0x00\n      dup1\n      dup3\n      add\n      0x00\n      swap1\n      sstore\n      0x01\n      dup3\n      add\n      0x00\n      tag_83\n      swap2\n      swap1\n      tag_84\n      jump\t// in\n    tag_83:\n      0x02\n      dup3\n      add\n      0x00\n      swap1\n      sstore\n      0x03\n      dup3\n      add\n      exp(0x0100, 0x00)\n      dup2\n      sload\n      swap1\n      0xffffffffffffffffffffffffffffffffffffffff\n      mul\n      not\n      and\n      swap1\n      sstore\n      0x04\n      dup3\n      add\n      exp(0x0100, 0x00)\n      dup2\n      sload\n      swap1\n      0xffffffffffffffffffffffffffffffffffffffff\n      mul\n      not\n      and\n      swap1\n      sstore\n      0x05\n      dup3\n      add\n      0x00\n      swap1\n      sstore\n      0x06\n      dup3\n      add\n      0x00\n      tag_85\n      swap2\n      swap1\n      tag_84\n      jump\t// in\n    tag_85:\n      0x07\n      dup3\n      add\n      0x00\n      tag_86\n      swap2\n      swap1\n      tag_84\n      jump\t// in\n    tag_86:\n      pop\n      pop\n      swap1\n      sstore\n        /* \"crowdfunding.sol\":2056:2074  filterDataByStatus */\n      0x02\n        /* \"crowdfunding.sol\":2056:2077  filterDataByStatus[3] */\n      0x00\n        /* \"crowdfunding.sol\":2075:2076  3 */\n      0x03\n        /* \"crowdfunding.sol\":2056:2077  filterDataByStatus[3] */\n      dup2\n      mstore\n      0x20\n      add\n      swap1\n      dup2\n      mstore\n      0x20\n      add\n      0x00\n      keccak256\n        /* \"crowdfunding.sol\":2083:2087  list */\n      0x01\n        /* \"crowdfunding.sol\":2088:2091  num */\n      dup3\n        /* \"crowdfunding.sol\":2083:2092  list[num] */\n      dup2\n      sload\n      dup2\n      lt\n      tag_87\n      jumpi\n      tag_88\n      tag_54\n      jump\t// in\n    tag_88:\n    tag_87:\n      swap1\n      0x00\n      mstore\n      keccak256(0x00, 0x20)\n      swap1\n      0x08\n      mul\n      add\n        /* \"crowdfunding.sol\":2056:2093  filterDataByStatus[3].push(list[num]) */\n      swap1\n      dup1\n      0x01\n      dup2\n      sload\n      add\n      dup1\n      dup3\n      sstore\n      dup1\n      swap2\n      pop\n      pop\n      0x01\n      swap1\n      sub\n      swap1\n      0x00\n      mstore\n      keccak256(0x00, 0x20)\n      swap1\n      0x08\n      mul\n      add\n      0x00\n      swap1\n      swap2\n      swap1\n      swap2\n      swap1\n      swap2\n      pop\n      0x00\n      dup3\n      add\n      sload\n      dup2\n      0x00\n      add\n      sstore\n      0x01\n      dup3\n      add\n      dup2\n      0x01\n      add\n      swap1\n      dup2\n      tag_91\n      swap2\n      swap1\n      tag_74\n      jump\t// in\n    tag_91:\n      pop\n      0x02\n      dup3\n      add\n      sload\n      dup2\n      0x02\n      add\n      sstore\n      0x03\n      dup3\n      add\n      0x00\n      swap1\n      sload\n      swap1\n      0x0100\n      exp\n      swap1\n      div\n      0xffffffffffffffffffffffffffffffffffffffff\n      and\n      dup2\n      0x03\n      add\n      exp(0x0100, 0x00)\n      dup2\n      sload\n      dup2\n      0xffffffffffffffffffffffffffffffffffffffff\n      mul\n      not\n      and\n      swap1\n      dup4\n      0xffffffffffffffffffffffffffffffffffffffff\n      and\n      mul\n      or\n      swap1\n      sstore\n      pop\n      0x04\n      dup3\n      add\n      0x00\n      swap1\n      sload\n      swap1\n      0x0100\n      exp\n      swap1\n      div\n      0xffffffffffffffffffffffffffffffffffffffff\n      and\n      dup2\n      0x04\n      add\n      exp(0x0100, 0x00)\n      dup2\n      sload\n      dup2\n      0xffffffffffffffffffffffffffffffffffffffff\n      mul\n      not\n      and\n      swap1\n      dup4\n      0xffffffffffffffffffffffffffffffffffffffff\n      and\n      mul\n      or\n      swap1\n      sstore\n      pop\n      0x05\n      dup3\n      add\n      sload\n      dup2\n      0x05\n      add\n      sstore\n      0x06\n      dup3\n      add\n      dup2\n      0x06\n      add\n      swap1\n      dup2\n      tag_92\n      swap2\n      swap1\n      tag_74\n      jump\t// in\n    tag_92:\n      pop\n      0x07\n      dup3\n      add\n      dup2\n      0x07\n      add\n      swap1\n      dup2\n      tag_93\n      swap2\n      swap1\n      tag_74\n      jump\t// in\n    tag_93:\n      pop\n      pop\n      pop\n        /* \"crowdfunding.sol\":1654:2101  function setStatus(uint num) public {... */\n      pop\n      jump\t// out\n        /* \"crowdfunding.sol\":813:839  Crowdfunding[] public list */\n    tag_20:\n      0x01\n      dup2\n      dup2\n      sload\n      dup2\n      lt\n      tag_94\n      jumpi\n      0x00\n      dup1\n      revert\n    tag_94:\n      swap1\n      0x00\n      mstore\n      keccak256(0x00, 0x20)\n      swap1\n      0x08\n      mul\n      add\n      0x00\n      swap2\n      pop\n      swap1\n      pop\n      dup1\n      0x00\n      add\n      sload\n      swap1\n      dup1\n      0x01\n      add\n      dup1\n      sload\n      tag_96\n      swap1\n      tag_36\n      jump\t// in\n    tag_96:\n      dup1\n      0x1f\n      add\n      0x20\n      dup1\n      swap2\n      div\n      mul\n      0x20\n      add\n      mload(0x40)\n      swap1\n      dup2\n      add\n      0x40\n      mstore\n      dup1\n      swap3\n      swap2\n      swap1\n      dup2\n      dup2\n      mstore\n      0x20\n      add\n      dup3\n      dup1\n      sload\n      tag_97\n      swap1\n      tag_36\n      jump\t// in\n    tag_97:\n      dup1\n      iszero\n      tag_98\n      jumpi\n      dup1\n      0x1f\n      lt\n      tag_99\n      jumpi\n      0x0100\n      dup1\n      dup4\n      sload\n      div\n      mul\n      dup4\n      mstore\n      swap2\n      0x20\n      add\n      swap2\n      jump(tag_98)\n    tag_99:\n      dup3\n      add\n      swap2\n      swap1\n      0x00\n      mstore\n      keccak256(0x00, 0x20)\n      swap1\n    tag_100:\n      dup2\n      sload\n      dup2\n      mstore\n      swap1\n      0x01\n      add\n      swap1\n      0x20\n      add\n      dup1\n      dup4\n      gt\n      tag_100\n      jumpi\n      dup3\n      swap1\n      sub\n      0x1f\n      and\n      dup3\n      add\n      swap2\n    tag_98:\n      pop\n      pop\n      pop\n      pop\n      pop\n      swap1\n      dup1\n      0x02\n      add\n      sload\n      swap1\n      dup1\n      0x03\n      add\n      0x00\n      swap1\n      sload\n      swap1\n      0x0100\n      exp\n      swap1\n      div\n      0xffffffffffffffffffffffffffffffffffffffff\n      and\n      swap1\n      dup1\n      0x04\n      add\n      0x00\n      swap1\n      sload\n      swap1\n      0x0100\n      exp\n      swap1\n      div\n      0xffffffffffffffffffffffffffffffffffffffff\n      and\n      swap1\n      dup1\n      0x05\n      add\n      sload\n      swap1\n      dup1\n      0x06\n      add\n      dup1\n      sload\n      tag_101\n      swap1\n      tag_36\n      jump\t// in\n    tag_101:\n      dup1\n      0x1f\n      add\n      0x20\n      dup1\n      swap2\n      div\n      mul\n      0x20\n      add\n      mload(0x40)\n      swap1\n      dup2\n      add\n      0x40\n      mstore\n      dup1\n      swap3\n      swap2\n      swap1\n      dup2\n      dup2\n      mstore\n      0x20\n      add\n      dup3\n      dup1\n      sload\n      tag_102\n      swap1\n      tag_36\n      jump\t// in\n    tag_102:\n      dup1\n      iszero\n      tag_103\n      jumpi\n      dup1\n      0x1f\n      lt\n      tag_104\n      jumpi\n      0x0100\n      dup1\n      dup4\n      sload\n      div\n      mul\n      dup4\n      mstore\n      swap2\n      0x20\n      add\n      swap2\n      jump(tag_103)\n    tag_104:\n      dup3\n      add\n      swap2\n      swap1\n      0x00\n      mstore\n      keccak256(0x00, 0x20)\n      swap1\n    tag_105:\n      dup2\n      sload\n      dup2\n      mstore\n      swap1\n      0x01\n      add\n      swap1\n      0x20\n      add\n      dup1\n      dup4\n      gt\n      tag_105\n      jumpi\n      dup3\n      swap1\n      sub\n      0x1f\n      and\n      dup3\n      add\n      swap2\n    tag_103:\n      pop\n      pop\n      pop\n      pop\n      pop\n      swap1\n      dup1\n      0x07\n      add\n      dup1\n      sload\n      tag_106\n      swap1\n      tag_36\n      jump\t// in\n    tag_106:\n      dup1\n      0x1f\n      add\n      0x20\n      dup1\n      swap2\n      div\n      mul\n      0x20\n      add\n      mload(0x40)\n      swap1\n      dup2\n      add\n      0x40\n      mstore\n      dup1\n      swap3\n      swap2\n      swap1\n      dup2\n      dup2\n      mstore\n      0x20\n      add\n      dup3\n      dup1\n      sload\n      tag_107\n      swap1\n      tag_36\n      jump\t// in\n    tag_107:\n      dup1\n      iszero\n      tag_108\n      jumpi\n      dup1\n      0x1f\n      lt\n      tag_109\n      jumpi\n      0x0100\n      dup1\n      dup4\n      sload\n      div\n      mul\n      dup4\n      mstore\n      swap2\n      0x20\n      add\n      swap2\n      jump(tag_108)\n    tag_109:\n      dup3\n      add\n      swap2\n      swap1\n      0x00\n      mstore\n      keccak256(0x00, 0x20)\n      swap1\n    tag_110:\n      dup2\n      sload\n      dup2\n      mstore\n      swap1\n      0x01\n      add\n      swap1\n      0x20\n      add\n      dup1\n      dup4\n      gt\n      tag_110\n      jumpi\n      dup3\n      swap1\n      sub\n      0x1f\n      and\n      dup3\n      add\n      swap2\n    tag_108:\n      pop\n      pop\n      pop\n      pop\n      pop\n      swap1\n      pop\n      dup9\n      jump\t// out\n        /* \"crowdfunding.sol\":2151:2334  function getCrowdfundingByStatus(uint _status) public view returns (Crowdfunding[] memory) {... */\n    tag_25:\n        /* \"crowdfunding.sol\":2219:2240  Crowdfunding[] memory */\n      0x60\n        /* \"crowdfunding.sol\":2267:2268  0 */\n      0x00\n        /* \"crowdfunding.sol\":2256:2263  _status */\n      dup3\n        /* \"crowdfunding.sol\":2256:2268  _status == 0 */\n      sub\n        /* \"crowdfunding.sol\":2253:2281  if(_status == 0) return list */\n      tag_112\n      jumpi\n        /* \"crowdfunding.sol\":2277:2281  list */\n      0x01\n        /* \"crowdfunding.sol\":2270:2281  return list */\n      dup1\n      sload\n      dup1\n      0x20\n      mul\n      0x20\n      add\n      mload(0x40)\n      swap1\n      dup2\n      add\n      0x40\n      mstore\n      dup1\n      swap3\n      swap2\n      swap1\n      dup2\n      dup2\n      mstore\n      0x20\n      add\n      0x00\n      swap1\n    tag_113:\n      dup3\n      dup3\n      lt\n      iszero\n      tag_114\n      jumpi\n      dup4\n      dup3\n      swap1\n      0x00\n      mstore\n      keccak256(0x00, 0x20)\n      swap1\n      0x08\n      mul\n      add\n      mload(0x40)\n      dup1\n      0x0100\n      add\n      0x40\n      mstore\n      swap1\n      dup2\n      0x00\n      dup3\n      add\n      sload\n      dup2\n      mstore\n      0x20\n      add\n      0x01\n      dup3\n      add\n      dup1\n      sload\n      tag_116\n      swap1\n      tag_36\n      jump\t// in\n    tag_116:\n      dup1\n      0x1f\n      add\n      0x20\n      dup1\n      swap2\n      div\n      mul\n      0x20\n      add\n      mload(0x40)\n      swap1\n      dup2\n      add\n      0x40\n      mstore\n      dup1\n      swap3\n      swap2\n      swap1\n      dup2\n      dup2\n      mstore\n      0x20\n      add\n      dup3\n      dup1\n      sload\n      tag_117\n      swap1\n      tag_36\n      jump\t// in\n    tag_117:\n      dup1\n      iszero\n      tag_118\n      jumpi\n      dup1\n      0x1f\n      lt\n      tag_119\n      jumpi\n      0x0100\n      dup1\n      dup4\n      sload\n      div\n      mul\n      dup4\n      mstore\n      swap2\n      0x20\n      add\n      swap2\n      jump(tag_118)\n    tag_119:\n      dup3\n      add\n      swap2\n      swap1\n      0x00\n      mstore\n      keccak256(0x00, 0x20)\n      swap1\n    tag_120:\n      dup2\n      sload\n      dup2\n      mstore\n      swap1\n      0x01\n      add\n      swap1\n      0x20\n      add\n      dup1\n      dup4\n      gt\n      tag_120\n      jumpi\n      dup3\n      swap1\n      sub\n      0x1f\n      and\n      dup3\n      add\n      swap2\n    tag_118:\n      pop\n      pop\n      pop\n      pop\n      pop\n      dup2\n      mstore\n      0x20\n      add\n      0x02\n      dup3\n      add\n      sload\n      dup2\n      mstore\n      0x20\n      add\n      0x03\n      dup3\n      add\n      0x00\n      swap1\n      sload\n      swap1\n      0x0100\n      exp\n      swap1\n      div\n      0xffffffffffffffffffffffffffffffffffffffff\n      and\n      0xffffffffffffffffffffffffffffffffffffffff\n      and\n      0xffffffffffffffffffffffffffffffffffffffff\n      and\n      dup2\n      mstore\n      0x20\n      add\n      0x04\n      dup3\n      add\n      0x00\n      swap1\n      sload\n      swap1\n      0x0100\n      exp\n      swap1\n      div\n      0xffffffffffffffffffffffffffffffffffffffff\n      and\n      0xffffffffffffffffffffffffffffffffffffffff\n      and\n      0xffffffffffffffffffffffffffffffffffffffff\n      and\n      dup2\n      mstore\n      0x20\n      add\n      0x05\n      dup3\n      add\n      sload\n      dup2\n      mstore\n      0x20\n      add\n      0x06\n      dup3\n      add\n      dup1\n      sload\n      tag_121\n      swap1\n      tag_36\n      jump\t// in\n    tag_121:\n      dup1\n      0x1f\n      add\n      0x20\n      dup1\n      swap2\n      div\n      mul\n      0x20\n      add\n      mload(0x40)\n      swap1\n      dup2\n      add\n      0x40\n      mstore\n      dup1\n      swap3\n      swap2\n      swap1\n      dup2\n      dup2\n      mstore\n      0x20\n      add\n      dup3\n      dup1\n      sload\n      tag_122\n      swap1\n      tag_36\n      jump\t// in\n    tag_122:\n      dup1\n      iszero\n      tag_123\n      jumpi\n      dup1\n      0x1f\n      lt\n      tag_124\n      jumpi\n      0x0100\n      dup1\n      dup4\n      sload\n      div\n      mul\n      dup4\n      mstore\n      swap2\n      0x20\n      add\n      swap2\n      jump(tag_123)\n    tag_124:\n      dup3\n      add\n      swap2\n      swap1\n      0x00\n      mstore\n      keccak256(0x00, 0x20)\n      swap1\n    tag_125:\n      dup2\n      sload\n      dup2\n      mstore\n      swap1\n      0x01\n      add\n      swap1\n      0x20\n      add\n      dup1\n      dup4\n      gt\n      tag_125\n      jumpi\n      dup3\n      swap1\n      sub\n      0x1f\n      and\n      dup3\n      add\n      swap2\n    tag_123:\n      pop\n      pop\n      pop\n      pop\n      pop\n      dup2\n      mstore\n      0x20\n      add\n      0x07\n      dup3\n      add\n      dup1\n      sload\n      tag_126\n      swap1\n      tag_36\n      jump\t// in\n    tag_126:\n      dup1\n      0x1f\n      add\n      0x20\n      dup1\n      swap2\n      div\n      mul\n      0x20\n      add\n      mload(0x40)\n      swap1\n      dup2\n      add\n      0x40\n      mstore\n      dup1\n      swap3\n      swap2\n      swap1\n      dup2\n      dup2\n      mstore\n      0x20\n      add\n      dup3\n      dup1\n      sload\n      tag_127\n      swap1\n      tag_36\n      jump\t// in\n    tag_127:\n      dup1\n      iszero\n      tag_128\n      jumpi\n      dup1\n      0x1f\n      lt\n      tag_129\n      jumpi\n      0x0100\n      dup1\n      dup4\n      sload\n      div\n      mul\n      dup4\n      mstore\n      swap2\n      0x20\n      add\n      swap2\n      jump(tag_128)\n    tag_129:\n      dup3\n      add\n      swap2\n      swap1\n      0x00\n      mstore\n      keccak256(0x00, 0x20)\n      swap1\n    tag_130:\n      dup2\n      sload\n      dup2\n      mstore\n      swap1\n      0x01\n      add\n      swap1\n      0x20\n      add\n      dup1\n      dup4\n      gt\n      tag_130\n      jumpi\n      dup3\n      swap1\n      sub\n      0x1f\n      and\n      dup3\n      add\n      swap2\n    tag_128:\n      pop\n      pop\n      pop\n      pop\n      pop\n      dup2\n      mstore\n      pop\n      pop\n      dup2\n      mstore\n      0x20\n      add\n      swap1\n      0x01\n      add\n      swap1\n      jump(tag_113)\n    tag_114:\n      pop\n      pop\n      pop\n      pop\n      swap1\n      pop\n      jump(tag_111)\n        /* \"crowdfunding.sol\":2253:2281  if(_status == 0) return list */\n    tag_112:\n        /* \"crowdfunding.sol\":2299:2317  filterDataByStatus */\n      0x02\n        /* \"crowdfunding.sol\":2299:2326  filterDataByStatus[_status] */\n      0x00\n        /* \"crowdfunding.sol\":2318:2325  _status */\n      dup4\n        /* \"crowdfunding.sol\":2299:2326  filterDataByStatus[_status] */\n      dup2\n      mstore\n      0x20\n      add\n      swap1\n      dup2\n      mstore\n      0x20\n      add\n      0x00\n      keccak256\n        /* \"crowdfunding.sol\":2292:2326  return filterDataByStatus[_status] */\n      dup1\n      sload\n      dup1\n      0x20\n      mul\n      0x20\n      add\n      mload(0x40)\n      swap1\n      dup2\n      add\n      0x40\n      mstore\n      dup1\n      swap3\n      swap2\n      swap1\n      dup2\n      dup2\n      mstore\n      0x20\n      add\n      0x00\n      swap1\n    tag_131:\n      dup3\n      dup3\n      lt\n      iszero\n      tag_132\n      jumpi\n      dup4\n      dup3\n      swap1\n      0x00\n      mstore\n      keccak256(0x00, 0x20)\n      swap1\n      0x08\n      mul\n      add\n      mload(0x40)\n      dup1\n      0x0100\n      add\n      0x40\n      mstore\n      swap1\n      dup2\n      0x00\n      dup3\n      add\n      sload\n      dup2\n      mstore\n      0x20\n      add\n      0x01\n      dup3\n      add\n      dup1\n      sload\n      tag_134\n      swap1\n      tag_36\n      jump\t// in\n    tag_134:\n      dup1\n      0x1f\n      add\n      0x20\n      dup1\n      swap2\n      div\n      mul\n      0x20\n      add\n      mload(0x40)\n      swap1\n      dup2\n      add\n      0x40\n      mstore\n      dup1\n      swap3\n      swap2\n      swap1\n      dup2\n      dup2\n      mstore\n      0x20\n      add\n      dup3\n      dup1\n      sload\n      tag_135\n      swap1\n      tag_36\n      jump\t// in\n    tag_135:\n      dup1\n      iszero\n      tag_136\n      jumpi\n      dup1\n      0x1f\n      lt\n      tag_137\n      jumpi\n      0x0100\n      dup1\n      dup4\n      sload\n      div\n      mul\n      dup4\n      mstore\n      swap2\n      0x20\n      add\n      swap2\n      jump(tag_136)\n    tag_137:\n      dup3\n      add\n      swap2\n      swap1\n      0x00\n      mstore\n      keccak256(0x00, 0x20)\n      swap1\n    tag_138:\n      dup2\n      sload\n      dup2\n      mstore\n      swap1\n      0x01\n      add\n      swap1\n      0x20\n      add\n      dup1\n      dup4\n      gt\n      tag_138\n      jumpi\n      dup3\n      swap1\n      sub\n      0x1f\n      and\n      dup3\n      add\n      swap2\n    tag_136:\n      pop\n      pop\n      pop\n      pop\n      pop\n      dup2\n      mstore\n      0x20\n      add\n      0x02\n      dup3\n      add\n      sload\n      dup2\n      mstore\n      0x20\n      add\n      0x03\n      dup3\n      add\n      0x00\n      swap1\n      sload\n      swap1\n      0x0100\n      exp\n      swap1\n      div\n      0xffffffffffffffffffffffffffffffffffffffff\n      and\n      0xffffffffffffffffffffffffffffffffffffffff\n      and\n      0xffffffffffffffffffffffffffffffffffffffff\n      and\n      dup2\n      mstore\n      0x20\n      add\n      0x04\n      dup3\n      add\n      0x00\n      swap1\n      sload\n      swap1\n      0x0100\n      exp\n      swap1\n      div\n      0xffffffffffffffffffffffffffffffffffffffff\n      and\n      0xffffffffffffffffffffffffffffffffffffffff\n      and\n      0xffffffffffffffffffffffffffffffffffffffff\n      and\n      dup2\n      mstore\n      0x20\n      add\n      0x05\n      dup3\n      add\n      sload\n      dup2\n      mstore\n      0x20\n      add\n      0x06\n      dup3\n      add\n      dup1\n      sload\n      tag_139\n      swap1\n      tag_36\n      jump\t// in\n    tag_139:\n      dup1\n      0x1f\n      add\n      0x20\n      dup1\n      swap2\n      div\n      mul\n      0x20\n      add\n      mload(0x40)\n      swap1\n      dup2\n      add\n      0x40\n      mstore\n      dup1\n      swap3\n      swap2\n      swap1\n      dup2\n      dup2\n      mstore\n      0x20\n      add\n      dup3\n      dup1\n      sload\n      tag_140\n      swap1\n      tag_36\n      jump\t// in\n    tag_140:\n      dup1\n      iszero\n      tag_141\n      jumpi\n      dup1\n      0x1f\n      lt\n      tag_142\n      jumpi\n      0x0100\n      dup1\n      dup4\n      sload\n      div\n      mul\n      dup4\n      mstore\n      swap2\n      0x20\n      add\n      swap2\n      jump(tag_141)\n    tag_142:\n      dup3\n      add\n      swap2\n      swap1\n      0x00\n      mstore\n      keccak256(0x00, 0x20)\n      swap1\n    tag_143:\n      dup2\n      sload\n      dup2\n      mstore\n      swap1\n      0x01\n      add\n      swap1\n      0x20\n      add\n      dup1\n      dup4\n      gt\n      tag_143\n      jumpi\n      dup3\n      swap1\n      sub\n      0x1f\n      and\n      dup3\n      add\n      swap2\n    tag_141:\n      pop\n      pop\n      pop\n      pop\n      pop\n      dup2\n      mstore\n      0x20\n      add\n      0x07\n      dup3\n      add\n      dup1\n      sload\n      tag_144\n      swap1\n      tag_36\n      jump\t// in\n    tag_144:\n      dup1\n      0x1f\n      add\n      0x20\n      dup1\n      swap2\n      div\n      mul\n      0x20\n      add\n      mload(0x40)\n      swap1\n      dup2\n      add\n      0x40\n      mstore\n      dup1\n      swap3\n      swap2\n      swap1\n      dup2\n      dup2\n      mstore\n      0x20\n      add\n      dup3\n      dup1\n      sload\n      tag_145\n      swap1\n      tag_36\n      jump\t// in\n    tag_145:\n      dup1\n      iszero\n      tag_146\n      jumpi\n      dup1\n      0x1f\n      lt\n      tag_147\n      jumpi\n      0x0100\n      dup1\n      dup4\n      sload\n      div\n      mul\n      dup4\n      mstore\n      swap2\n      0x20\n      add\n      swap2\n      jump(tag_146)\n    tag_147:\n      dup3\n      add\n      swap2\n      swap1\n      0x00\n      mstore\n      keccak256(0x00, 0x20)\n      swap1\n    tag_148:\n      dup2\n      sload\n      dup2\n      mstore\n      swap1\n      0x01\n      add\n      swap1\n      0x20\n      add\n      dup1\n      dup4\n      gt\n      tag_148\n      jumpi\n      dup3\n      swap1\n      sub\n      0x1f\n      and\n      dup3\n      add\n      swap2\n    tag_146:\n      pop\n      pop\n      pop\n      pop\n      pop\n      dup2\n      mstore\n      pop\n      pop\n      dup2\n      mstore\n      0x20\n      add\n      swap1\n      0x01\n      add\n      swap1\n      jump(tag_131)\n    tag_132:\n      pop\n      pop\n      pop\n      pop\n      swap1\n      pop\n        /* \"crowdfunding.sol\":2151:2334  function getCrowdfundingByStatus(uint _status) public view returns (Crowdfunding[] memory) {... */\n    tag_111:\n      swap2\n      swap1\n      pop\n      jump\t// out\n        /* \"crowdfunding.sol\":959:1575  function createCrowdfunding(string memory _title,address _recipient, string memory _expectAmout) public {... */\n    tag_30:\n        /* \"crowdfunding.sol\":1074:1076  No */\n      0x00\n      dup1\n        /* \"crowdfunding.sol\":1074:1078  No++ */\n      dup2\n      sload\n      dup1\n      swap3\n      swap2\n      swap1\n      tag_150\n      swap1\n      tag_78\n      jump\t// in\n    tag_150:\n      swap2\n      swap1\n      pop\n      sstore\n      pop\n        /* \"crowdfunding.sol\":1089:1110  Crowdfunding memory c */\n      0x00\n        /* \"crowdfunding.sol\":1113:1385  Crowdfunding({... */\n      mload(0x40)\n      dup1\n      0x0100\n      add\n      0x40\n      mstore\n      dup1\n        /* \"crowdfunding.sol\":1146:1148  No */\n      sload(0x00)\n        /* \"crowdfunding.sol\":1113:1385  Crowdfunding({... */\n      dup2\n      mstore\n      0x20\n      add\n        /* \"crowdfunding.sol\":1169:1175  _title */\n      dup6\n        /* \"crowdfunding.sol\":1113:1385  Crowdfunding({... */\n      dup2\n      mstore\n      0x20\n      add\n        /* \"crowdfunding.sol\":1198:1199  1 */\n      0x01\n        /* \"crowdfunding.sol\":1113:1385  Crowdfunding({... */\n      dup2\n      mstore\n      0x20\n      add\n        /* \"crowdfunding.sol\":1223:1233  msg.sender */\n      caller\n        /* \"crowdfunding.sol\":1113:1385  Crowdfunding({... */\n      0xffffffffffffffffffffffffffffffffffffffff\n      and\n      dup2\n      mstore\n      0x20\n      add\n        /* \"crowdfunding.sol\":1259:1269  _recipient */\n      dup5\n        /* \"crowdfunding.sol\":1113:1385  Crowdfunding({... */\n      0xffffffffffffffffffffffffffffffffffffffff\n      and\n      dup2\n      mstore\n      0x20\n      add\n        /* \"crowdfunding.sol\":1293:1294  0 */\n      0x00\n        /* \"crowdfunding.sol\":1113:1385  Crowdfunding({... */\n      dup2\n      mstore\n      0x20\n      add\n        /* \"crowdfunding.sol\":1329:1341  _expectAmout */\n      dup4\n        /* \"crowdfunding.sol\":1113:1385  Crowdfunding({... */\n      dup2\n      mstore\n      0x20\n      add\n      mload(0x40)\n      dup1\n      0x40\n      add\n      0x40\n      mstore\n      dup1\n      0x01\n      dup2\n      mstore\n      0x20\n      add\n      0x3000000000000000000000000000000000000000000000000000000000000000\n      dup2\n      mstore\n      pop\n      dup2\n      mstore\n      pop\n        /* \"crowdfunding.sol\":1089:1385  Crowdfunding memory c = Crowdfunding({... */\n      swap1\n      pop\n        /* \"crowdfunding.sol\":1396:1400  list */\n      0x01\n        /* \"crowdfunding.sol\":1406:1407  c */\n      dup2\n        /* \"crowdfunding.sol\":1396:1408  list.push(c) */\n      swap1\n      dup1\n      0x01\n      dup2\n      sload\n      add\n      dup1\n      dup3\n      sstore\n      dup1\n      swap2\n      pop\n      pop\n      0x01\n      swap1\n      sub\n      swap1\n      0x00\n      mstore\n      keccak256(0x00, 0x20)\n      swap1\n      0x08\n      mul\n      add\n      0x00\n      swap1\n      swap2\n      swap1\n      swap2\n      swap1\n      swap2\n      pop\n      0x00\n      dup3\n      add\n      mload\n      dup2\n      0x00\n      add\n      sstore\n      0x20\n      dup3\n      add\n      mload\n      dup2\n      0x01\n      add\n      swap1\n      dup2\n      tag_152\n      swap2\n      swap1\n      tag_153\n      jump\t// in\n    tag_152:\n      pop\n      0x40\n      dup3\n      add\n      mload\n      dup2\n      0x02\n      add\n      sstore\n      0x60\n      dup3\n      add\n      mload\n      dup2\n      0x03\n      add\n      exp(0x0100, 0x00)\n      dup2\n      sload\n      dup2\n      0xffffffffffffffffffffffffffffffffffffffff\n      mul\n      not\n      and\n      swap1\n      dup4\n      0xffffffffffffffffffffffffffffffffffffffff\n      and\n      mul\n      or\n      swap1\n      sstore\n      pop\n      0x80\n      dup3\n      add\n      mload\n      dup2\n      0x04\n      add\n      exp(0x0100, 0x00)\n      dup2\n      sload\n      dup2\n      0xffffffffffffffffffffffffffffffffffffffff\n      mul\n      not\n      and\n      swap1\n      dup4\n      0xffffffffffffffffffffffffffffffffffffffff\n      and\n      mul\n      or\n      swap1\n      sstore\n      pop\n      0xa0\n      dup3\n      add\n      mload\n      dup2\n      0x05\n      add\n      sstore\n      0xc0\n      dup3\n      add\n      mload\n      dup2\n      0x06\n      add\n      swap1\n      dup2\n      tag_154\n      swap2\n      swap1\n      tag_153\n      jump\t// in\n    tag_154:\n      pop\n      0xe0\n      dup3\n      add\n      mload\n      dup2\n      0x07\n      add\n      swap1\n      dup2\n      tag_155\n      swap2\n      swap1\n      tag_153\n      jump\t// in\n    tag_155:\n      pop\n      pop\n      pop\n        /* \"crowdfunding.sol\":1493:1511  filterDataByStatus */\n      0x02\n        /* \"crowdfunding.sol\":1493:1514  filterDataByStatus[1] */\n      0x00\n        /* \"crowdfunding.sol\":1512:1513  1 */\n      0x01\n        /* \"crowdfunding.sol\":1493:1514  filterDataByStatus[1] */\n      dup2\n      mstore\n      0x20\n      add\n      swap1\n      dup2\n      mstore\n      0x20\n      add\n      0x00\n      keccak256\n        /* \"crowdfunding.sol\":1520:1521  c */\n      dup2\n        /* \"crowdfunding.sol\":1493:1522  filterDataByStatus[1].push(c) */\n      swap1\n      dup1\n      0x01\n      dup2\n      sload\n      add\n      dup1\n      dup3\n      sstore\n      dup1\n      swap2\n      pop\n      pop\n      0x01\n      swap1\n      sub\n      swap1\n      0x00\n      mstore\n      keccak256(0x00, 0x20)\n      swap1\n      0x08\n      mul\n      add\n      0x00\n      swap1\n      swap2\n      swap1\n      swap2\n      swap1\n      swap2\n      pop\n      0x00\n      dup3\n      add\n      mload\n      dup2\n      0x00\n      add\n      sstore\n      0x20\n      dup3\n      add\n      mload\n      dup2\n      0x01\n      add\n      swap1\n      dup2\n      tag_157\n      swap2\n      swap1\n      tag_153\n      jump\t// in\n    tag_157:\n      pop\n      0x40\n      dup3\n      add\n      mload\n      dup2\n      0x02\n      add\n      sstore\n      0x60\n      dup3\n      add\n      mload\n      dup2\n      0x03\n      add\n      exp(0x0100, 0x00)\n      dup2\n      sload\n      dup2\n      0xffffffffffffffffffffffffffffffffffffffff\n      mul\n      not\n      and\n      swap1\n      dup4\n      0xffffffffffffffffffffffffffffffffffffffff\n      and\n      mul\n      or\n      swap1\n      sstore\n      pop\n      0x80\n      dup3\n      add\n      mload\n      dup2\n      0x04\n      add\n      exp(0x0100, 0x00)\n      dup2\n      sload\n      dup2\n      0xffffffffffffffffffffffffffffffffffffffff\n      mul\n      not\n      and\n      swap1\n      dup4\n      0xffffffffffffffffffffffffffffffffffffffff\n      and\n      mul\n      or\n      swap1\n      sstore\n      pop\n      0xa0\n      dup3\n      add\n      mload\n      dup2\n      0x05\n      add\n      sstore\n      0xc0\n      dup3\n      add\n      mload\n      dup2\n      0x06\n      add\n      swap1\n      dup2\n      tag_158\n      swap2\n      swap1\n      tag_153\n      jump\t// in\n    tag_158:\n      pop\n      0xe0\n      dup3\n      add\n      mload\n      dup2\n      0x07\n      add\n      swap1\n      dup2\n      tag_159\n      swap2\n      swap1\n      tag_153\n      jump\t// in\n    tag_159:\n      pop\n      pop\n      pop\n        /* \"crowdfunding.sol\":1533:1547  myCrowdfunding */\n      0x03\n        /* \"crowdfunding.sol\":1533:1559  myCrowdfunding[msg.sender] */\n      0x00\n        /* \"crowdfunding.sol\":1548:1558  msg.sender */\n      caller\n        /* \"crowdfunding.sol\":1533:1559  myCrowdfunding[msg.sender] */\n      0xffffffffffffffffffffffffffffffffffffffff\n      and\n      0xffffffffffffffffffffffffffffffffffffffff\n      and\n      dup2\n      mstore\n      0x20\n      add\n      swap1\n      dup2\n      mstore\n      0x20\n      add\n      0x00\n      keccak256\n        /* \"crowdfunding.sol\":1565:1566  c */\n      dup2\n        /* \"crowdfunding.sol\":1533:1567  myCrowdfunding[msg.sender].push(c) */\n      swap1\n      dup1\n      0x01\n      dup2\n      sload\n      add\n      dup1\n      dup3\n      sstore\n      dup1\n      swap2\n      pop\n      pop\n      0x01\n      swap1\n      sub\n      swap1\n      0x00\n      mstore\n      keccak256(0x00, 0x20)\n      swap1\n      0x08\n      mul\n      add\n      0x00\n      swap1\n      swap2\n      swap1\n      swap2\n      swap1\n      swap2\n      pop\n      0x00\n      dup3\n      add\n      mload\n      dup2\n      0x00\n      add\n      sstore\n      0x20\n      dup3\n      add\n      mload\n      dup2\n      0x01\n      add\n      swap1\n      dup2\n      tag_161\n      swap2\n      swap1\n      tag_153\n      jump\t// in\n    tag_161:\n      pop\n      0x40\n      dup3\n      add\n      mload\n      dup2\n      0x02\n      add\n      sstore\n      0x60\n      dup3\n      add\n      mload\n      dup2\n      0x03\n      add\n      exp(0x0100, 0x00)\n      dup2\n      sload\n      dup2\n      0xffffffffffffffffffffffffffffffffffffffff\n      mul\n      not\n      and\n      swap1\n      dup4\n      0xffffffffffffffffffffffffffffffffffffffff\n      and\n      mul\n      or\n      swap1\n      sstore\n      pop\n      0x80\n      dup3\n      add\n      mload\n      dup2\n      0x04\n      add\n      exp(0x0100, 0x00)\n      dup2\n      sload\n      dup2\n      0xffffffffffffffffffffffffffffffffffffffff\n      mul\n      not\n      and\n      swap1\n      dup4\n      0xffffffffffffffffffffffffffffffffffffffff\n      and\n      mul\n      or\n      swap1\n      sstore\n      pop\n      0xa0\n      dup3\n      add\n      mload\n      dup2\n      0x05\n      add\n      sstore\n      0xc0\n      dup3\n      add\n      mload\n      dup2\n      0x06\n      add\n      swap1\n      dup2\n      tag_162\n      swap2\n      swap1\n      tag_153\n      jump\t// in\n    tag_162:\n      pop\n      0xe0\n      dup3\n      add\n      mload\n      dup2\n      0x07\n      add\n      swap1\n      dup2\n      tag_163\n      swap2\n      swap1\n      tag_153\n      jump\t// in\n    tag_163:\n      pop\n      pop\n      pop\n        /* \"crowdfunding.sol\":1063:1575  {... */\n      pop\n        /* \"crowdfunding.sol\":959:1575  function createCrowdfunding(string memory _title,address _recipient, string memory _expectAmout) public {... */\n      pop\n      pop\n      pop\n      jump\t// out\n    tag_84:\n      pop\n      dup1\n      sload\n      tag_164\n      swap1\n      tag_36\n      jump\t// in\n    tag_164:\n      0x00\n      dup3\n      sstore\n      dup1\n      0x1f\n      lt\n      tag_166\n      jumpi\n      pop\n      jump(tag_165)\n    tag_166:\n      0x1f\n      add\n      0x20\n      swap1\n      div\n      swap1\n      0x00\n      mstore\n      keccak256(0x00, 0x20)\n      swap1\n      dup2\n      add\n      swap1\n      tag_167\n      swap2\n      swap1\n      tag_168\n      jump\t// in\n    tag_167:\n    tag_165:\n      pop\n      jump\t// out\n    tag_168:\n    tag_169:\n      dup1\n      dup3\n      gt\n      iszero\n      tag_170\n      jumpi\n      0x00\n      dup2\n      0x00\n      swap1\n      sstore\n      pop\n      0x01\n      add\n      jump(tag_169)\n    tag_170:\n      pop\n      swap1\n      jump\t// out\n        /* \"#utility.yul\":7:82   */\n    tag_171:\n        /* \"#utility.yul\":40:46   */\n      0x00\n        /* \"#utility.yul\":73:75   */\n      0x40\n        /* \"#utility.yul\":67:76   */\n      mload\n        /* \"#utility.yul\":57:76   */\n      swap1\n      pop\n        /* \"#utility.yul\":7:82   */\n      swap1\n      jump\t// out\n        /* \"#utility.yul\":88:205   */\n    tag_172:\n        /* \"#utility.yul\":197:198   */\n      0x00\n        /* \"#utility.yul\":194:195   */\n      dup1\n        /* \"#utility.yul\":187:199   */\n      revert\n        /* \"#utility.yul\":211:328   */\n    tag_173:\n        /* \"#utility.yul\":320:321   */\n      0x00\n        /* \"#utility.yul\":317:318   */\n      dup1\n        /* \"#utility.yul\":310:322   */\n      revert\n        /* \"#utility.yul\":334:460   */\n    tag_174:\n        /* \"#utility.yul\":371:378   */\n      0x00\n        /* \"#utility.yul\":411:453   */\n      0xffffffffffffffffffffffffffffffffffffffff\n        /* \"#utility.yul\":404:409   */\n      dup3\n        /* \"#utility.yul\":400:454   */\n      and\n        /* \"#utility.yul\":389:454   */\n      swap1\n      pop\n        /* \"#utility.yul\":334:460   */\n      swap2\n      swap1\n      pop\n      jump\t// out\n        /* \"#utility.yul\":466:562   */\n    tag_175:\n        /* \"#utility.yul\":503:510   */\n      0x00\n        /* \"#utility.yul\":532:556   */\n      tag_232\n        /* \"#utility.yul\":550:555   */\n      dup3\n        /* \"#utility.yul\":532:556   */\n      tag_174\n      jump\t// in\n    tag_232:\n        /* \"#utility.yul\":521:556   */\n      swap1\n      pop\n        /* \"#utility.yul\":466:562   */\n      swap2\n      swap1\n      pop\n      jump\t// out\n        /* \"#utility.yul\":568:690   */\n    tag_176:\n        /* \"#utility.yul\":641:665   */\n      tag_234\n        /* \"#utility.yul\":659:664   */\n      dup2\n        /* \"#utility.yul\":641:665   */\n      tag_175\n      jump\t// in\n    tag_234:\n        /* \"#utility.yul\":634:639   */\n      dup2\n        /* \"#utility.yul\":631:666   */\n      eq\n        /* \"#utility.yul\":621:684   */\n      tag_235\n      jumpi\n        /* \"#utility.yul\":680:681   */\n      0x00\n        /* \"#utility.yul\":677:678   */\n      dup1\n        /* \"#utility.yul\":670:682   */\n      revert\n        /* \"#utility.yul\":621:684   */\n    tag_235:\n        /* \"#utility.yul\":568:690   */\n      pop\n      jump\t// out\n        /* \"#utility.yul\":696:835   */\n    tag_177:\n        /* \"#utility.yul\":742:747   */\n      0x00\n        /* \"#utility.yul\":780:786   */\n      dup2\n        /* \"#utility.yul\":767:787   */\n      calldataload\n        /* \"#utility.yul\":758:787   */\n      swap1\n      pop\n        /* \"#utility.yul\":796:829   */\n      tag_237\n        /* \"#utility.yul\":823:828   */\n      dup2\n        /* \"#utility.yul\":796:829   */\n      tag_176\n      jump\t// in\n    tag_237:\n        /* \"#utility.yul\":696:835   */\n      swap3\n      swap2\n      pop\n      pop\n      jump\t// out\n        /* \"#utility.yul\":841:1170   */\n    tag_10:\n        /* \"#utility.yul\":900:906   */\n      0x00\n        /* \"#utility.yul\":949:951   */\n      0x20\n        /* \"#utility.yul\":937:946   */\n      dup3\n        /* \"#utility.yul\":928:935   */\n      dup5\n        /* \"#utility.yul\":924:947   */\n      sub\n        /* \"#utility.yul\":920:952   */\n      slt\n        /* \"#utility.yul\":917:1036   */\n      iszero\n      tag_239\n      jumpi\n        /* \"#utility.yul\":955:1034   */\n      tag_240\n      tag_172\n      jump\t// in\n    tag_240:\n        /* \"#utility.yul\":917:1036   */\n    tag_239:\n        /* \"#utility.yul\":1075:1076   */\n      0x00\n        /* \"#utility.yul\":1100:1153   */\n      tag_241\n        /* \"#utility.yul\":1145:1152   */\n      dup5\n        /* \"#utility.yul\":1136:1142   */\n      dup3\n        /* \"#utility.yul\":1125:1134   */\n      dup6\n        /* \"#utility.yul\":1121:1143   */\n      add\n        /* \"#utility.yul\":1100:1153   */\n      tag_177\n      jump\t// in\n    tag_241:\n        /* \"#utility.yul\":1090:1153   */\n      swap2\n      pop\n        /* \"#utility.yul\":1046:1163   */\n      pop\n        /* \"#utility.yul\":841:1170   */\n      swap3\n      swap2\n      pop\n      pop\n      jump\t// out\n        /* \"#utility.yul\":1176:1318   */\n    tag_178:\n        /* \"#utility.yul\":1271:1277   */\n      0x00\n        /* \"#utility.yul\":1305:1310   */\n      dup2\n        /* \"#utility.yul\":1299:1311   */\n      mload\n        /* \"#utility.yul\":1289:1311   */\n      swap1\n      pop\n        /* \"#utility.yul\":1176:1318   */\n      swap2\n      swap1\n      pop\n      jump\t// out\n        /* \"#utility.yul\":1324:1536   */\n    tag_179:\n        /* \"#utility.yul\":1451:1462   */\n      0x00\n        /* \"#utility.yul\":1485:1491   */\n      dup3\n        /* \"#utility.yul\":1480:1483   */\n      dup3\n        /* \"#utility.yul\":1473:1492   */\n      mstore\n        /* \"#utility.yul\":1525:1529   */\n      0x20\n        /* \"#utility.yul\":1520:1523   */\n      dup3\n        /* \"#utility.yul\":1516:1530   */\n      add\n        /* \"#utility.yul\":1501:1530   */\n      swap1\n      pop\n        /* \"#utility.yul\":1324:1536   */\n      swap3\n      swap2\n      pop\n      pop\n      jump\t// out\n        /* \"#utility.yul\":1542:1702   */\n    tag_180:\n        /* \"#utility.yul\":1637:1641   */\n      0x00\n        /* \"#utility.yul\":1660:1663   */\n      dup2\n        /* \"#utility.yul\":1652:1663   */\n      swap1\n      pop\n        /* \"#utility.yul\":1690:1694   */\n      0x20\n        /* \"#utility.yul\":1685:1688   */\n      dup3\n        /* \"#utility.yul\":1681:1695   */\n      add\n        /* \"#utility.yul\":1673:1695   */\n      swap1\n      pop\n        /* \"#utility.yul\":1542:1702   */\n      swap2\n      swap1\n      pop\n      jump\t// out\n        /* \"#utility.yul\":1708:1785   */\n    tag_181:\n        /* \"#utility.yul\":1745:1752   */\n      0x00\n        /* \"#utility.yul\":1774:1779   */\n      dup2\n        /* \"#utility.yul\":1763:1779   */\n      swap1\n      pop\n        /* \"#utility.yul\":1708:1785   */\n      swap2\n      swap1\n      pop\n      jump\t// out\n        /* \"#utility.yul\":1791:1899   */\n    tag_182:\n        /* \"#utility.yul\":1868:1892   */\n      tag_247\n        /* \"#utility.yul\":1886:1891   */\n      dup2\n        /* \"#utility.yul\":1868:1892   */\n      tag_181\n      jump\t// in\n    tag_247:\n        /* \"#utility.yul\":1863:1866   */\n      dup3\n        /* \"#utility.yul\":1856:1893   */\n      mstore\n        /* \"#utility.yul\":1791:1899   */\n      pop\n      pop\n      jump\t// out\n        /* \"#utility.yul\":1905:2004   */\n    tag_183:\n        /* \"#utility.yul\":1957:1963   */\n      0x00\n        /* \"#utility.yul\":1991:1996   */\n      dup2\n        /* \"#utility.yul\":1985:1997   */\n      mload\n        /* \"#utility.yul\":1975:1997   */\n      swap1\n      pop\n        /* \"#utility.yul\":1905:2004   */\n      swap2\n      swap1\n      pop\n      jump\t// out\n        /* \"#utility.yul\":2010:2169   */\n    tag_184:\n        /* \"#utility.yul\":2084:2095   */\n      0x00\n        /* \"#utility.yul\":2118:2124   */\n      dup3\n        /* \"#utility.yul\":2113:2116   */\n      dup3\n        /* \"#utility.yul\":2106:2125   */\n      mstore\n        /* \"#utility.yul\":2158:2162   */\n      0x20\n        /* \"#utility.yul\":2153:2156   */\n      dup3\n        /* \"#utility.yul\":2149:2163   */\n      add\n        /* \"#utility.yul\":2134:2163   */\n      swap1\n      pop\n        /* \"#utility.yul\":2010:2169   */\n      swap3\n      swap2\n      pop\n      pop\n      jump\t// out\n        /* \"#utility.yul\":2175:2482   */\n    tag_185:\n        /* \"#utility.yul\":2243:2244   */\n      0x00\n        /* \"#utility.yul\":2253:2366   */\n    tag_251:\n        /* \"#utility.yul\":2267:2273   */\n      dup4\n        /* \"#utility.yul\":2264:2265   */\n      dup2\n        /* \"#utility.yul\":2261:2274   */\n      lt\n        /* \"#utility.yul\":2253:2366   */\n      iszero\n      tag_253\n      jumpi\n        /* \"#utility.yul\":2352:2353   */\n      dup1\n        /* \"#utility.yul\":2347:2350   */\n      dup3\n        /* \"#utility.yul\":2343:2354   */\n      add\n        /* \"#utility.yul\":2337:2355   */\n      mload\n        /* \"#utility.yul\":2333:2334   */\n      dup2\n        /* \"#utility.yul\":2328:2331   */\n      dup5\n        /* \"#utility.yul\":2324:2335   */\n      add\n        /* \"#utility.yul\":2317:2356   */\n      mstore\n        /* \"#utility.yul\":2289:2291   */\n      0x20\n        /* \"#utility.yul\":2286:2287   */\n      dup2\n        /* \"#utility.yul\":2282:2292   */\n      add\n        /* \"#utility.yul\":2277:2292   */\n      swap1\n      pop\n        /* \"#utility.yul\":2253:2366   */\n      jump(tag_251)\n    tag_253:\n        /* \"#utility.yul\":2384:2390   */\n      dup4\n        /* \"#utility.yul\":2381:2382   */\n      dup2\n        /* \"#utility.yul\":2378:2391   */\n      gt\n        /* \"#utility.yul\":2375:2476   */\n      iszero\n      tag_254\n      jumpi\n        /* \"#utility.yul\":2464:2465   */\n      0x00\n        /* \"#utility.yul\":2455:2461   */\n      dup5\n        /* \"#utility.yul\":2450:2453   */\n      dup5\n        /* \"#utility.yul\":2446:2462   */\n      add\n        /* \"#utility.yul\":2439:2466   */\n      mstore\n        /* \"#utility.yul\":2375:2476   */\n    tag_254:\n        /* \"#utility.yul\":2224:2482   */\n      pop\n        /* \"#utility.yul\":2175:2482   */\n      pop\n      pop\n      pop\n      jump\t// out\n        /* \"#utility.yul\":2488:2590   */\n    tag_186:\n        /* \"#utility.yul\":2529:2535   */\n      0x00\n        /* \"#utility.yul\":2580:2582   */\n      0x1f\n        /* \"#utility.yul\":2576:2583   */\n      not\n        /* \"#utility.yul\":2571:2573   */\n      0x1f\n        /* \"#utility.yul\":2564:2569   */\n      dup4\n        /* \"#utility.yul\":2560:2574   */\n      add\n        /* \"#utility.yul\":2556:2584   */\n      and\n        /* \"#utility.yul\":2546:2584   */\n      swap1\n      pop\n        /* \"#utility.yul\":2488:2590   */\n      swap2\n      swap1\n      pop\n      jump\t// out\n        /* \"#utility.yul\":2596:2940   */\n    tag_187:\n        /* \"#utility.yul\":2674:2677   */\n      0x00\n        /* \"#utility.yul\":2702:2741   */\n      tag_257\n        /* \"#utility.yul\":2735:2740   */\n      dup3\n        /* \"#utility.yul\":2702:2741   */\n      tag_183\n      jump\t// in\n    tag_257:\n        /* \"#utility.yul\":2757:2818   */\n      tag_258\n        /* \"#utility.yul\":2811:2817   */\n      dup2\n        /* \"#utility.yul\":2806:2809   */\n      dup6\n        /* \"#utility.yul\":2757:2818   */\n      tag_184\n      jump\t// in\n    tag_258:\n        /* \"#utility.yul\":2750:2818   */\n      swap4\n      pop\n        /* \"#utility.yul\":2827:2879   */\n      tag_259\n        /* \"#utility.yul\":2872:2878   */\n      dup2\n        /* \"#utility.yul\":2867:2870   */\n      dup6\n        /* \"#utility.yul\":2860:2864   */\n      0x20\n        /* \"#utility.yul\":2853:2858   */\n      dup7\n        /* \"#utility.yul\":2849:2865   */\n      add\n        /* \"#utility.yul\":2827:2879   */\n      tag_185\n      jump\t// in\n    tag_259:\n        /* \"#utility.yul\":2904:2933   */\n      tag_260\n        /* \"#utility.yul\":2926:2932   */\n      dup2\n        /* \"#utility.yul\":2904:2933   */\n      tag_186\n      jump\t// in\n    tag_260:\n        /* \"#utility.yul\":2899:2902   */\n      dup5\n        /* \"#utility.yul\":2895:2934   */\n      add\n        /* \"#utility.yul\":2888:2934   */\n      swap2\n      pop\n        /* \"#utility.yul\":2678:2940   */\n      pop\n        /* \"#utility.yul\":2596:2940   */\n      swap3\n      swap2\n      pop\n      pop\n      jump\t// out\n        /* \"#utility.yul\":2946:3054   */\n    tag_188:\n        /* \"#utility.yul\":3023:3047   */\n      tag_262\n        /* \"#utility.yul\":3041:3046   */\n      dup2\n        /* \"#utility.yul\":3023:3047   */\n      tag_175\n      jump\t// in\n    tag_262:\n        /* \"#utility.yul\":3018:3021   */\n      dup3\n        /* \"#utility.yul\":3011:3048   */\n      mstore\n        /* \"#utility.yul\":2946:3054   */\n      pop\n      pop\n      jump\t// out\n        /* \"#utility.yul\":3152:4970   */\n    tag_189:\n        /* \"#utility.yul\":3267:3270   */\n      0x00\n        /* \"#utility.yul\":3303:3309   */\n      0x0100\n        /* \"#utility.yul\":3298:3301   */\n      dup4\n        /* \"#utility.yul\":3294:3310   */\n      add\n        /* \"#utility.yul\":3391:3395   */\n      0x00\n        /* \"#utility.yul\":3384:3389   */\n      dup4\n        /* \"#utility.yul\":3380:3396   */\n      add\n        /* \"#utility.yul\":3374:3397   */\n      mload\n        /* \"#utility.yul\":3410:3473   */\n      tag_264\n        /* \"#utility.yul\":3467:3471   */\n      0x00\n        /* \"#utility.yul\":3462:3465   */\n      dup7\n        /* \"#utility.yul\":3458:3472   */\n      add\n        /* \"#utility.yul\":3444:3456   */\n      dup3\n        /* \"#utility.yul\":3410:3473   */\n      tag_182\n      jump\t// in\n    tag_264:\n        /* \"#utility.yul\":3320:3483   */\n      pop\n        /* \"#utility.yul\":3566:3570   */\n      0x20\n        /* \"#utility.yul\":3559:3564   */\n      dup4\n        /* \"#utility.yul\":3555:3571   */\n      add\n        /* \"#utility.yul\":3549:3572   */\n      mload\n        /* \"#utility.yul\":3619:3622   */\n      dup5\n        /* \"#utility.yul\":3613:3617   */\n      dup3\n        /* \"#utility.yul\":3609:3623   */\n      sub\n        /* \"#utility.yul\":3602:3606   */\n      0x20\n        /* \"#utility.yul\":3597:3600   */\n      dup7\n        /* \"#utility.yul\":3593:3607   */\n      add\n        /* \"#utility.yul\":3586:3624   */\n      mstore\n        /* \"#utility.yul\":3645:3718   */\n      tag_265\n        /* \"#utility.yul\":3713:3717   */\n      dup3\n        /* \"#utility.yul\":3699:3711   */\n      dup3\n        /* \"#utility.yul\":3645:3718   */\n      tag_187\n      jump\t// in\n    tag_265:\n        /* \"#utility.yul\":3637:3718   */\n      swap2\n      pop\n        /* \"#utility.yul\":3493:3729   */\n      pop\n        /* \"#utility.yul\":3813:3817   */\n      0x40\n        /* \"#utility.yul\":3806:3811   */\n      dup4\n        /* \"#utility.yul\":3802:3818   */\n      add\n        /* \"#utility.yul\":3796:3819   */\n      mload\n        /* \"#utility.yul\":3832:3895   */\n      tag_266\n        /* \"#utility.yul\":3889:3893   */\n      0x40\n        /* \"#utility.yul\":3884:3887   */\n      dup7\n        /* \"#utility.yul\":3880:3894   */\n      add\n        /* \"#utility.yul\":3866:3878   */\n      dup3\n        /* \"#utility.yul\":3832:3895   */\n      tag_182\n      jump\t// in\n    tag_266:\n        /* \"#utility.yul\":3739:3905   */\n      pop\n        /* \"#utility.yul\":3990:3994   */\n      0x60\n        /* \"#utility.yul\":3983:3988   */\n      dup4\n        /* \"#utility.yul\":3979:3995   */\n      add\n        /* \"#utility.yul\":3973:3996   */\n      mload\n        /* \"#utility.yul\":4009:4072   */\n      tag_267\n        /* \"#utility.yul\":4066:4070   */\n      0x60\n        /* \"#utility.yul\":4061:4064   */\n      dup7\n        /* \"#utility.yul\":4057:4071   */\n      add\n        /* \"#utility.yul\":4043:4055   */\n      dup3\n        /* \"#utility.yul\":4009:4072   */\n      tag_188\n      jump\t// in\n    tag_267:\n        /* \"#utility.yul\":3915:4082   */\n      pop\n        /* \"#utility.yul\":4169:4173   */\n      0x80\n        /* \"#utility.yul\":4162:4167   */\n      dup4\n        /* \"#utility.yul\":4158:4174   */\n      add\n        /* \"#utility.yul\":4152:4175   */\n      mload\n        /* \"#utility.yul\":4188:4251   */\n      tag_268\n        /* \"#utility.yul\":4245:4249   */\n      0x80\n        /* \"#utility.yul\":4240:4243   */\n      dup7\n        /* \"#utility.yul\":4236:4250   */\n      add\n        /* \"#utility.yul\":4222:4234   */\n      dup3\n        /* \"#utility.yul\":4188:4251   */\n      tag_188\n      jump\t// in\n    tag_268:\n        /* \"#utility.yul\":4092:4261   */\n      pop\n        /* \"#utility.yul\":4346:4350   */\n      0xa0\n        /* \"#utility.yul\":4339:4344   */\n      dup4\n        /* \"#utility.yul\":4335:4351   */\n      add\n        /* \"#utility.yul\":4329:4352   */\n      mload\n        /* \"#utility.yul\":4365:4428   */\n      tag_269\n        /* \"#utility.yul\":4422:4426   */\n      0xa0\n        /* \"#utility.yul\":4417:4420   */\n      dup7\n        /* \"#utility.yul\":4413:4427   */\n      add\n        /* \"#utility.yul\":4399:4411   */\n      dup3\n        /* \"#utility.yul\":4365:4428   */\n      tag_182\n      jump\t// in\n    tag_269:\n        /* \"#utility.yul\":4271:4438   */\n      pop\n        /* \"#utility.yul\":4527:4531   */\n      0xc0\n        /* \"#utility.yul\":4520:4525   */\n      dup4\n        /* \"#utility.yul\":4516:4532   */\n      add\n        /* \"#utility.yul\":4510:4533   */\n      mload\n        /* \"#utility.yul\":4580:4583   */\n      dup5\n        /* \"#utility.yul\":4574:4578   */\n      dup3\n        /* \"#utility.yul\":4570:4584   */\n      sub\n        /* \"#utility.yul\":4563:4567   */\n      0xc0\n        /* \"#utility.yul\":4558:4561   */\n      dup7\n        /* \"#utility.yul\":4554:4568   */\n      add\n        /* \"#utility.yul\":4547:4585   */\n      mstore\n        /* \"#utility.yul\":4606:4679   */\n      tag_270\n        /* \"#utility.yul\":4674:4678   */\n      dup3\n        /* \"#utility.yul\":4660:4672   */\n      dup3\n        /* \"#utility.yul\":4606:4679   */\n      tag_187\n      jump\t// in\n    tag_270:\n        /* \"#utility.yul\":4598:4679   */\n      swap2\n      pop\n        /* \"#utility.yul\":4448:4690   */\n      pop\n        /* \"#utility.yul\":4780:4784   */\n      0xe0\n        /* \"#utility.yul\":4773:4778   */\n      dup4\n        /* \"#utility.yul\":4769:4785   */\n      add\n        /* \"#utility.yul\":4763:4786   */\n      mload\n        /* \"#utility.yul\":4833:4836   */\n      dup5\n        /* \"#utility.yul\":4827:4831   */\n      dup3\n        /* \"#utility.yul\":4823:4837   */\n      sub\n        /* \"#utility.yul\":4816:4820   */\n      0xe0\n        /* \"#utility.yul\":4811:4814   */\n      dup7\n        /* \"#utility.yul\":4807:4821   */\n      add\n        /* \"#utility.yul\":4800:4838   */\n      mstore\n        /* \"#utility.yul\":4859:4932   */\n      tag_271\n        /* \"#utility.yul\":4927:4931   */\n      dup3\n        /* \"#utility.yul\":4913:4925   */\n      dup3\n        /* \"#utility.yul\":4859:4932   */\n      tag_187\n      jump\t// in\n    tag_271:\n        /* \"#utility.yul\":4851:4932   */\n      swap2\n      pop\n        /* \"#utility.yul\":4700:4943   */\n      pop\n        /* \"#utility.yul\":4960:4964   */\n      dup1\n        /* \"#utility.yul\":4953:4964   */\n      swap2\n      pop\n        /* \"#utility.yul\":3272:4970   */\n      pop\n        /* \"#utility.yul\":3152:4970   */\n      swap3\n      swap2\n      pop\n      pop\n      jump\t// out\n        /* \"#utility.yul\":4976:5244   */\n    tag_190:\n        /* \"#utility.yul\":5101:5111   */\n      0x00\n        /* \"#utility.yul\":5136:5238   */\n      tag_273\n        /* \"#utility.yul\":5234:5237   */\n      dup4\n        /* \"#utility.yul\":5226:5232   */\n      dup4\n        /* \"#utility.yul\":5136:5238   */\n      tag_189\n      jump\t// in\n    tag_273:\n        /* \"#utility.yul\":5122:5238   */\n      swap1\n      pop\n        /* \"#utility.yul\":4976:5244   */\n      swap3\n      swap2\n      pop\n      pop\n      jump\t// out\n        /* \"#utility.yul\":5250:5391   */\n    tag_191:\n        /* \"#utility.yul\":5348:5352   */\n      0x00\n        /* \"#utility.yul\":5380:5384   */\n      0x20\n        /* \"#utility.yul\":5375:5378   */\n      dup3\n        /* \"#utility.yul\":5371:5385   */\n      add\n        /* \"#utility.yul\":5363:5385   */\n      swap1\n      pop\n        /* \"#utility.yul\":5250:5391   */\n      swap2\n      swap1\n      pop\n      jump\t// out\n        /* \"#utility.yul\":5493:6628   */\n    tag_192:\n        /* \"#utility.yul\":5668:5671   */\n      0x00\n        /* \"#utility.yul\":5697:5779   */\n      tag_276\n        /* \"#utility.yul\":5773:5778   */\n      dup3\n        /* \"#utility.yul\":5697:5779   */\n      tag_178\n      jump\t// in\n    tag_276:\n        /* \"#utility.yul\":5795:5909   */\n      tag_277\n        /* \"#utility.yul\":5902:5908   */\n      dup2\n        /* \"#utility.yul\":5897:5900   */\n      dup6\n        /* \"#utility.yul\":5795:5909   */\n      tag_179\n      jump\t// in\n    tag_277:\n        /* \"#utility.yul\":5788:5909   */\n      swap4\n      pop\n        /* \"#utility.yul\":5935:5938   */\n      dup4\n        /* \"#utility.yul\":5980:5984   */\n      0x20\n        /* \"#utility.yul\":5972:5978   */\n      dup3\n        /* \"#utility.yul\":5968:5985   */\n      mul\n        /* \"#utility.yul\":5963:5966   */\n      dup6\n        /* \"#utility.yul\":5959:5986   */\n      add\n        /* \"#utility.yul\":6010:6094   */\n      tag_278\n        /* \"#utility.yul\":6088:6093   */\n      dup6\n        /* \"#utility.yul\":6010:6094   */\n      tag_180\n      jump\t// in\n    tag_278:\n        /* \"#utility.yul\":6117:6124   */\n      dup1\n        /* \"#utility.yul\":6148:6149   */\n      0x00\n        /* \"#utility.yul\":6133:6583   */\n    tag_279:\n        /* \"#utility.yul\":6158:6164   */\n      dup6\n        /* \"#utility.yul\":6155:6156   */\n      dup2\n        /* \"#utility.yul\":6152:6165   */\n      lt\n        /* \"#utility.yul\":6133:6583   */\n      iszero\n      tag_281\n      jumpi\n        /* \"#utility.yul\":6229:6238   */\n      dup5\n        /* \"#utility.yul\":6223:6227   */\n      dup5\n        /* \"#utility.yul\":6219:6239   */\n      sub\n        /* \"#utility.yul\":6214:6217   */\n      dup10\n        /* \"#utility.yul\":6207:6240   */\n      mstore\n        /* \"#utility.yul\":6280:6286   */\n      dup2\n        /* \"#utility.yul\":6274:6287   */\n      mload\n        /* \"#utility.yul\":6308:6428   */\n      tag_282\n        /* \"#utility.yul\":6423:6427   */\n      dup6\n        /* \"#utility.yul\":6408:6421   */\n      dup3\n        /* \"#utility.yul\":6308:6428   */\n      tag_190\n      jump\t// in\n    tag_282:\n        /* \"#utility.yul\":6300:6428   */\n      swap5\n      pop\n        /* \"#utility.yul\":6451:6539   */\n      tag_283\n        /* \"#utility.yul\":6532:6538   */\n      dup4\n        /* \"#utility.yul\":6451:6539   */\n      tag_191\n      jump\t// in\n    tag_283:\n        /* \"#utility.yul\":6441:6539   */\n      swap3\n      pop\n        /* \"#utility.yul\":6568:6572   */\n      0x20\n        /* \"#utility.yul\":6563:6566   */\n      dup11\n        /* \"#utility.yul\":6559:6573   */\n      add\n        /* \"#utility.yul\":6552:6573   */\n      swap10\n      pop\n        /* \"#utility.yul\":6193:6583   */\n      pop\n        /* \"#utility.yul\":6180:6181   */\n      0x01\n        /* \"#utility.yul\":6177:6178   */\n      dup2\n        /* \"#utility.yul\":6173:6182   */\n      add\n        /* \"#utility.yul\":6168:6182   */\n      swap1\n      pop\n        /* \"#utility.yul\":6133:6583   */\n      jump(tag_279)\n    tag_281:\n        /* \"#utility.yul\":6137:6151   */\n      pop\n        /* \"#utility.yul\":6599:6603   */\n      dup3\n        /* \"#utility.yul\":6592:6603   */\n      swap8\n      pop\n        /* \"#utility.yul\":6619:6622   */\n      dup8\n        /* \"#utility.yul\":6612:6622   */\n      swap6\n      pop\n        /* \"#utility.yul\":5673:6628   */\n      pop\n      pop\n      pop\n      pop\n      pop\n        /* \"#utility.yul\":5493:6628   */\n      swap3\n      swap2\n      pop\n      pop\n      jump\t// out\n        /* \"#utility.yul\":6634:7119   */\n    tag_13:\n        /* \"#utility.yul\":6833:6837   */\n      0x00\n        /* \"#utility.yul\":6871:6873   */\n      0x20\n        /* \"#utility.yul\":6860:6869   */\n      dup3\n        /* \"#utility.yul\":6856:6874   */\n      add\n        /* \"#utility.yul\":6848:6874   */\n      swap1\n      pop\n        /* \"#utility.yul\":6920:6929   */\n      dup2\n        /* \"#utility.yul\":6914:6918   */\n      dup2\n        /* \"#utility.yul\":6910:6930   */\n      sub\n        /* \"#utility.yul\":6906:6907   */\n      0x00\n        /* \"#utility.yul\":6895:6904   */\n      dup4\n        /* \"#utility.yul\":6891:6908   */\n      add\n        /* \"#utility.yul\":6884:6931   */\n      mstore\n        /* \"#utility.yul\":6948:7112   */\n      tag_285\n        /* \"#utility.yul\":7107:7111   */\n      dup2\n        /* \"#utility.yul\":7098:7104   */\n      dup5\n        /* \"#utility.yul\":6948:7112   */\n      tag_192\n      jump\t// in\n    tag_285:\n        /* \"#utility.yul\":6940:7112   */\n      swap1\n      pop\n        /* \"#utility.yul\":6634:7119   */\n      swap3\n      swap2\n      pop\n      pop\n      jump\t// out\n        /* \"#utility.yul\":7125:7247   */\n    tag_193:\n        /* \"#utility.yul\":7198:7222   */\n      tag_287\n        /* \"#utility.yul\":7216:7221   */\n      dup2\n        /* \"#utility.yul\":7198:7222   */\n      tag_181\n      jump\t// in\n    tag_287:\n        /* \"#utility.yul\":7191:7196   */\n      dup2\n        /* \"#utility.yul\":7188:7223   */\n      eq\n        /* \"#utility.yul\":7178:7241   */\n      tag_288\n      jumpi\n        /* \"#utility.yul\":7237:7238   */\n      0x00\n        /* \"#utility.yul\":7234:7235   */\n      dup1\n        /* \"#utility.yul\":7227:7239   */\n      revert\n        /* \"#utility.yul\":7178:7241   */\n    tag_288:\n        /* \"#utility.yul\":7125:7247   */\n      pop\n      jump\t// out\n        /* \"#utility.yul\":7253:7392   */\n    tag_194:\n        /* \"#utility.yul\":7299:7304   */\n      0x00\n        /* \"#utility.yul\":7337:7343   */\n      dup2\n        /* \"#utility.yul\":7324:7344   */\n      calldataload\n        /* \"#utility.yul\":7315:7344   */\n      swap1\n      pop\n        /* \"#utility.yul\":7353:7386   */\n      tag_290\n        /* \"#utility.yul\":7380:7385   */\n      dup2\n        /* \"#utility.yul\":7353:7386   */\n      tag_193\n      jump\t// in\n    tag_290:\n        /* \"#utility.yul\":7253:7392   */\n      swap3\n      swap2\n      pop\n      pop\n      jump\t// out\n        /* \"#utility.yul\":7398:7727   */\n    tag_16:\n        /* \"#utility.yul\":7457:7463   */\n      0x00\n        /* \"#utility.yul\":7506:7508   */\n      0x20\n        /* \"#utility.yul\":7494:7503   */\n      dup3\n        /* \"#utility.yul\":7485:7492   */\n      dup5\n        /* \"#utility.yul\":7481:7504   */\n      sub\n        /* \"#utility.yul\":7477:7509   */\n      slt\n        /* \"#utility.yul\":7474:7593   */\n      iszero\n      tag_292\n      jumpi\n        /* \"#utility.yul\":7512:7591   */\n      tag_293\n      tag_172\n      jump\t// in\n    tag_293:\n        /* \"#utility.yul\":7474:7593   */\n    tag_292:\n        /* \"#utility.yul\":7632:7633   */\n      0x00\n        /* \"#utility.yul\":7657:7710   */\n      tag_294\n        /* \"#utility.yul\":7702:7709   */\n      dup5\n        /* \"#utility.yul\":7693:7699   */\n      dup3\n        /* \"#utility.yul\":7682:7691   */\n      dup6\n        /* \"#utility.yul\":7678:7700   */\n      add\n        /* \"#utility.yul\":7657:7710   */\n      tag_194\n      jump\t// in\n    tag_294:\n        /* \"#utility.yul\":7647:7710   */\n      swap2\n      pop\n        /* \"#utility.yul\":7603:7720   */\n      pop\n        /* \"#utility.yul\":7398:7727   */\n      swap3\n      swap2\n      pop\n      pop\n      jump\t// out\n        /* \"#utility.yul\":7733:7851   */\n    tag_195:\n        /* \"#utility.yul\":7820:7844   */\n      tag_296\n        /* \"#utility.yul\":7838:7843   */\n      dup2\n        /* \"#utility.yul\":7820:7844   */\n      tag_181\n      jump\t// in\n    tag_296:\n        /* \"#utility.yul\":7815:7818   */\n      dup3\n        /* \"#utility.yul\":7808:7845   */\n      mstore\n        /* \"#utility.yul\":7733:7851   */\n      pop\n      pop\n      jump\t// out\n        /* \"#utility.yul\":7857:8026   */\n    tag_196:\n        /* \"#utility.yul\":7941:7952   */\n      0x00\n        /* \"#utility.yul\":7975:7981   */\n      dup3\n        /* \"#utility.yul\":7970:7973   */\n      dup3\n        /* \"#utility.yul\":7963:7982   */\n      mstore\n        /* \"#utility.yul\":8015:8019   */\n      0x20\n        /* \"#utility.yul\":8010:8013   */\n      dup3\n        /* \"#utility.yul\":8006:8020   */\n      add\n        /* \"#utility.yul\":7991:8020   */\n      swap1\n      pop\n        /* \"#utility.yul\":7857:8026   */\n      swap3\n      swap2\n      pop\n      pop\n      jump\t// out\n        /* \"#utility.yul\":8032:8396   */\n    tag_197:\n        /* \"#utility.yul\":8120:8123   */\n      0x00\n        /* \"#utility.yul\":8148:8187   */\n      tag_299\n        /* \"#utility.yul\":8181:8186   */\n      dup3\n        /* \"#utility.yul\":8148:8187   */\n      tag_183\n      jump\t// in\n    tag_299:\n        /* \"#utility.yul\":8203:8274   */\n      tag_300\n        /* \"#utility.yul\":8267:8273   */\n      dup2\n        /* \"#utility.yul\":8262:8265   */\n      dup6\n        /* \"#utility.yul\":8203:8274   */\n      tag_196\n      jump\t// in\n    tag_300:\n        /* \"#utility.yul\":8196:8274   */\n      swap4\n      pop\n        /* \"#utility.yul\":8283:8335   */\n      tag_301\n        /* \"#utility.yul\":8328:8334   */\n      dup2\n        /* \"#utility.yul\":8323:8326   */\n      dup6\n        /* \"#utility.yul\":8316:8320   */\n      0x20\n        /* \"#utility.yul\":8309:8314   */\n      dup7\n        /* \"#utility.yul\":8305:8321   */\n      add\n        /* \"#utility.yul\":8283:8335   */\n      tag_185\n      jump\t// in\n    tag_301:\n        /* \"#utility.yul\":8360:8389   */\n      tag_302\n        /* \"#utility.yul\":8382:8388   */\n      dup2\n        /* \"#utility.yul\":8360:8389   */\n      tag_186\n      jump\t// in\n    tag_302:\n        /* \"#utility.yul\":8355:8358   */\n      dup5\n        /* \"#utility.yul\":8351:8390   */\n      add\n        /* \"#utility.yul\":8344:8390   */\n      swap2\n      pop\n        /* \"#utility.yul\":8124:8396   */\n      pop\n        /* \"#utility.yul\":8032:8396   */\n      swap3\n      swap2\n      pop\n      pop\n      jump\t// out\n        /* \"#utility.yul\":8402:8520   */\n    tag_198:\n        /* \"#utility.yul\":8489:8513   */\n      tag_304\n        /* \"#utility.yul\":8507:8512   */\n      dup2\n        /* \"#utility.yul\":8489:8513   */\n      tag_175\n      jump\t// in\n    tag_304:\n        /* \"#utility.yul\":8484:8487   */\n      dup3\n        /* \"#utility.yul\":8477:8514   */\n      mstore\n        /* \"#utility.yul\":8402:8520   */\n      pop\n      pop\n      jump\t// out\n        /* \"#utility.yul\":8526:9796   */\n    tag_22:\n        /* \"#utility.yul\":8875:8879   */\n      0x00\n        /* \"#utility.yul\":8913:8916   */\n      0x0100\n        /* \"#utility.yul\":8902:8911   */\n      dup3\n        /* \"#utility.yul\":8898:8917   */\n      add\n        /* \"#utility.yul\":8890:8917   */\n      swap1\n      pop\n        /* \"#utility.yul\":8927:8998   */\n      tag_306\n        /* \"#utility.yul\":8995:8996   */\n      0x00\n        /* \"#utility.yul\":8984:8993   */\n      dup4\n        /* \"#utility.yul\":8980:8997   */\n      add\n        /* \"#utility.yul\":8971:8977   */\n      dup12\n        /* \"#utility.yul\":8927:8998   */\n      tag_195\n      jump\t// in\n    tag_306:\n        /* \"#utility.yul\":9045:9054   */\n      dup2\n        /* \"#utility.yul\":9039:9043   */\n      dup2\n        /* \"#utility.yul\":9035:9055   */\n      sub\n        /* \"#utility.yul\":9030:9032   */\n      0x20\n        /* \"#utility.yul\":9019:9028   */\n      dup4\n        /* \"#utility.yul\":9015:9033   */\n      add\n        /* \"#utility.yul\":9008:9056   */\n      mstore\n        /* \"#utility.yul\":9073:9151   */\n      tag_307\n        /* \"#utility.yul\":9146:9150   */\n      dup2\n        /* \"#utility.yul\":9137:9143   */\n      dup11\n        /* \"#utility.yul\":9073:9151   */\n      tag_197\n      jump\t// in\n    tag_307:\n        /* \"#utility.yul\":9065:9151   */\n      swap1\n      pop\n        /* \"#utility.yul\":9161:9233   */\n      tag_308\n        /* \"#utility.yul\":9229:9231   */\n      0x40\n        /* \"#utility.yul\":9218:9227   */\n      dup4\n        /* \"#utility.yul\":9214:9232   */\n      add\n        /* \"#utility.yul\":9205:9211   */\n      dup10\n        /* \"#utility.yul\":9161:9233   */\n      tag_195\n      jump\t// in\n    tag_308:\n        /* \"#utility.yul\":9243:9315   */\n      tag_309\n        /* \"#utility.yul\":9311:9313   */\n      0x60\n        /* \"#utility.yul\":9300:9309   */\n      dup4\n        /* \"#utility.yul\":9296:9314   */\n      add\n        /* \"#utility.yul\":9287:9293   */\n      dup9\n        /* \"#utility.yul\":9243:9315   */\n      tag_198\n      jump\t// in\n    tag_309:\n        /* \"#utility.yul\":9325:9398   */\n      tag_310\n        /* \"#utility.yul\":9393:9396   */\n      0x80\n        /* \"#utility.yul\":9382:9391   */\n      dup4\n        /* \"#utility.yul\":9378:9397   */\n      add\n        /* \"#utility.yul\":9369:9375   */\n      dup8\n        /* \"#utility.yul\":9325:9398   */\n      tag_198\n      jump\t// in\n    tag_310:\n        /* \"#utility.yul\":9408:9481   */\n      tag_311\n        /* \"#utility.yul\":9476:9479   */\n      0xa0\n        /* \"#utility.yul\":9465:9474   */\n      dup4\n        /* \"#utility.yul\":9461:9480   */\n      add\n        /* \"#utility.yul\":9452:9458   */\n      dup7\n        /* \"#utility.yul\":9408:9481   */\n      tag_195\n      jump\t// in\n    tag_311:\n        /* \"#utility.yul\":9529:9538   */\n      dup2\n        /* \"#utility.yul\":9523:9527   */\n      dup2\n        /* \"#utility.yul\":9519:9539   */\n      sub\n        /* \"#utility.yul\":9513:9516   */\n      0xc0\n        /* \"#utility.yul\":9502:9511   */\n      dup4\n        /* \"#utility.yul\":9498:9517   */\n      add\n        /* \"#utility.yul\":9491:9540   */\n      mstore\n        /* \"#utility.yul\":9557:9635   */\n      tag_312\n        /* \"#utility.yul\":9630:9634   */\n      dup2\n        /* \"#utility.yul\":9621:9627   */\n      dup6\n        /* \"#utility.yul\":9557:9635   */\n      tag_197\n      jump\t// in\n    tag_312:\n        /* \"#utility.yul\":9549:9635   */\n      swap1\n      pop\n        /* \"#utility.yul\":9683:9692   */\n      dup2\n        /* \"#utility.yul\":9677:9681   */\n      dup2\n        /* \"#utility.yul\":9673:9693   */\n      sub\n        /* \"#utility.yul\":9667:9670   */\n      0xe0\n        /* \"#utility.yul\":9656:9665   */\n      dup4\n        /* \"#utility.yul\":9652:9671   */\n      add\n        /* \"#utility.yul\":9645:9694   */\n      mstore\n        /* \"#utility.yul\":9711:9789   */\n      tag_313\n        /* \"#utility.yul\":9784:9788   */\n      dup2\n        /* \"#utility.yul\":9775:9781   */\n      dup5\n        /* \"#utility.yul\":9711:9789   */\n      tag_197\n      jump\t// in\n    tag_313:\n        /* \"#utility.yul\":9703:9789   */\n      swap1\n      pop\n        /* \"#utility.yul\":8526:9796   */\n      swap10\n      swap9\n      pop\n      pop\n      pop\n      pop\n      pop\n      pop\n      pop\n      pop\n      pop\n      jump\t// out\n        /* \"#utility.yul\":9802:9919   */\n    tag_199:\n        /* \"#utility.yul\":9911:9912   */\n      0x00\n        /* \"#utility.yul\":9908:9909   */\n      dup1\n        /* \"#utility.yul\":9901:9913   */\n      revert\n        /* \"#utility.yul\":9925:10042   */\n    tag_200:\n        /* \"#utility.yul\":10034:10035   */\n      0x00\n        /* \"#utility.yul\":10031:10032   */\n      dup1\n        /* \"#utility.yul\":10024:10036   */\n      revert\n        /* \"#utility.yul\":10048:10228   */\n    tag_201:\n        /* \"#utility.yul\":10096:10173   */\n      0x4e487b7100000000000000000000000000000000000000000000000000000000\n        /* \"#utility.yul\":10093:10094   */\n      0x00\n        /* \"#utility.yul\":10086:10174   */\n      mstore\n        /* \"#utility.yul\":10193:10197   */\n      0x41\n        /* \"#utility.yul\":10190:10191   */\n      0x04\n        /* \"#utility.yul\":10183:10198   */\n      mstore\n        /* \"#utility.yul\":10217:10221   */\n      0x24\n        /* \"#utility.yul\":10214:10215   */\n      0x00\n        /* \"#utility.yul\":10207:10222   */\n      revert\n        /* \"#utility.yul\":10234:10515   */\n    tag_202:\n        /* \"#utility.yul\":10317:10344   */\n      tag_318\n        /* \"#utility.yul\":10339:10343   */\n      dup3\n        /* \"#utility.yul\":10317:10344   */\n      tag_186\n      jump\t// in\n    tag_318:\n        /* \"#utility.yul\":10309:10315   */\n      dup2\n        /* \"#utility.yul\":10305:10345   */\n      add\n        /* \"#utility.yul\":10447:10453   */\n      dup2\n        /* \"#utility.yul\":10435:10445   */\n      dup2\n        /* \"#utility.yul\":10432:10454   */\n      lt\n        /* \"#utility.yul\":10411:10429   */\n      0xffffffffffffffff\n        /* \"#utility.yul\":10399:10409   */\n      dup3\n        /* \"#utility.yul\":10396:10430   */\n      gt\n        /* \"#utility.yul\":10393:10455   */\n      or\n        /* \"#utility.yul\":10390:10478   */\n      iszero\n      tag_319\n      jumpi\n        /* \"#utility.yul\":10458:10476   */\n      tag_320\n      tag_201\n      jump\t// in\n    tag_320:\n        /* \"#utility.yul\":10390:10478   */\n    tag_319:\n        /* \"#utility.yul\":10498:10508   */\n      dup1\n        /* \"#utility.yul\":10494:10496   */\n      0x40\n        /* \"#utility.yul\":10487:10509   */\n      mstore\n        /* \"#utility.yul\":10277:10515   */\n      pop\n        /* \"#utility.yul\":10234:10515   */\n      pop\n      pop\n      jump\t// out\n        /* \"#utility.yul\":10521:10650   */\n    tag_203:\n        /* \"#utility.yul\":10555:10561   */\n      0x00\n        /* \"#utility.yul\":10582:10602   */\n      tag_322\n      tag_171\n      jump\t// in\n    tag_322:\n        /* \"#utility.yul\":10572:10602   */\n      swap1\n      pop\n        /* \"#utility.yul\":10611:10644   */\n      tag_323\n        /* \"#utility.yul\":10639:10643   */\n      dup3\n        /* \"#utility.yul\":10631:10637   */\n      dup3\n        /* \"#utility.yul\":10611:10644   */\n      tag_202\n      jump\t// in\n    tag_323:\n        /* \"#utility.yul\":10521:10650   */\n      swap2\n      swap1\n      pop\n      jump\t// out\n        /* \"#utility.yul\":10656:10964   */\n    tag_204:\n        /* \"#utility.yul\":10718:10722   */\n      0x00\n        /* \"#utility.yul\":10808:10826   */\n      0xffffffffffffffff\n        /* \"#utility.yul\":10800:10806   */\n      dup3\n        /* \"#utility.yul\":10797:10827   */\n      gt\n        /* \"#utility.yul\":10794:10850   */\n      iszero\n      tag_325\n      jumpi\n        /* \"#utility.yul\":10830:10848   */\n      tag_326\n      tag_201\n      jump\t// in\n    tag_326:\n        /* \"#utility.yul\":10794:10850   */\n    tag_325:\n        /* \"#utility.yul\":10868:10897   */\n      tag_327\n        /* \"#utility.yul\":10890:10896   */\n      dup3\n        /* \"#utility.yul\":10868:10897   */\n      tag_186\n      jump\t// in\n    tag_327:\n        /* \"#utility.yul\":10860:10897   */\n      swap1\n      pop\n        /* \"#utility.yul\":10952:10956   */\n      0x20\n        /* \"#utility.yul\":10946:10950   */\n      dup2\n        /* \"#utility.yul\":10942:10957   */\n      add\n        /* \"#utility.yul\":10934:10957   */\n      swap1\n      pop\n        /* \"#utility.yul\":10656:10964   */\n      swap2\n      swap1\n      pop\n      jump\t// out\n        /* \"#utility.yul\":10970:11124   */\n    tag_205:\n        /* \"#utility.yul\":11054:11060   */\n      dup3\n        /* \"#utility.yul\":11049:11052   */\n      dup2\n        /* \"#utility.yul\":11044:11047   */\n      dup4\n        /* \"#utility.yul\":11031:11061   */\n      calldatacopy\n        /* \"#utility.yul\":11116:11117   */\n      0x00\n        /* \"#utility.yul\":11107:11113   */\n      dup4\n        /* \"#utility.yul\":11102:11105   */\n      dup4\n        /* \"#utility.yul\":11098:11114   */\n      add\n        /* \"#utility.yul\":11091:11118   */\n      mstore\n        /* \"#utility.yul\":10970:11124   */\n      pop\n      pop\n      pop\n      jump\t// out\n        /* \"#utility.yul\":11130:11542   */\n    tag_206:\n        /* \"#utility.yul\":11208:11213   */\n      0x00\n        /* \"#utility.yul\":11233:11299   */\n      tag_330\n        /* \"#utility.yul\":11249:11298   */\n      tag_331\n        /* \"#utility.yul\":11291:11297   */\n      dup5\n        /* \"#utility.yul\":11249:11298   */\n      tag_204\n      jump\t// in\n    tag_331:\n        /* \"#utility.yul\":11233:11299   */\n      tag_203\n      jump\t// in\n    tag_330:\n        /* \"#utility.yul\":11224:11299   */\n      swap1\n      pop\n        /* \"#utility.yul\":11322:11328   */\n      dup3\n        /* \"#utility.yul\":11315:11320   */\n      dup2\n        /* \"#utility.yul\":11308:11329   */\n      mstore\n        /* \"#utility.yul\":11360:11364   */\n      0x20\n        /* \"#utility.yul\":11353:11358   */\n      dup2\n        /* \"#utility.yul\":11349:11365   */\n      add\n        /* \"#utility.yul\":11398:11401   */\n      dup5\n        /* \"#utility.yul\":11389:11395   */\n      dup5\n        /* \"#utility.yul\":11384:11387   */\n      dup5\n        /* \"#utility.yul\":11380:11396   */\n      add\n        /* \"#utility.yul\":11377:11402   */\n      gt\n        /* \"#utility.yul\":11374:11486   */\n      iszero\n      tag_332\n      jumpi\n        /* \"#utility.yul\":11405:11484   */\n      tag_333\n      tag_200\n      jump\t// in\n    tag_333:\n        /* \"#utility.yul\":11374:11486   */\n    tag_332:\n        /* \"#utility.yul\":11495:11536   */\n      tag_334\n        /* \"#utility.yul\":11529:11535   */\n      dup5\n        /* \"#utility.yul\":11524:11527   */\n      dup3\n        /* \"#utility.yul\":11519:11522   */\n      dup6\n        /* \"#utility.yul\":11495:11536   */\n      tag_205\n      jump\t// in\n    tag_334:\n        /* \"#utility.yul\":11214:11542   */\n      pop\n        /* \"#utility.yul\":11130:11542   */\n      swap4\n      swap3\n      pop\n      pop\n      pop\n      jump\t// out\n        /* \"#utility.yul\":11562:11902   */\n    tag_207:\n        /* \"#utility.yul\":11618:11623   */\n      0x00\n        /* \"#utility.yul\":11667:11670   */\n      dup3\n        /* \"#utility.yul\":11660:11664   */\n      0x1f\n        /* \"#utility.yul\":11652:11658   */\n      dup4\n        /* \"#utility.yul\":11648:11665   */\n      add\n        /* \"#utility.yul\":11644:11671   */\n      slt\n        /* \"#utility.yul\":11634:11756   */\n      tag_336\n      jumpi\n        /* \"#utility.yul\":11675:11754   */\n      tag_337\n      tag_199\n      jump\t// in\n    tag_337:\n        /* \"#utility.yul\":11634:11756   */\n    tag_336:\n        /* \"#utility.yul\":11792:11798   */\n      dup2\n        /* \"#utility.yul\":11779:11799   */\n      calldataload\n        /* \"#utility.yul\":11817:11896   */\n      tag_338\n        /* \"#utility.yul\":11892:11895   */\n      dup5\n        /* \"#utility.yul\":11884:11890   */\n      dup3\n        /* \"#utility.yul\":11877:11881   */\n      0x20\n        /* \"#utility.yul\":11869:11875   */\n      dup7\n        /* \"#utility.yul\":11865:11882   */\n      add\n        /* \"#utility.yul\":11817:11896   */\n      tag_206\n      jump\t// in\n    tag_338:\n        /* \"#utility.yul\":11808:11896   */\n      swap2\n      pop\n        /* \"#utility.yul\":11624:11902   */\n      pop\n        /* \"#utility.yul\":11562:11902   */\n      swap3\n      swap2\n      pop\n      pop\n      jump\t// out\n        /* \"#utility.yul\":11908:12887   */\n    tag_29:\n        /* \"#utility.yul\":12005:12011   */\n      0x00\n        /* \"#utility.yul\":12013:12019   */\n      dup1\n        /* \"#utility.yul\":12021:12027   */\n      0x00\n        /* \"#utility.yul\":12070:12072   */\n      0x60\n        /* \"#utility.yul\":12058:12067   */\n      dup5\n        /* \"#utility.yul\":12049:12056   */\n      dup7\n        /* \"#utility.yul\":12045:12068   */\n      sub\n        /* \"#utility.yul\":12041:12073   */\n      slt\n        /* \"#utility.yul\":12038:12157   */\n      iszero\n      tag_340\n      jumpi\n        /* \"#utility.yul\":12076:12155   */\n      tag_341\n      tag_172\n      jump\t// in\n    tag_341:\n        /* \"#utility.yul\":12038:12157   */\n    tag_340:\n        /* \"#utility.yul\":12224:12225   */\n      0x00\n        /* \"#utility.yul\":12213:12222   */\n      dup5\n        /* \"#utility.yul\":12209:12226   */\n      add\n        /* \"#utility.yul\":12196:12227   */\n      calldataload\n        /* \"#utility.yul\":12254:12272   */\n      0xffffffffffffffff\n        /* \"#utility.yul\":12246:12252   */\n      dup2\n        /* \"#utility.yul\":12243:12273   */\n      gt\n        /* \"#utility.yul\":12240:12357   */\n      iszero\n      tag_342\n      jumpi\n        /* \"#utility.yul\":12276:12355   */\n      tag_343\n      tag_173\n      jump\t// in\n    tag_343:\n        /* \"#utility.yul\":12240:12357   */\n    tag_342:\n        /* \"#utility.yul\":12381:12444   */\n      tag_344\n        /* \"#utility.yul\":12436:12443   */\n      dup7\n        /* \"#utility.yul\":12427:12433   */\n      dup3\n        /* \"#utility.yul\":12416:12425   */\n      dup8\n        /* \"#utility.yul\":12412:12434   */\n      add\n        /* \"#utility.yul\":12381:12444   */\n      tag_207\n      jump\t// in\n    tag_344:\n        /* \"#utility.yul\":12371:12444   */\n      swap4\n      pop\n        /* \"#utility.yul\":12167:12454   */\n      pop\n        /* \"#utility.yul\":12493:12495   */\n      0x20\n        /* \"#utility.yul\":12519:12572   */\n      tag_345\n        /* \"#utility.yul\":12564:12571   */\n      dup7\n        /* \"#utility.yul\":12555:12561   */\n      dup3\n        /* \"#utility.yul\":12544:12553   */\n      dup8\n        /* \"#utility.yul\":12540:12562   */\n      add\n        /* \"#utility.yul\":12519:12572   */\n      tag_177\n      jump\t// in\n    tag_345:\n        /* \"#utility.yul\":12509:12572   */\n      swap3\n      pop\n        /* \"#utility.yul\":12464:12582   */\n      pop\n        /* \"#utility.yul\":12649:12651   */\n      0x40\n        /* \"#utility.yul\":12638:12647   */\n      dup5\n        /* \"#utility.yul\":12634:12652   */\n      add\n        /* \"#utility.yul\":12621:12653   */\n      calldataload\n        /* \"#utility.yul\":12680:12698   */\n      0xffffffffffffffff\n        /* \"#utility.yul\":12672:12678   */\n      dup2\n        /* \"#utility.yul\":12669:12699   */\n      gt\n        /* \"#utility.yul\":12666:12783   */\n      iszero\n      tag_346\n      jumpi\n        /* \"#utility.yul\":12702:12781   */\n      tag_347\n      tag_173\n      jump\t// in\n    tag_347:\n        /* \"#utility.yul\":12666:12783   */\n    tag_346:\n        /* \"#utility.yul\":12807:12870   */\n      tag_348\n        /* \"#utility.yul\":12862:12869   */\n      dup7\n        /* \"#utility.yul\":12853:12859   */\n      dup3\n        /* \"#utility.yul\":12842:12851   */\n      dup8\n        /* \"#utility.yul\":12838:12860   */\n      add\n        /* \"#utility.yul\":12807:12870   */\n      tag_207\n      jump\t// in\n    tag_348:\n        /* \"#utility.yul\":12797:12870   */\n      swap2\n      pop\n        /* \"#utility.yul\":12592:12880   */\n      pop\n        /* \"#utility.yul\":11908:12887   */\n      swap3\n      pop\n      swap3\n      pop\n      swap3\n      jump\t// out\n        /* \"#utility.yul\":12893:13073   */\n    tag_208:\n        /* \"#utility.yul\":12941:13018   */\n      0x4e487b7100000000000000000000000000000000000000000000000000000000\n        /* \"#utility.yul\":12938:12939   */\n      0x00\n        /* \"#utility.yul\":12931:13019   */\n      mstore\n        /* \"#utility.yul\":13038:13042   */\n      0x22\n        /* \"#utility.yul\":13035:13036   */\n      0x04\n        /* \"#utility.yul\":13028:13043   */\n      mstore\n        /* \"#utility.yul\":13062:13066   */\n      0x24\n        /* \"#utility.yul\":13059:13060   */\n      0x00\n        /* \"#utility.yul\":13052:13067   */\n      revert\n        /* \"#utility.yul\":13079:13399   */\n    tag_36:\n        /* \"#utility.yul\":13123:13129   */\n      0x00\n        /* \"#utility.yul\":13160:13161   */\n      0x02\n        /* \"#utility.yul\":13154:13158   */\n      dup3\n        /* \"#utility.yul\":13150:13162   */\n      div\n        /* \"#utility.yul\":13140:13162   */\n      swap1\n      pop\n        /* \"#utility.yul\":13207:13208   */\n      0x01\n        /* \"#utility.yul\":13201:13205   */\n      dup3\n        /* \"#utility.yul\":13197:13209   */\n      and\n        /* \"#utility.yul\":13228:13246   */\n      dup1\n        /* \"#utility.yul\":13218:13299   */\n      tag_351\n      jumpi\n        /* \"#utility.yul\":13284:13288   */\n      0x7f\n        /* \"#utility.yul\":13276:13282   */\n      dup3\n        /* \"#utility.yul\":13272:13289   */\n      and\n        /* \"#utility.yul\":13262:13289   */\n      swap2\n      pop\n        /* \"#utility.yul\":13218:13299   */\n    tag_351:\n        /* \"#utility.yul\":13346:13348   */\n      0x20\n        /* \"#utility.yul\":13338:13344   */\n      dup3\n        /* \"#utility.yul\":13335:13349   */\n      lt\n        /* \"#utility.yul\":13315:13333   */\n      dup2\n        /* \"#utility.yul\":13312:13350   */\n      sub\n        /* \"#utility.yul\":13309:13393   */\n      tag_352\n      jumpi\n        /* \"#utility.yul\":13365:13383   */\n      tag_353\n      tag_208\n      jump\t// in\n    tag_353:\n        /* \"#utility.yul\":13309:13393   */\n    tag_352:\n        /* \"#utility.yul\":13130:13399   */\n      pop\n        /* \"#utility.yul\":13079:13399   */\n      swap2\n      swap1\n      pop\n      jump\t// out\n        /* \"#utility.yul\":13405:13585   */\n    tag_54:\n        /* \"#utility.yul\":13453:13530   */\n      0x4e487b7100000000000000000000000000000000000000000000000000000000\n        /* \"#utility.yul\":13450:13451   */\n      0x00\n        /* \"#utility.yul\":13443:13531   */\n      mstore\n        /* \"#utility.yul\":13550:13554   */\n      0x32\n        /* \"#utility.yul\":13547:13548   */\n      0x04\n        /* \"#utility.yul\":13540:13555   */\n      mstore\n        /* \"#utility.yul\":13574:13578   */\n      0x24\n        /* \"#utility.yul\":13571:13572   */\n      0x00\n        /* \"#utility.yul\":13564:13579   */\n      revert\n        /* \"#utility.yul\":13591:13771   */\n    tag_209:\n        /* \"#utility.yul\":13639:13716   */\n      0x4e487b7100000000000000000000000000000000000000000000000000000000\n        /* \"#utility.yul\":13636:13637   */\n      0x00\n        /* \"#utility.yul\":13629:13717   */\n      mstore\n        /* \"#utility.yul\":13736:13740   */\n      0x11\n        /* \"#utility.yul\":13733:13734   */\n      0x04\n        /* \"#utility.yul\":13726:13741   */\n      mstore\n        /* \"#utility.yul\":13760:13764   */\n      0x24\n        /* \"#utility.yul\":13757:13758   */\n      0x00\n        /* \"#utility.yul\":13750:13765   */\n      revert\n        /* \"#utility.yul\":13777:13968   */\n    tag_60:\n        /* \"#utility.yul\":13817:13821   */\n      0x00\n        /* \"#utility.yul\":13837:13857   */\n      tag_357\n        /* \"#utility.yul\":13855:13856   */\n      dup3\n        /* \"#utility.yul\":13837:13857   */\n      tag_181\n      jump\t// in\n    tag_357:\n        /* \"#utility.yul\":13832:13857   */\n      swap2\n      pop\n        /* \"#utility.yul\":13871:13891   */\n      tag_358\n        /* \"#utility.yul\":13889:13890   */\n      dup4\n        /* \"#utility.yul\":13871:13891   */\n      tag_181\n      jump\t// in\n    tag_358:\n        /* \"#utility.yul\":13866:13891   */\n      swap3\n      pop\n        /* \"#utility.yul\":13910:13911   */\n      dup3\n        /* \"#utility.yul\":13907:13908   */\n      dup3\n        /* \"#utility.yul\":13904:13912   */\n      lt\n        /* \"#utility.yul\":13901:13935   */\n      iszero\n      tag_359\n      jumpi\n        /* \"#utility.yul\":13915:13933   */\n      tag_360\n      tag_209\n      jump\t// in\n    tag_360:\n        /* \"#utility.yul\":13901:13935   */\n    tag_359:\n        /* \"#utility.yul\":13960:13961   */\n      dup3\n        /* \"#utility.yul\":13957:13958   */\n      dup3\n        /* \"#utility.yul\":13953:13962   */\n      sub\n        /* \"#utility.yul\":13945:13962   */\n      swap1\n      pop\n        /* \"#utility.yul\":13777:13968   */\n      swap3\n      swap2\n      pop\n      pop\n      jump\t// out\n        /* \"#utility.yul\":13974:14279   */\n    tag_66:\n        /* \"#utility.yul\":14014:14017   */\n      0x00\n        /* \"#utility.yul\":14033:14053   */\n      tag_362\n        /* \"#utility.yul\":14051:14052   */\n      dup3\n        /* \"#utility.yul\":14033:14053   */\n      tag_181\n      jump\t// in\n    tag_362:\n        /* \"#utility.yul\":14028:14053   */\n      swap2\n      pop\n        /* \"#utility.yul\":14067:14087   */\n      tag_363\n        /* \"#utility.yul\":14085:14086   */\n      dup4\n        /* \"#utility.yul\":14067:14087   */\n      tag_181\n      jump\t// in\n    tag_363:\n        /* \"#utility.yul\":14062:14087   */\n      swap3\n      pop\n        /* \"#utility.yul\":14221:14222   */\n      dup3\n        /* \"#utility.yul\":14153:14219   */\n      0xffffffffffffffffffffffffffffffffffffffffffffffffffffffffffffffff\n        /* \"#utility.yul\":14149:14223   */\n      sub\n        /* \"#utility.yul\":14146:14147   */\n      dup3\n        /* \"#utility.yul\":14143:14224   */\n      gt\n        /* \"#utility.yul\":14140:14247   */\n      iszero\n      tag_364\n      jumpi\n        /* \"#utility.yul\":14227:14245   */\n      tag_365\n      tag_209\n      jump\t// in\n    tag_365:\n        /* \"#utility.yul\":14140:14247   */\n    tag_364:\n        /* \"#utility.yul\":14271:14272   */\n      dup3\n        /* \"#utility.yul\":14268:14269   */\n      dup3\n        /* \"#utility.yul\":14264:14273   */\n      add\n        /* \"#utility.yul\":14257:14273   */\n      swap1\n      pop\n        /* \"#utility.yul\":13974:14279   */\n      swap3\n      swap2\n      pop\n      pop\n      jump\t// out\n        /* \"#utility.yul\":14285:14434   */\n    tag_210:\n        /* \"#utility.yul\":14334:14340   */\n      0x00\n        /* \"#utility.yul\":14368:14373   */\n      dup2\n        /* \"#utility.yul\":14362:14374   */\n      sload\n        /* \"#utility.yul\":14352:14374   */\n      swap1\n      pop\n        /* \"#utility.yul\":14394:14427   */\n      tag_367\n        /* \"#utility.yul\":14420:14426   */\n      dup2\n        /* \"#utility.yul\":14394:14427   */\n      tag_36\n      jump\t// in\n    tag_367:\n        /* \"#utility.yul\":14384:14427   */\n      swap1\n      pop\n        /* \"#utility.yul\":14285:14434   */\n      swap2\n      swap1\n      pop\n      jump\t// out\n        /* \"#utility.yul\":14440:14581   */\n    tag_211:\n        /* \"#utility.yul\":14489:14493   */\n      0x00\n        /* \"#utility.yul\":14512:14515   */\n      dup2\n        /* \"#utility.yul\":14504:14515   */\n      swap1\n      pop\n        /* \"#utility.yul\":14535:14538   */\n      dup2\n        /* \"#utility.yul\":14532:14533   */\n      0x00\n        /* \"#utility.yul\":14525:14539   */\n      mstore\n        /* \"#utility.yul\":14569:14573   */\n      0x20\n        /* \"#utility.yul\":14566:14567   */\n      0x00\n        /* \"#utility.yul\":14556:14574   */\n      keccak256\n        /* \"#utility.yul\":14548:14574   */\n      swap1\n      pop\n        /* \"#utility.yul\":14440:14581   */\n      swap2\n      swap1\n      pop\n      jump\t// out\n        /* \"#utility.yul\":14587:14680   */\n    tag_212:\n        /* \"#utility.yul\":14624:14630   */\n      0x00\n        /* \"#utility.yul\":14671:14673   */\n      0x20\n        /* \"#utility.yul\":14666:14668   */\n      0x1f\n        /* \"#utility.yul\":14659:14664   */\n      dup4\n        /* \"#utility.yul\":14655:14669   */\n      add\n        /* \"#utility.yul\":14651:14674   */\n      div\n        /* \"#utility.yul\":14641:14674   */\n      swap1\n      pop\n        /* \"#utility.yul\":14587:14680   */\n      swap2\n      swap1\n      pop\n      jump\t// out\n        /* \"#utility.yul\":14686:14793   */\n    tag_213:\n        /* \"#utility.yul\":14730:14738   */\n      0x00\n        /* \"#utility.yul\":14780:14785   */\n      dup3\n        /* \"#utility.yul\":14774:14778   */\n      dup3\n        /* \"#utility.yul\":14770:14786   */\n      shl\n        /* \"#utility.yul\":14749:14786   */\n      swap1\n      pop\n        /* \"#utility.yul\":14686:14793   */\n      swap3\n      swap2\n      pop\n      pop\n      jump\t// out\n        /* \"#utility.yul\":14799:15192   */\n    tag_214:\n        /* \"#utility.yul\":14868:14874   */\n      0x00\n        /* \"#utility.yul\":14918:14919   */\n      0x08\n        /* \"#utility.yul\":14906:14916   */\n      dup4\n        /* \"#utility.yul\":14902:14920   */\n      mul\n        /* \"#utility.yul\":14941:15038   */\n      tag_372\n        /* \"#utility.yul\":14971:15037   */\n      0xffffffffffffffffffffffffffffffffffffffffffffffffffffffffffffffff\n        /* \"#utility.yul\":14960:14969   */\n      dup3\n        /* \"#utility.yul\":14941:15038   */\n      tag_213\n      jump\t// in\n    tag_372:\n        /* \"#utility.yul\":15059:15098   */\n      tag_373\n        /* \"#utility.yul\":15089:15097   */\n      dup7\n        /* \"#utility.yul\":15078:15087   */\n      dup4\n        /* \"#utility.yul\":15059:15098   */\n      tag_213\n      jump\t// in\n    tag_373:\n        /* \"#utility.yul\":15047:15098   */\n      swap6\n      pop\n        /* \"#utility.yul\":15131:15135   */\n      dup1\n        /* \"#utility.yul\":15127:15136   */\n      not\n        /* \"#utility.yul\":15120:15125   */\n      dup5\n        /* \"#utility.yul\":15116:15137   */\n      and\n        /* \"#utility.yul\":15107:15137   */\n      swap4\n      pop\n        /* \"#utility.yul\":15180:15184   */\n      dup1\n        /* \"#utility.yul\":15170:15178   */\n      dup7\n        /* \"#utility.yul\":15166:15185   */\n      and\n        /* \"#utility.yul\":15159:15164   */\n      dup5\n        /* \"#utility.yul\":15156:15186   */\n      or\n        /* \"#utility.yul\":15146:15186   */\n      swap3\n      pop\n        /* \"#utility.yul\":14875:15192   */\n      pop\n      pop\n        /* \"#utility.yul\":14799:15192   */\n      swap4\n      swap3\n      pop\n      pop\n      pop\n      jump\t// out\n        /* \"#utility.yul\":15198:15258   */\n    tag_215:\n        /* \"#utility.yul\":15226:15229   */\n      0x00\n        /* \"#utility.yul\":15247:15252   */\n      dup2\n        /* \"#utility.yul\":15240:15252   */\n      swap1\n      pop\n        /* \"#utility.yul\":15198:15258   */\n      swap2\n      swap1\n      pop\n      jump\t// out\n        /* \"#utility.yul\":15264:15406   */\n    tag_216:\n        /* \"#utility.yul\":15314:15323   */\n      0x00\n        /* \"#utility.yul\":15347:15400   */\n      tag_376\n        /* \"#utility.yul\":15365:15399   */\n      tag_377\n        /* \"#utility.yul\":15374:15398   */\n      tag_378\n        /* \"#utility.yul\":15392:15397   */\n      dup5\n        /* \"#utility.yul\":15374:15398   */\n      tag_181\n      jump\t// in\n    tag_378:\n        /* \"#utility.yul\":15365:15399   */\n      tag_215\n      jump\t// in\n    tag_377:\n        /* \"#utility.yul\":15347:15400   */\n      tag_181\n      jump\t// in\n    tag_376:\n        /* \"#utility.yul\":15334:15400   */\n      swap1\n      pop\n        /* \"#utility.yul\":15264:15406   */\n      swap2\n      swap1\n      pop\n      jump\t// out\n        /* \"#utility.yul\":15412:15487   */\n    tag_217:\n        /* \"#utility.yul\":15455:15458   */\n      0x00\n        /* \"#utility.yul\":15476:15481   */\n      dup2\n        /* \"#utility.yul\":15469:15481   */\n      swap1\n      pop\n        /* \"#utility.yul\":15412:15487   */\n      swap2\n      swap1\n      pop\n      jump\t// out\n        /* \"#utility.yul\":15493:15762   */\n    tag_218:\n        /* \"#utility.yul\":15603:15642   */\n      tag_381\n        /* \"#utility.yul\":15634:15641   */\n      dup4\n        /* \"#utility.yul\":15603:15642   */\n      tag_216\n      jump\t// in\n    tag_381:\n        /* \"#utility.yul\":15664:15755   */\n      tag_382\n        /* \"#utility.yul\":15713:15754   */\n      tag_383\n        /* \"#utility.yul\":15737:15753   */\n      dup3\n        /* \"#utility.yul\":15713:15754   */\n      tag_217\n      jump\t// in\n    tag_383:\n        /* \"#utility.yul\":15705:15711   */\n      dup5\n        /* \"#utility.yul\":15698:15702   */\n      dup5\n        /* \"#utility.yul\":15692:15703   */\n      sload\n        /* \"#utility.yul\":15664:15755   */\n      tag_214\n      jump\t// in\n    tag_382:\n        /* \"#utility.yul\":15658:15662   */\n      dup3\n        /* \"#utility.yul\":15651:15756   */\n      sstore\n        /* \"#utility.yul\":15569:15762   */\n      pop\n        /* \"#utility.yul\":15493:15762   */\n      pop\n      pop\n      pop\n      jump\t// out\n        /* \"#utility.yul\":15768:15841   */\n    tag_219:\n        /* \"#utility.yul\":15813:15816   */\n      0x00\n        /* \"#utility.yul\":15768:15841   */\n      swap1\n      jump\t// out\n        /* \"#utility.yul\":15847:16036   */\n    tag_220:\n        /* \"#utility.yul\":15924:15956   */\n      tag_386\n      tag_219\n      jump\t// in\n    tag_386:\n        /* \"#utility.yul\":15965:16030   */\n      tag_387\n        /* \"#utility.yul\":16023:16029   */\n      dup2\n        /* \"#utility.yul\":16015:16021   */\n      dup5\n        /* \"#utility.yul\":16009:16013   */\n      dup5\n        /* \"#utility.yul\":15965:16030   */\n      tag_218\n      jump\t// in\n    tag_387:\n        /* \"#utility.yul\":15900:16036   */\n      pop\n        /* \"#utility.yul\":15847:16036   */\n      pop\n      pop\n      jump\t// out\n        /* \"#utility.yul\":16042:16228   */\n    tag_221:\n        /* \"#utility.yul\":16102:16222   */\n    tag_389:\n        /* \"#utility.yul\":16119:16122   */\n      dup2\n        /* \"#utility.yul\":16112:16117   */\n      dup2\n        /* \"#utility.yul\":16109:16123   */\n      lt\n        /* \"#utility.yul\":16102:16222   */\n      iszero\n      tag_391\n      jumpi\n        /* \"#utility.yul\":16173:16212   */\n      tag_392\n        /* \"#utility.yul\":16210:16211   */\n      0x00\n        /* \"#utility.yul\":16203:16208   */\n      dup3\n        /* \"#utility.yul\":16173:16212   */\n      tag_220\n      jump\t// in\n    tag_392:\n        /* \"#utility.yul\":16146:16147   */\n      0x01\n        /* \"#utility.yul\":16139:16144   */\n      dup2\n        /* \"#utility.yul\":16135:16148   */\n      add\n        /* \"#utility.yul\":16126:16148   */\n      swap1\n      pop\n        /* \"#utility.yul\":16102:16222   */\n      jump(tag_389)\n    tag_391:\n        /* \"#utility.yul\":16042:16228   */\n      pop\n      pop\n      jump\t// out\n        /* \"#utility.yul\":16234:16777   */\n    tag_222:\n        /* \"#utility.yul\":16335:16337   */\n      0x1f\n        /* \"#utility.yul\":16330:16333   */\n      dup3\n        /* \"#utility.yul\":16327:16338   */\n      gt\n        /* \"#utility.yul\":16324:16770   */\n      iszero\n      tag_394\n      jumpi\n        /* \"#utility.yul\":16369:16407   */\n      tag_395\n        /* \"#utility.yul\":16401:16406   */\n      dup2\n        /* \"#utility.yul\":16369:16407   */\n      tag_211\n      jump\t// in\n    tag_395:\n        /* \"#utility.yul\":16453:16482   */\n      tag_396\n        /* \"#utility.yul\":16471:16481   */\n      dup5\n        /* \"#utility.yul\":16453:16482   */\n      tag_212\n      jump\t// in\n    tag_396:\n        /* \"#utility.yul\":16443:16451   */\n      dup2\n        /* \"#utility.yul\":16439:16483   */\n      add\n        /* \"#utility.yul\":16636:16638   */\n      0x20\n        /* \"#utility.yul\":16624:16634   */\n      dup6\n        /* \"#utility.yul\":16621:16639   */\n      lt\n        /* \"#utility.yul\":16618:16667   */\n      iszero\n      tag_397\n      jumpi\n        /* \"#utility.yul\":16657:16665   */\n      dup2\n        /* \"#utility.yul\":16642:16665   */\n      swap1\n      pop\n        /* \"#utility.yul\":16618:16667   */\n    tag_397:\n        /* \"#utility.yul\":16680:16760   */\n      tag_398\n        /* \"#utility.yul\":16736:16758   */\n      tag_399\n        /* \"#utility.yul\":16754:16757   */\n      dup6\n        /* \"#utility.yul\":16736:16758   */\n      tag_212\n      jump\t// in\n    tag_399:\n        /* \"#utility.yul\":16726:16734   */\n      dup4\n        /* \"#utility.yul\":16722:16759   */\n      add\n        /* \"#utility.yul\":16709:16720   */\n      dup3\n        /* \"#utility.yul\":16680:16760   */\n      tag_221\n      jump\t// in\n    tag_398:\n        /* \"#utility.yul\":16339:16770   */\n      pop\n      pop\n        /* \"#utility.yul\":16324:16770   */\n    tag_394:\n        /* \"#utility.yul\":16234:16777   */\n      pop\n      pop\n      pop\n      jump\t// out\n        /* \"#utility.yul\":16783:16900   */\n    tag_223:\n        /* \"#utility.yul\":16837:16845   */\n      0x00\n        /* \"#utility.yul\":16887:16892   */\n      dup3\n        /* \"#utility.yul\":16881:16885   */\n      dup3\n        /* \"#utility.yul\":16877:16893   */\n      shr\n        /* \"#utility.yul\":16856:16893   */\n      swap1\n      pop\n        /* \"#utility.yul\":16783:16900   */\n      swap3\n      swap2\n      pop\n      pop\n      jump\t// out\n        /* \"#utility.yul\":16906:17075   */\n    tag_224:\n        /* \"#utility.yul\":16950:16956   */\n      0x00\n        /* \"#utility.yul\":16983:17034   */\n      tag_402\n        /* \"#utility.yul\":17031:17032   */\n      0x00\n        /* \"#utility.yul\":17027:17033   */\n      not\n        /* \"#utility.yul\":17019:17024   */\n      dup5\n        /* \"#utility.yul\":17016:17017   */\n      0x08\n        /* \"#utility.yul\":17012:17025   */\n      mul\n        /* \"#utility.yul\":16983:17034   */\n      tag_223\n      jump\t// in\n    tag_402:\n        /* \"#utility.yul\":16979:17035   */\n      not\n        /* \"#utility.yul\":17064:17068   */\n      dup1\n        /* \"#utility.yul\":17058:17062   */\n      dup4\n        /* \"#utility.yul\":17054:17069   */\n      and\n        /* \"#utility.yul\":17044:17069   */\n      swap2\n      pop\n        /* \"#utility.yul\":16957:17075   */\n      pop\n        /* \"#utility.yul\":16906:17075   */\n      swap3\n      swap2\n      pop\n      pop\n      jump\t// out\n        /* \"#utility.yul\":17080:17375   */\n    tag_225:\n        /* \"#utility.yul\":17156:17160   */\n      0x00\n        /* \"#utility.yul\":17302:17331   */\n      tag_404\n        /* \"#utility.yul\":17327:17330   */\n      dup4\n        /* \"#utility.yul\":17321:17325   */\n      dup4\n        /* \"#utility.yul\":17302:17331   */\n      tag_224\n      jump\t// in\n    tag_404:\n        /* \"#utility.yul\":17294:17331   */\n      swap2\n      pop\n        /* \"#utility.yul\":17364:17367   */\n      dup3\n        /* \"#utility.yul\":17361:17362   */\n      0x02\n        /* \"#utility.yul\":17357:17368   */\n      mul\n        /* \"#utility.yul\":17351:17355   */\n      dup3\n        /* \"#utility.yul\":17348:17369   */\n      or\n        /* \"#utility.yul\":17340:17369   */\n      swap1\n      pop\n        /* \"#utility.yul\":17080:17375   */\n      swap3\n      swap2\n      pop\n      pop\n      jump\t// out\n        /* \"#utility.yul\":17380:18831   */\n    tag_74:\n        /* \"#utility.yul\":17491:17494   */\n      dup2\n        /* \"#utility.yul\":17485:17489   */\n      dup2\n        /* \"#utility.yul\":17482:17495   */\n      sub\n        /* \"#utility.yul\":17479:17505   */\n      tag_406\n      jumpi\n        /* \"#utility.yul\":17498:17503   */\n      pop\n      pop\n      jump(tag_405)\n        /* \"#utility.yul\":17479:17505   */\n    tag_406:\n        /* \"#utility.yul\":17529:17563   */\n      tag_407\n        /* \"#utility.yul\":17559:17562   */\n      dup3\n        /* \"#utility.yul\":17529:17563   */\n      tag_210\n      jump\t// in\n    tag_407:\n        /* \"#utility.yul\":17628:17646   */\n      0xffffffffffffffff\n        /* \"#utility.yul\":17620:17626   */\n      dup2\n        /* \"#utility.yul\":17617:17647   */\n      gt\n        /* \"#utility.yul\":17614:17670   */\n      iszero\n      tag_408\n      jumpi\n        /* \"#utility.yul\":17650:17668   */\n      tag_409\n      tag_201\n      jump\t// in\n    tag_409:\n        /* \"#utility.yul\":17614:17670   */\n    tag_408:\n        /* \"#utility.yul\":17694:17732   */\n      tag_410\n        /* \"#utility.yul\":17726:17730   */\n      dup3\n        /* \"#utility.yul\":17720:17731   */\n      sload\n        /* \"#utility.yul\":17694:17732   */\n      tag_36\n      jump\t// in\n    tag_410:\n        /* \"#utility.yul\":17779:17846   */\n      tag_411\n        /* \"#utility.yul\":17839:17845   */\n      dup3\n        /* \"#utility.yul\":17831:17837   */\n      dup3\n        /* \"#utility.yul\":17825:17829   */\n      dup6\n        /* \"#utility.yul\":17779:17846   */\n      tag_222\n      jump\t// in\n    tag_411:\n        /* \"#utility.yul\":17873:17874   */\n      0x00\n        /* \"#utility.yul\":17902:17904   */\n      0x1f\n        /* \"#utility.yul\":17894:17900   */\n      dup4\n        /* \"#utility.yul\":17891:17905   */\n      gt\n        /* \"#utility.yul\":17919:17920   */\n      0x01\n        /* \"#utility.yul\":17914:18586   */\n      dup2\n      eq\n      tag_413\n      jumpi\n        /* \"#utility.yul\":18630:18631   */\n      0x00\n        /* \"#utility.yul\":18647:18653   */\n      dup5\n        /* \"#utility.yul\":18644:18721   */\n      iszero\n      tag_414\n      jumpi\n        /* \"#utility.yul\":18696:18705   */\n      dup3\n        /* \"#utility.yul\":18691:18694   */\n      dup8\n        /* \"#utility.yul\":18687:18706   */\n      add\n        /* \"#utility.yul\":18681:18707   */\n      sload\n        /* \"#utility.yul\":18672:18707   */\n      swap1\n      pop\n        /* \"#utility.yul\":18644:18721   */\n    tag_414:\n        /* \"#utility.yul\":18747:18814   */\n      tag_415\n        /* \"#utility.yul\":18807:18813   */\n      dup6\n        /* \"#utility.yul\":18800:18805   */\n      dup3\n        /* \"#utility.yul\":18747:18814   */\n      tag_225\n      jump\t// in\n    tag_415:\n        /* \"#utility.yul\":18741:18745   */\n      dup7\n        /* \"#utility.yul\":18734:18815   */\n      sstore\n        /* \"#utility.yul\":18603:18825   */\n      pop\n        /* \"#utility.yul\":17884:18825   */\n      jump(tag_412)\n        /* \"#utility.yul\":17914:18586   */\n    tag_413:\n        /* \"#utility.yul\":17966:17970   */\n      0x1f\n        /* \"#utility.yul\":17962:17971   */\n      not\n        /* \"#utility.yul\":17954:17960   */\n      dup5\n        /* \"#utility.yul\":17950:17972   */\n      and\n        /* \"#utility.yul\":17992:18028   */\n      tag_416\n        /* \"#utility.yul\":18024:18027   */\n      dup8\n        /* \"#utility.yul\":17992:18028   */\n      tag_211\n      jump\t// in\n    tag_416:\n        /* \"#utility.yul\":17985:18028   */\n      swap7\n      pop\n        /* \"#utility.yul\":18055:18092   */\n      tag_417\n        /* \"#utility.yul\":18087:18091   */\n      dup7\n        /* \"#utility.yul\":18055:18092   */\n      tag_211\n      jump\t// in\n    tag_417:\n        /* \"#utility.yul\":18114:18115   */\n      0x00\n        /* \"#utility.yul\":18128:18335   */\n    tag_418:\n        /* \"#utility.yul\":18142:18149   */\n      dup3\n        /* \"#utility.yul\":18139:18140   */\n      dup2\n        /* \"#utility.yul\":18136:18150   */\n      lt\n        /* \"#utility.yul\":18128:18335   */\n      iszero\n      tag_420\n      jumpi\n        /* \"#utility.yul\":18221:18230   */\n      dup5\n        /* \"#utility.yul\":18216:18219   */\n      dup10\n        /* \"#utility.yul\":18212:18231   */\n      add\n        /* \"#utility.yul\":18206:18232   */\n      sload\n        /* \"#utility.yul\":18198:18204   */\n      dup3\n        /* \"#utility.yul\":18191:18233   */\n      sstore\n        /* \"#utility.yul\":18272:18273   */\n      0x01\n        /* \"#utility.yul\":18264:18270   */\n      dup3\n        /* \"#utility.yul\":18260:18274   */\n      add\n        /* \"#utility.yul\":18250:18274   */\n      swap2\n      pop\n        /* \"#utility.yul\":18319:18320   */\n      0x01\n        /* \"#utility.yul\":18308:18317   */\n      dup6\n        /* \"#utility.yul\":18304:18321   */\n      add\n        /* \"#utility.yul\":18291:18321   */\n      swap5\n      pop\n        /* \"#utility.yul\":18165:18169   */\n      0x20\n        /* \"#utility.yul\":18162:18163   */\n      dup2\n        /* \"#utility.yul\":18158:18170   */\n      add\n        /* \"#utility.yul\":18153:18170   */\n      swap1\n      pop\n        /* \"#utility.yul\":18128:18335   */\n      jump(tag_418)\n    tag_420:\n        /* \"#utility.yul\":18363:18369   */\n      dup7\n        /* \"#utility.yul\":18354:18361   */\n      dup4\n        /* \"#utility.yul\":18351:18370   */\n      lt\n        /* \"#utility.yul\":18348:18527   */\n      iszero\n      tag_421\n      jumpi\n        /* \"#utility.yul\":18421:18430   */\n      dup5\n        /* \"#utility.yul\":18416:18419   */\n      dup10\n        /* \"#utility.yul\":18412:18431   */\n      add\n        /* \"#utility.yul\":18406:18432   */\n      sload\n        /* \"#utility.yul\":18464:18512   */\n      tag_422\n        /* \"#utility.yul\":18506:18510   */\n      0x1f\n        /* \"#utility.yul\":18498:18504   */\n      dup10\n        /* \"#utility.yul\":18494:18511   */\n      and\n        /* \"#utility.yul\":18483:18492   */\n      dup3\n        /* \"#utility.yul\":18464:18512   */\n      tag_224\n      jump\t// in\n    tag_422:\n        /* \"#utility.yul\":18456:18462   */\n      dup4\n        /* \"#utility.yul\":18449:18513   */\n      sstore\n        /* \"#utility.yul\":18371:18527   */\n      pop\n        /* \"#utility.yul\":18348:18527   */\n    tag_421:\n        /* \"#utility.yul\":18573:18574   */\n      0x01\n        /* \"#utility.yul\":18569:18570   */\n      0x02\n        /* \"#utility.yul\":18561:18567   */\n      dup9\n        /* \"#utility.yul\":18557:18571   */\n      mul\n        /* \"#utility.yul\":18553:18575   */\n      add\n        /* \"#utility.yul\":18547:18551   */\n      dup9\n        /* \"#utility.yul\":18540:18576   */\n      sstore\n        /* \"#utility.yul\":17921:18586   */\n      pop\n      pop\n      pop\n        /* \"#utility.yul\":17884:18825   */\n    tag_412:\n      pop\n        /* \"#utility.yul\":17469:18831   */\n      pop\n      pop\n      pop\n        /* \"#utility.yul\":17380:18831   */\n      pop\n      pop\n    tag_405:\n      jump\t// out\n        /* \"#utility.yul\":18837:19070   */\n    tag_78:\n        /* \"#utility.yul\":18876:18879   */\n      0x00\n        /* \"#utility.yul\":18899:18923   */\n      tag_424\n        /* \"#utility.yul\":18917:18922   */\n      dup3\n        /* \"#utility.yul\":18899:18923   */\n      tag_181\n      jump\t// in\n    tag_424:\n        /* \"#utility.yul\":18890:18923   */\n      swap2\n      pop\n        /* \"#utility.yul\":18945:19011   */\n      0xffffffffffffffffffffffffffffffffffffffffffffffffffffffffffffffff\n        /* \"#utility.yul\":18938:18943   */\n      dup3\n        /* \"#utility.yul\":18935:19012   */\n      sub\n        /* \"#utility.yul\":18932:19035   */\n      tag_425\n      jumpi\n        /* \"#utility.yul\":19015:19033   */\n      tag_426\n      tag_209\n      jump\t// in\n    tag_426:\n        /* \"#utility.yul\":18932:19035   */\n    tag_425:\n        /* \"#utility.yul\":19062:19063   */\n      0x01\n        /* \"#utility.yul\":19055:19060   */\n      dup3\n        /* \"#utility.yul\":19051:19064   */\n      add\n        /* \"#utility.yul\":19044:19064   */\n      swap1\n      pop\n        /* \"#utility.yul\":18837:19070   */\n      swap2\n      swap1\n      pop\n      jump\t// out\n        /* \"#utility.yul\":19076:19256   */\n    tag_81:\n        /* \"#utility.yul\":19124:19201   */\n      0x4e487b7100000000000000000000000000000000000000000000000000000000\n        /* \"#utility.yul\":19121:19122   */\n      0x00\n        /* \"#utility.yul\":19114:19202   */\n      mstore\n        /* \"#utility.yul\":19221:19225   */\n      0x31\n        /* \"#utility.yul\":19218:19219   */\n      0x04\n        /* \"#utility.yul\":19211:19226   */\n      mstore\n        /* \"#utility.yul\":19245:19249   */\n      0x24\n        /* \"#utility.yul\":19242:19243   */\n      0x00\n        /* \"#utility.yul\":19235:19250   */\n      revert\n        /* \"#utility.yul\":19262:20657   */\n    tag_153:\n        /* \"#utility.yul\":19379:19416   */\n      tag_429\n        /* \"#utility.yul\":19412:19415   */\n      dup3\n        /* \"#utility.yul\":19379:19416   */\n      tag_183\n      jump\t// in\n    tag_429:\n        /* \"#utility.yul\":19481:19499   */\n      0xffffffffffffffff\n        /* \"#utility.yul\":19473:19479   */\n      dup2\n        /* \"#utility.yul\":19470:19500   */\n      gt\n        /* \"#utility.yul\":19467:19523   */\n      iszero\n      tag_430\n      jumpi\n        /* \"#utility.yul\":19503:19521   */\n      tag_431\n      tag_201\n      jump\t// in\n    tag_431:\n        /* \"#utility.yul\":19467:19523   */\n    tag_430:\n        /* \"#utility.yul\":19547:19585   */\n      tag_432\n        /* \"#utility.yul\":19579:19583   */\n      dup3\n        /* \"#utility.yul\":19573:19584   */\n      sload\n        /* \"#utility.yul\":19547:19585   */\n      tag_36\n      jump\t// in\n    tag_432:\n        /* \"#utility.yul\":19632:19699   */\n      tag_433\n        /* \"#utility.yul\":19692:19698   */\n      dup3\n        /* \"#utility.yul\":19684:19690   */\n      dup3\n        /* \"#utility.yul\":19678:19682   */\n      dup6\n        /* \"#utility.yul\":19632:19699   */\n      tag_222\n      jump\t// in\n    tag_433:\n        /* \"#utility.yul\":19726:19727   */\n      0x00\n        /* \"#utility.yul\":19750:19754   */\n      0x20\n        /* \"#utility.yul\":19737:19754   */\n      swap1\n      pop\n        /* \"#utility.yul\":19782:19784   */\n      0x1f\n        /* \"#utility.yul\":19774:19780   */\n      dup4\n        /* \"#utility.yul\":19771:19785   */\n      gt\n        /* \"#utility.yul\":19799:19800   */\n      0x01\n        /* \"#utility.yul\":19794:20412   */\n      dup2\n      eq\n      tag_435\n      jumpi\n        /* \"#utility.yul\":20456:20457   */\n      0x00\n        /* \"#utility.yul\":20473:20479   */\n      dup5\n        /* \"#utility.yul\":20470:20547   */\n      iszero\n      tag_436\n      jumpi\n        /* \"#utility.yul\":20522:20531   */\n      dup3\n        /* \"#utility.yul\":20517:20520   */\n      dup8\n        /* \"#utility.yul\":20513:20532   */\n      add\n        /* \"#utility.yul\":20507:20533   */\n      mload\n        /* \"#utility.yul\":20498:20533   */\n      swap1\n      pop\n        /* \"#utility.yul\":20470:20547   */\n    tag_436:\n        /* \"#utility.yul\":20573:20640   */\n      tag_437\n        /* \"#utility.yul\":20633:20639   */\n      dup6\n        /* \"#utility.yul\":20626:20631   */\n      dup3\n        /* \"#utility.yul\":20573:20640   */\n      tag_225\n      jump\t// in\n    tag_437:\n        /* \"#utility.yul\":20567:20571   */\n      dup7\n        /* \"#utility.yul\":20560:20641   */\n      sstore\n        /* \"#utility.yul\":20429:20651   */\n      pop\n        /* \"#utility.yul\":19764:20651   */\n      jump(tag_434)\n        /* \"#utility.yul\":19794:20412   */\n    tag_435:\n        /* \"#utility.yul\":19846:19850   */\n      0x1f\n        /* \"#utility.yul\":19842:19851   */\n      not\n        /* \"#utility.yul\":19834:19840   */\n      dup5\n        /* \"#utility.yul\":19830:19852   */\n      and\n        /* \"#utility.yul\":19880:19917   */\n      tag_438\n        /* \"#utility.yul\":19912:19916   */\n      dup7\n        /* \"#utility.yul\":19880:19917   */\n      tag_211\n      jump\t// in\n    tag_438:\n        /* \"#utility.yul\":19939:19940   */\n      0x00\n        /* \"#utility.yul\":19953:20161   */\n    tag_439:\n        /* \"#utility.yul\":19967:19974   */\n      dup3\n        /* \"#utility.yul\":19964:19965   */\n      dup2\n        /* \"#utility.yul\":19961:19975   */\n      lt\n        /* \"#utility.yul\":19953:20161   */\n      iszero\n      tag_441\n      jumpi\n        /* \"#utility.yul\":20046:20055   */\n      dup5\n        /* \"#utility.yul\":20041:20044   */\n      dup10\n        /* \"#utility.yul\":20037:20056   */\n      add\n        /* \"#utility.yul\":20031:20057   */\n      mload\n        /* \"#utility.yul\":20023:20029   */\n      dup3\n        /* \"#utility.yul\":20016:20058   */\n      sstore\n        /* \"#utility.yul\":20097:20098   */\n      0x01\n        /* \"#utility.yul\":20089:20095   */\n      dup3\n        /* \"#utility.yul\":20085:20099   */\n      add\n        /* \"#utility.yul\":20075:20099   */\n      swap2\n      pop\n        /* \"#utility.yul\":20144:20146   */\n      0x20\n        /* \"#utility.yul\":20133:20142   */\n      dup6\n        /* \"#utility.yul\":20129:20147   */\n      add\n        /* \"#utility.yul\":20116:20147   */\n      swap5\n      pop\n        /* \"#utility.yul\":19990:19994   */\n      0x20\n        /* \"#utility.yul\":19987:19988   */\n      dup2\n        /* \"#utility.yul\":19983:19995   */\n      add\n        /* \"#utility.yul\":19978:19995   */\n      swap1\n      pop\n        /* \"#utility.yul\":19953:20161   */\n      jump(tag_439)\n    tag_441:\n        /* \"#utility.yul\":20189:20195   */\n      dup7\n        /* \"#utility.yul\":20180:20187   */\n      dup4\n        /* \"#utility.yul\":20177:20196   */\n      lt\n        /* \"#utility.yul\":20174:20353   */\n      iszero\n      tag_442\n      jumpi\n        /* \"#utility.yul\":20247:20256   */\n      dup5\n        /* \"#utility.yul\":20242:20245   */\n      dup10\n        /* \"#utility.yul\":20238:20257   */\n      add\n        /* \"#utility.yul\":20232:20258   */\n      mload\n        /* \"#utility.yul\":20290:20338   */\n      tag_443\n        /* \"#utility.yul\":20332:20336   */\n      0x1f\n        /* \"#utility.yul\":20324:20330   */\n      dup10\n        /* \"#utility.yul\":20320:20337   */\n      and\n        /* \"#utility.yul\":20309:20318   */\n      dup3\n        /* \"#utility.yul\":20290:20338   */\n      tag_224\n      jump\t// in\n    tag_443:\n        /* \"#utility.yul\":20282:20288   */\n      dup4\n        /* \"#utility.yul\":20275:20339   */\n      sstore\n        /* \"#utility.yul\":20197:20353   */\n      pop\n        /* \"#utility.yul\":20174:20353   */\n    tag_442:\n        /* \"#utility.yul\":20399:20400   */\n      0x01\n        /* \"#utility.yul\":20395:20396   */\n      0x02\n        /* \"#utility.yul\":20387:20393   */\n      dup9\n        /* \"#utility.yul\":20383:20397   */\n      mul\n        /* \"#utility.yul\":20379:20401   */\n      add\n        /* \"#utility.yul\":20373:20377   */\n      dup9\n        /* \"#utility.yul\":20366:20402   */\n      sstore\n        /* \"#utility.yul\":19801:20412   */\n      pop\n      pop\n      pop\n        /* \"#utility.yul\":19764:20651   */\n    tag_434:\n      pop\n        /* \"#utility.yul\":19354:20657   */\n      pop\n      pop\n      pop\n        /* \"#utility.yul\":19262:20657   */\n      pop\n      pop\n      jump\t// out\n\n    auxdata: 0xa26469706673582212200ab65fe5545f8230d6d570b7a7d8c53923a659561ac038d1df44e93bb0eb36a064736f6c634300080f0033\n}\n",
				"bytecode": {
					"linkReferences": {},
					"object": "608060405234801561001057600080fd5b5061214d806100206000396000f3fe608060405234801561001057600080fd5b50600436106100575760003560e01c8063377e6ff71461005c57806369ba1a751461008c57806380c9419e146100a8578063904cc175146100df578063a97af4d51461010f575b600080fd5b61007660048036038101906100719190611638565b61012b565b60405161008391906118a6565b60405180910390f35b6100a660048036038101906100a191906118f4565b61044a565b005b6100c260048036038101906100bd91906118f4565b6108fa565b6040516100d6989796959493929190611989565b60405180910390f35b6100f960048036038101906100f491906118f4565b610b2a565b60405161010691906118a6565b60405180910390f35b61012960048036038101906101249190611b51565b611106565b005b6060600360008373ffffffffffffffffffffffffffffffffffffffff1673ffffffffffffffffffffffffffffffffffffffff168152602001908152602001600020805480602002602001604051908101604052809291908181526020016000905b8282101561043f578382906000526020600020906008020160405180610100016040529081600082015481526020016001820180546101ca90611c0b565b80601f01602080910402602001604051908101604052809291908181526020018280546101f690611c0b565b80156102435780601f1061021857610100808354040283529160200191610243565b820191906000526020600020905b81548152906001019060200180831161022657829003601f168201915b50505050508152602001600282015481526020016003820160009054906101000a900473ffffffffffffffffffffffffffffffffffffffff1673ffffffffffffffffffffffffffffffffffffffff1673ffffffffffffffffffffffffffffffffffffffff1681526020016004820160009054906101000a900473ffffffffffffffffffffffffffffffffffffffff1673ffffffffffffffffffffffffffffffffffffffff1673ffffffffffffffffffffffffffffffffffffffff1681526020016005820154815260200160068201805461031c90611c0b565b80601f016020809104026020016040519081016040528092919081815260200182805461034890611c0b565b80156103955780601f1061036a57610100808354040283529160200191610395565b820191906000526020600020905b81548152906001019060200180831161037857829003601f168201915b505050505081526020016007820180546103ae90611c0b565b80601f01602080910402602001604051908101604052809291908181526020018280546103da90611c0b565b80156104275780601f106103fc57610100808354040283529160200191610427565b820191906000526020600020905b81548152906001019060200180831161040a57829003601f168201915b5050505050815250508152602001906001019061018c565b505050509050919050565b6003600182815481106104605761045f611c3c565b5b90600052602060002090600802016002018190555060005b600160026000600181526020019081526020016000208054905061049c9190611c9a565b8110156106975781600260006001815260200190815260200160002082815481106104ca576104c9611c3c565b5b906000526020600020906008020160000154036106845760026000600181526020019081526020016000206001826105029190611cce565b8154811061051357610512611c3c565b5b90600052602060002090600802016002600060018152602001908152602001600020828154811061054757610546611c3c565b5b906000526020600020906008020160008201548160000155600182018160010190816105739190611ee6565b50600282015481600201556003820160009054906101000a900473ffffffffffffffffffffffffffffffffffffffff168160030160006101000a81548173ffffffffffffffffffffffffffffffffffffffff021916908373ffffffffffffffffffffffffffffffffffffffff1602179055506004820160009054906101000a900473ffffffffffffffffffffffffffffffffffffffff168160040160006101000a81548173ffffffffffffffffffffffffffffffffffffffff021916908373ffffffffffffffffffffffffffffffffffffffff160217905550600582015481600501556006820181600601908161066a9190611ee6565b506007820181600701908161067f9190611ee6565b509050505b808061068f90611fce565b915050610478565b5060026000600181526020019081526020016000208054806106bc576106bb612016565b5b60019003818190600052602060002090600802016000808201600090556001820160006106e99190611569565b60028201600090556003820160006101000a81549073ffffffffffffffffffffffffffffffffffffffff02191690556004820160006101000a81549073ffffffffffffffffffffffffffffffffffffffff021916905560058201600090556006820160006107579190611569565b6007820160006107679190611569565b5050905560026000600381526020019081526020016000206001828154811061079357610792611c3c565b5b9060005260206000209060080201908060018154018082558091505060019003906000526020600020906008020160009091909190915060008201548160000155600182018160010190816107e89190611ee6565b50600282015481600201556003820160009054906101000a900473ffffffffffffffffffffffffffffffffffffffff168160030160006101000a81548173ffffffffffffffffffffffffffffffffffffffff021916908373ffffffffffffffffffffffffffffffffffffffff1602179055506004820160009054906101000a900473ffffffffffffffffffffffffffffffffffffffff168160040160006101000a81548173ffffffffffffffffffffffffffffffffffffffff021916908373ffffffffffffffffffffffffffffffffffffffff16021790555060058201548160050155600682018160060190816108df9190611ee6565b50600782018160070190816108f49190611ee6565b50505050565b6001818154811061090a57600080fd5b906000526020600020906008020160009150905080600001549080600101805461093390611c0b565b80601f016020809104026020016040519081016040528092919081815260200182805461095f90611c0b565b80156109ac5780601f10610981576101008083540402835291602001916109ac565b820191906000526020600020905b81548152906001019060200180831161098f57829003601f168201915b5050505050908060020154908060030160009054906101000a900473ffffffffffffffffffffffffffffffffffffffff16908060040160009054906101000a900473ffffffffffffffffffffffffffffffffffffffff1690806005015490806006018054610a1990611c0b565b80601f0160208091040260200160405190810160405280929190818152602001828054610a4590611c0b565b8015610a925780601f10610a6757610100808354040283529160200191610a92565b820191906000526020600020905b815481529060010190602001808311610a7557829003601f168201915b505050505090806007018054610aa790611c0b565b80601f0160208091040260200160405190810160405280929190818152602001828054610ad390611c0b565b8015610b205780601f10610af557610100808354040283529160200191610b20565b820191906000526020600020905b815481529060010190602001808311610b0357829003601f168201915b5050505050905088565b606060008203610e14576001805480602002602001604051908101604052809291908181526020016000905b82821015610e0957838290600052602060002090600802016040518061010001604052908160008201548152602001600182018054610b9490611c0b565b80601f0160208091040260200160405190810160405280929190818152602001828054610bc090611c0b565b8015610c0d5780601f10610be257610100808354040283529160200191610c0d565b820191906000526020600020905b815481529060010190602001808311610bf057829003601f168201915b50505050508152602001600282015481526020016003820160009054906101000a900473ffffffffffffffffffffffffffffffffffffffff1673ffffffffffffffffffffffffffffffffffffffff1673ffffffffffffffffffffffffffffffffffffffff1681526020016004820160009054906101000a900473ffffffffffffffffffffffffffffffffffffffff1673ffffffffffffffffffffffffffffffffffffffff1673ffffffffffffffffffffffffffffffffffffffff16815260200160058201548152602001600682018054610ce690611c0b565b80601f0160208091040260200160405190810160405280929190818152602001828054610d1290611c0b565b8015610d5f5780601f10610d3457610100808354040283529160200191610d5f565b820191906000526020600020905b815481529060010190602001808311610d4257829003601f168201915b50505050508152602001600782018054610d7890611c0b565b80601f0160208091040260200160405190810160405280929190818152602001828054610da490611c0b565b8015610df15780601f10610dc657610100808354040283529160200191610df1565b820191906000526020600020905b815481529060010190602001808311610dd457829003601f168201915b50505050508152505081526020019060010190610b56565b505050509050611101565b60026000838152602001908152602001600020805480602002602001604051908101604052809291908181526020016000905b828210156110fa57838290600052602060002090600802016040518061010001604052908160008201548152602001600182018054610e8590611c0b565b80601f0160208091040260200160405190810160405280929190818152602001828054610eb190611c0b565b8015610efe5780601f10610ed357610100808354040283529160200191610efe565b820191906000526020600020905b815481529060010190602001808311610ee157829003601f168201915b50505050508152602001600282015481526020016003820160009054906101000a900473ffffffffffffffffffffffffffffffffffffffff1673ffffffffffffffffffffffffffffffffffffffff1673ffffffffffffffffffffffffffffffffffffffff1681526020016004820160009054906101000a900473ffffffffffffffffffffffffffffffffffffffff1673ffffffffffffffffffffffffffffffffffffffff1673ffffffffffffffffffffffffffffffffffffffff16815260200160058201548152602001600682018054610fd790611c0b565b80601f016020809104026020016040519081016040528092919081815260200182805461100390611c0b565b80156110505780601f1061102557610100808354040283529160200191611050565b820191906000526020600020905b81548152906001019060200180831161103357829003601f168201915b5050505050815260200160078201805461106990611c0b565b80601f016020809104026020016040519081016040528092919081815260200182805461109590611c0b565b80156110e25780601f106110b7576101008083540402835291602001916110e2565b820191906000526020600020905b8154815290600101906020018083116110c557829003601f168201915b50505050508152505081526020019060010190610e47565b5050505090505b919050565b60008081548092919061111890611fce565b919050555060006040518061010001604052806000548152602001858152602001600181526020013373ffffffffffffffffffffffffffffffffffffffff1681526020018473ffffffffffffffffffffffffffffffffffffffff168152602001600081526020018381526020016040518060400160405280600181526020017f30000000000000000000000000000000000000000000000000000000000000008152508152509050600181908060018154018082558091505060019003906000526020600020906008020160009091909190915060008201518160000155602082015181600101908161120b9190612045565b506040820151816002015560608201518160030160006101000a81548173ffffffffffffffffffffffffffffffffffffffff021916908373ffffffffffffffffffffffffffffffffffffffff16021790555060808201518160040160006101000a81548173ffffffffffffffffffffffffffffffffffffffff021916908373ffffffffffffffffffffffffffffffffffffffff16021790555060a0820151816005015560c08201518160060190816112c39190612045565b5060e08201518160070190816112d99190612045565b50505060026000600181526020019081526020016000208190806001815401808255809150506001900390600052602060002090600802016000909190919091506000820151816000015560208201518160010190816113399190612045565b506040820151816002015560608201518160030160006101000a81548173ffffffffffffffffffffffffffffffffffffffff021916908373ffffffffffffffffffffffffffffffffffffffff16021790555060808201518160040160006101000a81548173ffffffffffffffffffffffffffffffffffffffff021916908373ffffffffffffffffffffffffffffffffffffffff16021790555060a0820151816005015560c08201518160060190816113f19190612045565b5060e08201518160070190816114079190612045565b505050600360003373ffffffffffffffffffffffffffffffffffffffff1673ffffffffffffffffffffffffffffffffffffffff1681526020019081526020016000208190806001815401808255809150506001900390600052602060002090600802016000909190919091506000820151816000015560208201518160010190816114929190612045565b506040820151816002015560608201518160030160006101000a81548173ffffffffffffffffffffffffffffffffffffffff021916908373ffffffffffffffffffffffffffffffffffffffff16021790555060808201518160040160006101000a81548173ffffffffffffffffffffffffffffffffffffffff021916908373ffffffffffffffffffffffffffffffffffffffff16021790555060a0820151816005015560c082015181600601908161154a9190612045565b5060e08201518160070190816115609190612045565b50505050505050565b50805461157590611c0b565b6000825580601f1061158757506115a6565b601f0160209004906000526020600020908101906115a591906115a9565b5b50565b5b808211156115c25760008160009055506001016115aa565b5090565b6000604051905090565b600080fd5b600080fd5b600073ffffffffffffffffffffffffffffffffffffffff82169050919050565b6000611605826115da565b9050919050565b611615816115fa565b811461162057600080fd5b50565b6000813590506116328161160c565b92915050565b60006020828403121561164e5761164d6115d0565b5b600061165c84828501611623565b91505092915050565b600081519050919050565b600082825260208201905092915050565b6000819050602082019050919050565b6000819050919050565b6116a481611691565b82525050565b600081519050919050565b600082825260208201905092915050565b60005b838110156116e45780820151818401526020810190506116c9565b838111156116f3576000848401525b50505050565b6000601f19601f8301169050919050565b6000611715826116aa565b61171f81856116b5565b935061172f8185602086016116c6565b611738816116f9565b840191505092915050565b61174c816115fa565b82525050565b60006101008301600083015161176b600086018261169b565b5060208301518482036020860152611783828261170a565b9150506040830151611798604086018261169b565b5060608301516117ab6060860182611743565b5060808301516117be6080860182611743565b5060a08301516117d160a086018261169b565b5060c083015184820360c08601526117e9828261170a565b91505060e083015184820360e0860152611803828261170a565b9150508091505092915050565b600061181c8383611752565b905092915050565b6000602082019050919050565b600061183c82611665565b6118468185611670565b93508360208202850161185885611681565b8060005b8581101561189457848403895281516118758582611810565b945061188083611824565b925060208a0199505060018101905061185c565b50829750879550505050505092915050565b600060208201905081810360008301526118c08184611831565b905092915050565b6118d181611691565b81146118dc57600080fd5b50565b6000813590506118ee816118c8565b92915050565b60006020828403121561190a576119096115d0565b5b6000611918848285016118df565b91505092915050565b61192a81611691565b82525050565b600082825260208201905092915050565b600061194c826116aa565b6119568185611930565b93506119668185602086016116c6565b61196f816116f9565b840191505092915050565b611983816115fa565b82525050565b60006101008201905061199f600083018b611921565b81810360208301526119b1818a611941565b90506119c06040830189611921565b6119cd606083018861197a565b6119da608083018761197a565b6119e760a0830186611921565b81810360c08301526119f98185611941565b905081810360e0830152611a0d8184611941565b90509998505050505050505050565b600080fd5b600080fd5b7f4e487b7100000000000000000000000000000000000000000000000000000000600052604160045260246000fd5b611a5e826116f9565b810181811067ffffffffffffffff82111715611a7d57611a7c611a26565b5b80604052505050565b6000611a906115c6565b9050611a9c8282611a55565b919050565b600067ffffffffffffffff821115611abc57611abb611a26565b5b611ac5826116f9565b9050602081019050919050565b82818337600083830152505050565b6000611af4611aef84611aa1565b611a86565b905082815260208101848484011115611b1057611b0f611a21565b5b611b1b848285611ad2565b509392505050565b600082601f830112611b3857611b37611a1c565b5b8135611b48848260208601611ae1565b91505092915050565b600080600060608486031215611b6a57611b696115d0565b5b600084013567ffffffffffffffff811115611b8857611b876115d5565b5b611b9486828701611b23565b9350506020611ba586828701611623565b925050604084013567ffffffffffffffff811115611bc657611bc56115d5565b5b611bd286828701611b23565b9150509250925092565b7f4e487b7100000000000000000000000000000000000000000000000000000000600052602260045260246000fd5b60006002820490506001821680611c2357607f821691505b602082108103611c3657611c35611bdc565b5b50919050565b7f4e487b7100000000000000000000000000000000000000000000000000000000600052603260045260246000fd5b7f4e487b7100000000000000000000000000000000000000000000000000000000600052601160045260246000fd5b6000611ca582611691565b9150611cb083611691565b925082821015611cc357611cc2611c6b565b5b828203905092915050565b6000611cd982611691565b9150611ce483611691565b9250827fffffffffffffffffffffffffffffffffffffffffffffffffffffffffffffffff03821115611d1957611d18611c6b565b5b828201905092915050565b600081549050611d3381611c0b565b9050919050565b60008190508160005260206000209050919050565b60006020601f8301049050919050565b600082821b905092915050565b600060088302611d9c7fffffffffffffffffffffffffffffffffffffffffffffffffffffffffffffffff82611d5f565b611da68683611d5f565b95508019841693508086168417925050509392505050565b6000819050919050565b6000611de3611dde611dd984611691565b611dbe565b611691565b9050919050565b6000819050919050565b611dfd83611dc8565b611e11611e0982611dea565b848454611d6c565b825550505050565b600090565b611e26611e19565b611e31818484611df4565b505050565b5b81811015611e5557611e4a600082611e1e565b600181019050611e37565b5050565b601f821115611e9a57611e6b81611d3a565b611e7484611d4f565b81016020851015611e83578190505b611e97611e8f85611d4f565b830182611e36565b50505b505050565b600082821c905092915050565b6000611ebd60001984600802611e9f565b1980831691505092915050565b6000611ed68383611eac565b9150826002028217905092915050565b818103611ef4575050611fcc565b611efd82611d24565b67ffffffffffffffff811115611f1657611f15611a26565b5b611f208254611c0b565b611f2b828285611e59565b6000601f831160018114611f5a5760008415611f48578287015490505b611f528582611eca565b865550611fc5565b601f198416611f6887611d3a565b9650611f7386611d3a565b60005b82811015611f9b57848901548255600182019150600185019450602081019050611f76565b86831015611fb85784890154611fb4601f891682611eac565b8355505b6001600288020188555050505b5050505050505b565b6000611fd982611691565b91507fffffffffffffffffffffffffffffffffffffffffffffffffffffffffffffffff820361200b5761200a611c6b565b5b600182019050919050565b7f4e487b7100000000000000000000000000000000000000000000000000000000600052603160045260246000fd5b61204e826116aa565b67ffffffffffffffff81111561206757612066611a26565b5b6120718254611c0b565b61207c828285611e59565b600060209050601f8311600181146120af576000841561209d578287015190505b6120a78582611eca565b86555061210f565b601f1984166120bd86611d3a565b60005b828110156120e5578489015182556001820191506020850194506020810190506120c0565b8683101561210257848901516120fe601f891682611eac565b8355505b6001600288020188555050505b50505050505056fea26469706673582212200ab65fe5545f8230d6d570b7a7d8c53923a659561ac038d1df44e93bb0eb36a064736f6c634300080f0033",
					"opcodes": "PUSH1 0x80 PUSH1 0x40 MSTORE CALLVALUE DUP1 ISZERO PUSH2 0x10 JUMPI PUSH1 0x0 DUP1 REVERT JUMPDEST POP PUSH2 0x214D DUP1 PUSH2 0x20 PUSH1 0x0 CODECOPY PUSH1 0x0 RETURN INVALID PUSH1 0x80 PUSH1 0x40 MSTORE CALLVALUE DUP1 ISZERO PUSH2 0x10 JUMPI PUSH1 0x0 DUP1 REVERT JUMPDEST POP PUSH1 0x4 CALLDATASIZE LT PUSH2 0x57 JUMPI PUSH1 0x0 CALLDATALOAD PUSH1 0xE0 SHR DUP1 PUSH4 0x377E6FF7 EQ PUSH2 0x5C JUMPI DUP1 PUSH4 0x69BA1A75 EQ PUSH2 0x8C JUMPI DUP1 PUSH4 0x80C9419E EQ PUSH2 0xA8 JUMPI DUP1 PUSH4 0x904CC175 EQ PUSH2 0xDF JUMPI DUP1 PUSH4 0xA97AF4D5 EQ PUSH2 0x10F JUMPI JUMPDEST PUSH1 0x0 DUP1 REVERT JUMPDEST PUSH2 0x76 PUSH1 0x4 DUP1 CALLDATASIZE SUB DUP2 ADD SWAP1 PUSH2 0x71 SWAP2 SWAP1 PUSH2 0x1638 JUMP JUMPDEST PUSH2 0x12B JUMP JUMPDEST PUSH1 0x40 MLOAD PUSH2 0x83 SWAP2 SWAP1 PUSH2 0x18A6 JUMP JUMPDEST PUSH1 0x40 MLOAD DUP1 SWAP2 SUB SWAP1 RETURN JUMPDEST PUSH2 0xA6 PUSH1 0x4 DUP1 CALLDATASIZE SUB DUP2 ADD SWAP1 PUSH2 0xA1 SWAP2 SWAP1 PUSH2 0x18F4 JUMP JUMPDEST PUSH2 0x44A JUMP JUMPDEST STOP JUMPDEST PUSH2 0xC2 PUSH1 0x4 DUP1 CALLDATASIZE SUB DUP2 ADD SWAP1 PUSH2 0xBD SWAP2 SWAP1 PUSH2 0x18F4 JUMP JUMPDEST PUSH2 0x8FA JUMP JUMPDEST PUSH1 0x40 MLOAD PUSH2 0xD6 SWAP9 SWAP8 SWAP7 SWAP6 SWAP5 SWAP4 SWAP3 SWAP2 SWAP1 PUSH2 0x1989 JUMP JUMPDEST PUSH1 0x40 MLOAD DUP1 SWAP2 SUB SWAP1 RETURN JUMPDEST PUSH2 0xF9 PUSH1 0x4 DUP1 CALLDATASIZE SUB DUP2 ADD SWAP1 PUSH2 0xF4 SWAP2 SWAP1 PUSH2 0x18F4 JUMP JUMPDEST PUSH2 0xB2A JUMP JUMPDEST PUSH1 0x40 MLOAD PUSH2 0x106 SWAP2 SWAP1 PUSH2 0x18A6 JUMP JUMPDEST PUSH1 0x40 MLOAD DUP1 SWAP2 SUB SWAP1 RETURN JUMPDEST PUSH2 0x129 PUSH1 0x4 DUP1 CALLDATASIZE SUB DUP2 ADD SWAP1 PUSH2 0x124 SWAP2 SWAP1 PUSH2 0x1B51 JUMP JUMPDEST PUSH2 0x1106 JUMP JUMPDEST STOP JUMPDEST PUSH1 0x60 PUSH1 0x3 PUSH1 0x0 DUP4 PUSH20 0xFFFFFFFFFFFFFFFFFFFFFFFFFFFFFFFFFFFFFFFF AND PUSH20 0xFFFFFFFFFFFFFFFFFFFFFFFFFFFFFFFFFFFFFFFF AND DUP2 MSTORE PUSH1 0x20 ADD SWAP1 DUP2 MSTORE PUSH1 0x20 ADD PUSH1 0x0 KECCAK256 DUP1 SLOAD DUP1 PUSH1 0x20 MUL PUSH1 0x20 ADD PUSH1 0x40 MLOAD SWAP1 DUP2 ADD PUSH1 0x40 MSTORE DUP1 SWAP3 SWAP2 SWAP1 DUP2 DUP2 MSTORE PUSH1 0x20 ADD PUSH1 0x0 SWAP1 JUMPDEST DUP3 DUP3 LT ISZERO PUSH2 0x43F JUMPI DUP4 DUP3 SWAP1 PUSH1 0x0 MSTORE PUSH1 0x20 PUSH1 0x0 KECCAK256 SWAP1 PUSH1 0x8 MUL ADD PUSH1 0x40 MLOAD DUP1 PUSH2 0x100 ADD PUSH1 0x40 MSTORE SWAP1 DUP2 PUSH1 0x0 DUP3 ADD SLOAD DUP2 MSTORE PUSH1 0x20 ADD PUSH1 0x1 DUP3 ADD DUP1 SLOAD PUSH2 0x1CA SWAP1 PUSH2 0x1C0B JUMP JUMPDEST DUP1 PUSH1 0x1F ADD PUSH1 0x20 DUP1 SWAP2 DIV MUL PUSH1 0x20 ADD PUSH1 0x40 MLOAD SWAP1 DUP2 ADD PUSH1 0x40 MSTORE DUP1 SWAP3 SWAP2 SWAP1 DUP2 DUP2 MSTORE PUSH1 0x20 ADD DUP3 DUP1 SLOAD PUSH2 0x1F6 SWAP1 PUSH2 0x1C0B JUMP JUMPDEST DUP1 ISZERO PUSH2 0x243 JUMPI DUP1 PUSH1 0x1F LT PUSH2 0x218 JUMPI PUSH2 0x100 DUP1 DUP4 SLOAD DIV MUL DUP4 MSTORE SWAP2 PUSH1 0x20 ADD SWAP2 PUSH2 0x243 JUMP JUMPDEST DUP3 ADD SWAP2 SWAP1 PUSH1 0x0 MSTORE PUSH1 0x20 PUSH1 0x0 KECCAK256 SWAP1 JUMPDEST DUP2 SLOAD DUP2 MSTORE SWAP1 PUSH1 0x1 ADD SWAP1 PUSH1 0x20 ADD DUP1 DUP4 GT PUSH2 0x226 JUMPI DUP3 SWAP1 SUB PUSH1 0x1F AND DUP3 ADD SWAP2 JUMPDEST POP POP POP POP POP DUP2 MSTORE PUSH1 0x20 ADD PUSH1 0x2 DUP3 ADD SLOAD DUP2 MSTORE PUSH1 0x20 ADD PUSH1 0x3 DUP3 ADD PUSH1 0x0 SWAP1 SLOAD SWAP1 PUSH2 0x100 EXP SWAP1 DIV PUSH20 0xFFFFFFFFFFFFFFFFFFFFFFFFFFFFFFFFFFFFFFFF AND PUSH20 0xFFFFFFFFFFFFFFFFFFFFFFFFFFFFFFFFFFFFFFFF AND PUSH20 0xFFFFFFFFFFFFFFFFFFFFFFFFFFFFFFFFFFFFFFFF AND DUP2 MSTORE PUSH1 0x20 ADD PUSH1 0x4 DUP3 ADD PUSH1 0x0 SWAP1 SLOAD SWAP1 PUSH2 0x100 EXP SWAP1 DIV PUSH20 0xFFFFFFFFFFFFFFFFFFFFFFFFFFFFFFFFFFFFFFFF AND PUSH20 0xFFFFFFFFFFFFFFFFFFFFFFFFFFFFFFFFFFFFFFFF AND PUSH20 0xFFFFFFFFFFFFFFFFFFFFFFFFFFFFFFFFFFFFFFFF AND DUP2 MSTORE PUSH1 0x20 ADD PUSH1 0x5 DUP3 ADD SLOAD DUP2 MSTORE PUSH1 0x20 ADD PUSH1 0x6 DUP3 ADD DUP1 SLOAD PUSH2 0x31C SWAP1 PUSH2 0x1C0B JUMP JUMPDEST DUP1 PUSH1 0x1F ADD PUSH1 0x20 DUP1 SWAP2 DIV MUL PUSH1 0x20 ADD PUSH1 0x40 MLOAD SWAP1 DUP2 ADD PUSH1 0x40 MSTORE DUP1 SWAP3 SWAP2 SWAP1 DUP2 DUP2 MSTORE PUSH1 0x20 ADD DUP3 DUP1 SLOAD PUSH2 0x348 SWAP1 PUSH2 0x1C0B JUMP JUMPDEST DUP1 ISZERO PUSH2 0x395 JUMPI DUP1 PUSH1 0x1F LT PUSH2 0x36A JUMPI PUSH2 0x100 DUP1 DUP4 SLOAD DIV MUL DUP4 MSTORE SWAP2 PUSH1 0x20 ADD SWAP2 PUSH2 0x395 JUMP JUMPDEST DUP3 ADD SWAP2 SWAP1 PUSH1 0x0 MSTORE PUSH1 0x20 PUSH1 0x0 KECCAK256 SWAP1 JUMPDEST DUP2 SLOAD DUP2 MSTORE SWAP1 PUSH1 0x1 ADD SWAP1 PUSH1 0x20 ADD DUP1 DUP4 GT PUSH2 0x378 JUMPI DUP3 SWAP1 SUB PUSH1 0x1F AND DUP3 ADD SWAP2 JUMPDEST POP POP POP POP POP DUP2 MSTORE PUSH1 0x20 ADD PUSH1 0x7 DUP3 ADD DUP1 SLOAD PUSH2 0x3AE SWAP1 PUSH2 0x1C0B JUMP JUMPDEST DUP1 PUSH1 0x1F ADD PUSH1 0x20 DUP1 SWAP2 DIV MUL PUSH1 0x20 ADD PUSH1 0x40 MLOAD SWAP1 DUP2 ADD PUSH1 0x40 MSTORE DUP1 SWAP3 SWAP2 SWAP1 DUP2 DUP2 MSTORE PUSH1 0x20 ADD DUP3 DUP1 SLOAD PUSH2 0x3DA SWAP1 PUSH2 0x1C0B JUMP JUMPDEST DUP1 ISZERO PUSH2 0x427 JUMPI DUP1 PUSH1 0x1F LT PUSH2 0x3FC JUMPI PUSH2 0x100 DUP1 DUP4 SLOAD DIV MUL DUP4 MSTORE SWAP2 PUSH1 0x20 ADD SWAP2 PUSH2 0x427 JUMP JUMPDEST DUP3 ADD SWAP2 SWAP1 PUSH1 0x0 MSTORE PUSH1 0x20 PUSH1 0x0 KECCAK256 SWAP1 JUMPDEST DUP2 SLOAD DUP2 MSTORE SWAP1 PUSH1 0x1 ADD SWAP1 PUSH1 0x20 ADD DUP1 DUP4 GT PUSH2 0x40A JUMPI DUP3 SWAP1 SUB PUSH1 0x1F AND DUP3 ADD SWAP2 JUMPDEST POP POP POP POP POP DUP2 MSTORE POP POP DUP2 MSTORE PUSH1 0x20 ADD SWAP1 PUSH1 0x1 ADD SWAP1 PUSH2 0x18C JUMP JUMPDEST POP POP POP POP SWAP1 POP SWAP2 SWAP1 POP JUMP JUMPDEST PUSH1 0x3 PUSH1 0x1 DUP3 DUP2 SLOAD DUP2 LT PUSH2 0x460 JUMPI PUSH2 0x45F PUSH2 0x1C3C JUMP JUMPDEST JUMPDEST SWAP1 PUSH1 0x0 MSTORE PUSH1 0x20 PUSH1 0x0 KECCAK256 SWAP1 PUSH1 0x8 MUL ADD PUSH1 0x2 ADD DUP2 SWAP1 SSTORE POP PUSH1 0x0 JUMPDEST PUSH1 0x1 PUSH1 0x2 PUSH1 0x0 PUSH1 0x1 DUP2 MSTORE PUSH1 0x20 ADD SWAP1 DUP2 MSTORE PUSH1 0x20 ADD PUSH1 0x0 KECCAK256 DUP1 SLOAD SWAP1 POP PUSH2 0x49C SWAP2 SWAP1 PUSH2 0x1C9A JUMP JUMPDEST DUP2 LT ISZERO PUSH2 0x697 JUMPI DUP2 PUSH1 0x2 PUSH1 0x0 PUSH1 0x1 DUP2 MSTORE PUSH1 0x20 ADD SWAP1 DUP2 MSTORE PUSH1 0x20 ADD PUSH1 0x0 KECCAK256 DUP3 DUP2 SLOAD DUP2 LT PUSH2 0x4CA JUMPI PUSH2 0x4C9 PUSH2 0x1C3C JUMP JUMPDEST JUMPDEST SWAP1 PUSH1 0x0 MSTORE PUSH1 0x20 PUSH1 0x0 KECCAK256 SWAP1 PUSH1 0x8 MUL ADD PUSH1 0x0 ADD SLOAD SUB PUSH2 0x684 JUMPI PUSH1 0x2 PUSH1 0x0 PUSH1 0x1 DUP2 MSTORE PUSH1 0x20 ADD SWAP1 DUP2 MSTORE PUSH1 0x20 ADD PUSH1 0x0 KECCAK256 PUSH1 0x1 DUP3 PUSH2 0x502 SWAP2 SWAP1 PUSH2 0x1CCE JUMP JUMPDEST DUP2 SLOAD DUP2 LT PUSH2 0x513 JUMPI PUSH2 0x512 PUSH2 0x1C3C JUMP JUMPDEST JUMPDEST SWAP1 PUSH1 0x0 MSTORE PUSH1 0x20 PUSH1 0x0 KECCAK256 SWAP1 PUSH1 0x8 MUL ADD PUSH1 0x2 PUSH1 0x0 PUSH1 0x1 DUP2 MSTORE PUSH1 0x20 ADD SWAP1 DUP2 MSTORE PUSH1 0x20 ADD PUSH1 0x0 KECCAK256 DUP3 DUP2 SLOAD DUP2 LT PUSH2 0x547 JUMPI PUSH2 0x546 PUSH2 0x1C3C JUMP JUMPDEST JUMPDEST SWAP1 PUSH1 0x0 MSTORE PUSH1 0x20 PUSH1 0x0 KECCAK256 SWAP1 PUSH1 0x8 MUL ADD PUSH1 0x0 DUP3 ADD SLOAD DUP2 PUSH1 0x0 ADD SSTORE PUSH1 0x1 DUP3 ADD DUP2 PUSH1 0x1 ADD SWAP1 DUP2 PUSH2 0x573 SWAP2 SWAP1 PUSH2 0x1EE6 JUMP JUMPDEST POP PUSH1 0x2 DUP3 ADD SLOAD DUP2 PUSH1 0x2 ADD SSTORE PUSH1 0x3 DUP3 ADD PUSH1 0x0 SWAP1 SLOAD SWAP1 PUSH2 0x100 EXP SWAP1 DIV PUSH20 0xFFFFFFFFFFFFFFFFFFFFFFFFFFFFFFFFFFFFFFFF AND DUP2 PUSH1 0x3 ADD PUSH1 0x0 PUSH2 0x100 EXP DUP2 SLOAD DUP2 PUSH20 0xFFFFFFFFFFFFFFFFFFFFFFFFFFFFFFFFFFFFFFFF MUL NOT AND SWAP1 DUP4 PUSH20 0xFFFFFFFFFFFFFFFFFFFFFFFFFFFFFFFFFFFFFFFF AND MUL OR SWAP1 SSTORE POP PUSH1 0x4 DUP3 ADD PUSH1 0x0 SWAP1 SLOAD SWAP1 PUSH2 0x100 EXP SWAP1 DIV PUSH20 0xFFFFFFFFFFFFFFFFFFFFFFFFFFFFFFFFFFFFFFFF AND DUP2 PUSH1 0x4 ADD PUSH1 0x0 PUSH2 0x100 EXP DUP2 SLOAD DUP2 PUSH20 0xFFFFFFFFFFFFFFFFFFFFFFFFFFFFFFFFFFFFFFFF MUL NOT AND SWAP1 DUP4 PUSH20 0xFFFFFFFFFFFFFFFFFFFFFFFFFFFFFFFFFFFFFFFF AND MUL OR SWAP1 SSTORE POP PUSH1 0x5 DUP3 ADD SLOAD DUP2 PUSH1 0x5 ADD SSTORE PUSH1 0x6 DUP3 ADD DUP2 PUSH1 0x6 ADD SWAP1 DUP2 PUSH2 0x66A SWAP2 SWAP1 PUSH2 0x1EE6 JUMP JUMPDEST POP PUSH1 0x7 DUP3 ADD DUP2 PUSH1 0x7 ADD SWAP1 DUP2 PUSH2 0x67F SWAP2 SWAP1 PUSH2 0x1EE6 JUMP JUMPDEST POP SWAP1 POP POP JUMPDEST DUP1 DUP1 PUSH2 0x68F SWAP1 PUSH2 0x1FCE JUMP JUMPDEST SWAP2 POP POP PUSH2 0x478 JUMP JUMPDEST POP PUSH1 0x2 PUSH1 0x0 PUSH1 0x1 DUP2 MSTORE PUSH1 0x20 ADD SWAP1 DUP2 MSTORE PUSH1 0x20 ADD PUSH1 0x0 KECCAK256 DUP1 SLOAD DUP1 PUSH2 0x6BC JUMPI PUSH2 0x6BB PUSH2 0x2016 JUMP JUMPDEST JUMPDEST PUSH1 0x1 SWAP1 SUB DUP2 DUP2 SWAP1 PUSH1 0x0 MSTORE PUSH1 0x20 PUSH1 0x0 KECCAK256 SWAP1 PUSH1 0x8 MUL ADD PUSH1 0x0 DUP1 DUP3 ADD PUSH1 0x0 SWAP1 SSTORE PUSH1 0x1 DUP3 ADD PUSH1 0x0 PUSH2 0x6E9 SWAP2 SWAP1 PUSH2 0x1569 JUMP JUMPDEST PUSH1 0x2 DUP3 ADD PUSH1 0x0 SWAP1 SSTORE PUSH1 0x3 DUP3 ADD PUSH1 0x0 PUSH2 0x100 EXP DUP2 SLOAD SWAP1 PUSH20 0xFFFFFFFFFFFFFFFFFFFFFFFFFFFFFFFFFFFFFFFF MUL NOT AND SWAP1 SSTORE PUSH1 0x4 DUP3 ADD PUSH1 0x0 PUSH2 0x100 EXP DUP2 SLOAD SWAP1 PUSH20 0xFFFFFFFFFFFFFFFFFFFFFFFFFFFFFFFFFFFFFFFF MUL NOT AND SWAP1 SSTORE PUSH1 0x5 DUP3 ADD PUSH1 0x0 SWAP1 SSTORE PUSH1 0x6 DUP3 ADD PUSH1 0x0 PUSH2 0x757 SWAP2 SWAP1 PUSH2 0x1569 JUMP JUMPDEST PUSH1 0x7 DUP3 ADD PUSH1 0x0 PUSH2 0x767 SWAP2 SWAP1 PUSH2 0x1569 JUMP JUMPDEST POP POP SWAP1 SSTORE PUSH1 0x2 PUSH1 0x0 PUSH1 0x3 DUP2 MSTORE PUSH1 0x20 ADD SWAP1 DUP2 MSTORE PUSH1 0x20 ADD PUSH1 0x0 KECCAK256 PUSH1 0x1 DUP3 DUP2 SLOAD DUP2 LT PUSH2 0x793 JUMPI PUSH2 0x792 PUSH2 0x1C3C JUMP JUMPDEST JUMPDEST SWAP1 PUSH1 0x0 MSTORE PUSH1 0x20 PUSH1 0x0 KECCAK256 SWAP1 PUSH1 0x8 MUL ADD SWAP1 DUP1 PUSH1 0x1 DUP2 SLOAD ADD DUP1 DUP3 SSTORE DUP1 SWAP2 POP POP PUSH1 0x1 SWAP1 SUB SWAP1 PUSH1 0x0 MSTORE PUSH1 0x20 PUSH1 0x0 KECCAK256 SWAP1 PUSH1 0x8 MUL ADD PUSH1 0x0 SWAP1 SWAP2 SWAP1 SWAP2 SWAP1 SWAP2 POP PUSH1 0x0 DUP3 ADD SLOAD DUP2 PUSH1 0x0 ADD SSTORE PUSH1 0x1 DUP3 ADD DUP2 PUSH1 0x1 ADD SWAP1 DUP2 PUSH2 0x7E8 SWAP2 SWAP1 PUSH2 0x1EE6 JUMP JUMPDEST POP PUSH1 0x2 DUP3 ADD SLOAD DUP2 PUSH1 0x2 ADD SSTORE PUSH1 0x3 DUP3 ADD PUSH1 0x0 SWAP1 SLOAD SWAP1 PUSH2 0x100 EXP SWAP1 DIV PUSH20 0xFFFFFFFFFFFFFFFFFFFFFFFFFFFFFFFFFFFFFFFF AND DUP2 PUSH1 0x3 ADD PUSH1 0x0 PUSH2 0x100 EXP DUP2 SLOAD DUP2 PUSH20 0xFFFFFFFFFFFFFFFFFFFFFFFFFFFFFFFFFFFFFFFF MUL NOT AND SWAP1 DUP4 PUSH20 0xFFFFFFFFFFFFFFFFFFFFFFFFFFFFFFFFFFFFFFFF AND MUL OR SWAP1 SSTORE POP PUSH1 0x4 DUP3 ADD PUSH1 0x0 SWAP1 SLOAD SWAP1 PUSH2 0x100 EXP SWAP1 DIV PUSH20 0xFFFFFFFFFFFFFFFFFFFFFFFFFFFFFFFFFFFFFFFF AND DUP2 PUSH1 0x4 ADD PUSH1 0x0 PUSH2 0x100 EXP DUP2 SLOAD DUP2 PUSH20 0xFFFFFFFFFFFFFFFFFFFFFFFFFFFFFFFFFFFFFFFF MUL NOT AND SWAP1 DUP4 PUSH20 0xFFFFFFFFFFFFFFFFFFFFFFFFFFFFFFFFFFFFFFFF AND MUL OR SWAP1 SSTORE POP PUSH1 0x5 DUP3 ADD SLOAD DUP2 PUSH1 0x5 ADD SSTORE PUSH1 0x6 DUP3 ADD DUP2 PUSH1 0x6 ADD SWAP1 DUP2 PUSH2 0x8DF SWAP2 SWAP1 PUSH2 0x1EE6 JUMP JUMPDEST POP PUSH1 0x7 DUP3 ADD DUP2 PUSH1 0x7 ADD SWAP1 DUP2 PUSH2 0x8F4 SWAP2 SWAP1 PUSH2 0x1EE6 JUMP JUMPDEST POP POP POP POP JUMP JUMPDEST PUSH1 0x1 DUP2 DUP2 SLOAD DUP2 LT PUSH2 0x90A JUMPI PUSH1 0x0 DUP1 REVERT JUMPDEST SWAP1 PUSH1 0x0 MSTORE PUSH1 0x20 PUSH1 0x0 KECCAK256 SWAP1 PUSH1 0x8 MUL ADD PUSH1 0x0 SWAP2 POP SWAP1 POP DUP1 PUSH1 0x0 ADD SLOAD SWAP1 DUP1 PUSH1 0x1 ADD DUP1 SLOAD PUSH2 0x933 SWAP1 PUSH2 0x1C0B JUMP JUMPDEST DUP1 PUSH1 0x1F ADD PUSH1 0x20 DUP1 SWAP2 DIV MUL PUSH1 0x20 ADD PUSH1 0x40 MLOAD SWAP1 DUP2 ADD PUSH1 0x40 MSTORE DUP1 SWAP3 SWAP2 SWAP1 DUP2 DUP2 MSTORE PUSH1 0x20 ADD DUP3 DUP1 SLOAD PUSH2 0x95F SWAP1 PUSH2 0x1C0B JUMP JUMPDEST DUP1 ISZERO PUSH2 0x9AC JUMPI DUP1 PUSH1 0x1F LT PUSH2 0x981 JUMPI PUSH2 0x100 DUP1 DUP4 SLOAD DIV MUL DUP4 MSTORE SWAP2 PUSH1 0x20 ADD SWAP2 PUSH2 0x9AC JUMP JUMPDEST DUP3 ADD SWAP2 SWAP1 PUSH1 0x0 MSTORE PUSH1 0x20 PUSH1 0x0 KECCAK256 SWAP1 JUMPDEST DUP2 SLOAD DUP2 MSTORE SWAP1 PUSH1 0x1 ADD SWAP1 PUSH1 0x20 ADD DUP1 DUP4 GT PUSH2 0x98F JUMPI DUP3 SWAP1 SUB PUSH1 0x1F AND DUP3 ADD SWAP2 JUMPDEST POP POP POP POP POP SWAP1 DUP1 PUSH1 0x2 ADD SLOAD SWAP1 DUP1 PUSH1 0x3 ADD PUSH1 0x0 SWAP1 SLOAD SWAP1 PUSH2 0x100 EXP SWAP1 DIV PUSH20 0xFFFFFFFFFFFFFFFFFFFFFFFFFFFFFFFFFFFFFFFF AND SWAP1 DUP1 PUSH1 0x4 ADD PUSH1 0x0 SWAP1 SLOAD SWAP1 PUSH2 0x100 EXP SWAP1 DIV PUSH20 0xFFFFFFFFFFFFFFFFFFFFFFFFFFFFFFFFFFFFFFFF AND SWAP1 DUP1 PUSH1 0x5 ADD SLOAD SWAP1 DUP1 PUSH1 0x6 ADD DUP1 SLOAD PUSH2 0xA19 SWAP1 PUSH2 0x1C0B JUMP JUMPDEST DUP1 PUSH1 0x1F ADD PUSH1 0x20 DUP1 SWAP2 DIV MUL PUSH1 0x20 ADD PUSH1 0x40 MLOAD SWAP1 DUP2 ADD PUSH1 0x40 MSTORE DUP1 SWAP3 SWAP2 SWAP1 DUP2 DUP2 MSTORE PUSH1 0x20 ADD DUP3 DUP1 SLOAD PUSH2 0xA45 SWAP1 PUSH2 0x1C0B JUMP JUMPDEST DUP1 ISZERO PUSH2 0xA92 JUMPI DUP1 PUSH1 0x1F LT PUSH2 0xA67 JUMPI PUSH2 0x100 DUP1 DUP4 SLOAD DIV MUL DUP4 MSTORE SWAP2 PUSH1 0x20 ADD SWAP2 PUSH2 0xA92 JUMP JUMPDEST DUP3 ADD SWAP2 SWAP1 PUSH1 0x0 MSTORE PUSH1 0x20 PUSH1 0x0 KECCAK256 SWAP1 JUMPDEST DUP2 SLOAD DUP2 MSTORE SWAP1 PUSH1 0x1 ADD SWAP1 PUSH1 0x20 ADD DUP1 DUP4 GT PUSH2 0xA75 JUMPI DUP3 SWAP1 SUB PUSH1 0x1F AND DUP3 ADD SWAP2 JUMPDEST POP POP POP POP POP SWAP1 DUP1 PUSH1 0x7 ADD DUP1 SLOAD PUSH2 0xAA7 SWAP1 PUSH2 0x1C0B JUMP JUMPDEST DUP1 PUSH1 0x1F ADD PUSH1 0x20 DUP1 SWAP2 DIV MUL PUSH1 0x20 ADD PUSH1 0x40 MLOAD SWAP1 DUP2 ADD PUSH1 0x40 MSTORE DUP1 SWAP3 SWAP2 SWAP1 DUP2 DUP2 MSTORE PUSH1 0x20 ADD DUP3 DUP1 SLOAD PUSH2 0xAD3 SWAP1 PUSH2 0x1C0B JUMP JUMPDEST DUP1 ISZERO PUSH2 0xB20 JUMPI DUP1 PUSH1 0x1F LT PUSH2 0xAF5 JUMPI PUSH2 0x100 DUP1 DUP4 SLOAD DIV MUL DUP4 MSTORE SWAP2 PUSH1 0x20 ADD SWAP2 PUSH2 0xB20 JUMP JUMPDEST DUP3 ADD SWAP2 SWAP1 PUSH1 0x0 MSTORE PUSH1 0x20 PUSH1 0x0 KECCAK256 SWAP1 JUMPDEST DUP2 SLOAD DUP2 MSTORE SWAP1 PUSH1 0x1 ADD SWAP1 PUSH1 0x20 ADD DUP1 DUP4 GT PUSH2 0xB03 JUMPI DUP3 SWAP1 SUB PUSH1 0x1F AND DUP3 ADD SWAP2 JUMPDEST POP POP POP POP POP SWAP1 POP DUP9 JUMP JUMPDEST PUSH1 0x60 PUSH1 0x0 DUP3 SUB PUSH2 0xE14 JUMPI PUSH1 0x1 DUP1 SLOAD DUP1 PUSH1 0x20 MUL PUSH1 0x20 ADD PUSH1 0x40 MLOAD SWAP1 DUP2 ADD PUSH1 0x40 MSTORE DUP1 SWAP3 SWAP2 SWAP1 DUP2 DUP2 MSTORE PUSH1 0x20 ADD PUSH1 0x0 SWAP1 JUMPDEST DUP3 DUP3 LT ISZERO PUSH2 0xE09 JUMPI DUP4 DUP3 SWAP1 PUSH1 0x0 MSTORE PUSH1 0x20 PUSH1 0x0 KECCAK256 SWAP1 PUSH1 0x8 MUL ADD PUSH1 0x40 MLOAD DUP1 PUSH2 0x100 ADD PUSH1 0x40 MSTORE SWAP1 DUP2 PUSH1 0x0 DUP3 ADD SLOAD DUP2 MSTORE PUSH1 0x20 ADD PUSH1 0x1 DUP3 ADD DUP1 SLOAD PUSH2 0xB94 SWAP1 PUSH2 0x1C0B JUMP JUMPDEST DUP1 PUSH1 0x1F ADD PUSH1 0x20 DUP1 SWAP2 DIV MUL PUSH1 0x20 ADD PUSH1 0x40 MLOAD SWAP1 DUP2 ADD PUSH1 0x40 MSTORE DUP1 SWAP3 SWAP2 SWAP1 DUP2 DUP2 MSTORE PUSH1 0x20 ADD DUP3 DUP1 SLOAD PUSH2 0xBC0 SWAP1 PUSH2 0x1C0B JUMP JUMPDEST DUP1 ISZERO PUSH2 0xC0D JUMPI DUP1 PUSH1 0x1F LT PUSH2 0xBE2 JUMPI PUSH2 0x100 DUP1 DUP4 SLOAD DIV MUL DUP4 MSTORE SWAP2 PUSH1 0x20 ADD SWAP2 PUSH2 0xC0D JUMP JUMPDEST DUP3 ADD SWAP2 SWAP1 PUSH1 0x0 MSTORE PUSH1 0x20 PUSH1 0x0 KECCAK256 SWAP1 JUMPDEST DUP2 SLOAD DUP2 MSTORE SWAP1 PUSH1 0x1 ADD SWAP1 PUSH1 0x20 ADD DUP1 DUP4 GT PUSH2 0xBF0 JUMPI DUP3 SWAP1 SUB PUSH1 0x1F AND DUP3 ADD SWAP2 JUMPDEST POP POP POP POP POP DUP2 MSTORE PUSH1 0x20 ADD PUSH1 0x2 DUP3 ADD SLOAD DUP2 MSTORE PUSH1 0x20 ADD PUSH1 0x3 DUP3 ADD PUSH1 0x0 SWAP1 SLOAD SWAP1 PUSH2 0x100 EXP SWAP1 DIV PUSH20 0xFFFFFFFFFFFFFFFFFFFFFFFFFFFFFFFFFFFFFFFF AND PUSH20 0xFFFFFFFFFFFFFFFFFFFFFFFFFFFFFFFFFFFFFFFF AND PUSH20 0xFFFFFFFFFFFFFFFFFFFFFFFFFFFFFFFFFFFFFFFF AND DUP2 MSTORE PUSH1 0x20 ADD PUSH1 0x4 DUP3 ADD PUSH1 0x0 SWAP1 SLOAD SWAP1 PUSH2 0x100 EXP SWAP1 DIV PUSH20 0xFFFFFFFFFFFFFFFFFFFFFFFFFFFFFFFFFFFFFFFF AND PUSH20 0xFFFFFFFFFFFFFFFFFFFFFFFFFFFFFFFFFFFFFFFF AND PUSH20 0xFFFFFFFFFFFFFFFFFFFFFFFFFFFFFFFFFFFFFFFF AND DUP2 MSTORE PUSH1 0x20 ADD PUSH1 0x5 DUP3 ADD SLOAD DUP2 MSTORE PUSH1 0x20 ADD PUSH1 0x6 DUP3 ADD DUP1 SLOAD PUSH2 0xCE6 SWAP1 PUSH2 0x1C0B JUMP JUMPDEST DUP1 PUSH1 0x1F ADD PUSH1 0x20 DUP1 SWAP2 DIV MUL PUSH1 0x20 ADD PUSH1 0x40 MLOAD SWAP1 DUP2 ADD PUSH1 0x40 MSTORE DUP1 SWAP3 SWAP2 SWAP1 DUP2 DUP2 MSTORE PUSH1 0x20 ADD DUP3 DUP1 SLOAD PUSH2 0xD12 SWAP1 PUSH2 0x1C0B JUMP JUMPDEST DUP1 ISZERO PUSH2 0xD5F JUMPI DUP1 PUSH1 0x1F LT PUSH2 0xD34 JUMPI PUSH2 0x100 DUP1 DUP4 SLOAD DIV MUL DUP4 MSTORE SWAP2 PUSH1 0x20 ADD SWAP2 PUSH2 0xD5F JUMP JUMPDEST DUP3 ADD SWAP2 SWAP1 PUSH1 0x0 MSTORE PUSH1 0x20 PUSH1 0x0 KECCAK256 SWAP1 JUMPDEST DUP2 SLOAD DUP2 MSTORE SWAP1 PUSH1 0x1 ADD SWAP1 PUSH1 0x20 ADD DUP1 DUP4 GT PUSH2 0xD42 JUMPI DUP3 SWAP1 SUB PUSH1 0x1F AND DUP3 ADD SWAP2 JUMPDEST POP POP POP POP POP DUP2 MSTORE PUSH1 0x20 ADD PUSH1 0x7 DUP3 ADD DUP1 SLOAD PUSH2 0xD78 SWAP1 PUSH2 0x1C0B JUMP JUMPDEST DUP1 PUSH1 0x1F ADD PUSH1 0x20 DUP1 SWAP2 DIV MUL PUSH1 0x20 ADD PUSH1 0x40 MLOAD SWAP1 DUP2 ADD PUSH1 0x40 MSTORE DUP1 SWAP3 SWAP2 SWAP1 DUP2 DUP2 MSTORE PUSH1 0x20 ADD DUP3 DUP1 SLOAD PUSH2 0xDA4 SWAP1 PUSH2 0x1C0B JUMP JUMPDEST DUP1 ISZERO PUSH2 0xDF1 JUMPI DUP1 PUSH1 0x1F LT PUSH2 0xDC6 JUMPI PUSH2 0x100 DUP1 DUP4 SLOAD DIV MUL DUP4 MSTORE SWAP2 PUSH1 0x20 ADD SWAP2 PUSH2 0xDF1 JUMP JUMPDEST DUP3 ADD SWAP2 SWAP1 PUSH1 0x0 MSTORE PUSH1 0x20 PUSH1 0x0 KECCAK256 SWAP1 JUMPDEST DUP2 SLOAD DUP2 MSTORE SWAP1 PUSH1 0x1 ADD SWAP1 PUSH1 0x20 ADD DUP1 DUP4 GT PUSH2 0xDD4 JUMPI DUP3 SWAP1 SUB PUSH1 0x1F AND DUP3 ADD SWAP2 JUMPDEST POP POP POP POP POP DUP2 MSTORE POP POP DUP2 MSTORE PUSH1 0x20 ADD SWAP1 PUSH1 0x1 ADD SWAP1 PUSH2 0xB56 JUMP JUMPDEST POP POP POP POP SWAP1 POP PUSH2 0x1101 JUMP JUMPDEST PUSH1 0x2 PUSH1 0x0 DUP4 DUP2 MSTORE PUSH1 0x20 ADD SWAP1 DUP2 MSTORE PUSH1 0x20 ADD PUSH1 0x0 KECCAK256 DUP1 SLOAD DUP1 PUSH1 0x20 MUL PUSH1 0x20 ADD PUSH1 0x40 MLOAD SWAP1 DUP2 ADD PUSH1 0x40 MSTORE DUP1 SWAP3 SWAP2 SWAP1 DUP2 DUP2 MSTORE PUSH1 0x20 ADD PUSH1 0x0 SWAP1 JUMPDEST DUP3 DUP3 LT ISZERO PUSH2 0x10FA JUMPI DUP4 DUP3 SWAP1 PUSH1 0x0 MSTORE PUSH1 0x20 PUSH1 0x0 KECCAK256 SWAP1 PUSH1 0x8 MUL ADD PUSH1 0x40 MLOAD DUP1 PUSH2 0x100 ADD PUSH1 0x40 MSTORE SWAP1 DUP2 PUSH1 0x0 DUP3 ADD SLOAD DUP2 MSTORE PUSH1 0x20 ADD PUSH1 0x1 DUP3 ADD DUP1 SLOAD PUSH2 0xE85 SWAP1 PUSH2 0x1C0B JUMP JUMPDEST DUP1 PUSH1 0x1F ADD PUSH1 0x20 DUP1 SWAP2 DIV MUL PUSH1 0x20 ADD PUSH1 0x40 MLOAD SWAP1 DUP2 ADD PUSH1 0x40 MSTORE DUP1 SWAP3 SWAP2 SWAP1 DUP2 DUP2 MSTORE PUSH1 0x20 ADD DUP3 DUP1 SLOAD PUSH2 0xEB1 SWAP1 PUSH2 0x1C0B JUMP JUMPDEST DUP1 ISZERO PUSH2 0xEFE JUMPI DUP1 PUSH1 0x1F LT PUSH2 0xED3 JUMPI PUSH2 0x100 DUP1 DUP4 SLOAD DIV MUL DUP4 MSTORE SWAP2 PUSH1 0x20 ADD SWAP2 PUSH2 0xEFE JUMP JUMPDEST DUP3 ADD SWAP2 SWAP1 PUSH1 0x0 MSTORE PUSH1 0x20 PUSH1 0x0 KECCAK256 SWAP1 JUMPDEST DUP2 SLOAD DUP2 MSTORE SWAP1 PUSH1 0x1 ADD SWAP1 PUSH1 0x20 ADD DUP1 DUP4 GT PUSH2 0xEE1 JUMPI DUP3 SWAP1 SUB PUSH1 0x1F AND DUP3 ADD SWAP2 JUMPDEST POP POP POP POP POP DUP2 MSTORE PUSH1 0x20 ADD PUSH1 0x2 DUP3 ADD SLOAD DUP2 MSTORE PUSH1 0x20 ADD PUSH1 0x3 DUP3 ADD PUSH1 0x0 SWAP1 SLOAD SWAP1 PUSH2 0x100 EXP SWAP1 DIV PUSH20 0xFFFFFFFFFFFFFFFFFFFFFFFFFFFFFFFFFFFFFFFF AND PUSH20 0xFFFFFFFFFFFFFFFFFFFFFFFFFFFFFFFFFFFFFFFF AND PUSH20 0xFFFFFFFFFFFFFFFFFFFFFFFFFFFFFFFFFFFFFFFF AND DUP2 MSTORE PUSH1 0x20 ADD PUSH1 0x4 DUP3 ADD PUSH1 0x0 SWAP1 SLOAD SWAP1 PUSH2 0x100 EXP SWAP1 DIV PUSH20 0xFFFFFFFFFFFFFFFFFFFFFFFFFFFFFFFFFFFFFFFF AND PUSH20 0xFFFFFFFFFFFFFFFFFFFFFFFFFFFFFFFFFFFFFFFF AND PUSH20 0xFFFFFFFFFFFFFFFFFFFFFFFFFFFFFFFFFFFFFFFF AND DUP2 MSTORE PUSH1 0x20 ADD PUSH1 0x5 DUP3 ADD SLOAD DUP2 MSTORE PUSH1 0x20 ADD PUSH1 0x6 DUP3 ADD DUP1 SLOAD PUSH2 0xFD7 SWAP1 PUSH2 0x1C0B JUMP JUMPDEST DUP1 PUSH1 0x1F ADD PUSH1 0x20 DUP1 SWAP2 DIV MUL PUSH1 0x20 ADD PUSH1 0x40 MLOAD SWAP1 DUP2 ADD PUSH1 0x40 MSTORE DUP1 SWAP3 SWAP2 SWAP1 DUP2 DUP2 MSTORE PUSH1 0x20 ADD DUP3 DUP1 SLOAD PUSH2 0x1003 SWAP1 PUSH2 0x1C0B JUMP JUMPDEST DUP1 ISZERO PUSH2 0x1050 JUMPI DUP1 PUSH1 0x1F LT PUSH2 0x1025 JUMPI PUSH2 0x100 DUP1 DUP4 SLOAD DIV MUL DUP4 MSTORE SWAP2 PUSH1 0x20 ADD SWAP2 PUSH2 0x1050 JUMP JUMPDEST DUP3 ADD SWAP2 SWAP1 PUSH1 0x0 MSTORE PUSH1 0x20 PUSH1 0x0 KECCAK256 SWAP1 JUMPDEST DUP2 SLOAD DUP2 MSTORE SWAP1 PUSH1 0x1 ADD SWAP1 PUSH1 0x20 ADD DUP1 DUP4 GT PUSH2 0x1033 JUMPI DUP3 SWAP1 SUB PUSH1 0x1F AND DUP3 ADD SWAP2 JUMPDEST POP POP POP POP POP DUP2 MSTORE PUSH1 0x20 ADD PUSH1 0x7 DUP3 ADD DUP1 SLOAD PUSH2 0x1069 SWAP1 PUSH2 0x1C0B JUMP JUMPDEST DUP1 PUSH1 0x1F ADD PUSH1 0x20 DUP1 SWAP2 DIV MUL PUSH1 0x20 ADD PUSH1 0x40 MLOAD SWAP1 DUP2 ADD PUSH1 0x40 MSTORE DUP1 SWAP3 SWAP2 SWAP1 DUP2 DUP2 MSTORE PUSH1 0x20 ADD DUP3 DUP1 SLOAD PUSH2 0x1095 SWAP1 PUSH2 0x1C0B JUMP JUMPDEST DUP1 ISZERO PUSH2 0x10E2 JUMPI DUP1 PUSH1 0x1F LT PUSH2 0x10B7 JUMPI PUSH2 0x100 DUP1 DUP4 SLOAD DIV MUL DUP4 MSTORE SWAP2 PUSH1 0x20 ADD SWAP2 PUSH2 0x10E2 JUMP JUMPDEST DUP3 ADD SWAP2 SWAP1 PUSH1 0x0 MSTORE PUSH1 0x20 PUSH1 0x0 KECCAK256 SWAP1 JUMPDEST DUP2 SLOAD DUP2 MSTORE SWAP1 PUSH1 0x1 ADD SWAP1 PUSH1 0x20 ADD DUP1 DUP4 GT PUSH2 0x10C5 JUMPI DUP3 SWAP1 SUB PUSH1 0x1F AND DUP3 ADD SWAP2 JUMPDEST POP POP POP POP POP DUP2 MSTORE POP POP DUP2 MSTORE PUSH1 0x20 ADD SWAP1 PUSH1 0x1 ADD SWAP1 PUSH2 0xE47 JUMP JUMPDEST POP POP POP POP SWAP1 POP JUMPDEST SWAP2 SWAP1 POP JUMP JUMPDEST PUSH1 0x0 DUP1 DUP2 SLOAD DUP1 SWAP3 SWAP2 SWAP1 PUSH2 0x1118 SWAP1 PUSH2 0x1FCE JUMP JUMPDEST SWAP2 SWAP1 POP SSTORE POP PUSH1 0x0 PUSH1 0x40 MLOAD DUP1 PUSH2 0x100 ADD PUSH1 0x40 MSTORE DUP1 PUSH1 0x0 SLOAD DUP2 MSTORE PUSH1 0x20 ADD DUP6 DUP2 MSTORE PUSH1 0x20 ADD PUSH1 0x1 DUP2 MSTORE PUSH1 0x20 ADD CALLER PUSH20 0xFFFFFFFFFFFFFFFFFFFFFFFFFFFFFFFFFFFFFFFF AND DUP2 MSTORE PUSH1 0x20 ADD DUP5 PUSH20 0xFFFFFFFFFFFFFFFFFFFFFFFFFFFFFFFFFFFFFFFF AND DUP2 MSTORE PUSH1 0x20 ADD PUSH1 0x0 DUP2 MSTORE PUSH1 0x20 ADD DUP4 DUP2 MSTORE PUSH1 0x20 ADD PUSH1 0x40 MLOAD DUP1 PUSH1 0x40 ADD PUSH1 0x40 MSTORE DUP1 PUSH1 0x1 DUP2 MSTORE PUSH1 0x20 ADD PUSH32 0x3000000000000000000000000000000000000000000000000000000000000000 DUP2 MSTORE POP DUP2 MSTORE POP SWAP1 POP PUSH1 0x1 DUP2 SWAP1 DUP1 PUSH1 0x1 DUP2 SLOAD ADD DUP1 DUP3 SSTORE DUP1 SWAP2 POP POP PUSH1 0x1 SWAP1 SUB SWAP1 PUSH1 0x0 MSTORE PUSH1 0x20 PUSH1 0x0 KECCAK256 SWAP1 PUSH1 0x8 MUL ADD PUSH1 0x0 SWAP1 SWAP2 SWAP1 SWAP2 SWAP1 SWAP2 POP PUSH1 0x0 DUP3 ADD MLOAD DUP2 PUSH1 0x0 ADD SSTORE PUSH1 0x20 DUP3 ADD MLOAD DUP2 PUSH1 0x1 ADD SWAP1 DUP2 PUSH2 0x120B SWAP2 SWAP1 PUSH2 0x2045 JUMP JUMPDEST POP PUSH1 0x40 DUP3 ADD MLOAD DUP2 PUSH1 0x2 ADD SSTORE PUSH1 0x60 DUP3 ADD MLOAD DUP2 PUSH1 0x3 ADD PUSH1 0x0 PUSH2 0x100 EXP DUP2 SLOAD DUP2 PUSH20 0xFFFFFFFFFFFFFFFFFFFFFFFFFFFFFFFFFFFFFFFF MUL NOT AND SWAP1 DUP4 PUSH20 0xFFFFFFFFFFFFFFFFFFFFFFFFFFFFFFFFFFFFFFFF AND MUL OR SWAP1 SSTORE POP PUSH1 0x80 DUP3 ADD MLOAD DUP2 PUSH1 0x4 ADD PUSH1 0x0 PUSH2 0x100 EXP DUP2 SLOAD DUP2 PUSH20 0xFFFFFFFFFFFFFFFFFFFFFFFFFFFFFFFFFFFFFFFF MUL NOT AND SWAP1 DUP4 PUSH20 0xFFFFFFFFFFFFFFFFFFFFFFFFFFFFFFFFFFFFFFFF AND MUL OR SWAP1 SSTORE POP PUSH1 0xA0 DUP3 ADD MLOAD DUP2 PUSH1 0x5 ADD SSTORE PUSH1 0xC0 DUP3 ADD MLOAD DUP2 PUSH1 0x6 ADD SWAP1 DUP2 PUSH2 0x12C3 SWAP2 SWAP1 PUSH2 0x2045 JUMP JUMPDEST POP PUSH1 0xE0 DUP3 ADD MLOAD DUP2 PUSH1 0x7 ADD SWAP1 DUP2 PUSH2 0x12D9 SWAP2 SWAP1 PUSH2 0x2045 JUMP JUMPDEST POP POP POP PUSH1 0x2 PUSH1 0x0 PUSH1 0x1 DUP2 MSTORE PUSH1 0x20 ADD SWAP1 DUP2 MSTORE PUSH1 0x20 ADD PUSH1 0x0 KECCAK256 DUP2 SWAP1 DUP1 PUSH1 0x1 DUP2 SLOAD ADD DUP1 DUP3 SSTORE DUP1 SWAP2 POP POP PUSH1 0x1 SWAP1 SUB SWAP1 PUSH1 0x0 MSTORE PUSH1 0x20 PUSH1 0x0 KECCAK256 SWAP1 PUSH1 0x8 MUL ADD PUSH1 0x0 SWAP1 SWAP2 SWAP1 SWAP2 SWAP1 SWAP2 POP PUSH1 0x0 DUP3 ADD MLOAD DUP2 PUSH1 0x0 ADD SSTORE PUSH1 0x20 DUP3 ADD MLOAD DUP2 PUSH1 0x1 ADD SWAP1 DUP2 PUSH2 0x1339 SWAP2 SWAP1 PUSH2 0x2045 JUMP JUMPDEST POP PUSH1 0x40 DUP3 ADD MLOAD DUP2 PUSH1 0x2 ADD SSTORE PUSH1 0x60 DUP3 ADD MLOAD DUP2 PUSH1 0x3 ADD PUSH1 0x0 PUSH2 0x100 EXP DUP2 SLOAD DUP2 PUSH20 0xFFFFFFFFFFFFFFFFFFFFFFFFFFFFFFFFFFFFFFFF MUL NOT AND SWAP1 DUP4 PUSH20 0xFFFFFFFFFFFFFFFFFFFFFFFFFFFFFFFFFFFFFFFF AND MUL OR SWAP1 SSTORE POP PUSH1 0x80 DUP3 ADD MLOAD DUP2 PUSH1 0x4 ADD PUSH1 0x0 PUSH2 0x100 EXP DUP2 SLOAD DUP2 PUSH20 0xFFFFFFFFFFFFFFFFFFFFFFFFFFFFFFFFFFFFFFFF MUL NOT AND SWAP1 DUP4 PUSH20 0xFFFFFFFFFFFFFFFFFFFFFFFFFFFFFFFFFFFFFFFF AND MUL OR SWAP1 SSTORE POP PUSH1 0xA0 DUP3 ADD MLOAD DUP2 PUSH1 0x5 ADD SSTORE PUSH1 0xC0 DUP3 ADD MLOAD DUP2 PUSH1 0x6 ADD SWAP1 DUP2 PUSH2 0x13F1 SWAP2 SWAP1 PUSH2 0x2045 JUMP JUMPDEST POP PUSH1 0xE0 DUP3 ADD MLOAD DUP2 PUSH1 0x7 ADD SWAP1 DUP2 PUSH2 0x1407 SWAP2 SWAP1 PUSH2 0x2045 JUMP JUMPDEST POP POP POP PUSH1 0x3 PUSH1 0x0 CALLER PUSH20 0xFFFFFFFFFFFFFFFFFFFFFFFFFFFFFFFFFFFFFFFF AND PUSH20 0xFFFFFFFFFFFFFFFFFFFFFFFFFFFFFFFFFFFFFFFF AND DUP2 MSTORE PUSH1 0x20 ADD SWAP1 DUP2 MSTORE PUSH1 0x20 ADD PUSH1 0x0 KECCAK256 DUP2 SWAP1 DUP1 PUSH1 0x1 DUP2 SLOAD ADD DUP1 DUP3 SSTORE DUP1 SWAP2 POP POP PUSH1 0x1 SWAP1 SUB SWAP1 PUSH1 0x0 MSTORE PUSH1 0x20 PUSH1 0x0 KECCAK256 SWAP1 PUSH1 0x8 MUL ADD PUSH1 0x0 SWAP1 SWAP2 SWAP1 SWAP2 SWAP1 SWAP2 POP PUSH1 0x0 DUP3 ADD MLOAD DUP2 PUSH1 0x0 ADD SSTORE PUSH1 0x20 DUP3 ADD MLOAD DUP2 PUSH1 0x1 ADD SWAP1 DUP2 PUSH2 0x1492 SWAP2 SWAP1 PUSH2 0x2045 JUMP JUMPDEST POP PUSH1 0x40 DUP3 ADD MLOAD DUP2 PUSH1 0x2 ADD SSTORE PUSH1 0x60 DUP3 ADD MLOAD DUP2 PUSH1 0x3 ADD PUSH1 0x0 PUSH2 0x100 EXP DUP2 SLOAD DUP2 PUSH20 0xFFFFFFFFFFFFFFFFFFFFFFFFFFFFFFFFFFFFFFFF MUL NOT AND SWAP1 DUP4 PUSH20 0xFFFFFFFFFFFFFFFFFFFFFFFFFFFFFFFFFFFFFFFF AND MUL OR SWAP1 SSTORE POP PUSH1 0x80 DUP3 ADD MLOAD DUP2 PUSH1 0x4 ADD PUSH1 0x0 PUSH2 0x100 EXP DUP2 SLOAD DUP2 PUSH20 0xFFFFFFFFFFFFFFFFFFFFFFFFFFFFFFFFFFFFFFFF MUL NOT AND SWAP1 DUP4 PUSH20 0xFFFFFFFFFFFFFFFFFFFFFFFFFFFFFFFFFFFFFFFF AND MUL OR SWAP1 SSTORE POP PUSH1 0xA0 DUP3 ADD MLOAD DUP2 PUSH1 0x5 ADD SSTORE PUSH1 0xC0 DUP3 ADD MLOAD DUP2 PUSH1 0x6 ADD SWAP1 DUP2 PUSH2 0x154A SWAP2 SWAP1 PUSH2 0x2045 JUMP JUMPDEST POP PUSH1 0xE0 DUP3 ADD MLOAD DUP2 PUSH1 0x7 ADD SWAP1 DUP2 PUSH2 0x1560 SWAP2 SWAP1 PUSH2 0x2045 JUMP JUMPDEST POP POP POP POP POP POP POP JUMP JUMPDEST POP DUP1 SLOAD PUSH2 0x1575 SWAP1 PUSH2 0x1C0B JUMP JUMPDEST PUSH1 0x0 DUP3 SSTORE DUP1 PUSH1 0x1F LT PUSH2 0x1587 JUMPI POP PUSH2 0x15A6 JUMP JUMPDEST PUSH1 0x1F ADD PUSH1 0x20 SWAP1 DIV SWAP1 PUSH1 0x0 MSTORE PUSH1 0x20 PUSH1 0x0 KECCAK256 SWAP1 DUP2 ADD SWAP1 PUSH2 0x15A5 SWAP2 SWAP1 PUSH2 0x15A9 JUMP JUMPDEST JUMPDEST POP JUMP JUMPDEST JUMPDEST DUP1 DUP3 GT ISZERO PUSH2 0x15C2 JUMPI PUSH1 0x0 DUP2 PUSH1 0x0 SWAP1 SSTORE POP PUSH1 0x1 ADD PUSH2 0x15AA JUMP JUMPDEST POP SWAP1 JUMP JUMPDEST PUSH1 0x0 PUSH1 0x40 MLOAD SWAP1 POP SWAP1 JUMP JUMPDEST PUSH1 0x0 DUP1 REVERT JUMPDEST PUSH1 0x0 DUP1 REVERT JUMPDEST PUSH1 0x0 PUSH20 0xFFFFFFFFFFFFFFFFFFFFFFFFFFFFFFFFFFFFFFFF DUP3 AND SWAP1 POP SWAP2 SWAP1 POP JUMP JUMPDEST PUSH1 0x0 PUSH2 0x1605 DUP3 PUSH2 0x15DA JUMP JUMPDEST SWAP1 POP SWAP2 SWAP1 POP JUMP JUMPDEST PUSH2 0x1615 DUP2 PUSH2 0x15FA JUMP JUMPDEST DUP2 EQ PUSH2 0x1620 JUMPI PUSH1 0x0 DUP1 REVERT JUMPDEST POP JUMP JUMPDEST PUSH1 0x0 DUP2 CALLDATALOAD SWAP1 POP PUSH2 0x1632 DUP2 PUSH2 0x160C JUMP JUMPDEST SWAP3 SWAP2 POP POP JUMP JUMPDEST PUSH1 0x0 PUSH1 0x20 DUP3 DUP5 SUB SLT ISZERO PUSH2 0x164E JUMPI PUSH2 0x164D PUSH2 0x15D0 JUMP JUMPDEST JUMPDEST PUSH1 0x0 PUSH2 0x165C DUP5 DUP3 DUP6 ADD PUSH2 0x1623 JUMP JUMPDEST SWAP2 POP POP SWAP3 SWAP2 POP POP JUMP JUMPDEST PUSH1 0x0 DUP2 MLOAD SWAP1 POP SWAP2 SWAP1 POP JUMP JUMPDEST PUSH1 0x0 DUP3 DUP3 MSTORE PUSH1 0x20 DUP3 ADD SWAP1 POP SWAP3 SWAP2 POP POP JUMP JUMPDEST PUSH1 0x0 DUP2 SWAP1 POP PUSH1 0x20 DUP3 ADD SWAP1 POP SWAP2 SWAP1 POP JUMP JUMPDEST PUSH1 0x0 DUP2 SWAP1 POP SWAP2 SWAP1 POP JUMP JUMPDEST PUSH2 0x16A4 DUP2 PUSH2 0x1691 JUMP JUMPDEST DUP3 MSTORE POP POP JUMP JUMPDEST PUSH1 0x0 DUP2 MLOAD SWAP1 POP SWAP2 SWAP1 POP JUMP JUMPDEST PUSH1 0x0 DUP3 DUP3 MSTORE PUSH1 0x20 DUP3 ADD SWAP1 POP SWAP3 SWAP2 POP POP JUMP JUMPDEST PUSH1 0x0 JUMPDEST DUP4 DUP2 LT ISZERO PUSH2 0x16E4 JUMPI DUP1 DUP3 ADD MLOAD DUP2 DUP5 ADD MSTORE PUSH1 0x20 DUP2 ADD SWAP1 POP PUSH2 0x16C9 JUMP JUMPDEST DUP4 DUP2 GT ISZERO PUSH2 0x16F3 JUMPI PUSH1 0x0 DUP5 DUP5 ADD MSTORE JUMPDEST POP POP POP POP JUMP JUMPDEST PUSH1 0x0 PUSH1 0x1F NOT PUSH1 0x1F DUP4 ADD AND SWAP1 POP SWAP2 SWAP1 POP JUMP JUMPDEST PUSH1 0x0 PUSH2 0x1715 DUP3 PUSH2 0x16AA JUMP JUMPDEST PUSH2 0x171F DUP2 DUP6 PUSH2 0x16B5 JUMP JUMPDEST SWAP4 POP PUSH2 0x172F DUP2 DUP6 PUSH1 0x20 DUP7 ADD PUSH2 0x16C6 JUMP JUMPDEST PUSH2 0x1738 DUP2 PUSH2 0x16F9 JUMP JUMPDEST DUP5 ADD SWAP2 POP POP SWAP3 SWAP2 POP POP JUMP JUMPDEST PUSH2 0x174C DUP2 PUSH2 0x15FA JUMP JUMPDEST DUP3 MSTORE POP POP JUMP JUMPDEST PUSH1 0x0 PUSH2 0x100 DUP4 ADD PUSH1 0x0 DUP4 ADD MLOAD PUSH2 0x176B PUSH1 0x0 DUP7 ADD DUP3 PUSH2 0x169B JUMP JUMPDEST POP PUSH1 0x20 DUP4 ADD MLOAD DUP5 DUP3 SUB PUSH1 0x20 DUP7 ADD MSTORE PUSH2 0x1783 DUP3 DUP3 PUSH2 0x170A JUMP JUMPDEST SWAP2 POP POP PUSH1 0x40 DUP4 ADD MLOAD PUSH2 0x1798 PUSH1 0x40 DUP7 ADD DUP3 PUSH2 0x169B JUMP JUMPDEST POP PUSH1 0x60 DUP4 ADD MLOAD PUSH2 0x17AB PUSH1 0x60 DUP7 ADD DUP3 PUSH2 0x1743 JUMP JUMPDEST POP PUSH1 0x80 DUP4 ADD MLOAD PUSH2 0x17BE PUSH1 0x80 DUP7 ADD DUP3 PUSH2 0x1743 JUMP JUMPDEST POP PUSH1 0xA0 DUP4 ADD MLOAD PUSH2 0x17D1 PUSH1 0xA0 DUP7 ADD DUP3 PUSH2 0x169B JUMP JUMPDEST POP PUSH1 0xC0 DUP4 ADD MLOAD DUP5 DUP3 SUB PUSH1 0xC0 DUP7 ADD MSTORE PUSH2 0x17E9 DUP3 DUP3 PUSH2 0x170A JUMP JUMPDEST SWAP2 POP POP PUSH1 0xE0 DUP4 ADD MLOAD DUP5 DUP3 SUB PUSH1 0xE0 DUP7 ADD MSTORE PUSH2 0x1803 DUP3 DUP3 PUSH2 0x170A JUMP JUMPDEST SWAP2 POP POP DUP1 SWAP2 POP POP SWAP3 SWAP2 POP POP JUMP JUMPDEST PUSH1 0x0 PUSH2 0x181C DUP4 DUP4 PUSH2 0x1752 JUMP JUMPDEST SWAP1 POP SWAP3 SWAP2 POP POP JUMP JUMPDEST PUSH1 0x0 PUSH1 0x20 DUP3 ADD SWAP1 POP SWAP2 SWAP1 POP JUMP JUMPDEST PUSH1 0x0 PUSH2 0x183C DUP3 PUSH2 0x1665 JUMP JUMPDEST PUSH2 0x1846 DUP2 DUP6 PUSH2 0x1670 JUMP JUMPDEST SWAP4 POP DUP4 PUSH1 0x20 DUP3 MUL DUP6 ADD PUSH2 0x1858 DUP6 PUSH2 0x1681 JUMP JUMPDEST DUP1 PUSH1 0x0 JUMPDEST DUP6 DUP2 LT ISZERO PUSH2 0x1894 JUMPI DUP5 DUP5 SUB DUP10 MSTORE DUP2 MLOAD PUSH2 0x1875 DUP6 DUP3 PUSH2 0x1810 JUMP JUMPDEST SWAP5 POP PUSH2 0x1880 DUP4 PUSH2 0x1824 JUMP JUMPDEST SWAP3 POP PUSH1 0x20 DUP11 ADD SWAP10 POP POP PUSH1 0x1 DUP2 ADD SWAP1 POP PUSH2 0x185C JUMP JUMPDEST POP DUP3 SWAP8 POP DUP8 SWAP6 POP POP POP POP POP POP SWAP3 SWAP2 POP POP JUMP JUMPDEST PUSH1 0x0 PUSH1 0x20 DUP3 ADD SWAP1 POP DUP2 DUP2 SUB PUSH1 0x0 DUP4 ADD MSTORE PUSH2 0x18C0 DUP2 DUP5 PUSH2 0x1831 JUMP JUMPDEST SWAP1 POP SWAP3 SWAP2 POP POP JUMP JUMPDEST PUSH2 0x18D1 DUP2 PUSH2 0x1691 JUMP JUMPDEST DUP2 EQ PUSH2 0x18DC JUMPI PUSH1 0x0 DUP1 REVERT JUMPDEST POP JUMP JUMPDEST PUSH1 0x0 DUP2 CALLDATALOAD SWAP1 POP PUSH2 0x18EE DUP2 PUSH2 0x18C8 JUMP JUMPDEST SWAP3 SWAP2 POP POP JUMP JUMPDEST PUSH1 0x0 PUSH1 0x20 DUP3 DUP5 SUB SLT ISZERO PUSH2 0x190A JUMPI PUSH2 0x1909 PUSH2 0x15D0 JUMP JUMPDEST JUMPDEST PUSH1 0x0 PUSH2 0x1918 DUP5 DUP3 DUP6 ADD PUSH2 0x18DF JUMP JUMPDEST SWAP2 POP POP SWAP3 SWAP2 POP POP JUMP JUMPDEST PUSH2 0x192A DUP2 PUSH2 0x1691 JUMP JUMPDEST DUP3 MSTORE POP POP JUMP JUMPDEST PUSH1 0x0 DUP3 DUP3 MSTORE PUSH1 0x20 DUP3 ADD SWAP1 POP SWAP3 SWAP2 POP POP JUMP JUMPDEST PUSH1 0x0 PUSH2 0x194C DUP3 PUSH2 0x16AA JUMP JUMPDEST PUSH2 0x1956 DUP2 DUP6 PUSH2 0x1930 JUMP JUMPDEST SWAP4 POP PUSH2 0x1966 DUP2 DUP6 PUSH1 0x20 DUP7 ADD PUSH2 0x16C6 JUMP JUMPDEST PUSH2 0x196F DUP2 PUSH2 0x16F9 JUMP JUMPDEST DUP5 ADD SWAP2 POP POP SWAP3 SWAP2 POP POP JUMP JUMPDEST PUSH2 0x1983 DUP2 PUSH2 0x15FA JUMP JUMPDEST DUP3 MSTORE POP POP JUMP JUMPDEST PUSH1 0x0 PUSH2 0x100 DUP3 ADD SWAP1 POP PUSH2 0x199F PUSH1 0x0 DUP4 ADD DUP12 PUSH2 0x1921 JUMP JUMPDEST DUP2 DUP2 SUB PUSH1 0x20 DUP4 ADD MSTORE PUSH2 0x19B1 DUP2 DUP11 PUSH2 0x1941 JUMP JUMPDEST SWAP1 POP PUSH2 0x19C0 PUSH1 0x40 DUP4 ADD DUP10 PUSH2 0x1921 JUMP JUMPDEST PUSH2 0x19CD PUSH1 0x60 DUP4 ADD DUP9 PUSH2 0x197A JUMP JUMPDEST PUSH2 0x19DA PUSH1 0x80 DUP4 ADD DUP8 PUSH2 0x197A JUMP JUMPDEST PUSH2 0x19E7 PUSH1 0xA0 DUP4 ADD DUP7 PUSH2 0x1921 JUMP JUMPDEST DUP2 DUP2 SUB PUSH1 0xC0 DUP4 ADD MSTORE PUSH2 0x19F9 DUP2 DUP6 PUSH2 0x1941 JUMP JUMPDEST SWAP1 POP DUP2 DUP2 SUB PUSH1 0xE0 DUP4 ADD MSTORE PUSH2 0x1A0D DUP2 DUP5 PUSH2 0x1941 JUMP JUMPDEST SWAP1 POP SWAP10 SWAP9 POP POP POP POP POP POP POP POP POP JUMP JUMPDEST PUSH1 0x0 DUP1 REVERT JUMPDEST PUSH1 0x0 DUP1 REVERT JUMPDEST PUSH32 0x4E487B7100000000000000000000000000000000000000000000000000000000 PUSH1 0x0 MSTORE PUSH1 0x41 PUSH1 0x4 MSTORE PUSH1 0x24 PUSH1 0x0 REVERT JUMPDEST PUSH2 0x1A5E DUP3 PUSH2 0x16F9 JUMP JUMPDEST DUP2 ADD DUP2 DUP2 LT PUSH8 0xFFFFFFFFFFFFFFFF DUP3 GT OR ISZERO PUSH2 0x1A7D JUMPI PUSH2 0x1A7C PUSH2 0x1A26 JUMP JUMPDEST JUMPDEST DUP1 PUSH1 0x40 MSTORE POP POP POP JUMP JUMPDEST PUSH1 0x0 PUSH2 0x1A90 PUSH2 0x15C6 JUMP JUMPDEST SWAP1 POP PUSH2 0x1A9C DUP3 DUP3 PUSH2 0x1A55 JUMP JUMPDEST SWAP2 SWAP1 POP JUMP JUMPDEST PUSH1 0x0 PUSH8 0xFFFFFFFFFFFFFFFF DUP3 GT ISZERO PUSH2 0x1ABC JUMPI PUSH2 0x1ABB PUSH2 0x1A26 JUMP JUMPDEST JUMPDEST PUSH2 0x1AC5 DUP3 PUSH2 0x16F9 JUMP JUMPDEST SWAP1 POP PUSH1 0x20 DUP2 ADD SWAP1 POP SWAP2 SWAP1 POP JUMP JUMPDEST DUP3 DUP2 DUP4 CALLDATACOPY PUSH1 0x0 DUP4 DUP4 ADD MSTORE POP POP POP JUMP JUMPDEST PUSH1 0x0 PUSH2 0x1AF4 PUSH2 0x1AEF DUP5 PUSH2 0x1AA1 JUMP JUMPDEST PUSH2 0x1A86 JUMP JUMPDEST SWAP1 POP DUP3 DUP2 MSTORE PUSH1 0x20 DUP2 ADD DUP5 DUP5 DUP5 ADD GT ISZERO PUSH2 0x1B10 JUMPI PUSH2 0x1B0F PUSH2 0x1A21 JUMP JUMPDEST JUMPDEST PUSH2 0x1B1B DUP5 DUP3 DUP6 PUSH2 0x1AD2 JUMP JUMPDEST POP SWAP4 SWAP3 POP POP POP JUMP JUMPDEST PUSH1 0x0 DUP3 PUSH1 0x1F DUP4 ADD SLT PUSH2 0x1B38 JUMPI PUSH2 0x1B37 PUSH2 0x1A1C JUMP JUMPDEST JUMPDEST DUP2 CALLDATALOAD PUSH2 0x1B48 DUP5 DUP3 PUSH1 0x20 DUP7 ADD PUSH2 0x1AE1 JUMP JUMPDEST SWAP2 POP POP SWAP3 SWAP2 POP POP JUMP JUMPDEST PUSH1 0x0 DUP1 PUSH1 0x0 PUSH1 0x60 DUP5 DUP7 SUB SLT ISZERO PUSH2 0x1B6A JUMPI PUSH2 0x1B69 PUSH2 0x15D0 JUMP JUMPDEST JUMPDEST PUSH1 0x0 DUP5 ADD CALLDATALOAD PUSH8 0xFFFFFFFFFFFFFFFF DUP2 GT ISZERO PUSH2 0x1B88 JUMPI PUSH2 0x1B87 PUSH2 0x15D5 JUMP JUMPDEST JUMPDEST PUSH2 0x1B94 DUP7 DUP3 DUP8 ADD PUSH2 0x1B23 JUMP JUMPDEST SWAP4 POP POP PUSH1 0x20 PUSH2 0x1BA5 DUP7 DUP3 DUP8 ADD PUSH2 0x1623 JUMP JUMPDEST SWAP3 POP POP PUSH1 0x40 DUP5 ADD CALLDATALOAD PUSH8 0xFFFFFFFFFFFFFFFF DUP2 GT ISZERO PUSH2 0x1BC6 JUMPI PUSH2 0x1BC5 PUSH2 0x15D5 JUMP JUMPDEST JUMPDEST PUSH2 0x1BD2 DUP7 DUP3 DUP8 ADD PUSH2 0x1B23 JUMP JUMPDEST SWAP2 POP POP SWAP3 POP SWAP3 POP SWAP3 JUMP JUMPDEST PUSH32 0x4E487B7100000000000000000000000000000000000000000000000000000000 PUSH1 0x0 MSTORE PUSH1 0x22 PUSH1 0x4 MSTORE PUSH1 0x24 PUSH1 0x0 REVERT JUMPDEST PUSH1 0x0 PUSH1 0x2 DUP3 DIV SWAP1 POP PUSH1 0x1 DUP3 AND DUP1 PUSH2 0x1C23 JUMPI PUSH1 0x7F DUP3 AND SWAP2 POP JUMPDEST PUSH1 0x20 DUP3 LT DUP2 SUB PUSH2 0x1C36 JUMPI PUSH2 0x1C35 PUSH2 0x1BDC JUMP JUMPDEST JUMPDEST POP SWAP2 SWAP1 POP JUMP JUMPDEST PUSH32 0x4E487B7100000000000000000000000000000000000000000000000000000000 PUSH1 0x0 MSTORE PUSH1 0x32 PUSH1 0x4 MSTORE PUSH1 0x24 PUSH1 0x0 REVERT JUMPDEST PUSH32 0x4E487B7100000000000000000000000000000000000000000000000000000000 PUSH1 0x0 MSTORE PUSH1 0x11 PUSH1 0x4 MSTORE PUSH1 0x24 PUSH1 0x0 REVERT JUMPDEST PUSH1 0x0 PUSH2 0x1CA5 DUP3 PUSH2 0x1691 JUMP JUMPDEST SWAP2 POP PUSH2 0x1CB0 DUP4 PUSH2 0x1691 JUMP JUMPDEST SWAP3 POP DUP3 DUP3 LT ISZERO PUSH2 0x1CC3 JUMPI PUSH2 0x1CC2 PUSH2 0x1C6B JUMP JUMPDEST JUMPDEST DUP3 DUP3 SUB SWAP1 POP SWAP3 SWAP2 POP POP JUMP JUMPDEST PUSH1 0x0 PUSH2 0x1CD9 DUP3 PUSH2 0x1691 JUMP JUMPDEST SWAP2 POP PUSH2 0x1CE4 DUP4 PUSH2 0x1691 JUMP JUMPDEST SWAP3 POP DUP3 PUSH32 0xFFFFFFFFFFFFFFFFFFFFFFFFFFFFFFFFFFFFFFFFFFFFFFFFFFFFFFFFFFFFFFFF SUB DUP3 GT ISZERO PUSH2 0x1D19 JUMPI PUSH2 0x1D18 PUSH2 0x1C6B JUMP JUMPDEST JUMPDEST DUP3 DUP3 ADD SWAP1 POP SWAP3 SWAP2 POP POP JUMP JUMPDEST PUSH1 0x0 DUP2 SLOAD SWAP1 POP PUSH2 0x1D33 DUP2 PUSH2 0x1C0B JUMP JUMPDEST SWAP1 POP SWAP2 SWAP1 POP JUMP JUMPDEST PUSH1 0x0 DUP2 SWAP1 POP DUP2 PUSH1 0x0 MSTORE PUSH1 0x20 PUSH1 0x0 KECCAK256 SWAP1 POP SWAP2 SWAP1 POP JUMP JUMPDEST PUSH1 0x0 PUSH1 0x20 PUSH1 0x1F DUP4 ADD DIV SWAP1 POP SWAP2 SWAP1 POP JUMP JUMPDEST PUSH1 0x0 DUP3 DUP3 SHL SWAP1 POP SWAP3 SWAP2 POP POP JUMP JUMPDEST PUSH1 0x0 PUSH1 0x8 DUP4 MUL PUSH2 0x1D9C PUSH32 0xFFFFFFFFFFFFFFFFFFFFFFFFFFFFFFFFFFFFFFFFFFFFFFFFFFFFFFFFFFFFFFFF DUP3 PUSH2 0x1D5F JUMP JUMPDEST PUSH2 0x1DA6 DUP7 DUP4 PUSH2 0x1D5F JUMP JUMPDEST SWAP6 POP DUP1 NOT DUP5 AND SWAP4 POP DUP1 DUP7 AND DUP5 OR SWAP3 POP POP POP SWAP4 SWAP3 POP POP POP JUMP JUMPDEST PUSH1 0x0 DUP2 SWAP1 POP SWAP2 SWAP1 POP JUMP JUMPDEST PUSH1 0x0 PUSH2 0x1DE3 PUSH2 0x1DDE PUSH2 0x1DD9 DUP5 PUSH2 0x1691 JUMP JUMPDEST PUSH2 0x1DBE JUMP JUMPDEST PUSH2 0x1691 JUMP JUMPDEST SWAP1 POP SWAP2 SWAP1 POP JUMP JUMPDEST PUSH1 0x0 DUP2 SWAP1 POP SWAP2 SWAP1 POP JUMP JUMPDEST PUSH2 0x1DFD DUP4 PUSH2 0x1DC8 JUMP JUMPDEST PUSH2 0x1E11 PUSH2 0x1E09 DUP3 PUSH2 0x1DEA JUMP JUMPDEST DUP5 DUP5 SLOAD PUSH2 0x1D6C JUMP JUMPDEST DUP3 SSTORE POP POP POP POP JUMP JUMPDEST PUSH1 0x0 SWAP1 JUMP JUMPDEST PUSH2 0x1E26 PUSH2 0x1E19 JUMP JUMPDEST PUSH2 0x1E31 DUP2 DUP5 DUP5 PUSH2 0x1DF4 JUMP JUMPDEST POP POP POP JUMP JUMPDEST JUMPDEST DUP2 DUP2 LT ISZERO PUSH2 0x1E55 JUMPI PUSH2 0x1E4A PUSH1 0x0 DUP3 PUSH2 0x1E1E JUMP JUMPDEST PUSH1 0x1 DUP2 ADD SWAP1 POP PUSH2 0x1E37 JUMP JUMPDEST POP POP JUMP JUMPDEST PUSH1 0x1F DUP3 GT ISZERO PUSH2 0x1E9A JUMPI PUSH2 0x1E6B DUP2 PUSH2 0x1D3A JUMP JUMPDEST PUSH2 0x1E74 DUP5 PUSH2 0x1D4F JUMP JUMPDEST DUP2 ADD PUSH1 0x20 DUP6 LT ISZERO PUSH2 0x1E83 JUMPI DUP2 SWAP1 POP JUMPDEST PUSH2 0x1E97 PUSH2 0x1E8F DUP6 PUSH2 0x1D4F JUMP JUMPDEST DUP4 ADD DUP3 PUSH2 0x1E36 JUMP JUMPDEST POP POP JUMPDEST POP POP POP JUMP JUMPDEST PUSH1 0x0 DUP3 DUP3 SHR SWAP1 POP SWAP3 SWAP2 POP POP JUMP JUMPDEST PUSH1 0x0 PUSH2 0x1EBD PUSH1 0x0 NOT DUP5 PUSH1 0x8 MUL PUSH2 0x1E9F JUMP JUMPDEST NOT DUP1 DUP4 AND SWAP2 POP POP SWAP3 SWAP2 POP POP JUMP JUMPDEST PUSH1 0x0 PUSH2 0x1ED6 DUP4 DUP4 PUSH2 0x1EAC JUMP JUMPDEST SWAP2 POP DUP3 PUSH1 0x2 MUL DUP3 OR SWAP1 POP SWAP3 SWAP2 POP POP JUMP JUMPDEST DUP2 DUP2 SUB PUSH2 0x1EF4 JUMPI POP POP PUSH2 0x1FCC JUMP JUMPDEST PUSH2 0x1EFD DUP3 PUSH2 0x1D24 JUMP JUMPDEST PUSH8 0xFFFFFFFFFFFFFFFF DUP2 GT ISZERO PUSH2 0x1F16 JUMPI PUSH2 0x1F15 PUSH2 0x1A26 JUMP JUMPDEST JUMPDEST PUSH2 0x1F20 DUP3 SLOAD PUSH2 0x1C0B JUMP JUMPDEST PUSH2 0x1F2B DUP3 DUP3 DUP6 PUSH2 0x1E59 JUMP JUMPDEST PUSH1 0x0 PUSH1 0x1F DUP4 GT PUSH1 0x1 DUP2 EQ PUSH2 0x1F5A JUMPI PUSH1 0x0 DUP5 ISZERO PUSH2 0x1F48 JUMPI DUP3 DUP8 ADD SLOAD SWAP1 POP JUMPDEST PUSH2 0x1F52 DUP6 DUP3 PUSH2 0x1ECA JUMP JUMPDEST DUP7 SSTORE POP PUSH2 0x1FC5 JUMP JUMPDEST PUSH1 0x1F NOT DUP5 AND PUSH2 0x1F68 DUP8 PUSH2 0x1D3A JUMP JUMPDEST SWAP7 POP PUSH2 0x1F73 DUP7 PUSH2 0x1D3A JUMP JUMPDEST PUSH1 0x0 JUMPDEST DUP3 DUP2 LT ISZERO PUSH2 0x1F9B JUMPI DUP5 DUP10 ADD SLOAD DUP3 SSTORE PUSH1 0x1 DUP3 ADD SWAP2 POP PUSH1 0x1 DUP6 ADD SWAP5 POP PUSH1 0x20 DUP2 ADD SWAP1 POP PUSH2 0x1F76 JUMP JUMPDEST DUP7 DUP4 LT ISZERO PUSH2 0x1FB8 JUMPI DUP5 DUP10 ADD SLOAD PUSH2 0x1FB4 PUSH1 0x1F DUP10 AND DUP3 PUSH2 0x1EAC JUMP JUMPDEST DUP4 SSTORE POP JUMPDEST PUSH1 0x1 PUSH1 0x2 DUP9 MUL ADD DUP9 SSTORE POP POP POP JUMPDEST POP POP POP POP POP POP JUMPDEST JUMP JUMPDEST PUSH1 0x0 PUSH2 0x1FD9 DUP3 PUSH2 0x1691 JUMP JUMPDEST SWAP2 POP PUSH32 0xFFFFFFFFFFFFFFFFFFFFFFFFFFFFFFFFFFFFFFFFFFFFFFFFFFFFFFFFFFFFFFFF DUP3 SUB PUSH2 0x200B JUMPI PUSH2 0x200A PUSH2 0x1C6B JUMP JUMPDEST JUMPDEST PUSH1 0x1 DUP3 ADD SWAP1 POP SWAP2 SWAP1 POP JUMP JUMPDEST PUSH32 0x4E487B7100000000000000000000000000000000000000000000000000000000 PUSH1 0x0 MSTORE PUSH1 0x31 PUSH1 0x4 MSTORE PUSH1 0x24 PUSH1 0x0 REVERT JUMPDEST PUSH2 0x204E DUP3 PUSH2 0x16AA JUMP JUMPDEST PUSH8 0xFFFFFFFFFFFFFFFF DUP2 GT ISZERO PUSH2 0x2067 JUMPI PUSH2 0x2066 PUSH2 0x1A26 JUMP JUMPDEST JUMPDEST PUSH2 0x2071 DUP3 SLOAD PUSH2 0x1C0B JUMP JUMPDEST PUSH2 0x207C DUP3 DUP3 DUP6 PUSH2 0x1E59 JUMP JUMPDEST PUSH1 0x0 PUSH1 0x20 SWAP1 POP PUSH1 0x1F DUP4 GT PUSH1 0x1 DUP2 EQ PUSH2 0x20AF JUMPI PUSH1 0x0 DUP5 ISZERO PUSH2 0x209D JUMPI DUP3 DUP8 ADD MLOAD SWAP1 POP JUMPDEST PUSH2 0x20A7 DUP6 DUP3 PUSH2 0x1ECA JUMP JUMPDEST DUP7 SSTORE POP PUSH2 0x210F JUMP JUMPDEST PUSH1 0x1F NOT DUP5 AND PUSH2 0x20BD DUP7 PUSH2 0x1D3A JUMP JUMPDEST PUSH1 0x0 JUMPDEST DUP3 DUP2 LT ISZERO PUSH2 0x20E5 JUMPI DUP5 DUP10 ADD MLOAD DUP3 SSTORE PUSH1 0x1 DUP3 ADD SWAP2 POP PUSH1 0x20 DUP6 ADD SWAP5 POP PUSH1 0x20 DUP2 ADD SWAP1 POP PUSH2 0x20C0 JUMP JUMPDEST DUP7 DUP4 LT ISZERO PUSH2 0x2102 JUMPI DUP5 DUP10 ADD MLOAD PUSH2 0x20FE PUSH1 0x1F DUP10 AND DUP3 PUSH2 0x1EAC JUMP JUMPDEST DUP4 SSTORE POP JUMPDEST PUSH1 0x1 PUSH1 0x2 DUP9 MUL ADD DUP9 SSTORE POP POP POP JUMPDEST POP POP POP POP POP POP JUMP INVALID LOG2 PUSH5 0x6970667358 0x22 SLT KECCAK256 EXP 0xB6 0x5F 0xE5 SLOAD 0x5F DUP3 ADDRESS 0xD6 0xD5 PUSH17 0xB7A7D8C53923A659561AC038D1DF44E93B 0xB0 0xEB CALLDATASIZE LOG0 PUSH5 0x736F6C6343 STOP ADDMOD 0xF STOP CALLER "
				},
				"gasEstimates": {
					"creation": {
						"codeDepositCost": "1705000",
						"executionCost": "1792",
						"totalCost": "1706792"
					},
					"external": {
						"createCrowdfunding(string,address,string)": "infinite",
						"getCrowdfundingByStatus(uint256)": "infinite",
						"getMyCrowdfunding(address)": "infinite",
						"list(uint256)": "infinite",
						"setStatus(uint256)": "infinite"
					}
				},
				"methodIdentifiers": {
					"createCrowdfunding(string,address,string)": "a97af4d5",
					"getCrowdfundingByStatus(uint256)": "904cc175",
					"getMyCrowdfunding(address)": "377e6ff7",
					"list(uint256)": "80c9419e",
					"setStatus(uint256)": "69ba1a75"
				}
			},
			"storageLayout": {
				"storage": [
					{
						"astId": 3,
						"contract": "crowdfunding.sol:CrowdfundingContract",
						"label": "No",
						"offset": 0,
						"slot": "0",
						"type": "t_uint256"
					},
					{
						"astId": 24,
						"contract": "crowdfunding.sol:CrowdfundingContract",
						"label": "list",
						"offset": 0,
						"slot": "1",
						"type": "t_array(t_struct(Crowdfunding)20_storage)dyn_storage"
					},
					{
						"astId": 30,
						"contract": "crowdfunding.sol:CrowdfundingContract",
						"label": "filterDataByStatus",
						"offset": 0,
						"slot": "2",
						"type": "t_mapping(t_uint256,t_array(t_struct(Crowdfunding)20_storage)dyn_storage)"
					},
					{
						"astId": 36,
						"contract": "crowdfunding.sol:CrowdfundingContract",
						"label": "myCrowdfunding",
						"offset": 0,
						"slot": "3",
						"type": "t_mapping(t_address,t_array(t_struct(Crowdfunding)20_storage)dyn_storage)"
					}
				],
				"types": {
					"t_address": {
						"encoding": "inplace",
						"label": "address",
						"numberOfBytes": "20"
					},
					"t_array(t_struct(Crowdfunding)20_storage)dyn_storage": {
						"base": "t_struct(Crowdfunding)20_storage",
						"encoding": "dynamic_array",
						"label": "struct CrowdfundingContract.Crowdfunding[]",
						"numberOfBytes": "32"
					},
					"t_mapping(t_address,t_array(t_struct(Crowdfunding)20_storage)dyn_storage)": {
						"encoding": "mapping",
						"key": "t_address",
						"label": "mapping(address => struct CrowdfundingContract.Crowdfunding[])",
						"numberOfBytes": "32",
						"value": "t_array(t_struct(Crowdfunding)20_storage)dyn_storage"
					},
					"t_mapping(t_uint256,t_array(t_struct(Crowdfunding)20_storage)dyn_storage)": {
						"encoding": "mapping",
						"key": "t_uint256",
						"label": "mapping(uint256 => struct CrowdfundingContract.Crowdfunding[])",
						"numberOfBytes": "32",
						"value": "t_array(t_struct(Crowdfunding)20_storage)dyn_storage"
					},
					"t_string_storage": {
						"encoding": "bytes",
						"label": "string",
						"numberOfBytes": "32"
					},
					"t_struct(Crowdfunding)20_storage": {
						"encoding": "inplace",
						"label": "struct CrowdfundingContract.Crowdfunding",
						"members": [
							{
								"astId": 5,
								"contract": "crowdfunding.sol:CrowdfundingContract",
								"label": "num",
								"offset": 0,
								"slot": "0",
								"type": "t_uint256"
							},
							{
								"astId": 7,
								"contract": "crowdfunding.sol:CrowdfundingContract",
								"label": "title",
								"offset": 0,
								"slot": "1",
								"type": "t_string_storage"
							},
							{
								"astId": 9,
								"contract": "crowdfunding.sol:CrowdfundingContract",
								"label": "status",
								"offset": 0,
								"slot": "2",
								"type": "t_uint256"
							},
							{
								"astId": 11,
								"contract": "crowdfunding.sol:CrowdfundingContract",
								"label": "creator",
								"offset": 0,
								"slot": "3",
								"type": "t_address"
							},
							{
								"astId": 13,
								"contract": "crowdfunding.sol:CrowdfundingContract",
								"label": "recipient",
								"offset": 0,
								"slot": "4",
								"type": "t_address"
							},
							{
								"astId": 15,
								"contract": "crowdfunding.sol:CrowdfundingContract",
								"label": "joinNum",
								"offset": 0,
								"slot": "5",
								"type": "t_uint256"
							},
							{
								"astId": 17,
								"contract": "crowdfunding.sol:CrowdfundingContract",
								"label": "expectAmout",
								"offset": 0,
								"slot": "6",
								"type": "t_string_storage"
							},
							{
								"astId": 19,
								"contract": "crowdfunding.sol:CrowdfundingContract",
								"label": "actualAmount",
								"offset": 0,
								"slot": "7",
								"type": "t_string_storage"
							}
						],
						"numberOfBytes": "256"
					},
					"t_uint256": {
						"encoding": "inplace",
						"label": "uint256",
						"numberOfBytes": "32"
					}
				}
			},
			"userdoc": {
				"kind": "user",
				"methods": {},
				"version": 1
			}
		}
	}
}