{
	"function.sol": {
		"Function": {
			"abi": [
				{
					"inputs": [],
					"name": "f",
					"outputs": [
						{
							"internalType": "bool",
							"name": "",
							"type": "bool"
						}
					],
					"stateMutability": "pure",
					"type": "function"
				}
			],
			"devdoc": {
				"kind": "dev",
				"methods": {},
				"version": 1
			},
			"evm": {
				"assembly": "    /* \"function.sol\":61:183  contract Function {\r... */\n  mstore(0x40, 0x80)\n  callvalue\n  dup1\n  iszero\n  tag_1\n  jumpi\n  0x00\n  dup1\n  revert\ntag_1:\n  pop\n  dataSize(sub_0)\n  dup1\n  dataOffset(sub_0)\n  0x00\n  codecopy\n  0x00\n  return\nstop\n\nsub_0: assembly {\n        /* \"function.sol\":61:183  contract Function {\r... */\n      mstore(0x40, 0x80)\n      callvalue\n      dup1\n      iszero\n      tag_1\n      jumpi\n      0x00\n      dup1\n      revert\n    tag_1:\n      pop\n      jumpi(tag_2, lt(calldatasize, 0x04))\n      shr(0xe0, calldataload(0x00))\n      dup1\n      0x26121ff0\n      eq\n      tag_3\n      jumpi\n    tag_2:\n      0x00\n      dup1\n      revert\n        /* \"function.sol\":88:178  function f() public pure returns(bool) {\r... */\n    tag_3:\n      tag_4\n      tag_5\n      jump\t// in\n    tag_4:\n      mload(0x40)\n      tag_6\n      swap2\n      swap1\n      tag_7\n      jump\t// in\n    tag_6:\n      mload(0x40)\n      dup1\n      swap2\n      sub\n      swap1\n      return\n    tag_5:\n        /* \"function.sol\":121:125  bool */\n      0x00\n        /* \"function.sol\":138:144  bool b */\n      dup1\n        /* \"function.sol\":147:151  true */\n      0x01\n        /* \"function.sol\":138:151  bool b = true */\n      swap1\n      pop\n        /* \"function.sol\":169:170  b */\n      dup1\n        /* \"function.sol\":162:170  return b */\n      swap2\n      pop\n      pop\n        /* \"function.sol\":88:178  function f() public pure returns(bool) {\r... */\n      swap1\n      jump\t// out\n        /* \"#utility.yul\":7:116   */\n    tag_10:\n        /* \"#utility.yul\":88:109   */\n      tag_12\n        /* \"#utility.yul\":103:108   */\n      dup2\n        /* \"#utility.yul\":88:109   */\n      tag_13\n      jump\t// in\n    tag_12:\n        /* \"#utility.yul\":83:86   */\n      dup3\n        /* \"#utility.yul\":76:110   */\n      mstore\n        /* \"#utility.yul\":7:116   */\n      pop\n      pop\n      jump\t// out\n        /* \"#utility.yul\":122:332   */\n    tag_7:\n        /* \"#utility.yul\":209:213   */\n      0x00\n        /* \"#utility.yul\":247:249   */\n      0x20\n        /* \"#utility.yul\":236:245   */\n      dup3\n        /* \"#utility.yul\":232:250   */\n      add\n        /* \"#utility.yul\":224:250   */\n      swap1\n      pop\n        /* \"#utility.yul\":260:325   */\n      tag_15\n        /* \"#utility.yul\":322:323   */\n      0x00\n        /* \"#utility.yul\":311:320   */\n      dup4\n        /* \"#utility.yul\":307:324   */\n      add\n        /* \"#utility.yul\":298:304   */\n      dup5\n        /* \"#utility.yul\":260:325   */\n      tag_10\n      jump\t// in\n    tag_15:\n        /* \"#utility.yul\":122:332   */\n      swap3\n      swap2\n      pop\n      pop\n      jump\t// out\n        /* \"#utility.yul\":338:428   */\n    tag_13:\n        /* \"#utility.yul\":372:379   */\n      0x00\n        /* \"#utility.yul\":415:420   */\n      dup2\n        /* \"#utility.yul\":408:421   */\n      iszero\n        /* \"#utility.yul\":401:422   */\n      iszero\n        /* \"#utility.yul\":390:422   */\n      swap1\n      pop\n        /* \"#utility.yul\":338:428   */\n      swap2\n      swap1\n      pop\n      jump\t// out\n\n    auxdata: 0xa26469706673582212203725da8b0998c326710071b8a582f95c40fcde8fa5cff3de9a5344d0feeb1b1b64736f6c63430008070033\n}\n",
				"bytecode": {
					"linkReferences": {},
					"object": "608060405234801561001057600080fd5b5060bd8061001f6000396000f3fe6080604052348015600f57600080fd5b506004361060285760003560e01c806326121ff014602d575b600080fd5b60336047565b604051603e91906062565b60405180910390f35b600080600190508091505090565b605c81607b565b82525050565b6000602082019050607560008301846055565b92915050565b6000811515905091905056fea26469706673582212203725da8b0998c326710071b8a582f95c40fcde8fa5cff3de9a5344d0feeb1b1b64736f6c63430008070033",
					"opcodes": "PUSH1 0x80 PUSH1 0x40 MSTORE CALLVALUE DUP1 ISZERO PUSH2 0x10 JUMPI PUSH1 0x0 DUP1 REVERT JUMPDEST POP PUSH1 0xBD DUP1 PUSH2 0x1F PUSH1 0x0 CODECOPY PUSH1 0x0 RETURN INVALID PUSH1 0x80 PUSH1 0x40 MSTORE CALLVALUE DUP1 ISZERO PUSH1 0xF JUMPI PUSH1 0x0 DUP1 REVERT JUMPDEST POP PUSH1 0x4 CALLDATASIZE LT PUSH1 0x28 JUMPI PUSH1 0x0 CALLDATALOAD PUSH1 0xE0 SHR DUP1 PUSH4 0x26121FF0 EQ PUSH1 0x2D JUMPI JUMPDEST PUSH1 0x0 DUP1 REVERT JUMPDEST PUSH1 0x33 PUSH1 0x47 JUMP JUMPDEST PUSH1 0x40 MLOAD PUSH1 0x3E SWAP2 SWAP1 PUSH1 0x62 JUMP JUMPDEST PUSH1 0x40 MLOAD DUP1 SWAP2 SUB SWAP1 RETURN JUMPDEST PUSH1 0x0 DUP1 PUSH1 0x1 SWAP1 POP DUP1 SWAP2 POP POP SWAP1 JUMP JUMPDEST PUSH1 0x5C DUP2 PUSH1 0x7B JUMP JUMPDEST DUP3 MSTORE POP POP JUMP JUMPDEST PUSH1 0x0 PUSH1 0x20 DUP3 ADD SWAP1 POP PUSH1 0x75 PUSH1 0x0 DUP4 ADD DUP5 PUSH1 0x55 JUMP JUMPDEST SWAP3 SWAP2 POP POP JUMP JUMPDEST PUSH1 0x0 DUP2 ISZERO ISZERO SWAP1 POP SWAP2 SWAP1 POP JUMP INVALID LOG2 PUSH5 0x6970667358 0x22 SLT KECCAK256 CALLDATACOPY 0x25 0xDA DUP12 MULMOD SWAP9 0xC3 0x26 PUSH18 0x71B8A582F95C40FCDE8FA5CFF3DE9A5344 0xD0 INVALID 0xEB SHL SHL PUSH5 0x736F6C6343 STOP ADDMOD SMOD STOP CALLER "
				},
				"gasEstimates": {
					"creation": {
						"codeDepositCost": "37800",
						"executionCost": "87",
						"totalCost": "37887"
					},
					"external": {
						"f()": "334"
					}
				},
				"methodIdentifiers": {
					"f()": "26121ff0"
				}
			},
			"storageLayout": {
				"storage": [],
				"types": null
			},
			"userdoc": {
				"kind": "user",
				"methods": {},
				"version": 1
			}
		}
	}
}