{
	"extends.sol": {
		"Person": {
			"abi": [
				{
					"inputs": [
						{
							"internalType": "string",
							"name": "_user",
							"type": "string"
						},
						{
							"internalType": "uint8",
							"name": "_age",
							"type": "uint8"
						}
					],
					"stateMutability": "nonpayable",
					"type": "constructor"
				},
				{
					"inputs": [
						{
							"internalType": "string",
							"name": "_user",
							"type": "string"
						},
						{
							"internalType": "uint8",
							"name": "_age",
							"type": "uint8"
						}
					],
					"name": "setInfo",
					"outputs": [],
					"stateMutability": "nonpayable",
					"type": "function"
				}
			],
			"devdoc": {
				"kind": "dev",
				"methods": {},
				"version": 1
			},
			"evm": {
				"assembly": "    /* \"extends.sol\":61:339  contract Person {\r... */\n  mstore(0x40, 0x80)\n    /* \"extends.sol\":122:218  constructor(string memory _user,uint8 _age) {\r... */\n  callvalue\n  dup1\n  iszero\n  tag_1\n  jumpi\n  0x00\n  dup1\n  revert\ntag_1:\n  pop\n  mload(0x40)\n  sub(codesize, bytecodeSize)\n  dup1\n  bytecodeSize\n  dup4\n  codecopy\n  dup2\n  dup2\n  add\n  0x40\n  mstore\n  dup2\n  add\n  swap1\n  tag_2\n  swap2\n  swap1\n  tag_3\n  jump\t// in\ntag_2:\n    /* \"extends.sol\":184:189  _user */\n  dup2\n    /* \"extends.sol\":177:181  user */\n  0x00\n    /* \"extends.sol\":177:189  user = _user */\n  swap1\n  dup1\n  mload\n  swap1\n  0x20\n  add\n  swap1\n  tag_6\n  swap3\n  swap2\n  swap1\n  tag_7\n  jump\t// in\ntag_6:\n  pop\n    /* \"extends.sol\":206:210  _age */\n  dup1\n    /* \"extends.sol\":200:203  age */\n  0x01\n  0x00\n    /* \"extends.sol\":200:210  age = _age */\n  0x0100\n  exp\n  dup2\n  sload\n  dup2\n  0xff\n  mul\n  not\n  and\n  swap1\n  dup4\n  0xff\n  and\n  mul\n  or\n  swap1\n  sstore\n  pop\n    /* \"extends.sol\":122:218  constructor(string memory _user,uint8 _age) {\r... */\n  pop\n  pop\n    /* \"extends.sol\":61:339  contract Person {\r... */\n  jump(tag_8)\ntag_7:\n  dup3\n  dup1\n  sload\n  tag_9\n  swap1\n  tag_10\n  jump\t// in\ntag_9:\n  swap1\n  0x00\n  mstore\n  keccak256(0x00, 0x20)\n  swap1\n  0x1f\n  add\n  0x20\n  swap1\n  div\n  dup2\n  add\n  swap3\n  dup3\n  tag_12\n  jumpi\n  0x00\n  dup6\n  sstore\n  jump(tag_11)\ntag_12:\n  dup3\n  0x1f\n  lt\n  tag_13\n  jumpi\n  dup1\n  mload\n  not(0xff)\n  and\n  dup4\n  dup1\n  add\n  or\n  dup6\n  sstore\n  jump(tag_11)\ntag_13:\n  dup3\n  dup1\n  add\n  0x01\n  add\n  dup6\n  sstore\n  dup3\n  iszero\n  tag_11\n  jumpi\n  swap2\n  dup3\n  add\ntag_14:\n  dup3\n  dup2\n  gt\n  iszero\n  tag_15\n  jumpi\n  dup3\n  mload\n  dup3\n  sstore\n  swap2\n  0x20\n  add\n  swap2\n  swap1\n  0x01\n  add\n  swap1\n  jump(tag_14)\ntag_15:\ntag_11:\n  pop\n  swap1\n  pop\n  tag_16\n  swap2\n  swap1\n  tag_17\n  jump\t// in\ntag_16:\n  pop\n  swap1\n  jump\t// out\ntag_17:\ntag_18:\n  dup1\n  dup3\n  gt\n  iszero\n  tag_19\n  jumpi\n  0x00\n  dup2\n  0x00\n  swap1\n  sstore\n  pop\n  0x01\n  add\n  jump(tag_18)\ntag_19:\n  pop\n  swap1\n  jump\t// out\n    /* \"#utility.yul\":7:428   */\ntag_21:\n    /* \"#utility.yul\":96:101   */\n  0x00\n    /* \"#utility.yul\":121:187   */\n  tag_23\n    /* \"#utility.yul\":137:186   */\n  tag_24\n    /* \"#utility.yul\":179:185   */\n  dup5\n    /* \"#utility.yul\":137:186   */\n  tag_25\n  jump\t// in\ntag_24:\n    /* \"#utility.yul\":121:187   */\n  tag_26\n  jump\t// in\ntag_23:\n    /* \"#utility.yul\":112:187   */\n  swap1\n  pop\n    /* \"#utility.yul\":210:216   */\n  dup3\n    /* \"#utility.yul\":203:208   */\n  dup2\n    /* \"#utility.yul\":196:217   */\n  mstore\n    /* \"#utility.yul\":248:252   */\n  0x20\n    /* \"#utility.yul\":241:246   */\n  dup2\n    /* \"#utility.yul\":237:253   */\n  add\n    /* \"#utility.yul\":286:289   */\n  dup5\n    /* \"#utility.yul\":277:283   */\n  dup5\n    /* \"#utility.yul\":272:275   */\n  dup5\n    /* \"#utility.yul\":268:284   */\n  add\n    /* \"#utility.yul\":265:290   */\n  gt\n    /* \"#utility.yul\":262:374   */\n  iszero\n  tag_27\n  jumpi\n    /* \"#utility.yul\":293:372   */\n  tag_28\n  tag_29\n  jump\t// in\ntag_28:\n    /* \"#utility.yul\":262:374   */\ntag_27:\n    /* \"#utility.yul\":383:422   */\n  tag_30\n    /* \"#utility.yul\":415:421   */\n  dup5\n    /* \"#utility.yul\":410:413   */\n  dup3\n    /* \"#utility.yul\":405:408   */\n  dup6\n    /* \"#utility.yul\":383:422   */\n  tag_31\n  jump\t// in\ntag_30:\n    /* \"#utility.yul\":102:428   */\n  pop\n    /* \"#utility.yul\":7:428   */\n  swap4\n  swap3\n  pop\n  pop\n  pop\n  jump\t// out\n    /* \"#utility.yul\":448:803   */\ntag_32:\n    /* \"#utility.yul\":515:520   */\n  0x00\n    /* \"#utility.yul\":564:567   */\n  dup3\n    /* \"#utility.yul\":557:561   */\n  0x1f\n    /* \"#utility.yul\":549:555   */\n  dup4\n    /* \"#utility.yul\":545:562   */\n  add\n    /* \"#utility.yul\":541:568   */\n  slt\n    /* \"#utility.yul\":531:653   */\n  tag_34\n  jumpi\n    /* \"#utility.yul\":572:651   */\n  tag_35\n  tag_36\n  jump\t// in\ntag_35:\n    /* \"#utility.yul\":531:653   */\ntag_34:\n    /* \"#utility.yul\":682:688   */\n  dup2\n    /* \"#utility.yul\":676:689   */\n  mload\n    /* \"#utility.yul\":707:797   */\n  tag_37\n    /* \"#utility.yul\":793:796   */\n  dup5\n    /* \"#utility.yul\":785:791   */\n  dup3\n    /* \"#utility.yul\":778:782   */\n  0x20\n    /* \"#utility.yul\":770:776   */\n  dup7\n    /* \"#utility.yul\":766:783   */\n  add\n    /* \"#utility.yul\":707:797   */\n  tag_21\n  jump\t// in\ntag_37:\n    /* \"#utility.yul\":698:797   */\n  swap2\n  pop\n    /* \"#utility.yul\":521:803   */\n  pop\n    /* \"#utility.yul\":448:803   */\n  swap3\n  swap2\n  pop\n  pop\n  jump\t// out\n    /* \"#utility.yul\":809:948   */\ntag_38:\n    /* \"#utility.yul\":864:869   */\n  0x00\n    /* \"#utility.yul\":895:901   */\n  dup2\n    /* \"#utility.yul\":889:902   */\n  mload\n    /* \"#utility.yul\":880:902   */\n  swap1\n  pop\n    /* \"#utility.yul\":911:942   */\n  tag_40\n    /* \"#utility.yul\":936:941   */\n  dup2\n    /* \"#utility.yul\":911:942   */\n  tag_41\n  jump\t// in\ntag_40:\n    /* \"#utility.yul\":809:948   */\n  swap3\n  swap2\n  pop\n  pop\n  jump\t// out\n    /* \"#utility.yul\":954:1630   */\ntag_3:\n    /* \"#utility.yul\":1041:1047   */\n  0x00\n    /* \"#utility.yul\":1049:1055   */\n  dup1\n    /* \"#utility.yul\":1098:1100   */\n  0x40\n    /* \"#utility.yul\":1086:1095   */\n  dup4\n    /* \"#utility.yul\":1077:1084   */\n  dup6\n    /* \"#utility.yul\":1073:1096   */\n  sub\n    /* \"#utility.yul\":1069:1101   */\n  slt\n    /* \"#utility.yul\":1066:1185   */\n  iszero\n  tag_43\n  jumpi\n    /* \"#utility.yul\":1104:1183   */\n  tag_44\n  tag_45\n  jump\t// in\ntag_44:\n    /* \"#utility.yul\":1066:1185   */\ntag_43:\n    /* \"#utility.yul\":1245:1246   */\n  0x00\n    /* \"#utility.yul\":1234:1243   */\n  dup4\n    /* \"#utility.yul\":1230:1247   */\n  add\n    /* \"#utility.yul\":1224:1248   */\n  mload\n    /* \"#utility.yul\":1275:1293   */\n  0xffffffffffffffff\n    /* \"#utility.yul\":1267:1273   */\n  dup2\n    /* \"#utility.yul\":1264:1294   */\n  gt\n    /* \"#utility.yul\":1261:1378   */\n  iszero\n  tag_46\n  jumpi\n    /* \"#utility.yul\":1297:1376   */\n  tag_47\n  tag_48\n  jump\t// in\ntag_47:\n    /* \"#utility.yul\":1261:1378   */\ntag_46:\n    /* \"#utility.yul\":1402:1476   */\n  tag_49\n    /* \"#utility.yul\":1468:1475   */\n  dup6\n    /* \"#utility.yul\":1459:1465   */\n  dup3\n    /* \"#utility.yul\":1448:1457   */\n  dup7\n    /* \"#utility.yul\":1444:1466   */\n  add\n    /* \"#utility.yul\":1402:1476   */\n  tag_32\n  jump\t// in\ntag_49:\n    /* \"#utility.yul\":1392:1476   */\n  swap3\n  pop\n    /* \"#utility.yul\":1195:1486   */\n  pop\n    /* \"#utility.yul\":1525:1527   */\n  0x20\n    /* \"#utility.yul\":1551:1613   */\n  tag_50\n    /* \"#utility.yul\":1605:1612   */\n  dup6\n    /* \"#utility.yul\":1596:1602   */\n  dup3\n    /* \"#utility.yul\":1585:1594   */\n  dup7\n    /* \"#utility.yul\":1581:1603   */\n  add\n    /* \"#utility.yul\":1551:1613   */\n  tag_38\n  jump\t// in\ntag_50:\n    /* \"#utility.yul\":1541:1613   */\n  swap2\n  pop\n    /* \"#utility.yul\":1496:1623   */\n  pop\n    /* \"#utility.yul\":954:1630   */\n  swap3\n  pop\n  swap3\n  swap1\n  pop\n  jump\t// out\n    /* \"#utility.yul\":1636:1765   */\ntag_26:\n    /* \"#utility.yul\":1670:1676   */\n  0x00\n    /* \"#utility.yul\":1697:1717   */\n  tag_52\n  tag_53\n  jump\t// in\ntag_52:\n    /* \"#utility.yul\":1687:1717   */\n  swap1\n  pop\n    /* \"#utility.yul\":1726:1759   */\n  tag_54\n    /* \"#utility.yul\":1754:1758   */\n  dup3\n    /* \"#utility.yul\":1746:1752   */\n  dup3\n    /* \"#utility.yul\":1726:1759   */\n  tag_55\n  jump\t// in\ntag_54:\n    /* \"#utility.yul\":1636:1765   */\n  swap2\n  swap1\n  pop\n  jump\t// out\n    /* \"#utility.yul\":1771:1846   */\ntag_53:\n    /* \"#utility.yul\":1804:1810   */\n  0x00\n    /* \"#utility.yul\":1837:1839   */\n  0x40\n    /* \"#utility.yul\":1831:1840   */\n  mload\n    /* \"#utility.yul\":1821:1840   */\n  swap1\n  pop\n    /* \"#utility.yul\":1771:1846   */\n  swap1\n  jump\t// out\n    /* \"#utility.yul\":1852:2160   */\ntag_25:\n    /* \"#utility.yul\":1914:1918   */\n  0x00\n    /* \"#utility.yul\":2004:2022   */\n  0xffffffffffffffff\n    /* \"#utility.yul\":1996:2002   */\n  dup3\n    /* \"#utility.yul\":1993:2023   */\n  gt\n    /* \"#utility.yul\":1990:2046   */\n  iszero\n  tag_58\n  jumpi\n    /* \"#utility.yul\":2026:2044   */\n  tag_59\n  tag_60\n  jump\t// in\ntag_59:\n    /* \"#utility.yul\":1990:2046   */\ntag_58:\n    /* \"#utility.yul\":2064:2093   */\n  tag_61\n    /* \"#utility.yul\":2086:2092   */\n  dup3\n    /* \"#utility.yul\":2064:2093   */\n  tag_62\n  jump\t// in\ntag_61:\n    /* \"#utility.yul\":2056:2093   */\n  swap1\n  pop\n    /* \"#utility.yul\":2148:2152   */\n  0x20\n    /* \"#utility.yul\":2142:2146   */\n  dup2\n    /* \"#utility.yul\":2138:2153   */\n  add\n    /* \"#utility.yul\":2130:2153   */\n  swap1\n  pop\n    /* \"#utility.yul\":1852:2160   */\n  swap2\n  swap1\n  pop\n  jump\t// out\n    /* \"#utility.yul\":2166:2252   */\ntag_63:\n    /* \"#utility.yul\":2201:2208   */\n  0x00\n    /* \"#utility.yul\":2241:2245   */\n  0xff\n    /* \"#utility.yul\":2234:2239   */\n  dup3\n    /* \"#utility.yul\":2230:2246   */\n  and\n    /* \"#utility.yul\":2219:2246   */\n  swap1\n  pop\n    /* \"#utility.yul\":2166:2252   */\n  swap2\n  swap1\n  pop\n  jump\t// out\n    /* \"#utility.yul\":2258:2565   */\ntag_31:\n    /* \"#utility.yul\":2326:2327   */\n  0x00\n    /* \"#utility.yul\":2336:2449   */\ntag_66:\n    /* \"#utility.yul\":2350:2356   */\n  dup4\n    /* \"#utility.yul\":2347:2348   */\n  dup2\n    /* \"#utility.yul\":2344:2357   */\n  lt\n    /* \"#utility.yul\":2336:2449   */\n  iszero\n  tag_68\n  jumpi\n    /* \"#utility.yul\":2435:2436   */\n  dup1\n    /* \"#utility.yul\":2430:2433   */\n  dup3\n    /* \"#utility.yul\":2426:2437   */\n  add\n    /* \"#utility.yul\":2420:2438   */\n  mload\n    /* \"#utility.yul\":2416:2417   */\n  dup2\n    /* \"#utility.yul\":2411:2414   */\n  dup5\n    /* \"#utility.yul\":2407:2418   */\n  add\n    /* \"#utility.yul\":2400:2439   */\n  mstore\n    /* \"#utility.yul\":2372:2374   */\n  0x20\n    /* \"#utility.yul\":2369:2370   */\n  dup2\n    /* \"#utility.yul\":2365:2375   */\n  add\n    /* \"#utility.yul\":2360:2375   */\n  swap1\n  pop\n    /* \"#utility.yul\":2336:2449   */\n  jump(tag_66)\ntag_68:\n    /* \"#utility.yul\":2467:2473   */\n  dup4\n    /* \"#utility.yul\":2464:2465   */\n  dup2\n    /* \"#utility.yul\":2461:2474   */\n  gt\n    /* \"#utility.yul\":2458:2559   */\n  iszero\n  tag_69\n  jumpi\n    /* \"#utility.yul\":2547:2548   */\n  0x00\n    /* \"#utility.yul\":2538:2544   */\n  dup5\n    /* \"#utility.yul\":2533:2536   */\n  dup5\n    /* \"#utility.yul\":2529:2545   */\n  add\n    /* \"#utility.yul\":2522:2549   */\n  mstore\n    /* \"#utility.yul\":2458:2559   */\ntag_69:\n    /* \"#utility.yul\":2307:2565   */\n  pop\n    /* \"#utility.yul\":2258:2565   */\n  pop\n  pop\n  pop\n  jump\t// out\n    /* \"#utility.yul\":2571:2891   */\ntag_10:\n    /* \"#utility.yul\":2615:2621   */\n  0x00\n    /* \"#utility.yul\":2652:2653   */\n  0x02\n    /* \"#utility.yul\":2646:2650   */\n  dup3\n    /* \"#utility.yul\":2642:2654   */\n  div\n    /* \"#utility.yul\":2632:2654   */\n  swap1\n  pop\n    /* \"#utility.yul\":2699:2700   */\n  0x01\n    /* \"#utility.yul\":2693:2697   */\n  dup3\n    /* \"#utility.yul\":2689:2701   */\n  and\n    /* \"#utility.yul\":2720:2738   */\n  dup1\n    /* \"#utility.yul\":2710:2791   */\n  tag_71\n  jumpi\n    /* \"#utility.yul\":2776:2780   */\n  0x7f\n    /* \"#utility.yul\":2768:2774   */\n  dup3\n    /* \"#utility.yul\":2764:2781   */\n  and\n    /* \"#utility.yul\":2754:2781   */\n  swap2\n  pop\n    /* \"#utility.yul\":2710:2791   */\ntag_71:\n    /* \"#utility.yul\":2838:2840   */\n  0x20\n    /* \"#utility.yul\":2830:2836   */\n  dup3\n    /* \"#utility.yul\":2827:2841   */\n  lt\n    /* \"#utility.yul\":2807:2825   */\n  dup2\n    /* \"#utility.yul\":2804:2842   */\n  eq\n    /* \"#utility.yul\":2801:2885   */\n  iszero\n  tag_72\n  jumpi\n    /* \"#utility.yul\":2857:2875   */\n  tag_73\n  tag_74\n  jump\t// in\ntag_73:\n    /* \"#utility.yul\":2801:2885   */\ntag_72:\n    /* \"#utility.yul\":2622:2891   */\n  pop\n    /* \"#utility.yul\":2571:2891   */\n  swap2\n  swap1\n  pop\n  jump\t// out\n    /* \"#utility.yul\":2897:3178   */\ntag_55:\n    /* \"#utility.yul\":2980:3007   */\n  tag_76\n    /* \"#utility.yul\":3002:3006   */\n  dup3\n    /* \"#utility.yul\":2980:3007   */\n  tag_62\n  jump\t// in\ntag_76:\n    /* \"#utility.yul\":2972:2978   */\n  dup2\n    /* \"#utility.yul\":2968:3008   */\n  add\n    /* \"#utility.yul\":3110:3116   */\n  dup2\n    /* \"#utility.yul\":3098:3108   */\n  dup2\n    /* \"#utility.yul\":3095:3117   */\n  lt\n    /* \"#utility.yul\":3074:3092   */\n  0xffffffffffffffff\n    /* \"#utility.yul\":3062:3072   */\n  dup3\n    /* \"#utility.yul\":3059:3093   */\n  gt\n    /* \"#utility.yul\":3056:3118   */\n  or\n    /* \"#utility.yul\":3053:3141   */\n  iszero\n  tag_77\n  jumpi\n    /* \"#utility.yul\":3121:3139   */\n  tag_78\n  tag_60\n  jump\t// in\ntag_78:\n    /* \"#utility.yul\":3053:3141   */\ntag_77:\n    /* \"#utility.yul\":3161:3171   */\n  dup1\n    /* \"#utility.yul\":3157:3159   */\n  0x40\n    /* \"#utility.yul\":3150:3172   */\n  mstore\n    /* \"#utility.yul\":2940:3178   */\n  pop\n    /* \"#utility.yul\":2897:3178   */\n  pop\n  pop\n  jump\t// out\n    /* \"#utility.yul\":3184:3364   */\ntag_74:\n    /* \"#utility.yul\":3232:3309   */\n  0x4e487b7100000000000000000000000000000000000000000000000000000000\n    /* \"#utility.yul\":3229:3230   */\n  0x00\n    /* \"#utility.yul\":3222:3310   */\n  mstore\n    /* \"#utility.yul\":3329:3333   */\n  0x22\n    /* \"#utility.yul\":3326:3327   */\n  0x04\n    /* \"#utility.yul\":3319:3334   */\n  mstore\n    /* \"#utility.yul\":3353:3357   */\n  0x24\n    /* \"#utility.yul\":3350:3351   */\n  0x00\n    /* \"#utility.yul\":3343:3358   */\n  revert\n    /* \"#utility.yul\":3370:3550   */\ntag_60:\n    /* \"#utility.yul\":3418:3495   */\n  0x4e487b7100000000000000000000000000000000000000000000000000000000\n    /* \"#utility.yul\":3415:3416   */\n  0x00\n    /* \"#utility.yul\":3408:3496   */\n  mstore\n    /* \"#utility.yul\":3515:3519   */\n  0x41\n    /* \"#utility.yul\":3512:3513   */\n  0x04\n    /* \"#utility.yul\":3505:3520   */\n  mstore\n    /* \"#utility.yul\":3539:3543   */\n  0x24\n    /* \"#utility.yul\":3536:3537   */\n  0x00\n    /* \"#utility.yul\":3529:3544   */\n  revert\n    /* \"#utility.yul\":3556:3673   */\ntag_36:\n    /* \"#utility.yul\":3665:3666   */\n  0x00\n    /* \"#utility.yul\":3662:3663   */\n  dup1\n    /* \"#utility.yul\":3655:3667   */\n  revert\n    /* \"#utility.yul\":3679:3796   */\ntag_29:\n    /* \"#utility.yul\":3788:3789   */\n  0x00\n    /* \"#utility.yul\":3785:3786   */\n  dup1\n    /* \"#utility.yul\":3778:3790   */\n  revert\n    /* \"#utility.yul\":3802:3919   */\ntag_48:\n    /* \"#utility.yul\":3911:3912   */\n  0x00\n    /* \"#utility.yul\":3908:3909   */\n  dup1\n    /* \"#utility.yul\":3901:3913   */\n  revert\n    /* \"#utility.yul\":3925:4042   */\ntag_45:\n    /* \"#utility.yul\":4034:4035   */\n  0x00\n    /* \"#utility.yul\":4031:4032   */\n  dup1\n    /* \"#utility.yul\":4024:4036   */\n  revert\n    /* \"#utility.yul\":4048:4150   */\ntag_62:\n    /* \"#utility.yul\":4089:4095   */\n  0x00\n    /* \"#utility.yul\":4140:4142   */\n  0x1f\n    /* \"#utility.yul\":4136:4143   */\n  not\n    /* \"#utility.yul\":4131:4133   */\n  0x1f\n    /* \"#utility.yul\":4124:4129   */\n  dup4\n    /* \"#utility.yul\":4120:4134   */\n  add\n    /* \"#utility.yul\":4116:4144   */\n  and\n    /* \"#utility.yul\":4106:4144   */\n  swap1\n  pop\n    /* \"#utility.yul\":4048:4150   */\n  swap2\n  swap1\n  pop\n  jump\t// out\n    /* \"#utility.yul\":4156:4274   */\ntag_41:\n    /* \"#utility.yul\":4227:4249   */\n  tag_87\n    /* \"#utility.yul\":4243:4248   */\n  dup2\n    /* \"#utility.yul\":4227:4249   */\n  tag_63\n  jump\t// in\ntag_87:\n    /* \"#utility.yul\":4220:4225   */\n  dup2\n    /* \"#utility.yul\":4217:4250   */\n  eq\n    /* \"#utility.yul\":4207:4268   */\n  tag_88\n  jumpi\n    /* \"#utility.yul\":4264:4265   */\n  0x00\n    /* \"#utility.yul\":4261:4262   */\n  dup1\n    /* \"#utility.yul\":4254:4266   */\n  revert\n    /* \"#utility.yul\":4207:4268   */\ntag_88:\n    /* \"#utility.yul\":4156:4274   */\n  pop\n  jump\t// out\n    /* \"extends.sol\":61:339  contract Person {\r... */\ntag_8:\n  dataSize(sub_0)\n  dup1\n  dataOffset(sub_0)\n  0x00\n  codecopy\n  0x00\n  return\nstop\n\nsub_0: assembly {\n        /* \"extends.sol\":61:339  contract Person {\r... */\n      mstore(0x40, 0x80)\n      callvalue\n      dup1\n      iszero\n      tag_1\n      jumpi\n      0x00\n      dup1\n      revert\n    tag_1:\n      pop\n      jumpi(tag_2, lt(calldatasize, 0x04))\n      shr(0xe0, calldataload(0x00))\n      dup1\n      0xacb180ff\n      eq\n      tag_3\n      jumpi\n    tag_2:\n      0x00\n      dup1\n      revert\n        /* \"extends.sol\":226:334  function setInfo(string memory _user,uint8 _age) public {\r... */\n    tag_3:\n      tag_4\n      0x04\n      dup1\n      calldatasize\n      sub\n      dup2\n      add\n      swap1\n      tag_5\n      swap2\n      swap1\n      tag_6\n      jump\t// in\n    tag_5:\n      tag_7\n      jump\t// in\n    tag_4:\n      stop\n    tag_7:\n        /* \"extends.sol\":300:305  _user */\n      dup2\n        /* \"extends.sol\":293:297  user */\n      0x00\n        /* \"extends.sol\":293:305  user = _user */\n      swap1\n      dup1\n      mload\n      swap1\n      0x20\n      add\n      swap1\n      tag_9\n      swap3\n      swap2\n      swap1\n      tag_10\n      jump\t// in\n    tag_9:\n      pop\n        /* \"extends.sol\":322:326  _age */\n      dup1\n        /* \"extends.sol\":316:319  age */\n      0x01\n      0x00\n        /* \"extends.sol\":316:326  age = _age */\n      0x0100\n      exp\n      dup2\n      sload\n      dup2\n      0xff\n      mul\n      not\n      and\n      swap1\n      dup4\n      0xff\n      and\n      mul\n      or\n      swap1\n      sstore\n      pop\n        /* \"extends.sol\":226:334  function setInfo(string memory _user,uint8 _age) public {\r... */\n      pop\n      pop\n      jump\t// out\n    tag_10:\n      dup3\n      dup1\n      sload\n      tag_11\n      swap1\n      tag_12\n      jump\t// in\n    tag_11:\n      swap1\n      0x00\n      mstore\n      keccak256(0x00, 0x20)\n      swap1\n      0x1f\n      add\n      0x20\n      swap1\n      div\n      dup2\n      add\n      swap3\n      dup3\n      tag_14\n      jumpi\n      0x00\n      dup6\n      sstore\n      jump(tag_13)\n    tag_14:\n      dup3\n      0x1f\n      lt\n      tag_15\n      jumpi\n      dup1\n      mload\n      not(0xff)\n      and\n      dup4\n      dup1\n      add\n      or\n      dup6\n      sstore\n      jump(tag_13)\n    tag_15:\n      dup3\n      dup1\n      add\n      0x01\n      add\n      dup6\n      sstore\n      dup3\n      iszero\n      tag_13\n      jumpi\n      swap2\n      dup3\n      add\n    tag_16:\n      dup3\n      dup2\n      gt\n      iszero\n      tag_17\n      jumpi\n      dup3\n      mload\n      dup3\n      sstore\n      swap2\n      0x20\n      add\n      swap2\n      swap1\n      0x01\n      add\n      swap1\n      jump(tag_16)\n    tag_17:\n    tag_13:\n      pop\n      swap1\n      pop\n      tag_18\n      swap2\n      swap1\n      tag_19\n      jump\t// in\n    tag_18:\n      pop\n      swap1\n      jump\t// out\n    tag_19:\n    tag_20:\n      dup1\n      dup3\n      gt\n      iszero\n      tag_21\n      jumpi\n      0x00\n      dup2\n      0x00\n      swap1\n      sstore\n      pop\n      0x01\n      add\n      jump(tag_20)\n    tag_21:\n      pop\n      swap1\n      jump\t// out\n        /* \"#utility.yul\":7:419   */\n    tag_23:\n        /* \"#utility.yul\":85:90   */\n      0x00\n        /* \"#utility.yul\":110:176   */\n      tag_25\n        /* \"#utility.yul\":126:175   */\n      tag_26\n        /* \"#utility.yul\":168:174   */\n      dup5\n        /* \"#utility.yul\":126:175   */\n      tag_27\n      jump\t// in\n    tag_26:\n        /* \"#utility.yul\":110:176   */\n      tag_28\n      jump\t// in\n    tag_25:\n        /* \"#utility.yul\":101:176   */\n      swap1\n      pop\n        /* \"#utility.yul\":199:205   */\n      dup3\n        /* \"#utility.yul\":192:197   */\n      dup2\n        /* \"#utility.yul\":185:206   */\n      mstore\n        /* \"#utility.yul\":237:241   */\n      0x20\n        /* \"#utility.yul\":230:235   */\n      dup2\n        /* \"#utility.yul\":226:242   */\n      add\n        /* \"#utility.yul\":275:278   */\n      dup5\n        /* \"#utility.yul\":266:272   */\n      dup5\n        /* \"#utility.yul\":261:264   */\n      dup5\n        /* \"#utility.yul\":257:273   */\n      add\n        /* \"#utility.yul\":254:279   */\n      gt\n        /* \"#utility.yul\":251:363   */\n      iszero\n      tag_29\n      jumpi\n        /* \"#utility.yul\":282:361   */\n      tag_30\n      tag_31\n      jump\t// in\n    tag_30:\n        /* \"#utility.yul\":251:363   */\n    tag_29:\n        /* \"#utility.yul\":372:413   */\n      tag_32\n        /* \"#utility.yul\":406:412   */\n      dup5\n        /* \"#utility.yul\":401:404   */\n      dup3\n        /* \"#utility.yul\":396:399   */\n      dup6\n        /* \"#utility.yul\":372:413   */\n      tag_33\n      jump\t// in\n    tag_32:\n        /* \"#utility.yul\":91:419   */\n      pop\n        /* \"#utility.yul\":7:419   */\n      swap4\n      swap3\n      pop\n      pop\n      pop\n      jump\t// out\n        /* \"#utility.yul\":439:779   */\n    tag_34:\n        /* \"#utility.yul\":495:500   */\n      0x00\n        /* \"#utility.yul\":544:547   */\n      dup3\n        /* \"#utility.yul\":537:541   */\n      0x1f\n        /* \"#utility.yul\":529:535   */\n      dup4\n        /* \"#utility.yul\":525:542   */\n      add\n        /* \"#utility.yul\":521:548   */\n      slt\n        /* \"#utility.yul\":511:633   */\n      tag_36\n      jumpi\n        /* \"#utility.yul\":552:631   */\n      tag_37\n      tag_38\n      jump\t// in\n    tag_37:\n        /* \"#utility.yul\":511:633   */\n    tag_36:\n        /* \"#utility.yul\":669:675   */\n      dup2\n        /* \"#utility.yul\":656:676   */\n      calldataload\n        /* \"#utility.yul\":694:773   */\n      tag_39\n        /* \"#utility.yul\":769:772   */\n      dup5\n        /* \"#utility.yul\":761:767   */\n      dup3\n        /* \"#utility.yul\":754:758   */\n      0x20\n        /* \"#utility.yul\":746:752   */\n      dup7\n        /* \"#utility.yul\":742:759   */\n      add\n        /* \"#utility.yul\":694:773   */\n      tag_23\n      jump\t// in\n    tag_39:\n        /* \"#utility.yul\":685:773   */\n      swap2\n      pop\n        /* \"#utility.yul\":501:779   */\n      pop\n        /* \"#utility.yul\":439:779   */\n      swap3\n      swap2\n      pop\n      pop\n      jump\t// out\n        /* \"#utility.yul\":785:920   */\n    tag_40:\n        /* \"#utility.yul\":829:834   */\n      0x00\n        /* \"#utility.yul\":867:873   */\n      dup2\n        /* \"#utility.yul\":854:874   */\n      calldataload\n        /* \"#utility.yul\":845:874   */\n      swap1\n      pop\n        /* \"#utility.yul\":883:914   */\n      tag_42\n        /* \"#utility.yul\":908:913   */\n      dup2\n        /* \"#utility.yul\":883:914   */\n      tag_43\n      jump\t// in\n    tag_42:\n        /* \"#utility.yul\":785:920   */\n      swap3\n      swap2\n      pop\n      pop\n      jump\t// out\n        /* \"#utility.yul\":926:1576   */\n    tag_6:\n        /* \"#utility.yul\":1002:1008   */\n      0x00\n        /* \"#utility.yul\":1010:1016   */\n      dup1\n        /* \"#utility.yul\":1059:1061   */\n      0x40\n        /* \"#utility.yul\":1047:1056   */\n      dup4\n        /* \"#utility.yul\":1038:1045   */\n      dup6\n        /* \"#utility.yul\":1034:1057   */\n      sub\n        /* \"#utility.yul\":1030:1062   */\n      slt\n        /* \"#utility.yul\":1027:1146   */\n      iszero\n      tag_45\n      jumpi\n        /* \"#utility.yul\":1065:1144   */\n      tag_46\n      tag_47\n      jump\t// in\n    tag_46:\n        /* \"#utility.yul\":1027:1146   */\n    tag_45:\n        /* \"#utility.yul\":1213:1214   */\n      0x00\n        /* \"#utility.yul\":1202:1211   */\n      dup4\n        /* \"#utility.yul\":1198:1215   */\n      add\n        /* \"#utility.yul\":1185:1216   */\n      calldataload\n        /* \"#utility.yul\":1243:1261   */\n      0xffffffffffffffff\n        /* \"#utility.yul\":1235:1241   */\n      dup2\n        /* \"#utility.yul\":1232:1262   */\n      gt\n        /* \"#utility.yul\":1229:1346   */\n      iszero\n      tag_48\n      jumpi\n        /* \"#utility.yul\":1265:1344   */\n      tag_49\n      tag_50\n      jump\t// in\n    tag_49:\n        /* \"#utility.yul\":1229:1346   */\n    tag_48:\n        /* \"#utility.yul\":1370:1433   */\n      tag_51\n        /* \"#utility.yul\":1425:1432   */\n      dup6\n        /* \"#utility.yul\":1416:1422   */\n      dup3\n        /* \"#utility.yul\":1405:1414   */\n      dup7\n        /* \"#utility.yul\":1401:1423   */\n      add\n        /* \"#utility.yul\":1370:1433   */\n      tag_34\n      jump\t// in\n    tag_51:\n        /* \"#utility.yul\":1360:1433   */\n      swap3\n      pop\n        /* \"#utility.yul\":1156:1443   */\n      pop\n        /* \"#utility.yul\":1482:1484   */\n      0x20\n        /* \"#utility.yul\":1508:1559   */\n      tag_52\n        /* \"#utility.yul\":1551:1558   */\n      dup6\n        /* \"#utility.yul\":1542:1548   */\n      dup3\n        /* \"#utility.yul\":1531:1540   */\n      dup7\n        /* \"#utility.yul\":1527:1549   */\n      add\n        /* \"#utility.yul\":1508:1559   */\n      tag_40\n      jump\t// in\n    tag_52:\n        /* \"#utility.yul\":1498:1559   */\n      swap2\n      pop\n        /* \"#utility.yul\":1453:1569   */\n      pop\n        /* \"#utility.yul\":926:1576   */\n      swap3\n      pop\n      swap3\n      swap1\n      pop\n      jump\t// out\n        /* \"#utility.yul\":1582:1711   */\n    tag_28:\n        /* \"#utility.yul\":1616:1622   */\n      0x00\n        /* \"#utility.yul\":1643:1663   */\n      tag_54\n      tag_55\n      jump\t// in\n    tag_54:\n        /* \"#utility.yul\":1633:1663   */\n      swap1\n      pop\n        /* \"#utility.yul\":1672:1705   */\n      tag_56\n        /* \"#utility.yul\":1700:1704   */\n      dup3\n        /* \"#utility.yul\":1692:1698   */\n      dup3\n        /* \"#utility.yul\":1672:1705   */\n      tag_57\n      jump\t// in\n    tag_56:\n        /* \"#utility.yul\":1582:1711   */\n      swap2\n      swap1\n      pop\n      jump\t// out\n        /* \"#utility.yul\":1717:1792   */\n    tag_55:\n        /* \"#utility.yul\":1750:1756   */\n      0x00\n        /* \"#utility.yul\":1783:1785   */\n      0x40\n        /* \"#utility.yul\":1777:1786   */\n      mload\n        /* \"#utility.yul\":1767:1786   */\n      swap1\n      pop\n        /* \"#utility.yul\":1717:1792   */\n      swap1\n      jump\t// out\n        /* \"#utility.yul\":1798:2106   */\n    tag_27:\n        /* \"#utility.yul\":1860:1864   */\n      0x00\n        /* \"#utility.yul\":1950:1968   */\n      0xffffffffffffffff\n        /* \"#utility.yul\":1942:1948   */\n      dup3\n        /* \"#utility.yul\":1939:1969   */\n      gt\n        /* \"#utility.yul\":1936:1992   */\n      iszero\n      tag_60\n      jumpi\n        /* \"#utility.yul\":1972:1990   */\n      tag_61\n      tag_62\n      jump\t// in\n    tag_61:\n        /* \"#utility.yul\":1936:1992   */\n    tag_60:\n        /* \"#utility.yul\":2010:2039   */\n      tag_63\n        /* \"#utility.yul\":2032:2038   */\n      dup3\n        /* \"#utility.yul\":2010:2039   */\n      tag_64\n      jump\t// in\n    tag_63:\n        /* \"#utility.yul\":2002:2039   */\n      swap1\n      pop\n        /* \"#utility.yul\":2094:2098   */\n      0x20\n        /* \"#utility.yul\":2088:2092   */\n      dup2\n        /* \"#utility.yul\":2084:2099   */\n      add\n        /* \"#utility.yul\":2076:2099   */\n      swap1\n      pop\n        /* \"#utility.yul\":1798:2106   */\n      swap2\n      swap1\n      pop\n      jump\t// out\n        /* \"#utility.yul\":2112:2198   */\n    tag_65:\n        /* \"#utility.yul\":2147:2154   */\n      0x00\n        /* \"#utility.yul\":2187:2191   */\n      0xff\n        /* \"#utility.yul\":2180:2185   */\n      dup3\n        /* \"#utility.yul\":2176:2192   */\n      and\n        /* \"#utility.yul\":2165:2192   */\n      swap1\n      pop\n        /* \"#utility.yul\":2112:2198   */\n      swap2\n      swap1\n      pop\n      jump\t// out\n        /* \"#utility.yul\":2204:2358   */\n    tag_33:\n        /* \"#utility.yul\":2288:2294   */\n      dup3\n        /* \"#utility.yul\":2283:2286   */\n      dup2\n        /* \"#utility.yul\":2278:2281   */\n      dup4\n        /* \"#utility.yul\":2265:2295   */\n      calldatacopy\n        /* \"#utility.yul\":2350:2351   */\n      0x00\n        /* \"#utility.yul\":2341:2347   */\n      dup4\n        /* \"#utility.yul\":2336:2339   */\n      dup4\n        /* \"#utility.yul\":2332:2348   */\n      add\n        /* \"#utility.yul\":2325:2352   */\n      mstore\n        /* \"#utility.yul\":2204:2358   */\n      pop\n      pop\n      pop\n      jump\t// out\n        /* \"#utility.yul\":2364:2684   */\n    tag_12:\n        /* \"#utility.yul\":2408:2414   */\n      0x00\n        /* \"#utility.yul\":2445:2446   */\n      0x02\n        /* \"#utility.yul\":2439:2443   */\n      dup3\n        /* \"#utility.yul\":2435:2447   */\n      div\n        /* \"#utility.yul\":2425:2447   */\n      swap1\n      pop\n        /* \"#utility.yul\":2492:2493   */\n      0x01\n        /* \"#utility.yul\":2486:2490   */\n      dup3\n        /* \"#utility.yul\":2482:2494   */\n      and\n        /* \"#utility.yul\":2513:2531   */\n      dup1\n        /* \"#utility.yul\":2503:2584   */\n      tag_69\n      jumpi\n        /* \"#utility.yul\":2569:2573   */\n      0x7f\n        /* \"#utility.yul\":2561:2567   */\n      dup3\n        /* \"#utility.yul\":2557:2574   */\n      and\n        /* \"#utility.yul\":2547:2574   */\n      swap2\n      pop\n        /* \"#utility.yul\":2503:2584   */\n    tag_69:\n        /* \"#utility.yul\":2631:2633   */\n      0x20\n        /* \"#utility.yul\":2623:2629   */\n      dup3\n        /* \"#utility.yul\":2620:2634   */\n      lt\n        /* \"#utility.yul\":2600:2618   */\n      dup2\n        /* \"#utility.yul\":2597:2635   */\n      eq\n        /* \"#utility.yul\":2594:2678   */\n      iszero\n      tag_70\n      jumpi\n        /* \"#utility.yul\":2650:2668   */\n      tag_71\n      tag_72\n      jump\t// in\n    tag_71:\n        /* \"#utility.yul\":2594:2678   */\n    tag_70:\n        /* \"#utility.yul\":2415:2684   */\n      pop\n        /* \"#utility.yul\":2364:2684   */\n      swap2\n      swap1\n      pop\n      jump\t// out\n        /* \"#utility.yul\":2690:2971   */\n    tag_57:\n        /* \"#utility.yul\":2773:2800   */\n      tag_74\n        /* \"#utility.yul\":2795:2799   */\n      dup3\n        /* \"#utility.yul\":2773:2800   */\n      tag_64\n      jump\t// in\n    tag_74:\n        /* \"#utility.yul\":2765:2771   */\n      dup2\n        /* \"#utility.yul\":2761:2801   */\n      add\n        /* \"#utility.yul\":2903:2909   */\n      dup2\n        /* \"#utility.yul\":2891:2901   */\n      dup2\n        /* \"#utility.yul\":2888:2910   */\n      lt\n        /* \"#utility.yul\":2867:2885   */\n      0xffffffffffffffff\n        /* \"#utility.yul\":2855:2865   */\n      dup3\n        /* \"#utility.yul\":2852:2886   */\n      gt\n        /* \"#utility.yul\":2849:2911   */\n      or\n        /* \"#utility.yul\":2846:2934   */\n      iszero\n      tag_75\n      jumpi\n        /* \"#utility.yul\":2914:2932   */\n      tag_76\n      tag_62\n      jump\t// in\n    tag_76:\n        /* \"#utility.yul\":2846:2934   */\n    tag_75:\n        /* \"#utility.yul\":2954:2964   */\n      dup1\n        /* \"#utility.yul\":2950:2952   */\n      0x40\n        /* \"#utility.yul\":2943:2965   */\n      mstore\n        /* \"#utility.yul\":2733:2971   */\n      pop\n        /* \"#utility.yul\":2690:2971   */\n      pop\n      pop\n      jump\t// out\n        /* \"#utility.yul\":2977:3157   */\n    tag_72:\n        /* \"#utility.yul\":3025:3102   */\n      0x4e487b7100000000000000000000000000000000000000000000000000000000\n        /* \"#utility.yul\":3022:3023   */\n      0x00\n        /* \"#utility.yul\":3015:3103   */\n      mstore\n        /* \"#utility.yul\":3122:3126   */\n      0x22\n        /* \"#utility.yul\":3119:3120   */\n      0x04\n        /* \"#utility.yul\":3112:3127   */\n      mstore\n        /* \"#utility.yul\":3146:3150   */\n      0x24\n        /* \"#utility.yul\":3143:3144   */\n      0x00\n        /* \"#utility.yul\":3136:3151   */\n      revert\n        /* \"#utility.yul\":3163:3343   */\n    tag_62:\n        /* \"#utility.yul\":3211:3288   */\n      0x4e487b7100000000000000000000000000000000000000000000000000000000\n        /* \"#utility.yul\":3208:3209   */\n      0x00\n        /* \"#utility.yul\":3201:3289   */\n      mstore\n        /* \"#utility.yul\":3308:3312   */\n      0x41\n        /* \"#utility.yul\":3305:3306   */\n      0x04\n        /* \"#utility.yul\":3298:3313   */\n      mstore\n        /* \"#utility.yul\":3332:3336   */\n      0x24\n        /* \"#utility.yul\":3329:3330   */\n      0x00\n        /* \"#utility.yul\":3322:3337   */\n      revert\n        /* \"#utility.yul\":3349:3466   */\n    tag_38:\n        /* \"#utility.yul\":3458:3459   */\n      0x00\n        /* \"#utility.yul\":3455:3456   */\n      dup1\n        /* \"#utility.yul\":3448:3460   */\n      revert\n        /* \"#utility.yul\":3472:3589   */\n    tag_31:\n        /* \"#utility.yul\":3581:3582   */\n      0x00\n        /* \"#utility.yul\":3578:3579   */\n      dup1\n        /* \"#utility.yul\":3571:3583   */\n      revert\n        /* \"#utility.yul\":3595:3712   */\n    tag_50:\n        /* \"#utility.yul\":3704:3705   */\n      0x00\n        /* \"#utility.yul\":3701:3702   */\n      dup1\n        /* \"#utility.yul\":3694:3706   */\n      revert\n        /* \"#utility.yul\":3718:3835   */\n    tag_47:\n        /* \"#utility.yul\":3827:3828   */\n      0x00\n        /* \"#utility.yul\":3824:3825   */\n      dup1\n        /* \"#utility.yul\":3817:3829   */\n      revert\n        /* \"#utility.yul\":3841:3943   */\n    tag_64:\n        /* \"#utility.yul\":3882:3888   */\n      0x00\n        /* \"#utility.yul\":3933:3935   */\n      0x1f\n        /* \"#utility.yul\":3929:3936   */\n      not\n        /* \"#utility.yul\":3924:3926   */\n      0x1f\n        /* \"#utility.yul\":3917:3922   */\n      dup4\n        /* \"#utility.yul\":3913:3927   */\n      add\n        /* \"#utility.yul\":3909:3937   */\n      and\n        /* \"#utility.yul\":3899:3937   */\n      swap1\n      pop\n        /* \"#utility.yul\":3841:3943   */\n      swap2\n      swap1\n      pop\n      jump\t// out\n        /* \"#utility.yul\":3949:4067   */\n    tag_43:\n        /* \"#utility.yul\":4020:4042   */\n      tag_85\n        /* \"#utility.yul\":4036:4041   */\n      dup2\n        /* \"#utility.yul\":4020:4042   */\n      tag_65\n      jump\t// in\n    tag_85:\n        /* \"#utility.yul\":4013:4018   */\n      dup2\n        /* \"#utility.yul\":4010:4043   */\n      eq\n        /* \"#utility.yul\":4000:4061   */\n      tag_86\n      jumpi\n        /* \"#utility.yul\":4057:4058   */\n      0x00\n        /* \"#utility.yul\":4054:4055   */\n      dup1\n        /* \"#utility.yul\":4047:4059   */\n      revert\n        /* \"#utility.yul\":4000:4061   */\n    tag_86:\n        /* \"#utility.yul\":3949:4067   */\n      pop\n      jump\t// out\n\n    auxdata: 0xa26469706673582212206f69a5687bf1d2ed0a3d9590c4d271442559ca49ee765e8d772d49e96653c95964736f6c63430008070033\n}\n",
				"bytecode": {
					"linkReferences": {},
					"object": "608060405234801561001057600080fd5b5060405161073c38038061073c83398181016040528101906100329190610193565b816000908051906020019061004892919061006b565b5080600160006101000a81548160ff021916908360ff1602179055505050610382565b82805461007790610285565b90600052602060002090601f01602090048101928261009957600085556100e0565b82601f106100b257805160ff19168380011785556100e0565b828001600101855582156100e0579182015b828111156100df5782518255916020019190600101906100c4565b5b5090506100ed91906100f1565b5090565b5b8082111561010a5760008160009055506001016100f2565b5090565b600061012161011c84610214565b6101ef565b90508281526020810184848401111561013d5761013c61034b565b5b610148848285610252565b509392505050565b600082601f83011261016557610164610346565b5b815161017584826020860161010e565b91505092915050565b60008151905061018d8161036b565b92915050565b600080604083850312156101aa576101a9610355565b5b600083015167ffffffffffffffff8111156101c8576101c7610350565b5b6101d485828601610150565b92505060206101e58582860161017e565b9150509250929050565b60006101f961020a565b905061020582826102b7565b919050565b6000604051905090565b600067ffffffffffffffff82111561022f5761022e610317565b5b6102388261035a565b9050602081019050919050565b600060ff82169050919050565b60005b83811015610270578082015181840152602081019050610255565b8381111561027f576000848401525b50505050565b6000600282049050600182168061029d57607f821691505b602082108114156102b1576102b06102e8565b5b50919050565b6102c08261035a565b810181811067ffffffffffffffff821117156102df576102de610317565b5b80604052505050565b7f4e487b7100000000000000000000000000000000000000000000000000000000600052602260045260246000fd5b7f4e487b7100000000000000000000000000000000000000000000000000000000600052604160045260246000fd5b600080fd5b600080fd5b600080fd5b600080fd5b6000601f19601f8301169050919050565b61037481610245565b811461037f57600080fd5b50565b6103ab806103916000396000f3fe608060405234801561001057600080fd5b506004361061002b5760003560e01c8063acb180ff14610030575b600080fd5b61004a600480360381019061004591906101aa565b61004c565b005b8160009080519060200190610062929190610082565b5080600160006101000a81548160ff021916908360ff1602179055505050565b82805461008e90610278565b90600052602060002090601f0160209004810192826100b057600085556100f7565b82601f106100c957805160ff19168380011785556100f7565b828001600101855582156100f7579182015b828111156100f65782518255916020019190600101906100db565b5b5090506101049190610108565b5090565b5b80821115610121576000816000905550600101610109565b5090565b60006101386101338461022b565b610206565b9050828152602081018484840111156101545761015361033e565b5b61015f848285610269565b509392505050565b600082601f83011261017c5761017b610339565b5b813561018c848260208601610125565b91505092915050565b6000813590506101a48161035e565b92915050565b600080604083850312156101c1576101c0610348565b5b600083013567ffffffffffffffff8111156101df576101de610343565b5b6101eb85828601610167565b92505060206101fc85828601610195565b9150509250929050565b6000610210610221565b905061021c82826102aa565b919050565b6000604051905090565b600067ffffffffffffffff8211156102465761024561030a565b5b61024f8261034d565b9050602081019050919050565b600060ff82169050919050565b82818337600083830152505050565b6000600282049050600182168061029057607f821691505b602082108114156102a4576102a36102db565b5b50919050565b6102b38261034d565b810181811067ffffffffffffffff821117156102d2576102d161030a565b5b80604052505050565b7f4e487b7100000000000000000000000000000000000000000000000000000000600052602260045260246000fd5b7f4e487b7100000000000000000000000000000000000000000000000000000000600052604160045260246000fd5b600080fd5b600080fd5b600080fd5b600080fd5b6000601f19601f8301169050919050565b6103678161025c565b811461037257600080fd5b5056fea26469706673582212206f69a5687bf1d2ed0a3d9590c4d271442559ca49ee765e8d772d49e96653c95964736f6c63430008070033",
					"opcodes": "PUSH1 0x80 PUSH1 0x40 MSTORE CALLVALUE DUP1 ISZERO PUSH2 0x10 JUMPI PUSH1 0x0 DUP1 REVERT JUMPDEST POP PUSH1 0x40 MLOAD PUSH2 0x73C CODESIZE SUB DUP1 PUSH2 0x73C DUP4 CODECOPY DUP2 DUP2 ADD PUSH1 0x40 MSTORE DUP2 ADD SWAP1 PUSH2 0x32 SWAP2 SWAP1 PUSH2 0x193 JUMP JUMPDEST DUP2 PUSH1 0x0 SWAP1 DUP1 MLOAD SWAP1 PUSH1 0x20 ADD SWAP1 PUSH2 0x48 SWAP3 SWAP2 SWAP1 PUSH2 0x6B JUMP JUMPDEST POP DUP1 PUSH1 0x1 PUSH1 0x0 PUSH2 0x100 EXP DUP2 SLOAD DUP2 PUSH1 0xFF MUL NOT AND SWAP1 DUP4 PUSH1 0xFF AND MUL OR SWAP1 SSTORE POP POP POP PUSH2 0x382 JUMP JUMPDEST DUP3 DUP1 SLOAD PUSH2 0x77 SWAP1 PUSH2 0x285 JUMP JUMPDEST SWAP1 PUSH1 0x0 MSTORE PUSH1 0x20 PUSH1 0x0 KECCAK256 SWAP1 PUSH1 0x1F ADD PUSH1 0x20 SWAP1 DIV DUP2 ADD SWAP3 DUP3 PUSH2 0x99 JUMPI PUSH1 0x0 DUP6 SSTORE PUSH2 0xE0 JUMP JUMPDEST DUP3 PUSH1 0x1F LT PUSH2 0xB2 JUMPI DUP1 MLOAD PUSH1 0xFF NOT AND DUP4 DUP1 ADD OR DUP6 SSTORE PUSH2 0xE0 JUMP JUMPDEST DUP3 DUP1 ADD PUSH1 0x1 ADD DUP6 SSTORE DUP3 ISZERO PUSH2 0xE0 JUMPI SWAP2 DUP3 ADD JUMPDEST DUP3 DUP2 GT ISZERO PUSH2 0xDF JUMPI DUP3 MLOAD DUP3 SSTORE SWAP2 PUSH1 0x20 ADD SWAP2 SWAP1 PUSH1 0x1 ADD SWAP1 PUSH2 0xC4 JUMP JUMPDEST JUMPDEST POP SWAP1 POP PUSH2 0xED SWAP2 SWAP1 PUSH2 0xF1 JUMP JUMPDEST POP SWAP1 JUMP JUMPDEST JUMPDEST DUP1 DUP3 GT ISZERO PUSH2 0x10A JUMPI PUSH1 0x0 DUP2 PUSH1 0x0 SWAP1 SSTORE POP PUSH1 0x1 ADD PUSH2 0xF2 JUMP JUMPDEST POP SWAP1 JUMP JUMPDEST PUSH1 0x0 PUSH2 0x121 PUSH2 0x11C DUP5 PUSH2 0x214 JUMP JUMPDEST PUSH2 0x1EF JUMP JUMPDEST SWAP1 POP DUP3 DUP2 MSTORE PUSH1 0x20 DUP2 ADD DUP5 DUP5 DUP5 ADD GT ISZERO PUSH2 0x13D JUMPI PUSH2 0x13C PUSH2 0x34B JUMP JUMPDEST JUMPDEST PUSH2 0x148 DUP5 DUP3 DUP6 PUSH2 0x252 JUMP JUMPDEST POP SWAP4 SWAP3 POP POP POP JUMP JUMPDEST PUSH1 0x0 DUP3 PUSH1 0x1F DUP4 ADD SLT PUSH2 0x165 JUMPI PUSH2 0x164 PUSH2 0x346 JUMP JUMPDEST JUMPDEST DUP2 MLOAD PUSH2 0x175 DUP5 DUP3 PUSH1 0x20 DUP7 ADD PUSH2 0x10E JUMP JUMPDEST SWAP2 POP POP SWAP3 SWAP2 POP POP JUMP JUMPDEST PUSH1 0x0 DUP2 MLOAD SWAP1 POP PUSH2 0x18D DUP2 PUSH2 0x36B JUMP JUMPDEST SWAP3 SWAP2 POP POP JUMP JUMPDEST PUSH1 0x0 DUP1 PUSH1 0x40 DUP4 DUP6 SUB SLT ISZERO PUSH2 0x1AA JUMPI PUSH2 0x1A9 PUSH2 0x355 JUMP JUMPDEST JUMPDEST PUSH1 0x0 DUP4 ADD MLOAD PUSH8 0xFFFFFFFFFFFFFFFF DUP2 GT ISZERO PUSH2 0x1C8 JUMPI PUSH2 0x1C7 PUSH2 0x350 JUMP JUMPDEST JUMPDEST PUSH2 0x1D4 DUP6 DUP3 DUP7 ADD PUSH2 0x150 JUMP JUMPDEST SWAP3 POP POP PUSH1 0x20 PUSH2 0x1E5 DUP6 DUP3 DUP7 ADD PUSH2 0x17E JUMP JUMPDEST SWAP2 POP POP SWAP3 POP SWAP3 SWAP1 POP JUMP JUMPDEST PUSH1 0x0 PUSH2 0x1F9 PUSH2 0x20A JUMP JUMPDEST SWAP1 POP PUSH2 0x205 DUP3 DUP3 PUSH2 0x2B7 JUMP JUMPDEST SWAP2 SWAP1 POP JUMP JUMPDEST PUSH1 0x0 PUSH1 0x40 MLOAD SWAP1 POP SWAP1 JUMP JUMPDEST PUSH1 0x0 PUSH8 0xFFFFFFFFFFFFFFFF DUP3 GT ISZERO PUSH2 0x22F JUMPI PUSH2 0x22E PUSH2 0x317 JUMP JUMPDEST JUMPDEST PUSH2 0x238 DUP3 PUSH2 0x35A JUMP JUMPDEST SWAP1 POP PUSH1 0x20 DUP2 ADD SWAP1 POP SWAP2 SWAP1 POP JUMP JUMPDEST PUSH1 0x0 PUSH1 0xFF DUP3 AND SWAP1 POP SWAP2 SWAP1 POP JUMP JUMPDEST PUSH1 0x0 JUMPDEST DUP4 DUP2 LT ISZERO PUSH2 0x270 JUMPI DUP1 DUP3 ADD MLOAD DUP2 DUP5 ADD MSTORE PUSH1 0x20 DUP2 ADD SWAP1 POP PUSH2 0x255 JUMP JUMPDEST DUP4 DUP2 GT ISZERO PUSH2 0x27F JUMPI PUSH1 0x0 DUP5 DUP5 ADD MSTORE JUMPDEST POP POP POP POP JUMP JUMPDEST PUSH1 0x0 PUSH1 0x2 DUP3 DIV SWAP1 POP PUSH1 0x1 DUP3 AND DUP1 PUSH2 0x29D JUMPI PUSH1 0x7F DUP3 AND SWAP2 POP JUMPDEST PUSH1 0x20 DUP3 LT DUP2 EQ ISZERO PUSH2 0x2B1 JUMPI PUSH2 0x2B0 PUSH2 0x2E8 JUMP JUMPDEST JUMPDEST POP SWAP2 SWAP1 POP JUMP JUMPDEST PUSH2 0x2C0 DUP3 PUSH2 0x35A JUMP JUMPDEST DUP2 ADD DUP2 DUP2 LT PUSH8 0xFFFFFFFFFFFFFFFF DUP3 GT OR ISZERO PUSH2 0x2DF JUMPI PUSH2 0x2DE PUSH2 0x317 JUMP JUMPDEST JUMPDEST DUP1 PUSH1 0x40 MSTORE POP POP POP JUMP JUMPDEST PUSH32 0x4E487B7100000000000000000000000000000000000000000000000000000000 PUSH1 0x0 MSTORE PUSH1 0x22 PUSH1 0x4 MSTORE PUSH1 0x24 PUSH1 0x0 REVERT JUMPDEST PUSH32 0x4E487B7100000000000000000000000000000000000000000000000000000000 PUSH1 0x0 MSTORE PUSH1 0x41 PUSH1 0x4 MSTORE PUSH1 0x24 PUSH1 0x0 REVERT JUMPDEST PUSH1 0x0 DUP1 REVERT JUMPDEST PUSH1 0x0 DUP1 REVERT JUMPDEST PUSH1 0x0 DUP1 REVERT JUMPDEST PUSH1 0x0 DUP1 REVERT JUMPDEST PUSH1 0x0 PUSH1 0x1F NOT PUSH1 0x1F DUP4 ADD AND SWAP1 POP SWAP2 SWAP1 POP JUMP JUMPDEST PUSH2 0x374 DUP2 PUSH2 0x245 JUMP JUMPDEST DUP2 EQ PUSH2 0x37F JUMPI PUSH1 0x0 DUP1 REVERT JUMPDEST POP JUMP JUMPDEST PUSH2 0x3AB DUP1 PUSH2 0x391 PUSH1 0x0 CODECOPY PUSH1 0x0 RETURN INVALID PUSH1 0x80 PUSH1 0x40 MSTORE CALLVALUE DUP1 ISZERO PUSH2 0x10 JUMPI PUSH1 0x0 DUP1 REVERT JUMPDEST POP PUSH1 0x4 CALLDATASIZE LT PUSH2 0x2B JUMPI PUSH1 0x0 CALLDATALOAD PUSH1 0xE0 SHR DUP1 PUSH4 0xACB180FF EQ PUSH2 0x30 JUMPI JUMPDEST PUSH1 0x0 DUP1 REVERT JUMPDEST PUSH2 0x4A PUSH1 0x4 DUP1 CALLDATASIZE SUB DUP2 ADD SWAP1 PUSH2 0x45 SWAP2 SWAP1 PUSH2 0x1AA JUMP JUMPDEST PUSH2 0x4C JUMP JUMPDEST STOP JUMPDEST DUP2 PUSH1 0x0 SWAP1 DUP1 MLOAD SWAP1 PUSH1 0x20 ADD SWAP1 PUSH2 0x62 SWAP3 SWAP2 SWAP1 PUSH2 0x82 JUMP JUMPDEST POP DUP1 PUSH1 0x1 PUSH1 0x0 PUSH2 0x100 EXP DUP2 SLOAD DUP2 PUSH1 0xFF MUL NOT AND SWAP1 DUP4 PUSH1 0xFF AND MUL OR SWAP1 SSTORE POP POP POP JUMP JUMPDEST DUP3 DUP1 SLOAD PUSH2 0x8E SWAP1 PUSH2 0x278 JUMP JUMPDEST SWAP1 PUSH1 0x0 MSTORE PUSH1 0x20 PUSH1 0x0 KECCAK256 SWAP1 PUSH1 0x1F ADD PUSH1 0x20 SWAP1 DIV DUP2 ADD SWAP3 DUP3 PUSH2 0xB0 JUMPI PUSH1 0x0 DUP6 SSTORE PUSH2 0xF7 JUMP JUMPDEST DUP3 PUSH1 0x1F LT PUSH2 0xC9 JUMPI DUP1 MLOAD PUSH1 0xFF NOT AND DUP4 DUP1 ADD OR DUP6 SSTORE PUSH2 0xF7 JUMP JUMPDEST DUP3 DUP1 ADD PUSH1 0x1 ADD DUP6 SSTORE DUP3 ISZERO PUSH2 0xF7 JUMPI SWAP2 DUP3 ADD JUMPDEST DUP3 DUP2 GT ISZERO PUSH2 0xF6 JUMPI DUP3 MLOAD DUP3 SSTORE SWAP2 PUSH1 0x20 ADD SWAP2 SWAP1 PUSH1 0x1 ADD SWAP1 PUSH2 0xDB JUMP JUMPDEST JUMPDEST POP SWAP1 POP PUSH2 0x104 SWAP2 SWAP1 PUSH2 0x108 JUMP JUMPDEST POP SWAP1 JUMP JUMPDEST JUMPDEST DUP1 DUP3 GT ISZERO PUSH2 0x121 JUMPI PUSH1 0x0 DUP2 PUSH1 0x0 SWAP1 SSTORE POP PUSH1 0x1 ADD PUSH2 0x109 JUMP JUMPDEST POP SWAP1 JUMP JUMPDEST PUSH1 0x0 PUSH2 0x138 PUSH2 0x133 DUP5 PUSH2 0x22B JUMP JUMPDEST PUSH2 0x206 JUMP JUMPDEST SWAP1 POP DUP3 DUP2 MSTORE PUSH1 0x20 DUP2 ADD DUP5 DUP5 DUP5 ADD GT ISZERO PUSH2 0x154 JUMPI PUSH2 0x153 PUSH2 0x33E JUMP JUMPDEST JUMPDEST PUSH2 0x15F DUP5 DUP3 DUP6 PUSH2 0x269 JUMP JUMPDEST POP SWAP4 SWAP3 POP POP POP JUMP JUMPDEST PUSH1 0x0 DUP3 PUSH1 0x1F DUP4 ADD SLT PUSH2 0x17C JUMPI PUSH2 0x17B PUSH2 0x339 JUMP JUMPDEST JUMPDEST DUP2 CALLDATALOAD PUSH2 0x18C DUP5 DUP3 PUSH1 0x20 DUP7 ADD PUSH2 0x125 JUMP JUMPDEST SWAP2 POP POP SWAP3 SWAP2 POP POP JUMP JUMPDEST PUSH1 0x0 DUP2 CALLDATALOAD SWAP1 POP PUSH2 0x1A4 DUP2 PUSH2 0x35E JUMP JUMPDEST SWAP3 SWAP2 POP POP JUMP JUMPDEST PUSH1 0x0 DUP1 PUSH1 0x40 DUP4 DUP6 SUB SLT ISZERO PUSH2 0x1C1 JUMPI PUSH2 0x1C0 PUSH2 0x348 JUMP JUMPDEST JUMPDEST PUSH1 0x0 DUP4 ADD CALLDATALOAD PUSH8 0xFFFFFFFFFFFFFFFF DUP2 GT ISZERO PUSH2 0x1DF JUMPI PUSH2 0x1DE PUSH2 0x343 JUMP JUMPDEST JUMPDEST PUSH2 0x1EB DUP6 DUP3 DUP7 ADD PUSH2 0x167 JUMP JUMPDEST SWAP3 POP POP PUSH1 0x20 PUSH2 0x1FC DUP6 DUP3 DUP7 ADD PUSH2 0x195 JUMP JUMPDEST SWAP2 POP POP SWAP3 POP SWAP3 SWAP1 POP JUMP JUMPDEST PUSH1 0x0 PUSH2 0x210 PUSH2 0x221 JUMP JUMPDEST SWAP1 POP PUSH2 0x21C DUP3 DUP3 PUSH2 0x2AA JUMP JUMPDEST SWAP2 SWAP1 POP JUMP JUMPDEST PUSH1 0x0 PUSH1 0x40 MLOAD SWAP1 POP SWAP1 JUMP JUMPDEST PUSH1 0x0 PUSH8 0xFFFFFFFFFFFFFFFF DUP3 GT ISZERO PUSH2 0x246 JUMPI PUSH2 0x245 PUSH2 0x30A JUMP JUMPDEST JUMPDEST PUSH2 0x24F DUP3 PUSH2 0x34D JUMP JUMPDEST SWAP1 POP PUSH1 0x20 DUP2 ADD SWAP1 POP SWAP2 SWAP1 POP JUMP JUMPDEST PUSH1 0x0 PUSH1 0xFF DUP3 AND SWAP1 POP SWAP2 SWAP1 POP JUMP JUMPDEST DUP3 DUP2 DUP4 CALLDATACOPY PUSH1 0x0 DUP4 DUP4 ADD MSTORE POP POP POP JUMP JUMPDEST PUSH1 0x0 PUSH1 0x2 DUP3 DIV SWAP1 POP PUSH1 0x1 DUP3 AND DUP1 PUSH2 0x290 JUMPI PUSH1 0x7F DUP3 AND SWAP2 POP JUMPDEST PUSH1 0x20 DUP3 LT DUP2 EQ ISZERO PUSH2 0x2A4 JUMPI PUSH2 0x2A3 PUSH2 0x2DB JUMP JUMPDEST JUMPDEST POP SWAP2 SWAP1 POP JUMP JUMPDEST PUSH2 0x2B3 DUP3 PUSH2 0x34D JUMP JUMPDEST DUP2 ADD DUP2 DUP2 LT PUSH8 0xFFFFFFFFFFFFFFFF DUP3 GT OR ISZERO PUSH2 0x2D2 JUMPI PUSH2 0x2D1 PUSH2 0x30A JUMP JUMPDEST JUMPDEST DUP1 PUSH1 0x40 MSTORE POP POP POP JUMP JUMPDEST PUSH32 0x4E487B7100000000000000000000000000000000000000000000000000000000 PUSH1 0x0 MSTORE PUSH1 0x22 PUSH1 0x4 MSTORE PUSH1 0x24 PUSH1 0x0 REVERT JUMPDEST PUSH32 0x4E487B7100000000000000000000000000000000000000000000000000000000 PUSH1 0x0 MSTORE PUSH1 0x41 PUSH1 0x4 MSTORE PUSH1 0x24 PUSH1 0x0 REVERT JUMPDEST PUSH1 0x0 DUP1 REVERT JUMPDEST PUSH1 0x0 DUP1 REVERT JUMPDEST PUSH1 0x0 DUP1 REVERT JUMPDEST PUSH1 0x0 DUP1 REVERT JUMPDEST PUSH1 0x0 PUSH1 0x1F NOT PUSH1 0x1F DUP4 ADD AND SWAP1 POP SWAP2 SWAP1 POP JUMP JUMPDEST PUSH2 0x367 DUP2 PUSH2 0x25C JUMP JUMPDEST DUP2 EQ PUSH2 0x372 JUMPI PUSH1 0x0 DUP1 REVERT JUMPDEST POP JUMP INVALID LOG2 PUSH5 0x6970667358 0x22 SLT KECCAK256 PUSH16 0x69A5687BF1D2ED0A3D9590C4D2714425 MSIZE 0xCA 0x49 0xEE PUSH23 0x5E8D772D49E96653C95964736F6C634300080700330000 "
				},
				"gasEstimates": {
					"creation": {
						"codeDepositCost": "187800",
						"executionCost": "infinite",
						"totalCost": "infinite"
					},
					"external": {
						"setInfo(string,uint8)": "infinite"
					}
				},
				"methodIdentifiers": {
					"setInfo(string,uint8)": "acb180ff"
				}
			},
			"storageLayout": {
				"storage": [
					{
						"astId": 3,
						"contract": "extends.sol:Person",
						"label": "user",
						"offset": 0,
						"slot": "0",
						"type": "t_string_storage"
					},
					{
						"astId": 5,
						"contract": "extends.sol:Person",
						"label": "age",
						"offset": 0,
						"slot": "1",
						"type": "t_uint8"
					}
				],
				"types": {
					"t_string_storage": {
						"encoding": "bytes",
						"label": "string",
						"numberOfBytes": "32"
					},
					"t_uint8": {
						"encoding": "inplace",
						"label": "uint8",
						"numberOfBytes": "1"
					}
				}
			},
			"userdoc": {
				"kind": "user",
				"methods": {},
				"version": 1
			}
		}
	}
}