{
	"extends.sol": {
		"Man": {
			"abi": [
				{
					"inputs": [],
					"name": "f1",
					"outputs": [
						{
							"internalType": "string",
							"name": "",
							"type": "string"
						},
						{
							"internalType": "uint8",
							"name": "",
							"type": "uint8"
						}
					],
					"stateMutability": "view",
					"type": "function"
				},
				{
					"inputs": [
						{
							"internalType": "string",
							"name": "_user",
							"type": "string"
						},
						{
							"internalType": "uint8",
							"name": "_age",
							"type": "uint8"
						}
					],
					"name": "setInfo",
					"outputs": [],
					"stateMutability": "nonpayable",
					"type": "function"
				}
			],
			"devdoc": {
				"kind": "dev",
				"methods": {},
				"version": 1
			},
			"evm": {
				"assembly": "    /* \"extends.sol\":343:480  contract Man is Person('liuqh',30) {\r... */\n  mstore(0x40, 0x80)\n  callvalue\n  dup1\n  iszero\n  tag_1\n  jumpi\n  0x00\n  dup1\n  revert\ntag_1:\n  pop\n    /* \"extends.sol\":122:218  constructor(string memory _user,uint8 _age) {\r... */\n  mload(0x40)\n  dup1\n  0x40\n  add\n  0x40\n  mstore\n  dup1\n  0x05\n  dup2\n  mstore\n  0x20\n  add\n  0x6c69757168000000000000000000000000000000000000000000000000000000\n  dup2\n  mstore\n  pop\n    /* \"extends.sol\":374:376  30 */\n  0x1e\n    /* \"extends.sol\":184:189  _user */\n  dup2\n    /* \"extends.sol\":177:181  user */\n  0x00\n    /* \"extends.sol\":177:189  user = _user */\n  swap1\n  dup1\n  mload\n  swap1\n  0x20\n  add\n  swap1\n  tag_4\n  swap3\n  swap2\n  swap1\n  tag_5\n  jump\t// in\ntag_4:\n  pop\n    /* \"extends.sol\":206:210  _age */\n  dup1\n    /* \"extends.sol\":200:203  age */\n  0x01\n  0x00\n    /* \"extends.sol\":200:210  age = _age */\n  0x0100\n  exp\n  dup2\n  sload\n  dup2\n  0xff\n  mul\n  not\n  and\n  swap1\n  dup4\n  0xff\n  and\n  mul\n  or\n  swap1\n  sstore\n  pop\n    /* \"extends.sol\":122:218  constructor(string memory _user,uint8 _age) {\r... */\n  pop\n  pop\n    /* \"extends.sol\":343:480  contract Man is Person('liuqh',30) {\r... */\n  jump(tag_6)\ntag_5:\n  dup3\n  dup1\n  sload\n  tag_7\n  swap1\n  tag_8\n  jump\t// in\ntag_7:\n  swap1\n  0x00\n  mstore\n  keccak256(0x00, 0x20)\n  swap1\n  0x1f\n  add\n  0x20\n  swap1\n  div\n  dup2\n  add\n  swap3\n  dup3\n  tag_10\n  jumpi\n  0x00\n  dup6\n  sstore\n  jump(tag_9)\ntag_10:\n  dup3\n  0x1f\n  lt\n  tag_11\n  jumpi\n  dup1\n  mload\n  not(0xff)\n  and\n  dup4\n  dup1\n  add\n  or\n  dup6\n  sstore\n  jump(tag_9)\ntag_11:\n  dup3\n  dup1\n  add\n  0x01\n  add\n  dup6\n  sstore\n  dup3\n  iszero\n  tag_9\n  jumpi\n  swap2\n  dup3\n  add\ntag_12:\n  dup3\n  dup2\n  gt\n  iszero\n  tag_13\n  jumpi\n  dup3\n  mload\n  dup3\n  sstore\n  swap2\n  0x20\n  add\n  swap2\n  swap1\n  0x01\n  add\n  swap1\n  jump(tag_12)\ntag_13:\ntag_9:\n  pop\n  swap1\n  pop\n  tag_14\n  swap2\n  swap1\n  tag_15\n  jump\t// in\ntag_14:\n  pop\n  swap1\n  jump\t// out\ntag_15:\ntag_16:\n  dup1\n  dup3\n  gt\n  iszero\n  tag_17\n  jumpi\n  0x00\n  dup2\n  0x00\n  swap1\n  sstore\n  pop\n  0x01\n  add\n  jump(tag_16)\ntag_17:\n  pop\n  swap1\n  jump\t// out\n    /* \"#utility.yul\":7:327   */\ntag_8:\n    /* \"#utility.yul\":51:57   */\n  0x00\n    /* \"#utility.yul\":88:89   */\n  0x02\n    /* \"#utility.yul\":82:86   */\n  dup3\n    /* \"#utility.yul\":78:90   */\n  div\n    /* \"#utility.yul\":68:90   */\n  swap1\n  pop\n    /* \"#utility.yul\":135:136   */\n  0x01\n    /* \"#utility.yul\":129:133   */\n  dup3\n    /* \"#utility.yul\":125:137   */\n  and\n    /* \"#utility.yul\":156:174   */\n  dup1\n    /* \"#utility.yul\":146:227   */\n  tag_20\n  jumpi\n    /* \"#utility.yul\":212:216   */\n  0x7f\n    /* \"#utility.yul\":204:210   */\n  dup3\n    /* \"#utility.yul\":200:217   */\n  and\n    /* \"#utility.yul\":190:217   */\n  swap2\n  pop\n    /* \"#utility.yul\":146:227   */\ntag_20:\n    /* \"#utility.yul\":274:276   */\n  0x20\n    /* \"#utility.yul\":266:272   */\n  dup3\n    /* \"#utility.yul\":263:277   */\n  lt\n    /* \"#utility.yul\":243:261   */\n  dup2\n    /* \"#utility.yul\":240:278   */\n  eq\n    /* \"#utility.yul\":237:321   */\n  iszero\n  tag_21\n  jumpi\n    /* \"#utility.yul\":293:311   */\n  tag_22\n  tag_23\n  jump\t// in\ntag_22:\n    /* \"#utility.yul\":237:321   */\ntag_21:\n    /* \"#utility.yul\":58:327   */\n  pop\n    /* \"#utility.yul\":7:327   */\n  swap2\n  swap1\n  pop\n  jump\t// out\n    /* \"#utility.yul\":333:513   */\ntag_23:\n    /* \"#utility.yul\":381:458   */\n  0x4e487b7100000000000000000000000000000000000000000000000000000000\n    /* \"#utility.yul\":378:379   */\n  0x00\n    /* \"#utility.yul\":371:459   */\n  mstore\n    /* \"#utility.yul\":478:482   */\n  0x22\n    /* \"#utility.yul\":475:476   */\n  0x04\n    /* \"#utility.yul\":468:483   */\n  mstore\n    /* \"#utility.yul\":502:506   */\n  0x24\n    /* \"#utility.yul\":499:500   */\n  0x00\n    /* \"#utility.yul\":492:507   */\n  revert\n    /* \"extends.sol\":343:480  contract Man is Person('liuqh',30) {\r... */\ntag_6:\n  dataSize(sub_0)\n  dup1\n  dataOffset(sub_0)\n  0x00\n  codecopy\n  0x00\n  return\nstop\n\nsub_0: assembly {\n        /* \"extends.sol\":343:480  contract Man is Person('liuqh',30) {\r... */\n      mstore(0x40, 0x80)\n      callvalue\n      dup1\n      iszero\n      tag_1\n      jumpi\n      0x00\n      dup1\n      revert\n    tag_1:\n      pop\n      jumpi(tag_2, lt(calldatasize, 0x04))\n      shr(0xe0, calldataload(0x00))\n      dup1\n      0xacb180ff\n      eq\n      tag_3\n      jumpi\n      dup1\n      0xc27fc305\n      eq\n      tag_4\n      jumpi\n    tag_2:\n      0x00\n      dup1\n      revert\n        /* \"extends.sol\":226:334  function setInfo(string memory _user,uint8 _age) public {\r... */\n    tag_3:\n      tag_5\n      0x04\n      dup1\n      calldatasize\n      sub\n      dup2\n      add\n      swap1\n      tag_6\n      swap2\n      swap1\n      tag_7\n      jump\t// in\n    tag_6:\n      tag_8\n      jump\t// in\n    tag_5:\n      stop\n        /* \"extends.sol\":385:477  function f1() public view returns (string memory,uint8) {\r... */\n    tag_4:\n      tag_9\n      tag_10\n      jump\t// in\n    tag_9:\n      mload(0x40)\n      tag_11\n      swap3\n      swap2\n      swap1\n      tag_12\n      jump\t// in\n    tag_11:\n      mload(0x40)\n      dup1\n      swap2\n      sub\n      swap1\n      return\n        /* \"extends.sol\":226:334  function setInfo(string memory _user,uint8 _age) public {\r... */\n    tag_8:\n        /* \"extends.sol\":300:305  _user */\n      dup2\n        /* \"extends.sol\":293:297  user */\n      0x00\n        /* \"extends.sol\":293:305  user = _user */\n      swap1\n      dup1\n      mload\n      swap1\n      0x20\n      add\n      swap1\n      tag_14\n      swap3\n      swap2\n      swap1\n      tag_15\n      jump\t// in\n    tag_14:\n      pop\n        /* \"extends.sol\":322:326  _age */\n      dup1\n        /* \"extends.sol\":316:319  age */\n      0x01\n      0x00\n        /* \"extends.sol\":316:326  age = _age */\n      0x0100\n      exp\n      dup2\n      sload\n      dup2\n      0xff\n      mul\n      not\n      and\n      swap1\n      dup4\n      0xff\n      and\n      mul\n      or\n      swap1\n      sstore\n      pop\n        /* \"extends.sol\":226:334  function setInfo(string memory _user,uint8 _age) public {\r... */\n      pop\n      pop\n      jump\t// out\n        /* \"extends.sol\":385:477  function f1() public view returns (string memory,uint8) {\r... */\n    tag_10:\n        /* \"extends.sol\":420:433  string memory */\n      0x60\n        /* \"extends.sol\":434:439  uint8 */\n      0x00\n        /* \"extends.sol\":460:464  user */\n      dup1\n        /* \"extends.sol\":465:468  age */\n      0x01\n      0x00\n      swap1\n      sload\n      swap1\n      0x0100\n      exp\n      swap1\n      div\n      0xff\n      and\n        /* \"extends.sol\":452:469  return (user,age) */\n      dup2\n      dup1\n      sload\n      tag_17\n      swap1\n      tag_18\n      jump\t// in\n    tag_17:\n      dup1\n      0x1f\n      add\n      0x20\n      dup1\n      swap2\n      div\n      mul\n      0x20\n      add\n      mload(0x40)\n      swap1\n      dup2\n      add\n      0x40\n      mstore\n      dup1\n      swap3\n      swap2\n      swap1\n      dup2\n      dup2\n      mstore\n      0x20\n      add\n      dup3\n      dup1\n      sload\n      tag_19\n      swap1\n      tag_18\n      jump\t// in\n    tag_19:\n      dup1\n      iszero\n      tag_20\n      jumpi\n      dup1\n      0x1f\n      lt\n      tag_21\n      jumpi\n      0x0100\n      dup1\n      dup4\n      sload\n      div\n      mul\n      dup4\n      mstore\n      swap2\n      0x20\n      add\n      swap2\n      jump(tag_20)\n    tag_21:\n      dup3\n      add\n      swap2\n      swap1\n      0x00\n      mstore\n      keccak256(0x00, 0x20)\n      swap1\n    tag_22:\n      dup2\n      sload\n      dup2\n      mstore\n      swap1\n      0x01\n      add\n      swap1\n      0x20\n      add\n      dup1\n      dup4\n      gt\n      tag_22\n      jumpi\n      dup3\n      swap1\n      sub\n      0x1f\n      and\n      dup3\n      add\n      swap2\n    tag_20:\n      pop\n      pop\n      pop\n      pop\n      pop\n      swap2\n      pop\n      swap2\n      pop\n      swap2\n      pop\n        /* \"extends.sol\":385:477  function f1() public view returns (string memory,uint8) {\r... */\n      swap1\n      swap2\n      jump\t// out\n    tag_15:\n      dup3\n      dup1\n      sload\n      tag_23\n      swap1\n      tag_18\n      jump\t// in\n    tag_23:\n      swap1\n      0x00\n      mstore\n      keccak256(0x00, 0x20)\n      swap1\n      0x1f\n      add\n      0x20\n      swap1\n      div\n      dup2\n      add\n      swap3\n      dup3\n      tag_25\n      jumpi\n      0x00\n      dup6\n      sstore\n      jump(tag_24)\n    tag_25:\n      dup3\n      0x1f\n      lt\n      tag_26\n      jumpi\n      dup1\n      mload\n      not(0xff)\n      and\n      dup4\n      dup1\n      add\n      or\n      dup6\n      sstore\n      jump(tag_24)\n    tag_26:\n      dup3\n      dup1\n      add\n      0x01\n      add\n      dup6\n      sstore\n      dup3\n      iszero\n      tag_24\n      jumpi\n      swap2\n      dup3\n      add\n    tag_27:\n      dup3\n      dup2\n      gt\n      iszero\n      tag_28\n      jumpi\n      dup3\n      mload\n      dup3\n      sstore\n      swap2\n      0x20\n      add\n      swap2\n      swap1\n      0x01\n      add\n      swap1\n      jump(tag_27)\n    tag_28:\n    tag_24:\n      pop\n      swap1\n      pop\n      tag_29\n      swap2\n      swap1\n      tag_30\n      jump\t// in\n    tag_29:\n      pop\n      swap1\n      jump\t// out\n    tag_30:\n    tag_31:\n      dup1\n      dup3\n      gt\n      iszero\n      tag_32\n      jumpi\n      0x00\n      dup2\n      0x00\n      swap1\n      sstore\n      pop\n      0x01\n      add\n      jump(tag_31)\n    tag_32:\n      pop\n      swap1\n      jump\t// out\n        /* \"#utility.yul\":7:419   */\n    tag_34:\n        /* \"#utility.yul\":85:90   */\n      0x00\n        /* \"#utility.yul\":110:176   */\n      tag_36\n        /* \"#utility.yul\":126:175   */\n      tag_37\n        /* \"#utility.yul\":168:174   */\n      dup5\n        /* \"#utility.yul\":126:175   */\n      tag_38\n      jump\t// in\n    tag_37:\n        /* \"#utility.yul\":110:176   */\n      tag_39\n      jump\t// in\n    tag_36:\n        /* \"#utility.yul\":101:176   */\n      swap1\n      pop\n        /* \"#utility.yul\":199:205   */\n      dup3\n        /* \"#utility.yul\":192:197   */\n      dup2\n        /* \"#utility.yul\":185:206   */\n      mstore\n        /* \"#utility.yul\":237:241   */\n      0x20\n        /* \"#utility.yul\":230:235   */\n      dup2\n        /* \"#utility.yul\":226:242   */\n      add\n        /* \"#utility.yul\":275:278   */\n      dup5\n        /* \"#utility.yul\":266:272   */\n      dup5\n        /* \"#utility.yul\":261:264   */\n      dup5\n        /* \"#utility.yul\":257:273   */\n      add\n        /* \"#utility.yul\":254:279   */\n      gt\n        /* \"#utility.yul\":251:363   */\n      iszero\n      tag_40\n      jumpi\n        /* \"#utility.yul\":282:361   */\n      tag_41\n      tag_42\n      jump\t// in\n    tag_41:\n        /* \"#utility.yul\":251:363   */\n    tag_40:\n        /* \"#utility.yul\":372:413   */\n      tag_43\n        /* \"#utility.yul\":406:412   */\n      dup5\n        /* \"#utility.yul\":401:404   */\n      dup3\n        /* \"#utility.yul\":396:399   */\n      dup6\n        /* \"#utility.yul\":372:413   */\n      tag_44\n      jump\t// in\n    tag_43:\n        /* \"#utility.yul\":91:419   */\n      pop\n        /* \"#utility.yul\":7:419   */\n      swap4\n      swap3\n      pop\n      pop\n      pop\n      jump\t// out\n        /* \"#utility.yul\":439:779   */\n    tag_45:\n        /* \"#utility.yul\":495:500   */\n      0x00\n        /* \"#utility.yul\":544:547   */\n      dup3\n        /* \"#utility.yul\":537:541   */\n      0x1f\n        /* \"#utility.yul\":529:535   */\n      dup4\n        /* \"#utility.yul\":525:542   */\n      add\n        /* \"#utility.yul\":521:548   */\n      slt\n        /* \"#utility.yul\":511:633   */\n      tag_47\n      jumpi\n        /* \"#utility.yul\":552:631   */\n      tag_48\n      tag_49\n      jump\t// in\n    tag_48:\n        /* \"#utility.yul\":511:633   */\n    tag_47:\n        /* \"#utility.yul\":669:675   */\n      dup2\n        /* \"#utility.yul\":656:676   */\n      calldataload\n        /* \"#utility.yul\":694:773   */\n      tag_50\n        /* \"#utility.yul\":769:772   */\n      dup5\n        /* \"#utility.yul\":761:767   */\n      dup3\n        /* \"#utility.yul\":754:758   */\n      0x20\n        /* \"#utility.yul\":746:752   */\n      dup7\n        /* \"#utility.yul\":742:759   */\n      add\n        /* \"#utility.yul\":694:773   */\n      tag_34\n      jump\t// in\n    tag_50:\n        /* \"#utility.yul\":685:773   */\n      swap2\n      pop\n        /* \"#utility.yul\":501:779   */\n      pop\n        /* \"#utility.yul\":439:779   */\n      swap3\n      swap2\n      pop\n      pop\n      jump\t// out\n        /* \"#utility.yul\":785:920   */\n    tag_51:\n        /* \"#utility.yul\":829:834   */\n      0x00\n        /* \"#utility.yul\":867:873   */\n      dup2\n        /* \"#utility.yul\":854:874   */\n      calldataload\n        /* \"#utility.yul\":845:874   */\n      swap1\n      pop\n        /* \"#utility.yul\":883:914   */\n      tag_53\n        /* \"#utility.yul\":908:913   */\n      dup2\n        /* \"#utility.yul\":883:914   */\n      tag_54\n      jump\t// in\n    tag_53:\n        /* \"#utility.yul\":785:920   */\n      swap3\n      swap2\n      pop\n      pop\n      jump\t// out\n        /* \"#utility.yul\":926:1576   */\n    tag_7:\n        /* \"#utility.yul\":1002:1008   */\n      0x00\n        /* \"#utility.yul\":1010:1016   */\n      dup1\n        /* \"#utility.yul\":1059:1061   */\n      0x40\n        /* \"#utility.yul\":1047:1056   */\n      dup4\n        /* \"#utility.yul\":1038:1045   */\n      dup6\n        /* \"#utility.yul\":1034:1057   */\n      sub\n        /* \"#utility.yul\":1030:1062   */\n      slt\n        /* \"#utility.yul\":1027:1146   */\n      iszero\n      tag_56\n      jumpi\n        /* \"#utility.yul\":1065:1144   */\n      tag_57\n      tag_58\n      jump\t// in\n    tag_57:\n        /* \"#utility.yul\":1027:1146   */\n    tag_56:\n        /* \"#utility.yul\":1213:1214   */\n      0x00\n        /* \"#utility.yul\":1202:1211   */\n      dup4\n        /* \"#utility.yul\":1198:1215   */\n      add\n        /* \"#utility.yul\":1185:1216   */\n      calldataload\n        /* \"#utility.yul\":1243:1261   */\n      0xffffffffffffffff\n        /* \"#utility.yul\":1235:1241   */\n      dup2\n        /* \"#utility.yul\":1232:1262   */\n      gt\n        /* \"#utility.yul\":1229:1346   */\n      iszero\n      tag_59\n      jumpi\n        /* \"#utility.yul\":1265:1344   */\n      tag_60\n      tag_61\n      jump\t// in\n    tag_60:\n        /* \"#utility.yul\":1229:1346   */\n    tag_59:\n        /* \"#utility.yul\":1370:1433   */\n      tag_62\n        /* \"#utility.yul\":1425:1432   */\n      dup6\n        /* \"#utility.yul\":1416:1422   */\n      dup3\n        /* \"#utility.yul\":1405:1414   */\n      dup7\n        /* \"#utility.yul\":1401:1423   */\n      add\n        /* \"#utility.yul\":1370:1433   */\n      tag_45\n      jump\t// in\n    tag_62:\n        /* \"#utility.yul\":1360:1433   */\n      swap3\n      pop\n        /* \"#utility.yul\":1156:1443   */\n      pop\n        /* \"#utility.yul\":1482:1484   */\n      0x20\n        /* \"#utility.yul\":1508:1559   */\n      tag_63\n        /* \"#utility.yul\":1551:1558   */\n      dup6\n        /* \"#utility.yul\":1542:1548   */\n      dup3\n        /* \"#utility.yul\":1531:1540   */\n      dup7\n        /* \"#utility.yul\":1527:1549   */\n      add\n        /* \"#utility.yul\":1508:1559   */\n      tag_51\n      jump\t// in\n    tag_63:\n        /* \"#utility.yul\":1498:1559   */\n      swap2\n      pop\n        /* \"#utility.yul\":1453:1569   */\n      pop\n        /* \"#utility.yul\":926:1576   */\n      swap3\n      pop\n      swap3\n      swap1\n      pop\n      jump\t// out\n        /* \"#utility.yul\":1582:1946   */\n    tag_64:\n        /* \"#utility.yul\":1670:1673   */\n      0x00\n        /* \"#utility.yul\":1698:1737   */\n      tag_66\n        /* \"#utility.yul\":1731:1736   */\n      dup3\n        /* \"#utility.yul\":1698:1737   */\n      tag_67\n      jump\t// in\n    tag_66:\n        /* \"#utility.yul\":1753:1824   */\n      tag_68\n        /* \"#utility.yul\":1817:1823   */\n      dup2\n        /* \"#utility.yul\":1812:1815   */\n      dup6\n        /* \"#utility.yul\":1753:1824   */\n      tag_69\n      jump\t// in\n    tag_68:\n        /* \"#utility.yul\":1746:1824   */\n      swap4\n      pop\n        /* \"#utility.yul\":1833:1885   */\n      tag_70\n        /* \"#utility.yul\":1878:1884   */\n      dup2\n        /* \"#utility.yul\":1873:1876   */\n      dup6\n        /* \"#utility.yul\":1866:1870   */\n      0x20\n        /* \"#utility.yul\":1859:1864   */\n      dup7\n        /* \"#utility.yul\":1855:1871   */\n      add\n        /* \"#utility.yul\":1833:1885   */\n      tag_71\n      jump\t// in\n    tag_70:\n        /* \"#utility.yul\":1910:1939   */\n      tag_72\n        /* \"#utility.yul\":1932:1938   */\n      dup2\n        /* \"#utility.yul\":1910:1939   */\n      tag_73\n      jump\t// in\n    tag_72:\n        /* \"#utility.yul\":1905:1908   */\n      dup5\n        /* \"#utility.yul\":1901:1940   */\n      add\n        /* \"#utility.yul\":1894:1940   */\n      swap2\n      pop\n        /* \"#utility.yul\":1674:1946   */\n      pop\n        /* \"#utility.yul\":1582:1946   */\n      swap3\n      swap2\n      pop\n      pop\n      jump\t// out\n        /* \"#utility.yul\":1952:2064   */\n    tag_74:\n        /* \"#utility.yul\":2035:2057   */\n      tag_76\n        /* \"#utility.yul\":2051:2056   */\n      dup2\n        /* \"#utility.yul\":2035:2057   */\n      tag_77\n      jump\t// in\n    tag_76:\n        /* \"#utility.yul\":2030:2033   */\n      dup3\n        /* \"#utility.yul\":2023:2058   */\n      mstore\n        /* \"#utility.yul\":1952:2064   */\n      pop\n      pop\n      jump\t// out\n        /* \"#utility.yul\":2070:2485   */\n    tag_12:\n        /* \"#utility.yul\":2207:2211   */\n      0x00\n        /* \"#utility.yul\":2245:2247   */\n      0x40\n        /* \"#utility.yul\":2234:2243   */\n      dup3\n        /* \"#utility.yul\":2230:2248   */\n      add\n        /* \"#utility.yul\":2222:2248   */\n      swap1\n      pop\n        /* \"#utility.yul\":2294:2303   */\n      dup2\n        /* \"#utility.yul\":2288:2292   */\n      dup2\n        /* \"#utility.yul\":2284:2304   */\n      sub\n        /* \"#utility.yul\":2280:2281   */\n      0x00\n        /* \"#utility.yul\":2269:2278   */\n      dup4\n        /* \"#utility.yul\":2265:2282   */\n      add\n        /* \"#utility.yul\":2258:2305   */\n      mstore\n        /* \"#utility.yul\":2322:2400   */\n      tag_79\n        /* \"#utility.yul\":2395:2399   */\n      dup2\n        /* \"#utility.yul\":2386:2392   */\n      dup6\n        /* \"#utility.yul\":2322:2400   */\n      tag_64\n      jump\t// in\n    tag_79:\n        /* \"#utility.yul\":2314:2400   */\n      swap1\n      pop\n        /* \"#utility.yul\":2410:2478   */\n      tag_80\n        /* \"#utility.yul\":2474:2476   */\n      0x20\n        /* \"#utility.yul\":2463:2472   */\n      dup4\n        /* \"#utility.yul\":2459:2477   */\n      add\n        /* \"#utility.yul\":2450:2456   */\n      dup5\n        /* \"#utility.yul\":2410:2478   */\n      tag_74\n      jump\t// in\n    tag_80:\n        /* \"#utility.yul\":2070:2485   */\n      swap4\n      swap3\n      pop\n      pop\n      pop\n      jump\t// out\n        /* \"#utility.yul\":2491:2620   */\n    tag_39:\n        /* \"#utility.yul\":2525:2531   */\n      0x00\n        /* \"#utility.yul\":2552:2572   */\n      tag_82\n      tag_83\n      jump\t// in\n    tag_82:\n        /* \"#utility.yul\":2542:2572   */\n      swap1\n      pop\n        /* \"#utility.yul\":2581:2614   */\n      tag_84\n        /* \"#utility.yul\":2609:2613   */\n      dup3\n        /* \"#utility.yul\":2601:2607   */\n      dup3\n        /* \"#utility.yul\":2581:2614   */\n      tag_85\n      jump\t// in\n    tag_84:\n        /* \"#utility.yul\":2491:2620   */\n      swap2\n      swap1\n      pop\n      jump\t// out\n        /* \"#utility.yul\":2626:2701   */\n    tag_83:\n        /* \"#utility.yul\":2659:2665   */\n      0x00\n        /* \"#utility.yul\":2692:2694   */\n      0x40\n        /* \"#utility.yul\":2686:2695   */\n      mload\n        /* \"#utility.yul\":2676:2695   */\n      swap1\n      pop\n        /* \"#utility.yul\":2626:2701   */\n      swap1\n      jump\t// out\n        /* \"#utility.yul\":2707:3015   */\n    tag_38:\n        /* \"#utility.yul\":2769:2773   */\n      0x00\n        /* \"#utility.yul\":2859:2877   */\n      0xffffffffffffffff\n        /* \"#utility.yul\":2851:2857   */\n      dup3\n        /* \"#utility.yul\":2848:2878   */\n      gt\n        /* \"#utility.yul\":2845:2901   */\n      iszero\n      tag_88\n      jumpi\n        /* \"#utility.yul\":2881:2899   */\n      tag_89\n      tag_90\n      jump\t// in\n    tag_89:\n        /* \"#utility.yul\":2845:2901   */\n    tag_88:\n        /* \"#utility.yul\":2919:2948   */\n      tag_91\n        /* \"#utility.yul\":2941:2947   */\n      dup3\n        /* \"#utility.yul\":2919:2948   */\n      tag_73\n      jump\t// in\n    tag_91:\n        /* \"#utility.yul\":2911:2948   */\n      swap1\n      pop\n        /* \"#utility.yul\":3003:3007   */\n      0x20\n        /* \"#utility.yul\":2997:3001   */\n      dup2\n        /* \"#utility.yul\":2993:3008   */\n      add\n        /* \"#utility.yul\":2985:3008   */\n      swap1\n      pop\n        /* \"#utility.yul\":2707:3015   */\n      swap2\n      swap1\n      pop\n      jump\t// out\n        /* \"#utility.yul\":3021:3120   */\n    tag_67:\n        /* \"#utility.yul\":3073:3079   */\n      0x00\n        /* \"#utility.yul\":3107:3112   */\n      dup2\n        /* \"#utility.yul\":3101:3113   */\n      mload\n        /* \"#utility.yul\":3091:3113   */\n      swap1\n      pop\n        /* \"#utility.yul\":3021:3120   */\n      swap2\n      swap1\n      pop\n      jump\t// out\n        /* \"#utility.yul\":3126:3295   */\n    tag_69:\n        /* \"#utility.yul\":3210:3221   */\n      0x00\n        /* \"#utility.yul\":3244:3250   */\n      dup3\n        /* \"#utility.yul\":3239:3242   */\n      dup3\n        /* \"#utility.yul\":3232:3251   */\n      mstore\n        /* \"#utility.yul\":3284:3288   */\n      0x20\n        /* \"#utility.yul\":3279:3282   */\n      dup3\n        /* \"#utility.yul\":3275:3289   */\n      add\n        /* \"#utility.yul\":3260:3289   */\n      swap1\n      pop\n        /* \"#utility.yul\":3126:3295   */\n      swap3\n      swap2\n      pop\n      pop\n      jump\t// out\n        /* \"#utility.yul\":3301:3387   */\n    tag_77:\n        /* \"#utility.yul\":3336:3343   */\n      0x00\n        /* \"#utility.yul\":3376:3380   */\n      0xff\n        /* \"#utility.yul\":3369:3374   */\n      dup3\n        /* \"#utility.yul\":3365:3381   */\n      and\n        /* \"#utility.yul\":3354:3381   */\n      swap1\n      pop\n        /* \"#utility.yul\":3301:3387   */\n      swap2\n      swap1\n      pop\n      jump\t// out\n        /* \"#utility.yul\":3393:3547   */\n    tag_44:\n        /* \"#utility.yul\":3477:3483   */\n      dup3\n        /* \"#utility.yul\":3472:3475   */\n      dup2\n        /* \"#utility.yul\":3467:3470   */\n      dup4\n        /* \"#utility.yul\":3454:3484   */\n      calldatacopy\n        /* \"#utility.yul\":3539:3540   */\n      0x00\n        /* \"#utility.yul\":3530:3536   */\n      dup4\n        /* \"#utility.yul\":3525:3528   */\n      dup4\n        /* \"#utility.yul\":3521:3537   */\n      add\n        /* \"#utility.yul\":3514:3541   */\n      mstore\n        /* \"#utility.yul\":3393:3547   */\n      pop\n      pop\n      pop\n      jump\t// out\n        /* \"#utility.yul\":3553:3860   */\n    tag_71:\n        /* \"#utility.yul\":3621:3622   */\n      0x00\n        /* \"#utility.yul\":3631:3744   */\n    tag_97:\n        /* \"#utility.yul\":3645:3651   */\n      dup4\n        /* \"#utility.yul\":3642:3643   */\n      dup2\n        /* \"#utility.yul\":3639:3652   */\n      lt\n        /* \"#utility.yul\":3631:3744   */\n      iszero\n      tag_99\n      jumpi\n        /* \"#utility.yul\":3730:3731   */\n      dup1\n        /* \"#utility.yul\":3725:3728   */\n      dup3\n        /* \"#utility.yul\":3721:3732   */\n      add\n        /* \"#utility.yul\":3715:3733   */\n      mload\n        /* \"#utility.yul\":3711:3712   */\n      dup2\n        /* \"#utility.yul\":3706:3709   */\n      dup5\n        /* \"#utility.yul\":3702:3713   */\n      add\n        /* \"#utility.yul\":3695:3734   */\n      mstore\n        /* \"#utility.yul\":3667:3669   */\n      0x20\n        /* \"#utility.yul\":3664:3665   */\n      dup2\n        /* \"#utility.yul\":3660:3670   */\n      add\n        /* \"#utility.yul\":3655:3670   */\n      swap1\n      pop\n        /* \"#utility.yul\":3631:3744   */\n      jump(tag_97)\n    tag_99:\n        /* \"#utility.yul\":3762:3768   */\n      dup4\n        /* \"#utility.yul\":3759:3760   */\n      dup2\n        /* \"#utility.yul\":3756:3769   */\n      gt\n        /* \"#utility.yul\":3753:3854   */\n      iszero\n      tag_100\n      jumpi\n        /* \"#utility.yul\":3842:3843   */\n      0x00\n        /* \"#utility.yul\":3833:3839   */\n      dup5\n        /* \"#utility.yul\":3828:3831   */\n      dup5\n        /* \"#utility.yul\":3824:3840   */\n      add\n        /* \"#utility.yul\":3817:3844   */\n      mstore\n        /* \"#utility.yul\":3753:3854   */\n    tag_100:\n        /* \"#utility.yul\":3602:3860   */\n      pop\n        /* \"#utility.yul\":3553:3860   */\n      pop\n      pop\n      pop\n      jump\t// out\n        /* \"#utility.yul\":3866:4186   */\n    tag_18:\n        /* \"#utility.yul\":3910:3916   */\n      0x00\n        /* \"#utility.yul\":3947:3948   */\n      0x02\n        /* \"#utility.yul\":3941:3945   */\n      dup3\n        /* \"#utility.yul\":3937:3949   */\n      div\n        /* \"#utility.yul\":3927:3949   */\n      swap1\n      pop\n        /* \"#utility.yul\":3994:3995   */\n      0x01\n        /* \"#utility.yul\":3988:3992   */\n      dup3\n        /* \"#utility.yul\":3984:3996   */\n      and\n        /* \"#utility.yul\":4015:4033   */\n      dup1\n        /* \"#utility.yul\":4005:4086   */\n      tag_102\n      jumpi\n        /* \"#utility.yul\":4071:4075   */\n      0x7f\n        /* \"#utility.yul\":4063:4069   */\n      dup3\n        /* \"#utility.yul\":4059:4076   */\n      and\n        /* \"#utility.yul\":4049:4076   */\n      swap2\n      pop\n        /* \"#utility.yul\":4005:4086   */\n    tag_102:\n        /* \"#utility.yul\":4133:4135   */\n      0x20\n        /* \"#utility.yul\":4125:4131   */\n      dup3\n        /* \"#utility.yul\":4122:4136   */\n      lt\n        /* \"#utility.yul\":4102:4120   */\n      dup2\n        /* \"#utility.yul\":4099:4137   */\n      eq\n        /* \"#utility.yul\":4096:4180   */\n      iszero\n      tag_103\n      jumpi\n        /* \"#utility.yul\":4152:4170   */\n      tag_104\n      tag_105\n      jump\t// in\n    tag_104:\n        /* \"#utility.yul\":4096:4180   */\n    tag_103:\n        /* \"#utility.yul\":3917:4186   */\n      pop\n        /* \"#utility.yul\":3866:4186   */\n      swap2\n      swap1\n      pop\n      jump\t// out\n        /* \"#utility.yul\":4192:4473   */\n    tag_85:\n        /* \"#utility.yul\":4275:4302   */\n      tag_107\n        /* \"#utility.yul\":4297:4301   */\n      dup3\n        /* \"#utility.yul\":4275:4302   */\n      tag_73\n      jump\t// in\n    tag_107:\n        /* \"#utility.yul\":4267:4273   */\n      dup2\n        /* \"#utility.yul\":4263:4303   */\n      add\n        /* \"#utility.yul\":4405:4411   */\n      dup2\n        /* \"#utility.yul\":4393:4403   */\n      dup2\n        /* \"#utility.yul\":4390:4412   */\n      lt\n        /* \"#utility.yul\":4369:4387   */\n      0xffffffffffffffff\n        /* \"#utility.yul\":4357:4367   */\n      dup3\n        /* \"#utility.yul\":4354:4388   */\n      gt\n        /* \"#utility.yul\":4351:4413   */\n      or\n        /* \"#utility.yul\":4348:4436   */\n      iszero\n      tag_108\n      jumpi\n        /* \"#utility.yul\":4416:4434   */\n      tag_109\n      tag_90\n      jump\t// in\n    tag_109:\n        /* \"#utility.yul\":4348:4436   */\n    tag_108:\n        /* \"#utility.yul\":4456:4466   */\n      dup1\n        /* \"#utility.yul\":4452:4454   */\n      0x40\n        /* \"#utility.yul\":4445:4467   */\n      mstore\n        /* \"#utility.yul\":4235:4473   */\n      pop\n        /* \"#utility.yul\":4192:4473   */\n      pop\n      pop\n      jump\t// out\n        /* \"#utility.yul\":4479:4659   */\n    tag_105:\n        /* \"#utility.yul\":4527:4604   */\n      0x4e487b7100000000000000000000000000000000000000000000000000000000\n        /* \"#utility.yul\":4524:4525   */\n      0x00\n        /* \"#utility.yul\":4517:4605   */\n      mstore\n        /* \"#utility.yul\":4624:4628   */\n      0x22\n        /* \"#utility.yul\":4621:4622   */\n      0x04\n        /* \"#utility.yul\":4614:4629   */\n      mstore\n        /* \"#utility.yul\":4648:4652   */\n      0x24\n        /* \"#utility.yul\":4645:4646   */\n      0x00\n        /* \"#utility.yul\":4638:4653   */\n      revert\n        /* \"#utility.yul\":4665:4845   */\n    tag_90:\n        /* \"#utility.yul\":4713:4790   */\n      0x4e487b7100000000000000000000000000000000000000000000000000000000\n        /* \"#utility.yul\":4710:4711   */\n      0x00\n        /* \"#utility.yul\":4703:4791   */\n      mstore\n        /* \"#utility.yul\":4810:4814   */\n      0x41\n        /* \"#utility.yul\":4807:4808   */\n      0x04\n        /* \"#utility.yul\":4800:4815   */\n      mstore\n        /* \"#utility.yul\":4834:4838   */\n      0x24\n        /* \"#utility.yul\":4831:4832   */\n      0x00\n        /* \"#utility.yul\":4824:4839   */\n      revert\n        /* \"#utility.yul\":4851:4968   */\n    tag_49:\n        /* \"#utility.yul\":4960:4961   */\n      0x00\n        /* \"#utility.yul\":4957:4958   */\n      dup1\n        /* \"#utility.yul\":4950:4962   */\n      revert\n        /* \"#utility.yul\":4974:5091   */\n    tag_42:\n        /* \"#utility.yul\":5083:5084   */\n      0x00\n        /* \"#utility.yul\":5080:5081   */\n      dup1\n        /* \"#utility.yul\":5073:5085   */\n      revert\n        /* \"#utility.yul\":5097:5214   */\n    tag_61:\n        /* \"#utility.yul\":5206:5207   */\n      0x00\n        /* \"#utility.yul\":5203:5204   */\n      dup1\n        /* \"#utility.yul\":5196:5208   */\n      revert\n        /* \"#utility.yul\":5220:5337   */\n    tag_58:\n        /* \"#utility.yul\":5329:5330   */\n      0x00\n        /* \"#utility.yul\":5326:5327   */\n      dup1\n        /* \"#utility.yul\":5319:5331   */\n      revert\n        /* \"#utility.yul\":5343:5445   */\n    tag_73:\n        /* \"#utility.yul\":5384:5390   */\n      0x00\n        /* \"#utility.yul\":5435:5437   */\n      0x1f\n        /* \"#utility.yul\":5431:5438   */\n      not\n        /* \"#utility.yul\":5426:5428   */\n      0x1f\n        /* \"#utility.yul\":5419:5424   */\n      dup4\n        /* \"#utility.yul\":5415:5429   */\n      add\n        /* \"#utility.yul\":5411:5439   */\n      and\n        /* \"#utility.yul\":5401:5439   */\n      swap1\n      pop\n        /* \"#utility.yul\":5343:5445   */\n      swap2\n      swap1\n      pop\n      jump\t// out\n        /* \"#utility.yul\":5451:5569   */\n    tag_54:\n        /* \"#utility.yul\":5522:5544   */\n      tag_118\n        /* \"#utility.yul\":5538:5543   */\n      dup2\n        /* \"#utility.yul\":5522:5544   */\n      tag_77\n      jump\t// in\n    tag_118:\n        /* \"#utility.yul\":5515:5520   */\n      dup2\n        /* \"#utility.yul\":5512:5545   */\n      eq\n        /* \"#utility.yul\":5502:5563   */\n      tag_119\n      jumpi\n        /* \"#utility.yul\":5559:5560   */\n      0x00\n        /* \"#utility.yul\":5556:5557   */\n      dup1\n        /* \"#utility.yul\":5549:5561   */\n      revert\n        /* \"#utility.yul\":5502:5563   */\n    tag_119:\n        /* \"#utility.yul\":5451:5569   */\n      pop\n      jump\t// out\n\n    auxdata: 0xa26469706673582212202f9a71a2c82c38b9e7d2ad1ac6f46ad7b17f7cf2cc5f6b104f417ee2d3f488ca64736f6c63430008070033\n}\n",
				"bytecode": {
					"linkReferences": {},
					"object": "608060405234801561001057600080fd5b506040518060400160405280600581526020017f6c69757168000000000000000000000000000000000000000000000000000000815250601e816000908051906020019061005f929190610082565b5080600160006101000a81548160ff021916908360ff1602179055505050610186565b82805461008e90610125565b90600052602060002090601f0160209004810192826100b057600085556100f7565b82601f106100c957805160ff19168380011785556100f7565b828001600101855582156100f7579182015b828111156100f65782518255916020019190600101906100db565b5b5090506101049190610108565b5090565b5b80821115610121576000816000905550600101610109565b5090565b6000600282049050600182168061013d57607f821691505b6020821081141561015157610150610157565b5b50919050565b7f4e487b7100000000000000000000000000000000000000000000000000000000600052602260045260246000fd5b610545806101956000396000f3fe608060405234801561001057600080fd5b50600436106100365760003560e01c8063acb180ff1461003b578063c27fc30514610057575b600080fd5b6100556004803603810190610050919061027d565b610076565b005b61005f6100ac565b60405161006d929190610321565b60405180910390f35b816000908051906020019061008c929190610155565b5080600160006101000a81548160ff021916908360ff1602179055505050565b6060600080600160009054906101000a900460ff168180546100cd90610412565b80601f01602080910402602001604051908101604052809291908181526020018280546100f990610412565b80156101465780601f1061011b57610100808354040283529160200191610146565b820191906000526020600020905b81548152906001019060200180831161012957829003601f168201915b50505050509150915091509091565b82805461016190610412565b90600052602060002090601f01602090048101928261018357600085556101ca565b82601f1061019c57805160ff19168380011785556101ca565b828001600101855582156101ca579182015b828111156101c95782518255916020019190600101906101ae565b5b5090506101d791906101db565b5090565b5b808211156101f45760008160009055506001016101dc565b5090565b600061020b61020684610376565b610351565b905082815260208101848484011115610227576102266104d8565b5b6102328482856103d0565b509392505050565b600082601f83011261024f5761024e6104d3565b5b813561025f8482602086016101f8565b91505092915050565b600081359050610277816104f8565b92915050565b60008060408385031215610294576102936104e2565b5b600083013567ffffffffffffffff8111156102b2576102b16104dd565b5b6102be8582860161023a565b92505060206102cf85828601610268565b9150509250929050565b60006102e4826103a7565b6102ee81856103b2565b93506102fe8185602086016103df565b610307816104e7565b840191505092915050565b61031b816103c3565b82525050565b6000604082019050818103600083015261033b81856102d9565b905061034a6020830184610312565b9392505050565b600061035b61036c565b90506103678282610444565b919050565b6000604051905090565b600067ffffffffffffffff821115610391576103906104a4565b5b61039a826104e7565b9050602081019050919050565b600081519050919050565b600082825260208201905092915050565b600060ff82169050919050565b82818337600083830152505050565b60005b838110156103fd5780820151818401526020810190506103e2565b8381111561040c576000848401525b50505050565b6000600282049050600182168061042a57607f821691505b6020821081141561043e5761043d610475565b5b50919050565b61044d826104e7565b810181811067ffffffffffffffff8211171561046c5761046b6104a4565b5b80604052505050565b7f4e487b7100000000000000000000000000000000000000000000000000000000600052602260045260246000fd5b7f4e487b7100000000000000000000000000000000000000000000000000000000600052604160045260246000fd5b600080fd5b600080fd5b600080fd5b600080fd5b6000601f19601f8301169050919050565b610501816103c3565b811461050c57600080fd5b5056fea26469706673582212202f9a71a2c82c38b9e7d2ad1ac6f46ad7b17f7cf2cc5f6b104f417ee2d3f488ca64736f6c63430008070033",
					"opcodes": "PUSH1 0x80 PUSH1 0x40 MSTORE CALLVALUE DUP1 ISZERO PUSH2 0x10 JUMPI PUSH1 0x0 DUP1 REVERT JUMPDEST POP PUSH1 0x40 MLOAD DUP1 PUSH1 0x40 ADD PUSH1 0x40 MSTORE DUP1 PUSH1 0x5 DUP2 MSTORE PUSH1 0x20 ADD PUSH32 0x6C69757168000000000000000000000000000000000000000000000000000000 DUP2 MSTORE POP PUSH1 0x1E DUP2 PUSH1 0x0 SWAP1 DUP1 MLOAD SWAP1 PUSH1 0x20 ADD SWAP1 PUSH2 0x5F SWAP3 SWAP2 SWAP1 PUSH2 0x82 JUMP JUMPDEST POP DUP1 PUSH1 0x1 PUSH1 0x0 PUSH2 0x100 EXP DUP2 SLOAD DUP2 PUSH1 0xFF MUL NOT AND SWAP1 DUP4 PUSH1 0xFF AND MUL OR SWAP1 SSTORE POP POP POP PUSH2 0x186 JUMP JUMPDEST DUP3 DUP1 SLOAD PUSH2 0x8E SWAP1 PUSH2 0x125 JUMP JUMPDEST SWAP1 PUSH1 0x0 MSTORE PUSH1 0x20 PUSH1 0x0 KECCAK256 SWAP1 PUSH1 0x1F ADD PUSH1 0x20 SWAP1 DIV DUP2 ADD SWAP3 DUP3 PUSH2 0xB0 JUMPI PUSH1 0x0 DUP6 SSTORE PUSH2 0xF7 JUMP JUMPDEST DUP3 PUSH1 0x1F LT PUSH2 0xC9 JUMPI DUP1 MLOAD PUSH1 0xFF NOT AND DUP4 DUP1 ADD OR DUP6 SSTORE PUSH2 0xF7 JUMP JUMPDEST DUP3 DUP1 ADD PUSH1 0x1 ADD DUP6 SSTORE DUP3 ISZERO PUSH2 0xF7 JUMPI SWAP2 DUP3 ADD JUMPDEST DUP3 DUP2 GT ISZERO PUSH2 0xF6 JUMPI DUP3 MLOAD DUP3 SSTORE SWAP2 PUSH1 0x20 ADD SWAP2 SWAP1 PUSH1 0x1 ADD SWAP1 PUSH2 0xDB JUMP JUMPDEST JUMPDEST POP SWAP1 POP PUSH2 0x104 SWAP2 SWAP1 PUSH2 0x108 JUMP JUMPDEST POP SWAP1 JUMP JUMPDEST JUMPDEST DUP1 DUP3 GT ISZERO PUSH2 0x121 JUMPI PUSH1 0x0 DUP2 PUSH1 0x0 SWAP1 SSTORE POP PUSH1 0x1 ADD PUSH2 0x109 JUMP JUMPDEST POP SWAP1 JUMP JUMPDEST PUSH1 0x0 PUSH1 0x2 DUP3 DIV SWAP1 POP PUSH1 0x1 DUP3 AND DUP1 PUSH2 0x13D JUMPI PUSH1 0x7F DUP3 AND SWAP2 POP JUMPDEST PUSH1 0x20 DUP3 LT DUP2 EQ ISZERO PUSH2 0x151 JUMPI PUSH2 0x150 PUSH2 0x157 JUMP JUMPDEST JUMPDEST POP SWAP2 SWAP1 POP JUMP JUMPDEST PUSH32 0x4E487B7100000000000000000000000000000000000000000000000000000000 PUSH1 0x0 MSTORE PUSH1 0x22 PUSH1 0x4 MSTORE PUSH1 0x24 PUSH1 0x0 REVERT JUMPDEST PUSH2 0x545 DUP1 PUSH2 0x195 PUSH1 0x0 CODECOPY PUSH1 0x0 RETURN INVALID PUSH1 0x80 PUSH1 0x40 MSTORE CALLVALUE DUP1 ISZERO PUSH2 0x10 JUMPI PUSH1 0x0 DUP1 REVERT JUMPDEST POP PUSH1 0x4 CALLDATASIZE LT PUSH2 0x36 JUMPI PUSH1 0x0 CALLDATALOAD PUSH1 0xE0 SHR DUP1 PUSH4 0xACB180FF EQ PUSH2 0x3B JUMPI DUP1 PUSH4 0xC27FC305 EQ PUSH2 0x57 JUMPI JUMPDEST PUSH1 0x0 DUP1 REVERT JUMPDEST PUSH2 0x55 PUSH1 0x4 DUP1 CALLDATASIZE SUB DUP2 ADD SWAP1 PUSH2 0x50 SWAP2 SWAP1 PUSH2 0x27D JUMP JUMPDEST PUSH2 0x76 JUMP JUMPDEST STOP JUMPDEST PUSH2 0x5F PUSH2 0xAC JUMP JUMPDEST PUSH1 0x40 MLOAD PUSH2 0x6D SWAP3 SWAP2 SWAP1 PUSH2 0x321 JUMP JUMPDEST PUSH1 0x40 MLOAD DUP1 SWAP2 SUB SWAP1 RETURN JUMPDEST DUP2 PUSH1 0x0 SWAP1 DUP1 MLOAD SWAP1 PUSH1 0x20 ADD SWAP1 PUSH2 0x8C SWAP3 SWAP2 SWAP1 PUSH2 0x155 JUMP JUMPDEST POP DUP1 PUSH1 0x1 PUSH1 0x0 PUSH2 0x100 EXP DUP2 SLOAD DUP2 PUSH1 0xFF MUL NOT AND SWAP1 DUP4 PUSH1 0xFF AND MUL OR SWAP1 SSTORE POP POP POP JUMP JUMPDEST PUSH1 0x60 PUSH1 0x0 DUP1 PUSH1 0x1 PUSH1 0x0 SWAP1 SLOAD SWAP1 PUSH2 0x100 EXP SWAP1 DIV PUSH1 0xFF AND DUP2 DUP1 SLOAD PUSH2 0xCD SWAP1 PUSH2 0x412 JUMP JUMPDEST DUP1 PUSH1 0x1F ADD PUSH1 0x20 DUP1 SWAP2 DIV MUL PUSH1 0x20 ADD PUSH1 0x40 MLOAD SWAP1 DUP2 ADD PUSH1 0x40 MSTORE DUP1 SWAP3 SWAP2 SWAP1 DUP2 DUP2 MSTORE PUSH1 0x20 ADD DUP3 DUP1 SLOAD PUSH2 0xF9 SWAP1 PUSH2 0x412 JUMP JUMPDEST DUP1 ISZERO PUSH2 0x146 JUMPI DUP1 PUSH1 0x1F LT PUSH2 0x11B JUMPI PUSH2 0x100 DUP1 DUP4 SLOAD DIV MUL DUP4 MSTORE SWAP2 PUSH1 0x20 ADD SWAP2 PUSH2 0x146 JUMP JUMPDEST DUP3 ADD SWAP2 SWAP1 PUSH1 0x0 MSTORE PUSH1 0x20 PUSH1 0x0 KECCAK256 SWAP1 JUMPDEST DUP2 SLOAD DUP2 MSTORE SWAP1 PUSH1 0x1 ADD SWAP1 PUSH1 0x20 ADD DUP1 DUP4 GT PUSH2 0x129 JUMPI DUP3 SWAP1 SUB PUSH1 0x1F AND DUP3 ADD SWAP2 JUMPDEST POP POP POP POP POP SWAP2 POP SWAP2 POP SWAP2 POP SWAP1 SWAP2 JUMP JUMPDEST DUP3 DUP1 SLOAD PUSH2 0x161 SWAP1 PUSH2 0x412 JUMP JUMPDEST SWAP1 PUSH1 0x0 MSTORE PUSH1 0x20 PUSH1 0x0 KECCAK256 SWAP1 PUSH1 0x1F ADD PUSH1 0x20 SWAP1 DIV DUP2 ADD SWAP3 DUP3 PUSH2 0x183 JUMPI PUSH1 0x0 DUP6 SSTORE PUSH2 0x1CA JUMP JUMPDEST DUP3 PUSH1 0x1F LT PUSH2 0x19C JUMPI DUP1 MLOAD PUSH1 0xFF NOT AND DUP4 DUP1 ADD OR DUP6 SSTORE PUSH2 0x1CA JUMP JUMPDEST DUP3 DUP1 ADD PUSH1 0x1 ADD DUP6 SSTORE DUP3 ISZERO PUSH2 0x1CA JUMPI SWAP2 DUP3 ADD JUMPDEST DUP3 DUP2 GT ISZERO PUSH2 0x1C9 JUMPI DUP3 MLOAD DUP3 SSTORE SWAP2 PUSH1 0x20 ADD SWAP2 SWAP1 PUSH1 0x1 ADD SWAP1 PUSH2 0x1AE JUMP JUMPDEST JUMPDEST POP SWAP1 POP PUSH2 0x1D7 SWAP2 SWAP1 PUSH2 0x1DB JUMP JUMPDEST POP SWAP1 JUMP JUMPDEST JUMPDEST DUP1 DUP3 GT ISZERO PUSH2 0x1F4 JUMPI PUSH1 0x0 DUP2 PUSH1 0x0 SWAP1 SSTORE POP PUSH1 0x1 ADD PUSH2 0x1DC JUMP JUMPDEST POP SWAP1 JUMP JUMPDEST PUSH1 0x0 PUSH2 0x20B PUSH2 0x206 DUP5 PUSH2 0x376 JUMP JUMPDEST PUSH2 0x351 JUMP JUMPDEST SWAP1 POP DUP3 DUP2 MSTORE PUSH1 0x20 DUP2 ADD DUP5 DUP5 DUP5 ADD GT ISZERO PUSH2 0x227 JUMPI PUSH2 0x226 PUSH2 0x4D8 JUMP JUMPDEST JUMPDEST PUSH2 0x232 DUP5 DUP3 DUP6 PUSH2 0x3D0 JUMP JUMPDEST POP SWAP4 SWAP3 POP POP POP JUMP JUMPDEST PUSH1 0x0 DUP3 PUSH1 0x1F DUP4 ADD SLT PUSH2 0x24F JUMPI PUSH2 0x24E PUSH2 0x4D3 JUMP JUMPDEST JUMPDEST DUP2 CALLDATALOAD PUSH2 0x25F DUP5 DUP3 PUSH1 0x20 DUP7 ADD PUSH2 0x1F8 JUMP JUMPDEST SWAP2 POP POP SWAP3 SWAP2 POP POP JUMP JUMPDEST PUSH1 0x0 DUP2 CALLDATALOAD SWAP1 POP PUSH2 0x277 DUP2 PUSH2 0x4F8 JUMP JUMPDEST SWAP3 SWAP2 POP POP JUMP JUMPDEST PUSH1 0x0 DUP1 PUSH1 0x40 DUP4 DUP6 SUB SLT ISZERO PUSH2 0x294 JUMPI PUSH2 0x293 PUSH2 0x4E2 JUMP JUMPDEST JUMPDEST PUSH1 0x0 DUP4 ADD CALLDATALOAD PUSH8 0xFFFFFFFFFFFFFFFF DUP2 GT ISZERO PUSH2 0x2B2 JUMPI PUSH2 0x2B1 PUSH2 0x4DD JUMP JUMPDEST JUMPDEST PUSH2 0x2BE DUP6 DUP3 DUP7 ADD PUSH2 0x23A JUMP JUMPDEST SWAP3 POP POP PUSH1 0x20 PUSH2 0x2CF DUP6 DUP3 DUP7 ADD PUSH2 0x268 JUMP JUMPDEST SWAP2 POP POP SWAP3 POP SWAP3 SWAP1 POP JUMP JUMPDEST PUSH1 0x0 PUSH2 0x2E4 DUP3 PUSH2 0x3A7 JUMP JUMPDEST PUSH2 0x2EE DUP2 DUP6 PUSH2 0x3B2 JUMP JUMPDEST SWAP4 POP PUSH2 0x2FE DUP2 DUP6 PUSH1 0x20 DUP7 ADD PUSH2 0x3DF JUMP JUMPDEST PUSH2 0x307 DUP2 PUSH2 0x4E7 JUMP JUMPDEST DUP5 ADD SWAP2 POP POP SWAP3 SWAP2 POP POP JUMP JUMPDEST PUSH2 0x31B DUP2 PUSH2 0x3C3 JUMP JUMPDEST DUP3 MSTORE POP POP JUMP JUMPDEST PUSH1 0x0 PUSH1 0x40 DUP3 ADD SWAP1 POP DUP2 DUP2 SUB PUSH1 0x0 DUP4 ADD MSTORE PUSH2 0x33B DUP2 DUP6 PUSH2 0x2D9 JUMP JUMPDEST SWAP1 POP PUSH2 0x34A PUSH1 0x20 DUP4 ADD DUP5 PUSH2 0x312 JUMP JUMPDEST SWAP4 SWAP3 POP POP POP JUMP JUMPDEST PUSH1 0x0 PUSH2 0x35B PUSH2 0x36C JUMP JUMPDEST SWAP1 POP PUSH2 0x367 DUP3 DUP3 PUSH2 0x444 JUMP JUMPDEST SWAP2 SWAP1 POP JUMP JUMPDEST PUSH1 0x0 PUSH1 0x40 MLOAD SWAP1 POP SWAP1 JUMP JUMPDEST PUSH1 0x0 PUSH8 0xFFFFFFFFFFFFFFFF DUP3 GT ISZERO PUSH2 0x391 JUMPI PUSH2 0x390 PUSH2 0x4A4 JUMP JUMPDEST JUMPDEST PUSH2 0x39A DUP3 PUSH2 0x4E7 JUMP JUMPDEST SWAP1 POP PUSH1 0x20 DUP2 ADD SWAP1 POP SWAP2 SWAP1 POP JUMP JUMPDEST PUSH1 0x0 DUP2 MLOAD SWAP1 POP SWAP2 SWAP1 POP JUMP JUMPDEST PUSH1 0x0 DUP3 DUP3 MSTORE PUSH1 0x20 DUP3 ADD SWAP1 POP SWAP3 SWAP2 POP POP JUMP JUMPDEST PUSH1 0x0 PUSH1 0xFF DUP3 AND SWAP1 POP SWAP2 SWAP1 POP JUMP JUMPDEST DUP3 DUP2 DUP4 CALLDATACOPY PUSH1 0x0 DUP4 DUP4 ADD MSTORE POP POP POP JUMP JUMPDEST PUSH1 0x0 JUMPDEST DUP4 DUP2 LT ISZERO PUSH2 0x3FD JUMPI DUP1 DUP3 ADD MLOAD DUP2 DUP5 ADD MSTORE PUSH1 0x20 DUP2 ADD SWAP1 POP PUSH2 0x3E2 JUMP JUMPDEST DUP4 DUP2 GT ISZERO PUSH2 0x40C JUMPI PUSH1 0x0 DUP5 DUP5 ADD MSTORE JUMPDEST POP POP POP POP JUMP JUMPDEST PUSH1 0x0 PUSH1 0x2 DUP3 DIV SWAP1 POP PUSH1 0x1 DUP3 AND DUP1 PUSH2 0x42A JUMPI PUSH1 0x7F DUP3 AND SWAP2 POP JUMPDEST PUSH1 0x20 DUP3 LT DUP2 EQ ISZERO PUSH2 0x43E JUMPI PUSH2 0x43D PUSH2 0x475 JUMP JUMPDEST JUMPDEST POP SWAP2 SWAP1 POP JUMP JUMPDEST PUSH2 0x44D DUP3 PUSH2 0x4E7 JUMP JUMPDEST DUP2 ADD DUP2 DUP2 LT PUSH8 0xFFFFFFFFFFFFFFFF DUP3 GT OR ISZERO PUSH2 0x46C JUMPI PUSH2 0x46B PUSH2 0x4A4 JUMP JUMPDEST JUMPDEST DUP1 PUSH1 0x40 MSTORE POP POP POP JUMP JUMPDEST PUSH32 0x4E487B7100000000000000000000000000000000000000000000000000000000 PUSH1 0x0 MSTORE PUSH1 0x22 PUSH1 0x4 MSTORE PUSH1 0x24 PUSH1 0x0 REVERT JUMPDEST PUSH32 0x4E487B7100000000000000000000000000000000000000000000000000000000 PUSH1 0x0 MSTORE PUSH1 0x41 PUSH1 0x4 MSTORE PUSH1 0x24 PUSH1 0x0 REVERT JUMPDEST PUSH1 0x0 DUP1 REVERT JUMPDEST PUSH1 0x0 DUP1 REVERT JUMPDEST PUSH1 0x0 DUP1 REVERT JUMPDEST PUSH1 0x0 DUP1 REVERT JUMPDEST PUSH1 0x0 PUSH1 0x1F NOT PUSH1 0x1F DUP4 ADD AND SWAP1 POP SWAP2 SWAP1 POP JUMP JUMPDEST PUSH2 0x501 DUP2 PUSH2 0x3C3 JUMP JUMPDEST DUP2 EQ PUSH2 0x50C JUMPI PUSH1 0x0 DUP1 REVERT JUMPDEST POP JUMP INVALID LOG2 PUSH5 0x6970667358 0x22 SLT KECCAK256 0x2F SWAP11 PUSH18 0xA2C82C38B9E7D2AD1AC6F46AD7B17F7CF2CC 0x5F PUSH12 0x104F417EE2D3F488CA64736F PUSH13 0x63430008070033000000000000 "
				},
				"gasEstimates": {
					"creation": {
						"codeDepositCost": "269800",
						"executionCost": "infinite",
						"totalCost": "infinite"
					},
					"external": {
						"f1()": "infinite",
						"setInfo(string,uint8)": "infinite"
					}
				},
				"methodIdentifiers": {
					"f1()": "c27fc305",
					"setInfo(string,uint8)": "acb180ff"
				}
			},
			"storageLayout": {
				"storage": [
					{
						"astId": 3,
						"contract": "extends.sol:Man",
						"label": "user",
						"offset": 0,
						"slot": "0",
						"type": "t_string_storage"
					},
					{
						"astId": 5,
						"contract": "extends.sol:Man",
						"label": "age",
						"offset": 0,
						"slot": "1",
						"type": "t_uint8"
					}
				],
				"types": {
					"t_string_storage": {
						"encoding": "bytes",
						"label": "string",
						"numberOfBytes": "32"
					},
					"t_uint8": {
						"encoding": "inplace",
						"label": "uint8",
						"numberOfBytes": "1"
					}
				}
			},
			"userdoc": {
				"kind": "user",
				"methods": {},
				"version": 1
			}
		}
	}
}