{
	"crowdfunding.sol": {
		"CrowdfundingContract": {
			"abi": [
				{
					"anonymous": false,
					"inputs": [
						{
							"indexed": false,
							"internalType": "address",
							"name": "msg",
							"type": "address"
						}
					],
					"name": "Log",
					"type": "event"
				},
				{
					"inputs": [
						{
							"internalType": "string",
							"name": "_title",
							"type": "string"
						},
						{
							"internalType": "address",
							"name": "_recipient",
							"type": "address"
						},
						{
							"internalType": "uint256",
							"name": "_expectAmout",
							"type": "uint256"
						}
					],
					"name": "createCrowdfunding",
					"outputs": [],
					"stateMutability": "nonpayable",
					"type": "function"
				},
				{
					"inputs": [
						{
							"internalType": "uint256",
							"name": "_status",
							"type": "uint256"
						}
					],
					"name": "getCrowdfundingByStatus",
					"outputs": [
						{
							"components": [
								{
									"internalType": "uint256",
									"name": "num",
									"type": "uint256"
								},
								{
									"internalType": "string",
									"name": "title",
									"type": "string"
								},
								{
									"internalType": "uint256",
									"name": "status",
									"type": "uint256"
								},
								{
									"internalType": "address",
									"name": "creator",
									"type": "address"
								},
								{
									"internalType": "address",
									"name": "recipient",
									"type": "address"
								},
								{
									"internalType": "uint256",
									"name": "joinNum",
									"type": "uint256"
								},
								{
									"internalType": "uint256",
									"name": "expectAmout",
									"type": "uint256"
								},
								{
									"internalType": "uint256",
									"name": "actualAmount",
									"type": "uint256"
								}
							],
							"internalType": "struct CrowdfundingContract.Crowdfunding[]",
							"name": "",
							"type": "tuple[]"
						}
					],
					"stateMutability": "view",
					"type": "function"
				},
				{
					"inputs": [
						{
							"internalType": "address",
							"name": "addr",
							"type": "address"
						}
					],
					"name": "getMyCrowdfunding",
					"outputs": [
						{
							"components": [
								{
									"internalType": "uint256",
									"name": "num",
									"type": "uint256"
								},
								{
									"internalType": "string",
									"name": "title",
									"type": "string"
								},
								{
									"internalType": "uint256",
									"name": "status",
									"type": "uint256"
								},
								{
									"internalType": "address",
									"name": "creator",
									"type": "address"
								},
								{
									"internalType": "address",
									"name": "recipient",
									"type": "address"
								},
								{
									"internalType": "uint256",
									"name": "joinNum",
									"type": "uint256"
								},
								{
									"internalType": "uint256",
									"name": "expectAmout",
									"type": "uint256"
								},
								{
									"internalType": "uint256",
									"name": "actualAmount",
									"type": "uint256"
								}
							],
							"internalType": "struct CrowdfundingContract.Crowdfunding[]",
							"name": "",
							"type": "tuple[]"
						}
					],
					"stateMutability": "view",
					"type": "function"
				},
				{
					"inputs": [
						{
							"internalType": "uint256",
							"name": "num",
							"type": "uint256"
						},
						{
							"internalType": "uint256",
							"name": "amount",
							"type": "uint256"
						},
						{
							"internalType": "address",
							"name": "addr",
							"type": "address"
						}
					],
					"name": "join",
					"outputs": [],
					"stateMutability": "nonpayable",
					"type": "function"
				},
				{
					"inputs": [
						{
							"internalType": "uint256",
							"name": "",
							"type": "uint256"
						}
					],
					"name": "list",
					"outputs": [
						{
							"internalType": "uint256",
							"name": "num",
							"type": "uint256"
						},
						{
							"internalType": "string",
							"name": "title",
							"type": "string"
						},
						{
							"internalType": "uint256",
							"name": "status",
							"type": "uint256"
						},
						{
							"internalType": "address",
							"name": "creator",
							"type": "address"
						},
						{
							"internalType": "address",
							"name": "recipient",
							"type": "address"
						},
						{
							"internalType": "uint256",
							"name": "joinNum",
							"type": "uint256"
						},
						{
							"internalType": "uint256",
							"name": "expectAmout",
							"type": "uint256"
						},
						{
							"internalType": "uint256",
							"name": "actualAmount",
							"type": "uint256"
						}
					],
					"stateMutability": "view",
					"type": "function"
				},
				{
					"inputs": [
						{
							"internalType": "uint256",
							"name": "num",
							"type": "uint256"
						}
					],
					"name": "setStatus",
					"outputs": [],
					"stateMutability": "nonpayable",
					"type": "function"
				},
				{
					"inputs": [
						{
							"internalType": "uint256",
							"name": "num",
							"type": "uint256"
						},
						{
							"internalType": "string",
							"name": "title",
							"type": "string"
						}
					],
					"name": "setTitle",
					"outputs": [],
					"stateMutability": "nonpayable",
					"type": "function"
				},
				{
					"inputs": [
						{
							"internalType": "string",
							"name": "s",
							"type": "string"
						}
					],
					"name": "stringToInt",
					"outputs": [
						{
							"internalType": "uint256",
							"name": "",
							"type": "uint256"
						}
					],
					"stateMutability": "pure",
					"type": "function"
				},
				{
					"inputs": [
						{
							"internalType": "address",
							"name": "a",
							"type": "address"
						}
					],
					"name": "test",
					"outputs": [
						{
							"internalType": "address",
							"name": "",
							"type": "address"
						},
						{
							"internalType": "address",
							"name": "",
							"type": "address"
						}
					],
					"stateMutability": "view",
					"type": "function"
				},
				{
					"inputs": [
						{
							"internalType": "address",
							"name": "a",
							"type": "address"
						}
					],
					"name": "test2",
					"outputs": [
						{
							"internalType": "bool",
							"name": "",
							"type": "bool"
						}
					],
					"stateMutability": "view",
					"type": "function"
				}
			],
			"devdoc": {
				"kind": "dev",
				"methods": {},
				"version": 1
			},
			"evm": {
				"assembly": "    /* \"crowdfunding.sol\":290:4564  contract CrowdfundingContract {\r... */\n  mstore(0x40, 0x80)\n  callvalue\n  dup1\n  iszero\n  tag_1\n  jumpi\n  0x00\n  dup1\n  revert\ntag_1:\n  pop\n  dataSize(sub_0)\n  dup1\n  dataOffset(sub_0)\n  0x00\n  codecopy\n  0x00\n  return\nstop\n\nsub_0: assembly {\n        /* \"crowdfunding.sol\":290:4564  contract CrowdfundingContract {\r... */\n      mstore(0x40, 0x80)\n      callvalue\n      dup1\n      iszero\n      tag_1\n      jumpi\n      0x00\n      dup1\n      revert\n    tag_1:\n      pop\n      jumpi(tag_2, lt(calldatasize, 0x04))\n      shr(0xe0, calldataload(0x00))\n      dup1\n      0x904cc175\n      gt\n      tag_13\n      jumpi\n      dup1\n      0x904cc175\n      eq\n      tag_8\n      jumpi\n      dup1\n      0xac8b1300\n      eq\n      tag_9\n      jumpi\n      dup1\n      0xb11bead4\n      eq\n      tag_10\n      jumpi\n      dup1\n      0xbb29998e\n      eq\n      tag_11\n      jumpi\n      dup1\n      0xf8a02d84\n      eq\n      tag_12\n      jumpi\n      jump(tag_2)\n    tag_13:\n      dup1\n      0x377e6ff7\n      eq\n      tag_3\n      jumpi\n      dup1\n      0x5102bc9d\n      eq\n      tag_4\n      jumpi\n      dup1\n      0x575b70d0\n      eq\n      tag_5\n      jumpi\n      dup1\n      0x69ba1a75\n      eq\n      tag_6\n      jumpi\n      dup1\n      0x80c9419e\n      eq\n      tag_7\n      jumpi\n    tag_2:\n      0x00\n      dup1\n      revert\n        /* \"crowdfunding.sol\":4215:4346  function getMyCrowdfunding(address addr) public view returns (Crowdfunding[] memory) {\r... */\n    tag_3:\n      tag_14\n      0x04\n      dup1\n      calldatasize\n      sub\n      dup2\n      add\n      swap1\n      tag_15\n      swap2\n      swap1\n      tag_16\n      jump\t// in\n    tag_15:\n      tag_17\n      jump\t// in\n    tag_14:\n      mload(0x40)\n      tag_18\n      swap2\n      swap1\n      tag_19\n      jump\t// in\n    tag_18:\n      mload(0x40)\n      dup1\n      swap2\n      sub\n      swap1\n      return\n        /* \"crowdfunding.sol\":2867:2966  function setTitle(uint num,string memory title) public {\r... */\n    tag_4:\n      tag_20\n      0x04\n      dup1\n      calldatasize\n      sub\n      dup2\n      add\n      swap1\n      tag_21\n      swap2\n      swap1\n      tag_22\n      jump\t// in\n    tag_21:\n      tag_23\n      jump\t// in\n    tag_20:\n      stop\n        /* \"crowdfunding.sol\":3067:3930  function join(uint num,uint amount,address addr) public {\r... */\n    tag_5:\n      tag_24\n      0x04\n      dup1\n      calldatasize\n      sub\n      dup2\n      add\n      swap1\n      tag_25\n      swap2\n      swap1\n      tag_26\n      jump\t// in\n    tag_25:\n      tag_27\n      jump\t// in\n    tag_24:\n      stop\n        /* \"crowdfunding.sol\":2192:2784  function setStatus(uint num) public {\r... */\n    tag_6:\n      tag_28\n      0x04\n      dup1\n      calldatasize\n      sub\n      dup2\n      add\n      swap1\n      tag_29\n      swap2\n      swap1\n      tag_30\n      jump\t// in\n    tag_29:\n      tag_31\n      jump\t// in\n    tag_28:\n      stop\n        /* \"crowdfunding.sol\":814:840  Crowdfunding[] public list */\n    tag_7:\n      tag_32\n      0x04\n      dup1\n      calldatasize\n      sub\n      dup2\n      add\n      swap1\n      tag_33\n      swap2\n      swap1\n      tag_30\n      jump\t// in\n    tag_33:\n      tag_34\n      jump\t// in\n    tag_32:\n      mload(0x40)\n      tag_35\n      swap9\n      swap8\n      swap7\n      swap6\n      swap5\n      swap4\n      swap3\n      swap2\n      swap1\n      tag_36\n      jump\t// in\n    tag_35:\n      mload(0x40)\n      dup1\n      swap2\n      sub\n      swap1\n      return\n        /* \"crowdfunding.sol\":3982:4165  function getCrowdfundingByStatus(uint _status) public view returns (Crowdfunding[] memory) {\r... */\n    tag_8:\n      tag_37\n      0x04\n      dup1\n      calldatasize\n      sub\n      dup2\n      add\n      swap1\n      tag_38\n      swap2\n      swap1\n      tag_30\n      jump\t// in\n    tag_38:\n      tag_39\n      jump\t// in\n    tag_37:\n      mload(0x40)\n      tag_40\n      swap2\n      swap1\n      tag_19\n      jump\t// in\n    tag_40:\n      mload(0x40)\n      dup1\n      swap2\n      sub\n      swap1\n      return\n        /* \"crowdfunding.sol\":1508:2113  function createCrowdfunding(string memory _title,address _recipient, uint _expectAmout) public {\r... */\n    tag_9:\n      tag_41\n      0x04\n      dup1\n      calldatasize\n      sub\n      dup2\n      add\n      swap1\n      tag_42\n      swap2\n      swap1\n      tag_43\n      jump\t// in\n    tag_42:\n      tag_44\n      jump\t// in\n    tag_41:\n      stop\n        /* \"crowdfunding.sol\":4466:4561  function test2 (address a) public view returns (bool) {\r... */\n    tag_10:\n      tag_45\n      0x04\n      dup1\n      calldatasize\n      sub\n      dup2\n      add\n      swap1\n      tag_46\n      swap2\n      swap1\n      tag_16\n      jump\t// in\n    tag_46:\n      tag_47\n      jump\t// in\n    tag_45:\n      mload(0x40)\n      tag_48\n      swap2\n      swap1\n      tag_49\n      jump\t// in\n    tag_48:\n      mload(0x40)\n      dup1\n      swap2\n      sub\n      swap1\n      return\n        /* \"crowdfunding.sol\":4354:4458  function test (address a) public view returns (address,address) {\r... */\n    tag_11:\n      tag_50\n      0x04\n      dup1\n      calldatasize\n      sub\n      dup2\n      add\n      swap1\n      tag_51\n      swap2\n      swap1\n      tag_16\n      jump\t// in\n    tag_51:\n      tag_52\n      jump\t// in\n    tag_50:\n      mload(0x40)\n      tag_53\n      swap3\n      swap2\n      swap1\n      tag_54\n      jump\t// in\n    tag_53:\n      mload(0x40)\n      dup1\n      swap2\n      sub\n      swap1\n      return\n        /* \"crowdfunding.sol\":1130:1500  function stringToInt(string memory s) public pure returns (uint){\r... */\n    tag_12:\n      tag_55\n      0x04\n      dup1\n      calldatasize\n      sub\n      dup2\n      add\n      swap1\n      tag_56\n      swap2\n      swap1\n      tag_57\n      jump\t// in\n    tag_56:\n      tag_58\n      jump\t// in\n    tag_55:\n      mload(0x40)\n      tag_59\n      swap2\n      swap1\n      tag_60\n      jump\t// in\n    tag_59:\n      mload(0x40)\n      dup1\n      swap2\n      sub\n      swap1\n      return\n        /* \"crowdfunding.sol\":4215:4346  function getMyCrowdfunding(address addr) public view returns (Crowdfunding[] memory) {\r... */\n    tag_17:\n        /* \"crowdfunding.sol\":4277:4298  Crowdfunding[] memory */\n      0x60\n        /* \"crowdfunding.sol\":4318:4332  myCrowdfunding */\n      0x03\n        /* \"crowdfunding.sol\":4318:4338  myCrowdfunding[addr] */\n      0x00\n        /* \"crowdfunding.sol\":4333:4337  addr */\n      dup4\n        /* \"crowdfunding.sol\":4318:4338  myCrowdfunding[addr] */\n      0xffffffffffffffffffffffffffffffffffffffff\n      and\n      0xffffffffffffffffffffffffffffffffffffffff\n      and\n      dup2\n      mstore\n      0x20\n      add\n      swap1\n      dup2\n      mstore\n      0x20\n      add\n      0x00\n      keccak256\n        /* \"crowdfunding.sol\":4311:4338  return myCrowdfunding[addr] */\n      dup1\n      sload\n      dup1\n      0x20\n      mul\n      0x20\n      add\n      mload(0x40)\n      swap1\n      dup2\n      add\n      0x40\n      mstore\n      dup1\n      swap3\n      swap2\n      swap1\n      dup2\n      dup2\n      mstore\n      0x20\n      add\n      0x00\n      swap1\n    tag_62:\n      dup3\n      dup3\n      lt\n      iszero\n      tag_63\n      jumpi\n      dup4\n      dup3\n      swap1\n      0x00\n      mstore\n      keccak256(0x00, 0x20)\n      swap1\n      0x08\n      mul\n      add\n      mload(0x40)\n      dup1\n      0x0100\n      add\n      0x40\n      mstore\n      swap1\n      dup2\n      0x00\n      dup3\n      add\n      sload\n      dup2\n      mstore\n      0x20\n      add\n      0x01\n      dup3\n      add\n      dup1\n      sload\n      tag_65\n      swap1\n      tag_66\n      jump\t// in\n    tag_65:\n      dup1\n      0x1f\n      add\n      0x20\n      dup1\n      swap2\n      div\n      mul\n      0x20\n      add\n      mload(0x40)\n      swap1\n      dup2\n      add\n      0x40\n      mstore\n      dup1\n      swap3\n      swap2\n      swap1\n      dup2\n      dup2\n      mstore\n      0x20\n      add\n      dup3\n      dup1\n      sload\n      tag_67\n      swap1\n      tag_66\n      jump\t// in\n    tag_67:\n      dup1\n      iszero\n      tag_68\n      jumpi\n      dup1\n      0x1f\n      lt\n      tag_69\n      jumpi\n      0x0100\n      dup1\n      dup4\n      sload\n      div\n      mul\n      dup4\n      mstore\n      swap2\n      0x20\n      add\n      swap2\n      jump(tag_68)\n    tag_69:\n      dup3\n      add\n      swap2\n      swap1\n      0x00\n      mstore\n      keccak256(0x00, 0x20)\n      swap1\n    tag_70:\n      dup2\n      sload\n      dup2\n      mstore\n      swap1\n      0x01\n      add\n      swap1\n      0x20\n      add\n      dup1\n      dup4\n      gt\n      tag_70\n      jumpi\n      dup3\n      swap1\n      sub\n      0x1f\n      and\n      dup3\n      add\n      swap2\n    tag_68:\n      pop\n      pop\n      pop\n      pop\n      pop\n      dup2\n      mstore\n      0x20\n      add\n      0x02\n      dup3\n      add\n      sload\n      dup2\n      mstore\n      0x20\n      add\n      0x03\n      dup3\n      add\n      0x00\n      swap1\n      sload\n      swap1\n      0x0100\n      exp\n      swap1\n      div\n      0xffffffffffffffffffffffffffffffffffffffff\n      and\n      0xffffffffffffffffffffffffffffffffffffffff\n      and\n      0xffffffffffffffffffffffffffffffffffffffff\n      and\n      dup2\n      mstore\n      0x20\n      add\n      0x04\n      dup3\n      add\n      0x00\n      swap1\n      sload\n      swap1\n      0x0100\n      exp\n      swap1\n      div\n      0xffffffffffffffffffffffffffffffffffffffff\n      and\n      0xffffffffffffffffffffffffffffffffffffffff\n      and\n      0xffffffffffffffffffffffffffffffffffffffff\n      and\n      dup2\n      mstore\n      0x20\n      add\n      0x05\n      dup3\n      add\n      sload\n      dup2\n      mstore\n      0x20\n      add\n      0x06\n      dup3\n      add\n      sload\n      dup2\n      mstore\n      0x20\n      add\n      0x07\n      dup3\n      add\n      sload\n      dup2\n      mstore\n      pop\n      pop\n      dup2\n      mstore\n      0x20\n      add\n      swap1\n      0x01\n      add\n      swap1\n      jump(tag_62)\n    tag_63:\n      pop\n      pop\n      pop\n      pop\n      swap1\n      pop\n        /* \"crowdfunding.sol\":4215:4346  function getMyCrowdfunding(address addr) public view returns (Crowdfunding[] memory) {\r... */\n      swap2\n      swap1\n      pop\n      jump\t// out\n        /* \"crowdfunding.sol\":2867:2966  function setTitle(uint num,string memory title) public {\r... */\n    tag_23:\n        /* \"crowdfunding.sol\":2953:2958  title */\n      dup1\n        /* \"crowdfunding.sol\":2933:2937  list */\n      0x01\n        /* \"crowdfunding.sol\":2942:2943  1 */\n      dup1\n        /* \"crowdfunding.sol\":2938:2941  num */\n      dup5\n        /* \"crowdfunding.sol\":2938:2943  num-1 */\n      tag_72\n      swap2\n      swap1\n      tag_73\n      jump\t// in\n    tag_72:\n        /* \"crowdfunding.sol\":2933:2944  list[num-1] */\n      dup2\n      sload\n      dup2\n      lt\n      tag_74\n      jumpi\n      tag_75\n      tag_76\n      jump\t// in\n    tag_75:\n    tag_74:\n      swap1\n      0x00\n      mstore\n      keccak256(0x00, 0x20)\n      swap1\n      0x08\n      mul\n      add\n        /* \"crowdfunding.sol\":2933:2950  list[num-1].title */\n      0x01\n      add\n        /* \"crowdfunding.sol\":2933:2958  list[num-1].title = title */\n      swap1\n      dup1\n      mload\n      swap1\n      0x20\n      add\n      swap1\n      tag_78\n      swap3\n      swap2\n      swap1\n      tag_79\n      jump\t// in\n    tag_78:\n      pop\n        /* \"crowdfunding.sol\":2867:2966  function setTitle(uint num,string memory title) public {\r... */\n      pop\n      pop\n      jump\t// out\n        /* \"crowdfunding.sol\":3067:3930  function join(uint num,uint amount,address addr) public {\r... */\n    tag_27:\n        /* \"crowdfunding.sol\":3134:3150  bool isFirstJoin */\n      0x00\n        /* \"crowdfunding.sol\":3202:3208  uint i */\n      dup1\n        /* \"crowdfunding.sol\":3198:3419  for(uint i = 0; i < calcJoinNum[num].length;i++) {\r... */\n    tag_81:\n        /* \"crowdfunding.sol\":3218:3229  calcJoinNum */\n      0x04\n        /* \"crowdfunding.sol\":3218:3234  calcJoinNum[num] */\n      0x00\n        /* \"crowdfunding.sol\":3230:3233  num */\n      dup7\n        /* \"crowdfunding.sol\":3218:3234  calcJoinNum[num] */\n      dup2\n      mstore\n      0x20\n      add\n      swap1\n      dup2\n      mstore\n      0x20\n      add\n      0x00\n      keccak256\n        /* \"crowdfunding.sol\":3218:3241  calcJoinNum[num].length */\n      dup1\n      sload\n      swap1\n      pop\n        /* \"crowdfunding.sol\":3214:3215  i */\n      dup2\n        /* \"crowdfunding.sol\":3214:3241  i < calcJoinNum[num].length */\n      lt\n        /* \"crowdfunding.sol\":3198:3419  for(uint i = 0; i < calcJoinNum[num].length;i++) {\r... */\n      iszero\n      tag_82\n      jumpi\n        /* \"crowdfunding.sol\":3325:3329  addr */\n      dup3\n        /* \"crowdfunding.sol\":3300:3329  calcJoinNum[num-1][i] != addr */\n      0xffffffffffffffffffffffffffffffffffffffff\n      and\n        /* \"crowdfunding.sol\":3300:3311  calcJoinNum */\n      0x04\n        /* \"crowdfunding.sol\":3300:3318  calcJoinNum[num-1] */\n      0x00\n        /* \"crowdfunding.sol\":3316:3317  1 */\n      0x01\n        /* \"crowdfunding.sol\":3312:3315  num */\n      dup9\n        /* \"crowdfunding.sol\":3312:3317  num-1 */\n      tag_84\n      swap2\n      swap1\n      tag_73\n      jump\t// in\n    tag_84:\n        /* \"crowdfunding.sol\":3300:3318  calcJoinNum[num-1] */\n      dup2\n      mstore\n      0x20\n      add\n      swap1\n      dup2\n      mstore\n      0x20\n      add\n      0x00\n      keccak256\n        /* \"crowdfunding.sol\":3319:3320  i */\n      dup3\n        /* \"crowdfunding.sol\":3300:3321  calcJoinNum[num-1][i] */\n      dup2\n      sload\n      dup2\n      lt\n      tag_85\n      jumpi\n      tag_86\n      tag_76\n      jump\t// in\n    tag_86:\n    tag_85:\n      swap1\n      0x00\n      mstore\n      keccak256(0x00, 0x20)\n      add\n      0x00\n      swap1\n      sload\n      swap1\n      0x0100\n      exp\n      swap1\n      div\n      0xffffffffffffffffffffffffffffffffffffffff\n      and\n        /* \"crowdfunding.sol\":3300:3329  calcJoinNum[num-1][i] != addr */\n      0xffffffffffffffffffffffffffffffffffffffff\n      and\n      eq\n        /* \"crowdfunding.sol\":3297:3408  if(calcJoinNum[num-1][i] != addr) {\r... */\n      tag_88\n      jumpi\n        /* \"crowdfunding.sol\":3364:3368  true */\n      0x01\n        /* \"crowdfunding.sol\":3350:3368  isFirstJoin = true */\n      swap2\n      pop\n        /* \"crowdfunding.sol\":3387:3392  break */\n      jump(tag_82)\n        /* \"crowdfunding.sol\":3297:3408  if(calcJoinNum[num-1][i] != addr) {\r... */\n    tag_88:\n        /* \"crowdfunding.sol\":3242:3245  i++ */\n      dup1\n      dup1\n      tag_89\n      swap1\n      tag_90\n      jump\t// in\n    tag_89:\n      swap2\n      pop\n      pop\n        /* \"crowdfunding.sol\":3198:3419  for(uint i = 0; i < calcJoinNum[num].length;i++) {\r... */\n      jump(tag_81)\n    tag_82:\n      pop\n        /* \"crowdfunding.sol\":3434:3445  isFirstJoin */\n      dup1\n        /* \"crowdfunding.sol\":3431:3555  if(isFirstJoin) {\r... */\n      iszero\n      tag_91\n      jumpi\n        /* \"crowdfunding.sol\":3485:3486  1 */\n      0x01\n        /* \"crowdfunding.sol\":3462:3466  list */\n      dup1\n        /* \"crowdfunding.sol\":3471:3472  1 */\n      0x01\n        /* \"crowdfunding.sol\":3467:3470  num */\n      dup7\n        /* \"crowdfunding.sol\":3467:3472  num-1 */\n      tag_92\n      swap2\n      swap1\n      tag_73\n      jump\t// in\n    tag_92:\n        /* \"crowdfunding.sol\":3462:3473  list[num-1] */\n      dup2\n      sload\n      dup2\n      lt\n      tag_93\n      jumpi\n      tag_94\n      tag_76\n      jump\t// in\n    tag_94:\n    tag_93:\n      swap1\n      0x00\n      mstore\n      keccak256(0x00, 0x20)\n      swap1\n      0x08\n      mul\n      add\n        /* \"crowdfunding.sol\":3462:3481  list[num-1].joinNum */\n      0x05\n      add\n      0x00\n        /* \"crowdfunding.sol\":3462:3486  list[num-1].joinNum += 1 */\n      dup3\n      dup3\n      sload\n      tag_96\n      swap2\n      swap1\n      tag_97\n      jump\t// in\n    tag_96:\n      swap3\n      pop\n      pop\n      dup2\n      swap1\n      sstore\n      pop\n        /* \"crowdfunding.sol\":3431:3555  if(isFirstJoin) {\r... */\n      jump(tag_98)\n    tag_91:\n        /* \"crowdfunding.sol\":3541:3543  10 */\n      0x0a\n        /* \"crowdfunding.sol\":3518:3522  list */\n      0x01\n        /* \"crowdfunding.sol\":3527:3528  1 */\n      dup1\n        /* \"crowdfunding.sol\":3523:3526  num */\n      dup7\n        /* \"crowdfunding.sol\":3523:3528  num-1 */\n      tag_99\n      swap2\n      swap1\n      tag_73\n      jump\t// in\n    tag_99:\n        /* \"crowdfunding.sol\":3518:3529  list[num-1] */\n      dup2\n      sload\n      dup2\n      lt\n      tag_100\n      jumpi\n      tag_101\n      tag_76\n      jump\t// in\n    tag_101:\n    tag_100:\n      swap1\n      0x00\n      mstore\n      keccak256(0x00, 0x20)\n      swap1\n      0x08\n      mul\n      add\n        /* \"crowdfunding.sol\":3518:3537  list[num-1].joinNum */\n      0x05\n      add\n      0x00\n        /* \"crowdfunding.sol\":3518:3543  list[num-1].joinNum += 10 */\n      dup3\n      dup3\n      sload\n      tag_103\n      swap2\n      swap1\n      tag_97\n      jump\t// in\n    tag_103:\n      swap3\n      pop\n      pop\n      dup2\n      swap1\n      sstore\n      pop\n        /* \"crowdfunding.sol\":3431:3555  if(isFirstJoin) {\r... */\n    tag_98:\n        /* \"crowdfunding.sol\":3567:3578  calcJoinNum */\n      0x04\n        /* \"crowdfunding.sol\":3567:3585  calcJoinNum[num-1] */\n      0x00\n        /* \"crowdfunding.sol\":3583:3584  1 */\n      0x01\n        /* \"crowdfunding.sol\":3579:3582  num */\n      dup7\n        /* \"crowdfunding.sol\":3579:3584  num-1 */\n      tag_104\n      swap2\n      swap1\n      tag_73\n      jump\t// in\n    tag_104:\n        /* \"crowdfunding.sol\":3567:3585  calcJoinNum[num-1] */\n      dup2\n      mstore\n      0x20\n      add\n      swap1\n      dup2\n      mstore\n      0x20\n      add\n      0x00\n      keccak256\n        /* \"crowdfunding.sol\":3591:3595  addr */\n      dup3\n        /* \"crowdfunding.sol\":3567:3596  calcJoinNum[num-1].push(addr) */\n      swap1\n      dup1\n      0x01\n      dup2\n      sload\n      add\n      dup1\n      dup3\n      sstore\n      dup1\n      swap2\n      pop\n      pop\n      0x01\n      swap1\n      sub\n      swap1\n      0x00\n      mstore\n      keccak256(0x00, 0x20)\n      add\n      0x00\n      swap1\n      swap2\n      swap1\n      swap2\n      swap1\n      swap2\n      0x0100\n      exp\n      dup2\n      sload\n      dup2\n      0xffffffffffffffffffffffffffffffffffffffff\n      mul\n      not\n      and\n      swap1\n      dup4\n      0xffffffffffffffffffffffffffffffffffffffff\n      and\n      mul\n      or\n      swap1\n      sstore\n      pop\n        /* \"crowdfunding.sol\":3696:3702  amount */\n      dup3\n        /* \"crowdfunding.sol\":3669:3673  list */\n      0x01\n        /* \"crowdfunding.sol\":3678:3679  1 */\n      dup1\n        /* \"crowdfunding.sol\":3674:3677  num */\n      dup7\n        /* \"crowdfunding.sol\":3674:3679  num-1 */\n      tag_106\n      swap2\n      swap1\n      tag_73\n      jump\t// in\n    tag_106:\n        /* \"crowdfunding.sol\":3669:3680  list[num-1] */\n      dup2\n      sload\n      dup2\n      lt\n      tag_107\n      jumpi\n      tag_108\n      tag_76\n      jump\t// in\n    tag_108:\n    tag_107:\n      swap1\n      0x00\n      mstore\n      keccak256(0x00, 0x20)\n      swap1\n      0x08\n      mul\n      add\n        /* \"crowdfunding.sol\":3669:3693  list[num-1].actualAmount */\n      0x07\n      add\n      sload\n        /* \"crowdfunding.sol\":3669:3702  list[num-1].actualAmount + amount */\n      tag_110\n      swap2\n      swap1\n      tag_97\n      jump\t// in\n    tag_110:\n        /* \"crowdfunding.sol\":3642:3646  list */\n      0x01\n        /* \"crowdfunding.sol\":3651:3652  1 */\n      dup1\n        /* \"crowdfunding.sol\":3647:3650  num */\n      dup7\n        /* \"crowdfunding.sol\":3647:3652  num-1 */\n      tag_111\n      swap2\n      swap1\n      tag_73\n      jump\t// in\n    tag_111:\n        /* \"crowdfunding.sol\":3642:3653  list[num-1] */\n      dup2\n      sload\n      dup2\n      lt\n      tag_112\n      jumpi\n      tag_113\n      tag_76\n      jump\t// in\n    tag_113:\n    tag_112:\n      swap1\n      0x00\n      mstore\n      keccak256(0x00, 0x20)\n      swap1\n      0x08\n      mul\n      add\n        /* \"crowdfunding.sol\":3642:3666  list[num-1].actualAmount */\n      0x07\n      add\n        /* \"crowdfunding.sol\":3642:3702  list[num-1].actualAmount = list[num-1].actualAmount + amount */\n      dup2\n      swap1\n      sstore\n      pop\n        /* \"crowdfunding.sol\":3744:3748  list */\n      0x01\n        /* \"crowdfunding.sol\":3753:3754  1 */\n      dup1\n        /* \"crowdfunding.sol\":3749:3752  num */\n      dup6\n        /* \"crowdfunding.sol\":3749:3754  num-1 */\n      tag_115\n      swap2\n      swap1\n      tag_73\n      jump\t// in\n    tag_115:\n        /* \"crowdfunding.sol\":3744:3755  list[num-1] */\n      dup2\n      sload\n      dup2\n      lt\n      tag_116\n      jumpi\n      tag_117\n      tag_76\n      jump\t// in\n    tag_117:\n    tag_116:\n      swap1\n      0x00\n      mstore\n      keccak256(0x00, 0x20)\n      swap1\n      0x08\n      mul\n      add\n        /* \"crowdfunding.sol\":3744:3767  list[num-1].expectAmout */\n      0x06\n      add\n      sload\n        /* \"crowdfunding.sol\":3716:3720  list */\n      0x01\n        /* \"crowdfunding.sol\":3725:3726  1 */\n      dup1\n        /* \"crowdfunding.sol\":3721:3724  num */\n      dup7\n        /* \"crowdfunding.sol\":3721:3726  num-1 */\n      tag_119\n      swap2\n      swap1\n      tag_73\n      jump\t// in\n    tag_119:\n        /* \"crowdfunding.sol\":3716:3727  list[num-1] */\n      dup2\n      sload\n      dup2\n      lt\n      tag_120\n      jumpi\n      tag_121\n      tag_76\n      jump\t// in\n    tag_121:\n    tag_120:\n      swap1\n      0x00\n      mstore\n      keccak256(0x00, 0x20)\n      swap1\n      0x08\n      mul\n      add\n        /* \"crowdfunding.sol\":3716:3740  list[num-1].actualAmount */\n      0x07\n      add\n      sload\n        /* \"crowdfunding.sol\":3716:3767  list[num-1].actualAmount >= list[num-1].expectAmout */\n      lt\n        /* \"crowdfunding.sol\":3713:3923  if(list[num-1].actualAmount >= list[num-1].expectAmout){\r... */\n      tag_123\n      jumpi\n        /* \"crowdfunding.sol\":3871:3872  2 */\n      0x02\n        /* \"crowdfunding.sol\":3850:3854  list */\n      0x01\n        /* \"crowdfunding.sol\":3859:3860  1 */\n      dup1\n        /* \"crowdfunding.sol\":3855:3858  num */\n      dup7\n        /* \"crowdfunding.sol\":3855:3860  num-1 */\n      tag_124\n      swap2\n      swap1\n      tag_73\n      jump\t// in\n    tag_124:\n        /* \"crowdfunding.sol\":3850:3861  list[num-1] */\n      dup2\n      sload\n      dup2\n      lt\n      tag_125\n      jumpi\n      tag_126\n      tag_76\n      jump\t// in\n    tag_126:\n    tag_125:\n      swap1\n      0x00\n      mstore\n      keccak256(0x00, 0x20)\n      swap1\n      0x08\n      mul\n      add\n        /* \"crowdfunding.sol\":3850:3868  list[num-1].status */\n      0x02\n      add\n        /* \"crowdfunding.sol\":3850:3872  list[num-1].status = 2 */\n      dup2\n      swap1\n      sstore\n      pop\n        /* \"crowdfunding.sol\":3713:3923  if(list[num-1].actualAmount >= list[num-1].expectAmout){\r... */\n    tag_123:\n        /* \"crowdfunding.sol\":3123:3930  {\r... */\n      pop\n        /* \"crowdfunding.sol\":3067:3930  function join(uint num,uint amount,address addr) public {\r... */\n      pop\n      pop\n      pop\n      jump\t// out\n        /* \"crowdfunding.sol\":2192:2784  function setStatus(uint num) public {\r... */\n    tag_31:\n        /* \"crowdfunding.sol\":2260:2261  3 */\n      0x03\n        /* \"crowdfunding.sol\":2239:2243  list */\n      0x01\n        /* \"crowdfunding.sol\":2248:2249  1 */\n      dup1\n        /* \"crowdfunding.sol\":2244:2247  num */\n      dup4\n        /* \"crowdfunding.sol\":2244:2249  num-1 */\n      tag_129\n      swap2\n      swap1\n      tag_73\n      jump\t// in\n    tag_129:\n        /* \"crowdfunding.sol\":2239:2250  list[num-1] */\n      dup2\n      sload\n      dup2\n      lt\n      tag_130\n      jumpi\n      tag_131\n      tag_76\n      jump\t// in\n    tag_131:\n    tag_130:\n      swap1\n      0x00\n      mstore\n      keccak256(0x00, 0x20)\n      swap1\n      0x08\n      mul\n      add\n        /* \"crowdfunding.sol\":2239:2257  list[num-1].status */\n      0x02\n      add\n        /* \"crowdfunding.sol\":2239:2261  list[num-1].status = 3 */\n      dup2\n      swap1\n      sstore\n      pop\n        /* \"crowdfunding.sol\":2370:2371  1 */\n      0x01\n        /* \"crowdfunding.sol\":2338:2356  filterDataByStatus */\n      0x02\n        /* \"crowdfunding.sol\":2338:2359  filterDataByStatus[1] */\n      0x00\n        /* \"crowdfunding.sol\":2357:2358  1 */\n      0x01\n        /* \"crowdfunding.sol\":2338:2359  filterDataByStatus[1] */\n      dup2\n      mstore\n      0x20\n      add\n      swap1\n      dup2\n      mstore\n      0x20\n      add\n      0x00\n      keccak256\n        /* \"crowdfunding.sol\":2338:2366  filterDataByStatus[1].length */\n      dup1\n      sload\n      swap1\n      pop\n        /* \"crowdfunding.sol\":2338:2371  filterDataByStatus[1].length == 1 */\n      eq\n        /* \"crowdfunding.sol\":2335:2727  if(filterDataByStatus[1].length == 1){\r... */\n      iszero\n      tag_133\n      jumpi\n        /* \"crowdfunding.sol\":2387:2405  filterDataByStatus */\n      0x02\n        /* \"crowdfunding.sol\":2387:2408  filterDataByStatus[1] */\n      0x00\n        /* \"crowdfunding.sol\":2406:2407  1 */\n      0x01\n        /* \"crowdfunding.sol\":2387:2408  filterDataByStatus[1] */\n      dup2\n      mstore\n      0x20\n      add\n      swap1\n      dup2\n      mstore\n      0x20\n      add\n      0x00\n      keccak256\n        /* \"crowdfunding.sol\":2387:2414  filterDataByStatus[1].pop() */\n      dup1\n      sload\n      dup1\n      tag_134\n      jumpi\n      tag_135\n      tag_136\n      jump\t// in\n    tag_135:\n    tag_134:\n      0x01\n      swap1\n      sub\n      dup2\n      dup2\n      swap1\n      0x00\n      mstore\n      keccak256(0x00, 0x20)\n      swap1\n      0x08\n      mul\n      add\n      0x00\n      dup1\n      dup3\n      add\n      0x00\n      swap1\n      sstore\n      0x01\n      dup3\n      add\n      0x00\n      tag_138\n      swap2\n      swap1\n      tag_139\n      jump\t// in\n    tag_138:\n      0x02\n      dup3\n      add\n      0x00\n      swap1\n      sstore\n      0x03\n      dup3\n      add\n      exp(0x0100, 0x00)\n      dup2\n      sload\n      swap1\n      0xffffffffffffffffffffffffffffffffffffffff\n      mul\n      not\n      and\n      swap1\n      sstore\n      0x04\n      dup3\n      add\n      exp(0x0100, 0x00)\n      dup2\n      sload\n      swap1\n      0xffffffffffffffffffffffffffffffffffffffff\n      mul\n      not\n      and\n      swap1\n      sstore\n      0x05\n      dup3\n      add\n      0x00\n      swap1\n      sstore\n      0x06\n      dup3\n      add\n      0x00\n      swap1\n      sstore\n      0x07\n      dup3\n      add\n      0x00\n      swap1\n      sstore\n      pop\n      pop\n      swap1\n      sstore\n        /* \"crowdfunding.sol\":2335:2727  if(filterDataByStatus[1].length == 1){\r... */\n      jump(tag_140)\n    tag_133:\n        /* \"crowdfunding.sol\":2449:2455  uint i */\n      0x00\n        /* \"crowdfunding.sol\":2445:2674  for(uint i = 0; i < filterDataByStatus[1].length - 1; i++) {\r... */\n    tag_141:\n        /* \"crowdfunding.sol\":2496:2497  1 */\n      0x01\n        /* \"crowdfunding.sol\":2465:2483  filterDataByStatus */\n      0x02\n        /* \"crowdfunding.sol\":2465:2486  filterDataByStatus[1] */\n      0x00\n        /* \"crowdfunding.sol\":2484:2485  1 */\n      0x01\n        /* \"crowdfunding.sol\":2465:2486  filterDataByStatus[1] */\n      dup2\n      mstore\n      0x20\n      add\n      swap1\n      dup2\n      mstore\n      0x20\n      add\n      0x00\n      keccak256\n        /* \"crowdfunding.sol\":2465:2493  filterDataByStatus[1].length */\n      dup1\n      sload\n      swap1\n      pop\n        /* \"crowdfunding.sol\":2465:2497  filterDataByStatus[1].length - 1 */\n      tag_144\n      swap2\n      swap1\n      tag_73\n      jump\t// in\n    tag_144:\n        /* \"crowdfunding.sol\":2461:2462  i */\n      dup2\n        /* \"crowdfunding.sol\":2461:2497  i < filterDataByStatus[1].length - 1 */\n      lt\n        /* \"crowdfunding.sol\":2445:2674  for(uint i = 0; i < filterDataByStatus[1].length - 1; i++) {\r... */\n      iszero\n      tag_142\n      jumpi\n        /* \"crowdfunding.sol\":2558:2561  num */\n      dup2\n        /* \"crowdfunding.sol\":2526:2544  filterDataByStatus */\n      0x02\n        /* \"crowdfunding.sol\":2526:2547  filterDataByStatus[1] */\n      0x00\n        /* \"crowdfunding.sol\":2545:2546  1 */\n      0x01\n        /* \"crowdfunding.sol\":2526:2547  filterDataByStatus[1] */\n      dup2\n      mstore\n      0x20\n      add\n      swap1\n      dup2\n      mstore\n      0x20\n      add\n      0x00\n      keccak256\n        /* \"crowdfunding.sol\":2548:2549  i */\n      dup3\n        /* \"crowdfunding.sol\":2526:2550  filterDataByStatus[1][i] */\n      dup2\n      sload\n      dup2\n      lt\n      tag_145\n      jumpi\n      tag_146\n      tag_76\n      jump\t// in\n    tag_146:\n    tag_145:\n      swap1\n      0x00\n      mstore\n      keccak256(0x00, 0x20)\n      swap1\n      0x08\n      mul\n      add\n        /* \"crowdfunding.sol\":2526:2554  filterDataByStatus[1][i].num */\n      0x00\n      add\n      sload\n        /* \"crowdfunding.sol\":2526:2561  filterDataByStatus[1][i].num == num */\n      eq\n        /* \"crowdfunding.sol\":2523:2659  if(filterDataByStatus[1][i].num == num) {\r... */\n      iszero\n      tag_148\n      jumpi\n        /* \"crowdfunding.sol\":2613:2631  filterDataByStatus */\n      0x02\n        /* \"crowdfunding.sol\":2613:2634  filterDataByStatus[1] */\n      0x00\n        /* \"crowdfunding.sol\":2632:2633  1 */\n      0x01\n        /* \"crowdfunding.sol\":2613:2634  filterDataByStatus[1] */\n      dup2\n      mstore\n      0x20\n      add\n      swap1\n      dup2\n      mstore\n      0x20\n      add\n      0x00\n      keccak256\n        /* \"crowdfunding.sol\":2637:2638  1 */\n      0x01\n        /* \"crowdfunding.sol\":2635:2636  i */\n      dup3\n        /* \"crowdfunding.sol\":2635:2638  i+1 */\n      tag_149\n      swap2\n      swap1\n      tag_97\n      jump\t// in\n    tag_149:\n        /* \"crowdfunding.sol\":2613:2639  filterDataByStatus[1][i+1] */\n      dup2\n      sload\n      dup2\n      lt\n      tag_150\n      jumpi\n      tag_151\n      tag_76\n      jump\t// in\n    tag_151:\n    tag_150:\n      swap1\n      0x00\n      mstore\n      keccak256(0x00, 0x20)\n      swap1\n      0x08\n      mul\n      add\n        /* \"crowdfunding.sol\":2586:2604  filterDataByStatus */\n      0x02\n        /* \"crowdfunding.sol\":2586:2607  filterDataByStatus[1] */\n      0x00\n        /* \"crowdfunding.sol\":2605:2606  1 */\n      0x01\n        /* \"crowdfunding.sol\":2586:2607  filterDataByStatus[1] */\n      dup2\n      mstore\n      0x20\n      add\n      swap1\n      dup2\n      mstore\n      0x20\n      add\n      0x00\n      keccak256\n        /* \"crowdfunding.sol\":2608:2609  i */\n      dup3\n        /* \"crowdfunding.sol\":2586:2610  filterDataByStatus[1][i] */\n      dup2\n      sload\n      dup2\n      lt\n      tag_153\n      jumpi\n      tag_154\n      tag_76\n      jump\t// in\n    tag_154:\n    tag_153:\n      swap1\n      0x00\n      mstore\n      keccak256(0x00, 0x20)\n      swap1\n      0x08\n      mul\n      add\n        /* \"crowdfunding.sol\":2586:2639  filterDataByStatus[1][i] = filterDataByStatus[1][i+1] */\n      0x00\n      dup3\n      add\n      sload\n      dup2\n      0x00\n      add\n      sstore\n      0x01\n      dup3\n      add\n      dup2\n      0x01\n      add\n      swap1\n      dup1\n      sload\n      tag_156\n      swap1\n      tag_66\n      jump\t// in\n    tag_156:\n      tag_157\n      swap3\n      swap2\n      swap1\n      tag_158\n      jump\t// in\n    tag_157:\n      pop\n      0x02\n      dup3\n      add\n      sload\n      dup2\n      0x02\n      add\n      sstore\n      0x03\n      dup3\n      add\n      0x00\n      swap1\n      sload\n      swap1\n      0x0100\n      exp\n      swap1\n      div\n      0xffffffffffffffffffffffffffffffffffffffff\n      and\n      dup2\n      0x03\n      add\n      exp(0x0100, 0x00)\n      dup2\n      sload\n      dup2\n      0xffffffffffffffffffffffffffffffffffffffff\n      mul\n      not\n      and\n      swap1\n      dup4\n      0xffffffffffffffffffffffffffffffffffffffff\n      and\n      mul\n      or\n      swap1\n      sstore\n      pop\n      0x04\n      dup3\n      add\n      0x00\n      swap1\n      sload\n      swap1\n      0x0100\n      exp\n      swap1\n      div\n      0xffffffffffffffffffffffffffffffffffffffff\n      and\n      dup2\n      0x04\n      add\n      exp(0x0100, 0x00)\n      dup2\n      sload\n      dup2\n      0xffffffffffffffffffffffffffffffffffffffff\n      mul\n      not\n      and\n      swap1\n      dup4\n      0xffffffffffffffffffffffffffffffffffffffff\n      and\n      mul\n      or\n      swap1\n      sstore\n      pop\n      0x05\n      dup3\n      add\n      sload\n      dup2\n      0x05\n      add\n      sstore\n      0x06\n      dup3\n      add\n      sload\n      dup2\n      0x06\n      add\n      sstore\n      0x07\n      dup3\n      add\n      sload\n      dup2\n      0x07\n      add\n      sstore\n      swap1\n      pop\n      pop\n        /* \"crowdfunding.sol\":2523:2659  if(filterDataByStatus[1][i].num == num) {\r... */\n    tag_148:\n        /* \"crowdfunding.sol\":2499:2502  i++ */\n      dup1\n      dup1\n      tag_159\n      swap1\n      tag_90\n      jump\t// in\n    tag_159:\n      swap2\n      pop\n      pop\n        /* \"crowdfunding.sol\":2445:2674  for(uint i = 0; i < filterDataByStatus[1].length - 1; i++) {\r... */\n      jump(tag_141)\n    tag_142:\n      pop\n        /* \"crowdfunding.sol\":2688:2706  filterDataByStatus */\n      0x02\n        /* \"crowdfunding.sol\":2688:2709  filterDataByStatus[1] */\n      0x00\n        /* \"crowdfunding.sol\":2707:2708  1 */\n      0x01\n        /* \"crowdfunding.sol\":2688:2709  filterDataByStatus[1] */\n      dup2\n      mstore\n      0x20\n      add\n      swap1\n      dup2\n      mstore\n      0x20\n      add\n      0x00\n      keccak256\n        /* \"crowdfunding.sol\":2688:2715  filterDataByStatus[1].pop() */\n      dup1\n      sload\n      dup1\n      tag_160\n      jumpi\n      tag_161\n      tag_136\n      jump\t// in\n    tag_161:\n    tag_160:\n      0x01\n      swap1\n      sub\n      dup2\n      dup2\n      swap1\n      0x00\n      mstore\n      keccak256(0x00, 0x20)\n      swap1\n      0x08\n      mul\n      add\n      0x00\n      dup1\n      dup3\n      add\n      0x00\n      swap1\n      sstore\n      0x01\n      dup3\n      add\n      0x00\n      tag_163\n      swap2\n      swap1\n      tag_139\n      jump\t// in\n    tag_163:\n      0x02\n      dup3\n      add\n      0x00\n      swap1\n      sstore\n      0x03\n      dup3\n      add\n      exp(0x0100, 0x00)\n      dup2\n      sload\n      swap1\n      0xffffffffffffffffffffffffffffffffffffffff\n      mul\n      not\n      and\n      swap1\n      sstore\n      0x04\n      dup3\n      add\n      exp(0x0100, 0x00)\n      dup2\n      sload\n      swap1\n      0xffffffffffffffffffffffffffffffffffffffff\n      mul\n      not\n      and\n      swap1\n      sstore\n      0x05\n      dup3\n      add\n      0x00\n      swap1\n      sstore\n      0x06\n      dup3\n      add\n      0x00\n      swap1\n      sstore\n      0x07\n      dup3\n      add\n      0x00\n      swap1\n      sstore\n      pop\n      pop\n      swap1\n      sstore\n        /* \"crowdfunding.sol\":2335:2727  if(filterDataByStatus[1].length == 1){\r... */\n    tag_140:\n        /* \"crowdfunding.sol\":2737:2755  filterDataByStatus */\n      0x02\n        /* \"crowdfunding.sol\":2737:2758  filterDataByStatus[3] */\n      0x00\n        /* \"crowdfunding.sol\":2756:2757  3 */\n      0x03\n        /* \"crowdfunding.sol\":2737:2758  filterDataByStatus[3] */\n      dup2\n      mstore\n      0x20\n      add\n      swap1\n      dup2\n      mstore\n      0x20\n      add\n      0x00\n      keccak256\n        /* \"crowdfunding.sol\":2764:2768  list */\n      0x01\n        /* \"crowdfunding.sol\":2773:2774  1 */\n      dup1\n        /* \"crowdfunding.sol\":2769:2772  num */\n      dup4\n        /* \"crowdfunding.sol\":2769:2774  num-1 */\n      tag_164\n      swap2\n      swap1\n      tag_73\n      jump\t// in\n    tag_164:\n        /* \"crowdfunding.sol\":2764:2775  list[num-1] */\n      dup2\n      sload\n      dup2\n      lt\n      tag_165\n      jumpi\n      tag_166\n      tag_76\n      jump\t// in\n    tag_166:\n    tag_165:\n      swap1\n      0x00\n      mstore\n      keccak256(0x00, 0x20)\n      swap1\n      0x08\n      mul\n      add\n        /* \"crowdfunding.sol\":2737:2776  filterDataByStatus[3].push(list[num-1]) */\n      swap1\n      dup1\n      0x01\n      dup2\n      sload\n      add\n      dup1\n      dup3\n      sstore\n      dup1\n      swap2\n      pop\n      pop\n      0x01\n      swap1\n      sub\n      swap1\n      0x00\n      mstore\n      keccak256(0x00, 0x20)\n      swap1\n      0x08\n      mul\n      add\n      0x00\n      swap1\n      swap2\n      swap1\n      swap2\n      swap1\n      swap2\n      pop\n      0x00\n      dup3\n      add\n      sload\n      dup2\n      0x00\n      add\n      sstore\n      0x01\n      dup3\n      add\n      dup2\n      0x01\n      add\n      swap1\n      dup1\n      sload\n      tag_169\n      swap1\n      tag_66\n      jump\t// in\n    tag_169:\n      tag_170\n      swap3\n      swap2\n      swap1\n      tag_158\n      jump\t// in\n    tag_170:\n      pop\n      0x02\n      dup3\n      add\n      sload\n      dup2\n      0x02\n      add\n      sstore\n      0x03\n      dup3\n      add\n      0x00\n      swap1\n      sload\n      swap1\n      0x0100\n      exp\n      swap1\n      div\n      0xffffffffffffffffffffffffffffffffffffffff\n      and\n      dup2\n      0x03\n      add\n      exp(0x0100, 0x00)\n      dup2\n      sload\n      dup2\n      0xffffffffffffffffffffffffffffffffffffffff\n      mul\n      not\n      and\n      swap1\n      dup4\n      0xffffffffffffffffffffffffffffffffffffffff\n      and\n      mul\n      or\n      swap1\n      sstore\n      pop\n      0x04\n      dup3\n      add\n      0x00\n      swap1\n      sload\n      swap1\n      0x0100\n      exp\n      swap1\n      div\n      0xffffffffffffffffffffffffffffffffffffffff\n      and\n      dup2\n      0x04\n      add\n      exp(0x0100, 0x00)\n      dup2\n      sload\n      dup2\n      0xffffffffffffffffffffffffffffffffffffffff\n      mul\n      not\n      and\n      swap1\n      dup4\n      0xffffffffffffffffffffffffffffffffffffffff\n      and\n      mul\n      or\n      swap1\n      sstore\n      pop\n      0x05\n      dup3\n      add\n      sload\n      dup2\n      0x05\n      add\n      sstore\n      0x06\n      dup3\n      add\n      sload\n      dup2\n      0x06\n      add\n      sstore\n      0x07\n      dup3\n      add\n      sload\n      dup2\n      0x07\n      add\n      sstore\n      pop\n      pop\n        /* \"crowdfunding.sol\":2192:2784  function setStatus(uint num) public {\r... */\n      pop\n      jump\t// out\n        /* \"crowdfunding.sol\":814:840  Crowdfunding[] public list */\n    tag_34:\n      0x01\n      dup2\n      dup2\n      sload\n      dup2\n      lt\n      tag_171\n      jumpi\n      0x00\n      dup1\n      revert\n    tag_171:\n      swap1\n      0x00\n      mstore\n      keccak256(0x00, 0x20)\n      swap1\n      0x08\n      mul\n      add\n      0x00\n      swap2\n      pop\n      swap1\n      pop\n      dup1\n      0x00\n      add\n      sload\n      swap1\n      dup1\n      0x01\n      add\n      dup1\n      sload\n      tag_173\n      swap1\n      tag_66\n      jump\t// in\n    tag_173:\n      dup1\n      0x1f\n      add\n      0x20\n      dup1\n      swap2\n      div\n      mul\n      0x20\n      add\n      mload(0x40)\n      swap1\n      dup2\n      add\n      0x40\n      mstore\n      dup1\n      swap3\n      swap2\n      swap1\n      dup2\n      dup2\n      mstore\n      0x20\n      add\n      dup3\n      dup1\n      sload\n      tag_174\n      swap1\n      tag_66\n      jump\t// in\n    tag_174:\n      dup1\n      iszero\n      tag_175\n      jumpi\n      dup1\n      0x1f\n      lt\n      tag_176\n      jumpi\n      0x0100\n      dup1\n      dup4\n      sload\n      div\n      mul\n      dup4\n      mstore\n      swap2\n      0x20\n      add\n      swap2\n      jump(tag_175)\n    tag_176:\n      dup3\n      add\n      swap2\n      swap1\n      0x00\n      mstore\n      keccak256(0x00, 0x20)\n      swap1\n    tag_177:\n      dup2\n      sload\n      dup2\n      mstore\n      swap1\n      0x01\n      add\n      swap1\n      0x20\n      add\n      dup1\n      dup4\n      gt\n      tag_177\n      jumpi\n      dup3\n      swap1\n      sub\n      0x1f\n      and\n      dup3\n      add\n      swap2\n    tag_175:\n      pop\n      pop\n      pop\n      pop\n      pop\n      swap1\n      dup1\n      0x02\n      add\n      sload\n      swap1\n      dup1\n      0x03\n      add\n      0x00\n      swap1\n      sload\n      swap1\n      0x0100\n      exp\n      swap1\n      div\n      0xffffffffffffffffffffffffffffffffffffffff\n      and\n      swap1\n      dup1\n      0x04\n      add\n      0x00\n      swap1\n      sload\n      swap1\n      0x0100\n      exp\n      swap1\n      div\n      0xffffffffffffffffffffffffffffffffffffffff\n      and\n      swap1\n      dup1\n      0x05\n      add\n      sload\n      swap1\n      dup1\n      0x06\n      add\n      sload\n      swap1\n      dup1\n      0x07\n      add\n      sload\n      swap1\n      pop\n      dup9\n      jump\t// out\n        /* \"crowdfunding.sol\":3982:4165  function getCrowdfundingByStatus(uint _status) public view returns (Crowdfunding[] memory) {\r... */\n    tag_39:\n        /* \"crowdfunding.sol\":4050:4071  Crowdfunding[] memory */\n      0x60\n        /* \"crowdfunding.sol\":4098:4099  0 */\n      0x00\n        /* \"crowdfunding.sol\":4087:4094  _status */\n      dup3\n        /* \"crowdfunding.sol\":4087:4099  _status == 0 */\n      eq\n        /* \"crowdfunding.sol\":4084:4112  if(_status == 0) return list */\n      iszero\n      tag_179\n      jumpi\n        /* \"crowdfunding.sol\":4108:4112  list */\n      0x01\n        /* \"crowdfunding.sol\":4101:4112  return list */\n      dup1\n      sload\n      dup1\n      0x20\n      mul\n      0x20\n      add\n      mload(0x40)\n      swap1\n      dup2\n      add\n      0x40\n      mstore\n      dup1\n      swap3\n      swap2\n      swap1\n      dup2\n      dup2\n      mstore\n      0x20\n      add\n      0x00\n      swap1\n    tag_180:\n      dup3\n      dup3\n      lt\n      iszero\n      tag_181\n      jumpi\n      dup4\n      dup3\n      swap1\n      0x00\n      mstore\n      keccak256(0x00, 0x20)\n      swap1\n      0x08\n      mul\n      add\n      mload(0x40)\n      dup1\n      0x0100\n      add\n      0x40\n      mstore\n      swap1\n      dup2\n      0x00\n      dup3\n      add\n      sload\n      dup2\n      mstore\n      0x20\n      add\n      0x01\n      dup3\n      add\n      dup1\n      sload\n      tag_183\n      swap1\n      tag_66\n      jump\t// in\n    tag_183:\n      dup1\n      0x1f\n      add\n      0x20\n      dup1\n      swap2\n      div\n      mul\n      0x20\n      add\n      mload(0x40)\n      swap1\n      dup2\n      add\n      0x40\n      mstore\n      dup1\n      swap3\n      swap2\n      swap1\n      dup2\n      dup2\n      mstore\n      0x20\n      add\n      dup3\n      dup1\n      sload\n      tag_184\n      swap1\n      tag_66\n      jump\t// in\n    tag_184:\n      dup1\n      iszero\n      tag_185\n      jumpi\n      dup1\n      0x1f\n      lt\n      tag_186\n      jumpi\n      0x0100\n      dup1\n      dup4\n      sload\n      div\n      mul\n      dup4\n      mstore\n      swap2\n      0x20\n      add\n      swap2\n      jump(tag_185)\n    tag_186:\n      dup3\n      add\n      swap2\n      swap1\n      0x00\n      mstore\n      keccak256(0x00, 0x20)\n      swap1\n    tag_187:\n      dup2\n      sload\n      dup2\n      mstore\n      swap1\n      0x01\n      add\n      swap1\n      0x20\n      add\n      dup1\n      dup4\n      gt\n      tag_187\n      jumpi\n      dup3\n      swap1\n      sub\n      0x1f\n      and\n      dup3\n      add\n      swap2\n    tag_185:\n      pop\n      pop\n      pop\n      pop\n      pop\n      dup2\n      mstore\n      0x20\n      add\n      0x02\n      dup3\n      add\n      sload\n      dup2\n      mstore\n      0x20\n      add\n      0x03\n      dup3\n      add\n      0x00\n      swap1\n      sload\n      swap1\n      0x0100\n      exp\n      swap1\n      div\n      0xffffffffffffffffffffffffffffffffffffffff\n      and\n      0xffffffffffffffffffffffffffffffffffffffff\n      and\n      0xffffffffffffffffffffffffffffffffffffffff\n      and\n      dup2\n      mstore\n      0x20\n      add\n      0x04\n      dup3\n      add\n      0x00\n      swap1\n      sload\n      swap1\n      0x0100\n      exp\n      swap1\n      div\n      0xffffffffffffffffffffffffffffffffffffffff\n      and\n      0xffffffffffffffffffffffffffffffffffffffff\n      and\n      0xffffffffffffffffffffffffffffffffffffffff\n      and\n      dup2\n      mstore\n      0x20\n      add\n      0x05\n      dup3\n      add\n      sload\n      dup2\n      mstore\n      0x20\n      add\n      0x06\n      dup3\n      add\n      sload\n      dup2\n      mstore\n      0x20\n      add\n      0x07\n      dup3\n      add\n      sload\n      dup2\n      mstore\n      pop\n      pop\n      dup2\n      mstore\n      0x20\n      add\n      swap1\n      0x01\n      add\n      swap1\n      jump(tag_180)\n    tag_181:\n      pop\n      pop\n      pop\n      pop\n      swap1\n      pop\n      jump(tag_178)\n        /* \"crowdfunding.sol\":4084:4112  if(_status == 0) return list */\n    tag_179:\n        /* \"crowdfunding.sol\":4130:4148  filterDataByStatus */\n      0x02\n        /* \"crowdfunding.sol\":4130:4157  filterDataByStatus[_status] */\n      0x00\n        /* \"crowdfunding.sol\":4149:4156  _status */\n      dup4\n        /* \"crowdfunding.sol\":4130:4157  filterDataByStatus[_status] */\n      dup2\n      mstore\n      0x20\n      add\n      swap1\n      dup2\n      mstore\n      0x20\n      add\n      0x00\n      keccak256\n        /* \"crowdfunding.sol\":4123:4157  return filterDataByStatus[_status] */\n      dup1\n      sload\n      dup1\n      0x20\n      mul\n      0x20\n      add\n      mload(0x40)\n      swap1\n      dup2\n      add\n      0x40\n      mstore\n      dup1\n      swap3\n      swap2\n      swap1\n      dup2\n      dup2\n      mstore\n      0x20\n      add\n      0x00\n      swap1\n    tag_188:\n      dup3\n      dup3\n      lt\n      iszero\n      tag_189\n      jumpi\n      dup4\n      dup3\n      swap1\n      0x00\n      mstore\n      keccak256(0x00, 0x20)\n      swap1\n      0x08\n      mul\n      add\n      mload(0x40)\n      dup1\n      0x0100\n      add\n      0x40\n      mstore\n      swap1\n      dup2\n      0x00\n      dup3\n      add\n      sload\n      dup2\n      mstore\n      0x20\n      add\n      0x01\n      dup3\n      add\n      dup1\n      sload\n      tag_191\n      swap1\n      tag_66\n      jump\t// in\n    tag_191:\n      dup1\n      0x1f\n      add\n      0x20\n      dup1\n      swap2\n      div\n      mul\n      0x20\n      add\n      mload(0x40)\n      swap1\n      dup2\n      add\n      0x40\n      mstore\n      dup1\n      swap3\n      swap2\n      swap1\n      dup2\n      dup2\n      mstore\n      0x20\n      add\n      dup3\n      dup1\n      sload\n      tag_192\n      swap1\n      tag_66\n      jump\t// in\n    tag_192:\n      dup1\n      iszero\n      tag_193\n      jumpi\n      dup1\n      0x1f\n      lt\n      tag_194\n      jumpi\n      0x0100\n      dup1\n      dup4\n      sload\n      div\n      mul\n      dup4\n      mstore\n      swap2\n      0x20\n      add\n      swap2\n      jump(tag_193)\n    tag_194:\n      dup3\n      add\n      swap2\n      swap1\n      0x00\n      mstore\n      keccak256(0x00, 0x20)\n      swap1\n    tag_195:\n      dup2\n      sload\n      dup2\n      mstore\n      swap1\n      0x01\n      add\n      swap1\n      0x20\n      add\n      dup1\n      dup4\n      gt\n      tag_195\n      jumpi\n      dup3\n      swap1\n      sub\n      0x1f\n      and\n      dup3\n      add\n      swap2\n    tag_193:\n      pop\n      pop\n      pop\n      pop\n      pop\n      dup2\n      mstore\n      0x20\n      add\n      0x02\n      dup3\n      add\n      sload\n      dup2\n      mstore\n      0x20\n      add\n      0x03\n      dup3\n      add\n      0x00\n      swap1\n      sload\n      swap1\n      0x0100\n      exp\n      swap1\n      div\n      0xffffffffffffffffffffffffffffffffffffffff\n      and\n      0xffffffffffffffffffffffffffffffffffffffff\n      and\n      0xffffffffffffffffffffffffffffffffffffffff\n      and\n      dup2\n      mstore\n      0x20\n      add\n      0x04\n      dup3\n      add\n      0x00\n      swap1\n      sload\n      swap1\n      0x0100\n      exp\n      swap1\n      div\n      0xffffffffffffffffffffffffffffffffffffffff\n      and\n      0xffffffffffffffffffffffffffffffffffffffff\n      and\n      0xffffffffffffffffffffffffffffffffffffffff\n      and\n      dup2\n      mstore\n      0x20\n      add\n      0x05\n      dup3\n      add\n      sload\n      dup2\n      mstore\n      0x20\n      add\n      0x06\n      dup3\n      add\n      sload\n      dup2\n      mstore\n      0x20\n      add\n      0x07\n      dup3\n      add\n      sload\n      dup2\n      mstore\n      pop\n      pop\n      dup2\n      mstore\n      0x20\n      add\n      swap1\n      0x01\n      add\n      swap1\n      jump(tag_188)\n    tag_189:\n      pop\n      pop\n      pop\n      pop\n      swap1\n      pop\n        /* \"crowdfunding.sol\":3982:4165  function getCrowdfundingByStatus(uint _status) public view returns (Crowdfunding[] memory) {\r... */\n    tag_178:\n      swap2\n      swap1\n      pop\n      jump\t// out\n        /* \"crowdfunding.sol\":1508:2113  function createCrowdfunding(string memory _title,address _recipient, uint _expectAmout) public {\r... */\n    tag_44:\n        /* \"crowdfunding.sol\":1614:1616  No */\n      0x00\n      dup1\n        /* \"crowdfunding.sol\":1614:1618  No++ */\n      dup2\n      sload\n      dup1\n      swap3\n      swap2\n      swap1\n      tag_197\n      swap1\n      tag_90\n      jump\t// in\n    tag_197:\n      swap2\n      swap1\n      pop\n      sstore\n      pop\n        /* \"crowdfunding.sol\":1629:1650  Crowdfunding memory c */\n      0x00\n        /* \"crowdfunding.sol\":1653:1923  Crowdfunding({\r... */\n      mload(0x40)\n      dup1\n      0x0100\n      add\n      0x40\n      mstore\n      dup1\n        /* \"crowdfunding.sol\":1686:1688  No */\n      sload(0x00)\n        /* \"crowdfunding.sol\":1653:1923  Crowdfunding({\r... */\n      dup2\n      mstore\n      0x20\n      add\n        /* \"crowdfunding.sol\":1709:1715  _title */\n      dup6\n        /* \"crowdfunding.sol\":1653:1923  Crowdfunding({\r... */\n      dup2\n      mstore\n      0x20\n      add\n        /* \"crowdfunding.sol\":1738:1739  1 */\n      0x01\n        /* \"crowdfunding.sol\":1653:1923  Crowdfunding({\r... */\n      dup2\n      mstore\n      0x20\n      add\n        /* \"crowdfunding.sol\":1763:1773  msg.sender */\n      caller\n        /* \"crowdfunding.sol\":1653:1923  Crowdfunding({\r... */\n      0xffffffffffffffffffffffffffffffffffffffff\n      and\n      dup2\n      mstore\n      0x20\n      add\n        /* \"crowdfunding.sol\":1799:1809  _recipient */\n      dup5\n        /* \"crowdfunding.sol\":1653:1923  Crowdfunding({\r... */\n      0xffffffffffffffffffffffffffffffffffffffff\n      and\n      dup2\n      mstore\n      0x20\n      add\n        /* \"crowdfunding.sol\":1833:1834  0 */\n      0x00\n        /* \"crowdfunding.sol\":1653:1923  Crowdfunding({\r... */\n      dup2\n      mstore\n      0x20\n      add\n        /* \"crowdfunding.sol\":1869:1881  _expectAmout */\n      dup4\n        /* \"crowdfunding.sol\":1653:1923  Crowdfunding({\r... */\n      dup2\n      mstore\n      0x20\n      add\n        /* \"crowdfunding.sol\":1910:1911  0 */\n      0x00\n        /* \"crowdfunding.sol\":1653:1923  Crowdfunding({\r... */\n      dup2\n      mstore\n      pop\n        /* \"crowdfunding.sol\":1629:1923  Crowdfunding memory c = Crowdfunding({\r... */\n      swap1\n      pop\n        /* \"crowdfunding.sol\":1934:1938  list */\n      0x01\n        /* \"crowdfunding.sol\":1944:1945  c */\n      dup2\n        /* \"crowdfunding.sol\":1934:1946  list.push(c) */\n      swap1\n      dup1\n      0x01\n      dup2\n      sload\n      add\n      dup1\n      dup3\n      sstore\n      dup1\n      swap2\n      pop\n      pop\n      0x01\n      swap1\n      sub\n      swap1\n      0x00\n      mstore\n      keccak256(0x00, 0x20)\n      swap1\n      0x08\n      mul\n      add\n      0x00\n      swap1\n      swap2\n      swap1\n      swap2\n      swap1\n      swap2\n      pop\n      0x00\n      dup3\n      add\n      mload\n      dup2\n      0x00\n      add\n      sstore\n      0x20\n      dup3\n      add\n      mload\n      dup2\n      0x01\n      add\n      swap1\n      dup1\n      mload\n      swap1\n      0x20\n      add\n      swap1\n      tag_199\n      swap3\n      swap2\n      swap1\n      tag_79\n      jump\t// in\n    tag_199:\n      pop\n      0x40\n      dup3\n      add\n      mload\n      dup2\n      0x02\n      add\n      sstore\n      0x60\n      dup3\n      add\n      mload\n      dup2\n      0x03\n      add\n      exp(0x0100, 0x00)\n      dup2\n      sload\n      dup2\n      0xffffffffffffffffffffffffffffffffffffffff\n      mul\n      not\n      and\n      swap1\n      dup4\n      0xffffffffffffffffffffffffffffffffffffffff\n      and\n      mul\n      or\n      swap1\n      sstore\n      pop\n      0x80\n      dup3\n      add\n      mload\n      dup2\n      0x04\n      add\n      exp(0x0100, 0x00)\n      dup2\n      sload\n      dup2\n      0xffffffffffffffffffffffffffffffffffffffff\n      mul\n      not\n      and\n      swap1\n      dup4\n      0xffffffffffffffffffffffffffffffffffffffff\n      and\n      mul\n      or\n      swap1\n      sstore\n      pop\n      0xa0\n      dup3\n      add\n      mload\n      dup2\n      0x05\n      add\n      sstore\n      0xc0\n      dup3\n      add\n      mload\n      dup2\n      0x06\n      add\n      sstore\n      0xe0\n      dup3\n      add\n      mload\n      dup2\n      0x07\n      add\n      sstore\n      pop\n      pop\n        /* \"crowdfunding.sol\":2031:2049  filterDataByStatus */\n      0x02\n        /* \"crowdfunding.sol\":2031:2052  filterDataByStatus[1] */\n      0x00\n        /* \"crowdfunding.sol\":2050:2051  1 */\n      0x01\n        /* \"crowdfunding.sol\":2031:2052  filterDataByStatus[1] */\n      dup2\n      mstore\n      0x20\n      add\n      swap1\n      dup2\n      mstore\n      0x20\n      add\n      0x00\n      keccak256\n        /* \"crowdfunding.sol\":2058:2059  c */\n      dup2\n        /* \"crowdfunding.sol\":2031:2060  filterDataByStatus[1].push(c) */\n      swap1\n      dup1\n      0x01\n      dup2\n      sload\n      add\n      dup1\n      dup3\n      sstore\n      dup1\n      swap2\n      pop\n      pop\n      0x01\n      swap1\n      sub\n      swap1\n      0x00\n      mstore\n      keccak256(0x00, 0x20)\n      swap1\n      0x08\n      mul\n      add\n      0x00\n      swap1\n      swap2\n      swap1\n      swap2\n      swap1\n      swap2\n      pop\n      0x00\n      dup3\n      add\n      mload\n      dup2\n      0x00\n      add\n      sstore\n      0x20\n      dup3\n      add\n      mload\n      dup2\n      0x01\n      add\n      swap1\n      dup1\n      mload\n      swap1\n      0x20\n      add\n      swap1\n      tag_201\n      swap3\n      swap2\n      swap1\n      tag_79\n      jump\t// in\n    tag_201:\n      pop\n      0x40\n      dup3\n      add\n      mload\n      dup2\n      0x02\n      add\n      sstore\n      0x60\n      dup3\n      add\n      mload\n      dup2\n      0x03\n      add\n      exp(0x0100, 0x00)\n      dup2\n      sload\n      dup2\n      0xffffffffffffffffffffffffffffffffffffffff\n      mul\n      not\n      and\n      swap1\n      dup4\n      0xffffffffffffffffffffffffffffffffffffffff\n      and\n      mul\n      or\n      swap1\n      sstore\n      pop\n      0x80\n      dup3\n      add\n      mload\n      dup2\n      0x04\n      add\n      exp(0x0100, 0x00)\n      dup2\n      sload\n      dup2\n      0xffffffffffffffffffffffffffffffffffffffff\n      mul\n      not\n      and\n      swap1\n      dup4\n      0xffffffffffffffffffffffffffffffffffffffff\n      and\n      mul\n      or\n      swap1\n      sstore\n      pop\n      0xa0\n      dup3\n      add\n      mload\n      dup2\n      0x05\n      add\n      sstore\n      0xc0\n      dup3\n      add\n      mload\n      dup2\n      0x06\n      add\n      sstore\n      0xe0\n      dup3\n      add\n      mload\n      dup2\n      0x07\n      add\n      sstore\n      pop\n      pop\n        /* \"crowdfunding.sol\":2071:2085  myCrowdfunding */\n      0x03\n        /* \"crowdfunding.sol\":2071:2097  myCrowdfunding[msg.sender] */\n      0x00\n        /* \"crowdfunding.sol\":2086:2096  msg.sender */\n      caller\n        /* \"crowdfunding.sol\":2071:2097  myCrowdfunding[msg.sender] */\n      0xffffffffffffffffffffffffffffffffffffffff\n      and\n      0xffffffffffffffffffffffffffffffffffffffff\n      and\n      dup2\n      mstore\n      0x20\n      add\n      swap1\n      dup2\n      mstore\n      0x20\n      add\n      0x00\n      keccak256\n        /* \"crowdfunding.sol\":2103:2104  c */\n      dup2\n        /* \"crowdfunding.sol\":2071:2105  myCrowdfunding[msg.sender].push(c) */\n      swap1\n      dup1\n      0x01\n      dup2\n      sload\n      add\n      dup1\n      dup3\n      sstore\n      dup1\n      swap2\n      pop\n      pop\n      0x01\n      swap1\n      sub\n      swap1\n      0x00\n      mstore\n      keccak256(0x00, 0x20)\n      swap1\n      0x08\n      mul\n      add\n      0x00\n      swap1\n      swap2\n      swap1\n      swap2\n      swap1\n      swap2\n      pop\n      0x00\n      dup3\n      add\n      mload\n      dup2\n      0x00\n      add\n      sstore\n      0x20\n      dup3\n      add\n      mload\n      dup2\n      0x01\n      add\n      swap1\n      dup1\n      mload\n      swap1\n      0x20\n      add\n      swap1\n      tag_203\n      swap3\n      swap2\n      swap1\n      tag_79\n      jump\t// in\n    tag_203:\n      pop\n      0x40\n      dup3\n      add\n      mload\n      dup2\n      0x02\n      add\n      sstore\n      0x60\n      dup3\n      add\n      mload\n      dup2\n      0x03\n      add\n      exp(0x0100, 0x00)\n      dup2\n      sload\n      dup2\n      0xffffffffffffffffffffffffffffffffffffffff\n      mul\n      not\n      and\n      swap1\n      dup4\n      0xffffffffffffffffffffffffffffffffffffffff\n      and\n      mul\n      or\n      swap1\n      sstore\n      pop\n      0x80\n      dup3\n      add\n      mload\n      dup2\n      0x04\n      add\n      exp(0x0100, 0x00)\n      dup2\n      sload\n      dup2\n      0xffffffffffffffffffffffffffffffffffffffff\n      mul\n      not\n      and\n      swap1\n      dup4\n      0xffffffffffffffffffffffffffffffffffffffff\n      and\n      mul\n      or\n      swap1\n      sstore\n      pop\n      0xa0\n      dup3\n      add\n      mload\n      dup2\n      0x05\n      add\n      sstore\n      0xc0\n      dup3\n      add\n      mload\n      dup2\n      0x06\n      add\n      sstore\n      0xe0\n      dup3\n      add\n      mload\n      dup2\n      0x07\n      add\n      sstore\n      pop\n      pop\n        /* \"crowdfunding.sol\":1603:2113  {\r... */\n      pop\n        /* \"crowdfunding.sol\":1508:2113  function createCrowdfunding(string memory _title,address _recipient, uint _expectAmout) public {\r... */\n      pop\n      pop\n      pop\n      jump\t// out\n        /* \"crowdfunding.sol\":4466:4561  function test2 (address a) public view returns (bool) {\r... */\n    tag_47:\n        /* \"crowdfunding.sol\":4514:4518  bool */\n      0x00\n        /* \"crowdfunding.sol\":4543:4553  msg.sender */\n      caller\n        /* \"crowdfunding.sol\":4538:4553  a == msg.sender */\n      0xffffffffffffffffffffffffffffffffffffffff\n      and\n        /* \"crowdfunding.sol\":4538:4539  a */\n      dup3\n        /* \"crowdfunding.sol\":4538:4553  a == msg.sender */\n      0xffffffffffffffffffffffffffffffffffffffff\n      and\n      eq\n        /* \"crowdfunding.sol\":4531:4553  return a == msg.sender */\n      swap1\n      pop\n        /* \"crowdfunding.sol\":4466:4561  function test2 (address a) public view returns (bool) {\r... */\n      swap2\n      swap1\n      pop\n      jump\t// out\n        /* \"crowdfunding.sol\":4354:4458  function test (address a) public view returns (address,address) {\r... */\n    tag_52:\n        /* \"crowdfunding.sol\":4401:4408  address */\n      0x00\n        /* \"crowdfunding.sol\":4409:4416  address */\n      dup1\n        /* \"crowdfunding.sol\":4437:4438  a */\n      dup3\n        /* \"crowdfunding.sol\":4439:4449  msg.sender */\n      caller\n        /* \"crowdfunding.sol\":4429:4450  return (a,msg.sender) */\n      swap2\n      pop\n      swap2\n      pop\n        /* \"crowdfunding.sol\":4354:4458  function test (address a) public view returns (address,address) {\r... */\n      swap2\n      pop\n      swap2\n      jump\t// out\n        /* \"crowdfunding.sol\":1130:1500  function stringToInt(string memory s) public pure returns (uint){\r... */\n    tag_58:\n        /* \"crowdfunding.sol\":1189:1193  uint */\n      0x00\n        /* \"crowdfunding.sol\":1205:1219  bytes memory b */\n      dup1\n        /* \"crowdfunding.sol\":1228:1229  s */\n      dup3\n        /* \"crowdfunding.sol\":1205:1230  bytes memory b = bytes(s) */\n      swap1\n      pop\n        /* \"crowdfunding.sol\":1241:1252  uint result */\n      0x00\n        /* \"crowdfunding.sol\":1272:1281  uint256 i */\n      dup1\n        /* \"crowdfunding.sol\":1267:1469  for (uint256 i = 0; i < b.length; i++) {\r... */\n    tag_207:\n        /* \"crowdfunding.sol\":1291:1292  b */\n      dup3\n        /* \"crowdfunding.sol\":1291:1299  b.length */\n      mload\n        /* \"crowdfunding.sol\":1287:1288  i */\n      dup2\n        /* \"crowdfunding.sol\":1287:1299  i < b.length */\n      lt\n        /* \"crowdfunding.sol\":1267:1469  for (uint256 i = 0; i < b.length; i++) {\r... */\n      iszero\n      tag_208\n      jumpi\n        /* \"crowdfunding.sol\":1321:1330  uint256 c */\n      0x00\n        /* \"crowdfunding.sol\":1347:1348  b */\n      dup4\n        /* \"crowdfunding.sol\":1349:1350  i */\n      dup3\n        /* \"crowdfunding.sol\":1347:1351  b[i] */\n      dup2\n      mload\n      dup2\n      lt\n      tag_210\n      jumpi\n      tag_211\n      tag_76\n      jump\t// in\n    tag_211:\n    tag_210:\n      0x20\n      add\n      add\n      mload\n      0xf8\n      shr\n      0xf8\n      shl\n        /* \"crowdfunding.sol\":1341:1352  uint8(b[i]) */\n      0xf8\n      shr\n        /* \"crowdfunding.sol\":1333:1353  uint256(uint8(b[i])) */\n      0xff\n      and\n        /* \"crowdfunding.sol\":1321:1353  uint256 c = uint256(uint8(b[i])) */\n      swap1\n      pop\n        /* \"crowdfunding.sol\":1377:1379  48 */\n      0x30\n        /* \"crowdfunding.sol\":1372:1373  c */\n      dup2\n        /* \"crowdfunding.sol\":1372:1379  c >= 48 */\n      lt\n      iszero\n        /* \"crowdfunding.sol\":1372:1390  c >= 48 && c <= 57 */\n      dup1\n      iszero\n      tag_212\n      jumpi\n      pop\n        /* \"crowdfunding.sol\":1388:1390  57 */\n      0x39\n        /* \"crowdfunding.sol\":1383:1384  c */\n      dup2\n        /* \"crowdfunding.sol\":1383:1390  c <= 57 */\n      gt\n      iszero\n        /* \"crowdfunding.sol\":1372:1390  c >= 48 && c <= 57 */\n    tag_212:\n        /* \"crowdfunding.sol\":1368:1458  if (c >= 48 && c <= 57) {\r... */\n      iszero\n      tag_213\n      jumpi\n        /* \"crowdfunding.sol\":1439:1441  48 */\n      0x30\n        /* \"crowdfunding.sol\":1435:1436  c */\n      dup2\n        /* \"crowdfunding.sol\":1435:1441  c - 48 */\n      tag_214\n      swap2\n      swap1\n      tag_73\n      jump\t// in\n    tag_214:\n        /* \"crowdfunding.sol\":1429:1431  10 */\n      0x0a\n        /* \"crowdfunding.sol\":1420:1426  result */\n      dup5\n        /* \"crowdfunding.sol\":1420:1431  result * 10 */\n      tag_215\n      swap2\n      swap1\n      tag_216\n      jump\t// in\n    tag_215:\n        /* \"crowdfunding.sol\":1420:1442  result * 10 + (c - 48) */\n      tag_217\n      swap2\n      swap1\n      tag_97\n      jump\t// in\n    tag_217:\n        /* \"crowdfunding.sol\":1411:1442  result = result * 10 + (c - 48) */\n      swap3\n      pop\n        /* \"crowdfunding.sol\":1368:1458  if (c >= 48 && c <= 57) {\r... */\n    tag_213:\n        /* \"crowdfunding.sol\":1306:1469  {\r... */\n      pop\n        /* \"crowdfunding.sol\":1301:1304  i++ */\n      dup1\n      dup1\n      tag_218\n      swap1\n      tag_90\n      jump\t// in\n    tag_218:\n      swap2\n      pop\n      pop\n        /* \"crowdfunding.sol\":1267:1469  for (uint256 i = 0; i < b.length; i++) {\r... */\n      jump(tag_207)\n    tag_208:\n      pop\n        /* \"crowdfunding.sol\":1486:1492  result */\n      dup1\n        /* \"crowdfunding.sol\":1479:1492  return result */\n      swap3\n      pop\n      pop\n      pop\n        /* \"crowdfunding.sol\":1130:1500  function stringToInt(string memory s) public pure returns (uint){\r... */\n      swap2\n      swap1\n      pop\n      jump\t// out\n    tag_79:\n      dup3\n      dup1\n      sload\n      tag_219\n      swap1\n      tag_66\n      jump\t// in\n    tag_219:\n      swap1\n      0x00\n      mstore\n      keccak256(0x00, 0x20)\n      swap1\n      0x1f\n      add\n      0x20\n      swap1\n      div\n      dup2\n      add\n      swap3\n      dup3\n      tag_221\n      jumpi\n      0x00\n      dup6\n      sstore\n      jump(tag_220)\n    tag_221:\n      dup3\n      0x1f\n      lt\n      tag_222\n      jumpi\n      dup1\n      mload\n      not(0xff)\n      and\n      dup4\n      dup1\n      add\n      or\n      dup6\n      sstore\n      jump(tag_220)\n    tag_222:\n      dup3\n      dup1\n      add\n      0x01\n      add\n      dup6\n      sstore\n      dup3\n      iszero\n      tag_220\n      jumpi\n      swap2\n      dup3\n      add\n    tag_223:\n      dup3\n      dup2\n      gt\n      iszero\n      tag_224\n      jumpi\n      dup3\n      mload\n      dup3\n      sstore\n      swap2\n      0x20\n      add\n      swap2\n      swap1\n      0x01\n      add\n      swap1\n      jump(tag_223)\n    tag_224:\n    tag_220:\n      pop\n      swap1\n      pop\n      tag_225\n      swap2\n      swap1\n      tag_226\n      jump\t// in\n    tag_225:\n      pop\n      swap1\n      jump\t// out\n    tag_139:\n      pop\n      dup1\n      sload\n      tag_227\n      swap1\n      tag_66\n      jump\t// in\n    tag_227:\n      0x00\n      dup3\n      sstore\n      dup1\n      0x1f\n      lt\n      tag_229\n      jumpi\n      pop\n      jump(tag_228)\n    tag_229:\n      0x1f\n      add\n      0x20\n      swap1\n      div\n      swap1\n      0x00\n      mstore\n      keccak256(0x00, 0x20)\n      swap1\n      dup2\n      add\n      swap1\n      tag_230\n      swap2\n      swap1\n      tag_226\n      jump\t// in\n    tag_230:\n    tag_228:\n      pop\n      jump\t// out\n    tag_158:\n      dup3\n      dup1\n      sload\n      tag_231\n      swap1\n      tag_66\n      jump\t// in\n    tag_231:\n      swap1\n      0x00\n      mstore\n      keccak256(0x00, 0x20)\n      swap1\n      0x1f\n      add\n      0x20\n      swap1\n      div\n      dup2\n      add\n      swap3\n      dup3\n      tag_233\n      jumpi\n      0x00\n      dup6\n      sstore\n      jump(tag_232)\n    tag_233:\n      dup3\n      0x1f\n      lt\n      tag_234\n      jumpi\n      dup1\n      sload\n      dup6\n      sstore\n      jump(tag_232)\n    tag_234:\n      dup3\n      dup1\n      add\n      0x01\n      add\n      dup6\n      sstore\n      dup3\n      iszero\n      tag_232\n      jumpi\n      0x00\n      mstore\n      keccak256(0x00, 0x20)\n      swap2\n      0x1f\n      add\n      0x20\n      swap1\n      div\n      dup3\n      add\n    tag_235:\n      dup3\n      dup2\n      gt\n      iszero\n      tag_236\n      jumpi\n      dup3\n      sload\n      dup3\n      sstore\n      swap2\n      0x01\n      add\n      swap2\n      swap1\n      0x01\n      add\n      swap1\n      jump(tag_235)\n    tag_236:\n    tag_232:\n      pop\n      swap1\n      pop\n      tag_237\n      swap2\n      swap1\n      tag_226\n      jump\t// in\n    tag_237:\n      pop\n      swap1\n      jump\t// out\n    tag_226:\n    tag_238:\n      dup1\n      dup3\n      gt\n      iszero\n      tag_239\n      jumpi\n      0x00\n      dup2\n      0x00\n      swap1\n      sstore\n      pop\n      0x01\n      add\n      jump(tag_238)\n    tag_239:\n      pop\n      swap1\n      jump\t// out\n        /* \"#utility.yul\":7:419   */\n    tag_241:\n        /* \"#utility.yul\":85:90   */\n      0x00\n        /* \"#utility.yul\":110:176   */\n      tag_243\n        /* \"#utility.yul\":126:175   */\n      tag_244\n        /* \"#utility.yul\":168:174   */\n      dup5\n        /* \"#utility.yul\":126:175   */\n      tag_245\n      jump\t// in\n    tag_244:\n        /* \"#utility.yul\":110:176   */\n      tag_246\n      jump\t// in\n    tag_243:\n        /* \"#utility.yul\":101:176   */\n      swap1\n      pop\n        /* \"#utility.yul\":199:205   */\n      dup3\n        /* \"#utility.yul\":192:197   */\n      dup2\n        /* \"#utility.yul\":185:206   */\n      mstore\n        /* \"#utility.yul\":237:241   */\n      0x20\n        /* \"#utility.yul\":230:235   */\n      dup2\n        /* \"#utility.yul\":226:242   */\n      add\n        /* \"#utility.yul\":275:278   */\n      dup5\n        /* \"#utility.yul\":266:272   */\n      dup5\n        /* \"#utility.yul\":261:264   */\n      dup5\n        /* \"#utility.yul\":257:273   */\n      add\n        /* \"#utility.yul\":254:279   */\n      gt\n        /* \"#utility.yul\":251:363   */\n      iszero\n      tag_247\n      jumpi\n        /* \"#utility.yul\":282:361   */\n      tag_248\n      tag_249\n      jump\t// in\n    tag_248:\n        /* \"#utility.yul\":251:363   */\n    tag_247:\n        /* \"#utility.yul\":372:413   */\n      tag_250\n        /* \"#utility.yul\":406:412   */\n      dup5\n        /* \"#utility.yul\":401:404   */\n      dup3\n        /* \"#utility.yul\":396:399   */\n      dup6\n        /* \"#utility.yul\":372:413   */\n      tag_251\n      jump\t// in\n    tag_250:\n        /* \"#utility.yul\":91:419   */\n      pop\n        /* \"#utility.yul\":7:419   */\n      swap4\n      swap3\n      pop\n      pop\n      pop\n      jump\t// out\n        /* \"#utility.yul\":425:564   */\n    tag_252:\n        /* \"#utility.yul\":471:476   */\n      0x00\n        /* \"#utility.yul\":509:515   */\n      dup2\n        /* \"#utility.yul\":496:516   */\n      calldataload\n        /* \"#utility.yul\":487:516   */\n      swap1\n      pop\n        /* \"#utility.yul\":525:558   */\n      tag_254\n        /* \"#utility.yul\":552:557   */\n      dup2\n        /* \"#utility.yul\":525:558   */\n      tag_255\n      jump\t// in\n    tag_254:\n        /* \"#utility.yul\":425:564   */\n      swap3\n      swap2\n      pop\n      pop\n      jump\t// out\n        /* \"#utility.yul\":584:924   */\n    tag_256:\n        /* \"#utility.yul\":640:645   */\n      0x00\n        /* \"#utility.yul\":689:692   */\n      dup3\n        /* \"#utility.yul\":682:686   */\n      0x1f\n        /* \"#utility.yul\":674:680   */\n      dup4\n        /* \"#utility.yul\":670:687   */\n      add\n        /* \"#utility.yul\":666:693   */\n      slt\n        /* \"#utility.yul\":656:778   */\n      tag_258\n      jumpi\n        /* \"#utility.yul\":697:776   */\n      tag_259\n      tag_260\n      jump\t// in\n    tag_259:\n        /* \"#utility.yul\":656:778   */\n    tag_258:\n        /* \"#utility.yul\":814:820   */\n      dup2\n        /* \"#utility.yul\":801:821   */\n      calldataload\n        /* \"#utility.yul\":839:918   */\n      tag_261\n        /* \"#utility.yul\":914:917   */\n      dup5\n        /* \"#utility.yul\":906:912   */\n      dup3\n        /* \"#utility.yul\":899:903   */\n      0x20\n        /* \"#utility.yul\":891:897   */\n      dup7\n        /* \"#utility.yul\":887:904   */\n      add\n        /* \"#utility.yul\":839:918   */\n      tag_241\n      jump\t// in\n    tag_261:\n        /* \"#utility.yul\":830:918   */\n      swap2\n      pop\n        /* \"#utility.yul\":646:924   */\n      pop\n        /* \"#utility.yul\":584:924   */\n      swap3\n      swap2\n      pop\n      pop\n      jump\t// out\n        /* \"#utility.yul\":930:1069   */\n    tag_262:\n        /* \"#utility.yul\":976:981   */\n      0x00\n        /* \"#utility.yul\":1014:1020   */\n      dup2\n        /* \"#utility.yul\":1001:1021   */\n      calldataload\n        /* \"#utility.yul\":992:1021   */\n      swap1\n      pop\n        /* \"#utility.yul\":1030:1063   */\n      tag_264\n        /* \"#utility.yul\":1057:1062   */\n      dup2\n        /* \"#utility.yul\":1030:1063   */\n      tag_265\n      jump\t// in\n    tag_264:\n        /* \"#utility.yul\":930:1069   */\n      swap3\n      swap2\n      pop\n      pop\n      jump\t// out\n        /* \"#utility.yul\":1075:1404   */\n    tag_16:\n        /* \"#utility.yul\":1134:1140   */\n      0x00\n        /* \"#utility.yul\":1183:1185   */\n      0x20\n        /* \"#utility.yul\":1171:1180   */\n      dup3\n        /* \"#utility.yul\":1162:1169   */\n      dup5\n        /* \"#utility.yul\":1158:1181   */\n      sub\n        /* \"#utility.yul\":1154:1186   */\n      slt\n        /* \"#utility.yul\":1151:1270   */\n      iszero\n      tag_267\n      jumpi\n        /* \"#utility.yul\":1189:1268   */\n      tag_268\n      tag_269\n      jump\t// in\n    tag_268:\n        /* \"#utility.yul\":1151:1270   */\n    tag_267:\n        /* \"#utility.yul\":1309:1310   */\n      0x00\n        /* \"#utility.yul\":1334:1387   */\n      tag_270\n        /* \"#utility.yul\":1379:1386   */\n      dup5\n        /* \"#utility.yul\":1370:1376   */\n      dup3\n        /* \"#utility.yul\":1359:1368   */\n      dup6\n        /* \"#utility.yul\":1355:1377   */\n      add\n        /* \"#utility.yul\":1334:1387   */\n      tag_252\n      jump\t// in\n    tag_270:\n        /* \"#utility.yul\":1324:1387   */\n      swap2\n      pop\n        /* \"#utility.yul\":1280:1397   */\n      pop\n        /* \"#utility.yul\":1075:1404   */\n      swap3\n      swap2\n      pop\n      pop\n      jump\t// out\n        /* \"#utility.yul\":1410:1919   */\n    tag_57:\n        /* \"#utility.yul\":1479:1485   */\n      0x00\n        /* \"#utility.yul\":1528:1530   */\n      0x20\n        /* \"#utility.yul\":1516:1525   */\n      dup3\n        /* \"#utility.yul\":1507:1514   */\n      dup5\n        /* \"#utility.yul\":1503:1526   */\n      sub\n        /* \"#utility.yul\":1499:1531   */\n      slt\n        /* \"#utility.yul\":1496:1615   */\n      iszero\n      tag_272\n      jumpi\n        /* \"#utility.yul\":1534:1613   */\n      tag_273\n      tag_269\n      jump\t// in\n    tag_273:\n        /* \"#utility.yul\":1496:1615   */\n    tag_272:\n        /* \"#utility.yul\":1682:1683   */\n      0x00\n        /* \"#utility.yul\":1671:1680   */\n      dup3\n        /* \"#utility.yul\":1667:1684   */\n      add\n        /* \"#utility.yul\":1654:1685   */\n      calldataload\n        /* \"#utility.yul\":1712:1730   */\n      0xffffffffffffffff\n        /* \"#utility.yul\":1704:1710   */\n      dup2\n        /* \"#utility.yul\":1701:1731   */\n      gt\n        /* \"#utility.yul\":1698:1815   */\n      iszero\n      tag_274\n      jumpi\n        /* \"#utility.yul\":1734:1813   */\n      tag_275\n      tag_276\n      jump\t// in\n    tag_275:\n        /* \"#utility.yul\":1698:1815   */\n    tag_274:\n        /* \"#utility.yul\":1839:1902   */\n      tag_277\n        /* \"#utility.yul\":1894:1901   */\n      dup5\n        /* \"#utility.yul\":1885:1891   */\n      dup3\n        /* \"#utility.yul\":1874:1883   */\n      dup6\n        /* \"#utility.yul\":1870:1892   */\n      add\n        /* \"#utility.yul\":1839:1902   */\n      tag_256\n      jump\t// in\n    tag_277:\n        /* \"#utility.yul\":1829:1902   */\n      swap2\n      pop\n        /* \"#utility.yul\":1625:1912   */\n      pop\n        /* \"#utility.yul\":1410:1919   */\n      swap3\n      swap2\n      pop\n      pop\n      jump\t// out\n        /* \"#utility.yul\":1925:2724   */\n    tag_43:\n        /* \"#utility.yul\":2012:2018   */\n      0x00\n        /* \"#utility.yul\":2020:2026   */\n      dup1\n        /* \"#utility.yul\":2028:2034   */\n      0x00\n        /* \"#utility.yul\":2077:2079   */\n      0x60\n        /* \"#utility.yul\":2065:2074   */\n      dup5\n        /* \"#utility.yul\":2056:2063   */\n      dup7\n        /* \"#utility.yul\":2052:2075   */\n      sub\n        /* \"#utility.yul\":2048:2080   */\n      slt\n        /* \"#utility.yul\":2045:2164   */\n      iszero\n      tag_279\n      jumpi\n        /* \"#utility.yul\":2083:2162   */\n      tag_280\n      tag_269\n      jump\t// in\n    tag_280:\n        /* \"#utility.yul\":2045:2164   */\n    tag_279:\n        /* \"#utility.yul\":2231:2232   */\n      0x00\n        /* \"#utility.yul\":2220:2229   */\n      dup5\n        /* \"#utility.yul\":2216:2233   */\n      add\n        /* \"#utility.yul\":2203:2234   */\n      calldataload\n        /* \"#utility.yul\":2261:2279   */\n      0xffffffffffffffff\n        /* \"#utility.yul\":2253:2259   */\n      dup2\n        /* \"#utility.yul\":2250:2280   */\n      gt\n        /* \"#utility.yul\":2247:2364   */\n      iszero\n      tag_281\n      jumpi\n        /* \"#utility.yul\":2283:2362   */\n      tag_282\n      tag_276\n      jump\t// in\n    tag_282:\n        /* \"#utility.yul\":2247:2364   */\n    tag_281:\n        /* \"#utility.yul\":2388:2451   */\n      tag_283\n        /* \"#utility.yul\":2443:2450   */\n      dup7\n        /* \"#utility.yul\":2434:2440   */\n      dup3\n        /* \"#utility.yul\":2423:2432   */\n      dup8\n        /* \"#utility.yul\":2419:2441   */\n      add\n        /* \"#utility.yul\":2388:2451   */\n      tag_256\n      jump\t// in\n    tag_283:\n        /* \"#utility.yul\":2378:2451   */\n      swap4\n      pop\n        /* \"#utility.yul\":2174:2461   */\n      pop\n        /* \"#utility.yul\":2500:2502   */\n      0x20\n        /* \"#utility.yul\":2526:2579   */\n      tag_284\n        /* \"#utility.yul\":2571:2578   */\n      dup7\n        /* \"#utility.yul\":2562:2568   */\n      dup3\n        /* \"#utility.yul\":2551:2560   */\n      dup8\n        /* \"#utility.yul\":2547:2569   */\n      add\n        /* \"#utility.yul\":2526:2579   */\n      tag_252\n      jump\t// in\n    tag_284:\n        /* \"#utility.yul\":2516:2579   */\n      swap3\n      pop\n        /* \"#utility.yul\":2471:2589   */\n      pop\n        /* \"#utility.yul\":2628:2630   */\n      0x40\n        /* \"#utility.yul\":2654:2707   */\n      tag_285\n        /* \"#utility.yul\":2699:2706   */\n      dup7\n        /* \"#utility.yul\":2690:2696   */\n      dup3\n        /* \"#utility.yul\":2679:2688   */\n      dup8\n        /* \"#utility.yul\":2675:2697   */\n      add\n        /* \"#utility.yul\":2654:2707   */\n      tag_262\n      jump\t// in\n    tag_285:\n        /* \"#utility.yul\":2644:2707   */\n      swap2\n      pop\n        /* \"#utility.yul\":2599:2717   */\n      pop\n        /* \"#utility.yul\":1925:2724   */\n      swap3\n      pop\n      swap3\n      pop\n      swap3\n      jump\t// out\n        /* \"#utility.yul\":2730:3059   */\n    tag_30:\n        /* \"#utility.yul\":2789:2795   */\n      0x00\n        /* \"#utility.yul\":2838:2840   */\n      0x20\n        /* \"#utility.yul\":2826:2835   */\n      dup3\n        /* \"#utility.yul\":2817:2824   */\n      dup5\n        /* \"#utility.yul\":2813:2836   */\n      sub\n        /* \"#utility.yul\":2809:2841   */\n      slt\n        /* \"#utility.yul\":2806:2925   */\n      iszero\n      tag_287\n      jumpi\n        /* \"#utility.yul\":2844:2923   */\n      tag_288\n      tag_269\n      jump\t// in\n    tag_288:\n        /* \"#utility.yul\":2806:2925   */\n    tag_287:\n        /* \"#utility.yul\":2964:2965   */\n      0x00\n        /* \"#utility.yul\":2989:3042   */\n      tag_289\n        /* \"#utility.yul\":3034:3041   */\n      dup5\n        /* \"#utility.yul\":3025:3031   */\n      dup3\n        /* \"#utility.yul\":3014:3023   */\n      dup6\n        /* \"#utility.yul\":3010:3032   */\n      add\n        /* \"#utility.yul\":2989:3042   */\n      tag_262\n      jump\t// in\n    tag_289:\n        /* \"#utility.yul\":2979:3042   */\n      swap2\n      pop\n        /* \"#utility.yul\":2935:3052   */\n      pop\n        /* \"#utility.yul\":2730:3059   */\n      swap3\n      swap2\n      pop\n      pop\n      jump\t// out\n        /* \"#utility.yul\":3065:3719   */\n    tag_22:\n        /* \"#utility.yul\":3143:3149   */\n      0x00\n        /* \"#utility.yul\":3151:3157   */\n      dup1\n        /* \"#utility.yul\":3200:3202   */\n      0x40\n        /* \"#utility.yul\":3188:3197   */\n      dup4\n        /* \"#utility.yul\":3179:3186   */\n      dup6\n        /* \"#utility.yul\":3175:3198   */\n      sub\n        /* \"#utility.yul\":3171:3203   */\n      slt\n        /* \"#utility.yul\":3168:3287   */\n      iszero\n      tag_291\n      jumpi\n        /* \"#utility.yul\":3206:3285   */\n      tag_292\n      tag_269\n      jump\t// in\n    tag_292:\n        /* \"#utility.yul\":3168:3287   */\n    tag_291:\n        /* \"#utility.yul\":3326:3327   */\n      0x00\n        /* \"#utility.yul\":3351:3404   */\n      tag_293\n        /* \"#utility.yul\":3396:3403   */\n      dup6\n        /* \"#utility.yul\":3387:3393   */\n      dup3\n        /* \"#utility.yul\":3376:3385   */\n      dup7\n        /* \"#utility.yul\":3372:3394   */\n      add\n        /* \"#utility.yul\":3351:3404   */\n      tag_262\n      jump\t// in\n    tag_293:\n        /* \"#utility.yul\":3341:3404   */\n      swap3\n      pop\n        /* \"#utility.yul\":3297:3414   */\n      pop\n        /* \"#utility.yul\":3481:3483   */\n      0x20\n        /* \"#utility.yul\":3470:3479   */\n      dup4\n        /* \"#utility.yul\":3466:3484   */\n      add\n        /* \"#utility.yul\":3453:3485   */\n      calldataload\n        /* \"#utility.yul\":3512:3530   */\n      0xffffffffffffffff\n        /* \"#utility.yul\":3504:3510   */\n      dup2\n        /* \"#utility.yul\":3501:3531   */\n      gt\n        /* \"#utility.yul\":3498:3615   */\n      iszero\n      tag_294\n      jumpi\n        /* \"#utility.yul\":3534:3613   */\n      tag_295\n      tag_276\n      jump\t// in\n    tag_295:\n        /* \"#utility.yul\":3498:3615   */\n    tag_294:\n        /* \"#utility.yul\":3639:3702   */\n      tag_296\n        /* \"#utility.yul\":3694:3701   */\n      dup6\n        /* \"#utility.yul\":3685:3691   */\n      dup3\n        /* \"#utility.yul\":3674:3683   */\n      dup7\n        /* \"#utility.yul\":3670:3692   */\n      add\n        /* \"#utility.yul\":3639:3702   */\n      tag_256\n      jump\t// in\n    tag_296:\n        /* \"#utility.yul\":3629:3702   */\n      swap2\n      pop\n        /* \"#utility.yul\":3424:3712   */\n      pop\n        /* \"#utility.yul\":3065:3719   */\n      swap3\n      pop\n      swap3\n      swap1\n      pop\n      jump\t// out\n        /* \"#utility.yul\":3725:4344   */\n    tag_26:\n        /* \"#utility.yul\":3802:3808   */\n      0x00\n        /* \"#utility.yul\":3810:3816   */\n      dup1\n        /* \"#utility.yul\":3818:3824   */\n      0x00\n        /* \"#utility.yul\":3867:3869   */\n      0x60\n        /* \"#utility.yul\":3855:3864   */\n      dup5\n        /* \"#utility.yul\":3846:3853   */\n      dup7\n        /* \"#utility.yul\":3842:3865   */\n      sub\n        /* \"#utility.yul\":3838:3870   */\n      slt\n        /* \"#utility.yul\":3835:3954   */\n      iszero\n      tag_298\n      jumpi\n        /* \"#utility.yul\":3873:3952   */\n      tag_299\n      tag_269\n      jump\t// in\n    tag_299:\n        /* \"#utility.yul\":3835:3954   */\n    tag_298:\n        /* \"#utility.yul\":3993:3994   */\n      0x00\n        /* \"#utility.yul\":4018:4071   */\n      tag_300\n        /* \"#utility.yul\":4063:4070   */\n      dup7\n        /* \"#utility.yul\":4054:4060   */\n      dup3\n        /* \"#utility.yul\":4043:4052   */\n      dup8\n        /* \"#utility.yul\":4039:4061   */\n      add\n        /* \"#utility.yul\":4018:4071   */\n      tag_262\n      jump\t// in\n    tag_300:\n        /* \"#utility.yul\":4008:4071   */\n      swap4\n      pop\n        /* \"#utility.yul\":3964:4081   */\n      pop\n        /* \"#utility.yul\":4120:4122   */\n      0x20\n        /* \"#utility.yul\":4146:4199   */\n      tag_301\n        /* \"#utility.yul\":4191:4198   */\n      dup7\n        /* \"#utility.yul\":4182:4188   */\n      dup3\n        /* \"#utility.yul\":4171:4180   */\n      dup8\n        /* \"#utility.yul\":4167:4189   */\n      add\n        /* \"#utility.yul\":4146:4199   */\n      tag_262\n      jump\t// in\n    tag_301:\n        /* \"#utility.yul\":4136:4199   */\n      swap3\n      pop\n        /* \"#utility.yul\":4091:4209   */\n      pop\n        /* \"#utility.yul\":4248:4250   */\n      0x40\n        /* \"#utility.yul\":4274:4327   */\n      tag_302\n        /* \"#utility.yul\":4319:4326   */\n      dup7\n        /* \"#utility.yul\":4310:4316   */\n      dup3\n        /* \"#utility.yul\":4299:4308   */\n      dup8\n        /* \"#utility.yul\":4295:4317   */\n      add\n        /* \"#utility.yul\":4274:4327   */\n      tag_252\n      jump\t// in\n    tag_302:\n        /* \"#utility.yul\":4264:4327   */\n      swap2\n      pop\n        /* \"#utility.yul\":4219:4337   */\n      pop\n        /* \"#utility.yul\":3725:4344   */\n      swap3\n      pop\n      swap3\n      pop\n      swap3\n      jump\t// out\n        /* \"#utility.yul\":4350:4618   */\n    tag_303:\n        /* \"#utility.yul\":4475:4485   */\n      0x00\n        /* \"#utility.yul\":4510:4612   */\n      tag_305\n        /* \"#utility.yul\":4608:4611   */\n      dup4\n        /* \"#utility.yul\":4600:4606   */\n      dup4\n        /* \"#utility.yul\":4510:4612   */\n      tag_306\n      jump\t// in\n    tag_305:\n        /* \"#utility.yul\":4496:4612   */\n      swap1\n      pop\n        /* \"#utility.yul\":4350:4618   */\n      swap3\n      swap2\n      pop\n      pop\n      jump\t// out\n        /* \"#utility.yul\":4624:4732   */\n    tag_307:\n        /* \"#utility.yul\":4701:4725   */\n      tag_309\n        /* \"#utility.yul\":4719:4724   */\n      dup2\n        /* \"#utility.yul\":4701:4725   */\n      tag_310\n      jump\t// in\n    tag_309:\n        /* \"#utility.yul\":4696:4699   */\n      dup3\n        /* \"#utility.yul\":4689:4726   */\n      mstore\n        /* \"#utility.yul\":4624:4732   */\n      pop\n      pop\n      jump\t// out\n        /* \"#utility.yul\":4738:4856   */\n    tag_311:\n        /* \"#utility.yul\":4825:4849   */\n      tag_313\n        /* \"#utility.yul\":4843:4848   */\n      dup2\n        /* \"#utility.yul\":4825:4849   */\n      tag_310\n      jump\t// in\n    tag_313:\n        /* \"#utility.yul\":4820:4823   */\n      dup3\n        /* \"#utility.yul\":4813:4850   */\n      mstore\n        /* \"#utility.yul\":4738:4856   */\n      pop\n      pop\n      jump\t// out\n        /* \"#utility.yul\":4958:6093   */\n    tag_314:\n        /* \"#utility.yul\":5133:5136   */\n      0x00\n        /* \"#utility.yul\":5162:5244   */\n      tag_316\n        /* \"#utility.yul\":5238:5243   */\n      dup3\n        /* \"#utility.yul\":5162:5244   */\n      tag_317\n      jump\t// in\n    tag_316:\n        /* \"#utility.yul\":5260:5374   */\n      tag_318\n        /* \"#utility.yul\":5367:5373   */\n      dup2\n        /* \"#utility.yul\":5362:5365   */\n      dup6\n        /* \"#utility.yul\":5260:5374   */\n      tag_319\n      jump\t// in\n    tag_318:\n        /* \"#utility.yul\":5253:5374   */\n      swap4\n      pop\n        /* \"#utility.yul\":5400:5403   */\n      dup4\n        /* \"#utility.yul\":5445:5449   */\n      0x20\n        /* \"#utility.yul\":5437:5443   */\n      dup3\n        /* \"#utility.yul\":5433:5450   */\n      mul\n        /* \"#utility.yul\":5428:5431   */\n      dup6\n        /* \"#utility.yul\":5424:5451   */\n      add\n        /* \"#utility.yul\":5475:5559   */\n      tag_320\n        /* \"#utility.yul\":5553:5558   */\n      dup6\n        /* \"#utility.yul\":5475:5559   */\n      tag_321\n      jump\t// in\n    tag_320:\n        /* \"#utility.yul\":5582:5589   */\n      dup1\n        /* \"#utility.yul\":5613:5614   */\n      0x00\n        /* \"#utility.yul\":5598:6048   */\n    tag_322:\n        /* \"#utility.yul\":5623:5629   */\n      dup6\n        /* \"#utility.yul\":5620:5621   */\n      dup2\n        /* \"#utility.yul\":5617:5630   */\n      lt\n        /* \"#utility.yul\":5598:6048   */\n      iszero\n      tag_324\n      jumpi\n        /* \"#utility.yul\":5694:5703   */\n      dup5\n        /* \"#utility.yul\":5688:5692   */\n      dup5\n        /* \"#utility.yul\":5684:5704   */\n      sub\n        /* \"#utility.yul\":5679:5682   */\n      dup10\n        /* \"#utility.yul\":5672:5705   */\n      mstore\n        /* \"#utility.yul\":5745:5751   */\n      dup2\n        /* \"#utility.yul\":5739:5752   */\n      mload\n        /* \"#utility.yul\":5773:5893   */\n      tag_325\n        /* \"#utility.yul\":5888:5892   */\n      dup6\n        /* \"#utility.yul\":5873:5886   */\n      dup3\n        /* \"#utility.yul\":5773:5893   */\n      tag_303\n      jump\t// in\n    tag_325:\n        /* \"#utility.yul\":5765:5893   */\n      swap5\n      pop\n        /* \"#utility.yul\":5916:6004   */\n      tag_326\n        /* \"#utility.yul\":5997:6003   */\n      dup4\n        /* \"#utility.yul\":5916:6004   */\n      tag_327\n      jump\t// in\n    tag_326:\n        /* \"#utility.yul\":5906:6004   */\n      swap3\n      pop\n        /* \"#utility.yul\":6033:6037   */\n      0x20\n        /* \"#utility.yul\":6028:6031   */\n      dup11\n        /* \"#utility.yul\":6024:6038   */\n      add\n        /* \"#utility.yul\":6017:6038   */\n      swap10\n      pop\n        /* \"#utility.yul\":5658:6048   */\n      pop\n        /* \"#utility.yul\":5645:5646   */\n      0x01\n        /* \"#utility.yul\":5642:5643   */\n      dup2\n        /* \"#utility.yul\":5638:5647   */\n      add\n        /* \"#utility.yul\":5633:5647   */\n      swap1\n      pop\n        /* \"#utility.yul\":5598:6048   */\n      jump(tag_322)\n    tag_324:\n        /* \"#utility.yul\":5602:5616   */\n      pop\n        /* \"#utility.yul\":6064:6068   */\n      dup3\n        /* \"#utility.yul\":6057:6068   */\n      swap8\n      pop\n        /* \"#utility.yul\":6084:6087   */\n      dup8\n        /* \"#utility.yul\":6077:6087   */\n      swap6\n      pop\n        /* \"#utility.yul\":5138:6093   */\n      pop\n      pop\n      pop\n      pop\n      pop\n        /* \"#utility.yul\":4958:6093   */\n      swap3\n      swap2\n      pop\n      pop\n      jump\t// out\n        /* \"#utility.yul\":6099:6208   */\n    tag_328:\n        /* \"#utility.yul\":6180:6201   */\n      tag_330\n        /* \"#utility.yul\":6195:6200   */\n      dup2\n        /* \"#utility.yul\":6180:6201   */\n      tag_331\n      jump\t// in\n    tag_330:\n        /* \"#utility.yul\":6175:6178   */\n      dup3\n        /* \"#utility.yul\":6168:6202   */\n      mstore\n        /* \"#utility.yul\":6099:6208   */\n      pop\n      pop\n      jump\t// out\n        /* \"#utility.yul\":6214:6558   */\n    tag_332:\n        /* \"#utility.yul\":6292:6295   */\n      0x00\n        /* \"#utility.yul\":6320:6359   */\n      tag_334\n        /* \"#utility.yul\":6353:6358   */\n      dup3\n        /* \"#utility.yul\":6320:6359   */\n      tag_335\n      jump\t// in\n    tag_334:\n        /* \"#utility.yul\":6375:6436   */\n      tag_336\n        /* \"#utility.yul\":6429:6435   */\n      dup2\n        /* \"#utility.yul\":6424:6427   */\n      dup6\n        /* \"#utility.yul\":6375:6436   */\n      tag_337\n      jump\t// in\n    tag_336:\n        /* \"#utility.yul\":6368:6436   */\n      swap4\n      pop\n        /* \"#utility.yul\":6445:6497   */\n      tag_338\n        /* \"#utility.yul\":6490:6496   */\n      dup2\n        /* \"#utility.yul\":6485:6488   */\n      dup6\n        /* \"#utility.yul\":6478:6482   */\n      0x20\n        /* \"#utility.yul\":6471:6476   */\n      dup7\n        /* \"#utility.yul\":6467:6483   */\n      add\n        /* \"#utility.yul\":6445:6497   */\n      tag_339\n      jump\t// in\n    tag_338:\n        /* \"#utility.yul\":6522:6551   */\n      tag_340\n        /* \"#utility.yul\":6544:6550   */\n      dup2\n        /* \"#utility.yul\":6522:6551   */\n      tag_341\n      jump\t// in\n    tag_340:\n        /* \"#utility.yul\":6517:6520   */\n      dup5\n        /* \"#utility.yul\":6513:6552   */\n      add\n        /* \"#utility.yul\":6506:6552   */\n      swap2\n      pop\n        /* \"#utility.yul\":6296:6558   */\n      pop\n        /* \"#utility.yul\":6214:6558   */\n      swap3\n      swap2\n      pop\n      pop\n      jump\t// out\n        /* \"#utility.yul\":6564:6928   */\n    tag_342:\n        /* \"#utility.yul\":6652:6655   */\n      0x00\n        /* \"#utility.yul\":6680:6719   */\n      tag_344\n        /* \"#utility.yul\":6713:6718   */\n      dup3\n        /* \"#utility.yul\":6680:6719   */\n      tag_335\n      jump\t// in\n    tag_344:\n        /* \"#utility.yul\":6735:6806   */\n      tag_345\n        /* \"#utility.yul\":6799:6805   */\n      dup2\n        /* \"#utility.yul\":6794:6797   */\n      dup6\n        /* \"#utility.yul\":6735:6806   */\n      tag_346\n      jump\t// in\n    tag_345:\n        /* \"#utility.yul\":6728:6806   */\n      swap4\n      pop\n        /* \"#utility.yul\":6815:6867   */\n      tag_347\n        /* \"#utility.yul\":6860:6866   */\n      dup2\n        /* \"#utility.yul\":6855:6858   */\n      dup6\n        /* \"#utility.yul\":6848:6852   */\n      0x20\n        /* \"#utility.yul\":6841:6846   */\n      dup7\n        /* \"#utility.yul\":6837:6853   */\n      add\n        /* \"#utility.yul\":6815:6867   */\n      tag_339\n      jump\t// in\n    tag_347:\n        /* \"#utility.yul\":6892:6921   */\n      tag_348\n        /* \"#utility.yul\":6914:6920   */\n      dup2\n        /* \"#utility.yul\":6892:6921   */\n      tag_341\n      jump\t// in\n    tag_348:\n        /* \"#utility.yul\":6887:6890   */\n      dup5\n        /* \"#utility.yul\":6883:6922   */\n      add\n        /* \"#utility.yul\":6876:6922   */\n      swap2\n      pop\n        /* \"#utility.yul\":6656:6928   */\n      pop\n        /* \"#utility.yul\":6564:6928   */\n      swap3\n      swap2\n      pop\n      pop\n      jump\t// out\n        /* \"#utility.yul\":7026:8702   */\n    tag_306:\n        /* \"#utility.yul\":7141:7144   */\n      0x00\n        /* \"#utility.yul\":7177:7183   */\n      0x0100\n        /* \"#utility.yul\":7172:7175   */\n      dup4\n        /* \"#utility.yul\":7168:7184   */\n      add\n        /* \"#utility.yul\":7265:7269   */\n      0x00\n        /* \"#utility.yul\":7258:7263   */\n      dup4\n        /* \"#utility.yul\":7254:7270   */\n      add\n        /* \"#utility.yul\":7248:7271   */\n      mload\n        /* \"#utility.yul\":7284:7347   */\n      tag_350\n        /* \"#utility.yul\":7341:7345   */\n      0x00\n        /* \"#utility.yul\":7336:7339   */\n      dup7\n        /* \"#utility.yul\":7332:7346   */\n      add\n        /* \"#utility.yul\":7318:7330   */\n      dup3\n        /* \"#utility.yul\":7284:7347   */\n      tag_351\n      jump\t// in\n    tag_350:\n        /* \"#utility.yul\":7194:7357   */\n      pop\n        /* \"#utility.yul\":7440:7444   */\n      0x20\n        /* \"#utility.yul\":7433:7438   */\n      dup4\n        /* \"#utility.yul\":7429:7445   */\n      add\n        /* \"#utility.yul\":7423:7446   */\n      mload\n        /* \"#utility.yul\":7493:7496   */\n      dup5\n        /* \"#utility.yul\":7487:7491   */\n      dup3\n        /* \"#utility.yul\":7483:7497   */\n      sub\n        /* \"#utility.yul\":7476:7480   */\n      0x20\n        /* \"#utility.yul\":7471:7474   */\n      dup7\n        /* \"#utility.yul\":7467:7481   */\n      add\n        /* \"#utility.yul\":7460:7498   */\n      mstore\n        /* \"#utility.yul\":7519:7592   */\n      tag_352\n        /* \"#utility.yul\":7587:7591   */\n      dup3\n        /* \"#utility.yul\":7573:7585   */\n      dup3\n        /* \"#utility.yul\":7519:7592   */\n      tag_332\n      jump\t// in\n    tag_352:\n        /* \"#utility.yul\":7511:7592   */\n      swap2\n      pop\n        /* \"#utility.yul\":7367:7603   */\n      pop\n        /* \"#utility.yul\":7687:7691   */\n      0x40\n        /* \"#utility.yul\":7680:7685   */\n      dup4\n        /* \"#utility.yul\":7676:7692   */\n      add\n        /* \"#utility.yul\":7670:7693   */\n      mload\n        /* \"#utility.yul\":7706:7769   */\n      tag_353\n        /* \"#utility.yul\":7763:7767   */\n      0x40\n        /* \"#utility.yul\":7758:7761   */\n      dup7\n        /* \"#utility.yul\":7754:7768   */\n      add\n        /* \"#utility.yul\":7740:7752   */\n      dup3\n        /* \"#utility.yul\":7706:7769   */\n      tag_351\n      jump\t// in\n    tag_353:\n        /* \"#utility.yul\":7613:7779   */\n      pop\n        /* \"#utility.yul\":7864:7868   */\n      0x60\n        /* \"#utility.yul\":7857:7862   */\n      dup4\n        /* \"#utility.yul\":7853:7869   */\n      add\n        /* \"#utility.yul\":7847:7870   */\n      mload\n        /* \"#utility.yul\":7883:7946   */\n      tag_354\n        /* \"#utility.yul\":7940:7944   */\n      0x60\n        /* \"#utility.yul\":7935:7938   */\n      dup7\n        /* \"#utility.yul\":7931:7945   */\n      add\n        /* \"#utility.yul\":7917:7929   */\n      dup3\n        /* \"#utility.yul\":7883:7946   */\n      tag_307\n      jump\t// in\n    tag_354:\n        /* \"#utility.yul\":7789:7956   */\n      pop\n        /* \"#utility.yul\":8043:8047   */\n      0x80\n        /* \"#utility.yul\":8036:8041   */\n      dup4\n        /* \"#utility.yul\":8032:8048   */\n      add\n        /* \"#utility.yul\":8026:8049   */\n      mload\n        /* \"#utility.yul\":8062:8125   */\n      tag_355\n        /* \"#utility.yul\":8119:8123   */\n      0x80\n        /* \"#utility.yul\":8114:8117   */\n      dup7\n        /* \"#utility.yul\":8110:8124   */\n      add\n        /* \"#utility.yul\":8096:8108   */\n      dup3\n        /* \"#utility.yul\":8062:8125   */\n      tag_307\n      jump\t// in\n    tag_355:\n        /* \"#utility.yul\":7966:8135   */\n      pop\n        /* \"#utility.yul\":8220:8224   */\n      0xa0\n        /* \"#utility.yul\":8213:8218   */\n      dup4\n        /* \"#utility.yul\":8209:8225   */\n      add\n        /* \"#utility.yul\":8203:8226   */\n      mload\n        /* \"#utility.yul\":8239:8302   */\n      tag_356\n        /* \"#utility.yul\":8296:8300   */\n      0xa0\n        /* \"#utility.yul\":8291:8294   */\n      dup7\n        /* \"#utility.yul\":8287:8301   */\n      add\n        /* \"#utility.yul\":8273:8285   */\n      dup3\n        /* \"#utility.yul\":8239:8302   */\n      tag_351\n      jump\t// in\n    tag_356:\n        /* \"#utility.yul\":8145:8312   */\n      pop\n        /* \"#utility.yul\":8401:8405   */\n      0xc0\n        /* \"#utility.yul\":8394:8399   */\n      dup4\n        /* \"#utility.yul\":8390:8406   */\n      add\n        /* \"#utility.yul\":8384:8407   */\n      mload\n        /* \"#utility.yul\":8420:8483   */\n      tag_357\n        /* \"#utility.yul\":8477:8481   */\n      0xc0\n        /* \"#utility.yul\":8472:8475   */\n      dup7\n        /* \"#utility.yul\":8468:8482   */\n      add\n        /* \"#utility.yul\":8454:8466   */\n      dup3\n        /* \"#utility.yul\":8420:8483   */\n      tag_351\n      jump\t// in\n    tag_357:\n        /* \"#utility.yul\":8322:8493   */\n      pop\n        /* \"#utility.yul\":8583:8587   */\n      0xe0\n        /* \"#utility.yul\":8576:8581   */\n      dup4\n        /* \"#utility.yul\":8572:8588   */\n      add\n        /* \"#utility.yul\":8566:8589   */\n      mload\n        /* \"#utility.yul\":8602:8665   */\n      tag_358\n        /* \"#utility.yul\":8659:8663   */\n      0xe0\n        /* \"#utility.yul\":8654:8657   */\n      dup7\n        /* \"#utility.yul\":8650:8664   */\n      add\n        /* \"#utility.yul\":8636:8648   */\n      dup3\n        /* \"#utility.yul\":8602:8665   */\n      tag_351\n      jump\t// in\n    tag_358:\n        /* \"#utility.yul\":8503:8675   */\n      pop\n        /* \"#utility.yul\":8692:8696   */\n      dup1\n        /* \"#utility.yul\":8685:8696   */\n      swap2\n      pop\n        /* \"#utility.yul\":7146:8702   */\n      pop\n        /* \"#utility.yul\":7026:8702   */\n      swap3\n      swap2\n      pop\n      pop\n      jump\t// out\n        /* \"#utility.yul\":8708:8816   */\n    tag_351:\n        /* \"#utility.yul\":8785:8809   */\n      tag_360\n        /* \"#utility.yul\":8803:8808   */\n      dup2\n        /* \"#utility.yul\":8785:8809   */\n      tag_361\n      jump\t// in\n    tag_360:\n        /* \"#utility.yul\":8780:8783   */\n      dup3\n        /* \"#utility.yul\":8773:8810   */\n      mstore\n        /* \"#utility.yul\":8708:8816   */\n      pop\n      pop\n      jump\t// out\n        /* \"#utility.yul\":8822:8940   */\n    tag_362:\n        /* \"#utility.yul\":8909:8933   */\n      tag_364\n        /* \"#utility.yul\":8927:8932   */\n      dup2\n        /* \"#utility.yul\":8909:8933   */\n      tag_361\n      jump\t// in\n    tag_364:\n        /* \"#utility.yul\":8904:8907   */\n      dup3\n        /* \"#utility.yul\":8897:8934   */\n      mstore\n        /* \"#utility.yul\":8822:8940   */\n      pop\n      pop\n      jump\t// out\n        /* \"#utility.yul\":8946:9278   */\n    tag_54:\n        /* \"#utility.yul\":9067:9071   */\n      0x00\n        /* \"#utility.yul\":9105:9107   */\n      0x40\n        /* \"#utility.yul\":9094:9103   */\n      dup3\n        /* \"#utility.yul\":9090:9108   */\n      add\n        /* \"#utility.yul\":9082:9108   */\n      swap1\n      pop\n        /* \"#utility.yul\":9118:9189   */\n      tag_366\n        /* \"#utility.yul\":9186:9187   */\n      0x00\n        /* \"#utility.yul\":9175:9184   */\n      dup4\n        /* \"#utility.yul\":9171:9188   */\n      add\n        /* \"#utility.yul\":9162:9168   */\n      dup6\n        /* \"#utility.yul\":9118:9189   */\n      tag_311\n      jump\t// in\n    tag_366:\n        /* \"#utility.yul\":9199:9271   */\n      tag_367\n        /* \"#utility.yul\":9267:9269   */\n      0x20\n        /* \"#utility.yul\":9256:9265   */\n      dup4\n        /* \"#utility.yul\":9252:9270   */\n      add\n        /* \"#utility.yul\":9243:9249   */\n      dup5\n        /* \"#utility.yul\":9199:9271   */\n      tag_311\n      jump\t// in\n    tag_367:\n        /* \"#utility.yul\":8946:9278   */\n      swap4\n      swap3\n      pop\n      pop\n      pop\n      jump\t// out\n        /* \"#utility.yul\":9284:9769   */\n    tag_19:\n        /* \"#utility.yul\":9483:9487   */\n      0x00\n        /* \"#utility.yul\":9521:9523   */\n      0x20\n        /* \"#utility.yul\":9510:9519   */\n      dup3\n        /* \"#utility.yul\":9506:9524   */\n      add\n        /* \"#utility.yul\":9498:9524   */\n      swap1\n      pop\n        /* \"#utility.yul\":9570:9579   */\n      dup2\n        /* \"#utility.yul\":9564:9568   */\n      dup2\n        /* \"#utility.yul\":9560:9580   */\n      sub\n        /* \"#utility.yul\":9556:9557   */\n      0x00\n        /* \"#utility.yul\":9545:9554   */\n      dup4\n        /* \"#utility.yul\":9541:9558   */\n      add\n        /* \"#utility.yul\":9534:9581   */\n      mstore\n        /* \"#utility.yul\":9598:9762   */\n      tag_369\n        /* \"#utility.yul\":9757:9761   */\n      dup2\n        /* \"#utility.yul\":9748:9754   */\n      dup5\n        /* \"#utility.yul\":9598:9762   */\n      tag_314\n      jump\t// in\n    tag_369:\n        /* \"#utility.yul\":9590:9762   */\n      swap1\n      pop\n        /* \"#utility.yul\":9284:9769   */\n      swap3\n      swap2\n      pop\n      pop\n      jump\t// out\n        /* \"#utility.yul\":9775:9985   */\n    tag_49:\n        /* \"#utility.yul\":9862:9866   */\n      0x00\n        /* \"#utility.yul\":9900:9902   */\n      0x20\n        /* \"#utility.yul\":9889:9898   */\n      dup3\n        /* \"#utility.yul\":9885:9903   */\n      add\n        /* \"#utility.yul\":9877:9903   */\n      swap1\n      pop\n        /* \"#utility.yul\":9913:9978   */\n      tag_371\n        /* \"#utility.yul\":9975:9976   */\n      0x00\n        /* \"#utility.yul\":9964:9973   */\n      dup4\n        /* \"#utility.yul\":9960:9977   */\n      add\n        /* \"#utility.yul\":9951:9957   */\n      dup5\n        /* \"#utility.yul\":9913:9978   */\n      tag_328\n      jump\t// in\n    tag_371:\n        /* \"#utility.yul\":9775:9985   */\n      swap3\n      swap2\n      pop\n      pop\n      jump\t// out\n        /* \"#utility.yul\":9991:10213   */\n    tag_60:\n        /* \"#utility.yul\":10084:10088   */\n      0x00\n        /* \"#utility.yul\":10122:10124   */\n      0x20\n        /* \"#utility.yul\":10111:10120   */\n      dup3\n        /* \"#utility.yul\":10107:10125   */\n      add\n        /* \"#utility.yul\":10099:10125   */\n      swap1\n      pop\n        /* \"#utility.yul\":10135:10206   */\n      tag_373\n        /* \"#utility.yul\":10203:10204   */\n      0x00\n        /* \"#utility.yul\":10192:10201   */\n      dup4\n        /* \"#utility.yul\":10188:10205   */\n      add\n        /* \"#utility.yul\":10179:10185   */\n      dup5\n        /* \"#utility.yul\":10135:10206   */\n      tag_362\n      jump\t// in\n    tag_373:\n        /* \"#utility.yul\":9991:10213   */\n      swap3\n      swap2\n      pop\n      pop\n      jump\t// out\n        /* \"#utility.yul\":10219:11307   */\n    tag_36:\n        /* \"#utility.yul\":10528:10532   */\n      0x00\n        /* \"#utility.yul\":10566:10569   */\n      0x0100\n        /* \"#utility.yul\":10555:10564   */\n      dup3\n        /* \"#utility.yul\":10551:10570   */\n      add\n        /* \"#utility.yul\":10543:10570   */\n      swap1\n      pop\n        /* \"#utility.yul\":10580:10651   */\n      tag_375\n        /* \"#utility.yul\":10648:10649   */\n      0x00\n        /* \"#utility.yul\":10637:10646   */\n      dup4\n        /* \"#utility.yul\":10633:10650   */\n      add\n        /* \"#utility.yul\":10624:10630   */\n      dup12\n        /* \"#utility.yul\":10580:10651   */\n      tag_362\n      jump\t// in\n    tag_375:\n        /* \"#utility.yul\":10698:10707   */\n      dup2\n        /* \"#utility.yul\":10692:10696   */\n      dup2\n        /* \"#utility.yul\":10688:10708   */\n      sub\n        /* \"#utility.yul\":10683:10685   */\n      0x20\n        /* \"#utility.yul\":10672:10681   */\n      dup4\n        /* \"#utility.yul\":10668:10686   */\n      add\n        /* \"#utility.yul\":10661:10709   */\n      mstore\n        /* \"#utility.yul\":10726:10804   */\n      tag_376\n        /* \"#utility.yul\":10799:10803   */\n      dup2\n        /* \"#utility.yul\":10790:10796   */\n      dup11\n        /* \"#utility.yul\":10726:10804   */\n      tag_342\n      jump\t// in\n    tag_376:\n        /* \"#utility.yul\":10718:10804   */\n      swap1\n      pop\n        /* \"#utility.yul\":10814:10886   */\n      tag_377\n        /* \"#utility.yul\":10882:10884   */\n      0x40\n        /* \"#utility.yul\":10871:10880   */\n      dup4\n        /* \"#utility.yul\":10867:10885   */\n      add\n        /* \"#utility.yul\":10858:10864   */\n      dup10\n        /* \"#utility.yul\":10814:10886   */\n      tag_362\n      jump\t// in\n    tag_377:\n        /* \"#utility.yul\":10896:10968   */\n      tag_378\n        /* \"#utility.yul\":10964:10966   */\n      0x60\n        /* \"#utility.yul\":10953:10962   */\n      dup4\n        /* \"#utility.yul\":10949:10967   */\n      add\n        /* \"#utility.yul\":10940:10946   */\n      dup9\n        /* \"#utility.yul\":10896:10968   */\n      tag_311\n      jump\t// in\n    tag_378:\n        /* \"#utility.yul\":10978:11051   */\n      tag_379\n        /* \"#utility.yul\":11046:11049   */\n      0x80\n        /* \"#utility.yul\":11035:11044   */\n      dup4\n        /* \"#utility.yul\":11031:11050   */\n      add\n        /* \"#utility.yul\":11022:11028   */\n      dup8\n        /* \"#utility.yul\":10978:11051   */\n      tag_311\n      jump\t// in\n    tag_379:\n        /* \"#utility.yul\":11061:11134   */\n      tag_380\n        /* \"#utility.yul\":11129:11132   */\n      0xa0\n        /* \"#utility.yul\":11118:11127   */\n      dup4\n        /* \"#utility.yul\":11114:11133   */\n      add\n        /* \"#utility.yul\":11105:11111   */\n      dup7\n        /* \"#utility.yul\":11061:11134   */\n      tag_362\n      jump\t// in\n    tag_380:\n        /* \"#utility.yul\":11144:11217   */\n      tag_381\n        /* \"#utility.yul\":11212:11215   */\n      0xc0\n        /* \"#utility.yul\":11201:11210   */\n      dup4\n        /* \"#utility.yul\":11197:11216   */\n      add\n        /* \"#utility.yul\":11188:11194   */\n      dup6\n        /* \"#utility.yul\":11144:11217   */\n      tag_362\n      jump\t// in\n    tag_381:\n        /* \"#utility.yul\":11227:11300   */\n      tag_382\n        /* \"#utility.yul\":11295:11298   */\n      0xe0\n        /* \"#utility.yul\":11284:11293   */\n      dup4\n        /* \"#utility.yul\":11280:11299   */\n      add\n        /* \"#utility.yul\":11271:11277   */\n      dup5\n        /* \"#utility.yul\":11227:11300   */\n      tag_362\n      jump\t// in\n    tag_382:\n        /* \"#utility.yul\":10219:11307   */\n      swap10\n      swap9\n      pop\n      pop\n      pop\n      pop\n      pop\n      pop\n      pop\n      pop\n      pop\n      jump\t// out\n        /* \"#utility.yul\":11313:11442   */\n    tag_246:\n        /* \"#utility.yul\":11347:11353   */\n      0x00\n        /* \"#utility.yul\":11374:11394   */\n      tag_384\n      tag_385\n      jump\t// in\n    tag_384:\n        /* \"#utility.yul\":11364:11394   */\n      swap1\n      pop\n        /* \"#utility.yul\":11403:11436   */\n      tag_386\n        /* \"#utility.yul\":11431:11435   */\n      dup3\n        /* \"#utility.yul\":11423:11429   */\n      dup3\n        /* \"#utility.yul\":11403:11436   */\n      tag_387\n      jump\t// in\n    tag_386:\n        /* \"#utility.yul\":11313:11442   */\n      swap2\n      swap1\n      pop\n      jump\t// out\n        /* \"#utility.yul\":11448:11523   */\n    tag_385:\n        /* \"#utility.yul\":11481:11487   */\n      0x00\n        /* \"#utility.yul\":11514:11516   */\n      0x40\n        /* \"#utility.yul\":11508:11517   */\n      mload\n        /* \"#utility.yul\":11498:11517   */\n      swap1\n      pop\n        /* \"#utility.yul\":11448:11523   */\n      swap1\n      jump\t// out\n        /* \"#utility.yul\":11529:11837   */\n    tag_245:\n        /* \"#utility.yul\":11591:11595   */\n      0x00\n        /* \"#utility.yul\":11681:11699   */\n      0xffffffffffffffff\n        /* \"#utility.yul\":11673:11679   */\n      dup3\n        /* \"#utility.yul\":11670:11700   */\n      gt\n        /* \"#utility.yul\":11667:11723   */\n      iszero\n      tag_390\n      jumpi\n        /* \"#utility.yul\":11703:11721   */\n      tag_391\n      tag_392\n      jump\t// in\n    tag_391:\n        /* \"#utility.yul\":11667:11723   */\n    tag_390:\n        /* \"#utility.yul\":11741:11770   */\n      tag_393\n        /* \"#utility.yul\":11763:11769   */\n      dup3\n        /* \"#utility.yul\":11741:11770   */\n      tag_341\n      jump\t// in\n    tag_393:\n        /* \"#utility.yul\":11733:11770   */\n      swap1\n      pop\n        /* \"#utility.yul\":11825:11829   */\n      0x20\n        /* \"#utility.yul\":11819:11823   */\n      dup2\n        /* \"#utility.yul\":11815:11830   */\n      add\n        /* \"#utility.yul\":11807:11830   */\n      swap1\n      pop\n        /* \"#utility.yul\":11529:11837   */\n      swap2\n      swap1\n      pop\n      jump\t// out\n        /* \"#utility.yul\":11843:12003   */\n    tag_321:\n        /* \"#utility.yul\":11938:11942   */\n      0x00\n        /* \"#utility.yul\":11961:11964   */\n      dup2\n        /* \"#utility.yul\":11953:11964   */\n      swap1\n      pop\n        /* \"#utility.yul\":11991:11995   */\n      0x20\n        /* \"#utility.yul\":11986:11989   */\n      dup3\n        /* \"#utility.yul\":11982:11996   */\n      add\n        /* \"#utility.yul\":11974:11996   */\n      swap1\n      pop\n        /* \"#utility.yul\":11843:12003   */\n      swap2\n      swap1\n      pop\n      jump\t// out\n        /* \"#utility.yul\":12009:12151   */\n    tag_317:\n        /* \"#utility.yul\":12104:12110   */\n      0x00\n        /* \"#utility.yul\":12138:12143   */\n      dup2\n        /* \"#utility.yul\":12132:12144   */\n      mload\n        /* \"#utility.yul\":12122:12144   */\n      swap1\n      pop\n        /* \"#utility.yul\":12009:12151   */\n      swap2\n      swap1\n      pop\n      jump\t// out\n        /* \"#utility.yul\":12157:12256   */\n    tag_335:\n        /* \"#utility.yul\":12209:12215   */\n      0x00\n        /* \"#utility.yul\":12243:12248   */\n      dup2\n        /* \"#utility.yul\":12237:12249   */\n      mload\n        /* \"#utility.yul\":12227:12249   */\n      swap1\n      pop\n        /* \"#utility.yul\":12157:12256   */\n      swap2\n      swap1\n      pop\n      jump\t// out\n        /* \"#utility.yul\":12262:12403   */\n    tag_327:\n        /* \"#utility.yul\":12360:12364   */\n      0x00\n        /* \"#utility.yul\":12392:12396   */\n      0x20\n        /* \"#utility.yul\":12387:12390   */\n      dup3\n        /* \"#utility.yul\":12383:12397   */\n      add\n        /* \"#utility.yul\":12375:12397   */\n      swap1\n      pop\n        /* \"#utility.yul\":12262:12403   */\n      swap2\n      swap1\n      pop\n      jump\t// out\n        /* \"#utility.yul\":12409:12621   */\n    tag_319:\n        /* \"#utility.yul\":12536:12547   */\n      0x00\n        /* \"#utility.yul\":12570:12576   */\n      dup3\n        /* \"#utility.yul\":12565:12568   */\n      dup3\n        /* \"#utility.yul\":12558:12577   */\n      mstore\n        /* \"#utility.yul\":12610:12614   */\n      0x20\n        /* \"#utility.yul\":12605:12608   */\n      dup3\n        /* \"#utility.yul\":12601:12615   */\n      add\n        /* \"#utility.yul\":12586:12615   */\n      swap1\n      pop\n        /* \"#utility.yul\":12409:12621   */\n      swap3\n      swap2\n      pop\n      pop\n      jump\t// out\n        /* \"#utility.yul\":12627:12786   */\n    tag_337:\n        /* \"#utility.yul\":12701:12712   */\n      0x00\n        /* \"#utility.yul\":12735:12741   */\n      dup3\n        /* \"#utility.yul\":12730:12733   */\n      dup3\n        /* \"#utility.yul\":12723:12742   */\n      mstore\n        /* \"#utility.yul\":12775:12779   */\n      0x20\n        /* \"#utility.yul\":12770:12773   */\n      dup3\n        /* \"#utility.yul\":12766:12780   */\n      add\n        /* \"#utility.yul\":12751:12780   */\n      swap1\n      pop\n        /* \"#utility.yul\":12627:12786   */\n      swap3\n      swap2\n      pop\n      pop\n      jump\t// out\n        /* \"#utility.yul\":12792:12961   */\n    tag_346:\n        /* \"#utility.yul\":12876:12887   */\n      0x00\n        /* \"#utility.yul\":12910:12916   */\n      dup3\n        /* \"#utility.yul\":12905:12908   */\n      dup3\n        /* \"#utility.yul\":12898:12917   */\n      mstore\n        /* \"#utility.yul\":12950:12954   */\n      0x20\n        /* \"#utility.yul\":12945:12948   */\n      dup3\n        /* \"#utility.yul\":12941:12955   */\n      add\n        /* \"#utility.yul\":12926:12955   */\n      swap1\n      pop\n        /* \"#utility.yul\":12792:12961   */\n      swap3\n      swap2\n      pop\n      pop\n      jump\t// out\n        /* \"#utility.yul\":12967:13272   */\n    tag_97:\n        /* \"#utility.yul\":13007:13010   */\n      0x00\n        /* \"#utility.yul\":13026:13046   */\n      tag_402\n        /* \"#utility.yul\":13044:13045   */\n      dup3\n        /* \"#utility.yul\":13026:13046   */\n      tag_361\n      jump\t// in\n    tag_402:\n        /* \"#utility.yul\":13021:13046   */\n      swap2\n      pop\n        /* \"#utility.yul\":13060:13080   */\n      tag_403\n        /* \"#utility.yul\":13078:13079   */\n      dup4\n        /* \"#utility.yul\":13060:13080   */\n      tag_361\n      jump\t// in\n    tag_403:\n        /* \"#utility.yul\":13055:13080   */\n      swap3\n      pop\n        /* \"#utility.yul\":13214:13215   */\n      dup3\n        /* \"#utility.yul\":13146:13212   */\n      0xffffffffffffffffffffffffffffffffffffffffffffffffffffffffffffffff\n        /* \"#utility.yul\":13142:13216   */\n      sub\n        /* \"#utility.yul\":13139:13140   */\n      dup3\n        /* \"#utility.yul\":13136:13217   */\n      gt\n        /* \"#utility.yul\":13133:13240   */\n      iszero\n      tag_404\n      jumpi\n        /* \"#utility.yul\":13220:13238   */\n      tag_405\n      tag_406\n      jump\t// in\n    tag_405:\n        /* \"#utility.yul\":13133:13240   */\n    tag_404:\n        /* \"#utility.yul\":13264:13265   */\n      dup3\n        /* \"#utility.yul\":13261:13262   */\n      dup3\n        /* \"#utility.yul\":13257:13266   */\n      add\n        /* \"#utility.yul\":13250:13266   */\n      swap1\n      pop\n        /* \"#utility.yul\":12967:13272   */\n      swap3\n      swap2\n      pop\n      pop\n      jump\t// out\n        /* \"#utility.yul\":13278:13626   */\n    tag_216:\n        /* \"#utility.yul\":13318:13325   */\n      0x00\n        /* \"#utility.yul\":13341:13361   */\n      tag_408\n        /* \"#utility.yul\":13359:13360   */\n      dup3\n        /* \"#utility.yul\":13341:13361   */\n      tag_361\n      jump\t// in\n    tag_408:\n        /* \"#utility.yul\":13336:13361   */\n      swap2\n      pop\n        /* \"#utility.yul\":13375:13395   */\n      tag_409\n        /* \"#utility.yul\":13393:13394   */\n      dup4\n        /* \"#utility.yul\":13375:13395   */\n      tag_361\n      jump\t// in\n    tag_409:\n        /* \"#utility.yul\":13370:13395   */\n      swap3\n      pop\n        /* \"#utility.yul\":13563:13564   */\n      dup2\n        /* \"#utility.yul\":13495:13561   */\n      0xffffffffffffffffffffffffffffffffffffffffffffffffffffffffffffffff\n        /* \"#utility.yul\":13491:13565   */\n      div\n        /* \"#utility.yul\":13488:13489   */\n      dup4\n        /* \"#utility.yul\":13485:13566   */\n      gt\n        /* \"#utility.yul\":13480:13481   */\n      dup3\n        /* \"#utility.yul\":13473:13482   */\n      iszero\n        /* \"#utility.yul\":13466:13483   */\n      iszero\n        /* \"#utility.yul\":13462:13567   */\n      and\n        /* \"#utility.yul\":13459:13590   */\n      iszero\n      tag_410\n      jumpi\n        /* \"#utility.yul\":13570:13588   */\n      tag_411\n      tag_406\n      jump\t// in\n    tag_411:\n        /* \"#utility.yul\":13459:13590   */\n    tag_410:\n        /* \"#utility.yul\":13618:13619   */\n      dup3\n        /* \"#utility.yul\":13615:13616   */\n      dup3\n        /* \"#utility.yul\":13611:13620   */\n      mul\n        /* \"#utility.yul\":13600:13620   */\n      swap1\n      pop\n        /* \"#utility.yul\":13278:13626   */\n      swap3\n      swap2\n      pop\n      pop\n      jump\t// out\n        /* \"#utility.yul\":13632:13823   */\n    tag_73:\n        /* \"#utility.yul\":13672:13676   */\n      0x00\n        /* \"#utility.yul\":13692:13712   */\n      tag_413\n        /* \"#utility.yul\":13710:13711   */\n      dup3\n        /* \"#utility.yul\":13692:13712   */\n      tag_361\n      jump\t// in\n    tag_413:\n        /* \"#utility.yul\":13687:13712   */\n      swap2\n      pop\n        /* \"#utility.yul\":13726:13746   */\n      tag_414\n        /* \"#utility.yul\":13744:13745   */\n      dup4\n        /* \"#utility.yul\":13726:13746   */\n      tag_361\n      jump\t// in\n    tag_414:\n        /* \"#utility.yul\":13721:13746   */\n      swap3\n      pop\n        /* \"#utility.yul\":13765:13766   */\n      dup3\n        /* \"#utility.yul\":13762:13763   */\n      dup3\n        /* \"#utility.yul\":13759:13767   */\n      lt\n        /* \"#utility.yul\":13756:13790   */\n      iszero\n      tag_415\n      jumpi\n        /* \"#utility.yul\":13770:13788   */\n      tag_416\n      tag_406\n      jump\t// in\n    tag_416:\n        /* \"#utility.yul\":13756:13790   */\n    tag_415:\n        /* \"#utility.yul\":13815:13816   */\n      dup3\n        /* \"#utility.yul\":13812:13813   */\n      dup3\n        /* \"#utility.yul\":13808:13817   */\n      sub\n        /* \"#utility.yul\":13800:13817   */\n      swap1\n      pop\n        /* \"#utility.yul\":13632:13823   */\n      swap3\n      swap2\n      pop\n      pop\n      jump\t// out\n        /* \"#utility.yul\":13829:13925   */\n    tag_310:\n        /* \"#utility.yul\":13866:13873   */\n      0x00\n        /* \"#utility.yul\":13895:13919   */\n      tag_418\n        /* \"#utility.yul\":13913:13918   */\n      dup3\n        /* \"#utility.yul\":13895:13919   */\n      tag_419\n      jump\t// in\n    tag_418:\n        /* \"#utility.yul\":13884:13919   */\n      swap1\n      pop\n        /* \"#utility.yul\":13829:13925   */\n      swap2\n      swap1\n      pop\n      jump\t// out\n        /* \"#utility.yul\":13931:14021   */\n    tag_331:\n        /* \"#utility.yul\":13965:13972   */\n      0x00\n        /* \"#utility.yul\":14008:14013   */\n      dup2\n        /* \"#utility.yul\":14001:14014   */\n      iszero\n        /* \"#utility.yul\":13994:14015   */\n      iszero\n        /* \"#utility.yul\":13983:14015   */\n      swap1\n      pop\n        /* \"#utility.yul\":13931:14021   */\n      swap2\n      swap1\n      pop\n      jump\t// out\n        /* \"#utility.yul\":14027:14153   */\n    tag_419:\n        /* \"#utility.yul\":14064:14071   */\n      0x00\n        /* \"#utility.yul\":14104:14146   */\n      0xffffffffffffffffffffffffffffffffffffffff\n        /* \"#utility.yul\":14097:14102   */\n      dup3\n        /* \"#utility.yul\":14093:14147   */\n      and\n        /* \"#utility.yul\":14082:14147   */\n      swap1\n      pop\n        /* \"#utility.yul\":14027:14153   */\n      swap2\n      swap1\n      pop\n      jump\t// out\n        /* \"#utility.yul\":14159:14236   */\n    tag_361:\n        /* \"#utility.yul\":14196:14203   */\n      0x00\n        /* \"#utility.yul\":14225:14230   */\n      dup2\n        /* \"#utility.yul\":14214:14230   */\n      swap1\n      pop\n        /* \"#utility.yul\":14159:14236   */\n      swap2\n      swap1\n      pop\n      jump\t// out\n        /* \"#utility.yul\":14242:14396   */\n    tag_251:\n        /* \"#utility.yul\":14326:14332   */\n      dup3\n        /* \"#utility.yul\":14321:14324   */\n      dup2\n        /* \"#utility.yul\":14316:14319   */\n      dup4\n        /* \"#utility.yul\":14303:14333   */\n      calldatacopy\n        /* \"#utility.yul\":14388:14389   */\n      0x00\n        /* \"#utility.yul\":14379:14385   */\n      dup4\n        /* \"#utility.yul\":14374:14377   */\n      dup4\n        /* \"#utility.yul\":14370:14386   */\n      add\n        /* \"#utility.yul\":14363:14390   */\n      mstore\n        /* \"#utility.yul\":14242:14396   */\n      pop\n      pop\n      pop\n      jump\t// out\n        /* \"#utility.yul\":14402:14709   */\n    tag_339:\n        /* \"#utility.yul\":14470:14471   */\n      0x00\n        /* \"#utility.yul\":14480:14593   */\n    tag_425:\n        /* \"#utility.yul\":14494:14500   */\n      dup4\n        /* \"#utility.yul\":14491:14492   */\n      dup2\n        /* \"#utility.yul\":14488:14501   */\n      lt\n        /* \"#utility.yul\":14480:14593   */\n      iszero\n      tag_427\n      jumpi\n        /* \"#utility.yul\":14579:14580   */\n      dup1\n        /* \"#utility.yul\":14574:14577   */\n      dup3\n        /* \"#utility.yul\":14570:14581   */\n      add\n        /* \"#utility.yul\":14564:14582   */\n      mload\n        /* \"#utility.yul\":14560:14561   */\n      dup2\n        /* \"#utility.yul\":14555:14558   */\n      dup5\n        /* \"#utility.yul\":14551:14562   */\n      add\n        /* \"#utility.yul\":14544:14583   */\n      mstore\n        /* \"#utility.yul\":14516:14518   */\n      0x20\n        /* \"#utility.yul\":14513:14514   */\n      dup2\n        /* \"#utility.yul\":14509:14519   */\n      add\n        /* \"#utility.yul\":14504:14519   */\n      swap1\n      pop\n        /* \"#utility.yul\":14480:14593   */\n      jump(tag_425)\n    tag_427:\n        /* \"#utility.yul\":14611:14617   */\n      dup4\n        /* \"#utility.yul\":14608:14609   */\n      dup2\n        /* \"#utility.yul\":14605:14618   */\n      gt\n        /* \"#utility.yul\":14602:14703   */\n      iszero\n      tag_428\n      jumpi\n        /* \"#utility.yul\":14691:14692   */\n      0x00\n        /* \"#utility.yul\":14682:14688   */\n      dup5\n        /* \"#utility.yul\":14677:14680   */\n      dup5\n        /* \"#utility.yul\":14673:14689   */\n      add\n        /* \"#utility.yul\":14666:14693   */\n      mstore\n        /* \"#utility.yul\":14602:14703   */\n    tag_428:\n        /* \"#utility.yul\":14451:14709   */\n      pop\n        /* \"#utility.yul\":14402:14709   */\n      pop\n      pop\n      pop\n      jump\t// out\n        /* \"#utility.yul\":14715:15035   */\n    tag_66:\n        /* \"#utility.yul\":14759:14765   */\n      0x00\n        /* \"#utility.yul\":14796:14797   */\n      0x02\n        /* \"#utility.yul\":14790:14794   */\n      dup3\n        /* \"#utility.yul\":14786:14798   */\n      div\n        /* \"#utility.yul\":14776:14798   */\n      swap1\n      pop\n        /* \"#utility.yul\":14843:14844   */\n      0x01\n        /* \"#utility.yul\":14837:14841   */\n      dup3\n        /* \"#utility.yul\":14833:14845   */\n      and\n        /* \"#utility.yul\":14864:14882   */\n      dup1\n        /* \"#utility.yul\":14854:14935   */\n      tag_430\n      jumpi\n        /* \"#utility.yul\":14920:14924   */\n      0x7f\n        /* \"#utility.yul\":14912:14918   */\n      dup3\n        /* \"#utility.yul\":14908:14925   */\n      and\n        /* \"#utility.yul\":14898:14925   */\n      swap2\n      pop\n        /* \"#utility.yul\":14854:14935   */\n    tag_430:\n        /* \"#utility.yul\":14982:14984   */\n      0x20\n        /* \"#utility.yul\":14974:14980   */\n      dup3\n        /* \"#utility.yul\":14971:14985   */\n      lt\n        /* \"#utility.yul\":14951:14969   */\n      dup2\n        /* \"#utility.yul\":14948:14986   */\n      eq\n        /* \"#utility.yul\":14945:15029   */\n      iszero\n      tag_431\n      jumpi\n        /* \"#utility.yul\":15001:15019   */\n      tag_432\n      tag_433\n      jump\t// in\n    tag_432:\n        /* \"#utility.yul\":14945:15029   */\n    tag_431:\n        /* \"#utility.yul\":14766:15035   */\n      pop\n        /* \"#utility.yul\":14715:15035   */\n      swap2\n      swap1\n      pop\n      jump\t// out\n        /* \"#utility.yul\":15041:15322   */\n    tag_387:\n        /* \"#utility.yul\":15124:15151   */\n      tag_435\n        /* \"#utility.yul\":15146:15150   */\n      dup3\n        /* \"#utility.yul\":15124:15151   */\n      tag_341\n      jump\t// in\n    tag_435:\n        /* \"#utility.yul\":15116:15122   */\n      dup2\n        /* \"#utility.yul\":15112:15152   */\n      add\n        /* \"#utility.yul\":15254:15260   */\n      dup2\n        /* \"#utility.yul\":15242:15252   */\n      dup2\n        /* \"#utility.yul\":15239:15261   */\n      lt\n        /* \"#utility.yul\":15218:15236   */\n      0xffffffffffffffff\n        /* \"#utility.yul\":15206:15216   */\n      dup3\n        /* \"#utility.yul\":15203:15237   */\n      gt\n        /* \"#utility.yul\":15200:15262   */\n      or\n        /* \"#utility.yul\":15197:15285   */\n      iszero\n      tag_436\n      jumpi\n        /* \"#utility.yul\":15265:15283   */\n      tag_437\n      tag_392\n      jump\t// in\n    tag_437:\n        /* \"#utility.yul\":15197:15285   */\n    tag_436:\n        /* \"#utility.yul\":15305:15315   */\n      dup1\n        /* \"#utility.yul\":15301:15303   */\n      0x40\n        /* \"#utility.yul\":15294:15316   */\n      mstore\n        /* \"#utility.yul\":15084:15322   */\n      pop\n        /* \"#utility.yul\":15041:15322   */\n      pop\n      pop\n      jump\t// out\n        /* \"#utility.yul\":15328:15561   */\n    tag_90:\n        /* \"#utility.yul\":15367:15370   */\n      0x00\n        /* \"#utility.yul\":15390:15414   */\n      tag_439\n        /* \"#utility.yul\":15408:15413   */\n      dup3\n        /* \"#utility.yul\":15390:15414   */\n      tag_361\n      jump\t// in\n    tag_439:\n        /* \"#utility.yul\":15381:15414   */\n      swap2\n      pop\n        /* \"#utility.yul\":15436:15502   */\n      0xffffffffffffffffffffffffffffffffffffffffffffffffffffffffffffffff\n        /* \"#utility.yul\":15429:15434   */\n      dup3\n        /* \"#utility.yul\":15426:15503   */\n      eq\n        /* \"#utility.yul\":15423:15526   */\n      iszero\n      tag_440\n      jumpi\n        /* \"#utility.yul\":15506:15524   */\n      tag_441\n      tag_406\n      jump\t// in\n    tag_441:\n        /* \"#utility.yul\":15423:15526   */\n    tag_440:\n        /* \"#utility.yul\":15553:15554   */\n      0x01\n        /* \"#utility.yul\":15546:15551   */\n      dup3\n        /* \"#utility.yul\":15542:15555   */\n      add\n        /* \"#utility.yul\":15535:15555   */\n      swap1\n      pop\n        /* \"#utility.yul\":15328:15561   */\n      swap2\n      swap1\n      pop\n      jump\t// out\n        /* \"#utility.yul\":15567:15747   */\n    tag_406:\n        /* \"#utility.yul\":15615:15692   */\n      0x4e487b7100000000000000000000000000000000000000000000000000000000\n        /* \"#utility.yul\":15612:15613   */\n      0x00\n        /* \"#utility.yul\":15605:15693   */\n      mstore\n        /* \"#utility.yul\":15712:15716   */\n      0x11\n        /* \"#utility.yul\":15709:15710   */\n      0x04\n        /* \"#utility.yul\":15702:15717   */\n      mstore\n        /* \"#utility.yul\":15736:15740   */\n      0x24\n        /* \"#utility.yul\":15733:15734   */\n      0x00\n        /* \"#utility.yul\":15726:15741   */\n      revert\n        /* \"#utility.yul\":15753:15933   */\n    tag_433:\n        /* \"#utility.yul\":15801:15878   */\n      0x4e487b7100000000000000000000000000000000000000000000000000000000\n        /* \"#utility.yul\":15798:15799   */\n      0x00\n        /* \"#utility.yul\":15791:15879   */\n      mstore\n        /* \"#utility.yul\":15898:15902   */\n      0x22\n        /* \"#utility.yul\":15895:15896   */\n      0x04\n        /* \"#utility.yul\":15888:15903   */\n      mstore\n        /* \"#utility.yul\":15922:15926   */\n      0x24\n        /* \"#utility.yul\":15919:15920   */\n      0x00\n        /* \"#utility.yul\":15912:15927   */\n      revert\n        /* \"#utility.yul\":15939:16119   */\n    tag_136:\n        /* \"#utility.yul\":15987:16064   */\n      0x4e487b7100000000000000000000000000000000000000000000000000000000\n        /* \"#utility.yul\":15984:15985   */\n      0x00\n        /* \"#utility.yul\":15977:16065   */\n      mstore\n        /* \"#utility.yul\":16084:16088   */\n      0x31\n        /* \"#utility.yul\":16081:16082   */\n      0x04\n        /* \"#utility.yul\":16074:16089   */\n      mstore\n        /* \"#utility.yul\":16108:16112   */\n      0x24\n        /* \"#utility.yul\":16105:16106   */\n      0x00\n        /* \"#utility.yul\":16098:16113   */\n      revert\n        /* \"#utility.yul\":16125:16305   */\n    tag_76:\n        /* \"#utility.yul\":16173:16250   */\n      0x4e487b7100000000000000000000000000000000000000000000000000000000\n        /* \"#utility.yul\":16170:16171   */\n      0x00\n        /* \"#utility.yul\":16163:16251   */\n      mstore\n        /* \"#utility.yul\":16270:16274   */\n      0x32\n        /* \"#utility.yul\":16267:16268   */\n      0x04\n        /* \"#utility.yul\":16260:16275   */\n      mstore\n        /* \"#utility.yul\":16294:16298   */\n      0x24\n        /* \"#utility.yul\":16291:16292   */\n      0x00\n        /* \"#utility.yul\":16284:16299   */\n      revert\n        /* \"#utility.yul\":16311:16491   */\n    tag_392:\n        /* \"#utility.yul\":16359:16436   */\n      0x4e487b7100000000000000000000000000000000000000000000000000000000\n        /* \"#utility.yul\":16356:16357   */\n      0x00\n        /* \"#utility.yul\":16349:16437   */\n      mstore\n        /* \"#utility.yul\":16456:16460   */\n      0x41\n        /* \"#utility.yul\":16453:16454   */\n      0x04\n        /* \"#utility.yul\":16446:16461   */\n      mstore\n        /* \"#utility.yul\":16480:16484   */\n      0x24\n        /* \"#utility.yul\":16477:16478   */\n      0x00\n        /* \"#utility.yul\":16470:16485   */\n      revert\n        /* \"#utility.yul\":16497:16614   */\n    tag_260:\n        /* \"#utility.yul\":16606:16607   */\n      0x00\n        /* \"#utility.yul\":16603:16604   */\n      dup1\n        /* \"#utility.yul\":16596:16608   */\n      revert\n        /* \"#utility.yul\":16620:16737   */\n    tag_249:\n        /* \"#utility.yul\":16729:16730   */\n      0x00\n        /* \"#utility.yul\":16726:16727   */\n      dup1\n        /* \"#utility.yul\":16719:16731   */\n      revert\n        /* \"#utility.yul\":16743:16860   */\n    tag_276:\n        /* \"#utility.yul\":16852:16853   */\n      0x00\n        /* \"#utility.yul\":16849:16850   */\n      dup1\n        /* \"#utility.yul\":16842:16854   */\n      revert\n        /* \"#utility.yul\":16866:16983   */\n    tag_269:\n        /* \"#utility.yul\":16975:16976   */\n      0x00\n        /* \"#utility.yul\":16972:16973   */\n      dup1\n        /* \"#utility.yul\":16965:16977   */\n      revert\n        /* \"#utility.yul\":16989:17091   */\n    tag_341:\n        /* \"#utility.yul\":17030:17036   */\n      0x00\n        /* \"#utility.yul\":17081:17083   */\n      0x1f\n        /* \"#utility.yul\":17077:17084   */\n      not\n        /* \"#utility.yul\":17072:17074   */\n      0x1f\n        /* \"#utility.yul\":17065:17070   */\n      dup4\n        /* \"#utility.yul\":17061:17075   */\n      add\n        /* \"#utility.yul\":17057:17085   */\n      and\n        /* \"#utility.yul\":17047:17085   */\n      swap1\n      pop\n        /* \"#utility.yul\":16989:17091   */\n      swap2\n      swap1\n      pop\n      jump\t// out\n        /* \"#utility.yul\":17097:17219   */\n    tag_255:\n        /* \"#utility.yul\":17170:17194   */\n      tag_453\n        /* \"#utility.yul\":17188:17193   */\n      dup2\n        /* \"#utility.yul\":17170:17194   */\n      tag_310\n      jump\t// in\n    tag_453:\n        /* \"#utility.yul\":17163:17168   */\n      dup2\n        /* \"#utility.yul\":17160:17195   */\n      eq\n        /* \"#utility.yul\":17150:17213   */\n      tag_454\n      jumpi\n        /* \"#utility.yul\":17209:17210   */\n      0x00\n        /* \"#utility.yul\":17206:17207   */\n      dup1\n        /* \"#utility.yul\":17199:17211   */\n      revert\n        /* \"#utility.yul\":17150:17213   */\n    tag_454:\n        /* \"#utility.yul\":17097:17219   */\n      pop\n      jump\t// out\n        /* \"#utility.yul\":17225:17347   */\n    tag_265:\n        /* \"#utility.yul\":17298:17322   */\n      tag_456\n        /* \"#utility.yul\":17316:17321   */\n      dup2\n        /* \"#utility.yul\":17298:17322   */\n      tag_361\n      jump\t// in\n    tag_456:\n        /* \"#utility.yul\":17291:17296   */\n      dup2\n        /* \"#utility.yul\":17288:17323   */\n      eq\n        /* \"#utility.yul\":17278:17341   */\n      tag_457\n      jumpi\n        /* \"#utility.yul\":17337:17338   */\n      0x00\n        /* \"#utility.yul\":17334:17335   */\n      dup1\n        /* \"#utility.yul\":17327:17339   */\n      revert\n        /* \"#utility.yul\":17278:17341   */\n    tag_457:\n        /* \"#utility.yul\":17225:17347   */\n      pop\n      jump\t// out\n\n    auxdata: 0xa26469706673582212201d3345966d59763e5500020fd468ce9125a4f482eff71fe80295e309197eb7aa64736f6c63430008070033\n}\n",
				"bytecode": {
					"linkReferences": {},
					"object": "608060405234801561001057600080fd5b506121e2806100206000396000f3fe608060405234801561001057600080fd5b506004361061009e5760003560e01c8063904cc17511610066578063904cc1751461015e578063ac8b13001461018e578063b11bead4146101aa578063bb29998e146101da578063f8a02d841461020b5761009e565b8063377e6ff7146100a35780635102bc9d146100d3578063575b70d0146100ef57806369ba1a751461010b57806380c9419e14610127575b600080fd5b6100bd60048036038101906100b891906118db565b61023b565b6040516100ca9190611cbb565b60405180910390f35b6100ed60048036038101906100e891906119ed565b61044a565b005b61010960048036038101906101049190611a49565b610493565b005b610125600480360381019061012091906119c0565b610790565b005b610141600480360381019061013c91906119c0565b610d1a565b604051610155989796959493929190611d13565b60405180910390f35b610178600480360381019061017391906119c0565b610e3a565b6040516101859190611cbb565b60405180910390f35b6101a860048036038101906101a39190611951565b6111f7565b005b6101c460048036038101906101bf91906118db565b6115f3565b6040516101d19190611cdd565b60405180910390f35b6101f460048036038101906101ef91906118db565b61162b565b604051610202929190611c92565b60405180910390f35b61022560048036038101906102209190611908565b611639565b6040516102329190611cf8565b60405180910390f35b6060600360008373ffffffffffffffffffffffffffffffffffffffff1673ffffffffffffffffffffffffffffffffffffffff168152602001908152602001600020805480602002602001604051908101604052809291908181526020016000905b8282101561043f578382906000526020600020906008020160405180610100016040529081600082015481526020016001820180546102da90611fc2565b80601f016020809104026020016040519081016040528092919081815260200182805461030690611fc2565b80156103535780601f1061032857610100808354040283529160200191610353565b820191906000526020600020905b81548152906001019060200180831161033657829003601f168201915b50505050508152602001600282015481526020016003820160009054906101000a900473ffffffffffffffffffffffffffffffffffffffff1673ffffffffffffffffffffffffffffffffffffffff1673ffffffffffffffffffffffffffffffffffffffff1681526020016004820160009054906101000a900473ffffffffffffffffffffffffffffffffffffffff1673ffffffffffffffffffffffffffffffffffffffff1673ffffffffffffffffffffffffffffffffffffffff16815260200160058201548152602001600682015481526020016007820154815250508152602001906001019061029c565b505050509050919050565b80600180846104599190611f04565b8154811061046a576104696120fb565b5b9060005260206000209060080201600101908051906020019061048e9291906116d1565b505050565b6000805b600460008681526020019081526020016000208054905081101561055f578273ffffffffffffffffffffffffffffffffffffffff16600460006001886104dd9190611f04565b815260200190815260200160002082815481106104fd576104fc6120fb565b5b9060005260206000200160009054906101000a900473ffffffffffffffffffffffffffffffffffffffff1673ffffffffffffffffffffffffffffffffffffffff161461054c576001915061055f565b808061055790612025565b915050610497565b5080156105b3576001806001866105769190611f04565b81548110610587576105866120fb565b5b906000526020600020906008020160050160008282546105a79190611e54565b925050819055506105fc565b600a600180866105c39190611f04565b815481106105d4576105d36120fb565b5b906000526020600020906008020160050160008282546105f49190611e54565b925050819055505b6004600060018661060d9190611f04565b8152602001908152602001600020829080600181540180825580915050600190039060005260206000200160009091909190916101000a81548173ffffffffffffffffffffffffffffffffffffffff021916908373ffffffffffffffffffffffffffffffffffffffff160217905550826001808661068b9190611f04565b8154811061069c5761069b6120fb565b5b9060005260206000209060080201600701546106b89190611e54565b600180866106c69190611f04565b815481106106d7576106d66120fb565b5b906000526020600020906008020160070181905550600180856106fa9190611f04565b8154811061070b5761070a6120fb565b5b9060005260206000209060080201600601546001808661072b9190611f04565b8154811061073c5761073b6120fb565b5b9060005260206000209060080201600701541061078a576002600180866107639190611f04565b81548110610774576107736120fb565b5b9060005260206000209060080201600201819055505b50505050565b6003600180836107a09190611f04565b815481106107b1576107b06120fb565b5b906000526020600020906008020160020181905550600160026000600181526020019081526020016000208054905014156108ae57600260006001815260200190815260200160002080548061080a576108096120cc565b5b60019003818190600052602060002090600802016000808201600090556001820160006108379190611757565b60028201600090556003820160006101000a81549073ffffffffffffffffffffffffffffffffffffffff02191690556004820160006101000a81549073ffffffffffffffffffffffffffffffffffffffff021916905560058201600090556006820160009055600782016000905550509055610b8b565b60005b60016002600060018152602001908152602001600020805490506108d59190611f04565b811015610ac6578160026000600181526020019081526020016000208281548110610903576109026120fb565b5b9060005260206000209060080201600001541415610ab357600260006001815260200190815260200160002060018261093c9190611e54565b8154811061094d5761094c6120fb565b5b906000526020600020906008020160026000600181526020019081526020016000208281548110610981576109806120fb565b5b90600052602060002090600802016000820154816000015560018201816001019080546109ad90611fc2565b6109b8929190611797565b50600282015481600201556003820160009054906101000a900473ffffffffffffffffffffffffffffffffffffffff168160030160006101000a81548173ffffffffffffffffffffffffffffffffffffffff021916908373ffffffffffffffffffffffffffffffffffffffff1602179055506004820160009054906101000a900473ffffffffffffffffffffffffffffffffffffffff168160040160006101000a81548173ffffffffffffffffffffffffffffffffffffffff021916908373ffffffffffffffffffffffffffffffffffffffff1602179055506005820154816005015560068201548160060155600782015481600701559050505b8080610abe90612025565b9150506108b1565b506002600060018152602001908152602001600020805480610aeb57610aea6120cc565b5b6001900381819060005260206000209060080201600080820160009055600182016000610b189190611757565b60028201600090556003820160006101000a81549073ffffffffffffffffffffffffffffffffffffffff02191690556004820160006101000a81549073ffffffffffffffffffffffffffffffffffffffff0219169055600582016000905560068201600090556007820160009055505090555b600260006003815260200190815260200160002060018083610bad9190611f04565b81548110610bbe57610bbd6120fb565b5b90600052602060002090600802019080600181540180825580915050600190039060005260206000209060080201600090919091909150600082015481600001556001820181600101908054610c1390611fc2565b610c1e929190611797565b50600282015481600201556003820160009054906101000a900473ffffffffffffffffffffffffffffffffffffffff168160030160006101000a81548173ffffffffffffffffffffffffffffffffffffffff021916908373ffffffffffffffffffffffffffffffffffffffff1602179055506004820160009054906101000a900473ffffffffffffffffffffffffffffffffffffffff168160040160006101000a81548173ffffffffffffffffffffffffffffffffffffffff021916908373ffffffffffffffffffffffffffffffffffffffff160217905550600582015481600501556006820154816006015560078201548160070155505050565b60018181548110610d2a57600080fd5b9060005260206000209060080201600091509050806000015490806001018054610d5390611fc2565b80601f0160208091040260200160405190810160405280929190818152602001828054610d7f90611fc2565b8015610dcc5780601f10610da157610100808354040283529160200191610dcc565b820191906000526020600020905b815481529060010190602001808311610daf57829003601f168201915b5050505050908060020154908060030160009054906101000a900473ffffffffffffffffffffffffffffffffffffffff16908060040160009054906101000a900473ffffffffffffffffffffffffffffffffffffffff16908060050154908060060154908060070154905088565b60606000821415611015576001805480602002602001604051908101604052809291908181526020016000905b8282101561100a57838290600052602060002090600802016040518061010001604052908160008201548152602001600182018054610ea590611fc2565b80601f0160208091040260200160405190810160405280929190818152602001828054610ed190611fc2565b8015610f1e5780601f10610ef357610100808354040283529160200191610f1e565b820191906000526020600020905b815481529060010190602001808311610f0157829003601f168201915b50505050508152602001600282015481526020016003820160009054906101000a900473ffffffffffffffffffffffffffffffffffffffff1673ffffffffffffffffffffffffffffffffffffffff1673ffffffffffffffffffffffffffffffffffffffff1681526020016004820160009054906101000a900473ffffffffffffffffffffffffffffffffffffffff1673ffffffffffffffffffffffffffffffffffffffff1673ffffffffffffffffffffffffffffffffffffffff168152602001600582015481526020016006820154815260200160078201548152505081526020019060010190610e67565b5050505090506111f2565b60026000838152602001908152602001600020805480602002602001604051908101604052809291908181526020016000905b828210156111eb5783829060005260206000209060080201604051806101000160405290816000820154815260200160018201805461108690611fc2565b80601f01602080910402602001604051908101604052809291908181526020018280546110b290611fc2565b80156110ff5780601f106110d4576101008083540402835291602001916110ff565b820191906000526020600020905b8154815290600101906020018083116110e257829003601f168201915b50505050508152602001600282015481526020016003820160009054906101000a900473ffffffffffffffffffffffffffffffffffffffff1673ffffffffffffffffffffffffffffffffffffffff1673ffffffffffffffffffffffffffffffffffffffff1681526020016004820160009054906101000a900473ffffffffffffffffffffffffffffffffffffffff1673ffffffffffffffffffffffffffffffffffffffff1673ffffffffffffffffffffffffffffffffffffffff168152602001600582015481526020016006820154815260200160078201548152505081526020019060010190611048565b5050505090505b919050565b60008081548092919061120990612025565b919050555060006040518061010001604052806000548152602001858152602001600181526020013373ffffffffffffffffffffffffffffffffffffffff1681526020018473ffffffffffffffffffffffffffffffffffffffff168152602001600081526020018381526020016000815250905060018190806001815401808255809150506001900390600052602060002090600802016000909190919091506000820151816000015560208201518160010190805190602001906112cf9291906116d1565b506040820151816002015560608201518160030160006101000a81548173ffffffffffffffffffffffffffffffffffffffff021916908373ffffffffffffffffffffffffffffffffffffffff16021790555060808201518160040160006101000a81548173ffffffffffffffffffffffffffffffffffffffff021916908373ffffffffffffffffffffffffffffffffffffffff16021790555060a0820151816005015560c0820151816006015560e08201518160070155505060026000600181526020019081526020016000208190806001815401808255809150506001900390600052602060002090600802016000909190919091506000820151816000015560208201518160010190805190602001906113ec9291906116d1565b506040820151816002015560608201518160030160006101000a81548173ffffffffffffffffffffffffffffffffffffffff021916908373ffffffffffffffffffffffffffffffffffffffff16021790555060808201518160040160006101000a81548173ffffffffffffffffffffffffffffffffffffffff021916908373ffffffffffffffffffffffffffffffffffffffff16021790555060a0820151816005015560c0820151816006015560e082015181600701555050600360003373ffffffffffffffffffffffffffffffffffffffff1673ffffffffffffffffffffffffffffffffffffffff1681526020019081526020016000208190806001815401808255809150506001900390600052602060002090600802016000909190919091506000820151816000015560208201518160010190805190602001906115349291906116d1565b506040820151816002015560608201518160030160006101000a81548173ffffffffffffffffffffffffffffffffffffffff021916908373ffffffffffffffffffffffffffffffffffffffff16021790555060808201518160040160006101000a81548173ffffffffffffffffffffffffffffffffffffffff021916908373ffffffffffffffffffffffffffffffffffffffff16021790555060a0820151816005015560c0820151816006015560e08201518160070155505050505050565b60003373ffffffffffffffffffffffffffffffffffffffff168273ffffffffffffffffffffffffffffffffffffffff16149050919050565b600080823391509150915091565b6000808290506000805b82518110156116c6576000838281518110611661576116606120fb565b5b602001015160f81c60f81b60f81c60ff16905060308110158015611686575060398111155b156116b2576030816116989190611f04565b600a846116a59190611eaa565b6116af9190611e54565b92505b5080806116be90612025565b915050611643565b508092505050919050565b8280546116dd90611fc2565b90600052602060002090601f0160209004810192826116ff5760008555611746565b82601f1061171857805160ff1916838001178555611746565b82800160010185558215611746579182015b8281111561174557825182559160200191906001019061172a565b5b5090506117539190611824565b5090565b50805461176390611fc2565b6000825580601f106117755750611794565b601f0160209004906000526020600020908101906117939190611824565b5b50565b8280546117a390611fc2565b90600052602060002090601f0160209004810192826117c55760008555611813565b82601f106117d65780548555611813565b8280016001018555821561181357600052602060002091601f016020900482015b828111156118125782548255916001019190600101906117f7565b5b5090506118209190611824565b5090565b5b8082111561183d576000816000905550600101611825565b5090565b600061185461184f84611dbd565b611d98565b9050828152602081018484840111156118705761186f61215e565b5b61187b848285611f80565b509392505050565b6000813590506118928161217e565b92915050565b600082601f8301126118ad576118ac612159565b5b81356118bd848260208601611841565b91505092915050565b6000813590506118d581612195565b92915050565b6000602082840312156118f1576118f0612168565b5b60006118ff84828501611883565b91505092915050565b60006020828403121561191e5761191d612168565b5b600082013567ffffffffffffffff81111561193c5761193b612163565b5b61194884828501611898565b91505092915050565b60008060006060848603121561196a57611969612168565b5b600084013567ffffffffffffffff81111561198857611987612163565b5b61199486828701611898565b93505060206119a586828701611883565b92505060406119b6868287016118c6565b9150509250925092565b6000602082840312156119d6576119d5612168565b5b60006119e4848285016118c6565b91505092915050565b60008060408385031215611a0457611a03612168565b5b6000611a12858286016118c6565b925050602083013567ffffffffffffffff811115611a3357611a32612163565b5b611a3f85828601611898565b9150509250929050565b600080600060608486031215611a6257611a61612168565b5b6000611a70868287016118c6565b9350506020611a81868287016118c6565b9250506040611a9286828701611883565b9150509250925092565b6000611aa88383611bc4565b905092915050565b611ab981611f38565b82525050565b611ac881611f38565b82525050565b6000611ad982611dfe565b611ae38185611e21565b935083602082028501611af585611dee565b8060005b85811015611b315784840389528151611b128582611a9c565b9450611b1d83611e14565b925060208a01995050600181019050611af9565b50829750879550505050505092915050565b611b4c81611f4a565b82525050565b6000611b5d82611e09565b611b678185611e32565b9350611b77818560208601611f8f565b611b808161216d565b840191505092915050565b6000611b9682611e09565b611ba08185611e43565b9350611bb0818560208601611f8f565b611bb98161216d565b840191505092915050565b600061010083016000830151611bdd6000860182611c74565b5060208301518482036020860152611bf58282611b52565b9150506040830151611c0a6040860182611c74565b506060830151611c1d6060860182611ab0565b506080830151611c306080860182611ab0565b5060a0830151611c4360a0860182611c74565b5060c0830151611c5660c0860182611c74565b5060e0830151611c6960e0860182611c74565b508091505092915050565b611c7d81611f76565b82525050565b611c8c81611f76565b82525050565b6000604082019050611ca76000830185611abf565b611cb46020830184611abf565b9392505050565b60006020820190508181036000830152611cd58184611ace565b905092915050565b6000602082019050611cf26000830184611b43565b92915050565b6000602082019050611d0d6000830184611c83565b92915050565b600061010082019050611d29600083018b611c83565b8181036020830152611d3b818a611b8b565b9050611d4a6040830189611c83565b611d576060830188611abf565b611d646080830187611abf565b611d7160a0830186611c83565b611d7e60c0830185611c83565b611d8b60e0830184611c83565b9998505050505050505050565b6000611da2611db3565b9050611dae8282611ff4565b919050565b6000604051905090565b600067ffffffffffffffff821115611dd857611dd761212a565b5b611de18261216d565b9050602081019050919050565b6000819050602082019050919050565b600081519050919050565b600081519050919050565b6000602082019050919050565b600082825260208201905092915050565b600082825260208201905092915050565b600082825260208201905092915050565b6000611e5f82611f76565b9150611e6a83611f76565b9250827fffffffffffffffffffffffffffffffffffffffffffffffffffffffffffffffff03821115611e9f57611e9e61206e565b5b828201905092915050565b6000611eb582611f76565b9150611ec083611f76565b9250817fffffffffffffffffffffffffffffffffffffffffffffffffffffffffffffffff0483118215151615611ef957611ef861206e565b5b828202905092915050565b6000611f0f82611f76565b9150611f1a83611f76565b925082821015611f2d57611f2c61206e565b5b828203905092915050565b6000611f4382611f56565b9050919050565b60008115159050919050565b600073ffffffffffffffffffffffffffffffffffffffff82169050919050565b6000819050919050565b82818337600083830152505050565b60005b83811015611fad578082015181840152602081019050611f92565b83811115611fbc576000848401525b50505050565b60006002820490506001821680611fda57607f821691505b60208210811415611fee57611fed61209d565b5b50919050565b611ffd8261216d565b810181811067ffffffffffffffff8211171561201c5761201b61212a565b5b80604052505050565b600061203082611f76565b91507fffffffffffffffffffffffffffffffffffffffffffffffffffffffffffffffff8214156120635761206261206e565b5b600182019050919050565b7f4e487b7100000000000000000000000000000000000000000000000000000000600052601160045260246000fd5b7f4e487b7100000000000000000000000000000000000000000000000000000000600052602260045260246000fd5b7f4e487b7100000000000000000000000000000000000000000000000000000000600052603160045260246000fd5b7f4e487b7100000000000000000000000000000000000000000000000000000000600052603260045260246000fd5b7f4e487b7100000000000000000000000000000000000000000000000000000000600052604160045260246000fd5b600080fd5b600080fd5b600080fd5b600080fd5b6000601f19601f8301169050919050565b61218781611f38565b811461219257600080fd5b50565b61219e81611f76565b81146121a957600080fd5b5056fea26469706673582212201d3345966d59763e5500020fd468ce9125a4f482eff71fe80295e309197eb7aa64736f6c63430008070033",
					"opcodes": "PUSH1 0x80 PUSH1 0x40 MSTORE CALLVALUE DUP1 ISZERO PUSH2 0x10 JUMPI PUSH1 0x0 DUP1 REVERT JUMPDEST POP PUSH2 0x21E2 DUP1 PUSH2 0x20 PUSH1 0x0 CODECOPY PUSH1 0x0 RETURN INVALID PUSH1 0x80 PUSH1 0x40 MSTORE CALLVALUE DUP1 ISZERO PUSH2 0x10 JUMPI PUSH1 0x0 DUP1 REVERT JUMPDEST POP PUSH1 0x4 CALLDATASIZE LT PUSH2 0x9E JUMPI PUSH1 0x0 CALLDATALOAD PUSH1 0xE0 SHR DUP1 PUSH4 0x904CC175 GT PUSH2 0x66 JUMPI DUP1 PUSH4 0x904CC175 EQ PUSH2 0x15E JUMPI DUP1 PUSH4 0xAC8B1300 EQ PUSH2 0x18E JUMPI DUP1 PUSH4 0xB11BEAD4 EQ PUSH2 0x1AA JUMPI DUP1 PUSH4 0xBB29998E EQ PUSH2 0x1DA JUMPI DUP1 PUSH4 0xF8A02D84 EQ PUSH2 0x20B JUMPI PUSH2 0x9E JUMP JUMPDEST DUP1 PUSH4 0x377E6FF7 EQ PUSH2 0xA3 JUMPI DUP1 PUSH4 0x5102BC9D EQ PUSH2 0xD3 JUMPI DUP1 PUSH4 0x575B70D0 EQ PUSH2 0xEF JUMPI DUP1 PUSH4 0x69BA1A75 EQ PUSH2 0x10B JUMPI DUP1 PUSH4 0x80C9419E EQ PUSH2 0x127 JUMPI JUMPDEST PUSH1 0x0 DUP1 REVERT JUMPDEST PUSH2 0xBD PUSH1 0x4 DUP1 CALLDATASIZE SUB DUP2 ADD SWAP1 PUSH2 0xB8 SWAP2 SWAP1 PUSH2 0x18DB JUMP JUMPDEST PUSH2 0x23B JUMP JUMPDEST PUSH1 0x40 MLOAD PUSH2 0xCA SWAP2 SWAP1 PUSH2 0x1CBB JUMP JUMPDEST PUSH1 0x40 MLOAD DUP1 SWAP2 SUB SWAP1 RETURN JUMPDEST PUSH2 0xED PUSH1 0x4 DUP1 CALLDATASIZE SUB DUP2 ADD SWAP1 PUSH2 0xE8 SWAP2 SWAP1 PUSH2 0x19ED JUMP JUMPDEST PUSH2 0x44A JUMP JUMPDEST STOP JUMPDEST PUSH2 0x109 PUSH1 0x4 DUP1 CALLDATASIZE SUB DUP2 ADD SWAP1 PUSH2 0x104 SWAP2 SWAP1 PUSH2 0x1A49 JUMP JUMPDEST PUSH2 0x493 JUMP JUMPDEST STOP JUMPDEST PUSH2 0x125 PUSH1 0x4 DUP1 CALLDATASIZE SUB DUP2 ADD SWAP1 PUSH2 0x120 SWAP2 SWAP1 PUSH2 0x19C0 JUMP JUMPDEST PUSH2 0x790 JUMP JUMPDEST STOP JUMPDEST PUSH2 0x141 PUSH1 0x4 DUP1 CALLDATASIZE SUB DUP2 ADD SWAP1 PUSH2 0x13C SWAP2 SWAP1 PUSH2 0x19C0 JUMP JUMPDEST PUSH2 0xD1A JUMP JUMPDEST PUSH1 0x40 MLOAD PUSH2 0x155 SWAP9 SWAP8 SWAP7 SWAP6 SWAP5 SWAP4 SWAP3 SWAP2 SWAP1 PUSH2 0x1D13 JUMP JUMPDEST PUSH1 0x40 MLOAD DUP1 SWAP2 SUB SWAP1 RETURN JUMPDEST PUSH2 0x178 PUSH1 0x4 DUP1 CALLDATASIZE SUB DUP2 ADD SWAP1 PUSH2 0x173 SWAP2 SWAP1 PUSH2 0x19C0 JUMP JUMPDEST PUSH2 0xE3A JUMP JUMPDEST PUSH1 0x40 MLOAD PUSH2 0x185 SWAP2 SWAP1 PUSH2 0x1CBB JUMP JUMPDEST PUSH1 0x40 MLOAD DUP1 SWAP2 SUB SWAP1 RETURN JUMPDEST PUSH2 0x1A8 PUSH1 0x4 DUP1 CALLDATASIZE SUB DUP2 ADD SWAP1 PUSH2 0x1A3 SWAP2 SWAP1 PUSH2 0x1951 JUMP JUMPDEST PUSH2 0x11F7 JUMP JUMPDEST STOP JUMPDEST PUSH2 0x1C4 PUSH1 0x4 DUP1 CALLDATASIZE SUB DUP2 ADD SWAP1 PUSH2 0x1BF SWAP2 SWAP1 PUSH2 0x18DB JUMP JUMPDEST PUSH2 0x15F3 JUMP JUMPDEST PUSH1 0x40 MLOAD PUSH2 0x1D1 SWAP2 SWAP1 PUSH2 0x1CDD JUMP JUMPDEST PUSH1 0x40 MLOAD DUP1 SWAP2 SUB SWAP1 RETURN JUMPDEST PUSH2 0x1F4 PUSH1 0x4 DUP1 CALLDATASIZE SUB DUP2 ADD SWAP1 PUSH2 0x1EF SWAP2 SWAP1 PUSH2 0x18DB JUMP JUMPDEST PUSH2 0x162B JUMP JUMPDEST PUSH1 0x40 MLOAD PUSH2 0x202 SWAP3 SWAP2 SWAP1 PUSH2 0x1C92 JUMP JUMPDEST PUSH1 0x40 MLOAD DUP1 SWAP2 SUB SWAP1 RETURN JUMPDEST PUSH2 0x225 PUSH1 0x4 DUP1 CALLDATASIZE SUB DUP2 ADD SWAP1 PUSH2 0x220 SWAP2 SWAP1 PUSH2 0x1908 JUMP JUMPDEST PUSH2 0x1639 JUMP JUMPDEST PUSH1 0x40 MLOAD PUSH2 0x232 SWAP2 SWAP1 PUSH2 0x1CF8 JUMP JUMPDEST PUSH1 0x40 MLOAD DUP1 SWAP2 SUB SWAP1 RETURN JUMPDEST PUSH1 0x60 PUSH1 0x3 PUSH1 0x0 DUP4 PUSH20 0xFFFFFFFFFFFFFFFFFFFFFFFFFFFFFFFFFFFFFFFF AND PUSH20 0xFFFFFFFFFFFFFFFFFFFFFFFFFFFFFFFFFFFFFFFF AND DUP2 MSTORE PUSH1 0x20 ADD SWAP1 DUP2 MSTORE PUSH1 0x20 ADD PUSH1 0x0 KECCAK256 DUP1 SLOAD DUP1 PUSH1 0x20 MUL PUSH1 0x20 ADD PUSH1 0x40 MLOAD SWAP1 DUP2 ADD PUSH1 0x40 MSTORE DUP1 SWAP3 SWAP2 SWAP1 DUP2 DUP2 MSTORE PUSH1 0x20 ADD PUSH1 0x0 SWAP1 JUMPDEST DUP3 DUP3 LT ISZERO PUSH2 0x43F JUMPI DUP4 DUP3 SWAP1 PUSH1 0x0 MSTORE PUSH1 0x20 PUSH1 0x0 KECCAK256 SWAP1 PUSH1 0x8 MUL ADD PUSH1 0x40 MLOAD DUP1 PUSH2 0x100 ADD PUSH1 0x40 MSTORE SWAP1 DUP2 PUSH1 0x0 DUP3 ADD SLOAD DUP2 MSTORE PUSH1 0x20 ADD PUSH1 0x1 DUP3 ADD DUP1 SLOAD PUSH2 0x2DA SWAP1 PUSH2 0x1FC2 JUMP JUMPDEST DUP1 PUSH1 0x1F ADD PUSH1 0x20 DUP1 SWAP2 DIV MUL PUSH1 0x20 ADD PUSH1 0x40 MLOAD SWAP1 DUP2 ADD PUSH1 0x40 MSTORE DUP1 SWAP3 SWAP2 SWAP1 DUP2 DUP2 MSTORE PUSH1 0x20 ADD DUP3 DUP1 SLOAD PUSH2 0x306 SWAP1 PUSH2 0x1FC2 JUMP JUMPDEST DUP1 ISZERO PUSH2 0x353 JUMPI DUP1 PUSH1 0x1F LT PUSH2 0x328 JUMPI PUSH2 0x100 DUP1 DUP4 SLOAD DIV MUL DUP4 MSTORE SWAP2 PUSH1 0x20 ADD SWAP2 PUSH2 0x353 JUMP JUMPDEST DUP3 ADD SWAP2 SWAP1 PUSH1 0x0 MSTORE PUSH1 0x20 PUSH1 0x0 KECCAK256 SWAP1 JUMPDEST DUP2 SLOAD DUP2 MSTORE SWAP1 PUSH1 0x1 ADD SWAP1 PUSH1 0x20 ADD DUP1 DUP4 GT PUSH2 0x336 JUMPI DUP3 SWAP1 SUB PUSH1 0x1F AND DUP3 ADD SWAP2 JUMPDEST POP POP POP POP POP DUP2 MSTORE PUSH1 0x20 ADD PUSH1 0x2 DUP3 ADD SLOAD DUP2 MSTORE PUSH1 0x20 ADD PUSH1 0x3 DUP3 ADD PUSH1 0x0 SWAP1 SLOAD SWAP1 PUSH2 0x100 EXP SWAP1 DIV PUSH20 0xFFFFFFFFFFFFFFFFFFFFFFFFFFFFFFFFFFFFFFFF AND PUSH20 0xFFFFFFFFFFFFFFFFFFFFFFFFFFFFFFFFFFFFFFFF AND PUSH20 0xFFFFFFFFFFFFFFFFFFFFFFFFFFFFFFFFFFFFFFFF AND DUP2 MSTORE PUSH1 0x20 ADD PUSH1 0x4 DUP3 ADD PUSH1 0x0 SWAP1 SLOAD SWAP1 PUSH2 0x100 EXP SWAP1 DIV PUSH20 0xFFFFFFFFFFFFFFFFFFFFFFFFFFFFFFFFFFFFFFFF AND PUSH20 0xFFFFFFFFFFFFFFFFFFFFFFFFFFFFFFFFFFFFFFFF AND PUSH20 0xFFFFFFFFFFFFFFFFFFFFFFFFFFFFFFFFFFFFFFFF AND DUP2 MSTORE PUSH1 0x20 ADD PUSH1 0x5 DUP3 ADD SLOAD DUP2 MSTORE PUSH1 0x20 ADD PUSH1 0x6 DUP3 ADD SLOAD DUP2 MSTORE PUSH1 0x20 ADD PUSH1 0x7 DUP3 ADD SLOAD DUP2 MSTORE POP POP DUP2 MSTORE PUSH1 0x20 ADD SWAP1 PUSH1 0x1 ADD SWAP1 PUSH2 0x29C JUMP JUMPDEST POP POP POP POP SWAP1 POP SWAP2 SWAP1 POP JUMP JUMPDEST DUP1 PUSH1 0x1 DUP1 DUP5 PUSH2 0x459 SWAP2 SWAP1 PUSH2 0x1F04 JUMP JUMPDEST DUP2 SLOAD DUP2 LT PUSH2 0x46A JUMPI PUSH2 0x469 PUSH2 0x20FB JUMP JUMPDEST JUMPDEST SWAP1 PUSH1 0x0 MSTORE PUSH1 0x20 PUSH1 0x0 KECCAK256 SWAP1 PUSH1 0x8 MUL ADD PUSH1 0x1 ADD SWAP1 DUP1 MLOAD SWAP1 PUSH1 0x20 ADD SWAP1 PUSH2 0x48E SWAP3 SWAP2 SWAP1 PUSH2 0x16D1 JUMP JUMPDEST POP POP POP JUMP JUMPDEST PUSH1 0x0 DUP1 JUMPDEST PUSH1 0x4 PUSH1 0x0 DUP7 DUP2 MSTORE PUSH1 0x20 ADD SWAP1 DUP2 MSTORE PUSH1 0x20 ADD PUSH1 0x0 KECCAK256 DUP1 SLOAD SWAP1 POP DUP2 LT ISZERO PUSH2 0x55F JUMPI DUP3 PUSH20 0xFFFFFFFFFFFFFFFFFFFFFFFFFFFFFFFFFFFFFFFF AND PUSH1 0x4 PUSH1 0x0 PUSH1 0x1 DUP9 PUSH2 0x4DD SWAP2 SWAP1 PUSH2 0x1F04 JUMP JUMPDEST DUP2 MSTORE PUSH1 0x20 ADD SWAP1 DUP2 MSTORE PUSH1 0x20 ADD PUSH1 0x0 KECCAK256 DUP3 DUP2 SLOAD DUP2 LT PUSH2 0x4FD JUMPI PUSH2 0x4FC PUSH2 0x20FB JUMP JUMPDEST JUMPDEST SWAP1 PUSH1 0x0 MSTORE PUSH1 0x20 PUSH1 0x0 KECCAK256 ADD PUSH1 0x0 SWAP1 SLOAD SWAP1 PUSH2 0x100 EXP SWAP1 DIV PUSH20 0xFFFFFFFFFFFFFFFFFFFFFFFFFFFFFFFFFFFFFFFF AND PUSH20 0xFFFFFFFFFFFFFFFFFFFFFFFFFFFFFFFFFFFFFFFF AND EQ PUSH2 0x54C JUMPI PUSH1 0x1 SWAP2 POP PUSH2 0x55F JUMP JUMPDEST DUP1 DUP1 PUSH2 0x557 SWAP1 PUSH2 0x2025 JUMP JUMPDEST SWAP2 POP POP PUSH2 0x497 JUMP JUMPDEST POP DUP1 ISZERO PUSH2 0x5B3 JUMPI PUSH1 0x1 DUP1 PUSH1 0x1 DUP7 PUSH2 0x576 SWAP2 SWAP1 PUSH2 0x1F04 JUMP JUMPDEST DUP2 SLOAD DUP2 LT PUSH2 0x587 JUMPI PUSH2 0x586 PUSH2 0x20FB JUMP JUMPDEST JUMPDEST SWAP1 PUSH1 0x0 MSTORE PUSH1 0x20 PUSH1 0x0 KECCAK256 SWAP1 PUSH1 0x8 MUL ADD PUSH1 0x5 ADD PUSH1 0x0 DUP3 DUP3 SLOAD PUSH2 0x5A7 SWAP2 SWAP1 PUSH2 0x1E54 JUMP JUMPDEST SWAP3 POP POP DUP2 SWAP1 SSTORE POP PUSH2 0x5FC JUMP JUMPDEST PUSH1 0xA PUSH1 0x1 DUP1 DUP7 PUSH2 0x5C3 SWAP2 SWAP1 PUSH2 0x1F04 JUMP JUMPDEST DUP2 SLOAD DUP2 LT PUSH2 0x5D4 JUMPI PUSH2 0x5D3 PUSH2 0x20FB JUMP JUMPDEST JUMPDEST SWAP1 PUSH1 0x0 MSTORE PUSH1 0x20 PUSH1 0x0 KECCAK256 SWAP1 PUSH1 0x8 MUL ADD PUSH1 0x5 ADD PUSH1 0x0 DUP3 DUP3 SLOAD PUSH2 0x5F4 SWAP2 SWAP1 PUSH2 0x1E54 JUMP JUMPDEST SWAP3 POP POP DUP2 SWAP1 SSTORE POP JUMPDEST PUSH1 0x4 PUSH1 0x0 PUSH1 0x1 DUP7 PUSH2 0x60D SWAP2 SWAP1 PUSH2 0x1F04 JUMP JUMPDEST DUP2 MSTORE PUSH1 0x20 ADD SWAP1 DUP2 MSTORE PUSH1 0x20 ADD PUSH1 0x0 KECCAK256 DUP3 SWAP1 DUP1 PUSH1 0x1 DUP2 SLOAD ADD DUP1 DUP3 SSTORE DUP1 SWAP2 POP POP PUSH1 0x1 SWAP1 SUB SWAP1 PUSH1 0x0 MSTORE PUSH1 0x20 PUSH1 0x0 KECCAK256 ADD PUSH1 0x0 SWAP1 SWAP2 SWAP1 SWAP2 SWAP1 SWAP2 PUSH2 0x100 EXP DUP2 SLOAD DUP2 PUSH20 0xFFFFFFFFFFFFFFFFFFFFFFFFFFFFFFFFFFFFFFFF MUL NOT AND SWAP1 DUP4 PUSH20 0xFFFFFFFFFFFFFFFFFFFFFFFFFFFFFFFFFFFFFFFF AND MUL OR SWAP1 SSTORE POP DUP3 PUSH1 0x1 DUP1 DUP7 PUSH2 0x68B SWAP2 SWAP1 PUSH2 0x1F04 JUMP JUMPDEST DUP2 SLOAD DUP2 LT PUSH2 0x69C JUMPI PUSH2 0x69B PUSH2 0x20FB JUMP JUMPDEST JUMPDEST SWAP1 PUSH1 0x0 MSTORE PUSH1 0x20 PUSH1 0x0 KECCAK256 SWAP1 PUSH1 0x8 MUL ADD PUSH1 0x7 ADD SLOAD PUSH2 0x6B8 SWAP2 SWAP1 PUSH2 0x1E54 JUMP JUMPDEST PUSH1 0x1 DUP1 DUP7 PUSH2 0x6C6 SWAP2 SWAP1 PUSH2 0x1F04 JUMP JUMPDEST DUP2 SLOAD DUP2 LT PUSH2 0x6D7 JUMPI PUSH2 0x6D6 PUSH2 0x20FB JUMP JUMPDEST JUMPDEST SWAP1 PUSH1 0x0 MSTORE PUSH1 0x20 PUSH1 0x0 KECCAK256 SWAP1 PUSH1 0x8 MUL ADD PUSH1 0x7 ADD DUP2 SWAP1 SSTORE POP PUSH1 0x1 DUP1 DUP6 PUSH2 0x6FA SWAP2 SWAP1 PUSH2 0x1F04 JUMP JUMPDEST DUP2 SLOAD DUP2 LT PUSH2 0x70B JUMPI PUSH2 0x70A PUSH2 0x20FB JUMP JUMPDEST JUMPDEST SWAP1 PUSH1 0x0 MSTORE PUSH1 0x20 PUSH1 0x0 KECCAK256 SWAP1 PUSH1 0x8 MUL ADD PUSH1 0x6 ADD SLOAD PUSH1 0x1 DUP1 DUP7 PUSH2 0x72B SWAP2 SWAP1 PUSH2 0x1F04 JUMP JUMPDEST DUP2 SLOAD DUP2 LT PUSH2 0x73C JUMPI PUSH2 0x73B PUSH2 0x20FB JUMP JUMPDEST JUMPDEST SWAP1 PUSH1 0x0 MSTORE PUSH1 0x20 PUSH1 0x0 KECCAK256 SWAP1 PUSH1 0x8 MUL ADD PUSH1 0x7 ADD SLOAD LT PUSH2 0x78A JUMPI PUSH1 0x2 PUSH1 0x1 DUP1 DUP7 PUSH2 0x763 SWAP2 SWAP1 PUSH2 0x1F04 JUMP JUMPDEST DUP2 SLOAD DUP2 LT PUSH2 0x774 JUMPI PUSH2 0x773 PUSH2 0x20FB JUMP JUMPDEST JUMPDEST SWAP1 PUSH1 0x0 MSTORE PUSH1 0x20 PUSH1 0x0 KECCAK256 SWAP1 PUSH1 0x8 MUL ADD PUSH1 0x2 ADD DUP2 SWAP1 SSTORE POP JUMPDEST POP POP POP POP JUMP JUMPDEST PUSH1 0x3 PUSH1 0x1 DUP1 DUP4 PUSH2 0x7A0 SWAP2 SWAP1 PUSH2 0x1F04 JUMP JUMPDEST DUP2 SLOAD DUP2 LT PUSH2 0x7B1 JUMPI PUSH2 0x7B0 PUSH2 0x20FB JUMP JUMPDEST JUMPDEST SWAP1 PUSH1 0x0 MSTORE PUSH1 0x20 PUSH1 0x0 KECCAK256 SWAP1 PUSH1 0x8 MUL ADD PUSH1 0x2 ADD DUP2 SWAP1 SSTORE POP PUSH1 0x1 PUSH1 0x2 PUSH1 0x0 PUSH1 0x1 DUP2 MSTORE PUSH1 0x20 ADD SWAP1 DUP2 MSTORE PUSH1 0x20 ADD PUSH1 0x0 KECCAK256 DUP1 SLOAD SWAP1 POP EQ ISZERO PUSH2 0x8AE JUMPI PUSH1 0x2 PUSH1 0x0 PUSH1 0x1 DUP2 MSTORE PUSH1 0x20 ADD SWAP1 DUP2 MSTORE PUSH1 0x20 ADD PUSH1 0x0 KECCAK256 DUP1 SLOAD DUP1 PUSH2 0x80A JUMPI PUSH2 0x809 PUSH2 0x20CC JUMP JUMPDEST JUMPDEST PUSH1 0x1 SWAP1 SUB DUP2 DUP2 SWAP1 PUSH1 0x0 MSTORE PUSH1 0x20 PUSH1 0x0 KECCAK256 SWAP1 PUSH1 0x8 MUL ADD PUSH1 0x0 DUP1 DUP3 ADD PUSH1 0x0 SWAP1 SSTORE PUSH1 0x1 DUP3 ADD PUSH1 0x0 PUSH2 0x837 SWAP2 SWAP1 PUSH2 0x1757 JUMP JUMPDEST PUSH1 0x2 DUP3 ADD PUSH1 0x0 SWAP1 SSTORE PUSH1 0x3 DUP3 ADD PUSH1 0x0 PUSH2 0x100 EXP DUP2 SLOAD SWAP1 PUSH20 0xFFFFFFFFFFFFFFFFFFFFFFFFFFFFFFFFFFFFFFFF MUL NOT AND SWAP1 SSTORE PUSH1 0x4 DUP3 ADD PUSH1 0x0 PUSH2 0x100 EXP DUP2 SLOAD SWAP1 PUSH20 0xFFFFFFFFFFFFFFFFFFFFFFFFFFFFFFFFFFFFFFFF MUL NOT AND SWAP1 SSTORE PUSH1 0x5 DUP3 ADD PUSH1 0x0 SWAP1 SSTORE PUSH1 0x6 DUP3 ADD PUSH1 0x0 SWAP1 SSTORE PUSH1 0x7 DUP3 ADD PUSH1 0x0 SWAP1 SSTORE POP POP SWAP1 SSTORE PUSH2 0xB8B JUMP JUMPDEST PUSH1 0x0 JUMPDEST PUSH1 0x1 PUSH1 0x2 PUSH1 0x0 PUSH1 0x1 DUP2 MSTORE PUSH1 0x20 ADD SWAP1 DUP2 MSTORE PUSH1 0x20 ADD PUSH1 0x0 KECCAK256 DUP1 SLOAD SWAP1 POP PUSH2 0x8D5 SWAP2 SWAP1 PUSH2 0x1F04 JUMP JUMPDEST DUP2 LT ISZERO PUSH2 0xAC6 JUMPI DUP2 PUSH1 0x2 PUSH1 0x0 PUSH1 0x1 DUP2 MSTORE PUSH1 0x20 ADD SWAP1 DUP2 MSTORE PUSH1 0x20 ADD PUSH1 0x0 KECCAK256 DUP3 DUP2 SLOAD DUP2 LT PUSH2 0x903 JUMPI PUSH2 0x902 PUSH2 0x20FB JUMP JUMPDEST JUMPDEST SWAP1 PUSH1 0x0 MSTORE PUSH1 0x20 PUSH1 0x0 KECCAK256 SWAP1 PUSH1 0x8 MUL ADD PUSH1 0x0 ADD SLOAD EQ ISZERO PUSH2 0xAB3 JUMPI PUSH1 0x2 PUSH1 0x0 PUSH1 0x1 DUP2 MSTORE PUSH1 0x20 ADD SWAP1 DUP2 MSTORE PUSH1 0x20 ADD PUSH1 0x0 KECCAK256 PUSH1 0x1 DUP3 PUSH2 0x93C SWAP2 SWAP1 PUSH2 0x1E54 JUMP JUMPDEST DUP2 SLOAD DUP2 LT PUSH2 0x94D JUMPI PUSH2 0x94C PUSH2 0x20FB JUMP JUMPDEST JUMPDEST SWAP1 PUSH1 0x0 MSTORE PUSH1 0x20 PUSH1 0x0 KECCAK256 SWAP1 PUSH1 0x8 MUL ADD PUSH1 0x2 PUSH1 0x0 PUSH1 0x1 DUP2 MSTORE PUSH1 0x20 ADD SWAP1 DUP2 MSTORE PUSH1 0x20 ADD PUSH1 0x0 KECCAK256 DUP3 DUP2 SLOAD DUP2 LT PUSH2 0x981 JUMPI PUSH2 0x980 PUSH2 0x20FB JUMP JUMPDEST JUMPDEST SWAP1 PUSH1 0x0 MSTORE PUSH1 0x20 PUSH1 0x0 KECCAK256 SWAP1 PUSH1 0x8 MUL ADD PUSH1 0x0 DUP3 ADD SLOAD DUP2 PUSH1 0x0 ADD SSTORE PUSH1 0x1 DUP3 ADD DUP2 PUSH1 0x1 ADD SWAP1 DUP1 SLOAD PUSH2 0x9AD SWAP1 PUSH2 0x1FC2 JUMP JUMPDEST PUSH2 0x9B8 SWAP3 SWAP2 SWAP1 PUSH2 0x1797 JUMP JUMPDEST POP PUSH1 0x2 DUP3 ADD SLOAD DUP2 PUSH1 0x2 ADD SSTORE PUSH1 0x3 DUP3 ADD PUSH1 0x0 SWAP1 SLOAD SWAP1 PUSH2 0x100 EXP SWAP1 DIV PUSH20 0xFFFFFFFFFFFFFFFFFFFFFFFFFFFFFFFFFFFFFFFF AND DUP2 PUSH1 0x3 ADD PUSH1 0x0 PUSH2 0x100 EXP DUP2 SLOAD DUP2 PUSH20 0xFFFFFFFFFFFFFFFFFFFFFFFFFFFFFFFFFFFFFFFF MUL NOT AND SWAP1 DUP4 PUSH20 0xFFFFFFFFFFFFFFFFFFFFFFFFFFFFFFFFFFFFFFFF AND MUL OR SWAP1 SSTORE POP PUSH1 0x4 DUP3 ADD PUSH1 0x0 SWAP1 SLOAD SWAP1 PUSH2 0x100 EXP SWAP1 DIV PUSH20 0xFFFFFFFFFFFFFFFFFFFFFFFFFFFFFFFFFFFFFFFF AND DUP2 PUSH1 0x4 ADD PUSH1 0x0 PUSH2 0x100 EXP DUP2 SLOAD DUP2 PUSH20 0xFFFFFFFFFFFFFFFFFFFFFFFFFFFFFFFFFFFFFFFF MUL NOT AND SWAP1 DUP4 PUSH20 0xFFFFFFFFFFFFFFFFFFFFFFFFFFFFFFFFFFFFFFFF AND MUL OR SWAP1 SSTORE POP PUSH1 0x5 DUP3 ADD SLOAD DUP2 PUSH1 0x5 ADD SSTORE PUSH1 0x6 DUP3 ADD SLOAD DUP2 PUSH1 0x6 ADD SSTORE PUSH1 0x7 DUP3 ADD SLOAD DUP2 PUSH1 0x7 ADD SSTORE SWAP1 POP POP JUMPDEST DUP1 DUP1 PUSH2 0xABE SWAP1 PUSH2 0x2025 JUMP JUMPDEST SWAP2 POP POP PUSH2 0x8B1 JUMP JUMPDEST POP PUSH1 0x2 PUSH1 0x0 PUSH1 0x1 DUP2 MSTORE PUSH1 0x20 ADD SWAP1 DUP2 MSTORE PUSH1 0x20 ADD PUSH1 0x0 KECCAK256 DUP1 SLOAD DUP1 PUSH2 0xAEB JUMPI PUSH2 0xAEA PUSH2 0x20CC JUMP JUMPDEST JUMPDEST PUSH1 0x1 SWAP1 SUB DUP2 DUP2 SWAP1 PUSH1 0x0 MSTORE PUSH1 0x20 PUSH1 0x0 KECCAK256 SWAP1 PUSH1 0x8 MUL ADD PUSH1 0x0 DUP1 DUP3 ADD PUSH1 0x0 SWAP1 SSTORE PUSH1 0x1 DUP3 ADD PUSH1 0x0 PUSH2 0xB18 SWAP2 SWAP1 PUSH2 0x1757 JUMP JUMPDEST PUSH1 0x2 DUP3 ADD PUSH1 0x0 SWAP1 SSTORE PUSH1 0x3 DUP3 ADD PUSH1 0x0 PUSH2 0x100 EXP DUP2 SLOAD SWAP1 PUSH20 0xFFFFFFFFFFFFFFFFFFFFFFFFFFFFFFFFFFFFFFFF MUL NOT AND SWAP1 SSTORE PUSH1 0x4 DUP3 ADD PUSH1 0x0 PUSH2 0x100 EXP DUP2 SLOAD SWAP1 PUSH20 0xFFFFFFFFFFFFFFFFFFFFFFFFFFFFFFFFFFFFFFFF MUL NOT AND SWAP1 SSTORE PUSH1 0x5 DUP3 ADD PUSH1 0x0 SWAP1 SSTORE PUSH1 0x6 DUP3 ADD PUSH1 0x0 SWAP1 SSTORE PUSH1 0x7 DUP3 ADD PUSH1 0x0 SWAP1 SSTORE POP POP SWAP1 SSTORE JUMPDEST PUSH1 0x2 PUSH1 0x0 PUSH1 0x3 DUP2 MSTORE PUSH1 0x20 ADD SWAP1 DUP2 MSTORE PUSH1 0x20 ADD PUSH1 0x0 KECCAK256 PUSH1 0x1 DUP1 DUP4 PUSH2 0xBAD SWAP2 SWAP1 PUSH2 0x1F04 JUMP JUMPDEST DUP2 SLOAD DUP2 LT PUSH2 0xBBE JUMPI PUSH2 0xBBD PUSH2 0x20FB JUMP JUMPDEST JUMPDEST SWAP1 PUSH1 0x0 MSTORE PUSH1 0x20 PUSH1 0x0 KECCAK256 SWAP1 PUSH1 0x8 MUL ADD SWAP1 DUP1 PUSH1 0x1 DUP2 SLOAD ADD DUP1 DUP3 SSTORE DUP1 SWAP2 POP POP PUSH1 0x1 SWAP1 SUB SWAP1 PUSH1 0x0 MSTORE PUSH1 0x20 PUSH1 0x0 KECCAK256 SWAP1 PUSH1 0x8 MUL ADD PUSH1 0x0 SWAP1 SWAP2 SWAP1 SWAP2 SWAP1 SWAP2 POP PUSH1 0x0 DUP3 ADD SLOAD DUP2 PUSH1 0x0 ADD SSTORE PUSH1 0x1 DUP3 ADD DUP2 PUSH1 0x1 ADD SWAP1 DUP1 SLOAD PUSH2 0xC13 SWAP1 PUSH2 0x1FC2 JUMP JUMPDEST PUSH2 0xC1E SWAP3 SWAP2 SWAP1 PUSH2 0x1797 JUMP JUMPDEST POP PUSH1 0x2 DUP3 ADD SLOAD DUP2 PUSH1 0x2 ADD SSTORE PUSH1 0x3 DUP3 ADD PUSH1 0x0 SWAP1 SLOAD SWAP1 PUSH2 0x100 EXP SWAP1 DIV PUSH20 0xFFFFFFFFFFFFFFFFFFFFFFFFFFFFFFFFFFFFFFFF AND DUP2 PUSH1 0x3 ADD PUSH1 0x0 PUSH2 0x100 EXP DUP2 SLOAD DUP2 PUSH20 0xFFFFFFFFFFFFFFFFFFFFFFFFFFFFFFFFFFFFFFFF MUL NOT AND SWAP1 DUP4 PUSH20 0xFFFFFFFFFFFFFFFFFFFFFFFFFFFFFFFFFFFFFFFF AND MUL OR SWAP1 SSTORE POP PUSH1 0x4 DUP3 ADD PUSH1 0x0 SWAP1 SLOAD SWAP1 PUSH2 0x100 EXP SWAP1 DIV PUSH20 0xFFFFFFFFFFFFFFFFFFFFFFFFFFFFFFFFFFFFFFFF AND DUP2 PUSH1 0x4 ADD PUSH1 0x0 PUSH2 0x100 EXP DUP2 SLOAD DUP2 PUSH20 0xFFFFFFFFFFFFFFFFFFFFFFFFFFFFFFFFFFFFFFFF MUL NOT AND SWAP1 DUP4 PUSH20 0xFFFFFFFFFFFFFFFFFFFFFFFFFFFFFFFFFFFFFFFF AND MUL OR SWAP1 SSTORE POP PUSH1 0x5 DUP3 ADD SLOAD DUP2 PUSH1 0x5 ADD SSTORE PUSH1 0x6 DUP3 ADD SLOAD DUP2 PUSH1 0x6 ADD SSTORE PUSH1 0x7 DUP3 ADD SLOAD DUP2 PUSH1 0x7 ADD SSTORE POP POP POP JUMP JUMPDEST PUSH1 0x1 DUP2 DUP2 SLOAD DUP2 LT PUSH2 0xD2A JUMPI PUSH1 0x0 DUP1 REVERT JUMPDEST SWAP1 PUSH1 0x0 MSTORE PUSH1 0x20 PUSH1 0x0 KECCAK256 SWAP1 PUSH1 0x8 MUL ADD PUSH1 0x0 SWAP2 POP SWAP1 POP DUP1 PUSH1 0x0 ADD SLOAD SWAP1 DUP1 PUSH1 0x1 ADD DUP1 SLOAD PUSH2 0xD53 SWAP1 PUSH2 0x1FC2 JUMP JUMPDEST DUP1 PUSH1 0x1F ADD PUSH1 0x20 DUP1 SWAP2 DIV MUL PUSH1 0x20 ADD PUSH1 0x40 MLOAD SWAP1 DUP2 ADD PUSH1 0x40 MSTORE DUP1 SWAP3 SWAP2 SWAP1 DUP2 DUP2 MSTORE PUSH1 0x20 ADD DUP3 DUP1 SLOAD PUSH2 0xD7F SWAP1 PUSH2 0x1FC2 JUMP JUMPDEST DUP1 ISZERO PUSH2 0xDCC JUMPI DUP1 PUSH1 0x1F LT PUSH2 0xDA1 JUMPI PUSH2 0x100 DUP1 DUP4 SLOAD DIV MUL DUP4 MSTORE SWAP2 PUSH1 0x20 ADD SWAP2 PUSH2 0xDCC JUMP JUMPDEST DUP3 ADD SWAP2 SWAP1 PUSH1 0x0 MSTORE PUSH1 0x20 PUSH1 0x0 KECCAK256 SWAP1 JUMPDEST DUP2 SLOAD DUP2 MSTORE SWAP1 PUSH1 0x1 ADD SWAP1 PUSH1 0x20 ADD DUP1 DUP4 GT PUSH2 0xDAF JUMPI DUP3 SWAP1 SUB PUSH1 0x1F AND DUP3 ADD SWAP2 JUMPDEST POP POP POP POP POP SWAP1 DUP1 PUSH1 0x2 ADD SLOAD SWAP1 DUP1 PUSH1 0x3 ADD PUSH1 0x0 SWAP1 SLOAD SWAP1 PUSH2 0x100 EXP SWAP1 DIV PUSH20 0xFFFFFFFFFFFFFFFFFFFFFFFFFFFFFFFFFFFFFFFF AND SWAP1 DUP1 PUSH1 0x4 ADD PUSH1 0x0 SWAP1 SLOAD SWAP1 PUSH2 0x100 EXP SWAP1 DIV PUSH20 0xFFFFFFFFFFFFFFFFFFFFFFFFFFFFFFFFFFFFFFFF AND SWAP1 DUP1 PUSH1 0x5 ADD SLOAD SWAP1 DUP1 PUSH1 0x6 ADD SLOAD SWAP1 DUP1 PUSH1 0x7 ADD SLOAD SWAP1 POP DUP9 JUMP JUMPDEST PUSH1 0x60 PUSH1 0x0 DUP3 EQ ISZERO PUSH2 0x1015 JUMPI PUSH1 0x1 DUP1 SLOAD DUP1 PUSH1 0x20 MUL PUSH1 0x20 ADD PUSH1 0x40 MLOAD SWAP1 DUP2 ADD PUSH1 0x40 MSTORE DUP1 SWAP3 SWAP2 SWAP1 DUP2 DUP2 MSTORE PUSH1 0x20 ADD PUSH1 0x0 SWAP1 JUMPDEST DUP3 DUP3 LT ISZERO PUSH2 0x100A JUMPI DUP4 DUP3 SWAP1 PUSH1 0x0 MSTORE PUSH1 0x20 PUSH1 0x0 KECCAK256 SWAP1 PUSH1 0x8 MUL ADD PUSH1 0x40 MLOAD DUP1 PUSH2 0x100 ADD PUSH1 0x40 MSTORE SWAP1 DUP2 PUSH1 0x0 DUP3 ADD SLOAD DUP2 MSTORE PUSH1 0x20 ADD PUSH1 0x1 DUP3 ADD DUP1 SLOAD PUSH2 0xEA5 SWAP1 PUSH2 0x1FC2 JUMP JUMPDEST DUP1 PUSH1 0x1F ADD PUSH1 0x20 DUP1 SWAP2 DIV MUL PUSH1 0x20 ADD PUSH1 0x40 MLOAD SWAP1 DUP2 ADD PUSH1 0x40 MSTORE DUP1 SWAP3 SWAP2 SWAP1 DUP2 DUP2 MSTORE PUSH1 0x20 ADD DUP3 DUP1 SLOAD PUSH2 0xED1 SWAP1 PUSH2 0x1FC2 JUMP JUMPDEST DUP1 ISZERO PUSH2 0xF1E JUMPI DUP1 PUSH1 0x1F LT PUSH2 0xEF3 JUMPI PUSH2 0x100 DUP1 DUP4 SLOAD DIV MUL DUP4 MSTORE SWAP2 PUSH1 0x20 ADD SWAP2 PUSH2 0xF1E JUMP JUMPDEST DUP3 ADD SWAP2 SWAP1 PUSH1 0x0 MSTORE PUSH1 0x20 PUSH1 0x0 KECCAK256 SWAP1 JUMPDEST DUP2 SLOAD DUP2 MSTORE SWAP1 PUSH1 0x1 ADD SWAP1 PUSH1 0x20 ADD DUP1 DUP4 GT PUSH2 0xF01 JUMPI DUP3 SWAP1 SUB PUSH1 0x1F AND DUP3 ADD SWAP2 JUMPDEST POP POP POP POP POP DUP2 MSTORE PUSH1 0x20 ADD PUSH1 0x2 DUP3 ADD SLOAD DUP2 MSTORE PUSH1 0x20 ADD PUSH1 0x3 DUP3 ADD PUSH1 0x0 SWAP1 SLOAD SWAP1 PUSH2 0x100 EXP SWAP1 DIV PUSH20 0xFFFFFFFFFFFFFFFFFFFFFFFFFFFFFFFFFFFFFFFF AND PUSH20 0xFFFFFFFFFFFFFFFFFFFFFFFFFFFFFFFFFFFFFFFF AND PUSH20 0xFFFFFFFFFFFFFFFFFFFFFFFFFFFFFFFFFFFFFFFF AND DUP2 MSTORE PUSH1 0x20 ADD PUSH1 0x4 DUP3 ADD PUSH1 0x0 SWAP1 SLOAD SWAP1 PUSH2 0x100 EXP SWAP1 DIV PUSH20 0xFFFFFFFFFFFFFFFFFFFFFFFFFFFFFFFFFFFFFFFF AND PUSH20 0xFFFFFFFFFFFFFFFFFFFFFFFFFFFFFFFFFFFFFFFF AND PUSH20 0xFFFFFFFFFFFFFFFFFFFFFFFFFFFFFFFFFFFFFFFF AND DUP2 MSTORE PUSH1 0x20 ADD PUSH1 0x5 DUP3 ADD SLOAD DUP2 MSTORE PUSH1 0x20 ADD PUSH1 0x6 DUP3 ADD SLOAD DUP2 MSTORE PUSH1 0x20 ADD PUSH1 0x7 DUP3 ADD SLOAD DUP2 MSTORE POP POP DUP2 MSTORE PUSH1 0x20 ADD SWAP1 PUSH1 0x1 ADD SWAP1 PUSH2 0xE67 JUMP JUMPDEST POP POP POP POP SWAP1 POP PUSH2 0x11F2 JUMP JUMPDEST PUSH1 0x2 PUSH1 0x0 DUP4 DUP2 MSTORE PUSH1 0x20 ADD SWAP1 DUP2 MSTORE PUSH1 0x20 ADD PUSH1 0x0 KECCAK256 DUP1 SLOAD DUP1 PUSH1 0x20 MUL PUSH1 0x20 ADD PUSH1 0x40 MLOAD SWAP1 DUP2 ADD PUSH1 0x40 MSTORE DUP1 SWAP3 SWAP2 SWAP1 DUP2 DUP2 MSTORE PUSH1 0x20 ADD PUSH1 0x0 SWAP1 JUMPDEST DUP3 DUP3 LT ISZERO PUSH2 0x11EB JUMPI DUP4 DUP3 SWAP1 PUSH1 0x0 MSTORE PUSH1 0x20 PUSH1 0x0 KECCAK256 SWAP1 PUSH1 0x8 MUL ADD PUSH1 0x40 MLOAD DUP1 PUSH2 0x100 ADD PUSH1 0x40 MSTORE SWAP1 DUP2 PUSH1 0x0 DUP3 ADD SLOAD DUP2 MSTORE PUSH1 0x20 ADD PUSH1 0x1 DUP3 ADD DUP1 SLOAD PUSH2 0x1086 SWAP1 PUSH2 0x1FC2 JUMP JUMPDEST DUP1 PUSH1 0x1F ADD PUSH1 0x20 DUP1 SWAP2 DIV MUL PUSH1 0x20 ADD PUSH1 0x40 MLOAD SWAP1 DUP2 ADD PUSH1 0x40 MSTORE DUP1 SWAP3 SWAP2 SWAP1 DUP2 DUP2 MSTORE PUSH1 0x20 ADD DUP3 DUP1 SLOAD PUSH2 0x10B2 SWAP1 PUSH2 0x1FC2 JUMP JUMPDEST DUP1 ISZERO PUSH2 0x10FF JUMPI DUP1 PUSH1 0x1F LT PUSH2 0x10D4 JUMPI PUSH2 0x100 DUP1 DUP4 SLOAD DIV MUL DUP4 MSTORE SWAP2 PUSH1 0x20 ADD SWAP2 PUSH2 0x10FF JUMP JUMPDEST DUP3 ADD SWAP2 SWAP1 PUSH1 0x0 MSTORE PUSH1 0x20 PUSH1 0x0 KECCAK256 SWAP1 JUMPDEST DUP2 SLOAD DUP2 MSTORE SWAP1 PUSH1 0x1 ADD SWAP1 PUSH1 0x20 ADD DUP1 DUP4 GT PUSH2 0x10E2 JUMPI DUP3 SWAP1 SUB PUSH1 0x1F AND DUP3 ADD SWAP2 JUMPDEST POP POP POP POP POP DUP2 MSTORE PUSH1 0x20 ADD PUSH1 0x2 DUP3 ADD SLOAD DUP2 MSTORE PUSH1 0x20 ADD PUSH1 0x3 DUP3 ADD PUSH1 0x0 SWAP1 SLOAD SWAP1 PUSH2 0x100 EXP SWAP1 DIV PUSH20 0xFFFFFFFFFFFFFFFFFFFFFFFFFFFFFFFFFFFFFFFF AND PUSH20 0xFFFFFFFFFFFFFFFFFFFFFFFFFFFFFFFFFFFFFFFF AND PUSH20 0xFFFFFFFFFFFFFFFFFFFFFFFFFFFFFFFFFFFFFFFF AND DUP2 MSTORE PUSH1 0x20 ADD PUSH1 0x4 DUP3 ADD PUSH1 0x0 SWAP1 SLOAD SWAP1 PUSH2 0x100 EXP SWAP1 DIV PUSH20 0xFFFFFFFFFFFFFFFFFFFFFFFFFFFFFFFFFFFFFFFF AND PUSH20 0xFFFFFFFFFFFFFFFFFFFFFFFFFFFFFFFFFFFFFFFF AND PUSH20 0xFFFFFFFFFFFFFFFFFFFFFFFFFFFFFFFFFFFFFFFF AND DUP2 MSTORE PUSH1 0x20 ADD PUSH1 0x5 DUP3 ADD SLOAD DUP2 MSTORE PUSH1 0x20 ADD PUSH1 0x6 DUP3 ADD SLOAD DUP2 MSTORE PUSH1 0x20 ADD PUSH1 0x7 DUP3 ADD SLOAD DUP2 MSTORE POP POP DUP2 MSTORE PUSH1 0x20 ADD SWAP1 PUSH1 0x1 ADD SWAP1 PUSH2 0x1048 JUMP JUMPDEST POP POP POP POP SWAP1 POP JUMPDEST SWAP2 SWAP1 POP JUMP JUMPDEST PUSH1 0x0 DUP1 DUP2 SLOAD DUP1 SWAP3 SWAP2 SWAP1 PUSH2 0x1209 SWAP1 PUSH2 0x2025 JUMP JUMPDEST SWAP2 SWAP1 POP SSTORE POP PUSH1 0x0 PUSH1 0x40 MLOAD DUP1 PUSH2 0x100 ADD PUSH1 0x40 MSTORE DUP1 PUSH1 0x0 SLOAD DUP2 MSTORE PUSH1 0x20 ADD DUP6 DUP2 MSTORE PUSH1 0x20 ADD PUSH1 0x1 DUP2 MSTORE PUSH1 0x20 ADD CALLER PUSH20 0xFFFFFFFFFFFFFFFFFFFFFFFFFFFFFFFFFFFFFFFF AND DUP2 MSTORE PUSH1 0x20 ADD DUP5 PUSH20 0xFFFFFFFFFFFFFFFFFFFFFFFFFFFFFFFFFFFFFFFF AND DUP2 MSTORE PUSH1 0x20 ADD PUSH1 0x0 DUP2 MSTORE PUSH1 0x20 ADD DUP4 DUP2 MSTORE PUSH1 0x20 ADD PUSH1 0x0 DUP2 MSTORE POP SWAP1 POP PUSH1 0x1 DUP2 SWAP1 DUP1 PUSH1 0x1 DUP2 SLOAD ADD DUP1 DUP3 SSTORE DUP1 SWAP2 POP POP PUSH1 0x1 SWAP1 SUB SWAP1 PUSH1 0x0 MSTORE PUSH1 0x20 PUSH1 0x0 KECCAK256 SWAP1 PUSH1 0x8 MUL ADD PUSH1 0x0 SWAP1 SWAP2 SWAP1 SWAP2 SWAP1 SWAP2 POP PUSH1 0x0 DUP3 ADD MLOAD DUP2 PUSH1 0x0 ADD SSTORE PUSH1 0x20 DUP3 ADD MLOAD DUP2 PUSH1 0x1 ADD SWAP1 DUP1 MLOAD SWAP1 PUSH1 0x20 ADD SWAP1 PUSH2 0x12CF SWAP3 SWAP2 SWAP1 PUSH2 0x16D1 JUMP JUMPDEST POP PUSH1 0x40 DUP3 ADD MLOAD DUP2 PUSH1 0x2 ADD SSTORE PUSH1 0x60 DUP3 ADD MLOAD DUP2 PUSH1 0x3 ADD PUSH1 0x0 PUSH2 0x100 EXP DUP2 SLOAD DUP2 PUSH20 0xFFFFFFFFFFFFFFFFFFFFFFFFFFFFFFFFFFFFFFFF MUL NOT AND SWAP1 DUP4 PUSH20 0xFFFFFFFFFFFFFFFFFFFFFFFFFFFFFFFFFFFFFFFF AND MUL OR SWAP1 SSTORE POP PUSH1 0x80 DUP3 ADD MLOAD DUP2 PUSH1 0x4 ADD PUSH1 0x0 PUSH2 0x100 EXP DUP2 SLOAD DUP2 PUSH20 0xFFFFFFFFFFFFFFFFFFFFFFFFFFFFFFFFFFFFFFFF MUL NOT AND SWAP1 DUP4 PUSH20 0xFFFFFFFFFFFFFFFFFFFFFFFFFFFFFFFFFFFFFFFF AND MUL OR SWAP1 SSTORE POP PUSH1 0xA0 DUP3 ADD MLOAD DUP2 PUSH1 0x5 ADD SSTORE PUSH1 0xC0 DUP3 ADD MLOAD DUP2 PUSH1 0x6 ADD SSTORE PUSH1 0xE0 DUP3 ADD MLOAD DUP2 PUSH1 0x7 ADD SSTORE POP POP PUSH1 0x2 PUSH1 0x0 PUSH1 0x1 DUP2 MSTORE PUSH1 0x20 ADD SWAP1 DUP2 MSTORE PUSH1 0x20 ADD PUSH1 0x0 KECCAK256 DUP2 SWAP1 DUP1 PUSH1 0x1 DUP2 SLOAD ADD DUP1 DUP3 SSTORE DUP1 SWAP2 POP POP PUSH1 0x1 SWAP1 SUB SWAP1 PUSH1 0x0 MSTORE PUSH1 0x20 PUSH1 0x0 KECCAK256 SWAP1 PUSH1 0x8 MUL ADD PUSH1 0x0 SWAP1 SWAP2 SWAP1 SWAP2 SWAP1 SWAP2 POP PUSH1 0x0 DUP3 ADD MLOAD DUP2 PUSH1 0x0 ADD SSTORE PUSH1 0x20 DUP3 ADD MLOAD DUP2 PUSH1 0x1 ADD SWAP1 DUP1 MLOAD SWAP1 PUSH1 0x20 ADD SWAP1 PUSH2 0x13EC SWAP3 SWAP2 SWAP1 PUSH2 0x16D1 JUMP JUMPDEST POP PUSH1 0x40 DUP3 ADD MLOAD DUP2 PUSH1 0x2 ADD SSTORE PUSH1 0x60 DUP3 ADD MLOAD DUP2 PUSH1 0x3 ADD PUSH1 0x0 PUSH2 0x100 EXP DUP2 SLOAD DUP2 PUSH20 0xFFFFFFFFFFFFFFFFFFFFFFFFFFFFFFFFFFFFFFFF MUL NOT AND SWAP1 DUP4 PUSH20 0xFFFFFFFFFFFFFFFFFFFFFFFFFFFFFFFFFFFFFFFF AND MUL OR SWAP1 SSTORE POP PUSH1 0x80 DUP3 ADD MLOAD DUP2 PUSH1 0x4 ADD PUSH1 0x0 PUSH2 0x100 EXP DUP2 SLOAD DUP2 PUSH20 0xFFFFFFFFFFFFFFFFFFFFFFFFFFFFFFFFFFFFFFFF MUL NOT AND SWAP1 DUP4 PUSH20 0xFFFFFFFFFFFFFFFFFFFFFFFFFFFFFFFFFFFFFFFF AND MUL OR SWAP1 SSTORE POP PUSH1 0xA0 DUP3 ADD MLOAD DUP2 PUSH1 0x5 ADD SSTORE PUSH1 0xC0 DUP3 ADD MLOAD DUP2 PUSH1 0x6 ADD SSTORE PUSH1 0xE0 DUP3 ADD MLOAD DUP2 PUSH1 0x7 ADD SSTORE POP POP PUSH1 0x3 PUSH1 0x0 CALLER PUSH20 0xFFFFFFFFFFFFFFFFFFFFFFFFFFFFFFFFFFFFFFFF AND PUSH20 0xFFFFFFFFFFFFFFFFFFFFFFFFFFFFFFFFFFFFFFFF AND DUP2 MSTORE PUSH1 0x20 ADD SWAP1 DUP2 MSTORE PUSH1 0x20 ADD PUSH1 0x0 KECCAK256 DUP2 SWAP1 DUP1 PUSH1 0x1 DUP2 SLOAD ADD DUP1 DUP3 SSTORE DUP1 SWAP2 POP POP PUSH1 0x1 SWAP1 SUB SWAP1 PUSH1 0x0 MSTORE PUSH1 0x20 PUSH1 0x0 KECCAK256 SWAP1 PUSH1 0x8 MUL ADD PUSH1 0x0 SWAP1 SWAP2 SWAP1 SWAP2 SWAP1 SWAP2 POP PUSH1 0x0 DUP3 ADD MLOAD DUP2 PUSH1 0x0 ADD SSTORE PUSH1 0x20 DUP3 ADD MLOAD DUP2 PUSH1 0x1 ADD SWAP1 DUP1 MLOAD SWAP1 PUSH1 0x20 ADD SWAP1 PUSH2 0x1534 SWAP3 SWAP2 SWAP1 PUSH2 0x16D1 JUMP JUMPDEST POP PUSH1 0x40 DUP3 ADD MLOAD DUP2 PUSH1 0x2 ADD SSTORE PUSH1 0x60 DUP3 ADD MLOAD DUP2 PUSH1 0x3 ADD PUSH1 0x0 PUSH2 0x100 EXP DUP2 SLOAD DUP2 PUSH20 0xFFFFFFFFFFFFFFFFFFFFFFFFFFFFFFFFFFFFFFFF MUL NOT AND SWAP1 DUP4 PUSH20 0xFFFFFFFFFFFFFFFFFFFFFFFFFFFFFFFFFFFFFFFF AND MUL OR SWAP1 SSTORE POP PUSH1 0x80 DUP3 ADD MLOAD DUP2 PUSH1 0x4 ADD PUSH1 0x0 PUSH2 0x100 EXP DUP2 SLOAD DUP2 PUSH20 0xFFFFFFFFFFFFFFFFFFFFFFFFFFFFFFFFFFFFFFFF MUL NOT AND SWAP1 DUP4 PUSH20 0xFFFFFFFFFFFFFFFFFFFFFFFFFFFFFFFFFFFFFFFF AND MUL OR SWAP1 SSTORE POP PUSH1 0xA0 DUP3 ADD MLOAD DUP2 PUSH1 0x5 ADD SSTORE PUSH1 0xC0 DUP3 ADD MLOAD DUP2 PUSH1 0x6 ADD SSTORE PUSH1 0xE0 DUP3 ADD MLOAD DUP2 PUSH1 0x7 ADD SSTORE POP POP POP POP POP POP JUMP JUMPDEST PUSH1 0x0 CALLER PUSH20 0xFFFFFFFFFFFFFFFFFFFFFFFFFFFFFFFFFFFFFFFF AND DUP3 PUSH20 0xFFFFFFFFFFFFFFFFFFFFFFFFFFFFFFFFFFFFFFFF AND EQ SWAP1 POP SWAP2 SWAP1 POP JUMP JUMPDEST PUSH1 0x0 DUP1 DUP3 CALLER SWAP2 POP SWAP2 POP SWAP2 POP SWAP2 JUMP JUMPDEST PUSH1 0x0 DUP1 DUP3 SWAP1 POP PUSH1 0x0 DUP1 JUMPDEST DUP3 MLOAD DUP2 LT ISZERO PUSH2 0x16C6 JUMPI PUSH1 0x0 DUP4 DUP3 DUP2 MLOAD DUP2 LT PUSH2 0x1661 JUMPI PUSH2 0x1660 PUSH2 0x20FB JUMP JUMPDEST JUMPDEST PUSH1 0x20 ADD ADD MLOAD PUSH1 0xF8 SHR PUSH1 0xF8 SHL PUSH1 0xF8 SHR PUSH1 0xFF AND SWAP1 POP PUSH1 0x30 DUP2 LT ISZERO DUP1 ISZERO PUSH2 0x1686 JUMPI POP PUSH1 0x39 DUP2 GT ISZERO JUMPDEST ISZERO PUSH2 0x16B2 JUMPI PUSH1 0x30 DUP2 PUSH2 0x1698 SWAP2 SWAP1 PUSH2 0x1F04 JUMP JUMPDEST PUSH1 0xA DUP5 PUSH2 0x16A5 SWAP2 SWAP1 PUSH2 0x1EAA JUMP JUMPDEST PUSH2 0x16AF SWAP2 SWAP1 PUSH2 0x1E54 JUMP JUMPDEST SWAP3 POP JUMPDEST POP DUP1 DUP1 PUSH2 0x16BE SWAP1 PUSH2 0x2025 JUMP JUMPDEST SWAP2 POP POP PUSH2 0x1643 JUMP JUMPDEST POP DUP1 SWAP3 POP POP POP SWAP2 SWAP1 POP JUMP JUMPDEST DUP3 DUP1 SLOAD PUSH2 0x16DD SWAP1 PUSH2 0x1FC2 JUMP JUMPDEST SWAP1 PUSH1 0x0 MSTORE PUSH1 0x20 PUSH1 0x0 KECCAK256 SWAP1 PUSH1 0x1F ADD PUSH1 0x20 SWAP1 DIV DUP2 ADD SWAP3 DUP3 PUSH2 0x16FF JUMPI PUSH1 0x0 DUP6 SSTORE PUSH2 0x1746 JUMP JUMPDEST DUP3 PUSH1 0x1F LT PUSH2 0x1718 JUMPI DUP1 MLOAD PUSH1 0xFF NOT AND DUP4 DUP1 ADD OR DUP6 SSTORE PUSH2 0x1746 JUMP JUMPDEST DUP3 DUP1 ADD PUSH1 0x1 ADD DUP6 SSTORE DUP3 ISZERO PUSH2 0x1746 JUMPI SWAP2 DUP3 ADD JUMPDEST DUP3 DUP2 GT ISZERO PUSH2 0x1745 JUMPI DUP3 MLOAD DUP3 SSTORE SWAP2 PUSH1 0x20 ADD SWAP2 SWAP1 PUSH1 0x1 ADD SWAP1 PUSH2 0x172A JUMP JUMPDEST JUMPDEST POP SWAP1 POP PUSH2 0x1753 SWAP2 SWAP1 PUSH2 0x1824 JUMP JUMPDEST POP SWAP1 JUMP JUMPDEST POP DUP1 SLOAD PUSH2 0x1763 SWAP1 PUSH2 0x1FC2 JUMP JUMPDEST PUSH1 0x0 DUP3 SSTORE DUP1 PUSH1 0x1F LT PUSH2 0x1775 JUMPI POP PUSH2 0x1794 JUMP JUMPDEST PUSH1 0x1F ADD PUSH1 0x20 SWAP1 DIV SWAP1 PUSH1 0x0 MSTORE PUSH1 0x20 PUSH1 0x0 KECCAK256 SWAP1 DUP2 ADD SWAP1 PUSH2 0x1793 SWAP2 SWAP1 PUSH2 0x1824 JUMP JUMPDEST JUMPDEST POP JUMP JUMPDEST DUP3 DUP1 SLOAD PUSH2 0x17A3 SWAP1 PUSH2 0x1FC2 JUMP JUMPDEST SWAP1 PUSH1 0x0 MSTORE PUSH1 0x20 PUSH1 0x0 KECCAK256 SWAP1 PUSH1 0x1F ADD PUSH1 0x20 SWAP1 DIV DUP2 ADD SWAP3 DUP3 PUSH2 0x17C5 JUMPI PUSH1 0x0 DUP6 SSTORE PUSH2 0x1813 JUMP JUMPDEST DUP3 PUSH1 0x1F LT PUSH2 0x17D6 JUMPI DUP1 SLOAD DUP6 SSTORE PUSH2 0x1813 JUMP JUMPDEST DUP3 DUP1 ADD PUSH1 0x1 ADD DUP6 SSTORE DUP3 ISZERO PUSH2 0x1813 JUMPI PUSH1 0x0 MSTORE PUSH1 0x20 PUSH1 0x0 KECCAK256 SWAP2 PUSH1 0x1F ADD PUSH1 0x20 SWAP1 DIV DUP3 ADD JUMPDEST DUP3 DUP2 GT ISZERO PUSH2 0x1812 JUMPI DUP3 SLOAD DUP3 SSTORE SWAP2 PUSH1 0x1 ADD SWAP2 SWAP1 PUSH1 0x1 ADD SWAP1 PUSH2 0x17F7 JUMP JUMPDEST JUMPDEST POP SWAP1 POP PUSH2 0x1820 SWAP2 SWAP1 PUSH2 0x1824 JUMP JUMPDEST POP SWAP1 JUMP JUMPDEST JUMPDEST DUP1 DUP3 GT ISZERO PUSH2 0x183D JUMPI PUSH1 0x0 DUP2 PUSH1 0x0 SWAP1 SSTORE POP PUSH1 0x1 ADD PUSH2 0x1825 JUMP JUMPDEST POP SWAP1 JUMP JUMPDEST PUSH1 0x0 PUSH2 0x1854 PUSH2 0x184F DUP5 PUSH2 0x1DBD JUMP JUMPDEST PUSH2 0x1D98 JUMP JUMPDEST SWAP1 POP DUP3 DUP2 MSTORE PUSH1 0x20 DUP2 ADD DUP5 DUP5 DUP5 ADD GT ISZERO PUSH2 0x1870 JUMPI PUSH2 0x186F PUSH2 0x215E JUMP JUMPDEST JUMPDEST PUSH2 0x187B DUP5 DUP3 DUP6 PUSH2 0x1F80 JUMP JUMPDEST POP SWAP4 SWAP3 POP POP POP JUMP JUMPDEST PUSH1 0x0 DUP2 CALLDATALOAD SWAP1 POP PUSH2 0x1892 DUP2 PUSH2 0x217E JUMP JUMPDEST SWAP3 SWAP2 POP POP JUMP JUMPDEST PUSH1 0x0 DUP3 PUSH1 0x1F DUP4 ADD SLT PUSH2 0x18AD JUMPI PUSH2 0x18AC PUSH2 0x2159 JUMP JUMPDEST JUMPDEST DUP2 CALLDATALOAD PUSH2 0x18BD DUP5 DUP3 PUSH1 0x20 DUP7 ADD PUSH2 0x1841 JUMP JUMPDEST SWAP2 POP POP SWAP3 SWAP2 POP POP JUMP JUMPDEST PUSH1 0x0 DUP2 CALLDATALOAD SWAP1 POP PUSH2 0x18D5 DUP2 PUSH2 0x2195 JUMP JUMPDEST SWAP3 SWAP2 POP POP JUMP JUMPDEST PUSH1 0x0 PUSH1 0x20 DUP3 DUP5 SUB SLT ISZERO PUSH2 0x18F1 JUMPI PUSH2 0x18F0 PUSH2 0x2168 JUMP JUMPDEST JUMPDEST PUSH1 0x0 PUSH2 0x18FF DUP5 DUP3 DUP6 ADD PUSH2 0x1883 JUMP JUMPDEST SWAP2 POP POP SWAP3 SWAP2 POP POP JUMP JUMPDEST PUSH1 0x0 PUSH1 0x20 DUP3 DUP5 SUB SLT ISZERO PUSH2 0x191E JUMPI PUSH2 0x191D PUSH2 0x2168 JUMP JUMPDEST JUMPDEST PUSH1 0x0 DUP3 ADD CALLDATALOAD PUSH8 0xFFFFFFFFFFFFFFFF DUP2 GT ISZERO PUSH2 0x193C JUMPI PUSH2 0x193B PUSH2 0x2163 JUMP JUMPDEST JUMPDEST PUSH2 0x1948 DUP5 DUP3 DUP6 ADD PUSH2 0x1898 JUMP JUMPDEST SWAP2 POP POP SWAP3 SWAP2 POP POP JUMP JUMPDEST PUSH1 0x0 DUP1 PUSH1 0x0 PUSH1 0x60 DUP5 DUP7 SUB SLT ISZERO PUSH2 0x196A JUMPI PUSH2 0x1969 PUSH2 0x2168 JUMP JUMPDEST JUMPDEST PUSH1 0x0 DUP5 ADD CALLDATALOAD PUSH8 0xFFFFFFFFFFFFFFFF DUP2 GT ISZERO PUSH2 0x1988 JUMPI PUSH2 0x1987 PUSH2 0x2163 JUMP JUMPDEST JUMPDEST PUSH2 0x1994 DUP7 DUP3 DUP8 ADD PUSH2 0x1898 JUMP JUMPDEST SWAP4 POP POP PUSH1 0x20 PUSH2 0x19A5 DUP7 DUP3 DUP8 ADD PUSH2 0x1883 JUMP JUMPDEST SWAP3 POP POP PUSH1 0x40 PUSH2 0x19B6 DUP7 DUP3 DUP8 ADD PUSH2 0x18C6 JUMP JUMPDEST SWAP2 POP POP SWAP3 POP SWAP3 POP SWAP3 JUMP JUMPDEST PUSH1 0x0 PUSH1 0x20 DUP3 DUP5 SUB SLT ISZERO PUSH2 0x19D6 JUMPI PUSH2 0x19D5 PUSH2 0x2168 JUMP JUMPDEST JUMPDEST PUSH1 0x0 PUSH2 0x19E4 DUP5 DUP3 DUP6 ADD PUSH2 0x18C6 JUMP JUMPDEST SWAP2 POP POP SWAP3 SWAP2 POP POP JUMP JUMPDEST PUSH1 0x0 DUP1 PUSH1 0x40 DUP4 DUP6 SUB SLT ISZERO PUSH2 0x1A04 JUMPI PUSH2 0x1A03 PUSH2 0x2168 JUMP JUMPDEST JUMPDEST PUSH1 0x0 PUSH2 0x1A12 DUP6 DUP3 DUP7 ADD PUSH2 0x18C6 JUMP JUMPDEST SWAP3 POP POP PUSH1 0x20 DUP4 ADD CALLDATALOAD PUSH8 0xFFFFFFFFFFFFFFFF DUP2 GT ISZERO PUSH2 0x1A33 JUMPI PUSH2 0x1A32 PUSH2 0x2163 JUMP JUMPDEST JUMPDEST PUSH2 0x1A3F DUP6 DUP3 DUP7 ADD PUSH2 0x1898 JUMP JUMPDEST SWAP2 POP POP SWAP3 POP SWAP3 SWAP1 POP JUMP JUMPDEST PUSH1 0x0 DUP1 PUSH1 0x0 PUSH1 0x60 DUP5 DUP7 SUB SLT ISZERO PUSH2 0x1A62 JUMPI PUSH2 0x1A61 PUSH2 0x2168 JUMP JUMPDEST JUMPDEST PUSH1 0x0 PUSH2 0x1A70 DUP7 DUP3 DUP8 ADD PUSH2 0x18C6 JUMP JUMPDEST SWAP4 POP POP PUSH1 0x20 PUSH2 0x1A81 DUP7 DUP3 DUP8 ADD PUSH2 0x18C6 JUMP JUMPDEST SWAP3 POP POP PUSH1 0x40 PUSH2 0x1A92 DUP7 DUP3 DUP8 ADD PUSH2 0x1883 JUMP JUMPDEST SWAP2 POP POP SWAP3 POP SWAP3 POP SWAP3 JUMP JUMPDEST PUSH1 0x0 PUSH2 0x1AA8 DUP4 DUP4 PUSH2 0x1BC4 JUMP JUMPDEST SWAP1 POP SWAP3 SWAP2 POP POP JUMP JUMPDEST PUSH2 0x1AB9 DUP2 PUSH2 0x1F38 JUMP JUMPDEST DUP3 MSTORE POP POP JUMP JUMPDEST PUSH2 0x1AC8 DUP2 PUSH2 0x1F38 JUMP JUMPDEST DUP3 MSTORE POP POP JUMP JUMPDEST PUSH1 0x0 PUSH2 0x1AD9 DUP3 PUSH2 0x1DFE JUMP JUMPDEST PUSH2 0x1AE3 DUP2 DUP6 PUSH2 0x1E21 JUMP JUMPDEST SWAP4 POP DUP4 PUSH1 0x20 DUP3 MUL DUP6 ADD PUSH2 0x1AF5 DUP6 PUSH2 0x1DEE JUMP JUMPDEST DUP1 PUSH1 0x0 JUMPDEST DUP6 DUP2 LT ISZERO PUSH2 0x1B31 JUMPI DUP5 DUP5 SUB DUP10 MSTORE DUP2 MLOAD PUSH2 0x1B12 DUP6 DUP3 PUSH2 0x1A9C JUMP JUMPDEST SWAP5 POP PUSH2 0x1B1D DUP4 PUSH2 0x1E14 JUMP JUMPDEST SWAP3 POP PUSH1 0x20 DUP11 ADD SWAP10 POP POP PUSH1 0x1 DUP2 ADD SWAP1 POP PUSH2 0x1AF9 JUMP JUMPDEST POP DUP3 SWAP8 POP DUP8 SWAP6 POP POP POP POP POP POP SWAP3 SWAP2 POP POP JUMP JUMPDEST PUSH2 0x1B4C DUP2 PUSH2 0x1F4A JUMP JUMPDEST DUP3 MSTORE POP POP JUMP JUMPDEST PUSH1 0x0 PUSH2 0x1B5D DUP3 PUSH2 0x1E09 JUMP JUMPDEST PUSH2 0x1B67 DUP2 DUP6 PUSH2 0x1E32 JUMP JUMPDEST SWAP4 POP PUSH2 0x1B77 DUP2 DUP6 PUSH1 0x20 DUP7 ADD PUSH2 0x1F8F JUMP JUMPDEST PUSH2 0x1B80 DUP2 PUSH2 0x216D JUMP JUMPDEST DUP5 ADD SWAP2 POP POP SWAP3 SWAP2 POP POP JUMP JUMPDEST PUSH1 0x0 PUSH2 0x1B96 DUP3 PUSH2 0x1E09 JUMP JUMPDEST PUSH2 0x1BA0 DUP2 DUP6 PUSH2 0x1E43 JUMP JUMPDEST SWAP4 POP PUSH2 0x1BB0 DUP2 DUP6 PUSH1 0x20 DUP7 ADD PUSH2 0x1F8F JUMP JUMPDEST PUSH2 0x1BB9 DUP2 PUSH2 0x216D JUMP JUMPDEST DUP5 ADD SWAP2 POP POP SWAP3 SWAP2 POP POP JUMP JUMPDEST PUSH1 0x0 PUSH2 0x100 DUP4 ADD PUSH1 0x0 DUP4 ADD MLOAD PUSH2 0x1BDD PUSH1 0x0 DUP7 ADD DUP3 PUSH2 0x1C74 JUMP JUMPDEST POP PUSH1 0x20 DUP4 ADD MLOAD DUP5 DUP3 SUB PUSH1 0x20 DUP7 ADD MSTORE PUSH2 0x1BF5 DUP3 DUP3 PUSH2 0x1B52 JUMP JUMPDEST SWAP2 POP POP PUSH1 0x40 DUP4 ADD MLOAD PUSH2 0x1C0A PUSH1 0x40 DUP7 ADD DUP3 PUSH2 0x1C74 JUMP JUMPDEST POP PUSH1 0x60 DUP4 ADD MLOAD PUSH2 0x1C1D PUSH1 0x60 DUP7 ADD DUP3 PUSH2 0x1AB0 JUMP JUMPDEST POP PUSH1 0x80 DUP4 ADD MLOAD PUSH2 0x1C30 PUSH1 0x80 DUP7 ADD DUP3 PUSH2 0x1AB0 JUMP JUMPDEST POP PUSH1 0xA0 DUP4 ADD MLOAD PUSH2 0x1C43 PUSH1 0xA0 DUP7 ADD DUP3 PUSH2 0x1C74 JUMP JUMPDEST POP PUSH1 0xC0 DUP4 ADD MLOAD PUSH2 0x1C56 PUSH1 0xC0 DUP7 ADD DUP3 PUSH2 0x1C74 JUMP JUMPDEST POP PUSH1 0xE0 DUP4 ADD MLOAD PUSH2 0x1C69 PUSH1 0xE0 DUP7 ADD DUP3 PUSH2 0x1C74 JUMP JUMPDEST POP DUP1 SWAP2 POP POP SWAP3 SWAP2 POP POP JUMP JUMPDEST PUSH2 0x1C7D DUP2 PUSH2 0x1F76 JUMP JUMPDEST DUP3 MSTORE POP POP JUMP JUMPDEST PUSH2 0x1C8C DUP2 PUSH2 0x1F76 JUMP JUMPDEST DUP3 MSTORE POP POP JUMP JUMPDEST PUSH1 0x0 PUSH1 0x40 DUP3 ADD SWAP1 POP PUSH2 0x1CA7 PUSH1 0x0 DUP4 ADD DUP6 PUSH2 0x1ABF JUMP JUMPDEST PUSH2 0x1CB4 PUSH1 0x20 DUP4 ADD DUP5 PUSH2 0x1ABF JUMP JUMPDEST SWAP4 SWAP3 POP POP POP JUMP JUMPDEST PUSH1 0x0 PUSH1 0x20 DUP3 ADD SWAP1 POP DUP2 DUP2 SUB PUSH1 0x0 DUP4 ADD MSTORE PUSH2 0x1CD5 DUP2 DUP5 PUSH2 0x1ACE JUMP JUMPDEST SWAP1 POP SWAP3 SWAP2 POP POP JUMP JUMPDEST PUSH1 0x0 PUSH1 0x20 DUP3 ADD SWAP1 POP PUSH2 0x1CF2 PUSH1 0x0 DUP4 ADD DUP5 PUSH2 0x1B43 JUMP JUMPDEST SWAP3 SWAP2 POP POP JUMP JUMPDEST PUSH1 0x0 PUSH1 0x20 DUP3 ADD SWAP1 POP PUSH2 0x1D0D PUSH1 0x0 DUP4 ADD DUP5 PUSH2 0x1C83 JUMP JUMPDEST SWAP3 SWAP2 POP POP JUMP JUMPDEST PUSH1 0x0 PUSH2 0x100 DUP3 ADD SWAP1 POP PUSH2 0x1D29 PUSH1 0x0 DUP4 ADD DUP12 PUSH2 0x1C83 JUMP JUMPDEST DUP2 DUP2 SUB PUSH1 0x20 DUP4 ADD MSTORE PUSH2 0x1D3B DUP2 DUP11 PUSH2 0x1B8B JUMP JUMPDEST SWAP1 POP PUSH2 0x1D4A PUSH1 0x40 DUP4 ADD DUP10 PUSH2 0x1C83 JUMP JUMPDEST PUSH2 0x1D57 PUSH1 0x60 DUP4 ADD DUP9 PUSH2 0x1ABF JUMP JUMPDEST PUSH2 0x1D64 PUSH1 0x80 DUP4 ADD DUP8 PUSH2 0x1ABF JUMP JUMPDEST PUSH2 0x1D71 PUSH1 0xA0 DUP4 ADD DUP7 PUSH2 0x1C83 JUMP JUMPDEST PUSH2 0x1D7E PUSH1 0xC0 DUP4 ADD DUP6 PUSH2 0x1C83 JUMP JUMPDEST PUSH2 0x1D8B PUSH1 0xE0 DUP4 ADD DUP5 PUSH2 0x1C83 JUMP JUMPDEST SWAP10 SWAP9 POP POP POP POP POP POP POP POP POP JUMP JUMPDEST PUSH1 0x0 PUSH2 0x1DA2 PUSH2 0x1DB3 JUMP JUMPDEST SWAP1 POP PUSH2 0x1DAE DUP3 DUP3 PUSH2 0x1FF4 JUMP JUMPDEST SWAP2 SWAP1 POP JUMP JUMPDEST PUSH1 0x0 PUSH1 0x40 MLOAD SWAP1 POP SWAP1 JUMP JUMPDEST PUSH1 0x0 PUSH8 0xFFFFFFFFFFFFFFFF DUP3 GT ISZERO PUSH2 0x1DD8 JUMPI PUSH2 0x1DD7 PUSH2 0x212A JUMP JUMPDEST JUMPDEST PUSH2 0x1DE1 DUP3 PUSH2 0x216D JUMP JUMPDEST SWAP1 POP PUSH1 0x20 DUP2 ADD SWAP1 POP SWAP2 SWAP1 POP JUMP JUMPDEST PUSH1 0x0 DUP2 SWAP1 POP PUSH1 0x20 DUP3 ADD SWAP1 POP SWAP2 SWAP1 POP JUMP JUMPDEST PUSH1 0x0 DUP2 MLOAD SWAP1 POP SWAP2 SWAP1 POP JUMP JUMPDEST PUSH1 0x0 DUP2 MLOAD SWAP1 POP SWAP2 SWAP1 POP JUMP JUMPDEST PUSH1 0x0 PUSH1 0x20 DUP3 ADD SWAP1 POP SWAP2 SWAP1 POP JUMP JUMPDEST PUSH1 0x0 DUP3 DUP3 MSTORE PUSH1 0x20 DUP3 ADD SWAP1 POP SWAP3 SWAP2 POP POP JUMP JUMPDEST PUSH1 0x0 DUP3 DUP3 MSTORE PUSH1 0x20 DUP3 ADD SWAP1 POP SWAP3 SWAP2 POP POP JUMP JUMPDEST PUSH1 0x0 DUP3 DUP3 MSTORE PUSH1 0x20 DUP3 ADD SWAP1 POP SWAP3 SWAP2 POP POP JUMP JUMPDEST PUSH1 0x0 PUSH2 0x1E5F DUP3 PUSH2 0x1F76 JUMP JUMPDEST SWAP2 POP PUSH2 0x1E6A DUP4 PUSH2 0x1F76 JUMP JUMPDEST SWAP3 POP DUP3 PUSH32 0xFFFFFFFFFFFFFFFFFFFFFFFFFFFFFFFFFFFFFFFFFFFFFFFFFFFFFFFFFFFFFFFF SUB DUP3 GT ISZERO PUSH2 0x1E9F JUMPI PUSH2 0x1E9E PUSH2 0x206E JUMP JUMPDEST JUMPDEST DUP3 DUP3 ADD SWAP1 POP SWAP3 SWAP2 POP POP JUMP JUMPDEST PUSH1 0x0 PUSH2 0x1EB5 DUP3 PUSH2 0x1F76 JUMP JUMPDEST SWAP2 POP PUSH2 0x1EC0 DUP4 PUSH2 0x1F76 JUMP JUMPDEST SWAP3 POP DUP2 PUSH32 0xFFFFFFFFFFFFFFFFFFFFFFFFFFFFFFFFFFFFFFFFFFFFFFFFFFFFFFFFFFFFFFFF DIV DUP4 GT DUP3 ISZERO ISZERO AND ISZERO PUSH2 0x1EF9 JUMPI PUSH2 0x1EF8 PUSH2 0x206E JUMP JUMPDEST JUMPDEST DUP3 DUP3 MUL SWAP1 POP SWAP3 SWAP2 POP POP JUMP JUMPDEST PUSH1 0x0 PUSH2 0x1F0F DUP3 PUSH2 0x1F76 JUMP JUMPDEST SWAP2 POP PUSH2 0x1F1A DUP4 PUSH2 0x1F76 JUMP JUMPDEST SWAP3 POP DUP3 DUP3 LT ISZERO PUSH2 0x1F2D JUMPI PUSH2 0x1F2C PUSH2 0x206E JUMP JUMPDEST JUMPDEST DUP3 DUP3 SUB SWAP1 POP SWAP3 SWAP2 POP POP JUMP JUMPDEST PUSH1 0x0 PUSH2 0x1F43 DUP3 PUSH2 0x1F56 JUMP JUMPDEST SWAP1 POP SWAP2 SWAP1 POP JUMP JUMPDEST PUSH1 0x0 DUP2 ISZERO ISZERO SWAP1 POP SWAP2 SWAP1 POP JUMP JUMPDEST PUSH1 0x0 PUSH20 0xFFFFFFFFFFFFFFFFFFFFFFFFFFFFFFFFFFFFFFFF DUP3 AND SWAP1 POP SWAP2 SWAP1 POP JUMP JUMPDEST PUSH1 0x0 DUP2 SWAP1 POP SWAP2 SWAP1 POP JUMP JUMPDEST DUP3 DUP2 DUP4 CALLDATACOPY PUSH1 0x0 DUP4 DUP4 ADD MSTORE POP POP POP JUMP JUMPDEST PUSH1 0x0 JUMPDEST DUP4 DUP2 LT ISZERO PUSH2 0x1FAD JUMPI DUP1 DUP3 ADD MLOAD DUP2 DUP5 ADD MSTORE PUSH1 0x20 DUP2 ADD SWAP1 POP PUSH2 0x1F92 JUMP JUMPDEST DUP4 DUP2 GT ISZERO PUSH2 0x1FBC JUMPI PUSH1 0x0 DUP5 DUP5 ADD MSTORE JUMPDEST POP POP POP POP JUMP JUMPDEST PUSH1 0x0 PUSH1 0x2 DUP3 DIV SWAP1 POP PUSH1 0x1 DUP3 AND DUP1 PUSH2 0x1FDA JUMPI PUSH1 0x7F DUP3 AND SWAP2 POP JUMPDEST PUSH1 0x20 DUP3 LT DUP2 EQ ISZERO PUSH2 0x1FEE JUMPI PUSH2 0x1FED PUSH2 0x209D JUMP JUMPDEST JUMPDEST POP SWAP2 SWAP1 POP JUMP JUMPDEST PUSH2 0x1FFD DUP3 PUSH2 0x216D JUMP JUMPDEST DUP2 ADD DUP2 DUP2 LT PUSH8 0xFFFFFFFFFFFFFFFF DUP3 GT OR ISZERO PUSH2 0x201C JUMPI PUSH2 0x201B PUSH2 0x212A JUMP JUMPDEST JUMPDEST DUP1 PUSH1 0x40 MSTORE POP POP POP JUMP JUMPDEST PUSH1 0x0 PUSH2 0x2030 DUP3 PUSH2 0x1F76 JUMP JUMPDEST SWAP2 POP PUSH32 0xFFFFFFFFFFFFFFFFFFFFFFFFFFFFFFFFFFFFFFFFFFFFFFFFFFFFFFFFFFFFFFFF DUP3 EQ ISZERO PUSH2 0x2063 JUMPI PUSH2 0x2062 PUSH2 0x206E JUMP JUMPDEST JUMPDEST PUSH1 0x1 DUP3 ADD SWAP1 POP SWAP2 SWAP1 POP JUMP JUMPDEST PUSH32 0x4E487B7100000000000000000000000000000000000000000000000000000000 PUSH1 0x0 MSTORE PUSH1 0x11 PUSH1 0x4 MSTORE PUSH1 0x24 PUSH1 0x0 REVERT JUMPDEST PUSH32 0x4E487B7100000000000000000000000000000000000000000000000000000000 PUSH1 0x0 MSTORE PUSH1 0x22 PUSH1 0x4 MSTORE PUSH1 0x24 PUSH1 0x0 REVERT JUMPDEST PUSH32 0x4E487B7100000000000000000000000000000000000000000000000000000000 PUSH1 0x0 MSTORE PUSH1 0x31 PUSH1 0x4 MSTORE PUSH1 0x24 PUSH1 0x0 REVERT JUMPDEST PUSH32 0x4E487B7100000000000000000000000000000000000000000000000000000000 PUSH1 0x0 MSTORE PUSH1 0x32 PUSH1 0x4 MSTORE PUSH1 0x24 PUSH1 0x0 REVERT JUMPDEST PUSH32 0x4E487B7100000000000000000000000000000000000000000000000000000000 PUSH1 0x0 MSTORE PUSH1 0x41 PUSH1 0x4 MSTORE PUSH1 0x24 PUSH1 0x0 REVERT JUMPDEST PUSH1 0x0 DUP1 REVERT JUMPDEST PUSH1 0x0 DUP1 REVERT JUMPDEST PUSH1 0x0 DUP1 REVERT JUMPDEST PUSH1 0x0 DUP1 REVERT JUMPDEST PUSH1 0x0 PUSH1 0x1F NOT PUSH1 0x1F DUP4 ADD AND SWAP1 POP SWAP2 SWAP1 POP JUMP JUMPDEST PUSH2 0x2187 DUP2 PUSH2 0x1F38 JUMP JUMPDEST DUP2 EQ PUSH2 0x2192 JUMPI PUSH1 0x0 DUP1 REVERT JUMPDEST POP JUMP JUMPDEST PUSH2 0x219E DUP2 PUSH2 0x1F76 JUMP JUMPDEST DUP2 EQ PUSH2 0x21A9 JUMPI PUSH1 0x0 DUP1 REVERT JUMPDEST POP JUMP INVALID LOG2 PUSH5 0x6970667358 0x22 SLT KECCAK256 SAR CALLER GASLIMIT SWAP7 PUSH14 0x59763E5500020FD468CE9125A4F4 DUP3 0xEF 0xF7 0x1F 0xE8 MUL SWAP6 0xE3 MULMOD NOT PUSH31 0xB7AA64736F6C63430008070033000000000000000000000000000000000000 "
				},
				"gasEstimates": {
					"creation": {
						"codeDepositCost": "1734800",
						"executionCost": "1827",
						"totalCost": "1736627"
					},
					"external": {
						"createCrowdfunding(string,address,uint256)": "infinite",
						"getCrowdfundingByStatus(uint256)": "infinite",
						"getMyCrowdfunding(address)": "infinite",
						"join(uint256,uint256,address)": "infinite",
						"list(uint256)": "infinite",
						"setStatus(uint256)": "infinite",
						"setTitle(uint256,string)": "infinite",
						"stringToInt(string)": "infinite",
						"test(address)": "infinite",
						"test2(address)": "718"
					}
				},
				"methodIdentifiers": {
					"createCrowdfunding(string,address,uint256)": "ac8b1300",
					"getCrowdfundingByStatus(uint256)": "904cc175",
					"getMyCrowdfunding(address)": "377e6ff7",
					"join(uint256,uint256,address)": "575b70d0",
					"list(uint256)": "80c9419e",
					"setStatus(uint256)": "69ba1a75",
					"setTitle(uint256,string)": "5102bc9d",
					"stringToInt(string)": "f8a02d84",
					"test(address)": "bb29998e",
					"test2(address)": "b11bead4"
				}
			},
			"storageLayout": {
				"storage": [
					{
						"astId": 3,
						"contract": "crowdfunding.sol:CrowdfundingContract",
						"label": "No",
						"offset": 0,
						"slot": "0",
						"type": "t_uint256"
					},
					{
						"astId": 24,
						"contract": "crowdfunding.sol:CrowdfundingContract",
						"label": "list",
						"offset": 0,
						"slot": "1",
						"type": "t_array(t_struct(Crowdfunding)20_storage)dyn_storage"
					},
					{
						"astId": 30,
						"contract": "crowdfunding.sol:CrowdfundingContract",
						"label": "filterDataByStatus",
						"offset": 0,
						"slot": "2",
						"type": "t_mapping(t_uint256,t_array(t_struct(Crowdfunding)20_storage)dyn_storage)"
					},
					{
						"astId": 36,
						"contract": "crowdfunding.sol:CrowdfundingContract",
						"label": "myCrowdfunding",
						"offset": 0,
						"slot": "3",
						"type": "t_mapping(t_address,t_array(t_struct(Crowdfunding)20_storage)dyn_storage)"
					},
					{
						"astId": 41,
						"contract": "crowdfunding.sol:CrowdfundingContract",
						"label": "calcJoinNum",
						"offset": 0,
						"slot": "4",
						"type": "t_mapping(t_uint256,t_array(t_address)dyn_storage)"
					}
				],
				"types": {
					"t_address": {
						"encoding": "inplace",
						"label": "address",
						"numberOfBytes": "20"
					},
					"t_array(t_address)dyn_storage": {
						"base": "t_address",
						"encoding": "dynamic_array",
						"label": "address[]",
						"numberOfBytes": "32"
					},
					"t_array(t_struct(Crowdfunding)20_storage)dyn_storage": {
						"base": "t_struct(Crowdfunding)20_storage",
						"encoding": "dynamic_array",
						"label": "struct CrowdfundingContract.Crowdfunding[]",
						"numberOfBytes": "32"
					},
					"t_mapping(t_address,t_array(t_struct(Crowdfunding)20_storage)dyn_storage)": {
						"encoding": "mapping",
						"key": "t_address",
						"label": "mapping(address => struct CrowdfundingContract.Crowdfunding[])",
						"numberOfBytes": "32",
						"value": "t_array(t_struct(Crowdfunding)20_storage)dyn_storage"
					},
					"t_mapping(t_uint256,t_array(t_address)dyn_storage)": {
						"encoding": "mapping",
						"key": "t_uint256",
						"label": "mapping(uint256 => address[])",
						"numberOfBytes": "32",
						"value": "t_array(t_address)dyn_storage"
					},
					"t_mapping(t_uint256,t_array(t_struct(Crowdfunding)20_storage)dyn_storage)": {
						"encoding": "mapping",
						"key": "t_uint256",
						"label": "mapping(uint256 => struct CrowdfundingContract.Crowdfunding[])",
						"numberOfBytes": "32",
						"value": "t_array(t_struct(Crowdfunding)20_storage)dyn_storage"
					},
					"t_string_storage": {
						"encoding": "bytes",
						"label": "string",
						"numberOfBytes": "32"
					},
					"t_struct(Crowdfunding)20_storage": {
						"encoding": "inplace",
						"label": "struct CrowdfundingContract.Crowdfunding",
						"members": [
							{
								"astId": 5,
								"contract": "crowdfunding.sol:CrowdfundingContract",
								"label": "num",
								"offset": 0,
								"slot": "0",
								"type": "t_uint256"
							},
							{
								"astId": 7,
								"contract": "crowdfunding.sol:CrowdfundingContract",
								"label": "title",
								"offset": 0,
								"slot": "1",
								"type": "t_string_storage"
							},
							{
								"astId": 9,
								"contract": "crowdfunding.sol:CrowdfundingContract",
								"label": "status",
								"offset": 0,
								"slot": "2",
								"type": "t_uint256"
							},
							{
								"astId": 11,
								"contract": "crowdfunding.sol:CrowdfundingContract",
								"label": "creator",
								"offset": 0,
								"slot": "3",
								"type": "t_address"
							},
							{
								"astId": 13,
								"contract": "crowdfunding.sol:CrowdfundingContract",
								"label": "recipient",
								"offset": 0,
								"slot": "4",
								"type": "t_address"
							},
							{
								"astId": 15,
								"contract": "crowdfunding.sol:CrowdfundingContract",
								"label": "joinNum",
								"offset": 0,
								"slot": "5",
								"type": "t_uint256"
							},
							{
								"astId": 17,
								"contract": "crowdfunding.sol:CrowdfundingContract",
								"label": "expectAmout",
								"offset": 0,
								"slot": "6",
								"type": "t_uint256"
							},
							{
								"astId": 19,
								"contract": "crowdfunding.sol:CrowdfundingContract",
								"label": "actualAmount",
								"offset": 0,
								"slot": "7",
								"type": "t_uint256"
							}
						],
						"numberOfBytes": "256"
					},
					"t_uint256": {
						"encoding": "inplace",
						"label": "uint256",
						"numberOfBytes": "32"
					}
				}
			},
			"userdoc": {
				"kind": "user",
				"methods": {},
				"version": 1
			}
		}
	}
}