{
	"todoList.sol": {
		"TodoListData": {
			"abi": [
				{
					"inputs": [
						{
							"internalType": "uint256",
							"name": "_id",
							"type": "uint256"
						},
						{
							"internalType": "string",
							"name": "_val",
							"type": "string"
						}
					],
					"name": "addTask",
					"outputs": [],
					"stateMutability": "nonpayable",
					"type": "function"
				},
				{
					"inputs": [],
					"name": "getList",
					"outputs": [
						{
							"components": [
								{
									"internalType": "uint256",
									"name": "id",
									"type": "uint256"
								},
								{
									"internalType": "string",
									"name": "value",
									"type": "string"
								}
							],
							"internalType": "struct TodoListData.Task[]",
							"name": "",
							"type": "tuple[]"
						}
					],
					"stateMutability": "view",
					"type": "function"
				}
			],
			"devdoc": {
				"kind": "dev",
				"methods": {},
				"version": 1
			},
			"evm": {
				"assembly": "    /* \"todoList.sol\":61:374  contract TodoListData {\r... */\n  mstore(0x40, 0x80)\n  callvalue\n  dup1\n  iszero\n  tag_1\n  jumpi\n  0x00\n  dup1\n  revert\ntag_1:\n  pop\n  dataSize(sub_0)\n  dup1\n  dataOffset(sub_0)\n  0x00\n  codecopy\n  0x00\n  return\nstop\n\nsub_0: assembly {\n        /* \"todoList.sol\":61:374  contract TodoListData {\r... */\n      mstore(0x40, 0x80)\n      callvalue\n      dup1\n      iszero\n      tag_1\n      jumpi\n      0x00\n      dup1\n      revert\n    tag_1:\n      pop\n      jumpi(tag_2, lt(calldatasize, 0x04))\n      shr(0xe0, calldataload(0x00))\n      dup1\n      0x58fcbbfd\n      eq\n      tag_3\n      jumpi\n      dup1\n      0x942b765a\n      eq\n      tag_4\n      jumpi\n    tag_2:\n      0x00\n      dup1\n      revert\n        /* \"todoList.sol\":179:277  function addTask(uint _id, string memory _val) public {\r... */\n    tag_3:\n      tag_5\n      0x04\n      dup1\n      calldatasize\n      sub\n      dup2\n      add\n      swap1\n      tag_6\n      swap2\n      swap1\n      tag_7\n      jump\t// in\n    tag_6:\n      tag_8\n      jump\t// in\n    tag_5:\n      stop\n        /* \"todoList.sol\":285:371  function getList () public view returns (Task[] memory) {\r... */\n    tag_4:\n      tag_9\n      tag_10\n      jump\t// in\n    tag_9:\n      mload(0x40)\n      tag_11\n      swap2\n      swap1\n      tag_12\n      jump\t// in\n    tag_11:\n      mload(0x40)\n      dup1\n      swap2\n      sub\n      swap1\n      return\n        /* \"todoList.sol\":179:277  function addTask(uint _id, string memory _val) public {\r... */\n    tag_8:\n        /* \"todoList.sol\":244:248  list */\n      0x00\n        /* \"todoList.sol\":254:268  Task(_id,_val) */\n      mload(0x40)\n      dup1\n      0x40\n      add\n      0x40\n      mstore\n      dup1\n        /* \"todoList.sol\":259:262  _id */\n      dup5\n        /* \"todoList.sol\":254:268  Task(_id,_val) */\n      dup2\n      mstore\n      0x20\n      add\n        /* \"todoList.sol\":263:267  _val */\n      dup4\n        /* \"todoList.sol\":254:268  Task(_id,_val) */\n      dup2\n      mstore\n      pop\n        /* \"todoList.sol\":244:269  list.push(Task(_id,_val)) */\n      swap1\n      dup1\n      0x01\n      dup2\n      sload\n      add\n      dup1\n      dup3\n      sstore\n      dup1\n      swap2\n      pop\n      pop\n      0x01\n      swap1\n      sub\n      swap1\n      0x00\n      mstore\n      keccak256(0x00, 0x20)\n      swap1\n      0x02\n      mul\n      add\n      0x00\n      swap1\n      swap2\n      swap1\n      swap2\n      swap1\n      swap2\n      pop\n      0x00\n      dup3\n      add\n      mload\n      dup2\n      0x00\n      add\n      sstore\n      0x20\n      dup3\n      add\n      mload\n      dup2\n      0x01\n      add\n      swap1\n      dup1\n      mload\n      swap1\n      0x20\n      add\n      swap1\n      tag_15\n      swap3\n      swap2\n      swap1\n      tag_16\n      jump\t// in\n    tag_15:\n      pop\n      pop\n      pop\n        /* \"todoList.sol\":179:277  function addTask(uint _id, string memory _val) public {\r... */\n      pop\n      pop\n      jump\t// out\n        /* \"todoList.sol\":285:371  function getList () public view returns (Task[] memory) {\r... */\n    tag_10:\n        /* \"todoList.sol\":326:339  Task[] memory */\n      0x60\n        /* \"todoList.sol\":359:363  list */\n      0x00\n        /* \"todoList.sol\":352:363  return list */\n      dup1\n      sload\n      dup1\n      0x20\n      mul\n      0x20\n      add\n      mload(0x40)\n      swap1\n      dup2\n      add\n      0x40\n      mstore\n      dup1\n      swap3\n      swap2\n      swap1\n      dup2\n      dup2\n      mstore\n      0x20\n      add\n      0x00\n      swap1\n    tag_18:\n      dup3\n      dup3\n      lt\n      iszero\n      tag_19\n      jumpi\n      dup4\n      dup3\n      swap1\n      0x00\n      mstore\n      keccak256(0x00, 0x20)\n      swap1\n      0x02\n      mul\n      add\n      mload(0x40)\n      dup1\n      0x40\n      add\n      0x40\n      mstore\n      swap1\n      dup2\n      0x00\n      dup3\n      add\n      sload\n      dup2\n      mstore\n      0x20\n      add\n      0x01\n      dup3\n      add\n      dup1\n      sload\n      tag_21\n      swap1\n      tag_22\n      jump\t// in\n    tag_21:\n      dup1\n      0x1f\n      add\n      0x20\n      dup1\n      swap2\n      div\n      mul\n      0x20\n      add\n      mload(0x40)\n      swap1\n      dup2\n      add\n      0x40\n      mstore\n      dup1\n      swap3\n      swap2\n      swap1\n      dup2\n      dup2\n      mstore\n      0x20\n      add\n      dup3\n      dup1\n      sload\n      tag_23\n      swap1\n      tag_22\n      jump\t// in\n    tag_23:\n      dup1\n      iszero\n      tag_24\n      jumpi\n      dup1\n      0x1f\n      lt\n      tag_25\n      jumpi\n      0x0100\n      dup1\n      dup4\n      sload\n      div\n      mul\n      dup4\n      mstore\n      swap2\n      0x20\n      add\n      swap2\n      jump(tag_24)\n    tag_25:\n      dup3\n      add\n      swap2\n      swap1\n      0x00\n      mstore\n      keccak256(0x00, 0x20)\n      swap1\n    tag_26:\n      dup2\n      sload\n      dup2\n      mstore\n      swap1\n      0x01\n      add\n      swap1\n      0x20\n      add\n      dup1\n      dup4\n      gt\n      tag_26\n      jumpi\n      dup3\n      swap1\n      sub\n      0x1f\n      and\n      dup3\n      add\n      swap2\n    tag_24:\n      pop\n      pop\n      pop\n      pop\n      pop\n      dup2\n      mstore\n      pop\n      pop\n      dup2\n      mstore\n      0x20\n      add\n      swap1\n      0x01\n      add\n      swap1\n      jump(tag_18)\n    tag_19:\n      pop\n      pop\n      pop\n      pop\n      swap1\n      pop\n        /* \"todoList.sol\":285:371  function getList () public view returns (Task[] memory) {\r... */\n      swap1\n      jump\t// out\n    tag_16:\n      dup3\n      dup1\n      sload\n      tag_27\n      swap1\n      tag_22\n      jump\t// in\n    tag_27:\n      swap1\n      0x00\n      mstore\n      keccak256(0x00, 0x20)\n      swap1\n      0x1f\n      add\n      0x20\n      swap1\n      div\n      dup2\n      add\n      swap3\n      dup3\n      tag_29\n      jumpi\n      0x00\n      dup6\n      sstore\n      jump(tag_28)\n    tag_29:\n      dup3\n      0x1f\n      lt\n      tag_30\n      jumpi\n      dup1\n      mload\n      not(0xff)\n      and\n      dup4\n      dup1\n      add\n      or\n      dup6\n      sstore\n      jump(tag_28)\n    tag_30:\n      dup3\n      dup1\n      add\n      0x01\n      add\n      dup6\n      sstore\n      dup3\n      iszero\n      tag_28\n      jumpi\n      swap2\n      dup3\n      add\n    tag_31:\n      dup3\n      dup2\n      gt\n      iszero\n      tag_32\n      jumpi\n      dup3\n      mload\n      dup3\n      sstore\n      swap2\n      0x20\n      add\n      swap2\n      swap1\n      0x01\n      add\n      swap1\n      jump(tag_31)\n    tag_32:\n    tag_28:\n      pop\n      swap1\n      pop\n      tag_33\n      swap2\n      swap1\n      tag_34\n      jump\t// in\n    tag_33:\n      pop\n      swap1\n      jump\t// out\n    tag_34:\n    tag_35:\n      dup1\n      dup3\n      gt\n      iszero\n      tag_36\n      jumpi\n      0x00\n      dup2\n      0x00\n      swap1\n      sstore\n      pop\n      0x01\n      add\n      jump(tag_35)\n    tag_36:\n      pop\n      swap1\n      jump\t// out\n        /* \"#utility.yul\":7:419   */\n    tag_38:\n        /* \"#utility.yul\":85:90   */\n      0x00\n        /* \"#utility.yul\":110:176   */\n      tag_40\n        /* \"#utility.yul\":126:175   */\n      tag_41\n        /* \"#utility.yul\":168:174   */\n      dup5\n        /* \"#utility.yul\":126:175   */\n      tag_42\n      jump\t// in\n    tag_41:\n        /* \"#utility.yul\":110:176   */\n      tag_43\n      jump\t// in\n    tag_40:\n        /* \"#utility.yul\":101:176   */\n      swap1\n      pop\n        /* \"#utility.yul\":199:205   */\n      dup3\n        /* \"#utility.yul\":192:197   */\n      dup2\n        /* \"#utility.yul\":185:206   */\n      mstore\n        /* \"#utility.yul\":237:241   */\n      0x20\n        /* \"#utility.yul\":230:235   */\n      dup2\n        /* \"#utility.yul\":226:242   */\n      add\n        /* \"#utility.yul\":275:278   */\n      dup5\n        /* \"#utility.yul\":266:272   */\n      dup5\n        /* \"#utility.yul\":261:264   */\n      dup5\n        /* \"#utility.yul\":257:273   */\n      add\n        /* \"#utility.yul\":254:279   */\n      gt\n        /* \"#utility.yul\":251:363   */\n      iszero\n      tag_44\n      jumpi\n        /* \"#utility.yul\":282:361   */\n      tag_45\n      tag_46\n      jump\t// in\n    tag_45:\n        /* \"#utility.yul\":251:363   */\n    tag_44:\n        /* \"#utility.yul\":372:413   */\n      tag_47\n        /* \"#utility.yul\":406:412   */\n      dup5\n        /* \"#utility.yul\":401:404   */\n      dup3\n        /* \"#utility.yul\":396:399   */\n      dup6\n        /* \"#utility.yul\":372:413   */\n      tag_48\n      jump\t// in\n    tag_47:\n        /* \"#utility.yul\":91:419   */\n      pop\n        /* \"#utility.yul\":7:419   */\n      swap4\n      swap3\n      pop\n      pop\n      pop\n      jump\t// out\n        /* \"#utility.yul\":439:779   */\n    tag_49:\n        /* \"#utility.yul\":495:500   */\n      0x00\n        /* \"#utility.yul\":544:547   */\n      dup3\n        /* \"#utility.yul\":537:541   */\n      0x1f\n        /* \"#utility.yul\":529:535   */\n      dup4\n        /* \"#utility.yul\":525:542   */\n      add\n        /* \"#utility.yul\":521:548   */\n      slt\n        /* \"#utility.yul\":511:633   */\n      tag_51\n      jumpi\n        /* \"#utility.yul\":552:631   */\n      tag_52\n      tag_53\n      jump\t// in\n    tag_52:\n        /* \"#utility.yul\":511:633   */\n    tag_51:\n        /* \"#utility.yul\":669:675   */\n      dup2\n        /* \"#utility.yul\":656:676   */\n      calldataload\n        /* \"#utility.yul\":694:773   */\n      tag_54\n        /* \"#utility.yul\":769:772   */\n      dup5\n        /* \"#utility.yul\":761:767   */\n      dup3\n        /* \"#utility.yul\":754:758   */\n      0x20\n        /* \"#utility.yul\":746:752   */\n      dup7\n        /* \"#utility.yul\":742:759   */\n      add\n        /* \"#utility.yul\":694:773   */\n      tag_38\n      jump\t// in\n    tag_54:\n        /* \"#utility.yul\":685:773   */\n      swap2\n      pop\n        /* \"#utility.yul\":501:779   */\n      pop\n        /* \"#utility.yul\":439:779   */\n      swap3\n      swap2\n      pop\n      pop\n      jump\t// out\n        /* \"#utility.yul\":785:924   */\n    tag_55:\n        /* \"#utility.yul\":831:836   */\n      0x00\n        /* \"#utility.yul\":869:875   */\n      dup2\n        /* \"#utility.yul\":856:876   */\n      calldataload\n        /* \"#utility.yul\":847:876   */\n      swap1\n      pop\n        /* \"#utility.yul\":885:918   */\n      tag_57\n        /* \"#utility.yul\":912:917   */\n      dup2\n        /* \"#utility.yul\":885:918   */\n      tag_58\n      jump\t// in\n    tag_57:\n        /* \"#utility.yul\":785:924   */\n      swap3\n      swap2\n      pop\n      pop\n      jump\t// out\n        /* \"#utility.yul\":930:1584   */\n    tag_7:\n        /* \"#utility.yul\":1008:1014   */\n      0x00\n        /* \"#utility.yul\":1016:1022   */\n      dup1\n        /* \"#utility.yul\":1065:1067   */\n      0x40\n        /* \"#utility.yul\":1053:1062   */\n      dup4\n        /* \"#utility.yul\":1044:1051   */\n      dup6\n        /* \"#utility.yul\":1040:1063   */\n      sub\n        /* \"#utility.yul\":1036:1068   */\n      slt\n        /* \"#utility.yul\":1033:1152   */\n      iszero\n      tag_60\n      jumpi\n        /* \"#utility.yul\":1071:1150   */\n      tag_61\n      tag_62\n      jump\t// in\n    tag_61:\n        /* \"#utility.yul\":1033:1152   */\n    tag_60:\n        /* \"#utility.yul\":1191:1192   */\n      0x00\n        /* \"#utility.yul\":1216:1269   */\n      tag_63\n        /* \"#utility.yul\":1261:1268   */\n      dup6\n        /* \"#utility.yul\":1252:1258   */\n      dup3\n        /* \"#utility.yul\":1241:1250   */\n      dup7\n        /* \"#utility.yul\":1237:1259   */\n      add\n        /* \"#utility.yul\":1216:1269   */\n      tag_55\n      jump\t// in\n    tag_63:\n        /* \"#utility.yul\":1206:1269   */\n      swap3\n      pop\n        /* \"#utility.yul\":1162:1279   */\n      pop\n        /* \"#utility.yul\":1346:1348   */\n      0x20\n        /* \"#utility.yul\":1335:1344   */\n      dup4\n        /* \"#utility.yul\":1331:1349   */\n      add\n        /* \"#utility.yul\":1318:1350   */\n      calldataload\n        /* \"#utility.yul\":1377:1395   */\n      0xffffffffffffffff\n        /* \"#utility.yul\":1369:1375   */\n      dup2\n        /* \"#utility.yul\":1366:1396   */\n      gt\n        /* \"#utility.yul\":1363:1480   */\n      iszero\n      tag_64\n      jumpi\n        /* \"#utility.yul\":1399:1478   */\n      tag_65\n      tag_66\n      jump\t// in\n    tag_65:\n        /* \"#utility.yul\":1363:1480   */\n    tag_64:\n        /* \"#utility.yul\":1504:1567   */\n      tag_67\n        /* \"#utility.yul\":1559:1566   */\n      dup6\n        /* \"#utility.yul\":1550:1556   */\n      dup3\n        /* \"#utility.yul\":1539:1548   */\n      dup7\n        /* \"#utility.yul\":1535:1557   */\n      add\n        /* \"#utility.yul\":1504:1567   */\n      tag_49\n      jump\t// in\n    tag_67:\n        /* \"#utility.yul\":1494:1567   */\n      swap2\n      pop\n        /* \"#utility.yul\":1289:1577   */\n      pop\n        /* \"#utility.yul\":930:1584   */\n      swap3\n      pop\n      swap3\n      swap1\n      pop\n      jump\t// out\n        /* \"#utility.yul\":1590:1822   */\n    tag_68:\n        /* \"#utility.yul\":1697:1707   */\n      0x00\n        /* \"#utility.yul\":1732:1816   */\n      tag_70\n        /* \"#utility.yul\":1812:1815   */\n      dup4\n        /* \"#utility.yul\":1804:1810   */\n      dup4\n        /* \"#utility.yul\":1732:1816   */\n      tag_71\n      jump\t// in\n    tag_70:\n        /* \"#utility.yul\":1718:1816   */\n      swap1\n      pop\n        /* \"#utility.yul\":1590:1822   */\n      swap3\n      swap2\n      pop\n      pop\n      jump\t// out\n        /* \"#utility.yul\":1892:2955   */\n    tag_72:\n        /* \"#utility.yul\":2049:2052   */\n      0x00\n        /* \"#utility.yul\":2078:2151   */\n      tag_74\n        /* \"#utility.yul\":2145:2150   */\n      dup3\n        /* \"#utility.yul\":2078:2151   */\n      tag_75\n      jump\t// in\n    tag_74:\n        /* \"#utility.yul\":2167:2272   */\n      tag_76\n        /* \"#utility.yul\":2265:2271   */\n      dup2\n        /* \"#utility.yul\":2260:2263   */\n      dup6\n        /* \"#utility.yul\":2167:2272   */\n      tag_77\n      jump\t// in\n    tag_76:\n        /* \"#utility.yul\":2160:2272   */\n      swap4\n      pop\n        /* \"#utility.yul\":2298:2301   */\n      dup4\n        /* \"#utility.yul\":2343:2347   */\n      0x20\n        /* \"#utility.yul\":2335:2341   */\n      dup3\n        /* \"#utility.yul\":2331:2348   */\n      mul\n        /* \"#utility.yul\":2326:2329   */\n      dup6\n        /* \"#utility.yul\":2322:2349   */\n      add\n        /* \"#utility.yul\":2373:2448   */\n      tag_78\n        /* \"#utility.yul\":2442:2447   */\n      dup6\n        /* \"#utility.yul\":2373:2448   */\n      tag_79\n      jump\t// in\n    tag_78:\n        /* \"#utility.yul\":2471:2478   */\n      dup1\n        /* \"#utility.yul\":2502:2503   */\n      0x00\n        /* \"#utility.yul\":2487:2910   */\n    tag_80:\n        /* \"#utility.yul\":2512:2518   */\n      dup6\n        /* \"#utility.yul\":2509:2510   */\n      dup2\n        /* \"#utility.yul\":2506:2519   */\n      lt\n        /* \"#utility.yul\":2487:2910   */\n      iszero\n      tag_82\n      jumpi\n        /* \"#utility.yul\":2583:2592   */\n      dup5\n        /* \"#utility.yul\":2577:2581   */\n      dup5\n        /* \"#utility.yul\":2573:2593   */\n      sub\n        /* \"#utility.yul\":2568:2571   */\n      dup10\n        /* \"#utility.yul\":2561:2594   */\n      mstore\n        /* \"#utility.yul\":2634:2640   */\n      dup2\n        /* \"#utility.yul\":2628:2641   */\n      mload\n        /* \"#utility.yul\":2662:2764   */\n      tag_83\n        /* \"#utility.yul\":2759:2763   */\n      dup6\n        /* \"#utility.yul\":2744:2757   */\n      dup3\n        /* \"#utility.yul\":2662:2764   */\n      tag_68\n      jump\t// in\n    tag_83:\n        /* \"#utility.yul\":2654:2764   */\n      swap5\n      pop\n        /* \"#utility.yul\":2787:2866   */\n      tag_84\n        /* \"#utility.yul\":2859:2865   */\n      dup4\n        /* \"#utility.yul\":2787:2866   */\n      tag_85\n      jump\t// in\n    tag_84:\n        /* \"#utility.yul\":2777:2866   */\n      swap3\n      pop\n        /* \"#utility.yul\":2895:2899   */\n      0x20\n        /* \"#utility.yul\":2890:2893   */\n      dup11\n        /* \"#utility.yul\":2886:2900   */\n      add\n        /* \"#utility.yul\":2879:2900   */\n      swap10\n      pop\n        /* \"#utility.yul\":2547:2910   */\n      pop\n        /* \"#utility.yul\":2534:2535   */\n      0x01\n        /* \"#utility.yul\":2531:2532   */\n      dup2\n        /* \"#utility.yul\":2527:2536   */\n      add\n        /* \"#utility.yul\":2522:2536   */\n      swap1\n      pop\n        /* \"#utility.yul\":2487:2910   */\n      jump(tag_80)\n    tag_82:\n        /* \"#utility.yul\":2491:2505   */\n      pop\n        /* \"#utility.yul\":2926:2930   */\n      dup3\n        /* \"#utility.yul\":2919:2930   */\n      swap8\n      pop\n        /* \"#utility.yul\":2946:2949   */\n      dup8\n        /* \"#utility.yul\":2939:2949   */\n      swap6\n      pop\n        /* \"#utility.yul\":2054:2955   */\n      pop\n      pop\n      pop\n      pop\n      pop\n        /* \"#utility.yul\":1892:2955   */\n      swap3\n      swap2\n      pop\n      pop\n      jump\t// out\n        /* \"#utility.yul\":2961:3305   */\n    tag_86:\n        /* \"#utility.yul\":3039:3042   */\n      0x00\n        /* \"#utility.yul\":3067:3106   */\n      tag_88\n        /* \"#utility.yul\":3100:3105   */\n      dup3\n        /* \"#utility.yul\":3067:3106   */\n      tag_89\n      jump\t// in\n    tag_88:\n        /* \"#utility.yul\":3122:3183   */\n      tag_90\n        /* \"#utility.yul\":3176:3182   */\n      dup2\n        /* \"#utility.yul\":3171:3174   */\n      dup6\n        /* \"#utility.yul\":3122:3183   */\n      tag_91\n      jump\t// in\n    tag_90:\n        /* \"#utility.yul\":3115:3183   */\n      swap4\n      pop\n        /* \"#utility.yul\":3192:3244   */\n      tag_92\n        /* \"#utility.yul\":3237:3243   */\n      dup2\n        /* \"#utility.yul\":3232:3235   */\n      dup6\n        /* \"#utility.yul\":3225:3229   */\n      0x20\n        /* \"#utility.yul\":3218:3223   */\n      dup7\n        /* \"#utility.yul\":3214:3230   */\n      add\n        /* \"#utility.yul\":3192:3244   */\n      tag_93\n      jump\t// in\n    tag_92:\n        /* \"#utility.yul\":3269:3298   */\n      tag_94\n        /* \"#utility.yul\":3291:3297   */\n      dup2\n        /* \"#utility.yul\":3269:3298   */\n      tag_95\n      jump\t// in\n    tag_94:\n        /* \"#utility.yul\":3264:3267   */\n      dup5\n        /* \"#utility.yul\":3260:3299   */\n      add\n        /* \"#utility.yul\":3253:3299   */\n      swap2\n      pop\n        /* \"#utility.yul\":3043:3305   */\n      pop\n        /* \"#utility.yul\":2961:3305   */\n      swap3\n      swap2\n      pop\n      pop\n      jump\t// out\n        /* \"#utility.yul\":3371:3954   */\n    tag_71:\n        /* \"#utility.yul\":3468:3471   */\n      0x00\n        /* \"#utility.yul\":3504:3508   */\n      0x40\n        /* \"#utility.yul\":3499:3502   */\n      dup4\n        /* \"#utility.yul\":3495:3509   */\n      add\n        /* \"#utility.yul\":3589:3593   */\n      0x00\n        /* \"#utility.yul\":3582:3587   */\n      dup4\n        /* \"#utility.yul\":3578:3594   */\n      add\n        /* \"#utility.yul\":3572:3595   */\n      mload\n        /* \"#utility.yul\":3608:3671   */\n      tag_97\n        /* \"#utility.yul\":3665:3669   */\n      0x00\n        /* \"#utility.yul\":3660:3663   */\n      dup7\n        /* \"#utility.yul\":3656:3670   */\n      add\n        /* \"#utility.yul\":3642:3654   */\n      dup3\n        /* \"#utility.yul\":3608:3671   */\n      tag_98\n      jump\t// in\n    tag_97:\n        /* \"#utility.yul\":3519:3681   */\n      pop\n        /* \"#utility.yul\":3764:3768   */\n      0x20\n        /* \"#utility.yul\":3757:3762   */\n      dup4\n        /* \"#utility.yul\":3753:3769   */\n      add\n        /* \"#utility.yul\":3747:3770   */\n      mload\n        /* \"#utility.yul\":3817:3820   */\n      dup5\n        /* \"#utility.yul\":3811:3815   */\n      dup3\n        /* \"#utility.yul\":3807:3821   */\n      sub\n        /* \"#utility.yul\":3800:3804   */\n      0x20\n        /* \"#utility.yul\":3795:3798   */\n      dup7\n        /* \"#utility.yul\":3791:3805   */\n      add\n        /* \"#utility.yul\":3784:3822   */\n      mstore\n        /* \"#utility.yul\":3843:3916   */\n      tag_99\n        /* \"#utility.yul\":3911:3915   */\n      dup3\n        /* \"#utility.yul\":3897:3909   */\n      dup3\n        /* \"#utility.yul\":3843:3916   */\n      tag_86\n      jump\t// in\n    tag_99:\n        /* \"#utility.yul\":3835:3916   */\n      swap2\n      pop\n        /* \"#utility.yul\":3691:3927   */\n      pop\n        /* \"#utility.yul\":3944:3948   */\n      dup1\n        /* \"#utility.yul\":3937:3948   */\n      swap2\n      pop\n        /* \"#utility.yul\":3473:3954   */\n      pop\n        /* \"#utility.yul\":3371:3954   */\n      swap3\n      swap2\n      pop\n      pop\n      jump\t// out\n        /* \"#utility.yul\":3960:4068   */\n    tag_98:\n        /* \"#utility.yul\":4037:4061   */\n      tag_101\n        /* \"#utility.yul\":4055:4060   */\n      dup2\n        /* \"#utility.yul\":4037:4061   */\n      tag_102\n      jump\t// in\n    tag_101:\n        /* \"#utility.yul\":4032:4035   */\n      dup3\n        /* \"#utility.yul\":4025:4062   */\n      mstore\n        /* \"#utility.yul\":3960:4068   */\n      pop\n      pop\n      jump\t// out\n        /* \"#utility.yul\":4074:4523   */\n    tag_12:\n        /* \"#utility.yul\":4255:4259   */\n      0x00\n        /* \"#utility.yul\":4293:4295   */\n      0x20\n        /* \"#utility.yul\":4282:4291   */\n      dup3\n        /* \"#utility.yul\":4278:4296   */\n      add\n        /* \"#utility.yul\":4270:4296   */\n      swap1\n      pop\n        /* \"#utility.yul\":4342:4351   */\n      dup2\n        /* \"#utility.yul\":4336:4340   */\n      dup2\n        /* \"#utility.yul\":4332:4352   */\n      sub\n        /* \"#utility.yul\":4328:4329   */\n      0x00\n        /* \"#utility.yul\":4317:4326   */\n      dup4\n        /* \"#utility.yul\":4313:4330   */\n      add\n        /* \"#utility.yul\":4306:4353   */\n      mstore\n        /* \"#utility.yul\":4370:4516   */\n      tag_104\n        /* \"#utility.yul\":4511:4515   */\n      dup2\n        /* \"#utility.yul\":4502:4508   */\n      dup5\n        /* \"#utility.yul\":4370:4516   */\n      tag_72\n      jump\t// in\n    tag_104:\n        /* \"#utility.yul\":4362:4516   */\n      swap1\n      pop\n        /* \"#utility.yul\":4074:4523   */\n      swap3\n      swap2\n      pop\n      pop\n      jump\t// out\n        /* \"#utility.yul\":4529:4658   */\n    tag_43:\n        /* \"#utility.yul\":4563:4569   */\n      0x00\n        /* \"#utility.yul\":4590:4610   */\n      tag_106\n      tag_107\n      jump\t// in\n    tag_106:\n        /* \"#utility.yul\":4580:4610   */\n      swap1\n      pop\n        /* \"#utility.yul\":4619:4652   */\n      tag_108\n        /* \"#utility.yul\":4647:4651   */\n      dup3\n        /* \"#utility.yul\":4639:4645   */\n      dup3\n        /* \"#utility.yul\":4619:4652   */\n      tag_109\n      jump\t// in\n    tag_108:\n        /* \"#utility.yul\":4529:4658   */\n      swap2\n      swap1\n      pop\n      jump\t// out\n        /* \"#utility.yul\":4664:4739   */\n    tag_107:\n        /* \"#utility.yul\":4697:4703   */\n      0x00\n        /* \"#utility.yul\":4730:4732   */\n      0x40\n        /* \"#utility.yul\":4724:4733   */\n      mload\n        /* \"#utility.yul\":4714:4733   */\n      swap1\n      pop\n        /* \"#utility.yul\":4664:4739   */\n      swap1\n      jump\t// out\n        /* \"#utility.yul\":4745:5053   */\n    tag_42:\n        /* \"#utility.yul\":4807:4811   */\n      0x00\n        /* \"#utility.yul\":4897:4915   */\n      0xffffffffffffffff\n        /* \"#utility.yul\":4889:4895   */\n      dup3\n        /* \"#utility.yul\":4886:4916   */\n      gt\n        /* \"#utility.yul\":4883:4939   */\n      iszero\n      tag_112\n      jumpi\n        /* \"#utility.yul\":4919:4937   */\n      tag_113\n      tag_114\n      jump\t// in\n    tag_113:\n        /* \"#utility.yul\":4883:4939   */\n    tag_112:\n        /* \"#utility.yul\":4957:4986   */\n      tag_115\n        /* \"#utility.yul\":4979:4985   */\n      dup3\n        /* \"#utility.yul\":4957:4986   */\n      tag_95\n      jump\t// in\n    tag_115:\n        /* \"#utility.yul\":4949:4986   */\n      swap1\n      pop\n        /* \"#utility.yul\":5041:5045   */\n      0x20\n        /* \"#utility.yul\":5035:5039   */\n      dup2\n        /* \"#utility.yul\":5031:5046   */\n      add\n        /* \"#utility.yul\":5023:5046   */\n      swap1\n      pop\n        /* \"#utility.yul\":4745:5053   */\n      swap2\n      swap1\n      pop\n      jump\t// out\n        /* \"#utility.yul\":5059:5210   */\n    tag_79:\n        /* \"#utility.yul\":5145:5149   */\n      0x00\n        /* \"#utility.yul\":5168:5171   */\n      dup2\n        /* \"#utility.yul\":5160:5171   */\n      swap1\n      pop\n        /* \"#utility.yul\":5198:5202   */\n      0x20\n        /* \"#utility.yul\":5193:5196   */\n      dup3\n        /* \"#utility.yul\":5189:5203   */\n      add\n        /* \"#utility.yul\":5181:5203   */\n      swap1\n      pop\n        /* \"#utility.yul\":5059:5210   */\n      swap2\n      swap1\n      pop\n      jump\t// out\n        /* \"#utility.yul\":5216:5349   */\n    tag_75:\n        /* \"#utility.yul\":5302:5308   */\n      0x00\n        /* \"#utility.yul\":5336:5341   */\n      dup2\n        /* \"#utility.yul\":5330:5342   */\n      mload\n        /* \"#utility.yul\":5320:5342   */\n      swap1\n      pop\n        /* \"#utility.yul\":5216:5349   */\n      swap2\n      swap1\n      pop\n      jump\t// out\n        /* \"#utility.yul\":5355:5454   */\n    tag_89:\n        /* \"#utility.yul\":5407:5413   */\n      0x00\n        /* \"#utility.yul\":5441:5446   */\n      dup2\n        /* \"#utility.yul\":5435:5447   */\n      mload\n        /* \"#utility.yul\":5425:5447   */\n      swap1\n      pop\n        /* \"#utility.yul\":5355:5454   */\n      swap2\n      swap1\n      pop\n      jump\t// out\n        /* \"#utility.yul\":5460:5592   */\n    tag_85:\n        /* \"#utility.yul\":5549:5553   */\n      0x00\n        /* \"#utility.yul\":5581:5585   */\n      0x20\n        /* \"#utility.yul\":5576:5579   */\n      dup3\n        /* \"#utility.yul\":5572:5586   */\n      add\n        /* \"#utility.yul\":5564:5586   */\n      swap1\n      pop\n        /* \"#utility.yul\":5460:5592   */\n      swap2\n      swap1\n      pop\n      jump\t// out\n        /* \"#utility.yul\":5598:5801   */\n    tag_77:\n        /* \"#utility.yul\":5716:5727   */\n      0x00\n        /* \"#utility.yul\":5750:5756   */\n      dup3\n        /* \"#utility.yul\":5745:5748   */\n      dup3\n        /* \"#utility.yul\":5738:5757   */\n      mstore\n        /* \"#utility.yul\":5790:5794   */\n      0x20\n        /* \"#utility.yul\":5785:5788   */\n      dup3\n        /* \"#utility.yul\":5781:5795   */\n      add\n        /* \"#utility.yul\":5766:5795   */\n      swap1\n      pop\n        /* \"#utility.yul\":5598:5801   */\n      swap3\n      swap2\n      pop\n      pop\n      jump\t// out\n        /* \"#utility.yul\":5807:5966   */\n    tag_91:\n        /* \"#utility.yul\":5881:5892   */\n      0x00\n        /* \"#utility.yul\":5915:5921   */\n      dup3\n        /* \"#utility.yul\":5910:5913   */\n      dup3\n        /* \"#utility.yul\":5903:5922   */\n      mstore\n        /* \"#utility.yul\":5955:5959   */\n      0x20\n        /* \"#utility.yul\":5950:5953   */\n      dup3\n        /* \"#utility.yul\":5946:5960   */\n      add\n        /* \"#utility.yul\":5931:5960   */\n      swap1\n      pop\n        /* \"#utility.yul\":5807:5966   */\n      swap3\n      swap2\n      pop\n      pop\n      jump\t// out\n        /* \"#utility.yul\":5972:6049   */\n    tag_102:\n        /* \"#utility.yul\":6009:6016   */\n      0x00\n        /* \"#utility.yul\":6038:6043   */\n      dup2\n        /* \"#utility.yul\":6027:6043   */\n      swap1\n      pop\n        /* \"#utility.yul\":5972:6049   */\n      swap2\n      swap1\n      pop\n      jump\t// out\n        /* \"#utility.yul\":6055:6209   */\n    tag_48:\n        /* \"#utility.yul\":6139:6145   */\n      dup3\n        /* \"#utility.yul\":6134:6137   */\n      dup2\n        /* \"#utility.yul\":6129:6132   */\n      dup4\n        /* \"#utility.yul\":6116:6146   */\n      calldatacopy\n        /* \"#utility.yul\":6201:6202   */\n      0x00\n        /* \"#utility.yul\":6192:6198   */\n      dup4\n        /* \"#utility.yul\":6187:6190   */\n      dup4\n        /* \"#utility.yul\":6183:6199   */\n      add\n        /* \"#utility.yul\":6176:6203   */\n      mstore\n        /* \"#utility.yul\":6055:6209   */\n      pop\n      pop\n      pop\n      jump\t// out\n        /* \"#utility.yul\":6215:6522   */\n    tag_93:\n        /* \"#utility.yul\":6283:6284   */\n      0x00\n        /* \"#utility.yul\":6293:6406   */\n    tag_125:\n        /* \"#utility.yul\":6307:6313   */\n      dup4\n        /* \"#utility.yul\":6304:6305   */\n      dup2\n        /* \"#utility.yul\":6301:6314   */\n      lt\n        /* \"#utility.yul\":6293:6406   */\n      iszero\n      tag_127\n      jumpi\n        /* \"#utility.yul\":6392:6393   */\n      dup1\n        /* \"#utility.yul\":6387:6390   */\n      dup3\n        /* \"#utility.yul\":6383:6394   */\n      add\n        /* \"#utility.yul\":6377:6395   */\n      mload\n        /* \"#utility.yul\":6373:6374   */\n      dup2\n        /* \"#utility.yul\":6368:6371   */\n      dup5\n        /* \"#utility.yul\":6364:6375   */\n      add\n        /* \"#utility.yul\":6357:6396   */\n      mstore\n        /* \"#utility.yul\":6329:6331   */\n      0x20\n        /* \"#utility.yul\":6326:6327   */\n      dup2\n        /* \"#utility.yul\":6322:6332   */\n      add\n        /* \"#utility.yul\":6317:6332   */\n      swap1\n      pop\n        /* \"#utility.yul\":6293:6406   */\n      jump(tag_125)\n    tag_127:\n        /* \"#utility.yul\":6424:6430   */\n      dup4\n        /* \"#utility.yul\":6421:6422   */\n      dup2\n        /* \"#utility.yul\":6418:6431   */\n      gt\n        /* \"#utility.yul\":6415:6516   */\n      iszero\n      tag_128\n      jumpi\n        /* \"#utility.yul\":6504:6505   */\n      0x00\n        /* \"#utility.yul\":6495:6501   */\n      dup5\n        /* \"#utility.yul\":6490:6493   */\n      dup5\n        /* \"#utility.yul\":6486:6502   */\n      add\n        /* \"#utility.yul\":6479:6506   */\n      mstore\n        /* \"#utility.yul\":6415:6516   */\n    tag_128:\n        /* \"#utility.yul\":6264:6522   */\n      pop\n        /* \"#utility.yul\":6215:6522   */\n      pop\n      pop\n      pop\n      jump\t// out\n        /* \"#utility.yul\":6528:6848   */\n    tag_22:\n        /* \"#utility.yul\":6572:6578   */\n      0x00\n        /* \"#utility.yul\":6609:6610   */\n      0x02\n        /* \"#utility.yul\":6603:6607   */\n      dup3\n        /* \"#utility.yul\":6599:6611   */\n      div\n        /* \"#utility.yul\":6589:6611   */\n      swap1\n      pop\n        /* \"#utility.yul\":6656:6657   */\n      0x01\n        /* \"#utility.yul\":6650:6654   */\n      dup3\n        /* \"#utility.yul\":6646:6658   */\n      and\n        /* \"#utility.yul\":6677:6695   */\n      dup1\n        /* \"#utility.yul\":6667:6748   */\n      tag_130\n      jumpi\n        /* \"#utility.yul\":6733:6737   */\n      0x7f\n        /* \"#utility.yul\":6725:6731   */\n      dup3\n        /* \"#utility.yul\":6721:6738   */\n      and\n        /* \"#utility.yul\":6711:6738   */\n      swap2\n      pop\n        /* \"#utility.yul\":6667:6748   */\n    tag_130:\n        /* \"#utility.yul\":6795:6797   */\n      0x20\n        /* \"#utility.yul\":6787:6793   */\n      dup3\n        /* \"#utility.yul\":6784:6798   */\n      lt\n        /* \"#utility.yul\":6764:6782   */\n      dup2\n        /* \"#utility.yul\":6761:6799   */\n      eq\n        /* \"#utility.yul\":6758:6842   */\n      iszero\n      tag_131\n      jumpi\n        /* \"#utility.yul\":6814:6832   */\n      tag_132\n      tag_133\n      jump\t// in\n    tag_132:\n        /* \"#utility.yul\":6758:6842   */\n    tag_131:\n        /* \"#utility.yul\":6579:6848   */\n      pop\n        /* \"#utility.yul\":6528:6848   */\n      swap2\n      swap1\n      pop\n      jump\t// out\n        /* \"#utility.yul\":6854:7135   */\n    tag_109:\n        /* \"#utility.yul\":6937:6964   */\n      tag_135\n        /* \"#utility.yul\":6959:6963   */\n      dup3\n        /* \"#utility.yul\":6937:6964   */\n      tag_95\n      jump\t// in\n    tag_135:\n        /* \"#utility.yul\":6929:6935   */\n      dup2\n        /* \"#utility.yul\":6925:6965   */\n      add\n        /* \"#utility.yul\":7067:7073   */\n      dup2\n        /* \"#utility.yul\":7055:7065   */\n      dup2\n        /* \"#utility.yul\":7052:7074   */\n      lt\n        /* \"#utility.yul\":7031:7049   */\n      0xffffffffffffffff\n        /* \"#utility.yul\":7019:7029   */\n      dup3\n        /* \"#utility.yul\":7016:7050   */\n      gt\n        /* \"#utility.yul\":7013:7075   */\n      or\n        /* \"#utility.yul\":7010:7098   */\n      iszero\n      tag_136\n      jumpi\n        /* \"#utility.yul\":7078:7096   */\n      tag_137\n      tag_114\n      jump\t// in\n    tag_137:\n        /* \"#utility.yul\":7010:7098   */\n    tag_136:\n        /* \"#utility.yul\":7118:7128   */\n      dup1\n        /* \"#utility.yul\":7114:7116   */\n      0x40\n        /* \"#utility.yul\":7107:7129   */\n      mstore\n        /* \"#utility.yul\":6897:7135   */\n      pop\n        /* \"#utility.yul\":6854:7135   */\n      pop\n      pop\n      jump\t// out\n        /* \"#utility.yul\":7141:7321   */\n    tag_133:\n        /* \"#utility.yul\":7189:7266   */\n      0x4e487b7100000000000000000000000000000000000000000000000000000000\n        /* \"#utility.yul\":7186:7187   */\n      0x00\n        /* \"#utility.yul\":7179:7267   */\n      mstore\n        /* \"#utility.yul\":7286:7290   */\n      0x22\n        /* \"#utility.yul\":7283:7284   */\n      0x04\n        /* \"#utility.yul\":7276:7291   */\n      mstore\n        /* \"#utility.yul\":7310:7314   */\n      0x24\n        /* \"#utility.yul\":7307:7308   */\n      0x00\n        /* \"#utility.yul\":7300:7315   */\n      revert\n        /* \"#utility.yul\":7327:7507   */\n    tag_114:\n        /* \"#utility.yul\":7375:7452   */\n      0x4e487b7100000000000000000000000000000000000000000000000000000000\n        /* \"#utility.yul\":7372:7373   */\n      0x00\n        /* \"#utility.yul\":7365:7453   */\n      mstore\n        /* \"#utility.yul\":7472:7476   */\n      0x41\n        /* \"#utility.yul\":7469:7470   */\n      0x04\n        /* \"#utility.yul\":7462:7477   */\n      mstore\n        /* \"#utility.yul\":7496:7500   */\n      0x24\n        /* \"#utility.yul\":7493:7494   */\n      0x00\n        /* \"#utility.yul\":7486:7501   */\n      revert\n        /* \"#utility.yul\":7513:7630   */\n    tag_53:\n        /* \"#utility.yul\":7622:7623   */\n      0x00\n        /* \"#utility.yul\":7619:7620   */\n      dup1\n        /* \"#utility.yul\":7612:7624   */\n      revert\n        /* \"#utility.yul\":7636:7753   */\n    tag_46:\n        /* \"#utility.yul\":7745:7746   */\n      0x00\n        /* \"#utility.yul\":7742:7743   */\n      dup1\n        /* \"#utility.yul\":7735:7747   */\n      revert\n        /* \"#utility.yul\":7759:7876   */\n    tag_66:\n        /* \"#utility.yul\":7868:7869   */\n      0x00\n        /* \"#utility.yul\":7865:7866   */\n      dup1\n        /* \"#utility.yul\":7858:7870   */\n      revert\n        /* \"#utility.yul\":7882:7999   */\n    tag_62:\n        /* \"#utility.yul\":7991:7992   */\n      0x00\n        /* \"#utility.yul\":7988:7989   */\n      dup1\n        /* \"#utility.yul\":7981:7993   */\n      revert\n        /* \"#utility.yul\":8005:8107   */\n    tag_95:\n        /* \"#utility.yul\":8046:8052   */\n      0x00\n        /* \"#utility.yul\":8097:8099   */\n      0x1f\n        /* \"#utility.yul\":8093:8100   */\n      not\n        /* \"#utility.yul\":8088:8090   */\n      0x1f\n        /* \"#utility.yul\":8081:8086   */\n      dup4\n        /* \"#utility.yul\":8077:8091   */\n      add\n        /* \"#utility.yul\":8073:8101   */\n      and\n        /* \"#utility.yul\":8063:8101   */\n      swap1\n      pop\n        /* \"#utility.yul\":8005:8107   */\n      swap2\n      swap1\n      pop\n      jump\t// out\n        /* \"#utility.yul\":8113:8235   */\n    tag_58:\n        /* \"#utility.yul\":8186:8210   */\n      tag_146\n        /* \"#utility.yul\":8204:8209   */\n      dup2\n        /* \"#utility.yul\":8186:8210   */\n      tag_102\n      jump\t// in\n    tag_146:\n        /* \"#utility.yul\":8179:8184   */\n      dup2\n        /* \"#utility.yul\":8176:8211   */\n      eq\n        /* \"#utility.yul\":8166:8229   */\n      tag_147\n      jumpi\n        /* \"#utility.yul\":8225:8226   */\n      0x00\n        /* \"#utility.yul\":8222:8223   */\n      dup1\n        /* \"#utility.yul\":8215:8227   */\n      revert\n        /* \"#utility.yul\":8166:8229   */\n    tag_147:\n        /* \"#utility.yul\":8113:8235   */\n      pop\n      jump\t// out\n\n    auxdata: 0xa2646970667358221220f10c2d05487dd89c4c8e551bbc368c8ae9ec4f6c8e05a5b8270e08e78691cdd764736f6c63430008070033\n}\n",
				"bytecode": {
					"linkReferences": {},
					"object": "608060405234801561001057600080fd5b506106bb806100206000396000f3fe608060405234801561001057600080fd5b50600436106100365760003560e01c806358fcbbfd1461003b578063942b765a14610057575b600080fd5b61005560048036038101906100509190610305565b610075565b005b61005f6100e2565b60405161006c919061046f565b60405180910390f35b600060405180604001604052808481526020018381525090806001815401808255809150506001900390600052602060002090600202016000909190919091506000820151816000015560208201518160010190805190602001906100db9291906101dd565b5050505050565b60606000805480602002602001604051908101604052809291908181526020016000905b828210156101d457838290600052602060002090600202016040518060400160405290816000820154815260200160018201805461014390610588565b80601f016020809104026020016040519081016040528092919081815260200182805461016f90610588565b80156101bc5780601f10610191576101008083540402835291602001916101bc565b820191906000526020600020905b81548152906001019060200180831161019f57829003601f168201915b50505050508152505081526020019060010190610106565b50505050905090565b8280546101e990610588565b90600052602060002090601f01602090048101928261020b5760008555610252565b82601f1061022457805160ff1916838001178555610252565b82800160010185558215610252579182015b82811115610251578251825591602001919060010190610236565b5b50905061025f9190610263565b5090565b5b8082111561027c576000816000905550600101610264565b5090565b600061029361028e846104b6565b610491565b9050828152602081018484840111156102af576102ae61064e565b5b6102ba848285610546565b509392505050565b600082601f8301126102d7576102d6610649565b5b81356102e7848260208601610280565b91505092915050565b6000813590506102ff8161066e565b92915050565b6000806040838503121561031c5761031b610658565b5b600061032a858286016102f0565b925050602083013567ffffffffffffffff81111561034b5761034a610653565b5b610357858286016102c2565b9150509250929050565b600061036d8383610423565b905092915050565b6000610380826104f7565b61038a818561051a565b93508360208202850161039c856104e7565b8060005b858110156103d857848403895281516103b98582610361565b94506103c48361050d565b925060208a019950506001810190506103a0565b50829750879550505050505092915050565b60006103f582610502565b6103ff818561052b565b935061040f818560208601610555565b6104188161065d565b840191505092915050565b600060408301600083015161043b6000860182610460565b506020830151848203602086015261045382826103ea565b9150508091505092915050565b6104698161053c565b82525050565b600060208201905081810360008301526104898184610375565b905092915050565b600061049b6104ac565b90506104a782826105ba565b919050565b6000604051905090565b600067ffffffffffffffff8211156104d1576104d061061a565b5b6104da8261065d565b9050602081019050919050565b6000819050602082019050919050565b600081519050919050565b600081519050919050565b6000602082019050919050565b600082825260208201905092915050565b600082825260208201905092915050565b6000819050919050565b82818337600083830152505050565b60005b83811015610573578082015181840152602081019050610558565b83811115610582576000848401525b50505050565b600060028204905060018216806105a057607f821691505b602082108114156105b4576105b36105eb565b5b50919050565b6105c38261065d565b810181811067ffffffffffffffff821117156105e2576105e161061a565b5b80604052505050565b7f4e487b7100000000000000000000000000000000000000000000000000000000600052602260045260246000fd5b7f4e487b7100000000000000000000000000000000000000000000000000000000600052604160045260246000fd5b600080fd5b600080fd5b600080fd5b600080fd5b6000601f19601f8301169050919050565b6106778161053c565b811461068257600080fd5b5056fea2646970667358221220f10c2d05487dd89c4c8e551bbc368c8ae9ec4f6c8e05a5b8270e08e78691cdd764736f6c63430008070033",
					"opcodes": "PUSH1 0x80 PUSH1 0x40 MSTORE CALLVALUE DUP1 ISZERO PUSH2 0x10 JUMPI PUSH1 0x0 DUP1 REVERT JUMPDEST POP PUSH2 0x6BB DUP1 PUSH2 0x20 PUSH1 0x0 CODECOPY PUSH1 0x0 RETURN INVALID PUSH1 0x80 PUSH1 0x40 MSTORE CALLVALUE DUP1 ISZERO PUSH2 0x10 JUMPI PUSH1 0x0 DUP1 REVERT JUMPDEST POP PUSH1 0x4 CALLDATASIZE LT PUSH2 0x36 JUMPI PUSH1 0x0 CALLDATALOAD PUSH1 0xE0 SHR DUP1 PUSH4 0x58FCBBFD EQ PUSH2 0x3B JUMPI DUP1 PUSH4 0x942B765A EQ PUSH2 0x57 JUMPI JUMPDEST PUSH1 0x0 DUP1 REVERT JUMPDEST PUSH2 0x55 PUSH1 0x4 DUP1 CALLDATASIZE SUB DUP2 ADD SWAP1 PUSH2 0x50 SWAP2 SWAP1 PUSH2 0x305 JUMP JUMPDEST PUSH2 0x75 JUMP JUMPDEST STOP JUMPDEST PUSH2 0x5F PUSH2 0xE2 JUMP JUMPDEST PUSH1 0x40 MLOAD PUSH2 0x6C SWAP2 SWAP1 PUSH2 0x46F JUMP JUMPDEST PUSH1 0x40 MLOAD DUP1 SWAP2 SUB SWAP1 RETURN JUMPDEST PUSH1 0x0 PUSH1 0x40 MLOAD DUP1 PUSH1 0x40 ADD PUSH1 0x40 MSTORE DUP1 DUP5 DUP2 MSTORE PUSH1 0x20 ADD DUP4 DUP2 MSTORE POP SWAP1 DUP1 PUSH1 0x1 DUP2 SLOAD ADD DUP1 DUP3 SSTORE DUP1 SWAP2 POP POP PUSH1 0x1 SWAP1 SUB SWAP1 PUSH1 0x0 MSTORE PUSH1 0x20 PUSH1 0x0 KECCAK256 SWAP1 PUSH1 0x2 MUL ADD PUSH1 0x0 SWAP1 SWAP2 SWAP1 SWAP2 SWAP1 SWAP2 POP PUSH1 0x0 DUP3 ADD MLOAD DUP2 PUSH1 0x0 ADD SSTORE PUSH1 0x20 DUP3 ADD MLOAD DUP2 PUSH1 0x1 ADD SWAP1 DUP1 MLOAD SWAP1 PUSH1 0x20 ADD SWAP1 PUSH2 0xDB SWAP3 SWAP2 SWAP1 PUSH2 0x1DD JUMP JUMPDEST POP POP POP POP POP JUMP JUMPDEST PUSH1 0x60 PUSH1 0x0 DUP1 SLOAD DUP1 PUSH1 0x20 MUL PUSH1 0x20 ADD PUSH1 0x40 MLOAD SWAP1 DUP2 ADD PUSH1 0x40 MSTORE DUP1 SWAP3 SWAP2 SWAP1 DUP2 DUP2 MSTORE PUSH1 0x20 ADD PUSH1 0x0 SWAP1 JUMPDEST DUP3 DUP3 LT ISZERO PUSH2 0x1D4 JUMPI DUP4 DUP3 SWAP1 PUSH1 0x0 MSTORE PUSH1 0x20 PUSH1 0x0 KECCAK256 SWAP1 PUSH1 0x2 MUL ADD PUSH1 0x40 MLOAD DUP1 PUSH1 0x40 ADD PUSH1 0x40 MSTORE SWAP1 DUP2 PUSH1 0x0 DUP3 ADD SLOAD DUP2 MSTORE PUSH1 0x20 ADD PUSH1 0x1 DUP3 ADD DUP1 SLOAD PUSH2 0x143 SWAP1 PUSH2 0x588 JUMP JUMPDEST DUP1 PUSH1 0x1F ADD PUSH1 0x20 DUP1 SWAP2 DIV MUL PUSH1 0x20 ADD PUSH1 0x40 MLOAD SWAP1 DUP2 ADD PUSH1 0x40 MSTORE DUP1 SWAP3 SWAP2 SWAP1 DUP2 DUP2 MSTORE PUSH1 0x20 ADD DUP3 DUP1 SLOAD PUSH2 0x16F SWAP1 PUSH2 0x588 JUMP JUMPDEST DUP1 ISZERO PUSH2 0x1BC JUMPI DUP1 PUSH1 0x1F LT PUSH2 0x191 JUMPI PUSH2 0x100 DUP1 DUP4 SLOAD DIV MUL DUP4 MSTORE SWAP2 PUSH1 0x20 ADD SWAP2 PUSH2 0x1BC JUMP JUMPDEST DUP3 ADD SWAP2 SWAP1 PUSH1 0x0 MSTORE PUSH1 0x20 PUSH1 0x0 KECCAK256 SWAP1 JUMPDEST DUP2 SLOAD DUP2 MSTORE SWAP1 PUSH1 0x1 ADD SWAP1 PUSH1 0x20 ADD DUP1 DUP4 GT PUSH2 0x19F JUMPI DUP3 SWAP1 SUB PUSH1 0x1F AND DUP3 ADD SWAP2 JUMPDEST POP POP POP POP POP DUP2 MSTORE POP POP DUP2 MSTORE PUSH1 0x20 ADD SWAP1 PUSH1 0x1 ADD SWAP1 PUSH2 0x106 JUMP JUMPDEST POP POP POP POP SWAP1 POP SWAP1 JUMP JUMPDEST DUP3 DUP1 SLOAD PUSH2 0x1E9 SWAP1 PUSH2 0x588 JUMP JUMPDEST SWAP1 PUSH1 0x0 MSTORE PUSH1 0x20 PUSH1 0x0 KECCAK256 SWAP1 PUSH1 0x1F ADD PUSH1 0x20 SWAP1 DIV DUP2 ADD SWAP3 DUP3 PUSH2 0x20B JUMPI PUSH1 0x0 DUP6 SSTORE PUSH2 0x252 JUMP JUMPDEST DUP3 PUSH1 0x1F LT PUSH2 0x224 JUMPI DUP1 MLOAD PUSH1 0xFF NOT AND DUP4 DUP1 ADD OR DUP6 SSTORE PUSH2 0x252 JUMP JUMPDEST DUP3 DUP1 ADD PUSH1 0x1 ADD DUP6 SSTORE DUP3 ISZERO PUSH2 0x252 JUMPI SWAP2 DUP3 ADD JUMPDEST DUP3 DUP2 GT ISZERO PUSH2 0x251 JUMPI DUP3 MLOAD DUP3 SSTORE SWAP2 PUSH1 0x20 ADD SWAP2 SWAP1 PUSH1 0x1 ADD SWAP1 PUSH2 0x236 JUMP JUMPDEST JUMPDEST POP SWAP1 POP PUSH2 0x25F SWAP2 SWAP1 PUSH2 0x263 JUMP JUMPDEST POP SWAP1 JUMP JUMPDEST JUMPDEST DUP1 DUP3 GT ISZERO PUSH2 0x27C JUMPI PUSH1 0x0 DUP2 PUSH1 0x0 SWAP1 SSTORE POP PUSH1 0x1 ADD PUSH2 0x264 JUMP JUMPDEST POP SWAP1 JUMP JUMPDEST PUSH1 0x0 PUSH2 0x293 PUSH2 0x28E DUP5 PUSH2 0x4B6 JUMP JUMPDEST PUSH2 0x491 JUMP JUMPDEST SWAP1 POP DUP3 DUP2 MSTORE PUSH1 0x20 DUP2 ADD DUP5 DUP5 DUP5 ADD GT ISZERO PUSH2 0x2AF JUMPI PUSH2 0x2AE PUSH2 0x64E JUMP JUMPDEST JUMPDEST PUSH2 0x2BA DUP5 DUP3 DUP6 PUSH2 0x546 JUMP JUMPDEST POP SWAP4 SWAP3 POP POP POP JUMP JUMPDEST PUSH1 0x0 DUP3 PUSH1 0x1F DUP4 ADD SLT PUSH2 0x2D7 JUMPI PUSH2 0x2D6 PUSH2 0x649 JUMP JUMPDEST JUMPDEST DUP2 CALLDATALOAD PUSH2 0x2E7 DUP5 DUP3 PUSH1 0x20 DUP7 ADD PUSH2 0x280 JUMP JUMPDEST SWAP2 POP POP SWAP3 SWAP2 POP POP JUMP JUMPDEST PUSH1 0x0 DUP2 CALLDATALOAD SWAP1 POP PUSH2 0x2FF DUP2 PUSH2 0x66E JUMP JUMPDEST SWAP3 SWAP2 POP POP JUMP JUMPDEST PUSH1 0x0 DUP1 PUSH1 0x40 DUP4 DUP6 SUB SLT ISZERO PUSH2 0x31C JUMPI PUSH2 0x31B PUSH2 0x658 JUMP JUMPDEST JUMPDEST PUSH1 0x0 PUSH2 0x32A DUP6 DUP3 DUP7 ADD PUSH2 0x2F0 JUMP JUMPDEST SWAP3 POP POP PUSH1 0x20 DUP4 ADD CALLDATALOAD PUSH8 0xFFFFFFFFFFFFFFFF DUP2 GT ISZERO PUSH2 0x34B JUMPI PUSH2 0x34A PUSH2 0x653 JUMP JUMPDEST JUMPDEST PUSH2 0x357 DUP6 DUP3 DUP7 ADD PUSH2 0x2C2 JUMP JUMPDEST SWAP2 POP POP SWAP3 POP SWAP3 SWAP1 POP JUMP JUMPDEST PUSH1 0x0 PUSH2 0x36D DUP4 DUP4 PUSH2 0x423 JUMP JUMPDEST SWAP1 POP SWAP3 SWAP2 POP POP JUMP JUMPDEST PUSH1 0x0 PUSH2 0x380 DUP3 PUSH2 0x4F7 JUMP JUMPDEST PUSH2 0x38A DUP2 DUP6 PUSH2 0x51A JUMP JUMPDEST SWAP4 POP DUP4 PUSH1 0x20 DUP3 MUL DUP6 ADD PUSH2 0x39C DUP6 PUSH2 0x4E7 JUMP JUMPDEST DUP1 PUSH1 0x0 JUMPDEST DUP6 DUP2 LT ISZERO PUSH2 0x3D8 JUMPI DUP5 DUP5 SUB DUP10 MSTORE DUP2 MLOAD PUSH2 0x3B9 DUP6 DUP3 PUSH2 0x361 JUMP JUMPDEST SWAP5 POP PUSH2 0x3C4 DUP4 PUSH2 0x50D JUMP JUMPDEST SWAP3 POP PUSH1 0x20 DUP11 ADD SWAP10 POP POP PUSH1 0x1 DUP2 ADD SWAP1 POP PUSH2 0x3A0 JUMP JUMPDEST POP DUP3 SWAP8 POP DUP8 SWAP6 POP POP POP POP POP POP SWAP3 SWAP2 POP POP JUMP JUMPDEST PUSH1 0x0 PUSH2 0x3F5 DUP3 PUSH2 0x502 JUMP JUMPDEST PUSH2 0x3FF DUP2 DUP6 PUSH2 0x52B JUMP JUMPDEST SWAP4 POP PUSH2 0x40F DUP2 DUP6 PUSH1 0x20 DUP7 ADD PUSH2 0x555 JUMP JUMPDEST PUSH2 0x418 DUP2 PUSH2 0x65D JUMP JUMPDEST DUP5 ADD SWAP2 POP POP SWAP3 SWAP2 POP POP JUMP JUMPDEST PUSH1 0x0 PUSH1 0x40 DUP4 ADD PUSH1 0x0 DUP4 ADD MLOAD PUSH2 0x43B PUSH1 0x0 DUP7 ADD DUP3 PUSH2 0x460 JUMP JUMPDEST POP PUSH1 0x20 DUP4 ADD MLOAD DUP5 DUP3 SUB PUSH1 0x20 DUP7 ADD MSTORE PUSH2 0x453 DUP3 DUP3 PUSH2 0x3EA JUMP JUMPDEST SWAP2 POP POP DUP1 SWAP2 POP POP SWAP3 SWAP2 POP POP JUMP JUMPDEST PUSH2 0x469 DUP2 PUSH2 0x53C JUMP JUMPDEST DUP3 MSTORE POP POP JUMP JUMPDEST PUSH1 0x0 PUSH1 0x20 DUP3 ADD SWAP1 POP DUP2 DUP2 SUB PUSH1 0x0 DUP4 ADD MSTORE PUSH2 0x489 DUP2 DUP5 PUSH2 0x375 JUMP JUMPDEST SWAP1 POP SWAP3 SWAP2 POP POP JUMP JUMPDEST PUSH1 0x0 PUSH2 0x49B PUSH2 0x4AC JUMP JUMPDEST SWAP1 POP PUSH2 0x4A7 DUP3 DUP3 PUSH2 0x5BA JUMP JUMPDEST SWAP2 SWAP1 POP JUMP JUMPDEST PUSH1 0x0 PUSH1 0x40 MLOAD SWAP1 POP SWAP1 JUMP JUMPDEST PUSH1 0x0 PUSH8 0xFFFFFFFFFFFFFFFF DUP3 GT ISZERO PUSH2 0x4D1 JUMPI PUSH2 0x4D0 PUSH2 0x61A JUMP JUMPDEST JUMPDEST PUSH2 0x4DA DUP3 PUSH2 0x65D JUMP JUMPDEST SWAP1 POP PUSH1 0x20 DUP2 ADD SWAP1 POP SWAP2 SWAP1 POP JUMP JUMPDEST PUSH1 0x0 DUP2 SWAP1 POP PUSH1 0x20 DUP3 ADD SWAP1 POP SWAP2 SWAP1 POP JUMP JUMPDEST PUSH1 0x0 DUP2 MLOAD SWAP1 POP SWAP2 SWAP1 POP JUMP JUMPDEST PUSH1 0x0 DUP2 MLOAD SWAP1 POP SWAP2 SWAP1 POP JUMP JUMPDEST PUSH1 0x0 PUSH1 0x20 DUP3 ADD SWAP1 POP SWAP2 SWAP1 POP JUMP JUMPDEST PUSH1 0x0 DUP3 DUP3 MSTORE PUSH1 0x20 DUP3 ADD SWAP1 POP SWAP3 SWAP2 POP POP JUMP JUMPDEST PUSH1 0x0 DUP3 DUP3 MSTORE PUSH1 0x20 DUP3 ADD SWAP1 POP SWAP3 SWAP2 POP POP JUMP JUMPDEST PUSH1 0x0 DUP2 SWAP1 POP SWAP2 SWAP1 POP JUMP JUMPDEST DUP3 DUP2 DUP4 CALLDATACOPY PUSH1 0x0 DUP4 DUP4 ADD MSTORE POP POP POP JUMP JUMPDEST PUSH1 0x0 JUMPDEST DUP4 DUP2 LT ISZERO PUSH2 0x573 JUMPI DUP1 DUP3 ADD MLOAD DUP2 DUP5 ADD MSTORE PUSH1 0x20 DUP2 ADD SWAP1 POP PUSH2 0x558 JUMP JUMPDEST DUP4 DUP2 GT ISZERO PUSH2 0x582 JUMPI PUSH1 0x0 DUP5 DUP5 ADD MSTORE JUMPDEST POP POP POP POP JUMP JUMPDEST PUSH1 0x0 PUSH1 0x2 DUP3 DIV SWAP1 POP PUSH1 0x1 DUP3 AND DUP1 PUSH2 0x5A0 JUMPI PUSH1 0x7F DUP3 AND SWAP2 POP JUMPDEST PUSH1 0x20 DUP3 LT DUP2 EQ ISZERO PUSH2 0x5B4 JUMPI PUSH2 0x5B3 PUSH2 0x5EB JUMP JUMPDEST JUMPDEST POP SWAP2 SWAP1 POP JUMP JUMPDEST PUSH2 0x5C3 DUP3 PUSH2 0x65D JUMP JUMPDEST DUP2 ADD DUP2 DUP2 LT PUSH8 0xFFFFFFFFFFFFFFFF DUP3 GT OR ISZERO PUSH2 0x5E2 JUMPI PUSH2 0x5E1 PUSH2 0x61A JUMP JUMPDEST JUMPDEST DUP1 PUSH1 0x40 MSTORE POP POP POP JUMP JUMPDEST PUSH32 0x4E487B7100000000000000000000000000000000000000000000000000000000 PUSH1 0x0 MSTORE PUSH1 0x22 PUSH1 0x4 MSTORE PUSH1 0x24 PUSH1 0x0 REVERT JUMPDEST PUSH32 0x4E487B7100000000000000000000000000000000000000000000000000000000 PUSH1 0x0 MSTORE PUSH1 0x41 PUSH1 0x4 MSTORE PUSH1 0x24 PUSH1 0x0 REVERT JUMPDEST PUSH1 0x0 DUP1 REVERT JUMPDEST PUSH1 0x0 DUP1 REVERT JUMPDEST PUSH1 0x0 DUP1 REVERT JUMPDEST PUSH1 0x0 DUP1 REVERT JUMPDEST PUSH1 0x0 PUSH1 0x1F NOT PUSH1 0x1F DUP4 ADD AND SWAP1 POP SWAP2 SWAP1 POP JUMP JUMPDEST PUSH2 0x677 DUP2 PUSH2 0x53C JUMP JUMPDEST DUP2 EQ PUSH2 0x682 JUMPI PUSH1 0x0 DUP1 REVERT JUMPDEST POP JUMP INVALID LOG2 PUSH5 0x6970667358 0x22 SLT KECCAK256 CALL 0xC 0x2D SDIV BASEFEE PUSH30 0xD89C4C8E551BBC368C8AE9EC4F6C8E05A5B8270E08E78691CDD764736F6C PUSH4 0x43000807 STOP CALLER "
				},
				"gasEstimates": {
					"creation": {
						"codeDepositCost": "344600",
						"executionCost": "380",
						"totalCost": "344980"
					},
					"external": {
						"addTask(uint256,string)": "infinite",
						"getList()": "infinite"
					}
				},
				"methodIdentifiers": {
					"addTask(uint256,string)": "58fcbbfd",
					"getList()": "942b765a"
				}
			},
			"storageLayout": {
				"storage": [
					{
						"astId": 10,
						"contract": "todoList.sol:TodoListData",
						"label": "list",
						"offset": 0,
						"slot": "0",
						"type": "t_array(t_struct(Task)6_storage)dyn_storage"
					}
				],
				"types": {
					"t_array(t_struct(Task)6_storage)dyn_storage": {
						"base": "t_struct(Task)6_storage",
						"encoding": "dynamic_array",
						"label": "struct TodoListData.Task[]",
						"numberOfBytes": "32"
					},
					"t_string_storage": {
						"encoding": "bytes",
						"label": "string",
						"numberOfBytes": "32"
					},
					"t_struct(Task)6_storage": {
						"encoding": "inplace",
						"label": "struct TodoListData.Task",
						"members": [
							{
								"astId": 3,
								"contract": "todoList.sol:TodoListData",
								"label": "id",
								"offset": 0,
								"slot": "0",
								"type": "t_uint256"
							},
							{
								"astId": 5,
								"contract": "todoList.sol:TodoListData",
								"label": "value",
								"offset": 0,
								"slot": "1",
								"type": "t_string_storage"
							}
						],
						"numberOfBytes": "64"
					},
					"t_uint256": {
						"encoding": "inplace",
						"label": "uint256",
						"numberOfBytes": "32"
					}
				}
			},
			"userdoc": {
				"kind": "user",
				"methods": {},
				"version": 1
			}
		}
	}
}