{
	"data": {
		"bytecode": {
			"linkReferences": {},
			"object": "608060405234801561001057600080fd5b50610765806100206000396000f3fe6080604052600436106100295760003560e01c806359c3519b1461002e5780639c73dbe61461004a575b600080fd5b61004860048036038101906100439190610444565b610073565b005b34801561005657600080fd5b50610071600480360381019061006c9190610417565b6100e5565b005b8273ffffffffffffffffffffffffffffffffffffffff166373a4e4c383836040518363ffffffff1660e01b81526004016100ae929190610508565b600060405180830381600087803b1580156100c857600080fd5b505af11580156100dc573d6000803e3d6000fd5b50505050505050565b8073ffffffffffffffffffffffffffffffffffffffff1663b85220436040518163ffffffff1660e01b815260040160006040518083038186803b15801561012b57600080fd5b505afa15801561013f573d6000803e3d6000fd5b505050506040513d6000823e3d601f19601f8201168201806040525081019061016891906103ce565b5050565b600061017f61017a84610564565b61053f565b905080838252602082019050828560208602820111156101a2576101a16106dc565b5b60005b858110156101f057815167ffffffffffffffff8111156101c8576101c76106cd565b5b8086016101d5898261031d565b855260208501945060208401935050506001810190506101a5565b5050509392505050565b600061020d61020884610590565b61053f565b905082815260208101848484011115610229576102286106e1565b5b61023484828561062b565b509392505050565b600061024f61024a84610590565b61053f565b90508281526020810184848401111561026b5761026a6106e1565b5b61027684828561063a565b509392505050565b600082601f830112610293576102926106cd565b5b81516102a384826020860161016c565b91505092915050565b6000813590506102bb81610701565b92915050565b600082601f8301126102d6576102d56106cd565b5b81356102e68482602086016101fa565b91505092915050565b600082601f830112610304576103036106cd565b5b815161031484826020860161023c565b91505092915050565b600060608284031215610333576103326106d2565b5b61033d606061053f565b9050600061034d848285016103b9565b600083015250602082015167ffffffffffffffff811115610371576103706106d7565b5b61037d848285016102ef565b602083015250604082015167ffffffffffffffff8111156103a1576103a06106d7565b5b6103ad848285016102ef565b60408301525092915050565b6000815190506103c881610718565b92915050565b6000602082840312156103e4576103e36106eb565b5b600082015167ffffffffffffffff811115610402576104016106e6565b5b61040e8482850161027e565b91505092915050565b60006020828403121561042d5761042c6106eb565b5b600061043b848285016102ac565b91505092915050565b60008060006060848603121561045d5761045c6106eb565b5b600061046b868287016102ac565b935050602084013567ffffffffffffffff81111561048c5761048b6106e6565b5b610498868287016102c1565b925050604084013567ffffffffffffffff8111156104b9576104b86106e6565b5b6104c5868287016102c1565b9150509250925092565b60006104da826105c1565b6104e481856105cc565b93506104f481856020860161063a565b6104fd816106f0565b840191505092915050565b6000604082019050818103600083015261052281856104cf565b9050818103602083015261053681846104cf565b90509392505050565b600061054961055a565b9050610555828261066d565b919050565b6000604051905090565b600067ffffffffffffffff82111561057f5761057e61069e565b5b602082029050602081019050919050565b600067ffffffffffffffff8211156105ab576105aa61069e565b5b6105b4826106f0565b9050602081019050919050565b600081519050919050565b600082825260208201905092915050565b60006105e882610601565b9050919050565b60006105fa826105dd565b9050919050565b600073ffffffffffffffffffffffffffffffffffffffff82169050919050565b6000819050919050565b82818337600083830152505050565b60005b8381101561065857808201518184015260208101905061063d565b83811115610667576000848401525b50505050565b610676826106f0565b810181811067ffffffffffffffff821117156106955761069461069e565b5b80604052505050565b7f4e487b7100000000000000000000000000000000000000000000000000000000600052604160045260246000fd5b600080fd5b600080fd5b600080fd5b600080fd5b600080fd5b600080fd5b600080fd5b6000601f19601f8301169050919050565b61070a816105ef565b811461071557600080fd5b50565b61072181610621565b811461072c57600080fd5b5056fea264697066735822122085225487f1d844faf1e268fce58e6d12756a0dc2b66eca42b659dc4c8f44c19564736f6c63430008070033",
			"opcodes": "PUSH1 0x80 PUSH1 0x40 MSTORE CALLVALUE DUP1 ISZERO PUSH2 0x10 JUMPI PUSH1 0x0 DUP1 REVERT JUMPDEST POP PUSH2 0x765 DUP1 PUSH2 0x20 PUSH1 0x0 CODECOPY PUSH1 0x0 RETURN INVALID PUSH1 0x80 PUSH1 0x40 MSTORE PUSH1 0x4 CALLDATASIZE LT PUSH2 0x29 JUMPI PUSH1 0x0 CALLDATALOAD PUSH1 0xE0 SHR DUP1 PUSH4 0x59C3519B EQ PUSH2 0x2E JUMPI DUP1 PUSH4 0x9C73DBE6 EQ PUSH2 0x4A JUMPI JUMPDEST PUSH1 0x0 DUP1 REVERT JUMPDEST PUSH2 0x48 PUSH1 0x4 DUP1 CALLDATASIZE SUB DUP2 ADD SWAP1 PUSH2 0x43 SWAP2 SWAP1 PUSH2 0x444 JUMP JUMPDEST PUSH2 0x73 JUMP JUMPDEST STOP JUMPDEST CALLVALUE DUP1 ISZERO PUSH2 0x56 JUMPI PUSH1 0x0 DUP1 REVERT JUMPDEST POP PUSH2 0x71 PUSH1 0x4 DUP1 CALLDATASIZE SUB DUP2 ADD SWAP1 PUSH2 0x6C SWAP2 SWAP1 PUSH2 0x417 JUMP JUMPDEST PUSH2 0xE5 JUMP JUMPDEST STOP JUMPDEST DUP3 PUSH20 0xFFFFFFFFFFFFFFFFFFFFFFFFFFFFFFFFFFFFFFFF AND PUSH4 0x73A4E4C3 DUP4 DUP4 PUSH1 0x40 MLOAD DUP4 PUSH4 0xFFFFFFFF AND PUSH1 0xE0 SHL DUP2 MSTORE PUSH1 0x4 ADD PUSH2 0xAE SWAP3 SWAP2 SWAP1 PUSH2 0x508 JUMP JUMPDEST PUSH1 0x0 PUSH1 0x40 MLOAD DUP1 DUP4 SUB DUP2 PUSH1 0x0 DUP8 DUP1 EXTCODESIZE ISZERO DUP1 ISZERO PUSH2 0xC8 JUMPI PUSH1 0x0 DUP1 REVERT JUMPDEST POP GAS CALL ISZERO DUP1 ISZERO PUSH2 0xDC JUMPI RETURNDATASIZE PUSH1 0x0 DUP1 RETURNDATACOPY RETURNDATASIZE PUSH1 0x0 REVERT JUMPDEST POP POP POP POP POP POP POP JUMP JUMPDEST DUP1 PUSH20 0xFFFFFFFFFFFFFFFFFFFFFFFFFFFFFFFFFFFFFFFF AND PUSH4 0xB8522043 PUSH1 0x40 MLOAD DUP2 PUSH4 0xFFFFFFFF AND PUSH1 0xE0 SHL DUP2 MSTORE PUSH1 0x4 ADD PUSH1 0x0 PUSH1 0x40 MLOAD DUP1 DUP4 SUB DUP2 DUP7 DUP1 EXTCODESIZE ISZERO DUP1 ISZERO PUSH2 0x12B JUMPI PUSH1 0x0 DUP1 REVERT JUMPDEST POP GAS STATICCALL ISZERO DUP1 ISZERO PUSH2 0x13F JUMPI RETURNDATASIZE PUSH1 0x0 DUP1 RETURNDATACOPY RETURNDATASIZE PUSH1 0x0 REVERT JUMPDEST POP POP POP POP PUSH1 0x40 MLOAD RETURNDATASIZE PUSH1 0x0 DUP3 RETURNDATACOPY RETURNDATASIZE PUSH1 0x1F NOT PUSH1 0x1F DUP3 ADD AND DUP3 ADD DUP1 PUSH1 0x40 MSTORE POP DUP2 ADD SWAP1 PUSH2 0x168 SWAP2 SWAP1 PUSH2 0x3CE JUMP JUMPDEST POP POP JUMP JUMPDEST PUSH1 0x0 PUSH2 0x17F PUSH2 0x17A DUP5 PUSH2 0x564 JUMP JUMPDEST PUSH2 0x53F JUMP JUMPDEST SWAP1 POP DUP1 DUP4 DUP3 MSTORE PUSH1 0x20 DUP3 ADD SWAP1 POP DUP3 DUP6 PUSH1 0x20 DUP7 MUL DUP3 ADD GT ISZERO PUSH2 0x1A2 JUMPI PUSH2 0x1A1 PUSH2 0x6DC JUMP JUMPDEST JUMPDEST PUSH1 0x0 JUMPDEST DUP6 DUP2 LT ISZERO PUSH2 0x1F0 JUMPI DUP2 MLOAD PUSH8 0xFFFFFFFFFFFFFFFF DUP2 GT ISZERO PUSH2 0x1C8 JUMPI PUSH2 0x1C7 PUSH2 0x6CD JUMP JUMPDEST JUMPDEST DUP1 DUP7 ADD PUSH2 0x1D5 DUP10 DUP3 PUSH2 0x31D JUMP JUMPDEST DUP6 MSTORE PUSH1 0x20 DUP6 ADD SWAP5 POP PUSH1 0x20 DUP5 ADD SWAP4 POP POP POP PUSH1 0x1 DUP2 ADD SWAP1 POP PUSH2 0x1A5 JUMP JUMPDEST POP POP POP SWAP4 SWAP3 POP POP POP JUMP JUMPDEST PUSH1 0x0 PUSH2 0x20D PUSH2 0x208 DUP5 PUSH2 0x590 JUMP JUMPDEST PUSH2 0x53F JUMP JUMPDEST SWAP1 POP DUP3 DUP2 MSTORE PUSH1 0x20 DUP2 ADD DUP5 DUP5 DUP5 ADD GT ISZERO PUSH2 0x229 JUMPI PUSH2 0x228 PUSH2 0x6E1 JUMP JUMPDEST JUMPDEST PUSH2 0x234 DUP5 DUP3 DUP6 PUSH2 0x62B JUMP JUMPDEST POP SWAP4 SWAP3 POP POP POP JUMP JUMPDEST PUSH1 0x0 PUSH2 0x24F PUSH2 0x24A DUP5 PUSH2 0x590 JUMP JUMPDEST PUSH2 0x53F JUMP JUMPDEST SWAP1 POP DUP3 DUP2 MSTORE PUSH1 0x20 DUP2 ADD DUP5 DUP5 DUP5 ADD GT ISZERO PUSH2 0x26B JUMPI PUSH2 0x26A PUSH2 0x6E1 JUMP JUMPDEST JUMPDEST PUSH2 0x276 DUP5 DUP3 DUP6 PUSH2 0x63A JUMP JUMPDEST POP SWAP4 SWAP3 POP POP POP JUMP JUMPDEST PUSH1 0x0 DUP3 PUSH1 0x1F DUP4 ADD SLT PUSH2 0x293 JUMPI PUSH2 0x292 PUSH2 0x6CD JUMP JUMPDEST JUMPDEST DUP2 MLOAD PUSH2 0x2A3 DUP5 DUP3 PUSH1 0x20 DUP7 ADD PUSH2 0x16C JUMP JUMPDEST SWAP2 POP POP SWAP3 SWAP2 POP POP JUMP JUMPDEST PUSH1 0x0 DUP2 CALLDATALOAD SWAP1 POP PUSH2 0x2BB DUP2 PUSH2 0x701 JUMP JUMPDEST SWAP3 SWAP2 POP POP JUMP JUMPDEST PUSH1 0x0 DUP3 PUSH1 0x1F DUP4 ADD SLT PUSH2 0x2D6 JUMPI PUSH2 0x2D5 PUSH2 0x6CD JUMP JUMPDEST JUMPDEST DUP2 CALLDATALOAD PUSH2 0x2E6 DUP5 DUP3 PUSH1 0x20 DUP7 ADD PUSH2 0x1FA JUMP JUMPDEST SWAP2 POP POP SWAP3 SWAP2 POP POP JUMP JUMPDEST PUSH1 0x0 DUP3 PUSH1 0x1F DUP4 ADD SLT PUSH2 0x304 JUMPI PUSH2 0x303 PUSH2 0x6CD JUMP JUMPDEST JUMPDEST DUP2 MLOAD PUSH2 0x314 DUP5 DUP3 PUSH1 0x20 DUP7 ADD PUSH2 0x23C JUMP JUMPDEST SWAP2 POP POP SWAP3 SWAP2 POP POP JUMP JUMPDEST PUSH1 0x0 PUSH1 0x60 DUP3 DUP5 SUB SLT ISZERO PUSH2 0x333 JUMPI PUSH2 0x332 PUSH2 0x6D2 JUMP JUMPDEST JUMPDEST PUSH2 0x33D PUSH1 0x60 PUSH2 0x53F JUMP JUMPDEST SWAP1 POP PUSH1 0x0 PUSH2 0x34D DUP5 DUP3 DUP6 ADD PUSH2 0x3B9 JUMP JUMPDEST PUSH1 0x0 DUP4 ADD MSTORE POP PUSH1 0x20 DUP3 ADD MLOAD PUSH8 0xFFFFFFFFFFFFFFFF DUP2 GT ISZERO PUSH2 0x371 JUMPI PUSH2 0x370 PUSH2 0x6D7 JUMP JUMPDEST JUMPDEST PUSH2 0x37D DUP5 DUP3 DUP6 ADD PUSH2 0x2EF JUMP JUMPDEST PUSH1 0x20 DUP4 ADD MSTORE POP PUSH1 0x40 DUP3 ADD MLOAD PUSH8 0xFFFFFFFFFFFFFFFF DUP2 GT ISZERO PUSH2 0x3A1 JUMPI PUSH2 0x3A0 PUSH2 0x6D7 JUMP JUMPDEST JUMPDEST PUSH2 0x3AD DUP5 DUP3 DUP6 ADD PUSH2 0x2EF JUMP JUMPDEST PUSH1 0x40 DUP4 ADD MSTORE POP SWAP3 SWAP2 POP POP JUMP JUMPDEST PUSH1 0x0 DUP2 MLOAD SWAP1 POP PUSH2 0x3C8 DUP2 PUSH2 0x718 JUMP JUMPDEST SWAP3 SWAP2 POP POP JUMP JUMPDEST PUSH1 0x0 PUSH1 0x20 DUP3 DUP5 SUB SLT ISZERO PUSH2 0x3E4 JUMPI PUSH2 0x3E3 PUSH2 0x6EB JUMP JUMPDEST JUMPDEST PUSH1 0x0 DUP3 ADD MLOAD PUSH8 0xFFFFFFFFFFFFFFFF DUP2 GT ISZERO PUSH2 0x402 JUMPI PUSH2 0x401 PUSH2 0x6E6 JUMP JUMPDEST JUMPDEST PUSH2 0x40E DUP5 DUP3 DUP6 ADD PUSH2 0x27E JUMP JUMPDEST SWAP2 POP POP SWAP3 SWAP2 POP POP JUMP JUMPDEST PUSH1 0x0 PUSH1 0x20 DUP3 DUP5 SUB SLT ISZERO PUSH2 0x42D JUMPI PUSH2 0x42C PUSH2 0x6EB JUMP JUMPDEST JUMPDEST PUSH1 0x0 PUSH2 0x43B DUP5 DUP3 DUP6 ADD PUSH2 0x2AC JUMP JUMPDEST SWAP2 POP POP SWAP3 SWAP2 POP POP JUMP JUMPDEST PUSH1 0x0 DUP1 PUSH1 0x0 PUSH1 0x60 DUP5 DUP7 SUB SLT ISZERO PUSH2 0x45D JUMPI PUSH2 0x45C PUSH2 0x6EB JUMP JUMPDEST JUMPDEST PUSH1 0x0 PUSH2 0x46B DUP7 DUP3 DUP8 ADD PUSH2 0x2AC JUMP JUMPDEST SWAP4 POP POP PUSH1 0x20 DUP5 ADD CALLDATALOAD PUSH8 0xFFFFFFFFFFFFFFFF DUP2 GT ISZERO PUSH2 0x48C JUMPI PUSH2 0x48B PUSH2 0x6E6 JUMP JUMPDEST JUMPDEST PUSH2 0x498 DUP7 DUP3 DUP8 ADD PUSH2 0x2C1 JUMP JUMPDEST SWAP3 POP POP PUSH1 0x40 DUP5 ADD CALLDATALOAD PUSH8 0xFFFFFFFFFFFFFFFF DUP2 GT ISZERO PUSH2 0x4B9 JUMPI PUSH2 0x4B8 PUSH2 0x6E6 JUMP JUMPDEST JUMPDEST PUSH2 0x4C5 DUP7 DUP3 DUP8 ADD PUSH2 0x2C1 JUMP JUMPDEST SWAP2 POP POP SWAP3 POP SWAP3 POP SWAP3 JUMP JUMPDEST PUSH1 0x0 PUSH2 0x4DA DUP3 PUSH2 0x5C1 JUMP JUMPDEST PUSH2 0x4E4 DUP2 DUP6 PUSH2 0x5CC JUMP JUMPDEST SWAP4 POP PUSH2 0x4F4 DUP2 DUP6 PUSH1 0x20 DUP7 ADD PUSH2 0x63A JUMP JUMPDEST PUSH2 0x4FD DUP2 PUSH2 0x6F0 JUMP JUMPDEST DUP5 ADD SWAP2 POP POP SWAP3 SWAP2 POP POP JUMP JUMPDEST PUSH1 0x0 PUSH1 0x40 DUP3 ADD SWAP1 POP DUP2 DUP2 SUB PUSH1 0x0 DUP4 ADD MSTORE PUSH2 0x522 DUP2 DUP6 PUSH2 0x4CF JUMP JUMPDEST SWAP1 POP DUP2 DUP2 SUB PUSH1 0x20 DUP4 ADD MSTORE PUSH2 0x536 DUP2 DUP5 PUSH2 0x4CF JUMP JUMPDEST SWAP1 POP SWAP4 SWAP3 POP POP POP JUMP JUMPDEST PUSH1 0x0 PUSH2 0x549 PUSH2 0x55A JUMP JUMPDEST SWAP1 POP PUSH2 0x555 DUP3 DUP3 PUSH2 0x66D JUMP JUMPDEST SWAP2 SWAP1 POP JUMP JUMPDEST PUSH1 0x0 PUSH1 0x40 MLOAD SWAP1 POP SWAP1 JUMP JUMPDEST PUSH1 0x0 PUSH8 0xFFFFFFFFFFFFFFFF DUP3 GT ISZERO PUSH2 0x57F JUMPI PUSH2 0x57E PUSH2 0x69E JUMP JUMPDEST JUMPDEST PUSH1 0x20 DUP3 MUL SWAP1 POP PUSH1 0x20 DUP2 ADD SWAP1 POP SWAP2 SWAP1 POP JUMP JUMPDEST PUSH1 0x0 PUSH8 0xFFFFFFFFFFFFFFFF DUP3 GT ISZERO PUSH2 0x5AB JUMPI PUSH2 0x5AA PUSH2 0x69E JUMP JUMPDEST JUMPDEST PUSH2 0x5B4 DUP3 PUSH2 0x6F0 JUMP JUMPDEST SWAP1 POP PUSH1 0x20 DUP2 ADD SWAP1 POP SWAP2 SWAP1 POP JUMP JUMPDEST PUSH1 0x0 DUP2 MLOAD SWAP1 POP SWAP2 SWAP1 POP JUMP JUMPDEST PUSH1 0x0 DUP3 DUP3 MSTORE PUSH1 0x20 DUP3 ADD SWAP1 POP SWAP3 SWAP2 POP POP JUMP JUMPDEST PUSH1 0x0 PUSH2 0x5E8 DUP3 PUSH2 0x601 JUMP JUMPDEST SWAP1 POP SWAP2 SWAP1 POP JUMP JUMPDEST PUSH1 0x0 PUSH2 0x5FA DUP3 PUSH2 0x5DD JUMP JUMPDEST SWAP1 POP SWAP2 SWAP1 POP JUMP JUMPDEST PUSH1 0x0 PUSH20 0xFFFFFFFFFFFFFFFFFFFFFFFFFFFFFFFFFFFFFFFF DUP3 AND SWAP1 POP SWAP2 SWAP1 POP JUMP JUMPDEST PUSH1 0x0 DUP2 SWAP1 POP SWAP2 SWAP1 POP JUMP JUMPDEST DUP3 DUP2 DUP4 CALLDATACOPY PUSH1 0x0 DUP4 DUP4 ADD MSTORE POP POP POP JUMP JUMPDEST PUSH1 0x0 JUMPDEST DUP4 DUP2 LT ISZERO PUSH2 0x658 JUMPI DUP1 DUP3 ADD MLOAD DUP2 DUP5 ADD MSTORE PUSH1 0x20 DUP2 ADD SWAP1 POP PUSH2 0x63D JUMP JUMPDEST DUP4 DUP2 GT ISZERO PUSH2 0x667 JUMPI PUSH1 0x0 DUP5 DUP5 ADD MSTORE JUMPDEST POP POP POP POP JUMP JUMPDEST PUSH2 0x676 DUP3 PUSH2 0x6F0 JUMP JUMPDEST DUP2 ADD DUP2 DUP2 LT PUSH8 0xFFFFFFFFFFFFFFFF DUP3 GT OR ISZERO PUSH2 0x695 JUMPI PUSH2 0x694 PUSH2 0x69E JUMP JUMPDEST JUMPDEST DUP1 PUSH1 0x40 MSTORE POP POP POP JUMP JUMPDEST PUSH32 0x4E487B7100000000000000000000000000000000000000000000000000000000 PUSH1 0x0 MSTORE PUSH1 0x41 PUSH1 0x4 MSTORE PUSH1 0x24 PUSH1 0x0 REVERT JUMPDEST PUSH1 0x0 DUP1 REVERT JUMPDEST PUSH1 0x0 DUP1 REVERT JUMPDEST PUSH1 0x0 DUP1 REVERT JUMPDEST PUSH1 0x0 DUP1 REVERT JUMPDEST PUSH1 0x0 DUP1 REVERT JUMPDEST PUSH1 0x0 DUP1 REVERT JUMPDEST PUSH1 0x0 DUP1 REVERT JUMPDEST PUSH1 0x0 PUSH1 0x1F NOT PUSH1 0x1F DUP4 ADD AND SWAP1 POP SWAP2 SWAP1 POP JUMP JUMPDEST PUSH2 0x70A DUP2 PUSH2 0x5EF JUMP JUMPDEST DUP2 EQ PUSH2 0x715 JUMPI PUSH1 0x0 DUP1 REVERT JUMPDEST POP JUMP JUMPDEST PUSH2 0x721 DUP2 PUSH2 0x621 JUMP JUMPDEST DUP2 EQ PUSH2 0x72C JUMPI PUSH1 0x0 DUP1 REVERT JUMPDEST POP JUMP INVALID LOG2 PUSH5 0x6970667358 0x22 SLT KECCAK256 DUP6 0x22 SLOAD DUP8 CALL 0xD8 DIFFICULTY STATICCALL CALL 0xE2 PUSH9 0xFCE58E6D12756A0DC2 0xB6 PUSH15 0xCA42B659DC4C8F44C19564736F6C63 NUMBER STOP ADDMOD SMOD STOP CALLER "
		},
		"gasEstimates": {
			"creation": {
				"codeDepositCost": "378600",
				"executionCost": "418",
				"totalCost": "379018"
			},
			"external": {
				"getUserList(address)": "infinite",
				"reg(address,string,string)": "infinite"
			}
		},
		"methodIdentifiers": {
			"getUserList(address)": "9c73dbe6",
			"reg(address,string,string)": "59c3519b"
		}
	},
	"abi": [
		{
			"inputs": [
				{
					"internalType": "contract UserReg",
					"name": "u",
					"type": "address"
				}
			],
			"name": "getUserList",
			"outputs": [],
			"stateMutability": "view",
			"type": "function"
		},
		{
			"inputs": [
				{
					"internalType": "contract UserReg",
					"name": "u",
					"type": "address"
				},
				{
					"internalType": "string",
					"name": "_name",
					"type": "string"
				},
				{
					"internalType": "string",
					"name": "_password",
					"type": "string"
				}
			],
			"name": "reg",
			"outputs": [],
			"stateMutability": "payable",
			"type": "function"
		}
	]
}