{
	"data": {
		"bytecode": {
			"linkReferences": {},
			"object": "608060405234801561001057600080fd5b5061019d806100206000396000f3fe608060405234801561001057600080fd5b50600436106100415760003560e01c80634f2be91f14610046578063d826f88f14610050578063ef7e1e891461005a575b600080fd5b61004e610064565b005b61005861007f565b005b610062610088565b005b600a60008082825461007691906100d9565b92505081905550565b60008081905550565b600054600054610098919061010d565b600081905550565b6000819050919050565b7f4e487b7100000000000000000000000000000000000000000000000000000000600052601160045260246000fd5b60006100e4826100a0565b91506100ef836100a0565b9250828201905080821115610107576101066100aa565b5b92915050565b6000610118826100a0565b9150610123836100a0565b9250817fffffffffffffffffffffffffffffffffffffffffffffffffffffffffffffffff048311821515161561015c5761015b6100aa565b5b82820290509291505056fea264697066735822122001378286b3a2eebf17a32fd04a694da2dd92bbaed68a3e5aa2091876f26ba0a164736f6c63430008100033",
			"opcodes": "PUSH1 0x80 PUSH1 0x40 MSTORE CALLVALUE DUP1 ISZERO PUSH2 0x10 JUMPI PUSH1 0x0 DUP1 REVERT JUMPDEST POP PUSH2 0x19D DUP1 PUSH2 0x20 PUSH1 0x0 CODECOPY PUSH1 0x0 RETURN INVALID PUSH1 0x80 PUSH1 0x40 MSTORE CALLVALUE DUP1 ISZERO PUSH2 0x10 JUMPI PUSH1 0x0 DUP1 REVERT JUMPDEST POP PUSH1 0x4 CALLDATASIZE LT PUSH2 0x41 JUMPI PUSH1 0x0 CALLDATALOAD PUSH1 0xE0 SHR DUP1 PUSH4 0x4F2BE91F EQ PUSH2 0x46 JUMPI DUP1 PUSH4 0xD826F88F EQ PUSH2 0x50 JUMPI DUP1 PUSH4 0xEF7E1E89 EQ PUSH2 0x5A JUMPI JUMPDEST PUSH1 0x0 DUP1 REVERT JUMPDEST PUSH2 0x4E PUSH2 0x64 JUMP JUMPDEST STOP JUMPDEST PUSH2 0x58 PUSH2 0x7F JUMP JUMPDEST STOP JUMPDEST PUSH2 0x62 PUSH2 0x88 JUMP JUMPDEST STOP JUMPDEST PUSH1 0xA PUSH1 0x0 DUP1 DUP3 DUP3 SLOAD PUSH2 0x76 SWAP2 SWAP1 PUSH2 0xD9 JUMP JUMPDEST SWAP3 POP POP DUP2 SWAP1 SSTORE POP JUMP JUMPDEST PUSH1 0x0 DUP1 DUP2 SWAP1 SSTORE POP JUMP JUMPDEST PUSH1 0x0 SLOAD PUSH1 0x0 SLOAD PUSH2 0x98 SWAP2 SWAP1 PUSH2 0x10D JUMP JUMPDEST PUSH1 0x0 DUP2 SWAP1 SSTORE POP JUMP JUMPDEST PUSH1 0x0 DUP2 SWAP1 POP SWAP2 SWAP1 POP JUMP JUMPDEST PUSH32 0x4E487B7100000000000000000000000000000000000000000000000000000000 PUSH1 0x0 MSTORE PUSH1 0x11 PUSH1 0x4 MSTORE PUSH1 0x24 PUSH1 0x0 REVERT JUMPDEST PUSH1 0x0 PUSH2 0xE4 DUP3 PUSH2 0xA0 JUMP JUMPDEST SWAP2 POP PUSH2 0xEF DUP4 PUSH2 0xA0 JUMP JUMPDEST SWAP3 POP DUP3 DUP3 ADD SWAP1 POP DUP1 DUP3 GT ISZERO PUSH2 0x107 JUMPI PUSH2 0x106 PUSH2 0xAA JUMP JUMPDEST JUMPDEST SWAP3 SWAP2 POP POP JUMP JUMPDEST PUSH1 0x0 PUSH2 0x118 DUP3 PUSH2 0xA0 JUMP JUMPDEST SWAP2 POP PUSH2 0x123 DUP4 PUSH2 0xA0 JUMP JUMPDEST SWAP3 POP DUP2 PUSH32 0xFFFFFFFFFFFFFFFFFFFFFFFFFFFFFFFFFFFFFFFFFFFFFFFFFFFFFFFFFFFFFFFF DIV DUP4 GT DUP3 ISZERO ISZERO AND ISZERO PUSH2 0x15C JUMPI PUSH2 0x15B PUSH2 0xAA JUMP JUMPDEST JUMPDEST DUP3 DUP3 MUL SWAP1 POP SWAP3 SWAP2 POP POP JUMP INVALID LOG2 PUSH5 0x6970667358 0x22 SLT KECCAK256 ADD CALLDATACOPY DUP3 DUP7 0xB3 LOG2 0xEE 0xBF OR LOG3 0x2F 0xD0 0x4A PUSH10 0x4DA2DD92BBAED68A3E5A LOG2 MULMOD XOR PUSH23 0xF26BA0A164736F6C634300081000330000000000000000 "
		},
		"gasEstimates": {
			"creation": {
				"codeDepositCost": "82600",
				"executionCost": "129",
				"totalCost": "82729"
			},
			"external": {
				"add()": "infinite",
				"pow()": "infinite",
				"reset()": "5158"
			}
		},
		"methodIdentifiers": {
			"add()": "4f2be91f",
			"pow()": "ef7e1e89",
			"reset()": "d826f88f"
		}
	},
	"abi": [
		{
			"inputs": [],
			"name": "add",
			"outputs": [],
			"stateMutability": "nonpayable",
			"type": "function"
		},
		{
			"inputs": [],
			"name": "pow",
			"outputs": [],
			"stateMutability": "nonpayable",
			"type": "function"
		},
		{
			"inputs": [],
			"name": "reset",
			"outputs": [],
			"stateMutability": "nonpayable",
			"type": "function"
		}
	]
}